{
	"data": {
		"bytecode": {
			"linkReferences": {},
			"object": "6101206040523480156200001257600080fd5b5060405162004fa438038062004fa48339818101604052810190620000389190620001b2565b8473ffffffffffffffffffffffffffffffffffffffff1660808173ffffffffffffffffffffffffffffffffffffffff16815250508373ffffffffffffffffffffffffffffffffffffffff1660a08173ffffffffffffffffffffffffffffffffffffffff16815250508273ffffffffffffffffffffffffffffffffffffffff1660c08173ffffffffffffffffffffffffffffffffffffffff16815250508173ffffffffffffffffffffffffffffffffffffffff1660e08173ffffffffffffffffffffffffffffffffffffffff16815250508073ffffffffffffffffffffffffffffffffffffffff166101008173ffffffffffffffffffffffffffffffffffffffff168152505050505050506200023a565b600080fd5b600073ffffffffffffffffffffffffffffffffffffffff82169050919050565b60006200017a826200014d565b9050919050565b6200018c816200016d565b81146200019857600080fd5b50565b600081519050620001ac8162000181565b92915050565b600080600080600060a08688031215620001d157620001d062000148565b5b6000620001e1888289016200019b565b9550506020620001f4888289016200019b565b945050604062000207888289016200019b565b93505060606200021a888289016200019b565b92505060806200022d888289016200019b565b9150509295509295909350565b60805160a05160c05160e05161010051614d02620002a260003960008181610e0f01526125c7015260008181611131015261139001526000818161109601526122e0015260008181610662015261245e015260008181610f74015261136c0152614d026000f3fe60806040523480156200001157600080fd5b5060043610620002205760003560e01c8063961be3911162000129578063da1c484511620000b1578063f399e22e116200007b578063f399e22e14620005d4578063f4464e2a14620005f4578063fbfa77cf1462000616578063fcfff16f14620006385762000220565b8063da1c48451462000538578063ddca3f43146200056e578063e66f53b71462000590578063f2be7f5314620005b25762000220565b8063c45a015511620000f3578063c45a015514620004ca578063c851cc3214620004ec578063cd9d3dd8146200050c578063d294f093146200052c5762000220565b8063961be39114620004575780639ce110d71462000463578063a21d13541462000485578063adc1b95614620004a85762000220565b80634b09b72a11620001ad5780636e99d77b11620001775780636e99d77b14620003cf578063765d641014620003f15780637d9f6db514620004135780638025e30314620004355762000220565b80634b09b72a14620003495780634f8c0f6e146200036b578063632a9a52146200038d578063660d0c4b14620003af5762000220565b80633205f5fc11620001ef5780633205f5fc14620002ad578063372c12b114620002cf5780633b92eb2314620003055780634897693614620003275762000220565b8063047fc9aa14620002255780630b1e423814620002475780630c7d5cd8146200026957806314442f54146200028b575b600080fd5b6200022f6200065a565b6040516200023e9190620029ca565b60405180910390f35b6200025162000660565b60405162000260919062002a2c565b60405180910390f35b6200027362000684565b604051620002829190620029ca565b60405180910390f35b620002956200068a565b604051620002a4919062002aed565b60405180910390f35b620002b7620006c3565b604051620002c6919062002a2c565b60405180910390f35b620002ed6004803603810190620002e7919062002b56565b620006e9565b604051620002fc919062002ba5565b60405180910390f35b6200030f62000709565b6040516200031e919062002a2c565b60405180910390f35b620003316200072f565b60405162000340919062002aed565b60405180910390f35b62000353620007c5565b604051620003629190620029ca565b60405180910390f35b62000375620007cb565b604051620003849190620029ca565b60405180910390f35b6200039762000a5f565b604051620003a6919062002a2c565b60405180910390f35b620003cd6004803603810190620003c7919062002d44565b62000a85565b005b620003d96200136a565b604051620003e8919062002a2c565b60405180910390f35b620003fb6200138e565b6040516200040a919062002a2c565b60405180910390f35b6200041d620013b2565b6040516200042c919062002a2c565b60405180910390f35b6200043f620013d8565b6040516200044e919062002e1e565b60405180910390f35b62000461620013dd565b005b6200046d62001958565b6040516200047c919062002ba5565b60405180910390f35b6200048f6200196b565b6040516200049f92919062002e3b565b60405180910390f35b620004b2620019af565b604051620004c19190620029ca565b60405180910390f35b620004d4620019b5565b604051620004e3919062002a2c565b60405180910390f35b6200050a600480360381019062000504919062002b56565b620019d9565b005b6200052a600480360381019062000524919062003020565b62001ba7565b005b6200053662001df3565b005b620005566004803603810190620005509190620030d9565b62002184565b604051620005659190620029ca565b60405180910390f35b62000578620022b2565b604051620005879190620029ca565b60405180910390f35b6200059a620022b8565b604051620005a9919062002a2c565b60405180910390f35b620005bc620022de565b604051620005cb919062002a2c565b60405180910390f35b620005f26004803603810190620005ec919062003120565b62002302565b005b620005fe620025c5565b6040516200060d919062002a2c565b60405180910390f35b62000620620025e9565b6040516200062f919062002a2c565b60405180910390f35b620006426200260f565b60405162000651919062002ba5565b60405180910390f35b600d5481565b7f000000000000000000000000000000000000000000000000000000000000000081565b600b5481565b6040518060400160405280601981526020017f546f6b656e2045636f6e6f6d696320262050726f706f736f6c0000000000000081525081565b600560009054906101000a900473ffffffffffffffffffffffffffffffffffffffff1681565b60076020528060005260406000206000915054906101000a900460ff1681565b600260009054906101000a900473ffffffffffffffffffffffffffffffffffffffff1681565b600980546200073e90620031b5565b80601f01602080910402602001604051908101604052809291908181526020018280546200076c90620031b5565b8015620007bd5780601f106200079157610100808354040283529160200191620007bd565b820191906000526020600020905b8154815290600101906020018083116200079f57829003601f168201915b505050505081565b600c5481565b600080600560009054906101000a900473ffffffffffffffffffffffffffffffffffffffff1673ffffffffffffffffffffffffffffffffffffffff166370a08231336040518263ffffffff1660e01b81526004016200082b919062002a2c565b602060405180830381865afa15801562000849573d6000803e3d6000fd5b505050506040513d601f19601f820116820180604052508101906200086f919062003201565b9050600081036200088557600091505062000a5c565b60008111620008cb576040517f08c379a0000000000000000000000000000000000000000000000000000000008152600401620008c29062003283565b60405180910390fd5b6000600260009054906101000a900473ffffffffffffffffffffffffffffffffffffffff1673ffffffffffffffffffffffffffffffffffffffff16634838ed196040518163ffffffff1660e01b8152600401602060405180830381865afa1580156200093b573d6000803e3d6000fd5b505050506040513d601f19601f8201168201806040525081019062000961919062003201565b600560009054906101000a900473ffffffffffffffffffffffffffffffffffffffff1673ffffffffffffffffffffffffffffffffffffffff166318160ddd6040518163ffffffff1660e01b8152600401602060405180830381865afa158015620009cf573d6000803e3d6000fd5b505050506040513d601f19601f82011682018060405250810190620009f5919062003201565b62000a019190620032d4565b600160009054906101000a900473ffffffffffffffffffffffffffffffffffffffff1673ffffffffffffffffffffffffffffffffffffffff16318362000a48919062003331565b62000a549190620033c1565b905080925050505b90565b600460009054906101000a900473ffffffffffffffffffffffffffffffffffffffff1681565b600860029054906101000a900460ff161562000ad8576040517f08c379a000000000000000000000000000000000000000000000000000000000815260040162000acf9062003449565b60405180910390fd5b6001600860026101000a81548160ff0219169083151502179055506000600160009054906101000a900473ffffffffffffffffffffffffffffffffffffffff1673ffffffffffffffffffffffffffffffffffffffff1663634f63196040518163ffffffff1660e01b8152600401600060405180830381865afa15801562000b63573d6000803e3d6000fd5b505050506040513d6000823e3d601f19601f8201168201806040525081019062000b8e919062003512565b510362000bd2576040517f08c379a000000000000000000000000000000000000000000000000000000000815260040162000bc990620035b3565b60405180910390fd5b600660009054906101000a900473ffffffffffffffffffffffffffffffffffffffff1673ffffffffffffffffffffffffffffffffffffffff163373ffffffffffffffffffffffffffffffffffffffff161462000c65576040517f08c379a000000000000000000000000000000000000000000000000000000000815260040162000c5c906200364b565b60405180910390fd5b600860019054906101000a900460ff161562000cb8576040517f08c379a000000000000000000000000000000000000000000000000000000000815260040162000caf90620036bd565b60405180910390fd5b69021e19e0c9bab240000086101562000d08576040517f08c379a000000000000000000000000000000000000000000000000000000000815260040162000cff9062003755565b60405180910390fd5b6126ac84111562000d50576040517f08c379a000000000000000000000000000000000000000000000000000000000815260040162000d4790620037c7565b60405180910390fd5b6001600860016101000a81548160ff02191690831515021790555083600b81905550600060098660405160240162000d8a9291906200388e565b6040516020818303038152906040527f4cd88b76000000000000000000000000000000000000000000000000000000007bffffffffffffffffffffffffffffffffffffffffffffffffffffffff19166020820180517bffffffffffffffffffffffffffffffffffffffffffffffffffffffff8381831617835250505050905062000e357f00000000000000000000000000000000000000000000000000000000000000008262002622565b600560006101000a81548173ffffffffffffffffffffffffffffffffffffffff021916908373ffffffffffffffffffffffffffffffffffffffff16021790555062000ea4600560009054906101000a900473ffffffffffffffffffffffffffffffffffffffff16600162002667565b600062000ed488600660009054906101000a900473ffffffffffffffffffffffffffffffffffffffff16620026c2565b9050600081858560405160240162000eef93929190620038c9565b6040516020818303038152906040527f80d85911000000000000000000000000000000000000000000000000000000007bffffffffffffffffffffffffffffffffffffffffffffffffffffffff19166020820180517bffffffffffffffffffffffffffffffffffffffffffffffffffffffff8381831617835250505050905062000f9a7f00000000000000000000000000000000000000000000000000000000000000008262002622565b600260006101000a81548173ffffffffffffffffffffffffffffffffffffffff021916908373ffffffffffffffffffffffffffffffffffffffff16021790555062001009600260009054906101000a900473ffffffffffffffffffffffffffffffffffffffff16600162002667565b60006040516024016040516020818303038152906040527f8129fc1c000000000000000000000000000000000000000000000000000000007bffffffffffffffffffffffffffffffffffffffffffffffffffffffff19166020820180517bffffffffffffffffffffffffffffffffffffffffffffffffffffffff83818316178352505050509050620010bc7f00000000000000000000000000000000000000000000000000000000000000008262002622565b600360006101000a81548173ffffffffffffffffffffffffffffffffffffffff021916908373ffffffffffffffffffffffffffffffffffffffff1602179055506200112b600360009054906101000a900473ffffffffffffffffffffffffffffffffffffffff16600162002667565b620011577f00000000000000000000000000000000000000000000000000000000000000008262002622565b600460006101000a81548173ffffffffffffffffffffffffffffffffffffffff021916908373ffffffffffffffffffffffffffffffffffffffff160217905550620011c6600460009054906101000a900473ffffffffffffffffffffffffffffffffffffffff16600162002667565b42600a819055506000600e81905550600360009054906101000a900473ffffffffffffffffffffffffffffffffffffffff1673ffffffffffffffffffffffffffffffffffffffff16633011e16a6000808a6040518463ffffffff1660e01b8152600401620012379392919062003953565b600060405180830381600087803b1580156200125257600080fd5b505af115801562001267573d6000803e3d6000fd5b505050507f8b62dd8e86cd198d671ff797219a5c7946c3d55b7f40e4062e60c69658f3ffcd8a60098b600b548b8b8b600260009054906101000a900473ffffffffffffffffffffffffffffffffffffffff16600360009054906101000a900473ffffffffffffffffffffffffffffffffffffffff16600460009054906101000a900473ffffffffffffffffffffffffffffffffffffffff16600560009054906101000a900473ffffffffffffffffffffffffffffffffffffffff166040516200133b9b9a9998979695949392919062003990565b60405180910390a1505050506000600860026101000a81548160ff021916908315150217905550505050505050565b7f000000000000000000000000000000000000000000000000000000000000000081565b7f000000000000000000000000000000000000000000000000000000000000000081565b600360009054906101000a900473ffffffffffffffffffffffffffffffffffffffff1681565b600a81565b600860029054906101000a900460ff161562001430576040517f08c379a0000000000000000000000000000000000000000000000000000000008152600401620014279062003449565b60405180910390fd5b6001600860026101000a81548160ff02191690831515021790555060028081111562001461576200146062003a5f565b5b600160009054906101000a900473ffffffffffffffffffffffffffffffffffffffff1673ffffffffffffffffffffffffffffffffffffffff1663d58bfa9d6040518163ffffffff1660e01b8152600401602060405180830381865afa158015620014cf573d6000803e3d6000fd5b505050506040513d601f19601f82011682018060405250810190620014f5919062003ab6565b60028111156200150a576200150962003a5f565b5b146200154d576040517f08c379a0000000000000000000000000000000000000000000000000000000008152600401620015449062003b38565b60405180910390fd5b6000600560009054906101000a900473ffffffffffffffffffffffffffffffffffffffff1673ffffffffffffffffffffffffffffffffffffffff166370a08231336040518263ffffffff1660e01b8152600401620015ac919062002a2c565b602060405180830381865afa158015620015ca573d6000803e3d6000fd5b505050506040513d601f19601f82011682018060405250810190620015f0919062003201565b90506000811162001638576040517f08c379a00000000000000000000000000000000000000000000000000000000081526004016200162f9062003283565b60405180910390fd5b6000600260009054906101000a900473ffffffffffffffffffffffffffffffffffffffff1673ffffffffffffffffffffffffffffffffffffffff16634838ed196040518163ffffffff1660e01b8152600401602060405180830381865afa158015620016a8573d6000803e3d6000fd5b505050506040513d601f19601f82011682018060405250810190620016ce919062003201565b600560009054906101000a900473ffffffffffffffffffffffffffffffffffffffff1673ffffffffffffffffffffffffffffffffffffffff166318160ddd6040518163ffffffff1660e01b8152600401602060405180830381865afa1580156200173c573d6000803e3d6000fd5b505050506040513d601f19601f8201168201806040525081019062001762919062003201565b6200176e9190620032d4565b600160009054906101000a900473ffffffffffffffffffffffffffffffffffffffff1673ffffffffffffffffffffffffffffffffffffffff163183620017b5919062003331565b620017c19190620033c1565b9050600560009054906101000a900473ffffffffffffffffffffffffffffffffffffffff1673ffffffffffffffffffffffffffffffffffffffff16639745ab1f33846040518363ffffffff1660e01b81526004016200182292919062003b5a565b600060405180830381600087803b1580156200183d57600080fd5b505af115801562001852573d6000803e3d6000fd5b50505050600160009054906101000a900473ffffffffffffffffffffffffffffffffffffffff1673ffffffffffffffffffffffffffffffffffffffff166364a197f333836040518363ffffffff1660e01b8152600401620018b592919062003bac565b600060405180830381600087803b158015620018d057600080fd5b505af1158015620018e5573d6000803e3d6000fd5b505050503373ffffffffffffffffffffffffffffffffffffffff167f730831a1e4aa2d187ddd8e03d7beeac760a3927da5f112d645e0f8df7494b36782604051620019319190620029ca565b60405180910390a250506000600860026101000a81548160ff021916908315150217905550565b600860009054906101000a900460ff1681565b606060006040518060400160405280601981526020017f546f6b656e2045636f6e6f6d696320262050726f706f736f6c00000000000000815250600a915091509091565b600a5481565b60008054906101000a900473ffffffffffffffffffffffffffffffffffffffff1681565b600760003373ffffffffffffffffffffffffffffffffffffffff1673ffffffffffffffffffffffffffffffffffffffff16815260200190815260200160002060009054906101000a900460ff1662001a68576040517f08c379a000000000000000000000000000000000000000000000000000000000815260040162001a5f9062003c29565b60405180910390fd5b6000808273ffffffffffffffffffffffffffffffffffffffff166040516024016040516020818303038152906040527f736f9e42000000000000000000000000000000000000000000000000000000007bffffffffffffffffffffffffffffffffffffffffffffffffffffffff19166020820180517bffffffffffffffffffffffffffffffffffffffffffffffffffffffff838183161783525050505060405162001b14919062003c98565b600060405180830381855af49150503d806000811462001b51576040519150601f19603f3d011682016040523d82523d6000602084013e62001b56565b606091505b509150915081819062001ba1576040517f08c379a000000000000000000000000000000000000000000000000000000000815260040162001b98919062002aed565b60405180910390fd5b50505050565b600860029054906101000a900460ff161562001bfa576040517f08c379a000000000000000000000000000000000000000000000000000000000815260040162001bf19062003449565b60405180910390fd5b6001600860026101000a81548160ff021916908315150217905550600860019054906101000a900460ff161562001c68576040517f08c379a000000000000000000000000000000000000000000000000000000000815260040162001c5f9062003d27565b60405180910390fd5b600660009054906101000a900473ffffffffffffffffffffffffffffffffffffffff1673ffffffffffffffffffffffffffffffffffffffff163373ffffffffffffffffffffffffffffffffffffffff161462001cfb576040517f08c379a000000000000000000000000000000000000000000000000000000000815260040162001cf29062003dbf565b60405180910390fd5b600160009054906101000a900473ffffffffffffffffffffffffffffffffffffffff1673ffffffffffffffffffffffffffffffffffffffff16634fd0d7c7848484336127106040518663ffffffff1660e01b815260040162001d6295949392919062003fc0565b600060405180830381600087803b15801562001d7d57600080fd5b505af115801562001d92573d6000803e3d6000fd5b505050507f3a29ec296622ef644c7845a1c556399c39cd768e645a903d7911a7f5bc1e401183838360405162001dcb9392919062004032565b60405180910390a16000600860026101000a81548160ff021916908315150217905550505050565b600860029054906101000a900460ff161562001e46576040517f08c379a000000000000000000000000000000000000000000000000000000000815260040162001e3d9062003449565b60405180910390fd5b6001600860026101000a81548160ff02191690831515021790555060028081111562001e775762001e7662003a5f565b5b600160009054906101000a900473ffffffffffffffffffffffffffffffffffffffff1673ffffffffffffffffffffffffffffffffffffffff1663d58bfa9d6040518163ffffffff1660e01b8152600401602060405180830381865afa15801562001ee5573d6000803e3d6000fd5b505050506040513d601f19601f8201168201806040525081019062001f0b919062003ab6565b600281111562001f205762001f1f62003a5f565b5b0362001f63576040517f08c379a000000000000000000000000000000000000000000000000000000000815260040162001f5a90620040fa565b60405180910390fd5b600860019054906101000a900460ff1662001fb5576040517f08c379a000000000000000000000000000000000000000000000000000000000815260040162001fac9062004192565b60405180910390fd5b60006103e8600560009054906101000a900473ffffffffffffffffffffffffffffffffffffffff1673ffffffffffffffffffffffffffffffffffffffff166318160ddd6040518163ffffffff1660e01b8152600401602060405180830381865afa15801562002028573d6000803e3d6000fd5b505050506040513d601f19601f820116820180604052508101906200204e919062003201565b600e546200205d919062003331565b620020699190620033c1565b905060006301e13380826200207f9190620033c1565b90506000600a5442620020939190620041b4565b905060008282620020a5919062003331565b905042600a81905550600560009054906101000a900473ffffffffffffffffffffffffffffffffffffffff1673ffffffffffffffffffffffffffffffffffffffff166341cd705a600660009054906101000a900473ffffffffffffffffffffffffffffffffffffffff16836040518363ffffffff1660e01b81526004016200212f92919062003b5a565b600060405180830381600087803b1580156200214a57600080fd5b505af11580156200215f573d6000803e3d6000fd5b50505050505050506000600860026101000a81548160ff021916908315150217905550565b6000600760003373ffffffffffffffffffffffffffffffffffffffff1673ffffffffffffffffffffffffffffffffffffffff16815260200190815260200160002060009054906101000a900460ff1662002215576040517f08c379a00000000000000000000000000000000000000000000000000000000081526004016200220c9062003c29565b60405180910390fd5b600860029054906101000a900460ff161562002268576040517f08c379a00000000000000000000000000000000000000000000000000000000081526004016200225f9062003449565b60405180910390fd5b6001600860026101000a81548160ff0219169083151502179055506200228f8383620026c2565b90506000600860026101000a81548160ff02191690831515021790555092915050565b600e5481565b600660009054906101000a900473ffffffffffffffffffffffffffffffffffffffff1681565b7f000000000000000000000000000000000000000000000000000000000000000081565b600860009054906101000a900460ff161562002355576040517f08c379a00000000000000000000000000000000000000000000000000000000081526004016200234c9062004265565b60405180910390fd5b600860009054906101000a900460ff1615600860006101000a81548160ff021916908315150217905550336000806101000a81548173ffffffffffffffffffffffffffffffffffffffff021916908373ffffffffffffffffffffffffffffffffffffffff1602179055508060099081620023d091906200443a565b5060006040516024016040516020818303038152906040527f8129fc1c000000000000000000000000000000000000000000000000000000007bffffffffffffffffffffffffffffffffffffffffffffffffffffffff19166020820180517bffffffffffffffffffffffffffffffffffffffffffffffffffffffff83818316178352505050509050620024847f00000000000000000000000000000000000000000000000000000000000000008262002622565b600160006101000a81548173ffffffffffffffffffffffffffffffffffffffff021916908373ffffffffffffffffffffffffffffffffffffffff160217905550620024f3600160009054906101000a900473ffffffffffffffffffffffffffffffffffffffff16600162002667565b6200250030600162002667565b82600660006101000a81548173ffffffffffffffffffffffffffffffffffffffff021916908373ffffffffffffffffffffffffffffffffffffffff1602179055507fdc90fed0326ba91706deeac7eb34ac9f8b680734f9d782864dc29704d23bed6a600660009054906101000a900473ffffffffffffffffffffffffffffffffffffffff16600160009054906101000a900473ffffffffffffffffffffffffffffffffffffffff16604051620025b892919062004521565b60405180910390a1505050565b7f000000000000000000000000000000000000000000000000000000000000000081565b600160009054906101000a900473ffffffffffffffffffffffffffffffffffffffff1681565b600860019054906101000a900460ff1681565b600082826040516200263490620029a1565b62002641929190620045a0565b604051809103906000f0801580156200265e573d6000803e3d6000fd5b50905092915050565b80600760008473ffffffffffffffffffffffffffffffffffffffff1673ffffffffffffffffffffffffffffffffffffffff16815260200190815260200160002060006101000a81548160ff0219169083151502179055505050565b600082600d6000828254620026d89190620032d4565b925050819055506000612710606485620026f3919062003331565b620026ff9190620033c1565b90506000612710600b548662002716919062003331565b620027229190620033c1565b90506000818387620027359190620041b4565b620027419190620041b4565b905081600c6000828254620027579190620032d4565b9250508190555060008060009054906101000a900473ffffffffffffffffffffffffffffffffffffffff1673ffffffffffffffffffffffffffffffffffffffff1663e06174e46040518163ffffffff1660e01b8152600401602060405180830381865afa158015620027cd573d6000803e3d6000fd5b505050506040513d601f19601f82011682018060405250810190620027f39190620045eb565b905060008173ffffffffffffffffffffffffffffffffffffffff1663b3f006746040518163ffffffff1660e01b81526004016020604051808303816000875af115801562002845573d6000803e3d6000fd5b505050506040513d601f19601f820116820180604052508101906200286b91906200464e565b9050600560009054906101000a900473ffffffffffffffffffffffffffffffffffffffff1673ffffffffffffffffffffffffffffffffffffffff166341cd705a82876040518363ffffffff1660e01b8152600401620028cc92919062003b5a565b600060405180830381600087803b158015620028e757600080fd5b505af1158015620028fc573d6000803e3d6000fd5b50505050600560009054906101000a900473ffffffffffffffffffffffffffffffffffffffff1673ffffffffffffffffffffffffffffffffffffffff166341cd705a88856040518363ffffffff1660e01b81526004016200295f92919062003b5a565b600060405180830381600087803b1580156200297a57600080fd5b505af11580156200298f573d6000803e3d6000fd5b50505050839550505050505092915050565b61064c806200468183390190565b6000819050919050565b620029c481620029af565b82525050565b6000602082019050620029e16000830184620029b9565b92915050565b600073ffffffffffffffffffffffffffffffffffffffff82169050919050565b600062002a1482620029e7565b9050919050565b62002a268162002a07565b82525050565b600060208201905062002a43600083018462002a1b565b92915050565b600081519050919050565b600082825260208201905092915050565b60005b8381101562002a8557808201518184015260208101905062002a68565b8381111562002a95576000848401525b50505050565b6000601f19601f8301169050919050565b600062002ab98262002a49565b62002ac5818562002a54565b935062002ad781856020860162002a65565b62002ae28162002a9b565b840191505092915050565b6000602082019050818103600083015262002b09818462002aac565b905092915050565b6000604051905090565b600080fd5b600080fd5b62002b308162002a07565b811462002b3c57600080fd5b50565b60008135905062002b508162002b25565b92915050565b60006020828403121562002b6f5762002b6e62002b1b565b5b600062002b7f8482850162002b3f565b91505092915050565b60008115159050919050565b62002b9f8162002b88565b82525050565b600060208201905062002bbc600083018462002b94565b92915050565b62002bcd81620029af565b811462002bd957600080fd5b50565b60008135905062002bed8162002bc2565b92915050565b600080fd5b600080fd5b7f4e487b7100000000000000000000000000000000000000000000000000000000600052604160045260246000fd5b62002c378262002a9b565b810181811067ffffffffffffffff8211171562002c595762002c5862002bfd565b5b80604052505050565b600062002c6e62002b11565b905062002c7c828262002c2c565b919050565b600067ffffffffffffffff82111562002c9f5762002c9e62002bfd565b5b62002caa8262002a9b565b9050602081019050919050565b82818337600083830152505050565b600062002cdd62002cd78462002c81565b62002c62565b90508281526020810184848401111562002cfc5762002cfb62002bf8565b5b62002d0984828562002cb7565b509392505050565b600082601f83011262002d295762002d2862002bf3565b5b813562002d3b84826020860162002cc6565b91505092915050565b60008060008060008060c0878903121562002d645762002d6362002b1b565b5b600062002d7489828a0162002bdc565b965050602087013567ffffffffffffffff81111562002d985762002d9762002b20565b5b62002da689828a0162002d11565b955050604062002db989828a0162002bdc565b945050606062002dcc89828a0162002bdc565b935050608062002ddf89828a0162002bdc565b92505060a062002df289828a0162002bdc565b9150509295509295509295565b600061ffff82169050919050565b62002e188162002dff565b82525050565b600060208201905062002e35600083018462002e0d565b92915050565b6000604082019050818103600083015262002e57818562002aac565b905062002e68602083018462002e0d565b9392505050565b600067ffffffffffffffff82111562002e8d5762002e8c62002bfd565b5b602082029050602081019050919050565b600080fd5b600062002eba62002eb48462002e6f565b62002c62565b9050808382526020820190506020840283018581111562002ee05762002edf62002e9e565b5b835b8181101562002f0d578062002ef8888262002b3f565b84526020840193505060208101905062002ee2565b5050509392505050565b600082601f83011262002f2f5762002f2e62002bf3565b5b813562002f4184826020860162002ea3565b91505092915050565b600067ffffffffffffffff82111562002f685762002f6762002bfd565b5b602082029050602081019050919050565b600062002f9062002f8a8462002f4a565b62002c62565b9050808382526020820190506020840283018581111562002fb65762002fb562002e9e565b5b835b8181101562002fe3578062002fce888262002bdc565b84526020840193505060208101905062002fb8565b5050509392505050565b600082601f83011262003005576200300462002bf3565b5b81356200301784826020860162002f79565b91505092915050565b6000806000606084860312156200303c576200303b62002b1b565b5b600084013567ffffffffffffffff8111156200305d576200305c62002b20565b5b6200306b8682870162002f17565b935050602084013567ffffffffffffffff8111156200308f576200308e62002b20565b5b6200309d8682870162002fed565b925050604084013567ffffffffffffffff811115620030c157620030c062002b20565b5b620030cf8682870162002fed565b9150509250925092565b60008060408385031215620030f357620030f262002b1b565b5b6000620031038582860162002bdc565b9250506020620031168582860162002b3f565b9150509250929050565b600080604083850312156200313a576200313962002b1b565b5b60006200314a8582860162002b3f565b925050602083013567ffffffffffffffff8111156200316e576200316d62002b20565b5b6200317c8582860162002d11565b9150509250929050565b7f4e487b7100000000000000000000000000000000000000000000000000000000600052602260045260246000fd5b60006002820490506001821680620031ce57607f821691505b602082108103620031e457620031e362003186565b5b50919050565b600081519050620031fb8162002bc2565b92915050565b6000602082840312156200321a576200321962002b1b565b5b60006200322a84828501620031ea565b91505092915050565b7f636173683a6e6f20746f6b656e7320746f2063617368206f7574000000000000600082015250565b60006200326b601a8362002a54565b9150620032788262003233565b602082019050919050565b600060208201905081810360008301526200329e816200325c565b9050919050565b7f4e487b7100000000000000000000000000000000000000000000000000000000600052601160045260246000fd5b6000620032e182620029af565b9150620032ee83620029af565b9250827fffffffffffffffffffffffffffffffffffffffffffffffffffffffffffffffff03821115620033265762003325620032a5565b5b828201905092915050565b60006200333e82620029af565b91506200334b83620029af565b9250817fffffffffffffffffffffffffffffffffffffffffffffffffffffffffffffffff0483118215151615620033875762003386620032a5565b5b828202905092915050565b7f4e487b7100000000000000000000000000000000000000000000000000000000600052601260045260246000fd5b6000620033ce82620029af565b9150620033db83620029af565b925082620033ee57620033ed62003392565b5b828204905092915050565b7f7265656e747279203a3a20496c6c6567616c207265656e7472616e7400000000600082015250565b600062003431601c8362002a54565b91506200343e82620033f9565b602082019050919050565b60006020820190508181036000830152620034648162003422565b9050919050565b6000620034826200347c8462002f4a565b62002c62565b90508083825260208201905060208402830185811115620034a857620034a762002e9e565b5b835b81811015620034d55780620034c08882620031ea565b845260208401935050602081019050620034aa565b5050509392505050565b600082601f830112620034f757620034f662002bf3565b5b8151620035098482602086016200346b565b91505092915050565b6000602082840312156200352b576200352a62002b1b565b5b600082015167ffffffffffffffff8111156200354c576200354b62002b20565b5b6200355a84828501620034df565b91505092915050565b7f6973737565203a3a204974277320616e20656d707479207661756c7400000000600082015250565b60006200359b601c8362002a54565b9150620035a88262003563565b602082019050919050565b60006020820190508181036000830152620035ce816200358c565b9050919050565b7f6973737565203a3a204f6e6c792063757261746f722063616e2069737375652060008201527f74686520746f6b656e7300000000000000000000000000000000000000000000602082015250565b600062003633602a8362002a54565b91506200364082620035d5565b604082019050919050565b60006020820190508181036000830152620036668162003624565b9050919050565b7f6973737565203a3a20546f6b656e20697320616c726561647920616374697665600082015250565b6000620036a560208362002a54565b9150620036b2826200366d565b602082019050919050565b60006020820190508181036000830152620036d88162003696565b9050919050565b7f6973737565203a3a2054686520737570706c79206d757374206265206772656160008201527f746572207468616e203130303030000000000000000000000000000000000000602082015250565b60006200373d602e8362002a54565b91506200374a82620036df565b604082019050919050565b6000602082019050818103600083015262003770816200372e565b9050919050565b7f6973737565203a3a20496e636f7272656374207265736572766520726174696f600082015250565b6000620037af60208362002a54565b9150620037bc8262003777565b602082019050919050565b60006020820190508181036000830152620037e281620037a0565b9050919050565b60008190508160005260206000209050919050565b600081546200380d81620031b5565b62003819818662002a54565b945060018216600081146200383757600181146200384e5762003885565b60ff19831686528115156020028601935062003885565b6200385985620037e9565b60005b838110156200387d578154818901526001820191506020810190506200385c565b808801955050505b50505092915050565b60006040820190508181036000830152620038aa8185620037fe565b90508181036020830152620038c0818462002aac565b90509392505050565b6000606082019050620038e06000830186620029b9565b620038ef6020830185620029b9565b620038fe6040830184620029b9565b949350505050565b6000819050919050565b6000819050919050565b60006200393b620039356200392f8462003906565b62003910565b620029af565b9050919050565b6200394d816200391a565b82525050565b60006060820190506200396a600083018662002a1b565b62003979602083018562003942565b620039886040830184620029b9565b949350505050565b600061016082019050620039a8600083018e620029b9565b8181036020830152620039bc818d620037fe565b90508181036040830152620039d2818c62002aac565b9050620039e3606083018b620029b9565b620039f2608083018a620029b9565b62003a0160a0830189620029b9565b62003a1060c0830188620029b9565b62003a1f60e083018762002a1b565b62003a2f61010083018662002a1b565b62003a3f61012083018562002a1b565b62003a4f61014083018462002a1b565b9c9b505050505050505050505050565b7f4e487b7100000000000000000000000000000000000000000000000000000000600052602160045260246000fd5b6003811062003a9c57600080fd5b50565b60008151905062003ab08162003a8e565b92915050565b60006020828403121562003acf5762003ace62002b1b565b5b600062003adf8482850162003a9f565b91505092915050565b7f656e64203a3a20546865207661756c74206973207374696c6c206f70656e0000600082015250565b600062003b20601e8362002a54565b915062003b2d8262003ae8565b602082019050919050565b6000602082019050818103600083015262003b538162003b11565b9050919050565b600060408201905062003b71600083018562002a1b565b62003b806020830184620029b9565b9392505050565b600062003b9482620029e7565b9050919050565b62003ba68162003b87565b82525050565b600060408201905062003bc3600083018562003b9b565b62003bd26020830184620029b9565b9392505050565b7f77686974654c697374203a3a204164647265737320636865636b206572726f72600082015250565b600062003c1160208362002a54565b915062003c1e8262003bd9565b602082019050919050565b6000602082019050818103600083015262003c448162003c02565b9050919050565b600081519050919050565b600081905092915050565b600062003c6e8262003c4b565b62003c7a818562003c56565b935062003c8c81856020860162002a65565b80840191505092915050565b600062003ca6828462003c61565b915081905092915050565b7f63757261746f724465706f736974203a3a20546f6b656e20697320616c72656160008201527f6479206163746976650000000000000000000000000000000000000000000000602082015250565b600062003d0f60298362002a54565b915062003d1c8262003cb1565b604082019050919050565b6000602082019050818103600083015262003d428162003d00565b9050919050565b7f63757261746f724465706f736974203a3a204f6e6c792063757261746f72206360008201527f616e206465706f736974204e4654000000000000000000000000000000000000602082015250565b600062003da7602e8362002a54565b915062003db48262003d49565b604082019050919050565b6000602082019050818103600083015262003dda8162003d98565b9050919050565b600081519050919050565b600082825260208201905092915050565b6000819050602082019050919050565b62003e188162002a07565b82525050565b600062003e2c838362003e0d565b60208301905092915050565b6000602082019050919050565b600062003e528262003de1565b62003e5e818562003dec565b935062003e6b8362003dfd565b8060005b8381101562003ea257815162003e86888262003e1e565b975062003e938362003e38565b92505060018101905062003e6f565b5085935050505092915050565b600081519050919050565b600082825260208201905092915050565b6000819050602082019050919050565b62003ee681620029af565b82525050565b600062003efa838362003edb565b60208301905092915050565b6000602082019050919050565b600062003f208262003eaf565b62003f2c818562003eba565b935062003f398362003ecb565b8060005b8381101562003f7057815162003f54888262003eec565b975062003f618362003f06565b92505060018101905062003f3d565b5085935050505092915050565b6000819050919050565b600062003fa862003fa262003f9c8462003f7d565b62003910565b620029af565b9050919050565b62003fba8162003f87565b82525050565b600060a082019050818103600083015262003fdc818862003e45565b9050818103602083015262003ff2818762003f13565b9050818103604083015262004008818662003f13565b905062004019606083018562002a1b565b62004028608083018462003faf565b9695505050505050565b600060608201905081810360008301526200404e818662003e45565b9050818103602083015262004064818562003f13565b905081810360408301526200407a818462003f13565b9050949350505050565b7f636c61696d203a3a2063616e6e6f7420636c61696d206166746572206175637460008201527f696f6e20656e6473000000000000000000000000000000000000000000000000602082015250565b6000620040e260288362002a54565b9150620040ef8262004084565b604082019050919050565b600060208201905081810360008301526200411581620040d3565b9050919050565b7f636c61696d203a3a20546f6b656e206e6f7420616c726561647920616374697660008201527f6500000000000000000000000000000000000000000000000000000000000000602082015250565b60006200417a60218362002a54565b915062004187826200411c565b604082019050919050565b60006020820190508181036000830152620041ad816200416b565b9050919050565b6000620041c182620029af565b9150620041ce83620029af565b925082821015620041e457620041e3620032a5565b5b828203905092915050565b7f696e697469616c697a65203a3a20416c726561647920696e697469616c697a6560008201527f6400000000000000000000000000000000000000000000000000000000000000602082015250565b60006200424d60218362002a54565b91506200425a82620041ef565b604082019050919050565b6000602082019050818103600083015262004280816200423e565b9050919050565b60006020601f8301049050919050565b600082821b905092915050565b600060088302620042d67fffffffffffffffffffffffffffffffffffffffffffffffffffffffffffffffff8262004297565b620042e2868362004297565b95508019841693508086168417925050509392505050565b60006200431b620043156200430f84620029af565b62003910565b620029af565b9050919050565b6000819050919050565b6200433783620042fa565b6200434f620043468262004322565b848454620042a4565b825550505050565b600090565b6200436662004357565b620043738184846200432c565b505050565b5b818110156200439b576200438f6000826200435c565b60018101905062004379565b5050565b601f821115620043ea57620043b481620037e9565b620043bf8462004287565b81016020851015620043cf578190505b620043e7620043de8562004287565b83018262004378565b50505b505050565b600082821c905092915050565b60006200440f60001984600802620043ef565b1980831691505092915050565b60006200442a8383620043fc565b9150826002028217905092915050565b620044458262002a49565b67ffffffffffffffff81111562004461576200446062002bfd565b5b6200446d8254620031b5565b6200447a8282856200439f565b600060209050601f831160018114620044b257600084156200449d578287015190505b620044a985826200441c565b86555062004519565b601f198416620044c286620037e9565b60005b82811015620044ec57848901518255600182019150602085019450602081019050620044c5565b868310156200450c578489015162004508601f891682620043fc565b8355505b6001600288020188555050505b505050505050565b600060408201905062004538600083018562002a1b565b62004547602083018462002a1b565b9392505050565b600082825260208201905092915050565b60006200456c8262003c4b565b6200457881856200454e565b93506200458a81856020860162002a65565b620045958162002a9b565b840191505092915050565b6000604082019050620045b7600083018562002a1b565b8181036020830152620045cb81846200455f565b90509392505050565b600081519050620045e58162002b25565b92915050565b60006020828403121562004604576200460362002b1b565b5b60006200461484828501620045d4565b91505092915050565b620046288162003b87565b81146200463457600080fd5b50565b60008151905062004648816200461d565b92915050565b60006020828403121562004667576200466662002b1b565b5b6000620046778482850162004637565b9150509291505056fe608060405234801561001057600080fd5b5060405161064c38038061064c833981810160405281019061003291906103b9565b600073ffffffffffffffffffffffffffffffffffffffff168273ffffffffffffffffffffffffffffffffffffffff16036100a1576040517f08c379a000000000000000000000000000000000000000000000000000000000815260040161009890610498565b60405180910390fd5b816100d87f5f62ce3c9aebd463c7a36ab1b244d2bb94f07a2c13889b3b687940ebc467b9b360001b6101d360201b6100821760201c565b60000160006101000a81548173ffffffffffffffffffffffffffffffffffffffff021916908373ffffffffffffffffffffffffffffffffffffffff1602179055506000808373ffffffffffffffffffffffffffffffffffffffff168360405161014191906104ff565b600060405180830381855af49150503d806000811461017c576040519150601f19603f3d011682016040523d82523d6000602084013e610181565b606091505b50915091508181906101c9576040517f08c379a00000000000000000000000000000000000000000000000000000000081526004016101c0919061055a565b60405180910390fd5b505050505061057c565b6000819050919050565b6000604051905090565b600080fd5b600080fd5b600073ffffffffffffffffffffffffffffffffffffffff82169050919050565b600061021c826101f1565b9050919050565b61022c81610211565b811461023757600080fd5b50565b60008151905061024981610223565b92915050565b600080fd5b600080fd5b6000601f19601f8301169050919050565b7f4e487b7100000000000000000000000000000000000000000000000000000000600052604160045260246000fd5b6102a282610259565b810181811067ffffffffffffffff821117156102c1576102c061026a565b5b80604052505050565b60006102d46101dd565b90506102e08282610299565b919050565b600067ffffffffffffffff821115610300576102ff61026a565b5b61030982610259565b9050602081019050919050565b60005b83811015610334578082015181840152602081019050610319565b83811115610343576000848401525b50505050565b600061035c610357846102e5565b6102ca565b90508281526020810184848401111561037857610377610254565b5b610383848285610316565b509392505050565b600082601f8301126103a05761039f61024f565b5b81516103b0848260208601610349565b91505092915050565b600080604083850312156103d0576103cf6101e7565b5b60006103de8582860161023a565b925050602083015167ffffffffffffffff8111156103ff576103fe6101ec565b5b61040b8582860161038b565b9150509250929050565b600082825260208201905092915050565b7f50726f7879203a3a204c6f676963616c20636f6e7472616374732063616e6e6f60008201527f74206265207a65726f2061646472657373657300000000000000000000000000602082015250565b6000610482603383610415565b915061048d82610426565b604082019050919050565b600060208201905081810360008301526104b181610475565b9050919050565b600081519050919050565b600081905092915050565b60006104d9826104b8565b6104e381856104c3565b93506104f3818560208601610316565b80840191505092915050565b600061050b82846104ce565b915081905092915050565b600081519050919050565b600061052c82610516565b6105368185610415565b9350610546818560208601610316565b61054f81610259565b840191505092915050565b600060208201905081810360008301526105748184610521565b905092915050565b60c28061058a6000396000f3fe608060405236600a57005b600060367f5f62ce3c9aebd463c7a36ab1b244d2bb94f07a2c13889b3b687940ebc467b9b360001b6082565b60000160009054906101000a900473ffffffffffffffffffffffffffffffffffffffff16905060405136600082376000803683855af43d806000843e8160008114607e578184f35b8184fd5b600081905091905056fea2646970667358221220356905e5dfba3b804d5df38b8eb5599b4b2ff133dd8e18faa0598155a379516264736f6c634300080f0033a26469706673582212208b8c1edbb069ed648fd9be32f89e5985dbb4f1fb7ef9bc2a8a6f31dbfbb76d0d64736f6c634300080f0033",
			"opcodes": "PUSH2 0x120 PUSH1 0x40 MSTORE CALLVALUE DUP1 ISZERO PUSH3 0x12 JUMPI PUSH1 0x0 DUP1 REVERT JUMPDEST POP PUSH1 0x40 MLOAD PUSH3 0x4FA4 CODESIZE SUB DUP1 PUSH3 0x4FA4 DUP4 CODECOPY DUP2 DUP2 ADD PUSH1 0x40 MSTORE DUP2 ADD SWAP1 PUSH3 0x38 SWAP2 SWAP1 PUSH3 0x1B2 JUMP JUMPDEST DUP5 PUSH20 0xFFFFFFFFFFFFFFFFFFFFFFFFFFFFFFFFFFFFFFFF AND PUSH1 0x80 DUP2 PUSH20 0xFFFFFFFFFFFFFFFFFFFFFFFFFFFFFFFFFFFFFFFF AND DUP2 MSTORE POP POP DUP4 PUSH20 0xFFFFFFFFFFFFFFFFFFFFFFFFFFFFFFFFFFFFFFFF AND PUSH1 0xA0 DUP2 PUSH20 0xFFFFFFFFFFFFFFFFFFFFFFFFFFFFFFFFFFFFFFFF AND DUP2 MSTORE POP POP DUP3 PUSH20 0xFFFFFFFFFFFFFFFFFFFFFFFFFFFFFFFFFFFFFFFF AND PUSH1 0xC0 DUP2 PUSH20 0xFFFFFFFFFFFFFFFFFFFFFFFFFFFFFFFFFFFFFFFF AND DUP2 MSTORE POP POP DUP2 PUSH20 0xFFFFFFFFFFFFFFFFFFFFFFFFFFFFFFFFFFFFFFFF AND PUSH1 0xE0 DUP2 PUSH20 0xFFFFFFFFFFFFFFFFFFFFFFFFFFFFFFFFFFFFFFFF AND DUP2 MSTORE POP POP DUP1 PUSH20 0xFFFFFFFFFFFFFFFFFFFFFFFFFFFFFFFFFFFFFFFF AND PUSH2 0x100 DUP2 PUSH20 0xFFFFFFFFFFFFFFFFFFFFFFFFFFFFFFFFFFFFFFFF AND DUP2 MSTORE POP POP POP POP POP POP POP PUSH3 0x23A JUMP JUMPDEST PUSH1 0x0 DUP1 REVERT JUMPDEST PUSH1 0x0 PUSH20 0xFFFFFFFFFFFFFFFFFFFFFFFFFFFFFFFFFFFFFFFF DUP3 AND SWAP1 POP SWAP2 SWAP1 POP JUMP JUMPDEST PUSH1 0x0 PUSH3 0x17A DUP3 PUSH3 0x14D JUMP JUMPDEST SWAP1 POP SWAP2 SWAP1 POP JUMP JUMPDEST PUSH3 0x18C DUP2 PUSH3 0x16D JUMP JUMPDEST DUP2 EQ PUSH3 0x198 JUMPI PUSH1 0x0 DUP1 REVERT JUMPDEST POP JUMP JUMPDEST PUSH1 0x0 DUP2 MLOAD SWAP1 POP PUSH3 0x1AC DUP2 PUSH3 0x181 JUMP JUMPDEST SWAP3 SWAP2 POP POP JUMP JUMPDEST PUSH1 0x0 DUP1 PUSH1 0x0 DUP1 PUSH1 0x0 PUSH1 0xA0 DUP7 DUP9 SUB SLT ISZERO PUSH3 0x1D1 JUMPI PUSH3 0x1D0 PUSH3 0x148 JUMP JUMPDEST JUMPDEST PUSH1 0x0 PUSH3 0x1E1 DUP9 DUP3 DUP10 ADD PUSH3 0x19B JUMP JUMPDEST SWAP6 POP POP PUSH1 0x20 PUSH3 0x1F4 DUP9 DUP3 DUP10 ADD PUSH3 0x19B JUMP JUMPDEST SWAP5 POP POP PUSH1 0x40 PUSH3 0x207 DUP9 DUP3 DUP10 ADD PUSH3 0x19B JUMP JUMPDEST SWAP4 POP POP PUSH1 0x60 PUSH3 0x21A DUP9 DUP3 DUP10 ADD PUSH3 0x19B JUMP JUMPDEST SWAP3 POP POP PUSH1 0x80 PUSH3 0x22D DUP9 DUP3 DUP10 ADD PUSH3 0x19B JUMP JUMPDEST SWAP2 POP POP SWAP3 SWAP6 POP SWAP3 SWAP6 SWAP1 SWAP4 POP JUMP JUMPDEST PUSH1 0x80 MLOAD PUSH1 0xA0 MLOAD PUSH1 0xC0 MLOAD PUSH1 0xE0 MLOAD PUSH2 0x100 MLOAD PUSH2 0x4D02 PUSH3 0x2A2 PUSH1 0x0 CODECOPY PUSH1 0x0 DUP2 DUP2 PUSH2 0xE0F ADD MSTORE PUSH2 0x25C7 ADD MSTORE PUSH1 0x0 DUP2 DUP2 PUSH2 0x1131 ADD MSTORE PUSH2 0x1390 ADD MSTORE PUSH1 0x0 DUP2 DUP2 PUSH2 0x1096 ADD MSTORE PUSH2 0x22E0 ADD MSTORE PUSH1 0x0 DUP2 DUP2 PUSH2 0x662 ADD MSTORE PUSH2 0x245E ADD MSTORE PUSH1 0x0 DUP2 DUP2 PUSH2 0xF74 ADD MSTORE PUSH2 0x136C ADD MSTORE PUSH2 0x4D02 PUSH1 0x0 RETURN INVALID PUSH1 0x80 PUSH1 0x40 MSTORE CALLVALUE DUP1 ISZERO PUSH3 0x11 JUMPI PUSH1 0x0 DUP1 REVERT JUMPDEST POP PUSH1 0x4 CALLDATASIZE LT PUSH3 0x220 JUMPI PUSH1 0x0 CALLDATALOAD PUSH1 0xE0 SHR DUP1 PUSH4 0x961BE391 GT PUSH3 0x129 JUMPI DUP1 PUSH4 0xDA1C4845 GT PUSH3 0xB1 JUMPI DUP1 PUSH4 0xF399E22E GT PUSH3 0x7B JUMPI DUP1 PUSH4 0xF399E22E EQ PUSH3 0x5D4 JUMPI DUP1 PUSH4 0xF4464E2A EQ PUSH3 0x5F4 JUMPI DUP1 PUSH4 0xFBFA77CF EQ PUSH3 0x616 JUMPI DUP1 PUSH4 0xFCFFF16F EQ PUSH3 0x638 JUMPI PUSH3 0x220 JUMP JUMPDEST DUP1 PUSH4 0xDA1C4845 EQ PUSH3 0x538 JUMPI DUP1 PUSH4 0xDDCA3F43 EQ PUSH3 0x56E JUMPI DUP1 PUSH4 0xE66F53B7 EQ PUSH3 0x590 JUMPI DUP1 PUSH4 0xF2BE7F53 EQ PUSH3 0x5B2 JUMPI PUSH3 0x220 JUMP JUMPDEST DUP1 PUSH4 0xC45A0155 GT PUSH3 0xF3 JUMPI DUP1 PUSH4 0xC45A0155 EQ PUSH3 0x4CA JUMPI DUP1 PUSH4 0xC851CC32 EQ PUSH3 0x4EC JUMPI DUP1 PUSH4 0xCD9D3DD8 EQ PUSH3 0x50C JUMPI DUP1 PUSH4 0xD294F093 EQ PUSH3 0x52C JUMPI PUSH3 0x220 JUMP JUMPDEST DUP1 PUSH4 0x961BE391 EQ PUSH3 0x457 JUMPI DUP1 PUSH4 0x9CE110D7 EQ PUSH3 0x463 JUMPI DUP1 PUSH4 0xA21D1354 EQ PUSH3 0x485 JUMPI DUP1 PUSH4 0xADC1B956 EQ PUSH3 0x4A8 JUMPI PUSH3 0x220 JUMP JUMPDEST DUP1 PUSH4 0x4B09B72A GT PUSH3 0x1AD JUMPI DUP1 PUSH4 0x6E99D77B GT PUSH3 0x177 JUMPI DUP1 PUSH4 0x6E99D77B EQ PUSH3 0x3CF JUMPI DUP1 PUSH4 0x765D6410 EQ PUSH3 0x3F1 JUMPI DUP1 PUSH4 0x7D9F6DB5 EQ PUSH3 0x413 JUMPI DUP1 PUSH4 0x8025E303 EQ PUSH3 0x435 JUMPI PUSH3 0x220 JUMP JUMPDEST DUP1 PUSH4 0x4B09B72A EQ PUSH3 0x349 JUMPI DUP1 PUSH4 0x4F8C0F6E EQ PUSH3 0x36B JUMPI DUP1 PUSH4 0x632A9A52 EQ PUSH3 0x38D JUMPI DUP1 PUSH4 0x660D0C4B EQ PUSH3 0x3AF JUMPI PUSH3 0x220 JUMP JUMPDEST DUP1 PUSH4 0x3205F5FC GT PUSH3 0x1EF JUMPI DUP1 PUSH4 0x3205F5FC EQ PUSH3 0x2AD JUMPI DUP1 PUSH4 0x372C12B1 EQ PUSH3 0x2CF JUMPI DUP1 PUSH4 0x3B92EB23 EQ PUSH3 0x305 JUMPI DUP1 PUSH4 0x48976936 EQ PUSH3 0x327 JUMPI PUSH3 0x220 JUMP JUMPDEST DUP1 PUSH4 0x47FC9AA EQ PUSH3 0x225 JUMPI DUP1 PUSH4 0xB1E4238 EQ PUSH3 0x247 JUMPI DUP1 PUSH4 0xC7D5CD8 EQ PUSH3 0x269 JUMPI DUP1 PUSH4 0x14442F54 EQ PUSH3 0x28B JUMPI JUMPDEST PUSH1 0x0 DUP1 REVERT JUMPDEST PUSH3 0x22F PUSH3 0x65A JUMP JUMPDEST PUSH1 0x40 MLOAD PUSH3 0x23E SWAP2 SWAP1 PUSH3 0x29CA JUMP JUMPDEST PUSH1 0x40 MLOAD DUP1 SWAP2 SUB SWAP1 RETURN JUMPDEST PUSH3 0x251 PUSH3 0x660 JUMP JUMPDEST PUSH1 0x40 MLOAD PUSH3 0x260 SWAP2 SWAP1 PUSH3 0x2A2C JUMP JUMPDEST PUSH1 0x40 MLOAD DUP1 SWAP2 SUB SWAP1 RETURN JUMPDEST PUSH3 0x273 PUSH3 0x684 JUMP JUMPDEST PUSH1 0x40 MLOAD PUSH3 0x282 SWAP2 SWAP1 PUSH3 0x29CA JUMP JUMPDEST PUSH1 0x40 MLOAD DUP1 SWAP2 SUB SWAP1 RETURN JUMPDEST PUSH3 0x295 PUSH3 0x68A JUMP JUMPDEST PUSH1 0x40 MLOAD PUSH3 0x2A4 SWAP2 SWAP1 PUSH3 0x2AED JUMP JUMPDEST PUSH1 0x40 MLOAD DUP1 SWAP2 SUB SWAP1 RETURN JUMPDEST PUSH3 0x2B7 PUSH3 0x6C3 JUMP JUMPDEST PUSH1 0x40 MLOAD PUSH3 0x2C6 SWAP2 SWAP1 PUSH3 0x2A2C JUMP JUMPDEST PUSH1 0x40 MLOAD DUP1 SWAP2 SUB SWAP1 RETURN JUMPDEST PUSH3 0x2ED PUSH1 0x4 DUP1 CALLDATASIZE SUB DUP2 ADD SWAP1 PUSH3 0x2E7 SWAP2 SWAP1 PUSH3 0x2B56 JUMP JUMPDEST PUSH3 0x6E9 JUMP JUMPDEST PUSH1 0x40 MLOAD PUSH3 0x2FC SWAP2 SWAP1 PUSH3 0x2BA5 JUMP JUMPDEST PUSH1 0x40 MLOAD DUP1 SWAP2 SUB SWAP1 RETURN JUMPDEST PUSH3 0x30F PUSH3 0x709 JUMP JUMPDEST PUSH1 0x40 MLOAD PUSH3 0x31E SWAP2 SWAP1 PUSH3 0x2A2C JUMP JUMPDEST PUSH1 0x40 MLOAD DUP1 SWAP2 SUB SWAP1 RETURN JUMPDEST PUSH3 0x331 PUSH3 0x72F JUMP JUMPDEST PUSH1 0x40 MLOAD PUSH3 0x340 SWAP2 SWAP1 PUSH3 0x2AED JUMP JUMPDEST PUSH1 0x40 MLOAD DUP1 SWAP2 SUB SWAP1 RETURN JUMPDEST PUSH3 0x353 PUSH3 0x7C5 JUMP JUMPDEST PUSH1 0x40 MLOAD PUSH3 0x362 SWAP2 SWAP1 PUSH3 0x29CA JUMP JUMPDEST PUSH1 0x40 MLOAD DUP1 SWAP2 SUB SWAP1 RETURN JUMPDEST PUSH3 0x375 PUSH3 0x7CB JUMP JUMPDEST PUSH1 0x40 MLOAD PUSH3 0x384 SWAP2 SWAP1 PUSH3 0x29CA JUMP JUMPDEST PUSH1 0x40 MLOAD DUP1 SWAP2 SUB SWAP1 RETURN JUMPDEST PUSH3 0x397 PUSH3 0xA5F JUMP JUMPDEST PUSH1 0x40 MLOAD PUSH3 0x3A6 SWAP2 SWAP1 PUSH3 0x2A2C JUMP JUMPDEST PUSH1 0x40 MLOAD DUP1 SWAP2 SUB SWAP1 RETURN JUMPDEST PUSH3 0x3CD PUSH1 0x4 DUP1 CALLDATASIZE SUB DUP2 ADD SWAP1 PUSH3 0x3C7 SWAP2 SWAP1 PUSH3 0x2D44 JUMP JUMPDEST PUSH3 0xA85 JUMP JUMPDEST STOP JUMPDEST PUSH3 0x3D9 PUSH3 0x136A JUMP JUMPDEST PUSH1 0x40 MLOAD PUSH3 0x3E8 SWAP2 SWAP1 PUSH3 0x2A2C JUMP JUMPDEST PUSH1 0x40 MLOAD DUP1 SWAP2 SUB SWAP1 RETURN JUMPDEST PUSH3 0x3FB PUSH3 0x138E JUMP JUMPDEST PUSH1 0x40 MLOAD PUSH3 0x40A SWAP2 SWAP1 PUSH3 0x2A2C JUMP JUMPDEST PUSH1 0x40 MLOAD DUP1 SWAP2 SUB SWAP1 RETURN JUMPDEST PUSH3 0x41D PUSH3 0x13B2 JUMP JUMPDEST PUSH1 0x40 MLOAD PUSH3 0x42C SWAP2 SWAP1 PUSH3 0x2A2C JUMP JUMPDEST PUSH1 0x40 MLOAD DUP1 SWAP2 SUB SWAP1 RETURN JUMPDEST PUSH3 0x43F PUSH3 0x13D8 JUMP JUMPDEST PUSH1 0x40 MLOAD PUSH3 0x44E SWAP2 SWAP1 PUSH3 0x2E1E JUMP JUMPDEST PUSH1 0x40 MLOAD DUP1 SWAP2 SUB SWAP1 RETURN JUMPDEST PUSH3 0x461 PUSH3 0x13DD JUMP JUMPDEST STOP JUMPDEST PUSH3 0x46D PUSH3 0x1958 JUMP JUMPDEST PUSH1 0x40 MLOAD PUSH3 0x47C SWAP2 SWAP1 PUSH3 0x2BA5 JUMP JUMPDEST PUSH1 0x40 MLOAD DUP1 SWAP2 SUB SWAP1 RETURN JUMPDEST PUSH3 0x48F PUSH3 0x196B JUMP JUMPDEST PUSH1 0x40 MLOAD PUSH3 0x49F SWAP3 SWAP2 SWAP1 PUSH3 0x2E3B JUMP JUMPDEST PUSH1 0x40 MLOAD DUP1 SWAP2 SUB SWAP1 RETURN JUMPDEST PUSH3 0x4B2 PUSH3 0x19AF JUMP JUMPDEST PUSH1 0x40 MLOAD PUSH3 0x4C1 SWAP2 SWAP1 PUSH3 0x29CA JUMP JUMPDEST PUSH1 0x40 MLOAD DUP1 SWAP2 SUB SWAP1 RETURN JUMPDEST PUSH3 0x4D4 PUSH3 0x19B5 JUMP JUMPDEST PUSH1 0x40 MLOAD PUSH3 0x4E3 SWAP2 SWAP1 PUSH3 0x2A2C JUMP JUMPDEST PUSH1 0x40 MLOAD DUP1 SWAP2 SUB SWAP1 RETURN JUMPDEST PUSH3 0x50A PUSH1 0x4 DUP1 CALLDATASIZE SUB DUP2 ADD SWAP1 PUSH3 0x504 SWAP2 SWAP1 PUSH3 0x2B56 JUMP JUMPDEST PUSH3 0x19D9 JUMP JUMPDEST STOP JUMPDEST PUSH3 0x52A PUSH1 0x4 DUP1 CALLDATASIZE SUB DUP2 ADD SWAP1 PUSH3 0x524 SWAP2 SWAP1 PUSH3 0x3020 JUMP JUMPDEST PUSH3 0x1BA7 JUMP JUMPDEST STOP JUMPDEST PUSH3 0x536 PUSH3 0x1DF3 JUMP JUMPDEST STOP JUMPDEST PUSH3 0x556 PUSH1 0x4 DUP1 CALLDATASIZE SUB DUP2 ADD SWAP1 PUSH3 0x550 SWAP2 SWAP1 PUSH3 0x30D9 JUMP JUMPDEST PUSH3 0x2184 JUMP JUMPDEST PUSH1 0x40 MLOAD PUSH3 0x565 SWAP2 SWAP1 PUSH3 0x29CA JUMP JUMPDEST PUSH1 0x40 MLOAD DUP1 SWAP2 SUB SWAP1 RETURN JUMPDEST PUSH3 0x578 PUSH3 0x22B2 JUMP JUMPDEST PUSH1 0x40 MLOAD PUSH3 0x587 SWAP2 SWAP1 PUSH3 0x29CA JUMP JUMPDEST PUSH1 0x40 MLOAD DUP1 SWAP2 SUB SWAP1 RETURN JUMPDEST PUSH3 0x59A PUSH3 0x22B8 JUMP JUMPDEST PUSH1 0x40 MLOAD PUSH3 0x5A9 SWAP2 SWAP1 PUSH3 0x2A2C JUMP JUMPDEST PUSH1 0x40 MLOAD DUP1 SWAP2 SUB SWAP1 RETURN JUMPDEST PUSH3 0x5BC PUSH3 0x22DE JUMP JUMPDEST PUSH1 0x40 MLOAD PUSH3 0x5CB SWAP2 SWAP1 PUSH3 0x2A2C JUMP JUMPDEST PUSH1 0x40 MLOAD DUP1 SWAP2 SUB SWAP1 RETURN JUMPDEST PUSH3 0x5F2 PUSH1 0x4 DUP1 CALLDATASIZE SUB DUP2 ADD SWAP1 PUSH3 0x5EC SWAP2 SWAP1 PUSH3 0x3120 JUMP JUMPDEST PUSH3 0x2302 JUMP JUMPDEST STOP JUMPDEST PUSH3 0x5FE PUSH3 0x25C5 JUMP JUMPDEST PUSH1 0x40 MLOAD PUSH3 0x60D SWAP2 SWAP1 PUSH3 0x2A2C JUMP JUMPDEST PUSH1 0x40 MLOAD DUP1 SWAP2 SUB SWAP1 RETURN JUMPDEST PUSH3 0x620 PUSH3 0x25E9 JUMP JUMPDEST PUSH1 0x40 MLOAD PUSH3 0x62F SWAP2 SWAP1 PUSH3 0x2A2C JUMP JUMPDEST PUSH1 0x40 MLOAD DUP1 SWAP2 SUB SWAP1 RETURN JUMPDEST PUSH3 0x642 PUSH3 0x260F JUMP JUMPDEST PUSH1 0x40 MLOAD PUSH3 0x651 SWAP2 SWAP1 PUSH3 0x2BA5 JUMP JUMPDEST PUSH1 0x40 MLOAD DUP1 SWAP2 SUB SWAP1 RETURN JUMPDEST PUSH1 0xD SLOAD DUP2 JUMP JUMPDEST PUSH32 0x0 DUP2 JUMP JUMPDEST PUSH1 0xB SLOAD DUP2 JUMP JUMPDEST PUSH1 0x40 MLOAD DUP1 PUSH1 0x40 ADD PUSH1 0x40 MSTORE DUP1 PUSH1 0x19 DUP2 MSTORE PUSH1 0x20 ADD PUSH32 0x546F6B656E2045636F6E6F6D696320262050726F706F736F6C00000000000000 DUP2 MSTORE POP DUP2 JUMP JUMPDEST PUSH1 0x5 PUSH1 0x0 SWAP1 SLOAD SWAP1 PUSH2 0x100 EXP SWAP1 DIV PUSH20 0xFFFFFFFFFFFFFFFFFFFFFFFFFFFFFFFFFFFFFFFF AND DUP2 JUMP JUMPDEST PUSH1 0x7 PUSH1 0x20 MSTORE DUP1 PUSH1 0x0 MSTORE PUSH1 0x40 PUSH1 0x0 KECCAK256 PUSH1 0x0 SWAP2 POP SLOAD SWAP1 PUSH2 0x100 EXP SWAP1 DIV PUSH1 0xFF AND DUP2 JUMP JUMPDEST PUSH1 0x2 PUSH1 0x0 SWAP1 SLOAD SWAP1 PUSH2 0x100 EXP SWAP1 DIV PUSH20 0xFFFFFFFFFFFFFFFFFFFFFFFFFFFFFFFFFFFFFFFF AND DUP2 JUMP JUMPDEST PUSH1 0x9 DUP1 SLOAD PUSH3 0x73E SWAP1 PUSH3 0x31B5 JUMP JUMPDEST DUP1 PUSH1 0x1F ADD PUSH1 0x20 DUP1 SWAP2 DIV MUL PUSH1 0x20 ADD PUSH1 0x40 MLOAD SWAP1 DUP2 ADD PUSH1 0x40 MSTORE DUP1 SWAP3 SWAP2 SWAP1 DUP2 DUP2 MSTORE PUSH1 0x20 ADD DUP3 DUP1 SLOAD PUSH3 0x76C SWAP1 PUSH3 0x31B5 JUMP JUMPDEST DUP1 ISZERO PUSH3 0x7BD JUMPI DUP1 PUSH1 0x1F LT PUSH3 0x791 JUMPI PUSH2 0x100 DUP1 DUP4 SLOAD DIV MUL DUP4 MSTORE SWAP2 PUSH1 0x20 ADD SWAP2 PUSH3 0x7BD JUMP JUMPDEST DUP3 ADD SWAP2 SWAP1 PUSH1 0x0 MSTORE PUSH1 0x20 PUSH1 0x0 KECCAK256 SWAP1 JUMPDEST DUP2 SLOAD DUP2 MSTORE SWAP1 PUSH1 0x1 ADD SWAP1 PUSH1 0x20 ADD DUP1 DUP4 GT PUSH3 0x79F JUMPI DUP3 SWAP1 SUB PUSH1 0x1F AND DUP3 ADD SWAP2 JUMPDEST POP POP POP POP POP DUP2 JUMP JUMPDEST PUSH1 0xC SLOAD DUP2 JUMP JUMPDEST PUSH1 0x0 DUP1 PUSH1 0x5 PUSH1 0x0 SWAP1 SLOAD SWAP1 PUSH2 0x100 EXP SWAP1 DIV PUSH20 0xFFFFFFFFFFFFFFFFFFFFFFFFFFFFFFFFFFFFFFFF AND PUSH20 0xFFFFFFFFFFFFFFFFFFFFFFFFFFFFFFFFFFFFFFFF AND PUSH4 0x70A08231 CALLER PUSH1 0x40 MLOAD DUP3 PUSH4 0xFFFFFFFF AND PUSH1 0xE0 SHL DUP2 MSTORE PUSH1 0x4 ADD PUSH3 0x82B SWAP2 SWAP1 PUSH3 0x2A2C JUMP JUMPDEST PUSH1 0x20 PUSH1 0x40 MLOAD DUP1 DUP4 SUB DUP2 DUP7 GAS STATICCALL ISZERO DUP1 ISZERO PUSH3 0x849 JUMPI RETURNDATASIZE PUSH1 0x0 DUP1 RETURNDATACOPY RETURNDATASIZE PUSH1 0x0 REVERT JUMPDEST POP POP POP POP PUSH1 0x40 MLOAD RETURNDATASIZE PUSH1 0x1F NOT PUSH1 0x1F DUP3 ADD AND DUP3 ADD DUP1 PUSH1 0x40 MSTORE POP DUP2 ADD SWAP1 PUSH3 0x86F SWAP2 SWAP1 PUSH3 0x3201 JUMP JUMPDEST SWAP1 POP PUSH1 0x0 DUP2 SUB PUSH3 0x885 JUMPI PUSH1 0x0 SWAP2 POP POP PUSH3 0xA5C JUMP JUMPDEST PUSH1 0x0 DUP2 GT PUSH3 0x8CB JUMPI PUSH1 0x40 MLOAD PUSH32 0x8C379A000000000000000000000000000000000000000000000000000000000 DUP2 MSTORE PUSH1 0x4 ADD PUSH3 0x8C2 SWAP1 PUSH3 0x3283 JUMP JUMPDEST PUSH1 0x40 MLOAD DUP1 SWAP2 SUB SWAP1 REVERT JUMPDEST PUSH1 0x0 PUSH1 0x2 PUSH1 0x0 SWAP1 SLOAD SWAP1 PUSH2 0x100 EXP SWAP1 DIV PUSH20 0xFFFFFFFFFFFFFFFFFFFFFFFFFFFFFFFFFFFFFFFF AND PUSH20 0xFFFFFFFFFFFFFFFFFFFFFFFFFFFFFFFFFFFFFFFF AND PUSH4 0x4838ED19 PUSH1 0x40 MLOAD DUP2 PUSH4 0xFFFFFFFF AND PUSH1 0xE0 SHL DUP2 MSTORE PUSH1 0x4 ADD PUSH1 0x20 PUSH1 0x40 MLOAD DUP1 DUP4 SUB DUP2 DUP7 GAS STATICCALL ISZERO DUP1 ISZERO PUSH3 0x93B JUMPI RETURNDATASIZE PUSH1 0x0 DUP1 RETURNDATACOPY RETURNDATASIZE PUSH1 0x0 REVERT JUMPDEST POP POP POP POP PUSH1 0x40 MLOAD RETURNDATASIZE PUSH1 0x1F NOT PUSH1 0x1F DUP3 ADD AND DUP3 ADD DUP1 PUSH1 0x40 MSTORE POP DUP2 ADD SWAP1 PUSH3 0x961 SWAP2 SWAP1 PUSH3 0x3201 JUMP JUMPDEST PUSH1 0x5 PUSH1 0x0 SWAP1 SLOAD SWAP1 PUSH2 0x100 EXP SWAP1 DIV PUSH20 0xFFFFFFFFFFFFFFFFFFFFFFFFFFFFFFFFFFFFFFFF AND PUSH20 0xFFFFFFFFFFFFFFFFFFFFFFFFFFFFFFFFFFFFFFFF AND PUSH4 0x18160DDD PUSH1 0x40 MLOAD DUP2 PUSH4 0xFFFFFFFF AND PUSH1 0xE0 SHL DUP2 MSTORE PUSH1 0x4 ADD PUSH1 0x20 PUSH1 0x40 MLOAD DUP1 DUP4 SUB DUP2 DUP7 GAS STATICCALL ISZERO DUP1 ISZERO PUSH3 0x9CF JUMPI RETURNDATASIZE PUSH1 0x0 DUP1 RETURNDATACOPY RETURNDATASIZE PUSH1 0x0 REVERT JUMPDEST POP POP POP POP PUSH1 0x40 MLOAD RETURNDATASIZE PUSH1 0x1F NOT PUSH1 0x1F DUP3 ADD AND DUP3 ADD DUP1 PUSH1 0x40 MSTORE POP DUP2 ADD SWAP1 PUSH3 0x9F5 SWAP2 SWAP1 PUSH3 0x3201 JUMP JUMPDEST PUSH3 0xA01 SWAP2 SWAP1 PUSH3 0x32D4 JUMP JUMPDEST PUSH1 0x1 PUSH1 0x0 SWAP1 SLOAD SWAP1 PUSH2 0x100 EXP SWAP1 DIV PUSH20 0xFFFFFFFFFFFFFFFFFFFFFFFFFFFFFFFFFFFFFFFF AND PUSH20 0xFFFFFFFFFFFFFFFFFFFFFFFFFFFFFFFFFFFFFFFF AND BALANCE DUP4 PUSH3 0xA48 SWAP2 SWAP1 PUSH3 0x3331 JUMP JUMPDEST PUSH3 0xA54 SWAP2 SWAP1 PUSH3 0x33C1 JUMP JUMPDEST SWAP1 POP DUP1 SWAP3 POP POP POP JUMPDEST SWAP1 JUMP JUMPDEST PUSH1 0x4 PUSH1 0x0 SWAP1 SLOAD SWAP1 PUSH2 0x100 EXP SWAP1 DIV PUSH20 0xFFFFFFFFFFFFFFFFFFFFFFFFFFFFFFFFFFFFFFFF AND DUP2 JUMP JUMPDEST PUSH1 0x8 PUSH1 0x2 SWAP1 SLOAD SWAP1 PUSH2 0x100 EXP SWAP1 DIV PUSH1 0xFF AND ISZERO PUSH3 0xAD8 JUMPI PUSH1 0x40 MLOAD PUSH32 0x8C379A000000000000000000000000000000000000000000000000000000000 DUP2 MSTORE PUSH1 0x4 ADD PUSH3 0xACF SWAP1 PUSH3 0x3449 JUMP JUMPDEST PUSH1 0x40 MLOAD DUP1 SWAP2 SUB SWAP1 REVERT JUMPDEST PUSH1 0x1 PUSH1 0x8 PUSH1 0x2 PUSH2 0x100 EXP DUP2 SLOAD DUP2 PUSH1 0xFF MUL NOT AND SWAP1 DUP4 ISZERO ISZERO MUL OR SWAP1 SSTORE POP PUSH1 0x0 PUSH1 0x1 PUSH1 0x0 SWAP1 SLOAD SWAP1 PUSH2 0x100 EXP SWAP1 DIV PUSH20 0xFFFFFFFFFFFFFFFFFFFFFFFFFFFFFFFFFFFFFFFF AND PUSH20 0xFFFFFFFFFFFFFFFFFFFFFFFFFFFFFFFFFFFFFFFF AND PUSH4 0x634F6319 PUSH1 0x40 MLOAD DUP2 PUSH4 0xFFFFFFFF AND PUSH1 0xE0 SHL DUP2 MSTORE PUSH1 0x4 ADD PUSH1 0x0 PUSH1 0x40 MLOAD DUP1 DUP4 SUB DUP2 DUP7 GAS STATICCALL ISZERO DUP1 ISZERO PUSH3 0xB63 JUMPI RETURNDATASIZE PUSH1 0x0 DUP1 RETURNDATACOPY RETURNDATASIZE PUSH1 0x0 REVERT JUMPDEST POP POP POP POP PUSH1 0x40 MLOAD RETURNDATASIZE PUSH1 0x0 DUP3 RETURNDATACOPY RETURNDATASIZE PUSH1 0x1F NOT PUSH1 0x1F DUP3 ADD AND DUP3 ADD DUP1 PUSH1 0x40 MSTORE POP DUP2 ADD SWAP1 PUSH3 0xB8E SWAP2 SWAP1 PUSH3 0x3512 JUMP JUMPDEST MLOAD SUB PUSH3 0xBD2 JUMPI PUSH1 0x40 MLOAD PUSH32 0x8C379A000000000000000000000000000000000000000000000000000000000 DUP2 MSTORE PUSH1 0x4 ADD PUSH3 0xBC9 SWAP1 PUSH3 0x35B3 JUMP JUMPDEST PUSH1 0x40 MLOAD DUP1 SWAP2 SUB SWAP1 REVERT JUMPDEST PUSH1 0x6 PUSH1 0x0 SWAP1 SLOAD SWAP1 PUSH2 0x100 EXP SWAP1 DIV PUSH20 0xFFFFFFFFFFFFFFFFFFFFFFFFFFFFFFFFFFFFFFFF AND PUSH20 0xFFFFFFFFFFFFFFFFFFFFFFFFFFFFFFFFFFFFFFFF AND CALLER PUSH20 0xFFFFFFFFFFFFFFFFFFFFFFFFFFFFFFFFFFFFFFFF AND EQ PUSH3 0xC65 JUMPI PUSH1 0x40 MLOAD PUSH32 0x8C379A000000000000000000000000000000000000000000000000000000000 DUP2 MSTORE PUSH1 0x4 ADD PUSH3 0xC5C SWAP1 PUSH3 0x364B JUMP JUMPDEST PUSH1 0x40 MLOAD DUP1 SWAP2 SUB SWAP1 REVERT JUMPDEST PUSH1 0x8 PUSH1 0x1 SWAP1 SLOAD SWAP1 PUSH2 0x100 EXP SWAP1 DIV PUSH1 0xFF AND ISZERO PUSH3 0xCB8 JUMPI PUSH1 0x40 MLOAD PUSH32 0x8C379A000000000000000000000000000000000000000000000000000000000 DUP2 MSTORE PUSH1 0x4 ADD PUSH3 0xCAF SWAP1 PUSH3 0x36BD JUMP JUMPDEST PUSH1 0x40 MLOAD DUP1 SWAP2 SUB SWAP1 REVERT JUMPDEST PUSH10 0x21E19E0C9BAB2400000 DUP7 LT ISZERO PUSH3 0xD08 JUMPI PUSH1 0x40 MLOAD PUSH32 0x8C379A000000000000000000000000000000000000000000000000000000000 DUP2 MSTORE PUSH1 0x4 ADD PUSH3 0xCFF SWAP1 PUSH3 0x3755 JUMP JUMPDEST PUSH1 0x40 MLOAD DUP1 SWAP2 SUB SWAP1 REVERT JUMPDEST PUSH2 0x26AC DUP5 GT ISZERO PUSH3 0xD50 JUMPI PUSH1 0x40 MLOAD PUSH32 0x8C379A000000000000000000000000000000000000000000000000000000000 DUP2 MSTORE PUSH1 0x4 ADD PUSH3 0xD47 SWAP1 PUSH3 0x37C7 JUMP JUMPDEST PUSH1 0x40 MLOAD DUP1 SWAP2 SUB SWAP1 REVERT JUMPDEST PUSH1 0x1 PUSH1 0x8 PUSH1 0x1 PUSH2 0x100 EXP DUP2 SLOAD DUP2 PUSH1 0xFF MUL NOT AND SWAP1 DUP4 ISZERO ISZERO MUL OR SWAP1 SSTORE POP DUP4 PUSH1 0xB DUP2 SWAP1 SSTORE POP PUSH1 0x0 PUSH1 0x9 DUP7 PUSH1 0x40 MLOAD PUSH1 0x24 ADD PUSH3 0xD8A SWAP3 SWAP2 SWAP1 PUSH3 0x388E JUMP JUMPDEST PUSH1 0x40 MLOAD PUSH1 0x20 DUP2 DUP4 SUB SUB DUP2 MSTORE SWAP1 PUSH1 0x40 MSTORE PUSH32 0x4CD88B7600000000000000000000000000000000000000000000000000000000 PUSH28 0xFFFFFFFFFFFFFFFFFFFFFFFFFFFFFFFFFFFFFFFFFFFFFFFFFFFFFFFF NOT AND PUSH1 0x20 DUP3 ADD DUP1 MLOAD PUSH28 0xFFFFFFFFFFFFFFFFFFFFFFFFFFFFFFFFFFFFFFFFFFFFFFFFFFFFFFFF DUP4 DUP2 DUP4 AND OR DUP4 MSTORE POP POP POP POP SWAP1 POP PUSH3 0xE35 PUSH32 0x0 DUP3 PUSH3 0x2622 JUMP JUMPDEST PUSH1 0x5 PUSH1 0x0 PUSH2 0x100 EXP DUP2 SLOAD DUP2 PUSH20 0xFFFFFFFFFFFFFFFFFFFFFFFFFFFFFFFFFFFFFFFF MUL NOT AND SWAP1 DUP4 PUSH20 0xFFFFFFFFFFFFFFFFFFFFFFFFFFFFFFFFFFFFFFFF AND MUL OR SWAP1 SSTORE POP PUSH3 0xEA4 PUSH1 0x5 PUSH1 0x0 SWAP1 SLOAD SWAP1 PUSH2 0x100 EXP SWAP1 DIV PUSH20 0xFFFFFFFFFFFFFFFFFFFFFFFFFFFFFFFFFFFFFFFF AND PUSH1 0x1 PUSH3 0x2667 JUMP JUMPDEST PUSH1 0x0 PUSH3 0xED4 DUP9 PUSH1 0x6 PUSH1 0x0 SWAP1 SLOAD SWAP1 PUSH2 0x100 EXP SWAP1 DIV PUSH20 0xFFFFFFFFFFFFFFFFFFFFFFFFFFFFFFFFFFFFFFFF AND PUSH3 0x26C2 JUMP JUMPDEST SWAP1 POP PUSH1 0x0 DUP2 DUP6 DUP6 PUSH1 0x40 MLOAD PUSH1 0x24 ADD PUSH3 0xEEF SWAP4 SWAP3 SWAP2 SWAP1 PUSH3 0x38C9 JUMP JUMPDEST PUSH1 0x40 MLOAD PUSH1 0x20 DUP2 DUP4 SUB SUB DUP2 MSTORE SWAP1 PUSH1 0x40 MSTORE PUSH32 0x80D8591100000000000000000000000000000000000000000000000000000000 PUSH28 0xFFFFFFFFFFFFFFFFFFFFFFFFFFFFFFFFFFFFFFFFFFFFFFFFFFFFFFFF NOT AND PUSH1 0x20 DUP3 ADD DUP1 MLOAD PUSH28 0xFFFFFFFFFFFFFFFFFFFFFFFFFFFFFFFFFFFFFFFFFFFFFFFFFFFFFFFF DUP4 DUP2 DUP4 AND OR DUP4 MSTORE POP POP POP POP SWAP1 POP PUSH3 0xF9A PUSH32 0x0 DUP3 PUSH3 0x2622 JUMP JUMPDEST PUSH1 0x2 PUSH1 0x0 PUSH2 0x100 EXP DUP2 SLOAD DUP2 PUSH20 0xFFFFFFFFFFFFFFFFFFFFFFFFFFFFFFFFFFFFFFFF MUL NOT AND SWAP1 DUP4 PUSH20 0xFFFFFFFFFFFFFFFFFFFFFFFFFFFFFFFFFFFFFFFF AND MUL OR SWAP1 SSTORE POP PUSH3 0x1009 PUSH1 0x2 PUSH1 0x0 SWAP1 SLOAD SWAP1 PUSH2 0x100 EXP SWAP1 DIV PUSH20 0xFFFFFFFFFFFFFFFFFFFFFFFFFFFFFFFFFFFFFFFF AND PUSH1 0x1 PUSH3 0x2667 JUMP JUMPDEST PUSH1 0x0 PUSH1 0x40 MLOAD PUSH1 0x24 ADD PUSH1 0x40 MLOAD PUSH1 0x20 DUP2 DUP4 SUB SUB DUP2 MSTORE SWAP1 PUSH1 0x40 MSTORE PUSH32 0x8129FC1C00000000000000000000000000000000000000000000000000000000 PUSH28 0xFFFFFFFFFFFFFFFFFFFFFFFFFFFFFFFFFFFFFFFFFFFFFFFFFFFFFFFF NOT AND PUSH1 0x20 DUP3 ADD DUP1 MLOAD PUSH28 0xFFFFFFFFFFFFFFFFFFFFFFFFFFFFFFFFFFFFFFFFFFFFFFFFFFFFFFFF DUP4 DUP2 DUP4 AND OR DUP4 MSTORE POP POP POP POP SWAP1 POP PUSH3 0x10BC PUSH32 0x0 DUP3 PUSH3 0x2622 JUMP JUMPDEST PUSH1 0x3 PUSH1 0x0 PUSH2 0x100 EXP DUP2 SLOAD DUP2 PUSH20 0xFFFFFFFFFFFFFFFFFFFFFFFFFFFFFFFFFFFFFFFF MUL NOT AND SWAP1 DUP4 PUSH20 0xFFFFFFFFFFFFFFFFFFFFFFFFFFFFFFFFFFFFFFFF AND MUL OR SWAP1 SSTORE POP PUSH3 0x112B PUSH1 0x3 PUSH1 0x0 SWAP1 SLOAD SWAP1 PUSH2 0x100 EXP SWAP1 DIV PUSH20 0xFFFFFFFFFFFFFFFFFFFFFFFFFFFFFFFFFFFFFFFF AND PUSH1 0x1 PUSH3 0x2667 JUMP JUMPDEST PUSH3 0x1157 PUSH32 0x0 DUP3 PUSH3 0x2622 JUMP JUMPDEST PUSH1 0x4 PUSH1 0x0 PUSH2 0x100 EXP DUP2 SLOAD DUP2 PUSH20 0xFFFFFFFFFFFFFFFFFFFFFFFFFFFFFFFFFFFFFFFF MUL NOT AND SWAP1 DUP4 PUSH20 0xFFFFFFFFFFFFFFFFFFFFFFFFFFFFFFFFFFFFFFFF AND MUL OR SWAP1 SSTORE POP PUSH3 0x11C6 PUSH1 0x4 PUSH1 0x0 SWAP1 SLOAD SWAP1 PUSH2 0x100 EXP SWAP1 DIV PUSH20 0xFFFFFFFFFFFFFFFFFFFFFFFFFFFFFFFFFFFFFFFF AND PUSH1 0x1 PUSH3 0x2667 JUMP JUMPDEST TIMESTAMP PUSH1 0xA DUP2 SWAP1 SSTORE POP PUSH1 0x0 PUSH1 0xE DUP2 SWAP1 SSTORE POP PUSH1 0x3 PUSH1 0x0 SWAP1 SLOAD SWAP1 PUSH2 0x100 EXP SWAP1 DIV PUSH20 0xFFFFFFFFFFFFFFFFFFFFFFFFFFFFFFFFFFFFFFFF AND PUSH20 0xFFFFFFFFFFFFFFFFFFFFFFFFFFFFFFFFFFFFFFFF AND PUSH4 0x3011E16A PUSH1 0x0 DUP1 DUP11 PUSH1 0x40 MLOAD DUP5 PUSH4 0xFFFFFFFF AND PUSH1 0xE0 SHL DUP2 MSTORE PUSH1 0x4 ADD PUSH3 0x1237 SWAP4 SWAP3 SWAP2 SWAP1 PUSH3 0x3953 JUMP JUMPDEST PUSH1 0x0 PUSH1 0x40 MLOAD DUP1 DUP4 SUB DUP2 PUSH1 0x0 DUP8 DUP1 EXTCODESIZE ISZERO DUP1 ISZERO PUSH3 0x1252 JUMPI PUSH1 0x0 DUP1 REVERT JUMPDEST POP GAS CALL ISZERO DUP1 ISZERO PUSH3 0x1267 JUMPI RETURNDATASIZE PUSH1 0x0 DUP1 RETURNDATACOPY RETURNDATASIZE PUSH1 0x0 REVERT JUMPDEST POP POP POP POP PUSH32 0x8B62DD8E86CD198D671FF797219A5C7946C3D55B7F40E4062E60C69658F3FFCD DUP11 PUSH1 0x9 DUP12 PUSH1 0xB SLOAD DUP12 DUP12 DUP12 PUSH1 0x2 PUSH1 0x0 SWAP1 SLOAD SWAP1 PUSH2 0x100 EXP SWAP1 DIV PUSH20 0xFFFFFFFFFFFFFFFFFFFFFFFFFFFFFFFFFFFFFFFF AND PUSH1 0x3 PUSH1 0x0 SWAP1 SLOAD SWAP1 PUSH2 0x100 EXP SWAP1 DIV PUSH20 0xFFFFFFFFFFFFFFFFFFFFFFFFFFFFFFFFFFFFFFFF AND PUSH1 0x4 PUSH1 0x0 SWAP1 SLOAD SWAP1 PUSH2 0x100 EXP SWAP1 DIV PUSH20 0xFFFFFFFFFFFFFFFFFFFFFFFFFFFFFFFFFFFFFFFF AND PUSH1 0x5 PUSH1 0x0 SWAP1 SLOAD SWAP1 PUSH2 0x100 EXP SWAP1 DIV PUSH20 0xFFFFFFFFFFFFFFFFFFFFFFFFFFFFFFFFFFFFFFFF AND PUSH1 0x40 MLOAD PUSH3 0x133B SWAP12 SWAP11 SWAP10 SWAP9 SWAP8 SWAP7 SWAP6 SWAP5 SWAP4 SWAP3 SWAP2 SWAP1 PUSH3 0x3990 JUMP JUMPDEST PUSH1 0x40 MLOAD DUP1 SWAP2 SUB SWAP1 LOG1 POP POP POP POP PUSH1 0x0 PUSH1 0x8 PUSH1 0x2 PUSH2 0x100 EXP DUP2 SLOAD DUP2 PUSH1 0xFF MUL NOT AND SWAP1 DUP4 ISZERO ISZERO MUL OR SWAP1 SSTORE POP POP POP POP POP POP POP JUMP JUMPDEST PUSH32 0x0 DUP2 JUMP JUMPDEST PUSH32 0x0 DUP2 JUMP JUMPDEST PUSH1 0x3 PUSH1 0x0 SWAP1 SLOAD SWAP1 PUSH2 0x100 EXP SWAP1 DIV PUSH20 0xFFFFFFFFFFFFFFFFFFFFFFFFFFFFFFFFFFFFFFFF AND DUP2 JUMP JUMPDEST PUSH1 0xA DUP2 JUMP JUMPDEST PUSH1 0x8 PUSH1 0x2 SWAP1 SLOAD SWAP1 PUSH2 0x100 EXP SWAP1 DIV PUSH1 0xFF AND ISZERO PUSH3 0x1430 JUMPI PUSH1 0x40 MLOAD PUSH32 0x8C379A000000000000000000000000000000000000000000000000000000000 DUP2 MSTORE PUSH1 0x4 ADD PUSH3 0x1427 SWAP1 PUSH3 0x3449 JUMP JUMPDEST PUSH1 0x40 MLOAD DUP1 SWAP2 SUB SWAP1 REVERT JUMPDEST PUSH1 0x1 PUSH1 0x8 PUSH1 0x2 PUSH2 0x100 EXP DUP2 SLOAD DUP2 PUSH1 0xFF MUL NOT AND SWAP1 DUP4 ISZERO ISZERO MUL OR SWAP1 SSTORE POP PUSH1 0x2 DUP1 DUP2 GT ISZERO PUSH3 0x1461 JUMPI PUSH3 0x1460 PUSH3 0x3A5F JUMP JUMPDEST JUMPDEST PUSH1 0x1 PUSH1 0x0 SWAP1 SLOAD SWAP1 PUSH2 0x100 EXP SWAP1 DIV PUSH20 0xFFFFFFFFFFFFFFFFFFFFFFFFFFFFFFFFFFFFFFFF AND PUSH20 0xFFFFFFFFFFFFFFFFFFFFFFFFFFFFFFFFFFFFFFFF AND PUSH4 0xD58BFA9D PUSH1 0x40 MLOAD DUP2 PUSH4 0xFFFFFFFF AND PUSH1 0xE0 SHL DUP2 MSTORE PUSH1 0x4 ADD PUSH1 0x20 PUSH1 0x40 MLOAD DUP1 DUP4 SUB DUP2 DUP7 GAS STATICCALL ISZERO DUP1 ISZERO PUSH3 0x14CF JUMPI RETURNDATASIZE PUSH1 0x0 DUP1 RETURNDATACOPY RETURNDATASIZE PUSH1 0x0 REVERT JUMPDEST POP POP POP POP PUSH1 0x40 MLOAD RETURNDATASIZE PUSH1 0x1F NOT PUSH1 0x1F DUP3 ADD AND DUP3 ADD DUP1 PUSH1 0x40 MSTORE POP DUP2 ADD SWAP1 PUSH3 0x14F5 SWAP2 SWAP1 PUSH3 0x3AB6 JUMP JUMPDEST PUSH1 0x2 DUP2 GT ISZERO PUSH3 0x150A JUMPI PUSH3 0x1509 PUSH3 0x3A5F JUMP JUMPDEST JUMPDEST EQ PUSH3 0x154D JUMPI PUSH1 0x40 MLOAD PUSH32 0x8C379A000000000000000000000000000000000000000000000000000000000 DUP2 MSTORE PUSH1 0x4 ADD PUSH3 0x1544 SWAP1 PUSH3 0x3B38 JUMP JUMPDEST PUSH1 0x40 MLOAD DUP1 SWAP2 SUB SWAP1 REVERT JUMPDEST PUSH1 0x0 PUSH1 0x5 PUSH1 0x0 SWAP1 SLOAD SWAP1 PUSH2 0x100 EXP SWAP1 DIV PUSH20 0xFFFFFFFFFFFFFFFFFFFFFFFFFFFFFFFFFFFFFFFF AND PUSH20 0xFFFFFFFFFFFFFFFFFFFFFFFFFFFFFFFFFFFFFFFF AND PUSH4 0x70A08231 CALLER PUSH1 0x40 MLOAD DUP3 PUSH4 0xFFFFFFFF AND PUSH1 0xE0 SHL DUP2 MSTORE PUSH1 0x4 ADD PUSH3 0x15AC SWAP2 SWAP1 PUSH3 0x2A2C JUMP JUMPDEST PUSH1 0x20 PUSH1 0x40 MLOAD DUP1 DUP4 SUB DUP2 DUP7 GAS STATICCALL ISZERO DUP1 ISZERO PUSH3 0x15CA JUMPI RETURNDATASIZE PUSH1 0x0 DUP1 RETURNDATACOPY RETURNDATASIZE PUSH1 0x0 REVERT JUMPDEST POP POP POP POP PUSH1 0x40 MLOAD RETURNDATASIZE PUSH1 0x1F NOT PUSH1 0x1F DUP3 ADD AND DUP3 ADD DUP1 PUSH1 0x40 MSTORE POP DUP2 ADD SWAP1 PUSH3 0x15F0 SWAP2 SWAP1 PUSH3 0x3201 JUMP JUMPDEST SWAP1 POP PUSH1 0x0 DUP2 GT PUSH3 0x1638 JUMPI PUSH1 0x40 MLOAD PUSH32 0x8C379A000000000000000000000000000000000000000000000000000000000 DUP2 MSTORE PUSH1 0x4 ADD PUSH3 0x162F SWAP1 PUSH3 0x3283 JUMP JUMPDEST PUSH1 0x40 MLOAD DUP1 SWAP2 SUB SWAP1 REVERT JUMPDEST PUSH1 0x0 PUSH1 0x2 PUSH1 0x0 SWAP1 SLOAD SWAP1 PUSH2 0x100 EXP SWAP1 DIV PUSH20 0xFFFFFFFFFFFFFFFFFFFFFFFFFFFFFFFFFFFFFFFF AND PUSH20 0xFFFFFFFFFFFFFFFFFFFFFFFFFFFFFFFFFFFFFFFF AND PUSH4 0x4838ED19 PUSH1 0x40 MLOAD DUP2 PUSH4 0xFFFFFFFF AND PUSH1 0xE0 SHL DUP2 MSTORE PUSH1 0x4 ADD PUSH1 0x20 PUSH1 0x40 MLOAD DUP1 DUP4 SUB DUP2 DUP7 GAS STATICCALL ISZERO DUP1 ISZERO PUSH3 0x16A8 JUMPI RETURNDATASIZE PUSH1 0x0 DUP1 RETURNDATACOPY RETURNDATASIZE PUSH1 0x0 REVERT JUMPDEST POP POP POP POP PUSH1 0x40 MLOAD RETURNDATASIZE PUSH1 0x1F NOT PUSH1 0x1F DUP3 ADD AND DUP3 ADD DUP1 PUSH1 0x40 MSTORE POP DUP2 ADD SWAP1 PUSH3 0x16CE SWAP2 SWAP1 PUSH3 0x3201 JUMP JUMPDEST PUSH1 0x5 PUSH1 0x0 SWAP1 SLOAD SWAP1 PUSH2 0x100 EXP SWAP1 DIV PUSH20 0xFFFFFFFFFFFFFFFFFFFFFFFFFFFFFFFFFFFFFFFF AND PUSH20 0xFFFFFFFFFFFFFFFFFFFFFFFFFFFFFFFFFFFFFFFF AND PUSH4 0x18160DDD PUSH1 0x40 MLOAD DUP2 PUSH4 0xFFFFFFFF AND PUSH1 0xE0 SHL DUP2 MSTORE PUSH1 0x4 ADD PUSH1 0x20 PUSH1 0x40 MLOAD DUP1 DUP4 SUB DUP2 DUP7 GAS STATICCALL ISZERO DUP1 ISZERO PUSH3 0x173C JUMPI RETURNDATASIZE PUSH1 0x0 DUP1 RETURNDATACOPY RETURNDATASIZE PUSH1 0x0 REVERT JUMPDEST POP POP POP POP PUSH1 0x40 MLOAD RETURNDATASIZE PUSH1 0x1F NOT PUSH1 0x1F DUP3 ADD AND DUP3 ADD DUP1 PUSH1 0x40 MSTORE POP DUP2 ADD SWAP1 PUSH3 0x1762 SWAP2 SWAP1 PUSH3 0x3201 JUMP JUMPDEST PUSH3 0x176E SWAP2 SWAP1 PUSH3 0x32D4 JUMP JUMPDEST PUSH1 0x1 PUSH1 0x0 SWAP1 SLOAD SWAP1 PUSH2 0x100 EXP SWAP1 DIV PUSH20 0xFFFFFFFFFFFFFFFFFFFFFFFFFFFFFFFFFFFFFFFF AND PUSH20 0xFFFFFFFFFFFFFFFFFFFFFFFFFFFFFFFFFFFFFFFF AND BALANCE DUP4 PUSH3 0x17B5 SWAP2 SWAP1 PUSH3 0x3331 JUMP JUMPDEST PUSH3 0x17C1 SWAP2 SWAP1 PUSH3 0x33C1 JUMP JUMPDEST SWAP1 POP PUSH1 0x5 PUSH1 0x0 SWAP1 SLOAD SWAP1 PUSH2 0x100 EXP SWAP1 DIV PUSH20 0xFFFFFFFFFFFFFFFFFFFFFFFFFFFFFFFFFFFFFFFF AND PUSH20 0xFFFFFFFFFFFFFFFFFFFFFFFFFFFFFFFFFFFFFFFF AND PUSH4 0x9745AB1F CALLER DUP5 PUSH1 0x40 MLOAD DUP4 PUSH4 0xFFFFFFFF AND PUSH1 0xE0 SHL DUP2 MSTORE PUSH1 0x4 ADD PUSH3 0x1822 SWAP3 SWAP2 SWAP1 PUSH3 0x3B5A JUMP JUMPDEST PUSH1 0x0 PUSH1 0x40 MLOAD DUP1 DUP4 SUB DUP2 PUSH1 0x0 DUP8 DUP1 EXTCODESIZE ISZERO DUP1 ISZERO PUSH3 0x183D JUMPI PUSH1 0x0 DUP1 REVERT JUMPDEST POP GAS CALL ISZERO DUP1 ISZERO PUSH3 0x1852 JUMPI RETURNDATASIZE PUSH1 0x0 DUP1 RETURNDATACOPY RETURNDATASIZE PUSH1 0x0 REVERT JUMPDEST POP POP POP POP PUSH1 0x1 PUSH1 0x0 SWAP1 SLOAD SWAP1 PUSH2 0x100 EXP SWAP1 DIV PUSH20 0xFFFFFFFFFFFFFFFFFFFFFFFFFFFFFFFFFFFFFFFF AND PUSH20 0xFFFFFFFFFFFFFFFFFFFFFFFFFFFFFFFFFFFFFFFF AND PUSH4 0x64A197F3 CALLER DUP4 PUSH1 0x40 MLOAD DUP4 PUSH4 0xFFFFFFFF AND PUSH1 0xE0 SHL DUP2 MSTORE PUSH1 0x4 ADD PUSH3 0x18B5 SWAP3 SWAP2 SWAP1 PUSH3 0x3BAC JUMP JUMPDEST PUSH1 0x0 PUSH1 0x40 MLOAD DUP1 DUP4 SUB DUP2 PUSH1 0x0 DUP8 DUP1 EXTCODESIZE ISZERO DUP1 ISZERO PUSH3 0x18D0 JUMPI PUSH1 0x0 DUP1 REVERT JUMPDEST POP GAS CALL ISZERO DUP1 ISZERO PUSH3 0x18E5 JUMPI RETURNDATASIZE PUSH1 0x0 DUP1 RETURNDATACOPY RETURNDATASIZE PUSH1 0x0 REVERT JUMPDEST POP POP POP POP CALLER PUSH20 0xFFFFFFFFFFFFFFFFFFFFFFFFFFFFFFFFFFFFFFFF AND PUSH32 0x730831A1E4AA2D187DDD8E03D7BEEAC760A3927DA5F112D645E0F8DF7494B367 DUP3 PUSH1 0x40 MLOAD PUSH3 0x1931 SWAP2 SWAP1 PUSH3 0x29CA JUMP JUMPDEST PUSH1 0x40 MLOAD DUP1 SWAP2 SUB SWAP1 LOG2 POP POP PUSH1 0x0 PUSH1 0x8 PUSH1 0x2 PUSH2 0x100 EXP DUP2 SLOAD DUP2 PUSH1 0xFF MUL NOT AND SWAP1 DUP4 ISZERO ISZERO MUL OR SWAP1 SSTORE POP JUMP JUMPDEST PUSH1 0x8 PUSH1 0x0 SWAP1 SLOAD SWAP1 PUSH2 0x100 EXP SWAP1 DIV PUSH1 0xFF AND DUP2 JUMP JUMPDEST PUSH1 0x60 PUSH1 0x0 PUSH1 0x40 MLOAD DUP1 PUSH1 0x40 ADD PUSH1 0x40 MSTORE DUP1 PUSH1 0x19 DUP2 MSTORE PUSH1 0x20 ADD PUSH32 0x546F6B656E2045636F6E6F6D696320262050726F706F736F6C00000000000000 DUP2 MSTORE POP PUSH1 0xA SWAP2 POP SWAP2 POP SWAP1 SWAP2 JUMP JUMPDEST PUSH1 0xA SLOAD DUP2 JUMP JUMPDEST PUSH1 0x0 DUP1 SLOAD SWAP1 PUSH2 0x100 EXP SWAP1 DIV PUSH20 0xFFFFFFFFFFFFFFFFFFFFFFFFFFFFFFFFFFFFFFFF AND DUP2 JUMP JUMPDEST PUSH1 0x7 PUSH1 0x0 CALLER PUSH20 0xFFFFFFFFFFFFFFFFFFFFFFFFFFFFFFFFFFFFFFFF AND PUSH20 0xFFFFFFFFFFFFFFFFFFFFFFFFFFFFFFFFFFFFFFFF AND DUP2 MSTORE PUSH1 0x20 ADD SWAP1 DUP2 MSTORE PUSH1 0x20 ADD PUSH1 0x0 KECCAK256 PUSH1 0x0 SWAP1 SLOAD SWAP1 PUSH2 0x100 EXP SWAP1 DIV PUSH1 0xFF AND PUSH3 0x1A68 JUMPI PUSH1 0x40 MLOAD PUSH32 0x8C379A000000000000000000000000000000000000000000000000000000000 DUP2 MSTORE PUSH1 0x4 ADD PUSH3 0x1A5F SWAP1 PUSH3 0x3C29 JUMP JUMPDEST PUSH1 0x40 MLOAD DUP1 SWAP2 SUB SWAP1 REVERT JUMPDEST PUSH1 0x0 DUP1 DUP3 PUSH20 0xFFFFFFFFFFFFFFFFFFFFFFFFFFFFFFFFFFFFFFFF AND PUSH1 0x40 MLOAD PUSH1 0x24 ADD PUSH1 0x40 MLOAD PUSH1 0x20 DUP2 DUP4 SUB SUB DUP2 MSTORE SWAP1 PUSH1 0x40 MSTORE PUSH32 0x736F9E4200000000000000000000000000000000000000000000000000000000 PUSH28 0xFFFFFFFFFFFFFFFFFFFFFFFFFFFFFFFFFFFFFFFFFFFFFFFFFFFFFFFF NOT AND PUSH1 0x20 DUP3 ADD DUP1 MLOAD PUSH28 0xFFFFFFFFFFFFFFFFFFFFFFFFFFFFFFFFFFFFFFFFFFFFFFFFFFFFFFFF DUP4 DUP2 DUP4 AND OR DUP4 MSTORE POP POP POP POP PUSH1 0x40 MLOAD PUSH3 0x1B14 SWAP2 SWAP1 PUSH3 0x3C98 JUMP JUMPDEST PUSH1 0x0 PUSH1 0x40 MLOAD DUP1 DUP4 SUB DUP2 DUP6 GAS DELEGATECALL SWAP2 POP POP RETURNDATASIZE DUP1 PUSH1 0x0 DUP2 EQ PUSH3 0x1B51 JUMPI PUSH1 0x40 MLOAD SWAP2 POP PUSH1 0x1F NOT PUSH1 0x3F RETURNDATASIZE ADD AND DUP3 ADD PUSH1 0x40 MSTORE RETURNDATASIZE DUP3 MSTORE RETURNDATASIZE PUSH1 0x0 PUSH1 0x20 DUP5 ADD RETURNDATACOPY PUSH3 0x1B56 JUMP JUMPDEST PUSH1 0x60 SWAP2 POP JUMPDEST POP SWAP2 POP SWAP2 POP DUP2 DUP2 SWAP1 PUSH3 0x1BA1 JUMPI PUSH1 0x40 MLOAD PUSH32 0x8C379A000000000000000000000000000000000000000000000000000000000 DUP2 MSTORE PUSH1 0x4 ADD PUSH3 0x1B98 SWAP2 SWAP1 PUSH3 0x2AED JUMP JUMPDEST PUSH1 0x40 MLOAD DUP1 SWAP2 SUB SWAP1 REVERT JUMPDEST POP POP POP POP JUMP JUMPDEST PUSH1 0x8 PUSH1 0x2 SWAP1 SLOAD SWAP1 PUSH2 0x100 EXP SWAP1 DIV PUSH1 0xFF AND ISZERO PUSH3 0x1BFA JUMPI PUSH1 0x40 MLOAD PUSH32 0x8C379A000000000000000000000000000000000000000000000000000000000 DUP2 MSTORE PUSH1 0x4 ADD PUSH3 0x1BF1 SWAP1 PUSH3 0x3449 JUMP JUMPDEST PUSH1 0x40 MLOAD DUP1 SWAP2 SUB SWAP1 REVERT JUMPDEST PUSH1 0x1 PUSH1 0x8 PUSH1 0x2 PUSH2 0x100 EXP DUP2 SLOAD DUP2 PUSH1 0xFF MUL NOT AND SWAP1 DUP4 ISZERO ISZERO MUL OR SWAP1 SSTORE POP PUSH1 0x8 PUSH1 0x1 SWAP1 SLOAD SWAP1 PUSH2 0x100 EXP SWAP1 DIV PUSH1 0xFF AND ISZERO PUSH3 0x1C68 JUMPI PUSH1 0x40 MLOAD PUSH32 0x8C379A000000000000000000000000000000000000000000000000000000000 DUP2 MSTORE PUSH1 0x4 ADD PUSH3 0x1C5F SWAP1 PUSH3 0x3D27 JUMP JUMPDEST PUSH1 0x40 MLOAD DUP1 SWAP2 SUB SWAP1 REVERT JUMPDEST PUSH1 0x6 PUSH1 0x0 SWAP1 SLOAD SWAP1 PUSH2 0x100 EXP SWAP1 DIV PUSH20 0xFFFFFFFFFFFFFFFFFFFFFFFFFFFFFFFFFFFFFFFF AND PUSH20 0xFFFFFFFFFFFFFFFFFFFFFFFFFFFFFFFFFFFFFFFF AND CALLER PUSH20 0xFFFFFFFFFFFFFFFFFFFFFFFFFFFFFFFFFFFFFFFF AND EQ PUSH3 0x1CFB JUMPI PUSH1 0x40 MLOAD PUSH32 0x8C379A000000000000000000000000000000000000000000000000000000000 DUP2 MSTORE PUSH1 0x4 ADD PUSH3 0x1CF2 SWAP1 PUSH3 0x3DBF JUMP JUMPDEST PUSH1 0x40 MLOAD DUP1 SWAP2 SUB SWAP1 REVERT JUMPDEST PUSH1 0x1 PUSH1 0x0 SWAP1 SLOAD SWAP1 PUSH2 0x100 EXP SWAP1 DIV PUSH20 0xFFFFFFFFFFFFFFFFFFFFFFFFFFFFFFFFFFFFFFFF AND PUSH20 0xFFFFFFFFFFFFFFFFFFFFFFFFFFFFFFFFFFFFFFFF AND PUSH4 0x4FD0D7C7 DUP5 DUP5 DUP5 CALLER PUSH2 0x2710 PUSH1 0x40 MLOAD DUP7 PUSH4 0xFFFFFFFF AND PUSH1 0xE0 SHL DUP2 MSTORE PUSH1 0x4 ADD PUSH3 0x1D62 SWAP6 SWAP5 SWAP4 SWAP3 SWAP2 SWAP1 PUSH3 0x3FC0 JUMP JUMPDEST PUSH1 0x0 PUSH1 0x40 MLOAD DUP1 DUP4 SUB DUP2 PUSH1 0x0 DUP8 DUP1 EXTCODESIZE ISZERO DUP1 ISZERO PUSH3 0x1D7D JUMPI PUSH1 0x0 DUP1 REVERT JUMPDEST POP GAS CALL ISZERO DUP1 ISZERO PUSH3 0x1D92 JUMPI RETURNDATASIZE PUSH1 0x0 DUP1 RETURNDATACOPY RETURNDATASIZE PUSH1 0x0 REVERT JUMPDEST POP POP POP POP PUSH32 0x3A29EC296622EF644C7845A1C556399C39CD768E645A903D7911A7F5BC1E4011 DUP4 DUP4 DUP4 PUSH1 0x40 MLOAD PUSH3 0x1DCB SWAP4 SWAP3 SWAP2 SWAP1 PUSH3 0x4032 JUMP JUMPDEST PUSH1 0x40 MLOAD DUP1 SWAP2 SUB SWAP1 LOG1 PUSH1 0x0 PUSH1 0x8 PUSH1 0x2 PUSH2 0x100 EXP DUP2 SLOAD DUP2 PUSH1 0xFF MUL NOT AND SWAP1 DUP4 ISZERO ISZERO MUL OR SWAP1 SSTORE POP POP POP POP JUMP JUMPDEST PUSH1 0x8 PUSH1 0x2 SWAP1 SLOAD SWAP1 PUSH2 0x100 EXP SWAP1 DIV PUSH1 0xFF AND ISZERO PUSH3 0x1E46 JUMPI PUSH1 0x40 MLOAD PUSH32 0x8C379A000000000000000000000000000000000000000000000000000000000 DUP2 MSTORE PUSH1 0x4 ADD PUSH3 0x1E3D SWAP1 PUSH3 0x3449 JUMP JUMPDEST PUSH1 0x40 MLOAD DUP1 SWAP2 SUB SWAP1 REVERT JUMPDEST PUSH1 0x1 PUSH1 0x8 PUSH1 0x2 PUSH2 0x100 EXP DUP2 SLOAD DUP2 PUSH1 0xFF MUL NOT AND SWAP1 DUP4 ISZERO ISZERO MUL OR SWAP1 SSTORE POP PUSH1 0x2 DUP1 DUP2 GT ISZERO PUSH3 0x1E77 JUMPI PUSH3 0x1E76 PUSH3 0x3A5F JUMP JUMPDEST JUMPDEST PUSH1 0x1 PUSH1 0x0 SWAP1 SLOAD SWAP1 PUSH2 0x100 EXP SWAP1 DIV PUSH20 0xFFFFFFFFFFFFFFFFFFFFFFFFFFFFFFFFFFFFFFFF AND PUSH20 0xFFFFFFFFFFFFFFFFFFFFFFFFFFFFFFFFFFFFFFFF AND PUSH4 0xD58BFA9D PUSH1 0x40 MLOAD DUP2 PUSH4 0xFFFFFFFF AND PUSH1 0xE0 SHL DUP2 MSTORE PUSH1 0x4 ADD PUSH1 0x20 PUSH1 0x40 MLOAD DUP1 DUP4 SUB DUP2 DUP7 GAS STATICCALL ISZERO DUP1 ISZERO PUSH3 0x1EE5 JUMPI RETURNDATASIZE PUSH1 0x0 DUP1 RETURNDATACOPY RETURNDATASIZE PUSH1 0x0 REVERT JUMPDEST POP POP POP POP PUSH1 0x40 MLOAD RETURNDATASIZE PUSH1 0x1F NOT PUSH1 0x1F DUP3 ADD AND DUP3 ADD DUP1 PUSH1 0x40 MSTORE POP DUP2 ADD SWAP1 PUSH3 0x1F0B SWAP2 SWAP1 PUSH3 0x3AB6 JUMP JUMPDEST PUSH1 0x2 DUP2 GT ISZERO PUSH3 0x1F20 JUMPI PUSH3 0x1F1F PUSH3 0x3A5F JUMP JUMPDEST JUMPDEST SUB PUSH3 0x1F63 JUMPI PUSH1 0x40 MLOAD PUSH32 0x8C379A000000000000000000000000000000000000000000000000000000000 DUP2 MSTORE PUSH1 0x4 ADD PUSH3 0x1F5A SWAP1 PUSH3 0x40FA JUMP JUMPDEST PUSH1 0x40 MLOAD DUP1 SWAP2 SUB SWAP1 REVERT JUMPDEST PUSH1 0x8 PUSH1 0x1 SWAP1 SLOAD SWAP1 PUSH2 0x100 EXP SWAP1 DIV PUSH1 0xFF AND PUSH3 0x1FB5 JUMPI PUSH1 0x40 MLOAD PUSH32 0x8C379A000000000000000000000000000000000000000000000000000000000 DUP2 MSTORE PUSH1 0x4 ADD PUSH3 0x1FAC SWAP1 PUSH3 0x4192 JUMP JUMPDEST PUSH1 0x40 MLOAD DUP1 SWAP2 SUB SWAP1 REVERT JUMPDEST PUSH1 0x0 PUSH2 0x3E8 PUSH1 0x5 PUSH1 0x0 SWAP1 SLOAD SWAP1 PUSH2 0x100 EXP SWAP1 DIV PUSH20 0xFFFFFFFFFFFFFFFFFFFFFFFFFFFFFFFFFFFFFFFF AND PUSH20 0xFFFFFFFFFFFFFFFFFFFFFFFFFFFFFFFFFFFFFFFF AND PUSH4 0x18160DDD PUSH1 0x40 MLOAD DUP2 PUSH4 0xFFFFFFFF AND PUSH1 0xE0 SHL DUP2 MSTORE PUSH1 0x4 ADD PUSH1 0x20 PUSH1 0x40 MLOAD DUP1 DUP4 SUB DUP2 DUP7 GAS STATICCALL ISZERO DUP1 ISZERO PUSH3 0x2028 JUMPI RETURNDATASIZE PUSH1 0x0 DUP1 RETURNDATACOPY RETURNDATASIZE PUSH1 0x0 REVERT JUMPDEST POP POP POP POP PUSH1 0x40 MLOAD RETURNDATASIZE PUSH1 0x1F NOT PUSH1 0x1F DUP3 ADD AND DUP3 ADD DUP1 PUSH1 0x40 MSTORE POP DUP2 ADD SWAP1 PUSH3 0x204E SWAP2 SWAP1 PUSH3 0x3201 JUMP JUMPDEST PUSH1 0xE SLOAD PUSH3 0x205D SWAP2 SWAP1 PUSH3 0x3331 JUMP JUMPDEST PUSH3 0x2069 SWAP2 SWAP1 PUSH3 0x33C1 JUMP JUMPDEST SWAP1 POP PUSH1 0x0 PUSH4 0x1E13380 DUP3 PUSH3 0x207F SWAP2 SWAP1 PUSH3 0x33C1 JUMP JUMPDEST SWAP1 POP PUSH1 0x0 PUSH1 0xA SLOAD TIMESTAMP PUSH3 0x2093 SWAP2 SWAP1 PUSH3 0x41B4 JUMP JUMPDEST SWAP1 POP PUSH1 0x0 DUP3 DUP3 PUSH3 0x20A5 SWAP2 SWAP1 PUSH3 0x3331 JUMP JUMPDEST SWAP1 POP TIMESTAMP PUSH1 0xA DUP2 SWAP1 SSTORE POP PUSH1 0x5 PUSH1 0x0 SWAP1 SLOAD SWAP1 PUSH2 0x100 EXP SWAP1 DIV PUSH20 0xFFFFFFFFFFFFFFFFFFFFFFFFFFFFFFFFFFFFFFFF AND PUSH20 0xFFFFFFFFFFFFFFFFFFFFFFFFFFFFFFFFFFFFFFFF AND PUSH4 0x41CD705A PUSH1 0x6 PUSH1 0x0 SWAP1 SLOAD SWAP1 PUSH2 0x100 EXP SWAP1 DIV PUSH20 0xFFFFFFFFFFFFFFFFFFFFFFFFFFFFFFFFFFFFFFFF AND DUP4 PUSH1 0x40 MLOAD DUP4 PUSH4 0xFFFFFFFF AND PUSH1 0xE0 SHL DUP2 MSTORE PUSH1 0x4 ADD PUSH3 0x212F SWAP3 SWAP2 SWAP1 PUSH3 0x3B5A JUMP JUMPDEST PUSH1 0x0 PUSH1 0x40 MLOAD DUP1 DUP4 SUB DUP2 PUSH1 0x0 DUP8 DUP1 EXTCODESIZE ISZERO DUP1 ISZERO PUSH3 0x214A JUMPI PUSH1 0x0 DUP1 REVERT JUMPDEST POP GAS CALL ISZERO DUP1 ISZERO PUSH3 0x215F JUMPI RETURNDATASIZE PUSH1 0x0 DUP1 RETURNDATACOPY RETURNDATASIZE PUSH1 0x0 REVERT JUMPDEST POP POP POP POP POP POP POP POP PUSH1 0x0 PUSH1 0x8 PUSH1 0x2 PUSH2 0x100 EXP DUP2 SLOAD DUP2 PUSH1 0xFF MUL NOT AND SWAP1 DUP4 ISZERO ISZERO MUL OR SWAP1 SSTORE POP JUMP JUMPDEST PUSH1 0x0 PUSH1 0x7 PUSH1 0x0 CALLER PUSH20 0xFFFFFFFFFFFFFFFFFFFFFFFFFFFFFFFFFFFFFFFF AND PUSH20 0xFFFFFFFFFFFFFFFFFFFFFFFFFFFFFFFFFFFFFFFF AND DUP2 MSTORE PUSH1 0x20 ADD SWAP1 DUP2 MSTORE PUSH1 0x20 ADD PUSH1 0x0 KECCAK256 PUSH1 0x0 SWAP1 SLOAD SWAP1 PUSH2 0x100 EXP SWAP1 DIV PUSH1 0xFF AND PUSH3 0x2215 JUMPI PUSH1 0x40 MLOAD PUSH32 0x8C379A000000000000000000000000000000000000000000000000000000000 DUP2 MSTORE PUSH1 0x4 ADD PUSH3 0x220C SWAP1 PUSH3 0x3C29 JUMP JUMPDEST PUSH1 0x40 MLOAD DUP1 SWAP2 SUB SWAP1 REVERT JUMPDEST PUSH1 0x8 PUSH1 0x2 SWAP1 SLOAD SWAP1 PUSH2 0x100 EXP SWAP1 DIV PUSH1 0xFF AND ISZERO PUSH3 0x2268 JUMPI PUSH1 0x40 MLOAD PUSH32 0x8C379A000000000000000000000000000000000000000000000000000000000 DUP2 MSTORE PUSH1 0x4 ADD PUSH3 0x225F SWAP1 PUSH3 0x3449 JUMP JUMPDEST PUSH1 0x40 MLOAD DUP1 SWAP2 SUB SWAP1 REVERT JUMPDEST PUSH1 0x1 PUSH1 0x8 PUSH1 0x2 PUSH2 0x100 EXP DUP2 SLOAD DUP2 PUSH1 0xFF MUL NOT AND SWAP1 DUP4 ISZERO ISZERO MUL OR SWAP1 SSTORE POP PUSH3 0x228F DUP4 DUP4 PUSH3 0x26C2 JUMP JUMPDEST SWAP1 POP PUSH1 0x0 PUSH1 0x8 PUSH1 0x2 PUSH2 0x100 EXP DUP2 SLOAD DUP2 PUSH1 0xFF MUL NOT AND SWAP1 DUP4 ISZERO ISZERO MUL OR SWAP1 SSTORE POP SWAP3 SWAP2 POP POP JUMP JUMPDEST PUSH1 0xE SLOAD DUP2 JUMP JUMPDEST PUSH1 0x6 PUSH1 0x0 SWAP1 SLOAD SWAP1 PUSH2 0x100 EXP SWAP1 DIV PUSH20 0xFFFFFFFFFFFFFFFFFFFFFFFFFFFFFFFFFFFFFFFF AND DUP2 JUMP JUMPDEST PUSH32 0x0 DUP2 JUMP JUMPDEST PUSH1 0x8 PUSH1 0x0 SWAP1 SLOAD SWAP1 PUSH2 0x100 EXP SWAP1 DIV PUSH1 0xFF AND ISZERO PUSH3 0x2355 JUMPI PUSH1 0x40 MLOAD PUSH32 0x8C379A000000000000000000000000000000000000000000000000000000000 DUP2 MSTORE PUSH1 0x4 ADD PUSH3 0x234C SWAP1 PUSH3 0x4265 JUMP JUMPDEST PUSH1 0x40 MLOAD DUP1 SWAP2 SUB SWAP1 REVERT JUMPDEST PUSH1 0x8 PUSH1 0x0 SWAP1 SLOAD SWAP1 PUSH2 0x100 EXP SWAP1 DIV PUSH1 0xFF AND ISZERO PUSH1 0x8 PUSH1 0x0 PUSH2 0x100 EXP DUP2 SLOAD DUP2 PUSH1 0xFF MUL NOT AND SWAP1 DUP4 ISZERO ISZERO MUL OR SWAP1 SSTORE POP CALLER PUSH1 0x0 DUP1 PUSH2 0x100 EXP DUP2 SLOAD DUP2 PUSH20 0xFFFFFFFFFFFFFFFFFFFFFFFFFFFFFFFFFFFFFFFF MUL NOT AND SWAP1 DUP4 PUSH20 0xFFFFFFFFFFFFFFFFFFFFFFFFFFFFFFFFFFFFFFFF AND MUL OR SWAP1 SSTORE POP DUP1 PUSH1 0x9 SWAP1 DUP2 PUSH3 0x23D0 SWAP2 SWAP1 PUSH3 0x443A JUMP JUMPDEST POP PUSH1 0x0 PUSH1 0x40 MLOAD PUSH1 0x24 ADD PUSH1 0x40 MLOAD PUSH1 0x20 DUP2 DUP4 SUB SUB DUP2 MSTORE SWAP1 PUSH1 0x40 MSTORE PUSH32 0x8129FC1C00000000000000000000000000000000000000000000000000000000 PUSH28 0xFFFFFFFFFFFFFFFFFFFFFFFFFFFFFFFFFFFFFFFFFFFFFFFFFFFFFFFF NOT AND PUSH1 0x20 DUP3 ADD DUP1 MLOAD PUSH28 0xFFFFFFFFFFFFFFFFFFFFFFFFFFFFFFFFFFFFFFFFFFFFFFFFFFFFFFFF DUP4 DUP2 DUP4 AND OR DUP4 MSTORE POP POP POP POP SWAP1 POP PUSH3 0x2484 PUSH32 0x0 DUP3 PUSH3 0x2622 JUMP JUMPDEST PUSH1 0x1 PUSH1 0x0 PUSH2 0x100 EXP DUP2 SLOAD DUP2 PUSH20 0xFFFFFFFFFFFFFFFFFFFFFFFFFFFFFFFFFFFFFFFF MUL NOT AND SWAP1 DUP4 PUSH20 0xFFFFFFFFFFFFFFFFFFFFFFFFFFFFFFFFFFFFFFFF AND MUL OR SWAP1 SSTORE POP PUSH3 0x24F3 PUSH1 0x1 PUSH1 0x0 SWAP1 SLOAD SWAP1 PUSH2 0x100 EXP SWAP1 DIV PUSH20 0xFFFFFFFFFFFFFFFFFFFFFFFFFFFFFFFFFFFFFFFF AND PUSH1 0x1 PUSH3 0x2667 JUMP JUMPDEST PUSH3 0x2500 ADDRESS PUSH1 0x1 PUSH3 0x2667 JUMP JUMPDEST DUP3 PUSH1 0x6 PUSH1 0x0 PUSH2 0x100 EXP DUP2 SLOAD DUP2 PUSH20 0xFFFFFFFFFFFFFFFFFFFFFFFFFFFFFFFFFFFFFFFF MUL NOT AND SWAP1 DUP4 PUSH20 0xFFFFFFFFFFFFFFFFFFFFFFFFFFFFFFFFFFFFFFFF AND MUL OR SWAP1 SSTORE POP PUSH32 0xDC90FED0326BA91706DEEAC7EB34AC9F8B680734F9D782864DC29704D23BED6A PUSH1 0x6 PUSH1 0x0 SWAP1 SLOAD SWAP1 PUSH2 0x100 EXP SWAP1 DIV PUSH20 0xFFFFFFFFFFFFFFFFFFFFFFFFFFFFFFFFFFFFFFFF AND PUSH1 0x1 PUSH1 0x0 SWAP1 SLOAD SWAP1 PUSH2 0x100 EXP SWAP1 DIV PUSH20 0xFFFFFFFFFFFFFFFFFFFFFFFFFFFFFFFFFFFFFFFF AND PUSH1 0x40 MLOAD PUSH3 0x25B8 SWAP3 SWAP2 SWAP1 PUSH3 0x4521 JUMP JUMPDEST PUSH1 0x40 MLOAD DUP1 SWAP2 SUB SWAP1 LOG1 POP POP POP JUMP JUMPDEST PUSH32 0x0 DUP2 JUMP JUMPDEST PUSH1 0x1 PUSH1 0x0 SWAP1 SLOAD SWAP1 PUSH2 0x100 EXP SWAP1 DIV PUSH20 0xFFFFFFFFFFFFFFFFFFFFFFFFFFFFFFFFFFFFFFFF AND DUP2 JUMP JUMPDEST PUSH1 0x8 PUSH1 0x1 SWAP1 SLOAD SWAP1 PUSH2 0x100 EXP SWAP1 DIV PUSH1 0xFF AND DUP2 JUMP JUMPDEST PUSH1 0x0 DUP3 DUP3 PUSH1 0x40 MLOAD PUSH3 0x2634 SWAP1 PUSH3 0x29A1 JUMP JUMPDEST PUSH3 0x2641 SWAP3 SWAP2 SWAP1 PUSH3 0x45A0 JUMP JUMPDEST PUSH1 0x40 MLOAD DUP1 SWAP2 SUB SWAP1 PUSH1 0x0 CREATE DUP1 ISZERO DUP1 ISZERO PUSH3 0x265E JUMPI RETURNDATASIZE PUSH1 0x0 DUP1 RETURNDATACOPY RETURNDATASIZE PUSH1 0x0 REVERT JUMPDEST POP SWAP1 POP SWAP3 SWAP2 POP POP JUMP JUMPDEST DUP1 PUSH1 0x7 PUSH1 0x0 DUP5 PUSH20 0xFFFFFFFFFFFFFFFFFFFFFFFFFFFFFFFFFFFFFFFF AND PUSH20 0xFFFFFFFFFFFFFFFFFFFFFFFFFFFFFFFFFFFFFFFF AND DUP2 MSTORE PUSH1 0x20 ADD SWAP1 DUP2 MSTORE PUSH1 0x20 ADD PUSH1 0x0 KECCAK256 PUSH1 0x0 PUSH2 0x100 EXP DUP2 SLOAD DUP2 PUSH1 0xFF MUL NOT AND SWAP1 DUP4 ISZERO ISZERO MUL OR SWAP1 SSTORE POP POP POP JUMP JUMPDEST PUSH1 0x0 DUP3 PUSH1 0xD PUSH1 0x0 DUP3 DUP3 SLOAD PUSH3 0x26D8 SWAP2 SWAP1 PUSH3 0x32D4 JUMP JUMPDEST SWAP3 POP POP DUP2 SWAP1 SSTORE POP PUSH1 0x0 PUSH2 0x2710 PUSH1 0x64 DUP6 PUSH3 0x26F3 SWAP2 SWAP1 PUSH3 0x3331 JUMP JUMPDEST PUSH3 0x26FF SWAP2 SWAP1 PUSH3 0x33C1 JUMP JUMPDEST SWAP1 POP PUSH1 0x0 PUSH2 0x2710 PUSH1 0xB SLOAD DUP7 PUSH3 0x2716 SWAP2 SWAP1 PUSH3 0x3331 JUMP JUMPDEST PUSH3 0x2722 SWAP2 SWAP1 PUSH3 0x33C1 JUMP JUMPDEST SWAP1 POP PUSH1 0x0 DUP2 DUP4 DUP8 PUSH3 0x2735 SWAP2 SWAP1 PUSH3 0x41B4 JUMP JUMPDEST PUSH3 0x2741 SWAP2 SWAP1 PUSH3 0x41B4 JUMP JUMPDEST SWAP1 POP DUP2 PUSH1 0xC PUSH1 0x0 DUP3 DUP3 SLOAD PUSH3 0x2757 SWAP2 SWAP1 PUSH3 0x32D4 JUMP JUMPDEST SWAP3 POP POP DUP2 SWAP1 SSTORE POP PUSH1 0x0 DUP1 PUSH1 0x0 SWAP1 SLOAD SWAP1 PUSH2 0x100 EXP SWAP1 DIV PUSH20 0xFFFFFFFFFFFFFFFFFFFFFFFFFFFFFFFFFFFFFFFF AND PUSH20 0xFFFFFFFFFFFFFFFFFFFFFFFFFFFFFFFFFFFFFFFF AND PUSH4 0xE06174E4 PUSH1 0x40 MLOAD DUP2 PUSH4 0xFFFFFFFF AND PUSH1 0xE0 SHL DUP2 MSTORE PUSH1 0x4 ADD PUSH1 0x20 PUSH1 0x40 MLOAD DUP1 DUP4 SUB DUP2 DUP7 GAS STATICCALL ISZERO DUP1 ISZERO PUSH3 0x27CD JUMPI RETURNDATASIZE PUSH1 0x0 DUP1 RETURNDATACOPY RETURNDATASIZE PUSH1 0x0 REVERT JUMPDEST POP POP POP POP PUSH1 0x40 MLOAD RETURNDATASIZE PUSH1 0x1F NOT PUSH1 0x1F DUP3 ADD AND DUP3 ADD DUP1 PUSH1 0x40 MSTORE POP DUP2 ADD SWAP1 PUSH3 0x27F3 SWAP2 SWAP1 PUSH3 0x45EB JUMP JUMPDEST SWAP1 POP PUSH1 0x0 DUP2 PUSH20 0xFFFFFFFFFFFFFFFFFFFFFFFFFFFFFFFFFFFFFFFF AND PUSH4 0xB3F00674 PUSH1 0x40 MLOAD DUP2 PUSH4 0xFFFFFFFF AND PUSH1 0xE0 SHL DUP2 MSTORE PUSH1 0x4 ADD PUSH1 0x20 PUSH1 0x40 MLOAD DUP1 DUP4 SUB DUP2 PUSH1 0x0 DUP8 GAS CALL ISZERO DUP1 ISZERO PUSH3 0x2845 JUMPI RETURNDATASIZE PUSH1 0x0 DUP1 RETURNDATACOPY RETURNDATASIZE PUSH1 0x0 REVERT JUMPDEST POP POP POP POP PUSH1 0x40 MLOAD RETURNDATASIZE PUSH1 0x1F NOT PUSH1 0x1F DUP3 ADD AND DUP3 ADD DUP1 PUSH1 0x40 MSTORE POP DUP2 ADD SWAP1 PUSH3 0x286B SWAP2 SWAP1 PUSH3 0x464E JUMP JUMPDEST SWAP1 POP PUSH1 0x5 PUSH1 0x0 SWAP1 SLOAD SWAP1 PUSH2 0x100 EXP SWAP1 DIV PUSH20 0xFFFFFFFFFFFFFFFFFFFFFFFFFFFFFFFFFFFFFFFF AND PUSH20 0xFFFFFFFFFFFFFFFFFFFFFFFFFFFFFFFFFFFFFFFF AND PUSH4 0x41CD705A DUP3 DUP8 PUSH1 0x40 MLOAD DUP4 PUSH4 0xFFFFFFFF AND PUSH1 0xE0 SHL DUP2 MSTORE PUSH1 0x4 ADD PUSH3 0x28CC SWAP3 SWAP2 SWAP1 PUSH3 0x3B5A JUMP JUMPDEST PUSH1 0x0 PUSH1 0x40 MLOAD DUP1 DUP4 SUB DUP2 PUSH1 0x0 DUP8 DUP1 EXTCODESIZE ISZERO DUP1 ISZERO PUSH3 0x28E7 JUMPI PUSH1 0x0 DUP1 REVERT JUMPDEST POP GAS CALL ISZERO DUP1 ISZERO PUSH3 0x28FC JUMPI RETURNDATASIZE PUSH1 0x0 DUP1 RETURNDATACOPY RETURNDATASIZE PUSH1 0x0 REVERT JUMPDEST POP POP POP POP PUSH1 0x5 PUSH1 0x0 SWAP1 SLOAD SWAP1 PUSH2 0x100 EXP SWAP1 DIV PUSH20 0xFFFFFFFFFFFFFFFFFFFFFFFFFFFFFFFFFFFFFFFF AND PUSH20 0xFFFFFFFFFFFFFFFFFFFFFFFFFFFFFFFFFFFFFFFF AND PUSH4 0x41CD705A DUP9 DUP6 PUSH1 0x40 MLOAD DUP4 PUSH4 0xFFFFFFFF AND PUSH1 0xE0 SHL DUP2 MSTORE PUSH1 0x4 ADD PUSH3 0x295F SWAP3 SWAP2 SWAP1 PUSH3 0x3B5A JUMP JUMPDEST PUSH1 0x0 PUSH1 0x40 MLOAD DUP1 DUP4 SUB DUP2 PUSH1 0x0 DUP8 DUP1 EXTCODESIZE ISZERO DUP1 ISZERO PUSH3 0x297A JUMPI PUSH1 0x0 DUP1 REVERT JUMPDEST POP GAS CALL ISZERO DUP1 ISZERO PUSH3 0x298F JUMPI RETURNDATASIZE PUSH1 0x0 DUP1 RETURNDATACOPY RETURNDATASIZE PUSH1 0x0 REVERT JUMPDEST POP POP POP POP DUP4 SWAP6 POP POP POP POP POP POP SWAP3 SWAP2 POP POP JUMP JUMPDEST PUSH2 0x64C DUP1 PUSH3 0x4681 DUP4 CODECOPY ADD SWAP1 JUMP JUMPDEST PUSH1 0x0 DUP2 SWAP1 POP SWAP2 SWAP1 POP JUMP JUMPDEST PUSH3 0x29C4 DUP2 PUSH3 0x29AF JUMP JUMPDEST DUP3 MSTORE POP POP JUMP JUMPDEST PUSH1 0x0 PUSH1 0x20 DUP3 ADD SWAP1 POP PUSH3 0x29E1 PUSH1 0x0 DUP4 ADD DUP5 PUSH3 0x29B9 JUMP JUMPDEST SWAP3 SWAP2 POP POP JUMP JUMPDEST PUSH1 0x0 PUSH20 0xFFFFFFFFFFFFFFFFFFFFFFFFFFFFFFFFFFFFFFFF DUP3 AND SWAP1 POP SWAP2 SWAP1 POP JUMP JUMPDEST PUSH1 0x0 PUSH3 0x2A14 DUP3 PUSH3 0x29E7 JUMP JUMPDEST SWAP1 POP SWAP2 SWAP1 POP JUMP JUMPDEST PUSH3 0x2A26 DUP2 PUSH3 0x2A07 JUMP JUMPDEST DUP3 MSTORE POP POP JUMP JUMPDEST PUSH1 0x0 PUSH1 0x20 DUP3 ADD SWAP1 POP PUSH3 0x2A43 PUSH1 0x0 DUP4 ADD DUP5 PUSH3 0x2A1B JUMP JUMPDEST SWAP3 SWAP2 POP POP JUMP JUMPDEST PUSH1 0x0 DUP2 MLOAD SWAP1 POP SWAP2 SWAP1 POP JUMP JUMPDEST PUSH1 0x0 DUP3 DUP3 MSTORE PUSH1 0x20 DUP3 ADD SWAP1 POP SWAP3 SWAP2 POP POP JUMP JUMPDEST PUSH1 0x0 JUMPDEST DUP4 DUP2 LT ISZERO PUSH3 0x2A85 JUMPI DUP1 DUP3 ADD MLOAD DUP2 DUP5 ADD MSTORE PUSH1 0x20 DUP2 ADD SWAP1 POP PUSH3 0x2A68 JUMP JUMPDEST DUP4 DUP2 GT ISZERO PUSH3 0x2A95 JUMPI PUSH1 0x0 DUP5 DUP5 ADD MSTORE JUMPDEST POP POP POP POP JUMP JUMPDEST PUSH1 0x0 PUSH1 0x1F NOT PUSH1 0x1F DUP4 ADD AND SWAP1 POP SWAP2 SWAP1 POP JUMP JUMPDEST PUSH1 0x0 PUSH3 0x2AB9 DUP3 PUSH3 0x2A49 JUMP JUMPDEST PUSH3 0x2AC5 DUP2 DUP6 PUSH3 0x2A54 JUMP JUMPDEST SWAP4 POP PUSH3 0x2AD7 DUP2 DUP6 PUSH1 0x20 DUP7 ADD PUSH3 0x2A65 JUMP JUMPDEST PUSH3 0x2AE2 DUP2 PUSH3 0x2A9B JUMP JUMPDEST DUP5 ADD SWAP2 POP POP SWAP3 SWAP2 POP POP JUMP JUMPDEST PUSH1 0x0 PUSH1 0x20 DUP3 ADD SWAP1 POP DUP2 DUP2 SUB PUSH1 0x0 DUP4 ADD MSTORE PUSH3 0x2B09 DUP2 DUP5 PUSH3 0x2AAC JUMP JUMPDEST SWAP1 POP SWAP3 SWAP2 POP POP JUMP JUMPDEST PUSH1 0x0 PUSH1 0x40 MLOAD SWAP1 POP SWAP1 JUMP JUMPDEST PUSH1 0x0 DUP1 REVERT JUMPDEST PUSH1 0x0 DUP1 REVERT JUMPDEST PUSH3 0x2B30 DUP2 PUSH3 0x2A07 JUMP JUMPDEST DUP2 EQ PUSH3 0x2B3C JUMPI PUSH1 0x0 DUP1 REVERT JUMPDEST POP JUMP JUMPDEST PUSH1 0x0 DUP2 CALLDATALOAD SWAP1 POP PUSH3 0x2B50 DUP2 PUSH3 0x2B25 JUMP JUMPDEST SWAP3 SWAP2 POP POP JUMP JUMPDEST PUSH1 0x0 PUSH1 0x20 DUP3 DUP5 SUB SLT ISZERO PUSH3 0x2B6F JUMPI PUSH3 0x2B6E PUSH3 0x2B1B JUMP JUMPDEST JUMPDEST PUSH1 0x0 PUSH3 0x2B7F DUP5 DUP3 DUP6 ADD PUSH3 0x2B3F JUMP JUMPDEST SWAP2 POP POP SWAP3 SWAP2 POP POP JUMP JUMPDEST PUSH1 0x0 DUP2 ISZERO ISZERO SWAP1 POP SWAP2 SWAP1 POP JUMP JUMPDEST PUSH3 0x2B9F DUP2 PUSH3 0x2B88 JUMP JUMPDEST DUP3 MSTORE POP POP JUMP JUMPDEST PUSH1 0x0 PUSH1 0x20 DUP3 ADD SWAP1 POP PUSH3 0x2BBC PUSH1 0x0 DUP4 ADD DUP5 PUSH3 0x2B94 JUMP JUMPDEST SWAP3 SWAP2 POP POP JUMP JUMPDEST PUSH3 0x2BCD DUP2 PUSH3 0x29AF JUMP JUMPDEST DUP2 EQ PUSH3 0x2BD9 JUMPI PUSH1 0x0 DUP1 REVERT JUMPDEST POP JUMP JUMPDEST PUSH1 0x0 DUP2 CALLDATALOAD SWAP1 POP PUSH3 0x2BED DUP2 PUSH3 0x2BC2 JUMP JUMPDEST SWAP3 SWAP2 POP POP JUMP JUMPDEST PUSH1 0x0 DUP1 REVERT JUMPDEST PUSH1 0x0 DUP1 REVERT JUMPDEST PUSH32 0x4E487B7100000000000000000000000000000000000000000000000000000000 PUSH1 0x0 MSTORE PUSH1 0x41 PUSH1 0x4 MSTORE PUSH1 0x24 PUSH1 0x0 REVERT JUMPDEST PUSH3 0x2C37 DUP3 PUSH3 0x2A9B JUMP JUMPDEST DUP2 ADD DUP2 DUP2 LT PUSH8 0xFFFFFFFFFFFFFFFF DUP3 GT OR ISZERO PUSH3 0x2C59 JUMPI PUSH3 0x2C58 PUSH3 0x2BFD JUMP JUMPDEST JUMPDEST DUP1 PUSH1 0x40 MSTORE POP POP POP JUMP JUMPDEST PUSH1 0x0 PUSH3 0x2C6E PUSH3 0x2B11 JUMP JUMPDEST SWAP1 POP PUSH3 0x2C7C DUP3 DUP3 PUSH3 0x2C2C JUMP JUMPDEST SWAP2 SWAP1 POP JUMP JUMPDEST PUSH1 0x0 PUSH8 0xFFFFFFFFFFFFFFFF DUP3 GT ISZERO PUSH3 0x2C9F JUMPI PUSH3 0x2C9E PUSH3 0x2BFD JUMP JUMPDEST JUMPDEST PUSH3 0x2CAA DUP3 PUSH3 0x2A9B JUMP JUMPDEST SWAP1 POP PUSH1 0x20 DUP2 ADD SWAP1 POP SWAP2 SWAP1 POP JUMP JUMPDEST DUP3 DUP2 DUP4 CALLDATACOPY PUSH1 0x0 DUP4 DUP4 ADD MSTORE POP POP POP JUMP JUMPDEST PUSH1 0x0 PUSH3 0x2CDD PUSH3 0x2CD7 DUP5 PUSH3 0x2C81 JUMP JUMPDEST PUSH3 0x2C62 JUMP JUMPDEST SWAP1 POP DUP3 DUP2 MSTORE PUSH1 0x20 DUP2 ADD DUP5 DUP5 DUP5 ADD GT ISZERO PUSH3 0x2CFC JUMPI PUSH3 0x2CFB PUSH3 0x2BF8 JUMP JUMPDEST JUMPDEST PUSH3 0x2D09 DUP5 DUP3 DUP6 PUSH3 0x2CB7 JUMP JUMPDEST POP SWAP4 SWAP3 POP POP POP JUMP JUMPDEST PUSH1 0x0 DUP3 PUSH1 0x1F DUP4 ADD SLT PUSH3 0x2D29 JUMPI PUSH3 0x2D28 PUSH3 0x2BF3 JUMP JUMPDEST JUMPDEST DUP2 CALLDATALOAD PUSH3 0x2D3B DUP5 DUP3 PUSH1 0x20 DUP7 ADD PUSH3 0x2CC6 JUMP JUMPDEST SWAP2 POP POP SWAP3 SWAP2 POP POP JUMP JUMPDEST PUSH1 0x0 DUP1 PUSH1 0x0 DUP1 PUSH1 0x0 DUP1 PUSH1 0xC0 DUP8 DUP10 SUB SLT ISZERO PUSH3 0x2D64 JUMPI PUSH3 0x2D63 PUSH3 0x2B1B JUMP JUMPDEST JUMPDEST PUSH1 0x0 PUSH3 0x2D74 DUP10 DUP3 DUP11 ADD PUSH3 0x2BDC JUMP JUMPDEST SWAP7 POP POP PUSH1 0x20 DUP8 ADD CALLDATALOAD PUSH8 0xFFFFFFFFFFFFFFFF DUP2 GT ISZERO PUSH3 0x2D98 JUMPI PUSH3 0x2D97 PUSH3 0x2B20 JUMP JUMPDEST JUMPDEST PUSH3 0x2DA6 DUP10 DUP3 DUP11 ADD PUSH3 0x2D11 JUMP JUMPDEST SWAP6 POP POP PUSH1 0x40 PUSH3 0x2DB9 DUP10 DUP3 DUP11 ADD PUSH3 0x2BDC JUMP JUMPDEST SWAP5 POP POP PUSH1 0x60 PUSH3 0x2DCC DUP10 DUP3 DUP11 ADD PUSH3 0x2BDC JUMP JUMPDEST SWAP4 POP POP PUSH1 0x80 PUSH3 0x2DDF DUP10 DUP3 DUP11 ADD PUSH3 0x2BDC JUMP JUMPDEST SWAP3 POP POP PUSH1 0xA0 PUSH3 0x2DF2 DUP10 DUP3 DUP11 ADD PUSH3 0x2BDC JUMP JUMPDEST SWAP2 POP POP SWAP3 SWAP6 POP SWAP3 SWAP6 POP SWAP3 SWAP6 JUMP JUMPDEST PUSH1 0x0 PUSH2 0xFFFF DUP3 AND SWAP1 POP SWAP2 SWAP1 POP JUMP JUMPDEST PUSH3 0x2E18 DUP2 PUSH3 0x2DFF JUMP JUMPDEST DUP3 MSTORE POP POP JUMP JUMPDEST PUSH1 0x0 PUSH1 0x20 DUP3 ADD SWAP1 POP PUSH3 0x2E35 PUSH1 0x0 DUP4 ADD DUP5 PUSH3 0x2E0D JUMP JUMPDEST SWAP3 SWAP2 POP POP JUMP JUMPDEST PUSH1 0x0 PUSH1 0x40 DUP3 ADD SWAP1 POP DUP2 DUP2 SUB PUSH1 0x0 DUP4 ADD MSTORE PUSH3 0x2E57 DUP2 DUP6 PUSH3 0x2AAC JUMP JUMPDEST SWAP1 POP PUSH3 0x2E68 PUSH1 0x20 DUP4 ADD DUP5 PUSH3 0x2E0D JUMP JUMPDEST SWAP4 SWAP3 POP POP POP JUMP JUMPDEST PUSH1 0x0 PUSH8 0xFFFFFFFFFFFFFFFF DUP3 GT ISZERO PUSH3 0x2E8D JUMPI PUSH3 0x2E8C PUSH3 0x2BFD JUMP JUMPDEST JUMPDEST PUSH1 0x20 DUP3 MUL SWAP1 POP PUSH1 0x20 DUP2 ADD SWAP1 POP SWAP2 SWAP1 POP JUMP JUMPDEST PUSH1 0x0 DUP1 REVERT JUMPDEST PUSH1 0x0 PUSH3 0x2EBA PUSH3 0x2EB4 DUP5 PUSH3 0x2E6F JUMP JUMPDEST PUSH3 0x2C62 JUMP JUMPDEST SWAP1 POP DUP1 DUP4 DUP3 MSTORE PUSH1 0x20 DUP3 ADD SWAP1 POP PUSH1 0x20 DUP5 MUL DUP4 ADD DUP6 DUP2 GT ISZERO PUSH3 0x2EE0 JUMPI PUSH3 0x2EDF PUSH3 0x2E9E JUMP JUMPDEST JUMPDEST DUP4 JUMPDEST DUP2 DUP2 LT ISZERO PUSH3 0x2F0D JUMPI DUP1 PUSH3 0x2EF8 DUP9 DUP3 PUSH3 0x2B3F JUMP JUMPDEST DUP5 MSTORE PUSH1 0x20 DUP5 ADD SWAP4 POP POP PUSH1 0x20 DUP2 ADD SWAP1 POP PUSH3 0x2EE2 JUMP JUMPDEST POP POP POP SWAP4 SWAP3 POP POP POP JUMP JUMPDEST PUSH1 0x0 DUP3 PUSH1 0x1F DUP4 ADD SLT PUSH3 0x2F2F JUMPI PUSH3 0x2F2E PUSH3 0x2BF3 JUMP JUMPDEST JUMPDEST DUP2 CALLDATALOAD PUSH3 0x2F41 DUP5 DUP3 PUSH1 0x20 DUP7 ADD PUSH3 0x2EA3 JUMP JUMPDEST SWAP2 POP POP SWAP3 SWAP2 POP POP JUMP JUMPDEST PUSH1 0x0 PUSH8 0xFFFFFFFFFFFFFFFF DUP3 GT ISZERO PUSH3 0x2F68 JUMPI PUSH3 0x2F67 PUSH3 0x2BFD JUMP JUMPDEST JUMPDEST PUSH1 0x20 DUP3 MUL SWAP1 POP PUSH1 0x20 DUP2 ADD SWAP1 POP SWAP2 SWAP1 POP JUMP JUMPDEST PUSH1 0x0 PUSH3 0x2F90 PUSH3 0x2F8A DUP5 PUSH3 0x2F4A JUMP JUMPDEST PUSH3 0x2C62 JUMP JUMPDEST SWAP1 POP DUP1 DUP4 DUP3 MSTORE PUSH1 0x20 DUP3 ADD SWAP1 POP PUSH1 0x20 DUP5 MUL DUP4 ADD DUP6 DUP2 GT ISZERO PUSH3 0x2FB6 JUMPI PUSH3 0x2FB5 PUSH3 0x2E9E JUMP JUMPDEST JUMPDEST DUP4 JUMPDEST DUP2 DUP2 LT ISZERO PUSH3 0x2FE3 JUMPI DUP1 PUSH3 0x2FCE DUP9 DUP3 PUSH3 0x2BDC JUMP JUMPDEST DUP5 MSTORE PUSH1 0x20 DUP5 ADD SWAP4 POP POP PUSH1 0x20 DUP2 ADD SWAP1 POP PUSH3 0x2FB8 JUMP JUMPDEST POP POP POP SWAP4 SWAP3 POP POP POP JUMP JUMPDEST PUSH1 0x0 DUP3 PUSH1 0x1F DUP4 ADD SLT PUSH3 0x3005 JUMPI PUSH3 0x3004 PUSH3 0x2BF3 JUMP JUMPDEST JUMPDEST DUP2 CALLDATALOAD PUSH3 0x3017 DUP5 DUP3 PUSH1 0x20 DUP7 ADD PUSH3 0x2F79 JUMP JUMPDEST SWAP2 POP POP SWAP3 SWAP2 POP POP JUMP JUMPDEST PUSH1 0x0 DUP1 PUSH1 0x0 PUSH1 0x60 DUP5 DUP7 SUB SLT ISZERO PUSH3 0x303C JUMPI PUSH3 0x303B PUSH3 0x2B1B JUMP JUMPDEST JUMPDEST PUSH1 0x0 DUP5 ADD CALLDATALOAD PUSH8 0xFFFFFFFFFFFFFFFF DUP2 GT ISZERO PUSH3 0x305D JUMPI PUSH3 0x305C PUSH3 0x2B20 JUMP JUMPDEST JUMPDEST PUSH3 0x306B DUP7 DUP3 DUP8 ADD PUSH3 0x2F17 JUMP JUMPDEST SWAP4 POP POP PUSH1 0x20 DUP5 ADD CALLDATALOAD PUSH8 0xFFFFFFFFFFFFFFFF DUP2 GT ISZERO PUSH3 0x308F JUMPI PUSH3 0x308E PUSH3 0x2B20 JUMP JUMPDEST JUMPDEST PUSH3 0x309D DUP7 DUP3 DUP8 ADD PUSH3 0x2FED JUMP JUMPDEST SWAP3 POP POP PUSH1 0x40 DUP5 ADD CALLDATALOAD PUSH8 0xFFFFFFFFFFFFFFFF DUP2 GT ISZERO PUSH3 0x30C1 JUMPI PUSH3 0x30C0 PUSH3 0x2B20 JUMP JUMPDEST JUMPDEST PUSH3 0x30CF DUP7 DUP3 DUP8 ADD PUSH3 0x2FED JUMP JUMPDEST SWAP2 POP POP SWAP3 POP SWAP3 POP SWAP3 JUMP JUMPDEST PUSH1 0x0 DUP1 PUSH1 0x40 DUP4 DUP6 SUB SLT ISZERO PUSH3 0x30F3 JUMPI PUSH3 0x30F2 PUSH3 0x2B1B JUMP JUMPDEST JUMPDEST PUSH1 0x0 PUSH3 0x3103 DUP6 DUP3 DUP7 ADD PUSH3 0x2BDC JUMP JUMPDEST SWAP3 POP POP PUSH1 0x20 PUSH3 0x3116 DUP6 DUP3 DUP7 ADD PUSH3 0x2B3F JUMP JUMPDEST SWAP2 POP POP SWAP3 POP SWAP3 SWAP1 POP JUMP JUMPDEST PUSH1 0x0 DUP1 PUSH1 0x40 DUP4 DUP6 SUB SLT ISZERO PUSH3 0x313A JUMPI PUSH3 0x3139 PUSH3 0x2B1B JUMP JUMPDEST JUMPDEST PUSH1 0x0 PUSH3 0x314A DUP6 DUP3 DUP7 ADD PUSH3 0x2B3F JUMP JUMPDEST SWAP3 POP POP PUSH1 0x20 DUP4 ADD CALLDATALOAD PUSH8 0xFFFFFFFFFFFFFFFF DUP2 GT ISZERO PUSH3 0x316E JUMPI PUSH3 0x316D PUSH3 0x2B20 JUMP JUMPDEST JUMPDEST PUSH3 0x317C DUP6 DUP3 DUP7 ADD PUSH3 0x2D11 JUMP JUMPDEST SWAP2 POP POP SWAP3 POP SWAP3 SWAP1 POP JUMP JUMPDEST PUSH32 0x4E487B7100000000000000000000000000000000000000000000000000000000 PUSH1 0x0 MSTORE PUSH1 0x22 PUSH1 0x4 MSTORE PUSH1 0x24 PUSH1 0x0 REVERT JUMPDEST PUSH1 0x0 PUSH1 0x2 DUP3 DIV SWAP1 POP PUSH1 0x1 DUP3 AND DUP1 PUSH3 0x31CE JUMPI PUSH1 0x7F DUP3 AND SWAP2 POP JUMPDEST PUSH1 0x20 DUP3 LT DUP2 SUB PUSH3 0x31E4 JUMPI PUSH3 0x31E3 PUSH3 0x3186 JUMP JUMPDEST JUMPDEST POP SWAP2 SWAP1 POP JUMP JUMPDEST PUSH1 0x0 DUP2 MLOAD SWAP1 POP PUSH3 0x31FB DUP2 PUSH3 0x2BC2 JUMP JUMPDEST SWAP3 SWAP2 POP POP JUMP JUMPDEST PUSH1 0x0 PUSH1 0x20 DUP3 DUP5 SUB SLT ISZERO PUSH3 0x321A JUMPI PUSH3 0x3219 PUSH3 0x2B1B JUMP JUMPDEST JUMPDEST PUSH1 0x0 PUSH3 0x322A DUP5 DUP3 DUP6 ADD PUSH3 0x31EA JUMP JUMPDEST SWAP2 POP POP SWAP3 SWAP2 POP POP JUMP JUMPDEST PUSH32 0x636173683A6E6F20746F6B656E7320746F2063617368206F7574000000000000 PUSH1 0x0 DUP3 ADD MSTORE POP JUMP JUMPDEST PUSH1 0x0 PUSH3 0x326B PUSH1 0x1A DUP4 PUSH3 0x2A54 JUMP JUMPDEST SWAP2 POP PUSH3 0x3278 DUP3 PUSH3 0x3233 JUMP JUMPDEST PUSH1 0x20 DUP3 ADD SWAP1 POP SWAP2 SWAP1 POP JUMP JUMPDEST PUSH1 0x0 PUSH1 0x20 DUP3 ADD SWAP1 POP DUP2 DUP2 SUB PUSH1 0x0 DUP4 ADD MSTORE PUSH3 0x329E DUP2 PUSH3 0x325C JUMP JUMPDEST SWAP1 POP SWAP2 SWAP1 POP JUMP JUMPDEST PUSH32 0x4E487B7100000000000000000000000000000000000000000000000000000000 PUSH1 0x0 MSTORE PUSH1 0x11 PUSH1 0x4 MSTORE PUSH1 0x24 PUSH1 0x0 REVERT JUMPDEST PUSH1 0x0 PUSH3 0x32E1 DUP3 PUSH3 0x29AF JUMP JUMPDEST SWAP2 POP PUSH3 0x32EE DUP4 PUSH3 0x29AF JUMP JUMPDEST SWAP3 POP DUP3 PUSH32 0xFFFFFFFFFFFFFFFFFFFFFFFFFFFFFFFFFFFFFFFFFFFFFFFFFFFFFFFFFFFFFFFF SUB DUP3 GT ISZERO PUSH3 0x3326 JUMPI PUSH3 0x3325 PUSH3 0x32A5 JUMP JUMPDEST JUMPDEST DUP3 DUP3 ADD SWAP1 POP SWAP3 SWAP2 POP POP JUMP JUMPDEST PUSH1 0x0 PUSH3 0x333E DUP3 PUSH3 0x29AF JUMP JUMPDEST SWAP2 POP PUSH3 0x334B DUP4 PUSH3 0x29AF JUMP JUMPDEST SWAP3 POP DUP2 PUSH32 0xFFFFFFFFFFFFFFFFFFFFFFFFFFFFFFFFFFFFFFFFFFFFFFFFFFFFFFFFFFFFFFFF DIV DUP4 GT DUP3 ISZERO ISZERO AND ISZERO PUSH3 0x3387 JUMPI PUSH3 0x3386 PUSH3 0x32A5 JUMP JUMPDEST JUMPDEST DUP3 DUP3 MUL SWAP1 POP SWAP3 SWAP2 POP POP JUMP JUMPDEST PUSH32 0x4E487B7100000000000000000000000000000000000000000000000000000000 PUSH1 0x0 MSTORE PUSH1 0x12 PUSH1 0x4 MSTORE PUSH1 0x24 PUSH1 0x0 REVERT JUMPDEST PUSH1 0x0 PUSH3 0x33CE DUP3 PUSH3 0x29AF JUMP JUMPDEST SWAP2 POP PUSH3 0x33DB DUP4 PUSH3 0x29AF JUMP JUMPDEST SWAP3 POP DUP3 PUSH3 0x33EE JUMPI PUSH3 0x33ED PUSH3 0x3392 JUMP JUMPDEST JUMPDEST DUP3 DUP3 DIV SWAP1 POP SWAP3 SWAP2 POP POP JUMP JUMPDEST PUSH32 0x7265656E747279203A3A20496C6C6567616C207265656E7472616E7400000000 PUSH1 0x0 DUP3 ADD MSTORE POP JUMP JUMPDEST PUSH1 0x0 PUSH3 0x3431 PUSH1 0x1C DUP4 PUSH3 0x2A54 JUMP JUMPDEST SWAP2 POP PUSH3 0x343E DUP3 PUSH3 0x33F9 JUMP JUMPDEST PUSH1 0x20 DUP3 ADD SWAP1 POP SWAP2 SWAP1 POP JUMP JUMPDEST PUSH1 0x0 PUSH1 0x20 DUP3 ADD SWAP1 POP DUP2 DUP2 SUB PUSH1 0x0 DUP4 ADD MSTORE PUSH3 0x3464 DUP2 PUSH3 0x3422 JUMP JUMPDEST SWAP1 POP SWAP2 SWAP1 POP JUMP JUMPDEST PUSH1 0x0 PUSH3 0x3482 PUSH3 0x347C DUP5 PUSH3 0x2F4A JUMP JUMPDEST PUSH3 0x2C62 JUMP JUMPDEST SWAP1 POP DUP1 DUP4 DUP3 MSTORE PUSH1 0x20 DUP3 ADD SWAP1 POP PUSH1 0x20 DUP5 MUL DUP4 ADD DUP6 DUP2 GT ISZERO PUSH3 0x34A8 JUMPI PUSH3 0x34A7 PUSH3 0x2E9E JUMP JUMPDEST JUMPDEST DUP4 JUMPDEST DUP2 DUP2 LT ISZERO PUSH3 0x34D5 JUMPI DUP1 PUSH3 0x34C0 DUP9 DUP3 PUSH3 0x31EA JUMP JUMPDEST DUP5 MSTORE PUSH1 0x20 DUP5 ADD SWAP4 POP POP PUSH1 0x20 DUP2 ADD SWAP1 POP PUSH3 0x34AA JUMP JUMPDEST POP POP POP SWAP4 SWAP3 POP POP POP JUMP JUMPDEST PUSH1 0x0 DUP3 PUSH1 0x1F DUP4 ADD SLT PUSH3 0x34F7 JUMPI PUSH3 0x34F6 PUSH3 0x2BF3 JUMP JUMPDEST JUMPDEST DUP2 MLOAD PUSH3 0x3509 DUP5 DUP3 PUSH1 0x20 DUP7 ADD PUSH3 0x346B JUMP JUMPDEST SWAP2 POP POP SWAP3 SWAP2 POP POP JUMP JUMPDEST PUSH1 0x0 PUSH1 0x20 DUP3 DUP5 SUB SLT ISZERO PUSH3 0x352B JUMPI PUSH3 0x352A PUSH3 0x2B1B JUMP JUMPDEST JUMPDEST PUSH1 0x0 DUP3 ADD MLOAD PUSH8 0xFFFFFFFFFFFFFFFF DUP2 GT ISZERO PUSH3 0x354C JUMPI PUSH3 0x354B PUSH3 0x2B20 JUMP JUMPDEST JUMPDEST PUSH3 0x355A DUP5 DUP3 DUP6 ADD PUSH3 0x34DF JUMP JUMPDEST SWAP2 POP POP SWAP3 SWAP2 POP POP JUMP JUMPDEST PUSH32 0x6973737565203A3A204974277320616E20656D707479207661756C7400000000 PUSH1 0x0 DUP3 ADD MSTORE POP JUMP JUMPDEST PUSH1 0x0 PUSH3 0x359B PUSH1 0x1C DUP4 PUSH3 0x2A54 JUMP JUMPDEST SWAP2 POP PUSH3 0x35A8 DUP3 PUSH3 0x3563 JUMP JUMPDEST PUSH1 0x20 DUP3 ADD SWAP1 POP SWAP2 SWAP1 POP JUMP JUMPDEST PUSH1 0x0 PUSH1 0x20 DUP3 ADD SWAP1 POP DUP2 DUP2 SUB PUSH1 0x0 DUP4 ADD MSTORE PUSH3 0x35CE DUP2 PUSH3 0x358C JUMP JUMPDEST SWAP1 POP SWAP2 SWAP1 POP JUMP JUMPDEST PUSH32 0x6973737565203A3A204F6E6C792063757261746F722063616E20697373756520 PUSH1 0x0 DUP3 ADD MSTORE PUSH32 0x74686520746F6B656E7300000000000000000000000000000000000000000000 PUSH1 0x20 DUP3 ADD MSTORE POP JUMP JUMPDEST PUSH1 0x0 PUSH3 0x3633 PUSH1 0x2A DUP4 PUSH3 0x2A54 JUMP JUMPDEST SWAP2 POP PUSH3 0x3640 DUP3 PUSH3 0x35D5 JUMP JUMPDEST PUSH1 0x40 DUP3 ADD SWAP1 POP SWAP2 SWAP1 POP JUMP JUMPDEST PUSH1 0x0 PUSH1 0x20 DUP3 ADD SWAP1 POP DUP2 DUP2 SUB PUSH1 0x0 DUP4 ADD MSTORE PUSH3 0x3666 DUP2 PUSH3 0x3624 JUMP JUMPDEST SWAP1 POP SWAP2 SWAP1 POP JUMP JUMPDEST PUSH32 0x6973737565203A3A20546F6B656E20697320616C726561647920616374697665 PUSH1 0x0 DUP3 ADD MSTORE POP JUMP JUMPDEST PUSH1 0x0 PUSH3 0x36A5 PUSH1 0x20 DUP4 PUSH3 0x2A54 JUMP JUMPDEST SWAP2 POP PUSH3 0x36B2 DUP3 PUSH3 0x366D JUMP JUMPDEST PUSH1 0x20 DUP3 ADD SWAP1 POP SWAP2 SWAP1 POP JUMP JUMPDEST PUSH1 0x0 PUSH1 0x20 DUP3 ADD SWAP1 POP DUP2 DUP2 SUB PUSH1 0x0 DUP4 ADD MSTORE PUSH3 0x36D8 DUP2 PUSH3 0x3696 JUMP JUMPDEST SWAP1 POP SWAP2 SWAP1 POP JUMP JUMPDEST PUSH32 0x6973737565203A3A2054686520737570706C79206D7573742062652067726561 PUSH1 0x0 DUP3 ADD MSTORE PUSH32 0x746572207468616E203130303030000000000000000000000000000000000000 PUSH1 0x20 DUP3 ADD MSTORE POP JUMP JUMPDEST PUSH1 0x0 PUSH3 0x373D PUSH1 0x2E DUP4 PUSH3 0x2A54 JUMP JUMPDEST SWAP2 POP PUSH3 0x374A DUP3 PUSH3 0x36DF JUMP JUMPDEST PUSH1 0x40 DUP3 ADD SWAP1 POP SWAP2 SWAP1 POP JUMP JUMPDEST PUSH1 0x0 PUSH1 0x20 DUP3 ADD SWAP1 POP DUP2 DUP2 SUB PUSH1 0x0 DUP4 ADD MSTORE PUSH3 0x3770 DUP2 PUSH3 0x372E JUMP JUMPDEST SWAP1 POP SWAP2 SWAP1 POP JUMP JUMPDEST PUSH32 0x6973737565203A3A20496E636F7272656374207265736572766520726174696F PUSH1 0x0 DUP3 ADD MSTORE POP JUMP JUMPDEST PUSH1 0x0 PUSH3 0x37AF PUSH1 0x20 DUP4 PUSH3 0x2A54 JUMP JUMPDEST SWAP2 POP PUSH3 0x37BC DUP3 PUSH3 0x3777 JUMP JUMPDEST PUSH1 0x20 DUP3 ADD SWAP1 POP SWAP2 SWAP1 POP JUMP JUMPDEST PUSH1 0x0 PUSH1 0x20 DUP3 ADD SWAP1 POP DUP2 DUP2 SUB PUSH1 0x0 DUP4 ADD MSTORE PUSH3 0x37E2 DUP2 PUSH3 0x37A0 JUMP JUMPDEST SWAP1 POP SWAP2 SWAP1 POP JUMP JUMPDEST PUSH1 0x0 DUP2 SWAP1 POP DUP2 PUSH1 0x0 MSTORE PUSH1 0x20 PUSH1 0x0 KECCAK256 SWAP1 POP SWAP2 SWAP1 POP JUMP JUMPDEST PUSH1 0x0 DUP2 SLOAD PUSH3 0x380D DUP2 PUSH3 0x31B5 JUMP JUMPDEST PUSH3 0x3819 DUP2 DUP7 PUSH3 0x2A54 JUMP JUMPDEST SWAP5 POP PUSH1 0x1 DUP3 AND PUSH1 0x0 DUP2 EQ PUSH3 0x3837 JUMPI PUSH1 0x1 DUP2 EQ PUSH3 0x384E JUMPI PUSH3 0x3885 JUMP JUMPDEST PUSH1 0xFF NOT DUP4 AND DUP7 MSTORE DUP2 ISZERO ISZERO PUSH1 0x20 MUL DUP7 ADD SWAP4 POP PUSH3 0x3885 JUMP JUMPDEST PUSH3 0x3859 DUP6 PUSH3 0x37E9 JUMP JUMPDEST PUSH1 0x0 JUMPDEST DUP4 DUP2 LT ISZERO PUSH3 0x387D JUMPI DUP2 SLOAD DUP2 DUP10 ADD MSTORE PUSH1 0x1 DUP3 ADD SWAP2 POP PUSH1 0x20 DUP2 ADD SWAP1 POP PUSH3 0x385C JUMP JUMPDEST DUP1 DUP9 ADD SWAP6 POP POP POP JUMPDEST POP POP POP SWAP3 SWAP2 POP POP JUMP JUMPDEST PUSH1 0x0 PUSH1 0x40 DUP3 ADD SWAP1 POP DUP2 DUP2 SUB PUSH1 0x0 DUP4 ADD MSTORE PUSH3 0x38AA DUP2 DUP6 PUSH3 0x37FE JUMP JUMPDEST SWAP1 POP DUP2 DUP2 SUB PUSH1 0x20 DUP4 ADD MSTORE PUSH3 0x38C0 DUP2 DUP5 PUSH3 0x2AAC JUMP JUMPDEST SWAP1 POP SWAP4 SWAP3 POP POP POP JUMP JUMPDEST PUSH1 0x0 PUSH1 0x60 DUP3 ADD SWAP1 POP PUSH3 0x38E0 PUSH1 0x0 DUP4 ADD DUP7 PUSH3 0x29B9 JUMP JUMPDEST PUSH3 0x38EF PUSH1 0x20 DUP4 ADD DUP6 PUSH3 0x29B9 JUMP JUMPDEST PUSH3 0x38FE PUSH1 0x40 DUP4 ADD DUP5 PUSH3 0x29B9 JUMP JUMPDEST SWAP5 SWAP4 POP POP POP POP JUMP JUMPDEST PUSH1 0x0 DUP2 SWAP1 POP SWAP2 SWAP1 POP JUMP JUMPDEST PUSH1 0x0 DUP2 SWAP1 POP SWAP2 SWAP1 POP JUMP JUMPDEST PUSH1 0x0 PUSH3 0x393B PUSH3 0x3935 PUSH3 0x392F DUP5 PUSH3 0x3906 JUMP JUMPDEST PUSH3 0x3910 JUMP JUMPDEST PUSH3 0x29AF JUMP JUMPDEST SWAP1 POP SWAP2 SWAP1 POP JUMP JUMPDEST PUSH3 0x394D DUP2 PUSH3 0x391A JUMP JUMPDEST DUP3 MSTORE POP POP JUMP JUMPDEST PUSH1 0x0 PUSH1 0x60 DUP3 ADD SWAP1 POP PUSH3 0x396A PUSH1 0x0 DUP4 ADD DUP7 PUSH3 0x2A1B JUMP JUMPDEST PUSH3 0x3979 PUSH1 0x20 DUP4 ADD DUP6 PUSH3 0x3942 JUMP JUMPDEST PUSH3 0x3988 PUSH1 0x40 DUP4 ADD DUP5 PUSH3 0x29B9 JUMP JUMPDEST SWAP5 SWAP4 POP POP POP POP JUMP JUMPDEST PUSH1 0x0 PUSH2 0x160 DUP3 ADD SWAP1 POP PUSH3 0x39A8 PUSH1 0x0 DUP4 ADD DUP15 PUSH3 0x29B9 JUMP JUMPDEST DUP2 DUP2 SUB PUSH1 0x20 DUP4 ADD MSTORE PUSH3 0x39BC DUP2 DUP14 PUSH3 0x37FE JUMP JUMPDEST SWAP1 POP DUP2 DUP2 SUB PUSH1 0x40 DUP4 ADD MSTORE PUSH3 0x39D2 DUP2 DUP13 PUSH3 0x2AAC JUMP JUMPDEST SWAP1 POP PUSH3 0x39E3 PUSH1 0x60 DUP4 ADD DUP12 PUSH3 0x29B9 JUMP JUMPDEST PUSH3 0x39F2 PUSH1 0x80 DUP4 ADD DUP11 PUSH3 0x29B9 JUMP JUMPDEST PUSH3 0x3A01 PUSH1 0xA0 DUP4 ADD DUP10 PUSH3 0x29B9 JUMP JUMPDEST PUSH3 0x3A10 PUSH1 0xC0 DUP4 ADD DUP9 PUSH3 0x29B9 JUMP JUMPDEST PUSH3 0x3A1F PUSH1 0xE0 DUP4 ADD DUP8 PUSH3 0x2A1B JUMP JUMPDEST PUSH3 0x3A2F PUSH2 0x100 DUP4 ADD DUP7 PUSH3 0x2A1B JUMP JUMPDEST PUSH3 0x3A3F PUSH2 0x120 DUP4 ADD DUP6 PUSH3 0x2A1B JUMP JUMPDEST PUSH3 0x3A4F PUSH2 0x140 DUP4 ADD DUP5 PUSH3 0x2A1B JUMP JUMPDEST SWAP13 SWAP12 POP POP POP POP POP POP POP POP POP POP POP POP JUMP JUMPDEST PUSH32 0x4E487B7100000000000000000000000000000000000000000000000000000000 PUSH1 0x0 MSTORE PUSH1 0x21 PUSH1 0x4 MSTORE PUSH1 0x24 PUSH1 0x0 REVERT JUMPDEST PUSH1 0x3 DUP2 LT PUSH3 0x3A9C JUMPI PUSH1 0x0 DUP1 REVERT JUMPDEST POP JUMP JUMPDEST PUSH1 0x0 DUP2 MLOAD SWAP1 POP PUSH3 0x3AB0 DUP2 PUSH3 0x3A8E JUMP JUMPDEST SWAP3 SWAP2 POP POP JUMP JUMPDEST PUSH1 0x0 PUSH1 0x20 DUP3 DUP5 SUB SLT ISZERO PUSH3 0x3ACF JUMPI PUSH3 0x3ACE PUSH3 0x2B1B JUMP JUMPDEST JUMPDEST PUSH1 0x0 PUSH3 0x3ADF DUP5 DUP3 DUP6 ADD PUSH3 0x3A9F JUMP JUMPDEST SWAP2 POP POP SWAP3 SWAP2 POP POP JUMP JUMPDEST PUSH32 0x656E64203A3A20546865207661756C74206973207374696C6C206F70656E0000 PUSH1 0x0 DUP3 ADD MSTORE POP JUMP JUMPDEST PUSH1 0x0 PUSH3 0x3B20 PUSH1 0x1E DUP4 PUSH3 0x2A54 JUMP JUMPDEST SWAP2 POP PUSH3 0x3B2D DUP3 PUSH3 0x3AE8 JUMP JUMPDEST PUSH1 0x20 DUP3 ADD SWAP1 POP SWAP2 SWAP1 POP JUMP JUMPDEST PUSH1 0x0 PUSH1 0x20 DUP3 ADD SWAP1 POP DUP2 DUP2 SUB PUSH1 0x0 DUP4 ADD MSTORE PUSH3 0x3B53 DUP2 PUSH3 0x3B11 JUMP JUMPDEST SWAP1 POP SWAP2 SWAP1 POP JUMP JUMPDEST PUSH1 0x0 PUSH1 0x40 DUP3 ADD SWAP1 POP PUSH3 0x3B71 PUSH1 0x0 DUP4 ADD DUP6 PUSH3 0x2A1B JUMP JUMPDEST PUSH3 0x3B80 PUSH1 0x20 DUP4 ADD DUP5 PUSH3 0x29B9 JUMP JUMPDEST SWAP4 SWAP3 POP POP POP JUMP JUMPDEST PUSH1 0x0 PUSH3 0x3B94 DUP3 PUSH3 0x29E7 JUMP JUMPDEST SWAP1 POP SWAP2 SWAP1 POP JUMP JUMPDEST PUSH3 0x3BA6 DUP2 PUSH3 0x3B87 JUMP JUMPDEST DUP3 MSTORE POP POP JUMP JUMPDEST PUSH1 0x0 PUSH1 0x40 DUP3 ADD SWAP1 POP PUSH3 0x3BC3 PUSH1 0x0 DUP4 ADD DUP6 PUSH3 0x3B9B JUMP JUMPDEST PUSH3 0x3BD2 PUSH1 0x20 DUP4 ADD DUP5 PUSH3 0x29B9 JUMP JUMPDEST SWAP4 SWAP3 POP POP POP JUMP JUMPDEST PUSH32 0x77686974654C697374203A3A204164647265737320636865636B206572726F72 PUSH1 0x0 DUP3 ADD MSTORE POP JUMP JUMPDEST PUSH1 0x0 PUSH3 0x3C11 PUSH1 0x20 DUP4 PUSH3 0x2A54 JUMP JUMPDEST SWAP2 POP PUSH3 0x3C1E DUP3 PUSH3 0x3BD9 JUMP JUMPDEST PUSH1 0x20 DUP3 ADD SWAP1 POP SWAP2 SWAP1 POP JUMP JUMPDEST PUSH1 0x0 PUSH1 0x20 DUP3 ADD SWAP1 POP DUP2 DUP2 SUB PUSH1 0x0 DUP4 ADD MSTORE PUSH3 0x3C44 DUP2 PUSH3 0x3C02 JUMP JUMPDEST SWAP1 POP SWAP2 SWAP1 POP JUMP JUMPDEST PUSH1 0x0 DUP2 MLOAD SWAP1 POP SWAP2 SWAP1 POP JUMP JUMPDEST PUSH1 0x0 DUP2 SWAP1 POP SWAP3 SWAP2 POP POP JUMP JUMPDEST PUSH1 0x0 PUSH3 0x3C6E DUP3 PUSH3 0x3C4B JUMP JUMPDEST PUSH3 0x3C7A DUP2 DUP6 PUSH3 0x3C56 JUMP JUMPDEST SWAP4 POP PUSH3 0x3C8C DUP2 DUP6 PUSH1 0x20 DUP7 ADD PUSH3 0x2A65 JUMP JUMPDEST DUP1 DUP5 ADD SWAP2 POP POP SWAP3 SWAP2 POP POP JUMP JUMPDEST PUSH1 0x0 PUSH3 0x3CA6 DUP3 DUP5 PUSH3 0x3C61 JUMP JUMPDEST SWAP2 POP DUP2 SWAP1 POP SWAP3 SWAP2 POP POP JUMP JUMPDEST PUSH32 0x63757261746F724465706F736974203A3A20546F6B656E20697320616C726561 PUSH1 0x0 DUP3 ADD MSTORE PUSH32 0x6479206163746976650000000000000000000000000000000000000000000000 PUSH1 0x20 DUP3 ADD MSTORE POP JUMP JUMPDEST PUSH1 0x0 PUSH3 0x3D0F PUSH1 0x29 DUP4 PUSH3 0x2A54 JUMP JUMPDEST SWAP2 POP PUSH3 0x3D1C DUP3 PUSH3 0x3CB1 JUMP JUMPDEST PUSH1 0x40 DUP3 ADD SWAP1 POP SWAP2 SWAP1 POP JUMP JUMPDEST PUSH1 0x0 PUSH1 0x20 DUP3 ADD SWAP1 POP DUP2 DUP2 SUB PUSH1 0x0 DUP4 ADD MSTORE PUSH3 0x3D42 DUP2 PUSH3 0x3D00 JUMP JUMPDEST SWAP1 POP SWAP2 SWAP1 POP JUMP JUMPDEST PUSH32 0x63757261746F724465706F736974203A3A204F6E6C792063757261746F722063 PUSH1 0x0 DUP3 ADD MSTORE PUSH32 0x616E206465706F736974204E4654000000000000000000000000000000000000 PUSH1 0x20 DUP3 ADD MSTORE POP JUMP JUMPDEST PUSH1 0x0 PUSH3 0x3DA7 PUSH1 0x2E DUP4 PUSH3 0x2A54 JUMP JUMPDEST SWAP2 POP PUSH3 0x3DB4 DUP3 PUSH3 0x3D49 JUMP JUMPDEST PUSH1 0x40 DUP3 ADD SWAP1 POP SWAP2 SWAP1 POP JUMP JUMPDEST PUSH1 0x0 PUSH1 0x20 DUP3 ADD SWAP1 POP DUP2 DUP2 SUB PUSH1 0x0 DUP4 ADD MSTORE PUSH3 0x3DDA DUP2 PUSH3 0x3D98 JUMP JUMPDEST SWAP1 POP SWAP2 SWAP1 POP JUMP JUMPDEST PUSH1 0x0 DUP2 MLOAD SWAP1 POP SWAP2 SWAP1 POP JUMP JUMPDEST PUSH1 0x0 DUP3 DUP3 MSTORE PUSH1 0x20 DUP3 ADD SWAP1 POP SWAP3 SWAP2 POP POP JUMP JUMPDEST PUSH1 0x0 DUP2 SWAP1 POP PUSH1 0x20 DUP3 ADD SWAP1 POP SWAP2 SWAP1 POP JUMP JUMPDEST PUSH3 0x3E18 DUP2 PUSH3 0x2A07 JUMP JUMPDEST DUP3 MSTORE POP POP JUMP JUMPDEST PUSH1 0x0 PUSH3 0x3E2C DUP4 DUP4 PUSH3 0x3E0D JUMP JUMPDEST PUSH1 0x20 DUP4 ADD SWAP1 POP SWAP3 SWAP2 POP POP JUMP JUMPDEST PUSH1 0x0 PUSH1 0x20 DUP3 ADD SWAP1 POP SWAP2 SWAP1 POP JUMP JUMPDEST PUSH1 0x0 PUSH3 0x3E52 DUP3 PUSH3 0x3DE1 JUMP JUMPDEST PUSH3 0x3E5E DUP2 DUP6 PUSH3 0x3DEC JUMP JUMPDEST SWAP4 POP PUSH3 0x3E6B DUP4 PUSH3 0x3DFD JUMP JUMPDEST DUP1 PUSH1 0x0 JUMPDEST DUP4 DUP2 LT ISZERO PUSH3 0x3EA2 JUMPI DUP2 MLOAD PUSH3 0x3E86 DUP9 DUP3 PUSH3 0x3E1E JUMP JUMPDEST SWAP8 POP PUSH3 0x3E93 DUP4 PUSH3 0x3E38 JUMP JUMPDEST SWAP3 POP POP PUSH1 0x1 DUP2 ADD SWAP1 POP PUSH3 0x3E6F JUMP JUMPDEST POP DUP6 SWAP4 POP POP POP POP SWAP3 SWAP2 POP POP JUMP JUMPDEST PUSH1 0x0 DUP2 MLOAD SWAP1 POP SWAP2 SWAP1 POP JUMP JUMPDEST PUSH1 0x0 DUP3 DUP3 MSTORE PUSH1 0x20 DUP3 ADD SWAP1 POP SWAP3 SWAP2 POP POP JUMP JUMPDEST PUSH1 0x0 DUP2 SWAP1 POP PUSH1 0x20 DUP3 ADD SWAP1 POP SWAP2 SWAP1 POP JUMP JUMPDEST PUSH3 0x3EE6 DUP2 PUSH3 0x29AF JUMP JUMPDEST DUP3 MSTORE POP POP JUMP JUMPDEST PUSH1 0x0 PUSH3 0x3EFA DUP4 DUP4 PUSH3 0x3EDB JUMP JUMPDEST PUSH1 0x20 DUP4 ADD SWAP1 POP SWAP3 SWAP2 POP POP JUMP JUMPDEST PUSH1 0x0 PUSH1 0x20 DUP3 ADD SWAP1 POP SWAP2 SWAP1 POP JUMP JUMPDEST PUSH1 0x0 PUSH3 0x3F20 DUP3 PUSH3 0x3EAF JUMP JUMPDEST PUSH3 0x3F2C DUP2 DUP6 PUSH3 0x3EBA JUMP JUMPDEST SWAP4 POP PUSH3 0x3F39 DUP4 PUSH3 0x3ECB JUMP JUMPDEST DUP1 PUSH1 0x0 JUMPDEST DUP4 DUP2 LT ISZERO PUSH3 0x3F70 JUMPI DUP2 MLOAD PUSH3 0x3F54 DUP9 DUP3 PUSH3 0x3EEC JUMP JUMPDEST SWAP8 POP PUSH3 0x3F61 DUP4 PUSH3 0x3F06 JUMP JUMPDEST SWAP3 POP POP PUSH1 0x1 DUP2 ADD SWAP1 POP PUSH3 0x3F3D JUMP JUMPDEST POP DUP6 SWAP4 POP POP POP POP SWAP3 SWAP2 POP POP JUMP JUMPDEST PUSH1 0x0 DUP2 SWAP1 POP SWAP2 SWAP1 POP JUMP JUMPDEST PUSH1 0x0 PUSH3 0x3FA8 PUSH3 0x3FA2 PUSH3 0x3F9C DUP5 PUSH3 0x3F7D JUMP JUMPDEST PUSH3 0x3910 JUMP JUMPDEST PUSH3 0x29AF JUMP JUMPDEST SWAP1 POP SWAP2 SWAP1 POP JUMP JUMPDEST PUSH3 0x3FBA DUP2 PUSH3 0x3F87 JUMP JUMPDEST DUP3 MSTORE POP POP JUMP JUMPDEST PUSH1 0x0 PUSH1 0xA0 DUP3 ADD SWAP1 POP DUP2 DUP2 SUB PUSH1 0x0 DUP4 ADD MSTORE PUSH3 0x3FDC DUP2 DUP9 PUSH3 0x3E45 JUMP JUMPDEST SWAP1 POP DUP2 DUP2 SUB PUSH1 0x20 DUP4 ADD MSTORE PUSH3 0x3FF2 DUP2 DUP8 PUSH3 0x3F13 JUMP JUMPDEST SWAP1 POP DUP2 DUP2 SUB PUSH1 0x40 DUP4 ADD MSTORE PUSH3 0x4008 DUP2 DUP7 PUSH3 0x3F13 JUMP JUMPDEST SWAP1 POP PUSH3 0x4019 PUSH1 0x60 DUP4 ADD DUP6 PUSH3 0x2A1B JUMP JUMPDEST PUSH3 0x4028 PUSH1 0x80 DUP4 ADD DUP5 PUSH3 0x3FAF JUMP JUMPDEST SWAP7 SWAP6 POP POP POP POP POP POP JUMP JUMPDEST PUSH1 0x0 PUSH1 0x60 DUP3 ADD SWAP1 POP DUP2 DUP2 SUB PUSH1 0x0 DUP4 ADD MSTORE PUSH3 0x404E DUP2 DUP7 PUSH3 0x3E45 JUMP JUMPDEST SWAP1 POP DUP2 DUP2 SUB PUSH1 0x20 DUP4 ADD MSTORE PUSH3 0x4064 DUP2 DUP6 PUSH3 0x3F13 JUMP JUMPDEST SWAP1 POP DUP2 DUP2 SUB PUSH1 0x40 DUP4 ADD MSTORE PUSH3 0x407A DUP2 DUP5 PUSH3 0x3F13 JUMP JUMPDEST SWAP1 POP SWAP5 SWAP4 POP POP POP POP JUMP JUMPDEST PUSH32 0x636C61696D203A3A2063616E6E6F7420636C61696D2061667465722061756374 PUSH1 0x0 DUP3 ADD MSTORE PUSH32 0x696F6E20656E6473000000000000000000000000000000000000000000000000 PUSH1 0x20 DUP3 ADD MSTORE POP JUMP JUMPDEST PUSH1 0x0 PUSH3 0x40E2 PUSH1 0x28 DUP4 PUSH3 0x2A54 JUMP JUMPDEST SWAP2 POP PUSH3 0x40EF DUP3 PUSH3 0x4084 JUMP JUMPDEST PUSH1 0x40 DUP3 ADD SWAP1 POP SWAP2 SWAP1 POP JUMP JUMPDEST PUSH1 0x0 PUSH1 0x20 DUP3 ADD SWAP1 POP DUP2 DUP2 SUB PUSH1 0x0 DUP4 ADD MSTORE PUSH3 0x4115 DUP2 PUSH3 0x40D3 JUMP JUMPDEST SWAP1 POP SWAP2 SWAP1 POP JUMP JUMPDEST PUSH32 0x636C61696D203A3A20546F6B656E206E6F7420616C7265616479206163746976 PUSH1 0x0 DUP3 ADD MSTORE PUSH32 0x6500000000000000000000000000000000000000000000000000000000000000 PUSH1 0x20 DUP3 ADD MSTORE POP JUMP JUMPDEST PUSH1 0x0 PUSH3 0x417A PUSH1 0x21 DUP4 PUSH3 0x2A54 JUMP JUMPDEST SWAP2 POP PUSH3 0x4187 DUP3 PUSH3 0x411C JUMP JUMPDEST PUSH1 0x40 DUP3 ADD SWAP1 POP SWAP2 SWAP1 POP JUMP JUMPDEST PUSH1 0x0 PUSH1 0x20 DUP3 ADD SWAP1 POP DUP2 DUP2 SUB PUSH1 0x0 DUP4 ADD MSTORE PUSH3 0x41AD DUP2 PUSH3 0x416B JUMP JUMPDEST SWAP1 POP SWAP2 SWAP1 POP JUMP JUMPDEST PUSH1 0x0 PUSH3 0x41C1 DUP3 PUSH3 0x29AF JUMP JUMPDEST SWAP2 POP PUSH3 0x41CE DUP4 PUSH3 0x29AF JUMP JUMPDEST SWAP3 POP DUP3 DUP3 LT ISZERO PUSH3 0x41E4 JUMPI PUSH3 0x41E3 PUSH3 0x32A5 JUMP JUMPDEST JUMPDEST DUP3 DUP3 SUB SWAP1 POP SWAP3 SWAP2 POP POP JUMP JUMPDEST PUSH32 0x696E697469616C697A65203A3A20416C726561647920696E697469616C697A65 PUSH1 0x0 DUP3 ADD MSTORE PUSH32 0x6400000000000000000000000000000000000000000000000000000000000000 PUSH1 0x20 DUP3 ADD MSTORE POP JUMP JUMPDEST PUSH1 0x0 PUSH3 0x424D PUSH1 0x21 DUP4 PUSH3 0x2A54 JUMP JUMPDEST SWAP2 POP PUSH3 0x425A DUP3 PUSH3 0x41EF JUMP JUMPDEST PUSH1 0x40 DUP3 ADD SWAP1 POP SWAP2 SWAP1 POP JUMP JUMPDEST PUSH1 0x0 PUSH1 0x20 DUP3 ADD SWAP1 POP DUP2 DUP2 SUB PUSH1 0x0 DUP4 ADD MSTORE PUSH3 0x4280 DUP2 PUSH3 0x423E JUMP JUMPDEST SWAP1 POP SWAP2 SWAP1 POP JUMP JUMPDEST PUSH1 0x0 PUSH1 0x20 PUSH1 0x1F DUP4 ADD DIV SWAP1 POP SWAP2 SWAP1 POP JUMP JUMPDEST PUSH1 0x0 DUP3 DUP3 SHL SWAP1 POP SWAP3 SWAP2 POP POP JUMP JUMPDEST PUSH1 0x0 PUSH1 0x8 DUP4 MUL PUSH3 0x42D6 PUSH32 0xFFFFFFFFFFFFFFFFFFFFFFFFFFFFFFFFFFFFFFFFFFFFFFFFFFFFFFFFFFFFFFFF DUP3 PUSH3 0x4297 JUMP JUMPDEST PUSH3 0x42E2 DUP7 DUP4 PUSH3 0x4297 JUMP JUMPDEST SWAP6 POP DUP1 NOT DUP5 AND SWAP4 POP DUP1 DUP7 AND DUP5 OR SWAP3 POP POP POP SWAP4 SWAP3 POP POP POP JUMP JUMPDEST PUSH1 0x0 PUSH3 0x431B PUSH3 0x4315 PUSH3 0x430F DUP5 PUSH3 0x29AF JUMP JUMPDEST PUSH3 0x3910 JUMP JUMPDEST PUSH3 0x29AF JUMP JUMPDEST SWAP1 POP SWAP2 SWAP1 POP JUMP JUMPDEST PUSH1 0x0 DUP2 SWAP1 POP SWAP2 SWAP1 POP JUMP JUMPDEST PUSH3 0x4337 DUP4 PUSH3 0x42FA JUMP JUMPDEST PUSH3 0x434F PUSH3 0x4346 DUP3 PUSH3 0x4322 JUMP JUMPDEST DUP5 DUP5 SLOAD PUSH3 0x42A4 JUMP JUMPDEST DUP3 SSTORE POP POP POP POP JUMP JUMPDEST PUSH1 0x0 SWAP1 JUMP JUMPDEST PUSH3 0x4366 PUSH3 0x4357 JUMP JUMPDEST PUSH3 0x4373 DUP2 DUP5 DUP5 PUSH3 0x432C JUMP JUMPDEST POP POP POP JUMP JUMPDEST JUMPDEST DUP2 DUP2 LT ISZERO PUSH3 0x439B JUMPI PUSH3 0x438F PUSH1 0x0 DUP3 PUSH3 0x435C JUMP JUMPDEST PUSH1 0x1 DUP2 ADD SWAP1 POP PUSH3 0x4379 JUMP JUMPDEST POP POP JUMP JUMPDEST PUSH1 0x1F DUP3 GT ISZERO PUSH3 0x43EA JUMPI PUSH3 0x43B4 DUP2 PUSH3 0x37E9 JUMP JUMPDEST PUSH3 0x43BF DUP5 PUSH3 0x4287 JUMP JUMPDEST DUP2 ADD PUSH1 0x20 DUP6 LT ISZERO PUSH3 0x43CF JUMPI DUP2 SWAP1 POP JUMPDEST PUSH3 0x43E7 PUSH3 0x43DE DUP6 PUSH3 0x4287 JUMP JUMPDEST DUP4 ADD DUP3 PUSH3 0x4378 JUMP JUMPDEST POP POP JUMPDEST POP POP POP JUMP JUMPDEST PUSH1 0x0 DUP3 DUP3 SHR SWAP1 POP SWAP3 SWAP2 POP POP JUMP JUMPDEST PUSH1 0x0 PUSH3 0x440F PUSH1 0x0 NOT DUP5 PUSH1 0x8 MUL PUSH3 0x43EF JUMP JUMPDEST NOT DUP1 DUP4 AND SWAP2 POP POP SWAP3 SWAP2 POP POP JUMP JUMPDEST PUSH1 0x0 PUSH3 0x442A DUP4 DUP4 PUSH3 0x43FC JUMP JUMPDEST SWAP2 POP DUP3 PUSH1 0x2 MUL DUP3 OR SWAP1 POP SWAP3 SWAP2 POP POP JUMP JUMPDEST PUSH3 0x4445 DUP3 PUSH3 0x2A49 JUMP JUMPDEST PUSH8 0xFFFFFFFFFFFFFFFF DUP2 GT ISZERO PUSH3 0x4461 JUMPI PUSH3 0x4460 PUSH3 0x2BFD JUMP JUMPDEST JUMPDEST PUSH3 0x446D DUP3 SLOAD PUSH3 0x31B5 JUMP JUMPDEST PUSH3 0x447A DUP3 DUP3 DUP6 PUSH3 0x439F JUMP JUMPDEST PUSH1 0x0 PUSH1 0x20 SWAP1 POP PUSH1 0x1F DUP4 GT PUSH1 0x1 DUP2 EQ PUSH3 0x44B2 JUMPI PUSH1 0x0 DUP5 ISZERO PUSH3 0x449D JUMPI DUP3 DUP8 ADD MLOAD SWAP1 POP JUMPDEST PUSH3 0x44A9 DUP6 DUP3 PUSH3 0x441C JUMP JUMPDEST DUP7 SSTORE POP PUSH3 0x4519 JUMP JUMPDEST PUSH1 0x1F NOT DUP5 AND PUSH3 0x44C2 DUP7 PUSH3 0x37E9 JUMP JUMPDEST PUSH1 0x0 JUMPDEST DUP3 DUP2 LT ISZERO PUSH3 0x44EC JUMPI DUP5 DUP10 ADD MLOAD DUP3 SSTORE PUSH1 0x1 DUP3 ADD SWAP2 POP PUSH1 0x20 DUP6 ADD SWAP5 POP PUSH1 0x20 DUP2 ADD SWAP1 POP PUSH3 0x44C5 JUMP JUMPDEST DUP7 DUP4 LT ISZERO PUSH3 0x450C JUMPI DUP5 DUP10 ADD MLOAD PUSH3 0x4508 PUSH1 0x1F DUP10 AND DUP3 PUSH3 0x43FC JUMP JUMPDEST DUP4 SSTORE POP JUMPDEST PUSH1 0x1 PUSH1 0x2 DUP9 MUL ADD DUP9 SSTORE POP POP POP JUMPDEST POP POP POP POP POP POP JUMP JUMPDEST PUSH1 0x0 PUSH1 0x40 DUP3 ADD SWAP1 POP PUSH3 0x4538 PUSH1 0x0 DUP4 ADD DUP6 PUSH3 0x2A1B JUMP JUMPDEST PUSH3 0x4547 PUSH1 0x20 DUP4 ADD DUP5 PUSH3 0x2A1B JUMP JUMPDEST SWAP4 SWAP3 POP POP POP JUMP JUMPDEST PUSH1 0x0 DUP3 DUP3 MSTORE PUSH1 0x20 DUP3 ADD SWAP1 POP SWAP3 SWAP2 POP POP JUMP JUMPDEST PUSH1 0x0 PUSH3 0x456C DUP3 PUSH3 0x3C4B JUMP JUMPDEST PUSH3 0x4578 DUP2 DUP6 PUSH3 0x454E JUMP JUMPDEST SWAP4 POP PUSH3 0x458A DUP2 DUP6 PUSH1 0x20 DUP7 ADD PUSH3 0x2A65 JUMP JUMPDEST PUSH3 0x4595 DUP2 PUSH3 0x2A9B JUMP JUMPDEST DUP5 ADD SWAP2 POP POP SWAP3 SWAP2 POP POP JUMP JUMPDEST PUSH1 0x0 PUSH1 0x40 DUP3 ADD SWAP1 POP PUSH3 0x45B7 PUSH1 0x0 DUP4 ADD DUP6 PUSH3 0x2A1B JUMP JUMPDEST DUP2 DUP2 SUB PUSH1 0x20 DUP4 ADD MSTORE PUSH3 0x45CB DUP2 DUP5 PUSH3 0x455F JUMP JUMPDEST SWAP1 POP SWAP4 SWAP3 POP POP POP JUMP JUMPDEST PUSH1 0x0 DUP2 MLOAD SWAP1 POP PUSH3 0x45E5 DUP2 PUSH3 0x2B25 JUMP JUMPDEST SWAP3 SWAP2 POP POP JUMP JUMPDEST PUSH1 0x0 PUSH1 0x20 DUP3 DUP5 SUB SLT ISZERO PUSH3 0x4604 JUMPI PUSH3 0x4603 PUSH3 0x2B1B JUMP JUMPDEST JUMPDEST PUSH1 0x0 PUSH3 0x4614 DUP5 DUP3 DUP6 ADD PUSH3 0x45D4 JUMP JUMPDEST SWAP2 POP POP SWAP3 SWAP2 POP POP JUMP JUMPDEST PUSH3 0x4628 DUP2 PUSH3 0x3B87 JUMP JUMPDEST DUP2 EQ PUSH3 0x4634 JUMPI PUSH1 0x0 DUP1 REVERT JUMPDEST POP JUMP JUMPDEST PUSH1 0x0 DUP2 MLOAD SWAP1 POP PUSH3 0x4648 DUP2 PUSH3 0x461D JUMP JUMPDEST SWAP3 SWAP2 POP POP JUMP JUMPDEST PUSH1 0x0 PUSH1 0x20 DUP3 DUP5 SUB SLT ISZERO PUSH3 0x4667 JUMPI PUSH3 0x4666 PUSH3 0x2B1B JUMP JUMPDEST JUMPDEST PUSH1 0x0 PUSH3 0x4677 DUP5 DUP3 DUP6 ADD PUSH3 0x4637 JUMP JUMPDEST SWAP2 POP POP SWAP3 SWAP2 POP POP JUMP INVALID PUSH1 0x80 PUSH1 0x40 MSTORE CALLVALUE DUP1 ISZERO PUSH2 0x10 JUMPI PUSH1 0x0 DUP1 REVERT JUMPDEST POP PUSH1 0x40 MLOAD PUSH2 0x64C CODESIZE SUB DUP1 PUSH2 0x64C DUP4 CODECOPY DUP2 DUP2 ADD PUSH1 0x40 MSTORE DUP2 ADD SWAP1 PUSH2 0x32 SWAP2 SWAP1 PUSH2 0x3B9 JUMP JUMPDEST PUSH1 0x0 PUSH20 0xFFFFFFFFFFFFFFFFFFFFFFFFFFFFFFFFFFFFFFFF AND DUP3 PUSH20 0xFFFFFFFFFFFFFFFFFFFFFFFFFFFFFFFFFFFFFFFF AND SUB PUSH2 0xA1 JUMPI PUSH1 0x40 MLOAD PUSH32 0x8C379A000000000000000000000000000000000000000000000000000000000 DUP2 MSTORE PUSH1 0x4 ADD PUSH2 0x98 SWAP1 PUSH2 0x498 JUMP JUMPDEST PUSH1 0x40 MLOAD DUP1 SWAP2 SUB SWAP1 REVERT JUMPDEST DUP2 PUSH2 0xD8 PUSH32 0x5F62CE3C9AEBD463C7A36AB1B244D2BB94F07A2C13889B3B687940EBC467B9B3 PUSH1 0x0 SHL PUSH2 0x1D3 PUSH1 0x20 SHL PUSH2 0x82 OR PUSH1 0x20 SHR JUMP JUMPDEST PUSH1 0x0 ADD PUSH1 0x0 PUSH2 0x100 EXP DUP2 SLOAD DUP2 PUSH20 0xFFFFFFFFFFFFFFFFFFFFFFFFFFFFFFFFFFFFFFFF MUL NOT AND SWAP1 DUP4 PUSH20 0xFFFFFFFFFFFFFFFFFFFFFFFFFFFFFFFFFFFFFFFF AND MUL OR SWAP1 SSTORE POP PUSH1 0x0 DUP1 DUP4 PUSH20 0xFFFFFFFFFFFFFFFFFFFFFFFFFFFFFFFFFFFFFFFF AND DUP4 PUSH1 0x40 MLOAD PUSH2 0x141 SWAP2 SWAP1 PUSH2 0x4FF JUMP JUMPDEST PUSH1 0x0 PUSH1 0x40 MLOAD DUP1 DUP4 SUB DUP2 DUP6 GAS DELEGATECALL SWAP2 POP POP RETURNDATASIZE DUP1 PUSH1 0x0 DUP2 EQ PUSH2 0x17C JUMPI PUSH1 0x40 MLOAD SWAP2 POP PUSH1 0x1F NOT PUSH1 0x3F RETURNDATASIZE ADD AND DUP3 ADD PUSH1 0x40 MSTORE RETURNDATASIZE DUP3 MSTORE RETURNDATASIZE PUSH1 0x0 PUSH1 0x20 DUP5 ADD RETURNDATACOPY PUSH2 0x181 JUMP JUMPDEST PUSH1 0x60 SWAP2 POP JUMPDEST POP SWAP2 POP SWAP2 POP DUP2 DUP2 SWAP1 PUSH2 0x1C9 JUMPI PUSH1 0x40 MLOAD PUSH32 0x8C379A000000000000000000000000000000000000000000000000000000000 DUP2 MSTORE PUSH1 0x4 ADD PUSH2 0x1C0 SWAP2 SWAP1 PUSH2 0x55A JUMP JUMPDEST PUSH1 0x40 MLOAD DUP1 SWAP2 SUB SWAP1 REVERT JUMPDEST POP POP POP POP POP PUSH2 0x57C JUMP JUMPDEST PUSH1 0x0 DUP2 SWAP1 POP SWAP2 SWAP1 POP JUMP JUMPDEST PUSH1 0x0 PUSH1 0x40 MLOAD SWAP1 POP SWAP1 JUMP JUMPDEST PUSH1 0x0 DUP1 REVERT JUMPDEST PUSH1 0x0 DUP1 REVERT JUMPDEST PUSH1 0x0 PUSH20 0xFFFFFFFFFFFFFFFFFFFFFFFFFFFFFFFFFFFFFFFF DUP3 AND SWAP1 POP SWAP2 SWAP1 POP JUMP JUMPDEST PUSH1 0x0 PUSH2 0x21C DUP3 PUSH2 0x1F1 JUMP JUMPDEST SWAP1 POP SWAP2 SWAP1 POP JUMP JUMPDEST PUSH2 0x22C DUP2 PUSH2 0x211 JUMP JUMPDEST DUP2 EQ PUSH2 0x237 JUMPI PUSH1 0x0 DUP1 REVERT JUMPDEST POP JUMP JUMPDEST PUSH1 0x0 DUP2 MLOAD SWAP1 POP PUSH2 0x249 DUP2 PUSH2 0x223 JUMP JUMPDEST SWAP3 SWAP2 POP POP JUMP JUMPDEST PUSH1 0x0 DUP1 REVERT JUMPDEST PUSH1 0x0 DUP1 REVERT JUMPDEST PUSH1 0x0 PUSH1 0x1F NOT PUSH1 0x1F DUP4 ADD AND SWAP1 POP SWAP2 SWAP1 POP JUMP JUMPDEST PUSH32 0x4E487B7100000000000000000000000000000000000000000000000000000000 PUSH1 0x0 MSTORE PUSH1 0x41 PUSH1 0x4 MSTORE PUSH1 0x24 PUSH1 0x0 REVERT JUMPDEST PUSH2 0x2A2 DUP3 PUSH2 0x259 JUMP JUMPDEST DUP2 ADD DUP2 DUP2 LT PUSH8 0xFFFFFFFFFFFFFFFF DUP3 GT OR ISZERO PUSH2 0x2C1 JUMPI PUSH2 0x2C0 PUSH2 0x26A JUMP JUMPDEST JUMPDEST DUP1 PUSH1 0x40 MSTORE POP POP POP JUMP JUMPDEST PUSH1 0x0 PUSH2 0x2D4 PUSH2 0x1DD JUMP JUMPDEST SWAP1 POP PUSH2 0x2E0 DUP3 DUP3 PUSH2 0x299 JUMP JUMPDEST SWAP2 SWAP1 POP JUMP JUMPDEST PUSH1 0x0 PUSH8 0xFFFFFFFFFFFFFFFF DUP3 GT ISZERO PUSH2 0x300 JUMPI PUSH2 0x2FF PUSH2 0x26A JUMP JUMPDEST JUMPDEST PUSH2 0x309 DUP3 PUSH2 0x259 JUMP JUMPDEST SWAP1 POP PUSH1 0x20 DUP2 ADD SWAP1 POP SWAP2 SWAP1 POP JUMP JUMPDEST PUSH1 0x0 JUMPDEST DUP4 DUP2 LT ISZERO PUSH2 0x334 JUMPI DUP1 DUP3 ADD MLOAD DUP2 DUP5 ADD MSTORE PUSH1 0x20 DUP2 ADD SWAP1 POP PUSH2 0x319 JUMP JUMPDEST DUP4 DUP2 GT ISZERO PUSH2 0x343 JUMPI PUSH1 0x0 DUP5 DUP5 ADD MSTORE JUMPDEST POP POP POP POP JUMP JUMPDEST PUSH1 0x0 PUSH2 0x35C PUSH2 0x357 DUP5 PUSH2 0x2E5 JUMP JUMPDEST PUSH2 0x2CA JUMP JUMPDEST SWAP1 POP DUP3 DUP2 MSTORE PUSH1 0x20 DUP2 ADD DUP5 DUP5 DUP5 ADD GT ISZERO PUSH2 0x378 JUMPI PUSH2 0x377 PUSH2 0x254 JUMP JUMPDEST JUMPDEST PUSH2 0x383 DUP5 DUP3 DUP6 PUSH2 0x316 JUMP JUMPDEST POP SWAP4 SWAP3 POP POP POP JUMP JUMPDEST PUSH1 0x0 DUP3 PUSH1 0x1F DUP4 ADD SLT PUSH2 0x3A0 JUMPI PUSH2 0x39F PUSH2 0x24F JUMP JUMPDEST JUMPDEST DUP2 MLOAD PUSH2 0x3B0 DUP5 DUP3 PUSH1 0x20 DUP7 ADD PUSH2 0x349 JUMP JUMPDEST SWAP2 POP POP SWAP3 SWAP2 POP POP JUMP JUMPDEST PUSH1 0x0 DUP1 PUSH1 0x40 DUP4 DUP6 SUB SLT ISZERO PUSH2 0x3D0 JUMPI PUSH2 0x3CF PUSH2 0x1E7 JUMP JUMPDEST JUMPDEST PUSH1 0x0 PUSH2 0x3DE DUP6 DUP3 DUP7 ADD PUSH2 0x23A JUMP JUMPDEST SWAP3 POP POP PUSH1 0x20 DUP4 ADD MLOAD PUSH8 0xFFFFFFFFFFFFFFFF DUP2 GT ISZERO PUSH2 0x3FF JUMPI PUSH2 0x3FE PUSH2 0x1EC JUMP JUMPDEST JUMPDEST PUSH2 0x40B DUP6 DUP3 DUP7 ADD PUSH2 0x38B JUMP JUMPDEST SWAP2 POP POP SWAP3 POP SWAP3 SWAP1 POP JUMP JUMPDEST PUSH1 0x0 DUP3 DUP3 MSTORE PUSH1 0x20 DUP3 ADD SWAP1 POP SWAP3 SWAP2 POP POP JUMP JUMPDEST PUSH32 0x50726F7879203A3A204C6F676963616C20636F6E7472616374732063616E6E6F PUSH1 0x0 DUP3 ADD MSTORE PUSH32 0x74206265207A65726F2061646472657373657300000000000000000000000000 PUSH1 0x20 DUP3 ADD MSTORE POP JUMP JUMPDEST PUSH1 0x0 PUSH2 0x482 PUSH1 0x33 DUP4 PUSH2 0x415 JUMP JUMPDEST SWAP2 POP PUSH2 0x48D DUP3 PUSH2 0x426 JUMP JUMPDEST PUSH1 0x40 DUP3 ADD SWAP1 POP SWAP2 SWAP1 POP JUMP JUMPDEST PUSH1 0x0 PUSH1 0x20 DUP3 ADD SWAP1 POP DUP2 DUP2 SUB PUSH1 0x0 DUP4 ADD MSTORE PUSH2 0x4B1 DUP2 PUSH2 0x475 JUMP JUMPDEST SWAP1 POP SWAP2 SWAP1 POP JUMP JUMPDEST PUSH1 0x0 DUP2 MLOAD SWAP1 POP SWAP2 SWAP1 POP JUMP JUMPDEST PUSH1 0x0 DUP2 SWAP1 POP SWAP3 SWAP2 POP POP JUMP JUMPDEST PUSH1 0x0 PUSH2 0x4D9 DUP3 PUSH2 0x4B8 JUMP JUMPDEST PUSH2 0x4E3 DUP2 DUP6 PUSH2 0x4C3 JUMP JUMPDEST SWAP4 POP PUSH2 0x4F3 DUP2 DUP6 PUSH1 0x20 DUP7 ADD PUSH2 0x316 JUMP JUMPDEST DUP1 DUP5 ADD SWAP2 POP POP SWAP3 SWAP2 POP POP JUMP JUMPDEST PUSH1 0x0 PUSH2 0x50B DUP3 DUP5 PUSH2 0x4CE JUMP JUMPDEST SWAP2 POP DUP2 SWAP1 POP SWAP3 SWAP2 POP POP JUMP JUMPDEST PUSH1 0x0 DUP2 MLOAD SWAP1 POP SWAP2 SWAP1 POP JUMP JUMPDEST PUSH1 0x0 PUSH2 0x52C DUP3 PUSH2 0x516 JUMP JUMPDEST PUSH2 0x536 DUP2 DUP6 PUSH2 0x415 JUMP JUMPDEST SWAP4 POP PUSH2 0x546 DUP2 DUP6 PUSH1 0x20 DUP7 ADD PUSH2 0x316 JUMP JUMPDEST PUSH2 0x54F DUP2 PUSH2 0x259 JUMP JUMPDEST DUP5 ADD SWAP2 POP POP SWAP3 SWAP2 POP POP JUMP JUMPDEST PUSH1 0x0 PUSH1 0x20 DUP3 ADD SWAP1 POP DUP2 DUP2 SUB PUSH1 0x0 DUP4 ADD MSTORE PUSH2 0x574 DUP2 DUP5 PUSH2 0x521 JUMP JUMPDEST SWAP1 POP SWAP3 SWAP2 POP POP JUMP JUMPDEST PUSH1 0xC2 DUP1 PUSH2 0x58A PUSH1 0x0 CODECOPY PUSH1 0x0 RETURN INVALID PUSH1 0x80 PUSH1 0x40 MSTORE CALLDATASIZE PUSH1 0xA JUMPI STOP JUMPDEST PUSH1 0x0 PUSH1 0x36 PUSH32 0x5F62CE3C9AEBD463C7A36AB1B244D2BB94F07A2C13889B3B687940EBC467B9B3 PUSH1 0x0 SHL PUSH1 0x82 JUMP JUMPDEST PUSH1 0x0 ADD PUSH1 0x0 SWAP1 SLOAD SWAP1 PUSH2 0x100 EXP SWAP1 DIV PUSH20 0xFFFFFFFFFFFFFFFFFFFFFFFFFFFFFFFFFFFFFFFF AND SWAP1 POP PUSH1 0x40 MLOAD CALLDATASIZE PUSH1 0x0 DUP3 CALLDATACOPY PUSH1 0x0 DUP1 CALLDATASIZE DUP4 DUP6 GAS DELEGATECALL RETURNDATASIZE DUP1 PUSH1 0x0 DUP5 RETURNDATACOPY DUP2 PUSH1 0x0 DUP2 EQ PUSH1 0x7E JUMPI DUP2 DUP5 RETURN JUMPDEST DUP2 DUP5 REVERT JUMPDEST PUSH1 0x0 DUP2 SWAP1 POP SWAP2 SWAP1 POP JUMP INVALID LOG2 PUSH5 0x6970667358 0x22 SLT KECCAK256 CALLDATALOAD PUSH10 0x5E5DFBA3B804D5DF38B DUP15 0xB5 MSIZE SWAP12 0x4B 0x2F CALL CALLER 0xDD DUP15 XOR STATICCALL LOG0 MSIZE DUP2 SSTORE LOG3 PUSH26 0x516264736F6C634300080F0033A26469706673582212208B8C1E 0xDB 0xB0 PUSH10 0xED648FD9BE32F89E5985 0xDB 0xB4 CALL 0xFB PUSH31 0xF9BC2A8A6F31DBFBB76D0D64736F6C634300080F0033000000000000000000 "
		},
		"gasEstimates": {
			"creation": {
				"codeDepositCost": "3942800",
				"executionCost": "infinite",
				"totalCost": "infinite"
			},
			"external": {
				"VERSION_NAME()": "infinite",
				"VERSION_NUMBER()": "446",
				"auction()": "2603",
				"auctionTemplate()": "infinite",
				"cash()": "infinite",
				"cashAmount()": "infinite",
				"claimFees()": "infinite",
				"curator()": "2603",
				"curatorDeposit(address[],uint256[],uint256[])": "infinite",
				"daoName()": "infinite",
				"division()": "2560",
				"divisionTemplate()": "infinite",
				"factory()": "2556",
				"fee()": "2496",
				"initialize(address,string)": "infinite",
				"initializer()": "2539",
				"issue(uint256,string,uint256,uint256,uint256,uint256)": "infinite",
				"lastClaimed()": "2541",
				"mintToScale(uint256,address)": "infinite",
				"open()": "2631",
				"reserveAmount()": "2475",
				"reserveRatio()": "2520",
				"supply()": "2476",
				"updateRouter(address)": "infinite",
				"vault()": "2602",
				"vaultTemplate()": "infinite",
				"veToken()": "2604",
				"veTokenTemplate()": "infinite",
				"versionInfo()": "infinite",
				"vote()": "2604",
				"voteTemplate()": "infinite",
				"whiteList(address)": "2913"
			},
			"internal": {
				"_mintToScale(uint256,address)": "infinite",
				"createContract(address,bytes memory)": "infinite",
				"setWhiteList(address,bool)": "24376"
			}
		},
		"methodIdentifiers": {
			"VERSION_NAME()": "14442f54",
			"VERSION_NUMBER()": "8025e303",
			"auction()": "7d9f6db5",
			"auctionTemplate()": "f2be7f53",
			"cash()": "961be391",
			"cashAmount()": "4f8c0f6e",
			"claimFees()": "d294f093",
			"curator()": "e66f53b7",
			"curatorDeposit(address[],uint256[],uint256[])": "cd9d3dd8",
			"daoName()": "48976936",
			"division()": "3205f5fc",
			"divisionTemplate()": "f4464e2a",
			"factory()": "c45a0155",
			"fee()": "ddca3f43",
			"initialize(address,string)": "f399e22e",
			"initializer()": "9ce110d7",
			"issue(uint256,string,uint256,uint256,uint256,uint256)": "660d0c4b",
			"lastClaimed()": "adc1b956",
			"mintToScale(uint256,address)": "da1c4845",
			"open()": "fcfff16f",
			"reserveAmount()": "4b09b72a",
			"reserveRatio()": "0c7d5cd8",
			"supply()": "047fc9aa",
			"updateRouter(address)": "c851cc32",
			"vault()": "fbfa77cf",
			"vaultTemplate()": "0b1e4238",
			"veToken()": "3b92eb23",
			"veTokenTemplate()": "6e99d77b",
			"versionInfo()": "a21d1354",
			"vote()": "632a9a52",
			"voteTemplate()": "765d6410",
			"whiteList(address)": "372c12b1"
		}
	},
	"abi": [
		{
			"inputs": [
				{
					"internalType": "address",
					"name": "veTokenTemplate_",
					"type": "address"
				},
				{
					"internalType": "address",
					"name": "vaultTemplate_",
					"type": "address"
				},
				{
					"internalType": "address",
					"name": "auctionTemplate_",
					"type": "address"
				},
				{
					"internalType": "address",
					"name": "voteTemplate_",
					"type": "address"
				},
				{
					"internalType": "address",
					"name": "divisionTemplate_",
					"type": "address"
				}
			],
			"stateMutability": "nonpayable",
			"type": "constructor"
		},
		{
			"anonymous": false,
			"inputs": [
				{
					"indexed": true,
					"internalType": "address",
					"name": "owner",
					"type": "address"
				},
				{
					"indexed": false,
					"internalType": "uint256",
					"name": "shares",
					"type": "uint256"
				}
			],
			"name": "Cash",
			"type": "event"
		},
		{
			"anonymous": false,
			"inputs": [
				{
					"indexed": false,
					"internalType": "address[]",
					"name": "nft",
					"type": "address[]"
				},
				{
					"indexed": false,
					"internalType": "uint256[]",
					"name": "nftId",
					"type": "uint256[]"
				},
				{
					"indexed": false,
					"internalType": "uint256[]",
					"name": "amount",
					"type": "uint256[]"
				}
			],
			"name": "CuratorDeposit",
			"type": "event"
		},
		{
			"anonymous": false,
			"inputs": [
				{
					"indexed": false,
					"internalType": "address",
					"name": "curator",
					"type": "address"
				},
				{
					"indexed": false,
					"internalType": "address",
					"name": "vault",
					"type": "address"
				}
			],
			"name": "Initialize",
			"type": "event"
		},
		{
			"anonymous": false,
			"inputs": [
				{
					"indexed": false,
					"internalType": "uint256",
					"name": "supply",
					"type": "uint256"
				},
				{
					"indexed": false,
					"internalType": "string",
					"name": "name",
					"type": "string"
				},
				{
					"indexed": false,
					"internalType": "string",
					"name": "symbol",
					"type": "string"
				},
				{
					"indexed": false,
					"internalType": "uint256",
					"name": "reserveRatio",
					"type": "uint256"
				},
				{
					"indexed": false,
					"internalType": "uint256",
					"name": "EntireVaultPrice",
					"type": "uint256"
				},
				{
					"indexed": false,
					"internalType": "uint256",
					"name": "depositLength",
					"type": "uint256"
				},
				{
					"indexed": false,
					"internalType": "uint256",
					"name": "rewardLength",
					"type": "uint256"
				},
				{
					"indexed": false,
					"internalType": "address",
					"name": "vetoken",
					"type": "address"
				},
				{
					"indexed": false,
					"internalType": "address",
					"name": "auction",
					"type": "address"
				},
				{
					"indexed": false,
					"internalType": "address",
					"name": "vote",
					"type": "address"
				},
				{
					"indexed": false,
					"internalType": "address",
					"name": "division",
					"type": "address"
				}
			],
			"name": "Issue",
			"type": "event"
		},
		{
			"inputs": [],
			"name": "VERSION_NAME",
			"outputs": [
				{
					"internalType": "string",
					"name": "",
					"type": "string"
				}
			],
			"stateMutability": "view",
			"type": "function"
		},
		{
			"inputs": [],
			"name": "VERSION_NUMBER",
			"outputs": [
				{
					"internalType": "uint16",
					"name": "",
					"type": "uint16"
				}
			],
			"stateMutability": "view",
			"type": "function"
		},
		{
			"inputs": [],
			"name": "auction",
			"outputs": [
				{
					"internalType": "address",
					"name": "",
					"type": "address"
				}
			],
			"stateMutability": "view",
			"type": "function"
		},
		{
			"inputs": [],
			"name": "auctionTemplate",
			"outputs": [
				{
					"internalType": "address",
					"name": "",
					"type": "address"
				}
			],
			"stateMutability": "view",
			"type": "function"
		},
		{
			"inputs": [],
			"name": "cash",
			"outputs": [],
			"stateMutability": "nonpayable",
			"type": "function"
		},
		{
			"inputs": [],
			"name": "cashAmount",
			"outputs": [
				{
					"internalType": "uint256",
					"name": "",
					"type": "uint256"
				}
			],
			"stateMutability": "view",
			"type": "function"
		},
		{
			"inputs": [],
			"name": "claimFees",
			"outputs": [],
			"stateMutability": "nonpayable",
			"type": "function"
		},
		{
			"inputs": [],
			"name": "curator",
			"outputs": [
				{
					"internalType": "address",
					"name": "",
					"type": "address"
				}
			],
			"stateMutability": "view",
			"type": "function"
		},
		{
			"inputs": [
				{
					"internalType": "address[]",
					"name": "nft",
					"type": "address[]"
				},
				{
					"internalType": "uint256[]",
					"name": "nftId",
					"type": "uint256[]"
				},
				{
					"internalType": "uint256[]",
					"name": "amount",
					"type": "uint256[]"
				}
			],
			"name": "curatorDeposit",
			"outputs": [],
			"stateMutability": "nonpayable",
			"type": "function"
		},
		{
			"inputs": [],
			"name": "daoName",
			"outputs": [
				{
					"internalType": "string",
					"name": "",
					"type": "string"
				}
			],
			"stateMutability": "view",
			"type": "function"
		},
		{
			"inputs": [],
			"name": "division",
			"outputs": [
				{
					"internalType": "address",
					"name": "",
					"type": "address"
				}
			],
			"stateMutability": "view",
			"type": "function"
		},
		{
			"inputs": [],
			"name": "divisionTemplate",
			"outputs": [
				{
					"internalType": "address",
					"name": "",
					"type": "address"
				}
			],
			"stateMutability": "view",
			"type": "function"
		},
		{
			"inputs": [],
			"name": "factory",
			"outputs": [
				{
					"internalType": "address",
					"name": "",
					"type": "address"
				}
			],
			"stateMutability": "view",
			"type": "function"
		},
		{
			"inputs": [],
			"name": "fee",
			"outputs": [
				{
					"internalType": "uint256",
					"name": "",
					"type": "uint256"
				}
			],
			"stateMutability": "view",
			"type": "function"
		},
		{
			"inputs": [
				{
					"internalType": "address",
					"name": "curator_",
					"type": "address"
				},
				{
					"internalType": "string",
					"name": "name",
					"type": "string"
				}
			],
			"name": "initialize",
			"outputs": [],
			"stateMutability": "nonpayable",
			"type": "function"
		},
		{
			"inputs": [],
			"name": "initializer",
			"outputs": [
				{
					"internalType": "bool",
					"name": "",
					"type": "bool"
				}
			],
			"stateMutability": "view",
			"type": "function"
		},
		{
			"inputs": [
				{
					"internalType": "uint256",
					"name": "supply_",
					"type": "uint256"
				},
				{
					"internalType": "string",
					"name": "symbol",
					"type": "string"
				},
				{
					"internalType": "uint256",
					"name": "reserveRatio_",
					"type": "uint256"
				},
				{
					"internalType": "uint256",
					"name": "entireVaultPrice",
					"type": "uint256"
				},
				{
					"internalType": "uint256",
					"name": "depositLength",
					"type": "uint256"
				},
				{
					"internalType": "uint256",
					"name": "rewardLength",
					"type": "uint256"
				}
			],
			"name": "issue",
			"outputs": [],
			"stateMutability": "nonpayable",
			"type": "function"
		},
		{
			"inputs": [],
			"name": "lastClaimed",
			"outputs": [
				{
					"internalType": "uint256",
					"name": "",
					"type": "uint256"
				}
			],
			"stateMutability": "view",
			"type": "function"
		},
		{
			"inputs": [
				{
					"internalType": "uint256",
					"name": "supply_",
					"type": "uint256"
				},
				{
					"internalType": "address",
					"name": "mintTo",
					"type": "address"
				}
			],
			"name": "mintToScale",
			"outputs": [
				{
					"internalType": "uint256",
					"name": "",
					"type": "uint256"
				}
			],
			"stateMutability": "nonpayable",
			"type": "function"
		},
		{
			"inputs": [],
			"name": "open",
			"outputs": [
				{
					"internalType": "bool",
					"name": "",
					"type": "bool"
				}
			],
			"stateMutability": "view",
			"type": "function"
		},
		{
			"inputs": [],
			"name": "reserveAmount",
			"outputs": [
				{
					"internalType": "uint256",
					"name": "",
					"type": "uint256"
				}
			],
			"stateMutability": "view",
			"type": "function"
		},
		{
			"inputs": [],
			"name": "reserveRatio",
			"outputs": [
				{
					"internalType": "uint256",
					"name": "",
					"type": "uint256"
				}
			],
			"stateMutability": "view",
			"type": "function"
		},
		{
			"inputs": [],
			"name": "supply",
			"outputs": [
				{
					"internalType": "uint256",
					"name": "",
					"type": "uint256"
				}
			],
			"stateMutability": "view",
			"type": "function"
		},
		{
			"inputs": [
				{
					"internalType": "address",
					"name": "updataTemplate",
					"type": "address"
				}
			],
			"name": "updateRouter",
			"outputs": [],
			"stateMutability": "nonpayable",
			"type": "function"
		},
		{
			"inputs": [],
			"name": "vault",
			"outputs": [
				{
					"internalType": "address",
					"name": "",
					"type": "address"
				}
			],
			"stateMutability": "view",
			"type": "function"
		},
		{
			"inputs": [],
			"name": "vaultTemplate",
			"outputs": [
				{
					"internalType": "address",
					"name": "",
					"type": "address"
				}
			],
			"stateMutability": "view",
			"type": "function"
		},
		{
			"inputs": [],
			"name": "veToken",
			"outputs": [
				{
					"internalType": "address",
					"name": "",
					"type": "address"
				}
			],
			"stateMutability": "view",
			"type": "function"
		},
		{
			"inputs": [],
			"name": "veTokenTemplate",
			"outputs": [
				{
					"internalType": "address",
					"name": "",
					"type": "address"
				}
			],
			"stateMutability": "view",
			"type": "function"
		},
		{
			"inputs": [],
			"name": "versionInfo",
			"outputs": [
				{
					"internalType": "string",
					"name": "",
					"type": "string"
				},
				{
					"internalType": "uint16",
					"name": "",
					"type": "uint16"
				}
			],
			"stateMutability": "pure",
			"type": "function"
		},
		{
			"inputs": [],
			"name": "vote",
			"outputs": [
				{
					"internalType": "address",
					"name": "",
					"type": "address"
				}
			],
			"stateMutability": "view",
			"type": "function"
		},
		{
			"inputs": [],
			"name": "voteTemplate",
			"outputs": [
				{
					"internalType": "address",
					"name": "",
					"type": "address"
				}
			],
			"stateMutability": "view",
			"type": "function"
		},
		{
			"inputs": [
				{
					"internalType": "address",
					"name": "",
					"type": "address"
				}
			],
			"name": "whiteList",
			"outputs": [
				{
					"internalType": "bool",
					"name": "",
					"type": "bool"
				}
			],
			"stateMutability": "view",
			"type": "function"
		}
	]
}