{
	"data": {
		"bytecode": {
			"linkReferences": {},
			"object": "608060405268a2a15d09519be000006004556301e133806005556301e1338060065534801561002d57600080fd5b506153598061003d6000396000f3fe608060405234801561001057600080fd5b50600436106103425760003560e01c80638736659b116101b8578063c4d66de811610104578063eac6a667116100a2578063f4359ce51161007c578063f4359ce514610a7e578063f52a36f714610a9c578063f887ea4014610acc578063fc0c546a14610aea57610342565b8063eac6a667146109ee578063ef5d9ae814610a1e578063f3a6d60814610a4e57610342565b8063cb859db4116100de578063cb859db41461093f578063cbf9fe5f1461096f578063e12e05a7146109a0578063e9d56995146109d057610342565b8063c4d66de8146108d7578063c7f1ec50146108f3578063ca2f8d931461092357610342565b8063981b24d0116101715780639f17f7341161014b5780639f17f7341461082b578063b52c05fe1461085b578063bc22fd1b14610877578063bd85b039146108a757610342565b8063981b24d0146107ad57806398dc8378146107dd5780639ce110d71461080d57610342565b80638736659b146106e95780638b33af35146107075780638c71e5d114610737578063900cf0cf1461076757806395d89b411461078557806397ac2fb6146107a357610342565b806341bf499c11610292578063750142e6116102305780637903f9d31161020a5780637903f9d3146106755780637b7933b4146106935780637c616fe61461069d57806381fc83bb146106b957610342565b8063750142e614610609578063786479cd1461062757806378e979251461065757610342565b80634ee2cd7e1161026c5780634ee2cd7e146105815780634f7461e1146105b1578063547b737c146105bb578063643dafde146105d957610342565b806341bf499c146105035780634deafcae146105335780634e71d92d1461056357610342565b806329b55ca7116102ff57806331a8bbce116102d957806331a8bbce1461046357806334d901a41461049657806335878d88146104c95780633ccfd60b146104f957610342565b806329b55ca71461040b5780632b10eb4f14610427578063313ce5671461044557610342565b8063047fc9aa14610347578063059f8b161461036557806306fdde03146103835780630f6592ef146103a157806315456eba146103d157806318160ddd146103ed575b600080fd5b61034f610b08565b60405161035c9190614cd5565b60405180910390f35b61036d610b0e565b60405161037a9190614cd5565b60405180910390f35b61038b610b1a565b6040516103989190614a1d565b60405180910390f35b6103bb60048036038101906103b69190614147565b610ba8565b6040516103c89190614cd5565b60405180910390f35b6103eb60048036038101906103e69190614147565b610bc0565b005b6103f5610bcd565b6040516104029190614cd5565b60405180910390f35b610425600480360381019061042091906140cf565b610c30565b005b61042f610c40565b60405161043c9190614cd5565b60405180910390f35b61044d610c46565b60405161045a9190614cd5565b60405180910390f35b61047d60048036038101906104789190614147565b610c4c565b60405161048d94939291906149af565b60405180910390f35b6104b060048036038101906104ab9190614093565b610c7c565b6040516104c094939291906149af565b60405180910390f35b6104e360048036038101906104de9190614147565b610cb9565b6040516104f09190614cba565b60405180910390f35b610501610d0e565b005b61051d60048036038101906105189190614093565b611010565b60405161052a9190614cd5565b60405180910390f35b61054d6004803603810190610548919061406a565b611028565b60405161055a9190614cd5565b60405180910390f35b61056b611074565b6040516105789190614cd5565b60405180910390f35b61059b60048036038101906105969190614093565b6113e8565b6040516105a89190614cd5565b60405180910390f35b6105b9611800565b005b6105c3611950565b6040516105d09190614cd5565b60405180910390f35b6105f360048036038101906105ee9190614093565b611956565b6040516106009190614cba565b60405180910390f35b6106116119e9565b60405161061e9190614cd5565b60405180910390f35b610641600480360381019061063c919061406a565b6119ef565b60405161064e9190614cd5565b60405180910390f35b61065f611a07565b60405161066c9190614cd5565b60405180910390f35b61067d611a0d565b60405161068a9190614cd5565b60405180910390f35b61069b611a24565b005b6106b760048036038101906106b29190614147565b611a44565b005b6106d360048036038101906106ce919061406a565b611bf9565b6040516106e09190614cd5565b60405180910390f35b6106f1611c11565b6040516106fe9190614cd5565b60405180910390f35b610721600480360381019061071c9190614093565b611c17565b60405161072e9190614cd5565b60405180910390f35b610751600480360381019061074c919061406a565b611d63565b60405161075e9190614cd5565b60405180910390f35b61076f611dac565b60405161077c9190614cd5565b60405180910390f35b61078d611db2565b60405161079a9190614a1d565b60405180910390f35b6107ab611e40565b005b6107c760048036038101906107c29190614147565b611e42565b6040516107d49190614cd5565b60405180910390f35b6107f760048036038101906107f2919061406a565b612021565b6040516108049190614cd5565b60405180910390f35b610815612166565b6040516108229190614979565b60405180910390f35b6108456004803603810190610840919061406a565b612179565b6040516108529190614cd5565b60405180910390f35b61087560048036038101906108709190614199565b612191565b005b610891600480360381019061088c919061406a565b6121a0565b60405161089e9190614c9f565b60405180910390f35b6108c160048036038101906108bc9190614147565b61220d565b6040516108ce9190614cd5565b60405180910390f35b6108f160048036038101906108ec919061406a565b61227f565b005b61090d6004803603810190610908919061406a565b61246b565b60405161091a9190614cd5565b60405180910390f35b61093d60048036038101906109389190614093565b612483565b005b610959600480360381019061095491906140cf565b612491565b6040516109669190614cd5565b60405180910390f35b6109896004803603810190610984919061406a565b6125a8565b6040516109979291906149f4565b60405180910390f35b6109ba60048036038101906109b5919061406a565b6125cc565b6040516109c79190614cd5565b60405180910390f35b6109d86125e3565b6040516109e59190614cd5565b60405180910390f35b610a086004803603810190610a039190614093565b6125e9565b604051610a159190614cd5565b60405180910390f35b610a386004803603810190610a33919061406a565b612647565b604051610a459190614cd5565b60405180910390f35b610a686004803603810190610a63919061406a565b61265f565b604051610a759190614994565b60405180910390f35b610a86612700565b604051610a939190614cd5565b60405180910390f35b610ab66004803603810190610ab19190614147565b612707565b604051610ac39190614994565b60405180910390f35b610ad461271f565b604051610ae191906148fe565b60405180910390f35b610af2612743565b604051610aff91906148fe565b60405180910390f35b60085481565b670de0b6b3a764000081565b600f8054610b27906151c5565b80601f0160208091040260200160405190810160405280929190818152602001828054610b53906151c5565b8015610ba05780601f10610b7557610100808354040283529160200191610ba0565b820191906000526020600020905b815481529060010190602001808311610b8357829003601f168201915b505050505081565b60146020528060005260406000206000915090505481565b610bca3382612769565b50565b600080600a5490506000600b60008381526020019081526020016000206040518060800160405290816000820154815260200160018201548152602001600282015481526020016003820154815250509050610c2981426128b0565b9250505090565b610c3b8383836129c3565b505050565b60025481565b60115481565b600b6020528060005260406000206000915090508060000154908060010154908060020154908060030154905084565b600c602052816000526040600020602052806000526040600020600091509150508060000154908060010154908060020154908060030154905084565b610cc1613e9f565b600b60008381526020019081526020016000206040518060800160405290816000820154815260200160018201548152602001600282015481526020016003820154815250509050919050565b60006040518060400160405280600960003373ffffffffffffffffffffffffffffffffffffffff1673ffffffffffffffffffffffffffffffffffffffff168152602001908152602001600020600001548152602001600960003373ffffffffffffffffffffffffffffffffffffffff1673ffffffffffffffffffffffffffffffffffffffff1681526020019081526020016000206001015481525090508060200151421015610df2576040517f08c379a0000000000000000000000000000000000000000000000000000000008152600401610de990614c7f565b60405180910390fd5b60008160000151905060006040518060400160405280600960003373ffffffffffffffffffffffffffffffffffffffff1673ffffffffffffffffffffffffffffffffffffffff168152602001908152602001600020600001548152602001600960003373ffffffffffffffffffffffffffffffffffffffff1673ffffffffffffffffffffffffffffffffffffffff1681526020019081526020016000206001015481525090506000836020018181525050600083600001818152505082600960003373ffffffffffffffffffffffffffffffffffffffff1673ffffffffffffffffffffffffffffffffffffffff1681526020019081526020016000206000820151816000015560208201518160010155905050600060085490508281610f18919061510c565b600881905550610f29338386612b72565b610f763384600760009054906101000a900473ffffffffffffffffffffffffffffffffffffffff1673ffffffffffffffffffffffffffffffffffffffff166133159092919063ffffffff16565b3373ffffffffffffffffffffffffffffffffffffffff167ff279e6a1f5e320cca91135676d9cb6e44ca8a08c0b88342bcdb1144f6511b5688442604051610fbe929190614cf0565b60405180910390a27f5e2aa66efd74cce82b21852e317e5490d9ecc9e6bb953ae24d90851258cc2f5c818483610ff4919061510c565b604051611002929190614cf0565b60405180910390a150505050565b600061101c838361339b565b60000151905092915050565b6000600960008373ffffffffffffffffffffffffffffffffffffffff1673ffffffffffffffffffffffffffffffffffffffff168152602001908152602001600020600101549050919050565b600080339050601354421061108c5761108b611800565b5b6000611098824261339b565b90506000816000015190508160200151601660008573ffffffffffffffffffffffffffffffffffffffff1673ffffffffffffffffffffffffffffffffffffffff168152602001908152602001600020819055508160600151601560008573ffffffffffffffffffffffffffffffffffffffff1673ffffffffffffffffffffffffffffffffffffffff16815260200190815260200160002081905550600081146113df576000600760009054906101000a900473ffffffffffffffffffffffffffffffffffffffff1673ffffffffffffffffffffffffffffffffffffffff166370a08231306040518263ffffffff1660e01b815260040161119891906148fe565b60206040518083038186803b1580156111b057600080fd5b505afa1580156111c4573d6000803e3d6000fd5b505050506040513d601f19601f820116820180604052508101906111e89190614170565b90506000811180156111fa5750818110155b156112f257600760009054906101000a900473ffffffffffffffffffffffffffffffffffffffff1673ffffffffffffffffffffffffffffffffffffffff1663a9059cbb85846040518363ffffffff1660e01b815260040161125c929190614950565b602060405180830381600087803b15801561127657600080fd5b505af115801561128a573d6000803e3d6000fd5b505050506040513d601f19601f820116820180604052508101906112ae919061411e565b6112ed576040517f08c379a00000000000000000000000000000000000000000000000000000000081526004016112e490614c1f565b60405180910390fd5b61132d565b6040517f08c379a000000000000000000000000000000000000000000000000000000000815260040161132490614b7f565b60405180910390fd5b81601760008673ffffffffffffffffffffffffffffffffffffffff1673ffffffffffffffffffffffffffffffffffffffff168152602001908152602001600020600082825461137c9190614e16565b925050819055508373ffffffffffffffffffffffffffffffffffffffff167f9cdcf2f7714cca3508c7f0110b04a90a80a3a8dd0e35de99689db74d28c5383e83856020015186604001516040516113d593929190614d19565b60405180910390a2505b80935050505090565b60004382111561142d576040517f08c379a000000000000000000000000000000000000000000000000000000000815260040161142490614bdf565b60405180910390fd5b611435613ec7565b6000816000018181525050600d60008573ffffffffffffffffffffffffffffffffffffffff1673ffffffffffffffffffffffffffffffffffffffff1681526020019081526020016000205481602001818152505060005b6080811161156c5781602001518260000151106114a85761156c565b600060026001846020015185600001516114c29190614e16565b6114cc9190614e16565b6114d69190614ed6565b905084600c60008873ffffffffffffffffffffffffffffffffffffffff1673ffffffffffffffffffffffffffffffffffffffff168152602001908152602001600020600083815260200190815260200160002060030154116115415780836000018181525050611558565b60018161154e919061510c565b8360200181815250505b508080611564906151f7565b91505061148c565b506000600c60008673ffffffffffffffffffffffffffffffffffffffff1673ffffffffffffffffffffffffffffffffffffffff1681526020019081526020016000206000836000015181526020019081526020016000206040518060800160405290816000820154815260200160018201548152602001600282015481526020016003820154815250509050600a548260400181815250506000611614858460400151613831565b90506000600b60008381526020019081526020016000206040518060800160405290816000820154815260200160018201548152602001600282015481526020016003820154815250509050600084606001818152505060008460800181815250508360400151821015611718576000600b60006001856116959190614e16565b81526020019081526020016000206040518060800160405290816000820154815260200160018201548152602001600282015481526020016003820154815250509050816060015181606001516116ec919061510c565b85606001818152505081604001518160400151611709919061510c565b8560800181815250505061174b565b806060015143611728919061510c565b846060018181525050806040015142611741919061510c565b8460800181815250505b600081604001519050600085606001511461179c578460600151826060015188611775919061510c565b8660800151611784919061501e565b61178e9190614ed6565b816117999190614e16565b90505b8360400151816117ac919061510c565b84602001516117bb9190614f07565b846000018181516117cc9190615078565b9150818152505060008460000151126117f0578360000151955050505050506117fa565b6000955050505050505b92915050565b60006013549050600062093a8080426118199190614ed6565b611823919061501e565b905061182d611a24565b60005b6034811015611944578183111561184657611944565b6000611851846138d1565b90506000600b60008381526020019081526020016000206040518060800160405290816000820154815260200160018201548152602001600282015481526020016003820154815250509050600081604001518611156118be578160400151866118bb919061510c565b90505b60008183602001516118d09190614f07565b83600001516118df9190615078565b905060006014600089815260200190815260200160002081905550600081131561191c578060146000898152602001908152602001600020819055505b5050505062093a808361192f9190614e16565b9250808061193c906151f7565b915050611830565b50816013819055505050565b60055481565b61195e613e9f565b600c60008473ffffffffffffffffffffffffffffffffffffffff1673ffffffffffffffffffffffffffffffffffffffff1681526020019081526020016000206000838152602001908152602001600020604051806080016040529081600082015481526020016001820154815260200160028201548152602001600382015481525050905092915050565b60045481565b60166020528060005260406000206000915090505481565b60125481565b6000600554600454611a1f9190614ed6565b905090565b611a2c613ef6565b611a34613ef6565b611a4060008383612b72565b5050565b6000600960003373ffffffffffffffffffffffffffffffffffffffff1673ffffffffffffffffffffffffffffffffffffffff16815260200190815260200160002060405180604001604052908160008201548152602001600182015481525050905062093a808083611ab69190614ed6565b611ac0919061501e565b915042816020015111611b08576040517f08c379a0000000000000000000000000000000000000000000000000000000008152600401611aff90614b9f565b60405180910390fd5b6000816000015113611b4f576040517f08c379a0000000000000000000000000000000000000000000000000000000008152600401611b4690614abf565b60405180910390fd5b80602001518211611b95576040517f08c379a0000000000000000000000000000000000000000000000000000000008152600401611b8c90614a7f565b60405180910390fd5b60055442611ba39190614e16565b821115611be5576040517f08c379a0000000000000000000000000000000000000000000000000000000008152600401611bdc90614b1f565b60405180910390fd5b611bf533336000858560036139ab565b5050565b600d6020528060005260406000206000915090505481565b60135481565b600080821415611c25574291505b6000600d60008573ffffffffffffffffffffffffffffffffffffffff1673ffffffffffffffffffffffffffffffffffffffff1681526020019081526020016000205490506000811415611c7c576000915050611d5d565b6000600c60008673ffffffffffffffffffffffffffffffffffffffff1673ffffffffffffffffffffffffffffffffffffffff16815260200190815260200160002060008381526020019081526020016000206040518060800160405290816000820154815260200160018201548152602001600282015481526020016003820154815250509050806040015184611d13919061510c565b8160200151611d229190614f07565b81600001818151611d339190615078565b91508181525050600081600001511215611d535760008160000181815250505b8060000151925050505b92915050565b6000600d60008373ffffffffffffffffffffffffffffffffffffffff1673ffffffffffffffffffffffffffffffffffffffff168152602001908152602001600020549050919050565b600a5481565b60108054611dbf906151c5565b80601f0160208091040260200160405190810160405280929190818152602001828054611deb906151c5565b8015611e385780601f10611e0d57610100808354040283529160200191611e38565b820191906000526020600020905b815481529060010190602001808311611e1b57829003601f168201915b505050505081565b565b600043821115611e87576040517f08c379a0000000000000000000000000000000000000000000000000000000008152600401611e7e90614adf565b60405180910390fd5b6000600a5490506000611e9a8483613831565b90506000600b60008381526020019081526020016000206040518060800160405290816000820154815260200160018201548152602001600282015481526020016003820154815250509050600083831015611faa576000600b6000600186611f039190614e16565b815260200190815260200160002060405180608001604052908160008201548152602001600182015481526020016002820154815260200160038201548152505090508060600151836060015114611fa45782606001518160600151611f69919061510c565b83604001518260400151611f7d919061510c565b846060015189611f8d919061510c565b611f97919061501e565b611fa19190614ed6565b91505b50611ffd565b43826060015114611ffc57816060015143611fc5919061510c565b826040015142611fd5919061510c565b836060015188611fe5919061510c565b611fef919061501e565b611ff99190614ed6565b90505b5b612016828284604001516120119190614e16565b6128b0565b945050505050919050565b6000804290506000600d60008573ffffffffffffffffffffffffffffffffffffffff1673ffffffffffffffffffffffffffffffffffffffff168152602001908152602001600020549050600081141561207f57600092505050612161565b6000600c60008673ffffffffffffffffffffffffffffffffffffffff1673ffffffffffffffffffffffffffffffffffffffff16815260200190815260200160002060008381526020019081526020016000206040518060800160405290816000820154815260200160018201548152602001600282015481526020016003820154815250509050806040015183612116919061510c565b81602001516121259190614f07565b816000018181516121369190615078565b915081815250506000816000015112156121565760008160000181815250505b806000015193505050505b919050565b600360009054906101000a900460ff1681565b60016020528060005260406000206000915090505481565b61219c3383836129c3565b5050565b6121a8613ef6565b600960008373ffffffffffffffffffffffffffffffffffffffff1673ffffffffffffffffffffffffffffffffffffffff168152602001908152602001600020604051806040016040529081600082015481526020016001820154815250509050919050565b60008082141561221b574291505b6000600a5490506000600b6000838152602001908152602001600020604051806080016040529081600082015481526020016001820154815260200160028201548152602001600382015481525050905061227681856128b0565b92505050919050565b600360009054906101000a900460ff16156122cf576040517f08c379a00000000000000000000000000000000000000000000000000000000081526004016122c690614c5f565b60405180910390fd5b600360009054906101000a900460ff1615600360006101000a81548160ff02191690831515021790555080600760006101000a81548173ffffffffffffffffffffffffffffffffffffffff021916908373ffffffffffffffffffffffffffffffffffffffff1602179055506040518060800160405280600081526020016000815260200142815260200143815250600b60008081526020019081526020016000206000820151816000015560208201518160010155604082015181600201556060820151816003015590505060126011819055506040518060400160405280601381526020017f566f74652d657363726f77656420546f6b656e00000000000000000000000000815250600f90805190602001906123ee929190613f10565b506040518060400160405280600781526020017f7665546f6b656e000000000000000000000000000000000000000000000000008152506010908051906020019061243a929190613f10565b50600062093a80804261244d9190614ed6565b612457919061501e565b905080601281905550806013819055505050565b60156020528060005260406000206000915090505481565b61248d8282612769565b5050565b60008060009050600083905060005b608081101561259b578183106124b55761259b565b600060028084866124c69190614e16565b6124d09190614e16565b6124da9190614ed6565b90506000600c60008a73ffffffffffffffffffffffffffffffffffffffff1673ffffffffffffffffffffffffffffffffffffffff168152602001908152602001600020600083815260200190815260200160002060405180608001604052908160008201548152602001600182015481526020016002820154815260200160038201548152505090508781604001511161257657819450612586565b600182612583919061510c565b93505b50508080612593906151f7565b9150506124a0565b5081925050509392505050565b60096020528060005260406000206000915090508060000154908060010154905082565b60006125d8824261339b565b600001519050919050565b60065481565b6000600c60008473ffffffffffffffffffffffffffffffffffffffff1673ffffffffffffffffffffffffffffffffffffffff168152602001908152602001600020600083815260200190815260200160002060020154905092915050565b60176020528060005260406000206000915090505481565b600080600d60008473ffffffffffffffffffffffffffffffffffffffff1673ffffffffffffffffffffffffffffffffffffffff168152602001908152602001600020549050600c60008473ffffffffffffffffffffffffffffffffffffffff1673ffffffffffffffffffffffffffffffffffffffff168152602001908152602001600020600082815260200190815260200160002060010154915050919050565b62093a8081565b600e6020528060005260406000206000915090505481565b60008054906101000a900473ffffffffffffffffffffffffffffffffffffffff1681565b600760009054906101000a900473ffffffffffffffffffffffffffffffffffffffff1681565b6000600960008473ffffffffffffffffffffffffffffffffffffffff1673ffffffffffffffffffffffffffffffffffffffff1681526020019081526020016000206040518060400160405290816000820154815260200160018201548152505090506000821161280e576040517f08c379a000000000000000000000000000000000000000000000000000000000815260040161280590614aff565b60405180910390fd5b6000816000015113612855576040517f08c379a000000000000000000000000000000000000000000000000000000000815260040161284c90614bbf565b60405180910390fd5b4281602001511161289b576040517f08c379a000000000000000000000000000000000000000000000000000000000815260040161289290614a5f565b60405180910390fd5b6128ab33848460008560026139ab565b505050565b600080839050600062093a808083604001516128cc9190614ed6565b6128d6919061501e565b905060005b60ff81101561299a5762093a80826128f39190614e16565b91506000858311156129075785925061291e565b600e60008481526020019081526020016000205490505b83604001518361292e919061510c565b846020015161293d9190614f07565b8460000181815161294e9190615078565b9150818152505085831415612963575061299a565b80846020018181516129759190614d82565b9150818152505082846040018181525050508080612992906151f7565b9150506128db565b506000826000015112156129b45760008260000181815250505b81600001519250505092915050565b62093a8080826129d39190614ed6565b6129dd919061501e565b90506000600960008573ffffffffffffffffffffffffffffffffffffffff1673ffffffffffffffffffffffffffffffffffffffff16815260200190815260200160002060405180604001604052908160008201548152602001600182015481525050905060008311612a84576040517f08c379a0000000000000000000000000000000000000000000000000000000008152600401612a7b90614a3f565b60405180910390fd5b6000816000015114612acb576040517f08c379a0000000000000000000000000000000000000000000000000000000008152600401612ac290614b3f565b60405180910390fd5b428211612b0d576040517f08c379a0000000000000000000000000000000000000000000000000000000008152600401612b0490614b5f565b60405180910390fd5b60055442612b1b9190614e16565b821115612b5d576040517f08c379a0000000000000000000000000000000000000000000000000000000008152600401612b5490614b1f565b60405180910390fd5b612b6c338585858560016139ab565b50505050565b612b7a613f96565b600a54816080018181525050600073ffffffffffffffffffffffffffffffffffffffff168473ffffffffffffffffffffffffffffffffffffffff1614612d0657428360200151118015612bd1575060008360000151135b15612c26576005548360000151612be89190614e6c565b81600001516020018181525050428360200151612c05919061510c565b816000015160200151612c189190614f07565b816000015160000181815250505b428260200151118015612c3d575060008260000151135b15612c92576005548260000151612c549190614e6c565b81602001516020018181525050428260200151612c71919061510c565b816020015160200151612c849190614f07565b816020015160000181815250505b600e600084602001518152602001908152602001600020548160400181815250506000826020015114612d0557826020015182602001511415612ce2578060400151816060018181525050612d04565b600e600083602001518152602001908152602001600020548160600181815250505b5b5b600060405180608001604052806000815260200160008152602001428152602001438152509050600082608001511115612d8757600b60008360800151815260200190815260200160002060405180608001604052908160008201548152602001600182015481526020016002820154815260200160038201548152505090505b60008160400151905060008260600151905060008360400151905060008460400151421115612df057846040015142612dc0919061510c565b856060015143612dd0919061510c565b670de0b6b3a7640000612de3919061501e565b612ded9190614ed6565b90505b600062093a808086612e029190614ed6565b612e0c919061501e565b905060005b60ff811015612fa65762093a8082612e299190614e16565b9150600042831115612e3d57429250612e54565b600e60008481526020019081526020016000205490505b8683612e60919061510c565b8860200151612e6f9190614f07565b8860000151612e7e9190615078565b8860000181815250508088602001818151612e999190614d82565b91508181525050600088600001511215612eb95760008860000181815250505b600088602001511215612ed25760008860200181815250505b82965082886040018181525050670de0b6b3a76400008584612ef4919061510c565b85612eff919061501e565b612f099190614ed6565b86612f149190614e16565b886060018181525050600189608001818151612f309190614e16565b9150818152505042831415612f4f574388606001818152505050612fa6565b87600b60008b60800151815260200190815260200160002060008201518160000155602082015181600101556040820151816002015560608201518160030155905050508080612f9e906151f7565b915050612e11565b508660800151600a81905550600073ffffffffffffffffffffffffffffffffffffffff168a73ffffffffffffffffffffffffffffffffffffffff1614613081578660000151602001518760200151602001516130029190615078565b866020018181516130139190614d82565b915081815250508660000151600001518760200151600001516130369190615078565b866000018181516130479190614d82565b915081815250506000866020015112156130675760008660200181815250505b6000866000015112156130805760008660000181815250505b5b85600b60008960800151815260200190815260200160002060008201518160000155602082015181600101556040820151816002015560608201518160030155905050600073ffffffffffffffffffffffffffffffffffffffff168a73ffffffffffffffffffffffffffffffffffffffff1614613309574289602001511115613178578660000151602001518760400181815161311e9190614d82565b91508181525050886020015188602001511415613157578660200151602001518760400181815161314f9190615078565b915081815250505b8660400151600e60008b602001518152602001908152602001600020819055505b42886020015111156131d7578860200151886020015111156131d657866020015160200151876060018181516131ae9190615078565b915081815250508660600151600e60008a602001518152602001908152602001600020819055505b5b60006001600d60008d73ffffffffffffffffffffffffffffffffffffffff1673ffffffffffffffffffffffffffffffffffffffff168152602001908152602001600020546132259190614e16565b905080600d60008d73ffffffffffffffffffffffffffffffffffffffff1673ffffffffffffffffffffffffffffffffffffffff16815260200190815260200160002081905550428860200151604001818152505043886020015160600181815250508760200151600c60008d73ffffffffffffffffffffffffffffffffffffffff1673ffffffffffffffffffffffffffffffffffffffff168152602001908152602001600020600083815260200190815260200160002060008201518160000155602082015181600101556040820151816002015560608201518160030155905050505b50505050505050505050565b6133968363a9059cbb60e01b8484604051602401613334929190614950565b604051602081830303815290604052907bffffffffffffffffffffffffffffffffffffffffffffffffffffffff19166020820180517bffffffffffffffffffffffffffffffffffffffffffffffffffffffff8381831617835250505050613ba9565b505050565b6133a3613fd1565b600062093a8080846133b59190614ed6565b6133bf919061501e565b90506000806000600d60008873ffffffffffffffffffffffffffffffffffffffff1673ffffffffffffffffffffffffffffffffffffffff1681526020019081526020016000205490506000811415613441576040518060800160405280600081526020016000815260200160008152602001600081525094505050505061382b565b6000601560008973ffffffffffffffffffffffffffffffffffffffff1673ffffffffffffffffffffffffffffffffffffffff16815260200190815260200160002054905060008114156134a25761349b8860125484612491565b93506134e5565b601660008973ffffffffffffffffffffffffffffffffffffffff1673ffffffffffffffffffffffffffffffffffffffff1681526020019081526020016000205493505b60008414156134f357600193505b6000600c60008a73ffffffffffffffffffffffffffffffffffffffff1673ffffffffffffffffffffffffffffffffffffffff1681526020019081526020016000206000868152602001908152602001600020604051806080016040529081600082015481526020016001820154815260200160028201548152602001600382015481525050905060008214156135be5762093a8080600162093a80846040015161359d9190614e16565b6135a7919061510c565b6135b19190614ed6565b6135bb919061501e565b91505b8582106135f45760405180608001604052806000815260200186815260200184815260200183815250965050505050505061382b565b6012548210156136045760125491505b61360c613e9f565b60005b60348110156137d657878410613624576137d6565b826040015184101580156136385750848711155b156136f35760018761364a9190614e16565b9650829150848711156136685761365f613e9f565b809350506136ee565b600c60008c73ffffffffffffffffffffffffffffffffffffffff1673ffffffffffffffffffffffffffffffffffffffff168152602001908152602001600020600088815260200190815260200160002060405180608001604052908160008201548152602001600182015481526020016002820154815260200160038201548152505092505b6137c3565b6000826040015185613705919061510c565b905060008360200151826137199190614f07565b84600001516137289190615078565b9050600080821315613738578190505b6000811480156137475750878a115b15613754575050506137d6565b60006014600089815260200190815260200160002054905060008211801561377c5750600081115b156137ad578061378a611a0d565b83613795919061501e565b61379f9190614ed6565b8a6137aa9190614e16565b99505b62093a80886137bc9190614e16565b9750505050505b80806137ce906151f7565b91505061360f565b506001866137e4919061510c565b84106137fc576001866137f7919061510c565b6137fe565b835b95506040518060800160405280868152602001878152602001858152602001848152509750505050505050505b92915050565b60008060009050600083905060005b608081116138c557818310613854576138c5565b60006002600184866138669190614e16565b6138709190614e16565b61387a9190614ed6565b905086600b600083815260200190815260200160002060030154116138a1578093506138b1565b6001816138ae919061510c565b92505b5080806138bd906151f7565b915050613840565b50819250505092915050565b600080600090506000600a54905060005b60808110156139a0578183106138f7576139a0565b600060028084866139089190614e16565b6139129190614e16565b61391c9190614ed6565b90506000600b600083815260200190815260200160002060405180608001604052908160008201548152602001600182015481526020016002820154815260200160038201548152505090508681604001511161397b5781945061398b565b600182613988919061510c565b93505b50508080613998906151f7565b9150506138e2565b508192505050919050565b600060405180604001604052808460000151815260200184602001518152509050600060405180604001604052808560000151815260200185602001518152509050600060085490508681613a009190614e16565b600881905550868360000151613a169190614d82565b83600001818152505060008614613a3257858360200181815250505b82600960008a73ffffffffffffffffffffffffffffffffffffffff1673ffffffffffffffffffffffffffffffffffffffff1681526020019081526020016000206000820151816000015560208201518160010155905050613a94888385612b72565b60008714613aec57613aeb893089600760009054906101000a900473ffffffffffffffffffffffffffffffffffffffff1673ffffffffffffffffffffffffffffffffffffffff16613c70909392919063ffffffff16565b5b82602001518873ffffffffffffffffffffffffffffffffffffffff168a73ffffffffffffffffffffffffffffffffffffffff167f5f971bd00bf3ffbca8a6d72cdd4fd92cfd4f62636161921d1e5a64f0b64ccb6d8a8842604051613b5293929190614d19565b60405180910390a47f5e2aa66efd74cce82b21852e317e5490d9ecc9e6bb953ae24d90851258cc2f5c818883613b889190614e16565b604051613b96929190614cf0565b60405180910390a1505050505050505050565b6000613c0b826040518060400160405280602081526020017f5361666545524332303a206c6f772d6c6576656c2063616c6c206661696c65648152508573ffffffffffffffffffffffffffffffffffffffff16613cf99092919063ffffffff16565b9050600081511115613c6b5780806020019051810190613c2b919061411e565b613c6a576040517f08c379a0000000000000000000000000000000000000000000000000000000008152600401613c6190614c3f565b60405180910390fd5b5b505050565b613cf3846323b872dd60e01b858585604051602401613c9193929190614919565b604051602081830303815290604052907bffffffffffffffffffffffffffffffffffffffffffffffffffffffff19166020820180517bffffffffffffffffffffffffffffffffffffffffffffffffffffffff8381831617835250505050613ba9565b50505050565b6060613d088484600085613d11565b90509392505050565b606082471015613d56576040517f08c379a0000000000000000000000000000000000000000000000000000000008152600401613d4d90614a9f565b60405180910390fd5b613d5f85613e25565b613d9e576040517f08c379a0000000000000000000000000000000000000000000000000000000008152600401613d9590614bff565b60405180910390fd5b6000808673ffffffffffffffffffffffffffffffffffffffff168587604051613dc791906148e7565b60006040518083038185875af1925050503d8060008114613e04576040519150601f19603f3d011682016040523d82523d6000602084013e613e09565b606091505b5091509150613e19828286613e38565b92505050949350505050565b600080823b905060008111915050919050565b60608315613e4857829050613e98565b600083511115613e5b5782518084602001fd5b816040517f08c379a0000000000000000000000000000000000000000000000000000000008152600401613e8f9190614a1d565b60405180910390fd5b9392505050565b6040518060800160405280600081526020016000815260200160008152602001600081525090565b6040518060a0016040528060008152602001600081526020016000815260200160008152602001600081525090565b604051806040016040528060008152602001600081525090565b828054613f1c906151c5565b90600052602060002090601f016020900481019282613f3e5760008555613f85565b82601f10613f5757805160ff1916838001178555613f85565b82800160010185558215613f85579182015b82811115613f84578251825591602001919060010190613f69565b5b509050613f929190613ff9565b5090565b6040518060a00160405280613fa9613e9f565b8152602001613fb6613e9f565b81526020016000815260200160008152602001600081525090565b6040518060800160405280600081526020016000815260200160008152602001600081525090565b5b80821115614012576000816000905550600101613ffa565b5090565b600081359050614025816152de565b92915050565b60008151905061403a816152f5565b92915050565b60008135905061404f8161530c565b92915050565b6000815190506140648161530c565b92915050565b60006020828403121561407c57600080fd5b600061408a84828501614016565b91505092915050565b600080604083850312156140a657600080fd5b60006140b485828601614016565b92505060206140c585828601614040565b9150509250929050565b6000806000606084860312156140e457600080fd5b60006140f286828701614016565b935050602061410386828701614040565b925050604061411486828701614040565b9150509250925092565b60006020828403121561413057600080fd5b600061413e8482850161402b565b91505092915050565b60006020828403121561415957600080fd5b600061416784828501614040565b91505092915050565b60006020828403121561418257600080fd5b600061419084828501614055565b91505092915050565b600080604083850312156141ac57600080fd5b60006141ba85828601614040565b92505060206141cb85828601614040565b9150509250929050565b6141de81615140565b82525050565b6141ed81615152565b82525050565b60006141fe82614d50565b6142088185614d66565b9350614218818560208601615192565b80840191505092915050565b61422d8161515e565b82525050565b61423c8161515e565b82525050565b600061424d82614d5b565b6142578185614d71565b9350614267818560208601615192565b614270816152cd565b840191505092915050565b6000614288601583614d71565b91507f43616e2774206c6f636b207a65726f2076616c756500000000000000000000006000830152602082019050919050565b60006142c8602483614d71565b91507f43616e6e6f742061646420746f2065787069726564206c6f636b2e205769746860008301527f64726177000000000000000000000000000000000000000000000000000000006020830152604082019050919050565b600061432e601f83614d71565b91507f43616e206f6e6c7920696e637265617365206c6f636b206475726174696f6e006000830152602082019050919050565b600061436e602683614d71565b91507f416464726573733a20696e73756666696369656e742062616c616e636520666f60008301527f722063616c6c00000000000000000000000000000000000000000000000000006020830152604082019050919050565b60006143d4601183614d71565b91507f4e6f7468696e67206973206c6f636b65640000000000000000000000000000006000830152602082019050919050565b6000614414601d83614d71565b91507f43616e27742065786365656420746865206c617465737420626c6f636b0000006000830152602082019050919050565b6000614454601983614d71565b91507f43616e277420696e637265617365207a65726f2076616c7565000000000000006000830152602082019050919050565b6000614494601e83614d71565b91507f566f74696e67206c6f636b2063616e2062652034207965617273206d617800006000830152602082019050919050565b60006144d4601983614d71565b91507f5769746864726177206f6c6420746f6b656e73206669727374000000000000006000830152602082019050919050565b6000614514602683614d71565b91507f43616e206f6e6c79206c6f636b20756e74696c2074696d6520696e207468652060008301527f66757475726500000000000000000000000000000000000000000000000000006020830152604082019050919050565b600061457a603383614d71565b91507f496e63656e746976655665746f6b656e3a205665746f6b656e2068617320696e60008301527f73756666696369656e742062616c616e636521000000000000000000000000006020830152604082019050919050565b60006145e0600c83614d71565b91507f4c6f636b206578706972656400000000000000000000000000000000000000006000830152602082019050919050565b6000614620601683614d71565b91507f4e6f206578697374696e67206c6f636b20666f756e64000000000000000000006000830152602082019050919050565b6000614660601983614d71565b91507f43616e277420657863656564206c617374656420626c6f636b000000000000006000830152602082019050919050565b60006146a0601d83614d71565b91507f416464726573733a2063616c6c20746f206e6f6e2d636f6e74726163740000006000830152602082019050919050565b60006146e0602c83614d71565b91507f496e63656e746976655665746f6b656e3a204e6f7420656e6f7567682062616c60008301527f616e636520746f207061792100000000000000000000000000000000000000006020830152604082019050919050565b6000614746602a83614d71565b91507f5361666545524332303a204552433230206f7065726174696f6e20646964206e60008301527f6f742073756363656564000000000000000000000000000000000000000000006020830152604082019050919050565b60006147ac602783614d71565b91507f5665546f6b656e3a20436f6e747261637420686173206265656e20696e69746960008301527f616c697a656421000000000000000000000000000000000000000000000000006020830152604082019050919050565b6000614812601683614d71565b91507f546865206c6f636b206469646e277420657870697265000000000000000000006000830152602082019050919050565b60408201600082015161485b6000850182614224565b50602082015161486e60208501826148c9565b50505050565b60808201600082015161488a6000850182614224565b50602082015161489d6020850182614224565b5060408201516148b060408501826148c9565b5060608201516148c360608501826148c9565b50505050565b6148d281615188565b82525050565b6148e181615188565b82525050565b60006148f382846141f3565b915081905092915050565b600060208201905061491360008301846141d5565b92915050565b600060608201905061492e60008301866141d5565b61493b60208301856141d5565b61494860408301846148d8565b949350505050565b600060408201905061496560008301856141d5565b61497260208301846148d8565b9392505050565b600060208201905061498e60008301846141e4565b92915050565b60006020820190506149a96000830184614233565b92915050565b60006080820190506149c46000830187614233565b6149d16020830186614233565b6149de60408301856148d8565b6149eb60608301846148d8565b95945050505050565b6000604082019050614a096000830185614233565b614a1660208301846148d8565b9392505050565b60006020820190508181036000830152614a378184614242565b905092915050565b60006020820190508181036000830152614a588161427b565b9050919050565b60006020820190508181036000830152614a78816142bb565b9050919050565b60006020820190508181036000830152614a9881614321565b9050919050565b60006020820190508181036000830152614ab881614361565b9050919050565b60006020820190508181036000830152614ad8816143c7565b9050919050565b60006020820190508181036000830152614af881614407565b9050919050565b60006020820190508181036000830152614b1881614447565b9050919050565b60006020820190508181036000830152614b3881614487565b9050919050565b60006020820190508181036000830152614b58816144c7565b9050919050565b60006020820190508181036000830152614b7881614507565b9050919050565b60006020820190508181036000830152614b988161456d565b9050919050565b60006020820190508181036000830152614bb8816145d3565b9050919050565b60006020820190508181036000830152614bd881614613565b9050919050565b60006020820190508181036000830152614bf881614653565b9050919050565b60006020820190508181036000830152614c1881614693565b9050919050565b60006020820190508181036000830152614c38816146d3565b9050919050565b60006020820190508181036000830152614c5881614739565b9050919050565b60006020820190508181036000830152614c788161479f565b9050919050565b60006020820190508181036000830152614c9881614805565b9050919050565b6000604082019050614cb46000830184614845565b92915050565b6000608082019050614ccf6000830184614874565b92915050565b6000602082019050614cea60008301846148d8565b92915050565b6000604082019050614d0560008301856148d8565b614d1260208301846148d8565b9392505050565b6000606082019050614d2e60008301866148d8565b614d3b60208301856148d8565b614d4860408301846148d8565b949350505050565b600081519050919050565b600081519050919050565b600081905092915050565b600082825260208201905092915050565b6000614d8d8261515e565b9150614d988361515e565b9250817f7fffffffffffffffffffffffffffffffffffffffffffffffffffffffffffffff03831360008312151615614dd357614dd2615240565b5b817f8000000000000000000000000000000000000000000000000000000000000000038312600083121615614e0b57614e0a615240565b5b828201905092915050565b6000614e2182615188565b9150614e2c83615188565b9250827fffffffffffffffffffffffffffffffffffffffffffffffffffffffffffffffff03821115614e6157614e60615240565b5b828201905092915050565b6000614e778261515e565b9150614e828361515e565b925082614e9257614e9161526f565b5b600160000383147f800000000000000000000000000000000000000000000000000000000000000083141615614ecb57614eca615240565b5b828205905092915050565b6000614ee182615188565b9150614eec83615188565b925082614efc57614efb61526f565b5b828204905092915050565b6000614f128261515e565b9150614f1d8361515e565b9250827f7fffffffffffffffffffffffffffffffffffffffffffffffffffffffffffffff0482116000841360008413161615614f5c57614f5b615240565b5b817f80000000000000000000000000000000000000000000000000000000000000000583126000841260008413161615614f9957614f98615240565b5b827f80000000000000000000000000000000000000000000000000000000000000000582126000841360008412161615614fd657614fd5615240565b5b827f7fffffffffffffffffffffffffffffffffffffffffffffffffffffffffffffff058212600084126000841216161561501357615012615240565b5b828202905092915050565b600061502982615188565b915061503483615188565b9250817fffffffffffffffffffffffffffffffffffffffffffffffffffffffffffffffff048311821515161561506d5761506c615240565b5b828202905092915050565b60006150838261515e565b915061508e8361515e565b9250827f8000000000000000000000000000000000000000000000000000000000000000018212600084121516156150c9576150c8615240565b5b827f7fffffffffffffffffffffffffffffffffffffffffffffffffffffffffffffff01821360008412161561510157615100615240565b5b828203905092915050565b600061511782615188565b915061512283615188565b92508282101561513557615134615240565b5b828203905092915050565b600061514b82615168565b9050919050565b60008115159050919050565b6000819050919050565b600073ffffffffffffffffffffffffffffffffffffffff82169050919050565b6000819050919050565b60005b838110156151b0578082015181840152602081019050615195565b838111156151bf576000848401525b50505050565b600060028204905060018216806151dd57607f821691505b602082108114156151f1576151f061529e565b5b50919050565b600061520282615188565b91507fffffffffffffffffffffffffffffffffffffffffffffffffffffffffffffffff82141561523557615234615240565b5b600182019050919050565b7f4e487b7100000000000000000000000000000000000000000000000000000000600052601160045260246000fd5b7f4e487b7100000000000000000000000000000000000000000000000000000000600052601260045260246000fd5b7f4e487b7100000000000000000000000000000000000000000000000000000000600052602260045260246000fd5b6000601f19601f8301169050919050565b6152e781615140565b81146152f257600080fd5b50565b6152fe81615152565b811461530957600080fd5b50565b61531581615188565b811461532057600080fd5b5056fea26469706673582212207684be841a854331537e99005b3d65334592e70bdfe12c0bb361c10024c4b5e364736f6c63430008000033",
			"opcodes": "PUSH1 0x80 PUSH1 0x40 MSTORE PUSH9 0xA2A15D09519BE00000 PUSH1 0x4 SSTORE PUSH4 0x1E13380 PUSH1 0x5 SSTORE PUSH4 0x1E13380 PUSH1 0x6 SSTORE CALLVALUE DUP1 ISZERO PUSH2 0x2D JUMPI PUSH1 0x0 DUP1 REVERT JUMPDEST POP PUSH2 0x5359 DUP1 PUSH2 0x3D PUSH1 0x0 CODECOPY PUSH1 0x0 RETURN INVALID PUSH1 0x80 PUSH1 0x40 MSTORE CALLVALUE DUP1 ISZERO PUSH2 0x10 JUMPI PUSH1 0x0 DUP1 REVERT JUMPDEST POP PUSH1 0x4 CALLDATASIZE LT PUSH2 0x342 JUMPI PUSH1 0x0 CALLDATALOAD PUSH1 0xE0 SHR DUP1 PUSH4 0x8736659B GT PUSH2 0x1B8 JUMPI DUP1 PUSH4 0xC4D66DE8 GT PUSH2 0x104 JUMPI DUP1 PUSH4 0xEAC6A667 GT PUSH2 0xA2 JUMPI DUP1 PUSH4 0xF4359CE5 GT PUSH2 0x7C JUMPI DUP1 PUSH4 0xF4359CE5 EQ PUSH2 0xA7E JUMPI DUP1 PUSH4 0xF52A36F7 EQ PUSH2 0xA9C JUMPI DUP1 PUSH4 0xF887EA40 EQ PUSH2 0xACC JUMPI DUP1 PUSH4 0xFC0C546A EQ PUSH2 0xAEA JUMPI PUSH2 0x342 JUMP JUMPDEST DUP1 PUSH4 0xEAC6A667 EQ PUSH2 0x9EE JUMPI DUP1 PUSH4 0xEF5D9AE8 EQ PUSH2 0xA1E JUMPI DUP1 PUSH4 0xF3A6D608 EQ PUSH2 0xA4E JUMPI PUSH2 0x342 JUMP JUMPDEST DUP1 PUSH4 0xCB859DB4 GT PUSH2 0xDE JUMPI DUP1 PUSH4 0xCB859DB4 EQ PUSH2 0x93F JUMPI DUP1 PUSH4 0xCBF9FE5F EQ PUSH2 0x96F JUMPI DUP1 PUSH4 0xE12E05A7 EQ PUSH2 0x9A0 JUMPI DUP1 PUSH4 0xE9D56995 EQ PUSH2 0x9D0 JUMPI PUSH2 0x342 JUMP JUMPDEST DUP1 PUSH4 0xC4D66DE8 EQ PUSH2 0x8D7 JUMPI DUP1 PUSH4 0xC7F1EC50 EQ PUSH2 0x8F3 JUMPI DUP1 PUSH4 0xCA2F8D93 EQ PUSH2 0x923 JUMPI PUSH2 0x342 JUMP JUMPDEST DUP1 PUSH4 0x981B24D0 GT PUSH2 0x171 JUMPI DUP1 PUSH4 0x9F17F734 GT PUSH2 0x14B JUMPI DUP1 PUSH4 0x9F17F734 EQ PUSH2 0x82B JUMPI DUP1 PUSH4 0xB52C05FE EQ PUSH2 0x85B JUMPI DUP1 PUSH4 0xBC22FD1B EQ PUSH2 0x877 JUMPI DUP1 PUSH4 0xBD85B039 EQ PUSH2 0x8A7 JUMPI PUSH2 0x342 JUMP JUMPDEST DUP1 PUSH4 0x981B24D0 EQ PUSH2 0x7AD JUMPI DUP1 PUSH4 0x98DC8378 EQ PUSH2 0x7DD JUMPI DUP1 PUSH4 0x9CE110D7 EQ PUSH2 0x80D JUMPI PUSH2 0x342 JUMP JUMPDEST DUP1 PUSH4 0x8736659B EQ PUSH2 0x6E9 JUMPI DUP1 PUSH4 0x8B33AF35 EQ PUSH2 0x707 JUMPI DUP1 PUSH4 0x8C71E5D1 EQ PUSH2 0x737 JUMPI DUP1 PUSH4 0x900CF0CF EQ PUSH2 0x767 JUMPI DUP1 PUSH4 0x95D89B41 EQ PUSH2 0x785 JUMPI DUP1 PUSH4 0x97AC2FB6 EQ PUSH2 0x7A3 JUMPI PUSH2 0x342 JUMP JUMPDEST DUP1 PUSH4 0x41BF499C GT PUSH2 0x292 JUMPI DUP1 PUSH4 0x750142E6 GT PUSH2 0x230 JUMPI DUP1 PUSH4 0x7903F9D3 GT PUSH2 0x20A JUMPI DUP1 PUSH4 0x7903F9D3 EQ PUSH2 0x675 JUMPI DUP1 PUSH4 0x7B7933B4 EQ PUSH2 0x693 JUMPI DUP1 PUSH4 0x7C616FE6 EQ PUSH2 0x69D JUMPI DUP1 PUSH4 0x81FC83BB EQ PUSH2 0x6B9 JUMPI PUSH2 0x342 JUMP JUMPDEST DUP1 PUSH4 0x750142E6 EQ PUSH2 0x609 JUMPI DUP1 PUSH4 0x786479CD EQ PUSH2 0x627 JUMPI DUP1 PUSH4 0x78E97925 EQ PUSH2 0x657 JUMPI PUSH2 0x342 JUMP JUMPDEST DUP1 PUSH4 0x4EE2CD7E GT PUSH2 0x26C JUMPI DUP1 PUSH4 0x4EE2CD7E EQ PUSH2 0x581 JUMPI DUP1 PUSH4 0x4F7461E1 EQ PUSH2 0x5B1 JUMPI DUP1 PUSH4 0x547B737C EQ PUSH2 0x5BB JUMPI DUP1 PUSH4 0x643DAFDE EQ PUSH2 0x5D9 JUMPI PUSH2 0x342 JUMP JUMPDEST DUP1 PUSH4 0x41BF499C EQ PUSH2 0x503 JUMPI DUP1 PUSH4 0x4DEAFCAE EQ PUSH2 0x533 JUMPI DUP1 PUSH4 0x4E71D92D EQ PUSH2 0x563 JUMPI PUSH2 0x342 JUMP JUMPDEST DUP1 PUSH4 0x29B55CA7 GT PUSH2 0x2FF JUMPI DUP1 PUSH4 0x31A8BBCE GT PUSH2 0x2D9 JUMPI DUP1 PUSH4 0x31A8BBCE EQ PUSH2 0x463 JUMPI DUP1 PUSH4 0x34D901A4 EQ PUSH2 0x496 JUMPI DUP1 PUSH4 0x35878D88 EQ PUSH2 0x4C9 JUMPI DUP1 PUSH4 0x3CCFD60B EQ PUSH2 0x4F9 JUMPI PUSH2 0x342 JUMP JUMPDEST DUP1 PUSH4 0x29B55CA7 EQ PUSH2 0x40B JUMPI DUP1 PUSH4 0x2B10EB4F EQ PUSH2 0x427 JUMPI DUP1 PUSH4 0x313CE567 EQ PUSH2 0x445 JUMPI PUSH2 0x342 JUMP JUMPDEST DUP1 PUSH4 0x47FC9AA EQ PUSH2 0x347 JUMPI DUP1 PUSH4 0x59F8B16 EQ PUSH2 0x365 JUMPI DUP1 PUSH4 0x6FDDE03 EQ PUSH2 0x383 JUMPI DUP1 PUSH4 0xF6592EF EQ PUSH2 0x3A1 JUMPI DUP1 PUSH4 0x15456EBA EQ PUSH2 0x3D1 JUMPI DUP1 PUSH4 0x18160DDD EQ PUSH2 0x3ED JUMPI JUMPDEST PUSH1 0x0 DUP1 REVERT JUMPDEST PUSH2 0x34F PUSH2 0xB08 JUMP JUMPDEST PUSH1 0x40 MLOAD PUSH2 0x35C SWAP2 SWAP1 PUSH2 0x4CD5 JUMP JUMPDEST PUSH1 0x40 MLOAD DUP1 SWAP2 SUB SWAP1 RETURN JUMPDEST PUSH2 0x36D PUSH2 0xB0E JUMP JUMPDEST PUSH1 0x40 MLOAD PUSH2 0x37A SWAP2 SWAP1 PUSH2 0x4CD5 JUMP JUMPDEST PUSH1 0x40 MLOAD DUP1 SWAP2 SUB SWAP1 RETURN JUMPDEST PUSH2 0x38B PUSH2 0xB1A JUMP JUMPDEST PUSH1 0x40 MLOAD PUSH2 0x398 SWAP2 SWAP1 PUSH2 0x4A1D JUMP JUMPDEST PUSH1 0x40 MLOAD DUP1 SWAP2 SUB SWAP1 RETURN JUMPDEST PUSH2 0x3BB PUSH1 0x4 DUP1 CALLDATASIZE SUB DUP2 ADD SWAP1 PUSH2 0x3B6 SWAP2 SWAP1 PUSH2 0x4147 JUMP JUMPDEST PUSH2 0xBA8 JUMP JUMPDEST PUSH1 0x40 MLOAD PUSH2 0x3C8 SWAP2 SWAP1 PUSH2 0x4CD5 JUMP JUMPDEST PUSH1 0x40 MLOAD DUP1 SWAP2 SUB SWAP1 RETURN JUMPDEST PUSH2 0x3EB PUSH1 0x4 DUP1 CALLDATASIZE SUB DUP2 ADD SWAP1 PUSH2 0x3E6 SWAP2 SWAP1 PUSH2 0x4147 JUMP JUMPDEST PUSH2 0xBC0 JUMP JUMPDEST STOP JUMPDEST PUSH2 0x3F5 PUSH2 0xBCD JUMP JUMPDEST PUSH1 0x40 MLOAD PUSH2 0x402 SWAP2 SWAP1 PUSH2 0x4CD5 JUMP JUMPDEST PUSH1 0x40 MLOAD DUP1 SWAP2 SUB SWAP1 RETURN JUMPDEST PUSH2 0x425 PUSH1 0x4 DUP1 CALLDATASIZE SUB DUP2 ADD SWAP1 PUSH2 0x420 SWAP2 SWAP1 PUSH2 0x40CF JUMP JUMPDEST PUSH2 0xC30 JUMP JUMPDEST STOP JUMPDEST PUSH2 0x42F PUSH2 0xC40 JUMP JUMPDEST PUSH1 0x40 MLOAD PUSH2 0x43C SWAP2 SWAP1 PUSH2 0x4CD5 JUMP JUMPDEST PUSH1 0x40 MLOAD DUP1 SWAP2 SUB SWAP1 RETURN JUMPDEST PUSH2 0x44D PUSH2 0xC46 JUMP JUMPDEST PUSH1 0x40 MLOAD PUSH2 0x45A SWAP2 SWAP1 PUSH2 0x4CD5 JUMP JUMPDEST PUSH1 0x40 MLOAD DUP1 SWAP2 SUB SWAP1 RETURN JUMPDEST PUSH2 0x47D PUSH1 0x4 DUP1 CALLDATASIZE SUB DUP2 ADD SWAP1 PUSH2 0x478 SWAP2 SWAP1 PUSH2 0x4147 JUMP JUMPDEST PUSH2 0xC4C JUMP JUMPDEST PUSH1 0x40 MLOAD PUSH2 0x48D SWAP5 SWAP4 SWAP3 SWAP2 SWAP1 PUSH2 0x49AF JUMP JUMPDEST PUSH1 0x40 MLOAD DUP1 SWAP2 SUB SWAP1 RETURN JUMPDEST PUSH2 0x4B0 PUSH1 0x4 DUP1 CALLDATASIZE SUB DUP2 ADD SWAP1 PUSH2 0x4AB SWAP2 SWAP1 PUSH2 0x4093 JUMP JUMPDEST PUSH2 0xC7C JUMP JUMPDEST PUSH1 0x40 MLOAD PUSH2 0x4C0 SWAP5 SWAP4 SWAP3 SWAP2 SWAP1 PUSH2 0x49AF JUMP JUMPDEST PUSH1 0x40 MLOAD DUP1 SWAP2 SUB SWAP1 RETURN JUMPDEST PUSH2 0x4E3 PUSH1 0x4 DUP1 CALLDATASIZE SUB DUP2 ADD SWAP1 PUSH2 0x4DE SWAP2 SWAP1 PUSH2 0x4147 JUMP JUMPDEST PUSH2 0xCB9 JUMP JUMPDEST PUSH1 0x40 MLOAD PUSH2 0x4F0 SWAP2 SWAP1 PUSH2 0x4CBA JUMP JUMPDEST PUSH1 0x40 MLOAD DUP1 SWAP2 SUB SWAP1 RETURN JUMPDEST PUSH2 0x501 PUSH2 0xD0E JUMP JUMPDEST STOP JUMPDEST PUSH2 0x51D PUSH1 0x4 DUP1 CALLDATASIZE SUB DUP2 ADD SWAP1 PUSH2 0x518 SWAP2 SWAP1 PUSH2 0x4093 JUMP JUMPDEST PUSH2 0x1010 JUMP JUMPDEST PUSH1 0x40 MLOAD PUSH2 0x52A SWAP2 SWAP1 PUSH2 0x4CD5 JUMP JUMPDEST PUSH1 0x40 MLOAD DUP1 SWAP2 SUB SWAP1 RETURN JUMPDEST PUSH2 0x54D PUSH1 0x4 DUP1 CALLDATASIZE SUB DUP2 ADD SWAP1 PUSH2 0x548 SWAP2 SWAP1 PUSH2 0x406A JUMP JUMPDEST PUSH2 0x1028 JUMP JUMPDEST PUSH1 0x40 MLOAD PUSH2 0x55A SWAP2 SWAP1 PUSH2 0x4CD5 JUMP JUMPDEST PUSH1 0x40 MLOAD DUP1 SWAP2 SUB SWAP1 RETURN JUMPDEST PUSH2 0x56B PUSH2 0x1074 JUMP JUMPDEST PUSH1 0x40 MLOAD PUSH2 0x578 SWAP2 SWAP1 PUSH2 0x4CD5 JUMP JUMPDEST PUSH1 0x40 MLOAD DUP1 SWAP2 SUB SWAP1 RETURN JUMPDEST PUSH2 0x59B PUSH1 0x4 DUP1 CALLDATASIZE SUB DUP2 ADD SWAP1 PUSH2 0x596 SWAP2 SWAP1 PUSH2 0x4093 JUMP JUMPDEST PUSH2 0x13E8 JUMP JUMPDEST PUSH1 0x40 MLOAD PUSH2 0x5A8 SWAP2 SWAP1 PUSH2 0x4CD5 JUMP JUMPDEST PUSH1 0x40 MLOAD DUP1 SWAP2 SUB SWAP1 RETURN JUMPDEST PUSH2 0x5B9 PUSH2 0x1800 JUMP JUMPDEST STOP JUMPDEST PUSH2 0x5C3 PUSH2 0x1950 JUMP JUMPDEST PUSH1 0x40 MLOAD PUSH2 0x5D0 SWAP2 SWAP1 PUSH2 0x4CD5 JUMP JUMPDEST PUSH1 0x40 MLOAD DUP1 SWAP2 SUB SWAP1 RETURN JUMPDEST PUSH2 0x5F3 PUSH1 0x4 DUP1 CALLDATASIZE SUB DUP2 ADD SWAP1 PUSH2 0x5EE SWAP2 SWAP1 PUSH2 0x4093 JUMP JUMPDEST PUSH2 0x1956 JUMP JUMPDEST PUSH1 0x40 MLOAD PUSH2 0x600 SWAP2 SWAP1 PUSH2 0x4CBA JUMP JUMPDEST PUSH1 0x40 MLOAD DUP1 SWAP2 SUB SWAP1 RETURN JUMPDEST PUSH2 0x611 PUSH2 0x19E9 JUMP JUMPDEST PUSH1 0x40 MLOAD PUSH2 0x61E SWAP2 SWAP1 PUSH2 0x4CD5 JUMP JUMPDEST PUSH1 0x40 MLOAD DUP1 SWAP2 SUB SWAP1 RETURN JUMPDEST PUSH2 0x641 PUSH1 0x4 DUP1 CALLDATASIZE SUB DUP2 ADD SWAP1 PUSH2 0x63C SWAP2 SWAP1 PUSH2 0x406A JUMP JUMPDEST PUSH2 0x19EF JUMP JUMPDEST PUSH1 0x40 MLOAD PUSH2 0x64E SWAP2 SWAP1 PUSH2 0x4CD5 JUMP JUMPDEST PUSH1 0x40 MLOAD DUP1 SWAP2 SUB SWAP1 RETURN JUMPDEST PUSH2 0x65F PUSH2 0x1A07 JUMP JUMPDEST PUSH1 0x40 MLOAD PUSH2 0x66C SWAP2 SWAP1 PUSH2 0x4CD5 JUMP JUMPDEST PUSH1 0x40 MLOAD DUP1 SWAP2 SUB SWAP1 RETURN JUMPDEST PUSH2 0x67D PUSH2 0x1A0D JUMP JUMPDEST PUSH1 0x40 MLOAD PUSH2 0x68A SWAP2 SWAP1 PUSH2 0x4CD5 JUMP JUMPDEST PUSH1 0x40 MLOAD DUP1 SWAP2 SUB SWAP1 RETURN JUMPDEST PUSH2 0x69B PUSH2 0x1A24 JUMP JUMPDEST STOP JUMPDEST PUSH2 0x6B7 PUSH1 0x4 DUP1 CALLDATASIZE SUB DUP2 ADD SWAP1 PUSH2 0x6B2 SWAP2 SWAP1 PUSH2 0x4147 JUMP JUMPDEST PUSH2 0x1A44 JUMP JUMPDEST STOP JUMPDEST PUSH2 0x6D3 PUSH1 0x4 DUP1 CALLDATASIZE SUB DUP2 ADD SWAP1 PUSH2 0x6CE SWAP2 SWAP1 PUSH2 0x406A JUMP JUMPDEST PUSH2 0x1BF9 JUMP JUMPDEST PUSH1 0x40 MLOAD PUSH2 0x6E0 SWAP2 SWAP1 PUSH2 0x4CD5 JUMP JUMPDEST PUSH1 0x40 MLOAD DUP1 SWAP2 SUB SWAP1 RETURN JUMPDEST PUSH2 0x6F1 PUSH2 0x1C11 JUMP JUMPDEST PUSH1 0x40 MLOAD PUSH2 0x6FE SWAP2 SWAP1 PUSH2 0x4CD5 JUMP JUMPDEST PUSH1 0x40 MLOAD DUP1 SWAP2 SUB SWAP1 RETURN JUMPDEST PUSH2 0x721 PUSH1 0x4 DUP1 CALLDATASIZE SUB DUP2 ADD SWAP1 PUSH2 0x71C SWAP2 SWAP1 PUSH2 0x4093 JUMP JUMPDEST PUSH2 0x1C17 JUMP JUMPDEST PUSH1 0x40 MLOAD PUSH2 0x72E SWAP2 SWAP1 PUSH2 0x4CD5 JUMP JUMPDEST PUSH1 0x40 MLOAD DUP1 SWAP2 SUB SWAP1 RETURN JUMPDEST PUSH2 0x751 PUSH1 0x4 DUP1 CALLDATASIZE SUB DUP2 ADD SWAP1 PUSH2 0x74C SWAP2 SWAP1 PUSH2 0x406A JUMP JUMPDEST PUSH2 0x1D63 JUMP JUMPDEST PUSH1 0x40 MLOAD PUSH2 0x75E SWAP2 SWAP1 PUSH2 0x4CD5 JUMP JUMPDEST PUSH1 0x40 MLOAD DUP1 SWAP2 SUB SWAP1 RETURN JUMPDEST PUSH2 0x76F PUSH2 0x1DAC JUMP JUMPDEST PUSH1 0x40 MLOAD PUSH2 0x77C SWAP2 SWAP1 PUSH2 0x4CD5 JUMP JUMPDEST PUSH1 0x40 MLOAD DUP1 SWAP2 SUB SWAP1 RETURN JUMPDEST PUSH2 0x78D PUSH2 0x1DB2 JUMP JUMPDEST PUSH1 0x40 MLOAD PUSH2 0x79A SWAP2 SWAP1 PUSH2 0x4A1D JUMP JUMPDEST PUSH1 0x40 MLOAD DUP1 SWAP2 SUB SWAP1 RETURN JUMPDEST PUSH2 0x7AB PUSH2 0x1E40 JUMP JUMPDEST STOP JUMPDEST PUSH2 0x7C7 PUSH1 0x4 DUP1 CALLDATASIZE SUB DUP2 ADD SWAP1 PUSH2 0x7C2 SWAP2 SWAP1 PUSH2 0x4147 JUMP JUMPDEST PUSH2 0x1E42 JUMP JUMPDEST PUSH1 0x40 MLOAD PUSH2 0x7D4 SWAP2 SWAP1 PUSH2 0x4CD5 JUMP JUMPDEST PUSH1 0x40 MLOAD DUP1 SWAP2 SUB SWAP1 RETURN JUMPDEST PUSH2 0x7F7 PUSH1 0x4 DUP1 CALLDATASIZE SUB DUP2 ADD SWAP1 PUSH2 0x7F2 SWAP2 SWAP1 PUSH2 0x406A JUMP JUMPDEST PUSH2 0x2021 JUMP JUMPDEST PUSH1 0x40 MLOAD PUSH2 0x804 SWAP2 SWAP1 PUSH2 0x4CD5 JUMP JUMPDEST PUSH1 0x40 MLOAD DUP1 SWAP2 SUB SWAP1 RETURN JUMPDEST PUSH2 0x815 PUSH2 0x2166 JUMP JUMPDEST PUSH1 0x40 MLOAD PUSH2 0x822 SWAP2 SWAP1 PUSH2 0x4979 JUMP JUMPDEST PUSH1 0x40 MLOAD DUP1 SWAP2 SUB SWAP1 RETURN JUMPDEST PUSH2 0x845 PUSH1 0x4 DUP1 CALLDATASIZE SUB DUP2 ADD SWAP1 PUSH2 0x840 SWAP2 SWAP1 PUSH2 0x406A JUMP JUMPDEST PUSH2 0x2179 JUMP JUMPDEST PUSH1 0x40 MLOAD PUSH2 0x852 SWAP2 SWAP1 PUSH2 0x4CD5 JUMP JUMPDEST PUSH1 0x40 MLOAD DUP1 SWAP2 SUB SWAP1 RETURN JUMPDEST PUSH2 0x875 PUSH1 0x4 DUP1 CALLDATASIZE SUB DUP2 ADD SWAP1 PUSH2 0x870 SWAP2 SWAP1 PUSH2 0x4199 JUMP JUMPDEST PUSH2 0x2191 JUMP JUMPDEST STOP JUMPDEST PUSH2 0x891 PUSH1 0x4 DUP1 CALLDATASIZE SUB DUP2 ADD SWAP1 PUSH2 0x88C SWAP2 SWAP1 PUSH2 0x406A JUMP JUMPDEST PUSH2 0x21A0 JUMP JUMPDEST PUSH1 0x40 MLOAD PUSH2 0x89E SWAP2 SWAP1 PUSH2 0x4C9F JUMP JUMPDEST PUSH1 0x40 MLOAD DUP1 SWAP2 SUB SWAP1 RETURN JUMPDEST PUSH2 0x8C1 PUSH1 0x4 DUP1 CALLDATASIZE SUB DUP2 ADD SWAP1 PUSH2 0x8BC SWAP2 SWAP1 PUSH2 0x4147 JUMP JUMPDEST PUSH2 0x220D JUMP JUMPDEST PUSH1 0x40 MLOAD PUSH2 0x8CE SWAP2 SWAP1 PUSH2 0x4CD5 JUMP JUMPDEST PUSH1 0x40 MLOAD DUP1 SWAP2 SUB SWAP1 RETURN JUMPDEST PUSH2 0x8F1 PUSH1 0x4 DUP1 CALLDATASIZE SUB DUP2 ADD SWAP1 PUSH2 0x8EC SWAP2 SWAP1 PUSH2 0x406A JUMP JUMPDEST PUSH2 0x227F JUMP JUMPDEST STOP JUMPDEST PUSH2 0x90D PUSH1 0x4 DUP1 CALLDATASIZE SUB DUP2 ADD SWAP1 PUSH2 0x908 SWAP2 SWAP1 PUSH2 0x406A JUMP JUMPDEST PUSH2 0x246B JUMP JUMPDEST PUSH1 0x40 MLOAD PUSH2 0x91A SWAP2 SWAP1 PUSH2 0x4CD5 JUMP JUMPDEST PUSH1 0x40 MLOAD DUP1 SWAP2 SUB SWAP1 RETURN JUMPDEST PUSH2 0x93D PUSH1 0x4 DUP1 CALLDATASIZE SUB DUP2 ADD SWAP1 PUSH2 0x938 SWAP2 SWAP1 PUSH2 0x4093 JUMP JUMPDEST PUSH2 0x2483 JUMP JUMPDEST STOP JUMPDEST PUSH2 0x959 PUSH1 0x4 DUP1 CALLDATASIZE SUB DUP2 ADD SWAP1 PUSH2 0x954 SWAP2 SWAP1 PUSH2 0x40CF JUMP JUMPDEST PUSH2 0x2491 JUMP JUMPDEST PUSH1 0x40 MLOAD PUSH2 0x966 SWAP2 SWAP1 PUSH2 0x4CD5 JUMP JUMPDEST PUSH1 0x40 MLOAD DUP1 SWAP2 SUB SWAP1 RETURN JUMPDEST PUSH2 0x989 PUSH1 0x4 DUP1 CALLDATASIZE SUB DUP2 ADD SWAP1 PUSH2 0x984 SWAP2 SWAP1 PUSH2 0x406A JUMP JUMPDEST PUSH2 0x25A8 JUMP JUMPDEST PUSH1 0x40 MLOAD PUSH2 0x997 SWAP3 SWAP2 SWAP1 PUSH2 0x49F4 JUMP JUMPDEST PUSH1 0x40 MLOAD DUP1 SWAP2 SUB SWAP1 RETURN JUMPDEST PUSH2 0x9BA PUSH1 0x4 DUP1 CALLDATASIZE SUB DUP2 ADD SWAP1 PUSH2 0x9B5 SWAP2 SWAP1 PUSH2 0x406A JUMP JUMPDEST PUSH2 0x25CC JUMP JUMPDEST PUSH1 0x40 MLOAD PUSH2 0x9C7 SWAP2 SWAP1 PUSH2 0x4CD5 JUMP JUMPDEST PUSH1 0x40 MLOAD DUP1 SWAP2 SUB SWAP1 RETURN JUMPDEST PUSH2 0x9D8 PUSH2 0x25E3 JUMP JUMPDEST PUSH1 0x40 MLOAD PUSH2 0x9E5 SWAP2 SWAP1 PUSH2 0x4CD5 JUMP JUMPDEST PUSH1 0x40 MLOAD DUP1 SWAP2 SUB SWAP1 RETURN JUMPDEST PUSH2 0xA08 PUSH1 0x4 DUP1 CALLDATASIZE SUB DUP2 ADD SWAP1 PUSH2 0xA03 SWAP2 SWAP1 PUSH2 0x4093 JUMP JUMPDEST PUSH2 0x25E9 JUMP JUMPDEST PUSH1 0x40 MLOAD PUSH2 0xA15 SWAP2 SWAP1 PUSH2 0x4CD5 JUMP JUMPDEST PUSH1 0x40 MLOAD DUP1 SWAP2 SUB SWAP1 RETURN JUMPDEST PUSH2 0xA38 PUSH1 0x4 DUP1 CALLDATASIZE SUB DUP2 ADD SWAP1 PUSH2 0xA33 SWAP2 SWAP1 PUSH2 0x406A JUMP JUMPDEST PUSH2 0x2647 JUMP JUMPDEST PUSH1 0x40 MLOAD PUSH2 0xA45 SWAP2 SWAP1 PUSH2 0x4CD5 JUMP JUMPDEST PUSH1 0x40 MLOAD DUP1 SWAP2 SUB SWAP1 RETURN JUMPDEST PUSH2 0xA68 PUSH1 0x4 DUP1 CALLDATASIZE SUB DUP2 ADD SWAP1 PUSH2 0xA63 SWAP2 SWAP1 PUSH2 0x406A JUMP JUMPDEST PUSH2 0x265F JUMP JUMPDEST PUSH1 0x40 MLOAD PUSH2 0xA75 SWAP2 SWAP1 PUSH2 0x4994 JUMP JUMPDEST PUSH1 0x40 MLOAD DUP1 SWAP2 SUB SWAP1 RETURN JUMPDEST PUSH2 0xA86 PUSH2 0x2700 JUMP JUMPDEST PUSH1 0x40 MLOAD PUSH2 0xA93 SWAP2 SWAP1 PUSH2 0x4CD5 JUMP JUMPDEST PUSH1 0x40 MLOAD DUP1 SWAP2 SUB SWAP1 RETURN JUMPDEST PUSH2 0xAB6 PUSH1 0x4 DUP1 CALLDATASIZE SUB DUP2 ADD SWAP1 PUSH2 0xAB1 SWAP2 SWAP1 PUSH2 0x4147 JUMP JUMPDEST PUSH2 0x2707 JUMP JUMPDEST PUSH1 0x40 MLOAD PUSH2 0xAC3 SWAP2 SWAP1 PUSH2 0x4994 JUMP JUMPDEST PUSH1 0x40 MLOAD DUP1 SWAP2 SUB SWAP1 RETURN JUMPDEST PUSH2 0xAD4 PUSH2 0x271F JUMP JUMPDEST PUSH1 0x40 MLOAD PUSH2 0xAE1 SWAP2 SWAP1 PUSH2 0x48FE JUMP JUMPDEST PUSH1 0x40 MLOAD DUP1 SWAP2 SUB SWAP1 RETURN JUMPDEST PUSH2 0xAF2 PUSH2 0x2743 JUMP JUMPDEST PUSH1 0x40 MLOAD PUSH2 0xAFF SWAP2 SWAP1 PUSH2 0x48FE JUMP JUMPDEST PUSH1 0x40 MLOAD DUP1 SWAP2 SUB SWAP1 RETURN JUMPDEST PUSH1 0x8 SLOAD DUP2 JUMP JUMPDEST PUSH8 0xDE0B6B3A7640000 DUP2 JUMP JUMPDEST PUSH1 0xF DUP1 SLOAD PUSH2 0xB27 SWAP1 PUSH2 0x51C5 JUMP JUMPDEST DUP1 PUSH1 0x1F ADD PUSH1 0x20 DUP1 SWAP2 DIV MUL PUSH1 0x20 ADD PUSH1 0x40 MLOAD SWAP1 DUP2 ADD PUSH1 0x40 MSTORE DUP1 SWAP3 SWAP2 SWAP1 DUP2 DUP2 MSTORE PUSH1 0x20 ADD DUP3 DUP1 SLOAD PUSH2 0xB53 SWAP1 PUSH2 0x51C5 JUMP JUMPDEST DUP1 ISZERO PUSH2 0xBA0 JUMPI DUP1 PUSH1 0x1F LT PUSH2 0xB75 JUMPI PUSH2 0x100 DUP1 DUP4 SLOAD DIV MUL DUP4 MSTORE SWAP2 PUSH1 0x20 ADD SWAP2 PUSH2 0xBA0 JUMP JUMPDEST DUP3 ADD SWAP2 SWAP1 PUSH1 0x0 MSTORE PUSH1 0x20 PUSH1 0x0 KECCAK256 SWAP1 JUMPDEST DUP2 SLOAD DUP2 MSTORE SWAP1 PUSH1 0x1 ADD SWAP1 PUSH1 0x20 ADD DUP1 DUP4 GT PUSH2 0xB83 JUMPI DUP3 SWAP1 SUB PUSH1 0x1F AND DUP3 ADD SWAP2 JUMPDEST POP POP POP POP POP DUP2 JUMP JUMPDEST PUSH1 0x14 PUSH1 0x20 MSTORE DUP1 PUSH1 0x0 MSTORE PUSH1 0x40 PUSH1 0x0 KECCAK256 PUSH1 0x0 SWAP2 POP SWAP1 POP SLOAD DUP2 JUMP JUMPDEST PUSH2 0xBCA CALLER DUP3 PUSH2 0x2769 JUMP JUMPDEST POP JUMP JUMPDEST PUSH1 0x0 DUP1 PUSH1 0xA SLOAD SWAP1 POP PUSH1 0x0 PUSH1 0xB PUSH1 0x0 DUP4 DUP2 MSTORE PUSH1 0x20 ADD SWAP1 DUP2 MSTORE PUSH1 0x20 ADD PUSH1 0x0 KECCAK256 PUSH1 0x40 MLOAD DUP1 PUSH1 0x80 ADD PUSH1 0x40 MSTORE SWAP1 DUP2 PUSH1 0x0 DUP3 ADD SLOAD DUP2 MSTORE PUSH1 0x20 ADD PUSH1 0x1 DUP3 ADD SLOAD DUP2 MSTORE PUSH1 0x20 ADD PUSH1 0x2 DUP3 ADD SLOAD DUP2 MSTORE PUSH1 0x20 ADD PUSH1 0x3 DUP3 ADD SLOAD DUP2 MSTORE POP POP SWAP1 POP PUSH2 0xC29 DUP2 TIMESTAMP PUSH2 0x28B0 JUMP JUMPDEST SWAP3 POP POP POP SWAP1 JUMP JUMPDEST PUSH2 0xC3B DUP4 DUP4 DUP4 PUSH2 0x29C3 JUMP JUMPDEST POP POP POP JUMP JUMPDEST PUSH1 0x2 SLOAD DUP2 JUMP JUMPDEST PUSH1 0x11 SLOAD DUP2 JUMP JUMPDEST PUSH1 0xB PUSH1 0x20 MSTORE DUP1 PUSH1 0x0 MSTORE PUSH1 0x40 PUSH1 0x0 KECCAK256 PUSH1 0x0 SWAP2 POP SWAP1 POP DUP1 PUSH1 0x0 ADD SLOAD SWAP1 DUP1 PUSH1 0x1 ADD SLOAD SWAP1 DUP1 PUSH1 0x2 ADD SLOAD SWAP1 DUP1 PUSH1 0x3 ADD SLOAD SWAP1 POP DUP5 JUMP JUMPDEST PUSH1 0xC PUSH1 0x20 MSTORE DUP2 PUSH1 0x0 MSTORE PUSH1 0x40 PUSH1 0x0 KECCAK256 PUSH1 0x20 MSTORE DUP1 PUSH1 0x0 MSTORE PUSH1 0x40 PUSH1 0x0 KECCAK256 PUSH1 0x0 SWAP2 POP SWAP2 POP POP DUP1 PUSH1 0x0 ADD SLOAD SWAP1 DUP1 PUSH1 0x1 ADD SLOAD SWAP1 DUP1 PUSH1 0x2 ADD SLOAD SWAP1 DUP1 PUSH1 0x3 ADD SLOAD SWAP1 POP DUP5 JUMP JUMPDEST PUSH2 0xCC1 PUSH2 0x3E9F JUMP JUMPDEST PUSH1 0xB PUSH1 0x0 DUP4 DUP2 MSTORE PUSH1 0x20 ADD SWAP1 DUP2 MSTORE PUSH1 0x20 ADD PUSH1 0x0 KECCAK256 PUSH1 0x40 MLOAD DUP1 PUSH1 0x80 ADD PUSH1 0x40 MSTORE SWAP1 DUP2 PUSH1 0x0 DUP3 ADD SLOAD DUP2 MSTORE PUSH1 0x20 ADD PUSH1 0x1 DUP3 ADD SLOAD DUP2 MSTORE PUSH1 0x20 ADD PUSH1 0x2 DUP3 ADD SLOAD DUP2 MSTORE PUSH1 0x20 ADD PUSH1 0x3 DUP3 ADD SLOAD DUP2 MSTORE POP POP SWAP1 POP SWAP2 SWAP1 POP JUMP JUMPDEST PUSH1 0x0 PUSH1 0x40 MLOAD DUP1 PUSH1 0x40 ADD PUSH1 0x40 MSTORE DUP1 PUSH1 0x9 PUSH1 0x0 CALLER PUSH20 0xFFFFFFFFFFFFFFFFFFFFFFFFFFFFFFFFFFFFFFFF AND PUSH20 0xFFFFFFFFFFFFFFFFFFFFFFFFFFFFFFFFFFFFFFFF AND DUP2 MSTORE PUSH1 0x20 ADD SWAP1 DUP2 MSTORE PUSH1 0x20 ADD PUSH1 0x0 KECCAK256 PUSH1 0x0 ADD SLOAD DUP2 MSTORE PUSH1 0x20 ADD PUSH1 0x9 PUSH1 0x0 CALLER PUSH20 0xFFFFFFFFFFFFFFFFFFFFFFFFFFFFFFFFFFFFFFFF AND PUSH20 0xFFFFFFFFFFFFFFFFFFFFFFFFFFFFFFFFFFFFFFFF AND DUP2 MSTORE PUSH1 0x20 ADD SWAP1 DUP2 MSTORE PUSH1 0x20 ADD PUSH1 0x0 KECCAK256 PUSH1 0x1 ADD SLOAD DUP2 MSTORE POP SWAP1 POP DUP1 PUSH1 0x20 ADD MLOAD TIMESTAMP LT ISZERO PUSH2 0xDF2 JUMPI PUSH1 0x40 MLOAD PUSH32 0x8C379A000000000000000000000000000000000000000000000000000000000 DUP2 MSTORE PUSH1 0x4 ADD PUSH2 0xDE9 SWAP1 PUSH2 0x4C7F JUMP JUMPDEST PUSH1 0x40 MLOAD DUP1 SWAP2 SUB SWAP1 REVERT JUMPDEST PUSH1 0x0 DUP2 PUSH1 0x0 ADD MLOAD SWAP1 POP PUSH1 0x0 PUSH1 0x40 MLOAD DUP1 PUSH1 0x40 ADD PUSH1 0x40 MSTORE DUP1 PUSH1 0x9 PUSH1 0x0 CALLER PUSH20 0xFFFFFFFFFFFFFFFFFFFFFFFFFFFFFFFFFFFFFFFF AND PUSH20 0xFFFFFFFFFFFFFFFFFFFFFFFFFFFFFFFFFFFFFFFF AND DUP2 MSTORE PUSH1 0x20 ADD SWAP1 DUP2 MSTORE PUSH1 0x20 ADD PUSH1 0x0 KECCAK256 PUSH1 0x0 ADD SLOAD DUP2 MSTORE PUSH1 0x20 ADD PUSH1 0x9 PUSH1 0x0 CALLER PUSH20 0xFFFFFFFFFFFFFFFFFFFFFFFFFFFFFFFFFFFFFFFF AND PUSH20 0xFFFFFFFFFFFFFFFFFFFFFFFFFFFFFFFFFFFFFFFF AND DUP2 MSTORE PUSH1 0x20 ADD SWAP1 DUP2 MSTORE PUSH1 0x20 ADD PUSH1 0x0 KECCAK256 PUSH1 0x1 ADD SLOAD DUP2 MSTORE POP SWAP1 POP PUSH1 0x0 DUP4 PUSH1 0x20 ADD DUP2 DUP2 MSTORE POP POP PUSH1 0x0 DUP4 PUSH1 0x0 ADD DUP2 DUP2 MSTORE POP POP DUP3 PUSH1 0x9 PUSH1 0x0 CALLER PUSH20 0xFFFFFFFFFFFFFFFFFFFFFFFFFFFFFFFFFFFFFFFF AND PUSH20 0xFFFFFFFFFFFFFFFFFFFFFFFFFFFFFFFFFFFFFFFF AND DUP2 MSTORE PUSH1 0x20 ADD SWAP1 DUP2 MSTORE PUSH1 0x20 ADD PUSH1 0x0 KECCAK256 PUSH1 0x0 DUP3 ADD MLOAD DUP2 PUSH1 0x0 ADD SSTORE PUSH1 0x20 DUP3 ADD MLOAD DUP2 PUSH1 0x1 ADD SSTORE SWAP1 POP POP PUSH1 0x0 PUSH1 0x8 SLOAD SWAP1 POP DUP3 DUP2 PUSH2 0xF18 SWAP2 SWAP1 PUSH2 0x510C JUMP JUMPDEST PUSH1 0x8 DUP2 SWAP1 SSTORE POP PUSH2 0xF29 CALLER DUP4 DUP7 PUSH2 0x2B72 JUMP JUMPDEST PUSH2 0xF76 CALLER DUP5 PUSH1 0x7 PUSH1 0x0 SWAP1 SLOAD SWAP1 PUSH2 0x100 EXP SWAP1 DIV PUSH20 0xFFFFFFFFFFFFFFFFFFFFFFFFFFFFFFFFFFFFFFFF AND PUSH20 0xFFFFFFFFFFFFFFFFFFFFFFFFFFFFFFFFFFFFFFFF AND PUSH2 0x3315 SWAP1 SWAP3 SWAP2 SWAP1 PUSH4 0xFFFFFFFF AND JUMP JUMPDEST CALLER PUSH20 0xFFFFFFFFFFFFFFFFFFFFFFFFFFFFFFFFFFFFFFFF AND PUSH32 0xF279E6A1F5E320CCA91135676D9CB6E44CA8A08C0B88342BCDB1144F6511B568 DUP5 TIMESTAMP PUSH1 0x40 MLOAD PUSH2 0xFBE SWAP3 SWAP2 SWAP1 PUSH2 0x4CF0 JUMP JUMPDEST PUSH1 0x40 MLOAD DUP1 SWAP2 SUB SWAP1 LOG2 PUSH32 0x5E2AA66EFD74CCE82B21852E317E5490D9ECC9E6BB953AE24D90851258CC2F5C DUP2 DUP5 DUP4 PUSH2 0xFF4 SWAP2 SWAP1 PUSH2 0x510C JUMP JUMPDEST PUSH1 0x40 MLOAD PUSH2 0x1002 SWAP3 SWAP2 SWAP1 PUSH2 0x4CF0 JUMP JUMPDEST PUSH1 0x40 MLOAD DUP1 SWAP2 SUB SWAP1 LOG1 POP POP POP POP JUMP JUMPDEST PUSH1 0x0 PUSH2 0x101C DUP4 DUP4 PUSH2 0x339B JUMP JUMPDEST PUSH1 0x0 ADD MLOAD SWAP1 POP SWAP3 SWAP2 POP POP JUMP JUMPDEST PUSH1 0x0 PUSH1 0x9 PUSH1 0x0 DUP4 PUSH20 0xFFFFFFFFFFFFFFFFFFFFFFFFFFFFFFFFFFFFFFFF AND PUSH20 0xFFFFFFFFFFFFFFFFFFFFFFFFFFFFFFFFFFFFFFFF AND DUP2 MSTORE PUSH1 0x20 ADD SWAP1 DUP2 MSTORE PUSH1 0x20 ADD PUSH1 0x0 KECCAK256 PUSH1 0x1 ADD SLOAD SWAP1 POP SWAP2 SWAP1 POP JUMP JUMPDEST PUSH1 0x0 DUP1 CALLER SWAP1 POP PUSH1 0x13 SLOAD TIMESTAMP LT PUSH2 0x108C JUMPI PUSH2 0x108B PUSH2 0x1800 JUMP JUMPDEST JUMPDEST PUSH1 0x0 PUSH2 0x1098 DUP3 TIMESTAMP PUSH2 0x339B JUMP JUMPDEST SWAP1 POP PUSH1 0x0 DUP2 PUSH1 0x0 ADD MLOAD SWAP1 POP DUP2 PUSH1 0x20 ADD MLOAD PUSH1 0x16 PUSH1 0x0 DUP6 PUSH20 0xFFFFFFFFFFFFFFFFFFFFFFFFFFFFFFFFFFFFFFFF AND PUSH20 0xFFFFFFFFFFFFFFFFFFFFFFFFFFFFFFFFFFFFFFFF AND DUP2 MSTORE PUSH1 0x20 ADD SWAP1 DUP2 MSTORE PUSH1 0x20 ADD PUSH1 0x0 KECCAK256 DUP2 SWAP1 SSTORE POP DUP2 PUSH1 0x60 ADD MLOAD PUSH1 0x15 PUSH1 0x0 DUP6 PUSH20 0xFFFFFFFFFFFFFFFFFFFFFFFFFFFFFFFFFFFFFFFF AND PUSH20 0xFFFFFFFFFFFFFFFFFFFFFFFFFFFFFFFFFFFFFFFF AND DUP2 MSTORE PUSH1 0x20 ADD SWAP1 DUP2 MSTORE PUSH1 0x20 ADD PUSH1 0x0 KECCAK256 DUP2 SWAP1 SSTORE POP PUSH1 0x0 DUP2 EQ PUSH2 0x13DF JUMPI PUSH1 0x0 PUSH1 0x7 PUSH1 0x0 SWAP1 SLOAD SWAP1 PUSH2 0x100 EXP SWAP1 DIV PUSH20 0xFFFFFFFFFFFFFFFFFFFFFFFFFFFFFFFFFFFFFFFF AND PUSH20 0xFFFFFFFFFFFFFFFFFFFFFFFFFFFFFFFFFFFFFFFF AND PUSH4 0x70A08231 ADDRESS PUSH1 0x40 MLOAD DUP3 PUSH4 0xFFFFFFFF AND PUSH1 0xE0 SHL DUP2 MSTORE PUSH1 0x4 ADD PUSH2 0x1198 SWAP2 SWAP1 PUSH2 0x48FE JUMP JUMPDEST PUSH1 0x20 PUSH1 0x40 MLOAD DUP1 DUP4 SUB DUP2 DUP7 DUP1 EXTCODESIZE ISZERO DUP1 ISZERO PUSH2 0x11B0 JUMPI PUSH1 0x0 DUP1 REVERT JUMPDEST POP GAS STATICCALL ISZERO DUP1 ISZERO PUSH2 0x11C4 JUMPI RETURNDATASIZE PUSH1 0x0 DUP1 RETURNDATACOPY RETURNDATASIZE PUSH1 0x0 REVERT JUMPDEST POP POP POP POP PUSH1 0x40 MLOAD RETURNDATASIZE PUSH1 0x1F NOT PUSH1 0x1F DUP3 ADD AND DUP3 ADD DUP1 PUSH1 0x40 MSTORE POP DUP2 ADD SWAP1 PUSH2 0x11E8 SWAP2 SWAP1 PUSH2 0x4170 JUMP JUMPDEST SWAP1 POP PUSH1 0x0 DUP2 GT DUP1 ISZERO PUSH2 0x11FA JUMPI POP DUP2 DUP2 LT ISZERO JUMPDEST ISZERO PUSH2 0x12F2 JUMPI PUSH1 0x7 PUSH1 0x0 SWAP1 SLOAD SWAP1 PUSH2 0x100 EXP SWAP1 DIV PUSH20 0xFFFFFFFFFFFFFFFFFFFFFFFFFFFFFFFFFFFFFFFF AND PUSH20 0xFFFFFFFFFFFFFFFFFFFFFFFFFFFFFFFFFFFFFFFF AND PUSH4 0xA9059CBB DUP6 DUP5 PUSH1 0x40 MLOAD DUP4 PUSH4 0xFFFFFFFF AND PUSH1 0xE0 SHL DUP2 MSTORE PUSH1 0x4 ADD PUSH2 0x125C SWAP3 SWAP2 SWAP1 PUSH2 0x4950 JUMP JUMPDEST PUSH1 0x20 PUSH1 0x40 MLOAD DUP1 DUP4 SUB DUP2 PUSH1 0x0 DUP8 DUP1 EXTCODESIZE ISZERO DUP1 ISZERO PUSH2 0x1276 JUMPI PUSH1 0x0 DUP1 REVERT JUMPDEST POP GAS CALL ISZERO DUP1 ISZERO PUSH2 0x128A JUMPI RETURNDATASIZE PUSH1 0x0 DUP1 RETURNDATACOPY RETURNDATASIZE PUSH1 0x0 REVERT JUMPDEST POP POP POP POP PUSH1 0x40 MLOAD RETURNDATASIZE PUSH1 0x1F NOT PUSH1 0x1F DUP3 ADD AND DUP3 ADD DUP1 PUSH1 0x40 MSTORE POP DUP2 ADD SWAP1 PUSH2 0x12AE SWAP2 SWAP1 PUSH2 0x411E JUMP JUMPDEST PUSH2 0x12ED JUMPI PUSH1 0x40 MLOAD PUSH32 0x8C379A000000000000000000000000000000000000000000000000000000000 DUP2 MSTORE PUSH1 0x4 ADD PUSH2 0x12E4 SWAP1 PUSH2 0x4C1F JUMP JUMPDEST PUSH1 0x40 MLOAD DUP1 SWAP2 SUB SWAP1 REVERT JUMPDEST PUSH2 0x132D JUMP JUMPDEST PUSH1 0x40 MLOAD PUSH32 0x8C379A000000000000000000000000000000000000000000000000000000000 DUP2 MSTORE PUSH1 0x4 ADD PUSH2 0x1324 SWAP1 PUSH2 0x4B7F JUMP JUMPDEST PUSH1 0x40 MLOAD DUP1 SWAP2 SUB SWAP1 REVERT JUMPDEST DUP2 PUSH1 0x17 PUSH1 0x0 DUP7 PUSH20 0xFFFFFFFFFFFFFFFFFFFFFFFFFFFFFFFFFFFFFFFF AND PUSH20 0xFFFFFFFFFFFFFFFFFFFFFFFFFFFFFFFFFFFFFFFF AND DUP2 MSTORE PUSH1 0x20 ADD SWAP1 DUP2 MSTORE PUSH1 0x20 ADD PUSH1 0x0 KECCAK256 PUSH1 0x0 DUP3 DUP3 SLOAD PUSH2 0x137C SWAP2 SWAP1 PUSH2 0x4E16 JUMP JUMPDEST SWAP3 POP POP DUP2 SWAP1 SSTORE POP DUP4 PUSH20 0xFFFFFFFFFFFFFFFFFFFFFFFFFFFFFFFFFFFFFFFF AND PUSH32 0x9CDCF2F7714CCA3508C7F0110B04A90A80A3A8DD0E35DE99689DB74D28C5383E DUP4 DUP6 PUSH1 0x20 ADD MLOAD DUP7 PUSH1 0x40 ADD MLOAD PUSH1 0x40 MLOAD PUSH2 0x13D5 SWAP4 SWAP3 SWAP2 SWAP1 PUSH2 0x4D19 JUMP JUMPDEST PUSH1 0x40 MLOAD DUP1 SWAP2 SUB SWAP1 LOG2 POP JUMPDEST DUP1 SWAP4 POP POP POP POP SWAP1 JUMP JUMPDEST PUSH1 0x0 NUMBER DUP3 GT ISZERO PUSH2 0x142D JUMPI PUSH1 0x40 MLOAD PUSH32 0x8C379A000000000000000000000000000000000000000000000000000000000 DUP2 MSTORE PUSH1 0x4 ADD PUSH2 0x1424 SWAP1 PUSH2 0x4BDF JUMP JUMPDEST PUSH1 0x40 MLOAD DUP1 SWAP2 SUB SWAP1 REVERT JUMPDEST PUSH2 0x1435 PUSH2 0x3EC7 JUMP JUMPDEST PUSH1 0x0 DUP2 PUSH1 0x0 ADD DUP2 DUP2 MSTORE POP POP PUSH1 0xD PUSH1 0x0 DUP6 PUSH20 0xFFFFFFFFFFFFFFFFFFFFFFFFFFFFFFFFFFFFFFFF AND PUSH20 0xFFFFFFFFFFFFFFFFFFFFFFFFFFFFFFFFFFFFFFFF AND DUP2 MSTORE PUSH1 0x20 ADD SWAP1 DUP2 MSTORE PUSH1 0x20 ADD PUSH1 0x0 KECCAK256 SLOAD DUP2 PUSH1 0x20 ADD DUP2 DUP2 MSTORE POP POP PUSH1 0x0 JUMPDEST PUSH1 0x80 DUP2 GT PUSH2 0x156C JUMPI DUP2 PUSH1 0x20 ADD MLOAD DUP3 PUSH1 0x0 ADD MLOAD LT PUSH2 0x14A8 JUMPI PUSH2 0x156C JUMP JUMPDEST PUSH1 0x0 PUSH1 0x2 PUSH1 0x1 DUP5 PUSH1 0x20 ADD MLOAD DUP6 PUSH1 0x0 ADD MLOAD PUSH2 0x14C2 SWAP2 SWAP1 PUSH2 0x4E16 JUMP JUMPDEST PUSH2 0x14CC SWAP2 SWAP1 PUSH2 0x4E16 JUMP JUMPDEST PUSH2 0x14D6 SWAP2 SWAP1 PUSH2 0x4ED6 JUMP JUMPDEST SWAP1 POP DUP5 PUSH1 0xC PUSH1 0x0 DUP9 PUSH20 0xFFFFFFFFFFFFFFFFFFFFFFFFFFFFFFFFFFFFFFFF AND PUSH20 0xFFFFFFFFFFFFFFFFFFFFFFFFFFFFFFFFFFFFFFFF AND DUP2 MSTORE PUSH1 0x20 ADD SWAP1 DUP2 MSTORE PUSH1 0x20 ADD PUSH1 0x0 KECCAK256 PUSH1 0x0 DUP4 DUP2 MSTORE PUSH1 0x20 ADD SWAP1 DUP2 MSTORE PUSH1 0x20 ADD PUSH1 0x0 KECCAK256 PUSH1 0x3 ADD SLOAD GT PUSH2 0x1541 JUMPI DUP1 DUP4 PUSH1 0x0 ADD DUP2 DUP2 MSTORE POP POP PUSH2 0x1558 JUMP JUMPDEST PUSH1 0x1 DUP2 PUSH2 0x154E SWAP2 SWAP1 PUSH2 0x510C JUMP JUMPDEST DUP4 PUSH1 0x20 ADD DUP2 DUP2 MSTORE POP POP JUMPDEST POP DUP1 DUP1 PUSH2 0x1564 SWAP1 PUSH2 0x51F7 JUMP JUMPDEST SWAP2 POP POP PUSH2 0x148C JUMP JUMPDEST POP PUSH1 0x0 PUSH1 0xC PUSH1 0x0 DUP7 PUSH20 0xFFFFFFFFFFFFFFFFFFFFFFFFFFFFFFFFFFFFFFFF AND PUSH20 0xFFFFFFFFFFFFFFFFFFFFFFFFFFFFFFFFFFFFFFFF AND DUP2 MSTORE PUSH1 0x20 ADD SWAP1 DUP2 MSTORE PUSH1 0x20 ADD PUSH1 0x0 KECCAK256 PUSH1 0x0 DUP4 PUSH1 0x0 ADD MLOAD DUP2 MSTORE PUSH1 0x20 ADD SWAP1 DUP2 MSTORE PUSH1 0x20 ADD PUSH1 0x0 KECCAK256 PUSH1 0x40 MLOAD DUP1 PUSH1 0x80 ADD PUSH1 0x40 MSTORE SWAP1 DUP2 PUSH1 0x0 DUP3 ADD SLOAD DUP2 MSTORE PUSH1 0x20 ADD PUSH1 0x1 DUP3 ADD SLOAD DUP2 MSTORE PUSH1 0x20 ADD PUSH1 0x2 DUP3 ADD SLOAD DUP2 MSTORE PUSH1 0x20 ADD PUSH1 0x3 DUP3 ADD SLOAD DUP2 MSTORE POP POP SWAP1 POP PUSH1 0xA SLOAD DUP3 PUSH1 0x40 ADD DUP2 DUP2 MSTORE POP POP PUSH1 0x0 PUSH2 0x1614 DUP6 DUP5 PUSH1 0x40 ADD MLOAD PUSH2 0x3831 JUMP JUMPDEST SWAP1 POP PUSH1 0x0 PUSH1 0xB PUSH1 0x0 DUP4 DUP2 MSTORE PUSH1 0x20 ADD SWAP1 DUP2 MSTORE PUSH1 0x20 ADD PUSH1 0x0 KECCAK256 PUSH1 0x40 MLOAD DUP1 PUSH1 0x80 ADD PUSH1 0x40 MSTORE SWAP1 DUP2 PUSH1 0x0 DUP3 ADD SLOAD DUP2 MSTORE PUSH1 0x20 ADD PUSH1 0x1 DUP3 ADD SLOAD DUP2 MSTORE PUSH1 0x20 ADD PUSH1 0x2 DUP3 ADD SLOAD DUP2 MSTORE PUSH1 0x20 ADD PUSH1 0x3 DUP3 ADD SLOAD DUP2 MSTORE POP POP SWAP1 POP PUSH1 0x0 DUP5 PUSH1 0x60 ADD DUP2 DUP2 MSTORE POP POP PUSH1 0x0 DUP5 PUSH1 0x80 ADD DUP2 DUP2 MSTORE POP POP DUP4 PUSH1 0x40 ADD MLOAD DUP3 LT ISZERO PUSH2 0x1718 JUMPI PUSH1 0x0 PUSH1 0xB PUSH1 0x0 PUSH1 0x1 DUP6 PUSH2 0x1695 SWAP2 SWAP1 PUSH2 0x4E16 JUMP JUMPDEST DUP2 MSTORE PUSH1 0x20 ADD SWAP1 DUP2 MSTORE PUSH1 0x20 ADD PUSH1 0x0 KECCAK256 PUSH1 0x40 MLOAD DUP1 PUSH1 0x80 ADD PUSH1 0x40 MSTORE SWAP1 DUP2 PUSH1 0x0 DUP3 ADD SLOAD DUP2 MSTORE PUSH1 0x20 ADD PUSH1 0x1 DUP3 ADD SLOAD DUP2 MSTORE PUSH1 0x20 ADD PUSH1 0x2 DUP3 ADD SLOAD DUP2 MSTORE PUSH1 0x20 ADD PUSH1 0x3 DUP3 ADD SLOAD DUP2 MSTORE POP POP SWAP1 POP DUP2 PUSH1 0x60 ADD MLOAD DUP2 PUSH1 0x60 ADD MLOAD PUSH2 0x16EC SWAP2 SWAP1 PUSH2 0x510C JUMP JUMPDEST DUP6 PUSH1 0x60 ADD DUP2 DUP2 MSTORE POP POP DUP2 PUSH1 0x40 ADD MLOAD DUP2 PUSH1 0x40 ADD MLOAD PUSH2 0x1709 SWAP2 SWAP1 PUSH2 0x510C JUMP JUMPDEST DUP6 PUSH1 0x80 ADD DUP2 DUP2 MSTORE POP POP POP PUSH2 0x174B JUMP JUMPDEST DUP1 PUSH1 0x60 ADD MLOAD NUMBER PUSH2 0x1728 SWAP2 SWAP1 PUSH2 0x510C JUMP JUMPDEST DUP5 PUSH1 0x60 ADD DUP2 DUP2 MSTORE POP POP DUP1 PUSH1 0x40 ADD MLOAD TIMESTAMP PUSH2 0x1741 SWAP2 SWAP1 PUSH2 0x510C JUMP JUMPDEST DUP5 PUSH1 0x80 ADD DUP2 DUP2 MSTORE POP POP JUMPDEST PUSH1 0x0 DUP2 PUSH1 0x40 ADD MLOAD SWAP1 POP PUSH1 0x0 DUP6 PUSH1 0x60 ADD MLOAD EQ PUSH2 0x179C JUMPI DUP5 PUSH1 0x60 ADD MLOAD DUP3 PUSH1 0x60 ADD MLOAD DUP9 PUSH2 0x1775 SWAP2 SWAP1 PUSH2 0x510C JUMP JUMPDEST DUP7 PUSH1 0x80 ADD MLOAD PUSH2 0x1784 SWAP2 SWAP1 PUSH2 0x501E JUMP JUMPDEST PUSH2 0x178E SWAP2 SWAP1 PUSH2 0x4ED6 JUMP JUMPDEST DUP2 PUSH2 0x1799 SWAP2 SWAP1 PUSH2 0x4E16 JUMP JUMPDEST SWAP1 POP JUMPDEST DUP4 PUSH1 0x40 ADD MLOAD DUP2 PUSH2 0x17AC SWAP2 SWAP1 PUSH2 0x510C JUMP JUMPDEST DUP5 PUSH1 0x20 ADD MLOAD PUSH2 0x17BB SWAP2 SWAP1 PUSH2 0x4F07 JUMP JUMPDEST DUP5 PUSH1 0x0 ADD DUP2 DUP2 MLOAD PUSH2 0x17CC SWAP2 SWAP1 PUSH2 0x5078 JUMP JUMPDEST SWAP2 POP DUP2 DUP2 MSTORE POP POP PUSH1 0x0 DUP5 PUSH1 0x0 ADD MLOAD SLT PUSH2 0x17F0 JUMPI DUP4 PUSH1 0x0 ADD MLOAD SWAP6 POP POP POP POP POP POP PUSH2 0x17FA JUMP JUMPDEST PUSH1 0x0 SWAP6 POP POP POP POP POP POP JUMPDEST SWAP3 SWAP2 POP POP JUMP JUMPDEST PUSH1 0x0 PUSH1 0x13 SLOAD SWAP1 POP PUSH1 0x0 PUSH3 0x93A80 DUP1 TIMESTAMP PUSH2 0x1819 SWAP2 SWAP1 PUSH2 0x4ED6 JUMP JUMPDEST PUSH2 0x1823 SWAP2 SWAP1 PUSH2 0x501E JUMP JUMPDEST SWAP1 POP PUSH2 0x182D PUSH2 0x1A24 JUMP JUMPDEST PUSH1 0x0 JUMPDEST PUSH1 0x34 DUP2 LT ISZERO PUSH2 0x1944 JUMPI DUP2 DUP4 GT ISZERO PUSH2 0x1846 JUMPI PUSH2 0x1944 JUMP JUMPDEST PUSH1 0x0 PUSH2 0x1851 DUP5 PUSH2 0x38D1 JUMP JUMPDEST SWAP1 POP PUSH1 0x0 PUSH1 0xB PUSH1 0x0 DUP4 DUP2 MSTORE PUSH1 0x20 ADD SWAP1 DUP2 MSTORE PUSH1 0x20 ADD PUSH1 0x0 KECCAK256 PUSH1 0x40 MLOAD DUP1 PUSH1 0x80 ADD PUSH1 0x40 MSTORE SWAP1 DUP2 PUSH1 0x0 DUP3 ADD SLOAD DUP2 MSTORE PUSH1 0x20 ADD PUSH1 0x1 DUP3 ADD SLOAD DUP2 MSTORE PUSH1 0x20 ADD PUSH1 0x2 DUP3 ADD SLOAD DUP2 MSTORE PUSH1 0x20 ADD PUSH1 0x3 DUP3 ADD SLOAD DUP2 MSTORE POP POP SWAP1 POP PUSH1 0x0 DUP2 PUSH1 0x40 ADD MLOAD DUP7 GT ISZERO PUSH2 0x18BE JUMPI DUP2 PUSH1 0x40 ADD MLOAD DUP7 PUSH2 0x18BB SWAP2 SWAP1 PUSH2 0x510C JUMP JUMPDEST SWAP1 POP JUMPDEST PUSH1 0x0 DUP2 DUP4 PUSH1 0x20 ADD MLOAD PUSH2 0x18D0 SWAP2 SWAP1 PUSH2 0x4F07 JUMP JUMPDEST DUP4 PUSH1 0x0 ADD MLOAD PUSH2 0x18DF SWAP2 SWAP1 PUSH2 0x5078 JUMP JUMPDEST SWAP1 POP PUSH1 0x0 PUSH1 0x14 PUSH1 0x0 DUP10 DUP2 MSTORE PUSH1 0x20 ADD SWAP1 DUP2 MSTORE PUSH1 0x20 ADD PUSH1 0x0 KECCAK256 DUP2 SWAP1 SSTORE POP PUSH1 0x0 DUP2 SGT ISZERO PUSH2 0x191C JUMPI DUP1 PUSH1 0x14 PUSH1 0x0 DUP10 DUP2 MSTORE PUSH1 0x20 ADD SWAP1 DUP2 MSTORE PUSH1 0x20 ADD PUSH1 0x0 KECCAK256 DUP2 SWAP1 SSTORE POP JUMPDEST POP POP POP POP PUSH3 0x93A80 DUP4 PUSH2 0x192F SWAP2 SWAP1 PUSH2 0x4E16 JUMP JUMPDEST SWAP3 POP DUP1 DUP1 PUSH2 0x193C SWAP1 PUSH2 0x51F7 JUMP JUMPDEST SWAP2 POP POP PUSH2 0x1830 JUMP JUMPDEST POP DUP2 PUSH1 0x13 DUP2 SWAP1 SSTORE POP POP POP JUMP JUMPDEST PUSH1 0x5 SLOAD DUP2 JUMP JUMPDEST PUSH2 0x195E PUSH2 0x3E9F JUMP JUMPDEST PUSH1 0xC PUSH1 0x0 DUP5 PUSH20 0xFFFFFFFFFFFFFFFFFFFFFFFFFFFFFFFFFFFFFFFF AND PUSH20 0xFFFFFFFFFFFFFFFFFFFFFFFFFFFFFFFFFFFFFFFF AND DUP2 MSTORE PUSH1 0x20 ADD SWAP1 DUP2 MSTORE PUSH1 0x20 ADD PUSH1 0x0 KECCAK256 PUSH1 0x0 DUP4 DUP2 MSTORE PUSH1 0x20 ADD SWAP1 DUP2 MSTORE PUSH1 0x20 ADD PUSH1 0x0 KECCAK256 PUSH1 0x40 MLOAD DUP1 PUSH1 0x80 ADD PUSH1 0x40 MSTORE SWAP1 DUP2 PUSH1 0x0 DUP3 ADD SLOAD DUP2 MSTORE PUSH1 0x20 ADD PUSH1 0x1 DUP3 ADD SLOAD DUP2 MSTORE PUSH1 0x20 ADD PUSH1 0x2 DUP3 ADD SLOAD DUP2 MSTORE PUSH1 0x20 ADD PUSH1 0x3 DUP3 ADD SLOAD DUP2 MSTORE POP POP SWAP1 POP SWAP3 SWAP2 POP POP JUMP JUMPDEST PUSH1 0x4 SLOAD DUP2 JUMP JUMPDEST PUSH1 0x16 PUSH1 0x20 MSTORE DUP1 PUSH1 0x0 MSTORE PUSH1 0x40 PUSH1 0x0 KECCAK256 PUSH1 0x0 SWAP2 POP SWAP1 POP SLOAD DUP2 JUMP JUMPDEST PUSH1 0x12 SLOAD DUP2 JUMP JUMPDEST PUSH1 0x0 PUSH1 0x5 SLOAD PUSH1 0x4 SLOAD PUSH2 0x1A1F SWAP2 SWAP1 PUSH2 0x4ED6 JUMP JUMPDEST SWAP1 POP SWAP1 JUMP JUMPDEST PUSH2 0x1A2C PUSH2 0x3EF6 JUMP JUMPDEST PUSH2 0x1A34 PUSH2 0x3EF6 JUMP JUMPDEST PUSH2 0x1A40 PUSH1 0x0 DUP4 DUP4 PUSH2 0x2B72 JUMP JUMPDEST POP POP JUMP JUMPDEST PUSH1 0x0 PUSH1 0x9 PUSH1 0x0 CALLER PUSH20 0xFFFFFFFFFFFFFFFFFFFFFFFFFFFFFFFFFFFFFFFF AND PUSH20 0xFFFFFFFFFFFFFFFFFFFFFFFFFFFFFFFFFFFFFFFF AND DUP2 MSTORE PUSH1 0x20 ADD SWAP1 DUP2 MSTORE PUSH1 0x20 ADD PUSH1 0x0 KECCAK256 PUSH1 0x40 MLOAD DUP1 PUSH1 0x40 ADD PUSH1 0x40 MSTORE SWAP1 DUP2 PUSH1 0x0 DUP3 ADD SLOAD DUP2 MSTORE PUSH1 0x20 ADD PUSH1 0x1 DUP3 ADD SLOAD DUP2 MSTORE POP POP SWAP1 POP PUSH3 0x93A80 DUP1 DUP4 PUSH2 0x1AB6 SWAP2 SWAP1 PUSH2 0x4ED6 JUMP JUMPDEST PUSH2 0x1AC0 SWAP2 SWAP1 PUSH2 0x501E JUMP JUMPDEST SWAP2 POP TIMESTAMP DUP2 PUSH1 0x20 ADD MLOAD GT PUSH2 0x1B08 JUMPI PUSH1 0x40 MLOAD PUSH32 0x8C379A000000000000000000000000000000000000000000000000000000000 DUP2 MSTORE PUSH1 0x4 ADD PUSH2 0x1AFF SWAP1 PUSH2 0x4B9F JUMP JUMPDEST PUSH1 0x40 MLOAD DUP1 SWAP2 SUB SWAP1 REVERT JUMPDEST PUSH1 0x0 DUP2 PUSH1 0x0 ADD MLOAD SGT PUSH2 0x1B4F JUMPI PUSH1 0x40 MLOAD PUSH32 0x8C379A000000000000000000000000000000000000000000000000000000000 DUP2 MSTORE PUSH1 0x4 ADD PUSH2 0x1B46 SWAP1 PUSH2 0x4ABF JUMP JUMPDEST PUSH1 0x40 MLOAD DUP1 SWAP2 SUB SWAP1 REVERT JUMPDEST DUP1 PUSH1 0x20 ADD MLOAD DUP3 GT PUSH2 0x1B95 JUMPI PUSH1 0x40 MLOAD PUSH32 0x8C379A000000000000000000000000000000000000000000000000000000000 DUP2 MSTORE PUSH1 0x4 ADD PUSH2 0x1B8C SWAP1 PUSH2 0x4A7F JUMP JUMPDEST PUSH1 0x40 MLOAD DUP1 SWAP2 SUB SWAP1 REVERT JUMPDEST PUSH1 0x5 SLOAD TIMESTAMP PUSH2 0x1BA3 SWAP2 SWAP1 PUSH2 0x4E16 JUMP JUMPDEST DUP3 GT ISZERO PUSH2 0x1BE5 JUMPI PUSH1 0x40 MLOAD PUSH32 0x8C379A000000000000000000000000000000000000000000000000000000000 DUP2 MSTORE PUSH1 0x4 ADD PUSH2 0x1BDC SWAP1 PUSH2 0x4B1F JUMP JUMPDEST PUSH1 0x40 MLOAD DUP1 SWAP2 SUB SWAP1 REVERT JUMPDEST PUSH2 0x1BF5 CALLER CALLER PUSH1 0x0 DUP6 DUP6 PUSH1 0x3 PUSH2 0x39AB JUMP JUMPDEST POP POP JUMP JUMPDEST PUSH1 0xD PUSH1 0x20 MSTORE DUP1 PUSH1 0x0 MSTORE PUSH1 0x40 PUSH1 0x0 KECCAK256 PUSH1 0x0 SWAP2 POP SWAP1 POP SLOAD DUP2 JUMP JUMPDEST PUSH1 0x13 SLOAD DUP2 JUMP JUMPDEST PUSH1 0x0 DUP1 DUP3 EQ ISZERO PUSH2 0x1C25 JUMPI TIMESTAMP SWAP2 POP JUMPDEST PUSH1 0x0 PUSH1 0xD PUSH1 0x0 DUP6 PUSH20 0xFFFFFFFFFFFFFFFFFFFFFFFFFFFFFFFFFFFFFFFF AND PUSH20 0xFFFFFFFFFFFFFFFFFFFFFFFFFFFFFFFFFFFFFFFF AND DUP2 MSTORE PUSH1 0x20 ADD SWAP1 DUP2 MSTORE PUSH1 0x20 ADD PUSH1 0x0 KECCAK256 SLOAD SWAP1 POP PUSH1 0x0 DUP2 EQ ISZERO PUSH2 0x1C7C JUMPI PUSH1 0x0 SWAP2 POP POP PUSH2 0x1D5D JUMP JUMPDEST PUSH1 0x0 PUSH1 0xC PUSH1 0x0 DUP7 PUSH20 0xFFFFFFFFFFFFFFFFFFFFFFFFFFFFFFFFFFFFFFFF AND PUSH20 0xFFFFFFFFFFFFFFFFFFFFFFFFFFFFFFFFFFFFFFFF AND DUP2 MSTORE PUSH1 0x20 ADD SWAP1 DUP2 MSTORE PUSH1 0x20 ADD PUSH1 0x0 KECCAK256 PUSH1 0x0 DUP4 DUP2 MSTORE PUSH1 0x20 ADD SWAP1 DUP2 MSTORE PUSH1 0x20 ADD PUSH1 0x0 KECCAK256 PUSH1 0x40 MLOAD DUP1 PUSH1 0x80 ADD PUSH1 0x40 MSTORE SWAP1 DUP2 PUSH1 0x0 DUP3 ADD SLOAD DUP2 MSTORE PUSH1 0x20 ADD PUSH1 0x1 DUP3 ADD SLOAD DUP2 MSTORE PUSH1 0x20 ADD PUSH1 0x2 DUP3 ADD SLOAD DUP2 MSTORE PUSH1 0x20 ADD PUSH1 0x3 DUP3 ADD SLOAD DUP2 MSTORE POP POP SWAP1 POP DUP1 PUSH1 0x40 ADD MLOAD DUP5 PUSH2 0x1D13 SWAP2 SWAP1 PUSH2 0x510C JUMP JUMPDEST DUP2 PUSH1 0x20 ADD MLOAD PUSH2 0x1D22 SWAP2 SWAP1 PUSH2 0x4F07 JUMP JUMPDEST DUP2 PUSH1 0x0 ADD DUP2 DUP2 MLOAD PUSH2 0x1D33 SWAP2 SWAP1 PUSH2 0x5078 JUMP JUMPDEST SWAP2 POP DUP2 DUP2 MSTORE POP POP PUSH1 0x0 DUP2 PUSH1 0x0 ADD MLOAD SLT ISZERO PUSH2 0x1D53 JUMPI PUSH1 0x0 DUP2 PUSH1 0x0 ADD DUP2 DUP2 MSTORE POP POP JUMPDEST DUP1 PUSH1 0x0 ADD MLOAD SWAP3 POP POP POP JUMPDEST SWAP3 SWAP2 POP POP JUMP JUMPDEST PUSH1 0x0 PUSH1 0xD PUSH1 0x0 DUP4 PUSH20 0xFFFFFFFFFFFFFFFFFFFFFFFFFFFFFFFFFFFFFFFF AND PUSH20 0xFFFFFFFFFFFFFFFFFFFFFFFFFFFFFFFFFFFFFFFF AND DUP2 MSTORE PUSH1 0x20 ADD SWAP1 DUP2 MSTORE PUSH1 0x20 ADD PUSH1 0x0 KECCAK256 SLOAD SWAP1 POP SWAP2 SWAP1 POP JUMP JUMPDEST PUSH1 0xA SLOAD DUP2 JUMP JUMPDEST PUSH1 0x10 DUP1 SLOAD PUSH2 0x1DBF SWAP1 PUSH2 0x51C5 JUMP JUMPDEST DUP1 PUSH1 0x1F ADD PUSH1 0x20 DUP1 SWAP2 DIV MUL PUSH1 0x20 ADD PUSH1 0x40 MLOAD SWAP1 DUP2 ADD PUSH1 0x40 MSTORE DUP1 SWAP3 SWAP2 SWAP1 DUP2 DUP2 MSTORE PUSH1 0x20 ADD DUP3 DUP1 SLOAD PUSH2 0x1DEB SWAP1 PUSH2 0x51C5 JUMP JUMPDEST DUP1 ISZERO PUSH2 0x1E38 JUMPI DUP1 PUSH1 0x1F LT PUSH2 0x1E0D JUMPI PUSH2 0x100 DUP1 DUP4 SLOAD DIV MUL DUP4 MSTORE SWAP2 PUSH1 0x20 ADD SWAP2 PUSH2 0x1E38 JUMP JUMPDEST DUP3 ADD SWAP2 SWAP1 PUSH1 0x0 MSTORE PUSH1 0x20 PUSH1 0x0 KECCAK256 SWAP1 JUMPDEST DUP2 SLOAD DUP2 MSTORE SWAP1 PUSH1 0x1 ADD SWAP1 PUSH1 0x20 ADD DUP1 DUP4 GT PUSH2 0x1E1B JUMPI DUP3 SWAP1 SUB PUSH1 0x1F AND DUP3 ADD SWAP2 JUMPDEST POP POP POP POP POP DUP2 JUMP JUMPDEST JUMP JUMPDEST PUSH1 0x0 NUMBER DUP3 GT ISZERO PUSH2 0x1E87 JUMPI PUSH1 0x40 MLOAD PUSH32 0x8C379A000000000000000000000000000000000000000000000000000000000 DUP2 MSTORE PUSH1 0x4 ADD PUSH2 0x1E7E SWAP1 PUSH2 0x4ADF JUMP JUMPDEST PUSH1 0x40 MLOAD DUP1 SWAP2 SUB SWAP1 REVERT JUMPDEST PUSH1 0x0 PUSH1 0xA SLOAD SWAP1 POP PUSH1 0x0 PUSH2 0x1E9A DUP5 DUP4 PUSH2 0x3831 JUMP JUMPDEST SWAP1 POP PUSH1 0x0 PUSH1 0xB PUSH1 0x0 DUP4 DUP2 MSTORE PUSH1 0x20 ADD SWAP1 DUP2 MSTORE PUSH1 0x20 ADD PUSH1 0x0 KECCAK256 PUSH1 0x40 MLOAD DUP1 PUSH1 0x80 ADD PUSH1 0x40 MSTORE SWAP1 DUP2 PUSH1 0x0 DUP3 ADD SLOAD DUP2 MSTORE PUSH1 0x20 ADD PUSH1 0x1 DUP3 ADD SLOAD DUP2 MSTORE PUSH1 0x20 ADD PUSH1 0x2 DUP3 ADD SLOAD DUP2 MSTORE PUSH1 0x20 ADD PUSH1 0x3 DUP3 ADD SLOAD DUP2 MSTORE POP POP SWAP1 POP PUSH1 0x0 DUP4 DUP4 LT ISZERO PUSH2 0x1FAA JUMPI PUSH1 0x0 PUSH1 0xB PUSH1 0x0 PUSH1 0x1 DUP7 PUSH2 0x1F03 SWAP2 SWAP1 PUSH2 0x4E16 JUMP JUMPDEST DUP2 MSTORE PUSH1 0x20 ADD SWAP1 DUP2 MSTORE PUSH1 0x20 ADD PUSH1 0x0 KECCAK256 PUSH1 0x40 MLOAD DUP1 PUSH1 0x80 ADD PUSH1 0x40 MSTORE SWAP1 DUP2 PUSH1 0x0 DUP3 ADD SLOAD DUP2 MSTORE PUSH1 0x20 ADD PUSH1 0x1 DUP3 ADD SLOAD DUP2 MSTORE PUSH1 0x20 ADD PUSH1 0x2 DUP3 ADD SLOAD DUP2 MSTORE PUSH1 0x20 ADD PUSH1 0x3 DUP3 ADD SLOAD DUP2 MSTORE POP POP SWAP1 POP DUP1 PUSH1 0x60 ADD MLOAD DUP4 PUSH1 0x60 ADD MLOAD EQ PUSH2 0x1FA4 JUMPI DUP3 PUSH1 0x60 ADD MLOAD DUP2 PUSH1 0x60 ADD MLOAD PUSH2 0x1F69 SWAP2 SWAP1 PUSH2 0x510C JUMP JUMPDEST DUP4 PUSH1 0x40 ADD MLOAD DUP3 PUSH1 0x40 ADD MLOAD PUSH2 0x1F7D SWAP2 SWAP1 PUSH2 0x510C JUMP JUMPDEST DUP5 PUSH1 0x60 ADD MLOAD DUP10 PUSH2 0x1F8D SWAP2 SWAP1 PUSH2 0x510C JUMP JUMPDEST PUSH2 0x1F97 SWAP2 SWAP1 PUSH2 0x501E JUMP JUMPDEST PUSH2 0x1FA1 SWAP2 SWAP1 PUSH2 0x4ED6 JUMP JUMPDEST SWAP2 POP JUMPDEST POP PUSH2 0x1FFD JUMP JUMPDEST NUMBER DUP3 PUSH1 0x60 ADD MLOAD EQ PUSH2 0x1FFC JUMPI DUP2 PUSH1 0x60 ADD MLOAD NUMBER PUSH2 0x1FC5 SWAP2 SWAP1 PUSH2 0x510C JUMP JUMPDEST DUP3 PUSH1 0x40 ADD MLOAD TIMESTAMP PUSH2 0x1FD5 SWAP2 SWAP1 PUSH2 0x510C JUMP JUMPDEST DUP4 PUSH1 0x60 ADD MLOAD DUP9 PUSH2 0x1FE5 SWAP2 SWAP1 PUSH2 0x510C JUMP JUMPDEST PUSH2 0x1FEF SWAP2 SWAP1 PUSH2 0x501E JUMP JUMPDEST PUSH2 0x1FF9 SWAP2 SWAP1 PUSH2 0x4ED6 JUMP JUMPDEST SWAP1 POP JUMPDEST JUMPDEST PUSH2 0x2016 DUP3 DUP3 DUP5 PUSH1 0x40 ADD MLOAD PUSH2 0x2011 SWAP2 SWAP1 PUSH2 0x4E16 JUMP JUMPDEST PUSH2 0x28B0 JUMP JUMPDEST SWAP5 POP POP POP POP POP SWAP2 SWAP1 POP JUMP JUMPDEST PUSH1 0x0 DUP1 TIMESTAMP SWAP1 POP PUSH1 0x0 PUSH1 0xD PUSH1 0x0 DUP6 PUSH20 0xFFFFFFFFFFFFFFFFFFFFFFFFFFFFFFFFFFFFFFFF AND PUSH20 0xFFFFFFFFFFFFFFFFFFFFFFFFFFFFFFFFFFFFFFFF AND DUP2 MSTORE PUSH1 0x20 ADD SWAP1 DUP2 MSTORE PUSH1 0x20 ADD PUSH1 0x0 KECCAK256 SLOAD SWAP1 POP PUSH1 0x0 DUP2 EQ ISZERO PUSH2 0x207F JUMPI PUSH1 0x0 SWAP3 POP POP POP PUSH2 0x2161 JUMP JUMPDEST PUSH1 0x0 PUSH1 0xC PUSH1 0x0 DUP7 PUSH20 0xFFFFFFFFFFFFFFFFFFFFFFFFFFFFFFFFFFFFFFFF AND PUSH20 0xFFFFFFFFFFFFFFFFFFFFFFFFFFFFFFFFFFFFFFFF AND DUP2 MSTORE PUSH1 0x20 ADD SWAP1 DUP2 MSTORE PUSH1 0x20 ADD PUSH1 0x0 KECCAK256 PUSH1 0x0 DUP4 DUP2 MSTORE PUSH1 0x20 ADD SWAP1 DUP2 MSTORE PUSH1 0x20 ADD PUSH1 0x0 KECCAK256 PUSH1 0x40 MLOAD DUP1 PUSH1 0x80 ADD PUSH1 0x40 MSTORE SWAP1 DUP2 PUSH1 0x0 DUP3 ADD SLOAD DUP2 MSTORE PUSH1 0x20 ADD PUSH1 0x1 DUP3 ADD SLOAD DUP2 MSTORE PUSH1 0x20 ADD PUSH1 0x2 DUP3 ADD SLOAD DUP2 MSTORE PUSH1 0x20 ADD PUSH1 0x3 DUP3 ADD SLOAD DUP2 MSTORE POP POP SWAP1 POP DUP1 PUSH1 0x40 ADD MLOAD DUP4 PUSH2 0x2116 SWAP2 SWAP1 PUSH2 0x510C JUMP JUMPDEST DUP2 PUSH1 0x20 ADD MLOAD PUSH2 0x2125 SWAP2 SWAP1 PUSH2 0x4F07 JUMP JUMPDEST DUP2 PUSH1 0x0 ADD DUP2 DUP2 MLOAD PUSH2 0x2136 SWAP2 SWAP1 PUSH2 0x5078 JUMP JUMPDEST SWAP2 POP DUP2 DUP2 MSTORE POP POP PUSH1 0x0 DUP2 PUSH1 0x0 ADD MLOAD SLT ISZERO PUSH2 0x2156 JUMPI PUSH1 0x0 DUP2 PUSH1 0x0 ADD DUP2 DUP2 MSTORE POP POP JUMPDEST DUP1 PUSH1 0x0 ADD MLOAD SWAP4 POP POP POP POP JUMPDEST SWAP2 SWAP1 POP JUMP JUMPDEST PUSH1 0x3 PUSH1 0x0 SWAP1 SLOAD SWAP1 PUSH2 0x100 EXP SWAP1 DIV PUSH1 0xFF AND DUP2 JUMP JUMPDEST PUSH1 0x1 PUSH1 0x20 MSTORE DUP1 PUSH1 0x0 MSTORE PUSH1 0x40 PUSH1 0x0 KECCAK256 PUSH1 0x0 SWAP2 POP SWAP1 POP SLOAD DUP2 JUMP JUMPDEST PUSH2 0x219C CALLER DUP4 DUP4 PUSH2 0x29C3 JUMP JUMPDEST POP POP JUMP JUMPDEST PUSH2 0x21A8 PUSH2 0x3EF6 JUMP JUMPDEST PUSH1 0x9 PUSH1 0x0 DUP4 PUSH20 0xFFFFFFFFFFFFFFFFFFFFFFFFFFFFFFFFFFFFFFFF AND PUSH20 0xFFFFFFFFFFFFFFFFFFFFFFFFFFFFFFFFFFFFFFFF AND DUP2 MSTORE PUSH1 0x20 ADD SWAP1 DUP2 MSTORE PUSH1 0x20 ADD PUSH1 0x0 KECCAK256 PUSH1 0x40 MLOAD DUP1 PUSH1 0x40 ADD PUSH1 0x40 MSTORE SWAP1 DUP2 PUSH1 0x0 DUP3 ADD SLOAD DUP2 MSTORE PUSH1 0x20 ADD PUSH1 0x1 DUP3 ADD SLOAD DUP2 MSTORE POP POP SWAP1 POP SWAP2 SWAP1 POP JUMP JUMPDEST PUSH1 0x0 DUP1 DUP3 EQ ISZERO PUSH2 0x221B JUMPI TIMESTAMP SWAP2 POP JUMPDEST PUSH1 0x0 PUSH1 0xA SLOAD SWAP1 POP PUSH1 0x0 PUSH1 0xB PUSH1 0x0 DUP4 DUP2 MSTORE PUSH1 0x20 ADD SWAP1 DUP2 MSTORE PUSH1 0x20 ADD PUSH1 0x0 KECCAK256 PUSH1 0x40 MLOAD DUP1 PUSH1 0x80 ADD PUSH1 0x40 MSTORE SWAP1 DUP2 PUSH1 0x0 DUP3 ADD SLOAD DUP2 MSTORE PUSH1 0x20 ADD PUSH1 0x1 DUP3 ADD SLOAD DUP2 MSTORE PUSH1 0x20 ADD PUSH1 0x2 DUP3 ADD SLOAD DUP2 MSTORE PUSH1 0x20 ADD PUSH1 0x3 DUP3 ADD SLOAD DUP2 MSTORE POP POP SWAP1 POP PUSH2 0x2276 DUP2 DUP6 PUSH2 0x28B0 JUMP JUMPDEST SWAP3 POP POP POP SWAP2 SWAP1 POP JUMP JUMPDEST PUSH1 0x3 PUSH1 0x0 SWAP1 SLOAD SWAP1 PUSH2 0x100 EXP SWAP1 DIV PUSH1 0xFF AND ISZERO PUSH2 0x22CF JUMPI PUSH1 0x40 MLOAD PUSH32 0x8C379A000000000000000000000000000000000000000000000000000000000 DUP2 MSTORE PUSH1 0x4 ADD PUSH2 0x22C6 SWAP1 PUSH2 0x4C5F JUMP JUMPDEST PUSH1 0x40 MLOAD DUP1 SWAP2 SUB SWAP1 REVERT JUMPDEST PUSH1 0x3 PUSH1 0x0 SWAP1 SLOAD SWAP1 PUSH2 0x100 EXP SWAP1 DIV PUSH1 0xFF AND ISZERO PUSH1 0x3 PUSH1 0x0 PUSH2 0x100 EXP DUP2 SLOAD DUP2 PUSH1 0xFF MUL NOT AND SWAP1 DUP4 ISZERO ISZERO MUL OR SWAP1 SSTORE POP DUP1 PUSH1 0x7 PUSH1 0x0 PUSH2 0x100 EXP DUP2 SLOAD DUP2 PUSH20 0xFFFFFFFFFFFFFFFFFFFFFFFFFFFFFFFFFFFFFFFF MUL NOT AND SWAP1 DUP4 PUSH20 0xFFFFFFFFFFFFFFFFFFFFFFFFFFFFFFFFFFFFFFFF AND MUL OR SWAP1 SSTORE POP PUSH1 0x40 MLOAD DUP1 PUSH1 0x80 ADD PUSH1 0x40 MSTORE DUP1 PUSH1 0x0 DUP2 MSTORE PUSH1 0x20 ADD PUSH1 0x0 DUP2 MSTORE PUSH1 0x20 ADD TIMESTAMP DUP2 MSTORE PUSH1 0x20 ADD NUMBER DUP2 MSTORE POP PUSH1 0xB PUSH1 0x0 DUP1 DUP2 MSTORE PUSH1 0x20 ADD SWAP1 DUP2 MSTORE PUSH1 0x20 ADD PUSH1 0x0 KECCAK256 PUSH1 0x0 DUP3 ADD MLOAD DUP2 PUSH1 0x0 ADD SSTORE PUSH1 0x20 DUP3 ADD MLOAD DUP2 PUSH1 0x1 ADD SSTORE PUSH1 0x40 DUP3 ADD MLOAD DUP2 PUSH1 0x2 ADD SSTORE PUSH1 0x60 DUP3 ADD MLOAD DUP2 PUSH1 0x3 ADD SSTORE SWAP1 POP POP PUSH1 0x12 PUSH1 0x11 DUP2 SWAP1 SSTORE POP PUSH1 0x40 MLOAD DUP1 PUSH1 0x40 ADD PUSH1 0x40 MSTORE DUP1 PUSH1 0x13 DUP2 MSTORE PUSH1 0x20 ADD PUSH32 0x566F74652D657363726F77656420546F6B656E00000000000000000000000000 DUP2 MSTORE POP PUSH1 0xF SWAP1 DUP1 MLOAD SWAP1 PUSH1 0x20 ADD SWAP1 PUSH2 0x23EE SWAP3 SWAP2 SWAP1 PUSH2 0x3F10 JUMP JUMPDEST POP PUSH1 0x40 MLOAD DUP1 PUSH1 0x40 ADD PUSH1 0x40 MSTORE DUP1 PUSH1 0x7 DUP2 MSTORE PUSH1 0x20 ADD PUSH32 0x7665546F6B656E00000000000000000000000000000000000000000000000000 DUP2 MSTORE POP PUSH1 0x10 SWAP1 DUP1 MLOAD SWAP1 PUSH1 0x20 ADD SWAP1 PUSH2 0x243A SWAP3 SWAP2 SWAP1 PUSH2 0x3F10 JUMP JUMPDEST POP PUSH1 0x0 PUSH3 0x93A80 DUP1 TIMESTAMP PUSH2 0x244D SWAP2 SWAP1 PUSH2 0x4ED6 JUMP JUMPDEST PUSH2 0x2457 SWAP2 SWAP1 PUSH2 0x501E JUMP JUMPDEST SWAP1 POP DUP1 PUSH1 0x12 DUP2 SWAP1 SSTORE POP DUP1 PUSH1 0x13 DUP2 SWAP1 SSTORE POP POP POP JUMP JUMPDEST PUSH1 0x15 PUSH1 0x20 MSTORE DUP1 PUSH1 0x0 MSTORE PUSH1 0x40 PUSH1 0x0 KECCAK256 PUSH1 0x0 SWAP2 POP SWAP1 POP SLOAD DUP2 JUMP JUMPDEST PUSH2 0x248D DUP3 DUP3 PUSH2 0x2769 JUMP JUMPDEST POP POP JUMP JUMPDEST PUSH1 0x0 DUP1 PUSH1 0x0 SWAP1 POP PUSH1 0x0 DUP4 SWAP1 POP PUSH1 0x0 JUMPDEST PUSH1 0x80 DUP2 LT ISZERO PUSH2 0x259B JUMPI DUP2 DUP4 LT PUSH2 0x24B5 JUMPI PUSH2 0x259B JUMP JUMPDEST PUSH1 0x0 PUSH1 0x2 DUP1 DUP5 DUP7 PUSH2 0x24C6 SWAP2 SWAP1 PUSH2 0x4E16 JUMP JUMPDEST PUSH2 0x24D0 SWAP2 SWAP1 PUSH2 0x4E16 JUMP JUMPDEST PUSH2 0x24DA SWAP2 SWAP1 PUSH2 0x4ED6 JUMP JUMPDEST SWAP1 POP PUSH1 0x0 PUSH1 0xC PUSH1 0x0 DUP11 PUSH20 0xFFFFFFFFFFFFFFFFFFFFFFFFFFFFFFFFFFFFFFFF AND PUSH20 0xFFFFFFFFFFFFFFFFFFFFFFFFFFFFFFFFFFFFFFFF AND DUP2 MSTORE PUSH1 0x20 ADD SWAP1 DUP2 MSTORE PUSH1 0x20 ADD PUSH1 0x0 KECCAK256 PUSH1 0x0 DUP4 DUP2 MSTORE PUSH1 0x20 ADD SWAP1 DUP2 MSTORE PUSH1 0x20 ADD PUSH1 0x0 KECCAK256 PUSH1 0x40 MLOAD DUP1 PUSH1 0x80 ADD PUSH1 0x40 MSTORE SWAP1 DUP2 PUSH1 0x0 DUP3 ADD SLOAD DUP2 MSTORE PUSH1 0x20 ADD PUSH1 0x1 DUP3 ADD SLOAD DUP2 MSTORE PUSH1 0x20 ADD PUSH1 0x2 DUP3 ADD SLOAD DUP2 MSTORE PUSH1 0x20 ADD PUSH1 0x3 DUP3 ADD SLOAD DUP2 MSTORE POP POP SWAP1 POP DUP8 DUP2 PUSH1 0x40 ADD MLOAD GT PUSH2 0x2576 JUMPI DUP2 SWAP5 POP PUSH2 0x2586 JUMP JUMPDEST PUSH1 0x1 DUP3 PUSH2 0x2583 SWAP2 SWAP1 PUSH2 0x510C JUMP JUMPDEST SWAP4 POP JUMPDEST POP POP DUP1 DUP1 PUSH2 0x2593 SWAP1 PUSH2 0x51F7 JUMP JUMPDEST SWAP2 POP POP PUSH2 0x24A0 JUMP JUMPDEST POP DUP2 SWAP3 POP POP POP SWAP4 SWAP3 POP POP POP JUMP JUMPDEST PUSH1 0x9 PUSH1 0x20 MSTORE DUP1 PUSH1 0x0 MSTORE PUSH1 0x40 PUSH1 0x0 KECCAK256 PUSH1 0x0 SWAP2 POP SWAP1 POP DUP1 PUSH1 0x0 ADD SLOAD SWAP1 DUP1 PUSH1 0x1 ADD SLOAD SWAP1 POP DUP3 JUMP JUMPDEST PUSH1 0x0 PUSH2 0x25D8 DUP3 TIMESTAMP PUSH2 0x339B JUMP JUMPDEST PUSH1 0x0 ADD MLOAD SWAP1 POP SWAP2 SWAP1 POP JUMP JUMPDEST PUSH1 0x6 SLOAD DUP2 JUMP JUMPDEST PUSH1 0x0 PUSH1 0xC PUSH1 0x0 DUP5 PUSH20 0xFFFFFFFFFFFFFFFFFFFFFFFFFFFFFFFFFFFFFFFF AND PUSH20 0xFFFFFFFFFFFFFFFFFFFFFFFFFFFFFFFFFFFFFFFF AND DUP2 MSTORE PUSH1 0x20 ADD SWAP1 DUP2 MSTORE PUSH1 0x20 ADD PUSH1 0x0 KECCAK256 PUSH1 0x0 DUP4 DUP2 MSTORE PUSH1 0x20 ADD SWAP1 DUP2 MSTORE PUSH1 0x20 ADD PUSH1 0x0 KECCAK256 PUSH1 0x2 ADD SLOAD SWAP1 POP SWAP3 SWAP2 POP POP JUMP JUMPDEST PUSH1 0x17 PUSH1 0x20 MSTORE DUP1 PUSH1 0x0 MSTORE PUSH1 0x40 PUSH1 0x0 KECCAK256 PUSH1 0x0 SWAP2 POP SWAP1 POP SLOAD DUP2 JUMP JUMPDEST PUSH1 0x0 DUP1 PUSH1 0xD PUSH1 0x0 DUP5 PUSH20 0xFFFFFFFFFFFFFFFFFFFFFFFFFFFFFFFFFFFFFFFF AND PUSH20 0xFFFFFFFFFFFFFFFFFFFFFFFFFFFFFFFFFFFFFFFF AND DUP2 MSTORE PUSH1 0x20 ADD SWAP1 DUP2 MSTORE PUSH1 0x20 ADD PUSH1 0x0 KECCAK256 SLOAD SWAP1 POP PUSH1 0xC PUSH1 0x0 DUP5 PUSH20 0xFFFFFFFFFFFFFFFFFFFFFFFFFFFFFFFFFFFFFFFF AND PUSH20 0xFFFFFFFFFFFFFFFFFFFFFFFFFFFFFFFFFFFFFFFF AND DUP2 MSTORE PUSH1 0x20 ADD SWAP1 DUP2 MSTORE PUSH1 0x20 ADD PUSH1 0x0 KECCAK256 PUSH1 0x0 DUP3 DUP2 MSTORE PUSH1 0x20 ADD SWAP1 DUP2 MSTORE PUSH1 0x20 ADD PUSH1 0x0 KECCAK256 PUSH1 0x1 ADD SLOAD SWAP2 POP POP SWAP2 SWAP1 POP JUMP JUMPDEST PUSH3 0x93A80 DUP2 JUMP JUMPDEST PUSH1 0xE PUSH1 0x20 MSTORE DUP1 PUSH1 0x0 MSTORE PUSH1 0x40 PUSH1 0x0 KECCAK256 PUSH1 0x0 SWAP2 POP SWAP1 POP SLOAD DUP2 JUMP JUMPDEST PUSH1 0x0 DUP1 SLOAD SWAP1 PUSH2 0x100 EXP SWAP1 DIV PUSH20 0xFFFFFFFFFFFFFFFFFFFFFFFFFFFFFFFFFFFFFFFF AND DUP2 JUMP JUMPDEST PUSH1 0x7 PUSH1 0x0 SWAP1 SLOAD SWAP1 PUSH2 0x100 EXP SWAP1 DIV PUSH20 0xFFFFFFFFFFFFFFFFFFFFFFFFFFFFFFFFFFFFFFFF AND DUP2 JUMP JUMPDEST PUSH1 0x0 PUSH1 0x9 PUSH1 0x0 DUP5 PUSH20 0xFFFFFFFFFFFFFFFFFFFFFFFFFFFFFFFFFFFFFFFF AND PUSH20 0xFFFFFFFFFFFFFFFFFFFFFFFFFFFFFFFFFFFFFFFF AND DUP2 MSTORE PUSH1 0x20 ADD SWAP1 DUP2 MSTORE PUSH1 0x20 ADD PUSH1 0x0 KECCAK256 PUSH1 0x40 MLOAD DUP1 PUSH1 0x40 ADD PUSH1 0x40 MSTORE SWAP1 DUP2 PUSH1 0x0 DUP3 ADD SLOAD DUP2 MSTORE PUSH1 0x20 ADD PUSH1 0x1 DUP3 ADD SLOAD DUP2 MSTORE POP POP SWAP1 POP PUSH1 0x0 DUP3 GT PUSH2 0x280E JUMPI PUSH1 0x40 MLOAD PUSH32 0x8C379A000000000000000000000000000000000000000000000000000000000 DUP2 MSTORE PUSH1 0x4 ADD PUSH2 0x2805 SWAP1 PUSH2 0x4AFF JUMP JUMPDEST PUSH1 0x40 MLOAD DUP1 SWAP2 SUB SWAP1 REVERT JUMPDEST PUSH1 0x0 DUP2 PUSH1 0x0 ADD MLOAD SGT PUSH2 0x2855 JUMPI PUSH1 0x40 MLOAD PUSH32 0x8C379A000000000000000000000000000000000000000000000000000000000 DUP2 MSTORE PUSH1 0x4 ADD PUSH2 0x284C SWAP1 PUSH2 0x4BBF JUMP JUMPDEST PUSH1 0x40 MLOAD DUP1 SWAP2 SUB SWAP1 REVERT JUMPDEST TIMESTAMP DUP2 PUSH1 0x20 ADD MLOAD GT PUSH2 0x289B JUMPI PUSH1 0x40 MLOAD PUSH32 0x8C379A000000000000000000000000000000000000000000000000000000000 DUP2 MSTORE PUSH1 0x4 ADD PUSH2 0x2892 SWAP1 PUSH2 0x4A5F JUMP JUMPDEST PUSH1 0x40 MLOAD DUP1 SWAP2 SUB SWAP1 REVERT JUMPDEST PUSH2 0x28AB CALLER DUP5 DUP5 PUSH1 0x0 DUP6 PUSH1 0x2 PUSH2 0x39AB JUMP JUMPDEST POP POP POP JUMP JUMPDEST PUSH1 0x0 DUP1 DUP4 SWAP1 POP PUSH1 0x0 PUSH3 0x93A80 DUP1 DUP4 PUSH1 0x40 ADD MLOAD PUSH2 0x28CC SWAP2 SWAP1 PUSH2 0x4ED6 JUMP JUMPDEST PUSH2 0x28D6 SWAP2 SWAP1 PUSH2 0x501E JUMP JUMPDEST SWAP1 POP PUSH1 0x0 JUMPDEST PUSH1 0xFF DUP2 LT ISZERO PUSH2 0x299A JUMPI PUSH3 0x93A80 DUP3 PUSH2 0x28F3 SWAP2 SWAP1 PUSH2 0x4E16 JUMP JUMPDEST SWAP2 POP PUSH1 0x0 DUP6 DUP4 GT ISZERO PUSH2 0x2907 JUMPI DUP6 SWAP3 POP PUSH2 0x291E JUMP JUMPDEST PUSH1 0xE PUSH1 0x0 DUP5 DUP2 MSTORE PUSH1 0x20 ADD SWAP1 DUP2 MSTORE PUSH1 0x20 ADD PUSH1 0x0 KECCAK256 SLOAD SWAP1 POP JUMPDEST DUP4 PUSH1 0x40 ADD MLOAD DUP4 PUSH2 0x292E SWAP2 SWAP1 PUSH2 0x510C JUMP JUMPDEST DUP5 PUSH1 0x20 ADD MLOAD PUSH2 0x293D SWAP2 SWAP1 PUSH2 0x4F07 JUMP JUMPDEST DUP5 PUSH1 0x0 ADD DUP2 DUP2 MLOAD PUSH2 0x294E SWAP2 SWAP1 PUSH2 0x5078 JUMP JUMPDEST SWAP2 POP DUP2 DUP2 MSTORE POP POP DUP6 DUP4 EQ ISZERO PUSH2 0x2963 JUMPI POP PUSH2 0x299A JUMP JUMPDEST DUP1 DUP5 PUSH1 0x20 ADD DUP2 DUP2 MLOAD PUSH2 0x2975 SWAP2 SWAP1 PUSH2 0x4D82 JUMP JUMPDEST SWAP2 POP DUP2 DUP2 MSTORE POP POP DUP3 DUP5 PUSH1 0x40 ADD DUP2 DUP2 MSTORE POP POP POP DUP1 DUP1 PUSH2 0x2992 SWAP1 PUSH2 0x51F7 JUMP JUMPDEST SWAP2 POP POP PUSH2 0x28DB JUMP JUMPDEST POP PUSH1 0x0 DUP3 PUSH1 0x0 ADD MLOAD SLT ISZERO PUSH2 0x29B4 JUMPI PUSH1 0x0 DUP3 PUSH1 0x0 ADD DUP2 DUP2 MSTORE POP POP JUMPDEST DUP2 PUSH1 0x0 ADD MLOAD SWAP3 POP POP POP SWAP3 SWAP2 POP POP JUMP JUMPDEST PUSH3 0x93A80 DUP1 DUP3 PUSH2 0x29D3 SWAP2 SWAP1 PUSH2 0x4ED6 JUMP JUMPDEST PUSH2 0x29DD SWAP2 SWAP1 PUSH2 0x501E JUMP JUMPDEST SWAP1 POP PUSH1 0x0 PUSH1 0x9 PUSH1 0x0 DUP6 PUSH20 0xFFFFFFFFFFFFFFFFFFFFFFFFFFFFFFFFFFFFFFFF AND PUSH20 0xFFFFFFFFFFFFFFFFFFFFFFFFFFFFFFFFFFFFFFFF AND DUP2 MSTORE PUSH1 0x20 ADD SWAP1 DUP2 MSTORE PUSH1 0x20 ADD PUSH1 0x0 KECCAK256 PUSH1 0x40 MLOAD DUP1 PUSH1 0x40 ADD PUSH1 0x40 MSTORE SWAP1 DUP2 PUSH1 0x0 DUP3 ADD SLOAD DUP2 MSTORE PUSH1 0x20 ADD PUSH1 0x1 DUP3 ADD SLOAD DUP2 MSTORE POP POP SWAP1 POP PUSH1 0x0 DUP4 GT PUSH2 0x2A84 JUMPI PUSH1 0x40 MLOAD PUSH32 0x8C379A000000000000000000000000000000000000000000000000000000000 DUP2 MSTORE PUSH1 0x4 ADD PUSH2 0x2A7B SWAP1 PUSH2 0x4A3F JUMP JUMPDEST PUSH1 0x40 MLOAD DUP1 SWAP2 SUB SWAP1 REVERT JUMPDEST PUSH1 0x0 DUP2 PUSH1 0x0 ADD MLOAD EQ PUSH2 0x2ACB JUMPI PUSH1 0x40 MLOAD PUSH32 0x8C379A000000000000000000000000000000000000000000000000000000000 DUP2 MSTORE PUSH1 0x4 ADD PUSH2 0x2AC2 SWAP1 PUSH2 0x4B3F JUMP JUMPDEST PUSH1 0x40 MLOAD DUP1 SWAP2 SUB SWAP1 REVERT JUMPDEST TIMESTAMP DUP3 GT PUSH2 0x2B0D JUMPI PUSH1 0x40 MLOAD PUSH32 0x8C379A000000000000000000000000000000000000000000000000000000000 DUP2 MSTORE PUSH1 0x4 ADD PUSH2 0x2B04 SWAP1 PUSH2 0x4B5F JUMP JUMPDEST PUSH1 0x40 MLOAD DUP1 SWAP2 SUB SWAP1 REVERT JUMPDEST PUSH1 0x5 SLOAD TIMESTAMP PUSH2 0x2B1B SWAP2 SWAP1 PUSH2 0x4E16 JUMP JUMPDEST DUP3 GT ISZERO PUSH2 0x2B5D JUMPI PUSH1 0x40 MLOAD PUSH32 0x8C379A000000000000000000000000000000000000000000000000000000000 DUP2 MSTORE PUSH1 0x4 ADD PUSH2 0x2B54 SWAP1 PUSH2 0x4B1F JUMP JUMPDEST PUSH1 0x40 MLOAD DUP1 SWAP2 SUB SWAP1 REVERT JUMPDEST PUSH2 0x2B6C CALLER DUP6 DUP6 DUP6 DUP6 PUSH1 0x1 PUSH2 0x39AB JUMP JUMPDEST POP POP POP POP JUMP JUMPDEST PUSH2 0x2B7A PUSH2 0x3F96 JUMP JUMPDEST PUSH1 0xA SLOAD DUP2 PUSH1 0x80 ADD DUP2 DUP2 MSTORE POP POP PUSH1 0x0 PUSH20 0xFFFFFFFFFFFFFFFFFFFFFFFFFFFFFFFFFFFFFFFF AND DUP5 PUSH20 0xFFFFFFFFFFFFFFFFFFFFFFFFFFFFFFFFFFFFFFFF AND EQ PUSH2 0x2D06 JUMPI TIMESTAMP DUP4 PUSH1 0x20 ADD MLOAD GT DUP1 ISZERO PUSH2 0x2BD1 JUMPI POP PUSH1 0x0 DUP4 PUSH1 0x0 ADD MLOAD SGT JUMPDEST ISZERO PUSH2 0x2C26 JUMPI PUSH1 0x5 SLOAD DUP4 PUSH1 0x0 ADD MLOAD PUSH2 0x2BE8 SWAP2 SWAP1 PUSH2 0x4E6C JUMP JUMPDEST DUP2 PUSH1 0x0 ADD MLOAD PUSH1 0x20 ADD DUP2 DUP2 MSTORE POP POP TIMESTAMP DUP4 PUSH1 0x20 ADD MLOAD PUSH2 0x2C05 SWAP2 SWAP1 PUSH2 0x510C JUMP JUMPDEST DUP2 PUSH1 0x0 ADD MLOAD PUSH1 0x20 ADD MLOAD PUSH2 0x2C18 SWAP2 SWAP1 PUSH2 0x4F07 JUMP JUMPDEST DUP2 PUSH1 0x0 ADD MLOAD PUSH1 0x0 ADD DUP2 DUP2 MSTORE POP POP JUMPDEST TIMESTAMP DUP3 PUSH1 0x20 ADD MLOAD GT DUP1 ISZERO PUSH2 0x2C3D JUMPI POP PUSH1 0x0 DUP3 PUSH1 0x0 ADD MLOAD SGT JUMPDEST ISZERO PUSH2 0x2C92 JUMPI PUSH1 0x5 SLOAD DUP3 PUSH1 0x0 ADD MLOAD PUSH2 0x2C54 SWAP2 SWAP1 PUSH2 0x4E6C JUMP JUMPDEST DUP2 PUSH1 0x20 ADD MLOAD PUSH1 0x20 ADD DUP2 DUP2 MSTORE POP POP TIMESTAMP DUP3 PUSH1 0x20 ADD MLOAD PUSH2 0x2C71 SWAP2 SWAP1 PUSH2 0x510C JUMP JUMPDEST DUP2 PUSH1 0x20 ADD MLOAD PUSH1 0x20 ADD MLOAD PUSH2 0x2C84 SWAP2 SWAP1 PUSH2 0x4F07 JUMP JUMPDEST DUP2 PUSH1 0x20 ADD MLOAD PUSH1 0x0 ADD DUP2 DUP2 MSTORE POP POP JUMPDEST PUSH1 0xE PUSH1 0x0 DUP5 PUSH1 0x20 ADD MLOAD DUP2 MSTORE PUSH1 0x20 ADD SWAP1 DUP2 MSTORE PUSH1 0x20 ADD PUSH1 0x0 KECCAK256 SLOAD DUP2 PUSH1 0x40 ADD DUP2 DUP2 MSTORE POP POP PUSH1 0x0 DUP3 PUSH1 0x20 ADD MLOAD EQ PUSH2 0x2D05 JUMPI DUP3 PUSH1 0x20 ADD MLOAD DUP3 PUSH1 0x20 ADD MLOAD EQ ISZERO PUSH2 0x2CE2 JUMPI DUP1 PUSH1 0x40 ADD MLOAD DUP2 PUSH1 0x60 ADD DUP2 DUP2 MSTORE POP POP PUSH2 0x2D04 JUMP JUMPDEST PUSH1 0xE PUSH1 0x0 DUP4 PUSH1 0x20 ADD MLOAD DUP2 MSTORE PUSH1 0x20 ADD SWAP1 DUP2 MSTORE PUSH1 0x20 ADD PUSH1 0x0 KECCAK256 SLOAD DUP2 PUSH1 0x60 ADD DUP2 DUP2 MSTORE POP POP JUMPDEST JUMPDEST JUMPDEST PUSH1 0x0 PUSH1 0x40 MLOAD DUP1 PUSH1 0x80 ADD PUSH1 0x40 MSTORE DUP1 PUSH1 0x0 DUP2 MSTORE PUSH1 0x20 ADD PUSH1 0x0 DUP2 MSTORE PUSH1 0x20 ADD TIMESTAMP DUP2 MSTORE PUSH1 0x20 ADD NUMBER DUP2 MSTORE POP SWAP1 POP PUSH1 0x0 DUP3 PUSH1 0x80 ADD MLOAD GT ISZERO PUSH2 0x2D87 JUMPI PUSH1 0xB PUSH1 0x0 DUP4 PUSH1 0x80 ADD MLOAD DUP2 MSTORE PUSH1 0x20 ADD SWAP1 DUP2 MSTORE PUSH1 0x20 ADD PUSH1 0x0 KECCAK256 PUSH1 0x40 MLOAD DUP1 PUSH1 0x80 ADD PUSH1 0x40 MSTORE SWAP1 DUP2 PUSH1 0x0 DUP3 ADD SLOAD DUP2 MSTORE PUSH1 0x20 ADD PUSH1 0x1 DUP3 ADD SLOAD DUP2 MSTORE PUSH1 0x20 ADD PUSH1 0x2 DUP3 ADD SLOAD DUP2 MSTORE PUSH1 0x20 ADD PUSH1 0x3 DUP3 ADD SLOAD DUP2 MSTORE POP POP SWAP1 POP JUMPDEST PUSH1 0x0 DUP2 PUSH1 0x40 ADD MLOAD SWAP1 POP PUSH1 0x0 DUP3 PUSH1 0x60 ADD MLOAD SWAP1 POP PUSH1 0x0 DUP4 PUSH1 0x40 ADD MLOAD SWAP1 POP PUSH1 0x0 DUP5 PUSH1 0x40 ADD MLOAD TIMESTAMP GT ISZERO PUSH2 0x2DF0 JUMPI DUP5 PUSH1 0x40 ADD MLOAD TIMESTAMP PUSH2 0x2DC0 SWAP2 SWAP1 PUSH2 0x510C JUMP JUMPDEST DUP6 PUSH1 0x60 ADD MLOAD NUMBER PUSH2 0x2DD0 SWAP2 SWAP1 PUSH2 0x510C JUMP JUMPDEST PUSH8 0xDE0B6B3A7640000 PUSH2 0x2DE3 SWAP2 SWAP1 PUSH2 0x501E JUMP JUMPDEST PUSH2 0x2DED SWAP2 SWAP1 PUSH2 0x4ED6 JUMP JUMPDEST SWAP1 POP JUMPDEST PUSH1 0x0 PUSH3 0x93A80 DUP1 DUP7 PUSH2 0x2E02 SWAP2 SWAP1 PUSH2 0x4ED6 JUMP JUMPDEST PUSH2 0x2E0C SWAP2 SWAP1 PUSH2 0x501E JUMP JUMPDEST SWAP1 POP PUSH1 0x0 JUMPDEST PUSH1 0xFF DUP2 LT ISZERO PUSH2 0x2FA6 JUMPI PUSH3 0x93A80 DUP3 PUSH2 0x2E29 SWAP2 SWAP1 PUSH2 0x4E16 JUMP JUMPDEST SWAP2 POP PUSH1 0x0 TIMESTAMP DUP4 GT ISZERO PUSH2 0x2E3D JUMPI TIMESTAMP SWAP3 POP PUSH2 0x2E54 JUMP JUMPDEST PUSH1 0xE PUSH1 0x0 DUP5 DUP2 MSTORE PUSH1 0x20 ADD SWAP1 DUP2 MSTORE PUSH1 0x20 ADD PUSH1 0x0 KECCAK256 SLOAD SWAP1 POP JUMPDEST DUP7 DUP4 PUSH2 0x2E60 SWAP2 SWAP1 PUSH2 0x510C JUMP JUMPDEST DUP9 PUSH1 0x20 ADD MLOAD PUSH2 0x2E6F SWAP2 SWAP1 PUSH2 0x4F07 JUMP JUMPDEST DUP9 PUSH1 0x0 ADD MLOAD PUSH2 0x2E7E SWAP2 SWAP1 PUSH2 0x5078 JUMP JUMPDEST DUP9 PUSH1 0x0 ADD DUP2 DUP2 MSTORE POP POP DUP1 DUP9 PUSH1 0x20 ADD DUP2 DUP2 MLOAD PUSH2 0x2E99 SWAP2 SWAP1 PUSH2 0x4D82 JUMP JUMPDEST SWAP2 POP DUP2 DUP2 MSTORE POP POP PUSH1 0x0 DUP9 PUSH1 0x0 ADD MLOAD SLT ISZERO PUSH2 0x2EB9 JUMPI PUSH1 0x0 DUP9 PUSH1 0x0 ADD DUP2 DUP2 MSTORE POP POP JUMPDEST PUSH1 0x0 DUP9 PUSH1 0x20 ADD MLOAD SLT ISZERO PUSH2 0x2ED2 JUMPI PUSH1 0x0 DUP9 PUSH1 0x20 ADD DUP2 DUP2 MSTORE POP POP JUMPDEST DUP3 SWAP7 POP DUP3 DUP9 PUSH1 0x40 ADD DUP2 DUP2 MSTORE POP POP PUSH8 0xDE0B6B3A7640000 DUP6 DUP5 PUSH2 0x2EF4 SWAP2 SWAP1 PUSH2 0x510C JUMP JUMPDEST DUP6 PUSH2 0x2EFF SWAP2 SWAP1 PUSH2 0x501E JUMP JUMPDEST PUSH2 0x2F09 SWAP2 SWAP1 PUSH2 0x4ED6 JUMP JUMPDEST DUP7 PUSH2 0x2F14 SWAP2 SWAP1 PUSH2 0x4E16 JUMP JUMPDEST DUP9 PUSH1 0x60 ADD DUP2 DUP2 MSTORE POP POP PUSH1 0x1 DUP10 PUSH1 0x80 ADD DUP2 DUP2 MLOAD PUSH2 0x2F30 SWAP2 SWAP1 PUSH2 0x4E16 JUMP JUMPDEST SWAP2 POP DUP2 DUP2 MSTORE POP POP TIMESTAMP DUP4 EQ ISZERO PUSH2 0x2F4F JUMPI NUMBER DUP9 PUSH1 0x60 ADD DUP2 DUP2 MSTORE POP POP POP PUSH2 0x2FA6 JUMP JUMPDEST DUP8 PUSH1 0xB PUSH1 0x0 DUP12 PUSH1 0x80 ADD MLOAD DUP2 MSTORE PUSH1 0x20 ADD SWAP1 DUP2 MSTORE PUSH1 0x20 ADD PUSH1 0x0 KECCAK256 PUSH1 0x0 DUP3 ADD MLOAD DUP2 PUSH1 0x0 ADD SSTORE PUSH1 0x20 DUP3 ADD MLOAD DUP2 PUSH1 0x1 ADD SSTORE PUSH1 0x40 DUP3 ADD MLOAD DUP2 PUSH1 0x2 ADD SSTORE PUSH1 0x60 DUP3 ADD MLOAD DUP2 PUSH1 0x3 ADD SSTORE SWAP1 POP POP POP DUP1 DUP1 PUSH2 0x2F9E SWAP1 PUSH2 0x51F7 JUMP JUMPDEST SWAP2 POP POP PUSH2 0x2E11 JUMP JUMPDEST POP DUP7 PUSH1 0x80 ADD MLOAD PUSH1 0xA DUP2 SWAP1 SSTORE POP PUSH1 0x0 PUSH20 0xFFFFFFFFFFFFFFFFFFFFFFFFFFFFFFFFFFFFFFFF AND DUP11 PUSH20 0xFFFFFFFFFFFFFFFFFFFFFFFFFFFFFFFFFFFFFFFF AND EQ PUSH2 0x3081 JUMPI DUP7 PUSH1 0x0 ADD MLOAD PUSH1 0x20 ADD MLOAD DUP8 PUSH1 0x20 ADD MLOAD PUSH1 0x20 ADD MLOAD PUSH2 0x3002 SWAP2 SWAP1 PUSH2 0x5078 JUMP JUMPDEST DUP7 PUSH1 0x20 ADD DUP2 DUP2 MLOAD PUSH2 0x3013 SWAP2 SWAP1 PUSH2 0x4D82 JUMP JUMPDEST SWAP2 POP DUP2 DUP2 MSTORE POP POP DUP7 PUSH1 0x0 ADD MLOAD PUSH1 0x0 ADD MLOAD DUP8 PUSH1 0x20 ADD MLOAD PUSH1 0x0 ADD MLOAD PUSH2 0x3036 SWAP2 SWAP1 PUSH2 0x5078 JUMP JUMPDEST DUP7 PUSH1 0x0 ADD DUP2 DUP2 MLOAD PUSH2 0x3047 SWAP2 SWAP1 PUSH2 0x4D82 JUMP JUMPDEST SWAP2 POP DUP2 DUP2 MSTORE POP POP PUSH1 0x0 DUP7 PUSH1 0x20 ADD MLOAD SLT ISZERO PUSH2 0x3067 JUMPI PUSH1 0x0 DUP7 PUSH1 0x20 ADD DUP2 DUP2 MSTORE POP POP JUMPDEST PUSH1 0x0 DUP7 PUSH1 0x0 ADD MLOAD SLT ISZERO PUSH2 0x3080 JUMPI PUSH1 0x0 DUP7 PUSH1 0x0 ADD DUP2 DUP2 MSTORE POP POP JUMPDEST JUMPDEST DUP6 PUSH1 0xB PUSH1 0x0 DUP10 PUSH1 0x80 ADD MLOAD DUP2 MSTORE PUSH1 0x20 ADD SWAP1 DUP2 MSTORE PUSH1 0x20 ADD PUSH1 0x0 KECCAK256 PUSH1 0x0 DUP3 ADD MLOAD DUP2 PUSH1 0x0 ADD SSTORE PUSH1 0x20 DUP3 ADD MLOAD DUP2 PUSH1 0x1 ADD SSTORE PUSH1 0x40 DUP3 ADD MLOAD DUP2 PUSH1 0x2 ADD SSTORE PUSH1 0x60 DUP3 ADD MLOAD DUP2 PUSH1 0x3 ADD SSTORE SWAP1 POP POP PUSH1 0x0 PUSH20 0xFFFFFFFFFFFFFFFFFFFFFFFFFFFFFFFFFFFFFFFF AND DUP11 PUSH20 0xFFFFFFFFFFFFFFFFFFFFFFFFFFFFFFFFFFFFFFFF AND EQ PUSH2 0x3309 JUMPI TIMESTAMP DUP10 PUSH1 0x20 ADD MLOAD GT ISZERO PUSH2 0x3178 JUMPI DUP7 PUSH1 0x0 ADD MLOAD PUSH1 0x20 ADD MLOAD DUP8 PUSH1 0x40 ADD DUP2 DUP2 MLOAD PUSH2 0x311E SWAP2 SWAP1 PUSH2 0x4D82 JUMP JUMPDEST SWAP2 POP DUP2 DUP2 MSTORE POP POP DUP9 PUSH1 0x20 ADD MLOAD DUP9 PUSH1 0x20 ADD MLOAD EQ ISZERO PUSH2 0x3157 JUMPI DUP7 PUSH1 0x20 ADD MLOAD PUSH1 0x20 ADD MLOAD DUP8 PUSH1 0x40 ADD DUP2 DUP2 MLOAD PUSH2 0x314F SWAP2 SWAP1 PUSH2 0x5078 JUMP JUMPDEST SWAP2 POP DUP2 DUP2 MSTORE POP POP JUMPDEST DUP7 PUSH1 0x40 ADD MLOAD PUSH1 0xE PUSH1 0x0 DUP12 PUSH1 0x20 ADD MLOAD DUP2 MSTORE PUSH1 0x20 ADD SWAP1 DUP2 MSTORE PUSH1 0x20 ADD PUSH1 0x0 KECCAK256 DUP2 SWAP1 SSTORE POP JUMPDEST TIMESTAMP DUP9 PUSH1 0x20 ADD MLOAD GT ISZERO PUSH2 0x31D7 JUMPI DUP9 PUSH1 0x20 ADD MLOAD DUP9 PUSH1 0x20 ADD MLOAD GT ISZERO PUSH2 0x31D6 JUMPI DUP7 PUSH1 0x20 ADD MLOAD PUSH1 0x20 ADD MLOAD DUP8 PUSH1 0x60 ADD DUP2 DUP2 MLOAD PUSH2 0x31AE SWAP2 SWAP1 PUSH2 0x5078 JUMP JUMPDEST SWAP2 POP DUP2 DUP2 MSTORE POP POP DUP7 PUSH1 0x60 ADD MLOAD PUSH1 0xE PUSH1 0x0 DUP11 PUSH1 0x20 ADD MLOAD DUP2 MSTORE PUSH1 0x20 ADD SWAP1 DUP2 MSTORE PUSH1 0x20 ADD PUSH1 0x0 KECCAK256 DUP2 SWAP1 SSTORE POP JUMPDEST JUMPDEST PUSH1 0x0 PUSH1 0x1 PUSH1 0xD PUSH1 0x0 DUP14 PUSH20 0xFFFFFFFFFFFFFFFFFFFFFFFFFFFFFFFFFFFFFFFF AND PUSH20 0xFFFFFFFFFFFFFFFFFFFFFFFFFFFFFFFFFFFFFFFF AND DUP2 MSTORE PUSH1 0x20 ADD SWAP1 DUP2 MSTORE PUSH1 0x20 ADD PUSH1 0x0 KECCAK256 SLOAD PUSH2 0x3225 SWAP2 SWAP1 PUSH2 0x4E16 JUMP JUMPDEST SWAP1 POP DUP1 PUSH1 0xD PUSH1 0x0 DUP14 PUSH20 0xFFFFFFFFFFFFFFFFFFFFFFFFFFFFFFFFFFFFFFFF AND PUSH20 0xFFFFFFFFFFFFFFFFFFFFFFFFFFFFFFFFFFFFFFFF AND DUP2 MSTORE PUSH1 0x20 ADD SWAP1 DUP2 MSTORE PUSH1 0x20 ADD PUSH1 0x0 KECCAK256 DUP2 SWAP1 SSTORE POP TIMESTAMP DUP9 PUSH1 0x20 ADD MLOAD PUSH1 0x40 ADD DUP2 DUP2 MSTORE POP POP NUMBER DUP9 PUSH1 0x20 ADD MLOAD PUSH1 0x60 ADD DUP2 DUP2 MSTORE POP POP DUP8 PUSH1 0x20 ADD MLOAD PUSH1 0xC PUSH1 0x0 DUP14 PUSH20 0xFFFFFFFFFFFFFFFFFFFFFFFFFFFFFFFFFFFFFFFF AND PUSH20 0xFFFFFFFFFFFFFFFFFFFFFFFFFFFFFFFFFFFFFFFF AND DUP2 MSTORE PUSH1 0x20 ADD SWAP1 DUP2 MSTORE PUSH1 0x20 ADD PUSH1 0x0 KECCAK256 PUSH1 0x0 DUP4 DUP2 MSTORE PUSH1 0x20 ADD SWAP1 DUP2 MSTORE PUSH1 0x20 ADD PUSH1 0x0 KECCAK256 PUSH1 0x0 DUP3 ADD MLOAD DUP2 PUSH1 0x0 ADD SSTORE PUSH1 0x20 DUP3 ADD MLOAD DUP2 PUSH1 0x1 ADD SSTORE PUSH1 0x40 DUP3 ADD MLOAD DUP2 PUSH1 0x2 ADD SSTORE PUSH1 0x60 DUP3 ADD MLOAD DUP2 PUSH1 0x3 ADD SSTORE SWAP1 POP POP POP JUMPDEST POP POP POP POP POP POP POP POP POP POP JUMP JUMPDEST PUSH2 0x3396 DUP4 PUSH4 0xA9059CBB PUSH1 0xE0 SHL DUP5 DUP5 PUSH1 0x40 MLOAD PUSH1 0x24 ADD PUSH2 0x3334 SWAP3 SWAP2 SWAP1 PUSH2 0x4950 JUMP JUMPDEST PUSH1 0x40 MLOAD PUSH1 0x20 DUP2 DUP4 SUB SUB DUP2 MSTORE SWAP1 PUSH1 0x40 MSTORE SWAP1 PUSH28 0xFFFFFFFFFFFFFFFFFFFFFFFFFFFFFFFFFFFFFFFFFFFFFFFFFFFFFFFF NOT AND PUSH1 0x20 DUP3 ADD DUP1 MLOAD PUSH28 0xFFFFFFFFFFFFFFFFFFFFFFFFFFFFFFFFFFFFFFFFFFFFFFFFFFFFFFFF DUP4 DUP2 DUP4 AND OR DUP4 MSTORE POP POP POP POP PUSH2 0x3BA9 JUMP JUMPDEST POP POP POP JUMP JUMPDEST PUSH2 0x33A3 PUSH2 0x3FD1 JUMP JUMPDEST PUSH1 0x0 PUSH3 0x93A80 DUP1 DUP5 PUSH2 0x33B5 SWAP2 SWAP1 PUSH2 0x4ED6 JUMP JUMPDEST PUSH2 0x33BF SWAP2 SWAP1 PUSH2 0x501E JUMP JUMPDEST SWAP1 POP PUSH1 0x0 DUP1 PUSH1 0x0 PUSH1 0xD PUSH1 0x0 DUP9 PUSH20 0xFFFFFFFFFFFFFFFFFFFFFFFFFFFFFFFFFFFFFFFF AND PUSH20 0xFFFFFFFFFFFFFFFFFFFFFFFFFFFFFFFFFFFFFFFF AND DUP2 MSTORE PUSH1 0x20 ADD SWAP1 DUP2 MSTORE PUSH1 0x20 ADD PUSH1 0x0 KECCAK256 SLOAD SWAP1 POP PUSH1 0x0 DUP2 EQ ISZERO PUSH2 0x3441 JUMPI PUSH1 0x40 MLOAD DUP1 PUSH1 0x80 ADD PUSH1 0x40 MSTORE DUP1 PUSH1 0x0 DUP2 MSTORE PUSH1 0x20 ADD PUSH1 0x0 DUP2 MSTORE PUSH1 0x20 ADD PUSH1 0x0 DUP2 MSTORE PUSH1 0x20 ADD PUSH1 0x0 DUP2 MSTORE POP SWAP5 POP POP POP POP POP PUSH2 0x382B JUMP JUMPDEST PUSH1 0x0 PUSH1 0x15 PUSH1 0x0 DUP10 PUSH20 0xFFFFFFFFFFFFFFFFFFFFFFFFFFFFFFFFFFFFFFFF AND PUSH20 0xFFFFFFFFFFFFFFFFFFFFFFFFFFFFFFFFFFFFFFFF AND DUP2 MSTORE PUSH1 0x20 ADD SWAP1 DUP2 MSTORE PUSH1 0x20 ADD PUSH1 0x0 KECCAK256 SLOAD SWAP1 POP PUSH1 0x0 DUP2 EQ ISZERO PUSH2 0x34A2 JUMPI PUSH2 0x349B DUP9 PUSH1 0x12 SLOAD DUP5 PUSH2 0x2491 JUMP JUMPDEST SWAP4 POP PUSH2 0x34E5 JUMP JUMPDEST PUSH1 0x16 PUSH1 0x0 DUP10 PUSH20 0xFFFFFFFFFFFFFFFFFFFFFFFFFFFFFFFFFFFFFFFF AND PUSH20 0xFFFFFFFFFFFFFFFFFFFFFFFFFFFFFFFFFFFFFFFF AND DUP2 MSTORE PUSH1 0x20 ADD SWAP1 DUP2 MSTORE PUSH1 0x20 ADD PUSH1 0x0 KECCAK256 SLOAD SWAP4 POP JUMPDEST PUSH1 0x0 DUP5 EQ ISZERO PUSH2 0x34F3 JUMPI PUSH1 0x1 SWAP4 POP JUMPDEST PUSH1 0x0 PUSH1 0xC PUSH1 0x0 DUP11 PUSH20 0xFFFFFFFFFFFFFFFFFFFFFFFFFFFFFFFFFFFFFFFF AND PUSH20 0xFFFFFFFFFFFFFFFFFFFFFFFFFFFFFFFFFFFFFFFF AND DUP2 MSTORE PUSH1 0x20 ADD SWAP1 DUP2 MSTORE PUSH1 0x20 ADD PUSH1 0x0 KECCAK256 PUSH1 0x0 DUP7 DUP2 MSTORE PUSH1 0x20 ADD SWAP1 DUP2 MSTORE PUSH1 0x20 ADD PUSH1 0x0 KECCAK256 PUSH1 0x40 MLOAD DUP1 PUSH1 0x80 ADD PUSH1 0x40 MSTORE SWAP1 DUP2 PUSH1 0x0 DUP3 ADD SLOAD DUP2 MSTORE PUSH1 0x20 ADD PUSH1 0x1 DUP3 ADD SLOAD DUP2 MSTORE PUSH1 0x20 ADD PUSH1 0x2 DUP3 ADD SLOAD DUP2 MSTORE PUSH1 0x20 ADD PUSH1 0x3 DUP3 ADD SLOAD DUP2 MSTORE POP POP SWAP1 POP PUSH1 0x0 DUP3 EQ ISZERO PUSH2 0x35BE JUMPI PUSH3 0x93A80 DUP1 PUSH1 0x1 PUSH3 0x93A80 DUP5 PUSH1 0x40 ADD MLOAD PUSH2 0x359D SWAP2 SWAP1 PUSH2 0x4E16 JUMP JUMPDEST PUSH2 0x35A7 SWAP2 SWAP1 PUSH2 0x510C JUMP JUMPDEST PUSH2 0x35B1 SWAP2 SWAP1 PUSH2 0x4ED6 JUMP JUMPDEST PUSH2 0x35BB SWAP2 SWAP1 PUSH2 0x501E JUMP JUMPDEST SWAP2 POP JUMPDEST DUP6 DUP3 LT PUSH2 0x35F4 JUMPI PUSH1 0x40 MLOAD DUP1 PUSH1 0x80 ADD PUSH1 0x40 MSTORE DUP1 PUSH1 0x0 DUP2 MSTORE PUSH1 0x20 ADD DUP7 DUP2 MSTORE PUSH1 0x20 ADD DUP5 DUP2 MSTORE PUSH1 0x20 ADD DUP4 DUP2 MSTORE POP SWAP7 POP POP POP POP POP POP POP PUSH2 0x382B JUMP JUMPDEST PUSH1 0x12 SLOAD DUP3 LT ISZERO PUSH2 0x3604 JUMPI PUSH1 0x12 SLOAD SWAP2 POP JUMPDEST PUSH2 0x360C PUSH2 0x3E9F JUMP JUMPDEST PUSH1 0x0 JUMPDEST PUSH1 0x34 DUP2 LT ISZERO PUSH2 0x37D6 JUMPI DUP8 DUP5 LT PUSH2 0x3624 JUMPI PUSH2 0x37D6 JUMP JUMPDEST DUP3 PUSH1 0x40 ADD MLOAD DUP5 LT ISZERO DUP1 ISZERO PUSH2 0x3638 JUMPI POP DUP5 DUP8 GT ISZERO JUMPDEST ISZERO PUSH2 0x36F3 JUMPI PUSH1 0x1 DUP8 PUSH2 0x364A SWAP2 SWAP1 PUSH2 0x4E16 JUMP JUMPDEST SWAP7 POP DUP3 SWAP2 POP DUP5 DUP8 GT ISZERO PUSH2 0x3668 JUMPI PUSH2 0x365F PUSH2 0x3E9F JUMP JUMPDEST DUP1 SWAP4 POP POP PUSH2 0x36EE JUMP JUMPDEST PUSH1 0xC PUSH1 0x0 DUP13 PUSH20 0xFFFFFFFFFFFFFFFFFFFFFFFFFFFFFFFFFFFFFFFF AND PUSH20 0xFFFFFFFFFFFFFFFFFFFFFFFFFFFFFFFFFFFFFFFF AND DUP2 MSTORE PUSH1 0x20 ADD SWAP1 DUP2 MSTORE PUSH1 0x20 ADD PUSH1 0x0 KECCAK256 PUSH1 0x0 DUP9 DUP2 MSTORE PUSH1 0x20 ADD SWAP1 DUP2 MSTORE PUSH1 0x20 ADD PUSH1 0x0 KECCAK256 PUSH1 0x40 MLOAD DUP1 PUSH1 0x80 ADD PUSH1 0x40 MSTORE SWAP1 DUP2 PUSH1 0x0 DUP3 ADD SLOAD DUP2 MSTORE PUSH1 0x20 ADD PUSH1 0x1 DUP3 ADD SLOAD DUP2 MSTORE PUSH1 0x20 ADD PUSH1 0x2 DUP3 ADD SLOAD DUP2 MSTORE PUSH1 0x20 ADD PUSH1 0x3 DUP3 ADD SLOAD DUP2 MSTORE POP POP SWAP3 POP JUMPDEST PUSH2 0x37C3 JUMP JUMPDEST PUSH1 0x0 DUP3 PUSH1 0x40 ADD MLOAD DUP6 PUSH2 0x3705 SWAP2 SWAP1 PUSH2 0x510C JUMP JUMPDEST SWAP1 POP PUSH1 0x0 DUP4 PUSH1 0x20 ADD MLOAD DUP3 PUSH2 0x3719 SWAP2 SWAP1 PUSH2 0x4F07 JUMP JUMPDEST DUP5 PUSH1 0x0 ADD MLOAD PUSH2 0x3728 SWAP2 SWAP1 PUSH2 0x5078 JUMP JUMPDEST SWAP1 POP PUSH1 0x0 DUP1 DUP3 SGT ISZERO PUSH2 0x3738 JUMPI DUP2 SWAP1 POP JUMPDEST PUSH1 0x0 DUP2 EQ DUP1 ISZERO PUSH2 0x3747 JUMPI POP DUP8 DUP11 GT JUMPDEST ISZERO PUSH2 0x3754 JUMPI POP POP POP PUSH2 0x37D6 JUMP JUMPDEST PUSH1 0x0 PUSH1 0x14 PUSH1 0x0 DUP10 DUP2 MSTORE PUSH1 0x20 ADD SWAP1 DUP2 MSTORE PUSH1 0x20 ADD PUSH1 0x0 KECCAK256 SLOAD SWAP1 POP PUSH1 0x0 DUP3 GT DUP1 ISZERO PUSH2 0x377C JUMPI POP PUSH1 0x0 DUP2 GT JUMPDEST ISZERO PUSH2 0x37AD JUMPI DUP1 PUSH2 0x378A PUSH2 0x1A0D JUMP JUMPDEST DUP4 PUSH2 0x3795 SWAP2 SWAP1 PUSH2 0x501E JUMP JUMPDEST PUSH2 0x379F SWAP2 SWAP1 PUSH2 0x4ED6 JUMP JUMPDEST DUP11 PUSH2 0x37AA SWAP2 SWAP1 PUSH2 0x4E16 JUMP JUMPDEST SWAP10 POP JUMPDEST PUSH3 0x93A80 DUP9 PUSH2 0x37BC SWAP2 SWAP1 PUSH2 0x4E16 JUMP JUMPDEST SWAP8 POP POP POP POP POP JUMPDEST DUP1 DUP1 PUSH2 0x37CE SWAP1 PUSH2 0x51F7 JUMP JUMPDEST SWAP2 POP POP PUSH2 0x360F JUMP JUMPDEST POP PUSH1 0x1 DUP7 PUSH2 0x37E4 SWAP2 SWAP1 PUSH2 0x510C JUMP JUMPDEST DUP5 LT PUSH2 0x37FC JUMPI PUSH1 0x1 DUP7 PUSH2 0x37F7 SWAP2 SWAP1 PUSH2 0x510C JUMP JUMPDEST PUSH2 0x37FE JUMP JUMPDEST DUP4 JUMPDEST SWAP6 POP PUSH1 0x40 MLOAD DUP1 PUSH1 0x80 ADD PUSH1 0x40 MSTORE DUP1 DUP7 DUP2 MSTORE PUSH1 0x20 ADD DUP8 DUP2 MSTORE PUSH1 0x20 ADD DUP6 DUP2 MSTORE PUSH1 0x20 ADD DUP5 DUP2 MSTORE POP SWAP8 POP POP POP POP POP POP POP POP JUMPDEST SWAP3 SWAP2 POP POP JUMP JUMPDEST PUSH1 0x0 DUP1 PUSH1 0x0 SWAP1 POP PUSH1 0x0 DUP4 SWAP1 POP PUSH1 0x0 JUMPDEST PUSH1 0x80 DUP2 GT PUSH2 0x38C5 JUMPI DUP2 DUP4 LT PUSH2 0x3854 JUMPI PUSH2 0x38C5 JUMP JUMPDEST PUSH1 0x0 PUSH1 0x2 PUSH1 0x1 DUP5 DUP7 PUSH2 0x3866 SWAP2 SWAP1 PUSH2 0x4E16 JUMP JUMPDEST PUSH2 0x3870 SWAP2 SWAP1 PUSH2 0x4E16 JUMP JUMPDEST PUSH2 0x387A SWAP2 SWAP1 PUSH2 0x4ED6 JUMP JUMPDEST SWAP1 POP DUP7 PUSH1 0xB PUSH1 0x0 DUP4 DUP2 MSTORE PUSH1 0x20 ADD SWAP1 DUP2 MSTORE PUSH1 0x20 ADD PUSH1 0x0 KECCAK256 PUSH1 0x3 ADD SLOAD GT PUSH2 0x38A1 JUMPI DUP1 SWAP4 POP PUSH2 0x38B1 JUMP JUMPDEST PUSH1 0x1 DUP2 PUSH2 0x38AE SWAP2 SWAP1 PUSH2 0x510C JUMP JUMPDEST SWAP3 POP JUMPDEST POP DUP1 DUP1 PUSH2 0x38BD SWAP1 PUSH2 0x51F7 JUMP JUMPDEST SWAP2 POP POP PUSH2 0x3840 JUMP JUMPDEST POP DUP2 SWAP3 POP POP POP SWAP3 SWAP2 POP POP JUMP JUMPDEST PUSH1 0x0 DUP1 PUSH1 0x0 SWAP1 POP PUSH1 0x0 PUSH1 0xA SLOAD SWAP1 POP PUSH1 0x0 JUMPDEST PUSH1 0x80 DUP2 LT ISZERO PUSH2 0x39A0 JUMPI DUP2 DUP4 LT PUSH2 0x38F7 JUMPI PUSH2 0x39A0 JUMP JUMPDEST PUSH1 0x0 PUSH1 0x2 DUP1 DUP5 DUP7 PUSH2 0x3908 SWAP2 SWAP1 PUSH2 0x4E16 JUMP JUMPDEST PUSH2 0x3912 SWAP2 SWAP1 PUSH2 0x4E16 JUMP JUMPDEST PUSH2 0x391C SWAP2 SWAP1 PUSH2 0x4ED6 JUMP JUMPDEST SWAP1 POP PUSH1 0x0 PUSH1 0xB PUSH1 0x0 DUP4 DUP2 MSTORE PUSH1 0x20 ADD SWAP1 DUP2 MSTORE PUSH1 0x20 ADD PUSH1 0x0 KECCAK256 PUSH1 0x40 MLOAD DUP1 PUSH1 0x80 ADD PUSH1 0x40 MSTORE SWAP1 DUP2 PUSH1 0x0 DUP3 ADD SLOAD DUP2 MSTORE PUSH1 0x20 ADD PUSH1 0x1 DUP3 ADD SLOAD DUP2 MSTORE PUSH1 0x20 ADD PUSH1 0x2 DUP3 ADD SLOAD DUP2 MSTORE PUSH1 0x20 ADD PUSH1 0x3 DUP3 ADD SLOAD DUP2 MSTORE POP POP SWAP1 POP DUP7 DUP2 PUSH1 0x40 ADD MLOAD GT PUSH2 0x397B JUMPI DUP2 SWAP5 POP PUSH2 0x398B JUMP JUMPDEST PUSH1 0x1 DUP3 PUSH2 0x3988 SWAP2 SWAP1 PUSH2 0x510C JUMP JUMPDEST SWAP4 POP JUMPDEST POP POP DUP1 DUP1 PUSH2 0x3998 SWAP1 PUSH2 0x51F7 JUMP JUMPDEST SWAP2 POP POP PUSH2 0x38E2 JUMP JUMPDEST POP DUP2 SWAP3 POP POP POP SWAP2 SWAP1 POP JUMP JUMPDEST PUSH1 0x0 PUSH1 0x40 MLOAD DUP1 PUSH1 0x40 ADD PUSH1 0x40 MSTORE DUP1 DUP5 PUSH1 0x0 ADD MLOAD DUP2 MSTORE PUSH1 0x20 ADD DUP5 PUSH1 0x20 ADD MLOAD DUP2 MSTORE POP SWAP1 POP PUSH1 0x0 PUSH1 0x40 MLOAD DUP1 PUSH1 0x40 ADD PUSH1 0x40 MSTORE DUP1 DUP6 PUSH1 0x0 ADD MLOAD DUP2 MSTORE PUSH1 0x20 ADD DUP6 PUSH1 0x20 ADD MLOAD DUP2 MSTORE POP SWAP1 POP PUSH1 0x0 PUSH1 0x8 SLOAD SWAP1 POP DUP7 DUP2 PUSH2 0x3A00 SWAP2 SWAP1 PUSH2 0x4E16 JUMP JUMPDEST PUSH1 0x8 DUP2 SWAP1 SSTORE POP DUP7 DUP4 PUSH1 0x0 ADD MLOAD PUSH2 0x3A16 SWAP2 SWAP1 PUSH2 0x4D82 JUMP JUMPDEST DUP4 PUSH1 0x0 ADD DUP2 DUP2 MSTORE POP POP PUSH1 0x0 DUP7 EQ PUSH2 0x3A32 JUMPI DUP6 DUP4 PUSH1 0x20 ADD DUP2 DUP2 MSTORE POP POP JUMPDEST DUP3 PUSH1 0x9 PUSH1 0x0 DUP11 PUSH20 0xFFFFFFFFFFFFFFFFFFFFFFFFFFFFFFFFFFFFFFFF AND PUSH20 0xFFFFFFFFFFFFFFFFFFFFFFFFFFFFFFFFFFFFFFFF AND DUP2 MSTORE PUSH1 0x20 ADD SWAP1 DUP2 MSTORE PUSH1 0x20 ADD PUSH1 0x0 KECCAK256 PUSH1 0x0 DUP3 ADD MLOAD DUP2 PUSH1 0x0 ADD SSTORE PUSH1 0x20 DUP3 ADD MLOAD DUP2 PUSH1 0x1 ADD SSTORE SWAP1 POP POP PUSH2 0x3A94 DUP9 DUP4 DUP6 PUSH2 0x2B72 JUMP JUMPDEST PUSH1 0x0 DUP8 EQ PUSH2 0x3AEC JUMPI PUSH2 0x3AEB DUP10 ADDRESS DUP10 PUSH1 0x7 PUSH1 0x0 SWAP1 SLOAD SWAP1 PUSH2 0x100 EXP SWAP1 DIV PUSH20 0xFFFFFFFFFFFFFFFFFFFFFFFFFFFFFFFFFFFFFFFF AND PUSH20 0xFFFFFFFFFFFFFFFFFFFFFFFFFFFFFFFFFFFFFFFF AND PUSH2 0x3C70 SWAP1 SWAP4 SWAP3 SWAP2 SWAP1 PUSH4 0xFFFFFFFF AND JUMP JUMPDEST JUMPDEST DUP3 PUSH1 0x20 ADD MLOAD DUP9 PUSH20 0xFFFFFFFFFFFFFFFFFFFFFFFFFFFFFFFFFFFFFFFF AND DUP11 PUSH20 0xFFFFFFFFFFFFFFFFFFFFFFFFFFFFFFFFFFFFFFFF AND PUSH32 0x5F971BD00BF3FFBCA8A6D72CDD4FD92CFD4F62636161921D1E5A64F0B64CCB6D DUP11 DUP9 TIMESTAMP PUSH1 0x40 MLOAD PUSH2 0x3B52 SWAP4 SWAP3 SWAP2 SWAP1 PUSH2 0x4D19 JUMP JUMPDEST PUSH1 0x40 MLOAD DUP1 SWAP2 SUB SWAP1 LOG4 PUSH32 0x5E2AA66EFD74CCE82B21852E317E5490D9ECC9E6BB953AE24D90851258CC2F5C DUP2 DUP9 DUP4 PUSH2 0x3B88 SWAP2 SWAP1 PUSH2 0x4E16 JUMP JUMPDEST PUSH1 0x40 MLOAD PUSH2 0x3B96 SWAP3 SWAP2 SWAP1 PUSH2 0x4CF0 JUMP JUMPDEST PUSH1 0x40 MLOAD DUP1 SWAP2 SUB SWAP1 LOG1 POP POP POP POP POP POP POP POP POP JUMP JUMPDEST PUSH1 0x0 PUSH2 0x3C0B DUP3 PUSH1 0x40 MLOAD DUP1 PUSH1 0x40 ADD PUSH1 0x40 MSTORE DUP1 PUSH1 0x20 DUP2 MSTORE PUSH1 0x20 ADD PUSH32 0x5361666545524332303A206C6F772D6C6576656C2063616C6C206661696C6564 DUP2 MSTORE POP DUP6 PUSH20 0xFFFFFFFFFFFFFFFFFFFFFFFFFFFFFFFFFFFFFFFF AND PUSH2 0x3CF9 SWAP1 SWAP3 SWAP2 SWAP1 PUSH4 0xFFFFFFFF AND JUMP JUMPDEST SWAP1 POP PUSH1 0x0 DUP2 MLOAD GT ISZERO PUSH2 0x3C6B JUMPI DUP1 DUP1 PUSH1 0x20 ADD SWAP1 MLOAD DUP2 ADD SWAP1 PUSH2 0x3C2B SWAP2 SWAP1 PUSH2 0x411E JUMP JUMPDEST PUSH2 0x3C6A JUMPI PUSH1 0x40 MLOAD PUSH32 0x8C379A000000000000000000000000000000000000000000000000000000000 DUP2 MSTORE PUSH1 0x4 ADD PUSH2 0x3C61 SWAP1 PUSH2 0x4C3F JUMP JUMPDEST PUSH1 0x40 MLOAD DUP1 SWAP2 SUB SWAP1 REVERT JUMPDEST JUMPDEST POP POP POP JUMP JUMPDEST PUSH2 0x3CF3 DUP5 PUSH4 0x23B872DD PUSH1 0xE0 SHL DUP6 DUP6 DUP6 PUSH1 0x40 MLOAD PUSH1 0x24 ADD PUSH2 0x3C91 SWAP4 SWAP3 SWAP2 SWAP1 PUSH2 0x4919 JUMP JUMPDEST PUSH1 0x40 MLOAD PUSH1 0x20 DUP2 DUP4 SUB SUB DUP2 MSTORE SWAP1 PUSH1 0x40 MSTORE SWAP1 PUSH28 0xFFFFFFFFFFFFFFFFFFFFFFFFFFFFFFFFFFFFFFFFFFFFFFFFFFFFFFFF NOT AND PUSH1 0x20 DUP3 ADD DUP1 MLOAD PUSH28 0xFFFFFFFFFFFFFFFFFFFFFFFFFFFFFFFFFFFFFFFFFFFFFFFFFFFFFFFF DUP4 DUP2 DUP4 AND OR DUP4 MSTORE POP POP POP POP PUSH2 0x3BA9 JUMP JUMPDEST POP POP POP POP JUMP JUMPDEST PUSH1 0x60 PUSH2 0x3D08 DUP5 DUP5 PUSH1 0x0 DUP6 PUSH2 0x3D11 JUMP JUMPDEST SWAP1 POP SWAP4 SWAP3 POP POP POP JUMP JUMPDEST PUSH1 0x60 DUP3 SELFBALANCE LT ISZERO PUSH2 0x3D56 JUMPI PUSH1 0x40 MLOAD PUSH32 0x8C379A000000000000000000000000000000000000000000000000000000000 DUP2 MSTORE PUSH1 0x4 ADD PUSH2 0x3D4D SWAP1 PUSH2 0x4A9F JUMP JUMPDEST PUSH1 0x40 MLOAD DUP1 SWAP2 SUB SWAP1 REVERT JUMPDEST PUSH2 0x3D5F DUP6 PUSH2 0x3E25 JUMP JUMPDEST PUSH2 0x3D9E JUMPI PUSH1 0x40 MLOAD PUSH32 0x8C379A000000000000000000000000000000000000000000000000000000000 DUP2 MSTORE PUSH1 0x4 ADD PUSH2 0x3D95 SWAP1 PUSH2 0x4BFF JUMP JUMPDEST PUSH1 0x40 MLOAD DUP1 SWAP2 SUB SWAP1 REVERT JUMPDEST PUSH1 0x0 DUP1 DUP7 PUSH20 0xFFFFFFFFFFFFFFFFFFFFFFFFFFFFFFFFFFFFFFFF AND DUP6 DUP8 PUSH1 0x40 MLOAD PUSH2 0x3DC7 SWAP2 SWAP1 PUSH2 0x48E7 JUMP JUMPDEST PUSH1 0x0 PUSH1 0x40 MLOAD DUP1 DUP4 SUB DUP2 DUP6 DUP8 GAS CALL SWAP3 POP POP POP RETURNDATASIZE DUP1 PUSH1 0x0 DUP2 EQ PUSH2 0x3E04 JUMPI PUSH1 0x40 MLOAD SWAP2 POP PUSH1 0x1F NOT PUSH1 0x3F RETURNDATASIZE ADD AND DUP3 ADD PUSH1 0x40 MSTORE RETURNDATASIZE DUP3 MSTORE RETURNDATASIZE PUSH1 0x0 PUSH1 0x20 DUP5 ADD RETURNDATACOPY PUSH2 0x3E09 JUMP JUMPDEST PUSH1 0x60 SWAP2 POP JUMPDEST POP SWAP2 POP SWAP2 POP PUSH2 0x3E19 DUP3 DUP3 DUP7 PUSH2 0x3E38 JUMP JUMPDEST SWAP3 POP POP POP SWAP5 SWAP4 POP POP POP POP JUMP JUMPDEST PUSH1 0x0 DUP1 DUP3 EXTCODESIZE SWAP1 POP PUSH1 0x0 DUP2 GT SWAP2 POP POP SWAP2 SWAP1 POP JUMP JUMPDEST PUSH1 0x60 DUP4 ISZERO PUSH2 0x3E48 JUMPI DUP3 SWAP1 POP PUSH2 0x3E98 JUMP JUMPDEST PUSH1 0x0 DUP4 MLOAD GT ISZERO PUSH2 0x3E5B JUMPI DUP3 MLOAD DUP1 DUP5 PUSH1 0x20 ADD REVERT JUMPDEST DUP2 PUSH1 0x40 MLOAD PUSH32 0x8C379A000000000000000000000000000000000000000000000000000000000 DUP2 MSTORE PUSH1 0x4 ADD PUSH2 0x3E8F SWAP2 SWAP1 PUSH2 0x4A1D JUMP JUMPDEST PUSH1 0x40 MLOAD DUP1 SWAP2 SUB SWAP1 REVERT JUMPDEST SWAP4 SWAP3 POP POP POP JUMP JUMPDEST PUSH1 0x40 MLOAD DUP1 PUSH1 0x80 ADD PUSH1 0x40 MSTORE DUP1 PUSH1 0x0 DUP2 MSTORE PUSH1 0x20 ADD PUSH1 0x0 DUP2 MSTORE PUSH1 0x20 ADD PUSH1 0x0 DUP2 MSTORE PUSH1 0x20 ADD PUSH1 0x0 DUP2 MSTORE POP SWAP1 JUMP JUMPDEST PUSH1 0x40 MLOAD DUP1 PUSH1 0xA0 ADD PUSH1 0x40 MSTORE DUP1 PUSH1 0x0 DUP2 MSTORE PUSH1 0x20 ADD PUSH1 0x0 DUP2 MSTORE PUSH1 0x20 ADD PUSH1 0x0 DUP2 MSTORE PUSH1 0x20 ADD PUSH1 0x0 DUP2 MSTORE PUSH1 0x20 ADD PUSH1 0x0 DUP2 MSTORE POP SWAP1 JUMP JUMPDEST PUSH1 0x40 MLOAD DUP1 PUSH1 0x40 ADD PUSH1 0x40 MSTORE DUP1 PUSH1 0x0 DUP2 MSTORE PUSH1 0x20 ADD PUSH1 0x0 DUP2 MSTORE POP SWAP1 JUMP JUMPDEST DUP3 DUP1 SLOAD PUSH2 0x3F1C SWAP1 PUSH2 0x51C5 JUMP JUMPDEST SWAP1 PUSH1 0x0 MSTORE PUSH1 0x20 PUSH1 0x0 KECCAK256 SWAP1 PUSH1 0x1F ADD PUSH1 0x20 SWAP1 DIV DUP2 ADD SWAP3 DUP3 PUSH2 0x3F3E JUMPI PUSH1 0x0 DUP6 SSTORE PUSH2 0x3F85 JUMP JUMPDEST DUP3 PUSH1 0x1F LT PUSH2 0x3F57 JUMPI DUP1 MLOAD PUSH1 0xFF NOT AND DUP4 DUP1 ADD OR DUP6 SSTORE PUSH2 0x3F85 JUMP JUMPDEST DUP3 DUP1 ADD PUSH1 0x1 ADD DUP6 SSTORE DUP3 ISZERO PUSH2 0x3F85 JUMPI SWAP2 DUP3 ADD JUMPDEST DUP3 DUP2 GT ISZERO PUSH2 0x3F84 JUMPI DUP3 MLOAD DUP3 SSTORE SWAP2 PUSH1 0x20 ADD SWAP2 SWAP1 PUSH1 0x1 ADD SWAP1 PUSH2 0x3F69 JUMP JUMPDEST JUMPDEST POP SWAP1 POP PUSH2 0x3F92 SWAP2 SWAP1 PUSH2 0x3FF9 JUMP JUMPDEST POP SWAP1 JUMP JUMPDEST PUSH1 0x40 MLOAD DUP1 PUSH1 0xA0 ADD PUSH1 0x40 MSTORE DUP1 PUSH2 0x3FA9 PUSH2 0x3E9F JUMP JUMPDEST DUP2 MSTORE PUSH1 0x20 ADD PUSH2 0x3FB6 PUSH2 0x3E9F JUMP JUMPDEST DUP2 MSTORE PUSH1 0x20 ADD PUSH1 0x0 DUP2 MSTORE PUSH1 0x20 ADD PUSH1 0x0 DUP2 MSTORE PUSH1 0x20 ADD PUSH1 0x0 DUP2 MSTORE POP SWAP1 JUMP JUMPDEST PUSH1 0x40 MLOAD DUP1 PUSH1 0x80 ADD PUSH1 0x40 MSTORE DUP1 PUSH1 0x0 DUP2 MSTORE PUSH1 0x20 ADD PUSH1 0x0 DUP2 MSTORE PUSH1 0x20 ADD PUSH1 0x0 DUP2 MSTORE PUSH1 0x20 ADD PUSH1 0x0 DUP2 MSTORE POP SWAP1 JUMP JUMPDEST JUMPDEST DUP1 DUP3 GT ISZERO PUSH2 0x4012 JUMPI PUSH1 0x0 DUP2 PUSH1 0x0 SWAP1 SSTORE POP PUSH1 0x1 ADD PUSH2 0x3FFA JUMP JUMPDEST POP SWAP1 JUMP JUMPDEST PUSH1 0x0 DUP2 CALLDATALOAD SWAP1 POP PUSH2 0x4025 DUP2 PUSH2 0x52DE JUMP JUMPDEST SWAP3 SWAP2 POP POP JUMP JUMPDEST PUSH1 0x0 DUP2 MLOAD SWAP1 POP PUSH2 0x403A DUP2 PUSH2 0x52F5 JUMP JUMPDEST SWAP3 SWAP2 POP POP JUMP JUMPDEST PUSH1 0x0 DUP2 CALLDATALOAD SWAP1 POP PUSH2 0x404F DUP2 PUSH2 0x530C JUMP JUMPDEST SWAP3 SWAP2 POP POP JUMP JUMPDEST PUSH1 0x0 DUP2 MLOAD SWAP1 POP PUSH2 0x4064 DUP2 PUSH2 0x530C JUMP JUMPDEST SWAP3 SWAP2 POP POP JUMP JUMPDEST PUSH1 0x0 PUSH1 0x20 DUP3 DUP5 SUB SLT ISZERO PUSH2 0x407C JUMPI PUSH1 0x0 DUP1 REVERT JUMPDEST PUSH1 0x0 PUSH2 0x408A DUP5 DUP3 DUP6 ADD PUSH2 0x4016 JUMP JUMPDEST SWAP2 POP POP SWAP3 SWAP2 POP POP JUMP JUMPDEST PUSH1 0x0 DUP1 PUSH1 0x40 DUP4 DUP6 SUB SLT ISZERO PUSH2 0x40A6 JUMPI PUSH1 0x0 DUP1 REVERT JUMPDEST PUSH1 0x0 PUSH2 0x40B4 DUP6 DUP3 DUP7 ADD PUSH2 0x4016 JUMP JUMPDEST SWAP3 POP POP PUSH1 0x20 PUSH2 0x40C5 DUP6 DUP3 DUP7 ADD PUSH2 0x4040 JUMP JUMPDEST SWAP2 POP POP SWAP3 POP SWAP3 SWAP1 POP JUMP JUMPDEST PUSH1 0x0 DUP1 PUSH1 0x0 PUSH1 0x60 DUP5 DUP7 SUB SLT ISZERO PUSH2 0x40E4 JUMPI PUSH1 0x0 DUP1 REVERT JUMPDEST PUSH1 0x0 PUSH2 0x40F2 DUP7 DUP3 DUP8 ADD PUSH2 0x4016 JUMP JUMPDEST SWAP4 POP POP PUSH1 0x20 PUSH2 0x4103 DUP7 DUP3 DUP8 ADD PUSH2 0x4040 JUMP JUMPDEST SWAP3 POP POP PUSH1 0x40 PUSH2 0x4114 DUP7 DUP3 DUP8 ADD PUSH2 0x4040 JUMP JUMPDEST SWAP2 POP POP SWAP3 POP SWAP3 POP SWAP3 JUMP JUMPDEST PUSH1 0x0 PUSH1 0x20 DUP3 DUP5 SUB SLT ISZERO PUSH2 0x4130 JUMPI PUSH1 0x0 DUP1 REVERT JUMPDEST PUSH1 0x0 PUSH2 0x413E DUP5 DUP3 DUP6 ADD PUSH2 0x402B JUMP JUMPDEST SWAP2 POP POP SWAP3 SWAP2 POP POP JUMP JUMPDEST PUSH1 0x0 PUSH1 0x20 DUP3 DUP5 SUB SLT ISZERO PUSH2 0x4159 JUMPI PUSH1 0x0 DUP1 REVERT JUMPDEST PUSH1 0x0 PUSH2 0x4167 DUP5 DUP3 DUP6 ADD PUSH2 0x4040 JUMP JUMPDEST SWAP2 POP POP SWAP3 SWAP2 POP POP JUMP JUMPDEST PUSH1 0x0 PUSH1 0x20 DUP3 DUP5 SUB SLT ISZERO PUSH2 0x4182 JUMPI PUSH1 0x0 DUP1 REVERT JUMPDEST PUSH1 0x0 PUSH2 0x4190 DUP5 DUP3 DUP6 ADD PUSH2 0x4055 JUMP JUMPDEST SWAP2 POP POP SWAP3 SWAP2 POP POP JUMP JUMPDEST PUSH1 0x0 DUP1 PUSH1 0x40 DUP4 DUP6 SUB SLT ISZERO PUSH2 0x41AC JUMPI PUSH1 0x0 DUP1 REVERT JUMPDEST PUSH1 0x0 PUSH2 0x41BA DUP6 DUP3 DUP7 ADD PUSH2 0x4040 JUMP JUMPDEST SWAP3 POP POP PUSH1 0x20 PUSH2 0x41CB DUP6 DUP3 DUP7 ADD PUSH2 0x4040 JUMP JUMPDEST SWAP2 POP POP SWAP3 POP SWAP3 SWAP1 POP JUMP JUMPDEST PUSH2 0x41DE DUP2 PUSH2 0x5140 JUMP JUMPDEST DUP3 MSTORE POP POP JUMP JUMPDEST PUSH2 0x41ED DUP2 PUSH2 0x5152 JUMP JUMPDEST DUP3 MSTORE POP POP JUMP JUMPDEST PUSH1 0x0 PUSH2 0x41FE DUP3 PUSH2 0x4D50 JUMP JUMPDEST PUSH2 0x4208 DUP2 DUP6 PUSH2 0x4D66 JUMP JUMPDEST SWAP4 POP PUSH2 0x4218 DUP2 DUP6 PUSH1 0x20 DUP7 ADD PUSH2 0x5192 JUMP JUMPDEST DUP1 DUP5 ADD SWAP2 POP POP SWAP3 SWAP2 POP POP JUMP JUMPDEST PUSH2 0x422D DUP2 PUSH2 0x515E JUMP JUMPDEST DUP3 MSTORE POP POP JUMP JUMPDEST PUSH2 0x423C DUP2 PUSH2 0x515E JUMP JUMPDEST DUP3 MSTORE POP POP JUMP JUMPDEST PUSH1 0x0 PUSH2 0x424D DUP3 PUSH2 0x4D5B JUMP JUMPDEST PUSH2 0x4257 DUP2 DUP6 PUSH2 0x4D71 JUMP JUMPDEST SWAP4 POP PUSH2 0x4267 DUP2 DUP6 PUSH1 0x20 DUP7 ADD PUSH2 0x5192 JUMP JUMPDEST PUSH2 0x4270 DUP2 PUSH2 0x52CD JUMP JUMPDEST DUP5 ADD SWAP2 POP POP SWAP3 SWAP2 POP POP JUMP JUMPDEST PUSH1 0x0 PUSH2 0x4288 PUSH1 0x15 DUP4 PUSH2 0x4D71 JUMP JUMPDEST SWAP2 POP PUSH32 0x43616E2774206C6F636B207A65726F2076616C75650000000000000000000000 PUSH1 0x0 DUP4 ADD MSTORE PUSH1 0x20 DUP3 ADD SWAP1 POP SWAP2 SWAP1 POP JUMP JUMPDEST PUSH1 0x0 PUSH2 0x42C8 PUSH1 0x24 DUP4 PUSH2 0x4D71 JUMP JUMPDEST SWAP2 POP PUSH32 0x43616E6E6F742061646420746F2065787069726564206C6F636B2E2057697468 PUSH1 0x0 DUP4 ADD MSTORE PUSH32 0x6472617700000000000000000000000000000000000000000000000000000000 PUSH1 0x20 DUP4 ADD MSTORE PUSH1 0x40 DUP3 ADD SWAP1 POP SWAP2 SWAP1 POP JUMP JUMPDEST PUSH1 0x0 PUSH2 0x432E PUSH1 0x1F DUP4 PUSH2 0x4D71 JUMP JUMPDEST SWAP2 POP PUSH32 0x43616E206F6E6C7920696E637265617365206C6F636B206475726174696F6E00 PUSH1 0x0 DUP4 ADD MSTORE PUSH1 0x20 DUP3 ADD SWAP1 POP SWAP2 SWAP1 POP JUMP JUMPDEST PUSH1 0x0 PUSH2 0x436E PUSH1 0x26 DUP4 PUSH2 0x4D71 JUMP JUMPDEST SWAP2 POP PUSH32 0x416464726573733A20696E73756666696369656E742062616C616E636520666F PUSH1 0x0 DUP4 ADD MSTORE PUSH32 0x722063616C6C0000000000000000000000000000000000000000000000000000 PUSH1 0x20 DUP4 ADD MSTORE PUSH1 0x40 DUP3 ADD SWAP1 POP SWAP2 SWAP1 POP JUMP JUMPDEST PUSH1 0x0 PUSH2 0x43D4 PUSH1 0x11 DUP4 PUSH2 0x4D71 JUMP JUMPDEST SWAP2 POP PUSH32 0x4E6F7468696E67206973206C6F636B6564000000000000000000000000000000 PUSH1 0x0 DUP4 ADD MSTORE PUSH1 0x20 DUP3 ADD SWAP1 POP SWAP2 SWAP1 POP JUMP JUMPDEST PUSH1 0x0 PUSH2 0x4414 PUSH1 0x1D DUP4 PUSH2 0x4D71 JUMP JUMPDEST SWAP2 POP PUSH32 0x43616E27742065786365656420746865206C617465737420626C6F636B000000 PUSH1 0x0 DUP4 ADD MSTORE PUSH1 0x20 DUP3 ADD SWAP1 POP SWAP2 SWAP1 POP JUMP JUMPDEST PUSH1 0x0 PUSH2 0x4454 PUSH1 0x19 DUP4 PUSH2 0x4D71 JUMP JUMPDEST SWAP2 POP PUSH32 0x43616E277420696E637265617365207A65726F2076616C756500000000000000 PUSH1 0x0 DUP4 ADD MSTORE PUSH1 0x20 DUP3 ADD SWAP1 POP SWAP2 SWAP1 POP JUMP JUMPDEST PUSH1 0x0 PUSH2 0x4494 PUSH1 0x1E DUP4 PUSH2 0x4D71 JUMP JUMPDEST SWAP2 POP PUSH32 0x566F74696E67206C6F636B2063616E2062652034207965617273206D61780000 PUSH1 0x0 DUP4 ADD MSTORE PUSH1 0x20 DUP3 ADD SWAP1 POP SWAP2 SWAP1 POP JUMP JUMPDEST PUSH1 0x0 PUSH2 0x44D4 PUSH1 0x19 DUP4 PUSH2 0x4D71 JUMP JUMPDEST SWAP2 POP PUSH32 0x5769746864726177206F6C6420746F6B656E7320666972737400000000000000 PUSH1 0x0 DUP4 ADD MSTORE PUSH1 0x20 DUP3 ADD SWAP1 POP SWAP2 SWAP1 POP JUMP JUMPDEST PUSH1 0x0 PUSH2 0x4514 PUSH1 0x26 DUP4 PUSH2 0x4D71 JUMP JUMPDEST SWAP2 POP PUSH32 0x43616E206F6E6C79206C6F636B20756E74696C2074696D6520696E2074686520 PUSH1 0x0 DUP4 ADD MSTORE PUSH32 0x6675747572650000000000000000000000000000000000000000000000000000 PUSH1 0x20 DUP4 ADD MSTORE PUSH1 0x40 DUP3 ADD SWAP1 POP SWAP2 SWAP1 POP JUMP JUMPDEST PUSH1 0x0 PUSH2 0x457A PUSH1 0x33 DUP4 PUSH2 0x4D71 JUMP JUMPDEST SWAP2 POP PUSH32 0x496E63656E746976655665746F6B656E3A205665746F6B656E2068617320696E PUSH1 0x0 DUP4 ADD MSTORE PUSH32 0x73756666696369656E742062616C616E63652100000000000000000000000000 PUSH1 0x20 DUP4 ADD MSTORE PUSH1 0x40 DUP3 ADD SWAP1 POP SWAP2 SWAP1 POP JUMP JUMPDEST PUSH1 0x0 PUSH2 0x45E0 PUSH1 0xC DUP4 PUSH2 0x4D71 JUMP JUMPDEST SWAP2 POP PUSH32 0x4C6F636B20657870697265640000000000000000000000000000000000000000 PUSH1 0x0 DUP4 ADD MSTORE PUSH1 0x20 DUP3 ADD SWAP1 POP SWAP2 SWAP1 POP JUMP JUMPDEST PUSH1 0x0 PUSH2 0x4620 PUSH1 0x16 DUP4 PUSH2 0x4D71 JUMP JUMPDEST SWAP2 POP PUSH32 0x4E6F206578697374696E67206C6F636B20666F756E6400000000000000000000 PUSH1 0x0 DUP4 ADD MSTORE PUSH1 0x20 DUP3 ADD SWAP1 POP SWAP2 SWAP1 POP JUMP JUMPDEST PUSH1 0x0 PUSH2 0x4660 PUSH1 0x19 DUP4 PUSH2 0x4D71 JUMP JUMPDEST SWAP2 POP PUSH32 0x43616E277420657863656564206C617374656420626C6F636B00000000000000 PUSH1 0x0 DUP4 ADD MSTORE PUSH1 0x20 DUP3 ADD SWAP1 POP SWAP2 SWAP1 POP JUMP JUMPDEST PUSH1 0x0 PUSH2 0x46A0 PUSH1 0x1D DUP4 PUSH2 0x4D71 JUMP JUMPDEST SWAP2 POP PUSH32 0x416464726573733A2063616C6C20746F206E6F6E2D636F6E7472616374000000 PUSH1 0x0 DUP4 ADD MSTORE PUSH1 0x20 DUP3 ADD SWAP1 POP SWAP2 SWAP1 POP JUMP JUMPDEST PUSH1 0x0 PUSH2 0x46E0 PUSH1 0x2C DUP4 PUSH2 0x4D71 JUMP JUMPDEST SWAP2 POP PUSH32 0x496E63656E746976655665746F6B656E3A204E6F7420656E6F7567682062616C PUSH1 0x0 DUP4 ADD MSTORE PUSH32 0x616E636520746F20706179210000000000000000000000000000000000000000 PUSH1 0x20 DUP4 ADD MSTORE PUSH1 0x40 DUP3 ADD SWAP1 POP SWAP2 SWAP1 POP JUMP JUMPDEST PUSH1 0x0 PUSH2 0x4746 PUSH1 0x2A DUP4 PUSH2 0x4D71 JUMP JUMPDEST SWAP2 POP PUSH32 0x5361666545524332303A204552433230206F7065726174696F6E20646964206E PUSH1 0x0 DUP4 ADD MSTORE PUSH32 0x6F74207375636365656400000000000000000000000000000000000000000000 PUSH1 0x20 DUP4 ADD MSTORE PUSH1 0x40 DUP3 ADD SWAP1 POP SWAP2 SWAP1 POP JUMP JUMPDEST PUSH1 0x0 PUSH2 0x47AC PUSH1 0x27 DUP4 PUSH2 0x4D71 JUMP JUMPDEST SWAP2 POP PUSH32 0x5665546F6B656E3A20436F6E747261637420686173206265656E20696E697469 PUSH1 0x0 DUP4 ADD MSTORE PUSH32 0x616C697A65642100000000000000000000000000000000000000000000000000 PUSH1 0x20 DUP4 ADD MSTORE PUSH1 0x40 DUP3 ADD SWAP1 POP SWAP2 SWAP1 POP JUMP JUMPDEST PUSH1 0x0 PUSH2 0x4812 PUSH1 0x16 DUP4 PUSH2 0x4D71 JUMP JUMPDEST SWAP2 POP PUSH32 0x546865206C6F636B206469646E27742065787069726500000000000000000000 PUSH1 0x0 DUP4 ADD MSTORE PUSH1 0x20 DUP3 ADD SWAP1 POP SWAP2 SWAP1 POP JUMP JUMPDEST PUSH1 0x40 DUP3 ADD PUSH1 0x0 DUP3 ADD MLOAD PUSH2 0x485B PUSH1 0x0 DUP6 ADD DUP3 PUSH2 0x4224 JUMP JUMPDEST POP PUSH1 0x20 DUP3 ADD MLOAD PUSH2 0x486E PUSH1 0x20 DUP6 ADD DUP3 PUSH2 0x48C9 JUMP JUMPDEST POP POP POP POP JUMP JUMPDEST PUSH1 0x80 DUP3 ADD PUSH1 0x0 DUP3 ADD MLOAD PUSH2 0x488A PUSH1 0x0 DUP6 ADD DUP3 PUSH2 0x4224 JUMP JUMPDEST POP PUSH1 0x20 DUP3 ADD MLOAD PUSH2 0x489D PUSH1 0x20 DUP6 ADD DUP3 PUSH2 0x4224 JUMP JUMPDEST POP PUSH1 0x40 DUP3 ADD MLOAD PUSH2 0x48B0 PUSH1 0x40 DUP6 ADD DUP3 PUSH2 0x48C9 JUMP JUMPDEST POP PUSH1 0x60 DUP3 ADD MLOAD PUSH2 0x48C3 PUSH1 0x60 DUP6 ADD DUP3 PUSH2 0x48C9 JUMP JUMPDEST POP POP POP POP JUMP JUMPDEST PUSH2 0x48D2 DUP2 PUSH2 0x5188 JUMP JUMPDEST DUP3 MSTORE POP POP JUMP JUMPDEST PUSH2 0x48E1 DUP2 PUSH2 0x5188 JUMP JUMPDEST DUP3 MSTORE POP POP JUMP JUMPDEST PUSH1 0x0 PUSH2 0x48F3 DUP3 DUP5 PUSH2 0x41F3 JUMP JUMPDEST SWAP2 POP DUP2 SWAP1 POP SWAP3 SWAP2 POP POP JUMP JUMPDEST PUSH1 0x0 PUSH1 0x20 DUP3 ADD SWAP1 POP PUSH2 0x4913 PUSH1 0x0 DUP4 ADD DUP5 PUSH2 0x41D5 JUMP JUMPDEST SWAP3 SWAP2 POP POP JUMP JUMPDEST PUSH1 0x0 PUSH1 0x60 DUP3 ADD SWAP1 POP PUSH2 0x492E PUSH1 0x0 DUP4 ADD DUP7 PUSH2 0x41D5 JUMP JUMPDEST PUSH2 0x493B PUSH1 0x20 DUP4 ADD DUP6 PUSH2 0x41D5 JUMP JUMPDEST PUSH2 0x4948 PUSH1 0x40 DUP4 ADD DUP5 PUSH2 0x48D8 JUMP JUMPDEST SWAP5 SWAP4 POP POP POP POP JUMP JUMPDEST PUSH1 0x0 PUSH1 0x40 DUP3 ADD SWAP1 POP PUSH2 0x4965 PUSH1 0x0 DUP4 ADD DUP6 PUSH2 0x41D5 JUMP JUMPDEST PUSH2 0x4972 PUSH1 0x20 DUP4 ADD DUP5 PUSH2 0x48D8 JUMP JUMPDEST SWAP4 SWAP3 POP POP POP JUMP JUMPDEST PUSH1 0x0 PUSH1 0x20 DUP3 ADD SWAP1 POP PUSH2 0x498E PUSH1 0x0 DUP4 ADD DUP5 PUSH2 0x41E4 JUMP JUMPDEST SWAP3 SWAP2 POP POP JUMP JUMPDEST PUSH1 0x0 PUSH1 0x20 DUP3 ADD SWAP1 POP PUSH2 0x49A9 PUSH1 0x0 DUP4 ADD DUP5 PUSH2 0x4233 JUMP JUMPDEST SWAP3 SWAP2 POP POP JUMP JUMPDEST PUSH1 0x0 PUSH1 0x80 DUP3 ADD SWAP1 POP PUSH2 0x49C4 PUSH1 0x0 DUP4 ADD DUP8 PUSH2 0x4233 JUMP JUMPDEST PUSH2 0x49D1 PUSH1 0x20 DUP4 ADD DUP7 PUSH2 0x4233 JUMP JUMPDEST PUSH2 0x49DE PUSH1 0x40 DUP4 ADD DUP6 PUSH2 0x48D8 JUMP JUMPDEST PUSH2 0x49EB PUSH1 0x60 DUP4 ADD DUP5 PUSH2 0x48D8 JUMP JUMPDEST SWAP6 SWAP5 POP POP POP POP POP JUMP JUMPDEST PUSH1 0x0 PUSH1 0x40 DUP3 ADD SWAP1 POP PUSH2 0x4A09 PUSH1 0x0 DUP4 ADD DUP6 PUSH2 0x4233 JUMP JUMPDEST PUSH2 0x4A16 PUSH1 0x20 DUP4 ADD DUP5 PUSH2 0x48D8 JUMP JUMPDEST SWAP4 SWAP3 POP POP POP JUMP JUMPDEST PUSH1 0x0 PUSH1 0x20 DUP3 ADD SWAP1 POP DUP2 DUP2 SUB PUSH1 0x0 DUP4 ADD MSTORE PUSH2 0x4A37 DUP2 DUP5 PUSH2 0x4242 JUMP JUMPDEST SWAP1 POP SWAP3 SWAP2 POP POP JUMP JUMPDEST PUSH1 0x0 PUSH1 0x20 DUP3 ADD SWAP1 POP DUP2 DUP2 SUB PUSH1 0x0 DUP4 ADD MSTORE PUSH2 0x4A58 DUP2 PUSH2 0x427B JUMP JUMPDEST SWAP1 POP SWAP2 SWAP1 POP JUMP JUMPDEST PUSH1 0x0 PUSH1 0x20 DUP3 ADD SWAP1 POP DUP2 DUP2 SUB PUSH1 0x0 DUP4 ADD MSTORE PUSH2 0x4A78 DUP2 PUSH2 0x42BB JUMP JUMPDEST SWAP1 POP SWAP2 SWAP1 POP JUMP JUMPDEST PUSH1 0x0 PUSH1 0x20 DUP3 ADD SWAP1 POP DUP2 DUP2 SUB PUSH1 0x0 DUP4 ADD MSTORE PUSH2 0x4A98 DUP2 PUSH2 0x4321 JUMP JUMPDEST SWAP1 POP SWAP2 SWAP1 POP JUMP JUMPDEST PUSH1 0x0 PUSH1 0x20 DUP3 ADD SWAP1 POP DUP2 DUP2 SUB PUSH1 0x0 DUP4 ADD MSTORE PUSH2 0x4AB8 DUP2 PUSH2 0x4361 JUMP JUMPDEST SWAP1 POP SWAP2 SWAP1 POP JUMP JUMPDEST PUSH1 0x0 PUSH1 0x20 DUP3 ADD SWAP1 POP DUP2 DUP2 SUB PUSH1 0x0 DUP4 ADD MSTORE PUSH2 0x4AD8 DUP2 PUSH2 0x43C7 JUMP JUMPDEST SWAP1 POP SWAP2 SWAP1 POP JUMP JUMPDEST PUSH1 0x0 PUSH1 0x20 DUP3 ADD SWAP1 POP DUP2 DUP2 SUB PUSH1 0x0 DUP4 ADD MSTORE PUSH2 0x4AF8 DUP2 PUSH2 0x4407 JUMP JUMPDEST SWAP1 POP SWAP2 SWAP1 POP JUMP JUMPDEST PUSH1 0x0 PUSH1 0x20 DUP3 ADD SWAP1 POP DUP2 DUP2 SUB PUSH1 0x0 DUP4 ADD MSTORE PUSH2 0x4B18 DUP2 PUSH2 0x4447 JUMP JUMPDEST SWAP1 POP SWAP2 SWAP1 POP JUMP JUMPDEST PUSH1 0x0 PUSH1 0x20 DUP3 ADD SWAP1 POP DUP2 DUP2 SUB PUSH1 0x0 DUP4 ADD MSTORE PUSH2 0x4B38 DUP2 PUSH2 0x4487 JUMP JUMPDEST SWAP1 POP SWAP2 SWAP1 POP JUMP JUMPDEST PUSH1 0x0 PUSH1 0x20 DUP3 ADD SWAP1 POP DUP2 DUP2 SUB PUSH1 0x0 DUP4 ADD MSTORE PUSH2 0x4B58 DUP2 PUSH2 0x44C7 JUMP JUMPDEST SWAP1 POP SWAP2 SWAP1 POP JUMP JUMPDEST PUSH1 0x0 PUSH1 0x20 DUP3 ADD SWAP1 POP DUP2 DUP2 SUB PUSH1 0x0 DUP4 ADD MSTORE PUSH2 0x4B78 DUP2 PUSH2 0x4507 JUMP JUMPDEST SWAP1 POP SWAP2 SWAP1 POP JUMP JUMPDEST PUSH1 0x0 PUSH1 0x20 DUP3 ADD SWAP1 POP DUP2 DUP2 SUB PUSH1 0x0 DUP4 ADD MSTORE PUSH2 0x4B98 DUP2 PUSH2 0x456D JUMP JUMPDEST SWAP1 POP SWAP2 SWAP1 POP JUMP JUMPDEST PUSH1 0x0 PUSH1 0x20 DUP3 ADD SWAP1 POP DUP2 DUP2 SUB PUSH1 0x0 DUP4 ADD MSTORE PUSH2 0x4BB8 DUP2 PUSH2 0x45D3 JUMP JUMPDEST SWAP1 POP SWAP2 SWAP1 POP JUMP JUMPDEST PUSH1 0x0 PUSH1 0x20 DUP3 ADD SWAP1 POP DUP2 DUP2 SUB PUSH1 0x0 DUP4 ADD MSTORE PUSH2 0x4BD8 DUP2 PUSH2 0x4613 JUMP JUMPDEST SWAP1 POP SWAP2 SWAP1 POP JUMP JUMPDEST PUSH1 0x0 PUSH1 0x20 DUP3 ADD SWAP1 POP DUP2 DUP2 SUB PUSH1 0x0 DUP4 ADD MSTORE PUSH2 0x4BF8 DUP2 PUSH2 0x4653 JUMP JUMPDEST SWAP1 POP SWAP2 SWAP1 POP JUMP JUMPDEST PUSH1 0x0 PUSH1 0x20 DUP3 ADD SWAP1 POP DUP2 DUP2 SUB PUSH1 0x0 DUP4 ADD MSTORE PUSH2 0x4C18 DUP2 PUSH2 0x4693 JUMP JUMPDEST SWAP1 POP SWAP2 SWAP1 POP JUMP JUMPDEST PUSH1 0x0 PUSH1 0x20 DUP3 ADD SWAP1 POP DUP2 DUP2 SUB PUSH1 0x0 DUP4 ADD MSTORE PUSH2 0x4C38 DUP2 PUSH2 0x46D3 JUMP JUMPDEST SWAP1 POP SWAP2 SWAP1 POP JUMP JUMPDEST PUSH1 0x0 PUSH1 0x20 DUP3 ADD SWAP1 POP DUP2 DUP2 SUB PUSH1 0x0 DUP4 ADD MSTORE PUSH2 0x4C58 DUP2 PUSH2 0x4739 JUMP JUMPDEST SWAP1 POP SWAP2 SWAP1 POP JUMP JUMPDEST PUSH1 0x0 PUSH1 0x20 DUP3 ADD SWAP1 POP DUP2 DUP2 SUB PUSH1 0x0 DUP4 ADD MSTORE PUSH2 0x4C78 DUP2 PUSH2 0x479F JUMP JUMPDEST SWAP1 POP SWAP2 SWAP1 POP JUMP JUMPDEST PUSH1 0x0 PUSH1 0x20 DUP3 ADD SWAP1 POP DUP2 DUP2 SUB PUSH1 0x0 DUP4 ADD MSTORE PUSH2 0x4C98 DUP2 PUSH2 0x4805 JUMP JUMPDEST SWAP1 POP SWAP2 SWAP1 POP JUMP JUMPDEST PUSH1 0x0 PUSH1 0x40 DUP3 ADD SWAP1 POP PUSH2 0x4CB4 PUSH1 0x0 DUP4 ADD DUP5 PUSH2 0x4845 JUMP JUMPDEST SWAP3 SWAP2 POP POP JUMP JUMPDEST PUSH1 0x0 PUSH1 0x80 DUP3 ADD SWAP1 POP PUSH2 0x4CCF PUSH1 0x0 DUP4 ADD DUP5 PUSH2 0x4874 JUMP JUMPDEST SWAP3 SWAP2 POP POP JUMP JUMPDEST PUSH1 0x0 PUSH1 0x20 DUP3 ADD SWAP1 POP PUSH2 0x4CEA PUSH1 0x0 DUP4 ADD DUP5 PUSH2 0x48D8 JUMP JUMPDEST SWAP3 SWAP2 POP POP JUMP JUMPDEST PUSH1 0x0 PUSH1 0x40 DUP3 ADD SWAP1 POP PUSH2 0x4D05 PUSH1 0x0 DUP4 ADD DUP6 PUSH2 0x48D8 JUMP JUMPDEST PUSH2 0x4D12 PUSH1 0x20 DUP4 ADD DUP5 PUSH2 0x48D8 JUMP JUMPDEST SWAP4 SWAP3 POP POP POP JUMP JUMPDEST PUSH1 0x0 PUSH1 0x60 DUP3 ADD SWAP1 POP PUSH2 0x4D2E PUSH1 0x0 DUP4 ADD DUP7 PUSH2 0x48D8 JUMP JUMPDEST PUSH2 0x4D3B PUSH1 0x20 DUP4 ADD DUP6 PUSH2 0x48D8 JUMP JUMPDEST PUSH2 0x4D48 PUSH1 0x40 DUP4 ADD DUP5 PUSH2 0x48D8 JUMP JUMPDEST SWAP5 SWAP4 POP POP POP POP JUMP JUMPDEST PUSH1 0x0 DUP2 MLOAD SWAP1 POP SWAP2 SWAP1 POP JUMP JUMPDEST PUSH1 0x0 DUP2 MLOAD SWAP1 POP SWAP2 SWAP1 POP JUMP JUMPDEST PUSH1 0x0 DUP2 SWAP1 POP SWAP3 SWAP2 POP POP JUMP JUMPDEST PUSH1 0x0 DUP3 DUP3 MSTORE PUSH1 0x20 DUP3 ADD SWAP1 POP SWAP3 SWAP2 POP POP JUMP JUMPDEST PUSH1 0x0 PUSH2 0x4D8D DUP3 PUSH2 0x515E JUMP JUMPDEST SWAP2 POP PUSH2 0x4D98 DUP4 PUSH2 0x515E JUMP JUMPDEST SWAP3 POP DUP2 PUSH32 0x7FFFFFFFFFFFFFFFFFFFFFFFFFFFFFFFFFFFFFFFFFFFFFFFFFFFFFFFFFFFFFFF SUB DUP4 SGT PUSH1 0x0 DUP4 SLT ISZERO AND ISZERO PUSH2 0x4DD3 JUMPI PUSH2 0x4DD2 PUSH2 0x5240 JUMP JUMPDEST JUMPDEST DUP2 PUSH32 0x8000000000000000000000000000000000000000000000000000000000000000 SUB DUP4 SLT PUSH1 0x0 DUP4 SLT AND ISZERO PUSH2 0x4E0B JUMPI PUSH2 0x4E0A PUSH2 0x5240 JUMP JUMPDEST JUMPDEST DUP3 DUP3 ADD SWAP1 POP SWAP3 SWAP2 POP POP JUMP JUMPDEST PUSH1 0x0 PUSH2 0x4E21 DUP3 PUSH2 0x5188 JUMP JUMPDEST SWAP2 POP PUSH2 0x4E2C DUP4 PUSH2 0x5188 JUMP JUMPDEST SWAP3 POP DUP3 PUSH32 0xFFFFFFFFFFFFFFFFFFFFFFFFFFFFFFFFFFFFFFFFFFFFFFFFFFFFFFFFFFFFFFFF SUB DUP3 GT ISZERO PUSH2 0x4E61 JUMPI PUSH2 0x4E60 PUSH2 0x5240 JUMP JUMPDEST JUMPDEST DUP3 DUP3 ADD SWAP1 POP SWAP3 SWAP2 POP POP JUMP JUMPDEST PUSH1 0x0 PUSH2 0x4E77 DUP3 PUSH2 0x515E JUMP JUMPDEST SWAP2 POP PUSH2 0x4E82 DUP4 PUSH2 0x515E JUMP JUMPDEST SWAP3 POP DUP3 PUSH2 0x4E92 JUMPI PUSH2 0x4E91 PUSH2 0x526F JUMP JUMPDEST JUMPDEST PUSH1 0x1 PUSH1 0x0 SUB DUP4 EQ PUSH32 0x8000000000000000000000000000000000000000000000000000000000000000 DUP4 EQ AND ISZERO PUSH2 0x4ECB JUMPI PUSH2 0x4ECA PUSH2 0x5240 JUMP JUMPDEST JUMPDEST DUP3 DUP3 SDIV SWAP1 POP SWAP3 SWAP2 POP POP JUMP JUMPDEST PUSH1 0x0 PUSH2 0x4EE1 DUP3 PUSH2 0x5188 JUMP JUMPDEST SWAP2 POP PUSH2 0x4EEC DUP4 PUSH2 0x5188 JUMP JUMPDEST SWAP3 POP DUP3 PUSH2 0x4EFC JUMPI PUSH2 0x4EFB PUSH2 0x526F JUMP JUMPDEST JUMPDEST DUP3 DUP3 DIV SWAP1 POP SWAP3 SWAP2 POP POP JUMP JUMPDEST PUSH1 0x0 PUSH2 0x4F12 DUP3 PUSH2 0x515E JUMP JUMPDEST SWAP2 POP PUSH2 0x4F1D DUP4 PUSH2 0x515E JUMP JUMPDEST SWAP3 POP DUP3 PUSH32 0x7FFFFFFFFFFFFFFFFFFFFFFFFFFFFFFFFFFFFFFFFFFFFFFFFFFFFFFFFFFFFFFF DIV DUP3 GT PUSH1 0x0 DUP5 SGT PUSH1 0x0 DUP5 SGT AND AND ISZERO PUSH2 0x4F5C JUMPI PUSH2 0x4F5B PUSH2 0x5240 JUMP JUMPDEST JUMPDEST DUP2 PUSH32 0x8000000000000000000000000000000000000000000000000000000000000000 SDIV DUP4 SLT PUSH1 0x0 DUP5 SLT PUSH1 0x0 DUP5 SGT AND AND ISZERO PUSH2 0x4F99 JUMPI PUSH2 0x4F98 PUSH2 0x5240 JUMP JUMPDEST JUMPDEST DUP3 PUSH32 0x8000000000000000000000000000000000000000000000000000000000000000 SDIV DUP3 SLT PUSH1 0x0 DUP5 SGT PUSH1 0x0 DUP5 SLT AND AND ISZERO PUSH2 0x4FD6 JUMPI PUSH2 0x4FD5 PUSH2 0x5240 JUMP JUMPDEST JUMPDEST DUP3 PUSH32 0x7FFFFFFFFFFFFFFFFFFFFFFFFFFFFFFFFFFFFFFFFFFFFFFFFFFFFFFFFFFFFFFF SDIV DUP3 SLT PUSH1 0x0 DUP5 SLT PUSH1 0x0 DUP5 SLT AND AND ISZERO PUSH2 0x5013 JUMPI PUSH2 0x5012 PUSH2 0x5240 JUMP JUMPDEST JUMPDEST DUP3 DUP3 MUL SWAP1 POP SWAP3 SWAP2 POP POP JUMP JUMPDEST PUSH1 0x0 PUSH2 0x5029 DUP3 PUSH2 0x5188 JUMP JUMPDEST SWAP2 POP PUSH2 0x5034 DUP4 PUSH2 0x5188 JUMP JUMPDEST SWAP3 POP DUP2 PUSH32 0xFFFFFFFFFFFFFFFFFFFFFFFFFFFFFFFFFFFFFFFFFFFFFFFFFFFFFFFFFFFFFFFF DIV DUP4 GT DUP3 ISZERO ISZERO AND ISZERO PUSH2 0x506D JUMPI PUSH2 0x506C PUSH2 0x5240 JUMP JUMPDEST JUMPDEST DUP3 DUP3 MUL SWAP1 POP SWAP3 SWAP2 POP POP JUMP JUMPDEST PUSH1 0x0 PUSH2 0x5083 DUP3 PUSH2 0x515E JUMP JUMPDEST SWAP2 POP PUSH2 0x508E DUP4 PUSH2 0x515E JUMP JUMPDEST SWAP3 POP DUP3 PUSH32 0x8000000000000000000000000000000000000000000000000000000000000000 ADD DUP3 SLT PUSH1 0x0 DUP5 SLT ISZERO AND ISZERO PUSH2 0x50C9 JUMPI PUSH2 0x50C8 PUSH2 0x5240 JUMP JUMPDEST JUMPDEST DUP3 PUSH32 0x7FFFFFFFFFFFFFFFFFFFFFFFFFFFFFFFFFFFFFFFFFFFFFFFFFFFFFFFFFFFFFFF ADD DUP3 SGT PUSH1 0x0 DUP5 SLT AND ISZERO PUSH2 0x5101 JUMPI PUSH2 0x5100 PUSH2 0x5240 JUMP JUMPDEST JUMPDEST DUP3 DUP3 SUB SWAP1 POP SWAP3 SWAP2 POP POP JUMP JUMPDEST PUSH1 0x0 PUSH2 0x5117 DUP3 PUSH2 0x5188 JUMP JUMPDEST SWAP2 POP PUSH2 0x5122 DUP4 PUSH2 0x5188 JUMP JUMPDEST SWAP3 POP DUP3 DUP3 LT ISZERO PUSH2 0x5135 JUMPI PUSH2 0x5134 PUSH2 0x5240 JUMP JUMPDEST JUMPDEST DUP3 DUP3 SUB SWAP1 POP SWAP3 SWAP2 POP POP JUMP JUMPDEST PUSH1 0x0 PUSH2 0x514B DUP3 PUSH2 0x5168 JUMP JUMPDEST SWAP1 POP SWAP2 SWAP1 POP JUMP JUMPDEST PUSH1 0x0 DUP2 ISZERO ISZERO SWAP1 POP SWAP2 SWAP1 POP JUMP JUMPDEST PUSH1 0x0 DUP2 SWAP1 POP SWAP2 SWAP1 POP JUMP JUMPDEST PUSH1 0x0 PUSH20 0xFFFFFFFFFFFFFFFFFFFFFFFFFFFFFFFFFFFFFFFF DUP3 AND SWAP1 POP SWAP2 SWAP1 POP JUMP JUMPDEST PUSH1 0x0 DUP2 SWAP1 POP SWAP2 SWAP1 POP JUMP JUMPDEST PUSH1 0x0 JUMPDEST DUP4 DUP2 LT ISZERO PUSH2 0x51B0 JUMPI DUP1 DUP3 ADD MLOAD DUP2 DUP5 ADD MSTORE PUSH1 0x20 DUP2 ADD SWAP1 POP PUSH2 0x5195 JUMP JUMPDEST DUP4 DUP2 GT ISZERO PUSH2 0x51BF JUMPI PUSH1 0x0 DUP5 DUP5 ADD MSTORE JUMPDEST POP POP POP POP JUMP JUMPDEST PUSH1 0x0 PUSH1 0x2 DUP3 DIV SWAP1 POP PUSH1 0x1 DUP3 AND DUP1 PUSH2 0x51DD JUMPI PUSH1 0x7F DUP3 AND SWAP2 POP JUMPDEST PUSH1 0x20 DUP3 LT DUP2 EQ ISZERO PUSH2 0x51F1 JUMPI PUSH2 0x51F0 PUSH2 0x529E JUMP JUMPDEST JUMPDEST POP SWAP2 SWAP1 POP JUMP JUMPDEST PUSH1 0x0 PUSH2 0x5202 DUP3 PUSH2 0x5188 JUMP JUMPDEST SWAP2 POP PUSH32 0xFFFFFFFFFFFFFFFFFFFFFFFFFFFFFFFFFFFFFFFFFFFFFFFFFFFFFFFFFFFFFFFF DUP3 EQ ISZERO PUSH2 0x5235 JUMPI PUSH2 0x5234 PUSH2 0x5240 JUMP JUMPDEST JUMPDEST PUSH1 0x1 DUP3 ADD SWAP1 POP SWAP2 SWAP1 POP JUMP JUMPDEST PUSH32 0x4E487B7100000000000000000000000000000000000000000000000000000000 PUSH1 0x0 MSTORE PUSH1 0x11 PUSH1 0x4 MSTORE PUSH1 0x24 PUSH1 0x0 REVERT JUMPDEST PUSH32 0x4E487B7100000000000000000000000000000000000000000000000000000000 PUSH1 0x0 MSTORE PUSH1 0x12 PUSH1 0x4 MSTORE PUSH1 0x24 PUSH1 0x0 REVERT JUMPDEST PUSH32 0x4E487B7100000000000000000000000000000000000000000000000000000000 PUSH1 0x0 MSTORE PUSH1 0x22 PUSH1 0x4 MSTORE PUSH1 0x24 PUSH1 0x0 REVERT JUMPDEST PUSH1 0x0 PUSH1 0x1F NOT PUSH1 0x1F DUP4 ADD AND SWAP1 POP SWAP2 SWAP1 POP JUMP JUMPDEST PUSH2 0x52E7 DUP2 PUSH2 0x5140 JUMP JUMPDEST DUP2 EQ PUSH2 0x52F2 JUMPI PUSH1 0x0 DUP1 REVERT JUMPDEST POP JUMP JUMPDEST PUSH2 0x52FE DUP2 PUSH2 0x5152 JUMP JUMPDEST DUP2 EQ PUSH2 0x5309 JUMPI PUSH1 0x0 DUP1 REVERT JUMPDEST POP JUMP JUMPDEST PUSH2 0x5315 DUP2 PUSH2 0x5188 JUMP JUMPDEST DUP2 EQ PUSH2 0x5320 JUMPI PUSH1 0x0 DUP1 REVERT JUMPDEST POP JUMP INVALID LOG2 PUSH5 0x6970667358 0x22 SLT KECCAK256 PUSH23 0x84BE841A854331537E99005B3D65334592E70BDFE12C0B 0xB3 PUSH2 0xC100 0x24 0xC4 0xB5 0xE3 PUSH5 0x736F6C6343 STOP ADDMOD STOP STOP CALLER "
		},
		"gasEstimates": {
			"creation": {
				"codeDepositCost": "4267400",
				"executionCost": "64939",
				"totalCost": "4332339"
			},
			"external": {
				"MULTIPLIER()": "398",
				"WEEK()": "395",
				"_checkpointTotalSupply()": "infinite",
				"_findTimestampUserEpoch(address,uint256,uint256)": "infinite",
				"balanceOfAt(address,uint256)": "infinite",
				"checkpointSupply()": "infinite",
				"claim()": "infinite",
				"claimableToken(address)": "infinite",
				"claimableTokenTest(address,uint256)": "infinite",
				"createLock(uint256,uint256)": "infinite",
				"createLockFor(address,uint256,uint256)": "infinite",
				"decimals()": "1242",
				"epoch()": "1241",
				"getLastUserSlope(address)": "2639",
				"getLinearWeeklyRelease()": "infinite",
				"getLocked(address)": "2779",
				"getSupplyPointHistory(uint256)": "infinite",
				"getUserPointEpoch(address)": "1631",
				"getUserPointHistory(address,uint256)": "infinite",
				"increaseAmount(uint256)": "infinite",
				"increaseAmountFor(address,uint256)": "infinite",
				"increaseUnlockTime(uint256)": "infinite",
				"initialize(address)": "infinite",
				"initializer()": "1283",
				"locked(address)": "2529",
				"lockedEnd(address)": "1638",
				"max_pledge()": "1241",
				"max_reward()": "1262",
				"name()": "infinite",
				"router()": "1321",
				"setVeTokenParams()": "300",
				"slopeChanges(uint256)": "1553",
				"startTime()": "1241",
				"supply()": "1176",
				"supplyPointHistory(uint256)": "infinite",
				"symbol()": "infinite",
				"timeCursor()": "1175",
				"timeCursorOf(address)": "1604",
				"token()": "1346",
				"totalClaimed(address)": "1603",
				"totalReward()": "1197",
				"totalSupply()": "infinite",
				"totalSupply(uint256)": "infinite",
				"totalSupplyAt(uint256)": "infinite",
				"userEpochOf(address)": "1604",
				"userOfEquity(address)": "infinite",
				"userOfEquityAndTime(address,uint256)": "infinite",
				"userPointEpoch(address)": "1647",
				"userPointHistory(address,uint256)": "infinite",
				"userPointHistoryTs(address,uint256)": "infinite",
				"veBalanceOf(address)": "1581",
				"veSupply(uint256)": "infinite",
				"veTotalSupply()": "1220",
				"withdraw()": "infinite"
			},
			"internal": {
				"_checkpoint(address,struct IVeToken.LockedBalance memory,struct IVeToken.LockedBalance memory)": "infinite",
				"_claimable(address,uint256)": "infinite",
				"_createLock(address,uint256,uint256)": "infinite",
				"_depositFor(address,address,uint256,uint256,struct IVeToken.LockedBalance memory,uint256)": "infinite",
				"_findTimestampEpoch(uint256)": "infinite",
				"_increaseAmount(address,uint256)": "infinite",
				"findBlockEpoch(uint256,uint256)": "infinite",
				"getRouter()": "infinite",
				"supplyAt(struct IVeToken.Point memory,uint256)": "infinite"
			}
		},
		"methodIdentifiers": {
			"MULTIPLIER()": "059f8b16",
			"WEEK()": "f4359ce5",
			"_checkpointTotalSupply()": "4f7461e1",
			"_findTimestampUserEpoch(address,uint256,uint256)": "cb859db4",
			"balanceOfAt(address,uint256)": "4ee2cd7e",
			"checkpointSupply()": "7b7933b4",
			"claim()": "4e71d92d",
			"claimableToken(address)": "e12e05a7",
			"claimableTokenTest(address,uint256)": "41bf499c",
			"createLock(uint256,uint256)": "b52c05fe",
			"createLockFor(address,uint256,uint256)": "29b55ca7",
			"decimals()": "313ce567",
			"epoch()": "900cf0cf",
			"getLastUserSlope(address)": "f3a6d608",
			"getLinearWeeklyRelease()": "7903f9d3",
			"getLocked(address)": "bc22fd1b",
			"getSupplyPointHistory(uint256)": "35878d88",
			"getUserPointEpoch(address)": "8c71e5d1",
			"getUserPointHistory(address,uint256)": "643dafde",
			"increaseAmount(uint256)": "15456eba",
			"increaseAmountFor(address,uint256)": "ca2f8d93",
			"increaseUnlockTime(uint256)": "7c616fe6",
			"initialize(address)": "c4d66de8",
			"initializer()": "9ce110d7",
			"locked(address)": "cbf9fe5f",
			"lockedEnd(address)": "4deafcae",
			"max_pledge()": "547b737c",
			"max_reward()": "e9d56995",
			"name()": "06fdde03",
			"router()": "f887ea40",
			"setVeTokenParams()": "97ac2fb6",
			"slopeChanges(uint256)": "f52a36f7",
			"startTime()": "78e97925",
			"supply()": "047fc9aa",
			"supplyPointHistory(uint256)": "31a8bbce",
			"symbol()": "95d89b41",
			"timeCursor()": "8736659b",
			"timeCursorOf(address)": "c7f1ec50",
			"token()": "fc0c546a",
			"totalClaimed(address)": "ef5d9ae8",
			"totalReward()": "750142e6",
			"totalSupply()": "18160ddd",
			"totalSupply(uint256)": "bd85b039",
			"totalSupplyAt(uint256)": "981b24d0",
			"userEpochOf(address)": "786479cd",
			"userOfEquity(address)": "98dc8378",
			"userOfEquityAndTime(address,uint256)": "8b33af35",
			"userPointEpoch(address)": "81fc83bb",
			"userPointHistory(address,uint256)": "34d901a4",
			"userPointHistoryTs(address,uint256)": "eac6a667",
			"veBalanceOf(address)": "9f17f734",
			"veSupply(uint256)": "0f6592ef",
			"veTotalSupply()": "2b10eb4f",
			"withdraw()": "3ccfd60b"
		}
	},
	"abi": [
		{
			"anonymous": false,
			"inputs": [
				{
					"indexed": true,
					"internalType": "address",
					"name": "recipient",
					"type": "address"
				},
				{
					"indexed": false,
					"internalType": "uint256",
					"name": "amount",
					"type": "uint256"
				},
				{
					"indexed": false,
					"internalType": "uint256",
					"name": "claimEpoch",
					"type": "uint256"
				},
				{
					"indexed": false,
					"internalType": "uint256",
					"name": "maxEpoch",
					"type": "uint256"
				}
			],
			"name": "Claimed",
			"type": "event"
		},
		{
			"anonymous": false,
			"inputs": [
				{
					"indexed": true,
					"internalType": "address",
					"name": "provider",
					"type": "address"
				},
				{
					"indexed": true,
					"internalType": "address",
					"name": "beneficiary",
					"type": "address"
				},
				{
					"indexed": false,
					"internalType": "uint256",
					"name": "value",
					"type": "uint256"
				},
				{
					"indexed": true,
					"internalType": "uint256",
					"name": "locktime",
					"type": "uint256"
				},
				{
					"indexed": false,
					"internalType": "uint256",
					"name": "_type",
					"type": "uint256"
				},
				{
					"indexed": false,
					"internalType": "uint256",
					"name": "ts",
					"type": "uint256"
				}
			],
			"name": "Deposit",
			"type": "event"
		},
		{
			"anonymous": false,
			"inputs": [
				{
					"indexed": false,
					"internalType": "uint256",
					"name": "prevSupply",
					"type": "uint256"
				},
				{
					"indexed": false,
					"internalType": "uint256",
					"name": "supply",
					"type": "uint256"
				}
			],
			"name": "Supply",
			"type": "event"
		},
		{
			"anonymous": false,
			"inputs": [
				{
					"indexed": true,
					"internalType": "address",
					"name": "provider",
					"type": "address"
				},
				{
					"indexed": false,
					"internalType": "uint256",
					"name": "value",
					"type": "uint256"
				},
				{
					"indexed": false,
					"internalType": "uint256",
					"name": "ts",
					"type": "uint256"
				}
			],
			"name": "Withdraw",
			"type": "event"
		},
		{
			"inputs": [],
			"name": "MULTIPLIER",
			"outputs": [
				{
					"internalType": "uint256",
					"name": "",
					"type": "uint256"
				}
			],
			"stateMutability": "view",
			"type": "function"
		},
		{
			"inputs": [],
			"name": "WEEK",
			"outputs": [
				{
					"internalType": "uint256",
					"name": "",
					"type": "uint256"
				}
			],
			"stateMutability": "view",
			"type": "function"
		},
		{
			"inputs": [],
			"name": "_checkpointTotalSupply",
			"outputs": [],
			"stateMutability": "nonpayable",
			"type": "function"
		},
		{
			"inputs": [
				{
					"internalType": "address",
					"name": "_user",
					"type": "address"
				},
				{
					"internalType": "uint256",
					"name": "_timestamp",
					"type": "uint256"
				},
				{
					"internalType": "uint256",
					"name": "_maxUserEpoch",
					"type": "uint256"
				}
			],
			"name": "_findTimestampUserEpoch",
			"outputs": [
				{
					"internalType": "uint256",
					"name": "",
					"type": "uint256"
				}
			],
			"stateMutability": "view",
			"type": "function"
		},
		{
			"inputs": [
				{
					"internalType": "address",
					"name": "_addr",
					"type": "address"
				},
				{
					"internalType": "uint256",
					"name": "_block",
					"type": "uint256"
				}
			],
			"name": "balanceOfAt",
			"outputs": [
				{
					"internalType": "uint256",
					"name": "",
					"type": "uint256"
				}
			],
			"stateMutability": "view",
			"type": "function"
		},
		{
			"inputs": [],
			"name": "checkpointSupply",
			"outputs": [],
			"stateMutability": "nonpayable",
			"type": "function"
		},
		{
			"inputs": [],
			"name": "claim",
			"outputs": [
				{
					"internalType": "uint256",
					"name": "",
					"type": "uint256"
				}
			],
			"stateMutability": "nonpayable",
			"type": "function"
		},
		{
			"inputs": [
				{
					"internalType": "address",
					"name": "_addr",
					"type": "address"
				}
			],
			"name": "claimableToken",
			"outputs": [
				{
					"internalType": "uint256",
					"name": "",
					"type": "uint256"
				}
			],
			"stateMutability": "view",
			"type": "function"
		},
		{
			"inputs": [
				{
					"internalType": "address",
					"name": "_addr",
					"type": "address"
				},
				{
					"internalType": "uint256",
					"name": "t",
					"type": "uint256"
				}
			],
			"name": "claimableTokenTest",
			"outputs": [
				{
					"internalType": "uint256",
					"name": "",
					"type": "uint256"
				}
			],
			"stateMutability": "view",
			"type": "function"
		},
		{
			"inputs": [
				{
					"internalType": "uint256",
					"name": "_value",
					"type": "uint256"
				},
				{
					"internalType": "uint256",
					"name": "_unlockTime",
					"type": "uint256"
				}
			],
			"name": "createLock",
			"outputs": [],
			"stateMutability": "nonpayable",
			"type": "function"
		},
		{
			"inputs": [
				{
					"internalType": "address",
					"name": "_beneficiary",
					"type": "address"
				},
				{
					"internalType": "uint256",
					"name": "_value",
					"type": "uint256"
				},
				{
					"internalType": "uint256",
					"name": "_unlockTime",
					"type": "uint256"
				}
			],
			"name": "createLockFor",
			"outputs": [],
			"stateMutability": "nonpayable",
			"type": "function"
		},
		{
			"inputs": [],
			"name": "decimals",
			"outputs": [
				{
					"internalType": "uint256",
					"name": "",
					"type": "uint256"
				}
			],
			"stateMutability": "view",
			"type": "function"
		},
		{
			"inputs": [],
			"name": "epoch",
			"outputs": [
				{
					"internalType": "uint256",
					"name": "",
					"type": "uint256"
				}
			],
			"stateMutability": "view",
			"type": "function"
		},
		{
			"inputs": [
				{
					"internalType": "address",
					"name": "_addr",
					"type": "address"
				}
			],
			"name": "getLastUserSlope",
			"outputs": [
				{
					"internalType": "int256",
					"name": "",
					"type": "int256"
				}
			],
			"stateMutability": "view",
			"type": "function"
		},
		{
			"inputs": [],
			"name": "getLinearWeeklyRelease",
			"outputs": [
				{
					"internalType": "uint256",
					"name": "",
					"type": "uint256"
				}
			],
			"stateMutability": "view",
			"type": "function"
		},
		{
			"inputs": [
				{
					"internalType": "address",
					"name": "_addr",
					"type": "address"
				}
			],
			"name": "getLocked",
			"outputs": [
				{
					"components": [
						{
							"internalType": "int256",
							"name": "amount",
							"type": "int256"
						},
						{
							"internalType": "uint256",
							"name": "end",
							"type": "uint256"
						}
					],
					"internalType": "struct IVeToken.LockedBalance",
					"name": "",
					"type": "tuple"
				}
			],
			"stateMutability": "view",
			"type": "function"
		},
		{
			"inputs": [
				{
					"internalType": "uint256",
					"name": "_index",
					"type": "uint256"
				}
			],
			"name": "getSupplyPointHistory",
			"outputs": [
				{
					"components": [
						{
							"internalType": "int256",
							"name": "bias",
							"type": "int256"
						},
						{
							"internalType": "int256",
							"name": "slope",
							"type": "int256"
						},
						{
							"internalType": "uint256",
							"name": "ts",
							"type": "uint256"
						},
						{
							"internalType": "uint256",
							"name": "blk",
							"type": "uint256"
						}
					],
					"internalType": "struct IVeToken.Point",
					"name": "",
					"type": "tuple"
				}
			],
			"stateMutability": "view",
			"type": "function"
		},
		{
			"inputs": [
				{
					"internalType": "address",
					"name": "_userAddress",
					"type": "address"
				}
			],
			"name": "getUserPointEpoch",
			"outputs": [
				{
					"internalType": "uint256",
					"name": "",
					"type": "uint256"
				}
			],
			"stateMutability": "view",
			"type": "function"
		},
		{
			"inputs": [
				{
					"internalType": "address",
					"name": "_userAddress",
					"type": "address"
				},
				{
					"internalType": "uint256",
					"name": "_index",
					"type": "uint256"
				}
			],
			"name": "getUserPointHistory",
			"outputs": [
				{
					"components": [
						{
							"internalType": "int256",
							"name": "bias",
							"type": "int256"
						},
						{
							"internalType": "int256",
							"name": "slope",
							"type": "int256"
						},
						{
							"internalType": "uint256",
							"name": "ts",
							"type": "uint256"
						},
						{
							"internalType": "uint256",
							"name": "blk",
							"type": "uint256"
						}
					],
					"internalType": "struct IVeToken.Point",
					"name": "",
					"type": "tuple"
				}
			],
			"stateMutability": "view",
			"type": "function"
		},
		{
			"inputs": [
				{
					"internalType": "uint256",
					"name": "_value",
					"type": "uint256"
				}
			],
			"name": "increaseAmount",
			"outputs": [],
			"stateMutability": "nonpayable",
			"type": "function"
		},
		{
			"inputs": [
				{
					"internalType": "address",
					"name": "_beneficiary",
					"type": "address"
				},
				{
					"internalType": "uint256",
					"name": "_value",
					"type": "uint256"
				}
			],
			"name": "increaseAmountFor",
			"outputs": [],
			"stateMutability": "nonpayable",
			"type": "function"
		},
		{
			"inputs": [
				{
					"internalType": "uint256",
					"name": "_unlockTime",
					"type": "uint256"
				}
			],
			"name": "increaseUnlockTime",
			"outputs": [],
			"stateMutability": "nonpayable",
			"type": "function"
		},
		{
			"inputs": [
				{
					"internalType": "address",
					"name": "_tokenAddr",
					"type": "address"
				}
			],
			"name": "initialize",
			"outputs": [],
			"stateMutability": "nonpayable",
			"type": "function"
		},
		{
			"inputs": [],
			"name": "initializer",
			"outputs": [
				{
					"internalType": "bool",
					"name": "",
					"type": "bool"
				}
			],
			"stateMutability": "view",
			"type": "function"
		},
		{
			"inputs": [
				{
					"internalType": "address",
					"name": "",
					"type": "address"
				}
			],
			"name": "locked",
			"outputs": [
				{
					"internalType": "int256",
					"name": "amount",
					"type": "int256"
				},
				{
					"internalType": "uint256",
					"name": "end",
					"type": "uint256"
				}
			],
			"stateMutability": "view",
			"type": "function"
		},
		{
			"inputs": [
				{
					"internalType": "address",
					"name": "_addr",
					"type": "address"
				}
			],
			"name": "lockedEnd",
			"outputs": [
				{
					"internalType": "uint256",
					"name": "",
					"type": "uint256"
				}
			],
			"stateMutability": "view",
			"type": "function"
		},
		{
			"inputs": [],
			"name": "max_pledge",
			"outputs": [
				{
					"internalType": "uint256",
					"name": "",
					"type": "uint256"
				}
			],
			"stateMutability": "view",
			"type": "function"
		},
		{
			"inputs": [],
			"name": "max_reward",
			"outputs": [
				{
					"internalType": "uint256",
					"name": "",
					"type": "uint256"
				}
			],
			"stateMutability": "view",
			"type": "function"
		},
		{
			"inputs": [],
			"name": "name",
			"outputs": [
				{
					"internalType": "string",
					"name": "",
					"type": "string"
				}
			],
			"stateMutability": "view",
			"type": "function"
		},
		{
			"inputs": [],
			"name": "router",
			"outputs": [
				{
					"internalType": "address",
					"name": "",
					"type": "address"
				}
			],
			"stateMutability": "view",
			"type": "function"
		},
		{
			"inputs": [],
			"name": "setVeTokenParams",
			"outputs": [],
			"stateMutability": "nonpayable",
			"type": "function"
		},
		{
			"inputs": [
				{
					"internalType": "uint256",
					"name": "",
					"type": "uint256"
				}
			],
			"name": "slopeChanges",
			"outputs": [
				{
					"internalType": "int256",
					"name": "",
					"type": "int256"
				}
			],
			"stateMutability": "view",
			"type": "function"
		},
		{
			"inputs": [],
			"name": "startTime",
			"outputs": [
				{
					"internalType": "uint256",
					"name": "",
					"type": "uint256"
				}
			],
			"stateMutability": "view",
			"type": "function"
		},
		{
			"inputs": [],
			"name": "supply",
			"outputs": [
				{
					"internalType": "uint256",
					"name": "",
					"type": "uint256"
				}
			],
			"stateMutability": "view",
			"type": "function"
		},
		{
			"inputs": [
				{
					"internalType": "uint256",
					"name": "",
					"type": "uint256"
				}
			],
			"name": "supplyPointHistory",
			"outputs": [
				{
					"internalType": "int256",
					"name": "bias",
					"type": "int256"
				},
				{
					"internalType": "int256",
					"name": "slope",
					"type": "int256"
				},
				{
					"internalType": "uint256",
					"name": "ts",
					"type": "uint256"
				},
				{
					"internalType": "uint256",
					"name": "blk",
					"type": "uint256"
				}
			],
			"stateMutability": "view",
			"type": "function"
		},
		{
			"inputs": [],
			"name": "symbol",
			"outputs": [
				{
					"internalType": "string",
					"name": "",
					"type": "string"
				}
			],
			"stateMutability": "view",
			"type": "function"
		},
		{
			"inputs": [],
			"name": "timeCursor",
			"outputs": [
				{
					"internalType": "uint256",
					"name": "",
					"type": "uint256"
				}
			],
			"stateMutability": "view",
			"type": "function"
		},
		{
			"inputs": [
				{
					"internalType": "address",
					"name": "",
					"type": "address"
				}
			],
			"name": "timeCursorOf",
			"outputs": [
				{
					"internalType": "uint256",
					"name": "",
					"type": "uint256"
				}
			],
			"stateMutability": "view",
			"type": "function"
		},
		{
			"inputs": [],
			"name": "token",
			"outputs": [
				{
					"internalType": "address",
					"name": "",
					"type": "address"
				}
			],
			"stateMutability": "view",
			"type": "function"
		},
		{
			"inputs": [
				{
					"internalType": "address",
					"name": "",
					"type": "address"
				}
			],
			"name": "totalClaimed",
			"outputs": [
				{
					"internalType": "uint256",
					"name": "",
					"type": "uint256"
				}
			],
			"stateMutability": "view",
			"type": "function"
		},
		{
			"inputs": [],
			"name": "totalReward",
			"outputs": [
				{
					"internalType": "uint256",
					"name": "",
					"type": "uint256"
				}
			],
			"stateMutability": "view",
			"type": "function"
		},
		{
			"inputs": [],
			"name": "totalSupply",
			"outputs": [
				{
					"internalType": "uint256",
					"name": "",
					"type": "uint256"
				}
			],
			"stateMutability": "view",
			"type": "function"
		},
		{
			"inputs": [
				{
					"internalType": "uint256",
					"name": "_t",
					"type": "uint256"
				}
			],
			"name": "totalSupply",
			"outputs": [
				{
					"internalType": "uint256",
					"name": "",
					"type": "uint256"
				}
			],
			"stateMutability": "view",
			"type": "function"
		},
		{
			"inputs": [
				{
					"internalType": "uint256",
					"name": "_block",
					"type": "uint256"
				}
			],
			"name": "totalSupplyAt",
			"outputs": [
				{
					"internalType": "uint256",
					"name": "",
					"type": "uint256"
				}
			],
			"stateMutability": "view",
			"type": "function"
		},
		{
			"inputs": [
				{
					"internalType": "address",
					"name": "",
					"type": "address"
				}
			],
			"name": "userEpochOf",
			"outputs": [
				{
					"internalType": "uint256",
					"name": "",
					"type": "uint256"
				}
			],
			"stateMutability": "view",
			"type": "function"
		},
		{
			"inputs": [
				{
					"internalType": "address",
					"name": "_addr",
					"type": "address"
				}
			],
			"name": "userOfEquity",
			"outputs": [
				{
					"internalType": "uint256",
					"name": "",
					"type": "uint256"
				}
			],
			"stateMutability": "view",
			"type": "function"
		},
		{
			"inputs": [
				{
					"internalType": "address",
					"name": "_addr",
					"type": "address"
				},
				{
					"internalType": "uint256",
					"name": "_t",
					"type": "uint256"
				}
			],
			"name": "userOfEquityAndTime",
			"outputs": [
				{
					"internalType": "uint256",
					"name": "",
					"type": "uint256"
				}
			],
			"stateMutability": "view",
			"type": "function"
		},
		{
			"inputs": [
				{
					"internalType": "address",
					"name": "",
					"type": "address"
				}
			],
			"name": "userPointEpoch",
			"outputs": [
				{
					"internalType": "uint256",
					"name": "",
					"type": "uint256"
				}
			],
			"stateMutability": "view",
			"type": "function"
		},
		{
			"inputs": [
				{
					"internalType": "address",
					"name": "",
					"type": "address"
				},
				{
					"internalType": "uint256",
					"name": "",
					"type": "uint256"
				}
			],
			"name": "userPointHistory",
			"outputs": [
				{
					"internalType": "int256",
					"name": "bias",
					"type": "int256"
				},
				{
					"internalType": "int256",
					"name": "slope",
					"type": "int256"
				},
				{
					"internalType": "uint256",
					"name": "ts",
					"type": "uint256"
				},
				{
					"internalType": "uint256",
					"name": "blk",
					"type": "uint256"
				}
			],
			"stateMutability": "view",
			"type": "function"
		},
		{
			"inputs": [
				{
					"internalType": "address",
					"name": "_addr",
					"type": "address"
				},
				{
					"internalType": "uint256",
					"name": "_idx",
					"type": "uint256"
				}
			],
			"name": "userPointHistoryTs",
			"outputs": [
				{
					"internalType": "uint256",
					"name": "",
					"type": "uint256"
				}
			],
			"stateMutability": "view",
			"type": "function"
		},
		{
			"inputs": [
				{
					"internalType": "address",
					"name": "",
					"type": "address"
				}
			],
			"name": "veBalanceOf",
			"outputs": [
				{
					"internalType": "uint256",
					"name": "",
					"type": "uint256"
				}
			],
			"stateMutability": "view",
			"type": "function"
		},
		{
			"inputs": [
				{
					"internalType": "uint256",
					"name": "",
					"type": "uint256"
				}
			],
			"name": "veSupply",
			"outputs": [
				{
					"internalType": "uint256",
					"name": "",
					"type": "uint256"
				}
			],
			"stateMutability": "view",
			"type": "function"
		},
		{
			"inputs": [],
			"name": "veTotalSupply",
			"outputs": [
				{
					"internalType": "uint256",
					"name": "",
					"type": "uint256"
				}
			],
			"stateMutability": "view",
			"type": "function"
		},
		{
			"inputs": [],
			"name": "withdraw",
			"outputs": [],
			"stateMutability": "nonpayable",
			"type": "function"
		}
	]
}