{
	"data": {
		"bytecode": {
			"linkReferences": {},
			"object": "608060405234801561001057600080fd5b5061670080620000216000396000f3fe608060405234801561001057600080fd5b50600436106101585760003560e01c806375bb5b09116100c3578063b87942471161007c578063b8794247146103cf578063bcd60f6c146103ed578063d9ae5bd514610421578063f887ea4014610451578063fc7881c61461046f578063fe0d94c11461048b57610158565b806375bb5b091461030d5780638129fc1c1461032b57806382214856146103355780638d928af814610351578063984d63f41461036f578063b4ebfdbe1461039f57610158565b806351dae6471161011557806351dae64714610221578063525385501461023f5780635a42007f1461026f5780637327df251461028d57806373569340146102ab57806374786f69146102db57610158565b806307baa0211461015d5780631d75ddcc146101795780632c9e3ef014610197578063321c48f2146101c75780633b92eb23146101e55780633fee74d714610203575b600080fd5b61017760048036038101906101729190614ca6565b6104a7565b005b61018161094d565b60405161018e9190614d40565b60405180910390f35b6101b160048036038101906101ac9190614d5b565b610953565b6040516101be9190614da3565b60405180910390f35b6101cf610973565b6040516101dc9190614f6e565b60405180910390f35b6101ed61135a565b6040516101fa919061500f565b60405180910390f35b61020b611380565b604051610218919061504b565b60405180910390f35b610229611417565b6040516102369190614d40565b60405180910390f35b61025960048036038101906102549190614d5b565b61151c565b6040516102669190614d40565b60405180910390f35b610277611540565b6040516102849190614d40565b60405180910390f35b610295611546565b6040516102a2919061504b565b60405180910390f35b6102c560048036038101906102c09190615066565b6115dd565b6040516102d29190614da3565b60405180910390f35b6102f560048036038101906102f09190614d5b565b611636565b60405161030493929190615128565b60405180910390f35b6103156117a4565b6040516103229190614d40565b60405180910390f35b6103336117aa565b005b61034f600480360381019061034a9190615199565b61189f565b005b610359612607565b604051610366919061504b565b60405180910390f35b61038960048036038101906103849190614d5b565b61269e565b6040516103969190614da3565b60405180910390f35b6103b960048036038101906103b491906151d9565b6126be565b6040516103c69190614d40565b60405180910390f35b6103d7612e33565b6040516103e49190614d40565b60405180910390f35b61040760048036038101906104029190614d5b565b612f38565b6040516104189594939291906152a8565b60405180910390f35b61043b60048036038101906104369190614d5b565b612f89565b6040516104489190614d40565b60405180910390f35b610459612fcd565b604051610466919061504b565b60405180910390f35b61048960048036038101906104849190615327565b612ff1565b005b6104a560048036038101906104a09190614d5b565b613531565b005b60006005600085815260200190815260200160002090506000606460085483600101546104d49190615396565b6104de919061541f565b9050600060028111156104f4576104f3615450565b5b6104fc612607565b73ffffffffffffffffffffffffffffffffffffffff1663d58bfa9d6040518163ffffffff1660e01b8152600401602060405180830381865afa158015610546573d6000803e3d6000fd5b505050506040513d601f19601f8201168201806040525081019061056a91906154a4565b600281111561057c5761057b615450565b5b146105bc576040517f08c379a00000000000000000000000000000000000000000000000000000000081526004016105b39061551d565b60405180910390fd5b80600160009054906101000a900473ffffffffffffffffffffffffffffffffffffffff1673ffffffffffffffffffffffffffffffffffffffff166398dc8378336040518263ffffffff1660e01b8152600401610618919061504b565b602060405180830381865afa158015610635573d6000803e3d6000fd5b505050506040513d601f19601f820116820180604052508101906106599190615552565b101561069a576040517f08c379a0000000000000000000000000000000000000000000000000000000008152600401610691906155cb565b60405180910390fd5b6064601e83600101546106ad9190615396565b6106b7919061541f565b826007015483600801546106cb91906155eb565b101561070c576040517f08c379a00000000000000000000000000000000000000000000000000000000081526004016107039061568d565b60405180910390fd5b603c8260070154836008015461072291906155eb565b606484600701546107339190615396565b61073d919061541f565b101561077e576040517f08c379a00000000000000000000000000000000000000000000000000000000081526004016107759061571f565b60405180910390fd5b816003015442101580156107a1575060b4826003015461079e91906155eb565b42105b6107e0576040517f08c379a00000000000000000000000000000000000000000000000000000000081526004016107d79061578b565b60405180910390fd5b600160068111156107f4576107f3615450565b5b8260090160009054906101000a900460ff16600681111561081857610817615450565b5b14610858576040517f08c379a000000000000000000000000000000000000000000000000000000000815260040161084f906157f7565b60405180910390fd5b60058260090160006101000a81548160ff021916908360068111156108805761087f615450565b5b02179055508382600d0160010190805190602001906108a0929190614a52565b503382600d0160000160006101000a81548173ffffffffffffffffffffffffffffffffffffffff021916908373ffffffffffffffffffffffffffffffffffffffff16021790555060b4426108f491906155eb565b8260030181905550847fe44551d6dbb27fd09d0c3752688c148ea06ab580843d77798ece2cf2b3d13f35338660b44261092d91906155eb565b8760405161093e9493929190615817565b60405180910390a25050505050565b60085481565b60076020528060005260406000206000915054906101000a900460ff1681565b60606000600567ffffffffffffffff81111561099257610991614b7b565b5b6040519080825280602002602001820160405280156109cb57816020015b6109b8614ad8565b8152602001906001900390816109b05790505b50905060006006600080815260200190815260200160002060405180606001604052908160008201548152602001600182018054610a0890615899565b80601f0160208091040260200160405190810160405280929190818152602001828054610a3490615899565b8015610a815780601f10610a5657610100808354040283529160200191610a81565b820191906000526020600020905b815481529060010190602001808311610a6457829003601f168201915b50505050508152602001600282018054610a9a90615899565b80601f0160208091040260200160405190810160405280929190818152602001828054610ac690615899565b8015610b135780601f10610ae857610100808354040283529160200191610b13565b820191906000526020600020905b815481529060010190602001808311610af657829003601f168201915b505050505081525050905060018160000181815250506040518060400160405280601281526020017f7365744d696e696d756d5175616e74697479000000000000000000000000000081525081604001819052506040518060600160405280602881526020016166816028913981602001819052506000600660006001815260200190815260200160002060405180606001604052908160008201548152602001600182018054610bc390615899565b80601f0160208091040260200160405190810160405280929190818152602001828054610bef90615899565b8015610c3c5780601f10610c1157610100808354040283529160200191610c3c565b820191906000526020600020905b815481529060010190602001808311610c1f57829003601f168201915b50505050508152602001600282018054610c5590615899565b80601f0160208091040260200160405190810160405280929190818152602001828054610c8190615899565b8015610cce5780601f10610ca357610100808354040283529160200191610cce565b820191906000526020600020905b815481529060010190602001808311610cb157829003601f168201915b505050505081525050905060028160000181815250506040518060400160405280601781526020017f7570646174654d6178506c656467654475726174696f6e00000000000000000081525081604001819052506040518060600160405280602281526020016166a96022913981602001819052506000600660006002815260200190815260200160002060405180606001604052908160008201548152602001600182018054610d7e90615899565b80601f0160208091040260200160405190810160405280929190818152602001828054610daa90615899565b8015610df75780601f10610dcc57610100808354040283529160200191610df7565b820191906000526020600020905b815481529060010190602001808311610dda57829003601f168201915b50505050508152602001600282018054610e1090615899565b80601f0160208091040260200160405190810160405280929190818152602001828054610e3c90615899565b8015610e895780601f10610e5e57610100808354040283529160200191610e89565b820191906000526020600020905b815481529060010190602001808311610e6c57829003601f168201915b505050505081525050905060038160000181815250506040518060400160405280601781526020017f7570646174654d61785265776172644475726174696f6e00000000000000000081525081604001819052506040518060400160405280601881526020017f4d6f646966792074686520506c6564676520726577617264000000000000000081525081602001819052506000600660006003815260200190815260200160002060405180606001604052908160008201548152602001600182018054610f5690615899565b80601f0160208091040260200160405190810160405280929190818152602001828054610f8290615899565b8015610fcf5780601f10610fa457610100808354040283529160200191610fcf565b820191906000526020600020905b815481529060010190602001808311610fb257829003601f168201915b50505050508152602001600282018054610fe890615899565b80601f016020809104026020016040519081016040528092919081815260200182805461101490615899565b80156110615780601f1061103657610100808354040283529160200191611061565b820191906000526020600020905b81548152906001019060200180831161104457829003601f168201915b505050505081525050905060048160000181815250506040518060400160405280600e81526020017f757064617465436f6e7472616374000000000000000000000000000000000000815250816040018190525060405180606001604052806024815260200161665d602491398160200181905250600060066000600481526020019081526020016000206040518060600160405290816000820154815260200160018201805461111190615899565b80601f016020809104026020016040519081016040528092919081815260200182805461113d90615899565b801561118a5780601f1061115f5761010080835404028352916020019161118a565b820191906000526020600020905b81548152906001019060200180831161116d57829003601f168201915b505050505081526020016002820180546111a390615899565b80601f01602080910402602001604051908101604052809291908181526020018280546111cf90615899565b801561121c5780601f106111f15761010080835404028352916020019161121c565b820191906000526020600020905b8154815290600101906020018083116111ff57829003601f168201915b505050505081525050905060058160000181815250506040518060400160405280600881526020017f736574507269636500000000000000000000000000000000000000000000000081525081604001819052506040518060400160405280601c81526020017f757064617465207072696365206f6620656e74697265207661756c7400000000815250816020018190525084866000815181106112c3576112c26158cb565b5b602002602001018190525083866001815181106112e3576112e26158cb565b5b60200260200101819052508286600281518110611303576113026158cb565b5b60200260200101819052508186600381518110611323576113226158cb565b5b60200260200101819052508086600481518110611343576113426158cb565b5b602002602001018190525085965050505050505090565b600160009054906101000a900473ffffffffffffffffffffffffffffffffffffffff1681565b60008060009054906101000a900473ffffffffffffffffffffffffffffffffffffffff1673ffffffffffffffffffffffffffffffffffffffff16633b92eb236040518163ffffffff1660e01b8152600401602060405180830381865afa1580156113ee573d6000803e3d6000fd5b505050506040513d601f19601f82011682018060405250810190611412919061590f565b905090565b60008060009054906101000a900473ffffffffffffffffffffffffffffffffffffffff1673ffffffffffffffffffffffffffffffffffffffff16633205f5fc6040518163ffffffff1660e01b8152600401602060405180830381865afa158015611485573d6000803e3d6000fd5b505050506040513d601f19601f820116820180604052508101906114a9919061590f565b73ffffffffffffffffffffffffffffffffffffffff166318160ddd6040518163ffffffff1660e01b8152600401602060405180830381865afa1580156114f3573d6000803e3d6000fd5b505050506040513d601f19601f820116820180604052508101906115179190615552565b905090565b6003818154811061152c57600080fd5b906000526020600020016000915090505481565b60045481565b60008060009054906101000a900473ffffffffffffffffffffffffffffffffffffffff1673ffffffffffffffffffffffffffffffffffffffff16637d9f6db56040518163ffffffff1660e01b8152600401602060405180830381865afa1580156115b4573d6000803e3d6000fd5b505050506040513d601f19601f820116820180604052508101906115d8919061590f565b905090565b6000816040516020016115f09190615978565b60405160208183030381529060405280519060200120836040516020016116179190615978565b6040516020818303038152906040528051906020012014905092915050565b60608060008060056000868152602001908152602001600020905080600401816006018260050160009054906101000a900473ffffffffffffffffffffffffffffffffffffffff1682805461168a90615899565b80601f01602080910402602001604051908101604052809291908181526020018280546116b690615899565b80156117035780601f106116d857610100808354040283529160200191611703565b820191906000526020600020905b8154815290600101906020018083116116e657829003601f168201915b5050505050925081805461171690615899565b80601f016020809104026020016040519081016040528092919081815260200182805461174290615899565b801561178f5780601f106117645761010080835404028352916020019161178f565b820191906000526020600020905b81548152906001019060200180831161177257829003601f168201915b50505050509150935093509350509193909250565b60025481565b336000806101000a81548173ffffffffffffffffffffffffffffffffffffffff021916908373ffffffffffffffffffffffffffffffffffffffff1602179055506117f2611380565b600160006101000a81548173ffffffffffffffffffffffffffffffffffffffff021916908373ffffffffffffffffffffffffffffffffffffffff16021790555060008054906101000a900473ffffffffffffffffffffffffffffffffffffffff1673ffffffffffffffffffffffffffffffffffffffff167f0e39d7cd8517be5d0ded9db90850ac775470f23ea44ec3aaaad22ee8b1f8fc5960405160405180910390a26005600881905550565b600080600560008581526020019081526020016000209050600060068111156118cb576118ca615450565b5b8160090160009054906101000a900460ff1660068111156118ef576118ee615450565b5b1415611930576040517f08c379a0000000000000000000000000000000000000000000000000000000008152600401611927906159db565b60405180910390fd5b6000600281111561194457611943615450565b5b61194c612607565b73ffffffffffffffffffffffffffffffffffffffff1663d58bfa9d6040518163ffffffff1660e01b8152600401602060405180830381865afa158015611996573d6000803e3d6000fd5b505050506040513d601f19601f820116820180604052508101906119ba91906154a4565b60028111156119cc576119cb615450565b5b14611a0c576040517f08c379a0000000000000000000000000000000000000000000000000000000008152600401611a039061551d565b60405180910390fd5b60016006811115611a2057611a1f615450565b5b8160090160009054906101000a900460ff166006811115611a4457611a43615450565b5b1415611fdb5780600c0160003373ffffffffffffffffffffffffffffffffffffffff1673ffffffffffffffffffffffffffffffffffffffff16815260200190815260200160002060000160009054906101000a900460ff1615611adc576040517f08c379a0000000000000000000000000000000000000000000000000000000008152600401611ad390615a47565b60405180910390fd5b670de0b6b3a7640000600160009054906101000a900473ffffffffffffffffffffffffffffffffffffffff1673ffffffffffffffffffffffffffffffffffffffff166398dc8378336040518263ffffffff1660e01b8152600401611b40919061504b565b602060405180830381865afa158015611b5d573d6000803e3d6000fd5b505050506040513d601f19601f82011682018060405250810190611b819190615552565b1015611bc2576040517f08c379a0000000000000000000000000000000000000000000000000000000008152600401611bb990615ab3565b60405180910390fd5b80600301544210611c08576040517f08c379a0000000000000000000000000000000000000000000000000000000008152600401611bff90615b1f565b60405180910390fd5b600181600c0160003373ffffffffffffffffffffffffffffffffffffffff1673ffffffffffffffffffffffffffffffffffffffff16815260200190815260200160002060000160006101000a81548160ff021916908315150217905550600081600c0160003373ffffffffffffffffffffffffffffffffffffffff1673ffffffffffffffffffffffffffffffffffffffff1681526020019081526020016000206001018054905014611e485760005b81600c0160003373ffffffffffffffffffffffffffffffffffffffff1673ffffffffffffffffffffffffffffffffffffffff16815260200190815260200160002060010180549050811015611e4657600082600c0160003373ffffffffffffffffffffffffffffffffffffffff1673ffffffffffffffffffffffffffffffffffffffff1681526020019081526020016000206001018281548110611d5e57611d5d6158cb565b5b9060005260206000200160009054906101000a900473ffffffffffffffffffffffffffffffffffffffff169050600160009054906101000a900473ffffffffffffffffffffffffffffffffffffffff1673ffffffffffffffffffffffffffffffffffffffff166398dc8378826040518263ffffffff1660e01b8152600401611de6919061504b565b602060405180830381865afa158015611e03573d6000803e3d6000fd5b505050506040513d601f19601f82011682018060405250810190611e279190615552565b84611e3291906155eb565b93505080611e3f90615b3f565b9050611cb7565b505b8215611f1457600160009054906101000a900473ffffffffffffffffffffffffffffffffffffffff1673ffffffffffffffffffffffffffffffffffffffff166398dc8378336040518263ffffffff1660e01b8152600401611ea9919061504b565b602060405180830381865afa158015611ec6573d6000803e3d6000fd5b505050506040513d601f19601f82011682018060405250810190611eea9190615552565b82611ef591906155eb565b816007016000828254611f0891906155eb565b92505081905550611fd6565b600160009054906101000a900473ffffffffffffffffffffffffffffffffffffffff1673ffffffffffffffffffffffffffffffffffffffff166398dc8378336040518263ffffffff1660e01b8152600401611f6f919061504b565b602060405180830381865afa158015611f8c573d6000803e3d6000fd5b505050506040513d601f19601f82011682018060405250810190611fb09190615552565b82611fbb91906155eb565b816008016000828254611fce91906155eb565b925050819055505b61250c565b60056006811115611fef57611fee615450565b5b8160090160009054906101000a900460ff16600681111561201357612012615450565b5b14156124d05780600d0160040160003373ffffffffffffffffffffffffffffffffffffffff1673ffffffffffffffffffffffffffffffffffffffff16815260200190815260200160002060000160009054906101000a900460ff16156120ae576040517f08c379a00000000000000000000000000000000000000000000000000000000081526004016120a590615a47565b60405180910390fd5b806003015442106120f4576040517f08c379a00000000000000000000000000000000000000000000000000000000081526004016120eb90615b1f565b60405180910390fd5b600181600d0160040160003373ffffffffffffffffffffffffffffffffffffffff1673ffffffffffffffffffffffffffffffffffffffff16815260200190815260200160002060000160006101000a81548160ff021916908315150217905550600081600c0160003373ffffffffffffffffffffffffffffffffffffffff1673ffffffffffffffffffffffffffffffffffffffff16815260200190815260200160002060010180549050146123375760005b81600c0160003373ffffffffffffffffffffffffffffffffffffffff1673ffffffffffffffffffffffffffffffffffffffff1681526020019081526020016000206001018054905081101561233557600082600c0160003373ffffffffffffffffffffffffffffffffffffffff1673ffffffffffffffffffffffffffffffffffffffff168152602001908152602001600020600101828154811061224d5761224c6158cb565b5b9060005260206000200160009054906101000a900473ffffffffffffffffffffffffffffffffffffffff169050600160009054906101000a900473ffffffffffffffffffffffffffffffffffffffff1673ffffffffffffffffffffffffffffffffffffffff166398dc8378826040518263ffffffff1660e01b81526004016122d5919061504b565b602060405180830381865afa1580156122f2573d6000803e3d6000fd5b505050506040513d601f19601f820116820180604052508101906123169190615552565b8461232191906155eb565b9350508061232e90615b3f565b90506121a6565b505b821561240657600160009054906101000a900473ffffffffffffffffffffffffffffffffffffffff1673ffffffffffffffffffffffffffffffffffffffff166398dc8378336040518263ffffffff1660e01b8152600401612398919061504b565b602060405180830381865afa1580156123b5573d6000803e3d6000fd5b505050506040513d601f19601f820116820180604052508101906123d99190615552565b826123e491906155eb565b81600d0160020160008282546123fa91906155eb565b925050819055506124cb565b600160009054906101000a900473ffffffffffffffffffffffffffffffffffffffff1673ffffffffffffffffffffffffffffffffffffffff166398dc8378336040518263ffffffff1660e01b8152600401612461919061504b565b602060405180830381865afa15801561247e573d6000803e3d6000fd5b505050506040513d601f19601f820116820180604052508101906124a29190615552565b826124ad91906155eb565b81600d0160030160008282546124c391906155eb565b925050819055505b61250b565b6040517f08c379a000000000000000000000000000000000000000000000000000000000815260040161250290615bd4565b60405180910390fd5b5b837ffa4d7d6563a1339868816e9b79e78afcf4133f265e744755bf8f19d660c838e28433600160009054906101000a900473ffffffffffffffffffffffffffffffffffffffff1673ffffffffffffffffffffffffffffffffffffffff166398dc8378336040518263ffffffff1660e01b815260040161258b919061504b565b602060405180830381865afa1580156125a8573d6000803e3d6000fd5b505050506040513d601f19601f820116820180604052508101906125cc9190615552565b866125d791906155eb565b8560090160009054906101000a900460ff166040516125f99493929190615c3c565b60405180910390a250505050565b60008060009054906101000a900473ffffffffffffffffffffffffffffffffffffffff1673ffffffffffffffffffffffffffffffffffffffff1663fbfa77cf6040518163ffffffff1660e01b8152600401602060405180830381865afa158015612675573d6000803e3d6000fd5b505050506040513d601f19601f82011682018060405250810190612699919061590f565b905090565b60096020528060005260406000206000915054906101000a900460ff1681565b600080600160009054906101000a900473ffffffffffffffffffffffffffffffffffffffff1673ffffffffffffffffffffffffffffffffffffffff166318160ddd6040518163ffffffff1660e01b8152600401602060405180830381865afa15801561272e573d6000803e3d6000fd5b505050506040513d601f19601f820116820180604052508101906127529190615552565b1415612793576040517f08c379a000000000000000000000000000000000000000000000000000000000815260040161278a90615ccd565b60405180910390fd5b600060646008546127a2611417565b6127ac9190615396565b6127b6919061541f565b9050600060028111156127cc576127cb615450565b5b6127d4612607565b73ffffffffffffffffffffffffffffffffffffffff1663d58bfa9d6040518163ffffffff1660e01b8152600401602060405180830381865afa15801561281e573d6000803e3d6000fd5b505050506040513d601f19601f8201168201806040525081019061284291906154a4565b600281111561285457612853615450565b5b14612894576040517f08c379a000000000000000000000000000000000000000000000000000000000815260040161288b9061551d565b60405180910390fd5b80600160009054906101000a900473ffffffffffffffffffffffffffffffffffffffff1673ffffffffffffffffffffffffffffffffffffffff166398dc8378336040518263ffffffff1660e01b81526004016128f0919061504b565b602060405180830381865afa15801561290d573d6000803e3d6000fd5b505050506040513d601f19601f820116820180604052508101906129319190615552565b1015612972576040517f08c379a0000000000000000000000000000000000000000000000000000000008152600401612969906155cb565b60405180910390fd5b8361297b610973565b5110156129bd576040517f08c379a00000000000000000000000000000000000000000000000000000000081526004016129b490615d39565b60405180910390fd5b60008411612a00576040517f08c379a00000000000000000000000000000000000000000000000000000000081526004016129f790615da5565b60405180910390fd5b6003841415612a535782612a12612e33565b10612a52576040517f08c379a0000000000000000000000000000000000000000000000000000000008152600401612a4990615e37565b60405180910390fd5b5b6005841415612b86573373ffffffffffffffffffffffffffffffffffffffff1660008054906101000a900473ffffffffffffffffffffffffffffffffffffffff1673ffffffffffffffffffffffffffffffffffffffff1663e66f53b76040518163ffffffff1660e01b8152600401602060405180830381865afa158015612ade573d6000803e3d6000fd5b505050506040513d601f19601f82011682018060405250810190612b02919061590f565b73ffffffffffffffffffffffffffffffffffffffff1614612b58576040517f08c379a0000000000000000000000000000000000000000000000000000000008152600401612b4f90615ea3565b60405180910390fd5b6001600960006001815260200190815260200160002060006101000a81548160ff0219169083151502179055505b60026000815480929190612b9990615b3f565b919050555060006005600060025481526020019081526020016000209050600160009054906101000a900473ffffffffffffffffffffffffffffffffffffffff1673ffffffffffffffffffffffffffffffffffffffff166318160ddd6040518163ffffffff1660e01b8152600401602060405180830381865afa158015612c24573d6000803e3d6000fd5b505050506040513d601f19601f82011682018060405250810190612c489190615552565b8160000181905550612c58611417565b816001018190555087816004019080519060200190612c78929190614a52565b50600254816002018190555060f042612c9191906155eb565b8160030181905550338160050160006101000a81548173ffffffffffffffffffffffffffffffffffffffff021916908373ffffffffffffffffffffffffffffffffffffffff16021790555060018160090160006101000a81548160ff02191690836006811115612d0457612d03615450565b5b02179055508481600a01819055508381600b01819055507f87183d3789b1ed6e1fe61df24b9c535f4293a4bb26508c7692f9e670344900a060025489338a89898c60f042612d5291906155eb565b60b460f042612d6191906155eb565b612d6b91906155eb565b612d73611417565b600160009054906101000a900473ffffffffffffffffffffffffffffffffffffffff1673ffffffffffffffffffffffffffffffffffffffff166318160ddd6040518163ffffffff1660e01b8152600401602060405180830381865afa158015612de0573d6000803e3d6000fd5b505050506040513d601f19601f82011682018060405250810190612e049190615552565b604051612e1b9b9a99989796959493929190615ec3565b60405180910390a16002549250505095945050505050565b60008060009054906101000a900473ffffffffffffffffffffffffffffffffffffffff1673ffffffffffffffffffffffffffffffffffffffff16633b92eb236040518163ffffffff1660e01b8152600401602060405180830381865afa158015612ea1573d6000803e3d6000fd5b505050506040513d601f19601f82011682018060405250810190612ec5919061590f565b73ffffffffffffffffffffffffffffffffffffffff16638332b8316040518163ffffffff1660e01b8152600401602060405180830381865afa158015612f0f573d6000803e3d6000fd5b505050506040513d601f19601f82011682018060405250810190612f339190615552565b905090565b600080600080600080600560008881526020019081526020016000209050806007015495508060080154945080600d0160020154935080600d01600301549250806003015491505091939590929450565b6000806005600084815260200190815260200160002090508060090160009054906101000a900460ff166006811115612fc557612fc4615450565b5b915050919050565b60008054906101000a900473ffffffffffffffffffffffffffffffffffffffff1681565b600060056000848152602001908152602001600020905080600c0160003373ffffffffffffffffffffffffffffffffffffffff1673ffffffffffffffffffffffffffffffffffffffff16815260200190815260200160002060000160009054906101000a900460ff161561309a576040517f08c379a000000000000000000000000000000000000000000000000000000000815260040161309190615fcf565b60405180910390fd5b3373ffffffffffffffffffffffffffffffffffffffff168273ffffffffffffffffffffffffffffffffffffffff161415613109576040517f08c379a00000000000000000000000000000000000000000000000000000000081526004016131009061603b565b60405180910390fd5b6000600681111561311d5761311c615450565b5b8160090160009054906101000a900460ff16600681111561314157613140615450565b5b1415613182576040517f08c379a0000000000000000000000000000000000000000000000000000000008152600401613179906159db565b60405180910390fd5b6000600160009054906101000a900473ffffffffffffffffffffffffffffffffffffffff1673ffffffffffffffffffffffffffffffffffffffff166398dc8378336040518263ffffffff1660e01b81526004016131df919061504b565b602060405180830381865afa1580156131fc573d6000803e3d6000fd5b505050506040513d601f19601f820116820180604052508101906132209190615552565b11613260576040517f08c379a0000000000000000000000000000000000000000000000000000000008152600401613257906160a7565b60405180910390fd5b600081600c0160003373ffffffffffffffffffffffffffffffffffffffff1673ffffffffffffffffffffffffffffffffffffffff16815260200190815260200160002060010180549050146132ea576040517f08c379a00000000000000000000000000000000000000000000000000000000081526004016132e190616113565b60405180910390fd5b80600c0160008373ffffffffffffffffffffffffffffffffffffffff1673ffffffffffffffffffffffffffffffffffffffff168152602001908152602001600020600101339080600181540180825580915050600190039060005260206000200160009091909190916101000a81548173ffffffffffffffffffffffffffffffffffffffff021916908373ffffffffffffffffffffffffffffffffffffffff160217905550600181600c0160003373ffffffffffffffffffffffffffffffffffffffff1673ffffffffffffffffffffffffffffffffffffffff16815260200190815260200160002060000160006101000a81548160ff02191690831515021790555080600d0160040160008373ffffffffffffffffffffffffffffffffffffffff1673ffffffffffffffffffffffffffffffffffffffff168152602001908152602001600020600101339080600181540180825580915050600190039060005260206000200160009091909190916101000a81548173ffffffffffffffffffffffffffffffffffffffff021916908373ffffffffffffffffffffffffffffffffffffffff160217905550600181600d0160040160003373ffffffffffffffffffffffffffffffffffffffff1673ffffffffffffffffffffffffffffffffffffffff16815260200190815260200160002060000160006101000a81548160ff021916908315150217905550827fa9860e62eb02a47e1d5d5253a79d90bc96cd33c299d874f5b7710d0a61b63ccc83604051613524919061504b565b60405180910390a2505050565b60006005600083815260200190815260200160002090506007600083815260200190815260200160002060009054906101000a900460ff16156135a9576040517f08c379a00000000000000000000000000000000000000000000000000000000081526004016135a09061617f565b60405180910390fd5b600060068111156135bd576135bc615450565b5b8160090160009054906101000a900460ff1660068111156135e1576135e0615450565b5b1415613622576040517f08c379a0000000000000000000000000000000000000000000000000000000008152600401613619906159db565b60405180910390fd5b6000600281111561363657613635615450565b5b61363e612607565b73ffffffffffffffffffffffffffffffffffffffff1663d58bfa9d6040518163ffffffff1660e01b8152600401602060405180830381865afa158015613688573d6000803e3d6000fd5b505050506040513d601f19601f820116820180604052508101906136ac91906154a4565b60028111156136be576136bd615450565b5b146136fe576040517f08c379a00000000000000000000000000000000000000000000000000000000081526004016136f59061551d565b60405180910390fd5b60028081111561371157613710615450565b5b613719612607565b73ffffffffffffffffffffffffffffffffffffffff1663d58bfa9d6040518163ffffffff1660e01b8152600401602060405180830381865afa158015613763573d6000803e3d6000fd5b505050506040513d601f19601f8201168201806040525081019061378791906154a4565b600281111561379957613798615450565b5b14156137da576040517f08c379a00000000000000000000000000000000000000000000000000000000081526004016137d1906161eb565b60405180910390fd5b600160068111156137ee576137ed615450565b5b8160090160009054906101000a900460ff16600681111561381257613811615450565b5b1415613af35760b4816003015461382991906155eb565b421161386a576040517f08c379a00000000000000000000000000000000000000000000000000000000081526004016138619061578b565b60405180910390fd5b600581600a015414156139ca576000600960006001815260200190815260200160002060006101000a81548160ff0219169083151502179055506064601e82600101546138b79190615396565b6138c1919061541f565b816007015482600801546138d591906155eb565b108061390f5750603c816007015482600801546138f291906155eb565b606483600701546139039190615396565b61390d919061541f565b105b156139c95760038160090160006101000a81548160ff0219169083600681111561393c5761393b615450565b5b0217905550600382908060018154018082558091505060019003906000526020600020016000909190919091505560016007600084815260200190815260200160002060006101000a81548160ff021916908315150217905550817f3cb3fe21d744d74c57d66c7d09a5d7d3255e615a7b36fd683fbc28db6a675f4c60405160405180910390a250613ee6565b5b6064601e82600101546139dd9190615396565b6139e7919061541f565b816007015482600801546139fb91906155eb565b1015613a3c576040517f08c379a0000000000000000000000000000000000000000000000000000000008152600401613a339061568d565b60405180910390fd5b603c81600701548260080154613a5291906155eb565b60648360070154613a639190615396565b613a6d919061541f565b1015613aae576040517f08c379a0000000000000000000000000000000000000000000000000000000008152600401613aa59061571f565b60405180910390fd5b60028160090160006101000a81548160ff02191690836006811115613ad657613ad5615450565b5b0217905550613aee8282600a015483600b0154613ee9565b613eb7565b60056006811115613b0757613b06615450565b5b8160090160009054906101000a900460ff166006811115613b2b57613b2a615450565b5b1415613e7b5780600301544211613b77576040517f08c379a0000000000000000000000000000000000000000000000000000000008152600401613b6e9061578b565b60405180910390fd5b600581600a01541415613cb15760038160090160006101000a81548160ff02191690836006811115613bac57613bab615450565b5b0217905550613bb9612607565b73ffffffffffffffffffffffffffffffffffffffff1663e77ae39b60008060006040518463ffffffff1660e01b8152600401613bf7939291906162da565b600060405180830381600087803b158015613c1157600080fd5b505af1158015613c25573d6000803e3d6000fd5b50505050600382908060018154018082558091505060019003906000526020600020016000909190919091505560016007600084815260200190815260200160002060006101000a81548160ff021916908315150217905550817f3cb3fe21d744d74c57d66c7d09a5d7d3255e615a7b36fd683fbc28db6a675f4c60405160405180910390a250613ee6565b806007015481600d016002015410613cfe576040517f08c379a0000000000000000000000000000000000000000000000000000000008152600401613cf590616396565b60405180910390fd5b806007015481600d01600201541015613de95760038160090160006101000a81548160ff02191690836006811115613d3957613d38615450565b5b0217905550613d46612607565b73ffffffffffffffffffffffffffffffffffffffff1663e77ae39b60008060006040518463ffffffff1660e01b8152600401613d84939291906162da565b600060405180830381600087803b158015613d9e57600080fd5b505af1158015613db2573d6000803e3d6000fd5b50505050817f3cb3fe21d744d74c57d66c7d09a5d7d3255e615a7b36fd683fbc28db6a675f4c60405160405180910390a250613ee6565b806007015481600d016002015411613e36576040517f08c379a0000000000000000000000000000000000000000000000000000000008152600401613e2d90616396565b60405180910390fd5b60028160090160006101000a81548160ff02191690836006811115613e5e57613e5d615450565b5b0217905550613e768282600a015483600b0154613ee9565b613eb6565b6040517f08c379a0000000000000000000000000000000000000000000000000000000008152600401613ead9061578b565b60405180910390fd5b5b817fa6b4889fbc6222293f94ac3c68c40fa4c027b86b0dfe4f820475c7d8828a243660405160405180910390a2505b50565b600383908060018154018082558091505060019003906000526020600020016000909190919091505560016007600085815260200190815260200160002060006101000a81548160ff0219169083151502179055506001821415613f5557613f50816144a5565b6144a0565b6002821415613f6c57613f67816144b1565b61449f565b6003821415613f8357613f7e816144fb565b61449e565b60048214156144895760008060008054906101000a900473ffffffffffffffffffffffffffffffffffffffff1673ffffffffffffffffffffffffffffffffffffffff1663a21d13546040518163ffffffff1660e01b8152600401600060405180830381865afa158015613ffa573d6000803e3d6000fd5b505050506040513d6000823e3d601f19601f820116820180604052508101906140239190616460565b9150915060008060009054906101000a900473ffffffffffffffffffffffffffffffffffffffff1673ffffffffffffffffffffffffffffffffffffffff1663c45a01556040518163ffffffff1660e01b8152600401602060405180830381865afa158015614095573d6000803e3d6000fd5b505050506040513d601f19601f820116820180604052508101906140b9919061590f565b905060008173ffffffffffffffffffffffffffffffffffffffff1663816d116f85856040518363ffffffff1660e01b81526004016140f89291906164cb565b6020604051808303816000875af1158015614117573d6000803e3d6000fd5b505050506040513d601f19601f8201168201806040525081019061413b919061590f565b9050600073ffffffffffffffffffffffffffffffffffffffff168173ffffffffffffffffffffffffffffffffffffffff1614156141ad576040517f08c379a00000000000000000000000000000000000000000000000000000000081526004016141a490616547565b60405180910390fd5b61420d60008054906101000a900473ffffffffffffffffffffffffffffffffffffffff166040518060400160405280601581526020017f757064617465526f75746572286164647265737329000000000000000000000081525083614545565b6142db60008054906101000a900473ffffffffffffffffffffffffffffffffffffffff1673ffffffffffffffffffffffffffffffffffffffff16633b92eb236040518163ffffffff1660e01b8152600401602060405180830381865afa15801561427b573d6000803e3d6000fd5b505050506040513d601f19601f8201168201806040525081019061429f919061590f565b6040518060400160405280601681526020017f7570646174655665546f6b656e2861646472657373290000000000000000000081525083614545565b6143a960008054906101000a900473ffffffffffffffffffffffffffffffffffffffff1673ffffffffffffffffffffffffffffffffffffffff16637d9f6db56040518163ffffffff1660e01b8152600401602060405180830381865afa158015614349573d6000803e3d6000fd5b505050506040513d601f19601f8201168201806040525081019061436d919061590f565b6040518060400160405280601681526020017f75706461746541756374696f6e2861646472657373290000000000000000000081525083614545565b61447760008054906101000a900473ffffffffffffffffffffffffffffffffffffffff1673ffffffffffffffffffffffffffffffffffffffff1663fbfa77cf6040518163ffffffff1660e01b8152600401602060405180830381865afa158015614417573d6000803e3d6000fd5b505050506040513d601f19601f8201168201806040525081019061443b919061590f565b6040518060400160405280601481526020017f7570646174655661756c7428616464726573732900000000000000000000000081525083614545565b61448081614682565b5050505061449d565b600582141561449c5761449b816147ba565b5b5b5b5b5b505050565b6144ae8161490b565b50565b6144f86144bc611380565b6040518060400160405280602081526020017f7570646174654d6178506c656467654475726174696f6e2875696e743235362981525083614915565b50565b614542614506611380565b6040518060400160405280602081526020017f7570646174654d61785265776172644475726174696f6e2875696e743235362981525083614915565b50565b6000808473ffffffffffffffffffffffffffffffffffffffff168484604051602401614571919061504b565b6040516020818303038152906040529060405161458e9190615978565b60405180910390207bffffffffffffffffffffffffffffffffffffffffffffffffffffffff19166020820180517bffffffffffffffffffffffffffffffffffffffffffffffffffffffff83818316178352505050506040516145f091906165ae565b6000604051808303816000865af19150503d806000811461462d576040519150601f19603f3d011682016040523d82523d6000602084013e614632565b606091505b509150915081819061467a576040517f08c379a000000000000000000000000000000000000000000000000000000000815260040161467191906165c5565b60405180910390fd5b505050505050565b6000808273ffffffffffffffffffffffffffffffffffffffff166040516024016040516020818303038152906040527fcd166fea000000000000000000000000000000000000000000000000000000007bffffffffffffffffffffffffffffffffffffffffffffffffffffffff19166020820180517bffffffffffffffffffffffffffffffffffffffffffffffffffffffff838183161783525050505060405161472c91906165ae565b600060405180830381855af49150503d8060008114614767576040519150601f19603f3d011682016040523d82523d6000602084013e61476c565b606091505b50915091508181906147b4576040517f08c379a00000000000000000000000000000000000000000000000000000000081526004016147ab91906165c5565b60405180910390fd5b50505050565b6000806147c5611546565b73ffffffffffffffffffffffffffffffffffffffff16600080856040516024016147f193929190616625565b6040516020818303038152906040527f3011e16a000000000000000000000000000000000000000000000000000000007bffffffffffffffffffffffffffffffffffffffffffffffffffffffff19166020820180517bffffffffffffffffffffffffffffffffffffffffffffffffffffffff838183161783525050505060405161487b91906165ae565b6000604051808303816000865af19150503d80600081146148b8576040519150601f19603f3d011682016040523d82523d6000602084013e6148bd565b606091505b5091509150818190614905576040517f08c379a00000000000000000000000000000000000000000000000000000000081526004016148fc91906165c5565b60405180910390fd5b50505050565b8060088190555050565b6000808473ffffffffffffffffffffffffffffffffffffffff1684846040516024016149419190614d40565b6040516020818303038152906040529060405161495e9190615978565b60405180910390207bffffffffffffffffffffffffffffffffffffffffffffffffffffffff19166020820180517bffffffffffffffffffffffffffffffffffffffffffffffffffffffff83818316178352505050506040516149c091906165ae565b6000604051808303816000865af19150503d80600081146149fd576040519150601f19603f3d011682016040523d82523d6000602084013e614a02565b606091505b5091509150818190614a4a576040517f08c379a0000000000000000000000000000000000000000000000000000000008152600401614a4191906165c5565b60405180910390fd5b505050505050565b828054614a5e90615899565b90600052602060002090601f016020900481019282614a805760008555614ac7565b82601f10614a9957805160ff1916838001178555614ac7565b82800160010185558215614ac7579182015b82811115614ac6578251825591602001919060010190614aab565b5b509050614ad49190614af9565b5090565b60405180606001604052806000815260200160608152602001606081525090565b5b80821115614b12576000816000905550600101614afa565b5090565b6000604051905090565b600080fd5b600080fd5b6000819050919050565b614b3d81614b2a565b8114614b4857600080fd5b50565b600081359050614b5a81614b34565b92915050565b600080fd5b600080fd5b6000601f19601f8301169050919050565b7f4e487b7100000000000000000000000000000000000000000000000000000000600052604160045260246000fd5b614bb382614b6a565b810181811067ffffffffffffffff82111715614bd257614bd1614b7b565b5b80604052505050565b6000614be5614b16565b9050614bf18282614baa565b919050565b600067ffffffffffffffff821115614c1157614c10614b7b565b5b614c1a82614b6a565b9050602081019050919050565b82818337600083830152505050565b6000614c49614c4484614bf6565b614bdb565b905082815260208101848484011115614c6557614c64614b65565b5b614c70848285614c27565b509392505050565b600082601f830112614c8d57614c8c614b60565b5b8135614c9d848260208601614c36565b91505092915050565b600080600060608486031215614cbf57614cbe614b20565b5b6000614ccd86828701614b4b565b935050602084013567ffffffffffffffff811115614cee57614ced614b25565b5b614cfa86828701614c78565b925050604084013567ffffffffffffffff811115614d1b57614d1a614b25565b5b614d2786828701614c78565b9150509250925092565b614d3a81614b2a565b82525050565b6000602082019050614d556000830184614d31565b92915050565b600060208284031215614d7157614d70614b20565b5b6000614d7f84828501614b4b565b91505092915050565b60008115159050919050565b614d9d81614d88565b82525050565b6000602082019050614db86000830184614d94565b92915050565b600081519050919050565b600082825260208201905092915050565b6000819050602082019050919050565b614df381614b2a565b82525050565b600081519050919050565b600082825260208201905092915050565b60005b83811015614e33578082015181840152602081019050614e18565b83811115614e42576000848401525b50505050565b6000614e5382614df9565b614e5d8185614e04565b9350614e6d818560208601614e15565b614e7681614b6a565b840191505092915050565b6000606083016000830151614e996000860182614dea565b5060208301518482036020860152614eb18282614e48565b91505060408301518482036040860152614ecb8282614e48565b9150508091505092915050565b6000614ee48383614e81565b905092915050565b6000602082019050919050565b6000614f0482614dbe565b614f0e8185614dc9565b935083602082028501614f2085614dda565b8060005b85811015614f5c5784840389528151614f3d8582614ed8565b9450614f4883614eec565b925060208a01995050600181019050614f24565b50829750879550505050505092915050565b60006020820190508181036000830152614f888184614ef9565b905092915050565b600073ffffffffffffffffffffffffffffffffffffffff82169050919050565b6000819050919050565b6000614fd5614fd0614fcb84614f90565b614fb0565b614f90565b9050919050565b6000614fe782614fba565b9050919050565b6000614ff982614fdc565b9050919050565b61500981614fee565b82525050565b60006020820190506150246000830184615000565b92915050565b600061503582614f90565b9050919050565b6150458161502a565b82525050565b6000602082019050615060600083018461503c565b92915050565b6000806040838503121561507d5761507c614b20565b5b600083013567ffffffffffffffff81111561509b5761509a614b25565b5b6150a785828601614c78565b925050602083013567ffffffffffffffff8111156150c8576150c7614b25565b5b6150d485828601614c78565b9150509250929050565b600082825260208201905092915050565b60006150fa82614df9565b61510481856150de565b9350615114818560208601614e15565b61511d81614b6a565b840191505092915050565b6000606082019050818103600083015261514281866150ef565b9050818103602083015261515681856150ef565b9050615165604083018461503c565b949350505050565b61517681614d88565b811461518157600080fd5b50565b6000813590506151938161516d565b92915050565b600080604083850312156151b0576151af614b20565b5b60006151be85828601614b4b565b92505060206151cf85828601615184565b9150509250929050565b600080600080600060a086880312156151f5576151f4614b20565b5b600086013567ffffffffffffffff81111561521357615212614b25565b5b61521f88828901614c78565b955050602086013567ffffffffffffffff8111156152405761523f614b25565b5b61524c88828901614c78565b945050604086013567ffffffffffffffff81111561526d5761526c614b25565b5b61527988828901614c78565b935050606061528a88828901614b4b565b925050608061529b88828901614b4b565b9150509295509295909350565b600060a0820190506152bd6000830188614d31565b6152ca6020830187614d31565b6152d76040830186614d31565b6152e46060830185614d31565b6152f16080830184614d31565b9695505050505050565b6153048161502a565b811461530f57600080fd5b50565b600081359050615321816152fb565b92915050565b6000806040838503121561533e5761533d614b20565b5b600061534c85828601614b4b565b925050602061535d85828601615312565b9150509250929050565b7f4e487b7100000000000000000000000000000000000000000000000000000000600052601160045260246000fd5b60006153a182614b2a565b91506153ac83614b2a565b9250817fffffffffffffffffffffffffffffffffffffffffffffffffffffffffffffffff04831182151516156153e5576153e4615367565b5b828202905092915050565b7f4e487b7100000000000000000000000000000000000000000000000000000000600052601260045260246000fd5b600061542a82614b2a565b915061543583614b2a565b925082615445576154446153f0565b5b828204905092915050565b7f4e487b7100000000000000000000000000000000000000000000000000000000600052602160045260246000fd5b6003811061548c57600080fd5b50565b60008151905061549e8161547f565b92915050565b6000602082840312156154ba576154b9614b20565b5b60006154c88482850161548f565b91505092915050565b7f546865207661756c7420616e64207468652061756374696f6e00000000000000600082015250565b60006155076019836150de565b9150615512826154d1565b602082019050919050565b60006020820190508181036000830152615536816154fa565b9050919050565b60008151905061554c81614b34565b92915050565b60006020828403121561556857615567614b20565b5b60006155768482850161553d565b91505092915050565b7f546f6f2066657720746f6b656e73206172652068656c64000000000000000000600082015250565b60006155b56017836150de565b91506155c08261557f565b602082019050919050565b600060208201905081810360008301526155e4816155a8565b9050919050565b60006155f682614b2a565b915061560183614b2a565b9250827fffffffffffffffffffffffffffffffffffffffffffffffffffffffffffffffff0382111561563657615635615367565b5b828201905092915050565b7f766f746573206973206c657373207468616e2033302070657263656e74000000600082015250565b6000615677601d836150de565b915061568282615641565b602082019050919050565b600060208201905081810360008301526156a68161566a565b9050919050565b7f4c657373207468616e20363025206f662074686520766f74657320706173736560008201527f6400000000000000000000000000000000000000000000000000000000000000602082015250565b60006157096021836150de565b9150615714826156ad565b604082019050919050565b60006020820190508181036000830152615738816156fc565b9050919050565b7f5374696c6c20696e2074686520766f74696e6720706861736500000000000000600082015250565b60006157756019836150de565b91506157808261573f565b602082019050919050565b600060208201905081810360008301526157a481615768565b9050919050565b7f4e6f742061742074686520766f74696e67207374616765000000000000000000600082015250565b60006157e16017836150de565b91506157ec826157ab565b602082019050919050565b60006020820190508181036000830152615810816157d4565b9050919050565b600060808201905061582c600083018761503c565b818103602083015261583e81866150ef565b905061584d6040830185614d31565b818103606083015261585f81846150ef565b905095945050505050565b7f4e487b7100000000000000000000000000000000000000000000000000000000600052602260045260246000fd5b600060028204905060018216806158b157607f821691505b602082108114156158c5576158c461586a565b5b50919050565b7f4e487b7100000000000000000000000000000000000000000000000000000000600052603260045260246000fd5b600081519050615909816152fb565b92915050565b60006020828403121561592557615924614b20565b5b6000615933848285016158fa565b91505092915050565b600081905092915050565b600061595282614df9565b61595c818561593c565b935061596c818560208601614e15565b80840191505092915050565b60006159848284615947565b915081905092915050565b7f566f74654964206973206e756c6c000000000000000000000000000000000000600082015250565b60006159c5600e836150de565b91506159d08261598f565b602082019050919050565b600060208201905081810360008301526159f4816159b8565b9050919050565b7f566f7465206265666f7265000000000000000000000000000000000000000000600082015250565b6000615a31600b836150de565b9150615a3c826159fb565b602082019050919050565b60006020820190508181036000830152615a6081615a24565b9050919050565b7f7665546f6b656e206c657373207468616e203120000000000000000000000000600082015250565b6000615a9d6014836150de565b9150615aa882615a67565b602082019050919050565b60006020820190508181036000830152615acc81615a90565b9050919050565b7f4e6f742077697468696e2074686520616c6c6f747465642074696d6500000000600082015250565b6000615b09601c836150de565b9150615b1482615ad3565b602082019050919050565b60006020820190508181036000830152615b3881615afc565b9050919050565b6000615b4a82614b2a565b91507fffffffffffffffffffffffffffffffffffffffffffffffffffffffffffffffff821415615b7d57615b7c615367565b5b600182019050919050565b7f43616e206e6f7420766f74650000000000000000000000000000000000000000600082015250565b6000615bbe600c836150de565b9150615bc982615b88565b602082019050919050565b60006020820190508181036000830152615bed81615bb1565b9050919050565b60078110615c0557615c04615450565b5b50565b6000819050615c1682615bf4565b919050565b6000615c2682615c08565b9050919050565b615c3681615c1b565b82525050565b6000608082019050615c516000830187614d94565b615c5e602083018661503c565b615c6b6040830185614d31565b615c786060830184615c2d565b95945050505050565b7f207665546f6b656e537570706c79203d3d203000000000000000000000000000600082015250565b6000615cb76013836150de565b9150615cc282615c81565b602082019050919050565b60006020820190508181036000830152615ce681615caa565b9050919050565b7f2074656d706c61746520626520656d7074790000000000000000000000000000600082015250565b6000615d236012836150de565b9150615d2e82615ced565b602082019050919050565b60006020820190508181036000830152615d5281615d16565b9050919050565b7f74656d706c61746520626520656d707479000000000000000000000000000000600082015250565b6000615d8f6011836150de565b9150615d9a82615d59565b602082019050919050565b60006020820190508181036000830152615dbe81615d82565b9050919050565b7f6f6e6c792073657420697420746f206265206c6172676572207468616e20746860008201527f65206f726967696e616c00000000000000000000000000000000000000000000602082015250565b6000615e21602a836150de565b9150615e2c82615dc5565b604082019050919050565b60006020820190508181036000830152615e5081615e14565b9050919050565b7f4e6f207065726d697373696f6e20746f20637265617465000000000000000000600082015250565b6000615e8d6017836150de565b9150615e9882615e57565b602082019050919050565b60006020820190508181036000830152615ebc81615e80565b9050919050565b600061016082019050615ed9600083018e614d31565b8181036020830152615eeb818d6150ef565b9050615efa604083018c61503c565b8181036060830152615f0c818b6150ef565b9050615f1b608083018a614d31565b615f2860a0830189614d31565b81810360c0830152615f3a81886150ef565b9050615f4960e0830187614d31565b615f57610100830186614d31565b615f65610120830185614d31565b615f73610140830184614d31565b9c9b505050505050505050505050565b7f4861766520766f74656400000000000000000000000000000000000000000000600082015250565b6000615fb9600a836150de565b9150615fc482615f83565b602082019050919050565b60006020820190508181036000830152615fe881615fac565b9050919050565b7f63616e27742064656c656761746520746f20796f757273656c66000000000000600082015250565b6000616025601a836150de565b915061603082615fef565b602082019050919050565b6000602082019050818103600083015261605481616018565b9050919050565b7f5468657265206973206e6f20746f6b656e200000000000000000000000000000600082015250565b60006160916012836150de565b915061609c8261605b565b602082019050919050565b600060208201905081810360008301526160c081616084565b9050919050565b7f4e6f206f6e6520656c73652063616e20626520617574686f72697a6564000000600082015250565b60006160fd601d836150de565b9150616108826160c7565b602082019050919050565b6000602082019050818103600083015261612c816160f0565b9050919050565b7f7265706574697469766520657865637574696f6e000000000000000000000000600082015250565b60006161696014836150de565b915061617482616133565b602082019050919050565b600060208201905081810360008301526161988161615c565b9050919050565b7f546865207661756c7420697320636c6f73656400000000000000000000000000600082015250565b60006161d56013836150de565b91506161e08261619f565b602082019050919050565b60006020820190508181036000830152616204816161c8565b9050919050565b6000819050919050565b600061623061622b6162268461620b565b614fb0565b614b2a565b9050919050565b61624081616215565b82525050565b6003811061625757616256615450565b5b50565b600081905061626882616246565b919050565b60006162788261625a565b9050919050565b6162888161626d565b82525050565b7f766f746500000000000000000000000000000000000000000000000000000000600082015250565b60006162c46004836150de565b91506162cf8261628e565b602082019050919050565b60006080820190506162ef600083018661503c565b6162fc6020830185616237565b616309604083018461627f565b818103606083015261631a816162b7565b9050949350505050565b7f54686520766f746520706173736564207769746820666577657220766f74657360008201527f207468616e20746865206f726967696e616c0000000000000000000000000000602082015250565b60006163806032836150de565b915061638b82616324565b604082019050919050565b600060208201905081810360008301526163af81616373565b9050919050565b60006163c96163c484614bf6565b614bdb565b9050828152602081018484840111156163e5576163e4614b65565b5b6163f0848285614e15565b509392505050565b600082601f83011261640d5761640c614b60565b5b815161641d8482602086016163b6565b91505092915050565b600061ffff82169050919050565b61643d81616426565b811461644857600080fd5b50565b60008151905061645a81616434565b92915050565b6000806040838503121561647757616476614b20565b5b600083015167ffffffffffffffff81111561649557616494614b25565b5b6164a1858286016163f8565b92505060206164b28582860161644b565b9150509250929050565b6164c581616426565b82525050565b600060408201905081810360008301526164e581856150ef565b90506164f460208301846164bc565b9392505050565b7f6572726f72207570646174652074656d706c6174652061646472657373000000600082015250565b6000616531601d836150de565b915061653c826164fb565b602082019050919050565b6000602082019050818103600083015261656081616524565b9050919050565b600081519050919050565b600081905092915050565b600061658882616567565b6165928185616572565b93506165a2818560208601614e15565b80840191505092915050565b60006165ba828461657d565b915081905092915050565b600060208201905081810360008301526165df81846150ef565b905092915050565b600060ff82169050919050565b600061660f61660a6166058461620b565b614fb0565b6165e7565b9050919050565b61661f816165f4565b82525050565b600060608201905061663a600083018661503c565b6166476020830185616616565b6166546040830184614d31565b94935050505056fe436f6e7472616374207570677261646520746f20746865206e6578742076657273696f6e4d6f6469667920746865206d696e696d756d206e756d626572206f6620746f6b656e732068656c644d6f6469667920746865206d6178696d756d20706c65646765206475726174696f6ea264697066735822122030bdcceb9f5b2b22b4d1214cf7ac4ff05071ef82624616c20088318f1b6c417f64736f6c634300080a0033",
			"opcodes": "PUSH1 0x80 PUSH1 0x40 MSTORE CALLVALUE DUP1 ISZERO PUSH2 0x10 JUMPI PUSH1 0x0 DUP1 REVERT JUMPDEST POP PUSH2 0x6700 DUP1 PUSH3 0x21 PUSH1 0x0 CODECOPY PUSH1 0x0 RETURN INVALID PUSH1 0x80 PUSH1 0x40 MSTORE CALLVALUE DUP1 ISZERO PUSH2 0x10 JUMPI PUSH1 0x0 DUP1 REVERT JUMPDEST POP PUSH1 0x4 CALLDATASIZE LT PUSH2 0x158 JUMPI PUSH1 0x0 CALLDATALOAD PUSH1 0xE0 SHR DUP1 PUSH4 0x75BB5B09 GT PUSH2 0xC3 JUMPI DUP1 PUSH4 0xB8794247 GT PUSH2 0x7C JUMPI DUP1 PUSH4 0xB8794247 EQ PUSH2 0x3CF JUMPI DUP1 PUSH4 0xBCD60F6C EQ PUSH2 0x3ED JUMPI DUP1 PUSH4 0xD9AE5BD5 EQ PUSH2 0x421 JUMPI DUP1 PUSH4 0xF887EA40 EQ PUSH2 0x451 JUMPI DUP1 PUSH4 0xFC7881C6 EQ PUSH2 0x46F JUMPI DUP1 PUSH4 0xFE0D94C1 EQ PUSH2 0x48B JUMPI PUSH2 0x158 JUMP JUMPDEST DUP1 PUSH4 0x75BB5B09 EQ PUSH2 0x30D JUMPI DUP1 PUSH4 0x8129FC1C EQ PUSH2 0x32B JUMPI DUP1 PUSH4 0x82214856 EQ PUSH2 0x335 JUMPI DUP1 PUSH4 0x8D928AF8 EQ PUSH2 0x351 JUMPI DUP1 PUSH4 0x984D63F4 EQ PUSH2 0x36F JUMPI DUP1 PUSH4 0xB4EBFDBE EQ PUSH2 0x39F JUMPI PUSH2 0x158 JUMP JUMPDEST DUP1 PUSH4 0x51DAE647 GT PUSH2 0x115 JUMPI DUP1 PUSH4 0x51DAE647 EQ PUSH2 0x221 JUMPI DUP1 PUSH4 0x52538550 EQ PUSH2 0x23F JUMPI DUP1 PUSH4 0x5A42007F EQ PUSH2 0x26F JUMPI DUP1 PUSH4 0x7327DF25 EQ PUSH2 0x28D JUMPI DUP1 PUSH4 0x73569340 EQ PUSH2 0x2AB JUMPI DUP1 PUSH4 0x74786F69 EQ PUSH2 0x2DB JUMPI PUSH2 0x158 JUMP JUMPDEST DUP1 PUSH4 0x7BAA021 EQ PUSH2 0x15D JUMPI DUP1 PUSH4 0x1D75DDCC EQ PUSH2 0x179 JUMPI DUP1 PUSH4 0x2C9E3EF0 EQ PUSH2 0x197 JUMPI DUP1 PUSH4 0x321C48F2 EQ PUSH2 0x1C7 JUMPI DUP1 PUSH4 0x3B92EB23 EQ PUSH2 0x1E5 JUMPI DUP1 PUSH4 0x3FEE74D7 EQ PUSH2 0x203 JUMPI JUMPDEST PUSH1 0x0 DUP1 REVERT JUMPDEST PUSH2 0x177 PUSH1 0x4 DUP1 CALLDATASIZE SUB DUP2 ADD SWAP1 PUSH2 0x172 SWAP2 SWAP1 PUSH2 0x4CA6 JUMP JUMPDEST PUSH2 0x4A7 JUMP JUMPDEST STOP JUMPDEST PUSH2 0x181 PUSH2 0x94D JUMP JUMPDEST PUSH1 0x40 MLOAD PUSH2 0x18E SWAP2 SWAP1 PUSH2 0x4D40 JUMP JUMPDEST PUSH1 0x40 MLOAD DUP1 SWAP2 SUB SWAP1 RETURN JUMPDEST PUSH2 0x1B1 PUSH1 0x4 DUP1 CALLDATASIZE SUB DUP2 ADD SWAP1 PUSH2 0x1AC SWAP2 SWAP1 PUSH2 0x4D5B JUMP JUMPDEST PUSH2 0x953 JUMP JUMPDEST PUSH1 0x40 MLOAD PUSH2 0x1BE SWAP2 SWAP1 PUSH2 0x4DA3 JUMP JUMPDEST PUSH1 0x40 MLOAD DUP1 SWAP2 SUB SWAP1 RETURN JUMPDEST PUSH2 0x1CF PUSH2 0x973 JUMP JUMPDEST PUSH1 0x40 MLOAD PUSH2 0x1DC SWAP2 SWAP1 PUSH2 0x4F6E JUMP JUMPDEST PUSH1 0x40 MLOAD DUP1 SWAP2 SUB SWAP1 RETURN JUMPDEST PUSH2 0x1ED PUSH2 0x135A JUMP JUMPDEST PUSH1 0x40 MLOAD PUSH2 0x1FA SWAP2 SWAP1 PUSH2 0x500F JUMP JUMPDEST PUSH1 0x40 MLOAD DUP1 SWAP2 SUB SWAP1 RETURN JUMPDEST PUSH2 0x20B PUSH2 0x1380 JUMP JUMPDEST PUSH1 0x40 MLOAD PUSH2 0x218 SWAP2 SWAP1 PUSH2 0x504B JUMP JUMPDEST PUSH1 0x40 MLOAD DUP1 SWAP2 SUB SWAP1 RETURN JUMPDEST PUSH2 0x229 PUSH2 0x1417 JUMP JUMPDEST PUSH1 0x40 MLOAD PUSH2 0x236 SWAP2 SWAP1 PUSH2 0x4D40 JUMP JUMPDEST PUSH1 0x40 MLOAD DUP1 SWAP2 SUB SWAP1 RETURN JUMPDEST PUSH2 0x259 PUSH1 0x4 DUP1 CALLDATASIZE SUB DUP2 ADD SWAP1 PUSH2 0x254 SWAP2 SWAP1 PUSH2 0x4D5B JUMP JUMPDEST PUSH2 0x151C JUMP JUMPDEST PUSH1 0x40 MLOAD PUSH2 0x266 SWAP2 SWAP1 PUSH2 0x4D40 JUMP JUMPDEST PUSH1 0x40 MLOAD DUP1 SWAP2 SUB SWAP1 RETURN JUMPDEST PUSH2 0x277 PUSH2 0x1540 JUMP JUMPDEST PUSH1 0x40 MLOAD PUSH2 0x284 SWAP2 SWAP1 PUSH2 0x4D40 JUMP JUMPDEST PUSH1 0x40 MLOAD DUP1 SWAP2 SUB SWAP1 RETURN JUMPDEST PUSH2 0x295 PUSH2 0x1546 JUMP JUMPDEST PUSH1 0x40 MLOAD PUSH2 0x2A2 SWAP2 SWAP1 PUSH2 0x504B JUMP JUMPDEST PUSH1 0x40 MLOAD DUP1 SWAP2 SUB SWAP1 RETURN JUMPDEST PUSH2 0x2C5 PUSH1 0x4 DUP1 CALLDATASIZE SUB DUP2 ADD SWAP1 PUSH2 0x2C0 SWAP2 SWAP1 PUSH2 0x5066 JUMP JUMPDEST PUSH2 0x15DD JUMP JUMPDEST PUSH1 0x40 MLOAD PUSH2 0x2D2 SWAP2 SWAP1 PUSH2 0x4DA3 JUMP JUMPDEST PUSH1 0x40 MLOAD DUP1 SWAP2 SUB SWAP1 RETURN JUMPDEST PUSH2 0x2F5 PUSH1 0x4 DUP1 CALLDATASIZE SUB DUP2 ADD SWAP1 PUSH2 0x2F0 SWAP2 SWAP1 PUSH2 0x4D5B JUMP JUMPDEST PUSH2 0x1636 JUMP JUMPDEST PUSH1 0x40 MLOAD PUSH2 0x304 SWAP4 SWAP3 SWAP2 SWAP1 PUSH2 0x5128 JUMP JUMPDEST PUSH1 0x40 MLOAD DUP1 SWAP2 SUB SWAP1 RETURN JUMPDEST PUSH2 0x315 PUSH2 0x17A4 JUMP JUMPDEST PUSH1 0x40 MLOAD PUSH2 0x322 SWAP2 SWAP1 PUSH2 0x4D40 JUMP JUMPDEST PUSH1 0x40 MLOAD DUP1 SWAP2 SUB SWAP1 RETURN JUMPDEST PUSH2 0x333 PUSH2 0x17AA JUMP JUMPDEST STOP JUMPDEST PUSH2 0x34F PUSH1 0x4 DUP1 CALLDATASIZE SUB DUP2 ADD SWAP1 PUSH2 0x34A SWAP2 SWAP1 PUSH2 0x5199 JUMP JUMPDEST PUSH2 0x189F JUMP JUMPDEST STOP JUMPDEST PUSH2 0x359 PUSH2 0x2607 JUMP JUMPDEST PUSH1 0x40 MLOAD PUSH2 0x366 SWAP2 SWAP1 PUSH2 0x504B JUMP JUMPDEST PUSH1 0x40 MLOAD DUP1 SWAP2 SUB SWAP1 RETURN JUMPDEST PUSH2 0x389 PUSH1 0x4 DUP1 CALLDATASIZE SUB DUP2 ADD SWAP1 PUSH2 0x384 SWAP2 SWAP1 PUSH2 0x4D5B JUMP JUMPDEST PUSH2 0x269E JUMP JUMPDEST PUSH1 0x40 MLOAD PUSH2 0x396 SWAP2 SWAP1 PUSH2 0x4DA3 JUMP JUMPDEST PUSH1 0x40 MLOAD DUP1 SWAP2 SUB SWAP1 RETURN JUMPDEST PUSH2 0x3B9 PUSH1 0x4 DUP1 CALLDATASIZE SUB DUP2 ADD SWAP1 PUSH2 0x3B4 SWAP2 SWAP1 PUSH2 0x51D9 JUMP JUMPDEST PUSH2 0x26BE JUMP JUMPDEST PUSH1 0x40 MLOAD PUSH2 0x3C6 SWAP2 SWAP1 PUSH2 0x4D40 JUMP JUMPDEST PUSH1 0x40 MLOAD DUP1 SWAP2 SUB SWAP1 RETURN JUMPDEST PUSH2 0x3D7 PUSH2 0x2E33 JUMP JUMPDEST PUSH1 0x40 MLOAD PUSH2 0x3E4 SWAP2 SWAP1 PUSH2 0x4D40 JUMP JUMPDEST PUSH1 0x40 MLOAD DUP1 SWAP2 SUB SWAP1 RETURN JUMPDEST PUSH2 0x407 PUSH1 0x4 DUP1 CALLDATASIZE SUB DUP2 ADD SWAP1 PUSH2 0x402 SWAP2 SWAP1 PUSH2 0x4D5B JUMP JUMPDEST PUSH2 0x2F38 JUMP JUMPDEST PUSH1 0x40 MLOAD PUSH2 0x418 SWAP6 SWAP5 SWAP4 SWAP3 SWAP2 SWAP1 PUSH2 0x52A8 JUMP JUMPDEST PUSH1 0x40 MLOAD DUP1 SWAP2 SUB SWAP1 RETURN JUMPDEST PUSH2 0x43B PUSH1 0x4 DUP1 CALLDATASIZE SUB DUP2 ADD SWAP1 PUSH2 0x436 SWAP2 SWAP1 PUSH2 0x4D5B JUMP JUMPDEST PUSH2 0x2F89 JUMP JUMPDEST PUSH1 0x40 MLOAD PUSH2 0x448 SWAP2 SWAP1 PUSH2 0x4D40 JUMP JUMPDEST PUSH1 0x40 MLOAD DUP1 SWAP2 SUB SWAP1 RETURN JUMPDEST PUSH2 0x459 PUSH2 0x2FCD JUMP JUMPDEST PUSH1 0x40 MLOAD PUSH2 0x466 SWAP2 SWAP1 PUSH2 0x504B JUMP JUMPDEST PUSH1 0x40 MLOAD DUP1 SWAP2 SUB SWAP1 RETURN JUMPDEST PUSH2 0x489 PUSH1 0x4 DUP1 CALLDATASIZE SUB DUP2 ADD SWAP1 PUSH2 0x484 SWAP2 SWAP1 PUSH2 0x5327 JUMP JUMPDEST PUSH2 0x2FF1 JUMP JUMPDEST STOP JUMPDEST PUSH2 0x4A5 PUSH1 0x4 DUP1 CALLDATASIZE SUB DUP2 ADD SWAP1 PUSH2 0x4A0 SWAP2 SWAP1 PUSH2 0x4D5B JUMP JUMPDEST PUSH2 0x3531 JUMP JUMPDEST STOP JUMPDEST PUSH1 0x0 PUSH1 0x5 PUSH1 0x0 DUP6 DUP2 MSTORE PUSH1 0x20 ADD SWAP1 DUP2 MSTORE PUSH1 0x20 ADD PUSH1 0x0 KECCAK256 SWAP1 POP PUSH1 0x0 PUSH1 0x64 PUSH1 0x8 SLOAD DUP4 PUSH1 0x1 ADD SLOAD PUSH2 0x4D4 SWAP2 SWAP1 PUSH2 0x5396 JUMP JUMPDEST PUSH2 0x4DE SWAP2 SWAP1 PUSH2 0x541F JUMP JUMPDEST SWAP1 POP PUSH1 0x0 PUSH1 0x2 DUP2 GT ISZERO PUSH2 0x4F4 JUMPI PUSH2 0x4F3 PUSH2 0x5450 JUMP JUMPDEST JUMPDEST PUSH2 0x4FC PUSH2 0x2607 JUMP JUMPDEST PUSH20 0xFFFFFFFFFFFFFFFFFFFFFFFFFFFFFFFFFFFFFFFF AND PUSH4 0xD58BFA9D PUSH1 0x40 MLOAD DUP2 PUSH4 0xFFFFFFFF AND PUSH1 0xE0 SHL DUP2 MSTORE PUSH1 0x4 ADD PUSH1 0x20 PUSH1 0x40 MLOAD DUP1 DUP4 SUB DUP2 DUP7 GAS STATICCALL ISZERO DUP1 ISZERO PUSH2 0x546 JUMPI RETURNDATASIZE PUSH1 0x0 DUP1 RETURNDATACOPY RETURNDATASIZE PUSH1 0x0 REVERT JUMPDEST POP POP POP POP PUSH1 0x40 MLOAD RETURNDATASIZE PUSH1 0x1F NOT PUSH1 0x1F DUP3 ADD AND DUP3 ADD DUP1 PUSH1 0x40 MSTORE POP DUP2 ADD SWAP1 PUSH2 0x56A SWAP2 SWAP1 PUSH2 0x54A4 JUMP JUMPDEST PUSH1 0x2 DUP2 GT ISZERO PUSH2 0x57C JUMPI PUSH2 0x57B PUSH2 0x5450 JUMP JUMPDEST JUMPDEST EQ PUSH2 0x5BC JUMPI PUSH1 0x40 MLOAD PUSH32 0x8C379A000000000000000000000000000000000000000000000000000000000 DUP2 MSTORE PUSH1 0x4 ADD PUSH2 0x5B3 SWAP1 PUSH2 0x551D JUMP JUMPDEST PUSH1 0x40 MLOAD DUP1 SWAP2 SUB SWAP1 REVERT JUMPDEST DUP1 PUSH1 0x1 PUSH1 0x0 SWAP1 SLOAD SWAP1 PUSH2 0x100 EXP SWAP1 DIV PUSH20 0xFFFFFFFFFFFFFFFFFFFFFFFFFFFFFFFFFFFFFFFF AND PUSH20 0xFFFFFFFFFFFFFFFFFFFFFFFFFFFFFFFFFFFFFFFF AND PUSH4 0x98DC8378 CALLER PUSH1 0x40 MLOAD DUP3 PUSH4 0xFFFFFFFF AND PUSH1 0xE0 SHL DUP2 MSTORE PUSH1 0x4 ADD PUSH2 0x618 SWAP2 SWAP1 PUSH2 0x504B JUMP JUMPDEST PUSH1 0x20 PUSH1 0x40 MLOAD DUP1 DUP4 SUB DUP2 DUP7 GAS STATICCALL ISZERO DUP1 ISZERO PUSH2 0x635 JUMPI RETURNDATASIZE PUSH1 0x0 DUP1 RETURNDATACOPY RETURNDATASIZE PUSH1 0x0 REVERT JUMPDEST POP POP POP POP PUSH1 0x40 MLOAD RETURNDATASIZE PUSH1 0x1F NOT PUSH1 0x1F DUP3 ADD AND DUP3 ADD DUP1 PUSH1 0x40 MSTORE POP DUP2 ADD SWAP1 PUSH2 0x659 SWAP2 SWAP1 PUSH2 0x5552 JUMP JUMPDEST LT ISZERO PUSH2 0x69A JUMPI PUSH1 0x40 MLOAD PUSH32 0x8C379A000000000000000000000000000000000000000000000000000000000 DUP2 MSTORE PUSH1 0x4 ADD PUSH2 0x691 SWAP1 PUSH2 0x55CB JUMP JUMPDEST PUSH1 0x40 MLOAD DUP1 SWAP2 SUB SWAP1 REVERT JUMPDEST PUSH1 0x64 PUSH1 0x1E DUP4 PUSH1 0x1 ADD SLOAD PUSH2 0x6AD SWAP2 SWAP1 PUSH2 0x5396 JUMP JUMPDEST PUSH2 0x6B7 SWAP2 SWAP1 PUSH2 0x541F JUMP JUMPDEST DUP3 PUSH1 0x7 ADD SLOAD DUP4 PUSH1 0x8 ADD SLOAD PUSH2 0x6CB SWAP2 SWAP1 PUSH2 0x55EB JUMP JUMPDEST LT ISZERO PUSH2 0x70C JUMPI PUSH1 0x40 MLOAD PUSH32 0x8C379A000000000000000000000000000000000000000000000000000000000 DUP2 MSTORE PUSH1 0x4 ADD PUSH2 0x703 SWAP1 PUSH2 0x568D JUMP JUMPDEST PUSH1 0x40 MLOAD DUP1 SWAP2 SUB SWAP1 REVERT JUMPDEST PUSH1 0x3C DUP3 PUSH1 0x7 ADD SLOAD DUP4 PUSH1 0x8 ADD SLOAD PUSH2 0x722 SWAP2 SWAP1 PUSH2 0x55EB JUMP JUMPDEST PUSH1 0x64 DUP5 PUSH1 0x7 ADD SLOAD PUSH2 0x733 SWAP2 SWAP1 PUSH2 0x5396 JUMP JUMPDEST PUSH2 0x73D SWAP2 SWAP1 PUSH2 0x541F JUMP JUMPDEST LT ISZERO PUSH2 0x77E JUMPI PUSH1 0x40 MLOAD PUSH32 0x8C379A000000000000000000000000000000000000000000000000000000000 DUP2 MSTORE PUSH1 0x4 ADD PUSH2 0x775 SWAP1 PUSH2 0x571F JUMP JUMPDEST PUSH1 0x40 MLOAD DUP1 SWAP2 SUB SWAP1 REVERT JUMPDEST DUP2 PUSH1 0x3 ADD SLOAD TIMESTAMP LT ISZERO DUP1 ISZERO PUSH2 0x7A1 JUMPI POP PUSH1 0xB4 DUP3 PUSH1 0x3 ADD SLOAD PUSH2 0x79E SWAP2 SWAP1 PUSH2 0x55EB JUMP JUMPDEST TIMESTAMP LT JUMPDEST PUSH2 0x7E0 JUMPI PUSH1 0x40 MLOAD PUSH32 0x8C379A000000000000000000000000000000000000000000000000000000000 DUP2 MSTORE PUSH1 0x4 ADD PUSH2 0x7D7 SWAP1 PUSH2 0x578B JUMP JUMPDEST PUSH1 0x40 MLOAD DUP1 SWAP2 SUB SWAP1 REVERT JUMPDEST PUSH1 0x1 PUSH1 0x6 DUP2 GT ISZERO PUSH2 0x7F4 JUMPI PUSH2 0x7F3 PUSH2 0x5450 JUMP JUMPDEST JUMPDEST DUP3 PUSH1 0x9 ADD PUSH1 0x0 SWAP1 SLOAD SWAP1 PUSH2 0x100 EXP SWAP1 DIV PUSH1 0xFF AND PUSH1 0x6 DUP2 GT ISZERO PUSH2 0x818 JUMPI PUSH2 0x817 PUSH2 0x5450 JUMP JUMPDEST JUMPDEST EQ PUSH2 0x858 JUMPI PUSH1 0x40 MLOAD PUSH32 0x8C379A000000000000000000000000000000000000000000000000000000000 DUP2 MSTORE PUSH1 0x4 ADD PUSH2 0x84F SWAP1 PUSH2 0x57F7 JUMP JUMPDEST PUSH1 0x40 MLOAD DUP1 SWAP2 SUB SWAP1 REVERT JUMPDEST PUSH1 0x5 DUP3 PUSH1 0x9 ADD PUSH1 0x0 PUSH2 0x100 EXP DUP2 SLOAD DUP2 PUSH1 0xFF MUL NOT AND SWAP1 DUP4 PUSH1 0x6 DUP2 GT ISZERO PUSH2 0x880 JUMPI PUSH2 0x87F PUSH2 0x5450 JUMP JUMPDEST JUMPDEST MUL OR SWAP1 SSTORE POP DUP4 DUP3 PUSH1 0xD ADD PUSH1 0x1 ADD SWAP1 DUP1 MLOAD SWAP1 PUSH1 0x20 ADD SWAP1 PUSH2 0x8A0 SWAP3 SWAP2 SWAP1 PUSH2 0x4A52 JUMP JUMPDEST POP CALLER DUP3 PUSH1 0xD ADD PUSH1 0x0 ADD PUSH1 0x0 PUSH2 0x100 EXP DUP2 SLOAD DUP2 PUSH20 0xFFFFFFFFFFFFFFFFFFFFFFFFFFFFFFFFFFFFFFFF MUL NOT AND SWAP1 DUP4 PUSH20 0xFFFFFFFFFFFFFFFFFFFFFFFFFFFFFFFFFFFFFFFF AND MUL OR SWAP1 SSTORE POP PUSH1 0xB4 TIMESTAMP PUSH2 0x8F4 SWAP2 SWAP1 PUSH2 0x55EB JUMP JUMPDEST DUP3 PUSH1 0x3 ADD DUP2 SWAP1 SSTORE POP DUP5 PUSH32 0xE44551D6DBB27FD09D0C3752688C148EA06AB580843D77798ECE2CF2B3D13F35 CALLER DUP7 PUSH1 0xB4 TIMESTAMP PUSH2 0x92D SWAP2 SWAP1 PUSH2 0x55EB JUMP JUMPDEST DUP8 PUSH1 0x40 MLOAD PUSH2 0x93E SWAP5 SWAP4 SWAP3 SWAP2 SWAP1 PUSH2 0x5817 JUMP JUMPDEST PUSH1 0x40 MLOAD DUP1 SWAP2 SUB SWAP1 LOG2 POP POP POP POP POP JUMP JUMPDEST PUSH1 0x8 SLOAD DUP2 JUMP JUMPDEST PUSH1 0x7 PUSH1 0x20 MSTORE DUP1 PUSH1 0x0 MSTORE PUSH1 0x40 PUSH1 0x0 KECCAK256 PUSH1 0x0 SWAP2 POP SLOAD SWAP1 PUSH2 0x100 EXP SWAP1 DIV PUSH1 0xFF AND DUP2 JUMP JUMPDEST PUSH1 0x60 PUSH1 0x0 PUSH1 0x5 PUSH8 0xFFFFFFFFFFFFFFFF DUP2 GT ISZERO PUSH2 0x992 JUMPI PUSH2 0x991 PUSH2 0x4B7B JUMP JUMPDEST JUMPDEST PUSH1 0x40 MLOAD SWAP1 DUP1 DUP3 MSTORE DUP1 PUSH1 0x20 MUL PUSH1 0x20 ADD DUP3 ADD PUSH1 0x40 MSTORE DUP1 ISZERO PUSH2 0x9CB JUMPI DUP2 PUSH1 0x20 ADD JUMPDEST PUSH2 0x9B8 PUSH2 0x4AD8 JUMP JUMPDEST DUP2 MSTORE PUSH1 0x20 ADD SWAP1 PUSH1 0x1 SWAP1 SUB SWAP1 DUP2 PUSH2 0x9B0 JUMPI SWAP1 POP JUMPDEST POP SWAP1 POP PUSH1 0x0 PUSH1 0x6 PUSH1 0x0 DUP1 DUP2 MSTORE PUSH1 0x20 ADD SWAP1 DUP2 MSTORE PUSH1 0x20 ADD PUSH1 0x0 KECCAK256 PUSH1 0x40 MLOAD DUP1 PUSH1 0x60 ADD PUSH1 0x40 MSTORE SWAP1 DUP2 PUSH1 0x0 DUP3 ADD SLOAD DUP2 MSTORE PUSH1 0x20 ADD PUSH1 0x1 DUP3 ADD DUP1 SLOAD PUSH2 0xA08 SWAP1 PUSH2 0x5899 JUMP JUMPDEST DUP1 PUSH1 0x1F ADD PUSH1 0x20 DUP1 SWAP2 DIV MUL PUSH1 0x20 ADD PUSH1 0x40 MLOAD SWAP1 DUP2 ADD PUSH1 0x40 MSTORE DUP1 SWAP3 SWAP2 SWAP1 DUP2 DUP2 MSTORE PUSH1 0x20 ADD DUP3 DUP1 SLOAD PUSH2 0xA34 SWAP1 PUSH2 0x5899 JUMP JUMPDEST DUP1 ISZERO PUSH2 0xA81 JUMPI DUP1 PUSH1 0x1F LT PUSH2 0xA56 JUMPI PUSH2 0x100 DUP1 DUP4 SLOAD DIV MUL DUP4 MSTORE SWAP2 PUSH1 0x20 ADD SWAP2 PUSH2 0xA81 JUMP JUMPDEST DUP3 ADD SWAP2 SWAP1 PUSH1 0x0 MSTORE PUSH1 0x20 PUSH1 0x0 KECCAK256 SWAP1 JUMPDEST DUP2 SLOAD DUP2 MSTORE SWAP1 PUSH1 0x1 ADD SWAP1 PUSH1 0x20 ADD DUP1 DUP4 GT PUSH2 0xA64 JUMPI DUP3 SWAP1 SUB PUSH1 0x1F AND DUP3 ADD SWAP2 JUMPDEST POP POP POP POP POP DUP2 MSTORE PUSH1 0x20 ADD PUSH1 0x2 DUP3 ADD DUP1 SLOAD PUSH2 0xA9A SWAP1 PUSH2 0x5899 JUMP JUMPDEST DUP1 PUSH1 0x1F ADD PUSH1 0x20 DUP1 SWAP2 DIV MUL PUSH1 0x20 ADD PUSH1 0x40 MLOAD SWAP1 DUP2 ADD PUSH1 0x40 MSTORE DUP1 SWAP3 SWAP2 SWAP1 DUP2 DUP2 MSTORE PUSH1 0x20 ADD DUP3 DUP1 SLOAD PUSH2 0xAC6 SWAP1 PUSH2 0x5899 JUMP JUMPDEST DUP1 ISZERO PUSH2 0xB13 JUMPI DUP1 PUSH1 0x1F LT PUSH2 0xAE8 JUMPI PUSH2 0x100 DUP1 DUP4 SLOAD DIV MUL DUP4 MSTORE SWAP2 PUSH1 0x20 ADD SWAP2 PUSH2 0xB13 JUMP JUMPDEST DUP3 ADD SWAP2 SWAP1 PUSH1 0x0 MSTORE PUSH1 0x20 PUSH1 0x0 KECCAK256 SWAP1 JUMPDEST DUP2 SLOAD DUP2 MSTORE SWAP1 PUSH1 0x1 ADD SWAP1 PUSH1 0x20 ADD DUP1 DUP4 GT PUSH2 0xAF6 JUMPI DUP3 SWAP1 SUB PUSH1 0x1F AND DUP3 ADD SWAP2 JUMPDEST POP POP POP POP POP DUP2 MSTORE POP POP SWAP1 POP PUSH1 0x1 DUP2 PUSH1 0x0 ADD DUP2 DUP2 MSTORE POP POP PUSH1 0x40 MLOAD DUP1 PUSH1 0x40 ADD PUSH1 0x40 MSTORE DUP1 PUSH1 0x12 DUP2 MSTORE PUSH1 0x20 ADD PUSH32 0x7365744D696E696D756D5175616E746974790000000000000000000000000000 DUP2 MSTORE POP DUP2 PUSH1 0x40 ADD DUP2 SWAP1 MSTORE POP PUSH1 0x40 MLOAD DUP1 PUSH1 0x60 ADD PUSH1 0x40 MSTORE DUP1 PUSH1 0x28 DUP2 MSTORE PUSH1 0x20 ADD PUSH2 0x6681 PUSH1 0x28 SWAP2 CODECOPY DUP2 PUSH1 0x20 ADD DUP2 SWAP1 MSTORE POP PUSH1 0x0 PUSH1 0x6 PUSH1 0x0 PUSH1 0x1 DUP2 MSTORE PUSH1 0x20 ADD SWAP1 DUP2 MSTORE PUSH1 0x20 ADD PUSH1 0x0 KECCAK256 PUSH1 0x40 MLOAD DUP1 PUSH1 0x60 ADD PUSH1 0x40 MSTORE SWAP1 DUP2 PUSH1 0x0 DUP3 ADD SLOAD DUP2 MSTORE PUSH1 0x20 ADD PUSH1 0x1 DUP3 ADD DUP1 SLOAD PUSH2 0xBC3 SWAP1 PUSH2 0x5899 JUMP JUMPDEST DUP1 PUSH1 0x1F ADD PUSH1 0x20 DUP1 SWAP2 DIV MUL PUSH1 0x20 ADD PUSH1 0x40 MLOAD SWAP1 DUP2 ADD PUSH1 0x40 MSTORE DUP1 SWAP3 SWAP2 SWAP1 DUP2 DUP2 MSTORE PUSH1 0x20 ADD DUP3 DUP1 SLOAD PUSH2 0xBEF SWAP1 PUSH2 0x5899 JUMP JUMPDEST DUP1 ISZERO PUSH2 0xC3C JUMPI DUP1 PUSH1 0x1F LT PUSH2 0xC11 JUMPI PUSH2 0x100 DUP1 DUP4 SLOAD DIV MUL DUP4 MSTORE SWAP2 PUSH1 0x20 ADD SWAP2 PUSH2 0xC3C JUMP JUMPDEST DUP3 ADD SWAP2 SWAP1 PUSH1 0x0 MSTORE PUSH1 0x20 PUSH1 0x0 KECCAK256 SWAP1 JUMPDEST DUP2 SLOAD DUP2 MSTORE SWAP1 PUSH1 0x1 ADD SWAP1 PUSH1 0x20 ADD DUP1 DUP4 GT PUSH2 0xC1F JUMPI DUP3 SWAP1 SUB PUSH1 0x1F AND DUP3 ADD SWAP2 JUMPDEST POP POP POP POP POP DUP2 MSTORE PUSH1 0x20 ADD PUSH1 0x2 DUP3 ADD DUP1 SLOAD PUSH2 0xC55 SWAP1 PUSH2 0x5899 JUMP JUMPDEST DUP1 PUSH1 0x1F ADD PUSH1 0x20 DUP1 SWAP2 DIV MUL PUSH1 0x20 ADD PUSH1 0x40 MLOAD SWAP1 DUP2 ADD PUSH1 0x40 MSTORE DUP1 SWAP3 SWAP2 SWAP1 DUP2 DUP2 MSTORE PUSH1 0x20 ADD DUP3 DUP1 SLOAD PUSH2 0xC81 SWAP1 PUSH2 0x5899 JUMP JUMPDEST DUP1 ISZERO PUSH2 0xCCE JUMPI DUP1 PUSH1 0x1F LT PUSH2 0xCA3 JUMPI PUSH2 0x100 DUP1 DUP4 SLOAD DIV MUL DUP4 MSTORE SWAP2 PUSH1 0x20 ADD SWAP2 PUSH2 0xCCE JUMP JUMPDEST DUP3 ADD SWAP2 SWAP1 PUSH1 0x0 MSTORE PUSH1 0x20 PUSH1 0x0 KECCAK256 SWAP1 JUMPDEST DUP2 SLOAD DUP2 MSTORE SWAP1 PUSH1 0x1 ADD SWAP1 PUSH1 0x20 ADD DUP1 DUP4 GT PUSH2 0xCB1 JUMPI DUP3 SWAP1 SUB PUSH1 0x1F AND DUP3 ADD SWAP2 JUMPDEST POP POP POP POP POP DUP2 MSTORE POP POP SWAP1 POP PUSH1 0x2 DUP2 PUSH1 0x0 ADD DUP2 DUP2 MSTORE POP POP PUSH1 0x40 MLOAD DUP1 PUSH1 0x40 ADD PUSH1 0x40 MSTORE DUP1 PUSH1 0x17 DUP2 MSTORE PUSH1 0x20 ADD PUSH32 0x7570646174654D6178506C656467654475726174696F6E000000000000000000 DUP2 MSTORE POP DUP2 PUSH1 0x40 ADD DUP2 SWAP1 MSTORE POP PUSH1 0x40 MLOAD DUP1 PUSH1 0x60 ADD PUSH1 0x40 MSTORE DUP1 PUSH1 0x22 DUP2 MSTORE PUSH1 0x20 ADD PUSH2 0x66A9 PUSH1 0x22 SWAP2 CODECOPY DUP2 PUSH1 0x20 ADD DUP2 SWAP1 MSTORE POP PUSH1 0x0 PUSH1 0x6 PUSH1 0x0 PUSH1 0x2 DUP2 MSTORE PUSH1 0x20 ADD SWAP1 DUP2 MSTORE PUSH1 0x20 ADD PUSH1 0x0 KECCAK256 PUSH1 0x40 MLOAD DUP1 PUSH1 0x60 ADD PUSH1 0x40 MSTORE SWAP1 DUP2 PUSH1 0x0 DUP3 ADD SLOAD DUP2 MSTORE PUSH1 0x20 ADD PUSH1 0x1 DUP3 ADD DUP1 SLOAD PUSH2 0xD7E SWAP1 PUSH2 0x5899 JUMP JUMPDEST DUP1 PUSH1 0x1F ADD PUSH1 0x20 DUP1 SWAP2 DIV MUL PUSH1 0x20 ADD PUSH1 0x40 MLOAD SWAP1 DUP2 ADD PUSH1 0x40 MSTORE DUP1 SWAP3 SWAP2 SWAP1 DUP2 DUP2 MSTORE PUSH1 0x20 ADD DUP3 DUP1 SLOAD PUSH2 0xDAA SWAP1 PUSH2 0x5899 JUMP JUMPDEST DUP1 ISZERO PUSH2 0xDF7 JUMPI DUP1 PUSH1 0x1F LT PUSH2 0xDCC JUMPI PUSH2 0x100 DUP1 DUP4 SLOAD DIV MUL DUP4 MSTORE SWAP2 PUSH1 0x20 ADD SWAP2 PUSH2 0xDF7 JUMP JUMPDEST DUP3 ADD SWAP2 SWAP1 PUSH1 0x0 MSTORE PUSH1 0x20 PUSH1 0x0 KECCAK256 SWAP1 JUMPDEST DUP2 SLOAD DUP2 MSTORE SWAP1 PUSH1 0x1 ADD SWAP1 PUSH1 0x20 ADD DUP1 DUP4 GT PUSH2 0xDDA JUMPI DUP3 SWAP1 SUB PUSH1 0x1F AND DUP3 ADD SWAP2 JUMPDEST POP POP POP POP POP DUP2 MSTORE PUSH1 0x20 ADD PUSH1 0x2 DUP3 ADD DUP1 SLOAD PUSH2 0xE10 SWAP1 PUSH2 0x5899 JUMP JUMPDEST DUP1 PUSH1 0x1F ADD PUSH1 0x20 DUP1 SWAP2 DIV MUL PUSH1 0x20 ADD PUSH1 0x40 MLOAD SWAP1 DUP2 ADD PUSH1 0x40 MSTORE DUP1 SWAP3 SWAP2 SWAP1 DUP2 DUP2 MSTORE PUSH1 0x20 ADD DUP3 DUP1 SLOAD PUSH2 0xE3C SWAP1 PUSH2 0x5899 JUMP JUMPDEST DUP1 ISZERO PUSH2 0xE89 JUMPI DUP1 PUSH1 0x1F LT PUSH2 0xE5E JUMPI PUSH2 0x100 DUP1 DUP4 SLOAD DIV MUL DUP4 MSTORE SWAP2 PUSH1 0x20 ADD SWAP2 PUSH2 0xE89 JUMP JUMPDEST DUP3 ADD SWAP2 SWAP1 PUSH1 0x0 MSTORE PUSH1 0x20 PUSH1 0x0 KECCAK256 SWAP1 JUMPDEST DUP2 SLOAD DUP2 MSTORE SWAP1 PUSH1 0x1 ADD SWAP1 PUSH1 0x20 ADD DUP1 DUP4 GT PUSH2 0xE6C JUMPI DUP3 SWAP1 SUB PUSH1 0x1F AND DUP3 ADD SWAP2 JUMPDEST POP POP POP POP POP DUP2 MSTORE POP POP SWAP1 POP PUSH1 0x3 DUP2 PUSH1 0x0 ADD DUP2 DUP2 MSTORE POP POP PUSH1 0x40 MLOAD DUP1 PUSH1 0x40 ADD PUSH1 0x40 MSTORE DUP1 PUSH1 0x17 DUP2 MSTORE PUSH1 0x20 ADD PUSH32 0x7570646174654D61785265776172644475726174696F6E000000000000000000 DUP2 MSTORE POP DUP2 PUSH1 0x40 ADD DUP2 SWAP1 MSTORE POP PUSH1 0x40 MLOAD DUP1 PUSH1 0x40 ADD PUSH1 0x40 MSTORE DUP1 PUSH1 0x18 DUP2 MSTORE PUSH1 0x20 ADD PUSH32 0x4D6F646966792074686520506C65646765207265776172640000000000000000 DUP2 MSTORE POP DUP2 PUSH1 0x20 ADD DUP2 SWAP1 MSTORE POP PUSH1 0x0 PUSH1 0x6 PUSH1 0x0 PUSH1 0x3 DUP2 MSTORE PUSH1 0x20 ADD SWAP1 DUP2 MSTORE PUSH1 0x20 ADD PUSH1 0x0 KECCAK256 PUSH1 0x40 MLOAD DUP1 PUSH1 0x60 ADD PUSH1 0x40 MSTORE SWAP1 DUP2 PUSH1 0x0 DUP3 ADD SLOAD DUP2 MSTORE PUSH1 0x20 ADD PUSH1 0x1 DUP3 ADD DUP1 SLOAD PUSH2 0xF56 SWAP1 PUSH2 0x5899 JUMP JUMPDEST DUP1 PUSH1 0x1F ADD PUSH1 0x20 DUP1 SWAP2 DIV MUL PUSH1 0x20 ADD PUSH1 0x40 MLOAD SWAP1 DUP2 ADD PUSH1 0x40 MSTORE DUP1 SWAP3 SWAP2 SWAP1 DUP2 DUP2 MSTORE PUSH1 0x20 ADD DUP3 DUP1 SLOAD PUSH2 0xF82 SWAP1 PUSH2 0x5899 JUMP JUMPDEST DUP1 ISZERO PUSH2 0xFCF JUMPI DUP1 PUSH1 0x1F LT PUSH2 0xFA4 JUMPI PUSH2 0x100 DUP1 DUP4 SLOAD DIV MUL DUP4 MSTORE SWAP2 PUSH1 0x20 ADD SWAP2 PUSH2 0xFCF JUMP JUMPDEST DUP3 ADD SWAP2 SWAP1 PUSH1 0x0 MSTORE PUSH1 0x20 PUSH1 0x0 KECCAK256 SWAP1 JUMPDEST DUP2 SLOAD DUP2 MSTORE SWAP1 PUSH1 0x1 ADD SWAP1 PUSH1 0x20 ADD DUP1 DUP4 GT PUSH2 0xFB2 JUMPI DUP3 SWAP1 SUB PUSH1 0x1F AND DUP3 ADD SWAP2 JUMPDEST POP POP POP POP POP DUP2 MSTORE PUSH1 0x20 ADD PUSH1 0x2 DUP3 ADD DUP1 SLOAD PUSH2 0xFE8 SWAP1 PUSH2 0x5899 JUMP JUMPDEST DUP1 PUSH1 0x1F ADD PUSH1 0x20 DUP1 SWAP2 DIV MUL PUSH1 0x20 ADD PUSH1 0x40 MLOAD SWAP1 DUP2 ADD PUSH1 0x40 MSTORE DUP1 SWAP3 SWAP2 SWAP1 DUP2 DUP2 MSTORE PUSH1 0x20 ADD DUP3 DUP1 SLOAD PUSH2 0x1014 SWAP1 PUSH2 0x5899 JUMP JUMPDEST DUP1 ISZERO PUSH2 0x1061 JUMPI DUP1 PUSH1 0x1F LT PUSH2 0x1036 JUMPI PUSH2 0x100 DUP1 DUP4 SLOAD DIV MUL DUP4 MSTORE SWAP2 PUSH1 0x20 ADD SWAP2 PUSH2 0x1061 JUMP JUMPDEST DUP3 ADD SWAP2 SWAP1 PUSH1 0x0 MSTORE PUSH1 0x20 PUSH1 0x0 KECCAK256 SWAP1 JUMPDEST DUP2 SLOAD DUP2 MSTORE SWAP1 PUSH1 0x1 ADD SWAP1 PUSH1 0x20 ADD DUP1 DUP4 GT PUSH2 0x1044 JUMPI DUP3 SWAP1 SUB PUSH1 0x1F AND DUP3 ADD SWAP2 JUMPDEST POP POP POP POP POP DUP2 MSTORE POP POP SWAP1 POP PUSH1 0x4 DUP2 PUSH1 0x0 ADD DUP2 DUP2 MSTORE POP POP PUSH1 0x40 MLOAD DUP1 PUSH1 0x40 ADD PUSH1 0x40 MSTORE DUP1 PUSH1 0xE DUP2 MSTORE PUSH1 0x20 ADD PUSH32 0x757064617465436F6E7472616374000000000000000000000000000000000000 DUP2 MSTORE POP DUP2 PUSH1 0x40 ADD DUP2 SWAP1 MSTORE POP PUSH1 0x40 MLOAD DUP1 PUSH1 0x60 ADD PUSH1 0x40 MSTORE DUP1 PUSH1 0x24 DUP2 MSTORE PUSH1 0x20 ADD PUSH2 0x665D PUSH1 0x24 SWAP2 CODECOPY DUP2 PUSH1 0x20 ADD DUP2 SWAP1 MSTORE POP PUSH1 0x0 PUSH1 0x6 PUSH1 0x0 PUSH1 0x4 DUP2 MSTORE PUSH1 0x20 ADD SWAP1 DUP2 MSTORE PUSH1 0x20 ADD PUSH1 0x0 KECCAK256 PUSH1 0x40 MLOAD DUP1 PUSH1 0x60 ADD PUSH1 0x40 MSTORE SWAP1 DUP2 PUSH1 0x0 DUP3 ADD SLOAD DUP2 MSTORE PUSH1 0x20 ADD PUSH1 0x1 DUP3 ADD DUP1 SLOAD PUSH2 0x1111 SWAP1 PUSH2 0x5899 JUMP JUMPDEST DUP1 PUSH1 0x1F ADD PUSH1 0x20 DUP1 SWAP2 DIV MUL PUSH1 0x20 ADD PUSH1 0x40 MLOAD SWAP1 DUP2 ADD PUSH1 0x40 MSTORE DUP1 SWAP3 SWAP2 SWAP1 DUP2 DUP2 MSTORE PUSH1 0x20 ADD DUP3 DUP1 SLOAD PUSH2 0x113D SWAP1 PUSH2 0x5899 JUMP JUMPDEST DUP1 ISZERO PUSH2 0x118A JUMPI DUP1 PUSH1 0x1F LT PUSH2 0x115F JUMPI PUSH2 0x100 DUP1 DUP4 SLOAD DIV MUL DUP4 MSTORE SWAP2 PUSH1 0x20 ADD SWAP2 PUSH2 0x118A JUMP JUMPDEST DUP3 ADD SWAP2 SWAP1 PUSH1 0x0 MSTORE PUSH1 0x20 PUSH1 0x0 KECCAK256 SWAP1 JUMPDEST DUP2 SLOAD DUP2 MSTORE SWAP1 PUSH1 0x1 ADD SWAP1 PUSH1 0x20 ADD DUP1 DUP4 GT PUSH2 0x116D JUMPI DUP3 SWAP1 SUB PUSH1 0x1F AND DUP3 ADD SWAP2 JUMPDEST POP POP POP POP POP DUP2 MSTORE PUSH1 0x20 ADD PUSH1 0x2 DUP3 ADD DUP1 SLOAD PUSH2 0x11A3 SWAP1 PUSH2 0x5899 JUMP JUMPDEST DUP1 PUSH1 0x1F ADD PUSH1 0x20 DUP1 SWAP2 DIV MUL PUSH1 0x20 ADD PUSH1 0x40 MLOAD SWAP1 DUP2 ADD PUSH1 0x40 MSTORE DUP1 SWAP3 SWAP2 SWAP1 DUP2 DUP2 MSTORE PUSH1 0x20 ADD DUP3 DUP1 SLOAD PUSH2 0x11CF SWAP1 PUSH2 0x5899 JUMP JUMPDEST DUP1 ISZERO PUSH2 0x121C JUMPI DUP1 PUSH1 0x1F LT PUSH2 0x11F1 JUMPI PUSH2 0x100 DUP1 DUP4 SLOAD DIV MUL DUP4 MSTORE SWAP2 PUSH1 0x20 ADD SWAP2 PUSH2 0x121C JUMP JUMPDEST DUP3 ADD SWAP2 SWAP1 PUSH1 0x0 MSTORE PUSH1 0x20 PUSH1 0x0 KECCAK256 SWAP1 JUMPDEST DUP2 SLOAD DUP2 MSTORE SWAP1 PUSH1 0x1 ADD SWAP1 PUSH1 0x20 ADD DUP1 DUP4 GT PUSH2 0x11FF JUMPI DUP3 SWAP1 SUB PUSH1 0x1F AND DUP3 ADD SWAP2 JUMPDEST POP POP POP POP POP DUP2 MSTORE POP POP SWAP1 POP PUSH1 0x5 DUP2 PUSH1 0x0 ADD DUP2 DUP2 MSTORE POP POP PUSH1 0x40 MLOAD DUP1 PUSH1 0x40 ADD PUSH1 0x40 MSTORE DUP1 PUSH1 0x8 DUP2 MSTORE PUSH1 0x20 ADD PUSH32 0x7365745072696365000000000000000000000000000000000000000000000000 DUP2 MSTORE POP DUP2 PUSH1 0x40 ADD DUP2 SWAP1 MSTORE POP PUSH1 0x40 MLOAD DUP1 PUSH1 0x40 ADD PUSH1 0x40 MSTORE DUP1 PUSH1 0x1C DUP2 MSTORE PUSH1 0x20 ADD PUSH32 0x757064617465207072696365206F6620656E74697265207661756C7400000000 DUP2 MSTORE POP DUP2 PUSH1 0x20 ADD DUP2 SWAP1 MSTORE POP DUP5 DUP7 PUSH1 0x0 DUP2 MLOAD DUP2 LT PUSH2 0x12C3 JUMPI PUSH2 0x12C2 PUSH2 0x58CB JUMP JUMPDEST JUMPDEST PUSH1 0x20 MUL PUSH1 0x20 ADD ADD DUP2 SWAP1 MSTORE POP DUP4 DUP7 PUSH1 0x1 DUP2 MLOAD DUP2 LT PUSH2 0x12E3 JUMPI PUSH2 0x12E2 PUSH2 0x58CB JUMP JUMPDEST JUMPDEST PUSH1 0x20 MUL PUSH1 0x20 ADD ADD DUP2 SWAP1 MSTORE POP DUP3 DUP7 PUSH1 0x2 DUP2 MLOAD DUP2 LT PUSH2 0x1303 JUMPI PUSH2 0x1302 PUSH2 0x58CB JUMP JUMPDEST JUMPDEST PUSH1 0x20 MUL PUSH1 0x20 ADD ADD DUP2 SWAP1 MSTORE POP DUP2 DUP7 PUSH1 0x3 DUP2 MLOAD DUP2 LT PUSH2 0x1323 JUMPI PUSH2 0x1322 PUSH2 0x58CB JUMP JUMPDEST JUMPDEST PUSH1 0x20 MUL PUSH1 0x20 ADD ADD DUP2 SWAP1 MSTORE POP DUP1 DUP7 PUSH1 0x4 DUP2 MLOAD DUP2 LT PUSH2 0x1343 JUMPI PUSH2 0x1342 PUSH2 0x58CB JUMP JUMPDEST JUMPDEST PUSH1 0x20 MUL PUSH1 0x20 ADD ADD DUP2 SWAP1 MSTORE POP DUP6 SWAP7 POP POP POP POP POP POP POP SWAP1 JUMP JUMPDEST PUSH1 0x1 PUSH1 0x0 SWAP1 SLOAD SWAP1 PUSH2 0x100 EXP SWAP1 DIV PUSH20 0xFFFFFFFFFFFFFFFFFFFFFFFFFFFFFFFFFFFFFFFF AND DUP2 JUMP JUMPDEST PUSH1 0x0 DUP1 PUSH1 0x0 SWAP1 SLOAD SWAP1 PUSH2 0x100 EXP SWAP1 DIV PUSH20 0xFFFFFFFFFFFFFFFFFFFFFFFFFFFFFFFFFFFFFFFF AND PUSH20 0xFFFFFFFFFFFFFFFFFFFFFFFFFFFFFFFFFFFFFFFF AND PUSH4 0x3B92EB23 PUSH1 0x40 MLOAD DUP2 PUSH4 0xFFFFFFFF AND PUSH1 0xE0 SHL DUP2 MSTORE PUSH1 0x4 ADD PUSH1 0x20 PUSH1 0x40 MLOAD DUP1 DUP4 SUB DUP2 DUP7 GAS STATICCALL ISZERO DUP1 ISZERO PUSH2 0x13EE JUMPI RETURNDATASIZE PUSH1 0x0 DUP1 RETURNDATACOPY RETURNDATASIZE PUSH1 0x0 REVERT JUMPDEST POP POP POP POP PUSH1 0x40 MLOAD RETURNDATASIZE PUSH1 0x1F NOT PUSH1 0x1F DUP3 ADD AND DUP3 ADD DUP1 PUSH1 0x40 MSTORE POP DUP2 ADD SWAP1 PUSH2 0x1412 SWAP2 SWAP1 PUSH2 0x590F JUMP JUMPDEST SWAP1 POP SWAP1 JUMP JUMPDEST PUSH1 0x0 DUP1 PUSH1 0x0 SWAP1 SLOAD SWAP1 PUSH2 0x100 EXP SWAP1 DIV PUSH20 0xFFFFFFFFFFFFFFFFFFFFFFFFFFFFFFFFFFFFFFFF AND PUSH20 0xFFFFFFFFFFFFFFFFFFFFFFFFFFFFFFFFFFFFFFFF AND PUSH4 0x3205F5FC PUSH1 0x40 MLOAD DUP2 PUSH4 0xFFFFFFFF AND PUSH1 0xE0 SHL DUP2 MSTORE PUSH1 0x4 ADD PUSH1 0x20 PUSH1 0x40 MLOAD DUP1 DUP4 SUB DUP2 DUP7 GAS STATICCALL ISZERO DUP1 ISZERO PUSH2 0x1485 JUMPI RETURNDATASIZE PUSH1 0x0 DUP1 RETURNDATACOPY RETURNDATASIZE PUSH1 0x0 REVERT JUMPDEST POP POP POP POP PUSH1 0x40 MLOAD RETURNDATASIZE PUSH1 0x1F NOT PUSH1 0x1F DUP3 ADD AND DUP3 ADD DUP1 PUSH1 0x40 MSTORE POP DUP2 ADD SWAP1 PUSH2 0x14A9 SWAP2 SWAP1 PUSH2 0x590F JUMP JUMPDEST PUSH20 0xFFFFFFFFFFFFFFFFFFFFFFFFFFFFFFFFFFFFFFFF AND PUSH4 0x18160DDD PUSH1 0x40 MLOAD DUP2 PUSH4 0xFFFFFFFF AND PUSH1 0xE0 SHL DUP2 MSTORE PUSH1 0x4 ADD PUSH1 0x20 PUSH1 0x40 MLOAD DUP1 DUP4 SUB DUP2 DUP7 GAS STATICCALL ISZERO DUP1 ISZERO PUSH2 0x14F3 JUMPI RETURNDATASIZE PUSH1 0x0 DUP1 RETURNDATACOPY RETURNDATASIZE PUSH1 0x0 REVERT JUMPDEST POP POP POP POP PUSH1 0x40 MLOAD RETURNDATASIZE PUSH1 0x1F NOT PUSH1 0x1F DUP3 ADD AND DUP3 ADD DUP1 PUSH1 0x40 MSTORE POP DUP2 ADD SWAP1 PUSH2 0x1517 SWAP2 SWAP1 PUSH2 0x5552 JUMP JUMPDEST SWAP1 POP SWAP1 JUMP JUMPDEST PUSH1 0x3 DUP2 DUP2 SLOAD DUP2 LT PUSH2 0x152C JUMPI PUSH1 0x0 DUP1 REVERT JUMPDEST SWAP1 PUSH1 0x0 MSTORE PUSH1 0x20 PUSH1 0x0 KECCAK256 ADD PUSH1 0x0 SWAP2 POP SWAP1 POP SLOAD DUP2 JUMP JUMPDEST PUSH1 0x4 SLOAD DUP2 JUMP JUMPDEST PUSH1 0x0 DUP1 PUSH1 0x0 SWAP1 SLOAD SWAP1 PUSH2 0x100 EXP SWAP1 DIV PUSH20 0xFFFFFFFFFFFFFFFFFFFFFFFFFFFFFFFFFFFFFFFF AND PUSH20 0xFFFFFFFFFFFFFFFFFFFFFFFFFFFFFFFFFFFFFFFF AND PUSH4 0x7D9F6DB5 PUSH1 0x40 MLOAD DUP2 PUSH4 0xFFFFFFFF AND PUSH1 0xE0 SHL DUP2 MSTORE PUSH1 0x4 ADD PUSH1 0x20 PUSH1 0x40 MLOAD DUP1 DUP4 SUB DUP2 DUP7 GAS STATICCALL ISZERO DUP1 ISZERO PUSH2 0x15B4 JUMPI RETURNDATASIZE PUSH1 0x0 DUP1 RETURNDATACOPY RETURNDATASIZE PUSH1 0x0 REVERT JUMPDEST POP POP POP POP PUSH1 0x40 MLOAD RETURNDATASIZE PUSH1 0x1F NOT PUSH1 0x1F DUP3 ADD AND DUP3 ADD DUP1 PUSH1 0x40 MSTORE POP DUP2 ADD SWAP1 PUSH2 0x15D8 SWAP2 SWAP1 PUSH2 0x590F JUMP JUMPDEST SWAP1 POP SWAP1 JUMP JUMPDEST PUSH1 0x0 DUP2 PUSH1 0x40 MLOAD PUSH1 0x20 ADD PUSH2 0x15F0 SWAP2 SWAP1 PUSH2 0x5978 JUMP JUMPDEST PUSH1 0x40 MLOAD PUSH1 0x20 DUP2 DUP4 SUB SUB DUP2 MSTORE SWAP1 PUSH1 0x40 MSTORE DUP1 MLOAD SWAP1 PUSH1 0x20 ADD KECCAK256 DUP4 PUSH1 0x40 MLOAD PUSH1 0x20 ADD PUSH2 0x1617 SWAP2 SWAP1 PUSH2 0x5978 JUMP JUMPDEST PUSH1 0x40 MLOAD PUSH1 0x20 DUP2 DUP4 SUB SUB DUP2 MSTORE SWAP1 PUSH1 0x40 MSTORE DUP1 MLOAD SWAP1 PUSH1 0x20 ADD KECCAK256 EQ SWAP1 POP SWAP3 SWAP2 POP POP JUMP JUMPDEST PUSH1 0x60 DUP1 PUSH1 0x0 DUP1 PUSH1 0x5 PUSH1 0x0 DUP7 DUP2 MSTORE PUSH1 0x20 ADD SWAP1 DUP2 MSTORE PUSH1 0x20 ADD PUSH1 0x0 KECCAK256 SWAP1 POP DUP1 PUSH1 0x4 ADD DUP2 PUSH1 0x6 ADD DUP3 PUSH1 0x5 ADD PUSH1 0x0 SWAP1 SLOAD SWAP1 PUSH2 0x100 EXP SWAP1 DIV PUSH20 0xFFFFFFFFFFFFFFFFFFFFFFFFFFFFFFFFFFFFFFFF AND DUP3 DUP1 SLOAD PUSH2 0x168A SWAP1 PUSH2 0x5899 JUMP JUMPDEST DUP1 PUSH1 0x1F ADD PUSH1 0x20 DUP1 SWAP2 DIV MUL PUSH1 0x20 ADD PUSH1 0x40 MLOAD SWAP1 DUP2 ADD PUSH1 0x40 MSTORE DUP1 SWAP3 SWAP2 SWAP1 DUP2 DUP2 MSTORE PUSH1 0x20 ADD DUP3 DUP1 SLOAD PUSH2 0x16B6 SWAP1 PUSH2 0x5899 JUMP JUMPDEST DUP1 ISZERO PUSH2 0x1703 JUMPI DUP1 PUSH1 0x1F LT PUSH2 0x16D8 JUMPI PUSH2 0x100 DUP1 DUP4 SLOAD DIV MUL DUP4 MSTORE SWAP2 PUSH1 0x20 ADD SWAP2 PUSH2 0x1703 JUMP JUMPDEST DUP3 ADD SWAP2 SWAP1 PUSH1 0x0 MSTORE PUSH1 0x20 PUSH1 0x0 KECCAK256 SWAP1 JUMPDEST DUP2 SLOAD DUP2 MSTORE SWAP1 PUSH1 0x1 ADD SWAP1 PUSH1 0x20 ADD DUP1 DUP4 GT PUSH2 0x16E6 JUMPI DUP3 SWAP1 SUB PUSH1 0x1F AND DUP3 ADD SWAP2 JUMPDEST POP POP POP POP POP SWAP3 POP DUP2 DUP1 SLOAD PUSH2 0x1716 SWAP1 PUSH2 0x5899 JUMP JUMPDEST DUP1 PUSH1 0x1F ADD PUSH1 0x20 DUP1 SWAP2 DIV MUL PUSH1 0x20 ADD PUSH1 0x40 MLOAD SWAP1 DUP2 ADD PUSH1 0x40 MSTORE DUP1 SWAP3 SWAP2 SWAP1 DUP2 DUP2 MSTORE PUSH1 0x20 ADD DUP3 DUP1 SLOAD PUSH2 0x1742 SWAP1 PUSH2 0x5899 JUMP JUMPDEST DUP1 ISZERO PUSH2 0x178F JUMPI DUP1 PUSH1 0x1F LT PUSH2 0x1764 JUMPI PUSH2 0x100 DUP1 DUP4 SLOAD DIV MUL DUP4 MSTORE SWAP2 PUSH1 0x20 ADD SWAP2 PUSH2 0x178F JUMP JUMPDEST DUP3 ADD SWAP2 SWAP1 PUSH1 0x0 MSTORE PUSH1 0x20 PUSH1 0x0 KECCAK256 SWAP1 JUMPDEST DUP2 SLOAD DUP2 MSTORE SWAP1 PUSH1 0x1 ADD SWAP1 PUSH1 0x20 ADD DUP1 DUP4 GT PUSH2 0x1772 JUMPI DUP3 SWAP1 SUB PUSH1 0x1F AND DUP3 ADD SWAP2 JUMPDEST POP POP POP POP POP SWAP2 POP SWAP4 POP SWAP4 POP SWAP4 POP POP SWAP2 SWAP4 SWAP1 SWAP3 POP JUMP JUMPDEST PUSH1 0x2 SLOAD DUP2 JUMP JUMPDEST CALLER PUSH1 0x0 DUP1 PUSH2 0x100 EXP DUP2 SLOAD DUP2 PUSH20 0xFFFFFFFFFFFFFFFFFFFFFFFFFFFFFFFFFFFFFFFF MUL NOT AND SWAP1 DUP4 PUSH20 0xFFFFFFFFFFFFFFFFFFFFFFFFFFFFFFFFFFFFFFFF AND MUL OR SWAP1 SSTORE POP PUSH2 0x17F2 PUSH2 0x1380 JUMP JUMPDEST PUSH1 0x1 PUSH1 0x0 PUSH2 0x100 EXP DUP2 SLOAD DUP2 PUSH20 0xFFFFFFFFFFFFFFFFFFFFFFFFFFFFFFFFFFFFFFFF MUL NOT AND SWAP1 DUP4 PUSH20 0xFFFFFFFFFFFFFFFFFFFFFFFFFFFFFFFFFFFFFFFF AND MUL OR SWAP1 SSTORE POP PUSH1 0x0 DUP1 SLOAD SWAP1 PUSH2 0x100 EXP SWAP1 DIV PUSH20 0xFFFFFFFFFFFFFFFFFFFFFFFFFFFFFFFFFFFFFFFF AND PUSH20 0xFFFFFFFFFFFFFFFFFFFFFFFFFFFFFFFFFFFFFFFF AND PUSH32 0xE39D7CD8517BE5D0DED9DB90850AC775470F23EA44EC3AAAAD22EE8B1F8FC59 PUSH1 0x40 MLOAD PUSH1 0x40 MLOAD DUP1 SWAP2 SUB SWAP1 LOG2 PUSH1 0x5 PUSH1 0x8 DUP2 SWAP1 SSTORE POP JUMP JUMPDEST PUSH1 0x0 DUP1 PUSH1 0x5 PUSH1 0x0 DUP6 DUP2 MSTORE PUSH1 0x20 ADD SWAP1 DUP2 MSTORE PUSH1 0x20 ADD PUSH1 0x0 KECCAK256 SWAP1 POP PUSH1 0x0 PUSH1 0x6 DUP2 GT ISZERO PUSH2 0x18CB JUMPI PUSH2 0x18CA PUSH2 0x5450 JUMP JUMPDEST JUMPDEST DUP2 PUSH1 0x9 ADD PUSH1 0x0 SWAP1 SLOAD SWAP1 PUSH2 0x100 EXP SWAP1 DIV PUSH1 0xFF AND PUSH1 0x6 DUP2 GT ISZERO PUSH2 0x18EF JUMPI PUSH2 0x18EE PUSH2 0x5450 JUMP JUMPDEST JUMPDEST EQ ISZERO PUSH2 0x1930 JUMPI PUSH1 0x40 MLOAD PUSH32 0x8C379A000000000000000000000000000000000000000000000000000000000 DUP2 MSTORE PUSH1 0x4 ADD PUSH2 0x1927 SWAP1 PUSH2 0x59DB JUMP JUMPDEST PUSH1 0x40 MLOAD DUP1 SWAP2 SUB SWAP1 REVERT JUMPDEST PUSH1 0x0 PUSH1 0x2 DUP2 GT ISZERO PUSH2 0x1944 JUMPI PUSH2 0x1943 PUSH2 0x5450 JUMP JUMPDEST JUMPDEST PUSH2 0x194C PUSH2 0x2607 JUMP JUMPDEST PUSH20 0xFFFFFFFFFFFFFFFFFFFFFFFFFFFFFFFFFFFFFFFF AND PUSH4 0xD58BFA9D PUSH1 0x40 MLOAD DUP2 PUSH4 0xFFFFFFFF AND PUSH1 0xE0 SHL DUP2 MSTORE PUSH1 0x4 ADD PUSH1 0x20 PUSH1 0x40 MLOAD DUP1 DUP4 SUB DUP2 DUP7 GAS STATICCALL ISZERO DUP1 ISZERO PUSH2 0x1996 JUMPI RETURNDATASIZE PUSH1 0x0 DUP1 RETURNDATACOPY RETURNDATASIZE PUSH1 0x0 REVERT JUMPDEST POP POP POP POP PUSH1 0x40 MLOAD RETURNDATASIZE PUSH1 0x1F NOT PUSH1 0x1F DUP3 ADD AND DUP3 ADD DUP1 PUSH1 0x40 MSTORE POP DUP2 ADD SWAP1 PUSH2 0x19BA SWAP2 SWAP1 PUSH2 0x54A4 JUMP JUMPDEST PUSH1 0x2 DUP2 GT ISZERO PUSH2 0x19CC JUMPI PUSH2 0x19CB PUSH2 0x5450 JUMP JUMPDEST JUMPDEST EQ PUSH2 0x1A0C JUMPI PUSH1 0x40 MLOAD PUSH32 0x8C379A000000000000000000000000000000000000000000000000000000000 DUP2 MSTORE PUSH1 0x4 ADD PUSH2 0x1A03 SWAP1 PUSH2 0x551D JUMP JUMPDEST PUSH1 0x40 MLOAD DUP1 SWAP2 SUB SWAP1 REVERT JUMPDEST PUSH1 0x1 PUSH1 0x6 DUP2 GT ISZERO PUSH2 0x1A20 JUMPI PUSH2 0x1A1F PUSH2 0x5450 JUMP JUMPDEST JUMPDEST DUP2 PUSH1 0x9 ADD PUSH1 0x0 SWAP1 SLOAD SWAP1 PUSH2 0x100 EXP SWAP1 DIV PUSH1 0xFF AND PUSH1 0x6 DUP2 GT ISZERO PUSH2 0x1A44 JUMPI PUSH2 0x1A43 PUSH2 0x5450 JUMP JUMPDEST JUMPDEST EQ ISZERO PUSH2 0x1FDB JUMPI DUP1 PUSH1 0xC ADD PUSH1 0x0 CALLER PUSH20 0xFFFFFFFFFFFFFFFFFFFFFFFFFFFFFFFFFFFFFFFF AND PUSH20 0xFFFFFFFFFFFFFFFFFFFFFFFFFFFFFFFFFFFFFFFF AND DUP2 MSTORE PUSH1 0x20 ADD SWAP1 DUP2 MSTORE PUSH1 0x20 ADD PUSH1 0x0 KECCAK256 PUSH1 0x0 ADD PUSH1 0x0 SWAP1 SLOAD SWAP1 PUSH2 0x100 EXP SWAP1 DIV PUSH1 0xFF AND ISZERO PUSH2 0x1ADC JUMPI PUSH1 0x40 MLOAD PUSH32 0x8C379A000000000000000000000000000000000000000000000000000000000 DUP2 MSTORE PUSH1 0x4 ADD PUSH2 0x1AD3 SWAP1 PUSH2 0x5A47 JUMP JUMPDEST PUSH1 0x40 MLOAD DUP1 SWAP2 SUB SWAP1 REVERT JUMPDEST PUSH8 0xDE0B6B3A7640000 PUSH1 0x1 PUSH1 0x0 SWAP1 SLOAD SWAP1 PUSH2 0x100 EXP SWAP1 DIV PUSH20 0xFFFFFFFFFFFFFFFFFFFFFFFFFFFFFFFFFFFFFFFF AND PUSH20 0xFFFFFFFFFFFFFFFFFFFFFFFFFFFFFFFFFFFFFFFF AND PUSH4 0x98DC8378 CALLER PUSH1 0x40 MLOAD DUP3 PUSH4 0xFFFFFFFF AND PUSH1 0xE0 SHL DUP2 MSTORE PUSH1 0x4 ADD PUSH2 0x1B40 SWAP2 SWAP1 PUSH2 0x504B JUMP JUMPDEST PUSH1 0x20 PUSH1 0x40 MLOAD DUP1 DUP4 SUB DUP2 DUP7 GAS STATICCALL ISZERO DUP1 ISZERO PUSH2 0x1B5D JUMPI RETURNDATASIZE PUSH1 0x0 DUP1 RETURNDATACOPY RETURNDATASIZE PUSH1 0x0 REVERT JUMPDEST POP POP POP POP PUSH1 0x40 MLOAD RETURNDATASIZE PUSH1 0x1F NOT PUSH1 0x1F DUP3 ADD AND DUP3 ADD DUP1 PUSH1 0x40 MSTORE POP DUP2 ADD SWAP1 PUSH2 0x1B81 SWAP2 SWAP1 PUSH2 0x5552 JUMP JUMPDEST LT ISZERO PUSH2 0x1BC2 JUMPI PUSH1 0x40 MLOAD PUSH32 0x8C379A000000000000000000000000000000000000000000000000000000000 DUP2 MSTORE PUSH1 0x4 ADD PUSH2 0x1BB9 SWAP1 PUSH2 0x5AB3 JUMP JUMPDEST PUSH1 0x40 MLOAD DUP1 SWAP2 SUB SWAP1 REVERT JUMPDEST DUP1 PUSH1 0x3 ADD SLOAD TIMESTAMP LT PUSH2 0x1C08 JUMPI PUSH1 0x40 MLOAD PUSH32 0x8C379A000000000000000000000000000000000000000000000000000000000 DUP2 MSTORE PUSH1 0x4 ADD PUSH2 0x1BFF SWAP1 PUSH2 0x5B1F JUMP JUMPDEST PUSH1 0x40 MLOAD DUP1 SWAP2 SUB SWAP1 REVERT JUMPDEST PUSH1 0x1 DUP2 PUSH1 0xC ADD PUSH1 0x0 CALLER PUSH20 0xFFFFFFFFFFFFFFFFFFFFFFFFFFFFFFFFFFFFFFFF AND PUSH20 0xFFFFFFFFFFFFFFFFFFFFFFFFFFFFFFFFFFFFFFFF AND DUP2 MSTORE PUSH1 0x20 ADD SWAP1 DUP2 MSTORE PUSH1 0x20 ADD PUSH1 0x0 KECCAK256 PUSH1 0x0 ADD PUSH1 0x0 PUSH2 0x100 EXP DUP2 SLOAD DUP2 PUSH1 0xFF MUL NOT AND SWAP1 DUP4 ISZERO ISZERO MUL OR SWAP1 SSTORE POP PUSH1 0x0 DUP2 PUSH1 0xC ADD PUSH1 0x0 CALLER PUSH20 0xFFFFFFFFFFFFFFFFFFFFFFFFFFFFFFFFFFFFFFFF AND PUSH20 0xFFFFFFFFFFFFFFFFFFFFFFFFFFFFFFFFFFFFFFFF AND DUP2 MSTORE PUSH1 0x20 ADD SWAP1 DUP2 MSTORE PUSH1 0x20 ADD PUSH1 0x0 KECCAK256 PUSH1 0x1 ADD DUP1 SLOAD SWAP1 POP EQ PUSH2 0x1E48 JUMPI PUSH1 0x0 JUMPDEST DUP2 PUSH1 0xC ADD PUSH1 0x0 CALLER PUSH20 0xFFFFFFFFFFFFFFFFFFFFFFFFFFFFFFFFFFFFFFFF AND PUSH20 0xFFFFFFFFFFFFFFFFFFFFFFFFFFFFFFFFFFFFFFFF AND DUP2 MSTORE PUSH1 0x20 ADD SWAP1 DUP2 MSTORE PUSH1 0x20 ADD PUSH1 0x0 KECCAK256 PUSH1 0x1 ADD DUP1 SLOAD SWAP1 POP DUP2 LT ISZERO PUSH2 0x1E46 JUMPI PUSH1 0x0 DUP3 PUSH1 0xC ADD PUSH1 0x0 CALLER PUSH20 0xFFFFFFFFFFFFFFFFFFFFFFFFFFFFFFFFFFFFFFFF AND PUSH20 0xFFFFFFFFFFFFFFFFFFFFFFFFFFFFFFFFFFFFFFFF AND DUP2 MSTORE PUSH1 0x20 ADD SWAP1 DUP2 MSTORE PUSH1 0x20 ADD PUSH1 0x0 KECCAK256 PUSH1 0x1 ADD DUP3 DUP2 SLOAD DUP2 LT PUSH2 0x1D5E JUMPI PUSH2 0x1D5D PUSH2 0x58CB JUMP JUMPDEST JUMPDEST SWAP1 PUSH1 0x0 MSTORE PUSH1 0x20 PUSH1 0x0 KECCAK256 ADD PUSH1 0x0 SWAP1 SLOAD SWAP1 PUSH2 0x100 EXP SWAP1 DIV PUSH20 0xFFFFFFFFFFFFFFFFFFFFFFFFFFFFFFFFFFFFFFFF AND SWAP1 POP PUSH1 0x1 PUSH1 0x0 SWAP1 SLOAD SWAP1 PUSH2 0x100 EXP SWAP1 DIV PUSH20 0xFFFFFFFFFFFFFFFFFFFFFFFFFFFFFFFFFFFFFFFF AND PUSH20 0xFFFFFFFFFFFFFFFFFFFFFFFFFFFFFFFFFFFFFFFF AND PUSH4 0x98DC8378 DUP3 PUSH1 0x40 MLOAD DUP3 PUSH4 0xFFFFFFFF AND PUSH1 0xE0 SHL DUP2 MSTORE PUSH1 0x4 ADD PUSH2 0x1DE6 SWAP2 SWAP1 PUSH2 0x504B JUMP JUMPDEST PUSH1 0x20 PUSH1 0x40 MLOAD DUP1 DUP4 SUB DUP2 DUP7 GAS STATICCALL ISZERO DUP1 ISZERO PUSH2 0x1E03 JUMPI RETURNDATASIZE PUSH1 0x0 DUP1 RETURNDATACOPY RETURNDATASIZE PUSH1 0x0 REVERT JUMPDEST POP POP POP POP PUSH1 0x40 MLOAD RETURNDATASIZE PUSH1 0x1F NOT PUSH1 0x1F DUP3 ADD AND DUP3 ADD DUP1 PUSH1 0x40 MSTORE POP DUP2 ADD SWAP1 PUSH2 0x1E27 SWAP2 SWAP1 PUSH2 0x5552 JUMP JUMPDEST DUP5 PUSH2 0x1E32 SWAP2 SWAP1 PUSH2 0x55EB JUMP JUMPDEST SWAP4 POP POP DUP1 PUSH2 0x1E3F SWAP1 PUSH2 0x5B3F JUMP JUMPDEST SWAP1 POP PUSH2 0x1CB7 JUMP JUMPDEST POP JUMPDEST DUP3 ISZERO PUSH2 0x1F14 JUMPI PUSH1 0x1 PUSH1 0x0 SWAP1 SLOAD SWAP1 PUSH2 0x100 EXP SWAP1 DIV PUSH20 0xFFFFFFFFFFFFFFFFFFFFFFFFFFFFFFFFFFFFFFFF AND PUSH20 0xFFFFFFFFFFFFFFFFFFFFFFFFFFFFFFFFFFFFFFFF AND PUSH4 0x98DC8378 CALLER PUSH1 0x40 MLOAD DUP3 PUSH4 0xFFFFFFFF AND PUSH1 0xE0 SHL DUP2 MSTORE PUSH1 0x4 ADD PUSH2 0x1EA9 SWAP2 SWAP1 PUSH2 0x504B JUMP JUMPDEST PUSH1 0x20 PUSH1 0x40 MLOAD DUP1 DUP4 SUB DUP2 DUP7 GAS STATICCALL ISZERO DUP1 ISZERO PUSH2 0x1EC6 JUMPI RETURNDATASIZE PUSH1 0x0 DUP1 RETURNDATACOPY RETURNDATASIZE PUSH1 0x0 REVERT JUMPDEST POP POP POP POP PUSH1 0x40 MLOAD RETURNDATASIZE PUSH1 0x1F NOT PUSH1 0x1F DUP3 ADD AND DUP3 ADD DUP1 PUSH1 0x40 MSTORE POP DUP2 ADD SWAP1 PUSH2 0x1EEA SWAP2 SWAP1 PUSH2 0x5552 JUMP JUMPDEST DUP3 PUSH2 0x1EF5 SWAP2 SWAP1 PUSH2 0x55EB JUMP JUMPDEST DUP2 PUSH1 0x7 ADD PUSH1 0x0 DUP3 DUP3 SLOAD PUSH2 0x1F08 SWAP2 SWAP1 PUSH2 0x55EB JUMP JUMPDEST SWAP3 POP POP DUP2 SWAP1 SSTORE POP PUSH2 0x1FD6 JUMP JUMPDEST PUSH1 0x1 PUSH1 0x0 SWAP1 SLOAD SWAP1 PUSH2 0x100 EXP SWAP1 DIV PUSH20 0xFFFFFFFFFFFFFFFFFFFFFFFFFFFFFFFFFFFFFFFF AND PUSH20 0xFFFFFFFFFFFFFFFFFFFFFFFFFFFFFFFFFFFFFFFF AND PUSH4 0x98DC8378 CALLER PUSH1 0x40 MLOAD DUP3 PUSH4 0xFFFFFFFF AND PUSH1 0xE0 SHL DUP2 MSTORE PUSH1 0x4 ADD PUSH2 0x1F6F SWAP2 SWAP1 PUSH2 0x504B JUMP JUMPDEST PUSH1 0x20 PUSH1 0x40 MLOAD DUP1 DUP4 SUB DUP2 DUP7 GAS STATICCALL ISZERO DUP1 ISZERO PUSH2 0x1F8C JUMPI RETURNDATASIZE PUSH1 0x0 DUP1 RETURNDATACOPY RETURNDATASIZE PUSH1 0x0 REVERT JUMPDEST POP POP POP POP PUSH1 0x40 MLOAD RETURNDATASIZE PUSH1 0x1F NOT PUSH1 0x1F DUP3 ADD AND DUP3 ADD DUP1 PUSH1 0x40 MSTORE POP DUP2 ADD SWAP1 PUSH2 0x1FB0 SWAP2 SWAP1 PUSH2 0x5552 JUMP JUMPDEST DUP3 PUSH2 0x1FBB SWAP2 SWAP1 PUSH2 0x55EB JUMP JUMPDEST DUP2 PUSH1 0x8 ADD PUSH1 0x0 DUP3 DUP3 SLOAD PUSH2 0x1FCE SWAP2 SWAP1 PUSH2 0x55EB JUMP JUMPDEST SWAP3 POP POP DUP2 SWAP1 SSTORE POP JUMPDEST PUSH2 0x250C JUMP JUMPDEST PUSH1 0x5 PUSH1 0x6 DUP2 GT ISZERO PUSH2 0x1FEF JUMPI PUSH2 0x1FEE PUSH2 0x5450 JUMP JUMPDEST JUMPDEST DUP2 PUSH1 0x9 ADD PUSH1 0x0 SWAP1 SLOAD SWAP1 PUSH2 0x100 EXP SWAP1 DIV PUSH1 0xFF AND PUSH1 0x6 DUP2 GT ISZERO PUSH2 0x2013 JUMPI PUSH2 0x2012 PUSH2 0x5450 JUMP JUMPDEST JUMPDEST EQ ISZERO PUSH2 0x24D0 JUMPI DUP1 PUSH1 0xD ADD PUSH1 0x4 ADD PUSH1 0x0 CALLER PUSH20 0xFFFFFFFFFFFFFFFFFFFFFFFFFFFFFFFFFFFFFFFF AND PUSH20 0xFFFFFFFFFFFFFFFFFFFFFFFFFFFFFFFFFFFFFFFF AND DUP2 MSTORE PUSH1 0x20 ADD SWAP1 DUP2 MSTORE PUSH1 0x20 ADD PUSH1 0x0 KECCAK256 PUSH1 0x0 ADD PUSH1 0x0 SWAP1 SLOAD SWAP1 PUSH2 0x100 EXP SWAP1 DIV PUSH1 0xFF AND ISZERO PUSH2 0x20AE JUMPI PUSH1 0x40 MLOAD PUSH32 0x8C379A000000000000000000000000000000000000000000000000000000000 DUP2 MSTORE PUSH1 0x4 ADD PUSH2 0x20A5 SWAP1 PUSH2 0x5A47 JUMP JUMPDEST PUSH1 0x40 MLOAD DUP1 SWAP2 SUB SWAP1 REVERT JUMPDEST DUP1 PUSH1 0x3 ADD SLOAD TIMESTAMP LT PUSH2 0x20F4 JUMPI PUSH1 0x40 MLOAD PUSH32 0x8C379A000000000000000000000000000000000000000000000000000000000 DUP2 MSTORE PUSH1 0x4 ADD PUSH2 0x20EB SWAP1 PUSH2 0x5B1F JUMP JUMPDEST PUSH1 0x40 MLOAD DUP1 SWAP2 SUB SWAP1 REVERT JUMPDEST PUSH1 0x1 DUP2 PUSH1 0xD ADD PUSH1 0x4 ADD PUSH1 0x0 CALLER PUSH20 0xFFFFFFFFFFFFFFFFFFFFFFFFFFFFFFFFFFFFFFFF AND PUSH20 0xFFFFFFFFFFFFFFFFFFFFFFFFFFFFFFFFFFFFFFFF AND DUP2 MSTORE PUSH1 0x20 ADD SWAP1 DUP2 MSTORE PUSH1 0x20 ADD PUSH1 0x0 KECCAK256 PUSH1 0x0 ADD PUSH1 0x0 PUSH2 0x100 EXP DUP2 SLOAD DUP2 PUSH1 0xFF MUL NOT AND SWAP1 DUP4 ISZERO ISZERO MUL OR SWAP1 SSTORE POP PUSH1 0x0 DUP2 PUSH1 0xC ADD PUSH1 0x0 CALLER PUSH20 0xFFFFFFFFFFFFFFFFFFFFFFFFFFFFFFFFFFFFFFFF AND PUSH20 0xFFFFFFFFFFFFFFFFFFFFFFFFFFFFFFFFFFFFFFFF AND DUP2 MSTORE PUSH1 0x20 ADD SWAP1 DUP2 MSTORE PUSH1 0x20 ADD PUSH1 0x0 KECCAK256 PUSH1 0x1 ADD DUP1 SLOAD SWAP1 POP EQ PUSH2 0x2337 JUMPI PUSH1 0x0 JUMPDEST DUP2 PUSH1 0xC ADD PUSH1 0x0 CALLER PUSH20 0xFFFFFFFFFFFFFFFFFFFFFFFFFFFFFFFFFFFFFFFF AND PUSH20 0xFFFFFFFFFFFFFFFFFFFFFFFFFFFFFFFFFFFFFFFF AND DUP2 MSTORE PUSH1 0x20 ADD SWAP1 DUP2 MSTORE PUSH1 0x20 ADD PUSH1 0x0 KECCAK256 PUSH1 0x1 ADD DUP1 SLOAD SWAP1 POP DUP2 LT ISZERO PUSH2 0x2335 JUMPI PUSH1 0x0 DUP3 PUSH1 0xC ADD PUSH1 0x0 CALLER PUSH20 0xFFFFFFFFFFFFFFFFFFFFFFFFFFFFFFFFFFFFFFFF AND PUSH20 0xFFFFFFFFFFFFFFFFFFFFFFFFFFFFFFFFFFFFFFFF AND DUP2 MSTORE PUSH1 0x20 ADD SWAP1 DUP2 MSTORE PUSH1 0x20 ADD PUSH1 0x0 KECCAK256 PUSH1 0x1 ADD DUP3 DUP2 SLOAD DUP2 LT PUSH2 0x224D JUMPI PUSH2 0x224C PUSH2 0x58CB JUMP JUMPDEST JUMPDEST SWAP1 PUSH1 0x0 MSTORE PUSH1 0x20 PUSH1 0x0 KECCAK256 ADD PUSH1 0x0 SWAP1 SLOAD SWAP1 PUSH2 0x100 EXP SWAP1 DIV PUSH20 0xFFFFFFFFFFFFFFFFFFFFFFFFFFFFFFFFFFFFFFFF AND SWAP1 POP PUSH1 0x1 PUSH1 0x0 SWAP1 SLOAD SWAP1 PUSH2 0x100 EXP SWAP1 DIV PUSH20 0xFFFFFFFFFFFFFFFFFFFFFFFFFFFFFFFFFFFFFFFF AND PUSH20 0xFFFFFFFFFFFFFFFFFFFFFFFFFFFFFFFFFFFFFFFF AND PUSH4 0x98DC8378 DUP3 PUSH1 0x40 MLOAD DUP3 PUSH4 0xFFFFFFFF AND PUSH1 0xE0 SHL DUP2 MSTORE PUSH1 0x4 ADD PUSH2 0x22D5 SWAP2 SWAP1 PUSH2 0x504B JUMP JUMPDEST PUSH1 0x20 PUSH1 0x40 MLOAD DUP1 DUP4 SUB DUP2 DUP7 GAS STATICCALL ISZERO DUP1 ISZERO PUSH2 0x22F2 JUMPI RETURNDATASIZE PUSH1 0x0 DUP1 RETURNDATACOPY RETURNDATASIZE PUSH1 0x0 REVERT JUMPDEST POP POP POP POP PUSH1 0x40 MLOAD RETURNDATASIZE PUSH1 0x1F NOT PUSH1 0x1F DUP3 ADD AND DUP3 ADD DUP1 PUSH1 0x40 MSTORE POP DUP2 ADD SWAP1 PUSH2 0x2316 SWAP2 SWAP1 PUSH2 0x5552 JUMP JUMPDEST DUP5 PUSH2 0x2321 SWAP2 SWAP1 PUSH2 0x55EB JUMP JUMPDEST SWAP4 POP POP DUP1 PUSH2 0x232E SWAP1 PUSH2 0x5B3F JUMP JUMPDEST SWAP1 POP PUSH2 0x21A6 JUMP JUMPDEST POP JUMPDEST DUP3 ISZERO PUSH2 0x2406 JUMPI PUSH1 0x1 PUSH1 0x0 SWAP1 SLOAD SWAP1 PUSH2 0x100 EXP SWAP1 DIV PUSH20 0xFFFFFFFFFFFFFFFFFFFFFFFFFFFFFFFFFFFFFFFF AND PUSH20 0xFFFFFFFFFFFFFFFFFFFFFFFFFFFFFFFFFFFFFFFF AND PUSH4 0x98DC8378 CALLER PUSH1 0x40 MLOAD DUP3 PUSH4 0xFFFFFFFF AND PUSH1 0xE0 SHL DUP2 MSTORE PUSH1 0x4 ADD PUSH2 0x2398 SWAP2 SWAP1 PUSH2 0x504B JUMP JUMPDEST PUSH1 0x20 PUSH1 0x40 MLOAD DUP1 DUP4 SUB DUP2 DUP7 GAS STATICCALL ISZERO DUP1 ISZERO PUSH2 0x23B5 JUMPI RETURNDATASIZE PUSH1 0x0 DUP1 RETURNDATACOPY RETURNDATASIZE PUSH1 0x0 REVERT JUMPDEST POP POP POP POP PUSH1 0x40 MLOAD RETURNDATASIZE PUSH1 0x1F NOT PUSH1 0x1F DUP3 ADD AND DUP3 ADD DUP1 PUSH1 0x40 MSTORE POP DUP2 ADD SWAP1 PUSH2 0x23D9 SWAP2 SWAP1 PUSH2 0x5552 JUMP JUMPDEST DUP3 PUSH2 0x23E4 SWAP2 SWAP1 PUSH2 0x55EB JUMP JUMPDEST DUP2 PUSH1 0xD ADD PUSH1 0x2 ADD PUSH1 0x0 DUP3 DUP3 SLOAD PUSH2 0x23FA SWAP2 SWAP1 PUSH2 0x55EB JUMP JUMPDEST SWAP3 POP POP DUP2 SWAP1 SSTORE POP PUSH2 0x24CB JUMP JUMPDEST PUSH1 0x1 PUSH1 0x0 SWAP1 SLOAD SWAP1 PUSH2 0x100 EXP SWAP1 DIV PUSH20 0xFFFFFFFFFFFFFFFFFFFFFFFFFFFFFFFFFFFFFFFF AND PUSH20 0xFFFFFFFFFFFFFFFFFFFFFFFFFFFFFFFFFFFFFFFF AND PUSH4 0x98DC8378 CALLER PUSH1 0x40 MLOAD DUP3 PUSH4 0xFFFFFFFF AND PUSH1 0xE0 SHL DUP2 MSTORE PUSH1 0x4 ADD PUSH2 0x2461 SWAP2 SWAP1 PUSH2 0x504B JUMP JUMPDEST PUSH1 0x20 PUSH1 0x40 MLOAD DUP1 DUP4 SUB DUP2 DUP7 GAS STATICCALL ISZERO DUP1 ISZERO PUSH2 0x247E JUMPI RETURNDATASIZE PUSH1 0x0 DUP1 RETURNDATACOPY RETURNDATASIZE PUSH1 0x0 REVERT JUMPDEST POP POP POP POP PUSH1 0x40 MLOAD RETURNDATASIZE PUSH1 0x1F NOT PUSH1 0x1F DUP3 ADD AND DUP3 ADD DUP1 PUSH1 0x40 MSTORE POP DUP2 ADD SWAP1 PUSH2 0x24A2 SWAP2 SWAP1 PUSH2 0x5552 JUMP JUMPDEST DUP3 PUSH2 0x24AD SWAP2 SWAP1 PUSH2 0x55EB JUMP JUMPDEST DUP2 PUSH1 0xD ADD PUSH1 0x3 ADD PUSH1 0x0 DUP3 DUP3 SLOAD PUSH2 0x24C3 SWAP2 SWAP1 PUSH2 0x55EB JUMP JUMPDEST SWAP3 POP POP DUP2 SWAP1 SSTORE POP JUMPDEST PUSH2 0x250B JUMP JUMPDEST PUSH1 0x40 MLOAD PUSH32 0x8C379A000000000000000000000000000000000000000000000000000000000 DUP2 MSTORE PUSH1 0x4 ADD PUSH2 0x2502 SWAP1 PUSH2 0x5BD4 JUMP JUMPDEST PUSH1 0x40 MLOAD DUP1 SWAP2 SUB SWAP1 REVERT JUMPDEST JUMPDEST DUP4 PUSH32 0xFA4D7D6563A1339868816E9B79E78AFCF4133F265E744755BF8F19D660C838E2 DUP5 CALLER PUSH1 0x1 PUSH1 0x0 SWAP1 SLOAD SWAP1 PUSH2 0x100 EXP SWAP1 DIV PUSH20 0xFFFFFFFFFFFFFFFFFFFFFFFFFFFFFFFFFFFFFFFF AND PUSH20 0xFFFFFFFFFFFFFFFFFFFFFFFFFFFFFFFFFFFFFFFF AND PUSH4 0x98DC8378 CALLER PUSH1 0x40 MLOAD DUP3 PUSH4 0xFFFFFFFF AND PUSH1 0xE0 SHL DUP2 MSTORE PUSH1 0x4 ADD PUSH2 0x258B SWAP2 SWAP1 PUSH2 0x504B JUMP JUMPDEST PUSH1 0x20 PUSH1 0x40 MLOAD DUP1 DUP4 SUB DUP2 DUP7 GAS STATICCALL ISZERO DUP1 ISZERO PUSH2 0x25A8 JUMPI RETURNDATASIZE PUSH1 0x0 DUP1 RETURNDATACOPY RETURNDATASIZE PUSH1 0x0 REVERT JUMPDEST POP POP POP POP PUSH1 0x40 MLOAD RETURNDATASIZE PUSH1 0x1F NOT PUSH1 0x1F DUP3 ADD AND DUP3 ADD DUP1 PUSH1 0x40 MSTORE POP DUP2 ADD SWAP1 PUSH2 0x25CC SWAP2 SWAP1 PUSH2 0x5552 JUMP JUMPDEST DUP7 PUSH2 0x25D7 SWAP2 SWAP1 PUSH2 0x55EB JUMP JUMPDEST DUP6 PUSH1 0x9 ADD PUSH1 0x0 SWAP1 SLOAD SWAP1 PUSH2 0x100 EXP SWAP1 DIV PUSH1 0xFF AND PUSH1 0x40 MLOAD PUSH2 0x25F9 SWAP5 SWAP4 SWAP3 SWAP2 SWAP1 PUSH2 0x5C3C JUMP JUMPDEST PUSH1 0x40 MLOAD DUP1 SWAP2 SUB SWAP1 LOG2 POP POP POP POP JUMP JUMPDEST PUSH1 0x0 DUP1 PUSH1 0x0 SWAP1 SLOAD SWAP1 PUSH2 0x100 EXP SWAP1 DIV PUSH20 0xFFFFFFFFFFFFFFFFFFFFFFFFFFFFFFFFFFFFFFFF AND PUSH20 0xFFFFFFFFFFFFFFFFFFFFFFFFFFFFFFFFFFFFFFFF AND PUSH4 0xFBFA77CF PUSH1 0x40 MLOAD DUP2 PUSH4 0xFFFFFFFF AND PUSH1 0xE0 SHL DUP2 MSTORE PUSH1 0x4 ADD PUSH1 0x20 PUSH1 0x40 MLOAD DUP1 DUP4 SUB DUP2 DUP7 GAS STATICCALL ISZERO DUP1 ISZERO PUSH2 0x2675 JUMPI RETURNDATASIZE PUSH1 0x0 DUP1 RETURNDATACOPY RETURNDATASIZE PUSH1 0x0 REVERT JUMPDEST POP POP POP POP PUSH1 0x40 MLOAD RETURNDATASIZE PUSH1 0x1F NOT PUSH1 0x1F DUP3 ADD AND DUP3 ADD DUP1 PUSH1 0x40 MSTORE POP DUP2 ADD SWAP1 PUSH2 0x2699 SWAP2 SWAP1 PUSH2 0x590F JUMP JUMPDEST SWAP1 POP SWAP1 JUMP JUMPDEST PUSH1 0x9 PUSH1 0x20 MSTORE DUP1 PUSH1 0x0 MSTORE PUSH1 0x40 PUSH1 0x0 KECCAK256 PUSH1 0x0 SWAP2 POP SLOAD SWAP1 PUSH2 0x100 EXP SWAP1 DIV PUSH1 0xFF AND DUP2 JUMP JUMPDEST PUSH1 0x0 DUP1 PUSH1 0x1 PUSH1 0x0 SWAP1 SLOAD SWAP1 PUSH2 0x100 EXP SWAP1 DIV PUSH20 0xFFFFFFFFFFFFFFFFFFFFFFFFFFFFFFFFFFFFFFFF AND PUSH20 0xFFFFFFFFFFFFFFFFFFFFFFFFFFFFFFFFFFFFFFFF AND PUSH4 0x18160DDD PUSH1 0x40 MLOAD DUP2 PUSH4 0xFFFFFFFF AND PUSH1 0xE0 SHL DUP2 MSTORE PUSH1 0x4 ADD PUSH1 0x20 PUSH1 0x40 MLOAD DUP1 DUP4 SUB DUP2 DUP7 GAS STATICCALL ISZERO DUP1 ISZERO PUSH2 0x272E JUMPI RETURNDATASIZE PUSH1 0x0 DUP1 RETURNDATACOPY RETURNDATASIZE PUSH1 0x0 REVERT JUMPDEST POP POP POP POP PUSH1 0x40 MLOAD RETURNDATASIZE PUSH1 0x1F NOT PUSH1 0x1F DUP3 ADD AND DUP3 ADD DUP1 PUSH1 0x40 MSTORE POP DUP2 ADD SWAP1 PUSH2 0x2752 SWAP2 SWAP1 PUSH2 0x5552 JUMP JUMPDEST EQ ISZERO PUSH2 0x2793 JUMPI PUSH1 0x40 MLOAD PUSH32 0x8C379A000000000000000000000000000000000000000000000000000000000 DUP2 MSTORE PUSH1 0x4 ADD PUSH2 0x278A SWAP1 PUSH2 0x5CCD JUMP JUMPDEST PUSH1 0x40 MLOAD DUP1 SWAP2 SUB SWAP1 REVERT JUMPDEST PUSH1 0x0 PUSH1 0x64 PUSH1 0x8 SLOAD PUSH2 0x27A2 PUSH2 0x1417 JUMP JUMPDEST PUSH2 0x27AC SWAP2 SWAP1 PUSH2 0x5396 JUMP JUMPDEST PUSH2 0x27B6 SWAP2 SWAP1 PUSH2 0x541F JUMP JUMPDEST SWAP1 POP PUSH1 0x0 PUSH1 0x2 DUP2 GT ISZERO PUSH2 0x27CC JUMPI PUSH2 0x27CB PUSH2 0x5450 JUMP JUMPDEST JUMPDEST PUSH2 0x27D4 PUSH2 0x2607 JUMP JUMPDEST PUSH20 0xFFFFFFFFFFFFFFFFFFFFFFFFFFFFFFFFFFFFFFFF AND PUSH4 0xD58BFA9D PUSH1 0x40 MLOAD DUP2 PUSH4 0xFFFFFFFF AND PUSH1 0xE0 SHL DUP2 MSTORE PUSH1 0x4 ADD PUSH1 0x20 PUSH1 0x40 MLOAD DUP1 DUP4 SUB DUP2 DUP7 GAS STATICCALL ISZERO DUP1 ISZERO PUSH2 0x281E JUMPI RETURNDATASIZE PUSH1 0x0 DUP1 RETURNDATACOPY RETURNDATASIZE PUSH1 0x0 REVERT JUMPDEST POP POP POP POP PUSH1 0x40 MLOAD RETURNDATASIZE PUSH1 0x1F NOT PUSH1 0x1F DUP3 ADD AND DUP3 ADD DUP1 PUSH1 0x40 MSTORE POP DUP2 ADD SWAP1 PUSH2 0x2842 SWAP2 SWAP1 PUSH2 0x54A4 JUMP JUMPDEST PUSH1 0x2 DUP2 GT ISZERO PUSH2 0x2854 JUMPI PUSH2 0x2853 PUSH2 0x5450 JUMP JUMPDEST JUMPDEST EQ PUSH2 0x2894 JUMPI PUSH1 0x40 MLOAD PUSH32 0x8C379A000000000000000000000000000000000000000000000000000000000 DUP2 MSTORE PUSH1 0x4 ADD PUSH2 0x288B SWAP1 PUSH2 0x551D JUMP JUMPDEST PUSH1 0x40 MLOAD DUP1 SWAP2 SUB SWAP1 REVERT JUMPDEST DUP1 PUSH1 0x1 PUSH1 0x0 SWAP1 SLOAD SWAP1 PUSH2 0x100 EXP SWAP1 DIV PUSH20 0xFFFFFFFFFFFFFFFFFFFFFFFFFFFFFFFFFFFFFFFF AND PUSH20 0xFFFFFFFFFFFFFFFFFFFFFFFFFFFFFFFFFFFFFFFF AND PUSH4 0x98DC8378 CALLER PUSH1 0x40 MLOAD DUP3 PUSH4 0xFFFFFFFF AND PUSH1 0xE0 SHL DUP2 MSTORE PUSH1 0x4 ADD PUSH2 0x28F0 SWAP2 SWAP1 PUSH2 0x504B JUMP JUMPDEST PUSH1 0x20 PUSH1 0x40 MLOAD DUP1 DUP4 SUB DUP2 DUP7 GAS STATICCALL ISZERO DUP1 ISZERO PUSH2 0x290D JUMPI RETURNDATASIZE PUSH1 0x0 DUP1 RETURNDATACOPY RETURNDATASIZE PUSH1 0x0 REVERT JUMPDEST POP POP POP POP PUSH1 0x40 MLOAD RETURNDATASIZE PUSH1 0x1F NOT PUSH1 0x1F DUP3 ADD AND DUP3 ADD DUP1 PUSH1 0x40 MSTORE POP DUP2 ADD SWAP1 PUSH2 0x2931 SWAP2 SWAP1 PUSH2 0x5552 JUMP JUMPDEST LT ISZERO PUSH2 0x2972 JUMPI PUSH1 0x40 MLOAD PUSH32 0x8C379A000000000000000000000000000000000000000000000000000000000 DUP2 MSTORE PUSH1 0x4 ADD PUSH2 0x2969 SWAP1 PUSH2 0x55CB JUMP JUMPDEST PUSH1 0x40 MLOAD DUP1 SWAP2 SUB SWAP1 REVERT JUMPDEST DUP4 PUSH2 0x297B PUSH2 0x973 JUMP JUMPDEST MLOAD LT ISZERO PUSH2 0x29BD JUMPI PUSH1 0x40 MLOAD PUSH32 0x8C379A000000000000000000000000000000000000000000000000000000000 DUP2 MSTORE PUSH1 0x4 ADD PUSH2 0x29B4 SWAP1 PUSH2 0x5D39 JUMP JUMPDEST PUSH1 0x40 MLOAD DUP1 SWAP2 SUB SWAP1 REVERT JUMPDEST PUSH1 0x0 DUP5 GT PUSH2 0x2A00 JUMPI PUSH1 0x40 MLOAD PUSH32 0x8C379A000000000000000000000000000000000000000000000000000000000 DUP2 MSTORE PUSH1 0x4 ADD PUSH2 0x29F7 SWAP1 PUSH2 0x5DA5 JUMP JUMPDEST PUSH1 0x40 MLOAD DUP1 SWAP2 SUB SWAP1 REVERT JUMPDEST PUSH1 0x3 DUP5 EQ ISZERO PUSH2 0x2A53 JUMPI DUP3 PUSH2 0x2A12 PUSH2 0x2E33 JUMP JUMPDEST LT PUSH2 0x2A52 JUMPI PUSH1 0x40 MLOAD PUSH32 0x8C379A000000000000000000000000000000000000000000000000000000000 DUP2 MSTORE PUSH1 0x4 ADD PUSH2 0x2A49 SWAP1 PUSH2 0x5E37 JUMP JUMPDEST PUSH1 0x40 MLOAD DUP1 SWAP2 SUB SWAP1 REVERT JUMPDEST JUMPDEST PUSH1 0x5 DUP5 EQ ISZERO PUSH2 0x2B86 JUMPI CALLER PUSH20 0xFFFFFFFFFFFFFFFFFFFFFFFFFFFFFFFFFFFFFFFF AND PUSH1 0x0 DUP1 SLOAD SWAP1 PUSH2 0x100 EXP SWAP1 DIV PUSH20 0xFFFFFFFFFFFFFFFFFFFFFFFFFFFFFFFFFFFFFFFF AND PUSH20 0xFFFFFFFFFFFFFFFFFFFFFFFFFFFFFFFFFFFFFFFF AND PUSH4 0xE66F53B7 PUSH1 0x40 MLOAD DUP2 PUSH4 0xFFFFFFFF AND PUSH1 0xE0 SHL DUP2 MSTORE PUSH1 0x4 ADD PUSH1 0x20 PUSH1 0x40 MLOAD DUP1 DUP4 SUB DUP2 DUP7 GAS STATICCALL ISZERO DUP1 ISZERO PUSH2 0x2ADE JUMPI RETURNDATASIZE PUSH1 0x0 DUP1 RETURNDATACOPY RETURNDATASIZE PUSH1 0x0 REVERT JUMPDEST POP POP POP POP PUSH1 0x40 MLOAD RETURNDATASIZE PUSH1 0x1F NOT PUSH1 0x1F DUP3 ADD AND DUP3 ADD DUP1 PUSH1 0x40 MSTORE POP DUP2 ADD SWAP1 PUSH2 0x2B02 SWAP2 SWAP1 PUSH2 0x590F JUMP JUMPDEST PUSH20 0xFFFFFFFFFFFFFFFFFFFFFFFFFFFFFFFFFFFFFFFF AND EQ PUSH2 0x2B58 JUMPI PUSH1 0x40 MLOAD PUSH32 0x8C379A000000000000000000000000000000000000000000000000000000000 DUP2 MSTORE PUSH1 0x4 ADD PUSH2 0x2B4F SWAP1 PUSH2 0x5EA3 JUMP JUMPDEST PUSH1 0x40 MLOAD DUP1 SWAP2 SUB SWAP1 REVERT JUMPDEST PUSH1 0x1 PUSH1 0x9 PUSH1 0x0 PUSH1 0x1 DUP2 MSTORE PUSH1 0x20 ADD SWAP1 DUP2 MSTORE PUSH1 0x20 ADD PUSH1 0x0 KECCAK256 PUSH1 0x0 PUSH2 0x100 EXP DUP2 SLOAD DUP2 PUSH1 0xFF MUL NOT AND SWAP1 DUP4 ISZERO ISZERO MUL OR SWAP1 SSTORE POP JUMPDEST PUSH1 0x2 PUSH1 0x0 DUP2 SLOAD DUP1 SWAP3 SWAP2 SWAP1 PUSH2 0x2B99 SWAP1 PUSH2 0x5B3F JUMP JUMPDEST SWAP2 SWAP1 POP SSTORE POP PUSH1 0x0 PUSH1 0x5 PUSH1 0x0 PUSH1 0x2 SLOAD DUP2 MSTORE PUSH1 0x20 ADD SWAP1 DUP2 MSTORE PUSH1 0x20 ADD PUSH1 0x0 KECCAK256 SWAP1 POP PUSH1 0x1 PUSH1 0x0 SWAP1 SLOAD SWAP1 PUSH2 0x100 EXP SWAP1 DIV PUSH20 0xFFFFFFFFFFFFFFFFFFFFFFFFFFFFFFFFFFFFFFFF AND PUSH20 0xFFFFFFFFFFFFFFFFFFFFFFFFFFFFFFFFFFFFFFFF AND PUSH4 0x18160DDD PUSH1 0x40 MLOAD DUP2 PUSH4 0xFFFFFFFF AND PUSH1 0xE0 SHL DUP2 MSTORE PUSH1 0x4 ADD PUSH1 0x20 PUSH1 0x40 MLOAD DUP1 DUP4 SUB DUP2 DUP7 GAS STATICCALL ISZERO DUP1 ISZERO PUSH2 0x2C24 JUMPI RETURNDATASIZE PUSH1 0x0 DUP1 RETURNDATACOPY RETURNDATASIZE PUSH1 0x0 REVERT JUMPDEST POP POP POP POP PUSH1 0x40 MLOAD RETURNDATASIZE PUSH1 0x1F NOT PUSH1 0x1F DUP3 ADD AND DUP3 ADD DUP1 PUSH1 0x40 MSTORE POP DUP2 ADD SWAP1 PUSH2 0x2C48 SWAP2 SWAP1 PUSH2 0x5552 JUMP JUMPDEST DUP2 PUSH1 0x0 ADD DUP2 SWAP1 SSTORE POP PUSH2 0x2C58 PUSH2 0x1417 JUMP JUMPDEST DUP2 PUSH1 0x1 ADD DUP2 SWAP1 SSTORE POP DUP8 DUP2 PUSH1 0x4 ADD SWAP1 DUP1 MLOAD SWAP1 PUSH1 0x20 ADD SWAP1 PUSH2 0x2C78 SWAP3 SWAP2 SWAP1 PUSH2 0x4A52 JUMP JUMPDEST POP PUSH1 0x2 SLOAD DUP2 PUSH1 0x2 ADD DUP2 SWAP1 SSTORE POP PUSH1 0xF0 TIMESTAMP PUSH2 0x2C91 SWAP2 SWAP1 PUSH2 0x55EB JUMP JUMPDEST DUP2 PUSH1 0x3 ADD DUP2 SWAP1 SSTORE POP CALLER DUP2 PUSH1 0x5 ADD PUSH1 0x0 PUSH2 0x100 EXP DUP2 SLOAD DUP2 PUSH20 0xFFFFFFFFFFFFFFFFFFFFFFFFFFFFFFFFFFFFFFFF MUL NOT AND SWAP1 DUP4 PUSH20 0xFFFFFFFFFFFFFFFFFFFFFFFFFFFFFFFFFFFFFFFF AND MUL OR SWAP1 SSTORE POP PUSH1 0x1 DUP2 PUSH1 0x9 ADD PUSH1 0x0 PUSH2 0x100 EXP DUP2 SLOAD DUP2 PUSH1 0xFF MUL NOT AND SWAP1 DUP4 PUSH1 0x6 DUP2 GT ISZERO PUSH2 0x2D04 JUMPI PUSH2 0x2D03 PUSH2 0x5450 JUMP JUMPDEST JUMPDEST MUL OR SWAP1 SSTORE POP DUP5 DUP2 PUSH1 0xA ADD DUP2 SWAP1 SSTORE POP DUP4 DUP2 PUSH1 0xB ADD DUP2 SWAP1 SSTORE POP PUSH32 0x87183D3789B1ED6E1FE61DF24B9C535F4293A4BB26508C7692F9E670344900A0 PUSH1 0x2 SLOAD DUP10 CALLER DUP11 DUP10 DUP10 DUP13 PUSH1 0xF0 TIMESTAMP PUSH2 0x2D52 SWAP2 SWAP1 PUSH2 0x55EB JUMP JUMPDEST PUSH1 0xB4 PUSH1 0xF0 TIMESTAMP PUSH2 0x2D61 SWAP2 SWAP1 PUSH2 0x55EB JUMP JUMPDEST PUSH2 0x2D6B SWAP2 SWAP1 PUSH2 0x55EB JUMP JUMPDEST PUSH2 0x2D73 PUSH2 0x1417 JUMP JUMPDEST PUSH1 0x1 PUSH1 0x0 SWAP1 SLOAD SWAP1 PUSH2 0x100 EXP SWAP1 DIV PUSH20 0xFFFFFFFFFFFFFFFFFFFFFFFFFFFFFFFFFFFFFFFF AND PUSH20 0xFFFFFFFFFFFFFFFFFFFFFFFFFFFFFFFFFFFFFFFF AND PUSH4 0x18160DDD PUSH1 0x40 MLOAD DUP2 PUSH4 0xFFFFFFFF AND PUSH1 0xE0 SHL DUP2 MSTORE PUSH1 0x4 ADD PUSH1 0x20 PUSH1 0x40 MLOAD DUP1 DUP4 SUB DUP2 DUP7 GAS STATICCALL ISZERO DUP1 ISZERO PUSH2 0x2DE0 JUMPI RETURNDATASIZE PUSH1 0x0 DUP1 RETURNDATACOPY RETURNDATASIZE PUSH1 0x0 REVERT JUMPDEST POP POP POP POP PUSH1 0x40 MLOAD RETURNDATASIZE PUSH1 0x1F NOT PUSH1 0x1F DUP3 ADD AND DUP3 ADD DUP1 PUSH1 0x40 MSTORE POP DUP2 ADD SWAP1 PUSH2 0x2E04 SWAP2 SWAP1 PUSH2 0x5552 JUMP JUMPDEST PUSH1 0x40 MLOAD PUSH2 0x2E1B SWAP12 SWAP11 SWAP10 SWAP9 SWAP8 SWAP7 SWAP6 SWAP5 SWAP4 SWAP3 SWAP2 SWAP1 PUSH2 0x5EC3 JUMP JUMPDEST PUSH1 0x40 MLOAD DUP1 SWAP2 SUB SWAP1 LOG1 PUSH1 0x2 SLOAD SWAP3 POP POP POP SWAP6 SWAP5 POP POP POP POP POP JUMP JUMPDEST PUSH1 0x0 DUP1 PUSH1 0x0 SWAP1 SLOAD SWAP1 PUSH2 0x100 EXP SWAP1 DIV PUSH20 0xFFFFFFFFFFFFFFFFFFFFFFFFFFFFFFFFFFFFFFFF AND PUSH20 0xFFFFFFFFFFFFFFFFFFFFFFFFFFFFFFFFFFFFFFFF AND PUSH4 0x3B92EB23 PUSH1 0x40 MLOAD DUP2 PUSH4 0xFFFFFFFF AND PUSH1 0xE0 SHL DUP2 MSTORE PUSH1 0x4 ADD PUSH1 0x20 PUSH1 0x40 MLOAD DUP1 DUP4 SUB DUP2 DUP7 GAS STATICCALL ISZERO DUP1 ISZERO PUSH2 0x2EA1 JUMPI RETURNDATASIZE PUSH1 0x0 DUP1 RETURNDATACOPY RETURNDATASIZE PUSH1 0x0 REVERT JUMPDEST POP POP POP POP PUSH1 0x40 MLOAD RETURNDATASIZE PUSH1 0x1F NOT PUSH1 0x1F DUP3 ADD AND DUP3 ADD DUP1 PUSH1 0x40 MSTORE POP DUP2 ADD SWAP1 PUSH2 0x2EC5 SWAP2 SWAP1 PUSH2 0x590F JUMP JUMPDEST PUSH20 0xFFFFFFFFFFFFFFFFFFFFFFFFFFFFFFFFFFFFFFFF AND PUSH4 0x8332B831 PUSH1 0x40 MLOAD DUP2 PUSH4 0xFFFFFFFF AND PUSH1 0xE0 SHL DUP2 MSTORE PUSH1 0x4 ADD PUSH1 0x20 PUSH1 0x40 MLOAD DUP1 DUP4 SUB DUP2 DUP7 GAS STATICCALL ISZERO DUP1 ISZERO PUSH2 0x2F0F JUMPI RETURNDATASIZE PUSH1 0x0 DUP1 RETURNDATACOPY RETURNDATASIZE PUSH1 0x0 REVERT JUMPDEST POP POP POP POP PUSH1 0x40 MLOAD RETURNDATASIZE PUSH1 0x1F NOT PUSH1 0x1F DUP3 ADD AND DUP3 ADD DUP1 PUSH1 0x40 MSTORE POP DUP2 ADD SWAP1 PUSH2 0x2F33 SWAP2 SWAP1 PUSH2 0x5552 JUMP JUMPDEST SWAP1 POP SWAP1 JUMP JUMPDEST PUSH1 0x0 DUP1 PUSH1 0x0 DUP1 PUSH1 0x0 DUP1 PUSH1 0x5 PUSH1 0x0 DUP9 DUP2 MSTORE PUSH1 0x20 ADD SWAP1 DUP2 MSTORE PUSH1 0x20 ADD PUSH1 0x0 KECCAK256 SWAP1 POP DUP1 PUSH1 0x7 ADD SLOAD SWAP6 POP DUP1 PUSH1 0x8 ADD SLOAD SWAP5 POP DUP1 PUSH1 0xD ADD PUSH1 0x2 ADD SLOAD SWAP4 POP DUP1 PUSH1 0xD ADD PUSH1 0x3 ADD SLOAD SWAP3 POP DUP1 PUSH1 0x3 ADD SLOAD SWAP2 POP POP SWAP2 SWAP4 SWAP6 SWAP1 SWAP3 SWAP5 POP JUMP JUMPDEST PUSH1 0x0 DUP1 PUSH1 0x5 PUSH1 0x0 DUP5 DUP2 MSTORE PUSH1 0x20 ADD SWAP1 DUP2 MSTORE PUSH1 0x20 ADD PUSH1 0x0 KECCAK256 SWAP1 POP DUP1 PUSH1 0x9 ADD PUSH1 0x0 SWAP1 SLOAD SWAP1 PUSH2 0x100 EXP SWAP1 DIV PUSH1 0xFF AND PUSH1 0x6 DUP2 GT ISZERO PUSH2 0x2FC5 JUMPI PUSH2 0x2FC4 PUSH2 0x5450 JUMP JUMPDEST JUMPDEST SWAP2 POP POP SWAP2 SWAP1 POP JUMP JUMPDEST PUSH1 0x0 DUP1 SLOAD SWAP1 PUSH2 0x100 EXP SWAP1 DIV PUSH20 0xFFFFFFFFFFFFFFFFFFFFFFFFFFFFFFFFFFFFFFFF AND DUP2 JUMP JUMPDEST PUSH1 0x0 PUSH1 0x5 PUSH1 0x0 DUP5 DUP2 MSTORE PUSH1 0x20 ADD SWAP1 DUP2 MSTORE PUSH1 0x20 ADD PUSH1 0x0 KECCAK256 SWAP1 POP DUP1 PUSH1 0xC ADD PUSH1 0x0 CALLER PUSH20 0xFFFFFFFFFFFFFFFFFFFFFFFFFFFFFFFFFFFFFFFF AND PUSH20 0xFFFFFFFFFFFFFFFFFFFFFFFFFFFFFFFFFFFFFFFF AND DUP2 MSTORE PUSH1 0x20 ADD SWAP1 DUP2 MSTORE PUSH1 0x20 ADD PUSH1 0x0 KECCAK256 PUSH1 0x0 ADD PUSH1 0x0 SWAP1 SLOAD SWAP1 PUSH2 0x100 EXP SWAP1 DIV PUSH1 0xFF AND ISZERO PUSH2 0x309A JUMPI PUSH1 0x40 MLOAD PUSH32 0x8C379A000000000000000000000000000000000000000000000000000000000 DUP2 MSTORE PUSH1 0x4 ADD PUSH2 0x3091 SWAP1 PUSH2 0x5FCF JUMP JUMPDEST PUSH1 0x40 MLOAD DUP1 SWAP2 SUB SWAP1 REVERT JUMPDEST CALLER PUSH20 0xFFFFFFFFFFFFFFFFFFFFFFFFFFFFFFFFFFFFFFFF AND DUP3 PUSH20 0xFFFFFFFFFFFFFFFFFFFFFFFFFFFFFFFFFFFFFFFF AND EQ ISZERO PUSH2 0x3109 JUMPI PUSH1 0x40 MLOAD PUSH32 0x8C379A000000000000000000000000000000000000000000000000000000000 DUP2 MSTORE PUSH1 0x4 ADD PUSH2 0x3100 SWAP1 PUSH2 0x603B JUMP JUMPDEST PUSH1 0x40 MLOAD DUP1 SWAP2 SUB SWAP1 REVERT JUMPDEST PUSH1 0x0 PUSH1 0x6 DUP2 GT ISZERO PUSH2 0x311D JUMPI PUSH2 0x311C PUSH2 0x5450 JUMP JUMPDEST JUMPDEST DUP2 PUSH1 0x9 ADD PUSH1 0x0 SWAP1 SLOAD SWAP1 PUSH2 0x100 EXP SWAP1 DIV PUSH1 0xFF AND PUSH1 0x6 DUP2 GT ISZERO PUSH2 0x3141 JUMPI PUSH2 0x3140 PUSH2 0x5450 JUMP JUMPDEST JUMPDEST EQ ISZERO PUSH2 0x3182 JUMPI PUSH1 0x40 MLOAD PUSH32 0x8C379A000000000000000000000000000000000000000000000000000000000 DUP2 MSTORE PUSH1 0x4 ADD PUSH2 0x3179 SWAP1 PUSH2 0x59DB JUMP JUMPDEST PUSH1 0x40 MLOAD DUP1 SWAP2 SUB SWAP1 REVERT JUMPDEST PUSH1 0x0 PUSH1 0x1 PUSH1 0x0 SWAP1 SLOAD SWAP1 PUSH2 0x100 EXP SWAP1 DIV PUSH20 0xFFFFFFFFFFFFFFFFFFFFFFFFFFFFFFFFFFFFFFFF AND PUSH20 0xFFFFFFFFFFFFFFFFFFFFFFFFFFFFFFFFFFFFFFFF AND PUSH4 0x98DC8378 CALLER PUSH1 0x40 MLOAD DUP3 PUSH4 0xFFFFFFFF AND PUSH1 0xE0 SHL DUP2 MSTORE PUSH1 0x4 ADD PUSH2 0x31DF SWAP2 SWAP1 PUSH2 0x504B JUMP JUMPDEST PUSH1 0x20 PUSH1 0x40 MLOAD DUP1 DUP4 SUB DUP2 DUP7 GAS STATICCALL ISZERO DUP1 ISZERO PUSH2 0x31FC JUMPI RETURNDATASIZE PUSH1 0x0 DUP1 RETURNDATACOPY RETURNDATASIZE PUSH1 0x0 REVERT JUMPDEST POP POP POP POP PUSH1 0x40 MLOAD RETURNDATASIZE PUSH1 0x1F NOT PUSH1 0x1F DUP3 ADD AND DUP3 ADD DUP1 PUSH1 0x40 MSTORE POP DUP2 ADD SWAP1 PUSH2 0x3220 SWAP2 SWAP1 PUSH2 0x5552 JUMP JUMPDEST GT PUSH2 0x3260 JUMPI PUSH1 0x40 MLOAD PUSH32 0x8C379A000000000000000000000000000000000000000000000000000000000 DUP2 MSTORE PUSH1 0x4 ADD PUSH2 0x3257 SWAP1 PUSH2 0x60A7 JUMP JUMPDEST PUSH1 0x40 MLOAD DUP1 SWAP2 SUB SWAP1 REVERT JUMPDEST PUSH1 0x0 DUP2 PUSH1 0xC ADD PUSH1 0x0 CALLER PUSH20 0xFFFFFFFFFFFFFFFFFFFFFFFFFFFFFFFFFFFFFFFF AND PUSH20 0xFFFFFFFFFFFFFFFFFFFFFFFFFFFFFFFFFFFFFFFF AND DUP2 MSTORE PUSH1 0x20 ADD SWAP1 DUP2 MSTORE PUSH1 0x20 ADD PUSH1 0x0 KECCAK256 PUSH1 0x1 ADD DUP1 SLOAD SWAP1 POP EQ PUSH2 0x32EA JUMPI PUSH1 0x40 MLOAD PUSH32 0x8C379A000000000000000000000000000000000000000000000000000000000 DUP2 MSTORE PUSH1 0x4 ADD PUSH2 0x32E1 SWAP1 PUSH2 0x6113 JUMP JUMPDEST PUSH1 0x40 MLOAD DUP1 SWAP2 SUB SWAP1 REVERT JUMPDEST DUP1 PUSH1 0xC ADD PUSH1 0x0 DUP4 PUSH20 0xFFFFFFFFFFFFFFFFFFFFFFFFFFFFFFFFFFFFFFFF AND PUSH20 0xFFFFFFFFFFFFFFFFFFFFFFFFFFFFFFFFFFFFFFFF AND DUP2 MSTORE PUSH1 0x20 ADD SWAP1 DUP2 MSTORE PUSH1 0x20 ADD PUSH1 0x0 KECCAK256 PUSH1 0x1 ADD CALLER SWAP1 DUP1 PUSH1 0x1 DUP2 SLOAD ADD DUP1 DUP3 SSTORE DUP1 SWAP2 POP POP PUSH1 0x1 SWAP1 SUB SWAP1 PUSH1 0x0 MSTORE PUSH1 0x20 PUSH1 0x0 KECCAK256 ADD PUSH1 0x0 SWAP1 SWAP2 SWAP1 SWAP2 SWAP1 SWAP2 PUSH2 0x100 EXP DUP2 SLOAD DUP2 PUSH20 0xFFFFFFFFFFFFFFFFFFFFFFFFFFFFFFFFFFFFFFFF MUL NOT AND SWAP1 DUP4 PUSH20 0xFFFFFFFFFFFFFFFFFFFFFFFFFFFFFFFFFFFFFFFF AND MUL OR SWAP1 SSTORE POP PUSH1 0x1 DUP2 PUSH1 0xC ADD PUSH1 0x0 CALLER PUSH20 0xFFFFFFFFFFFFFFFFFFFFFFFFFFFFFFFFFFFFFFFF AND PUSH20 0xFFFFFFFFFFFFFFFFFFFFFFFFFFFFFFFFFFFFFFFF AND DUP2 MSTORE PUSH1 0x20 ADD SWAP1 DUP2 MSTORE PUSH1 0x20 ADD PUSH1 0x0 KECCAK256 PUSH1 0x0 ADD PUSH1 0x0 PUSH2 0x100 EXP DUP2 SLOAD DUP2 PUSH1 0xFF MUL NOT AND SWAP1 DUP4 ISZERO ISZERO MUL OR SWAP1 SSTORE POP DUP1 PUSH1 0xD ADD PUSH1 0x4 ADD PUSH1 0x0 DUP4 PUSH20 0xFFFFFFFFFFFFFFFFFFFFFFFFFFFFFFFFFFFFFFFF AND PUSH20 0xFFFFFFFFFFFFFFFFFFFFFFFFFFFFFFFFFFFFFFFF AND DUP2 MSTORE PUSH1 0x20 ADD SWAP1 DUP2 MSTORE PUSH1 0x20 ADD PUSH1 0x0 KECCAK256 PUSH1 0x1 ADD CALLER SWAP1 DUP1 PUSH1 0x1 DUP2 SLOAD ADD DUP1 DUP3 SSTORE DUP1 SWAP2 POP POP PUSH1 0x1 SWAP1 SUB SWAP1 PUSH1 0x0 MSTORE PUSH1 0x20 PUSH1 0x0 KECCAK256 ADD PUSH1 0x0 SWAP1 SWAP2 SWAP1 SWAP2 SWAP1 SWAP2 PUSH2 0x100 EXP DUP2 SLOAD DUP2 PUSH20 0xFFFFFFFFFFFFFFFFFFFFFFFFFFFFFFFFFFFFFFFF MUL NOT AND SWAP1 DUP4 PUSH20 0xFFFFFFFFFFFFFFFFFFFFFFFFFFFFFFFFFFFFFFFF AND MUL OR SWAP1 SSTORE POP PUSH1 0x1 DUP2 PUSH1 0xD ADD PUSH1 0x4 ADD PUSH1 0x0 CALLER PUSH20 0xFFFFFFFFFFFFFFFFFFFFFFFFFFFFFFFFFFFFFFFF AND PUSH20 0xFFFFFFFFFFFFFFFFFFFFFFFFFFFFFFFFFFFFFFFF AND DUP2 MSTORE PUSH1 0x20 ADD SWAP1 DUP2 MSTORE PUSH1 0x20 ADD PUSH1 0x0 KECCAK256 PUSH1 0x0 ADD PUSH1 0x0 PUSH2 0x100 EXP DUP2 SLOAD DUP2 PUSH1 0xFF MUL NOT AND SWAP1 DUP4 ISZERO ISZERO MUL OR SWAP1 SSTORE POP DUP3 PUSH32 0xA9860E62EB02A47E1D5D5253A79D90BC96CD33C299D874F5B7710D0A61B63CCC DUP4 PUSH1 0x40 MLOAD PUSH2 0x3524 SWAP2 SWAP1 PUSH2 0x504B JUMP JUMPDEST PUSH1 0x40 MLOAD DUP1 SWAP2 SUB SWAP1 LOG2 POP POP POP JUMP JUMPDEST PUSH1 0x0 PUSH1 0x5 PUSH1 0x0 DUP4 DUP2 MSTORE PUSH1 0x20 ADD SWAP1 DUP2 MSTORE PUSH1 0x20 ADD PUSH1 0x0 KECCAK256 SWAP1 POP PUSH1 0x7 PUSH1 0x0 DUP4 DUP2 MSTORE PUSH1 0x20 ADD SWAP1 DUP2 MSTORE PUSH1 0x20 ADD PUSH1 0x0 KECCAK256 PUSH1 0x0 SWAP1 SLOAD SWAP1 PUSH2 0x100 EXP SWAP1 DIV PUSH1 0xFF AND ISZERO PUSH2 0x35A9 JUMPI PUSH1 0x40 MLOAD PUSH32 0x8C379A000000000000000000000000000000000000000000000000000000000 DUP2 MSTORE PUSH1 0x4 ADD PUSH2 0x35A0 SWAP1 PUSH2 0x617F JUMP JUMPDEST PUSH1 0x40 MLOAD DUP1 SWAP2 SUB SWAP1 REVERT JUMPDEST PUSH1 0x0 PUSH1 0x6 DUP2 GT ISZERO PUSH2 0x35BD JUMPI PUSH2 0x35BC PUSH2 0x5450 JUMP JUMPDEST JUMPDEST DUP2 PUSH1 0x9 ADD PUSH1 0x0 SWAP1 SLOAD SWAP1 PUSH2 0x100 EXP SWAP1 DIV PUSH1 0xFF AND PUSH1 0x6 DUP2 GT ISZERO PUSH2 0x35E1 JUMPI PUSH2 0x35E0 PUSH2 0x5450 JUMP JUMPDEST JUMPDEST EQ ISZERO PUSH2 0x3622 JUMPI PUSH1 0x40 MLOAD PUSH32 0x8C379A000000000000000000000000000000000000000000000000000000000 DUP2 MSTORE PUSH1 0x4 ADD PUSH2 0x3619 SWAP1 PUSH2 0x59DB JUMP JUMPDEST PUSH1 0x40 MLOAD DUP1 SWAP2 SUB SWAP1 REVERT JUMPDEST PUSH1 0x0 PUSH1 0x2 DUP2 GT ISZERO PUSH2 0x3636 JUMPI PUSH2 0x3635 PUSH2 0x5450 JUMP JUMPDEST JUMPDEST PUSH2 0x363E PUSH2 0x2607 JUMP JUMPDEST PUSH20 0xFFFFFFFFFFFFFFFFFFFFFFFFFFFFFFFFFFFFFFFF AND PUSH4 0xD58BFA9D PUSH1 0x40 MLOAD DUP2 PUSH4 0xFFFFFFFF AND PUSH1 0xE0 SHL DUP2 MSTORE PUSH1 0x4 ADD PUSH1 0x20 PUSH1 0x40 MLOAD DUP1 DUP4 SUB DUP2 DUP7 GAS STATICCALL ISZERO DUP1 ISZERO PUSH2 0x3688 JUMPI RETURNDATASIZE PUSH1 0x0 DUP1 RETURNDATACOPY RETURNDATASIZE PUSH1 0x0 REVERT JUMPDEST POP POP POP POP PUSH1 0x40 MLOAD RETURNDATASIZE PUSH1 0x1F NOT PUSH1 0x1F DUP3 ADD AND DUP3 ADD DUP1 PUSH1 0x40 MSTORE POP DUP2 ADD SWAP1 PUSH2 0x36AC SWAP2 SWAP1 PUSH2 0x54A4 JUMP JUMPDEST PUSH1 0x2 DUP2 GT ISZERO PUSH2 0x36BE JUMPI PUSH2 0x36BD PUSH2 0x5450 JUMP JUMPDEST JUMPDEST EQ PUSH2 0x36FE JUMPI PUSH1 0x40 MLOAD PUSH32 0x8C379A000000000000000000000000000000000000000000000000000000000 DUP2 MSTORE PUSH1 0x4 ADD PUSH2 0x36F5 SWAP1 PUSH2 0x551D JUMP JUMPDEST PUSH1 0x40 MLOAD DUP1 SWAP2 SUB SWAP1 REVERT JUMPDEST PUSH1 0x2 DUP1 DUP2 GT ISZERO PUSH2 0x3711 JUMPI PUSH2 0x3710 PUSH2 0x5450 JUMP JUMPDEST JUMPDEST PUSH2 0x3719 PUSH2 0x2607 JUMP JUMPDEST PUSH20 0xFFFFFFFFFFFFFFFFFFFFFFFFFFFFFFFFFFFFFFFF AND PUSH4 0xD58BFA9D PUSH1 0x40 MLOAD DUP2 PUSH4 0xFFFFFFFF AND PUSH1 0xE0 SHL DUP2 MSTORE PUSH1 0x4 ADD PUSH1 0x20 PUSH1 0x40 MLOAD DUP1 DUP4 SUB DUP2 DUP7 GAS STATICCALL ISZERO DUP1 ISZERO PUSH2 0x3763 JUMPI RETURNDATASIZE PUSH1 0x0 DUP1 RETURNDATACOPY RETURNDATASIZE PUSH1 0x0 REVERT JUMPDEST POP POP POP POP PUSH1 0x40 MLOAD RETURNDATASIZE PUSH1 0x1F NOT PUSH1 0x1F DUP3 ADD AND DUP3 ADD DUP1 PUSH1 0x40 MSTORE POP DUP2 ADD SWAP1 PUSH2 0x3787 SWAP2 SWAP1 PUSH2 0x54A4 JUMP JUMPDEST PUSH1 0x2 DUP2 GT ISZERO PUSH2 0x3799 JUMPI PUSH2 0x3798 PUSH2 0x5450 JUMP JUMPDEST JUMPDEST EQ ISZERO PUSH2 0x37DA JUMPI PUSH1 0x40 MLOAD PUSH32 0x8C379A000000000000000000000000000000000000000000000000000000000 DUP2 MSTORE PUSH1 0x4 ADD PUSH2 0x37D1 SWAP1 PUSH2 0x61EB JUMP JUMPDEST PUSH1 0x40 MLOAD DUP1 SWAP2 SUB SWAP1 REVERT JUMPDEST PUSH1 0x1 PUSH1 0x6 DUP2 GT ISZERO PUSH2 0x37EE JUMPI PUSH2 0x37ED PUSH2 0x5450 JUMP JUMPDEST JUMPDEST DUP2 PUSH1 0x9 ADD PUSH1 0x0 SWAP1 SLOAD SWAP1 PUSH2 0x100 EXP SWAP1 DIV PUSH1 0xFF AND PUSH1 0x6 DUP2 GT ISZERO PUSH2 0x3812 JUMPI PUSH2 0x3811 PUSH2 0x5450 JUMP JUMPDEST JUMPDEST EQ ISZERO PUSH2 0x3AF3 JUMPI PUSH1 0xB4 DUP2 PUSH1 0x3 ADD SLOAD PUSH2 0x3829 SWAP2 SWAP1 PUSH2 0x55EB JUMP JUMPDEST TIMESTAMP GT PUSH2 0x386A JUMPI PUSH1 0x40 MLOAD PUSH32 0x8C379A000000000000000000000000000000000000000000000000000000000 DUP2 MSTORE PUSH1 0x4 ADD PUSH2 0x3861 SWAP1 PUSH2 0x578B JUMP JUMPDEST PUSH1 0x40 MLOAD DUP1 SWAP2 SUB SWAP1 REVERT JUMPDEST PUSH1 0x5 DUP2 PUSH1 0xA ADD SLOAD EQ ISZERO PUSH2 0x39CA JUMPI PUSH1 0x0 PUSH1 0x9 PUSH1 0x0 PUSH1 0x1 DUP2 MSTORE PUSH1 0x20 ADD SWAP1 DUP2 MSTORE PUSH1 0x20 ADD PUSH1 0x0 KECCAK256 PUSH1 0x0 PUSH2 0x100 EXP DUP2 SLOAD DUP2 PUSH1 0xFF MUL NOT AND SWAP1 DUP4 ISZERO ISZERO MUL OR SWAP1 SSTORE POP PUSH1 0x64 PUSH1 0x1E DUP3 PUSH1 0x1 ADD SLOAD PUSH2 0x38B7 SWAP2 SWAP1 PUSH2 0x5396 JUMP JUMPDEST PUSH2 0x38C1 SWAP2 SWAP1 PUSH2 0x541F JUMP JUMPDEST DUP2 PUSH1 0x7 ADD SLOAD DUP3 PUSH1 0x8 ADD SLOAD PUSH2 0x38D5 SWAP2 SWAP1 PUSH2 0x55EB JUMP JUMPDEST LT DUP1 PUSH2 0x390F JUMPI POP PUSH1 0x3C DUP2 PUSH1 0x7 ADD SLOAD DUP3 PUSH1 0x8 ADD SLOAD PUSH2 0x38F2 SWAP2 SWAP1 PUSH2 0x55EB JUMP JUMPDEST PUSH1 0x64 DUP4 PUSH1 0x7 ADD SLOAD PUSH2 0x3903 SWAP2 SWAP1 PUSH2 0x5396 JUMP JUMPDEST PUSH2 0x390D SWAP2 SWAP1 PUSH2 0x541F JUMP JUMPDEST LT JUMPDEST ISZERO PUSH2 0x39C9 JUMPI PUSH1 0x3 DUP2 PUSH1 0x9 ADD PUSH1 0x0 PUSH2 0x100 EXP DUP2 SLOAD DUP2 PUSH1 0xFF MUL NOT AND SWAP1 DUP4 PUSH1 0x6 DUP2 GT ISZERO PUSH2 0x393C JUMPI PUSH2 0x393B PUSH2 0x5450 JUMP JUMPDEST JUMPDEST MUL OR SWAP1 SSTORE POP PUSH1 0x3 DUP3 SWAP1 DUP1 PUSH1 0x1 DUP2 SLOAD ADD DUP1 DUP3 SSTORE DUP1 SWAP2 POP POP PUSH1 0x1 SWAP1 SUB SWAP1 PUSH1 0x0 MSTORE PUSH1 0x20 PUSH1 0x0 KECCAK256 ADD PUSH1 0x0 SWAP1 SWAP2 SWAP1 SWAP2 SWAP1 SWAP2 POP SSTORE PUSH1 0x1 PUSH1 0x7 PUSH1 0x0 DUP5 DUP2 MSTORE PUSH1 0x20 ADD SWAP1 DUP2 MSTORE PUSH1 0x20 ADD PUSH1 0x0 KECCAK256 PUSH1 0x0 PUSH2 0x100 EXP DUP2 SLOAD DUP2 PUSH1 0xFF MUL NOT AND SWAP1 DUP4 ISZERO ISZERO MUL OR SWAP1 SSTORE POP DUP2 PUSH32 0x3CB3FE21D744D74C57D66C7D09A5D7D3255E615A7B36FD683FBC28DB6A675F4C PUSH1 0x40 MLOAD PUSH1 0x40 MLOAD DUP1 SWAP2 SUB SWAP1 LOG2 POP PUSH2 0x3EE6 JUMP JUMPDEST JUMPDEST PUSH1 0x64 PUSH1 0x1E DUP3 PUSH1 0x1 ADD SLOAD PUSH2 0x39DD SWAP2 SWAP1 PUSH2 0x5396 JUMP JUMPDEST PUSH2 0x39E7 SWAP2 SWAP1 PUSH2 0x541F JUMP JUMPDEST DUP2 PUSH1 0x7 ADD SLOAD DUP3 PUSH1 0x8 ADD SLOAD PUSH2 0x39FB SWAP2 SWAP1 PUSH2 0x55EB JUMP JUMPDEST LT ISZERO PUSH2 0x3A3C JUMPI PUSH1 0x40 MLOAD PUSH32 0x8C379A000000000000000000000000000000000000000000000000000000000 DUP2 MSTORE PUSH1 0x4 ADD PUSH2 0x3A33 SWAP1 PUSH2 0x568D JUMP JUMPDEST PUSH1 0x40 MLOAD DUP1 SWAP2 SUB SWAP1 REVERT JUMPDEST PUSH1 0x3C DUP2 PUSH1 0x7 ADD SLOAD DUP3 PUSH1 0x8 ADD SLOAD PUSH2 0x3A52 SWAP2 SWAP1 PUSH2 0x55EB JUMP JUMPDEST PUSH1 0x64 DUP4 PUSH1 0x7 ADD SLOAD PUSH2 0x3A63 SWAP2 SWAP1 PUSH2 0x5396 JUMP JUMPDEST PUSH2 0x3A6D SWAP2 SWAP1 PUSH2 0x541F JUMP JUMPDEST LT ISZERO PUSH2 0x3AAE JUMPI PUSH1 0x40 MLOAD PUSH32 0x8C379A000000000000000000000000000000000000000000000000000000000 DUP2 MSTORE PUSH1 0x4 ADD PUSH2 0x3AA5 SWAP1 PUSH2 0x571F JUMP JUMPDEST PUSH1 0x40 MLOAD DUP1 SWAP2 SUB SWAP1 REVERT JUMPDEST PUSH1 0x2 DUP2 PUSH1 0x9 ADD PUSH1 0x0 PUSH2 0x100 EXP DUP2 SLOAD DUP2 PUSH1 0xFF MUL NOT AND SWAP1 DUP4 PUSH1 0x6 DUP2 GT ISZERO PUSH2 0x3AD6 JUMPI PUSH2 0x3AD5 PUSH2 0x5450 JUMP JUMPDEST JUMPDEST MUL OR SWAP1 SSTORE POP PUSH2 0x3AEE DUP3 DUP3 PUSH1 0xA ADD SLOAD DUP4 PUSH1 0xB ADD SLOAD PUSH2 0x3EE9 JUMP JUMPDEST PUSH2 0x3EB7 JUMP JUMPDEST PUSH1 0x5 PUSH1 0x6 DUP2 GT ISZERO PUSH2 0x3B07 JUMPI PUSH2 0x3B06 PUSH2 0x5450 JUMP JUMPDEST JUMPDEST DUP2 PUSH1 0x9 ADD PUSH1 0x0 SWAP1 SLOAD SWAP1 PUSH2 0x100 EXP SWAP1 DIV PUSH1 0xFF AND PUSH1 0x6 DUP2 GT ISZERO PUSH2 0x3B2B JUMPI PUSH2 0x3B2A PUSH2 0x5450 JUMP JUMPDEST JUMPDEST EQ ISZERO PUSH2 0x3E7B JUMPI DUP1 PUSH1 0x3 ADD SLOAD TIMESTAMP GT PUSH2 0x3B77 JUMPI PUSH1 0x40 MLOAD PUSH32 0x8C379A000000000000000000000000000000000000000000000000000000000 DUP2 MSTORE PUSH1 0x4 ADD PUSH2 0x3B6E SWAP1 PUSH2 0x578B JUMP JUMPDEST PUSH1 0x40 MLOAD DUP1 SWAP2 SUB SWAP1 REVERT JUMPDEST PUSH1 0x5 DUP2 PUSH1 0xA ADD SLOAD EQ ISZERO PUSH2 0x3CB1 JUMPI PUSH1 0x3 DUP2 PUSH1 0x9 ADD PUSH1 0x0 PUSH2 0x100 EXP DUP2 SLOAD DUP2 PUSH1 0xFF MUL NOT AND SWAP1 DUP4 PUSH1 0x6 DUP2 GT ISZERO PUSH2 0x3BAC JUMPI PUSH2 0x3BAB PUSH2 0x5450 JUMP JUMPDEST JUMPDEST MUL OR SWAP1 SSTORE POP PUSH2 0x3BB9 PUSH2 0x2607 JUMP JUMPDEST PUSH20 0xFFFFFFFFFFFFFFFFFFFFFFFFFFFFFFFFFFFFFFFF AND PUSH4 0xE77AE39B PUSH1 0x0 DUP1 PUSH1 0x0 PUSH1 0x40 MLOAD DUP5 PUSH4 0xFFFFFFFF AND PUSH1 0xE0 SHL DUP2 MSTORE PUSH1 0x4 ADD PUSH2 0x3BF7 SWAP4 SWAP3 SWAP2 SWAP1 PUSH2 0x62DA JUMP JUMPDEST PUSH1 0x0 PUSH1 0x40 MLOAD DUP1 DUP4 SUB DUP2 PUSH1 0x0 DUP8 DUP1 EXTCODESIZE ISZERO DUP1 ISZERO PUSH2 0x3C11 JUMPI PUSH1 0x0 DUP1 REVERT JUMPDEST POP GAS CALL ISZERO DUP1 ISZERO PUSH2 0x3C25 JUMPI RETURNDATASIZE PUSH1 0x0 DUP1 RETURNDATACOPY RETURNDATASIZE PUSH1 0x0 REVERT JUMPDEST POP POP POP POP PUSH1 0x3 DUP3 SWAP1 DUP1 PUSH1 0x1 DUP2 SLOAD ADD DUP1 DUP3 SSTORE DUP1 SWAP2 POP POP PUSH1 0x1 SWAP1 SUB SWAP1 PUSH1 0x0 MSTORE PUSH1 0x20 PUSH1 0x0 KECCAK256 ADD PUSH1 0x0 SWAP1 SWAP2 SWAP1 SWAP2 SWAP1 SWAP2 POP SSTORE PUSH1 0x1 PUSH1 0x7 PUSH1 0x0 DUP5 DUP2 MSTORE PUSH1 0x20 ADD SWAP1 DUP2 MSTORE PUSH1 0x20 ADD PUSH1 0x0 KECCAK256 PUSH1 0x0 PUSH2 0x100 EXP DUP2 SLOAD DUP2 PUSH1 0xFF MUL NOT AND SWAP1 DUP4 ISZERO ISZERO MUL OR SWAP1 SSTORE POP DUP2 PUSH32 0x3CB3FE21D744D74C57D66C7D09A5D7D3255E615A7B36FD683FBC28DB6A675F4C PUSH1 0x40 MLOAD PUSH1 0x40 MLOAD DUP1 SWAP2 SUB SWAP1 LOG2 POP PUSH2 0x3EE6 JUMP JUMPDEST DUP1 PUSH1 0x7 ADD SLOAD DUP2 PUSH1 0xD ADD PUSH1 0x2 ADD SLOAD LT PUSH2 0x3CFE JUMPI PUSH1 0x40 MLOAD PUSH32 0x8C379A000000000000000000000000000000000000000000000000000000000 DUP2 MSTORE PUSH1 0x4 ADD PUSH2 0x3CF5 SWAP1 PUSH2 0x6396 JUMP JUMPDEST PUSH1 0x40 MLOAD DUP1 SWAP2 SUB SWAP1 REVERT JUMPDEST DUP1 PUSH1 0x7 ADD SLOAD DUP2 PUSH1 0xD ADD PUSH1 0x2 ADD SLOAD LT ISZERO PUSH2 0x3DE9 JUMPI PUSH1 0x3 DUP2 PUSH1 0x9 ADD PUSH1 0x0 PUSH2 0x100 EXP DUP2 SLOAD DUP2 PUSH1 0xFF MUL NOT AND SWAP1 DUP4 PUSH1 0x6 DUP2 GT ISZERO PUSH2 0x3D39 JUMPI PUSH2 0x3D38 PUSH2 0x5450 JUMP JUMPDEST JUMPDEST MUL OR SWAP1 SSTORE POP PUSH2 0x3D46 PUSH2 0x2607 JUMP JUMPDEST PUSH20 0xFFFFFFFFFFFFFFFFFFFFFFFFFFFFFFFFFFFFFFFF AND PUSH4 0xE77AE39B PUSH1 0x0 DUP1 PUSH1 0x0 PUSH1 0x40 MLOAD DUP5 PUSH4 0xFFFFFFFF AND PUSH1 0xE0 SHL DUP2 MSTORE PUSH1 0x4 ADD PUSH2 0x3D84 SWAP4 SWAP3 SWAP2 SWAP1 PUSH2 0x62DA JUMP JUMPDEST PUSH1 0x0 PUSH1 0x40 MLOAD DUP1 DUP4 SUB DUP2 PUSH1 0x0 DUP8 DUP1 EXTCODESIZE ISZERO DUP1 ISZERO PUSH2 0x3D9E JUMPI PUSH1 0x0 DUP1 REVERT JUMPDEST POP GAS CALL ISZERO DUP1 ISZERO PUSH2 0x3DB2 JUMPI RETURNDATASIZE PUSH1 0x0 DUP1 RETURNDATACOPY RETURNDATASIZE PUSH1 0x0 REVERT JUMPDEST POP POP POP POP DUP2 PUSH32 0x3CB3FE21D744D74C57D66C7D09A5D7D3255E615A7B36FD683FBC28DB6A675F4C PUSH1 0x40 MLOAD PUSH1 0x40 MLOAD DUP1 SWAP2 SUB SWAP1 LOG2 POP PUSH2 0x3EE6 JUMP JUMPDEST DUP1 PUSH1 0x7 ADD SLOAD DUP2 PUSH1 0xD ADD PUSH1 0x2 ADD SLOAD GT PUSH2 0x3E36 JUMPI PUSH1 0x40 MLOAD PUSH32 0x8C379A000000000000000000000000000000000000000000000000000000000 DUP2 MSTORE PUSH1 0x4 ADD PUSH2 0x3E2D SWAP1 PUSH2 0x6396 JUMP JUMPDEST PUSH1 0x40 MLOAD DUP1 SWAP2 SUB SWAP1 REVERT JUMPDEST PUSH1 0x2 DUP2 PUSH1 0x9 ADD PUSH1 0x0 PUSH2 0x100 EXP DUP2 SLOAD DUP2 PUSH1 0xFF MUL NOT AND SWAP1 DUP4 PUSH1 0x6 DUP2 GT ISZERO PUSH2 0x3E5E JUMPI PUSH2 0x3E5D PUSH2 0x5450 JUMP JUMPDEST JUMPDEST MUL OR SWAP1 SSTORE POP PUSH2 0x3E76 DUP3 DUP3 PUSH1 0xA ADD SLOAD DUP4 PUSH1 0xB ADD SLOAD PUSH2 0x3EE9 JUMP JUMPDEST PUSH2 0x3EB6 JUMP JUMPDEST PUSH1 0x40 MLOAD PUSH32 0x8C379A000000000000000000000000000000000000000000000000000000000 DUP2 MSTORE PUSH1 0x4 ADD PUSH2 0x3EAD SWAP1 PUSH2 0x578B JUMP JUMPDEST PUSH1 0x40 MLOAD DUP1 SWAP2 SUB SWAP1 REVERT JUMPDEST JUMPDEST DUP2 PUSH32 0xA6B4889FBC6222293F94AC3C68C40FA4C027B86B0DFE4F820475C7D8828A2436 PUSH1 0x40 MLOAD PUSH1 0x40 MLOAD DUP1 SWAP2 SUB SWAP1 LOG2 POP JUMPDEST POP JUMP JUMPDEST PUSH1 0x3 DUP4 SWAP1 DUP1 PUSH1 0x1 DUP2 SLOAD ADD DUP1 DUP3 SSTORE DUP1 SWAP2 POP POP PUSH1 0x1 SWAP1 SUB SWAP1 PUSH1 0x0 MSTORE PUSH1 0x20 PUSH1 0x0 KECCAK256 ADD PUSH1 0x0 SWAP1 SWAP2 SWAP1 SWAP2 SWAP1 SWAP2 POP SSTORE PUSH1 0x1 PUSH1 0x7 PUSH1 0x0 DUP6 DUP2 MSTORE PUSH1 0x20 ADD SWAP1 DUP2 MSTORE PUSH1 0x20 ADD PUSH1 0x0 KECCAK256 PUSH1 0x0 PUSH2 0x100 EXP DUP2 SLOAD DUP2 PUSH1 0xFF MUL NOT AND SWAP1 DUP4 ISZERO ISZERO MUL OR SWAP1 SSTORE POP PUSH1 0x1 DUP3 EQ ISZERO PUSH2 0x3F55 JUMPI PUSH2 0x3F50 DUP2 PUSH2 0x44A5 JUMP JUMPDEST PUSH2 0x44A0 JUMP JUMPDEST PUSH1 0x2 DUP3 EQ ISZERO PUSH2 0x3F6C JUMPI PUSH2 0x3F67 DUP2 PUSH2 0x44B1 JUMP JUMPDEST PUSH2 0x449F JUMP JUMPDEST PUSH1 0x3 DUP3 EQ ISZERO PUSH2 0x3F83 JUMPI PUSH2 0x3F7E DUP2 PUSH2 0x44FB JUMP JUMPDEST PUSH2 0x449E JUMP JUMPDEST PUSH1 0x4 DUP3 EQ ISZERO PUSH2 0x4489 JUMPI PUSH1 0x0 DUP1 PUSH1 0x0 DUP1 SLOAD SWAP1 PUSH2 0x100 EXP SWAP1 DIV PUSH20 0xFFFFFFFFFFFFFFFFFFFFFFFFFFFFFFFFFFFFFFFF AND PUSH20 0xFFFFFFFFFFFFFFFFFFFFFFFFFFFFFFFFFFFFFFFF AND PUSH4 0xA21D1354 PUSH1 0x40 MLOAD DUP2 PUSH4 0xFFFFFFFF AND PUSH1 0xE0 SHL DUP2 MSTORE PUSH1 0x4 ADD PUSH1 0x0 PUSH1 0x40 MLOAD DUP1 DUP4 SUB DUP2 DUP7 GAS STATICCALL ISZERO DUP1 ISZERO PUSH2 0x3FFA JUMPI RETURNDATASIZE PUSH1 0x0 DUP1 RETURNDATACOPY RETURNDATASIZE PUSH1 0x0 REVERT JUMPDEST POP POP POP POP PUSH1 0x40 MLOAD RETURNDATASIZE PUSH1 0x0 DUP3 RETURNDATACOPY RETURNDATASIZE PUSH1 0x1F NOT PUSH1 0x1F DUP3 ADD AND DUP3 ADD DUP1 PUSH1 0x40 MSTORE POP DUP2 ADD SWAP1 PUSH2 0x4023 SWAP2 SWAP1 PUSH2 0x6460 JUMP JUMPDEST SWAP2 POP SWAP2 POP PUSH1 0x0 DUP1 PUSH1 0x0 SWAP1 SLOAD SWAP1 PUSH2 0x100 EXP SWAP1 DIV PUSH20 0xFFFFFFFFFFFFFFFFFFFFFFFFFFFFFFFFFFFFFFFF AND PUSH20 0xFFFFFFFFFFFFFFFFFFFFFFFFFFFFFFFFFFFFFFFF AND PUSH4 0xC45A0155 PUSH1 0x40 MLOAD DUP2 PUSH4 0xFFFFFFFF AND PUSH1 0xE0 SHL DUP2 MSTORE PUSH1 0x4 ADD PUSH1 0x20 PUSH1 0x40 MLOAD DUP1 DUP4 SUB DUP2 DUP7 GAS STATICCALL ISZERO DUP1 ISZERO PUSH2 0x4095 JUMPI RETURNDATASIZE PUSH1 0x0 DUP1 RETURNDATACOPY RETURNDATASIZE PUSH1 0x0 REVERT JUMPDEST POP POP POP POP PUSH1 0x40 MLOAD RETURNDATASIZE PUSH1 0x1F NOT PUSH1 0x1F DUP3 ADD AND DUP3 ADD DUP1 PUSH1 0x40 MSTORE POP DUP2 ADD SWAP1 PUSH2 0x40B9 SWAP2 SWAP1 PUSH2 0x590F JUMP JUMPDEST SWAP1 POP PUSH1 0x0 DUP2 PUSH20 0xFFFFFFFFFFFFFFFFFFFFFFFFFFFFFFFFFFFFFFFF AND PUSH4 0x816D116F DUP6 DUP6 PUSH1 0x40 MLOAD DUP4 PUSH4 0xFFFFFFFF AND PUSH1 0xE0 SHL DUP2 MSTORE PUSH1 0x4 ADD PUSH2 0x40F8 SWAP3 SWAP2 SWAP1 PUSH2 0x64CB JUMP JUMPDEST PUSH1 0x20 PUSH1 0x40 MLOAD DUP1 DUP4 SUB DUP2 PUSH1 0x0 DUP8 GAS CALL ISZERO DUP1 ISZERO PUSH2 0x4117 JUMPI RETURNDATASIZE PUSH1 0x0 DUP1 RETURNDATACOPY RETURNDATASIZE PUSH1 0x0 REVERT JUMPDEST POP POP POP POP PUSH1 0x40 MLOAD RETURNDATASIZE PUSH1 0x1F NOT PUSH1 0x1F DUP3 ADD AND DUP3 ADD DUP1 PUSH1 0x40 MSTORE POP DUP2 ADD SWAP1 PUSH2 0x413B SWAP2 SWAP1 PUSH2 0x590F JUMP JUMPDEST SWAP1 POP PUSH1 0x0 PUSH20 0xFFFFFFFFFFFFFFFFFFFFFFFFFFFFFFFFFFFFFFFF AND DUP2 PUSH20 0xFFFFFFFFFFFFFFFFFFFFFFFFFFFFFFFFFFFFFFFF AND EQ ISZERO PUSH2 0x41AD JUMPI PUSH1 0x40 MLOAD PUSH32 0x8C379A000000000000000000000000000000000000000000000000000000000 DUP2 MSTORE PUSH1 0x4 ADD PUSH2 0x41A4 SWAP1 PUSH2 0x6547 JUMP JUMPDEST PUSH1 0x40 MLOAD DUP1 SWAP2 SUB SWAP1 REVERT JUMPDEST PUSH2 0x420D PUSH1 0x0 DUP1 SLOAD SWAP1 PUSH2 0x100 EXP SWAP1 DIV PUSH20 0xFFFFFFFFFFFFFFFFFFFFFFFFFFFFFFFFFFFFFFFF AND PUSH1 0x40 MLOAD DUP1 PUSH1 0x40 ADD PUSH1 0x40 MSTORE DUP1 PUSH1 0x15 DUP2 MSTORE PUSH1 0x20 ADD PUSH32 0x757064617465526F757465722861646472657373290000000000000000000000 DUP2 MSTORE POP DUP4 PUSH2 0x4545 JUMP JUMPDEST PUSH2 0x42DB PUSH1 0x0 DUP1 SLOAD SWAP1 PUSH2 0x100 EXP SWAP1 DIV PUSH20 0xFFFFFFFFFFFFFFFFFFFFFFFFFFFFFFFFFFFFFFFF AND PUSH20 0xFFFFFFFFFFFFFFFFFFFFFFFFFFFFFFFFFFFFFFFF AND PUSH4 0x3B92EB23 PUSH1 0x40 MLOAD DUP2 PUSH4 0xFFFFFFFF AND PUSH1 0xE0 SHL DUP2 MSTORE PUSH1 0x4 ADD PUSH1 0x20 PUSH1 0x40 MLOAD DUP1 DUP4 SUB DUP2 DUP7 GAS STATICCALL ISZERO DUP1 ISZERO PUSH2 0x427B JUMPI RETURNDATASIZE PUSH1 0x0 DUP1 RETURNDATACOPY RETURNDATASIZE PUSH1 0x0 REVERT JUMPDEST POP POP POP POP PUSH1 0x40 MLOAD RETURNDATASIZE PUSH1 0x1F NOT PUSH1 0x1F DUP3 ADD AND DUP3 ADD DUP1 PUSH1 0x40 MSTORE POP DUP2 ADD SWAP1 PUSH2 0x429F SWAP2 SWAP1 PUSH2 0x590F JUMP JUMPDEST PUSH1 0x40 MLOAD DUP1 PUSH1 0x40 ADD PUSH1 0x40 MSTORE DUP1 PUSH1 0x16 DUP2 MSTORE PUSH1 0x20 ADD PUSH32 0x7570646174655665546F6B656E28616464726573732900000000000000000000 DUP2 MSTORE POP DUP4 PUSH2 0x4545 JUMP JUMPDEST PUSH2 0x43A9 PUSH1 0x0 DUP1 SLOAD SWAP1 PUSH2 0x100 EXP SWAP1 DIV PUSH20 0xFFFFFFFFFFFFFFFFFFFFFFFFFFFFFFFFFFFFFFFF AND PUSH20 0xFFFFFFFFFFFFFFFFFFFFFFFFFFFFFFFFFFFFFFFF AND PUSH4 0x7D9F6DB5 PUSH1 0x40 MLOAD DUP2 PUSH4 0xFFFFFFFF AND PUSH1 0xE0 SHL DUP2 MSTORE PUSH1 0x4 ADD PUSH1 0x20 PUSH1 0x40 MLOAD DUP1 DUP4 SUB DUP2 DUP7 GAS STATICCALL ISZERO DUP1 ISZERO PUSH2 0x4349 JUMPI RETURNDATASIZE PUSH1 0x0 DUP1 RETURNDATACOPY RETURNDATASIZE PUSH1 0x0 REVERT JUMPDEST POP POP POP POP PUSH1 0x40 MLOAD RETURNDATASIZE PUSH1 0x1F NOT PUSH1 0x1F DUP3 ADD AND DUP3 ADD DUP1 PUSH1 0x40 MSTORE POP DUP2 ADD SWAP1 PUSH2 0x436D SWAP2 SWAP1 PUSH2 0x590F JUMP JUMPDEST PUSH1 0x40 MLOAD DUP1 PUSH1 0x40 ADD PUSH1 0x40 MSTORE DUP1 PUSH1 0x16 DUP2 MSTORE PUSH1 0x20 ADD PUSH32 0x75706461746541756374696F6E28616464726573732900000000000000000000 DUP2 MSTORE POP DUP4 PUSH2 0x4545 JUMP JUMPDEST PUSH2 0x4477 PUSH1 0x0 DUP1 SLOAD SWAP1 PUSH2 0x100 EXP SWAP1 DIV PUSH20 0xFFFFFFFFFFFFFFFFFFFFFFFFFFFFFFFFFFFFFFFF AND PUSH20 0xFFFFFFFFFFFFFFFFFFFFFFFFFFFFFFFFFFFFFFFF AND PUSH4 0xFBFA77CF PUSH1 0x40 MLOAD DUP2 PUSH4 0xFFFFFFFF AND PUSH1 0xE0 SHL DUP2 MSTORE PUSH1 0x4 ADD PUSH1 0x20 PUSH1 0x40 MLOAD DUP1 DUP4 SUB DUP2 DUP7 GAS STATICCALL ISZERO DUP1 ISZERO PUSH2 0x4417 JUMPI RETURNDATASIZE PUSH1 0x0 DUP1 RETURNDATACOPY RETURNDATASIZE PUSH1 0x0 REVERT JUMPDEST POP POP POP POP PUSH1 0x40 MLOAD RETURNDATASIZE PUSH1 0x1F NOT PUSH1 0x1F DUP3 ADD AND DUP3 ADD DUP1 PUSH1 0x40 MSTORE POP DUP2 ADD SWAP1 PUSH2 0x443B SWAP2 SWAP1 PUSH2 0x590F JUMP JUMPDEST PUSH1 0x40 MLOAD DUP1 PUSH1 0x40 ADD PUSH1 0x40 MSTORE DUP1 PUSH1 0x14 DUP2 MSTORE PUSH1 0x20 ADD PUSH32 0x7570646174655661756C74286164647265737329000000000000000000000000 DUP2 MSTORE POP DUP4 PUSH2 0x4545 JUMP JUMPDEST PUSH2 0x4480 DUP2 PUSH2 0x4682 JUMP JUMPDEST POP POP POP POP PUSH2 0x449D JUMP JUMPDEST PUSH1 0x5 DUP3 EQ ISZERO PUSH2 0x449C JUMPI PUSH2 0x449B DUP2 PUSH2 0x47BA JUMP JUMPDEST JUMPDEST JUMPDEST JUMPDEST JUMPDEST JUMPDEST POP POP POP JUMP JUMPDEST PUSH2 0x44AE DUP2 PUSH2 0x490B JUMP JUMPDEST POP JUMP JUMPDEST PUSH2 0x44F8 PUSH2 0x44BC PUSH2 0x1380 JUMP JUMPDEST PUSH1 0x40 MLOAD DUP1 PUSH1 0x40 ADD PUSH1 0x40 MSTORE DUP1 PUSH1 0x20 DUP2 MSTORE PUSH1 0x20 ADD PUSH32 0x7570646174654D6178506C656467654475726174696F6E2875696E7432353629 DUP2 MSTORE POP DUP4 PUSH2 0x4915 JUMP JUMPDEST POP JUMP JUMPDEST PUSH2 0x4542 PUSH2 0x4506 PUSH2 0x1380 JUMP JUMPDEST PUSH1 0x40 MLOAD DUP1 PUSH1 0x40 ADD PUSH1 0x40 MSTORE DUP1 PUSH1 0x20 DUP2 MSTORE PUSH1 0x20 ADD PUSH32 0x7570646174654D61785265776172644475726174696F6E2875696E7432353629 DUP2 MSTORE POP DUP4 PUSH2 0x4915 JUMP JUMPDEST POP JUMP JUMPDEST PUSH1 0x0 DUP1 DUP5 PUSH20 0xFFFFFFFFFFFFFFFFFFFFFFFFFFFFFFFFFFFFFFFF AND DUP5 DUP5 PUSH1 0x40 MLOAD PUSH1 0x24 ADD PUSH2 0x4571 SWAP2 SWAP1 PUSH2 0x504B JUMP JUMPDEST PUSH1 0x40 MLOAD PUSH1 0x20 DUP2 DUP4 SUB SUB DUP2 MSTORE SWAP1 PUSH1 0x40 MSTORE SWAP1 PUSH1 0x40 MLOAD PUSH2 0x458E SWAP2 SWAP1 PUSH2 0x5978 JUMP JUMPDEST PUSH1 0x40 MLOAD DUP1 SWAP2 SUB SWAP1 KECCAK256 PUSH28 0xFFFFFFFFFFFFFFFFFFFFFFFFFFFFFFFFFFFFFFFFFFFFFFFFFFFFFFFF NOT AND PUSH1 0x20 DUP3 ADD DUP1 MLOAD PUSH28 0xFFFFFFFFFFFFFFFFFFFFFFFFFFFFFFFFFFFFFFFFFFFFFFFFFFFFFFFF DUP4 DUP2 DUP4 AND OR DUP4 MSTORE POP POP POP POP PUSH1 0x40 MLOAD PUSH2 0x45F0 SWAP2 SWAP1 PUSH2 0x65AE JUMP JUMPDEST PUSH1 0x0 PUSH1 0x40 MLOAD DUP1 DUP4 SUB DUP2 PUSH1 0x0 DUP7 GAS CALL SWAP2 POP POP RETURNDATASIZE DUP1 PUSH1 0x0 DUP2 EQ PUSH2 0x462D JUMPI PUSH1 0x40 MLOAD SWAP2 POP PUSH1 0x1F NOT PUSH1 0x3F RETURNDATASIZE ADD AND DUP3 ADD PUSH1 0x40 MSTORE RETURNDATASIZE DUP3 MSTORE RETURNDATASIZE PUSH1 0x0 PUSH1 0x20 DUP5 ADD RETURNDATACOPY PUSH2 0x4632 JUMP JUMPDEST PUSH1 0x60 SWAP2 POP JUMPDEST POP SWAP2 POP SWAP2 POP DUP2 DUP2 SWAP1 PUSH2 0x467A JUMPI PUSH1 0x40 MLOAD PUSH32 0x8C379A000000000000000000000000000000000000000000000000000000000 DUP2 MSTORE PUSH1 0x4 ADD PUSH2 0x4671 SWAP2 SWAP1 PUSH2 0x65C5 JUMP JUMPDEST PUSH1 0x40 MLOAD DUP1 SWAP2 SUB SWAP1 REVERT JUMPDEST POP POP POP POP POP POP JUMP JUMPDEST PUSH1 0x0 DUP1 DUP3 PUSH20 0xFFFFFFFFFFFFFFFFFFFFFFFFFFFFFFFFFFFFFFFF AND PUSH1 0x40 MLOAD PUSH1 0x24 ADD PUSH1 0x40 MLOAD PUSH1 0x20 DUP2 DUP4 SUB SUB DUP2 MSTORE SWAP1 PUSH1 0x40 MSTORE PUSH32 0xCD166FEA00000000000000000000000000000000000000000000000000000000 PUSH28 0xFFFFFFFFFFFFFFFFFFFFFFFFFFFFFFFFFFFFFFFFFFFFFFFFFFFFFFFF NOT AND PUSH1 0x20 DUP3 ADD DUP1 MLOAD PUSH28 0xFFFFFFFFFFFFFFFFFFFFFFFFFFFFFFFFFFFFFFFFFFFFFFFFFFFFFFFF DUP4 DUP2 DUP4 AND OR DUP4 MSTORE POP POP POP POP PUSH1 0x40 MLOAD PUSH2 0x472C SWAP2 SWAP1 PUSH2 0x65AE JUMP JUMPDEST PUSH1 0x0 PUSH1 0x40 MLOAD DUP1 DUP4 SUB DUP2 DUP6 GAS DELEGATECALL SWAP2 POP POP RETURNDATASIZE DUP1 PUSH1 0x0 DUP2 EQ PUSH2 0x4767 JUMPI PUSH1 0x40 MLOAD SWAP2 POP PUSH1 0x1F NOT PUSH1 0x3F RETURNDATASIZE ADD AND DUP3 ADD PUSH1 0x40 MSTORE RETURNDATASIZE DUP3 MSTORE RETURNDATASIZE PUSH1 0x0 PUSH1 0x20 DUP5 ADD RETURNDATACOPY PUSH2 0x476C JUMP JUMPDEST PUSH1 0x60 SWAP2 POP JUMPDEST POP SWAP2 POP SWAP2 POP DUP2 DUP2 SWAP1 PUSH2 0x47B4 JUMPI PUSH1 0x40 MLOAD PUSH32 0x8C379A000000000000000000000000000000000000000000000000000000000 DUP2 MSTORE PUSH1 0x4 ADD PUSH2 0x47AB SWAP2 SWAP1 PUSH2 0x65C5 JUMP JUMPDEST PUSH1 0x40 MLOAD DUP1 SWAP2 SUB SWAP1 REVERT JUMPDEST POP POP POP POP JUMP JUMPDEST PUSH1 0x0 DUP1 PUSH2 0x47C5 PUSH2 0x1546 JUMP JUMPDEST PUSH20 0xFFFFFFFFFFFFFFFFFFFFFFFFFFFFFFFFFFFFFFFF AND PUSH1 0x0 DUP1 DUP6 PUSH1 0x40 MLOAD PUSH1 0x24 ADD PUSH2 0x47F1 SWAP4 SWAP3 SWAP2 SWAP1 PUSH2 0x6625 JUMP JUMPDEST PUSH1 0x40 MLOAD PUSH1 0x20 DUP2 DUP4 SUB SUB DUP2 MSTORE SWAP1 PUSH1 0x40 MSTORE PUSH32 0x3011E16A00000000000000000000000000000000000000000000000000000000 PUSH28 0xFFFFFFFFFFFFFFFFFFFFFFFFFFFFFFFFFFFFFFFFFFFFFFFFFFFFFFFF NOT AND PUSH1 0x20 DUP3 ADD DUP1 MLOAD PUSH28 0xFFFFFFFFFFFFFFFFFFFFFFFFFFFFFFFFFFFFFFFFFFFFFFFFFFFFFFFF DUP4 DUP2 DUP4 AND OR DUP4 MSTORE POP POP POP POP PUSH1 0x40 MLOAD PUSH2 0x487B SWAP2 SWAP1 PUSH2 0x65AE JUMP JUMPDEST PUSH1 0x0 PUSH1 0x40 MLOAD DUP1 DUP4 SUB DUP2 PUSH1 0x0 DUP7 GAS CALL SWAP2 POP POP RETURNDATASIZE DUP1 PUSH1 0x0 DUP2 EQ PUSH2 0x48B8 JUMPI PUSH1 0x40 MLOAD SWAP2 POP PUSH1 0x1F NOT PUSH1 0x3F RETURNDATASIZE ADD AND DUP3 ADD PUSH1 0x40 MSTORE RETURNDATASIZE DUP3 MSTORE RETURNDATASIZE PUSH1 0x0 PUSH1 0x20 DUP5 ADD RETURNDATACOPY PUSH2 0x48BD JUMP JUMPDEST PUSH1 0x60 SWAP2 POP JUMPDEST POP SWAP2 POP SWAP2 POP DUP2 DUP2 SWAP1 PUSH2 0x4905 JUMPI PUSH1 0x40 MLOAD PUSH32 0x8C379A000000000000000000000000000000000000000000000000000000000 DUP2 MSTORE PUSH1 0x4 ADD PUSH2 0x48FC SWAP2 SWAP1 PUSH2 0x65C5 JUMP JUMPDEST PUSH1 0x40 MLOAD DUP1 SWAP2 SUB SWAP1 REVERT JUMPDEST POP POP POP POP JUMP JUMPDEST DUP1 PUSH1 0x8 DUP2 SWAP1 SSTORE POP POP JUMP JUMPDEST PUSH1 0x0 DUP1 DUP5 PUSH20 0xFFFFFFFFFFFFFFFFFFFFFFFFFFFFFFFFFFFFFFFF AND DUP5 DUP5 PUSH1 0x40 MLOAD PUSH1 0x24 ADD PUSH2 0x4941 SWAP2 SWAP1 PUSH2 0x4D40 JUMP JUMPDEST PUSH1 0x40 MLOAD PUSH1 0x20 DUP2 DUP4 SUB SUB DUP2 MSTORE SWAP1 PUSH1 0x40 MSTORE SWAP1 PUSH1 0x40 MLOAD PUSH2 0x495E SWAP2 SWAP1 PUSH2 0x5978 JUMP JUMPDEST PUSH1 0x40 MLOAD DUP1 SWAP2 SUB SWAP1 KECCAK256 PUSH28 0xFFFFFFFFFFFFFFFFFFFFFFFFFFFFFFFFFFFFFFFFFFFFFFFFFFFFFFFF NOT AND PUSH1 0x20 DUP3 ADD DUP1 MLOAD PUSH28 0xFFFFFFFFFFFFFFFFFFFFFFFFFFFFFFFFFFFFFFFFFFFFFFFFFFFFFFFF DUP4 DUP2 DUP4 AND OR DUP4 MSTORE POP POP POP POP PUSH1 0x40 MLOAD PUSH2 0x49C0 SWAP2 SWAP1 PUSH2 0x65AE JUMP JUMPDEST PUSH1 0x0 PUSH1 0x40 MLOAD DUP1 DUP4 SUB DUP2 PUSH1 0x0 DUP7 GAS CALL SWAP2 POP POP RETURNDATASIZE DUP1 PUSH1 0x0 DUP2 EQ PUSH2 0x49FD JUMPI PUSH1 0x40 MLOAD SWAP2 POP PUSH1 0x1F NOT PUSH1 0x3F RETURNDATASIZE ADD AND DUP3 ADD PUSH1 0x40 MSTORE RETURNDATASIZE DUP3 MSTORE RETURNDATASIZE PUSH1 0x0 PUSH1 0x20 DUP5 ADD RETURNDATACOPY PUSH2 0x4A02 JUMP JUMPDEST PUSH1 0x60 SWAP2 POP JUMPDEST POP SWAP2 POP SWAP2 POP DUP2 DUP2 SWAP1 PUSH2 0x4A4A JUMPI PUSH1 0x40 MLOAD PUSH32 0x8C379A000000000000000000000000000000000000000000000000000000000 DUP2 MSTORE PUSH1 0x4 ADD PUSH2 0x4A41 SWAP2 SWAP1 PUSH2 0x65C5 JUMP JUMPDEST PUSH1 0x40 MLOAD DUP1 SWAP2 SUB SWAP1 REVERT JUMPDEST POP POP POP POP POP POP JUMP JUMPDEST DUP3 DUP1 SLOAD PUSH2 0x4A5E SWAP1 PUSH2 0x5899 JUMP JUMPDEST SWAP1 PUSH1 0x0 MSTORE PUSH1 0x20 PUSH1 0x0 KECCAK256 SWAP1 PUSH1 0x1F ADD PUSH1 0x20 SWAP1 DIV DUP2 ADD SWAP3 DUP3 PUSH2 0x4A80 JUMPI PUSH1 0x0 DUP6 SSTORE PUSH2 0x4AC7 JUMP JUMPDEST DUP3 PUSH1 0x1F LT PUSH2 0x4A99 JUMPI DUP1 MLOAD PUSH1 0xFF NOT AND DUP4 DUP1 ADD OR DUP6 SSTORE PUSH2 0x4AC7 JUMP JUMPDEST DUP3 DUP1 ADD PUSH1 0x1 ADD DUP6 SSTORE DUP3 ISZERO PUSH2 0x4AC7 JUMPI SWAP2 DUP3 ADD JUMPDEST DUP3 DUP2 GT ISZERO PUSH2 0x4AC6 JUMPI DUP3 MLOAD DUP3 SSTORE SWAP2 PUSH1 0x20 ADD SWAP2 SWAP1 PUSH1 0x1 ADD SWAP1 PUSH2 0x4AAB JUMP JUMPDEST JUMPDEST POP SWAP1 POP PUSH2 0x4AD4 SWAP2 SWAP1 PUSH2 0x4AF9 JUMP JUMPDEST POP SWAP1 JUMP JUMPDEST PUSH1 0x40 MLOAD DUP1 PUSH1 0x60 ADD PUSH1 0x40 MSTORE DUP1 PUSH1 0x0 DUP2 MSTORE PUSH1 0x20 ADD PUSH1 0x60 DUP2 MSTORE PUSH1 0x20 ADD PUSH1 0x60 DUP2 MSTORE POP SWAP1 JUMP JUMPDEST JUMPDEST DUP1 DUP3 GT ISZERO PUSH2 0x4B12 JUMPI PUSH1 0x0 DUP2 PUSH1 0x0 SWAP1 SSTORE POP PUSH1 0x1 ADD PUSH2 0x4AFA JUMP JUMPDEST POP SWAP1 JUMP JUMPDEST PUSH1 0x0 PUSH1 0x40 MLOAD SWAP1 POP SWAP1 JUMP JUMPDEST PUSH1 0x0 DUP1 REVERT JUMPDEST PUSH1 0x0 DUP1 REVERT JUMPDEST PUSH1 0x0 DUP2 SWAP1 POP SWAP2 SWAP1 POP JUMP JUMPDEST PUSH2 0x4B3D DUP2 PUSH2 0x4B2A JUMP JUMPDEST DUP2 EQ PUSH2 0x4B48 JUMPI PUSH1 0x0 DUP1 REVERT JUMPDEST POP JUMP JUMPDEST PUSH1 0x0 DUP2 CALLDATALOAD SWAP1 POP PUSH2 0x4B5A DUP2 PUSH2 0x4B34 JUMP JUMPDEST SWAP3 SWAP2 POP POP JUMP JUMPDEST PUSH1 0x0 DUP1 REVERT JUMPDEST PUSH1 0x0 DUP1 REVERT JUMPDEST PUSH1 0x0 PUSH1 0x1F NOT PUSH1 0x1F DUP4 ADD AND SWAP1 POP SWAP2 SWAP1 POP JUMP JUMPDEST PUSH32 0x4E487B7100000000000000000000000000000000000000000000000000000000 PUSH1 0x0 MSTORE PUSH1 0x41 PUSH1 0x4 MSTORE PUSH1 0x24 PUSH1 0x0 REVERT JUMPDEST PUSH2 0x4BB3 DUP3 PUSH2 0x4B6A JUMP JUMPDEST DUP2 ADD DUP2 DUP2 LT PUSH8 0xFFFFFFFFFFFFFFFF DUP3 GT OR ISZERO PUSH2 0x4BD2 JUMPI PUSH2 0x4BD1 PUSH2 0x4B7B JUMP JUMPDEST JUMPDEST DUP1 PUSH1 0x40 MSTORE POP POP POP JUMP JUMPDEST PUSH1 0x0 PUSH2 0x4BE5 PUSH2 0x4B16 JUMP JUMPDEST SWAP1 POP PUSH2 0x4BF1 DUP3 DUP3 PUSH2 0x4BAA JUMP JUMPDEST SWAP2 SWAP1 POP JUMP JUMPDEST PUSH1 0x0 PUSH8 0xFFFFFFFFFFFFFFFF DUP3 GT ISZERO PUSH2 0x4C11 JUMPI PUSH2 0x4C10 PUSH2 0x4B7B JUMP JUMPDEST JUMPDEST PUSH2 0x4C1A DUP3 PUSH2 0x4B6A JUMP JUMPDEST SWAP1 POP PUSH1 0x20 DUP2 ADD SWAP1 POP SWAP2 SWAP1 POP JUMP JUMPDEST DUP3 DUP2 DUP4 CALLDATACOPY PUSH1 0x0 DUP4 DUP4 ADD MSTORE POP POP POP JUMP JUMPDEST PUSH1 0x0 PUSH2 0x4C49 PUSH2 0x4C44 DUP5 PUSH2 0x4BF6 JUMP JUMPDEST PUSH2 0x4BDB JUMP JUMPDEST SWAP1 POP DUP3 DUP2 MSTORE PUSH1 0x20 DUP2 ADD DUP5 DUP5 DUP5 ADD GT ISZERO PUSH2 0x4C65 JUMPI PUSH2 0x4C64 PUSH2 0x4B65 JUMP JUMPDEST JUMPDEST PUSH2 0x4C70 DUP5 DUP3 DUP6 PUSH2 0x4C27 JUMP JUMPDEST POP SWAP4 SWAP3 POP POP POP JUMP JUMPDEST PUSH1 0x0 DUP3 PUSH1 0x1F DUP4 ADD SLT PUSH2 0x4C8D JUMPI PUSH2 0x4C8C PUSH2 0x4B60 JUMP JUMPDEST JUMPDEST DUP2 CALLDATALOAD PUSH2 0x4C9D DUP5 DUP3 PUSH1 0x20 DUP7 ADD PUSH2 0x4C36 JUMP JUMPDEST SWAP2 POP POP SWAP3 SWAP2 POP POP JUMP JUMPDEST PUSH1 0x0 DUP1 PUSH1 0x0 PUSH1 0x60 DUP5 DUP7 SUB SLT ISZERO PUSH2 0x4CBF JUMPI PUSH2 0x4CBE PUSH2 0x4B20 JUMP JUMPDEST JUMPDEST PUSH1 0x0 PUSH2 0x4CCD DUP7 DUP3 DUP8 ADD PUSH2 0x4B4B JUMP JUMPDEST SWAP4 POP POP PUSH1 0x20 DUP5 ADD CALLDATALOAD PUSH8 0xFFFFFFFFFFFFFFFF DUP2 GT ISZERO PUSH2 0x4CEE JUMPI PUSH2 0x4CED PUSH2 0x4B25 JUMP JUMPDEST JUMPDEST PUSH2 0x4CFA DUP7 DUP3 DUP8 ADD PUSH2 0x4C78 JUMP JUMPDEST SWAP3 POP POP PUSH1 0x40 DUP5 ADD CALLDATALOAD PUSH8 0xFFFFFFFFFFFFFFFF DUP2 GT ISZERO PUSH2 0x4D1B JUMPI PUSH2 0x4D1A PUSH2 0x4B25 JUMP JUMPDEST JUMPDEST PUSH2 0x4D27 DUP7 DUP3 DUP8 ADD PUSH2 0x4C78 JUMP JUMPDEST SWAP2 POP POP SWAP3 POP SWAP3 POP SWAP3 JUMP JUMPDEST PUSH2 0x4D3A DUP2 PUSH2 0x4B2A JUMP JUMPDEST DUP3 MSTORE POP POP JUMP JUMPDEST PUSH1 0x0 PUSH1 0x20 DUP3 ADD SWAP1 POP PUSH2 0x4D55 PUSH1 0x0 DUP4 ADD DUP5 PUSH2 0x4D31 JUMP JUMPDEST SWAP3 SWAP2 POP POP JUMP JUMPDEST PUSH1 0x0 PUSH1 0x20 DUP3 DUP5 SUB SLT ISZERO PUSH2 0x4D71 JUMPI PUSH2 0x4D70 PUSH2 0x4B20 JUMP JUMPDEST JUMPDEST PUSH1 0x0 PUSH2 0x4D7F DUP5 DUP3 DUP6 ADD PUSH2 0x4B4B JUMP JUMPDEST SWAP2 POP POP SWAP3 SWAP2 POP POP JUMP JUMPDEST PUSH1 0x0 DUP2 ISZERO ISZERO SWAP1 POP SWAP2 SWAP1 POP JUMP JUMPDEST PUSH2 0x4D9D DUP2 PUSH2 0x4D88 JUMP JUMPDEST DUP3 MSTORE POP POP JUMP JUMPDEST PUSH1 0x0 PUSH1 0x20 DUP3 ADD SWAP1 POP PUSH2 0x4DB8 PUSH1 0x0 DUP4 ADD DUP5 PUSH2 0x4D94 JUMP JUMPDEST SWAP3 SWAP2 POP POP JUMP JUMPDEST PUSH1 0x0 DUP2 MLOAD SWAP1 POP SWAP2 SWAP1 POP JUMP JUMPDEST PUSH1 0x0 DUP3 DUP3 MSTORE PUSH1 0x20 DUP3 ADD SWAP1 POP SWAP3 SWAP2 POP POP JUMP JUMPDEST PUSH1 0x0 DUP2 SWAP1 POP PUSH1 0x20 DUP3 ADD SWAP1 POP SWAP2 SWAP1 POP JUMP JUMPDEST PUSH2 0x4DF3 DUP2 PUSH2 0x4B2A JUMP JUMPDEST DUP3 MSTORE POP POP JUMP JUMPDEST PUSH1 0x0 DUP2 MLOAD SWAP1 POP SWAP2 SWAP1 POP JUMP JUMPDEST PUSH1 0x0 DUP3 DUP3 MSTORE PUSH1 0x20 DUP3 ADD SWAP1 POP SWAP3 SWAP2 POP POP JUMP JUMPDEST PUSH1 0x0 JUMPDEST DUP4 DUP2 LT ISZERO PUSH2 0x4E33 JUMPI DUP1 DUP3 ADD MLOAD DUP2 DUP5 ADD MSTORE PUSH1 0x20 DUP2 ADD SWAP1 POP PUSH2 0x4E18 JUMP JUMPDEST DUP4 DUP2 GT ISZERO PUSH2 0x4E42 JUMPI PUSH1 0x0 DUP5 DUP5 ADD MSTORE JUMPDEST POP POP POP POP JUMP JUMPDEST PUSH1 0x0 PUSH2 0x4E53 DUP3 PUSH2 0x4DF9 JUMP JUMPDEST PUSH2 0x4E5D DUP2 DUP6 PUSH2 0x4E04 JUMP JUMPDEST SWAP4 POP PUSH2 0x4E6D DUP2 DUP6 PUSH1 0x20 DUP7 ADD PUSH2 0x4E15 JUMP JUMPDEST PUSH2 0x4E76 DUP2 PUSH2 0x4B6A JUMP JUMPDEST DUP5 ADD SWAP2 POP POP SWAP3 SWAP2 POP POP JUMP JUMPDEST PUSH1 0x0 PUSH1 0x60 DUP4 ADD PUSH1 0x0 DUP4 ADD MLOAD PUSH2 0x4E99 PUSH1 0x0 DUP7 ADD DUP3 PUSH2 0x4DEA JUMP JUMPDEST POP PUSH1 0x20 DUP4 ADD MLOAD DUP5 DUP3 SUB PUSH1 0x20 DUP7 ADD MSTORE PUSH2 0x4EB1 DUP3 DUP3 PUSH2 0x4E48 JUMP JUMPDEST SWAP2 POP POP PUSH1 0x40 DUP4 ADD MLOAD DUP5 DUP3 SUB PUSH1 0x40 DUP7 ADD MSTORE PUSH2 0x4ECB DUP3 DUP3 PUSH2 0x4E48 JUMP JUMPDEST SWAP2 POP POP DUP1 SWAP2 POP POP SWAP3 SWAP2 POP POP JUMP JUMPDEST PUSH1 0x0 PUSH2 0x4EE4 DUP4 DUP4 PUSH2 0x4E81 JUMP JUMPDEST SWAP1 POP SWAP3 SWAP2 POP POP JUMP JUMPDEST PUSH1 0x0 PUSH1 0x20 DUP3 ADD SWAP1 POP SWAP2 SWAP1 POP JUMP JUMPDEST PUSH1 0x0 PUSH2 0x4F04 DUP3 PUSH2 0x4DBE JUMP JUMPDEST PUSH2 0x4F0E DUP2 DUP6 PUSH2 0x4DC9 JUMP JUMPDEST SWAP4 POP DUP4 PUSH1 0x20 DUP3 MUL DUP6 ADD PUSH2 0x4F20 DUP6 PUSH2 0x4DDA JUMP JUMPDEST DUP1 PUSH1 0x0 JUMPDEST DUP6 DUP2 LT ISZERO PUSH2 0x4F5C JUMPI DUP5 DUP5 SUB DUP10 MSTORE DUP2 MLOAD PUSH2 0x4F3D DUP6 DUP3 PUSH2 0x4ED8 JUMP JUMPDEST SWAP5 POP PUSH2 0x4F48 DUP4 PUSH2 0x4EEC JUMP JUMPDEST SWAP3 POP PUSH1 0x20 DUP11 ADD SWAP10 POP POP PUSH1 0x1 DUP2 ADD SWAP1 POP PUSH2 0x4F24 JUMP JUMPDEST POP DUP3 SWAP8 POP DUP8 SWAP6 POP POP POP POP POP POP SWAP3 SWAP2 POP POP JUMP JUMPDEST PUSH1 0x0 PUSH1 0x20 DUP3 ADD SWAP1 POP DUP2 DUP2 SUB PUSH1 0x0 DUP4 ADD MSTORE PUSH2 0x4F88 DUP2 DUP5 PUSH2 0x4EF9 JUMP JUMPDEST SWAP1 POP SWAP3 SWAP2 POP POP JUMP JUMPDEST PUSH1 0x0 PUSH20 0xFFFFFFFFFFFFFFFFFFFFFFFFFFFFFFFFFFFFFFFF DUP3 AND SWAP1 POP SWAP2 SWAP1 POP JUMP JUMPDEST PUSH1 0x0 DUP2 SWAP1 POP SWAP2 SWAP1 POP JUMP JUMPDEST PUSH1 0x0 PUSH2 0x4FD5 PUSH2 0x4FD0 PUSH2 0x4FCB DUP5 PUSH2 0x4F90 JUMP JUMPDEST PUSH2 0x4FB0 JUMP JUMPDEST PUSH2 0x4F90 JUMP JUMPDEST SWAP1 POP SWAP2 SWAP1 POP JUMP JUMPDEST PUSH1 0x0 PUSH2 0x4FE7 DUP3 PUSH2 0x4FBA JUMP JUMPDEST SWAP1 POP SWAP2 SWAP1 POP JUMP JUMPDEST PUSH1 0x0 PUSH2 0x4FF9 DUP3 PUSH2 0x4FDC JUMP JUMPDEST SWAP1 POP SWAP2 SWAP1 POP JUMP JUMPDEST PUSH2 0x5009 DUP2 PUSH2 0x4FEE JUMP JUMPDEST DUP3 MSTORE POP POP JUMP JUMPDEST PUSH1 0x0 PUSH1 0x20 DUP3 ADD SWAP1 POP PUSH2 0x5024 PUSH1 0x0 DUP4 ADD DUP5 PUSH2 0x5000 JUMP JUMPDEST SWAP3 SWAP2 POP POP JUMP JUMPDEST PUSH1 0x0 PUSH2 0x5035 DUP3 PUSH2 0x4F90 JUMP JUMPDEST SWAP1 POP SWAP2 SWAP1 POP JUMP JUMPDEST PUSH2 0x5045 DUP2 PUSH2 0x502A JUMP JUMPDEST DUP3 MSTORE POP POP JUMP JUMPDEST PUSH1 0x0 PUSH1 0x20 DUP3 ADD SWAP1 POP PUSH2 0x5060 PUSH1 0x0 DUP4 ADD DUP5 PUSH2 0x503C JUMP JUMPDEST SWAP3 SWAP2 POP POP JUMP JUMPDEST PUSH1 0x0 DUP1 PUSH1 0x40 DUP4 DUP6 SUB SLT ISZERO PUSH2 0x507D JUMPI PUSH2 0x507C PUSH2 0x4B20 JUMP JUMPDEST JUMPDEST PUSH1 0x0 DUP4 ADD CALLDATALOAD PUSH8 0xFFFFFFFFFFFFFFFF DUP2 GT ISZERO PUSH2 0x509B JUMPI PUSH2 0x509A PUSH2 0x4B25 JUMP JUMPDEST JUMPDEST PUSH2 0x50A7 DUP6 DUP3 DUP7 ADD PUSH2 0x4C78 JUMP JUMPDEST SWAP3 POP POP PUSH1 0x20 DUP4 ADD CALLDATALOAD PUSH8 0xFFFFFFFFFFFFFFFF DUP2 GT ISZERO PUSH2 0x50C8 JUMPI PUSH2 0x50C7 PUSH2 0x4B25 JUMP JUMPDEST JUMPDEST PUSH2 0x50D4 DUP6 DUP3 DUP7 ADD PUSH2 0x4C78 JUMP JUMPDEST SWAP2 POP POP SWAP3 POP SWAP3 SWAP1 POP JUMP JUMPDEST PUSH1 0x0 DUP3 DUP3 MSTORE PUSH1 0x20 DUP3 ADD SWAP1 POP SWAP3 SWAP2 POP POP JUMP JUMPDEST PUSH1 0x0 PUSH2 0x50FA DUP3 PUSH2 0x4DF9 JUMP JUMPDEST PUSH2 0x5104 DUP2 DUP6 PUSH2 0x50DE JUMP JUMPDEST SWAP4 POP PUSH2 0x5114 DUP2 DUP6 PUSH1 0x20 DUP7 ADD PUSH2 0x4E15 JUMP JUMPDEST PUSH2 0x511D DUP2 PUSH2 0x4B6A JUMP JUMPDEST DUP5 ADD SWAP2 POP POP SWAP3 SWAP2 POP POP JUMP JUMPDEST PUSH1 0x0 PUSH1 0x60 DUP3 ADD SWAP1 POP DUP2 DUP2 SUB PUSH1 0x0 DUP4 ADD MSTORE PUSH2 0x5142 DUP2 DUP7 PUSH2 0x50EF JUMP JUMPDEST SWAP1 POP DUP2 DUP2 SUB PUSH1 0x20 DUP4 ADD MSTORE PUSH2 0x5156 DUP2 DUP6 PUSH2 0x50EF JUMP JUMPDEST SWAP1 POP PUSH2 0x5165 PUSH1 0x40 DUP4 ADD DUP5 PUSH2 0x503C JUMP JUMPDEST SWAP5 SWAP4 POP POP POP POP JUMP JUMPDEST PUSH2 0x5176 DUP2 PUSH2 0x4D88 JUMP JUMPDEST DUP2 EQ PUSH2 0x5181 JUMPI PUSH1 0x0 DUP1 REVERT JUMPDEST POP JUMP JUMPDEST PUSH1 0x0 DUP2 CALLDATALOAD SWAP1 POP PUSH2 0x5193 DUP2 PUSH2 0x516D JUMP JUMPDEST SWAP3 SWAP2 POP POP JUMP JUMPDEST PUSH1 0x0 DUP1 PUSH1 0x40 DUP4 DUP6 SUB SLT ISZERO PUSH2 0x51B0 JUMPI PUSH2 0x51AF PUSH2 0x4B20 JUMP JUMPDEST JUMPDEST PUSH1 0x0 PUSH2 0x51BE DUP6 DUP3 DUP7 ADD PUSH2 0x4B4B JUMP JUMPDEST SWAP3 POP POP PUSH1 0x20 PUSH2 0x51CF DUP6 DUP3 DUP7 ADD PUSH2 0x5184 JUMP JUMPDEST SWAP2 POP POP SWAP3 POP SWAP3 SWAP1 POP JUMP JUMPDEST PUSH1 0x0 DUP1 PUSH1 0x0 DUP1 PUSH1 0x0 PUSH1 0xA0 DUP7 DUP9 SUB SLT ISZERO PUSH2 0x51F5 JUMPI PUSH2 0x51F4 PUSH2 0x4B20 JUMP JUMPDEST JUMPDEST PUSH1 0x0 DUP7 ADD CALLDATALOAD PUSH8 0xFFFFFFFFFFFFFFFF DUP2 GT ISZERO PUSH2 0x5213 JUMPI PUSH2 0x5212 PUSH2 0x4B25 JUMP JUMPDEST JUMPDEST PUSH2 0x521F DUP9 DUP3 DUP10 ADD PUSH2 0x4C78 JUMP JUMPDEST SWAP6 POP POP PUSH1 0x20 DUP7 ADD CALLDATALOAD PUSH8 0xFFFFFFFFFFFFFFFF DUP2 GT ISZERO PUSH2 0x5240 JUMPI PUSH2 0x523F PUSH2 0x4B25 JUMP JUMPDEST JUMPDEST PUSH2 0x524C DUP9 DUP3 DUP10 ADD PUSH2 0x4C78 JUMP JUMPDEST SWAP5 POP POP PUSH1 0x40 DUP7 ADD CALLDATALOAD PUSH8 0xFFFFFFFFFFFFFFFF DUP2 GT ISZERO PUSH2 0x526D JUMPI PUSH2 0x526C PUSH2 0x4B25 JUMP JUMPDEST JUMPDEST PUSH2 0x5279 DUP9 DUP3 DUP10 ADD PUSH2 0x4C78 JUMP JUMPDEST SWAP4 POP POP PUSH1 0x60 PUSH2 0x528A DUP9 DUP3 DUP10 ADD PUSH2 0x4B4B JUMP JUMPDEST SWAP3 POP POP PUSH1 0x80 PUSH2 0x529B DUP9 DUP3 DUP10 ADD PUSH2 0x4B4B JUMP JUMPDEST SWAP2 POP POP SWAP3 SWAP6 POP SWAP3 SWAP6 SWAP1 SWAP4 POP JUMP JUMPDEST PUSH1 0x0 PUSH1 0xA0 DUP3 ADD SWAP1 POP PUSH2 0x52BD PUSH1 0x0 DUP4 ADD DUP9 PUSH2 0x4D31 JUMP JUMPDEST PUSH2 0x52CA PUSH1 0x20 DUP4 ADD DUP8 PUSH2 0x4D31 JUMP JUMPDEST PUSH2 0x52D7 PUSH1 0x40 DUP4 ADD DUP7 PUSH2 0x4D31 JUMP JUMPDEST PUSH2 0x52E4 PUSH1 0x60 DUP4 ADD DUP6 PUSH2 0x4D31 JUMP JUMPDEST PUSH2 0x52F1 PUSH1 0x80 DUP4 ADD DUP5 PUSH2 0x4D31 JUMP JUMPDEST SWAP7 SWAP6 POP POP POP POP POP POP JUMP JUMPDEST PUSH2 0x5304 DUP2 PUSH2 0x502A JUMP JUMPDEST DUP2 EQ PUSH2 0x530F JUMPI PUSH1 0x0 DUP1 REVERT JUMPDEST POP JUMP JUMPDEST PUSH1 0x0 DUP2 CALLDATALOAD SWAP1 POP PUSH2 0x5321 DUP2 PUSH2 0x52FB JUMP JUMPDEST SWAP3 SWAP2 POP POP JUMP JUMPDEST PUSH1 0x0 DUP1 PUSH1 0x40 DUP4 DUP6 SUB SLT ISZERO PUSH2 0x533E JUMPI PUSH2 0x533D PUSH2 0x4B20 JUMP JUMPDEST JUMPDEST PUSH1 0x0 PUSH2 0x534C DUP6 DUP3 DUP7 ADD PUSH2 0x4B4B JUMP JUMPDEST SWAP3 POP POP PUSH1 0x20 PUSH2 0x535D DUP6 DUP3 DUP7 ADD PUSH2 0x5312 JUMP JUMPDEST SWAP2 POP POP SWAP3 POP SWAP3 SWAP1 POP JUMP JUMPDEST PUSH32 0x4E487B7100000000000000000000000000000000000000000000000000000000 PUSH1 0x0 MSTORE PUSH1 0x11 PUSH1 0x4 MSTORE PUSH1 0x24 PUSH1 0x0 REVERT JUMPDEST PUSH1 0x0 PUSH2 0x53A1 DUP3 PUSH2 0x4B2A JUMP JUMPDEST SWAP2 POP PUSH2 0x53AC DUP4 PUSH2 0x4B2A JUMP JUMPDEST SWAP3 POP DUP2 PUSH32 0xFFFFFFFFFFFFFFFFFFFFFFFFFFFFFFFFFFFFFFFFFFFFFFFFFFFFFFFFFFFFFFFF DIV DUP4 GT DUP3 ISZERO ISZERO AND ISZERO PUSH2 0x53E5 JUMPI PUSH2 0x53E4 PUSH2 0x5367 JUMP JUMPDEST JUMPDEST DUP3 DUP3 MUL SWAP1 POP SWAP3 SWAP2 POP POP JUMP JUMPDEST PUSH32 0x4E487B7100000000000000000000000000000000000000000000000000000000 PUSH1 0x0 MSTORE PUSH1 0x12 PUSH1 0x4 MSTORE PUSH1 0x24 PUSH1 0x0 REVERT JUMPDEST PUSH1 0x0 PUSH2 0x542A DUP3 PUSH2 0x4B2A JUMP JUMPDEST SWAP2 POP PUSH2 0x5435 DUP4 PUSH2 0x4B2A JUMP JUMPDEST SWAP3 POP DUP3 PUSH2 0x5445 JUMPI PUSH2 0x5444 PUSH2 0x53F0 JUMP JUMPDEST JUMPDEST DUP3 DUP3 DIV SWAP1 POP SWAP3 SWAP2 POP POP JUMP JUMPDEST PUSH32 0x4E487B7100000000000000000000000000000000000000000000000000000000 PUSH1 0x0 MSTORE PUSH1 0x21 PUSH1 0x4 MSTORE PUSH1 0x24 PUSH1 0x0 REVERT JUMPDEST PUSH1 0x3 DUP2 LT PUSH2 0x548C JUMPI PUSH1 0x0 DUP1 REVERT JUMPDEST POP JUMP JUMPDEST PUSH1 0x0 DUP2 MLOAD SWAP1 POP PUSH2 0x549E DUP2 PUSH2 0x547F JUMP JUMPDEST SWAP3 SWAP2 POP POP JUMP JUMPDEST PUSH1 0x0 PUSH1 0x20 DUP3 DUP5 SUB SLT ISZERO PUSH2 0x54BA JUMPI PUSH2 0x54B9 PUSH2 0x4B20 JUMP JUMPDEST JUMPDEST PUSH1 0x0 PUSH2 0x54C8 DUP5 DUP3 DUP6 ADD PUSH2 0x548F JUMP JUMPDEST SWAP2 POP POP SWAP3 SWAP2 POP POP JUMP JUMPDEST PUSH32 0x546865207661756C7420616E64207468652061756374696F6E00000000000000 PUSH1 0x0 DUP3 ADD MSTORE POP JUMP JUMPDEST PUSH1 0x0 PUSH2 0x5507 PUSH1 0x19 DUP4 PUSH2 0x50DE JUMP JUMPDEST SWAP2 POP PUSH2 0x5512 DUP3 PUSH2 0x54D1 JUMP JUMPDEST PUSH1 0x20 DUP3 ADD SWAP1 POP SWAP2 SWAP1 POP JUMP JUMPDEST PUSH1 0x0 PUSH1 0x20 DUP3 ADD SWAP1 POP DUP2 DUP2 SUB PUSH1 0x0 DUP4 ADD MSTORE PUSH2 0x5536 DUP2 PUSH2 0x54FA JUMP JUMPDEST SWAP1 POP SWAP2 SWAP1 POP JUMP JUMPDEST PUSH1 0x0 DUP2 MLOAD SWAP1 POP PUSH2 0x554C DUP2 PUSH2 0x4B34 JUMP JUMPDEST SWAP3 SWAP2 POP POP JUMP JUMPDEST PUSH1 0x0 PUSH1 0x20 DUP3 DUP5 SUB SLT ISZERO PUSH2 0x5568 JUMPI PUSH2 0x5567 PUSH2 0x4B20 JUMP JUMPDEST JUMPDEST PUSH1 0x0 PUSH2 0x5576 DUP5 DUP3 DUP6 ADD PUSH2 0x553D JUMP JUMPDEST SWAP2 POP POP SWAP3 SWAP2 POP POP JUMP JUMPDEST PUSH32 0x546F6F2066657720746F6B656E73206172652068656C64000000000000000000 PUSH1 0x0 DUP3 ADD MSTORE POP JUMP JUMPDEST PUSH1 0x0 PUSH2 0x55B5 PUSH1 0x17 DUP4 PUSH2 0x50DE JUMP JUMPDEST SWAP2 POP PUSH2 0x55C0 DUP3 PUSH2 0x557F JUMP JUMPDEST PUSH1 0x20 DUP3 ADD SWAP1 POP SWAP2 SWAP1 POP JUMP JUMPDEST PUSH1 0x0 PUSH1 0x20 DUP3 ADD SWAP1 POP DUP2 DUP2 SUB PUSH1 0x0 DUP4 ADD MSTORE PUSH2 0x55E4 DUP2 PUSH2 0x55A8 JUMP JUMPDEST SWAP1 POP SWAP2 SWAP1 POP JUMP JUMPDEST PUSH1 0x0 PUSH2 0x55F6 DUP3 PUSH2 0x4B2A JUMP JUMPDEST SWAP2 POP PUSH2 0x5601 DUP4 PUSH2 0x4B2A JUMP JUMPDEST SWAP3 POP DUP3 PUSH32 0xFFFFFFFFFFFFFFFFFFFFFFFFFFFFFFFFFFFFFFFFFFFFFFFFFFFFFFFFFFFFFFFF SUB DUP3 GT ISZERO PUSH2 0x5636 JUMPI PUSH2 0x5635 PUSH2 0x5367 JUMP JUMPDEST JUMPDEST DUP3 DUP3 ADD SWAP1 POP SWAP3 SWAP2 POP POP JUMP JUMPDEST PUSH32 0x766F746573206973206C657373207468616E2033302070657263656E74000000 PUSH1 0x0 DUP3 ADD MSTORE POP JUMP JUMPDEST PUSH1 0x0 PUSH2 0x5677 PUSH1 0x1D DUP4 PUSH2 0x50DE JUMP JUMPDEST SWAP2 POP PUSH2 0x5682 DUP3 PUSH2 0x5641 JUMP JUMPDEST PUSH1 0x20 DUP3 ADD SWAP1 POP SWAP2 SWAP1 POP JUMP JUMPDEST PUSH1 0x0 PUSH1 0x20 DUP3 ADD SWAP1 POP DUP2 DUP2 SUB PUSH1 0x0 DUP4 ADD MSTORE PUSH2 0x56A6 DUP2 PUSH2 0x566A JUMP JUMPDEST SWAP1 POP SWAP2 SWAP1 POP JUMP JUMPDEST PUSH32 0x4C657373207468616E20363025206F662074686520766F746573207061737365 PUSH1 0x0 DUP3 ADD MSTORE PUSH32 0x6400000000000000000000000000000000000000000000000000000000000000 PUSH1 0x20 DUP3 ADD MSTORE POP JUMP JUMPDEST PUSH1 0x0 PUSH2 0x5709 PUSH1 0x21 DUP4 PUSH2 0x50DE JUMP JUMPDEST SWAP2 POP PUSH2 0x5714 DUP3 PUSH2 0x56AD JUMP JUMPDEST PUSH1 0x40 DUP3 ADD SWAP1 POP SWAP2 SWAP1 POP JUMP JUMPDEST PUSH1 0x0 PUSH1 0x20 DUP3 ADD SWAP1 POP DUP2 DUP2 SUB PUSH1 0x0 DUP4 ADD MSTORE PUSH2 0x5738 DUP2 PUSH2 0x56FC JUMP JUMPDEST SWAP1 POP SWAP2 SWAP1 POP JUMP JUMPDEST PUSH32 0x5374696C6C20696E2074686520766F74696E6720706861736500000000000000 PUSH1 0x0 DUP3 ADD MSTORE POP JUMP JUMPDEST PUSH1 0x0 PUSH2 0x5775 PUSH1 0x19 DUP4 PUSH2 0x50DE JUMP JUMPDEST SWAP2 POP PUSH2 0x5780 DUP3 PUSH2 0x573F JUMP JUMPDEST PUSH1 0x20 DUP3 ADD SWAP1 POP SWAP2 SWAP1 POP JUMP JUMPDEST PUSH1 0x0 PUSH1 0x20 DUP3 ADD SWAP1 POP DUP2 DUP2 SUB PUSH1 0x0 DUP4 ADD MSTORE PUSH2 0x57A4 DUP2 PUSH2 0x5768 JUMP JUMPDEST SWAP1 POP SWAP2 SWAP1 POP JUMP JUMPDEST PUSH32 0x4E6F742061742074686520766F74696E67207374616765000000000000000000 PUSH1 0x0 DUP3 ADD MSTORE POP JUMP JUMPDEST PUSH1 0x0 PUSH2 0x57E1 PUSH1 0x17 DUP4 PUSH2 0x50DE JUMP JUMPDEST SWAP2 POP PUSH2 0x57EC DUP3 PUSH2 0x57AB JUMP JUMPDEST PUSH1 0x20 DUP3 ADD SWAP1 POP SWAP2 SWAP1 POP JUMP JUMPDEST PUSH1 0x0 PUSH1 0x20 DUP3 ADD SWAP1 POP DUP2 DUP2 SUB PUSH1 0x0 DUP4 ADD MSTORE PUSH2 0x5810 DUP2 PUSH2 0x57D4 JUMP JUMPDEST SWAP1 POP SWAP2 SWAP1 POP JUMP JUMPDEST PUSH1 0x0 PUSH1 0x80 DUP3 ADD SWAP1 POP PUSH2 0x582C PUSH1 0x0 DUP4 ADD DUP8 PUSH2 0x503C JUMP JUMPDEST DUP2 DUP2 SUB PUSH1 0x20 DUP4 ADD MSTORE PUSH2 0x583E DUP2 DUP7 PUSH2 0x50EF JUMP JUMPDEST SWAP1 POP PUSH2 0x584D PUSH1 0x40 DUP4 ADD DUP6 PUSH2 0x4D31 JUMP JUMPDEST DUP2 DUP2 SUB PUSH1 0x60 DUP4 ADD MSTORE PUSH2 0x585F DUP2 DUP5 PUSH2 0x50EF JUMP JUMPDEST SWAP1 POP SWAP6 SWAP5 POP POP POP POP POP JUMP JUMPDEST PUSH32 0x4E487B7100000000000000000000000000000000000000000000000000000000 PUSH1 0x0 MSTORE PUSH1 0x22 PUSH1 0x4 MSTORE PUSH1 0x24 PUSH1 0x0 REVERT JUMPDEST PUSH1 0x0 PUSH1 0x2 DUP3 DIV SWAP1 POP PUSH1 0x1 DUP3 AND DUP1 PUSH2 0x58B1 JUMPI PUSH1 0x7F DUP3 AND SWAP2 POP JUMPDEST PUSH1 0x20 DUP3 LT DUP2 EQ ISZERO PUSH2 0x58C5 JUMPI PUSH2 0x58C4 PUSH2 0x586A JUMP JUMPDEST JUMPDEST POP SWAP2 SWAP1 POP JUMP JUMPDEST PUSH32 0x4E487B7100000000000000000000000000000000000000000000000000000000 PUSH1 0x0 MSTORE PUSH1 0x32 PUSH1 0x4 MSTORE PUSH1 0x24 PUSH1 0x0 REVERT JUMPDEST PUSH1 0x0 DUP2 MLOAD SWAP1 POP PUSH2 0x5909 DUP2 PUSH2 0x52FB JUMP JUMPDEST SWAP3 SWAP2 POP POP JUMP JUMPDEST PUSH1 0x0 PUSH1 0x20 DUP3 DUP5 SUB SLT ISZERO PUSH2 0x5925 JUMPI PUSH2 0x5924 PUSH2 0x4B20 JUMP JUMPDEST JUMPDEST PUSH1 0x0 PUSH2 0x5933 DUP5 DUP3 DUP6 ADD PUSH2 0x58FA JUMP JUMPDEST SWAP2 POP POP SWAP3 SWAP2 POP POP JUMP JUMPDEST PUSH1 0x0 DUP2 SWAP1 POP SWAP3 SWAP2 POP POP JUMP JUMPDEST PUSH1 0x0 PUSH2 0x5952 DUP3 PUSH2 0x4DF9 JUMP JUMPDEST PUSH2 0x595C DUP2 DUP6 PUSH2 0x593C JUMP JUMPDEST SWAP4 POP PUSH2 0x596C DUP2 DUP6 PUSH1 0x20 DUP7 ADD PUSH2 0x4E15 JUMP JUMPDEST DUP1 DUP5 ADD SWAP2 POP POP SWAP3 SWAP2 POP POP JUMP JUMPDEST PUSH1 0x0 PUSH2 0x5984 DUP3 DUP5 PUSH2 0x5947 JUMP JUMPDEST SWAP2 POP DUP2 SWAP1 POP SWAP3 SWAP2 POP POP JUMP JUMPDEST PUSH32 0x566F74654964206973206E756C6C000000000000000000000000000000000000 PUSH1 0x0 DUP3 ADD MSTORE POP JUMP JUMPDEST PUSH1 0x0 PUSH2 0x59C5 PUSH1 0xE DUP4 PUSH2 0x50DE JUMP JUMPDEST SWAP2 POP PUSH2 0x59D0 DUP3 PUSH2 0x598F JUMP JUMPDEST PUSH1 0x20 DUP3 ADD SWAP1 POP SWAP2 SWAP1 POP JUMP JUMPDEST PUSH1 0x0 PUSH1 0x20 DUP3 ADD SWAP1 POP DUP2 DUP2 SUB PUSH1 0x0 DUP4 ADD MSTORE PUSH2 0x59F4 DUP2 PUSH2 0x59B8 JUMP JUMPDEST SWAP1 POP SWAP2 SWAP1 POP JUMP JUMPDEST PUSH32 0x566F7465206265666F7265000000000000000000000000000000000000000000 PUSH1 0x0 DUP3 ADD MSTORE POP JUMP JUMPDEST PUSH1 0x0 PUSH2 0x5A31 PUSH1 0xB DUP4 PUSH2 0x50DE JUMP JUMPDEST SWAP2 POP PUSH2 0x5A3C DUP3 PUSH2 0x59FB JUMP JUMPDEST PUSH1 0x20 DUP3 ADD SWAP1 POP SWAP2 SWAP1 POP JUMP JUMPDEST PUSH1 0x0 PUSH1 0x20 DUP3 ADD SWAP1 POP DUP2 DUP2 SUB PUSH1 0x0 DUP4 ADD MSTORE PUSH2 0x5A60 DUP2 PUSH2 0x5A24 JUMP JUMPDEST SWAP1 POP SWAP2 SWAP1 POP JUMP JUMPDEST PUSH32 0x7665546F6B656E206C657373207468616E203120000000000000000000000000 PUSH1 0x0 DUP3 ADD MSTORE POP JUMP JUMPDEST PUSH1 0x0 PUSH2 0x5A9D PUSH1 0x14 DUP4 PUSH2 0x50DE JUMP JUMPDEST SWAP2 POP PUSH2 0x5AA8 DUP3 PUSH2 0x5A67 JUMP JUMPDEST PUSH1 0x20 DUP3 ADD SWAP1 POP SWAP2 SWAP1 POP JUMP JUMPDEST PUSH1 0x0 PUSH1 0x20 DUP3 ADD SWAP1 POP DUP2 DUP2 SUB PUSH1 0x0 DUP4 ADD MSTORE PUSH2 0x5ACC DUP2 PUSH2 0x5A90 JUMP JUMPDEST SWAP1 POP SWAP2 SWAP1 POP JUMP JUMPDEST PUSH32 0x4E6F742077697468696E2074686520616C6C6F747465642074696D6500000000 PUSH1 0x0 DUP3 ADD MSTORE POP JUMP JUMPDEST PUSH1 0x0 PUSH2 0x5B09 PUSH1 0x1C DUP4 PUSH2 0x50DE JUMP JUMPDEST SWAP2 POP PUSH2 0x5B14 DUP3 PUSH2 0x5AD3 JUMP JUMPDEST PUSH1 0x20 DUP3 ADD SWAP1 POP SWAP2 SWAP1 POP JUMP JUMPDEST PUSH1 0x0 PUSH1 0x20 DUP3 ADD SWAP1 POP DUP2 DUP2 SUB PUSH1 0x0 DUP4 ADD MSTORE PUSH2 0x5B38 DUP2 PUSH2 0x5AFC JUMP JUMPDEST SWAP1 POP SWAP2 SWAP1 POP JUMP JUMPDEST PUSH1 0x0 PUSH2 0x5B4A DUP3 PUSH2 0x4B2A JUMP JUMPDEST SWAP2 POP PUSH32 0xFFFFFFFFFFFFFFFFFFFFFFFFFFFFFFFFFFFFFFFFFFFFFFFFFFFFFFFFFFFFFFFF DUP3 EQ ISZERO PUSH2 0x5B7D JUMPI PUSH2 0x5B7C PUSH2 0x5367 JUMP JUMPDEST JUMPDEST PUSH1 0x1 DUP3 ADD SWAP1 POP SWAP2 SWAP1 POP JUMP JUMPDEST PUSH32 0x43616E206E6F7420766F74650000000000000000000000000000000000000000 PUSH1 0x0 DUP3 ADD MSTORE POP JUMP JUMPDEST PUSH1 0x0 PUSH2 0x5BBE PUSH1 0xC DUP4 PUSH2 0x50DE JUMP JUMPDEST SWAP2 POP PUSH2 0x5BC9 DUP3 PUSH2 0x5B88 JUMP JUMPDEST PUSH1 0x20 DUP3 ADD SWAP1 POP SWAP2 SWAP1 POP JUMP JUMPDEST PUSH1 0x0 PUSH1 0x20 DUP3 ADD SWAP1 POP DUP2 DUP2 SUB PUSH1 0x0 DUP4 ADD MSTORE PUSH2 0x5BED DUP2 PUSH2 0x5BB1 JUMP JUMPDEST SWAP1 POP SWAP2 SWAP1 POP JUMP JUMPDEST PUSH1 0x7 DUP2 LT PUSH2 0x5C05 JUMPI PUSH2 0x5C04 PUSH2 0x5450 JUMP JUMPDEST JUMPDEST POP JUMP JUMPDEST PUSH1 0x0 DUP2 SWAP1 POP PUSH2 0x5C16 DUP3 PUSH2 0x5BF4 JUMP JUMPDEST SWAP2 SWAP1 POP JUMP JUMPDEST PUSH1 0x0 PUSH2 0x5C26 DUP3 PUSH2 0x5C08 JUMP JUMPDEST SWAP1 POP SWAP2 SWAP1 POP JUMP JUMPDEST PUSH2 0x5C36 DUP2 PUSH2 0x5C1B JUMP JUMPDEST DUP3 MSTORE POP POP JUMP JUMPDEST PUSH1 0x0 PUSH1 0x80 DUP3 ADD SWAP1 POP PUSH2 0x5C51 PUSH1 0x0 DUP4 ADD DUP8 PUSH2 0x4D94 JUMP JUMPDEST PUSH2 0x5C5E PUSH1 0x20 DUP4 ADD DUP7 PUSH2 0x503C JUMP JUMPDEST PUSH2 0x5C6B PUSH1 0x40 DUP4 ADD DUP6 PUSH2 0x4D31 JUMP JUMPDEST PUSH2 0x5C78 PUSH1 0x60 DUP4 ADD DUP5 PUSH2 0x5C2D JUMP JUMPDEST SWAP6 SWAP5 POP POP POP POP POP JUMP JUMPDEST PUSH32 0x207665546F6B656E537570706C79203D3D203000000000000000000000000000 PUSH1 0x0 DUP3 ADD MSTORE POP JUMP JUMPDEST PUSH1 0x0 PUSH2 0x5CB7 PUSH1 0x13 DUP4 PUSH2 0x50DE JUMP JUMPDEST SWAP2 POP PUSH2 0x5CC2 DUP3 PUSH2 0x5C81 JUMP JUMPDEST PUSH1 0x20 DUP3 ADD SWAP1 POP SWAP2 SWAP1 POP JUMP JUMPDEST PUSH1 0x0 PUSH1 0x20 DUP3 ADD SWAP1 POP DUP2 DUP2 SUB PUSH1 0x0 DUP4 ADD MSTORE PUSH2 0x5CE6 DUP2 PUSH2 0x5CAA JUMP JUMPDEST SWAP1 POP SWAP2 SWAP1 POP JUMP JUMPDEST PUSH32 0x2074656D706C61746520626520656D7074790000000000000000000000000000 PUSH1 0x0 DUP3 ADD MSTORE POP JUMP JUMPDEST PUSH1 0x0 PUSH2 0x5D23 PUSH1 0x12 DUP4 PUSH2 0x50DE JUMP JUMPDEST SWAP2 POP PUSH2 0x5D2E DUP3 PUSH2 0x5CED JUMP JUMPDEST PUSH1 0x20 DUP3 ADD SWAP1 POP SWAP2 SWAP1 POP JUMP JUMPDEST PUSH1 0x0 PUSH1 0x20 DUP3 ADD SWAP1 POP DUP2 DUP2 SUB PUSH1 0x0 DUP4 ADD MSTORE PUSH2 0x5D52 DUP2 PUSH2 0x5D16 JUMP JUMPDEST SWAP1 POP SWAP2 SWAP1 POP JUMP JUMPDEST PUSH32 0x74656D706C61746520626520656D707479000000000000000000000000000000 PUSH1 0x0 DUP3 ADD MSTORE POP JUMP JUMPDEST PUSH1 0x0 PUSH2 0x5D8F PUSH1 0x11 DUP4 PUSH2 0x50DE JUMP JUMPDEST SWAP2 POP PUSH2 0x5D9A DUP3 PUSH2 0x5D59 JUMP JUMPDEST PUSH1 0x20 DUP3 ADD SWAP1 POP SWAP2 SWAP1 POP JUMP JUMPDEST PUSH1 0x0 PUSH1 0x20 DUP3 ADD SWAP1 POP DUP2 DUP2 SUB PUSH1 0x0 DUP4 ADD MSTORE PUSH2 0x5DBE DUP2 PUSH2 0x5D82 JUMP JUMPDEST SWAP1 POP SWAP2 SWAP1 POP JUMP JUMPDEST PUSH32 0x6F6E6C792073657420697420746F206265206C6172676572207468616E207468 PUSH1 0x0 DUP3 ADD MSTORE PUSH32 0x65206F726967696E616C00000000000000000000000000000000000000000000 PUSH1 0x20 DUP3 ADD MSTORE POP JUMP JUMPDEST PUSH1 0x0 PUSH2 0x5E21 PUSH1 0x2A DUP4 PUSH2 0x50DE JUMP JUMPDEST SWAP2 POP PUSH2 0x5E2C DUP3 PUSH2 0x5DC5 JUMP JUMPDEST PUSH1 0x40 DUP3 ADD SWAP1 POP SWAP2 SWAP1 POP JUMP JUMPDEST PUSH1 0x0 PUSH1 0x20 DUP3 ADD SWAP1 POP DUP2 DUP2 SUB PUSH1 0x0 DUP4 ADD MSTORE PUSH2 0x5E50 DUP2 PUSH2 0x5E14 JUMP JUMPDEST SWAP1 POP SWAP2 SWAP1 POP JUMP JUMPDEST PUSH32 0x4E6F207065726D697373696F6E20746F20637265617465000000000000000000 PUSH1 0x0 DUP3 ADD MSTORE POP JUMP JUMPDEST PUSH1 0x0 PUSH2 0x5E8D PUSH1 0x17 DUP4 PUSH2 0x50DE JUMP JUMPDEST SWAP2 POP PUSH2 0x5E98 DUP3 PUSH2 0x5E57 JUMP JUMPDEST PUSH1 0x20 DUP3 ADD SWAP1 POP SWAP2 SWAP1 POP JUMP JUMPDEST PUSH1 0x0 PUSH1 0x20 DUP3 ADD SWAP1 POP DUP2 DUP2 SUB PUSH1 0x0 DUP4 ADD MSTORE PUSH2 0x5EBC DUP2 PUSH2 0x5E80 JUMP JUMPDEST SWAP1 POP SWAP2 SWAP1 POP JUMP JUMPDEST PUSH1 0x0 PUSH2 0x160 DUP3 ADD SWAP1 POP PUSH2 0x5ED9 PUSH1 0x0 DUP4 ADD DUP15 PUSH2 0x4D31 JUMP JUMPDEST DUP2 DUP2 SUB PUSH1 0x20 DUP4 ADD MSTORE PUSH2 0x5EEB DUP2 DUP14 PUSH2 0x50EF JUMP JUMPDEST SWAP1 POP PUSH2 0x5EFA PUSH1 0x40 DUP4 ADD DUP13 PUSH2 0x503C JUMP JUMPDEST DUP2 DUP2 SUB PUSH1 0x60 DUP4 ADD MSTORE PUSH2 0x5F0C DUP2 DUP12 PUSH2 0x50EF JUMP JUMPDEST SWAP1 POP PUSH2 0x5F1B PUSH1 0x80 DUP4 ADD DUP11 PUSH2 0x4D31 JUMP JUMPDEST PUSH2 0x5F28 PUSH1 0xA0 DUP4 ADD DUP10 PUSH2 0x4D31 JUMP JUMPDEST DUP2 DUP2 SUB PUSH1 0xC0 DUP4 ADD MSTORE PUSH2 0x5F3A DUP2 DUP9 PUSH2 0x50EF JUMP JUMPDEST SWAP1 POP PUSH2 0x5F49 PUSH1 0xE0 DUP4 ADD DUP8 PUSH2 0x4D31 JUMP JUMPDEST PUSH2 0x5F57 PUSH2 0x100 DUP4 ADD DUP7 PUSH2 0x4D31 JUMP JUMPDEST PUSH2 0x5F65 PUSH2 0x120 DUP4 ADD DUP6 PUSH2 0x4D31 JUMP JUMPDEST PUSH2 0x5F73 PUSH2 0x140 DUP4 ADD DUP5 PUSH2 0x4D31 JUMP JUMPDEST SWAP13 SWAP12 POP POP POP POP POP POP POP POP POP POP POP POP JUMP JUMPDEST PUSH32 0x4861766520766F74656400000000000000000000000000000000000000000000 PUSH1 0x0 DUP3 ADD MSTORE POP JUMP JUMPDEST PUSH1 0x0 PUSH2 0x5FB9 PUSH1 0xA DUP4 PUSH2 0x50DE JUMP JUMPDEST SWAP2 POP PUSH2 0x5FC4 DUP3 PUSH2 0x5F83 JUMP JUMPDEST PUSH1 0x20 DUP3 ADD SWAP1 POP SWAP2 SWAP1 POP JUMP JUMPDEST PUSH1 0x0 PUSH1 0x20 DUP3 ADD SWAP1 POP DUP2 DUP2 SUB PUSH1 0x0 DUP4 ADD MSTORE PUSH2 0x5FE8 DUP2 PUSH2 0x5FAC JUMP JUMPDEST SWAP1 POP SWAP2 SWAP1 POP JUMP JUMPDEST PUSH32 0x63616E27742064656C656761746520746F20796F757273656C66000000000000 PUSH1 0x0 DUP3 ADD MSTORE POP JUMP JUMPDEST PUSH1 0x0 PUSH2 0x6025 PUSH1 0x1A DUP4 PUSH2 0x50DE JUMP JUMPDEST SWAP2 POP PUSH2 0x6030 DUP3 PUSH2 0x5FEF JUMP JUMPDEST PUSH1 0x20 DUP3 ADD SWAP1 POP SWAP2 SWAP1 POP JUMP JUMPDEST PUSH1 0x0 PUSH1 0x20 DUP3 ADD SWAP1 POP DUP2 DUP2 SUB PUSH1 0x0 DUP4 ADD MSTORE PUSH2 0x6054 DUP2 PUSH2 0x6018 JUMP JUMPDEST SWAP1 POP SWAP2 SWAP1 POP JUMP JUMPDEST PUSH32 0x5468657265206973206E6F20746F6B656E200000000000000000000000000000 PUSH1 0x0 DUP3 ADD MSTORE POP JUMP JUMPDEST PUSH1 0x0 PUSH2 0x6091 PUSH1 0x12 DUP4 PUSH2 0x50DE JUMP JUMPDEST SWAP2 POP PUSH2 0x609C DUP3 PUSH2 0x605B JUMP JUMPDEST PUSH1 0x20 DUP3 ADD SWAP1 POP SWAP2 SWAP1 POP JUMP JUMPDEST PUSH1 0x0 PUSH1 0x20 DUP3 ADD SWAP1 POP DUP2 DUP2 SUB PUSH1 0x0 DUP4 ADD MSTORE PUSH2 0x60C0 DUP2 PUSH2 0x6084 JUMP JUMPDEST SWAP1 POP SWAP2 SWAP1 POP JUMP JUMPDEST PUSH32 0x4E6F206F6E6520656C73652063616E20626520617574686F72697A6564000000 PUSH1 0x0 DUP3 ADD MSTORE POP JUMP JUMPDEST PUSH1 0x0 PUSH2 0x60FD PUSH1 0x1D DUP4 PUSH2 0x50DE JUMP JUMPDEST SWAP2 POP PUSH2 0x6108 DUP3 PUSH2 0x60C7 JUMP JUMPDEST PUSH1 0x20 DUP3 ADD SWAP1 POP SWAP2 SWAP1 POP JUMP JUMPDEST PUSH1 0x0 PUSH1 0x20 DUP3 ADD SWAP1 POP DUP2 DUP2 SUB PUSH1 0x0 DUP4 ADD MSTORE PUSH2 0x612C DUP2 PUSH2 0x60F0 JUMP JUMPDEST SWAP1 POP SWAP2 SWAP1 POP JUMP JUMPDEST PUSH32 0x7265706574697469766520657865637574696F6E000000000000000000000000 PUSH1 0x0 DUP3 ADD MSTORE POP JUMP JUMPDEST PUSH1 0x0 PUSH2 0x6169 PUSH1 0x14 DUP4 PUSH2 0x50DE JUMP JUMPDEST SWAP2 POP PUSH2 0x6174 DUP3 PUSH2 0x6133 JUMP JUMPDEST PUSH1 0x20 DUP3 ADD SWAP1 POP SWAP2 SWAP1 POP JUMP JUMPDEST PUSH1 0x0 PUSH1 0x20 DUP3 ADD SWAP1 POP DUP2 DUP2 SUB PUSH1 0x0 DUP4 ADD MSTORE PUSH2 0x6198 DUP2 PUSH2 0x615C JUMP JUMPDEST SWAP1 POP SWAP2 SWAP1 POP JUMP JUMPDEST PUSH32 0x546865207661756C7420697320636C6F73656400000000000000000000000000 PUSH1 0x0 DUP3 ADD MSTORE POP JUMP JUMPDEST PUSH1 0x0 PUSH2 0x61D5 PUSH1 0x13 DUP4 PUSH2 0x50DE JUMP JUMPDEST SWAP2 POP PUSH2 0x61E0 DUP3 PUSH2 0x619F JUMP JUMPDEST PUSH1 0x20 DUP3 ADD SWAP1 POP SWAP2 SWAP1 POP JUMP JUMPDEST PUSH1 0x0 PUSH1 0x20 DUP3 ADD SWAP1 POP DUP2 DUP2 SUB PUSH1 0x0 DUP4 ADD MSTORE PUSH2 0x6204 DUP2 PUSH2 0x61C8 JUMP JUMPDEST SWAP1 POP SWAP2 SWAP1 POP JUMP JUMPDEST PUSH1 0x0 DUP2 SWAP1 POP SWAP2 SWAP1 POP JUMP JUMPDEST PUSH1 0x0 PUSH2 0x6230 PUSH2 0x622B PUSH2 0x6226 DUP5 PUSH2 0x620B JUMP JUMPDEST PUSH2 0x4FB0 JUMP JUMPDEST PUSH2 0x4B2A JUMP JUMPDEST SWAP1 POP SWAP2 SWAP1 POP JUMP JUMPDEST PUSH2 0x6240 DUP2 PUSH2 0x6215 JUMP JUMPDEST DUP3 MSTORE POP POP JUMP JUMPDEST PUSH1 0x3 DUP2 LT PUSH2 0x6257 JUMPI PUSH2 0x6256 PUSH2 0x5450 JUMP JUMPDEST JUMPDEST POP JUMP JUMPDEST PUSH1 0x0 DUP2 SWAP1 POP PUSH2 0x6268 DUP3 PUSH2 0x6246 JUMP JUMPDEST SWAP2 SWAP1 POP JUMP JUMPDEST PUSH1 0x0 PUSH2 0x6278 DUP3 PUSH2 0x625A JUMP JUMPDEST SWAP1 POP SWAP2 SWAP1 POP JUMP JUMPDEST PUSH2 0x6288 DUP2 PUSH2 0x626D JUMP JUMPDEST DUP3 MSTORE POP POP JUMP JUMPDEST PUSH32 0x766F746500000000000000000000000000000000000000000000000000000000 PUSH1 0x0 DUP3 ADD MSTORE POP JUMP JUMPDEST PUSH1 0x0 PUSH2 0x62C4 PUSH1 0x4 DUP4 PUSH2 0x50DE JUMP JUMPDEST SWAP2 POP PUSH2 0x62CF DUP3 PUSH2 0x628E JUMP JUMPDEST PUSH1 0x20 DUP3 ADD SWAP1 POP SWAP2 SWAP1 POP JUMP JUMPDEST PUSH1 0x0 PUSH1 0x80 DUP3 ADD SWAP1 POP PUSH2 0x62EF PUSH1 0x0 DUP4 ADD DUP7 PUSH2 0x503C JUMP JUMPDEST PUSH2 0x62FC PUSH1 0x20 DUP4 ADD DUP6 PUSH2 0x6237 JUMP JUMPDEST PUSH2 0x6309 PUSH1 0x40 DUP4 ADD DUP5 PUSH2 0x627F JUMP JUMPDEST DUP2 DUP2 SUB PUSH1 0x60 DUP4 ADD MSTORE PUSH2 0x631A DUP2 PUSH2 0x62B7 JUMP JUMPDEST SWAP1 POP SWAP5 SWAP4 POP POP POP POP JUMP JUMPDEST PUSH32 0x54686520766F746520706173736564207769746820666577657220766F746573 PUSH1 0x0 DUP3 ADD MSTORE PUSH32 0x207468616E20746865206F726967696E616C0000000000000000000000000000 PUSH1 0x20 DUP3 ADD MSTORE POP JUMP JUMPDEST PUSH1 0x0 PUSH2 0x6380 PUSH1 0x32 DUP4 PUSH2 0x50DE JUMP JUMPDEST SWAP2 POP PUSH2 0x638B DUP3 PUSH2 0x6324 JUMP JUMPDEST PUSH1 0x40 DUP3 ADD SWAP1 POP SWAP2 SWAP1 POP JUMP JUMPDEST PUSH1 0x0 PUSH1 0x20 DUP3 ADD SWAP1 POP DUP2 DUP2 SUB PUSH1 0x0 DUP4 ADD MSTORE PUSH2 0x63AF DUP2 PUSH2 0x6373 JUMP JUMPDEST SWAP1 POP SWAP2 SWAP1 POP JUMP JUMPDEST PUSH1 0x0 PUSH2 0x63C9 PUSH2 0x63C4 DUP5 PUSH2 0x4BF6 JUMP JUMPDEST PUSH2 0x4BDB JUMP JUMPDEST SWAP1 POP DUP3 DUP2 MSTORE PUSH1 0x20 DUP2 ADD DUP5 DUP5 DUP5 ADD GT ISZERO PUSH2 0x63E5 JUMPI PUSH2 0x63E4 PUSH2 0x4B65 JUMP JUMPDEST JUMPDEST PUSH2 0x63F0 DUP5 DUP3 DUP6 PUSH2 0x4E15 JUMP JUMPDEST POP SWAP4 SWAP3 POP POP POP JUMP JUMPDEST PUSH1 0x0 DUP3 PUSH1 0x1F DUP4 ADD SLT PUSH2 0x640D JUMPI PUSH2 0x640C PUSH2 0x4B60 JUMP JUMPDEST JUMPDEST DUP2 MLOAD PUSH2 0x641D DUP5 DUP3 PUSH1 0x20 DUP7 ADD PUSH2 0x63B6 JUMP JUMPDEST SWAP2 POP POP SWAP3 SWAP2 POP POP JUMP JUMPDEST PUSH1 0x0 PUSH2 0xFFFF DUP3 AND SWAP1 POP SWAP2 SWAP1 POP JUMP JUMPDEST PUSH2 0x643D DUP2 PUSH2 0x6426 JUMP JUMPDEST DUP2 EQ PUSH2 0x6448 JUMPI PUSH1 0x0 DUP1 REVERT JUMPDEST POP JUMP JUMPDEST PUSH1 0x0 DUP2 MLOAD SWAP1 POP PUSH2 0x645A DUP2 PUSH2 0x6434 JUMP JUMPDEST SWAP3 SWAP2 POP POP JUMP JUMPDEST PUSH1 0x0 DUP1 PUSH1 0x40 DUP4 DUP6 SUB SLT ISZERO PUSH2 0x6477 JUMPI PUSH2 0x6476 PUSH2 0x4B20 JUMP JUMPDEST JUMPDEST PUSH1 0x0 DUP4 ADD MLOAD PUSH8 0xFFFFFFFFFFFFFFFF DUP2 GT ISZERO PUSH2 0x6495 JUMPI PUSH2 0x6494 PUSH2 0x4B25 JUMP JUMPDEST JUMPDEST PUSH2 0x64A1 DUP6 DUP3 DUP7 ADD PUSH2 0x63F8 JUMP JUMPDEST SWAP3 POP POP PUSH1 0x20 PUSH2 0x64B2 DUP6 DUP3 DUP7 ADD PUSH2 0x644B JUMP JUMPDEST SWAP2 POP POP SWAP3 POP SWAP3 SWAP1 POP JUMP JUMPDEST PUSH2 0x64C5 DUP2 PUSH2 0x6426 JUMP JUMPDEST DUP3 MSTORE POP POP JUMP JUMPDEST PUSH1 0x0 PUSH1 0x40 DUP3 ADD SWAP1 POP DUP2 DUP2 SUB PUSH1 0x0 DUP4 ADD MSTORE PUSH2 0x64E5 DUP2 DUP6 PUSH2 0x50EF JUMP JUMPDEST SWAP1 POP PUSH2 0x64F4 PUSH1 0x20 DUP4 ADD DUP5 PUSH2 0x64BC JUMP JUMPDEST SWAP4 SWAP3 POP POP POP JUMP JUMPDEST PUSH32 0x6572726F72207570646174652074656D706C6174652061646472657373000000 PUSH1 0x0 DUP3 ADD MSTORE POP JUMP JUMPDEST PUSH1 0x0 PUSH2 0x6531 PUSH1 0x1D DUP4 PUSH2 0x50DE JUMP JUMPDEST SWAP2 POP PUSH2 0x653C DUP3 PUSH2 0x64FB JUMP JUMPDEST PUSH1 0x20 DUP3 ADD SWAP1 POP SWAP2 SWAP1 POP JUMP JUMPDEST PUSH1 0x0 PUSH1 0x20 DUP3 ADD SWAP1 POP DUP2 DUP2 SUB PUSH1 0x0 DUP4 ADD MSTORE PUSH2 0x6560 DUP2 PUSH2 0x6524 JUMP JUMPDEST SWAP1 POP SWAP2 SWAP1 POP JUMP JUMPDEST PUSH1 0x0 DUP2 MLOAD SWAP1 POP SWAP2 SWAP1 POP JUMP JUMPDEST PUSH1 0x0 DUP2 SWAP1 POP SWAP3 SWAP2 POP POP JUMP JUMPDEST PUSH1 0x0 PUSH2 0x6588 DUP3 PUSH2 0x6567 JUMP JUMPDEST PUSH2 0x6592 DUP2 DUP6 PUSH2 0x6572 JUMP JUMPDEST SWAP4 POP PUSH2 0x65A2 DUP2 DUP6 PUSH1 0x20 DUP7 ADD PUSH2 0x4E15 JUMP JUMPDEST DUP1 DUP5 ADD SWAP2 POP POP SWAP3 SWAP2 POP POP JUMP JUMPDEST PUSH1 0x0 PUSH2 0x65BA DUP3 DUP5 PUSH2 0x657D JUMP JUMPDEST SWAP2 POP DUP2 SWAP1 POP SWAP3 SWAP2 POP POP JUMP JUMPDEST PUSH1 0x0 PUSH1 0x20 DUP3 ADD SWAP1 POP DUP2 DUP2 SUB PUSH1 0x0 DUP4 ADD MSTORE PUSH2 0x65DF DUP2 DUP5 PUSH2 0x50EF JUMP JUMPDEST SWAP1 POP SWAP3 SWAP2 POP POP JUMP JUMPDEST PUSH1 0x0 PUSH1 0xFF DUP3 AND SWAP1 POP SWAP2 SWAP1 POP JUMP JUMPDEST PUSH1 0x0 PUSH2 0x660F PUSH2 0x660A PUSH2 0x6605 DUP5 PUSH2 0x620B JUMP JUMPDEST PUSH2 0x4FB0 JUMP JUMPDEST PUSH2 0x65E7 JUMP JUMPDEST SWAP1 POP SWAP2 SWAP1 POP JUMP JUMPDEST PUSH2 0x661F DUP2 PUSH2 0x65F4 JUMP JUMPDEST DUP3 MSTORE POP POP JUMP JUMPDEST PUSH1 0x0 PUSH1 0x60 DUP3 ADD SWAP1 POP PUSH2 0x663A PUSH1 0x0 DUP4 ADD DUP7 PUSH2 0x503C JUMP JUMPDEST PUSH2 0x6647 PUSH1 0x20 DUP4 ADD DUP6 PUSH2 0x6616 JUMP JUMPDEST PUSH2 0x6654 PUSH1 0x40 DUP4 ADD DUP5 PUSH2 0x4D31 JUMP JUMPDEST SWAP5 SWAP4 POP POP POP POP JUMP INVALID NUMBER PUSH16 0x6E747261637420757067726164652074 PUSH16 0x20746865206E6578742076657273696F PUSH15 0x4D6F6469667920746865206D696E69 PUSH14 0x756D206E756D626572206F662074 PUSH16 0x6B656E732068656C644D6F6469667920 PUSH21 0x6865206D6178696D756D20706C6564676520647572 PUSH2 0x7469 PUSH16 0x6EA264697066735822122030BDCCEB9F JUMPDEST 0x2B 0x22 0xB4 0xD1 0x21 0x4C 0xF7 0xAC 0x4F CREATE POP PUSH18 0xEF82624616C20088318F1B6C417F64736F6C PUSH4 0x4300080A STOP CALLER "
		},
		"gasEstimates": {
			"creation": {
				"codeDepositCost": "5273600",
				"executionCost": "6321",
				"totalCost": "5279921"
			},
			"external": {
				"createVote(string,string,string,uint256,uint256)": "infinite",
				"delegateTo(uint256,address)": "infinite",
				"execute(uint256)": "infinite",
				"executeQueue(uint256)": "infinite",
				"executeQueueMap(uint256)": "2864",
				"getAuction()": "infinite",
				"getTemplate()": "infinite",
				"getTokenSup()": "infinite",
				"getVault()": "infinite",
				"getVeToken()": "infinite",
				"getVeTokenMaxRewardDuration()": "infinite",
				"getVoteDetailwithVoteId(uint256)": "infinite",
				"getVoteStatuswithVoteId(uint256)": "infinite",
				"hashCompareInternal(string,string)": "infinite",
				"initialize()": "infinite",
				"minimumQuantity()": "2475",
				"reject(uint256,string,string)": "infinite",
				"router()": "2599",
				"templateState(uint256)": "2907",
				"templateTotal()": "2496",
				"toVote(uint256,bool)": "infinite",
				"veToken()": "infinite",
				"voteTatola()": "2452",
				"winningProposal(uint256)": "infinite"
			},
			"internal": {
				"_execute(uint256,uint256,uint256)": "infinite",
				"_governanceTemplate(address,string memory,uint256)": "infinite",
				"_updateCall(address,string memory,address)": "infinite",
				"getGovernanceTemplateforEntireVaultPrice(uint256)": "infinite",
				"getGovernanceTemplateforMaxPledgeDuration(uint256)": "infinite",
				"getGovernanceTemplateforMaxRewardDuration(uint256)": "infinite",
				"getGovernanceTemplateforMinimumQuantity(uint256)": "22154",
				"setMinimumQuantity(uint256)": "22125",
				"updateVote(address)": "infinite"
			}
		},
		"methodIdentifiers": {
			"createVote(string,string,string,uint256,uint256)": "b4ebfdbe",
			"delegateTo(uint256,address)": "fc7881c6",
			"execute(uint256)": "fe0d94c1",
			"executeQueue(uint256)": "52538550",
			"executeQueueMap(uint256)": "2c9e3ef0",
			"getAuction()": "7327df25",
			"getTemplate()": "321c48f2",
			"getTokenSup()": "51dae647",
			"getVault()": "8d928af8",
			"getVeToken()": "3fee74d7",
			"getVeTokenMaxRewardDuration()": "b8794247",
			"getVoteDetailwithVoteId(uint256)": "74786f69",
			"getVoteStatuswithVoteId(uint256)": "d9ae5bd5",
			"hashCompareInternal(string,string)": "73569340",
			"initialize()": "8129fc1c",
			"minimumQuantity()": "1d75ddcc",
			"reject(uint256,string,string)": "07baa021",
			"router()": "f887ea40",
			"templateState(uint256)": "984d63f4",
			"templateTotal()": "5a42007f",
			"toVote(uint256,bool)": "82214856",
			"veToken()": "3b92eb23",
			"voteTatola()": "75bb5b09",
			"winningProposal(uint256)": "bcd60f6c"
		}
	},
	"abi": [
		{
			"anonymous": false,
			"inputs": [
				{
					"indexed": false,
					"internalType": "uint256",
					"name": "voteId_",
					"type": "uint256"
				},
				{
					"indexed": false,
					"internalType": "string",
					"name": "voteTopic_",
					"type": "string"
				},
				{
					"indexed": false,
					"internalType": "address",
					"name": "creator_",
					"type": "address"
				},
				{
					"indexed": false,
					"internalType": "string",
					"name": "describe_",
					"type": "string"
				},
				{
					"indexed": false,
					"internalType": "uint256",
					"name": "codeModel_",
					"type": "uint256"
				},
				{
					"indexed": false,
					"internalType": "uint256",
					"name": "newValaue_",
					"type": "uint256"
				},
				{
					"indexed": false,
					"internalType": "string",
					"name": "link_",
					"type": "string"
				},
				{
					"indexed": false,
					"internalType": "uint256",
					"name": "endTime_",
					"type": "uint256"
				},
				{
					"indexed": false,
					"internalType": "uint256",
					"name": "cacheTime_",
					"type": "uint256"
				},
				{
					"indexed": false,
					"internalType": "uint256",
					"name": "tokenAmount_",
					"type": "uint256"
				},
				{
					"indexed": false,
					"internalType": "uint256",
					"name": "veTokenAmount_",
					"type": "uint256"
				}
			],
			"name": "CreateVoteEvent",
			"type": "event"
		},
		{
			"anonymous": false,
			"inputs": [
				{
					"indexed": true,
					"internalType": "uint256",
					"name": "voteId_",
					"type": "uint256"
				},
				{
					"indexed": false,
					"internalType": "address",
					"name": "to_",
					"type": "address"
				}
			],
			"name": "DelegateToEvent",
			"type": "event"
		},
		{
			"anonymous": false,
			"inputs": [
				{
					"indexed": true,
					"internalType": "uint256",
					"name": "voteId_",
					"type": "uint256"
				}
			],
			"name": "ExecuteEvent",
			"type": "event"
		},
		{
			"anonymous": false,
			"inputs": [
				{
					"indexed": true,
					"internalType": "uint256",
					"name": "voteId_",
					"type": "uint256"
				}
			],
			"name": "FailingEvent",
			"type": "event"
		},
		{
			"anonymous": false,
			"inputs": [
				{
					"indexed": true,
					"internalType": "address",
					"name": "veToken_",
					"type": "address"
				}
			],
			"name": "InitializeEvent",
			"type": "event"
		},
		{
			"anonymous": false,
			"inputs": [
				{
					"indexed": true,
					"internalType": "uint256",
					"name": "voteId_",
					"type": "uint256"
				},
				{
					"indexed": false,
					"internalType": "address",
					"name": "creator_",
					"type": "address"
				},
				{
					"indexed": false,
					"internalType": "string",
					"name": "reasons_",
					"type": "string"
				},
				{
					"indexed": false,
					"internalType": "uint256",
					"name": "endTime_",
					"type": "uint256"
				},
				{
					"indexed": false,
					"internalType": "string",
					"name": "link_",
					"type": "string"
				}
			],
			"name": "RejectEvent",
			"type": "event"
		},
		{
			"anonymous": false,
			"inputs": [
				{
					"indexed": false,
					"internalType": "string",
					"name": "topic_",
					"type": "string"
				},
				{
					"indexed": false,
					"internalType": "address",
					"name": "targetAddress_",
					"type": "address"
				},
				{
					"indexed": false,
					"internalType": "string",
					"name": "functionName_",
					"type": "string"
				}
			],
			"name": "SetGovernanceTemplateEvent",
			"type": "event"
		},
		{
			"anonymous": false,
			"inputs": [
				{
					"indexed": true,
					"internalType": "uint256",
					"name": "voteId_",
					"type": "uint256"
				},
				{
					"indexed": false,
					"internalType": "bool",
					"name": "result_",
					"type": "bool"
				},
				{
					"indexed": false,
					"internalType": "address",
					"name": "voter",
					"type": "address"
				},
				{
					"indexed": false,
					"internalType": "uint256",
					"name": "amount",
					"type": "uint256"
				},
				{
					"indexed": false,
					"internalType": "enum VoteData.VoteStatus",
					"name": "state",
					"type": "uint8"
				}
			],
			"name": "ToVoteEvent",
			"type": "event"
		},
		{
			"inputs": [
				{
					"internalType": "string",
					"name": "voteTopic_",
					"type": "string"
				},
				{
					"internalType": "string",
					"name": "describe_",
					"type": "string"
				},
				{
					"internalType": "string",
					"name": "link_",
					"type": "string"
				},
				{
					"internalType": "uint256",
					"name": "condeModel_",
					"type": "uint256"
				},
				{
					"internalType": "uint256",
					"name": "valaue_",
					"type": "uint256"
				}
			],
			"name": "createVote",
			"outputs": [
				{
					"internalType": "uint256",
					"name": "voteId",
					"type": "uint256"
				}
			],
			"stateMutability": "nonpayable",
			"type": "function"
		},
		{
			"inputs": [
				{
					"internalType": "uint256",
					"name": "voteId_",
					"type": "uint256"
				},
				{
					"internalType": "address",
					"name": "to_",
					"type": "address"
				}
			],
			"name": "delegateTo",
			"outputs": [],
			"stateMutability": "nonpayable",
			"type": "function"
		},
		{
			"inputs": [
				{
					"internalType": "uint256",
					"name": "voteId_",
					"type": "uint256"
				}
			],
			"name": "execute",
			"outputs": [],
			"stateMutability": "nonpayable",
			"type": "function"
		},
		{
			"inputs": [
				{
					"internalType": "uint256",
					"name": "",
					"type": "uint256"
				}
			],
			"name": "executeQueue",
			"outputs": [
				{
					"internalType": "uint256",
					"name": "",
					"type": "uint256"
				}
			],
			"stateMutability": "view",
			"type": "function"
		},
		{
			"inputs": [
				{
					"internalType": "uint256",
					"name": "",
					"type": "uint256"
				}
			],
			"name": "executeQueueMap",
			"outputs": [
				{
					"internalType": "bool",
					"name": "",
					"type": "bool"
				}
			],
			"stateMutability": "view",
			"type": "function"
		},
		{
			"inputs": [],
			"name": "getAuction",
			"outputs": [
				{
					"internalType": "address",
					"name": "",
					"type": "address"
				}
			],
			"stateMutability": "view",
			"type": "function"
		},
		{
			"inputs": [],
			"name": "getTemplate",
			"outputs": [
				{
					"components": [
						{
							"internalType": "uint256",
							"name": "templateId",
							"type": "uint256"
						},
						{
							"internalType": "string",
							"name": "toppic",
							"type": "string"
						},
						{
							"internalType": "string",
							"name": "functionName",
							"type": "string"
						}
					],
					"internalType": "struct VoteData.GgovernanceTemplate[]",
					"name": "arr",
					"type": "tuple[]"
				}
			],
			"stateMutability": "view",
			"type": "function"
		},
		{
			"inputs": [],
			"name": "getTokenSup",
			"outputs": [
				{
					"internalType": "uint256",
					"name": "",
					"type": "uint256"
				}
			],
			"stateMutability": "view",
			"type": "function"
		},
		{
			"inputs": [],
			"name": "getVault",
			"outputs": [
				{
					"internalType": "address",
					"name": "",
					"type": "address"
				}
			],
			"stateMutability": "view",
			"type": "function"
		},
		{
			"inputs": [],
			"name": "getVeToken",
			"outputs": [
				{
					"internalType": "address",
					"name": "",
					"type": "address"
				}
			],
			"stateMutability": "view",
			"type": "function"
		},
		{
			"inputs": [],
			"name": "getVeTokenMaxRewardDuration",
			"outputs": [
				{
					"internalType": "uint256",
					"name": "",
					"type": "uint256"
				}
			],
			"stateMutability": "view",
			"type": "function"
		},
		{
			"inputs": [
				{
					"internalType": "uint256",
					"name": "voteId_",
					"type": "uint256"
				}
			],
			"name": "getVoteDetailwithVoteId",
			"outputs": [
				{
					"internalType": "string",
					"name": "voteTopic",
					"type": "string"
				},
				{
					"internalType": "string",
					"name": "describe",
					"type": "string"
				},
				{
					"internalType": "address",
					"name": "initiator",
					"type": "address"
				}
			],
			"stateMutability": "view",
			"type": "function"
		},
		{
			"inputs": [
				{
					"internalType": "uint256",
					"name": "voteId_",
					"type": "uint256"
				}
			],
			"name": "getVoteStatuswithVoteId",
			"outputs": [
				{
					"internalType": "uint256",
					"name": "status",
					"type": "uint256"
				}
			],
			"stateMutability": "view",
			"type": "function"
		},
		{
			"inputs": [
				{
					"internalType": "string",
					"name": "a",
					"type": "string"
				},
				{
					"internalType": "string",
					"name": "b",
					"type": "string"
				}
			],
			"name": "hashCompareInternal",
			"outputs": [
				{
					"internalType": "bool",
					"name": "",
					"type": "bool"
				}
			],
			"stateMutability": "nonpayable",
			"type": "function"
		},
		{
			"inputs": [],
			"name": "initialize",
			"outputs": [],
			"stateMutability": "nonpayable",
			"type": "function"
		},
		{
			"inputs": [],
			"name": "minimumQuantity",
			"outputs": [
				{
					"internalType": "uint256",
					"name": "",
					"type": "uint256"
				}
			],
			"stateMutability": "view",
			"type": "function"
		},
		{
			"inputs": [
				{
					"internalType": "uint256",
					"name": "voteId_",
					"type": "uint256"
				},
				{
					"internalType": "string",
					"name": "reasons_",
					"type": "string"
				},
				{
					"internalType": "string",
					"name": "link_",
					"type": "string"
				}
			],
			"name": "reject",
			"outputs": [],
			"stateMutability": "nonpayable",
			"type": "function"
		},
		{
			"inputs": [],
			"name": "router",
			"outputs": [
				{
					"internalType": "address",
					"name": "",
					"type": "address"
				}
			],
			"stateMutability": "view",
			"type": "function"
		},
		{
			"inputs": [
				{
					"internalType": "uint256",
					"name": "",
					"type": "uint256"
				}
			],
			"name": "templateState",
			"outputs": [
				{
					"internalType": "bool",
					"name": "",
					"type": "bool"
				}
			],
			"stateMutability": "view",
			"type": "function"
		},
		{
			"inputs": [],
			"name": "templateTotal",
			"outputs": [
				{
					"internalType": "uint256",
					"name": "",
					"type": "uint256"
				}
			],
			"stateMutability": "view",
			"type": "function"
		},
		{
			"inputs": [
				{
					"internalType": "uint256",
					"name": "voteId_",
					"type": "uint256"
				},
				{
					"internalType": "bool",
					"name": "result_",
					"type": "bool"
				}
			],
			"name": "toVote",
			"outputs": [],
			"stateMutability": "nonpayable",
			"type": "function"
		},
		{
			"inputs": [],
			"name": "veToken",
			"outputs": [
				{
					"internalType": "contract IVeToken",
					"name": "",
					"type": "address"
				}
			],
			"stateMutability": "view",
			"type": "function"
		},
		{
			"inputs": [],
			"name": "voteTatola",
			"outputs": [
				{
					"internalType": "uint256",
					"name": "",
					"type": "uint256"
				}
			],
			"stateMutability": "view",
			"type": "function"
		},
		{
			"inputs": [
				{
					"internalType": "uint256",
					"name": "voteId_",
					"type": "uint256"
				}
			],
			"name": "winningProposal",
			"outputs": [
				{
					"internalType": "uint256",
					"name": "forVote",
					"type": "uint256"
				},
				{
					"internalType": "uint256",
					"name": "againstVote",
					"type": "uint256"
				},
				{
					"internalType": "uint256",
					"name": "forVote2",
					"type": "uint256"
				},
				{
					"internalType": "uint256",
					"name": "againstVote2",
					"type": "uint256"
				},
				{
					"internalType": "uint256",
					"name": "time",
					"type": "uint256"
				}
			],
			"stateMutability": "view",
			"type": "function"
		}
	]
}