{
	"contracts/Settings.sol": {
		"Settings": {
			"abi": [
				{
					"inputs": [],
					"stateMutability": "nonpayable",
					"type": "constructor"
				},
				{
					"anonymous": false,
					"inputs": [
						{
							"indexed": true,
							"internalType": "address",
							"name": "previousOwner",
							"type": "address"
						},
						{
							"indexed": true,
							"internalType": "address",
							"name": "newOwner",
							"type": "address"
						}
					],
					"name": "OwnershipTransferred",
					"type": "event"
				},
				{
					"anonymous": false,
					"inputs": [
						{
							"indexed": false,
							"internalType": "uint256",
							"name": "old",
							"type": "uint256"
						},
						{
							"indexed": false,
							"internalType": "uint256",
							"name": "new_",
							"type": "uint256"
						}
					],
					"name": "UpdateCuratorFee",
					"type": "event"
				},
				{
					"anonymous": false,
					"inputs": [
						{
							"indexed": false,
							"internalType": "address",
							"name": "old",
							"type": "address"
						},
						{
							"indexed": false,
							"internalType": "address",
							"name": "new_",
							"type": "address"
						}
					],
					"name": "UpdateFeeReceiver",
					"type": "event"
				},
				{
					"anonymous": false,
					"inputs": [
						{
							"indexed": false,
							"internalType": "uint256",
							"name": "old",
							"type": "uint256"
						},
						{
							"indexed": false,
							"internalType": "uint256",
							"name": "new_",
							"type": "uint256"
						}
					],
					"name": "UpdateGovernanceFee",
					"type": "event"
				},
				{
					"anonymous": false,
					"inputs": [
						{
							"indexed": false,
							"internalType": "uint256",
							"name": "old",
							"type": "uint256"
						},
						{
							"indexed": false,
							"internalType": "uint256",
							"name": "new_",
							"type": "uint256"
						}
					],
					"name": "UpdateMaxAuctionLength",
					"type": "event"
				},
				{
					"anonymous": false,
					"inputs": [
						{
							"indexed": false,
							"internalType": "uint256",
							"name": "old",
							"type": "uint256"
						},
						{
							"indexed": false,
							"internalType": "uint256",
							"name": "new_",
							"type": "uint256"
						}
					],
					"name": "UpdateMinAuctionLength",
					"type": "event"
				},
				{
					"anonymous": false,
					"inputs": [
						{
							"indexed": false,
							"internalType": "uint256",
							"name": "old",
							"type": "uint256"
						},
						{
							"indexed": false,
							"internalType": "uint256",
							"name": "new_",
							"type": "uint256"
						}
					],
					"name": "UpdateMinBidIncrease",
					"type": "event"
				},
				{
					"inputs": [],
					"name": "feeReceiver",
					"outputs": [
						{
							"internalType": "address payable",
							"name": "",
							"type": "address"
						}
					],
					"stateMutability": "view",
					"type": "function"
				},
				{
					"inputs": [],
					"name": "governanceFee",
					"outputs": [
						{
							"internalType": "uint256",
							"name": "",
							"type": "uint256"
						}
					],
					"stateMutability": "view",
					"type": "function"
				},
				{
					"inputs": [],
					"name": "maxAuctionLength",
					"outputs": [
						{
							"internalType": "uint256",
							"name": "",
							"type": "uint256"
						}
					],
					"stateMutability": "view",
					"type": "function"
				},
				{
					"inputs": [],
					"name": "maxCuratorFee",
					"outputs": [
						{
							"internalType": "uint256",
							"name": "",
							"type": "uint256"
						}
					],
					"stateMutability": "view",
					"type": "function"
				},
				{
					"inputs": [],
					"name": "maxGovFee",
					"outputs": [
						{
							"internalType": "uint256",
							"name": "",
							"type": "uint256"
						}
					],
					"stateMutability": "view",
					"type": "function"
				},
				{
					"inputs": [],
					"name": "maxMaxAuctionLength",
					"outputs": [
						{
							"internalType": "uint256",
							"name": "",
							"type": "uint256"
						}
					],
					"stateMutability": "view",
					"type": "function"
				},
				{
					"inputs": [],
					"name": "maxMinBidIncrease",
					"outputs": [
						{
							"internalType": "uint256",
							"name": "",
							"type": "uint256"
						}
					],
					"stateMutability": "view",
					"type": "function"
				},
				{
					"inputs": [],
					"name": "minAuctionLength",
					"outputs": [
						{
							"internalType": "uint256",
							"name": "",
							"type": "uint256"
						}
					],
					"stateMutability": "view",
					"type": "function"
				},
				{
					"inputs": [],
					"name": "minBidIncrease",
					"outputs": [
						{
							"internalType": "uint256",
							"name": "",
							"type": "uint256"
						}
					],
					"stateMutability": "view",
					"type": "function"
				},
				{
					"inputs": [],
					"name": "minMinAuctionLength",
					"outputs": [
						{
							"internalType": "uint256",
							"name": "",
							"type": "uint256"
						}
					],
					"stateMutability": "view",
					"type": "function"
				},
				{
					"inputs": [],
					"name": "minMinBidIncrease",
					"outputs": [
						{
							"internalType": "uint256",
							"name": "",
							"type": "uint256"
						}
					],
					"stateMutability": "view",
					"type": "function"
				},
				{
					"inputs": [],
					"name": "owner",
					"outputs": [
						{
							"internalType": "address",
							"name": "",
							"type": "address"
						}
					],
					"stateMutability": "view",
					"type": "function"
				},
				{
					"inputs": [],
					"name": "renounceOwnership",
					"outputs": [],
					"stateMutability": "nonpayable",
					"type": "function"
				},
				{
					"inputs": [
						{
							"internalType": "address payable",
							"name": "receiver",
							"type": "address"
						}
					],
					"name": "setFeeReceiver",
					"outputs": [],
					"stateMutability": "nonpayable",
					"type": "function"
				},
				{
					"inputs": [
						{
							"internalType": "uint256",
							"name": "fee",
							"type": "uint256"
						}
					],
					"name": "setGovernanceFee",
					"outputs": [],
					"stateMutability": "nonpayable",
					"type": "function"
				},
				{
					"inputs": [
						{
							"internalType": "uint256",
							"name": "length",
							"type": "uint256"
						}
					],
					"name": "setMaxAuctionLength",
					"outputs": [],
					"stateMutability": "nonpayable",
					"type": "function"
				},
				{
					"inputs": [
						{
							"internalType": "uint256",
							"name": "fee",
							"type": "uint256"
						}
					],
					"name": "setMaxCuratorFee",
					"outputs": [],
					"stateMutability": "nonpayable",
					"type": "function"
				},
				{
					"inputs": [
						{
							"internalType": "uint256",
							"name": "length",
							"type": "uint256"
						}
					],
					"name": "setMinAuctionLength",
					"outputs": [],
					"stateMutability": "nonpayable",
					"type": "function"
				},
				{
					"inputs": [
						{
							"internalType": "uint256",
							"name": "min",
							"type": "uint256"
						}
					],
					"name": "setMinBidIncrease",
					"outputs": [],
					"stateMutability": "nonpayable",
					"type": "function"
				},
				{
					"inputs": [
						{
							"internalType": "address",
							"name": "newOwner",
							"type": "address"
						}
					],
					"name": "transferOwnership",
					"outputs": [],
					"stateMutability": "nonpayable",
					"type": "function"
				}
			],
			"devdoc": {
				"kind": "dev",
				"methods": {
					"owner()": {
						"details": "Returns the address of the current owner."
					},
					"renounceOwnership()": {
						"details": "Leaves the contract without owner. It will not be possible to call `onlyOwner` functions anymore. Can only be called by the current owner. NOTE: Renouncing ownership will leave the contract without an owner, thereby removing any functionality that is only available to the owner."
					},
					"transferOwnership(address)": {
						"details": "Transfers ownership of the contract to a new account (`newOwner`). Can only be called by the current owner."
					}
				},
				"version": 1
			},
			"evm": {
				"assembly": "    /* \"contracts/Settings.sol\":150:3522  contract Settings is Ownable, ISettings {\r... */\n  mstore(0x40, 0x80)\n    /* \"contracts/Settings.sol\":1635:1905  constructor() {\r... */\n  callvalue\n  dup1\n  iszero\n  tag_1\n  jumpi\n  0x00\n  dup1\n  revert\ntag_1:\n  pop\n    /* \"@openzeppelin/contracts/access/Ownable.sol\":867:884  address msgSender */\n  0x00\n    /* \"@openzeppelin/contracts/access/Ownable.sol\":887:899  _msgSender() */\n  tag_5\n    /* \"@openzeppelin/contracts/access/Ownable.sol\":887:897  _msgSender */\n  shl(0x20, tag_6)\n    /* \"@openzeppelin/contracts/access/Ownable.sol\":887:899  _msgSender() */\n  0x20\n  shr\n  jump\t// in\ntag_5:\n    /* \"@openzeppelin/contracts/access/Ownable.sol\":867:899  address msgSender = _msgSender() */\n  swap1\n  pop\n    /* \"@openzeppelin/contracts/access/Ownable.sol\":918:927  msgSender */\n  dup1\n    /* \"@openzeppelin/contracts/access/Ownable.sol\":909:915  _owner */\n  0x00\n  dup1\n    /* \"@openzeppelin/contracts/access/Ownable.sol\":909:927  _owner = msgSender */\n  0x0100\n  exp\n  dup2\n  sload\n  dup2\n  0xffffffffffffffffffffffffffffffffffffffff\n  mul\n  not\n  and\n  swap1\n  dup4\n  0xffffffffffffffffffffffffffffffffffffffff\n  and\n  mul\n  or\n  swap1\n  sstore\n  pop\n    /* \"@openzeppelin/contracts/access/Ownable.sol\":975:984  msgSender */\n  dup1\n    /* \"@openzeppelin/contracts/access/Ownable.sol\":942:985  OwnershipTransferred(address(0), msgSender) */\n  0xffffffffffffffffffffffffffffffffffffffff\n  and\n    /* \"@openzeppelin/contracts/access/Ownable.sol\":971:972  0 */\n  0x00\n    /* \"@openzeppelin/contracts/access/Ownable.sol\":942:985  OwnershipTransferred(address(0), msgSender) */\n  0xffffffffffffffffffffffffffffffffffffffff\n  and\n  0x8be0079c531659141344cd1fd0a4f28419497f9722a3daafe3b4186f6b6457e0\n  mload(0x40)\n  mload(0x40)\n  dup1\n  swap2\n  sub\n  swap1\n  log3\n    /* \"@openzeppelin/contracts/access/Ownable.sol\":842:992  constructor () {... */\n  pop\n    /* \"contracts/Settings.sol\":1679:1686  2 weeks */\n  0x127500\n    /* \"contracts/Settings.sol\":1660:1676  maxAuctionLength */\n  0x01\n    /* \"contracts/Settings.sol\":1660:1686  maxAuctionLength = 2 weeks */\n  dup2\n  swap1\n  sstore\n  pop\n    /* \"contracts/Settings.sol\":1716:1726  15 minutes */\n  0x0384\n    /* \"contracts/Settings.sol\":1697:1713  minAuctionLength */\n  0x02\n    /* \"contracts/Settings.sol\":1697:1726  minAuctionLength = 15 minutes */\n  dup2\n  swap1\n  sstore\n  pop\n    /* \"contracts/Settings.sol\":1759:1801  0xAEb639aa794055Bc1992fB06545fdF2cFF53DC10 */\n  0xaeb639aa794055bc1992fb06545fdf2cff53dc10\n    /* \"contracts/Settings.sol\":1737:1748  feeReceiver */\n  0x06\n  0x00\n    /* \"contracts/Settings.sol\":1737:1802  feeReceiver = payable(0xAEb639aa794055Bc1992fB06545fdF2cFF53DC10) */\n  0x0100\n  exp\n  dup2\n  sload\n  dup2\n  0xffffffffffffffffffffffffffffffffffffffff\n  mul\n  not\n  and\n  swap1\n  dup4\n  0xffffffffffffffffffffffffffffffffffffffff\n  and\n  mul\n  or\n  swap1\n  sstore\n  pop\n    /* \"contracts/Settings.sol\":1830:1832  50 */\n  0x32\n    /* \"contracts/Settings.sol\":1813:1827  minBidIncrease */\n  0x05\n    /* \"contracts/Settings.sol\":1813:1832  minBidIncrease = 50 */\n  dup2\n  swap1\n  sstore\n  pop\n    /* \"contracts/Settings.sol\":1865:1868  100 */\n  0x64\n    /* \"contracts/Settings.sol\":1849:1862  maxCuratorFee */\n  0x04\n    /* \"contracts/Settings.sol\":1849:1868  maxCuratorFee = 100 */\n  dup2\n  swap1\n  sstore\n  pop\n    /* \"contracts/Settings.sol\":1895:1897  10 */\n  0x0a\n    /* \"contracts/Settings.sol\":1879:1892  governanceFee */\n  0x03\n    /* \"contracts/Settings.sol\":1879:1897  governanceFee = 10 */\n  dup2\n  swap1\n  sstore\n  pop\n    /* \"contracts/Settings.sol\":150:3522  contract Settings is Ownable, ISettings {\r... */\n  jump(tag_8)\n    /* \"@openzeppelin/contracts/utils/Context.sol\":586:682  function _msgSender() internal view virtual returns (address) {... */\ntag_6:\n    /* \"@openzeppelin/contracts/utils/Context.sol\":639:646  address */\n  0x00\n    /* \"@openzeppelin/contracts/utils/Context.sol\":665:675  msg.sender */\n  caller\n    /* \"@openzeppelin/contracts/utils/Context.sol\":658:675  return msg.sender */\n  swap1\n  pop\n    /* \"@openzeppelin/contracts/utils/Context.sol\":586:682  function _msgSender() internal view virtual returns (address) {... */\n  swap1\n  jump\t// out\n    /* \"contracts/Settings.sol\":150:3522  contract Settings is Ownable, ISettings {\r... */\ntag_8:\n  dataSize(sub_0)\n  dup1\n  dataOffset(sub_0)\n  0x00\n  codecopy\n  0x00\n  return\nstop\n\nsub_0: assembly {\n        /* \"contracts/Settings.sol\":150:3522  contract Settings is Ownable, ISettings {\r... */\n      mstore(0x40, 0x80)\n      callvalue\n      dup1\n      iszero\n      tag_1\n      jumpi\n      0x00\n      dup1\n      revert\n    tag_1:\n      pop\n      jumpi(tag_2, lt(calldatasize, 0x04))\n      shr(0xe0, calldataload(0x00))\n      dup1\n      0x8a364bc1\n      gt\n      tag_23\n      jumpi\n      dup1\n      0xb3f00674\n      gt\n      tag_24\n      jumpi\n      dup1\n      0xb3f00674\n      eq\n      tag_18\n      jumpi\n      dup1\n      0xd213b900\n      eq\n      tag_19\n      jumpi\n      dup1\n      0xefdcd974\n      eq\n      tag_20\n      jumpi\n      dup1\n      0xf2fde38b\n      eq\n      tag_21\n      jumpi\n      dup1\n      0xfcd81e32\n      eq\n      tag_22\n      jumpi\n      jump(tag_2)\n    tag_24:\n      dup1\n      0x8a364bc1\n      eq\n      tag_13\n      jumpi\n      dup1\n      0x8da5cb5b\n      eq\n      tag_14\n      jumpi\n      dup1\n      0x9665eb0f\n      eq\n      tag_15\n      jumpi\n      dup1\n      0xa0b335e3\n      eq\n      tag_16\n      jumpi\n      dup1\n      0xaffdafd8\n      eq\n      tag_17\n      jumpi\n      jump(tag_2)\n    tag_23:\n      dup1\n      0x6109f5b5\n      gt\n      tag_25\n      jumpi\n      dup1\n      0x6109f5b5\n      eq\n      tag_8\n      jumpi\n      dup1\n      0x6fc83db3\n      eq\n      tag_9\n      jumpi\n      dup1\n      0x715018a6\n      eq\n      tag_10\n      jumpi\n      dup1\n      0x7c513c0f\n      eq\n      tag_11\n      jumpi\n      dup1\n      0x846a4dd2\n      eq\n      tag_12\n      jumpi\n      jump(tag_2)\n    tag_25:\n      dup1\n      0x0e519ef9\n      eq\n      tag_3\n      jumpi\n      dup1\n      0x0ea90a12\n      eq\n      tag_4\n      jumpi\n      dup1\n      0x1a58364c\n      eq\n      tag_5\n      jumpi\n      dup1\n      0x32a69330\n      eq\n      tag_6\n      jumpi\n      dup1\n      0x339f87ed\n      eq\n      tag_7\n      jumpi\n    tag_2:\n      0x00\n      dup1\n      revert\n        /* \"contracts/Settings.sol\":241:281  uint256 public override maxAuctionLength */\n    tag_3:\n      tag_26\n      tag_27\n      jump\t// in\n    tag_26:\n      mload(0x40)\n      tag_28\n      swap2\n      swap1\n      tag_29\n      jump\t// in\n    tag_28:\n      mload(0x40)\n      dup1\n      swap2\n      sub\n      swap1\n      return\n        /* \"contracts/Settings.sol\":651:688  uint256 public override governanceFee */\n    tag_4:\n      tag_30\n      tag_31\n      jump\t// in\n    tag_30:\n      mload(0x40)\n      tag_32\n      swap2\n      swap1\n      tag_29\n      jump\t// in\n    tag_32:\n      mload(0x40)\n      dup1\n      swap2\n      sub\n      swap1\n      return\n        /* \"contracts/Settings.sol\":342:395  uint256 public constant maxMaxAuctionLength = 8 weeks */\n    tag_5:\n      tag_33\n      tag_34\n      jump\t// in\n    tag_33:\n      mload(0x40)\n      tag_35\n      swap2\n      swap1\n      tag_29\n      jump\t// in\n    tag_35:\n      mload(0x40)\n      dup1\n      swap2\n      sub\n      swap1\n      return\n        /* \"contracts/Settings.sol\":2591:2798  function setGovernanceFee(uint256 fee) external onlyOwner {\r... */\n    tag_6:\n      tag_36\n      0x04\n      dup1\n      calldatasize\n      sub\n      dup2\n      add\n      swap1\n      tag_37\n      swap2\n      swap1\n      tag_38\n      jump\t// in\n    tag_37:\n      tag_39\n      jump\t// in\n    tag_36:\n      stop\n        /* \"contracts/Settings.sol\":1104:1150  uint256 public constant minMinBidIncrease = 10 */\n    tag_7:\n      tag_40\n      tag_41\n      jump\t// in\n    tag_40:\n      mload(0x40)\n      tag_42\n      swap2\n      swap1\n      tag_29\n      jump\t// in\n    tag_42:\n      mload(0x40)\n      dup1\n      swap2\n      sub\n      swap1\n      return\n        /* \"contracts/Settings.sol\":2806:2956  function setMaxCuratorFee(uint256 fee) external onlyOwner {\r... */\n    tag_8:\n      tag_43\n      0x04\n      dup1\n      calldatasize\n      sub\n      dup2\n      add\n      swap1\n      tag_44\n      swap2\n      swap1\n      tag_38\n      jump\t// in\n    tag_44:\n      tag_45\n      jump\t// in\n    tag_43:\n      stop\n        /* \"contracts/Settings.sol\":2252:2583  function setMinAuctionLength(uint256 length) external onlyOwner {\r... */\n    tag_9:\n      tag_46\n      0x04\n      dup1\n      calldatasize\n      sub\n      dup2\n      add\n      swap1\n      tag_47\n      swap2\n      swap1\n      tag_38\n      jump\t// in\n    tag_47:\n      tag_48\n      jump\t// in\n    tag_46:\n      stop\n        /* \"@openzeppelin/contracts/access/Ownable.sol\":1700:1845  function renounceOwnership() public virtual onlyOwner {... */\n    tag_10:\n      tag_49\n      tag_50\n      jump\t// in\n    tag_49:\n      stop\n        /* \"contracts/Settings.sol\":918:956  uint256 public override minBidIncrease */\n    tag_11:\n      tag_51\n      tag_52\n      jump\t// in\n    tag_51:\n      mload(0x40)\n      tag_53\n      swap2\n      swap1\n      tag_29\n      jump\t// in\n    tag_53:\n      mload(0x40)\n      dup1\n      swap2\n      sub\n      swap1\n      return\n        /* \"contracts/Settings.sol\":730:769  uint256 public constant maxGovFee = 100 */\n    tag_12:\n      tag_54\n      tag_55\n      jump\t// in\n    tag_54:\n      mload(0x40)\n      tag_56\n      swap2\n      swap1\n      tag_29\n      jump\t// in\n    tag_56:\n      mload(0x40)\n      dup1\n      swap2\n      sub\n      swap1\n      return\n        /* \"contracts/Settings.sol\":812:849  uint256 public override maxCuratorFee */\n    tag_13:\n      tag_57\n      tag_58\n      jump\t// in\n    tag_57:\n      mload(0x40)\n      tag_59\n      swap2\n      swap1\n      tag_29\n      jump\t// in\n    tag_59:\n      mload(0x40)\n      dup1\n      swap2\n      sub\n      swap1\n      return\n        /* \"@openzeppelin/contracts/access/Ownable.sol\":1068:1153  function owner() public view virtual returns (address) {... */\n    tag_14:\n      tag_60\n      tag_61\n      jump\t// in\n    tag_60:\n      mload(0x40)\n      tag_62\n      swap2\n      swap1\n      tag_63\n      jump\t// in\n    tag_62:\n      mload(0x40)\n      dup1\n      swap2\n      sub\n      swap1\n      return\n        /* \"contracts/Settings.sol\":2964:3268  function setMinBidIncrease(uint256 min) external onlyOwner {\r... */\n    tag_15:\n      tag_64\n      0x04\n      dup1\n      calldatasize\n      sub\n      dup2\n      add\n      swap1\n      tag_65\n      swap2\n      swap1\n      tag_38\n      jump\t// in\n    tag_65:\n      tag_66\n      jump\t// in\n    tag_64:\n      stop\n        /* \"contracts/Settings.sol\":448:488  uint256 public override minAuctionLength */\n    tag_16:\n      tag_67\n      tag_68\n      jump\t// in\n    tag_67:\n      mload(0x40)\n      tag_69\n      swap2\n      swap1\n      tag_29\n      jump\t// in\n    tag_69:\n      mload(0x40)\n      dup1\n      swap2\n      sub\n      swap1\n      return\n        /* \"contracts/Settings.sol\":1913:2244  function setMaxAuctionLength(uint256 length) external onlyOwner {\r... */\n    tag_17:\n      tag_70\n      0x04\n      dup1\n      calldatasize\n      sub\n      dup2\n      add\n      swap1\n      tag_71\n      swap2\n      swap1\n      tag_38\n      jump\t// in\n    tag_71:\n      tag_72\n      jump\t// in\n    tag_70:\n      stop\n        /* \"contracts/Settings.sol\":1215:1258  address payable public override feeReceiver */\n    tag_18:\n      tag_73\n      tag_74\n      jump\t// in\n    tag_73:\n      mload(0x40)\n      tag_75\n      swap2\n      swap1\n      tag_76\n      jump\t// in\n    tag_75:\n      mload(0x40)\n      dup1\n      swap2\n      sub\n      swap1\n      return\n        /* \"contracts/Settings.sol\":550:606  uint256 public constant minMinAuctionLength = 15 minutes */\n    tag_19:\n      tag_77\n      tag_78\n      jump\t// in\n    tag_77:\n      mload(0x40)\n      tag_79\n      swap2\n      swap1\n      tag_29\n      jump\t// in\n    tag_79:\n      mload(0x40)\n      dup1\n      swap2\n      sub\n      swap1\n      return\n        /* \"contracts/Settings.sol\":3276:3519  function setFeeReceiver(address payable receiver) external onlyOwner {\r... */\n    tag_20:\n      tag_80\n      0x04\n      dup1\n      calldatasize\n      sub\n      dup2\n      add\n      swap1\n      tag_81\n      swap2\n      swap1\n      tag_82\n      jump\t// in\n    tag_81:\n      tag_83\n      jump\t// in\n    tag_80:\n      stop\n        /* \"@openzeppelin/contracts/access/Ownable.sol\":1994:2234  function transferOwnership(address newOwner) public virtual onlyOwner {... */\n    tag_21:\n      tag_84\n      0x04\n      dup1\n      calldatasize\n      sub\n      dup2\n      add\n      swap1\n      tag_85\n      swap2\n      swap1\n      tag_86\n      jump\t// in\n    tag_85:\n      tag_87\n      jump\t// in\n    tag_84:\n      stop\n        /* \"contracts/Settings.sol\":1007:1054  uint256 public constant maxMinBidIncrease = 100 */\n    tag_22:\n      tag_88\n      tag_89\n      jump\t// in\n    tag_88:\n      mload(0x40)\n      tag_90\n      swap2\n      swap1\n      tag_29\n      jump\t// in\n    tag_90:\n      mload(0x40)\n      dup1\n      swap2\n      sub\n      swap1\n      return\n        /* \"contracts/Settings.sol\":241:281  uint256 public override maxAuctionLength */\n    tag_27:\n      sload(0x01)\n      dup2\n      jump\t// out\n        /* \"contracts/Settings.sol\":651:688  uint256 public override governanceFee */\n    tag_31:\n      sload(0x03)\n      dup2\n      jump\t// out\n        /* \"contracts/Settings.sol\":342:395  uint256 public constant maxMaxAuctionLength = 8 weeks */\n    tag_34:\n        /* \"contracts/Settings.sol\":388:395  8 weeks */\n      0x49d400\n        /* \"contracts/Settings.sol\":342:395  uint256 public constant maxMaxAuctionLength = 8 weeks */\n      dup2\n      jump\t// out\n        /* \"contracts/Settings.sol\":2591:2798  function setGovernanceFee(uint256 fee) external onlyOwner {\r... */\n    tag_39:\n        /* \"@openzeppelin/contracts/access/Ownable.sol\":1291:1303  _msgSender() */\n      tag_92\n        /* \"@openzeppelin/contracts/access/Ownable.sol\":1291:1301  _msgSender */\n      tag_93\n        /* \"@openzeppelin/contracts/access/Ownable.sol\":1291:1303  _msgSender() */\n      jump\t// in\n    tag_92:\n        /* \"@openzeppelin/contracts/access/Ownable.sol\":1280:1303  owner() == _msgSender() */\n      0xffffffffffffffffffffffffffffffffffffffff\n      and\n        /* \"@openzeppelin/contracts/access/Ownable.sol\":1280:1287  owner() */\n      tag_94\n        /* \"@openzeppelin/contracts/access/Ownable.sol\":1280:1285  owner */\n      tag_61\n        /* \"@openzeppelin/contracts/access/Ownable.sol\":1280:1287  owner() */\n      jump\t// in\n    tag_94:\n        /* \"@openzeppelin/contracts/access/Ownable.sol\":1280:1303  owner() == _msgSender() */\n      0xffffffffffffffffffffffffffffffffffffffff\n      and\n      eq\n        /* \"@openzeppelin/contracts/access/Ownable.sol\":1272:1340  require(owner() == _msgSender(), \"Ownable: caller is not the owner\") */\n      tag_95\n      jumpi\n      mload(0x40)\n      0x08c379a000000000000000000000000000000000000000000000000000000000\n      dup2\n      mstore\n      0x04\n      add\n      tag_96\n      swap1\n      tag_97\n      jump\t// in\n    tag_96:\n      mload(0x40)\n      dup1\n      swap2\n      sub\n      swap1\n      revert\n    tag_95:\n        /* \"contracts/Settings.sol\":766:769  100 */\n      0x64\n        /* \"contracts/Settings.sol\":2668:2671  fee */\n      dup2\n        /* \"contracts/Settings.sol\":2668:2684  fee <= maxGovFee */\n      gt\n      iszero\n        /* \"contracts/Settings.sol\":2660:2701  require(fee <= maxGovFee, \"fee too high\") */\n      tag_99\n      jumpi\n      mload(0x40)\n      0x08c379a000000000000000000000000000000000000000000000000000000000\n      dup2\n      mstore\n      0x04\n      add\n      tag_100\n      swap1\n      tag_101\n      jump\t// in\n    tag_100:\n      mload(0x40)\n      dup1\n      swap2\n      sub\n      swap1\n      revert\n    tag_99:\n        /* \"contracts/Settings.sol\":2719:2758  UpdateGovernanceFee(governanceFee, fee) */\n      0x11b96af861c45de0c17127383516c92fc2a9d50eff86ea831b69e76a3fa87e2f\n        /* \"contracts/Settings.sol\":2739:2752  governanceFee */\n      sload(0x03)\n        /* \"contracts/Settings.sol\":2754:2757  fee */\n      dup3\n        /* \"contracts/Settings.sol\":2719:2758  UpdateGovernanceFee(governanceFee, fee) */\n      mload(0x40)\n      tag_102\n      swap3\n      swap2\n      swap1\n      tag_103\n      jump\t// in\n    tag_102:\n      mload(0x40)\n      dup1\n      swap2\n      sub\n      swap1\n      log1\n        /* \"contracts/Settings.sol\":2787:2790  fee */\n      dup1\n        /* \"contracts/Settings.sol\":2771:2784  governanceFee */\n      0x03\n        /* \"contracts/Settings.sol\":2771:2790  governanceFee = fee */\n      dup2\n      swap1\n      sstore\n      pop\n        /* \"contracts/Settings.sol\":2591:2798  function setGovernanceFee(uint256 fee) external onlyOwner {\r... */\n      pop\n      jump\t// out\n        /* \"contracts/Settings.sol\":1104:1150  uint256 public constant minMinBidIncrease = 10 */\n    tag_41:\n        /* \"contracts/Settings.sol\":1148:1150  10 */\n      0x0a\n        /* \"contracts/Settings.sol\":1104:1150  uint256 public constant minMinBidIncrease = 10 */\n      dup2\n      jump\t// out\n        /* \"contracts/Settings.sol\":2806:2956  function setMaxCuratorFee(uint256 fee) external onlyOwner {\r... */\n    tag_45:\n        /* \"@openzeppelin/contracts/access/Ownable.sol\":1291:1303  _msgSender() */\n      tag_105\n        /* \"@openzeppelin/contracts/access/Ownable.sol\":1291:1301  _msgSender */\n      tag_93\n        /* \"@openzeppelin/contracts/access/Ownable.sol\":1291:1303  _msgSender() */\n      jump\t// in\n    tag_105:\n        /* \"@openzeppelin/contracts/access/Ownable.sol\":1280:1303  owner() == _msgSender() */\n      0xffffffffffffffffffffffffffffffffffffffff\n      and\n        /* \"@openzeppelin/contracts/access/Ownable.sol\":1280:1287  owner() */\n      tag_106\n        /* \"@openzeppelin/contracts/access/Ownable.sol\":1280:1285  owner */\n      tag_61\n        /* \"@openzeppelin/contracts/access/Ownable.sol\":1280:1287  owner() */\n      jump\t// in\n    tag_106:\n        /* \"@openzeppelin/contracts/access/Ownable.sol\":1280:1303  owner() == _msgSender() */\n      0xffffffffffffffffffffffffffffffffffffffff\n      and\n      eq\n        /* \"@openzeppelin/contracts/access/Ownable.sol\":1272:1340  require(owner() == _msgSender(), \"Ownable: caller is not the owner\") */\n      tag_107\n      jumpi\n      mload(0x40)\n      0x08c379a000000000000000000000000000000000000000000000000000000000\n      dup2\n      mstore\n      0x04\n      add\n      tag_108\n      swap1\n      tag_97\n      jump\t// in\n    tag_108:\n      mload(0x40)\n      dup1\n      swap2\n      sub\n      swap1\n      revert\n    tag_107:\n        /* \"contracts/Settings.sol\":2880:2916  UpdateCuratorFee(maxCuratorFee, fee) */\n      0x283f7179cc13a8f90c3123b415b98ca8a0ca9619eed3c981db52809ab62700f9\n        /* \"contracts/Settings.sol\":2897:2910  maxCuratorFee */\n      sload(0x04)\n        /* \"contracts/Settings.sol\":2912:2915  fee */\n      dup3\n        /* \"contracts/Settings.sol\":2880:2916  UpdateCuratorFee(maxCuratorFee, fee) */\n      mload(0x40)\n      tag_110\n      swap3\n      swap2\n      swap1\n      tag_103\n      jump\t// in\n    tag_110:\n      mload(0x40)\n      dup1\n      swap2\n      sub\n      swap1\n      log1\n        /* \"contracts/Settings.sol\":2945:2948  fee */\n      dup1\n        /* \"contracts/Settings.sol\":2929:2942  maxCuratorFee */\n      0x04\n        /* \"contracts/Settings.sol\":2929:2948  maxCuratorFee = fee */\n      dup2\n      swap1\n      sstore\n      pop\n        /* \"contracts/Settings.sol\":2806:2956  function setMaxCuratorFee(uint256 fee) external onlyOwner {\r... */\n      pop\n      jump\t// out\n        /* \"contracts/Settings.sol\":2252:2583  function setMinAuctionLength(uint256 length) external onlyOwner {\r... */\n    tag_48:\n        /* \"@openzeppelin/contracts/access/Ownable.sol\":1291:1303  _msgSender() */\n      tag_112\n        /* \"@openzeppelin/contracts/access/Ownable.sol\":1291:1301  _msgSender */\n      tag_93\n        /* \"@openzeppelin/contracts/access/Ownable.sol\":1291:1303  _msgSender() */\n      jump\t// in\n    tag_112:\n        /* \"@openzeppelin/contracts/access/Ownable.sol\":1280:1303  owner() == _msgSender() */\n      0xffffffffffffffffffffffffffffffffffffffff\n      and\n        /* \"@openzeppelin/contracts/access/Ownable.sol\":1280:1287  owner() */\n      tag_113\n        /* \"@openzeppelin/contracts/access/Ownable.sol\":1280:1285  owner */\n      tag_61\n        /* \"@openzeppelin/contracts/access/Ownable.sol\":1280:1287  owner() */\n      jump\t// in\n    tag_113:\n        /* \"@openzeppelin/contracts/access/Ownable.sol\":1280:1303  owner() == _msgSender() */\n      0xffffffffffffffffffffffffffffffffffffffff\n      and\n      eq\n        /* \"@openzeppelin/contracts/access/Ownable.sol\":1272:1340  require(owner() == _msgSender(), \"Ownable: caller is not the owner\") */\n      tag_114\n      jumpi\n      mload(0x40)\n      0x08c379a000000000000000000000000000000000000000000000000000000000\n      dup2\n      mstore\n      0x04\n      add\n      tag_115\n      swap1\n      tag_97\n      jump\t// in\n    tag_115:\n      mload(0x40)\n      dup1\n      swap2\n      sub\n      swap1\n      revert\n    tag_114:\n        /* \"contracts/Settings.sol\":596:606  15 minutes */\n      0x0384\n        /* \"contracts/Settings.sol\":2335:2341  length */\n      dup2\n        /* \"contracts/Settings.sol\":2335:2364  length >= minMinAuctionLength */\n      lt\n      iszero\n        /* \"contracts/Settings.sol\":2327:2395  require(length >= minMinAuctionLength, \"min auction length too low\") */\n      tag_117\n      jumpi\n      mload(0x40)\n      0x08c379a000000000000000000000000000000000000000000000000000000000\n      dup2\n      mstore\n      0x04\n      add\n      tag_118\n      swap1\n      tag_119\n      jump\t// in\n    tag_118:\n      mload(0x40)\n      dup1\n      swap2\n      sub\n      swap1\n      revert\n    tag_117:\n        /* \"contracts/Settings.sol\":2423:2439  maxAuctionLength */\n      sload(0x01)\n        /* \"contracts/Settings.sol\":2414:2420  length */\n      dup2\n        /* \"contracts/Settings.sol\":2414:2439  length < maxAuctionLength */\n      lt\n        /* \"contracts/Settings.sol\":2406:2471  require(length < maxAuctionLength, \"min auction length too high\") */\n      tag_120\n      jumpi\n      mload(0x40)\n      0x08c379a000000000000000000000000000000000000000000000000000000000\n      dup2\n      mstore\n      0x04\n      add\n      tag_121\n      swap1\n      tag_122\n      jump\t// in\n    tag_121:\n      mload(0x40)\n      dup1\n      swap2\n      sub\n      swap1\n      revert\n    tag_120:\n        /* \"contracts/Settings.sol\":2489:2537  UpdateMinAuctionLength(minAuctionLength, length) */\n      0x055017e5b2f20973817c668e2f744e7c1b68a6f20332f25bb7b9bbb2f0c7eca7\n        /* \"contracts/Settings.sol\":2512:2528  minAuctionLength */\n      sload(0x02)\n        /* \"contracts/Settings.sol\":2530:2536  length */\n      dup3\n        /* \"contracts/Settings.sol\":2489:2537  UpdateMinAuctionLength(minAuctionLength, length) */\n      mload(0x40)\n      tag_123\n      swap3\n      swap2\n      swap1\n      tag_103\n      jump\t// in\n    tag_123:\n      mload(0x40)\n      dup1\n      swap2\n      sub\n      swap1\n      log1\n        /* \"contracts/Settings.sol\":2569:2575  length */\n      dup1\n        /* \"contracts/Settings.sol\":2550:2566  minAuctionLength */\n      0x02\n        /* \"contracts/Settings.sol\":2550:2575  minAuctionLength = length */\n      dup2\n      swap1\n      sstore\n      pop\n        /* \"contracts/Settings.sol\":2252:2583  function setMinAuctionLength(uint256 length) external onlyOwner {\r... */\n      pop\n      jump\t// out\n        /* \"@openzeppelin/contracts/access/Ownable.sol\":1700:1845  function renounceOwnership() public virtual onlyOwner {... */\n    tag_50:\n        /* \"@openzeppelin/contracts/access/Ownable.sol\":1291:1303  _msgSender() */\n      tag_125\n        /* \"@openzeppelin/contracts/access/Ownable.sol\":1291:1301  _msgSender */\n      tag_93\n        /* \"@openzeppelin/contracts/access/Ownable.sol\":1291:1303  _msgSender() */\n      jump\t// in\n    tag_125:\n        /* \"@openzeppelin/contracts/access/Ownable.sol\":1280:1303  owner() == _msgSender() */\n      0xffffffffffffffffffffffffffffffffffffffff\n      and\n        /* \"@openzeppelin/contracts/access/Ownable.sol\":1280:1287  owner() */\n      tag_126\n        /* \"@openzeppelin/contracts/access/Ownable.sol\":1280:1285  owner */\n      tag_61\n        /* \"@openzeppelin/contracts/access/Ownable.sol\":1280:1287  owner() */\n      jump\t// in\n    tag_126:\n        /* \"@openzeppelin/contracts/access/Ownable.sol\":1280:1303  owner() == _msgSender() */\n      0xffffffffffffffffffffffffffffffffffffffff\n      and\n      eq\n        /* \"@openzeppelin/contracts/access/Ownable.sol\":1272:1340  require(owner() == _msgSender(), \"Ownable: caller is not the owner\") */\n      tag_127\n      jumpi\n      mload(0x40)\n      0x08c379a000000000000000000000000000000000000000000000000000000000\n      dup2\n      mstore\n      0x04\n      add\n      tag_128\n      swap1\n      tag_97\n      jump\t// in\n    tag_128:\n      mload(0x40)\n      dup1\n      swap2\n      sub\n      swap1\n      revert\n    tag_127:\n        /* \"@openzeppelin/contracts/access/Ownable.sol\":1806:1807  0 */\n      0x00\n        /* \"@openzeppelin/contracts/access/Ownable.sol\":1769:1809  OwnershipTransferred(_owner, address(0)) */\n      0xffffffffffffffffffffffffffffffffffffffff\n      and\n        /* \"@openzeppelin/contracts/access/Ownable.sol\":1790:1796  _owner */\n      0x00\n      dup1\n      sload\n      swap1\n      0x0100\n      exp\n      swap1\n      div\n      0xffffffffffffffffffffffffffffffffffffffff\n      and\n        /* \"@openzeppelin/contracts/access/Ownable.sol\":1769:1809  OwnershipTransferred(_owner, address(0)) */\n      0xffffffffffffffffffffffffffffffffffffffff\n      and\n      0x8be0079c531659141344cd1fd0a4f28419497f9722a3daafe3b4186f6b6457e0\n      mload(0x40)\n      mload(0x40)\n      dup1\n      swap2\n      sub\n      swap1\n      log3\n        /* \"@openzeppelin/contracts/access/Ownable.sol\":1836:1837  0 */\n      0x00\n        /* \"@openzeppelin/contracts/access/Ownable.sol\":1819:1825  _owner */\n      dup1\n      0x00\n        /* \"@openzeppelin/contracts/access/Ownable.sol\":1819:1838  _owner = address(0) */\n      0x0100\n      exp\n      dup2\n      sload\n      dup2\n      0xffffffffffffffffffffffffffffffffffffffff\n      mul\n      not\n      and\n      swap1\n      dup4\n      0xffffffffffffffffffffffffffffffffffffffff\n      and\n      mul\n      or\n      swap1\n      sstore\n      pop\n        /* \"@openzeppelin/contracts/access/Ownable.sol\":1700:1845  function renounceOwnership() public virtual onlyOwner {... */\n      jump\t// out\n        /* \"contracts/Settings.sol\":918:956  uint256 public override minBidIncrease */\n    tag_52:\n      sload(0x05)\n      dup2\n      jump\t// out\n        /* \"contracts/Settings.sol\":730:769  uint256 public constant maxGovFee = 100 */\n    tag_55:\n        /* \"contracts/Settings.sol\":766:769  100 */\n      0x64\n        /* \"contracts/Settings.sol\":730:769  uint256 public constant maxGovFee = 100 */\n      dup2\n      jump\t// out\n        /* \"contracts/Settings.sol\":812:849  uint256 public override maxCuratorFee */\n    tag_58:\n      sload(0x04)\n      dup2\n      jump\t// out\n        /* \"@openzeppelin/contracts/access/Ownable.sol\":1068:1153  function owner() public view virtual returns (address) {... */\n    tag_61:\n        /* \"@openzeppelin/contracts/access/Ownable.sol\":1114:1121  address */\n      0x00\n        /* \"@openzeppelin/contracts/access/Ownable.sol\":1140:1146  _owner */\n      dup1\n      0x00\n      swap1\n      sload\n      swap1\n      0x0100\n      exp\n      swap1\n      div\n      0xffffffffffffffffffffffffffffffffffffffff\n      and\n        /* \"@openzeppelin/contracts/access/Ownable.sol\":1133:1146  return _owner */\n      swap1\n      pop\n        /* \"@openzeppelin/contracts/access/Ownable.sol\":1068:1153  function owner() public view virtual returns (address) {... */\n      swap1\n      jump\t// out\n        /* \"contracts/Settings.sol\":2964:3268  function setMinBidIncrease(uint256 min) external onlyOwner {\r... */\n    tag_66:\n        /* \"@openzeppelin/contracts/access/Ownable.sol\":1291:1303  _msgSender() */\n      tag_132\n        /* \"@openzeppelin/contracts/access/Ownable.sol\":1291:1301  _msgSender */\n      tag_93\n        /* \"@openzeppelin/contracts/access/Ownable.sol\":1291:1303  _msgSender() */\n      jump\t// in\n    tag_132:\n        /* \"@openzeppelin/contracts/access/Ownable.sol\":1280:1303  owner() == _msgSender() */\n      0xffffffffffffffffffffffffffffffffffffffff\n      and\n        /* \"@openzeppelin/contracts/access/Ownable.sol\":1280:1287  owner() */\n      tag_133\n        /* \"@openzeppelin/contracts/access/Ownable.sol\":1280:1285  owner */\n      tag_61\n        /* \"@openzeppelin/contracts/access/Ownable.sol\":1280:1287  owner() */\n      jump\t// in\n    tag_133:\n        /* \"@openzeppelin/contracts/access/Ownable.sol\":1280:1303  owner() == _msgSender() */\n      0xffffffffffffffffffffffffffffffffffffffff\n      and\n      eq\n        /* \"@openzeppelin/contracts/access/Ownable.sol\":1272:1340  require(owner() == _msgSender(), \"Ownable: caller is not the owner\") */\n      tag_134\n      jumpi\n      mload(0x40)\n      0x08c379a000000000000000000000000000000000000000000000000000000000\n      dup2\n      mstore\n      0x04\n      add\n      tag_135\n      swap1\n      tag_97\n      jump\t// in\n    tag_135:\n      mload(0x40)\n      dup1\n      swap2\n      sub\n      swap1\n      revert\n    tag_134:\n        /* \"contracts/Settings.sol\":1051:1054  100 */\n      0x64\n        /* \"contracts/Settings.sol\":3042:3045  min */\n      dup2\n        /* \"contracts/Settings.sol\":3042:3066  min <= maxMinBidIncrease */\n      gt\n      iszero\n        /* \"contracts/Settings.sol\":3034:3096  require(min <= maxMinBidIncrease, \"min bid increase too high\") */\n      tag_137\n      jumpi\n      mload(0x40)\n      0x08c379a000000000000000000000000000000000000000000000000000000000\n      dup2\n      mstore\n      0x04\n      add\n      tag_138\n      swap1\n      tag_139\n      jump\t// in\n    tag_138:\n      mload(0x40)\n      dup1\n      swap2\n      sub\n      swap1\n      revert\n    tag_137:\n        /* \"contracts/Settings.sol\":1148:1150  10 */\n      0x0a\n        /* \"contracts/Settings.sol\":3115:3118  min */\n      dup2\n        /* \"contracts/Settings.sol\":3115:3139  min >= minMinBidIncrease */\n      lt\n      iszero\n        /* \"contracts/Settings.sol\":3107:3168  require(min >= minMinBidIncrease, \"min bid increase too low\") */\n      tag_140\n      jumpi\n      mload(0x40)\n      0x08c379a000000000000000000000000000000000000000000000000000000000\n      dup2\n      mstore\n      0x04\n      add\n      tag_141\n      swap1\n      tag_142\n      jump\t// in\n    tag_141:\n      mload(0x40)\n      dup1\n      swap2\n      sub\n      swap1\n      revert\n    tag_140:\n        /* \"contracts/Settings.sol\":3186:3227  UpdateMinBidIncrease(minBidIncrease, min) */\n      0x3995c181714327dbf0232c3b20873e87ca6978b6418eec0f97a1447c5a4c43fc\n        /* \"contracts/Settings.sol\":3207:3221  minBidIncrease */\n      sload(0x05)\n        /* \"contracts/Settings.sol\":3223:3226  min */\n      dup3\n        /* \"contracts/Settings.sol\":3186:3227  UpdateMinBidIncrease(minBidIncrease, min) */\n      mload(0x40)\n      tag_143\n      swap3\n      swap2\n      swap1\n      tag_103\n      jump\t// in\n    tag_143:\n      mload(0x40)\n      dup1\n      swap2\n      sub\n      swap1\n      log1\n        /* \"contracts/Settings.sol\":3257:3260  min */\n      dup1\n        /* \"contracts/Settings.sol\":3240:3254  minBidIncrease */\n      0x05\n        /* \"contracts/Settings.sol\":3240:3260  minBidIncrease = min */\n      dup2\n      swap1\n      sstore\n      pop\n        /* \"contracts/Settings.sol\":2964:3268  function setMinBidIncrease(uint256 min) external onlyOwner {\r... */\n      pop\n      jump\t// out\n        /* \"contracts/Settings.sol\":448:488  uint256 public override minAuctionLength */\n    tag_68:\n      sload(0x02)\n      dup2\n      jump\t// out\n        /* \"contracts/Settings.sol\":1913:2244  function setMaxAuctionLength(uint256 length) external onlyOwner {\r... */\n    tag_72:\n        /* \"@openzeppelin/contracts/access/Ownable.sol\":1291:1303  _msgSender() */\n      tag_145\n        /* \"@openzeppelin/contracts/access/Ownable.sol\":1291:1301  _msgSender */\n      tag_93\n        /* \"@openzeppelin/contracts/access/Ownable.sol\":1291:1303  _msgSender() */\n      jump\t// in\n    tag_145:\n        /* \"@openzeppelin/contracts/access/Ownable.sol\":1280:1303  owner() == _msgSender() */\n      0xffffffffffffffffffffffffffffffffffffffff\n      and\n        /* \"@openzeppelin/contracts/access/Ownable.sol\":1280:1287  owner() */\n      tag_146\n        /* \"@openzeppelin/contracts/access/Ownable.sol\":1280:1285  owner */\n      tag_61\n        /* \"@openzeppelin/contracts/access/Ownable.sol\":1280:1287  owner() */\n      jump\t// in\n    tag_146:\n        /* \"@openzeppelin/contracts/access/Ownable.sol\":1280:1303  owner() == _msgSender() */\n      0xffffffffffffffffffffffffffffffffffffffff\n      and\n      eq\n        /* \"@openzeppelin/contracts/access/Ownable.sol\":1272:1340  require(owner() == _msgSender(), \"Ownable: caller is not the owner\") */\n      tag_147\n      jumpi\n      mload(0x40)\n      0x08c379a000000000000000000000000000000000000000000000000000000000\n      dup2\n      mstore\n      0x04\n      add\n      tag_148\n      swap1\n      tag_97\n      jump\t// in\n    tag_148:\n      mload(0x40)\n      dup1\n      swap2\n      sub\n      swap1\n      revert\n    tag_147:\n        /* \"contracts/Settings.sol\":388:395  8 weeks */\n      0x49d400\n        /* \"contracts/Settings.sol\":1996:2002  length */\n      dup2\n        /* \"contracts/Settings.sol\":1996:2025  length <= maxMaxAuctionLength */\n      gt\n      iszero\n        /* \"contracts/Settings.sol\":1988:2057  require(length <= maxMaxAuctionLength, \"max auction length too high\") */\n      tag_150\n      jumpi\n      mload(0x40)\n      0x08c379a000000000000000000000000000000000000000000000000000000000\n      dup2\n      mstore\n      0x04\n      add\n      tag_151\n      swap1\n      tag_152\n      jump\t// in\n    tag_151:\n      mload(0x40)\n      dup1\n      swap2\n      sub\n      swap1\n      revert\n    tag_150:\n        /* \"contracts/Settings.sol\":2085:2101  minAuctionLength */\n      sload(0x02)\n        /* \"contracts/Settings.sol\":2076:2082  length */\n      dup2\n        /* \"contracts/Settings.sol\":2076:2101  length > minAuctionLength */\n      gt\n        /* \"contracts/Settings.sol\":2068:2132  require(length > minAuctionLength, \"max auction length too low\") */\n      tag_153\n      jumpi\n      mload(0x40)\n      0x08c379a000000000000000000000000000000000000000000000000000000000\n      dup2\n      mstore\n      0x04\n      add\n      tag_154\n      swap1\n      tag_155\n      jump\t// in\n    tag_154:\n      mload(0x40)\n      dup1\n      swap2\n      sub\n      swap1\n      revert\n    tag_153:\n        /* \"contracts/Settings.sol\":2150:2198  UpdateMaxAuctionLength(maxAuctionLength, length) */\n      0x06684837277f012a4c3a13c8ec0e53d85b843e328a811a8f5f25f5e1456d9f59\n        /* \"contracts/Settings.sol\":2173:2189  maxAuctionLength */\n      sload(0x01)\n        /* \"contracts/Settings.sol\":2191:2197  length */\n      dup3\n        /* \"contracts/Settings.sol\":2150:2198  UpdateMaxAuctionLength(maxAuctionLength, length) */\n      mload(0x40)\n      tag_156\n      swap3\n      swap2\n      swap1\n      tag_103\n      jump\t// in\n    tag_156:\n      mload(0x40)\n      dup1\n      swap2\n      sub\n      swap1\n      log1\n        /* \"contracts/Settings.sol\":2230:2236  length */\n      dup1\n        /* \"contracts/Settings.sol\":2211:2227  maxAuctionLength */\n      0x01\n        /* \"contracts/Settings.sol\":2211:2236  maxAuctionLength = length */\n      dup2\n      swap1\n      sstore\n      pop\n        /* \"contracts/Settings.sol\":1913:2244  function setMaxAuctionLength(uint256 length) external onlyOwner {\r... */\n      pop\n      jump\t// out\n        /* \"contracts/Settings.sol\":1215:1258  address payable public override feeReceiver */\n    tag_74:\n      0x06\n      0x00\n      swap1\n      sload\n      swap1\n      0x0100\n      exp\n      swap1\n      div\n      0xffffffffffffffffffffffffffffffffffffffff\n      and\n      dup2\n      jump\t// out\n        /* \"contracts/Settings.sol\":550:606  uint256 public constant minMinAuctionLength = 15 minutes */\n    tag_78:\n        /* \"contracts/Settings.sol\":596:606  15 minutes */\n      0x0384\n        /* \"contracts/Settings.sol\":550:606  uint256 public constant minMinAuctionLength = 15 minutes */\n      dup2\n      jump\t// out\n        /* \"contracts/Settings.sol\":3276:3519  function setFeeReceiver(address payable receiver) external onlyOwner {\r... */\n    tag_83:\n        /* \"@openzeppelin/contracts/access/Ownable.sol\":1291:1303  _msgSender() */\n      tag_158\n        /* \"@openzeppelin/contracts/access/Ownable.sol\":1291:1301  _msgSender */\n      tag_93\n        /* \"@openzeppelin/contracts/access/Ownable.sol\":1291:1303  _msgSender() */\n      jump\t// in\n    tag_158:\n        /* \"@openzeppelin/contracts/access/Ownable.sol\":1280:1303  owner() == _msgSender() */\n      0xffffffffffffffffffffffffffffffffffffffff\n      and\n        /* \"@openzeppelin/contracts/access/Ownable.sol\":1280:1287  owner() */\n      tag_159\n        /* \"@openzeppelin/contracts/access/Ownable.sol\":1280:1285  owner */\n      tag_61\n        /* \"@openzeppelin/contracts/access/Ownable.sol\":1280:1287  owner() */\n      jump\t// in\n    tag_159:\n        /* \"@openzeppelin/contracts/access/Ownable.sol\":1280:1303  owner() == _msgSender() */\n      0xffffffffffffffffffffffffffffffffffffffff\n      and\n      eq\n        /* \"@openzeppelin/contracts/access/Ownable.sol\":1272:1340  require(owner() == _msgSender(), \"Ownable: caller is not the owner\") */\n      tag_160\n      jumpi\n      mload(0x40)\n      0x08c379a000000000000000000000000000000000000000000000000000000000\n      dup2\n      mstore\n      0x04\n      add\n      tag_161\n      swap1\n      tag_97\n      jump\t// in\n    tag_161:\n      mload(0x40)\n      dup1\n      swap2\n      sub\n      swap1\n      revert\n    tag_160:\n        /* \"contracts/Settings.sol\":3384:3385  0 */\n      0x00\n        /* \"contracts/Settings.sol\":3364:3386  receiver != address(0) */\n      0xffffffffffffffffffffffffffffffffffffffff\n      and\n        /* \"contracts/Settings.sol\":3364:3372  receiver */\n      dup2\n        /* \"contracts/Settings.sol\":3364:3386  receiver != address(0) */\n      0xffffffffffffffffffffffffffffffffffffffff\n      and\n      eq\n      iszero\n        /* \"contracts/Settings.sol\":3356:3418  require(receiver != address(0), \"fees cannot go to 0 address\") */\n      tag_163\n      jumpi\n      mload(0x40)\n      0x08c379a000000000000000000000000000000000000000000000000000000000\n      dup2\n      mstore\n      0x04\n      add\n      tag_164\n      swap1\n      tag_165\n      jump\t// in\n    tag_164:\n      mload(0x40)\n      dup1\n      swap2\n      sub\n      swap1\n      revert\n    tag_163:\n        /* \"contracts/Settings.sol\":3436:3476  UpdateFeeReceiver(feeReceiver, receiver) */\n      0x2861448678f0be67f11bfb5481b3e3b4cfeb3acc6126ad60a05f95bfc6530666\n        /* \"contracts/Settings.sol\":3454:3465  feeReceiver */\n      0x06\n      0x00\n      swap1\n      sload\n      swap1\n      0x0100\n      exp\n      swap1\n      div\n      0xffffffffffffffffffffffffffffffffffffffff\n      and\n        /* \"contracts/Settings.sol\":3467:3475  receiver */\n      dup3\n        /* \"contracts/Settings.sol\":3436:3476  UpdateFeeReceiver(feeReceiver, receiver) */\n      mload(0x40)\n      tag_166\n      swap3\n      swap2\n      swap1\n      tag_167\n      jump\t// in\n    tag_166:\n      mload(0x40)\n      dup1\n      swap2\n      sub\n      swap1\n      log1\n        /* \"contracts/Settings.sol\":3503:3511  receiver */\n      dup1\n        /* \"contracts/Settings.sol\":3489:3500  feeReceiver */\n      0x06\n      0x00\n        /* \"contracts/Settings.sol\":3489:3511  feeReceiver = receiver */\n      0x0100\n      exp\n      dup2\n      sload\n      dup2\n      0xffffffffffffffffffffffffffffffffffffffff\n      mul\n      not\n      and\n      swap1\n      dup4\n      0xffffffffffffffffffffffffffffffffffffffff\n      and\n      mul\n      or\n      swap1\n      sstore\n      pop\n        /* \"contracts/Settings.sol\":3276:3519  function setFeeReceiver(address payable receiver) external onlyOwner {\r... */\n      pop\n      jump\t// out\n        /* \"@openzeppelin/contracts/access/Ownable.sol\":1994:2234  function transferOwnership(address newOwner) public virtual onlyOwner {... */\n    tag_87:\n        /* \"@openzeppelin/contracts/access/Ownable.sol\":1291:1303  _msgSender() */\n      tag_169\n        /* \"@openzeppelin/contracts/access/Ownable.sol\":1291:1301  _msgSender */\n      tag_93\n        /* \"@openzeppelin/contracts/access/Ownable.sol\":1291:1303  _msgSender() */\n      jump\t// in\n    tag_169:\n        /* \"@openzeppelin/contracts/access/Ownable.sol\":1280:1303  owner() == _msgSender() */\n      0xffffffffffffffffffffffffffffffffffffffff\n      and\n        /* \"@openzeppelin/contracts/access/Ownable.sol\":1280:1287  owner() */\n      tag_170\n        /* \"@openzeppelin/contracts/access/Ownable.sol\":1280:1285  owner */\n      tag_61\n        /* \"@openzeppelin/contracts/access/Ownable.sol\":1280:1287  owner() */\n      jump\t// in\n    tag_170:\n        /* \"@openzeppelin/contracts/access/Ownable.sol\":1280:1303  owner() == _msgSender() */\n      0xffffffffffffffffffffffffffffffffffffffff\n      and\n      eq\n        /* \"@openzeppelin/contracts/access/Ownable.sol\":1272:1340  require(owner() == _msgSender(), \"Ownable: caller is not the owner\") */\n      tag_171\n      jumpi\n      mload(0x40)\n      0x08c379a000000000000000000000000000000000000000000000000000000000\n      dup2\n      mstore\n      0x04\n      add\n      tag_172\n      swap1\n      tag_97\n      jump\t// in\n    tag_172:\n      mload(0x40)\n      dup1\n      swap2\n      sub\n      swap1\n      revert\n    tag_171:\n        /* \"@openzeppelin/contracts/access/Ownable.sol\":2102:2103  0 */\n      0x00\n        /* \"@openzeppelin/contracts/access/Ownable.sol\":2082:2104  newOwner != address(0) */\n      0xffffffffffffffffffffffffffffffffffffffff\n      and\n        /* \"@openzeppelin/contracts/access/Ownable.sol\":2082:2090  newOwner */\n      dup2\n        /* \"@openzeppelin/contracts/access/Ownable.sol\":2082:2104  newOwner != address(0) */\n      0xffffffffffffffffffffffffffffffffffffffff\n      and\n      eq\n      iszero\n        /* \"@openzeppelin/contracts/access/Ownable.sol\":2074:2147  require(newOwner != address(0), \"Ownable: new owner is the zero address\") */\n      tag_174\n      jumpi\n      mload(0x40)\n      0x08c379a000000000000000000000000000000000000000000000000000000000\n      dup2\n      mstore\n      0x04\n      add\n      tag_175\n      swap1\n      tag_176\n      jump\t// in\n    tag_175:\n      mload(0x40)\n      dup1\n      swap2\n      sub\n      swap1\n      revert\n    tag_174:\n        /* \"@openzeppelin/contracts/access/Ownable.sol\":2191:2199  newOwner */\n      dup1\n        /* \"@openzeppelin/contracts/access/Ownable.sol\":2162:2200  OwnershipTransferred(_owner, newOwner) */\n      0xffffffffffffffffffffffffffffffffffffffff\n      and\n        /* \"@openzeppelin/contracts/access/Ownable.sol\":2183:2189  _owner */\n      0x00\n      dup1\n      sload\n      swap1\n      0x0100\n      exp\n      swap1\n      div\n      0xffffffffffffffffffffffffffffffffffffffff\n      and\n        /* \"@openzeppelin/contracts/access/Ownable.sol\":2162:2200  OwnershipTransferred(_owner, newOwner) */\n      0xffffffffffffffffffffffffffffffffffffffff\n      and\n      0x8be0079c531659141344cd1fd0a4f28419497f9722a3daafe3b4186f6b6457e0\n      mload(0x40)\n      mload(0x40)\n      dup1\n      swap2\n      sub\n      swap1\n      log3\n        /* \"@openzeppelin/contracts/access/Ownable.sol\":2219:2227  newOwner */\n      dup1\n        /* \"@openzeppelin/contracts/access/Ownable.sol\":2210:2216  _owner */\n      0x00\n      dup1\n        /* \"@openzeppelin/contracts/access/Ownable.sol\":2210:2227  _owner = newOwner */\n      0x0100\n      exp\n      dup2\n      sload\n      dup2\n      0xffffffffffffffffffffffffffffffffffffffff\n      mul\n      not\n      and\n      swap1\n      dup4\n      0xffffffffffffffffffffffffffffffffffffffff\n      and\n      mul\n      or\n      swap1\n      sstore\n      pop\n        /* \"@openzeppelin/contracts/access/Ownable.sol\":1994:2234  function transferOwnership(address newOwner) public virtual onlyOwner {... */\n      pop\n      jump\t// out\n        /* \"contracts/Settings.sol\":1007:1054  uint256 public constant maxMinBidIncrease = 100 */\n    tag_89:\n        /* \"contracts/Settings.sol\":1051:1054  100 */\n      0x64\n        /* \"contracts/Settings.sol\":1007:1054  uint256 public constant maxMinBidIncrease = 100 */\n      dup2\n      jump\t// out\n        /* \"@openzeppelin/contracts/utils/Context.sol\":586:682  function _msgSender() internal view virtual returns (address) {... */\n    tag_93:\n        /* \"@openzeppelin/contracts/utils/Context.sol\":639:646  address */\n      0x00\n        /* \"@openzeppelin/contracts/utils/Context.sol\":665:675  msg.sender */\n      caller\n        /* \"@openzeppelin/contracts/utils/Context.sol\":658:675  return msg.sender */\n      swap1\n      pop\n        /* \"@openzeppelin/contracts/utils/Context.sol\":586:682  function _msgSender() internal view virtual returns (address) {... */\n      swap1\n      jump\t// out\n        /* \"#utility.yul\":7:146   */\n    tag_179:\n      0x00\n        /* \"#utility.yul\":91:97   */\n      dup2\n        /* \"#utility.yul\":78:98   */\n      calldataload\n        /* \"#utility.yul\":69:98   */\n      swap1\n      pop\n        /* \"#utility.yul\":107:140   */\n      tag_181\n        /* \"#utility.yul\":134:139   */\n      dup2\n        /* \"#utility.yul\":107:140   */\n      tag_182\n      jump\t// in\n    tag_181:\n        /* \"#utility.yul\":59:146   */\n      swap3\n      swap2\n      pop\n      pop\n      jump\t// out\n        /* \"#utility.yul\":152:307   */\n    tag_183:\n      0x00\n        /* \"#utility.yul\":244:250   */\n      dup2\n        /* \"#utility.yul\":231:251   */\n      calldataload\n        /* \"#utility.yul\":222:251   */\n      swap1\n      pop\n        /* \"#utility.yul\":260:301   */\n      tag_185\n        /* \"#utility.yul\":295:300   */\n      dup2\n        /* \"#utility.yul\":260:301   */\n      tag_186\n      jump\t// in\n    tag_185:\n        /* \"#utility.yul\":212:307   */\n      swap3\n      swap2\n      pop\n      pop\n      jump\t// out\n        /* \"#utility.yul\":313:452   */\n    tag_187:\n      0x00\n        /* \"#utility.yul\":397:403   */\n      dup2\n        /* \"#utility.yul\":384:404   */\n      calldataload\n        /* \"#utility.yul\":375:404   */\n      swap1\n      pop\n        /* \"#utility.yul\":413:446   */\n      tag_189\n        /* \"#utility.yul\":440:445   */\n      dup2\n        /* \"#utility.yul\":413:446   */\n      tag_190\n      jump\t// in\n    tag_189:\n        /* \"#utility.yul\":365:452   */\n      swap3\n      swap2\n      pop\n      pop\n      jump\t// out\n        /* \"#utility.yul\":458:720   */\n    tag_86:\n      0x00\n        /* \"#utility.yul\":566:568   */\n      0x20\n        /* \"#utility.yul\":554:563   */\n      dup3\n        /* \"#utility.yul\":545:552   */\n      dup5\n        /* \"#utility.yul\":541:564   */\n      sub\n        /* \"#utility.yul\":537:569   */\n      slt\n        /* \"#utility.yul\":534:536   */\n      iszero\n      tag_192\n      jumpi\n        /* \"#utility.yul\":582:583   */\n      0x00\n        /* \"#utility.yul\":579:580   */\n      dup1\n        /* \"#utility.yul\":572:584   */\n      revert\n        /* \"#utility.yul\":534:536   */\n    tag_192:\n        /* \"#utility.yul\":625:626   */\n      0x00\n        /* \"#utility.yul\":650:703   */\n      tag_193\n        /* \"#utility.yul\":695:702   */\n      dup5\n        /* \"#utility.yul\":686:692   */\n      dup3\n        /* \"#utility.yul\":675:684   */\n      dup6\n        /* \"#utility.yul\":671:693   */\n      add\n        /* \"#utility.yul\":650:703   */\n      tag_179\n      jump\t// in\n    tag_193:\n        /* \"#utility.yul\":640:703   */\n      swap2\n      pop\n        /* \"#utility.yul\":596:713   */\n      pop\n        /* \"#utility.yul\":524:720   */\n      swap3\n      swap2\n      pop\n      pop\n      jump\t// out\n        /* \"#utility.yul\":726:1004   */\n    tag_82:\n      0x00\n        /* \"#utility.yul\":842:844   */\n      0x20\n        /* \"#utility.yul\":830:839   */\n      dup3\n        /* \"#utility.yul\":821:828   */\n      dup5\n        /* \"#utility.yul\":817:840   */\n      sub\n        /* \"#utility.yul\":813:845   */\n      slt\n        /* \"#utility.yul\":810:812   */\n      iszero\n      tag_195\n      jumpi\n        /* \"#utility.yul\":858:859   */\n      0x00\n        /* \"#utility.yul\":855:856   */\n      dup1\n        /* \"#utility.yul\":848:860   */\n      revert\n        /* \"#utility.yul\":810:812   */\n    tag_195:\n        /* \"#utility.yul\":901:902   */\n      0x00\n        /* \"#utility.yul\":926:987   */\n      tag_196\n        /* \"#utility.yul\":979:986   */\n      dup5\n        /* \"#utility.yul\":970:976   */\n      dup3\n        /* \"#utility.yul\":959:968   */\n      dup6\n        /* \"#utility.yul\":955:977   */\n      add\n        /* \"#utility.yul\":926:987   */\n      tag_183\n      jump\t// in\n    tag_196:\n        /* \"#utility.yul\":916:987   */\n      swap2\n      pop\n        /* \"#utility.yul\":872:997   */\n      pop\n        /* \"#utility.yul\":800:1004   */\n      swap3\n      swap2\n      pop\n      pop\n      jump\t// out\n        /* \"#utility.yul\":1010:1272   */\n    tag_38:\n      0x00\n        /* \"#utility.yul\":1118:1120   */\n      0x20\n        /* \"#utility.yul\":1106:1115   */\n      dup3\n        /* \"#utility.yul\":1097:1104   */\n      dup5\n        /* \"#utility.yul\":1093:1116   */\n      sub\n        /* \"#utility.yul\":1089:1121   */\n      slt\n        /* \"#utility.yul\":1086:1088   */\n      iszero\n      tag_198\n      jumpi\n        /* \"#utility.yul\":1134:1135   */\n      0x00\n        /* \"#utility.yul\":1131:1132   */\n      dup1\n        /* \"#utility.yul\":1124:1136   */\n      revert\n        /* \"#utility.yul\":1086:1088   */\n    tag_198:\n        /* \"#utility.yul\":1177:1178   */\n      0x00\n        /* \"#utility.yul\":1202:1255   */\n      tag_199\n        /* \"#utility.yul\":1247:1254   */\n      dup5\n        /* \"#utility.yul\":1238:1244   */\n      dup3\n        /* \"#utility.yul\":1227:1236   */\n      dup6\n        /* \"#utility.yul\":1223:1245   */\n      add\n        /* \"#utility.yul\":1202:1255   */\n      tag_187\n      jump\t// in\n    tag_199:\n        /* \"#utility.yul\":1192:1255   */\n      swap2\n      pop\n        /* \"#utility.yul\":1148:1265   */\n      pop\n        /* \"#utility.yul\":1076:1272   */\n      swap3\n      swap2\n      pop\n      pop\n      jump\t// out\n        /* \"#utility.yul\":1278:1425   */\n    tag_200:\n        /* \"#utility.yul\":1373:1418   */\n      tag_202\n        /* \"#utility.yul\":1412:1417   */\n      dup2\n        /* \"#utility.yul\":1373:1418   */\n      tag_203\n      jump\t// in\n    tag_202:\n        /* \"#utility.yul\":1368:1371   */\n      dup3\n        /* \"#utility.yul\":1361:1419   */\n      mstore\n        /* \"#utility.yul\":1351:1425   */\n      pop\n      pop\n      jump\t// out\n        /* \"#utility.yul\":1431:1573   */\n    tag_204:\n        /* \"#utility.yul\":1534:1566   */\n      tag_206\n        /* \"#utility.yul\":1560:1565   */\n      dup2\n        /* \"#utility.yul\":1534:1566   */\n      tag_207\n      jump\t// in\n    tag_206:\n        /* \"#utility.yul\":1529:1532   */\n      dup3\n        /* \"#utility.yul\":1522:1567   */\n      mstore\n        /* \"#utility.yul\":1512:1573   */\n      pop\n      pop\n      jump\t// out\n        /* \"#utility.yul\":1579:1697   */\n    tag_208:\n        /* \"#utility.yul\":1666:1690   */\n      tag_210\n        /* \"#utility.yul\":1684:1689   */\n      dup2\n        /* \"#utility.yul\":1666:1690   */\n      tag_211\n      jump\t// in\n    tag_210:\n        /* \"#utility.yul\":1661:1664   */\n      dup3\n        /* \"#utility.yul\":1654:1691   */\n      mstore\n        /* \"#utility.yul\":1644:1697   */\n      pop\n      pop\n      jump\t// out\n        /* \"#utility.yul\":1703:2069   */\n    tag_212:\n      0x00\n        /* \"#utility.yul\":1866:1933   */\n      tag_214\n        /* \"#utility.yul\":1930:1932   */\n      0x1b\n        /* \"#utility.yul\":1925:1928   */\n      dup4\n        /* \"#utility.yul\":1866:1933   */\n      tag_215\n      jump\t// in\n    tag_214:\n        /* \"#utility.yul\":1859:1933   */\n      swap2\n      pop\n        /* \"#utility.yul\":1942:2035   */\n      tag_216\n        /* \"#utility.yul\":2031:2034   */\n      dup3\n        /* \"#utility.yul\":1942:2035   */\n      tag_217\n      jump\t// in\n    tag_216:\n        /* \"#utility.yul\":2060:2062   */\n      0x20\n        /* \"#utility.yul\":2055:2058   */\n      dup3\n        /* \"#utility.yul\":2051:2063   */\n      add\n        /* \"#utility.yul\":2044:2063   */\n      swap1\n      pop\n        /* \"#utility.yul\":1849:2069   */\n      swap2\n      swap1\n      pop\n      jump\t// out\n        /* \"#utility.yul\":2075:2441   */\n    tag_218:\n      0x00\n        /* \"#utility.yul\":2238:2305   */\n      tag_220\n        /* \"#utility.yul\":2302:2304   */\n      0x26\n        /* \"#utility.yul\":2297:2300   */\n      dup4\n        /* \"#utility.yul\":2238:2305   */\n      tag_215\n      jump\t// in\n    tag_220:\n        /* \"#utility.yul\":2231:2305   */\n      swap2\n      pop\n        /* \"#utility.yul\":2314:2407   */\n      tag_221\n        /* \"#utility.yul\":2403:2406   */\n      dup3\n        /* \"#utility.yul\":2314:2407   */\n      tag_222\n      jump\t// in\n    tag_221:\n        /* \"#utility.yul\":2432:2434   */\n      0x40\n        /* \"#utility.yul\":2427:2430   */\n      dup3\n        /* \"#utility.yul\":2423:2435   */\n      add\n        /* \"#utility.yul\":2416:2435   */\n      swap1\n      pop\n        /* \"#utility.yul\":2221:2441   */\n      swap2\n      swap1\n      pop\n      jump\t// out\n        /* \"#utility.yul\":2447:2813   */\n    tag_223:\n      0x00\n        /* \"#utility.yul\":2610:2677   */\n      tag_225\n        /* \"#utility.yul\":2674:2676   */\n      0x18\n        /* \"#utility.yul\":2669:2672   */\n      dup4\n        /* \"#utility.yul\":2610:2677   */\n      tag_215\n      jump\t// in\n    tag_225:\n        /* \"#utility.yul\":2603:2677   */\n      swap2\n      pop\n        /* \"#utility.yul\":2686:2779   */\n      tag_226\n        /* \"#utility.yul\":2775:2778   */\n      dup3\n        /* \"#utility.yul\":2686:2779   */\n      tag_227\n      jump\t// in\n    tag_226:\n        /* \"#utility.yul\":2804:2806   */\n      0x20\n        /* \"#utility.yul\":2799:2802   */\n      dup3\n        /* \"#utility.yul\":2795:2807   */\n      add\n        /* \"#utility.yul\":2788:2807   */\n      swap1\n      pop\n        /* \"#utility.yul\":2593:2813   */\n      swap2\n      swap1\n      pop\n      jump\t// out\n        /* \"#utility.yul\":2819:3185   */\n    tag_228:\n      0x00\n        /* \"#utility.yul\":2982:3049   */\n      tag_230\n        /* \"#utility.yul\":3046:3048   */\n      0x19\n        /* \"#utility.yul\":3041:3044   */\n      dup4\n        /* \"#utility.yul\":2982:3049   */\n      tag_215\n      jump\t// in\n    tag_230:\n        /* \"#utility.yul\":2975:3049   */\n      swap2\n      pop\n        /* \"#utility.yul\":3058:3151   */\n      tag_231\n        /* \"#utility.yul\":3147:3150   */\n      dup3\n        /* \"#utility.yul\":3058:3151   */\n      tag_232\n      jump\t// in\n    tag_231:\n        /* \"#utility.yul\":3176:3178   */\n      0x20\n        /* \"#utility.yul\":3171:3174   */\n      dup3\n        /* \"#utility.yul\":3167:3179   */\n      add\n        /* \"#utility.yul\":3160:3179   */\n      swap1\n      pop\n        /* \"#utility.yul\":2965:3185   */\n      swap2\n      swap1\n      pop\n      jump\t// out\n        /* \"#utility.yul\":3191:3557   */\n    tag_233:\n      0x00\n        /* \"#utility.yul\":3354:3421   */\n      tag_235\n        /* \"#utility.yul\":3418:3420   */\n      0x1a\n        /* \"#utility.yul\":3413:3416   */\n      dup4\n        /* \"#utility.yul\":3354:3421   */\n      tag_215\n      jump\t// in\n    tag_235:\n        /* \"#utility.yul\":3347:3421   */\n      swap2\n      pop\n        /* \"#utility.yul\":3430:3523   */\n      tag_236\n        /* \"#utility.yul\":3519:3522   */\n      dup3\n        /* \"#utility.yul\":3430:3523   */\n      tag_237\n      jump\t// in\n    tag_236:\n        /* \"#utility.yul\":3548:3550   */\n      0x20\n        /* \"#utility.yul\":3543:3546   */\n      dup3\n        /* \"#utility.yul\":3539:3551   */\n      add\n        /* \"#utility.yul\":3532:3551   */\n      swap1\n      pop\n        /* \"#utility.yul\":3337:3557   */\n      swap2\n      swap1\n      pop\n      jump\t// out\n        /* \"#utility.yul\":3563:3929   */\n    tag_238:\n      0x00\n        /* \"#utility.yul\":3726:3793   */\n      tag_240\n        /* \"#utility.yul\":3790:3792   */\n      0x20\n        /* \"#utility.yul\":3785:3788   */\n      dup4\n        /* \"#utility.yul\":3726:3793   */\n      tag_215\n      jump\t// in\n    tag_240:\n        /* \"#utility.yul\":3719:3793   */\n      swap2\n      pop\n        /* \"#utility.yul\":3802:3895   */\n      tag_241\n        /* \"#utility.yul\":3891:3894   */\n      dup3\n        /* \"#utility.yul\":3802:3895   */\n      tag_242\n      jump\t// in\n    tag_241:\n        /* \"#utility.yul\":3920:3922   */\n      0x20\n        /* \"#utility.yul\":3915:3918   */\n      dup3\n        /* \"#utility.yul\":3911:3923   */\n      add\n        /* \"#utility.yul\":3904:3923   */\n      swap1\n      pop\n        /* \"#utility.yul\":3709:3929   */\n      swap2\n      swap1\n      pop\n      jump\t// out\n        /* \"#utility.yul\":3935:4301   */\n    tag_243:\n      0x00\n        /* \"#utility.yul\":4098:4165   */\n      tag_245\n        /* \"#utility.yul\":4162:4164   */\n      0x1a\n        /* \"#utility.yul\":4157:4160   */\n      dup4\n        /* \"#utility.yul\":4098:4165   */\n      tag_215\n      jump\t// in\n    tag_245:\n        /* \"#utility.yul\":4091:4165   */\n      swap2\n      pop\n        /* \"#utility.yul\":4174:4267   */\n      tag_246\n        /* \"#utility.yul\":4263:4266   */\n      dup3\n        /* \"#utility.yul\":4174:4267   */\n      tag_247\n      jump\t// in\n    tag_246:\n        /* \"#utility.yul\":4292:4294   */\n      0x20\n        /* \"#utility.yul\":4287:4290   */\n      dup3\n        /* \"#utility.yul\":4283:4295   */\n      add\n        /* \"#utility.yul\":4276:4295   */\n      swap1\n      pop\n        /* \"#utility.yul\":4081:4301   */\n      swap2\n      swap1\n      pop\n      jump\t// out\n        /* \"#utility.yul\":4307:4673   */\n    tag_248:\n      0x00\n        /* \"#utility.yul\":4470:4537   */\n      tag_250\n        /* \"#utility.yul\":4534:4536   */\n      0x1b\n        /* \"#utility.yul\":4529:4532   */\n      dup4\n        /* \"#utility.yul\":4470:4537   */\n      tag_215\n      jump\t// in\n    tag_250:\n        /* \"#utility.yul\":4463:4537   */\n      swap2\n      pop\n        /* \"#utility.yul\":4546:4639   */\n      tag_251\n        /* \"#utility.yul\":4635:4638   */\n      dup3\n        /* \"#utility.yul\":4546:4639   */\n      tag_252\n      jump\t// in\n    tag_251:\n        /* \"#utility.yul\":4664:4666   */\n      0x20\n        /* \"#utility.yul\":4659:4662   */\n      dup3\n        /* \"#utility.yul\":4655:4667   */\n      add\n        /* \"#utility.yul\":4648:4667   */\n      swap1\n      pop\n        /* \"#utility.yul\":4453:4673   */\n      swap2\n      swap1\n      pop\n      jump\t// out\n        /* \"#utility.yul\":4679:5045   */\n    tag_253:\n      0x00\n        /* \"#utility.yul\":4842:4909   */\n      tag_255\n        /* \"#utility.yul\":4906:4908   */\n      0x0c\n        /* \"#utility.yul\":4901:4904   */\n      dup4\n        /* \"#utility.yul\":4842:4909   */\n      tag_215\n      jump\t// in\n    tag_255:\n        /* \"#utility.yul\":4835:4909   */\n      swap2\n      pop\n        /* \"#utility.yul\":4918:5011   */\n      tag_256\n        /* \"#utility.yul\":5007:5010   */\n      dup3\n        /* \"#utility.yul\":4918:5011   */\n      tag_257\n      jump\t// in\n    tag_256:\n        /* \"#utility.yul\":5036:5038   */\n      0x20\n        /* \"#utility.yul\":5031:5034   */\n      dup3\n        /* \"#utility.yul\":5027:5039   */\n      add\n        /* \"#utility.yul\":5020:5039   */\n      swap1\n      pop\n        /* \"#utility.yul\":4825:5045   */\n      swap2\n      swap1\n      pop\n      jump\t// out\n        /* \"#utility.yul\":5051:5417   */\n    tag_258:\n      0x00\n        /* \"#utility.yul\":5214:5281   */\n      tag_260\n        /* \"#utility.yul\":5278:5280   */\n      0x1b\n        /* \"#utility.yul\":5273:5276   */\n      dup4\n        /* \"#utility.yul\":5214:5281   */\n      tag_215\n      jump\t// in\n    tag_260:\n        /* \"#utility.yul\":5207:5281   */\n      swap2\n      pop\n        /* \"#utility.yul\":5290:5383   */\n      tag_261\n        /* \"#utility.yul\":5379:5382   */\n      dup3\n        /* \"#utility.yul\":5290:5383   */\n      tag_262\n      jump\t// in\n    tag_261:\n        /* \"#utility.yul\":5408:5410   */\n      0x20\n        /* \"#utility.yul\":5403:5406   */\n      dup3\n        /* \"#utility.yul\":5399:5411   */\n      add\n        /* \"#utility.yul\":5392:5411   */\n      swap1\n      pop\n        /* \"#utility.yul\":5197:5417   */\n      swap2\n      swap1\n      pop\n      jump\t// out\n        /* \"#utility.yul\":5423:5541   */\n    tag_263:\n        /* \"#utility.yul\":5510:5534   */\n      tag_265\n        /* \"#utility.yul\":5528:5533   */\n      dup2\n        /* \"#utility.yul\":5510:5534   */\n      tag_266\n      jump\t// in\n    tag_265:\n        /* \"#utility.yul\":5505:5508   */\n      dup3\n        /* \"#utility.yul\":5498:5535   */\n      mstore\n        /* \"#utility.yul\":5488:5541   */\n      pop\n      pop\n      jump\t// out\n        /* \"#utility.yul\":5547:5769   */\n    tag_63:\n      0x00\n        /* \"#utility.yul\":5678:5680   */\n      0x20\n        /* \"#utility.yul\":5667:5676   */\n      dup3\n        /* \"#utility.yul\":5663:5681   */\n      add\n        /* \"#utility.yul\":5655:5681   */\n      swap1\n      pop\n        /* \"#utility.yul\":5691:5762   */\n      tag_268\n        /* \"#utility.yul\":5759:5760   */\n      0x00\n        /* \"#utility.yul\":5748:5757   */\n      dup4\n        /* \"#utility.yul\":5744:5761   */\n      add\n        /* \"#utility.yul\":5735:5741   */\n      dup5\n        /* \"#utility.yul\":5691:5762   */\n      tag_208\n      jump\t// in\n    tag_268:\n        /* \"#utility.yul\":5645:5769   */\n      swap3\n      swap2\n      pop\n      pop\n      jump\t// out\n        /* \"#utility.yul\":5775:6029   */\n    tag_76:\n      0x00\n        /* \"#utility.yul\":5922:5924   */\n      0x20\n        /* \"#utility.yul\":5911:5920   */\n      dup3\n        /* \"#utility.yul\":5907:5925   */\n      add\n        /* \"#utility.yul\":5899:5925   */\n      swap1\n      pop\n        /* \"#utility.yul\":5935:6022   */\n      tag_270\n        /* \"#utility.yul\":6019:6020   */\n      0x00\n        /* \"#utility.yul\":6008:6017   */\n      dup4\n        /* \"#utility.yul\":6004:6021   */\n      add\n        /* \"#utility.yul\":5995:6001   */\n      dup5\n        /* \"#utility.yul\":5935:6022   */\n      tag_204\n      jump\t// in\n    tag_270:\n        /* \"#utility.yul\":5889:6029   */\n      swap3\n      swap2\n      pop\n      pop\n      jump\t// out\n        /* \"#utility.yul\":6035:6399   */\n    tag_167:\n      0x00\n        /* \"#utility.yul\":6210:6212   */\n      0x40\n        /* \"#utility.yul\":6199:6208   */\n      dup3\n        /* \"#utility.yul\":6195:6213   */\n      add\n        /* \"#utility.yul\":6187:6213   */\n      swap1\n      pop\n        /* \"#utility.yul\":6223:6302   */\n      tag_272\n        /* \"#utility.yul\":6299:6300   */\n      0x00\n        /* \"#utility.yul\":6288:6297   */\n      dup4\n        /* \"#utility.yul\":6284:6301   */\n      add\n        /* \"#utility.yul\":6275:6281   */\n      dup6\n        /* \"#utility.yul\":6223:6302   */\n      tag_200\n      jump\t// in\n    tag_272:\n        /* \"#utility.yul\":6312:6392   */\n      tag_273\n        /* \"#utility.yul\":6388:6390   */\n      0x20\n        /* \"#utility.yul\":6377:6386   */\n      dup4\n        /* \"#utility.yul\":6373:6391   */\n      add\n        /* \"#utility.yul\":6364:6370   */\n      dup5\n        /* \"#utility.yul\":6312:6392   */\n      tag_200\n      jump\t// in\n    tag_273:\n        /* \"#utility.yul\":6177:6399   */\n      swap4\n      swap3\n      pop\n      pop\n      pop\n      jump\t// out\n        /* \"#utility.yul\":6405:6824   */\n    tag_152:\n      0x00\n        /* \"#utility.yul\":6609:6611   */\n      0x20\n        /* \"#utility.yul\":6598:6607   */\n      dup3\n        /* \"#utility.yul\":6594:6612   */\n      add\n        /* \"#utility.yul\":6586:6612   */\n      swap1\n      pop\n        /* \"#utility.yul\":6658:6667   */\n      dup2\n        /* \"#utility.yul\":6652:6656   */\n      dup2\n        /* \"#utility.yul\":6648:6668   */\n      sub\n        /* \"#utility.yul\":6644:6645   */\n      0x00\n        /* \"#utility.yul\":6633:6642   */\n      dup4\n        /* \"#utility.yul\":6629:6646   */\n      add\n        /* \"#utility.yul\":6622:6669   */\n      mstore\n        /* \"#utility.yul\":6686:6817   */\n      tag_275\n        /* \"#utility.yul\":6812:6816   */\n      dup2\n        /* \"#utility.yul\":6686:6817   */\n      tag_212\n      jump\t// in\n    tag_275:\n        /* \"#utility.yul\":6678:6817   */\n      swap1\n      pop\n        /* \"#utility.yul\":6576:6824   */\n      swap2\n      swap1\n      pop\n      jump\t// out\n        /* \"#utility.yul\":6830:7249   */\n    tag_176:\n      0x00\n        /* \"#utility.yul\":7034:7036   */\n      0x20\n        /* \"#utility.yul\":7023:7032   */\n      dup3\n        /* \"#utility.yul\":7019:7037   */\n      add\n        /* \"#utility.yul\":7011:7037   */\n      swap1\n      pop\n        /* \"#utility.yul\":7083:7092   */\n      dup2\n        /* \"#utility.yul\":7077:7081   */\n      dup2\n        /* \"#utility.yul\":7073:7093   */\n      sub\n        /* \"#utility.yul\":7069:7070   */\n      0x00\n        /* \"#utility.yul\":7058:7067   */\n      dup4\n        /* \"#utility.yul\":7054:7071   */\n      add\n        /* \"#utility.yul\":7047:7094   */\n      mstore\n        /* \"#utility.yul\":7111:7242   */\n      tag_277\n        /* \"#utility.yul\":7237:7241   */\n      dup2\n        /* \"#utility.yul\":7111:7242   */\n      tag_218\n      jump\t// in\n    tag_277:\n        /* \"#utility.yul\":7103:7242   */\n      swap1\n      pop\n        /* \"#utility.yul\":7001:7249   */\n      swap2\n      swap1\n      pop\n      jump\t// out\n        /* \"#utility.yul\":7255:7674   */\n    tag_142:\n      0x00\n        /* \"#utility.yul\":7459:7461   */\n      0x20\n        /* \"#utility.yul\":7448:7457   */\n      dup3\n        /* \"#utility.yul\":7444:7462   */\n      add\n        /* \"#utility.yul\":7436:7462   */\n      swap1\n      pop\n        /* \"#utility.yul\":7508:7517   */\n      dup2\n        /* \"#utility.yul\":7502:7506   */\n      dup2\n        /* \"#utility.yul\":7498:7518   */\n      sub\n        /* \"#utility.yul\":7494:7495   */\n      0x00\n        /* \"#utility.yul\":7483:7492   */\n      dup4\n        /* \"#utility.yul\":7479:7496   */\n      add\n        /* \"#utility.yul\":7472:7519   */\n      mstore\n        /* \"#utility.yul\":7536:7667   */\n      tag_279\n        /* \"#utility.yul\":7662:7666   */\n      dup2\n        /* \"#utility.yul\":7536:7667   */\n      tag_223\n      jump\t// in\n    tag_279:\n        /* \"#utility.yul\":7528:7667   */\n      swap1\n      pop\n        /* \"#utility.yul\":7426:7674   */\n      swap2\n      swap1\n      pop\n      jump\t// out\n        /* \"#utility.yul\":7680:8099   */\n    tag_139:\n      0x00\n        /* \"#utility.yul\":7884:7886   */\n      0x20\n        /* \"#utility.yul\":7873:7882   */\n      dup3\n        /* \"#utility.yul\":7869:7887   */\n      add\n        /* \"#utility.yul\":7861:7887   */\n      swap1\n      pop\n        /* \"#utility.yul\":7933:7942   */\n      dup2\n        /* \"#utility.yul\":7927:7931   */\n      dup2\n        /* \"#utility.yul\":7923:7943   */\n      sub\n        /* \"#utility.yul\":7919:7920   */\n      0x00\n        /* \"#utility.yul\":7908:7917   */\n      dup4\n        /* \"#utility.yul\":7904:7921   */\n      add\n        /* \"#utility.yul\":7897:7944   */\n      mstore\n        /* \"#utility.yul\":7961:8092   */\n      tag_281\n        /* \"#utility.yul\":8087:8091   */\n      dup2\n        /* \"#utility.yul\":7961:8092   */\n      tag_228\n      jump\t// in\n    tag_281:\n        /* \"#utility.yul\":7953:8092   */\n      swap1\n      pop\n        /* \"#utility.yul\":7851:8099   */\n      swap2\n      swap1\n      pop\n      jump\t// out\n        /* \"#utility.yul\":8105:8524   */\n    tag_155:\n      0x00\n        /* \"#utility.yul\":8309:8311   */\n      0x20\n        /* \"#utility.yul\":8298:8307   */\n      dup3\n        /* \"#utility.yul\":8294:8312   */\n      add\n        /* \"#utility.yul\":8286:8312   */\n      swap1\n      pop\n        /* \"#utility.yul\":8358:8367   */\n      dup2\n        /* \"#utility.yul\":8352:8356   */\n      dup2\n        /* \"#utility.yul\":8348:8368   */\n      sub\n        /* \"#utility.yul\":8344:8345   */\n      0x00\n        /* \"#utility.yul\":8333:8342   */\n      dup4\n        /* \"#utility.yul\":8329:8346   */\n      add\n        /* \"#utility.yul\":8322:8369   */\n      mstore\n        /* \"#utility.yul\":8386:8517   */\n      tag_283\n        /* \"#utility.yul\":8512:8516   */\n      dup2\n        /* \"#utility.yul\":8386:8517   */\n      tag_233\n      jump\t// in\n    tag_283:\n        /* \"#utility.yul\":8378:8517   */\n      swap1\n      pop\n        /* \"#utility.yul\":8276:8524   */\n      swap2\n      swap1\n      pop\n      jump\t// out\n        /* \"#utility.yul\":8530:8949   */\n    tag_97:\n      0x00\n        /* \"#utility.yul\":8734:8736   */\n      0x20\n        /* \"#utility.yul\":8723:8732   */\n      dup3\n        /* \"#utility.yul\":8719:8737   */\n      add\n        /* \"#utility.yul\":8711:8737   */\n      swap1\n      pop\n        /* \"#utility.yul\":8783:8792   */\n      dup2\n        /* \"#utility.yul\":8777:8781   */\n      dup2\n        /* \"#utility.yul\":8773:8793   */\n      sub\n        /* \"#utility.yul\":8769:8770   */\n      0x00\n        /* \"#utility.yul\":8758:8767   */\n      dup4\n        /* \"#utility.yul\":8754:8771   */\n      add\n        /* \"#utility.yul\":8747:8794   */\n      mstore\n        /* \"#utility.yul\":8811:8942   */\n      tag_285\n        /* \"#utility.yul\":8937:8941   */\n      dup2\n        /* \"#utility.yul\":8811:8942   */\n      tag_238\n      jump\t// in\n    tag_285:\n        /* \"#utility.yul\":8803:8942   */\n      swap1\n      pop\n        /* \"#utility.yul\":8701:8949   */\n      swap2\n      swap1\n      pop\n      jump\t// out\n        /* \"#utility.yul\":8955:9374   */\n    tag_119:\n      0x00\n        /* \"#utility.yul\":9159:9161   */\n      0x20\n        /* \"#utility.yul\":9148:9157   */\n      dup3\n        /* \"#utility.yul\":9144:9162   */\n      add\n        /* \"#utility.yul\":9136:9162   */\n      swap1\n      pop\n        /* \"#utility.yul\":9208:9217   */\n      dup2\n        /* \"#utility.yul\":9202:9206   */\n      dup2\n        /* \"#utility.yul\":9198:9218   */\n      sub\n        /* \"#utility.yul\":9194:9195   */\n      0x00\n        /* \"#utility.yul\":9183:9192   */\n      dup4\n        /* \"#utility.yul\":9179:9196   */\n      add\n        /* \"#utility.yul\":9172:9219   */\n      mstore\n        /* \"#utility.yul\":9236:9367   */\n      tag_287\n        /* \"#utility.yul\":9362:9366   */\n      dup2\n        /* \"#utility.yul\":9236:9367   */\n      tag_243\n      jump\t// in\n    tag_287:\n        /* \"#utility.yul\":9228:9367   */\n      swap1\n      pop\n        /* \"#utility.yul\":9126:9374   */\n      swap2\n      swap1\n      pop\n      jump\t// out\n        /* \"#utility.yul\":9380:9799   */\n    tag_122:\n      0x00\n        /* \"#utility.yul\":9584:9586   */\n      0x20\n        /* \"#utility.yul\":9573:9582   */\n      dup3\n        /* \"#utility.yul\":9569:9587   */\n      add\n        /* \"#utility.yul\":9561:9587   */\n      swap1\n      pop\n        /* \"#utility.yul\":9633:9642   */\n      dup2\n        /* \"#utility.yul\":9627:9631   */\n      dup2\n        /* \"#utility.yul\":9623:9643   */\n      sub\n        /* \"#utility.yul\":9619:9620   */\n      0x00\n        /* \"#utility.yul\":9608:9617   */\n      dup4\n        /* \"#utility.yul\":9604:9621   */\n      add\n        /* \"#utility.yul\":9597:9644   */\n      mstore\n        /* \"#utility.yul\":9661:9792   */\n      tag_289\n        /* \"#utility.yul\":9787:9791   */\n      dup2\n        /* \"#utility.yul\":9661:9792   */\n      tag_248\n      jump\t// in\n    tag_289:\n        /* \"#utility.yul\":9653:9792   */\n      swap1\n      pop\n        /* \"#utility.yul\":9551:9799   */\n      swap2\n      swap1\n      pop\n      jump\t// out\n        /* \"#utility.yul\":9805:10224   */\n    tag_101:\n      0x00\n        /* \"#utility.yul\":10009:10011   */\n      0x20\n        /* \"#utility.yul\":9998:10007   */\n      dup3\n        /* \"#utility.yul\":9994:10012   */\n      add\n        /* \"#utility.yul\":9986:10012   */\n      swap1\n      pop\n        /* \"#utility.yul\":10058:10067   */\n      dup2\n        /* \"#utility.yul\":10052:10056   */\n      dup2\n        /* \"#utility.yul\":10048:10068   */\n      sub\n        /* \"#utility.yul\":10044:10045   */\n      0x00\n        /* \"#utility.yul\":10033:10042   */\n      dup4\n        /* \"#utility.yul\":10029:10046   */\n      add\n        /* \"#utility.yul\":10022:10069   */\n      mstore\n        /* \"#utility.yul\":10086:10217   */\n      tag_291\n        /* \"#utility.yul\":10212:10216   */\n      dup2\n        /* \"#utility.yul\":10086:10217   */\n      tag_253\n      jump\t// in\n    tag_291:\n        /* \"#utility.yul\":10078:10217   */\n      swap1\n      pop\n        /* \"#utility.yul\":9976:10224   */\n      swap2\n      swap1\n      pop\n      jump\t// out\n        /* \"#utility.yul\":10230:10649   */\n    tag_165:\n      0x00\n        /* \"#utility.yul\":10434:10436   */\n      0x20\n        /* \"#utility.yul\":10423:10432   */\n      dup3\n        /* \"#utility.yul\":10419:10437   */\n      add\n        /* \"#utility.yul\":10411:10437   */\n      swap1\n      pop\n        /* \"#utility.yul\":10483:10492   */\n      dup2\n        /* \"#utility.yul\":10477:10481   */\n      dup2\n        /* \"#utility.yul\":10473:10493   */\n      sub\n        /* \"#utility.yul\":10469:10470   */\n      0x00\n        /* \"#utility.yul\":10458:10467   */\n      dup4\n        /* \"#utility.yul\":10454:10471   */\n      add\n        /* \"#utility.yul\":10447:10494   */\n      mstore\n        /* \"#utility.yul\":10511:10642   */\n      tag_293\n        /* \"#utility.yul\":10637:10641   */\n      dup2\n        /* \"#utility.yul\":10511:10642   */\n      tag_258\n      jump\t// in\n    tag_293:\n        /* \"#utility.yul\":10503:10642   */\n      swap1\n      pop\n        /* \"#utility.yul\":10401:10649   */\n      swap2\n      swap1\n      pop\n      jump\t// out\n        /* \"#utility.yul\":10655:10877   */\n    tag_29:\n      0x00\n        /* \"#utility.yul\":10786:10788   */\n      0x20\n        /* \"#utility.yul\":10775:10784   */\n      dup3\n        /* \"#utility.yul\":10771:10789   */\n      add\n        /* \"#utility.yul\":10763:10789   */\n      swap1\n      pop\n        /* \"#utility.yul\":10799:10870   */\n      tag_295\n        /* \"#utility.yul\":10867:10868   */\n      0x00\n        /* \"#utility.yul\":10856:10865   */\n      dup4\n        /* \"#utility.yul\":10852:10869   */\n      add\n        /* \"#utility.yul\":10843:10849   */\n      dup5\n        /* \"#utility.yul\":10799:10870   */\n      tag_263\n      jump\t// in\n    tag_295:\n        /* \"#utility.yul\":10753:10877   */\n      swap3\n      swap2\n      pop\n      pop\n      jump\t// out\n        /* \"#utility.yul\":10883:11215   */\n    tag_103:\n      0x00\n        /* \"#utility.yul\":11042:11044   */\n      0x40\n        /* \"#utility.yul\":11031:11040   */\n      dup3\n        /* \"#utility.yul\":11027:11045   */\n      add\n        /* \"#utility.yul\":11019:11045   */\n      swap1\n      pop\n        /* \"#utility.yul\":11055:11126   */\n      tag_297\n        /* \"#utility.yul\":11123:11124   */\n      0x00\n        /* \"#utility.yul\":11112:11121   */\n      dup4\n        /* \"#utility.yul\":11108:11125   */\n      add\n        /* \"#utility.yul\":11099:11105   */\n      dup6\n        /* \"#utility.yul\":11055:11126   */\n      tag_263\n      jump\t// in\n    tag_297:\n        /* \"#utility.yul\":11136:11208   */\n      tag_298\n        /* \"#utility.yul\":11204:11206   */\n      0x20\n        /* \"#utility.yul\":11193:11202   */\n      dup4\n        /* \"#utility.yul\":11189:11207   */\n      add\n        /* \"#utility.yul\":11180:11186   */\n      dup5\n        /* \"#utility.yul\":11136:11208   */\n      tag_263\n      jump\t// in\n    tag_298:\n        /* \"#utility.yul\":11009:11215   */\n      swap4\n      swap3\n      pop\n      pop\n      pop\n      jump\t// out\n        /* \"#utility.yul\":11221:11390   */\n    tag_215:\n      0x00\n        /* \"#utility.yul\":11339:11345   */\n      dup3\n        /* \"#utility.yul\":11334:11337   */\n      dup3\n        /* \"#utility.yul\":11327:11346   */\n      mstore\n        /* \"#utility.yul\":11379:11383   */\n      0x20\n        /* \"#utility.yul\":11374:11377   */\n      dup3\n        /* \"#utility.yul\":11370:11384   */\n      add\n        /* \"#utility.yul\":11355:11384   */\n      swap1\n      pop\n        /* \"#utility.yul\":11317:11390   */\n      swap3\n      swap2\n      pop\n      pop\n      jump\t// out\n        /* \"#utility.yul\":11396:11492   */\n    tag_211:\n      0x00\n        /* \"#utility.yul\":11462:11486   */\n      tag_301\n        /* \"#utility.yul\":11480:11485   */\n      dup3\n        /* \"#utility.yul\":11462:11486   */\n      tag_302\n      jump\t// in\n    tag_301:\n        /* \"#utility.yul\":11451:11486   */\n      swap1\n      pop\n        /* \"#utility.yul\":11441:11492   */\n      swap2\n      swap1\n      pop\n      jump\t// out\n        /* \"#utility.yul\":11498:11602   */\n    tag_207:\n      0x00\n        /* \"#utility.yul\":11572:11596   */\n      tag_304\n        /* \"#utility.yul\":11590:11595   */\n      dup3\n        /* \"#utility.yul\":11572:11596   */\n      tag_302\n      jump\t// in\n    tag_304:\n        /* \"#utility.yul\":11561:11596   */\n      swap1\n      pop\n        /* \"#utility.yul\":11551:11602   */\n      swap2\n      swap1\n      pop\n      jump\t// out\n        /* \"#utility.yul\":11608:11734   */\n    tag_302:\n      0x00\n        /* \"#utility.yul\":11685:11727   */\n      0xffffffffffffffffffffffffffffffffffffffff\n        /* \"#utility.yul\":11678:11683   */\n      dup3\n        /* \"#utility.yul\":11674:11728   */\n      and\n        /* \"#utility.yul\":11663:11728   */\n      swap1\n      pop\n        /* \"#utility.yul\":11653:11734   */\n      swap2\n      swap1\n      pop\n      jump\t// out\n        /* \"#utility.yul\":11740:11817   */\n    tag_266:\n      0x00\n        /* \"#utility.yul\":11806:11811   */\n      dup2\n        /* \"#utility.yul\":11795:11811   */\n      swap1\n      pop\n        /* \"#utility.yul\":11785:11817   */\n      swap2\n      swap1\n      pop\n      jump\t// out\n        /* \"#utility.yul\":11823:11957   */\n    tag_203:\n      0x00\n        /* \"#utility.yul\":11914:11951   */\n      tag_308\n        /* \"#utility.yul\":11945:11950   */\n      dup3\n        /* \"#utility.yul\":11914:11951   */\n      tag_309\n      jump\t// in\n    tag_308:\n        /* \"#utility.yul\":11901:11951   */\n      swap1\n      pop\n        /* \"#utility.yul\":11891:11957   */\n      swap2\n      swap1\n      pop\n      jump\t// out\n        /* \"#utility.yul\":11963:12089   */\n    tag_309:\n      0x00\n        /* \"#utility.yul\":12046:12083   */\n      tag_311\n        /* \"#utility.yul\":12077:12082   */\n      dup3\n        /* \"#utility.yul\":12046:12083   */\n      tag_312\n      jump\t// in\n    tag_311:\n        /* \"#utility.yul\":12033:12083   */\n      swap1\n      pop\n        /* \"#utility.yul\":12023:12089   */\n      swap2\n      swap1\n      pop\n      jump\t// out\n        /* \"#utility.yul\":12095:12208   */\n    tag_312:\n      0x00\n        /* \"#utility.yul\":12178:12202   */\n      tag_314\n        /* \"#utility.yul\":12196:12201   */\n      dup3\n        /* \"#utility.yul\":12178:12202   */\n      tag_302\n      jump\t// in\n    tag_314:\n        /* \"#utility.yul\":12165:12202   */\n      swap1\n      pop\n        /* \"#utility.yul\":12155:12208   */\n      swap2\n      swap1\n      pop\n      jump\t// out\n        /* \"#utility.yul\":12214:12391   */\n    tag_217:\n        /* \"#utility.yul\":12354:12383   */\n      0x6d61782061756374696f6e206c656e67746820746f6f20686967680000000000\n        /* \"#utility.yul\":12350:12351   */\n      0x00\n        /* \"#utility.yul\":12342:12348   */\n      dup3\n        /* \"#utility.yul\":12338:12352   */\n      add\n        /* \"#utility.yul\":12331:12384   */\n      mstore\n        /* \"#utility.yul\":12320:12391   */\n      pop\n      jump\t// out\n        /* \"#utility.yul\":12397:12622   */\n    tag_222:\n        /* \"#utility.yul\":12537:12571   */\n      0x4f776e61626c653a206e6577206f776e657220697320746865207a65726f2061\n        /* \"#utility.yul\":12533:12534   */\n      0x00\n        /* \"#utility.yul\":12525:12531   */\n      dup3\n        /* \"#utility.yul\":12521:12535   */\n      add\n        /* \"#utility.yul\":12514:12572   */\n      mstore\n        /* \"#utility.yul\":12606:12614   */\n      0x6464726573730000000000000000000000000000000000000000000000000000\n        /* \"#utility.yul\":12601:12603   */\n      0x20\n        /* \"#utility.yul\":12593:12599   */\n      dup3\n        /* \"#utility.yul\":12589:12604   */\n      add\n        /* \"#utility.yul\":12582:12615   */\n      mstore\n        /* \"#utility.yul\":12503:12622   */\n      pop\n      jump\t// out\n        /* \"#utility.yul\":12628:12802   */\n    tag_227:\n        /* \"#utility.yul\":12768:12794   */\n      0x6d696e2062696420696e63726561736520746f6f206c6f770000000000000000\n        /* \"#utility.yul\":12764:12765   */\n      0x00\n        /* \"#utility.yul\":12756:12762   */\n      dup3\n        /* \"#utility.yul\":12752:12766   */\n      add\n        /* \"#utility.yul\":12745:12795   */\n      mstore\n        /* \"#utility.yul\":12734:12802   */\n      pop\n      jump\t// out\n        /* \"#utility.yul\":12808:12983   */\n    tag_232:\n        /* \"#utility.yul\":12948:12975   */\n      0x6d696e2062696420696e63726561736520746f6f206869676800000000000000\n        /* \"#utility.yul\":12944:12945   */\n      0x00\n        /* \"#utility.yul\":12936:12942   */\n      dup3\n        /* \"#utility.yul\":12932:12946   */\n      add\n        /* \"#utility.yul\":12925:12976   */\n      mstore\n        /* \"#utility.yul\":12914:12983   */\n      pop\n      jump\t// out\n        /* \"#utility.yul\":12989:13165   */\n    tag_237:\n        /* \"#utility.yul\":13129:13157   */\n      0x6d61782061756374696f6e206c656e67746820746f6f206c6f77000000000000\n        /* \"#utility.yul\":13125:13126   */\n      0x00\n        /* \"#utility.yul\":13117:13123   */\n      dup3\n        /* \"#utility.yul\":13113:13127   */\n      add\n        /* \"#utility.yul\":13106:13158   */\n      mstore\n        /* \"#utility.yul\":13095:13165   */\n      pop\n      jump\t// out\n        /* \"#utility.yul\":13171:13353   */\n    tag_242:\n        /* \"#utility.yul\":13311:13345   */\n      0x4f776e61626c653a2063616c6c6572206973206e6f7420746865206f776e6572\n        /* \"#utility.yul\":13307:13308   */\n      0x00\n        /* \"#utility.yul\":13299:13305   */\n      dup3\n        /* \"#utility.yul\":13295:13309   */\n      add\n        /* \"#utility.yul\":13288:13346   */\n      mstore\n        /* \"#utility.yul\":13277:13353   */\n      pop\n      jump\t// out\n        /* \"#utility.yul\":13359:13535   */\n    tag_247:\n        /* \"#utility.yul\":13499:13527   */\n      0x6d696e2061756374696f6e206c656e67746820746f6f206c6f77000000000000\n        /* \"#utility.yul\":13495:13496   */\n      0x00\n        /* \"#utility.yul\":13487:13493   */\n      dup3\n        /* \"#utility.yul\":13483:13497   */\n      add\n        /* \"#utility.yul\":13476:13528   */\n      mstore\n        /* \"#utility.yul\":13465:13535   */\n      pop\n      jump\t// out\n        /* \"#utility.yul\":13541:13718   */\n    tag_252:\n        /* \"#utility.yul\":13681:13710   */\n      0x6d696e2061756374696f6e206c656e67746820746f6f20686967680000000000\n        /* \"#utility.yul\":13677:13678   */\n      0x00\n        /* \"#utility.yul\":13669:13675   */\n      dup3\n        /* \"#utility.yul\":13665:13679   */\n      add\n        /* \"#utility.yul\":13658:13711   */\n      mstore\n        /* \"#utility.yul\":13647:13718   */\n      pop\n      jump\t// out\n        /* \"#utility.yul\":13724:13886   */\n    tag_257:\n        /* \"#utility.yul\":13864:13878   */\n      0x66656520746f6f20686967680000000000000000000000000000000000000000\n        /* \"#utility.yul\":13860:13861   */\n      0x00\n        /* \"#utility.yul\":13852:13858   */\n      dup3\n        /* \"#utility.yul\":13848:13862   */\n      add\n        /* \"#utility.yul\":13841:13879   */\n      mstore\n        /* \"#utility.yul\":13830:13886   */\n      pop\n      jump\t// out\n        /* \"#utility.yul\":13892:14069   */\n    tag_262:\n        /* \"#utility.yul\":14032:14061   */\n      0x666565732063616e6e6f7420676f20746f203020616464726573730000000000\n        /* \"#utility.yul\":14028:14029   */\n      0x00\n        /* \"#utility.yul\":14020:14026   */\n      dup3\n        /* \"#utility.yul\":14016:14030   */\n      add\n        /* \"#utility.yul\":14009:14062   */\n      mstore\n        /* \"#utility.yul\":13998:14069   */\n      pop\n      jump\t// out\n        /* \"#utility.yul\":14075:14197   */\n    tag_182:\n        /* \"#utility.yul\":14148:14172   */\n      tag_326\n        /* \"#utility.yul\":14166:14171   */\n      dup2\n        /* \"#utility.yul\":14148:14172   */\n      tag_211\n      jump\t// in\n    tag_326:\n        /* \"#utility.yul\":14141:14146   */\n      dup2\n        /* \"#utility.yul\":14138:14173   */\n      eq\n        /* \"#utility.yul\":14128:14130   */\n      tag_327\n      jumpi\n        /* \"#utility.yul\":14187:14188   */\n      0x00\n        /* \"#utility.yul\":14184:14185   */\n      dup1\n        /* \"#utility.yul\":14177:14189   */\n      revert\n        /* \"#utility.yul\":14128:14130   */\n    tag_327:\n        /* \"#utility.yul\":14118:14197   */\n      pop\n      jump\t// out\n        /* \"#utility.yul\":14203:14341   */\n    tag_186:\n        /* \"#utility.yul\":14284:14316   */\n      tag_329\n        /* \"#utility.yul\":14310:14315   */\n      dup2\n        /* \"#utility.yul\":14284:14316   */\n      tag_207\n      jump\t// in\n    tag_329:\n        /* \"#utility.yul\":14277:14282   */\n      dup2\n        /* \"#utility.yul\":14274:14317   */\n      eq\n        /* \"#utility.yul\":14264:14266   */\n      tag_330\n      jumpi\n        /* \"#utility.yul\":14331:14332   */\n      0x00\n        /* \"#utility.yul\":14328:14329   */\n      dup1\n        /* \"#utility.yul\":14321:14333   */\n      revert\n        /* \"#utility.yul\":14264:14266   */\n    tag_330:\n        /* \"#utility.yul\":14254:14341   */\n      pop\n      jump\t// out\n        /* \"#utility.yul\":14347:14469   */\n    tag_190:\n        /* \"#utility.yul\":14420:14444   */\n      tag_332\n        /* \"#utility.yul\":14438:14443   */\n      dup2\n        /* \"#utility.yul\":14420:14444   */\n      tag_266\n      jump\t// in\n    tag_332:\n        /* \"#utility.yul\":14413:14418   */\n      dup2\n        /* \"#utility.yul\":14410:14445   */\n      eq\n        /* \"#utility.yul\":14400:14402   */\n      tag_333\n      jumpi\n        /* \"#utility.yul\":14459:14460   */\n      0x00\n        /* \"#utility.yul\":14456:14457   */\n      dup1\n        /* \"#utility.yul\":14449:14461   */\n      revert\n        /* \"#utility.yul\":14400:14402   */\n    tag_333:\n        /* \"#utility.yul\":14390:14469   */\n      pop\n      jump\t// out\n\n    auxdata: 0xa264697066735822122031d0688212bd86e467ae368cfdf2aaacbf8d5c985d37a441ea82cca08072acbd64736f6c63430008010033\n}\n",
				"bytecode": {
					"linkReferences": {},
					"object": "608060405234801561001057600080fd5b50600061002161014460201b60201c565b9050806000806101000a81548173ffffffffffffffffffffffffffffffffffffffff021916908373ffffffffffffffffffffffffffffffffffffffff1602179055508073ffffffffffffffffffffffffffffffffffffffff16600073ffffffffffffffffffffffffffffffffffffffff167f8be0079c531659141344cd1fd0a4f28419497f9722a3daafe3b4186f6b6457e060405160405180910390a3506212750060018190555061038460028190555073aeb639aa794055bc1992fb06545fdf2cff53dc10600660006101000a81548173ffffffffffffffffffffffffffffffffffffffff021916908373ffffffffffffffffffffffffffffffffffffffff16021790555060326005819055506064600481905550600a60038190555061014c565b600033905090565b6115118061015b6000396000f3fe608060405234801561001057600080fd5b506004361061012c5760003560e01c80638a364bc1116100ad578063b3f0067411610071578063b3f00674146102d5578063d213b900146102f3578063efdcd97414610311578063f2fde38b1461032d578063fcd81e32146103495761012c565b80638a364bc1146102435780638da5cb5b146102615780639665eb0f1461027f578063a0b335e31461029b578063affdafd8146102b95761012c565b80636109f5b5116100f45780636109f5b5146101c55780636fc83db3146101e1578063715018a6146101fd5780637c513c0f14610207578063846a4dd2146102255761012c565b80630e519ef9146101315780630ea90a121461014f5780631a58364c1461016d57806332a693301461018b578063339f87ed146101a7575b600080fd5b610139610367565b60405161014691906111fd565b60405180910390f35b61015761036d565b60405161016491906111fd565b60405180910390f35b610175610373565b60405161018291906111fd565b60405180910390f35b6101a560048036038101906101a09190610e9b565b61037a565b005b6101af61047f565b6040516101bc91906111fd565b60405180910390f35b6101df60048036038101906101da9190610e9b565b610484565b005b6101fb60048036038101906101f69190610e9b565b610545565b005b61020561068f565b005b61020f6107c9565b60405161021c91906111fd565b60405180910390f35b61022d6107cf565b60405161023a91906111fd565b60405180910390f35b61024b6107d4565b60405161025891906111fd565b60405180910390f35b6102696107da565b604051610276919061105e565b60405180910390f35b61029960048036038101906102949190610e9b565b610803565b005b6102a361094c565b6040516102b091906111fd565b60405180910390f35b6102d360048036038101906102ce9190610e9b565b610952565b005b6102dd610a9d565b6040516102ea9190611079565b60405180910390f35b6102fb610ac3565b60405161030891906111fd565b60405180910390f35b61032b60048036038101906103269190610e72565b610ac9565b005b61034760048036038101906103429190610e49565b610c54565b005b610351610dfd565b60405161035e91906111fd565b60405180910390f35b60015481565b60035481565b6249d40081565b610382610e02565b73ffffffffffffffffffffffffffffffffffffffff166103a06107da565b73ffffffffffffffffffffffffffffffffffffffff16146103f6576040517f08c379a00000000000000000000000000000000000000000000000000000000081526004016103ed9061115d565b60405180910390fd5b606481111561043a576040517f08c379a0000000000000000000000000000000000000000000000000000000008152600401610431906111bd565b60405180910390fd5b7f11b96af861c45de0c17127383516c92fc2a9d50eff86ea831b69e76a3fa87e2f6003548260405161046d929190611218565b60405180910390a18060038190555050565b600a81565b61048c610e02565b73ffffffffffffffffffffffffffffffffffffffff166104aa6107da565b73ffffffffffffffffffffffffffffffffffffffff1614610500576040517f08c379a00000000000000000000000000000000000000000000000000000000081526004016104f79061115d565b60405180910390fd5b7f283f7179cc13a8f90c3123b415b98ca8a0ca9619eed3c981db52809ab62700f960045482604051610533929190611218565b60405180910390a18060048190555050565b61054d610e02565b73ffffffffffffffffffffffffffffffffffffffff1661056b6107da565b73ffffffffffffffffffffffffffffffffffffffff16146105c1576040517f08c379a00000000000000000000000000000000000000000000000000000000081526004016105b89061115d565b60405180910390fd5b610384811015610606576040517f08c379a00000000000000000000000000000000000000000000000000000000081526004016105fd9061117d565b60405180910390fd5b600154811061064a576040517f08c379a00000000000000000000000000000000000000000000000000000000081526004016106419061119d565b60405180910390fd5b7f055017e5b2f20973817c668e2f744e7c1b68a6f20332f25bb7b9bbb2f0c7eca76002548260405161067d929190611218565b60405180910390a18060028190555050565b610697610e02565b73ffffffffffffffffffffffffffffffffffffffff166106b56107da565b73ffffffffffffffffffffffffffffffffffffffff161461070b576040517f08c379a00000000000000000000000000000000000000000000000000000000081526004016107029061115d565b60405180910390fd5b600073ffffffffffffffffffffffffffffffffffffffff1660008054906101000a900473ffffffffffffffffffffffffffffffffffffffff1673ffffffffffffffffffffffffffffffffffffffff167f8be0079c531659141344cd1fd0a4f28419497f9722a3daafe3b4186f6b6457e060405160405180910390a360008060006101000a81548173ffffffffffffffffffffffffffffffffffffffff021916908373ffffffffffffffffffffffffffffffffffffffff160217905550565b60055481565b606481565b60045481565b60008060009054906101000a900473ffffffffffffffffffffffffffffffffffffffff16905090565b61080b610e02565b73ffffffffffffffffffffffffffffffffffffffff166108296107da565b73ffffffffffffffffffffffffffffffffffffffff161461087f576040517f08c379a00000000000000000000000000000000000000000000000000000000081526004016108769061115d565b60405180910390fd5b60648111156108c3576040517f08c379a00000000000000000000000000000000000000000000000000000000081526004016108ba9061111d565b60405180910390fd5b600a811015610907576040517f08c379a00000000000000000000000000000000000000000000000000000000081526004016108fe906110fd565b60405180910390fd5b7f3995c181714327dbf0232c3b20873e87ca6978b6418eec0f97a1447c5a4c43fc6005548260405161093a929190611218565b60405180910390a18060058190555050565b60025481565b61095a610e02565b73ffffffffffffffffffffffffffffffffffffffff166109786107da565b73ffffffffffffffffffffffffffffffffffffffff16146109ce576040517f08c379a00000000000000000000000000000000000000000000000000000000081526004016109c59061115d565b60405180910390fd5b6249d400811115610a14576040517f08c379a0000000000000000000000000000000000000000000000000000000008152600401610a0b906110bd565b60405180910390fd5b6002548111610a58576040517f08c379a0000000000000000000000000000000000000000000000000000000008152600401610a4f9061113d565b60405180910390fd5b7f06684837277f012a4c3a13c8ec0e53d85b843e328a811a8f5f25f5e1456d9f5960015482604051610a8b929190611218565b60405180910390a18060018190555050565b600660009054906101000a900473ffffffffffffffffffffffffffffffffffffffff1681565b61038481565b610ad1610e02565b73ffffffffffffffffffffffffffffffffffffffff16610aef6107da565b73ffffffffffffffffffffffffffffffffffffffff1614610b45576040517f08c379a0000000000000000000000000000000000000000000000000000000008152600401610b3c9061115d565b60405180910390fd5b600073ffffffffffffffffffffffffffffffffffffffff168173ffffffffffffffffffffffffffffffffffffffff161415610bb5576040517f08c379a0000000000000000000000000000000000000000000000000000000008152600401610bac906111dd565b60405180910390fd5b7f2861448678f0be67f11bfb5481b3e3b4cfeb3acc6126ad60a05f95bfc6530666600660009054906101000a900473ffffffffffffffffffffffffffffffffffffffff1682604051610c08929190611094565b60405180910390a180600660006101000a81548173ffffffffffffffffffffffffffffffffffffffff021916908373ffffffffffffffffffffffffffffffffffffffff16021790555050565b610c5c610e02565b73ffffffffffffffffffffffffffffffffffffffff16610c7a6107da565b73ffffffffffffffffffffffffffffffffffffffff1614610cd0576040517f08c379a0000000000000000000000000000000000000000000000000000000008152600401610cc79061115d565b60405180910390fd5b600073ffffffffffffffffffffffffffffffffffffffff168173ffffffffffffffffffffffffffffffffffffffff161415610d40576040517f08c379a0000000000000000000000000000000000000000000000000000000008152600401610d37906110dd565b60405180910390fd5b8073ffffffffffffffffffffffffffffffffffffffff1660008054906101000a900473ffffffffffffffffffffffffffffffffffffffff1673ffffffffffffffffffffffffffffffffffffffff167f8be0079c531659141344cd1fd0a4f28419497f9722a3daafe3b4186f6b6457e060405160405180910390a3806000806101000a81548173ffffffffffffffffffffffffffffffffffffffff021916908373ffffffffffffffffffffffffffffffffffffffff16021790555050565b606481565b600033905090565b600081359050610e1981611496565b92915050565b600081359050610e2e816114ad565b92915050565b600081359050610e43816114c4565b92915050565b600060208284031215610e5b57600080fd5b6000610e6984828501610e0a565b91505092915050565b600060208284031215610e8457600080fd5b6000610e9284828501610e1f565b91505092915050565b600060208284031215610ead57600080fd5b6000610ebb84828501610e34565b91505092915050565b610ecd816112a0565b82525050565b610edc81611264565b82525050565b610eeb81611252565b82525050565b6000610efe601b83611241565b9150610f09826112d6565b602082019050919050565b6000610f21602683611241565b9150610f2c826112ff565b604082019050919050565b6000610f44601883611241565b9150610f4f8261134e565b602082019050919050565b6000610f67601983611241565b9150610f7282611377565b602082019050919050565b6000610f8a601a83611241565b9150610f95826113a0565b602082019050919050565b6000610fad602083611241565b9150610fb8826113c9565b602082019050919050565b6000610fd0601a83611241565b9150610fdb826113f2565b602082019050919050565b6000610ff3601b83611241565b9150610ffe8261141b565b602082019050919050565b6000611016600c83611241565b915061102182611444565b602082019050919050565b6000611039601b83611241565b91506110448261146d565b602082019050919050565b61105881611296565b82525050565b60006020820190506110736000830184610ee2565b92915050565b600060208201905061108e6000830184610ed3565b92915050565b60006040820190506110a96000830185610ec4565b6110b66020830184610ec4565b9392505050565b600060208201905081810360008301526110d681610ef1565b9050919050565b600060208201905081810360008301526110f681610f14565b9050919050565b6000602082019050818103600083015261111681610f37565b9050919050565b6000602082019050818103600083015261113681610f5a565b9050919050565b6000602082019050818103600083015261115681610f7d565b9050919050565b6000602082019050818103600083015261117681610fa0565b9050919050565b6000602082019050818103600083015261119681610fc3565b9050919050565b600060208201905081810360008301526111b681610fe6565b9050919050565b600060208201905081810360008301526111d681611009565b9050919050565b600060208201905081810360008301526111f68161102c565b9050919050565b6000602082019050611212600083018461104f565b92915050565b600060408201905061122d600083018561104f565b61123a602083018461104f565b9392505050565b600082825260208201905092915050565b600061125d82611276565b9050919050565b600061126f82611276565b9050919050565b600073ffffffffffffffffffffffffffffffffffffffff82169050919050565b6000819050919050565b60006112ab826112b2565b9050919050565b60006112bd826112c4565b9050919050565b60006112cf82611276565b9050919050565b7f6d61782061756374696f6e206c656e67746820746f6f20686967680000000000600082015250565b7f4f776e61626c653a206e6577206f776e657220697320746865207a65726f206160008201527f6464726573730000000000000000000000000000000000000000000000000000602082015250565b7f6d696e2062696420696e63726561736520746f6f206c6f770000000000000000600082015250565b7f6d696e2062696420696e63726561736520746f6f206869676800000000000000600082015250565b7f6d61782061756374696f6e206c656e67746820746f6f206c6f77000000000000600082015250565b7f4f776e61626c653a2063616c6c6572206973206e6f7420746865206f776e6572600082015250565b7f6d696e2061756374696f6e206c656e67746820746f6f206c6f77000000000000600082015250565b7f6d696e2061756374696f6e206c656e67746820746f6f20686967680000000000600082015250565b7f66656520746f6f20686967680000000000000000000000000000000000000000600082015250565b7f666565732063616e6e6f7420676f20746f203020616464726573730000000000600082015250565b61149f81611252565b81146114aa57600080fd5b50565b6114b681611264565b81146114c157600080fd5b50565b6114cd81611296565b81146114d857600080fd5b5056fea264697066735822122031d0688212bd86e467ae368cfdf2aaacbf8d5c985d37a441ea82cca08072acbd64736f6c63430008010033",
					"opcodes": "PUSH1 0x80 PUSH1 0x40 MSTORE CALLVALUE DUP1 ISZERO PUSH2 0x10 JUMPI PUSH1 0x0 DUP1 REVERT JUMPDEST POP PUSH1 0x0 PUSH2 0x21 PUSH2 0x144 PUSH1 0x20 SHL PUSH1 0x20 SHR JUMP JUMPDEST SWAP1 POP DUP1 PUSH1 0x0 DUP1 PUSH2 0x100 EXP DUP2 SLOAD DUP2 PUSH20 0xFFFFFFFFFFFFFFFFFFFFFFFFFFFFFFFFFFFFFFFF MUL NOT AND SWAP1 DUP4 PUSH20 0xFFFFFFFFFFFFFFFFFFFFFFFFFFFFFFFFFFFFFFFF AND MUL OR SWAP1 SSTORE POP DUP1 PUSH20 0xFFFFFFFFFFFFFFFFFFFFFFFFFFFFFFFFFFFFFFFF AND PUSH1 0x0 PUSH20 0xFFFFFFFFFFFFFFFFFFFFFFFFFFFFFFFFFFFFFFFF AND PUSH32 0x8BE0079C531659141344CD1FD0A4F28419497F9722A3DAAFE3B4186F6B6457E0 PUSH1 0x40 MLOAD PUSH1 0x40 MLOAD DUP1 SWAP2 SUB SWAP1 LOG3 POP PUSH3 0x127500 PUSH1 0x1 DUP2 SWAP1 SSTORE POP PUSH2 0x384 PUSH1 0x2 DUP2 SWAP1 SSTORE POP PUSH20 0xAEB639AA794055BC1992FB06545FDF2CFF53DC10 PUSH1 0x6 PUSH1 0x0 PUSH2 0x100 EXP DUP2 SLOAD DUP2 PUSH20 0xFFFFFFFFFFFFFFFFFFFFFFFFFFFFFFFFFFFFFFFF MUL NOT AND SWAP1 DUP4 PUSH20 0xFFFFFFFFFFFFFFFFFFFFFFFFFFFFFFFFFFFFFFFF AND MUL OR SWAP1 SSTORE POP PUSH1 0x32 PUSH1 0x5 DUP2 SWAP1 SSTORE POP PUSH1 0x64 PUSH1 0x4 DUP2 SWAP1 SSTORE POP PUSH1 0xA PUSH1 0x3 DUP2 SWAP1 SSTORE POP PUSH2 0x14C JUMP JUMPDEST PUSH1 0x0 CALLER SWAP1 POP SWAP1 JUMP JUMPDEST PUSH2 0x1511 DUP1 PUSH2 0x15B PUSH1 0x0 CODECOPY PUSH1 0x0 RETURN INVALID PUSH1 0x80 PUSH1 0x40 MSTORE CALLVALUE DUP1 ISZERO PUSH2 0x10 JUMPI PUSH1 0x0 DUP1 REVERT JUMPDEST POP PUSH1 0x4 CALLDATASIZE LT PUSH2 0x12C JUMPI PUSH1 0x0 CALLDATALOAD PUSH1 0xE0 SHR DUP1 PUSH4 0x8A364BC1 GT PUSH2 0xAD JUMPI DUP1 PUSH4 0xB3F00674 GT PUSH2 0x71 JUMPI DUP1 PUSH4 0xB3F00674 EQ PUSH2 0x2D5 JUMPI DUP1 PUSH4 0xD213B900 EQ PUSH2 0x2F3 JUMPI DUP1 PUSH4 0xEFDCD974 EQ PUSH2 0x311 JUMPI DUP1 PUSH4 0xF2FDE38B EQ PUSH2 0x32D JUMPI DUP1 PUSH4 0xFCD81E32 EQ PUSH2 0x349 JUMPI PUSH2 0x12C JUMP JUMPDEST DUP1 PUSH4 0x8A364BC1 EQ PUSH2 0x243 JUMPI DUP1 PUSH4 0x8DA5CB5B EQ PUSH2 0x261 JUMPI DUP1 PUSH4 0x9665EB0F EQ PUSH2 0x27F JUMPI DUP1 PUSH4 0xA0B335E3 EQ PUSH2 0x29B JUMPI DUP1 PUSH4 0xAFFDAFD8 EQ PUSH2 0x2B9 JUMPI PUSH2 0x12C JUMP JUMPDEST DUP1 PUSH4 0x6109F5B5 GT PUSH2 0xF4 JUMPI DUP1 PUSH4 0x6109F5B5 EQ PUSH2 0x1C5 JUMPI DUP1 PUSH4 0x6FC83DB3 EQ PUSH2 0x1E1 JUMPI DUP1 PUSH4 0x715018A6 EQ PUSH2 0x1FD JUMPI DUP1 PUSH4 0x7C513C0F EQ PUSH2 0x207 JUMPI DUP1 PUSH4 0x846A4DD2 EQ PUSH2 0x225 JUMPI PUSH2 0x12C JUMP JUMPDEST DUP1 PUSH4 0xE519EF9 EQ PUSH2 0x131 JUMPI DUP1 PUSH4 0xEA90A12 EQ PUSH2 0x14F JUMPI DUP1 PUSH4 0x1A58364C EQ PUSH2 0x16D JUMPI DUP1 PUSH4 0x32A69330 EQ PUSH2 0x18B JUMPI DUP1 PUSH4 0x339F87ED EQ PUSH2 0x1A7 JUMPI JUMPDEST PUSH1 0x0 DUP1 REVERT JUMPDEST PUSH2 0x139 PUSH2 0x367 JUMP JUMPDEST PUSH1 0x40 MLOAD PUSH2 0x146 SWAP2 SWAP1 PUSH2 0x11FD JUMP JUMPDEST PUSH1 0x40 MLOAD DUP1 SWAP2 SUB SWAP1 RETURN JUMPDEST PUSH2 0x157 PUSH2 0x36D JUMP JUMPDEST PUSH1 0x40 MLOAD PUSH2 0x164 SWAP2 SWAP1 PUSH2 0x11FD JUMP JUMPDEST PUSH1 0x40 MLOAD DUP1 SWAP2 SUB SWAP1 RETURN JUMPDEST PUSH2 0x175 PUSH2 0x373 JUMP JUMPDEST PUSH1 0x40 MLOAD PUSH2 0x182 SWAP2 SWAP1 PUSH2 0x11FD JUMP JUMPDEST PUSH1 0x40 MLOAD DUP1 SWAP2 SUB SWAP1 RETURN JUMPDEST PUSH2 0x1A5 PUSH1 0x4 DUP1 CALLDATASIZE SUB DUP2 ADD SWAP1 PUSH2 0x1A0 SWAP2 SWAP1 PUSH2 0xE9B JUMP JUMPDEST PUSH2 0x37A JUMP JUMPDEST STOP JUMPDEST PUSH2 0x1AF PUSH2 0x47F JUMP JUMPDEST PUSH1 0x40 MLOAD PUSH2 0x1BC SWAP2 SWAP1 PUSH2 0x11FD JUMP JUMPDEST PUSH1 0x40 MLOAD DUP1 SWAP2 SUB SWAP1 RETURN JUMPDEST PUSH2 0x1DF PUSH1 0x4 DUP1 CALLDATASIZE SUB DUP2 ADD SWAP1 PUSH2 0x1DA SWAP2 SWAP1 PUSH2 0xE9B JUMP JUMPDEST PUSH2 0x484 JUMP JUMPDEST STOP JUMPDEST PUSH2 0x1FB PUSH1 0x4 DUP1 CALLDATASIZE SUB DUP2 ADD SWAP1 PUSH2 0x1F6 SWAP2 SWAP1 PUSH2 0xE9B JUMP JUMPDEST PUSH2 0x545 JUMP JUMPDEST STOP JUMPDEST PUSH2 0x205 PUSH2 0x68F JUMP JUMPDEST STOP JUMPDEST PUSH2 0x20F PUSH2 0x7C9 JUMP JUMPDEST PUSH1 0x40 MLOAD PUSH2 0x21C SWAP2 SWAP1 PUSH2 0x11FD JUMP JUMPDEST PUSH1 0x40 MLOAD DUP1 SWAP2 SUB SWAP1 RETURN JUMPDEST PUSH2 0x22D PUSH2 0x7CF JUMP JUMPDEST PUSH1 0x40 MLOAD PUSH2 0x23A SWAP2 SWAP1 PUSH2 0x11FD JUMP JUMPDEST PUSH1 0x40 MLOAD DUP1 SWAP2 SUB SWAP1 RETURN JUMPDEST PUSH2 0x24B PUSH2 0x7D4 JUMP JUMPDEST PUSH1 0x40 MLOAD PUSH2 0x258 SWAP2 SWAP1 PUSH2 0x11FD JUMP JUMPDEST PUSH1 0x40 MLOAD DUP1 SWAP2 SUB SWAP1 RETURN JUMPDEST PUSH2 0x269 PUSH2 0x7DA JUMP JUMPDEST PUSH1 0x40 MLOAD PUSH2 0x276 SWAP2 SWAP1 PUSH2 0x105E JUMP JUMPDEST PUSH1 0x40 MLOAD DUP1 SWAP2 SUB SWAP1 RETURN JUMPDEST PUSH2 0x299 PUSH1 0x4 DUP1 CALLDATASIZE SUB DUP2 ADD SWAP1 PUSH2 0x294 SWAP2 SWAP1 PUSH2 0xE9B JUMP JUMPDEST PUSH2 0x803 JUMP JUMPDEST STOP JUMPDEST PUSH2 0x2A3 PUSH2 0x94C JUMP JUMPDEST PUSH1 0x40 MLOAD PUSH2 0x2B0 SWAP2 SWAP1 PUSH2 0x11FD JUMP JUMPDEST PUSH1 0x40 MLOAD DUP1 SWAP2 SUB SWAP1 RETURN JUMPDEST PUSH2 0x2D3 PUSH1 0x4 DUP1 CALLDATASIZE SUB DUP2 ADD SWAP1 PUSH2 0x2CE SWAP2 SWAP1 PUSH2 0xE9B JUMP JUMPDEST PUSH2 0x952 JUMP JUMPDEST STOP JUMPDEST PUSH2 0x2DD PUSH2 0xA9D JUMP JUMPDEST PUSH1 0x40 MLOAD PUSH2 0x2EA SWAP2 SWAP1 PUSH2 0x1079 JUMP JUMPDEST PUSH1 0x40 MLOAD DUP1 SWAP2 SUB SWAP1 RETURN JUMPDEST PUSH2 0x2FB PUSH2 0xAC3 JUMP JUMPDEST PUSH1 0x40 MLOAD PUSH2 0x308 SWAP2 SWAP1 PUSH2 0x11FD JUMP JUMPDEST PUSH1 0x40 MLOAD DUP1 SWAP2 SUB SWAP1 RETURN JUMPDEST PUSH2 0x32B PUSH1 0x4 DUP1 CALLDATASIZE SUB DUP2 ADD SWAP1 PUSH2 0x326 SWAP2 SWAP1 PUSH2 0xE72 JUMP JUMPDEST PUSH2 0xAC9 JUMP JUMPDEST STOP JUMPDEST PUSH2 0x347 PUSH1 0x4 DUP1 CALLDATASIZE SUB DUP2 ADD SWAP1 PUSH2 0x342 SWAP2 SWAP1 PUSH2 0xE49 JUMP JUMPDEST PUSH2 0xC54 JUMP JUMPDEST STOP JUMPDEST PUSH2 0x351 PUSH2 0xDFD JUMP JUMPDEST PUSH1 0x40 MLOAD PUSH2 0x35E SWAP2 SWAP1 PUSH2 0x11FD JUMP JUMPDEST PUSH1 0x40 MLOAD DUP1 SWAP2 SUB SWAP1 RETURN JUMPDEST PUSH1 0x1 SLOAD DUP2 JUMP JUMPDEST PUSH1 0x3 SLOAD DUP2 JUMP JUMPDEST PUSH3 0x49D400 DUP2 JUMP JUMPDEST PUSH2 0x382 PUSH2 0xE02 JUMP JUMPDEST PUSH20 0xFFFFFFFFFFFFFFFFFFFFFFFFFFFFFFFFFFFFFFFF AND PUSH2 0x3A0 PUSH2 0x7DA JUMP JUMPDEST PUSH20 0xFFFFFFFFFFFFFFFFFFFFFFFFFFFFFFFFFFFFFFFF AND EQ PUSH2 0x3F6 JUMPI PUSH1 0x40 MLOAD PUSH32 0x8C379A000000000000000000000000000000000000000000000000000000000 DUP2 MSTORE PUSH1 0x4 ADD PUSH2 0x3ED SWAP1 PUSH2 0x115D JUMP JUMPDEST PUSH1 0x40 MLOAD DUP1 SWAP2 SUB SWAP1 REVERT JUMPDEST PUSH1 0x64 DUP2 GT ISZERO PUSH2 0x43A JUMPI PUSH1 0x40 MLOAD PUSH32 0x8C379A000000000000000000000000000000000000000000000000000000000 DUP2 MSTORE PUSH1 0x4 ADD PUSH2 0x431 SWAP1 PUSH2 0x11BD JUMP JUMPDEST PUSH1 0x40 MLOAD DUP1 SWAP2 SUB SWAP1 REVERT JUMPDEST PUSH32 0x11B96AF861C45DE0C17127383516C92FC2A9D50EFF86EA831B69E76A3FA87E2F PUSH1 0x3 SLOAD DUP3 PUSH1 0x40 MLOAD PUSH2 0x46D SWAP3 SWAP2 SWAP1 PUSH2 0x1218 JUMP JUMPDEST PUSH1 0x40 MLOAD DUP1 SWAP2 SUB SWAP1 LOG1 DUP1 PUSH1 0x3 DUP2 SWAP1 SSTORE POP POP JUMP JUMPDEST PUSH1 0xA DUP2 JUMP JUMPDEST PUSH2 0x48C PUSH2 0xE02 JUMP JUMPDEST PUSH20 0xFFFFFFFFFFFFFFFFFFFFFFFFFFFFFFFFFFFFFFFF AND PUSH2 0x4AA PUSH2 0x7DA JUMP JUMPDEST PUSH20 0xFFFFFFFFFFFFFFFFFFFFFFFFFFFFFFFFFFFFFFFF AND EQ PUSH2 0x500 JUMPI PUSH1 0x40 MLOAD PUSH32 0x8C379A000000000000000000000000000000000000000000000000000000000 DUP2 MSTORE PUSH1 0x4 ADD PUSH2 0x4F7 SWAP1 PUSH2 0x115D JUMP JUMPDEST PUSH1 0x40 MLOAD DUP1 SWAP2 SUB SWAP1 REVERT JUMPDEST PUSH32 0x283F7179CC13A8F90C3123B415B98CA8A0CA9619EED3C981DB52809AB62700F9 PUSH1 0x4 SLOAD DUP3 PUSH1 0x40 MLOAD PUSH2 0x533 SWAP3 SWAP2 SWAP1 PUSH2 0x1218 JUMP JUMPDEST PUSH1 0x40 MLOAD DUP1 SWAP2 SUB SWAP1 LOG1 DUP1 PUSH1 0x4 DUP2 SWAP1 SSTORE POP POP JUMP JUMPDEST PUSH2 0x54D PUSH2 0xE02 JUMP JUMPDEST PUSH20 0xFFFFFFFFFFFFFFFFFFFFFFFFFFFFFFFFFFFFFFFF AND PUSH2 0x56B PUSH2 0x7DA JUMP JUMPDEST PUSH20 0xFFFFFFFFFFFFFFFFFFFFFFFFFFFFFFFFFFFFFFFF AND EQ PUSH2 0x5C1 JUMPI PUSH1 0x40 MLOAD PUSH32 0x8C379A000000000000000000000000000000000000000000000000000000000 DUP2 MSTORE PUSH1 0x4 ADD PUSH2 0x5B8 SWAP1 PUSH2 0x115D JUMP JUMPDEST PUSH1 0x40 MLOAD DUP1 SWAP2 SUB SWAP1 REVERT JUMPDEST PUSH2 0x384 DUP2 LT ISZERO PUSH2 0x606 JUMPI PUSH1 0x40 MLOAD PUSH32 0x8C379A000000000000000000000000000000000000000000000000000000000 DUP2 MSTORE PUSH1 0x4 ADD PUSH2 0x5FD SWAP1 PUSH2 0x117D JUMP JUMPDEST PUSH1 0x40 MLOAD DUP1 SWAP2 SUB SWAP1 REVERT JUMPDEST PUSH1 0x1 SLOAD DUP2 LT PUSH2 0x64A JUMPI PUSH1 0x40 MLOAD PUSH32 0x8C379A000000000000000000000000000000000000000000000000000000000 DUP2 MSTORE PUSH1 0x4 ADD PUSH2 0x641 SWAP1 PUSH2 0x119D JUMP JUMPDEST PUSH1 0x40 MLOAD DUP1 SWAP2 SUB SWAP1 REVERT JUMPDEST PUSH32 0x55017E5B2F20973817C668E2F744E7C1B68A6F20332F25BB7B9BBB2F0C7ECA7 PUSH1 0x2 SLOAD DUP3 PUSH1 0x40 MLOAD PUSH2 0x67D SWAP3 SWAP2 SWAP1 PUSH2 0x1218 JUMP JUMPDEST PUSH1 0x40 MLOAD DUP1 SWAP2 SUB SWAP1 LOG1 DUP1 PUSH1 0x2 DUP2 SWAP1 SSTORE POP POP JUMP JUMPDEST PUSH2 0x697 PUSH2 0xE02 JUMP JUMPDEST PUSH20 0xFFFFFFFFFFFFFFFFFFFFFFFFFFFFFFFFFFFFFFFF AND PUSH2 0x6B5 PUSH2 0x7DA JUMP JUMPDEST PUSH20 0xFFFFFFFFFFFFFFFFFFFFFFFFFFFFFFFFFFFFFFFF AND EQ PUSH2 0x70B JUMPI PUSH1 0x40 MLOAD PUSH32 0x8C379A000000000000000000000000000000000000000000000000000000000 DUP2 MSTORE PUSH1 0x4 ADD PUSH2 0x702 SWAP1 PUSH2 0x115D JUMP JUMPDEST PUSH1 0x40 MLOAD DUP1 SWAP2 SUB SWAP1 REVERT JUMPDEST PUSH1 0x0 PUSH20 0xFFFFFFFFFFFFFFFFFFFFFFFFFFFFFFFFFFFFFFFF AND PUSH1 0x0 DUP1 SLOAD SWAP1 PUSH2 0x100 EXP SWAP1 DIV PUSH20 0xFFFFFFFFFFFFFFFFFFFFFFFFFFFFFFFFFFFFFFFF AND PUSH20 0xFFFFFFFFFFFFFFFFFFFFFFFFFFFFFFFFFFFFFFFF AND PUSH32 0x8BE0079C531659141344CD1FD0A4F28419497F9722A3DAAFE3B4186F6B6457E0 PUSH1 0x40 MLOAD PUSH1 0x40 MLOAD DUP1 SWAP2 SUB SWAP1 LOG3 PUSH1 0x0 DUP1 PUSH1 0x0 PUSH2 0x100 EXP DUP2 SLOAD DUP2 PUSH20 0xFFFFFFFFFFFFFFFFFFFFFFFFFFFFFFFFFFFFFFFF MUL NOT AND SWAP1 DUP4 PUSH20 0xFFFFFFFFFFFFFFFFFFFFFFFFFFFFFFFFFFFFFFFF AND MUL OR SWAP1 SSTORE POP JUMP JUMPDEST PUSH1 0x5 SLOAD DUP2 JUMP JUMPDEST PUSH1 0x64 DUP2 JUMP JUMPDEST PUSH1 0x4 SLOAD DUP2 JUMP JUMPDEST PUSH1 0x0 DUP1 PUSH1 0x0 SWAP1 SLOAD SWAP1 PUSH2 0x100 EXP SWAP1 DIV PUSH20 0xFFFFFFFFFFFFFFFFFFFFFFFFFFFFFFFFFFFFFFFF AND SWAP1 POP SWAP1 JUMP JUMPDEST PUSH2 0x80B PUSH2 0xE02 JUMP JUMPDEST PUSH20 0xFFFFFFFFFFFFFFFFFFFFFFFFFFFFFFFFFFFFFFFF AND PUSH2 0x829 PUSH2 0x7DA JUMP JUMPDEST PUSH20 0xFFFFFFFFFFFFFFFFFFFFFFFFFFFFFFFFFFFFFFFF AND EQ PUSH2 0x87F JUMPI PUSH1 0x40 MLOAD PUSH32 0x8C379A000000000000000000000000000000000000000000000000000000000 DUP2 MSTORE PUSH1 0x4 ADD PUSH2 0x876 SWAP1 PUSH2 0x115D JUMP JUMPDEST PUSH1 0x40 MLOAD DUP1 SWAP2 SUB SWAP1 REVERT JUMPDEST PUSH1 0x64 DUP2 GT ISZERO PUSH2 0x8C3 JUMPI PUSH1 0x40 MLOAD PUSH32 0x8C379A000000000000000000000000000000000000000000000000000000000 DUP2 MSTORE PUSH1 0x4 ADD PUSH2 0x8BA SWAP1 PUSH2 0x111D JUMP JUMPDEST PUSH1 0x40 MLOAD DUP1 SWAP2 SUB SWAP1 REVERT JUMPDEST PUSH1 0xA DUP2 LT ISZERO PUSH2 0x907 JUMPI PUSH1 0x40 MLOAD PUSH32 0x8C379A000000000000000000000000000000000000000000000000000000000 DUP2 MSTORE PUSH1 0x4 ADD PUSH2 0x8FE SWAP1 PUSH2 0x10FD JUMP JUMPDEST PUSH1 0x40 MLOAD DUP1 SWAP2 SUB SWAP1 REVERT JUMPDEST PUSH32 0x3995C181714327DBF0232C3B20873E87CA6978B6418EEC0F97A1447C5A4C43FC PUSH1 0x5 SLOAD DUP3 PUSH1 0x40 MLOAD PUSH2 0x93A SWAP3 SWAP2 SWAP1 PUSH2 0x1218 JUMP JUMPDEST PUSH1 0x40 MLOAD DUP1 SWAP2 SUB SWAP1 LOG1 DUP1 PUSH1 0x5 DUP2 SWAP1 SSTORE POP POP JUMP JUMPDEST PUSH1 0x2 SLOAD DUP2 JUMP JUMPDEST PUSH2 0x95A PUSH2 0xE02 JUMP JUMPDEST PUSH20 0xFFFFFFFFFFFFFFFFFFFFFFFFFFFFFFFFFFFFFFFF AND PUSH2 0x978 PUSH2 0x7DA JUMP JUMPDEST PUSH20 0xFFFFFFFFFFFFFFFFFFFFFFFFFFFFFFFFFFFFFFFF AND EQ PUSH2 0x9CE JUMPI PUSH1 0x40 MLOAD PUSH32 0x8C379A000000000000000000000000000000000000000000000000000000000 DUP2 MSTORE PUSH1 0x4 ADD PUSH2 0x9C5 SWAP1 PUSH2 0x115D JUMP JUMPDEST PUSH1 0x40 MLOAD DUP1 SWAP2 SUB SWAP1 REVERT JUMPDEST PUSH3 0x49D400 DUP2 GT ISZERO PUSH2 0xA14 JUMPI PUSH1 0x40 MLOAD PUSH32 0x8C379A000000000000000000000000000000000000000000000000000000000 DUP2 MSTORE PUSH1 0x4 ADD PUSH2 0xA0B SWAP1 PUSH2 0x10BD JUMP JUMPDEST PUSH1 0x40 MLOAD DUP1 SWAP2 SUB SWAP1 REVERT JUMPDEST PUSH1 0x2 SLOAD DUP2 GT PUSH2 0xA58 JUMPI PUSH1 0x40 MLOAD PUSH32 0x8C379A000000000000000000000000000000000000000000000000000000000 DUP2 MSTORE PUSH1 0x4 ADD PUSH2 0xA4F SWAP1 PUSH2 0x113D JUMP JUMPDEST PUSH1 0x40 MLOAD DUP1 SWAP2 SUB SWAP1 REVERT JUMPDEST PUSH32 0x6684837277F012A4C3A13C8EC0E53D85B843E328A811A8F5F25F5E1456D9F59 PUSH1 0x1 SLOAD DUP3 PUSH1 0x40 MLOAD PUSH2 0xA8B SWAP3 SWAP2 SWAP1 PUSH2 0x1218 JUMP JUMPDEST PUSH1 0x40 MLOAD DUP1 SWAP2 SUB SWAP1 LOG1 DUP1 PUSH1 0x1 DUP2 SWAP1 SSTORE POP POP JUMP JUMPDEST PUSH1 0x6 PUSH1 0x0 SWAP1 SLOAD SWAP1 PUSH2 0x100 EXP SWAP1 DIV PUSH20 0xFFFFFFFFFFFFFFFFFFFFFFFFFFFFFFFFFFFFFFFF AND DUP2 JUMP JUMPDEST PUSH2 0x384 DUP2 JUMP JUMPDEST PUSH2 0xAD1 PUSH2 0xE02 JUMP JUMPDEST PUSH20 0xFFFFFFFFFFFFFFFFFFFFFFFFFFFFFFFFFFFFFFFF AND PUSH2 0xAEF PUSH2 0x7DA JUMP JUMPDEST PUSH20 0xFFFFFFFFFFFFFFFFFFFFFFFFFFFFFFFFFFFFFFFF AND EQ PUSH2 0xB45 JUMPI PUSH1 0x40 MLOAD PUSH32 0x8C379A000000000000000000000000000000000000000000000000000000000 DUP2 MSTORE PUSH1 0x4 ADD PUSH2 0xB3C SWAP1 PUSH2 0x115D JUMP JUMPDEST PUSH1 0x40 MLOAD DUP1 SWAP2 SUB SWAP1 REVERT JUMPDEST PUSH1 0x0 PUSH20 0xFFFFFFFFFFFFFFFFFFFFFFFFFFFFFFFFFFFFFFFF AND DUP2 PUSH20 0xFFFFFFFFFFFFFFFFFFFFFFFFFFFFFFFFFFFFFFFF AND EQ ISZERO PUSH2 0xBB5 JUMPI PUSH1 0x40 MLOAD PUSH32 0x8C379A000000000000000000000000000000000000000000000000000000000 DUP2 MSTORE PUSH1 0x4 ADD PUSH2 0xBAC SWAP1 PUSH2 0x11DD JUMP JUMPDEST PUSH1 0x40 MLOAD DUP1 SWAP2 SUB SWAP1 REVERT JUMPDEST PUSH32 0x2861448678F0BE67F11BFB5481B3E3B4CFEB3ACC6126AD60A05F95BFC6530666 PUSH1 0x6 PUSH1 0x0 SWAP1 SLOAD SWAP1 PUSH2 0x100 EXP SWAP1 DIV PUSH20 0xFFFFFFFFFFFFFFFFFFFFFFFFFFFFFFFFFFFFFFFF AND DUP3 PUSH1 0x40 MLOAD PUSH2 0xC08 SWAP3 SWAP2 SWAP1 PUSH2 0x1094 JUMP JUMPDEST PUSH1 0x40 MLOAD DUP1 SWAP2 SUB SWAP1 LOG1 DUP1 PUSH1 0x6 PUSH1 0x0 PUSH2 0x100 EXP DUP2 SLOAD DUP2 PUSH20 0xFFFFFFFFFFFFFFFFFFFFFFFFFFFFFFFFFFFFFFFF MUL NOT AND SWAP1 DUP4 PUSH20 0xFFFFFFFFFFFFFFFFFFFFFFFFFFFFFFFFFFFFFFFF AND MUL OR SWAP1 SSTORE POP POP JUMP JUMPDEST PUSH2 0xC5C PUSH2 0xE02 JUMP JUMPDEST PUSH20 0xFFFFFFFFFFFFFFFFFFFFFFFFFFFFFFFFFFFFFFFF AND PUSH2 0xC7A PUSH2 0x7DA JUMP JUMPDEST PUSH20 0xFFFFFFFFFFFFFFFFFFFFFFFFFFFFFFFFFFFFFFFF AND EQ PUSH2 0xCD0 JUMPI PUSH1 0x40 MLOAD PUSH32 0x8C379A000000000000000000000000000000000000000000000000000000000 DUP2 MSTORE PUSH1 0x4 ADD PUSH2 0xCC7 SWAP1 PUSH2 0x115D JUMP JUMPDEST PUSH1 0x40 MLOAD DUP1 SWAP2 SUB SWAP1 REVERT JUMPDEST PUSH1 0x0 PUSH20 0xFFFFFFFFFFFFFFFFFFFFFFFFFFFFFFFFFFFFFFFF AND DUP2 PUSH20 0xFFFFFFFFFFFFFFFFFFFFFFFFFFFFFFFFFFFFFFFF AND EQ ISZERO PUSH2 0xD40 JUMPI PUSH1 0x40 MLOAD PUSH32 0x8C379A000000000000000000000000000000000000000000000000000000000 DUP2 MSTORE PUSH1 0x4 ADD PUSH2 0xD37 SWAP1 PUSH2 0x10DD JUMP JUMPDEST PUSH1 0x40 MLOAD DUP1 SWAP2 SUB SWAP1 REVERT JUMPDEST DUP1 PUSH20 0xFFFFFFFFFFFFFFFFFFFFFFFFFFFFFFFFFFFFFFFF AND PUSH1 0x0 DUP1 SLOAD SWAP1 PUSH2 0x100 EXP SWAP1 DIV PUSH20 0xFFFFFFFFFFFFFFFFFFFFFFFFFFFFFFFFFFFFFFFF AND PUSH20 0xFFFFFFFFFFFFFFFFFFFFFFFFFFFFFFFFFFFFFFFF AND PUSH32 0x8BE0079C531659141344CD1FD0A4F28419497F9722A3DAAFE3B4186F6B6457E0 PUSH1 0x40 MLOAD PUSH1 0x40 MLOAD DUP1 SWAP2 SUB SWAP1 LOG3 DUP1 PUSH1 0x0 DUP1 PUSH2 0x100 EXP DUP2 SLOAD DUP2 PUSH20 0xFFFFFFFFFFFFFFFFFFFFFFFFFFFFFFFFFFFFFFFF MUL NOT AND SWAP1 DUP4 PUSH20 0xFFFFFFFFFFFFFFFFFFFFFFFFFFFFFFFFFFFFFFFF AND MUL OR SWAP1 SSTORE POP POP JUMP JUMPDEST PUSH1 0x64 DUP2 JUMP JUMPDEST PUSH1 0x0 CALLER SWAP1 POP SWAP1 JUMP JUMPDEST PUSH1 0x0 DUP2 CALLDATALOAD SWAP1 POP PUSH2 0xE19 DUP2 PUSH2 0x1496 JUMP JUMPDEST SWAP3 SWAP2 POP POP JUMP JUMPDEST PUSH1 0x0 DUP2 CALLDATALOAD SWAP1 POP PUSH2 0xE2E DUP2 PUSH2 0x14AD JUMP JUMPDEST SWAP3 SWAP2 POP POP JUMP JUMPDEST PUSH1 0x0 DUP2 CALLDATALOAD SWAP1 POP PUSH2 0xE43 DUP2 PUSH2 0x14C4 JUMP JUMPDEST SWAP3 SWAP2 POP POP JUMP JUMPDEST PUSH1 0x0 PUSH1 0x20 DUP3 DUP5 SUB SLT ISZERO PUSH2 0xE5B JUMPI PUSH1 0x0 DUP1 REVERT JUMPDEST PUSH1 0x0 PUSH2 0xE69 DUP5 DUP3 DUP6 ADD PUSH2 0xE0A JUMP JUMPDEST SWAP2 POP POP SWAP3 SWAP2 POP POP JUMP JUMPDEST PUSH1 0x0 PUSH1 0x20 DUP3 DUP5 SUB SLT ISZERO PUSH2 0xE84 JUMPI PUSH1 0x0 DUP1 REVERT JUMPDEST PUSH1 0x0 PUSH2 0xE92 DUP5 DUP3 DUP6 ADD PUSH2 0xE1F JUMP JUMPDEST SWAP2 POP POP SWAP3 SWAP2 POP POP JUMP JUMPDEST PUSH1 0x0 PUSH1 0x20 DUP3 DUP5 SUB SLT ISZERO PUSH2 0xEAD JUMPI PUSH1 0x0 DUP1 REVERT JUMPDEST PUSH1 0x0 PUSH2 0xEBB DUP5 DUP3 DUP6 ADD PUSH2 0xE34 JUMP JUMPDEST SWAP2 POP POP SWAP3 SWAP2 POP POP JUMP JUMPDEST PUSH2 0xECD DUP2 PUSH2 0x12A0 JUMP JUMPDEST DUP3 MSTORE POP POP JUMP JUMPDEST PUSH2 0xEDC DUP2 PUSH2 0x1264 JUMP JUMPDEST DUP3 MSTORE POP POP JUMP JUMPDEST PUSH2 0xEEB DUP2 PUSH2 0x1252 JUMP JUMPDEST DUP3 MSTORE POP POP JUMP JUMPDEST PUSH1 0x0 PUSH2 0xEFE PUSH1 0x1B DUP4 PUSH2 0x1241 JUMP JUMPDEST SWAP2 POP PUSH2 0xF09 DUP3 PUSH2 0x12D6 JUMP JUMPDEST PUSH1 0x20 DUP3 ADD SWAP1 POP SWAP2 SWAP1 POP JUMP JUMPDEST PUSH1 0x0 PUSH2 0xF21 PUSH1 0x26 DUP4 PUSH2 0x1241 JUMP JUMPDEST SWAP2 POP PUSH2 0xF2C DUP3 PUSH2 0x12FF JUMP JUMPDEST PUSH1 0x40 DUP3 ADD SWAP1 POP SWAP2 SWAP1 POP JUMP JUMPDEST PUSH1 0x0 PUSH2 0xF44 PUSH1 0x18 DUP4 PUSH2 0x1241 JUMP JUMPDEST SWAP2 POP PUSH2 0xF4F DUP3 PUSH2 0x134E JUMP JUMPDEST PUSH1 0x20 DUP3 ADD SWAP1 POP SWAP2 SWAP1 POP JUMP JUMPDEST PUSH1 0x0 PUSH2 0xF67 PUSH1 0x19 DUP4 PUSH2 0x1241 JUMP JUMPDEST SWAP2 POP PUSH2 0xF72 DUP3 PUSH2 0x1377 JUMP JUMPDEST PUSH1 0x20 DUP3 ADD SWAP1 POP SWAP2 SWAP1 POP JUMP JUMPDEST PUSH1 0x0 PUSH2 0xF8A PUSH1 0x1A DUP4 PUSH2 0x1241 JUMP JUMPDEST SWAP2 POP PUSH2 0xF95 DUP3 PUSH2 0x13A0 JUMP JUMPDEST PUSH1 0x20 DUP3 ADD SWAP1 POP SWAP2 SWAP1 POP JUMP JUMPDEST PUSH1 0x0 PUSH2 0xFAD PUSH1 0x20 DUP4 PUSH2 0x1241 JUMP JUMPDEST SWAP2 POP PUSH2 0xFB8 DUP3 PUSH2 0x13C9 JUMP JUMPDEST PUSH1 0x20 DUP3 ADD SWAP1 POP SWAP2 SWAP1 POP JUMP JUMPDEST PUSH1 0x0 PUSH2 0xFD0 PUSH1 0x1A DUP4 PUSH2 0x1241 JUMP JUMPDEST SWAP2 POP PUSH2 0xFDB DUP3 PUSH2 0x13F2 JUMP JUMPDEST PUSH1 0x20 DUP3 ADD SWAP1 POP SWAP2 SWAP1 POP JUMP JUMPDEST PUSH1 0x0 PUSH2 0xFF3 PUSH1 0x1B DUP4 PUSH2 0x1241 JUMP JUMPDEST SWAP2 POP PUSH2 0xFFE DUP3 PUSH2 0x141B JUMP JUMPDEST PUSH1 0x20 DUP3 ADD SWAP1 POP SWAP2 SWAP1 POP JUMP JUMPDEST PUSH1 0x0 PUSH2 0x1016 PUSH1 0xC DUP4 PUSH2 0x1241 JUMP JUMPDEST SWAP2 POP PUSH2 0x1021 DUP3 PUSH2 0x1444 JUMP JUMPDEST PUSH1 0x20 DUP3 ADD SWAP1 POP SWAP2 SWAP1 POP JUMP JUMPDEST PUSH1 0x0 PUSH2 0x1039 PUSH1 0x1B DUP4 PUSH2 0x1241 JUMP JUMPDEST SWAP2 POP PUSH2 0x1044 DUP3 PUSH2 0x146D JUMP JUMPDEST PUSH1 0x20 DUP3 ADD SWAP1 POP SWAP2 SWAP1 POP JUMP JUMPDEST PUSH2 0x1058 DUP2 PUSH2 0x1296 JUMP JUMPDEST DUP3 MSTORE POP POP JUMP JUMPDEST PUSH1 0x0 PUSH1 0x20 DUP3 ADD SWAP1 POP PUSH2 0x1073 PUSH1 0x0 DUP4 ADD DUP5 PUSH2 0xEE2 JUMP JUMPDEST SWAP3 SWAP2 POP POP JUMP JUMPDEST PUSH1 0x0 PUSH1 0x20 DUP3 ADD SWAP1 POP PUSH2 0x108E PUSH1 0x0 DUP4 ADD DUP5 PUSH2 0xED3 JUMP JUMPDEST SWAP3 SWAP2 POP POP JUMP JUMPDEST PUSH1 0x0 PUSH1 0x40 DUP3 ADD SWAP1 POP PUSH2 0x10A9 PUSH1 0x0 DUP4 ADD DUP6 PUSH2 0xEC4 JUMP JUMPDEST PUSH2 0x10B6 PUSH1 0x20 DUP4 ADD DUP5 PUSH2 0xEC4 JUMP JUMPDEST SWAP4 SWAP3 POP POP POP JUMP JUMPDEST PUSH1 0x0 PUSH1 0x20 DUP3 ADD SWAP1 POP DUP2 DUP2 SUB PUSH1 0x0 DUP4 ADD MSTORE PUSH2 0x10D6 DUP2 PUSH2 0xEF1 JUMP JUMPDEST SWAP1 POP SWAP2 SWAP1 POP JUMP JUMPDEST PUSH1 0x0 PUSH1 0x20 DUP3 ADD SWAP1 POP DUP2 DUP2 SUB PUSH1 0x0 DUP4 ADD MSTORE PUSH2 0x10F6 DUP2 PUSH2 0xF14 JUMP JUMPDEST SWAP1 POP SWAP2 SWAP1 POP JUMP JUMPDEST PUSH1 0x0 PUSH1 0x20 DUP3 ADD SWAP1 POP DUP2 DUP2 SUB PUSH1 0x0 DUP4 ADD MSTORE PUSH2 0x1116 DUP2 PUSH2 0xF37 JUMP JUMPDEST SWAP1 POP SWAP2 SWAP1 POP JUMP JUMPDEST PUSH1 0x0 PUSH1 0x20 DUP3 ADD SWAP1 POP DUP2 DUP2 SUB PUSH1 0x0 DUP4 ADD MSTORE PUSH2 0x1136 DUP2 PUSH2 0xF5A JUMP JUMPDEST SWAP1 POP SWAP2 SWAP1 POP JUMP JUMPDEST PUSH1 0x0 PUSH1 0x20 DUP3 ADD SWAP1 POP DUP2 DUP2 SUB PUSH1 0x0 DUP4 ADD MSTORE PUSH2 0x1156 DUP2 PUSH2 0xF7D JUMP JUMPDEST SWAP1 POP SWAP2 SWAP1 POP JUMP JUMPDEST PUSH1 0x0 PUSH1 0x20 DUP3 ADD SWAP1 POP DUP2 DUP2 SUB PUSH1 0x0 DUP4 ADD MSTORE PUSH2 0x1176 DUP2 PUSH2 0xFA0 JUMP JUMPDEST SWAP1 POP SWAP2 SWAP1 POP JUMP JUMPDEST PUSH1 0x0 PUSH1 0x20 DUP3 ADD SWAP1 POP DUP2 DUP2 SUB PUSH1 0x0 DUP4 ADD MSTORE PUSH2 0x1196 DUP2 PUSH2 0xFC3 JUMP JUMPDEST SWAP1 POP SWAP2 SWAP1 POP JUMP JUMPDEST PUSH1 0x0 PUSH1 0x20 DUP3 ADD SWAP1 POP DUP2 DUP2 SUB PUSH1 0x0 DUP4 ADD MSTORE PUSH2 0x11B6 DUP2 PUSH2 0xFE6 JUMP JUMPDEST SWAP1 POP SWAP2 SWAP1 POP JUMP JUMPDEST PUSH1 0x0 PUSH1 0x20 DUP3 ADD SWAP1 POP DUP2 DUP2 SUB PUSH1 0x0 DUP4 ADD MSTORE PUSH2 0x11D6 DUP2 PUSH2 0x1009 JUMP JUMPDEST SWAP1 POP SWAP2 SWAP1 POP JUMP JUMPDEST PUSH1 0x0 PUSH1 0x20 DUP3 ADD SWAP1 POP DUP2 DUP2 SUB PUSH1 0x0 DUP4 ADD MSTORE PUSH2 0x11F6 DUP2 PUSH2 0x102C JUMP JUMPDEST SWAP1 POP SWAP2 SWAP1 POP JUMP JUMPDEST PUSH1 0x0 PUSH1 0x20 DUP3 ADD SWAP1 POP PUSH2 0x1212 PUSH1 0x0 DUP4 ADD DUP5 PUSH2 0x104F JUMP JUMPDEST SWAP3 SWAP2 POP POP JUMP JUMPDEST PUSH1 0x0 PUSH1 0x40 DUP3 ADD SWAP1 POP PUSH2 0x122D PUSH1 0x0 DUP4 ADD DUP6 PUSH2 0x104F JUMP JUMPDEST PUSH2 0x123A PUSH1 0x20 DUP4 ADD DUP5 PUSH2 0x104F JUMP JUMPDEST SWAP4 SWAP3 POP POP POP JUMP JUMPDEST PUSH1 0x0 DUP3 DUP3 MSTORE PUSH1 0x20 DUP3 ADD SWAP1 POP SWAP3 SWAP2 POP POP JUMP JUMPDEST PUSH1 0x0 PUSH2 0x125D DUP3 PUSH2 0x1276 JUMP JUMPDEST SWAP1 POP SWAP2 SWAP1 POP JUMP JUMPDEST PUSH1 0x0 PUSH2 0x126F DUP3 PUSH2 0x1276 JUMP JUMPDEST SWAP1 POP SWAP2 SWAP1 POP JUMP JUMPDEST PUSH1 0x0 PUSH20 0xFFFFFFFFFFFFFFFFFFFFFFFFFFFFFFFFFFFFFFFF DUP3 AND SWAP1 POP SWAP2 SWAP1 POP JUMP JUMPDEST PUSH1 0x0 DUP2 SWAP1 POP SWAP2 SWAP1 POP JUMP JUMPDEST PUSH1 0x0 PUSH2 0x12AB DUP3 PUSH2 0x12B2 JUMP JUMPDEST SWAP1 POP SWAP2 SWAP1 POP JUMP JUMPDEST PUSH1 0x0 PUSH2 0x12BD DUP3 PUSH2 0x12C4 JUMP JUMPDEST SWAP1 POP SWAP2 SWAP1 POP JUMP JUMPDEST PUSH1 0x0 PUSH2 0x12CF DUP3 PUSH2 0x1276 JUMP JUMPDEST SWAP1 POP SWAP2 SWAP1 POP JUMP JUMPDEST PUSH32 0x6D61782061756374696F6E206C656E67746820746F6F20686967680000000000 PUSH1 0x0 DUP3 ADD MSTORE POP JUMP JUMPDEST PUSH32 0x4F776E61626C653A206E6577206F776E657220697320746865207A65726F2061 PUSH1 0x0 DUP3 ADD MSTORE PUSH32 0x6464726573730000000000000000000000000000000000000000000000000000 PUSH1 0x20 DUP3 ADD MSTORE POP JUMP JUMPDEST PUSH32 0x6D696E2062696420696E63726561736520746F6F206C6F770000000000000000 PUSH1 0x0 DUP3 ADD MSTORE POP JUMP JUMPDEST PUSH32 0x6D696E2062696420696E63726561736520746F6F206869676800000000000000 PUSH1 0x0 DUP3 ADD MSTORE POP JUMP JUMPDEST PUSH32 0x6D61782061756374696F6E206C656E67746820746F6F206C6F77000000000000 PUSH1 0x0 DUP3 ADD MSTORE POP JUMP JUMPDEST PUSH32 0x4F776E61626C653A2063616C6C6572206973206E6F7420746865206F776E6572 PUSH1 0x0 DUP3 ADD MSTORE POP JUMP JUMPDEST PUSH32 0x6D696E2061756374696F6E206C656E67746820746F6F206C6F77000000000000 PUSH1 0x0 DUP3 ADD MSTORE POP JUMP JUMPDEST PUSH32 0x6D696E2061756374696F6E206C656E67746820746F6F20686967680000000000 PUSH1 0x0 DUP3 ADD MSTORE POP JUMP JUMPDEST PUSH32 0x66656520746F6F20686967680000000000000000000000000000000000000000 PUSH1 0x0 DUP3 ADD MSTORE POP JUMP JUMPDEST PUSH32 0x666565732063616E6E6F7420676F20746F203020616464726573730000000000 PUSH1 0x0 DUP3 ADD MSTORE POP JUMP JUMPDEST PUSH2 0x149F DUP2 PUSH2 0x1252 JUMP JUMPDEST DUP2 EQ PUSH2 0x14AA JUMPI PUSH1 0x0 DUP1 REVERT JUMPDEST POP JUMP JUMPDEST PUSH2 0x14B6 DUP2 PUSH2 0x1264 JUMP JUMPDEST DUP2 EQ PUSH2 0x14C1 JUMPI PUSH1 0x0 DUP1 REVERT JUMPDEST POP JUMP JUMPDEST PUSH2 0x14CD DUP2 PUSH2 0x1296 JUMP JUMPDEST DUP2 EQ PUSH2 0x14D8 JUMPI PUSH1 0x0 DUP1 REVERT JUMPDEST POP JUMP INVALID LOG2 PUSH5 0x6970667358 0x22 SLT KECCAK256 BALANCE 0xD0 PUSH9 0x8212BD86E467AE368C REVERT CALLCODE 0xAA 0xAC 0xBF DUP14 0x5C SWAP9 0x5D CALLDATACOPY LOG4 COINBASE 0xEA DUP3 0xCC LOG0 DUP1 PUSH19 0xACBD64736F6C63430008010033000000000000 "
				},
				"gasEstimates": {
					"creation": {
						"codeDepositCost": "1078600",
						"executionCost": "infinite",
						"totalCost": "infinite"
					},
					"external": {
						"feeReceiver()": "1236",
						"governanceFee()": "1175",
						"maxAuctionLength()": "1153",
						"maxCuratorFee()": "1152",
						"maxGovFee()": "440",
						"maxMaxAuctionLength()": "397",
						"maxMinBidIncrease()": "439",
						"minAuctionLength()": "1218",
						"minBidIncrease()": "1218",
						"minMinAuctionLength()": "373",
						"minMinBidIncrease()": "441",
						"owner()": "1267",
						"renounceOwnership()": "24396",
						"setFeeReceiver(address)": "infinite",
						"setGovernanceFee(uint256)": "infinite",
						"setMaxAuctionLength(uint256)": "infinite",
						"setMaxCuratorFee(uint256)": "infinite",
						"setMinAuctionLength(uint256)": "infinite",
						"setMinBidIncrease(uint256)": "infinite",
						"transferOwnership(address)": "24766"
					}
				},
				"methodIdentifiers": {
					"feeReceiver()": "b3f00674",
					"governanceFee()": "0ea90a12",
					"maxAuctionLength()": "0e519ef9",
					"maxCuratorFee()": "8a364bc1",
					"maxGovFee()": "846a4dd2",
					"maxMaxAuctionLength()": "1a58364c",
					"maxMinBidIncrease()": "fcd81e32",
					"minAuctionLength()": "a0b335e3",
					"minBidIncrease()": "7c513c0f",
					"minMinAuctionLength()": "d213b900",
					"minMinBidIncrease()": "339f87ed",
					"owner()": "8da5cb5b",
					"renounceOwnership()": "715018a6",
					"setFeeReceiver(address)": "efdcd974",
					"setGovernanceFee(uint256)": "32a69330",
					"setMaxAuctionLength(uint256)": "affdafd8",
					"setMaxCuratorFee(uint256)": "6109f5b5",
					"setMinAuctionLength(uint256)": "6fc83db3",
					"setMinBidIncrease(uint256)": "9665eb0f",
					"transferOwnership(address)": "f2fde38b"
				}
			},
			"storageLayout": {
				"storage": [
					{
						"astId": 7,
						"contract": "contracts/Settings.sol:Settings",
						"label": "_owner",
						"offset": 0,
						"slot": "0",
						"type": "t_address"
					},
					{
						"astId": 177,
						"contract": "contracts/Settings.sol:Settings",
						"label": "maxAuctionLength",
						"offset": 0,
						"slot": "1",
						"type": "t_uint256"
					},
					{
						"astId": 185,
						"contract": "contracts/Settings.sol:Settings",
						"label": "minAuctionLength",
						"offset": 0,
						"slot": "2",
						"type": "t_uint256"
					},
					{
						"astId": 193,
						"contract": "contracts/Settings.sol:Settings",
						"label": "governanceFee",
						"offset": 0,
						"slot": "3",
						"type": "t_uint256"
					},
					{
						"astId": 201,
						"contract": "contracts/Settings.sol:Settings",
						"label": "maxCuratorFee",
						"offset": 0,
						"slot": "4",
						"type": "t_uint256"
					},
					{
						"astId": 205,
						"contract": "contracts/Settings.sol:Settings",
						"label": "minBidIncrease",
						"offset": 0,
						"slot": "5",
						"type": "t_uint256"
					},
					{
						"astId": 217,
						"contract": "contracts/Settings.sol:Settings",
						"label": "feeReceiver",
						"offset": 0,
						"slot": "6",
						"type": "t_address_payable"
					}
				],
				"types": {
					"t_address": {
						"encoding": "inplace",
						"label": "address",
						"numberOfBytes": "20"
					},
					"t_address_payable": {
						"encoding": "inplace",
						"label": "address payable",
						"numberOfBytes": "20"
					},
					"t_uint256": {
						"encoding": "inplace",
						"label": "uint256",
						"numberOfBytes": "32"
					}
				}
			},
			"userdoc": {
				"kind": "user",
				"methods": {
					"feeReceiver()": {
						"notice": "the address who receives auction fees"
					},
					"governanceFee()": {
						"notice": "governance fee max"
					},
					"maxAuctionLength()": {
						"notice": "the maximum auction length"
					},
					"maxCuratorFee()": {
						"notice": "max curator fee"
					},
					"maxGovFee()": {
						"notice": "10% fee is max"
					},
					"maxMaxAuctionLength()": {
						"notice": "the longest an auction can ever be"
					},
					"maxMinBidIncrease()": {
						"notice": "10% bid increase is max"
					},
					"minAuctionLength()": {
						"notice": "the minimum auction length"
					},
					"minBidIncrease()": {
						"notice": "the % bid increase required for a new bid"
					},
					"minMinAuctionLength()": {
						"notice": "the shortest an auction can ever be"
					},
					"minMinBidIncrease()": {
						"notice": "1% bid increase is min"
					}
				},
				"version": 1
			}
		}
	}
}