{
	"contracts/Factory.sol": {
		"Factory": {
			"abi": [
				{
					"inputs": [
						{
							"internalType": "address",
							"name": "setting_",
							"type": "address"
						}
					],
					"stateMutability": "nonpayable",
					"type": "constructor"
				},
				{
					"anonymous": false,
					"inputs": [
						{
							"indexed": true,
							"internalType": "address",
							"name": "router",
							"type": "address"
						},
						{
							"indexed": true,
							"internalType": "address",
							"name": "template",
							"type": "address"
						},
						{
							"indexed": false,
							"internalType": "uint256",
							"name": "vaultRouterCount",
							"type": "uint256"
						}
					],
					"name": "Mint",
					"type": "event"
				},
				{
					"anonymous": false,
					"inputs": [
						{
							"indexed": true,
							"internalType": "address",
							"name": "previousOwner",
							"type": "address"
						},
						{
							"indexed": true,
							"internalType": "address",
							"name": "newOwner",
							"type": "address"
						}
					],
					"name": "OwnershipTransferred",
					"type": "event"
				},
				{
					"anonymous": false,
					"inputs": [
						{
							"indexed": false,
							"internalType": "address",
							"name": "account",
							"type": "address"
						}
					],
					"name": "Paused",
					"type": "event"
				},
				{
					"anonymous": false,
					"inputs": [
						{
							"indexed": false,
							"internalType": "address",
							"name": "account",
							"type": "address"
						}
					],
					"name": "Unpaused",
					"type": "event"
				},
				{
					"inputs": [
						{
							"internalType": "address",
							"name": "",
							"type": "address"
						}
					],
					"name": "calibrationTemplate",
					"outputs": [
						{
							"internalType": "address",
							"name": "",
							"type": "address"
						}
					],
					"stateMutability": "view",
					"type": "function"
				},
				{
					"inputs": [
						{
							"internalType": "address",
							"name": "",
							"type": "address"
						}
					],
					"name": "lastMint",
					"outputs": [
						{
							"internalType": "address",
							"name": "",
							"type": "address"
						}
					],
					"stateMutability": "view",
					"type": "function"
				},
				{
					"inputs": [
						{
							"internalType": "address",
							"name": "routerTemplate",
							"type": "address"
						},
						{
							"internalType": "string",
							"name": "name",
							"type": "string"
						}
					],
					"name": "mint",
					"outputs": [
						{
							"internalType": "uint256",
							"name": "",
							"type": "uint256"
						}
					],
					"stateMutability": "nonpayable",
					"type": "function"
				},
				{
					"inputs": [],
					"name": "owner",
					"outputs": [
						{
							"internalType": "address",
							"name": "",
							"type": "address"
						}
					],
					"stateMutability": "view",
					"type": "function"
				},
				{
					"inputs": [],
					"name": "pause",
					"outputs": [],
					"stateMutability": "nonpayable",
					"type": "function"
				},
				{
					"inputs": [],
					"name": "paused",
					"outputs": [
						{
							"internalType": "bool",
							"name": "",
							"type": "bool"
						}
					],
					"stateMutability": "view",
					"type": "function"
				},
				{
					"inputs": [],
					"name": "renounceOwnership",
					"outputs": [],
					"stateMutability": "nonpayable",
					"type": "function"
				},
				{
					"inputs": [
						{
							"internalType": "address",
							"name": "",
							"type": "address"
						}
					],
					"name": "routerTemplateMap",
					"outputs": [
						{
							"internalType": "bool",
							"name": "",
							"type": "bool"
						}
					],
					"stateMutability": "view",
					"type": "function"
				},
				{
					"inputs": [
						{
							"internalType": "uint256",
							"name": "",
							"type": "uint256"
						}
					],
					"name": "routers",
					"outputs": [
						{
							"internalType": "address",
							"name": "",
							"type": "address"
						}
					],
					"stateMutability": "view",
					"type": "function"
				},
				{
					"inputs": [
						{
							"internalType": "address",
							"name": "router",
							"type": "address"
						},
						{
							"internalType": "bool",
							"name": "ratify",
							"type": "bool"
						}
					],
					"name": "setLogic",
					"outputs": [],
					"stateMutability": "nonpayable",
					"type": "function"
				},
				{
					"inputs": [
						{
							"internalType": "string",
							"name": "versionsName",
							"type": "string"
						},
						{
							"internalType": "uint16",
							"name": "versions",
							"type": "uint16"
						},
						{
							"internalType": "address",
							"name": "updataTemplate",
							"type": "address"
						},
						{
							"internalType": "bool",
							"name": "isOpen",
							"type": "bool"
						}
					],
					"name": "setUpdataAddresCalibration",
					"outputs": [],
					"stateMutability": "nonpayable",
					"type": "function"
				},
				{
					"inputs": [],
					"name": "setting",
					"outputs": [
						{
							"internalType": "address",
							"name": "",
							"type": "address"
						}
					],
					"stateMutability": "view",
					"type": "function"
				},
				{
					"inputs": [
						{
							"internalType": "address",
							"name": "newOwner",
							"type": "address"
						}
					],
					"name": "transferOwnership",
					"outputs": [],
					"stateMutability": "nonpayable",
					"type": "function"
				},
				{
					"inputs": [],
					"name": "unpause",
					"outputs": [],
					"stateMutability": "nonpayable",
					"type": "function"
				},
				{
					"inputs": [
						{
							"internalType": "string",
							"name": "",
							"type": "string"
						},
						{
							"internalType": "uint16",
							"name": "",
							"type": "uint16"
						},
						{
							"internalType": "address",
							"name": "",
							"type": "address"
						}
					],
					"name": "updataAddresCalibration",
					"outputs": [
						{
							"internalType": "bool",
							"name": "",
							"type": "bool"
						}
					],
					"stateMutability": "view",
					"type": "function"
				},
				{
					"inputs": [],
					"name": "vaultRouterCount",
					"outputs": [
						{
							"internalType": "uint256",
							"name": "",
							"type": "uint256"
						}
					],
					"stateMutability": "view",
					"type": "function"
				}
			],
			"devdoc": {
				"kind": "dev",
				"methods": {
					"owner()": {
						"details": "Returns the address of the current owner."
					},
					"paused()": {
						"details": "Returns true if the contract is paused, and false otherwise."
					},
					"renounceOwnership()": {
						"details": "Leaves the contract without owner. It will not be possible to call `onlyOwner` functions anymore. Can only be called by the current owner. NOTE: Renouncing ownership will leave the contract without an owner, thereby removing any functionality that is only available to the owner."
					},
					"transferOwnership(address)": {
						"details": "Transfers ownership of the contract to a new account (`newOwner`). Can only be called by the current owner."
					}
				},
				"version": 1
			},
			"evm": {
				"assembly": "    /* \"contracts/Factory.sol\":207:2496  contract Factory is Ownable, Pausable {... */\n  mstore(0x40, 0xa0)\n    /* \"contracts/Factory.sol\":1190:1251  constructor(address setting_) {... */\n  callvalue\n  dup1\n  iszero\n  tag_1\n  jumpi\n  0x00\n  dup1\n  revert\ntag_1:\n  pop\n  mload(0x40)\n  sub(codesize, bytecodeSize)\n  dup1\n  bytecodeSize\n  dup4\n  codecopy\n  dup2\n  dup2\n  add\n  0x40\n  mstore\n  dup2\n  add\n  swap1\n  tag_2\n  swap2\n  swap1\n  tag_3\n  jump\t// in\ntag_2:\n    /* \"@openzeppelin/contracts/access/Ownable.sol\":867:884  address msgSender */\n  0x00\n    /* \"@openzeppelin/contracts/access/Ownable.sol\":887:899  _msgSender() */\n  tag_8\n    /* \"@openzeppelin/contracts/access/Ownable.sol\":887:897  _msgSender */\n  shl(0x20, tag_9)\n    /* \"@openzeppelin/contracts/access/Ownable.sol\":887:899  _msgSender() */\n  0x20\n  shr\n  jump\t// in\ntag_8:\n    /* \"@openzeppelin/contracts/access/Ownable.sol\":867:899  address msgSender = _msgSender() */\n  swap1\n  pop\n    /* \"@openzeppelin/contracts/access/Ownable.sol\":918:927  msgSender */\n  dup1\n    /* \"@openzeppelin/contracts/access/Ownable.sol\":909:915  _owner */\n  0x00\n  dup1\n    /* \"@openzeppelin/contracts/access/Ownable.sol\":909:927  _owner = msgSender */\n  0x0100\n  exp\n  dup2\n  sload\n  dup2\n  0xffffffffffffffffffffffffffffffffffffffff\n  mul\n  not\n  and\n  swap1\n  dup4\n  0xffffffffffffffffffffffffffffffffffffffff\n  and\n  mul\n  or\n  swap1\n  sstore\n  pop\n    /* \"@openzeppelin/contracts/access/Ownable.sol\":975:984  msgSender */\n  dup1\n    /* \"@openzeppelin/contracts/access/Ownable.sol\":942:985  OwnershipTransferred(address(0), msgSender) */\n  0xffffffffffffffffffffffffffffffffffffffff\n  and\n    /* \"@openzeppelin/contracts/access/Ownable.sol\":971:972  0 */\n  0x00\n    /* \"@openzeppelin/contracts/access/Ownable.sol\":942:985  OwnershipTransferred(address(0), msgSender) */\n  0xffffffffffffffffffffffffffffffffffffffff\n  and\n  0x8be0079c531659141344cd1fd0a4f28419497f9722a3daafe3b4186f6b6457e0\n  mload(0x40)\n  mload(0x40)\n  dup1\n  swap2\n  sub\n  swap1\n  log3\n    /* \"@openzeppelin/contracts/access/Ownable.sol\":857:992  {... */\n  pop\n    /* \"contracts/utils/Pausable.sol\":988:993  false */\n  0x00\n    /* \"contracts/utils/Pausable.sol\":978:985  _paused */\n  dup1\n  0x14\n    /* \"contracts/utils/Pausable.sol\":978:993  _paused = false */\n  0x0100\n  exp\n  dup2\n  sload\n  dup2\n  0xff\n  mul\n  not\n  and\n  swap1\n  dup4\n  iszero\n  iszero\n  mul\n  or\n  swap1\n  sstore\n  pop\n    /* \"contracts/Factory.sol\":1237:1245  setting_ */\n  dup1\n    /* \"contracts/Factory.sol\":1227:1245  setting = setting_ */\n  0xffffffffffffffffffffffffffffffffffffffff\n  and\n  0x80\n  dup2\n  0xffffffffffffffffffffffffffffffffffffffff\n  and\n  dup2\n  mstore\n  pop\n  pop\n    /* \"contracts/Factory.sol\":1190:1251  constructor(address setting_) {... */\n  pop\n    /* \"contracts/Factory.sol\":207:2496  contract Factory is Ownable, Pausable {... */\n  jump(tag_12)\n    /* \"@openzeppelin/contracts/utils/Context.sol\":586:682  function _msgSender() internal view virtual returns (address) {... */\ntag_9:\n    /* \"@openzeppelin/contracts/utils/Context.sol\":639:646  address */\n  0x00\n    /* \"@openzeppelin/contracts/utils/Context.sol\":665:675  msg.sender */\n  caller\n    /* \"@openzeppelin/contracts/utils/Context.sol\":658:675  return msg.sender */\n  swap1\n  pop\n    /* \"@openzeppelin/contracts/utils/Context.sol\":586:682  function _msgSender() internal view virtual returns (address) {... */\n  swap1\n  jump\t// out\n    /* \"#utility.yul\":88:205   */\ntag_15:\n    /* \"#utility.yul\":197:198   */\n  0x00\n    /* \"#utility.yul\":194:195   */\n  dup1\n    /* \"#utility.yul\":187:199   */\n  revert\n    /* \"#utility.yul\":334:460   */\ntag_17:\n    /* \"#utility.yul\":371:378   */\n  0x00\n    /* \"#utility.yul\":411:453   */\n  0xffffffffffffffffffffffffffffffffffffffff\n    /* \"#utility.yul\":404:409   */\n  dup3\n    /* \"#utility.yul\":400:454   */\n  and\n    /* \"#utility.yul\":389:454   */\n  swap1\n  pop\n    /* \"#utility.yul\":334:460   */\n  swap2\n  swap1\n  pop\n  jump\t// out\n    /* \"#utility.yul\":466:562   */\ntag_18:\n    /* \"#utility.yul\":503:510   */\n  0x00\n    /* \"#utility.yul\":532:556   */\n  tag_27\n    /* \"#utility.yul\":550:555   */\n  dup3\n    /* \"#utility.yul\":532:556   */\n  tag_17\n  jump\t// in\ntag_27:\n    /* \"#utility.yul\":521:556   */\n  swap1\n  pop\n    /* \"#utility.yul\":466:562   */\n  swap2\n  swap1\n  pop\n  jump\t// out\n    /* \"#utility.yul\":568:690   */\ntag_19:\n    /* \"#utility.yul\":641:665   */\n  tag_29\n    /* \"#utility.yul\":659:664   */\n  dup2\n    /* \"#utility.yul\":641:665   */\n  tag_18\n  jump\t// in\ntag_29:\n    /* \"#utility.yul\":634:639   */\n  dup2\n    /* \"#utility.yul\":631:666   */\n  eq\n    /* \"#utility.yul\":621:684   */\n  tag_30\n  jumpi\n    /* \"#utility.yul\":680:681   */\n  0x00\n    /* \"#utility.yul\":677:678   */\n  dup1\n    /* \"#utility.yul\":670:682   */\n  revert\n    /* \"#utility.yul\":621:684   */\ntag_30:\n    /* \"#utility.yul\":568:690   */\n  pop\n  jump\t// out\n    /* \"#utility.yul\":696:839   */\ntag_20:\n    /* \"#utility.yul\":753:758   */\n  0x00\n    /* \"#utility.yul\":784:790   */\n  dup2\n    /* \"#utility.yul\":778:791   */\n  mload\n    /* \"#utility.yul\":769:791   */\n  swap1\n  pop\n    /* \"#utility.yul\":800:833   */\n  tag_32\n    /* \"#utility.yul\":827:832   */\n  dup2\n    /* \"#utility.yul\":800:833   */\n  tag_19\n  jump\t// in\ntag_32:\n    /* \"#utility.yul\":696:839   */\n  swap3\n  swap2\n  pop\n  pop\n  jump\t// out\n    /* \"#utility.yul\":845:1196   */\ntag_3:\n    /* \"#utility.yul\":915:921   */\n  0x00\n    /* \"#utility.yul\":964:966   */\n  0x20\n    /* \"#utility.yul\":952:961   */\n  dup3\n    /* \"#utility.yul\":943:950   */\n  dup5\n    /* \"#utility.yul\":939:962   */\n  sub\n    /* \"#utility.yul\":935:967   */\n  slt\n    /* \"#utility.yul\":932:1051   */\n  iszero\n  tag_34\n  jumpi\n    /* \"#utility.yul\":970:1049   */\n  tag_35\n  tag_15\n  jump\t// in\ntag_35:\n    /* \"#utility.yul\":932:1051   */\ntag_34:\n    /* \"#utility.yul\":1090:1091   */\n  0x00\n    /* \"#utility.yul\":1115:1179   */\n  tag_36\n    /* \"#utility.yul\":1171:1178   */\n  dup5\n    /* \"#utility.yul\":1162:1168   */\n  dup3\n    /* \"#utility.yul\":1151:1160   */\n  dup6\n    /* \"#utility.yul\":1147:1169   */\n  add\n    /* \"#utility.yul\":1115:1179   */\n  tag_20\n  jump\t// in\ntag_36:\n    /* \"#utility.yul\":1105:1179   */\n  swap2\n  pop\n    /* \"#utility.yul\":1061:1189   */\n  pop\n    /* \"#utility.yul\":845:1196   */\n  swap3\n  swap2\n  pop\n  pop\n  jump\t// out\n    /* \"contracts/Factory.sol\":207:2496  contract Factory is Ownable, Pausable {... */\ntag_12:\n  mload(0x80)\n  codecopy(0x00, dataOffset(sub_0), dataSize(sub_0))\n  0x00\n  assignImmutable(\"0x18cf413bee22b08ac0c7195db4322442dbcd19e34df721debc25af8855e9fdf2\")\n  return(0x00, dataSize(sub_0))\nstop\n\nsub_0: assembly {\n        /* \"contracts/Factory.sol\":207:2496  contract Factory is Ownable, Pausable {... */\n      mstore(0x40, 0x80)\n      callvalue\n      dup1\n      iszero\n      tag_1\n      jumpi\n      0x00\n      dup1\n      revert\n    tag_1:\n      pop\n      jumpi(tag_2, lt(calldatasize, 0x04))\n      shr(0xe0, calldataload(0x00))\n      dup1\n      0x8456cb59\n      gt\n      tag_19\n      jumpi\n      dup1\n      0xd0def521\n      gt\n      tag_20\n      jumpi\n      dup1\n      0xd0def521\n      eq\n      tag_15\n      jumpi\n      dup1\n      0xd67620d6\n      eq\n      tag_16\n      jumpi\n      dup1\n      0xe425a4b3\n      eq\n      tag_17\n      jumpi\n      dup1\n      0xf2fde38b\n      eq\n      tag_18\n      jumpi\n      jump(tag_2)\n    tag_20:\n      dup1\n      0x8456cb59\n      eq\n      tag_11\n      jumpi\n      dup1\n      0x8da5cb5b\n      eq\n      tag_12\n      jumpi\n      dup1\n      0xadc20b1c\n      eq\n      tag_13\n      jumpi\n      dup1\n      0xc0c9ce30\n      eq\n      tag_14\n      jumpi\n      jump(tag_2)\n    tag_19:\n      dup1\n      0x5c975abb\n      gt\n      tag_21\n      jumpi\n      dup1\n      0x5c975abb\n      eq\n      tag_7\n      jumpi\n      dup1\n      0x5f43b6b3\n      eq\n      tag_8\n      jumpi\n      dup1\n      0x6f631e6a\n      eq\n      tag_9\n      jumpi\n      dup1\n      0x715018a6\n      eq\n      tag_10\n      jumpi\n      jump(tag_2)\n    tag_21:\n      dup1\n      0x3955d09a\n      eq\n      tag_3\n      jumpi\n      dup1\n      0x396a7a5e\n      eq\n      tag_4\n      jumpi\n      dup1\n      0x3f4ba83a\n      eq\n      tag_5\n      jumpi\n      dup1\n      0x4e9c1118\n      eq\n      tag_6\n      jumpi\n    tag_2:\n      0x00\n      dup1\n      revert\n        /* \"contracts/Factory.sol\":987:1037  mapping (address => bool) public routerTemplateMap */\n    tag_3:\n      tag_22\n      0x04\n      dup1\n      calldatasize\n      sub\n      dup2\n      add\n      swap1\n      tag_23\n      swap2\n      swap1\n      tag_24\n      jump\t// in\n    tag_23:\n      tag_25\n      jump\t// in\n    tag_22:\n      mload(0x40)\n      tag_26\n      swap2\n      swap1\n      tag_27\n      jump\t// in\n    tag_26:\n      mload(0x40)\n      dup1\n      swap2\n      sub\n      swap1\n      return\n        /* \"contracts/Factory.sol\":375:468  mapping(string => mapping(uint16 => mapping(address => bool))) public updataAddresCalibration */\n    tag_4:\n      tag_28\n      0x04\n      dup1\n      calldatasize\n      sub\n      dup2\n      add\n      swap1\n      tag_29\n      swap2\n      swap1\n      tag_30\n      jump\t// in\n    tag_29:\n      tag_31\n      jump\t// in\n    tag_28:\n      mload(0x40)\n      tag_32\n      swap2\n      swap1\n      tag_27\n      jump\t// in\n    tag_32:\n      mload(0x40)\n      dup1\n      swap2\n      sub\n      swap1\n      return\n        /* \"contracts/Factory.sol\":2430:2491  function unpause() external onlyOwner {... */\n    tag_5:\n      tag_33\n      tag_34\n      jump\t// in\n    tag_33:\n      stop\n        /* \"contracts/Factory.sol\":633:675  mapping(uint256 => address) public routers */\n    tag_6:\n      tag_35\n      0x04\n      dup1\n      calldatasize\n      sub\n      dup2\n      add\n      swap1\n      tag_36\n      swap2\n      swap1\n      tag_37\n      jump\t// in\n    tag_36:\n      tag_38\n      jump\t// in\n    tag_35:\n      mload(0x40)\n      tag_39\n      swap2\n      swap1\n      tag_40\n      jump\t// in\n    tag_39:\n      mload(0x40)\n      dup1\n      swap2\n      sub\n      swap1\n      return\n        /* \"contracts/utils/Pausable.sol\":1101:1187  function paused() public view virtual returns (bool) {... */\n    tag_7:\n      tag_41\n      tag_42\n      jump\t// in\n    tag_41:\n      mload(0x40)\n      tag_43\n      swap2\n      swap1\n      tag_27\n      jump\t// in\n    tag_43:\n      mload(0x40)\n      dup1\n      swap2\n      sub\n      swap1\n      return\n        /* \"contracts/Factory.sol\":2248:2361  function setLogic(address router, bool ratify) external onlyOwner {... */\n    tag_8:\n      tag_44\n      0x04\n      dup1\n      calldatasize\n      sub\n      dup2\n      add\n      swap1\n      tag_45\n      swap2\n      swap1\n      tag_46\n      jump\t// in\n    tag_45:\n      tag_47\n      jump\t// in\n    tag_44:\n      stop\n        /* \"contracts/Factory.sol\":525:556  uint256 public vaultRouterCount */\n    tag_9:\n      tag_48\n      tag_49\n      jump\t// in\n    tag_48:\n      mload(0x40)\n      tag_50\n      swap2\n      swap1\n      tag_51\n      jump\t// in\n    tag_50:\n      mload(0x40)\n      dup1\n      swap2\n      sub\n      swap1\n      return\n        /* \"@openzeppelin/contracts/access/Ownable.sol\":1700:1845  function renounceOwnership() public virtual onlyOwner {... */\n    tag_10:\n      tag_52\n      tag_53\n      jump\t// in\n    tag_52:\n      stop\n        /* \"contracts/Factory.sol\":2367:2424  function pause() external onlyOwner {... */\n    tag_11:\n      tag_54\n      tag_55\n      jump\t// in\n    tag_54:\n      stop\n        /* \"@openzeppelin/contracts/access/Ownable.sol\":1068:1153  function owner() public view virtual returns (address) {... */\n    tag_12:\n      tag_56\n      tag_57\n      jump\t// in\n    tag_56:\n      mload(0x40)\n      tag_58\n      swap2\n      swap1\n      tag_40\n      jump\t// in\n    tag_58:\n      mload(0x40)\n      dup1\n      swap2\n      sub\n      swap1\n      return\n        /* \"contracts/Factory.sol\":1044:1088  mapping (address => address) public lastMint */\n    tag_13:\n      tag_59\n      0x04\n      dup1\n      calldatasize\n      sub\n      dup2\n      add\n      swap1\n      tag_60\n      swap2\n      swap1\n      tag_24\n      jump\t// in\n    tag_60:\n      tag_61\n      jump\t// in\n    tag_59:\n      mload(0x40)\n      tag_62\n      swap2\n      swap1\n      tag_40\n      jump\t// in\n    tag_62:\n      mload(0x40)\n      dup1\n      swap2\n      sub\n      swap1\n      return\n        /* \"contracts/Factory.sol\":901:933  address public immutable setting */\n    tag_14:\n      tag_63\n      tag_64\n      jump\t// in\n    tag_63:\n      mload(0x40)\n      tag_65\n      swap2\n      swap1\n      tag_40\n      jump\t// in\n    tag_65:\n      mload(0x40)\n      dup1\n      swap2\n      sub\n      swap1\n      return\n        /* \"contracts/Factory.sol\":1484:2242  function mint(address routerTemplate,string memory name) external whenNotPaused returns(uint256) {... */\n    tag_15:\n      tag_66\n      0x04\n      dup1\n      calldatasize\n      sub\n      dup2\n      add\n      swap1\n      tag_67\n      swap2\n      swap1\n      tag_68\n      jump\t// in\n    tag_67:\n      tag_69\n      jump\t// in\n    tag_66:\n      mload(0x40)\n      tag_70\n      swap2\n      swap1\n      tag_51\n      jump\t// in\n    tag_70:\n      mload(0x40)\n      dup1\n      swap2\n      sub\n      swap1\n      return\n        /* \"contracts/Factory.sol\":1260:1478  function setUpdataAddresCalibration(string memory versionsName,uint16 versions,address updataTemplate,bool isOpen) external onlyOwner{... */\n    tag_16:\n      tag_71\n      0x04\n      dup1\n      calldatasize\n      sub\n      dup2\n      add\n      swap1\n      tag_72\n      swap2\n      swap1\n      tag_73\n      jump\t// in\n    tag_72:\n      tag_74\n      jump\t// in\n    tag_71:\n      stop\n        /* \"contracts/Factory.sol\":781:835  mapping(address => address) public calibrationTemplate */\n    tag_17:\n      tag_75\n      0x04\n      dup1\n      calldatasize\n      sub\n      dup2\n      add\n      swap1\n      tag_76\n      swap2\n      swap1\n      tag_24\n      jump\t// in\n    tag_76:\n      tag_77\n      jump\t// in\n    tag_75:\n      mload(0x40)\n      tag_78\n      swap2\n      swap1\n      tag_40\n      jump\t// in\n    tag_78:\n      mload(0x40)\n      dup1\n      swap2\n      sub\n      swap1\n      return\n        /* \"@openzeppelin/contracts/access/Ownable.sol\":1994:2234  function transferOwnership(address newOwner) public virtual onlyOwner {... */\n    tag_18:\n      tag_79\n      0x04\n      dup1\n      calldatasize\n      sub\n      dup2\n      add\n      swap1\n      tag_80\n      swap2\n      swap1\n      tag_24\n      jump\t// in\n    tag_80:\n      tag_81\n      jump\t// in\n    tag_79:\n      stop\n        /* \"contracts/Factory.sol\":987:1037  mapping (address => bool) public routerTemplateMap */\n    tag_25:\n      mstore(0x20, 0x05)\n      dup1\n      0x00\n      mstore\n      keccak256(0x00, 0x40)\n      0x00\n      swap2\n      pop\n      sload\n      swap1\n      0x0100\n      exp\n      swap1\n      div\n      0xff\n      and\n      dup2\n      jump\t// out\n        /* \"contracts/Factory.sol\":375:468  mapping(string => mapping(uint16 => mapping(address => bool))) public updataAddresCalibration */\n    tag_31:\n      0x01\n      dup4\n      dup1\n      mload\n      0x20\n      dup2\n      add\n      dup3\n      add\n      dup1\n      mload\n      dup5\n      dup3\n      mstore\n      0x20\n      dup4\n      add\n      0x20\n      dup6\n      add\n      keccak256\n      dup2\n      dup4\n      mstore\n      dup1\n      swap6\n      pop\n      pop\n      pop\n      pop\n      pop\n      pop\n      0x20\n      mstore\n      dup2\n      0x00\n      mstore\n      mstore(0x20, keccak256(0x00, 0x40))\n      dup1\n      0x00\n      mstore\n      keccak256(0x00, 0x40)\n      0x00\n      swap3\n      pop\n      swap3\n      pop\n      pop\n      swap1\n      sload\n      swap1\n      0x0100\n      exp\n      swap1\n      div\n      0xff\n      and\n      dup2\n      jump\t// out\n        /* \"contracts/Factory.sol\":2430:2491  function unpause() external onlyOwner {... */\n    tag_34:\n        /* \"@openzeppelin/contracts/access/Ownable.sol\":1291:1303  _msgSender() */\n      tag_83\n        /* \"@openzeppelin/contracts/access/Ownable.sol\":1291:1301  _msgSender */\n      tag_84\n        /* \"@openzeppelin/contracts/access/Ownable.sol\":1291:1303  _msgSender() */\n      jump\t// in\n    tag_83:\n        /* \"@openzeppelin/contracts/access/Ownable.sol\":1280:1303  owner() == _msgSender() */\n      0xffffffffffffffffffffffffffffffffffffffff\n      and\n        /* \"@openzeppelin/contracts/access/Ownable.sol\":1280:1287  owner() */\n      tag_85\n        /* \"@openzeppelin/contracts/access/Ownable.sol\":1280:1285  owner */\n      tag_57\n        /* \"@openzeppelin/contracts/access/Ownable.sol\":1280:1287  owner() */\n      jump\t// in\n    tag_85:\n        /* \"@openzeppelin/contracts/access/Ownable.sol\":1280:1303  owner() == _msgSender() */\n      0xffffffffffffffffffffffffffffffffffffffff\n      and\n      eq\n        /* \"@openzeppelin/contracts/access/Ownable.sol\":1272:1340  require(owner() == _msgSender(), \"Ownable: caller is not the owner\") */\n      tag_86\n      jumpi\n      mload(0x40)\n      0x08c379a000000000000000000000000000000000000000000000000000000000\n      dup2\n      mstore\n      0x04\n      add\n      tag_87\n      swap1\n      tag_88\n      jump\t// in\n    tag_87:\n      mload(0x40)\n      dup1\n      swap2\n      sub\n      swap1\n      revert\n    tag_86:\n        /* \"contracts/Factory.sol\":2475:2485  _unpause() */\n      tag_90\n        /* \"contracts/Factory.sol\":2475:2483  _unpause */\n      tag_91\n        /* \"contracts/Factory.sol\":2475:2485  _unpause() */\n      jump\t// in\n    tag_90:\n        /* \"contracts/Factory.sol\":2430:2491  function unpause() external onlyOwner {... */\n      jump\t// out\n        /* \"contracts/Factory.sol\":633:675  mapping(uint256 => address) public routers */\n    tag_38:\n      mstore(0x20, 0x03)\n      dup1\n      0x00\n      mstore\n      keccak256(0x00, 0x40)\n      0x00\n      swap2\n      pop\n      sload\n      swap1\n      0x0100\n      exp\n      swap1\n      div\n      0xffffffffffffffffffffffffffffffffffffffff\n      and\n      dup2\n      jump\t// out\n        /* \"contracts/utils/Pausable.sol\":1101:1187  function paused() public view virtual returns (bool) {... */\n    tag_42:\n        /* \"contracts/utils/Pausable.sol\":1148:1152  bool */\n      0x00\n        /* \"contracts/utils/Pausable.sol\":1172:1179  _paused */\n      dup1\n      0x14\n      swap1\n      sload\n      swap1\n      0x0100\n      exp\n      swap1\n      div\n      0xff\n      and\n        /* \"contracts/utils/Pausable.sol\":1165:1179  return _paused */\n      swap1\n      pop\n        /* \"contracts/utils/Pausable.sol\":1101:1187  function paused() public view virtual returns (bool) {... */\n      swap1\n      jump\t// out\n        /* \"contracts/Factory.sol\":2248:2361  function setLogic(address router, bool ratify) external onlyOwner {... */\n    tag_47:\n        /* \"@openzeppelin/contracts/access/Ownable.sol\":1291:1303  _msgSender() */\n      tag_94\n        /* \"@openzeppelin/contracts/access/Ownable.sol\":1291:1301  _msgSender */\n      tag_84\n        /* \"@openzeppelin/contracts/access/Ownable.sol\":1291:1303  _msgSender() */\n      jump\t// in\n    tag_94:\n        /* \"@openzeppelin/contracts/access/Ownable.sol\":1280:1303  owner() == _msgSender() */\n      0xffffffffffffffffffffffffffffffffffffffff\n      and\n        /* \"@openzeppelin/contracts/access/Ownable.sol\":1280:1287  owner() */\n      tag_95\n        /* \"@openzeppelin/contracts/access/Ownable.sol\":1280:1285  owner */\n      tag_57\n        /* \"@openzeppelin/contracts/access/Ownable.sol\":1280:1287  owner() */\n      jump\t// in\n    tag_95:\n        /* \"@openzeppelin/contracts/access/Ownable.sol\":1280:1303  owner() == _msgSender() */\n      0xffffffffffffffffffffffffffffffffffffffff\n      and\n      eq\n        /* \"@openzeppelin/contracts/access/Ownable.sol\":1272:1340  require(owner() == _msgSender(), \"Ownable: caller is not the owner\") */\n      tag_96\n      jumpi\n      mload(0x40)\n      0x08c379a000000000000000000000000000000000000000000000000000000000\n      dup2\n      mstore\n      0x04\n      add\n      tag_97\n      swap1\n      tag_88\n      jump\t// in\n    tag_97:\n      mload(0x40)\n      dup1\n      swap2\n      sub\n      swap1\n      revert\n    tag_96:\n        /* \"contracts/Factory.sol\":2349:2355  ratify */\n      dup1\n        /* \"contracts/Factory.sol\":2321:2338  routerTemplateMap */\n      0x05\n        /* \"contracts/Factory.sol\":2321:2346  routerTemplateMap[router] */\n      0x00\n        /* \"contracts/Factory.sol\":2339:2345  router */\n      dup5\n        /* \"contracts/Factory.sol\":2321:2346  routerTemplateMap[router] */\n      0xffffffffffffffffffffffffffffffffffffffff\n      and\n      0xffffffffffffffffffffffffffffffffffffffff\n      and\n      dup2\n      mstore\n      0x20\n      add\n      swap1\n      dup2\n      mstore\n      0x20\n      add\n      0x00\n      keccak256\n      0x00\n        /* \"contracts/Factory.sol\":2321:2355  routerTemplateMap[router] = ratify */\n      0x0100\n      exp\n      dup2\n      sload\n      dup2\n      0xff\n      mul\n      not\n      and\n      swap1\n      dup4\n      iszero\n      iszero\n      mul\n      or\n      swap1\n      sstore\n      pop\n        /* \"contracts/Factory.sol\":2248:2361  function setLogic(address router, bool ratify) external onlyOwner {... */\n      pop\n      pop\n      jump\t// out\n        /* \"contracts/Factory.sol\":525:556  uint256 public vaultRouterCount */\n    tag_49:\n      sload(0x02)\n      dup2\n      jump\t// out\n        /* \"@openzeppelin/contracts/access/Ownable.sol\":1700:1845  function renounceOwnership() public virtual onlyOwner {... */\n    tag_53:\n        /* \"@openzeppelin/contracts/access/Ownable.sol\":1291:1303  _msgSender() */\n      tag_100\n        /* \"@openzeppelin/contracts/access/Ownable.sol\":1291:1301  _msgSender */\n      tag_84\n        /* \"@openzeppelin/contracts/access/Ownable.sol\":1291:1303  _msgSender() */\n      jump\t// in\n    tag_100:\n        /* \"@openzeppelin/contracts/access/Ownable.sol\":1280:1303  owner() == _msgSender() */\n      0xffffffffffffffffffffffffffffffffffffffff\n      and\n        /* \"@openzeppelin/contracts/access/Ownable.sol\":1280:1287  owner() */\n      tag_101\n        /* \"@openzeppelin/contracts/access/Ownable.sol\":1280:1285  owner */\n      tag_57\n        /* \"@openzeppelin/contracts/access/Ownable.sol\":1280:1287  owner() */\n      jump\t// in\n    tag_101:\n        /* \"@openzeppelin/contracts/access/Ownable.sol\":1280:1303  owner() == _msgSender() */\n      0xffffffffffffffffffffffffffffffffffffffff\n      and\n      eq\n        /* \"@openzeppelin/contracts/access/Ownable.sol\":1272:1340  require(owner() == _msgSender(), \"Ownable: caller is not the owner\") */\n      tag_102\n      jumpi\n      mload(0x40)\n      0x08c379a000000000000000000000000000000000000000000000000000000000\n      dup2\n      mstore\n      0x04\n      add\n      tag_103\n      swap1\n      tag_88\n      jump\t// in\n    tag_103:\n      mload(0x40)\n      dup1\n      swap2\n      sub\n      swap1\n      revert\n    tag_102:\n        /* \"@openzeppelin/contracts/access/Ownable.sol\":1806:1807  0 */\n      0x00\n        /* \"@openzeppelin/contracts/access/Ownable.sol\":1769:1809  OwnershipTransferred(_owner, address(0)) */\n      0xffffffffffffffffffffffffffffffffffffffff\n      and\n        /* \"@openzeppelin/contracts/access/Ownable.sol\":1790:1796  _owner */\n      0x00\n      dup1\n      sload\n      swap1\n      0x0100\n      exp\n      swap1\n      div\n      0xffffffffffffffffffffffffffffffffffffffff\n      and\n        /* \"@openzeppelin/contracts/access/Ownable.sol\":1769:1809  OwnershipTransferred(_owner, address(0)) */\n      0xffffffffffffffffffffffffffffffffffffffff\n      and\n      0x8be0079c531659141344cd1fd0a4f28419497f9722a3daafe3b4186f6b6457e0\n      mload(0x40)\n      mload(0x40)\n      dup1\n      swap2\n      sub\n      swap1\n      log3\n        /* \"@openzeppelin/contracts/access/Ownable.sol\":1836:1837  0 */\n      0x00\n        /* \"@openzeppelin/contracts/access/Ownable.sol\":1819:1825  _owner */\n      dup1\n      0x00\n        /* \"@openzeppelin/contracts/access/Ownable.sol\":1819:1838  _owner = address(0) */\n      0x0100\n      exp\n      dup2\n      sload\n      dup2\n      0xffffffffffffffffffffffffffffffffffffffff\n      mul\n      not\n      and\n      swap1\n      dup4\n      0xffffffffffffffffffffffffffffffffffffffff\n      and\n      mul\n      or\n      swap1\n      sstore\n      pop\n        /* \"@openzeppelin/contracts/access/Ownable.sol\":1700:1845  function renounceOwnership() public virtual onlyOwner {... */\n      jump\t// out\n        /* \"contracts/Factory.sol\":2367:2424  function pause() external onlyOwner {... */\n    tag_55:\n        /* \"@openzeppelin/contracts/access/Ownable.sol\":1291:1303  _msgSender() */\n      tag_106\n        /* \"@openzeppelin/contracts/access/Ownable.sol\":1291:1301  _msgSender */\n      tag_84\n        /* \"@openzeppelin/contracts/access/Ownable.sol\":1291:1303  _msgSender() */\n      jump\t// in\n    tag_106:\n        /* \"@openzeppelin/contracts/access/Ownable.sol\":1280:1303  owner() == _msgSender() */\n      0xffffffffffffffffffffffffffffffffffffffff\n      and\n        /* \"@openzeppelin/contracts/access/Ownable.sol\":1280:1287  owner() */\n      tag_107\n        /* \"@openzeppelin/contracts/access/Ownable.sol\":1280:1285  owner */\n      tag_57\n        /* \"@openzeppelin/contracts/access/Ownable.sol\":1280:1287  owner() */\n      jump\t// in\n    tag_107:\n        /* \"@openzeppelin/contracts/access/Ownable.sol\":1280:1303  owner() == _msgSender() */\n      0xffffffffffffffffffffffffffffffffffffffff\n      and\n      eq\n        /* \"@openzeppelin/contracts/access/Ownable.sol\":1272:1340  require(owner() == _msgSender(), \"Ownable: caller is not the owner\") */\n      tag_108\n      jumpi\n      mload(0x40)\n      0x08c379a000000000000000000000000000000000000000000000000000000000\n      dup2\n      mstore\n      0x04\n      add\n      tag_109\n      swap1\n      tag_88\n      jump\t// in\n    tag_109:\n      mload(0x40)\n      dup1\n      swap2\n      sub\n      swap1\n      revert\n    tag_108:\n        /* \"contracts/Factory.sol\":2410:2418  _pause() */\n      tag_111\n        /* \"contracts/Factory.sol\":2410:2416  _pause */\n      tag_112\n        /* \"contracts/Factory.sol\":2410:2418  _pause() */\n      jump\t// in\n    tag_111:\n        /* \"contracts/Factory.sol\":2367:2424  function pause() external onlyOwner {... */\n      jump\t// out\n        /* \"@openzeppelin/contracts/access/Ownable.sol\":1068:1153  function owner() public view virtual returns (address) {... */\n    tag_57:\n        /* \"@openzeppelin/contracts/access/Ownable.sol\":1114:1121  address */\n      0x00\n        /* \"@openzeppelin/contracts/access/Ownable.sol\":1140:1146  _owner */\n      dup1\n      0x00\n      swap1\n      sload\n      swap1\n      0x0100\n      exp\n      swap1\n      div\n      0xffffffffffffffffffffffffffffffffffffffff\n      and\n        /* \"@openzeppelin/contracts/access/Ownable.sol\":1133:1146  return _owner */\n      swap1\n      pop\n        /* \"@openzeppelin/contracts/access/Ownable.sol\":1068:1153  function owner() public view virtual returns (address) {... */\n      swap1\n      jump\t// out\n        /* \"contracts/Factory.sol\":1044:1088  mapping (address => address) public lastMint */\n    tag_61:\n      mstore(0x20, 0x06)\n      dup1\n      0x00\n      mstore\n      keccak256(0x00, 0x40)\n      0x00\n      swap2\n      pop\n      sload\n      swap1\n      0x0100\n      exp\n      swap1\n      div\n      0xffffffffffffffffffffffffffffffffffffffff\n      and\n      dup2\n      jump\t// out\n        /* \"contracts/Factory.sol\":901:933  address public immutable setting */\n    tag_64:\n      immutable(\"0x18cf413bee22b08ac0c7195db4322442dbcd19e34df721debc25af8855e9fdf2\")\n      dup2\n      jump\t// out\n        /* \"contracts/Factory.sol\":1484:2242  function mint(address routerTemplate,string memory name) external whenNotPaused returns(uint256) {... */\n    tag_69:\n        /* \"contracts/Factory.sol\":1572:1579  uint256 */\n      0x00\n        /* \"contracts/utils/Pausable.sol\":1427:1435  paused() */\n      tag_115\n        /* \"contracts/utils/Pausable.sol\":1427:1433  paused */\n      tag_42\n        /* \"contracts/utils/Pausable.sol\":1427:1435  paused() */\n      jump\t// in\n    tag_115:\n        /* \"contracts/utils/Pausable.sol\":1426:1435  !paused() */\n      iszero\n        /* \"contracts/utils/Pausable.sol\":1418:1456  require(!paused(), \"Pausable: paused\") */\n      tag_116\n      jumpi\n      mload(0x40)\n      0x08c379a000000000000000000000000000000000000000000000000000000000\n      dup2\n      mstore\n      0x04\n      add\n      tag_117\n      swap1\n      tag_118\n      jump\t// in\n    tag_117:\n      mload(0x40)\n      dup1\n      swap2\n      sub\n      swap1\n      revert\n    tag_116:\n        /* \"contracts/Factory.sol\":1596:1613  routerTemplateMap */\n      0x05\n        /* \"contracts/Factory.sol\":1596:1629  routerTemplateMap[routerTemplate] */\n      0x00\n        /* \"contracts/Factory.sol\":1614:1628  routerTemplate */\n      dup5\n        /* \"contracts/Factory.sol\":1596:1629  routerTemplateMap[routerTemplate] */\n      0xffffffffffffffffffffffffffffffffffffffff\n      and\n      0xffffffffffffffffffffffffffffffffffffffff\n      and\n      dup2\n      mstore\n      0x20\n      add\n      swap1\n      dup2\n      mstore\n      0x20\n      add\n      0x00\n      keccak256\n      0x00\n      swap1\n      sload\n      swap1\n      0x0100\n      exp\n      swap1\n      div\n      0xff\n      and\n        /* \"contracts/Factory.sol\":1588:1671  require(routerTemplateMap[routerTemplate], \"Factory :: Incorrect template address\") */\n      tag_120\n      jumpi\n      mload(0x40)\n      0x08c379a000000000000000000000000000000000000000000000000000000000\n      dup2\n      mstore\n      0x04\n      add\n      tag_121\n      swap1\n      tag_122\n      jump\t// in\n    tag_121:\n      mload(0x40)\n      dup1\n      swap2\n      sub\n      swap1\n      revert\n    tag_120:\n        /* \"contracts/Factory.sol\":1680:1716  bytes memory _initializationCalldata */\n      0x00\n        /* \"contracts/Factory.sol\":1796:1806  msg.sender */\n      caller\n        /* \"contracts/Factory.sol\":1815:1822  setting */\n      immutable(\"0x18cf413bee22b08ac0c7195db4322442dbcd19e34df721debc25af8855e9fdf2\")\n        /* \"contracts/Factory.sol\":1831:1835  name */\n      dup5\n        /* \"contracts/Factory.sol\":1719:1842  abi.encodeWithSignature(... */\n      add(0x24, mload(0x40))\n      tag_123\n      swap4\n      swap3\n      swap2\n      swap1\n      tag_124\n      jump\t// in\n    tag_123:\n      mload(0x40)\n      0x20\n      dup2\n      dup4\n      sub\n      sub\n      dup2\n      mstore\n      swap1\n      0x40\n      mstore\n      and(not(0xffffffffffffffffffffffffffffffffffffffffffffffffffffffff), 0x4571e3a600000000000000000000000000000000000000000000000000000000)\n      0x20\n      dup3\n      add\n      dup1\n      mload\n      0xffffffffffffffffffffffffffffffffffffffffffffffffffffffff\n      dup4\n      dup2\n      dup4\n      and\n      or\n      dup4\n      mstore\n      pop\n      pop\n      pop\n      pop\n        /* \"contracts/Factory.sol\":1680:1842  bytes memory _initializationCalldata = abi.encodeWithSignature(... */\n      swap1\n      pop\n        /* \"contracts/Factory.sol\":1851:1865  address router */\n      0x00\n        /* \"contracts/Factory.sol\":1915:1929  routerTemplate */\n      dup5\n        /* \"contracts/Factory.sol\":1940:1963  _initializationCalldata */\n      dup3\n        /* \"contracts/Factory.sol\":1884:1972  new InitializedProxy(... */\n      mload(0x40)\n      tag_125\n      swap1\n      tag_126\n      jump\t// in\n    tag_125:\n      tag_127\n      swap3\n      swap2\n      swap1\n      tag_128\n      jump\t// in\n    tag_127:\n      mload(0x40)\n      dup1\n      swap2\n      sub\n      swap1\n      0x00\n      create\n      dup1\n      iszero\n      dup1\n      iszero\n      tag_129\n      jumpi\n      returndatasize\n      0x00\n      dup1\n      returndatacopy\n      revert(0x00, returndatasize)\n    tag_129:\n      pop\n        /* \"contracts/Factory.sol\":1851:1979  address router = address(... */\n      swap1\n      pop\n        /* \"contracts/Factory.sol\":2011:2025  routerTemplate */\n      dup5\n        /* \"contracts/Factory.sol\":1997:2045  Mint( router, routerTemplate , vaultRouterCount) */\n      0xffffffffffffffffffffffffffffffffffffffff\n      and\n        /* \"contracts/Factory.sol\":2003:2009  router */\n      dup2\n        /* \"contracts/Factory.sol\":1997:2045  Mint( router, routerTemplate , vaultRouterCount) */\n      0xffffffffffffffffffffffffffffffffffffffff\n      and\n      0xab8530f87dc9b59234c4623bf917212bb2536d647574c8e7e5da92c2ede0c9f8\n        /* \"contracts/Factory.sol\":2028:2044  vaultRouterCount */\n      sload(0x02)\n        /* \"contracts/Factory.sol\":1997:2045  Mint( router, routerTemplate , vaultRouterCount) */\n      mload(0x40)\n      tag_130\n      swap2\n      swap1\n      tag_51\n      jump\t// in\n    tag_130:\n      mload(0x40)\n      dup1\n      swap2\n      sub\n      swap1\n      log3\n        /* \"contracts/Factory.sol\":2082:2088  router */\n      dup1\n        /* \"contracts/Factory.sol\":2054:2061  routers */\n      0x03\n        /* \"contracts/Factory.sol\":2054:2079  routers[vaultRouterCount] */\n      0x00\n        /* \"contracts/Factory.sol\":2062:2078  vaultRouterCount */\n      sload(0x02)\n        /* \"contracts/Factory.sol\":2054:2079  routers[vaultRouterCount] */\n      dup2\n      mstore\n      0x20\n      add\n      swap1\n      dup2\n      mstore\n      0x20\n      add\n      0x00\n      keccak256\n      0x00\n        /* \"contracts/Factory.sol\":2054:2088  routers[vaultRouterCount] = router */\n      0x0100\n      exp\n      dup2\n      sload\n      dup2\n      0xffffffffffffffffffffffffffffffffffffffff\n      mul\n      not\n      and\n      swap1\n      dup4\n      0xffffffffffffffffffffffffffffffffffffffff\n      and\n      mul\n      or\n      swap1\n      sstore\n      pop\n        /* \"contracts/Factory.sol\":2118:2124  router */\n      dup1\n        /* \"contracts/Factory.sol\":2095:2103  lastMint */\n      0x06\n        /* \"contracts/Factory.sol\":2095:2115  lastMint[msg.sender] */\n      0x00\n        /* \"contracts/Factory.sol\":2104:2114  msg.sender */\n      caller\n        /* \"contracts/Factory.sol\":2095:2115  lastMint[msg.sender] */\n      0xffffffffffffffffffffffffffffffffffffffff\n      and\n      0xffffffffffffffffffffffffffffffffffffffff\n      and\n      dup2\n      mstore\n      0x20\n      add\n      swap1\n      dup2\n      mstore\n      0x20\n      add\n      0x00\n      keccak256\n      0x00\n        /* \"contracts/Factory.sol\":2095:2124  lastMint[msg.sender] = router */\n      0x0100\n      exp\n      dup2\n      sload\n      dup2\n      0xffffffffffffffffffffffffffffffffffffffff\n      mul\n      not\n      and\n      swap1\n      dup4\n      0xffffffffffffffffffffffffffffffffffffffff\n      and\n      mul\n      or\n      swap1\n      sstore\n      pop\n        /* \"contracts/Factory.sol\":2161:2175  routerTemplate */\n      dup5\n        /* \"contracts/Factory.sol\":2131:2150  calibrationTemplate */\n      0x04\n        /* \"contracts/Factory.sol\":2131:2158  calibrationTemplate[router] */\n      0x00\n        /* \"contracts/Factory.sol\":2151:2157  router */\n      dup4\n        /* \"contracts/Factory.sol\":2131:2158  calibrationTemplate[router] */\n      0xffffffffffffffffffffffffffffffffffffffff\n      and\n      0xffffffffffffffffffffffffffffffffffffffff\n      and\n      dup2\n      mstore\n      0x20\n      add\n      swap1\n      dup2\n      mstore\n      0x20\n      add\n      0x00\n      keccak256\n      0x00\n        /* \"contracts/Factory.sol\":2131:2175  calibrationTemplate[router] = routerTemplate */\n      0x0100\n      exp\n      dup2\n      sload\n      dup2\n      0xffffffffffffffffffffffffffffffffffffffff\n      mul\n      not\n      and\n      swap1\n      dup4\n      0xffffffffffffffffffffffffffffffffffffffff\n      and\n      mul\n      or\n      swap1\n      sstore\n      pop\n        /* \"contracts/Factory.sol\":2182:2198  vaultRouterCount */\n      0x02\n      0x00\n        /* \"contracts/Factory.sol\":2182:2200  vaultRouterCount++ */\n      dup2\n      sload\n      dup1\n      swap3\n      swap2\n      swap1\n      tag_131\n      swap1\n      tag_132\n      jump\t// in\n    tag_131:\n      swap2\n      swap1\n      pop\n      sstore\n      pop\n        /* \"contracts/Factory.sol\":2235:2236  1 */\n      0x01\n        /* \"contracts/Factory.sol\":2216:2232  vaultRouterCount */\n      sload(0x02)\n        /* \"contracts/Factory.sol\":2216:2236  vaultRouterCount - 1 */\n      tag_133\n      swap2\n      swap1\n      tag_134\n      jump\t// in\n    tag_133:\n        /* \"contracts/Factory.sol\":2209:2236  return vaultRouterCount - 1 */\n      swap3\n      pop\n      pop\n      pop\n        /* \"contracts/Factory.sol\":1484:2242  function mint(address routerTemplate,string memory name) external whenNotPaused returns(uint256) {... */\n      swap3\n      swap2\n      pop\n      pop\n      jump\t// out\n        /* \"contracts/Factory.sol\":1260:1478  function setUpdataAddresCalibration(string memory versionsName,uint16 versions,address updataTemplate,bool isOpen) external onlyOwner{... */\n    tag_74:\n        /* \"@openzeppelin/contracts/access/Ownable.sol\":1291:1303  _msgSender() */\n      tag_136\n        /* \"@openzeppelin/contracts/access/Ownable.sol\":1291:1301  _msgSender */\n      tag_84\n        /* \"@openzeppelin/contracts/access/Ownable.sol\":1291:1303  _msgSender() */\n      jump\t// in\n    tag_136:\n        /* \"@openzeppelin/contracts/access/Ownable.sol\":1280:1303  owner() == _msgSender() */\n      0xffffffffffffffffffffffffffffffffffffffff\n      and\n        /* \"@openzeppelin/contracts/access/Ownable.sol\":1280:1287  owner() */\n      tag_137\n        /* \"@openzeppelin/contracts/access/Ownable.sol\":1280:1285  owner */\n      tag_57\n        /* \"@openzeppelin/contracts/access/Ownable.sol\":1280:1287  owner() */\n      jump\t// in\n    tag_137:\n        /* \"@openzeppelin/contracts/access/Ownable.sol\":1280:1303  owner() == _msgSender() */\n      0xffffffffffffffffffffffffffffffffffffffff\n      and\n      eq\n        /* \"@openzeppelin/contracts/access/Ownable.sol\":1272:1340  require(owner() == _msgSender(), \"Ownable: caller is not the owner\") */\n      tag_138\n      jumpi\n      mload(0x40)\n      0x08c379a000000000000000000000000000000000000000000000000000000000\n      dup2\n      mstore\n      0x04\n      add\n      tag_139\n      swap1\n      tag_88\n      jump\t// in\n    tag_139:\n      mload(0x40)\n      dup1\n      swap2\n      sub\n      swap1\n      revert\n    tag_138:\n        /* \"contracts/Factory.sol\":1466:1472  isOpen */\n      dup1\n        /* \"contracts/Factory.sol\":1400:1423  updataAddresCalibration */\n      0x01\n        /* \"contracts/Factory.sol\":1424:1436  versionsName */\n      dup6\n        /* \"contracts/Factory.sol\":1400:1437  updataAddresCalibration[versionsName] */\n      mload(0x40)\n      tag_141\n      swap2\n      swap1\n      tag_142\n      jump\t// in\n    tag_141:\n      swap1\n      dup2\n      mstore\n      0x20\n      add\n      mload(0x40)\n      dup1\n      swap2\n      sub\n      swap1\n      keccak256\n        /* \"contracts/Factory.sol\":1400:1447  updataAddresCalibration[versionsName][versions] */\n      0x00\n        /* \"contracts/Factory.sol\":1438:1446  versions */\n      dup6\n        /* \"contracts/Factory.sol\":1400:1447  updataAddresCalibration[versionsName][versions] */\n      0xffff\n      and\n      0xffff\n      and\n      dup2\n      mstore\n      0x20\n      add\n      swap1\n      dup2\n      mstore\n      0x20\n      add\n      0x00\n      keccak256\n        /* \"contracts/Factory.sol\":1400:1463  updataAddresCalibration[versionsName][versions][updataTemplate] */\n      0x00\n        /* \"contracts/Factory.sol\":1448:1462  updataTemplate */\n      dup5\n        /* \"contracts/Factory.sol\":1400:1463  updataAddresCalibration[versionsName][versions][updataTemplate] */\n      0xffffffffffffffffffffffffffffffffffffffff\n      and\n      0xffffffffffffffffffffffffffffffffffffffff\n      and\n      dup2\n      mstore\n      0x20\n      add\n      swap1\n      dup2\n      mstore\n      0x20\n      add\n      0x00\n      keccak256\n      0x00\n        /* \"contracts/Factory.sol\":1400:1472  updataAddresCalibration[versionsName][versions][updataTemplate] = isOpen */\n      0x0100\n      exp\n      dup2\n      sload\n      dup2\n      0xff\n      mul\n      not\n      and\n      swap1\n      dup4\n      iszero\n      iszero\n      mul\n      or\n      swap1\n      sstore\n      pop\n        /* \"contracts/Factory.sol\":1260:1478  function setUpdataAddresCalibration(string memory versionsName,uint16 versions,address updataTemplate,bool isOpen) external onlyOwner{... */\n      pop\n      pop\n      pop\n      pop\n      jump\t// out\n        /* \"contracts/Factory.sol\":781:835  mapping(address => address) public calibrationTemplate */\n    tag_77:\n      mstore(0x20, 0x04)\n      dup1\n      0x00\n      mstore\n      keccak256(0x00, 0x40)\n      0x00\n      swap2\n      pop\n      sload\n      swap1\n      0x0100\n      exp\n      swap1\n      div\n      0xffffffffffffffffffffffffffffffffffffffff\n      and\n      dup2\n      jump\t// out\n        /* \"@openzeppelin/contracts/access/Ownable.sol\":1994:2234  function transferOwnership(address newOwner) public virtual onlyOwner {... */\n    tag_81:\n        /* \"@openzeppelin/contracts/access/Ownable.sol\":1291:1303  _msgSender() */\n      tag_144\n        /* \"@openzeppelin/contracts/access/Ownable.sol\":1291:1301  _msgSender */\n      tag_84\n        /* \"@openzeppelin/contracts/access/Ownable.sol\":1291:1303  _msgSender() */\n      jump\t// in\n    tag_144:\n        /* \"@openzeppelin/contracts/access/Ownable.sol\":1280:1303  owner() == _msgSender() */\n      0xffffffffffffffffffffffffffffffffffffffff\n      and\n        /* \"@openzeppelin/contracts/access/Ownable.sol\":1280:1287  owner() */\n      tag_145\n        /* \"@openzeppelin/contracts/access/Ownable.sol\":1280:1285  owner */\n      tag_57\n        /* \"@openzeppelin/contracts/access/Ownable.sol\":1280:1287  owner() */\n      jump\t// in\n    tag_145:\n        /* \"@openzeppelin/contracts/access/Ownable.sol\":1280:1303  owner() == _msgSender() */\n      0xffffffffffffffffffffffffffffffffffffffff\n      and\n      eq\n        /* \"@openzeppelin/contracts/access/Ownable.sol\":1272:1340  require(owner() == _msgSender(), \"Ownable: caller is not the owner\") */\n      tag_146\n      jumpi\n      mload(0x40)\n      0x08c379a000000000000000000000000000000000000000000000000000000000\n      dup2\n      mstore\n      0x04\n      add\n      tag_147\n      swap1\n      tag_88\n      jump\t// in\n    tag_147:\n      mload(0x40)\n      dup1\n      swap2\n      sub\n      swap1\n      revert\n    tag_146:\n        /* \"@openzeppelin/contracts/access/Ownable.sol\":2102:2103  0 */\n      0x00\n        /* \"@openzeppelin/contracts/access/Ownable.sol\":2082:2104  newOwner != address(0) */\n      0xffffffffffffffffffffffffffffffffffffffff\n      and\n        /* \"@openzeppelin/contracts/access/Ownable.sol\":2082:2090  newOwner */\n      dup2\n        /* \"@openzeppelin/contracts/access/Ownable.sol\":2082:2104  newOwner != address(0) */\n      0xffffffffffffffffffffffffffffffffffffffff\n      and\n      eq\n      iszero\n        /* \"@openzeppelin/contracts/access/Ownable.sol\":2074:2147  require(newOwner != address(0), \"Ownable: new owner is the zero address\") */\n      tag_149\n      jumpi\n      mload(0x40)\n      0x08c379a000000000000000000000000000000000000000000000000000000000\n      dup2\n      mstore\n      0x04\n      add\n      tag_150\n      swap1\n      tag_151\n      jump\t// in\n    tag_150:\n      mload(0x40)\n      dup1\n      swap2\n      sub\n      swap1\n      revert\n    tag_149:\n        /* \"@openzeppelin/contracts/access/Ownable.sol\":2191:2199  newOwner */\n      dup1\n        /* \"@openzeppelin/contracts/access/Ownable.sol\":2162:2200  OwnershipTransferred(_owner, newOwner) */\n      0xffffffffffffffffffffffffffffffffffffffff\n      and\n        /* \"@openzeppelin/contracts/access/Ownable.sol\":2183:2189  _owner */\n      0x00\n      dup1\n      sload\n      swap1\n      0x0100\n      exp\n      swap1\n      div\n      0xffffffffffffffffffffffffffffffffffffffff\n      and\n        /* \"@openzeppelin/contracts/access/Ownable.sol\":2162:2200  OwnershipTransferred(_owner, newOwner) */\n      0xffffffffffffffffffffffffffffffffffffffff\n      and\n      0x8be0079c531659141344cd1fd0a4f28419497f9722a3daafe3b4186f6b6457e0\n      mload(0x40)\n      mload(0x40)\n      dup1\n      swap2\n      sub\n      swap1\n      log3\n        /* \"@openzeppelin/contracts/access/Ownable.sol\":2219:2227  newOwner */\n      dup1\n        /* \"@openzeppelin/contracts/access/Ownable.sol\":2210:2216  _owner */\n      0x00\n      dup1\n        /* \"@openzeppelin/contracts/access/Ownable.sol\":2210:2227  _owner = newOwner */\n      0x0100\n      exp\n      dup2\n      sload\n      dup2\n      0xffffffffffffffffffffffffffffffffffffffff\n      mul\n      not\n      and\n      swap1\n      dup4\n      0xffffffffffffffffffffffffffffffffffffffff\n      and\n      mul\n      or\n      swap1\n      sstore\n      pop\n        /* \"@openzeppelin/contracts/access/Ownable.sol\":1994:2234  function transferOwnership(address newOwner) public virtual onlyOwner {... */\n      pop\n      jump\t// out\n        /* \"@openzeppelin/contracts/utils/Context.sol\":586:682  function _msgSender() internal view virtual returns (address) {... */\n    tag_84:\n        /* \"@openzeppelin/contracts/utils/Context.sol\":639:646  address */\n      0x00\n        /* \"@openzeppelin/contracts/utils/Context.sol\":665:675  msg.sender */\n      caller\n        /* \"@openzeppelin/contracts/utils/Context.sol\":658:675  return msg.sender */\n      swap1\n      pop\n        /* \"@openzeppelin/contracts/utils/Context.sol\":586:682  function _msgSender() internal view virtual returns (address) {... */\n      swap1\n      jump\t// out\n        /* \"contracts/utils/Pausable.sol\":2160:2280  function _unpause() internal virtual whenPaused {... */\n    tag_91:\n        /* \"contracts/utils/Pausable.sol\":1704:1712  paused() */\n      tag_154\n        /* \"contracts/utils/Pausable.sol\":1704:1710  paused */\n      tag_42\n        /* \"contracts/utils/Pausable.sol\":1704:1712  paused() */\n      jump\t// in\n    tag_154:\n        /* \"contracts/utils/Pausable.sol\":1696:1737  require(paused(), \"Pausable: not paused\") */\n      tag_155\n      jumpi\n      mload(0x40)\n      0x08c379a000000000000000000000000000000000000000000000000000000000\n      dup2\n      mstore\n      0x04\n      add\n      tag_156\n      swap1\n      tag_157\n      jump\t// in\n    tag_156:\n      mload(0x40)\n      dup1\n      swap2\n      sub\n      swap1\n      revert\n    tag_155:\n        /* \"contracts/utils/Pausable.sol\":2229:2234  false */\n      0x00\n        /* \"contracts/utils/Pausable.sol\":2219:2226  _paused */\n      dup1\n      0x14\n        /* \"contracts/utils/Pausable.sol\":2219:2234  _paused = false */\n      0x0100\n      exp\n      dup2\n      sload\n      dup2\n      0xff\n      mul\n      not\n      and\n      swap1\n      dup4\n      iszero\n      iszero\n      mul\n      or\n      swap1\n      sstore\n      pop\n        /* \"contracts/utils/Pausable.sol\":2250:2272  Unpaused(_msgSender()) */\n      0x5db9ee0a495bf2e6ff9c91a7834c1ba4fdd244a5e8aa4e537bd38aeae4b073aa\n        /* \"contracts/utils/Pausable.sol\":2259:2271  _msgSender() */\n      tag_159\n        /* \"contracts/utils/Pausable.sol\":2259:2269  _msgSender */\n      tag_84\n        /* \"contracts/utils/Pausable.sol\":2259:2271  _msgSender() */\n      jump\t// in\n    tag_159:\n        /* \"contracts/utils/Pausable.sol\":2250:2272  Unpaused(_msgSender()) */\n      mload(0x40)\n      tag_160\n      swap2\n      swap1\n      tag_40\n      jump\t// in\n    tag_160:\n      mload(0x40)\n      dup1\n      swap2\n      sub\n      swap1\n      log1\n        /* \"contracts/utils/Pausable.sol\":2160:2280  function _unpause() internal virtual whenPaused {... */\n      jump\t// out\n        /* \"contracts/utils/Pausable.sol\":1901:2019  function _pause() internal virtual whenNotPaused {... */\n    tag_112:\n        /* \"contracts/utils/Pausable.sol\":1427:1435  paused() */\n      tag_162\n        /* \"contracts/utils/Pausable.sol\":1427:1433  paused */\n      tag_42\n        /* \"contracts/utils/Pausable.sol\":1427:1435  paused() */\n      jump\t// in\n    tag_162:\n        /* \"contracts/utils/Pausable.sol\":1426:1435  !paused() */\n      iszero\n        /* \"contracts/utils/Pausable.sol\":1418:1456  require(!paused(), \"Pausable: paused\") */\n      tag_163\n      jumpi\n      mload(0x40)\n      0x08c379a000000000000000000000000000000000000000000000000000000000\n      dup2\n      mstore\n      0x04\n      add\n      tag_164\n      swap1\n      tag_118\n      jump\t// in\n    tag_164:\n      mload(0x40)\n      dup1\n      swap2\n      sub\n      swap1\n      revert\n    tag_163:\n        /* \"contracts/utils/Pausable.sol\":1971:1975  true */\n      0x01\n        /* \"contracts/utils/Pausable.sol\":1961:1968  _paused */\n      0x00\n      0x14\n        /* \"contracts/utils/Pausable.sol\":1961:1975  _paused = true */\n      0x0100\n      exp\n      dup2\n      sload\n      dup2\n      0xff\n      mul\n      not\n      and\n      swap1\n      dup4\n      iszero\n      iszero\n      mul\n      or\n      swap1\n      sstore\n      pop\n        /* \"contracts/utils/Pausable.sol\":1991:2011  Paused(_msgSender()) */\n      0x62e78cea01bee320cd4e420270b5ea74000d11b0c9f74754ebdbfc544b05a258\n        /* \"contracts/utils/Pausable.sol\":1998:2010  _msgSender() */\n      tag_166\n        /* \"contracts/utils/Pausable.sol\":1998:2008  _msgSender */\n      tag_84\n        /* \"contracts/utils/Pausable.sol\":1998:2010  _msgSender() */\n      jump\t// in\n    tag_166:\n        /* \"contracts/utils/Pausable.sol\":1991:2011  Paused(_msgSender()) */\n      mload(0x40)\n      tag_167\n      swap2\n      swap1\n      tag_40\n      jump\t// in\n    tag_167:\n      mload(0x40)\n      dup1\n      swap2\n      sub\n      swap1\n      log1\n        /* \"contracts/utils/Pausable.sol\":1901:2019  function _pause() internal virtual whenNotPaused {... */\n      jump\t// out\n    tag_126:\n      dataSize(sub_0)\n      dup1\n      dataOffset(sub_0)\n      dup4\n      codecopy\n      add\n      swap1\n      jump\t// out\n        /* \"#utility.yul\":7:82   */\n    tag_168:\n        /* \"#utility.yul\":40:46   */\n      0x00\n        /* \"#utility.yul\":73:75   */\n      0x40\n        /* \"#utility.yul\":67:76   */\n      mload\n        /* \"#utility.yul\":57:76   */\n      swap1\n      pop\n        /* \"#utility.yul\":7:82   */\n      swap1\n      jump\t// out\n        /* \"#utility.yul\":88:205   */\n    tag_169:\n        /* \"#utility.yul\":197:198   */\n      0x00\n        /* \"#utility.yul\":194:195   */\n      dup1\n        /* \"#utility.yul\":187:199   */\n      revert\n        /* \"#utility.yul\":211:328   */\n    tag_170:\n        /* \"#utility.yul\":320:321   */\n      0x00\n        /* \"#utility.yul\":317:318   */\n      dup1\n        /* \"#utility.yul\":310:322   */\n      revert\n        /* \"#utility.yul\":334:460   */\n    tag_171:\n        /* \"#utility.yul\":371:378   */\n      0x00\n        /* \"#utility.yul\":411:453   */\n      0xffffffffffffffffffffffffffffffffffffffff\n        /* \"#utility.yul\":404:409   */\n      dup3\n        /* \"#utility.yul\":400:454   */\n      and\n        /* \"#utility.yul\":389:454   */\n      swap1\n      pop\n        /* \"#utility.yul\":334:460   */\n      swap2\n      swap1\n      pop\n      jump\t// out\n        /* \"#utility.yul\":466:562   */\n    tag_172:\n        /* \"#utility.yul\":503:510   */\n      0x00\n        /* \"#utility.yul\":532:556   */\n      tag_223\n        /* \"#utility.yul\":550:555   */\n      dup3\n        /* \"#utility.yul\":532:556   */\n      tag_171\n      jump\t// in\n    tag_223:\n        /* \"#utility.yul\":521:556   */\n      swap1\n      pop\n        /* \"#utility.yul\":466:562   */\n      swap2\n      swap1\n      pop\n      jump\t// out\n        /* \"#utility.yul\":568:690   */\n    tag_173:\n        /* \"#utility.yul\":641:665   */\n      tag_225\n        /* \"#utility.yul\":659:664   */\n      dup2\n        /* \"#utility.yul\":641:665   */\n      tag_172\n      jump\t// in\n    tag_225:\n        /* \"#utility.yul\":634:639   */\n      dup2\n        /* \"#utility.yul\":631:666   */\n      eq\n        /* \"#utility.yul\":621:684   */\n      tag_226\n      jumpi\n        /* \"#utility.yul\":680:681   */\n      0x00\n        /* \"#utility.yul\":677:678   */\n      dup1\n        /* \"#utility.yul\":670:682   */\n      revert\n        /* \"#utility.yul\":621:684   */\n    tag_226:\n        /* \"#utility.yul\":568:690   */\n      pop\n      jump\t// out\n        /* \"#utility.yul\":696:835   */\n    tag_174:\n        /* \"#utility.yul\":742:747   */\n      0x00\n        /* \"#utility.yul\":780:786   */\n      dup2\n        /* \"#utility.yul\":767:787   */\n      calldataload\n        /* \"#utility.yul\":758:787   */\n      swap1\n      pop\n        /* \"#utility.yul\":796:829   */\n      tag_228\n        /* \"#utility.yul\":823:828   */\n      dup2\n        /* \"#utility.yul\":796:829   */\n      tag_173\n      jump\t// in\n    tag_228:\n        /* \"#utility.yul\":696:835   */\n      swap3\n      swap2\n      pop\n      pop\n      jump\t// out\n        /* \"#utility.yul\":841:1170   */\n    tag_24:\n        /* \"#utility.yul\":900:906   */\n      0x00\n        /* \"#utility.yul\":949:951   */\n      0x20\n        /* \"#utility.yul\":937:946   */\n      dup3\n        /* \"#utility.yul\":928:935   */\n      dup5\n        /* \"#utility.yul\":924:947   */\n      sub\n        /* \"#utility.yul\":920:952   */\n      slt\n        /* \"#utility.yul\":917:1036   */\n      iszero\n      tag_230\n      jumpi\n        /* \"#utility.yul\":955:1034   */\n      tag_231\n      tag_169\n      jump\t// in\n    tag_231:\n        /* \"#utility.yul\":917:1036   */\n    tag_230:\n        /* \"#utility.yul\":1075:1076   */\n      0x00\n        /* \"#utility.yul\":1100:1153   */\n      tag_232\n        /* \"#utility.yul\":1145:1152   */\n      dup5\n        /* \"#utility.yul\":1136:1142   */\n      dup3\n        /* \"#utility.yul\":1125:1134   */\n      dup6\n        /* \"#utility.yul\":1121:1143   */\n      add\n        /* \"#utility.yul\":1100:1153   */\n      tag_174\n      jump\t// in\n    tag_232:\n        /* \"#utility.yul\":1090:1153   */\n      swap2\n      pop\n        /* \"#utility.yul\":1046:1163   */\n      pop\n        /* \"#utility.yul\":841:1170   */\n      swap3\n      swap2\n      pop\n      pop\n      jump\t// out\n        /* \"#utility.yul\":1176:1266   */\n    tag_175:\n        /* \"#utility.yul\":1210:1217   */\n      0x00\n        /* \"#utility.yul\":1253:1258   */\n      dup2\n        /* \"#utility.yul\":1246:1259   */\n      iszero\n        /* \"#utility.yul\":1239:1260   */\n      iszero\n        /* \"#utility.yul\":1228:1260   */\n      swap1\n      pop\n        /* \"#utility.yul\":1176:1266   */\n      swap2\n      swap1\n      pop\n      jump\t// out\n        /* \"#utility.yul\":1272:1381   */\n    tag_176:\n        /* \"#utility.yul\":1353:1374   */\n      tag_235\n        /* \"#utility.yul\":1368:1373   */\n      dup2\n        /* \"#utility.yul\":1353:1374   */\n      tag_175\n      jump\t// in\n    tag_235:\n        /* \"#utility.yul\":1348:1351   */\n      dup3\n        /* \"#utility.yul\":1341:1375   */\n      mstore\n        /* \"#utility.yul\":1272:1381   */\n      pop\n      pop\n      jump\t// out\n        /* \"#utility.yul\":1387:1597   */\n    tag_27:\n        /* \"#utility.yul\":1474:1478   */\n      0x00\n        /* \"#utility.yul\":1512:1514   */\n      0x20\n        /* \"#utility.yul\":1501:1510   */\n      dup3\n        /* \"#utility.yul\":1497:1515   */\n      add\n        /* \"#utility.yul\":1489:1515   */\n      swap1\n      pop\n        /* \"#utility.yul\":1525:1590   */\n      tag_237\n        /* \"#utility.yul\":1587:1588   */\n      0x00\n        /* \"#utility.yul\":1576:1585   */\n      dup4\n        /* \"#utility.yul\":1572:1589   */\n      add\n        /* \"#utility.yul\":1563:1569   */\n      dup5\n        /* \"#utility.yul\":1525:1590   */\n      tag_176\n      jump\t// in\n    tag_237:\n        /* \"#utility.yul\":1387:1597   */\n      swap3\n      swap2\n      pop\n      pop\n      jump\t// out\n        /* \"#utility.yul\":1603:1720   */\n    tag_177:\n        /* \"#utility.yul\":1712:1713   */\n      0x00\n        /* \"#utility.yul\":1709:1710   */\n      dup1\n        /* \"#utility.yul\":1702:1714   */\n      revert\n        /* \"#utility.yul\":1726:1843   */\n    tag_178:\n        /* \"#utility.yul\":1835:1836   */\n      0x00\n        /* \"#utility.yul\":1832:1833   */\n      dup1\n        /* \"#utility.yul\":1825:1837   */\n      revert\n        /* \"#utility.yul\":1849:1951   */\n    tag_179:\n        /* \"#utility.yul\":1890:1896   */\n      0x00\n        /* \"#utility.yul\":1941:1943   */\n      0x1f\n        /* \"#utility.yul\":1937:1944   */\n      not\n        /* \"#utility.yul\":1932:1934   */\n      0x1f\n        /* \"#utility.yul\":1925:1930   */\n      dup4\n        /* \"#utility.yul\":1921:1935   */\n      add\n        /* \"#utility.yul\":1917:1945   */\n      and\n        /* \"#utility.yul\":1907:1945   */\n      swap1\n      pop\n        /* \"#utility.yul\":1849:1951   */\n      swap2\n      swap1\n      pop\n      jump\t// out\n        /* \"#utility.yul\":1957:2137   */\n    tag_180:\n        /* \"#utility.yul\":2005:2082   */\n      0x4e487b7100000000000000000000000000000000000000000000000000000000\n        /* \"#utility.yul\":2002:2003   */\n      0x00\n        /* \"#utility.yul\":1995:2083   */\n      mstore\n        /* \"#utility.yul\":2102:2106   */\n      0x41\n        /* \"#utility.yul\":2099:2100   */\n      0x04\n        /* \"#utility.yul\":2092:2107   */\n      mstore\n        /* \"#utility.yul\":2126:2130   */\n      0x24\n        /* \"#utility.yul\":2123:2124   */\n      0x00\n        /* \"#utility.yul\":2116:2131   */\n      revert\n        /* \"#utility.yul\":2143:2424   */\n    tag_181:\n        /* \"#utility.yul\":2226:2253   */\n      tag_243\n        /* \"#utility.yul\":2248:2252   */\n      dup3\n        /* \"#utility.yul\":2226:2253   */\n      tag_179\n      jump\t// in\n    tag_243:\n        /* \"#utility.yul\":2218:2224   */\n      dup2\n        /* \"#utility.yul\":2214:2254   */\n      add\n        /* \"#utility.yul\":2356:2362   */\n      dup2\n        /* \"#utility.yul\":2344:2354   */\n      dup2\n        /* \"#utility.yul\":2341:2363   */\n      lt\n        /* \"#utility.yul\":2320:2338   */\n      0xffffffffffffffff\n        /* \"#utility.yul\":2308:2318   */\n      dup3\n        /* \"#utility.yul\":2305:2339   */\n      gt\n        /* \"#utility.yul\":2302:2364   */\n      or\n        /* \"#utility.yul\":2299:2387   */\n      iszero\n      tag_244\n      jumpi\n        /* \"#utility.yul\":2367:2385   */\n      tag_245\n      tag_180\n      jump\t// in\n    tag_245:\n        /* \"#utility.yul\":2299:2387   */\n    tag_244:\n        /* \"#utility.yul\":2407:2417   */\n      dup1\n        /* \"#utility.yul\":2403:2405   */\n      0x40\n        /* \"#utility.yul\":2396:2418   */\n      mstore\n        /* \"#utility.yul\":2186:2424   */\n      pop\n        /* \"#utility.yul\":2143:2424   */\n      pop\n      pop\n      jump\t// out\n        /* \"#utility.yul\":2430:2559   */\n    tag_182:\n        /* \"#utility.yul\":2464:2470   */\n      0x00\n        /* \"#utility.yul\":2491:2511   */\n      tag_247\n      tag_168\n      jump\t// in\n    tag_247:\n        /* \"#utility.yul\":2481:2511   */\n      swap1\n      pop\n        /* \"#utility.yul\":2520:2553   */\n      tag_248\n        /* \"#utility.yul\":2548:2552   */\n      dup3\n        /* \"#utility.yul\":2540:2546   */\n      dup3\n        /* \"#utility.yul\":2520:2553   */\n      tag_181\n      jump\t// in\n    tag_248:\n        /* \"#utility.yul\":2430:2559   */\n      swap2\n      swap1\n      pop\n      jump\t// out\n        /* \"#utility.yul\":2565:2873   */\n    tag_183:\n        /* \"#utility.yul\":2627:2631   */\n      0x00\n        /* \"#utility.yul\":2717:2735   */\n      0xffffffffffffffff\n        /* \"#utility.yul\":2709:2715   */\n      dup3\n        /* \"#utility.yul\":2706:2736   */\n      gt\n        /* \"#utility.yul\":2703:2759   */\n      iszero\n      tag_250\n      jumpi\n        /* \"#utility.yul\":2739:2757   */\n      tag_251\n      tag_180\n      jump\t// in\n    tag_251:\n        /* \"#utility.yul\":2703:2759   */\n    tag_250:\n        /* \"#utility.yul\":2777:2806   */\n      tag_252\n        /* \"#utility.yul\":2799:2805   */\n      dup3\n        /* \"#utility.yul\":2777:2806   */\n      tag_179\n      jump\t// in\n    tag_252:\n        /* \"#utility.yul\":2769:2806   */\n      swap1\n      pop\n        /* \"#utility.yul\":2861:2865   */\n      0x20\n        /* \"#utility.yul\":2855:2859   */\n      dup2\n        /* \"#utility.yul\":2851:2866   */\n      add\n        /* \"#utility.yul\":2843:2866   */\n      swap1\n      pop\n        /* \"#utility.yul\":2565:2873   */\n      swap2\n      swap1\n      pop\n      jump\t// out\n        /* \"#utility.yul\":2879:3033   */\n    tag_184:\n        /* \"#utility.yul\":2963:2969   */\n      dup3\n        /* \"#utility.yul\":2958:2961   */\n      dup2\n        /* \"#utility.yul\":2953:2956   */\n      dup4\n        /* \"#utility.yul\":2940:2970   */\n      calldatacopy\n        /* \"#utility.yul\":3025:3026   */\n      0x00\n        /* \"#utility.yul\":3016:3022   */\n      dup4\n        /* \"#utility.yul\":3011:3014   */\n      dup4\n        /* \"#utility.yul\":3007:3023   */\n      add\n        /* \"#utility.yul\":3000:3027   */\n      mstore\n        /* \"#utility.yul\":2879:3033   */\n      pop\n      pop\n      pop\n      jump\t// out\n        /* \"#utility.yul\":3039:3451   */\n    tag_185:\n        /* \"#utility.yul\":3117:3122   */\n      0x00\n        /* \"#utility.yul\":3142:3208   */\n      tag_255\n        /* \"#utility.yul\":3158:3207   */\n      tag_256\n        /* \"#utility.yul\":3200:3206   */\n      dup5\n        /* \"#utility.yul\":3158:3207   */\n      tag_183\n      jump\t// in\n    tag_256:\n        /* \"#utility.yul\":3142:3208   */\n      tag_182\n      jump\t// in\n    tag_255:\n        /* \"#utility.yul\":3133:3208   */\n      swap1\n      pop\n        /* \"#utility.yul\":3231:3237   */\n      dup3\n        /* \"#utility.yul\":3224:3229   */\n      dup2\n        /* \"#utility.yul\":3217:3238   */\n      mstore\n        /* \"#utility.yul\":3269:3273   */\n      0x20\n        /* \"#utility.yul\":3262:3267   */\n      dup2\n        /* \"#utility.yul\":3258:3274   */\n      add\n        /* \"#utility.yul\":3307:3310   */\n      dup5\n        /* \"#utility.yul\":3298:3304   */\n      dup5\n        /* \"#utility.yul\":3293:3296   */\n      dup5\n        /* \"#utility.yul\":3289:3305   */\n      add\n        /* \"#utility.yul\":3286:3311   */\n      gt\n        /* \"#utility.yul\":3283:3395   */\n      iszero\n      tag_257\n      jumpi\n        /* \"#utility.yul\":3314:3393   */\n      tag_258\n      tag_178\n      jump\t// in\n    tag_258:\n        /* \"#utility.yul\":3283:3395   */\n    tag_257:\n        /* \"#utility.yul\":3404:3445   */\n      tag_259\n        /* \"#utility.yul\":3438:3444   */\n      dup5\n        /* \"#utility.yul\":3433:3436   */\n      dup3\n        /* \"#utility.yul\":3428:3431   */\n      dup6\n        /* \"#utility.yul\":3404:3445   */\n      tag_184\n      jump\t// in\n    tag_259:\n        /* \"#utility.yul\":3123:3451   */\n      pop\n        /* \"#utility.yul\":3039:3451   */\n      swap4\n      swap3\n      pop\n      pop\n      pop\n      jump\t// out\n        /* \"#utility.yul\":3471:3811   */\n    tag_186:\n        /* \"#utility.yul\":3527:3532   */\n      0x00\n        /* \"#utility.yul\":3576:3579   */\n      dup3\n        /* \"#utility.yul\":3569:3573   */\n      0x1f\n        /* \"#utility.yul\":3561:3567   */\n      dup4\n        /* \"#utility.yul\":3557:3574   */\n      add\n        /* \"#utility.yul\":3553:3580   */\n      slt\n        /* \"#utility.yul\":3543:3665   */\n      tag_261\n      jumpi\n        /* \"#utility.yul\":3584:3663   */\n      tag_262\n      tag_177\n      jump\t// in\n    tag_262:\n        /* \"#utility.yul\":3543:3665   */\n    tag_261:\n        /* \"#utility.yul\":3701:3707   */\n      dup2\n        /* \"#utility.yul\":3688:3708   */\n      calldataload\n        /* \"#utility.yul\":3726:3805   */\n      tag_263\n        /* \"#utility.yul\":3801:3804   */\n      dup5\n        /* \"#utility.yul\":3793:3799   */\n      dup3\n        /* \"#utility.yul\":3786:3790   */\n      0x20\n        /* \"#utility.yul\":3778:3784   */\n      dup7\n        /* \"#utility.yul\":3774:3791   */\n      add\n        /* \"#utility.yul\":3726:3805   */\n      tag_185\n      jump\t// in\n    tag_263:\n        /* \"#utility.yul\":3717:3805   */\n      swap2\n      pop\n        /* \"#utility.yul\":3533:3811   */\n      pop\n        /* \"#utility.yul\":3471:3811   */\n      swap3\n      swap2\n      pop\n      pop\n      jump\t// out\n        /* \"#utility.yul\":3817:3906   */\n    tag_187:\n        /* \"#utility.yul\":3853:3860   */\n      0x00\n        /* \"#utility.yul\":3893:3899   */\n      0xffff\n        /* \"#utility.yul\":3886:3891   */\n      dup3\n        /* \"#utility.yul\":3882:3900   */\n      and\n        /* \"#utility.yul\":3871:3900   */\n      swap1\n      pop\n        /* \"#utility.yul\":3817:3906   */\n      swap2\n      swap1\n      pop\n      jump\t// out\n        /* \"#utility.yul\":3912:4032   */\n    tag_188:\n        /* \"#utility.yul\":3984:4007   */\n      tag_266\n        /* \"#utility.yul\":4001:4006   */\n      dup2\n        /* \"#utility.yul\":3984:4007   */\n      tag_187\n      jump\t// in\n    tag_266:\n        /* \"#utility.yul\":3977:3982   */\n      dup2\n        /* \"#utility.yul\":3974:4008   */\n      eq\n        /* \"#utility.yul\":3964:4026   */\n      tag_267\n      jumpi\n        /* \"#utility.yul\":4022:4023   */\n      0x00\n        /* \"#utility.yul\":4019:4020   */\n      dup1\n        /* \"#utility.yul\":4012:4024   */\n      revert\n        /* \"#utility.yul\":3964:4026   */\n    tag_267:\n        /* \"#utility.yul\":3912:4032   */\n      pop\n      jump\t// out\n        /* \"#utility.yul\":4038:4175   */\n    tag_189:\n        /* \"#utility.yul\":4083:4088   */\n      0x00\n        /* \"#utility.yul\":4121:4127   */\n      dup2\n        /* \"#utility.yul\":4108:4128   */\n      calldataload\n        /* \"#utility.yul\":4099:4128   */\n      swap1\n      pop\n        /* \"#utility.yul\":4137:4169   */\n      tag_269\n        /* \"#utility.yul\":4163:4168   */\n      dup2\n        /* \"#utility.yul\":4137:4169   */\n      tag_188\n      jump\t// in\n    tag_269:\n        /* \"#utility.yul\":4038:4175   */\n      swap3\n      swap2\n      pop\n      pop\n      jump\t// out\n        /* \"#utility.yul\":4181:4978   */\n    tag_30:\n        /* \"#utility.yul\":4267:4273   */\n      0x00\n        /* \"#utility.yul\":4275:4281   */\n      dup1\n        /* \"#utility.yul\":4283:4289   */\n      0x00\n        /* \"#utility.yul\":4332:4334   */\n      0x60\n        /* \"#utility.yul\":4320:4329   */\n      dup5\n        /* \"#utility.yul\":4311:4318   */\n      dup7\n        /* \"#utility.yul\":4307:4330   */\n      sub\n        /* \"#utility.yul\":4303:4335   */\n      slt\n        /* \"#utility.yul\":4300:4419   */\n      iszero\n      tag_271\n      jumpi\n        /* \"#utility.yul\":4338:4417   */\n      tag_272\n      tag_169\n      jump\t// in\n    tag_272:\n        /* \"#utility.yul\":4300:4419   */\n    tag_271:\n        /* \"#utility.yul\":4486:4487   */\n      0x00\n        /* \"#utility.yul\":4475:4484   */\n      dup5\n        /* \"#utility.yul\":4471:4488   */\n      add\n        /* \"#utility.yul\":4458:4489   */\n      calldataload\n        /* \"#utility.yul\":4516:4534   */\n      0xffffffffffffffff\n        /* \"#utility.yul\":4508:4514   */\n      dup2\n        /* \"#utility.yul\":4505:4535   */\n      gt\n        /* \"#utility.yul\":4502:4619   */\n      iszero\n      tag_273\n      jumpi\n        /* \"#utility.yul\":4538:4617   */\n      tag_274\n      tag_170\n      jump\t// in\n    tag_274:\n        /* \"#utility.yul\":4502:4619   */\n    tag_273:\n        /* \"#utility.yul\":4643:4706   */\n      tag_275\n        /* \"#utility.yul\":4698:4705   */\n      dup7\n        /* \"#utility.yul\":4689:4695   */\n      dup3\n        /* \"#utility.yul\":4678:4687   */\n      dup8\n        /* \"#utility.yul\":4674:4696   */\n      add\n        /* \"#utility.yul\":4643:4706   */\n      tag_186\n      jump\t// in\n    tag_275:\n        /* \"#utility.yul\":4633:4706   */\n      swap4\n      pop\n        /* \"#utility.yul\":4429:4716   */\n      pop\n        /* \"#utility.yul\":4755:4757   */\n      0x20\n        /* \"#utility.yul\":4781:4833   */\n      tag_276\n        /* \"#utility.yul\":4825:4832   */\n      dup7\n        /* \"#utility.yul\":4816:4822   */\n      dup3\n        /* \"#utility.yul\":4805:4814   */\n      dup8\n        /* \"#utility.yul\":4801:4823   */\n      add\n        /* \"#utility.yul\":4781:4833   */\n      tag_189\n      jump\t// in\n    tag_276:\n        /* \"#utility.yul\":4771:4833   */\n      swap3\n      pop\n        /* \"#utility.yul\":4726:4843   */\n      pop\n        /* \"#utility.yul\":4882:4884   */\n      0x40\n        /* \"#utility.yul\":4908:4961   */\n      tag_277\n        /* \"#utility.yul\":4953:4960   */\n      dup7\n        /* \"#utility.yul\":4944:4950   */\n      dup3\n        /* \"#utility.yul\":4933:4942   */\n      dup8\n        /* \"#utility.yul\":4929:4951   */\n      add\n        /* \"#utility.yul\":4908:4961   */\n      tag_174\n      jump\t// in\n    tag_277:\n        /* \"#utility.yul\":4898:4961   */\n      swap2\n      pop\n        /* \"#utility.yul\":4853:4971   */\n      pop\n        /* \"#utility.yul\":4181:4978   */\n      swap3\n      pop\n      swap3\n      pop\n      swap3\n      jump\t// out\n        /* \"#utility.yul\":4984:5061   */\n    tag_190:\n        /* \"#utility.yul\":5021:5028   */\n      0x00\n        /* \"#utility.yul\":5050:5055   */\n      dup2\n        /* \"#utility.yul\":5039:5055   */\n      swap1\n      pop\n        /* \"#utility.yul\":4984:5061   */\n      swap2\n      swap1\n      pop\n      jump\t// out\n        /* \"#utility.yul\":5067:5189   */\n    tag_191:\n        /* \"#utility.yul\":5140:5164   */\n      tag_280\n        /* \"#utility.yul\":5158:5163   */\n      dup2\n        /* \"#utility.yul\":5140:5164   */\n      tag_190\n      jump\t// in\n    tag_280:\n        /* \"#utility.yul\":5133:5138   */\n      dup2\n        /* \"#utility.yul\":5130:5165   */\n      eq\n        /* \"#utility.yul\":5120:5183   */\n      tag_281\n      jumpi\n        /* \"#utility.yul\":5179:5180   */\n      0x00\n        /* \"#utility.yul\":5176:5177   */\n      dup1\n        /* \"#utility.yul\":5169:5181   */\n      revert\n        /* \"#utility.yul\":5120:5183   */\n    tag_281:\n        /* \"#utility.yul\":5067:5189   */\n      pop\n      jump\t// out\n        /* \"#utility.yul\":5195:5334   */\n    tag_192:\n        /* \"#utility.yul\":5241:5246   */\n      0x00\n        /* \"#utility.yul\":5279:5285   */\n      dup2\n        /* \"#utility.yul\":5266:5286   */\n      calldataload\n        /* \"#utility.yul\":5257:5286   */\n      swap1\n      pop\n        /* \"#utility.yul\":5295:5328   */\n      tag_283\n        /* \"#utility.yul\":5322:5327   */\n      dup2\n        /* \"#utility.yul\":5295:5328   */\n      tag_191\n      jump\t// in\n    tag_283:\n        /* \"#utility.yul\":5195:5334   */\n      swap3\n      swap2\n      pop\n      pop\n      jump\t// out\n        /* \"#utility.yul\":5340:5669   */\n    tag_37:\n        /* \"#utility.yul\":5399:5405   */\n      0x00\n        /* \"#utility.yul\":5448:5450   */\n      0x20\n        /* \"#utility.yul\":5436:5445   */\n      dup3\n        /* \"#utility.yul\":5427:5434   */\n      dup5\n        /* \"#utility.yul\":5423:5446   */\n      sub\n        /* \"#utility.yul\":5419:5451   */\n      slt\n        /* \"#utility.yul\":5416:5535   */\n      iszero\n      tag_285\n      jumpi\n        /* \"#utility.yul\":5454:5533   */\n      tag_286\n      tag_169\n      jump\t// in\n    tag_286:\n        /* \"#utility.yul\":5416:5535   */\n    tag_285:\n        /* \"#utility.yul\":5574:5575   */\n      0x00\n        /* \"#utility.yul\":5599:5652   */\n      tag_287\n        /* \"#utility.yul\":5644:5651   */\n      dup5\n        /* \"#utility.yul\":5635:5641   */\n      dup3\n        /* \"#utility.yul\":5624:5633   */\n      dup6\n        /* \"#utility.yul\":5620:5642   */\n      add\n        /* \"#utility.yul\":5599:5652   */\n      tag_192\n      jump\t// in\n    tag_287:\n        /* \"#utility.yul\":5589:5652   */\n      swap2\n      pop\n        /* \"#utility.yul\":5545:5662   */\n      pop\n        /* \"#utility.yul\":5340:5669   */\n      swap3\n      swap2\n      pop\n      pop\n      jump\t// out\n        /* \"#utility.yul\":5675:5793   */\n    tag_193:\n        /* \"#utility.yul\":5762:5786   */\n      tag_289\n        /* \"#utility.yul\":5780:5785   */\n      dup2\n        /* \"#utility.yul\":5762:5786   */\n      tag_172\n      jump\t// in\n    tag_289:\n        /* \"#utility.yul\":5757:5760   */\n      dup3\n        /* \"#utility.yul\":5750:5787   */\n      mstore\n        /* \"#utility.yul\":5675:5793   */\n      pop\n      pop\n      jump\t// out\n        /* \"#utility.yul\":5799:6021   */\n    tag_40:\n        /* \"#utility.yul\":5892:5896   */\n      0x00\n        /* \"#utility.yul\":5930:5932   */\n      0x20\n        /* \"#utility.yul\":5919:5928   */\n      dup3\n        /* \"#utility.yul\":5915:5933   */\n      add\n        /* \"#utility.yul\":5907:5933   */\n      swap1\n      pop\n        /* \"#utility.yul\":5943:6014   */\n      tag_291\n        /* \"#utility.yul\":6011:6012   */\n      0x00\n        /* \"#utility.yul\":6000:6009   */\n      dup4\n        /* \"#utility.yul\":5996:6013   */\n      add\n        /* \"#utility.yul\":5987:5993   */\n      dup5\n        /* \"#utility.yul\":5943:6014   */\n      tag_193\n      jump\t// in\n    tag_291:\n        /* \"#utility.yul\":5799:6021   */\n      swap3\n      swap2\n      pop\n      pop\n      jump\t// out\n        /* \"#utility.yul\":6027:6143   */\n    tag_194:\n        /* \"#utility.yul\":6097:6118   */\n      tag_293\n        /* \"#utility.yul\":6112:6117   */\n      dup2\n        /* \"#utility.yul\":6097:6118   */\n      tag_175\n      jump\t// in\n    tag_293:\n        /* \"#utility.yul\":6090:6095   */\n      dup2\n        /* \"#utility.yul\":6087:6119   */\n      eq\n        /* \"#utility.yul\":6077:6137   */\n      tag_294\n      jumpi\n        /* \"#utility.yul\":6133:6134   */\n      0x00\n        /* \"#utility.yul\":6130:6131   */\n      dup1\n        /* \"#utility.yul\":6123:6135   */\n      revert\n        /* \"#utility.yul\":6077:6137   */\n    tag_294:\n        /* \"#utility.yul\":6027:6143   */\n      pop\n      jump\t// out\n        /* \"#utility.yul\":6149:6282   */\n    tag_195:\n        /* \"#utility.yul\":6192:6197   */\n      0x00\n        /* \"#utility.yul\":6230:6236   */\n      dup2\n        /* \"#utility.yul\":6217:6237   */\n      calldataload\n        /* \"#utility.yul\":6208:6237   */\n      swap1\n      pop\n        /* \"#utility.yul\":6246:6276   */\n      tag_296\n        /* \"#utility.yul\":6270:6275   */\n      dup2\n        /* \"#utility.yul\":6246:6276   */\n      tag_194\n      jump\t// in\n    tag_296:\n        /* \"#utility.yul\":6149:6282   */\n      swap3\n      swap2\n      pop\n      pop\n      jump\t// out\n        /* \"#utility.yul\":6288:6756   */\n    tag_46:\n        /* \"#utility.yul\":6353:6359   */\n      0x00\n        /* \"#utility.yul\":6361:6367   */\n      dup1\n        /* \"#utility.yul\":6410:6412   */\n      0x40\n        /* \"#utility.yul\":6398:6407   */\n      dup4\n        /* \"#utility.yul\":6389:6396   */\n      dup6\n        /* \"#utility.yul\":6385:6408   */\n      sub\n        /* \"#utility.yul\":6381:6413   */\n      slt\n        /* \"#utility.yul\":6378:6497   */\n      iszero\n      tag_298\n      jumpi\n        /* \"#utility.yul\":6416:6495   */\n      tag_299\n      tag_169\n      jump\t// in\n    tag_299:\n        /* \"#utility.yul\":6378:6497   */\n    tag_298:\n        /* \"#utility.yul\":6536:6537   */\n      0x00\n        /* \"#utility.yul\":6561:6614   */\n      tag_300\n        /* \"#utility.yul\":6606:6613   */\n      dup6\n        /* \"#utility.yul\":6597:6603   */\n      dup3\n        /* \"#utility.yul\":6586:6595   */\n      dup7\n        /* \"#utility.yul\":6582:6604   */\n      add\n        /* \"#utility.yul\":6561:6614   */\n      tag_174\n      jump\t// in\n    tag_300:\n        /* \"#utility.yul\":6551:6614   */\n      swap3\n      pop\n        /* \"#utility.yul\":6507:6624   */\n      pop\n        /* \"#utility.yul\":6663:6665   */\n      0x20\n        /* \"#utility.yul\":6689:6739   */\n      tag_301\n        /* \"#utility.yul\":6731:6738   */\n      dup6\n        /* \"#utility.yul\":6722:6728   */\n      dup3\n        /* \"#utility.yul\":6711:6720   */\n      dup7\n        /* \"#utility.yul\":6707:6729   */\n      add\n        /* \"#utility.yul\":6689:6739   */\n      tag_195\n      jump\t// in\n    tag_301:\n        /* \"#utility.yul\":6679:6739   */\n      swap2\n      pop\n        /* \"#utility.yul\":6634:6749   */\n      pop\n        /* \"#utility.yul\":6288:6756   */\n      swap3\n      pop\n      swap3\n      swap1\n      pop\n      jump\t// out\n        /* \"#utility.yul\":6762:6880   */\n    tag_196:\n        /* \"#utility.yul\":6849:6873   */\n      tag_303\n        /* \"#utility.yul\":6867:6872   */\n      dup2\n        /* \"#utility.yul\":6849:6873   */\n      tag_190\n      jump\t// in\n    tag_303:\n        /* \"#utility.yul\":6844:6847   */\n      dup3\n        /* \"#utility.yul\":6837:6874   */\n      mstore\n        /* \"#utility.yul\":6762:6880   */\n      pop\n      pop\n      jump\t// out\n        /* \"#utility.yul\":6886:7108   */\n    tag_51:\n        /* \"#utility.yul\":6979:6983   */\n      0x00\n        /* \"#utility.yul\":7017:7019   */\n      0x20\n        /* \"#utility.yul\":7006:7015   */\n      dup3\n        /* \"#utility.yul\":7002:7020   */\n      add\n        /* \"#utility.yul\":6994:7020   */\n      swap1\n      pop\n        /* \"#utility.yul\":7030:7101   */\n      tag_305\n        /* \"#utility.yul\":7098:7099   */\n      0x00\n        /* \"#utility.yul\":7087:7096   */\n      dup4\n        /* \"#utility.yul\":7083:7100   */\n      add\n        /* \"#utility.yul\":7074:7080   */\n      dup5\n        /* \"#utility.yul\":7030:7101   */\n      tag_196\n      jump\t// in\n    tag_305:\n        /* \"#utility.yul\":6886:7108   */\n      swap3\n      swap2\n      pop\n      pop\n      jump\t// out\n        /* \"#utility.yul\":7114:7768   */\n    tag_68:\n        /* \"#utility.yul\":7192:7198   */\n      0x00\n        /* \"#utility.yul\":7200:7206   */\n      dup1\n        /* \"#utility.yul\":7249:7251   */\n      0x40\n        /* \"#utility.yul\":7237:7246   */\n      dup4\n        /* \"#utility.yul\":7228:7235   */\n      dup6\n        /* \"#utility.yul\":7224:7247   */\n      sub\n        /* \"#utility.yul\":7220:7252   */\n      slt\n        /* \"#utility.yul\":7217:7336   */\n      iszero\n      tag_307\n      jumpi\n        /* \"#utility.yul\":7255:7334   */\n      tag_308\n      tag_169\n      jump\t// in\n    tag_308:\n        /* \"#utility.yul\":7217:7336   */\n    tag_307:\n        /* \"#utility.yul\":7375:7376   */\n      0x00\n        /* \"#utility.yul\":7400:7453   */\n      tag_309\n        /* \"#utility.yul\":7445:7452   */\n      dup6\n        /* \"#utility.yul\":7436:7442   */\n      dup3\n        /* \"#utility.yul\":7425:7434   */\n      dup7\n        /* \"#utility.yul\":7421:7443   */\n      add\n        /* \"#utility.yul\":7400:7453   */\n      tag_174\n      jump\t// in\n    tag_309:\n        /* \"#utility.yul\":7390:7453   */\n      swap3\n      pop\n        /* \"#utility.yul\":7346:7463   */\n      pop\n        /* \"#utility.yul\":7530:7532   */\n      0x20\n        /* \"#utility.yul\":7519:7528   */\n      dup4\n        /* \"#utility.yul\":7515:7533   */\n      add\n        /* \"#utility.yul\":7502:7534   */\n      calldataload\n        /* \"#utility.yul\":7561:7579   */\n      0xffffffffffffffff\n        /* \"#utility.yul\":7553:7559   */\n      dup2\n        /* \"#utility.yul\":7550:7580   */\n      gt\n        /* \"#utility.yul\":7547:7664   */\n      iszero\n      tag_310\n      jumpi\n        /* \"#utility.yul\":7583:7662   */\n      tag_311\n      tag_170\n      jump\t// in\n    tag_311:\n        /* \"#utility.yul\":7547:7664   */\n    tag_310:\n        /* \"#utility.yul\":7688:7751   */\n      tag_312\n        /* \"#utility.yul\":7743:7750   */\n      dup6\n        /* \"#utility.yul\":7734:7740   */\n      dup3\n        /* \"#utility.yul\":7723:7732   */\n      dup7\n        /* \"#utility.yul\":7719:7741   */\n      add\n        /* \"#utility.yul\":7688:7751   */\n      tag_186\n      jump\t// in\n    tag_312:\n        /* \"#utility.yul\":7678:7751   */\n      swap2\n      pop\n        /* \"#utility.yul\":7473:7761   */\n      pop\n        /* \"#utility.yul\":7114:7768   */\n      swap3\n      pop\n      swap3\n      swap1\n      pop\n      jump\t// out\n        /* \"#utility.yul\":7774:8711   */\n    tag_73:\n        /* \"#utility.yul\":7866:7872   */\n      0x00\n        /* \"#utility.yul\":7874:7880   */\n      dup1\n        /* \"#utility.yul\":7882:7888   */\n      0x00\n        /* \"#utility.yul\":7890:7896   */\n      dup1\n        /* \"#utility.yul\":7939:7942   */\n      0x80\n        /* \"#utility.yul\":7927:7936   */\n      dup6\n        /* \"#utility.yul\":7918:7925   */\n      dup8\n        /* \"#utility.yul\":7914:7937   */\n      sub\n        /* \"#utility.yul\":7910:7943   */\n      slt\n        /* \"#utility.yul\":7907:8027   */\n      iszero\n      tag_314\n      jumpi\n        /* \"#utility.yul\":7946:8025   */\n      tag_315\n      tag_169\n      jump\t// in\n    tag_315:\n        /* \"#utility.yul\":7907:8027   */\n    tag_314:\n        /* \"#utility.yul\":8094:8095   */\n      0x00\n        /* \"#utility.yul\":8083:8092   */\n      dup6\n        /* \"#utility.yul\":8079:8096   */\n      add\n        /* \"#utility.yul\":8066:8097   */\n      calldataload\n        /* \"#utility.yul\":8124:8142   */\n      0xffffffffffffffff\n        /* \"#utility.yul\":8116:8122   */\n      dup2\n        /* \"#utility.yul\":8113:8143   */\n      gt\n        /* \"#utility.yul\":8110:8227   */\n      iszero\n      tag_316\n      jumpi\n        /* \"#utility.yul\":8146:8225   */\n      tag_317\n      tag_170\n      jump\t// in\n    tag_317:\n        /* \"#utility.yul\":8110:8227   */\n    tag_316:\n        /* \"#utility.yul\":8251:8314   */\n      tag_318\n        /* \"#utility.yul\":8306:8313   */\n      dup8\n        /* \"#utility.yul\":8297:8303   */\n      dup3\n        /* \"#utility.yul\":8286:8295   */\n      dup9\n        /* \"#utility.yul\":8282:8304   */\n      add\n        /* \"#utility.yul\":8251:8314   */\n      tag_186\n      jump\t// in\n    tag_318:\n        /* \"#utility.yul\":8241:8314   */\n      swap5\n      pop\n        /* \"#utility.yul\":8037:8324   */\n      pop\n        /* \"#utility.yul\":8363:8365   */\n      0x20\n        /* \"#utility.yul\":8389:8441   */\n      tag_319\n        /* \"#utility.yul\":8433:8440   */\n      dup8\n        /* \"#utility.yul\":8424:8430   */\n      dup3\n        /* \"#utility.yul\":8413:8422   */\n      dup9\n        /* \"#utility.yul\":8409:8431   */\n      add\n        /* \"#utility.yul\":8389:8441   */\n      tag_189\n      jump\t// in\n    tag_319:\n        /* \"#utility.yul\":8379:8441   */\n      swap4\n      pop\n        /* \"#utility.yul\":8334:8451   */\n      pop\n        /* \"#utility.yul\":8490:8492   */\n      0x40\n        /* \"#utility.yul\":8516:8569   */\n      tag_320\n        /* \"#utility.yul\":8561:8568   */\n      dup8\n        /* \"#utility.yul\":8552:8558   */\n      dup3\n        /* \"#utility.yul\":8541:8550   */\n      dup9\n        /* \"#utility.yul\":8537:8559   */\n      add\n        /* \"#utility.yul\":8516:8569   */\n      tag_174\n      jump\t// in\n    tag_320:\n        /* \"#utility.yul\":8506:8569   */\n      swap3\n      pop\n        /* \"#utility.yul\":8461:8579   */\n      pop\n        /* \"#utility.yul\":8618:8620   */\n      0x60\n        /* \"#utility.yul\":8644:8694   */\n      tag_321\n        /* \"#utility.yul\":8686:8693   */\n      dup8\n        /* \"#utility.yul\":8677:8683   */\n      dup3\n        /* \"#utility.yul\":8666:8675   */\n      dup9\n        /* \"#utility.yul\":8662:8684   */\n      add\n        /* \"#utility.yul\":8644:8694   */\n      tag_195\n      jump\t// in\n    tag_321:\n        /* \"#utility.yul\":8634:8694   */\n      swap2\n      pop\n        /* \"#utility.yul\":8589:8704   */\n      pop\n        /* \"#utility.yul\":7774:8711   */\n      swap3\n      swap6\n      swap2\n      swap5\n      pop\n      swap3\n      pop\n      jump\t// out\n        /* \"#utility.yul\":8717:8886   */\n    tag_197:\n        /* \"#utility.yul\":8801:8812   */\n      0x00\n        /* \"#utility.yul\":8835:8841   */\n      dup3\n        /* \"#utility.yul\":8830:8833   */\n      dup3\n        /* \"#utility.yul\":8823:8842   */\n      mstore\n        /* \"#utility.yul\":8875:8879   */\n      0x20\n        /* \"#utility.yul\":8870:8873   */\n      dup3\n        /* \"#utility.yul\":8866:8880   */\n      add\n        /* \"#utility.yul\":8851:8880   */\n      swap1\n      pop\n        /* \"#utility.yul\":8717:8886   */\n      swap3\n      swap2\n      pop\n      pop\n      jump\t// out\n        /* \"#utility.yul\":8892:9074   */\n    tag_198:\n        /* \"#utility.yul\":9032:9066   */\n      0x4f776e61626c653a2063616c6c6572206973206e6f7420746865206f776e6572\n        /* \"#utility.yul\":9028:9029   */\n      0x00\n        /* \"#utility.yul\":9020:9026   */\n      dup3\n        /* \"#utility.yul\":9016:9030   */\n      add\n        /* \"#utility.yul\":9009:9067   */\n      mstore\n        /* \"#utility.yul\":8892:9074   */\n      pop\n      jump\t// out\n        /* \"#utility.yul\":9080:9446   */\n    tag_199:\n        /* \"#utility.yul\":9222:9225   */\n      0x00\n        /* \"#utility.yul\":9243:9310   */\n      tag_325\n        /* \"#utility.yul\":9307:9309   */\n      0x20\n        /* \"#utility.yul\":9302:9305   */\n      dup4\n        /* \"#utility.yul\":9243:9310   */\n      tag_197\n      jump\t// in\n    tag_325:\n        /* \"#utility.yul\":9236:9310   */\n      swap2\n      pop\n        /* \"#utility.yul\":9319:9412   */\n      tag_326\n        /* \"#utility.yul\":9408:9411   */\n      dup3\n        /* \"#utility.yul\":9319:9412   */\n      tag_198\n      jump\t// in\n    tag_326:\n        /* \"#utility.yul\":9437:9439   */\n      0x20\n        /* \"#utility.yul\":9432:9435   */\n      dup3\n        /* \"#utility.yul\":9428:9440   */\n      add\n        /* \"#utility.yul\":9421:9440   */\n      swap1\n      pop\n        /* \"#utility.yul\":9080:9446   */\n      swap2\n      swap1\n      pop\n      jump\t// out\n        /* \"#utility.yul\":9452:9871   */\n    tag_88:\n        /* \"#utility.yul\":9618:9622   */\n      0x00\n        /* \"#utility.yul\":9656:9658   */\n      0x20\n        /* \"#utility.yul\":9645:9654   */\n      dup3\n        /* \"#utility.yul\":9641:9659   */\n      add\n        /* \"#utility.yul\":9633:9659   */\n      swap1\n      pop\n        /* \"#utility.yul\":9705:9714   */\n      dup2\n        /* \"#utility.yul\":9699:9703   */\n      dup2\n        /* \"#utility.yul\":9695:9715   */\n      sub\n        /* \"#utility.yul\":9691:9692   */\n      0x00\n        /* \"#utility.yul\":9680:9689   */\n      dup4\n        /* \"#utility.yul\":9676:9693   */\n      add\n        /* \"#utility.yul\":9669:9716   */\n      mstore\n        /* \"#utility.yul\":9733:9864   */\n      tag_328\n        /* \"#utility.yul\":9859:9863   */\n      dup2\n        /* \"#utility.yul\":9733:9864   */\n      tag_199\n      jump\t// in\n    tag_328:\n        /* \"#utility.yul\":9725:9864   */\n      swap1\n      pop\n        /* \"#utility.yul\":9452:9871   */\n      swap2\n      swap1\n      pop\n      jump\t// out\n        /* \"#utility.yul\":9877:10043   */\n    tag_200:\n        /* \"#utility.yul\":10017:10035   */\n      0x5061757361626c653a2070617573656400000000000000000000000000000000\n        /* \"#utility.yul\":10013:10014   */\n      0x00\n        /* \"#utility.yul\":10005:10011   */\n      dup3\n        /* \"#utility.yul\":10001:10015   */\n      add\n        /* \"#utility.yul\":9994:10036   */\n      mstore\n        /* \"#utility.yul\":9877:10043   */\n      pop\n      jump\t// out\n        /* \"#utility.yul\":10049:10415   */\n    tag_201:\n        /* \"#utility.yul\":10191:10194   */\n      0x00\n        /* \"#utility.yul\":10212:10279   */\n      tag_331\n        /* \"#utility.yul\":10276:10278   */\n      0x10\n        /* \"#utility.yul\":10271:10274   */\n      dup4\n        /* \"#utility.yul\":10212:10279   */\n      tag_197\n      jump\t// in\n    tag_331:\n        /* \"#utility.yul\":10205:10279   */\n      swap2\n      pop\n        /* \"#utility.yul\":10288:10381   */\n      tag_332\n        /* \"#utility.yul\":10377:10380   */\n      dup3\n        /* \"#utility.yul\":10288:10381   */\n      tag_200\n      jump\t// in\n    tag_332:\n        /* \"#utility.yul\":10406:10408   */\n      0x20\n        /* \"#utility.yul\":10401:10404   */\n      dup3\n        /* \"#utility.yul\":10397:10409   */\n      add\n        /* \"#utility.yul\":10390:10409   */\n      swap1\n      pop\n        /* \"#utility.yul\":10049:10415   */\n      swap2\n      swap1\n      pop\n      jump\t// out\n        /* \"#utility.yul\":10421:10840   */\n    tag_118:\n        /* \"#utility.yul\":10587:10591   */\n      0x00\n        /* \"#utility.yul\":10625:10627   */\n      0x20\n        /* \"#utility.yul\":10614:10623   */\n      dup3\n        /* \"#utility.yul\":10610:10628   */\n      add\n        /* \"#utility.yul\":10602:10628   */\n      swap1\n      pop\n        /* \"#utility.yul\":10674:10683   */\n      dup2\n        /* \"#utility.yul\":10668:10672   */\n      dup2\n        /* \"#utility.yul\":10664:10684   */\n      sub\n        /* \"#utility.yul\":10660:10661   */\n      0x00\n        /* \"#utility.yul\":10649:10658   */\n      dup4\n        /* \"#utility.yul\":10645:10662   */\n      add\n        /* \"#utility.yul\":10638:10685   */\n      mstore\n        /* \"#utility.yul\":10702:10833   */\n      tag_334\n        /* \"#utility.yul\":10828:10832   */\n      dup2\n        /* \"#utility.yul\":10702:10833   */\n      tag_201\n      jump\t// in\n    tag_334:\n        /* \"#utility.yul\":10694:10833   */\n      swap1\n      pop\n        /* \"#utility.yul\":10421:10840   */\n      swap2\n      swap1\n      pop\n      jump\t// out\n        /* \"#utility.yul\":10846:11070   */\n    tag_202:\n        /* \"#utility.yul\":10986:11020   */\n      0x466163746f7279203a3a20496e636f72726563742074656d706c617465206164\n        /* \"#utility.yul\":10982:10983   */\n      0x00\n        /* \"#utility.yul\":10974:10980   */\n      dup3\n        /* \"#utility.yul\":10970:10984   */\n      add\n        /* \"#utility.yul\":10963:11021   */\n      mstore\n        /* \"#utility.yul\":11055:11062   */\n      0x6472657373000000000000000000000000000000000000000000000000000000\n        /* \"#utility.yul\":11050:11052   */\n      0x20\n        /* \"#utility.yul\":11042:11048   */\n      dup3\n        /* \"#utility.yul\":11038:11053   */\n      add\n        /* \"#utility.yul\":11031:11063   */\n      mstore\n        /* \"#utility.yul\":10846:11070   */\n      pop\n      jump\t// out\n        /* \"#utility.yul\":11076:11442   */\n    tag_203:\n        /* \"#utility.yul\":11218:11221   */\n      0x00\n        /* \"#utility.yul\":11239:11306   */\n      tag_337\n        /* \"#utility.yul\":11303:11305   */\n      0x25\n        /* \"#utility.yul\":11298:11301   */\n      dup4\n        /* \"#utility.yul\":11239:11306   */\n      tag_197\n      jump\t// in\n    tag_337:\n        /* \"#utility.yul\":11232:11306   */\n      swap2\n      pop\n        /* \"#utility.yul\":11315:11408   */\n      tag_338\n        /* \"#utility.yul\":11404:11407   */\n      dup3\n        /* \"#utility.yul\":11315:11408   */\n      tag_202\n      jump\t// in\n    tag_338:\n        /* \"#utility.yul\":11433:11435   */\n      0x40\n        /* \"#utility.yul\":11428:11431   */\n      dup3\n        /* \"#utility.yul\":11424:11436   */\n      add\n        /* \"#utility.yul\":11417:11436   */\n      swap1\n      pop\n        /* \"#utility.yul\":11076:11442   */\n      swap2\n      swap1\n      pop\n      jump\t// out\n        /* \"#utility.yul\":11448:11867   */\n    tag_122:\n        /* \"#utility.yul\":11614:11618   */\n      0x00\n        /* \"#utility.yul\":11652:11654   */\n      0x20\n        /* \"#utility.yul\":11641:11650   */\n      dup3\n        /* \"#utility.yul\":11637:11655   */\n      add\n        /* \"#utility.yul\":11629:11655   */\n      swap1\n      pop\n        /* \"#utility.yul\":11701:11710   */\n      dup2\n        /* \"#utility.yul\":11695:11699   */\n      dup2\n        /* \"#utility.yul\":11691:11711   */\n      sub\n        /* \"#utility.yul\":11687:11688   */\n      0x00\n        /* \"#utility.yul\":11676:11685   */\n      dup4\n        /* \"#utility.yul\":11672:11689   */\n      add\n        /* \"#utility.yul\":11665:11712   */\n      mstore\n        /* \"#utility.yul\":11729:11860   */\n      tag_340\n        /* \"#utility.yul\":11855:11859   */\n      dup2\n        /* \"#utility.yul\":11729:11860   */\n      tag_203\n      jump\t// in\n    tag_340:\n        /* \"#utility.yul\":11721:11860   */\n      swap1\n      pop\n        /* \"#utility.yul\":11448:11867   */\n      swap2\n      swap1\n      pop\n      jump\t// out\n        /* \"#utility.yul\":11873:11972   */\n    tag_204:\n        /* \"#utility.yul\":11925:11931   */\n      0x00\n        /* \"#utility.yul\":11959:11964   */\n      dup2\n        /* \"#utility.yul\":11953:11965   */\n      mload\n        /* \"#utility.yul\":11943:11965   */\n      swap1\n      pop\n        /* \"#utility.yul\":11873:11972   */\n      swap2\n      swap1\n      pop\n      jump\t// out\n        /* \"#utility.yul\":11978:12285   */\n    tag_205:\n        /* \"#utility.yul\":12046:12047   */\n      0x00\n        /* \"#utility.yul\":12056:12169   */\n    tag_343:\n        /* \"#utility.yul\":12070:12076   */\n      dup4\n        /* \"#utility.yul\":12067:12068   */\n      dup2\n        /* \"#utility.yul\":12064:12077   */\n      lt\n        /* \"#utility.yul\":12056:12169   */\n      iszero\n      tag_345\n      jumpi\n        /* \"#utility.yul\":12155:12156   */\n      dup1\n        /* \"#utility.yul\":12150:12153   */\n      dup3\n        /* \"#utility.yul\":12146:12157   */\n      add\n        /* \"#utility.yul\":12140:12158   */\n      mload\n        /* \"#utility.yul\":12136:12137   */\n      dup2\n        /* \"#utility.yul\":12131:12134   */\n      dup5\n        /* \"#utility.yul\":12127:12138   */\n      add\n        /* \"#utility.yul\":12120:12159   */\n      mstore\n        /* \"#utility.yul\":12092:12094   */\n      0x20\n        /* \"#utility.yul\":12089:12090   */\n      dup2\n        /* \"#utility.yul\":12085:12095   */\n      add\n        /* \"#utility.yul\":12080:12095   */\n      swap1\n      pop\n        /* \"#utility.yul\":12056:12169   */\n      jump(tag_343)\n    tag_345:\n        /* \"#utility.yul\":12187:12193   */\n      dup4\n        /* \"#utility.yul\":12184:12185   */\n      dup2\n        /* \"#utility.yul\":12181:12194   */\n      gt\n        /* \"#utility.yul\":12178:12279   */\n      iszero\n      tag_346\n      jumpi\n        /* \"#utility.yul\":12267:12268   */\n      0x00\n        /* \"#utility.yul\":12258:12264   */\n      dup5\n        /* \"#utility.yul\":12253:12256   */\n      dup5\n        /* \"#utility.yul\":12249:12265   */\n      add\n        /* \"#utility.yul\":12242:12269   */\n      mstore\n        /* \"#utility.yul\":12178:12279   */\n    tag_346:\n        /* \"#utility.yul\":12027:12285   */\n      pop\n        /* \"#utility.yul\":11978:12285   */\n      pop\n      pop\n      pop\n      jump\t// out\n        /* \"#utility.yul\":12291:12655   */\n    tag_206:\n        /* \"#utility.yul\":12379:12382   */\n      0x00\n        /* \"#utility.yul\":12407:12446   */\n      tag_348\n        /* \"#utility.yul\":12440:12445   */\n      dup3\n        /* \"#utility.yul\":12407:12446   */\n      tag_204\n      jump\t// in\n    tag_348:\n        /* \"#utility.yul\":12462:12533   */\n      tag_349\n        /* \"#utility.yul\":12526:12532   */\n      dup2\n        /* \"#utility.yul\":12521:12524   */\n      dup6\n        /* \"#utility.yul\":12462:12533   */\n      tag_197\n      jump\t// in\n    tag_349:\n        /* \"#utility.yul\":12455:12533   */\n      swap4\n      pop\n        /* \"#utility.yul\":12542:12594   */\n      tag_350\n        /* \"#utility.yul\":12587:12593   */\n      dup2\n        /* \"#utility.yul\":12582:12585   */\n      dup6\n        /* \"#utility.yul\":12575:12579   */\n      0x20\n        /* \"#utility.yul\":12568:12573   */\n      dup7\n        /* \"#utility.yul\":12564:12580   */\n      add\n        /* \"#utility.yul\":12542:12594   */\n      tag_205\n      jump\t// in\n    tag_350:\n        /* \"#utility.yul\":12619:12648   */\n      tag_351\n        /* \"#utility.yul\":12641:12647   */\n      dup2\n        /* \"#utility.yul\":12619:12648   */\n      tag_179\n      jump\t// in\n    tag_351:\n        /* \"#utility.yul\":12614:12617   */\n      dup5\n        /* \"#utility.yul\":12610:12649   */\n      add\n        /* \"#utility.yul\":12603:12649   */\n      swap2\n      pop\n        /* \"#utility.yul\":12383:12655   */\n      pop\n        /* \"#utility.yul\":12291:12655   */\n      swap3\n      swap2\n      pop\n      pop\n      jump\t// out\n        /* \"#utility.yul\":12661:13194   */\n    tag_124:\n        /* \"#utility.yul\":12830:12834   */\n      0x00\n        /* \"#utility.yul\":12868:12870   */\n      0x60\n        /* \"#utility.yul\":12857:12866   */\n      dup3\n        /* \"#utility.yul\":12853:12871   */\n      add\n        /* \"#utility.yul\":12845:12871   */\n      swap1\n      pop\n        /* \"#utility.yul\":12881:12952   */\n      tag_353\n        /* \"#utility.yul\":12949:12950   */\n      0x00\n        /* \"#utility.yul\":12938:12947   */\n      dup4\n        /* \"#utility.yul\":12934:12951   */\n      add\n        /* \"#utility.yul\":12925:12931   */\n      dup7\n        /* \"#utility.yul\":12881:12952   */\n      tag_193\n      jump\t// in\n    tag_353:\n        /* \"#utility.yul\":12962:13034   */\n      tag_354\n        /* \"#utility.yul\":13030:13032   */\n      0x20\n        /* \"#utility.yul\":13019:13028   */\n      dup4\n        /* \"#utility.yul\":13015:13033   */\n      add\n        /* \"#utility.yul\":13006:13012   */\n      dup6\n        /* \"#utility.yul\":12962:13034   */\n      tag_193\n      jump\t// in\n    tag_354:\n        /* \"#utility.yul\":13081:13090   */\n      dup2\n        /* \"#utility.yul\":13075:13079   */\n      dup2\n        /* \"#utility.yul\":13071:13091   */\n      sub\n        /* \"#utility.yul\":13066:13068   */\n      0x40\n        /* \"#utility.yul\":13055:13064   */\n      dup4\n        /* \"#utility.yul\":13051:13069   */\n      add\n        /* \"#utility.yul\":13044:13092   */\n      mstore\n        /* \"#utility.yul\":13109:13187   */\n      tag_355\n        /* \"#utility.yul\":13182:13186   */\n      dup2\n        /* \"#utility.yul\":13173:13179   */\n      dup5\n        /* \"#utility.yul\":13109:13187   */\n      tag_206\n      jump\t// in\n    tag_355:\n        /* \"#utility.yul\":13101:13187   */\n      swap1\n      pop\n        /* \"#utility.yul\":12661:13194   */\n      swap5\n      swap4\n      pop\n      pop\n      pop\n      pop\n      jump\t// out\n        /* \"#utility.yul\":13200:13298   */\n    tag_207:\n        /* \"#utility.yul\":13251:13257   */\n      0x00\n        /* \"#utility.yul\":13285:13290   */\n      dup2\n        /* \"#utility.yul\":13279:13291   */\n      mload\n        /* \"#utility.yul\":13269:13291   */\n      swap1\n      pop\n        /* \"#utility.yul\":13200:13298   */\n      swap2\n      swap1\n      pop\n      jump\t// out\n        /* \"#utility.yul\":13304:13472   */\n    tag_208:\n        /* \"#utility.yul\":13387:13398   */\n      0x00\n        /* \"#utility.yul\":13421:13427   */\n      dup3\n        /* \"#utility.yul\":13416:13419   */\n      dup3\n        /* \"#utility.yul\":13409:13428   */\n      mstore\n        /* \"#utility.yul\":13461:13465   */\n      0x20\n        /* \"#utility.yul\":13456:13459   */\n      dup3\n        /* \"#utility.yul\":13452:13466   */\n      add\n        /* \"#utility.yul\":13437:13466   */\n      swap1\n      pop\n        /* \"#utility.yul\":13304:13472   */\n      swap3\n      swap2\n      pop\n      pop\n      jump\t// out\n        /* \"#utility.yul\":13478:13838   */\n    tag_209:\n        /* \"#utility.yul\":13564:13567   */\n      0x00\n        /* \"#utility.yul\":13592:13630   */\n      tag_359\n        /* \"#utility.yul\":13624:13629   */\n      dup3\n        /* \"#utility.yul\":13592:13630   */\n      tag_207\n      jump\t// in\n    tag_359:\n        /* \"#utility.yul\":13646:13716   */\n      tag_360\n        /* \"#utility.yul\":13709:13715   */\n      dup2\n        /* \"#utility.yul\":13704:13707   */\n      dup6\n        /* \"#utility.yul\":13646:13716   */\n      tag_208\n      jump\t// in\n    tag_360:\n        /* \"#utility.yul\":13639:13716   */\n      swap4\n      pop\n        /* \"#utility.yul\":13725:13777   */\n      tag_361\n        /* \"#utility.yul\":13770:13776   */\n      dup2\n        /* \"#utility.yul\":13765:13768   */\n      dup6\n        /* \"#utility.yul\":13758:13762   */\n      0x20\n        /* \"#utility.yul\":13751:13756   */\n      dup7\n        /* \"#utility.yul\":13747:13763   */\n      add\n        /* \"#utility.yul\":13725:13777   */\n      tag_205\n      jump\t// in\n    tag_361:\n        /* \"#utility.yul\":13802:13831   */\n      tag_362\n        /* \"#utility.yul\":13824:13830   */\n      dup2\n        /* \"#utility.yul\":13802:13831   */\n      tag_179\n      jump\t// in\n    tag_362:\n        /* \"#utility.yul\":13797:13800   */\n      dup5\n        /* \"#utility.yul\":13793:13832   */\n      add\n        /* \"#utility.yul\":13786:13832   */\n      swap2\n      pop\n        /* \"#utility.yul\":13568:13838   */\n      pop\n        /* \"#utility.yul\":13478:13838   */\n      swap3\n      swap2\n      pop\n      pop\n      jump\t// out\n        /* \"#utility.yul\":13844:14263   */\n    tag_128:\n        /* \"#utility.yul\":13983:13987   */\n      0x00\n        /* \"#utility.yul\":14021:14023   */\n      0x40\n        /* \"#utility.yul\":14010:14019   */\n      dup3\n        /* \"#utility.yul\":14006:14024   */\n      add\n        /* \"#utility.yul\":13998:14024   */\n      swap1\n      pop\n        /* \"#utility.yul\":14034:14105   */\n      tag_364\n        /* \"#utility.yul\":14102:14103   */\n      0x00\n        /* \"#utility.yul\":14091:14100   */\n      dup4\n        /* \"#utility.yul\":14087:14104   */\n      add\n        /* \"#utility.yul\":14078:14084   */\n      dup6\n        /* \"#utility.yul\":14034:14105   */\n      tag_193\n      jump\t// in\n    tag_364:\n        /* \"#utility.yul\":14152:14161   */\n      dup2\n        /* \"#utility.yul\":14146:14150   */\n      dup2\n        /* \"#utility.yul\":14142:14162   */\n      sub\n        /* \"#utility.yul\":14137:14139   */\n      0x20\n        /* \"#utility.yul\":14126:14135   */\n      dup4\n        /* \"#utility.yul\":14122:14140   */\n      add\n        /* \"#utility.yul\":14115:14163   */\n      mstore\n        /* \"#utility.yul\":14180:14256   */\n      tag_365\n        /* \"#utility.yul\":14251:14255   */\n      dup2\n        /* \"#utility.yul\":14242:14248   */\n      dup5\n        /* \"#utility.yul\":14180:14256   */\n      tag_209\n      jump\t// in\n    tag_365:\n        /* \"#utility.yul\":14172:14256   */\n      swap1\n      pop\n        /* \"#utility.yul\":13844:14263   */\n      swap4\n      swap3\n      pop\n      pop\n      pop\n      jump\t// out\n        /* \"#utility.yul\":14269:14449   */\n    tag_210:\n        /* \"#utility.yul\":14317:14394   */\n      0x4e487b7100000000000000000000000000000000000000000000000000000000\n        /* \"#utility.yul\":14314:14315   */\n      0x00\n        /* \"#utility.yul\":14307:14395   */\n      mstore\n        /* \"#utility.yul\":14414:14418   */\n      0x11\n        /* \"#utility.yul\":14411:14412   */\n      0x04\n        /* \"#utility.yul\":14404:14419   */\n      mstore\n        /* \"#utility.yul\":14438:14442   */\n      0x24\n        /* \"#utility.yul\":14435:14436   */\n      0x00\n        /* \"#utility.yul\":14428:14443   */\n      revert\n        /* \"#utility.yul\":14455:14688   */\n    tag_132:\n        /* \"#utility.yul\":14494:14497   */\n      0x00\n        /* \"#utility.yul\":14517:14541   */\n      tag_368\n        /* \"#utility.yul\":14535:14540   */\n      dup3\n        /* \"#utility.yul\":14517:14541   */\n      tag_190\n      jump\t// in\n    tag_368:\n        /* \"#utility.yul\":14508:14541   */\n      swap2\n      pop\n        /* \"#utility.yul\":14563:14629   */\n      0xffffffffffffffffffffffffffffffffffffffffffffffffffffffffffffffff\n        /* \"#utility.yul\":14556:14561   */\n      dup3\n        /* \"#utility.yul\":14553:14630   */\n      eq\n        /* \"#utility.yul\":14550:14653   */\n      iszero\n      tag_369\n      jumpi\n        /* \"#utility.yul\":14633:14651   */\n      tag_370\n      tag_210\n      jump\t// in\n    tag_370:\n        /* \"#utility.yul\":14550:14653   */\n    tag_369:\n        /* \"#utility.yul\":14680:14681   */\n      0x01\n        /* \"#utility.yul\":14673:14678   */\n      dup3\n        /* \"#utility.yul\":14669:14682   */\n      add\n        /* \"#utility.yul\":14662:14682   */\n      swap1\n      pop\n        /* \"#utility.yul\":14455:14688   */\n      swap2\n      swap1\n      pop\n      jump\t// out\n        /* \"#utility.yul\":14694:14885   */\n    tag_134:\n        /* \"#utility.yul\":14734:14738   */\n      0x00\n        /* \"#utility.yul\":14754:14774   */\n      tag_372\n        /* \"#utility.yul\":14772:14773   */\n      dup3\n        /* \"#utility.yul\":14754:14774   */\n      tag_190\n      jump\t// in\n    tag_372:\n        /* \"#utility.yul\":14749:14774   */\n      swap2\n      pop\n        /* \"#utility.yul\":14788:14808   */\n      tag_373\n        /* \"#utility.yul\":14806:14807   */\n      dup4\n        /* \"#utility.yul\":14788:14808   */\n      tag_190\n      jump\t// in\n    tag_373:\n        /* \"#utility.yul\":14783:14808   */\n      swap3\n      pop\n        /* \"#utility.yul\":14827:14828   */\n      dup3\n        /* \"#utility.yul\":14824:14825   */\n      dup3\n        /* \"#utility.yul\":14821:14829   */\n      lt\n        /* \"#utility.yul\":14818:14852   */\n      iszero\n      tag_374\n      jumpi\n        /* \"#utility.yul\":14832:14850   */\n      tag_375\n      tag_210\n      jump\t// in\n    tag_375:\n        /* \"#utility.yul\":14818:14852   */\n    tag_374:\n        /* \"#utility.yul\":14877:14878   */\n      dup3\n        /* \"#utility.yul\":14874:14875   */\n      dup3\n        /* \"#utility.yul\":14870:14879   */\n      sub\n        /* \"#utility.yul\":14862:14879   */\n      swap1\n      pop\n        /* \"#utility.yul\":14694:14885   */\n      swap3\n      swap2\n      pop\n      pop\n      jump\t// out\n        /* \"#utility.yul\":14891:15039   */\n    tag_211:\n        /* \"#utility.yul\":14993:15004   */\n      0x00\n        /* \"#utility.yul\":15030:15033   */\n      dup2\n        /* \"#utility.yul\":15015:15033   */\n      swap1\n      pop\n        /* \"#utility.yul\":14891:15039   */\n      swap3\n      swap2\n      pop\n      pop\n      jump\t// out\n        /* \"#utility.yul\":15045:15422   */\n    tag_212:\n        /* \"#utility.yul\":15151:15154   */\n      0x00\n        /* \"#utility.yul\":15179:15218   */\n      tag_378\n        /* \"#utility.yul\":15212:15217   */\n      dup3\n        /* \"#utility.yul\":15179:15218   */\n      tag_204\n      jump\t// in\n    tag_378:\n        /* \"#utility.yul\":15234:15323   */\n      tag_379\n        /* \"#utility.yul\":15316:15322   */\n      dup2\n        /* \"#utility.yul\":15311:15314   */\n      dup6\n        /* \"#utility.yul\":15234:15323   */\n      tag_211\n      jump\t// in\n    tag_379:\n        /* \"#utility.yul\":15227:15323   */\n      swap4\n      pop\n        /* \"#utility.yul\":15332:15384   */\n      tag_380\n        /* \"#utility.yul\":15377:15383   */\n      dup2\n        /* \"#utility.yul\":15372:15375   */\n      dup6\n        /* \"#utility.yul\":15365:15369   */\n      0x20\n        /* \"#utility.yul\":15358:15363   */\n      dup7\n        /* \"#utility.yul\":15354:15370   */\n      add\n        /* \"#utility.yul\":15332:15384   */\n      tag_205\n      jump\t// in\n    tag_380:\n        /* \"#utility.yul\":15409:15415   */\n      dup1\n        /* \"#utility.yul\":15404:15407   */\n      dup5\n        /* \"#utility.yul\":15400:15416   */\n      add\n        /* \"#utility.yul\":15393:15416   */\n      swap2\n      pop\n        /* \"#utility.yul\":15155:15422   */\n      pop\n        /* \"#utility.yul\":15045:15422   */\n      swap3\n      swap2\n      pop\n      pop\n      jump\t// out\n        /* \"#utility.yul\":15428:15703   */\n    tag_142:\n        /* \"#utility.yul\":15560:15563   */\n      0x00\n        /* \"#utility.yul\":15582:15677   */\n      tag_382\n        /* \"#utility.yul\":15673:15676   */\n      dup3\n        /* \"#utility.yul\":15664:15670   */\n      dup5\n        /* \"#utility.yul\":15582:15677   */\n      tag_212\n      jump\t// in\n    tag_382:\n        /* \"#utility.yul\":15575:15677   */\n      swap2\n      pop\n        /* \"#utility.yul\":15694:15697   */\n      dup2\n        /* \"#utility.yul\":15687:15697   */\n      swap1\n      pop\n        /* \"#utility.yul\":15428:15703   */\n      swap3\n      swap2\n      pop\n      pop\n      jump\t// out\n        /* \"#utility.yul\":15709:15934   */\n    tag_213:\n        /* \"#utility.yul\":15849:15883   */\n      0x4f776e61626c653a206e6577206f776e657220697320746865207a65726f2061\n        /* \"#utility.yul\":15845:15846   */\n      0x00\n        /* \"#utility.yul\":15837:15843   */\n      dup3\n        /* \"#utility.yul\":15833:15847   */\n      add\n        /* \"#utility.yul\":15826:15884   */\n      mstore\n        /* \"#utility.yul\":15918:15926   */\n      0x6464726573730000000000000000000000000000000000000000000000000000\n        /* \"#utility.yul\":15913:15915   */\n      0x20\n        /* \"#utility.yul\":15905:15911   */\n      dup3\n        /* \"#utility.yul\":15901:15916   */\n      add\n        /* \"#utility.yul\":15894:15927   */\n      mstore\n        /* \"#utility.yul\":15709:15934   */\n      pop\n      jump\t// out\n        /* \"#utility.yul\":15940:16306   */\n    tag_214:\n        /* \"#utility.yul\":16082:16085   */\n      0x00\n        /* \"#utility.yul\":16103:16170   */\n      tag_385\n        /* \"#utility.yul\":16167:16169   */\n      0x26\n        /* \"#utility.yul\":16162:16165   */\n      dup4\n        /* \"#utility.yul\":16103:16170   */\n      tag_197\n      jump\t// in\n    tag_385:\n        /* \"#utility.yul\":16096:16170   */\n      swap2\n      pop\n        /* \"#utility.yul\":16179:16272   */\n      tag_386\n        /* \"#utility.yul\":16268:16271   */\n      dup3\n        /* \"#utility.yul\":16179:16272   */\n      tag_213\n      jump\t// in\n    tag_386:\n        /* \"#utility.yul\":16297:16299   */\n      0x40\n        /* \"#utility.yul\":16292:16295   */\n      dup3\n        /* \"#utility.yul\":16288:16300   */\n      add\n        /* \"#utility.yul\":16281:16300   */\n      swap1\n      pop\n        /* \"#utility.yul\":15940:16306   */\n      swap2\n      swap1\n      pop\n      jump\t// out\n        /* \"#utility.yul\":16312:16731   */\n    tag_151:\n        /* \"#utility.yul\":16478:16482   */\n      0x00\n        /* \"#utility.yul\":16516:16518   */\n      0x20\n        /* \"#utility.yul\":16505:16514   */\n      dup3\n        /* \"#utility.yul\":16501:16519   */\n      add\n        /* \"#utility.yul\":16493:16519   */\n      swap1\n      pop\n        /* \"#utility.yul\":16565:16574   */\n      dup2\n        /* \"#utility.yul\":16559:16563   */\n      dup2\n        /* \"#utility.yul\":16555:16575   */\n      sub\n        /* \"#utility.yul\":16551:16552   */\n      0x00\n        /* \"#utility.yul\":16540:16549   */\n      dup4\n        /* \"#utility.yul\":16536:16553   */\n      add\n        /* \"#utility.yul\":16529:16576   */\n      mstore\n        /* \"#utility.yul\":16593:16724   */\n      tag_388\n        /* \"#utility.yul\":16719:16723   */\n      dup2\n        /* \"#utility.yul\":16593:16724   */\n      tag_214\n      jump\t// in\n    tag_388:\n        /* \"#utility.yul\":16585:16724   */\n      swap1\n      pop\n        /* \"#utility.yul\":16312:16731   */\n      swap2\n      swap1\n      pop\n      jump\t// out\n        /* \"#utility.yul\":16737:16907   */\n    tag_215:\n        /* \"#utility.yul\":16877:16899   */\n      0x5061757361626c653a206e6f7420706175736564000000000000000000000000\n        /* \"#utility.yul\":16873:16874   */\n      0x00\n        /* \"#utility.yul\":16865:16871   */\n      dup3\n        /* \"#utility.yul\":16861:16875   */\n      add\n        /* \"#utility.yul\":16854:16900   */\n      mstore\n        /* \"#utility.yul\":16737:16907   */\n      pop\n      jump\t// out\n        /* \"#utility.yul\":16913:17279   */\n    tag_216:\n        /* \"#utility.yul\":17055:17058   */\n      0x00\n        /* \"#utility.yul\":17076:17143   */\n      tag_391\n        /* \"#utility.yul\":17140:17142   */\n      0x14\n        /* \"#utility.yul\":17135:17138   */\n      dup4\n        /* \"#utility.yul\":17076:17143   */\n      tag_197\n      jump\t// in\n    tag_391:\n        /* \"#utility.yul\":17069:17143   */\n      swap2\n      pop\n        /* \"#utility.yul\":17152:17245   */\n      tag_392\n        /* \"#utility.yul\":17241:17244   */\n      dup3\n        /* \"#utility.yul\":17152:17245   */\n      tag_215\n      jump\t// in\n    tag_392:\n        /* \"#utility.yul\":17270:17272   */\n      0x20\n        /* \"#utility.yul\":17265:17268   */\n      dup3\n        /* \"#utility.yul\":17261:17273   */\n      add\n        /* \"#utility.yul\":17254:17273   */\n      swap1\n      pop\n        /* \"#utility.yul\":16913:17279   */\n      swap2\n      swap1\n      pop\n      jump\t// out\n        /* \"#utility.yul\":17285:17704   */\n    tag_157:\n        /* \"#utility.yul\":17451:17455   */\n      0x00\n        /* \"#utility.yul\":17489:17491   */\n      0x20\n        /* \"#utility.yul\":17478:17487   */\n      dup3\n        /* \"#utility.yul\":17474:17492   */\n      add\n        /* \"#utility.yul\":17466:17492   */\n      swap1\n      pop\n        /* \"#utility.yul\":17538:17547   */\n      dup2\n        /* \"#utility.yul\":17532:17536   */\n      dup2\n        /* \"#utility.yul\":17528:17548   */\n      sub\n        /* \"#utility.yul\":17524:17525   */\n      0x00\n        /* \"#utility.yul\":17513:17522   */\n      dup4\n        /* \"#utility.yul\":17509:17526   */\n      add\n        /* \"#utility.yul\":17502:17549   */\n      mstore\n        /* \"#utility.yul\":17566:17697   */\n      tag_394\n        /* \"#utility.yul\":17692:17696   */\n      dup2\n        /* \"#utility.yul\":17566:17697   */\n      tag_216\n      jump\t// in\n    tag_394:\n        /* \"#utility.yul\":17558:17697   */\n      swap1\n      pop\n        /* \"#utility.yul\":17285:17704   */\n      swap2\n      swap1\n      pop\n      jump\t// out\n    stop\n\n    sub_0: assembly {\n            /* \"contracts/InitializedProxy.sol\":203:1862  contract InitializedProxy {... */\n          mstore(0x40, 0x80)\n            /* \"contracts/InitializedProxy.sol\":517:1084  constructor(... */\n          callvalue\n          dup1\n          iszero\n          tag_1\n          jumpi\n          0x00\n          dup1\n          revert\n        tag_1:\n          pop\n          mload(0x40)\n          sub(codesize, bytecodeSize)\n          dup1\n          bytecodeSize\n          dup4\n          codecopy\n          dup2\n          dup2\n          add\n          0x40\n          mstore\n          dup2\n          add\n          swap1\n          tag_2\n          swap2\n          swap1\n          tag_3\n          jump\t// in\n        tag_2:\n            /* \"contracts/InitializedProxy.sol\":643:644  0 */\n          0x00\n            /* \"contracts/InitializedProxy.sol\":626:645  logic != address(0) */\n          0xffffffffffffffffffffffffffffffffffffffff\n          and\n            /* \"contracts/InitializedProxy.sol\":626:631  logic */\n          dup3\n            /* \"contracts/InitializedProxy.sol\":626:645  logic != address(0) */\n          0xffffffffffffffffffffffffffffffffffffffff\n          and\n          eq\n          iszero\n            /* \"contracts/InitializedProxy.sol\":618:700  require(logic != address(0),\"Proxy :: Logical contracts cannot be zero addresses\") */\n          tag_6\n          jumpi\n          mload(0x40)\n          0x08c379a000000000000000000000000000000000000000000000000000000000\n          dup2\n          mstore\n          0x04\n          add\n          tag_7\n          swap1\n          tag_8\n          jump\t// in\n        tag_7:\n          mload(0x40)\n          dup1\n          swap2\n          sub\n          swap1\n          revert\n        tag_6:\n            /* \"contracts/InitializedProxy.sol\":779:784  logic */\n          dup2\n            /* \"contracts/InitializedProxy.sol\":711:770  StorageSlotUpgradeable.getAddressSlot(_IMPLEMENTATION_SLOT) */\n          tag_9\n            /* \"contracts/InitializedProxy.sol\":403:469  0x5f62ce3c9aebd463c7a36ab1b244d2bb94f07a2c13889b3b687940ebc467b9b3 */\n          0x5f62ce3c9aebd463c7a36ab1b244d2bb94f07a2c13889b3b687940ebc467b9b3\n            /* \"contracts/InitializedProxy.sol\":749:769  _IMPLEMENTATION_SLOT */\n          0x00\n          shl\n            /* \"contracts/InitializedProxy.sol\":711:748  StorageSlotUpgradeable.getAddressSlot */\n          or(tag_0_8, shl(0x20, tag_10))\n            /* \"contracts/InitializedProxy.sol\":711:770  StorageSlotUpgradeable.getAddressSlot(_IMPLEMENTATION_SLOT) */\n          0x20\n          shr\n          jump\t// in\n        tag_9:\n            /* \"contracts/InitializedProxy.sol\":711:776  StorageSlotUpgradeable.getAddressSlot(_IMPLEMENTATION_SLOT).value */\n          0x00\n          add\n          0x00\n            /* \"contracts/InitializedProxy.sol\":711:784  StorageSlotUpgradeable.getAddressSlot(_IMPLEMENTATION_SLOT).value = logic */\n          0x0100\n          exp\n          dup2\n          sload\n          dup2\n          0xffffffffffffffffffffffffffffffffffffffff\n          mul\n          not\n          and\n          swap1\n          dup4\n          0xffffffffffffffffffffffffffffffffffffffff\n          and\n          mul\n          or\n          swap1\n          sstore\n          pop\n            /* \"contracts/InitializedProxy.sol\":880:888  bool _ok */\n          0x00\n            /* \"contracts/InitializedProxy.sol\":890:913  bytes memory returnData */\n          dup1\n            /* \"contracts/InitializedProxy.sol\":930:935  logic */\n          dup4\n            /* \"contracts/InitializedProxy.sol\":930:948  logic.delegatecall */\n          0xffffffffffffffffffffffffffffffffffffffff\n          and\n            /* \"contracts/InitializedProxy.sol\":949:971  initializationCalldata */\n          dup4\n            /* \"contracts/InitializedProxy.sol\":930:972  logic.delegatecall(initializationCalldata) */\n          mload(0x40)\n          tag_11\n          swap2\n          swap1\n          tag_12\n          jump\t// in\n        tag_11:\n          0x00\n          mload(0x40)\n          dup1\n          dup4\n          sub\n          dup2\n          dup6\n          gas\n          delegatecall\n          swap2\n          pop\n          pop\n          returndatasize\n          dup1\n          0x00\n          dup2\n          eq\n          tag_15\n          jumpi\n          mload(0x40)\n          swap2\n          pop\n          and(add(returndatasize, 0x3f), not(0x1f))\n          dup3\n          add\n          0x40\n          mstore\n          returndatasize\n          dup3\n          mstore\n          returndatasize\n          0x00\n          0x20\n          dup5\n          add\n          returndatacopy\n          jump(tag_14)\n        tag_15:\n          0x60\n          swap2\n          pop\n        tag_14:\n          pop\n            /* \"contracts/InitializedProxy.sol\":879:972  (bool _ok, bytes memory returnData) =... */\n          swap2\n          pop\n          swap2\n          pop\n            /* \"contracts/InitializedProxy.sol\":1052:1055  _ok */\n          dup2\n            /* \"contracts/InitializedProxy.sol\":1064:1074  returnData */\n          dup2\n            /* \"contracts/InitializedProxy.sol\":1044:1076  require(_ok, string(returnData)) */\n          swap1\n          tag_16\n          jumpi\n          mload(0x40)\n          0x08c379a000000000000000000000000000000000000000000000000000000000\n          dup2\n          mstore\n          0x04\n          add\n          tag_17\n          swap2\n          swap1\n          tag_18\n          jump\t// in\n        tag_17:\n          mload(0x40)\n          dup1\n          swap2\n          sub\n          swap1\n          revert\n        tag_16:\n          pop\n            /* \"contracts/InitializedProxy.sol\":606:1084  { ... */\n          pop\n          pop\n            /* \"contracts/InitializedProxy.sol\":517:1084  constructor(... */\n          pop\n          pop\n            /* \"contracts/InitializedProxy.sol\":203:1862  contract InitializedProxy {... */\n          jump(tag_19)\n            /* \"@openzeppelin/contracts-upgradeable/utils/StorageSlotUpgradeable.sol\":1553:1700  function getAddressSlot(bytes32 slot) internal pure returns (AddressSlot storage r) {... */\n        tag_10:\n            /* \"@openzeppelin/contracts-upgradeable/utils/StorageSlotUpgradeable.sol\":1614:1635  AddressSlot storage r */\n          0x00\n            /* \"@openzeppelin/contracts-upgradeable/utils/StorageSlotUpgradeable.sol\":1680:1684  slot */\n          dup2\n            /* \"@openzeppelin/contracts-upgradeable/utils/StorageSlotUpgradeable.sol\":1670:1684  r.slot := slot */\n          swap1\n          pop\n            /* \"@openzeppelin/contracts-upgradeable/utils/StorageSlotUpgradeable.sol\":1553:1700  function getAddressSlot(bytes32 slot) internal pure returns (AddressSlot storage r) {... */\n          swap2\n          swap1\n          pop\n          jump\t// out\n            /* \"#utility.yul\":7:82   */\n        tag_21:\n            /* \"#utility.yul\":40:46   */\n          0x00\n            /* \"#utility.yul\":73:75   */\n          0x40\n            /* \"#utility.yul\":67:76   */\n          mload\n            /* \"#utility.yul\":57:76   */\n          swap1\n          pop\n            /* \"#utility.yul\":7:82   */\n          swap1\n          jump\t// out\n            /* \"#utility.yul\":88:205   */\n        tag_22:\n            /* \"#utility.yul\":197:198   */\n          0x00\n            /* \"#utility.yul\":194:195   */\n          dup1\n            /* \"#utility.yul\":187:199   */\n          revert\n            /* \"#utility.yul\":211:328   */\n        tag_23:\n            /* \"#utility.yul\":320:321   */\n          0x00\n            /* \"#utility.yul\":317:318   */\n          dup1\n            /* \"#utility.yul\":310:322   */\n          revert\n            /* \"#utility.yul\":334:460   */\n        tag_24:\n            /* \"#utility.yul\":371:378   */\n          0x00\n            /* \"#utility.yul\":411:453   */\n          0xffffffffffffffffffffffffffffffffffffffff\n            /* \"#utility.yul\":404:409   */\n          dup3\n            /* \"#utility.yul\":400:454   */\n          and\n            /* \"#utility.yul\":389:454   */\n          swap1\n          pop\n            /* \"#utility.yul\":334:460   */\n          swap2\n          swap1\n          pop\n          jump\t// out\n            /* \"#utility.yul\":466:562   */\n        tag_25:\n            /* \"#utility.yul\":503:510   */\n          0x00\n            /* \"#utility.yul\":532:556   */\n          tag_52\n            /* \"#utility.yul\":550:555   */\n          dup3\n            /* \"#utility.yul\":532:556   */\n          tag_24\n          jump\t// in\n        tag_52:\n            /* \"#utility.yul\":521:556   */\n          swap1\n          pop\n            /* \"#utility.yul\":466:562   */\n          swap2\n          swap1\n          pop\n          jump\t// out\n            /* \"#utility.yul\":568:690   */\n        tag_26:\n            /* \"#utility.yul\":641:665   */\n          tag_54\n            /* \"#utility.yul\":659:664   */\n          dup2\n            /* \"#utility.yul\":641:665   */\n          tag_25\n          jump\t// in\n        tag_54:\n            /* \"#utility.yul\":634:639   */\n          dup2\n            /* \"#utility.yul\":631:666   */\n          eq\n            /* \"#utility.yul\":621:684   */\n          tag_55\n          jumpi\n            /* \"#utility.yul\":680:681   */\n          0x00\n            /* \"#utility.yul\":677:678   */\n          dup1\n            /* \"#utility.yul\":670:682   */\n          revert\n            /* \"#utility.yul\":621:684   */\n        tag_55:\n            /* \"#utility.yul\":568:690   */\n          pop\n          jump\t// out\n            /* \"#utility.yul\":696:839   */\n        tag_27:\n            /* \"#utility.yul\":753:758   */\n          0x00\n            /* \"#utility.yul\":784:790   */\n          dup2\n            /* \"#utility.yul\":778:791   */\n          mload\n            /* \"#utility.yul\":769:791   */\n          swap1\n          pop\n            /* \"#utility.yul\":800:833   */\n          tag_57\n            /* \"#utility.yul\":827:832   */\n          dup2\n            /* \"#utility.yul\":800:833   */\n          tag_26\n          jump\t// in\n        tag_57:\n            /* \"#utility.yul\":696:839   */\n          swap3\n          swap2\n          pop\n          pop\n          jump\t// out\n            /* \"#utility.yul\":845:962   */\n        tag_28:\n            /* \"#utility.yul\":954:955   */\n          0x00\n            /* \"#utility.yul\":951:952   */\n          dup1\n            /* \"#utility.yul\":944:956   */\n          revert\n            /* \"#utility.yul\":968:1085   */\n        tag_29:\n            /* \"#utility.yul\":1077:1078   */\n          0x00\n            /* \"#utility.yul\":1074:1075   */\n          dup1\n            /* \"#utility.yul\":1067:1079   */\n          revert\n            /* \"#utility.yul\":1091:1193   */\n        tag_30:\n            /* \"#utility.yul\":1132:1138   */\n          0x00\n            /* \"#utility.yul\":1183:1185   */\n          0x1f\n            /* \"#utility.yul\":1179:1186   */\n          not\n            /* \"#utility.yul\":1174:1176   */\n          0x1f\n            /* \"#utility.yul\":1167:1172   */\n          dup4\n            /* \"#utility.yul\":1163:1177   */\n          add\n            /* \"#utility.yul\":1159:1187   */\n          and\n            /* \"#utility.yul\":1149:1187   */\n          swap1\n          pop\n            /* \"#utility.yul\":1091:1193   */\n          swap2\n          swap1\n          pop\n          jump\t// out\n            /* \"#utility.yul\":1199:1379   */\n        tag_31:\n            /* \"#utility.yul\":1247:1324   */\n          0x4e487b7100000000000000000000000000000000000000000000000000000000\n            /* \"#utility.yul\":1244:1245   */\n          0x00\n            /* \"#utility.yul\":1237:1325   */\n          mstore\n            /* \"#utility.yul\":1344:1348   */\n          0x41\n            /* \"#utility.yul\":1341:1342   */\n          0x04\n            /* \"#utility.yul\":1334:1349   */\n          mstore\n            /* \"#utility.yul\":1368:1372   */\n          0x24\n            /* \"#utility.yul\":1365:1366   */\n          0x00\n            /* \"#utility.yul\":1358:1373   */\n          revert\n            /* \"#utility.yul\":1385:1666   */\n        tag_32:\n            /* \"#utility.yul\":1468:1495   */\n          tag_63\n            /* \"#utility.yul\":1490:1494   */\n          dup3\n            /* \"#utility.yul\":1468:1495   */\n          tag_30\n          jump\t// in\n        tag_63:\n            /* \"#utility.yul\":1460:1466   */\n          dup2\n            /* \"#utility.yul\":1456:1496   */\n          add\n            /* \"#utility.yul\":1598:1604   */\n          dup2\n            /* \"#utility.yul\":1586:1596   */\n          dup2\n            /* \"#utility.yul\":1583:1605   */\n          lt\n            /* \"#utility.yul\":1562:1580   */\n          0xffffffffffffffff\n            /* \"#utility.yul\":1550:1560   */\n          dup3\n            /* \"#utility.yul\":1547:1581   */\n          gt\n            /* \"#utility.yul\":1544:1606   */\n          or\n            /* \"#utility.yul\":1541:1629   */\n          iszero\n          tag_64\n          jumpi\n            /* \"#utility.yul\":1609:1627   */\n          tag_65\n          tag_31\n          jump\t// in\n        tag_65:\n            /* \"#utility.yul\":1541:1629   */\n        tag_64:\n            /* \"#utility.yul\":1649:1659   */\n          dup1\n            /* \"#utility.yul\":1645:1647   */\n          0x40\n            /* \"#utility.yul\":1638:1660   */\n          mstore\n            /* \"#utility.yul\":1428:1666   */\n          pop\n            /* \"#utility.yul\":1385:1666   */\n          pop\n          pop\n          jump\t// out\n            /* \"#utility.yul\":1672:1801   */\n        tag_33:\n            /* \"#utility.yul\":1706:1712   */\n          0x00\n            /* \"#utility.yul\":1733:1753   */\n          tag_67\n          tag_21\n          jump\t// in\n        tag_67:\n            /* \"#utility.yul\":1723:1753   */\n          swap1\n          pop\n            /* \"#utility.yul\":1762:1795   */\n          tag_68\n            /* \"#utility.yul\":1790:1794   */\n          dup3\n            /* \"#utility.yul\":1782:1788   */\n          dup3\n            /* \"#utility.yul\":1762:1795   */\n          tag_32\n          jump\t// in\n        tag_68:\n            /* \"#utility.yul\":1672:1801   */\n          swap2\n          swap1\n          pop\n          jump\t// out\n            /* \"#utility.yul\":1807:2114   */\n        tag_34:\n            /* \"#utility.yul\":1868:1872   */\n          0x00\n            /* \"#utility.yul\":1958:1976   */\n          0xffffffffffffffff\n            /* \"#utility.yul\":1950:1956   */\n          dup3\n            /* \"#utility.yul\":1947:1977   */\n          gt\n            /* \"#utility.yul\":1944:2000   */\n          iszero\n          tag_70\n          jumpi\n            /* \"#utility.yul\":1980:1998   */\n          tag_71\n          tag_31\n          jump\t// in\n        tag_71:\n            /* \"#utility.yul\":1944:2000   */\n        tag_70:\n            /* \"#utility.yul\":2018:2047   */\n          tag_72\n            /* \"#utility.yul\":2040:2046   */\n          dup3\n            /* \"#utility.yul\":2018:2047   */\n          tag_30\n          jump\t// in\n        tag_72:\n            /* \"#utility.yul\":2010:2047   */\n          swap1\n          pop\n            /* \"#utility.yul\":2102:2106   */\n          0x20\n            /* \"#utility.yul\":2096:2100   */\n          dup2\n            /* \"#utility.yul\":2092:2107   */\n          add\n            /* \"#utility.yul\":2084:2107   */\n          swap1\n          pop\n            /* \"#utility.yul\":1807:2114   */\n          swap2\n          swap1\n          pop\n          jump\t// out\n            /* \"#utility.yul\":2120:2427   */\n        tag_35:\n            /* \"#utility.yul\":2188:2189   */\n          0x00\n            /* \"#utility.yul\":2198:2311   */\n        tag_74:\n            /* \"#utility.yul\":2212:2218   */\n          dup4\n            /* \"#utility.yul\":2209:2210   */\n          dup2\n            /* \"#utility.yul\":2206:2219   */\n          lt\n            /* \"#utility.yul\":2198:2311   */\n          iszero\n          tag_76\n          jumpi\n            /* \"#utility.yul\":2297:2298   */\n          dup1\n            /* \"#utility.yul\":2292:2295   */\n          dup3\n            /* \"#utility.yul\":2288:2299   */\n          add\n            /* \"#utility.yul\":2282:2300   */\n          mload\n            /* \"#utility.yul\":2278:2279   */\n          dup2\n            /* \"#utility.yul\":2273:2276   */\n          dup5\n            /* \"#utility.yul\":2269:2280   */\n          add\n            /* \"#utility.yul\":2262:2301   */\n          mstore\n            /* \"#utility.yul\":2234:2236   */\n          0x20\n            /* \"#utility.yul\":2231:2232   */\n          dup2\n            /* \"#utility.yul\":2227:2237   */\n          add\n            /* \"#utility.yul\":2222:2237   */\n          swap1\n          pop\n            /* \"#utility.yul\":2198:2311   */\n          jump(tag_74)\n        tag_76:\n            /* \"#utility.yul\":2329:2335   */\n          dup4\n            /* \"#utility.yul\":2326:2327   */\n          dup2\n            /* \"#utility.yul\":2323:2336   */\n          gt\n            /* \"#utility.yul\":2320:2421   */\n          iszero\n          tag_77\n          jumpi\n            /* \"#utility.yul\":2409:2410   */\n          0x00\n            /* \"#utility.yul\":2400:2406   */\n          dup5\n            /* \"#utility.yul\":2395:2398   */\n          dup5\n            /* \"#utility.yul\":2391:2407   */\n          add\n            /* \"#utility.yul\":2384:2411   */\n          mstore\n            /* \"#utility.yul\":2320:2421   */\n        tag_77:\n            /* \"#utility.yul\":2169:2427   */\n          pop\n            /* \"#utility.yul\":2120:2427   */\n          pop\n          pop\n          pop\n          jump\t// out\n            /* \"#utility.yul\":2433:2852   */\n        tag_36:\n            /* \"#utility.yul\":2521:2526   */\n          0x00\n            /* \"#utility.yul\":2546:2611   */\n          tag_79\n            /* \"#utility.yul\":2562:2610   */\n          tag_80\n            /* \"#utility.yul\":2603:2609   */\n          dup5\n            /* \"#utility.yul\":2562:2610   */\n          tag_34\n          jump\t// in\n        tag_80:\n            /* \"#utility.yul\":2546:2611   */\n          tag_33\n          jump\t// in\n        tag_79:\n            /* \"#utility.yul\":2537:2611   */\n          swap1\n          pop\n            /* \"#utility.yul\":2634:2640   */\n          dup3\n            /* \"#utility.yul\":2627:2632   */\n          dup2\n            /* \"#utility.yul\":2620:2641   */\n          mstore\n            /* \"#utility.yul\":2672:2676   */\n          0x20\n            /* \"#utility.yul\":2665:2670   */\n          dup2\n            /* \"#utility.yul\":2661:2677   */\n          add\n            /* \"#utility.yul\":2710:2713   */\n          dup5\n            /* \"#utility.yul\":2701:2707   */\n          dup5\n            /* \"#utility.yul\":2696:2699   */\n          dup5\n            /* \"#utility.yul\":2692:2708   */\n          add\n            /* \"#utility.yul\":2689:2714   */\n          gt\n            /* \"#utility.yul\":2686:2798   */\n          iszero\n          tag_81\n          jumpi\n            /* \"#utility.yul\":2717:2796   */\n          tag_82\n          tag_29\n          jump\t// in\n        tag_82:\n            /* \"#utility.yul\":2686:2798   */\n        tag_81:\n            /* \"#utility.yul\":2807:2846   */\n          tag_83\n            /* \"#utility.yul\":2839:2845   */\n          dup5\n            /* \"#utility.yul\":2834:2837   */\n          dup3\n            /* \"#utility.yul\":2829:2832   */\n          dup6\n            /* \"#utility.yul\":2807:2846   */\n          tag_35\n          jump\t// in\n        tag_83:\n            /* \"#utility.yul\":2527:2852   */\n          pop\n            /* \"#utility.yul\":2433:2852   */\n          swap4\n          swap3\n          pop\n          pop\n          pop\n          jump\t// out\n            /* \"#utility.yul\":2871:3224   */\n        tag_37:\n            /* \"#utility.yul\":2937:2942   */\n          0x00\n            /* \"#utility.yul\":2986:2989   */\n          dup3\n            /* \"#utility.yul\":2979:2983   */\n          0x1f\n            /* \"#utility.yul\":2971:2977   */\n          dup4\n            /* \"#utility.yul\":2967:2984   */\n          add\n            /* \"#utility.yul\":2963:2990   */\n          slt\n            /* \"#utility.yul\":2953:3075   */\n          tag_85\n          jumpi\n            /* \"#utility.yul\":2994:3073   */\n          tag_86\n          tag_28\n          jump\t// in\n        tag_86:\n            /* \"#utility.yul\":2953:3075   */\n        tag_85:\n            /* \"#utility.yul\":3104:3110   */\n          dup2\n            /* \"#utility.yul\":3098:3111   */\n          mload\n            /* \"#utility.yul\":3129:3218   */\n          tag_87\n            /* \"#utility.yul\":3214:3217   */\n          dup5\n            /* \"#utility.yul\":3206:3212   */\n          dup3\n            /* \"#utility.yul\":3199:3203   */\n          0x20\n            /* \"#utility.yul\":3191:3197   */\n          dup7\n            /* \"#utility.yul\":3187:3204   */\n          add\n            /* \"#utility.yul\":3129:3218   */\n          tag_36\n          jump\t// in\n        tag_87:\n            /* \"#utility.yul\":3120:3218   */\n          swap2\n          pop\n            /* \"#utility.yul\":2943:3224   */\n          pop\n            /* \"#utility.yul\":2871:3224   */\n          swap3\n          swap2\n          pop\n          pop\n          jump\t// out\n            /* \"#utility.yul\":3230:3908   */\n        tag_3:\n            /* \"#utility.yul\":3318:3324   */\n          0x00\n            /* \"#utility.yul\":3326:3332   */\n          dup1\n            /* \"#utility.yul\":3375:3377   */\n          0x40\n            /* \"#utility.yul\":3363:3372   */\n          dup4\n            /* \"#utility.yul\":3354:3361   */\n          dup6\n            /* \"#utility.yul\":3350:3373   */\n          sub\n            /* \"#utility.yul\":3346:3378   */\n          slt\n            /* \"#utility.yul\":3343:3462   */\n          iszero\n          tag_89\n          jumpi\n            /* \"#utility.yul\":3381:3460   */\n          tag_90\n          tag_22\n          jump\t// in\n        tag_90:\n            /* \"#utility.yul\":3343:3462   */\n        tag_89:\n            /* \"#utility.yul\":3501:3502   */\n          0x00\n            /* \"#utility.yul\":3526:3590   */\n          tag_91\n            /* \"#utility.yul\":3582:3589   */\n          dup6\n            /* \"#utility.yul\":3573:3579   */\n          dup3\n            /* \"#utility.yul\":3562:3571   */\n          dup7\n            /* \"#utility.yul\":3558:3580   */\n          add\n            /* \"#utility.yul\":3526:3590   */\n          tag_27\n          jump\t// in\n        tag_91:\n            /* \"#utility.yul\":3516:3590   */\n          swap3\n          pop\n            /* \"#utility.yul\":3472:3600   */\n          pop\n            /* \"#utility.yul\":3660:3662   */\n          0x20\n            /* \"#utility.yul\":3649:3658   */\n          dup4\n            /* \"#utility.yul\":3645:3663   */\n          add\n            /* \"#utility.yul\":3639:3664   */\n          mload\n            /* \"#utility.yul\":3691:3709   */\n          0xffffffffffffffff\n            /* \"#utility.yul\":3683:3689   */\n          dup2\n            /* \"#utility.yul\":3680:3710   */\n          gt\n            /* \"#utility.yul\":3677:3794   */\n          iszero\n          tag_92\n          jumpi\n            /* \"#utility.yul\":3713:3792   */\n          tag_93\n          tag_23\n          jump\t// in\n        tag_93:\n            /* \"#utility.yul\":3677:3794   */\n        tag_92:\n            /* \"#utility.yul\":3818:3891   */\n          tag_94\n            /* \"#utility.yul\":3883:3890   */\n          dup6\n            /* \"#utility.yul\":3874:3880   */\n          dup3\n            /* \"#utility.yul\":3863:3872   */\n          dup7\n            /* \"#utility.yul\":3859:3881   */\n          add\n            /* \"#utility.yul\":3818:3891   */\n          tag_37\n          jump\t// in\n        tag_94:\n            /* \"#utility.yul\":3808:3891   */\n          swap2\n          pop\n            /* \"#utility.yul\":3610:3901   */\n          pop\n            /* \"#utility.yul\":3230:3908   */\n          swap3\n          pop\n          swap3\n          swap1\n          pop\n          jump\t// out\n            /* \"#utility.yul\":3914:4083   */\n        tag_38:\n            /* \"#utility.yul\":3998:4009   */\n          0x00\n            /* \"#utility.yul\":4032:4038   */\n          dup3\n            /* \"#utility.yul\":4027:4030   */\n          dup3\n            /* \"#utility.yul\":4020:4039   */\n          mstore\n            /* \"#utility.yul\":4072:4076   */\n          0x20\n            /* \"#utility.yul\":4067:4070   */\n          dup3\n            /* \"#utility.yul\":4063:4077   */\n          add\n            /* \"#utility.yul\":4048:4077   */\n          swap1\n          pop\n            /* \"#utility.yul\":3914:4083   */\n          swap3\n          swap2\n          pop\n          pop\n          jump\t// out\n            /* \"#utility.yul\":4089:4327   */\n        tag_39:\n            /* \"#utility.yul\":4229:4263   */\n          0x50726f7879203a3a204c6f676963616c20636f6e7472616374732063616e6e6f\n            /* \"#utility.yul\":4225:4226   */\n          0x00\n            /* \"#utility.yul\":4217:4223   */\n          dup3\n            /* \"#utility.yul\":4213:4227   */\n          add\n            /* \"#utility.yul\":4206:4264   */\n          mstore\n            /* \"#utility.yul\":4298:4319   */\n          0x74206265207a65726f2061646472657373657300000000000000000000000000\n            /* \"#utility.yul\":4293:4295   */\n          0x20\n            /* \"#utility.yul\":4285:4291   */\n          dup3\n            /* \"#utility.yul\":4281:4296   */\n          add\n            /* \"#utility.yul\":4274:4320   */\n          mstore\n            /* \"#utility.yul\":4089:4327   */\n          pop\n          jump\t// out\n            /* \"#utility.yul\":4333:4699   */\n        tag_40:\n            /* \"#utility.yul\":4475:4478   */\n          0x00\n            /* \"#utility.yul\":4496:4563   */\n          tag_98\n            /* \"#utility.yul\":4560:4562   */\n          0x33\n            /* \"#utility.yul\":4555:4558   */\n          dup4\n            /* \"#utility.yul\":4496:4563   */\n          tag_38\n          jump\t// in\n        tag_98:\n            /* \"#utility.yul\":4489:4563   */\n          swap2\n          pop\n            /* \"#utility.yul\":4572:4665   */\n          tag_99\n            /* \"#utility.yul\":4661:4664   */\n          dup3\n            /* \"#utility.yul\":4572:4665   */\n          tag_39\n          jump\t// in\n        tag_99:\n            /* \"#utility.yul\":4690:4692   */\n          0x40\n            /* \"#utility.yul\":4685:4688   */\n          dup3\n            /* \"#utility.yul\":4681:4693   */\n          add\n            /* \"#utility.yul\":4674:4693   */\n          swap1\n          pop\n            /* \"#utility.yul\":4333:4699   */\n          swap2\n          swap1\n          pop\n          jump\t// out\n            /* \"#utility.yul\":4705:5124   */\n        tag_8:\n            /* \"#utility.yul\":4871:4875   */\n          0x00\n            /* \"#utility.yul\":4909:4911   */\n          0x20\n            /* \"#utility.yul\":4898:4907   */\n          dup3\n            /* \"#utility.yul\":4894:4912   */\n          add\n            /* \"#utility.yul\":4886:4912   */\n          swap1\n          pop\n            /* \"#utility.yul\":4958:4967   */\n          dup2\n            /* \"#utility.yul\":4952:4956   */\n          dup2\n            /* \"#utility.yul\":4948:4968   */\n          sub\n            /* \"#utility.yul\":4944:4945   */\n          0x00\n            /* \"#utility.yul\":4933:4942   */\n          dup4\n            /* \"#utility.yul\":4929:4946   */\n          add\n            /* \"#utility.yul\":4922:4969   */\n          mstore\n            /* \"#utility.yul\":4986:5117   */\n          tag_101\n            /* \"#utility.yul\":5112:5116   */\n          dup2\n            /* \"#utility.yul\":4986:5117   */\n          tag_40\n          jump\t// in\n        tag_101:\n            /* \"#utility.yul\":4978:5117   */\n          swap1\n          pop\n            /* \"#utility.yul\":4705:5124   */\n          swap2\n          swap1\n          pop\n          jump\t// out\n            /* \"#utility.yul\":5130:5228   */\n        tag_41:\n            /* \"#utility.yul\":5181:5187   */\n          0x00\n            /* \"#utility.yul\":5215:5220   */\n          dup2\n            /* \"#utility.yul\":5209:5221   */\n          mload\n            /* \"#utility.yul\":5199:5221   */\n          swap1\n          pop\n            /* \"#utility.yul\":5130:5228   */\n          swap2\n          swap1\n          pop\n          jump\t// out\n            /* \"#utility.yul\":5234:5381   */\n        tag_42:\n            /* \"#utility.yul\":5335:5346   */\n          0x00\n            /* \"#utility.yul\":5372:5375   */\n          dup2\n            /* \"#utility.yul\":5357:5375   */\n          swap1\n          pop\n            /* \"#utility.yul\":5234:5381   */\n          swap3\n          swap2\n          pop\n          pop\n          jump\t// out\n            /* \"#utility.yul\":5387:5760   */\n        tag_43:\n            /* \"#utility.yul\":5491:5494   */\n          0x00\n            /* \"#utility.yul\":5519:5557   */\n          tag_105\n            /* \"#utility.yul\":5551:5556   */\n          dup3\n            /* \"#utility.yul\":5519:5557   */\n          tag_41\n          jump\t// in\n        tag_105:\n            /* \"#utility.yul\":5573:5661   */\n          tag_106\n            /* \"#utility.yul\":5654:5660   */\n          dup2\n            /* \"#utility.yul\":5649:5652   */\n          dup6\n            /* \"#utility.yul\":5573:5661   */\n          tag_42\n          jump\t// in\n        tag_106:\n            /* \"#utility.yul\":5566:5661   */\n          swap4\n          pop\n            /* \"#utility.yul\":5670:5722   */\n          tag_107\n            /* \"#utility.yul\":5715:5721   */\n          dup2\n            /* \"#utility.yul\":5710:5713   */\n          dup6\n            /* \"#utility.yul\":5703:5707   */\n          0x20\n            /* \"#utility.yul\":5696:5701   */\n          dup7\n            /* \"#utility.yul\":5692:5708   */\n          add\n            /* \"#utility.yul\":5670:5722   */\n          tag_35\n          jump\t// in\n        tag_107:\n            /* \"#utility.yul\":5747:5753   */\n          dup1\n            /* \"#utility.yul\":5742:5745   */\n          dup5\n            /* \"#utility.yul\":5738:5754   */\n          add\n            /* \"#utility.yul\":5731:5754   */\n          swap2\n          pop\n            /* \"#utility.yul\":5495:5760   */\n          pop\n            /* \"#utility.yul\":5387:5760   */\n          swap3\n          swap2\n          pop\n          pop\n          jump\t// out\n            /* \"#utility.yul\":5766:6037   */\n        tag_12:\n            /* \"#utility.yul\":5896:5899   */\n          0x00\n            /* \"#utility.yul\":5918:6011   */\n          tag_109\n            /* \"#utility.yul\":6007:6010   */\n          dup3\n            /* \"#utility.yul\":5998:6004   */\n          dup5\n            /* \"#utility.yul\":5918:6011   */\n          tag_43\n          jump\t// in\n        tag_109:\n            /* \"#utility.yul\":5911:6011   */\n          swap2\n          pop\n            /* \"#utility.yul\":6028:6031   */\n          dup2\n            /* \"#utility.yul\":6021:6031   */\n          swap1\n          pop\n            /* \"#utility.yul\":5766:6037   */\n          swap3\n          swap2\n          pop\n          pop\n          jump\t// out\n            /* \"#utility.yul\":6043:6142   */\n        tag_44:\n            /* \"#utility.yul\":6095:6101   */\n          0x00\n            /* \"#utility.yul\":6129:6134   */\n          dup2\n            /* \"#utility.yul\":6123:6135   */\n          mload\n            /* \"#utility.yul\":6113:6135   */\n          swap1\n          pop\n            /* \"#utility.yul\":6043:6142   */\n          swap2\n          swap1\n          pop\n          jump\t// out\n            /* \"#utility.yul\":6148:6512   */\n        tag_45:\n            /* \"#utility.yul\":6236:6239   */\n          0x00\n            /* \"#utility.yul\":6264:6303   */\n          tag_112\n            /* \"#utility.yul\":6297:6302   */\n          dup3\n            /* \"#utility.yul\":6264:6303   */\n          tag_44\n          jump\t// in\n        tag_112:\n            /* \"#utility.yul\":6319:6390   */\n          tag_113\n            /* \"#utility.yul\":6383:6389   */\n          dup2\n            /* \"#utility.yul\":6378:6381   */\n          dup6\n            /* \"#utility.yul\":6319:6390   */\n          tag_38\n          jump\t// in\n        tag_113:\n            /* \"#utility.yul\":6312:6390   */\n          swap4\n          pop\n            /* \"#utility.yul\":6399:6451   */\n          tag_114\n            /* \"#utility.yul\":6444:6450   */\n          dup2\n            /* \"#utility.yul\":6439:6442   */\n          dup6\n            /* \"#utility.yul\":6432:6436   */\n          0x20\n            /* \"#utility.yul\":6425:6430   */\n          dup7\n            /* \"#utility.yul\":6421:6437   */\n          add\n            /* \"#utility.yul\":6399:6451   */\n          tag_35\n          jump\t// in\n        tag_114:\n            /* \"#utility.yul\":6476:6505   */\n          tag_115\n            /* \"#utility.yul\":6498:6504   */\n          dup2\n            /* \"#utility.yul\":6476:6505   */\n          tag_30\n          jump\t// in\n        tag_115:\n            /* \"#utility.yul\":6471:6474   */\n          dup5\n            /* \"#utility.yul\":6467:6506   */\n          add\n            /* \"#utility.yul\":6460:6506   */\n          swap2\n          pop\n            /* \"#utility.yul\":6240:6512   */\n          pop\n            /* \"#utility.yul\":6148:6512   */\n          swap3\n          swap2\n          pop\n          pop\n          jump\t// out\n            /* \"#utility.yul\":6518:6831   */\n        tag_18:\n            /* \"#utility.yul\":6631:6635   */\n          0x00\n            /* \"#utility.yul\":6669:6671   */\n          0x20\n            /* \"#utility.yul\":6658:6667   */\n          dup3\n            /* \"#utility.yul\":6654:6672   */\n          add\n            /* \"#utility.yul\":6646:6672   */\n          swap1\n          pop\n            /* \"#utility.yul\":6718:6727   */\n          dup2\n            /* \"#utility.yul\":6712:6716   */\n          dup2\n            /* \"#utility.yul\":6708:6728   */\n          sub\n            /* \"#utility.yul\":6704:6705   */\n          0x00\n            /* \"#utility.yul\":6693:6702   */\n          dup4\n            /* \"#utility.yul\":6689:6706   */\n          add\n            /* \"#utility.yul\":6682:6729   */\n          mstore\n            /* \"#utility.yul\":6746:6824   */\n          tag_117\n            /* \"#utility.yul\":6819:6823   */\n          dup2\n            /* \"#utility.yul\":6810:6816   */\n          dup5\n            /* \"#utility.yul\":6746:6824   */\n          tag_45\n          jump\t// in\n        tag_117:\n            /* \"#utility.yul\":6738:6824   */\n          swap1\n          pop\n            /* \"#utility.yul\":6518:6831   */\n          swap3\n          swap2\n          pop\n          pop\n          jump\t// out\n            /* \"contracts/InitializedProxy.sol\":203:1862  contract InitializedProxy {... */\n        tag_19:\n          dataSize(sub_0)\n          dup1\n          dataOffset(sub_0)\n          0x00\n          codecopy\n          0x00\n          return\n        stop\n\n        sub_0: assembly {\n                /* \"contracts/InitializedProxy.sol\":203:1862  contract InitializedProxy {... */\n              mstore(0x40, 0x80)\n              jumpi(tag_2, calldatasize)\n              stop\n            tag_2:\n                /* \"contracts/InitializedProxy.sol\":1176:1189  address _impl */\n              0x00\n                /* \"contracts/InitializedProxy.sol\":1192:1251  StorageSlotUpgradeable.getAddressSlot(_IMPLEMENTATION_SLOT) */\n              tag_7\n                /* \"contracts/InitializedProxy.sol\":403:469  0x5f62ce3c9aebd463c7a36ab1b244d2bb94f07a2c13889b3b687940ebc467b9b3 */\n              0x5f62ce3c9aebd463c7a36ab1b244d2bb94f07a2c13889b3b687940ebc467b9b3\n                /* \"contracts/InitializedProxy.sol\":1230:1250  _IMPLEMENTATION_SLOT */\n              0x00\n              shl\n                /* \"contracts/InitializedProxy.sol\":1192:1229  StorageSlotUpgradeable.getAddressSlot */\n              tag_8\n                /* \"contracts/InitializedProxy.sol\":1192:1251  StorageSlotUpgradeable.getAddressSlot(_IMPLEMENTATION_SLOT) */\n              jump\t// in\n            tag_7:\n                /* \"contracts/InitializedProxy.sol\":1192:1257  StorageSlotUpgradeable.getAddressSlot(_IMPLEMENTATION_SLOT).value */\n              0x00\n              add\n              0x00\n              swap1\n              sload\n              swap1\n              0x0100\n              exp\n              swap1\n              div\n              0xffffffffffffffffffffffffffffffffffffffff\n              and\n                /* \"contracts/InitializedProxy.sol\":1176:1257  address _impl = StorageSlotUpgradeable.getAddressSlot(_IMPLEMENTATION_SLOT).value */\n              swap1\n              pop\n                /* \"contracts/InitializedProxy.sol\":1309:1313  0x40 */\n              0x40\n                /* \"contracts/InitializedProxy.sol\":1303:1314  mload(0x40) */\n              mload\n                /* \"contracts/InitializedProxy.sol\":1349:1363  calldatasize() */\n              calldatasize\n                /* \"contracts/InitializedProxy.sol\":1346:1347  0 */\n              0x00\n                /* \"contracts/InitializedProxy.sol\":1341:1344  ptr */\n              dup3\n                /* \"contracts/InitializedProxy.sol\":1328:1364  calldatacopy(ptr, 0, calldatasize()) */\n              calldatacopy\n                /* \"contracts/InitializedProxy.sol\":1443:1444  0 */\n              0x00\n                /* \"contracts/InitializedProxy.sol\":1440:1441  0 */\n              dup1\n                /* \"contracts/InitializedProxy.sol\":1424:1438  calldatasize() */\n              calldatasize\n                /* \"contracts/InitializedProxy.sol\":1419:1422  ptr */\n              dup4\n                /* \"contracts/InitializedProxy.sol\":1412:1417  _impl */\n              dup6\n                /* \"contracts/InitializedProxy.sol\":1405:1410  gas() */\n              gas\n                /* \"contracts/InitializedProxy.sol\":1392:1445  delegatecall(gas(), _impl, ptr, calldatasize(), 0, 0) */\n              delegatecall\n                /* \"contracts/InitializedProxy.sol\":1471:1487  returndatasize() */\n              returndatasize\n                /* \"contracts/InitializedProxy.sol\":1524:1528  size */\n              dup1\n                /* \"contracts/InitializedProxy.sol\":1521:1522  0 */\n              0x00\n                /* \"contracts/InitializedProxy.sol\":1516:1519  ptr */\n              dup5\n                /* \"contracts/InitializedProxy.sol\":1501:1529  returndatacopy(ptr, 0, size) */\n              returndatacopy\n                /* \"contracts/InitializedProxy.sol\":1552:1558  result */\n              dup2\n                /* \"contracts/InitializedProxy.sol\":1581:1582  0 */\n              0x00\n                /* \"contracts/InitializedProxy.sol\":1576:1642  case 0 {... */\n              dup2\n              eq\n              tag_10\n              jumpi\n                /* \"contracts/InitializedProxy.sol\":1703:1707  size */\n              dup2\n                /* \"contracts/InitializedProxy.sol\":1698:1701  ptr */\n              dup5\n                /* \"contracts/InitializedProxy.sol\":1691:1708  return(ptr, size) */\n              return\n                /* \"contracts/InitializedProxy.sol\":1576:1642  case 0 {... */\n            tag_10:\n                /* \"contracts/InitializedProxy.sol\":1618:1622  size */\n              dup2\n                /* \"contracts/InitializedProxy.sol\":1613:1616  ptr */\n              dup5\n                /* \"contracts/InitializedProxy.sol\":1606:1623  revert(ptr, size) */\n              revert\n                /* \"@openzeppelin/contracts-upgradeable/utils/StorageSlotUpgradeable.sol\":1553:1700  function getAddressSlot(bytes32 slot) internal pure returns (AddressSlot storage r) {... */\n            tag_8:\n                /* \"@openzeppelin/contracts-upgradeable/utils/StorageSlotUpgradeable.sol\":1614:1635  AddressSlot storage r */\n              0x00\n                /* \"@openzeppelin/contracts-upgradeable/utils/StorageSlotUpgradeable.sol\":1680:1684  slot */\n              dup2\n                /* \"@openzeppelin/contracts-upgradeable/utils/StorageSlotUpgradeable.sol\":1670:1684  r.slot := slot */\n              swap1\n              pop\n                /* \"@openzeppelin/contracts-upgradeable/utils/StorageSlotUpgradeable.sol\":1553:1700  function getAddressSlot(bytes32 slot) internal pure returns (AddressSlot storage r) {... */\n              swap2\n              swap1\n              pop\n              jump\t// out\n\n            auxdata: 0xa264697066735822122000c12bfc980ca26acf18cf2e40ad6fbd638deee9d7aa15293630b00734667eab64736f6c634300080a0033\n        }\n    }\n\n    auxdata: 0xa264697066735822122084e37faaa54a828dc8289002e57bccadf082806966d58cdeae55263c98916c1064736f6c634300080a0033\n}\n",
				"bytecode": {
					"linkReferences": {},
					"object": "60a06040523480156200001157600080fd5b50604051620022d7380380620022d78339818101604052810190620000379190620001ae565b6000620000496200013c60201b60201c565b9050806000806101000a81548173ffffffffffffffffffffffffffffffffffffffff021916908373ffffffffffffffffffffffffffffffffffffffff1602179055508073ffffffffffffffffffffffffffffffffffffffff16600073ffffffffffffffffffffffffffffffffffffffff167f8be0079c531659141344cd1fd0a4f28419497f9722a3daafe3b4186f6b6457e060405160405180910390a35060008060146101000a81548160ff0219169083151502179055508073ffffffffffffffffffffffffffffffffffffffff1660808173ffffffffffffffffffffffffffffffffffffffff168152505050620001e0565b600033905090565b600080fd5b600073ffffffffffffffffffffffffffffffffffffffff82169050919050565b6000620001768262000149565b9050919050565b620001888162000169565b81146200019457600080fd5b50565b600081519050620001a8816200017d565b92915050565b600060208284031215620001c757620001c662000144565b5b6000620001d78482850162000197565b91505092915050565b6080516120d462000203600039600081816107c901526108ce01526120d46000f3fe60806040523480156200001157600080fd5b5060043610620001185760003560e01c80638456cb5911620000a5578063d0def521116200006f578063d0def52114620002c1578063d67620d614620002f7578063e425a4b31462000317578063f2fde38b146200034d5762000118565b80638456cb59146200023b5780638da5cb5b1462000247578063adc20b1c1462000269578063c0c9ce30146200029f5762000118565b80635c975abb11620000e75780635c975abb14620001cb5780635f43b6b314620001ed5780636f631e6a146200020d578063715018a6146200022f5762000118565b80633955d09a146200011d578063396a7a5e14620001535780633f4ba83a14620001895780634e9c11181462000195575b600080fd5b6200013b600480360381019062000135919062001090565b6200036d565b6040516200014a9190620010df565b60405180910390f35b6200017160048036038101906200016b91906200129d565b6200038d565b604051620001809190620010df565b60405180910390f35b62000193620003df565b005b620001b36004803603810190620001ad919062001353565b6200046e565b604051620001c2919062001396565b60405180910390f35b620001d5620004a1565b604051620001e49190620010df565b60405180910390f35b6200020b6004803603810190620002059190620013e4565b620004b7565b005b6200021762000595565b6040516200022691906200143c565b60405180910390f35b620002396200059b565b005b62000245620006dc565b005b620002516200076b565b60405162000260919062001396565b60405180910390f35b62000287600480360381019062000281919062001090565b62000794565b60405162000296919062001396565b60405180910390f35b620002a9620007c7565b604051620002b8919062001396565b60405180910390f35b620002df6004803603810190620002d9919062001459565b620007eb565b604051620002ee91906200143c565b60405180910390f35b6200031560048036038101906200030f9190620014bf565b62000bae565b005b6200033560048036038101906200032f919062001090565b62000cc5565b60405162000344919062001396565b60405180910390f35b6200036b600480360381019062000365919062001090565b62000cf8565b005b60056020528060005260406000206000915054906101000a900460ff1681565b600183805160208101820180518482526020830160208501208183528095505050505050602052816000526040600020602052806000526040600020600092509250509054906101000a900460ff1681565b620003e962000eab565b73ffffffffffffffffffffffffffffffffffffffff16620004096200076b565b73ffffffffffffffffffffffffffffffffffffffff161462000462576040517f08c379a00000000000000000000000000000000000000000000000000000000081526004016200045990620015b1565b60405180910390fd5b6200046c62000eb3565b565b60036020528060005260406000206000915054906101000a900473ffffffffffffffffffffffffffffffffffffffff1681565b60008060149054906101000a900460ff16905090565b620004c162000eab565b73ffffffffffffffffffffffffffffffffffffffff16620004e16200076b565b73ffffffffffffffffffffffffffffffffffffffff16146200053a576040517f08c379a00000000000000000000000000000000000000000000000000000000081526004016200053190620015b1565b60405180910390fd5b80600560008473ffffffffffffffffffffffffffffffffffffffff1673ffffffffffffffffffffffffffffffffffffffff16815260200190815260200160002060006101000a81548160ff0219169083151502179055505050565b60025481565b620005a562000eab565b73ffffffffffffffffffffffffffffffffffffffff16620005c56200076b565b73ffffffffffffffffffffffffffffffffffffffff16146200061e576040517f08c379a00000000000000000000000000000000000000000000000000000000081526004016200061590620015b1565b60405180910390fd5b600073ffffffffffffffffffffffffffffffffffffffff1660008054906101000a900473ffffffffffffffffffffffffffffffffffffffff1673ffffffffffffffffffffffffffffffffffffffff167f8be0079c531659141344cd1fd0a4f28419497f9722a3daafe3b4186f6b6457e060405160405180910390a360008060006101000a81548173ffffffffffffffffffffffffffffffffffffffff021916908373ffffffffffffffffffffffffffffffffffffffff160217905550565b620006e662000eab565b73ffffffffffffffffffffffffffffffffffffffff16620007066200076b565b73ffffffffffffffffffffffffffffffffffffffff16146200075f576040517f08c379a00000000000000000000000000000000000000000000000000000000081526004016200075690620015b1565b60405180910390fd5b6200076962000f5d565b565b60008060009054906101000a900473ffffffffffffffffffffffffffffffffffffffff16905090565b60066020528060005260406000206000915054906101000a900473ffffffffffffffffffffffffffffffffffffffff1681565b7f000000000000000000000000000000000000000000000000000000000000000081565b6000620007f7620004a1565b156200083a576040517f08c379a0000000000000000000000000000000000000000000000000000000008152600401620008319062001623565b60405180910390fd5b600560008473ffffffffffffffffffffffffffffffffffffffff1673ffffffffffffffffffffffffffffffffffffffff16815260200190815260200160002060009054906101000a900460ff16620008c9576040517f08c379a0000000000000000000000000000000000000000000000000000000008152600401620008c090620016bb565b60405180910390fd5b6000337f00000000000000000000000000000000000000000000000000000000000000008460405160240162000902939291906200175f565b6040516020818303038152906040527f4571e3a6000000000000000000000000000000000000000000000000000000007bffffffffffffffffffffffffffffffffffffffffffffffffffffffff19166020820180517bffffffffffffffffffffffffffffffffffffffffffffffffffffffff8381831617835250505050905060008482604051620009939062001009565b620009a092919062001800565b604051809103906000f080158015620009bd573d6000803e3d6000fd5b5090508473ffffffffffffffffffffffffffffffffffffffff168173ffffffffffffffffffffffffffffffffffffffff167fab8530f87dc9b59234c4623bf917212bb2536d647574c8e7e5da92c2ede0c9f860025460405162000a2191906200143c565b60405180910390a38060036000600254815260200190815260200160002060006101000a81548173ffffffffffffffffffffffffffffffffffffffff021916908373ffffffffffffffffffffffffffffffffffffffff16021790555080600660003373ffffffffffffffffffffffffffffffffffffffff1673ffffffffffffffffffffffffffffffffffffffff16815260200190815260200160002060006101000a81548173ffffffffffffffffffffffffffffffffffffffff021916908373ffffffffffffffffffffffffffffffffffffffff16021790555084600460008373ffffffffffffffffffffffffffffffffffffffff1673ffffffffffffffffffffffffffffffffffffffff16815260200190815260200160002060006101000a81548173ffffffffffffffffffffffffffffffffffffffff021916908373ffffffffffffffffffffffffffffffffffffffff1602179055506002600081548092919062000b8e9062001863565b9190505550600160025462000ba49190620018b1565b9250505092915050565b62000bb862000eab565b73ffffffffffffffffffffffffffffffffffffffff1662000bd86200076b565b73ffffffffffffffffffffffffffffffffffffffff161462000c31576040517f08c379a000000000000000000000000000000000000000000000000000000000815260040162000c2890620015b1565b60405180910390fd5b8060018560405162000c4491906200192e565b908152602001604051809103902060008561ffff1661ffff16815260200190815260200160002060008473ffffffffffffffffffffffffffffffffffffffff1673ffffffffffffffffffffffffffffffffffffffff16815260200190815260200160002060006101000a81548160ff02191690831515021790555050505050565b60046020528060005260406000206000915054906101000a900473ffffffffffffffffffffffffffffffffffffffff1681565b62000d0262000eab565b73ffffffffffffffffffffffffffffffffffffffff1662000d226200076b565b73ffffffffffffffffffffffffffffffffffffffff161462000d7b576040517f08c379a000000000000000000000000000000000000000000000000000000000815260040162000d7290620015b1565b60405180910390fd5b600073ffffffffffffffffffffffffffffffffffffffff168173ffffffffffffffffffffffffffffffffffffffff16141562000dee576040517f08c379a000000000000000000000000000000000000000000000000000000000815260040162000de590620019bd565b60405180910390fd5b8073ffffffffffffffffffffffffffffffffffffffff1660008054906101000a900473ffffffffffffffffffffffffffffffffffffffff1673ffffffffffffffffffffffffffffffffffffffff167f8be0079c531659141344cd1fd0a4f28419497f9722a3daafe3b4186f6b6457e060405160405180910390a3806000806101000a81548173ffffffffffffffffffffffffffffffffffffffff021916908373ffffffffffffffffffffffffffffffffffffffff16021790555050565b600033905090565b62000ebd620004a1565b62000eff576040517f08c379a000000000000000000000000000000000000000000000000000000000815260040162000ef69062001a2f565b60405180910390fd5b60008060146101000a81548160ff0219169083151502179055507f5db9ee0a495bf2e6ff9c91a7834c1ba4fdd244a5e8aa4e537bd38aeae4b073aa62000f4462000eab565b60405162000f53919062001396565b60405180910390a1565b62000f67620004a1565b1562000faa576040517f08c379a000000000000000000000000000000000000000000000000000000000815260040162000fa19062001623565b60405180910390fd5b6001600060146101000a81548160ff0219169083151502179055507f62e78cea01bee320cd4e420270b5ea74000d11b0c9f74754ebdbfc544b05a25862000ff062000eab565b60405162000fff919062001396565b60405180910390a1565b61064d8062001a5283390190565b6000604051905090565b600080fd5b600080fd5b600073ffffffffffffffffffffffffffffffffffffffff82169050919050565b600062001058826200102b565b9050919050565b6200106a816200104b565b81146200107657600080fd5b50565b6000813590506200108a816200105f565b92915050565b600060208284031215620010a957620010a862001021565b5b6000620010b98482850162001079565b91505092915050565b60008115159050919050565b620010d981620010c2565b82525050565b6000602082019050620010f66000830184620010ce565b92915050565b600080fd5b600080fd5b6000601f19601f8301169050919050565b7f4e487b7100000000000000000000000000000000000000000000000000000000600052604160045260246000fd5b620011518262001106565b810181811067ffffffffffffffff8211171562001173576200117262001117565b5b80604052505050565b60006200118862001017565b905062001196828262001146565b919050565b600067ffffffffffffffff821115620011b957620011b862001117565b5b620011c48262001106565b9050602081019050919050565b82818337600083830152505050565b6000620011f7620011f1846200119b565b6200117c565b90508281526020810184848401111562001216576200121562001101565b5b62001223848285620011d1565b509392505050565b600082601f830112620012435762001242620010fc565b5b813562001255848260208601620011e0565b91505092915050565b600061ffff82169050919050565b62001277816200125e565b81146200128357600080fd5b50565b60008135905062001297816200126c565b92915050565b600080600060608486031215620012b957620012b862001021565b5b600084013567ffffffffffffffff811115620012da57620012d962001026565b5b620012e8868287016200122b565b9350506020620012fb8682870162001286565b92505060406200130e8682870162001079565b9150509250925092565b6000819050919050565b6200132d8162001318565b81146200133957600080fd5b50565b6000813590506200134d8162001322565b92915050565b6000602082840312156200136c576200136b62001021565b5b60006200137c848285016200133c565b91505092915050565b62001390816200104b565b82525050565b6000602082019050620013ad600083018462001385565b92915050565b620013be81620010c2565b8114620013ca57600080fd5b50565b600081359050620013de81620013b3565b92915050565b60008060408385031215620013fe57620013fd62001021565b5b60006200140e8582860162001079565b92505060206200142185828601620013cd565b9150509250929050565b620014368162001318565b82525050565b60006020820190506200145360008301846200142b565b92915050565b6000806040838503121562001473576200147262001021565b5b6000620014838582860162001079565b925050602083013567ffffffffffffffff811115620014a757620014a662001026565b5b620014b5858286016200122b565b9150509250929050565b60008060008060808587031215620014dc57620014db62001021565b5b600085013567ffffffffffffffff811115620014fd57620014fc62001026565b5b6200150b878288016200122b565b94505060206200151e8782880162001286565b9350506040620015318782880162001079565b92505060606200154487828801620013cd565b91505092959194509250565b600082825260208201905092915050565b7f4f776e61626c653a2063616c6c6572206973206e6f7420746865206f776e6572600082015250565b60006200159960208362001550565b9150620015a68262001561565b602082019050919050565b60006020820190508181036000830152620015cc816200158a565b9050919050565b7f5061757361626c653a2070617573656400000000000000000000000000000000600082015250565b60006200160b60108362001550565b91506200161882620015d3565b602082019050919050565b600060208201905081810360008301526200163e81620015fc565b9050919050565b7f466163746f7279203a3a20496e636f72726563742074656d706c61746520616460008201527f6472657373000000000000000000000000000000000000000000000000000000602082015250565b6000620016a360258362001550565b9150620016b08262001645565b604082019050919050565b60006020820190508181036000830152620016d68162001694565b9050919050565b600081519050919050565b60005b8381101562001708578082015181840152602081019050620016eb565b8381111562001718576000848401525b50505050565b60006200172b82620016dd565b62001737818562001550565b935062001749818560208601620016e8565b620017548162001106565b840191505092915050565b600060608201905062001776600083018662001385565b62001785602083018562001385565b81810360408301526200179981846200171e565b9050949350505050565b600081519050919050565b600082825260208201905092915050565b6000620017cc82620017a3565b620017d88185620017ae565b9350620017ea818560208601620016e8565b620017f58162001106565b840191505092915050565b600060408201905062001817600083018562001385565b81810360208301526200182b8184620017bf565b90509392505050565b7f4e487b7100000000000000000000000000000000000000000000000000000000600052601160045260246000fd5b6000620018708262001318565b91507fffffffffffffffffffffffffffffffffffffffffffffffffffffffffffffffff821415620018a657620018a562001834565b5b600182019050919050565b6000620018be8262001318565b9150620018cb8362001318565b925082821015620018e157620018e062001834565b5b828203905092915050565b600081905092915050565b60006200190482620016dd565b620019108185620018ec565b935062001922818560208601620016e8565b80840191505092915050565b60006200193c8284620018f7565b915081905092915050565b7f4f776e61626c653a206e6577206f776e657220697320746865207a65726f206160008201527f6464726573730000000000000000000000000000000000000000000000000000602082015250565b6000620019a560268362001550565b9150620019b28262001947565b604082019050919050565b60006020820190508181036000830152620019d88162001996565b9050919050565b7f5061757361626c653a206e6f7420706175736564000000000000000000000000600082015250565b600062001a1760148362001550565b915062001a2482620019df565b602082019050919050565b6000602082019050818103600083015262001a4a8162001a08565b905091905056fe608060405234801561001057600080fd5b5060405161064d38038061064d833981810160405281019061003291906103ba565b600073ffffffffffffffffffffffffffffffffffffffff168273ffffffffffffffffffffffffffffffffffffffff1614156100a2576040517f08c379a000000000000000000000000000000000000000000000000000000000815260040161009990610499565b60405180910390fd5b816100d97f5f62ce3c9aebd463c7a36ab1b244d2bb94f07a2c13889b3b687940ebc467b9b360001b6101d460201b6100821760201c565b60000160006101000a81548173ffffffffffffffffffffffffffffffffffffffff021916908373ffffffffffffffffffffffffffffffffffffffff1602179055506000808373ffffffffffffffffffffffffffffffffffffffff16836040516101429190610500565b600060405180830381855af49150503d806000811461017d576040519150601f19603f3d011682016040523d82523d6000602084013e610182565b606091505b50915091508181906101ca576040517f08c379a00000000000000000000000000000000000000000000000000000000081526004016101c1919061055b565b60405180910390fd5b505050505061057d565b6000819050919050565b6000604051905090565b600080fd5b600080fd5b600073ffffffffffffffffffffffffffffffffffffffff82169050919050565b600061021d826101f2565b9050919050565b61022d81610212565b811461023857600080fd5b50565b60008151905061024a81610224565b92915050565b600080fd5b600080fd5b6000601f19601f8301169050919050565b7f4e487b7100000000000000000000000000000000000000000000000000000000600052604160045260246000fd5b6102a38261025a565b810181811067ffffffffffffffff821117156102c2576102c161026b565b5b80604052505050565b60006102d56101de565b90506102e1828261029a565b919050565b600067ffffffffffffffff8211156103015761030061026b565b5b61030a8261025a565b9050602081019050919050565b60005b8381101561033557808201518184015260208101905061031a565b83811115610344576000848401525b50505050565b600061035d610358846102e6565b6102cb565b90508281526020810184848401111561037957610378610255565b5b610384848285610317565b509392505050565b600082601f8301126103a1576103a0610250565b5b81516103b184826020860161034a565b91505092915050565b600080604083850312156103d1576103d06101e8565b5b60006103df8582860161023b565b925050602083015167ffffffffffffffff811115610400576103ff6101ed565b5b61040c8582860161038c565b9150509250929050565b600082825260208201905092915050565b7f50726f7879203a3a204c6f676963616c20636f6e7472616374732063616e6e6f60008201527f74206265207a65726f2061646472657373657300000000000000000000000000602082015250565b6000610483603383610416565b915061048e82610427565b604082019050919050565b600060208201905081810360008301526104b281610476565b9050919050565b600081519050919050565b600081905092915050565b60006104da826104b9565b6104e481856104c4565b93506104f4818560208601610317565b80840191505092915050565b600061050c82846104cf565b915081905092915050565b600081519050919050565b600061052d82610517565b6105378185610416565b9350610547818560208601610317565b6105508161025a565b840191505092915050565b600060208201905081810360008301526105758184610522565b905092915050565b60c28061058b6000396000f3fe608060405236600a57005b600060367f5f62ce3c9aebd463c7a36ab1b244d2bb94f07a2c13889b3b687940ebc467b9b360001b6082565b60000160009054906101000a900473ffffffffffffffffffffffffffffffffffffffff16905060405136600082376000803683855af43d806000843e8160008114607e578184f35b8184fd5b600081905091905056fea264697066735822122000c12bfc980ca26acf18cf2e40ad6fbd638deee9d7aa15293630b00734667eab64736f6c634300080a0033a264697066735822122084e37faaa54a828dc8289002e57bccadf082806966d58cdeae55263c98916c1064736f6c634300080a0033",
					"opcodes": "PUSH1 0xA0 PUSH1 0x40 MSTORE CALLVALUE DUP1 ISZERO PUSH3 0x11 JUMPI PUSH1 0x0 DUP1 REVERT JUMPDEST POP PUSH1 0x40 MLOAD PUSH3 0x22D7 CODESIZE SUB DUP1 PUSH3 0x22D7 DUP4 CODECOPY DUP2 DUP2 ADD PUSH1 0x40 MSTORE DUP2 ADD SWAP1 PUSH3 0x37 SWAP2 SWAP1 PUSH3 0x1AE JUMP JUMPDEST PUSH1 0x0 PUSH3 0x49 PUSH3 0x13C PUSH1 0x20 SHL PUSH1 0x20 SHR JUMP JUMPDEST SWAP1 POP DUP1 PUSH1 0x0 DUP1 PUSH2 0x100 EXP DUP2 SLOAD DUP2 PUSH20 0xFFFFFFFFFFFFFFFFFFFFFFFFFFFFFFFFFFFFFFFF MUL NOT AND SWAP1 DUP4 PUSH20 0xFFFFFFFFFFFFFFFFFFFFFFFFFFFFFFFFFFFFFFFF AND MUL OR SWAP1 SSTORE POP DUP1 PUSH20 0xFFFFFFFFFFFFFFFFFFFFFFFFFFFFFFFFFFFFFFFF AND PUSH1 0x0 PUSH20 0xFFFFFFFFFFFFFFFFFFFFFFFFFFFFFFFFFFFFFFFF AND PUSH32 0x8BE0079C531659141344CD1FD0A4F28419497F9722A3DAAFE3B4186F6B6457E0 PUSH1 0x40 MLOAD PUSH1 0x40 MLOAD DUP1 SWAP2 SUB SWAP1 LOG3 POP PUSH1 0x0 DUP1 PUSH1 0x14 PUSH2 0x100 EXP DUP2 SLOAD DUP2 PUSH1 0xFF MUL NOT AND SWAP1 DUP4 ISZERO ISZERO MUL OR SWAP1 SSTORE POP DUP1 PUSH20 0xFFFFFFFFFFFFFFFFFFFFFFFFFFFFFFFFFFFFFFFF AND PUSH1 0x80 DUP2 PUSH20 0xFFFFFFFFFFFFFFFFFFFFFFFFFFFFFFFFFFFFFFFF AND DUP2 MSTORE POP POP POP PUSH3 0x1E0 JUMP JUMPDEST PUSH1 0x0 CALLER SWAP1 POP SWAP1 JUMP JUMPDEST PUSH1 0x0 DUP1 REVERT JUMPDEST PUSH1 0x0 PUSH20 0xFFFFFFFFFFFFFFFFFFFFFFFFFFFFFFFFFFFFFFFF DUP3 AND SWAP1 POP SWAP2 SWAP1 POP JUMP JUMPDEST PUSH1 0x0 PUSH3 0x176 DUP3 PUSH3 0x149 JUMP JUMPDEST SWAP1 POP SWAP2 SWAP1 POP JUMP JUMPDEST PUSH3 0x188 DUP2 PUSH3 0x169 JUMP JUMPDEST DUP2 EQ PUSH3 0x194 JUMPI PUSH1 0x0 DUP1 REVERT JUMPDEST POP JUMP JUMPDEST PUSH1 0x0 DUP2 MLOAD SWAP1 POP PUSH3 0x1A8 DUP2 PUSH3 0x17D JUMP JUMPDEST SWAP3 SWAP2 POP POP JUMP JUMPDEST PUSH1 0x0 PUSH1 0x20 DUP3 DUP5 SUB SLT ISZERO PUSH3 0x1C7 JUMPI PUSH3 0x1C6 PUSH3 0x144 JUMP JUMPDEST JUMPDEST PUSH1 0x0 PUSH3 0x1D7 DUP5 DUP3 DUP6 ADD PUSH3 0x197 JUMP JUMPDEST SWAP2 POP POP SWAP3 SWAP2 POP POP JUMP JUMPDEST PUSH1 0x80 MLOAD PUSH2 0x20D4 PUSH3 0x203 PUSH1 0x0 CODECOPY PUSH1 0x0 DUP2 DUP2 PUSH2 0x7C9 ADD MSTORE PUSH2 0x8CE ADD MSTORE PUSH2 0x20D4 PUSH1 0x0 RETURN INVALID PUSH1 0x80 PUSH1 0x40 MSTORE CALLVALUE DUP1 ISZERO PUSH3 0x11 JUMPI PUSH1 0x0 DUP1 REVERT JUMPDEST POP PUSH1 0x4 CALLDATASIZE LT PUSH3 0x118 JUMPI PUSH1 0x0 CALLDATALOAD PUSH1 0xE0 SHR DUP1 PUSH4 0x8456CB59 GT PUSH3 0xA5 JUMPI DUP1 PUSH4 0xD0DEF521 GT PUSH3 0x6F JUMPI DUP1 PUSH4 0xD0DEF521 EQ PUSH3 0x2C1 JUMPI DUP1 PUSH4 0xD67620D6 EQ PUSH3 0x2F7 JUMPI DUP1 PUSH4 0xE425A4B3 EQ PUSH3 0x317 JUMPI DUP1 PUSH4 0xF2FDE38B EQ PUSH3 0x34D JUMPI PUSH3 0x118 JUMP JUMPDEST DUP1 PUSH4 0x8456CB59 EQ PUSH3 0x23B JUMPI DUP1 PUSH4 0x8DA5CB5B EQ PUSH3 0x247 JUMPI DUP1 PUSH4 0xADC20B1C EQ PUSH3 0x269 JUMPI DUP1 PUSH4 0xC0C9CE30 EQ PUSH3 0x29F JUMPI PUSH3 0x118 JUMP JUMPDEST DUP1 PUSH4 0x5C975ABB GT PUSH3 0xE7 JUMPI DUP1 PUSH4 0x5C975ABB EQ PUSH3 0x1CB JUMPI DUP1 PUSH4 0x5F43B6B3 EQ PUSH3 0x1ED JUMPI DUP1 PUSH4 0x6F631E6A EQ PUSH3 0x20D JUMPI DUP1 PUSH4 0x715018A6 EQ PUSH3 0x22F JUMPI PUSH3 0x118 JUMP JUMPDEST DUP1 PUSH4 0x3955D09A EQ PUSH3 0x11D JUMPI DUP1 PUSH4 0x396A7A5E EQ PUSH3 0x153 JUMPI DUP1 PUSH4 0x3F4BA83A EQ PUSH3 0x189 JUMPI DUP1 PUSH4 0x4E9C1118 EQ PUSH3 0x195 JUMPI JUMPDEST PUSH1 0x0 DUP1 REVERT JUMPDEST PUSH3 0x13B PUSH1 0x4 DUP1 CALLDATASIZE SUB DUP2 ADD SWAP1 PUSH3 0x135 SWAP2 SWAP1 PUSH3 0x1090 JUMP JUMPDEST PUSH3 0x36D JUMP JUMPDEST PUSH1 0x40 MLOAD PUSH3 0x14A SWAP2 SWAP1 PUSH3 0x10DF JUMP JUMPDEST PUSH1 0x40 MLOAD DUP1 SWAP2 SUB SWAP1 RETURN JUMPDEST PUSH3 0x171 PUSH1 0x4 DUP1 CALLDATASIZE SUB DUP2 ADD SWAP1 PUSH3 0x16B SWAP2 SWAP1 PUSH3 0x129D JUMP JUMPDEST PUSH3 0x38D JUMP JUMPDEST PUSH1 0x40 MLOAD PUSH3 0x180 SWAP2 SWAP1 PUSH3 0x10DF JUMP JUMPDEST PUSH1 0x40 MLOAD DUP1 SWAP2 SUB SWAP1 RETURN JUMPDEST PUSH3 0x193 PUSH3 0x3DF JUMP JUMPDEST STOP JUMPDEST PUSH3 0x1B3 PUSH1 0x4 DUP1 CALLDATASIZE SUB DUP2 ADD SWAP1 PUSH3 0x1AD SWAP2 SWAP1 PUSH3 0x1353 JUMP JUMPDEST PUSH3 0x46E JUMP JUMPDEST PUSH1 0x40 MLOAD PUSH3 0x1C2 SWAP2 SWAP1 PUSH3 0x1396 JUMP JUMPDEST PUSH1 0x40 MLOAD DUP1 SWAP2 SUB SWAP1 RETURN JUMPDEST PUSH3 0x1D5 PUSH3 0x4A1 JUMP JUMPDEST PUSH1 0x40 MLOAD PUSH3 0x1E4 SWAP2 SWAP1 PUSH3 0x10DF JUMP JUMPDEST PUSH1 0x40 MLOAD DUP1 SWAP2 SUB SWAP1 RETURN JUMPDEST PUSH3 0x20B PUSH1 0x4 DUP1 CALLDATASIZE SUB DUP2 ADD SWAP1 PUSH3 0x205 SWAP2 SWAP1 PUSH3 0x13E4 JUMP JUMPDEST PUSH3 0x4B7 JUMP JUMPDEST STOP JUMPDEST PUSH3 0x217 PUSH3 0x595 JUMP JUMPDEST PUSH1 0x40 MLOAD PUSH3 0x226 SWAP2 SWAP1 PUSH3 0x143C JUMP JUMPDEST PUSH1 0x40 MLOAD DUP1 SWAP2 SUB SWAP1 RETURN JUMPDEST PUSH3 0x239 PUSH3 0x59B JUMP JUMPDEST STOP JUMPDEST PUSH3 0x245 PUSH3 0x6DC JUMP JUMPDEST STOP JUMPDEST PUSH3 0x251 PUSH3 0x76B JUMP JUMPDEST PUSH1 0x40 MLOAD PUSH3 0x260 SWAP2 SWAP1 PUSH3 0x1396 JUMP JUMPDEST PUSH1 0x40 MLOAD DUP1 SWAP2 SUB SWAP1 RETURN JUMPDEST PUSH3 0x287 PUSH1 0x4 DUP1 CALLDATASIZE SUB DUP2 ADD SWAP1 PUSH3 0x281 SWAP2 SWAP1 PUSH3 0x1090 JUMP JUMPDEST PUSH3 0x794 JUMP JUMPDEST PUSH1 0x40 MLOAD PUSH3 0x296 SWAP2 SWAP1 PUSH3 0x1396 JUMP JUMPDEST PUSH1 0x40 MLOAD DUP1 SWAP2 SUB SWAP1 RETURN JUMPDEST PUSH3 0x2A9 PUSH3 0x7C7 JUMP JUMPDEST PUSH1 0x40 MLOAD PUSH3 0x2B8 SWAP2 SWAP1 PUSH3 0x1396 JUMP JUMPDEST PUSH1 0x40 MLOAD DUP1 SWAP2 SUB SWAP1 RETURN JUMPDEST PUSH3 0x2DF PUSH1 0x4 DUP1 CALLDATASIZE SUB DUP2 ADD SWAP1 PUSH3 0x2D9 SWAP2 SWAP1 PUSH3 0x1459 JUMP JUMPDEST PUSH3 0x7EB JUMP JUMPDEST PUSH1 0x40 MLOAD PUSH3 0x2EE SWAP2 SWAP1 PUSH3 0x143C JUMP JUMPDEST PUSH1 0x40 MLOAD DUP1 SWAP2 SUB SWAP1 RETURN JUMPDEST PUSH3 0x315 PUSH1 0x4 DUP1 CALLDATASIZE SUB DUP2 ADD SWAP1 PUSH3 0x30F SWAP2 SWAP1 PUSH3 0x14BF JUMP JUMPDEST PUSH3 0xBAE JUMP JUMPDEST STOP JUMPDEST PUSH3 0x335 PUSH1 0x4 DUP1 CALLDATASIZE SUB DUP2 ADD SWAP1 PUSH3 0x32F SWAP2 SWAP1 PUSH3 0x1090 JUMP JUMPDEST PUSH3 0xCC5 JUMP JUMPDEST PUSH1 0x40 MLOAD PUSH3 0x344 SWAP2 SWAP1 PUSH3 0x1396 JUMP JUMPDEST PUSH1 0x40 MLOAD DUP1 SWAP2 SUB SWAP1 RETURN JUMPDEST PUSH3 0x36B PUSH1 0x4 DUP1 CALLDATASIZE SUB DUP2 ADD SWAP1 PUSH3 0x365 SWAP2 SWAP1 PUSH3 0x1090 JUMP JUMPDEST PUSH3 0xCF8 JUMP JUMPDEST STOP JUMPDEST PUSH1 0x5 PUSH1 0x20 MSTORE DUP1 PUSH1 0x0 MSTORE PUSH1 0x40 PUSH1 0x0 KECCAK256 PUSH1 0x0 SWAP2 POP SLOAD SWAP1 PUSH2 0x100 EXP SWAP1 DIV PUSH1 0xFF AND DUP2 JUMP JUMPDEST PUSH1 0x1 DUP4 DUP1 MLOAD PUSH1 0x20 DUP2 ADD DUP3 ADD DUP1 MLOAD DUP5 DUP3 MSTORE PUSH1 0x20 DUP4 ADD PUSH1 0x20 DUP6 ADD KECCAK256 DUP2 DUP4 MSTORE DUP1 SWAP6 POP POP POP POP POP POP PUSH1 0x20 MSTORE DUP2 PUSH1 0x0 MSTORE PUSH1 0x40 PUSH1 0x0 KECCAK256 PUSH1 0x20 MSTORE DUP1 PUSH1 0x0 MSTORE PUSH1 0x40 PUSH1 0x0 KECCAK256 PUSH1 0x0 SWAP3 POP SWAP3 POP POP SWAP1 SLOAD SWAP1 PUSH2 0x100 EXP SWAP1 DIV PUSH1 0xFF AND DUP2 JUMP JUMPDEST PUSH3 0x3E9 PUSH3 0xEAB JUMP JUMPDEST PUSH20 0xFFFFFFFFFFFFFFFFFFFFFFFFFFFFFFFFFFFFFFFF AND PUSH3 0x409 PUSH3 0x76B JUMP JUMPDEST PUSH20 0xFFFFFFFFFFFFFFFFFFFFFFFFFFFFFFFFFFFFFFFF AND EQ PUSH3 0x462 JUMPI PUSH1 0x40 MLOAD PUSH32 0x8C379A000000000000000000000000000000000000000000000000000000000 DUP2 MSTORE PUSH1 0x4 ADD PUSH3 0x459 SWAP1 PUSH3 0x15B1 JUMP JUMPDEST PUSH1 0x40 MLOAD DUP1 SWAP2 SUB SWAP1 REVERT JUMPDEST PUSH3 0x46C PUSH3 0xEB3 JUMP JUMPDEST JUMP JUMPDEST PUSH1 0x3 PUSH1 0x20 MSTORE DUP1 PUSH1 0x0 MSTORE PUSH1 0x40 PUSH1 0x0 KECCAK256 PUSH1 0x0 SWAP2 POP SLOAD SWAP1 PUSH2 0x100 EXP SWAP1 DIV PUSH20 0xFFFFFFFFFFFFFFFFFFFFFFFFFFFFFFFFFFFFFFFF AND DUP2 JUMP JUMPDEST PUSH1 0x0 DUP1 PUSH1 0x14 SWAP1 SLOAD SWAP1 PUSH2 0x100 EXP SWAP1 DIV PUSH1 0xFF AND SWAP1 POP SWAP1 JUMP JUMPDEST PUSH3 0x4C1 PUSH3 0xEAB JUMP JUMPDEST PUSH20 0xFFFFFFFFFFFFFFFFFFFFFFFFFFFFFFFFFFFFFFFF AND PUSH3 0x4E1 PUSH3 0x76B JUMP JUMPDEST PUSH20 0xFFFFFFFFFFFFFFFFFFFFFFFFFFFFFFFFFFFFFFFF AND EQ PUSH3 0x53A JUMPI PUSH1 0x40 MLOAD PUSH32 0x8C379A000000000000000000000000000000000000000000000000000000000 DUP2 MSTORE PUSH1 0x4 ADD PUSH3 0x531 SWAP1 PUSH3 0x15B1 JUMP JUMPDEST PUSH1 0x40 MLOAD DUP1 SWAP2 SUB SWAP1 REVERT JUMPDEST DUP1 PUSH1 0x5 PUSH1 0x0 DUP5 PUSH20 0xFFFFFFFFFFFFFFFFFFFFFFFFFFFFFFFFFFFFFFFF AND PUSH20 0xFFFFFFFFFFFFFFFFFFFFFFFFFFFFFFFFFFFFFFFF AND DUP2 MSTORE PUSH1 0x20 ADD SWAP1 DUP2 MSTORE PUSH1 0x20 ADD PUSH1 0x0 KECCAK256 PUSH1 0x0 PUSH2 0x100 EXP DUP2 SLOAD DUP2 PUSH1 0xFF MUL NOT AND SWAP1 DUP4 ISZERO ISZERO MUL OR SWAP1 SSTORE POP POP POP JUMP JUMPDEST PUSH1 0x2 SLOAD DUP2 JUMP JUMPDEST PUSH3 0x5A5 PUSH3 0xEAB JUMP JUMPDEST PUSH20 0xFFFFFFFFFFFFFFFFFFFFFFFFFFFFFFFFFFFFFFFF AND PUSH3 0x5C5 PUSH3 0x76B JUMP JUMPDEST PUSH20 0xFFFFFFFFFFFFFFFFFFFFFFFFFFFFFFFFFFFFFFFF AND EQ PUSH3 0x61E JUMPI PUSH1 0x40 MLOAD PUSH32 0x8C379A000000000000000000000000000000000000000000000000000000000 DUP2 MSTORE PUSH1 0x4 ADD PUSH3 0x615 SWAP1 PUSH3 0x15B1 JUMP JUMPDEST PUSH1 0x40 MLOAD DUP1 SWAP2 SUB SWAP1 REVERT JUMPDEST PUSH1 0x0 PUSH20 0xFFFFFFFFFFFFFFFFFFFFFFFFFFFFFFFFFFFFFFFF AND PUSH1 0x0 DUP1 SLOAD SWAP1 PUSH2 0x100 EXP SWAP1 DIV PUSH20 0xFFFFFFFFFFFFFFFFFFFFFFFFFFFFFFFFFFFFFFFF AND PUSH20 0xFFFFFFFFFFFFFFFFFFFFFFFFFFFFFFFFFFFFFFFF AND PUSH32 0x8BE0079C531659141344CD1FD0A4F28419497F9722A3DAAFE3B4186F6B6457E0 PUSH1 0x40 MLOAD PUSH1 0x40 MLOAD DUP1 SWAP2 SUB SWAP1 LOG3 PUSH1 0x0 DUP1 PUSH1 0x0 PUSH2 0x100 EXP DUP2 SLOAD DUP2 PUSH20 0xFFFFFFFFFFFFFFFFFFFFFFFFFFFFFFFFFFFFFFFF MUL NOT AND SWAP1 DUP4 PUSH20 0xFFFFFFFFFFFFFFFFFFFFFFFFFFFFFFFFFFFFFFFF AND MUL OR SWAP1 SSTORE POP JUMP JUMPDEST PUSH3 0x6E6 PUSH3 0xEAB JUMP JUMPDEST PUSH20 0xFFFFFFFFFFFFFFFFFFFFFFFFFFFFFFFFFFFFFFFF AND PUSH3 0x706 PUSH3 0x76B JUMP JUMPDEST PUSH20 0xFFFFFFFFFFFFFFFFFFFFFFFFFFFFFFFFFFFFFFFF AND EQ PUSH3 0x75F JUMPI PUSH1 0x40 MLOAD PUSH32 0x8C379A000000000000000000000000000000000000000000000000000000000 DUP2 MSTORE PUSH1 0x4 ADD PUSH3 0x756 SWAP1 PUSH3 0x15B1 JUMP JUMPDEST PUSH1 0x40 MLOAD DUP1 SWAP2 SUB SWAP1 REVERT JUMPDEST PUSH3 0x769 PUSH3 0xF5D JUMP JUMPDEST JUMP JUMPDEST PUSH1 0x0 DUP1 PUSH1 0x0 SWAP1 SLOAD SWAP1 PUSH2 0x100 EXP SWAP1 DIV PUSH20 0xFFFFFFFFFFFFFFFFFFFFFFFFFFFFFFFFFFFFFFFF AND SWAP1 POP SWAP1 JUMP JUMPDEST PUSH1 0x6 PUSH1 0x20 MSTORE DUP1 PUSH1 0x0 MSTORE PUSH1 0x40 PUSH1 0x0 KECCAK256 PUSH1 0x0 SWAP2 POP SLOAD SWAP1 PUSH2 0x100 EXP SWAP1 DIV PUSH20 0xFFFFFFFFFFFFFFFFFFFFFFFFFFFFFFFFFFFFFFFF AND DUP2 JUMP JUMPDEST PUSH32 0x0 DUP2 JUMP JUMPDEST PUSH1 0x0 PUSH3 0x7F7 PUSH3 0x4A1 JUMP JUMPDEST ISZERO PUSH3 0x83A JUMPI PUSH1 0x40 MLOAD PUSH32 0x8C379A000000000000000000000000000000000000000000000000000000000 DUP2 MSTORE PUSH1 0x4 ADD PUSH3 0x831 SWAP1 PUSH3 0x1623 JUMP JUMPDEST PUSH1 0x40 MLOAD DUP1 SWAP2 SUB SWAP1 REVERT JUMPDEST PUSH1 0x5 PUSH1 0x0 DUP5 PUSH20 0xFFFFFFFFFFFFFFFFFFFFFFFFFFFFFFFFFFFFFFFF AND PUSH20 0xFFFFFFFFFFFFFFFFFFFFFFFFFFFFFFFFFFFFFFFF AND DUP2 MSTORE PUSH1 0x20 ADD SWAP1 DUP2 MSTORE PUSH1 0x20 ADD PUSH1 0x0 KECCAK256 PUSH1 0x0 SWAP1 SLOAD SWAP1 PUSH2 0x100 EXP SWAP1 DIV PUSH1 0xFF AND PUSH3 0x8C9 JUMPI PUSH1 0x40 MLOAD PUSH32 0x8C379A000000000000000000000000000000000000000000000000000000000 DUP2 MSTORE PUSH1 0x4 ADD PUSH3 0x8C0 SWAP1 PUSH3 0x16BB JUMP JUMPDEST PUSH1 0x40 MLOAD DUP1 SWAP2 SUB SWAP1 REVERT JUMPDEST PUSH1 0x0 CALLER PUSH32 0x0 DUP5 PUSH1 0x40 MLOAD PUSH1 0x24 ADD PUSH3 0x902 SWAP4 SWAP3 SWAP2 SWAP1 PUSH3 0x175F JUMP JUMPDEST PUSH1 0x40 MLOAD PUSH1 0x20 DUP2 DUP4 SUB SUB DUP2 MSTORE SWAP1 PUSH1 0x40 MSTORE PUSH32 0x4571E3A600000000000000000000000000000000000000000000000000000000 PUSH28 0xFFFFFFFFFFFFFFFFFFFFFFFFFFFFFFFFFFFFFFFFFFFFFFFFFFFFFFFF NOT AND PUSH1 0x20 DUP3 ADD DUP1 MLOAD PUSH28 0xFFFFFFFFFFFFFFFFFFFFFFFFFFFFFFFFFFFFFFFFFFFFFFFFFFFFFFFF DUP4 DUP2 DUP4 AND OR DUP4 MSTORE POP POP POP POP SWAP1 POP PUSH1 0x0 DUP5 DUP3 PUSH1 0x40 MLOAD PUSH3 0x993 SWAP1 PUSH3 0x1009 JUMP JUMPDEST PUSH3 0x9A0 SWAP3 SWAP2 SWAP1 PUSH3 0x1800 JUMP JUMPDEST PUSH1 0x40 MLOAD DUP1 SWAP2 SUB SWAP1 PUSH1 0x0 CREATE DUP1 ISZERO DUP1 ISZERO PUSH3 0x9BD JUMPI RETURNDATASIZE PUSH1 0x0 DUP1 RETURNDATACOPY RETURNDATASIZE PUSH1 0x0 REVERT JUMPDEST POP SWAP1 POP DUP5 PUSH20 0xFFFFFFFFFFFFFFFFFFFFFFFFFFFFFFFFFFFFFFFF AND DUP2 PUSH20 0xFFFFFFFFFFFFFFFFFFFFFFFFFFFFFFFFFFFFFFFF AND PUSH32 0xAB8530F87DC9B59234C4623BF917212BB2536D647574C8E7E5DA92C2EDE0C9F8 PUSH1 0x2 SLOAD PUSH1 0x40 MLOAD PUSH3 0xA21 SWAP2 SWAP1 PUSH3 0x143C JUMP JUMPDEST PUSH1 0x40 MLOAD DUP1 SWAP2 SUB SWAP1 LOG3 DUP1 PUSH1 0x3 PUSH1 0x0 PUSH1 0x2 SLOAD DUP2 MSTORE PUSH1 0x20 ADD SWAP1 DUP2 MSTORE PUSH1 0x20 ADD PUSH1 0x0 KECCAK256 PUSH1 0x0 PUSH2 0x100 EXP DUP2 SLOAD DUP2 PUSH20 0xFFFFFFFFFFFFFFFFFFFFFFFFFFFFFFFFFFFFFFFF MUL NOT AND SWAP1 DUP4 PUSH20 0xFFFFFFFFFFFFFFFFFFFFFFFFFFFFFFFFFFFFFFFF AND MUL OR SWAP1 SSTORE POP DUP1 PUSH1 0x6 PUSH1 0x0 CALLER PUSH20 0xFFFFFFFFFFFFFFFFFFFFFFFFFFFFFFFFFFFFFFFF AND PUSH20 0xFFFFFFFFFFFFFFFFFFFFFFFFFFFFFFFFFFFFFFFF AND DUP2 MSTORE PUSH1 0x20 ADD SWAP1 DUP2 MSTORE PUSH1 0x20 ADD PUSH1 0x0 KECCAK256 PUSH1 0x0 PUSH2 0x100 EXP DUP2 SLOAD DUP2 PUSH20 0xFFFFFFFFFFFFFFFFFFFFFFFFFFFFFFFFFFFFFFFF MUL NOT AND SWAP1 DUP4 PUSH20 0xFFFFFFFFFFFFFFFFFFFFFFFFFFFFFFFFFFFFFFFF AND MUL OR SWAP1 SSTORE POP DUP5 PUSH1 0x4 PUSH1 0x0 DUP4 PUSH20 0xFFFFFFFFFFFFFFFFFFFFFFFFFFFFFFFFFFFFFFFF AND PUSH20 0xFFFFFFFFFFFFFFFFFFFFFFFFFFFFFFFFFFFFFFFF AND DUP2 MSTORE PUSH1 0x20 ADD SWAP1 DUP2 MSTORE PUSH1 0x20 ADD PUSH1 0x0 KECCAK256 PUSH1 0x0 PUSH2 0x100 EXP DUP2 SLOAD DUP2 PUSH20 0xFFFFFFFFFFFFFFFFFFFFFFFFFFFFFFFFFFFFFFFF MUL NOT AND SWAP1 DUP4 PUSH20 0xFFFFFFFFFFFFFFFFFFFFFFFFFFFFFFFFFFFFFFFF AND MUL OR SWAP1 SSTORE POP PUSH1 0x2 PUSH1 0x0 DUP2 SLOAD DUP1 SWAP3 SWAP2 SWAP1 PUSH3 0xB8E SWAP1 PUSH3 0x1863 JUMP JUMPDEST SWAP2 SWAP1 POP SSTORE POP PUSH1 0x1 PUSH1 0x2 SLOAD PUSH3 0xBA4 SWAP2 SWAP1 PUSH3 0x18B1 JUMP JUMPDEST SWAP3 POP POP POP SWAP3 SWAP2 POP POP JUMP JUMPDEST PUSH3 0xBB8 PUSH3 0xEAB JUMP JUMPDEST PUSH20 0xFFFFFFFFFFFFFFFFFFFFFFFFFFFFFFFFFFFFFFFF AND PUSH3 0xBD8 PUSH3 0x76B JUMP JUMPDEST PUSH20 0xFFFFFFFFFFFFFFFFFFFFFFFFFFFFFFFFFFFFFFFF AND EQ PUSH3 0xC31 JUMPI PUSH1 0x40 MLOAD PUSH32 0x8C379A000000000000000000000000000000000000000000000000000000000 DUP2 MSTORE PUSH1 0x4 ADD PUSH3 0xC28 SWAP1 PUSH3 0x15B1 JUMP JUMPDEST PUSH1 0x40 MLOAD DUP1 SWAP2 SUB SWAP1 REVERT JUMPDEST DUP1 PUSH1 0x1 DUP6 PUSH1 0x40 MLOAD PUSH3 0xC44 SWAP2 SWAP1 PUSH3 0x192E JUMP JUMPDEST SWAP1 DUP2 MSTORE PUSH1 0x20 ADD PUSH1 0x40 MLOAD DUP1 SWAP2 SUB SWAP1 KECCAK256 PUSH1 0x0 DUP6 PUSH2 0xFFFF AND PUSH2 0xFFFF AND DUP2 MSTORE PUSH1 0x20 ADD SWAP1 DUP2 MSTORE PUSH1 0x20 ADD PUSH1 0x0 KECCAK256 PUSH1 0x0 DUP5 PUSH20 0xFFFFFFFFFFFFFFFFFFFFFFFFFFFFFFFFFFFFFFFF AND PUSH20 0xFFFFFFFFFFFFFFFFFFFFFFFFFFFFFFFFFFFFFFFF AND DUP2 MSTORE PUSH1 0x20 ADD SWAP1 DUP2 MSTORE PUSH1 0x20 ADD PUSH1 0x0 KECCAK256 PUSH1 0x0 PUSH2 0x100 EXP DUP2 SLOAD DUP2 PUSH1 0xFF MUL NOT AND SWAP1 DUP4 ISZERO ISZERO MUL OR SWAP1 SSTORE POP POP POP POP POP JUMP JUMPDEST PUSH1 0x4 PUSH1 0x20 MSTORE DUP1 PUSH1 0x0 MSTORE PUSH1 0x40 PUSH1 0x0 KECCAK256 PUSH1 0x0 SWAP2 POP SLOAD SWAP1 PUSH2 0x100 EXP SWAP1 DIV PUSH20 0xFFFFFFFFFFFFFFFFFFFFFFFFFFFFFFFFFFFFFFFF AND DUP2 JUMP JUMPDEST PUSH3 0xD02 PUSH3 0xEAB JUMP JUMPDEST PUSH20 0xFFFFFFFFFFFFFFFFFFFFFFFFFFFFFFFFFFFFFFFF AND PUSH3 0xD22 PUSH3 0x76B JUMP JUMPDEST PUSH20 0xFFFFFFFFFFFFFFFFFFFFFFFFFFFFFFFFFFFFFFFF AND EQ PUSH3 0xD7B JUMPI PUSH1 0x40 MLOAD PUSH32 0x8C379A000000000000000000000000000000000000000000000000000000000 DUP2 MSTORE PUSH1 0x4 ADD PUSH3 0xD72 SWAP1 PUSH3 0x15B1 JUMP JUMPDEST PUSH1 0x40 MLOAD DUP1 SWAP2 SUB SWAP1 REVERT JUMPDEST PUSH1 0x0 PUSH20 0xFFFFFFFFFFFFFFFFFFFFFFFFFFFFFFFFFFFFFFFF AND DUP2 PUSH20 0xFFFFFFFFFFFFFFFFFFFFFFFFFFFFFFFFFFFFFFFF AND EQ ISZERO PUSH3 0xDEE JUMPI PUSH1 0x40 MLOAD PUSH32 0x8C379A000000000000000000000000000000000000000000000000000000000 DUP2 MSTORE PUSH1 0x4 ADD PUSH3 0xDE5 SWAP1 PUSH3 0x19BD JUMP JUMPDEST PUSH1 0x40 MLOAD DUP1 SWAP2 SUB SWAP1 REVERT JUMPDEST DUP1 PUSH20 0xFFFFFFFFFFFFFFFFFFFFFFFFFFFFFFFFFFFFFFFF AND PUSH1 0x0 DUP1 SLOAD SWAP1 PUSH2 0x100 EXP SWAP1 DIV PUSH20 0xFFFFFFFFFFFFFFFFFFFFFFFFFFFFFFFFFFFFFFFF AND PUSH20 0xFFFFFFFFFFFFFFFFFFFFFFFFFFFFFFFFFFFFFFFF AND PUSH32 0x8BE0079C531659141344CD1FD0A4F28419497F9722A3DAAFE3B4186F6B6457E0 PUSH1 0x40 MLOAD PUSH1 0x40 MLOAD DUP1 SWAP2 SUB SWAP1 LOG3 DUP1 PUSH1 0x0 DUP1 PUSH2 0x100 EXP DUP2 SLOAD DUP2 PUSH20 0xFFFFFFFFFFFFFFFFFFFFFFFFFFFFFFFFFFFFFFFF MUL NOT AND SWAP1 DUP4 PUSH20 0xFFFFFFFFFFFFFFFFFFFFFFFFFFFFFFFFFFFFFFFF AND MUL OR SWAP1 SSTORE POP POP JUMP JUMPDEST PUSH1 0x0 CALLER SWAP1 POP SWAP1 JUMP JUMPDEST PUSH3 0xEBD PUSH3 0x4A1 JUMP JUMPDEST PUSH3 0xEFF JUMPI PUSH1 0x40 MLOAD PUSH32 0x8C379A000000000000000000000000000000000000000000000000000000000 DUP2 MSTORE PUSH1 0x4 ADD PUSH3 0xEF6 SWAP1 PUSH3 0x1A2F JUMP JUMPDEST PUSH1 0x40 MLOAD DUP1 SWAP2 SUB SWAP1 REVERT JUMPDEST PUSH1 0x0 DUP1 PUSH1 0x14 PUSH2 0x100 EXP DUP2 SLOAD DUP2 PUSH1 0xFF MUL NOT AND SWAP1 DUP4 ISZERO ISZERO MUL OR SWAP1 SSTORE POP PUSH32 0x5DB9EE0A495BF2E6FF9C91A7834C1BA4FDD244A5E8AA4E537BD38AEAE4B073AA PUSH3 0xF44 PUSH3 0xEAB JUMP JUMPDEST PUSH1 0x40 MLOAD PUSH3 0xF53 SWAP2 SWAP1 PUSH3 0x1396 JUMP JUMPDEST PUSH1 0x40 MLOAD DUP1 SWAP2 SUB SWAP1 LOG1 JUMP JUMPDEST PUSH3 0xF67 PUSH3 0x4A1 JUMP JUMPDEST ISZERO PUSH3 0xFAA JUMPI PUSH1 0x40 MLOAD PUSH32 0x8C379A000000000000000000000000000000000000000000000000000000000 DUP2 MSTORE PUSH1 0x4 ADD PUSH3 0xFA1 SWAP1 PUSH3 0x1623 JUMP JUMPDEST PUSH1 0x40 MLOAD DUP1 SWAP2 SUB SWAP1 REVERT JUMPDEST PUSH1 0x1 PUSH1 0x0 PUSH1 0x14 PUSH2 0x100 EXP DUP2 SLOAD DUP2 PUSH1 0xFF MUL NOT AND SWAP1 DUP4 ISZERO ISZERO MUL OR SWAP1 SSTORE POP PUSH32 0x62E78CEA01BEE320CD4E420270B5EA74000D11B0C9F74754EBDBFC544B05A258 PUSH3 0xFF0 PUSH3 0xEAB JUMP JUMPDEST PUSH1 0x40 MLOAD PUSH3 0xFFF SWAP2 SWAP1 PUSH3 0x1396 JUMP JUMPDEST PUSH1 0x40 MLOAD DUP1 SWAP2 SUB SWAP1 LOG1 JUMP JUMPDEST PUSH2 0x64D DUP1 PUSH3 0x1A52 DUP4 CODECOPY ADD SWAP1 JUMP JUMPDEST PUSH1 0x0 PUSH1 0x40 MLOAD SWAP1 POP SWAP1 JUMP JUMPDEST PUSH1 0x0 DUP1 REVERT JUMPDEST PUSH1 0x0 DUP1 REVERT JUMPDEST PUSH1 0x0 PUSH20 0xFFFFFFFFFFFFFFFFFFFFFFFFFFFFFFFFFFFFFFFF DUP3 AND SWAP1 POP SWAP2 SWAP1 POP JUMP JUMPDEST PUSH1 0x0 PUSH3 0x1058 DUP3 PUSH3 0x102B JUMP JUMPDEST SWAP1 POP SWAP2 SWAP1 POP JUMP JUMPDEST PUSH3 0x106A DUP2 PUSH3 0x104B JUMP JUMPDEST DUP2 EQ PUSH3 0x1076 JUMPI PUSH1 0x0 DUP1 REVERT JUMPDEST POP JUMP JUMPDEST PUSH1 0x0 DUP2 CALLDATALOAD SWAP1 POP PUSH3 0x108A DUP2 PUSH3 0x105F JUMP JUMPDEST SWAP3 SWAP2 POP POP JUMP JUMPDEST PUSH1 0x0 PUSH1 0x20 DUP3 DUP5 SUB SLT ISZERO PUSH3 0x10A9 JUMPI PUSH3 0x10A8 PUSH3 0x1021 JUMP JUMPDEST JUMPDEST PUSH1 0x0 PUSH3 0x10B9 DUP5 DUP3 DUP6 ADD PUSH3 0x1079 JUMP JUMPDEST SWAP2 POP POP SWAP3 SWAP2 POP POP JUMP JUMPDEST PUSH1 0x0 DUP2 ISZERO ISZERO SWAP1 POP SWAP2 SWAP1 POP JUMP JUMPDEST PUSH3 0x10D9 DUP2 PUSH3 0x10C2 JUMP JUMPDEST DUP3 MSTORE POP POP JUMP JUMPDEST PUSH1 0x0 PUSH1 0x20 DUP3 ADD SWAP1 POP PUSH3 0x10F6 PUSH1 0x0 DUP4 ADD DUP5 PUSH3 0x10CE JUMP JUMPDEST SWAP3 SWAP2 POP POP JUMP JUMPDEST PUSH1 0x0 DUP1 REVERT JUMPDEST PUSH1 0x0 DUP1 REVERT JUMPDEST PUSH1 0x0 PUSH1 0x1F NOT PUSH1 0x1F DUP4 ADD AND SWAP1 POP SWAP2 SWAP1 POP JUMP JUMPDEST PUSH32 0x4E487B7100000000000000000000000000000000000000000000000000000000 PUSH1 0x0 MSTORE PUSH1 0x41 PUSH1 0x4 MSTORE PUSH1 0x24 PUSH1 0x0 REVERT JUMPDEST PUSH3 0x1151 DUP3 PUSH3 0x1106 JUMP JUMPDEST DUP2 ADD DUP2 DUP2 LT PUSH8 0xFFFFFFFFFFFFFFFF DUP3 GT OR ISZERO PUSH3 0x1173 JUMPI PUSH3 0x1172 PUSH3 0x1117 JUMP JUMPDEST JUMPDEST DUP1 PUSH1 0x40 MSTORE POP POP POP JUMP JUMPDEST PUSH1 0x0 PUSH3 0x1188 PUSH3 0x1017 JUMP JUMPDEST SWAP1 POP PUSH3 0x1196 DUP3 DUP3 PUSH3 0x1146 JUMP JUMPDEST SWAP2 SWAP1 POP JUMP JUMPDEST PUSH1 0x0 PUSH8 0xFFFFFFFFFFFFFFFF DUP3 GT ISZERO PUSH3 0x11B9 JUMPI PUSH3 0x11B8 PUSH3 0x1117 JUMP JUMPDEST JUMPDEST PUSH3 0x11C4 DUP3 PUSH3 0x1106 JUMP JUMPDEST SWAP1 POP PUSH1 0x20 DUP2 ADD SWAP1 POP SWAP2 SWAP1 POP JUMP JUMPDEST DUP3 DUP2 DUP4 CALLDATACOPY PUSH1 0x0 DUP4 DUP4 ADD MSTORE POP POP POP JUMP JUMPDEST PUSH1 0x0 PUSH3 0x11F7 PUSH3 0x11F1 DUP5 PUSH3 0x119B JUMP JUMPDEST PUSH3 0x117C JUMP JUMPDEST SWAP1 POP DUP3 DUP2 MSTORE PUSH1 0x20 DUP2 ADD DUP5 DUP5 DUP5 ADD GT ISZERO PUSH3 0x1216 JUMPI PUSH3 0x1215 PUSH3 0x1101 JUMP JUMPDEST JUMPDEST PUSH3 0x1223 DUP5 DUP3 DUP6 PUSH3 0x11D1 JUMP JUMPDEST POP SWAP4 SWAP3 POP POP POP JUMP JUMPDEST PUSH1 0x0 DUP3 PUSH1 0x1F DUP4 ADD SLT PUSH3 0x1243 JUMPI PUSH3 0x1242 PUSH3 0x10FC JUMP JUMPDEST JUMPDEST DUP2 CALLDATALOAD PUSH3 0x1255 DUP5 DUP3 PUSH1 0x20 DUP7 ADD PUSH3 0x11E0 JUMP JUMPDEST SWAP2 POP POP SWAP3 SWAP2 POP POP JUMP JUMPDEST PUSH1 0x0 PUSH2 0xFFFF DUP3 AND SWAP1 POP SWAP2 SWAP1 POP JUMP JUMPDEST PUSH3 0x1277 DUP2 PUSH3 0x125E JUMP JUMPDEST DUP2 EQ PUSH3 0x1283 JUMPI PUSH1 0x0 DUP1 REVERT JUMPDEST POP JUMP JUMPDEST PUSH1 0x0 DUP2 CALLDATALOAD SWAP1 POP PUSH3 0x1297 DUP2 PUSH3 0x126C JUMP JUMPDEST SWAP3 SWAP2 POP POP JUMP JUMPDEST PUSH1 0x0 DUP1 PUSH1 0x0 PUSH1 0x60 DUP5 DUP7 SUB SLT ISZERO PUSH3 0x12B9 JUMPI PUSH3 0x12B8 PUSH3 0x1021 JUMP JUMPDEST JUMPDEST PUSH1 0x0 DUP5 ADD CALLDATALOAD PUSH8 0xFFFFFFFFFFFFFFFF DUP2 GT ISZERO PUSH3 0x12DA JUMPI PUSH3 0x12D9 PUSH3 0x1026 JUMP JUMPDEST JUMPDEST PUSH3 0x12E8 DUP7 DUP3 DUP8 ADD PUSH3 0x122B JUMP JUMPDEST SWAP4 POP POP PUSH1 0x20 PUSH3 0x12FB DUP7 DUP3 DUP8 ADD PUSH3 0x1286 JUMP JUMPDEST SWAP3 POP POP PUSH1 0x40 PUSH3 0x130E DUP7 DUP3 DUP8 ADD PUSH3 0x1079 JUMP JUMPDEST SWAP2 POP POP SWAP3 POP SWAP3 POP SWAP3 JUMP JUMPDEST PUSH1 0x0 DUP2 SWAP1 POP SWAP2 SWAP1 POP JUMP JUMPDEST PUSH3 0x132D DUP2 PUSH3 0x1318 JUMP JUMPDEST DUP2 EQ PUSH3 0x1339 JUMPI PUSH1 0x0 DUP1 REVERT JUMPDEST POP JUMP JUMPDEST PUSH1 0x0 DUP2 CALLDATALOAD SWAP1 POP PUSH3 0x134D DUP2 PUSH3 0x1322 JUMP JUMPDEST SWAP3 SWAP2 POP POP JUMP JUMPDEST PUSH1 0x0 PUSH1 0x20 DUP3 DUP5 SUB SLT ISZERO PUSH3 0x136C JUMPI PUSH3 0x136B PUSH3 0x1021 JUMP JUMPDEST JUMPDEST PUSH1 0x0 PUSH3 0x137C DUP5 DUP3 DUP6 ADD PUSH3 0x133C JUMP JUMPDEST SWAP2 POP POP SWAP3 SWAP2 POP POP JUMP JUMPDEST PUSH3 0x1390 DUP2 PUSH3 0x104B JUMP JUMPDEST DUP3 MSTORE POP POP JUMP JUMPDEST PUSH1 0x0 PUSH1 0x20 DUP3 ADD SWAP1 POP PUSH3 0x13AD PUSH1 0x0 DUP4 ADD DUP5 PUSH3 0x1385 JUMP JUMPDEST SWAP3 SWAP2 POP POP JUMP JUMPDEST PUSH3 0x13BE DUP2 PUSH3 0x10C2 JUMP JUMPDEST DUP2 EQ PUSH3 0x13CA JUMPI PUSH1 0x0 DUP1 REVERT JUMPDEST POP JUMP JUMPDEST PUSH1 0x0 DUP2 CALLDATALOAD SWAP1 POP PUSH3 0x13DE DUP2 PUSH3 0x13B3 JUMP JUMPDEST SWAP3 SWAP2 POP POP JUMP JUMPDEST PUSH1 0x0 DUP1 PUSH1 0x40 DUP4 DUP6 SUB SLT ISZERO PUSH3 0x13FE JUMPI PUSH3 0x13FD PUSH3 0x1021 JUMP JUMPDEST JUMPDEST PUSH1 0x0 PUSH3 0x140E DUP6 DUP3 DUP7 ADD PUSH3 0x1079 JUMP JUMPDEST SWAP3 POP POP PUSH1 0x20 PUSH3 0x1421 DUP6 DUP3 DUP7 ADD PUSH3 0x13CD JUMP JUMPDEST SWAP2 POP POP SWAP3 POP SWAP3 SWAP1 POP JUMP JUMPDEST PUSH3 0x1436 DUP2 PUSH3 0x1318 JUMP JUMPDEST DUP3 MSTORE POP POP JUMP JUMPDEST PUSH1 0x0 PUSH1 0x20 DUP3 ADD SWAP1 POP PUSH3 0x1453 PUSH1 0x0 DUP4 ADD DUP5 PUSH3 0x142B JUMP JUMPDEST SWAP3 SWAP2 POP POP JUMP JUMPDEST PUSH1 0x0 DUP1 PUSH1 0x40 DUP4 DUP6 SUB SLT ISZERO PUSH3 0x1473 JUMPI PUSH3 0x1472 PUSH3 0x1021 JUMP JUMPDEST JUMPDEST PUSH1 0x0 PUSH3 0x1483 DUP6 DUP3 DUP7 ADD PUSH3 0x1079 JUMP JUMPDEST SWAP3 POP POP PUSH1 0x20 DUP4 ADD CALLDATALOAD PUSH8 0xFFFFFFFFFFFFFFFF DUP2 GT ISZERO PUSH3 0x14A7 JUMPI PUSH3 0x14A6 PUSH3 0x1026 JUMP JUMPDEST JUMPDEST PUSH3 0x14B5 DUP6 DUP3 DUP7 ADD PUSH3 0x122B JUMP JUMPDEST SWAP2 POP POP SWAP3 POP SWAP3 SWAP1 POP JUMP JUMPDEST PUSH1 0x0 DUP1 PUSH1 0x0 DUP1 PUSH1 0x80 DUP6 DUP8 SUB SLT ISZERO PUSH3 0x14DC JUMPI PUSH3 0x14DB PUSH3 0x1021 JUMP JUMPDEST JUMPDEST PUSH1 0x0 DUP6 ADD CALLDATALOAD PUSH8 0xFFFFFFFFFFFFFFFF DUP2 GT ISZERO PUSH3 0x14FD JUMPI PUSH3 0x14FC PUSH3 0x1026 JUMP JUMPDEST JUMPDEST PUSH3 0x150B DUP8 DUP3 DUP9 ADD PUSH3 0x122B JUMP JUMPDEST SWAP5 POP POP PUSH1 0x20 PUSH3 0x151E DUP8 DUP3 DUP9 ADD PUSH3 0x1286 JUMP JUMPDEST SWAP4 POP POP PUSH1 0x40 PUSH3 0x1531 DUP8 DUP3 DUP9 ADD PUSH3 0x1079 JUMP JUMPDEST SWAP3 POP POP PUSH1 0x60 PUSH3 0x1544 DUP8 DUP3 DUP9 ADD PUSH3 0x13CD JUMP JUMPDEST SWAP2 POP POP SWAP3 SWAP6 SWAP2 SWAP5 POP SWAP3 POP JUMP JUMPDEST PUSH1 0x0 DUP3 DUP3 MSTORE PUSH1 0x20 DUP3 ADD SWAP1 POP SWAP3 SWAP2 POP POP JUMP JUMPDEST PUSH32 0x4F776E61626C653A2063616C6C6572206973206E6F7420746865206F776E6572 PUSH1 0x0 DUP3 ADD MSTORE POP JUMP JUMPDEST PUSH1 0x0 PUSH3 0x1599 PUSH1 0x20 DUP4 PUSH3 0x1550 JUMP JUMPDEST SWAP2 POP PUSH3 0x15A6 DUP3 PUSH3 0x1561 JUMP JUMPDEST PUSH1 0x20 DUP3 ADD SWAP1 POP SWAP2 SWAP1 POP JUMP JUMPDEST PUSH1 0x0 PUSH1 0x20 DUP3 ADD SWAP1 POP DUP2 DUP2 SUB PUSH1 0x0 DUP4 ADD MSTORE PUSH3 0x15CC DUP2 PUSH3 0x158A JUMP JUMPDEST SWAP1 POP SWAP2 SWAP1 POP JUMP JUMPDEST PUSH32 0x5061757361626C653A2070617573656400000000000000000000000000000000 PUSH1 0x0 DUP3 ADD MSTORE POP JUMP JUMPDEST PUSH1 0x0 PUSH3 0x160B PUSH1 0x10 DUP4 PUSH3 0x1550 JUMP JUMPDEST SWAP2 POP PUSH3 0x1618 DUP3 PUSH3 0x15D3 JUMP JUMPDEST PUSH1 0x20 DUP3 ADD SWAP1 POP SWAP2 SWAP1 POP JUMP JUMPDEST PUSH1 0x0 PUSH1 0x20 DUP3 ADD SWAP1 POP DUP2 DUP2 SUB PUSH1 0x0 DUP4 ADD MSTORE PUSH3 0x163E DUP2 PUSH3 0x15FC JUMP JUMPDEST SWAP1 POP SWAP2 SWAP1 POP JUMP JUMPDEST PUSH32 0x466163746F7279203A3A20496E636F72726563742074656D706C617465206164 PUSH1 0x0 DUP3 ADD MSTORE PUSH32 0x6472657373000000000000000000000000000000000000000000000000000000 PUSH1 0x20 DUP3 ADD MSTORE POP JUMP JUMPDEST PUSH1 0x0 PUSH3 0x16A3 PUSH1 0x25 DUP4 PUSH3 0x1550 JUMP JUMPDEST SWAP2 POP PUSH3 0x16B0 DUP3 PUSH3 0x1645 JUMP JUMPDEST PUSH1 0x40 DUP3 ADD SWAP1 POP SWAP2 SWAP1 POP JUMP JUMPDEST PUSH1 0x0 PUSH1 0x20 DUP3 ADD SWAP1 POP DUP2 DUP2 SUB PUSH1 0x0 DUP4 ADD MSTORE PUSH3 0x16D6 DUP2 PUSH3 0x1694 JUMP JUMPDEST SWAP1 POP SWAP2 SWAP1 POP JUMP JUMPDEST PUSH1 0x0 DUP2 MLOAD SWAP1 POP SWAP2 SWAP1 POP JUMP JUMPDEST PUSH1 0x0 JUMPDEST DUP4 DUP2 LT ISZERO PUSH3 0x1708 JUMPI DUP1 DUP3 ADD MLOAD DUP2 DUP5 ADD MSTORE PUSH1 0x20 DUP2 ADD SWAP1 POP PUSH3 0x16EB JUMP JUMPDEST DUP4 DUP2 GT ISZERO PUSH3 0x1718 JUMPI PUSH1 0x0 DUP5 DUP5 ADD MSTORE JUMPDEST POP POP POP POP JUMP JUMPDEST PUSH1 0x0 PUSH3 0x172B DUP3 PUSH3 0x16DD JUMP JUMPDEST PUSH3 0x1737 DUP2 DUP6 PUSH3 0x1550 JUMP JUMPDEST SWAP4 POP PUSH3 0x1749 DUP2 DUP6 PUSH1 0x20 DUP7 ADD PUSH3 0x16E8 JUMP JUMPDEST PUSH3 0x1754 DUP2 PUSH3 0x1106 JUMP JUMPDEST DUP5 ADD SWAP2 POP POP SWAP3 SWAP2 POP POP JUMP JUMPDEST PUSH1 0x0 PUSH1 0x60 DUP3 ADD SWAP1 POP PUSH3 0x1776 PUSH1 0x0 DUP4 ADD DUP7 PUSH3 0x1385 JUMP JUMPDEST PUSH3 0x1785 PUSH1 0x20 DUP4 ADD DUP6 PUSH3 0x1385 JUMP JUMPDEST DUP2 DUP2 SUB PUSH1 0x40 DUP4 ADD MSTORE PUSH3 0x1799 DUP2 DUP5 PUSH3 0x171E JUMP JUMPDEST SWAP1 POP SWAP5 SWAP4 POP POP POP POP JUMP JUMPDEST PUSH1 0x0 DUP2 MLOAD SWAP1 POP SWAP2 SWAP1 POP JUMP JUMPDEST PUSH1 0x0 DUP3 DUP3 MSTORE PUSH1 0x20 DUP3 ADD SWAP1 POP SWAP3 SWAP2 POP POP JUMP JUMPDEST PUSH1 0x0 PUSH3 0x17CC DUP3 PUSH3 0x17A3 JUMP JUMPDEST PUSH3 0x17D8 DUP2 DUP6 PUSH3 0x17AE JUMP JUMPDEST SWAP4 POP PUSH3 0x17EA DUP2 DUP6 PUSH1 0x20 DUP7 ADD PUSH3 0x16E8 JUMP JUMPDEST PUSH3 0x17F5 DUP2 PUSH3 0x1106 JUMP JUMPDEST DUP5 ADD SWAP2 POP POP SWAP3 SWAP2 POP POP JUMP JUMPDEST PUSH1 0x0 PUSH1 0x40 DUP3 ADD SWAP1 POP PUSH3 0x1817 PUSH1 0x0 DUP4 ADD DUP6 PUSH3 0x1385 JUMP JUMPDEST DUP2 DUP2 SUB PUSH1 0x20 DUP4 ADD MSTORE PUSH3 0x182B DUP2 DUP5 PUSH3 0x17BF JUMP JUMPDEST SWAP1 POP SWAP4 SWAP3 POP POP POP JUMP JUMPDEST PUSH32 0x4E487B7100000000000000000000000000000000000000000000000000000000 PUSH1 0x0 MSTORE PUSH1 0x11 PUSH1 0x4 MSTORE PUSH1 0x24 PUSH1 0x0 REVERT JUMPDEST PUSH1 0x0 PUSH3 0x1870 DUP3 PUSH3 0x1318 JUMP JUMPDEST SWAP2 POP PUSH32 0xFFFFFFFFFFFFFFFFFFFFFFFFFFFFFFFFFFFFFFFFFFFFFFFFFFFFFFFFFFFFFFFF DUP3 EQ ISZERO PUSH3 0x18A6 JUMPI PUSH3 0x18A5 PUSH3 0x1834 JUMP JUMPDEST JUMPDEST PUSH1 0x1 DUP3 ADD SWAP1 POP SWAP2 SWAP1 POP JUMP JUMPDEST PUSH1 0x0 PUSH3 0x18BE DUP3 PUSH3 0x1318 JUMP JUMPDEST SWAP2 POP PUSH3 0x18CB DUP4 PUSH3 0x1318 JUMP JUMPDEST SWAP3 POP DUP3 DUP3 LT ISZERO PUSH3 0x18E1 JUMPI PUSH3 0x18E0 PUSH3 0x1834 JUMP JUMPDEST JUMPDEST DUP3 DUP3 SUB SWAP1 POP SWAP3 SWAP2 POP POP JUMP JUMPDEST PUSH1 0x0 DUP2 SWAP1 POP SWAP3 SWAP2 POP POP JUMP JUMPDEST PUSH1 0x0 PUSH3 0x1904 DUP3 PUSH3 0x16DD JUMP JUMPDEST PUSH3 0x1910 DUP2 DUP6 PUSH3 0x18EC JUMP JUMPDEST SWAP4 POP PUSH3 0x1922 DUP2 DUP6 PUSH1 0x20 DUP7 ADD PUSH3 0x16E8 JUMP JUMPDEST DUP1 DUP5 ADD SWAP2 POP POP SWAP3 SWAP2 POP POP JUMP JUMPDEST PUSH1 0x0 PUSH3 0x193C DUP3 DUP5 PUSH3 0x18F7 JUMP JUMPDEST SWAP2 POP DUP2 SWAP1 POP SWAP3 SWAP2 POP POP JUMP JUMPDEST PUSH32 0x4F776E61626C653A206E6577206F776E657220697320746865207A65726F2061 PUSH1 0x0 DUP3 ADD MSTORE PUSH32 0x6464726573730000000000000000000000000000000000000000000000000000 PUSH1 0x20 DUP3 ADD MSTORE POP JUMP JUMPDEST PUSH1 0x0 PUSH3 0x19A5 PUSH1 0x26 DUP4 PUSH3 0x1550 JUMP JUMPDEST SWAP2 POP PUSH3 0x19B2 DUP3 PUSH3 0x1947 JUMP JUMPDEST PUSH1 0x40 DUP3 ADD SWAP1 POP SWAP2 SWAP1 POP JUMP JUMPDEST PUSH1 0x0 PUSH1 0x20 DUP3 ADD SWAP1 POP DUP2 DUP2 SUB PUSH1 0x0 DUP4 ADD MSTORE PUSH3 0x19D8 DUP2 PUSH3 0x1996 JUMP JUMPDEST SWAP1 POP SWAP2 SWAP1 POP JUMP JUMPDEST PUSH32 0x5061757361626C653A206E6F7420706175736564000000000000000000000000 PUSH1 0x0 DUP3 ADD MSTORE POP JUMP JUMPDEST PUSH1 0x0 PUSH3 0x1A17 PUSH1 0x14 DUP4 PUSH3 0x1550 JUMP JUMPDEST SWAP2 POP PUSH3 0x1A24 DUP3 PUSH3 0x19DF JUMP JUMPDEST PUSH1 0x20 DUP3 ADD SWAP1 POP SWAP2 SWAP1 POP JUMP JUMPDEST PUSH1 0x0 PUSH1 0x20 DUP3 ADD SWAP1 POP DUP2 DUP2 SUB PUSH1 0x0 DUP4 ADD MSTORE PUSH3 0x1A4A DUP2 PUSH3 0x1A08 JUMP JUMPDEST SWAP1 POP SWAP2 SWAP1 POP JUMP INVALID PUSH1 0x80 PUSH1 0x40 MSTORE CALLVALUE DUP1 ISZERO PUSH2 0x10 JUMPI PUSH1 0x0 DUP1 REVERT JUMPDEST POP PUSH1 0x40 MLOAD PUSH2 0x64D CODESIZE SUB DUP1 PUSH2 0x64D DUP4 CODECOPY DUP2 DUP2 ADD PUSH1 0x40 MSTORE DUP2 ADD SWAP1 PUSH2 0x32 SWAP2 SWAP1 PUSH2 0x3BA JUMP JUMPDEST PUSH1 0x0 PUSH20 0xFFFFFFFFFFFFFFFFFFFFFFFFFFFFFFFFFFFFFFFF AND DUP3 PUSH20 0xFFFFFFFFFFFFFFFFFFFFFFFFFFFFFFFFFFFFFFFF AND EQ ISZERO PUSH2 0xA2 JUMPI PUSH1 0x40 MLOAD PUSH32 0x8C379A000000000000000000000000000000000000000000000000000000000 DUP2 MSTORE PUSH1 0x4 ADD PUSH2 0x99 SWAP1 PUSH2 0x499 JUMP JUMPDEST PUSH1 0x40 MLOAD DUP1 SWAP2 SUB SWAP1 REVERT JUMPDEST DUP2 PUSH2 0xD9 PUSH32 0x5F62CE3C9AEBD463C7A36AB1B244D2BB94F07A2C13889B3B687940EBC467B9B3 PUSH1 0x0 SHL PUSH2 0x1D4 PUSH1 0x20 SHL PUSH2 0x82 OR PUSH1 0x20 SHR JUMP JUMPDEST PUSH1 0x0 ADD PUSH1 0x0 PUSH2 0x100 EXP DUP2 SLOAD DUP2 PUSH20 0xFFFFFFFFFFFFFFFFFFFFFFFFFFFFFFFFFFFFFFFF MUL NOT AND SWAP1 DUP4 PUSH20 0xFFFFFFFFFFFFFFFFFFFFFFFFFFFFFFFFFFFFFFFF AND MUL OR SWAP1 SSTORE POP PUSH1 0x0 DUP1 DUP4 PUSH20 0xFFFFFFFFFFFFFFFFFFFFFFFFFFFFFFFFFFFFFFFF AND DUP4 PUSH1 0x40 MLOAD PUSH2 0x142 SWAP2 SWAP1 PUSH2 0x500 JUMP JUMPDEST PUSH1 0x0 PUSH1 0x40 MLOAD DUP1 DUP4 SUB DUP2 DUP6 GAS DELEGATECALL SWAP2 POP POP RETURNDATASIZE DUP1 PUSH1 0x0 DUP2 EQ PUSH2 0x17D JUMPI PUSH1 0x40 MLOAD SWAP2 POP PUSH1 0x1F NOT PUSH1 0x3F RETURNDATASIZE ADD AND DUP3 ADD PUSH1 0x40 MSTORE RETURNDATASIZE DUP3 MSTORE RETURNDATASIZE PUSH1 0x0 PUSH1 0x20 DUP5 ADD RETURNDATACOPY PUSH2 0x182 JUMP JUMPDEST PUSH1 0x60 SWAP2 POP JUMPDEST POP SWAP2 POP SWAP2 POP DUP2 DUP2 SWAP1 PUSH2 0x1CA JUMPI PUSH1 0x40 MLOAD PUSH32 0x8C379A000000000000000000000000000000000000000000000000000000000 DUP2 MSTORE PUSH1 0x4 ADD PUSH2 0x1C1 SWAP2 SWAP1 PUSH2 0x55B JUMP JUMPDEST PUSH1 0x40 MLOAD DUP1 SWAP2 SUB SWAP1 REVERT JUMPDEST POP POP POP POP POP PUSH2 0x57D JUMP JUMPDEST PUSH1 0x0 DUP2 SWAP1 POP SWAP2 SWAP1 POP JUMP JUMPDEST PUSH1 0x0 PUSH1 0x40 MLOAD SWAP1 POP SWAP1 JUMP JUMPDEST PUSH1 0x0 DUP1 REVERT JUMPDEST PUSH1 0x0 DUP1 REVERT JUMPDEST PUSH1 0x0 PUSH20 0xFFFFFFFFFFFFFFFFFFFFFFFFFFFFFFFFFFFFFFFF DUP3 AND SWAP1 POP SWAP2 SWAP1 POP JUMP JUMPDEST PUSH1 0x0 PUSH2 0x21D DUP3 PUSH2 0x1F2 JUMP JUMPDEST SWAP1 POP SWAP2 SWAP1 POP JUMP JUMPDEST PUSH2 0x22D DUP2 PUSH2 0x212 JUMP JUMPDEST DUP2 EQ PUSH2 0x238 JUMPI PUSH1 0x0 DUP1 REVERT JUMPDEST POP JUMP JUMPDEST PUSH1 0x0 DUP2 MLOAD SWAP1 POP PUSH2 0x24A DUP2 PUSH2 0x224 JUMP JUMPDEST SWAP3 SWAP2 POP POP JUMP JUMPDEST PUSH1 0x0 DUP1 REVERT JUMPDEST PUSH1 0x0 DUP1 REVERT JUMPDEST PUSH1 0x0 PUSH1 0x1F NOT PUSH1 0x1F DUP4 ADD AND SWAP1 POP SWAP2 SWAP1 POP JUMP JUMPDEST PUSH32 0x4E487B7100000000000000000000000000000000000000000000000000000000 PUSH1 0x0 MSTORE PUSH1 0x41 PUSH1 0x4 MSTORE PUSH1 0x24 PUSH1 0x0 REVERT JUMPDEST PUSH2 0x2A3 DUP3 PUSH2 0x25A JUMP JUMPDEST DUP2 ADD DUP2 DUP2 LT PUSH8 0xFFFFFFFFFFFFFFFF DUP3 GT OR ISZERO PUSH2 0x2C2 JUMPI PUSH2 0x2C1 PUSH2 0x26B JUMP JUMPDEST JUMPDEST DUP1 PUSH1 0x40 MSTORE POP POP POP JUMP JUMPDEST PUSH1 0x0 PUSH2 0x2D5 PUSH2 0x1DE JUMP JUMPDEST SWAP1 POP PUSH2 0x2E1 DUP3 DUP3 PUSH2 0x29A JUMP JUMPDEST SWAP2 SWAP1 POP JUMP JUMPDEST PUSH1 0x0 PUSH8 0xFFFFFFFFFFFFFFFF DUP3 GT ISZERO PUSH2 0x301 JUMPI PUSH2 0x300 PUSH2 0x26B JUMP JUMPDEST JUMPDEST PUSH2 0x30A DUP3 PUSH2 0x25A JUMP JUMPDEST SWAP1 POP PUSH1 0x20 DUP2 ADD SWAP1 POP SWAP2 SWAP1 POP JUMP JUMPDEST PUSH1 0x0 JUMPDEST DUP4 DUP2 LT ISZERO PUSH2 0x335 JUMPI DUP1 DUP3 ADD MLOAD DUP2 DUP5 ADD MSTORE PUSH1 0x20 DUP2 ADD SWAP1 POP PUSH2 0x31A JUMP JUMPDEST DUP4 DUP2 GT ISZERO PUSH2 0x344 JUMPI PUSH1 0x0 DUP5 DUP5 ADD MSTORE JUMPDEST POP POP POP POP JUMP JUMPDEST PUSH1 0x0 PUSH2 0x35D PUSH2 0x358 DUP5 PUSH2 0x2E6 JUMP JUMPDEST PUSH2 0x2CB JUMP JUMPDEST SWAP1 POP DUP3 DUP2 MSTORE PUSH1 0x20 DUP2 ADD DUP5 DUP5 DUP5 ADD GT ISZERO PUSH2 0x379 JUMPI PUSH2 0x378 PUSH2 0x255 JUMP JUMPDEST JUMPDEST PUSH2 0x384 DUP5 DUP3 DUP6 PUSH2 0x317 JUMP JUMPDEST POP SWAP4 SWAP3 POP POP POP JUMP JUMPDEST PUSH1 0x0 DUP3 PUSH1 0x1F DUP4 ADD SLT PUSH2 0x3A1 JUMPI PUSH2 0x3A0 PUSH2 0x250 JUMP JUMPDEST JUMPDEST DUP2 MLOAD PUSH2 0x3B1 DUP5 DUP3 PUSH1 0x20 DUP7 ADD PUSH2 0x34A JUMP JUMPDEST SWAP2 POP POP SWAP3 SWAP2 POP POP JUMP JUMPDEST PUSH1 0x0 DUP1 PUSH1 0x40 DUP4 DUP6 SUB SLT ISZERO PUSH2 0x3D1 JUMPI PUSH2 0x3D0 PUSH2 0x1E8 JUMP JUMPDEST JUMPDEST PUSH1 0x0 PUSH2 0x3DF DUP6 DUP3 DUP7 ADD PUSH2 0x23B JUMP JUMPDEST SWAP3 POP POP PUSH1 0x20 DUP4 ADD MLOAD PUSH8 0xFFFFFFFFFFFFFFFF DUP2 GT ISZERO PUSH2 0x400 JUMPI PUSH2 0x3FF PUSH2 0x1ED JUMP JUMPDEST JUMPDEST PUSH2 0x40C DUP6 DUP3 DUP7 ADD PUSH2 0x38C JUMP JUMPDEST SWAP2 POP POP SWAP3 POP SWAP3 SWAP1 POP JUMP JUMPDEST PUSH1 0x0 DUP3 DUP3 MSTORE PUSH1 0x20 DUP3 ADD SWAP1 POP SWAP3 SWAP2 POP POP JUMP JUMPDEST PUSH32 0x50726F7879203A3A204C6F676963616C20636F6E7472616374732063616E6E6F PUSH1 0x0 DUP3 ADD MSTORE PUSH32 0x74206265207A65726F2061646472657373657300000000000000000000000000 PUSH1 0x20 DUP3 ADD MSTORE POP JUMP JUMPDEST PUSH1 0x0 PUSH2 0x483 PUSH1 0x33 DUP4 PUSH2 0x416 JUMP JUMPDEST SWAP2 POP PUSH2 0x48E DUP3 PUSH2 0x427 JUMP JUMPDEST PUSH1 0x40 DUP3 ADD SWAP1 POP SWAP2 SWAP1 POP JUMP JUMPDEST PUSH1 0x0 PUSH1 0x20 DUP3 ADD SWAP1 POP DUP2 DUP2 SUB PUSH1 0x0 DUP4 ADD MSTORE PUSH2 0x4B2 DUP2 PUSH2 0x476 JUMP JUMPDEST SWAP1 POP SWAP2 SWAP1 POP JUMP JUMPDEST PUSH1 0x0 DUP2 MLOAD SWAP1 POP SWAP2 SWAP1 POP JUMP JUMPDEST PUSH1 0x0 DUP2 SWAP1 POP SWAP3 SWAP2 POP POP JUMP JUMPDEST PUSH1 0x0 PUSH2 0x4DA DUP3 PUSH2 0x4B9 JUMP JUMPDEST PUSH2 0x4E4 DUP2 DUP6 PUSH2 0x4C4 JUMP JUMPDEST SWAP4 POP PUSH2 0x4F4 DUP2 DUP6 PUSH1 0x20 DUP7 ADD PUSH2 0x317 JUMP JUMPDEST DUP1 DUP5 ADD SWAP2 POP POP SWAP3 SWAP2 POP POP JUMP JUMPDEST PUSH1 0x0 PUSH2 0x50C DUP3 DUP5 PUSH2 0x4CF JUMP JUMPDEST SWAP2 POP DUP2 SWAP1 POP SWAP3 SWAP2 POP POP JUMP JUMPDEST PUSH1 0x0 DUP2 MLOAD SWAP1 POP SWAP2 SWAP1 POP JUMP JUMPDEST PUSH1 0x0 PUSH2 0x52D DUP3 PUSH2 0x517 JUMP JUMPDEST PUSH2 0x537 DUP2 DUP6 PUSH2 0x416 JUMP JUMPDEST SWAP4 POP PUSH2 0x547 DUP2 DUP6 PUSH1 0x20 DUP7 ADD PUSH2 0x317 JUMP JUMPDEST PUSH2 0x550 DUP2 PUSH2 0x25A JUMP JUMPDEST DUP5 ADD SWAP2 POP POP SWAP3 SWAP2 POP POP JUMP JUMPDEST PUSH1 0x0 PUSH1 0x20 DUP3 ADD SWAP1 POP DUP2 DUP2 SUB PUSH1 0x0 DUP4 ADD MSTORE PUSH2 0x575 DUP2 DUP5 PUSH2 0x522 JUMP JUMPDEST SWAP1 POP SWAP3 SWAP2 POP POP JUMP JUMPDEST PUSH1 0xC2 DUP1 PUSH2 0x58B PUSH1 0x0 CODECOPY PUSH1 0x0 RETURN INVALID PUSH1 0x80 PUSH1 0x40 MSTORE CALLDATASIZE PUSH1 0xA JUMPI STOP JUMPDEST PUSH1 0x0 PUSH1 0x36 PUSH32 0x5F62CE3C9AEBD463C7A36AB1B244D2BB94F07A2C13889B3B687940EBC467B9B3 PUSH1 0x0 SHL PUSH1 0x82 JUMP JUMPDEST PUSH1 0x0 ADD PUSH1 0x0 SWAP1 SLOAD SWAP1 PUSH2 0x100 EXP SWAP1 DIV PUSH20 0xFFFFFFFFFFFFFFFFFFFFFFFFFFFFFFFFFFFFFFFF AND SWAP1 POP PUSH1 0x40 MLOAD CALLDATASIZE PUSH1 0x0 DUP3 CALLDATACOPY PUSH1 0x0 DUP1 CALLDATASIZE DUP4 DUP6 GAS DELEGATECALL RETURNDATASIZE DUP1 PUSH1 0x0 DUP5 RETURNDATACOPY DUP2 PUSH1 0x0 DUP2 EQ PUSH1 0x7E JUMPI DUP2 DUP5 RETURN JUMPDEST DUP2 DUP5 REVERT JUMPDEST PUSH1 0x0 DUP2 SWAP1 POP SWAP2 SWAP1 POP JUMP INVALID LOG2 PUSH5 0x6970667358 0x22 SLT KECCAK256 STOP 0xC1 0x2B 0xFC SWAP9 0xC LOG2 PUSH11 0xCF18CF2E40AD6FBD638DEE 0xE9 0xD7 0xAA ISZERO 0x29 CALLDATASIZE ADDRESS 0xB0 SMOD CALLVALUE PUSH7 0x7EAB64736F6C63 NUMBER STOP ADDMOD EXP STOP CALLER LOG2 PUSH5 0x6970667358 0x22 SLT KECCAK256 DUP5 0xE3 PUSH32 0xAAA54A828DC8289002E57BCCADF082806966D58CDEAE55263C98916C1064736F PUSH13 0x634300080A0033000000000000 "
				},
				"gasEstimates": {
					"creation": {
						"codeDepositCost": "1680800",
						"executionCost": "infinite",
						"totalCost": "infinite"
					},
					"external": {
						"calibrationTemplate(address)": "infinite",
						"lastMint(address)": "infinite",
						"mint(address,string)": "infinite",
						"owner()": "2567",
						"pause()": "infinite",
						"paused()": "2552",
						"renounceOwnership()": "30418",
						"routerTemplateMap(address)": "2869",
						"routers(uint256)": "2929",
						"setLogic(address,bool)": "27276",
						"setUpdataAddresCalibration(string,uint16,address,bool)": "infinite",
						"setting()": "infinite",
						"transferOwnership(address)": "30766",
						"unpause()": "infinite",
						"updataAddresCalibration(string,uint16,address)": "infinite",
						"vaultRouterCount()": "2496"
					}
				},
				"methodIdentifiers": {
					"calibrationTemplate(address)": "e425a4b3",
					"lastMint(address)": "adc20b1c",
					"mint(address,string)": "d0def521",
					"owner()": "8da5cb5b",
					"pause()": "8456cb59",
					"paused()": "5c975abb",
					"renounceOwnership()": "715018a6",
					"routerTemplateMap(address)": "3955d09a",
					"routers(uint256)": "4e9c1118",
					"setLogic(address,bool)": "5f43b6b3",
					"setUpdataAddresCalibration(string,uint16,address,bool)": "d67620d6",
					"setting()": "c0c9ce30",
					"transferOwnership(address)": "f2fde38b",
					"unpause()": "3f4ba83a",
					"updataAddresCalibration(string,uint16,address)": "396a7a5e",
					"vaultRouterCount()": "6f631e6a"
				}
			},
			"storageLayout": {
				"storage": [
					{
						"astId": 67,
						"contract": "contracts/Factory.sol:Factory",
						"label": "_owner",
						"offset": 0,
						"slot": "0",
						"type": "t_address"
					},
					{
						"astId": 472,
						"contract": "contracts/Factory.sol:Factory",
						"label": "_paused",
						"offset": 20,
						"slot": "0",
						"type": "t_bool"
					},
					{
						"astId": 210,
						"contract": "contracts/Factory.sol:Factory",
						"label": "updataAddresCalibration",
						"offset": 0,
						"slot": "1",
						"type": "t_mapping(t_string_memory_ptr,t_mapping(t_uint16,t_mapping(t_address,t_bool)))"
					},
					{
						"astId": 213,
						"contract": "contracts/Factory.sol:Factory",
						"label": "vaultRouterCount",
						"offset": 0,
						"slot": "2",
						"type": "t_uint256"
					},
					{
						"astId": 218,
						"contract": "contracts/Factory.sol:Factory",
						"label": "routers",
						"offset": 0,
						"slot": "3",
						"type": "t_mapping(t_uint256,t_address)"
					},
					{
						"astId": 222,
						"contract": "contracts/Factory.sol:Factory",
						"label": "calibrationTemplate",
						"offset": 0,
						"slot": "4",
						"type": "t_mapping(t_address,t_address)"
					},
					{
						"astId": 230,
						"contract": "contracts/Factory.sol:Factory",
						"label": "routerTemplateMap",
						"offset": 0,
						"slot": "5",
						"type": "t_mapping(t_address,t_bool)"
					},
					{
						"astId": 234,
						"contract": "contracts/Factory.sol:Factory",
						"label": "lastMint",
						"offset": 0,
						"slot": "6",
						"type": "t_mapping(t_address,t_address)"
					}
				],
				"types": {
					"t_address": {
						"encoding": "inplace",
						"label": "address",
						"numberOfBytes": "20"
					},
					"t_bool": {
						"encoding": "inplace",
						"label": "bool",
						"numberOfBytes": "1"
					},
					"t_mapping(t_address,t_address)": {
						"encoding": "mapping",
						"key": "t_address",
						"label": "mapping(address => address)",
						"numberOfBytes": "32",
						"value": "t_address"
					},
					"t_mapping(t_address,t_bool)": {
						"encoding": "mapping",
						"key": "t_address",
						"label": "mapping(address => bool)",
						"numberOfBytes": "32",
						"value": "t_bool"
					},
					"t_mapping(t_string_memory_ptr,t_mapping(t_uint16,t_mapping(t_address,t_bool)))": {
						"encoding": "mapping",
						"key": "t_string_memory_ptr",
						"label": "mapping(string => mapping(uint16 => mapping(address => bool)))",
						"numberOfBytes": "32",
						"value": "t_mapping(t_uint16,t_mapping(t_address,t_bool))"
					},
					"t_mapping(t_uint16,t_mapping(t_address,t_bool))": {
						"encoding": "mapping",
						"key": "t_uint16",
						"label": "mapping(uint16 => mapping(address => bool))",
						"numberOfBytes": "32",
						"value": "t_mapping(t_address,t_bool)"
					},
					"t_mapping(t_uint256,t_address)": {
						"encoding": "mapping",
						"key": "t_uint256",
						"label": "mapping(uint256 => address)",
						"numberOfBytes": "32",
						"value": "t_address"
					},
					"t_string_memory_ptr": {
						"encoding": "bytes",
						"label": "string",
						"numberOfBytes": "32"
					},
					"t_uint16": {
						"encoding": "inplace",
						"label": "uint16",
						"numberOfBytes": "2"
					},
					"t_uint256": {
						"encoding": "inplace",
						"label": "uint256",
						"numberOfBytes": "32"
					}
				}
			},
			"userdoc": {
				"kind": "user",
				"methods": {
					"routerTemplateMap(address)": {
						"notice": "the TokenVault logic contract"
					},
					"routers(uint256)": {
						"notice": "the mapping of vault number to vault router contract"
					},
					"setting()": {
						"notice": "a setting contract controlled by governance"
					},
					"vaultRouterCount()": {
						"notice": "the number of ERC721 vaults router"
					}
				},
				"version": 1
			}
		}
	}
}