{
	"contracts/Factory.sol": {
		"Factory": {
			"abi": [
				{
					"inputs": [
						{
							"internalType": "address",
							"name": "setting_",
							"type": "address"
						}
					],
					"stateMutability": "nonpayable",
					"type": "constructor"
				},
				{
					"anonymous": false,
					"inputs": [
						{
							"indexed": true,
							"internalType": "address",
							"name": "router",
							"type": "address"
						},
						{
							"indexed": true,
							"internalType": "address",
							"name": "template",
							"type": "address"
						},
						{
							"indexed": false,
							"internalType": "uint256",
							"name": "vaultRouterCount",
							"type": "uint256"
						}
					],
					"name": "Mint",
					"type": "event"
				},
				{
					"anonymous": false,
					"inputs": [
						{
							"indexed": true,
							"internalType": "address",
							"name": "previousOwner",
							"type": "address"
						},
						{
							"indexed": true,
							"internalType": "address",
							"name": "newOwner",
							"type": "address"
						}
					],
					"name": "OwnershipTransferred",
					"type": "event"
				},
				{
					"anonymous": false,
					"inputs": [
						{
							"indexed": false,
							"internalType": "address",
							"name": "account",
							"type": "address"
						}
					],
					"name": "Paused",
					"type": "event"
				},
				{
					"anonymous": false,
					"inputs": [
						{
							"indexed": false,
							"internalType": "address",
							"name": "account",
							"type": "address"
						}
					],
					"name": "Unpaused",
					"type": "event"
				},
				{
					"inputs": [
						{
							"internalType": "address",
							"name": "",
							"type": "address"
						}
					],
					"name": "calibrationTemplate",
					"outputs": [
						{
							"internalType": "address",
							"name": "",
							"type": "address"
						}
					],
					"stateMutability": "view",
					"type": "function"
				},
				{
					"inputs": [
						{
							"internalType": "address",
							"name": "",
							"type": "address"
						}
					],
					"name": "lastMint",
					"outputs": [
						{
							"internalType": "address",
							"name": "",
							"type": "address"
						}
					],
					"stateMutability": "view",
					"type": "function"
				},
				{
					"inputs": [
						{
							"internalType": "address",
							"name": "routerTemplate",
							"type": "address"
						},
						{
							"internalType": "string",
							"name": "name",
							"type": "string"
						}
					],
					"name": "mint",
					"outputs": [
						{
							"internalType": "uint256",
							"name": "",
							"type": "uint256"
						}
					],
					"stateMutability": "nonpayable",
					"type": "function"
				},
				{
					"inputs": [],
					"name": "owner",
					"outputs": [
						{
							"internalType": "address",
							"name": "",
							"type": "address"
						}
					],
					"stateMutability": "view",
					"type": "function"
				},
				{
					"inputs": [],
					"name": "pause",
					"outputs": [],
					"stateMutability": "nonpayable",
					"type": "function"
				},
				{
					"inputs": [],
					"name": "paused",
					"outputs": [
						{
							"internalType": "bool",
							"name": "",
							"type": "bool"
						}
					],
					"stateMutability": "view",
					"type": "function"
				},
				{
					"inputs": [],
					"name": "renounceOwnership",
					"outputs": [],
					"stateMutability": "nonpayable",
					"type": "function"
				},
				{
					"inputs": [
						{
							"internalType": "address",
							"name": "",
							"type": "address"
						}
					],
					"name": "routerTemplateMap",
					"outputs": [
						{
							"internalType": "bool",
							"name": "",
							"type": "bool"
						}
					],
					"stateMutability": "view",
					"type": "function"
				},
				{
					"inputs": [
						{
							"internalType": "uint256",
							"name": "",
							"type": "uint256"
						}
					],
					"name": "routers",
					"outputs": [
						{
							"internalType": "address",
							"name": "",
							"type": "address"
						}
					],
					"stateMutability": "view",
					"type": "function"
				},
				{
					"inputs": [
						{
							"internalType": "address",
							"name": "router",
							"type": "address"
						},
						{
							"internalType": "bool",
							"name": "ratify",
							"type": "bool"
						}
					],
					"name": "setLogic",
					"outputs": [],
					"stateMutability": "nonpayable",
					"type": "function"
				},
				{
					"inputs": [
						{
							"internalType": "string",
							"name": "versionsName",
							"type": "string"
						},
						{
							"internalType": "uint16",
							"name": "versions",
							"type": "uint16"
						},
						{
							"internalType": "address",
							"name": "updataTemplate",
							"type": "address"
						},
						{
							"internalType": "bool",
							"name": "isOpen",
							"type": "bool"
						}
					],
					"name": "setUpdataAddresCalibration",
					"outputs": [],
					"stateMutability": "nonpayable",
					"type": "function"
				},
				{
					"inputs": [],
					"name": "setting",
					"outputs": [
						{
							"internalType": "address",
							"name": "",
							"type": "address"
						}
					],
					"stateMutability": "view",
					"type": "function"
				},
				{
					"inputs": [
						{
							"internalType": "address",
							"name": "newOwner",
							"type": "address"
						}
					],
					"name": "transferOwnership",
					"outputs": [],
					"stateMutability": "nonpayable",
					"type": "function"
				},
				{
					"inputs": [],
					"name": "unpause",
					"outputs": [],
					"stateMutability": "nonpayable",
					"type": "function"
				},
				{
					"inputs": [
						{
							"internalType": "string",
							"name": "",
							"type": "string"
						},
						{
							"internalType": "uint16",
							"name": "",
							"type": "uint16"
						},
						{
							"internalType": "address",
							"name": "",
							"type": "address"
						}
					],
					"name": "updataAddresCalibration",
					"outputs": [
						{
							"internalType": "bool",
							"name": "",
							"type": "bool"
						}
					],
					"stateMutability": "view",
					"type": "function"
				},
				{
					"inputs": [],
					"name": "vaultRouterCount",
					"outputs": [
						{
							"internalType": "uint256",
							"name": "",
							"type": "uint256"
						}
					],
					"stateMutability": "view",
					"type": "function"
				}
			],
			"devdoc": {
				"kind": "dev",
				"methods": {
					"owner()": {
						"details": "Returns the address of the current owner."
					},
					"paused()": {
						"details": "Returns true if the contract is paused, and false otherwise."
					},
					"renounceOwnership()": {
						"details": "Leaves the contract without owner. It will not be possible to call `onlyOwner` functions anymore. Can only be called by the current owner. NOTE: Renouncing ownership will leave the contract without an owner, thereby removing any functionality that is only available to the owner."
					},
					"transferOwnership(address)": {
						"details": "Transfers ownership of the contract to a new account (`newOwner`). Can only be called by the current owner."
					}
				},
				"version": 1
			},
			"evm": {
				"assembly": "    /* \"contracts/Factory.sol\":207:2496  contract Factory is Ownable, Pausable {\r... */\n  mstore(0x40, 0xa0)\n    /* \"contracts/Factory.sol\":1190:1251  constructor(address setting_) {\r... */\n  callvalue\n  dup1\n  iszero\n  tag_1\n  jumpi\n  0x00\n  dup1\n  revert\ntag_1:\n  pop\n  mload(0x40)\n  sub(codesize, bytecodeSize)\n  dup1\n  bytecodeSize\n  dup4\n  codecopy\n  dup2\n  dup2\n  add\n  0x40\n  mstore\n  dup2\n  add\n  swap1\n  tag_2\n  swap2\n  swap1\n  tag_3\n  jump\t// in\ntag_2:\n    /* \"@openzeppelin/contracts/access/Ownable.sol\":867:884  address msgSender */\n  0x00\n    /* \"@openzeppelin/contracts/access/Ownable.sol\":887:899  _msgSender() */\n  tag_8\n    /* \"@openzeppelin/contracts/access/Ownable.sol\":887:897  _msgSender */\n  shl(0x20, tag_9)\n    /* \"@openzeppelin/contracts/access/Ownable.sol\":887:899  _msgSender() */\n  0x20\n  shr\n  jump\t// in\ntag_8:\n    /* \"@openzeppelin/contracts/access/Ownable.sol\":867:899  address msgSender = _msgSender() */\n  swap1\n  pop\n    /* \"@openzeppelin/contracts/access/Ownable.sol\":918:927  msgSender */\n  dup1\n    /* \"@openzeppelin/contracts/access/Ownable.sol\":909:915  _owner */\n  0x00\n  dup1\n    /* \"@openzeppelin/contracts/access/Ownable.sol\":909:927  _owner = msgSender */\n  0x0100\n  exp\n  dup2\n  sload\n  dup2\n  0xffffffffffffffffffffffffffffffffffffffff\n  mul\n  not\n  and\n  swap1\n  dup4\n  0xffffffffffffffffffffffffffffffffffffffff\n  and\n  mul\n  or\n  swap1\n  sstore\n  pop\n    /* \"@openzeppelin/contracts/access/Ownable.sol\":975:984  msgSender */\n  dup1\n    /* \"@openzeppelin/contracts/access/Ownable.sol\":942:985  OwnershipTransferred(address(0), msgSender) */\n  0xffffffffffffffffffffffffffffffffffffffff\n  and\n    /* \"@openzeppelin/contracts/access/Ownable.sol\":971:972  0 */\n  0x00\n    /* \"@openzeppelin/contracts/access/Ownable.sol\":942:985  OwnershipTransferred(address(0), msgSender) */\n  0xffffffffffffffffffffffffffffffffffffffff\n  and\n  0x8be0079c531659141344cd1fd0a4f28419497f9722a3daafe3b4186f6b6457e0\n  mload(0x40)\n  mload(0x40)\n  dup1\n  swap2\n  sub\n  swap1\n  log3\n    /* \"@openzeppelin/contracts/access/Ownable.sol\":842:992  constructor () {... */\n  pop\n    /* \"contracts/utils/Pausable.sol\":988:993  false */\n  0x00\n    /* \"contracts/utils/Pausable.sol\":978:985  _paused */\n  dup1\n  0x14\n    /* \"contracts/utils/Pausable.sol\":978:993  _paused = false */\n  0x0100\n  exp\n  dup2\n  sload\n  dup2\n  0xff\n  mul\n  not\n  and\n  swap1\n  dup4\n  iszero\n  iszero\n  mul\n  or\n  swap1\n  sstore\n  pop\n    /* \"contracts/Factory.sol\":1237:1245  setting_ */\n  dup1\n    /* \"contracts/Factory.sol\":1227:1245  setting = setting_ */\n  0xffffffffffffffffffffffffffffffffffffffff\n  and\n  0x80\n  dup2\n  0xffffffffffffffffffffffffffffffffffffffff\n  and\n  0x60\n  shl\n  dup2\n  mstore\n  pop\n  pop\n    /* \"contracts/Factory.sol\":1190:1251  constructor(address setting_) {\r... */\n  pop\n    /* \"contracts/Factory.sol\":207:2496  contract Factory is Ownable, Pausable {\r... */\n  jump(tag_12)\n    /* \"@openzeppelin/contracts/utils/Context.sol\":586:682  function _msgSender() internal view virtual returns (address) {... */\ntag_9:\n    /* \"@openzeppelin/contracts/utils/Context.sol\":639:646  address */\n  0x00\n    /* \"@openzeppelin/contracts/utils/Context.sol\":665:675  msg.sender */\n  caller\n    /* \"@openzeppelin/contracts/utils/Context.sol\":658:675  return msg.sender */\n  swap1\n  pop\n    /* \"@openzeppelin/contracts/utils/Context.sol\":586:682  function _msgSender() internal view virtual returns (address) {... */\n  swap1\n  jump\t// out\n    /* \"#utility.yul\":7:150   */\ntag_15:\n  0x00\n    /* \"#utility.yul\":95:101   */\n  dup2\n    /* \"#utility.yul\":89:102   */\n  mload\n    /* \"#utility.yul\":80:102   */\n  swap1\n  pop\n    /* \"#utility.yul\":111:144   */\n  tag_17\n    /* \"#utility.yul\":138:143   */\n  dup2\n    /* \"#utility.yul\":111:144   */\n  tag_18\n  jump\t// in\ntag_17:\n    /* \"#utility.yul\":70:150   */\n  swap3\n  swap2\n  pop\n  pop\n  jump\t// out\n    /* \"#utility.yul\":156:440   */\ntag_3:\n  0x00\n    /* \"#utility.yul\":275:277   */\n  0x20\n    /* \"#utility.yul\":263:272   */\n  dup3\n    /* \"#utility.yul\":254:261   */\n  dup5\n    /* \"#utility.yul\":250:273   */\n  sub\n    /* \"#utility.yul\":246:278   */\n  slt\n    /* \"#utility.yul\":243:245   */\n  iszero\n  tag_20\n  jumpi\n    /* \"#utility.yul\":291:292   */\n  0x00\n    /* \"#utility.yul\":288:289   */\n  dup1\n    /* \"#utility.yul\":281:293   */\n  revert\n    /* \"#utility.yul\":243:245   */\ntag_20:\n    /* \"#utility.yul\":334:335   */\n  0x00\n    /* \"#utility.yul\":359:423   */\n  tag_21\n    /* \"#utility.yul\":415:422   */\n  dup5\n    /* \"#utility.yul\":406:412   */\n  dup3\n    /* \"#utility.yul\":395:404   */\n  dup6\n    /* \"#utility.yul\":391:413   */\n  add\n    /* \"#utility.yul\":359:423   */\n  tag_15\n  jump\t// in\ntag_21:\n    /* \"#utility.yul\":349:423   */\n  swap2\n  pop\n    /* \"#utility.yul\":305:433   */\n  pop\n    /* \"#utility.yul\":233:440   */\n  swap3\n  swap2\n  pop\n  pop\n  jump\t// out\n    /* \"#utility.yul\":446:542   */\ntag_22:\n  0x00\n    /* \"#utility.yul\":512:536   */\n  tag_24\n    /* \"#utility.yul\":530:535   */\n  dup3\n    /* \"#utility.yul\":512:536   */\n  tag_25\n  jump\t// in\ntag_24:\n    /* \"#utility.yul\":501:536   */\n  swap1\n  pop\n    /* \"#utility.yul\":491:542   */\n  swap2\n  swap1\n  pop\n  jump\t// out\n    /* \"#utility.yul\":548:674   */\ntag_25:\n  0x00\n    /* \"#utility.yul\":625:667   */\n  0xffffffffffffffffffffffffffffffffffffffff\n    /* \"#utility.yul\":618:623   */\n  dup3\n    /* \"#utility.yul\":614:668   */\n  and\n    /* \"#utility.yul\":603:668   */\n  swap1\n  pop\n    /* \"#utility.yul\":593:674   */\n  swap2\n  swap1\n  pop\n  jump\t// out\n    /* \"#utility.yul\":680:802   */\ntag_18:\n    /* \"#utility.yul\":753:777   */\n  tag_28\n    /* \"#utility.yul\":771:776   */\n  dup2\n    /* \"#utility.yul\":753:777   */\n  tag_22\n  jump\t// in\ntag_28:\n    /* \"#utility.yul\":746:751   */\n  dup2\n    /* \"#utility.yul\":743:778   */\n  eq\n    /* \"#utility.yul\":733:735   */\n  tag_29\n  jumpi\n    /* \"#utility.yul\":792:793   */\n  0x00\n    /* \"#utility.yul\":789:790   */\n  dup1\n    /* \"#utility.yul\":782:794   */\n  revert\n    /* \"#utility.yul\":733:735   */\ntag_29:\n    /* \"#utility.yul\":723:802   */\n  pop\n  jump\t// out\n    /* \"contracts/Factory.sol\":207:2496  contract Factory is Ownable, Pausable {\r... */\ntag_12:\n  shr(0x60, mload(0x80))\n  codecopy(0x00, dataOffset(sub_0), dataSize(sub_0))\n  0x00\n  assignImmutable(\"0x18cf413bee22b08ac0c7195db4322442dbcd19e34df721debc25af8855e9fdf2\")\n  return(0x00, dataSize(sub_0))\nstop\n\nsub_0: assembly {\n        /* \"contracts/Factory.sol\":207:2496  contract Factory is Ownable, Pausable {\r... */\n      mstore(0x40, 0x80)\n      callvalue\n      dup1\n      iszero\n      tag_1\n      jumpi\n      0x00\n      dup1\n      revert\n    tag_1:\n      pop\n      jumpi(tag_2, lt(calldatasize, 0x04))\n      shr(0xe0, calldataload(0x00))\n      dup1\n      0x8456cb59\n      gt\n      tag_19\n      jumpi\n      dup1\n      0xd0def521\n      gt\n      tag_20\n      jumpi\n      dup1\n      0xd0def521\n      eq\n      tag_15\n      jumpi\n      dup1\n      0xd67620d6\n      eq\n      tag_16\n      jumpi\n      dup1\n      0xe425a4b3\n      eq\n      tag_17\n      jumpi\n      dup1\n      0xf2fde38b\n      eq\n      tag_18\n      jumpi\n      jump(tag_2)\n    tag_20:\n      dup1\n      0x8456cb59\n      eq\n      tag_11\n      jumpi\n      dup1\n      0x8da5cb5b\n      eq\n      tag_12\n      jumpi\n      dup1\n      0xadc20b1c\n      eq\n      tag_13\n      jumpi\n      dup1\n      0xc0c9ce30\n      eq\n      tag_14\n      jumpi\n      jump(tag_2)\n    tag_19:\n      dup1\n      0x5c975abb\n      gt\n      tag_21\n      jumpi\n      dup1\n      0x5c975abb\n      eq\n      tag_7\n      jumpi\n      dup1\n      0x5f43b6b3\n      eq\n      tag_8\n      jumpi\n      dup1\n      0x6f631e6a\n      eq\n      tag_9\n      jumpi\n      dup1\n      0x715018a6\n      eq\n      tag_10\n      jumpi\n      jump(tag_2)\n    tag_21:\n      dup1\n      0x3955d09a\n      eq\n      tag_3\n      jumpi\n      dup1\n      0x396a7a5e\n      eq\n      tag_4\n      jumpi\n      dup1\n      0x3f4ba83a\n      eq\n      tag_5\n      jumpi\n      dup1\n      0x4e9c1118\n      eq\n      tag_6\n      jumpi\n    tag_2:\n      0x00\n      dup1\n      revert\n        /* \"contracts/Factory.sol\":987:1037  mapping (address => bool) public routerTemplateMap */\n    tag_3:\n      tag_22\n      0x04\n      dup1\n      calldatasize\n      sub\n      dup2\n      add\n      swap1\n      tag_23\n      swap2\n      swap1\n      tag_24\n      jump\t// in\n    tag_23:\n      tag_25\n      jump\t// in\n    tag_22:\n      mload(0x40)\n      tag_26\n      swap2\n      swap1\n      tag_27\n      jump\t// in\n    tag_26:\n      mload(0x40)\n      dup1\n      swap2\n      sub\n      swap1\n      return\n        /* \"contracts/Factory.sol\":375:468  mapping(string => mapping(uint16 => mapping(address => bool))) public updataAddresCalibration */\n    tag_4:\n      tag_28\n      0x04\n      dup1\n      calldatasize\n      sub\n      dup2\n      add\n      swap1\n      tag_29\n      swap2\n      swap1\n      tag_30\n      jump\t// in\n    tag_29:\n      tag_31\n      jump\t// in\n    tag_28:\n      mload(0x40)\n      tag_32\n      swap2\n      swap1\n      tag_27\n      jump\t// in\n    tag_32:\n      mload(0x40)\n      dup1\n      swap2\n      sub\n      swap1\n      return\n        /* \"contracts/Factory.sol\":2430:2491  function unpause() external onlyOwner {\r... */\n    tag_5:\n      tag_33\n      tag_34\n      jump\t// in\n    tag_33:\n      stop\n        /* \"contracts/Factory.sol\":633:675  mapping(uint256 => address) public routers */\n    tag_6:\n      tag_35\n      0x04\n      dup1\n      calldatasize\n      sub\n      dup2\n      add\n      swap1\n      tag_36\n      swap2\n      swap1\n      tag_37\n      jump\t// in\n    tag_36:\n      tag_38\n      jump\t// in\n    tag_35:\n      mload(0x40)\n      tag_39\n      swap2\n      swap1\n      tag_40\n      jump\t// in\n    tag_39:\n      mload(0x40)\n      dup1\n      swap2\n      sub\n      swap1\n      return\n        /* \"contracts/utils/Pausable.sol\":1101:1187  function paused() public view virtual returns (bool) {\r... */\n    tag_7:\n      tag_41\n      tag_42\n      jump\t// in\n    tag_41:\n      mload(0x40)\n      tag_43\n      swap2\n      swap1\n      tag_27\n      jump\t// in\n    tag_43:\n      mload(0x40)\n      dup1\n      swap2\n      sub\n      swap1\n      return\n        /* \"contracts/Factory.sol\":2248:2361  function setLogic(address router, bool ratify) external onlyOwner {\r... */\n    tag_8:\n      tag_44\n      0x04\n      dup1\n      calldatasize\n      sub\n      dup2\n      add\n      swap1\n      tag_45\n      swap2\n      swap1\n      tag_46\n      jump\t// in\n    tag_45:\n      tag_47\n      jump\t// in\n    tag_44:\n      stop\n        /* \"contracts/Factory.sol\":525:556  uint256 public vaultRouterCount */\n    tag_9:\n      tag_48\n      tag_49\n      jump\t// in\n    tag_48:\n      mload(0x40)\n      tag_50\n      swap2\n      swap1\n      tag_51\n      jump\t// in\n    tag_50:\n      mload(0x40)\n      dup1\n      swap2\n      sub\n      swap1\n      return\n        /* \"@openzeppelin/contracts/access/Ownable.sol\":1700:1845  function renounceOwnership() public virtual onlyOwner {... */\n    tag_10:\n      tag_52\n      tag_53\n      jump\t// in\n    tag_52:\n      stop\n        /* \"contracts/Factory.sol\":2367:2424  function pause() external onlyOwner {\r... */\n    tag_11:\n      tag_54\n      tag_55\n      jump\t// in\n    tag_54:\n      stop\n        /* \"@openzeppelin/contracts/access/Ownable.sol\":1068:1153  function owner() public view virtual returns (address) {... */\n    tag_12:\n      tag_56\n      tag_57\n      jump\t// in\n    tag_56:\n      mload(0x40)\n      tag_58\n      swap2\n      swap1\n      tag_40\n      jump\t// in\n    tag_58:\n      mload(0x40)\n      dup1\n      swap2\n      sub\n      swap1\n      return\n        /* \"contracts/Factory.sol\":1044:1088  mapping (address => address) public lastMint */\n    tag_13:\n      tag_59\n      0x04\n      dup1\n      calldatasize\n      sub\n      dup2\n      add\n      swap1\n      tag_60\n      swap2\n      swap1\n      tag_24\n      jump\t// in\n    tag_60:\n      tag_61\n      jump\t// in\n    tag_59:\n      mload(0x40)\n      tag_62\n      swap2\n      swap1\n      tag_40\n      jump\t// in\n    tag_62:\n      mload(0x40)\n      dup1\n      swap2\n      sub\n      swap1\n      return\n        /* \"contracts/Factory.sol\":901:933  address public immutable setting */\n    tag_14:\n      tag_63\n      tag_64\n      jump\t// in\n    tag_63:\n      mload(0x40)\n      tag_65\n      swap2\n      swap1\n      tag_40\n      jump\t// in\n    tag_65:\n      mload(0x40)\n      dup1\n      swap2\n      sub\n      swap1\n      return\n        /* \"contracts/Factory.sol\":1484:2242  function mint(address routerTemplate,string memory name) external whenNotPaused returns(uint256) {\r... */\n    tag_15:\n      tag_66\n      0x04\n      dup1\n      calldatasize\n      sub\n      dup2\n      add\n      swap1\n      tag_67\n      swap2\n      swap1\n      tag_68\n      jump\t// in\n    tag_67:\n      tag_69\n      jump\t// in\n    tag_66:\n      mload(0x40)\n      tag_70\n      swap2\n      swap1\n      tag_51\n      jump\t// in\n    tag_70:\n      mload(0x40)\n      dup1\n      swap2\n      sub\n      swap1\n      return\n        /* \"contracts/Factory.sol\":1260:1478  function setUpdataAddresCalibration(string memory versionsName,uint16 versions,address updataTemplate,bool isOpen) external onlyOwner{\r... */\n    tag_16:\n      tag_71\n      0x04\n      dup1\n      calldatasize\n      sub\n      dup2\n      add\n      swap1\n      tag_72\n      swap2\n      swap1\n      tag_73\n      jump\t// in\n    tag_72:\n      tag_74\n      jump\t// in\n    tag_71:\n      stop\n        /* \"contracts/Factory.sol\":781:835  mapping(address => address) public calibrationTemplate */\n    tag_17:\n      tag_75\n      0x04\n      dup1\n      calldatasize\n      sub\n      dup2\n      add\n      swap1\n      tag_76\n      swap2\n      swap1\n      tag_24\n      jump\t// in\n    tag_76:\n      tag_77\n      jump\t// in\n    tag_75:\n      mload(0x40)\n      tag_78\n      swap2\n      swap1\n      tag_40\n      jump\t// in\n    tag_78:\n      mload(0x40)\n      dup1\n      swap2\n      sub\n      swap1\n      return\n        /* \"@openzeppelin/contracts/access/Ownable.sol\":1994:2234  function transferOwnership(address newOwner) public virtual onlyOwner {... */\n    tag_18:\n      tag_79\n      0x04\n      dup1\n      calldatasize\n      sub\n      dup2\n      add\n      swap1\n      tag_80\n      swap2\n      swap1\n      tag_24\n      jump\t// in\n    tag_80:\n      tag_81\n      jump\t// in\n    tag_79:\n      stop\n        /* \"contracts/Factory.sol\":987:1037  mapping (address => bool) public routerTemplateMap */\n    tag_25:\n      mstore(0x20, 0x05)\n      dup1\n      0x00\n      mstore\n      keccak256(0x00, 0x40)\n      0x00\n      swap2\n      pop\n      sload\n      swap1\n      0x0100\n      exp\n      swap1\n      div\n      0xff\n      and\n      dup2\n      jump\t// out\n        /* \"contracts/Factory.sol\":375:468  mapping(string => mapping(uint16 => mapping(address => bool))) public updataAddresCalibration */\n    tag_31:\n      0x01\n      dup4\n      dup1\n      mload\n      0x20\n      dup2\n      add\n      dup3\n      add\n      dup1\n      mload\n      dup5\n      dup3\n      mstore\n      0x20\n      dup4\n      add\n      0x20\n      dup6\n      add\n      keccak256\n      dup2\n      dup4\n      mstore\n      dup1\n      swap6\n      pop\n      pop\n      pop\n      pop\n      pop\n      pop\n      0x20\n      mstore\n      dup2\n      0x00\n      mstore\n      mstore(0x20, keccak256(0x00, 0x40))\n      dup1\n      0x00\n      mstore\n      keccak256(0x00, 0x40)\n      0x00\n      swap3\n      pop\n      swap3\n      pop\n      pop\n      swap1\n      sload\n      swap1\n      0x0100\n      exp\n      swap1\n      div\n      0xff\n      and\n      dup2\n      jump\t// out\n        /* \"contracts/Factory.sol\":2430:2491  function unpause() external onlyOwner {\r... */\n    tag_34:\n        /* \"@openzeppelin/contracts/access/Ownable.sol\":1291:1303  _msgSender() */\n      tag_83\n        /* \"@openzeppelin/contracts/access/Ownable.sol\":1291:1301  _msgSender */\n      tag_84\n        /* \"@openzeppelin/contracts/access/Ownable.sol\":1291:1303  _msgSender() */\n      jump\t// in\n    tag_83:\n        /* \"@openzeppelin/contracts/access/Ownable.sol\":1280:1303  owner() == _msgSender() */\n      0xffffffffffffffffffffffffffffffffffffffff\n      and\n        /* \"@openzeppelin/contracts/access/Ownable.sol\":1280:1287  owner() */\n      tag_85\n        /* \"@openzeppelin/contracts/access/Ownable.sol\":1280:1285  owner */\n      tag_57\n        /* \"@openzeppelin/contracts/access/Ownable.sol\":1280:1287  owner() */\n      jump\t// in\n    tag_85:\n        /* \"@openzeppelin/contracts/access/Ownable.sol\":1280:1303  owner() == _msgSender() */\n      0xffffffffffffffffffffffffffffffffffffffff\n      and\n      eq\n        /* \"@openzeppelin/contracts/access/Ownable.sol\":1272:1340  require(owner() == _msgSender(), \"Ownable: caller is not the owner\") */\n      tag_86\n      jumpi\n      mload(0x40)\n      0x08c379a000000000000000000000000000000000000000000000000000000000\n      dup2\n      mstore\n      0x04\n      add\n      tag_87\n      swap1\n      tag_88\n      jump\t// in\n    tag_87:\n      mload(0x40)\n      dup1\n      swap2\n      sub\n      swap1\n      revert\n    tag_86:\n        /* \"contracts/Factory.sol\":2475:2485  _unpause() */\n      tag_90\n        /* \"contracts/Factory.sol\":2475:2483  _unpause */\n      tag_91\n        /* \"contracts/Factory.sol\":2475:2485  _unpause() */\n      jump\t// in\n    tag_90:\n        /* \"contracts/Factory.sol\":2430:2491  function unpause() external onlyOwner {\r... */\n      jump\t// out\n        /* \"contracts/Factory.sol\":633:675  mapping(uint256 => address) public routers */\n    tag_38:\n      mstore(0x20, 0x03)\n      dup1\n      0x00\n      mstore\n      keccak256(0x00, 0x40)\n      0x00\n      swap2\n      pop\n      sload\n      swap1\n      0x0100\n      exp\n      swap1\n      div\n      0xffffffffffffffffffffffffffffffffffffffff\n      and\n      dup2\n      jump\t// out\n        /* \"contracts/utils/Pausable.sol\":1101:1187  function paused() public view virtual returns (bool) {\r... */\n    tag_42:\n        /* \"contracts/utils/Pausable.sol\":1148:1152  bool */\n      0x00\n        /* \"contracts/utils/Pausable.sol\":1172:1179  _paused */\n      dup1\n      0x14\n      swap1\n      sload\n      swap1\n      0x0100\n      exp\n      swap1\n      div\n      0xff\n      and\n        /* \"contracts/utils/Pausable.sol\":1165:1179  return _paused */\n      swap1\n      pop\n        /* \"contracts/utils/Pausable.sol\":1101:1187  function paused() public view virtual returns (bool) {\r... */\n      swap1\n      jump\t// out\n        /* \"contracts/Factory.sol\":2248:2361  function setLogic(address router, bool ratify) external onlyOwner {\r... */\n    tag_47:\n        /* \"@openzeppelin/contracts/access/Ownable.sol\":1291:1303  _msgSender() */\n      tag_94\n        /* \"@openzeppelin/contracts/access/Ownable.sol\":1291:1301  _msgSender */\n      tag_84\n        /* \"@openzeppelin/contracts/access/Ownable.sol\":1291:1303  _msgSender() */\n      jump\t// in\n    tag_94:\n        /* \"@openzeppelin/contracts/access/Ownable.sol\":1280:1303  owner() == _msgSender() */\n      0xffffffffffffffffffffffffffffffffffffffff\n      and\n        /* \"@openzeppelin/contracts/access/Ownable.sol\":1280:1287  owner() */\n      tag_95\n        /* \"@openzeppelin/contracts/access/Ownable.sol\":1280:1285  owner */\n      tag_57\n        /* \"@openzeppelin/contracts/access/Ownable.sol\":1280:1287  owner() */\n      jump\t// in\n    tag_95:\n        /* \"@openzeppelin/contracts/access/Ownable.sol\":1280:1303  owner() == _msgSender() */\n      0xffffffffffffffffffffffffffffffffffffffff\n      and\n      eq\n        /* \"@openzeppelin/contracts/access/Ownable.sol\":1272:1340  require(owner() == _msgSender(), \"Ownable: caller is not the owner\") */\n      tag_96\n      jumpi\n      mload(0x40)\n      0x08c379a000000000000000000000000000000000000000000000000000000000\n      dup2\n      mstore\n      0x04\n      add\n      tag_97\n      swap1\n      tag_88\n      jump\t// in\n    tag_97:\n      mload(0x40)\n      dup1\n      swap2\n      sub\n      swap1\n      revert\n    tag_96:\n        /* \"contracts/Factory.sol\":2349:2355  ratify */\n      dup1\n        /* \"contracts/Factory.sol\":2321:2338  routerTemplateMap */\n      0x05\n        /* \"contracts/Factory.sol\":2321:2346  routerTemplateMap[router] */\n      0x00\n        /* \"contracts/Factory.sol\":2339:2345  router */\n      dup5\n        /* \"contracts/Factory.sol\":2321:2346  routerTemplateMap[router] */\n      0xffffffffffffffffffffffffffffffffffffffff\n      and\n      0xffffffffffffffffffffffffffffffffffffffff\n      and\n      dup2\n      mstore\n      0x20\n      add\n      swap1\n      dup2\n      mstore\n      0x20\n      add\n      0x00\n      keccak256\n      0x00\n        /* \"contracts/Factory.sol\":2321:2355  routerTemplateMap[router] = ratify */\n      0x0100\n      exp\n      dup2\n      sload\n      dup2\n      0xff\n      mul\n      not\n      and\n      swap1\n      dup4\n      iszero\n      iszero\n      mul\n      or\n      swap1\n      sstore\n      pop\n        /* \"contracts/Factory.sol\":2248:2361  function setLogic(address router, bool ratify) external onlyOwner {\r... */\n      pop\n      pop\n      jump\t// out\n        /* \"contracts/Factory.sol\":525:556  uint256 public vaultRouterCount */\n    tag_49:\n      sload(0x02)\n      dup2\n      jump\t// out\n        /* \"@openzeppelin/contracts/access/Ownable.sol\":1700:1845  function renounceOwnership() public virtual onlyOwner {... */\n    tag_53:\n        /* \"@openzeppelin/contracts/access/Ownable.sol\":1291:1303  _msgSender() */\n      tag_100\n        /* \"@openzeppelin/contracts/access/Ownable.sol\":1291:1301  _msgSender */\n      tag_84\n        /* \"@openzeppelin/contracts/access/Ownable.sol\":1291:1303  _msgSender() */\n      jump\t// in\n    tag_100:\n        /* \"@openzeppelin/contracts/access/Ownable.sol\":1280:1303  owner() == _msgSender() */\n      0xffffffffffffffffffffffffffffffffffffffff\n      and\n        /* \"@openzeppelin/contracts/access/Ownable.sol\":1280:1287  owner() */\n      tag_101\n        /* \"@openzeppelin/contracts/access/Ownable.sol\":1280:1285  owner */\n      tag_57\n        /* \"@openzeppelin/contracts/access/Ownable.sol\":1280:1287  owner() */\n      jump\t// in\n    tag_101:\n        /* \"@openzeppelin/contracts/access/Ownable.sol\":1280:1303  owner() == _msgSender() */\n      0xffffffffffffffffffffffffffffffffffffffff\n      and\n      eq\n        /* \"@openzeppelin/contracts/access/Ownable.sol\":1272:1340  require(owner() == _msgSender(), \"Ownable: caller is not the owner\") */\n      tag_102\n      jumpi\n      mload(0x40)\n      0x08c379a000000000000000000000000000000000000000000000000000000000\n      dup2\n      mstore\n      0x04\n      add\n      tag_103\n      swap1\n      tag_88\n      jump\t// in\n    tag_103:\n      mload(0x40)\n      dup1\n      swap2\n      sub\n      swap1\n      revert\n    tag_102:\n        /* \"@openzeppelin/contracts/access/Ownable.sol\":1806:1807  0 */\n      0x00\n        /* \"@openzeppelin/contracts/access/Ownable.sol\":1769:1809  OwnershipTransferred(_owner, address(0)) */\n      0xffffffffffffffffffffffffffffffffffffffff\n      and\n        /* \"@openzeppelin/contracts/access/Ownable.sol\":1790:1796  _owner */\n      0x00\n      dup1\n      sload\n      swap1\n      0x0100\n      exp\n      swap1\n      div\n      0xffffffffffffffffffffffffffffffffffffffff\n      and\n        /* \"@openzeppelin/contracts/access/Ownable.sol\":1769:1809  OwnershipTransferred(_owner, address(0)) */\n      0xffffffffffffffffffffffffffffffffffffffff\n      and\n      0x8be0079c531659141344cd1fd0a4f28419497f9722a3daafe3b4186f6b6457e0\n      mload(0x40)\n      mload(0x40)\n      dup1\n      swap2\n      sub\n      swap1\n      log3\n        /* \"@openzeppelin/contracts/access/Ownable.sol\":1836:1837  0 */\n      0x00\n        /* \"@openzeppelin/contracts/access/Ownable.sol\":1819:1825  _owner */\n      dup1\n      0x00\n        /* \"@openzeppelin/contracts/access/Ownable.sol\":1819:1838  _owner = address(0) */\n      0x0100\n      exp\n      dup2\n      sload\n      dup2\n      0xffffffffffffffffffffffffffffffffffffffff\n      mul\n      not\n      and\n      swap1\n      dup4\n      0xffffffffffffffffffffffffffffffffffffffff\n      and\n      mul\n      or\n      swap1\n      sstore\n      pop\n        /* \"@openzeppelin/contracts/access/Ownable.sol\":1700:1845  function renounceOwnership() public virtual onlyOwner {... */\n      jump\t// out\n        /* \"contracts/Factory.sol\":2367:2424  function pause() external onlyOwner {\r... */\n    tag_55:\n        /* \"@openzeppelin/contracts/access/Ownable.sol\":1291:1303  _msgSender() */\n      tag_106\n        /* \"@openzeppelin/contracts/access/Ownable.sol\":1291:1301  _msgSender */\n      tag_84\n        /* \"@openzeppelin/contracts/access/Ownable.sol\":1291:1303  _msgSender() */\n      jump\t// in\n    tag_106:\n        /* \"@openzeppelin/contracts/access/Ownable.sol\":1280:1303  owner() == _msgSender() */\n      0xffffffffffffffffffffffffffffffffffffffff\n      and\n        /* \"@openzeppelin/contracts/access/Ownable.sol\":1280:1287  owner() */\n      tag_107\n        /* \"@openzeppelin/contracts/access/Ownable.sol\":1280:1285  owner */\n      tag_57\n        /* \"@openzeppelin/contracts/access/Ownable.sol\":1280:1287  owner() */\n      jump\t// in\n    tag_107:\n        /* \"@openzeppelin/contracts/access/Ownable.sol\":1280:1303  owner() == _msgSender() */\n      0xffffffffffffffffffffffffffffffffffffffff\n      and\n      eq\n        /* \"@openzeppelin/contracts/access/Ownable.sol\":1272:1340  require(owner() == _msgSender(), \"Ownable: caller is not the owner\") */\n      tag_108\n      jumpi\n      mload(0x40)\n      0x08c379a000000000000000000000000000000000000000000000000000000000\n      dup2\n      mstore\n      0x04\n      add\n      tag_109\n      swap1\n      tag_88\n      jump\t// in\n    tag_109:\n      mload(0x40)\n      dup1\n      swap2\n      sub\n      swap1\n      revert\n    tag_108:\n        /* \"contracts/Factory.sol\":2410:2418  _pause() */\n      tag_111\n        /* \"contracts/Factory.sol\":2410:2416  _pause */\n      tag_112\n        /* \"contracts/Factory.sol\":2410:2418  _pause() */\n      jump\t// in\n    tag_111:\n        /* \"contracts/Factory.sol\":2367:2424  function pause() external onlyOwner {\r... */\n      jump\t// out\n        /* \"@openzeppelin/contracts/access/Ownable.sol\":1068:1153  function owner() public view virtual returns (address) {... */\n    tag_57:\n        /* \"@openzeppelin/contracts/access/Ownable.sol\":1114:1121  address */\n      0x00\n        /* \"@openzeppelin/contracts/access/Ownable.sol\":1140:1146  _owner */\n      dup1\n      0x00\n      swap1\n      sload\n      swap1\n      0x0100\n      exp\n      swap1\n      div\n      0xffffffffffffffffffffffffffffffffffffffff\n      and\n        /* \"@openzeppelin/contracts/access/Ownable.sol\":1133:1146  return _owner */\n      swap1\n      pop\n        /* \"@openzeppelin/contracts/access/Ownable.sol\":1068:1153  function owner() public view virtual returns (address) {... */\n      swap1\n      jump\t// out\n        /* \"contracts/Factory.sol\":1044:1088  mapping (address => address) public lastMint */\n    tag_61:\n      mstore(0x20, 0x06)\n      dup1\n      0x00\n      mstore\n      keccak256(0x00, 0x40)\n      0x00\n      swap2\n      pop\n      sload\n      swap1\n      0x0100\n      exp\n      swap1\n      div\n      0xffffffffffffffffffffffffffffffffffffffff\n      and\n      dup2\n      jump\t// out\n        /* \"contracts/Factory.sol\":901:933  address public immutable setting */\n    tag_64:\n      immutable(\"0x18cf413bee22b08ac0c7195db4322442dbcd19e34df721debc25af8855e9fdf2\")\n      dup2\n      jump\t// out\n        /* \"contracts/Factory.sol\":1484:2242  function mint(address routerTemplate,string memory name) external whenNotPaused returns(uint256) {\r... */\n    tag_69:\n        /* \"contracts/Factory.sol\":1572:1579  uint256 */\n      0x00\n        /* \"contracts/utils/Pausable.sol\":1427:1435  paused() */\n      tag_115\n        /* \"contracts/utils/Pausable.sol\":1427:1433  paused */\n      tag_42\n        /* \"contracts/utils/Pausable.sol\":1427:1435  paused() */\n      jump\t// in\n    tag_115:\n        /* \"contracts/utils/Pausable.sol\":1426:1435  !paused() */\n      iszero\n        /* \"contracts/utils/Pausable.sol\":1418:1456  require(!paused(), \"Pausable: paused\") */\n      tag_116\n      jumpi\n      mload(0x40)\n      0x08c379a000000000000000000000000000000000000000000000000000000000\n      dup2\n      mstore\n      0x04\n      add\n      tag_117\n      swap1\n      tag_118\n      jump\t// in\n    tag_117:\n      mload(0x40)\n      dup1\n      swap2\n      sub\n      swap1\n      revert\n    tag_116:\n        /* \"contracts/Factory.sol\":1596:1613  routerTemplateMap */\n      0x05\n        /* \"contracts/Factory.sol\":1596:1629  routerTemplateMap[routerTemplate] */\n      0x00\n        /* \"contracts/Factory.sol\":1614:1628  routerTemplate */\n      dup5\n        /* \"contracts/Factory.sol\":1596:1629  routerTemplateMap[routerTemplate] */\n      0xffffffffffffffffffffffffffffffffffffffff\n      and\n      0xffffffffffffffffffffffffffffffffffffffff\n      and\n      dup2\n      mstore\n      0x20\n      add\n      swap1\n      dup2\n      mstore\n      0x20\n      add\n      0x00\n      keccak256\n      0x00\n      swap1\n      sload\n      swap1\n      0x0100\n      exp\n      swap1\n      div\n      0xff\n      and\n        /* \"contracts/Factory.sol\":1588:1671  require(routerTemplateMap[routerTemplate], \"Factory :: Incorrect template address\") */\n      tag_120\n      jumpi\n      mload(0x40)\n      0x08c379a000000000000000000000000000000000000000000000000000000000\n      dup2\n      mstore\n      0x04\n      add\n      tag_121\n      swap1\n      tag_122\n      jump\t// in\n    tag_121:\n      mload(0x40)\n      dup1\n      swap2\n      sub\n      swap1\n      revert\n    tag_120:\n        /* \"contracts/Factory.sol\":1680:1716  bytes memory _initializationCalldata */\n      0x00\n        /* \"contracts/Factory.sol\":1796:1806  msg.sender */\n      caller\n        /* \"contracts/Factory.sol\":1815:1822  setting */\n      immutable(\"0x18cf413bee22b08ac0c7195db4322442dbcd19e34df721debc25af8855e9fdf2\")\n        /* \"contracts/Factory.sol\":1831:1835  name */\n      dup5\n        /* \"contracts/Factory.sol\":1719:1842  abi.encodeWithSignature(\r... */\n      add(0x24, mload(0x40))\n      tag_123\n      swap4\n      swap3\n      swap2\n      swap1\n      tag_124\n      jump\t// in\n    tag_123:\n      mload(0x40)\n      0x20\n      dup2\n      dup4\n      sub\n      sub\n      dup2\n      mstore\n      swap1\n      0x40\n      mstore\n      and(not(0xffffffffffffffffffffffffffffffffffffffffffffffffffffffff), 0x4571e3a600000000000000000000000000000000000000000000000000000000)\n      0x20\n      dup3\n      add\n      dup1\n      mload\n      0xffffffffffffffffffffffffffffffffffffffffffffffffffffffff\n      dup4\n      dup2\n      dup4\n      and\n      or\n      dup4\n      mstore\n      pop\n      pop\n      pop\n      pop\n        /* \"contracts/Factory.sol\":1680:1842  bytes memory _initializationCalldata = abi.encodeWithSignature(\r... */\n      swap1\n      pop\n        /* \"contracts/Factory.sol\":1851:1865  address router */\n      0x00\n        /* \"contracts/Factory.sol\":1915:1929  routerTemplate */\n      dup5\n        /* \"contracts/Factory.sol\":1940:1963  _initializationCalldata */\n      dup3\n        /* \"contracts/Factory.sol\":1884:1972  new InitializedProxy(\r... */\n      mload(0x40)\n      tag_125\n      swap1\n      tag_126\n      jump\t// in\n    tag_125:\n      tag_127\n      swap3\n      swap2\n      swap1\n      tag_128\n      jump\t// in\n    tag_127:\n      mload(0x40)\n      dup1\n      swap2\n      sub\n      swap1\n      0x00\n      create\n      dup1\n      iszero\n      dup1\n      iszero\n      tag_129\n      jumpi\n      returndatasize\n      0x00\n      dup1\n      returndatacopy\n      revert(0x00, returndatasize)\n    tag_129:\n      pop\n        /* \"contracts/Factory.sol\":1851:1979  address router = address(\r... */\n      swap1\n      pop\n        /* \"contracts/Factory.sol\":2011:2025  routerTemplate */\n      dup5\n        /* \"contracts/Factory.sol\":1997:2045  Mint( router, routerTemplate , vaultRouterCount) */\n      0xffffffffffffffffffffffffffffffffffffffff\n      and\n        /* \"contracts/Factory.sol\":2003:2009  router */\n      dup2\n        /* \"contracts/Factory.sol\":1997:2045  Mint( router, routerTemplate , vaultRouterCount) */\n      0xffffffffffffffffffffffffffffffffffffffff\n      and\n      0xab8530f87dc9b59234c4623bf917212bb2536d647574c8e7e5da92c2ede0c9f8\n        /* \"contracts/Factory.sol\":2028:2044  vaultRouterCount */\n      sload(0x02)\n        /* \"contracts/Factory.sol\":1997:2045  Mint( router, routerTemplate , vaultRouterCount) */\n      mload(0x40)\n      tag_130\n      swap2\n      swap1\n      tag_51\n      jump\t// in\n    tag_130:\n      mload(0x40)\n      dup1\n      swap2\n      sub\n      swap1\n      log3\n        /* \"contracts/Factory.sol\":2082:2088  router */\n      dup1\n        /* \"contracts/Factory.sol\":2054:2061  routers */\n      0x03\n        /* \"contracts/Factory.sol\":2054:2079  routers[vaultRouterCount] */\n      0x00\n        /* \"contracts/Factory.sol\":2062:2078  vaultRouterCount */\n      sload(0x02)\n        /* \"contracts/Factory.sol\":2054:2079  routers[vaultRouterCount] */\n      dup2\n      mstore\n      0x20\n      add\n      swap1\n      dup2\n      mstore\n      0x20\n      add\n      0x00\n      keccak256\n      0x00\n        /* \"contracts/Factory.sol\":2054:2088  routers[vaultRouterCount] = router */\n      0x0100\n      exp\n      dup2\n      sload\n      dup2\n      0xffffffffffffffffffffffffffffffffffffffff\n      mul\n      not\n      and\n      swap1\n      dup4\n      0xffffffffffffffffffffffffffffffffffffffff\n      and\n      mul\n      or\n      swap1\n      sstore\n      pop\n        /* \"contracts/Factory.sol\":2118:2124  router */\n      dup1\n        /* \"contracts/Factory.sol\":2095:2103  lastMint */\n      0x06\n        /* \"contracts/Factory.sol\":2095:2115  lastMint[msg.sender] */\n      0x00\n        /* \"contracts/Factory.sol\":2104:2114  msg.sender */\n      caller\n        /* \"contracts/Factory.sol\":2095:2115  lastMint[msg.sender] */\n      0xffffffffffffffffffffffffffffffffffffffff\n      and\n      0xffffffffffffffffffffffffffffffffffffffff\n      and\n      dup2\n      mstore\n      0x20\n      add\n      swap1\n      dup2\n      mstore\n      0x20\n      add\n      0x00\n      keccak256\n      0x00\n        /* \"contracts/Factory.sol\":2095:2124  lastMint[msg.sender] = router */\n      0x0100\n      exp\n      dup2\n      sload\n      dup2\n      0xffffffffffffffffffffffffffffffffffffffff\n      mul\n      not\n      and\n      swap1\n      dup4\n      0xffffffffffffffffffffffffffffffffffffffff\n      and\n      mul\n      or\n      swap1\n      sstore\n      pop\n        /* \"contracts/Factory.sol\":2161:2175  routerTemplate */\n      dup5\n        /* \"contracts/Factory.sol\":2131:2150  calibrationTemplate */\n      0x04\n        /* \"contracts/Factory.sol\":2131:2158  calibrationTemplate[router] */\n      0x00\n        /* \"contracts/Factory.sol\":2151:2157  router */\n      dup4\n        /* \"contracts/Factory.sol\":2131:2158  calibrationTemplate[router] */\n      0xffffffffffffffffffffffffffffffffffffffff\n      and\n      0xffffffffffffffffffffffffffffffffffffffff\n      and\n      dup2\n      mstore\n      0x20\n      add\n      swap1\n      dup2\n      mstore\n      0x20\n      add\n      0x00\n      keccak256\n      0x00\n        /* \"contracts/Factory.sol\":2131:2175  calibrationTemplate[router] = routerTemplate */\n      0x0100\n      exp\n      dup2\n      sload\n      dup2\n      0xffffffffffffffffffffffffffffffffffffffff\n      mul\n      not\n      and\n      swap1\n      dup4\n      0xffffffffffffffffffffffffffffffffffffffff\n      and\n      mul\n      or\n      swap1\n      sstore\n      pop\n        /* \"contracts/Factory.sol\":2182:2198  vaultRouterCount */\n      0x02\n      0x00\n        /* \"contracts/Factory.sol\":2182:2200  vaultRouterCount++ */\n      dup2\n      sload\n      dup1\n      swap3\n      swap2\n      swap1\n      tag_131\n      swap1\n      tag_132\n      jump\t// in\n    tag_131:\n      swap2\n      swap1\n      pop\n      sstore\n      pop\n        /* \"contracts/Factory.sol\":2235:2236  1 */\n      0x01\n        /* \"contracts/Factory.sol\":2216:2232  vaultRouterCount */\n      sload(0x02)\n        /* \"contracts/Factory.sol\":2216:2236  vaultRouterCount - 1 */\n      tag_133\n      swap2\n      swap1\n      tag_134\n      jump\t// in\n    tag_133:\n        /* \"contracts/Factory.sol\":2209:2236  return vaultRouterCount - 1 */\n      swap3\n      pop\n      pop\n      pop\n        /* \"contracts/Factory.sol\":1484:2242  function mint(address routerTemplate,string memory name) external whenNotPaused returns(uint256) {\r... */\n      swap3\n      swap2\n      pop\n      pop\n      jump\t// out\n        /* \"contracts/Factory.sol\":1260:1478  function setUpdataAddresCalibration(string memory versionsName,uint16 versions,address updataTemplate,bool isOpen) external onlyOwner{\r... */\n    tag_74:\n        /* \"@openzeppelin/contracts/access/Ownable.sol\":1291:1303  _msgSender() */\n      tag_136\n        /* \"@openzeppelin/contracts/access/Ownable.sol\":1291:1301  _msgSender */\n      tag_84\n        /* \"@openzeppelin/contracts/access/Ownable.sol\":1291:1303  _msgSender() */\n      jump\t// in\n    tag_136:\n        /* \"@openzeppelin/contracts/access/Ownable.sol\":1280:1303  owner() == _msgSender() */\n      0xffffffffffffffffffffffffffffffffffffffff\n      and\n        /* \"@openzeppelin/contracts/access/Ownable.sol\":1280:1287  owner() */\n      tag_137\n        /* \"@openzeppelin/contracts/access/Ownable.sol\":1280:1285  owner */\n      tag_57\n        /* \"@openzeppelin/contracts/access/Ownable.sol\":1280:1287  owner() */\n      jump\t// in\n    tag_137:\n        /* \"@openzeppelin/contracts/access/Ownable.sol\":1280:1303  owner() == _msgSender() */\n      0xffffffffffffffffffffffffffffffffffffffff\n      and\n      eq\n        /* \"@openzeppelin/contracts/access/Ownable.sol\":1272:1340  require(owner() == _msgSender(), \"Ownable: caller is not the owner\") */\n      tag_138\n      jumpi\n      mload(0x40)\n      0x08c379a000000000000000000000000000000000000000000000000000000000\n      dup2\n      mstore\n      0x04\n      add\n      tag_139\n      swap1\n      tag_88\n      jump\t// in\n    tag_139:\n      mload(0x40)\n      dup1\n      swap2\n      sub\n      swap1\n      revert\n    tag_138:\n        /* \"contracts/Factory.sol\":1466:1472  isOpen */\n      dup1\n        /* \"contracts/Factory.sol\":1400:1423  updataAddresCalibration */\n      0x01\n        /* \"contracts/Factory.sol\":1424:1436  versionsName */\n      dup6\n        /* \"contracts/Factory.sol\":1400:1437  updataAddresCalibration[versionsName] */\n      mload(0x40)\n      tag_141\n      swap2\n      swap1\n      tag_142\n      jump\t// in\n    tag_141:\n      swap1\n      dup2\n      mstore\n      0x20\n      add\n      mload(0x40)\n      dup1\n      swap2\n      sub\n      swap1\n      keccak256\n        /* \"contracts/Factory.sol\":1400:1447  updataAddresCalibration[versionsName][versions] */\n      0x00\n        /* \"contracts/Factory.sol\":1438:1446  versions */\n      dup6\n        /* \"contracts/Factory.sol\":1400:1447  updataAddresCalibration[versionsName][versions] */\n      0xffff\n      and\n      0xffff\n      and\n      dup2\n      mstore\n      0x20\n      add\n      swap1\n      dup2\n      mstore\n      0x20\n      add\n      0x00\n      keccak256\n        /* \"contracts/Factory.sol\":1400:1463  updataAddresCalibration[versionsName][versions][updataTemplate] */\n      0x00\n        /* \"contracts/Factory.sol\":1448:1462  updataTemplate */\n      dup5\n        /* \"contracts/Factory.sol\":1400:1463  updataAddresCalibration[versionsName][versions][updataTemplate] */\n      0xffffffffffffffffffffffffffffffffffffffff\n      and\n      0xffffffffffffffffffffffffffffffffffffffff\n      and\n      dup2\n      mstore\n      0x20\n      add\n      swap1\n      dup2\n      mstore\n      0x20\n      add\n      0x00\n      keccak256\n      0x00\n        /* \"contracts/Factory.sol\":1400:1472  updataAddresCalibration[versionsName][versions][updataTemplate] = isOpen */\n      0x0100\n      exp\n      dup2\n      sload\n      dup2\n      0xff\n      mul\n      not\n      and\n      swap1\n      dup4\n      iszero\n      iszero\n      mul\n      or\n      swap1\n      sstore\n      pop\n        /* \"contracts/Factory.sol\":1260:1478  function setUpdataAddresCalibration(string memory versionsName,uint16 versions,address updataTemplate,bool isOpen) external onlyOwner{\r... */\n      pop\n      pop\n      pop\n      pop\n      jump\t// out\n        /* \"contracts/Factory.sol\":781:835  mapping(address => address) public calibrationTemplate */\n    tag_77:\n      mstore(0x20, 0x04)\n      dup1\n      0x00\n      mstore\n      keccak256(0x00, 0x40)\n      0x00\n      swap2\n      pop\n      sload\n      swap1\n      0x0100\n      exp\n      swap1\n      div\n      0xffffffffffffffffffffffffffffffffffffffff\n      and\n      dup2\n      jump\t// out\n        /* \"@openzeppelin/contracts/access/Ownable.sol\":1994:2234  function transferOwnership(address newOwner) public virtual onlyOwner {... */\n    tag_81:\n        /* \"@openzeppelin/contracts/access/Ownable.sol\":1291:1303  _msgSender() */\n      tag_144\n        /* \"@openzeppelin/contracts/access/Ownable.sol\":1291:1301  _msgSender */\n      tag_84\n        /* \"@openzeppelin/contracts/access/Ownable.sol\":1291:1303  _msgSender() */\n      jump\t// in\n    tag_144:\n        /* \"@openzeppelin/contracts/access/Ownable.sol\":1280:1303  owner() == _msgSender() */\n      0xffffffffffffffffffffffffffffffffffffffff\n      and\n        /* \"@openzeppelin/contracts/access/Ownable.sol\":1280:1287  owner() */\n      tag_145\n        /* \"@openzeppelin/contracts/access/Ownable.sol\":1280:1285  owner */\n      tag_57\n        /* \"@openzeppelin/contracts/access/Ownable.sol\":1280:1287  owner() */\n      jump\t// in\n    tag_145:\n        /* \"@openzeppelin/contracts/access/Ownable.sol\":1280:1303  owner() == _msgSender() */\n      0xffffffffffffffffffffffffffffffffffffffff\n      and\n      eq\n        /* \"@openzeppelin/contracts/access/Ownable.sol\":1272:1340  require(owner() == _msgSender(), \"Ownable: caller is not the owner\") */\n      tag_146\n      jumpi\n      mload(0x40)\n      0x08c379a000000000000000000000000000000000000000000000000000000000\n      dup2\n      mstore\n      0x04\n      add\n      tag_147\n      swap1\n      tag_88\n      jump\t// in\n    tag_147:\n      mload(0x40)\n      dup1\n      swap2\n      sub\n      swap1\n      revert\n    tag_146:\n        /* \"@openzeppelin/contracts/access/Ownable.sol\":2102:2103  0 */\n      0x00\n        /* \"@openzeppelin/contracts/access/Ownable.sol\":2082:2104  newOwner != address(0) */\n      0xffffffffffffffffffffffffffffffffffffffff\n      and\n        /* \"@openzeppelin/contracts/access/Ownable.sol\":2082:2090  newOwner */\n      dup2\n        /* \"@openzeppelin/contracts/access/Ownable.sol\":2082:2104  newOwner != address(0) */\n      0xffffffffffffffffffffffffffffffffffffffff\n      and\n      eq\n      iszero\n        /* \"@openzeppelin/contracts/access/Ownable.sol\":2074:2147  require(newOwner != address(0), \"Ownable: new owner is the zero address\") */\n      tag_149\n      jumpi\n      mload(0x40)\n      0x08c379a000000000000000000000000000000000000000000000000000000000\n      dup2\n      mstore\n      0x04\n      add\n      tag_150\n      swap1\n      tag_151\n      jump\t// in\n    tag_150:\n      mload(0x40)\n      dup1\n      swap2\n      sub\n      swap1\n      revert\n    tag_149:\n        /* \"@openzeppelin/contracts/access/Ownable.sol\":2191:2199  newOwner */\n      dup1\n        /* \"@openzeppelin/contracts/access/Ownable.sol\":2162:2200  OwnershipTransferred(_owner, newOwner) */\n      0xffffffffffffffffffffffffffffffffffffffff\n      and\n        /* \"@openzeppelin/contracts/access/Ownable.sol\":2183:2189  _owner */\n      0x00\n      dup1\n      sload\n      swap1\n      0x0100\n      exp\n      swap1\n      div\n      0xffffffffffffffffffffffffffffffffffffffff\n      and\n        /* \"@openzeppelin/contracts/access/Ownable.sol\":2162:2200  OwnershipTransferred(_owner, newOwner) */\n      0xffffffffffffffffffffffffffffffffffffffff\n      and\n      0x8be0079c531659141344cd1fd0a4f28419497f9722a3daafe3b4186f6b6457e0\n      mload(0x40)\n      mload(0x40)\n      dup1\n      swap2\n      sub\n      swap1\n      log3\n        /* \"@openzeppelin/contracts/access/Ownable.sol\":2219:2227  newOwner */\n      dup1\n        /* \"@openzeppelin/contracts/access/Ownable.sol\":2210:2216  _owner */\n      0x00\n      dup1\n        /* \"@openzeppelin/contracts/access/Ownable.sol\":2210:2227  _owner = newOwner */\n      0x0100\n      exp\n      dup2\n      sload\n      dup2\n      0xffffffffffffffffffffffffffffffffffffffff\n      mul\n      not\n      and\n      swap1\n      dup4\n      0xffffffffffffffffffffffffffffffffffffffff\n      and\n      mul\n      or\n      swap1\n      sstore\n      pop\n        /* \"@openzeppelin/contracts/access/Ownable.sol\":1994:2234  function transferOwnership(address newOwner) public virtual onlyOwner {... */\n      pop\n      jump\t// out\n        /* \"@openzeppelin/contracts/utils/Context.sol\":586:682  function _msgSender() internal view virtual returns (address) {... */\n    tag_84:\n        /* \"@openzeppelin/contracts/utils/Context.sol\":639:646  address */\n      0x00\n        /* \"@openzeppelin/contracts/utils/Context.sol\":665:675  msg.sender */\n      caller\n        /* \"@openzeppelin/contracts/utils/Context.sol\":658:675  return msg.sender */\n      swap1\n      pop\n        /* \"@openzeppelin/contracts/utils/Context.sol\":586:682  function _msgSender() internal view virtual returns (address) {... */\n      swap1\n      jump\t// out\n        /* \"contracts/utils/Pausable.sol\":2160:2280  function _unpause() internal virtual whenPaused {\r... */\n    tag_91:\n        /* \"contracts/utils/Pausable.sol\":1704:1712  paused() */\n      tag_154\n        /* \"contracts/utils/Pausable.sol\":1704:1710  paused */\n      tag_42\n        /* \"contracts/utils/Pausable.sol\":1704:1712  paused() */\n      jump\t// in\n    tag_154:\n        /* \"contracts/utils/Pausable.sol\":1696:1737  require(paused(), \"Pausable: not paused\") */\n      tag_155\n      jumpi\n      mload(0x40)\n      0x08c379a000000000000000000000000000000000000000000000000000000000\n      dup2\n      mstore\n      0x04\n      add\n      tag_156\n      swap1\n      tag_157\n      jump\t// in\n    tag_156:\n      mload(0x40)\n      dup1\n      swap2\n      sub\n      swap1\n      revert\n    tag_155:\n        /* \"contracts/utils/Pausable.sol\":2229:2234  false */\n      0x00\n        /* \"contracts/utils/Pausable.sol\":2219:2226  _paused */\n      dup1\n      0x14\n        /* \"contracts/utils/Pausable.sol\":2219:2234  _paused = false */\n      0x0100\n      exp\n      dup2\n      sload\n      dup2\n      0xff\n      mul\n      not\n      and\n      swap1\n      dup4\n      iszero\n      iszero\n      mul\n      or\n      swap1\n      sstore\n      pop\n        /* \"contracts/utils/Pausable.sol\":2250:2272  Unpaused(_msgSender()) */\n      0x5db9ee0a495bf2e6ff9c91a7834c1ba4fdd244a5e8aa4e537bd38aeae4b073aa\n        /* \"contracts/utils/Pausable.sol\":2259:2271  _msgSender() */\n      tag_159\n        /* \"contracts/utils/Pausable.sol\":2259:2269  _msgSender */\n      tag_84\n        /* \"contracts/utils/Pausable.sol\":2259:2271  _msgSender() */\n      jump\t// in\n    tag_159:\n        /* \"contracts/utils/Pausable.sol\":2250:2272  Unpaused(_msgSender()) */\n      mload(0x40)\n      tag_160\n      swap2\n      swap1\n      tag_40\n      jump\t// in\n    tag_160:\n      mload(0x40)\n      dup1\n      swap2\n      sub\n      swap1\n      log1\n        /* \"contracts/utils/Pausable.sol\":2160:2280  function _unpause() internal virtual whenPaused {\r... */\n      jump\t// out\n        /* \"contracts/utils/Pausable.sol\":1901:2019  function _pause() internal virtual whenNotPaused {\r... */\n    tag_112:\n        /* \"contracts/utils/Pausable.sol\":1427:1435  paused() */\n      tag_162\n        /* \"contracts/utils/Pausable.sol\":1427:1433  paused */\n      tag_42\n        /* \"contracts/utils/Pausable.sol\":1427:1435  paused() */\n      jump\t// in\n    tag_162:\n        /* \"contracts/utils/Pausable.sol\":1426:1435  !paused() */\n      iszero\n        /* \"contracts/utils/Pausable.sol\":1418:1456  require(!paused(), \"Pausable: paused\") */\n      tag_163\n      jumpi\n      mload(0x40)\n      0x08c379a000000000000000000000000000000000000000000000000000000000\n      dup2\n      mstore\n      0x04\n      add\n      tag_164\n      swap1\n      tag_118\n      jump\t// in\n    tag_164:\n      mload(0x40)\n      dup1\n      swap2\n      sub\n      swap1\n      revert\n    tag_163:\n        /* \"contracts/utils/Pausable.sol\":1971:1975  true */\n      0x01\n        /* \"contracts/utils/Pausable.sol\":1961:1968  _paused */\n      0x00\n      0x14\n        /* \"contracts/utils/Pausable.sol\":1961:1975  _paused = true */\n      0x0100\n      exp\n      dup2\n      sload\n      dup2\n      0xff\n      mul\n      not\n      and\n      swap1\n      dup4\n      iszero\n      iszero\n      mul\n      or\n      swap1\n      sstore\n      pop\n        /* \"contracts/utils/Pausable.sol\":1991:2011  Paused(_msgSender()) */\n      0x62e78cea01bee320cd4e420270b5ea74000d11b0c9f74754ebdbfc544b05a258\n        /* \"contracts/utils/Pausable.sol\":1998:2010  _msgSender() */\n      tag_166\n        /* \"contracts/utils/Pausable.sol\":1998:2008  _msgSender */\n      tag_84\n        /* \"contracts/utils/Pausable.sol\":1998:2010  _msgSender() */\n      jump\t// in\n    tag_166:\n        /* \"contracts/utils/Pausable.sol\":1991:2011  Paused(_msgSender()) */\n      mload(0x40)\n      tag_167\n      swap2\n      swap1\n      tag_40\n      jump\t// in\n    tag_167:\n      mload(0x40)\n      dup1\n      swap2\n      sub\n      swap1\n      log1\n        /* \"contracts/utils/Pausable.sol\":1901:2019  function _pause() internal virtual whenNotPaused {\r... */\n      jump\t// out\n    tag_126:\n      dataSize(sub_0)\n      dup1\n      dataOffset(sub_0)\n      dup4\n      codecopy\n      add\n      swap1\n      jump\t// out\n        /* \"#utility.yul\":7:351   */\n    tag_169:\n      0x00\n        /* \"#utility.yul\":110:175   */\n      tag_171\n        /* \"#utility.yul\":125:174   */\n      tag_172\n        /* \"#utility.yul\":167:173   */\n      dup5\n        /* \"#utility.yul\":125:174   */\n      tag_173\n      jump\t// in\n    tag_172:\n        /* \"#utility.yul\":110:175   */\n      tag_174\n      jump\t// in\n    tag_171:\n        /* \"#utility.yul\":101:175   */\n      swap1\n      pop\n        /* \"#utility.yul\":198:204   */\n      dup3\n        /* \"#utility.yul\":191:196   */\n      dup2\n        /* \"#utility.yul\":184:205   */\n      mstore\n        /* \"#utility.yul\":236:240   */\n      0x20\n        /* \"#utility.yul\":229:234   */\n      dup2\n        /* \"#utility.yul\":225:241   */\n      add\n        /* \"#utility.yul\":274:277   */\n      dup5\n        /* \"#utility.yul\":265:271   */\n      dup5\n        /* \"#utility.yul\":260:263   */\n      dup5\n        /* \"#utility.yul\":256:272   */\n      add\n        /* \"#utility.yul\":253:278   */\n      gt\n        /* \"#utility.yul\":250:252   */\n      iszero\n      tag_175\n      jumpi\n        /* \"#utility.yul\":291:292   */\n      0x00\n        /* \"#utility.yul\":288:289   */\n      dup1\n        /* \"#utility.yul\":281:293   */\n      revert\n        /* \"#utility.yul\":250:252   */\n    tag_175:\n        /* \"#utility.yul\":304:345   */\n      tag_176\n        /* \"#utility.yul\":338:344   */\n      dup5\n        /* \"#utility.yul\":333:336   */\n      dup3\n        /* \"#utility.yul\":328:331   */\n      dup6\n        /* \"#utility.yul\":304:345   */\n      tag_177\n      jump\t// in\n    tag_176:\n        /* \"#utility.yul\":91:351   */\n      pop\n      swap4\n      swap3\n      pop\n      pop\n      pop\n      jump\t// out\n        /* \"#utility.yul\":357:496   */\n    tag_178:\n      0x00\n        /* \"#utility.yul\":441:447   */\n      dup2\n        /* \"#utility.yul\":428:448   */\n      calldataload\n        /* \"#utility.yul\":419:448   */\n      swap1\n      pop\n        /* \"#utility.yul\":457:490   */\n      tag_180\n        /* \"#utility.yul\":484:489   */\n      dup2\n        /* \"#utility.yul\":457:490   */\n      tag_181\n      jump\t// in\n    tag_180:\n        /* \"#utility.yul\":409:496   */\n      swap3\n      swap2\n      pop\n      pop\n      jump\t// out\n        /* \"#utility.yul\":502:635   */\n    tag_182:\n      0x00\n        /* \"#utility.yul\":583:589   */\n      dup2\n        /* \"#utility.yul\":570:590   */\n      calldataload\n        /* \"#utility.yul\":561:590   */\n      swap1\n      pop\n        /* \"#utility.yul\":599:629   */\n      tag_184\n        /* \"#utility.yul\":623:628   */\n      dup2\n        /* \"#utility.yul\":599:629   */\n      tag_185\n      jump\t// in\n    tag_184:\n        /* \"#utility.yul\":551:635   */\n      swap3\n      swap2\n      pop\n      pop\n      jump\t// out\n        /* \"#utility.yul\":655:928   */\n    tag_186:\n      0x00\n        /* \"#utility.yul\":760:763   */\n      dup3\n        /* \"#utility.yul\":753:757   */\n      0x1f\n        /* \"#utility.yul\":745:751   */\n      dup4\n        /* \"#utility.yul\":741:758   */\n      add\n        /* \"#utility.yul\":737:764   */\n      slt\n        /* \"#utility.yul\":727:729   */\n      tag_188\n      jumpi\n        /* \"#utility.yul\":778:779   */\n      0x00\n        /* \"#utility.yul\":775:776   */\n      dup1\n        /* \"#utility.yul\":768:780   */\n      revert\n        /* \"#utility.yul\":727:729   */\n    tag_188:\n        /* \"#utility.yul\":818:824   */\n      dup2\n        /* \"#utility.yul\":805:825   */\n      calldataload\n        /* \"#utility.yul\":843:922   */\n      tag_189\n        /* \"#utility.yul\":918:921   */\n      dup5\n        /* \"#utility.yul\":910:916   */\n      dup3\n        /* \"#utility.yul\":903:907   */\n      0x20\n        /* \"#utility.yul\":895:901   */\n      dup7\n        /* \"#utility.yul\":891:908   */\n      add\n        /* \"#utility.yul\":843:922   */\n      tag_169\n      jump\t// in\n    tag_189:\n        /* \"#utility.yul\":834:922   */\n      swap2\n      pop\n        /* \"#utility.yul\":717:928   */\n      pop\n      swap3\n      swap2\n      pop\n      pop\n      jump\t// out\n        /* \"#utility.yul\":934:1071   */\n    tag_190:\n      0x00\n        /* \"#utility.yul\":1017:1023   */\n      dup2\n        /* \"#utility.yul\":1004:1024   */\n      calldataload\n        /* \"#utility.yul\":995:1024   */\n      swap1\n      pop\n        /* \"#utility.yul\":1033:1065   */\n      tag_192\n        /* \"#utility.yul\":1059:1064   */\n      dup2\n        /* \"#utility.yul\":1033:1065   */\n      tag_193\n      jump\t// in\n    tag_192:\n        /* \"#utility.yul\":985:1071   */\n      swap3\n      swap2\n      pop\n      pop\n      jump\t// out\n        /* \"#utility.yul\":1077:1216   */\n    tag_194:\n      0x00\n        /* \"#utility.yul\":1161:1167   */\n      dup2\n        /* \"#utility.yul\":1148:1168   */\n      calldataload\n        /* \"#utility.yul\":1139:1168   */\n      swap1\n      pop\n        /* \"#utility.yul\":1177:1210   */\n      tag_196\n        /* \"#utility.yul\":1204:1209   */\n      dup2\n        /* \"#utility.yul\":1177:1210   */\n      tag_197\n      jump\t// in\n    tag_196:\n        /* \"#utility.yul\":1129:1216   */\n      swap3\n      swap2\n      pop\n      pop\n      jump\t// out\n        /* \"#utility.yul\":1222:1484   */\n    tag_24:\n      0x00\n        /* \"#utility.yul\":1330:1332   */\n      0x20\n        /* \"#utility.yul\":1318:1327   */\n      dup3\n        /* \"#utility.yul\":1309:1316   */\n      dup5\n        /* \"#utility.yul\":1305:1328   */\n      sub\n        /* \"#utility.yul\":1301:1333   */\n      slt\n        /* \"#utility.yul\":1298:1300   */\n      iszero\n      tag_199\n      jumpi\n        /* \"#utility.yul\":1346:1347   */\n      0x00\n        /* \"#utility.yul\":1343:1344   */\n      dup1\n        /* \"#utility.yul\":1336:1348   */\n      revert\n        /* \"#utility.yul\":1298:1300   */\n    tag_199:\n        /* \"#utility.yul\":1389:1390   */\n      0x00\n        /* \"#utility.yul\":1414:1467   */\n      tag_200\n        /* \"#utility.yul\":1459:1466   */\n      dup5\n        /* \"#utility.yul\":1450:1456   */\n      dup3\n        /* \"#utility.yul\":1439:1448   */\n      dup6\n        /* \"#utility.yul\":1435:1457   */\n      add\n        /* \"#utility.yul\":1414:1467   */\n      tag_178\n      jump\t// in\n    tag_200:\n        /* \"#utility.yul\":1404:1467   */\n      swap2\n      pop\n        /* \"#utility.yul\":1360:1477   */\n      pop\n        /* \"#utility.yul\":1288:1484   */\n      swap3\n      swap2\n      pop\n      pop\n      jump\t// out\n        /* \"#utility.yul\":1490:1891   */\n    tag_46:\n      0x00\n      dup1\n        /* \"#utility.yul\":1612:1614   */\n      0x40\n        /* \"#utility.yul\":1600:1609   */\n      dup4\n        /* \"#utility.yul\":1591:1598   */\n      dup6\n        /* \"#utility.yul\":1587:1610   */\n      sub\n        /* \"#utility.yul\":1583:1615   */\n      slt\n        /* \"#utility.yul\":1580:1582   */\n      iszero\n      tag_202\n      jumpi\n        /* \"#utility.yul\":1628:1629   */\n      0x00\n        /* \"#utility.yul\":1625:1626   */\n      dup1\n        /* \"#utility.yul\":1618:1630   */\n      revert\n        /* \"#utility.yul\":1580:1582   */\n    tag_202:\n        /* \"#utility.yul\":1671:1672   */\n      0x00\n        /* \"#utility.yul\":1696:1749   */\n      tag_203\n        /* \"#utility.yul\":1741:1748   */\n      dup6\n        /* \"#utility.yul\":1732:1738   */\n      dup3\n        /* \"#utility.yul\":1721:1730   */\n      dup7\n        /* \"#utility.yul\":1717:1739   */\n      add\n        /* \"#utility.yul\":1696:1749   */\n      tag_178\n      jump\t// in\n    tag_203:\n        /* \"#utility.yul\":1686:1749   */\n      swap3\n      pop\n        /* \"#utility.yul\":1642:1759   */\n      pop\n        /* \"#utility.yul\":1798:1800   */\n      0x20\n        /* \"#utility.yul\":1824:1874   */\n      tag_204\n        /* \"#utility.yul\":1866:1873   */\n      dup6\n        /* \"#utility.yul\":1857:1863   */\n      dup3\n        /* \"#utility.yul\":1846:1855   */\n      dup7\n        /* \"#utility.yul\":1842:1864   */\n      add\n        /* \"#utility.yul\":1824:1874   */\n      tag_182\n      jump\t// in\n    tag_204:\n        /* \"#utility.yul\":1814:1874   */\n      swap2\n      pop\n        /* \"#utility.yul\":1769:1884   */\n      pop\n        /* \"#utility.yul\":1570:1891   */\n      swap3\n      pop\n      swap3\n      swap1\n      pop\n      jump\t// out\n        /* \"#utility.yul\":1897:2417   */\n    tag_68:\n      0x00\n      dup1\n        /* \"#utility.yul\":2032:2034   */\n      0x40\n        /* \"#utility.yul\":2020:2029   */\n      dup4\n        /* \"#utility.yul\":2011:2018   */\n      dup6\n        /* \"#utility.yul\":2007:2030   */\n      sub\n        /* \"#utility.yul\":2003:2035   */\n      slt\n        /* \"#utility.yul\":2000:2002   */\n      iszero\n      tag_206\n      jumpi\n        /* \"#utility.yul\":2048:2049   */\n      0x00\n        /* \"#utility.yul\":2045:2046   */\n      dup1\n        /* \"#utility.yul\":2038:2050   */\n      revert\n        /* \"#utility.yul\":2000:2002   */\n    tag_206:\n        /* \"#utility.yul\":2091:2092   */\n      0x00\n        /* \"#utility.yul\":2116:2169   */\n      tag_207\n        /* \"#utility.yul\":2161:2168   */\n      dup6\n        /* \"#utility.yul\":2152:2158   */\n      dup3\n        /* \"#utility.yul\":2141:2150   */\n      dup7\n        /* \"#utility.yul\":2137:2159   */\n      add\n        /* \"#utility.yul\":2116:2169   */\n      tag_178\n      jump\t// in\n    tag_207:\n        /* \"#utility.yul\":2106:2169   */\n      swap3\n      pop\n        /* \"#utility.yul\":2062:2179   */\n      pop\n        /* \"#utility.yul\":2246:2248   */\n      0x20\n        /* \"#utility.yul\":2235:2244   */\n      dup4\n        /* \"#utility.yul\":2231:2249   */\n      add\n        /* \"#utility.yul\":2218:2250   */\n      calldataload\n        /* \"#utility.yul\":2277:2295   */\n      0xffffffffffffffff\n        /* \"#utility.yul\":2269:2275   */\n      dup2\n        /* \"#utility.yul\":2266:2296   */\n      gt\n        /* \"#utility.yul\":2263:2265   */\n      iszero\n      tag_208\n      jumpi\n        /* \"#utility.yul\":2309:2310   */\n      0x00\n        /* \"#utility.yul\":2306:2307   */\n      dup1\n        /* \"#utility.yul\":2299:2311   */\n      revert\n        /* \"#utility.yul\":2263:2265   */\n    tag_208:\n        /* \"#utility.yul\":2337:2400   */\n      tag_209\n        /* \"#utility.yul\":2392:2399   */\n      dup6\n        /* \"#utility.yul\":2383:2389   */\n      dup3\n        /* \"#utility.yul\":2372:2381   */\n      dup7\n        /* \"#utility.yul\":2368:2390   */\n      add\n        /* \"#utility.yul\":2337:2400   */\n      tag_186\n      jump\t// in\n    tag_209:\n        /* \"#utility.yul\":2327:2400   */\n      swap2\n      pop\n        /* \"#utility.yul\":2189:2410   */\n      pop\n        /* \"#utility.yul\":1990:2417   */\n      swap3\n      pop\n      swap3\n      swap1\n      pop\n      jump\t// out\n        /* \"#utility.yul\":2423:3086   */\n    tag_30:\n      0x00\n      dup1\n      0x00\n        /* \"#utility.yul\":2574:2576   */\n      0x60\n        /* \"#utility.yul\":2562:2571   */\n      dup5\n        /* \"#utility.yul\":2553:2560   */\n      dup7\n        /* \"#utility.yul\":2549:2572   */\n      sub\n        /* \"#utility.yul\":2545:2577   */\n      slt\n        /* \"#utility.yul\":2542:2544   */\n      iszero\n      tag_211\n      jumpi\n        /* \"#utility.yul\":2590:2591   */\n      0x00\n        /* \"#utility.yul\":2587:2588   */\n      dup1\n        /* \"#utility.yul\":2580:2592   */\n      revert\n        /* \"#utility.yul\":2542:2544   */\n    tag_211:\n        /* \"#utility.yul\":2661:2662   */\n      0x00\n        /* \"#utility.yul\":2650:2659   */\n      dup5\n        /* \"#utility.yul\":2646:2663   */\n      add\n        /* \"#utility.yul\":2633:2664   */\n      calldataload\n        /* \"#utility.yul\":2691:2709   */\n      0xffffffffffffffff\n        /* \"#utility.yul\":2683:2689   */\n      dup2\n        /* \"#utility.yul\":2680:2710   */\n      gt\n        /* \"#utility.yul\":2677:2679   */\n      iszero\n      tag_212\n      jumpi\n        /* \"#utility.yul\":2723:2724   */\n      0x00\n        /* \"#utility.yul\":2720:2721   */\n      dup1\n        /* \"#utility.yul\":2713:2725   */\n      revert\n        /* \"#utility.yul\":2677:2679   */\n    tag_212:\n        /* \"#utility.yul\":2751:2814   */\n      tag_213\n        /* \"#utility.yul\":2806:2813   */\n      dup7\n        /* \"#utility.yul\":2797:2803   */\n      dup3\n        /* \"#utility.yul\":2786:2795   */\n      dup8\n        /* \"#utility.yul\":2782:2804   */\n      add\n        /* \"#utility.yul\":2751:2814   */\n      tag_186\n      jump\t// in\n    tag_213:\n        /* \"#utility.yul\":2741:2814   */\n      swap4\n      pop\n        /* \"#utility.yul\":2604:2824   */\n      pop\n        /* \"#utility.yul\":2863:2865   */\n      0x20\n        /* \"#utility.yul\":2889:2941   */\n      tag_214\n        /* \"#utility.yul\":2933:2940   */\n      dup7\n        /* \"#utility.yul\":2924:2930   */\n      dup3\n        /* \"#utility.yul\":2913:2922   */\n      dup8\n        /* \"#utility.yul\":2909:2931   */\n      add\n        /* \"#utility.yul\":2889:2941   */\n      tag_190\n      jump\t// in\n    tag_214:\n        /* \"#utility.yul\":2879:2941   */\n      swap3\n      pop\n        /* \"#utility.yul\":2834:2951   */\n      pop\n        /* \"#utility.yul\":2990:2992   */\n      0x40\n        /* \"#utility.yul\":3016:3069   */\n      tag_215\n        /* \"#utility.yul\":3061:3068   */\n      dup7\n        /* \"#utility.yul\":3052:3058   */\n      dup3\n        /* \"#utility.yul\":3041:3050   */\n      dup8\n        /* \"#utility.yul\":3037:3059   */\n      add\n        /* \"#utility.yul\":3016:3069   */\n      tag_178\n      jump\t// in\n    tag_215:\n        /* \"#utility.yul\":3006:3069   */\n      swap2\n      pop\n        /* \"#utility.yul\":2961:3079   */\n      pop\n        /* \"#utility.yul\":2532:3086   */\n      swap3\n      pop\n      swap3\n      pop\n      swap3\n      jump\t// out\n        /* \"#utility.yul\":3092:3895   */\n    tag_73:\n      0x00\n      dup1\n      0x00\n      dup1\n        /* \"#utility.yul\":3257:3260   */\n      0x80\n        /* \"#utility.yul\":3245:3254   */\n      dup6\n        /* \"#utility.yul\":3236:3243   */\n      dup8\n        /* \"#utility.yul\":3232:3255   */\n      sub\n        /* \"#utility.yul\":3228:3261   */\n      slt\n        /* \"#utility.yul\":3225:3227   */\n      iszero\n      tag_217\n      jumpi\n        /* \"#utility.yul\":3274:3275   */\n      0x00\n        /* \"#utility.yul\":3271:3272   */\n      dup1\n        /* \"#utility.yul\":3264:3276   */\n      revert\n        /* \"#utility.yul\":3225:3227   */\n    tag_217:\n        /* \"#utility.yul\":3345:3346   */\n      0x00\n        /* \"#utility.yul\":3334:3343   */\n      dup6\n        /* \"#utility.yul\":3330:3347   */\n      add\n        /* \"#utility.yul\":3317:3348   */\n      calldataload\n        /* \"#utility.yul\":3375:3393   */\n      0xffffffffffffffff\n        /* \"#utility.yul\":3367:3373   */\n      dup2\n        /* \"#utility.yul\":3364:3394   */\n      gt\n        /* \"#utility.yul\":3361:3363   */\n      iszero\n      tag_218\n      jumpi\n        /* \"#utility.yul\":3407:3408   */\n      0x00\n        /* \"#utility.yul\":3404:3405   */\n      dup1\n        /* \"#utility.yul\":3397:3409   */\n      revert\n        /* \"#utility.yul\":3361:3363   */\n    tag_218:\n        /* \"#utility.yul\":3435:3498   */\n      tag_219\n        /* \"#utility.yul\":3490:3497   */\n      dup8\n        /* \"#utility.yul\":3481:3487   */\n      dup3\n        /* \"#utility.yul\":3470:3479   */\n      dup9\n        /* \"#utility.yul\":3466:3488   */\n      add\n        /* \"#utility.yul\":3435:3498   */\n      tag_186\n      jump\t// in\n    tag_219:\n        /* \"#utility.yul\":3425:3498   */\n      swap5\n      pop\n        /* \"#utility.yul\":3288:3508   */\n      pop\n        /* \"#utility.yul\":3547:3549   */\n      0x20\n        /* \"#utility.yul\":3573:3625   */\n      tag_220\n        /* \"#utility.yul\":3617:3624   */\n      dup8\n        /* \"#utility.yul\":3608:3614   */\n      dup3\n        /* \"#utility.yul\":3597:3606   */\n      dup9\n        /* \"#utility.yul\":3593:3615   */\n      add\n        /* \"#utility.yul\":3573:3625   */\n      tag_190\n      jump\t// in\n    tag_220:\n        /* \"#utility.yul\":3563:3625   */\n      swap4\n      pop\n        /* \"#utility.yul\":3518:3635   */\n      pop\n        /* \"#utility.yul\":3674:3676   */\n      0x40\n        /* \"#utility.yul\":3700:3753   */\n      tag_221\n        /* \"#utility.yul\":3745:3752   */\n      dup8\n        /* \"#utility.yul\":3736:3742   */\n      dup3\n        /* \"#utility.yul\":3725:3734   */\n      dup9\n        /* \"#utility.yul\":3721:3743   */\n      add\n        /* \"#utility.yul\":3700:3753   */\n      tag_178\n      jump\t// in\n    tag_221:\n        /* \"#utility.yul\":3690:3753   */\n      swap3\n      pop\n        /* \"#utility.yul\":3645:3763   */\n      pop\n        /* \"#utility.yul\":3802:3804   */\n      0x60\n        /* \"#utility.yul\":3828:3878   */\n      tag_222\n        /* \"#utility.yul\":3870:3877   */\n      dup8\n        /* \"#utility.yul\":3861:3867   */\n      dup3\n        /* \"#utility.yul\":3850:3859   */\n      dup9\n        /* \"#utility.yul\":3846:3868   */\n      add\n        /* \"#utility.yul\":3828:3878   */\n      tag_182\n      jump\t// in\n    tag_222:\n        /* \"#utility.yul\":3818:3878   */\n      swap2\n      pop\n        /* \"#utility.yul\":3773:3888   */\n      pop\n        /* \"#utility.yul\":3215:3895   */\n      swap3\n      swap6\n      swap2\n      swap5\n      pop\n      swap3\n      pop\n      jump\t// out\n        /* \"#utility.yul\":3901:4163   */\n    tag_37:\n      0x00\n        /* \"#utility.yul\":4009:4011   */\n      0x20\n        /* \"#utility.yul\":3997:4006   */\n      dup3\n        /* \"#utility.yul\":3988:3995   */\n      dup5\n        /* \"#utility.yul\":3984:4007   */\n      sub\n        /* \"#utility.yul\":3980:4012   */\n      slt\n        /* \"#utility.yul\":3977:3979   */\n      iszero\n      tag_224\n      jumpi\n        /* \"#utility.yul\":4025:4026   */\n      0x00\n        /* \"#utility.yul\":4022:4023   */\n      dup1\n        /* \"#utility.yul\":4015:4027   */\n      revert\n        /* \"#utility.yul\":3977:3979   */\n    tag_224:\n        /* \"#utility.yul\":4068:4069   */\n      0x00\n        /* \"#utility.yul\":4093:4146   */\n      tag_225\n        /* \"#utility.yul\":4138:4145   */\n      dup5\n        /* \"#utility.yul\":4129:4135   */\n      dup3\n        /* \"#utility.yul\":4118:4127   */\n      dup6\n        /* \"#utility.yul\":4114:4136   */\n      add\n        /* \"#utility.yul\":4093:4146   */\n      tag_194\n      jump\t// in\n    tag_225:\n        /* \"#utility.yul\":4083:4146   */\n      swap2\n      pop\n        /* \"#utility.yul\":4039:4156   */\n      pop\n        /* \"#utility.yul\":3967:4163   */\n      swap3\n      swap2\n      pop\n      pop\n      jump\t// out\n        /* \"#utility.yul\":4169:4287   */\n    tag_226:\n        /* \"#utility.yul\":4256:4280   */\n      tag_228\n        /* \"#utility.yul\":4274:4279   */\n      dup2\n        /* \"#utility.yul\":4256:4280   */\n      tag_229\n      jump\t// in\n    tag_228:\n        /* \"#utility.yul\":4251:4254   */\n      dup3\n        /* \"#utility.yul\":4244:4281   */\n      mstore\n        /* \"#utility.yul\":4234:4287   */\n      pop\n      pop\n      jump\t// out\n        /* \"#utility.yul\":4293:4402   */\n    tag_230:\n        /* \"#utility.yul\":4374:4395   */\n      tag_232\n        /* \"#utility.yul\":4389:4394   */\n      dup2\n        /* \"#utility.yul\":4374:4395   */\n      tag_233\n      jump\t// in\n    tag_232:\n        /* \"#utility.yul\":4369:4372   */\n      dup3\n        /* \"#utility.yul\":4362:4396   */\n      mstore\n        /* \"#utility.yul\":4352:4402   */\n      pop\n      pop\n      jump\t// out\n        /* \"#utility.yul\":4408:4768   */\n    tag_234:\n      0x00\n        /* \"#utility.yul\":4522:4560   */\n      tag_236\n        /* \"#utility.yul\":4554:4559   */\n      dup3\n        /* \"#utility.yul\":4522:4560   */\n      tag_237\n      jump\t// in\n    tag_236:\n        /* \"#utility.yul\":4576:4646   */\n      tag_238\n        /* \"#utility.yul\":4639:4645   */\n      dup2\n        /* \"#utility.yul\":4634:4637   */\n      dup6\n        /* \"#utility.yul\":4576:4646   */\n      tag_239\n      jump\t// in\n    tag_238:\n        /* \"#utility.yul\":4569:4646   */\n      swap4\n      pop\n        /* \"#utility.yul\":4655:4707   */\n      tag_240\n        /* \"#utility.yul\":4700:4706   */\n      dup2\n        /* \"#utility.yul\":4695:4698   */\n      dup6\n        /* \"#utility.yul\":4688:4692   */\n      0x20\n        /* \"#utility.yul\":4681:4686   */\n      dup7\n        /* \"#utility.yul\":4677:4693   */\n      add\n        /* \"#utility.yul\":4655:4707   */\n      tag_241\n      jump\t// in\n    tag_240:\n        /* \"#utility.yul\":4732:4761   */\n      tag_242\n        /* \"#utility.yul\":4754:4760   */\n      dup2\n        /* \"#utility.yul\":4732:4761   */\n      tag_243\n      jump\t// in\n    tag_242:\n        /* \"#utility.yul\":4727:4730   */\n      dup5\n        /* \"#utility.yul\":4723:4762   */\n      add\n        /* \"#utility.yul\":4716:4762   */\n      swap2\n      pop\n        /* \"#utility.yul\":4498:4768   */\n      pop\n      swap3\n      swap2\n      pop\n      pop\n      jump\t// out\n        /* \"#utility.yul\":4774:5138   */\n    tag_244:\n      0x00\n        /* \"#utility.yul\":4890:4929   */\n      tag_246\n        /* \"#utility.yul\":4923:4928   */\n      dup3\n        /* \"#utility.yul\":4890:4929   */\n      tag_247\n      jump\t// in\n    tag_246:\n        /* \"#utility.yul\":4945:5016   */\n      tag_248\n        /* \"#utility.yul\":5009:5015   */\n      dup2\n        /* \"#utility.yul\":5004:5007   */\n      dup6\n        /* \"#utility.yul\":4945:5016   */\n      tag_249\n      jump\t// in\n    tag_248:\n        /* \"#utility.yul\":4938:5016   */\n      swap4\n      pop\n        /* \"#utility.yul\":5025:5077   */\n      tag_250\n        /* \"#utility.yul\":5070:5076   */\n      dup2\n        /* \"#utility.yul\":5065:5068   */\n      dup6\n        /* \"#utility.yul\":5058:5062   */\n      0x20\n        /* \"#utility.yul\":5051:5056   */\n      dup7\n        /* \"#utility.yul\":5047:5063   */\n      add\n        /* \"#utility.yul\":5025:5077   */\n      tag_241\n      jump\t// in\n    tag_250:\n        /* \"#utility.yul\":5102:5131   */\n      tag_251\n        /* \"#utility.yul\":5124:5130   */\n      dup2\n        /* \"#utility.yul\":5102:5131   */\n      tag_243\n      jump\t// in\n    tag_251:\n        /* \"#utility.yul\":5097:5100   */\n      dup5\n        /* \"#utility.yul\":5093:5132   */\n      add\n        /* \"#utility.yul\":5086:5132   */\n      swap2\n      pop\n        /* \"#utility.yul\":4866:5138   */\n      pop\n      swap3\n      swap2\n      pop\n      pop\n      jump\t// out\n        /* \"#utility.yul\":5144:5521   */\n    tag_252:\n      0x00\n        /* \"#utility.yul\":5278:5317   */\n      tag_254\n        /* \"#utility.yul\":5311:5316   */\n      dup3\n        /* \"#utility.yul\":5278:5317   */\n      tag_247\n      jump\t// in\n    tag_254:\n        /* \"#utility.yul\":5333:5422   */\n      tag_255\n        /* \"#utility.yul\":5415:5421   */\n      dup2\n        /* \"#utility.yul\":5410:5413   */\n      dup6\n        /* \"#utility.yul\":5333:5422   */\n      tag_256\n      jump\t// in\n    tag_255:\n        /* \"#utility.yul\":5326:5422   */\n      swap4\n      pop\n        /* \"#utility.yul\":5431:5483   */\n      tag_257\n        /* \"#utility.yul\":5476:5482   */\n      dup2\n        /* \"#utility.yul\":5471:5474   */\n      dup6\n        /* \"#utility.yul\":5464:5468   */\n      0x20\n        /* \"#utility.yul\":5457:5462   */\n      dup7\n        /* \"#utility.yul\":5453:5469   */\n      add\n        /* \"#utility.yul\":5431:5483   */\n      tag_241\n      jump\t// in\n    tag_257:\n        /* \"#utility.yul\":5508:5514   */\n      dup1\n        /* \"#utility.yul\":5503:5506   */\n      dup5\n        /* \"#utility.yul\":5499:5515   */\n      add\n        /* \"#utility.yul\":5492:5515   */\n      swap2\n      pop\n        /* \"#utility.yul\":5254:5521   */\n      pop\n      swap3\n      swap2\n      pop\n      pop\n      jump\t// out\n        /* \"#utility.yul\":5527:5845   */\n    tag_258:\n      0x00\n        /* \"#utility.yul\":5690:5757   */\n      tag_260\n        /* \"#utility.yul\":5754:5756   */\n      0x14\n        /* \"#utility.yul\":5749:5752   */\n      dup4\n        /* \"#utility.yul\":5690:5757   */\n      tag_249\n      jump\t// in\n    tag_260:\n        /* \"#utility.yul\":5683:5757   */\n      swap2\n      pop\n        /* \"#utility.yul\":5787:5809   */\n      0x5061757361626c653a206e6f7420706175736564000000000000000000000000\n        /* \"#utility.yul\":5783:5784   */\n      0x00\n        /* \"#utility.yul\":5778:5781   */\n      dup4\n        /* \"#utility.yul\":5774:5785   */\n      add\n        /* \"#utility.yul\":5767:5810   */\n      mstore\n        /* \"#utility.yul\":5836:5838   */\n      0x20\n        /* \"#utility.yul\":5831:5834   */\n      dup3\n        /* \"#utility.yul\":5827:5839   */\n      add\n        /* \"#utility.yul\":5820:5839   */\n      swap1\n      pop\n        /* \"#utility.yul\":5673:5845   */\n      swap2\n      swap1\n      pop\n      jump\t// out\n        /* \"#utility.yul\":5851:6221   */\n    tag_261:\n      0x00\n        /* \"#utility.yul\":6014:6081   */\n      tag_263\n        /* \"#utility.yul\":6078:6080   */\n      0x26\n        /* \"#utility.yul\":6073:6076   */\n      dup4\n        /* \"#utility.yul\":6014:6081   */\n      tag_249\n      jump\t// in\n    tag_263:\n        /* \"#utility.yul\":6007:6081   */\n      swap2\n      pop\n        /* \"#utility.yul\":6111:6145   */\n      0x4f776e61626c653a206e6577206f776e657220697320746865207a65726f2061\n        /* \"#utility.yul\":6107:6108   */\n      0x00\n        /* \"#utility.yul\":6102:6105   */\n      dup4\n        /* \"#utility.yul\":6098:6109   */\n      add\n        /* \"#utility.yul\":6091:6146   */\n      mstore\n        /* \"#utility.yul\":6177:6185   */\n      0x6464726573730000000000000000000000000000000000000000000000000000\n        /* \"#utility.yul\":6172:6174   */\n      0x20\n        /* \"#utility.yul\":6167:6170   */\n      dup4\n        /* \"#utility.yul\":6163:6175   */\n      add\n        /* \"#utility.yul\":6156:6186   */\n      mstore\n        /* \"#utility.yul\":6212:6214   */\n      0x40\n        /* \"#utility.yul\":6207:6210   */\n      dup3\n        /* \"#utility.yul\":6203:6215   */\n      add\n        /* \"#utility.yul\":6196:6215   */\n      swap1\n      pop\n        /* \"#utility.yul\":5997:6221   */\n      swap2\n      swap1\n      pop\n      jump\t// out\n        /* \"#utility.yul\":6227:6596   */\n    tag_264:\n      0x00\n        /* \"#utility.yul\":6390:6457   */\n      tag_266\n        /* \"#utility.yul\":6454:6456   */\n      0x25\n        /* \"#utility.yul\":6449:6452   */\n      dup4\n        /* \"#utility.yul\":6390:6457   */\n      tag_249\n      jump\t// in\n    tag_266:\n        /* \"#utility.yul\":6383:6457   */\n      swap2\n      pop\n        /* \"#utility.yul\":6487:6521   */\n      0x466163746f7279203a3a20496e636f72726563742074656d706c617465206164\n        /* \"#utility.yul\":6483:6484   */\n      0x00\n        /* \"#utility.yul\":6478:6481   */\n      dup4\n        /* \"#utility.yul\":6474:6485   */\n      add\n        /* \"#utility.yul\":6467:6522   */\n      mstore\n        /* \"#utility.yul\":6553:6560   */\n      0x6472657373000000000000000000000000000000000000000000000000000000\n        /* \"#utility.yul\":6548:6550   */\n      0x20\n        /* \"#utility.yul\":6543:6546   */\n      dup4\n        /* \"#utility.yul\":6539:6551   */\n      add\n        /* \"#utility.yul\":6532:6561   */\n      mstore\n        /* \"#utility.yul\":6587:6589   */\n      0x40\n        /* \"#utility.yul\":6582:6585   */\n      dup3\n        /* \"#utility.yul\":6578:6590   */\n      add\n        /* \"#utility.yul\":6571:6590   */\n      swap1\n      pop\n        /* \"#utility.yul\":6373:6596   */\n      swap2\n      swap1\n      pop\n      jump\t// out\n        /* \"#utility.yul\":6602:6916   */\n    tag_267:\n      0x00\n        /* \"#utility.yul\":6765:6832   */\n      tag_269\n        /* \"#utility.yul\":6829:6831   */\n      0x10\n        /* \"#utility.yul\":6824:6827   */\n      dup4\n        /* \"#utility.yul\":6765:6832   */\n      tag_249\n      jump\t// in\n    tag_269:\n        /* \"#utility.yul\":6758:6832   */\n      swap2\n      pop\n        /* \"#utility.yul\":6862:6880   */\n      0x5061757361626c653a2070617573656400000000000000000000000000000000\n        /* \"#utility.yul\":6858:6859   */\n      0x00\n        /* \"#utility.yul\":6853:6856   */\n      dup4\n        /* \"#utility.yul\":6849:6860   */\n      add\n        /* \"#utility.yul\":6842:6881   */\n      mstore\n        /* \"#utility.yul\":6907:6909   */\n      0x20\n        /* \"#utility.yul\":6902:6905   */\n      dup3\n        /* \"#utility.yul\":6898:6910   */\n      add\n        /* \"#utility.yul\":6891:6910   */\n      swap1\n      pop\n        /* \"#utility.yul\":6748:6916   */\n      swap2\n      swap1\n      pop\n      jump\t// out\n        /* \"#utility.yul\":6922:7252   */\n    tag_270:\n      0x00\n        /* \"#utility.yul\":7085:7152   */\n      tag_272\n        /* \"#utility.yul\":7149:7151   */\n      0x20\n        /* \"#utility.yul\":7144:7147   */\n      dup4\n        /* \"#utility.yul\":7085:7152   */\n      tag_249\n      jump\t// in\n    tag_272:\n        /* \"#utility.yul\":7078:7152   */\n      swap2\n      pop\n        /* \"#utility.yul\":7182:7216   */\n      0x4f776e61626c653a2063616c6c6572206973206e6f7420746865206f776e6572\n        /* \"#utility.yul\":7178:7179   */\n      0x00\n        /* \"#utility.yul\":7173:7176   */\n      dup4\n        /* \"#utility.yul\":7169:7180   */\n      add\n        /* \"#utility.yul\":7162:7217   */\n      mstore\n        /* \"#utility.yul\":7243:7245   */\n      0x20\n        /* \"#utility.yul\":7238:7241   */\n      dup3\n        /* \"#utility.yul\":7234:7246   */\n      add\n        /* \"#utility.yul\":7227:7246   */\n      swap1\n      pop\n        /* \"#utility.yul\":7068:7252   */\n      swap2\n      swap1\n      pop\n      jump\t// out\n        /* \"#utility.yul\":7258:7376   */\n    tag_273:\n        /* \"#utility.yul\":7345:7369   */\n      tag_275\n        /* \"#utility.yul\":7363:7368   */\n      dup2\n        /* \"#utility.yul\":7345:7369   */\n      tag_276\n      jump\t// in\n    tag_275:\n        /* \"#utility.yul\":7340:7343   */\n      dup3\n        /* \"#utility.yul\":7333:7370   */\n      mstore\n        /* \"#utility.yul\":7323:7376   */\n      pop\n      pop\n      jump\t// out\n        /* \"#utility.yul\":7382:7657   */\n    tag_142:\n      0x00\n        /* \"#utility.yul\":7536:7631   */\n      tag_278\n        /* \"#utility.yul\":7627:7630   */\n      dup3\n        /* \"#utility.yul\":7618:7624   */\n      dup5\n        /* \"#utility.yul\":7536:7631   */\n      tag_252\n      jump\t// in\n    tag_278:\n        /* \"#utility.yul\":7529:7631   */\n      swap2\n      pop\n        /* \"#utility.yul\":7648:7651   */\n      dup2\n        /* \"#utility.yul\":7641:7651   */\n      swap1\n      pop\n        /* \"#utility.yul\":7518:7657   */\n      swap3\n      swap2\n      pop\n      pop\n      jump\t// out\n        /* \"#utility.yul\":7663:7885   */\n    tag_40:\n      0x00\n        /* \"#utility.yul\":7794:7796   */\n      0x20\n        /* \"#utility.yul\":7783:7792   */\n      dup3\n        /* \"#utility.yul\":7779:7797   */\n      add\n        /* \"#utility.yul\":7771:7797   */\n      swap1\n      pop\n        /* \"#utility.yul\":7807:7878   */\n      tag_280\n        /* \"#utility.yul\":7875:7876   */\n      0x00\n        /* \"#utility.yul\":7864:7873   */\n      dup4\n        /* \"#utility.yul\":7860:7877   */\n      add\n        /* \"#utility.yul\":7851:7857   */\n      dup5\n        /* \"#utility.yul\":7807:7878   */\n      tag_226\n      jump\t// in\n    tag_280:\n        /* \"#utility.yul\":7761:7885   */\n      swap3\n      swap2\n      pop\n      pop\n      jump\t// out\n        /* \"#utility.yul\":7891:8424   */\n    tag_124:\n      0x00\n        /* \"#utility.yul\":8098:8100   */\n      0x60\n        /* \"#utility.yul\":8087:8096   */\n      dup3\n        /* \"#utility.yul\":8083:8101   */\n      add\n        /* \"#utility.yul\":8075:8101   */\n      swap1\n      pop\n        /* \"#utility.yul\":8111:8182   */\n      tag_282\n        /* \"#utility.yul\":8179:8180   */\n      0x00\n        /* \"#utility.yul\":8168:8177   */\n      dup4\n        /* \"#utility.yul\":8164:8181   */\n      add\n        /* \"#utility.yul\":8155:8161   */\n      dup7\n        /* \"#utility.yul\":8111:8182   */\n      tag_226\n      jump\t// in\n    tag_282:\n        /* \"#utility.yul\":8192:8264   */\n      tag_283\n        /* \"#utility.yul\":8260:8262   */\n      0x20\n        /* \"#utility.yul\":8249:8258   */\n      dup4\n        /* \"#utility.yul\":8245:8263   */\n      add\n        /* \"#utility.yul\":8236:8242   */\n      dup6\n        /* \"#utility.yul\":8192:8264   */\n      tag_226\n      jump\t// in\n    tag_283:\n        /* \"#utility.yul\":8311:8320   */\n      dup2\n        /* \"#utility.yul\":8305:8309   */\n      dup2\n        /* \"#utility.yul\":8301:8321   */\n      sub\n        /* \"#utility.yul\":8296:8298   */\n      0x40\n        /* \"#utility.yul\":8285:8294   */\n      dup4\n        /* \"#utility.yul\":8281:8299   */\n      add\n        /* \"#utility.yul\":8274:8322   */\n      mstore\n        /* \"#utility.yul\":8339:8417   */\n      tag_284\n        /* \"#utility.yul\":8412:8416   */\n      dup2\n        /* \"#utility.yul\":8403:8409   */\n      dup5\n        /* \"#utility.yul\":8339:8417   */\n      tag_244\n      jump\t// in\n    tag_284:\n        /* \"#utility.yul\":8331:8417   */\n      swap1\n      pop\n        /* \"#utility.yul\":8065:8424   */\n      swap5\n      swap4\n      pop\n      pop\n      pop\n      pop\n      jump\t// out\n        /* \"#utility.yul\":8430:8849   */\n    tag_128:\n      0x00\n        /* \"#utility.yul\":8607:8609   */\n      0x40\n        /* \"#utility.yul\":8596:8605   */\n      dup3\n        /* \"#utility.yul\":8592:8610   */\n      add\n        /* \"#utility.yul\":8584:8610   */\n      swap1\n      pop\n        /* \"#utility.yul\":8620:8691   */\n      tag_286\n        /* \"#utility.yul\":8688:8689   */\n      0x00\n        /* \"#utility.yul\":8677:8686   */\n      dup4\n        /* \"#utility.yul\":8673:8690   */\n      add\n        /* \"#utility.yul\":8664:8670   */\n      dup6\n        /* \"#utility.yul\":8620:8691   */\n      tag_226\n      jump\t// in\n    tag_286:\n        /* \"#utility.yul\":8738:8747   */\n      dup2\n        /* \"#utility.yul\":8732:8736   */\n      dup2\n        /* \"#utility.yul\":8728:8748   */\n      sub\n        /* \"#utility.yul\":8723:8725   */\n      0x20\n        /* \"#utility.yul\":8712:8721   */\n      dup4\n        /* \"#utility.yul\":8708:8726   */\n      add\n        /* \"#utility.yul\":8701:8749   */\n      mstore\n        /* \"#utility.yul\":8766:8842   */\n      tag_287\n        /* \"#utility.yul\":8837:8841   */\n      dup2\n        /* \"#utility.yul\":8828:8834   */\n      dup5\n        /* \"#utility.yul\":8766:8842   */\n      tag_234\n      jump\t// in\n    tag_287:\n        /* \"#utility.yul\":8758:8842   */\n      swap1\n      pop\n        /* \"#utility.yul\":8574:8849   */\n      swap4\n      swap3\n      pop\n      pop\n      pop\n      jump\t// out\n        /* \"#utility.yul\":8855:9065   */\n    tag_27:\n      0x00\n        /* \"#utility.yul\":8980:8982   */\n      0x20\n        /* \"#utility.yul\":8969:8978   */\n      dup3\n        /* \"#utility.yul\":8965:8983   */\n      add\n        /* \"#utility.yul\":8957:8983   */\n      swap1\n      pop\n        /* \"#utility.yul\":8993:9058   */\n      tag_289\n        /* \"#utility.yul\":9055:9056   */\n      0x00\n        /* \"#utility.yul\":9044:9053   */\n      dup4\n        /* \"#utility.yul\":9040:9057   */\n      add\n        /* \"#utility.yul\":9031:9037   */\n      dup5\n        /* \"#utility.yul\":8993:9058   */\n      tag_230\n      jump\t// in\n    tag_289:\n        /* \"#utility.yul\":8947:9065   */\n      swap3\n      swap2\n      pop\n      pop\n      jump\t// out\n        /* \"#utility.yul\":9071:9490   */\n    tag_157:\n      0x00\n        /* \"#utility.yul\":9275:9277   */\n      0x20\n        /* \"#utility.yul\":9264:9273   */\n      dup3\n        /* \"#utility.yul\":9260:9278   */\n      add\n        /* \"#utility.yul\":9252:9278   */\n      swap1\n      pop\n        /* \"#utility.yul\":9324:9333   */\n      dup2\n        /* \"#utility.yul\":9318:9322   */\n      dup2\n        /* \"#utility.yul\":9314:9334   */\n      sub\n        /* \"#utility.yul\":9310:9311   */\n      0x00\n        /* \"#utility.yul\":9299:9308   */\n      dup4\n        /* \"#utility.yul\":9295:9312   */\n      add\n        /* \"#utility.yul\":9288:9335   */\n      mstore\n        /* \"#utility.yul\":9352:9483   */\n      tag_291\n        /* \"#utility.yul\":9478:9482   */\n      dup2\n        /* \"#utility.yul\":9352:9483   */\n      tag_258\n      jump\t// in\n    tag_291:\n        /* \"#utility.yul\":9344:9483   */\n      swap1\n      pop\n        /* \"#utility.yul\":9242:9490   */\n      swap2\n      swap1\n      pop\n      jump\t// out\n        /* \"#utility.yul\":9496:9915   */\n    tag_151:\n      0x00\n        /* \"#utility.yul\":9700:9702   */\n      0x20\n        /* \"#utility.yul\":9689:9698   */\n      dup3\n        /* \"#utility.yul\":9685:9703   */\n      add\n        /* \"#utility.yul\":9677:9703   */\n      swap1\n      pop\n        /* \"#utility.yul\":9749:9758   */\n      dup2\n        /* \"#utility.yul\":9743:9747   */\n      dup2\n        /* \"#utility.yul\":9739:9759   */\n      sub\n        /* \"#utility.yul\":9735:9736   */\n      0x00\n        /* \"#utility.yul\":9724:9733   */\n      dup4\n        /* \"#utility.yul\":9720:9737   */\n      add\n        /* \"#utility.yul\":9713:9760   */\n      mstore\n        /* \"#utility.yul\":9777:9908   */\n      tag_293\n        /* \"#utility.yul\":9903:9907   */\n      dup2\n        /* \"#utility.yul\":9777:9908   */\n      tag_261\n      jump\t// in\n    tag_293:\n        /* \"#utility.yul\":9769:9908   */\n      swap1\n      pop\n        /* \"#utility.yul\":9667:9915   */\n      swap2\n      swap1\n      pop\n      jump\t// out\n        /* \"#utility.yul\":9921:10340   */\n    tag_122:\n      0x00\n        /* \"#utility.yul\":10125:10127   */\n      0x20\n        /* \"#utility.yul\":10114:10123   */\n      dup3\n        /* \"#utility.yul\":10110:10128   */\n      add\n        /* \"#utility.yul\":10102:10128   */\n      swap1\n      pop\n        /* \"#utility.yul\":10174:10183   */\n      dup2\n        /* \"#utility.yul\":10168:10172   */\n      dup2\n        /* \"#utility.yul\":10164:10184   */\n      sub\n        /* \"#utility.yul\":10160:10161   */\n      0x00\n        /* \"#utility.yul\":10149:10158   */\n      dup4\n        /* \"#utility.yul\":10145:10162   */\n      add\n        /* \"#utility.yul\":10138:10185   */\n      mstore\n        /* \"#utility.yul\":10202:10333   */\n      tag_295\n        /* \"#utility.yul\":10328:10332   */\n      dup2\n        /* \"#utility.yul\":10202:10333   */\n      tag_264\n      jump\t// in\n    tag_295:\n        /* \"#utility.yul\":10194:10333   */\n      swap1\n      pop\n        /* \"#utility.yul\":10092:10340   */\n      swap2\n      swap1\n      pop\n      jump\t// out\n        /* \"#utility.yul\":10346:10765   */\n    tag_118:\n      0x00\n        /* \"#utility.yul\":10550:10552   */\n      0x20\n        /* \"#utility.yul\":10539:10548   */\n      dup3\n        /* \"#utility.yul\":10535:10553   */\n      add\n        /* \"#utility.yul\":10527:10553   */\n      swap1\n      pop\n        /* \"#utility.yul\":10599:10608   */\n      dup2\n        /* \"#utility.yul\":10593:10597   */\n      dup2\n        /* \"#utility.yul\":10589:10609   */\n      sub\n        /* \"#utility.yul\":10585:10586   */\n      0x00\n        /* \"#utility.yul\":10574:10583   */\n      dup4\n        /* \"#utility.yul\":10570:10587   */\n      add\n        /* \"#utility.yul\":10563:10610   */\n      mstore\n        /* \"#utility.yul\":10627:10758   */\n      tag_297\n        /* \"#utility.yul\":10753:10757   */\n      dup2\n        /* \"#utility.yul\":10627:10758   */\n      tag_267\n      jump\t// in\n    tag_297:\n        /* \"#utility.yul\":10619:10758   */\n      swap1\n      pop\n        /* \"#utility.yul\":10517:10765   */\n      swap2\n      swap1\n      pop\n      jump\t// out\n        /* \"#utility.yul\":10771:11190   */\n    tag_88:\n      0x00\n        /* \"#utility.yul\":10975:10977   */\n      0x20\n        /* \"#utility.yul\":10964:10973   */\n      dup3\n        /* \"#utility.yul\":10960:10978   */\n      add\n        /* \"#utility.yul\":10952:10978   */\n      swap1\n      pop\n        /* \"#utility.yul\":11024:11033   */\n      dup2\n        /* \"#utility.yul\":11018:11022   */\n      dup2\n        /* \"#utility.yul\":11014:11034   */\n      sub\n        /* \"#utility.yul\":11010:11011   */\n      0x00\n        /* \"#utility.yul\":10999:11008   */\n      dup4\n        /* \"#utility.yul\":10995:11012   */\n      add\n        /* \"#utility.yul\":10988:11035   */\n      mstore\n        /* \"#utility.yul\":11052:11183   */\n      tag_299\n        /* \"#utility.yul\":11178:11182   */\n      dup2\n        /* \"#utility.yul\":11052:11183   */\n      tag_270\n      jump\t// in\n    tag_299:\n        /* \"#utility.yul\":11044:11183   */\n      swap1\n      pop\n        /* \"#utility.yul\":10942:11190   */\n      swap2\n      swap1\n      pop\n      jump\t// out\n        /* \"#utility.yul\":11196:11418   */\n    tag_51:\n      0x00\n        /* \"#utility.yul\":11327:11329   */\n      0x20\n        /* \"#utility.yul\":11316:11325   */\n      dup3\n        /* \"#utility.yul\":11312:11330   */\n      add\n        /* \"#utility.yul\":11304:11330   */\n      swap1\n      pop\n        /* \"#utility.yul\":11340:11411   */\n      tag_301\n        /* \"#utility.yul\":11408:11409   */\n      0x00\n        /* \"#utility.yul\":11397:11406   */\n      dup4\n        /* \"#utility.yul\":11393:11410   */\n      add\n        /* \"#utility.yul\":11384:11390   */\n      dup5\n        /* \"#utility.yul\":11340:11411   */\n      tag_273\n      jump\t// in\n    tag_301:\n        /* \"#utility.yul\":11294:11418   */\n      swap3\n      swap2\n      pop\n      pop\n      jump\t// out\n        /* \"#utility.yul\":11424:11707   */\n    tag_174:\n      0x00\n        /* \"#utility.yul\":11490:11492   */\n      0x40\n        /* \"#utility.yul\":11484:11493   */\n      mload\n        /* \"#utility.yul\":11474:11493   */\n      swap1\n      pop\n        /* \"#utility.yul\":11532:11536   */\n      dup2\n        /* \"#utility.yul\":11524:11530   */\n      dup2\n        /* \"#utility.yul\":11520:11537   */\n      add\n        /* \"#utility.yul\":11639:11645   */\n      dup2\n        /* \"#utility.yul\":11627:11637   */\n      dup2\n        /* \"#utility.yul\":11624:11646   */\n      lt\n        /* \"#utility.yul\":11603:11621   */\n      0xffffffffffffffff\n        /* \"#utility.yul\":11591:11601   */\n      dup3\n        /* \"#utility.yul\":11588:11622   */\n      gt\n        /* \"#utility.yul\":11585:11647   */\n      or\n        /* \"#utility.yul\":11582:11584   */\n      iszero\n      tag_303\n      jumpi\n        /* \"#utility.yul\":11650:11668   */\n      tag_304\n      tag_305\n      jump\t// in\n    tag_304:\n        /* \"#utility.yul\":11582:11584   */\n    tag_303:\n        /* \"#utility.yul\":11690:11700   */\n      dup1\n        /* \"#utility.yul\":11686:11688   */\n      0x40\n        /* \"#utility.yul\":11679:11701   */\n      mstore\n        /* \"#utility.yul\":11464:11707   */\n      pop\n      swap2\n      swap1\n      pop\n      jump\t// out\n        /* \"#utility.yul\":11713:12045   */\n    tag_173:\n      0x00\n        /* \"#utility.yul\":11865:11883   */\n      0xffffffffffffffff\n        /* \"#utility.yul\":11857:11863   */\n      dup3\n        /* \"#utility.yul\":11854:11884   */\n      gt\n        /* \"#utility.yul\":11851:11853   */\n      iszero\n      tag_307\n      jumpi\n        /* \"#utility.yul\":11887:11905   */\n      tag_308\n      tag_305\n      jump\t// in\n    tag_308:\n        /* \"#utility.yul\":11851:11853   */\n    tag_307:\n        /* \"#utility.yul\":11972:11976   */\n      0x1f\n        /* \"#utility.yul\":11968:11977   */\n      not\n        /* \"#utility.yul\":11961:11965   */\n      0x1f\n        /* \"#utility.yul\":11953:11959   */\n      dup4\n        /* \"#utility.yul\":11949:11966   */\n      add\n        /* \"#utility.yul\":11945:11978   */\n      and\n        /* \"#utility.yul\":11937:11978   */\n      swap1\n      pop\n        /* \"#utility.yul\":12033:12037   */\n      0x20\n        /* \"#utility.yul\":12027:12031   */\n      dup2\n        /* \"#utility.yul\":12023:12038   */\n      add\n        /* \"#utility.yul\":12015:12038   */\n      swap1\n      pop\n        /* \"#utility.yul\":11780:12045   */\n      swap2\n      swap1\n      pop\n      jump\t// out\n        /* \"#utility.yul\":12051:12149   */\n    tag_237:\n      0x00\n        /* \"#utility.yul\":12136:12141   */\n      dup2\n        /* \"#utility.yul\":12130:12142   */\n      mload\n        /* \"#utility.yul\":12120:12142   */\n      swap1\n      pop\n        /* \"#utility.yul\":12109:12149   */\n      swap2\n      swap1\n      pop\n      jump\t// out\n        /* \"#utility.yul\":12155:12254   */\n    tag_247:\n      0x00\n        /* \"#utility.yul\":12241:12246   */\n      dup2\n        /* \"#utility.yul\":12235:12247   */\n      mload\n        /* \"#utility.yul\":12225:12247   */\n      swap1\n      pop\n        /* \"#utility.yul\":12214:12254   */\n      swap2\n      swap1\n      pop\n      jump\t// out\n        /* \"#utility.yul\":12260:12428   */\n    tag_239:\n      0x00\n        /* \"#utility.yul\":12377:12383   */\n      dup3\n        /* \"#utility.yul\":12372:12375   */\n      dup3\n        /* \"#utility.yul\":12365:12384   */\n      mstore\n        /* \"#utility.yul\":12417:12421   */\n      0x20\n        /* \"#utility.yul\":12412:12415   */\n      dup3\n        /* \"#utility.yul\":12408:12422   */\n      add\n        /* \"#utility.yul\":12393:12422   */\n      swap1\n      pop\n        /* \"#utility.yul\":12355:12428   */\n      swap3\n      swap2\n      pop\n      pop\n      jump\t// out\n        /* \"#utility.yul\":12434:12603   */\n    tag_249:\n      0x00\n        /* \"#utility.yul\":12552:12558   */\n      dup3\n        /* \"#utility.yul\":12547:12550   */\n      dup3\n        /* \"#utility.yul\":12540:12559   */\n      mstore\n        /* \"#utility.yul\":12592:12596   */\n      0x20\n        /* \"#utility.yul\":12587:12590   */\n      dup3\n        /* \"#utility.yul\":12583:12597   */\n      add\n        /* \"#utility.yul\":12568:12597   */\n      swap1\n      pop\n        /* \"#utility.yul\":12530:12603   */\n      swap3\n      swap2\n      pop\n      pop\n      jump\t// out\n        /* \"#utility.yul\":12609:12757   */\n    tag_256:\n      0x00\n        /* \"#utility.yul\":12748:12751   */\n      dup2\n        /* \"#utility.yul\":12733:12751   */\n      swap1\n      pop\n        /* \"#utility.yul\":12723:12757   */\n      swap3\n      swap2\n      pop\n      pop\n      jump\t// out\n        /* \"#utility.yul\":12763:12954   */\n    tag_134:\n      0x00\n        /* \"#utility.yul\":12823:12843   */\n      tag_315\n        /* \"#utility.yul\":12841:12842   */\n      dup3\n        /* \"#utility.yul\":12823:12843   */\n      tag_276\n      jump\t// in\n    tag_315:\n        /* \"#utility.yul\":12818:12843   */\n      swap2\n      pop\n        /* \"#utility.yul\":12857:12877   */\n      tag_316\n        /* \"#utility.yul\":12875:12876   */\n      dup4\n        /* \"#utility.yul\":12857:12877   */\n      tag_276\n      jump\t// in\n    tag_316:\n        /* \"#utility.yul\":12852:12877   */\n      swap3\n      pop\n        /* \"#utility.yul\":12896:12897   */\n      dup3\n        /* \"#utility.yul\":12893:12894   */\n      dup3\n        /* \"#utility.yul\":12890:12898   */\n      lt\n        /* \"#utility.yul\":12887:12889   */\n      iszero\n      tag_317\n      jumpi\n        /* \"#utility.yul\":12901:12919   */\n      tag_318\n      tag_319\n      jump\t// in\n    tag_318:\n        /* \"#utility.yul\":12887:12889   */\n    tag_317:\n        /* \"#utility.yul\":12946:12947   */\n      dup3\n        /* \"#utility.yul\":12943:12944   */\n      dup3\n        /* \"#utility.yul\":12939:12948   */\n      sub\n        /* \"#utility.yul\":12931:12948   */\n      swap1\n      pop\n        /* \"#utility.yul\":12808:12954   */\n      swap3\n      swap2\n      pop\n      pop\n      jump\t// out\n        /* \"#utility.yul\":12960:13056   */\n    tag_229:\n      0x00\n        /* \"#utility.yul\":13026:13050   */\n      tag_321\n        /* \"#utility.yul\":13044:13049   */\n      dup3\n        /* \"#utility.yul\":13026:13050   */\n      tag_322\n      jump\t// in\n    tag_321:\n        /* \"#utility.yul\":13015:13050   */\n      swap1\n      pop\n        /* \"#utility.yul\":13005:13056   */\n      swap2\n      swap1\n      pop\n      jump\t// out\n        /* \"#utility.yul\":13062:13152   */\n    tag_233:\n      0x00\n        /* \"#utility.yul\":13139:13144   */\n      dup2\n        /* \"#utility.yul\":13132:13145   */\n      iszero\n        /* \"#utility.yul\":13125:13146   */\n      iszero\n        /* \"#utility.yul\":13114:13146   */\n      swap1\n      pop\n        /* \"#utility.yul\":13104:13152   */\n      swap2\n      swap1\n      pop\n      jump\t// out\n        /* \"#utility.yul\":13158:13247   */\n    tag_324:\n      0x00\n        /* \"#utility.yul\":13234:13240   */\n      0xffff\n        /* \"#utility.yul\":13227:13232   */\n      dup3\n        /* \"#utility.yul\":13223:13241   */\n      and\n        /* \"#utility.yul\":13212:13241   */\n      swap1\n      pop\n        /* \"#utility.yul\":13202:13247   */\n      swap2\n      swap1\n      pop\n      jump\t// out\n        /* \"#utility.yul\":13253:13379   */\n    tag_322:\n      0x00\n        /* \"#utility.yul\":13330:13372   */\n      0xffffffffffffffffffffffffffffffffffffffff\n        /* \"#utility.yul\":13323:13328   */\n      dup3\n        /* \"#utility.yul\":13319:13373   */\n      and\n        /* \"#utility.yul\":13308:13373   */\n      swap1\n      pop\n        /* \"#utility.yul\":13298:13379   */\n      swap2\n      swap1\n      pop\n      jump\t// out\n        /* \"#utility.yul\":13385:13462   */\n    tag_276:\n      0x00\n        /* \"#utility.yul\":13451:13456   */\n      dup2\n        /* \"#utility.yul\":13440:13456   */\n      swap1\n      pop\n        /* \"#utility.yul\":13430:13462   */\n      swap2\n      swap1\n      pop\n      jump\t// out\n        /* \"#utility.yul\":13468:13622   */\n    tag_177:\n        /* \"#utility.yul\":13552:13558   */\n      dup3\n        /* \"#utility.yul\":13547:13550   */\n      dup2\n        /* \"#utility.yul\":13542:13545   */\n      dup4\n        /* \"#utility.yul\":13529:13559   */\n      calldatacopy\n        /* \"#utility.yul\":13614:13615   */\n      0x00\n        /* \"#utility.yul\":13605:13611   */\n      dup4\n        /* \"#utility.yul\":13600:13603   */\n      dup4\n        /* \"#utility.yul\":13596:13612   */\n      add\n        /* \"#utility.yul\":13589:13616   */\n      mstore\n        /* \"#utility.yul\":13519:13622   */\n      pop\n      pop\n      pop\n      jump\t// out\n        /* \"#utility.yul\":13628:13935   */\n    tag_241:\n        /* \"#utility.yul\":13696:13697   */\n      0x00\n        /* \"#utility.yul\":13706:13819   */\n    tag_330:\n        /* \"#utility.yul\":13720:13726   */\n      dup4\n        /* \"#utility.yul\":13717:13718   */\n      dup2\n        /* \"#utility.yul\":13714:13727   */\n      lt\n        /* \"#utility.yul\":13706:13819   */\n      iszero\n      tag_332\n      jumpi\n        /* \"#utility.yul\":13805:13806   */\n      dup1\n        /* \"#utility.yul\":13800:13803   */\n      dup3\n        /* \"#utility.yul\":13796:13807   */\n      add\n        /* \"#utility.yul\":13790:13808   */\n      mload\n        /* \"#utility.yul\":13786:13787   */\n      dup2\n        /* \"#utility.yul\":13781:13784   */\n      dup5\n        /* \"#utility.yul\":13777:13788   */\n      add\n        /* \"#utility.yul\":13770:13809   */\n      mstore\n        /* \"#utility.yul\":13742:13744   */\n      0x20\n        /* \"#utility.yul\":13739:13740   */\n      dup2\n        /* \"#utility.yul\":13735:13745   */\n      add\n        /* \"#utility.yul\":13730:13745   */\n      swap1\n      pop\n        /* \"#utility.yul\":13706:13819   */\n      jump(tag_330)\n    tag_332:\n        /* \"#utility.yul\":13837:13843   */\n      dup4\n        /* \"#utility.yul\":13834:13835   */\n      dup2\n        /* \"#utility.yul\":13831:13844   */\n      gt\n        /* \"#utility.yul\":13828:13830   */\n      iszero\n      tag_333\n      jumpi\n        /* \"#utility.yul\":13917:13918   */\n      0x00\n        /* \"#utility.yul\":13908:13914   */\n      dup5\n        /* \"#utility.yul\":13903:13906   */\n      dup5\n        /* \"#utility.yul\":13899:13915   */\n      add\n        /* \"#utility.yul\":13892:13919   */\n      mstore\n        /* \"#utility.yul\":13828:13830   */\n    tag_333:\n        /* \"#utility.yul\":13677:13935   */\n      pop\n      pop\n      pop\n      pop\n      jump\t// out\n        /* \"#utility.yul\":13941:14174   */\n    tag_132:\n      0x00\n        /* \"#utility.yul\":14003:14027   */\n      tag_335\n        /* \"#utility.yul\":14021:14026   */\n      dup3\n        /* \"#utility.yul\":14003:14027   */\n      tag_276\n      jump\t// in\n    tag_335:\n        /* \"#utility.yul\":13994:14027   */\n      swap2\n      pop\n        /* \"#utility.yul\":14049:14115   */\n      0xffffffffffffffffffffffffffffffffffffffffffffffffffffffffffffffff\n        /* \"#utility.yul\":14042:14047   */\n      dup3\n        /* \"#utility.yul\":14039:14116   */\n      eq\n        /* \"#utility.yul\":14036:14038   */\n      iszero\n      tag_336\n      jumpi\n        /* \"#utility.yul\":14119:14137   */\n      tag_337\n      tag_319\n      jump\t// in\n    tag_337:\n        /* \"#utility.yul\":14036:14038   */\n    tag_336:\n        /* \"#utility.yul\":14166:14167   */\n      0x01\n        /* \"#utility.yul\":14159:14164   */\n      dup3\n        /* \"#utility.yul\":14155:14168   */\n      add\n        /* \"#utility.yul\":14148:14168   */\n      swap1\n      pop\n        /* \"#utility.yul\":13984:14174   */\n      swap2\n      swap1\n      pop\n      jump\t// out\n        /* \"#utility.yul\":14180:14360   */\n    tag_319:\n        /* \"#utility.yul\":14228:14305   */\n      0x4e487b7100000000000000000000000000000000000000000000000000000000\n        /* \"#utility.yul\":14225:14226   */\n      0x00\n        /* \"#utility.yul\":14218:14306   */\n      mstore\n        /* \"#utility.yul\":14325:14329   */\n      0x11\n        /* \"#utility.yul\":14322:14323   */\n      0x04\n        /* \"#utility.yul\":14315:14330   */\n      mstore\n        /* \"#utility.yul\":14349:14353   */\n      0x24\n        /* \"#utility.yul\":14346:14347   */\n      0x00\n        /* \"#utility.yul\":14339:14354   */\n      revert\n        /* \"#utility.yul\":14366:14546   */\n    tag_305:\n        /* \"#utility.yul\":14414:14491   */\n      0x4e487b7100000000000000000000000000000000000000000000000000000000\n        /* \"#utility.yul\":14411:14412   */\n      0x00\n        /* \"#utility.yul\":14404:14492   */\n      mstore\n        /* \"#utility.yul\":14511:14515   */\n      0x41\n        /* \"#utility.yul\":14508:14509   */\n      0x04\n        /* \"#utility.yul\":14501:14516   */\n      mstore\n        /* \"#utility.yul\":14535:14539   */\n      0x24\n        /* \"#utility.yul\":14532:14533   */\n      0x00\n        /* \"#utility.yul\":14525:14540   */\n      revert\n        /* \"#utility.yul\":14552:14654   */\n    tag_243:\n      0x00\n        /* \"#utility.yul\":14644:14646   */\n      0x1f\n        /* \"#utility.yul\":14640:14647   */\n      not\n        /* \"#utility.yul\":14635:14637   */\n      0x1f\n        /* \"#utility.yul\":14628:14633   */\n      dup4\n        /* \"#utility.yul\":14624:14638   */\n      add\n        /* \"#utility.yul\":14620:14648   */\n      and\n        /* \"#utility.yul\":14610:14648   */\n      swap1\n      pop\n        /* \"#utility.yul\":14600:14654   */\n      swap2\n      swap1\n      pop\n      jump\t// out\n        /* \"#utility.yul\":14660:14782   */\n    tag_181:\n        /* \"#utility.yul\":14733:14757   */\n      tag_342\n        /* \"#utility.yul\":14751:14756   */\n      dup2\n        /* \"#utility.yul\":14733:14757   */\n      tag_229\n      jump\t// in\n    tag_342:\n        /* \"#utility.yul\":14726:14731   */\n      dup2\n        /* \"#utility.yul\":14723:14758   */\n      eq\n        /* \"#utility.yul\":14713:14715   */\n      tag_343\n      jumpi\n        /* \"#utility.yul\":14772:14773   */\n      0x00\n        /* \"#utility.yul\":14769:14770   */\n      dup1\n        /* \"#utility.yul\":14762:14774   */\n      revert\n        /* \"#utility.yul\":14713:14715   */\n    tag_343:\n        /* \"#utility.yul\":14703:14782   */\n      pop\n      jump\t// out\n        /* \"#utility.yul\":14788:14904   */\n    tag_185:\n        /* \"#utility.yul\":14858:14879   */\n      tag_345\n        /* \"#utility.yul\":14873:14878   */\n      dup2\n        /* \"#utility.yul\":14858:14879   */\n      tag_233\n      jump\t// in\n    tag_345:\n        /* \"#utility.yul\":14851:14856   */\n      dup2\n        /* \"#utility.yul\":14848:14880   */\n      eq\n        /* \"#utility.yul\":14838:14840   */\n      tag_346\n      jumpi\n        /* \"#utility.yul\":14894:14895   */\n      0x00\n        /* \"#utility.yul\":14891:14892   */\n      dup1\n        /* \"#utility.yul\":14884:14896   */\n      revert\n        /* \"#utility.yul\":14838:14840   */\n    tag_346:\n        /* \"#utility.yul\":14828:14904   */\n      pop\n      jump\t// out\n        /* \"#utility.yul\":14910:15030   */\n    tag_193:\n        /* \"#utility.yul\":14982:15005   */\n      tag_348\n        /* \"#utility.yul\":14999:15004   */\n      dup2\n        /* \"#utility.yul\":14982:15005   */\n      tag_324\n      jump\t// in\n    tag_348:\n        /* \"#utility.yul\":14975:14980   */\n      dup2\n        /* \"#utility.yul\":14972:15006   */\n      eq\n        /* \"#utility.yul\":14962:14964   */\n      tag_349\n      jumpi\n        /* \"#utility.yul\":15020:15021   */\n      0x00\n        /* \"#utility.yul\":15017:15018   */\n      dup1\n        /* \"#utility.yul\":15010:15022   */\n      revert\n        /* \"#utility.yul\":14962:14964   */\n    tag_349:\n        /* \"#utility.yul\":14952:15030   */\n      pop\n      jump\t// out\n        /* \"#utility.yul\":15036:15158   */\n    tag_197:\n        /* \"#utility.yul\":15109:15133   */\n      tag_351\n        /* \"#utility.yul\":15127:15132   */\n      dup2\n        /* \"#utility.yul\":15109:15133   */\n      tag_276\n      jump\t// in\n    tag_351:\n        /* \"#utility.yul\":15102:15107   */\n      dup2\n        /* \"#utility.yul\":15099:15134   */\n      eq\n        /* \"#utility.yul\":15089:15091   */\n      tag_352\n      jumpi\n        /* \"#utility.yul\":15148:15149   */\n      0x00\n        /* \"#utility.yul\":15145:15146   */\n      dup1\n        /* \"#utility.yul\":15138:15150   */\n      revert\n        /* \"#utility.yul\":15089:15091   */\n    tag_352:\n        /* \"#utility.yul\":15079:15158   */\n      pop\n      jump\t// out\n    stop\n\n    sub_0: assembly {\n            /* \"contracts/InitializedProxy.sol\":202:1861  contract InitializedProxy {\r... */\n          mstore(0x40, 0x80)\n            /* \"contracts/InitializedProxy.sol\":516:1083  constructor(\r... */\n          callvalue\n          dup1\n          iszero\n          tag_1\n          jumpi\n          0x00\n          dup1\n          revert\n        tag_1:\n          pop\n          mload(0x40)\n          sub(codesize, bytecodeSize)\n          dup1\n          bytecodeSize\n          dup4\n          codecopy\n          dup2\n          dup2\n          add\n          0x40\n          mstore\n          dup2\n          add\n          swap1\n          tag_2\n          swap2\n          swap1\n          tag_3\n          jump\t// in\n        tag_2:\n            /* \"contracts/InitializedProxy.sol\":642:643  0 */\n          0x00\n            /* \"contracts/InitializedProxy.sol\":625:644  logic != address(0) */\n          0xffffffffffffffffffffffffffffffffffffffff\n          and\n            /* \"contracts/InitializedProxy.sol\":625:630  logic */\n          dup3\n            /* \"contracts/InitializedProxy.sol\":625:644  logic != address(0) */\n          0xffffffffffffffffffffffffffffffffffffffff\n          and\n          eq\n          iszero\n            /* \"contracts/InitializedProxy.sol\":617:699  require(logic != address(0),\"Proxy :: Logical contracts cannot be zero addresses\") */\n          tag_6\n          jumpi\n          mload(0x40)\n          0x08c379a000000000000000000000000000000000000000000000000000000000\n          dup2\n          mstore\n          0x04\n          add\n          tag_7\n          swap1\n          tag_8\n          jump\t// in\n        tag_7:\n          mload(0x40)\n          dup1\n          swap2\n          sub\n          swap1\n          revert\n        tag_6:\n            /* \"contracts/InitializedProxy.sol\":778:783  logic */\n          dup2\n            /* \"contracts/InitializedProxy.sol\":710:769  StorageSlotUpgradeable.getAddressSlot(_IMPLEMENTATION_SLOT) */\n          tag_9\n            /* \"contracts/InitializedProxy.sol\":402:468  0x5f62ce3c9aebd463c7a36ab1b244d2bb94f07a2c13889b3b687940ebc467b9b3 */\n          0x5f62ce3c9aebd463c7a36ab1b244d2bb94f07a2c13889b3b687940ebc467b9b3\n            /* \"contracts/InitializedProxy.sol\":748:768  _IMPLEMENTATION_SLOT */\n          0x00\n          shl\n            /* \"contracts/InitializedProxy.sol\":710:747  StorageSlotUpgradeable.getAddressSlot */\n          or(tag_0_8, shl(0x20, tag_10))\n            /* \"contracts/InitializedProxy.sol\":710:769  StorageSlotUpgradeable.getAddressSlot(_IMPLEMENTATION_SLOT) */\n          0x20\n          shr\n          jump\t// in\n        tag_9:\n            /* \"contracts/InitializedProxy.sol\":710:775  StorageSlotUpgradeable.getAddressSlot(_IMPLEMENTATION_SLOT).value */\n          0x00\n          add\n          0x00\n            /* \"contracts/InitializedProxy.sol\":710:783  StorageSlotUpgradeable.getAddressSlot(_IMPLEMENTATION_SLOT).value = logic */\n          0x0100\n          exp\n          dup2\n          sload\n          dup2\n          0xffffffffffffffffffffffffffffffffffffffff\n          mul\n          not\n          and\n          swap1\n          dup4\n          0xffffffffffffffffffffffffffffffffffffffff\n          and\n          mul\n          or\n          swap1\n          sstore\n          pop\n            /* \"contracts/InitializedProxy.sol\":879:887  bool _ok */\n          0x00\n            /* \"contracts/InitializedProxy.sol\":889:912  bytes memory returnData */\n          dup1\n            /* \"contracts/InitializedProxy.sol\":929:934  logic */\n          dup4\n            /* \"contracts/InitializedProxy.sol\":929:947  logic.delegatecall */\n          0xffffffffffffffffffffffffffffffffffffffff\n          and\n            /* \"contracts/InitializedProxy.sol\":948:970  initializationCalldata */\n          dup4\n            /* \"contracts/InitializedProxy.sol\":929:971  logic.delegatecall(initializationCalldata) */\n          mload(0x40)\n          tag_11\n          swap2\n          swap1\n          tag_12\n          jump\t// in\n        tag_11:\n          0x00\n          mload(0x40)\n          dup1\n          dup4\n          sub\n          dup2\n          dup6\n          gas\n          delegatecall\n          swap2\n          pop\n          pop\n          returndatasize\n          dup1\n          0x00\n          dup2\n          eq\n          tag_15\n          jumpi\n          mload(0x40)\n          swap2\n          pop\n          and(add(returndatasize, 0x3f), not(0x1f))\n          dup3\n          add\n          0x40\n          mstore\n          returndatasize\n          dup3\n          mstore\n          returndatasize\n          0x00\n          0x20\n          dup5\n          add\n          returndatacopy\n          jump(tag_14)\n        tag_15:\n          0x60\n          swap2\n          pop\n        tag_14:\n          pop\n            /* \"contracts/InitializedProxy.sol\":878:971  (bool _ok, bytes memory returnData) =\r... */\n          swap2\n          pop\n          swap2\n          pop\n            /* \"contracts/InitializedProxy.sol\":1051:1054  _ok */\n          dup2\n            /* \"contracts/InitializedProxy.sol\":1063:1073  returnData */\n          dup2\n            /* \"contracts/InitializedProxy.sol\":1043:1075  require(_ok, string(returnData)) */\n          swap1\n          tag_16\n          jumpi\n          mload(0x40)\n          0x08c379a000000000000000000000000000000000000000000000000000000000\n          dup2\n          mstore\n          0x04\n          add\n          tag_17\n          swap2\n          swap1\n          tag_18\n          jump\t// in\n        tag_17:\n          mload(0x40)\n          dup1\n          swap2\n          sub\n          swap1\n          revert\n        tag_16:\n          pop\n            /* \"contracts/InitializedProxy.sol\":516:1083  constructor(\r... */\n          pop\n          pop\n          pop\n          pop\n            /* \"contracts/InitializedProxy.sol\":202:1861  contract InitializedProxy {\r... */\n          jump(tag_19)\n            /* \"@openzeppelin/contracts-upgradeable/utils/StorageSlotUpgradeable.sol\":1553:1700  function getAddressSlot(bytes32 slot) internal pure returns (AddressSlot storage r) {... */\n        tag_10:\n            /* \"@openzeppelin/contracts-upgradeable/utils/StorageSlotUpgradeable.sol\":1614:1635  AddressSlot storage r */\n          0x00\n            /* \"@openzeppelin/contracts-upgradeable/utils/StorageSlotUpgradeable.sol\":1680:1684  slot */\n          dup2\n            /* \"@openzeppelin/contracts-upgradeable/utils/StorageSlotUpgradeable.sol\":1670:1684  r.slot := slot */\n          swap1\n          pop\n            /* \"@openzeppelin/contracts-upgradeable/utils/StorageSlotUpgradeable.sol\":1656:1694  {... */\n          swap2\n          swap1\n          pop\n          jump\t// out\n            /* \"#utility.yul\":7:358   */\n        tag_22:\n          0x00\n            /* \"#utility.yul\":120:184   */\n          tag_24\n            /* \"#utility.yul\":135:183   */\n          tag_25\n            /* \"#utility.yul\":176:182   */\n          dup5\n            /* \"#utility.yul\":135:183   */\n          tag_26\n          jump\t// in\n        tag_25:\n            /* \"#utility.yul\":120:184   */\n          tag_27\n          jump\t// in\n        tag_24:\n            /* \"#utility.yul\":111:184   */\n          swap1\n          pop\n            /* \"#utility.yul\":207:213   */\n          dup3\n            /* \"#utility.yul\":200:205   */\n          dup2\n            /* \"#utility.yul\":193:214   */\n          mstore\n            /* \"#utility.yul\":245:249   */\n          0x20\n            /* \"#utility.yul\":238:243   */\n          dup2\n            /* \"#utility.yul\":234:250   */\n          add\n            /* \"#utility.yul\":283:286   */\n          dup5\n            /* \"#utility.yul\":274:280   */\n          dup5\n            /* \"#utility.yul\":269:272   */\n          dup5\n            /* \"#utility.yul\":265:281   */\n          add\n            /* \"#utility.yul\":262:287   */\n          gt\n            /* \"#utility.yul\":259:261   */\n          iszero\n          tag_28\n          jumpi\n            /* \"#utility.yul\":300:301   */\n          0x00\n            /* \"#utility.yul\":297:298   */\n          dup1\n            /* \"#utility.yul\":290:302   */\n          revert\n            /* \"#utility.yul\":259:261   */\n        tag_28:\n            /* \"#utility.yul\":313:352   */\n          tag_29\n            /* \"#utility.yul\":345:351   */\n          dup5\n            /* \"#utility.yul\":340:343   */\n          dup3\n            /* \"#utility.yul\":335:338   */\n          dup6\n            /* \"#utility.yul\":313:352   */\n          tag_30\n          jump\t// in\n        tag_29:\n            /* \"#utility.yul\":101:358   */\n          pop\n          swap4\n          swap3\n          pop\n          pop\n          pop\n          jump\t// out\n            /* \"#utility.yul\":364:507   */\n        tag_31:\n          0x00\n            /* \"#utility.yul\":452:458   */\n          dup2\n            /* \"#utility.yul\":446:459   */\n          mload\n            /* \"#utility.yul\":437:459   */\n          swap1\n          pop\n            /* \"#utility.yul\":468:501   */\n          tag_33\n            /* \"#utility.yul\":495:500   */\n          dup2\n            /* \"#utility.yul\":468:501   */\n          tag_34\n          jump\t// in\n        tag_33:\n            /* \"#utility.yul\":427:507   */\n          swap3\n          swap2\n          pop\n          pop\n          jump\t// out\n            /* \"#utility.yul\":526:812   */\n        tag_35:\n          0x00\n            /* \"#utility.yul\":641:644   */\n          dup3\n            /* \"#utility.yul\":634:638   */\n          0x1f\n            /* \"#utility.yul\":626:632   */\n          dup4\n            /* \"#utility.yul\":622:639   */\n          add\n            /* \"#utility.yul\":618:645   */\n          slt\n            /* \"#utility.yul\":608:610   */\n          tag_37\n          jumpi\n            /* \"#utility.yul\":659:660   */\n          0x00\n            /* \"#utility.yul\":656:657   */\n          dup1\n            /* \"#utility.yul\":649:661   */\n          revert\n            /* \"#utility.yul\":608:610   */\n        tag_37:\n            /* \"#utility.yul\":692:698   */\n          dup2\n            /* \"#utility.yul\":686:699   */\n          mload\n            /* \"#utility.yul\":717:806   */\n          tag_38\n            /* \"#utility.yul\":802:805   */\n          dup5\n            /* \"#utility.yul\":794:800   */\n          dup3\n            /* \"#utility.yul\":787:791   */\n          0x20\n            /* \"#utility.yul\":779:785   */\n          dup7\n            /* \"#utility.yul\":775:792   */\n          add\n            /* \"#utility.yul\":717:806   */\n          tag_22\n          jump\t// in\n        tag_38:\n            /* \"#utility.yul\":708:806   */\n          swap2\n          pop\n            /* \"#utility.yul\":598:812   */\n          pop\n          swap3\n          swap2\n          pop\n          pop\n          jump\t// out\n            /* \"#utility.yul\":818:1362   */\n        tag_3:\n          0x00\n          dup1\n            /* \"#utility.yul\":963:965   */\n          0x40\n            /* \"#utility.yul\":951:960   */\n          dup4\n            /* \"#utility.yul\":942:949   */\n          dup6\n            /* \"#utility.yul\":938:961   */\n          sub\n            /* \"#utility.yul\":934:966   */\n          slt\n            /* \"#utility.yul\":931:933   */\n          iszero\n          tag_40\n          jumpi\n            /* \"#utility.yul\":979:980   */\n          0x00\n            /* \"#utility.yul\":976:977   */\n          dup1\n            /* \"#utility.yul\":969:981   */\n          revert\n            /* \"#utility.yul\":931:933   */\n        tag_40:\n            /* \"#utility.yul\":1022:1023   */\n          0x00\n            /* \"#utility.yul\":1047:1111   */\n          tag_41\n            /* \"#utility.yul\":1103:1110   */\n          dup6\n            /* \"#utility.yul\":1094:1100   */\n          dup3\n            /* \"#utility.yul\":1083:1092   */\n          dup7\n            /* \"#utility.yul\":1079:1101   */\n          add\n            /* \"#utility.yul\":1047:1111   */\n          tag_31\n          jump\t// in\n        tag_41:\n            /* \"#utility.yul\":1037:1111   */\n          swap3\n          pop\n            /* \"#utility.yul\":993:1121   */\n          pop\n            /* \"#utility.yul\":1181:1183   */\n          0x20\n            /* \"#utility.yul\":1170:1179   */\n          dup4\n            /* \"#utility.yul\":1166:1184   */\n          add\n            /* \"#utility.yul\":1160:1185   */\n          mload\n            /* \"#utility.yul\":1212:1230   */\n          0xffffffffffffffff\n            /* \"#utility.yul\":1204:1210   */\n          dup2\n            /* \"#utility.yul\":1201:1231   */\n          gt\n            /* \"#utility.yul\":1198:1200   */\n          iszero\n          tag_42\n          jumpi\n            /* \"#utility.yul\":1244:1245   */\n          0x00\n            /* \"#utility.yul\":1241:1242   */\n          dup1\n            /* \"#utility.yul\":1234:1246   */\n          revert\n            /* \"#utility.yul\":1198:1200   */\n        tag_42:\n            /* \"#utility.yul\":1272:1345   */\n          tag_43\n            /* \"#utility.yul\":1337:1344   */\n          dup6\n            /* \"#utility.yul\":1328:1334   */\n          dup3\n            /* \"#utility.yul\":1317:1326   */\n          dup7\n            /* \"#utility.yul\":1313:1335   */\n          add\n            /* \"#utility.yul\":1272:1345   */\n          tag_35\n          jump\t// in\n        tag_43:\n            /* \"#utility.yul\":1262:1345   */\n          swap2\n          pop\n            /* \"#utility.yul\":1131:1355   */\n          pop\n            /* \"#utility.yul\":921:1362   */\n          swap3\n          pop\n          swap3\n          swap1\n          pop\n          jump\t// out\n            /* \"#utility.yul\":1368:1741   */\n        tag_44:\n          0x00\n            /* \"#utility.yul\":1500:1538   */\n          tag_46\n            /* \"#utility.yul\":1532:1537   */\n          dup3\n            /* \"#utility.yul\":1500:1538   */\n          tag_47\n          jump\t// in\n        tag_46:\n            /* \"#utility.yul\":1554:1642   */\n          tag_48\n            /* \"#utility.yul\":1635:1641   */\n          dup2\n            /* \"#utility.yul\":1630:1633   */\n          dup6\n            /* \"#utility.yul\":1554:1642   */\n          tag_49\n          jump\t// in\n        tag_48:\n            /* \"#utility.yul\":1547:1642   */\n          swap4\n          pop\n            /* \"#utility.yul\":1651:1703   */\n          tag_50\n            /* \"#utility.yul\":1696:1702   */\n          dup2\n            /* \"#utility.yul\":1691:1694   */\n          dup6\n            /* \"#utility.yul\":1684:1688   */\n          0x20\n            /* \"#utility.yul\":1677:1682   */\n          dup7\n            /* \"#utility.yul\":1673:1689   */\n          add\n            /* \"#utility.yul\":1651:1703   */\n          tag_30\n          jump\t// in\n        tag_50:\n            /* \"#utility.yul\":1728:1734   */\n          dup1\n            /* \"#utility.yul\":1723:1726   */\n          dup5\n            /* \"#utility.yul\":1719:1735   */\n          add\n            /* \"#utility.yul\":1712:1735   */\n          swap2\n          pop\n            /* \"#utility.yul\":1476:1741   */\n          pop\n          swap3\n          swap2\n          pop\n          pop\n          jump\t// out\n            /* \"#utility.yul\":1747:2111   */\n        tag_51:\n          0x00\n            /* \"#utility.yul\":1863:1902   */\n          tag_53\n            /* \"#utility.yul\":1896:1901   */\n          dup3\n            /* \"#utility.yul\":1863:1902   */\n          tag_54\n          jump\t// in\n        tag_53:\n            /* \"#utility.yul\":1918:1989   */\n          tag_55\n            /* \"#utility.yul\":1982:1988   */\n          dup2\n            /* \"#utility.yul\":1977:1980   */\n          dup6\n            /* \"#utility.yul\":1918:1989   */\n          tag_56\n          jump\t// in\n        tag_55:\n            /* \"#utility.yul\":1911:1989   */\n          swap4\n          pop\n            /* \"#utility.yul\":1998:2050   */\n          tag_57\n            /* \"#utility.yul\":2043:2049   */\n          dup2\n            /* \"#utility.yul\":2038:2041   */\n          dup6\n            /* \"#utility.yul\":2031:2035   */\n          0x20\n            /* \"#utility.yul\":2024:2029   */\n          dup7\n            /* \"#utility.yul\":2020:2036   */\n          add\n            /* \"#utility.yul\":1998:2050   */\n          tag_30\n          jump\t// in\n        tag_57:\n            /* \"#utility.yul\":2075:2104   */\n          tag_58\n            /* \"#utility.yul\":2097:2103   */\n          dup2\n            /* \"#utility.yul\":2075:2104   */\n          tag_59\n          jump\t// in\n        tag_58:\n            /* \"#utility.yul\":2070:2073   */\n          dup5\n            /* \"#utility.yul\":2066:2105   */\n          add\n            /* \"#utility.yul\":2059:2105   */\n          swap2\n          pop\n            /* \"#utility.yul\":1839:2111   */\n          pop\n          swap3\n          swap2\n          pop\n          pop\n          jump\t// out\n            /* \"#utility.yul\":2117:2500   */\n        tag_60:\n          0x00\n            /* \"#utility.yul\":2280:2347   */\n          tag_62\n            /* \"#utility.yul\":2344:2346   */\n          0x33\n            /* \"#utility.yul\":2339:2342   */\n          dup4\n            /* \"#utility.yul\":2280:2347   */\n          tag_56\n          jump\t// in\n        tag_62:\n            /* \"#utility.yul\":2273:2347   */\n          swap2\n          pop\n            /* \"#utility.yul\":2377:2411   */\n          0x50726f7879203a3a204c6f676963616c20636f6e7472616374732063616e6e6f\n            /* \"#utility.yul\":2373:2374   */\n          0x00\n            /* \"#utility.yul\":2368:2371   */\n          dup4\n            /* \"#utility.yul\":2364:2375   */\n          add\n            /* \"#utility.yul\":2357:2412   */\n          mstore\n            /* \"#utility.yul\":2443:2464   */\n          0x74206265207a65726f2061646472657373657300000000000000000000000000\n            /* \"#utility.yul\":2438:2440   */\n          0x20\n            /* \"#utility.yul\":2433:2436   */\n          dup4\n            /* \"#utility.yul\":2429:2441   */\n          add\n            /* \"#utility.yul\":2422:2465   */\n          mstore\n            /* \"#utility.yul\":2491:2493   */\n          0x40\n            /* \"#utility.yul\":2486:2489   */\n          dup3\n            /* \"#utility.yul\":2482:2494   */\n          add\n            /* \"#utility.yul\":2475:2494   */\n          swap1\n          pop\n            /* \"#utility.yul\":2263:2500   */\n          swap2\n          swap1\n          pop\n          jump\t// out\n            /* \"#utility.yul\":2506:2777   */\n        tag_12:\n          0x00\n            /* \"#utility.yul\":2658:2751   */\n          tag_64\n            /* \"#utility.yul\":2747:2750   */\n          dup3\n            /* \"#utility.yul\":2738:2744   */\n          dup5\n            /* \"#utility.yul\":2658:2751   */\n          tag_44\n          jump\t// in\n        tag_64:\n            /* \"#utility.yul\":2651:2751   */\n          swap2\n          pop\n            /* \"#utility.yul\":2768:2771   */\n          dup2\n            /* \"#utility.yul\":2761:2771   */\n          swap1\n          pop\n            /* \"#utility.yul\":2640:2777   */\n          swap3\n          swap2\n          pop\n          pop\n          jump\t// out\n            /* \"#utility.yul\":2783:3096   */\n        tag_18:\n          0x00\n            /* \"#utility.yul\":2934:2936   */\n          0x20\n            /* \"#utility.yul\":2923:2932   */\n          dup3\n            /* \"#utility.yul\":2919:2937   */\n          add\n            /* \"#utility.yul\":2911:2937   */\n          swap1\n          pop\n            /* \"#utility.yul\":2983:2992   */\n          dup2\n            /* \"#utility.yul\":2977:2981   */\n          dup2\n            /* \"#utility.yul\":2973:2993   */\n          sub\n            /* \"#utility.yul\":2969:2970   */\n          0x00\n            /* \"#utility.yul\":2958:2967   */\n          dup4\n            /* \"#utility.yul\":2954:2971   */\n          add\n            /* \"#utility.yul\":2947:2994   */\n          mstore\n            /* \"#utility.yul\":3011:3089   */\n          tag_66\n            /* \"#utility.yul\":3084:3088   */\n          dup2\n            /* \"#utility.yul\":3075:3081   */\n          dup5\n            /* \"#utility.yul\":3011:3089   */\n          tag_51\n          jump\t// in\n        tag_66:\n            /* \"#utility.yul\":3003:3089   */\n          swap1\n          pop\n            /* \"#utility.yul\":2901:3096   */\n          swap3\n          swap2\n          pop\n          pop\n          jump\t// out\n            /* \"#utility.yul\":3102:3521   */\n        tag_8:\n          0x00\n            /* \"#utility.yul\":3306:3308   */\n          0x20\n            /* \"#utility.yul\":3295:3304   */\n          dup3\n            /* \"#utility.yul\":3291:3309   */\n          add\n            /* \"#utility.yul\":3283:3309   */\n          swap1\n          pop\n            /* \"#utility.yul\":3355:3364   */\n          dup2\n            /* \"#utility.yul\":3349:3353   */\n          dup2\n            /* \"#utility.yul\":3345:3365   */\n          sub\n            /* \"#utility.yul\":3341:3342   */\n          0x00\n            /* \"#utility.yul\":3330:3339   */\n          dup4\n            /* \"#utility.yul\":3326:3343   */\n          add\n            /* \"#utility.yul\":3319:3366   */\n          mstore\n            /* \"#utility.yul\":3383:3514   */\n          tag_68\n            /* \"#utility.yul\":3509:3513   */\n          dup2\n            /* \"#utility.yul\":3383:3514   */\n          tag_60\n          jump\t// in\n        tag_68:\n            /* \"#utility.yul\":3375:3514   */\n          swap1\n          pop\n            /* \"#utility.yul\":3273:3521   */\n          swap2\n          swap1\n          pop\n          jump\t// out\n            /* \"#utility.yul\":3527:3810   */\n        tag_27:\n          0x00\n            /* \"#utility.yul\":3593:3595   */\n          0x40\n            /* \"#utility.yul\":3587:3596   */\n          mload\n            /* \"#utility.yul\":3577:3596   */\n          swap1\n          pop\n            /* \"#utility.yul\":3635:3639   */\n          dup2\n            /* \"#utility.yul\":3627:3633   */\n          dup2\n            /* \"#utility.yul\":3623:3640   */\n          add\n            /* \"#utility.yul\":3742:3748   */\n          dup2\n            /* \"#utility.yul\":3730:3740   */\n          dup2\n            /* \"#utility.yul\":3727:3749   */\n          lt\n            /* \"#utility.yul\":3706:3724   */\n          0xffffffffffffffff\n            /* \"#utility.yul\":3694:3704   */\n          dup3\n            /* \"#utility.yul\":3691:3725   */\n          gt\n            /* \"#utility.yul\":3688:3750   */\n          or\n            /* \"#utility.yul\":3685:3687   */\n          iszero\n          tag_70\n          jumpi\n            /* \"#utility.yul\":3753:3771   */\n          tag_71\n          tag_72\n          jump\t// in\n        tag_71:\n            /* \"#utility.yul\":3685:3687   */\n        tag_70:\n            /* \"#utility.yul\":3793:3803   */\n          dup1\n            /* \"#utility.yul\":3789:3791   */\n          0x40\n            /* \"#utility.yul\":3782:3804   */\n          mstore\n            /* \"#utility.yul\":3567:3810   */\n          pop\n          swap2\n          swap1\n          pop\n          jump\t// out\n            /* \"#utility.yul\":3816:4147   */\n        tag_26:\n          0x00\n            /* \"#utility.yul\":3967:3985   */\n          0xffffffffffffffff\n            /* \"#utility.yul\":3959:3965   */\n          dup3\n            /* \"#utility.yul\":3956:3986   */\n          gt\n            /* \"#utility.yul\":3953:3955   */\n          iszero\n          tag_74\n          jumpi\n            /* \"#utility.yul\":3989:4007   */\n          tag_75\n          tag_72\n          jump\t// in\n        tag_75:\n            /* \"#utility.yul\":3953:3955   */\n        tag_74:\n            /* \"#utility.yul\":4074:4078   */\n          0x1f\n            /* \"#utility.yul\":4070:4079   */\n          not\n            /* \"#utility.yul\":4063:4067   */\n          0x1f\n            /* \"#utility.yul\":4055:4061   */\n          dup4\n            /* \"#utility.yul\":4051:4068   */\n          add\n            /* \"#utility.yul\":4047:4080   */\n          and\n            /* \"#utility.yul\":4039:4080   */\n          swap1\n          pop\n            /* \"#utility.yul\":4135:4139   */\n          0x20\n            /* \"#utility.yul\":4129:4133   */\n          dup2\n            /* \"#utility.yul\":4125:4140   */\n          add\n            /* \"#utility.yul\":4117:4140   */\n          swap1\n          pop\n            /* \"#utility.yul\":3882:4147   */\n          swap2\n          swap1\n          pop\n          jump\t// out\n            /* \"#utility.yul\":4153:4251   */\n        tag_47:\n          0x00\n            /* \"#utility.yul\":4238:4243   */\n          dup2\n            /* \"#utility.yul\":4232:4244   */\n          mload\n            /* \"#utility.yul\":4222:4244   */\n          swap1\n          pop\n            /* \"#utility.yul\":4211:4251   */\n          swap2\n          swap1\n          pop\n          jump\t// out\n            /* \"#utility.yul\":4257:4356   */\n        tag_54:\n          0x00\n            /* \"#utility.yul\":4343:4348   */\n          dup2\n            /* \"#utility.yul\":4337:4349   */\n          mload\n            /* \"#utility.yul\":4327:4349   */\n          swap1\n          pop\n            /* \"#utility.yul\":4316:4356   */\n          swap2\n          swap1\n          pop\n          jump\t// out\n            /* \"#utility.yul\":4362:4509   */\n        tag_49:\n          0x00\n            /* \"#utility.yul\":4500:4503   */\n          dup2\n            /* \"#utility.yul\":4485:4503   */\n          swap1\n          pop\n            /* \"#utility.yul\":4475:4509   */\n          swap3\n          swap2\n          pop\n          pop\n          jump\t// out\n            /* \"#utility.yul\":4515:4684   */\n        tag_56:\n          0x00\n            /* \"#utility.yul\":4633:4639   */\n          dup3\n            /* \"#utility.yul\":4628:4631   */\n          dup3\n            /* \"#utility.yul\":4621:4640   */\n          mstore\n            /* \"#utility.yul\":4673:4677   */\n          0x20\n            /* \"#utility.yul\":4668:4671   */\n          dup3\n            /* \"#utility.yul\":4664:4678   */\n          add\n            /* \"#utility.yul\":4649:4678   */\n          swap1\n          pop\n            /* \"#utility.yul\":4611:4684   */\n          swap3\n          swap2\n          pop\n          pop\n          jump\t// out\n            /* \"#utility.yul\":4690:4786   */\n        tag_80:\n          0x00\n            /* \"#utility.yul\":4756:4780   */\n          tag_82\n            /* \"#utility.yul\":4774:4779   */\n          dup3\n            /* \"#utility.yul\":4756:4780   */\n          tag_83\n          jump\t// in\n        tag_82:\n            /* \"#utility.yul\":4745:4780   */\n          swap1\n          pop\n            /* \"#utility.yul\":4735:4786   */\n          swap2\n          swap1\n          pop\n          jump\t// out\n            /* \"#utility.yul\":4792:4918   */\n        tag_83:\n          0x00\n            /* \"#utility.yul\":4869:4911   */\n          0xffffffffffffffffffffffffffffffffffffffff\n            /* \"#utility.yul\":4862:4867   */\n          dup3\n            /* \"#utility.yul\":4858:4912   */\n          and\n            /* \"#utility.yul\":4847:4912   */\n          swap1\n          pop\n            /* \"#utility.yul\":4837:4918   */\n          swap2\n          swap1\n          pop\n          jump\t// out\n            /* \"#utility.yul\":4924:5231   */\n        tag_30:\n            /* \"#utility.yul\":4992:4993   */\n          0x00\n            /* \"#utility.yul\":5002:5115   */\n        tag_86:\n            /* \"#utility.yul\":5016:5022   */\n          dup4\n            /* \"#utility.yul\":5013:5014   */\n          dup2\n            /* \"#utility.yul\":5010:5023   */\n          lt\n            /* \"#utility.yul\":5002:5115   */\n          iszero\n          tag_88\n          jumpi\n            /* \"#utility.yul\":5101:5102   */\n          dup1\n            /* \"#utility.yul\":5096:5099   */\n          dup3\n            /* \"#utility.yul\":5092:5103   */\n          add\n            /* \"#utility.yul\":5086:5104   */\n          mload\n            /* \"#utility.yul\":5082:5083   */\n          dup2\n            /* \"#utility.yul\":5077:5080   */\n          dup5\n            /* \"#utility.yul\":5073:5084   */\n          add\n            /* \"#utility.yul\":5066:5105   */\n          mstore\n            /* \"#utility.yul\":5038:5040   */\n          0x20\n            /* \"#utility.yul\":5035:5036   */\n          dup2\n            /* \"#utility.yul\":5031:5041   */\n          add\n            /* \"#utility.yul\":5026:5041   */\n          swap1\n          pop\n            /* \"#utility.yul\":5002:5115   */\n          jump(tag_86)\n        tag_88:\n            /* \"#utility.yul\":5133:5139   */\n          dup4\n            /* \"#utility.yul\":5130:5131   */\n          dup2\n            /* \"#utility.yul\":5127:5140   */\n          gt\n            /* \"#utility.yul\":5124:5126   */\n          iszero\n          tag_89\n          jumpi\n            /* \"#utility.yul\":5213:5214   */\n          0x00\n            /* \"#utility.yul\":5204:5210   */\n          dup5\n            /* \"#utility.yul\":5199:5202   */\n          dup5\n            /* \"#utility.yul\":5195:5211   */\n          add\n            /* \"#utility.yul\":5188:5215   */\n          mstore\n            /* \"#utility.yul\":5124:5126   */\n        tag_89:\n            /* \"#utility.yul\":4973:5231   */\n          pop\n          pop\n          pop\n          pop\n          jump\t// out\n            /* \"#utility.yul\":5237:5417   */\n        tag_72:\n            /* \"#utility.yul\":5285:5362   */\n          0x4e487b7100000000000000000000000000000000000000000000000000000000\n            /* \"#utility.yul\":5282:5283   */\n          0x00\n            /* \"#utility.yul\":5275:5363   */\n          mstore\n            /* \"#utility.yul\":5382:5386   */\n          0x41\n            /* \"#utility.yul\":5379:5380   */\n          0x04\n            /* \"#utility.yul\":5372:5387   */\n          mstore\n            /* \"#utility.yul\":5406:5410   */\n          0x24\n            /* \"#utility.yul\":5403:5404   */\n          0x00\n            /* \"#utility.yul\":5396:5411   */\n          revert\n            /* \"#utility.yul\":5423:5525   */\n        tag_59:\n          0x00\n            /* \"#utility.yul\":5515:5517   */\n          0x1f\n            /* \"#utility.yul\":5511:5518   */\n          not\n            /* \"#utility.yul\":5506:5508   */\n          0x1f\n            /* \"#utility.yul\":5499:5504   */\n          dup4\n            /* \"#utility.yul\":5495:5509   */\n          add\n            /* \"#utility.yul\":5491:5519   */\n          and\n            /* \"#utility.yul\":5481:5519   */\n          swap1\n          pop\n            /* \"#utility.yul\":5471:5525   */\n          swap2\n          swap1\n          pop\n          jump\t// out\n            /* \"#utility.yul\":5531:5653   */\n        tag_34:\n            /* \"#utility.yul\":5604:5628   */\n          tag_93\n            /* \"#utility.yul\":5622:5627   */\n          dup2\n            /* \"#utility.yul\":5604:5628   */\n          tag_80\n          jump\t// in\n        tag_93:\n            /* \"#utility.yul\":5597:5602   */\n          dup2\n            /* \"#utility.yul\":5594:5629   */\n          eq\n            /* \"#utility.yul\":5584:5586   */\n          tag_94\n          jumpi\n            /* \"#utility.yul\":5643:5644   */\n          0x00\n            /* \"#utility.yul\":5640:5641   */\n          dup1\n            /* \"#utility.yul\":5633:5645   */\n          revert\n            /* \"#utility.yul\":5584:5586   */\n        tag_94:\n            /* \"#utility.yul\":5574:5653   */\n          pop\n          jump\t// out\n            /* \"contracts/InitializedProxy.sol\":202:1861  contract InitializedProxy {\r... */\n        tag_19:\n          dataSize(sub_0)\n          dup1\n          dataOffset(sub_0)\n          0x00\n          codecopy\n          0x00\n          return\n        stop\n\n        sub_0: assembly {\n                /* \"contracts/InitializedProxy.sol\":202:1861  contract InitializedProxy {\r... */\n              mstore(0x40, 0x80)\n              jumpi(tag_2, calldatasize)\n              stop\n            tag_2:\n                /* \"contracts/InitializedProxy.sol\":1175:1188  address _impl */\n              0x00\n                /* \"contracts/InitializedProxy.sol\":1191:1250  StorageSlotUpgradeable.getAddressSlot(_IMPLEMENTATION_SLOT) */\n              tag_7\n                /* \"contracts/InitializedProxy.sol\":402:468  0x5f62ce3c9aebd463c7a36ab1b244d2bb94f07a2c13889b3b687940ebc467b9b3 */\n              0x5f62ce3c9aebd463c7a36ab1b244d2bb94f07a2c13889b3b687940ebc467b9b3\n                /* \"contracts/InitializedProxy.sol\":1229:1249  _IMPLEMENTATION_SLOT */\n              0x00\n              shl\n                /* \"contracts/InitializedProxy.sol\":1191:1228  StorageSlotUpgradeable.getAddressSlot */\n              tag_8\n                /* \"contracts/InitializedProxy.sol\":1191:1250  StorageSlotUpgradeable.getAddressSlot(_IMPLEMENTATION_SLOT) */\n              jump\t// in\n            tag_7:\n                /* \"contracts/InitializedProxy.sol\":1191:1256  StorageSlotUpgradeable.getAddressSlot(_IMPLEMENTATION_SLOT).value */\n              0x00\n              add\n              0x00\n              swap1\n              sload\n              swap1\n              0x0100\n              exp\n              swap1\n              div\n              0xffffffffffffffffffffffffffffffffffffffff\n              and\n                /* \"contracts/InitializedProxy.sol\":1175:1256  address _impl = StorageSlotUpgradeable.getAddressSlot(_IMPLEMENTATION_SLOT).value */\n              swap1\n              pop\n                /* \"contracts/InitializedProxy.sol\":1308:1312  0x40 */\n              0x40\n                /* \"contracts/InitializedProxy.sol\":1302:1313  mload(0x40) */\n              mload\n                /* \"contracts/InitializedProxy.sol\":1348:1362  calldatasize() */\n              calldatasize\n                /* \"contracts/InitializedProxy.sol\":1345:1346  0 */\n              0x00\n                /* \"contracts/InitializedProxy.sol\":1340:1343  ptr */\n              dup3\n                /* \"contracts/InitializedProxy.sol\":1327:1363  calldatacopy(ptr, 0, calldatasize()) */\n              calldatacopy\n                /* \"contracts/InitializedProxy.sol\":1442:1443  0 */\n              0x00\n                /* \"contracts/InitializedProxy.sol\":1439:1440  0 */\n              dup1\n                /* \"contracts/InitializedProxy.sol\":1423:1437  calldatasize() */\n              calldatasize\n                /* \"contracts/InitializedProxy.sol\":1418:1421  ptr */\n              dup4\n                /* \"contracts/InitializedProxy.sol\":1411:1416  _impl */\n              dup6\n                /* \"contracts/InitializedProxy.sol\":1404:1409  gas() */\n              gas\n                /* \"contracts/InitializedProxy.sol\":1391:1444  delegatecall(gas(), _impl, ptr, calldatasize(), 0, 0) */\n              delegatecall\n                /* \"contracts/InitializedProxy.sol\":1470:1486  returndatasize() */\n              returndatasize\n                /* \"contracts/InitializedProxy.sol\":1523:1527  size */\n              dup1\n                /* \"contracts/InitializedProxy.sol\":1520:1521  0 */\n              0x00\n                /* \"contracts/InitializedProxy.sol\":1515:1518  ptr */\n              dup5\n                /* \"contracts/InitializedProxy.sol\":1500:1528  returndatacopy(ptr, 0, size) */\n              returndatacopy\n                /* \"contracts/InitializedProxy.sol\":1551:1557  result */\n              dup2\n                /* \"contracts/InitializedProxy.sol\":1580:1581  0 */\n              0x00\n                /* \"contracts/InitializedProxy.sol\":1575:1641  case 0 {\r... */\n              dup2\n              eq\n              tag_10\n              jumpi\n                /* \"contracts/InitializedProxy.sol\":1702:1706  size */\n              dup2\n                /* \"contracts/InitializedProxy.sol\":1697:1700  ptr */\n              dup5\n                /* \"contracts/InitializedProxy.sol\":1690:1707  return(ptr, size) */\n              return\n                /* \"contracts/InitializedProxy.sol\":1575:1641  case 0 {\r... */\n            tag_10:\n                /* \"contracts/InitializedProxy.sol\":1617:1621  size */\n              dup2\n                /* \"contracts/InitializedProxy.sol\":1612:1615  ptr */\n              dup5\n                /* \"contracts/InitializedProxy.sol\":1605:1622  revert(ptr, size) */\n              revert\n                /* \"@openzeppelin/contracts-upgradeable/utils/StorageSlotUpgradeable.sol\":1553:1700  function getAddressSlot(bytes32 slot) internal pure returns (AddressSlot storage r) {... */\n            tag_8:\n                /* \"@openzeppelin/contracts-upgradeable/utils/StorageSlotUpgradeable.sol\":1614:1635  AddressSlot storage r */\n              0x00\n                /* \"@openzeppelin/contracts-upgradeable/utils/StorageSlotUpgradeable.sol\":1680:1684  slot */\n              dup2\n                /* \"@openzeppelin/contracts-upgradeable/utils/StorageSlotUpgradeable.sol\":1670:1684  r.slot := slot */\n              swap1\n              pop\n                /* \"@openzeppelin/contracts-upgradeable/utils/StorageSlotUpgradeable.sol\":1656:1694  {... */\n              swap2\n              swap1\n              pop\n              jump\t// out\n\n            auxdata: 0xa2646970667358221220e22184452819df0e3a4e12b5d81a427f92eba04f8a27762382a9b76dc4a2b75564736f6c63430008000033\n        }\n    }\n\n    auxdata: 0xa26469706673582212206fd2a0f1d4a50dfc3360ea5e3fadca0db6d066d5b5cc02b74cfe829696ce294964736f6c63430008000033\n}\n",
				"bytecode": {
					"linkReferences": {},
					"object": "60a06040523480156200001157600080fd5b50604051620021b2380380620021b283398181016040528101906200003791906200015e565b6000620000496200013f60201b60201c565b9050806000806101000a81548173ffffffffffffffffffffffffffffffffffffffff021916908373ffffffffffffffffffffffffffffffffffffffff1602179055508073ffffffffffffffffffffffffffffffffffffffff16600073ffffffffffffffffffffffffffffffffffffffff167f8be0079c531659141344cd1fd0a4f28419497f9722a3daafe3b4186f6b6457e060405160405180910390a35060008060146101000a81548160ff0219169083151502179055508073ffffffffffffffffffffffffffffffffffffffff1660808173ffffffffffffffffffffffffffffffffffffffff1660601b8152505050620001d8565b600033905090565b6000815190506200015881620001be565b92915050565b6000602082840312156200017157600080fd5b6000620001818482850162000147565b91505092915050565b600062000197826200019e565b9050919050565b600073ffffffffffffffffffffffffffffffffffffffff82169050919050565b620001c9816200018a565b8114620001d557600080fd5b50565b60805160601c611fb4620001fe600039600081816107c901526108ce0152611fb46000f3fe60806040523480156200001157600080fd5b5060043610620001185760003560e01c80638456cb5911620000a5578063d0def521116200006f578063d0def52114620002c1578063d67620d614620002f7578063e425a4b31462000317578063f2fde38b146200034d5762000118565b80638456cb59146200023b5780638da5cb5b1462000247578063adc20b1c1462000269578063c0c9ce30146200029f5762000118565b80635c975abb11620000e75780635c975abb14620001cb5780635f43b6b314620001ed5780636f631e6a146200020d578063715018a6146200022f5762000118565b80633955d09a146200011d578063396a7a5e14620001535780633f4ba83a14620001895780634e9c11181462000195575b600080fd5b6200013b6004803603810190620001359190620010e5565b6200036d565b6040516200014a9190620015fc565b60405180910390f35b6200017160048036038101906200016b9190620011ac565b6200038d565b604051620001809190620015fc565b60405180910390f35b62000193620003df565b005b620001b36004803603810190620001ad9190620012a0565b6200046e565b604051620001c2919062001567565b60405180910390f35b620001d5620004a1565b604051620001e49190620015fc565b60405180910390f35b6200020b600480360381019062000205919062001111565b620004b7565b005b6200021762000595565b604051620002269190620016c3565b60405180910390f35b620002396200059b565b005b62000245620006dc565b005b620002516200076b565b60405162000260919062001567565b60405180910390f35b620002876004803603810190620002819190620010e5565b62000794565b60405162000296919062001567565b60405180910390f35b620002a9620007c7565b604051620002b8919062001567565b60405180910390f35b620002df6004803603810190620002d9919062001152565b620007eb565b604051620002ee9190620016c3565b60405180910390f35b6200031560048036038101906200030f91906200121b565b62000bae565b005b6200033560048036038101906200032f9190620010e5565b62000cc5565b60405162000344919062001567565b60405180910390f35b6200036b6004803603810190620003659190620010e5565b62000cf8565b005b60056020528060005260406000206000915054906101000a900460ff1681565b600183805160208101820180518482526020830160208501208183528095505050505050602052816000526040600020602052806000526040600020600092509250509054906101000a900460ff1681565b620003e962000eab565b73ffffffffffffffffffffffffffffffffffffffff16620004096200076b565b73ffffffffffffffffffffffffffffffffffffffff161462000462576040517f08c379a00000000000000000000000000000000000000000000000000000000081526004016200045990620016a1565b60405180910390fd5b6200046c62000eb3565b565b60036020528060005260406000206000915054906101000a900473ffffffffffffffffffffffffffffffffffffffff1681565b60008060149054906101000a900460ff16905090565b620004c162000eab565b73ffffffffffffffffffffffffffffffffffffffff16620004e16200076b565b73ffffffffffffffffffffffffffffffffffffffff16146200053a576040517f08c379a00000000000000000000000000000000000000000000000000000000081526004016200053190620016a1565b60405180910390fd5b80600560008473ffffffffffffffffffffffffffffffffffffffff1673ffffffffffffffffffffffffffffffffffffffff16815260200190815260200160002060006101000a81548160ff0219169083151502179055505050565b60025481565b620005a562000eab565b73ffffffffffffffffffffffffffffffffffffffff16620005c56200076b565b73ffffffffffffffffffffffffffffffffffffffff16146200061e576040517f08c379a00000000000000000000000000000000000000000000000000000000081526004016200061590620016a1565b60405180910390fd5b600073ffffffffffffffffffffffffffffffffffffffff1660008054906101000a900473ffffffffffffffffffffffffffffffffffffffff1673ffffffffffffffffffffffffffffffffffffffff167f8be0079c531659141344cd1fd0a4f28419497f9722a3daafe3b4186f6b6457e060405160405180910390a360008060006101000a81548173ffffffffffffffffffffffffffffffffffffffff021916908373ffffffffffffffffffffffffffffffffffffffff160217905550565b620006e662000eab565b73ffffffffffffffffffffffffffffffffffffffff16620007066200076b565b73ffffffffffffffffffffffffffffffffffffffff16146200075f576040517f08c379a00000000000000000000000000000000000000000000000000000000081526004016200075690620016a1565b60405180910390fd5b6200076962000f5d565b565b60008060009054906101000a900473ffffffffffffffffffffffffffffffffffffffff16905090565b60066020528060005260406000206000915054906101000a900473ffffffffffffffffffffffffffffffffffffffff1681565b7f000000000000000000000000000000000000000000000000000000000000000081565b6000620007f7620004a1565b156200083a576040517f08c379a000000000000000000000000000000000000000000000000000000000815260040162000831906200167f565b60405180910390fd5b600560008473ffffffffffffffffffffffffffffffffffffffff1673ffffffffffffffffffffffffffffffffffffffff16815260200190815260200160002060009054906101000a900460ff16620008c9576040517f08c379a0000000000000000000000000000000000000000000000000000000008152600401620008c0906200165d565b60405180910390fd5b6000337f000000000000000000000000000000000000000000000000000000000000000084604051602401620009029392919062001584565b6040516020818303038152906040527f4571e3a6000000000000000000000000000000000000000000000000000000007bffffffffffffffffffffffffffffffffffffffffffffffffffffffff19166020820180517bffffffffffffffffffffffffffffffffffffffffffffffffffffffff8381831617835250505050905060008482604051620009939062001009565b620009a0929190620015c8565b604051809103906000f080158015620009bd573d6000803e3d6000fd5b5090508473ffffffffffffffffffffffffffffffffffffffff168173ffffffffffffffffffffffffffffffffffffffff167fab8530f87dc9b59234c4623bf917212bb2536d647574c8e7e5da92c2ede0c9f860025460405162000a219190620016c3565b60405180910390a38060036000600254815260200190815260200160002060006101000a81548173ffffffffffffffffffffffffffffffffffffffff021916908373ffffffffffffffffffffffffffffffffffffffff16021790555080600660003373ffffffffffffffffffffffffffffffffffffffff1673ffffffffffffffffffffffffffffffffffffffff16815260200190815260200160002060006101000a81548173ffffffffffffffffffffffffffffffffffffffff021916908373ffffffffffffffffffffffffffffffffffffffff16021790555084600460008373ffffffffffffffffffffffffffffffffffffffff1673ffffffffffffffffffffffffffffffffffffffff16815260200190815260200160002060006101000a81548173ffffffffffffffffffffffffffffffffffffffff021916908373ffffffffffffffffffffffffffffffffffffffff1602179055506002600081548092919062000b8e9062001862565b9190505550600160025462000ba491906200178a565b9250505092915050565b62000bb862000eab565b73ffffffffffffffffffffffffffffffffffffffff1662000bd86200076b565b73ffffffffffffffffffffffffffffffffffffffff161462000c31576040517f08c379a000000000000000000000000000000000000000000000000000000000815260040162000c2890620016a1565b60405180910390fd5b8060018560405162000c4491906200154e565b908152602001604051809103902060008561ffff1661ffff16815260200190815260200160002060008473ffffffffffffffffffffffffffffffffffffffff1673ffffffffffffffffffffffffffffffffffffffff16815260200190815260200160002060006101000a81548160ff02191690831515021790555050505050565b60046020528060005260406000206000915054906101000a900473ffffffffffffffffffffffffffffffffffffffff1681565b62000d0262000eab565b73ffffffffffffffffffffffffffffffffffffffff1662000d226200076b565b73ffffffffffffffffffffffffffffffffffffffff161462000d7b576040517f08c379a000000000000000000000000000000000000000000000000000000000815260040162000d7290620016a1565b60405180910390fd5b600073ffffffffffffffffffffffffffffffffffffffff168173ffffffffffffffffffffffffffffffffffffffff16141562000dee576040517f08c379a000000000000000000000000000000000000000000000000000000000815260040162000de5906200163b565b60405180910390fd5b8073ffffffffffffffffffffffffffffffffffffffff1660008054906101000a900473ffffffffffffffffffffffffffffffffffffffff1673ffffffffffffffffffffffffffffffffffffffff167f8be0079c531659141344cd1fd0a4f28419497f9722a3daafe3b4186f6b6457e060405160405180910390a3806000806101000a81548173ffffffffffffffffffffffffffffffffffffffff021916908373ffffffffffffffffffffffffffffffffffffffff16021790555050565b600033905090565b62000ebd620004a1565b62000eff576040517f08c379a000000000000000000000000000000000000000000000000000000000815260040162000ef69062001619565b60405180910390fd5b60008060146101000a81548160ff0219169083151502179055507f5db9ee0a495bf2e6ff9c91a7834c1ba4fdd244a5e8aa4e537bd38aeae4b073aa62000f4462000eab565b60405162000f53919062001567565b60405180910390a1565b62000f67620004a1565b1562000faa576040517f08c379a000000000000000000000000000000000000000000000000000000000815260040162000fa1906200167f565b60405180910390fd5b6001600060146101000a81548160ff0219169083151502179055507f62e78cea01bee320cd4e420270b5ea74000d11b0c9f74754ebdbfc544b05a25862000ff062000eab565b60405162000fff919062001567565b60405180910390a1565b6105f7806200198883390190565b60006200102e620010288462001714565b620016e0565b9050828152602081018484840111156200104757600080fd5b620010548482856200181d565b509392505050565b6000813590506200106d816200191f565b92915050565b600081359050620010848162001939565b92915050565b600082601f8301126200109c57600080fd5b8135620010ae84826020860162001017565b91505092915050565b600081359050620010c88162001953565b92915050565b600081359050620010df816200196d565b92915050565b600060208284031215620010f857600080fd5b600062001108848285016200105c565b91505092915050565b600080604083850312156200112557600080fd5b600062001135858286016200105c565b9250506020620011488582860162001073565b9150509250929050565b600080604083850312156200116657600080fd5b600062001176858286016200105c565b925050602083013567ffffffffffffffff8111156200119457600080fd5b620011a2858286016200108a565b9150509250929050565b600080600060608486031215620011c257600080fd5b600084013567ffffffffffffffff811115620011dd57600080fd5b620011eb868287016200108a565b9350506020620011fe86828701620010b7565b925050604062001211868287016200105c565b9150509250925092565b600080600080608085870312156200123257600080fd5b600085013567ffffffffffffffff8111156200124d57600080fd5b6200125b878288016200108a565b94505060206200126e87828801620010b7565b935050604062001281878288016200105c565b9250506060620012948782880162001073565b91505092959194509250565b600060208284031215620012b357600080fd5b6000620012c384828501620010ce565b91505092915050565b620012d781620017c5565b82525050565b620012e881620017d9565b82525050565b6000620012fb8262001747565b6200130781856200175d565b9350620013198185602086016200182c565b62001324816200190e565b840191505092915050565b60006200133c8262001752565b6200134881856200176e565b93506200135a8185602086016200182c565b62001365816200190e565b840191505092915050565b60006200137d8262001752565b6200138981856200177f565b93506200139b8185602086016200182c565b80840191505092915050565b6000620013b66014836200176e565b91507f5061757361626c653a206e6f74207061757365640000000000000000000000006000830152602082019050919050565b6000620013f86026836200176e565b91507f4f776e61626c653a206e6577206f776e657220697320746865207a65726f206160008301527f64647265737300000000000000000000000000000000000000000000000000006020830152604082019050919050565b6000620014606025836200176e565b91507f466163746f7279203a3a20496e636f72726563742074656d706c61746520616460008301527f64726573730000000000000000000000000000000000000000000000000000006020830152604082019050919050565b6000620014c86010836200176e565b91507f5061757361626c653a20706175736564000000000000000000000000000000006000830152602082019050919050565b60006200150a6020836200176e565b91507f4f776e61626c653a2063616c6c6572206973206e6f7420746865206f776e65726000830152602082019050919050565b620015488162001813565b82525050565b60006200155c828462001370565b915081905092915050565b60006020820190506200157e6000830184620012cc565b92915050565b60006060820190506200159b6000830186620012cc565b620015aa6020830185620012cc565b8181036040830152620015be81846200132f565b9050949350505050565b6000604082019050620015df6000830185620012cc565b8181036020830152620015f38184620012ee565b90509392505050565b6000602082019050620016136000830184620012dd565b92915050565b600060208201905081810360008301526200163481620013a7565b9050919050565b600060208201905081810360008301526200165681620013e9565b9050919050565b60006020820190508181036000830152620016788162001451565b9050919050565b600060208201905081810360008301526200169a81620014b9565b9050919050565b60006020820190508181036000830152620016bc81620014fb565b9050919050565b6000602082019050620016da60008301846200153d565b92915050565b6000604051905081810181811067ffffffffffffffff821117156200170a5762001709620018df565b5b8060405250919050565b600067ffffffffffffffff821115620017325762001731620018df565b5b601f19601f8301169050602081019050919050565b600081519050919050565b600081519050919050565b600082825260208201905092915050565b600082825260208201905092915050565b600081905092915050565b6000620017978262001813565b9150620017a48362001813565b925082821015620017ba57620017b9620018b0565b5b828203905092915050565b6000620017d282620017f3565b9050919050565b60008115159050919050565b600061ffff82169050919050565b600073ffffffffffffffffffffffffffffffffffffffff82169050919050565b6000819050919050565b82818337600083830152505050565b60005b838110156200184c5780820151818401526020810190506200182f565b838111156200185c576000848401525b50505050565b60006200186f8262001813565b91507fffffffffffffffffffffffffffffffffffffffffffffffffffffffffffffffff821415620018a557620018a4620018b0565b5b600182019050919050565b7f4e487b7100000000000000000000000000000000000000000000000000000000600052601160045260246000fd5b7f4e487b7100000000000000000000000000000000000000000000000000000000600052604160045260246000fd5b6000601f19601f8301169050919050565b6200192a81620017c5565b81146200193657600080fd5b50565b6200194481620017d9565b81146200195057600080fd5b50565b6200195e81620017e5565b81146200196a57600080fd5b50565b620019788162001813565b81146200198457600080fd5b5056fe608060405234801561001057600080fd5b506040516105f73803806105f78339818101604052810190610032919061025b565b600073ffffffffffffffffffffffffffffffffffffffff168273ffffffffffffffffffffffffffffffffffffffff1614156100a2576040517f08c379a0000000000000000000000000000000000000000000000000000000008152600401610099906103b8565b60405180910390fd5b816100d97f5f62ce3c9aebd463c7a36ab1b244d2bb94f07a2c13889b3b687940ebc467b9b360001b6101d460201b6100821760201c565b60000160006101000a81548173ffffffffffffffffffffffffffffffffffffffff021916908373ffffffffffffffffffffffffffffffffffffffff1602179055506000808373ffffffffffffffffffffffffffffffffffffffff1683604051610142919061037f565b600060405180830381855af49150503d806000811461017d576040519150601f19603f3d011682016040523d82523d6000602084013e610182565b606091505b50915091508181906101ca576040517f08c379a00000000000000000000000000000000000000000000000000000000081526004016101c19190610396565b60405180910390fd5b5050505050610527565b6000819050919050565b60006101f16101ec84610409565b6103d8565b90508281526020810184848401111561020957600080fd5b61021484828561049d565b509392505050565b60008151905061022b81610510565b92915050565b600082601f83011261024257600080fd5b81516102528482602086016101de565b91505092915050565b6000806040838503121561026e57600080fd5b600061027c8582860161021c565b925050602083015167ffffffffffffffff81111561029957600080fd5b6102a585828601610231565b9150509250929050565b60006102ba82610439565b6102c4818561044f565b93506102d481856020860161049d565b80840191505092915050565b60006102eb82610444565b6102f5818561045a565b935061030581856020860161049d565b61030e816104ff565b840191505092915050565b600061032660338361045a565b91507f50726f7879203a3a204c6f676963616c20636f6e7472616374732063616e6e6f60008301527f74206265207a65726f20616464726573736573000000000000000000000000006020830152604082019050919050565b600061038b82846102af565b915081905092915050565b600060208201905081810360008301526103b081846102e0565b905092915050565b600060208201905081810360008301526103d181610319565b9050919050565b6000604051905081810181811067ffffffffffffffff821117156103ff576103fe6104d0565b5b8060405250919050565b600067ffffffffffffffff821115610424576104236104d0565b5b601f19601f8301169050602081019050919050565b600081519050919050565b600081519050919050565b600081905092915050565b600082825260208201905092915050565b60006104768261047d565b9050919050565b600073ffffffffffffffffffffffffffffffffffffffff82169050919050565b60005b838110156104bb5780820151818401526020810190506104a0565b838111156104ca576000848401525b50505050565b7f4e487b7100000000000000000000000000000000000000000000000000000000600052604160045260246000fd5b6000601f19601f8301169050919050565b6105198161046b565b811461052457600080fd5b50565b60c2806105356000396000f3fe608060405236600a57005b600060367f5f62ce3c9aebd463c7a36ab1b244d2bb94f07a2c13889b3b687940ebc467b9b360001b6082565b60000160009054906101000a900473ffffffffffffffffffffffffffffffffffffffff16905060405136600082376000803683855af43d806000843e8160008114607e578184f35b8184fd5b600081905091905056fea2646970667358221220e22184452819df0e3a4e12b5d81a427f92eba04f8a27762382a9b76dc4a2b75564736f6c63430008000033a26469706673582212206fd2a0f1d4a50dfc3360ea5e3fadca0db6d066d5b5cc02b74cfe829696ce294964736f6c63430008000033",
					"opcodes": "PUSH1 0xA0 PUSH1 0x40 MSTORE CALLVALUE DUP1 ISZERO PUSH3 0x11 JUMPI PUSH1 0x0 DUP1 REVERT JUMPDEST POP PUSH1 0x40 MLOAD PUSH3 0x21B2 CODESIZE SUB DUP1 PUSH3 0x21B2 DUP4 CODECOPY DUP2 DUP2 ADD PUSH1 0x40 MSTORE DUP2 ADD SWAP1 PUSH3 0x37 SWAP2 SWAP1 PUSH3 0x15E JUMP JUMPDEST PUSH1 0x0 PUSH3 0x49 PUSH3 0x13F PUSH1 0x20 SHL PUSH1 0x20 SHR JUMP JUMPDEST SWAP1 POP DUP1 PUSH1 0x0 DUP1 PUSH2 0x100 EXP DUP2 SLOAD DUP2 PUSH20 0xFFFFFFFFFFFFFFFFFFFFFFFFFFFFFFFFFFFFFFFF MUL NOT AND SWAP1 DUP4 PUSH20 0xFFFFFFFFFFFFFFFFFFFFFFFFFFFFFFFFFFFFFFFF AND MUL OR SWAP1 SSTORE POP DUP1 PUSH20 0xFFFFFFFFFFFFFFFFFFFFFFFFFFFFFFFFFFFFFFFF AND PUSH1 0x0 PUSH20 0xFFFFFFFFFFFFFFFFFFFFFFFFFFFFFFFFFFFFFFFF AND PUSH32 0x8BE0079C531659141344CD1FD0A4F28419497F9722A3DAAFE3B4186F6B6457E0 PUSH1 0x40 MLOAD PUSH1 0x40 MLOAD DUP1 SWAP2 SUB SWAP1 LOG3 POP PUSH1 0x0 DUP1 PUSH1 0x14 PUSH2 0x100 EXP DUP2 SLOAD DUP2 PUSH1 0xFF MUL NOT AND SWAP1 DUP4 ISZERO ISZERO MUL OR SWAP1 SSTORE POP DUP1 PUSH20 0xFFFFFFFFFFFFFFFFFFFFFFFFFFFFFFFFFFFFFFFF AND PUSH1 0x80 DUP2 PUSH20 0xFFFFFFFFFFFFFFFFFFFFFFFFFFFFFFFFFFFFFFFF AND PUSH1 0x60 SHL DUP2 MSTORE POP POP POP PUSH3 0x1D8 JUMP JUMPDEST PUSH1 0x0 CALLER SWAP1 POP SWAP1 JUMP JUMPDEST PUSH1 0x0 DUP2 MLOAD SWAP1 POP PUSH3 0x158 DUP2 PUSH3 0x1BE JUMP JUMPDEST SWAP3 SWAP2 POP POP JUMP JUMPDEST PUSH1 0x0 PUSH1 0x20 DUP3 DUP5 SUB SLT ISZERO PUSH3 0x171 JUMPI PUSH1 0x0 DUP1 REVERT JUMPDEST PUSH1 0x0 PUSH3 0x181 DUP5 DUP3 DUP6 ADD PUSH3 0x147 JUMP JUMPDEST SWAP2 POP POP SWAP3 SWAP2 POP POP JUMP JUMPDEST PUSH1 0x0 PUSH3 0x197 DUP3 PUSH3 0x19E JUMP JUMPDEST SWAP1 POP SWAP2 SWAP1 POP JUMP JUMPDEST PUSH1 0x0 PUSH20 0xFFFFFFFFFFFFFFFFFFFFFFFFFFFFFFFFFFFFFFFF DUP3 AND SWAP1 POP SWAP2 SWAP1 POP JUMP JUMPDEST PUSH3 0x1C9 DUP2 PUSH3 0x18A JUMP JUMPDEST DUP2 EQ PUSH3 0x1D5 JUMPI PUSH1 0x0 DUP1 REVERT JUMPDEST POP JUMP JUMPDEST PUSH1 0x80 MLOAD PUSH1 0x60 SHR PUSH2 0x1FB4 PUSH3 0x1FE PUSH1 0x0 CODECOPY PUSH1 0x0 DUP2 DUP2 PUSH2 0x7C9 ADD MSTORE PUSH2 0x8CE ADD MSTORE PUSH2 0x1FB4 PUSH1 0x0 RETURN INVALID PUSH1 0x80 PUSH1 0x40 MSTORE CALLVALUE DUP1 ISZERO PUSH3 0x11 JUMPI PUSH1 0x0 DUP1 REVERT JUMPDEST POP PUSH1 0x4 CALLDATASIZE LT PUSH3 0x118 JUMPI PUSH1 0x0 CALLDATALOAD PUSH1 0xE0 SHR DUP1 PUSH4 0x8456CB59 GT PUSH3 0xA5 JUMPI DUP1 PUSH4 0xD0DEF521 GT PUSH3 0x6F JUMPI DUP1 PUSH4 0xD0DEF521 EQ PUSH3 0x2C1 JUMPI DUP1 PUSH4 0xD67620D6 EQ PUSH3 0x2F7 JUMPI DUP1 PUSH4 0xE425A4B3 EQ PUSH3 0x317 JUMPI DUP1 PUSH4 0xF2FDE38B EQ PUSH3 0x34D JUMPI PUSH3 0x118 JUMP JUMPDEST DUP1 PUSH4 0x8456CB59 EQ PUSH3 0x23B JUMPI DUP1 PUSH4 0x8DA5CB5B EQ PUSH3 0x247 JUMPI DUP1 PUSH4 0xADC20B1C EQ PUSH3 0x269 JUMPI DUP1 PUSH4 0xC0C9CE30 EQ PUSH3 0x29F JUMPI PUSH3 0x118 JUMP JUMPDEST DUP1 PUSH4 0x5C975ABB GT PUSH3 0xE7 JUMPI DUP1 PUSH4 0x5C975ABB EQ PUSH3 0x1CB JUMPI DUP1 PUSH4 0x5F43B6B3 EQ PUSH3 0x1ED JUMPI DUP1 PUSH4 0x6F631E6A EQ PUSH3 0x20D JUMPI DUP1 PUSH4 0x715018A6 EQ PUSH3 0x22F JUMPI PUSH3 0x118 JUMP JUMPDEST DUP1 PUSH4 0x3955D09A EQ PUSH3 0x11D JUMPI DUP1 PUSH4 0x396A7A5E EQ PUSH3 0x153 JUMPI DUP1 PUSH4 0x3F4BA83A EQ PUSH3 0x189 JUMPI DUP1 PUSH4 0x4E9C1118 EQ PUSH3 0x195 JUMPI JUMPDEST PUSH1 0x0 DUP1 REVERT JUMPDEST PUSH3 0x13B PUSH1 0x4 DUP1 CALLDATASIZE SUB DUP2 ADD SWAP1 PUSH3 0x135 SWAP2 SWAP1 PUSH3 0x10E5 JUMP JUMPDEST PUSH3 0x36D JUMP JUMPDEST PUSH1 0x40 MLOAD PUSH3 0x14A SWAP2 SWAP1 PUSH3 0x15FC JUMP JUMPDEST PUSH1 0x40 MLOAD DUP1 SWAP2 SUB SWAP1 RETURN JUMPDEST PUSH3 0x171 PUSH1 0x4 DUP1 CALLDATASIZE SUB DUP2 ADD SWAP1 PUSH3 0x16B SWAP2 SWAP1 PUSH3 0x11AC JUMP JUMPDEST PUSH3 0x38D JUMP JUMPDEST PUSH1 0x40 MLOAD PUSH3 0x180 SWAP2 SWAP1 PUSH3 0x15FC JUMP JUMPDEST PUSH1 0x40 MLOAD DUP1 SWAP2 SUB SWAP1 RETURN JUMPDEST PUSH3 0x193 PUSH3 0x3DF JUMP JUMPDEST STOP JUMPDEST PUSH3 0x1B3 PUSH1 0x4 DUP1 CALLDATASIZE SUB DUP2 ADD SWAP1 PUSH3 0x1AD SWAP2 SWAP1 PUSH3 0x12A0 JUMP JUMPDEST PUSH3 0x46E JUMP JUMPDEST PUSH1 0x40 MLOAD PUSH3 0x1C2 SWAP2 SWAP1 PUSH3 0x1567 JUMP JUMPDEST PUSH1 0x40 MLOAD DUP1 SWAP2 SUB SWAP1 RETURN JUMPDEST PUSH3 0x1D5 PUSH3 0x4A1 JUMP JUMPDEST PUSH1 0x40 MLOAD PUSH3 0x1E4 SWAP2 SWAP1 PUSH3 0x15FC JUMP JUMPDEST PUSH1 0x40 MLOAD DUP1 SWAP2 SUB SWAP1 RETURN JUMPDEST PUSH3 0x20B PUSH1 0x4 DUP1 CALLDATASIZE SUB DUP2 ADD SWAP1 PUSH3 0x205 SWAP2 SWAP1 PUSH3 0x1111 JUMP JUMPDEST PUSH3 0x4B7 JUMP JUMPDEST STOP JUMPDEST PUSH3 0x217 PUSH3 0x595 JUMP JUMPDEST PUSH1 0x40 MLOAD PUSH3 0x226 SWAP2 SWAP1 PUSH3 0x16C3 JUMP JUMPDEST PUSH1 0x40 MLOAD DUP1 SWAP2 SUB SWAP1 RETURN JUMPDEST PUSH3 0x239 PUSH3 0x59B JUMP JUMPDEST STOP JUMPDEST PUSH3 0x245 PUSH3 0x6DC JUMP JUMPDEST STOP JUMPDEST PUSH3 0x251 PUSH3 0x76B JUMP JUMPDEST PUSH1 0x40 MLOAD PUSH3 0x260 SWAP2 SWAP1 PUSH3 0x1567 JUMP JUMPDEST PUSH1 0x40 MLOAD DUP1 SWAP2 SUB SWAP1 RETURN JUMPDEST PUSH3 0x287 PUSH1 0x4 DUP1 CALLDATASIZE SUB DUP2 ADD SWAP1 PUSH3 0x281 SWAP2 SWAP1 PUSH3 0x10E5 JUMP JUMPDEST PUSH3 0x794 JUMP JUMPDEST PUSH1 0x40 MLOAD PUSH3 0x296 SWAP2 SWAP1 PUSH3 0x1567 JUMP JUMPDEST PUSH1 0x40 MLOAD DUP1 SWAP2 SUB SWAP1 RETURN JUMPDEST PUSH3 0x2A9 PUSH3 0x7C7 JUMP JUMPDEST PUSH1 0x40 MLOAD PUSH3 0x2B8 SWAP2 SWAP1 PUSH3 0x1567 JUMP JUMPDEST PUSH1 0x40 MLOAD DUP1 SWAP2 SUB SWAP1 RETURN JUMPDEST PUSH3 0x2DF PUSH1 0x4 DUP1 CALLDATASIZE SUB DUP2 ADD SWAP1 PUSH3 0x2D9 SWAP2 SWAP1 PUSH3 0x1152 JUMP JUMPDEST PUSH3 0x7EB JUMP JUMPDEST PUSH1 0x40 MLOAD PUSH3 0x2EE SWAP2 SWAP1 PUSH3 0x16C3 JUMP JUMPDEST PUSH1 0x40 MLOAD DUP1 SWAP2 SUB SWAP1 RETURN JUMPDEST PUSH3 0x315 PUSH1 0x4 DUP1 CALLDATASIZE SUB DUP2 ADD SWAP1 PUSH3 0x30F SWAP2 SWAP1 PUSH3 0x121B JUMP JUMPDEST PUSH3 0xBAE JUMP JUMPDEST STOP JUMPDEST PUSH3 0x335 PUSH1 0x4 DUP1 CALLDATASIZE SUB DUP2 ADD SWAP1 PUSH3 0x32F SWAP2 SWAP1 PUSH3 0x10E5 JUMP JUMPDEST PUSH3 0xCC5 JUMP JUMPDEST PUSH1 0x40 MLOAD PUSH3 0x344 SWAP2 SWAP1 PUSH3 0x1567 JUMP JUMPDEST PUSH1 0x40 MLOAD DUP1 SWAP2 SUB SWAP1 RETURN JUMPDEST PUSH3 0x36B PUSH1 0x4 DUP1 CALLDATASIZE SUB DUP2 ADD SWAP1 PUSH3 0x365 SWAP2 SWAP1 PUSH3 0x10E5 JUMP JUMPDEST PUSH3 0xCF8 JUMP JUMPDEST STOP JUMPDEST PUSH1 0x5 PUSH1 0x20 MSTORE DUP1 PUSH1 0x0 MSTORE PUSH1 0x40 PUSH1 0x0 KECCAK256 PUSH1 0x0 SWAP2 POP SLOAD SWAP1 PUSH2 0x100 EXP SWAP1 DIV PUSH1 0xFF AND DUP2 JUMP JUMPDEST PUSH1 0x1 DUP4 DUP1 MLOAD PUSH1 0x20 DUP2 ADD DUP3 ADD DUP1 MLOAD DUP5 DUP3 MSTORE PUSH1 0x20 DUP4 ADD PUSH1 0x20 DUP6 ADD KECCAK256 DUP2 DUP4 MSTORE DUP1 SWAP6 POP POP POP POP POP POP PUSH1 0x20 MSTORE DUP2 PUSH1 0x0 MSTORE PUSH1 0x40 PUSH1 0x0 KECCAK256 PUSH1 0x20 MSTORE DUP1 PUSH1 0x0 MSTORE PUSH1 0x40 PUSH1 0x0 KECCAK256 PUSH1 0x0 SWAP3 POP SWAP3 POP POP SWAP1 SLOAD SWAP1 PUSH2 0x100 EXP SWAP1 DIV PUSH1 0xFF AND DUP2 JUMP JUMPDEST PUSH3 0x3E9 PUSH3 0xEAB JUMP JUMPDEST PUSH20 0xFFFFFFFFFFFFFFFFFFFFFFFFFFFFFFFFFFFFFFFF AND PUSH3 0x409 PUSH3 0x76B JUMP JUMPDEST PUSH20 0xFFFFFFFFFFFFFFFFFFFFFFFFFFFFFFFFFFFFFFFF AND EQ PUSH3 0x462 JUMPI PUSH1 0x40 MLOAD PUSH32 0x8C379A000000000000000000000000000000000000000000000000000000000 DUP2 MSTORE PUSH1 0x4 ADD PUSH3 0x459 SWAP1 PUSH3 0x16A1 JUMP JUMPDEST PUSH1 0x40 MLOAD DUP1 SWAP2 SUB SWAP1 REVERT JUMPDEST PUSH3 0x46C PUSH3 0xEB3 JUMP JUMPDEST JUMP JUMPDEST PUSH1 0x3 PUSH1 0x20 MSTORE DUP1 PUSH1 0x0 MSTORE PUSH1 0x40 PUSH1 0x0 KECCAK256 PUSH1 0x0 SWAP2 POP SLOAD SWAP1 PUSH2 0x100 EXP SWAP1 DIV PUSH20 0xFFFFFFFFFFFFFFFFFFFFFFFFFFFFFFFFFFFFFFFF AND DUP2 JUMP JUMPDEST PUSH1 0x0 DUP1 PUSH1 0x14 SWAP1 SLOAD SWAP1 PUSH2 0x100 EXP SWAP1 DIV PUSH1 0xFF AND SWAP1 POP SWAP1 JUMP JUMPDEST PUSH3 0x4C1 PUSH3 0xEAB JUMP JUMPDEST PUSH20 0xFFFFFFFFFFFFFFFFFFFFFFFFFFFFFFFFFFFFFFFF AND PUSH3 0x4E1 PUSH3 0x76B JUMP JUMPDEST PUSH20 0xFFFFFFFFFFFFFFFFFFFFFFFFFFFFFFFFFFFFFFFF AND EQ PUSH3 0x53A JUMPI PUSH1 0x40 MLOAD PUSH32 0x8C379A000000000000000000000000000000000000000000000000000000000 DUP2 MSTORE PUSH1 0x4 ADD PUSH3 0x531 SWAP1 PUSH3 0x16A1 JUMP JUMPDEST PUSH1 0x40 MLOAD DUP1 SWAP2 SUB SWAP1 REVERT JUMPDEST DUP1 PUSH1 0x5 PUSH1 0x0 DUP5 PUSH20 0xFFFFFFFFFFFFFFFFFFFFFFFFFFFFFFFFFFFFFFFF AND PUSH20 0xFFFFFFFFFFFFFFFFFFFFFFFFFFFFFFFFFFFFFFFF AND DUP2 MSTORE PUSH1 0x20 ADD SWAP1 DUP2 MSTORE PUSH1 0x20 ADD PUSH1 0x0 KECCAK256 PUSH1 0x0 PUSH2 0x100 EXP DUP2 SLOAD DUP2 PUSH1 0xFF MUL NOT AND SWAP1 DUP4 ISZERO ISZERO MUL OR SWAP1 SSTORE POP POP POP JUMP JUMPDEST PUSH1 0x2 SLOAD DUP2 JUMP JUMPDEST PUSH3 0x5A5 PUSH3 0xEAB JUMP JUMPDEST PUSH20 0xFFFFFFFFFFFFFFFFFFFFFFFFFFFFFFFFFFFFFFFF AND PUSH3 0x5C5 PUSH3 0x76B JUMP JUMPDEST PUSH20 0xFFFFFFFFFFFFFFFFFFFFFFFFFFFFFFFFFFFFFFFF AND EQ PUSH3 0x61E JUMPI PUSH1 0x40 MLOAD PUSH32 0x8C379A000000000000000000000000000000000000000000000000000000000 DUP2 MSTORE PUSH1 0x4 ADD PUSH3 0x615 SWAP1 PUSH3 0x16A1 JUMP JUMPDEST PUSH1 0x40 MLOAD DUP1 SWAP2 SUB SWAP1 REVERT JUMPDEST PUSH1 0x0 PUSH20 0xFFFFFFFFFFFFFFFFFFFFFFFFFFFFFFFFFFFFFFFF AND PUSH1 0x0 DUP1 SLOAD SWAP1 PUSH2 0x100 EXP SWAP1 DIV PUSH20 0xFFFFFFFFFFFFFFFFFFFFFFFFFFFFFFFFFFFFFFFF AND PUSH20 0xFFFFFFFFFFFFFFFFFFFFFFFFFFFFFFFFFFFFFFFF AND PUSH32 0x8BE0079C531659141344CD1FD0A4F28419497F9722A3DAAFE3B4186F6B6457E0 PUSH1 0x40 MLOAD PUSH1 0x40 MLOAD DUP1 SWAP2 SUB SWAP1 LOG3 PUSH1 0x0 DUP1 PUSH1 0x0 PUSH2 0x100 EXP DUP2 SLOAD DUP2 PUSH20 0xFFFFFFFFFFFFFFFFFFFFFFFFFFFFFFFFFFFFFFFF MUL NOT AND SWAP1 DUP4 PUSH20 0xFFFFFFFFFFFFFFFFFFFFFFFFFFFFFFFFFFFFFFFF AND MUL OR SWAP1 SSTORE POP JUMP JUMPDEST PUSH3 0x6E6 PUSH3 0xEAB JUMP JUMPDEST PUSH20 0xFFFFFFFFFFFFFFFFFFFFFFFFFFFFFFFFFFFFFFFF AND PUSH3 0x706 PUSH3 0x76B JUMP JUMPDEST PUSH20 0xFFFFFFFFFFFFFFFFFFFFFFFFFFFFFFFFFFFFFFFF AND EQ PUSH3 0x75F JUMPI PUSH1 0x40 MLOAD PUSH32 0x8C379A000000000000000000000000000000000000000000000000000000000 DUP2 MSTORE PUSH1 0x4 ADD PUSH3 0x756 SWAP1 PUSH3 0x16A1 JUMP JUMPDEST PUSH1 0x40 MLOAD DUP1 SWAP2 SUB SWAP1 REVERT JUMPDEST PUSH3 0x769 PUSH3 0xF5D JUMP JUMPDEST JUMP JUMPDEST PUSH1 0x0 DUP1 PUSH1 0x0 SWAP1 SLOAD SWAP1 PUSH2 0x100 EXP SWAP1 DIV PUSH20 0xFFFFFFFFFFFFFFFFFFFFFFFFFFFFFFFFFFFFFFFF AND SWAP1 POP SWAP1 JUMP JUMPDEST PUSH1 0x6 PUSH1 0x20 MSTORE DUP1 PUSH1 0x0 MSTORE PUSH1 0x40 PUSH1 0x0 KECCAK256 PUSH1 0x0 SWAP2 POP SLOAD SWAP1 PUSH2 0x100 EXP SWAP1 DIV PUSH20 0xFFFFFFFFFFFFFFFFFFFFFFFFFFFFFFFFFFFFFFFF AND DUP2 JUMP JUMPDEST PUSH32 0x0 DUP2 JUMP JUMPDEST PUSH1 0x0 PUSH3 0x7F7 PUSH3 0x4A1 JUMP JUMPDEST ISZERO PUSH3 0x83A JUMPI PUSH1 0x40 MLOAD PUSH32 0x8C379A000000000000000000000000000000000000000000000000000000000 DUP2 MSTORE PUSH1 0x4 ADD PUSH3 0x831 SWAP1 PUSH3 0x167F JUMP JUMPDEST PUSH1 0x40 MLOAD DUP1 SWAP2 SUB SWAP1 REVERT JUMPDEST PUSH1 0x5 PUSH1 0x0 DUP5 PUSH20 0xFFFFFFFFFFFFFFFFFFFFFFFFFFFFFFFFFFFFFFFF AND PUSH20 0xFFFFFFFFFFFFFFFFFFFFFFFFFFFFFFFFFFFFFFFF AND DUP2 MSTORE PUSH1 0x20 ADD SWAP1 DUP2 MSTORE PUSH1 0x20 ADD PUSH1 0x0 KECCAK256 PUSH1 0x0 SWAP1 SLOAD SWAP1 PUSH2 0x100 EXP SWAP1 DIV PUSH1 0xFF AND PUSH3 0x8C9 JUMPI PUSH1 0x40 MLOAD PUSH32 0x8C379A000000000000000000000000000000000000000000000000000000000 DUP2 MSTORE PUSH1 0x4 ADD PUSH3 0x8C0 SWAP1 PUSH3 0x165D JUMP JUMPDEST PUSH1 0x40 MLOAD DUP1 SWAP2 SUB SWAP1 REVERT JUMPDEST PUSH1 0x0 CALLER PUSH32 0x0 DUP5 PUSH1 0x40 MLOAD PUSH1 0x24 ADD PUSH3 0x902 SWAP4 SWAP3 SWAP2 SWAP1 PUSH3 0x1584 JUMP JUMPDEST PUSH1 0x40 MLOAD PUSH1 0x20 DUP2 DUP4 SUB SUB DUP2 MSTORE SWAP1 PUSH1 0x40 MSTORE PUSH32 0x4571E3A600000000000000000000000000000000000000000000000000000000 PUSH28 0xFFFFFFFFFFFFFFFFFFFFFFFFFFFFFFFFFFFFFFFFFFFFFFFFFFFFFFFF NOT AND PUSH1 0x20 DUP3 ADD DUP1 MLOAD PUSH28 0xFFFFFFFFFFFFFFFFFFFFFFFFFFFFFFFFFFFFFFFFFFFFFFFFFFFFFFFF DUP4 DUP2 DUP4 AND OR DUP4 MSTORE POP POP POP POP SWAP1 POP PUSH1 0x0 DUP5 DUP3 PUSH1 0x40 MLOAD PUSH3 0x993 SWAP1 PUSH3 0x1009 JUMP JUMPDEST PUSH3 0x9A0 SWAP3 SWAP2 SWAP1 PUSH3 0x15C8 JUMP JUMPDEST PUSH1 0x40 MLOAD DUP1 SWAP2 SUB SWAP1 PUSH1 0x0 CREATE DUP1 ISZERO DUP1 ISZERO PUSH3 0x9BD JUMPI RETURNDATASIZE PUSH1 0x0 DUP1 RETURNDATACOPY RETURNDATASIZE PUSH1 0x0 REVERT JUMPDEST POP SWAP1 POP DUP5 PUSH20 0xFFFFFFFFFFFFFFFFFFFFFFFFFFFFFFFFFFFFFFFF AND DUP2 PUSH20 0xFFFFFFFFFFFFFFFFFFFFFFFFFFFFFFFFFFFFFFFF AND PUSH32 0xAB8530F87DC9B59234C4623BF917212BB2536D647574C8E7E5DA92C2EDE0C9F8 PUSH1 0x2 SLOAD PUSH1 0x40 MLOAD PUSH3 0xA21 SWAP2 SWAP1 PUSH3 0x16C3 JUMP JUMPDEST PUSH1 0x40 MLOAD DUP1 SWAP2 SUB SWAP1 LOG3 DUP1 PUSH1 0x3 PUSH1 0x0 PUSH1 0x2 SLOAD DUP2 MSTORE PUSH1 0x20 ADD SWAP1 DUP2 MSTORE PUSH1 0x20 ADD PUSH1 0x0 KECCAK256 PUSH1 0x0 PUSH2 0x100 EXP DUP2 SLOAD DUP2 PUSH20 0xFFFFFFFFFFFFFFFFFFFFFFFFFFFFFFFFFFFFFFFF MUL NOT AND SWAP1 DUP4 PUSH20 0xFFFFFFFFFFFFFFFFFFFFFFFFFFFFFFFFFFFFFFFF AND MUL OR SWAP1 SSTORE POP DUP1 PUSH1 0x6 PUSH1 0x0 CALLER PUSH20 0xFFFFFFFFFFFFFFFFFFFFFFFFFFFFFFFFFFFFFFFF AND PUSH20 0xFFFFFFFFFFFFFFFFFFFFFFFFFFFFFFFFFFFFFFFF AND DUP2 MSTORE PUSH1 0x20 ADD SWAP1 DUP2 MSTORE PUSH1 0x20 ADD PUSH1 0x0 KECCAK256 PUSH1 0x0 PUSH2 0x100 EXP DUP2 SLOAD DUP2 PUSH20 0xFFFFFFFFFFFFFFFFFFFFFFFFFFFFFFFFFFFFFFFF MUL NOT AND SWAP1 DUP4 PUSH20 0xFFFFFFFFFFFFFFFFFFFFFFFFFFFFFFFFFFFFFFFF AND MUL OR SWAP1 SSTORE POP DUP5 PUSH1 0x4 PUSH1 0x0 DUP4 PUSH20 0xFFFFFFFFFFFFFFFFFFFFFFFFFFFFFFFFFFFFFFFF AND PUSH20 0xFFFFFFFFFFFFFFFFFFFFFFFFFFFFFFFFFFFFFFFF AND DUP2 MSTORE PUSH1 0x20 ADD SWAP1 DUP2 MSTORE PUSH1 0x20 ADD PUSH1 0x0 KECCAK256 PUSH1 0x0 PUSH2 0x100 EXP DUP2 SLOAD DUP2 PUSH20 0xFFFFFFFFFFFFFFFFFFFFFFFFFFFFFFFFFFFFFFFF MUL NOT AND SWAP1 DUP4 PUSH20 0xFFFFFFFFFFFFFFFFFFFFFFFFFFFFFFFFFFFFFFFF AND MUL OR SWAP1 SSTORE POP PUSH1 0x2 PUSH1 0x0 DUP2 SLOAD DUP1 SWAP3 SWAP2 SWAP1 PUSH3 0xB8E SWAP1 PUSH3 0x1862 JUMP JUMPDEST SWAP2 SWAP1 POP SSTORE POP PUSH1 0x1 PUSH1 0x2 SLOAD PUSH3 0xBA4 SWAP2 SWAP1 PUSH3 0x178A JUMP JUMPDEST SWAP3 POP POP POP SWAP3 SWAP2 POP POP JUMP JUMPDEST PUSH3 0xBB8 PUSH3 0xEAB JUMP JUMPDEST PUSH20 0xFFFFFFFFFFFFFFFFFFFFFFFFFFFFFFFFFFFFFFFF AND PUSH3 0xBD8 PUSH3 0x76B JUMP JUMPDEST PUSH20 0xFFFFFFFFFFFFFFFFFFFFFFFFFFFFFFFFFFFFFFFF AND EQ PUSH3 0xC31 JUMPI PUSH1 0x40 MLOAD PUSH32 0x8C379A000000000000000000000000000000000000000000000000000000000 DUP2 MSTORE PUSH1 0x4 ADD PUSH3 0xC28 SWAP1 PUSH3 0x16A1 JUMP JUMPDEST PUSH1 0x40 MLOAD DUP1 SWAP2 SUB SWAP1 REVERT JUMPDEST DUP1 PUSH1 0x1 DUP6 PUSH1 0x40 MLOAD PUSH3 0xC44 SWAP2 SWAP1 PUSH3 0x154E JUMP JUMPDEST SWAP1 DUP2 MSTORE PUSH1 0x20 ADD PUSH1 0x40 MLOAD DUP1 SWAP2 SUB SWAP1 KECCAK256 PUSH1 0x0 DUP6 PUSH2 0xFFFF AND PUSH2 0xFFFF AND DUP2 MSTORE PUSH1 0x20 ADD SWAP1 DUP2 MSTORE PUSH1 0x20 ADD PUSH1 0x0 KECCAK256 PUSH1 0x0 DUP5 PUSH20 0xFFFFFFFFFFFFFFFFFFFFFFFFFFFFFFFFFFFFFFFF AND PUSH20 0xFFFFFFFFFFFFFFFFFFFFFFFFFFFFFFFFFFFFFFFF AND DUP2 MSTORE PUSH1 0x20 ADD SWAP1 DUP2 MSTORE PUSH1 0x20 ADD PUSH1 0x0 KECCAK256 PUSH1 0x0 PUSH2 0x100 EXP DUP2 SLOAD DUP2 PUSH1 0xFF MUL NOT AND SWAP1 DUP4 ISZERO ISZERO MUL OR SWAP1 SSTORE POP POP POP POP POP JUMP JUMPDEST PUSH1 0x4 PUSH1 0x20 MSTORE DUP1 PUSH1 0x0 MSTORE PUSH1 0x40 PUSH1 0x0 KECCAK256 PUSH1 0x0 SWAP2 POP SLOAD SWAP1 PUSH2 0x100 EXP SWAP1 DIV PUSH20 0xFFFFFFFFFFFFFFFFFFFFFFFFFFFFFFFFFFFFFFFF AND DUP2 JUMP JUMPDEST PUSH3 0xD02 PUSH3 0xEAB JUMP JUMPDEST PUSH20 0xFFFFFFFFFFFFFFFFFFFFFFFFFFFFFFFFFFFFFFFF AND PUSH3 0xD22 PUSH3 0x76B JUMP JUMPDEST PUSH20 0xFFFFFFFFFFFFFFFFFFFFFFFFFFFFFFFFFFFFFFFF AND EQ PUSH3 0xD7B JUMPI PUSH1 0x40 MLOAD PUSH32 0x8C379A000000000000000000000000000000000000000000000000000000000 DUP2 MSTORE PUSH1 0x4 ADD PUSH3 0xD72 SWAP1 PUSH3 0x16A1 JUMP JUMPDEST PUSH1 0x40 MLOAD DUP1 SWAP2 SUB SWAP1 REVERT JUMPDEST PUSH1 0x0 PUSH20 0xFFFFFFFFFFFFFFFFFFFFFFFFFFFFFFFFFFFFFFFF AND DUP2 PUSH20 0xFFFFFFFFFFFFFFFFFFFFFFFFFFFFFFFFFFFFFFFF AND EQ ISZERO PUSH3 0xDEE JUMPI PUSH1 0x40 MLOAD PUSH32 0x8C379A000000000000000000000000000000000000000000000000000000000 DUP2 MSTORE PUSH1 0x4 ADD PUSH3 0xDE5 SWAP1 PUSH3 0x163B JUMP JUMPDEST PUSH1 0x40 MLOAD DUP1 SWAP2 SUB SWAP1 REVERT JUMPDEST DUP1 PUSH20 0xFFFFFFFFFFFFFFFFFFFFFFFFFFFFFFFFFFFFFFFF AND PUSH1 0x0 DUP1 SLOAD SWAP1 PUSH2 0x100 EXP SWAP1 DIV PUSH20 0xFFFFFFFFFFFFFFFFFFFFFFFFFFFFFFFFFFFFFFFF AND PUSH20 0xFFFFFFFFFFFFFFFFFFFFFFFFFFFFFFFFFFFFFFFF AND PUSH32 0x8BE0079C531659141344CD1FD0A4F28419497F9722A3DAAFE3B4186F6B6457E0 PUSH1 0x40 MLOAD PUSH1 0x40 MLOAD DUP1 SWAP2 SUB SWAP1 LOG3 DUP1 PUSH1 0x0 DUP1 PUSH2 0x100 EXP DUP2 SLOAD DUP2 PUSH20 0xFFFFFFFFFFFFFFFFFFFFFFFFFFFFFFFFFFFFFFFF MUL NOT AND SWAP1 DUP4 PUSH20 0xFFFFFFFFFFFFFFFFFFFFFFFFFFFFFFFFFFFFFFFF AND MUL OR SWAP1 SSTORE POP POP JUMP JUMPDEST PUSH1 0x0 CALLER SWAP1 POP SWAP1 JUMP JUMPDEST PUSH3 0xEBD PUSH3 0x4A1 JUMP JUMPDEST PUSH3 0xEFF JUMPI PUSH1 0x40 MLOAD PUSH32 0x8C379A000000000000000000000000000000000000000000000000000000000 DUP2 MSTORE PUSH1 0x4 ADD PUSH3 0xEF6 SWAP1 PUSH3 0x1619 JUMP JUMPDEST PUSH1 0x40 MLOAD DUP1 SWAP2 SUB SWAP1 REVERT JUMPDEST PUSH1 0x0 DUP1 PUSH1 0x14 PUSH2 0x100 EXP DUP2 SLOAD DUP2 PUSH1 0xFF MUL NOT AND SWAP1 DUP4 ISZERO ISZERO MUL OR SWAP1 SSTORE POP PUSH32 0x5DB9EE0A495BF2E6FF9C91A7834C1BA4FDD244A5E8AA4E537BD38AEAE4B073AA PUSH3 0xF44 PUSH3 0xEAB JUMP JUMPDEST PUSH1 0x40 MLOAD PUSH3 0xF53 SWAP2 SWAP1 PUSH3 0x1567 JUMP JUMPDEST PUSH1 0x40 MLOAD DUP1 SWAP2 SUB SWAP1 LOG1 JUMP JUMPDEST PUSH3 0xF67 PUSH3 0x4A1 JUMP JUMPDEST ISZERO PUSH3 0xFAA JUMPI PUSH1 0x40 MLOAD PUSH32 0x8C379A000000000000000000000000000000000000000000000000000000000 DUP2 MSTORE PUSH1 0x4 ADD PUSH3 0xFA1 SWAP1 PUSH3 0x167F JUMP JUMPDEST PUSH1 0x40 MLOAD DUP1 SWAP2 SUB SWAP1 REVERT JUMPDEST PUSH1 0x1 PUSH1 0x0 PUSH1 0x14 PUSH2 0x100 EXP DUP2 SLOAD DUP2 PUSH1 0xFF MUL NOT AND SWAP1 DUP4 ISZERO ISZERO MUL OR SWAP1 SSTORE POP PUSH32 0x62E78CEA01BEE320CD4E420270B5EA74000D11B0C9F74754EBDBFC544B05A258 PUSH3 0xFF0 PUSH3 0xEAB JUMP JUMPDEST PUSH1 0x40 MLOAD PUSH3 0xFFF SWAP2 SWAP1 PUSH3 0x1567 JUMP JUMPDEST PUSH1 0x40 MLOAD DUP1 SWAP2 SUB SWAP1 LOG1 JUMP JUMPDEST PUSH2 0x5F7 DUP1 PUSH3 0x1988 DUP4 CODECOPY ADD SWAP1 JUMP JUMPDEST PUSH1 0x0 PUSH3 0x102E PUSH3 0x1028 DUP5 PUSH3 0x1714 JUMP JUMPDEST PUSH3 0x16E0 JUMP JUMPDEST SWAP1 POP DUP3 DUP2 MSTORE PUSH1 0x20 DUP2 ADD DUP5 DUP5 DUP5 ADD GT ISZERO PUSH3 0x1047 JUMPI PUSH1 0x0 DUP1 REVERT JUMPDEST PUSH3 0x1054 DUP5 DUP3 DUP6 PUSH3 0x181D JUMP JUMPDEST POP SWAP4 SWAP3 POP POP POP JUMP JUMPDEST PUSH1 0x0 DUP2 CALLDATALOAD SWAP1 POP PUSH3 0x106D DUP2 PUSH3 0x191F JUMP JUMPDEST SWAP3 SWAP2 POP POP JUMP JUMPDEST PUSH1 0x0 DUP2 CALLDATALOAD SWAP1 POP PUSH3 0x1084 DUP2 PUSH3 0x1939 JUMP JUMPDEST SWAP3 SWAP2 POP POP JUMP JUMPDEST PUSH1 0x0 DUP3 PUSH1 0x1F DUP4 ADD SLT PUSH3 0x109C JUMPI PUSH1 0x0 DUP1 REVERT JUMPDEST DUP2 CALLDATALOAD PUSH3 0x10AE DUP5 DUP3 PUSH1 0x20 DUP7 ADD PUSH3 0x1017 JUMP JUMPDEST SWAP2 POP POP SWAP3 SWAP2 POP POP JUMP JUMPDEST PUSH1 0x0 DUP2 CALLDATALOAD SWAP1 POP PUSH3 0x10C8 DUP2 PUSH3 0x1953 JUMP JUMPDEST SWAP3 SWAP2 POP POP JUMP JUMPDEST PUSH1 0x0 DUP2 CALLDATALOAD SWAP1 POP PUSH3 0x10DF DUP2 PUSH3 0x196D JUMP JUMPDEST SWAP3 SWAP2 POP POP JUMP JUMPDEST PUSH1 0x0 PUSH1 0x20 DUP3 DUP5 SUB SLT ISZERO PUSH3 0x10F8 JUMPI PUSH1 0x0 DUP1 REVERT JUMPDEST PUSH1 0x0 PUSH3 0x1108 DUP5 DUP3 DUP6 ADD PUSH3 0x105C JUMP JUMPDEST SWAP2 POP POP SWAP3 SWAP2 POP POP JUMP JUMPDEST PUSH1 0x0 DUP1 PUSH1 0x40 DUP4 DUP6 SUB SLT ISZERO PUSH3 0x1125 JUMPI PUSH1 0x0 DUP1 REVERT JUMPDEST PUSH1 0x0 PUSH3 0x1135 DUP6 DUP3 DUP7 ADD PUSH3 0x105C JUMP JUMPDEST SWAP3 POP POP PUSH1 0x20 PUSH3 0x1148 DUP6 DUP3 DUP7 ADD PUSH3 0x1073 JUMP JUMPDEST SWAP2 POP POP SWAP3 POP SWAP3 SWAP1 POP JUMP JUMPDEST PUSH1 0x0 DUP1 PUSH1 0x40 DUP4 DUP6 SUB SLT ISZERO PUSH3 0x1166 JUMPI PUSH1 0x0 DUP1 REVERT JUMPDEST PUSH1 0x0 PUSH3 0x1176 DUP6 DUP3 DUP7 ADD PUSH3 0x105C JUMP JUMPDEST SWAP3 POP POP PUSH1 0x20 DUP4 ADD CALLDATALOAD PUSH8 0xFFFFFFFFFFFFFFFF DUP2 GT ISZERO PUSH3 0x1194 JUMPI PUSH1 0x0 DUP1 REVERT JUMPDEST PUSH3 0x11A2 DUP6 DUP3 DUP7 ADD PUSH3 0x108A JUMP JUMPDEST SWAP2 POP POP SWAP3 POP SWAP3 SWAP1 POP JUMP JUMPDEST PUSH1 0x0 DUP1 PUSH1 0x0 PUSH1 0x60 DUP5 DUP7 SUB SLT ISZERO PUSH3 0x11C2 JUMPI PUSH1 0x0 DUP1 REVERT JUMPDEST PUSH1 0x0 DUP5 ADD CALLDATALOAD PUSH8 0xFFFFFFFFFFFFFFFF DUP2 GT ISZERO PUSH3 0x11DD JUMPI PUSH1 0x0 DUP1 REVERT JUMPDEST PUSH3 0x11EB DUP7 DUP3 DUP8 ADD PUSH3 0x108A JUMP JUMPDEST SWAP4 POP POP PUSH1 0x20 PUSH3 0x11FE DUP7 DUP3 DUP8 ADD PUSH3 0x10B7 JUMP JUMPDEST SWAP3 POP POP PUSH1 0x40 PUSH3 0x1211 DUP7 DUP3 DUP8 ADD PUSH3 0x105C JUMP JUMPDEST SWAP2 POP POP SWAP3 POP SWAP3 POP SWAP3 JUMP JUMPDEST PUSH1 0x0 DUP1 PUSH1 0x0 DUP1 PUSH1 0x80 DUP6 DUP8 SUB SLT ISZERO PUSH3 0x1232 JUMPI PUSH1 0x0 DUP1 REVERT JUMPDEST PUSH1 0x0 DUP6 ADD CALLDATALOAD PUSH8 0xFFFFFFFFFFFFFFFF DUP2 GT ISZERO PUSH3 0x124D JUMPI PUSH1 0x0 DUP1 REVERT JUMPDEST PUSH3 0x125B DUP8 DUP3 DUP9 ADD PUSH3 0x108A JUMP JUMPDEST SWAP5 POP POP PUSH1 0x20 PUSH3 0x126E DUP8 DUP3 DUP9 ADD PUSH3 0x10B7 JUMP JUMPDEST SWAP4 POP POP PUSH1 0x40 PUSH3 0x1281 DUP8 DUP3 DUP9 ADD PUSH3 0x105C JUMP JUMPDEST SWAP3 POP POP PUSH1 0x60 PUSH3 0x1294 DUP8 DUP3 DUP9 ADD PUSH3 0x1073 JUMP JUMPDEST SWAP2 POP POP SWAP3 SWAP6 SWAP2 SWAP5 POP SWAP3 POP JUMP JUMPDEST PUSH1 0x0 PUSH1 0x20 DUP3 DUP5 SUB SLT ISZERO PUSH3 0x12B3 JUMPI PUSH1 0x0 DUP1 REVERT JUMPDEST PUSH1 0x0 PUSH3 0x12C3 DUP5 DUP3 DUP6 ADD PUSH3 0x10CE JUMP JUMPDEST SWAP2 POP POP SWAP3 SWAP2 POP POP JUMP JUMPDEST PUSH3 0x12D7 DUP2 PUSH3 0x17C5 JUMP JUMPDEST DUP3 MSTORE POP POP JUMP JUMPDEST PUSH3 0x12E8 DUP2 PUSH3 0x17D9 JUMP JUMPDEST DUP3 MSTORE POP POP JUMP JUMPDEST PUSH1 0x0 PUSH3 0x12FB DUP3 PUSH3 0x1747 JUMP JUMPDEST PUSH3 0x1307 DUP2 DUP6 PUSH3 0x175D JUMP JUMPDEST SWAP4 POP PUSH3 0x1319 DUP2 DUP6 PUSH1 0x20 DUP7 ADD PUSH3 0x182C JUMP JUMPDEST PUSH3 0x1324 DUP2 PUSH3 0x190E JUMP JUMPDEST DUP5 ADD SWAP2 POP POP SWAP3 SWAP2 POP POP JUMP JUMPDEST PUSH1 0x0 PUSH3 0x133C DUP3 PUSH3 0x1752 JUMP JUMPDEST PUSH3 0x1348 DUP2 DUP6 PUSH3 0x176E JUMP JUMPDEST SWAP4 POP PUSH3 0x135A DUP2 DUP6 PUSH1 0x20 DUP7 ADD PUSH3 0x182C JUMP JUMPDEST PUSH3 0x1365 DUP2 PUSH3 0x190E JUMP JUMPDEST DUP5 ADD SWAP2 POP POP SWAP3 SWAP2 POP POP JUMP JUMPDEST PUSH1 0x0 PUSH3 0x137D DUP3 PUSH3 0x1752 JUMP JUMPDEST PUSH3 0x1389 DUP2 DUP6 PUSH3 0x177F JUMP JUMPDEST SWAP4 POP PUSH3 0x139B DUP2 DUP6 PUSH1 0x20 DUP7 ADD PUSH3 0x182C JUMP JUMPDEST DUP1 DUP5 ADD SWAP2 POP POP SWAP3 SWAP2 POP POP JUMP JUMPDEST PUSH1 0x0 PUSH3 0x13B6 PUSH1 0x14 DUP4 PUSH3 0x176E JUMP JUMPDEST SWAP2 POP PUSH32 0x5061757361626C653A206E6F7420706175736564000000000000000000000000 PUSH1 0x0 DUP4 ADD MSTORE PUSH1 0x20 DUP3 ADD SWAP1 POP SWAP2 SWAP1 POP JUMP JUMPDEST PUSH1 0x0 PUSH3 0x13F8 PUSH1 0x26 DUP4 PUSH3 0x176E JUMP JUMPDEST SWAP2 POP PUSH32 0x4F776E61626C653A206E6577206F776E657220697320746865207A65726F2061 PUSH1 0x0 DUP4 ADD MSTORE PUSH32 0x6464726573730000000000000000000000000000000000000000000000000000 PUSH1 0x20 DUP4 ADD MSTORE PUSH1 0x40 DUP3 ADD SWAP1 POP SWAP2 SWAP1 POP JUMP JUMPDEST PUSH1 0x0 PUSH3 0x1460 PUSH1 0x25 DUP4 PUSH3 0x176E JUMP JUMPDEST SWAP2 POP PUSH32 0x466163746F7279203A3A20496E636F72726563742074656D706C617465206164 PUSH1 0x0 DUP4 ADD MSTORE PUSH32 0x6472657373000000000000000000000000000000000000000000000000000000 PUSH1 0x20 DUP4 ADD MSTORE PUSH1 0x40 DUP3 ADD SWAP1 POP SWAP2 SWAP1 POP JUMP JUMPDEST PUSH1 0x0 PUSH3 0x14C8 PUSH1 0x10 DUP4 PUSH3 0x176E JUMP JUMPDEST SWAP2 POP PUSH32 0x5061757361626C653A2070617573656400000000000000000000000000000000 PUSH1 0x0 DUP4 ADD MSTORE PUSH1 0x20 DUP3 ADD SWAP1 POP SWAP2 SWAP1 POP JUMP JUMPDEST PUSH1 0x0 PUSH3 0x150A PUSH1 0x20 DUP4 PUSH3 0x176E JUMP JUMPDEST SWAP2 POP PUSH32 0x4F776E61626C653A2063616C6C6572206973206E6F7420746865206F776E6572 PUSH1 0x0 DUP4 ADD MSTORE PUSH1 0x20 DUP3 ADD SWAP1 POP SWAP2 SWAP1 POP JUMP JUMPDEST PUSH3 0x1548 DUP2 PUSH3 0x1813 JUMP JUMPDEST DUP3 MSTORE POP POP JUMP JUMPDEST PUSH1 0x0 PUSH3 0x155C DUP3 DUP5 PUSH3 0x1370 JUMP JUMPDEST SWAP2 POP DUP2 SWAP1 POP SWAP3 SWAP2 POP POP JUMP JUMPDEST PUSH1 0x0 PUSH1 0x20 DUP3 ADD SWAP1 POP PUSH3 0x157E PUSH1 0x0 DUP4 ADD DUP5 PUSH3 0x12CC JUMP JUMPDEST SWAP3 SWAP2 POP POP JUMP JUMPDEST PUSH1 0x0 PUSH1 0x60 DUP3 ADD SWAP1 POP PUSH3 0x159B PUSH1 0x0 DUP4 ADD DUP7 PUSH3 0x12CC JUMP JUMPDEST PUSH3 0x15AA PUSH1 0x20 DUP4 ADD DUP6 PUSH3 0x12CC JUMP JUMPDEST DUP2 DUP2 SUB PUSH1 0x40 DUP4 ADD MSTORE PUSH3 0x15BE DUP2 DUP5 PUSH3 0x132F JUMP JUMPDEST SWAP1 POP SWAP5 SWAP4 POP POP POP POP JUMP JUMPDEST PUSH1 0x0 PUSH1 0x40 DUP3 ADD SWAP1 POP PUSH3 0x15DF PUSH1 0x0 DUP4 ADD DUP6 PUSH3 0x12CC JUMP JUMPDEST DUP2 DUP2 SUB PUSH1 0x20 DUP4 ADD MSTORE PUSH3 0x15F3 DUP2 DUP5 PUSH3 0x12EE JUMP JUMPDEST SWAP1 POP SWAP4 SWAP3 POP POP POP JUMP JUMPDEST PUSH1 0x0 PUSH1 0x20 DUP3 ADD SWAP1 POP PUSH3 0x1613 PUSH1 0x0 DUP4 ADD DUP5 PUSH3 0x12DD JUMP JUMPDEST SWAP3 SWAP2 POP POP JUMP JUMPDEST PUSH1 0x0 PUSH1 0x20 DUP3 ADD SWAP1 POP DUP2 DUP2 SUB PUSH1 0x0 DUP4 ADD MSTORE PUSH3 0x1634 DUP2 PUSH3 0x13A7 JUMP JUMPDEST SWAP1 POP SWAP2 SWAP1 POP JUMP JUMPDEST PUSH1 0x0 PUSH1 0x20 DUP3 ADD SWAP1 POP DUP2 DUP2 SUB PUSH1 0x0 DUP4 ADD MSTORE PUSH3 0x1656 DUP2 PUSH3 0x13E9 JUMP JUMPDEST SWAP1 POP SWAP2 SWAP1 POP JUMP JUMPDEST PUSH1 0x0 PUSH1 0x20 DUP3 ADD SWAP1 POP DUP2 DUP2 SUB PUSH1 0x0 DUP4 ADD MSTORE PUSH3 0x1678 DUP2 PUSH3 0x1451 JUMP JUMPDEST SWAP1 POP SWAP2 SWAP1 POP JUMP JUMPDEST PUSH1 0x0 PUSH1 0x20 DUP3 ADD SWAP1 POP DUP2 DUP2 SUB PUSH1 0x0 DUP4 ADD MSTORE PUSH3 0x169A DUP2 PUSH3 0x14B9 JUMP JUMPDEST SWAP1 POP SWAP2 SWAP1 POP JUMP JUMPDEST PUSH1 0x0 PUSH1 0x20 DUP3 ADD SWAP1 POP DUP2 DUP2 SUB PUSH1 0x0 DUP4 ADD MSTORE PUSH3 0x16BC DUP2 PUSH3 0x14FB JUMP JUMPDEST SWAP1 POP SWAP2 SWAP1 POP JUMP JUMPDEST PUSH1 0x0 PUSH1 0x20 DUP3 ADD SWAP1 POP PUSH3 0x16DA PUSH1 0x0 DUP4 ADD DUP5 PUSH3 0x153D JUMP JUMPDEST SWAP3 SWAP2 POP POP JUMP JUMPDEST PUSH1 0x0 PUSH1 0x40 MLOAD SWAP1 POP DUP2 DUP2 ADD DUP2 DUP2 LT PUSH8 0xFFFFFFFFFFFFFFFF DUP3 GT OR ISZERO PUSH3 0x170A JUMPI PUSH3 0x1709 PUSH3 0x18DF JUMP JUMPDEST JUMPDEST DUP1 PUSH1 0x40 MSTORE POP SWAP2 SWAP1 POP JUMP JUMPDEST PUSH1 0x0 PUSH8 0xFFFFFFFFFFFFFFFF DUP3 GT ISZERO PUSH3 0x1732 JUMPI PUSH3 0x1731 PUSH3 0x18DF JUMP JUMPDEST JUMPDEST PUSH1 0x1F NOT PUSH1 0x1F DUP4 ADD AND SWAP1 POP PUSH1 0x20 DUP2 ADD SWAP1 POP SWAP2 SWAP1 POP JUMP JUMPDEST PUSH1 0x0 DUP2 MLOAD SWAP1 POP SWAP2 SWAP1 POP JUMP JUMPDEST PUSH1 0x0 DUP2 MLOAD SWAP1 POP SWAP2 SWAP1 POP JUMP JUMPDEST PUSH1 0x0 DUP3 DUP3 MSTORE PUSH1 0x20 DUP3 ADD SWAP1 POP SWAP3 SWAP2 POP POP JUMP JUMPDEST PUSH1 0x0 DUP3 DUP3 MSTORE PUSH1 0x20 DUP3 ADD SWAP1 POP SWAP3 SWAP2 POP POP JUMP JUMPDEST PUSH1 0x0 DUP2 SWAP1 POP SWAP3 SWAP2 POP POP JUMP JUMPDEST PUSH1 0x0 PUSH3 0x1797 DUP3 PUSH3 0x1813 JUMP JUMPDEST SWAP2 POP PUSH3 0x17A4 DUP4 PUSH3 0x1813 JUMP JUMPDEST SWAP3 POP DUP3 DUP3 LT ISZERO PUSH3 0x17BA JUMPI PUSH3 0x17B9 PUSH3 0x18B0 JUMP JUMPDEST JUMPDEST DUP3 DUP3 SUB SWAP1 POP SWAP3 SWAP2 POP POP JUMP JUMPDEST PUSH1 0x0 PUSH3 0x17D2 DUP3 PUSH3 0x17F3 JUMP JUMPDEST SWAP1 POP SWAP2 SWAP1 POP JUMP JUMPDEST PUSH1 0x0 DUP2 ISZERO ISZERO SWAP1 POP SWAP2 SWAP1 POP JUMP JUMPDEST PUSH1 0x0 PUSH2 0xFFFF DUP3 AND SWAP1 POP SWAP2 SWAP1 POP JUMP JUMPDEST PUSH1 0x0 PUSH20 0xFFFFFFFFFFFFFFFFFFFFFFFFFFFFFFFFFFFFFFFF DUP3 AND SWAP1 POP SWAP2 SWAP1 POP JUMP JUMPDEST PUSH1 0x0 DUP2 SWAP1 POP SWAP2 SWAP1 POP JUMP JUMPDEST DUP3 DUP2 DUP4 CALLDATACOPY PUSH1 0x0 DUP4 DUP4 ADD MSTORE POP POP POP JUMP JUMPDEST PUSH1 0x0 JUMPDEST DUP4 DUP2 LT ISZERO PUSH3 0x184C JUMPI DUP1 DUP3 ADD MLOAD DUP2 DUP5 ADD MSTORE PUSH1 0x20 DUP2 ADD SWAP1 POP PUSH3 0x182F JUMP JUMPDEST DUP4 DUP2 GT ISZERO PUSH3 0x185C JUMPI PUSH1 0x0 DUP5 DUP5 ADD MSTORE JUMPDEST POP POP POP POP JUMP JUMPDEST PUSH1 0x0 PUSH3 0x186F DUP3 PUSH3 0x1813 JUMP JUMPDEST SWAP2 POP PUSH32 0xFFFFFFFFFFFFFFFFFFFFFFFFFFFFFFFFFFFFFFFFFFFFFFFFFFFFFFFFFFFFFFFF DUP3 EQ ISZERO PUSH3 0x18A5 JUMPI PUSH3 0x18A4 PUSH3 0x18B0 JUMP JUMPDEST JUMPDEST PUSH1 0x1 DUP3 ADD SWAP1 POP SWAP2 SWAP1 POP JUMP JUMPDEST PUSH32 0x4E487B7100000000000000000000000000000000000000000000000000000000 PUSH1 0x0 MSTORE PUSH1 0x11 PUSH1 0x4 MSTORE PUSH1 0x24 PUSH1 0x0 REVERT JUMPDEST PUSH32 0x4E487B7100000000000000000000000000000000000000000000000000000000 PUSH1 0x0 MSTORE PUSH1 0x41 PUSH1 0x4 MSTORE PUSH1 0x24 PUSH1 0x0 REVERT JUMPDEST PUSH1 0x0 PUSH1 0x1F NOT PUSH1 0x1F DUP4 ADD AND SWAP1 POP SWAP2 SWAP1 POP JUMP JUMPDEST PUSH3 0x192A DUP2 PUSH3 0x17C5 JUMP JUMPDEST DUP2 EQ PUSH3 0x1936 JUMPI PUSH1 0x0 DUP1 REVERT JUMPDEST POP JUMP JUMPDEST PUSH3 0x1944 DUP2 PUSH3 0x17D9 JUMP JUMPDEST DUP2 EQ PUSH3 0x1950 JUMPI PUSH1 0x0 DUP1 REVERT JUMPDEST POP JUMP JUMPDEST PUSH3 0x195E DUP2 PUSH3 0x17E5 JUMP JUMPDEST DUP2 EQ PUSH3 0x196A JUMPI PUSH1 0x0 DUP1 REVERT JUMPDEST POP JUMP JUMPDEST PUSH3 0x1978 DUP2 PUSH3 0x1813 JUMP JUMPDEST DUP2 EQ PUSH3 0x1984 JUMPI PUSH1 0x0 DUP1 REVERT JUMPDEST POP JUMP INVALID PUSH1 0x80 PUSH1 0x40 MSTORE CALLVALUE DUP1 ISZERO PUSH2 0x10 JUMPI PUSH1 0x0 DUP1 REVERT JUMPDEST POP PUSH1 0x40 MLOAD PUSH2 0x5F7 CODESIZE SUB DUP1 PUSH2 0x5F7 DUP4 CODECOPY DUP2 DUP2 ADD PUSH1 0x40 MSTORE DUP2 ADD SWAP1 PUSH2 0x32 SWAP2 SWAP1 PUSH2 0x25B JUMP JUMPDEST PUSH1 0x0 PUSH20 0xFFFFFFFFFFFFFFFFFFFFFFFFFFFFFFFFFFFFFFFF AND DUP3 PUSH20 0xFFFFFFFFFFFFFFFFFFFFFFFFFFFFFFFFFFFFFFFF AND EQ ISZERO PUSH2 0xA2 JUMPI PUSH1 0x40 MLOAD PUSH32 0x8C379A000000000000000000000000000000000000000000000000000000000 DUP2 MSTORE PUSH1 0x4 ADD PUSH2 0x99 SWAP1 PUSH2 0x3B8 JUMP JUMPDEST PUSH1 0x40 MLOAD DUP1 SWAP2 SUB SWAP1 REVERT JUMPDEST DUP2 PUSH2 0xD9 PUSH32 0x5F62CE3C9AEBD463C7A36AB1B244D2BB94F07A2C13889B3B687940EBC467B9B3 PUSH1 0x0 SHL PUSH2 0x1D4 PUSH1 0x20 SHL PUSH2 0x82 OR PUSH1 0x20 SHR JUMP JUMPDEST PUSH1 0x0 ADD PUSH1 0x0 PUSH2 0x100 EXP DUP2 SLOAD DUP2 PUSH20 0xFFFFFFFFFFFFFFFFFFFFFFFFFFFFFFFFFFFFFFFF MUL NOT AND SWAP1 DUP4 PUSH20 0xFFFFFFFFFFFFFFFFFFFFFFFFFFFFFFFFFFFFFFFF AND MUL OR SWAP1 SSTORE POP PUSH1 0x0 DUP1 DUP4 PUSH20 0xFFFFFFFFFFFFFFFFFFFFFFFFFFFFFFFFFFFFFFFF AND DUP4 PUSH1 0x40 MLOAD PUSH2 0x142 SWAP2 SWAP1 PUSH2 0x37F JUMP JUMPDEST PUSH1 0x0 PUSH1 0x40 MLOAD DUP1 DUP4 SUB DUP2 DUP6 GAS DELEGATECALL SWAP2 POP POP RETURNDATASIZE DUP1 PUSH1 0x0 DUP2 EQ PUSH2 0x17D JUMPI PUSH1 0x40 MLOAD SWAP2 POP PUSH1 0x1F NOT PUSH1 0x3F RETURNDATASIZE ADD AND DUP3 ADD PUSH1 0x40 MSTORE RETURNDATASIZE DUP3 MSTORE RETURNDATASIZE PUSH1 0x0 PUSH1 0x20 DUP5 ADD RETURNDATACOPY PUSH2 0x182 JUMP JUMPDEST PUSH1 0x60 SWAP2 POP JUMPDEST POP SWAP2 POP SWAP2 POP DUP2 DUP2 SWAP1 PUSH2 0x1CA JUMPI PUSH1 0x40 MLOAD PUSH32 0x8C379A000000000000000000000000000000000000000000000000000000000 DUP2 MSTORE PUSH1 0x4 ADD PUSH2 0x1C1 SWAP2 SWAP1 PUSH2 0x396 JUMP JUMPDEST PUSH1 0x40 MLOAD DUP1 SWAP2 SUB SWAP1 REVERT JUMPDEST POP POP POP POP POP PUSH2 0x527 JUMP JUMPDEST PUSH1 0x0 DUP2 SWAP1 POP SWAP2 SWAP1 POP JUMP JUMPDEST PUSH1 0x0 PUSH2 0x1F1 PUSH2 0x1EC DUP5 PUSH2 0x409 JUMP JUMPDEST PUSH2 0x3D8 JUMP JUMPDEST SWAP1 POP DUP3 DUP2 MSTORE PUSH1 0x20 DUP2 ADD DUP5 DUP5 DUP5 ADD GT ISZERO PUSH2 0x209 JUMPI PUSH1 0x0 DUP1 REVERT JUMPDEST PUSH2 0x214 DUP5 DUP3 DUP6 PUSH2 0x49D JUMP JUMPDEST POP SWAP4 SWAP3 POP POP POP JUMP JUMPDEST PUSH1 0x0 DUP2 MLOAD SWAP1 POP PUSH2 0x22B DUP2 PUSH2 0x510 JUMP JUMPDEST SWAP3 SWAP2 POP POP JUMP JUMPDEST PUSH1 0x0 DUP3 PUSH1 0x1F DUP4 ADD SLT PUSH2 0x242 JUMPI PUSH1 0x0 DUP1 REVERT JUMPDEST DUP2 MLOAD PUSH2 0x252 DUP5 DUP3 PUSH1 0x20 DUP7 ADD PUSH2 0x1DE JUMP JUMPDEST SWAP2 POP POP SWAP3 SWAP2 POP POP JUMP JUMPDEST PUSH1 0x0 DUP1 PUSH1 0x40 DUP4 DUP6 SUB SLT ISZERO PUSH2 0x26E JUMPI PUSH1 0x0 DUP1 REVERT JUMPDEST PUSH1 0x0 PUSH2 0x27C DUP6 DUP3 DUP7 ADD PUSH2 0x21C JUMP JUMPDEST SWAP3 POP POP PUSH1 0x20 DUP4 ADD MLOAD PUSH8 0xFFFFFFFFFFFFFFFF DUP2 GT ISZERO PUSH2 0x299 JUMPI PUSH1 0x0 DUP1 REVERT JUMPDEST PUSH2 0x2A5 DUP6 DUP3 DUP7 ADD PUSH2 0x231 JUMP JUMPDEST SWAP2 POP POP SWAP3 POP SWAP3 SWAP1 POP JUMP JUMPDEST PUSH1 0x0 PUSH2 0x2BA DUP3 PUSH2 0x439 JUMP JUMPDEST PUSH2 0x2C4 DUP2 DUP6 PUSH2 0x44F JUMP JUMPDEST SWAP4 POP PUSH2 0x2D4 DUP2 DUP6 PUSH1 0x20 DUP7 ADD PUSH2 0x49D JUMP JUMPDEST DUP1 DUP5 ADD SWAP2 POP POP SWAP3 SWAP2 POP POP JUMP JUMPDEST PUSH1 0x0 PUSH2 0x2EB DUP3 PUSH2 0x444 JUMP JUMPDEST PUSH2 0x2F5 DUP2 DUP6 PUSH2 0x45A JUMP JUMPDEST SWAP4 POP PUSH2 0x305 DUP2 DUP6 PUSH1 0x20 DUP7 ADD PUSH2 0x49D JUMP JUMPDEST PUSH2 0x30E DUP2 PUSH2 0x4FF JUMP JUMPDEST DUP5 ADD SWAP2 POP POP SWAP3 SWAP2 POP POP JUMP JUMPDEST PUSH1 0x0 PUSH2 0x326 PUSH1 0x33 DUP4 PUSH2 0x45A JUMP JUMPDEST SWAP2 POP PUSH32 0x50726F7879203A3A204C6F676963616C20636F6E7472616374732063616E6E6F PUSH1 0x0 DUP4 ADD MSTORE PUSH32 0x74206265207A65726F2061646472657373657300000000000000000000000000 PUSH1 0x20 DUP4 ADD MSTORE PUSH1 0x40 DUP3 ADD SWAP1 POP SWAP2 SWAP1 POP JUMP JUMPDEST PUSH1 0x0 PUSH2 0x38B DUP3 DUP5 PUSH2 0x2AF JUMP JUMPDEST SWAP2 POP DUP2 SWAP1 POP SWAP3 SWAP2 POP POP JUMP JUMPDEST PUSH1 0x0 PUSH1 0x20 DUP3 ADD SWAP1 POP DUP2 DUP2 SUB PUSH1 0x0 DUP4 ADD MSTORE PUSH2 0x3B0 DUP2 DUP5 PUSH2 0x2E0 JUMP JUMPDEST SWAP1 POP SWAP3 SWAP2 POP POP JUMP JUMPDEST PUSH1 0x0 PUSH1 0x20 DUP3 ADD SWAP1 POP DUP2 DUP2 SUB PUSH1 0x0 DUP4 ADD MSTORE PUSH2 0x3D1 DUP2 PUSH2 0x319 JUMP JUMPDEST SWAP1 POP SWAP2 SWAP1 POP JUMP JUMPDEST PUSH1 0x0 PUSH1 0x40 MLOAD SWAP1 POP DUP2 DUP2 ADD DUP2 DUP2 LT PUSH8 0xFFFFFFFFFFFFFFFF DUP3 GT OR ISZERO PUSH2 0x3FF JUMPI PUSH2 0x3FE PUSH2 0x4D0 JUMP JUMPDEST JUMPDEST DUP1 PUSH1 0x40 MSTORE POP SWAP2 SWAP1 POP JUMP JUMPDEST PUSH1 0x0 PUSH8 0xFFFFFFFFFFFFFFFF DUP3 GT ISZERO PUSH2 0x424 JUMPI PUSH2 0x423 PUSH2 0x4D0 JUMP JUMPDEST JUMPDEST PUSH1 0x1F NOT PUSH1 0x1F DUP4 ADD AND SWAP1 POP PUSH1 0x20 DUP2 ADD SWAP1 POP SWAP2 SWAP1 POP JUMP JUMPDEST PUSH1 0x0 DUP2 MLOAD SWAP1 POP SWAP2 SWAP1 POP JUMP JUMPDEST PUSH1 0x0 DUP2 MLOAD SWAP1 POP SWAP2 SWAP1 POP JUMP JUMPDEST PUSH1 0x0 DUP2 SWAP1 POP SWAP3 SWAP2 POP POP JUMP JUMPDEST PUSH1 0x0 DUP3 DUP3 MSTORE PUSH1 0x20 DUP3 ADD SWAP1 POP SWAP3 SWAP2 POP POP JUMP JUMPDEST PUSH1 0x0 PUSH2 0x476 DUP3 PUSH2 0x47D JUMP JUMPDEST SWAP1 POP SWAP2 SWAP1 POP JUMP JUMPDEST PUSH1 0x0 PUSH20 0xFFFFFFFFFFFFFFFFFFFFFFFFFFFFFFFFFFFFFFFF DUP3 AND SWAP1 POP SWAP2 SWAP1 POP JUMP JUMPDEST PUSH1 0x0 JUMPDEST DUP4 DUP2 LT ISZERO PUSH2 0x4BB JUMPI DUP1 DUP3 ADD MLOAD DUP2 DUP5 ADD MSTORE PUSH1 0x20 DUP2 ADD SWAP1 POP PUSH2 0x4A0 JUMP JUMPDEST DUP4 DUP2 GT ISZERO PUSH2 0x4CA JUMPI PUSH1 0x0 DUP5 DUP5 ADD MSTORE JUMPDEST POP POP POP POP JUMP JUMPDEST PUSH32 0x4E487B7100000000000000000000000000000000000000000000000000000000 PUSH1 0x0 MSTORE PUSH1 0x41 PUSH1 0x4 MSTORE PUSH1 0x24 PUSH1 0x0 REVERT JUMPDEST PUSH1 0x0 PUSH1 0x1F NOT PUSH1 0x1F DUP4 ADD AND SWAP1 POP SWAP2 SWAP1 POP JUMP JUMPDEST PUSH2 0x519 DUP2 PUSH2 0x46B JUMP JUMPDEST DUP2 EQ PUSH2 0x524 JUMPI PUSH1 0x0 DUP1 REVERT JUMPDEST POP JUMP JUMPDEST PUSH1 0xC2 DUP1 PUSH2 0x535 PUSH1 0x0 CODECOPY PUSH1 0x0 RETURN INVALID PUSH1 0x80 PUSH1 0x40 MSTORE CALLDATASIZE PUSH1 0xA JUMPI STOP JUMPDEST PUSH1 0x0 PUSH1 0x36 PUSH32 0x5F62CE3C9AEBD463C7A36AB1B244D2BB94F07A2C13889B3B687940EBC467B9B3 PUSH1 0x0 SHL PUSH1 0x82 JUMP JUMPDEST PUSH1 0x0 ADD PUSH1 0x0 SWAP1 SLOAD SWAP1 PUSH2 0x100 EXP SWAP1 DIV PUSH20 0xFFFFFFFFFFFFFFFFFFFFFFFFFFFFFFFFFFFFFFFF AND SWAP1 POP PUSH1 0x40 MLOAD CALLDATASIZE PUSH1 0x0 DUP3 CALLDATACOPY PUSH1 0x0 DUP1 CALLDATASIZE DUP4 DUP6 GAS DELEGATECALL RETURNDATASIZE DUP1 PUSH1 0x0 DUP5 RETURNDATACOPY DUP2 PUSH1 0x0 DUP2 EQ PUSH1 0x7E JUMPI DUP2 DUP5 RETURN JUMPDEST DUP2 DUP5 REVERT JUMPDEST PUSH1 0x0 DUP2 SWAP1 POP SWAP2 SWAP1 POP JUMP INVALID LOG2 PUSH5 0x6970667358 0x22 SLT KECCAK256 0xE2 0x21 DUP5 GASLIMIT 0x28 NOT 0xDF 0xE GASPRICE 0x4E SLT 0xB5 0xD8 BYTE TIMESTAMP PUSH32 0x92EBA04F8A27762382A9B76DC4A2B75564736F6C63430008000033A264697066 PUSH20 0x582212206FD2A0F1D4A50DFC3360EA5E3FADCA0D 0xB6 0xD0 PUSH7 0xD5B5CC02B74CFE DUP3 SWAP7 SWAP7 0xCE 0x29 0x49 PUSH5 0x736F6C6343 STOP ADDMOD STOP STOP CALLER "
				},
				"gasEstimates": {
					"creation": {
						"codeDepositCost": "1623200",
						"executionCost": "infinite",
						"totalCost": "infinite"
					},
					"external": {
						"calibrationTemplate(address)": "infinite",
						"lastMint(address)": "infinite",
						"mint(address,string)": "infinite",
						"owner()": "1267",
						"pause()": "infinite",
						"paused()": "1252",
						"renounceOwnership()": "24418",
						"routerTemplateMap(address)": "1569",
						"routers(uint256)": "1629",
						"setLogic(address,bool)": "22576",
						"setUpdataAddresCalibration(string,uint16,address,bool)": "infinite",
						"setting()": "infinite",
						"transferOwnership(address)": "24766",
						"unpause()": "infinite",
						"updataAddresCalibration(string,uint16,address)": "infinite",
						"vaultRouterCount()": "1196"
					}
				},
				"methodIdentifiers": {
					"calibrationTemplate(address)": "e425a4b3",
					"lastMint(address)": "adc20b1c",
					"mint(address,string)": "d0def521",
					"owner()": "8da5cb5b",
					"pause()": "8456cb59",
					"paused()": "5c975abb",
					"renounceOwnership()": "715018a6",
					"routerTemplateMap(address)": "3955d09a",
					"routers(uint256)": "4e9c1118",
					"setLogic(address,bool)": "5f43b6b3",
					"setUpdataAddresCalibration(string,uint16,address,bool)": "d67620d6",
					"setting()": "c0c9ce30",
					"transferOwnership(address)": "f2fde38b",
					"unpause()": "3f4ba83a",
					"updataAddresCalibration(string,uint16,address)": "396a7a5e",
					"vaultRouterCount()": "6f631e6a"
				}
			},
			"storageLayout": {
				"storage": [
					{
						"astId": 67,
						"contract": "contracts/Factory.sol:Factory",
						"label": "_owner",
						"offset": 0,
						"slot": "0",
						"type": "t_address"
					},
					{
						"astId": 472,
						"contract": "contracts/Factory.sol:Factory",
						"label": "_paused",
						"offset": 20,
						"slot": "0",
						"type": "t_bool"
					},
					{
						"astId": 210,
						"contract": "contracts/Factory.sol:Factory",
						"label": "updataAddresCalibration",
						"offset": 0,
						"slot": "1",
						"type": "t_mapping(t_string_memory_ptr,t_mapping(t_uint16,t_mapping(t_address,t_bool)))"
					},
					{
						"astId": 213,
						"contract": "contracts/Factory.sol:Factory",
						"label": "vaultRouterCount",
						"offset": 0,
						"slot": "2",
						"type": "t_uint256"
					},
					{
						"astId": 218,
						"contract": "contracts/Factory.sol:Factory",
						"label": "routers",
						"offset": 0,
						"slot": "3",
						"type": "t_mapping(t_uint256,t_address)"
					},
					{
						"astId": 222,
						"contract": "contracts/Factory.sol:Factory",
						"label": "calibrationTemplate",
						"offset": 0,
						"slot": "4",
						"type": "t_mapping(t_address,t_address)"
					},
					{
						"astId": 230,
						"contract": "contracts/Factory.sol:Factory",
						"label": "routerTemplateMap",
						"offset": 0,
						"slot": "5",
						"type": "t_mapping(t_address,t_bool)"
					},
					{
						"astId": 234,
						"contract": "contracts/Factory.sol:Factory",
						"label": "lastMint",
						"offset": 0,
						"slot": "6",
						"type": "t_mapping(t_address,t_address)"
					}
				],
				"types": {
					"t_address": {
						"encoding": "inplace",
						"label": "address",
						"numberOfBytes": "20"
					},
					"t_bool": {
						"encoding": "inplace",
						"label": "bool",
						"numberOfBytes": "1"
					},
					"t_mapping(t_address,t_address)": {
						"encoding": "mapping",
						"key": "t_address",
						"label": "mapping(address => address)",
						"numberOfBytes": "32",
						"value": "t_address"
					},
					"t_mapping(t_address,t_bool)": {
						"encoding": "mapping",
						"key": "t_address",
						"label": "mapping(address => bool)",
						"numberOfBytes": "32",
						"value": "t_bool"
					},
					"t_mapping(t_string_memory_ptr,t_mapping(t_uint16,t_mapping(t_address,t_bool)))": {
						"encoding": "mapping",
						"key": "t_string_memory_ptr",
						"label": "mapping(string => mapping(uint16 => mapping(address => bool)))",
						"numberOfBytes": "32",
						"value": "t_mapping(t_uint16,t_mapping(t_address,t_bool))"
					},
					"t_mapping(t_uint16,t_mapping(t_address,t_bool))": {
						"encoding": "mapping",
						"key": "t_uint16",
						"label": "mapping(uint16 => mapping(address => bool))",
						"numberOfBytes": "32",
						"value": "t_mapping(t_address,t_bool)"
					},
					"t_mapping(t_uint256,t_address)": {
						"encoding": "mapping",
						"key": "t_uint256",
						"label": "mapping(uint256 => address)",
						"numberOfBytes": "32",
						"value": "t_address"
					},
					"t_string_memory_ptr": {
						"encoding": "bytes",
						"label": "string",
						"numberOfBytes": "32"
					},
					"t_uint16": {
						"encoding": "inplace",
						"label": "uint16",
						"numberOfBytes": "2"
					},
					"t_uint256": {
						"encoding": "inplace",
						"label": "uint256",
						"numberOfBytes": "32"
					}
				}
			},
			"userdoc": {
				"kind": "user",
				"methods": {
					"routerTemplateMap(address)": {
						"notice": "the TokenVault logic contract"
					},
					"routers(uint256)": {
						"notice": "the mapping of vault number to vault router contract"
					},
					"setting()": {
						"notice": "a setting contract controlled by governance"
					},
					"vaultRouterCount()": {
						"notice": "the number of ERC721 vaults router"
					}
				},
				"version": 1
			}
		}
	}
}