{
	"contracts/Vault.sol": {
		"Vault": {
			"abi": [
				{
					"inputs": [],
					"stateMutability": "nonpayable",
					"type": "constructor"
				},
				{
					"anonymous": false,
					"inputs": [
						{
							"indexed": false,
							"internalType": "address",
							"name": "redeemer",
							"type": "address"
						}
					],
					"name": "Redeem",
					"type": "event"
				},
				{
					"inputs": [],
					"name": "WETH",
					"outputs": [
						{
							"internalType": "address",
							"name": "",
							"type": "address"
						}
					],
					"stateMutability": "view",
					"type": "function"
				},
				{
					"inputs": [
						{
							"internalType": "address[]",
							"name": "nft",
							"type": "address[]"
						},
						{
							"internalType": "uint256[]",
							"name": "nftId",
							"type": "uint256[]"
						},
						{
							"internalType": "uint256[]",
							"name": "amount",
							"type": "uint256[]"
						},
						{
							"internalType": "address",
							"name": "sender",
							"type": "address"
						}
					],
					"name": "depositNFTAsset",
					"outputs": [],
					"stateMutability": "nonpayable",
					"type": "function"
				},
				{
					"inputs": [
						{
							"internalType": "uint256",
							"name": "",
							"type": "uint256"
						}
					],
					"name": "freedomNFTInNFTSIndex",
					"outputs": [
						{
							"internalType": "uint256",
							"name": "",
							"type": "uint256"
						}
					],
					"stateMutability": "view",
					"type": "function"
				},
				{
					"inputs": [],
					"name": "getDivision",
					"outputs": [
						{
							"internalType": "address",
							"name": "",
							"type": "address"
						}
					],
					"stateMutability": "view",
					"type": "function"
				},
				{
					"inputs": [],
					"name": "getEntireVaultActivity",
					"outputs": [
						{
							"internalType": "string",
							"name": "",
							"type": "string"
						}
					],
					"stateMutability": "view",
					"type": "function"
				},
				{
					"inputs": [],
					"name": "getEntireVaultState",
					"outputs": [
						{
							"internalType": "enum State.NftState",
							"name": "",
							"type": "uint8"
						}
					],
					"stateMutability": "view",
					"type": "function"
				},
				{
					"inputs": [],
					"name": "getFreedomNFT",
					"outputs": [
						{
							"internalType": "uint256[]",
							"name": "",
							"type": "uint256[]"
						}
					],
					"stateMutability": "view",
					"type": "function"
				},
				{
					"inputs": [
						{
							"internalType": "address",
							"name": "nft",
							"type": "address"
						},
						{
							"internalType": "uint256",
							"name": "nftId",
							"type": "uint256"
						}
					],
					"name": "getNftActivity",
					"outputs": [
						{
							"internalType": "string",
							"name": "",
							"type": "string"
						}
					],
					"stateMutability": "view",
					"type": "function"
				},
				{
					"inputs": [
						{
							"internalType": "address",
							"name": "nft",
							"type": "address"
						},
						{
							"internalType": "uint256",
							"name": "nftId",
							"type": "uint256"
						}
					],
					"name": "getNftState",
					"outputs": [
						{
							"internalType": "enum State.NftState",
							"name": "",
							"type": "uint8"
						}
					],
					"stateMutability": "view",
					"type": "function"
				},
				{
					"inputs": [],
					"name": "initialize",
					"outputs": [],
					"stateMutability": "nonpayable",
					"type": "function"
				},
				{
					"inputs": [],
					"name": "initializer",
					"outputs": [
						{
							"internalType": "bool",
							"name": "",
							"type": "bool"
						}
					],
					"stateMutability": "view",
					"type": "function"
				},
				{
					"inputs": [
						{
							"internalType": "address",
							"name": "",
							"type": "address"
						},
						{
							"internalType": "uint256",
							"name": "",
							"type": "uint256"
						}
					],
					"name": "nftIndex",
					"outputs": [
						{
							"internalType": "uint256",
							"name": "",
							"type": "uint256"
						}
					],
					"stateMutability": "view",
					"type": "function"
				},
				{
					"inputs": [
						{
							"internalType": "uint256",
							"name": "",
							"type": "uint256"
						}
					],
					"name": "nfts",
					"outputs": [
						{
							"internalType": "address",
							"name": "nft",
							"type": "address"
						},
						{
							"internalType": "uint256",
							"name": "nftId",
							"type": "uint256"
						},
						{
							"internalType": "uint256",
							"name": "amount",
							"type": "uint256"
						},
						{
							"internalType": "enum State.NftType",
							"name": "mold",
							"type": "uint8"
						},
						{
							"internalType": "enum State.NftState",
							"name": "state",
							"type": "uint8"
						},
						{
							"internalType": "string",
							"name": "activity",
							"type": "string"
						}
					],
					"stateMutability": "view",
					"type": "function"
				},
				{
					"inputs": [],
					"name": "noncallable",
					"outputs": [],
					"stateMutability": "nonpayable",
					"type": "function"
				},
				{
					"inputs": [
						{
							"internalType": "address",
							"name": "",
							"type": "address"
						},
						{
							"internalType": "address",
							"name": "",
							"type": "address"
						},
						{
							"internalType": "uint256[]",
							"name": "",
							"type": "uint256[]"
						},
						{
							"internalType": "uint256[]",
							"name": "",
							"type": "uint256[]"
						},
						{
							"internalType": "bytes",
							"name": "",
							"type": "bytes"
						}
					],
					"name": "onERC1155BatchReceived",
					"outputs": [
						{
							"internalType": "bytes4",
							"name": "",
							"type": "bytes4"
						}
					],
					"stateMutability": "nonpayable",
					"type": "function"
				},
				{
					"inputs": [
						{
							"internalType": "address",
							"name": "",
							"type": "address"
						},
						{
							"internalType": "address",
							"name": "",
							"type": "address"
						},
						{
							"internalType": "uint256",
							"name": "",
							"type": "uint256"
						},
						{
							"internalType": "uint256",
							"name": "",
							"type": "uint256"
						},
						{
							"internalType": "bytes",
							"name": "",
							"type": "bytes"
						}
					],
					"name": "onERC1155Received",
					"outputs": [
						{
							"internalType": "bytes4",
							"name": "",
							"type": "bytes4"
						}
					],
					"stateMutability": "nonpayable",
					"type": "function"
				},
				{
					"inputs": [
						{
							"internalType": "address",
							"name": "",
							"type": "address"
						},
						{
							"internalType": "address",
							"name": "",
							"type": "address"
						},
						{
							"internalType": "uint256",
							"name": "",
							"type": "uint256"
						},
						{
							"internalType": "bytes",
							"name": "",
							"type": "bytes"
						}
					],
					"name": "onERC721Received",
					"outputs": [
						{
							"internalType": "bytes4",
							"name": "",
							"type": "bytes4"
						}
					],
					"stateMutability": "nonpayable",
					"type": "function"
				},
				{
					"inputs": [],
					"name": "redeem",
					"outputs": [],
					"stateMutability": "nonpayable",
					"type": "function"
				},
				{
					"inputs": [],
					"name": "redeemable",
					"outputs": [
						{
							"internalType": "bool",
							"name": "",
							"type": "bool"
						}
					],
					"stateMutability": "view",
					"type": "function"
				},
				{
					"inputs": [],
					"name": "routerContract",
					"outputs": [
						{
							"internalType": "contract IRouterData",
							"name": "",
							"type": "address"
						}
					],
					"stateMutability": "view",
					"type": "function"
				},
				{
					"inputs": [
						{
							"internalType": "address",
							"name": "nft",
							"type": "address"
						},
						{
							"internalType": "uint256",
							"name": "nftId",
							"type": "uint256"
						},
						{
							"internalType": "enum State.NftState",
							"name": "newState",
							"type": "uint8"
						},
						{
							"internalType": "string",
							"name": "activity",
							"type": "string"
						}
					],
					"name": "safeSetState",
					"outputs": [],
					"stateMutability": "nonpayable",
					"type": "function"
				},
				{
					"inputs": [
						{
							"internalType": "address",
							"name": "token",
							"type": "address"
						},
						{
							"internalType": "address",
							"name": "to",
							"type": "address"
						},
						{
							"internalType": "uint256",
							"name": "amount",
							"type": "uint256"
						}
					],
					"name": "sendERC20",
					"outputs": [],
					"stateMutability": "nonpayable",
					"type": "function"
				},
				{
					"inputs": [
						{
							"internalType": "address payable",
							"name": "who",
							"type": "address"
						},
						{
							"internalType": "uint256",
							"name": "amount",
							"type": "uint256"
						}
					],
					"name": "sendETH",
					"outputs": [],
					"stateMutability": "nonpayable",
					"type": "function"
				},
				{
					"inputs": [
						{
							"internalType": "address[]",
							"name": "nft",
							"type": "address[]"
						},
						{
							"internalType": "uint256[]",
							"name": "nftId",
							"type": "uint256[]"
						},
						{
							"internalType": "address",
							"name": "to",
							"type": "address"
						}
					],
					"name": "sendNFTAsset",
					"outputs": [],
					"stateMutability": "nonpayable",
					"type": "function"
				},
				{
					"inputs": [
						{
							"internalType": "uint256[]",
							"name": "index",
							"type": "uint256[]"
						},
						{
							"internalType": "address",
							"name": "to",
							"type": "address"
						}
					],
					"name": "sendNFTAssetIndex",
					"outputs": [],
					"stateMutability": "nonpayable",
					"type": "function"
				},
				{
					"inputs": [
						{
							"internalType": "address",
							"name": "who",
							"type": "address"
						},
						{
							"internalType": "uint256",
							"name": "amount",
							"type": "uint256"
						}
					],
					"name": "sendWETH",
					"outputs": [],
					"stateMutability": "nonpayable",
					"type": "function"
				}
			],
			"devdoc": {
				"kind": "dev",
				"methods": {},
				"version": 1
			},
			"evm": {
				"assembly": "    /* \"contracts/Vault.sol\":509:12211  contract Vault {... */\n  mstore(0x40, 0x80)\n    /* \"contracts/Vault.sol\":1339:1363  constructor() {... */\n  callvalue\n  dup1\n  iszero\n  tag_1\n  jumpi\n  0x00\n  dup1\n  revert\ntag_1:\n  pop\n    /* \"contracts/Vault.sol\":509:12211  contract Vault {... */\n  dataSize(sub_0)\n  dup1\n  dataOffset(sub_0)\n  0x00\n  codecopy\n  0x00\n  return\nstop\n\nsub_0: assembly {\n        /* \"contracts/Vault.sol\":509:12211  contract Vault {... */\n      mstore(0x40, 0x80)\n      callvalue\n      dup1\n      iszero\n      tag_1\n      jumpi\n      0x00\n      dup1\n      revert\n    tag_1:\n      pop\n      jumpi(tag_2, lt(calldatasize, 0x04))\n      shr(0xe0, calldataload(0x00))\n      dup1\n      0x8f975a64\n      gt\n      tag_29\n      jumpi\n      dup1\n      0xbdf83f87\n      gt\n      tag_30\n      jumpi\n      dup1\n      0xd58bfa9d\n      gt\n      tag_31\n      jumpi\n      dup1\n      0xd58bfa9d\n      eq\n      tag_25\n      jumpi\n      dup1\n      0xe2019ab3\n      eq\n      tag_26\n      jumpi\n      dup1\n      0xe77ae39b\n      eq\n      tag_27\n      jumpi\n      dup1\n      0xf23a6e61\n      eq\n      tag_28\n      jumpi\n      jump(tag_2)\n    tag_31:\n      dup1\n      0xbdf83f87\n      eq\n      tag_22\n      jumpi\n      dup1\n      0xbe040fb0\n      eq\n      tag_23\n      jumpi\n      dup1\n      0xc2880715\n      eq\n      tag_24\n      jumpi\n      jump(tag_2)\n    tag_30:\n      dup1\n      0x8f975a64\n      eq\n      tag_16\n      jumpi\n      dup1\n      0x9ce110d7\n      eq\n      tag_17\n      jumpi\n      dup1\n      0xa82e02f0\n      eq\n      tag_18\n      jumpi\n      dup1\n      0xad5c4648\n      eq\n      tag_19\n      jumpi\n      dup1\n      0xaf9a82b2\n      eq\n      tag_20\n      jumpi\n      dup1\n      0xbc197c81\n      eq\n      tag_21\n      jumpi\n      jump(tag_2)\n    tag_29:\n      dup1\n      0x4f72d846\n      gt\n      tag_32\n      jumpi\n      dup1\n      0x5ccb53df\n      gt\n      tag_33\n      jumpi\n      dup1\n      0x5ccb53df\n      eq\n      tag_12\n      jumpi\n      dup1\n      0x634f6319\n      eq\n      tag_13\n      jumpi\n      dup1\n      0x64a197f3\n      eq\n      tag_14\n      jumpi\n      dup1\n      0x8129fc1c\n      eq\n      tag_15\n      jumpi\n      jump(tag_2)\n    tag_33:\n      dup1\n      0x4f72d846\n      eq\n      tag_9\n      jumpi\n      dup1\n      0x54f0970c\n      eq\n      tag_10\n      jumpi\n      dup1\n      0x5b093b13\n      eq\n      tag_11\n      jumpi\n      jump(tag_2)\n    tag_32:\n      dup1\n      0x94c5f3\n      eq\n      tag_3\n      jumpi\n      dup1\n      0x1370c6a9\n      eq\n      tag_4\n      jumpi\n      dup1\n      0x150b7a02\n      eq\n      tag_5\n      jumpi\n      dup1\n      0x265aa621\n      eq\n      tag_6\n      jumpi\n      dup1\n      0x2d1d53f7\n      eq\n      tag_7\n      jumpi\n      dup1\n      0x2d7ecd11\n      eq\n      tag_8\n      jumpi\n    tag_2:\n      0x00\n      dup1\n      revert\n        /* \"contracts/Vault.sol\":6481:6610  function sendNFTAssetIndex(uint256[] memory index,address to) external checkSender{... */\n    tag_3:\n      tag_34\n      0x04\n      dup1\n      calldatasize\n      sub\n      dup2\n      add\n      swap1\n      tag_35\n      swap2\n      swap1\n      tag_36\n      jump\t// in\n    tag_35:\n      tag_37\n      jump\t// in\n    tag_34:\n      stop\n        /* \"contracts/Vault.sol\":10558:10639  function noncallable()  external checkSender{... */\n    tag_4:\n      tag_38\n      tag_39\n      jump\t// in\n    tag_38:\n      stop\n        /* \"contracts/Vault.sol\":11671:11826  function onERC721Received(address, address, uint256, bytes memory) public virtual returns (bytes4) {... */\n    tag_5:\n      tag_40\n      0x04\n      dup1\n      calldatasize\n      sub\n      dup2\n      add\n      swap1\n      tag_41\n      swap2\n      swap1\n      tag_42\n      jump\t// in\n    tag_41:\n      tag_43\n      jump\t// in\n    tag_40:\n      mload(0x40)\n      tag_44\n      swap2\n      swap1\n      tag_45\n      jump\t// in\n    tag_44:\n      mload(0x40)\n      dup1\n      swap2\n      sub\n      swap1\n      return\n        /* \"contracts/Vault.sol\":1082:1099  NFT[] public nfts */\n    tag_6:\n      tag_46\n      0x04\n      dup1\n      calldatasize\n      sub\n      dup2\n      add\n      swap1\n      tag_47\n      swap2\n      swap1\n      tag_48\n      jump\t// in\n    tag_47:\n      tag_49\n      jump\t// in\n    tag_46:\n      mload(0x40)\n      tag_50\n      swap7\n      swap6\n      swap5\n      swap4\n      swap3\n      swap2\n      swap1\n      tag_51\n      jump\t// in\n    tag_50:\n      mload(0x40)\n      dup1\n      swap2\n      sub\n      swap1\n      return\n        /* \"contracts/Vault.sol\":1109:1147  uint256[] public freedomNFTInNFTSIndex */\n    tag_7:\n      tag_52\n      0x04\n      dup1\n      calldatasize\n      sub\n      dup2\n      add\n      swap1\n      tag_53\n      swap2\n      swap1\n      tag_48\n      jump\t// in\n    tag_53:\n      tag_54\n      jump\t// in\n    tag_52:\n      mload(0x40)\n      tag_55\n      swap2\n      swap1\n      tag_56\n      jump\t// in\n    tag_55:\n      mload(0x40)\n      dup1\n      swap2\n      sub\n      swap1\n      return\n        /* \"contracts/Vault.sol\":1231:1253  bool public redeemable */\n    tag_8:\n      tag_57\n      tag_58\n      jump\t// in\n    tag_57:\n      mload(0x40)\n      tag_59\n      swap2\n      swap1\n      tag_60\n      jump\t// in\n    tag_59:\n      mload(0x40)\n      dup1\n      swap2\n      sub\n      swap1\n      return\n        /* \"contracts/Vault.sol\":531:564  IRouterData public routerContract */\n    tag_9:\n      tag_61\n      tag_62\n      jump\t// in\n    tag_61:\n      mload(0x40)\n      tag_63\n      swap2\n      swap1\n      tag_64\n      jump\t// in\n    tag_63:\n      mload(0x40)\n      dup1\n      swap2\n      sub\n      swap1\n      return\n        /* \"contracts/Vault.sol\":11552:11655  function getDivision() public view returns(address) {... */\n    tag_10:\n      tag_65\n      tag_66\n      jump\t// in\n    tag_65:\n      mload(0x40)\n      tag_67\n      swap2\n      swap1\n      tag_68\n      jump\t// in\n    tag_67:\n      mload(0x40)\n      dup1\n      swap2\n      sub\n      swap1\n      return\n        /* \"contracts/Vault.sol\":11035:11288  function getNftActivity(address nft,uint256 nftId) public view returns(string memory){... */\n    tag_11:\n      tag_69\n      0x04\n      dup1\n      calldatasize\n      sub\n      dup2\n      add\n      swap1\n      tag_70\n      swap2\n      swap1\n      tag_71\n      jump\t// in\n    tag_70:\n      tag_72\n      jump\t// in\n    tag_69:\n      mload(0x40)\n      tag_73\n      swap2\n      swap1\n      tag_74\n      jump\t// in\n    tag_73:\n      mload(0x40)\n      dup1\n      swap2\n      sub\n      swap1\n      return\n        /* \"contracts/Vault.sol\":11296:11424  function getEntireVaultActivity() public view returns(string memory){ ... */\n    tag_12:\n      tag_75\n      tag_76\n      jump\t// in\n    tag_75:\n      mload(0x40)\n      tag_77\n      swap2\n      swap1\n      tag_74\n      jump\t// in\n    tag_77:\n      mload(0x40)\n      dup1\n      swap2\n      sub\n      swap1\n      return\n        /* \"contracts/Vault.sol\":11432:11542  function getFreedomNFT() public view returns(uint256[] memory) {... */\n    tag_13:\n      tag_78\n      tag_79\n      jump\t// in\n    tag_78:\n      mload(0x40)\n      tag_80\n      swap2\n      swap1\n      tag_81\n      jump\t// in\n    tag_80:\n      mload(0x40)\n      dup1\n      swap2\n      sub\n      swap1\n      return\n        /* \"contracts/Vault.sol\":2179:2374  function sendETH(address payable who,uint256 amount) external checkSender {... */\n    tag_14:\n      tag_82\n      0x04\n      dup1\n      calldatasize\n      sub\n      dup2\n      add\n      swap1\n      tag_83\n      swap2\n      swap1\n      tag_84\n      jump\t// in\n    tag_83:\n      tag_85\n      jump\t// in\n    tag_82:\n      stop\n        /* \"contracts/Vault.sol\":1371:1918  function initialize() external {... */\n    tag_15:\n      tag_86\n      tag_87\n      jump\t// in\n    tag_86:\n      stop\n        /* \"contracts/Vault.sol\":2382:2598  function sendERC20(address token,address to,uint256 amount) external checkSender {... */\n    tag_16:\n      tag_88\n      0x04\n      dup1\n      calldatasize\n      sub\n      dup2\n      add\n      swap1\n      tag_89\n      swap2\n      swap1\n      tag_90\n      jump\t// in\n    tag_89:\n      tag_91\n      jump\t// in\n    tag_88:\n      stop\n        /* \"contracts/Vault.sol\":1263:1286  bool public initializer */\n    tag_17:\n      tag_92\n      tag_93\n      jump\t// in\n    tag_92:\n      mload(0x40)\n      tag_94\n      swap2\n      swap1\n      tag_60\n      jump\t// in\n    tag_94:\n      mload(0x40)\n      dup1\n      swap2\n      sub\n      swap1\n      return\n        /* \"contracts/Vault.sol\":2606:2885  function sendWETH(address who, uint256 amount) external checkSender{... */\n    tag_18:\n      tag_95\n      0x04\n      dup1\n      calldatasize\n      sub\n      dup2\n      add\n      swap1\n      tag_96\n      swap2\n      swap1\n      tag_71\n      jump\t// in\n    tag_96:\n      tag_97\n      jump\t// in\n    tag_95:\n      stop\n        /* \"contracts/Vault.sol\":573:646  address public constant WETH = 0x6085A86303E362c2A7434a7EA270d60A125B183c */\n    tag_19:\n      tag_98\n      tag_99\n      jump\t// in\n    tag_98:\n      mload(0x40)\n      tag_100\n      swap2\n      swap1\n      tag_68\n      jump\t// in\n    tag_100:\n      mload(0x40)\n      dup1\n      swap2\n      sub\n      swap1\n      return\n        /* \"contracts/Vault.sol\":10648:10896  function getNftState(address nft,uint256 nftId) public view returns(State.NftState){... */\n    tag_20:\n      tag_101\n      0x04\n      dup1\n      calldatasize\n      sub\n      dup2\n      add\n      swap1\n      tag_102\n      swap2\n      swap1\n      tag_71\n      jump\t// in\n    tag_102:\n      tag_103\n      jump\t// in\n    tag_101:\n      mload(0x40)\n      tag_104\n      swap2\n      swap1\n      tag_105\n      jump\t// in\n    tag_104:\n      mload(0x40)\n      dup1\n      swap2\n      sub\n      swap1\n      return\n        /* \"contracts/Vault.sol\":12013:12208  function onERC1155BatchReceived(address, address, uint256[] memory, uint256[] memory, bytes memory) public virtual  returns (bytes4) {... */\n    tag_21:\n      tag_106\n      0x04\n      dup1\n      calldatasize\n      sub\n      dup2\n      add\n      swap1\n      tag_107\n      swap2\n      swap1\n      tag_108\n      jump\t// in\n    tag_107:\n      tag_109\n      jump\t// in\n    tag_106:\n      mload(0x40)\n      tag_110\n      swap2\n      swap1\n      tag_45\n      jump\t// in\n    tag_110:\n      mload(0x40)\n      dup1\n      swap2\n      sub\n      swap1\n      return\n        /* \"contracts/Vault.sol\":5863:6469  function sendNFTAsset(address[] memory nft,uint256[] memory nftId, address to ) external checkSender{... */\n    tag_22:\n      tag_111\n      0x04\n      dup1\n      calldatasize\n      sub\n      dup2\n      add\n      swap1\n      tag_112\n      swap2\n      swap1\n      tag_113\n      jump\t// in\n    tag_112:\n      tag_114\n      jump\t// in\n    tag_111:\n      stop\n        /* \"contracts/Vault.sol\":9602:10550  function redeem() external {... */\n    tag_23:\n      tag_115\n      tag_116\n      jump\t// in\n    tag_115:\n      stop\n        /* \"contracts/Vault.sol\":1157:1222  mapping (address => mapping (uint256 => uint256)) public nftIndex */\n    tag_24:\n      tag_117\n      0x04\n      dup1\n      calldatasize\n      sub\n      dup2\n      add\n      swap1\n      tag_118\n      swap2\n      swap1\n      tag_71\n      jump\t// in\n    tag_118:\n      tag_119\n      jump\t// in\n    tag_117:\n      mload(0x40)\n      tag_120\n      swap2\n      swap1\n      tag_56\n      jump\t// in\n    tag_120:\n      mload(0x40)\n      dup1\n      swap2\n      sub\n      swap1\n      return\n        /* \"contracts/Vault.sol\":10904:11027  function getEntireVaultState() public view returns(State.NftState) {... */\n    tag_25:\n      tag_121\n      tag_122\n      jump\t// in\n    tag_121:\n      mload(0x40)\n      tag_123\n      swap2\n      swap1\n      tag_105\n      jump\t// in\n    tag_123:\n      mload(0x40)\n      dup1\n      swap2\n      sub\n      swap1\n      return\n        /* \"contracts/Vault.sol\":2992:3186  function depositNFTAsset(address[] memory nft , uint256[] memory nftId , uint256[] memory amount, address sender) external checkSender{... */\n    tag_26:\n      tag_124\n      0x04\n      dup1\n      calldatasize\n      sub\n      dup2\n      add\n      swap1\n      tag_125\n      swap2\n      swap1\n      tag_126\n      jump\t// in\n    tag_125:\n      tag_127\n      jump\t// in\n    tag_124:\n      stop\n        /* \"contracts/Vault.sol\":7892:8447  function safeSetState(address nft,uint256 nftId, State.NftState newState,string memory activity) external checkSender {... */\n    tag_27:\n      tag_128\n      0x04\n      dup1\n      calldatasize\n      sub\n      dup2\n      add\n      swap1\n      tag_129\n      swap2\n      swap1\n      tag_130\n      jump\t// in\n    tag_129:\n      tag_131\n      jump\t// in\n    tag_128:\n      stop\n        /* \"contracts/Vault.sol\":11838:12005  function onERC1155Received(address, address, uint256, uint256, bytes memory) public virtual  returns (bytes4) {... */\n    tag_28:\n      tag_132\n      0x04\n      dup1\n      calldatasize\n      sub\n      dup2\n      add\n      swap1\n      tag_133\n      swap2\n      swap1\n      tag_134\n      jump\t// in\n    tag_133:\n      tag_135\n      jump\t// in\n    tag_132:\n      mload(0x40)\n      tag_136\n      swap2\n      swap1\n      tag_45\n      jump\t// in\n    tag_136:\n      mload(0x40)\n      dup1\n      swap2\n      sub\n      swap1\n      return\n        /* \"contracts/Vault.sol\":6481:6610  function sendNFTAssetIndex(uint256[] memory index,address to) external checkSender{... */\n    tag_37:\n        /* \"contracts/Vault.sol\":1972:1986  routerContract */\n      0x00\n      dup1\n      sload\n      swap1\n      0x0100\n      exp\n      swap1\n      div\n      0xffffffffffffffffffffffffffffffffffffffff\n      and\n        /* \"contracts/Vault.sol\":1972:1996  routerContract.whiteList */\n      0xffffffffffffffffffffffffffffffffffffffff\n      and\n      0x372c12b1\n        /* \"contracts/Vault.sol\":1997:2007  msg.sender */\n      caller\n        /* \"contracts/Vault.sol\":1972:2008  routerContract.whiteList(msg.sender) */\n      mload(0x40)\n      dup3\n      0xffffffff\n      and\n      0xe0\n      shl\n      dup2\n      mstore\n      0x04\n      add\n      tag_138\n      swap2\n      swap1\n      tag_68\n      jump\t// in\n    tag_138:\n      0x20\n      mload(0x40)\n      dup1\n      dup4\n      sub\n      dup2\n      dup7\n      gas\n      staticcall\n      iszero\n      dup1\n      iszero\n      tag_140\n      jumpi\n      returndatasize\n      0x00\n      dup1\n      returndatacopy\n      revert(0x00, returndatasize)\n    tag_140:\n      pop\n      pop\n      pop\n      pop\n      mload(0x40)\n      returndatasize\n      not(0x1f)\n      0x1f\n      dup3\n      add\n      and\n      dup3\n      add\n      dup1\n      0x40\n      mstore\n      pop\n      dup2\n      add\n      swap1\n      tag_141\n      swap2\n      swap1\n      tag_142\n      jump\t// in\n    tag_141:\n        /* \"contracts/Vault.sol\":1964:2044  require(routerContract.whiteList(msg.sender),\"whiteList :: Address check error\") */\n      tag_143\n      jumpi\n      mload(0x40)\n      0x08c379a000000000000000000000000000000000000000000000000000000000\n      dup2\n      mstore\n      0x04\n      add\n      tag_144\n      swap1\n      tag_145\n      jump\t// in\n    tag_144:\n      mload(0x40)\n      dup1\n      swap2\n      sub\n      swap1\n      revert\n    tag_143:\n        /* \"contracts/Vault.sol\":6574:6602  _sendNFTAssetIndex(index,to) */\n      tag_147\n        /* \"contracts/Vault.sol\":6593:6598  index */\n      dup3\n        /* \"contracts/Vault.sol\":6599:6601  to */\n      dup3\n        /* \"contracts/Vault.sol\":6574:6592  _sendNFTAssetIndex */\n      tag_148\n        /* \"contracts/Vault.sol\":6574:6602  _sendNFTAssetIndex(index,to) */\n      jump\t// in\n    tag_147:\n        /* \"contracts/Vault.sol\":6481:6610  function sendNFTAssetIndex(uint256[] memory index,address to) external checkSender{... */\n      pop\n      pop\n      jump\t// out\n        /* \"contracts/Vault.sol\":10558:10639  function noncallable()  external checkSender{... */\n    tag_39:\n        /* \"contracts/Vault.sol\":1972:1986  routerContract */\n      0x00\n      dup1\n      sload\n      swap1\n      0x0100\n      exp\n      swap1\n      div\n      0xffffffffffffffffffffffffffffffffffffffff\n      and\n        /* \"contracts/Vault.sol\":1972:1996  routerContract.whiteList */\n      0xffffffffffffffffffffffffffffffffffffffff\n      and\n      0x372c12b1\n        /* \"contracts/Vault.sol\":1997:2007  msg.sender */\n      caller\n        /* \"contracts/Vault.sol\":1972:2008  routerContract.whiteList(msg.sender) */\n      mload(0x40)\n      dup3\n      0xffffffff\n      and\n      0xe0\n      shl\n      dup2\n      mstore\n      0x04\n      add\n      tag_150\n      swap2\n      swap1\n      tag_68\n      jump\t// in\n    tag_150:\n      0x20\n      mload(0x40)\n      dup1\n      dup4\n      sub\n      dup2\n      dup7\n      gas\n      staticcall\n      iszero\n      dup1\n      iszero\n      tag_152\n      jumpi\n      returndatasize\n      0x00\n      dup1\n      returndatacopy\n      revert(0x00, returndatasize)\n    tag_152:\n      pop\n      pop\n      pop\n      pop\n      mload(0x40)\n      returndatasize\n      not(0x1f)\n      0x1f\n      dup3\n      add\n      and\n      dup3\n      add\n      dup1\n      0x40\n      mstore\n      pop\n      dup2\n      add\n      swap1\n      tag_153\n      swap2\n      swap1\n      tag_142\n      jump\t// in\n    tag_153:\n        /* \"contracts/Vault.sol\":1964:2044  require(routerContract.whiteList(msg.sender),\"whiteList :: Address check error\") */\n      tag_154\n      jumpi\n      mload(0x40)\n      0x08c379a000000000000000000000000000000000000000000000000000000000\n      dup2\n      mstore\n      0x04\n      add\n      tag_155\n      swap1\n      tag_145\n      jump\t// in\n    tag_155:\n      mload(0x40)\n      dup1\n      swap2\n      sub\n      swap1\n      revert\n    tag_154:\n        /* \"contracts/Vault.sol\":10626:10631  false */\n      0x00\n        /* \"contracts/Vault.sol\":10613:10623  redeemable */\n      0x04\n      0x00\n        /* \"contracts/Vault.sol\":10613:10631  redeemable = false */\n      0x0100\n      exp\n      dup2\n      sload\n      dup2\n      0xff\n      mul\n      not\n      and\n      swap1\n      dup4\n      iszero\n      iszero\n      mul\n      or\n      swap1\n      sstore\n      pop\n        /* \"contracts/Vault.sol\":10558:10639  function noncallable()  external checkSender{... */\n      jump\t// out\n        /* \"contracts/Vault.sol\":11671:11826  function onERC721Received(address, address, uint256, bytes memory) public virtual returns (bytes4) {... */\n    tag_43:\n        /* \"contracts/Vault.sol\":11762:11768  bytes4 */\n      0x00\n        /* \"contracts/Vault.sol\":11788:11818  this.onERC721Received.selector */\n      shl(0xe0, 0x150b7a02)\n        /* \"contracts/Vault.sol\":11781:11818  return this.onERC721Received.selector */\n      swap1\n      pop\n        /* \"contracts/Vault.sol\":11671:11826  function onERC721Received(address, address, uint256, bytes memory) public virtual returns (bytes4) {... */\n      swap5\n      swap4\n      pop\n      pop\n      pop\n      pop\n      jump\t// out\n        /* \"contracts/Vault.sol\":1082:1099  NFT[] public nfts */\n    tag_49:\n      0x01\n      dup2\n      dup2\n      sload\n      dup2\n      lt\n      tag_158\n      jumpi\n      0x00\n      dup1\n      revert\n    tag_158:\n      swap1\n      0x00\n      mstore\n      keccak256(0x00, 0x20)\n      swap1\n      0x05\n      mul\n      add\n      0x00\n      swap2\n      pop\n      swap1\n      pop\n      dup1\n      0x00\n      add\n      0x00\n      swap1\n      sload\n      swap1\n      0x0100\n      exp\n      swap1\n      div\n      0xffffffffffffffffffffffffffffffffffffffff\n      and\n      swap1\n      dup1\n      0x01\n      add\n      sload\n      swap1\n      dup1\n      0x02\n      add\n      sload\n      swap1\n      dup1\n      0x03\n      add\n      0x00\n      swap1\n      sload\n      swap1\n      0x0100\n      exp\n      swap1\n      div\n      0xff\n      and\n      swap1\n      dup1\n      0x03\n      add\n      0x01\n      swap1\n      sload\n      swap1\n      0x0100\n      exp\n      swap1\n      div\n      0xff\n      and\n      swap1\n      dup1\n      0x04\n      add\n      dup1\n      sload\n      tag_160\n      swap1\n      tag_161\n      jump\t// in\n    tag_160:\n      dup1\n      0x1f\n      add\n      0x20\n      dup1\n      swap2\n      div\n      mul\n      0x20\n      add\n      mload(0x40)\n      swap1\n      dup2\n      add\n      0x40\n      mstore\n      dup1\n      swap3\n      swap2\n      swap1\n      dup2\n      dup2\n      mstore\n      0x20\n      add\n      dup3\n      dup1\n      sload\n      tag_162\n      swap1\n      tag_161\n      jump\t// in\n    tag_162:\n      dup1\n      iszero\n      tag_163\n      jumpi\n      dup1\n      0x1f\n      lt\n      tag_164\n      jumpi\n      0x0100\n      dup1\n      dup4\n      sload\n      div\n      mul\n      dup4\n      mstore\n      swap2\n      0x20\n      add\n      swap2\n      jump(tag_163)\n    tag_164:\n      dup3\n      add\n      swap2\n      swap1\n      0x00\n      mstore\n      keccak256(0x00, 0x20)\n      swap1\n    tag_165:\n      dup2\n      sload\n      dup2\n      mstore\n      swap1\n      0x01\n      add\n      swap1\n      0x20\n      add\n      dup1\n      dup4\n      gt\n      tag_165\n      jumpi\n      dup3\n      swap1\n      sub\n      0x1f\n      and\n      dup3\n      add\n      swap2\n    tag_163:\n      pop\n      pop\n      pop\n      pop\n      pop\n      swap1\n      pop\n      dup7\n      jump\t// out\n        /* \"contracts/Vault.sol\":1109:1147  uint256[] public freedomNFTInNFTSIndex */\n    tag_54:\n      0x02\n      dup2\n      dup2\n      sload\n      dup2\n      lt\n      tag_166\n      jumpi\n      0x00\n      dup1\n      revert\n    tag_166:\n      swap1\n      0x00\n      mstore\n      keccak256(0x00, 0x20)\n      add\n      0x00\n      swap2\n      pop\n      swap1\n      pop\n      sload\n      dup2\n      jump\t// out\n        /* \"contracts/Vault.sol\":1231:1253  bool public redeemable */\n    tag_58:\n      0x04\n      0x00\n      swap1\n      sload\n      swap1\n      0x0100\n      exp\n      swap1\n      div\n      0xff\n      and\n      dup2\n      jump\t// out\n        /* \"contracts/Vault.sol\":531:564  IRouterData public routerContract */\n    tag_62:\n      0x00\n      dup1\n      sload\n      swap1\n      0x0100\n      exp\n      swap1\n      div\n      0xffffffffffffffffffffffffffffffffffffffff\n      and\n      dup2\n      jump\t// out\n        /* \"contracts/Vault.sol\":11552:11655  function getDivision() public view returns(address) {... */\n    tag_66:\n        /* \"contracts/Vault.sol\":11595:11602  address */\n      0x00\n        /* \"contracts/Vault.sol\":11622:11636  routerContract */\n      dup1\n      0x00\n      swap1\n      sload\n      swap1\n      0x0100\n      exp\n      swap1\n      div\n      0xffffffffffffffffffffffffffffffffffffffff\n      and\n        /* \"contracts/Vault.sol\":11622:11645  routerContract.division */\n      0xffffffffffffffffffffffffffffffffffffffff\n      and\n      0x3205f5fc\n        /* \"contracts/Vault.sol\":11622:11647  routerContract.division() */\n      mload(0x40)\n      dup2\n      0xffffffff\n      and\n      0xe0\n      shl\n      dup2\n      mstore\n      0x04\n      add\n      0x20\n      mload(0x40)\n      dup1\n      dup4\n      sub\n      dup2\n      dup7\n      gas\n      staticcall\n      iszero\n      dup1\n      iszero\n      tag_170\n      jumpi\n      returndatasize\n      0x00\n      dup1\n      returndatacopy\n      revert(0x00, returndatasize)\n    tag_170:\n      pop\n      pop\n      pop\n      pop\n      mload(0x40)\n      returndatasize\n      not(0x1f)\n      0x1f\n      dup3\n      add\n      and\n      dup3\n      add\n      dup1\n      0x40\n      mstore\n      pop\n      dup2\n      add\n      swap1\n      tag_171\n      swap2\n      swap1\n      tag_172\n      jump\t// in\n    tag_171:\n        /* \"contracts/Vault.sol\":11615:11647  return routerContract.division() */\n      swap1\n      pop\n        /* \"contracts/Vault.sol\":11552:11655  function getDivision() public view returns(address) {... */\n      swap1\n      jump\t// out\n        /* \"contracts/Vault.sol\":11035:11288  function getNftActivity(address nft,uint256 nftId) public view returns(string memory){... */\n    tag_72:\n        /* \"contracts/Vault.sol\":11106:11119  string memory */\n      0x60\n        /* \"contracts/Vault.sol\":11131:11145  uint256 _index */\n      0x00\n        /* \"contracts/Vault.sol\":11148:11156  nftIndex */\n      0x03\n        /* \"contracts/Vault.sol\":11148:11161  nftIndex[nft] */\n      0x00\n        /* \"contracts/Vault.sol\":11157:11160  nft */\n      dup6\n        /* \"contracts/Vault.sol\":11148:11161  nftIndex[nft] */\n      0xffffffffffffffffffffffffffffffffffffffff\n      and\n      0xffffffffffffffffffffffffffffffffffffffff\n      and\n      dup2\n      mstore\n      0x20\n      add\n      swap1\n      dup2\n      mstore\n      0x20\n      add\n      0x00\n      keccak256\n        /* \"contracts/Vault.sol\":11148:11168  nftIndex[nft][nftId] */\n      0x00\n        /* \"contracts/Vault.sol\":11162:11167  nftId */\n      dup5\n        /* \"contracts/Vault.sol\":11148:11168  nftIndex[nft][nftId] */\n      dup2\n      mstore\n      0x20\n      add\n      swap1\n      dup2\n      mstore\n      0x20\n      add\n      0x00\n      keccak256\n      sload\n        /* \"contracts/Vault.sol\":11131:11168  uint256 _index = nftIndex[nft][nftId] */\n      swap1\n      pop\n        /* \"contracts/Vault.sol\":887:888  0 */\n      0x00\n        /* \"contracts/Vault.sol\":11187:11210  _index != NFT_NOT_EXIST */\n      0xff\n      and\n        /* \"contracts/Vault.sol\":11187:11193  _index */\n      dup2\n        /* \"contracts/Vault.sol\":11187:11210  _index != NFT_NOT_EXIST */\n      eq\n      iszero\n        /* \"contracts/Vault.sol\":11179:11241  require(_index != NFT_NOT_EXIST,\"Vault :: NFT does not exist\") */\n      tag_174\n      jumpi\n      mload(0x40)\n      0x08c379a000000000000000000000000000000000000000000000000000000000\n      dup2\n      mstore\n      0x04\n      add\n      tag_175\n      swap1\n      tag_176\n      jump\t// in\n    tag_175:\n      mload(0x40)\n      dup1\n      swap2\n      sub\n      swap1\n      revert\n    tag_174:\n        /* \"contracts/Vault.sol\":11259:11263  nfts */\n      0x01\n        /* \"contracts/Vault.sol\":11264:11270  _index */\n      dup2\n        /* \"contracts/Vault.sol\":11259:11271  nfts[_index] */\n      dup2\n      sload\n      dup2\n      lt\n      tag_177\n      jumpi\n      tag_178\n      tag_179\n      jump\t// in\n    tag_178:\n    tag_177:\n      swap1\n      0x00\n      mstore\n      keccak256(0x00, 0x20)\n      swap1\n      0x05\n      mul\n      add\n        /* \"contracts/Vault.sol\":11259:11280  nfts[_index].activity */\n      0x04\n      add\n        /* \"contracts/Vault.sol\":11252:11280  return nfts[_index].activity */\n      dup1\n      sload\n      tag_181\n      swap1\n      tag_161\n      jump\t// in\n    tag_181:\n      dup1\n      0x1f\n      add\n      0x20\n      dup1\n      swap2\n      div\n      mul\n      0x20\n      add\n      mload(0x40)\n      swap1\n      dup2\n      add\n      0x40\n      mstore\n      dup1\n      swap3\n      swap2\n      swap1\n      dup2\n      dup2\n      mstore\n      0x20\n      add\n      dup3\n      dup1\n      sload\n      tag_182\n      swap1\n      tag_161\n      jump\t// in\n    tag_182:\n      dup1\n      iszero\n      tag_183\n      jumpi\n      dup1\n      0x1f\n      lt\n      tag_184\n      jumpi\n      0x0100\n      dup1\n      dup4\n      sload\n      div\n      mul\n      dup4\n      mstore\n      swap2\n      0x20\n      add\n      swap2\n      jump(tag_183)\n    tag_184:\n      dup3\n      add\n      swap2\n      swap1\n      0x00\n      mstore\n      keccak256(0x00, 0x20)\n      swap1\n    tag_185:\n      dup2\n      sload\n      dup2\n      mstore\n      swap1\n      0x01\n      add\n      swap1\n      0x20\n      add\n      dup1\n      dup4\n      gt\n      tag_185\n      jumpi\n      dup3\n      swap1\n      sub\n      0x1f\n      and\n      dup3\n      add\n      swap2\n    tag_183:\n      pop\n      pop\n      pop\n      pop\n      pop\n      swap2\n      pop\n      pop\n        /* \"contracts/Vault.sol\":11035:11288  function getNftActivity(address nft,uint256 nftId) public view returns(string memory){... */\n      swap3\n      swap2\n      pop\n      pop\n      jump\t// out\n        /* \"contracts/Vault.sol\":11296:11424  function getEntireVaultActivity() public view returns(string memory){ ... */\n    tag_76:\n        /* \"contracts/Vault.sol\":11350:11363  string memory */\n      0x60\n        /* \"contracts/Vault.sol\":11383:11387  nfts */\n      0x01\n        /* \"contracts/Vault.sol\":836:837  0 */\n      0x00\n        /* \"contracts/Vault.sol\":11383:11407  nfts[ENTIRE_VAULT_INDEX] */\n      0xff\n      and\n      dup2\n      sload\n      dup2\n      lt\n      tag_187\n      jumpi\n      tag_188\n      tag_179\n      jump\t// in\n    tag_188:\n    tag_187:\n      swap1\n      0x00\n      mstore\n      keccak256(0x00, 0x20)\n      swap1\n      0x05\n      mul\n      add\n        /* \"contracts/Vault.sol\":11383:11416  nfts[ENTIRE_VAULT_INDEX].activity */\n      0x04\n      add\n        /* \"contracts/Vault.sol\":11376:11416  return nfts[ENTIRE_VAULT_INDEX].activity */\n      dup1\n      sload\n      tag_190\n      swap1\n      tag_161\n      jump\t// in\n    tag_190:\n      dup1\n      0x1f\n      add\n      0x20\n      dup1\n      swap2\n      div\n      mul\n      0x20\n      add\n      mload(0x40)\n      swap1\n      dup2\n      add\n      0x40\n      mstore\n      dup1\n      swap3\n      swap2\n      swap1\n      dup2\n      dup2\n      mstore\n      0x20\n      add\n      dup3\n      dup1\n      sload\n      tag_191\n      swap1\n      tag_161\n      jump\t// in\n    tag_191:\n      dup1\n      iszero\n      tag_192\n      jumpi\n      dup1\n      0x1f\n      lt\n      tag_193\n      jumpi\n      0x0100\n      dup1\n      dup4\n      sload\n      div\n      mul\n      dup4\n      mstore\n      swap2\n      0x20\n      add\n      swap2\n      jump(tag_192)\n    tag_193:\n      dup3\n      add\n      swap2\n      swap1\n      0x00\n      mstore\n      keccak256(0x00, 0x20)\n      swap1\n    tag_194:\n      dup2\n      sload\n      dup2\n      mstore\n      swap1\n      0x01\n      add\n      swap1\n      0x20\n      add\n      dup1\n      dup4\n      gt\n      tag_194\n      jumpi\n      dup3\n      swap1\n      sub\n      0x1f\n      and\n      dup3\n      add\n      swap2\n    tag_192:\n      pop\n      pop\n      pop\n      pop\n      pop\n      swap1\n      pop\n        /* \"contracts/Vault.sol\":11296:11424  function getEntireVaultActivity() public view returns(string memory){ ... */\n      swap1\n      jump\t// out\n        /* \"contracts/Vault.sol\":11432:11542  function getFreedomNFT() public view returns(uint256[] memory) {... */\n    tag_79:\n        /* \"contracts/Vault.sol\":11477:11493  uint256[] memory */\n      0x60\n        /* \"contracts/Vault.sol\":11513:11534  freedomNFTInNFTSIndex */\n      0x02\n        /* \"contracts/Vault.sol\":11506:11534  return freedomNFTInNFTSIndex */\n      dup1\n      sload\n      dup1\n      0x20\n      mul\n      0x20\n      add\n      mload(0x40)\n      swap1\n      dup2\n      add\n      0x40\n      mstore\n      dup1\n      swap3\n      swap2\n      swap1\n      dup2\n      dup2\n      mstore\n      0x20\n      add\n      dup3\n      dup1\n      sload\n      dup1\n      iszero\n      tag_196\n      jumpi\n      0x20\n      mul\n      dup3\n      add\n      swap2\n      swap1\n      0x00\n      mstore\n      keccak256(0x00, 0x20)\n      swap1\n    tag_197:\n      dup2\n      sload\n      dup2\n      mstore\n      0x20\n      add\n      swap1\n      0x01\n      add\n      swap1\n      dup1\n      dup4\n      gt\n      tag_197\n      jumpi\n    tag_196:\n      pop\n      pop\n      pop\n      pop\n      pop\n      swap1\n      pop\n        /* \"contracts/Vault.sol\":11432:11542  function getFreedomNFT() public view returns(uint256[] memory) {... */\n      swap1\n      jump\t// out\n        /* \"contracts/Vault.sol\":2179:2374  function sendETH(address payable who,uint256 amount) external checkSender {... */\n    tag_85:\n        /* \"contracts/Vault.sol\":1972:1986  routerContract */\n      0x00\n      dup1\n      sload\n      swap1\n      0x0100\n      exp\n      swap1\n      div\n      0xffffffffffffffffffffffffffffffffffffffff\n      and\n        /* \"contracts/Vault.sol\":1972:1996  routerContract.whiteList */\n      0xffffffffffffffffffffffffffffffffffffffff\n      and\n      0x372c12b1\n        /* \"contracts/Vault.sol\":1997:2007  msg.sender */\n      caller\n        /* \"contracts/Vault.sol\":1972:2008  routerContract.whiteList(msg.sender) */\n      mload(0x40)\n      dup3\n      0xffffffff\n      and\n      0xe0\n      shl\n      dup2\n      mstore\n      0x04\n      add\n      tag_199\n      swap2\n      swap1\n      tag_68\n      jump\t// in\n    tag_199:\n      0x20\n      mload(0x40)\n      dup1\n      dup4\n      sub\n      dup2\n      dup7\n      gas\n      staticcall\n      iszero\n      dup1\n      iszero\n      tag_201\n      jumpi\n      returndatasize\n      0x00\n      dup1\n      returndatacopy\n      revert(0x00, returndatasize)\n    tag_201:\n      pop\n      pop\n      pop\n      pop\n      mload(0x40)\n      returndatasize\n      not(0x1f)\n      0x1f\n      dup3\n      add\n      and\n      dup3\n      add\n      dup1\n      0x40\n      mstore\n      pop\n      dup2\n      add\n      swap1\n      tag_202\n      swap2\n      swap1\n      tag_142\n      jump\t// in\n    tag_202:\n        /* \"contracts/Vault.sol\":1964:2044  require(routerContract.whiteList(msg.sender),\"whiteList :: Address check error\") */\n      tag_203\n      jumpi\n      mload(0x40)\n      0x08c379a000000000000000000000000000000000000000000000000000000000\n      dup2\n      mstore\n      0x04\n      add\n      tag_204\n      swap1\n      tag_145\n      jump\t// in\n    tag_204:\n      mload(0x40)\n      dup1\n      swap2\n      sub\n      swap1\n      revert\n    tag_203:\n        /* \"contracts/Vault.sol\":2287:2288  0 */\n      0x00\n        /* \"contracts/Vault.sol\":2272:2289  who != address(0) */\n      0xffffffffffffffffffffffffffffffffffffffff\n      and\n        /* \"contracts/Vault.sol\":2272:2275  who */\n      dup3\n        /* \"contracts/Vault.sol\":2272:2289  who != address(0) */\n      0xffffffffffffffffffffffffffffffffffffffff\n      and\n      eq\n      iszero\n        /* \"contracts/Vault.sol\":2264:2335  require(who != address(0),\"sendETH :: Cannot transfer to zero address\") */\n      tag_206\n      jumpi\n      mload(0x40)\n      0x08c379a000000000000000000000000000000000000000000000000000000000\n      dup2\n      mstore\n      0x04\n      add\n      tag_207\n      swap1\n      tag_208\n      jump\t// in\n    tag_207:\n      mload(0x40)\n      dup1\n      swap2\n      sub\n      swap1\n      revert\n    tag_206:\n        /* \"contracts/Vault.sol\":2346:2349  who */\n      dup2\n        /* \"contracts/Vault.sol\":2346:2358  who.transfer */\n      0xffffffffffffffffffffffffffffffffffffffff\n      and\n        /* \"contracts/Vault.sol\":2346:2366  who.transfer(amount) */\n      0x08fc\n        /* \"contracts/Vault.sol\":2359:2365  amount */\n      dup3\n        /* \"contracts/Vault.sol\":2346:2366  who.transfer(amount) */\n      swap1\n      dup2\n      iszero\n      mul\n      swap1\n      mload(0x40)\n      0x00\n      mload(0x40)\n      dup1\n      dup4\n      sub\n      dup2\n      dup6\n      dup9\n      dup9\n      call\n      swap4\n      pop\n      pop\n      pop\n      pop\n      iszero\n      dup1\n      iszero\n      tag_210\n      jumpi\n      returndatasize\n      0x00\n      dup1\n      returndatacopy\n      revert(0x00, returndatasize)\n    tag_210:\n      pop\n        /* \"contracts/Vault.sol\":2179:2374  function sendETH(address payable who,uint256 amount) external checkSender {... */\n      pop\n      pop\n      jump\t// out\n        /* \"contracts/Vault.sol\":1371:1918  function initialize() external {... */\n    tag_87:\n        /* \"contracts/Vault.sol\":1422:1433  initializer */\n      0x04\n      0x01\n      swap1\n      sload\n      swap1\n      0x0100\n      exp\n      swap1\n      div\n      0xff\n      and\n        /* \"contracts/Vault.sol\":1421:1433  !initializer */\n      iszero\n        /* \"contracts/Vault.sol\":1413:1470  require(!initializer,\"initialize :: Already initialized\") */\n      tag_212\n      jumpi\n      mload(0x40)\n      0x08c379a000000000000000000000000000000000000000000000000000000000\n      dup2\n      mstore\n      0x04\n      add\n      tag_213\n      swap1\n      tag_214\n      jump\t// in\n    tag_213:\n      mload(0x40)\n      dup1\n      swap2\n      sub\n      swap1\n      revert\n    tag_212:\n        /* \"contracts/Vault.sol\":1496:1507  initializer */\n      0x04\n      0x01\n      swap1\n      sload\n      swap1\n      0x0100\n      exp\n      swap1\n      div\n      0xff\n      and\n        /* \"contracts/Vault.sol\":1495:1507  !initializer */\n      iszero\n        /* \"contracts/Vault.sol\":1481:1492  initializer */\n      0x04\n      0x01\n        /* \"contracts/Vault.sol\":1481:1507  initializer = !initializer */\n      0x0100\n      exp\n      dup2\n      sload\n      dup2\n      0xff\n      mul\n      not\n      and\n      swap1\n      dup4\n      iszero\n      iszero\n      mul\n      or\n      swap1\n      sstore\n      pop\n        /* \"contracts/Vault.sol\":1549:1559  msg.sender */\n      caller\n        /* \"contracts/Vault.sol\":1520:1534  routerContract */\n      0x00\n      dup1\n        /* \"contracts/Vault.sol\":1520:1560  routerContract = IRouterData(msg.sender) */\n      0x0100\n      exp\n      dup2\n      sload\n      dup2\n      0xffffffffffffffffffffffffffffffffffffffff\n      mul\n      not\n      and\n      swap1\n      dup4\n      0xffffffffffffffffffffffffffffffffffffffff\n      and\n      mul\n      or\n      swap1\n      sstore\n      pop\n        /* \"contracts/Vault.sol\":1584:1588  true */\n      0x01\n        /* \"contracts/Vault.sol\":1571:1581  redeemable */\n      0x04\n      0x00\n        /* \"contracts/Vault.sol\":1571:1588  redeemable = true */\n      0x0100\n      exp\n      dup2\n      sload\n      dup2\n      0xff\n      mul\n      not\n      and\n      swap1\n      dup4\n      iszero\n      iszero\n      mul\n      or\n      swap1\n      sstore\n      pop\n        /* \"contracts/Vault.sol\":1647:1651  nfts */\n      0x01\n        /* \"contracts/Vault.sol\":1657:1909  NFT({... */\n      mload(0x40)\n      dup1\n      0xc0\n      add\n      0x40\n      mstore\n      dup1\n        /* \"contracts/Vault.sol\":1699:1700  0 */\n      0x00\n        /* \"contracts/Vault.sol\":1657:1909  NFT({... */\n      0xffffffffffffffffffffffffffffffffffffffff\n      and\n      dup2\n      mstore\n      0x20\n      add\n        /* \"contracts/Vault.sol\":1731:1732  0 */\n      0x00\n        /* \"contracts/Vault.sol\":1657:1909  NFT({... */\n      dup2\n      mstore\n      0x20\n      add\n        /* \"contracts/Vault.sol\":1762:1763  0 */\n      0x00\n        /* \"contracts/Vault.sol\":1657:1909  NFT({... */\n      dup2\n      mstore\n      0x20\n      add\n        /* \"contracts/Vault.sol\":1793:1810  State.NftType.All */\n      0x02\n        /* \"contracts/Vault.sol\":1657:1909  NFT({... */\n      dup1\n      dup2\n      gt\n      iszero\n      tag_215\n      jumpi\n      tag_216\n      tag_217\n      jump\t// in\n    tag_216:\n    tag_215:\n      dup2\n      mstore\n      0x20\n      add\n        /* \"contracts/Vault.sol\":1840:1862  State.NftState.freedom */\n      0x00\n        /* \"contracts/Vault.sol\":1657:1909  NFT({... */\n      0x02\n      dup2\n      gt\n      iszero\n      tag_218\n      jumpi\n      tag_219\n      tag_217\n      jump\t// in\n    tag_219:\n    tag_218:\n      dup2\n      mstore\n      0x20\n      add\n      mload(0x40)\n      dup1\n      0x40\n      add\n      0x40\n      mstore\n      dup1\n      0x04\n      dup2\n      mstore\n      0x20\n      add\n      0x6e6f6e6500000000000000000000000000000000000000000000000000000000\n      dup2\n      mstore\n      pop\n      dup2\n      mstore\n      pop\n        /* \"contracts/Vault.sol\":1647:1910  nfts.push(NFT({... */\n      swap1\n      dup1\n      0x01\n      dup2\n      sload\n      add\n      dup1\n      dup3\n      sstore\n      dup1\n      swap2\n      pop\n      pop\n      0x01\n      swap1\n      sub\n      swap1\n      0x00\n      mstore\n      keccak256(0x00, 0x20)\n      swap1\n      0x05\n      mul\n      add\n      0x00\n      swap1\n      swap2\n      swap1\n      swap2\n      swap1\n      swap2\n      pop\n      0x00\n      dup3\n      add\n      mload\n      dup2\n      0x00\n      add\n      exp(0x0100, 0x00)\n      dup2\n      sload\n      dup2\n      0xffffffffffffffffffffffffffffffffffffffff\n      mul\n      not\n      and\n      swap1\n      dup4\n      0xffffffffffffffffffffffffffffffffffffffff\n      and\n      mul\n      or\n      swap1\n      sstore\n      pop\n      0x20\n      dup3\n      add\n      mload\n      dup2\n      0x01\n      add\n      sstore\n      0x40\n      dup3\n      add\n      mload\n      dup2\n      0x02\n      add\n      sstore\n      0x60\n      dup3\n      add\n      mload\n      dup2\n      0x03\n      add\n      exp(0x0100, 0x00)\n      dup2\n      sload\n      dup2\n      0xff\n      mul\n      not\n      and\n      swap1\n      dup4\n      0x02\n      dup2\n      gt\n      iszero\n      tag_221\n      jumpi\n      tag_222\n      tag_217\n      jump\t// in\n    tag_222:\n    tag_221:\n      mul\n      or\n      swap1\n      sstore\n      pop\n      0x80\n      dup3\n      add\n      mload\n      dup2\n      0x03\n      add\n      exp(0x0100, 0x01)\n      dup2\n      sload\n      dup2\n      0xff\n      mul\n      not\n      and\n      swap1\n      dup4\n      0x02\n      dup2\n      gt\n      iszero\n      tag_223\n      jumpi\n      tag_224\n      tag_217\n      jump\t// in\n    tag_224:\n    tag_223:\n      mul\n      or\n      swap1\n      sstore\n      pop\n      0xa0\n      dup3\n      add\n      mload\n      dup2\n      0x04\n      add\n      swap1\n      dup1\n      mload\n      swap1\n      0x20\n      add\n      swap1\n      tag_225\n      swap3\n      swap2\n      swap1\n      tag_226\n      jump\t// in\n    tag_225:\n      pop\n      pop\n      pop\n        /* \"contracts/Vault.sol\":1371:1918  function initialize() external {... */\n      jump\t// out\n        /* \"contracts/Vault.sol\":2382:2598  function sendERC20(address token,address to,uint256 amount) external checkSender {... */\n    tag_91:\n        /* \"contracts/Vault.sol\":1972:1986  routerContract */\n      0x00\n      dup1\n      sload\n      swap1\n      0x0100\n      exp\n      swap1\n      div\n      0xffffffffffffffffffffffffffffffffffffffff\n      and\n        /* \"contracts/Vault.sol\":1972:1996  routerContract.whiteList */\n      0xffffffffffffffffffffffffffffffffffffffff\n      and\n      0x372c12b1\n        /* \"contracts/Vault.sol\":1997:2007  msg.sender */\n      caller\n        /* \"contracts/Vault.sol\":1972:2008  routerContract.whiteList(msg.sender) */\n      mload(0x40)\n      dup3\n      0xffffffff\n      and\n      0xe0\n      shl\n      dup2\n      mstore\n      0x04\n      add\n      tag_228\n      swap2\n      swap1\n      tag_68\n      jump\t// in\n    tag_228:\n      0x20\n      mload(0x40)\n      dup1\n      dup4\n      sub\n      dup2\n      dup7\n      gas\n      staticcall\n      iszero\n      dup1\n      iszero\n      tag_230\n      jumpi\n      returndatasize\n      0x00\n      dup1\n      returndatacopy\n      revert(0x00, returndatasize)\n    tag_230:\n      pop\n      pop\n      pop\n      pop\n      mload(0x40)\n      returndatasize\n      not(0x1f)\n      0x1f\n      dup3\n      add\n      and\n      dup3\n      add\n      dup1\n      0x40\n      mstore\n      pop\n      dup2\n      add\n      swap1\n      tag_231\n      swap2\n      swap1\n      tag_142\n      jump\t// in\n    tag_231:\n        /* \"contracts/Vault.sol\":1964:2044  require(routerContract.whiteList(msg.sender),\"whiteList :: Address check error\") */\n      tag_232\n      jumpi\n      mload(0x40)\n      0x08c379a000000000000000000000000000000000000000000000000000000000\n      dup2\n      mstore\n      0x04\n      add\n      tag_233\n      swap1\n      tag_145\n      jump\t// in\n    tag_233:\n      mload(0x40)\n      dup1\n      swap2\n      sub\n      swap1\n      revert\n    tag_232:\n        /* \"contracts/Vault.sol\":2496:2497  0 */\n      0x00\n        /* \"contracts/Vault.sol\":2482:2498  to != address(0) */\n      0xffffffffffffffffffffffffffffffffffffffff\n      and\n        /* \"contracts/Vault.sol\":2482:2484  to */\n      dup3\n        /* \"contracts/Vault.sol\":2482:2498  to != address(0) */\n      0xffffffffffffffffffffffffffffffffffffffff\n      and\n      eq\n      iszero\n        /* \"contracts/Vault.sol\":2474:2546  require(to != address(0),\"sendERC20 :: Cannot transfer to zero address\") */\n      tag_235\n      jumpi\n      mload(0x40)\n      0x08c379a000000000000000000000000000000000000000000000000000000000\n      dup2\n      mstore\n      0x04\n      add\n      tag_236\n      swap1\n      tag_237\n      jump\t// in\n    tag_236:\n      mload(0x40)\n      dup1\n      swap2\n      sub\n      swap1\n      revert\n    tag_235:\n        /* \"contracts/Vault.sol\":2564:2569  token */\n      dup3\n        /* \"contracts/Vault.sol\":2557:2579  IERC20(token).transfer */\n      0xffffffffffffffffffffffffffffffffffffffff\n      and\n      0xa9059cbb\n        /* \"contracts/Vault.sol\":2580:2582  to */\n      dup4\n        /* \"contracts/Vault.sol\":2583:2589  amount */\n      dup4\n        /* \"contracts/Vault.sol\":2557:2590  IERC20(token).transfer(to,amount) */\n      mload(0x40)\n      dup4\n      0xffffffff\n      and\n      0xe0\n      shl\n      dup2\n      mstore\n      0x04\n      add\n      tag_238\n      swap3\n      swap2\n      swap1\n      tag_239\n      jump\t// in\n    tag_238:\n      0x20\n      mload(0x40)\n      dup1\n      dup4\n      sub\n      dup2\n      0x00\n      dup8\n      gas\n      call\n      iszero\n      dup1\n      iszero\n      tag_241\n      jumpi\n      returndatasize\n      0x00\n      dup1\n      returndatacopy\n      revert(0x00, returndatasize)\n    tag_241:\n      pop\n      pop\n      pop\n      pop\n      mload(0x40)\n      returndatasize\n      not(0x1f)\n      0x1f\n      dup3\n      add\n      and\n      dup3\n      add\n      dup1\n      0x40\n      mstore\n      pop\n      dup2\n      add\n      swap1\n      tag_242\n      swap2\n      swap1\n      tag_142\n      jump\t// in\n    tag_242:\n      pop\n        /* \"contracts/Vault.sol\":2382:2598  function sendERC20(address token,address to,uint256 amount) external checkSender {... */\n      pop\n      pop\n      pop\n      jump\t// out\n        /* \"contracts/Vault.sol\":1263:1286  bool public initializer */\n    tag_93:\n      0x04\n      0x01\n      swap1\n      sload\n      swap1\n      0x0100\n      exp\n      swap1\n      div\n      0xff\n      and\n      dup2\n      jump\t// out\n        /* \"contracts/Vault.sol\":2606:2885  function sendWETH(address who, uint256 amount) external checkSender{... */\n    tag_97:\n        /* \"contracts/Vault.sol\":1972:1986  routerContract */\n      0x00\n      dup1\n      sload\n      swap1\n      0x0100\n      exp\n      swap1\n      div\n      0xffffffffffffffffffffffffffffffffffffffff\n      and\n        /* \"contracts/Vault.sol\":1972:1996  routerContract.whiteList */\n      0xffffffffffffffffffffffffffffffffffffffff\n      and\n      0x372c12b1\n        /* \"contracts/Vault.sol\":1997:2007  msg.sender */\n      caller\n        /* \"contracts/Vault.sol\":1972:2008  routerContract.whiteList(msg.sender) */\n      mload(0x40)\n      dup3\n      0xffffffff\n      and\n      0xe0\n      shl\n      dup2\n      mstore\n      0x04\n      add\n      tag_244\n      swap2\n      swap1\n      tag_68\n      jump\t// in\n    tag_244:\n      0x20\n      mload(0x40)\n      dup1\n      dup4\n      sub\n      dup2\n      dup7\n      gas\n      staticcall\n      iszero\n      dup1\n      iszero\n      tag_246\n      jumpi\n      returndatasize\n      0x00\n      dup1\n      returndatacopy\n      revert(0x00, returndatasize)\n    tag_246:\n      pop\n      pop\n      pop\n      pop\n      mload(0x40)\n      returndatasize\n      not(0x1f)\n      0x1f\n      dup3\n      add\n      and\n      dup3\n      add\n      dup1\n      0x40\n      mstore\n      pop\n      dup2\n      add\n      swap1\n      tag_247\n      swap2\n      swap1\n      tag_142\n      jump\t// in\n    tag_247:\n        /* \"contracts/Vault.sol\":1964:2044  require(routerContract.whiteList(msg.sender),\"whiteList :: Address check error\") */\n      tag_248\n      jumpi\n      mload(0x40)\n      0x08c379a000000000000000000000000000000000000000000000000000000000\n      dup2\n      mstore\n      0x04\n      add\n      tag_249\n      swap1\n      tag_145\n      jump\t// in\n    tag_249:\n      mload(0x40)\n      dup1\n      swap2\n      sub\n      swap1\n      revert\n    tag_248:\n        /* \"contracts/Vault.sol\":2707:2708  0 */\n      0x00\n        /* \"contracts/Vault.sol\":2692:2709  who != address(0) */\n      0xffffffffffffffffffffffffffffffffffffffff\n      and\n        /* \"contracts/Vault.sol\":2692:2695  who */\n      dup3\n        /* \"contracts/Vault.sol\":2692:2709  who != address(0) */\n      0xffffffffffffffffffffffffffffffffffffffff\n      and\n      eq\n      iszero\n        /* \"contracts/Vault.sol\":2684:2756  require(who != address(0),\"sendWETH :: Cannot transfer to zero address\") */\n      tag_251\n      jumpi\n      mload(0x40)\n      0x08c379a000000000000000000000000000000000000000000000000000000000\n      dup2\n      mstore\n      0x04\n      add\n      tag_252\n      swap1\n      tag_253\n      jump\t// in\n    tag_252:\n      mload(0x40)\n      dup1\n      swap2\n      sub\n      swap1\n      revert\n    tag_251:\n        /* \"contracts/Vault.sol\":604:646  0x6085A86303E362c2A7434a7EA270d60A125B183c */\n      0x6085a86303e362c2a7434a7ea270d60a125b183c\n        /* \"contracts/Vault.sol\":2767:2786  IWETH(WETH).deposit */\n      0xffffffffffffffffffffffffffffffffffffffff\n      and\n      0xd0e30db0\n        /* \"contracts/Vault.sol\":2794:2800  amount */\n      dup3\n        /* \"contracts/Vault.sol\":2767:2803  IWETH(WETH).deposit{value: amount}() */\n      mload(0x40)\n      dup3\n      0xffffffff\n      and\n      0xe0\n      shl\n      dup2\n      mstore\n      0x04\n      add\n      0x00\n      mload(0x40)\n      dup1\n      dup4\n      sub\n      dup2\n      dup6\n      dup9\n      dup1\n      extcodesize\n      iszero\n      dup1\n      iszero\n      tag_254\n      jumpi\n      0x00\n      dup1\n      revert\n    tag_254:\n      pop\n      gas\n      call\n      iszero\n      dup1\n      iszero\n      tag_256\n      jumpi\n      returndatasize\n      0x00\n      dup1\n      returndatacopy\n      revert(0x00, returndatasize)\n    tag_256:\n      pop\n      pop\n      pop\n      pop\n      pop\n        /* \"contracts/Vault.sol\":604:646  0x6085A86303E362c2A7434a7EA270d60A125B183c */\n      0x6085a86303e362c2a7434a7ea270d60a125b183c\n        /* \"contracts/Vault.sol\":2814:2834  IWETH(WETH).transfer */\n      0xffffffffffffffffffffffffffffffffffffffff\n      and\n      0xa9059cbb\n        /* \"contracts/Vault.sol\":2835:2838  who */\n      dup4\n        /* \"contracts/Vault.sol\":604:646  0x6085A86303E362c2A7434a7EA270d60A125B183c */\n      0x6085a86303e362c2a7434a7ea270d60a125b183c\n        /* \"contracts/Vault.sol\":2840:2861  IWETH(WETH).balanceOf */\n      0xffffffffffffffffffffffffffffffffffffffff\n      and\n      0x70a08231\n        /* \"contracts/Vault.sol\":2870:2874  this */\n      address\n        /* \"contracts/Vault.sol\":2840:2876  IWETH(WETH).balanceOf(address(this)) */\n      mload(0x40)\n      dup3\n      0xffffffff\n      and\n      0xe0\n      shl\n      dup2\n      mstore\n      0x04\n      add\n      tag_257\n      swap2\n      swap1\n      tag_68\n      jump\t// in\n    tag_257:\n      0x20\n      mload(0x40)\n      dup1\n      dup4\n      sub\n      dup2\n      dup7\n      gas\n      staticcall\n      iszero\n      dup1\n      iszero\n      tag_259\n      jumpi\n      returndatasize\n      0x00\n      dup1\n      returndatacopy\n      revert(0x00, returndatasize)\n    tag_259:\n      pop\n      pop\n      pop\n      pop\n      mload(0x40)\n      returndatasize\n      not(0x1f)\n      0x1f\n      dup3\n      add\n      and\n      dup3\n      add\n      dup1\n      0x40\n      mstore\n      pop\n      dup2\n      add\n      swap1\n      tag_260\n      swap2\n      swap1\n      tag_261\n      jump\t// in\n    tag_260:\n        /* \"contracts/Vault.sol\":2814:2877  IWETH(WETH).transfer(who, IWETH(WETH).balanceOf(address(this))) */\n      mload(0x40)\n      dup4\n      0xffffffff\n      and\n      0xe0\n      shl\n      dup2\n      mstore\n      0x04\n      add\n      tag_262\n      swap3\n      swap2\n      swap1\n      tag_239\n      jump\t// in\n    tag_262:\n      0x20\n      mload(0x40)\n      dup1\n      dup4\n      sub\n      dup2\n      0x00\n      dup8\n      gas\n      call\n      iszero\n      dup1\n      iszero\n      tag_264\n      jumpi\n      returndatasize\n      0x00\n      dup1\n      returndatacopy\n      revert(0x00, returndatasize)\n    tag_264:\n      pop\n      pop\n      pop\n      pop\n      mload(0x40)\n      returndatasize\n      not(0x1f)\n      0x1f\n      dup3\n      add\n      and\n      dup3\n      add\n      dup1\n      0x40\n      mstore\n      pop\n      dup2\n      add\n      swap1\n      tag_265\n      swap2\n      swap1\n      tag_142\n      jump\t// in\n    tag_265:\n      pop\n        /* \"contracts/Vault.sol\":2606:2885  function sendWETH(address who, uint256 amount) external checkSender{... */\n      pop\n      pop\n      jump\t// out\n        /* \"contracts/Vault.sol\":573:646  address public constant WETH = 0x6085A86303E362c2A7434a7EA270d60A125B183c */\n    tag_99:\n        /* \"contracts/Vault.sol\":604:646  0x6085A86303E362c2A7434a7EA270d60A125B183c */\n      0x6085a86303e362c2a7434a7ea270d60a125b183c\n        /* \"contracts/Vault.sol\":573:646  address public constant WETH = 0x6085A86303E362c2A7434a7EA270d60A125B183c */\n      dup2\n      jump\t// out\n        /* \"contracts/Vault.sol\":10648:10896  function getNftState(address nft,uint256 nftId) public view returns(State.NftState){... */\n    tag_103:\n        /* \"contracts/Vault.sol\":10716:10730  State.NftState */\n      0x00\n        /* \"contracts/Vault.sol\":10742:10756  uint256 _index */\n      dup1\n        /* \"contracts/Vault.sol\":10759:10767  nftIndex */\n      0x03\n        /* \"contracts/Vault.sol\":10759:10772  nftIndex[nft] */\n      0x00\n        /* \"contracts/Vault.sol\":10768:10771  nft */\n      dup6\n        /* \"contracts/Vault.sol\":10759:10772  nftIndex[nft] */\n      0xffffffffffffffffffffffffffffffffffffffff\n      and\n      0xffffffffffffffffffffffffffffffffffffffff\n      and\n      dup2\n      mstore\n      0x20\n      add\n      swap1\n      dup2\n      mstore\n      0x20\n      add\n      0x00\n      keccak256\n        /* \"contracts/Vault.sol\":10759:10779  nftIndex[nft][nftId] */\n      0x00\n        /* \"contracts/Vault.sol\":10773:10778  nftId */\n      dup5\n        /* \"contracts/Vault.sol\":10759:10779  nftIndex[nft][nftId] */\n      dup2\n      mstore\n      0x20\n      add\n      swap1\n      dup2\n      mstore\n      0x20\n      add\n      0x00\n      keccak256\n      sload\n        /* \"contracts/Vault.sol\":10742:10779  uint256 _index = nftIndex[nft][nftId] */\n      swap1\n      pop\n        /* \"contracts/Vault.sol\":887:888  0 */\n      0x00\n        /* \"contracts/Vault.sol\":10798:10821  _index != NFT_NOT_EXIST */\n      0xff\n      and\n        /* \"contracts/Vault.sol\":10798:10804  _index */\n      dup2\n        /* \"contracts/Vault.sol\":10798:10821  _index != NFT_NOT_EXIST */\n      eq\n      iszero\n        /* \"contracts/Vault.sol\":10790:10852  require(_index != NFT_NOT_EXIST,\"Vault :: NFT does not exist\") */\n      tag_267\n      jumpi\n      mload(0x40)\n      0x08c379a000000000000000000000000000000000000000000000000000000000\n      dup2\n      mstore\n      0x04\n      add\n      tag_268\n      swap1\n      tag_176\n      jump\t// in\n    tag_268:\n      mload(0x40)\n      dup1\n      swap2\n      sub\n      swap1\n      revert\n    tag_267:\n        /* \"contracts/Vault.sol\":10870:10874  nfts */\n      0x01\n        /* \"contracts/Vault.sol\":10875:10881  _index */\n      dup2\n        /* \"contracts/Vault.sol\":10870:10882  nfts[_index] */\n      dup2\n      sload\n      dup2\n      lt\n      tag_269\n      jumpi\n      tag_270\n      tag_179\n      jump\t// in\n    tag_270:\n    tag_269:\n      swap1\n      0x00\n      mstore\n      keccak256(0x00, 0x20)\n      swap1\n      0x05\n      mul\n      add\n        /* \"contracts/Vault.sol\":10870:10888  nfts[_index].state */\n      0x03\n      add\n      0x01\n      swap1\n      sload\n      swap1\n      0x0100\n      exp\n      swap1\n      div\n      0xff\n      and\n        /* \"contracts/Vault.sol\":10863:10888  return nfts[_index].state */\n      swap2\n      pop\n      pop\n        /* \"contracts/Vault.sol\":10648:10896  function getNftState(address nft,uint256 nftId) public view returns(State.NftState){... */\n      swap3\n      swap2\n      pop\n      pop\n      jump\t// out\n        /* \"contracts/Vault.sol\":12013:12208  function onERC1155BatchReceived(address, address, uint256[] memory, uint256[] memory, bytes memory) public virtual  returns (bytes4) {... */\n    tag_109:\n        /* \"contracts/Vault.sol\":12138:12144  bytes4 */\n      0x00\n        /* \"contracts/Vault.sol\":12164:12200  this.onERC1155BatchReceived.selector */\n      shl(0xe0, 0xbc197c81)\n        /* \"contracts/Vault.sol\":12157:12200  return this.onERC1155BatchReceived.selector */\n      swap1\n      pop\n        /* \"contracts/Vault.sol\":12013:12208  function onERC1155BatchReceived(address, address, uint256[] memory, uint256[] memory, bytes memory) public virtual  returns (bytes4) {... */\n      swap6\n      swap5\n      pop\n      pop\n      pop\n      pop\n      pop\n      jump\t// out\n        /* \"contracts/Vault.sol\":5863:6469  function sendNFTAsset(address[] memory nft,uint256[] memory nftId, address to ) external checkSender{... */\n    tag_114:\n        /* \"contracts/Vault.sol\":1972:1986  routerContract */\n      0x00\n      dup1\n      sload\n      swap1\n      0x0100\n      exp\n      swap1\n      div\n      0xffffffffffffffffffffffffffffffffffffffff\n      and\n        /* \"contracts/Vault.sol\":1972:1996  routerContract.whiteList */\n      0xffffffffffffffffffffffffffffffffffffffff\n      and\n      0x372c12b1\n        /* \"contracts/Vault.sol\":1997:2007  msg.sender */\n      caller\n        /* \"contracts/Vault.sol\":1972:2008  routerContract.whiteList(msg.sender) */\n      mload(0x40)\n      dup3\n      0xffffffff\n      and\n      0xe0\n      shl\n      dup2\n      mstore\n      0x04\n      add\n      tag_274\n      swap2\n      swap1\n      tag_68\n      jump\t// in\n    tag_274:\n      0x20\n      mload(0x40)\n      dup1\n      dup4\n      sub\n      dup2\n      dup7\n      gas\n      staticcall\n      iszero\n      dup1\n      iszero\n      tag_276\n      jumpi\n      returndatasize\n      0x00\n      dup1\n      returndatacopy\n      revert(0x00, returndatasize)\n    tag_276:\n      pop\n      pop\n      pop\n      pop\n      mload(0x40)\n      returndatasize\n      not(0x1f)\n      0x1f\n      dup3\n      add\n      and\n      dup3\n      add\n      dup1\n      0x40\n      mstore\n      pop\n      dup2\n      add\n      swap1\n      tag_277\n      swap2\n      swap1\n      tag_142\n      jump\t// in\n    tag_277:\n        /* \"contracts/Vault.sol\":1964:2044  require(routerContract.whiteList(msg.sender),\"whiteList :: Address check error\") */\n      tag_278\n      jumpi\n      mload(0x40)\n      0x08c379a000000000000000000000000000000000000000000000000000000000\n      dup2\n      mstore\n      0x04\n      add\n      tag_279\n      swap1\n      tag_145\n      jump\t// in\n    tag_279:\n      mload(0x40)\n      dup1\n      swap2\n      sub\n      swap1\n      revert\n    tag_278:\n        /* \"contracts/Vault.sol\":5978:5986  uint16 i */\n      0x00\n        /* \"contracts/Vault.sol\":5974:6462  for(uint16 i = 0; i < nft.length ; i++) {... */\n    tag_281:\n        /* \"contracts/Vault.sol\":5996:5999  nft */\n      dup4\n        /* \"contracts/Vault.sol\":5996:6006  nft.length */\n      mload\n        /* \"contracts/Vault.sol\":5992:5993  i */\n      dup2\n        /* \"contracts/Vault.sol\":5992:6006  i < nft.length */\n      0xffff\n      and\n      lt\n        /* \"contracts/Vault.sol\":5974:6462  for(uint16 i = 0; i < nft.length ; i++) {... */\n      iszero\n      tag_282\n      jumpi\n        /* \"contracts/Vault.sol\":6089:6103  uint256 _index */\n      0x00\n        /* \"contracts/Vault.sol\":6106:6114  nftIndex */\n      0x03\n        /* \"contracts/Vault.sol\":6106:6122  nftIndex[nft[i]] */\n      0x00\n        /* \"contracts/Vault.sol\":6115:6118  nft */\n      dup7\n        /* \"contracts/Vault.sol\":6119:6120  i */\n      dup5\n        /* \"contracts/Vault.sol\":6115:6121  nft[i] */\n      0xffff\n      and\n      dup2\n      mload\n      dup2\n      lt\n      tag_284\n      jumpi\n      tag_285\n      tag_179\n      jump\t// in\n    tag_285:\n    tag_284:\n      0x20\n      mul\n      0x20\n      add\n      add\n      mload\n        /* \"contracts/Vault.sol\":6106:6122  nftIndex[nft[i]] */\n      0xffffffffffffffffffffffffffffffffffffffff\n      and\n      0xffffffffffffffffffffffffffffffffffffffff\n      and\n      dup2\n      mstore\n      0x20\n      add\n      swap1\n      dup2\n      mstore\n      0x20\n      add\n      0x00\n      keccak256\n        /* \"contracts/Vault.sol\":6106:6132  nftIndex[nft[i]][nftId[i]] */\n      0x00\n        /* \"contracts/Vault.sol\":6123:6128  nftId */\n      dup6\n        /* \"contracts/Vault.sol\":6129:6130  i */\n      dup5\n        /* \"contracts/Vault.sol\":6123:6131  nftId[i] */\n      0xffff\n      and\n      dup2\n      mload\n      dup2\n      lt\n      tag_286\n      jumpi\n      tag_287\n      tag_179\n      jump\t// in\n    tag_287:\n    tag_286:\n      0x20\n      mul\n      0x20\n      add\n      add\n      mload\n        /* \"contracts/Vault.sol\":6106:6132  nftIndex[nft[i]][nftId[i]] */\n      dup2\n      mstore\n      0x20\n      add\n      swap1\n      dup2\n      mstore\n      0x20\n      add\n      0x00\n      keccak256\n      sload\n        /* \"contracts/Vault.sol\":6089:6132  uint256 _index = nftIndex[nft[i]][nftId[i]] */\n      swap1\n      pop\n        /* \"contracts/Vault.sol\":887:888  0 */\n      0x00\n        /* \"contracts/Vault.sol\":6155:6178  _index != NFT_NOT_EXIST */\n      0xff\n      and\n        /* \"contracts/Vault.sol\":6155:6161  _index */\n      dup2\n        /* \"contracts/Vault.sol\":6155:6178  _index != NFT_NOT_EXIST */\n      eq\n      iszero\n        /* \"contracts/Vault.sol\":6147:6209  require(_index != NFT_NOT_EXIST,\"Vault :: NFT does not exist\") */\n      tag_288\n      jumpi\n      mload(0x40)\n      0x08c379a000000000000000000000000000000000000000000000000000000000\n      dup2\n      mstore\n      0x04\n      add\n      tag_289\n      swap1\n      tag_176\n      jump\t// in\n    tag_289:\n      mload(0x40)\n      dup1\n      swap2\n      sub\n      swap1\n      revert\n    tag_288:\n        /* \"contracts/Vault.sol\":6254:6325  _sendNFT( nft[i] , nftId[i] , nfts[_index].amount , address(this) , to) */\n      tag_290\n        /* \"contracts/Vault.sol\":6264:6267  nft */\n      dup6\n        /* \"contracts/Vault.sol\":6268:6269  i */\n      dup4\n        /* \"contracts/Vault.sol\":6264:6270  nft[i] */\n      0xffff\n      and\n      dup2\n      mload\n      dup2\n      lt\n      tag_291\n      jumpi\n      tag_292\n      tag_179\n      jump\t// in\n    tag_292:\n    tag_291:\n      0x20\n      mul\n      0x20\n      add\n      add\n      mload\n        /* \"contracts/Vault.sol\":6273:6278  nftId */\n      dup6\n        /* \"contracts/Vault.sol\":6279:6280  i */\n      dup5\n        /* \"contracts/Vault.sol\":6273:6281  nftId[i] */\n      0xffff\n      and\n      dup2\n      mload\n      dup2\n      lt\n      tag_293\n      jumpi\n      tag_294\n      tag_179\n      jump\t// in\n    tag_294:\n    tag_293:\n      0x20\n      mul\n      0x20\n      add\n      add\n      mload\n        /* \"contracts/Vault.sol\":6284:6288  nfts */\n      0x01\n        /* \"contracts/Vault.sol\":6289:6295  _index */\n      dup5\n        /* \"contracts/Vault.sol\":6284:6296  nfts[_index] */\n      dup2\n      sload\n      dup2\n      lt\n      tag_295\n      jumpi\n      tag_296\n      tag_179\n      jump\t// in\n    tag_296:\n    tag_295:\n      swap1\n      0x00\n      mstore\n      keccak256(0x00, 0x20)\n      swap1\n      0x05\n      mul\n      add\n        /* \"contracts/Vault.sol\":6284:6303  nfts[_index].amount */\n      0x02\n      add\n      sload\n        /* \"contracts/Vault.sol\":6314:6318  this */\n      address\n        /* \"contracts/Vault.sol\":6322:6324  to */\n      dup8\n        /* \"contracts/Vault.sol\":6254:6262  _sendNFT */\n      tag_298\n        /* \"contracts/Vault.sol\":6254:6325  _sendNFT( nft[i] , nftId[i] , nfts[_index].amount , address(this) , to) */\n      jump\t// in\n    tag_290:\n      pop\n        /* \"contracts/Vault.sol\":6386:6449  setState(_index , State.NftState.leave , nfts[_index].activity) */\n      tag_299\n        /* \"contracts/Vault.sol\":6395:6401  _index */\n      dup2\n        /* \"contracts/Vault.sol\":6404:6424  State.NftState.leave */\n      0x02\n        /* \"contracts/Vault.sol\":6427:6431  nfts */\n      0x01\n        /* \"contracts/Vault.sol\":6432:6438  _index */\n      dup5\n        /* \"contracts/Vault.sol\":6427:6439  nfts[_index] */\n      dup2\n      sload\n      dup2\n      lt\n      tag_300\n      jumpi\n      tag_301\n      tag_179\n      jump\t// in\n    tag_301:\n    tag_300:\n      swap1\n      0x00\n      mstore\n      keccak256(0x00, 0x20)\n      swap1\n      0x05\n      mul\n      add\n        /* \"contracts/Vault.sol\":6427:6448  nfts[_index].activity */\n      0x04\n      add\n        /* \"contracts/Vault.sol\":6386:6449  setState(_index , State.NftState.leave , nfts[_index].activity) */\n      dup1\n      sload\n      tag_303\n      swap1\n      tag_161\n      jump\t// in\n    tag_303:\n      dup1\n      0x1f\n      add\n      0x20\n      dup1\n      swap2\n      div\n      mul\n      0x20\n      add\n      mload(0x40)\n      swap1\n      dup2\n      add\n      0x40\n      mstore\n      dup1\n      swap3\n      swap2\n      swap1\n      dup2\n      dup2\n      mstore\n      0x20\n      add\n      dup3\n      dup1\n      sload\n      tag_304\n      swap1\n      tag_161\n      jump\t// in\n    tag_304:\n      dup1\n      iszero\n      tag_305\n      jumpi\n      dup1\n      0x1f\n      lt\n      tag_306\n      jumpi\n      0x0100\n      dup1\n      dup4\n      sload\n      div\n      mul\n      dup4\n      mstore\n      swap2\n      0x20\n      add\n      swap2\n      jump(tag_305)\n    tag_306:\n      dup3\n      add\n      swap2\n      swap1\n      0x00\n      mstore\n      keccak256(0x00, 0x20)\n      swap1\n    tag_307:\n      dup2\n      sload\n      dup2\n      mstore\n      swap1\n      0x01\n      add\n      swap1\n      0x20\n      add\n      dup1\n      dup4\n      gt\n      tag_307\n      jumpi\n      dup3\n      swap1\n      sub\n      0x1f\n      and\n      dup3\n      add\n      swap2\n    tag_305:\n      pop\n      pop\n      pop\n      pop\n      pop\n        /* \"contracts/Vault.sol\":6386:6394  setState */\n      tag_308\n        /* \"contracts/Vault.sol\":6386:6449  setState(_index , State.NftState.leave , nfts[_index].activity) */\n      jump\t// in\n    tag_299:\n        /* \"contracts/Vault.sol\":6014:6462  {... */\n      pop\n        /* \"contracts/Vault.sol\":6009:6012  i++ */\n      dup1\n      dup1\n      tag_309\n      swap1\n      tag_310\n      jump\t// in\n    tag_309:\n      swap2\n      pop\n      pop\n        /* \"contracts/Vault.sol\":5974:6462  for(uint16 i = 0; i < nft.length ; i++) {... */\n      jump(tag_281)\n    tag_282:\n      pop\n        /* \"contracts/Vault.sol\":5863:6469  function sendNFTAsset(address[] memory nft,uint256[] memory nftId, address to ) external checkSender{... */\n      pop\n      pop\n      pop\n      jump\t// out\n        /* \"contracts/Vault.sol\":9602:10550  function redeem() external {... */\n    tag_116:\n        /* \"contracts/Vault.sol\":9687:9688  0 */\n      0x00\n        /* \"contracts/Vault.sol\":9655:9668  getDivision() */\n      tag_312\n        /* \"contracts/Vault.sol\":9655:9666  getDivision */\n      tag_66\n        /* \"contracts/Vault.sol\":9655:9668  getDivision() */\n      jump\t// in\n    tag_312:\n        /* \"contracts/Vault.sol\":9648:9681  IERC20(getDivision()).totalSupply */\n      0xffffffffffffffffffffffffffffffffffffffff\n      and\n      0x18160ddd\n        /* \"contracts/Vault.sol\":9648:9683  IERC20(getDivision()).totalSupply() */\n      mload(0x40)\n      dup2\n      0xffffffff\n      and\n      0xe0\n      shl\n      dup2\n      mstore\n      0x04\n      add\n      0x20\n      mload(0x40)\n      dup1\n      dup4\n      sub\n      dup2\n      dup7\n      gas\n      staticcall\n      iszero\n      dup1\n      iszero\n      tag_314\n      jumpi\n      returndatasize\n      0x00\n      dup1\n      returndatacopy\n      revert(0x00, returndatasize)\n    tag_314:\n      pop\n      pop\n      pop\n      pop\n      mload(0x40)\n      returndatasize\n      not(0x1f)\n      0x1f\n      dup3\n      add\n      and\n      dup3\n      add\n      dup1\n      0x40\n      mstore\n      pop\n      dup2\n      add\n      swap1\n      tag_315\n      swap2\n      swap1\n      tag_261\n      jump\t// in\n    tag_315:\n        /* \"contracts/Vault.sol\":9648:9688  IERC20(getDivision()).totalSupply() != 0 */\n      eq\n      iszero\n        /* \"contracts/Vault.sol\":9640:9734  require(IERC20(getDivision()).totalSupply() != 0, \"redeem :: The number of fragments is zero\") */\n      tag_316\n      jumpi\n      mload(0x40)\n      0x08c379a000000000000000000000000000000000000000000000000000000000\n      dup2\n      mstore\n      0x04\n      add\n      tag_317\n      swap1\n      tag_318\n      jump\t// in\n    tag_317:\n      mload(0x40)\n      dup1\n      swap2\n      sub\n      swap1\n      revert\n    tag_316:\n        /* \"contracts/Vault.sol\":9778:9798  State.NftState.leave */\n      0x02\n        /* \"contracts/Vault.sol\":9753:9798  getEntireVaultState() != State.NftState.leave */\n      dup1\n      dup2\n      gt\n      iszero\n      tag_319\n      jumpi\n      tag_320\n      tag_217\n      jump\t// in\n    tag_320:\n    tag_319:\n        /* \"contracts/Vault.sol\":9753:9774  getEntireVaultState() */\n      tag_321\n        /* \"contracts/Vault.sol\":9753:9772  getEntireVaultState */\n      tag_122\n        /* \"contracts/Vault.sol\":9753:9774  getEntireVaultState() */\n      jump\t// in\n    tag_321:\n        /* \"contracts/Vault.sol\":9753:9798  getEntireVaultState() != State.NftState.leave */\n      0x02\n      dup2\n      gt\n      iszero\n      tag_322\n      jumpi\n      tag_323\n      tag_217\n      jump\t// in\n    tag_323:\n    tag_322:\n      eq\n      iszero\n        /* \"contracts/Vault.sol\":9745:9831  require(getEntireVaultState() != State.NftState.leave, \"redeem :: NFT does not exist\") */\n      tag_324\n      jumpi\n      mload(0x40)\n      0x08c379a000000000000000000000000000000000000000000000000000000000\n      dup2\n      mstore\n      0x04\n      add\n      tag_325\n      swap1\n      tag_326\n      jump\t// in\n    tag_325:\n      mload(0x40)\n      dup1\n      swap2\n      sub\n      swap1\n      revert\n    tag_324:\n        /* \"contracts/Vault.sol\":9850:9860  redeemable */\n      0x04\n      0x00\n      swap1\n      sload\n      swap1\n      0x0100\n      exp\n      swap1\n      div\n      0xff\n      and\n        /* \"contracts/Vault.sol\":9842:9891  require(redeemable, \"redeem :: Unable to remedy\") */\n      tag_327\n      jumpi\n      mload(0x40)\n      0x08c379a000000000000000000000000000000000000000000000000000000000\n      dup2\n      mstore\n      0x04\n      add\n      tag_328\n      swap1\n      tag_329\n      jump\t// in\n    tag_328:\n      mload(0x40)\n      dup1\n      swap2\n      sub\n      swap1\n      revert\n    tag_327:\n        /* \"contracts/Vault.sol\":9902:9920  address govAddress */\n      0x00\n        /* \"contracts/Vault.sol\":9933:9947  routerContract */\n      dup1\n      0x00\n      swap1\n      sload\n      swap1\n      0x0100\n      exp\n      swap1\n      div\n      0xffffffffffffffffffffffffffffffffffffffff\n      and\n        /* \"contracts/Vault.sol\":9933:9956  routerContract.settings */\n      0xffffffffffffffffffffffffffffffffffffffff\n      and\n      0xe06174e4\n        /* \"contracts/Vault.sol\":9933:9958  routerContract.settings() */\n      mload(0x40)\n      dup2\n      0xffffffff\n      and\n      0xe0\n      shl\n      dup2\n      mstore\n      0x04\n      add\n      0x20\n      mload(0x40)\n      dup1\n      dup4\n      sub\n      dup2\n      dup7\n      gas\n      staticcall\n      iszero\n      dup1\n      iszero\n      tag_331\n      jumpi\n      returndatasize\n      0x00\n      dup1\n      returndatacopy\n      revert(0x00, returndatasize)\n    tag_331:\n      pop\n      pop\n      pop\n      pop\n      mload(0x40)\n      returndatasize\n      not(0x1f)\n      0x1f\n      dup3\n      add\n      and\n      dup3\n      add\n      dup1\n      0x40\n      mstore\n      pop\n      dup2\n      add\n      swap1\n      tag_332\n      swap2\n      swap1\n      tag_172\n      jump\t// in\n    tag_332:\n        /* \"contracts/Vault.sol\":9923:9971  ISettings(routerContract.settings()).feeReceiver */\n      0xffffffffffffffffffffffffffffffffffffffff\n      and\n      0xb3f00674\n        /* \"contracts/Vault.sol\":9923:9973  ISettings(routerContract.settings()).feeReceiver() */\n      mload(0x40)\n      dup2\n      0xffffffff\n      and\n      0xe0\n      shl\n      dup2\n      mstore\n      0x04\n      add\n      0x20\n      mload(0x40)\n      dup1\n      dup4\n      sub\n      dup2\n      0x00\n      dup8\n      gas\n      call\n      iszero\n      dup1\n      iszero\n      tag_334\n      jumpi\n      returndatasize\n      0x00\n      dup1\n      returndatacopy\n      revert(0x00, returndatasize)\n    tag_334:\n      pop\n      pop\n      pop\n      pop\n      mload(0x40)\n      returndatasize\n      not(0x1f)\n      0x1f\n      dup3\n      add\n      and\n      dup3\n      add\n      dup1\n      0x40\n      mstore\n      pop\n      dup2\n      add\n      swap1\n      tag_335\n      swap2\n      swap1\n      tag_336\n      jump\t// in\n    tag_335:\n        /* \"contracts/Vault.sol\":9902:9973  address govAddress = ISettings(routerContract.settings()).feeReceiver() */\n      swap1\n      pop\n        /* \"contracts/Vault.sol\":9984:10002  uint256 govBalance */\n      0x00\n        /* \"contracts/Vault.sol\":10012:10025  getDivision() */\n      tag_337\n        /* \"contracts/Vault.sol\":10012:10023  getDivision */\n      tag_66\n        /* \"contracts/Vault.sol\":10012:10025  getDivision() */\n      jump\t// in\n    tag_337:\n        /* \"contracts/Vault.sol\":10005:10036  IERC20(getDivision()).balanceOf */\n      0xffffffffffffffffffffffffffffffffffffffff\n      and\n      0x70a08231\n        /* \"contracts/Vault.sol\":10037:10047  govAddress */\n      dup4\n        /* \"contracts/Vault.sol\":10005:10048  IERC20(getDivision()).balanceOf(govAddress) */\n      mload(0x40)\n      dup3\n      0xffffffff\n      and\n      0xe0\n      shl\n      dup2\n      mstore\n      0x04\n      add\n      tag_338\n      swap2\n      swap1\n      tag_68\n      jump\t// in\n    tag_338:\n      0x20\n      mload(0x40)\n      dup1\n      dup4\n      sub\n      dup2\n      dup7\n      gas\n      staticcall\n      iszero\n      dup1\n      iszero\n      tag_340\n      jumpi\n      returndatasize\n      0x00\n      dup1\n      returndatacopy\n      revert(0x00, returndatasize)\n    tag_340:\n      pop\n      pop\n      pop\n      pop\n      mload(0x40)\n      returndatasize\n      not(0x1f)\n      0x1f\n      dup3\n      add\n      and\n      dup3\n      add\n      dup1\n      0x40\n      mstore\n      pop\n      dup2\n      add\n      swap1\n      tag_341\n      swap2\n      swap1\n      tag_261\n      jump\t// in\n    tag_341:\n        /* \"contracts/Vault.sol\":9984:10048  uint256 govBalance = IERC20(getDivision()).balanceOf(govAddress) */\n      swap1\n      pop\n        /* \"contracts/Vault.sol\":10059:10081  uint256 accountBalance */\n      0x00\n        /* \"contracts/Vault.sol\":10091:10104  getDivision() */\n      tag_342\n        /* \"contracts/Vault.sol\":10091:10102  getDivision */\n      tag_66\n        /* \"contracts/Vault.sol\":10091:10104  getDivision() */\n      jump\t// in\n    tag_342:\n        /* \"contracts/Vault.sol\":10084:10115  IERC20(getDivision()).balanceOf */\n      0xffffffffffffffffffffffffffffffffffffffff\n      and\n      0x70a08231\n        /* \"contracts/Vault.sol\":10116:10126  msg.sender */\n      caller\n        /* \"contracts/Vault.sol\":10084:10127  IERC20(getDivision()).balanceOf(msg.sender) */\n      mload(0x40)\n      dup3\n      0xffffffff\n      and\n      0xe0\n      shl\n      dup2\n      mstore\n      0x04\n      add\n      tag_343\n      swap2\n      swap1\n      tag_68\n      jump\t// in\n    tag_343:\n      0x20\n      mload(0x40)\n      dup1\n      dup4\n      sub\n      dup2\n      dup7\n      gas\n      staticcall\n      iszero\n      dup1\n      iszero\n      tag_345\n      jumpi\n      returndatasize\n      0x00\n      dup1\n      returndatacopy\n      revert(0x00, returndatasize)\n    tag_345:\n      pop\n      pop\n      pop\n      pop\n      mload(0x40)\n      returndatasize\n      not(0x1f)\n      0x1f\n      dup3\n      add\n      and\n      dup3\n      add\n      dup1\n      0x40\n      mstore\n      pop\n      dup2\n      add\n      swap1\n      tag_346\n      swap2\n      swap1\n      tag_261\n      jump\t// in\n    tag_346:\n        /* \"contracts/Vault.sol\":10059:10127  uint256 accountBalance = IERC20(getDivision()).balanceOf(msg.sender) */\n      swap1\n      pop\n        /* \"contracts/Vault.sol\":10204:10214  govBalance */\n      dup2\n        /* \"contracts/Vault.sol\":10173:10186  getDivision() */\n      tag_347\n        /* \"contracts/Vault.sol\":10173:10184  getDivision */\n      tag_66\n        /* \"contracts/Vault.sol\":10173:10186  getDivision() */\n      jump\t// in\n    tag_347:\n        /* \"contracts/Vault.sol\":10166:10199  IERC20(getDivision()).totalSupply */\n      0xffffffffffffffffffffffffffffffffffffffff\n      and\n      0x18160ddd\n        /* \"contracts/Vault.sol\":10166:10201  IERC20(getDivision()).totalSupply() */\n      mload(0x40)\n      dup2\n      0xffffffff\n      and\n      0xe0\n      shl\n      dup2\n      mstore\n      0x04\n      add\n      0x20\n      mload(0x40)\n      dup1\n      dup4\n      sub\n      dup2\n      dup7\n      gas\n      staticcall\n      iszero\n      dup1\n      iszero\n      tag_349\n      jumpi\n      returndatasize\n      0x00\n      dup1\n      returndatacopy\n      revert(0x00, returndatasize)\n    tag_349:\n      pop\n      pop\n      pop\n      pop\n      mload(0x40)\n      returndatasize\n      not(0x1f)\n      0x1f\n      dup3\n      add\n      and\n      dup3\n      add\n      dup1\n      0x40\n      mstore\n      pop\n      dup2\n      add\n      swap1\n      tag_350\n      swap2\n      swap1\n      tag_261\n      jump\t// in\n    tag_350:\n        /* \"contracts/Vault.sol\":10166:10214  IERC20(getDivision()).totalSupply() - govBalance */\n      tag_351\n      swap2\n      swap1\n      tag_352\n      jump\t// in\n    tag_351:\n        /* \"contracts/Vault.sol\":10148:10162  accountBalance */\n      dup2\n        /* \"contracts/Vault.sol\":10148:10214  accountBalance >= IERC20(getDivision()).totalSupply() - govBalance */\n      lt\n      iszero\n        /* \"contracts/Vault.sol\":10140:10247  require(accountBalance >= IERC20(getDivision()).totalSupply() - govBalance ,\"redeem :: Not enough to burn\") */\n      tag_353\n      jumpi\n      mload(0x40)\n      0x08c379a000000000000000000000000000000000000000000000000000000000\n      dup2\n      mstore\n      0x04\n      add\n      tag_354\n      swap1\n      tag_355\n      jump\t// in\n    tag_354:\n      mload(0x40)\n      dup1\n      swap2\n      sub\n      swap1\n      revert\n    tag_353:\n        /* \"contracts/Vault.sol\":10270:10283  getDivision() */\n      tag_356\n        /* \"contracts/Vault.sol\":10270:10281  getDivision */\n      tag_66\n        /* \"contracts/Vault.sol\":10270:10283  getDivision() */\n      jump\t// in\n    tag_356:\n        /* \"contracts/Vault.sol\":10260:10297  IDivision(getDivision()).burnDivision */\n      0xffffffffffffffffffffffffffffffffffffffff\n      and\n      0x9745ab1f\n        /* \"contracts/Vault.sol\":10298:10308  msg.sender */\n      caller\n        /* \"contracts/Vault.sol\":10309:10323  accountBalance */\n      dup4\n        /* \"contracts/Vault.sol\":10260:10324  IDivision(getDivision()).burnDivision(msg.sender,accountBalance) */\n      mload(0x40)\n      dup4\n      0xffffffff\n      and\n      0xe0\n      shl\n      dup2\n      mstore\n      0x04\n      add\n      tag_357\n      swap3\n      swap2\n      swap1\n      tag_239\n      jump\t// in\n    tag_357:\n      0x00\n      mload(0x40)\n      dup1\n      dup4\n      sub\n      dup2\n      0x00\n      dup8\n      dup1\n      extcodesize\n      iszero\n      dup1\n      iszero\n      tag_358\n      jumpi\n      0x00\n      dup1\n      revert\n    tag_358:\n      pop\n      gas\n      call\n      iszero\n      dup1\n      iszero\n      tag_360\n      jumpi\n      returndatasize\n      0x00\n      dup1\n      returndatacopy\n      revert(0x00, returndatasize)\n    tag_360:\n      pop\n      pop\n      pop\n      pop\n        /* \"contracts/Vault.sol\":10337:10383  _sendNFTAssetIndex(getFreedomNFT(),msg.sender) */\n      tag_361\n        /* \"contracts/Vault.sol\":10356:10371  getFreedomNFT() */\n      tag_362\n        /* \"contracts/Vault.sol\":10356:10369  getFreedomNFT */\n      tag_79\n        /* \"contracts/Vault.sol\":10356:10371  getFreedomNFT() */\n      jump\t// in\n    tag_362:\n        /* \"contracts/Vault.sol\":10372:10382  msg.sender */\n      caller\n        /* \"contracts/Vault.sol\":10337:10355  _sendNFTAssetIndex */\n      tag_148\n        /* \"contracts/Vault.sol\":10337:10383  _sendNFTAssetIndex(getFreedomNFT(),msg.sender) */\n      jump\t// in\n    tag_361:\n        /* \"contracts/Vault.sol\":10397:10443  nfts[ENTIRE_VAULT_INDEX].activity = \"redeemed\" */\n      mload(0x40)\n      dup1\n      0x40\n      add\n      0x40\n      mstore\n      dup1\n      0x08\n      dup2\n      mstore\n      0x20\n      add\n      0x72656465656d6564000000000000000000000000000000000000000000000000\n      dup2\n      mstore\n      pop\n        /* \"contracts/Vault.sol\":10397:10401  nfts */\n      0x01\n        /* \"contracts/Vault.sol\":836:837  0 */\n      0x00\n        /* \"contracts/Vault.sol\":10397:10421  nfts[ENTIRE_VAULT_INDEX] */\n      0xff\n      and\n      dup2\n      sload\n      dup2\n      lt\n      tag_363\n      jumpi\n      tag_364\n      tag_179\n      jump\t// in\n    tag_364:\n    tag_363:\n      swap1\n      0x00\n      mstore\n      keccak256(0x00, 0x20)\n      swap1\n      0x05\n      mul\n      add\n        /* \"contracts/Vault.sol\":10397:10430  nfts[ENTIRE_VAULT_INDEX].activity */\n      0x04\n      add\n        /* \"contracts/Vault.sol\":10397:10443  nfts[ENTIRE_VAULT_INDEX].activity = \"redeemed\" */\n      swap1\n      dup1\n      mload\n      swap1\n      0x20\n      add\n      swap1\n      tag_366\n      swap3\n      swap2\n      swap1\n      tag_226\n      jump\t// in\n    tag_366:\n      pop\n        /* \"contracts/Vault.sol\":10488:10508  State.NftState.leave */\n      0x02\n        /* \"contracts/Vault.sol\":10454:10458  nfts */\n      0x01\n        /* \"contracts/Vault.sol\":836:837  0 */\n      0x00\n        /* \"contracts/Vault.sol\":10454:10478  nfts[ENTIRE_VAULT_INDEX] */\n      0xff\n      and\n      dup2\n      sload\n      dup2\n      lt\n      tag_367\n      jumpi\n      tag_368\n      tag_179\n      jump\t// in\n    tag_368:\n    tag_367:\n      swap1\n      0x00\n      mstore\n      keccak256(0x00, 0x20)\n      swap1\n      0x05\n      mul\n      add\n        /* \"contracts/Vault.sol\":10454:10484  nfts[ENTIRE_VAULT_INDEX].state */\n      0x03\n      add\n      0x01\n        /* \"contracts/Vault.sol\":10454:10508  nfts[ENTIRE_VAULT_INDEX].state =  State.NftState.leave */\n      0x0100\n      exp\n      dup2\n      sload\n      dup2\n      0xff\n      mul\n      not\n      and\n      swap1\n      dup4\n      0x02\n      dup2\n      gt\n      iszero\n      tag_370\n      jumpi\n      tag_371\n      tag_217\n      jump\t// in\n    tag_371:\n    tag_370:\n      mul\n      or\n      swap1\n      sstore\n      pop\n        /* \"contracts/Vault.sol\":10524:10542  Redeem(msg.sender) */\n      0xd1b5ea7fe0f1c2fa09d49c2aa9b2200664ba57a734f1d95481d95b7f99af991c\n        /* \"contracts/Vault.sol\":10531:10541  msg.sender */\n      caller\n        /* \"contracts/Vault.sol\":10524:10542  Redeem(msg.sender) */\n      mload(0x40)\n      tag_372\n      swap2\n      swap1\n      tag_68\n      jump\t// in\n    tag_372:\n      mload(0x40)\n      dup1\n      swap2\n      sub\n      swap1\n      log1\n        /* \"contracts/Vault.sol\":9629:10550  {... */\n      pop\n      pop\n      pop\n        /* \"contracts/Vault.sol\":9602:10550  function redeem() external {... */\n      jump\t// out\n        /* \"contracts/Vault.sol\":1157:1222  mapping (address => mapping (uint256 => uint256)) public nftIndex */\n    tag_119:\n      mstore(0x20, 0x03)\n      dup2\n      0x00\n      mstore\n      mstore(0x20, keccak256(0x00, 0x40))\n      dup1\n      0x00\n      mstore\n      keccak256(0x00, 0x40)\n      0x00\n      swap2\n      pop\n      swap2\n      pop\n      pop\n      sload\n      dup2\n      jump\t// out\n        /* \"contracts/Vault.sol\":10904:11027  function getEntireVaultState() public view returns(State.NftState) {... */\n    tag_122:\n        /* \"contracts/Vault.sol\":10955:10969  State.NftState */\n      0x00\n        /* \"contracts/Vault.sol\":10989:10993  nfts */\n      0x01\n        /* \"contracts/Vault.sol\":836:837  0 */\n      0x00\n        /* \"contracts/Vault.sol\":10989:11013  nfts[ENTIRE_VAULT_INDEX] */\n      0xff\n      and\n      dup2\n      sload\n      dup2\n      lt\n      tag_374\n      jumpi\n      tag_375\n      tag_179\n      jump\t// in\n    tag_375:\n    tag_374:\n      swap1\n      0x00\n      mstore\n      keccak256(0x00, 0x20)\n      swap1\n      0x05\n      mul\n      add\n        /* \"contracts/Vault.sol\":10989:11019  nfts[ENTIRE_VAULT_INDEX].state */\n      0x03\n      add\n      0x01\n      swap1\n      sload\n      swap1\n      0x0100\n      exp\n      swap1\n      div\n      0xff\n      and\n        /* \"contracts/Vault.sol\":10982:11019  return nfts[ENTIRE_VAULT_INDEX].state */\n      swap1\n      pop\n        /* \"contracts/Vault.sol\":10904:11027  function getEntireVaultState() public view returns(State.NftState) {... */\n      swap1\n      jump\t// out\n        /* \"contracts/Vault.sol\":2992:3186  function depositNFTAsset(address[] memory nft , uint256[] memory nftId , uint256[] memory amount, address sender) external checkSender{... */\n    tag_127:\n        /* \"contracts/Vault.sol\":1972:1986  routerContract */\n      0x00\n      dup1\n      sload\n      swap1\n      0x0100\n      exp\n      swap1\n      div\n      0xffffffffffffffffffffffffffffffffffffffff\n      and\n        /* \"contracts/Vault.sol\":1972:1996  routerContract.whiteList */\n      0xffffffffffffffffffffffffffffffffffffffff\n      and\n      0x372c12b1\n        /* \"contracts/Vault.sol\":1997:2007  msg.sender */\n      caller\n        /* \"contracts/Vault.sol\":1972:2008  routerContract.whiteList(msg.sender) */\n      mload(0x40)\n      dup3\n      0xffffffff\n      and\n      0xe0\n      shl\n      dup2\n      mstore\n      0x04\n      add\n      tag_378\n      swap2\n      swap1\n      tag_68\n      jump\t// in\n    tag_378:\n      0x20\n      mload(0x40)\n      dup1\n      dup4\n      sub\n      dup2\n      dup7\n      gas\n      staticcall\n      iszero\n      dup1\n      iszero\n      tag_380\n      jumpi\n      returndatasize\n      0x00\n      dup1\n      returndatacopy\n      revert(0x00, returndatasize)\n    tag_380:\n      pop\n      pop\n      pop\n      pop\n      mload(0x40)\n      returndatasize\n      not(0x1f)\n      0x1f\n      dup3\n      add\n      and\n      dup3\n      add\n      dup1\n      0x40\n      mstore\n      pop\n      dup2\n      add\n      swap1\n      tag_381\n      swap2\n      swap1\n      tag_142\n      jump\t// in\n    tag_381:\n        /* \"contracts/Vault.sol\":1964:2044  require(routerContract.whiteList(msg.sender),\"whiteList :: Address check error\") */\n      tag_382\n      jumpi\n      mload(0x40)\n      0x08c379a000000000000000000000000000000000000000000000000000000000\n      dup2\n      mstore\n      0x04\n      add\n      tag_383\n      swap1\n      tag_145\n      jump\t// in\n    tag_383:\n      mload(0x40)\n      dup1\n      swap2\n      sub\n      swap1\n      revert\n    tag_382:\n        /* \"contracts/Vault.sol\":3137:3178  _depositNFT(nft , nftId , amount, sender) */\n      tag_385\n        /* \"contracts/Vault.sol\":3149:3152  nft */\n      dup5\n        /* \"contracts/Vault.sol\":3155:3160  nftId */\n      dup5\n        /* \"contracts/Vault.sol\":3163:3169  amount */\n      dup5\n        /* \"contracts/Vault.sol\":3171:3177  sender */\n      dup5\n        /* \"contracts/Vault.sol\":3137:3148  _depositNFT */\n      tag_386\n        /* \"contracts/Vault.sol\":3137:3178  _depositNFT(nft , nftId , amount, sender) */\n      jump\t// in\n    tag_385:\n        /* \"contracts/Vault.sol\":2992:3186  function depositNFTAsset(address[] memory nft , uint256[] memory nftId , uint256[] memory amount, address sender) external checkSender{... */\n      pop\n      pop\n      pop\n      pop\n      jump\t// out\n        /* \"contracts/Vault.sol\":7892:8447  function safeSetState(address nft,uint256 nftId, State.NftState newState,string memory activity) external checkSender {... */\n    tag_131:\n        /* \"contracts/Vault.sol\":1972:1986  routerContract */\n      0x00\n      dup1\n      sload\n      swap1\n      0x0100\n      exp\n      swap1\n      div\n      0xffffffffffffffffffffffffffffffffffffffff\n      and\n        /* \"contracts/Vault.sol\":1972:1996  routerContract.whiteList */\n      0xffffffffffffffffffffffffffffffffffffffff\n      and\n      0x372c12b1\n        /* \"contracts/Vault.sol\":1997:2007  msg.sender */\n      caller\n        /* \"contracts/Vault.sol\":1972:2008  routerContract.whiteList(msg.sender) */\n      mload(0x40)\n      dup3\n      0xffffffff\n      and\n      0xe0\n      shl\n      dup2\n      mstore\n      0x04\n      add\n      tag_388\n      swap2\n      swap1\n      tag_68\n      jump\t// in\n    tag_388:\n      0x20\n      mload(0x40)\n      dup1\n      dup4\n      sub\n      dup2\n      dup7\n      gas\n      staticcall\n      iszero\n      dup1\n      iszero\n      tag_390\n      jumpi\n      returndatasize\n      0x00\n      dup1\n      returndatacopy\n      revert(0x00, returndatasize)\n    tag_390:\n      pop\n      pop\n      pop\n      pop\n      mload(0x40)\n      returndatasize\n      not(0x1f)\n      0x1f\n      dup3\n      add\n      and\n      dup3\n      add\n      dup1\n      0x40\n      mstore\n      pop\n      dup2\n      add\n      swap1\n      tag_391\n      swap2\n      swap1\n      tag_142\n      jump\t// in\n    tag_391:\n        /* \"contracts/Vault.sol\":1964:2044  require(routerContract.whiteList(msg.sender),\"whiteList :: Address check error\") */\n      tag_392\n      jumpi\n      mload(0x40)\n      0x08c379a000000000000000000000000000000000000000000000000000000000\n      dup2\n      mstore\n      0x04\n      add\n      tag_393\n      swap1\n      tag_145\n      jump\t// in\n    tag_393:\n      mload(0x40)\n      dup1\n      swap2\n      sub\n      swap1\n      revert\n    tag_392:\n        /* \"contracts/Vault.sol\":8021:8035  uint256 _index */\n      0x00\n        /* \"contracts/Vault.sol\":8038:8046  nftIndex */\n      0x03\n        /* \"contracts/Vault.sol\":8038:8051  nftIndex[nft] */\n      0x00\n        /* \"contracts/Vault.sol\":8047:8050  nft */\n      dup7\n        /* \"contracts/Vault.sol\":8038:8051  nftIndex[nft] */\n      0xffffffffffffffffffffffffffffffffffffffff\n      and\n      0xffffffffffffffffffffffffffffffffffffffff\n      and\n      dup2\n      mstore\n      0x20\n      add\n      swap1\n      dup2\n      mstore\n      0x20\n      add\n      0x00\n      keccak256\n        /* \"contracts/Vault.sol\":8038:8058  nftIndex[nft][nftId] */\n      0x00\n        /* \"contracts/Vault.sol\":8052:8057  nftId */\n      dup6\n        /* \"contracts/Vault.sol\":8038:8058  nftIndex[nft][nftId] */\n      dup2\n      mstore\n      0x20\n      add\n      swap1\n      dup2\n      mstore\n      0x20\n      add\n      0x00\n      keccak256\n      sload\n        /* \"contracts/Vault.sol\":8021:8058  uint256 _index = nftIndex[nft][nftId] */\n      swap1\n      pop\n        /* \"contracts/Vault.sol\":8099:8119  State.NftState.leave */\n      0x02\n        /* \"contracts/Vault.sol\":8077:8119  nfts[_index].state != State.NftState.leave */\n      dup1\n      dup2\n      gt\n      iszero\n      tag_395\n      jumpi\n      tag_396\n      tag_217\n      jump\t// in\n    tag_396:\n    tag_395:\n        /* \"contracts/Vault.sol\":8077:8081  nfts */\n      0x01\n        /* \"contracts/Vault.sol\":8082:8088  _index */\n      dup3\n        /* \"contracts/Vault.sol\":8077:8089  nfts[_index] */\n      dup2\n      sload\n      dup2\n      lt\n      tag_397\n      jumpi\n      tag_398\n      tag_179\n      jump\t// in\n    tag_398:\n    tag_397:\n      swap1\n      0x00\n      mstore\n      keccak256(0x00, 0x20)\n      swap1\n      0x05\n      mul\n      add\n        /* \"contracts/Vault.sol\":8077:8095  nfts[_index].state */\n      0x03\n      add\n      0x01\n      swap1\n      sload\n      swap1\n      0x0100\n      exp\n      swap1\n      div\n      0xff\n      and\n        /* \"contracts/Vault.sol\":8077:8119  nfts[_index].state != State.NftState.leave */\n      0x02\n      dup2\n      gt\n      iszero\n      tag_400\n      jumpi\n      tag_401\n      tag_217\n      jump\t// in\n    tag_401:\n    tag_400:\n      eq\n      iszero\n        /* \"contracts/Vault.sol\":8069:8151  require(nfts[_index].state != State.NftState.leave ,\"Vault :: NFT does not exist\") */\n      tag_402\n      jumpi\n      mload(0x40)\n      0x08c379a000000000000000000000000000000000000000000000000000000000\n      dup2\n      mstore\n      0x04\n      add\n      tag_403\n      swap1\n      tag_176\n      jump\t// in\n    tag_403:\n      mload(0x40)\n      dup1\n      swap2\n      sub\n      swap1\n      revert\n    tag_402:\n        /* \"contracts/Vault.sol\":8180:8181  0 */\n      0x00\n        /* \"contracts/Vault.sol\":8165:8182  nft == address(0) */\n      0xffffffffffffffffffffffffffffffffffffffff\n      and\n        /* \"contracts/Vault.sol\":8165:8168  nft */\n      dup6\n        /* \"contracts/Vault.sol\":8165:8182  nft == address(0) */\n      0xffffffffffffffffffffffffffffffffffffffff\n      and\n      eq\n        /* \"contracts/Vault.sol\":8165:8196  nft == address(0) && nftId == 0 */\n      dup1\n      iszero\n      tag_404\n      jumpi\n      pop\n        /* \"contracts/Vault.sol\":8195:8196  0 */\n      0x00\n        /* \"contracts/Vault.sol\":8186:8191  nftId */\n      dup5\n        /* \"contracts/Vault.sol\":8186:8196  nftId == 0 */\n      eq\n        /* \"contracts/Vault.sol\":8165:8196  nft == address(0) && nftId == 0 */\n    tag_404:\n        /* \"contracts/Vault.sol\":8162:8321  if(nft == address(0) && nftId == 0){... */\n      iszero\n      tag_405\n      jumpi\n        /* \"contracts/Vault.sol\":8236:8244  activity */\n      dup2\n        /* \"contracts/Vault.sol\":8212:8216  nfts */\n      0x01\n        /* \"contracts/Vault.sol\":8217:8223  _index */\n      dup3\n        /* \"contracts/Vault.sol\":8212:8224  nfts[_index] */\n      dup2\n      sload\n      dup2\n      lt\n      tag_406\n      jumpi\n      tag_407\n      tag_179\n      jump\t// in\n    tag_407:\n    tag_406:\n      swap1\n      0x00\n      mstore\n      keccak256(0x00, 0x20)\n      swap1\n      0x05\n      mul\n      add\n        /* \"contracts/Vault.sol\":8212:8233  nfts[_index].activity */\n      0x04\n      add\n        /* \"contracts/Vault.sol\":8212:8244  nfts[_index].activity = activity */\n      swap1\n      dup1\n      mload\n      swap1\n      0x20\n      add\n      swap1\n      tag_409\n      swap3\n      swap2\n      swap1\n      tag_226\n      jump\t// in\n    tag_409:\n      pop\n        /* \"contracts/Vault.sol\":8280:8288  newState */\n      dup3\n        /* \"contracts/Vault.sol\":8259:8263  nfts */\n      0x01\n        /* \"contracts/Vault.sol\":8264:8270  _index */\n      dup3\n        /* \"contracts/Vault.sol\":8259:8271  nfts[_index] */\n      dup2\n      sload\n      dup2\n      lt\n      tag_410\n      jumpi\n      tag_411\n      tag_179\n      jump\t// in\n    tag_411:\n    tag_410:\n      swap1\n      0x00\n      mstore\n      keccak256(0x00, 0x20)\n      swap1\n      0x05\n      mul\n      add\n        /* \"contracts/Vault.sol\":8259:8277  nfts[_index].state */\n      0x03\n      add\n      0x01\n        /* \"contracts/Vault.sol\":8259:8288  nfts[_index].state = newState */\n      0x0100\n      exp\n      dup2\n      sload\n      dup2\n      0xff\n      mul\n      not\n      and\n      swap1\n      dup4\n      0x02\n      dup2\n      gt\n      iszero\n      tag_413\n      jumpi\n      tag_414\n      tag_217\n      jump\t// in\n    tag_414:\n    tag_413:\n      mul\n      or\n      swap1\n      sstore\n      pop\n        /* \"contracts/Vault.sol\":8303:8310  return; */\n      pop\n      jump(tag_394)\n        /* \"contracts/Vault.sol\":8162:8321  if(nft == address(0) && nftId == 0){... */\n    tag_405:\n        /* \"contracts/Vault.sol\":887:888  0 */\n      0x00\n        /* \"contracts/Vault.sol\":8339:8362  _index != NFT_NOT_EXIST */\n      0xff\n      and\n        /* \"contracts/Vault.sol\":8339:8345  _index */\n      dup2\n        /* \"contracts/Vault.sol\":8339:8362  _index != NFT_NOT_EXIST */\n      eq\n      iszero\n        /* \"contracts/Vault.sol\":8331:8392  require(_index != NFT_NOT_EXIST,\"Vault:: NFT does not exist\") */\n      tag_415\n      jumpi\n      mload(0x40)\n      0x08c379a000000000000000000000000000000000000000000000000000000000\n      dup2\n      mstore\n      0x04\n      add\n      tag_416\n      swap1\n      tag_417\n      jump\t// in\n    tag_416:\n      mload(0x40)\n      dup1\n      swap2\n      sub\n      swap1\n      revert\n    tag_415:\n        /* \"contracts/Vault.sol\":8405:8439  setState(_index,newState,activity) */\n      tag_418\n        /* \"contracts/Vault.sol\":8414:8420  _index */\n      dup2\n        /* \"contracts/Vault.sol\":8421:8429  newState */\n      dup5\n        /* \"contracts/Vault.sol\":8430:8438  activity */\n      dup5\n        /* \"contracts/Vault.sol\":8405:8413  setState */\n      tag_308\n        /* \"contracts/Vault.sol\":8405:8439  setState(_index,newState,activity) */\n      jump\t// in\n    tag_418:\n        /* \"contracts/Vault.sol\":8010:8447  {... */\n      pop\n        /* \"contracts/Vault.sol\":2055:2056  _ */\n    tag_394:\n        /* \"contracts/Vault.sol\":7892:8447  function safeSetState(address nft,uint256 nftId, State.NftState newState,string memory activity) external checkSender {... */\n      pop\n      pop\n      pop\n      pop\n      jump\t// out\n        /* \"contracts/Vault.sol\":11838:12005  function onERC1155Received(address, address, uint256, uint256, bytes memory) public virtual  returns (bytes4) {... */\n    tag_135:\n        /* \"contracts/Vault.sol\":11940:11946  bytes4 */\n      0x00\n        /* \"contracts/Vault.sol\":11966:11997  this.onERC1155Received.selector */\n      shl(0xe0, 0xf23a6e61)\n        /* \"contracts/Vault.sol\":11959:11997  return this.onERC1155Received.selector */\n      swap1\n      pop\n        /* \"contracts/Vault.sol\":11838:12005  function onERC1155Received(address, address, uint256, uint256, bytes memory) public virtual  returns (bytes4) {... */\n      swap6\n      swap5\n      pop\n      pop\n      pop\n      pop\n      pop\n      jump\t// out\n        /* \"contracts/Vault.sol\":6618:7198  function _sendNFTAssetIndex(uint256[] memory index,address to) private {... */\n    tag_148:\n        /* \"contracts/Vault.sol\":6704:6712  uint16 i */\n      0x00\n        /* \"contracts/Vault.sol\":6700:7191  for(uint16 i = 0; i < index.length ; i++) {... */\n    tag_421:\n        /* \"contracts/Vault.sol\":6722:6727  index */\n      dup3\n        /* \"contracts/Vault.sol\":6722:6734  index.length */\n      mload\n        /* \"contracts/Vault.sol\":6718:6719  i */\n      dup2\n        /* \"contracts/Vault.sol\":6718:6734  i < index.length */\n      0xffff\n      and\n      lt\n        /* \"contracts/Vault.sol\":6700:7191  for(uint16 i = 0; i < index.length ; i++) {... */\n      iszero\n      tag_422\n      jumpi\n        /* \"contracts/Vault.sol\":6817:6831  uint256 _index */\n      0x00\n        /* \"contracts/Vault.sol\":6834:6839  index */\n      dup4\n        /* \"contracts/Vault.sol\":6840:6841  i */\n      dup3\n        /* \"contracts/Vault.sol\":6834:6842  index[i] */\n      0xffff\n      and\n      dup2\n      mload\n      dup2\n      lt\n      tag_424\n      jumpi\n      tag_425\n      tag_179\n      jump\t// in\n    tag_425:\n    tag_424:\n      0x20\n      mul\n      0x20\n      add\n      add\n      mload\n        /* \"contracts/Vault.sol\":6817:6842  uint256 _index = index[i] */\n      swap1\n      pop\n        /* \"contracts/Vault.sol\":887:888  0 */\n      0x00\n        /* \"contracts/Vault.sol\":6865:6888  _index != NFT_NOT_EXIST */\n      0xff\n      and\n        /* \"contracts/Vault.sol\":6865:6871  _index */\n      dup2\n        /* \"contracts/Vault.sol\":6865:6888  _index != NFT_NOT_EXIST */\n      eq\n      iszero\n        /* \"contracts/Vault.sol\":6857:6919  require(_index != NFT_NOT_EXIST,\"Vault :: NFT does not exist\") */\n      tag_426\n      jumpi\n      mload(0x40)\n      0x08c379a000000000000000000000000000000000000000000000000000000000\n      dup2\n      mstore\n      0x04\n      add\n      tag_427\n      swap1\n      tag_176\n      jump\t// in\n    tag_427:\n      mload(0x40)\n      dup1\n      swap2\n      sub\n      swap1\n      revert\n    tag_426:\n        /* \"contracts/Vault.sol\":6964:7055  _sendNFT( nfts[_index].nft , nfts[_index].nftId , nfts[_index].amount , address(this) , to) */\n      tag_428\n        /* \"contracts/Vault.sol\":6974:6978  nfts */\n      0x01\n        /* \"contracts/Vault.sol\":6979:6985  _index */\n      dup3\n        /* \"contracts/Vault.sol\":6974:6986  nfts[_index] */\n      dup2\n      sload\n      dup2\n      lt\n      tag_429\n      jumpi\n      tag_430\n      tag_179\n      jump\t// in\n    tag_430:\n    tag_429:\n      swap1\n      0x00\n      mstore\n      keccak256(0x00, 0x20)\n      swap1\n      0x05\n      mul\n      add\n        /* \"contracts/Vault.sol\":6974:6990  nfts[_index].nft */\n      0x00\n      add\n      0x00\n      swap1\n      sload\n      swap1\n      0x0100\n      exp\n      swap1\n      div\n      0xffffffffffffffffffffffffffffffffffffffff\n      and\n        /* \"contracts/Vault.sol\":6993:6997  nfts */\n      0x01\n        /* \"contracts/Vault.sol\":6998:7004  _index */\n      dup4\n        /* \"contracts/Vault.sol\":6993:7005  nfts[_index] */\n      dup2\n      sload\n      dup2\n      lt\n      tag_432\n      jumpi\n      tag_433\n      tag_179\n      jump\t// in\n    tag_433:\n    tag_432:\n      swap1\n      0x00\n      mstore\n      keccak256(0x00, 0x20)\n      swap1\n      0x05\n      mul\n      add\n        /* \"contracts/Vault.sol\":6993:7011  nfts[_index].nftId */\n      0x01\n      add\n      sload\n        /* \"contracts/Vault.sol\":7014:7018  nfts */\n      0x01\n        /* \"contracts/Vault.sol\":7019:7025  _index */\n      dup5\n        /* \"contracts/Vault.sol\":7014:7026  nfts[_index] */\n      dup2\n      sload\n      dup2\n      lt\n      tag_435\n      jumpi\n      tag_436\n      tag_179\n      jump\t// in\n    tag_436:\n    tag_435:\n      swap1\n      0x00\n      mstore\n      keccak256(0x00, 0x20)\n      swap1\n      0x05\n      mul\n      add\n        /* \"contracts/Vault.sol\":7014:7033  nfts[_index].amount */\n      0x02\n      add\n      sload\n        /* \"contracts/Vault.sol\":7044:7048  this */\n      address\n        /* \"contracts/Vault.sol\":7052:7054  to */\n      dup8\n        /* \"contracts/Vault.sol\":6964:6972  _sendNFT */\n      tag_298\n        /* \"contracts/Vault.sol\":6964:7055  _sendNFT( nfts[_index].nft , nfts[_index].nftId , nfts[_index].amount , address(this) , to) */\n      jump\t// in\n    tag_428:\n      pop\n        /* \"contracts/Vault.sol\":7116:7179  setState(_index , State.NftState.leave , nfts[_index].activity) */\n      tag_438\n        /* \"contracts/Vault.sol\":7125:7131  _index */\n      dup2\n        /* \"contracts/Vault.sol\":7134:7154  State.NftState.leave */\n      0x02\n        /* \"contracts/Vault.sol\":7157:7161  nfts */\n      0x01\n        /* \"contracts/Vault.sol\":7162:7168  _index */\n      dup5\n        /* \"contracts/Vault.sol\":7157:7169  nfts[_index] */\n      dup2\n      sload\n      dup2\n      lt\n      tag_439\n      jumpi\n      tag_440\n      tag_179\n      jump\t// in\n    tag_440:\n    tag_439:\n      swap1\n      0x00\n      mstore\n      keccak256(0x00, 0x20)\n      swap1\n      0x05\n      mul\n      add\n        /* \"contracts/Vault.sol\":7157:7178  nfts[_index].activity */\n      0x04\n      add\n        /* \"contracts/Vault.sol\":7116:7179  setState(_index , State.NftState.leave , nfts[_index].activity) */\n      dup1\n      sload\n      tag_442\n      swap1\n      tag_161\n      jump\t// in\n    tag_442:\n      dup1\n      0x1f\n      add\n      0x20\n      dup1\n      swap2\n      div\n      mul\n      0x20\n      add\n      mload(0x40)\n      swap1\n      dup2\n      add\n      0x40\n      mstore\n      dup1\n      swap3\n      swap2\n      swap1\n      dup2\n      dup2\n      mstore\n      0x20\n      add\n      dup3\n      dup1\n      sload\n      tag_443\n      swap1\n      tag_161\n      jump\t// in\n    tag_443:\n      dup1\n      iszero\n      tag_444\n      jumpi\n      dup1\n      0x1f\n      lt\n      tag_445\n      jumpi\n      0x0100\n      dup1\n      dup4\n      sload\n      div\n      mul\n      dup4\n      mstore\n      swap2\n      0x20\n      add\n      swap2\n      jump(tag_444)\n    tag_445:\n      dup3\n      add\n      swap2\n      swap1\n      0x00\n      mstore\n      keccak256(0x00, 0x20)\n      swap1\n    tag_446:\n      dup2\n      sload\n      dup2\n      mstore\n      swap1\n      0x01\n      add\n      swap1\n      0x20\n      add\n      dup1\n      dup4\n      gt\n      tag_446\n      jumpi\n      dup3\n      swap1\n      sub\n      0x1f\n      and\n      dup3\n      add\n      swap2\n    tag_444:\n      pop\n      pop\n      pop\n      pop\n      pop\n        /* \"contracts/Vault.sol\":7116:7124  setState */\n      tag_308\n        /* \"contracts/Vault.sol\":7116:7179  setState(_index , State.NftState.leave , nfts[_index].activity) */\n      jump\t// in\n    tag_438:\n        /* \"contracts/Vault.sol\":6742:7191  {... */\n      pop\n        /* \"contracts/Vault.sol\":6737:6740  i++ */\n      dup1\n      dup1\n      tag_447\n      swap1\n      tag_310\n      jump\t// in\n    tag_447:\n      swap2\n      pop\n      pop\n        /* \"contracts/Vault.sol\":6700:7191  for(uint16 i = 0; i < index.length ; i++) {... */\n      jump(tag_421)\n    tag_422:\n      pop\n        /* \"contracts/Vault.sol\":6618:7198  function _sendNFTAssetIndex(uint256[] memory index,address to) private {... */\n      pop\n      pop\n      jump\t// out\n        /* \"contracts/Vault.sol\":7207:7883  function _sendNFT(address nft,uint256 nftId,uint256 amount,address sender ,address to) private returns(State.NftType){... */\n    tag_298:\n        /* \"contracts/Vault.sol\":7310:7323  State.NftType */\n      0x00\n        /* \"contracts/Vault.sol\":7357:7358  0 */\n      dup1\n        /* \"contracts/Vault.sol\":7343:7359  to != address(0) */\n      0xffffffffffffffffffffffffffffffffffffffff\n      and\n        /* \"contracts/Vault.sol\":7343:7345  to */\n      dup3\n        /* \"contracts/Vault.sol\":7343:7359  to != address(0) */\n      0xffffffffffffffffffffffffffffffffffffffff\n      and\n      eq\n      iszero\n        /* \"contracts/Vault.sol\":7335:7405  require(to != address(0),\"sendNFT :: Cannot transfer to zero address\") */\n      tag_449\n      jumpi\n      mload(0x40)\n      0x08c379a000000000000000000000000000000000000000000000000000000000\n      dup2\n      mstore\n      0x04\n      add\n      tag_450\n      swap1\n      tag_451\n      jump\t// in\n    tag_450:\n      mload(0x40)\n      dup1\n      swap2\n      sub\n      swap1\n      revert\n    tag_449:\n        /* \"contracts/Vault.sol\":7420:7478  ERC165Checker.supportsInterface(nft, ERC1155_INTERFACE_ID) */\n      tag_452\n        /* \"contracts/Vault.sol\":7452:7455  nft */\n      dup7\n        /* \"contracts/Vault.sol\":705:715  0xd9b67a26 */\n      0xd9b67a26\n        /* \"contracts/Vault.sol\":7457:7477  ERC1155_INTERFACE_ID */\n      0xe0\n      shl\n        /* \"contracts/Vault.sol\":7420:7451  ERC165Checker.supportsInterface */\n      tag_453\n        /* \"contracts/Vault.sol\":7420:7478  ERC165Checker.supportsInterface(nft, ERC1155_INTERFACE_ID) */\n      jump\t// in\n    tag_452:\n        /* \"contracts/Vault.sol\":7416:7876  if (ERC165Checker.supportsInterface(nft, ERC1155_INTERFACE_ID)){... */\n      iszero\n      tag_454\n      jumpi\n        /* \"contracts/Vault.sol\":7503:7506  nft */\n      dup6\n        /* \"contracts/Vault.sol\":7494:7524  IERC1155(nft).safeTransferFrom */\n      0xffffffffffffffffffffffffffffffffffffffff\n      and\n      0xf242432a\n        /* \"contracts/Vault.sol\":7525:7531  sender */\n      dup5\n        /* \"contracts/Vault.sol\":7533:7535  to */\n      dup5\n        /* \"contracts/Vault.sol\":7537:7542  nftId */\n      dup9\n        /* \"contracts/Vault.sol\":7544:7550  amount */\n      dup9\n        /* \"contracts/Vault.sol\":7494:7554  IERC1155(nft).safeTransferFrom(sender, to, nftId ,amount,\"\") */\n      mload(0x40)\n      dup6\n      0xffffffff\n      and\n      0xe0\n      shl\n      dup2\n      mstore\n      0x04\n      add\n      tag_455\n      swap5\n      swap4\n      swap3\n      swap2\n      swap1\n      tag_456\n      jump\t// in\n    tag_455:\n      0x00\n      mload(0x40)\n      dup1\n      dup4\n      sub\n      dup2\n      0x00\n      dup8\n      dup1\n      extcodesize\n      iszero\n      dup1\n      iszero\n      tag_457\n      jumpi\n      0x00\n      dup1\n      revert\n    tag_457:\n      pop\n      gas\n      call\n      iszero\n      dup1\n      iszero\n      tag_459\n      jumpi\n      returndatasize\n      0x00\n      dup1\n      returndatacopy\n      revert(0x00, returndatasize)\n    tag_459:\n      pop\n      pop\n      pop\n      pop\n        /* \"contracts/Vault.sol\":7576:7597  State.NftType.NFT1155 */\n      0x01\n        /* \"contracts/Vault.sol\":7569:7597  return State.NftType.NFT1155 */\n      swap1\n      pop\n      jump(tag_448)\n        /* \"contracts/Vault.sol\":7416:7876  if (ERC165Checker.supportsInterface(nft, ERC1155_INTERFACE_ID)){... */\n    tag_454:\n        /* \"contracts/Vault.sol\":7628:7685  ERC165Checker.supportsInterface(nft, ERC721_INTERFACE_ID) */\n      tag_461\n        /* \"contracts/Vault.sol\":7660:7663  nft */\n      dup7\n        /* \"contracts/Vault.sol\":772:782  0x80ac58cd */\n      0x80ac58cd\n        /* \"contracts/Vault.sol\":7665:7684  ERC721_INTERFACE_ID */\n      0xe0\n      shl\n        /* \"contracts/Vault.sol\":7628:7659  ERC165Checker.supportsInterface */\n      tag_453\n        /* \"contracts/Vault.sol\":7628:7685  ERC165Checker.supportsInterface(nft, ERC721_INTERFACE_ID) */\n      jump\t// in\n    tag_461:\n        /* \"contracts/Vault.sol\":7624:7876  if (ERC165Checker.supportsInterface(nft, ERC721_INTERFACE_ID)){ ... */\n      iszero\n      tag_462\n      jumpi\n        /* \"contracts/Vault.sol\":7710:7713  nft */\n      dup6\n        /* \"contracts/Vault.sol\":7702:7731  IERC721(nft).safeTransferFrom */\n      0xffffffffffffffffffffffffffffffffffffffff\n      and\n      0x42842e0e\n        /* \"contracts/Vault.sol\":7732:7738  sender */\n      dup5\n        /* \"contracts/Vault.sol\":7740:7742  to */\n      dup5\n        /* \"contracts/Vault.sol\":7744:7749  nftId */\n      dup9\n        /* \"contracts/Vault.sol\":7702:7750  IERC721(nft).safeTransferFrom(sender, to, nftId) */\n      mload(0x40)\n      dup5\n      0xffffffff\n      and\n      0xe0\n      shl\n      dup2\n      mstore\n      0x04\n      add\n      tag_463\n      swap4\n      swap3\n      swap2\n      swap1\n      tag_464\n      jump\t// in\n    tag_463:\n      0x00\n      mload(0x40)\n      dup1\n      dup4\n      sub\n      dup2\n      0x00\n      dup8\n      dup1\n      extcodesize\n      iszero\n      dup1\n      iszero\n      tag_465\n      jumpi\n      0x00\n      dup1\n      revert\n    tag_465:\n      pop\n      gas\n      call\n      iszero\n      dup1\n      iszero\n      tag_467\n      jumpi\n      returndatasize\n      0x00\n      dup1\n      returndatacopy\n      revert(0x00, returndatasize)\n    tag_467:\n      pop\n      pop\n      pop\n      pop\n        /* \"contracts/Vault.sol\":7772:7792  State.NftType.NFT721 */\n      0x00\n        /* \"contracts/Vault.sol\":7765:7792  return State.NftType.NFT721 */\n      swap1\n      pop\n      jump(tag_448)\n        /* \"contracts/Vault.sol\":7624:7876  if (ERC165Checker.supportsInterface(nft, ERC721_INTERFACE_ID)){ ... */\n    tag_462:\n        /* \"contracts/Vault.sol\":7824:7864  revert(\"Vault :: Incorrect NFT address\") */\n      mload(0x40)\n      0x08c379a000000000000000000000000000000000000000000000000000000000\n      dup2\n      mstore\n      0x04\n      add\n      tag_469\n      swap1\n      tag_470\n      jump\t// in\n    tag_469:\n      mload(0x40)\n      dup1\n      swap2\n      sub\n      swap1\n      revert\n        /* \"contracts/Vault.sol\":7207:7883  function _sendNFT(address nft,uint256 nftId,uint256 amount,address sender ,address to) private returns(State.NftType){... */\n    tag_448:\n      swap6\n      swap5\n      pop\n      pop\n      pop\n      pop\n      pop\n      jump\t// out\n        /* \"contracts/Vault.sol\":8455:9017  function setState(uint256 index , State.NftState newState,string memory activity) private {... */\n    tag_308:\n        /* \"contracts/Vault.sol\":8556:8580  State.NftState _oldState */\n      0x00\n        /* \"contracts/Vault.sol\":8583:8587  nfts */\n      0x01\n        /* \"contracts/Vault.sol\":8588:8593  index */\n      dup5\n        /* \"contracts/Vault.sol\":8583:8594  nfts[index] */\n      dup2\n      sload\n      dup2\n      lt\n      tag_472\n      jumpi\n      tag_473\n      tag_179\n      jump\t// in\n    tag_473:\n    tag_472:\n      swap1\n      0x00\n      mstore\n      keccak256(0x00, 0x20)\n      swap1\n      0x05\n      mul\n      add\n        /* \"contracts/Vault.sol\":8583:8600  nfts[index].state */\n      0x03\n      add\n      0x01\n      swap1\n      sload\n      swap1\n      0x0100\n      exp\n      swap1\n      div\n      0xff\n      and\n        /* \"contracts/Vault.sol\":8556:8600  State.NftState _oldState = nfts[index].state */\n      swap1\n      pop\n        /* \"contracts/Vault.sol\":8634:8642  activity */\n      dup2\n        /* \"contracts/Vault.sol\":8611:8615  nfts */\n      0x01\n        /* \"contracts/Vault.sol\":8616:8621  index */\n      dup6\n        /* \"contracts/Vault.sol\":8611:8622  nfts[index] */\n      dup2\n      sload\n      dup2\n      lt\n      tag_475\n      jumpi\n      tag_476\n      tag_179\n      jump\t// in\n    tag_476:\n    tag_475:\n      swap1\n      0x00\n      mstore\n      keccak256(0x00, 0x20)\n      swap1\n      0x05\n      mul\n      add\n        /* \"contracts/Vault.sol\":8611:8631  nfts[index].activity */\n      0x04\n      add\n        /* \"contracts/Vault.sol\":8611:8642  nfts[index].activity = activity */\n      swap1\n      dup1\n      mload\n      swap1\n      0x20\n      add\n      swap1\n      tag_478\n      swap3\n      swap2\n      swap1\n      tag_226\n      jump\t// in\n    tag_478:\n      pop\n        /* \"contracts/Vault.sol\":8673:8681  newState */\n      dup3\n        /* \"contracts/Vault.sol\":8653:8657  nfts */\n      0x01\n        /* \"contracts/Vault.sol\":8658:8663  index */\n      dup6\n        /* \"contracts/Vault.sol\":8653:8664  nfts[index] */\n      dup2\n      sload\n      dup2\n      lt\n      tag_479\n      jumpi\n      tag_480\n      tag_179\n      jump\t// in\n    tag_480:\n    tag_479:\n      swap1\n      0x00\n      mstore\n      keccak256(0x00, 0x20)\n      swap1\n      0x05\n      mul\n      add\n        /* \"contracts/Vault.sol\":8653:8670  nfts[index].state */\n      0x03\n      add\n      0x01\n        /* \"contracts/Vault.sol\":8653:8681  nfts[index].state = newState */\n      0x0100\n      exp\n      dup2\n      sload\n      dup2\n      0xff\n      mul\n      not\n      and\n      swap1\n      dup4\n      0x02\n      dup2\n      gt\n      iszero\n      tag_482\n      jumpi\n      tag_483\n      tag_217\n      jump\t// in\n    tag_483:\n    tag_482:\n      mul\n      or\n      swap1\n      sstore\n      pop\n        /* \"contracts/Vault.sol\":8718:8740  State.NftState.freedom */\n      0x00\n        /* \"contracts/Vault.sol\":8705:8740  _oldState == State.NftState.freedom */\n      0x02\n      dup2\n      gt\n      iszero\n      tag_484\n      jumpi\n      tag_485\n      tag_217\n      jump\t// in\n    tag_485:\n    tag_484:\n        /* \"contracts/Vault.sol\":8705:8714  _oldState */\n      dup2\n        /* \"contracts/Vault.sol\":8705:8740  _oldState == State.NftState.freedom */\n      0x02\n      dup2\n      gt\n      iszero\n      tag_486\n      jumpi\n      tag_487\n      tag_217\n      jump\t// in\n    tag_487:\n    tag_486:\n      eq\n        /* \"contracts/Vault.sol\":8705:8778  _oldState == State.NftState.freedom && newState == State.NftState.freedom */\n      dup1\n      iszero\n      tag_488\n      jumpi\n      pop\n        /* \"contracts/Vault.sol\":8756:8778  State.NftState.freedom */\n      0x00\n        /* \"contracts/Vault.sol\":8744:8778  newState == State.NftState.freedom */\n      0x02\n      dup2\n      gt\n      iszero\n      tag_489\n      jumpi\n      tag_490\n      tag_217\n      jump\t// in\n    tag_490:\n    tag_489:\n        /* \"contracts/Vault.sol\":8744:8752  newState */\n      dup4\n        /* \"contracts/Vault.sol\":8744:8778  newState == State.NftState.freedom */\n      0x02\n      dup2\n      gt\n      iszero\n      tag_491\n      jumpi\n      tag_492\n      tag_217\n      jump\t// in\n    tag_492:\n    tag_491:\n      eq\n        /* \"contracts/Vault.sol\":8705:8778  _oldState == State.NftState.freedom && newState == State.NftState.freedom */\n    tag_488:\n        /* \"contracts/Vault.sol\":8702:9010  if(_oldState == State.NftState.freedom && newState == State.NftState.freedom) {... */\n      iszero\n      tag_493\n      jumpi\n        /* \"contracts/Vault.sol\":8795:8802  return; */\n      pop\n      jump(tag_471)\n        /* \"contracts/Vault.sol\":8702:9010  if(_oldState == State.NftState.freedom && newState == State.NftState.freedom) {... */\n    tag_493:\n        /* \"contracts/Vault.sol\":8834:8856  State.NftState.freedom */\n      0x00\n        /* \"contracts/Vault.sol\":8821:8856  _oldState != State.NftState.freedom */\n      0x02\n      dup2\n      gt\n      iszero\n      tag_495\n      jumpi\n      tag_496\n      tag_217\n      jump\t// in\n    tag_496:\n    tag_495:\n        /* \"contracts/Vault.sol\":8821:8830  _oldState */\n      dup2\n        /* \"contracts/Vault.sol\":8821:8856  _oldState != State.NftState.freedom */\n      0x02\n      dup2\n      gt\n      iszero\n      tag_497\n      jumpi\n      tag_498\n      tag_217\n      jump\t// in\n    tag_498:\n    tag_497:\n      eq\n      iszero\n        /* \"contracts/Vault.sol\":8821:8894  _oldState != State.NftState.freedom && newState == State.NftState.freedom */\n      dup1\n      iszero\n      tag_499\n      jumpi\n      pop\n        /* \"contracts/Vault.sol\":8872:8894  State.NftState.freedom */\n      0x00\n        /* \"contracts/Vault.sol\":8860:8894  newState == State.NftState.freedom */\n      0x02\n      dup2\n      gt\n      iszero\n      tag_500\n      jumpi\n      tag_501\n      tag_217\n      jump\t// in\n    tag_501:\n    tag_500:\n        /* \"contracts/Vault.sol\":8860:8868  newState */\n      dup4\n        /* \"contracts/Vault.sol\":8860:8894  newState == State.NftState.freedom */\n      0x02\n      dup2\n      gt\n      iszero\n      tag_502\n      jumpi\n      tag_503\n      tag_217\n      jump\t// in\n    tag_503:\n    tag_502:\n      eq\n        /* \"contracts/Vault.sol\":8821:8894  _oldState != State.NftState.freedom && newState == State.NftState.freedom */\n    tag_499:\n        /* \"contracts/Vault.sol\":8818:9010  if(_oldState != State.NftState.freedom && newState == State.NftState.freedom){... */\n      iszero\n      tag_504\n      jumpi\n        /* \"contracts/Vault.sol\":8910:8937  addFreedomStateIndex(index) */\n      tag_505\n        /* \"contracts/Vault.sol\":8931:8936  index */\n      dup5\n        /* \"contracts/Vault.sol\":8910:8930  addFreedomStateIndex */\n      tag_506\n        /* \"contracts/Vault.sol\":8910:8937  addFreedomStateIndex(index) */\n      jump\t// in\n    tag_505:\n        /* \"contracts/Vault.sol\":8818:9010  if(_oldState != State.NftState.freedom && newState == State.NftState.freedom){... */\n      jump(tag_507)\n    tag_504:\n        /* \"contracts/Vault.sol\":8968:8998  deleteFreedomStateIndex(index) */\n      tag_508\n        /* \"contracts/Vault.sol\":8992:8997  index */\n      dup5\n        /* \"contracts/Vault.sol\":8968:8991  deleteFreedomStateIndex */\n      tag_509\n        /* \"contracts/Vault.sol\":8968:8998  deleteFreedomStateIndex(index) */\n      jump\t// in\n    tag_508:\n        /* \"contracts/Vault.sol\":8818:9010  if(_oldState != State.NftState.freedom && newState == State.NftState.freedom){... */\n    tag_507:\n        /* \"contracts/Vault.sol\":8545:9017  {... */\n      pop\n        /* \"contracts/Vault.sol\":8455:9017  function setState(uint256 index , State.NftState newState,string memory activity) private {... */\n    tag_471:\n      pop\n      pop\n      pop\n      jump\t// out\n        /* \"contracts/Vault.sol\":3194:5004  function _depositNFT(address[] memory nft , uint256[] memory nftId , uint256[] memory amount, address sender) private {... */\n    tag_386:\n        /* \"contracts/Vault.sol\":3356:3378  State.NftState.freedom */\n      0x00\n        /* \"contracts/Vault.sol\":3331:3378  getEntireVaultState() == State.NftState.freedom */\n      0x02\n      dup2\n      gt\n      iszero\n      tag_511\n      jumpi\n      tag_512\n      tag_217\n      jump\t// in\n    tag_512:\n    tag_511:\n        /* \"contracts/Vault.sol\":3331:3352  getEntireVaultState() */\n      tag_513\n        /* \"contracts/Vault.sol\":3331:3350  getEntireVaultState */\n      tag_122\n        /* \"contracts/Vault.sol\":3331:3352  getEntireVaultState() */\n      jump\t// in\n    tag_513:\n        /* \"contracts/Vault.sol\":3331:3378  getEntireVaultState() == State.NftState.freedom */\n      0x02\n      dup2\n      gt\n      iszero\n      tag_514\n      jumpi\n      tag_515\n      tag_217\n      jump\t// in\n    tag_515:\n    tag_514:\n      eq\n        /* \"contracts/Vault.sol\":3323:3412  require(getEntireVaultState() == State.NftState.freedom,\"Vault :: Incorrect vault state\") */\n      tag_516\n      jumpi\n      mload(0x40)\n      0x08c379a000000000000000000000000000000000000000000000000000000000\n      dup2\n      mstore\n      0x04\n      add\n      tag_517\n      swap1\n      tag_518\n      jump\t// in\n    tag_517:\n      mload(0x40)\n      dup1\n      swap2\n      sub\n      swap1\n      revert\n    tag_516:\n        /* \"contracts/Vault.sol\":3427:3435  uint16 i */\n      0x00\n        /* \"contracts/Vault.sol\":3423:4997  for(uint16 i = 0; i < nft.length ; i++) {... */\n    tag_519:\n        /* \"contracts/Vault.sol\":3445:3448  nft */\n      dup5\n        /* \"contracts/Vault.sol\":3445:3455  nft.length */\n      mload\n        /* \"contracts/Vault.sol\":3441:3442  i */\n      dup2\n        /* \"contracts/Vault.sol\":3441:3455  i < nft.length */\n      0xffff\n      and\n      lt\n        /* \"contracts/Vault.sol\":3423:4997  for(uint16 i = 0; i < nft.length ; i++) {... */\n      iszero\n      tag_520\n      jumpi\n        /* \"contracts/Vault.sol\":3550:3572  State.NftType _nftType */\n      0x00\n        /* \"contracts/Vault.sol\":3575:3639  _sendNFT( nft[i] , nftId[i] , amount[i], sender , address(this)) */\n      tag_522\n        /* \"contracts/Vault.sol\":3585:3588  nft */\n      dup7\n        /* \"contracts/Vault.sol\":3589:3590  i */\n      dup4\n        /* \"contracts/Vault.sol\":3585:3591  nft[i] */\n      0xffff\n      and\n      dup2\n      mload\n      dup2\n      lt\n      tag_523\n      jumpi\n      tag_524\n      tag_179\n      jump\t// in\n    tag_524:\n    tag_523:\n      0x20\n      mul\n      0x20\n      add\n      add\n      mload\n        /* \"contracts/Vault.sol\":3594:3599  nftId */\n      dup7\n        /* \"contracts/Vault.sol\":3600:3601  i */\n      dup5\n        /* \"contracts/Vault.sol\":3594:3602  nftId[i] */\n      0xffff\n      and\n      dup2\n      mload\n      dup2\n      lt\n      tag_525\n      jumpi\n      tag_526\n      tag_179\n      jump\t// in\n    tag_526:\n    tag_525:\n      0x20\n      mul\n      0x20\n      add\n      add\n      mload\n        /* \"contracts/Vault.sol\":3605:3611  amount */\n      dup7\n        /* \"contracts/Vault.sol\":3612:3613  i */\n      dup6\n        /* \"contracts/Vault.sol\":3605:3614  amount[i] */\n      0xffff\n      and\n      dup2\n      mload\n      dup2\n      lt\n      tag_527\n      jumpi\n      tag_528\n      tag_179\n      jump\t// in\n    tag_528:\n    tag_527:\n      0x20\n      mul\n      0x20\n      add\n      add\n      mload\n        /* \"contracts/Vault.sol\":3616:3622  sender */\n      dup7\n        /* \"contracts/Vault.sol\":3633:3637  this */\n      address\n        /* \"contracts/Vault.sol\":3575:3583  _sendNFT */\n      tag_298\n        /* \"contracts/Vault.sol\":3575:3639  _sendNFT( nft[i] , nftId[i] , amount[i], sender , address(this)) */\n      jump\t// in\n    tag_522:\n        /* \"contracts/Vault.sol\":3550:3639  State.NftType _nftType = _sendNFT( nft[i] , nftId[i] , amount[i], sender , address(this)) */\n      swap1\n      pop\n        /* \"contracts/Vault.sol\":3722:3739  uint256 _nftIndex */\n      0x00\n        /* \"contracts/Vault.sol\":3742:3750  nftIndex */\n      0x03\n        /* \"contracts/Vault.sol\":3742:3758  nftIndex[nft[i]] */\n      0x00\n        /* \"contracts/Vault.sol\":3751:3754  nft */\n      dup9\n        /* \"contracts/Vault.sol\":3755:3756  i */\n      dup6\n        /* \"contracts/Vault.sol\":3751:3757  nft[i] */\n      0xffff\n      and\n      dup2\n      mload\n      dup2\n      lt\n      tag_529\n      jumpi\n      tag_530\n      tag_179\n      jump\t// in\n    tag_530:\n    tag_529:\n      0x20\n      mul\n      0x20\n      add\n      add\n      mload\n        /* \"contracts/Vault.sol\":3742:3758  nftIndex[nft[i]] */\n      0xffffffffffffffffffffffffffffffffffffffff\n      and\n      0xffffffffffffffffffffffffffffffffffffffff\n      and\n      dup2\n      mstore\n      0x20\n      add\n      swap1\n      dup2\n      mstore\n      0x20\n      add\n      0x00\n      keccak256\n        /* \"contracts/Vault.sol\":3742:3768  nftIndex[nft[i]][nftId[i]] */\n      0x00\n        /* \"contracts/Vault.sol\":3759:3764  nftId */\n      dup8\n        /* \"contracts/Vault.sol\":3765:3766  i */\n      dup6\n        /* \"contracts/Vault.sol\":3759:3767  nftId[i] */\n      0xffff\n      and\n      dup2\n      mload\n      dup2\n      lt\n      tag_531\n      jumpi\n      tag_532\n      tag_179\n      jump\t// in\n    tag_532:\n    tag_531:\n      0x20\n      mul\n      0x20\n      add\n      add\n      mload\n        /* \"contracts/Vault.sol\":3742:3768  nftIndex[nft[i]][nftId[i]] */\n      dup2\n      mstore\n      0x20\n      add\n      swap1\n      dup2\n      mstore\n      0x20\n      add\n      0x00\n      keccak256\n      sload\n        /* \"contracts/Vault.sol\":3722:3768  uint256 _nftIndex = nftIndex[nft[i]][nftId[i]] */\n      swap1\n      pop\n        /* \"contracts/Vault.sol\":4017:4040  State.NftState.occupied */\n      0x01\n        /* \"contracts/Vault.sol\":3992:4040  nfts[_nftIndex].state != State.NftState.occupied */\n      0x02\n      dup2\n      gt\n      iszero\n      tag_533\n      jumpi\n      tag_534\n      tag_217\n      jump\t// in\n    tag_534:\n    tag_533:\n        /* \"contracts/Vault.sol\":3992:3996  nfts */\n      0x01\n        /* \"contracts/Vault.sol\":3997:4006  _nftIndex */\n      dup3\n        /* \"contracts/Vault.sol\":3992:4007  nfts[_nftIndex] */\n      dup2\n      sload\n      dup2\n      lt\n      tag_535\n      jumpi\n      tag_536\n      tag_179\n      jump\t// in\n    tag_536:\n    tag_535:\n      swap1\n      0x00\n      mstore\n      keccak256(0x00, 0x20)\n      swap1\n      0x05\n      mul\n      add\n        /* \"contracts/Vault.sol\":3992:4013  nfts[_nftIndex].state */\n      0x03\n      add\n      0x01\n      swap1\n      sload\n      swap1\n      0x0100\n      exp\n      swap1\n      div\n      0xff\n      and\n        /* \"contracts/Vault.sol\":3992:4040  nfts[_nftIndex].state != State.NftState.occupied */\n      0x02\n      dup2\n      gt\n      iszero\n      tag_538\n      jumpi\n      tag_539\n      tag_217\n      jump\t// in\n    tag_539:\n    tag_538:\n      eq\n      iszero\n        /* \"contracts/Vault.sol\":3984:4074  require(nfts[_nftIndex].state != State.NftState.occupied,\"Vault :: Incorrect vault state\") */\n      tag_540\n      jumpi\n      mload(0x40)\n      0x08c379a000000000000000000000000000000000000000000000000000000000\n      dup2\n      mstore\n      0x04\n      add\n      tag_541\n      swap1\n      tag_518\n      jump\t// in\n    tag_541:\n      mload(0x40)\n      dup1\n      swap2\n      sub\n      swap1\n      revert\n    tag_540:\n        /* \"contracts/Vault.sol\":887:888  0 */\n      0x00\n        /* \"contracts/Vault.sol\":4094:4120  _nftIndex != NFT_NOT_EXIST */\n      0xff\n      and\n        /* \"contracts/Vault.sol\":4094:4103  _nftIndex */\n      dup2\n        /* \"contracts/Vault.sol\":4094:4120  _nftIndex != NFT_NOT_EXIST */\n      eq\n      iszero\n        /* \"contracts/Vault.sol\":4094:4171  _nftIndex != NFT_NOT_EXIST && nfts[_nftIndex].state == State.NftState.freedom */\n      dup1\n      iszero\n      tag_542\n      jumpi\n      pop\n        /* \"contracts/Vault.sol\":4149:4171  State.NftState.freedom */\n      0x00\n        /* \"contracts/Vault.sol\":4124:4171  nfts[_nftIndex].state == State.NftState.freedom */\n      0x02\n      dup2\n      gt\n      iszero\n      tag_543\n      jumpi\n      tag_544\n      tag_217\n      jump\t// in\n    tag_544:\n    tag_543:\n        /* \"contracts/Vault.sol\":4124:4128  nfts */\n      0x01\n        /* \"contracts/Vault.sol\":4129:4138  _nftIndex */\n      dup3\n        /* \"contracts/Vault.sol\":4124:4139  nfts[_nftIndex] */\n      dup2\n      sload\n      dup2\n      lt\n      tag_545\n      jumpi\n      tag_546\n      tag_179\n      jump\t// in\n    tag_546:\n    tag_545:\n      swap1\n      0x00\n      mstore\n      keccak256(0x00, 0x20)\n      swap1\n      0x05\n      mul\n      add\n        /* \"contracts/Vault.sol\":4124:4145  nfts[_nftIndex].state */\n      0x03\n      add\n      0x01\n      swap1\n      sload\n      swap1\n      0x0100\n      exp\n      swap1\n      div\n      0xff\n      and\n        /* \"contracts/Vault.sol\":4124:4171  nfts[_nftIndex].state == State.NftState.freedom */\n      0x02\n      dup2\n      gt\n      iszero\n      tag_548\n      jumpi\n      tag_549\n      tag_217\n      jump\t// in\n    tag_549:\n    tag_548:\n      eq\n        /* \"contracts/Vault.sol\":4094:4171  _nftIndex != NFT_NOT_EXIST && nfts[_nftIndex].state == State.NftState.freedom */\n    tag_542:\n        /* \"contracts/Vault.sol\":4091:4986  if(_nftIndex != NFT_NOT_EXIST && nfts[_nftIndex].state == State.NftState.freedom){... */\n      iszero\n      tag_550\n      jumpi\n        /* \"contracts/Vault.sol\":4222:4225  nft */\n      dup7\n        /* \"contracts/Vault.sol\":4226:4227  i */\n      dup4\n        /* \"contracts/Vault.sol\":4222:4228  nft[i] */\n      0xffff\n      and\n      dup2\n      mload\n      dup2\n      lt\n      tag_551\n      jumpi\n      tag_552\n      tag_179\n      jump\t// in\n    tag_552:\n    tag_551:\n      0x20\n      mul\n      0x20\n      add\n      add\n      mload\n        /* \"contracts/Vault.sol\":4199:4228  nfts[_nftIndex].nft == nft[i] */\n      0xffffffffffffffffffffffffffffffffffffffff\n      and\n        /* \"contracts/Vault.sol\":4199:4203  nfts */\n      0x01\n        /* \"contracts/Vault.sol\":4204:4213  _nftIndex */\n      dup3\n        /* \"contracts/Vault.sol\":4199:4214  nfts[_nftIndex] */\n      dup2\n      sload\n      dup2\n      lt\n      tag_553\n      jumpi\n      tag_554\n      tag_179\n      jump\t// in\n    tag_554:\n    tag_553:\n      swap1\n      0x00\n      mstore\n      keccak256(0x00, 0x20)\n      swap1\n      0x05\n      mul\n      add\n        /* \"contracts/Vault.sol\":4199:4218  nfts[_nftIndex].nft */\n      0x00\n      add\n      0x00\n      swap1\n      sload\n      swap1\n      0x0100\n      exp\n      swap1\n      div\n      0xffffffffffffffffffffffffffffffffffffffff\n      and\n        /* \"contracts/Vault.sol\":4199:4228  nfts[_nftIndex].nft == nft[i] */\n      0xffffffffffffffffffffffffffffffffffffffff\n      and\n      eq\n        /* \"contracts/Vault.sol\":4191:4264  require(nfts[_nftIndex].nft == nft[i] , \"Vault:: Incorrect NFT  address\") */\n      tag_556\n      jumpi\n      mload(0x40)\n      0x08c379a000000000000000000000000000000000000000000000000000000000\n      dup2\n      mstore\n      0x04\n      add\n      tag_557\n      swap1\n      tag_558\n      jump\t// in\n    tag_557:\n      mload(0x40)\n      dup1\n      swap2\n      sub\n      swap1\n      revert\n    tag_556:\n        /* \"contracts/Vault.sol\":4316:4321  nftId */\n      dup6\n        /* \"contracts/Vault.sol\":4322:4323  i */\n      dup4\n        /* \"contracts/Vault.sol\":4316:4324  nftId[i] */\n      0xffff\n      and\n      dup2\n      mload\n      dup2\n      lt\n      tag_559\n      jumpi\n      tag_560\n      tag_179\n      jump\t// in\n    tag_560:\n    tag_559:\n      0x20\n      mul\n      0x20\n      add\n      add\n      mload\n        /* \"contracts/Vault.sol\":4291:4295  nfts */\n      0x01\n        /* \"contracts/Vault.sol\":4296:4305  _nftIndex */\n      dup3\n        /* \"contracts/Vault.sol\":4291:4306  nfts[_nftIndex] */\n      dup2\n      sload\n      dup2\n      lt\n      tag_561\n      jumpi\n      tag_562\n      tag_179\n      jump\t// in\n    tag_562:\n    tag_561:\n      swap1\n      0x00\n      mstore\n      keccak256(0x00, 0x20)\n      swap1\n      0x05\n      mul\n      add\n        /* \"contracts/Vault.sol\":4291:4312  nfts[_nftIndex].nftId */\n      0x01\n      add\n      sload\n        /* \"contracts/Vault.sol\":4291:4324  nfts[_nftIndex].nftId == nftId[i] */\n      eq\n        /* \"contracts/Vault.sol\":4283:4354  require(nfts[_nftIndex].nftId == nftId[i] , \"Vault:: Incorrect NFT Id\") */\n      tag_564\n      jumpi\n      mload(0x40)\n      0x08c379a000000000000000000000000000000000000000000000000000000000\n      dup2\n      mstore\n      0x04\n      add\n      tag_565\n      swap1\n      tag_566\n      jump\t// in\n    tag_565:\n      mload(0x40)\n      dup1\n      swap2\n      sub\n      swap1\n      revert\n    tag_564:\n        /* \"contracts/Vault.sol\":4399:4405  amount */\n      dup5\n        /* \"contracts/Vault.sol\":4406:4407  i */\n      dup4\n        /* \"contracts/Vault.sol\":4399:4408  amount[i] */\n      0xffff\n      and\n      dup2\n      mload\n      dup2\n      lt\n      tag_567\n      jumpi\n      tag_568\n      tag_179\n      jump\t// in\n    tag_568:\n    tag_567:\n      0x20\n      mul\n      0x20\n      add\n      add\n      mload\n        /* \"contracts/Vault.sol\":4373:4377  nfts */\n      0x01\n        /* \"contracts/Vault.sol\":4378:4387  _nftIndex */\n      dup3\n        /* \"contracts/Vault.sol\":4373:4388  nfts[_nftIndex] */\n      dup2\n      sload\n      dup2\n      lt\n      tag_569\n      jumpi\n      tag_570\n      tag_179\n      jump\t// in\n    tag_570:\n    tag_569:\n      swap1\n      0x00\n      mstore\n      keccak256(0x00, 0x20)\n      swap1\n      0x05\n      mul\n      add\n        /* \"contracts/Vault.sol\":4373:4395  nfts[_nftIndex].amount */\n      0x02\n      add\n      0x00\n        /* \"contracts/Vault.sol\":4373:4408  nfts[_nftIndex].amount += amount[i] */\n      dup3\n      dup3\n      sload\n      tag_572\n      swap2\n      swap1\n      tag_573\n      jump\t// in\n    tag_572:\n      swap3\n      pop\n      pop\n      dup2\n      swap1\n      sstore\n      pop\n        /* \"contracts/Vault.sol\":4091:4986  if(_nftIndex != NFT_NOT_EXIST && nfts[_nftIndex].state == State.NftState.freedom){... */\n      jump(tag_574)\n    tag_550:\n        /* \"contracts/Vault.sol\":4571:4575  nfts */\n      0x01\n        /* \"contracts/Vault.sol\":4581:4852  NFT({... */\n      mload(0x40)\n      dup1\n      0xc0\n      add\n      0x40\n      mstore\n      dup1\n        /* \"contracts/Vault.sol\":4615:4618  nft */\n      dup10\n        /* \"contracts/Vault.sol\":4619:4620  i */\n      dup7\n        /* \"contracts/Vault.sol\":4615:4621  nft[i] */\n      0xffff\n      and\n      dup2\n      mload\n      dup2\n      lt\n      tag_575\n      jumpi\n      tag_576\n      tag_179\n      jump\t// in\n    tag_576:\n    tag_575:\n      0x20\n      mul\n      0x20\n      add\n      add\n      mload\n        /* \"contracts/Vault.sol\":4581:4852  NFT({... */\n      0xffffffffffffffffffffffffffffffffffffffff\n      and\n      dup2\n      mstore\n      0x20\n      add\n        /* \"contracts/Vault.sol\":4652:4657  nftId */\n      dup9\n        /* \"contracts/Vault.sol\":4658:4659  i */\n      dup7\n        /* \"contracts/Vault.sol\":4652:4660  nftId[i] */\n      0xffff\n      and\n      dup2\n      mload\n      dup2\n      lt\n      tag_577\n      jumpi\n      tag_578\n      tag_179\n      jump\t// in\n    tag_578:\n    tag_577:\n      0x20\n      mul\n      0x20\n      add\n      add\n      mload\n        /* \"contracts/Vault.sol\":4581:4852  NFT({... */\n      dup2\n      mstore\n      0x20\n      add\n        /* \"contracts/Vault.sol\":4692:4698  amount */\n      dup8\n        /* \"contracts/Vault.sol\":4699:4700  i */\n      dup7\n        /* \"contracts/Vault.sol\":4692:4701  amount[i] */\n      0xffff\n      and\n      dup2\n      mload\n      dup2\n      lt\n      tag_579\n      jumpi\n      tag_580\n      tag_179\n      jump\t// in\n    tag_580:\n    tag_579:\n      0x20\n      mul\n      0x20\n      add\n      add\n      mload\n        /* \"contracts/Vault.sol\":4581:4852  NFT({... */\n      dup2\n      mstore\n      0x20\n      add\n        /* \"contracts/Vault.sol\":4731:4739  _nftType */\n      dup5\n        /* \"contracts/Vault.sol\":4581:4852  NFT({... */\n      0x02\n      dup2\n      gt\n      iszero\n      tag_581\n      jumpi\n      tag_582\n      tag_217\n      jump\t// in\n    tag_582:\n    tag_581:\n      dup2\n      mstore\n      0x20\n      add\n        /* \"contracts/Vault.sol\":4770:4792  State.NftState.freedom */\n      0x00\n        /* \"contracts/Vault.sol\":4581:4852  NFT({... */\n      0x02\n      dup2\n      gt\n      iszero\n      tag_583\n      jumpi\n      tag_584\n      tag_217\n      jump\t// in\n    tag_584:\n    tag_583:\n      dup2\n      mstore\n      0x20\n      add\n      mload(0x40)\n      dup1\n      0x40\n      add\n      0x40\n      mstore\n      dup1\n      0x04\n      dup2\n      mstore\n      0x20\n      add\n      0x6e6f6e6500000000000000000000000000000000000000000000000000000000\n      dup2\n      mstore\n      pop\n      dup2\n      mstore\n      pop\n        /* \"contracts/Vault.sol\":4571:4853  nfts.push(NFT({... */\n      swap1\n      dup1\n      0x01\n      dup2\n      sload\n      add\n      dup1\n      dup3\n      sstore\n      dup1\n      swap2\n      pop\n      pop\n      0x01\n      swap1\n      sub\n      swap1\n      0x00\n      mstore\n      keccak256(0x00, 0x20)\n      swap1\n      0x05\n      mul\n      add\n      0x00\n      swap1\n      swap2\n      swap1\n      swap2\n      swap1\n      swap2\n      pop\n      0x00\n      dup3\n      add\n      mload\n      dup2\n      0x00\n      add\n      exp(0x0100, 0x00)\n      dup2\n      sload\n      dup2\n      0xffffffffffffffffffffffffffffffffffffffff\n      mul\n      not\n      and\n      swap1\n      dup4\n      0xffffffffffffffffffffffffffffffffffffffff\n      and\n      mul\n      or\n      swap1\n      sstore\n      pop\n      0x20\n      dup3\n      add\n      mload\n      dup2\n      0x01\n      add\n      sstore\n      0x40\n      dup3\n      add\n      mload\n      dup2\n      0x02\n      add\n      sstore\n      0x60\n      dup3\n      add\n      mload\n      dup2\n      0x03\n      add\n      exp(0x0100, 0x00)\n      dup2\n      sload\n      dup2\n      0xff\n      mul\n      not\n      and\n      swap1\n      dup4\n      0x02\n      dup2\n      gt\n      iszero\n      tag_586\n      jumpi\n      tag_587\n      tag_217\n      jump\t// in\n    tag_587:\n    tag_586:\n      mul\n      or\n      swap1\n      sstore\n      pop\n      0x80\n      dup3\n      add\n      mload\n      dup2\n      0x03\n      add\n      exp(0x0100, 0x01)\n      dup2\n      sload\n      dup2\n      0xff\n      mul\n      not\n      and\n      swap1\n      dup4\n      0x02\n      dup2\n      gt\n      iszero\n      tag_588\n      jumpi\n      tag_589\n      tag_217\n      jump\t// in\n    tag_589:\n    tag_588:\n      mul\n      or\n      swap1\n      sstore\n      pop\n      0xa0\n      dup3\n      add\n      mload\n      dup2\n      0x04\n      add\n      swap1\n      dup1\n      mload\n      swap1\n      0x20\n      add\n      swap1\n      tag_590\n      swap3\n      swap2\n      swap1\n      tag_226\n      jump\t// in\n    tag_590:\n      pop\n      pop\n      pop\n        /* \"contracts/Vault.sol\":4914:4915  1 */\n      0x01\n        /* \"contracts/Vault.sol\":4901:4905  nfts */\n      dup1\n        /* \"contracts/Vault.sol\":4901:4912  nfts.length */\n      dup1\n      sload\n      swap1\n      pop\n        /* \"contracts/Vault.sol\":4901:4915  nfts.length -1 */\n      tag_591\n      swap2\n      swap1\n      tag_352\n      jump\t// in\n    tag_591:\n        /* \"contracts/Vault.sol\":4872:4880  nftIndex */\n      0x03\n        /* \"contracts/Vault.sol\":4872:4888  nftIndex[nft[i]] */\n      0x00\n        /* \"contracts/Vault.sol\":4881:4884  nft */\n      dup10\n        /* \"contracts/Vault.sol\":4885:4886  i */\n      dup7\n        /* \"contracts/Vault.sol\":4881:4887  nft[i] */\n      0xffff\n      and\n      dup2\n      mload\n      dup2\n      lt\n      tag_592\n      jumpi\n      tag_593\n      tag_179\n      jump\t// in\n    tag_593:\n    tag_592:\n      0x20\n      mul\n      0x20\n      add\n      add\n      mload\n        /* \"contracts/Vault.sol\":4872:4888  nftIndex[nft[i]] */\n      0xffffffffffffffffffffffffffffffffffffffff\n      and\n      0xffffffffffffffffffffffffffffffffffffffff\n      and\n      dup2\n      mstore\n      0x20\n      add\n      swap1\n      dup2\n      mstore\n      0x20\n      add\n      0x00\n      keccak256\n        /* \"contracts/Vault.sol\":4872:4898  nftIndex[nft[i]][nftId[i]] */\n      0x00\n        /* \"contracts/Vault.sol\":4889:4894  nftId */\n      dup9\n        /* \"contracts/Vault.sol\":4895:4896  i */\n      dup7\n        /* \"contracts/Vault.sol\":4889:4897  nftId[i] */\n      0xffff\n      and\n      dup2\n      mload\n      dup2\n      lt\n      tag_594\n      jumpi\n      tag_595\n      tag_179\n      jump\t// in\n    tag_595:\n    tag_594:\n      0x20\n      mul\n      0x20\n      add\n      add\n      mload\n        /* \"contracts/Vault.sol\":4872:4898  nftIndex[nft[i]][nftId[i]] */\n      dup2\n      mstore\n      0x20\n      add\n      swap1\n      dup2\n      mstore\n      0x20\n      add\n      0x00\n      keccak256\n        /* \"contracts/Vault.sol\":4872:4915  nftIndex[nft[i]][nftId[i]] = nfts.length -1 */\n      dup2\n      swap1\n      sstore\n      pop\n        /* \"contracts/Vault.sol\":4934:4970  addFreedomStateIndex(nfts.length -1) */\n      tag_596\n        /* \"contracts/Vault.sol\":4968:4969  1 */\n      0x01\n        /* \"contracts/Vault.sol\":4955:4959  nfts */\n      dup1\n        /* \"contracts/Vault.sol\":4955:4966  nfts.length */\n      dup1\n      sload\n      swap1\n      pop\n        /* \"contracts/Vault.sol\":4955:4969  nfts.length -1 */\n      tag_597\n      swap2\n      swap1\n      tag_352\n      jump\t// in\n    tag_597:\n        /* \"contracts/Vault.sol\":4934:4954  addFreedomStateIndex */\n      tag_506\n        /* \"contracts/Vault.sol\":4934:4970  addFreedomStateIndex(nfts.length -1) */\n      jump\t// in\n    tag_596:\n        /* \"contracts/Vault.sol\":4091:4986  if(_nftIndex != NFT_NOT_EXIST && nfts[_nftIndex].state == State.NftState.freedom){... */\n    tag_574:\n        /* \"contracts/Vault.sol\":3463:4997  {... */\n      pop\n      pop\n        /* \"contracts/Vault.sol\":3458:3461  i++ */\n      dup1\n      dup1\n      tag_598\n      swap1\n      tag_310\n      jump\t// in\n    tag_598:\n      swap2\n      pop\n      pop\n        /* \"contracts/Vault.sol\":3423:4997  for(uint16 i = 0; i < nft.length ; i++) {... */\n      jump(tag_519)\n    tag_520:\n      pop\n        /* \"contracts/Vault.sol\":3194:5004  function _depositNFT(address[] memory nft , uint256[] memory nftId , uint256[] memory amount, address sender) private {... */\n      pop\n      pop\n      pop\n      pop\n      jump\t// out\n        /* \"@openzeppelin/contracts/utils/introspection/ERC165Checker.sol\":1233:1519  function supportsInterface(address account, bytes4 interfaceId) internal view returns (bool) {... */\n    tag_453:\n        /* \"@openzeppelin/contracts/utils/introspection/ERC165Checker.sol\":1320:1324  bool */\n      0x00\n        /* \"@openzeppelin/contracts/utils/introspection/ERC165Checker.sol\":1427:1450  supportsERC165(account) */\n      tag_600\n        /* \"@openzeppelin/contracts/utils/introspection/ERC165Checker.sol\":1442:1449  account */\n      dup4\n        /* \"@openzeppelin/contracts/utils/introspection/ERC165Checker.sol\":1427:1441  supportsERC165 */\n      tag_601\n        /* \"@openzeppelin/contracts/utils/introspection/ERC165Checker.sol\":1427:1450  supportsERC165(account) */\n      jump\t// in\n    tag_600:\n        /* \"@openzeppelin/contracts/utils/introspection/ERC165Checker.sol\":1427:1512  supportsERC165(account) &&... */\n      dup1\n      iszero\n      tag_602\n      jumpi\n      pop\n        /* \"@openzeppelin/contracts/utils/introspection/ERC165Checker.sol\":1466:1512  _supportsERC165Interface(account, interfaceId) */\n      tag_603\n        /* \"@openzeppelin/contracts/utils/introspection/ERC165Checker.sol\":1491:1498  account */\n      dup4\n        /* \"@openzeppelin/contracts/utils/introspection/ERC165Checker.sol\":1500:1511  interfaceId */\n      dup4\n        /* \"@openzeppelin/contracts/utils/introspection/ERC165Checker.sol\":1466:1490  _supportsERC165Interface */\n      tag_604\n        /* \"@openzeppelin/contracts/utils/introspection/ERC165Checker.sol\":1466:1512  _supportsERC165Interface(account, interfaceId) */\n      jump\t// in\n    tag_603:\n        /* \"@openzeppelin/contracts/utils/introspection/ERC165Checker.sol\":1427:1512  supportsERC165(account) &&... */\n    tag_602:\n        /* \"@openzeppelin/contracts/utils/introspection/ERC165Checker.sol\":1420:1512  return supportsERC165(account) &&... */\n      swap1\n      pop\n        /* \"@openzeppelin/contracts/utils/introspection/ERC165Checker.sol\":1233:1519  function supportsInterface(address account, bytes4 interfaceId) internal view returns (bool) {... */\n      swap3\n      swap2\n      pop\n      pop\n      jump\t// out\n        /* \"contracts/Vault.sol\":9030:9135  function addFreedomStateIndex(uint256 index) private {... */\n    tag_506:\n        /* \"contracts/Vault.sol\":9094:9115  freedomNFTInNFTSIndex */\n      0x02\n        /* \"contracts/Vault.sol\":9121:9126  index */\n      dup2\n        /* \"contracts/Vault.sol\":9094:9127  freedomNFTInNFTSIndex.push(index) */\n      swap1\n      dup1\n      0x01\n      dup2\n      sload\n      add\n      dup1\n      dup3\n      sstore\n      dup1\n      swap2\n      pop\n      pop\n      0x01\n      swap1\n      sub\n      swap1\n      0x00\n      mstore\n      keccak256(0x00, 0x20)\n      add\n      0x00\n      swap1\n      swap2\n      swap1\n      swap2\n      swap1\n      swap2\n      pop\n      sstore\n        /* \"contracts/Vault.sol\":9030:9135  function addFreedomStateIndex(uint256 index) private {... */\n      pop\n      jump\t// out\n        /* \"contracts/Vault.sol\":9143:9501  function deleteFreedomStateIndex(uint256 index) private {... */\n    tag_509:\n        /* \"contracts/Vault.sol\":9214:9222  uint32 i */\n      0x00\n        /* \"contracts/Vault.sol\":9210:9494  for(uint32 i = 0; i < freedomNFTInNFTSIndex.length ; i++) {... */\n    tag_608:\n        /* \"contracts/Vault.sol\":9232:9253  freedomNFTInNFTSIndex */\n      0x02\n        /* \"contracts/Vault.sol\":9232:9260  freedomNFTInNFTSIndex.length */\n      dup1\n      sload\n      swap1\n      pop\n        /* \"contracts/Vault.sol\":9228:9229  i */\n      dup2\n        /* \"contracts/Vault.sol\":9228:9260  i < freedomNFTInNFTSIndex.length */\n      0xffffffff\n      and\n      lt\n        /* \"contracts/Vault.sol\":9210:9494  for(uint32 i = 0; i < freedomNFTInNFTSIndex.length ; i++) {... */\n      iszero\n      tag_609\n      jumpi\n        /* \"contracts/Vault.sol\":9314:9319  index */\n      dup2\n        /* \"contracts/Vault.sol\":9286:9307  freedomNFTInNFTSIndex */\n      0x02\n        /* \"contracts/Vault.sol\":9308:9309  i */\n      dup3\n        /* \"contracts/Vault.sol\":9286:9310  freedomNFTInNFTSIndex[i] */\n      0xffffffff\n      and\n      dup2\n      sload\n      dup2\n      lt\n      tag_611\n      jumpi\n      tag_612\n      tag_179\n      jump\t// in\n    tag_612:\n    tag_611:\n      swap1\n      0x00\n      mstore\n      keccak256(0x00, 0x20)\n      add\n      sload\n        /* \"contracts/Vault.sol\":9286:9319  freedomNFTInNFTSIndex[i] == index */\n      eq\n        /* \"contracts/Vault.sol\":9283:9483  if(freedomNFTInNFTSIndex[i] == index) {... */\n      iszero\n      tag_614\n      jumpi\n        /* \"contracts/Vault.sol\":9367:9388  freedomNFTInNFTSIndex */\n      0x02\n        /* \"contracts/Vault.sol\":9418:9419  1 */\n      0x01\n        /* \"contracts/Vault.sol\":9389:9410  freedomNFTInNFTSIndex */\n      0x02\n        /* \"contracts/Vault.sol\":9389:9417  freedomNFTInNFTSIndex.length */\n      dup1\n      sload\n      swap1\n      pop\n        /* \"contracts/Vault.sol\":9389:9419  freedomNFTInNFTSIndex.length-1 */\n      tag_615\n      swap2\n      swap1\n      tag_352\n      jump\t// in\n    tag_615:\n        /* \"contracts/Vault.sol\":9367:9420  freedomNFTInNFTSIndex[freedomNFTInNFTSIndex.length-1] */\n      dup2\n      sload\n      dup2\n      lt\n      tag_616\n      jumpi\n      tag_617\n      tag_179\n      jump\t// in\n    tag_617:\n    tag_616:\n      swap1\n      0x00\n      mstore\n      keccak256(0x00, 0x20)\n      add\n      sload\n        /* \"contracts/Vault.sol\":9340:9361  freedomNFTInNFTSIndex */\n      0x02\n        /* \"contracts/Vault.sol\":9362:9363  i */\n      dup3\n        /* \"contracts/Vault.sol\":9340:9364  freedomNFTInNFTSIndex[i] */\n      0xffffffff\n      and\n      dup2\n      sload\n      dup2\n      lt\n      tag_619\n      jumpi\n      tag_620\n      tag_179\n      jump\t// in\n    tag_620:\n    tag_619:\n      swap1\n      0x00\n      mstore\n      keccak256(0x00, 0x20)\n      add\n        /* \"contracts/Vault.sol\":9340:9420  freedomNFTInNFTSIndex[i] = freedomNFTInNFTSIndex[freedomNFTInNFTSIndex.length-1] */\n      dup2\n      swap1\n      sstore\n      pop\n        /* \"contracts/Vault.sol\":9439:9460  freedomNFTInNFTSIndex */\n      0x02\n        /* \"contracts/Vault.sol\":9439:9466  freedomNFTInNFTSIndex.pop() */\n      dup1\n      sload\n      dup1\n      tag_622\n      jumpi\n      tag_623\n      tag_624\n      jump\t// in\n    tag_623:\n    tag_622:\n      0x01\n      swap1\n      sub\n      dup2\n      dup2\n      swap1\n      0x00\n      mstore\n      keccak256(0x00, 0x20)\n      add\n      0x00\n      swap1\n      sstore\n      swap1\n      sstore\n        /* \"contracts/Vault.sol\":9283:9483  if(freedomNFTInNFTSIndex[i] == index) {... */\n    tag_614:\n        /* \"contracts/Vault.sol\":9263:9266  i++ */\n      dup1\n      dup1\n      tag_626\n      swap1\n      tag_627\n      jump\t// in\n    tag_626:\n      swap2\n      pop\n      pop\n        /* \"contracts/Vault.sol\":9210:9494  for(uint32 i = 0; i < freedomNFTInNFTSIndex.length ; i++) {... */\n      jump(tag_608)\n    tag_609:\n      pop\n        /* \"contracts/Vault.sol\":9143:9501  function deleteFreedomStateIndex(uint256 index) private {... */\n      pop\n      jump\t// out\n        /* \"@openzeppelin/contracts/utils/introspection/ERC165Checker.sol\":616:1015  function supportsERC165(address account) internal view returns (bool) {... */\n    tag_601:\n        /* \"@openzeppelin/contracts/utils/introspection/ERC165Checker.sol\":680:684  bool */\n      0x00\n        /* \"@openzeppelin/contracts/utils/introspection/ERC165Checker.sol\":875:935  _supportsERC165Interface(account, type(IERC165).interfaceId) */\n      tag_629\n        /* \"@openzeppelin/contracts/utils/introspection/ERC165Checker.sol\":900:907  account */\n      dup3\n        /* \"@openzeppelin/contracts/utils/introspection/ERC165Checker.sol\":909:934  type(IERC165).interfaceId */\n      0x01ffc9a700000000000000000000000000000000000000000000000000000000\n        /* \"@openzeppelin/contracts/utils/introspection/ERC165Checker.sol\":875:899  _supportsERC165Interface */\n      tag_604\n        /* \"@openzeppelin/contracts/utils/introspection/ERC165Checker.sol\":875:935  _supportsERC165Interface(account, type(IERC165).interfaceId) */\n      jump\t// in\n    tag_629:\n        /* \"@openzeppelin/contracts/utils/introspection/ERC165Checker.sol\":875:1008  _supportsERC165Interface(account, type(IERC165).interfaceId) &&... */\n      dup1\n      iszero\n      tag_630\n      jumpi\n      pop\n        /* \"@openzeppelin/contracts/utils/introspection/ERC165Checker.sol\":952:1008  _supportsERC165Interface(account, _INTERFACE_ID_INVALID) */\n      tag_631\n        /* \"@openzeppelin/contracts/utils/introspection/ERC165Checker.sol\":977:984  account */\n      dup3\n        /* \"@openzeppelin/contracts/utils/introspection/ERC165Checker.sol\":511:521  0xffffffff */\n      0xffffffff\n        /* \"@openzeppelin/contracts/utils/introspection/ERC165Checker.sol\":986:1007  _INTERFACE_ID_INVALID */\n      0xe0\n      shl\n        /* \"@openzeppelin/contracts/utils/introspection/ERC165Checker.sol\":952:976  _supportsERC165Interface */\n      tag_604\n        /* \"@openzeppelin/contracts/utils/introspection/ERC165Checker.sol\":952:1008  _supportsERC165Interface(account, _INTERFACE_ID_INVALID) */\n      jump\t// in\n    tag_631:\n        /* \"@openzeppelin/contracts/utils/introspection/ERC165Checker.sol\":951:1008  !_supportsERC165Interface(account, _INTERFACE_ID_INVALID) */\n      iszero\n        /* \"@openzeppelin/contracts/utils/introspection/ERC165Checker.sol\":875:1008  _supportsERC165Interface(account, type(IERC165).interfaceId) &&... */\n    tag_630:\n        /* \"@openzeppelin/contracts/utils/introspection/ERC165Checker.sol\":868:1008  return _supportsERC165Interface(account, type(IERC165).interfaceId) &&... */\n      swap1\n      pop\n        /* \"@openzeppelin/contracts/utils/introspection/ERC165Checker.sol\":616:1015  function supportsERC165(address account) internal view returns (bool) {... */\n      swap2\n      swap1\n      pop\n      jump\t// out\n        /* \"@openzeppelin/contracts/utils/introspection/ERC165Checker.sol\":4107:4527  function _supportsERC165Interface(address account, bytes4 interfaceId) private view returns (bool) {... */\n    tag_604:\n        /* \"@openzeppelin/contracts/utils/introspection/ERC165Checker.sol\":4200:4204  bool */\n      0x00\n        /* \"@openzeppelin/contracts/utils/introspection/ERC165Checker.sol\":4216:4242  bytes memory encodedParams */\n      dup1\n        /* \"@openzeppelin/contracts/utils/introspection/ERC165Checker.sol\":4268:4311  IERC165(account).supportsInterface.selector */\n      shl(0xe0, 0x01ffc9a7)\n        /* \"@openzeppelin/contracts/utils/introspection/ERC165Checker.sol\":4313:4324  interfaceId */\n      dup4\n        /* \"@openzeppelin/contracts/utils/introspection/ERC165Checker.sol\":4245:4325  abi.encodeWithSelector(IERC165(account).supportsInterface.selector, interfaceId) */\n      add(0x24, mload(0x40))\n      tag_633\n      swap2\n      swap1\n      tag_45\n      jump\t// in\n    tag_633:\n      mload(0x40)\n      0x20\n      dup2\n      dup4\n      sub\n      sub\n      dup2\n      mstore\n      swap1\n      0x40\n      mstore\n      swap1\n      not(0xffffffffffffffffffffffffffffffffffffffffffffffffffffffff)\n      and\n      0x20\n      dup3\n      add\n      dup1\n      mload\n      0xffffffffffffffffffffffffffffffffffffffffffffffffffffffff\n      dup4\n      dup2\n      dup4\n      and\n      or\n      dup4\n      mstore\n      pop\n      pop\n      pop\n      pop\n        /* \"@openzeppelin/contracts/utils/introspection/ERC165Checker.sol\":4216:4325  bytes memory encodedParams = abi.encodeWithSelector(IERC165(account).supportsInterface.selector, interfaceId) */\n      swap1\n      pop\n        /* \"@openzeppelin/contracts/utils/introspection/ERC165Checker.sol\":4336:4348  bool success */\n      0x00\n        /* \"@openzeppelin/contracts/utils/introspection/ERC165Checker.sol\":4350:4369  bytes memory result */\n      dup1\n        /* \"@openzeppelin/contracts/utils/introspection/ERC165Checker.sol\":4373:4380  account */\n      dup6\n        /* \"@openzeppelin/contracts/utils/introspection/ERC165Checker.sol\":4373:4391  account.staticcall */\n      0xffffffffffffffffffffffffffffffffffffffff\n      and\n        /* \"@openzeppelin/contracts/utils/introspection/ERC165Checker.sol\":4398:4403  30000 */\n      0x7530\n        /* \"@openzeppelin/contracts/utils/introspection/ERC165Checker.sol\":4406:4419  encodedParams */\n      dup5\n        /* \"@openzeppelin/contracts/utils/introspection/ERC165Checker.sol\":4373:4420  account.staticcall{ gas: 30000 }(encodedParams) */\n      mload(0x40)\n      tag_634\n      swap2\n      swap1\n      tag_635\n      jump\t// in\n    tag_634:\n      0x00\n      mload(0x40)\n      dup1\n      dup4\n      sub\n      dup2\n      dup7\n      dup7\n      staticcall\n      swap3\n      pop\n      pop\n      pop\n      returndatasize\n      dup1\n      0x00\n      dup2\n      eq\n      tag_638\n      jumpi\n      mload(0x40)\n      swap2\n      pop\n      and(add(returndatasize, 0x3f), not(0x1f))\n      dup3\n      add\n      0x40\n      mstore\n      returndatasize\n      dup3\n      mstore\n      returndatasize\n      0x00\n      0x20\n      dup5\n      add\n      returndatacopy\n      jump(tag_637)\n    tag_638:\n      0x60\n      swap2\n      pop\n    tag_637:\n      pop\n        /* \"@openzeppelin/contracts/utils/introspection/ERC165Checker.sol\":4335:4420  (bool success, bytes memory result) = account.staticcall{ gas: 30000 }(encodedParams) */\n      swap2\n      pop\n      swap2\n      pop\n        /* \"@openzeppelin/contracts/utils/introspection/ERC165Checker.sol\":4450:4452  32 */\n      0x20\n        /* \"@openzeppelin/contracts/utils/introspection/ERC165Checker.sol\":4434:4440  result */\n      dup2\n        /* \"@openzeppelin/contracts/utils/introspection/ERC165Checker.sol\":4434:4447  result.length */\n      mload\n        /* \"@openzeppelin/contracts/utils/introspection/ERC165Checker.sol\":4434:4452  result.length < 32 */\n      lt\n        /* \"@openzeppelin/contracts/utils/introspection/ERC165Checker.sol\":4430:4466  if (result.length < 32) return false */\n      iszero\n      tag_639\n      jumpi\n        /* \"@openzeppelin/contracts/utils/introspection/ERC165Checker.sol\":4461:4466  false */\n      0x00\n        /* \"@openzeppelin/contracts/utils/introspection/ERC165Checker.sol\":4454:4466  return false */\n      swap4\n      pop\n      pop\n      pop\n      pop\n      jump(tag_632)\n        /* \"@openzeppelin/contracts/utils/introspection/ERC165Checker.sol\":4430:4466  if (result.length < 32) return false */\n    tag_639:\n        /* \"@openzeppelin/contracts/utils/introspection/ERC165Checker.sol\":4483:4490  success */\n      dup2\n        /* \"@openzeppelin/contracts/utils/introspection/ERC165Checker.sol\":4483:4520  success && abi.decode(result, (bool)) */\n      dup1\n      iszero\n      tag_640\n      jumpi\n      pop\n        /* \"@openzeppelin/contracts/utils/introspection/ERC165Checker.sol\":4505:4511  result */\n      dup1\n        /* \"@openzeppelin/contracts/utils/introspection/ERC165Checker.sol\":4494:4520  abi.decode(result, (bool)) */\n      dup1\n      0x20\n      add\n      swap1\n      mload\n      dup2\n      add\n      swap1\n      tag_641\n      swap2\n      swap1\n      tag_142\n      jump\t// in\n    tag_641:\n        /* \"@openzeppelin/contracts/utils/introspection/ERC165Checker.sol\":4483:4520  success && abi.decode(result, (bool)) */\n    tag_640:\n        /* \"@openzeppelin/contracts/utils/introspection/ERC165Checker.sol\":4476:4520  return success && abi.decode(result, (bool)) */\n      swap4\n      pop\n      pop\n      pop\n      pop\n        /* \"@openzeppelin/contracts/utils/introspection/ERC165Checker.sol\":4107:4527  function _supportsERC165Interface(address account, bytes4 interfaceId) private view returns (bool) {... */\n    tag_632:\n      swap3\n      swap2\n      pop\n      pop\n      jump\t// out\n    tag_226:\n      dup3\n      dup1\n      sload\n      tag_642\n      swap1\n      tag_161\n      jump\t// in\n    tag_642:\n      swap1\n      0x00\n      mstore\n      keccak256(0x00, 0x20)\n      swap1\n      0x1f\n      add\n      0x20\n      swap1\n      div\n      dup2\n      add\n      swap3\n      dup3\n      tag_644\n      jumpi\n      0x00\n      dup6\n      sstore\n      jump(tag_643)\n    tag_644:\n      dup3\n      0x1f\n      lt\n      tag_645\n      jumpi\n      dup1\n      mload\n      not(0xff)\n      and\n      dup4\n      dup1\n      add\n      or\n      dup6\n      sstore\n      jump(tag_643)\n    tag_645:\n      dup3\n      dup1\n      add\n      0x01\n      add\n      dup6\n      sstore\n      dup3\n      iszero\n      tag_643\n      jumpi\n      swap2\n      dup3\n      add\n    tag_646:\n      dup3\n      dup2\n      gt\n      iszero\n      tag_647\n      jumpi\n      dup3\n      mload\n      dup3\n      sstore\n      swap2\n      0x20\n      add\n      swap2\n      swap1\n      0x01\n      add\n      swap1\n      jump(tag_646)\n    tag_647:\n    tag_643:\n      pop\n      swap1\n      pop\n      tag_648\n      swap2\n      swap1\n      tag_649\n      jump\t// in\n    tag_648:\n      pop\n      swap1\n      jump\t// out\n    tag_649:\n    tag_650:\n      dup1\n      dup3\n      gt\n      iszero\n      tag_651\n      jumpi\n      0x00\n      dup2\n      0x00\n      swap1\n      sstore\n      pop\n      0x01\n      add\n      jump(tag_650)\n    tag_651:\n      pop\n      swap1\n      jump\t// out\n        /* \"#utility.yul\":7:82   */\n    tag_652:\n        /* \"#utility.yul\":40:46   */\n      0x00\n        /* \"#utility.yul\":73:75   */\n      0x40\n        /* \"#utility.yul\":67:76   */\n      mload\n        /* \"#utility.yul\":57:76   */\n      swap1\n      pop\n        /* \"#utility.yul\":7:82   */\n      swap1\n      jump\t// out\n        /* \"#utility.yul\":88:205   */\n    tag_653:\n        /* \"#utility.yul\":197:198   */\n      0x00\n        /* \"#utility.yul\":194:195   */\n      dup1\n        /* \"#utility.yul\":187:199   */\n      revert\n        /* \"#utility.yul\":211:328   */\n    tag_654:\n        /* \"#utility.yul\":320:321   */\n      0x00\n        /* \"#utility.yul\":317:318   */\n      dup1\n        /* \"#utility.yul\":310:322   */\n      revert\n        /* \"#utility.yul\":334:451   */\n    tag_655:\n        /* \"#utility.yul\":443:444   */\n      0x00\n        /* \"#utility.yul\":440:441   */\n      dup1\n        /* \"#utility.yul\":433:445   */\n      revert\n        /* \"#utility.yul\":457:559   */\n    tag_656:\n        /* \"#utility.yul\":498:504   */\n      0x00\n        /* \"#utility.yul\":549:551   */\n      0x1f\n        /* \"#utility.yul\":545:552   */\n      not\n        /* \"#utility.yul\":540:542   */\n      0x1f\n        /* \"#utility.yul\":533:538   */\n      dup4\n        /* \"#utility.yul\":529:543   */\n      add\n        /* \"#utility.yul\":525:553   */\n      and\n        /* \"#utility.yul\":515:553   */\n      swap1\n      pop\n        /* \"#utility.yul\":457:559   */\n      swap2\n      swap1\n      pop\n      jump\t// out\n        /* \"#utility.yul\":565:745   */\n    tag_657:\n        /* \"#utility.yul\":613:690   */\n      0x4e487b7100000000000000000000000000000000000000000000000000000000\n        /* \"#utility.yul\":610:611   */\n      0x00\n        /* \"#utility.yul\":603:691   */\n      mstore\n        /* \"#utility.yul\":710:714   */\n      0x41\n        /* \"#utility.yul\":707:708   */\n      0x04\n        /* \"#utility.yul\":700:715   */\n      mstore\n        /* \"#utility.yul\":734:738   */\n      0x24\n        /* \"#utility.yul\":731:732   */\n      0x00\n        /* \"#utility.yul\":724:739   */\n      revert\n        /* \"#utility.yul\":751:1032   */\n    tag_658:\n        /* \"#utility.yul\":834:861   */\n      tag_772\n        /* \"#utility.yul\":856:860   */\n      dup3\n        /* \"#utility.yul\":834:861   */\n      tag_656\n      jump\t// in\n    tag_772:\n        /* \"#utility.yul\":826:832   */\n      dup2\n        /* \"#utility.yul\":822:862   */\n      add\n        /* \"#utility.yul\":964:970   */\n      dup2\n        /* \"#utility.yul\":952:962   */\n      dup2\n        /* \"#utility.yul\":949:971   */\n      lt\n        /* \"#utility.yul\":928:946   */\n      0xffffffffffffffff\n        /* \"#utility.yul\":916:926   */\n      dup3\n        /* \"#utility.yul\":913:947   */\n      gt\n        /* \"#utility.yul\":910:972   */\n      or\n        /* \"#utility.yul\":907:995   */\n      iszero\n      tag_773\n      jumpi\n        /* \"#utility.yul\":975:993   */\n      tag_774\n      tag_657\n      jump\t// in\n    tag_774:\n        /* \"#utility.yul\":907:995   */\n    tag_773:\n        /* \"#utility.yul\":1015:1025   */\n      dup1\n        /* \"#utility.yul\":1011:1013   */\n      0x40\n        /* \"#utility.yul\":1004:1026   */\n      mstore\n        /* \"#utility.yul\":794:1032   */\n      pop\n        /* \"#utility.yul\":751:1032   */\n      pop\n      pop\n      jump\t// out\n        /* \"#utility.yul\":1038:1167   */\n    tag_659:\n        /* \"#utility.yul\":1072:1078   */\n      0x00\n        /* \"#utility.yul\":1099:1119   */\n      tag_776\n      tag_652\n      jump\t// in\n    tag_776:\n        /* \"#utility.yul\":1089:1119   */\n      swap1\n      pop\n        /* \"#utility.yul\":1128:1161   */\n      tag_777\n        /* \"#utility.yul\":1156:1160   */\n      dup3\n        /* \"#utility.yul\":1148:1154   */\n      dup3\n        /* \"#utility.yul\":1128:1161   */\n      tag_658\n      jump\t// in\n    tag_777:\n        /* \"#utility.yul\":1038:1167   */\n      swap2\n      swap1\n      pop\n      jump\t// out\n        /* \"#utility.yul\":1173:1484   */\n    tag_660:\n        /* \"#utility.yul\":1250:1254   */\n      0x00\n        /* \"#utility.yul\":1340:1358   */\n      0xffffffffffffffff\n        /* \"#utility.yul\":1332:1338   */\n      dup3\n        /* \"#utility.yul\":1329:1359   */\n      gt\n        /* \"#utility.yul\":1326:1382   */\n      iszero\n      tag_779\n      jumpi\n        /* \"#utility.yul\":1362:1380   */\n      tag_780\n      tag_657\n      jump\t// in\n    tag_780:\n        /* \"#utility.yul\":1326:1382   */\n    tag_779:\n        /* \"#utility.yul\":1412:1416   */\n      0x20\n        /* \"#utility.yul\":1404:1410   */\n      dup3\n        /* \"#utility.yul\":1400:1417   */\n      mul\n        /* \"#utility.yul\":1392:1417   */\n      swap1\n      pop\n        /* \"#utility.yul\":1472:1476   */\n      0x20\n        /* \"#utility.yul\":1466:1470   */\n      dup2\n        /* \"#utility.yul\":1462:1477   */\n      add\n        /* \"#utility.yul\":1454:1477   */\n      swap1\n      pop\n        /* \"#utility.yul\":1173:1484   */\n      swap2\n      swap1\n      pop\n      jump\t// out\n        /* \"#utility.yul\":1490:1607   */\n    tag_661:\n        /* \"#utility.yul\":1599:1600   */\n      0x00\n        /* \"#utility.yul\":1596:1597   */\n      dup1\n        /* \"#utility.yul\":1589:1601   */\n      revert\n        /* \"#utility.yul\":1613:1690   */\n    tag_662:\n        /* \"#utility.yul\":1650:1657   */\n      0x00\n        /* \"#utility.yul\":1679:1684   */\n      dup2\n        /* \"#utility.yul\":1668:1684   */\n      swap1\n      pop\n        /* \"#utility.yul\":1613:1690   */\n      swap2\n      swap1\n      pop\n      jump\t// out\n        /* \"#utility.yul\":1696:1818   */\n    tag_663:\n        /* \"#utility.yul\":1769:1793   */\n      tag_784\n        /* \"#utility.yul\":1787:1792   */\n      dup2\n        /* \"#utility.yul\":1769:1793   */\n      tag_662\n      jump\t// in\n    tag_784:\n        /* \"#utility.yul\":1762:1767   */\n      dup2\n        /* \"#utility.yul\":1759:1794   */\n      eq\n        /* \"#utility.yul\":1749:1812   */\n      tag_785\n      jumpi\n        /* \"#utility.yul\":1808:1809   */\n      0x00\n        /* \"#utility.yul\":1805:1806   */\n      dup1\n        /* \"#utility.yul\":1798:1810   */\n      revert\n        /* \"#utility.yul\":1749:1812   */\n    tag_785:\n        /* \"#utility.yul\":1696:1818   */\n      pop\n      jump\t// out\n        /* \"#utility.yul\":1824:1963   */\n    tag_664:\n        /* \"#utility.yul\":1870:1875   */\n      0x00\n        /* \"#utility.yul\":1908:1914   */\n      dup2\n        /* \"#utility.yul\":1895:1915   */\n      calldataload\n        /* \"#utility.yul\":1886:1915   */\n      swap1\n      pop\n        /* \"#utility.yul\":1924:1957   */\n      tag_787\n        /* \"#utility.yul\":1951:1956   */\n      dup2\n        /* \"#utility.yul\":1924:1957   */\n      tag_663\n      jump\t// in\n    tag_787:\n        /* \"#utility.yul\":1824:1963   */\n      swap3\n      swap2\n      pop\n      pop\n      jump\t// out\n        /* \"#utility.yul\":1986:2696   */\n    tag_665:\n        /* \"#utility.yul\":2082:2087   */\n      0x00\n        /* \"#utility.yul\":2107:2188   */\n      tag_789\n        /* \"#utility.yul\":2123:2187   */\n      tag_790\n        /* \"#utility.yul\":2180:2186   */\n      dup5\n        /* \"#utility.yul\":2123:2187   */\n      tag_660\n      jump\t// in\n    tag_790:\n        /* \"#utility.yul\":2107:2188   */\n      tag_659\n      jump\t// in\n    tag_789:\n        /* \"#utility.yul\":2098:2188   */\n      swap1\n      pop\n        /* \"#utility.yul\":2208:2213   */\n      dup1\n        /* \"#utility.yul\":2237:2243   */\n      dup4\n        /* \"#utility.yul\":2230:2235   */\n      dup3\n        /* \"#utility.yul\":2223:2244   */\n      mstore\n        /* \"#utility.yul\":2271:2275   */\n      0x20\n        /* \"#utility.yul\":2264:2269   */\n      dup3\n        /* \"#utility.yul\":2260:2276   */\n      add\n        /* \"#utility.yul\":2253:2276   */\n      swap1\n      pop\n        /* \"#utility.yul\":2324:2328   */\n      0x20\n        /* \"#utility.yul\":2316:2322   */\n      dup5\n        /* \"#utility.yul\":2312:2329   */\n      mul\n        /* \"#utility.yul\":2304:2310   */\n      dup4\n        /* \"#utility.yul\":2300:2330   */\n      add\n        /* \"#utility.yul\":2353:2356   */\n      dup6\n        /* \"#utility.yul\":2345:2351   */\n      dup2\n        /* \"#utility.yul\":2342:2357   */\n      gt\n        /* \"#utility.yul\":2339:2461   */\n      iszero\n      tag_791\n      jumpi\n        /* \"#utility.yul\":2372:2451   */\n      tag_792\n      tag_661\n      jump\t// in\n    tag_792:\n        /* \"#utility.yul\":2339:2461   */\n    tag_791:\n        /* \"#utility.yul\":2487:2493   */\n      dup4\n        /* \"#utility.yul\":2470:2690   */\n    tag_793:\n        /* \"#utility.yul\":2504:2510   */\n      dup2\n        /* \"#utility.yul\":2499:2502   */\n      dup2\n        /* \"#utility.yul\":2496:2511   */\n      lt\n        /* \"#utility.yul\":2470:2690   */\n      iszero\n      tag_795\n      jumpi\n        /* \"#utility.yul\":2579:2582   */\n      dup1\n        /* \"#utility.yul\":2608:2645   */\n      tag_796\n        /* \"#utility.yul\":2641:2644   */\n      dup9\n        /* \"#utility.yul\":2629:2639   */\n      dup3\n        /* \"#utility.yul\":2608:2645   */\n      tag_664\n      jump\t// in\n    tag_796:\n        /* \"#utility.yul\":2603:2606   */\n      dup5\n        /* \"#utility.yul\":2596:2646   */\n      mstore\n        /* \"#utility.yul\":2675:2679   */\n      0x20\n        /* \"#utility.yul\":2670:2673   */\n      dup5\n        /* \"#utility.yul\":2666:2680   */\n      add\n        /* \"#utility.yul\":2659:2680   */\n      swap4\n      pop\n        /* \"#utility.yul\":2546:2690   */\n      pop\n        /* \"#utility.yul\":2530:2534   */\n      0x20\n        /* \"#utility.yul\":2525:2528   */\n      dup2\n        /* \"#utility.yul\":2521:2535   */\n      add\n        /* \"#utility.yul\":2514:2535   */\n      swap1\n      pop\n        /* \"#utility.yul\":2470:2690   */\n      jump(tag_793)\n    tag_795:\n        /* \"#utility.yul\":2474:2495   */\n      pop\n        /* \"#utility.yul\":2088:2696   */\n      pop\n      pop\n        /* \"#utility.yul\":1986:2696   */\n      swap4\n      swap3\n      pop\n      pop\n      pop\n      jump\t// out\n        /* \"#utility.yul\":2719:3089   */\n    tag_666:\n        /* \"#utility.yul\":2790:2795   */\n      0x00\n        /* \"#utility.yul\":2839:2842   */\n      dup3\n        /* \"#utility.yul\":2832:2836   */\n      0x1f\n        /* \"#utility.yul\":2824:2830   */\n      dup4\n        /* \"#utility.yul\":2820:2837   */\n      add\n        /* \"#utility.yul\":2816:2843   */\n      slt\n        /* \"#utility.yul\":2806:2928   */\n      tag_798\n      jumpi\n        /* \"#utility.yul\":2847:2926   */\n      tag_799\n      tag_655\n      jump\t// in\n    tag_799:\n        /* \"#utility.yul\":2806:2928   */\n    tag_798:\n        /* \"#utility.yul\":2964:2970   */\n      dup2\n        /* \"#utility.yul\":2951:2971   */\n      calldataload\n        /* \"#utility.yul\":2989:3083   */\n      tag_800\n        /* \"#utility.yul\":3079:3082   */\n      dup5\n        /* \"#utility.yul\":3071:3077   */\n      dup3\n        /* \"#utility.yul\":3064:3068   */\n      0x20\n        /* \"#utility.yul\":3056:3062   */\n      dup7\n        /* \"#utility.yul\":3052:3069   */\n      add\n        /* \"#utility.yul\":2989:3083   */\n      tag_665\n      jump\t// in\n    tag_800:\n        /* \"#utility.yul\":2980:3083   */\n      swap2\n      pop\n        /* \"#utility.yul\":2796:3089   */\n      pop\n        /* \"#utility.yul\":2719:3089   */\n      swap3\n      swap2\n      pop\n      pop\n      jump\t// out\n        /* \"#utility.yul\":3095:3221   */\n    tag_667:\n        /* \"#utility.yul\":3132:3139   */\n      0x00\n        /* \"#utility.yul\":3172:3214   */\n      0xffffffffffffffffffffffffffffffffffffffff\n        /* \"#utility.yul\":3165:3170   */\n      dup3\n        /* \"#utility.yul\":3161:3215   */\n      and\n        /* \"#utility.yul\":3150:3215   */\n      swap1\n      pop\n        /* \"#utility.yul\":3095:3221   */\n      swap2\n      swap1\n      pop\n      jump\t// out\n        /* \"#utility.yul\":3227:3323   */\n    tag_668:\n        /* \"#utility.yul\":3264:3271   */\n      0x00\n        /* \"#utility.yul\":3293:3317   */\n      tag_803\n        /* \"#utility.yul\":3311:3316   */\n      dup3\n        /* \"#utility.yul\":3293:3317   */\n      tag_667\n      jump\t// in\n    tag_803:\n        /* \"#utility.yul\":3282:3317   */\n      swap1\n      pop\n        /* \"#utility.yul\":3227:3323   */\n      swap2\n      swap1\n      pop\n      jump\t// out\n        /* \"#utility.yul\":3329:3451   */\n    tag_669:\n        /* \"#utility.yul\":3402:3426   */\n      tag_805\n        /* \"#utility.yul\":3420:3425   */\n      dup2\n        /* \"#utility.yul\":3402:3426   */\n      tag_668\n      jump\t// in\n    tag_805:\n        /* \"#utility.yul\":3395:3400   */\n      dup2\n        /* \"#utility.yul\":3392:3427   */\n      eq\n        /* \"#utility.yul\":3382:3445   */\n      tag_806\n      jumpi\n        /* \"#utility.yul\":3441:3442   */\n      0x00\n        /* \"#utility.yul\":3438:3439   */\n      dup1\n        /* \"#utility.yul\":3431:3443   */\n      revert\n        /* \"#utility.yul\":3382:3445   */\n    tag_806:\n        /* \"#utility.yul\":3329:3451   */\n      pop\n      jump\t// out\n        /* \"#utility.yul\":3457:3596   */\n    tag_670:\n        /* \"#utility.yul\":3503:3508   */\n      0x00\n        /* \"#utility.yul\":3541:3547   */\n      dup2\n        /* \"#utility.yul\":3528:3548   */\n      calldataload\n        /* \"#utility.yul\":3519:3548   */\n      swap1\n      pop\n        /* \"#utility.yul\":3557:3590   */\n      tag_808\n        /* \"#utility.yul\":3584:3589   */\n      dup2\n        /* \"#utility.yul\":3557:3590   */\n      tag_669\n      jump\t// in\n    tag_808:\n        /* \"#utility.yul\":3457:3596   */\n      swap3\n      swap2\n      pop\n      pop\n      jump\t// out\n        /* \"#utility.yul\":3602:4286   */\n    tag_36:\n        /* \"#utility.yul\":3695:3701   */\n      0x00\n        /* \"#utility.yul\":3703:3709   */\n      dup1\n        /* \"#utility.yul\":3752:3754   */\n      0x40\n        /* \"#utility.yul\":3740:3749   */\n      dup4\n        /* \"#utility.yul\":3731:3738   */\n      dup6\n        /* \"#utility.yul\":3727:3750   */\n      sub\n        /* \"#utility.yul\":3723:3755   */\n      slt\n        /* \"#utility.yul\":3720:3839   */\n      iszero\n      tag_810\n      jumpi\n        /* \"#utility.yul\":3758:3837   */\n      tag_811\n      tag_653\n      jump\t// in\n    tag_811:\n        /* \"#utility.yul\":3720:3839   */\n    tag_810:\n        /* \"#utility.yul\":3906:3907   */\n      0x00\n        /* \"#utility.yul\":3895:3904   */\n      dup4\n        /* \"#utility.yul\":3891:3908   */\n      add\n        /* \"#utility.yul\":3878:3909   */\n      calldataload\n        /* \"#utility.yul\":3936:3954   */\n      0xffffffffffffffff\n        /* \"#utility.yul\":3928:3934   */\n      dup2\n        /* \"#utility.yul\":3925:3955   */\n      gt\n        /* \"#utility.yul\":3922:4039   */\n      iszero\n      tag_812\n      jumpi\n        /* \"#utility.yul\":3958:4037   */\n      tag_813\n      tag_654\n      jump\t// in\n    tag_813:\n        /* \"#utility.yul\":3922:4039   */\n    tag_812:\n        /* \"#utility.yul\":4063:4141   */\n      tag_814\n        /* \"#utility.yul\":4133:4140   */\n      dup6\n        /* \"#utility.yul\":4124:4130   */\n      dup3\n        /* \"#utility.yul\":4113:4122   */\n      dup7\n        /* \"#utility.yul\":4109:4131   */\n      add\n        /* \"#utility.yul\":4063:4141   */\n      tag_666\n      jump\t// in\n    tag_814:\n        /* \"#utility.yul\":4053:4141   */\n      swap3\n      pop\n        /* \"#utility.yul\":3849:4151   */\n      pop\n        /* \"#utility.yul\":4190:4192   */\n      0x20\n        /* \"#utility.yul\":4216:4269   */\n      tag_815\n        /* \"#utility.yul\":4261:4268   */\n      dup6\n        /* \"#utility.yul\":4252:4258   */\n      dup3\n        /* \"#utility.yul\":4241:4250   */\n      dup7\n        /* \"#utility.yul\":4237:4259   */\n      add\n        /* \"#utility.yul\":4216:4269   */\n      tag_670\n      jump\t// in\n    tag_815:\n        /* \"#utility.yul\":4206:4269   */\n      swap2\n      pop\n        /* \"#utility.yul\":4161:4279   */\n      pop\n        /* \"#utility.yul\":3602:4286   */\n      swap3\n      pop\n      swap3\n      swap1\n      pop\n      jump\t// out\n        /* \"#utility.yul\":4292:4409   */\n    tag_671:\n        /* \"#utility.yul\":4401:4402   */\n      0x00\n        /* \"#utility.yul\":4398:4399   */\n      dup1\n        /* \"#utility.yul\":4391:4403   */\n      revert\n        /* \"#utility.yul\":4415:4722   */\n    tag_672:\n        /* \"#utility.yul\":4476:4480   */\n      0x00\n        /* \"#utility.yul\":4566:4584   */\n      0xffffffffffffffff\n        /* \"#utility.yul\":4558:4564   */\n      dup3\n        /* \"#utility.yul\":4555:4585   */\n      gt\n        /* \"#utility.yul\":4552:4608   */\n      iszero\n      tag_818\n      jumpi\n        /* \"#utility.yul\":4588:4606   */\n      tag_819\n      tag_657\n      jump\t// in\n    tag_819:\n        /* \"#utility.yul\":4552:4608   */\n    tag_818:\n        /* \"#utility.yul\":4626:4655   */\n      tag_820\n        /* \"#utility.yul\":4648:4654   */\n      dup3\n        /* \"#utility.yul\":4626:4655   */\n      tag_656\n      jump\t// in\n    tag_820:\n        /* \"#utility.yul\":4618:4655   */\n      swap1\n      pop\n        /* \"#utility.yul\":4710:4714   */\n      0x20\n        /* \"#utility.yul\":4704:4708   */\n      dup2\n        /* \"#utility.yul\":4700:4715   */\n      add\n        /* \"#utility.yul\":4692:4715   */\n      swap1\n      pop\n        /* \"#utility.yul\":4415:4722   */\n      swap2\n      swap1\n      pop\n      jump\t// out\n        /* \"#utility.yul\":4728:4882   */\n    tag_673:\n        /* \"#utility.yul\":4812:4818   */\n      dup3\n        /* \"#utility.yul\":4807:4810   */\n      dup2\n        /* \"#utility.yul\":4802:4805   */\n      dup4\n        /* \"#utility.yul\":4789:4819   */\n      calldatacopy\n        /* \"#utility.yul\":4874:4875   */\n      0x00\n        /* \"#utility.yul\":4865:4871   */\n      dup4\n        /* \"#utility.yul\":4860:4863   */\n      dup4\n        /* \"#utility.yul\":4856:4872   */\n      add\n        /* \"#utility.yul\":4849:4876   */\n      mstore\n        /* \"#utility.yul\":4728:4882   */\n      pop\n      pop\n      pop\n      jump\t// out\n        /* \"#utility.yul\":4888:5298   */\n    tag_674:\n        /* \"#utility.yul\":4965:4970   */\n      0x00\n        /* \"#utility.yul\":4990:5055   */\n      tag_823\n        /* \"#utility.yul\":5006:5054   */\n      tag_824\n        /* \"#utility.yul\":5047:5053   */\n      dup5\n        /* \"#utility.yul\":5006:5054   */\n      tag_672\n      jump\t// in\n    tag_824:\n        /* \"#utility.yul\":4990:5055   */\n      tag_659\n      jump\t// in\n    tag_823:\n        /* \"#utility.yul\":4981:5055   */\n      swap1\n      pop\n        /* \"#utility.yul\":5078:5084   */\n      dup3\n        /* \"#utility.yul\":5071:5076   */\n      dup2\n        /* \"#utility.yul\":5064:5085   */\n      mstore\n        /* \"#utility.yul\":5116:5120   */\n      0x20\n        /* \"#utility.yul\":5109:5114   */\n      dup2\n        /* \"#utility.yul\":5105:5121   */\n      add\n        /* \"#utility.yul\":5154:5157   */\n      dup5\n        /* \"#utility.yul\":5145:5151   */\n      dup5\n        /* \"#utility.yul\":5140:5143   */\n      dup5\n        /* \"#utility.yul\":5136:5152   */\n      add\n        /* \"#utility.yul\":5133:5158   */\n      gt\n        /* \"#utility.yul\":5130:5242   */\n      iszero\n      tag_825\n      jumpi\n        /* \"#utility.yul\":5161:5240   */\n      tag_826\n      tag_671\n      jump\t// in\n    tag_826:\n        /* \"#utility.yul\":5130:5242   */\n    tag_825:\n        /* \"#utility.yul\":5251:5292   */\n      tag_827\n        /* \"#utility.yul\":5285:5291   */\n      dup5\n        /* \"#utility.yul\":5280:5283   */\n      dup3\n        /* \"#utility.yul\":5275:5278   */\n      dup6\n        /* \"#utility.yul\":5251:5292   */\n      tag_673\n      jump\t// in\n    tag_827:\n        /* \"#utility.yul\":4971:5298   */\n      pop\n        /* \"#utility.yul\":4888:5298   */\n      swap4\n      swap3\n      pop\n      pop\n      pop\n      jump\t// out\n        /* \"#utility.yul\":5317:5655   */\n    tag_675:\n        /* \"#utility.yul\":5372:5377   */\n      0x00\n        /* \"#utility.yul\":5421:5424   */\n      dup3\n        /* \"#utility.yul\":5414:5418   */\n      0x1f\n        /* \"#utility.yul\":5406:5412   */\n      dup4\n        /* \"#utility.yul\":5402:5419   */\n      add\n        /* \"#utility.yul\":5398:5425   */\n      slt\n        /* \"#utility.yul\":5388:5510   */\n      tag_829\n      jumpi\n        /* \"#utility.yul\":5429:5508   */\n      tag_830\n      tag_655\n      jump\t// in\n    tag_830:\n        /* \"#utility.yul\":5388:5510   */\n    tag_829:\n        /* \"#utility.yul\":5546:5552   */\n      dup2\n        /* \"#utility.yul\":5533:5553   */\n      calldataload\n        /* \"#utility.yul\":5571:5649   */\n      tag_831\n        /* \"#utility.yul\":5645:5648   */\n      dup5\n        /* \"#utility.yul\":5637:5643   */\n      dup3\n        /* \"#utility.yul\":5630:5634   */\n      0x20\n        /* \"#utility.yul\":5622:5628   */\n      dup7\n        /* \"#utility.yul\":5618:5635   */\n      add\n        /* \"#utility.yul\":5571:5649   */\n      tag_674\n      jump\t// in\n    tag_831:\n        /* \"#utility.yul\":5562:5649   */\n      swap2\n      pop\n        /* \"#utility.yul\":5378:5655   */\n      pop\n        /* \"#utility.yul\":5317:5655   */\n      swap3\n      swap2\n      pop\n      pop\n      jump\t// out\n        /* \"#utility.yul\":5661:6604   */\n    tag_42:\n        /* \"#utility.yul\":5756:5762   */\n      0x00\n        /* \"#utility.yul\":5764:5770   */\n      dup1\n        /* \"#utility.yul\":5772:5778   */\n      0x00\n        /* \"#utility.yul\":5780:5786   */\n      dup1\n        /* \"#utility.yul\":5829:5832   */\n      0x80\n        /* \"#utility.yul\":5817:5826   */\n      dup6\n        /* \"#utility.yul\":5808:5815   */\n      dup8\n        /* \"#utility.yul\":5804:5827   */\n      sub\n        /* \"#utility.yul\":5800:5833   */\n      slt\n        /* \"#utility.yul\":5797:5917   */\n      iszero\n      tag_833\n      jumpi\n        /* \"#utility.yul\":5836:5915   */\n      tag_834\n      tag_653\n      jump\t// in\n    tag_834:\n        /* \"#utility.yul\":5797:5917   */\n    tag_833:\n        /* \"#utility.yul\":5956:5957   */\n      0x00\n        /* \"#utility.yul\":5981:6034   */\n      tag_835\n        /* \"#utility.yul\":6026:6033   */\n      dup8\n        /* \"#utility.yul\":6017:6023   */\n      dup3\n        /* \"#utility.yul\":6006:6015   */\n      dup9\n        /* \"#utility.yul\":6002:6024   */\n      add\n        /* \"#utility.yul\":5981:6034   */\n      tag_670\n      jump\t// in\n    tag_835:\n        /* \"#utility.yul\":5971:6034   */\n      swap5\n      pop\n        /* \"#utility.yul\":5927:6044   */\n      pop\n        /* \"#utility.yul\":6083:6085   */\n      0x20\n        /* \"#utility.yul\":6109:6162   */\n      tag_836\n        /* \"#utility.yul\":6154:6161   */\n      dup8\n        /* \"#utility.yul\":6145:6151   */\n      dup3\n        /* \"#utility.yul\":6134:6143   */\n      dup9\n        /* \"#utility.yul\":6130:6152   */\n      add\n        /* \"#utility.yul\":6109:6162   */\n      tag_670\n      jump\t// in\n    tag_836:\n        /* \"#utility.yul\":6099:6162   */\n      swap4\n      pop\n        /* \"#utility.yul\":6054:6172   */\n      pop\n        /* \"#utility.yul\":6211:6213   */\n      0x40\n        /* \"#utility.yul\":6237:6290   */\n      tag_837\n        /* \"#utility.yul\":6282:6289   */\n      dup8\n        /* \"#utility.yul\":6273:6279   */\n      dup3\n        /* \"#utility.yul\":6262:6271   */\n      dup9\n        /* \"#utility.yul\":6258:6280   */\n      add\n        /* \"#utility.yul\":6237:6290   */\n      tag_664\n      jump\t// in\n    tag_837:\n        /* \"#utility.yul\":6227:6290   */\n      swap3\n      pop\n        /* \"#utility.yul\":6182:6300   */\n      pop\n        /* \"#utility.yul\":6367:6369   */\n      0x60\n        /* \"#utility.yul\":6356:6365   */\n      dup6\n        /* \"#utility.yul\":6352:6370   */\n      add\n        /* \"#utility.yul\":6339:6371   */\n      calldataload\n        /* \"#utility.yul\":6398:6416   */\n      0xffffffffffffffff\n        /* \"#utility.yul\":6390:6396   */\n      dup2\n        /* \"#utility.yul\":6387:6417   */\n      gt\n        /* \"#utility.yul\":6384:6501   */\n      iszero\n      tag_838\n      jumpi\n        /* \"#utility.yul\":6420:6499   */\n      tag_839\n      tag_654\n      jump\t// in\n    tag_839:\n        /* \"#utility.yul\":6384:6501   */\n    tag_838:\n        /* \"#utility.yul\":6525:6587   */\n      tag_840\n        /* \"#utility.yul\":6579:6586   */\n      dup8\n        /* \"#utility.yul\":6570:6576   */\n      dup3\n        /* \"#utility.yul\":6559:6568   */\n      dup9\n        /* \"#utility.yul\":6555:6577   */\n      add\n        /* \"#utility.yul\":6525:6587   */\n      tag_675\n      jump\t// in\n    tag_840:\n        /* \"#utility.yul\":6515:6587   */\n      swap2\n      pop\n        /* \"#utility.yul\":6310:6597   */\n      pop\n        /* \"#utility.yul\":5661:6604   */\n      swap3\n      swap6\n      swap2\n      swap5\n      pop\n      swap3\n      pop\n      jump\t// out\n        /* \"#utility.yul\":6610:6759   */\n    tag_676:\n        /* \"#utility.yul\":6646:6653   */\n      0x00\n        /* \"#utility.yul\":6686:6752   */\n      0xffffffff00000000000000000000000000000000000000000000000000000000\n        /* \"#utility.yul\":6679:6684   */\n      dup3\n        /* \"#utility.yul\":6675:6753   */\n      and\n        /* \"#utility.yul\":6664:6753   */\n      swap1\n      pop\n        /* \"#utility.yul\":6610:6759   */\n      swap2\n      swap1\n      pop\n      jump\t// out\n        /* \"#utility.yul\":6765:6880   */\n    tag_677:\n        /* \"#utility.yul\":6850:6873   */\n      tag_843\n        /* \"#utility.yul\":6867:6872   */\n      dup2\n        /* \"#utility.yul\":6850:6873   */\n      tag_676\n      jump\t// in\n    tag_843:\n        /* \"#utility.yul\":6845:6848   */\n      dup3\n        /* \"#utility.yul\":6838:6874   */\n      mstore\n        /* \"#utility.yul\":6765:6880   */\n      pop\n      pop\n      jump\t// out\n        /* \"#utility.yul\":6886:7104   */\n    tag_45:\n        /* \"#utility.yul\":6977:6981   */\n      0x00\n        /* \"#utility.yul\":7015:7017   */\n      0x20\n        /* \"#utility.yul\":7004:7013   */\n      dup3\n        /* \"#utility.yul\":7000:7018   */\n      add\n        /* \"#utility.yul\":6992:7018   */\n      swap1\n      pop\n        /* \"#utility.yul\":7028:7097   */\n      tag_845\n        /* \"#utility.yul\":7094:7095   */\n      0x00\n        /* \"#utility.yul\":7083:7092   */\n      dup4\n        /* \"#utility.yul\":7079:7096   */\n      add\n        /* \"#utility.yul\":7070:7076   */\n      dup5\n        /* \"#utility.yul\":7028:7097   */\n      tag_677\n      jump\t// in\n    tag_845:\n        /* \"#utility.yul\":6886:7104   */\n      swap3\n      swap2\n      pop\n      pop\n      jump\t// out\n        /* \"#utility.yul\":7110:7439   */\n    tag_48:\n        /* \"#utility.yul\":7169:7175   */\n      0x00\n        /* \"#utility.yul\":7218:7220   */\n      0x20\n        /* \"#utility.yul\":7206:7215   */\n      dup3\n        /* \"#utility.yul\":7197:7204   */\n      dup5\n        /* \"#utility.yul\":7193:7216   */\n      sub\n        /* \"#utility.yul\":7189:7221   */\n      slt\n        /* \"#utility.yul\":7186:7305   */\n      iszero\n      tag_847\n      jumpi\n        /* \"#utility.yul\":7224:7303   */\n      tag_848\n      tag_653\n      jump\t// in\n    tag_848:\n        /* \"#utility.yul\":7186:7305   */\n    tag_847:\n        /* \"#utility.yul\":7344:7345   */\n      0x00\n        /* \"#utility.yul\":7369:7422   */\n      tag_849\n        /* \"#utility.yul\":7414:7421   */\n      dup5\n        /* \"#utility.yul\":7405:7411   */\n      dup3\n        /* \"#utility.yul\":7394:7403   */\n      dup6\n        /* \"#utility.yul\":7390:7412   */\n      add\n        /* \"#utility.yul\":7369:7422   */\n      tag_664\n      jump\t// in\n    tag_849:\n        /* \"#utility.yul\":7359:7422   */\n      swap2\n      pop\n        /* \"#utility.yul\":7315:7432   */\n      pop\n        /* \"#utility.yul\":7110:7439   */\n      swap3\n      swap2\n      pop\n      pop\n      jump\t// out\n        /* \"#utility.yul\":7445:7563   */\n    tag_678:\n        /* \"#utility.yul\":7532:7556   */\n      tag_851\n        /* \"#utility.yul\":7550:7555   */\n      dup2\n        /* \"#utility.yul\":7532:7556   */\n      tag_668\n      jump\t// in\n    tag_851:\n        /* \"#utility.yul\":7527:7530   */\n      dup3\n        /* \"#utility.yul\":7520:7557   */\n      mstore\n        /* \"#utility.yul\":7445:7563   */\n      pop\n      pop\n      jump\t// out\n        /* \"#utility.yul\":7569:7687   */\n    tag_679:\n        /* \"#utility.yul\":7656:7680   */\n      tag_853\n        /* \"#utility.yul\":7674:7679   */\n      dup2\n        /* \"#utility.yul\":7656:7680   */\n      tag_662\n      jump\t// in\n    tag_853:\n        /* \"#utility.yul\":7651:7654   */\n      dup3\n        /* \"#utility.yul\":7644:7681   */\n      mstore\n        /* \"#utility.yul\":7569:7687   */\n      pop\n      pop\n      jump\t// out\n        /* \"#utility.yul\":7693:7873   */\n    tag_217:\n        /* \"#utility.yul\":7741:7818   */\n      0x4e487b7100000000000000000000000000000000000000000000000000000000\n        /* \"#utility.yul\":7738:7739   */\n      0x00\n        /* \"#utility.yul\":7731:7819   */\n      mstore\n        /* \"#utility.yul\":7838:7842   */\n      0x21\n        /* \"#utility.yul\":7835:7836   */\n      0x04\n        /* \"#utility.yul\":7828:7843   */\n      mstore\n        /* \"#utility.yul\":7862:7866   */\n      0x24\n        /* \"#utility.yul\":7859:7860   */\n      0x00\n        /* \"#utility.yul\":7852:7867   */\n      revert\n        /* \"#utility.yul\":7879:7996   */\n    tag_680:\n        /* \"#utility.yul\":7964:7965   */\n      0x03\n        /* \"#utility.yul\":7957:7962   */\n      dup2\n        /* \"#utility.yul\":7954:7966   */\n      lt\n        /* \"#utility.yul\":7944:7990   */\n      tag_856\n      jumpi\n        /* \"#utility.yul\":7970:7988   */\n      tag_857\n      tag_217\n      jump\t// in\n    tag_857:\n        /* \"#utility.yul\":7944:7990   */\n    tag_856:\n        /* \"#utility.yul\":7879:7996   */\n      pop\n      jump\t// out\n        /* \"#utility.yul\":8002:8137   */\n    tag_681:\n        /* \"#utility.yul\":8051:8058   */\n      0x00\n        /* \"#utility.yul\":8080:8085   */\n      dup2\n        /* \"#utility.yul\":8069:8085   */\n      swap1\n      pop\n        /* \"#utility.yul\":8086:8131   */\n      tag_859\n        /* \"#utility.yul\":8125:8130   */\n      dup3\n        /* \"#utility.yul\":8086:8131   */\n      tag_680\n      jump\t// in\n    tag_859:\n        /* \"#utility.yul\":8002:8137   */\n      swap2\n      swap1\n      pop\n      jump\t// out\n        /* \"#utility.yul\":8143:8278   */\n    tag_682:\n        /* \"#utility.yul\":8203:8212   */\n      0x00\n        /* \"#utility.yul\":8236:8272   */\n      tag_861\n        /* \"#utility.yul\":8266:8271   */\n      dup3\n        /* \"#utility.yul\":8236:8272   */\n      tag_681\n      jump\t// in\n    tag_861:\n        /* \"#utility.yul\":8223:8272   */\n      swap1\n      pop\n        /* \"#utility.yul\":8143:8278   */\n      swap2\n      swap1\n      pop\n      jump\t// out\n        /* \"#utility.yul\":8284:8435   */\n    tag_683:\n        /* \"#utility.yul\":8381:8428   */\n      tag_863\n        /* \"#utility.yul\":8422:8427   */\n      dup2\n        /* \"#utility.yul\":8381:8428   */\n      tag_682\n      jump\t// in\n    tag_863:\n        /* \"#utility.yul\":8376:8379   */\n      dup3\n        /* \"#utility.yul\":8369:8429   */\n      mstore\n        /* \"#utility.yul\":8284:8435   */\n      pop\n      pop\n      jump\t// out\n        /* \"#utility.yul\":8441:8559   */\n    tag_684:\n        /* \"#utility.yul\":8527:8528   */\n      0x03\n        /* \"#utility.yul\":8520:8525   */\n      dup2\n        /* \"#utility.yul\":8517:8529   */\n      lt\n        /* \"#utility.yul\":8507:8553   */\n      tag_865\n      jumpi\n        /* \"#utility.yul\":8533:8551   */\n      tag_866\n      tag_217\n      jump\t// in\n    tag_866:\n        /* \"#utility.yul\":8507:8553   */\n    tag_865:\n        /* \"#utility.yul\":8441:8559   */\n      pop\n      jump\t// out\n        /* \"#utility.yul\":8565:8702   */\n    tag_685:\n        /* \"#utility.yul\":8615:8622   */\n      0x00\n        /* \"#utility.yul\":8644:8649   */\n      dup2\n        /* \"#utility.yul\":8633:8649   */\n      swap1\n      pop\n        /* \"#utility.yul\":8650:8696   */\n      tag_868\n        /* \"#utility.yul\":8690:8695   */\n      dup3\n        /* \"#utility.yul\":8650:8696   */\n      tag_684\n      jump\t// in\n    tag_868:\n        /* \"#utility.yul\":8565:8702   */\n      swap2\n      swap1\n      pop\n      jump\t// out\n        /* \"#utility.yul\":8708:8845   */\n    tag_686:\n        /* \"#utility.yul\":8769:8778   */\n      0x00\n        /* \"#utility.yul\":8802:8839   */\n      tag_870\n        /* \"#utility.yul\":8833:8838   */\n      dup3\n        /* \"#utility.yul\":8802:8839   */\n      tag_685\n      jump\t// in\n    tag_870:\n        /* \"#utility.yul\":8789:8839   */\n      swap1\n      pop\n        /* \"#utility.yul\":8708:8845   */\n      swap2\n      swap1\n      pop\n      jump\t// out\n        /* \"#utility.yul\":8851:9004   */\n    tag_687:\n        /* \"#utility.yul\":8949:8997   */\n      tag_872\n        /* \"#utility.yul\":8991:8996   */\n      dup2\n        /* \"#utility.yul\":8949:8997   */\n      tag_686\n      jump\t// in\n    tag_872:\n        /* \"#utility.yul\":8944:8947   */\n      dup3\n        /* \"#utility.yul\":8937:8998   */\n      mstore\n        /* \"#utility.yul\":8851:9004   */\n      pop\n      pop\n      jump\t// out\n        /* \"#utility.yul\":9010:9109   */\n    tag_688:\n        /* \"#utility.yul\":9062:9068   */\n      0x00\n        /* \"#utility.yul\":9096:9101   */\n      dup2\n        /* \"#utility.yul\":9090:9102   */\n      mload\n        /* \"#utility.yul\":9080:9102   */\n      swap1\n      pop\n        /* \"#utility.yul\":9010:9109   */\n      swap2\n      swap1\n      pop\n      jump\t// out\n        /* \"#utility.yul\":9115:9284   */\n    tag_689:\n        /* \"#utility.yul\":9199:9210   */\n      0x00\n        /* \"#utility.yul\":9233:9239   */\n      dup3\n        /* \"#utility.yul\":9228:9231   */\n      dup3\n        /* \"#utility.yul\":9221:9240   */\n      mstore\n        /* \"#utility.yul\":9273:9277   */\n      0x20\n        /* \"#utility.yul\":9268:9271   */\n      dup3\n        /* \"#utility.yul\":9264:9278   */\n      add\n        /* \"#utility.yul\":9249:9278   */\n      swap1\n      pop\n        /* \"#utility.yul\":9115:9284   */\n      swap3\n      swap2\n      pop\n      pop\n      jump\t// out\n        /* \"#utility.yul\":9290:9597   */\n    tag_690:\n        /* \"#utility.yul\":9358:9359   */\n      0x00\n        /* \"#utility.yul\":9368:9481   */\n    tag_876:\n        /* \"#utility.yul\":9382:9388   */\n      dup4\n        /* \"#utility.yul\":9379:9380   */\n      dup2\n        /* \"#utility.yul\":9376:9389   */\n      lt\n        /* \"#utility.yul\":9368:9481   */\n      iszero\n      tag_878\n      jumpi\n        /* \"#utility.yul\":9467:9468   */\n      dup1\n        /* \"#utility.yul\":9462:9465   */\n      dup3\n        /* \"#utility.yul\":9458:9469   */\n      add\n        /* \"#utility.yul\":9452:9470   */\n      mload\n        /* \"#utility.yul\":9448:9449   */\n      dup2\n        /* \"#utility.yul\":9443:9446   */\n      dup5\n        /* \"#utility.yul\":9439:9450   */\n      add\n        /* \"#utility.yul\":9432:9471   */\n      mstore\n        /* \"#utility.yul\":9404:9406   */\n      0x20\n        /* \"#utility.yul\":9401:9402   */\n      dup2\n        /* \"#utility.yul\":9397:9407   */\n      add\n        /* \"#utility.yul\":9392:9407   */\n      swap1\n      pop\n        /* \"#utility.yul\":9368:9481   */\n      jump(tag_876)\n    tag_878:\n        /* \"#utility.yul\":9499:9505   */\n      dup4\n        /* \"#utility.yul\":9496:9497   */\n      dup2\n        /* \"#utility.yul\":9493:9506   */\n      gt\n        /* \"#utility.yul\":9490:9591   */\n      iszero\n      tag_879\n      jumpi\n        /* \"#utility.yul\":9579:9580   */\n      0x00\n        /* \"#utility.yul\":9570:9576   */\n      dup5\n        /* \"#utility.yul\":9565:9568   */\n      dup5\n        /* \"#utility.yul\":9561:9577   */\n      add\n        /* \"#utility.yul\":9554:9581   */\n      mstore\n        /* \"#utility.yul\":9490:9591   */\n    tag_879:\n        /* \"#utility.yul\":9339:9597   */\n      pop\n        /* \"#utility.yul\":9290:9597   */\n      pop\n      pop\n      pop\n      jump\t// out\n        /* \"#utility.yul\":9603:9967   */\n    tag_691:\n        /* \"#utility.yul\":9691:9694   */\n      0x00\n        /* \"#utility.yul\":9719:9758   */\n      tag_881\n        /* \"#utility.yul\":9752:9757   */\n      dup3\n        /* \"#utility.yul\":9719:9758   */\n      tag_688\n      jump\t// in\n    tag_881:\n        /* \"#utility.yul\":9774:9845   */\n      tag_882\n        /* \"#utility.yul\":9838:9844   */\n      dup2\n        /* \"#utility.yul\":9833:9836   */\n      dup6\n        /* \"#utility.yul\":9774:9845   */\n      tag_689\n      jump\t// in\n    tag_882:\n        /* \"#utility.yul\":9767:9845   */\n      swap4\n      pop\n        /* \"#utility.yul\":9854:9906   */\n      tag_883\n        /* \"#utility.yul\":9899:9905   */\n      dup2\n        /* \"#utility.yul\":9894:9897   */\n      dup6\n        /* \"#utility.yul\":9887:9891   */\n      0x20\n        /* \"#utility.yul\":9880:9885   */\n      dup7\n        /* \"#utility.yul\":9876:9892   */\n      add\n        /* \"#utility.yul\":9854:9906   */\n      tag_690\n      jump\t// in\n    tag_883:\n        /* \"#utility.yul\":9931:9960   */\n      tag_884\n        /* \"#utility.yul\":9953:9959   */\n      dup2\n        /* \"#utility.yul\":9931:9960   */\n      tag_656\n      jump\t// in\n    tag_884:\n        /* \"#utility.yul\":9926:9929   */\n      dup5\n        /* \"#utility.yul\":9922:9961   */\n      add\n        /* \"#utility.yul\":9915:9961   */\n      swap2\n      pop\n        /* \"#utility.yul\":9695:9967   */\n      pop\n        /* \"#utility.yul\":9603:9967   */\n      swap3\n      swap2\n      pop\n      pop\n      jump\t// out\n        /* \"#utility.yul\":9973:10881   */\n    tag_51:\n        /* \"#utility.yul\":10247:10251   */\n      0x00\n        /* \"#utility.yul\":10285:10288   */\n      0xc0\n        /* \"#utility.yul\":10274:10283   */\n      dup3\n        /* \"#utility.yul\":10270:10289   */\n      add\n        /* \"#utility.yul\":10262:10289   */\n      swap1\n      pop\n        /* \"#utility.yul\":10299:10370   */\n      tag_886\n        /* \"#utility.yul\":10367:10368   */\n      0x00\n        /* \"#utility.yul\":10356:10365   */\n      dup4\n        /* \"#utility.yul\":10352:10369   */\n      add\n        /* \"#utility.yul\":10343:10349   */\n      dup10\n        /* \"#utility.yul\":10299:10370   */\n      tag_678\n      jump\t// in\n    tag_886:\n        /* \"#utility.yul\":10380:10452   */\n      tag_887\n        /* \"#utility.yul\":10448:10450   */\n      0x20\n        /* \"#utility.yul\":10437:10446   */\n      dup4\n        /* \"#utility.yul\":10433:10451   */\n      add\n        /* \"#utility.yul\":10424:10430   */\n      dup9\n        /* \"#utility.yul\":10380:10452   */\n      tag_679\n      jump\t// in\n    tag_887:\n        /* \"#utility.yul\":10462:10534   */\n      tag_888\n        /* \"#utility.yul\":10530:10532   */\n      0x40\n        /* \"#utility.yul\":10519:10528   */\n      dup4\n        /* \"#utility.yul\":10515:10533   */\n      add\n        /* \"#utility.yul\":10506:10512   */\n      dup8\n        /* \"#utility.yul\":10462:10534   */\n      tag_679\n      jump\t// in\n    tag_888:\n        /* \"#utility.yul\":10544:10626   */\n      tag_889\n        /* \"#utility.yul\":10622:10624   */\n      0x60\n        /* \"#utility.yul\":10611:10620   */\n      dup4\n        /* \"#utility.yul\":10607:10625   */\n      add\n        /* \"#utility.yul\":10598:10604   */\n      dup7\n        /* \"#utility.yul\":10544:10626   */\n      tag_683\n      jump\t// in\n    tag_889:\n        /* \"#utility.yul\":10636:10720   */\n      tag_890\n        /* \"#utility.yul\":10715:10718   */\n      0x80\n        /* \"#utility.yul\":10704:10713   */\n      dup4\n        /* \"#utility.yul\":10700:10719   */\n      add\n        /* \"#utility.yul\":10691:10697   */\n      dup6\n        /* \"#utility.yul\":10636:10720   */\n      tag_687\n      jump\t// in\n    tag_890:\n        /* \"#utility.yul\":10768:10777   */\n      dup2\n        /* \"#utility.yul\":10762:10766   */\n      dup2\n        /* \"#utility.yul\":10758:10778   */\n      sub\n        /* \"#utility.yul\":10752:10755   */\n      0xa0\n        /* \"#utility.yul\":10741:10750   */\n      dup4\n        /* \"#utility.yul\":10737:10756   */\n      add\n        /* \"#utility.yul\":10730:10779   */\n      mstore\n        /* \"#utility.yul\":10796:10874   */\n      tag_891\n        /* \"#utility.yul\":10869:10873   */\n      dup2\n        /* \"#utility.yul\":10860:10866   */\n      dup5\n        /* \"#utility.yul\":10796:10874   */\n      tag_691\n      jump\t// in\n    tag_891:\n        /* \"#utility.yul\":10788:10874   */\n      swap1\n      pop\n        /* \"#utility.yul\":9973:10881   */\n      swap8\n      swap7\n      pop\n      pop\n      pop\n      pop\n      pop\n      pop\n      pop\n      jump\t// out\n        /* \"#utility.yul\":10887:11109   */\n    tag_56:\n        /* \"#utility.yul\":10980:10984   */\n      0x00\n        /* \"#utility.yul\":11018:11020   */\n      0x20\n        /* \"#utility.yul\":11007:11016   */\n      dup3\n        /* \"#utility.yul\":11003:11021   */\n      add\n        /* \"#utility.yul\":10995:11021   */\n      swap1\n      pop\n        /* \"#utility.yul\":11031:11102   */\n      tag_893\n        /* \"#utility.yul\":11099:11100   */\n      0x00\n        /* \"#utility.yul\":11088:11097   */\n      dup4\n        /* \"#utility.yul\":11084:11101   */\n      add\n        /* \"#utility.yul\":11075:11081   */\n      dup5\n        /* \"#utility.yul\":11031:11102   */\n      tag_679\n      jump\t// in\n    tag_893:\n        /* \"#utility.yul\":10887:11109   */\n      swap3\n      swap2\n      pop\n      pop\n      jump\t// out\n        /* \"#utility.yul\":11115:11205   */\n    tag_692:\n        /* \"#utility.yul\":11149:11156   */\n      0x00\n        /* \"#utility.yul\":11192:11197   */\n      dup2\n        /* \"#utility.yul\":11185:11198   */\n      iszero\n        /* \"#utility.yul\":11178:11199   */\n      iszero\n        /* \"#utility.yul\":11167:11199   */\n      swap1\n      pop\n        /* \"#utility.yul\":11115:11205   */\n      swap2\n      swap1\n      pop\n      jump\t// out\n        /* \"#utility.yul\":11211:11320   */\n    tag_693:\n        /* \"#utility.yul\":11292:11313   */\n      tag_896\n        /* \"#utility.yul\":11307:11312   */\n      dup2\n        /* \"#utility.yul\":11292:11313   */\n      tag_692\n      jump\t// in\n    tag_896:\n        /* \"#utility.yul\":11287:11290   */\n      dup3\n        /* \"#utility.yul\":11280:11314   */\n      mstore\n        /* \"#utility.yul\":11211:11320   */\n      pop\n      pop\n      jump\t// out\n        /* \"#utility.yul\":11326:11536   */\n    tag_60:\n        /* \"#utility.yul\":11413:11417   */\n      0x00\n        /* \"#utility.yul\":11451:11453   */\n      0x20\n        /* \"#utility.yul\":11440:11449   */\n      dup3\n        /* \"#utility.yul\":11436:11454   */\n      add\n        /* \"#utility.yul\":11428:11454   */\n      swap1\n      pop\n        /* \"#utility.yul\":11464:11529   */\n      tag_898\n        /* \"#utility.yul\":11526:11527   */\n      0x00\n        /* \"#utility.yul\":11515:11524   */\n      dup4\n        /* \"#utility.yul\":11511:11528   */\n      add\n        /* \"#utility.yul\":11502:11508   */\n      dup5\n        /* \"#utility.yul\":11464:11529   */\n      tag_693\n      jump\t// in\n    tag_898:\n        /* \"#utility.yul\":11326:11536   */\n      swap3\n      swap2\n      pop\n      pop\n      jump\t// out\n        /* \"#utility.yul\":11542:11602   */\n    tag_694:\n        /* \"#utility.yul\":11570:11573   */\n      0x00\n        /* \"#utility.yul\":11591:11596   */\n      dup2\n        /* \"#utility.yul\":11584:11596   */\n      swap1\n      pop\n        /* \"#utility.yul\":11542:11602   */\n      swap2\n      swap1\n      pop\n      jump\t// out\n        /* \"#utility.yul\":11608:11750   */\n    tag_695:\n        /* \"#utility.yul\":11658:11667   */\n      0x00\n        /* \"#utility.yul\":11691:11744   */\n      tag_901\n        /* \"#utility.yul\":11709:11743   */\n      tag_902\n        /* \"#utility.yul\":11718:11742   */\n      tag_903\n        /* \"#utility.yul\":11736:11741   */\n      dup5\n        /* \"#utility.yul\":11718:11742   */\n      tag_667\n      jump\t// in\n    tag_903:\n        /* \"#utility.yul\":11709:11743   */\n      tag_694\n      jump\t// in\n    tag_902:\n        /* \"#utility.yul\":11691:11744   */\n      tag_667\n      jump\t// in\n    tag_901:\n        /* \"#utility.yul\":11678:11744   */\n      swap1\n      pop\n        /* \"#utility.yul\":11608:11750   */\n      swap2\n      swap1\n      pop\n      jump\t// out\n        /* \"#utility.yul\":11756:11882   */\n    tag_696:\n        /* \"#utility.yul\":11806:11815   */\n      0x00\n        /* \"#utility.yul\":11839:11876   */\n      tag_905\n        /* \"#utility.yul\":11870:11875   */\n      dup3\n        /* \"#utility.yul\":11839:11876   */\n      tag_695\n      jump\t// in\n    tag_905:\n        /* \"#utility.yul\":11826:11876   */\n      swap1\n      pop\n        /* \"#utility.yul\":11756:11882   */\n      swap2\n      swap1\n      pop\n      jump\t// out\n        /* \"#utility.yul\":11888:12033   */\n    tag_697:\n        /* \"#utility.yul\":11957:11966   */\n      0x00\n        /* \"#utility.yul\":11990:12027   */\n      tag_907\n        /* \"#utility.yul\":12021:12026   */\n      dup3\n        /* \"#utility.yul\":11990:12027   */\n      tag_696\n      jump\t// in\n    tag_907:\n        /* \"#utility.yul\":11977:12027   */\n      swap1\n      pop\n        /* \"#utility.yul\":11888:12033   */\n      swap2\n      swap1\n      pop\n      jump\t// out\n        /* \"#utility.yul\":12039:12208   */\n    tag_698:\n        /* \"#utility.yul\":12145:12201   */\n      tag_909\n        /* \"#utility.yul\":12195:12200   */\n      dup2\n        /* \"#utility.yul\":12145:12201   */\n      tag_697\n      jump\t// in\n    tag_909:\n        /* \"#utility.yul\":12140:12143   */\n      dup3\n        /* \"#utility.yul\":12133:12202   */\n      mstore\n        /* \"#utility.yul\":12039:12208   */\n      pop\n      pop\n      jump\t// out\n        /* \"#utility.yul\":12214:12474   */\n    tag_64:\n        /* \"#utility.yul\":12326:12330   */\n      0x00\n        /* \"#utility.yul\":12364:12366   */\n      0x20\n        /* \"#utility.yul\":12353:12362   */\n      dup3\n        /* \"#utility.yul\":12349:12367   */\n      add\n        /* \"#utility.yul\":12341:12367   */\n      swap1\n      pop\n        /* \"#utility.yul\":12377:12467   */\n      tag_911\n        /* \"#utility.yul\":12464:12465   */\n      0x00\n        /* \"#utility.yul\":12453:12462   */\n      dup4\n        /* \"#utility.yul\":12449:12466   */\n      add\n        /* \"#utility.yul\":12440:12446   */\n      dup5\n        /* \"#utility.yul\":12377:12467   */\n      tag_698\n      jump\t// in\n    tag_911:\n        /* \"#utility.yul\":12214:12474   */\n      swap3\n      swap2\n      pop\n      pop\n      jump\t// out\n        /* \"#utility.yul\":12480:12702   */\n    tag_68:\n        /* \"#utility.yul\":12573:12577   */\n      0x00\n        /* \"#utility.yul\":12611:12613   */\n      0x20\n        /* \"#utility.yul\":12600:12609   */\n      dup3\n        /* \"#utility.yul\":12596:12614   */\n      add\n        /* \"#utility.yul\":12588:12614   */\n      swap1\n      pop\n        /* \"#utility.yul\":12624:12695   */\n      tag_913\n        /* \"#utility.yul\":12692:12693   */\n      0x00\n        /* \"#utility.yul\":12681:12690   */\n      dup4\n        /* \"#utility.yul\":12677:12694   */\n      add\n        /* \"#utility.yul\":12668:12674   */\n      dup5\n        /* \"#utility.yul\":12624:12695   */\n      tag_678\n      jump\t// in\n    tag_913:\n        /* \"#utility.yul\":12480:12702   */\n      swap3\n      swap2\n      pop\n      pop\n      jump\t// out\n        /* \"#utility.yul\":12708:13182   */\n    tag_71:\n        /* \"#utility.yul\":12776:12782   */\n      0x00\n        /* \"#utility.yul\":12784:12790   */\n      dup1\n        /* \"#utility.yul\":12833:12835   */\n      0x40\n        /* \"#utility.yul\":12821:12830   */\n      dup4\n        /* \"#utility.yul\":12812:12819   */\n      dup6\n        /* \"#utility.yul\":12808:12831   */\n      sub\n        /* \"#utility.yul\":12804:12836   */\n      slt\n        /* \"#utility.yul\":12801:12920   */\n      iszero\n      tag_915\n      jumpi\n        /* \"#utility.yul\":12839:12918   */\n      tag_916\n      tag_653\n      jump\t// in\n    tag_916:\n        /* \"#utility.yul\":12801:12920   */\n    tag_915:\n        /* \"#utility.yul\":12959:12960   */\n      0x00\n        /* \"#utility.yul\":12984:13037   */\n      tag_917\n        /* \"#utility.yul\":13029:13036   */\n      dup6\n        /* \"#utility.yul\":13020:13026   */\n      dup3\n        /* \"#utility.yul\":13009:13018   */\n      dup7\n        /* \"#utility.yul\":13005:13027   */\n      add\n        /* \"#utility.yul\":12984:13037   */\n      tag_670\n      jump\t// in\n    tag_917:\n        /* \"#utility.yul\":12974:13037   */\n      swap3\n      pop\n        /* \"#utility.yul\":12930:13047   */\n      pop\n        /* \"#utility.yul\":13086:13088   */\n      0x20\n        /* \"#utility.yul\":13112:13165   */\n      tag_918\n        /* \"#utility.yul\":13157:13164   */\n      dup6\n        /* \"#utility.yul\":13148:13154   */\n      dup3\n        /* \"#utility.yul\":13137:13146   */\n      dup7\n        /* \"#utility.yul\":13133:13155   */\n      add\n        /* \"#utility.yul\":13112:13165   */\n      tag_664\n      jump\t// in\n    tag_918:\n        /* \"#utility.yul\":13102:13165   */\n      swap2\n      pop\n        /* \"#utility.yul\":13057:13175   */\n      pop\n        /* \"#utility.yul\":12708:13182   */\n      swap3\n      pop\n      swap3\n      swap1\n      pop\n      jump\t// out\n        /* \"#utility.yul\":13188:13501   */\n    tag_74:\n        /* \"#utility.yul\":13301:13305   */\n      0x00\n        /* \"#utility.yul\":13339:13341   */\n      0x20\n        /* \"#utility.yul\":13328:13337   */\n      dup3\n        /* \"#utility.yul\":13324:13342   */\n      add\n        /* \"#utility.yul\":13316:13342   */\n      swap1\n      pop\n        /* \"#utility.yul\":13388:13397   */\n      dup2\n        /* \"#utility.yul\":13382:13386   */\n      dup2\n        /* \"#utility.yul\":13378:13398   */\n      sub\n        /* \"#utility.yul\":13374:13375   */\n      0x00\n        /* \"#utility.yul\":13363:13372   */\n      dup4\n        /* \"#utility.yul\":13359:13376   */\n      add\n        /* \"#utility.yul\":13352:13399   */\n      mstore\n        /* \"#utility.yul\":13416:13494   */\n      tag_920\n        /* \"#utility.yul\":13489:13493   */\n      dup2\n        /* \"#utility.yul\":13480:13486   */\n      dup5\n        /* \"#utility.yul\":13416:13494   */\n      tag_691\n      jump\t// in\n    tag_920:\n        /* \"#utility.yul\":13408:13494   */\n      swap1\n      pop\n        /* \"#utility.yul\":13188:13501   */\n      swap3\n      swap2\n      pop\n      pop\n      jump\t// out\n        /* \"#utility.yul\":13507:13621   */\n    tag_699:\n        /* \"#utility.yul\":13574:13580   */\n      0x00\n        /* \"#utility.yul\":13608:13613   */\n      dup2\n        /* \"#utility.yul\":13602:13614   */\n      mload\n        /* \"#utility.yul\":13592:13614   */\n      swap1\n      pop\n        /* \"#utility.yul\":13507:13621   */\n      swap2\n      swap1\n      pop\n      jump\t// out\n        /* \"#utility.yul\":13627:13811   */\n    tag_700:\n        /* \"#utility.yul\":13726:13737   */\n      0x00\n        /* \"#utility.yul\":13760:13766   */\n      dup3\n        /* \"#utility.yul\":13755:13758   */\n      dup3\n        /* \"#utility.yul\":13748:13767   */\n      mstore\n        /* \"#utility.yul\":13800:13804   */\n      0x20\n        /* \"#utility.yul\":13795:13798   */\n      dup3\n        /* \"#utility.yul\":13791:13805   */\n      add\n        /* \"#utility.yul\":13776:13805   */\n      swap1\n      pop\n        /* \"#utility.yul\":13627:13811   */\n      swap3\n      swap2\n      pop\n      pop\n      jump\t// out\n        /* \"#utility.yul\":13817:13949   */\n    tag_701:\n        /* \"#utility.yul\":13884:13888   */\n      0x00\n        /* \"#utility.yul\":13907:13910   */\n      dup2\n        /* \"#utility.yul\":13899:13910   */\n      swap1\n      pop\n        /* \"#utility.yul\":13937:13941   */\n      0x20\n        /* \"#utility.yul\":13932:13935   */\n      dup3\n        /* \"#utility.yul\":13928:13942   */\n      add\n        /* \"#utility.yul\":13920:13942   */\n      swap1\n      pop\n        /* \"#utility.yul\":13817:13949   */\n      swap2\n      swap1\n      pop\n      jump\t// out\n        /* \"#utility.yul\":13955:14063   */\n    tag_702:\n        /* \"#utility.yul\":14032:14056   */\n      tag_925\n        /* \"#utility.yul\":14050:14055   */\n      dup2\n        /* \"#utility.yul\":14032:14056   */\n      tag_662\n      jump\t// in\n    tag_925:\n        /* \"#utility.yul\":14027:14030   */\n      dup3\n        /* \"#utility.yul\":14020:14057   */\n      mstore\n        /* \"#utility.yul\":13955:14063   */\n      pop\n      pop\n      jump\t// out\n        /* \"#utility.yul\":14069:14248   */\n    tag_703:\n        /* \"#utility.yul\":14138:14148   */\n      0x00\n        /* \"#utility.yul\":14159:14205   */\n      tag_927\n        /* \"#utility.yul\":14201:14204   */\n      dup4\n        /* \"#utility.yul\":14193:14199   */\n      dup4\n        /* \"#utility.yul\":14159:14205   */\n      tag_702\n      jump\t// in\n    tag_927:\n        /* \"#utility.yul\":14237:14241   */\n      0x20\n        /* \"#utility.yul\":14232:14235   */\n      dup4\n        /* \"#utility.yul\":14228:14242   */\n      add\n        /* \"#utility.yul\":14214:14242   */\n      swap1\n      pop\n        /* \"#utility.yul\":14069:14248   */\n      swap3\n      swap2\n      pop\n      pop\n      jump\t// out\n        /* \"#utility.yul\":14254:14367   */\n    tag_704:\n        /* \"#utility.yul\":14324:14328   */\n      0x00\n        /* \"#utility.yul\":14356:14360   */\n      0x20\n        /* \"#utility.yul\":14351:14354   */\n      dup3\n        /* \"#utility.yul\":14347:14361   */\n      add\n        /* \"#utility.yul\":14339:14361   */\n      swap1\n      pop\n        /* \"#utility.yul\":14254:14367   */\n      swap2\n      swap1\n      pop\n      jump\t// out\n        /* \"#utility.yul\":14403:15135   */\n    tag_705:\n        /* \"#utility.yul\":14522:14525   */\n      0x00\n        /* \"#utility.yul\":14551:14605   */\n      tag_930\n        /* \"#utility.yul\":14599:14604   */\n      dup3\n        /* \"#utility.yul\":14551:14605   */\n      tag_699\n      jump\t// in\n    tag_930:\n        /* \"#utility.yul\":14621:14707   */\n      tag_931\n        /* \"#utility.yul\":14700:14706   */\n      dup2\n        /* \"#utility.yul\":14695:14698   */\n      dup6\n        /* \"#utility.yul\":14621:14707   */\n      tag_700\n      jump\t// in\n    tag_931:\n        /* \"#utility.yul\":14614:14707   */\n      swap4\n      pop\n        /* \"#utility.yul\":14731:14787   */\n      tag_932\n        /* \"#utility.yul\":14781:14786   */\n      dup4\n        /* \"#utility.yul\":14731:14787   */\n      tag_701\n      jump\t// in\n    tag_932:\n        /* \"#utility.yul\":14810:14817   */\n      dup1\n        /* \"#utility.yul\":14841:14842   */\n      0x00\n        /* \"#utility.yul\":14826:15110   */\n    tag_933:\n        /* \"#utility.yul\":14851:14857   */\n      dup4\n        /* \"#utility.yul\":14848:14849   */\n      dup2\n        /* \"#utility.yul\":14845:14858   */\n      lt\n        /* \"#utility.yul\":14826:15110   */\n      iszero\n      tag_935\n      jumpi\n        /* \"#utility.yul\":14927:14933   */\n      dup2\n        /* \"#utility.yul\":14921:14934   */\n      mload\n        /* \"#utility.yul\":14954:15017   */\n      tag_936\n        /* \"#utility.yul\":15013:15016   */\n      dup9\n        /* \"#utility.yul\":14998:15011   */\n      dup3\n        /* \"#utility.yul\":14954:15017   */\n      tag_703\n      jump\t// in\n    tag_936:\n        /* \"#utility.yul\":14947:15017   */\n      swap8\n      pop\n        /* \"#utility.yul\":15040:15100   */\n      tag_937\n        /* \"#utility.yul\":15093:15099   */\n      dup4\n        /* \"#utility.yul\":15040:15100   */\n      tag_704\n      jump\t// in\n    tag_937:\n        /* \"#utility.yul\":15030:15100   */\n      swap3\n      pop\n        /* \"#utility.yul\":14886:15110   */\n      pop\n        /* \"#utility.yul\":14873:14874   */\n      0x01\n        /* \"#utility.yul\":14870:14871   */\n      dup2\n        /* \"#utility.yul\":14866:14875   */\n      add\n        /* \"#utility.yul\":14861:14875   */\n      swap1\n      pop\n        /* \"#utility.yul\":14826:15110   */\n      jump(tag_933)\n    tag_935:\n        /* \"#utility.yul\":14830:14844   */\n      pop\n        /* \"#utility.yul\":15126:15129   */\n      dup6\n        /* \"#utility.yul\":15119:15129   */\n      swap4\n      pop\n        /* \"#utility.yul\":14527:15135   */\n      pop\n      pop\n      pop\n        /* \"#utility.yul\":14403:15135   */\n      swap3\n      swap2\n      pop\n      pop\n      jump\t// out\n        /* \"#utility.yul\":15141:15514   */\n    tag_81:\n        /* \"#utility.yul\":15284:15288   */\n      0x00\n        /* \"#utility.yul\":15322:15324   */\n      0x20\n        /* \"#utility.yul\":15311:15320   */\n      dup3\n        /* \"#utility.yul\":15307:15325   */\n      add\n        /* \"#utility.yul\":15299:15325   */\n      swap1\n      pop\n        /* \"#utility.yul\":15371:15380   */\n      dup2\n        /* \"#utility.yul\":15365:15369   */\n      dup2\n        /* \"#utility.yul\":15361:15381   */\n      sub\n        /* \"#utility.yul\":15357:15358   */\n      0x00\n        /* \"#utility.yul\":15346:15355   */\n      dup4\n        /* \"#utility.yul\":15342:15359   */\n      add\n        /* \"#utility.yul\":15335:15382   */\n      mstore\n        /* \"#utility.yul\":15399:15507   */\n      tag_939\n        /* \"#utility.yul\":15502:15506   */\n      dup2\n        /* \"#utility.yul\":15493:15499   */\n      dup5\n        /* \"#utility.yul\":15399:15507   */\n      tag_705\n      jump\t// in\n    tag_939:\n        /* \"#utility.yul\":15391:15507   */\n      swap1\n      pop\n        /* \"#utility.yul\":15141:15514   */\n      swap3\n      swap2\n      pop\n      pop\n      jump\t// out\n        /* \"#utility.yul\":15520:15624   */\n    tag_706:\n        /* \"#utility.yul\":15565:15572   */\n      0x00\n        /* \"#utility.yul\":15594:15618   */\n      tag_941\n        /* \"#utility.yul\":15612:15617   */\n      dup3\n        /* \"#utility.yul\":15594:15618   */\n      tag_667\n      jump\t// in\n    tag_941:\n        /* \"#utility.yul\":15583:15618   */\n      swap1\n      pop\n        /* \"#utility.yul\":15520:15624   */\n      swap2\n      swap1\n      pop\n      jump\t// out\n        /* \"#utility.yul\":15630:15768   */\n    tag_707:\n        /* \"#utility.yul\":15711:15743   */\n      tag_943\n        /* \"#utility.yul\":15737:15742   */\n      dup2\n        /* \"#utility.yul\":15711:15743   */\n      tag_706\n      jump\t// in\n    tag_943:\n        /* \"#utility.yul\":15704:15709   */\n      dup2\n        /* \"#utility.yul\":15701:15744   */\n      eq\n        /* \"#utility.yul\":15691:15762   */\n      tag_944\n      jumpi\n        /* \"#utility.yul\":15758:15759   */\n      0x00\n        /* \"#utility.yul\":15755:15756   */\n      dup1\n        /* \"#utility.yul\":15748:15760   */\n      revert\n        /* \"#utility.yul\":15691:15762   */\n    tag_944:\n        /* \"#utility.yul\":15630:15768   */\n      pop\n      jump\t// out\n        /* \"#utility.yul\":15774:15929   */\n    tag_708:\n        /* \"#utility.yul\":15828:15833   */\n      0x00\n        /* \"#utility.yul\":15866:15872   */\n      dup2\n        /* \"#utility.yul\":15853:15873   */\n      calldataload\n        /* \"#utility.yul\":15844:15873   */\n      swap1\n      pop\n        /* \"#utility.yul\":15882:15923   */\n      tag_946\n        /* \"#utility.yul\":15917:15922   */\n      dup2\n        /* \"#utility.yul\":15882:15923   */\n      tag_707\n      jump\t// in\n    tag_946:\n        /* \"#utility.yul\":15774:15929   */\n      swap3\n      swap2\n      pop\n      pop\n      jump\t// out\n        /* \"#utility.yul\":15935:16425   */\n    tag_84:\n        /* \"#utility.yul\":16011:16017   */\n      0x00\n        /* \"#utility.yul\":16019:16025   */\n      dup1\n        /* \"#utility.yul\":16068:16070   */\n      0x40\n        /* \"#utility.yul\":16056:16065   */\n      dup4\n        /* \"#utility.yul\":16047:16054   */\n      dup6\n        /* \"#utility.yul\":16043:16066   */\n      sub\n        /* \"#utility.yul\":16039:16071   */\n      slt\n        /* \"#utility.yul\":16036:16155   */\n      iszero\n      tag_948\n      jumpi\n        /* \"#utility.yul\":16074:16153   */\n      tag_949\n      tag_653\n      jump\t// in\n    tag_949:\n        /* \"#utility.yul\":16036:16155   */\n    tag_948:\n        /* \"#utility.yul\":16194:16195   */\n      0x00\n        /* \"#utility.yul\":16219:16280   */\n      tag_950\n        /* \"#utility.yul\":16272:16279   */\n      dup6\n        /* \"#utility.yul\":16263:16269   */\n      dup3\n        /* \"#utility.yul\":16252:16261   */\n      dup7\n        /* \"#utility.yul\":16248:16270   */\n      add\n        /* \"#utility.yul\":16219:16280   */\n      tag_708\n      jump\t// in\n    tag_950:\n        /* \"#utility.yul\":16209:16280   */\n      swap3\n      pop\n        /* \"#utility.yul\":16165:16290   */\n      pop\n        /* \"#utility.yul\":16329:16331   */\n      0x20\n        /* \"#utility.yul\":16355:16408   */\n      tag_951\n        /* \"#utility.yul\":16400:16407   */\n      dup6\n        /* \"#utility.yul\":16391:16397   */\n      dup3\n        /* \"#utility.yul\":16380:16389   */\n      dup7\n        /* \"#utility.yul\":16376:16398   */\n      add\n        /* \"#utility.yul\":16355:16408   */\n      tag_664\n      jump\t// in\n    tag_951:\n        /* \"#utility.yul\":16345:16408   */\n      swap2\n      pop\n        /* \"#utility.yul\":16300:16418   */\n      pop\n        /* \"#utility.yul\":15935:16425   */\n      swap3\n      pop\n      swap3\n      swap1\n      pop\n      jump\t// out\n        /* \"#utility.yul\":16431:17050   */\n    tag_90:\n        /* \"#utility.yul\":16508:16514   */\n      0x00\n        /* \"#utility.yul\":16516:16522   */\n      dup1\n        /* \"#utility.yul\":16524:16530   */\n      0x00\n        /* \"#utility.yul\":16573:16575   */\n      0x60\n        /* \"#utility.yul\":16561:16570   */\n      dup5\n        /* \"#utility.yul\":16552:16559   */\n      dup7\n        /* \"#utility.yul\":16548:16571   */\n      sub\n        /* \"#utility.yul\":16544:16576   */\n      slt\n        /* \"#utility.yul\":16541:16660   */\n      iszero\n      tag_953\n      jumpi\n        /* \"#utility.yul\":16579:16658   */\n      tag_954\n      tag_653\n      jump\t// in\n    tag_954:\n        /* \"#utility.yul\":16541:16660   */\n    tag_953:\n        /* \"#utility.yul\":16699:16700   */\n      0x00\n        /* \"#utility.yul\":16724:16777   */\n      tag_955\n        /* \"#utility.yul\":16769:16776   */\n      dup7\n        /* \"#utility.yul\":16760:16766   */\n      dup3\n        /* \"#utility.yul\":16749:16758   */\n      dup8\n        /* \"#utility.yul\":16745:16767   */\n      add\n        /* \"#utility.yul\":16724:16777   */\n      tag_670\n      jump\t// in\n    tag_955:\n        /* \"#utility.yul\":16714:16777   */\n      swap4\n      pop\n        /* \"#utility.yul\":16670:16787   */\n      pop\n        /* \"#utility.yul\":16826:16828   */\n      0x20\n        /* \"#utility.yul\":16852:16905   */\n      tag_956\n        /* \"#utility.yul\":16897:16904   */\n      dup7\n        /* \"#utility.yul\":16888:16894   */\n      dup3\n        /* \"#utility.yul\":16877:16886   */\n      dup8\n        /* \"#utility.yul\":16873:16895   */\n      add\n        /* \"#utility.yul\":16852:16905   */\n      tag_670\n      jump\t// in\n    tag_956:\n        /* \"#utility.yul\":16842:16905   */\n      swap3\n      pop\n        /* \"#utility.yul\":16797:16915   */\n      pop\n        /* \"#utility.yul\":16954:16956   */\n      0x40\n        /* \"#utility.yul\":16980:17033   */\n      tag_957\n        /* \"#utility.yul\":17025:17032   */\n      dup7\n        /* \"#utility.yul\":17016:17022   */\n      dup3\n        /* \"#utility.yul\":17005:17014   */\n      dup8\n        /* \"#utility.yul\":17001:17023   */\n      add\n        /* \"#utility.yul\":16980:17033   */\n      tag_664\n      jump\t// in\n    tag_957:\n        /* \"#utility.yul\":16970:17033   */\n      swap2\n      pop\n        /* \"#utility.yul\":16925:17043   */\n      pop\n        /* \"#utility.yul\":16431:17050   */\n      swap3\n      pop\n      swap3\n      pop\n      swap3\n      jump\t// out\n        /* \"#utility.yul\":17056:17300   */\n    tag_105:\n        /* \"#utility.yul\":17160:17164   */\n      0x00\n        /* \"#utility.yul\":17198:17200   */\n      0x20\n        /* \"#utility.yul\":17187:17196   */\n      dup3\n        /* \"#utility.yul\":17183:17201   */\n      add\n        /* \"#utility.yul\":17175:17201   */\n      swap1\n      pop\n        /* \"#utility.yul\":17211:17293   */\n      tag_959\n        /* \"#utility.yul\":17290:17291   */\n      0x00\n        /* \"#utility.yul\":17279:17288   */\n      dup4\n        /* \"#utility.yul\":17275:17292   */\n      add\n        /* \"#utility.yul\":17266:17272   */\n      dup5\n        /* \"#utility.yul\":17211:17293   */\n      tag_687\n      jump\t// in\n    tag_959:\n        /* \"#utility.yul\":17056:17300   */\n      swap3\n      swap2\n      pop\n      pop\n      jump\t// out\n        /* \"#utility.yul\":17306:18815   */\n    tag_108:\n        /* \"#utility.yul\":17460:17466   */\n      0x00\n        /* \"#utility.yul\":17468:17474   */\n      dup1\n        /* \"#utility.yul\":17476:17482   */\n      0x00\n        /* \"#utility.yul\":17484:17490   */\n      dup1\n        /* \"#utility.yul\":17492:17498   */\n      0x00\n        /* \"#utility.yul\":17541:17544   */\n      0xa0\n        /* \"#utility.yul\":17529:17538   */\n      dup7\n        /* \"#utility.yul\":17520:17527   */\n      dup9\n        /* \"#utility.yul\":17516:17539   */\n      sub\n        /* \"#utility.yul\":17512:17545   */\n      slt\n        /* \"#utility.yul\":17509:17629   */\n      iszero\n      tag_961\n      jumpi\n        /* \"#utility.yul\":17548:17627   */\n      tag_962\n      tag_653\n      jump\t// in\n    tag_962:\n        /* \"#utility.yul\":17509:17629   */\n    tag_961:\n        /* \"#utility.yul\":17668:17669   */\n      0x00\n        /* \"#utility.yul\":17693:17746   */\n      tag_963\n        /* \"#utility.yul\":17738:17745   */\n      dup9\n        /* \"#utility.yul\":17729:17735   */\n      dup3\n        /* \"#utility.yul\":17718:17727   */\n      dup10\n        /* \"#utility.yul\":17714:17736   */\n      add\n        /* \"#utility.yul\":17693:17746   */\n      tag_670\n      jump\t// in\n    tag_963:\n        /* \"#utility.yul\":17683:17746   */\n      swap6\n      pop\n        /* \"#utility.yul\":17639:17756   */\n      pop\n        /* \"#utility.yul\":17795:17797   */\n      0x20\n        /* \"#utility.yul\":17821:17874   */\n      tag_964\n        /* \"#utility.yul\":17866:17873   */\n      dup9\n        /* \"#utility.yul\":17857:17863   */\n      dup3\n        /* \"#utility.yul\":17846:17855   */\n      dup10\n        /* \"#utility.yul\":17842:17864   */\n      add\n        /* \"#utility.yul\":17821:17874   */\n      tag_670\n      jump\t// in\n    tag_964:\n        /* \"#utility.yul\":17811:17874   */\n      swap5\n      pop\n        /* \"#utility.yul\":17766:17884   */\n      pop\n        /* \"#utility.yul\":17951:17953   */\n      0x40\n        /* \"#utility.yul\":17940:17949   */\n      dup7\n        /* \"#utility.yul\":17936:17954   */\n      add\n        /* \"#utility.yul\":17923:17955   */\n      calldataload\n        /* \"#utility.yul\":17982:18000   */\n      0xffffffffffffffff\n        /* \"#utility.yul\":17974:17980   */\n      dup2\n        /* \"#utility.yul\":17971:18001   */\n      gt\n        /* \"#utility.yul\":17968:18085   */\n      iszero\n      tag_965\n      jumpi\n        /* \"#utility.yul\":18004:18083   */\n      tag_966\n      tag_654\n      jump\t// in\n    tag_966:\n        /* \"#utility.yul\":17968:18085   */\n    tag_965:\n        /* \"#utility.yul\":18109:18187   */\n      tag_967\n        /* \"#utility.yul\":18179:18186   */\n      dup9\n        /* \"#utility.yul\":18170:18176   */\n      dup3\n        /* \"#utility.yul\":18159:18168   */\n      dup10\n        /* \"#utility.yul\":18155:18177   */\n      add\n        /* \"#utility.yul\":18109:18187   */\n      tag_666\n      jump\t// in\n    tag_967:\n        /* \"#utility.yul\":18099:18187   */\n      swap4\n      pop\n        /* \"#utility.yul\":17894:18197   */\n      pop\n        /* \"#utility.yul\":18264:18266   */\n      0x60\n        /* \"#utility.yul\":18253:18262   */\n      dup7\n        /* \"#utility.yul\":18249:18267   */\n      add\n        /* \"#utility.yul\":18236:18268   */\n      calldataload\n        /* \"#utility.yul\":18295:18313   */\n      0xffffffffffffffff\n        /* \"#utility.yul\":18287:18293   */\n      dup2\n        /* \"#utility.yul\":18284:18314   */\n      gt\n        /* \"#utility.yul\":18281:18398   */\n      iszero\n      tag_968\n      jumpi\n        /* \"#utility.yul\":18317:18396   */\n      tag_969\n      tag_654\n      jump\t// in\n    tag_969:\n        /* \"#utility.yul\":18281:18398   */\n    tag_968:\n        /* \"#utility.yul\":18422:18500   */\n      tag_970\n        /* \"#utility.yul\":18492:18499   */\n      dup9\n        /* \"#utility.yul\":18483:18489   */\n      dup3\n        /* \"#utility.yul\":18472:18481   */\n      dup10\n        /* \"#utility.yul\":18468:18490   */\n      add\n        /* \"#utility.yul\":18422:18500   */\n      tag_666\n      jump\t// in\n    tag_970:\n        /* \"#utility.yul\":18412:18500   */\n      swap3\n      pop\n        /* \"#utility.yul\":18207:18510   */\n      pop\n        /* \"#utility.yul\":18577:18580   */\n      0x80\n        /* \"#utility.yul\":18566:18575   */\n      dup7\n        /* \"#utility.yul\":18562:18581   */\n      add\n        /* \"#utility.yul\":18549:18582   */\n      calldataload\n        /* \"#utility.yul\":18609:18627   */\n      0xffffffffffffffff\n        /* \"#utility.yul\":18601:18607   */\n      dup2\n        /* \"#utility.yul\":18598:18628   */\n      gt\n        /* \"#utility.yul\":18595:18712   */\n      iszero\n      tag_971\n      jumpi\n        /* \"#utility.yul\":18631:18710   */\n      tag_972\n      tag_654\n      jump\t// in\n    tag_972:\n        /* \"#utility.yul\":18595:18712   */\n    tag_971:\n        /* \"#utility.yul\":18736:18798   */\n      tag_973\n        /* \"#utility.yul\":18790:18797   */\n      dup9\n        /* \"#utility.yul\":18781:18787   */\n      dup3\n        /* \"#utility.yul\":18770:18779   */\n      dup10\n        /* \"#utility.yul\":18766:18788   */\n      add\n        /* \"#utility.yul\":18736:18798   */\n      tag_675\n      jump\t// in\n    tag_973:\n        /* \"#utility.yul\":18726:18798   */\n      swap2\n      pop\n        /* \"#utility.yul\":18520:18808   */\n      pop\n        /* \"#utility.yul\":17306:18815   */\n      swap3\n      swap6\n      pop\n      swap3\n      swap6\n      swap1\n      swap4\n      pop\n      jump\t// out\n        /* \"#utility.yul\":18821:19132   */\n    tag_709:\n        /* \"#utility.yul\":18898:18902   */\n      0x00\n        /* \"#utility.yul\":18988:19006   */\n      0xffffffffffffffff\n        /* \"#utility.yul\":18980:18986   */\n      dup3\n        /* \"#utility.yul\":18977:19007   */\n      gt\n        /* \"#utility.yul\":18974:19030   */\n      iszero\n      tag_975\n      jumpi\n        /* \"#utility.yul\":19010:19028   */\n      tag_976\n      tag_657\n      jump\t// in\n    tag_976:\n        /* \"#utility.yul\":18974:19030   */\n    tag_975:\n        /* \"#utility.yul\":19060:19064   */\n      0x20\n        /* \"#utility.yul\":19052:19058   */\n      dup3\n        /* \"#utility.yul\":19048:19065   */\n      mul\n        /* \"#utility.yul\":19040:19065   */\n      swap1\n      pop\n        /* \"#utility.yul\":19120:19124   */\n      0x20\n        /* \"#utility.yul\":19114:19118   */\n      dup2\n        /* \"#utility.yul\":19110:19125   */\n      add\n        /* \"#utility.yul\":19102:19125   */\n      swap1\n      pop\n        /* \"#utility.yul\":18821:19132   */\n      swap2\n      swap1\n      pop\n      jump\t// out\n        /* \"#utility.yul\":19155:19865   */\n    tag_710:\n        /* \"#utility.yul\":19251:19256   */\n      0x00\n        /* \"#utility.yul\":19276:19357   */\n      tag_978\n        /* \"#utility.yul\":19292:19356   */\n      tag_979\n        /* \"#utility.yul\":19349:19355   */\n      dup5\n        /* \"#utility.yul\":19292:19356   */\n      tag_709\n      jump\t// in\n    tag_979:\n        /* \"#utility.yul\":19276:19357   */\n      tag_659\n      jump\t// in\n    tag_978:\n        /* \"#utility.yul\":19267:19357   */\n      swap1\n      pop\n        /* \"#utility.yul\":19377:19382   */\n      dup1\n        /* \"#utility.yul\":19406:19412   */\n      dup4\n        /* \"#utility.yul\":19399:19404   */\n      dup3\n        /* \"#utility.yul\":19392:19413   */\n      mstore\n        /* \"#utility.yul\":19440:19444   */\n      0x20\n        /* \"#utility.yul\":19433:19438   */\n      dup3\n        /* \"#utility.yul\":19429:19445   */\n      add\n        /* \"#utility.yul\":19422:19445   */\n      swap1\n      pop\n        /* \"#utility.yul\":19493:19497   */\n      0x20\n        /* \"#utility.yul\":19485:19491   */\n      dup5\n        /* \"#utility.yul\":19481:19498   */\n      mul\n        /* \"#utility.yul\":19473:19479   */\n      dup4\n        /* \"#utility.yul\":19469:19499   */\n      add\n        /* \"#utility.yul\":19522:19525   */\n      dup6\n        /* \"#utility.yul\":19514:19520   */\n      dup2\n        /* \"#utility.yul\":19511:19526   */\n      gt\n        /* \"#utility.yul\":19508:19630   */\n      iszero\n      tag_980\n      jumpi\n        /* \"#utility.yul\":19541:19620   */\n      tag_981\n      tag_661\n      jump\t// in\n    tag_981:\n        /* \"#utility.yul\":19508:19630   */\n    tag_980:\n        /* \"#utility.yul\":19656:19662   */\n      dup4\n        /* \"#utility.yul\":19639:19859   */\n    tag_982:\n        /* \"#utility.yul\":19673:19679   */\n      dup2\n        /* \"#utility.yul\":19668:19671   */\n      dup2\n        /* \"#utility.yul\":19665:19680   */\n      lt\n        /* \"#utility.yul\":19639:19859   */\n      iszero\n      tag_984\n      jumpi\n        /* \"#utility.yul\":19748:19751   */\n      dup1\n        /* \"#utility.yul\":19777:19814   */\n      tag_985\n        /* \"#utility.yul\":19810:19813   */\n      dup9\n        /* \"#utility.yul\":19798:19808   */\n      dup3\n        /* \"#utility.yul\":19777:19814   */\n      tag_670\n      jump\t// in\n    tag_985:\n        /* \"#utility.yul\":19772:19775   */\n      dup5\n        /* \"#utility.yul\":19765:19815   */\n      mstore\n        /* \"#utility.yul\":19844:19848   */\n      0x20\n        /* \"#utility.yul\":19839:19842   */\n      dup5\n        /* \"#utility.yul\":19835:19849   */\n      add\n        /* \"#utility.yul\":19828:19849   */\n      swap4\n      pop\n        /* \"#utility.yul\":19715:19859   */\n      pop\n        /* \"#utility.yul\":19699:19703   */\n      0x20\n        /* \"#utility.yul\":19694:19697   */\n      dup2\n        /* \"#utility.yul\":19690:19704   */\n      add\n        /* \"#utility.yul\":19683:19704   */\n      swap1\n      pop\n        /* \"#utility.yul\":19639:19859   */\n      jump(tag_982)\n    tag_984:\n        /* \"#utility.yul\":19643:19664   */\n      pop\n        /* \"#utility.yul\":19257:19865   */\n      pop\n      pop\n        /* \"#utility.yul\":19155:19865   */\n      swap4\n      swap3\n      pop\n      pop\n      pop\n      jump\t// out\n        /* \"#utility.yul\":19888:20258   */\n    tag_711:\n        /* \"#utility.yul\":19959:19964   */\n      0x00\n        /* \"#utility.yul\":20008:20011   */\n      dup3\n        /* \"#utility.yul\":20001:20005   */\n      0x1f\n        /* \"#utility.yul\":19993:19999   */\n      dup4\n        /* \"#utility.yul\":19989:20006   */\n      add\n        /* \"#utility.yul\":19985:20012   */\n      slt\n        /* \"#utility.yul\":19975:20097   */\n      tag_987\n      jumpi\n        /* \"#utility.yul\":20016:20095   */\n      tag_988\n      tag_655\n      jump\t// in\n    tag_988:\n        /* \"#utility.yul\":19975:20097   */\n    tag_987:\n        /* \"#utility.yul\":20133:20139   */\n      dup2\n        /* \"#utility.yul\":20120:20140   */\n      calldataload\n        /* \"#utility.yul\":20158:20252   */\n      tag_989\n        /* \"#utility.yul\":20248:20251   */\n      dup5\n        /* \"#utility.yul\":20240:20246   */\n      dup3\n        /* \"#utility.yul\":20233:20237   */\n      0x20\n        /* \"#utility.yul\":20225:20231   */\n      dup7\n        /* \"#utility.yul\":20221:20238   */\n      add\n        /* \"#utility.yul\":20158:20252   */\n      tag_710\n      jump\t// in\n    tag_989:\n        /* \"#utility.yul\":20149:20252   */\n      swap2\n      pop\n        /* \"#utility.yul\":19965:20258   */\n      pop\n        /* \"#utility.yul\":19888:20258   */\n      swap3\n      swap2\n      pop\n      pop\n      jump\t// out\n        /* \"#utility.yul\":20264:21303   */\n    tag_113:\n        /* \"#utility.yul\":20391:20397   */\n      0x00\n        /* \"#utility.yul\":20399:20405   */\n      dup1\n        /* \"#utility.yul\":20407:20413   */\n      0x00\n        /* \"#utility.yul\":20456:20458   */\n      0x60\n        /* \"#utility.yul\":20444:20453   */\n      dup5\n        /* \"#utility.yul\":20435:20442   */\n      dup7\n        /* \"#utility.yul\":20431:20454   */\n      sub\n        /* \"#utility.yul\":20427:20459   */\n      slt\n        /* \"#utility.yul\":20424:20543   */\n      iszero\n      tag_991\n      jumpi\n        /* \"#utility.yul\":20462:20541   */\n      tag_992\n      tag_653\n      jump\t// in\n    tag_992:\n        /* \"#utility.yul\":20424:20543   */\n    tag_991:\n        /* \"#utility.yul\":20610:20611   */\n      0x00\n        /* \"#utility.yul\":20599:20608   */\n      dup5\n        /* \"#utility.yul\":20595:20612   */\n      add\n        /* \"#utility.yul\":20582:20613   */\n      calldataload\n        /* \"#utility.yul\":20640:20658   */\n      0xffffffffffffffff\n        /* \"#utility.yul\":20632:20638   */\n      dup2\n        /* \"#utility.yul\":20629:20659   */\n      gt\n        /* \"#utility.yul\":20626:20743   */\n      iszero\n      tag_993\n      jumpi\n        /* \"#utility.yul\":20662:20741   */\n      tag_994\n      tag_654\n      jump\t// in\n    tag_994:\n        /* \"#utility.yul\":20626:20743   */\n    tag_993:\n        /* \"#utility.yul\":20767:20845   */\n      tag_995\n        /* \"#utility.yul\":20837:20844   */\n      dup7\n        /* \"#utility.yul\":20828:20834   */\n      dup3\n        /* \"#utility.yul\":20817:20826   */\n      dup8\n        /* \"#utility.yul\":20813:20835   */\n      add\n        /* \"#utility.yul\":20767:20845   */\n      tag_711\n      jump\t// in\n    tag_995:\n        /* \"#utility.yul\":20757:20845   */\n      swap4\n      pop\n        /* \"#utility.yul\":20553:20855   */\n      pop\n        /* \"#utility.yul\":20922:20924   */\n      0x20\n        /* \"#utility.yul\":20911:20920   */\n      dup5\n        /* \"#utility.yul\":20907:20925   */\n      add\n        /* \"#utility.yul\":20894:20926   */\n      calldataload\n        /* \"#utility.yul\":20953:20971   */\n      0xffffffffffffffff\n        /* \"#utility.yul\":20945:20951   */\n      dup2\n        /* \"#utility.yul\":20942:20972   */\n      gt\n        /* \"#utility.yul\":20939:21056   */\n      iszero\n      tag_996\n      jumpi\n        /* \"#utility.yul\":20975:21054   */\n      tag_997\n      tag_654\n      jump\t// in\n    tag_997:\n        /* \"#utility.yul\":20939:21056   */\n    tag_996:\n        /* \"#utility.yul\":21080:21158   */\n      tag_998\n        /* \"#utility.yul\":21150:21157   */\n      dup7\n        /* \"#utility.yul\":21141:21147   */\n      dup3\n        /* \"#utility.yul\":21130:21139   */\n      dup8\n        /* \"#utility.yul\":21126:21148   */\n      add\n        /* \"#utility.yul\":21080:21158   */\n      tag_666\n      jump\t// in\n    tag_998:\n        /* \"#utility.yul\":21070:21158   */\n      swap3\n      pop\n        /* \"#utility.yul\":20865:21168   */\n      pop\n        /* \"#utility.yul\":21207:21209   */\n      0x40\n        /* \"#utility.yul\":21233:21286   */\n      tag_999\n        /* \"#utility.yul\":21278:21285   */\n      dup7\n        /* \"#utility.yul\":21269:21275   */\n      dup3\n        /* \"#utility.yul\":21258:21267   */\n      dup8\n        /* \"#utility.yul\":21254:21276   */\n      add\n        /* \"#utility.yul\":21233:21286   */\n      tag_670\n      jump\t// in\n    tag_999:\n        /* \"#utility.yul\":21223:21286   */\n      swap2\n      pop\n        /* \"#utility.yul\":21178:21296   */\n      pop\n        /* \"#utility.yul\":20264:21303   */\n      swap3\n      pop\n      swap3\n      pop\n      swap3\n      jump\t// out\n        /* \"#utility.yul\":21309:22704   */\n    tag_126:\n        /* \"#utility.yul\":21470:21476   */\n      0x00\n        /* \"#utility.yul\":21478:21484   */\n      dup1\n        /* \"#utility.yul\":21486:21492   */\n      0x00\n        /* \"#utility.yul\":21494:21500   */\n      dup1\n        /* \"#utility.yul\":21543:21546   */\n      0x80\n        /* \"#utility.yul\":21531:21540   */\n      dup6\n        /* \"#utility.yul\":21522:21529   */\n      dup8\n        /* \"#utility.yul\":21518:21541   */\n      sub\n        /* \"#utility.yul\":21514:21547   */\n      slt\n        /* \"#utility.yul\":21511:21631   */\n      iszero\n      tag_1001\n      jumpi\n        /* \"#utility.yul\":21550:21629   */\n      tag_1002\n      tag_653\n      jump\t// in\n    tag_1002:\n        /* \"#utility.yul\":21511:21631   */\n    tag_1001:\n        /* \"#utility.yul\":21698:21699   */\n      0x00\n        /* \"#utility.yul\":21687:21696   */\n      dup6\n        /* \"#utility.yul\":21683:21700   */\n      add\n        /* \"#utility.yul\":21670:21701   */\n      calldataload\n        /* \"#utility.yul\":21728:21746   */\n      0xffffffffffffffff\n        /* \"#utility.yul\":21720:21726   */\n      dup2\n        /* \"#utility.yul\":21717:21747   */\n      gt\n        /* \"#utility.yul\":21714:21831   */\n      iszero\n      tag_1003\n      jumpi\n        /* \"#utility.yul\":21750:21829   */\n      tag_1004\n      tag_654\n      jump\t// in\n    tag_1004:\n        /* \"#utility.yul\":21714:21831   */\n    tag_1003:\n        /* \"#utility.yul\":21855:21933   */\n      tag_1005\n        /* \"#utility.yul\":21925:21932   */\n      dup8\n        /* \"#utility.yul\":21916:21922   */\n      dup3\n        /* \"#utility.yul\":21905:21914   */\n      dup9\n        /* \"#utility.yul\":21901:21923   */\n      add\n        /* \"#utility.yul\":21855:21933   */\n      tag_711\n      jump\t// in\n    tag_1005:\n        /* \"#utility.yul\":21845:21933   */\n      swap5\n      pop\n        /* \"#utility.yul\":21641:21943   */\n      pop\n        /* \"#utility.yul\":22010:22012   */\n      0x20\n        /* \"#utility.yul\":21999:22008   */\n      dup6\n        /* \"#utility.yul\":21995:22013   */\n      add\n        /* \"#utility.yul\":21982:22014   */\n      calldataload\n        /* \"#utility.yul\":22041:22059   */\n      0xffffffffffffffff\n        /* \"#utility.yul\":22033:22039   */\n      dup2\n        /* \"#utility.yul\":22030:22060   */\n      gt\n        /* \"#utility.yul\":22027:22144   */\n      iszero\n      tag_1006\n      jumpi\n        /* \"#utility.yul\":22063:22142   */\n      tag_1007\n      tag_654\n      jump\t// in\n    tag_1007:\n        /* \"#utility.yul\":22027:22144   */\n    tag_1006:\n        /* \"#utility.yul\":22168:22246   */\n      tag_1008\n        /* \"#utility.yul\":22238:22245   */\n      dup8\n        /* \"#utility.yul\":22229:22235   */\n      dup3\n        /* \"#utility.yul\":22218:22227   */\n      dup9\n        /* \"#utility.yul\":22214:22236   */\n      add\n        /* \"#utility.yul\":22168:22246   */\n      tag_666\n      jump\t// in\n    tag_1008:\n        /* \"#utility.yul\":22158:22246   */\n      swap4\n      pop\n        /* \"#utility.yul\":21953:22256   */\n      pop\n        /* \"#utility.yul\":22323:22325   */\n      0x40\n        /* \"#utility.yul\":22312:22321   */\n      dup6\n        /* \"#utility.yul\":22308:22326   */\n      add\n        /* \"#utility.yul\":22295:22327   */\n      calldataload\n        /* \"#utility.yul\":22354:22372   */\n      0xffffffffffffffff\n        /* \"#utility.yul\":22346:22352   */\n      dup2\n        /* \"#utility.yul\":22343:22373   */\n      gt\n        /* \"#utility.yul\":22340:22457   */\n      iszero\n      tag_1009\n      jumpi\n        /* \"#utility.yul\":22376:22455   */\n      tag_1010\n      tag_654\n      jump\t// in\n    tag_1010:\n        /* \"#utility.yul\":22340:22457   */\n    tag_1009:\n        /* \"#utility.yul\":22481:22559   */\n      tag_1011\n        /* \"#utility.yul\":22551:22558   */\n      dup8\n        /* \"#utility.yul\":22542:22548   */\n      dup3\n        /* \"#utility.yul\":22531:22540   */\n      dup9\n        /* \"#utility.yul\":22527:22549   */\n      add\n        /* \"#utility.yul\":22481:22559   */\n      tag_666\n      jump\t// in\n    tag_1011:\n        /* \"#utility.yul\":22471:22559   */\n      swap3\n      pop\n        /* \"#utility.yul\":22266:22569   */\n      pop\n        /* \"#utility.yul\":22608:22610   */\n      0x60\n        /* \"#utility.yul\":22634:22687   */\n      tag_1012\n        /* \"#utility.yul\":22679:22686   */\n      dup8\n        /* \"#utility.yul\":22670:22676   */\n      dup3\n        /* \"#utility.yul\":22659:22668   */\n      dup9\n        /* \"#utility.yul\":22655:22677   */\n      add\n        /* \"#utility.yul\":22634:22687   */\n      tag_670\n      jump\t// in\n    tag_1012:\n        /* \"#utility.yul\":22624:22687   */\n      swap2\n      pop\n        /* \"#utility.yul\":22579:22697   */\n      pop\n        /* \"#utility.yul\":21309:22704   */\n      swap3\n      swap6\n      swap2\n      swap5\n      pop\n      swap3\n      pop\n      jump\t// out\n        /* \"#utility.yul\":22710:22822   */\n    tag_712:\n        /* \"#utility.yul\":22796:22797   */\n      0x03\n        /* \"#utility.yul\":22789:22794   */\n      dup2\n        /* \"#utility.yul\":22786:22798   */\n      lt\n        /* \"#utility.yul\":22776:22816   */\n      tag_1014\n      jumpi\n        /* \"#utility.yul\":22812:22813   */\n      0x00\n        /* \"#utility.yul\":22809:22810   */\n      dup1\n        /* \"#utility.yul\":22802:22814   */\n      revert\n        /* \"#utility.yul\":22776:22816   */\n    tag_1014:\n        /* \"#utility.yul\":22710:22822   */\n      pop\n      jump\t// out\n        /* \"#utility.yul\":22828:22993   */\n    tag_713:\n        /* \"#utility.yul\":22887:22892   */\n      0x00\n        /* \"#utility.yul\":22925:22931   */\n      dup2\n        /* \"#utility.yul\":22912:22932   */\n      calldataload\n        /* \"#utility.yul\":22903:22932   */\n      swap1\n      pop\n        /* \"#utility.yul\":22941:22987   */\n      tag_1016\n        /* \"#utility.yul\":22981:22986   */\n      dup2\n        /* \"#utility.yul\":22941:22987   */\n      tag_712\n      jump\t// in\n    tag_1016:\n        /* \"#utility.yul\":22828:22993   */\n      swap3\n      swap2\n      pop\n      pop\n      jump\t// out\n        /* \"#utility.yul\":22999:23307   */\n    tag_714:\n        /* \"#utility.yul\":23061:23065   */\n      0x00\n        /* \"#utility.yul\":23151:23169   */\n      0xffffffffffffffff\n        /* \"#utility.yul\":23143:23149   */\n      dup3\n        /* \"#utility.yul\":23140:23170   */\n      gt\n        /* \"#utility.yul\":23137:23193   */\n      iszero\n      tag_1018\n      jumpi\n        /* \"#utility.yul\":23173:23191   */\n      tag_1019\n      tag_657\n      jump\t// in\n    tag_1019:\n        /* \"#utility.yul\":23137:23193   */\n    tag_1018:\n        /* \"#utility.yul\":23211:23240   */\n      tag_1020\n        /* \"#utility.yul\":23233:23239   */\n      dup3\n        /* \"#utility.yul\":23211:23240   */\n      tag_656\n      jump\t// in\n    tag_1020:\n        /* \"#utility.yul\":23203:23240   */\n      swap1\n      pop\n        /* \"#utility.yul\":23295:23299   */\n      0x20\n        /* \"#utility.yul\":23289:23293   */\n      dup2\n        /* \"#utility.yul\":23285:23300   */\n      add\n        /* \"#utility.yul\":23277:23300   */\n      swap1\n      pop\n        /* \"#utility.yul\":22999:23307   */\n      swap2\n      swap1\n      pop\n      jump\t// out\n        /* \"#utility.yul\":23313:23725   */\n    tag_715:\n        /* \"#utility.yul\":23391:23396   */\n      0x00\n        /* \"#utility.yul\":23416:23482   */\n      tag_1022\n        /* \"#utility.yul\":23432:23481   */\n      tag_1023\n        /* \"#utility.yul\":23474:23480   */\n      dup5\n        /* \"#utility.yul\":23432:23481   */\n      tag_714\n      jump\t// in\n    tag_1023:\n        /* \"#utility.yul\":23416:23482   */\n      tag_659\n      jump\t// in\n    tag_1022:\n        /* \"#utility.yul\":23407:23482   */\n      swap1\n      pop\n        /* \"#utility.yul\":23505:23511   */\n      dup3\n        /* \"#utility.yul\":23498:23503   */\n      dup2\n        /* \"#utility.yul\":23491:23512   */\n      mstore\n        /* \"#utility.yul\":23543:23547   */\n      0x20\n        /* \"#utility.yul\":23536:23541   */\n      dup2\n        /* \"#utility.yul\":23532:23548   */\n      add\n        /* \"#utility.yul\":23581:23584   */\n      dup5\n        /* \"#utility.yul\":23572:23578   */\n      dup5\n        /* \"#utility.yul\":23567:23570   */\n      dup5\n        /* \"#utility.yul\":23563:23579   */\n      add\n        /* \"#utility.yul\":23560:23585   */\n      gt\n        /* \"#utility.yul\":23557:23669   */\n      iszero\n      tag_1024\n      jumpi\n        /* \"#utility.yul\":23588:23667   */\n      tag_1025\n      tag_671\n      jump\t// in\n    tag_1025:\n        /* \"#utility.yul\":23557:23669   */\n    tag_1024:\n        /* \"#utility.yul\":23678:23719   */\n      tag_1026\n        /* \"#utility.yul\":23712:23718   */\n      dup5\n        /* \"#utility.yul\":23707:23710   */\n      dup3\n        /* \"#utility.yul\":23702:23705   */\n      dup6\n        /* \"#utility.yul\":23678:23719   */\n      tag_673\n      jump\t// in\n    tag_1026:\n        /* \"#utility.yul\":23397:23725   */\n      pop\n        /* \"#utility.yul\":23313:23725   */\n      swap4\n      swap3\n      pop\n      pop\n      pop\n      jump\t// out\n        /* \"#utility.yul\":23745:24085   */\n    tag_716:\n        /* \"#utility.yul\":23801:23806   */\n      0x00\n        /* \"#utility.yul\":23850:23853   */\n      dup3\n        /* \"#utility.yul\":23843:23847   */\n      0x1f\n        /* \"#utility.yul\":23835:23841   */\n      dup4\n        /* \"#utility.yul\":23831:23848   */\n      add\n        /* \"#utility.yul\":23827:23854   */\n      slt\n        /* \"#utility.yul\":23817:23939   */\n      tag_1028\n      jumpi\n        /* \"#utility.yul\":23858:23937   */\n      tag_1029\n      tag_655\n      jump\t// in\n    tag_1029:\n        /* \"#utility.yul\":23817:23939   */\n    tag_1028:\n        /* \"#utility.yul\":23975:23981   */\n      dup2\n        /* \"#utility.yul\":23962:23982   */\n      calldataload\n        /* \"#utility.yul\":24000:24079   */\n      tag_1030\n        /* \"#utility.yul\":24075:24078   */\n      dup5\n        /* \"#utility.yul\":24067:24073   */\n      dup3\n        /* \"#utility.yul\":24060:24064   */\n      0x20\n        /* \"#utility.yul\":24052:24058   */\n      dup7\n        /* \"#utility.yul\":24048:24065   */\n      add\n        /* \"#utility.yul\":24000:24079   */\n      tag_715\n      jump\t// in\n    tag_1030:\n        /* \"#utility.yul\":23991:24079   */\n      swap2\n      pop\n        /* \"#utility.yul\":23807:24085   */\n      pop\n        /* \"#utility.yul\":23745:24085   */\n      swap3\n      swap2\n      pop\n      pop\n      jump\t// out\n        /* \"#utility.yul\":24091:25062   */\n    tag_130:\n        /* \"#utility.yul\":24200:24206   */\n      0x00\n        /* \"#utility.yul\":24208:24214   */\n      dup1\n        /* \"#utility.yul\":24216:24222   */\n      0x00\n        /* \"#utility.yul\":24224:24230   */\n      dup1\n        /* \"#utility.yul\":24273:24276   */\n      0x80\n        /* \"#utility.yul\":24261:24270   */\n      dup6\n        /* \"#utility.yul\":24252:24259   */\n      dup8\n        /* \"#utility.yul\":24248:24271   */\n      sub\n        /* \"#utility.yul\":24244:24277   */\n      slt\n        /* \"#utility.yul\":24241:24361   */\n      iszero\n      tag_1032\n      jumpi\n        /* \"#utility.yul\":24280:24359   */\n      tag_1033\n      tag_653\n      jump\t// in\n    tag_1033:\n        /* \"#utility.yul\":24241:24361   */\n    tag_1032:\n        /* \"#utility.yul\":24400:24401   */\n      0x00\n        /* \"#utility.yul\":24425:24478   */\n      tag_1034\n        /* \"#utility.yul\":24470:24477   */\n      dup8\n        /* \"#utility.yul\":24461:24467   */\n      dup3\n        /* \"#utility.yul\":24450:24459   */\n      dup9\n        /* \"#utility.yul\":24446:24468   */\n      add\n        /* \"#utility.yul\":24425:24478   */\n      tag_670\n      jump\t// in\n    tag_1034:\n        /* \"#utility.yul\":24415:24478   */\n      swap5\n      pop\n        /* \"#utility.yul\":24371:24488   */\n      pop\n        /* \"#utility.yul\":24527:24529   */\n      0x20\n        /* \"#utility.yul\":24553:24606   */\n      tag_1035\n        /* \"#utility.yul\":24598:24605   */\n      dup8\n        /* \"#utility.yul\":24589:24595   */\n      dup3\n        /* \"#utility.yul\":24578:24587   */\n      dup9\n        /* \"#utility.yul\":24574:24596   */\n      add\n        /* \"#utility.yul\":24553:24606   */\n      tag_664\n      jump\t// in\n    tag_1035:\n        /* \"#utility.yul\":24543:24606   */\n      swap4\n      pop\n        /* \"#utility.yul\":24498:24616   */\n      pop\n        /* \"#utility.yul\":24655:24657   */\n      0x40\n        /* \"#utility.yul\":24681:24747   */\n      tag_1036\n        /* \"#utility.yul\":24739:24746   */\n      dup8\n        /* \"#utility.yul\":24730:24736   */\n      dup3\n        /* \"#utility.yul\":24719:24728   */\n      dup9\n        /* \"#utility.yul\":24715:24737   */\n      add\n        /* \"#utility.yul\":24681:24747   */\n      tag_713\n      jump\t// in\n    tag_1036:\n        /* \"#utility.yul\":24671:24747   */\n      swap3\n      pop\n        /* \"#utility.yul\":24626:24757   */\n      pop\n        /* \"#utility.yul\":24824:24826   */\n      0x60\n        /* \"#utility.yul\":24813:24822   */\n      dup6\n        /* \"#utility.yul\":24809:24827   */\n      add\n        /* \"#utility.yul\":24796:24828   */\n      calldataload\n        /* \"#utility.yul\":24855:24873   */\n      0xffffffffffffffff\n        /* \"#utility.yul\":24847:24853   */\n      dup2\n        /* \"#utility.yul\":24844:24874   */\n      gt\n        /* \"#utility.yul\":24841:24958   */\n      iszero\n      tag_1037\n      jumpi\n        /* \"#utility.yul\":24877:24956   */\n      tag_1038\n      tag_654\n      jump\t// in\n    tag_1038:\n        /* \"#utility.yul\":24841:24958   */\n    tag_1037:\n        /* \"#utility.yul\":24982:25045   */\n      tag_1039\n        /* \"#utility.yul\":25037:25044   */\n      dup8\n        /* \"#utility.yul\":25028:25034   */\n      dup3\n        /* \"#utility.yul\":25017:25026   */\n      dup9\n        /* \"#utility.yul\":25013:25035   */\n      add\n        /* \"#utility.yul\":24982:25045   */\n      tag_716\n      jump\t// in\n    tag_1039:\n        /* \"#utility.yul\":24972:25045   */\n      swap2\n      pop\n        /* \"#utility.yul\":24767:25055   */\n      pop\n        /* \"#utility.yul\":24091:25062   */\n      swap3\n      swap6\n      swap2\n      swap5\n      pop\n      swap3\n      pop\n      jump\t// out\n        /* \"#utility.yul\":25068:26157   */\n    tag_134:\n        /* \"#utility.yul\":25172:25178   */\n      0x00\n        /* \"#utility.yul\":25180:25186   */\n      dup1\n        /* \"#utility.yul\":25188:25194   */\n      0x00\n        /* \"#utility.yul\":25196:25202   */\n      dup1\n        /* \"#utility.yul\":25204:25210   */\n      0x00\n        /* \"#utility.yul\":25253:25256   */\n      0xa0\n        /* \"#utility.yul\":25241:25250   */\n      dup7\n        /* \"#utility.yul\":25232:25239   */\n      dup9\n        /* \"#utility.yul\":25228:25251   */\n      sub\n        /* \"#utility.yul\":25224:25257   */\n      slt\n        /* \"#utility.yul\":25221:25341   */\n      iszero\n      tag_1041\n      jumpi\n        /* \"#utility.yul\":25260:25339   */\n      tag_1042\n      tag_653\n      jump\t// in\n    tag_1042:\n        /* \"#utility.yul\":25221:25341   */\n    tag_1041:\n        /* \"#utility.yul\":25380:25381   */\n      0x00\n        /* \"#utility.yul\":25405:25458   */\n      tag_1043\n        /* \"#utility.yul\":25450:25457   */\n      dup9\n        /* \"#utility.yul\":25441:25447   */\n      dup3\n        /* \"#utility.yul\":25430:25439   */\n      dup10\n        /* \"#utility.yul\":25426:25448   */\n      add\n        /* \"#utility.yul\":25405:25458   */\n      tag_670\n      jump\t// in\n    tag_1043:\n        /* \"#utility.yul\":25395:25458   */\n      swap6\n      pop\n        /* \"#utility.yul\":25351:25468   */\n      pop\n        /* \"#utility.yul\":25507:25509   */\n      0x20\n        /* \"#utility.yul\":25533:25586   */\n      tag_1044\n        /* \"#utility.yul\":25578:25585   */\n      dup9\n        /* \"#utility.yul\":25569:25575   */\n      dup3\n        /* \"#utility.yul\":25558:25567   */\n      dup10\n        /* \"#utility.yul\":25554:25576   */\n      add\n        /* \"#utility.yul\":25533:25586   */\n      tag_670\n      jump\t// in\n    tag_1044:\n        /* \"#utility.yul\":25523:25586   */\n      swap5\n      pop\n        /* \"#utility.yul\":25478:25596   */\n      pop\n        /* \"#utility.yul\":25635:25637   */\n      0x40\n        /* \"#utility.yul\":25661:25714   */\n      tag_1045\n        /* \"#utility.yul\":25706:25713   */\n      dup9\n        /* \"#utility.yul\":25697:25703   */\n      dup3\n        /* \"#utility.yul\":25686:25695   */\n      dup10\n        /* \"#utility.yul\":25682:25704   */\n      add\n        /* \"#utility.yul\":25661:25714   */\n      tag_664\n      jump\t// in\n    tag_1045:\n        /* \"#utility.yul\":25651:25714   */\n      swap4\n      pop\n        /* \"#utility.yul\":25606:25724   */\n      pop\n        /* \"#utility.yul\":25763:25765   */\n      0x60\n        /* \"#utility.yul\":25789:25842   */\n      tag_1046\n        /* \"#utility.yul\":25834:25841   */\n      dup9\n        /* \"#utility.yul\":25825:25831   */\n      dup3\n        /* \"#utility.yul\":25814:25823   */\n      dup10\n        /* \"#utility.yul\":25810:25832   */\n      add\n        /* \"#utility.yul\":25789:25842   */\n      tag_664\n      jump\t// in\n    tag_1046:\n        /* \"#utility.yul\":25779:25842   */\n      swap3\n      pop\n        /* \"#utility.yul\":25734:25852   */\n      pop\n        /* \"#utility.yul\":25919:25922   */\n      0x80\n        /* \"#utility.yul\":25908:25917   */\n      dup7\n        /* \"#utility.yul\":25904:25923   */\n      add\n        /* \"#utility.yul\":25891:25924   */\n      calldataload\n        /* \"#utility.yul\":25951:25969   */\n      0xffffffffffffffff\n        /* \"#utility.yul\":25943:25949   */\n      dup2\n        /* \"#utility.yul\":25940:25970   */\n      gt\n        /* \"#utility.yul\":25937:26054   */\n      iszero\n      tag_1047\n      jumpi\n        /* \"#utility.yul\":25973:26052   */\n      tag_1048\n      tag_654\n      jump\t// in\n    tag_1048:\n        /* \"#utility.yul\":25937:26054   */\n    tag_1047:\n        /* \"#utility.yul\":26078:26140   */\n      tag_1049\n        /* \"#utility.yul\":26132:26139   */\n      dup9\n        /* \"#utility.yul\":26123:26129   */\n      dup3\n        /* \"#utility.yul\":26112:26121   */\n      dup10\n        /* \"#utility.yul\":26108:26130   */\n      add\n        /* \"#utility.yul\":26078:26140   */\n      tag_675\n      jump\t// in\n    tag_1049:\n        /* \"#utility.yul\":26068:26140   */\n      swap2\n      pop\n        /* \"#utility.yul\":25862:26150   */\n      pop\n        /* \"#utility.yul\":25068:26157   */\n      swap3\n      swap6\n      pop\n      swap3\n      swap6\n      swap1\n      swap4\n      pop\n      jump\t// out\n        /* \"#utility.yul\":26163:26279   */\n    tag_717:\n        /* \"#utility.yul\":26233:26254   */\n      tag_1051\n        /* \"#utility.yul\":26248:26253   */\n      dup2\n        /* \"#utility.yul\":26233:26254   */\n      tag_692\n      jump\t// in\n    tag_1051:\n        /* \"#utility.yul\":26226:26231   */\n      dup2\n        /* \"#utility.yul\":26223:26255   */\n      eq\n        /* \"#utility.yul\":26213:26273   */\n      tag_1052\n      jumpi\n        /* \"#utility.yul\":26269:26270   */\n      0x00\n        /* \"#utility.yul\":26266:26267   */\n      dup1\n        /* \"#utility.yul\":26259:26271   */\n      revert\n        /* \"#utility.yul\":26213:26273   */\n    tag_1052:\n        /* \"#utility.yul\":26163:26279   */\n      pop\n      jump\t// out\n        /* \"#utility.yul\":26285:26422   */\n    tag_718:\n        /* \"#utility.yul\":26339:26344   */\n      0x00\n        /* \"#utility.yul\":26370:26376   */\n      dup2\n        /* \"#utility.yul\":26364:26377   */\n      mload\n        /* \"#utility.yul\":26355:26377   */\n      swap1\n      pop\n        /* \"#utility.yul\":26386:26416   */\n      tag_1054\n        /* \"#utility.yul\":26410:26415   */\n      dup2\n        /* \"#utility.yul\":26386:26416   */\n      tag_717\n      jump\t// in\n    tag_1054:\n        /* \"#utility.yul\":26285:26422   */\n      swap3\n      swap2\n      pop\n      pop\n      jump\t// out\n        /* \"#utility.yul\":26428:26773   */\n    tag_142:\n        /* \"#utility.yul\":26495:26501   */\n      0x00\n        /* \"#utility.yul\":26544:26546   */\n      0x20\n        /* \"#utility.yul\":26532:26541   */\n      dup3\n        /* \"#utility.yul\":26523:26530   */\n      dup5\n        /* \"#utility.yul\":26519:26542   */\n      sub\n        /* \"#utility.yul\":26515:26547   */\n      slt\n        /* \"#utility.yul\":26512:26631   */\n      iszero\n      tag_1056\n      jumpi\n        /* \"#utility.yul\":26550:26629   */\n      tag_1057\n      tag_653\n      jump\t// in\n    tag_1057:\n        /* \"#utility.yul\":26512:26631   */\n    tag_1056:\n        /* \"#utility.yul\":26670:26671   */\n      0x00\n        /* \"#utility.yul\":26695:26756   */\n      tag_1058\n        /* \"#utility.yul\":26748:26755   */\n      dup5\n        /* \"#utility.yul\":26739:26745   */\n      dup3\n        /* \"#utility.yul\":26728:26737   */\n      dup6\n        /* \"#utility.yul\":26724:26746   */\n      add\n        /* \"#utility.yul\":26695:26756   */\n      tag_718\n      jump\t// in\n    tag_1058:\n        /* \"#utility.yul\":26685:26756   */\n      swap2\n      pop\n        /* \"#utility.yul\":26641:26766   */\n      pop\n        /* \"#utility.yul\":26428:26773   */\n      swap3\n      swap2\n      pop\n      pop\n      jump\t// out\n        /* \"#utility.yul\":26779:26961   */\n    tag_719:\n        /* \"#utility.yul\":26919:26953   */\n      0x77686974654c697374203a3a204164647265737320636865636b206572726f72\n        /* \"#utility.yul\":26915:26916   */\n      0x00\n        /* \"#utility.yul\":26907:26913   */\n      dup3\n        /* \"#utility.yul\":26903:26917   */\n      add\n        /* \"#utility.yul\":26896:26954   */\n      mstore\n        /* \"#utility.yul\":26779:26961   */\n      pop\n      jump\t// out\n        /* \"#utility.yul\":26967:27333   */\n    tag_720:\n        /* \"#utility.yul\":27109:27112   */\n      0x00\n        /* \"#utility.yul\":27130:27197   */\n      tag_1061\n        /* \"#utility.yul\":27194:27196   */\n      0x20\n        /* \"#utility.yul\":27189:27192   */\n      dup4\n        /* \"#utility.yul\":27130:27197   */\n      tag_689\n      jump\t// in\n    tag_1061:\n        /* \"#utility.yul\":27123:27197   */\n      swap2\n      pop\n        /* \"#utility.yul\":27206:27299   */\n      tag_1062\n        /* \"#utility.yul\":27295:27298   */\n      dup3\n        /* \"#utility.yul\":27206:27299   */\n      tag_719\n      jump\t// in\n    tag_1062:\n        /* \"#utility.yul\":27324:27326   */\n      0x20\n        /* \"#utility.yul\":27319:27322   */\n      dup3\n        /* \"#utility.yul\":27315:27327   */\n      add\n        /* \"#utility.yul\":27308:27327   */\n      swap1\n      pop\n        /* \"#utility.yul\":26967:27333   */\n      swap2\n      swap1\n      pop\n      jump\t// out\n        /* \"#utility.yul\":27339:27758   */\n    tag_145:\n        /* \"#utility.yul\":27505:27509   */\n      0x00\n        /* \"#utility.yul\":27543:27545   */\n      0x20\n        /* \"#utility.yul\":27532:27541   */\n      dup3\n        /* \"#utility.yul\":27528:27546   */\n      add\n        /* \"#utility.yul\":27520:27546   */\n      swap1\n      pop\n        /* \"#utility.yul\":27592:27601   */\n      dup2\n        /* \"#utility.yul\":27586:27590   */\n      dup2\n        /* \"#utility.yul\":27582:27602   */\n      sub\n        /* \"#utility.yul\":27578:27579   */\n      0x00\n        /* \"#utility.yul\":27567:27576   */\n      dup4\n        /* \"#utility.yul\":27563:27580   */\n      add\n        /* \"#utility.yul\":27556:27603   */\n      mstore\n        /* \"#utility.yul\":27620:27751   */\n      tag_1064\n        /* \"#utility.yul\":27746:27750   */\n      dup2\n        /* \"#utility.yul\":27620:27751   */\n      tag_720\n      jump\t// in\n    tag_1064:\n        /* \"#utility.yul\":27612:27751   */\n      swap1\n      pop\n        /* \"#utility.yul\":27339:27758   */\n      swap2\n      swap1\n      pop\n      jump\t// out\n        /* \"#utility.yul\":27764:27944   */\n    tag_721:\n        /* \"#utility.yul\":27812:27889   */\n      0x4e487b7100000000000000000000000000000000000000000000000000000000\n        /* \"#utility.yul\":27809:27810   */\n      0x00\n        /* \"#utility.yul\":27802:27890   */\n      mstore\n        /* \"#utility.yul\":27909:27913   */\n      0x22\n        /* \"#utility.yul\":27906:27907   */\n      0x04\n        /* \"#utility.yul\":27899:27914   */\n      mstore\n        /* \"#utility.yul\":27933:27937   */\n      0x24\n        /* \"#utility.yul\":27930:27931   */\n      0x00\n        /* \"#utility.yul\":27923:27938   */\n      revert\n        /* \"#utility.yul\":27950:28270   */\n    tag_161:\n        /* \"#utility.yul\":27994:28000   */\n      0x00\n        /* \"#utility.yul\":28031:28032   */\n      0x02\n        /* \"#utility.yul\":28025:28029   */\n      dup3\n        /* \"#utility.yul\":28021:28033   */\n      div\n        /* \"#utility.yul\":28011:28033   */\n      swap1\n      pop\n        /* \"#utility.yul\":28078:28079   */\n      0x01\n        /* \"#utility.yul\":28072:28076   */\n      dup3\n        /* \"#utility.yul\":28068:28080   */\n      and\n        /* \"#utility.yul\":28099:28117   */\n      dup1\n        /* \"#utility.yul\":28089:28170   */\n      tag_1067\n      jumpi\n        /* \"#utility.yul\":28155:28159   */\n      0x7f\n        /* \"#utility.yul\":28147:28153   */\n      dup3\n        /* \"#utility.yul\":28143:28160   */\n      and\n        /* \"#utility.yul\":28133:28160   */\n      swap2\n      pop\n        /* \"#utility.yul\":28089:28170   */\n    tag_1067:\n        /* \"#utility.yul\":28217:28219   */\n      0x20\n        /* \"#utility.yul\":28209:28215   */\n      dup3\n        /* \"#utility.yul\":28206:28220   */\n      lt\n        /* \"#utility.yul\":28186:28204   */\n      dup2\n        /* \"#utility.yul\":28183:28221   */\n      eq\n        /* \"#utility.yul\":28180:28264   */\n      iszero\n      tag_1068\n      jumpi\n        /* \"#utility.yul\":28236:28254   */\n      tag_1069\n      tag_721\n      jump\t// in\n    tag_1069:\n        /* \"#utility.yul\":28180:28264   */\n    tag_1068:\n        /* \"#utility.yul\":28001:28270   */\n      pop\n        /* \"#utility.yul\":27950:28270   */\n      swap2\n      swap1\n      pop\n      jump\t// out\n        /* \"#utility.yul\":28276:28419   */\n    tag_722:\n        /* \"#utility.yul\":28333:28338   */\n      0x00\n        /* \"#utility.yul\":28364:28370   */\n      dup2\n        /* \"#utility.yul\":28358:28371   */\n      mload\n        /* \"#utility.yul\":28349:28371   */\n      swap1\n      pop\n        /* \"#utility.yul\":28380:28413   */\n      tag_1071\n        /* \"#utility.yul\":28407:28412   */\n      dup2\n        /* \"#utility.yul\":28380:28413   */\n      tag_669\n      jump\t// in\n    tag_1071:\n        /* \"#utility.yul\":28276:28419   */\n      swap3\n      swap2\n      pop\n      pop\n      jump\t// out\n        /* \"#utility.yul\":28425:28776   */\n    tag_172:\n        /* \"#utility.yul\":28495:28501   */\n      0x00\n        /* \"#utility.yul\":28544:28546   */\n      0x20\n        /* \"#utility.yul\":28532:28541   */\n      dup3\n        /* \"#utility.yul\":28523:28530   */\n      dup5\n        /* \"#utility.yul\":28519:28542   */\n      sub\n        /* \"#utility.yul\":28515:28547   */\n      slt\n        /* \"#utility.yul\":28512:28631   */\n      iszero\n      tag_1073\n      jumpi\n        /* \"#utility.yul\":28550:28629   */\n      tag_1074\n      tag_653\n      jump\t// in\n    tag_1074:\n        /* \"#utility.yul\":28512:28631   */\n    tag_1073:\n        /* \"#utility.yul\":28670:28671   */\n      0x00\n        /* \"#utility.yul\":28695:28759   */\n      tag_1075\n        /* \"#utility.yul\":28751:28758   */\n      dup5\n        /* \"#utility.yul\":28742:28748   */\n      dup3\n        /* \"#utility.yul\":28731:28740   */\n      dup6\n        /* \"#utility.yul\":28727:28749   */\n      add\n        /* \"#utility.yul\":28695:28759   */\n      tag_722\n      jump\t// in\n    tag_1075:\n        /* \"#utility.yul\":28685:28759   */\n      swap2\n      pop\n        /* \"#utility.yul\":28641:28769   */\n      pop\n        /* \"#utility.yul\":28425:28776   */\n      swap3\n      swap2\n      pop\n      pop\n      jump\t// out\n        /* \"#utility.yul\":28782:28959   */\n    tag_723:\n        /* \"#utility.yul\":28922:28951   */\n      0x5661756c74203a3a204e465420646f6573206e6f742065786973740000000000\n        /* \"#utility.yul\":28918:28919   */\n      0x00\n        /* \"#utility.yul\":28910:28916   */\n      dup3\n        /* \"#utility.yul\":28906:28920   */\n      add\n        /* \"#utility.yul\":28899:28952   */\n      mstore\n        /* \"#utility.yul\":28782:28959   */\n      pop\n      jump\t// out\n        /* \"#utility.yul\":28965:29331   */\n    tag_724:\n        /* \"#utility.yul\":29107:29110   */\n      0x00\n        /* \"#utility.yul\":29128:29195   */\n      tag_1078\n        /* \"#utility.yul\":29192:29194   */\n      0x1b\n        /* \"#utility.yul\":29187:29190   */\n      dup4\n        /* \"#utility.yul\":29128:29195   */\n      tag_689\n      jump\t// in\n    tag_1078:\n        /* \"#utility.yul\":29121:29195   */\n      swap2\n      pop\n        /* \"#utility.yul\":29204:29297   */\n      tag_1079\n        /* \"#utility.yul\":29293:29296   */\n      dup3\n        /* \"#utility.yul\":29204:29297   */\n      tag_723\n      jump\t// in\n    tag_1079:\n        /* \"#utility.yul\":29322:29324   */\n      0x20\n        /* \"#utility.yul\":29317:29320   */\n      dup3\n        /* \"#utility.yul\":29313:29325   */\n      add\n        /* \"#utility.yul\":29306:29325   */\n      swap1\n      pop\n        /* \"#utility.yul\":28965:29331   */\n      swap2\n      swap1\n      pop\n      jump\t// out\n        /* \"#utility.yul\":29337:29756   */\n    tag_176:\n        /* \"#utility.yul\":29503:29507   */\n      0x00\n        /* \"#utility.yul\":29541:29543   */\n      0x20\n        /* \"#utility.yul\":29530:29539   */\n      dup3\n        /* \"#utility.yul\":29526:29544   */\n      add\n        /* \"#utility.yul\":29518:29544   */\n      swap1\n      pop\n        /* \"#utility.yul\":29590:29599   */\n      dup2\n        /* \"#utility.yul\":29584:29588   */\n      dup2\n        /* \"#utility.yul\":29580:29600   */\n      sub\n        /* \"#utility.yul\":29576:29577   */\n      0x00\n        /* \"#utility.yul\":29565:29574   */\n      dup4\n        /* \"#utility.yul\":29561:29578   */\n      add\n        /* \"#utility.yul\":29554:29601   */\n      mstore\n        /* \"#utility.yul\":29618:29749   */\n      tag_1081\n        /* \"#utility.yul\":29744:29748   */\n      dup2\n        /* \"#utility.yul\":29618:29749   */\n      tag_724\n      jump\t// in\n    tag_1081:\n        /* \"#utility.yul\":29610:29749   */\n      swap1\n      pop\n        /* \"#utility.yul\":29337:29756   */\n      swap2\n      swap1\n      pop\n      jump\t// out\n        /* \"#utility.yul\":29762:29942   */\n    tag_179:\n        /* \"#utility.yul\":29810:29887   */\n      0x4e487b7100000000000000000000000000000000000000000000000000000000\n        /* \"#utility.yul\":29807:29808   */\n      0x00\n        /* \"#utility.yul\":29800:29888   */\n      mstore\n        /* \"#utility.yul\":29907:29911   */\n      0x32\n        /* \"#utility.yul\":29904:29905   */\n      0x04\n        /* \"#utility.yul\":29897:29912   */\n      mstore\n        /* \"#utility.yul\":29931:29935   */\n      0x24\n        /* \"#utility.yul\":29928:29929   */\n      0x00\n        /* \"#utility.yul\":29921:29936   */\n      revert\n        /* \"#utility.yul\":29948:30177   */\n    tag_725:\n        /* \"#utility.yul\":30088:30122   */\n      0x73656e64455448203a3a2043616e6e6f74207472616e7366657220746f207a65\n        /* \"#utility.yul\":30084:30085   */\n      0x00\n        /* \"#utility.yul\":30076:30082   */\n      dup3\n        /* \"#utility.yul\":30072:30086   */\n      add\n        /* \"#utility.yul\":30065:30123   */\n      mstore\n        /* \"#utility.yul\":30157:30169   */\n      0x726f206164647265737300000000000000000000000000000000000000000000\n        /* \"#utility.yul\":30152:30154   */\n      0x20\n        /* \"#utility.yul\":30144:30150   */\n      dup3\n        /* \"#utility.yul\":30140:30155   */\n      add\n        /* \"#utility.yul\":30133:30170   */\n      mstore\n        /* \"#utility.yul\":29948:30177   */\n      pop\n      jump\t// out\n        /* \"#utility.yul\":30183:30549   */\n    tag_726:\n        /* \"#utility.yul\":30325:30328   */\n      0x00\n        /* \"#utility.yul\":30346:30413   */\n      tag_1085\n        /* \"#utility.yul\":30410:30412   */\n      0x2a\n        /* \"#utility.yul\":30405:30408   */\n      dup4\n        /* \"#utility.yul\":30346:30413   */\n      tag_689\n      jump\t// in\n    tag_1085:\n        /* \"#utility.yul\":30339:30413   */\n      swap2\n      pop\n        /* \"#utility.yul\":30422:30515   */\n      tag_1086\n        /* \"#utility.yul\":30511:30514   */\n      dup3\n        /* \"#utility.yul\":30422:30515   */\n      tag_725\n      jump\t// in\n    tag_1086:\n        /* \"#utility.yul\":30540:30542   */\n      0x40\n        /* \"#utility.yul\":30535:30538   */\n      dup3\n        /* \"#utility.yul\":30531:30543   */\n      add\n        /* \"#utility.yul\":30524:30543   */\n      swap1\n      pop\n        /* \"#utility.yul\":30183:30549   */\n      swap2\n      swap1\n      pop\n      jump\t// out\n        /* \"#utility.yul\":30555:30974   */\n    tag_208:\n        /* \"#utility.yul\":30721:30725   */\n      0x00\n        /* \"#utility.yul\":30759:30761   */\n      0x20\n        /* \"#utility.yul\":30748:30757   */\n      dup3\n        /* \"#utility.yul\":30744:30762   */\n      add\n        /* \"#utility.yul\":30736:30762   */\n      swap1\n      pop\n        /* \"#utility.yul\":30808:30817   */\n      dup2\n        /* \"#utility.yul\":30802:30806   */\n      dup2\n        /* \"#utility.yul\":30798:30818   */\n      sub\n        /* \"#utility.yul\":30794:30795   */\n      0x00\n        /* \"#utility.yul\":30783:30792   */\n      dup4\n        /* \"#utility.yul\":30779:30796   */\n      add\n        /* \"#utility.yul\":30772:30819   */\n      mstore\n        /* \"#utility.yul\":30836:30967   */\n      tag_1088\n        /* \"#utility.yul\":30962:30966   */\n      dup2\n        /* \"#utility.yul\":30836:30967   */\n      tag_726\n      jump\t// in\n    tag_1088:\n        /* \"#utility.yul\":30828:30967   */\n      swap1\n      pop\n        /* \"#utility.yul\":30555:30974   */\n      swap2\n      swap1\n      pop\n      jump\t// out\n        /* \"#utility.yul\":30980:31200   */\n    tag_727:\n        /* \"#utility.yul\":31120:31154   */\n      0x696e697469616c697a65203a3a20416c726561647920696e697469616c697a65\n        /* \"#utility.yul\":31116:31117   */\n      0x00\n        /* \"#utility.yul\":31108:31114   */\n      dup3\n        /* \"#utility.yul\":31104:31118   */\n      add\n        /* \"#utility.yul\":31097:31155   */\n      mstore\n        /* \"#utility.yul\":31189:31192   */\n      0x6400000000000000000000000000000000000000000000000000000000000000\n        /* \"#utility.yul\":31184:31186   */\n      0x20\n        /* \"#utility.yul\":31176:31182   */\n      dup3\n        /* \"#utility.yul\":31172:31187   */\n      add\n        /* \"#utility.yul\":31165:31193   */\n      mstore\n        /* \"#utility.yul\":30980:31200   */\n      pop\n      jump\t// out\n        /* \"#utility.yul\":31206:31572   */\n    tag_728:\n        /* \"#utility.yul\":31348:31351   */\n      0x00\n        /* \"#utility.yul\":31369:31436   */\n      tag_1091\n        /* \"#utility.yul\":31433:31435   */\n      0x21\n        /* \"#utility.yul\":31428:31431   */\n      dup4\n        /* \"#utility.yul\":31369:31436   */\n      tag_689\n      jump\t// in\n    tag_1091:\n        /* \"#utility.yul\":31362:31436   */\n      swap2\n      pop\n        /* \"#utility.yul\":31445:31538   */\n      tag_1092\n        /* \"#utility.yul\":31534:31537   */\n      dup3\n        /* \"#utility.yul\":31445:31538   */\n      tag_727\n      jump\t// in\n    tag_1092:\n        /* \"#utility.yul\":31563:31565   */\n      0x40\n        /* \"#utility.yul\":31558:31561   */\n      dup3\n        /* \"#utility.yul\":31554:31566   */\n      add\n        /* \"#utility.yul\":31547:31566   */\n      swap1\n      pop\n        /* \"#utility.yul\":31206:31572   */\n      swap2\n      swap1\n      pop\n      jump\t// out\n        /* \"#utility.yul\":31578:31997   */\n    tag_214:\n        /* \"#utility.yul\":31744:31748   */\n      0x00\n        /* \"#utility.yul\":31782:31784   */\n      0x20\n        /* \"#utility.yul\":31771:31780   */\n      dup3\n        /* \"#utility.yul\":31767:31785   */\n      add\n        /* \"#utility.yul\":31759:31785   */\n      swap1\n      pop\n        /* \"#utility.yul\":31831:31840   */\n      dup2\n        /* \"#utility.yul\":31825:31829   */\n      dup2\n        /* \"#utility.yul\":31821:31841   */\n      sub\n        /* \"#utility.yul\":31817:31818   */\n      0x00\n        /* \"#utility.yul\":31806:31815   */\n      dup4\n        /* \"#utility.yul\":31802:31819   */\n      add\n        /* \"#utility.yul\":31795:31842   */\n      mstore\n        /* \"#utility.yul\":31859:31990   */\n      tag_1094\n        /* \"#utility.yul\":31985:31989   */\n      dup2\n        /* \"#utility.yul\":31859:31990   */\n      tag_728\n      jump\t// in\n    tag_1094:\n        /* \"#utility.yul\":31851:31990   */\n      swap1\n      pop\n        /* \"#utility.yul\":31578:31997   */\n      swap2\n      swap1\n      pop\n      jump\t// out\n        /* \"#utility.yul\":32003:32234   */\n    tag_729:\n        /* \"#utility.yul\":32143:32177   */\n      0x73656e644552433230203a3a2043616e6e6f74207472616e7366657220746f20\n        /* \"#utility.yul\":32139:32140   */\n      0x00\n        /* \"#utility.yul\":32131:32137   */\n      dup3\n        /* \"#utility.yul\":32127:32141   */\n      add\n        /* \"#utility.yul\":32120:32178   */\n      mstore\n        /* \"#utility.yul\":32212:32226   */\n      0x7a65726f20616464726573730000000000000000000000000000000000000000\n        /* \"#utility.yul\":32207:32209   */\n      0x20\n        /* \"#utility.yul\":32199:32205   */\n      dup3\n        /* \"#utility.yul\":32195:32210   */\n      add\n        /* \"#utility.yul\":32188:32227   */\n      mstore\n        /* \"#utility.yul\":32003:32234   */\n      pop\n      jump\t// out\n        /* \"#utility.yul\":32240:32606   */\n    tag_730:\n        /* \"#utility.yul\":32382:32385   */\n      0x00\n        /* \"#utility.yul\":32403:32470   */\n      tag_1097\n        /* \"#utility.yul\":32467:32469   */\n      0x2c\n        /* \"#utility.yul\":32462:32465   */\n      dup4\n        /* \"#utility.yul\":32403:32470   */\n      tag_689\n      jump\t// in\n    tag_1097:\n        /* \"#utility.yul\":32396:32470   */\n      swap2\n      pop\n        /* \"#utility.yul\":32479:32572   */\n      tag_1098\n        /* \"#utility.yul\":32568:32571   */\n      dup3\n        /* \"#utility.yul\":32479:32572   */\n      tag_729\n      jump\t// in\n    tag_1098:\n        /* \"#utility.yul\":32597:32599   */\n      0x40\n        /* \"#utility.yul\":32592:32595   */\n      dup3\n        /* \"#utility.yul\":32588:32600   */\n      add\n        /* \"#utility.yul\":32581:32600   */\n      swap1\n      pop\n        /* \"#utility.yul\":32240:32606   */\n      swap2\n      swap1\n      pop\n      jump\t// out\n        /* \"#utility.yul\":32612:33031   */\n    tag_237:\n        /* \"#utility.yul\":32778:32782   */\n      0x00\n        /* \"#utility.yul\":32816:32818   */\n      0x20\n        /* \"#utility.yul\":32805:32814   */\n      dup3\n        /* \"#utility.yul\":32801:32819   */\n      add\n        /* \"#utility.yul\":32793:32819   */\n      swap1\n      pop\n        /* \"#utility.yul\":32865:32874   */\n      dup2\n        /* \"#utility.yul\":32859:32863   */\n      dup2\n        /* \"#utility.yul\":32855:32875   */\n      sub\n        /* \"#utility.yul\":32851:32852   */\n      0x00\n        /* \"#utility.yul\":32840:32849   */\n      dup4\n        /* \"#utility.yul\":32836:32853   */\n      add\n        /* \"#utility.yul\":32829:32876   */\n      mstore\n        /* \"#utility.yul\":32893:33024   */\n      tag_1100\n        /* \"#utility.yul\":33019:33023   */\n      dup2\n        /* \"#utility.yul\":32893:33024   */\n      tag_730\n      jump\t// in\n    tag_1100:\n        /* \"#utility.yul\":32885:33024   */\n      swap1\n      pop\n        /* \"#utility.yul\":32612:33031   */\n      swap2\n      swap1\n      pop\n      jump\t// out\n        /* \"#utility.yul\":33037:33369   */\n    tag_239:\n        /* \"#utility.yul\":33158:33162   */\n      0x00\n        /* \"#utility.yul\":33196:33198   */\n      0x40\n        /* \"#utility.yul\":33185:33194   */\n      dup3\n        /* \"#utility.yul\":33181:33199   */\n      add\n        /* \"#utility.yul\":33173:33199   */\n      swap1\n      pop\n        /* \"#utility.yul\":33209:33280   */\n      tag_1102\n        /* \"#utility.yul\":33277:33278   */\n      0x00\n        /* \"#utility.yul\":33266:33275   */\n      dup4\n        /* \"#utility.yul\":33262:33279   */\n      add\n        /* \"#utility.yul\":33253:33259   */\n      dup6\n        /* \"#utility.yul\":33209:33280   */\n      tag_678\n      jump\t// in\n    tag_1102:\n        /* \"#utility.yul\":33290:33362   */\n      tag_1103\n        /* \"#utility.yul\":33358:33360   */\n      0x20\n        /* \"#utility.yul\":33347:33356   */\n      dup4\n        /* \"#utility.yul\":33343:33361   */\n      add\n        /* \"#utility.yul\":33334:33340   */\n      dup5\n        /* \"#utility.yul\":33290:33362   */\n      tag_679\n      jump\t// in\n    tag_1103:\n        /* \"#utility.yul\":33037:33369   */\n      swap4\n      swap3\n      pop\n      pop\n      pop\n      jump\t// out\n        /* \"#utility.yul\":33375:33605   */\n    tag_731:\n        /* \"#utility.yul\":33515:33549   */\n      0x73656e6457455448203a3a2043616e6e6f74207472616e7366657220746f207a\n        /* \"#utility.yul\":33511:33512   */\n      0x00\n        /* \"#utility.yul\":33503:33509   */\n      dup3\n        /* \"#utility.yul\":33499:33513   */\n      add\n        /* \"#utility.yul\":33492:33550   */\n      mstore\n        /* \"#utility.yul\":33584:33597   */\n      0x65726f2061646472657373000000000000000000000000000000000000000000\n        /* \"#utility.yul\":33579:33581   */\n      0x20\n        /* \"#utility.yul\":33571:33577   */\n      dup3\n        /* \"#utility.yul\":33567:33582   */\n      add\n        /* \"#utility.yul\":33560:33598   */\n      mstore\n        /* \"#utility.yul\":33375:33605   */\n      pop\n      jump\t// out\n        /* \"#utility.yul\":33611:33977   */\n    tag_732:\n        /* \"#utility.yul\":33753:33756   */\n      0x00\n        /* \"#utility.yul\":33774:33841   */\n      tag_1106\n        /* \"#utility.yul\":33838:33840   */\n      0x2b\n        /* \"#utility.yul\":33833:33836   */\n      dup4\n        /* \"#utility.yul\":33774:33841   */\n      tag_689\n      jump\t// in\n    tag_1106:\n        /* \"#utility.yul\":33767:33841   */\n      swap2\n      pop\n        /* \"#utility.yul\":33850:33943   */\n      tag_1107\n        /* \"#utility.yul\":33939:33942   */\n      dup3\n        /* \"#utility.yul\":33850:33943   */\n      tag_731\n      jump\t// in\n    tag_1107:\n        /* \"#utility.yul\":33968:33970   */\n      0x40\n        /* \"#utility.yul\":33963:33966   */\n      dup3\n        /* \"#utility.yul\":33959:33971   */\n      add\n        /* \"#utility.yul\":33952:33971   */\n      swap1\n      pop\n        /* \"#utility.yul\":33611:33977   */\n      swap2\n      swap1\n      pop\n      jump\t// out\n        /* \"#utility.yul\":33983:34402   */\n    tag_253:\n        /* \"#utility.yul\":34149:34153   */\n      0x00\n        /* \"#utility.yul\":34187:34189   */\n      0x20\n        /* \"#utility.yul\":34176:34185   */\n      dup3\n        /* \"#utility.yul\":34172:34190   */\n      add\n        /* \"#utility.yul\":34164:34190   */\n      swap1\n      pop\n        /* \"#utility.yul\":34236:34245   */\n      dup2\n        /* \"#utility.yul\":34230:34234   */\n      dup2\n        /* \"#utility.yul\":34226:34246   */\n      sub\n        /* \"#utility.yul\":34222:34223   */\n      0x00\n        /* \"#utility.yul\":34211:34220   */\n      dup4\n        /* \"#utility.yul\":34207:34224   */\n      add\n        /* \"#utility.yul\":34200:34247   */\n      mstore\n        /* \"#utility.yul\":34264:34395   */\n      tag_1109\n        /* \"#utility.yul\":34390:34394   */\n      dup2\n        /* \"#utility.yul\":34264:34395   */\n      tag_732\n      jump\t// in\n    tag_1109:\n        /* \"#utility.yul\":34256:34395   */\n      swap1\n      pop\n        /* \"#utility.yul\":33983:34402   */\n      swap2\n      swap1\n      pop\n      jump\t// out\n        /* \"#utility.yul\":34408:34551   */\n    tag_733:\n        /* \"#utility.yul\":34465:34470   */\n      0x00\n        /* \"#utility.yul\":34496:34502   */\n      dup2\n        /* \"#utility.yul\":34490:34503   */\n      mload\n        /* \"#utility.yul\":34481:34503   */\n      swap1\n      pop\n        /* \"#utility.yul\":34512:34545   */\n      tag_1111\n        /* \"#utility.yul\":34539:34544   */\n      dup2\n        /* \"#utility.yul\":34512:34545   */\n      tag_663\n      jump\t// in\n    tag_1111:\n        /* \"#utility.yul\":34408:34551   */\n      swap3\n      swap2\n      pop\n      pop\n      jump\t// out\n        /* \"#utility.yul\":34557:34908   */\n    tag_261:\n        /* \"#utility.yul\":34627:34633   */\n      0x00\n        /* \"#utility.yul\":34676:34678   */\n      0x20\n        /* \"#utility.yul\":34664:34673   */\n      dup3\n        /* \"#utility.yul\":34655:34662   */\n      dup5\n        /* \"#utility.yul\":34651:34674   */\n      sub\n        /* \"#utility.yul\":34647:34679   */\n      slt\n        /* \"#utility.yul\":34644:34763   */\n      iszero\n      tag_1113\n      jumpi\n        /* \"#utility.yul\":34682:34761   */\n      tag_1114\n      tag_653\n      jump\t// in\n    tag_1114:\n        /* \"#utility.yul\":34644:34763   */\n    tag_1113:\n        /* \"#utility.yul\":34802:34803   */\n      0x00\n        /* \"#utility.yul\":34827:34891   */\n      tag_1115\n        /* \"#utility.yul\":34883:34890   */\n      dup5\n        /* \"#utility.yul\":34874:34880   */\n      dup3\n        /* \"#utility.yul\":34863:34872   */\n      dup6\n        /* \"#utility.yul\":34859:34881   */\n      add\n        /* \"#utility.yul\":34827:34891   */\n      tag_733\n      jump\t// in\n    tag_1115:\n        /* \"#utility.yul\":34817:34891   */\n      swap2\n      pop\n        /* \"#utility.yul\":34773:34901   */\n      pop\n        /* \"#utility.yul\":34557:34908   */\n      swap3\n      swap2\n      pop\n      pop\n      jump\t// out\n        /* \"#utility.yul\":34914:35094   */\n    tag_734:\n        /* \"#utility.yul\":34962:35039   */\n      0x4e487b7100000000000000000000000000000000000000000000000000000000\n        /* \"#utility.yul\":34959:34960   */\n      0x00\n        /* \"#utility.yul\":34952:35040   */\n      mstore\n        /* \"#utility.yul\":35059:35063   */\n      0x11\n        /* \"#utility.yul\":35056:35057   */\n      0x04\n        /* \"#utility.yul\":35049:35064   */\n      mstore\n        /* \"#utility.yul\":35083:35087   */\n      0x24\n        /* \"#utility.yul\":35080:35081   */\n      0x00\n        /* \"#utility.yul\":35073:35088   */\n      revert\n        /* \"#utility.yul\":35100:35189   */\n    tag_735:\n        /* \"#utility.yul\":35136:35143   */\n      0x00\n        /* \"#utility.yul\":35176:35182   */\n      0xffff\n        /* \"#utility.yul\":35169:35174   */\n      dup3\n        /* \"#utility.yul\":35165:35183   */\n      and\n        /* \"#utility.yul\":35154:35183   */\n      swap1\n      pop\n        /* \"#utility.yul\":35100:35189   */\n      swap2\n      swap1\n      pop\n      jump\t// out\n        /* \"#utility.yul\":35195:35366   */\n    tag_310:\n        /* \"#utility.yul\":35233:35236   */\n      0x00\n        /* \"#utility.yul\":35256:35279   */\n      tag_1119\n        /* \"#utility.yul\":35273:35278   */\n      dup3\n        /* \"#utility.yul\":35256:35279   */\n      tag_735\n      jump\t// in\n    tag_1119:\n        /* \"#utility.yul\":35247:35279   */\n      swap2\n      pop\n        /* \"#utility.yul\":35301:35307   */\n      0xffff\n        /* \"#utility.yul\":35294:35299   */\n      dup3\n        /* \"#utility.yul\":35291:35308   */\n      eq\n        /* \"#utility.yul\":35288:35331   */\n      iszero\n      tag_1120\n      jumpi\n        /* \"#utility.yul\":35311:35329   */\n      tag_1121\n      tag_734\n      jump\t// in\n    tag_1121:\n        /* \"#utility.yul\":35288:35331   */\n    tag_1120:\n        /* \"#utility.yul\":35358:35359   */\n      0x01\n        /* \"#utility.yul\":35351:35356   */\n      dup3\n        /* \"#utility.yul\":35347:35360   */\n      add\n        /* \"#utility.yul\":35340:35360   */\n      swap1\n      pop\n        /* \"#utility.yul\":35195:35366   */\n      swap2\n      swap1\n      pop\n      jump\t// out\n        /* \"#utility.yul\":35372:35600   */\n    tag_736:\n        /* \"#utility.yul\":35512:35546   */\n      0x72656465656d203a3a20546865206e756d626572206f6620667261676d656e74\n        /* \"#utility.yul\":35508:35509   */\n      0x00\n        /* \"#utility.yul\":35500:35506   */\n      dup3\n        /* \"#utility.yul\":35496:35510   */\n      add\n        /* \"#utility.yul\":35489:35547   */\n      mstore\n        /* \"#utility.yul\":35581:35592   */\n      0x73206973207a65726f0000000000000000000000000000000000000000000000\n        /* \"#utility.yul\":35576:35578   */\n      0x20\n        /* \"#utility.yul\":35568:35574   */\n      dup3\n        /* \"#utility.yul\":35564:35579   */\n      add\n        /* \"#utility.yul\":35557:35593   */\n      mstore\n        /* \"#utility.yul\":35372:35600   */\n      pop\n      jump\t// out\n        /* \"#utility.yul\":35606:35972   */\n    tag_737:\n        /* \"#utility.yul\":35748:35751   */\n      0x00\n        /* \"#utility.yul\":35769:35836   */\n      tag_1124\n        /* \"#utility.yul\":35833:35835   */\n      0x29\n        /* \"#utility.yul\":35828:35831   */\n      dup4\n        /* \"#utility.yul\":35769:35836   */\n      tag_689\n      jump\t// in\n    tag_1124:\n        /* \"#utility.yul\":35762:35836   */\n      swap2\n      pop\n        /* \"#utility.yul\":35845:35938   */\n      tag_1125\n        /* \"#utility.yul\":35934:35937   */\n      dup3\n        /* \"#utility.yul\":35845:35938   */\n      tag_736\n      jump\t// in\n    tag_1125:\n        /* \"#utility.yul\":35963:35965   */\n      0x40\n        /* \"#utility.yul\":35958:35961   */\n      dup3\n        /* \"#utility.yul\":35954:35966   */\n      add\n        /* \"#utility.yul\":35947:35966   */\n      swap1\n      pop\n        /* \"#utility.yul\":35606:35972   */\n      swap2\n      swap1\n      pop\n      jump\t// out\n        /* \"#utility.yul\":35978:36397   */\n    tag_318:\n        /* \"#utility.yul\":36144:36148   */\n      0x00\n        /* \"#utility.yul\":36182:36184   */\n      0x20\n        /* \"#utility.yul\":36171:36180   */\n      dup3\n        /* \"#utility.yul\":36167:36185   */\n      add\n        /* \"#utility.yul\":36159:36185   */\n      swap1\n      pop\n        /* \"#utility.yul\":36231:36240   */\n      dup2\n        /* \"#utility.yul\":36225:36229   */\n      dup2\n        /* \"#utility.yul\":36221:36241   */\n      sub\n        /* \"#utility.yul\":36217:36218   */\n      0x00\n        /* \"#utility.yul\":36206:36215   */\n      dup4\n        /* \"#utility.yul\":36202:36219   */\n      add\n        /* \"#utility.yul\":36195:36242   */\n      mstore\n        /* \"#utility.yul\":36259:36390   */\n      tag_1127\n        /* \"#utility.yul\":36385:36389   */\n      dup2\n        /* \"#utility.yul\":36259:36390   */\n      tag_737\n      jump\t// in\n    tag_1127:\n        /* \"#utility.yul\":36251:36390   */\n      swap1\n      pop\n        /* \"#utility.yul\":35978:36397   */\n      swap2\n      swap1\n      pop\n      jump\t// out\n        /* \"#utility.yul\":36403:36581   */\n    tag_738:\n        /* \"#utility.yul\":36543:36573   */\n      0x72656465656d203a3a204e465420646f6573206e6f7420657869737400000000\n        /* \"#utility.yul\":36539:36540   */\n      0x00\n        /* \"#utility.yul\":36531:36537   */\n      dup3\n        /* \"#utility.yul\":36527:36541   */\n      add\n        /* \"#utility.yul\":36520:36574   */\n      mstore\n        /* \"#utility.yul\":36403:36581   */\n      pop\n      jump\t// out\n        /* \"#utility.yul\":36587:36953   */\n    tag_739:\n        /* \"#utility.yul\":36729:36732   */\n      0x00\n        /* \"#utility.yul\":36750:36817   */\n      tag_1130\n        /* \"#utility.yul\":36814:36816   */\n      0x1c\n        /* \"#utility.yul\":36809:36812   */\n      dup4\n        /* \"#utility.yul\":36750:36817   */\n      tag_689\n      jump\t// in\n    tag_1130:\n        /* \"#utility.yul\":36743:36817   */\n      swap2\n      pop\n        /* \"#utility.yul\":36826:36919   */\n      tag_1131\n        /* \"#utility.yul\":36915:36918   */\n      dup3\n        /* \"#utility.yul\":36826:36919   */\n      tag_738\n      jump\t// in\n    tag_1131:\n        /* \"#utility.yul\":36944:36946   */\n      0x20\n        /* \"#utility.yul\":36939:36942   */\n      dup3\n        /* \"#utility.yul\":36935:36947   */\n      add\n        /* \"#utility.yul\":36928:36947   */\n      swap1\n      pop\n        /* \"#utility.yul\":36587:36953   */\n      swap2\n      swap1\n      pop\n      jump\t// out\n        /* \"#utility.yul\":36959:37378   */\n    tag_326:\n        /* \"#utility.yul\":37125:37129   */\n      0x00\n        /* \"#utility.yul\":37163:37165   */\n      0x20\n        /* \"#utility.yul\":37152:37161   */\n      dup3\n        /* \"#utility.yul\":37148:37166   */\n      add\n        /* \"#utility.yul\":37140:37166   */\n      swap1\n      pop\n        /* \"#utility.yul\":37212:37221   */\n      dup2\n        /* \"#utility.yul\":37206:37210   */\n      dup2\n        /* \"#utility.yul\":37202:37222   */\n      sub\n        /* \"#utility.yul\":37198:37199   */\n      0x00\n        /* \"#utility.yul\":37187:37196   */\n      dup4\n        /* \"#utility.yul\":37183:37200   */\n      add\n        /* \"#utility.yul\":37176:37223   */\n      mstore\n        /* \"#utility.yul\":37240:37371   */\n      tag_1133\n        /* \"#utility.yul\":37366:37370   */\n      dup2\n        /* \"#utility.yul\":37240:37371   */\n      tag_739\n      jump\t// in\n    tag_1133:\n        /* \"#utility.yul\":37232:37371   */\n      swap1\n      pop\n        /* \"#utility.yul\":36959:37378   */\n      swap2\n      swap1\n      pop\n      jump\t// out\n        /* \"#utility.yul\":37384:37560   */\n    tag_740:\n        /* \"#utility.yul\":37524:37552   */\n      0x72656465656d203a3a20556e61626c6520746f2072656d656479000000000000\n        /* \"#utility.yul\":37520:37521   */\n      0x00\n        /* \"#utility.yul\":37512:37518   */\n      dup3\n        /* \"#utility.yul\":37508:37522   */\n      add\n        /* \"#utility.yul\":37501:37553   */\n      mstore\n        /* \"#utility.yul\":37384:37560   */\n      pop\n      jump\t// out\n        /* \"#utility.yul\":37566:37932   */\n    tag_741:\n        /* \"#utility.yul\":37708:37711   */\n      0x00\n        /* \"#utility.yul\":37729:37796   */\n      tag_1136\n        /* \"#utility.yul\":37793:37795   */\n      0x1a\n        /* \"#utility.yul\":37788:37791   */\n      dup4\n        /* \"#utility.yul\":37729:37796   */\n      tag_689\n      jump\t// in\n    tag_1136:\n        /* \"#utility.yul\":37722:37796   */\n      swap2\n      pop\n        /* \"#utility.yul\":37805:37898   */\n      tag_1137\n        /* \"#utility.yul\":37894:37897   */\n      dup3\n        /* \"#utility.yul\":37805:37898   */\n      tag_740\n      jump\t// in\n    tag_1137:\n        /* \"#utility.yul\":37923:37925   */\n      0x20\n        /* \"#utility.yul\":37918:37921   */\n      dup3\n        /* \"#utility.yul\":37914:37926   */\n      add\n        /* \"#utility.yul\":37907:37926   */\n      swap1\n      pop\n        /* \"#utility.yul\":37566:37932   */\n      swap2\n      swap1\n      pop\n      jump\t// out\n        /* \"#utility.yul\":37938:38357   */\n    tag_329:\n        /* \"#utility.yul\":38104:38108   */\n      0x00\n        /* \"#utility.yul\":38142:38144   */\n      0x20\n        /* \"#utility.yul\":38131:38140   */\n      dup3\n        /* \"#utility.yul\":38127:38145   */\n      add\n        /* \"#utility.yul\":38119:38145   */\n      swap1\n      pop\n        /* \"#utility.yul\":38191:38200   */\n      dup2\n        /* \"#utility.yul\":38185:38189   */\n      dup2\n        /* \"#utility.yul\":38181:38201   */\n      sub\n        /* \"#utility.yul\":38177:38178   */\n      0x00\n        /* \"#utility.yul\":38166:38175   */\n      dup4\n        /* \"#utility.yul\":38162:38179   */\n      add\n        /* \"#utility.yul\":38155:38202   */\n      mstore\n        /* \"#utility.yul\":38219:38350   */\n      tag_1139\n        /* \"#utility.yul\":38345:38349   */\n      dup2\n        /* \"#utility.yul\":38219:38350   */\n      tag_741\n      jump\t// in\n    tag_1139:\n        /* \"#utility.yul\":38211:38350   */\n      swap1\n      pop\n        /* \"#utility.yul\":37938:38357   */\n      swap2\n      swap1\n      pop\n      jump\t// out\n        /* \"#utility.yul\":38363:38522   */\n    tag_742:\n        /* \"#utility.yul\":38428:38433   */\n      0x00\n        /* \"#utility.yul\":38459:38465   */\n      dup2\n        /* \"#utility.yul\":38453:38466   */\n      mload\n        /* \"#utility.yul\":38444:38466   */\n      swap1\n      pop\n        /* \"#utility.yul\":38475:38516   */\n      tag_1141\n        /* \"#utility.yul\":38510:38515   */\n      dup2\n        /* \"#utility.yul\":38475:38516   */\n      tag_707\n      jump\t// in\n    tag_1141:\n        /* \"#utility.yul\":38363:38522   */\n      swap3\n      swap2\n      pop\n      pop\n      jump\t// out\n        /* \"#utility.yul\":38528:38895   */\n    tag_336:\n        /* \"#utility.yul\":38606:38612   */\n      0x00\n        /* \"#utility.yul\":38655:38657   */\n      0x20\n        /* \"#utility.yul\":38643:38652   */\n      dup3\n        /* \"#utility.yul\":38634:38641   */\n      dup5\n        /* \"#utility.yul\":38630:38653   */\n      sub\n        /* \"#utility.yul\":38626:38658   */\n      slt\n        /* \"#utility.yul\":38623:38742   */\n      iszero\n      tag_1143\n      jumpi\n        /* \"#utility.yul\":38661:38740   */\n      tag_1144\n      tag_653\n      jump\t// in\n    tag_1144:\n        /* \"#utility.yul\":38623:38742   */\n    tag_1143:\n        /* \"#utility.yul\":38781:38782   */\n      0x00\n        /* \"#utility.yul\":38806:38878   */\n      tag_1145\n        /* \"#utility.yul\":38870:38877   */\n      dup5\n        /* \"#utility.yul\":38861:38867   */\n      dup3\n        /* \"#utility.yul\":38850:38859   */\n      dup6\n        /* \"#utility.yul\":38846:38868   */\n      add\n        /* \"#utility.yul\":38806:38878   */\n      tag_742\n      jump\t// in\n    tag_1145:\n        /* \"#utility.yul\":38796:38878   */\n      swap2\n      pop\n        /* \"#utility.yul\":38752:38888   */\n      pop\n        /* \"#utility.yul\":38528:38895   */\n      swap3\n      swap2\n      pop\n      pop\n      jump\t// out\n        /* \"#utility.yul\":38901:39092   */\n    tag_352:\n        /* \"#utility.yul\":38941:38945   */\n      0x00\n        /* \"#utility.yul\":38961:38981   */\n      tag_1147\n        /* \"#utility.yul\":38979:38980   */\n      dup3\n        /* \"#utility.yul\":38961:38981   */\n      tag_662\n      jump\t// in\n    tag_1147:\n        /* \"#utility.yul\":38956:38981   */\n      swap2\n      pop\n        /* \"#utility.yul\":38995:39015   */\n      tag_1148\n        /* \"#utility.yul\":39013:39014   */\n      dup4\n        /* \"#utility.yul\":38995:39015   */\n      tag_662\n      jump\t// in\n    tag_1148:\n        /* \"#utility.yul\":38990:39015   */\n      swap3\n      pop\n        /* \"#utility.yul\":39034:39035   */\n      dup3\n        /* \"#utility.yul\":39031:39032   */\n      dup3\n        /* \"#utility.yul\":39028:39036   */\n      lt\n        /* \"#utility.yul\":39025:39059   */\n      iszero\n      tag_1149\n      jumpi\n        /* \"#utility.yul\":39039:39057   */\n      tag_1150\n      tag_734\n      jump\t// in\n    tag_1150:\n        /* \"#utility.yul\":39025:39059   */\n    tag_1149:\n        /* \"#utility.yul\":39084:39085   */\n      dup3\n        /* \"#utility.yul\":39081:39082   */\n      dup3\n        /* \"#utility.yul\":39077:39086   */\n      sub\n        /* \"#utility.yul\":39069:39086   */\n      swap1\n      pop\n        /* \"#utility.yul\":38901:39092   */\n      swap3\n      swap2\n      pop\n      pop\n      jump\t// out\n        /* \"#utility.yul\":39098:39276   */\n    tag_743:\n        /* \"#utility.yul\":39238:39268   */\n      0x72656465656d203a3a204e6f7420656e6f75676820746f206275726e00000000\n        /* \"#utility.yul\":39234:39235   */\n      0x00\n        /* \"#utility.yul\":39226:39232   */\n      dup3\n        /* \"#utility.yul\":39222:39236   */\n      add\n        /* \"#utility.yul\":39215:39269   */\n      mstore\n        /* \"#utility.yul\":39098:39276   */\n      pop\n      jump\t// out\n        /* \"#utility.yul\":39282:39648   */\n    tag_744:\n        /* \"#utility.yul\":39424:39427   */\n      0x00\n        /* \"#utility.yul\":39445:39512   */\n      tag_1153\n        /* \"#utility.yul\":39509:39511   */\n      0x1c\n        /* \"#utility.yul\":39504:39507   */\n      dup4\n        /* \"#utility.yul\":39445:39512   */\n      tag_689\n      jump\t// in\n    tag_1153:\n        /* \"#utility.yul\":39438:39512   */\n      swap2\n      pop\n        /* \"#utility.yul\":39521:39614   */\n      tag_1154\n        /* \"#utility.yul\":39610:39613   */\n      dup3\n        /* \"#utility.yul\":39521:39614   */\n      tag_743\n      jump\t// in\n    tag_1154:\n        /* \"#utility.yul\":39639:39641   */\n      0x20\n        /* \"#utility.yul\":39634:39637   */\n      dup3\n        /* \"#utility.yul\":39630:39642   */\n      add\n        /* \"#utility.yul\":39623:39642   */\n      swap1\n      pop\n        /* \"#utility.yul\":39282:39648   */\n      swap2\n      swap1\n      pop\n      jump\t// out\n        /* \"#utility.yul\":39654:40073   */\n    tag_355:\n        /* \"#utility.yul\":39820:39824   */\n      0x00\n        /* \"#utility.yul\":39858:39860   */\n      0x20\n        /* \"#utility.yul\":39847:39856   */\n      dup3\n        /* \"#utility.yul\":39843:39861   */\n      add\n        /* \"#utility.yul\":39835:39861   */\n      swap1\n      pop\n        /* \"#utility.yul\":39907:39916   */\n      dup2\n        /* \"#utility.yul\":39901:39905   */\n      dup2\n        /* \"#utility.yul\":39897:39917   */\n      sub\n        /* \"#utility.yul\":39893:39894   */\n      0x00\n        /* \"#utility.yul\":39882:39891   */\n      dup4\n        /* \"#utility.yul\":39878:39895   */\n      add\n        /* \"#utility.yul\":39871:39918   */\n      mstore\n        /* \"#utility.yul\":39935:40066   */\n      tag_1156\n        /* \"#utility.yul\":40061:40065   */\n      dup2\n        /* \"#utility.yul\":39935:40066   */\n      tag_744\n      jump\t// in\n    tag_1156:\n        /* \"#utility.yul\":39927:40066   */\n      swap1\n      pop\n        /* \"#utility.yul\":39654:40073   */\n      swap2\n      swap1\n      pop\n      jump\t// out\n        /* \"#utility.yul\":40079:40255   */\n    tag_745:\n        /* \"#utility.yul\":40219:40247   */\n      0x5661756c743a3a204e465420646f6573206e6f74206578697374000000000000\n        /* \"#utility.yul\":40215:40216   */\n      0x00\n        /* \"#utility.yul\":40207:40213   */\n      dup3\n        /* \"#utility.yul\":40203:40217   */\n      add\n        /* \"#utility.yul\":40196:40248   */\n      mstore\n        /* \"#utility.yul\":40079:40255   */\n      pop\n      jump\t// out\n        /* \"#utility.yul\":40261:40627   */\n    tag_746:\n        /* \"#utility.yul\":40403:40406   */\n      0x00\n        /* \"#utility.yul\":40424:40491   */\n      tag_1159\n        /* \"#utility.yul\":40488:40490   */\n      0x1a\n        /* \"#utility.yul\":40483:40486   */\n      dup4\n        /* \"#utility.yul\":40424:40491   */\n      tag_689\n      jump\t// in\n    tag_1159:\n        /* \"#utility.yul\":40417:40491   */\n      swap2\n      pop\n        /* \"#utility.yul\":40500:40593   */\n      tag_1160\n        /* \"#utility.yul\":40589:40592   */\n      dup3\n        /* \"#utility.yul\":40500:40593   */\n      tag_745\n      jump\t// in\n    tag_1160:\n        /* \"#utility.yul\":40618:40620   */\n      0x20\n        /* \"#utility.yul\":40613:40616   */\n      dup3\n        /* \"#utility.yul\":40609:40621   */\n      add\n        /* \"#utility.yul\":40602:40621   */\n      swap1\n      pop\n        /* \"#utility.yul\":40261:40627   */\n      swap2\n      swap1\n      pop\n      jump\t// out\n        /* \"#utility.yul\":40633:41052   */\n    tag_417:\n        /* \"#utility.yul\":40799:40803   */\n      0x00\n        /* \"#utility.yul\":40837:40839   */\n      0x20\n        /* \"#utility.yul\":40826:40835   */\n      dup3\n        /* \"#utility.yul\":40822:40840   */\n      add\n        /* \"#utility.yul\":40814:40840   */\n      swap1\n      pop\n        /* \"#utility.yul\":40886:40895   */\n      dup2\n        /* \"#utility.yul\":40880:40884   */\n      dup2\n        /* \"#utility.yul\":40876:40896   */\n      sub\n        /* \"#utility.yul\":40872:40873   */\n      0x00\n        /* \"#utility.yul\":40861:40870   */\n      dup4\n        /* \"#utility.yul\":40857:40874   */\n      add\n        /* \"#utility.yul\":40850:40897   */\n      mstore\n        /* \"#utility.yul\":40914:41045   */\n      tag_1162\n        /* \"#utility.yul\":41040:41044   */\n      dup2\n        /* \"#utility.yul\":40914:41045   */\n      tag_746\n      jump\t// in\n    tag_1162:\n        /* \"#utility.yul\":40906:41045   */\n      swap1\n      pop\n        /* \"#utility.yul\":40633:41052   */\n      swap2\n      swap1\n      pop\n      jump\t// out\n        /* \"#utility.yul\":41058:41287   */\n    tag_747:\n        /* \"#utility.yul\":41198:41232   */\n      0x73656e644e4654203a3a2043616e6e6f74207472616e7366657220746f207a65\n        /* \"#utility.yul\":41194:41195   */\n      0x00\n        /* \"#utility.yul\":41186:41192   */\n      dup3\n        /* \"#utility.yul\":41182:41196   */\n      add\n        /* \"#utility.yul\":41175:41233   */\n      mstore\n        /* \"#utility.yul\":41267:41279   */\n      0x726f206164647265737300000000000000000000000000000000000000000000\n        /* \"#utility.yul\":41262:41264   */\n      0x20\n        /* \"#utility.yul\":41254:41260   */\n      dup3\n        /* \"#utility.yul\":41250:41265   */\n      add\n        /* \"#utility.yul\":41243:41280   */\n      mstore\n        /* \"#utility.yul\":41058:41287   */\n      pop\n      jump\t// out\n        /* \"#utility.yul\":41293:41659   */\n    tag_748:\n        /* \"#utility.yul\":41435:41438   */\n      0x00\n        /* \"#utility.yul\":41456:41523   */\n      tag_1165\n        /* \"#utility.yul\":41520:41522   */\n      0x2a\n        /* \"#utility.yul\":41515:41518   */\n      dup4\n        /* \"#utility.yul\":41456:41523   */\n      tag_689\n      jump\t// in\n    tag_1165:\n        /* \"#utility.yul\":41449:41523   */\n      swap2\n      pop\n        /* \"#utility.yul\":41532:41625   */\n      tag_1166\n        /* \"#utility.yul\":41621:41624   */\n      dup3\n        /* \"#utility.yul\":41532:41625   */\n      tag_747\n      jump\t// in\n    tag_1166:\n        /* \"#utility.yul\":41650:41652   */\n      0x40\n        /* \"#utility.yul\":41645:41648   */\n      dup3\n        /* \"#utility.yul\":41641:41653   */\n      add\n        /* \"#utility.yul\":41634:41653   */\n      swap1\n      pop\n        /* \"#utility.yul\":41293:41659   */\n      swap2\n      swap1\n      pop\n      jump\t// out\n        /* \"#utility.yul\":41665:42084   */\n    tag_451:\n        /* \"#utility.yul\":41831:41835   */\n      0x00\n        /* \"#utility.yul\":41869:41871   */\n      0x20\n        /* \"#utility.yul\":41858:41867   */\n      dup3\n        /* \"#utility.yul\":41854:41872   */\n      add\n        /* \"#utility.yul\":41846:41872   */\n      swap1\n      pop\n        /* \"#utility.yul\":41918:41927   */\n      dup2\n        /* \"#utility.yul\":41912:41916   */\n      dup2\n        /* \"#utility.yul\":41908:41928   */\n      sub\n        /* \"#utility.yul\":41904:41905   */\n      0x00\n        /* \"#utility.yul\":41893:41902   */\n      dup4\n        /* \"#utility.yul\":41889:41906   */\n      add\n        /* \"#utility.yul\":41882:41929   */\n      mstore\n        /* \"#utility.yul\":41946:42077   */\n      tag_1168\n        /* \"#utility.yul\":42072:42076   */\n      dup2\n        /* \"#utility.yul\":41946:42077   */\n      tag_748\n      jump\t// in\n    tag_1168:\n        /* \"#utility.yul\":41938:42077   */\n      swap1\n      pop\n        /* \"#utility.yul\":41665:42084   */\n      swap2\n      swap1\n      pop\n      jump\t// out\n        /* \"#utility.yul\":42090:42258   */\n    tag_749:\n        /* \"#utility.yul\":42173:42184   */\n      0x00\n        /* \"#utility.yul\":42207:42213   */\n      dup3\n        /* \"#utility.yul\":42202:42205   */\n      dup3\n        /* \"#utility.yul\":42195:42214   */\n      mstore\n        /* \"#utility.yul\":42247:42251   */\n      0x20\n        /* \"#utility.yul\":42242:42245   */\n      dup3\n        /* \"#utility.yul\":42238:42252   */\n      add\n        /* \"#utility.yul\":42223:42252   */\n      swap1\n      pop\n        /* \"#utility.yul\":42090:42258   */\n      swap3\n      swap2\n      pop\n      pop\n      jump\t// out\n        /* \"#utility.yul\":42264:42378   */\n    tag_750:\n      pop\n      jump\t// out\n        /* \"#utility.yul\":42384:42746   */\n    tag_751:\n        /* \"#utility.yul\":42525:42528   */\n      0x00\n        /* \"#utility.yul\":42546:42611   */\n      tag_1172\n        /* \"#utility.yul\":42609:42610   */\n      0x00\n        /* \"#utility.yul\":42604:42607   */\n      dup4\n        /* \"#utility.yul\":42546:42611   */\n      tag_749\n      jump\t// in\n    tag_1172:\n        /* \"#utility.yul\":42539:42611   */\n      swap2\n      pop\n        /* \"#utility.yul\":42620:42713   */\n      tag_1173\n        /* \"#utility.yul\":42709:42712   */\n      dup3\n        /* \"#utility.yul\":42620:42713   */\n      tag_750\n      jump\t// in\n    tag_1173:\n        /* \"#utility.yul\":42738:42739   */\n      0x00\n        /* \"#utility.yul\":42733:42736   */\n      dup3\n        /* \"#utility.yul\":42729:42740   */\n      add\n        /* \"#utility.yul\":42722:42740   */\n      swap1\n      pop\n        /* \"#utility.yul\":42384:42746   */\n      swap2\n      swap1\n      pop\n      jump\t// out\n        /* \"#utility.yul\":42752:43611   */\n    tag_456:\n        /* \"#utility.yul\":43029:43033   */\n      0x00\n        /* \"#utility.yul\":43067:43070   */\n      0xa0\n        /* \"#utility.yul\":43056:43065   */\n      dup3\n        /* \"#utility.yul\":43052:43071   */\n      add\n        /* \"#utility.yul\":43044:43071   */\n      swap1\n      pop\n        /* \"#utility.yul\":43081:43152   */\n      tag_1175\n        /* \"#utility.yul\":43149:43150   */\n      0x00\n        /* \"#utility.yul\":43138:43147   */\n      dup4\n        /* \"#utility.yul\":43134:43151   */\n      add\n        /* \"#utility.yul\":43125:43131   */\n      dup8\n        /* \"#utility.yul\":43081:43152   */\n      tag_678\n      jump\t// in\n    tag_1175:\n        /* \"#utility.yul\":43162:43234   */\n      tag_1176\n        /* \"#utility.yul\":43230:43232   */\n      0x20\n        /* \"#utility.yul\":43219:43228   */\n      dup4\n        /* \"#utility.yul\":43215:43233   */\n      add\n        /* \"#utility.yul\":43206:43212   */\n      dup7\n        /* \"#utility.yul\":43162:43234   */\n      tag_678\n      jump\t// in\n    tag_1176:\n        /* \"#utility.yul\":43244:43316   */\n      tag_1177\n        /* \"#utility.yul\":43312:43314   */\n      0x40\n        /* \"#utility.yul\":43301:43310   */\n      dup4\n        /* \"#utility.yul\":43297:43315   */\n      add\n        /* \"#utility.yul\":43288:43294   */\n      dup6\n        /* \"#utility.yul\":43244:43316   */\n      tag_679\n      jump\t// in\n    tag_1177:\n        /* \"#utility.yul\":43326:43398   */\n      tag_1178\n        /* \"#utility.yul\":43394:43396   */\n      0x60\n        /* \"#utility.yul\":43383:43392   */\n      dup4\n        /* \"#utility.yul\":43379:43397   */\n      add\n        /* \"#utility.yul\":43370:43376   */\n      dup5\n        /* \"#utility.yul\":43326:43398   */\n      tag_679\n      jump\t// in\n    tag_1178:\n        /* \"#utility.yul\":43446:43455   */\n      dup2\n        /* \"#utility.yul\":43440:43444   */\n      dup2\n        /* \"#utility.yul\":43436:43456   */\n      sub\n        /* \"#utility.yul\":43430:43433   */\n      0x80\n        /* \"#utility.yul\":43419:43428   */\n      dup4\n        /* \"#utility.yul\":43415:43434   */\n      add\n        /* \"#utility.yul\":43408:43457   */\n      mstore\n        /* \"#utility.yul\":43474:43604   */\n      tag_1179\n        /* \"#utility.yul\":43599:43603   */\n      dup2\n        /* \"#utility.yul\":43474:43604   */\n      tag_751\n      jump\t// in\n    tag_1179:\n        /* \"#utility.yul\":43466:43604   */\n      swap1\n      pop\n        /* \"#utility.yul\":42752:43611   */\n      swap6\n      swap5\n      pop\n      pop\n      pop\n      pop\n      pop\n      jump\t// out\n        /* \"#utility.yul\":43617:44059   */\n    tag_464:\n        /* \"#utility.yul\":43766:43770   */\n      0x00\n        /* \"#utility.yul\":43804:43806   */\n      0x60\n        /* \"#utility.yul\":43793:43802   */\n      dup3\n        /* \"#utility.yul\":43789:43807   */\n      add\n        /* \"#utility.yul\":43781:43807   */\n      swap1\n      pop\n        /* \"#utility.yul\":43817:43888   */\n      tag_1181\n        /* \"#utility.yul\":43885:43886   */\n      0x00\n        /* \"#utility.yul\":43874:43883   */\n      dup4\n        /* \"#utility.yul\":43870:43887   */\n      add\n        /* \"#utility.yul\":43861:43867   */\n      dup7\n        /* \"#utility.yul\":43817:43888   */\n      tag_678\n      jump\t// in\n    tag_1181:\n        /* \"#utility.yul\":43898:43970   */\n      tag_1182\n        /* \"#utility.yul\":43966:43968   */\n      0x20\n        /* \"#utility.yul\":43955:43964   */\n      dup4\n        /* \"#utility.yul\":43951:43969   */\n      add\n        /* \"#utility.yul\":43942:43948   */\n      dup6\n        /* \"#utility.yul\":43898:43970   */\n      tag_678\n      jump\t// in\n    tag_1182:\n        /* \"#utility.yul\":43980:44052   */\n      tag_1183\n        /* \"#utility.yul\":44048:44050   */\n      0x40\n        /* \"#utility.yul\":44037:44046   */\n      dup4\n        /* \"#utility.yul\":44033:44051   */\n      add\n        /* \"#utility.yul\":44024:44030   */\n      dup5\n        /* \"#utility.yul\":43980:44052   */\n      tag_679\n      jump\t// in\n    tag_1183:\n        /* \"#utility.yul\":43617:44059   */\n      swap5\n      swap4\n      pop\n      pop\n      pop\n      pop\n      jump\t// out\n        /* \"#utility.yul\":44065:44245   */\n    tag_752:\n        /* \"#utility.yul\":44205:44237   */\n      0x5661756c74203a3a20496e636f7272656374204e465420616464726573730000\n        /* \"#utility.yul\":44201:44202   */\n      0x00\n        /* \"#utility.yul\":44193:44199   */\n      dup3\n        /* \"#utility.yul\":44189:44203   */\n      add\n        /* \"#utility.yul\":44182:44238   */\n      mstore\n        /* \"#utility.yul\":44065:44245   */\n      pop\n      jump\t// out\n        /* \"#utility.yul\":44251:44617   */\n    tag_753:\n        /* \"#utility.yul\":44393:44396   */\n      0x00\n        /* \"#utility.yul\":44414:44481   */\n      tag_1186\n        /* \"#utility.yul\":44478:44480   */\n      0x1e\n        /* \"#utility.yul\":44473:44476   */\n      dup4\n        /* \"#utility.yul\":44414:44481   */\n      tag_689\n      jump\t// in\n    tag_1186:\n        /* \"#utility.yul\":44407:44481   */\n      swap2\n      pop\n        /* \"#utility.yul\":44490:44583   */\n      tag_1187\n        /* \"#utility.yul\":44579:44582   */\n      dup3\n        /* \"#utility.yul\":44490:44583   */\n      tag_752\n      jump\t// in\n    tag_1187:\n        /* \"#utility.yul\":44608:44610   */\n      0x20\n        /* \"#utility.yul\":44603:44606   */\n      dup3\n        /* \"#utility.yul\":44599:44611   */\n      add\n        /* \"#utility.yul\":44592:44611   */\n      swap1\n      pop\n        /* \"#utility.yul\":44251:44617   */\n      swap2\n      swap1\n      pop\n      jump\t// out\n        /* \"#utility.yul\":44623:45042   */\n    tag_470:\n        /* \"#utility.yul\":44789:44793   */\n      0x00\n        /* \"#utility.yul\":44827:44829   */\n      0x20\n        /* \"#utility.yul\":44816:44825   */\n      dup3\n        /* \"#utility.yul\":44812:44830   */\n      add\n        /* \"#utility.yul\":44804:44830   */\n      swap1\n      pop\n        /* \"#utility.yul\":44876:44885   */\n      dup2\n        /* \"#utility.yul\":44870:44874   */\n      dup2\n        /* \"#utility.yul\":44866:44886   */\n      sub\n        /* \"#utility.yul\":44862:44863   */\n      0x00\n        /* \"#utility.yul\":44851:44860   */\n      dup4\n        /* \"#utility.yul\":44847:44864   */\n      add\n        /* \"#utility.yul\":44840:44887   */\n      mstore\n        /* \"#utility.yul\":44904:45035   */\n      tag_1189\n        /* \"#utility.yul\":45030:45034   */\n      dup2\n        /* \"#utility.yul\":44904:45035   */\n      tag_753\n      jump\t// in\n    tag_1189:\n        /* \"#utility.yul\":44896:45035   */\n      swap1\n      pop\n        /* \"#utility.yul\":44623:45042   */\n      swap2\n      swap1\n      pop\n      jump\t// out\n        /* \"#utility.yul\":45048:45228   */\n    tag_754:\n        /* \"#utility.yul\":45188:45220   */\n      0x5661756c74203a3a20496e636f7272656374207661756c742073746174650000\n        /* \"#utility.yul\":45184:45185   */\n      0x00\n        /* \"#utility.yul\":45176:45182   */\n      dup3\n        /* \"#utility.yul\":45172:45186   */\n      add\n        /* \"#utility.yul\":45165:45221   */\n      mstore\n        /* \"#utility.yul\":45048:45228   */\n      pop\n      jump\t// out\n        /* \"#utility.yul\":45234:45600   */\n    tag_755:\n        /* \"#utility.yul\":45376:45379   */\n      0x00\n        /* \"#utility.yul\":45397:45464   */\n      tag_1192\n        /* \"#utility.yul\":45461:45463   */\n      0x1e\n        /* \"#utility.yul\":45456:45459   */\n      dup4\n        /* \"#utility.yul\":45397:45464   */\n      tag_689\n      jump\t// in\n    tag_1192:\n        /* \"#utility.yul\":45390:45464   */\n      swap2\n      pop\n        /* \"#utility.yul\":45473:45566   */\n      tag_1193\n        /* \"#utility.yul\":45562:45565   */\n      dup3\n        /* \"#utility.yul\":45473:45566   */\n      tag_754\n      jump\t// in\n    tag_1193:\n        /* \"#utility.yul\":45591:45593   */\n      0x20\n        /* \"#utility.yul\":45586:45589   */\n      dup3\n        /* \"#utility.yul\":45582:45594   */\n      add\n        /* \"#utility.yul\":45575:45594   */\n      swap1\n      pop\n        /* \"#utility.yul\":45234:45600   */\n      swap2\n      swap1\n      pop\n      jump\t// out\n        /* \"#utility.yul\":45606:46025   */\n    tag_518:\n        /* \"#utility.yul\":45772:45776   */\n      0x00\n        /* \"#utility.yul\":45810:45812   */\n      0x20\n        /* \"#utility.yul\":45799:45808   */\n      dup3\n        /* \"#utility.yul\":45795:45813   */\n      add\n        /* \"#utility.yul\":45787:45813   */\n      swap1\n      pop\n        /* \"#utility.yul\":45859:45868   */\n      dup2\n        /* \"#utility.yul\":45853:45857   */\n      dup2\n        /* \"#utility.yul\":45849:45869   */\n      sub\n        /* \"#utility.yul\":45845:45846   */\n      0x00\n        /* \"#utility.yul\":45834:45843   */\n      dup4\n        /* \"#utility.yul\":45830:45847   */\n      add\n        /* \"#utility.yul\":45823:45870   */\n      mstore\n        /* \"#utility.yul\":45887:46018   */\n      tag_1195\n        /* \"#utility.yul\":46013:46017   */\n      dup2\n        /* \"#utility.yul\":45887:46018   */\n      tag_755\n      jump\t// in\n    tag_1195:\n        /* \"#utility.yul\":45879:46018   */\n      swap1\n      pop\n        /* \"#utility.yul\":45606:46025   */\n      swap2\n      swap1\n      pop\n      jump\t// out\n        /* \"#utility.yul\":46031:46211   */\n    tag_756:\n        /* \"#utility.yul\":46171:46203   */\n      0x5661756c743a3a20496e636f7272656374204e46542020616464726573730000\n        /* \"#utility.yul\":46167:46168   */\n      0x00\n        /* \"#utility.yul\":46159:46165   */\n      dup3\n        /* \"#utility.yul\":46155:46169   */\n      add\n        /* \"#utility.yul\":46148:46204   */\n      mstore\n        /* \"#utility.yul\":46031:46211   */\n      pop\n      jump\t// out\n        /* \"#utility.yul\":46217:46583   */\n    tag_757:\n        /* \"#utility.yul\":46359:46362   */\n      0x00\n        /* \"#utility.yul\":46380:46447   */\n      tag_1198\n        /* \"#utility.yul\":46444:46446   */\n      0x1e\n        /* \"#utility.yul\":46439:46442   */\n      dup4\n        /* \"#utility.yul\":46380:46447   */\n      tag_689\n      jump\t// in\n    tag_1198:\n        /* \"#utility.yul\":46373:46447   */\n      swap2\n      pop\n        /* \"#utility.yul\":46456:46549   */\n      tag_1199\n        /* \"#utility.yul\":46545:46548   */\n      dup3\n        /* \"#utility.yul\":46456:46549   */\n      tag_756\n      jump\t// in\n    tag_1199:\n        /* \"#utility.yul\":46574:46576   */\n      0x20\n        /* \"#utility.yul\":46569:46572   */\n      dup3\n        /* \"#utility.yul\":46565:46577   */\n      add\n        /* \"#utility.yul\":46558:46577   */\n      swap1\n      pop\n        /* \"#utility.yul\":46217:46583   */\n      swap2\n      swap1\n      pop\n      jump\t// out\n        /* \"#utility.yul\":46589:47008   */\n    tag_558:\n        /* \"#utility.yul\":46755:46759   */\n      0x00\n        /* \"#utility.yul\":46793:46795   */\n      0x20\n        /* \"#utility.yul\":46782:46791   */\n      dup3\n        /* \"#utility.yul\":46778:46796   */\n      add\n        /* \"#utility.yul\":46770:46796   */\n      swap1\n      pop\n        /* \"#utility.yul\":46842:46851   */\n      dup2\n        /* \"#utility.yul\":46836:46840   */\n      dup2\n        /* \"#utility.yul\":46832:46852   */\n      sub\n        /* \"#utility.yul\":46828:46829   */\n      0x00\n        /* \"#utility.yul\":46817:46826   */\n      dup4\n        /* \"#utility.yul\":46813:46830   */\n      add\n        /* \"#utility.yul\":46806:46853   */\n      mstore\n        /* \"#utility.yul\":46870:47001   */\n      tag_1201\n        /* \"#utility.yul\":46996:47000   */\n      dup2\n        /* \"#utility.yul\":46870:47001   */\n      tag_757\n      jump\t// in\n    tag_1201:\n        /* \"#utility.yul\":46862:47001   */\n      swap1\n      pop\n        /* \"#utility.yul\":46589:47008   */\n      swap2\n      swap1\n      pop\n      jump\t// out\n        /* \"#utility.yul\":47014:47188   */\n    tag_758:\n        /* \"#utility.yul\":47154:47180   */\n      0x5661756c743a3a20496e636f7272656374204e46542049640000000000000000\n        /* \"#utility.yul\":47150:47151   */\n      0x00\n        /* \"#utility.yul\":47142:47148   */\n      dup3\n        /* \"#utility.yul\":47138:47152   */\n      add\n        /* \"#utility.yul\":47131:47181   */\n      mstore\n        /* \"#utility.yul\":47014:47188   */\n      pop\n      jump\t// out\n        /* \"#utility.yul\":47194:47560   */\n    tag_759:\n        /* \"#utility.yul\":47336:47339   */\n      0x00\n        /* \"#utility.yul\":47357:47424   */\n      tag_1204\n        /* \"#utility.yul\":47421:47423   */\n      0x18\n        /* \"#utility.yul\":47416:47419   */\n      dup4\n        /* \"#utility.yul\":47357:47424   */\n      tag_689\n      jump\t// in\n    tag_1204:\n        /* \"#utility.yul\":47350:47424   */\n      swap2\n      pop\n        /* \"#utility.yul\":47433:47526   */\n      tag_1205\n        /* \"#utility.yul\":47522:47525   */\n      dup3\n        /* \"#utility.yul\":47433:47526   */\n      tag_758\n      jump\t// in\n    tag_1205:\n        /* \"#utility.yul\":47551:47553   */\n      0x20\n        /* \"#utility.yul\":47546:47549   */\n      dup3\n        /* \"#utility.yul\":47542:47554   */\n      add\n        /* \"#utility.yul\":47535:47554   */\n      swap1\n      pop\n        /* \"#utility.yul\":47194:47560   */\n      swap2\n      swap1\n      pop\n      jump\t// out\n        /* \"#utility.yul\":47566:47985   */\n    tag_566:\n        /* \"#utility.yul\":47732:47736   */\n      0x00\n        /* \"#utility.yul\":47770:47772   */\n      0x20\n        /* \"#utility.yul\":47759:47768   */\n      dup3\n        /* \"#utility.yul\":47755:47773   */\n      add\n        /* \"#utility.yul\":47747:47773   */\n      swap1\n      pop\n        /* \"#utility.yul\":47819:47828   */\n      dup2\n        /* \"#utility.yul\":47813:47817   */\n      dup2\n        /* \"#utility.yul\":47809:47829   */\n      sub\n        /* \"#utility.yul\":47805:47806   */\n      0x00\n        /* \"#utility.yul\":47794:47803   */\n      dup4\n        /* \"#utility.yul\":47790:47807   */\n      add\n        /* \"#utility.yul\":47783:47830   */\n      mstore\n        /* \"#utility.yul\":47847:47978   */\n      tag_1207\n        /* \"#utility.yul\":47973:47977   */\n      dup2\n        /* \"#utility.yul\":47847:47978   */\n      tag_759\n      jump\t// in\n    tag_1207:\n        /* \"#utility.yul\":47839:47978   */\n      swap1\n      pop\n        /* \"#utility.yul\":47566:47985   */\n      swap2\n      swap1\n      pop\n      jump\t// out\n        /* \"#utility.yul\":47991:48296   */\n    tag_573:\n        /* \"#utility.yul\":48031:48034   */\n      0x00\n        /* \"#utility.yul\":48050:48070   */\n      tag_1209\n        /* \"#utility.yul\":48068:48069   */\n      dup3\n        /* \"#utility.yul\":48050:48070   */\n      tag_662\n      jump\t// in\n    tag_1209:\n        /* \"#utility.yul\":48045:48070   */\n      swap2\n      pop\n        /* \"#utility.yul\":48084:48104   */\n      tag_1210\n        /* \"#utility.yul\":48102:48103   */\n      dup4\n        /* \"#utility.yul\":48084:48104   */\n      tag_662\n      jump\t// in\n    tag_1210:\n        /* \"#utility.yul\":48079:48104   */\n      swap3\n      pop\n        /* \"#utility.yul\":48238:48239   */\n      dup3\n        /* \"#utility.yul\":48170:48236   */\n      0xffffffffffffffffffffffffffffffffffffffffffffffffffffffffffffffff\n        /* \"#utility.yul\":48166:48240   */\n      sub\n        /* \"#utility.yul\":48163:48164   */\n      dup3\n        /* \"#utility.yul\":48160:48241   */\n      gt\n        /* \"#utility.yul\":48157:48264   */\n      iszero\n      tag_1211\n      jumpi\n        /* \"#utility.yul\":48244:48262   */\n      tag_1212\n      tag_734\n      jump\t// in\n    tag_1212:\n        /* \"#utility.yul\":48157:48264   */\n    tag_1211:\n        /* \"#utility.yul\":48288:48289   */\n      dup3\n        /* \"#utility.yul\":48285:48286   */\n      dup3\n        /* \"#utility.yul\":48281:48290   */\n      add\n        /* \"#utility.yul\":48274:48290   */\n      swap1\n      pop\n        /* \"#utility.yul\":47991:48296   */\n      swap3\n      swap2\n      pop\n      pop\n      jump\t// out\n        /* \"#utility.yul\":48302:48482   */\n    tag_624:\n        /* \"#utility.yul\":48350:48427   */\n      0x4e487b7100000000000000000000000000000000000000000000000000000000\n        /* \"#utility.yul\":48347:48348   */\n      0x00\n        /* \"#utility.yul\":48340:48428   */\n      mstore\n        /* \"#utility.yul\":48447:48451   */\n      0x31\n        /* \"#utility.yul\":48444:48445   */\n      0x04\n        /* \"#utility.yul\":48437:48452   */\n      mstore\n        /* \"#utility.yul\":48471:48475   */\n      0x24\n        /* \"#utility.yul\":48468:48469   */\n      0x00\n        /* \"#utility.yul\":48461:48476   */\n      revert\n        /* \"#utility.yul\":48488:48581   */\n    tag_760:\n        /* \"#utility.yul\":48524:48531   */\n      0x00\n        /* \"#utility.yul\":48564:48574   */\n      0xffffffff\n        /* \"#utility.yul\":48557:48562   */\n      dup3\n        /* \"#utility.yul\":48553:48575   */\n      and\n        /* \"#utility.yul\":48542:48575   */\n      swap1\n      pop\n        /* \"#utility.yul\":48488:48581   */\n      swap2\n      swap1\n      pop\n      jump\t// out\n        /* \"#utility.yul\":48587:48762   */\n    tag_627:\n        /* \"#utility.yul\":48625:48628   */\n      0x00\n        /* \"#utility.yul\":48648:48671   */\n      tag_1216\n        /* \"#utility.yul\":48665:48670   */\n      dup3\n        /* \"#utility.yul\":48648:48671   */\n      tag_760\n      jump\t// in\n    tag_1216:\n        /* \"#utility.yul\":48639:48671   */\n      swap2\n      pop\n        /* \"#utility.yul\":48693:48703   */\n      0xffffffff\n        /* \"#utility.yul\":48686:48691   */\n      dup3\n        /* \"#utility.yul\":48683:48704   */\n      eq\n        /* \"#utility.yul\":48680:48727   */\n      iszero\n      tag_1217\n      jumpi\n        /* \"#utility.yul\":48707:48725   */\n      tag_1218\n      tag_734\n      jump\t// in\n    tag_1218:\n        /* \"#utility.yul\":48680:48727   */\n    tag_1217:\n        /* \"#utility.yul\":48754:48755   */\n      0x01\n        /* \"#utility.yul\":48747:48752   */\n      dup3\n        /* \"#utility.yul\":48743:48756   */\n      add\n        /* \"#utility.yul\":48736:48756   */\n      swap1\n      pop\n        /* \"#utility.yul\":48587:48762   */\n      swap2\n      swap1\n      pop\n      jump\t// out\n        /* \"#utility.yul\":48768:48866   */\n    tag_761:\n        /* \"#utility.yul\":48819:48825   */\n      0x00\n        /* \"#utility.yul\":48853:48858   */\n      dup2\n        /* \"#utility.yul\":48847:48859   */\n      mload\n        /* \"#utility.yul\":48837:48859   */\n      swap1\n      pop\n        /* \"#utility.yul\":48768:48866   */\n      swap2\n      swap1\n      pop\n      jump\t// out\n        /* \"#utility.yul\":48872:49019   */\n    tag_762:\n        /* \"#utility.yul\":48973:48984   */\n      0x00\n        /* \"#utility.yul\":49010:49013   */\n      dup2\n        /* \"#utility.yul\":48995:49013   */\n      swap1\n      pop\n        /* \"#utility.yul\":48872:49019   */\n      swap3\n      swap2\n      pop\n      pop\n      jump\t// out\n        /* \"#utility.yul\":49025:49398   */\n    tag_763:\n        /* \"#utility.yul\":49129:49132   */\n      0x00\n        /* \"#utility.yul\":49157:49195   */\n      tag_1222\n        /* \"#utility.yul\":49189:49194   */\n      dup3\n        /* \"#utility.yul\":49157:49195   */\n      tag_761\n      jump\t// in\n    tag_1222:\n        /* \"#utility.yul\":49211:49299   */\n      tag_1223\n        /* \"#utility.yul\":49292:49298   */\n      dup2\n        /* \"#utility.yul\":49287:49290   */\n      dup6\n        /* \"#utility.yul\":49211:49299   */\n      tag_762\n      jump\t// in\n    tag_1223:\n        /* \"#utility.yul\":49204:49299   */\n      swap4\n      pop\n        /* \"#utility.yul\":49308:49360   */\n      tag_1224\n        /* \"#utility.yul\":49353:49359   */\n      dup2\n        /* \"#utility.yul\":49348:49351   */\n      dup6\n        /* \"#utility.yul\":49341:49345   */\n      0x20\n        /* \"#utility.yul\":49334:49339   */\n      dup7\n        /* \"#utility.yul\":49330:49346   */\n      add\n        /* \"#utility.yul\":49308:49360   */\n      tag_690\n      jump\t// in\n    tag_1224:\n        /* \"#utility.yul\":49385:49391   */\n      dup1\n        /* \"#utility.yul\":49380:49383   */\n      dup5\n        /* \"#utility.yul\":49376:49392   */\n      add\n        /* \"#utility.yul\":49369:49392   */\n      swap2\n      pop\n        /* \"#utility.yul\":49133:49398   */\n      pop\n        /* \"#utility.yul\":49025:49398   */\n      swap3\n      swap2\n      pop\n      pop\n      jump\t// out\n        /* \"#utility.yul\":49404:49675   */\n    tag_635:\n        /* \"#utility.yul\":49534:49537   */\n      0x00\n        /* \"#utility.yul\":49556:49649   */\n      tag_1226\n        /* \"#utility.yul\":49645:49648   */\n      dup3\n        /* \"#utility.yul\":49636:49642   */\n      dup5\n        /* \"#utility.yul\":49556:49649   */\n      tag_763\n      jump\t// in\n    tag_1226:\n        /* \"#utility.yul\":49549:49649   */\n      swap2\n      pop\n        /* \"#utility.yul\":49666:49669   */\n      dup2\n        /* \"#utility.yul\":49659:49669   */\n      swap1\n      pop\n        /* \"#utility.yul\":49404:49675   */\n      swap3\n      swap2\n      pop\n      pop\n      jump\t// out\n\n    auxdata: 0xa26469706673582212208771852f81272cd3ceeffc9a37d6d1f019357e6f8fdf194797197da05e13659164736f6c634300080a0033\n}\n",
				"bytecode": {
					"linkReferences": {},
					"object": "608060405234801561001057600080fd5b50614bca806100206000396000f3fe608060405234801561001057600080fd5b506004361061018d5760003560e01c80638f975a64116100de578063bdf83f8711610097578063d58bfa9d11610071578063d58bfa9d14610463578063e2019ab314610481578063e77ae39b1461049d578063f23a6e61146104b95761018d565b8063bdf83f871461040d578063be040fb014610429578063c2880715146104335761018d565b80638f975a64146103395780639ce110d714610355578063a82e02f014610373578063ad5c46481461038f578063af9a82b2146103ad578063bc197c81146103dd5761018d565b80634f72d8461161014b5780635ccb53df116101255780635ccb53df146102d7578063634f6319146102f557806364a197f3146103135780638129fc1c1461032f5761018d565b80634f72d8461461026b57806354f0970c146102895780635b093b13146102a75761018d565b806294c5f3146101925780631370c6a9146101ae578063150b7a02146101b8578063265aa621146101e85780632d1d53f71461021d5780632d7ecd111461024d575b600080fd5b6101ac60048036038101906101a791906133e6565b6104e9565b005b6101b66105d0565b005b6101d260048036038101906101cd91906134f7565b6106c6565b6040516101df91906135b5565b60405180910390f35b61020260048036038101906101fd91906135d0565b6106da565b60405161021496959493929190613762565b60405180910390f35b610237600480360381019061023291906135d0565b6107e8565b60405161024491906137ca565b60405180910390f35b61025561080c565b6040516102629190613800565b60405180910390f35b61027361081f565b604051610280919061387a565b60405180910390f35b610291610843565b60405161029e9190613895565b60405180910390f35b6102c160048036038101906102bc91906138b0565b6108da565b6040516102ce91906138f0565b60405180910390f35b6102df610a2f565b6040516102ec91906138f0565b60405180910390f35b6102fd610ae8565b60405161030a91906139d0565b60405180910390f35b61032d60048036038101906103289190613a30565b610b40565b005b610337610cd4565b005b610353600480360381019061034e9190613a70565b610f50565b005b61035d61111d565b60405161036a9190613800565b60405180910390f35b61038d600480360381019061038891906138b0565b611130565b005b610397611412565b6040516103a49190613895565b60405180910390f35b6103c760048036038101906103c291906138b0565b61142a565b6040516103d49190613ac3565b60405180910390f35b6103f760048036038101906103f29190613ade565b611503565b60405161040491906135b5565b60405180910390f35b61042760048036038101906104229190613c70565b611518565b005b61043161181b565b005b61044d600480360381019061044891906138b0565b611de8565b60405161045a91906137ca565b60405180910390f35b61046b611e0d565b6040516104789190613ac3565b60405180910390f35b61049b60048036038101906104969190613cfb565b611e4b565b005b6104b760048036038101906104b29190613e7c565b611f36565b005b6104d360048036038101906104ce9190613eff565b612225565b6040516104e091906135b5565b60405180910390f35b60008054906101000a900473ffffffffffffffffffffffffffffffffffffffff1673ffffffffffffffffffffffffffffffffffffffff1663372c12b1336040518263ffffffff1660e01b81526004016105429190613895565b602060405180830381865afa15801561055f573d6000803e3d6000fd5b505050506040513d601f19601f820116820180604052508101906105839190613fc2565b6105c2576040517f08c379a00000000000000000000000000000000000000000000000000000000081526004016105b99061403b565b60405180910390fd5b6105cc828261223a565b5050565b60008054906101000a900473ffffffffffffffffffffffffffffffffffffffff1673ffffffffffffffffffffffffffffffffffffffff1663372c12b1336040518263ffffffff1660e01b81526004016106299190613895565b602060405180830381865afa158015610646573d6000803e3d6000fd5b505050506040513d601f19601f8201168201806040525081019061066a9190613fc2565b6106a9576040517f08c379a00000000000000000000000000000000000000000000000000000000081526004016106a09061403b565b60405180910390fd5b6000600460006101000a81548160ff021916908315150217905550565b600063150b7a0260e01b9050949350505050565b600181815481106106ea57600080fd5b90600052602060002090600502016000915090508060000160009054906101000a900473ffffffffffffffffffffffffffffffffffffffff16908060010154908060020154908060030160009054906101000a900460ff16908060030160019054906101000a900460ff16908060040180546107659061408a565b80601f01602080910402602001604051908101604052809291908181526020018280546107919061408a565b80156107de5780601f106107b3576101008083540402835291602001916107de565b820191906000526020600020905b8154815290600101906020018083116107c157829003601f168201915b5050505050905086565b600281815481106107f857600080fd5b906000526020600020016000915090505481565b600460009054906101000a900460ff1681565b60008054906101000a900473ffffffffffffffffffffffffffffffffffffffff1681565b60008060009054906101000a900473ffffffffffffffffffffffffffffffffffffffff1673ffffffffffffffffffffffffffffffffffffffff16633205f5fc6040518163ffffffff1660e01b8152600401602060405180830381865afa1580156108b1573d6000803e3d6000fd5b505050506040513d601f19601f820116820180604052508101906108d591906140d1565b905090565b60606000600360008573ffffffffffffffffffffffffffffffffffffffff1673ffffffffffffffffffffffffffffffffffffffff1681526020019081526020016000206000848152602001908152602001600020549050600060ff16811415610978576040517f08c379a000000000000000000000000000000000000000000000000000000000815260040161096f9061414a565b60405180910390fd5b6001818154811061098c5761098b61416a565b5b906000526020600020906005020160040180546109a89061408a565b80601f01602080910402602001604051908101604052809291908181526020018280546109d49061408a565b8015610a215780601f106109f657610100808354040283529160200191610a21565b820191906000526020600020905b815481529060010190602001808311610a0457829003601f168201915b505050505091505092915050565b60606001600060ff1681548110610a4957610a4861416a565b5b90600052602060002090600502016004018054610a659061408a565b80601f0160208091040260200160405190810160405280929190818152602001828054610a919061408a565b8015610ade5780601f10610ab357610100808354040283529160200191610ade565b820191906000526020600020905b815481529060010190602001808311610ac157829003601f168201915b5050505050905090565b60606002805480602002602001604051908101604052809291908181526020018280548015610b3657602002820191906000526020600020905b815481526020019060010190808311610b22575b5050505050905090565b60008054906101000a900473ffffffffffffffffffffffffffffffffffffffff1673ffffffffffffffffffffffffffffffffffffffff1663372c12b1336040518263ffffffff1660e01b8152600401610b999190613895565b602060405180830381865afa158015610bb6573d6000803e3d6000fd5b505050506040513d601f19601f82011682018060405250810190610bda9190613fc2565b610c19576040517f08c379a0000000000000000000000000000000000000000000000000000000008152600401610c109061403b565b60405180910390fd5b600073ffffffffffffffffffffffffffffffffffffffff168273ffffffffffffffffffffffffffffffffffffffff161415610c89576040517f08c379a0000000000000000000000000000000000000000000000000000000008152600401610c809061420b565b60405180910390fd5b8173ffffffffffffffffffffffffffffffffffffffff166108fc829081150290604051600060405180830381858888f19350505050158015610ccf573d6000803e3d6000fd5b505050565b600460019054906101000a900460ff1615610d24576040517f08c379a0000000000000000000000000000000000000000000000000000000008152600401610d1b9061429d565b60405180910390fd5b600460019054906101000a900460ff1615600460016101000a81548160ff021916908315150217905550336000806101000a81548173ffffffffffffffffffffffffffffffffffffffff021916908373ffffffffffffffffffffffffffffffffffffffff1602179055506001600460006101000a81548160ff02191690831515021790555060016040518060c00160405280600073ffffffffffffffffffffffffffffffffffffffff1681526020016000815260200160008152602001600280811115610df457610df361361b565b5b815260200160006002811115610e0d57610e0c61361b565b5b81526020016040518060400160405280600481526020017f6e6f6e6500000000000000000000000000000000000000000000000000000000815250815250908060018154018082558091505060019003906000526020600020906005020160009091909190915060008201518160000160006101000a81548173ffffffffffffffffffffffffffffffffffffffff021916908373ffffffffffffffffffffffffffffffffffffffff160217905550602082015181600101556040820151816002015560608201518160030160006101000a81548160ff02191690836002811115610efa57610ef961361b565b5b021790555060808201518160030160016101000a81548160ff02191690836002811115610f2a57610f2961361b565b5b021790555060a0820151816004019080519060200190610f4b929190613142565b505050565b60008054906101000a900473ffffffffffffffffffffffffffffffffffffffff1673ffffffffffffffffffffffffffffffffffffffff1663372c12b1336040518263ffffffff1660e01b8152600401610fa99190613895565b602060405180830381865afa158015610fc6573d6000803e3d6000fd5b505050506040513d601f19601f82011682018060405250810190610fea9190613fc2565b611029576040517f08c379a00000000000000000000000000000000000000000000000000000000081526004016110209061403b565b60405180910390fd5b600073ffffffffffffffffffffffffffffffffffffffff168273ffffffffffffffffffffffffffffffffffffffff161415611099576040517f08c379a00000000000000000000000000000000000000000000000000000000081526004016110909061432f565b60405180910390fd5b8273ffffffffffffffffffffffffffffffffffffffff1663a9059cbb83836040518363ffffffff1660e01b81526004016110d492919061434f565b6020604051808303816000875af11580156110f3573d6000803e3d6000fd5b505050506040513d601f19601f820116820180604052508101906111179190613fc2565b50505050565b600460019054906101000a900460ff1681565b60008054906101000a900473ffffffffffffffffffffffffffffffffffffffff1673ffffffffffffffffffffffffffffffffffffffff1663372c12b1336040518263ffffffff1660e01b81526004016111899190613895565b602060405180830381865afa1580156111a6573d6000803e3d6000fd5b505050506040513d601f19601f820116820180604052508101906111ca9190613fc2565b611209576040517f08c379a00000000000000000000000000000000000000000000000000000000081526004016112009061403b565b60405180910390fd5b600073ffffffffffffffffffffffffffffffffffffffff168273ffffffffffffffffffffffffffffffffffffffff161415611279576040517f08c379a0000000000000000000000000000000000000000000000000000000008152600401611270906143ea565b60405180910390fd5b736085a86303e362c2a7434a7ea270d60a125b183c73ffffffffffffffffffffffffffffffffffffffff1663d0e30db0826040518263ffffffff1660e01b81526004016000604051808303818588803b1580156112d557600080fd5b505af11580156112e9573d6000803e3d6000fd5b5050505050736085a86303e362c2a7434a7ea270d60a125b183c73ffffffffffffffffffffffffffffffffffffffff1663a9059cbb83736085a86303e362c2a7434a7ea270d60a125b183c73ffffffffffffffffffffffffffffffffffffffff166370a08231306040518263ffffffff1660e01b815260040161136c9190613895565b602060405180830381865afa158015611389573d6000803e3d6000fd5b505050506040513d601f19601f820116820180604052508101906113ad919061441f565b6040518363ffffffff1660e01b81526004016113ca92919061434f565b6020604051808303816000875af11580156113e9573d6000803e3d6000fd5b505050506040513d601f19601f8201168201806040525081019061140d9190613fc2565b505050565b736085a86303e362c2a7434a7ea270d60a125b183c81565b600080600360008573ffffffffffffffffffffffffffffffffffffffff1673ffffffffffffffffffffffffffffffffffffffff1681526020019081526020016000206000848152602001908152602001600020549050600060ff168114156114c7576040517f08c379a00000000000000000000000000000000000000000000000000000000081526004016114be9061414a565b60405180910390fd5b600181815481106114db576114da61416a565b5b906000526020600020906005020160030160019054906101000a900460ff1691505092915050565b600063bc197c8160e01b905095945050505050565b60008054906101000a900473ffffffffffffffffffffffffffffffffffffffff1673ffffffffffffffffffffffffffffffffffffffff1663372c12b1336040518263ffffffff1660e01b81526004016115719190613895565b602060405180830381865afa15801561158e573d6000803e3d6000fd5b505050506040513d601f19601f820116820180604052508101906115b29190613fc2565b6115f1576040517f08c379a00000000000000000000000000000000000000000000000000000000081526004016115e89061403b565b60405180910390fd5b60005b83518161ffff16101561181557600060036000868461ffff168151811061161e5761161d61416a565b5b602002602001015173ffffffffffffffffffffffffffffffffffffffff1673ffffffffffffffffffffffffffffffffffffffff1681526020019081526020016000206000858461ffff16815181106116795761167861416a565b5b60200260200101518152602001908152602001600020549050600060ff168114156116d9576040517f08c379a00000000000000000000000000000000000000000000000000000000081526004016116d09061414a565b60405180910390fd5b611747858361ffff16815181106116f3576116f261416a565b5b6020026020010151858461ffff16815181106117125761171161416a565b5b60200260200101516001848154811061172e5761172d61416a565b5b9060005260206000209060050201600201543087612423565b50611801816002600184815481106117625761176161416a565b5b9060005260206000209060050201600401805461177e9061408a565b80601f01602080910402602001604051908101604052809291908181526020018280546117aa9061408a565b80156117f75780601f106117cc576101008083540402835291602001916117f7565b820191906000526020600020905b8154815290600101906020018083116117da57829003601f168201915b50505050506125f6565b50808061180d90614489565b9150506115f4565b50505050565b6000611825610843565b73ffffffffffffffffffffffffffffffffffffffff166318160ddd6040518163ffffffff1660e01b8152600401602060405180830381865afa15801561186f573d6000803e3d6000fd5b505050506040513d601f19601f82011682018060405250810190611893919061441f565b14156118d4576040517f08c379a00000000000000000000000000000000000000000000000000000000081526004016118cb90614526565b60405180910390fd5b6002808111156118e7576118e661361b565b5b6118ef611e0d565b60028111156119015761190061361b565b5b1415611942576040517f08c379a000000000000000000000000000000000000000000000000000000000815260040161193990614592565b60405180910390fd5b600460009054906101000a900460ff16611991576040517f08c379a0000000000000000000000000000000000000000000000000000000008152600401611988906145fe565b60405180910390fd5b60008060009054906101000a900473ffffffffffffffffffffffffffffffffffffffff1673ffffffffffffffffffffffffffffffffffffffff1663e06174e46040518163ffffffff1660e01b8152600401602060405180830381865afa1580156119ff573d6000803e3d6000fd5b505050506040513d601f19601f82011682018060405250810190611a2391906140d1565b73ffffffffffffffffffffffffffffffffffffffff1663b3f006746040518163ffffffff1660e01b81526004016020604051808303816000875af1158015611a6f573d6000803e3d6000fd5b505050506040513d601f19601f82011682018060405250810190611a939190614633565b90506000611a9f610843565b73ffffffffffffffffffffffffffffffffffffffff166370a08231836040518263ffffffff1660e01b8152600401611ad79190613895565b602060405180830381865afa158015611af4573d6000803e3d6000fd5b505050506040513d601f19601f82011682018060405250810190611b18919061441f565b90506000611b24610843565b73ffffffffffffffffffffffffffffffffffffffff166370a08231336040518263ffffffff1660e01b8152600401611b5c9190613895565b602060405180830381865afa158015611b79573d6000803e3d6000fd5b505050506040513d601f19601f82011682018060405250810190611b9d919061441f565b905081611ba8610843565b73ffffffffffffffffffffffffffffffffffffffff166318160ddd6040518163ffffffff1660e01b8152600401602060405180830381865afa158015611bf2573d6000803e3d6000fd5b505050506040513d601f19601f82011682018060405250810190611c16919061441f565b611c209190614660565b811015611c62576040517f08c379a0000000000000000000000000000000000000000000000000000000008152600401611c59906146e0565b60405180910390fd5b611c6a610843565b73ffffffffffffffffffffffffffffffffffffffff16639745ab1f33836040518363ffffffff1660e01b8152600401611ca492919061434f565b600060405180830381600087803b158015611cbe57600080fd5b505af1158015611cd2573d6000803e3d6000fd5b50505050611ce7611ce1610ae8565b3361223a565b6040518060400160405280600881526020017f72656465656d65640000000000000000000000000000000000000000000000008152506001600060ff1681548110611d3557611d3461416a565b5b90600052602060002090600502016004019080519060200190611d59929190613142565b5060026001600060ff1681548110611d7457611d7361416a565b5b906000526020600020906005020160030160016101000a81548160ff02191690836002811115611da757611da661361b565b5b02179055507fd1b5ea7fe0f1c2fa09d49c2aa9b2200664ba57a734f1d95481d95b7f99af991c33604051611ddb9190613895565b60405180910390a1505050565b6003602052816000526040600020602052806000526040600020600091509150505481565b60006001600060ff1681548110611e2757611e2661416a565b5b906000526020600020906005020160030160019054906101000a900460ff16905090565b60008054906101000a900473ffffffffffffffffffffffffffffffffffffffff1673ffffffffffffffffffffffffffffffffffffffff1663372c12b1336040518263ffffffff1660e01b8152600401611ea49190613895565b602060405180830381865afa158015611ec1573d6000803e3d6000fd5b505050506040513d601f19601f82011682018060405250810190611ee59190613fc2565b611f24576040517f08c379a0000000000000000000000000000000000000000000000000000000008152600401611f1b9061403b565b60405180910390fd5b611f3084848484612794565b50505050565b60008054906101000a900473ffffffffffffffffffffffffffffffffffffffff1673ffffffffffffffffffffffffffffffffffffffff1663372c12b1336040518263ffffffff1660e01b8152600401611f8f9190613895565b602060405180830381865afa158015611fac573d6000803e3d6000fd5b505050506040513d601f19601f82011682018060405250810190611fd09190613fc2565b61200f576040517f08c379a00000000000000000000000000000000000000000000000000000000081526004016120069061403b565b60405180910390fd5b6000600360008673ffffffffffffffffffffffffffffffffffffffff1673ffffffffffffffffffffffffffffffffffffffff16815260200190815260200160002060008581526020019081526020016000205490506002808111156120775761207661361b565b5b6001828154811061208b5761208a61416a565b5b906000526020600020906005020160030160019054906101000a900460ff1660028111156120bc576120bb61361b565b5b14156120fd576040517f08c379a00000000000000000000000000000000000000000000000000000000081526004016120f49061414a565b60405180910390fd5b600073ffffffffffffffffffffffffffffffffffffffff168573ffffffffffffffffffffffffffffffffffffffff161480156121395750600084145b156121cb5781600182815481106121535761215261416a565b5b90600052602060002090600502016004019080519060200190612177929190613142565b50826001828154811061218d5761218c61416a565b5b906000526020600020906005020160030160016101000a81548160ff021916908360028111156121c0576121bf61361b565b5b02179055505061221f565b600060ff16811415612212576040517f08c379a00000000000000000000000000000000000000000000000000000000081526004016122099061474c565b60405180910390fd5b61221d8184846125f6565b505b50505050565b600063f23a6e6160e01b905095945050505050565b60005b82518161ffff16101561241e576000838261ffff16815181106122635761226261416a565b5b60200260200101519050600060ff168114156122b4576040517f08c379a00000000000000000000000000000000000000000000000000000000081526004016122ab9061414a565b60405180910390fd5b612350600182815481106122cb576122ca61416a565b5b906000526020600020906005020160000160009054906101000a900473ffffffffffffffffffffffffffffffffffffffff16600183815481106123115761231061416a565b5b906000526020600020906005020160010154600184815481106123375761233661416a565b5b9060005260206000209060050201600201543087612423565b5061240a8160026001848154811061236b5761236a61416a565b5b906000526020600020906005020160040180546123879061408a565b80601f01602080910402602001604051908101604052809291908181526020018280546123b39061408a565b80156124005780601f106123d557610100808354040283529160200191612400565b820191906000526020600020905b8154815290600101906020018083116123e357829003601f168201915b50505050506125f6565b50808061241690614489565b91505061223d565b505050565b60008073ffffffffffffffffffffffffffffffffffffffff168273ffffffffffffffffffffffffffffffffffffffff161415612494576040517f08c379a000000000000000000000000000000000000000000000000000000000815260040161248b906147de565b60405180910390fd5b6124a58663d9b67a2660e01b612e9f565b15612524578573ffffffffffffffffffffffffffffffffffffffff1663f242432a848488886040518563ffffffff1660e01b81526004016124e99493929190614835565b600060405180830381600087803b15801561250357600080fd5b505af1158015612517573d6000803e3d6000fd5b50505050600190506125ed565b612535866380ac58cd60e01b612e9f565b156125b2578573ffffffffffffffffffffffffffffffffffffffff166342842e0e8484886040518463ffffffff1660e01b81526004016125779392919061488d565b600060405180830381600087803b15801561259157600080fd5b505af11580156125a5573d6000803e3d6000fd5b50505050600090506125ed565b6040517f08c379a00000000000000000000000000000000000000000000000000000000081526004016125e490614910565b60405180910390fd5b95945050505050565b60006001848154811061260c5761260b61416a565b5b906000526020600020906005020160030160019054906101000a900460ff16905081600185815481106126425761264161416a565b5b90600052602060002090600502016004019080519060200190612666929190613142565b50826001858154811061267c5761267b61416a565b5b906000526020600020906005020160030160016101000a81548160ff021916908360028111156126af576126ae61361b565b5b0217905550600060028111156126c8576126c761361b565b5b8160028111156126db576126da61361b565b5b14801561270c5750600060028111156126f7576126f661361b565b5b83600281111561270a5761270961361b565b5b145b15612717575061278f565b6000600281111561272b5761272a61361b565b5b81600281111561273e5761273d61361b565b5b1415801561277057506000600281111561275b5761275a61361b565b5b83600281111561276e5761276d61361b565b5b145b156127835761277e84612ec4565b61278d565b61278c84612ef0565b5b505b505050565b600060028111156127a8576127a761361b565b5b6127b0611e0d565b60028111156127c2576127c161361b565b5b14612802576040517f08c379a00000000000000000000000000000000000000000000000000000000081526004016127f99061497c565b60405180910390fd5b60005b84518161ffff161015612e9857600061287b868361ffff168151811061282e5761282d61416a565b5b6020026020010151868461ffff168151811061284d5761284c61416a565b5b6020026020010151868561ffff168151811061286c5761286b61416a565b5b60200260200101518630612423565b9050600060036000888561ffff168151811061289a5761289961416a565b5b602002602001015173ffffffffffffffffffffffffffffffffffffffff1673ffffffffffffffffffffffffffffffffffffffff1681526020019081526020016000206000878561ffff16815181106128f5576128f461416a565b5b60200260200101518152602001908152602001600020549050600160028111156129225761292161361b565b5b600182815481106129365761293561416a565b5b906000526020600020906005020160030160019054906101000a900460ff1660028111156129675761296661361b565b5b14156129a8576040517f08c379a000000000000000000000000000000000000000000000000000000000815260040161299f9061497c565b60405180910390fd5b600060ff168114158015612a125750600060028111156129cb576129ca61361b565b5b600182815481106129df576129de61416a565b5b906000526020600020906005020160030160019054906101000a900460ff166002811115612a1057612a0f61361b565b5b145b15612bcc57868361ffff1681518110612a2e57612a2d61416a565b5b602002602001015173ffffffffffffffffffffffffffffffffffffffff1660018281548110612a6057612a5f61416a565b5b906000526020600020906005020160000160009054906101000a900473ffffffffffffffffffffffffffffffffffffffff1673ffffffffffffffffffffffffffffffffffffffff1614612ae8576040517f08c379a0000000000000000000000000000000000000000000000000000000008152600401612adf906149e8565b60405180910390fd5b858361ffff1681518110612aff57612afe61416a565b5b602002602001015160018281548110612b1b57612b1a61416a565b5b90600052602060002090600502016001015414612b6d576040517f08c379a0000000000000000000000000000000000000000000000000000000008152600401612b6490614a54565b60405180910390fd5b848361ffff1681518110612b8457612b8361416a565b5b602002602001015160018281548110612ba057612b9f61416a565b5b90600052602060002090600502016002016000828254612bc09190614a74565b92505081905550612e83565b60016040518060c00160405280898661ffff1681518110612bf057612bef61416a565b5b602002602001015173ffffffffffffffffffffffffffffffffffffffff168152602001888661ffff1681518110612c2a57612c2961416a565b5b60200260200101518152602001878661ffff1681518110612c4e57612c4d61416a565b5b60200260200101518152602001846002811115612c6e57612c6d61361b565b5b815260200160006002811115612c8757612c8661361b565b5b81526020016040518060400160405280600481526020017f6e6f6e6500000000000000000000000000000000000000000000000000000000815250815250908060018154018082558091505060019003906000526020600020906005020160009091909190915060008201518160000160006101000a81548173ffffffffffffffffffffffffffffffffffffffff021916908373ffffffffffffffffffffffffffffffffffffffff160217905550602082015181600101556040820151816002015560608201518160030160006101000a81548160ff02191690836002811115612d7457612d7361361b565b5b021790555060808201518160030160016101000a81548160ff02191690836002811115612da457612da361361b565b5b021790555060a0820151816004019080519060200190612dc5929190613142565b50505060018080549050612dd99190614660565b60036000898661ffff1681518110612df457612df361416a565b5b602002602001015173ffffffffffffffffffffffffffffffffffffffff1673ffffffffffffffffffffffffffffffffffffffff1681526020019081526020016000206000888661ffff1681518110612e4f57612e4e61416a565b5b6020026020010151815260200190815260200160002081905550612e8260018080549050612e7d9190614660565b612ec4565b5b50508080612e9090614489565b915050612805565b5050505050565b6000612eaa83612fca565b8015612ebc5750612ebb8383613017565b5b905092915050565b600281908060018154018082558091505060019003906000526020600020016000909190919091505550565b60005b6002805490508163ffffffff161015612fc6578160028263ffffffff1681548110612f2157612f2061416a565b5b90600052602060002001541415612fb35760026001600280549050612f469190614660565b81548110612f5757612f5661416a565b5b906000526020600020015460028263ffffffff1681548110612f7c57612f7b61416a565b5b90600052602060002001819055506002805480612f9c57612f9b614aca565b5b600190038181906000526020600020016000905590555b8080612fbe90614b09565b915050612ef3565b5050565b6000612ff6827f01ffc9a700000000000000000000000000000000000000000000000000000000613017565b8015613010575061300e8263ffffffff60e01b613017565b155b9050919050565b6000806301ffc9a760e01b8360405160240161303391906135b5565b604051602081830303815290604052907bffffffffffffffffffffffffffffffffffffffffffffffffffffffff19166020820180517bffffffffffffffffffffffffffffffffffffffffffffffffffffffff838183161783525050505090506000808573ffffffffffffffffffffffffffffffffffffffff16617530846040516130bd9190614b7d565b6000604051808303818686fa925050503d80600081146130f9576040519150601f19603f3d011682016040523d82523d6000602084013e6130fe565b606091505b5091509150602081511015613119576000935050505061313c565b8180156131365750808060200190518101906131359190613fc2565b5b93505050505b92915050565b82805461314e9061408a565b90600052602060002090601f01602090048101928261317057600085556131b7565b82601f1061318957805160ff19168380011785556131b7565b828001600101855582156131b7579182015b828111156131b657825182559160200191906001019061319b565b5b5090506131c491906131c8565b5090565b5b808211156131e15760008160009055506001016131c9565b5090565b6000604051905090565b600080fd5b600080fd5b600080fd5b6000601f19601f8301169050919050565b7f4e487b7100000000000000000000000000000000000000000000000000000000600052604160045260246000fd5b613247826131fe565b810181811067ffffffffffffffff821117156132665761326561320f565b5b80604052505050565b60006132796131e5565b9050613285828261323e565b919050565b600067ffffffffffffffff8211156132a5576132a461320f565b5b602082029050602081019050919050565b600080fd5b6000819050919050565b6132ce816132bb565b81146132d957600080fd5b50565b6000813590506132eb816132c5565b92915050565b60006133046132ff8461328a565b61326f565b90508083825260208201905060208402830185811115613327576133266132b6565b5b835b81811015613350578061333c88826132dc565b845260208401935050602081019050613329565b5050509392505050565b600082601f83011261336f5761336e6131f9565b5b813561337f8482602086016132f1565b91505092915050565b600073ffffffffffffffffffffffffffffffffffffffff82169050919050565b60006133b382613388565b9050919050565b6133c3816133a8565b81146133ce57600080fd5b50565b6000813590506133e0816133ba565b92915050565b600080604083850312156133fd576133fc6131ef565b5b600083013567ffffffffffffffff81111561341b5761341a6131f4565b5b6134278582860161335a565b9250506020613438858286016133d1565b9150509250929050565b600080fd5b600067ffffffffffffffff8211156134625761346161320f565b5b61346b826131fe565b9050602081019050919050565b82818337600083830152505050565b600061349a61349584613447565b61326f565b9050828152602081018484840111156134b6576134b5613442565b5b6134c1848285613478565b509392505050565b600082601f8301126134de576134dd6131f9565b5b81356134ee848260208601613487565b91505092915050565b60008060008060808587031215613511576135106131ef565b5b600061351f878288016133d1565b9450506020613530878288016133d1565b9350506040613541878288016132dc565b925050606085013567ffffffffffffffff811115613562576135616131f4565b5b61356e878288016134c9565b91505092959194509250565b60007fffffffff0000000000000000000000000000000000000000000000000000000082169050919050565b6135af8161357a565b82525050565b60006020820190506135ca60008301846135a6565b92915050565b6000602082840312156135e6576135e56131ef565b5b60006135f4848285016132dc565b91505092915050565b613606816133a8565b82525050565b613615816132bb565b82525050565b7f4e487b7100000000000000000000000000000000000000000000000000000000600052602160045260246000fd5b6003811061365b5761365a61361b565b5b50565b600081905061366c8261364a565b919050565b600061367c8261365e565b9050919050565b61368c81613671565b82525050565b600381106136a3576136a261361b565b5b50565b60008190506136b482613692565b919050565b60006136c4826136a6565b9050919050565b6136d4816136b9565b82525050565b600081519050919050565b600082825260208201905092915050565b60005b838110156137145780820151818401526020810190506136f9565b83811115613723576000848401525b50505050565b6000613734826136da565b61373e81856136e5565b935061374e8185602086016136f6565b613757816131fe565b840191505092915050565b600060c08201905061377760008301896135fd565b613784602083018861360c565b613791604083018761360c565b61379e6060830186613683565b6137ab60808301856136cb565b81810360a08301526137bd8184613729565b9050979650505050505050565b60006020820190506137df600083018461360c565b92915050565b60008115159050919050565b6137fa816137e5565b82525050565b600060208201905061381560008301846137f1565b92915050565b6000819050919050565b600061384061383b61383684613388565b61381b565b613388565b9050919050565b600061385282613825565b9050919050565b600061386482613847565b9050919050565b61387481613859565b82525050565b600060208201905061388f600083018461386b565b92915050565b60006020820190506138aa60008301846135fd565b92915050565b600080604083850312156138c7576138c66131ef565b5b60006138d5858286016133d1565b92505060206138e6858286016132dc565b9150509250929050565b6000602082019050818103600083015261390a8184613729565b905092915050565b600081519050919050565b600082825260208201905092915050565b6000819050602082019050919050565b613947816132bb565b82525050565b6000613959838361393e565b60208301905092915050565b6000602082019050919050565b600061397d82613912565b613987818561391d565b93506139928361392e565b8060005b838110156139c35781516139aa888261394d565b97506139b583613965565b925050600181019050613996565b5085935050505092915050565b600060208201905081810360008301526139ea8184613972565b905092915050565b60006139fd82613388565b9050919050565b613a0d816139f2565b8114613a1857600080fd5b50565b600081359050613a2a81613a04565b92915050565b60008060408385031215613a4757613a466131ef565b5b6000613a5585828601613a1b565b9250506020613a66858286016132dc565b9150509250929050565b600080600060608486031215613a8957613a886131ef565b5b6000613a97868287016133d1565b9350506020613aa8868287016133d1565b9250506040613ab9868287016132dc565b9150509250925092565b6000602082019050613ad860008301846136cb565b92915050565b600080600080600060a08688031215613afa57613af96131ef565b5b6000613b08888289016133d1565b9550506020613b19888289016133d1565b945050604086013567ffffffffffffffff811115613b3a57613b396131f4565b5b613b468882890161335a565b935050606086013567ffffffffffffffff811115613b6757613b666131f4565b5b613b738882890161335a565b925050608086013567ffffffffffffffff811115613b9457613b936131f4565b5b613ba0888289016134c9565b9150509295509295909350565b600067ffffffffffffffff821115613bc857613bc761320f565b5b602082029050602081019050919050565b6000613bec613be784613bad565b61326f565b90508083825260208201905060208402830185811115613c0f57613c0e6132b6565b5b835b81811015613c385780613c2488826133d1565b845260208401935050602081019050613c11565b5050509392505050565b600082601f830112613c5757613c566131f9565b5b8135613c67848260208601613bd9565b91505092915050565b600080600060608486031215613c8957613c886131ef565b5b600084013567ffffffffffffffff811115613ca757613ca66131f4565b5b613cb386828701613c42565b935050602084013567ffffffffffffffff811115613cd457613cd36131f4565b5b613ce08682870161335a565b9250506040613cf1868287016133d1565b9150509250925092565b60008060008060808587031215613d1557613d146131ef565b5b600085013567ffffffffffffffff811115613d3357613d326131f4565b5b613d3f87828801613c42565b945050602085013567ffffffffffffffff811115613d6057613d5f6131f4565b5b613d6c8782880161335a565b935050604085013567ffffffffffffffff811115613d8d57613d8c6131f4565b5b613d998782880161335a565b9250506060613daa878288016133d1565b91505092959194509250565b60038110613dc357600080fd5b50565b600081359050613dd581613db6565b92915050565b600067ffffffffffffffff821115613df657613df561320f565b5b613dff826131fe565b9050602081019050919050565b6000613e1f613e1a84613ddb565b61326f565b905082815260208101848484011115613e3b57613e3a613442565b5b613e46848285613478565b509392505050565b600082601f830112613e6357613e626131f9565b5b8135613e73848260208601613e0c565b91505092915050565b60008060008060808587031215613e9657613e956131ef565b5b6000613ea4878288016133d1565b9450506020613eb5878288016132dc565b9350506040613ec687828801613dc6565b925050606085013567ffffffffffffffff811115613ee757613ee66131f4565b5b613ef387828801613e4e565b91505092959194509250565b600080600080600060a08688031215613f1b57613f1a6131ef565b5b6000613f29888289016133d1565b9550506020613f3a888289016133d1565b9450506040613f4b888289016132dc565b9350506060613f5c888289016132dc565b925050608086013567ffffffffffffffff811115613f7d57613f7c6131f4565b5b613f89888289016134c9565b9150509295509295909350565b613f9f816137e5565b8114613faa57600080fd5b50565b600081519050613fbc81613f96565b92915050565b600060208284031215613fd857613fd76131ef565b5b6000613fe684828501613fad565b91505092915050565b7f77686974654c697374203a3a204164647265737320636865636b206572726f72600082015250565b60006140256020836136e5565b915061403082613fef565b602082019050919050565b6000602082019050818103600083015261405481614018565b9050919050565b7f4e487b7100000000000000000000000000000000000000000000000000000000600052602260045260246000fd5b600060028204905060018216806140a257607f821691505b602082108114156140b6576140b561405b565b5b50919050565b6000815190506140cb816133ba565b92915050565b6000602082840312156140e7576140e66131ef565b5b60006140f5848285016140bc565b91505092915050565b7f5661756c74203a3a204e465420646f6573206e6f742065786973740000000000600082015250565b6000614134601b836136e5565b915061413f826140fe565b602082019050919050565b6000602082019050818103600083015261416381614127565b9050919050565b7f4e487b7100000000000000000000000000000000000000000000000000000000600052603260045260246000fd5b7f73656e64455448203a3a2043616e6e6f74207472616e7366657220746f207a6560008201527f726f206164647265737300000000000000000000000000000000000000000000602082015250565b60006141f5602a836136e5565b915061420082614199565b604082019050919050565b60006020820190508181036000830152614224816141e8565b9050919050565b7f696e697469616c697a65203a3a20416c726561647920696e697469616c697a6560008201527f6400000000000000000000000000000000000000000000000000000000000000602082015250565b60006142876021836136e5565b91506142928261422b565b604082019050919050565b600060208201905081810360008301526142b68161427a565b9050919050565b7f73656e644552433230203a3a2043616e6e6f74207472616e7366657220746f2060008201527f7a65726f20616464726573730000000000000000000000000000000000000000602082015250565b6000614319602c836136e5565b9150614324826142bd565b604082019050919050565b600060208201905081810360008301526143488161430c565b9050919050565b600060408201905061436460008301856135fd565b614371602083018461360c565b9392505050565b7f73656e6457455448203a3a2043616e6e6f74207472616e7366657220746f207a60008201527f65726f2061646472657373000000000000000000000000000000000000000000602082015250565b60006143d4602b836136e5565b91506143df82614378565b604082019050919050565b60006020820190508181036000830152614403816143c7565b9050919050565b600081519050614419816132c5565b92915050565b600060208284031215614435576144346131ef565b5b60006144438482850161440a565b91505092915050565b7f4e487b7100000000000000000000000000000000000000000000000000000000600052601160045260246000fd5b600061ffff82169050919050565b60006144948261447b565b915061ffff8214156144a9576144a861444c565b5b600182019050919050565b7f72656465656d203a3a20546865206e756d626572206f6620667261676d656e7460008201527f73206973207a65726f0000000000000000000000000000000000000000000000602082015250565b60006145106029836136e5565b915061451b826144b4565b604082019050919050565b6000602082019050818103600083015261453f81614503565b9050919050565b7f72656465656d203a3a204e465420646f6573206e6f7420657869737400000000600082015250565b600061457c601c836136e5565b915061458782614546565b602082019050919050565b600060208201905081810360008301526145ab8161456f565b9050919050565b7f72656465656d203a3a20556e61626c6520746f2072656d656479000000000000600082015250565b60006145e8601a836136e5565b91506145f3826145b2565b602082019050919050565b60006020820190508181036000830152614617816145db565b9050919050565b60008151905061462d81613a04565b92915050565b600060208284031215614649576146486131ef565b5b60006146578482850161461e565b91505092915050565b600061466b826132bb565b9150614676836132bb565b9250828210156146895761468861444c565b5b828203905092915050565b7f72656465656d203a3a204e6f7420656e6f75676820746f206275726e00000000600082015250565b60006146ca601c836136e5565b91506146d582614694565b602082019050919050565b600060208201905081810360008301526146f9816146bd565b9050919050565b7f5661756c743a3a204e465420646f6573206e6f74206578697374000000000000600082015250565b6000614736601a836136e5565b915061474182614700565b602082019050919050565b6000602082019050818103600083015261476581614729565b9050919050565b7f73656e644e4654203a3a2043616e6e6f74207472616e7366657220746f207a6560008201527f726f206164647265737300000000000000000000000000000000000000000000602082015250565b60006147c8602a836136e5565b91506147d38261476c565b604082019050919050565b600060208201905081810360008301526147f7816147bb565b9050919050565b600082825260208201905092915050565b50565b600061481f6000836147fe565b915061482a8261480f565b600082019050919050565b600060a08201905061484a60008301876135fd565b61485760208301866135fd565b614864604083018561360c565b614871606083018461360c565b818103608083015261488281614812565b905095945050505050565b60006060820190506148a260008301866135fd565b6148af60208301856135fd565b6148bc604083018461360c565b949350505050565b7f5661756c74203a3a20496e636f7272656374204e465420616464726573730000600082015250565b60006148fa601e836136e5565b9150614905826148c4565b602082019050919050565b60006020820190508181036000830152614929816148ed565b9050919050565b7f5661756c74203a3a20496e636f7272656374207661756c742073746174650000600082015250565b6000614966601e836136e5565b915061497182614930565b602082019050919050565b6000602082019050818103600083015261499581614959565b9050919050565b7f5661756c743a3a20496e636f7272656374204e46542020616464726573730000600082015250565b60006149d2601e836136e5565b91506149dd8261499c565b602082019050919050565b60006020820190508181036000830152614a01816149c5565b9050919050565b7f5661756c743a3a20496e636f7272656374204e46542049640000000000000000600082015250565b6000614a3e6018836136e5565b9150614a4982614a08565b602082019050919050565b60006020820190508181036000830152614a6d81614a31565b9050919050565b6000614a7f826132bb565b9150614a8a836132bb565b9250827fffffffffffffffffffffffffffffffffffffffffffffffffffffffffffffffff03821115614abf57614abe61444c565b5b828201905092915050565b7f4e487b7100000000000000000000000000000000000000000000000000000000600052603160045260246000fd5b600063ffffffff82169050919050565b6000614b1482614af9565b915063ffffffff821415614b2b57614b2a61444c565b5b600182019050919050565b600081519050919050565b600081905092915050565b6000614b5782614b36565b614b618185614b41565b9350614b718185602086016136f6565b80840191505092915050565b6000614b898284614b4c565b91508190509291505056fea26469706673582212208771852f81272cd3ceeffc9a37d6d1f019357e6f8fdf194797197da05e13659164736f6c634300080a0033",
					"opcodes": "PUSH1 0x80 PUSH1 0x40 MSTORE CALLVALUE DUP1 ISZERO PUSH2 0x10 JUMPI PUSH1 0x0 DUP1 REVERT JUMPDEST POP PUSH2 0x4BCA DUP1 PUSH2 0x20 PUSH1 0x0 CODECOPY PUSH1 0x0 RETURN INVALID PUSH1 0x80 PUSH1 0x40 MSTORE CALLVALUE DUP1 ISZERO PUSH2 0x10 JUMPI PUSH1 0x0 DUP1 REVERT JUMPDEST POP PUSH1 0x4 CALLDATASIZE LT PUSH2 0x18D JUMPI PUSH1 0x0 CALLDATALOAD PUSH1 0xE0 SHR DUP1 PUSH4 0x8F975A64 GT PUSH2 0xDE JUMPI DUP1 PUSH4 0xBDF83F87 GT PUSH2 0x97 JUMPI DUP1 PUSH4 0xD58BFA9D GT PUSH2 0x71 JUMPI DUP1 PUSH4 0xD58BFA9D EQ PUSH2 0x463 JUMPI DUP1 PUSH4 0xE2019AB3 EQ PUSH2 0x481 JUMPI DUP1 PUSH4 0xE77AE39B EQ PUSH2 0x49D JUMPI DUP1 PUSH4 0xF23A6E61 EQ PUSH2 0x4B9 JUMPI PUSH2 0x18D JUMP JUMPDEST DUP1 PUSH4 0xBDF83F87 EQ PUSH2 0x40D JUMPI DUP1 PUSH4 0xBE040FB0 EQ PUSH2 0x429 JUMPI DUP1 PUSH4 0xC2880715 EQ PUSH2 0x433 JUMPI PUSH2 0x18D JUMP JUMPDEST DUP1 PUSH4 0x8F975A64 EQ PUSH2 0x339 JUMPI DUP1 PUSH4 0x9CE110D7 EQ PUSH2 0x355 JUMPI DUP1 PUSH4 0xA82E02F0 EQ PUSH2 0x373 JUMPI DUP1 PUSH4 0xAD5C4648 EQ PUSH2 0x38F JUMPI DUP1 PUSH4 0xAF9A82B2 EQ PUSH2 0x3AD JUMPI DUP1 PUSH4 0xBC197C81 EQ PUSH2 0x3DD JUMPI PUSH2 0x18D JUMP JUMPDEST DUP1 PUSH4 0x4F72D846 GT PUSH2 0x14B JUMPI DUP1 PUSH4 0x5CCB53DF GT PUSH2 0x125 JUMPI DUP1 PUSH4 0x5CCB53DF EQ PUSH2 0x2D7 JUMPI DUP1 PUSH4 0x634F6319 EQ PUSH2 0x2F5 JUMPI DUP1 PUSH4 0x64A197F3 EQ PUSH2 0x313 JUMPI DUP1 PUSH4 0x8129FC1C EQ PUSH2 0x32F JUMPI PUSH2 0x18D JUMP JUMPDEST DUP1 PUSH4 0x4F72D846 EQ PUSH2 0x26B JUMPI DUP1 PUSH4 0x54F0970C EQ PUSH2 0x289 JUMPI DUP1 PUSH4 0x5B093B13 EQ PUSH2 0x2A7 JUMPI PUSH2 0x18D JUMP JUMPDEST DUP1 PUSH3 0x94C5F3 EQ PUSH2 0x192 JUMPI DUP1 PUSH4 0x1370C6A9 EQ PUSH2 0x1AE JUMPI DUP1 PUSH4 0x150B7A02 EQ PUSH2 0x1B8 JUMPI DUP1 PUSH4 0x265AA621 EQ PUSH2 0x1E8 JUMPI DUP1 PUSH4 0x2D1D53F7 EQ PUSH2 0x21D JUMPI DUP1 PUSH4 0x2D7ECD11 EQ PUSH2 0x24D JUMPI JUMPDEST PUSH1 0x0 DUP1 REVERT JUMPDEST PUSH2 0x1AC PUSH1 0x4 DUP1 CALLDATASIZE SUB DUP2 ADD SWAP1 PUSH2 0x1A7 SWAP2 SWAP1 PUSH2 0x33E6 JUMP JUMPDEST PUSH2 0x4E9 JUMP JUMPDEST STOP JUMPDEST PUSH2 0x1B6 PUSH2 0x5D0 JUMP JUMPDEST STOP JUMPDEST PUSH2 0x1D2 PUSH1 0x4 DUP1 CALLDATASIZE SUB DUP2 ADD SWAP1 PUSH2 0x1CD SWAP2 SWAP1 PUSH2 0x34F7 JUMP JUMPDEST PUSH2 0x6C6 JUMP JUMPDEST PUSH1 0x40 MLOAD PUSH2 0x1DF SWAP2 SWAP1 PUSH2 0x35B5 JUMP JUMPDEST PUSH1 0x40 MLOAD DUP1 SWAP2 SUB SWAP1 RETURN JUMPDEST PUSH2 0x202 PUSH1 0x4 DUP1 CALLDATASIZE SUB DUP2 ADD SWAP1 PUSH2 0x1FD SWAP2 SWAP1 PUSH2 0x35D0 JUMP JUMPDEST PUSH2 0x6DA JUMP JUMPDEST PUSH1 0x40 MLOAD PUSH2 0x214 SWAP7 SWAP6 SWAP5 SWAP4 SWAP3 SWAP2 SWAP1 PUSH2 0x3762 JUMP JUMPDEST PUSH1 0x40 MLOAD DUP1 SWAP2 SUB SWAP1 RETURN JUMPDEST PUSH2 0x237 PUSH1 0x4 DUP1 CALLDATASIZE SUB DUP2 ADD SWAP1 PUSH2 0x232 SWAP2 SWAP1 PUSH2 0x35D0 JUMP JUMPDEST PUSH2 0x7E8 JUMP JUMPDEST PUSH1 0x40 MLOAD PUSH2 0x244 SWAP2 SWAP1 PUSH2 0x37CA JUMP JUMPDEST PUSH1 0x40 MLOAD DUP1 SWAP2 SUB SWAP1 RETURN JUMPDEST PUSH2 0x255 PUSH2 0x80C JUMP JUMPDEST PUSH1 0x40 MLOAD PUSH2 0x262 SWAP2 SWAP1 PUSH2 0x3800 JUMP JUMPDEST PUSH1 0x40 MLOAD DUP1 SWAP2 SUB SWAP1 RETURN JUMPDEST PUSH2 0x273 PUSH2 0x81F JUMP JUMPDEST PUSH1 0x40 MLOAD PUSH2 0x280 SWAP2 SWAP1 PUSH2 0x387A JUMP JUMPDEST PUSH1 0x40 MLOAD DUP1 SWAP2 SUB SWAP1 RETURN JUMPDEST PUSH2 0x291 PUSH2 0x843 JUMP JUMPDEST PUSH1 0x40 MLOAD PUSH2 0x29E SWAP2 SWAP1 PUSH2 0x3895 JUMP JUMPDEST PUSH1 0x40 MLOAD DUP1 SWAP2 SUB SWAP1 RETURN JUMPDEST PUSH2 0x2C1 PUSH1 0x4 DUP1 CALLDATASIZE SUB DUP2 ADD SWAP1 PUSH2 0x2BC SWAP2 SWAP1 PUSH2 0x38B0 JUMP JUMPDEST PUSH2 0x8DA JUMP JUMPDEST PUSH1 0x40 MLOAD PUSH2 0x2CE SWAP2 SWAP1 PUSH2 0x38F0 JUMP JUMPDEST PUSH1 0x40 MLOAD DUP1 SWAP2 SUB SWAP1 RETURN JUMPDEST PUSH2 0x2DF PUSH2 0xA2F JUMP JUMPDEST PUSH1 0x40 MLOAD PUSH2 0x2EC SWAP2 SWAP1 PUSH2 0x38F0 JUMP JUMPDEST PUSH1 0x40 MLOAD DUP1 SWAP2 SUB SWAP1 RETURN JUMPDEST PUSH2 0x2FD PUSH2 0xAE8 JUMP JUMPDEST PUSH1 0x40 MLOAD PUSH2 0x30A SWAP2 SWAP1 PUSH2 0x39D0 JUMP JUMPDEST PUSH1 0x40 MLOAD DUP1 SWAP2 SUB SWAP1 RETURN JUMPDEST PUSH2 0x32D PUSH1 0x4 DUP1 CALLDATASIZE SUB DUP2 ADD SWAP1 PUSH2 0x328 SWAP2 SWAP1 PUSH2 0x3A30 JUMP JUMPDEST PUSH2 0xB40 JUMP JUMPDEST STOP JUMPDEST PUSH2 0x337 PUSH2 0xCD4 JUMP JUMPDEST STOP JUMPDEST PUSH2 0x353 PUSH1 0x4 DUP1 CALLDATASIZE SUB DUP2 ADD SWAP1 PUSH2 0x34E SWAP2 SWAP1 PUSH2 0x3A70 JUMP JUMPDEST PUSH2 0xF50 JUMP JUMPDEST STOP JUMPDEST PUSH2 0x35D PUSH2 0x111D JUMP JUMPDEST PUSH1 0x40 MLOAD PUSH2 0x36A SWAP2 SWAP1 PUSH2 0x3800 JUMP JUMPDEST PUSH1 0x40 MLOAD DUP1 SWAP2 SUB SWAP1 RETURN JUMPDEST PUSH2 0x38D PUSH1 0x4 DUP1 CALLDATASIZE SUB DUP2 ADD SWAP1 PUSH2 0x388 SWAP2 SWAP1 PUSH2 0x38B0 JUMP JUMPDEST PUSH2 0x1130 JUMP JUMPDEST STOP JUMPDEST PUSH2 0x397 PUSH2 0x1412 JUMP JUMPDEST PUSH1 0x40 MLOAD PUSH2 0x3A4 SWAP2 SWAP1 PUSH2 0x3895 JUMP JUMPDEST PUSH1 0x40 MLOAD DUP1 SWAP2 SUB SWAP1 RETURN JUMPDEST PUSH2 0x3C7 PUSH1 0x4 DUP1 CALLDATASIZE SUB DUP2 ADD SWAP1 PUSH2 0x3C2 SWAP2 SWAP1 PUSH2 0x38B0 JUMP JUMPDEST PUSH2 0x142A JUMP JUMPDEST PUSH1 0x40 MLOAD PUSH2 0x3D4 SWAP2 SWAP1 PUSH2 0x3AC3 JUMP JUMPDEST PUSH1 0x40 MLOAD DUP1 SWAP2 SUB SWAP1 RETURN JUMPDEST PUSH2 0x3F7 PUSH1 0x4 DUP1 CALLDATASIZE SUB DUP2 ADD SWAP1 PUSH2 0x3F2 SWAP2 SWAP1 PUSH2 0x3ADE JUMP JUMPDEST PUSH2 0x1503 JUMP JUMPDEST PUSH1 0x40 MLOAD PUSH2 0x404 SWAP2 SWAP1 PUSH2 0x35B5 JUMP JUMPDEST PUSH1 0x40 MLOAD DUP1 SWAP2 SUB SWAP1 RETURN JUMPDEST PUSH2 0x427 PUSH1 0x4 DUP1 CALLDATASIZE SUB DUP2 ADD SWAP1 PUSH2 0x422 SWAP2 SWAP1 PUSH2 0x3C70 JUMP JUMPDEST PUSH2 0x1518 JUMP JUMPDEST STOP JUMPDEST PUSH2 0x431 PUSH2 0x181B JUMP JUMPDEST STOP JUMPDEST PUSH2 0x44D PUSH1 0x4 DUP1 CALLDATASIZE SUB DUP2 ADD SWAP1 PUSH2 0x448 SWAP2 SWAP1 PUSH2 0x38B0 JUMP JUMPDEST PUSH2 0x1DE8 JUMP JUMPDEST PUSH1 0x40 MLOAD PUSH2 0x45A SWAP2 SWAP1 PUSH2 0x37CA JUMP JUMPDEST PUSH1 0x40 MLOAD DUP1 SWAP2 SUB SWAP1 RETURN JUMPDEST PUSH2 0x46B PUSH2 0x1E0D JUMP JUMPDEST PUSH1 0x40 MLOAD PUSH2 0x478 SWAP2 SWAP1 PUSH2 0x3AC3 JUMP JUMPDEST PUSH1 0x40 MLOAD DUP1 SWAP2 SUB SWAP1 RETURN JUMPDEST PUSH2 0x49B PUSH1 0x4 DUP1 CALLDATASIZE SUB DUP2 ADD SWAP1 PUSH2 0x496 SWAP2 SWAP1 PUSH2 0x3CFB JUMP JUMPDEST PUSH2 0x1E4B JUMP JUMPDEST STOP JUMPDEST PUSH2 0x4B7 PUSH1 0x4 DUP1 CALLDATASIZE SUB DUP2 ADD SWAP1 PUSH2 0x4B2 SWAP2 SWAP1 PUSH2 0x3E7C JUMP JUMPDEST PUSH2 0x1F36 JUMP JUMPDEST STOP JUMPDEST PUSH2 0x4D3 PUSH1 0x4 DUP1 CALLDATASIZE SUB DUP2 ADD SWAP1 PUSH2 0x4CE SWAP2 SWAP1 PUSH2 0x3EFF JUMP JUMPDEST PUSH2 0x2225 JUMP JUMPDEST PUSH1 0x40 MLOAD PUSH2 0x4E0 SWAP2 SWAP1 PUSH2 0x35B5 JUMP JUMPDEST PUSH1 0x40 MLOAD DUP1 SWAP2 SUB SWAP1 RETURN JUMPDEST PUSH1 0x0 DUP1 SLOAD SWAP1 PUSH2 0x100 EXP SWAP1 DIV PUSH20 0xFFFFFFFFFFFFFFFFFFFFFFFFFFFFFFFFFFFFFFFF AND PUSH20 0xFFFFFFFFFFFFFFFFFFFFFFFFFFFFFFFFFFFFFFFF AND PUSH4 0x372C12B1 CALLER PUSH1 0x40 MLOAD DUP3 PUSH4 0xFFFFFFFF AND PUSH1 0xE0 SHL DUP2 MSTORE PUSH1 0x4 ADD PUSH2 0x542 SWAP2 SWAP1 PUSH2 0x3895 JUMP JUMPDEST PUSH1 0x20 PUSH1 0x40 MLOAD DUP1 DUP4 SUB DUP2 DUP7 GAS STATICCALL ISZERO DUP1 ISZERO PUSH2 0x55F JUMPI RETURNDATASIZE PUSH1 0x0 DUP1 RETURNDATACOPY RETURNDATASIZE PUSH1 0x0 REVERT JUMPDEST POP POP POP POP PUSH1 0x40 MLOAD RETURNDATASIZE PUSH1 0x1F NOT PUSH1 0x1F DUP3 ADD AND DUP3 ADD DUP1 PUSH1 0x40 MSTORE POP DUP2 ADD SWAP1 PUSH2 0x583 SWAP2 SWAP1 PUSH2 0x3FC2 JUMP JUMPDEST PUSH2 0x5C2 JUMPI PUSH1 0x40 MLOAD PUSH32 0x8C379A000000000000000000000000000000000000000000000000000000000 DUP2 MSTORE PUSH1 0x4 ADD PUSH2 0x5B9 SWAP1 PUSH2 0x403B JUMP JUMPDEST PUSH1 0x40 MLOAD DUP1 SWAP2 SUB SWAP1 REVERT JUMPDEST PUSH2 0x5CC DUP3 DUP3 PUSH2 0x223A JUMP JUMPDEST POP POP JUMP JUMPDEST PUSH1 0x0 DUP1 SLOAD SWAP1 PUSH2 0x100 EXP SWAP1 DIV PUSH20 0xFFFFFFFFFFFFFFFFFFFFFFFFFFFFFFFFFFFFFFFF AND PUSH20 0xFFFFFFFFFFFFFFFFFFFFFFFFFFFFFFFFFFFFFFFF AND PUSH4 0x372C12B1 CALLER PUSH1 0x40 MLOAD DUP3 PUSH4 0xFFFFFFFF AND PUSH1 0xE0 SHL DUP2 MSTORE PUSH1 0x4 ADD PUSH2 0x629 SWAP2 SWAP1 PUSH2 0x3895 JUMP JUMPDEST PUSH1 0x20 PUSH1 0x40 MLOAD DUP1 DUP4 SUB DUP2 DUP7 GAS STATICCALL ISZERO DUP1 ISZERO PUSH2 0x646 JUMPI RETURNDATASIZE PUSH1 0x0 DUP1 RETURNDATACOPY RETURNDATASIZE PUSH1 0x0 REVERT JUMPDEST POP POP POP POP PUSH1 0x40 MLOAD RETURNDATASIZE PUSH1 0x1F NOT PUSH1 0x1F DUP3 ADD AND DUP3 ADD DUP1 PUSH1 0x40 MSTORE POP DUP2 ADD SWAP1 PUSH2 0x66A SWAP2 SWAP1 PUSH2 0x3FC2 JUMP JUMPDEST PUSH2 0x6A9 JUMPI PUSH1 0x40 MLOAD PUSH32 0x8C379A000000000000000000000000000000000000000000000000000000000 DUP2 MSTORE PUSH1 0x4 ADD PUSH2 0x6A0 SWAP1 PUSH2 0x403B JUMP JUMPDEST PUSH1 0x40 MLOAD DUP1 SWAP2 SUB SWAP1 REVERT JUMPDEST PUSH1 0x0 PUSH1 0x4 PUSH1 0x0 PUSH2 0x100 EXP DUP2 SLOAD DUP2 PUSH1 0xFF MUL NOT AND SWAP1 DUP4 ISZERO ISZERO MUL OR SWAP1 SSTORE POP JUMP JUMPDEST PUSH1 0x0 PUSH4 0x150B7A02 PUSH1 0xE0 SHL SWAP1 POP SWAP5 SWAP4 POP POP POP POP JUMP JUMPDEST PUSH1 0x1 DUP2 DUP2 SLOAD DUP2 LT PUSH2 0x6EA JUMPI PUSH1 0x0 DUP1 REVERT JUMPDEST SWAP1 PUSH1 0x0 MSTORE PUSH1 0x20 PUSH1 0x0 KECCAK256 SWAP1 PUSH1 0x5 MUL ADD PUSH1 0x0 SWAP2 POP SWAP1 POP DUP1 PUSH1 0x0 ADD PUSH1 0x0 SWAP1 SLOAD SWAP1 PUSH2 0x100 EXP SWAP1 DIV PUSH20 0xFFFFFFFFFFFFFFFFFFFFFFFFFFFFFFFFFFFFFFFF AND SWAP1 DUP1 PUSH1 0x1 ADD SLOAD SWAP1 DUP1 PUSH1 0x2 ADD SLOAD SWAP1 DUP1 PUSH1 0x3 ADD PUSH1 0x0 SWAP1 SLOAD SWAP1 PUSH2 0x100 EXP SWAP1 DIV PUSH1 0xFF AND SWAP1 DUP1 PUSH1 0x3 ADD PUSH1 0x1 SWAP1 SLOAD SWAP1 PUSH2 0x100 EXP SWAP1 DIV PUSH1 0xFF AND SWAP1 DUP1 PUSH1 0x4 ADD DUP1 SLOAD PUSH2 0x765 SWAP1 PUSH2 0x408A JUMP JUMPDEST DUP1 PUSH1 0x1F ADD PUSH1 0x20 DUP1 SWAP2 DIV MUL PUSH1 0x20 ADD PUSH1 0x40 MLOAD SWAP1 DUP2 ADD PUSH1 0x40 MSTORE DUP1 SWAP3 SWAP2 SWAP1 DUP2 DUP2 MSTORE PUSH1 0x20 ADD DUP3 DUP1 SLOAD PUSH2 0x791 SWAP1 PUSH2 0x408A JUMP JUMPDEST DUP1 ISZERO PUSH2 0x7DE JUMPI DUP1 PUSH1 0x1F LT PUSH2 0x7B3 JUMPI PUSH2 0x100 DUP1 DUP4 SLOAD DIV MUL DUP4 MSTORE SWAP2 PUSH1 0x20 ADD SWAP2 PUSH2 0x7DE JUMP JUMPDEST DUP3 ADD SWAP2 SWAP1 PUSH1 0x0 MSTORE PUSH1 0x20 PUSH1 0x0 KECCAK256 SWAP1 JUMPDEST DUP2 SLOAD DUP2 MSTORE SWAP1 PUSH1 0x1 ADD SWAP1 PUSH1 0x20 ADD DUP1 DUP4 GT PUSH2 0x7C1 JUMPI DUP3 SWAP1 SUB PUSH1 0x1F AND DUP3 ADD SWAP2 JUMPDEST POP POP POP POP POP SWAP1 POP DUP7 JUMP JUMPDEST PUSH1 0x2 DUP2 DUP2 SLOAD DUP2 LT PUSH2 0x7F8 JUMPI PUSH1 0x0 DUP1 REVERT JUMPDEST SWAP1 PUSH1 0x0 MSTORE PUSH1 0x20 PUSH1 0x0 KECCAK256 ADD PUSH1 0x0 SWAP2 POP SWAP1 POP SLOAD DUP2 JUMP JUMPDEST PUSH1 0x4 PUSH1 0x0 SWAP1 SLOAD SWAP1 PUSH2 0x100 EXP SWAP1 DIV PUSH1 0xFF AND DUP2 JUMP JUMPDEST PUSH1 0x0 DUP1 SLOAD SWAP1 PUSH2 0x100 EXP SWAP1 DIV PUSH20 0xFFFFFFFFFFFFFFFFFFFFFFFFFFFFFFFFFFFFFFFF AND DUP2 JUMP JUMPDEST PUSH1 0x0 DUP1 PUSH1 0x0 SWAP1 SLOAD SWAP1 PUSH2 0x100 EXP SWAP1 DIV PUSH20 0xFFFFFFFFFFFFFFFFFFFFFFFFFFFFFFFFFFFFFFFF AND PUSH20 0xFFFFFFFFFFFFFFFFFFFFFFFFFFFFFFFFFFFFFFFF AND PUSH4 0x3205F5FC PUSH1 0x40 MLOAD DUP2 PUSH4 0xFFFFFFFF AND PUSH1 0xE0 SHL DUP2 MSTORE PUSH1 0x4 ADD PUSH1 0x20 PUSH1 0x40 MLOAD DUP1 DUP4 SUB DUP2 DUP7 GAS STATICCALL ISZERO DUP1 ISZERO PUSH2 0x8B1 JUMPI RETURNDATASIZE PUSH1 0x0 DUP1 RETURNDATACOPY RETURNDATASIZE PUSH1 0x0 REVERT JUMPDEST POP POP POP POP PUSH1 0x40 MLOAD RETURNDATASIZE PUSH1 0x1F NOT PUSH1 0x1F DUP3 ADD AND DUP3 ADD DUP1 PUSH1 0x40 MSTORE POP DUP2 ADD SWAP1 PUSH2 0x8D5 SWAP2 SWAP1 PUSH2 0x40D1 JUMP JUMPDEST SWAP1 POP SWAP1 JUMP JUMPDEST PUSH1 0x60 PUSH1 0x0 PUSH1 0x3 PUSH1 0x0 DUP6 PUSH20 0xFFFFFFFFFFFFFFFFFFFFFFFFFFFFFFFFFFFFFFFF AND PUSH20 0xFFFFFFFFFFFFFFFFFFFFFFFFFFFFFFFFFFFFFFFF AND DUP2 MSTORE PUSH1 0x20 ADD SWAP1 DUP2 MSTORE PUSH1 0x20 ADD PUSH1 0x0 KECCAK256 PUSH1 0x0 DUP5 DUP2 MSTORE PUSH1 0x20 ADD SWAP1 DUP2 MSTORE PUSH1 0x20 ADD PUSH1 0x0 KECCAK256 SLOAD SWAP1 POP PUSH1 0x0 PUSH1 0xFF AND DUP2 EQ ISZERO PUSH2 0x978 JUMPI PUSH1 0x40 MLOAD PUSH32 0x8C379A000000000000000000000000000000000000000000000000000000000 DUP2 MSTORE PUSH1 0x4 ADD PUSH2 0x96F SWAP1 PUSH2 0x414A JUMP JUMPDEST PUSH1 0x40 MLOAD DUP1 SWAP2 SUB SWAP1 REVERT JUMPDEST PUSH1 0x1 DUP2 DUP2 SLOAD DUP2 LT PUSH2 0x98C JUMPI PUSH2 0x98B PUSH2 0x416A JUMP JUMPDEST JUMPDEST SWAP1 PUSH1 0x0 MSTORE PUSH1 0x20 PUSH1 0x0 KECCAK256 SWAP1 PUSH1 0x5 MUL ADD PUSH1 0x4 ADD DUP1 SLOAD PUSH2 0x9A8 SWAP1 PUSH2 0x408A JUMP JUMPDEST DUP1 PUSH1 0x1F ADD PUSH1 0x20 DUP1 SWAP2 DIV MUL PUSH1 0x20 ADD PUSH1 0x40 MLOAD SWAP1 DUP2 ADD PUSH1 0x40 MSTORE DUP1 SWAP3 SWAP2 SWAP1 DUP2 DUP2 MSTORE PUSH1 0x20 ADD DUP3 DUP1 SLOAD PUSH2 0x9D4 SWAP1 PUSH2 0x408A JUMP JUMPDEST DUP1 ISZERO PUSH2 0xA21 JUMPI DUP1 PUSH1 0x1F LT PUSH2 0x9F6 JUMPI PUSH2 0x100 DUP1 DUP4 SLOAD DIV MUL DUP4 MSTORE SWAP2 PUSH1 0x20 ADD SWAP2 PUSH2 0xA21 JUMP JUMPDEST DUP3 ADD SWAP2 SWAP1 PUSH1 0x0 MSTORE PUSH1 0x20 PUSH1 0x0 KECCAK256 SWAP1 JUMPDEST DUP2 SLOAD DUP2 MSTORE SWAP1 PUSH1 0x1 ADD SWAP1 PUSH1 0x20 ADD DUP1 DUP4 GT PUSH2 0xA04 JUMPI DUP3 SWAP1 SUB PUSH1 0x1F AND DUP3 ADD SWAP2 JUMPDEST POP POP POP POP POP SWAP2 POP POP SWAP3 SWAP2 POP POP JUMP JUMPDEST PUSH1 0x60 PUSH1 0x1 PUSH1 0x0 PUSH1 0xFF AND DUP2 SLOAD DUP2 LT PUSH2 0xA49 JUMPI PUSH2 0xA48 PUSH2 0x416A JUMP JUMPDEST JUMPDEST SWAP1 PUSH1 0x0 MSTORE PUSH1 0x20 PUSH1 0x0 KECCAK256 SWAP1 PUSH1 0x5 MUL ADD PUSH1 0x4 ADD DUP1 SLOAD PUSH2 0xA65 SWAP1 PUSH2 0x408A JUMP JUMPDEST DUP1 PUSH1 0x1F ADD PUSH1 0x20 DUP1 SWAP2 DIV MUL PUSH1 0x20 ADD PUSH1 0x40 MLOAD SWAP1 DUP2 ADD PUSH1 0x40 MSTORE DUP1 SWAP3 SWAP2 SWAP1 DUP2 DUP2 MSTORE PUSH1 0x20 ADD DUP3 DUP1 SLOAD PUSH2 0xA91 SWAP1 PUSH2 0x408A JUMP JUMPDEST DUP1 ISZERO PUSH2 0xADE JUMPI DUP1 PUSH1 0x1F LT PUSH2 0xAB3 JUMPI PUSH2 0x100 DUP1 DUP4 SLOAD DIV MUL DUP4 MSTORE SWAP2 PUSH1 0x20 ADD SWAP2 PUSH2 0xADE JUMP JUMPDEST DUP3 ADD SWAP2 SWAP1 PUSH1 0x0 MSTORE PUSH1 0x20 PUSH1 0x0 KECCAK256 SWAP1 JUMPDEST DUP2 SLOAD DUP2 MSTORE SWAP1 PUSH1 0x1 ADD SWAP1 PUSH1 0x20 ADD DUP1 DUP4 GT PUSH2 0xAC1 JUMPI DUP3 SWAP1 SUB PUSH1 0x1F AND DUP3 ADD SWAP2 JUMPDEST POP POP POP POP POP SWAP1 POP SWAP1 JUMP JUMPDEST PUSH1 0x60 PUSH1 0x2 DUP1 SLOAD DUP1 PUSH1 0x20 MUL PUSH1 0x20 ADD PUSH1 0x40 MLOAD SWAP1 DUP2 ADD PUSH1 0x40 MSTORE DUP1 SWAP3 SWAP2 SWAP1 DUP2 DUP2 MSTORE PUSH1 0x20 ADD DUP3 DUP1 SLOAD DUP1 ISZERO PUSH2 0xB36 JUMPI PUSH1 0x20 MUL DUP3 ADD SWAP2 SWAP1 PUSH1 0x0 MSTORE PUSH1 0x20 PUSH1 0x0 KECCAK256 SWAP1 JUMPDEST DUP2 SLOAD DUP2 MSTORE PUSH1 0x20 ADD SWAP1 PUSH1 0x1 ADD SWAP1 DUP1 DUP4 GT PUSH2 0xB22 JUMPI JUMPDEST POP POP POP POP POP SWAP1 POP SWAP1 JUMP JUMPDEST PUSH1 0x0 DUP1 SLOAD SWAP1 PUSH2 0x100 EXP SWAP1 DIV PUSH20 0xFFFFFFFFFFFFFFFFFFFFFFFFFFFFFFFFFFFFFFFF AND PUSH20 0xFFFFFFFFFFFFFFFFFFFFFFFFFFFFFFFFFFFFFFFF AND PUSH4 0x372C12B1 CALLER PUSH1 0x40 MLOAD DUP3 PUSH4 0xFFFFFFFF AND PUSH1 0xE0 SHL DUP2 MSTORE PUSH1 0x4 ADD PUSH2 0xB99 SWAP2 SWAP1 PUSH2 0x3895 JUMP JUMPDEST PUSH1 0x20 PUSH1 0x40 MLOAD DUP1 DUP4 SUB DUP2 DUP7 GAS STATICCALL ISZERO DUP1 ISZERO PUSH2 0xBB6 JUMPI RETURNDATASIZE PUSH1 0x0 DUP1 RETURNDATACOPY RETURNDATASIZE PUSH1 0x0 REVERT JUMPDEST POP POP POP POP PUSH1 0x40 MLOAD RETURNDATASIZE PUSH1 0x1F NOT PUSH1 0x1F DUP3 ADD AND DUP3 ADD DUP1 PUSH1 0x40 MSTORE POP DUP2 ADD SWAP1 PUSH2 0xBDA SWAP2 SWAP1 PUSH2 0x3FC2 JUMP JUMPDEST PUSH2 0xC19 JUMPI PUSH1 0x40 MLOAD PUSH32 0x8C379A000000000000000000000000000000000000000000000000000000000 DUP2 MSTORE PUSH1 0x4 ADD PUSH2 0xC10 SWAP1 PUSH2 0x403B JUMP JUMPDEST PUSH1 0x40 MLOAD DUP1 SWAP2 SUB SWAP1 REVERT JUMPDEST PUSH1 0x0 PUSH20 0xFFFFFFFFFFFFFFFFFFFFFFFFFFFFFFFFFFFFFFFF AND DUP3 PUSH20 0xFFFFFFFFFFFFFFFFFFFFFFFFFFFFFFFFFFFFFFFF AND EQ ISZERO PUSH2 0xC89 JUMPI PUSH1 0x40 MLOAD PUSH32 0x8C379A000000000000000000000000000000000000000000000000000000000 DUP2 MSTORE PUSH1 0x4 ADD PUSH2 0xC80 SWAP1 PUSH2 0x420B JUMP JUMPDEST PUSH1 0x40 MLOAD DUP1 SWAP2 SUB SWAP1 REVERT JUMPDEST DUP2 PUSH20 0xFFFFFFFFFFFFFFFFFFFFFFFFFFFFFFFFFFFFFFFF AND PUSH2 0x8FC DUP3 SWAP1 DUP2 ISZERO MUL SWAP1 PUSH1 0x40 MLOAD PUSH1 0x0 PUSH1 0x40 MLOAD DUP1 DUP4 SUB DUP2 DUP6 DUP9 DUP9 CALL SWAP4 POP POP POP POP ISZERO DUP1 ISZERO PUSH2 0xCCF JUMPI RETURNDATASIZE PUSH1 0x0 DUP1 RETURNDATACOPY RETURNDATASIZE PUSH1 0x0 REVERT JUMPDEST POP POP POP JUMP JUMPDEST PUSH1 0x4 PUSH1 0x1 SWAP1 SLOAD SWAP1 PUSH2 0x100 EXP SWAP1 DIV PUSH1 0xFF AND ISZERO PUSH2 0xD24 JUMPI PUSH1 0x40 MLOAD PUSH32 0x8C379A000000000000000000000000000000000000000000000000000000000 DUP2 MSTORE PUSH1 0x4 ADD PUSH2 0xD1B SWAP1 PUSH2 0x429D JUMP JUMPDEST PUSH1 0x40 MLOAD DUP1 SWAP2 SUB SWAP1 REVERT JUMPDEST PUSH1 0x4 PUSH1 0x1 SWAP1 SLOAD SWAP1 PUSH2 0x100 EXP SWAP1 DIV PUSH1 0xFF AND ISZERO PUSH1 0x4 PUSH1 0x1 PUSH2 0x100 EXP DUP2 SLOAD DUP2 PUSH1 0xFF MUL NOT AND SWAP1 DUP4 ISZERO ISZERO MUL OR SWAP1 SSTORE POP CALLER PUSH1 0x0 DUP1 PUSH2 0x100 EXP DUP2 SLOAD DUP2 PUSH20 0xFFFFFFFFFFFFFFFFFFFFFFFFFFFFFFFFFFFFFFFF MUL NOT AND SWAP1 DUP4 PUSH20 0xFFFFFFFFFFFFFFFFFFFFFFFFFFFFFFFFFFFFFFFF AND MUL OR SWAP1 SSTORE POP PUSH1 0x1 PUSH1 0x4 PUSH1 0x0 PUSH2 0x100 EXP DUP2 SLOAD DUP2 PUSH1 0xFF MUL NOT AND SWAP1 DUP4 ISZERO ISZERO MUL OR SWAP1 SSTORE POP PUSH1 0x1 PUSH1 0x40 MLOAD DUP1 PUSH1 0xC0 ADD PUSH1 0x40 MSTORE DUP1 PUSH1 0x0 PUSH20 0xFFFFFFFFFFFFFFFFFFFFFFFFFFFFFFFFFFFFFFFF AND DUP2 MSTORE PUSH1 0x20 ADD PUSH1 0x0 DUP2 MSTORE PUSH1 0x20 ADD PUSH1 0x0 DUP2 MSTORE PUSH1 0x20 ADD PUSH1 0x2 DUP1 DUP2 GT ISZERO PUSH2 0xDF4 JUMPI PUSH2 0xDF3 PUSH2 0x361B JUMP JUMPDEST JUMPDEST DUP2 MSTORE PUSH1 0x20 ADD PUSH1 0x0 PUSH1 0x2 DUP2 GT ISZERO PUSH2 0xE0D JUMPI PUSH2 0xE0C PUSH2 0x361B JUMP JUMPDEST JUMPDEST DUP2 MSTORE PUSH1 0x20 ADD PUSH1 0x40 MLOAD DUP1 PUSH1 0x40 ADD PUSH1 0x40 MSTORE DUP1 PUSH1 0x4 DUP2 MSTORE PUSH1 0x20 ADD PUSH32 0x6E6F6E6500000000000000000000000000000000000000000000000000000000 DUP2 MSTORE POP DUP2 MSTORE POP SWAP1 DUP1 PUSH1 0x1 DUP2 SLOAD ADD DUP1 DUP3 SSTORE DUP1 SWAP2 POP POP PUSH1 0x1 SWAP1 SUB SWAP1 PUSH1 0x0 MSTORE PUSH1 0x20 PUSH1 0x0 KECCAK256 SWAP1 PUSH1 0x5 MUL ADD PUSH1 0x0 SWAP1 SWAP2 SWAP1 SWAP2 SWAP1 SWAP2 POP PUSH1 0x0 DUP3 ADD MLOAD DUP2 PUSH1 0x0 ADD PUSH1 0x0 PUSH2 0x100 EXP DUP2 SLOAD DUP2 PUSH20 0xFFFFFFFFFFFFFFFFFFFFFFFFFFFFFFFFFFFFFFFF MUL NOT AND SWAP1 DUP4 PUSH20 0xFFFFFFFFFFFFFFFFFFFFFFFFFFFFFFFFFFFFFFFF AND MUL OR SWAP1 SSTORE POP PUSH1 0x20 DUP3 ADD MLOAD DUP2 PUSH1 0x1 ADD SSTORE PUSH1 0x40 DUP3 ADD MLOAD DUP2 PUSH1 0x2 ADD SSTORE PUSH1 0x60 DUP3 ADD MLOAD DUP2 PUSH1 0x3 ADD PUSH1 0x0 PUSH2 0x100 EXP DUP2 SLOAD DUP2 PUSH1 0xFF MUL NOT AND SWAP1 DUP4 PUSH1 0x2 DUP2 GT ISZERO PUSH2 0xEFA JUMPI PUSH2 0xEF9 PUSH2 0x361B JUMP JUMPDEST JUMPDEST MUL OR SWAP1 SSTORE POP PUSH1 0x80 DUP3 ADD MLOAD DUP2 PUSH1 0x3 ADD PUSH1 0x1 PUSH2 0x100 EXP DUP2 SLOAD DUP2 PUSH1 0xFF MUL NOT AND SWAP1 DUP4 PUSH1 0x2 DUP2 GT ISZERO PUSH2 0xF2A JUMPI PUSH2 0xF29 PUSH2 0x361B JUMP JUMPDEST JUMPDEST MUL OR SWAP1 SSTORE POP PUSH1 0xA0 DUP3 ADD MLOAD DUP2 PUSH1 0x4 ADD SWAP1 DUP1 MLOAD SWAP1 PUSH1 0x20 ADD SWAP1 PUSH2 0xF4B SWAP3 SWAP2 SWAP1 PUSH2 0x3142 JUMP JUMPDEST POP POP POP JUMP JUMPDEST PUSH1 0x0 DUP1 SLOAD SWAP1 PUSH2 0x100 EXP SWAP1 DIV PUSH20 0xFFFFFFFFFFFFFFFFFFFFFFFFFFFFFFFFFFFFFFFF AND PUSH20 0xFFFFFFFFFFFFFFFFFFFFFFFFFFFFFFFFFFFFFFFF AND PUSH4 0x372C12B1 CALLER PUSH1 0x40 MLOAD DUP3 PUSH4 0xFFFFFFFF AND PUSH1 0xE0 SHL DUP2 MSTORE PUSH1 0x4 ADD PUSH2 0xFA9 SWAP2 SWAP1 PUSH2 0x3895 JUMP JUMPDEST PUSH1 0x20 PUSH1 0x40 MLOAD DUP1 DUP4 SUB DUP2 DUP7 GAS STATICCALL ISZERO DUP1 ISZERO PUSH2 0xFC6 JUMPI RETURNDATASIZE PUSH1 0x0 DUP1 RETURNDATACOPY RETURNDATASIZE PUSH1 0x0 REVERT JUMPDEST POP POP POP POP PUSH1 0x40 MLOAD RETURNDATASIZE PUSH1 0x1F NOT PUSH1 0x1F DUP3 ADD AND DUP3 ADD DUP1 PUSH1 0x40 MSTORE POP DUP2 ADD SWAP1 PUSH2 0xFEA SWAP2 SWAP1 PUSH2 0x3FC2 JUMP JUMPDEST PUSH2 0x1029 JUMPI PUSH1 0x40 MLOAD PUSH32 0x8C379A000000000000000000000000000000000000000000000000000000000 DUP2 MSTORE PUSH1 0x4 ADD PUSH2 0x1020 SWAP1 PUSH2 0x403B JUMP JUMPDEST PUSH1 0x40 MLOAD DUP1 SWAP2 SUB SWAP1 REVERT JUMPDEST PUSH1 0x0 PUSH20 0xFFFFFFFFFFFFFFFFFFFFFFFFFFFFFFFFFFFFFFFF AND DUP3 PUSH20 0xFFFFFFFFFFFFFFFFFFFFFFFFFFFFFFFFFFFFFFFF AND EQ ISZERO PUSH2 0x1099 JUMPI PUSH1 0x40 MLOAD PUSH32 0x8C379A000000000000000000000000000000000000000000000000000000000 DUP2 MSTORE PUSH1 0x4 ADD PUSH2 0x1090 SWAP1 PUSH2 0x432F JUMP JUMPDEST PUSH1 0x40 MLOAD DUP1 SWAP2 SUB SWAP1 REVERT JUMPDEST DUP3 PUSH20 0xFFFFFFFFFFFFFFFFFFFFFFFFFFFFFFFFFFFFFFFF AND PUSH4 0xA9059CBB DUP4 DUP4 PUSH1 0x40 MLOAD DUP4 PUSH4 0xFFFFFFFF AND PUSH1 0xE0 SHL DUP2 MSTORE PUSH1 0x4 ADD PUSH2 0x10D4 SWAP3 SWAP2 SWAP1 PUSH2 0x434F JUMP JUMPDEST PUSH1 0x20 PUSH1 0x40 MLOAD DUP1 DUP4 SUB DUP2 PUSH1 0x0 DUP8 GAS CALL ISZERO DUP1 ISZERO PUSH2 0x10F3 JUMPI RETURNDATASIZE PUSH1 0x0 DUP1 RETURNDATACOPY RETURNDATASIZE PUSH1 0x0 REVERT JUMPDEST POP POP POP POP PUSH1 0x40 MLOAD RETURNDATASIZE PUSH1 0x1F NOT PUSH1 0x1F DUP3 ADD AND DUP3 ADD DUP1 PUSH1 0x40 MSTORE POP DUP2 ADD SWAP1 PUSH2 0x1117 SWAP2 SWAP1 PUSH2 0x3FC2 JUMP JUMPDEST POP POP POP POP JUMP JUMPDEST PUSH1 0x4 PUSH1 0x1 SWAP1 SLOAD SWAP1 PUSH2 0x100 EXP SWAP1 DIV PUSH1 0xFF AND DUP2 JUMP JUMPDEST PUSH1 0x0 DUP1 SLOAD SWAP1 PUSH2 0x100 EXP SWAP1 DIV PUSH20 0xFFFFFFFFFFFFFFFFFFFFFFFFFFFFFFFFFFFFFFFF AND PUSH20 0xFFFFFFFFFFFFFFFFFFFFFFFFFFFFFFFFFFFFFFFF AND PUSH4 0x372C12B1 CALLER PUSH1 0x40 MLOAD DUP3 PUSH4 0xFFFFFFFF AND PUSH1 0xE0 SHL DUP2 MSTORE PUSH1 0x4 ADD PUSH2 0x1189 SWAP2 SWAP1 PUSH2 0x3895 JUMP JUMPDEST PUSH1 0x20 PUSH1 0x40 MLOAD DUP1 DUP4 SUB DUP2 DUP7 GAS STATICCALL ISZERO DUP1 ISZERO PUSH2 0x11A6 JUMPI RETURNDATASIZE PUSH1 0x0 DUP1 RETURNDATACOPY RETURNDATASIZE PUSH1 0x0 REVERT JUMPDEST POP POP POP POP PUSH1 0x40 MLOAD RETURNDATASIZE PUSH1 0x1F NOT PUSH1 0x1F DUP3 ADD AND DUP3 ADD DUP1 PUSH1 0x40 MSTORE POP DUP2 ADD SWAP1 PUSH2 0x11CA SWAP2 SWAP1 PUSH2 0x3FC2 JUMP JUMPDEST PUSH2 0x1209 JUMPI PUSH1 0x40 MLOAD PUSH32 0x8C379A000000000000000000000000000000000000000000000000000000000 DUP2 MSTORE PUSH1 0x4 ADD PUSH2 0x1200 SWAP1 PUSH2 0x403B JUMP JUMPDEST PUSH1 0x40 MLOAD DUP1 SWAP2 SUB SWAP1 REVERT JUMPDEST PUSH1 0x0 PUSH20 0xFFFFFFFFFFFFFFFFFFFFFFFFFFFFFFFFFFFFFFFF AND DUP3 PUSH20 0xFFFFFFFFFFFFFFFFFFFFFFFFFFFFFFFFFFFFFFFF AND EQ ISZERO PUSH2 0x1279 JUMPI PUSH1 0x40 MLOAD PUSH32 0x8C379A000000000000000000000000000000000000000000000000000000000 DUP2 MSTORE PUSH1 0x4 ADD PUSH2 0x1270 SWAP1 PUSH2 0x43EA JUMP JUMPDEST PUSH1 0x40 MLOAD DUP1 SWAP2 SUB SWAP1 REVERT JUMPDEST PUSH20 0x6085A86303E362C2A7434A7EA270D60A125B183C PUSH20 0xFFFFFFFFFFFFFFFFFFFFFFFFFFFFFFFFFFFFFFFF AND PUSH4 0xD0E30DB0 DUP3 PUSH1 0x40 MLOAD DUP3 PUSH4 0xFFFFFFFF AND PUSH1 0xE0 SHL DUP2 MSTORE PUSH1 0x4 ADD PUSH1 0x0 PUSH1 0x40 MLOAD DUP1 DUP4 SUB DUP2 DUP6 DUP9 DUP1 EXTCODESIZE ISZERO DUP1 ISZERO PUSH2 0x12D5 JUMPI PUSH1 0x0 DUP1 REVERT JUMPDEST POP GAS CALL ISZERO DUP1 ISZERO PUSH2 0x12E9 JUMPI RETURNDATASIZE PUSH1 0x0 DUP1 RETURNDATACOPY RETURNDATASIZE PUSH1 0x0 REVERT JUMPDEST POP POP POP POP POP PUSH20 0x6085A86303E362C2A7434A7EA270D60A125B183C PUSH20 0xFFFFFFFFFFFFFFFFFFFFFFFFFFFFFFFFFFFFFFFF AND PUSH4 0xA9059CBB DUP4 PUSH20 0x6085A86303E362C2A7434A7EA270D60A125B183C PUSH20 0xFFFFFFFFFFFFFFFFFFFFFFFFFFFFFFFFFFFFFFFF AND PUSH4 0x70A08231 ADDRESS PUSH1 0x40 MLOAD DUP3 PUSH4 0xFFFFFFFF AND PUSH1 0xE0 SHL DUP2 MSTORE PUSH1 0x4 ADD PUSH2 0x136C SWAP2 SWAP1 PUSH2 0x3895 JUMP JUMPDEST PUSH1 0x20 PUSH1 0x40 MLOAD DUP1 DUP4 SUB DUP2 DUP7 GAS STATICCALL ISZERO DUP1 ISZERO PUSH2 0x1389 JUMPI RETURNDATASIZE PUSH1 0x0 DUP1 RETURNDATACOPY RETURNDATASIZE PUSH1 0x0 REVERT JUMPDEST POP POP POP POP PUSH1 0x40 MLOAD RETURNDATASIZE PUSH1 0x1F NOT PUSH1 0x1F DUP3 ADD AND DUP3 ADD DUP1 PUSH1 0x40 MSTORE POP DUP2 ADD SWAP1 PUSH2 0x13AD SWAP2 SWAP1 PUSH2 0x441F JUMP JUMPDEST PUSH1 0x40 MLOAD DUP4 PUSH4 0xFFFFFFFF AND PUSH1 0xE0 SHL DUP2 MSTORE PUSH1 0x4 ADD PUSH2 0x13CA SWAP3 SWAP2 SWAP1 PUSH2 0x434F JUMP JUMPDEST PUSH1 0x20 PUSH1 0x40 MLOAD DUP1 DUP4 SUB DUP2 PUSH1 0x0 DUP8 GAS CALL ISZERO DUP1 ISZERO PUSH2 0x13E9 JUMPI RETURNDATASIZE PUSH1 0x0 DUP1 RETURNDATACOPY RETURNDATASIZE PUSH1 0x0 REVERT JUMPDEST POP POP POP POP PUSH1 0x40 MLOAD RETURNDATASIZE PUSH1 0x1F NOT PUSH1 0x1F DUP3 ADD AND DUP3 ADD DUP1 PUSH1 0x40 MSTORE POP DUP2 ADD SWAP1 PUSH2 0x140D SWAP2 SWAP1 PUSH2 0x3FC2 JUMP JUMPDEST POP POP POP JUMP JUMPDEST PUSH20 0x6085A86303E362C2A7434A7EA270D60A125B183C DUP2 JUMP JUMPDEST PUSH1 0x0 DUP1 PUSH1 0x3 PUSH1 0x0 DUP6 PUSH20 0xFFFFFFFFFFFFFFFFFFFFFFFFFFFFFFFFFFFFFFFF AND PUSH20 0xFFFFFFFFFFFFFFFFFFFFFFFFFFFFFFFFFFFFFFFF AND DUP2 MSTORE PUSH1 0x20 ADD SWAP1 DUP2 MSTORE PUSH1 0x20 ADD PUSH1 0x0 KECCAK256 PUSH1 0x0 DUP5 DUP2 MSTORE PUSH1 0x20 ADD SWAP1 DUP2 MSTORE PUSH1 0x20 ADD PUSH1 0x0 KECCAK256 SLOAD SWAP1 POP PUSH1 0x0 PUSH1 0xFF AND DUP2 EQ ISZERO PUSH2 0x14C7 JUMPI PUSH1 0x40 MLOAD PUSH32 0x8C379A000000000000000000000000000000000000000000000000000000000 DUP2 MSTORE PUSH1 0x4 ADD PUSH2 0x14BE SWAP1 PUSH2 0x414A JUMP JUMPDEST PUSH1 0x40 MLOAD DUP1 SWAP2 SUB SWAP1 REVERT JUMPDEST PUSH1 0x1 DUP2 DUP2 SLOAD DUP2 LT PUSH2 0x14DB JUMPI PUSH2 0x14DA PUSH2 0x416A JUMP JUMPDEST JUMPDEST SWAP1 PUSH1 0x0 MSTORE PUSH1 0x20 PUSH1 0x0 KECCAK256 SWAP1 PUSH1 0x5 MUL ADD PUSH1 0x3 ADD PUSH1 0x1 SWAP1 SLOAD SWAP1 PUSH2 0x100 EXP SWAP1 DIV PUSH1 0xFF AND SWAP2 POP POP SWAP3 SWAP2 POP POP JUMP JUMPDEST PUSH1 0x0 PUSH4 0xBC197C81 PUSH1 0xE0 SHL SWAP1 POP SWAP6 SWAP5 POP POP POP POP POP JUMP JUMPDEST PUSH1 0x0 DUP1 SLOAD SWAP1 PUSH2 0x100 EXP SWAP1 DIV PUSH20 0xFFFFFFFFFFFFFFFFFFFFFFFFFFFFFFFFFFFFFFFF AND PUSH20 0xFFFFFFFFFFFFFFFFFFFFFFFFFFFFFFFFFFFFFFFF AND PUSH4 0x372C12B1 CALLER PUSH1 0x40 MLOAD DUP3 PUSH4 0xFFFFFFFF AND PUSH1 0xE0 SHL DUP2 MSTORE PUSH1 0x4 ADD PUSH2 0x1571 SWAP2 SWAP1 PUSH2 0x3895 JUMP JUMPDEST PUSH1 0x20 PUSH1 0x40 MLOAD DUP1 DUP4 SUB DUP2 DUP7 GAS STATICCALL ISZERO DUP1 ISZERO PUSH2 0x158E JUMPI RETURNDATASIZE PUSH1 0x0 DUP1 RETURNDATACOPY RETURNDATASIZE PUSH1 0x0 REVERT JUMPDEST POP POP POP POP PUSH1 0x40 MLOAD RETURNDATASIZE PUSH1 0x1F NOT PUSH1 0x1F DUP3 ADD AND DUP3 ADD DUP1 PUSH1 0x40 MSTORE POP DUP2 ADD SWAP1 PUSH2 0x15B2 SWAP2 SWAP1 PUSH2 0x3FC2 JUMP JUMPDEST PUSH2 0x15F1 JUMPI PUSH1 0x40 MLOAD PUSH32 0x8C379A000000000000000000000000000000000000000000000000000000000 DUP2 MSTORE PUSH1 0x4 ADD PUSH2 0x15E8 SWAP1 PUSH2 0x403B JUMP JUMPDEST PUSH1 0x40 MLOAD DUP1 SWAP2 SUB SWAP1 REVERT JUMPDEST PUSH1 0x0 JUMPDEST DUP4 MLOAD DUP2 PUSH2 0xFFFF AND LT ISZERO PUSH2 0x1815 JUMPI PUSH1 0x0 PUSH1 0x3 PUSH1 0x0 DUP7 DUP5 PUSH2 0xFFFF AND DUP2 MLOAD DUP2 LT PUSH2 0x161E JUMPI PUSH2 0x161D PUSH2 0x416A JUMP JUMPDEST JUMPDEST PUSH1 0x20 MUL PUSH1 0x20 ADD ADD MLOAD PUSH20 0xFFFFFFFFFFFFFFFFFFFFFFFFFFFFFFFFFFFFFFFF AND PUSH20 0xFFFFFFFFFFFFFFFFFFFFFFFFFFFFFFFFFFFFFFFF AND DUP2 MSTORE PUSH1 0x20 ADD SWAP1 DUP2 MSTORE PUSH1 0x20 ADD PUSH1 0x0 KECCAK256 PUSH1 0x0 DUP6 DUP5 PUSH2 0xFFFF AND DUP2 MLOAD DUP2 LT PUSH2 0x1679 JUMPI PUSH2 0x1678 PUSH2 0x416A JUMP JUMPDEST JUMPDEST PUSH1 0x20 MUL PUSH1 0x20 ADD ADD MLOAD DUP2 MSTORE PUSH1 0x20 ADD SWAP1 DUP2 MSTORE PUSH1 0x20 ADD PUSH1 0x0 KECCAK256 SLOAD SWAP1 POP PUSH1 0x0 PUSH1 0xFF AND DUP2 EQ ISZERO PUSH2 0x16D9 JUMPI PUSH1 0x40 MLOAD PUSH32 0x8C379A000000000000000000000000000000000000000000000000000000000 DUP2 MSTORE PUSH1 0x4 ADD PUSH2 0x16D0 SWAP1 PUSH2 0x414A JUMP JUMPDEST PUSH1 0x40 MLOAD DUP1 SWAP2 SUB SWAP1 REVERT JUMPDEST PUSH2 0x1747 DUP6 DUP4 PUSH2 0xFFFF AND DUP2 MLOAD DUP2 LT PUSH2 0x16F3 JUMPI PUSH2 0x16F2 PUSH2 0x416A JUMP JUMPDEST JUMPDEST PUSH1 0x20 MUL PUSH1 0x20 ADD ADD MLOAD DUP6 DUP5 PUSH2 0xFFFF AND DUP2 MLOAD DUP2 LT PUSH2 0x1712 JUMPI PUSH2 0x1711 PUSH2 0x416A JUMP JUMPDEST JUMPDEST PUSH1 0x20 MUL PUSH1 0x20 ADD ADD MLOAD PUSH1 0x1 DUP5 DUP2 SLOAD DUP2 LT PUSH2 0x172E JUMPI PUSH2 0x172D PUSH2 0x416A JUMP JUMPDEST JUMPDEST SWAP1 PUSH1 0x0 MSTORE PUSH1 0x20 PUSH1 0x0 KECCAK256 SWAP1 PUSH1 0x5 MUL ADD PUSH1 0x2 ADD SLOAD ADDRESS DUP8 PUSH2 0x2423 JUMP JUMPDEST POP PUSH2 0x1801 DUP2 PUSH1 0x2 PUSH1 0x1 DUP5 DUP2 SLOAD DUP2 LT PUSH2 0x1762 JUMPI PUSH2 0x1761 PUSH2 0x416A JUMP JUMPDEST JUMPDEST SWAP1 PUSH1 0x0 MSTORE PUSH1 0x20 PUSH1 0x0 KECCAK256 SWAP1 PUSH1 0x5 MUL ADD PUSH1 0x4 ADD DUP1 SLOAD PUSH2 0x177E SWAP1 PUSH2 0x408A JUMP JUMPDEST DUP1 PUSH1 0x1F ADD PUSH1 0x20 DUP1 SWAP2 DIV MUL PUSH1 0x20 ADD PUSH1 0x40 MLOAD SWAP1 DUP2 ADD PUSH1 0x40 MSTORE DUP1 SWAP3 SWAP2 SWAP1 DUP2 DUP2 MSTORE PUSH1 0x20 ADD DUP3 DUP1 SLOAD PUSH2 0x17AA SWAP1 PUSH2 0x408A JUMP JUMPDEST DUP1 ISZERO PUSH2 0x17F7 JUMPI DUP1 PUSH1 0x1F LT PUSH2 0x17CC JUMPI PUSH2 0x100 DUP1 DUP4 SLOAD DIV MUL DUP4 MSTORE SWAP2 PUSH1 0x20 ADD SWAP2 PUSH2 0x17F7 JUMP JUMPDEST DUP3 ADD SWAP2 SWAP1 PUSH1 0x0 MSTORE PUSH1 0x20 PUSH1 0x0 KECCAK256 SWAP1 JUMPDEST DUP2 SLOAD DUP2 MSTORE SWAP1 PUSH1 0x1 ADD SWAP1 PUSH1 0x20 ADD DUP1 DUP4 GT PUSH2 0x17DA JUMPI DUP3 SWAP1 SUB PUSH1 0x1F AND DUP3 ADD SWAP2 JUMPDEST POP POP POP POP POP PUSH2 0x25F6 JUMP JUMPDEST POP DUP1 DUP1 PUSH2 0x180D SWAP1 PUSH2 0x4489 JUMP JUMPDEST SWAP2 POP POP PUSH2 0x15F4 JUMP JUMPDEST POP POP POP POP JUMP JUMPDEST PUSH1 0x0 PUSH2 0x1825 PUSH2 0x843 JUMP JUMPDEST PUSH20 0xFFFFFFFFFFFFFFFFFFFFFFFFFFFFFFFFFFFFFFFF AND PUSH4 0x18160DDD PUSH1 0x40 MLOAD DUP2 PUSH4 0xFFFFFFFF AND PUSH1 0xE0 SHL DUP2 MSTORE PUSH1 0x4 ADD PUSH1 0x20 PUSH1 0x40 MLOAD DUP1 DUP4 SUB DUP2 DUP7 GAS STATICCALL ISZERO DUP1 ISZERO PUSH2 0x186F JUMPI RETURNDATASIZE PUSH1 0x0 DUP1 RETURNDATACOPY RETURNDATASIZE PUSH1 0x0 REVERT JUMPDEST POP POP POP POP PUSH1 0x40 MLOAD RETURNDATASIZE PUSH1 0x1F NOT PUSH1 0x1F DUP3 ADD AND DUP3 ADD DUP1 PUSH1 0x40 MSTORE POP DUP2 ADD SWAP1 PUSH2 0x1893 SWAP2 SWAP1 PUSH2 0x441F JUMP JUMPDEST EQ ISZERO PUSH2 0x18D4 JUMPI PUSH1 0x40 MLOAD PUSH32 0x8C379A000000000000000000000000000000000000000000000000000000000 DUP2 MSTORE PUSH1 0x4 ADD PUSH2 0x18CB SWAP1 PUSH2 0x4526 JUMP JUMPDEST PUSH1 0x40 MLOAD DUP1 SWAP2 SUB SWAP1 REVERT JUMPDEST PUSH1 0x2 DUP1 DUP2 GT ISZERO PUSH2 0x18E7 JUMPI PUSH2 0x18E6 PUSH2 0x361B JUMP JUMPDEST JUMPDEST PUSH2 0x18EF PUSH2 0x1E0D JUMP JUMPDEST PUSH1 0x2 DUP2 GT ISZERO PUSH2 0x1901 JUMPI PUSH2 0x1900 PUSH2 0x361B JUMP JUMPDEST JUMPDEST EQ ISZERO PUSH2 0x1942 JUMPI PUSH1 0x40 MLOAD PUSH32 0x8C379A000000000000000000000000000000000000000000000000000000000 DUP2 MSTORE PUSH1 0x4 ADD PUSH2 0x1939 SWAP1 PUSH2 0x4592 JUMP JUMPDEST PUSH1 0x40 MLOAD DUP1 SWAP2 SUB SWAP1 REVERT JUMPDEST PUSH1 0x4 PUSH1 0x0 SWAP1 SLOAD SWAP1 PUSH2 0x100 EXP SWAP1 DIV PUSH1 0xFF AND PUSH2 0x1991 JUMPI PUSH1 0x40 MLOAD PUSH32 0x8C379A000000000000000000000000000000000000000000000000000000000 DUP2 MSTORE PUSH1 0x4 ADD PUSH2 0x1988 SWAP1 PUSH2 0x45FE JUMP JUMPDEST PUSH1 0x40 MLOAD DUP1 SWAP2 SUB SWAP1 REVERT JUMPDEST PUSH1 0x0 DUP1 PUSH1 0x0 SWAP1 SLOAD SWAP1 PUSH2 0x100 EXP SWAP1 DIV PUSH20 0xFFFFFFFFFFFFFFFFFFFFFFFFFFFFFFFFFFFFFFFF AND PUSH20 0xFFFFFFFFFFFFFFFFFFFFFFFFFFFFFFFFFFFFFFFF AND PUSH4 0xE06174E4 PUSH1 0x40 MLOAD DUP2 PUSH4 0xFFFFFFFF AND PUSH1 0xE0 SHL DUP2 MSTORE PUSH1 0x4 ADD PUSH1 0x20 PUSH1 0x40 MLOAD DUP1 DUP4 SUB DUP2 DUP7 GAS STATICCALL ISZERO DUP1 ISZERO PUSH2 0x19FF JUMPI RETURNDATASIZE PUSH1 0x0 DUP1 RETURNDATACOPY RETURNDATASIZE PUSH1 0x0 REVERT JUMPDEST POP POP POP POP PUSH1 0x40 MLOAD RETURNDATASIZE PUSH1 0x1F NOT PUSH1 0x1F DUP3 ADD AND DUP3 ADD DUP1 PUSH1 0x40 MSTORE POP DUP2 ADD SWAP1 PUSH2 0x1A23 SWAP2 SWAP1 PUSH2 0x40D1 JUMP JUMPDEST PUSH20 0xFFFFFFFFFFFFFFFFFFFFFFFFFFFFFFFFFFFFFFFF AND PUSH4 0xB3F00674 PUSH1 0x40 MLOAD DUP2 PUSH4 0xFFFFFFFF AND PUSH1 0xE0 SHL DUP2 MSTORE PUSH1 0x4 ADD PUSH1 0x20 PUSH1 0x40 MLOAD DUP1 DUP4 SUB DUP2 PUSH1 0x0 DUP8 GAS CALL ISZERO DUP1 ISZERO PUSH2 0x1A6F JUMPI RETURNDATASIZE PUSH1 0x0 DUP1 RETURNDATACOPY RETURNDATASIZE PUSH1 0x0 REVERT JUMPDEST POP POP POP POP PUSH1 0x40 MLOAD RETURNDATASIZE PUSH1 0x1F NOT PUSH1 0x1F DUP3 ADD AND DUP3 ADD DUP1 PUSH1 0x40 MSTORE POP DUP2 ADD SWAP1 PUSH2 0x1A93 SWAP2 SWAP1 PUSH2 0x4633 JUMP JUMPDEST SWAP1 POP PUSH1 0x0 PUSH2 0x1A9F PUSH2 0x843 JUMP JUMPDEST PUSH20 0xFFFFFFFFFFFFFFFFFFFFFFFFFFFFFFFFFFFFFFFF AND PUSH4 0x70A08231 DUP4 PUSH1 0x40 MLOAD DUP3 PUSH4 0xFFFFFFFF AND PUSH1 0xE0 SHL DUP2 MSTORE PUSH1 0x4 ADD PUSH2 0x1AD7 SWAP2 SWAP1 PUSH2 0x3895 JUMP JUMPDEST PUSH1 0x20 PUSH1 0x40 MLOAD DUP1 DUP4 SUB DUP2 DUP7 GAS STATICCALL ISZERO DUP1 ISZERO PUSH2 0x1AF4 JUMPI RETURNDATASIZE PUSH1 0x0 DUP1 RETURNDATACOPY RETURNDATASIZE PUSH1 0x0 REVERT JUMPDEST POP POP POP POP PUSH1 0x40 MLOAD RETURNDATASIZE PUSH1 0x1F NOT PUSH1 0x1F DUP3 ADD AND DUP3 ADD DUP1 PUSH1 0x40 MSTORE POP DUP2 ADD SWAP1 PUSH2 0x1B18 SWAP2 SWAP1 PUSH2 0x441F JUMP JUMPDEST SWAP1 POP PUSH1 0x0 PUSH2 0x1B24 PUSH2 0x843 JUMP JUMPDEST PUSH20 0xFFFFFFFFFFFFFFFFFFFFFFFFFFFFFFFFFFFFFFFF AND PUSH4 0x70A08231 CALLER PUSH1 0x40 MLOAD DUP3 PUSH4 0xFFFFFFFF AND PUSH1 0xE0 SHL DUP2 MSTORE PUSH1 0x4 ADD PUSH2 0x1B5C SWAP2 SWAP1 PUSH2 0x3895 JUMP JUMPDEST PUSH1 0x20 PUSH1 0x40 MLOAD DUP1 DUP4 SUB DUP2 DUP7 GAS STATICCALL ISZERO DUP1 ISZERO PUSH2 0x1B79 JUMPI RETURNDATASIZE PUSH1 0x0 DUP1 RETURNDATACOPY RETURNDATASIZE PUSH1 0x0 REVERT JUMPDEST POP POP POP POP PUSH1 0x40 MLOAD RETURNDATASIZE PUSH1 0x1F NOT PUSH1 0x1F DUP3 ADD AND DUP3 ADD DUP1 PUSH1 0x40 MSTORE POP DUP2 ADD SWAP1 PUSH2 0x1B9D SWAP2 SWAP1 PUSH2 0x441F JUMP JUMPDEST SWAP1 POP DUP2 PUSH2 0x1BA8 PUSH2 0x843 JUMP JUMPDEST PUSH20 0xFFFFFFFFFFFFFFFFFFFFFFFFFFFFFFFFFFFFFFFF AND PUSH4 0x18160DDD PUSH1 0x40 MLOAD DUP2 PUSH4 0xFFFFFFFF AND PUSH1 0xE0 SHL DUP2 MSTORE PUSH1 0x4 ADD PUSH1 0x20 PUSH1 0x40 MLOAD DUP1 DUP4 SUB DUP2 DUP7 GAS STATICCALL ISZERO DUP1 ISZERO PUSH2 0x1BF2 JUMPI RETURNDATASIZE PUSH1 0x0 DUP1 RETURNDATACOPY RETURNDATASIZE PUSH1 0x0 REVERT JUMPDEST POP POP POP POP PUSH1 0x40 MLOAD RETURNDATASIZE PUSH1 0x1F NOT PUSH1 0x1F DUP3 ADD AND DUP3 ADD DUP1 PUSH1 0x40 MSTORE POP DUP2 ADD SWAP1 PUSH2 0x1C16 SWAP2 SWAP1 PUSH2 0x441F JUMP JUMPDEST PUSH2 0x1C20 SWAP2 SWAP1 PUSH2 0x4660 JUMP JUMPDEST DUP2 LT ISZERO PUSH2 0x1C62 JUMPI PUSH1 0x40 MLOAD PUSH32 0x8C379A000000000000000000000000000000000000000000000000000000000 DUP2 MSTORE PUSH1 0x4 ADD PUSH2 0x1C59 SWAP1 PUSH2 0x46E0 JUMP JUMPDEST PUSH1 0x40 MLOAD DUP1 SWAP2 SUB SWAP1 REVERT JUMPDEST PUSH2 0x1C6A PUSH2 0x843 JUMP JUMPDEST PUSH20 0xFFFFFFFFFFFFFFFFFFFFFFFFFFFFFFFFFFFFFFFF AND PUSH4 0x9745AB1F CALLER DUP4 PUSH1 0x40 MLOAD DUP4 PUSH4 0xFFFFFFFF AND PUSH1 0xE0 SHL DUP2 MSTORE PUSH1 0x4 ADD PUSH2 0x1CA4 SWAP3 SWAP2 SWAP1 PUSH2 0x434F JUMP JUMPDEST PUSH1 0x0 PUSH1 0x40 MLOAD DUP1 DUP4 SUB DUP2 PUSH1 0x0 DUP8 DUP1 EXTCODESIZE ISZERO DUP1 ISZERO PUSH2 0x1CBE JUMPI PUSH1 0x0 DUP1 REVERT JUMPDEST POP GAS CALL ISZERO DUP1 ISZERO PUSH2 0x1CD2 JUMPI RETURNDATASIZE PUSH1 0x0 DUP1 RETURNDATACOPY RETURNDATASIZE PUSH1 0x0 REVERT JUMPDEST POP POP POP POP PUSH2 0x1CE7 PUSH2 0x1CE1 PUSH2 0xAE8 JUMP JUMPDEST CALLER PUSH2 0x223A JUMP JUMPDEST PUSH1 0x40 MLOAD DUP1 PUSH1 0x40 ADD PUSH1 0x40 MSTORE DUP1 PUSH1 0x8 DUP2 MSTORE PUSH1 0x20 ADD PUSH32 0x72656465656D6564000000000000000000000000000000000000000000000000 DUP2 MSTORE POP PUSH1 0x1 PUSH1 0x0 PUSH1 0xFF AND DUP2 SLOAD DUP2 LT PUSH2 0x1D35 JUMPI PUSH2 0x1D34 PUSH2 0x416A JUMP JUMPDEST JUMPDEST SWAP1 PUSH1 0x0 MSTORE PUSH1 0x20 PUSH1 0x0 KECCAK256 SWAP1 PUSH1 0x5 MUL ADD PUSH1 0x4 ADD SWAP1 DUP1 MLOAD SWAP1 PUSH1 0x20 ADD SWAP1 PUSH2 0x1D59 SWAP3 SWAP2 SWAP1 PUSH2 0x3142 JUMP JUMPDEST POP PUSH1 0x2 PUSH1 0x1 PUSH1 0x0 PUSH1 0xFF AND DUP2 SLOAD DUP2 LT PUSH2 0x1D74 JUMPI PUSH2 0x1D73 PUSH2 0x416A JUMP JUMPDEST JUMPDEST SWAP1 PUSH1 0x0 MSTORE PUSH1 0x20 PUSH1 0x0 KECCAK256 SWAP1 PUSH1 0x5 MUL ADD PUSH1 0x3 ADD PUSH1 0x1 PUSH2 0x100 EXP DUP2 SLOAD DUP2 PUSH1 0xFF MUL NOT AND SWAP1 DUP4 PUSH1 0x2 DUP2 GT ISZERO PUSH2 0x1DA7 JUMPI PUSH2 0x1DA6 PUSH2 0x361B JUMP JUMPDEST JUMPDEST MUL OR SWAP1 SSTORE POP PUSH32 0xD1B5EA7FE0F1C2FA09D49C2AA9B2200664BA57A734F1D95481D95B7F99AF991C CALLER PUSH1 0x40 MLOAD PUSH2 0x1DDB SWAP2 SWAP1 PUSH2 0x3895 JUMP JUMPDEST PUSH1 0x40 MLOAD DUP1 SWAP2 SUB SWAP1 LOG1 POP POP POP JUMP JUMPDEST PUSH1 0x3 PUSH1 0x20 MSTORE DUP2 PUSH1 0x0 MSTORE PUSH1 0x40 PUSH1 0x0 KECCAK256 PUSH1 0x20 MSTORE DUP1 PUSH1 0x0 MSTORE PUSH1 0x40 PUSH1 0x0 KECCAK256 PUSH1 0x0 SWAP2 POP SWAP2 POP POP SLOAD DUP2 JUMP JUMPDEST PUSH1 0x0 PUSH1 0x1 PUSH1 0x0 PUSH1 0xFF AND DUP2 SLOAD DUP2 LT PUSH2 0x1E27 JUMPI PUSH2 0x1E26 PUSH2 0x416A JUMP JUMPDEST JUMPDEST SWAP1 PUSH1 0x0 MSTORE PUSH1 0x20 PUSH1 0x0 KECCAK256 SWAP1 PUSH1 0x5 MUL ADD PUSH1 0x3 ADD PUSH1 0x1 SWAP1 SLOAD SWAP1 PUSH2 0x100 EXP SWAP1 DIV PUSH1 0xFF AND SWAP1 POP SWAP1 JUMP JUMPDEST PUSH1 0x0 DUP1 SLOAD SWAP1 PUSH2 0x100 EXP SWAP1 DIV PUSH20 0xFFFFFFFFFFFFFFFFFFFFFFFFFFFFFFFFFFFFFFFF AND PUSH20 0xFFFFFFFFFFFFFFFFFFFFFFFFFFFFFFFFFFFFFFFF AND PUSH4 0x372C12B1 CALLER PUSH1 0x40 MLOAD DUP3 PUSH4 0xFFFFFFFF AND PUSH1 0xE0 SHL DUP2 MSTORE PUSH1 0x4 ADD PUSH2 0x1EA4 SWAP2 SWAP1 PUSH2 0x3895 JUMP JUMPDEST PUSH1 0x20 PUSH1 0x40 MLOAD DUP1 DUP4 SUB DUP2 DUP7 GAS STATICCALL ISZERO DUP1 ISZERO PUSH2 0x1EC1 JUMPI RETURNDATASIZE PUSH1 0x0 DUP1 RETURNDATACOPY RETURNDATASIZE PUSH1 0x0 REVERT JUMPDEST POP POP POP POP PUSH1 0x40 MLOAD RETURNDATASIZE PUSH1 0x1F NOT PUSH1 0x1F DUP3 ADD AND DUP3 ADD DUP1 PUSH1 0x40 MSTORE POP DUP2 ADD SWAP1 PUSH2 0x1EE5 SWAP2 SWAP1 PUSH2 0x3FC2 JUMP JUMPDEST PUSH2 0x1F24 JUMPI PUSH1 0x40 MLOAD PUSH32 0x8C379A000000000000000000000000000000000000000000000000000000000 DUP2 MSTORE PUSH1 0x4 ADD PUSH2 0x1F1B SWAP1 PUSH2 0x403B JUMP JUMPDEST PUSH1 0x40 MLOAD DUP1 SWAP2 SUB SWAP1 REVERT JUMPDEST PUSH2 0x1F30 DUP5 DUP5 DUP5 DUP5 PUSH2 0x2794 JUMP JUMPDEST POP POP POP POP JUMP JUMPDEST PUSH1 0x0 DUP1 SLOAD SWAP1 PUSH2 0x100 EXP SWAP1 DIV PUSH20 0xFFFFFFFFFFFFFFFFFFFFFFFFFFFFFFFFFFFFFFFF AND PUSH20 0xFFFFFFFFFFFFFFFFFFFFFFFFFFFFFFFFFFFFFFFF AND PUSH4 0x372C12B1 CALLER PUSH1 0x40 MLOAD DUP3 PUSH4 0xFFFFFFFF AND PUSH1 0xE0 SHL DUP2 MSTORE PUSH1 0x4 ADD PUSH2 0x1F8F SWAP2 SWAP1 PUSH2 0x3895 JUMP JUMPDEST PUSH1 0x20 PUSH1 0x40 MLOAD DUP1 DUP4 SUB DUP2 DUP7 GAS STATICCALL ISZERO DUP1 ISZERO PUSH2 0x1FAC JUMPI RETURNDATASIZE PUSH1 0x0 DUP1 RETURNDATACOPY RETURNDATASIZE PUSH1 0x0 REVERT JUMPDEST POP POP POP POP PUSH1 0x40 MLOAD RETURNDATASIZE PUSH1 0x1F NOT PUSH1 0x1F DUP3 ADD AND DUP3 ADD DUP1 PUSH1 0x40 MSTORE POP DUP2 ADD SWAP1 PUSH2 0x1FD0 SWAP2 SWAP1 PUSH2 0x3FC2 JUMP JUMPDEST PUSH2 0x200F JUMPI PUSH1 0x40 MLOAD PUSH32 0x8C379A000000000000000000000000000000000000000000000000000000000 DUP2 MSTORE PUSH1 0x4 ADD PUSH2 0x2006 SWAP1 PUSH2 0x403B JUMP JUMPDEST PUSH1 0x40 MLOAD DUP1 SWAP2 SUB SWAP1 REVERT JUMPDEST PUSH1 0x0 PUSH1 0x3 PUSH1 0x0 DUP7 PUSH20 0xFFFFFFFFFFFFFFFFFFFFFFFFFFFFFFFFFFFFFFFF AND PUSH20 0xFFFFFFFFFFFFFFFFFFFFFFFFFFFFFFFFFFFFFFFF AND DUP2 MSTORE PUSH1 0x20 ADD SWAP1 DUP2 MSTORE PUSH1 0x20 ADD PUSH1 0x0 KECCAK256 PUSH1 0x0 DUP6 DUP2 MSTORE PUSH1 0x20 ADD SWAP1 DUP2 MSTORE PUSH1 0x20 ADD PUSH1 0x0 KECCAK256 SLOAD SWAP1 POP PUSH1 0x2 DUP1 DUP2 GT ISZERO PUSH2 0x2077 JUMPI PUSH2 0x2076 PUSH2 0x361B JUMP JUMPDEST JUMPDEST PUSH1 0x1 DUP3 DUP2 SLOAD DUP2 LT PUSH2 0x208B JUMPI PUSH2 0x208A PUSH2 0x416A JUMP JUMPDEST JUMPDEST SWAP1 PUSH1 0x0 MSTORE PUSH1 0x20 PUSH1 0x0 KECCAK256 SWAP1 PUSH1 0x5 MUL ADD PUSH1 0x3 ADD PUSH1 0x1 SWAP1 SLOAD SWAP1 PUSH2 0x100 EXP SWAP1 DIV PUSH1 0xFF AND PUSH1 0x2 DUP2 GT ISZERO PUSH2 0x20BC JUMPI PUSH2 0x20BB PUSH2 0x361B JUMP JUMPDEST JUMPDEST EQ ISZERO PUSH2 0x20FD JUMPI PUSH1 0x40 MLOAD PUSH32 0x8C379A000000000000000000000000000000000000000000000000000000000 DUP2 MSTORE PUSH1 0x4 ADD PUSH2 0x20F4 SWAP1 PUSH2 0x414A JUMP JUMPDEST PUSH1 0x40 MLOAD DUP1 SWAP2 SUB SWAP1 REVERT JUMPDEST PUSH1 0x0 PUSH20 0xFFFFFFFFFFFFFFFFFFFFFFFFFFFFFFFFFFFFFFFF AND DUP6 PUSH20 0xFFFFFFFFFFFFFFFFFFFFFFFFFFFFFFFFFFFFFFFF AND EQ DUP1 ISZERO PUSH2 0x2139 JUMPI POP PUSH1 0x0 DUP5 EQ JUMPDEST ISZERO PUSH2 0x21CB JUMPI DUP2 PUSH1 0x1 DUP3 DUP2 SLOAD DUP2 LT PUSH2 0x2153 JUMPI PUSH2 0x2152 PUSH2 0x416A JUMP JUMPDEST JUMPDEST SWAP1 PUSH1 0x0 MSTORE PUSH1 0x20 PUSH1 0x0 KECCAK256 SWAP1 PUSH1 0x5 MUL ADD PUSH1 0x4 ADD SWAP1 DUP1 MLOAD SWAP1 PUSH1 0x20 ADD SWAP1 PUSH2 0x2177 SWAP3 SWAP2 SWAP1 PUSH2 0x3142 JUMP JUMPDEST POP DUP3 PUSH1 0x1 DUP3 DUP2 SLOAD DUP2 LT PUSH2 0x218D JUMPI PUSH2 0x218C PUSH2 0x416A JUMP JUMPDEST JUMPDEST SWAP1 PUSH1 0x0 MSTORE PUSH1 0x20 PUSH1 0x0 KECCAK256 SWAP1 PUSH1 0x5 MUL ADD PUSH1 0x3 ADD PUSH1 0x1 PUSH2 0x100 EXP DUP2 SLOAD DUP2 PUSH1 0xFF MUL NOT AND SWAP1 DUP4 PUSH1 0x2 DUP2 GT ISZERO PUSH2 0x21C0 JUMPI PUSH2 0x21BF PUSH2 0x361B JUMP JUMPDEST JUMPDEST MUL OR SWAP1 SSTORE POP POP PUSH2 0x221F JUMP JUMPDEST PUSH1 0x0 PUSH1 0xFF AND DUP2 EQ ISZERO PUSH2 0x2212 JUMPI PUSH1 0x40 MLOAD PUSH32 0x8C379A000000000000000000000000000000000000000000000000000000000 DUP2 MSTORE PUSH1 0x4 ADD PUSH2 0x2209 SWAP1 PUSH2 0x474C JUMP JUMPDEST PUSH1 0x40 MLOAD DUP1 SWAP2 SUB SWAP1 REVERT JUMPDEST PUSH2 0x221D DUP2 DUP5 DUP5 PUSH2 0x25F6 JUMP JUMPDEST POP JUMPDEST POP POP POP POP JUMP JUMPDEST PUSH1 0x0 PUSH4 0xF23A6E61 PUSH1 0xE0 SHL SWAP1 POP SWAP6 SWAP5 POP POP POP POP POP JUMP JUMPDEST PUSH1 0x0 JUMPDEST DUP3 MLOAD DUP2 PUSH2 0xFFFF AND LT ISZERO PUSH2 0x241E JUMPI PUSH1 0x0 DUP4 DUP3 PUSH2 0xFFFF AND DUP2 MLOAD DUP2 LT PUSH2 0x2263 JUMPI PUSH2 0x2262 PUSH2 0x416A JUMP JUMPDEST JUMPDEST PUSH1 0x20 MUL PUSH1 0x20 ADD ADD MLOAD SWAP1 POP PUSH1 0x0 PUSH1 0xFF AND DUP2 EQ ISZERO PUSH2 0x22B4 JUMPI PUSH1 0x40 MLOAD PUSH32 0x8C379A000000000000000000000000000000000000000000000000000000000 DUP2 MSTORE PUSH1 0x4 ADD PUSH2 0x22AB SWAP1 PUSH2 0x414A JUMP JUMPDEST PUSH1 0x40 MLOAD DUP1 SWAP2 SUB SWAP1 REVERT JUMPDEST PUSH2 0x2350 PUSH1 0x1 DUP3 DUP2 SLOAD DUP2 LT PUSH2 0x22CB JUMPI PUSH2 0x22CA PUSH2 0x416A JUMP JUMPDEST JUMPDEST SWAP1 PUSH1 0x0 MSTORE PUSH1 0x20 PUSH1 0x0 KECCAK256 SWAP1 PUSH1 0x5 MUL ADD PUSH1 0x0 ADD PUSH1 0x0 SWAP1 SLOAD SWAP1 PUSH2 0x100 EXP SWAP1 DIV PUSH20 0xFFFFFFFFFFFFFFFFFFFFFFFFFFFFFFFFFFFFFFFF AND PUSH1 0x1 DUP4 DUP2 SLOAD DUP2 LT PUSH2 0x2311 JUMPI PUSH2 0x2310 PUSH2 0x416A JUMP JUMPDEST JUMPDEST SWAP1 PUSH1 0x0 MSTORE PUSH1 0x20 PUSH1 0x0 KECCAK256 SWAP1 PUSH1 0x5 MUL ADD PUSH1 0x1 ADD SLOAD PUSH1 0x1 DUP5 DUP2 SLOAD DUP2 LT PUSH2 0x2337 JUMPI PUSH2 0x2336 PUSH2 0x416A JUMP JUMPDEST JUMPDEST SWAP1 PUSH1 0x0 MSTORE PUSH1 0x20 PUSH1 0x0 KECCAK256 SWAP1 PUSH1 0x5 MUL ADD PUSH1 0x2 ADD SLOAD ADDRESS DUP8 PUSH2 0x2423 JUMP JUMPDEST POP PUSH2 0x240A DUP2 PUSH1 0x2 PUSH1 0x1 DUP5 DUP2 SLOAD DUP2 LT PUSH2 0x236B JUMPI PUSH2 0x236A PUSH2 0x416A JUMP JUMPDEST JUMPDEST SWAP1 PUSH1 0x0 MSTORE PUSH1 0x20 PUSH1 0x0 KECCAK256 SWAP1 PUSH1 0x5 MUL ADD PUSH1 0x4 ADD DUP1 SLOAD PUSH2 0x2387 SWAP1 PUSH2 0x408A JUMP JUMPDEST DUP1 PUSH1 0x1F ADD PUSH1 0x20 DUP1 SWAP2 DIV MUL PUSH1 0x20 ADD PUSH1 0x40 MLOAD SWAP1 DUP2 ADD PUSH1 0x40 MSTORE DUP1 SWAP3 SWAP2 SWAP1 DUP2 DUP2 MSTORE PUSH1 0x20 ADD DUP3 DUP1 SLOAD PUSH2 0x23B3 SWAP1 PUSH2 0x408A JUMP JUMPDEST DUP1 ISZERO PUSH2 0x2400 JUMPI DUP1 PUSH1 0x1F LT PUSH2 0x23D5 JUMPI PUSH2 0x100 DUP1 DUP4 SLOAD DIV MUL DUP4 MSTORE SWAP2 PUSH1 0x20 ADD SWAP2 PUSH2 0x2400 JUMP JUMPDEST DUP3 ADD SWAP2 SWAP1 PUSH1 0x0 MSTORE PUSH1 0x20 PUSH1 0x0 KECCAK256 SWAP1 JUMPDEST DUP2 SLOAD DUP2 MSTORE SWAP1 PUSH1 0x1 ADD SWAP1 PUSH1 0x20 ADD DUP1 DUP4 GT PUSH2 0x23E3 JUMPI DUP3 SWAP1 SUB PUSH1 0x1F AND DUP3 ADD SWAP2 JUMPDEST POP POP POP POP POP PUSH2 0x25F6 JUMP JUMPDEST POP DUP1 DUP1 PUSH2 0x2416 SWAP1 PUSH2 0x4489 JUMP JUMPDEST SWAP2 POP POP PUSH2 0x223D JUMP JUMPDEST POP POP POP JUMP JUMPDEST PUSH1 0x0 DUP1 PUSH20 0xFFFFFFFFFFFFFFFFFFFFFFFFFFFFFFFFFFFFFFFF AND DUP3 PUSH20 0xFFFFFFFFFFFFFFFFFFFFFFFFFFFFFFFFFFFFFFFF AND EQ ISZERO PUSH2 0x2494 JUMPI PUSH1 0x40 MLOAD PUSH32 0x8C379A000000000000000000000000000000000000000000000000000000000 DUP2 MSTORE PUSH1 0x4 ADD PUSH2 0x248B SWAP1 PUSH2 0x47DE JUMP JUMPDEST PUSH1 0x40 MLOAD DUP1 SWAP2 SUB SWAP1 REVERT JUMPDEST PUSH2 0x24A5 DUP7 PUSH4 0xD9B67A26 PUSH1 0xE0 SHL PUSH2 0x2E9F JUMP JUMPDEST ISZERO PUSH2 0x2524 JUMPI DUP6 PUSH20 0xFFFFFFFFFFFFFFFFFFFFFFFFFFFFFFFFFFFFFFFF AND PUSH4 0xF242432A DUP5 DUP5 DUP9 DUP9 PUSH1 0x40 MLOAD DUP6 PUSH4 0xFFFFFFFF AND PUSH1 0xE0 SHL DUP2 MSTORE PUSH1 0x4 ADD PUSH2 0x24E9 SWAP5 SWAP4 SWAP3 SWAP2 SWAP1 PUSH2 0x4835 JUMP JUMPDEST PUSH1 0x0 PUSH1 0x40 MLOAD DUP1 DUP4 SUB DUP2 PUSH1 0x0 DUP8 DUP1 EXTCODESIZE ISZERO DUP1 ISZERO PUSH2 0x2503 JUMPI PUSH1 0x0 DUP1 REVERT JUMPDEST POP GAS CALL ISZERO DUP1 ISZERO PUSH2 0x2517 JUMPI RETURNDATASIZE PUSH1 0x0 DUP1 RETURNDATACOPY RETURNDATASIZE PUSH1 0x0 REVERT JUMPDEST POP POP POP POP PUSH1 0x1 SWAP1 POP PUSH2 0x25ED JUMP JUMPDEST PUSH2 0x2535 DUP7 PUSH4 0x80AC58CD PUSH1 0xE0 SHL PUSH2 0x2E9F JUMP JUMPDEST ISZERO PUSH2 0x25B2 JUMPI DUP6 PUSH20 0xFFFFFFFFFFFFFFFFFFFFFFFFFFFFFFFFFFFFFFFF AND PUSH4 0x42842E0E DUP5 DUP5 DUP9 PUSH1 0x40 MLOAD DUP5 PUSH4 0xFFFFFFFF AND PUSH1 0xE0 SHL DUP2 MSTORE PUSH1 0x4 ADD PUSH2 0x2577 SWAP4 SWAP3 SWAP2 SWAP1 PUSH2 0x488D JUMP JUMPDEST PUSH1 0x0 PUSH1 0x40 MLOAD DUP1 DUP4 SUB DUP2 PUSH1 0x0 DUP8 DUP1 EXTCODESIZE ISZERO DUP1 ISZERO PUSH2 0x2591 JUMPI PUSH1 0x0 DUP1 REVERT JUMPDEST POP GAS CALL ISZERO DUP1 ISZERO PUSH2 0x25A5 JUMPI RETURNDATASIZE PUSH1 0x0 DUP1 RETURNDATACOPY RETURNDATASIZE PUSH1 0x0 REVERT JUMPDEST POP POP POP POP PUSH1 0x0 SWAP1 POP PUSH2 0x25ED JUMP JUMPDEST PUSH1 0x40 MLOAD PUSH32 0x8C379A000000000000000000000000000000000000000000000000000000000 DUP2 MSTORE PUSH1 0x4 ADD PUSH2 0x25E4 SWAP1 PUSH2 0x4910 JUMP JUMPDEST PUSH1 0x40 MLOAD DUP1 SWAP2 SUB SWAP1 REVERT JUMPDEST SWAP6 SWAP5 POP POP POP POP POP JUMP JUMPDEST PUSH1 0x0 PUSH1 0x1 DUP5 DUP2 SLOAD DUP2 LT PUSH2 0x260C JUMPI PUSH2 0x260B PUSH2 0x416A JUMP JUMPDEST JUMPDEST SWAP1 PUSH1 0x0 MSTORE PUSH1 0x20 PUSH1 0x0 KECCAK256 SWAP1 PUSH1 0x5 MUL ADD PUSH1 0x3 ADD PUSH1 0x1 SWAP1 SLOAD SWAP1 PUSH2 0x100 EXP SWAP1 DIV PUSH1 0xFF AND SWAP1 POP DUP2 PUSH1 0x1 DUP6 DUP2 SLOAD DUP2 LT PUSH2 0x2642 JUMPI PUSH2 0x2641 PUSH2 0x416A JUMP JUMPDEST JUMPDEST SWAP1 PUSH1 0x0 MSTORE PUSH1 0x20 PUSH1 0x0 KECCAK256 SWAP1 PUSH1 0x5 MUL ADD PUSH1 0x4 ADD SWAP1 DUP1 MLOAD SWAP1 PUSH1 0x20 ADD SWAP1 PUSH2 0x2666 SWAP3 SWAP2 SWAP1 PUSH2 0x3142 JUMP JUMPDEST POP DUP3 PUSH1 0x1 DUP6 DUP2 SLOAD DUP2 LT PUSH2 0x267C JUMPI PUSH2 0x267B PUSH2 0x416A JUMP JUMPDEST JUMPDEST SWAP1 PUSH1 0x0 MSTORE PUSH1 0x20 PUSH1 0x0 KECCAK256 SWAP1 PUSH1 0x5 MUL ADD PUSH1 0x3 ADD PUSH1 0x1 PUSH2 0x100 EXP DUP2 SLOAD DUP2 PUSH1 0xFF MUL NOT AND SWAP1 DUP4 PUSH1 0x2 DUP2 GT ISZERO PUSH2 0x26AF JUMPI PUSH2 0x26AE PUSH2 0x361B JUMP JUMPDEST JUMPDEST MUL OR SWAP1 SSTORE POP PUSH1 0x0 PUSH1 0x2 DUP2 GT ISZERO PUSH2 0x26C8 JUMPI PUSH2 0x26C7 PUSH2 0x361B JUMP JUMPDEST JUMPDEST DUP2 PUSH1 0x2 DUP2 GT ISZERO PUSH2 0x26DB JUMPI PUSH2 0x26DA PUSH2 0x361B JUMP JUMPDEST JUMPDEST EQ DUP1 ISZERO PUSH2 0x270C JUMPI POP PUSH1 0x0 PUSH1 0x2 DUP2 GT ISZERO PUSH2 0x26F7 JUMPI PUSH2 0x26F6 PUSH2 0x361B JUMP JUMPDEST JUMPDEST DUP4 PUSH1 0x2 DUP2 GT ISZERO PUSH2 0x270A JUMPI PUSH2 0x2709 PUSH2 0x361B JUMP JUMPDEST JUMPDEST EQ JUMPDEST ISZERO PUSH2 0x2717 JUMPI POP PUSH2 0x278F JUMP JUMPDEST PUSH1 0x0 PUSH1 0x2 DUP2 GT ISZERO PUSH2 0x272B JUMPI PUSH2 0x272A PUSH2 0x361B JUMP JUMPDEST JUMPDEST DUP2 PUSH1 0x2 DUP2 GT ISZERO PUSH2 0x273E JUMPI PUSH2 0x273D PUSH2 0x361B JUMP JUMPDEST JUMPDEST EQ ISZERO DUP1 ISZERO PUSH2 0x2770 JUMPI POP PUSH1 0x0 PUSH1 0x2 DUP2 GT ISZERO PUSH2 0x275B JUMPI PUSH2 0x275A PUSH2 0x361B JUMP JUMPDEST JUMPDEST DUP4 PUSH1 0x2 DUP2 GT ISZERO PUSH2 0x276E JUMPI PUSH2 0x276D PUSH2 0x361B JUMP JUMPDEST JUMPDEST EQ JUMPDEST ISZERO PUSH2 0x2783 JUMPI PUSH2 0x277E DUP5 PUSH2 0x2EC4 JUMP JUMPDEST PUSH2 0x278D JUMP JUMPDEST PUSH2 0x278C DUP5 PUSH2 0x2EF0 JUMP JUMPDEST JUMPDEST POP JUMPDEST POP POP POP JUMP JUMPDEST PUSH1 0x0 PUSH1 0x2 DUP2 GT ISZERO PUSH2 0x27A8 JUMPI PUSH2 0x27A7 PUSH2 0x361B JUMP JUMPDEST JUMPDEST PUSH2 0x27B0 PUSH2 0x1E0D JUMP JUMPDEST PUSH1 0x2 DUP2 GT ISZERO PUSH2 0x27C2 JUMPI PUSH2 0x27C1 PUSH2 0x361B JUMP JUMPDEST JUMPDEST EQ PUSH2 0x2802 JUMPI PUSH1 0x40 MLOAD PUSH32 0x8C379A000000000000000000000000000000000000000000000000000000000 DUP2 MSTORE PUSH1 0x4 ADD PUSH2 0x27F9 SWAP1 PUSH2 0x497C JUMP JUMPDEST PUSH1 0x40 MLOAD DUP1 SWAP2 SUB SWAP1 REVERT JUMPDEST PUSH1 0x0 JUMPDEST DUP5 MLOAD DUP2 PUSH2 0xFFFF AND LT ISZERO PUSH2 0x2E98 JUMPI PUSH1 0x0 PUSH2 0x287B DUP7 DUP4 PUSH2 0xFFFF AND DUP2 MLOAD DUP2 LT PUSH2 0x282E JUMPI PUSH2 0x282D PUSH2 0x416A JUMP JUMPDEST JUMPDEST PUSH1 0x20 MUL PUSH1 0x20 ADD ADD MLOAD DUP7 DUP5 PUSH2 0xFFFF AND DUP2 MLOAD DUP2 LT PUSH2 0x284D JUMPI PUSH2 0x284C PUSH2 0x416A JUMP JUMPDEST JUMPDEST PUSH1 0x20 MUL PUSH1 0x20 ADD ADD MLOAD DUP7 DUP6 PUSH2 0xFFFF AND DUP2 MLOAD DUP2 LT PUSH2 0x286C JUMPI PUSH2 0x286B PUSH2 0x416A JUMP JUMPDEST JUMPDEST PUSH1 0x20 MUL PUSH1 0x20 ADD ADD MLOAD DUP7 ADDRESS PUSH2 0x2423 JUMP JUMPDEST SWAP1 POP PUSH1 0x0 PUSH1 0x3 PUSH1 0x0 DUP9 DUP6 PUSH2 0xFFFF AND DUP2 MLOAD DUP2 LT PUSH2 0x289A JUMPI PUSH2 0x2899 PUSH2 0x416A JUMP JUMPDEST JUMPDEST PUSH1 0x20 MUL PUSH1 0x20 ADD ADD MLOAD PUSH20 0xFFFFFFFFFFFFFFFFFFFFFFFFFFFFFFFFFFFFFFFF AND PUSH20 0xFFFFFFFFFFFFFFFFFFFFFFFFFFFFFFFFFFFFFFFF AND DUP2 MSTORE PUSH1 0x20 ADD SWAP1 DUP2 MSTORE PUSH1 0x20 ADD PUSH1 0x0 KECCAK256 PUSH1 0x0 DUP8 DUP6 PUSH2 0xFFFF AND DUP2 MLOAD DUP2 LT PUSH2 0x28F5 JUMPI PUSH2 0x28F4 PUSH2 0x416A JUMP JUMPDEST JUMPDEST PUSH1 0x20 MUL PUSH1 0x20 ADD ADD MLOAD DUP2 MSTORE PUSH1 0x20 ADD SWAP1 DUP2 MSTORE PUSH1 0x20 ADD PUSH1 0x0 KECCAK256 SLOAD SWAP1 POP PUSH1 0x1 PUSH1 0x2 DUP2 GT ISZERO PUSH2 0x2922 JUMPI PUSH2 0x2921 PUSH2 0x361B JUMP JUMPDEST JUMPDEST PUSH1 0x1 DUP3 DUP2 SLOAD DUP2 LT PUSH2 0x2936 JUMPI PUSH2 0x2935 PUSH2 0x416A JUMP JUMPDEST JUMPDEST SWAP1 PUSH1 0x0 MSTORE PUSH1 0x20 PUSH1 0x0 KECCAK256 SWAP1 PUSH1 0x5 MUL ADD PUSH1 0x3 ADD PUSH1 0x1 SWAP1 SLOAD SWAP1 PUSH2 0x100 EXP SWAP1 DIV PUSH1 0xFF AND PUSH1 0x2 DUP2 GT ISZERO PUSH2 0x2967 JUMPI PUSH2 0x2966 PUSH2 0x361B JUMP JUMPDEST JUMPDEST EQ ISZERO PUSH2 0x29A8 JUMPI PUSH1 0x40 MLOAD PUSH32 0x8C379A000000000000000000000000000000000000000000000000000000000 DUP2 MSTORE PUSH1 0x4 ADD PUSH2 0x299F SWAP1 PUSH2 0x497C JUMP JUMPDEST PUSH1 0x40 MLOAD DUP1 SWAP2 SUB SWAP1 REVERT JUMPDEST PUSH1 0x0 PUSH1 0xFF AND DUP2 EQ ISZERO DUP1 ISZERO PUSH2 0x2A12 JUMPI POP PUSH1 0x0 PUSH1 0x2 DUP2 GT ISZERO PUSH2 0x29CB JUMPI PUSH2 0x29CA PUSH2 0x361B JUMP JUMPDEST JUMPDEST PUSH1 0x1 DUP3 DUP2 SLOAD DUP2 LT PUSH2 0x29DF JUMPI PUSH2 0x29DE PUSH2 0x416A JUMP JUMPDEST JUMPDEST SWAP1 PUSH1 0x0 MSTORE PUSH1 0x20 PUSH1 0x0 KECCAK256 SWAP1 PUSH1 0x5 MUL ADD PUSH1 0x3 ADD PUSH1 0x1 SWAP1 SLOAD SWAP1 PUSH2 0x100 EXP SWAP1 DIV PUSH1 0xFF AND PUSH1 0x2 DUP2 GT ISZERO PUSH2 0x2A10 JUMPI PUSH2 0x2A0F PUSH2 0x361B JUMP JUMPDEST JUMPDEST EQ JUMPDEST ISZERO PUSH2 0x2BCC JUMPI DUP7 DUP4 PUSH2 0xFFFF AND DUP2 MLOAD DUP2 LT PUSH2 0x2A2E JUMPI PUSH2 0x2A2D PUSH2 0x416A JUMP JUMPDEST JUMPDEST PUSH1 0x20 MUL PUSH1 0x20 ADD ADD MLOAD PUSH20 0xFFFFFFFFFFFFFFFFFFFFFFFFFFFFFFFFFFFFFFFF AND PUSH1 0x1 DUP3 DUP2 SLOAD DUP2 LT PUSH2 0x2A60 JUMPI PUSH2 0x2A5F PUSH2 0x416A JUMP JUMPDEST JUMPDEST SWAP1 PUSH1 0x0 MSTORE PUSH1 0x20 PUSH1 0x0 KECCAK256 SWAP1 PUSH1 0x5 MUL ADD PUSH1 0x0 ADD PUSH1 0x0 SWAP1 SLOAD SWAP1 PUSH2 0x100 EXP SWAP1 DIV PUSH20 0xFFFFFFFFFFFFFFFFFFFFFFFFFFFFFFFFFFFFFFFF AND PUSH20 0xFFFFFFFFFFFFFFFFFFFFFFFFFFFFFFFFFFFFFFFF AND EQ PUSH2 0x2AE8 JUMPI PUSH1 0x40 MLOAD PUSH32 0x8C379A000000000000000000000000000000000000000000000000000000000 DUP2 MSTORE PUSH1 0x4 ADD PUSH2 0x2ADF SWAP1 PUSH2 0x49E8 JUMP JUMPDEST PUSH1 0x40 MLOAD DUP1 SWAP2 SUB SWAP1 REVERT JUMPDEST DUP6 DUP4 PUSH2 0xFFFF AND DUP2 MLOAD DUP2 LT PUSH2 0x2AFF JUMPI PUSH2 0x2AFE PUSH2 0x416A JUMP JUMPDEST JUMPDEST PUSH1 0x20 MUL PUSH1 0x20 ADD ADD MLOAD PUSH1 0x1 DUP3 DUP2 SLOAD DUP2 LT PUSH2 0x2B1B JUMPI PUSH2 0x2B1A PUSH2 0x416A JUMP JUMPDEST JUMPDEST SWAP1 PUSH1 0x0 MSTORE PUSH1 0x20 PUSH1 0x0 KECCAK256 SWAP1 PUSH1 0x5 MUL ADD PUSH1 0x1 ADD SLOAD EQ PUSH2 0x2B6D JUMPI PUSH1 0x40 MLOAD PUSH32 0x8C379A000000000000000000000000000000000000000000000000000000000 DUP2 MSTORE PUSH1 0x4 ADD PUSH2 0x2B64 SWAP1 PUSH2 0x4A54 JUMP JUMPDEST PUSH1 0x40 MLOAD DUP1 SWAP2 SUB SWAP1 REVERT JUMPDEST DUP5 DUP4 PUSH2 0xFFFF AND DUP2 MLOAD DUP2 LT PUSH2 0x2B84 JUMPI PUSH2 0x2B83 PUSH2 0x416A JUMP JUMPDEST JUMPDEST PUSH1 0x20 MUL PUSH1 0x20 ADD ADD MLOAD PUSH1 0x1 DUP3 DUP2 SLOAD DUP2 LT PUSH2 0x2BA0 JUMPI PUSH2 0x2B9F PUSH2 0x416A JUMP JUMPDEST JUMPDEST SWAP1 PUSH1 0x0 MSTORE PUSH1 0x20 PUSH1 0x0 KECCAK256 SWAP1 PUSH1 0x5 MUL ADD PUSH1 0x2 ADD PUSH1 0x0 DUP3 DUP3 SLOAD PUSH2 0x2BC0 SWAP2 SWAP1 PUSH2 0x4A74 JUMP JUMPDEST SWAP3 POP POP DUP2 SWAP1 SSTORE POP PUSH2 0x2E83 JUMP JUMPDEST PUSH1 0x1 PUSH1 0x40 MLOAD DUP1 PUSH1 0xC0 ADD PUSH1 0x40 MSTORE DUP1 DUP10 DUP7 PUSH2 0xFFFF AND DUP2 MLOAD DUP2 LT PUSH2 0x2BF0 JUMPI PUSH2 0x2BEF PUSH2 0x416A JUMP JUMPDEST JUMPDEST PUSH1 0x20 MUL PUSH1 0x20 ADD ADD MLOAD PUSH20 0xFFFFFFFFFFFFFFFFFFFFFFFFFFFFFFFFFFFFFFFF AND DUP2 MSTORE PUSH1 0x20 ADD DUP9 DUP7 PUSH2 0xFFFF AND DUP2 MLOAD DUP2 LT PUSH2 0x2C2A JUMPI PUSH2 0x2C29 PUSH2 0x416A JUMP JUMPDEST JUMPDEST PUSH1 0x20 MUL PUSH1 0x20 ADD ADD MLOAD DUP2 MSTORE PUSH1 0x20 ADD DUP8 DUP7 PUSH2 0xFFFF AND DUP2 MLOAD DUP2 LT PUSH2 0x2C4E JUMPI PUSH2 0x2C4D PUSH2 0x416A JUMP JUMPDEST JUMPDEST PUSH1 0x20 MUL PUSH1 0x20 ADD ADD MLOAD DUP2 MSTORE PUSH1 0x20 ADD DUP5 PUSH1 0x2 DUP2 GT ISZERO PUSH2 0x2C6E JUMPI PUSH2 0x2C6D PUSH2 0x361B JUMP JUMPDEST JUMPDEST DUP2 MSTORE PUSH1 0x20 ADD PUSH1 0x0 PUSH1 0x2 DUP2 GT ISZERO PUSH2 0x2C87 JUMPI PUSH2 0x2C86 PUSH2 0x361B JUMP JUMPDEST JUMPDEST DUP2 MSTORE PUSH1 0x20 ADD PUSH1 0x40 MLOAD DUP1 PUSH1 0x40 ADD PUSH1 0x40 MSTORE DUP1 PUSH1 0x4 DUP2 MSTORE PUSH1 0x20 ADD PUSH32 0x6E6F6E6500000000000000000000000000000000000000000000000000000000 DUP2 MSTORE POP DUP2 MSTORE POP SWAP1 DUP1 PUSH1 0x1 DUP2 SLOAD ADD DUP1 DUP3 SSTORE DUP1 SWAP2 POP POP PUSH1 0x1 SWAP1 SUB SWAP1 PUSH1 0x0 MSTORE PUSH1 0x20 PUSH1 0x0 KECCAK256 SWAP1 PUSH1 0x5 MUL ADD PUSH1 0x0 SWAP1 SWAP2 SWAP1 SWAP2 SWAP1 SWAP2 POP PUSH1 0x0 DUP3 ADD MLOAD DUP2 PUSH1 0x0 ADD PUSH1 0x0 PUSH2 0x100 EXP DUP2 SLOAD DUP2 PUSH20 0xFFFFFFFFFFFFFFFFFFFFFFFFFFFFFFFFFFFFFFFF MUL NOT AND SWAP1 DUP4 PUSH20 0xFFFFFFFFFFFFFFFFFFFFFFFFFFFFFFFFFFFFFFFF AND MUL OR SWAP1 SSTORE POP PUSH1 0x20 DUP3 ADD MLOAD DUP2 PUSH1 0x1 ADD SSTORE PUSH1 0x40 DUP3 ADD MLOAD DUP2 PUSH1 0x2 ADD SSTORE PUSH1 0x60 DUP3 ADD MLOAD DUP2 PUSH1 0x3 ADD PUSH1 0x0 PUSH2 0x100 EXP DUP2 SLOAD DUP2 PUSH1 0xFF MUL NOT AND SWAP1 DUP4 PUSH1 0x2 DUP2 GT ISZERO PUSH2 0x2D74 JUMPI PUSH2 0x2D73 PUSH2 0x361B JUMP JUMPDEST JUMPDEST MUL OR SWAP1 SSTORE POP PUSH1 0x80 DUP3 ADD MLOAD DUP2 PUSH1 0x3 ADD PUSH1 0x1 PUSH2 0x100 EXP DUP2 SLOAD DUP2 PUSH1 0xFF MUL NOT AND SWAP1 DUP4 PUSH1 0x2 DUP2 GT ISZERO PUSH2 0x2DA4 JUMPI PUSH2 0x2DA3 PUSH2 0x361B JUMP JUMPDEST JUMPDEST MUL OR SWAP1 SSTORE POP PUSH1 0xA0 DUP3 ADD MLOAD DUP2 PUSH1 0x4 ADD SWAP1 DUP1 MLOAD SWAP1 PUSH1 0x20 ADD SWAP1 PUSH2 0x2DC5 SWAP3 SWAP2 SWAP1 PUSH2 0x3142 JUMP JUMPDEST POP POP POP PUSH1 0x1 DUP1 DUP1 SLOAD SWAP1 POP PUSH2 0x2DD9 SWAP2 SWAP1 PUSH2 0x4660 JUMP JUMPDEST PUSH1 0x3 PUSH1 0x0 DUP10 DUP7 PUSH2 0xFFFF AND DUP2 MLOAD DUP2 LT PUSH2 0x2DF4 JUMPI PUSH2 0x2DF3 PUSH2 0x416A JUMP JUMPDEST JUMPDEST PUSH1 0x20 MUL PUSH1 0x20 ADD ADD MLOAD PUSH20 0xFFFFFFFFFFFFFFFFFFFFFFFFFFFFFFFFFFFFFFFF AND PUSH20 0xFFFFFFFFFFFFFFFFFFFFFFFFFFFFFFFFFFFFFFFF AND DUP2 MSTORE PUSH1 0x20 ADD SWAP1 DUP2 MSTORE PUSH1 0x20 ADD PUSH1 0x0 KECCAK256 PUSH1 0x0 DUP9 DUP7 PUSH2 0xFFFF AND DUP2 MLOAD DUP2 LT PUSH2 0x2E4F JUMPI PUSH2 0x2E4E PUSH2 0x416A JUMP JUMPDEST JUMPDEST PUSH1 0x20 MUL PUSH1 0x20 ADD ADD MLOAD DUP2 MSTORE PUSH1 0x20 ADD SWAP1 DUP2 MSTORE PUSH1 0x20 ADD PUSH1 0x0 KECCAK256 DUP2 SWAP1 SSTORE POP PUSH2 0x2E82 PUSH1 0x1 DUP1 DUP1 SLOAD SWAP1 POP PUSH2 0x2E7D SWAP2 SWAP1 PUSH2 0x4660 JUMP JUMPDEST PUSH2 0x2EC4 JUMP JUMPDEST JUMPDEST POP POP DUP1 DUP1 PUSH2 0x2E90 SWAP1 PUSH2 0x4489 JUMP JUMPDEST SWAP2 POP POP PUSH2 0x2805 JUMP JUMPDEST POP POP POP POP POP JUMP JUMPDEST PUSH1 0x0 PUSH2 0x2EAA DUP4 PUSH2 0x2FCA JUMP JUMPDEST DUP1 ISZERO PUSH2 0x2EBC JUMPI POP PUSH2 0x2EBB DUP4 DUP4 PUSH2 0x3017 JUMP JUMPDEST JUMPDEST SWAP1 POP SWAP3 SWAP2 POP POP JUMP JUMPDEST PUSH1 0x2 DUP2 SWAP1 DUP1 PUSH1 0x1 DUP2 SLOAD ADD DUP1 DUP3 SSTORE DUP1 SWAP2 POP POP PUSH1 0x1 SWAP1 SUB SWAP1 PUSH1 0x0 MSTORE PUSH1 0x20 PUSH1 0x0 KECCAK256 ADD PUSH1 0x0 SWAP1 SWAP2 SWAP1 SWAP2 SWAP1 SWAP2 POP SSTORE POP JUMP JUMPDEST PUSH1 0x0 JUMPDEST PUSH1 0x2 DUP1 SLOAD SWAP1 POP DUP2 PUSH4 0xFFFFFFFF AND LT ISZERO PUSH2 0x2FC6 JUMPI DUP2 PUSH1 0x2 DUP3 PUSH4 0xFFFFFFFF AND DUP2 SLOAD DUP2 LT PUSH2 0x2F21 JUMPI PUSH2 0x2F20 PUSH2 0x416A JUMP JUMPDEST JUMPDEST SWAP1 PUSH1 0x0 MSTORE PUSH1 0x20 PUSH1 0x0 KECCAK256 ADD SLOAD EQ ISZERO PUSH2 0x2FB3 JUMPI PUSH1 0x2 PUSH1 0x1 PUSH1 0x2 DUP1 SLOAD SWAP1 POP PUSH2 0x2F46 SWAP2 SWAP1 PUSH2 0x4660 JUMP JUMPDEST DUP2 SLOAD DUP2 LT PUSH2 0x2F57 JUMPI PUSH2 0x2F56 PUSH2 0x416A JUMP JUMPDEST JUMPDEST SWAP1 PUSH1 0x0 MSTORE PUSH1 0x20 PUSH1 0x0 KECCAK256 ADD SLOAD PUSH1 0x2 DUP3 PUSH4 0xFFFFFFFF AND DUP2 SLOAD DUP2 LT PUSH2 0x2F7C JUMPI PUSH2 0x2F7B PUSH2 0x416A JUMP JUMPDEST JUMPDEST SWAP1 PUSH1 0x0 MSTORE PUSH1 0x20 PUSH1 0x0 KECCAK256 ADD DUP2 SWAP1 SSTORE POP PUSH1 0x2 DUP1 SLOAD DUP1 PUSH2 0x2F9C JUMPI PUSH2 0x2F9B PUSH2 0x4ACA JUMP JUMPDEST JUMPDEST PUSH1 0x1 SWAP1 SUB DUP2 DUP2 SWAP1 PUSH1 0x0 MSTORE PUSH1 0x20 PUSH1 0x0 KECCAK256 ADD PUSH1 0x0 SWAP1 SSTORE SWAP1 SSTORE JUMPDEST DUP1 DUP1 PUSH2 0x2FBE SWAP1 PUSH2 0x4B09 JUMP JUMPDEST SWAP2 POP POP PUSH2 0x2EF3 JUMP JUMPDEST POP POP JUMP JUMPDEST PUSH1 0x0 PUSH2 0x2FF6 DUP3 PUSH32 0x1FFC9A700000000000000000000000000000000000000000000000000000000 PUSH2 0x3017 JUMP JUMPDEST DUP1 ISZERO PUSH2 0x3010 JUMPI POP PUSH2 0x300E DUP3 PUSH4 0xFFFFFFFF PUSH1 0xE0 SHL PUSH2 0x3017 JUMP JUMPDEST ISZERO JUMPDEST SWAP1 POP SWAP2 SWAP1 POP JUMP JUMPDEST PUSH1 0x0 DUP1 PUSH4 0x1FFC9A7 PUSH1 0xE0 SHL DUP4 PUSH1 0x40 MLOAD PUSH1 0x24 ADD PUSH2 0x3033 SWAP2 SWAP1 PUSH2 0x35B5 JUMP JUMPDEST PUSH1 0x40 MLOAD PUSH1 0x20 DUP2 DUP4 SUB SUB DUP2 MSTORE SWAP1 PUSH1 0x40 MSTORE SWAP1 PUSH28 0xFFFFFFFFFFFFFFFFFFFFFFFFFFFFFFFFFFFFFFFFFFFFFFFFFFFFFFFF NOT AND PUSH1 0x20 DUP3 ADD DUP1 MLOAD PUSH28 0xFFFFFFFFFFFFFFFFFFFFFFFFFFFFFFFFFFFFFFFFFFFFFFFFFFFFFFFF DUP4 DUP2 DUP4 AND OR DUP4 MSTORE POP POP POP POP SWAP1 POP PUSH1 0x0 DUP1 DUP6 PUSH20 0xFFFFFFFFFFFFFFFFFFFFFFFFFFFFFFFFFFFFFFFF AND PUSH2 0x7530 DUP5 PUSH1 0x40 MLOAD PUSH2 0x30BD SWAP2 SWAP1 PUSH2 0x4B7D JUMP JUMPDEST PUSH1 0x0 PUSH1 0x40 MLOAD DUP1 DUP4 SUB DUP2 DUP7 DUP7 STATICCALL SWAP3 POP POP POP RETURNDATASIZE DUP1 PUSH1 0x0 DUP2 EQ PUSH2 0x30F9 JUMPI PUSH1 0x40 MLOAD SWAP2 POP PUSH1 0x1F NOT PUSH1 0x3F RETURNDATASIZE ADD AND DUP3 ADD PUSH1 0x40 MSTORE RETURNDATASIZE DUP3 MSTORE RETURNDATASIZE PUSH1 0x0 PUSH1 0x20 DUP5 ADD RETURNDATACOPY PUSH2 0x30FE JUMP JUMPDEST PUSH1 0x60 SWAP2 POP JUMPDEST POP SWAP2 POP SWAP2 POP PUSH1 0x20 DUP2 MLOAD LT ISZERO PUSH2 0x3119 JUMPI PUSH1 0x0 SWAP4 POP POP POP POP PUSH2 0x313C JUMP JUMPDEST DUP2 DUP1 ISZERO PUSH2 0x3136 JUMPI POP DUP1 DUP1 PUSH1 0x20 ADD SWAP1 MLOAD DUP2 ADD SWAP1 PUSH2 0x3135 SWAP2 SWAP1 PUSH2 0x3FC2 JUMP JUMPDEST JUMPDEST SWAP4 POP POP POP POP JUMPDEST SWAP3 SWAP2 POP POP JUMP JUMPDEST DUP3 DUP1 SLOAD PUSH2 0x314E SWAP1 PUSH2 0x408A JUMP JUMPDEST SWAP1 PUSH1 0x0 MSTORE PUSH1 0x20 PUSH1 0x0 KECCAK256 SWAP1 PUSH1 0x1F ADD PUSH1 0x20 SWAP1 DIV DUP2 ADD SWAP3 DUP3 PUSH2 0x3170 JUMPI PUSH1 0x0 DUP6 SSTORE PUSH2 0x31B7 JUMP JUMPDEST DUP3 PUSH1 0x1F LT PUSH2 0x3189 JUMPI DUP1 MLOAD PUSH1 0xFF NOT AND DUP4 DUP1 ADD OR DUP6 SSTORE PUSH2 0x31B7 JUMP JUMPDEST DUP3 DUP1 ADD PUSH1 0x1 ADD DUP6 SSTORE DUP3 ISZERO PUSH2 0x31B7 JUMPI SWAP2 DUP3 ADD JUMPDEST DUP3 DUP2 GT ISZERO PUSH2 0x31B6 JUMPI DUP3 MLOAD DUP3 SSTORE SWAP2 PUSH1 0x20 ADD SWAP2 SWAP1 PUSH1 0x1 ADD SWAP1 PUSH2 0x319B JUMP JUMPDEST JUMPDEST POP SWAP1 POP PUSH2 0x31C4 SWAP2 SWAP1 PUSH2 0x31C8 JUMP JUMPDEST POP SWAP1 JUMP JUMPDEST JUMPDEST DUP1 DUP3 GT ISZERO PUSH2 0x31E1 JUMPI PUSH1 0x0 DUP2 PUSH1 0x0 SWAP1 SSTORE POP PUSH1 0x1 ADD PUSH2 0x31C9 JUMP JUMPDEST POP SWAP1 JUMP JUMPDEST PUSH1 0x0 PUSH1 0x40 MLOAD SWAP1 POP SWAP1 JUMP JUMPDEST PUSH1 0x0 DUP1 REVERT JUMPDEST PUSH1 0x0 DUP1 REVERT JUMPDEST PUSH1 0x0 DUP1 REVERT JUMPDEST PUSH1 0x0 PUSH1 0x1F NOT PUSH1 0x1F DUP4 ADD AND SWAP1 POP SWAP2 SWAP1 POP JUMP JUMPDEST PUSH32 0x4E487B7100000000000000000000000000000000000000000000000000000000 PUSH1 0x0 MSTORE PUSH1 0x41 PUSH1 0x4 MSTORE PUSH1 0x24 PUSH1 0x0 REVERT JUMPDEST PUSH2 0x3247 DUP3 PUSH2 0x31FE JUMP JUMPDEST DUP2 ADD DUP2 DUP2 LT PUSH8 0xFFFFFFFFFFFFFFFF DUP3 GT OR ISZERO PUSH2 0x3266 JUMPI PUSH2 0x3265 PUSH2 0x320F JUMP JUMPDEST JUMPDEST DUP1 PUSH1 0x40 MSTORE POP POP POP JUMP JUMPDEST PUSH1 0x0 PUSH2 0x3279 PUSH2 0x31E5 JUMP JUMPDEST SWAP1 POP PUSH2 0x3285 DUP3 DUP3 PUSH2 0x323E JUMP JUMPDEST SWAP2 SWAP1 POP JUMP JUMPDEST PUSH1 0x0 PUSH8 0xFFFFFFFFFFFFFFFF DUP3 GT ISZERO PUSH2 0x32A5 JUMPI PUSH2 0x32A4 PUSH2 0x320F JUMP JUMPDEST JUMPDEST PUSH1 0x20 DUP3 MUL SWAP1 POP PUSH1 0x20 DUP2 ADD SWAP1 POP SWAP2 SWAP1 POP JUMP JUMPDEST PUSH1 0x0 DUP1 REVERT JUMPDEST PUSH1 0x0 DUP2 SWAP1 POP SWAP2 SWAP1 POP JUMP JUMPDEST PUSH2 0x32CE DUP2 PUSH2 0x32BB JUMP JUMPDEST DUP2 EQ PUSH2 0x32D9 JUMPI PUSH1 0x0 DUP1 REVERT JUMPDEST POP JUMP JUMPDEST PUSH1 0x0 DUP2 CALLDATALOAD SWAP1 POP PUSH2 0x32EB DUP2 PUSH2 0x32C5 JUMP JUMPDEST SWAP3 SWAP2 POP POP JUMP JUMPDEST PUSH1 0x0 PUSH2 0x3304 PUSH2 0x32FF DUP5 PUSH2 0x328A JUMP JUMPDEST PUSH2 0x326F JUMP JUMPDEST SWAP1 POP DUP1 DUP4 DUP3 MSTORE PUSH1 0x20 DUP3 ADD SWAP1 POP PUSH1 0x20 DUP5 MUL DUP4 ADD DUP6 DUP2 GT ISZERO PUSH2 0x3327 JUMPI PUSH2 0x3326 PUSH2 0x32B6 JUMP JUMPDEST JUMPDEST DUP4 JUMPDEST DUP2 DUP2 LT ISZERO PUSH2 0x3350 JUMPI DUP1 PUSH2 0x333C DUP9 DUP3 PUSH2 0x32DC JUMP JUMPDEST DUP5 MSTORE PUSH1 0x20 DUP5 ADD SWAP4 POP POP PUSH1 0x20 DUP2 ADD SWAP1 POP PUSH2 0x3329 JUMP JUMPDEST POP POP POP SWAP4 SWAP3 POP POP POP JUMP JUMPDEST PUSH1 0x0 DUP3 PUSH1 0x1F DUP4 ADD SLT PUSH2 0x336F JUMPI PUSH2 0x336E PUSH2 0x31F9 JUMP JUMPDEST JUMPDEST DUP2 CALLDATALOAD PUSH2 0x337F DUP5 DUP3 PUSH1 0x20 DUP7 ADD PUSH2 0x32F1 JUMP JUMPDEST SWAP2 POP POP SWAP3 SWAP2 POP POP JUMP JUMPDEST PUSH1 0x0 PUSH20 0xFFFFFFFFFFFFFFFFFFFFFFFFFFFFFFFFFFFFFFFF DUP3 AND SWAP1 POP SWAP2 SWAP1 POP JUMP JUMPDEST PUSH1 0x0 PUSH2 0x33B3 DUP3 PUSH2 0x3388 JUMP JUMPDEST SWAP1 POP SWAP2 SWAP1 POP JUMP JUMPDEST PUSH2 0x33C3 DUP2 PUSH2 0x33A8 JUMP JUMPDEST DUP2 EQ PUSH2 0x33CE JUMPI PUSH1 0x0 DUP1 REVERT JUMPDEST POP JUMP JUMPDEST PUSH1 0x0 DUP2 CALLDATALOAD SWAP1 POP PUSH2 0x33E0 DUP2 PUSH2 0x33BA JUMP JUMPDEST SWAP3 SWAP2 POP POP JUMP JUMPDEST PUSH1 0x0 DUP1 PUSH1 0x40 DUP4 DUP6 SUB SLT ISZERO PUSH2 0x33FD JUMPI PUSH2 0x33FC PUSH2 0x31EF JUMP JUMPDEST JUMPDEST PUSH1 0x0 DUP4 ADD CALLDATALOAD PUSH8 0xFFFFFFFFFFFFFFFF DUP2 GT ISZERO PUSH2 0x341B JUMPI PUSH2 0x341A PUSH2 0x31F4 JUMP JUMPDEST JUMPDEST PUSH2 0x3427 DUP6 DUP3 DUP7 ADD PUSH2 0x335A JUMP JUMPDEST SWAP3 POP POP PUSH1 0x20 PUSH2 0x3438 DUP6 DUP3 DUP7 ADD PUSH2 0x33D1 JUMP JUMPDEST SWAP2 POP POP SWAP3 POP SWAP3 SWAP1 POP JUMP JUMPDEST PUSH1 0x0 DUP1 REVERT JUMPDEST PUSH1 0x0 PUSH8 0xFFFFFFFFFFFFFFFF DUP3 GT ISZERO PUSH2 0x3462 JUMPI PUSH2 0x3461 PUSH2 0x320F JUMP JUMPDEST JUMPDEST PUSH2 0x346B DUP3 PUSH2 0x31FE JUMP JUMPDEST SWAP1 POP PUSH1 0x20 DUP2 ADD SWAP1 POP SWAP2 SWAP1 POP JUMP JUMPDEST DUP3 DUP2 DUP4 CALLDATACOPY PUSH1 0x0 DUP4 DUP4 ADD MSTORE POP POP POP JUMP JUMPDEST PUSH1 0x0 PUSH2 0x349A PUSH2 0x3495 DUP5 PUSH2 0x3447 JUMP JUMPDEST PUSH2 0x326F JUMP JUMPDEST SWAP1 POP DUP3 DUP2 MSTORE PUSH1 0x20 DUP2 ADD DUP5 DUP5 DUP5 ADD GT ISZERO PUSH2 0x34B6 JUMPI PUSH2 0x34B5 PUSH2 0x3442 JUMP JUMPDEST JUMPDEST PUSH2 0x34C1 DUP5 DUP3 DUP6 PUSH2 0x3478 JUMP JUMPDEST POP SWAP4 SWAP3 POP POP POP JUMP JUMPDEST PUSH1 0x0 DUP3 PUSH1 0x1F DUP4 ADD SLT PUSH2 0x34DE JUMPI PUSH2 0x34DD PUSH2 0x31F9 JUMP JUMPDEST JUMPDEST DUP2 CALLDATALOAD PUSH2 0x34EE DUP5 DUP3 PUSH1 0x20 DUP7 ADD PUSH2 0x3487 JUMP JUMPDEST SWAP2 POP POP SWAP3 SWAP2 POP POP JUMP JUMPDEST PUSH1 0x0 DUP1 PUSH1 0x0 DUP1 PUSH1 0x80 DUP6 DUP8 SUB SLT ISZERO PUSH2 0x3511 JUMPI PUSH2 0x3510 PUSH2 0x31EF JUMP JUMPDEST JUMPDEST PUSH1 0x0 PUSH2 0x351F DUP8 DUP3 DUP9 ADD PUSH2 0x33D1 JUMP JUMPDEST SWAP5 POP POP PUSH1 0x20 PUSH2 0x3530 DUP8 DUP3 DUP9 ADD PUSH2 0x33D1 JUMP JUMPDEST SWAP4 POP POP PUSH1 0x40 PUSH2 0x3541 DUP8 DUP3 DUP9 ADD PUSH2 0x32DC JUMP JUMPDEST SWAP3 POP POP PUSH1 0x60 DUP6 ADD CALLDATALOAD PUSH8 0xFFFFFFFFFFFFFFFF DUP2 GT ISZERO PUSH2 0x3562 JUMPI PUSH2 0x3561 PUSH2 0x31F4 JUMP JUMPDEST JUMPDEST PUSH2 0x356E DUP8 DUP3 DUP9 ADD PUSH2 0x34C9 JUMP JUMPDEST SWAP2 POP POP SWAP3 SWAP6 SWAP2 SWAP5 POP SWAP3 POP JUMP JUMPDEST PUSH1 0x0 PUSH32 0xFFFFFFFF00000000000000000000000000000000000000000000000000000000 DUP3 AND SWAP1 POP SWAP2 SWAP1 POP JUMP JUMPDEST PUSH2 0x35AF DUP2 PUSH2 0x357A JUMP JUMPDEST DUP3 MSTORE POP POP JUMP JUMPDEST PUSH1 0x0 PUSH1 0x20 DUP3 ADD SWAP1 POP PUSH2 0x35CA PUSH1 0x0 DUP4 ADD DUP5 PUSH2 0x35A6 JUMP JUMPDEST SWAP3 SWAP2 POP POP JUMP JUMPDEST PUSH1 0x0 PUSH1 0x20 DUP3 DUP5 SUB SLT ISZERO PUSH2 0x35E6 JUMPI PUSH2 0x35E5 PUSH2 0x31EF JUMP JUMPDEST JUMPDEST PUSH1 0x0 PUSH2 0x35F4 DUP5 DUP3 DUP6 ADD PUSH2 0x32DC JUMP JUMPDEST SWAP2 POP POP SWAP3 SWAP2 POP POP JUMP JUMPDEST PUSH2 0x3606 DUP2 PUSH2 0x33A8 JUMP JUMPDEST DUP3 MSTORE POP POP JUMP JUMPDEST PUSH2 0x3615 DUP2 PUSH2 0x32BB JUMP JUMPDEST DUP3 MSTORE POP POP JUMP JUMPDEST PUSH32 0x4E487B7100000000000000000000000000000000000000000000000000000000 PUSH1 0x0 MSTORE PUSH1 0x21 PUSH1 0x4 MSTORE PUSH1 0x24 PUSH1 0x0 REVERT JUMPDEST PUSH1 0x3 DUP2 LT PUSH2 0x365B JUMPI PUSH2 0x365A PUSH2 0x361B JUMP JUMPDEST JUMPDEST POP JUMP JUMPDEST PUSH1 0x0 DUP2 SWAP1 POP PUSH2 0x366C DUP3 PUSH2 0x364A JUMP JUMPDEST SWAP2 SWAP1 POP JUMP JUMPDEST PUSH1 0x0 PUSH2 0x367C DUP3 PUSH2 0x365E JUMP JUMPDEST SWAP1 POP SWAP2 SWAP1 POP JUMP JUMPDEST PUSH2 0x368C DUP2 PUSH2 0x3671 JUMP JUMPDEST DUP3 MSTORE POP POP JUMP JUMPDEST PUSH1 0x3 DUP2 LT PUSH2 0x36A3 JUMPI PUSH2 0x36A2 PUSH2 0x361B JUMP JUMPDEST JUMPDEST POP JUMP JUMPDEST PUSH1 0x0 DUP2 SWAP1 POP PUSH2 0x36B4 DUP3 PUSH2 0x3692 JUMP JUMPDEST SWAP2 SWAP1 POP JUMP JUMPDEST PUSH1 0x0 PUSH2 0x36C4 DUP3 PUSH2 0x36A6 JUMP JUMPDEST SWAP1 POP SWAP2 SWAP1 POP JUMP JUMPDEST PUSH2 0x36D4 DUP2 PUSH2 0x36B9 JUMP JUMPDEST DUP3 MSTORE POP POP JUMP JUMPDEST PUSH1 0x0 DUP2 MLOAD SWAP1 POP SWAP2 SWAP1 POP JUMP JUMPDEST PUSH1 0x0 DUP3 DUP3 MSTORE PUSH1 0x20 DUP3 ADD SWAP1 POP SWAP3 SWAP2 POP POP JUMP JUMPDEST PUSH1 0x0 JUMPDEST DUP4 DUP2 LT ISZERO PUSH2 0x3714 JUMPI DUP1 DUP3 ADD MLOAD DUP2 DUP5 ADD MSTORE PUSH1 0x20 DUP2 ADD SWAP1 POP PUSH2 0x36F9 JUMP JUMPDEST DUP4 DUP2 GT ISZERO PUSH2 0x3723 JUMPI PUSH1 0x0 DUP5 DUP5 ADD MSTORE JUMPDEST POP POP POP POP JUMP JUMPDEST PUSH1 0x0 PUSH2 0x3734 DUP3 PUSH2 0x36DA JUMP JUMPDEST PUSH2 0x373E DUP2 DUP6 PUSH2 0x36E5 JUMP JUMPDEST SWAP4 POP PUSH2 0x374E DUP2 DUP6 PUSH1 0x20 DUP7 ADD PUSH2 0x36F6 JUMP JUMPDEST PUSH2 0x3757 DUP2 PUSH2 0x31FE JUMP JUMPDEST DUP5 ADD SWAP2 POP POP SWAP3 SWAP2 POP POP JUMP JUMPDEST PUSH1 0x0 PUSH1 0xC0 DUP3 ADD SWAP1 POP PUSH2 0x3777 PUSH1 0x0 DUP4 ADD DUP10 PUSH2 0x35FD JUMP JUMPDEST PUSH2 0x3784 PUSH1 0x20 DUP4 ADD DUP9 PUSH2 0x360C JUMP JUMPDEST PUSH2 0x3791 PUSH1 0x40 DUP4 ADD DUP8 PUSH2 0x360C JUMP JUMPDEST PUSH2 0x379E PUSH1 0x60 DUP4 ADD DUP7 PUSH2 0x3683 JUMP JUMPDEST PUSH2 0x37AB PUSH1 0x80 DUP4 ADD DUP6 PUSH2 0x36CB JUMP JUMPDEST DUP2 DUP2 SUB PUSH1 0xA0 DUP4 ADD MSTORE PUSH2 0x37BD DUP2 DUP5 PUSH2 0x3729 JUMP JUMPDEST SWAP1 POP SWAP8 SWAP7 POP POP POP POP POP POP POP JUMP JUMPDEST PUSH1 0x0 PUSH1 0x20 DUP3 ADD SWAP1 POP PUSH2 0x37DF PUSH1 0x0 DUP4 ADD DUP5 PUSH2 0x360C JUMP JUMPDEST SWAP3 SWAP2 POP POP JUMP JUMPDEST PUSH1 0x0 DUP2 ISZERO ISZERO SWAP1 POP SWAP2 SWAP1 POP JUMP JUMPDEST PUSH2 0x37FA DUP2 PUSH2 0x37E5 JUMP JUMPDEST DUP3 MSTORE POP POP JUMP JUMPDEST PUSH1 0x0 PUSH1 0x20 DUP3 ADD SWAP1 POP PUSH2 0x3815 PUSH1 0x0 DUP4 ADD DUP5 PUSH2 0x37F1 JUMP JUMPDEST SWAP3 SWAP2 POP POP JUMP JUMPDEST PUSH1 0x0 DUP2 SWAP1 POP SWAP2 SWAP1 POP JUMP JUMPDEST PUSH1 0x0 PUSH2 0x3840 PUSH2 0x383B PUSH2 0x3836 DUP5 PUSH2 0x3388 JUMP JUMPDEST PUSH2 0x381B JUMP JUMPDEST PUSH2 0x3388 JUMP JUMPDEST SWAP1 POP SWAP2 SWAP1 POP JUMP JUMPDEST PUSH1 0x0 PUSH2 0x3852 DUP3 PUSH2 0x3825 JUMP JUMPDEST SWAP1 POP SWAP2 SWAP1 POP JUMP JUMPDEST PUSH1 0x0 PUSH2 0x3864 DUP3 PUSH2 0x3847 JUMP JUMPDEST SWAP1 POP SWAP2 SWAP1 POP JUMP JUMPDEST PUSH2 0x3874 DUP2 PUSH2 0x3859 JUMP JUMPDEST DUP3 MSTORE POP POP JUMP JUMPDEST PUSH1 0x0 PUSH1 0x20 DUP3 ADD SWAP1 POP PUSH2 0x388F PUSH1 0x0 DUP4 ADD DUP5 PUSH2 0x386B JUMP JUMPDEST SWAP3 SWAP2 POP POP JUMP JUMPDEST PUSH1 0x0 PUSH1 0x20 DUP3 ADD SWAP1 POP PUSH2 0x38AA PUSH1 0x0 DUP4 ADD DUP5 PUSH2 0x35FD JUMP JUMPDEST SWAP3 SWAP2 POP POP JUMP JUMPDEST PUSH1 0x0 DUP1 PUSH1 0x40 DUP4 DUP6 SUB SLT ISZERO PUSH2 0x38C7 JUMPI PUSH2 0x38C6 PUSH2 0x31EF JUMP JUMPDEST JUMPDEST PUSH1 0x0 PUSH2 0x38D5 DUP6 DUP3 DUP7 ADD PUSH2 0x33D1 JUMP JUMPDEST SWAP3 POP POP PUSH1 0x20 PUSH2 0x38E6 DUP6 DUP3 DUP7 ADD PUSH2 0x32DC JUMP JUMPDEST SWAP2 POP POP SWAP3 POP SWAP3 SWAP1 POP JUMP JUMPDEST PUSH1 0x0 PUSH1 0x20 DUP3 ADD SWAP1 POP DUP2 DUP2 SUB PUSH1 0x0 DUP4 ADD MSTORE PUSH2 0x390A DUP2 DUP5 PUSH2 0x3729 JUMP JUMPDEST SWAP1 POP SWAP3 SWAP2 POP POP JUMP JUMPDEST PUSH1 0x0 DUP2 MLOAD SWAP1 POP SWAP2 SWAP1 POP JUMP JUMPDEST PUSH1 0x0 DUP3 DUP3 MSTORE PUSH1 0x20 DUP3 ADD SWAP1 POP SWAP3 SWAP2 POP POP JUMP JUMPDEST PUSH1 0x0 DUP2 SWAP1 POP PUSH1 0x20 DUP3 ADD SWAP1 POP SWAP2 SWAP1 POP JUMP JUMPDEST PUSH2 0x3947 DUP2 PUSH2 0x32BB JUMP JUMPDEST DUP3 MSTORE POP POP JUMP JUMPDEST PUSH1 0x0 PUSH2 0x3959 DUP4 DUP4 PUSH2 0x393E JUMP JUMPDEST PUSH1 0x20 DUP4 ADD SWAP1 POP SWAP3 SWAP2 POP POP JUMP JUMPDEST PUSH1 0x0 PUSH1 0x20 DUP3 ADD SWAP1 POP SWAP2 SWAP1 POP JUMP JUMPDEST PUSH1 0x0 PUSH2 0x397D DUP3 PUSH2 0x3912 JUMP JUMPDEST PUSH2 0x3987 DUP2 DUP6 PUSH2 0x391D JUMP JUMPDEST SWAP4 POP PUSH2 0x3992 DUP4 PUSH2 0x392E JUMP JUMPDEST DUP1 PUSH1 0x0 JUMPDEST DUP4 DUP2 LT ISZERO PUSH2 0x39C3 JUMPI DUP2 MLOAD PUSH2 0x39AA DUP9 DUP3 PUSH2 0x394D JUMP JUMPDEST SWAP8 POP PUSH2 0x39B5 DUP4 PUSH2 0x3965 JUMP JUMPDEST SWAP3 POP POP PUSH1 0x1 DUP2 ADD SWAP1 POP PUSH2 0x3996 JUMP JUMPDEST POP DUP6 SWAP4 POP POP POP POP SWAP3 SWAP2 POP POP JUMP JUMPDEST PUSH1 0x0 PUSH1 0x20 DUP3 ADD SWAP1 POP DUP2 DUP2 SUB PUSH1 0x0 DUP4 ADD MSTORE PUSH2 0x39EA DUP2 DUP5 PUSH2 0x3972 JUMP JUMPDEST SWAP1 POP SWAP3 SWAP2 POP POP JUMP JUMPDEST PUSH1 0x0 PUSH2 0x39FD DUP3 PUSH2 0x3388 JUMP JUMPDEST SWAP1 POP SWAP2 SWAP1 POP JUMP JUMPDEST PUSH2 0x3A0D DUP2 PUSH2 0x39F2 JUMP JUMPDEST DUP2 EQ PUSH2 0x3A18 JUMPI PUSH1 0x0 DUP1 REVERT JUMPDEST POP JUMP JUMPDEST PUSH1 0x0 DUP2 CALLDATALOAD SWAP1 POP PUSH2 0x3A2A DUP2 PUSH2 0x3A04 JUMP JUMPDEST SWAP3 SWAP2 POP POP JUMP JUMPDEST PUSH1 0x0 DUP1 PUSH1 0x40 DUP4 DUP6 SUB SLT ISZERO PUSH2 0x3A47 JUMPI PUSH2 0x3A46 PUSH2 0x31EF JUMP JUMPDEST JUMPDEST PUSH1 0x0 PUSH2 0x3A55 DUP6 DUP3 DUP7 ADD PUSH2 0x3A1B JUMP JUMPDEST SWAP3 POP POP PUSH1 0x20 PUSH2 0x3A66 DUP6 DUP3 DUP7 ADD PUSH2 0x32DC JUMP JUMPDEST SWAP2 POP POP SWAP3 POP SWAP3 SWAP1 POP JUMP JUMPDEST PUSH1 0x0 DUP1 PUSH1 0x0 PUSH1 0x60 DUP5 DUP7 SUB SLT ISZERO PUSH2 0x3A89 JUMPI PUSH2 0x3A88 PUSH2 0x31EF JUMP JUMPDEST JUMPDEST PUSH1 0x0 PUSH2 0x3A97 DUP7 DUP3 DUP8 ADD PUSH2 0x33D1 JUMP JUMPDEST SWAP4 POP POP PUSH1 0x20 PUSH2 0x3AA8 DUP7 DUP3 DUP8 ADD PUSH2 0x33D1 JUMP JUMPDEST SWAP3 POP POP PUSH1 0x40 PUSH2 0x3AB9 DUP7 DUP3 DUP8 ADD PUSH2 0x32DC JUMP JUMPDEST SWAP2 POP POP SWAP3 POP SWAP3 POP SWAP3 JUMP JUMPDEST PUSH1 0x0 PUSH1 0x20 DUP3 ADD SWAP1 POP PUSH2 0x3AD8 PUSH1 0x0 DUP4 ADD DUP5 PUSH2 0x36CB JUMP JUMPDEST SWAP3 SWAP2 POP POP JUMP JUMPDEST PUSH1 0x0 DUP1 PUSH1 0x0 DUP1 PUSH1 0x0 PUSH1 0xA0 DUP7 DUP9 SUB SLT ISZERO PUSH2 0x3AFA JUMPI PUSH2 0x3AF9 PUSH2 0x31EF JUMP JUMPDEST JUMPDEST PUSH1 0x0 PUSH2 0x3B08 DUP9 DUP3 DUP10 ADD PUSH2 0x33D1 JUMP JUMPDEST SWAP6 POP POP PUSH1 0x20 PUSH2 0x3B19 DUP9 DUP3 DUP10 ADD PUSH2 0x33D1 JUMP JUMPDEST SWAP5 POP POP PUSH1 0x40 DUP7 ADD CALLDATALOAD PUSH8 0xFFFFFFFFFFFFFFFF DUP2 GT ISZERO PUSH2 0x3B3A JUMPI PUSH2 0x3B39 PUSH2 0x31F4 JUMP JUMPDEST JUMPDEST PUSH2 0x3B46 DUP9 DUP3 DUP10 ADD PUSH2 0x335A JUMP JUMPDEST SWAP4 POP POP PUSH1 0x60 DUP7 ADD CALLDATALOAD PUSH8 0xFFFFFFFFFFFFFFFF DUP2 GT ISZERO PUSH2 0x3B67 JUMPI PUSH2 0x3B66 PUSH2 0x31F4 JUMP JUMPDEST JUMPDEST PUSH2 0x3B73 DUP9 DUP3 DUP10 ADD PUSH2 0x335A JUMP JUMPDEST SWAP3 POP POP PUSH1 0x80 DUP7 ADD CALLDATALOAD PUSH8 0xFFFFFFFFFFFFFFFF DUP2 GT ISZERO PUSH2 0x3B94 JUMPI PUSH2 0x3B93 PUSH2 0x31F4 JUMP JUMPDEST JUMPDEST PUSH2 0x3BA0 DUP9 DUP3 DUP10 ADD PUSH2 0x34C9 JUMP JUMPDEST SWAP2 POP POP SWAP3 SWAP6 POP SWAP3 SWAP6 SWAP1 SWAP4 POP JUMP JUMPDEST PUSH1 0x0 PUSH8 0xFFFFFFFFFFFFFFFF DUP3 GT ISZERO PUSH2 0x3BC8 JUMPI PUSH2 0x3BC7 PUSH2 0x320F JUMP JUMPDEST JUMPDEST PUSH1 0x20 DUP3 MUL SWAP1 POP PUSH1 0x20 DUP2 ADD SWAP1 POP SWAP2 SWAP1 POP JUMP JUMPDEST PUSH1 0x0 PUSH2 0x3BEC PUSH2 0x3BE7 DUP5 PUSH2 0x3BAD JUMP JUMPDEST PUSH2 0x326F JUMP JUMPDEST SWAP1 POP DUP1 DUP4 DUP3 MSTORE PUSH1 0x20 DUP3 ADD SWAP1 POP PUSH1 0x20 DUP5 MUL DUP4 ADD DUP6 DUP2 GT ISZERO PUSH2 0x3C0F JUMPI PUSH2 0x3C0E PUSH2 0x32B6 JUMP JUMPDEST JUMPDEST DUP4 JUMPDEST DUP2 DUP2 LT ISZERO PUSH2 0x3C38 JUMPI DUP1 PUSH2 0x3C24 DUP9 DUP3 PUSH2 0x33D1 JUMP JUMPDEST DUP5 MSTORE PUSH1 0x20 DUP5 ADD SWAP4 POP POP PUSH1 0x20 DUP2 ADD SWAP1 POP PUSH2 0x3C11 JUMP JUMPDEST POP POP POP SWAP4 SWAP3 POP POP POP JUMP JUMPDEST PUSH1 0x0 DUP3 PUSH1 0x1F DUP4 ADD SLT PUSH2 0x3C57 JUMPI PUSH2 0x3C56 PUSH2 0x31F9 JUMP JUMPDEST JUMPDEST DUP2 CALLDATALOAD PUSH2 0x3C67 DUP5 DUP3 PUSH1 0x20 DUP7 ADD PUSH2 0x3BD9 JUMP JUMPDEST SWAP2 POP POP SWAP3 SWAP2 POP POP JUMP JUMPDEST PUSH1 0x0 DUP1 PUSH1 0x0 PUSH1 0x60 DUP5 DUP7 SUB SLT ISZERO PUSH2 0x3C89 JUMPI PUSH2 0x3C88 PUSH2 0x31EF JUMP JUMPDEST JUMPDEST PUSH1 0x0 DUP5 ADD CALLDATALOAD PUSH8 0xFFFFFFFFFFFFFFFF DUP2 GT ISZERO PUSH2 0x3CA7 JUMPI PUSH2 0x3CA6 PUSH2 0x31F4 JUMP JUMPDEST JUMPDEST PUSH2 0x3CB3 DUP7 DUP3 DUP8 ADD PUSH2 0x3C42 JUMP JUMPDEST SWAP4 POP POP PUSH1 0x20 DUP5 ADD CALLDATALOAD PUSH8 0xFFFFFFFFFFFFFFFF DUP2 GT ISZERO PUSH2 0x3CD4 JUMPI PUSH2 0x3CD3 PUSH2 0x31F4 JUMP JUMPDEST JUMPDEST PUSH2 0x3CE0 DUP7 DUP3 DUP8 ADD PUSH2 0x335A JUMP JUMPDEST SWAP3 POP POP PUSH1 0x40 PUSH2 0x3CF1 DUP7 DUP3 DUP8 ADD PUSH2 0x33D1 JUMP JUMPDEST SWAP2 POP POP SWAP3 POP SWAP3 POP SWAP3 JUMP JUMPDEST PUSH1 0x0 DUP1 PUSH1 0x0 DUP1 PUSH1 0x80 DUP6 DUP8 SUB SLT ISZERO PUSH2 0x3D15 JUMPI PUSH2 0x3D14 PUSH2 0x31EF JUMP JUMPDEST JUMPDEST PUSH1 0x0 DUP6 ADD CALLDATALOAD PUSH8 0xFFFFFFFFFFFFFFFF DUP2 GT ISZERO PUSH2 0x3D33 JUMPI PUSH2 0x3D32 PUSH2 0x31F4 JUMP JUMPDEST JUMPDEST PUSH2 0x3D3F DUP8 DUP3 DUP9 ADD PUSH2 0x3C42 JUMP JUMPDEST SWAP5 POP POP PUSH1 0x20 DUP6 ADD CALLDATALOAD PUSH8 0xFFFFFFFFFFFFFFFF DUP2 GT ISZERO PUSH2 0x3D60 JUMPI PUSH2 0x3D5F PUSH2 0x31F4 JUMP JUMPDEST JUMPDEST PUSH2 0x3D6C DUP8 DUP3 DUP9 ADD PUSH2 0x335A JUMP JUMPDEST SWAP4 POP POP PUSH1 0x40 DUP6 ADD CALLDATALOAD PUSH8 0xFFFFFFFFFFFFFFFF DUP2 GT ISZERO PUSH2 0x3D8D JUMPI PUSH2 0x3D8C PUSH2 0x31F4 JUMP JUMPDEST JUMPDEST PUSH2 0x3D99 DUP8 DUP3 DUP9 ADD PUSH2 0x335A JUMP JUMPDEST SWAP3 POP POP PUSH1 0x60 PUSH2 0x3DAA DUP8 DUP3 DUP9 ADD PUSH2 0x33D1 JUMP JUMPDEST SWAP2 POP POP SWAP3 SWAP6 SWAP2 SWAP5 POP SWAP3 POP JUMP JUMPDEST PUSH1 0x3 DUP2 LT PUSH2 0x3DC3 JUMPI PUSH1 0x0 DUP1 REVERT JUMPDEST POP JUMP JUMPDEST PUSH1 0x0 DUP2 CALLDATALOAD SWAP1 POP PUSH2 0x3DD5 DUP2 PUSH2 0x3DB6 JUMP JUMPDEST SWAP3 SWAP2 POP POP JUMP JUMPDEST PUSH1 0x0 PUSH8 0xFFFFFFFFFFFFFFFF DUP3 GT ISZERO PUSH2 0x3DF6 JUMPI PUSH2 0x3DF5 PUSH2 0x320F JUMP JUMPDEST JUMPDEST PUSH2 0x3DFF DUP3 PUSH2 0x31FE JUMP JUMPDEST SWAP1 POP PUSH1 0x20 DUP2 ADD SWAP1 POP SWAP2 SWAP1 POP JUMP JUMPDEST PUSH1 0x0 PUSH2 0x3E1F PUSH2 0x3E1A DUP5 PUSH2 0x3DDB JUMP JUMPDEST PUSH2 0x326F JUMP JUMPDEST SWAP1 POP DUP3 DUP2 MSTORE PUSH1 0x20 DUP2 ADD DUP5 DUP5 DUP5 ADD GT ISZERO PUSH2 0x3E3B JUMPI PUSH2 0x3E3A PUSH2 0x3442 JUMP JUMPDEST JUMPDEST PUSH2 0x3E46 DUP5 DUP3 DUP6 PUSH2 0x3478 JUMP JUMPDEST POP SWAP4 SWAP3 POP POP POP JUMP JUMPDEST PUSH1 0x0 DUP3 PUSH1 0x1F DUP4 ADD SLT PUSH2 0x3E63 JUMPI PUSH2 0x3E62 PUSH2 0x31F9 JUMP JUMPDEST JUMPDEST DUP2 CALLDATALOAD PUSH2 0x3E73 DUP5 DUP3 PUSH1 0x20 DUP7 ADD PUSH2 0x3E0C JUMP JUMPDEST SWAP2 POP POP SWAP3 SWAP2 POP POP JUMP JUMPDEST PUSH1 0x0 DUP1 PUSH1 0x0 DUP1 PUSH1 0x80 DUP6 DUP8 SUB SLT ISZERO PUSH2 0x3E96 JUMPI PUSH2 0x3E95 PUSH2 0x31EF JUMP JUMPDEST JUMPDEST PUSH1 0x0 PUSH2 0x3EA4 DUP8 DUP3 DUP9 ADD PUSH2 0x33D1 JUMP JUMPDEST SWAP5 POP POP PUSH1 0x20 PUSH2 0x3EB5 DUP8 DUP3 DUP9 ADD PUSH2 0x32DC JUMP JUMPDEST SWAP4 POP POP PUSH1 0x40 PUSH2 0x3EC6 DUP8 DUP3 DUP9 ADD PUSH2 0x3DC6 JUMP JUMPDEST SWAP3 POP POP PUSH1 0x60 DUP6 ADD CALLDATALOAD PUSH8 0xFFFFFFFFFFFFFFFF DUP2 GT ISZERO PUSH2 0x3EE7 JUMPI PUSH2 0x3EE6 PUSH2 0x31F4 JUMP JUMPDEST JUMPDEST PUSH2 0x3EF3 DUP8 DUP3 DUP9 ADD PUSH2 0x3E4E JUMP JUMPDEST SWAP2 POP POP SWAP3 SWAP6 SWAP2 SWAP5 POP SWAP3 POP JUMP JUMPDEST PUSH1 0x0 DUP1 PUSH1 0x0 DUP1 PUSH1 0x0 PUSH1 0xA0 DUP7 DUP9 SUB SLT ISZERO PUSH2 0x3F1B JUMPI PUSH2 0x3F1A PUSH2 0x31EF JUMP JUMPDEST JUMPDEST PUSH1 0x0 PUSH2 0x3F29 DUP9 DUP3 DUP10 ADD PUSH2 0x33D1 JUMP JUMPDEST SWAP6 POP POP PUSH1 0x20 PUSH2 0x3F3A DUP9 DUP3 DUP10 ADD PUSH2 0x33D1 JUMP JUMPDEST SWAP5 POP POP PUSH1 0x40 PUSH2 0x3F4B DUP9 DUP3 DUP10 ADD PUSH2 0x32DC JUMP JUMPDEST SWAP4 POP POP PUSH1 0x60 PUSH2 0x3F5C DUP9 DUP3 DUP10 ADD PUSH2 0x32DC JUMP JUMPDEST SWAP3 POP POP PUSH1 0x80 DUP7 ADD CALLDATALOAD PUSH8 0xFFFFFFFFFFFFFFFF DUP2 GT ISZERO PUSH2 0x3F7D JUMPI PUSH2 0x3F7C PUSH2 0x31F4 JUMP JUMPDEST JUMPDEST PUSH2 0x3F89 DUP9 DUP3 DUP10 ADD PUSH2 0x34C9 JUMP JUMPDEST SWAP2 POP POP SWAP3 SWAP6 POP SWAP3 SWAP6 SWAP1 SWAP4 POP JUMP JUMPDEST PUSH2 0x3F9F DUP2 PUSH2 0x37E5 JUMP JUMPDEST DUP2 EQ PUSH2 0x3FAA JUMPI PUSH1 0x0 DUP1 REVERT JUMPDEST POP JUMP JUMPDEST PUSH1 0x0 DUP2 MLOAD SWAP1 POP PUSH2 0x3FBC DUP2 PUSH2 0x3F96 JUMP JUMPDEST SWAP3 SWAP2 POP POP JUMP JUMPDEST PUSH1 0x0 PUSH1 0x20 DUP3 DUP5 SUB SLT ISZERO PUSH2 0x3FD8 JUMPI PUSH2 0x3FD7 PUSH2 0x31EF JUMP JUMPDEST JUMPDEST PUSH1 0x0 PUSH2 0x3FE6 DUP5 DUP3 DUP6 ADD PUSH2 0x3FAD JUMP JUMPDEST SWAP2 POP POP SWAP3 SWAP2 POP POP JUMP JUMPDEST PUSH32 0x77686974654C697374203A3A204164647265737320636865636B206572726F72 PUSH1 0x0 DUP3 ADD MSTORE POP JUMP JUMPDEST PUSH1 0x0 PUSH2 0x4025 PUSH1 0x20 DUP4 PUSH2 0x36E5 JUMP JUMPDEST SWAP2 POP PUSH2 0x4030 DUP3 PUSH2 0x3FEF JUMP JUMPDEST PUSH1 0x20 DUP3 ADD SWAP1 POP SWAP2 SWAP1 POP JUMP JUMPDEST PUSH1 0x0 PUSH1 0x20 DUP3 ADD SWAP1 POP DUP2 DUP2 SUB PUSH1 0x0 DUP4 ADD MSTORE PUSH2 0x4054 DUP2 PUSH2 0x4018 JUMP JUMPDEST SWAP1 POP SWAP2 SWAP1 POP JUMP JUMPDEST PUSH32 0x4E487B7100000000000000000000000000000000000000000000000000000000 PUSH1 0x0 MSTORE PUSH1 0x22 PUSH1 0x4 MSTORE PUSH1 0x24 PUSH1 0x0 REVERT JUMPDEST PUSH1 0x0 PUSH1 0x2 DUP3 DIV SWAP1 POP PUSH1 0x1 DUP3 AND DUP1 PUSH2 0x40A2 JUMPI PUSH1 0x7F DUP3 AND SWAP2 POP JUMPDEST PUSH1 0x20 DUP3 LT DUP2 EQ ISZERO PUSH2 0x40B6 JUMPI PUSH2 0x40B5 PUSH2 0x405B JUMP JUMPDEST JUMPDEST POP SWAP2 SWAP1 POP JUMP JUMPDEST PUSH1 0x0 DUP2 MLOAD SWAP1 POP PUSH2 0x40CB DUP2 PUSH2 0x33BA JUMP JUMPDEST SWAP3 SWAP2 POP POP JUMP JUMPDEST PUSH1 0x0 PUSH1 0x20 DUP3 DUP5 SUB SLT ISZERO PUSH2 0x40E7 JUMPI PUSH2 0x40E6 PUSH2 0x31EF JUMP JUMPDEST JUMPDEST PUSH1 0x0 PUSH2 0x40F5 DUP5 DUP3 DUP6 ADD PUSH2 0x40BC JUMP JUMPDEST SWAP2 POP POP SWAP3 SWAP2 POP POP JUMP JUMPDEST PUSH32 0x5661756C74203A3A204E465420646F6573206E6F742065786973740000000000 PUSH1 0x0 DUP3 ADD MSTORE POP JUMP JUMPDEST PUSH1 0x0 PUSH2 0x4134 PUSH1 0x1B DUP4 PUSH2 0x36E5 JUMP JUMPDEST SWAP2 POP PUSH2 0x413F DUP3 PUSH2 0x40FE JUMP JUMPDEST PUSH1 0x20 DUP3 ADD SWAP1 POP SWAP2 SWAP1 POP JUMP JUMPDEST PUSH1 0x0 PUSH1 0x20 DUP3 ADD SWAP1 POP DUP2 DUP2 SUB PUSH1 0x0 DUP4 ADD MSTORE PUSH2 0x4163 DUP2 PUSH2 0x4127 JUMP JUMPDEST SWAP1 POP SWAP2 SWAP1 POP JUMP JUMPDEST PUSH32 0x4E487B7100000000000000000000000000000000000000000000000000000000 PUSH1 0x0 MSTORE PUSH1 0x32 PUSH1 0x4 MSTORE PUSH1 0x24 PUSH1 0x0 REVERT JUMPDEST PUSH32 0x73656E64455448203A3A2043616E6E6F74207472616E7366657220746F207A65 PUSH1 0x0 DUP3 ADD MSTORE PUSH32 0x726F206164647265737300000000000000000000000000000000000000000000 PUSH1 0x20 DUP3 ADD MSTORE POP JUMP JUMPDEST PUSH1 0x0 PUSH2 0x41F5 PUSH1 0x2A DUP4 PUSH2 0x36E5 JUMP JUMPDEST SWAP2 POP PUSH2 0x4200 DUP3 PUSH2 0x4199 JUMP JUMPDEST PUSH1 0x40 DUP3 ADD SWAP1 POP SWAP2 SWAP1 POP JUMP JUMPDEST PUSH1 0x0 PUSH1 0x20 DUP3 ADD SWAP1 POP DUP2 DUP2 SUB PUSH1 0x0 DUP4 ADD MSTORE PUSH2 0x4224 DUP2 PUSH2 0x41E8 JUMP JUMPDEST SWAP1 POP SWAP2 SWAP1 POP JUMP JUMPDEST PUSH32 0x696E697469616C697A65203A3A20416C726561647920696E697469616C697A65 PUSH1 0x0 DUP3 ADD MSTORE PUSH32 0x6400000000000000000000000000000000000000000000000000000000000000 PUSH1 0x20 DUP3 ADD MSTORE POP JUMP JUMPDEST PUSH1 0x0 PUSH2 0x4287 PUSH1 0x21 DUP4 PUSH2 0x36E5 JUMP JUMPDEST SWAP2 POP PUSH2 0x4292 DUP3 PUSH2 0x422B JUMP JUMPDEST PUSH1 0x40 DUP3 ADD SWAP1 POP SWAP2 SWAP1 POP JUMP JUMPDEST PUSH1 0x0 PUSH1 0x20 DUP3 ADD SWAP1 POP DUP2 DUP2 SUB PUSH1 0x0 DUP4 ADD MSTORE PUSH2 0x42B6 DUP2 PUSH2 0x427A JUMP JUMPDEST SWAP1 POP SWAP2 SWAP1 POP JUMP JUMPDEST PUSH32 0x73656E644552433230203A3A2043616E6E6F74207472616E7366657220746F20 PUSH1 0x0 DUP3 ADD MSTORE PUSH32 0x7A65726F20616464726573730000000000000000000000000000000000000000 PUSH1 0x20 DUP3 ADD MSTORE POP JUMP JUMPDEST PUSH1 0x0 PUSH2 0x4319 PUSH1 0x2C DUP4 PUSH2 0x36E5 JUMP JUMPDEST SWAP2 POP PUSH2 0x4324 DUP3 PUSH2 0x42BD JUMP JUMPDEST PUSH1 0x40 DUP3 ADD SWAP1 POP SWAP2 SWAP1 POP JUMP JUMPDEST PUSH1 0x0 PUSH1 0x20 DUP3 ADD SWAP1 POP DUP2 DUP2 SUB PUSH1 0x0 DUP4 ADD MSTORE PUSH2 0x4348 DUP2 PUSH2 0x430C JUMP JUMPDEST SWAP1 POP SWAP2 SWAP1 POP JUMP JUMPDEST PUSH1 0x0 PUSH1 0x40 DUP3 ADD SWAP1 POP PUSH2 0x4364 PUSH1 0x0 DUP4 ADD DUP6 PUSH2 0x35FD JUMP JUMPDEST PUSH2 0x4371 PUSH1 0x20 DUP4 ADD DUP5 PUSH2 0x360C JUMP JUMPDEST SWAP4 SWAP3 POP POP POP JUMP JUMPDEST PUSH32 0x73656E6457455448203A3A2043616E6E6F74207472616E7366657220746F207A PUSH1 0x0 DUP3 ADD MSTORE PUSH32 0x65726F2061646472657373000000000000000000000000000000000000000000 PUSH1 0x20 DUP3 ADD MSTORE POP JUMP JUMPDEST PUSH1 0x0 PUSH2 0x43D4 PUSH1 0x2B DUP4 PUSH2 0x36E5 JUMP JUMPDEST SWAP2 POP PUSH2 0x43DF DUP3 PUSH2 0x4378 JUMP JUMPDEST PUSH1 0x40 DUP3 ADD SWAP1 POP SWAP2 SWAP1 POP JUMP JUMPDEST PUSH1 0x0 PUSH1 0x20 DUP3 ADD SWAP1 POP DUP2 DUP2 SUB PUSH1 0x0 DUP4 ADD MSTORE PUSH2 0x4403 DUP2 PUSH2 0x43C7 JUMP JUMPDEST SWAP1 POP SWAP2 SWAP1 POP JUMP JUMPDEST PUSH1 0x0 DUP2 MLOAD SWAP1 POP PUSH2 0x4419 DUP2 PUSH2 0x32C5 JUMP JUMPDEST SWAP3 SWAP2 POP POP JUMP JUMPDEST PUSH1 0x0 PUSH1 0x20 DUP3 DUP5 SUB SLT ISZERO PUSH2 0x4435 JUMPI PUSH2 0x4434 PUSH2 0x31EF JUMP JUMPDEST JUMPDEST PUSH1 0x0 PUSH2 0x4443 DUP5 DUP3 DUP6 ADD PUSH2 0x440A JUMP JUMPDEST SWAP2 POP POP SWAP3 SWAP2 POP POP JUMP JUMPDEST PUSH32 0x4E487B7100000000000000000000000000000000000000000000000000000000 PUSH1 0x0 MSTORE PUSH1 0x11 PUSH1 0x4 MSTORE PUSH1 0x24 PUSH1 0x0 REVERT JUMPDEST PUSH1 0x0 PUSH2 0xFFFF DUP3 AND SWAP1 POP SWAP2 SWAP1 POP JUMP JUMPDEST PUSH1 0x0 PUSH2 0x4494 DUP3 PUSH2 0x447B JUMP JUMPDEST SWAP2 POP PUSH2 0xFFFF DUP3 EQ ISZERO PUSH2 0x44A9 JUMPI PUSH2 0x44A8 PUSH2 0x444C JUMP JUMPDEST JUMPDEST PUSH1 0x1 DUP3 ADD SWAP1 POP SWAP2 SWAP1 POP JUMP JUMPDEST PUSH32 0x72656465656D203A3A20546865206E756D626572206F6620667261676D656E74 PUSH1 0x0 DUP3 ADD MSTORE PUSH32 0x73206973207A65726F0000000000000000000000000000000000000000000000 PUSH1 0x20 DUP3 ADD MSTORE POP JUMP JUMPDEST PUSH1 0x0 PUSH2 0x4510 PUSH1 0x29 DUP4 PUSH2 0x36E5 JUMP JUMPDEST SWAP2 POP PUSH2 0x451B DUP3 PUSH2 0x44B4 JUMP JUMPDEST PUSH1 0x40 DUP3 ADD SWAP1 POP SWAP2 SWAP1 POP JUMP JUMPDEST PUSH1 0x0 PUSH1 0x20 DUP3 ADD SWAP1 POP DUP2 DUP2 SUB PUSH1 0x0 DUP4 ADD MSTORE PUSH2 0x453F DUP2 PUSH2 0x4503 JUMP JUMPDEST SWAP1 POP SWAP2 SWAP1 POP JUMP JUMPDEST PUSH32 0x72656465656D203A3A204E465420646F6573206E6F7420657869737400000000 PUSH1 0x0 DUP3 ADD MSTORE POP JUMP JUMPDEST PUSH1 0x0 PUSH2 0x457C PUSH1 0x1C DUP4 PUSH2 0x36E5 JUMP JUMPDEST SWAP2 POP PUSH2 0x4587 DUP3 PUSH2 0x4546 JUMP JUMPDEST PUSH1 0x20 DUP3 ADD SWAP1 POP SWAP2 SWAP1 POP JUMP JUMPDEST PUSH1 0x0 PUSH1 0x20 DUP3 ADD SWAP1 POP DUP2 DUP2 SUB PUSH1 0x0 DUP4 ADD MSTORE PUSH2 0x45AB DUP2 PUSH2 0x456F JUMP JUMPDEST SWAP1 POP SWAP2 SWAP1 POP JUMP JUMPDEST PUSH32 0x72656465656D203A3A20556E61626C6520746F2072656D656479000000000000 PUSH1 0x0 DUP3 ADD MSTORE POP JUMP JUMPDEST PUSH1 0x0 PUSH2 0x45E8 PUSH1 0x1A DUP4 PUSH2 0x36E5 JUMP JUMPDEST SWAP2 POP PUSH2 0x45F3 DUP3 PUSH2 0x45B2 JUMP JUMPDEST PUSH1 0x20 DUP3 ADD SWAP1 POP SWAP2 SWAP1 POP JUMP JUMPDEST PUSH1 0x0 PUSH1 0x20 DUP3 ADD SWAP1 POP DUP2 DUP2 SUB PUSH1 0x0 DUP4 ADD MSTORE PUSH2 0x4617 DUP2 PUSH2 0x45DB JUMP JUMPDEST SWAP1 POP SWAP2 SWAP1 POP JUMP JUMPDEST PUSH1 0x0 DUP2 MLOAD SWAP1 POP PUSH2 0x462D DUP2 PUSH2 0x3A04 JUMP JUMPDEST SWAP3 SWAP2 POP POP JUMP JUMPDEST PUSH1 0x0 PUSH1 0x20 DUP3 DUP5 SUB SLT ISZERO PUSH2 0x4649 JUMPI PUSH2 0x4648 PUSH2 0x31EF JUMP JUMPDEST JUMPDEST PUSH1 0x0 PUSH2 0x4657 DUP5 DUP3 DUP6 ADD PUSH2 0x461E JUMP JUMPDEST SWAP2 POP POP SWAP3 SWAP2 POP POP JUMP JUMPDEST PUSH1 0x0 PUSH2 0x466B DUP3 PUSH2 0x32BB JUMP JUMPDEST SWAP2 POP PUSH2 0x4676 DUP4 PUSH2 0x32BB JUMP JUMPDEST SWAP3 POP DUP3 DUP3 LT ISZERO PUSH2 0x4689 JUMPI PUSH2 0x4688 PUSH2 0x444C JUMP JUMPDEST JUMPDEST DUP3 DUP3 SUB SWAP1 POP SWAP3 SWAP2 POP POP JUMP JUMPDEST PUSH32 0x72656465656D203A3A204E6F7420656E6F75676820746F206275726E00000000 PUSH1 0x0 DUP3 ADD MSTORE POP JUMP JUMPDEST PUSH1 0x0 PUSH2 0x46CA PUSH1 0x1C DUP4 PUSH2 0x36E5 JUMP JUMPDEST SWAP2 POP PUSH2 0x46D5 DUP3 PUSH2 0x4694 JUMP JUMPDEST PUSH1 0x20 DUP3 ADD SWAP1 POP SWAP2 SWAP1 POP JUMP JUMPDEST PUSH1 0x0 PUSH1 0x20 DUP3 ADD SWAP1 POP DUP2 DUP2 SUB PUSH1 0x0 DUP4 ADD MSTORE PUSH2 0x46F9 DUP2 PUSH2 0x46BD JUMP JUMPDEST SWAP1 POP SWAP2 SWAP1 POP JUMP JUMPDEST PUSH32 0x5661756C743A3A204E465420646F6573206E6F74206578697374000000000000 PUSH1 0x0 DUP3 ADD MSTORE POP JUMP JUMPDEST PUSH1 0x0 PUSH2 0x4736 PUSH1 0x1A DUP4 PUSH2 0x36E5 JUMP JUMPDEST SWAP2 POP PUSH2 0x4741 DUP3 PUSH2 0x4700 JUMP JUMPDEST PUSH1 0x20 DUP3 ADD SWAP1 POP SWAP2 SWAP1 POP JUMP JUMPDEST PUSH1 0x0 PUSH1 0x20 DUP3 ADD SWAP1 POP DUP2 DUP2 SUB PUSH1 0x0 DUP4 ADD MSTORE PUSH2 0x4765 DUP2 PUSH2 0x4729 JUMP JUMPDEST SWAP1 POP SWAP2 SWAP1 POP JUMP JUMPDEST PUSH32 0x73656E644E4654203A3A2043616E6E6F74207472616E7366657220746F207A65 PUSH1 0x0 DUP3 ADD MSTORE PUSH32 0x726F206164647265737300000000000000000000000000000000000000000000 PUSH1 0x20 DUP3 ADD MSTORE POP JUMP JUMPDEST PUSH1 0x0 PUSH2 0x47C8 PUSH1 0x2A DUP4 PUSH2 0x36E5 JUMP JUMPDEST SWAP2 POP PUSH2 0x47D3 DUP3 PUSH2 0x476C JUMP JUMPDEST PUSH1 0x40 DUP3 ADD SWAP1 POP SWAP2 SWAP1 POP JUMP JUMPDEST PUSH1 0x0 PUSH1 0x20 DUP3 ADD SWAP1 POP DUP2 DUP2 SUB PUSH1 0x0 DUP4 ADD MSTORE PUSH2 0x47F7 DUP2 PUSH2 0x47BB JUMP JUMPDEST SWAP1 POP SWAP2 SWAP1 POP JUMP JUMPDEST PUSH1 0x0 DUP3 DUP3 MSTORE PUSH1 0x20 DUP3 ADD SWAP1 POP SWAP3 SWAP2 POP POP JUMP JUMPDEST POP JUMP JUMPDEST PUSH1 0x0 PUSH2 0x481F PUSH1 0x0 DUP4 PUSH2 0x47FE JUMP JUMPDEST SWAP2 POP PUSH2 0x482A DUP3 PUSH2 0x480F JUMP JUMPDEST PUSH1 0x0 DUP3 ADD SWAP1 POP SWAP2 SWAP1 POP JUMP JUMPDEST PUSH1 0x0 PUSH1 0xA0 DUP3 ADD SWAP1 POP PUSH2 0x484A PUSH1 0x0 DUP4 ADD DUP8 PUSH2 0x35FD JUMP JUMPDEST PUSH2 0x4857 PUSH1 0x20 DUP4 ADD DUP7 PUSH2 0x35FD JUMP JUMPDEST PUSH2 0x4864 PUSH1 0x40 DUP4 ADD DUP6 PUSH2 0x360C JUMP JUMPDEST PUSH2 0x4871 PUSH1 0x60 DUP4 ADD DUP5 PUSH2 0x360C JUMP JUMPDEST DUP2 DUP2 SUB PUSH1 0x80 DUP4 ADD MSTORE PUSH2 0x4882 DUP2 PUSH2 0x4812 JUMP JUMPDEST SWAP1 POP SWAP6 SWAP5 POP POP POP POP POP JUMP JUMPDEST PUSH1 0x0 PUSH1 0x60 DUP3 ADD SWAP1 POP PUSH2 0x48A2 PUSH1 0x0 DUP4 ADD DUP7 PUSH2 0x35FD JUMP JUMPDEST PUSH2 0x48AF PUSH1 0x20 DUP4 ADD DUP6 PUSH2 0x35FD JUMP JUMPDEST PUSH2 0x48BC PUSH1 0x40 DUP4 ADD DUP5 PUSH2 0x360C JUMP JUMPDEST SWAP5 SWAP4 POP POP POP POP JUMP JUMPDEST PUSH32 0x5661756C74203A3A20496E636F7272656374204E465420616464726573730000 PUSH1 0x0 DUP3 ADD MSTORE POP JUMP JUMPDEST PUSH1 0x0 PUSH2 0x48FA PUSH1 0x1E DUP4 PUSH2 0x36E5 JUMP JUMPDEST SWAP2 POP PUSH2 0x4905 DUP3 PUSH2 0x48C4 JUMP JUMPDEST PUSH1 0x20 DUP3 ADD SWAP1 POP SWAP2 SWAP1 POP JUMP JUMPDEST PUSH1 0x0 PUSH1 0x20 DUP3 ADD SWAP1 POP DUP2 DUP2 SUB PUSH1 0x0 DUP4 ADD MSTORE PUSH2 0x4929 DUP2 PUSH2 0x48ED JUMP JUMPDEST SWAP1 POP SWAP2 SWAP1 POP JUMP JUMPDEST PUSH32 0x5661756C74203A3A20496E636F7272656374207661756C742073746174650000 PUSH1 0x0 DUP3 ADD MSTORE POP JUMP JUMPDEST PUSH1 0x0 PUSH2 0x4966 PUSH1 0x1E DUP4 PUSH2 0x36E5 JUMP JUMPDEST SWAP2 POP PUSH2 0x4971 DUP3 PUSH2 0x4930 JUMP JUMPDEST PUSH1 0x20 DUP3 ADD SWAP1 POP SWAP2 SWAP1 POP JUMP JUMPDEST PUSH1 0x0 PUSH1 0x20 DUP3 ADD SWAP1 POP DUP2 DUP2 SUB PUSH1 0x0 DUP4 ADD MSTORE PUSH2 0x4995 DUP2 PUSH2 0x4959 JUMP JUMPDEST SWAP1 POP SWAP2 SWAP1 POP JUMP JUMPDEST PUSH32 0x5661756C743A3A20496E636F7272656374204E46542020616464726573730000 PUSH1 0x0 DUP3 ADD MSTORE POP JUMP JUMPDEST PUSH1 0x0 PUSH2 0x49D2 PUSH1 0x1E DUP4 PUSH2 0x36E5 JUMP JUMPDEST SWAP2 POP PUSH2 0x49DD DUP3 PUSH2 0x499C JUMP JUMPDEST PUSH1 0x20 DUP3 ADD SWAP1 POP SWAP2 SWAP1 POP JUMP JUMPDEST PUSH1 0x0 PUSH1 0x20 DUP3 ADD SWAP1 POP DUP2 DUP2 SUB PUSH1 0x0 DUP4 ADD MSTORE PUSH2 0x4A01 DUP2 PUSH2 0x49C5 JUMP JUMPDEST SWAP1 POP SWAP2 SWAP1 POP JUMP JUMPDEST PUSH32 0x5661756C743A3A20496E636F7272656374204E46542049640000000000000000 PUSH1 0x0 DUP3 ADD MSTORE POP JUMP JUMPDEST PUSH1 0x0 PUSH2 0x4A3E PUSH1 0x18 DUP4 PUSH2 0x36E5 JUMP JUMPDEST SWAP2 POP PUSH2 0x4A49 DUP3 PUSH2 0x4A08 JUMP JUMPDEST PUSH1 0x20 DUP3 ADD SWAP1 POP SWAP2 SWAP1 POP JUMP JUMPDEST PUSH1 0x0 PUSH1 0x20 DUP3 ADD SWAP1 POP DUP2 DUP2 SUB PUSH1 0x0 DUP4 ADD MSTORE PUSH2 0x4A6D DUP2 PUSH2 0x4A31 JUMP JUMPDEST SWAP1 POP SWAP2 SWAP1 POP JUMP JUMPDEST PUSH1 0x0 PUSH2 0x4A7F DUP3 PUSH2 0x32BB JUMP JUMPDEST SWAP2 POP PUSH2 0x4A8A DUP4 PUSH2 0x32BB JUMP JUMPDEST SWAP3 POP DUP3 PUSH32 0xFFFFFFFFFFFFFFFFFFFFFFFFFFFFFFFFFFFFFFFFFFFFFFFFFFFFFFFFFFFFFFFF SUB DUP3 GT ISZERO PUSH2 0x4ABF JUMPI PUSH2 0x4ABE PUSH2 0x444C JUMP JUMPDEST JUMPDEST DUP3 DUP3 ADD SWAP1 POP SWAP3 SWAP2 POP POP JUMP JUMPDEST PUSH32 0x4E487B7100000000000000000000000000000000000000000000000000000000 PUSH1 0x0 MSTORE PUSH1 0x31 PUSH1 0x4 MSTORE PUSH1 0x24 PUSH1 0x0 REVERT JUMPDEST PUSH1 0x0 PUSH4 0xFFFFFFFF DUP3 AND SWAP1 POP SWAP2 SWAP1 POP JUMP JUMPDEST PUSH1 0x0 PUSH2 0x4B14 DUP3 PUSH2 0x4AF9 JUMP JUMPDEST SWAP2 POP PUSH4 0xFFFFFFFF DUP3 EQ ISZERO PUSH2 0x4B2B JUMPI PUSH2 0x4B2A PUSH2 0x444C JUMP JUMPDEST JUMPDEST PUSH1 0x1 DUP3 ADD SWAP1 POP SWAP2 SWAP1 POP JUMP JUMPDEST PUSH1 0x0 DUP2 MLOAD SWAP1 POP SWAP2 SWAP1 POP JUMP JUMPDEST PUSH1 0x0 DUP2 SWAP1 POP SWAP3 SWAP2 POP POP JUMP JUMPDEST PUSH1 0x0 PUSH2 0x4B57 DUP3 PUSH2 0x4B36 JUMP JUMPDEST PUSH2 0x4B61 DUP2 DUP6 PUSH2 0x4B41 JUMP JUMPDEST SWAP4 POP PUSH2 0x4B71 DUP2 DUP6 PUSH1 0x20 DUP7 ADD PUSH2 0x36F6 JUMP JUMPDEST DUP1 DUP5 ADD SWAP2 POP POP SWAP3 SWAP2 POP POP JUMP JUMPDEST PUSH1 0x0 PUSH2 0x4B89 DUP3 DUP5 PUSH2 0x4B4C JUMP JUMPDEST SWAP2 POP DUP2 SWAP1 POP SWAP3 SWAP2 POP POP JUMP INVALID LOG2 PUSH5 0x6970667358 0x22 SLT KECCAK256 DUP8 PUSH18 0x852F81272CD3CEEFFC9A37D6D1F019357E6F DUP16 0xDF NOT SELFBALANCE SWAP8 NOT PUSH30 0xA05E13659164736F6C634300080A00330000000000000000000000000000 "
				},
				"gasEstimates": {
					"creation": {
						"codeDepositCost": "3880400",
						"executionCost": "4412",
						"totalCost": "3884812"
					},
					"external": {
						"WETH()": "467",
						"depositNFTAsset(address[],uint256[],uint256[],address)": "infinite",
						"freedomNFTInNFTSIndex(uint256)": "infinite",
						"getDivision()": "infinite",
						"getEntireVaultActivity()": "infinite",
						"getEntireVaultState()": "4865",
						"getFreedomNFT()": "infinite",
						"getNftActivity(address,uint256)": "infinite",
						"getNftState(address,uint256)": "7726",
						"initialize()": "infinite",
						"initializer()": "2566",
						"nftIndex(address,uint256)": "infinite",
						"nfts(uint256)": "infinite",
						"noncallable()": "infinite",
						"onERC1155BatchReceived(address,address,uint256[],uint256[],bytes)": "infinite",
						"onERC1155Received(address,address,uint256,uint256,bytes)": "infinite",
						"onERC721Received(address,address,uint256,bytes)": "infinite",
						"redeem()": "infinite",
						"redeemable()": "2605",
						"routerContract()": "infinite",
						"safeSetState(address,uint256,uint8,string)": "infinite",
						"sendERC20(address,address,uint256)": "infinite",
						"sendETH(address,uint256)": "infinite",
						"sendNFTAsset(address[],uint256[],address)": "infinite",
						"sendNFTAssetIndex(uint256[],address)": "infinite",
						"sendWETH(address,uint256)": "infinite"
					},
					"internal": {
						"_depositNFT(address[] memory,uint256[] memory,uint256[] memory,address)": "infinite",
						"_sendNFT(address,uint256,uint256,address,address)": "infinite",
						"_sendNFTAssetIndex(uint256[] memory,address)": "infinite",
						"addFreedomStateIndex(uint256)": "46437",
						"deleteFreedomStateIndex(uint256)": "infinite",
						"setState(uint256,enum State.NftState,string memory)": "infinite"
					}
				},
				"methodIdentifiers": {
					"WETH()": "ad5c4648",
					"depositNFTAsset(address[],uint256[],uint256[],address)": "e2019ab3",
					"freedomNFTInNFTSIndex(uint256)": "2d1d53f7",
					"getDivision()": "54f0970c",
					"getEntireVaultActivity()": "5ccb53df",
					"getEntireVaultState()": "d58bfa9d",
					"getFreedomNFT()": "634f6319",
					"getNftActivity(address,uint256)": "5b093b13",
					"getNftState(address,uint256)": "af9a82b2",
					"initialize()": "8129fc1c",
					"initializer()": "9ce110d7",
					"nftIndex(address,uint256)": "c2880715",
					"nfts(uint256)": "265aa621",
					"noncallable()": "1370c6a9",
					"onERC1155BatchReceived(address,address,uint256[],uint256[],bytes)": "bc197c81",
					"onERC1155Received(address,address,uint256,uint256,bytes)": "f23a6e61",
					"onERC721Received(address,address,uint256,bytes)": "150b7a02",
					"redeem()": "be040fb0",
					"redeemable()": "2d7ecd11",
					"routerContract()": "4f72d846",
					"safeSetState(address,uint256,uint8,string)": "e77ae39b",
					"sendERC20(address,address,uint256)": "8f975a64",
					"sendETH(address,uint256)": "64a197f3",
					"sendNFTAsset(address[],uint256[],address)": "bdf83f87",
					"sendNFTAssetIndex(uint256[],address)": "0094c5f3",
					"sendWETH(address,uint256)": "a82e02f0"
				}
			},
			"storageLayout": {
				"storage": [
					{
						"astId": 742,
						"contract": "contracts/Vault.sol:Vault",
						"label": "routerContract",
						"offset": 0,
						"slot": "0",
						"type": "t_contract(IRouterData)728"
					},
					{
						"astId": 776,
						"contract": "contracts/Vault.sol:Vault",
						"label": "nfts",
						"offset": 0,
						"slot": "1",
						"type": "t_array(t_struct(NFT)772_storage)dyn_storage"
					},
					{
						"astId": 779,
						"contract": "contracts/Vault.sol:Vault",
						"label": "freedomNFTInNFTSIndex",
						"offset": 0,
						"slot": "2",
						"type": "t_array(t_uint256)dyn_storage"
					},
					{
						"astId": 785,
						"contract": "contracts/Vault.sol:Vault",
						"label": "nftIndex",
						"offset": 0,
						"slot": "3",
						"type": "t_mapping(t_address,t_mapping(t_uint256,t_uint256))"
					},
					{
						"astId": 787,
						"contract": "contracts/Vault.sol:Vault",
						"label": "redeemable",
						"offset": 0,
						"slot": "4",
						"type": "t_bool"
					},
					{
						"astId": 789,
						"contract": "contracts/Vault.sol:Vault",
						"label": "initializer",
						"offset": 1,
						"slot": "4",
						"type": "t_bool"
					}
				],
				"types": {
					"t_address": {
						"encoding": "inplace",
						"label": "address",
						"numberOfBytes": "20"
					},
					"t_array(t_struct(NFT)772_storage)dyn_storage": {
						"base": "t_struct(NFT)772_storage",
						"encoding": "dynamic_array",
						"label": "struct Vault.NFT[]",
						"numberOfBytes": "32"
					},
					"t_array(t_uint256)dyn_storage": {
						"base": "t_uint256",
						"encoding": "dynamic_array",
						"label": "uint256[]",
						"numberOfBytes": "32"
					},
					"t_bool": {
						"encoding": "inplace",
						"label": "bool",
						"numberOfBytes": "1"
					},
					"t_contract(IRouterData)728": {
						"encoding": "inplace",
						"label": "contract IRouterData",
						"numberOfBytes": "20"
					},
					"t_enum(NftState)1881": {
						"encoding": "inplace",
						"label": "enum State.NftState",
						"numberOfBytes": "1"
					},
					"t_enum(NftType)1885": {
						"encoding": "inplace",
						"label": "enum State.NftType",
						"numberOfBytes": "1"
					},
					"t_mapping(t_address,t_mapping(t_uint256,t_uint256))": {
						"encoding": "mapping",
						"key": "t_address",
						"label": "mapping(address => mapping(uint256 => uint256))",
						"numberOfBytes": "32",
						"value": "t_mapping(t_uint256,t_uint256)"
					},
					"t_mapping(t_uint256,t_uint256)": {
						"encoding": "mapping",
						"key": "t_uint256",
						"label": "mapping(uint256 => uint256)",
						"numberOfBytes": "32",
						"value": "t_uint256"
					},
					"t_string_storage": {
						"encoding": "bytes",
						"label": "string",
						"numberOfBytes": "32"
					},
					"t_struct(NFT)772_storage": {
						"encoding": "inplace",
						"label": "struct Vault.NFT",
						"members": [
							{
								"astId": 759,
								"contract": "contracts/Vault.sol:Vault",
								"label": "nft",
								"offset": 0,
								"slot": "0",
								"type": "t_address"
							},
							{
								"astId": 761,
								"contract": "contracts/Vault.sol:Vault",
								"label": "nftId",
								"offset": 0,
								"slot": "1",
								"type": "t_uint256"
							},
							{
								"astId": 763,
								"contract": "contracts/Vault.sol:Vault",
								"label": "amount",
								"offset": 0,
								"slot": "2",
								"type": "t_uint256"
							},
							{
								"astId": 766,
								"contract": "contracts/Vault.sol:Vault",
								"label": "mold",
								"offset": 0,
								"slot": "3",
								"type": "t_enum(NftType)1885"
							},
							{
								"astId": 769,
								"contract": "contracts/Vault.sol:Vault",
								"label": "state",
								"offset": 1,
								"slot": "3",
								"type": "t_enum(NftState)1881"
							},
							{
								"astId": 771,
								"contract": "contracts/Vault.sol:Vault",
								"label": "activity",
								"offset": 0,
								"slot": "4",
								"type": "t_string_storage"
							}
						],
						"numberOfBytes": "160"
					},
					"t_uint256": {
						"encoding": "inplace",
						"label": "uint256",
						"numberOfBytes": "32"
					}
				}
			},
			"userdoc": {
				"kind": "user",
				"methods": {
					"redeem()": {
						"notice": "an external function to burn all ERC20 tokens to receive the ERC721 token"
					}
				},
				"version": 1
			}
		}
	}
}