{
	"contracts/Template/Istanbul10/logic/Router.sol": {
		"Router": {
			"abi": [
				{
					"inputs": [
						{
							"internalType": "address",
							"name": "veTokenTemplate_",
							"type": "address"
						},
						{
							"internalType": "address",
							"name": "vaultTemplate_",
							"type": "address"
						},
						{
							"internalType": "address",
							"name": "auctionTemplate_",
							"type": "address"
						},
						{
							"internalType": "address",
							"name": "voteTemplate_",
							"type": "address"
						},
						{
							"internalType": "address",
							"name": "divisionTemplate_",
							"type": "address"
						}
					],
					"stateMutability": "nonpayable",
					"type": "constructor"
				},
				{
					"anonymous": false,
					"inputs": [
						{
							"indexed": true,
							"internalType": "address",
							"name": "owner",
							"type": "address"
						},
						{
							"indexed": false,
							"internalType": "uint256",
							"name": "shares",
							"type": "uint256"
						}
					],
					"name": "Cash",
					"type": "event"
				},
				{
					"anonymous": false,
					"inputs": [
						{
							"indexed": false,
							"internalType": "address[]",
							"name": "nft",
							"type": "address[]"
						},
						{
							"indexed": false,
							"internalType": "uint256[]",
							"name": "nftId",
							"type": "uint256[]"
						},
						{
							"indexed": false,
							"internalType": "uint256[]",
							"name": "amount",
							"type": "uint256[]"
						}
					],
					"name": "CuratorDeposit",
					"type": "event"
				},
				{
					"anonymous": false,
					"inputs": [
						{
							"indexed": false,
							"internalType": "address",
							"name": "curator",
							"type": "address"
						},
						{
							"indexed": false,
							"internalType": "address",
							"name": "vault",
							"type": "address"
						}
					],
					"name": "Initialize",
					"type": "event"
				},
				{
					"anonymous": false,
					"inputs": [
						{
							"indexed": false,
							"internalType": "uint256",
							"name": "supply",
							"type": "uint256"
						},
						{
							"indexed": false,
							"internalType": "string",
							"name": "name",
							"type": "string"
						},
						{
							"indexed": false,
							"internalType": "string",
							"name": "symbol",
							"type": "string"
						},
						{
							"indexed": false,
							"internalType": "uint256",
							"name": "reserveRatio",
							"type": "uint256"
						},
						{
							"indexed": false,
							"internalType": "uint256",
							"name": "EntireVaultPrice",
							"type": "uint256"
						},
						{
							"indexed": false,
							"internalType": "uint256",
							"name": "depositLength",
							"type": "uint256"
						},
						{
							"indexed": false,
							"internalType": "uint256",
							"name": "rewardLength",
							"type": "uint256"
						},
						{
							"indexed": false,
							"internalType": "address",
							"name": "vetoken",
							"type": "address"
						},
						{
							"indexed": false,
							"internalType": "address",
							"name": "auction",
							"type": "address"
						},
						{
							"indexed": false,
							"internalType": "address",
							"name": "vote",
							"type": "address"
						},
						{
							"indexed": false,
							"internalType": "address",
							"name": "division",
							"type": "address"
						}
					],
					"name": "Issue",
					"type": "event"
				},
				{
					"inputs": [],
					"name": "DaoName",
					"outputs": [
						{
							"internalType": "string",
							"name": "",
							"type": "string"
						}
					],
					"stateMutability": "view",
					"type": "function"
				},
				{
					"inputs": [],
					"name": "VERSION_NAME",
					"outputs": [
						{
							"internalType": "string",
							"name": "",
							"type": "string"
						}
					],
					"stateMutability": "view",
					"type": "function"
				},
				{
					"inputs": [],
					"name": "VERSION_NUMBER",
					"outputs": [
						{
							"internalType": "uint16",
							"name": "",
							"type": "uint16"
						}
					],
					"stateMutability": "view",
					"type": "function"
				},
				{
					"inputs": [],
					"name": "auction",
					"outputs": [
						{
							"internalType": "address",
							"name": "",
							"type": "address"
						}
					],
					"stateMutability": "view",
					"type": "function"
				},
				{
					"inputs": [],
					"name": "auctionTemplate",
					"outputs": [
						{
							"internalType": "address",
							"name": "",
							"type": "address"
						}
					],
					"stateMutability": "view",
					"type": "function"
				},
				{
					"inputs": [],
					"name": "cashDivision",
					"outputs": [
						{
							"internalType": "uint256",
							"name": "",
							"type": "uint256"
						}
					],
					"stateMutability": "view",
					"type": "function"
				},
				{
					"inputs": [],
					"name": "cashVetoken",
					"outputs": [
						{
							"internalType": "uint256",
							"name": "",
							"type": "uint256"
						}
					],
					"stateMutability": "view",
					"type": "function"
				},
				{
					"inputs": [],
					"name": "claimFees",
					"outputs": [],
					"stateMutability": "nonpayable",
					"type": "function"
				},
				{
					"inputs": [],
					"name": "curator",
					"outputs": [
						{
							"internalType": "address",
							"name": "",
							"type": "address"
						}
					],
					"stateMutability": "view",
					"type": "function"
				},
				{
					"inputs": [
						{
							"internalType": "address[]",
							"name": "nft",
							"type": "address[]"
						},
						{
							"internalType": "uint256[]",
							"name": "nftId",
							"type": "uint256[]"
						},
						{
							"internalType": "uint256[]",
							"name": "amount",
							"type": "uint256[]"
						}
					],
					"name": "curatorDeposit",
					"outputs": [],
					"stateMutability": "nonpayable",
					"type": "function"
				},
				{
					"inputs": [],
					"name": "division",
					"outputs": [
						{
							"internalType": "address",
							"name": "",
							"type": "address"
						}
					],
					"stateMutability": "view",
					"type": "function"
				},
				{
					"inputs": [],
					"name": "divisionTemplate",
					"outputs": [
						{
							"internalType": "address",
							"name": "",
							"type": "address"
						}
					],
					"stateMutability": "view",
					"type": "function"
				},
				{
					"inputs": [],
					"name": "factory",
					"outputs": [
						{
							"internalType": "address",
							"name": "",
							"type": "address"
						}
					],
					"stateMutability": "view",
					"type": "function"
				},
				{
					"inputs": [],
					"name": "fee",
					"outputs": [
						{
							"internalType": "uint256",
							"name": "",
							"type": "uint256"
						}
					],
					"stateMutability": "view",
					"type": "function"
				},
				{
					"inputs": [
						{
							"internalType": "address",
							"name": "curator_",
							"type": "address"
						},
						{
							"internalType": "address",
							"name": "settings_",
							"type": "address"
						},
						{
							"internalType": "string",
							"name": "name",
							"type": "string"
						}
					],
					"name": "initialize",
					"outputs": [],
					"stateMutability": "nonpayable",
					"type": "function"
				},
				{
					"inputs": [],
					"name": "initializer",
					"outputs": [
						{
							"internalType": "bool",
							"name": "",
							"type": "bool"
						}
					],
					"stateMutability": "view",
					"type": "function"
				},
				{
					"inputs": [
						{
							"internalType": "uint256",
							"name": "supply_",
							"type": "uint256"
						},
						{
							"internalType": "string",
							"name": "symbol",
							"type": "string"
						},
						{
							"internalType": "uint256",
							"name": "reserveRatio_",
							"type": "uint256"
						},
						{
							"internalType": "uint256",
							"name": "entireVaultPrice",
							"type": "uint256"
						},
						{
							"internalType": "uint256",
							"name": "depositLength",
							"type": "uint256"
						},
						{
							"internalType": "uint256",
							"name": "rewardLength",
							"type": "uint256"
						}
					],
					"name": "issue",
					"outputs": [],
					"stateMutability": "nonpayable",
					"type": "function"
				},
				{
					"inputs": [],
					"name": "lastClaimed",
					"outputs": [
						{
							"internalType": "uint256",
							"name": "",
							"type": "uint256"
						}
					],
					"stateMutability": "view",
					"type": "function"
				},
				{
					"inputs": [
						{
							"internalType": "uint256",
							"name": "supply_",
							"type": "uint256"
						},
						{
							"internalType": "address",
							"name": "mintTo",
							"type": "address"
						}
					],
					"name": "mintToScale",
					"outputs": [],
					"stateMutability": "nonpayable",
					"type": "function"
				},
				{
					"inputs": [],
					"name": "open",
					"outputs": [
						{
							"internalType": "bool",
							"name": "",
							"type": "bool"
						}
					],
					"stateMutability": "view",
					"type": "function"
				},
				{
					"inputs": [],
					"name": "reserveAmount",
					"outputs": [
						{
							"internalType": "uint256",
							"name": "",
							"type": "uint256"
						}
					],
					"stateMutability": "view",
					"type": "function"
				},
				{
					"inputs": [],
					"name": "reserveRatio",
					"outputs": [
						{
							"internalType": "uint256",
							"name": "",
							"type": "uint256"
						}
					],
					"stateMutability": "view",
					"type": "function"
				},
				{
					"inputs": [],
					"name": "settings",
					"outputs": [
						{
							"internalType": "address",
							"name": "",
							"type": "address"
						}
					],
					"stateMutability": "view",
					"type": "function"
				},
				{
					"inputs": [],
					"name": "supply",
					"outputs": [
						{
							"internalType": "uint256",
							"name": "",
							"type": "uint256"
						}
					],
					"stateMutability": "view",
					"type": "function"
				},
				{
					"inputs": [
						{
							"internalType": "address",
							"name": "updataTemplate",
							"type": "address"
						}
					],
					"name": "updateRouter",
					"outputs": [],
					"stateMutability": "nonpayable",
					"type": "function"
				},
				{
					"inputs": [],
					"name": "vault",
					"outputs": [
						{
							"internalType": "address",
							"name": "",
							"type": "address"
						}
					],
					"stateMutability": "view",
					"type": "function"
				},
				{
					"inputs": [],
					"name": "vaultTemplate",
					"outputs": [
						{
							"internalType": "address",
							"name": "",
							"type": "address"
						}
					],
					"stateMutability": "view",
					"type": "function"
				},
				{
					"inputs": [],
					"name": "veToken",
					"outputs": [
						{
							"internalType": "address",
							"name": "",
							"type": "address"
						}
					],
					"stateMutability": "view",
					"type": "function"
				},
				{
					"inputs": [],
					"name": "veTokenTemplate",
					"outputs": [
						{
							"internalType": "address",
							"name": "",
							"type": "address"
						}
					],
					"stateMutability": "view",
					"type": "function"
				},
				{
					"inputs": [],
					"name": "vote",
					"outputs": [
						{
							"internalType": "address",
							"name": "",
							"type": "address"
						}
					],
					"stateMutability": "view",
					"type": "function"
				},
				{
					"inputs": [],
					"name": "voteTemplate",
					"outputs": [
						{
							"internalType": "address",
							"name": "",
							"type": "address"
						}
					],
					"stateMutability": "view",
					"type": "function"
				},
				{
					"inputs": [
						{
							"internalType": "address",
							"name": "",
							"type": "address"
						}
					],
					"name": "whiteList",
					"outputs": [
						{
							"internalType": "bool",
							"name": "",
							"type": "bool"
						}
					],
					"stateMutability": "view",
					"type": "function"
				}
			],
			"devdoc": {
				"kind": "dev",
				"methods": {},
				"version": 1
			},
			"evm": {
				"assembly": "    /* \"contracts/Template/Istanbul10/logic/Router.sol\":577:7468  contract Router is RouterData , IRouter{\r... */\n  mstore(0x40, 0x0120)\n    /* \"contracts/Template/Istanbul10/logic/Router.sol\":1129:1498  constructor(address veTokenTemplate_ , address vaultTemplate_ , address auctionTemplate_ , address voteTemplate_ , address divisionTemplate_) { \r... */\n  callvalue\n  dup1\n  iszero\n  tag_1\n  jumpi\n  0x00\n  dup1\n  revert\ntag_1:\n  pop\n  mload(0x40)\n  sub(codesize, bytecodeSize)\n  dup1\n  bytecodeSize\n  dup4\n  codecopy\n  dup2\n  dup2\n  add\n  0x40\n  mstore\n  dup2\n  add\n  swap1\n  tag_2\n  swap2\n  swap1\n  tag_3\n  jump\t// in\ntag_2:\n    /* \"contracts/Template/Istanbul10/logic/Router.sol\":1301:1317  veTokenTemplate_ */\n  dup5\n    /* \"contracts/Template/Istanbul10/logic/Router.sol\":1283:1317  veTokenTemplate = veTokenTemplate_ */\n  0xffffffffffffffffffffffffffffffffffffffff\n  and\n  0x80\n  dup2\n  0xffffffffffffffffffffffffffffffffffffffff\n  and\n  0x60\n  shl\n  dup2\n  mstore\n  pop\n  pop\n    /* \"contracts/Template/Istanbul10/logic/Router.sol\":1345:1359  vaultTemplate_ */\n  dup4\n    /* \"contracts/Template/Istanbul10/logic/Router.sol\":1329:1359  vaultTemplate = vaultTemplate_ */\n  0xffffffffffffffffffffffffffffffffffffffff\n  and\n  0xa0\n  dup2\n  0xffffffffffffffffffffffffffffffffffffffff\n  and\n  0x60\n  shl\n  dup2\n  mstore\n  pop\n  pop\n    /* \"contracts/Template/Istanbul10/logic/Router.sol\":1388:1404  auctionTemplate_ */\n  dup3\n    /* \"contracts/Template/Istanbul10/logic/Router.sol\":1370:1404  auctionTemplate = auctionTemplate_ */\n  0xffffffffffffffffffffffffffffffffffffffff\n  and\n  0xc0\n  dup2\n  0xffffffffffffffffffffffffffffffffffffffff\n  and\n  0x60\n  shl\n  dup2\n  mstore\n  pop\n  pop\n    /* \"contracts/Template/Istanbul10/logic/Router.sol\":1430:1443  voteTemplate_ */\n  dup2\n    /* \"contracts/Template/Istanbul10/logic/Router.sol\":1415:1443  voteTemplate = voteTemplate_ */\n  0xffffffffffffffffffffffffffffffffffffffff\n  and\n  0xe0\n  dup2\n  0xffffffffffffffffffffffffffffffffffffffff\n  and\n  0x60\n  shl\n  dup2\n  mstore\n  pop\n  pop\n    /* \"contracts/Template/Istanbul10/logic/Router.sol\":1473:1490  divisionTemplate_ */\n  dup1\n    /* \"contracts/Template/Istanbul10/logic/Router.sol\":1454:1490  divisionTemplate = divisionTemplate_ */\n  0xffffffffffffffffffffffffffffffffffffffff\n  and\n  0x0100\n  dup2\n  0xffffffffffffffffffffffffffffffffffffffff\n  and\n  0x60\n  shl\n  dup2\n  mstore\n  pop\n  pop\n    /* \"contracts/Template/Istanbul10/logic/Router.sol\":1129:1498  constructor(address veTokenTemplate_ , address vaultTemplate_ , address auctionTemplate_ , address voteTemplate_ , address divisionTemplate_) { \r... */\n  pop\n  pop\n  pop\n  pop\n  pop\n    /* \"contracts/Template/Istanbul10/logic/Router.sol\":577:7468  contract Router is RouterData , IRouter{\r... */\n  jump(tag_6)\n    /* \"#utility.yul\":7:150   */\ntag_8:\n  0x00\n    /* \"#utility.yul\":95:101   */\n  dup2\n    /* \"#utility.yul\":89:102   */\n  mload\n    /* \"#utility.yul\":80:102   */\n  swap1\n  pop\n    /* \"#utility.yul\":111:144   */\n  tag_10\n    /* \"#utility.yul\":138:143   */\n  dup2\n    /* \"#utility.yul\":111:144   */\n  tag_11\n  jump\t// in\ntag_10:\n    /* \"#utility.yul\":70:150   */\n  swap3\n  swap2\n  pop\n  pop\n  jump\t// out\n    /* \"#utility.yul\":156:1066   */\ntag_3:\n  0x00\n  dup1\n  0x00\n  dup1\n  0x00\n    /* \"#utility.yul\":343:346   */\n  0xa0\n    /* \"#utility.yul\":331:340   */\n  dup7\n    /* \"#utility.yul\":322:329   */\n  dup9\n    /* \"#utility.yul\":318:341   */\n  sub\n    /* \"#utility.yul\":314:347   */\n  slt\n    /* \"#utility.yul\":311:313   */\n  iszero\n  tag_13\n  jumpi\n    /* \"#utility.yul\":360:361   */\n  0x00\n    /* \"#utility.yul\":357:358   */\n  dup1\n    /* \"#utility.yul\":350:362   */\n  revert\n    /* \"#utility.yul\":311:313   */\ntag_13:\n    /* \"#utility.yul\":403:404   */\n  0x00\n    /* \"#utility.yul\":428:492   */\n  tag_14\n    /* \"#utility.yul\":484:491   */\n  dup9\n    /* \"#utility.yul\":475:481   */\n  dup3\n    /* \"#utility.yul\":464:473   */\n  dup10\n    /* \"#utility.yul\":460:482   */\n  add\n    /* \"#utility.yul\":428:492   */\n  tag_8\n  jump\t// in\ntag_14:\n    /* \"#utility.yul\":418:492   */\n  swap6\n  pop\n    /* \"#utility.yul\":374:502   */\n  pop\n    /* \"#utility.yul\":541:543   */\n  0x20\n    /* \"#utility.yul\":567:631   */\n  tag_15\n    /* \"#utility.yul\":623:630   */\n  dup9\n    /* \"#utility.yul\":614:620   */\n  dup3\n    /* \"#utility.yul\":603:612   */\n  dup10\n    /* \"#utility.yul\":599:621   */\n  add\n    /* \"#utility.yul\":567:631   */\n  tag_8\n  jump\t// in\ntag_15:\n    /* \"#utility.yul\":557:631   */\n  swap5\n  pop\n    /* \"#utility.yul\":512:641   */\n  pop\n    /* \"#utility.yul\":680:682   */\n  0x40\n    /* \"#utility.yul\":706:770   */\n  tag_16\n    /* \"#utility.yul\":762:769   */\n  dup9\n    /* \"#utility.yul\":753:759   */\n  dup3\n    /* \"#utility.yul\":742:751   */\n  dup10\n    /* \"#utility.yul\":738:760   */\n  add\n    /* \"#utility.yul\":706:770   */\n  tag_8\n  jump\t// in\ntag_16:\n    /* \"#utility.yul\":696:770   */\n  swap4\n  pop\n    /* \"#utility.yul\":651:780   */\n  pop\n    /* \"#utility.yul\":819:821   */\n  0x60\n    /* \"#utility.yul\":845:909   */\n  tag_17\n    /* \"#utility.yul\":901:908   */\n  dup9\n    /* \"#utility.yul\":892:898   */\n  dup3\n    /* \"#utility.yul\":881:890   */\n  dup10\n    /* \"#utility.yul\":877:899   */\n  add\n    /* \"#utility.yul\":845:909   */\n  tag_8\n  jump\t// in\ntag_17:\n    /* \"#utility.yul\":835:909   */\n  swap3\n  pop\n    /* \"#utility.yul\":790:919   */\n  pop\n    /* \"#utility.yul\":958:961   */\n  0x80\n    /* \"#utility.yul\":985:1049   */\n  tag_18\n    /* \"#utility.yul\":1041:1048   */\n  dup9\n    /* \"#utility.yul\":1032:1038   */\n  dup3\n    /* \"#utility.yul\":1021:1030   */\n  dup10\n    /* \"#utility.yul\":1017:1039   */\n  add\n    /* \"#utility.yul\":985:1049   */\n  tag_8\n  jump\t// in\ntag_18:\n    /* \"#utility.yul\":975:1049   */\n  swap2\n  pop\n    /* \"#utility.yul\":929:1059   */\n  pop\n    /* \"#utility.yul\":301:1066   */\n  swap3\n  swap6\n  pop\n  swap3\n  swap6\n  swap1\n  swap4\n  pop\n  jump\t// out\n    /* \"#utility.yul\":1072:1168   */\ntag_19:\n  0x00\n    /* \"#utility.yul\":1138:1162   */\n  tag_21\n    /* \"#utility.yul\":1156:1161   */\n  dup3\n    /* \"#utility.yul\":1138:1162   */\n  tag_22\n  jump\t// in\ntag_21:\n    /* \"#utility.yul\":1127:1162   */\n  swap1\n  pop\n    /* \"#utility.yul\":1117:1168   */\n  swap2\n  swap1\n  pop\n  jump\t// out\n    /* \"#utility.yul\":1174:1300   */\ntag_22:\n  0x00\n    /* \"#utility.yul\":1251:1293   */\n  0xffffffffffffffffffffffffffffffffffffffff\n    /* \"#utility.yul\":1244:1249   */\n  dup3\n    /* \"#utility.yul\":1240:1294   */\n  and\n    /* \"#utility.yul\":1229:1294   */\n  swap1\n  pop\n    /* \"#utility.yul\":1219:1300   */\n  swap2\n  swap1\n  pop\n  jump\t// out\n    /* \"#utility.yul\":1306:1428   */\ntag_11:\n    /* \"#utility.yul\":1379:1403   */\n  tag_25\n    /* \"#utility.yul\":1397:1402   */\n  dup2\n    /* \"#utility.yul\":1379:1403   */\n  tag_19\n  jump\t// in\ntag_25:\n    /* \"#utility.yul\":1372:1377   */\n  dup2\n    /* \"#utility.yul\":1369:1404   */\n  eq\n    /* \"#utility.yul\":1359:1361   */\n  tag_26\n  jumpi\n    /* \"#utility.yul\":1418:1419   */\n  0x00\n    /* \"#utility.yul\":1415:1416   */\n  dup1\n    /* \"#utility.yul\":1408:1420   */\n  revert\n    /* \"#utility.yul\":1359:1361   */\ntag_26:\n    /* \"#utility.yul\":1349:1428   */\n  pop\n  jump\t// out\n    /* \"contracts/Template/Istanbul10/logic/Router.sol\":577:7468  contract Router is RouterData , IRouter{\r... */\ntag_6:\n  shr(0x60, mload(0x80))\n  shr(0x60, mload(0xa0))\n  shr(0x60, mload(0xc0))\n  shr(0x60, mload(0xe0))\n  shr(0x60, mload(0x0100))\n  codecopy(0x00, dataOffset(sub_0), dataSize(sub_0))\n  0x00\n  assignImmutable(\"0x1510211fae36eff936206c1f0578761c7324aa1282c491b6b0313640115f639b\")\n  0x00\n  assignImmutable(\"0xa423c60bc1787d67fffc27d03c64206552502a85ae4c5cd0abbc1461b537b9d1\")\n  0x00\n  assignImmutable(\"0x0cc83849099cd18ec94b8c7ca052b56da564af7460437b655b6de6b3ed3e5080\")\n  0x00\n  assignImmutable(\"0x78a9014aa316c0d81e8cac1983f47ca946aa7db198b97933cfa2b1daf2bdc940\")\n  0x00\n  assignImmutable(\"0xb2b512b441304a14c78813be0575a2b1be8296b169485190a954ec0635e46369\")\n  return(0x00, dataSize(sub_0))\nstop\n\nsub_0: assembly {\n        /* \"contracts/Template/Istanbul10/logic/Router.sol\":577:7468  contract Router is RouterData , IRouter{\r... */\n      mstore(0x40, 0x80)\n      callvalue\n      dup1\n      iszero\n      tag_1\n      jumpi\n      0x00\n      dup1\n      revert\n    tag_1:\n      pop\n      jumpi(tag_2, lt(calldatasize, 0x04))\n      shr(0xe0, calldataload(0x00))\n      dup1\n      0x9ce110d7\n      gt\n      tag_35\n      jumpi\n      dup1\n      0xddca3f43\n      gt\n      tag_36\n      jumpi\n      dup1\n      0xf2be7f53\n      gt\n      tag_37\n      jumpi\n      dup1\n      0xf2be7f53\n      eq\n      tag_31\n      jumpi\n      dup1\n      0xf4464e2a\n      eq\n      tag_32\n      jumpi\n      dup1\n      0xfbfa77cf\n      eq\n      tag_33\n      jumpi\n      dup1\n      0xfcfff16f\n      eq\n      tag_34\n      jumpi\n      jump(tag_2)\n    tag_37:\n      dup1\n      0xddca3f43\n      eq\n      tag_27\n      jumpi\n      dup1\n      0xdfbde3fc\n      eq\n      tag_28\n      jumpi\n      dup1\n      0xe06174e4\n      eq\n      tag_29\n      jumpi\n      dup1\n      0xe66f53b7\n      eq\n      tag_30\n      jumpi\n      jump(tag_2)\n    tag_36:\n      dup1\n      0xc851cc32\n      gt\n      tag_38\n      jumpi\n      dup1\n      0xc851cc32\n      eq\n      tag_23\n      jumpi\n      dup1\n      0xcd9d3dd8\n      eq\n      tag_24\n      jumpi\n      dup1\n      0xd294f093\n      eq\n      tag_25\n      jumpi\n      dup1\n      0xda1c4845\n      eq\n      tag_26\n      jumpi\n      jump(tag_2)\n    tag_38:\n      dup1\n      0x9ce110d7\n      eq\n      tag_19\n      jumpi\n      dup1\n      0xa5360d04\n      eq\n      tag_20\n      jumpi\n      dup1\n      0xadc1b956\n      eq\n      tag_21\n      jumpi\n      dup1\n      0xc45a0155\n      eq\n      tag_22\n      jumpi\n      jump(tag_2)\n    tag_35:\n      dup1\n      0x4571e3a6\n      gt\n      tag_39\n      jumpi\n      dup1\n      0x6e99d77b\n      gt\n      tag_40\n      jumpi\n      dup1\n      0x6e99d77b\n      eq\n      tag_15\n      jumpi\n      dup1\n      0x765d6410\n      eq\n      tag_16\n      jumpi\n      dup1\n      0x7d9f6db5\n      eq\n      tag_17\n      jumpi\n      dup1\n      0x8025e303\n      eq\n      tag_18\n      jumpi\n      jump(tag_2)\n    tag_40:\n      dup1\n      0x4571e3a6\n      eq\n      tag_11\n      jumpi\n      dup1\n      0x4b09b72a\n      eq\n      tag_12\n      jumpi\n      dup1\n      0x632a9a52\n      eq\n      tag_13\n      jumpi\n      dup1\n      0x660d0c4b\n      eq\n      tag_14\n      jumpi\n      jump(tag_2)\n    tag_39:\n      dup1\n      0x14442f54\n      gt\n      tag_41\n      jumpi\n      dup1\n      0x14442f54\n      eq\n      tag_7\n      jumpi\n      dup1\n      0x3205f5fc\n      eq\n      tag_8\n      jumpi\n      dup1\n      0x372c12b1\n      eq\n      tag_9\n      jumpi\n      dup1\n      0x3b92eb23\n      eq\n      tag_10\n      jumpi\n      jump(tag_2)\n    tag_41:\n      dup1\n      0x047fc9aa\n      eq\n      tag_3\n      jumpi\n      dup1\n      0x0b1e4238\n      eq\n      tag_4\n      jumpi\n      dup1\n      0x0c7d5cd8\n      eq\n      tag_5\n      jumpi\n      dup1\n      0x108adc7a\n      eq\n      tag_6\n      jumpi\n    tag_2:\n      0x00\n      dup1\n      revert\n        /* \"contracts/Template/Istanbul10/data/RouterData.sol\":963:993  uint256 override public supply */\n    tag_3:\n      tag_42\n      tag_43\n      jump\t// in\n    tag_42:\n      mload(0x40)\n      tag_44\n      swap2\n      swap1\n      tag_45\n      jump\t// in\n    tag_44:\n      mload(0x40)\n      dup1\n      swap2\n      sub\n      swap1\n      return\n        /* \"contracts/Template/Istanbul10/logic/Router.sol\":891:938  address public immutable override vaultTemplate */\n    tag_4:\n      tag_46\n      tag_47\n      jump\t// in\n    tag_46:\n      mload(0x40)\n      tag_48\n      swap2\n      swap1\n      tag_49\n      jump\t// in\n    tag_48:\n      mload(0x40)\n      dup1\n      swap2\n      sub\n      swap1\n      return\n        /* \"contracts/Template/Istanbul10/data/RouterData.sol\":872:908  uint256 override public reserveRatio */\n    tag_5:\n      tag_50\n      tag_51\n      jump\t// in\n    tag_50:\n      mload(0x40)\n      tag_52\n      swap2\n      swap1\n      tag_45\n      jump\t// in\n    tag_52:\n      mload(0x40)\n      dup1\n      swap2\n      sub\n      swap1\n      return\n        /* \"contracts/Template/Istanbul10/data/RouterData.sol\":1084:1119  uint256 override public cashVetoken */\n    tag_6:\n      tag_53\n      tag_54\n      jump\t// in\n    tag_53:\n      mload(0x40)\n      tag_55\n      swap2\n      swap1\n      tag_45\n      jump\t// in\n    tag_55:\n      mload(0x40)\n      dup1\n      swap2\n      sub\n      swap1\n      return\n        /* \"contracts/Template/Istanbul10/logic/Router.sol\":682:756  string public constant override VERSION_NAME = \"Token Economic & Proposol\" */\n    tag_7:\n      tag_56\n      tag_57\n      jump\t// in\n    tag_56:\n      mload(0x40)\n      tag_58\n      swap2\n      swap1\n      tag_59\n      jump\t// in\n    tag_58:\n      mload(0x40)\n      dup1\n      swap2\n      sub\n      swap1\n      return\n        /* \"contracts/Template/Istanbul10/data/RouterData.sol\":449:481  address override public division */\n    tag_8:\n      tag_60\n      tag_61\n      jump\t// in\n    tag_60:\n      mload(0x40)\n      tag_62\n      swap2\n      swap1\n      tag_49\n      jump\t// in\n    tag_62:\n      mload(0x40)\n      dup1\n      swap2\n      sub\n      swap1\n      return\n        /* \"contracts/Template/Istanbul10/data/RouterData.sol\":590:641  mapping (address => bool) override public whiteList */\n    tag_9:\n      tag_63\n      0x04\n      dup1\n      calldatasize\n      sub\n      dup2\n      add\n      swap1\n      tag_64\n      swap2\n      swap1\n      tag_65\n      jump\t// in\n    tag_64:\n      tag_66\n      jump\t// in\n    tag_63:\n      mload(0x40)\n      tag_67\n      swap2\n      swap1\n      tag_68\n      jump\t// in\n    tag_67:\n      mload(0x40)\n      dup1\n      swap2\n      sub\n      swap1\n      return\n        /* \"contracts/Template/Istanbul10/data/RouterData.sol\":328:359  address override public veToken */\n    tag_10:\n      tag_69\n      tag_70\n      jump\t// in\n    tag_69:\n      mload(0x40)\n      tag_71\n      swap2\n      swap1\n      tag_49\n      jump\t// in\n    tag_71:\n      mload(0x40)\n      dup1\n      swap2\n      sub\n      swap1\n      return\n        /* \"contracts/Template/Istanbul10/logic/Router.sol\":1506:2162  function initialize(address curator_,address settings_,string memory name) override external {\r... */\n    tag_11:\n      tag_72\n      0x04\n      dup1\n      calldatasize\n      sub\n      dup2\n      add\n      swap1\n      tag_73\n      swap2\n      swap1\n      tag_74\n      jump\t// in\n    tag_73:\n      tag_75\n      jump\t// in\n    tag_72:\n      stop\n        /* \"contracts/Template/Istanbul10/data/RouterData.sol\":917:954  uint256 override public reserveAmount */\n    tag_12:\n      tag_76\n      tag_77\n      jump\t// in\n    tag_76:\n      mload(0x40)\n      tag_78\n      swap2\n      swap1\n      tag_45\n      jump\t// in\n    tag_78:\n      mload(0x40)\n      dup1\n      swap2\n      sub\n      swap1\n      return\n        /* \"contracts/Template/Istanbul10/data/RouterData.sol\":412:440  address override public vote */\n    tag_13:\n      tag_79\n      tag_80\n      jump\t// in\n    tag_79:\n      mload(0x40)\n      tag_81\n      swap2\n      swap1\n      tag_49\n      jump\t// in\n    tag_81:\n      mload(0x40)\n      dup1\n      swap2\n      sub\n      swap1\n      return\n        /* \"contracts/Template/Istanbul10/logic/Router.sol\":2575:4416  function issue(uint256 supply_ , string memory symbol , uint256 reserveRatio_ , uint256 entireVaultPrice ,uint256 depositLength,uint256 rewardLength) override external {\r... */\n    tag_14:\n      tag_82\n      0x04\n      dup1\n      calldatasize\n      sub\n      dup2\n      add\n      swap1\n      tag_83\n      swap2\n      swap1\n      tag_84\n      jump\t// in\n    tag_83:\n      tag_85\n      jump\t// in\n    tag_82:\n      stop\n        /* \"contracts/Template/Istanbul10/logic/Router.sol\":832:881  address public immutable override veTokenTemplate */\n    tag_15:\n      tag_86\n      tag_87\n      jump\t// in\n    tag_86:\n      mload(0x40)\n      tag_88\n      swap2\n      swap1\n      tag_49\n      jump\t// in\n    tag_88:\n      mload(0x40)\n      dup1\n      swap2\n      sub\n      swap1\n      return\n        /* \"contracts/Template/Istanbul10/logic/Router.sol\":1007:1053  address public immutable override voteTemplate */\n    tag_16:\n      tag_89\n      tag_90\n      jump\t// in\n    tag_89:\n      mload(0x40)\n      tag_91\n      swap2\n      swap1\n      tag_49\n      jump\t// in\n    tag_91:\n      mload(0x40)\n      dup1\n      swap2\n      sub\n      swap1\n      return\n        /* \"contracts/Template/Istanbul10/data/RouterData.sol\":368:399  address override public auction */\n    tag_17:\n      tag_92\n      tag_93\n      jump\t// in\n    tag_92:\n      mload(0x40)\n      tag_94\n      swap2\n      swap1\n      tag_49\n      jump\t// in\n    tag_94:\n      mload(0x40)\n      dup1\n      swap2\n      sub\n      swap1\n      return\n        /* \"contracts/Template/Istanbul10/logic/Router.sol\":765:816  uint16 public constant override VERSION_NUMBER = 10 */\n    tag_18:\n      tag_95\n      tag_96\n      jump\t// in\n    tag_95:\n      mload(0x40)\n      tag_97\n      swap2\n      swap1\n      tag_98\n      jump\t// in\n    tag_97:\n      mload(0x40)\n      dup1\n      swap2\n      sub\n      swap1\n      return\n        /* \"contracts/Template/Istanbul10/data/RouterData.sol\":654:686  bool override public initializer */\n    tag_19:\n      tag_99\n      tag_100\n      jump\t// in\n    tag_99:\n      mload(0x40)\n      tag_101\n      swap2\n      swap1\n      tag_68\n      jump\t// in\n    tag_101:\n      mload(0x40)\n      dup1\n      swap2\n      sub\n      swap1\n      return\n        /* \"contracts/Template/Istanbul10/data/RouterData.sol\":1039:1075  uint256 override public cashDivision */\n    tag_20:\n      tag_102\n      tag_103\n      jump\t// in\n    tag_102:\n      mload(0x40)\n      tag_104\n      swap2\n      swap1\n      tag_45\n      jump\t// in\n    tag_104:\n      mload(0x40)\n      dup1\n      swap2\n      sub\n      swap1\n      return\n        /* \"contracts/Template/Istanbul10/data/RouterData.sol\":828:863  uint256 override public lastClaimed */\n    tag_21:\n      tag_105\n      tag_106\n      jump\t// in\n    tag_105:\n      mload(0x40)\n      tag_107\n      swap2\n      swap1\n      tag_45\n      jump\t// in\n    tag_107:\n      mload(0x40)\n      dup1\n      swap2\n      sub\n      swap1\n      return\n        /* \"contracts/Template/Istanbul10/data/RouterData.sol\":205:236  address override public factory */\n    tag_22:\n      tag_108\n      tag_109\n      jump\t// in\n    tag_108:\n      mload(0x40)\n      tag_110\n      swap2\n      swap1\n      tag_49\n      jump\t// in\n    tag_110:\n      mload(0x40)\n      dup1\n      swap2\n      sub\n      swap1\n      return\n        /* \"contracts/Template/Istanbul10/logic/Router.sol\":6822:7211  function updateRouter(address updataTemplate) override external onlyWhiteList {\r... */\n    tag_23:\n      tag_111\n      0x04\n      dup1\n      calldatasize\n      sub\n      dup2\n      add\n      swap1\n      tag_112\n      swap2\n      swap1\n      tag_65\n      jump\t// in\n    tag_112:\n      tag_113\n      jump\t// in\n    tag_111:\n      stop\n        /* \"contracts/Template/Istanbul10/logic/Router.sol\":2170:2567  function curatorDeposit(address[] memory nft,uint256[] memory nftId,uint256[] memory amount) override external {\r... */\n    tag_24:\n      tag_114\n      0x04\n      dup1\n      calldatasize\n      sub\n      dup2\n      add\n      swap1\n      tag_115\n      swap2\n      swap1\n      tag_116\n      jump\t// in\n    tag_115:\n      tag_117\n      jump\t// in\n    tag_114:\n      stop\n        /* \"contracts/Template/Istanbul10/logic/Router.sol\":5117:5943  function claimFees() override external {\r... */\n    tag_25:\n      tag_118\n      tag_119\n      jump\t// in\n    tag_118:\n      stop\n        /* \"contracts/Template/Istanbul10/logic/Router.sol\":4424:4556  function mintToScale(uint256 supply_ ,address mintTo) override external onlyWhiteList{\r... */\n    tag_26:\n      tag_120\n      0x04\n      dup1\n      calldatasize\n      sub\n      dup2\n      add\n      swap1\n      tag_121\n      swap2\n      swap1\n      tag_122\n      jump\t// in\n    tag_121:\n      tag_123\n      jump\t// in\n    tag_120:\n      stop\n        /* \"contracts/Template/Istanbul10/data/RouterData.sol\":1003:1030  uint256 override public fee */\n    tag_27:\n      tag_124\n      tag_125\n      jump\t// in\n    tag_124:\n      mload(0x40)\n      tag_126\n      swap2\n      swap1\n      tag_45\n      jump\t// in\n    tag_126:\n      mload(0x40)\n      dup1\n      swap2\n      sub\n      swap1\n      return\n        /* \"contracts/Template/Istanbul10/data/RouterData.sol\":789:819  string override public DaoName */\n    tag_28:\n      tag_127\n      tag_128\n      jump\t// in\n    tag_127:\n      mload(0x40)\n      tag_129\n      swap2\n      swap1\n      tag_59\n      jump\t// in\n    tag_129:\n      mload(0x40)\n      dup1\n      swap2\n      sub\n      swap1\n      return\n        /* \"contracts/Template/Istanbul10/data/RouterData.sol\":249:281  address override public settings */\n    tag_29:\n      tag_130\n      tag_131\n      jump\t// in\n    tag_130:\n      mload(0x40)\n      tag_132\n      swap2\n      swap1\n      tag_49\n      jump\t// in\n    tag_132:\n      mload(0x40)\n      dup1\n      swap2\n      sub\n      swap1\n      return\n        /* \"contracts/Template/Istanbul10/data/RouterData.sol\":490:521  address override public curator */\n    tag_30:\n      tag_133\n      tag_134\n      jump\t// in\n    tag_133:\n      mload(0x40)\n      tag_135\n      swap2\n      swap1\n      tag_49\n      jump\t// in\n    tag_135:\n      mload(0x40)\n      dup1\n      swap2\n      sub\n      swap1\n      return\n        /* \"contracts/Template/Istanbul10/logic/Router.sol\":948:997  address public immutable override auctionTemplate */\n    tag_31:\n      tag_136\n      tag_137\n      jump\t// in\n    tag_136:\n      mload(0x40)\n      tag_138\n      swap2\n      swap1\n      tag_49\n      jump\t// in\n    tag_138:\n      mload(0x40)\n      dup1\n      swap2\n      sub\n      swap1\n      return\n        /* \"contracts/Template/Istanbul10/logic/Router.sol\":1063:1113  address public immutable override divisionTemplate */\n    tag_32:\n      tag_139\n      tag_140\n      jump\t// in\n    tag_139:\n      mload(0x40)\n      tag_141\n      swap2\n      swap1\n      tag_49\n      jump\t// in\n    tag_141:\n      mload(0x40)\n      dup1\n      swap2\n      sub\n      swap1\n      return\n        /* \"contracts/Template/Istanbul10/data/RouterData.sol\":290:319  address override public vault */\n    tag_33:\n      tag_142\n      tag_143\n      jump\t// in\n    tag_142:\n      mload(0x40)\n      tag_144\n      swap2\n      swap1\n      tag_49\n      jump\t// in\n    tag_144:\n      mload(0x40)\n      dup1\n      swap2\n      sub\n      swap1\n      return\n        /* \"contracts/Template/Istanbul10/data/RouterData.sol\":695:720  bool override public open */\n    tag_34:\n      tag_145\n      tag_146\n      jump\t// in\n    tag_145:\n      mload(0x40)\n      tag_147\n      swap2\n      swap1\n      tag_68\n      jump\t// in\n    tag_147:\n      mload(0x40)\n      dup1\n      swap2\n      sub\n      swap1\n      return\n        /* \"contracts/Template/Istanbul10/data/RouterData.sol\":963:993  uint256 override public supply */\n    tag_43:\n      sload(0x0e)\n      dup2\n      jump\t// out\n        /* \"contracts/Template/Istanbul10/logic/Router.sol\":891:938  address public immutable override vaultTemplate */\n    tag_47:\n      immutable(\"0x78a9014aa316c0d81e8cac1983f47ca946aa7db198b97933cfa2b1daf2bdc940\")\n      dup2\n      jump\t// out\n        /* \"contracts/Template/Istanbul10/data/RouterData.sol\":872:908  uint256 override public reserveRatio */\n    tag_51:\n      sload(0x0c)\n      dup2\n      jump\t// out\n        /* \"contracts/Template/Istanbul10/data/RouterData.sol\":1084:1119  uint256 override public cashVetoken */\n    tag_54:\n      sload(0x11)\n      dup2\n      jump\t// out\n        /* \"contracts/Template/Istanbul10/logic/Router.sol\":682:756  string public constant override VERSION_NAME = \"Token Economic & Proposol\" */\n    tag_57:\n      mload(0x40)\n      dup1\n      0x40\n      add\n      0x40\n      mstore\n      dup1\n      0x19\n      dup2\n      mstore\n      0x20\n      add\n      0x546f6b656e2045636f6e6f6d696320262050726f706f736f6c00000000000000\n      dup2\n      mstore\n      pop\n      dup2\n      jump\t// out\n        /* \"contracts/Template/Istanbul10/data/RouterData.sol\":449:481  address override public division */\n    tag_61:\n      0x06\n      0x00\n      swap1\n      sload\n      swap1\n      0x0100\n      exp\n      swap1\n      div\n      0xffffffffffffffffffffffffffffffffffffffff\n      and\n      dup2\n      jump\t// out\n        /* \"contracts/Template/Istanbul10/data/RouterData.sol\":590:641  mapping (address => bool) override public whiteList */\n    tag_66:\n      mstore(0x20, 0x08)\n      dup1\n      0x00\n      mstore\n      keccak256(0x00, 0x40)\n      0x00\n      swap2\n      pop\n      sload\n      swap1\n      0x0100\n      exp\n      swap1\n      div\n      0xff\n      and\n      dup2\n      jump\t// out\n        /* \"contracts/Template/Istanbul10/data/RouterData.sol\":328:359  address override public veToken */\n    tag_70:\n      0x03\n      0x00\n      swap1\n      sload\n      swap1\n      0x0100\n      exp\n      swap1\n      div\n      0xffffffffffffffffffffffffffffffffffffffff\n      and\n      dup2\n      jump\t// out\n        /* \"contracts/Template/Istanbul10/logic/Router.sol\":1506:2162  function initialize(address curator_,address settings_,string memory name) override external {\r... */\n    tag_75:\n        /* \"contracts/Template/Istanbul10/logic/Router.sol\":1619:1630  initializer */\n      0x09\n      0x00\n      swap1\n      sload\n      swap1\n      0x0100\n      exp\n      swap1\n      div\n      0xff\n      and\n        /* \"contracts/Template/Istanbul10/logic/Router.sol\":1618:1630  !initializer */\n      iszero\n        /* \"contracts/Template/Istanbul10/logic/Router.sol\":1610:1667  require(!initializer,\"initialize :: Already initialized\") */\n      tag_149\n      jumpi\n      mload(0x40)\n      0x08c379a000000000000000000000000000000000000000000000000000000000\n      dup2\n      mstore\n      0x04\n      add\n      tag_150\n      swap1\n      tag_151\n      jump\t// in\n    tag_150:\n      mload(0x40)\n      dup1\n      swap2\n      sub\n      swap1\n      revert\n    tag_149:\n        /* \"contracts/Template/Istanbul10/logic/Router.sol\":1693:1704  initializer */\n      0x09\n      0x00\n      swap1\n      sload\n      swap1\n      0x0100\n      exp\n      swap1\n      div\n      0xff\n      and\n        /* \"contracts/Template/Istanbul10/logic/Router.sol\":1692:1704  !initializer */\n      iszero\n        /* \"contracts/Template/Istanbul10/logic/Router.sol\":1678:1689  initializer */\n      0x09\n      0x00\n        /* \"contracts/Template/Istanbul10/logic/Router.sol\":1678:1704  initializer = !initializer */\n      0x0100\n      exp\n      dup2\n      sload\n      dup2\n      0xff\n      mul\n      not\n      and\n      swap1\n      dup4\n      iszero\n      iszero\n      mul\n      or\n      swap1\n      sstore\n      pop\n        /* \"contracts/Template/Istanbul10/logic/Router.sol\":1725:1735  msg.sender */\n      caller\n        /* \"contracts/Template/Istanbul10/logic/Router.sol\":1715:1722  factory */\n      0x00\n      dup1\n        /* \"contracts/Template/Istanbul10/logic/Router.sol\":1715:1735  factory = msg.sender */\n      0x0100\n      exp\n      dup2\n      sload\n      dup2\n      0xffffffffffffffffffffffffffffffffffffffff\n      mul\n      not\n      and\n      swap1\n      dup4\n      0xffffffffffffffffffffffffffffffffffffffff\n      and\n      mul\n      or\n      swap1\n      sstore\n      pop\n        /* \"contracts/Template/Istanbul10/logic/Router.sol\":1758:1762  name */\n      dup1\n        /* \"contracts/Template/Istanbul10/logic/Router.sol\":1748:1755  DaoName */\n      0x0a\n        /* \"contracts/Template/Istanbul10/logic/Router.sol\":1748:1762  DaoName = name */\n      swap1\n      dup1\n      mload\n      swap1\n      0x20\n      add\n      swap1\n      tag_152\n      swap3\n      swap2\n      swap1\n      tag_153\n      jump\t// in\n    tag_152:\n      pop\n        /* \"contracts/Template/Istanbul10/logic/Router.sol\":1783:1824  bytes memory _vaultInitializationCallData */\n      0x00\n        /* \"contracts/Template/Istanbul10/logic/Router.sol\":1827:1890  abi.encodeWithSignature(\r... */\n      add(0x24, mload(0x40))\n      mload(0x40)\n      0x20\n      dup2\n      dup4\n      sub\n      sub\n      dup2\n      mstore\n      swap1\n      0x40\n      mstore\n      and(not(0xffffffffffffffffffffffffffffffffffffffffffffffffffffffff), 0x8129fc1c00000000000000000000000000000000000000000000000000000000)\n      0x20\n      dup3\n      add\n      dup1\n      mload\n      0xffffffffffffffffffffffffffffffffffffffffffffffffffffffff\n      dup4\n      dup2\n      dup4\n      and\n      or\n      dup4\n      mstore\n      pop\n      pop\n      pop\n      pop\n        /* \"contracts/Template/Istanbul10/logic/Router.sol\":1783:1890  bytes memory _vaultInitializationCallData = abi.encodeWithSignature(\r... */\n      swap1\n      pop\n        /* \"contracts/Template/Istanbul10/logic/Router.sol\":1911:1971  createContract(vaultTemplate , _vaultInitializationCallData) */\n      tag_154\n        /* \"contracts/Template/Istanbul10/logic/Router.sol\":1926:1939  vaultTemplate */\n      immutable(\"0x78a9014aa316c0d81e8cac1983f47ca946aa7db198b97933cfa2b1daf2bdc940\")\n        /* \"contracts/Template/Istanbul10/logic/Router.sol\":1942:1970  _vaultInitializationCallData */\n      dup3\n        /* \"contracts/Template/Istanbul10/logic/Router.sol\":1911:1925  createContract */\n      tag_155\n        /* \"contracts/Template/Istanbul10/logic/Router.sol\":1911:1971  createContract(vaultTemplate , _vaultInitializationCallData) */\n      jump\t// in\n    tag_154:\n        /* \"contracts/Template/Istanbul10/logic/Router.sol\":1903:1908  vault */\n      0x02\n      0x00\n        /* \"contracts/Template/Istanbul10/logic/Router.sol\":1903:1971  vault = createContract(vaultTemplate , _vaultInitializationCallData) */\n      0x0100\n      exp\n      dup2\n      sload\n      dup2\n      0xffffffffffffffffffffffffffffffffffffffff\n      mul\n      not\n      and\n      swap1\n      dup4\n      0xffffffffffffffffffffffffffffffffffffffff\n      and\n      mul\n      or\n      swap1\n      sstore\n      pop\n        /* \"contracts/Template/Istanbul10/logic/Router.sol\":1982:2007  setWhiteList(vault, true) */\n      tag_156\n        /* \"contracts/Template/Istanbul10/logic/Router.sol\":1995:2000  vault */\n      0x02\n      0x00\n      swap1\n      sload\n      swap1\n      0x0100\n      exp\n      swap1\n      div\n      0xffffffffffffffffffffffffffffffffffffffff\n      and\n        /* \"contracts/Template/Istanbul10/logic/Router.sol\":2002:2006  true */\n      0x01\n        /* \"contracts/Template/Istanbul10/logic/Router.sol\":1982:1994  setWhiteList */\n      tag_157\n        /* \"contracts/Template/Istanbul10/logic/Router.sol\":1982:2007  setWhiteList(vault, true) */\n      jump\t// in\n    tag_156:\n        /* \"contracts/Template/Istanbul10/logic/Router.sol\":2020:2053  setWhiteList(address(this), true) */\n      tag_158\n        /* \"contracts/Template/Istanbul10/logic/Router.sol\":2041:2045  this */\n      address\n        /* \"contracts/Template/Istanbul10/logic/Router.sol\":2048:2052  true */\n      0x01\n        /* \"contracts/Template/Istanbul10/logic/Router.sol\":2020:2032  setWhiteList */\n      tag_157\n        /* \"contracts/Template/Istanbul10/logic/Router.sol\":2020:2053  setWhiteList(address(this), true) */\n      jump\t// in\n    tag_158:\n        /* \"contracts/Template/Istanbul10/logic/Router.sol\":2074:2082  curator_ */\n      dup4\n        /* \"contracts/Template/Istanbul10/logic/Router.sol\":2064:2071  curator */\n      0x07\n      0x00\n        /* \"contracts/Template/Istanbul10/logic/Router.sol\":2064:2082  curator = curator_ */\n      0x0100\n      exp\n      dup2\n      sload\n      dup2\n      0xffffffffffffffffffffffffffffffffffffffff\n      mul\n      not\n      and\n      swap1\n      dup4\n      0xffffffffffffffffffffffffffffffffffffffff\n      and\n      mul\n      or\n      swap1\n      sstore\n      pop\n        /* \"contracts/Template/Istanbul10/logic/Router.sol\":2104:2113  settings_ */\n      dup3\n        /* \"contracts/Template/Istanbul10/logic/Router.sol\":2093:2101  settings */\n      0x01\n      0x00\n        /* \"contracts/Template/Istanbul10/logic/Router.sol\":2093:2113  settings = settings_ */\n      0x0100\n      exp\n      dup2\n      sload\n      dup2\n      0xffffffffffffffffffffffffffffffffffffffff\n      mul\n      not\n      and\n      swap1\n      dup4\n      0xffffffffffffffffffffffffffffffffffffffff\n      and\n      mul\n      or\n      swap1\n      sstore\n      pop\n        /* \"contracts/Template/Istanbul10/logic/Router.sol\":2129:2154  Initialize(curator,vault) */\n      0xdc90fed0326ba91706deeac7eb34ac9f8b680734f9d782864dc29704d23bed6a\n        /* \"contracts/Template/Istanbul10/logic/Router.sol\":2140:2147  curator */\n      0x07\n      0x00\n      swap1\n      sload\n      swap1\n      0x0100\n      exp\n      swap1\n      div\n      0xffffffffffffffffffffffffffffffffffffffff\n      and\n        /* \"contracts/Template/Istanbul10/logic/Router.sol\":2148:2153  vault */\n      0x02\n      0x00\n      swap1\n      sload\n      swap1\n      0x0100\n      exp\n      swap1\n      div\n      0xffffffffffffffffffffffffffffffffffffffff\n      and\n        /* \"contracts/Template/Istanbul10/logic/Router.sol\":2129:2154  Initialize(curator,vault) */\n      mload(0x40)\n      tag_159\n      swap3\n      swap2\n      swap1\n      tag_160\n      jump\t// in\n    tag_159:\n      mload(0x40)\n      dup1\n      swap2\n      sub\n      swap1\n      log1\n        /* \"contracts/Template/Istanbul10/logic/Router.sol\":1506:2162  function initialize(address curator_,address settings_,string memory name) override external {\r... */\n      pop\n      pop\n      pop\n      pop\n      jump\t// out\n        /* \"contracts/Template/Istanbul10/data/RouterData.sol\":917:954  uint256 override public reserveAmount */\n    tag_77:\n      sload(0x0d)\n      dup2\n      jump\t// out\n        /* \"contracts/Template/Istanbul10/data/RouterData.sol\":412:440  address override public vote */\n    tag_80:\n      0x05\n      0x00\n      swap1\n      sload\n      swap1\n      0x0100\n      exp\n      swap1\n      div\n      0xffffffffffffffffffffffffffffffffffffffff\n      and\n      dup2\n      jump\t// out\n        /* \"contracts/Template/Istanbul10/logic/Router.sol\":2575:4416  function issue(uint256 supply_ , string memory symbol , uint256 reserveRatio_ , uint256 entireVaultPrice ,uint256 depositLength,uint256 rewardLength) override external {\r... */\n    tag_85:\n        /* \"contracts/Template/Istanbul10/logic/Router.sol\":2802:2803  0 */\n      0x00\n        /* \"contracts/Template/Istanbul10/logic/Router.sol\":2769:2774  vault */\n      0x02\n      0x00\n      swap1\n      sload\n      swap1\n      0x0100\n      exp\n      swap1\n      div\n      0xffffffffffffffffffffffffffffffffffffffff\n      and\n        /* \"contracts/Template/Istanbul10/logic/Router.sol\":2762:2789  IVault(vault).getFreedomNFT */\n      0xffffffffffffffffffffffffffffffffffffffff\n      and\n      0x634f6319\n        /* \"contracts/Template/Istanbul10/logic/Router.sol\":2762:2791  IVault(vault).getFreedomNFT() */\n      mload(0x40)\n      dup2\n      0xffffffff\n      and\n      0xe0\n      shl\n      dup2\n      mstore\n      0x04\n      add\n      0x00\n      mload(0x40)\n      dup1\n      dup4\n      sub\n      dup2\n      dup7\n      dup1\n      extcodesize\n      iszero\n      dup1\n      iszero\n      tag_162\n      jumpi\n      0x00\n      dup1\n      revert\n    tag_162:\n      pop\n      gas\n      staticcall\n      iszero\n      dup1\n      iszero\n      tag_164\n      jumpi\n      returndatasize\n      0x00\n      dup1\n      returndatacopy\n      revert(0x00, returndatasize)\n    tag_164:\n      pop\n      pop\n      pop\n      pop\n      mload(0x40)\n      returndatasize\n      0x00\n      dup3\n      returndatacopy\n      returndatasize\n      not(0x1f)\n      0x1f\n      dup3\n      add\n      and\n      dup3\n      add\n      dup1\n      0x40\n      mstore\n      pop\n      dup2\n      add\n      swap1\n      tag_165\n      swap2\n      swap1\n      tag_166\n      jump\t// in\n    tag_165:\n        /* \"contracts/Template/Istanbul10/logic/Router.sol\":2762:2798  IVault(vault).getFreedomNFT().length */\n      mload\n        /* \"contracts/Template/Istanbul10/logic/Router.sol\":2762:2803  IVault(vault).getFreedomNFT().length != 0 */\n      eq\n      iszero\n        /* \"contracts/Template/Istanbul10/logic/Router.sol\":2754:2836  require(IVault(vault).getFreedomNFT().length != 0 ,\"issue :: It's an empty vault\") */\n      tag_167\n      jumpi\n      mload(0x40)\n      0x08c379a000000000000000000000000000000000000000000000000000000000\n      dup2\n      mstore\n      0x04\n      add\n      tag_168\n      swap1\n      tag_169\n      jump\t// in\n    tag_168:\n      mload(0x40)\n      dup1\n      swap2\n      sub\n      swap1\n      revert\n    tag_167:\n        /* \"contracts/Template/Istanbul10/logic/Router.sol\":2869:2876  curator */\n      0x07\n      0x00\n      swap1\n      sload\n      swap1\n      0x0100\n      exp\n      swap1\n      div\n      0xffffffffffffffffffffffffffffffffffffffff\n      and\n        /* \"contracts/Template/Istanbul10/logic/Router.sol\":2855:2876  msg.sender == curator */\n      0xffffffffffffffffffffffffffffffffffffffff\n      and\n        /* \"contracts/Template/Istanbul10/logic/Router.sol\":2855:2865  msg.sender */\n      caller\n        /* \"contracts/Template/Istanbul10/logic/Router.sol\":2855:2876  msg.sender == curator */\n      0xffffffffffffffffffffffffffffffffffffffff\n      and\n      eq\n        /* \"contracts/Template/Istanbul10/logic/Router.sol\":2847:2923  require(msg.sender == curator, \"issue :: Only curator can issue the tokens\") */\n      tag_170\n      jumpi\n      mload(0x40)\n      0x08c379a000000000000000000000000000000000000000000000000000000000\n      dup2\n      mstore\n      0x04\n      add\n      tag_171\n      swap1\n      tag_172\n      jump\t// in\n    tag_171:\n      mload(0x40)\n      dup1\n      swap2\n      sub\n      swap1\n      revert\n    tag_170:\n        /* \"contracts/Template/Istanbul10/logic/Router.sol\":2943:2947  open */\n      0x09\n      0x01\n      swap1\n      sload\n      swap1\n      0x0100\n      exp\n      swap1\n      div\n      0xff\n      and\n        /* \"contracts/Template/Istanbul10/logic/Router.sol\":2942:2947  !open */\n      iszero\n        /* \"contracts/Template/Istanbul10/logic/Router.sol\":2934:2984  require(!open, \"issue :: Token is already active\") */\n      tag_173\n      jumpi\n      mload(0x40)\n      0x08c379a000000000000000000000000000000000000000000000000000000000\n      dup2\n      mstore\n      0x04\n      add\n      tag_174\n      swap1\n      tag_175\n      jump\t// in\n    tag_174:\n      mload(0x40)\n      dup1\n      swap2\n      sub\n      swap1\n      revert\n    tag_173:\n        /* \"contracts/Template/Istanbul10/logic/Router.sol\":3014:3028  10000*(10**18) */\n      0x021e19e0c9bab2400000\n        /* \"contracts/Template/Istanbul10/logic/Router.sol\":3003:3010  supply_ */\n      dup7\n        /* \"contracts/Template/Istanbul10/logic/Router.sol\":3003:3028  supply_ >= 10000*(10**18) */\n      lt\n      iszero\n        /* \"contracts/Template/Istanbul10/logic/Router.sol\":2995:3078  require(supply_ >= 10000*(10**18), \"issue :: The supply must be greater than 1000\") */\n      tag_176\n      jumpi\n      mload(0x40)\n      0x08c379a000000000000000000000000000000000000000000000000000000000\n      dup2\n      mstore\n      0x04\n      add\n      tag_177\n      swap1\n      tag_178\n      jump\t// in\n    tag_177:\n      mload(0x40)\n      dup1\n      swap2\n      sub\n      swap1\n      revert\n    tag_176:\n        /* \"contracts/Template/Istanbul10/logic/Router.sol\":3114:3116  99 */\n      0x63\n        /* \"contracts/Template/Istanbul10/logic/Router.sol\":3097:3110  reserveRatio_ */\n      dup5\n        /* \"contracts/Template/Istanbul10/logic/Router.sol\":3097:3116  reserveRatio_ <= 99 */\n      gt\n      iszero\n        /* \"contracts/Template/Istanbul10/logic/Router.sol\":3089:3153  require(reserveRatio_ <= 99, \"issue :: Incorrect reserve ratio\") */\n      tag_179\n      jumpi\n      mload(0x40)\n      0x08c379a000000000000000000000000000000000000000000000000000000000\n      dup2\n      mstore\n      0x04\n      add\n      tag_180\n      swap1\n      tag_181\n      jump\t// in\n    tag_180:\n      mload(0x40)\n      dup1\n      swap2\n      sub\n      swap1\n      revert\n    tag_179:\n        /* \"contracts/Template/Istanbul10/logic/Router.sol\":3171:3175  true */\n      0x01\n        /* \"contracts/Template/Istanbul10/logic/Router.sol\":3164:3168  open */\n      0x09\n      0x01\n        /* \"contracts/Template/Istanbul10/logic/Router.sol\":3164:3175  open = true */\n      0x0100\n      exp\n      dup2\n      sload\n      dup2\n      0xff\n      mul\n      not\n      and\n      swap1\n      dup4\n      iszero\n      iszero\n      mul\n      or\n      swap1\n      sstore\n      pop\n        /* \"contracts/Template/Istanbul10/logic/Router.sol\":3188:3229  bytes memory _emptyInitializationCallData */\n      0x00\n        /* \"contracts/Template/Istanbul10/logic/Router.sol\":3232:3295  abi.encodeWithSignature(\r... */\n      add(0x24, mload(0x40))\n      mload(0x40)\n      0x20\n      dup2\n      dup4\n      sub\n      sub\n      dup2\n      mstore\n      swap1\n      0x40\n      mstore\n      and(not(0xffffffffffffffffffffffffffffffffffffffffffffffffffffffff), 0x8129fc1c00000000000000000000000000000000000000000000000000000000)\n      0x20\n      dup3\n      add\n      dup1\n      mload\n      0xffffffffffffffffffffffffffffffffffffffffffffffffffffffff\n      dup4\n      dup2\n      dup4\n      and\n      or\n      dup4\n      mstore\n      pop\n      pop\n      pop\n      pop\n        /* \"contracts/Template/Istanbul10/logic/Router.sol\":3188:3295  bytes memory _emptyInitializationCallData = abi.encodeWithSignature(\r... */\n      swap1\n      pop\n        /* \"contracts/Template/Istanbul10/logic/Router.sol\":3316:3377  createContract(veTokenTemplate, _emptyInitializationCallData) */\n      tag_182\n        /* \"contracts/Template/Istanbul10/logic/Router.sol\":3331:3346  veTokenTemplate */\n      immutable(\"0xb2b512b441304a14c78813be0575a2b1be8296b169485190a954ec0635e46369\")\n        /* \"contracts/Template/Istanbul10/logic/Router.sol\":3348:3376  _emptyInitializationCallData */\n      dup3\n        /* \"contracts/Template/Istanbul10/logic/Router.sol\":3316:3330  createContract */\n      tag_155\n        /* \"contracts/Template/Istanbul10/logic/Router.sol\":3316:3377  createContract(veTokenTemplate, _emptyInitializationCallData) */\n      jump\t// in\n    tag_182:\n        /* \"contracts/Template/Istanbul10/logic/Router.sol\":3306:3313  veToken */\n      0x03\n      0x00\n        /* \"contracts/Template/Istanbul10/logic/Router.sol\":3306:3377  veToken = createContract(veTokenTemplate, _emptyInitializationCallData) */\n      0x0100\n      exp\n      dup2\n      sload\n      dup2\n      0xffffffffffffffffffffffffffffffffffffffff\n      mul\n      not\n      and\n      swap1\n      dup4\n      0xffffffffffffffffffffffffffffffffffffffff\n      and\n      mul\n      or\n      swap1\n      sstore\n      pop\n        /* \"contracts/Template/Istanbul10/logic/Router.sol\":3388:3415  setWhiteList(veToken, true) */\n      tag_183\n        /* \"contracts/Template/Istanbul10/logic/Router.sol\":3401:3408  veToken */\n      0x03\n      0x00\n      swap1\n      sload\n      swap1\n      0x0100\n      exp\n      swap1\n      div\n      0xffffffffffffffffffffffffffffffffffffffff\n      and\n        /* \"contracts/Template/Istanbul10/logic/Router.sol\":3410:3414  true */\n      0x01\n        /* \"contracts/Template/Istanbul10/logic/Router.sol\":3388:3400  setWhiteList */\n      tag_157\n        /* \"contracts/Template/Istanbul10/logic/Router.sol\":3388:3415  setWhiteList(veToken, true) */\n      jump\t// in\n    tag_183:\n        /* \"contracts/Template/Istanbul10/logic/Router.sol\":3438:3499  createContract(auctionTemplate, _emptyInitializationCallData) */\n      tag_184\n        /* \"contracts/Template/Istanbul10/logic/Router.sol\":3453:3468  auctionTemplate */\n      immutable(\"0x0cc83849099cd18ec94b8c7ca052b56da564af7460437b655b6de6b3ed3e5080\")\n        /* \"contracts/Template/Istanbul10/logic/Router.sol\":3470:3498  _emptyInitializationCallData */\n      dup3\n        /* \"contracts/Template/Istanbul10/logic/Router.sol\":3438:3452  createContract */\n      tag_155\n        /* \"contracts/Template/Istanbul10/logic/Router.sol\":3438:3499  createContract(auctionTemplate, _emptyInitializationCallData) */\n      jump\t// in\n    tag_184:\n        /* \"contracts/Template/Istanbul10/logic/Router.sol\":3428:3435  auction */\n      0x04\n      0x00\n        /* \"contracts/Template/Istanbul10/logic/Router.sol\":3428:3499  auction = createContract(auctionTemplate, _emptyInitializationCallData) */\n      0x0100\n      exp\n      dup2\n      sload\n      dup2\n      0xffffffffffffffffffffffffffffffffffffffff\n      mul\n      not\n      and\n      swap1\n      dup4\n      0xffffffffffffffffffffffffffffffffffffffff\n      and\n      mul\n      or\n      swap1\n      sstore\n      pop\n        /* \"contracts/Template/Istanbul10/logic/Router.sol\":3510:3537  setWhiteList(auction, true) */\n      tag_185\n        /* \"contracts/Template/Istanbul10/logic/Router.sol\":3523:3530  auction */\n      0x04\n      0x00\n      swap1\n      sload\n      swap1\n      0x0100\n      exp\n      swap1\n      div\n      0xffffffffffffffffffffffffffffffffffffffff\n      and\n        /* \"contracts/Template/Istanbul10/logic/Router.sol\":3532:3536  true */\n      0x01\n        /* \"contracts/Template/Istanbul10/logic/Router.sol\":3510:3522  setWhiteList */\n      tag_157\n        /* \"contracts/Template/Istanbul10/logic/Router.sol\":3510:3537  setWhiteList(auction, true) */\n      jump\t// in\n    tag_185:\n        /* \"contracts/Template/Istanbul10/logic/Router.sol\":3557:3615  createContract(voteTemplate, _emptyInitializationCallData) */\n      tag_186\n        /* \"contracts/Template/Istanbul10/logic/Router.sol\":3572:3584  voteTemplate */\n      immutable(\"0xa423c60bc1787d67fffc27d03c64206552502a85ae4c5cd0abbc1461b537b9d1\")\n        /* \"contracts/Template/Istanbul10/logic/Router.sol\":3586:3614  _emptyInitializationCallData */\n      dup3\n        /* \"contracts/Template/Istanbul10/logic/Router.sol\":3557:3571  createContract */\n      tag_155\n        /* \"contracts/Template/Istanbul10/logic/Router.sol\":3557:3615  createContract(voteTemplate, _emptyInitializationCallData) */\n      jump\t// in\n    tag_186:\n        /* \"contracts/Template/Istanbul10/logic/Router.sol\":3550:3554  vote */\n      0x05\n      0x00\n        /* \"contracts/Template/Istanbul10/logic/Router.sol\":3550:3615  vote = createContract(voteTemplate, _emptyInitializationCallData) */\n      0x0100\n      exp\n      dup2\n      sload\n      dup2\n      0xffffffffffffffffffffffffffffffffffffffff\n      mul\n      not\n      and\n      swap1\n      dup4\n      0xffffffffffffffffffffffffffffffffffffffff\n      and\n      mul\n      or\n      swap1\n      sstore\n      pop\n        /* \"contracts/Template/Istanbul10/logic/Router.sol\":3626:3650  setWhiteList(vote, true) */\n      tag_187\n        /* \"contracts/Template/Istanbul10/logic/Router.sol\":3639:3643  vote */\n      0x05\n      0x00\n      swap1\n      sload\n      swap1\n      0x0100\n      exp\n      swap1\n      div\n      0xffffffffffffffffffffffffffffffffffffffff\n      and\n        /* \"contracts/Template/Istanbul10/logic/Router.sol\":3645:3649  true */\n      0x01\n        /* \"contracts/Template/Istanbul10/logic/Router.sol\":3626:3638  setWhiteList */\n      tag_157\n        /* \"contracts/Template/Istanbul10/logic/Router.sol\":3626:3650  setWhiteList(vote, true) */\n      jump\t// in\n    tag_187:\n        /* \"contracts/Template/Istanbul10/logic/Router.sol\":3663:3707  bytes memory _divisionInitializationCallData */\n      0x00\n        /* \"contracts/Template/Istanbul10/logic/Router.sol\":3790:3797  DaoName */\n      0x0a\n        /* \"contracts/Template/Istanbul10/logic/Router.sol\":3812:3818  symbol */\n      dup8\n        /* \"contracts/Template/Istanbul10/logic/Router.sol\":3710:3829  abi.encodeWithSignature(\r... */\n      add(0x24, mload(0x40))\n      tag_188\n      swap3\n      swap2\n      swap1\n      tag_189\n      jump\t// in\n    tag_188:\n      mload(0x40)\n      0x20\n      dup2\n      dup4\n      sub\n      sub\n      dup2\n      mstore\n      swap1\n      0x40\n      mstore\n      and(not(0xffffffffffffffffffffffffffffffffffffffffffffffffffffffff), 0x4cd88b7600000000000000000000000000000000000000000000000000000000)\n      0x20\n      dup3\n      add\n      dup1\n      mload\n      0xffffffffffffffffffffffffffffffffffffffffffffffffffffffff\n      dup4\n      dup2\n      dup4\n      and\n      or\n      dup4\n      mstore\n      pop\n      pop\n      pop\n      pop\n        /* \"contracts/Template/Istanbul10/logic/Router.sol\":3663:3829  bytes memory _divisionInitializationCallData = abi.encodeWithSignature(\r... */\n      swap1\n      pop\n        /* \"contracts/Template/Istanbul10/logic/Router.sol\":3853:3918  createContract(divisionTemplate, _divisionInitializationCallData) */\n      tag_190\n        /* \"contracts/Template/Istanbul10/logic/Router.sol\":3868:3884  divisionTemplate */\n      immutable(\"0x1510211fae36eff936206c1f0578761c7324aa1282c491b6b0313640115f639b\")\n        /* \"contracts/Template/Istanbul10/logic/Router.sol\":3886:3917  _divisionInitializationCallData */\n      dup3\n        /* \"contracts/Template/Istanbul10/logic/Router.sol\":3853:3867  createContract */\n      tag_155\n        /* \"contracts/Template/Istanbul10/logic/Router.sol\":3853:3918  createContract(divisionTemplate, _divisionInitializationCallData) */\n      jump\t// in\n    tag_190:\n        /* \"contracts/Template/Istanbul10/logic/Router.sol\":3842:3850  division */\n      0x06\n      0x00\n        /* \"contracts/Template/Istanbul10/logic/Router.sol\":3842:3918  division = createContract(divisionTemplate, _divisionInitializationCallData) */\n      0x0100\n      exp\n      dup2\n      sload\n      dup2\n      0xffffffffffffffffffffffffffffffffffffffff\n      mul\n      not\n      and\n      swap1\n      dup4\n      0xffffffffffffffffffffffffffffffffffffffff\n      and\n      mul\n      or\n      swap1\n      sstore\n      pop\n        /* \"contracts/Template/Istanbul10/logic/Router.sol\":3929:3957  setWhiteList(division, true) */\n      tag_191\n        /* \"contracts/Template/Istanbul10/logic/Router.sol\":3942:3950  division */\n      0x06\n      0x00\n      swap1\n      sload\n      swap1\n      0x0100\n      exp\n      swap1\n      div\n      0xffffffffffffffffffffffffffffffffffffffff\n      and\n        /* \"contracts/Template/Istanbul10/logic/Router.sol\":3952:3956  true */\n      0x01\n        /* \"contracts/Template/Istanbul10/logic/Router.sol\":3929:3941  setWhiteList */\n      tag_157\n        /* \"contracts/Template/Istanbul10/logic/Router.sol\":3929:3957  setWhiteList(division, true) */\n      jump\t// in\n    tag_191:\n        /* \"contracts/Template/Istanbul10/logic/Router.sol\":3984:3999  block.timestamp */\n      timestamp\n        /* \"contracts/Template/Istanbul10/logic/Router.sol\":3970:3981  lastClaimed */\n      0x0b\n        /* \"contracts/Template/Istanbul10/logic/Router.sol\":3970:3999  lastClaimed = block.timestamp */\n      dup2\n      swap1\n      sstore\n      pop\n        /* \"contracts/Template/Istanbul10/logic/Router.sol\":4016:4017  0 */\n      0x00\n        /* \"contracts/Template/Istanbul10/logic/Router.sol\":4010:4013  fee */\n      0x0f\n        /* \"contracts/Template/Istanbul10/logic/Router.sol\":4010:4017  fee = 0 */\n      dup2\n      swap1\n      sstore\n      pop\n        /* \"contracts/Template/Istanbul10/logic/Router.sol\":4045:4058  reserveRatio_ */\n      dup6\n        /* \"contracts/Template/Istanbul10/logic/Router.sol\":4030:4042  reserveRatio */\n      0x0c\n        /* \"contracts/Template/Istanbul10/logic/Router.sol\":4030:4058  reserveRatio = reserveRatio_ */\n      dup2\n      swap1\n      sstore\n      pop\n        /* \"contracts/Template/Istanbul10/logic/Router.sol\":4071:4100  _mintToScale(supply_,curator) */\n      tag_192\n        /* \"contracts/Template/Istanbul10/logic/Router.sol\":4084:4091  supply_ */\n      dup9\n        /* \"contracts/Template/Istanbul10/logic/Router.sol\":4092:4099  curator */\n      0x07\n      0x00\n      swap1\n      sload\n      swap1\n      0x0100\n      exp\n      swap1\n      div\n      0xffffffffffffffffffffffffffffffffffffffff\n      and\n        /* \"contracts/Template/Istanbul10/logic/Router.sol\":4071:4083  _mintToScale */\n      tag_193\n        /* \"contracts/Template/Istanbul10/logic/Router.sol\":4071:4100  _mintToScale(supply_,curator) */\n      jump\t// in\n    tag_192:\n        /* \"contracts/Template/Istanbul10/logic/Router.sol\":4117:4121  vote */\n      0x05\n      0x00\n      swap1\n      sload\n      swap1\n      0x0100\n      exp\n      swap1\n      div\n      0xffffffffffffffffffffffffffffffffffffffff\n      and\n        /* \"contracts/Template/Istanbul10/logic/Router.sol\":4111:4144  IVote(vote).setGovernanceTemplate */\n      0xffffffffffffffffffffffffffffffffffffffff\n      and\n      0xe3a1c1c7\n        /* \"contracts/Template/Istanbul10/logic/Router.sol\":4166:4170  vote */\n      0x05\n      0x00\n      swap1\n      sload\n      swap1\n      0x0100\n      exp\n      swap1\n      div\n      0xffffffffffffffffffffffffffffffffffffffff\n      and\n        /* \"contracts/Template/Istanbul10/logic/Router.sol\":4111:4201  IVote(vote).setGovernanceTemplate(\"setMinimumQuantity\",vote,\"setMinimumQuantity(uint256)\") */\n      mload(0x40)\n      dup3\n      0xffffffff\n      and\n      0xe0\n      shl\n      dup2\n      mstore\n      0x04\n      add\n      tag_194\n      swap2\n      swap1\n      tag_195\n      jump\t// in\n    tag_194:\n      0x00\n      mload(0x40)\n      dup1\n      dup4\n      sub\n      dup2\n      0x00\n      dup8\n      dup1\n      extcodesize\n      iszero\n      dup1\n      iszero\n      tag_196\n      jumpi\n      0x00\n      dup1\n      revert\n    tag_196:\n      pop\n      gas\n      call\n      iszero\n      dup1\n      iszero\n      tag_198\n      jumpi\n      returndatasize\n      0x00\n      dup1\n      returndatacopy\n      revert(0x00, returndatasize)\n    tag_198:\n      pop\n      pop\n      pop\n      pop\n        /* \"contracts/Template/Istanbul10/logic/Router.sol\":4221:4228  auction */\n      0x04\n      0x00\n      swap1\n      sload\n      swap1\n      0x0100\n      exp\n      swap1\n      div\n      0xffffffffffffffffffffffffffffffffffffffff\n      and\n        /* \"contracts/Template/Istanbul10/logic/Router.sol\":4212:4238  IAuction(auction).setPrice */\n      0xffffffffffffffffffffffffffffffffffffffff\n      and\n      0x91b7f5ed\n        /* \"contracts/Template/Istanbul10/logic/Router.sol\":4239:4255  entireVaultPrice */\n      dup7\n        /* \"contracts/Template/Istanbul10/logic/Router.sol\":4212:4256  IAuction(auction).setPrice(entireVaultPrice) */\n      mload(0x40)\n      dup3\n      0xffffffff\n      and\n      0xe0\n      shl\n      dup2\n      mstore\n      0x04\n      add\n      tag_199\n      swap2\n      swap1\n      tag_45\n      jump\t// in\n    tag_199:\n      0x00\n      mload(0x40)\n      dup1\n      dup4\n      sub\n      dup2\n      0x00\n      dup8\n      dup1\n      extcodesize\n      iszero\n      dup1\n      iszero\n      tag_200\n      jumpi\n      0x00\n      dup1\n      revert\n    tag_200:\n      pop\n      gas\n      call\n      iszero\n      dup1\n      iszero\n      tag_202\n      jumpi\n      returndatasize\n      0x00\n      dup1\n      returndatacopy\n      revert(0x00, returndatasize)\n    tag_202:\n      pop\n      pop\n      pop\n      pop\n        /* \"contracts/Template/Istanbul10/logic/Router.sol\":4272:4408  Issue( supply_ , DaoName , symbol , reserveRatio , entireVaultPrice, depositLength , rewardLength , veToken , auction , vote , division) */\n      0x8b62dd8e86cd198d671ff797219a5c7946c3d55b7f40e4062e60c69658f3ffcd\n        /* \"contracts/Template/Istanbul10/logic/Router.sol\":4279:4286  supply_ */\n      dup9\n        /* \"contracts/Template/Istanbul10/logic/Router.sol\":4289:4296  DaoName */\n      0x0a\n        /* \"contracts/Template/Istanbul10/logic/Router.sol\":4299:4305  symbol */\n      dup10\n        /* \"contracts/Template/Istanbul10/logic/Router.sol\":4308:4320  reserveRatio */\n      sload(0x0c)\n        /* \"contracts/Template/Istanbul10/logic/Router.sol\":4323:4339  entireVaultPrice */\n      dup10\n        /* \"contracts/Template/Istanbul10/logic/Router.sol\":4341:4354  depositLength */\n      dup10\n        /* \"contracts/Template/Istanbul10/logic/Router.sol\":4357:4369  rewardLength */\n      dup10\n        /* \"contracts/Template/Istanbul10/logic/Router.sol\":4372:4379  veToken */\n      0x03\n      0x00\n      swap1\n      sload\n      swap1\n      0x0100\n      exp\n      swap1\n      div\n      0xffffffffffffffffffffffffffffffffffffffff\n      and\n        /* \"contracts/Template/Istanbul10/logic/Router.sol\":4382:4389  auction */\n      0x04\n      0x00\n      swap1\n      sload\n      swap1\n      0x0100\n      exp\n      swap1\n      div\n      0xffffffffffffffffffffffffffffffffffffffff\n      and\n        /* \"contracts/Template/Istanbul10/logic/Router.sol\":4392:4396  vote */\n      0x05\n      0x00\n      swap1\n      sload\n      swap1\n      0x0100\n      exp\n      swap1\n      div\n      0xffffffffffffffffffffffffffffffffffffffff\n      and\n        /* \"contracts/Template/Istanbul10/logic/Router.sol\":4399:4407  division */\n      0x06\n      0x00\n      swap1\n      sload\n      swap1\n      0x0100\n      exp\n      swap1\n      div\n      0xffffffffffffffffffffffffffffffffffffffff\n      and\n        /* \"contracts/Template/Istanbul10/logic/Router.sol\":4272:4408  Issue( supply_ , DaoName , symbol , reserveRatio , entireVaultPrice, depositLength , rewardLength , veToken , auction , vote , division) */\n      mload(0x40)\n      tag_203\n      swap12\n      swap11\n      swap10\n      swap9\n      swap8\n      swap7\n      swap6\n      swap5\n      swap4\n      swap3\n      swap2\n      swap1\n      tag_204\n      jump\t// in\n    tag_203:\n      mload(0x40)\n      dup1\n      swap2\n      sub\n      swap1\n      log1\n        /* \"contracts/Template/Istanbul10/logic/Router.sol\":2575:4416  function issue(uint256 supply_ , string memory symbol , uint256 reserveRatio_ , uint256 entireVaultPrice ,uint256 depositLength,uint256 rewardLength) override external {\r... */\n      pop\n      pop\n      pop\n      pop\n      pop\n      pop\n      pop\n      pop\n      jump\t// out\n        /* \"contracts/Template/Istanbul10/logic/Router.sol\":832:881  address public immutable override veTokenTemplate */\n    tag_87:\n      immutable(\"0xb2b512b441304a14c78813be0575a2b1be8296b169485190a954ec0635e46369\")\n      dup2\n      jump\t// out\n        /* \"contracts/Template/Istanbul10/logic/Router.sol\":1007:1053  address public immutable override voteTemplate */\n    tag_90:\n      immutable(\"0xa423c60bc1787d67fffc27d03c64206552502a85ae4c5cd0abbc1461b537b9d1\")\n      dup2\n      jump\t// out\n        /* \"contracts/Template/Istanbul10/data/RouterData.sol\":368:399  address override public auction */\n    tag_93:\n      0x04\n      0x00\n      swap1\n      sload\n      swap1\n      0x0100\n      exp\n      swap1\n      div\n      0xffffffffffffffffffffffffffffffffffffffff\n      and\n      dup2\n      jump\t// out\n        /* \"contracts/Template/Istanbul10/logic/Router.sol\":765:816  uint16 public constant override VERSION_NUMBER = 10 */\n    tag_96:\n        /* \"contracts/Template/Istanbul10/logic/Router.sol\":814:816  10 */\n      0x0a\n        /* \"contracts/Template/Istanbul10/logic/Router.sol\":765:816  uint16 public constant override VERSION_NUMBER = 10 */\n      dup2\n      jump\t// out\n        /* \"contracts/Template/Istanbul10/data/RouterData.sol\":654:686  bool override public initializer */\n    tag_100:\n      0x09\n      0x00\n      swap1\n      sload\n      swap1\n      0x0100\n      exp\n      swap1\n      div\n      0xff\n      and\n      dup2\n      jump\t// out\n        /* \"contracts/Template/Istanbul10/data/RouterData.sol\":1039:1075  uint256 override public cashDivision */\n    tag_103:\n      sload(0x10)\n      dup2\n      jump\t// out\n        /* \"contracts/Template/Istanbul10/data/RouterData.sol\":828:863  uint256 override public lastClaimed */\n    tag_106:\n      sload(0x0b)\n      dup2\n      jump\t// out\n        /* \"contracts/Template/Istanbul10/data/RouterData.sol\":205:236  address override public factory */\n    tag_109:\n      0x00\n      dup1\n      sload\n      swap1\n      0x0100\n      exp\n      swap1\n      div\n      0xffffffffffffffffffffffffffffffffffffffff\n      and\n      dup2\n      jump\t// out\n        /* \"contracts/Template/Istanbul10/logic/Router.sol\":6822:7211  function updateRouter(address updataTemplate) override external onlyWhiteList {\r... */\n    tag_113:\n        /* \"contracts/Template/Istanbul10/logic/Router.sol\":7387:7396  whiteList */\n      0x08\n        /* \"contracts/Template/Istanbul10/logic/Router.sol\":7387:7408  whiteList[msg.sender] */\n      0x00\n        /* \"contracts/Template/Istanbul10/logic/Router.sol\":7397:7407  msg.sender */\n      caller\n        /* \"contracts/Template/Istanbul10/logic/Router.sol\":7387:7408  whiteList[msg.sender] */\n      0xffffffffffffffffffffffffffffffffffffffff\n      and\n      0xffffffffffffffffffffffffffffffffffffffff\n      and\n      dup2\n      mstore\n      0x20\n      add\n      swap1\n      dup2\n      mstore\n      0x20\n      add\n      0x00\n      keccak256\n      0x00\n      swap1\n      sload\n      swap1\n      0x0100\n      exp\n      swap1\n      div\n      0xff\n      and\n        /* \"contracts/Template/Istanbul10/logic/Router.sol\":7379:7444  require(whiteList[msg.sender],\"whiteList :: Address check error\") */\n      tag_206\n      jumpi\n      mload(0x40)\n      0x08c379a000000000000000000000000000000000000000000000000000000000\n      dup2\n      mstore\n      0x04\n      add\n      tag_207\n      swap1\n      tag_208\n      jump\t// in\n    tag_207:\n      mload(0x40)\n      dup1\n      swap2\n      sub\n      swap1\n      revert\n    tag_206:\n        /* \"contracts/Template/Istanbul10/logic/Router.sol\":6928:6935  factory */\n      0x00\n      dup1\n      sload\n      swap1\n      0x0100\n      exp\n      swap1\n      div\n      0xffffffffffffffffffffffffffffffffffffffff\n      and\n        /* \"contracts/Template/Istanbul10/logic/Router.sol\":6919:6954  IFactory(factory).routerTemplateMap */\n      0xffffffffffffffffffffffffffffffffffffffff\n      and\n      0x3955d09a\n        /* \"contracts/Template/Istanbul10/logic/Router.sol\":6955:6969  updataTemplate */\n      dup3\n        /* \"contracts/Template/Istanbul10/logic/Router.sol\":6919:6970  IFactory(factory).routerTemplateMap(updataTemplate) */\n      mload(0x40)\n      dup3\n      0xffffffff\n      and\n      0xe0\n      shl\n      dup2\n      mstore\n      0x04\n      add\n      tag_210\n      swap2\n      swap1\n      tag_49\n      jump\t// in\n    tag_210:\n      0x20\n      mload(0x40)\n      dup1\n      dup4\n      sub\n      dup2\n      0x00\n      dup8\n      dup1\n      extcodesize\n      iszero\n      dup1\n      iszero\n      tag_211\n      jumpi\n      0x00\n      dup1\n      revert\n    tag_211:\n      pop\n      gas\n      call\n      iszero\n      dup1\n      iszero\n      tag_213\n      jumpi\n      returndatasize\n      0x00\n      dup1\n      returndatacopy\n      revert(0x00, returndatasize)\n    tag_213:\n      pop\n      pop\n      pop\n      pop\n      mload(0x40)\n      returndatasize\n      not(0x1f)\n      0x1f\n      dup3\n      add\n      and\n      dup3\n      add\n      dup1\n      0x40\n      mstore\n      pop\n      dup2\n      add\n      swap1\n      tag_214\n      swap2\n      swap1\n      tag_215\n      jump\t// in\n    tag_214:\n        /* \"contracts/Template/Istanbul10/logic/Router.sol\":6911:7008  require(IFactory(factory).routerTemplateMap(updataTemplate),\"updateRouter :: Incorrect template\") */\n      tag_216\n      jumpi\n      mload(0x40)\n      0x08c379a000000000000000000000000000000000000000000000000000000000\n      dup2\n      mstore\n      0x04\n      add\n      tag_217\n      swap1\n      tag_218\n      jump\t// in\n    tag_217:\n      mload(0x40)\n      dup1\n      swap2\n      sub\n      swap1\n      revert\n    tag_216:\n        /* \"contracts/Template/Istanbul10/logic/Router.sol\":7022:7030  bool _ok */\n      0x00\n        /* \"contracts/Template/Istanbul10/logic/Router.sol\":7032:7055  bytes memory returnData */\n      dup1\n        /* \"contracts/Template/Istanbul10/logic/Router.sol\":7059:7073  updataTemplate */\n      dup3\n        /* \"contracts/Template/Istanbul10/logic/Router.sol\":7059:7086  updataTemplate.delegatecall */\n      0xffffffffffffffffffffffffffffffffffffffff\n      and\n        /* \"contracts/Template/Istanbul10/logic/Router.sol\":7087:7157  abi.encodeWithSignature(\r... */\n      add(0x24, mload(0x40))\n      mload(0x40)\n      0x20\n      dup2\n      dup4\n      sub\n      sub\n      dup2\n      mstore\n      swap1\n      0x40\n      mstore\n      and(not(0xffffffffffffffffffffffffffffffffffffffffffffffffffffffff), 0x736f9e4200000000000000000000000000000000000000000000000000000000)\n      0x20\n      dup3\n      add\n      dup1\n      mload\n      0xffffffffffffffffffffffffffffffffffffffffffffffffffffffff\n      dup4\n      dup2\n      dup4\n      and\n      or\n      dup4\n      mstore\n      pop\n      pop\n      pop\n      pop\n        /* \"contracts/Template/Istanbul10/logic/Router.sol\":7059:7158  updataTemplate.delegatecall(abi.encodeWithSignature(\r... */\n      mload(0x40)\n      tag_219\n      swap2\n      swap1\n      tag_220\n      jump\t// in\n    tag_219:\n      0x00\n      mload(0x40)\n      dup1\n      dup4\n      sub\n      dup2\n      dup6\n      gas\n      delegatecall\n      swap2\n      pop\n      pop\n      returndatasize\n      dup1\n      0x00\n      dup2\n      eq\n      tag_223\n      jumpi\n      mload(0x40)\n      swap2\n      pop\n      and(add(returndatasize, 0x3f), not(0x1f))\n      dup3\n      add\n      0x40\n      mstore\n      returndatasize\n      dup3\n      mstore\n      returndatasize\n      0x00\n      0x20\n      dup5\n      add\n      returndatacopy\n      jump(tag_222)\n    tag_223:\n      0x60\n      swap2\n      pop\n    tag_222:\n      pop\n        /* \"contracts/Template/Istanbul10/logic/Router.sol\":7021:7158  (bool _ok, bytes memory returnData) = updataTemplate.delegatecall(abi.encodeWithSignature(\r... */\n      swap2\n      pop\n      swap2\n      pop\n        /* \"contracts/Template/Istanbul10/logic/Router.sol\":7179:7182  _ok */\n      dup2\n        /* \"contracts/Template/Istanbul10/logic/Router.sol\":7191:7201  returnData */\n      dup2\n        /* \"contracts/Template/Istanbul10/logic/Router.sol\":7171:7203  require(_ok, string(returnData)) */\n      swap1\n      tag_224\n      jumpi\n      mload(0x40)\n      0x08c379a000000000000000000000000000000000000000000000000000000000\n      dup2\n      mstore\n      0x04\n      add\n      tag_225\n      swap2\n      swap1\n      tag_59\n      jump\t// in\n    tag_225:\n      mload(0x40)\n      dup1\n      swap2\n      sub\n      swap1\n      revert\n    tag_224:\n      pop\n        /* \"contracts/Template/Istanbul10/logic/Router.sol\":7455:7456  _ */\n      pop\n      pop\n        /* \"contracts/Template/Istanbul10/logic/Router.sol\":6822:7211  function updateRouter(address updataTemplate) override external onlyWhiteList {\r... */\n      pop\n      jump\t// out\n        /* \"contracts/Template/Istanbul10/logic/Router.sol\":2170:2567  function curatorDeposit(address[] memory nft,uint256[] memory nftId,uint256[] memory amount) override external {\r... */\n    tag_117:\n        /* \"contracts/Template/Istanbul10/logic/Router.sol\":2301:2305  open */\n      0x09\n      0x01\n      swap1\n      sload\n      swap1\n      0x0100\n      exp\n      swap1\n      div\n      0xff\n      and\n        /* \"contracts/Template/Istanbul10/logic/Router.sol\":2300:2305  !open */\n      iszero\n        /* \"contracts/Template/Istanbul10/logic/Router.sol\":2292:2351  require(!open, \"curatorDeposit :: Token is already active\") */\n      tag_227\n      jumpi\n      mload(0x40)\n      0x08c379a000000000000000000000000000000000000000000000000000000000\n      dup2\n      mstore\n      0x04\n      add\n      tag_228\n      swap1\n      tag_229\n      jump\t// in\n    tag_228:\n      mload(0x40)\n      dup1\n      swap2\n      sub\n      swap1\n      revert\n    tag_227:\n        /* \"contracts/Template/Istanbul10/logic/Router.sol\":2384:2391  curator */\n      0x07\n      0x00\n      swap1\n      sload\n      swap1\n      0x0100\n      exp\n      swap1\n      div\n      0xffffffffffffffffffffffffffffffffffffffff\n      and\n        /* \"contracts/Template/Istanbul10/logic/Router.sol\":2370:2391  msg.sender == curator */\n      0xffffffffffffffffffffffffffffffffffffffff\n      and\n        /* \"contracts/Template/Istanbul10/logic/Router.sol\":2370:2380  msg.sender */\n      caller\n        /* \"contracts/Template/Istanbul10/logic/Router.sol\":2370:2391  msg.sender == curator */\n      0xffffffffffffffffffffffffffffffffffffffff\n      and\n      eq\n        /* \"contracts/Template/Istanbul10/logic/Router.sol\":2362:2442  require(msg.sender == curator, \"curatorDeposit :: Only curator can deposit NFT\") */\n      tag_230\n      jumpi\n      mload(0x40)\n      0x08c379a000000000000000000000000000000000000000000000000000000000\n      dup2\n      mstore\n      0x04\n      add\n      tag_231\n      swap1\n      tag_232\n      jump\t// in\n    tag_231:\n      mload(0x40)\n      dup1\n      swap2\n      sub\n      swap1\n      revert\n    tag_230:\n        /* \"contracts/Template/Istanbul10/logic/Router.sol\":2460:2465  vault */\n      0x02\n      0x00\n      swap1\n      sload\n      swap1\n      0x0100\n      exp\n      swap1\n      div\n      0xffffffffffffffffffffffffffffffffffffffff\n      and\n        /* \"contracts/Template/Istanbul10/logic/Router.sol\":2453:2482  IVault(vault).depositNFTAsset */\n      0xffffffffffffffffffffffffffffffffffffffff\n      and\n      0xe2019ab3\n        /* \"contracts/Template/Istanbul10/logic/Router.sol\":2483:2486  nft */\n      dup5\n        /* \"contracts/Template/Istanbul10/logic/Router.sol\":2487:2492  nftId */\n      dup5\n        /* \"contracts/Template/Istanbul10/logic/Router.sol\":2493:2499  amount */\n      dup5\n        /* \"contracts/Template/Istanbul10/logic/Router.sol\":2500:2510  msg.sender */\n      caller\n        /* \"contracts/Template/Istanbul10/logic/Router.sol\":2453:2511  IVault(vault).depositNFTAsset(nft,nftId,amount,msg.sender) */\n      mload(0x40)\n      dup6\n      0xffffffff\n      and\n      0xe0\n      shl\n      dup2\n      mstore\n      0x04\n      add\n      tag_233\n      swap5\n      swap4\n      swap3\n      swap2\n      swap1\n      tag_234\n      jump\t// in\n    tag_233:\n      0x00\n      mload(0x40)\n      dup1\n      dup4\n      sub\n      dup2\n      0x00\n      dup8\n      dup1\n      extcodesize\n      iszero\n      dup1\n      iszero\n      tag_235\n      jumpi\n      0x00\n      dup1\n      revert\n    tag_235:\n      pop\n      gas\n      call\n      iszero\n      dup1\n      iszero\n      tag_237\n      jumpi\n      returndatasize\n      0x00\n      dup1\n      returndatacopy\n      revert(0x00, returndatasize)\n    tag_237:\n      pop\n      pop\n      pop\n      pop\n        /* \"contracts/Template/Istanbul10/logic/Router.sol\":2527:2559  CuratorDeposit(nft,nftId,amount) */\n      0x3a29ec296622ef644c7845a1c556399c39cd768e645a903d7911a7f5bc1e4011\n        /* \"contracts/Template/Istanbul10/logic/Router.sol\":2542:2545  nft */\n      dup4\n        /* \"contracts/Template/Istanbul10/logic/Router.sol\":2546:2551  nftId */\n      dup4\n        /* \"contracts/Template/Istanbul10/logic/Router.sol\":2552:2558  amount */\n      dup4\n        /* \"contracts/Template/Istanbul10/logic/Router.sol\":2527:2559  CuratorDeposit(nft,nftId,amount) */\n      mload(0x40)\n      tag_238\n      swap4\n      swap3\n      swap2\n      swap1\n      tag_239\n      jump\t// in\n    tag_238:\n      mload(0x40)\n      dup1\n      swap2\n      sub\n      swap1\n      log1\n        /* \"contracts/Template/Istanbul10/logic/Router.sol\":2170:2567  function curatorDeposit(address[] memory nft,uint256[] memory nftId,uint256[] memory amount) override external {\r... */\n      pop\n      pop\n      pop\n      jump\t// out\n        /* \"contracts/Template/Istanbul10/logic/Router.sol\":5117:5943  function claimFees() override external {\r... */\n    tag_119:\n        /* \"contracts/Template/Istanbul10/logic/Router.sol\":5214:5234  State.NftState.leave */\n      0x02\n        /* \"contracts/Template/Istanbul10/logic/Router.sol\":5175:5234  IVault(vault).getEntireVaultState() != State.NftState.leave */\n      dup1\n      dup2\n      gt\n      iszero\n      tag_241\n      jumpi\n      mstore(0x00, 0x4e487b7100000000000000000000000000000000000000000000000000000000)\n      mstore(0x04, 0x21)\n      revert(0x00, 0x24)\n    tag_241:\n        /* \"contracts/Template/Istanbul10/logic/Router.sol\":5182:5187  vault */\n      0x02\n      0x00\n      swap1\n      sload\n      swap1\n      0x0100\n      exp\n      swap1\n      div\n      0xffffffffffffffffffffffffffffffffffffffff\n      and\n        /* \"contracts/Template/Istanbul10/logic/Router.sol\":5175:5208  IVault(vault).getEntireVaultState */\n      0xffffffffffffffffffffffffffffffffffffffff\n      and\n      0xd58bfa9d\n        /* \"contracts/Template/Istanbul10/logic/Router.sol\":5175:5210  IVault(vault).getEntireVaultState() */\n      mload(0x40)\n      dup2\n      0xffffffff\n      and\n      0xe0\n      shl\n      dup2\n      mstore\n      0x04\n      add\n      0x20\n      mload(0x40)\n      dup1\n      dup4\n      sub\n      dup2\n      dup7\n      dup1\n      extcodesize\n      iszero\n      dup1\n      iszero\n      tag_242\n      jumpi\n      0x00\n      dup1\n      revert\n    tag_242:\n      pop\n      gas\n      staticcall\n      iszero\n      dup1\n      iszero\n      tag_244\n      jumpi\n      returndatasize\n      0x00\n      dup1\n      returndatacopy\n      revert(0x00, returndatasize)\n    tag_244:\n      pop\n      pop\n      pop\n      pop\n      mload(0x40)\n      returndatasize\n      not(0x1f)\n      0x1f\n      dup3\n      add\n      and\n      dup3\n      add\n      dup1\n      0x40\n      mstore\n      pop\n      dup2\n      add\n      swap1\n      tag_245\n      swap2\n      swap1\n      tag_246\n      jump\t// in\n    tag_245:\n        /* \"contracts/Template/Istanbul10/logic/Router.sol\":5175:5234  IVault(vault).getEntireVaultState() != State.NftState.leave */\n      0x02\n      dup2\n      gt\n      iszero\n      tag_247\n      jumpi\n      mstore(0x00, 0x4e487b7100000000000000000000000000000000000000000000000000000000)\n      mstore(0x04, 0x21)\n      revert(0x00, 0x24)\n    tag_247:\n      eq\n      iszero\n        /* \"contracts/Template/Istanbul10/logic/Router.sol\":5167:5279  require(IVault(vault).getEntireVaultState() != State.NftState.leave, \"claim :: cannot claim after auction ends\") */\n      tag_248\n      jumpi\n      mload(0x40)\n      0x08c379a000000000000000000000000000000000000000000000000000000000\n      dup2\n      mstore\n      0x04\n      add\n      tag_249\n      swap1\n      tag_250\n      jump\t// in\n    tag_249:\n      mload(0x40)\n      dup1\n      swap2\n      sub\n      swap1\n      revert\n    tag_248:\n        /* \"contracts/Template/Istanbul10/logic/Router.sol\":5298:5302  open */\n      0x09\n      0x01\n      swap1\n      sload\n      swap1\n      0x0100\n      exp\n      swap1\n      div\n      0xff\n      and\n        /* \"contracts/Template/Istanbul10/logic/Router.sol\":5290:5340  require(open, \"claim :: Token not already active\") */\n      tag_251\n      jumpi\n      mload(0x40)\n      0x08c379a000000000000000000000000000000000000000000000000000000000\n      dup2\n      mstore\n      0x04\n      add\n      tag_252\n      swap1\n      tag_253\n      jump\t// in\n    tag_252:\n      mload(0x40)\n      dup1\n      swap2\n      sub\n      swap1\n      revert\n    tag_251:\n        /* \"contracts/Template/Istanbul10/logic/Router.sol\":5417:5441  uint256 currentAnnualFee */\n      0x00\n        /* \"contracts/Template/Istanbul10/logic/Router.sol\":5483:5487  1000 */\n      0x03e8\n        /* \"contracts/Template/Istanbul10/logic/Router.sol\":5457:5465  division */\n      0x06\n      0x00\n      swap1\n      sload\n      swap1\n      0x0100\n      exp\n      swap1\n      div\n      0xffffffffffffffffffffffffffffffffffffffff\n      and\n        /* \"contracts/Template/Istanbul10/logic/Router.sol\":5450:5478  IERC20(division).totalSupply */\n      0xffffffffffffffffffffffffffffffffffffffff\n      and\n      0x18160ddd\n        /* \"contracts/Template/Istanbul10/logic/Router.sol\":5450:5480  IERC20(division).totalSupply() */\n      mload(0x40)\n      dup2\n      0xffffffff\n      and\n      0xe0\n      shl\n      dup2\n      mstore\n      0x04\n      add\n      0x20\n      mload(0x40)\n      dup1\n      dup4\n      sub\n      dup2\n      dup7\n      dup1\n      extcodesize\n      iszero\n      dup1\n      iszero\n      tag_254\n      jumpi\n      0x00\n      dup1\n      revert\n    tag_254:\n      pop\n      gas\n      staticcall\n      iszero\n      dup1\n      iszero\n      tag_256\n      jumpi\n      returndatasize\n      0x00\n      dup1\n      returndatacopy\n      revert(0x00, returndatasize)\n    tag_256:\n      pop\n      pop\n      pop\n      pop\n      mload(0x40)\n      returndatasize\n      not(0x1f)\n      0x1f\n      dup3\n      add\n      and\n      dup3\n      add\n      dup1\n      0x40\n      mstore\n      pop\n      dup2\n      add\n      swap1\n      tag_257\n      swap2\n      swap1\n      tag_258\n      jump\t// in\n    tag_257:\n        /* \"contracts/Template/Istanbul10/logic/Router.sol\":5444:5447  fee */\n      sload(0x0f)\n        /* \"contracts/Template/Istanbul10/logic/Router.sol\":5444:5480  fee * IERC20(division).totalSupply() */\n      tag_259\n      swap2\n      swap1\n      tag_260\n      jump\t// in\n    tag_259:\n        /* \"contracts/Template/Istanbul10/logic/Router.sol\":5444:5487  fee * IERC20(division).totalSupply() / 1000 */\n      tag_261\n      swap2\n      swap1\n      tag_262\n      jump\t// in\n    tag_261:\n        /* \"contracts/Template/Istanbul10/logic/Router.sol\":5417:5487  uint256 currentAnnualFee = fee * IERC20(division).totalSupply() / 1000 */\n      swap1\n      pop\n        /* \"contracts/Template/Istanbul10/logic/Router.sol\":5543:5563  uint256 feePerSecond */\n      0x00\n        /* \"contracts/Template/Istanbul10/logic/Router.sol\":5585:5593  31536000 */\n      0x01e13380\n        /* \"contracts/Template/Istanbul10/logic/Router.sol\":5566:5582  currentAnnualFee */\n      dup3\n        /* \"contracts/Template/Istanbul10/logic/Router.sol\":5566:5593  currentAnnualFee / 31536000 */\n      tag_263\n      swap2\n      swap1\n      tag_262\n      jump\t// in\n    tag_263:\n        /* \"contracts/Template/Istanbul10/logic/Router.sol\":5543:5593  uint256 feePerSecond = currentAnnualFee / 31536000 */\n      swap1\n      pop\n        /* \"contracts/Template/Istanbul10/logic/Router.sol\":5664:5686  uint256 sinceLastClaim */\n      0x00\n        /* \"contracts/Template/Istanbul10/logic/Router.sol\":5707:5718  lastClaimed */\n      sload(0x0b)\n        /* \"contracts/Template/Istanbul10/logic/Router.sol\":5689:5704  block.timestamp */\n      timestamp\n        /* \"contracts/Template/Istanbul10/logic/Router.sol\":5689:5718  block.timestamp - lastClaimed */\n      tag_264\n      swap2\n      swap1\n      tag_265\n      jump\t// in\n    tag_264:\n        /* \"contracts/Template/Istanbul10/logic/Router.sol\":5664:5718  uint256 sinceLastClaim = block.timestamp - lastClaimed */\n      swap1\n      pop\n        /* \"contracts/Template/Istanbul10/logic/Router.sol\":5774:5793  uint256 curatorMint */\n      0x00\n        /* \"contracts/Template/Istanbul10/logic/Router.sol\":5813:5825  feePerSecond */\n      dup3\n        /* \"contracts/Template/Istanbul10/logic/Router.sol\":5796:5810  sinceLastClaim */\n      dup3\n        /* \"contracts/Template/Istanbul10/logic/Router.sol\":5796:5825  sinceLastClaim * feePerSecond */\n      tag_266\n      swap2\n      swap1\n      tag_260\n      jump\t// in\n    tag_266:\n        /* \"contracts/Template/Istanbul10/logic/Router.sol\":5774:5825  uint256 curatorMint = sinceLastClaim * feePerSecond */\n      swap1\n      pop\n        /* \"contracts/Template/Istanbul10/logic/Router.sol\":5852:5867  block.timestamp */\n      timestamp\n        /* \"contracts/Template/Istanbul10/logic/Router.sol\":5838:5849  lastClaimed */\n      0x0b\n        /* \"contracts/Template/Istanbul10/logic/Router.sol\":5838:5867  lastClaimed = block.timestamp */\n      dup2\n      swap1\n      sstore\n      pop\n        /* \"contracts/Template/Istanbul10/logic/Router.sol\":5890:5898  division */\n      0x06\n      0x00\n      swap1\n      sload\n      swap1\n      0x0100\n      exp\n      swap1\n      div\n      0xffffffffffffffffffffffffffffffffffffffff\n      and\n        /* \"contracts/Template/Istanbul10/logic/Router.sol\":5880:5912  IDivision(division).mintDivision */\n      0xffffffffffffffffffffffffffffffffffffffff\n      and\n      0x41cd705a\n        /* \"contracts/Template/Istanbul10/logic/Router.sol\":5913:5920  curator */\n      0x07\n      0x00\n      swap1\n      sload\n      swap1\n      0x0100\n      exp\n      swap1\n      div\n      0xffffffffffffffffffffffffffffffffffffffff\n      and\n        /* \"contracts/Template/Istanbul10/logic/Router.sol\":5922:5933  curatorMint */\n      dup4\n        /* \"contracts/Template/Istanbul10/logic/Router.sol\":5880:5934  IDivision(division).mintDivision(curator, curatorMint) */\n      mload(0x40)\n      dup4\n      0xffffffff\n      and\n      0xe0\n      shl\n      dup2\n      mstore\n      0x04\n      add\n      tag_267\n      swap3\n      swap2\n      swap1\n      tag_268\n      jump\t// in\n    tag_267:\n      0x00\n      mload(0x40)\n      dup1\n      dup4\n      sub\n      dup2\n      0x00\n      dup8\n      dup1\n      extcodesize\n      iszero\n      dup1\n      iszero\n      tag_269\n      jumpi\n      0x00\n      dup1\n      revert\n    tag_269:\n      pop\n      gas\n      call\n      iszero\n      dup1\n      iszero\n      tag_271\n      jumpi\n      returndatasize\n      0x00\n      dup1\n      returndatacopy\n      revert(0x00, returndatasize)\n    tag_271:\n      pop\n      pop\n      pop\n      pop\n        /* \"contracts/Template/Istanbul10/logic/Router.sol\":5117:5943  function claimFees() override external {\r... */\n      pop\n      pop\n      pop\n      pop\n      jump\t// out\n        /* \"contracts/Template/Istanbul10/logic/Router.sol\":4424:4556  function mintToScale(uint256 supply_ ,address mintTo) override external onlyWhiteList{\r... */\n    tag_123:\n        /* \"contracts/Template/Istanbul10/logic/Router.sol\":7387:7396  whiteList */\n      0x08\n        /* \"contracts/Template/Istanbul10/logic/Router.sol\":7387:7408  whiteList[msg.sender] */\n      0x00\n        /* \"contracts/Template/Istanbul10/logic/Router.sol\":7397:7407  msg.sender */\n      caller\n        /* \"contracts/Template/Istanbul10/logic/Router.sol\":7387:7408  whiteList[msg.sender] */\n      0xffffffffffffffffffffffffffffffffffffffff\n      and\n      0xffffffffffffffffffffffffffffffffffffffff\n      and\n      dup2\n      mstore\n      0x20\n      add\n      swap1\n      dup2\n      mstore\n      0x20\n      add\n      0x00\n      keccak256\n      0x00\n      swap1\n      sload\n      swap1\n      0x0100\n      exp\n      swap1\n      div\n      0xff\n      and\n        /* \"contracts/Template/Istanbul10/logic/Router.sol\":7379:7444  require(whiteList[msg.sender],\"whiteList :: Address check error\") */\n      tag_273\n      jumpi\n      mload(0x40)\n      0x08c379a000000000000000000000000000000000000000000000000000000000\n      dup2\n      mstore\n      0x04\n      add\n      tag_274\n      swap1\n      tag_208\n      jump\t// in\n    tag_274:\n      mload(0x40)\n      dup1\n      swap2\n      sub\n      swap1\n      revert\n    tag_273:\n        /* \"contracts/Template/Istanbul10/logic/Router.sol\":4520:4548  _mintToScale(supply_,mintTo) */\n      tag_276\n        /* \"contracts/Template/Istanbul10/logic/Router.sol\":4533:4540  supply_ */\n      dup3\n        /* \"contracts/Template/Istanbul10/logic/Router.sol\":4541:4547  mintTo */\n      dup3\n        /* \"contracts/Template/Istanbul10/logic/Router.sol\":4520:4532  _mintToScale */\n      tag_193\n        /* \"contracts/Template/Istanbul10/logic/Router.sol\":4520:4548  _mintToScale(supply_,mintTo) */\n      jump\t// in\n    tag_276:\n        /* \"contracts/Template/Istanbul10/logic/Router.sol\":4424:4556  function mintToScale(uint256 supply_ ,address mintTo) override external onlyWhiteList{\r... */\n      pop\n      pop\n      jump\t// out\n        /* \"contracts/Template/Istanbul10/data/RouterData.sol\":1003:1030  uint256 override public fee */\n    tag_125:\n      sload(0x0f)\n      dup2\n      jump\t// out\n        /* \"contracts/Template/Istanbul10/data/RouterData.sol\":789:819  string override public DaoName */\n    tag_128:\n      0x0a\n      dup1\n      sload\n      tag_277\n      swap1\n      tag_278\n      jump\t// in\n    tag_277:\n      dup1\n      0x1f\n      add\n      0x20\n      dup1\n      swap2\n      div\n      mul\n      0x20\n      add\n      mload(0x40)\n      swap1\n      dup2\n      add\n      0x40\n      mstore\n      dup1\n      swap3\n      swap2\n      swap1\n      dup2\n      dup2\n      mstore\n      0x20\n      add\n      dup3\n      dup1\n      sload\n      tag_279\n      swap1\n      tag_278\n      jump\t// in\n    tag_279:\n      dup1\n      iszero\n      tag_280\n      jumpi\n      dup1\n      0x1f\n      lt\n      tag_281\n      jumpi\n      0x0100\n      dup1\n      dup4\n      sload\n      div\n      mul\n      dup4\n      mstore\n      swap2\n      0x20\n      add\n      swap2\n      jump(tag_280)\n    tag_281:\n      dup3\n      add\n      swap2\n      swap1\n      0x00\n      mstore\n      keccak256(0x00, 0x20)\n      swap1\n    tag_282:\n      dup2\n      sload\n      dup2\n      mstore\n      swap1\n      0x01\n      add\n      swap1\n      0x20\n      add\n      dup1\n      dup4\n      gt\n      tag_282\n      jumpi\n      dup3\n      swap1\n      sub\n      0x1f\n      and\n      dup3\n      add\n      swap2\n    tag_280:\n      pop\n      pop\n      pop\n      pop\n      pop\n      dup2\n      jump\t// out\n        /* \"contracts/Template/Istanbul10/data/RouterData.sol\":249:281  address override public settings */\n    tag_131:\n      0x01\n      0x00\n      swap1\n      sload\n      swap1\n      0x0100\n      exp\n      swap1\n      div\n      0xffffffffffffffffffffffffffffffffffffffff\n      and\n      dup2\n      jump\t// out\n        /* \"contracts/Template/Istanbul10/data/RouterData.sol\":490:521  address override public curator */\n    tag_134:\n      0x07\n      0x00\n      swap1\n      sload\n      swap1\n      0x0100\n      exp\n      swap1\n      div\n      0xffffffffffffffffffffffffffffffffffffffff\n      and\n      dup2\n      jump\t// out\n        /* \"contracts/Template/Istanbul10/logic/Router.sol\":948:997  address public immutable override auctionTemplate */\n    tag_137:\n      immutable(\"0x0cc83849099cd18ec94b8c7ca052b56da564af7460437b655b6de6b3ed3e5080\")\n      dup2\n      jump\t// out\n        /* \"contracts/Template/Istanbul10/logic/Router.sol\":1063:1113  address public immutable override divisionTemplate */\n    tag_140:\n      immutable(\"0x1510211fae36eff936206c1f0578761c7324aa1282c491b6b0313640115f639b\")\n      dup2\n      jump\t// out\n        /* \"contracts/Template/Istanbul10/data/RouterData.sol\":290:319  address override public vault */\n    tag_143:\n      0x02\n      0x00\n      swap1\n      sload\n      swap1\n      0x0100\n      exp\n      swap1\n      div\n      0xffffffffffffffffffffffffffffffffffffffff\n      and\n      dup2\n      jump\t// out\n        /* \"contracts/Template/Istanbul10/data/RouterData.sol\":695:720  bool override public open */\n    tag_146:\n      0x09\n      0x01\n      swap1\n      sload\n      swap1\n      0x0100\n      exp\n      swap1\n      div\n      0xff\n      and\n      dup2\n      jump\t// out\n        /* \"contracts/Template/Istanbul10/logic/Router.sol\":6585:6813  function createContract(address template,bytes memory code) private returns(address){\r... */\n    tag_155:\n        /* \"contracts/Template/Istanbul10/logic/Router.sol\":6661:6668  address */\n      0x00\n        /* \"contracts/Template/Istanbul10/logic/Router.sol\":6748:6756  template */\n      dup3\n        /* \"contracts/Template/Istanbul10/logic/Router.sol\":6775:6779  code */\n      dup3\n        /* \"contracts/Template/Istanbul10/logic/Router.sol\":6709:6794  new InitializedProxy(\r... */\n      mload(0x40)\n      tag_284\n      swap1\n      tag_285\n      jump\t// in\n    tag_284:\n      tag_286\n      swap3\n      swap2\n      swap1\n      tag_287\n      jump\t// in\n    tag_286:\n      mload(0x40)\n      dup1\n      swap2\n      sub\n      swap1\n      0x00\n      create\n      dup1\n      iszero\n      dup1\n      iszero\n      tag_288\n      jumpi\n      returndatasize\n      0x00\n      dup1\n      returndatacopy\n      revert(0x00, returndatasize)\n    tag_288:\n      pop\n        /* \"contracts/Template/Istanbul10/logic/Router.sol\":6680:6805  return address(\r... */\n      swap1\n      pop\n        /* \"contracts/Template/Istanbul10/logic/Router.sol\":6585:6813  function createContract(address template,bytes memory code) private returns(address){\r... */\n      swap3\n      swap2\n      pop\n      pop\n      jump\t// out\n        /* \"contracts/Template/Istanbul10/logic/Router.sol\":7220:7335  function setWhiteList(address targetAddress,bool bool_) private {\r... */\n    tag_157:\n        /* \"contracts/Template/Istanbul10/logic/Router.sol\":7322:7327  bool_ */\n      dup1\n        /* \"contracts/Template/Istanbul10/logic/Router.sol\":7295:7304  whiteList */\n      0x08\n        /* \"contracts/Template/Istanbul10/logic/Router.sol\":7295:7319  whiteList[targetAddress] */\n      0x00\n        /* \"contracts/Template/Istanbul10/logic/Router.sol\":7305:7318  targetAddress */\n      dup5\n        /* \"contracts/Template/Istanbul10/logic/Router.sol\":7295:7319  whiteList[targetAddress] */\n      0xffffffffffffffffffffffffffffffffffffffff\n      and\n      0xffffffffffffffffffffffffffffffffffffffff\n      and\n      dup2\n      mstore\n      0x20\n      add\n      swap1\n      dup2\n      mstore\n      0x20\n      add\n      0x00\n      keccak256\n      0x00\n        /* \"contracts/Template/Istanbul10/logic/Router.sol\":7295:7327  whiteList[targetAddress] = bool_ */\n      0x0100\n      exp\n      dup2\n      sload\n      dup2\n      0xff\n      mul\n      not\n      and\n      swap1\n      dup4\n      iszero\n      iszero\n      mul\n      or\n      swap1\n      sstore\n      pop\n        /* \"contracts/Template/Istanbul10/logic/Router.sol\":7220:7335  function setWhiteList(address targetAddress,bool bool_) private {\r... */\n      pop\n      pop\n      jump\t// out\n        /* \"contracts/Template/Istanbul10/logic/Router.sol\":4564:5109  function _mintToScale(uint256 supply_ ,address mintTo) private {\r... */\n    tag_193:\n        /* \"contracts/Template/Istanbul10/logic/Router.sol\":4648:4655  supply_ */\n      dup2\n        /* \"contracts/Template/Istanbul10/logic/Router.sol\":4638:4644  supply */\n      0x0e\n      0x00\n        /* \"contracts/Template/Istanbul10/logic/Router.sol\":4638:4655  supply += supply_ */\n      dup3\n      dup3\n      sload\n      tag_291\n      swap2\n      swap1\n      tag_292\n      jump\t// in\n    tag_291:\n      swap3\n      pop\n      pop\n      dup2\n      swap1\n      sstore\n      pop\n        /* \"contracts/Template/Istanbul10/logic/Router.sol\":4668:4686  uint256 _govAmount */\n      0x00\n        /* \"contracts/Template/Istanbul10/logic/Router.sol\":4699:4702  100 */\n      0x64\n        /* \"contracts/Template/Istanbul10/logic/Router.sol\":4689:4696  supply_ */\n      dup4\n        /* \"contracts/Template/Istanbul10/logic/Router.sol\":4689:4702  supply_ / 100 */\n      tag_293\n      swap2\n      swap1\n      tag_262\n      jump\t// in\n    tag_293:\n        /* \"contracts/Template/Istanbul10/logic/Router.sol\":4668:4702  uint256 _govAmount = supply_ / 100 */\n      swap1\n      pop\n        /* \"contracts/Template/Istanbul10/logic/Router.sol\":4713:4735  uint256 _reserveAmount */\n      0x00\n        /* \"contracts/Template/Istanbul10/logic/Router.sol\":4763:4766  100 */\n      0x64\n        /* \"contracts/Template/Istanbul10/logic/Router.sol\":4748:4760  reserveRatio */\n      sload(0x0c)\n        /* \"contracts/Template/Istanbul10/logic/Router.sol\":4738:4745  supply_ */\n      dup6\n        /* \"contracts/Template/Istanbul10/logic/Router.sol\":4738:4760  supply_ * reserveRatio */\n      tag_294\n      swap2\n      swap1\n      tag_260\n      jump\t// in\n    tag_294:\n        /* \"contracts/Template/Istanbul10/logic/Router.sol\":4738:4766  supply_ * reserveRatio / 100 */\n      tag_295\n      swap2\n      swap1\n      tag_262\n      jump\t// in\n    tag_295:\n        /* \"contracts/Template/Istanbul10/logic/Router.sol\":4713:4766  uint256 _reserveAmount = supply_ * reserveRatio / 100 */\n      swap1\n      pop\n        /* \"contracts/Template/Istanbul10/logic/Router.sol\":4777:4798  uint256 _targetAmount */\n      0x00\n        /* \"contracts/Template/Istanbul10/logic/Router.sol\":4824:4838  _reserveAmount */\n      dup2\n        /* \"contracts/Template/Istanbul10/logic/Router.sol\":4811:4821  _govAmount */\n      dup4\n        /* \"contracts/Template/Istanbul10/logic/Router.sol\":4801:4808  supply_ */\n      dup7\n        /* \"contracts/Template/Istanbul10/logic/Router.sol\":4801:4821  supply_ - _govAmount */\n      tag_296\n      swap2\n      swap1\n      tag_265\n      jump\t// in\n    tag_296:\n        /* \"contracts/Template/Istanbul10/logic/Router.sol\":4801:4838  supply_ - _govAmount - _reserveAmount */\n      tag_297\n      swap2\n      swap1\n      tag_265\n      jump\t// in\n    tag_297:\n        /* \"contracts/Template/Istanbul10/logic/Router.sol\":4777:4838  uint256 _targetAmount = supply_ - _govAmount - _reserveAmount */\n      swap1\n      pop\n        /* \"contracts/Template/Istanbul10/logic/Router.sol\":4868:4882  _reserveAmount */\n      dup2\n        /* \"contracts/Template/Istanbul10/logic/Router.sol\":4851:4864  reserveAmount */\n      0x0d\n      0x00\n        /* \"contracts/Template/Istanbul10/logic/Router.sol\":4851:4882  reserveAmount += _reserveAmount */\n      dup3\n      dup3\n      sload\n      tag_298\n      swap2\n      swap1\n      tag_292\n      jump\t// in\n    tag_298:\n      swap3\n      pop\n      pop\n      dup2\n      swap1\n      sstore\n      pop\n        /* \"contracts/Template/Istanbul10/logic/Router.sol\":4916:4934  address govAddress */\n      0x00\n        /* \"contracts/Template/Istanbul10/logic/Router.sol\":4947:4955  settings */\n      0x01\n      0x00\n      swap1\n      sload\n      swap1\n      0x0100\n      exp\n      swap1\n      div\n      0xffffffffffffffffffffffffffffffffffffffff\n      and\n        /* \"contracts/Template/Istanbul10/logic/Router.sol\":4937:4968  ISettings(settings).feeReceiver */\n      0xffffffffffffffffffffffffffffffffffffffff\n      and\n      0xb3f00674\n        /* \"contracts/Template/Istanbul10/logic/Router.sol\":4937:4970  ISettings(settings).feeReceiver() */\n      mload(0x40)\n      dup2\n      0xffffffff\n      and\n      0xe0\n      shl\n      dup2\n      mstore\n      0x04\n      add\n      0x20\n      mload(0x40)\n      dup1\n      dup4\n      sub\n      dup2\n      0x00\n      dup8\n      dup1\n      extcodesize\n      iszero\n      dup1\n      iszero\n      tag_299\n      jumpi\n      0x00\n      dup1\n      revert\n    tag_299:\n      pop\n      gas\n      call\n      iszero\n      dup1\n      iszero\n      tag_301\n      jumpi\n      returndatasize\n      0x00\n      dup1\n      returndatacopy\n      revert(0x00, returndatasize)\n    tag_301:\n      pop\n      pop\n      pop\n      pop\n      mload(0x40)\n      returndatasize\n      not(0x1f)\n      0x1f\n      dup3\n      add\n      and\n      dup3\n      add\n      dup1\n      0x40\n      mstore\n      pop\n      dup2\n      add\n      swap1\n      tag_302\n      swap2\n      swap1\n      tag_303\n      jump\t// in\n    tag_302:\n        /* \"contracts/Template/Istanbul10/logic/Router.sol\":4916:4970  address govAddress = ISettings(settings).feeReceiver() */\n      swap1\n      pop\n        /* \"contracts/Template/Istanbul10/logic/Router.sol\":4991:4999  division */\n      0x06\n      0x00\n      swap1\n      sload\n      swap1\n      0x0100\n      exp\n      swap1\n      div\n      0xffffffffffffffffffffffffffffffffffffffff\n      and\n        /* \"contracts/Template/Istanbul10/logic/Router.sol\":4981:5013  IDivision(division).mintDivision */\n      0xffffffffffffffffffffffffffffffffffffffff\n      and\n      0x41cd705a\n        /* \"contracts/Template/Istanbul10/logic/Router.sol\":5014:5024  govAddress */\n      dup3\n        /* \"contracts/Template/Istanbul10/logic/Router.sol\":5025:5035  _govAmount */\n      dup7\n        /* \"contracts/Template/Istanbul10/logic/Router.sol\":4981:5036  IDivision(division).mintDivision(govAddress,_govAmount) */\n      mload(0x40)\n      dup4\n      0xffffffff\n      and\n      0xe0\n      shl\n      dup2\n      mstore\n      0x04\n      add\n      tag_304\n      swap3\n      swap2\n      swap1\n      tag_268\n      jump\t// in\n    tag_304:\n      0x00\n      mload(0x40)\n      dup1\n      dup4\n      sub\n      dup2\n      0x00\n      dup8\n      dup1\n      extcodesize\n      iszero\n      dup1\n      iszero\n      tag_305\n      jumpi\n      0x00\n      dup1\n      revert\n    tag_305:\n      pop\n      gas\n      call\n      iszero\n      dup1\n      iszero\n      tag_307\n      jumpi\n      returndatasize\n      0x00\n      dup1\n      returndatacopy\n      revert(0x00, returndatasize)\n    tag_307:\n      pop\n      pop\n      pop\n      pop\n        /* \"contracts/Template/Istanbul10/logic/Router.sol\":5057:5065  division */\n      0x06\n      0x00\n      swap1\n      sload\n      swap1\n      0x0100\n      exp\n      swap1\n      div\n      0xffffffffffffffffffffffffffffffffffffffff\n      and\n        /* \"contracts/Template/Istanbul10/logic/Router.sol\":5047:5079  IDivision(division).mintDivision */\n      0xffffffffffffffffffffffffffffffffffffffff\n      and\n      0x41cd705a\n        /* \"contracts/Template/Istanbul10/logic/Router.sol\":5080:5086  mintTo */\n      dup7\n        /* \"contracts/Template/Istanbul10/logic/Router.sol\":5087:5100  _targetAmount */\n      dup5\n        /* \"contracts/Template/Istanbul10/logic/Router.sol\":5047:5101  IDivision(division).mintDivision(mintTo,_targetAmount) */\n      mload(0x40)\n      dup4\n      0xffffffff\n      and\n      0xe0\n      shl\n      dup2\n      mstore\n      0x04\n      add\n      tag_308\n      swap3\n      swap2\n      swap1\n      tag_268\n      jump\t// in\n    tag_308:\n      0x00\n      mload(0x40)\n      dup1\n      dup4\n      sub\n      dup2\n      0x00\n      dup8\n      dup1\n      extcodesize\n      iszero\n      dup1\n      iszero\n      tag_309\n      jumpi\n      0x00\n      dup1\n      revert\n    tag_309:\n      pop\n      gas\n      call\n      iszero\n      dup1\n      iszero\n      tag_311\n      jumpi\n      returndatasize\n      0x00\n      dup1\n      returndatacopy\n      revert(0x00, returndatasize)\n    tag_311:\n      pop\n      pop\n      pop\n      pop\n        /* \"contracts/Template/Istanbul10/logic/Router.sol\":4564:5109  function _mintToScale(uint256 supply_ ,address mintTo) private {\r... */\n      pop\n      pop\n      pop\n      pop\n      pop\n      pop\n      jump\t// out\n    tag_153:\n      dup3\n      dup1\n      sload\n      tag_312\n      swap1\n      tag_278\n      jump\t// in\n    tag_312:\n      swap1\n      0x00\n      mstore\n      keccak256(0x00, 0x20)\n      swap1\n      0x1f\n      add\n      0x20\n      swap1\n      div\n      dup2\n      add\n      swap3\n      dup3\n      tag_314\n      jumpi\n      0x00\n      dup6\n      sstore\n      jump(tag_313)\n    tag_314:\n      dup3\n      0x1f\n      lt\n      tag_315\n      jumpi\n      dup1\n      mload\n      not(0xff)\n      and\n      dup4\n      dup1\n      add\n      or\n      dup6\n      sstore\n      jump(tag_313)\n    tag_315:\n      dup3\n      dup1\n      add\n      0x01\n      add\n      dup6\n      sstore\n      dup3\n      iszero\n      tag_313\n      jumpi\n      swap2\n      dup3\n      add\n    tag_316:\n      dup3\n      dup2\n      gt\n      iszero\n      tag_317\n      jumpi\n      dup3\n      mload\n      dup3\n      sstore\n      swap2\n      0x20\n      add\n      swap2\n      swap1\n      0x01\n      add\n      swap1\n      jump(tag_316)\n    tag_317:\n    tag_313:\n      pop\n      swap1\n      pop\n      tag_318\n      swap2\n      swap1\n      tag_319\n      jump\t// in\n    tag_318:\n      pop\n      swap1\n      jump\t// out\n    tag_285:\n      dataSize(sub_0)\n      dup1\n      dataOffset(sub_0)\n      dup4\n      codecopy\n      add\n      swap1\n      jump\t// out\n    tag_319:\n    tag_320:\n      dup1\n      dup3\n      gt\n      iszero\n      tag_321\n      jumpi\n      0x00\n      dup2\n      0x00\n      swap1\n      sstore\n      pop\n      0x01\n      add\n      jump(tag_320)\n    tag_321:\n      pop\n      swap1\n      jump\t// out\n        /* \"#utility.yul\":24:646   */\n    tag_323:\n      0x00\n        /* \"#utility.yul\":145:225   */\n      tag_325\n        /* \"#utility.yul\":160:224   */\n      tag_326\n        /* \"#utility.yul\":217:223   */\n      dup5\n        /* \"#utility.yul\":160:224   */\n      tag_327\n      jump\t// in\n    tag_326:\n        /* \"#utility.yul\":145:225   */\n      tag_328\n      jump\t// in\n    tag_325:\n        /* \"#utility.yul\":136:225   */\n      swap1\n      pop\n        /* \"#utility.yul\":245:250   */\n      dup1\n        /* \"#utility.yul\":273:279   */\n      dup4\n        /* \"#utility.yul\":266:271   */\n      dup3\n        /* \"#utility.yul\":259:280   */\n      mstore\n        /* \"#utility.yul\":299:303   */\n      0x20\n        /* \"#utility.yul\":292:297   */\n      dup3\n        /* \"#utility.yul\":288:304   */\n      add\n        /* \"#utility.yul\":281:304   */\n      swap1\n      pop\n        /* \"#utility.yul\":324:330   */\n      dup3\n        /* \"#utility.yul\":374:377   */\n      dup6\n        /* \"#utility.yul\":366:370   */\n      0x20\n        /* \"#utility.yul\":358:364   */\n      dup7\n        /* \"#utility.yul\":354:371   */\n      mul\n        /* \"#utility.yul\":349:352   */\n      dup3\n        /* \"#utility.yul\":345:372   */\n      add\n        /* \"#utility.yul\":342:378   */\n      gt\n        /* \"#utility.yul\":339:341   */\n      iszero\n      tag_329\n      jumpi\n        /* \"#utility.yul\":391:392   */\n      0x00\n        /* \"#utility.yul\":388:389   */\n      dup1\n        /* \"#utility.yul\":381:393   */\n      revert\n        /* \"#utility.yul\":339:341   */\n    tag_329:\n        /* \"#utility.yul\":419:420   */\n      0x00\n        /* \"#utility.yul\":404:640   */\n    tag_330:\n        /* \"#utility.yul\":429:435   */\n      dup6\n        /* \"#utility.yul\":426:427   */\n      dup2\n        /* \"#utility.yul\":423:436   */\n      lt\n        /* \"#utility.yul\":404:640   */\n      iszero\n      tag_332\n      jumpi\n        /* \"#utility.yul\":496:499   */\n      dup2\n        /* \"#utility.yul\":524:561   */\n      tag_333\n        /* \"#utility.yul\":557:560   */\n      dup9\n        /* \"#utility.yul\":545:555   */\n      dup3\n        /* \"#utility.yul\":524:561   */\n      tag_334\n      jump\t// in\n    tag_333:\n        /* \"#utility.yul\":519:522   */\n      dup5\n        /* \"#utility.yul\":512:562   */\n      mstore\n        /* \"#utility.yul\":591:595   */\n      0x20\n        /* \"#utility.yul\":586:589   */\n      dup5\n        /* \"#utility.yul\":582:596   */\n      add\n        /* \"#utility.yul\":575:596   */\n      swap4\n      pop\n        /* \"#utility.yul\":625:629   */\n      0x20\n        /* \"#utility.yul\":620:623   */\n      dup4\n        /* \"#utility.yul\":616:630   */\n      add\n        /* \"#utility.yul\":609:630   */\n      swap3\n      pop\n        /* \"#utility.yul\":464:640   */\n      pop\n        /* \"#utility.yul\":451:452   */\n      0x01\n        /* \"#utility.yul\":448:449   */\n      dup2\n        /* \"#utility.yul\":444:453   */\n      add\n        /* \"#utility.yul\":439:453   */\n      swap1\n      pop\n        /* \"#utility.yul\":404:640   */\n      jump(tag_330)\n    tag_332:\n        /* \"#utility.yul\":408:422   */\n      pop\n        /* \"#utility.yul\":126:646   */\n      pop\n      pop\n      swap4\n      swap3\n      pop\n      pop\n      pop\n      jump\t// out\n        /* \"#utility.yul\":669:1291   */\n    tag_335:\n      0x00\n        /* \"#utility.yul\":790:870   */\n      tag_337\n        /* \"#utility.yul\":805:869   */\n      tag_338\n        /* \"#utility.yul\":862:868   */\n      dup5\n        /* \"#utility.yul\":805:869   */\n      tag_339\n      jump\t// in\n    tag_338:\n        /* \"#utility.yul\":790:870   */\n      tag_328\n      jump\t// in\n    tag_337:\n        /* \"#utility.yul\":781:870   */\n      swap1\n      pop\n        /* \"#utility.yul\":890:895   */\n      dup1\n        /* \"#utility.yul\":918:924   */\n      dup4\n        /* \"#utility.yul\":911:916   */\n      dup3\n        /* \"#utility.yul\":904:925   */\n      mstore\n        /* \"#utility.yul\":944:948   */\n      0x20\n        /* \"#utility.yul\":937:942   */\n      dup3\n        /* \"#utility.yul\":933:949   */\n      add\n        /* \"#utility.yul\":926:949   */\n      swap1\n      pop\n        /* \"#utility.yul\":969:975   */\n      dup3\n        /* \"#utility.yul\":1019:1022   */\n      dup6\n        /* \"#utility.yul\":1011:1015   */\n      0x20\n        /* \"#utility.yul\":1003:1009   */\n      dup7\n        /* \"#utility.yul\":999:1016   */\n      mul\n        /* \"#utility.yul\":994:997   */\n      dup3\n        /* \"#utility.yul\":990:1017   */\n      add\n        /* \"#utility.yul\":987:1023   */\n      gt\n        /* \"#utility.yul\":984:986   */\n      iszero\n      tag_340\n      jumpi\n        /* \"#utility.yul\":1036:1037   */\n      0x00\n        /* \"#utility.yul\":1033:1034   */\n      dup1\n        /* \"#utility.yul\":1026:1038   */\n      revert\n        /* \"#utility.yul\":984:986   */\n    tag_340:\n        /* \"#utility.yul\":1064:1065   */\n      0x00\n        /* \"#utility.yul\":1049:1285   */\n    tag_341:\n        /* \"#utility.yul\":1074:1080   */\n      dup6\n        /* \"#utility.yul\":1071:1072   */\n      dup2\n        /* \"#utility.yul\":1068:1081   */\n      lt\n        /* \"#utility.yul\":1049:1285   */\n      iszero\n      tag_343\n      jumpi\n        /* \"#utility.yul\":1141:1144   */\n      dup2\n        /* \"#utility.yul\":1169:1206   */\n      tag_344\n        /* \"#utility.yul\":1202:1205   */\n      dup9\n        /* \"#utility.yul\":1190:1200   */\n      dup3\n        /* \"#utility.yul\":1169:1206   */\n      tag_345\n      jump\t// in\n    tag_344:\n        /* \"#utility.yul\":1164:1167   */\n      dup5\n        /* \"#utility.yul\":1157:1207   */\n      mstore\n        /* \"#utility.yul\":1236:1240   */\n      0x20\n        /* \"#utility.yul\":1231:1234   */\n      dup5\n        /* \"#utility.yul\":1227:1241   */\n      add\n        /* \"#utility.yul\":1220:1241   */\n      swap4\n      pop\n        /* \"#utility.yul\":1270:1274   */\n      0x20\n        /* \"#utility.yul\":1265:1268   */\n      dup4\n        /* \"#utility.yul\":1261:1275   */\n      add\n        /* \"#utility.yul\":1254:1275   */\n      swap3\n      pop\n        /* \"#utility.yul\":1109:1285   */\n      pop\n        /* \"#utility.yul\":1096:1097   */\n      0x01\n        /* \"#utility.yul\":1093:1094   */\n      dup2\n        /* \"#utility.yul\":1089:1098   */\n      add\n        /* \"#utility.yul\":1084:1098   */\n      swap1\n      pop\n        /* \"#utility.yul\":1049:1285   */\n      jump(tag_341)\n    tag_343:\n        /* \"#utility.yul\":1053:1067   */\n      pop\n        /* \"#utility.yul\":771:1291   */\n      pop\n      pop\n      swap4\n      swap3\n      pop\n      pop\n      pop\n      jump\t// out\n        /* \"#utility.yul\":1314:1958   */\n    tag_346:\n      0x00\n        /* \"#utility.yul\":1446:1526   */\n      tag_348\n        /* \"#utility.yul\":1461:1525   */\n      tag_349\n        /* \"#utility.yul\":1518:1524   */\n      dup5\n        /* \"#utility.yul\":1461:1525   */\n      tag_339\n      jump\t// in\n    tag_349:\n        /* \"#utility.yul\":1446:1526   */\n      tag_328\n      jump\t// in\n    tag_348:\n        /* \"#utility.yul\":1437:1526   */\n      swap1\n      pop\n        /* \"#utility.yul\":1546:1551   */\n      dup1\n        /* \"#utility.yul\":1574:1580   */\n      dup4\n        /* \"#utility.yul\":1567:1572   */\n      dup3\n        /* \"#utility.yul\":1560:1581   */\n      mstore\n        /* \"#utility.yul\":1600:1604   */\n      0x20\n        /* \"#utility.yul\":1593:1598   */\n      dup3\n        /* \"#utility.yul\":1589:1605   */\n      add\n        /* \"#utility.yul\":1582:1605   */\n      swap1\n      pop\n        /* \"#utility.yul\":1625:1631   */\n      dup3\n        /* \"#utility.yul\":1675:1678   */\n      dup6\n        /* \"#utility.yul\":1667:1671   */\n      0x20\n        /* \"#utility.yul\":1659:1665   */\n      dup7\n        /* \"#utility.yul\":1655:1672   */\n      mul\n        /* \"#utility.yul\":1650:1653   */\n      dup3\n        /* \"#utility.yul\":1646:1673   */\n      add\n        /* \"#utility.yul\":1643:1679   */\n      gt\n        /* \"#utility.yul\":1640:1642   */\n      iszero\n      tag_350\n      jumpi\n        /* \"#utility.yul\":1692:1693   */\n      0x00\n        /* \"#utility.yul\":1689:1690   */\n      dup1\n        /* \"#utility.yul\":1682:1694   */\n      revert\n        /* \"#utility.yul\":1640:1642   */\n    tag_350:\n        /* \"#utility.yul\":1720:1721   */\n      0x00\n        /* \"#utility.yul\":1705:1952   */\n    tag_351:\n        /* \"#utility.yul\":1730:1736   */\n      dup6\n        /* \"#utility.yul\":1727:1728   */\n      dup2\n        /* \"#utility.yul\":1724:1737   */\n      lt\n        /* \"#utility.yul\":1705:1952   */\n      iszero\n      tag_353\n      jumpi\n        /* \"#utility.yul\":1797:1800   */\n      dup2\n        /* \"#utility.yul\":1825:1873   */\n      tag_354\n        /* \"#utility.yul\":1869:1872   */\n      dup9\n        /* \"#utility.yul\":1857:1867   */\n      dup3\n        /* \"#utility.yul\":1825:1873   */\n      tag_355\n      jump\t// in\n    tag_354:\n        /* \"#utility.yul\":1820:1823   */\n      dup5\n        /* \"#utility.yul\":1813:1874   */\n      mstore\n        /* \"#utility.yul\":1903:1907   */\n      0x20\n        /* \"#utility.yul\":1898:1901   */\n      dup5\n        /* \"#utility.yul\":1894:1908   */\n      add\n        /* \"#utility.yul\":1887:1908   */\n      swap4\n      pop\n        /* \"#utility.yul\":1937:1941   */\n      0x20\n        /* \"#utility.yul\":1932:1935   */\n      dup4\n        /* \"#utility.yul\":1928:1942   */\n      add\n        /* \"#utility.yul\":1921:1942   */\n      swap3\n      pop\n        /* \"#utility.yul\":1765:1952   */\n      pop\n        /* \"#utility.yul\":1752:1753   */\n      0x01\n        /* \"#utility.yul\":1749:1750   */\n      dup2\n        /* \"#utility.yul\":1745:1754   */\n      add\n        /* \"#utility.yul\":1740:1754   */\n      swap1\n      pop\n        /* \"#utility.yul\":1705:1952   */\n      jump(tag_351)\n    tag_353:\n        /* \"#utility.yul\":1709:1723   */\n      pop\n        /* \"#utility.yul\":1427:1958   */\n      pop\n      pop\n      swap4\n      swap3\n      pop\n      pop\n      pop\n      jump\t// out\n        /* \"#utility.yul\":1964:2308   */\n    tag_356:\n      0x00\n        /* \"#utility.yul\":2067:2132   */\n      tag_358\n        /* \"#utility.yul\":2082:2131   */\n      tag_359\n        /* \"#utility.yul\":2124:2130   */\n      dup5\n        /* \"#utility.yul\":2082:2131   */\n      tag_360\n      jump\t// in\n    tag_359:\n        /* \"#utility.yul\":2067:2132   */\n      tag_328\n      jump\t// in\n    tag_358:\n        /* \"#utility.yul\":2058:2132   */\n      swap1\n      pop\n        /* \"#utility.yul\":2155:2161   */\n      dup3\n        /* \"#utility.yul\":2148:2153   */\n      dup2\n        /* \"#utility.yul\":2141:2162   */\n      mstore\n        /* \"#utility.yul\":2193:2197   */\n      0x20\n        /* \"#utility.yul\":2186:2191   */\n      dup2\n        /* \"#utility.yul\":2182:2198   */\n      add\n        /* \"#utility.yul\":2231:2234   */\n      dup5\n        /* \"#utility.yul\":2222:2228   */\n      dup5\n        /* \"#utility.yul\":2217:2220   */\n      dup5\n        /* \"#utility.yul\":2213:2229   */\n      add\n        /* \"#utility.yul\":2210:2235   */\n      gt\n        /* \"#utility.yul\":2207:2209   */\n      iszero\n      tag_361\n      jumpi\n        /* \"#utility.yul\":2248:2249   */\n      0x00\n        /* \"#utility.yul\":2245:2246   */\n      dup1\n        /* \"#utility.yul\":2238:2250   */\n      revert\n        /* \"#utility.yul\":2207:2209   */\n    tag_361:\n        /* \"#utility.yul\":2261:2302   */\n      tag_362\n        /* \"#utility.yul\":2295:2301   */\n      dup5\n        /* \"#utility.yul\":2290:2293   */\n      dup3\n        /* \"#utility.yul\":2285:2288   */\n      dup6\n        /* \"#utility.yul\":2261:2302   */\n      tag_363\n      jump\t// in\n    tag_362:\n        /* \"#utility.yul\":2048:2308   */\n      pop\n      swap4\n      swap3\n      pop\n      pop\n      pop\n      jump\t// out\n        /* \"#utility.yul\":2314:2453   */\n    tag_334:\n      0x00\n        /* \"#utility.yul\":2398:2404   */\n      dup2\n        /* \"#utility.yul\":2385:2405   */\n      calldataload\n        /* \"#utility.yul\":2376:2405   */\n      swap1\n      pop\n        /* \"#utility.yul\":2414:2447   */\n      tag_365\n        /* \"#utility.yul\":2441:2446   */\n      dup2\n        /* \"#utility.yul\":2414:2447   */\n      tag_366\n      jump\t// in\n    tag_365:\n        /* \"#utility.yul\":2366:2453   */\n      swap3\n      swap2\n      pop\n      pop\n      jump\t// out\n        /* \"#utility.yul\":2459:2618   */\n    tag_367:\n      0x00\n        /* \"#utility.yul\":2555:2561   */\n      dup2\n        /* \"#utility.yul\":2549:2562   */\n      mload\n        /* \"#utility.yul\":2540:2562   */\n      swap1\n      pop\n        /* \"#utility.yul\":2571:2612   */\n      tag_369\n        /* \"#utility.yul\":2606:2611   */\n      dup2\n        /* \"#utility.yul\":2571:2612   */\n      tag_370\n      jump\t// in\n    tag_369:\n        /* \"#utility.yul\":2530:2618   */\n      swap3\n      swap2\n      pop\n      pop\n      jump\t// out\n        /* \"#utility.yul\":2641:2944   */\n    tag_371:\n      0x00\n        /* \"#utility.yul\":2761:2764   */\n      dup3\n        /* \"#utility.yul\":2754:2758   */\n      0x1f\n        /* \"#utility.yul\":2746:2752   */\n      dup4\n        /* \"#utility.yul\":2742:2759   */\n      add\n        /* \"#utility.yul\":2738:2765   */\n      slt\n        /* \"#utility.yul\":2728:2730   */\n      tag_373\n      jumpi\n        /* \"#utility.yul\":2779:2780   */\n      0x00\n        /* \"#utility.yul\":2776:2777   */\n      dup1\n        /* \"#utility.yul\":2769:2781   */\n      revert\n        /* \"#utility.yul\":2728:2730   */\n    tag_373:\n        /* \"#utility.yul\":2819:2825   */\n      dup2\n        /* \"#utility.yul\":2806:2826   */\n      calldataload\n        /* \"#utility.yul\":2844:2938   */\n      tag_374\n        /* \"#utility.yul\":2934:2937   */\n      dup5\n        /* \"#utility.yul\":2926:2932   */\n      dup3\n        /* \"#utility.yul\":2919:2923   */\n      0x20\n        /* \"#utility.yul\":2911:2917   */\n      dup7\n        /* \"#utility.yul\":2907:2924   */\n      add\n        /* \"#utility.yul\":2844:2938   */\n      tag_323\n      jump\t// in\n    tag_374:\n        /* \"#utility.yul\":2835:2938   */\n      swap2\n      pop\n        /* \"#utility.yul\":2718:2944   */\n      pop\n      swap3\n      swap2\n      pop\n      pop\n      jump\t// out\n        /* \"#utility.yul\":2967:3270   */\n    tag_375:\n      0x00\n        /* \"#utility.yul\":3087:3090   */\n      dup3\n        /* \"#utility.yul\":3080:3084   */\n      0x1f\n        /* \"#utility.yul\":3072:3078   */\n      dup4\n        /* \"#utility.yul\":3068:3085   */\n      add\n        /* \"#utility.yul\":3064:3091   */\n      slt\n        /* \"#utility.yul\":3054:3056   */\n      tag_377\n      jumpi\n        /* \"#utility.yul\":3105:3106   */\n      0x00\n        /* \"#utility.yul\":3102:3103   */\n      dup1\n        /* \"#utility.yul\":3095:3107   */\n      revert\n        /* \"#utility.yul\":3054:3056   */\n    tag_377:\n        /* \"#utility.yul\":3145:3151   */\n      dup2\n        /* \"#utility.yul\":3132:3152   */\n      calldataload\n        /* \"#utility.yul\":3170:3264   */\n      tag_378\n        /* \"#utility.yul\":3260:3263   */\n      dup5\n        /* \"#utility.yul\":3252:3258   */\n      dup3\n        /* \"#utility.yul\":3245:3249   */\n      0x20\n        /* \"#utility.yul\":3237:3243   */\n      dup7\n        /* \"#utility.yul\":3233:3250   */\n      add\n        /* \"#utility.yul\":3170:3264   */\n      tag_335\n      jump\t// in\n    tag_378:\n        /* \"#utility.yul\":3161:3264   */\n      swap2\n      pop\n        /* \"#utility.yul\":3044:3270   */\n      pop\n      swap3\n      swap2\n      pop\n      pop\n      jump\t// out\n        /* \"#utility.yul\":3293:3611   */\n    tag_379:\n      0x00\n        /* \"#utility.yul\":3424:3427   */\n      dup3\n        /* \"#utility.yul\":3417:3421   */\n      0x1f\n        /* \"#utility.yul\":3409:3415   */\n      dup4\n        /* \"#utility.yul\":3405:3422   */\n      add\n        /* \"#utility.yul\":3401:3428   */\n      slt\n        /* \"#utility.yul\":3391:3393   */\n      tag_381\n      jumpi\n        /* \"#utility.yul\":3442:3443   */\n      0x00\n        /* \"#utility.yul\":3439:3440   */\n      dup1\n        /* \"#utility.yul\":3432:3444   */\n      revert\n        /* \"#utility.yul\":3391:3393   */\n    tag_381:\n        /* \"#utility.yul\":3475:3481   */\n      dup2\n        /* \"#utility.yul\":3469:3482   */\n      mload\n        /* \"#utility.yul\":3500:3605   */\n      tag_382\n        /* \"#utility.yul\":3601:3604   */\n      dup5\n        /* \"#utility.yul\":3593:3599   */\n      dup3\n        /* \"#utility.yul\":3586:3590   */\n      0x20\n        /* \"#utility.yul\":3578:3584   */\n      dup7\n        /* \"#utility.yul\":3574:3591   */\n      add\n        /* \"#utility.yul\":3500:3605   */\n      tag_346\n      jump\t// in\n    tag_382:\n        /* \"#utility.yul\":3491:3605   */\n      swap2\n      pop\n        /* \"#utility.yul\":3381:3611   */\n      pop\n      swap3\n      swap2\n      pop\n      pop\n      jump\t// out\n        /* \"#utility.yul\":3617:3754   */\n    tag_383:\n      0x00\n        /* \"#utility.yul\":3702:3708   */\n      dup2\n        /* \"#utility.yul\":3696:3709   */\n      mload\n        /* \"#utility.yul\":3687:3709   */\n      swap1\n      pop\n        /* \"#utility.yul\":3718:3748   */\n      tag_385\n        /* \"#utility.yul\":3742:3747   */\n      dup2\n        /* \"#utility.yul\":3718:3748   */\n      tag_386\n      jump\t// in\n    tag_385:\n        /* \"#utility.yul\":3677:3754   */\n      swap3\n      swap2\n      pop\n      pop\n      jump\t// out\n        /* \"#utility.yul\":3760:3929   */\n    tag_387:\n      0x00\n        /* \"#utility.yul\":3861:3867   */\n      dup2\n        /* \"#utility.yul\":3855:3868   */\n      mload\n        /* \"#utility.yul\":3846:3868   */\n      swap1\n      pop\n        /* \"#utility.yul\":3877:3923   */\n      tag_389\n        /* \"#utility.yul\":3917:3922   */\n      dup2\n        /* \"#utility.yul\":3877:3923   */\n      tag_390\n      jump\t// in\n    tag_389:\n        /* \"#utility.yul\":3836:3929   */\n      swap3\n      swap2\n      pop\n      pop\n      jump\t// out\n        /* \"#utility.yul\":3949:4222   */\n    tag_391:\n      0x00\n        /* \"#utility.yul\":4054:4057   */\n      dup3\n        /* \"#utility.yul\":4047:4051   */\n      0x1f\n        /* \"#utility.yul\":4039:4045   */\n      dup4\n        /* \"#utility.yul\":4035:4052   */\n      add\n        /* \"#utility.yul\":4031:4058   */\n      slt\n        /* \"#utility.yul\":4021:4023   */\n      tag_393\n      jumpi\n        /* \"#utility.yul\":4072:4073   */\n      0x00\n        /* \"#utility.yul\":4069:4070   */\n      dup1\n        /* \"#utility.yul\":4062:4074   */\n      revert\n        /* \"#utility.yul\":4021:4023   */\n    tag_393:\n        /* \"#utility.yul\":4112:4118   */\n      dup2\n        /* \"#utility.yul\":4099:4119   */\n      calldataload\n        /* \"#utility.yul\":4137:4216   */\n      tag_394\n        /* \"#utility.yul\":4212:4215   */\n      dup5\n        /* \"#utility.yul\":4204:4210   */\n      dup3\n        /* \"#utility.yul\":4197:4201   */\n      0x20\n        /* \"#utility.yul\":4189:4195   */\n      dup7\n        /* \"#utility.yul\":4185:4202   */\n      add\n        /* \"#utility.yul\":4137:4216   */\n      tag_356\n      jump\t// in\n    tag_394:\n        /* \"#utility.yul\":4128:4216   */\n      swap2\n      pop\n        /* \"#utility.yul\":4011:4222   */\n      pop\n      swap3\n      swap2\n      pop\n      pop\n      jump\t// out\n        /* \"#utility.yul\":4228:4367   */\n    tag_345:\n      0x00\n        /* \"#utility.yul\":4312:4318   */\n      dup2\n        /* \"#utility.yul\":4299:4319   */\n      calldataload\n        /* \"#utility.yul\":4290:4319   */\n      swap1\n      pop\n        /* \"#utility.yul\":4328:4361   */\n      tag_396\n        /* \"#utility.yul\":4355:4360   */\n      dup2\n        /* \"#utility.yul\":4328:4361   */\n      tag_397\n      jump\t// in\n    tag_396:\n        /* \"#utility.yul\":4280:4367   */\n      swap3\n      swap2\n      pop\n      pop\n      jump\t// out\n        /* \"#utility.yul\":4373:4516   */\n    tag_355:\n      0x00\n        /* \"#utility.yul\":4461:4467   */\n      dup2\n        /* \"#utility.yul\":4455:4468   */\n      mload\n        /* \"#utility.yul\":4446:4468   */\n      swap1\n      pop\n        /* \"#utility.yul\":4477:4510   */\n      tag_399\n        /* \"#utility.yul\":4504:4509   */\n      dup2\n        /* \"#utility.yul\":4477:4510   */\n      tag_397\n      jump\t// in\n    tag_399:\n        /* \"#utility.yul\":4436:4516   */\n      swap3\n      swap2\n      pop\n      pop\n      jump\t// out\n        /* \"#utility.yul\":4522:4784   */\n    tag_65:\n      0x00\n        /* \"#utility.yul\":4630:4632   */\n      0x20\n        /* \"#utility.yul\":4618:4627   */\n      dup3\n        /* \"#utility.yul\":4609:4616   */\n      dup5\n        /* \"#utility.yul\":4605:4628   */\n      sub\n        /* \"#utility.yul\":4601:4633   */\n      slt\n        /* \"#utility.yul\":4598:4600   */\n      iszero\n      tag_401\n      jumpi\n        /* \"#utility.yul\":4646:4647   */\n      0x00\n        /* \"#utility.yul\":4643:4644   */\n      dup1\n        /* \"#utility.yul\":4636:4648   */\n      revert\n        /* \"#utility.yul\":4598:4600   */\n    tag_401:\n        /* \"#utility.yul\":4689:4690   */\n      0x00\n        /* \"#utility.yul\":4714:4767   */\n      tag_402\n        /* \"#utility.yul\":4759:4766   */\n      dup5\n        /* \"#utility.yul\":4750:4756   */\n      dup3\n        /* \"#utility.yul\":4739:4748   */\n      dup6\n        /* \"#utility.yul\":4735:4757   */\n      add\n        /* \"#utility.yul\":4714:4767   */\n      tag_334\n      jump\t// in\n    tag_402:\n        /* \"#utility.yul\":4704:4767   */\n      swap2\n      pop\n        /* \"#utility.yul\":4660:4777   */\n      pop\n        /* \"#utility.yul\":4588:4784   */\n      swap3\n      swap2\n      pop\n      pop\n      jump\t// out\n        /* \"#utility.yul\":4790:5090   */\n    tag_303:\n      0x00\n        /* \"#utility.yul\":4917:4919   */\n      0x20\n        /* \"#utility.yul\":4905:4914   */\n      dup3\n        /* \"#utility.yul\":4896:4903   */\n      dup5\n        /* \"#utility.yul\":4892:4915   */\n      sub\n        /* \"#utility.yul\":4888:4920   */\n      slt\n        /* \"#utility.yul\":4885:4887   */\n      iszero\n      tag_404\n      jumpi\n        /* \"#utility.yul\":4933:4934   */\n      0x00\n        /* \"#utility.yul\":4930:4931   */\n      dup1\n        /* \"#utility.yul\":4923:4935   */\n      revert\n        /* \"#utility.yul\":4885:4887   */\n    tag_404:\n        /* \"#utility.yul\":4976:4977   */\n      0x00\n        /* \"#utility.yul\":5001:5073   */\n      tag_405\n        /* \"#utility.yul\":5065:5072   */\n      dup5\n        /* \"#utility.yul\":5056:5062   */\n      dup3\n        /* \"#utility.yul\":5045:5054   */\n      dup6\n        /* \"#utility.yul\":5041:5063   */\n      add\n        /* \"#utility.yul\":5001:5073   */\n      tag_367\n      jump\t// in\n    tag_405:\n        /* \"#utility.yul\":4991:5073   */\n      swap2\n      pop\n        /* \"#utility.yul\":4947:5083   */\n      pop\n        /* \"#utility.yul\":4875:5090   */\n      swap3\n      swap2\n      pop\n      pop\n      jump\t// out\n        /* \"#utility.yul\":5096:5761   */\n    tag_74:\n      0x00\n      dup1\n      0x00\n        /* \"#utility.yul\":5248:5250   */\n      0x60\n        /* \"#utility.yul\":5236:5245   */\n      dup5\n        /* \"#utility.yul\":5227:5234   */\n      dup7\n        /* \"#utility.yul\":5223:5246   */\n      sub\n        /* \"#utility.yul\":5219:5251   */\n      slt\n        /* \"#utility.yul\":5216:5218   */\n      iszero\n      tag_407\n      jumpi\n        /* \"#utility.yul\":5264:5265   */\n      0x00\n        /* \"#utility.yul\":5261:5262   */\n      dup1\n        /* \"#utility.yul\":5254:5266   */\n      revert\n        /* \"#utility.yul\":5216:5218   */\n    tag_407:\n        /* \"#utility.yul\":5307:5308   */\n      0x00\n        /* \"#utility.yul\":5332:5385   */\n      tag_408\n        /* \"#utility.yul\":5377:5384   */\n      dup7\n        /* \"#utility.yul\":5368:5374   */\n      dup3\n        /* \"#utility.yul\":5357:5366   */\n      dup8\n        /* \"#utility.yul\":5353:5375   */\n      add\n        /* \"#utility.yul\":5332:5385   */\n      tag_334\n      jump\t// in\n    tag_408:\n        /* \"#utility.yul\":5322:5385   */\n      swap4\n      pop\n        /* \"#utility.yul\":5278:5395   */\n      pop\n        /* \"#utility.yul\":5434:5436   */\n      0x20\n        /* \"#utility.yul\":5460:5513   */\n      tag_409\n        /* \"#utility.yul\":5505:5512   */\n      dup7\n        /* \"#utility.yul\":5496:5502   */\n      dup3\n        /* \"#utility.yul\":5485:5494   */\n      dup8\n        /* \"#utility.yul\":5481:5503   */\n      add\n        /* \"#utility.yul\":5460:5513   */\n      tag_334\n      jump\t// in\n    tag_409:\n        /* \"#utility.yul\":5450:5513   */\n      swap3\n      pop\n        /* \"#utility.yul\":5405:5523   */\n      pop\n        /* \"#utility.yul\":5590:5592   */\n      0x40\n        /* \"#utility.yul\":5579:5588   */\n      dup5\n        /* \"#utility.yul\":5575:5593   */\n      add\n        /* \"#utility.yul\":5562:5594   */\n      calldataload\n        /* \"#utility.yul\":5621:5639   */\n      0xffffffffffffffff\n        /* \"#utility.yul\":5613:5619   */\n      dup2\n        /* \"#utility.yul\":5610:5640   */\n      gt\n        /* \"#utility.yul\":5607:5609   */\n      iszero\n      tag_410\n      jumpi\n        /* \"#utility.yul\":5653:5654   */\n      0x00\n        /* \"#utility.yul\":5650:5651   */\n      dup1\n        /* \"#utility.yul\":5643:5655   */\n      revert\n        /* \"#utility.yul\":5607:5609   */\n    tag_410:\n        /* \"#utility.yul\":5681:5744   */\n      tag_411\n        /* \"#utility.yul\":5736:5743   */\n      dup7\n        /* \"#utility.yul\":5727:5733   */\n      dup3\n        /* \"#utility.yul\":5716:5725   */\n      dup8\n        /* \"#utility.yul\":5712:5734   */\n      add\n        /* \"#utility.yul\":5681:5744   */\n      tag_391\n      jump\t// in\n    tag_411:\n        /* \"#utility.yul\":5671:5744   */\n      swap2\n      pop\n        /* \"#utility.yul\":5533:5754   */\n      pop\n        /* \"#utility.yul\":5206:5761   */\n      swap3\n      pop\n      swap3\n      pop\n      swap3\n      jump\t// out\n        /* \"#utility.yul\":5767:6748   */\n    tag_116:\n      0x00\n      dup1\n      0x00\n        /* \"#utility.yul\":5984:5986   */\n      0x60\n        /* \"#utility.yul\":5972:5981   */\n      dup5\n        /* \"#utility.yul\":5963:5970   */\n      dup7\n        /* \"#utility.yul\":5959:5982   */\n      sub\n        /* \"#utility.yul\":5955:5987   */\n      slt\n        /* \"#utility.yul\":5952:5954   */\n      iszero\n      tag_413\n      jumpi\n        /* \"#utility.yul\":6000:6001   */\n      0x00\n        /* \"#utility.yul\":5997:5998   */\n      dup1\n        /* \"#utility.yul\":5990:6002   */\n      revert\n        /* \"#utility.yul\":5952:5954   */\n    tag_413:\n        /* \"#utility.yul\":6071:6072   */\n      0x00\n        /* \"#utility.yul\":6060:6069   */\n      dup5\n        /* \"#utility.yul\":6056:6073   */\n      add\n        /* \"#utility.yul\":6043:6074   */\n      calldataload\n        /* \"#utility.yul\":6101:6119   */\n      0xffffffffffffffff\n        /* \"#utility.yul\":6093:6099   */\n      dup2\n        /* \"#utility.yul\":6090:6120   */\n      gt\n        /* \"#utility.yul\":6087:6089   */\n      iszero\n      tag_414\n      jumpi\n        /* \"#utility.yul\":6133:6134   */\n      0x00\n        /* \"#utility.yul\":6130:6131   */\n      dup1\n        /* \"#utility.yul\":6123:6135   */\n      revert\n        /* \"#utility.yul\":6087:6089   */\n    tag_414:\n        /* \"#utility.yul\":6161:6239   */\n      tag_415\n        /* \"#utility.yul\":6231:6238   */\n      dup7\n        /* \"#utility.yul\":6222:6228   */\n      dup3\n        /* \"#utility.yul\":6211:6220   */\n      dup8\n        /* \"#utility.yul\":6207:6229   */\n      add\n        /* \"#utility.yul\":6161:6239   */\n      tag_371\n      jump\t// in\n    tag_415:\n        /* \"#utility.yul\":6151:6239   */\n      swap4\n      pop\n        /* \"#utility.yul\":6014:6249   */\n      pop\n        /* \"#utility.yul\":6316:6318   */\n      0x20\n        /* \"#utility.yul\":6305:6314   */\n      dup5\n        /* \"#utility.yul\":6301:6319   */\n      add\n        /* \"#utility.yul\":6288:6320   */\n      calldataload\n        /* \"#utility.yul\":6347:6365   */\n      0xffffffffffffffff\n        /* \"#utility.yul\":6339:6345   */\n      dup2\n        /* \"#utility.yul\":6336:6366   */\n      gt\n        /* \"#utility.yul\":6333:6335   */\n      iszero\n      tag_416\n      jumpi\n        /* \"#utility.yul\":6379:6380   */\n      0x00\n        /* \"#utility.yul\":6376:6377   */\n      dup1\n        /* \"#utility.yul\":6369:6381   */\n      revert\n        /* \"#utility.yul\":6333:6335   */\n    tag_416:\n        /* \"#utility.yul\":6407:6485   */\n      tag_417\n        /* \"#utility.yul\":6477:6484   */\n      dup7\n        /* \"#utility.yul\":6468:6474   */\n      dup3\n        /* \"#utility.yul\":6457:6466   */\n      dup8\n        /* \"#utility.yul\":6453:6475   */\n      add\n        /* \"#utility.yul\":6407:6485   */\n      tag_375\n      jump\t// in\n    tag_417:\n        /* \"#utility.yul\":6397:6485   */\n      swap3\n      pop\n        /* \"#utility.yul\":6259:6495   */\n      pop\n        /* \"#utility.yul\":6562:6564   */\n      0x40\n        /* \"#utility.yul\":6551:6560   */\n      dup5\n        /* \"#utility.yul\":6547:6565   */\n      add\n        /* \"#utility.yul\":6534:6566   */\n      calldataload\n        /* \"#utility.yul\":6593:6611   */\n      0xffffffffffffffff\n        /* \"#utility.yul\":6585:6591   */\n      dup2\n        /* \"#utility.yul\":6582:6612   */\n      gt\n        /* \"#utility.yul\":6579:6581   */\n      iszero\n      tag_418\n      jumpi\n        /* \"#utility.yul\":6625:6626   */\n      0x00\n        /* \"#utility.yul\":6622:6623   */\n      dup1\n        /* \"#utility.yul\":6615:6627   */\n      revert\n        /* \"#utility.yul\":6579:6581   */\n    tag_418:\n        /* \"#utility.yul\":6653:6731   */\n      tag_419\n        /* \"#utility.yul\":6723:6730   */\n      dup7\n        /* \"#utility.yul\":6714:6720   */\n      dup3\n        /* \"#utility.yul\":6703:6712   */\n      dup8\n        /* \"#utility.yul\":6699:6721   */\n      add\n        /* \"#utility.yul\":6653:6731   */\n      tag_375\n      jump\t// in\n    tag_419:\n        /* \"#utility.yul\":6643:6731   */\n      swap2\n      pop\n        /* \"#utility.yul\":6505:6741   */\n      pop\n        /* \"#utility.yul\":5942:6748   */\n      swap3\n      pop\n      swap3\n      pop\n      swap3\n      jump\t// out\n        /* \"#utility.yul\":6754:7174   */\n    tag_166:\n      0x00\n        /* \"#utility.yul\":6898:6900   */\n      0x20\n        /* \"#utility.yul\":6886:6895   */\n      dup3\n        /* \"#utility.yul\":6877:6884   */\n      dup5\n        /* \"#utility.yul\":6873:6896   */\n      sub\n        /* \"#utility.yul\":6869:6901   */\n      slt\n        /* \"#utility.yul\":6866:6868   */\n      iszero\n      tag_421\n      jumpi\n        /* \"#utility.yul\":6914:6915   */\n      0x00\n        /* \"#utility.yul\":6911:6912   */\n      dup1\n        /* \"#utility.yul\":6904:6916   */\n      revert\n        /* \"#utility.yul\":6866:6868   */\n    tag_421:\n        /* \"#utility.yul\":6978:6979   */\n      0x00\n        /* \"#utility.yul\":6967:6976   */\n      dup3\n        /* \"#utility.yul\":6963:6980   */\n      add\n        /* \"#utility.yul\":6957:6981   */\n      mload\n        /* \"#utility.yul\":7008:7026   */\n      0xffffffffffffffff\n        /* \"#utility.yul\":7000:7006   */\n      dup2\n        /* \"#utility.yul\":6997:7027   */\n      gt\n        /* \"#utility.yul\":6994:6996   */\n      iszero\n      tag_422\n      jumpi\n        /* \"#utility.yul\":7040:7041   */\n      0x00\n        /* \"#utility.yul\":7037:7038   */\n      dup1\n        /* \"#utility.yul\":7030:7042   */\n      revert\n        /* \"#utility.yul\":6994:6996   */\n    tag_422:\n        /* \"#utility.yul\":7068:7157   */\n      tag_423\n        /* \"#utility.yul\":7149:7156   */\n      dup5\n        /* \"#utility.yul\":7140:7146   */\n      dup3\n        /* \"#utility.yul\":7129:7138   */\n      dup6\n        /* \"#utility.yul\":7125:7147   */\n      add\n        /* \"#utility.yul\":7068:7157   */\n      tag_379\n      jump\t// in\n    tag_423:\n        /* \"#utility.yul\":7058:7157   */\n      swap2\n      pop\n        /* \"#utility.yul\":6928:7167   */\n      pop\n        /* \"#utility.yul\":6856:7174   */\n      swap3\n      swap2\n      pop\n      pop\n      jump\t// out\n        /* \"#utility.yul\":7180:7458   */\n    tag_215:\n      0x00\n        /* \"#utility.yul\":7296:7298   */\n      0x20\n        /* \"#utility.yul\":7284:7293   */\n      dup3\n        /* \"#utility.yul\":7275:7282   */\n      dup5\n        /* \"#utility.yul\":7271:7294   */\n      sub\n        /* \"#utility.yul\":7267:7299   */\n      slt\n        /* \"#utility.yul\":7264:7266   */\n      iszero\n      tag_425\n      jumpi\n        /* \"#utility.yul\":7312:7313   */\n      0x00\n        /* \"#utility.yul\":7309:7310   */\n      dup1\n        /* \"#utility.yul\":7302:7314   */\n      revert\n        /* \"#utility.yul\":7264:7266   */\n    tag_425:\n        /* \"#utility.yul\":7355:7356   */\n      0x00\n        /* \"#utility.yul\":7380:7441   */\n      tag_426\n        /* \"#utility.yul\":7433:7440   */\n      dup5\n        /* \"#utility.yul\":7424:7430   */\n      dup3\n        /* \"#utility.yul\":7413:7422   */\n      dup6\n        /* \"#utility.yul\":7409:7431   */\n      add\n        /* \"#utility.yul\":7380:7441   */\n      tag_383\n      jump\t// in\n    tag_426:\n        /* \"#utility.yul\":7370:7441   */\n      swap2\n      pop\n        /* \"#utility.yul\":7326:7451   */\n      pop\n        /* \"#utility.yul\":7254:7458   */\n      swap3\n      swap2\n      pop\n      pop\n      jump\t// out\n        /* \"#utility.yul\":7464:7774   */\n    tag_246:\n      0x00\n        /* \"#utility.yul\":7596:7598   */\n      0x20\n        /* \"#utility.yul\":7584:7593   */\n      dup3\n        /* \"#utility.yul\":7575:7582   */\n      dup5\n        /* \"#utility.yul\":7571:7594   */\n      sub\n        /* \"#utility.yul\":7567:7599   */\n      slt\n        /* \"#utility.yul\":7564:7566   */\n      iszero\n      tag_428\n      jumpi\n        /* \"#utility.yul\":7612:7613   */\n      0x00\n        /* \"#utility.yul\":7609:7610   */\n      dup1\n        /* \"#utility.yul\":7602:7614   */\n      revert\n        /* \"#utility.yul\":7564:7566   */\n    tag_428:\n        /* \"#utility.yul\":7655:7656   */\n      0x00\n        /* \"#utility.yul\":7680:7757   */\n      tag_429\n        /* \"#utility.yul\":7749:7756   */\n      dup5\n        /* \"#utility.yul\":7740:7746   */\n      dup3\n        /* \"#utility.yul\":7729:7738   */\n      dup6\n        /* \"#utility.yul\":7725:7747   */\n      add\n        /* \"#utility.yul\":7680:7757   */\n      tag_387\n      jump\t// in\n    tag_429:\n        /* \"#utility.yul\":7670:7757   */\n      swap2\n      pop\n        /* \"#utility.yul\":7626:7767   */\n      pop\n        /* \"#utility.yul\":7554:7774   */\n      swap3\n      swap2\n      pop\n      pop\n      jump\t// out\n        /* \"#utility.yul\":7780:8064   */\n    tag_258:\n      0x00\n        /* \"#utility.yul\":7899:7901   */\n      0x20\n        /* \"#utility.yul\":7887:7896   */\n      dup3\n        /* \"#utility.yul\":7878:7885   */\n      dup5\n        /* \"#utility.yul\":7874:7897   */\n      sub\n        /* \"#utility.yul\":7870:7902   */\n      slt\n        /* \"#utility.yul\":7867:7869   */\n      iszero\n      tag_431\n      jumpi\n        /* \"#utility.yul\":7915:7916   */\n      0x00\n        /* \"#utility.yul\":7912:7913   */\n      dup1\n        /* \"#utility.yul\":7905:7917   */\n      revert\n        /* \"#utility.yul\":7867:7869   */\n    tag_431:\n        /* \"#utility.yul\":7958:7959   */\n      0x00\n        /* \"#utility.yul\":7983:8047   */\n      tag_432\n        /* \"#utility.yul\":8039:8046   */\n      dup5\n        /* \"#utility.yul\":8030:8036   */\n      dup3\n        /* \"#utility.yul\":8019:8028   */\n      dup6\n        /* \"#utility.yul\":8015:8037   */\n      add\n        /* \"#utility.yul\":7983:8047   */\n      tag_355\n      jump\t// in\n    tag_432:\n        /* \"#utility.yul\":7973:8047   */\n      swap2\n      pop\n        /* \"#utility.yul\":7929:8057   */\n      pop\n        /* \"#utility.yul\":7857:8064   */\n      swap3\n      swap2\n      pop\n      pop\n      jump\t// out\n        /* \"#utility.yul\":8070:8477   */\n    tag_122:\n      0x00\n      dup1\n        /* \"#utility.yul\":8195:8197   */\n      0x40\n        /* \"#utility.yul\":8183:8192   */\n      dup4\n        /* \"#utility.yul\":8174:8181   */\n      dup6\n        /* \"#utility.yul\":8170:8193   */\n      sub\n        /* \"#utility.yul\":8166:8198   */\n      slt\n        /* \"#utility.yul\":8163:8165   */\n      iszero\n      tag_434\n      jumpi\n        /* \"#utility.yul\":8211:8212   */\n      0x00\n        /* \"#utility.yul\":8208:8209   */\n      dup1\n        /* \"#utility.yul\":8201:8213   */\n      revert\n        /* \"#utility.yul\":8163:8165   */\n    tag_434:\n        /* \"#utility.yul\":8254:8255   */\n      0x00\n        /* \"#utility.yul\":8279:8332   */\n      tag_435\n        /* \"#utility.yul\":8324:8331   */\n      dup6\n        /* \"#utility.yul\":8315:8321   */\n      dup3\n        /* \"#utility.yul\":8304:8313   */\n      dup7\n        /* \"#utility.yul\":8300:8322   */\n      add\n        /* \"#utility.yul\":8279:8332   */\n      tag_345\n      jump\t// in\n    tag_435:\n        /* \"#utility.yul\":8269:8332   */\n      swap3\n      pop\n        /* \"#utility.yul\":8225:8342   */\n      pop\n        /* \"#utility.yul\":8381:8383   */\n      0x20\n        /* \"#utility.yul\":8407:8460   */\n      tag_436\n        /* \"#utility.yul\":8452:8459   */\n      dup6\n        /* \"#utility.yul\":8443:8449   */\n      dup3\n        /* \"#utility.yul\":8432:8441   */\n      dup7\n        /* \"#utility.yul\":8428:8450   */\n      add\n        /* \"#utility.yul\":8407:8460   */\n      tag_334\n      jump\t// in\n    tag_436:\n        /* \"#utility.yul\":8397:8460   */\n      swap2\n      pop\n        /* \"#utility.yul\":8352:8470   */\n      pop\n        /* \"#utility.yul\":8153:8477   */\n      swap3\n      pop\n      swap3\n      swap1\n      pop\n      jump\t// out\n        /* \"#utility.yul\":8483:9586   */\n    tag_84:\n      0x00\n      dup1\n      0x00\n      dup1\n      0x00\n      dup1\n        /* \"#utility.yul\":8686:8689   */\n      0xc0\n        /* \"#utility.yul\":8674:8683   */\n      dup8\n        /* \"#utility.yul\":8665:8672   */\n      dup10\n        /* \"#utility.yul\":8661:8684   */\n      sub\n        /* \"#utility.yul\":8657:8690   */\n      slt\n        /* \"#utility.yul\":8654:8656   */\n      iszero\n      tag_438\n      jumpi\n        /* \"#utility.yul\":8703:8704   */\n      0x00\n        /* \"#utility.yul\":8700:8701   */\n      dup1\n        /* \"#utility.yul\":8693:8705   */\n      revert\n        /* \"#utility.yul\":8654:8656   */\n    tag_438:\n        /* \"#utility.yul\":8746:8747   */\n      0x00\n        /* \"#utility.yul\":8771:8824   */\n      tag_439\n        /* \"#utility.yul\":8816:8823   */\n      dup10\n        /* \"#utility.yul\":8807:8813   */\n      dup3\n        /* \"#utility.yul\":8796:8805   */\n      dup11\n        /* \"#utility.yul\":8792:8814   */\n      add\n        /* \"#utility.yul\":8771:8824   */\n      tag_345\n      jump\t// in\n    tag_439:\n        /* \"#utility.yul\":8761:8824   */\n      swap7\n      pop\n        /* \"#utility.yul\":8717:8834   */\n      pop\n        /* \"#utility.yul\":8901:8903   */\n      0x20\n        /* \"#utility.yul\":8890:8899   */\n      dup8\n        /* \"#utility.yul\":8886:8904   */\n      add\n        /* \"#utility.yul\":8873:8905   */\n      calldataload\n        /* \"#utility.yul\":8932:8950   */\n      0xffffffffffffffff\n        /* \"#utility.yul\":8924:8930   */\n      dup2\n        /* \"#utility.yul\":8921:8951   */\n      gt\n        /* \"#utility.yul\":8918:8920   */\n      iszero\n      tag_440\n      jumpi\n        /* \"#utility.yul\":8964:8965   */\n      0x00\n        /* \"#utility.yul\":8961:8962   */\n      dup1\n        /* \"#utility.yul\":8954:8966   */\n      revert\n        /* \"#utility.yul\":8918:8920   */\n    tag_440:\n        /* \"#utility.yul\":8992:9055   */\n      tag_441\n        /* \"#utility.yul\":9047:9054   */\n      dup10\n        /* \"#utility.yul\":9038:9044   */\n      dup3\n        /* \"#utility.yul\":9027:9036   */\n      dup11\n        /* \"#utility.yul\":9023:9045   */\n      add\n        /* \"#utility.yul\":8992:9055   */\n      tag_391\n      jump\t// in\n    tag_441:\n        /* \"#utility.yul\":8982:9055   */\n      swap6\n      pop\n        /* \"#utility.yul\":8844:9065   */\n      pop\n        /* \"#utility.yul\":9104:9106   */\n      0x40\n        /* \"#utility.yul\":9130:9183   */\n      tag_442\n        /* \"#utility.yul\":9175:9182   */\n      dup10\n        /* \"#utility.yul\":9166:9172   */\n      dup3\n        /* \"#utility.yul\":9155:9164   */\n      dup11\n        /* \"#utility.yul\":9151:9173   */\n      add\n        /* \"#utility.yul\":9130:9183   */\n      tag_345\n      jump\t// in\n    tag_442:\n        /* \"#utility.yul\":9120:9183   */\n      swap5\n      pop\n        /* \"#utility.yul\":9075:9193   */\n      pop\n        /* \"#utility.yul\":9232:9234   */\n      0x60\n        /* \"#utility.yul\":9258:9311   */\n      tag_443\n        /* \"#utility.yul\":9303:9310   */\n      dup10\n        /* \"#utility.yul\":9294:9300   */\n      dup3\n        /* \"#utility.yul\":9283:9292   */\n      dup11\n        /* \"#utility.yul\":9279:9301   */\n      add\n        /* \"#utility.yul\":9258:9311   */\n      tag_345\n      jump\t// in\n    tag_443:\n        /* \"#utility.yul\":9248:9311   */\n      swap4\n      pop\n        /* \"#utility.yul\":9203:9321   */\n      pop\n        /* \"#utility.yul\":9360:9363   */\n      0x80\n        /* \"#utility.yul\":9387:9440   */\n      tag_444\n        /* \"#utility.yul\":9432:9439   */\n      dup10\n        /* \"#utility.yul\":9423:9429   */\n      dup3\n        /* \"#utility.yul\":9412:9421   */\n      dup11\n        /* \"#utility.yul\":9408:9430   */\n      add\n        /* \"#utility.yul\":9387:9440   */\n      tag_345\n      jump\t// in\n    tag_444:\n        /* \"#utility.yul\":9377:9440   */\n      swap3\n      pop\n        /* \"#utility.yul\":9331:9450   */\n      pop\n        /* \"#utility.yul\":9489:9492   */\n      0xa0\n        /* \"#utility.yul\":9516:9569   */\n      tag_445\n        /* \"#utility.yul\":9561:9568   */\n      dup10\n        /* \"#utility.yul\":9552:9558   */\n      dup3\n        /* \"#utility.yul\":9541:9550   */\n      dup11\n        /* \"#utility.yul\":9537:9559   */\n      add\n        /* \"#utility.yul\":9516:9569   */\n      tag_345\n      jump\t// in\n    tag_445:\n        /* \"#utility.yul\":9506:9569   */\n      swap2\n      pop\n        /* \"#utility.yul\":9460:9579   */\n      pop\n        /* \"#utility.yul\":8644:9586   */\n      swap3\n      swap6\n      pop\n      swap3\n      swap6\n      pop\n      swap3\n      swap6\n      jump\t// out\n        /* \"#utility.yul\":9592:9771   */\n    tag_446:\n      0x00\n        /* \"#utility.yul\":9682:9728   */\n      tag_448\n        /* \"#utility.yul\":9724:9727   */\n      dup4\n        /* \"#utility.yul\":9716:9722   */\n      dup4\n        /* \"#utility.yul\":9682:9728   */\n      tag_449\n      jump\t// in\n    tag_448:\n        /* \"#utility.yul\":9760:9764   */\n      0x20\n        /* \"#utility.yul\":9755:9758   */\n      dup4\n        /* \"#utility.yul\":9751:9765   */\n      add\n        /* \"#utility.yul\":9737:9765   */\n      swap1\n      pop\n        /* \"#utility.yul\":9672:9771   */\n      swap3\n      swap2\n      pop\n      pop\n      jump\t// out\n        /* \"#utility.yul\":9777:9956   */\n    tag_450:\n      0x00\n        /* \"#utility.yul\":9867:9913   */\n      tag_452\n        /* \"#utility.yul\":9909:9912   */\n      dup4\n        /* \"#utility.yul\":9901:9907   */\n      dup4\n        /* \"#utility.yul\":9867:9913   */\n      tag_453\n      jump\t// in\n    tag_452:\n        /* \"#utility.yul\":9945:9949   */\n      0x20\n        /* \"#utility.yul\":9940:9943   */\n      dup4\n        /* \"#utility.yul\":9936:9950   */\n      add\n        /* \"#utility.yul\":9922:9950   */\n      swap1\n      pop\n        /* \"#utility.yul\":9857:9956   */\n      swap3\n      swap2\n      pop\n      pop\n      jump\t// out\n        /* \"#utility.yul\":9962:10070   */\n    tag_449:\n        /* \"#utility.yul\":10039:10063   */\n      tag_455\n        /* \"#utility.yul\":10057:10062   */\n      dup2\n        /* \"#utility.yul\":10039:10063   */\n      tag_456\n      jump\t// in\n    tag_455:\n        /* \"#utility.yul\":10034:10037   */\n      dup3\n        /* \"#utility.yul\":10027:10064   */\n      mstore\n        /* \"#utility.yul\":10017:10070   */\n      pop\n      pop\n      jump\t// out\n        /* \"#utility.yul\":10076:10194   */\n    tag_457:\n        /* \"#utility.yul\":10163:10187   */\n      tag_459\n        /* \"#utility.yul\":10181:10186   */\n      dup2\n        /* \"#utility.yul\":10163:10187   */\n      tag_456\n      jump\t// in\n    tag_459:\n        /* \"#utility.yul\":10158:10161   */\n      dup3\n        /* \"#utility.yul\":10151:10188   */\n      mstore\n        /* \"#utility.yul\":10141:10194   */\n      pop\n      pop\n      jump\t// out\n        /* \"#utility.yul\":10230:10962   */\n    tag_460:\n      0x00\n        /* \"#utility.yul\":10378:10432   */\n      tag_462\n        /* \"#utility.yul\":10426:10431   */\n      dup3\n        /* \"#utility.yul\":10378:10432   */\n      tag_463\n      jump\t// in\n    tag_462:\n        /* \"#utility.yul\":10448:10534   */\n      tag_464\n        /* \"#utility.yul\":10527:10533   */\n      dup2\n        /* \"#utility.yul\":10522:10525   */\n      dup6\n        /* \"#utility.yul\":10448:10534   */\n      tag_465\n      jump\t// in\n    tag_464:\n        /* \"#utility.yul\":10441:10534   */\n      swap4\n      pop\n        /* \"#utility.yul\":10558:10614   */\n      tag_466\n        /* \"#utility.yul\":10608:10613   */\n      dup4\n        /* \"#utility.yul\":10558:10614   */\n      tag_467\n      jump\t// in\n    tag_466:\n        /* \"#utility.yul\":10637:10644   */\n      dup1\n        /* \"#utility.yul\":10668:10669   */\n      0x00\n        /* \"#utility.yul\":10653:10937   */\n    tag_468:\n        /* \"#utility.yul\":10678:10684   */\n      dup4\n        /* \"#utility.yul\":10675:10676   */\n      dup2\n        /* \"#utility.yul\":10672:10685   */\n      lt\n        /* \"#utility.yul\":10653:10937   */\n      iszero\n      tag_470\n      jumpi\n        /* \"#utility.yul\":10754:10760   */\n      dup2\n        /* \"#utility.yul\":10748:10761   */\n      mload\n        /* \"#utility.yul\":10781:10844   */\n      tag_471\n        /* \"#utility.yul\":10840:10843   */\n      dup9\n        /* \"#utility.yul\":10825:10838   */\n      dup3\n        /* \"#utility.yul\":10781:10844   */\n      tag_446\n      jump\t// in\n    tag_471:\n        /* \"#utility.yul\":10774:10844   */\n      swap8\n      pop\n        /* \"#utility.yul\":10867:10927   */\n      tag_472\n        /* \"#utility.yul\":10920:10926   */\n      dup4\n        /* \"#utility.yul\":10867:10927   */\n      tag_473\n      jump\t// in\n    tag_472:\n        /* \"#utility.yul\":10857:10927   */\n      swap3\n      pop\n        /* \"#utility.yul\":10713:10937   */\n      pop\n        /* \"#utility.yul\":10700:10701   */\n      0x01\n        /* \"#utility.yul\":10697:10698   */\n      dup2\n        /* \"#utility.yul\":10693:10702   */\n      add\n        /* \"#utility.yul\":10688:10702   */\n      swap1\n      pop\n        /* \"#utility.yul\":10653:10937   */\n      jump(tag_468)\n    tag_470:\n        /* \"#utility.yul\":10657:10671   */\n      pop\n        /* \"#utility.yul\":10953:10956   */\n      dup6\n        /* \"#utility.yul\":10946:10956   */\n      swap4\n      pop\n        /* \"#utility.yul\":10354:10962   */\n      pop\n      pop\n      pop\n      swap3\n      swap2\n      pop\n      pop\n      jump\t// out\n        /* \"#utility.yul\":10998:11730   */\n    tag_474:\n      0x00\n        /* \"#utility.yul\":11146:11200   */\n      tag_476\n        /* \"#utility.yul\":11194:11199   */\n      dup3\n        /* \"#utility.yul\":11146:11200   */\n      tag_477\n      jump\t// in\n    tag_476:\n        /* \"#utility.yul\":11216:11302   */\n      tag_478\n        /* \"#utility.yul\":11295:11301   */\n      dup2\n        /* \"#utility.yul\":11290:11293   */\n      dup6\n        /* \"#utility.yul\":11216:11302   */\n      tag_479\n      jump\t// in\n    tag_478:\n        /* \"#utility.yul\":11209:11302   */\n      swap4\n      pop\n        /* \"#utility.yul\":11326:11382   */\n      tag_480\n        /* \"#utility.yul\":11376:11381   */\n      dup4\n        /* \"#utility.yul\":11326:11382   */\n      tag_481\n      jump\t// in\n    tag_480:\n        /* \"#utility.yul\":11405:11412   */\n      dup1\n        /* \"#utility.yul\":11436:11437   */\n      0x00\n        /* \"#utility.yul\":11421:11705   */\n    tag_482:\n        /* \"#utility.yul\":11446:11452   */\n      dup4\n        /* \"#utility.yul\":11443:11444   */\n      dup2\n        /* \"#utility.yul\":11440:11453   */\n      lt\n        /* \"#utility.yul\":11421:11705   */\n      iszero\n      tag_484\n      jumpi\n        /* \"#utility.yul\":11522:11528   */\n      dup2\n        /* \"#utility.yul\":11516:11529   */\n      mload\n        /* \"#utility.yul\":11549:11612   */\n      tag_485\n        /* \"#utility.yul\":11608:11611   */\n      dup9\n        /* \"#utility.yul\":11593:11606   */\n      dup3\n        /* \"#utility.yul\":11549:11612   */\n      tag_450\n      jump\t// in\n    tag_485:\n        /* \"#utility.yul\":11542:11612   */\n      swap8\n      pop\n        /* \"#utility.yul\":11635:11695   */\n      tag_486\n        /* \"#utility.yul\":11688:11694   */\n      dup4\n        /* \"#utility.yul\":11635:11695   */\n      tag_487\n      jump\t// in\n    tag_486:\n        /* \"#utility.yul\":11625:11695   */\n      swap3\n      pop\n        /* \"#utility.yul\":11481:11705   */\n      pop\n        /* \"#utility.yul\":11468:11469   */\n      0x01\n        /* \"#utility.yul\":11465:11466   */\n      dup2\n        /* \"#utility.yul\":11461:11470   */\n      add\n        /* \"#utility.yul\":11456:11470   */\n      swap1\n      pop\n        /* \"#utility.yul\":11421:11705   */\n      jump(tag_482)\n    tag_484:\n        /* \"#utility.yul\":11425:11439   */\n      pop\n        /* \"#utility.yul\":11721:11724   */\n      dup6\n        /* \"#utility.yul\":11714:11724   */\n      swap4\n      pop\n        /* \"#utility.yul\":11122:11730   */\n      pop\n      pop\n      pop\n      swap3\n      swap2\n      pop\n      pop\n      jump\t// out\n        /* \"#utility.yul\":11736:11845   */\n    tag_488:\n        /* \"#utility.yul\":11817:11838   */\n      tag_490\n        /* \"#utility.yul\":11832:11837   */\n      dup2\n        /* \"#utility.yul\":11817:11838   */\n      tag_491\n      jump\t// in\n    tag_490:\n        /* \"#utility.yul\":11812:11815   */\n      dup3\n        /* \"#utility.yul\":11805:11839   */\n      mstore\n        /* \"#utility.yul\":11795:11845   */\n      pop\n      pop\n      jump\t// out\n        /* \"#utility.yul\":11851:12211   */\n    tag_492:\n      0x00\n        /* \"#utility.yul\":11965:12003   */\n      tag_494\n        /* \"#utility.yul\":11997:12002   */\n      dup3\n        /* \"#utility.yul\":11965:12003   */\n      tag_495\n      jump\t// in\n    tag_494:\n        /* \"#utility.yul\":12019:12089   */\n      tag_496\n        /* \"#utility.yul\":12082:12088   */\n      dup2\n        /* \"#utility.yul\":12077:12080   */\n      dup6\n        /* \"#utility.yul\":12019:12089   */\n      tag_497\n      jump\t// in\n    tag_496:\n        /* \"#utility.yul\":12012:12089   */\n      swap4\n      pop\n        /* \"#utility.yul\":12098:12150   */\n      tag_498\n        /* \"#utility.yul\":12143:12149   */\n      dup2\n        /* \"#utility.yul\":12138:12141   */\n      dup6\n        /* \"#utility.yul\":12131:12135   */\n      0x20\n        /* \"#utility.yul\":12124:12129   */\n      dup7\n        /* \"#utility.yul\":12120:12136   */\n      add\n        /* \"#utility.yul\":12098:12150   */\n      tag_499\n      jump\t// in\n    tag_498:\n        /* \"#utility.yul\":12175:12204   */\n      tag_500\n        /* \"#utility.yul\":12197:12203   */\n      dup2\n        /* \"#utility.yul\":12175:12204   */\n      tag_501\n      jump\t// in\n    tag_500:\n        /* \"#utility.yul\":12170:12173   */\n      dup5\n        /* \"#utility.yul\":12166:12205   */\n      add\n        /* \"#utility.yul\":12159:12205   */\n      swap2\n      pop\n        /* \"#utility.yul\":11941:12211   */\n      pop\n      swap3\n      swap2\n      pop\n      pop\n      jump\t// out\n        /* \"#utility.yul\":12217:12590   */\n    tag_502:\n      0x00\n        /* \"#utility.yul\":12349:12387   */\n      tag_504\n        /* \"#utility.yul\":12381:12386   */\n      dup3\n        /* \"#utility.yul\":12349:12387   */\n      tag_495\n      jump\t// in\n    tag_504:\n        /* \"#utility.yul\":12403:12491   */\n      tag_505\n        /* \"#utility.yul\":12484:12490   */\n      dup2\n        /* \"#utility.yul\":12479:12482   */\n      dup6\n        /* \"#utility.yul\":12403:12491   */\n      tag_506\n      jump\t// in\n    tag_505:\n        /* \"#utility.yul\":12396:12491   */\n      swap4\n      pop\n        /* \"#utility.yul\":12500:12552   */\n      tag_507\n        /* \"#utility.yul\":12545:12551   */\n      dup2\n        /* \"#utility.yul\":12540:12543   */\n      dup6\n        /* \"#utility.yul\":12533:12537   */\n      0x20\n        /* \"#utility.yul\":12526:12531   */\n      dup7\n        /* \"#utility.yul\":12522:12538   */\n      add\n        /* \"#utility.yul\":12500:12552   */\n      tag_499\n      jump\t// in\n    tag_507:\n        /* \"#utility.yul\":12577:12583   */\n      dup1\n        /* \"#utility.yul\":12572:12575   */\n      dup5\n        /* \"#utility.yul\":12568:12584   */\n      add\n        /* \"#utility.yul\":12561:12584   */\n      swap2\n      pop\n        /* \"#utility.yul\":12325:12590   */\n      pop\n      swap3\n      swap2\n      pop\n      pop\n      jump\t// out\n        /* \"#utility.yul\":12596:12960   */\n    tag_508:\n      0x00\n        /* \"#utility.yul\":12712:12751   */\n      tag_510\n        /* \"#utility.yul\":12745:12750   */\n      dup3\n        /* \"#utility.yul\":12712:12751   */\n      tag_511\n      jump\t// in\n    tag_510:\n        /* \"#utility.yul\":12767:12838   */\n      tag_512\n        /* \"#utility.yul\":12831:12837   */\n      dup2\n        /* \"#utility.yul\":12826:12829   */\n      dup6\n        /* \"#utility.yul\":12767:12838   */\n      tag_513\n      jump\t// in\n    tag_512:\n        /* \"#utility.yul\":12760:12838   */\n      swap4\n      pop\n        /* \"#utility.yul\":12847:12899   */\n      tag_514\n        /* \"#utility.yul\":12892:12898   */\n      dup2\n        /* \"#utility.yul\":12887:12890   */\n      dup6\n        /* \"#utility.yul\":12880:12884   */\n      0x20\n        /* \"#utility.yul\":12873:12878   */\n      dup7\n        /* \"#utility.yul\":12869:12885   */\n      add\n        /* \"#utility.yul\":12847:12899   */\n      tag_499\n      jump\t// in\n    tag_514:\n        /* \"#utility.yul\":12924:12953   */\n      tag_515\n        /* \"#utility.yul\":12946:12952   */\n      dup2\n        /* \"#utility.yul\":12924:12953   */\n      tag_501\n      jump\t// in\n    tag_515:\n        /* \"#utility.yul\":12919:12922   */\n      dup5\n        /* \"#utility.yul\":12915:12954   */\n      add\n        /* \"#utility.yul\":12908:12954   */\n      swap2\n      pop\n        /* \"#utility.yul\":12688:12960   */\n      pop\n      swap3\n      swap2\n      pop\n      pop\n      jump\t// out\n        /* \"#utility.yul\":12990:13792   */\n    tag_516:\n      0x00\n        /* \"#utility.yul\":13112:13117   */\n      dup2\n        /* \"#utility.yul\":13106:13118   */\n      sload\n        /* \"#utility.yul\":13141:13177   */\n      tag_518\n        /* \"#utility.yul\":13167:13176   */\n      dup2\n        /* \"#utility.yul\":13141:13177   */\n      tag_278\n      jump\t// in\n    tag_518:\n        /* \"#utility.yul\":13193:13264   */\n      tag_519\n        /* \"#utility.yul\":13257:13263   */\n      dup2\n        /* \"#utility.yul\":13252:13255   */\n      dup7\n        /* \"#utility.yul\":13193:13264   */\n      tag_513\n      jump\t// in\n    tag_519:\n        /* \"#utility.yul\":13186:13264   */\n      swap5\n      pop\n        /* \"#utility.yul\":13295:13296   */\n      0x01\n        /* \"#utility.yul\":13284:13293   */\n      dup3\n        /* \"#utility.yul\":13280:13297   */\n      and\n        /* \"#utility.yul\":13311:13312   */\n      0x00\n        /* \"#utility.yul\":13306:13441   */\n      dup2\n      eq\n      tag_521\n      jumpi\n        /* \"#utility.yul\":13455:13456   */\n      0x01\n        /* \"#utility.yul\":13450:13786   */\n      dup2\n      eq\n      tag_522\n      jumpi\n        /* \"#utility.yul\":13273:13786   */\n      jump(tag_520)\n        /* \"#utility.yul\":13306:13441   */\n    tag_521:\n        /* \"#utility.yul\":13390:13394   */\n      0xff\n        /* \"#utility.yul\":13386:13395   */\n      not\n        /* \"#utility.yul\":13375:13384   */\n      dup4\n        /* \"#utility.yul\":13371:13396   */\n      and\n        /* \"#utility.yul\":13366:13369   */\n      dup7\n        /* \"#utility.yul\":13359:13397   */\n      mstore\n        /* \"#utility.yul\":13426:13430   */\n      0x20\n        /* \"#utility.yul\":13421:13424   */\n      dup7\n        /* \"#utility.yul\":13417:13431   */\n      add\n        /* \"#utility.yul\":13410:13431   */\n      swap4\n      pop\n        /* \"#utility.yul\":13306:13441   */\n      jump(tag_520)\n        /* \"#utility.yul\":13450:13786   */\n    tag_522:\n        /* \"#utility.yul\":13517:13555   */\n      tag_523\n        /* \"#utility.yul\":13549:13554   */\n      dup6\n        /* \"#utility.yul\":13517:13555   */\n      tag_524\n      jump\t// in\n    tag_523:\n        /* \"#utility.yul\":13577:13578   */\n      0x00\n        /* \"#utility.yul\":13591:13745   */\n    tag_525:\n        /* \"#utility.yul\":13605:13611   */\n      dup4\n        /* \"#utility.yul\":13602:13603   */\n      dup2\n        /* \"#utility.yul\":13599:13612   */\n      lt\n        /* \"#utility.yul\":13591:13745   */\n      iszero\n      tag_527\n      jumpi\n        /* \"#utility.yul\":13679:13686   */\n      dup2\n        /* \"#utility.yul\":13673:13687   */\n      sload\n        /* \"#utility.yul\":13669:13670   */\n      dup2\n        /* \"#utility.yul\":13664:13667   */\n      dup10\n        /* \"#utility.yul\":13660:13671   */\n      add\n        /* \"#utility.yul\":13653:13688   */\n      mstore\n        /* \"#utility.yul\":13729:13730   */\n      0x01\n        /* \"#utility.yul\":13720:13727   */\n      dup3\n        /* \"#utility.yul\":13716:13731   */\n      add\n        /* \"#utility.yul\":13705:13731   */\n      swap2\n      pop\n        /* \"#utility.yul\":13627:13631   */\n      0x20\n        /* \"#utility.yul\":13624:13625   */\n      dup2\n        /* \"#utility.yul\":13620:13632   */\n      add\n        /* \"#utility.yul\":13615:13632   */\n      swap1\n      pop\n        /* \"#utility.yul\":13591:13745   */\n      jump(tag_525)\n    tag_527:\n        /* \"#utility.yul\":13774:13775   */\n      dup1\n        /* \"#utility.yul\":13769:13772   */\n      dup9\n        /* \"#utility.yul\":13765:13776   */\n      add\n        /* \"#utility.yul\":13758:13776   */\n      swap6\n      pop\n        /* \"#utility.yul\":13457:13786   */\n      pop\n      pop\n        /* \"#utility.yul\":13273:13786   */\n    tag_520:\n      pop\n        /* \"#utility.yul\":13079:13792   */\n      pop\n      pop\n      swap3\n      swap2\n      pop\n      pop\n      jump\t// out\n        /* \"#utility.yul\":13798:14128   */\n    tag_528:\n      0x00\n        /* \"#utility.yul\":13961:14028   */\n      tag_530\n        /* \"#utility.yul\":14025:14027   */\n      0x20\n        /* \"#utility.yul\":14020:14023   */\n      dup4\n        /* \"#utility.yul\":13961:14028   */\n      tag_513\n      jump\t// in\n    tag_530:\n        /* \"#utility.yul\":13954:14028   */\n      swap2\n      pop\n        /* \"#utility.yul\":14058:14092   */\n      0x6973737565203a3a20496e636f7272656374207265736572766520726174696f\n        /* \"#utility.yul\":14054:14055   */\n      0x00\n        /* \"#utility.yul\":14049:14052   */\n      dup4\n        /* \"#utility.yul\":14045:14056   */\n      add\n        /* \"#utility.yul\":14038:14093   */\n      mstore\n        /* \"#utility.yul\":14119:14121   */\n      0x20\n        /* \"#utility.yul\":14114:14117   */\n      dup3\n        /* \"#utility.yul\":14110:14122   */\n      add\n        /* \"#utility.yul\":14103:14122   */\n      swap1\n      pop\n        /* \"#utility.yul\":13944:14128   */\n      swap2\n      swap1\n      pop\n      jump\t// out\n        /* \"#utility.yul\":14134:14512   */\n    tag_531:\n      0x00\n        /* \"#utility.yul\":14297:14364   */\n      tag_533\n        /* \"#utility.yul\":14361:14363   */\n      0x2e\n        /* \"#utility.yul\":14356:14359   */\n      dup4\n        /* \"#utility.yul\":14297:14364   */\n      tag_513\n      jump\t// in\n    tag_533:\n        /* \"#utility.yul\":14290:14364   */\n      swap2\n      pop\n        /* \"#utility.yul\":14394:14428   */\n      0x63757261746f724465706f736974203a3a204f6e6c792063757261746f722063\n        /* \"#utility.yul\":14390:14391   */\n      0x00\n        /* \"#utility.yul\":14385:14388   */\n      dup4\n        /* \"#utility.yul\":14381:14392   */\n      add\n        /* \"#utility.yul\":14374:14429   */\n      mstore\n        /* \"#utility.yul\":14460:14476   */\n      0x616e206465706f736974204e4654000000000000000000000000000000000000\n        /* \"#utility.yul\":14455:14457   */\n      0x20\n        /* \"#utility.yul\":14450:14453   */\n      dup4\n        /* \"#utility.yul\":14446:14458   */\n      add\n        /* \"#utility.yul\":14439:14477   */\n      mstore\n        /* \"#utility.yul\":14503:14505   */\n      0x40\n        /* \"#utility.yul\":14498:14501   */\n      dup3\n        /* \"#utility.yul\":14494:14506   */\n      add\n        /* \"#utility.yul\":14487:14506   */\n      swap1\n      pop\n        /* \"#utility.yul\":14280:14512   */\n      swap2\n      swap1\n      pop\n      jump\t// out\n        /* \"#utility.yul\":14518:14890   */\n    tag_534:\n      0x00\n        /* \"#utility.yul\":14681:14748   */\n      tag_536\n        /* \"#utility.yul\":14745:14747   */\n      0x28\n        /* \"#utility.yul\":14740:14743   */\n      dup4\n        /* \"#utility.yul\":14681:14748   */\n      tag_513\n      jump\t// in\n    tag_536:\n        /* \"#utility.yul\":14674:14748   */\n      swap2\n      pop\n        /* \"#utility.yul\":14778:14812   */\n      0x636c61696d203a3a2063616e6e6f7420636c61696d2061667465722061756374\n        /* \"#utility.yul\":14774:14775   */\n      0x00\n        /* \"#utility.yul\":14769:14772   */\n      dup4\n        /* \"#utility.yul\":14765:14776   */\n      add\n        /* \"#utility.yul\":14758:14813   */\n      mstore\n        /* \"#utility.yul\":14844:14854   */\n      0x696f6e20656e6473000000000000000000000000000000000000000000000000\n        /* \"#utility.yul\":14839:14841   */\n      0x20\n        /* \"#utility.yul\":14834:14837   */\n      dup4\n        /* \"#utility.yul\":14830:14842   */\n      add\n        /* \"#utility.yul\":14823:14855   */\n      mstore\n        /* \"#utility.yul\":14881:14883   */\n      0x40\n        /* \"#utility.yul\":14876:14879   */\n      dup3\n        /* \"#utility.yul\":14872:14884   */\n      add\n        /* \"#utility.yul\":14865:14884   */\n      swap1\n      pop\n        /* \"#utility.yul\":14664:14890   */\n      swap2\n      swap1\n      pop\n      jump\t// out\n        /* \"#utility.yul\":14896:15226   */\n    tag_537:\n      0x00\n        /* \"#utility.yul\":15059:15126   */\n      tag_539\n        /* \"#utility.yul\":15123:15125   */\n      0x20\n        /* \"#utility.yul\":15118:15121   */\n      dup4\n        /* \"#utility.yul\":15059:15126   */\n      tag_513\n      jump\t// in\n    tag_539:\n        /* \"#utility.yul\":15052:15126   */\n      swap2\n      pop\n        /* \"#utility.yul\":15156:15190   */\n      0x6973737565203a3a20546f6b656e20697320616c726561647920616374697665\n        /* \"#utility.yul\":15152:15153   */\n      0x00\n        /* \"#utility.yul\":15147:15150   */\n      dup4\n        /* \"#utility.yul\":15143:15154   */\n      add\n        /* \"#utility.yul\":15136:15191   */\n      mstore\n        /* \"#utility.yul\":15217:15219   */\n      0x20\n        /* \"#utility.yul\":15212:15215   */\n      dup3\n        /* \"#utility.yul\":15208:15220   */\n      add\n        /* \"#utility.yul\":15201:15220   */\n      swap1\n      pop\n        /* \"#utility.yul\":15042:15226   */\n      swap2\n      swap1\n      pop\n      jump\t// out\n        /* \"#utility.yul\":15232:15598   */\n    tag_540:\n      0x00\n        /* \"#utility.yul\":15395:15462   */\n      tag_542\n        /* \"#utility.yul\":15459:15461   */\n      0x22\n        /* \"#utility.yul\":15454:15457   */\n      dup4\n        /* \"#utility.yul\":15395:15462   */\n      tag_513\n      jump\t// in\n    tag_542:\n        /* \"#utility.yul\":15388:15462   */\n      swap2\n      pop\n        /* \"#utility.yul\":15492:15526   */\n      0x757064617465526f75746572203a3a20496e636f72726563742074656d706c61\n        /* \"#utility.yul\":15488:15489   */\n      0x00\n        /* \"#utility.yul\":15483:15486   */\n      dup4\n        /* \"#utility.yul\":15479:15490   */\n      add\n        /* \"#utility.yul\":15472:15527   */\n      mstore\n        /* \"#utility.yul\":15558:15562   */\n      0x7465000000000000000000000000000000000000000000000000000000000000\n        /* \"#utility.yul\":15553:15555   */\n      0x20\n        /* \"#utility.yul\":15548:15551   */\n      dup4\n        /* \"#utility.yul\":15544:15556   */\n      add\n        /* \"#utility.yul\":15537:15563   */\n      mstore\n        /* \"#utility.yul\":15589:15591   */\n      0x40\n        /* \"#utility.yul\":15584:15587   */\n      dup3\n        /* \"#utility.yul\":15580:15592   */\n      add\n        /* \"#utility.yul\":15573:15592   */\n      swap1\n      pop\n        /* \"#utility.yul\":15378:15598   */\n      swap2\n      swap1\n      pop\n      jump\t// out\n        /* \"#utility.yul\":15604:15969   */\n    tag_543:\n      0x00\n        /* \"#utility.yul\":15767:15834   */\n      tag_545\n        /* \"#utility.yul\":15831:15833   */\n      0x21\n        /* \"#utility.yul\":15826:15829   */\n      dup4\n        /* \"#utility.yul\":15767:15834   */\n      tag_513\n      jump\t// in\n    tag_545:\n        /* \"#utility.yul\":15760:15834   */\n      swap2\n      pop\n        /* \"#utility.yul\":15864:15898   */\n      0x636c61696d203a3a20546f6b656e206e6f7420616c7265616479206163746976\n        /* \"#utility.yul\":15860:15861   */\n      0x00\n        /* \"#utility.yul\":15855:15858   */\n      dup4\n        /* \"#utility.yul\":15851:15862   */\n      add\n        /* \"#utility.yul\":15844:15899   */\n      mstore\n        /* \"#utility.yul\":15930:15933   */\n      0x6500000000000000000000000000000000000000000000000000000000000000\n        /* \"#utility.yul\":15925:15927   */\n      0x20\n        /* \"#utility.yul\":15920:15923   */\n      dup4\n        /* \"#utility.yul\":15916:15928   */\n      add\n        /* \"#utility.yul\":15909:15934   */\n      mstore\n        /* \"#utility.yul\":15960:15962   */\n      0x40\n        /* \"#utility.yul\":15955:15958   */\n      dup3\n        /* \"#utility.yul\":15951:15963   */\n      add\n        /* \"#utility.yul\":15944:15963   */\n      swap1\n      pop\n        /* \"#utility.yul\":15750:15969   */\n      swap2\n      swap1\n      pop\n      jump\t// out\n        /* \"#utility.yul\":15975:16348   */\n    tag_546:\n      0x00\n        /* \"#utility.yul\":16138:16205   */\n      tag_548\n        /* \"#utility.yul\":16202:16204   */\n      0x29\n        /* \"#utility.yul\":16197:16200   */\n      dup4\n        /* \"#utility.yul\":16138:16205   */\n      tag_513\n      jump\t// in\n    tag_548:\n        /* \"#utility.yul\":16131:16205   */\n      swap2\n      pop\n        /* \"#utility.yul\":16235:16269   */\n      0x63757261746f724465706f736974203a3a20546f6b656e20697320616c726561\n        /* \"#utility.yul\":16231:16232   */\n      0x00\n        /* \"#utility.yul\":16226:16229   */\n      dup4\n        /* \"#utility.yul\":16222:16233   */\n      add\n        /* \"#utility.yul\":16215:16270   */\n      mstore\n        /* \"#utility.yul\":16301:16312   */\n      0x6479206163746976650000000000000000000000000000000000000000000000\n        /* \"#utility.yul\":16296:16298   */\n      0x20\n        /* \"#utility.yul\":16291:16294   */\n      dup4\n        /* \"#utility.yul\":16287:16299   */\n      add\n        /* \"#utility.yul\":16280:16313   */\n      mstore\n        /* \"#utility.yul\":16339:16341   */\n      0x40\n        /* \"#utility.yul\":16334:16337   */\n      dup3\n        /* \"#utility.yul\":16330:16342   */\n      add\n        /* \"#utility.yul\":16323:16342   */\n      swap1\n      pop\n        /* \"#utility.yul\":16121:16348   */\n      swap2\n      swap1\n      pop\n      jump\t// out\n        /* \"#utility.yul\":16354:16679   */\n    tag_549:\n      0x00\n        /* \"#utility.yul\":16517:16584   */\n      tag_551\n        /* \"#utility.yul\":16581:16583   */\n      0x1b\n        /* \"#utility.yul\":16576:16579   */\n      dup4\n        /* \"#utility.yul\":16517:16584   */\n      tag_513\n      jump\t// in\n    tag_551:\n        /* \"#utility.yul\":16510:16584   */\n      swap2\n      pop\n        /* \"#utility.yul\":16614:16643   */\n      0x7365744d696e696d756d5175616e746974792875696e74323536290000000000\n        /* \"#utility.yul\":16610:16611   */\n      0x00\n        /* \"#utility.yul\":16605:16608   */\n      dup4\n        /* \"#utility.yul\":16601:16612   */\n      add\n        /* \"#utility.yul\":16594:16644   */\n      mstore\n        /* \"#utility.yul\":16670:16672   */\n      0x20\n        /* \"#utility.yul\":16665:16668   */\n      dup3\n        /* \"#utility.yul\":16661:16673   */\n      add\n        /* \"#utility.yul\":16654:16673   */\n      swap1\n      pop\n        /* \"#utility.yul\":16500:16679   */\n      swap2\n      swap1\n      pop\n      jump\t// out\n        /* \"#utility.yul\":16685:17062   */\n    tag_552:\n      0x00\n        /* \"#utility.yul\":16848:16915   */\n      tag_554\n        /* \"#utility.yul\":16912:16914   */\n      0x2d\n        /* \"#utility.yul\":16907:16910   */\n      dup4\n        /* \"#utility.yul\":16848:16915   */\n      tag_513\n      jump\t// in\n    tag_554:\n        /* \"#utility.yul\":16841:16915   */\n      swap2\n      pop\n        /* \"#utility.yul\":16945:16979   */\n      0x6973737565203a3a2054686520737570706c79206d7573742062652067726561\n        /* \"#utility.yul\":16941:16942   */\n      0x00\n        /* \"#utility.yul\":16936:16939   */\n      dup4\n        /* \"#utility.yul\":16932:16943   */\n      add\n        /* \"#utility.yul\":16925:16980   */\n      mstore\n        /* \"#utility.yul\":17011:17026   */\n      0x746572207468616e203130303000000000000000000000000000000000000000\n        /* \"#utility.yul\":17006:17008   */\n      0x20\n        /* \"#utility.yul\":17001:17004   */\n      dup4\n        /* \"#utility.yul\":16997:17009   */\n      add\n        /* \"#utility.yul\":16990:17027   */\n      mstore\n        /* \"#utility.yul\":17053:17055   */\n      0x40\n        /* \"#utility.yul\":17048:17051   */\n      dup3\n        /* \"#utility.yul\":17044:17056   */\n      add\n        /* \"#utility.yul\":17037:17056   */\n      swap1\n      pop\n        /* \"#utility.yul\":16831:17062   */\n      swap2\n      swap1\n      pop\n      jump\t// out\n        /* \"#utility.yul\":17068:17398   */\n    tag_555:\n      0x00\n        /* \"#utility.yul\":17231:17298   */\n      tag_557\n        /* \"#utility.yul\":17295:17297   */\n      0x20\n        /* \"#utility.yul\":17290:17293   */\n      dup4\n        /* \"#utility.yul\":17231:17298   */\n      tag_513\n      jump\t// in\n    tag_557:\n        /* \"#utility.yul\":17224:17298   */\n      swap2\n      pop\n        /* \"#utility.yul\":17328:17362   */\n      0x77686974654c697374203a3a204164647265737320636865636b206572726f72\n        /* \"#utility.yul\":17324:17325   */\n      0x00\n        /* \"#utility.yul\":17319:17322   */\n      dup4\n        /* \"#utility.yul\":17315:17326   */\n      add\n        /* \"#utility.yul\":17308:17363   */\n      mstore\n        /* \"#utility.yul\":17389:17391   */\n      0x20\n        /* \"#utility.yul\":17384:17387   */\n      dup3\n        /* \"#utility.yul\":17380:17392   */\n      add\n        /* \"#utility.yul\":17373:17392   */\n      swap1\n      pop\n        /* \"#utility.yul\":17214:17398   */\n      swap2\n      swap1\n      pop\n      jump\t// out\n        /* \"#utility.yul\":17404:17720   */\n    tag_558:\n      0x00\n        /* \"#utility.yul\":17567:17634   */\n      tag_560\n        /* \"#utility.yul\":17631:17633   */\n      0x12\n        /* \"#utility.yul\":17626:17629   */\n      dup4\n        /* \"#utility.yul\":17567:17634   */\n      tag_513\n      jump\t// in\n    tag_560:\n        /* \"#utility.yul\":17560:17634   */\n      swap2\n      pop\n        /* \"#utility.yul\":17664:17684   */\n      0x7365744d696e696d756d5175616e746974790000000000000000000000000000\n        /* \"#utility.yul\":17660:17661   */\n      0x00\n        /* \"#utility.yul\":17655:17658   */\n      dup4\n        /* \"#utility.yul\":17651:17662   */\n      add\n        /* \"#utility.yul\":17644:17685   */\n      mstore\n        /* \"#utility.yul\":17711:17713   */\n      0x20\n        /* \"#utility.yul\":17706:17709   */\n      dup3\n        /* \"#utility.yul\":17702:17714   */\n      add\n        /* \"#utility.yul\":17695:17714   */\n      swap1\n      pop\n        /* \"#utility.yul\":17550:17720   */\n      swap2\n      swap1\n      pop\n      jump\t// out\n        /* \"#utility.yul\":17726:18091   */\n    tag_561:\n      0x00\n        /* \"#utility.yul\":17889:17956   */\n      tag_563\n        /* \"#utility.yul\":17953:17955   */\n      0x21\n        /* \"#utility.yul\":17948:17951   */\n      dup4\n        /* \"#utility.yul\":17889:17956   */\n      tag_513\n      jump\t// in\n    tag_563:\n        /* \"#utility.yul\":17882:17956   */\n      swap2\n      pop\n        /* \"#utility.yul\":17986:18020   */\n      0x696e697469616c697a65203a3a20416c726561647920696e697469616c697a65\n        /* \"#utility.yul\":17982:17983   */\n      0x00\n        /* \"#utility.yul\":17977:17980   */\n      dup4\n        /* \"#utility.yul\":17973:17984   */\n      add\n        /* \"#utility.yul\":17966:18021   */\n      mstore\n        /* \"#utility.yul\":18052:18055   */\n      0x6400000000000000000000000000000000000000000000000000000000000000\n        /* \"#utility.yul\":18047:18049   */\n      0x20\n        /* \"#utility.yul\":18042:18045   */\n      dup4\n        /* \"#utility.yul\":18038:18050   */\n      add\n        /* \"#utility.yul\":18031:18056   */\n      mstore\n        /* \"#utility.yul\":18082:18084   */\n      0x40\n        /* \"#utility.yul\":18077:18080   */\n      dup3\n        /* \"#utility.yul\":18073:18085   */\n      add\n        /* \"#utility.yul\":18066:18085   */\n      swap1\n      pop\n        /* \"#utility.yul\":17872:18091   */\n      swap2\n      swap1\n      pop\n      jump\t// out\n        /* \"#utility.yul\":18097:18471   */\n    tag_564:\n      0x00\n        /* \"#utility.yul\":18260:18327   */\n      tag_566\n        /* \"#utility.yul\":18324:18326   */\n      0x2a\n        /* \"#utility.yul\":18319:18322   */\n      dup4\n        /* \"#utility.yul\":18260:18327   */\n      tag_513\n      jump\t// in\n    tag_566:\n        /* \"#utility.yul\":18253:18327   */\n      swap2\n      pop\n        /* \"#utility.yul\":18357:18391   */\n      0x6973737565203a3a204f6e6c792063757261746f722063616e20697373756520\n        /* \"#utility.yul\":18353:18354   */\n      0x00\n        /* \"#utility.yul\":18348:18351   */\n      dup4\n        /* \"#utility.yul\":18344:18355   */\n      add\n        /* \"#utility.yul\":18337:18392   */\n      mstore\n        /* \"#utility.yul\":18423:18435   */\n      0x74686520746f6b656e7300000000000000000000000000000000000000000000\n        /* \"#utility.yul\":18418:18420   */\n      0x20\n        /* \"#utility.yul\":18413:18416   */\n      dup4\n        /* \"#utility.yul\":18409:18421   */\n      add\n        /* \"#utility.yul\":18402:18436   */\n      mstore\n        /* \"#utility.yul\":18462:18464   */\n      0x40\n        /* \"#utility.yul\":18457:18460   */\n      dup3\n        /* \"#utility.yul\":18453:18465   */\n      add\n        /* \"#utility.yul\":18446:18465   */\n      swap1\n      pop\n        /* \"#utility.yul\":18243:18471   */\n      swap2\n      swap1\n      pop\n      jump\t// out\n        /* \"#utility.yul\":18477:18803   */\n    tag_567:\n      0x00\n        /* \"#utility.yul\":18640:18707   */\n      tag_569\n        /* \"#utility.yul\":18704:18706   */\n      0x1c\n        /* \"#utility.yul\":18699:18702   */\n      dup4\n        /* \"#utility.yul\":18640:18707   */\n      tag_513\n      jump\t// in\n    tag_569:\n        /* \"#utility.yul\":18633:18707   */\n      swap2\n      pop\n        /* \"#utility.yul\":18737:18767   */\n      0x6973737565203a3a204974277320616e20656d707479207661756c7400000000\n        /* \"#utility.yul\":18733:18734   */\n      0x00\n        /* \"#utility.yul\":18728:18731   */\n      dup4\n        /* \"#utility.yul\":18724:18735   */\n      add\n        /* \"#utility.yul\":18717:18768   */\n      mstore\n        /* \"#utility.yul\":18794:18796   */\n      0x20\n        /* \"#utility.yul\":18789:18792   */\n      dup3\n        /* \"#utility.yul\":18785:18797   */\n      add\n        /* \"#utility.yul\":18778:18797   */\n      swap1\n      pop\n        /* \"#utility.yul\":18623:18803   */\n      swap2\n      swap1\n      pop\n      jump\t// out\n        /* \"#utility.yul\":18809:18924   */\n    tag_570:\n        /* \"#utility.yul\":18894:18917   */\n      tag_572\n        /* \"#utility.yul\":18911:18916   */\n      dup2\n        /* \"#utility.yul\":18894:18917   */\n      tag_573\n      jump\t// in\n    tag_572:\n        /* \"#utility.yul\":18889:18892   */\n      dup3\n        /* \"#utility.yul\":18882:18918   */\n      mstore\n        /* \"#utility.yul\":18872:18924   */\n      pop\n      pop\n      jump\t// out\n        /* \"#utility.yul\":18930:19038   */\n    tag_453:\n        /* \"#utility.yul\":19007:19031   */\n      tag_575\n        /* \"#utility.yul\":19025:19030   */\n      dup2\n        /* \"#utility.yul\":19007:19031   */\n      tag_576\n      jump\t// in\n    tag_575:\n        /* \"#utility.yul\":19002:19005   */\n      dup3\n        /* \"#utility.yul\":18995:19032   */\n      mstore\n        /* \"#utility.yul\":18985:19038   */\n      pop\n      pop\n      jump\t// out\n        /* \"#utility.yul\":19044:19162   */\n    tag_577:\n        /* \"#utility.yul\":19131:19155   */\n      tag_579\n        /* \"#utility.yul\":19149:19154   */\n      dup2\n        /* \"#utility.yul\":19131:19155   */\n      tag_576\n      jump\t// in\n    tag_579:\n        /* \"#utility.yul\":19126:19129   */\n      dup3\n        /* \"#utility.yul\":19119:19156   */\n      mstore\n        /* \"#utility.yul\":19109:19162   */\n      pop\n      pop\n      jump\t// out\n        /* \"#utility.yul\":19168:19439   */\n    tag_220:\n      0x00\n        /* \"#utility.yul\":19320:19413   */\n      tag_581\n        /* \"#utility.yul\":19409:19412   */\n      dup3\n        /* \"#utility.yul\":19400:19406   */\n      dup5\n        /* \"#utility.yul\":19320:19413   */\n      tag_502\n      jump\t// in\n    tag_581:\n        /* \"#utility.yul\":19313:19413   */\n      swap2\n      pop\n        /* \"#utility.yul\":19430:19433   */\n      dup2\n        /* \"#utility.yul\":19423:19433   */\n      swap1\n      pop\n        /* \"#utility.yul\":19302:19439   */\n      swap3\n      swap2\n      pop\n      pop\n      jump\t// out\n        /* \"#utility.yul\":19445:19667   */\n    tag_49:\n      0x00\n        /* \"#utility.yul\":19576:19578   */\n      0x20\n        /* \"#utility.yul\":19565:19574   */\n      dup3\n        /* \"#utility.yul\":19561:19579   */\n      add\n        /* \"#utility.yul\":19553:19579   */\n      swap1\n      pop\n        /* \"#utility.yul\":19589:19660   */\n      tag_583\n        /* \"#utility.yul\":19657:19658   */\n      0x00\n        /* \"#utility.yul\":19646:19655   */\n      dup4\n        /* \"#utility.yul\":19642:19659   */\n      add\n        /* \"#utility.yul\":19633:19639   */\n      dup5\n        /* \"#utility.yul\":19589:19660   */\n      tag_457\n      jump\t// in\n    tag_583:\n        /* \"#utility.yul\":19543:19667   */\n      swap3\n      swap2\n      pop\n      pop\n      jump\t// out\n        /* \"#utility.yul\":19673:20005   */\n    tag_160:\n      0x00\n        /* \"#utility.yul\":19832:19834   */\n      0x40\n        /* \"#utility.yul\":19821:19830   */\n      dup3\n        /* \"#utility.yul\":19817:19835   */\n      add\n        /* \"#utility.yul\":19809:19835   */\n      swap1\n      pop\n        /* \"#utility.yul\":19845:19916   */\n      tag_585\n        /* \"#utility.yul\":19913:19914   */\n      0x00\n        /* \"#utility.yul\":19902:19911   */\n      dup4\n        /* \"#utility.yul\":19898:19915   */\n      add\n        /* \"#utility.yul\":19889:19895   */\n      dup6\n        /* \"#utility.yul\":19845:19916   */\n      tag_457\n      jump\t// in\n    tag_585:\n        /* \"#utility.yul\":19926:19998   */\n      tag_586\n        /* \"#utility.yul\":19994:19996   */\n      0x20\n        /* \"#utility.yul\":19983:19992   */\n      dup4\n        /* \"#utility.yul\":19979:19997   */\n      add\n        /* \"#utility.yul\":19970:19976   */\n      dup5\n        /* \"#utility.yul\":19926:19998   */\n      tag_457\n      jump\t// in\n    tag_586:\n        /* \"#utility.yul\":19799:20005   */\n      swap4\n      swap3\n      pop\n      pop\n      pop\n      jump\t// out\n        /* \"#utility.yul\":20011:20430   */\n    tag_287:\n      0x00\n        /* \"#utility.yul\":20188:20190   */\n      0x40\n        /* \"#utility.yul\":20177:20186   */\n      dup3\n        /* \"#utility.yul\":20173:20191   */\n      add\n        /* \"#utility.yul\":20165:20191   */\n      swap1\n      pop\n        /* \"#utility.yul\":20201:20272   */\n      tag_588\n        /* \"#utility.yul\":20269:20270   */\n      0x00\n        /* \"#utility.yul\":20258:20267   */\n      dup4\n        /* \"#utility.yul\":20254:20271   */\n      add\n        /* \"#utility.yul\":20245:20251   */\n      dup6\n        /* \"#utility.yul\":20201:20272   */\n      tag_457\n      jump\t// in\n    tag_588:\n        /* \"#utility.yul\":20319:20328   */\n      dup2\n        /* \"#utility.yul\":20313:20317   */\n      dup2\n        /* \"#utility.yul\":20309:20329   */\n      sub\n        /* \"#utility.yul\":20304:20306   */\n      0x20\n        /* \"#utility.yul\":20293:20302   */\n      dup4\n        /* \"#utility.yul\":20289:20307   */\n      add\n        /* \"#utility.yul\":20282:20330   */\n      mstore\n        /* \"#utility.yul\":20347:20423   */\n      tag_589\n        /* \"#utility.yul\":20418:20422   */\n      dup2\n        /* \"#utility.yul\":20409:20415   */\n      dup5\n        /* \"#utility.yul\":20347:20423   */\n      tag_492\n      jump\t// in\n    tag_589:\n        /* \"#utility.yul\":20339:20423   */\n      swap1\n      pop\n        /* \"#utility.yul\":20155:20430   */\n      swap4\n      swap3\n      pop\n      pop\n      pop\n      jump\t// out\n        /* \"#utility.yul\":20436:20768   */\n    tag_268:\n      0x00\n        /* \"#utility.yul\":20595:20597   */\n      0x40\n        /* \"#utility.yul\":20584:20593   */\n      dup3\n        /* \"#utility.yul\":20580:20598   */\n      add\n        /* \"#utility.yul\":20572:20598   */\n      swap1\n      pop\n        /* \"#utility.yul\":20608:20679   */\n      tag_591\n        /* \"#utility.yul\":20676:20677   */\n      0x00\n        /* \"#utility.yul\":20665:20674   */\n      dup4\n        /* \"#utility.yul\":20661:20678   */\n      add\n        /* \"#utility.yul\":20652:20658   */\n      dup6\n        /* \"#utility.yul\":20608:20679   */\n      tag_457\n      jump\t// in\n    tag_591:\n        /* \"#utility.yul\":20689:20761   */\n      tag_592\n        /* \"#utility.yul\":20757:20759   */\n      0x20\n        /* \"#utility.yul\":20746:20755   */\n      dup4\n        /* \"#utility.yul\":20742:20760   */\n      add\n        /* \"#utility.yul\":20733:20739   */\n      dup5\n        /* \"#utility.yul\":20689:20761   */\n      tag_577\n      jump\t// in\n    tag_592:\n        /* \"#utility.yul\":20562:20768   */\n      swap4\n      swap3\n      pop\n      pop\n      pop\n      jump\t// out\n        /* \"#utility.yul\":20774:21669   */\n    tag_239:\n      0x00\n        /* \"#utility.yul\":21111:21113   */\n      0x60\n        /* \"#utility.yul\":21100:21109   */\n      dup3\n        /* \"#utility.yul\":21096:21114   */\n      add\n        /* \"#utility.yul\":21088:21114   */\n      swap1\n      pop\n        /* \"#utility.yul\":21160:21169   */\n      dup2\n        /* \"#utility.yul\":21154:21158   */\n      dup2\n        /* \"#utility.yul\":21150:21170   */\n      sub\n        /* \"#utility.yul\":21146:21147   */\n      0x00\n        /* \"#utility.yul\":21135:21144   */\n      dup4\n        /* \"#utility.yul\":21131:21148   */\n      add\n        /* \"#utility.yul\":21124:21171   */\n      mstore\n        /* \"#utility.yul\":21188:21296   */\n      tag_594\n        /* \"#utility.yul\":21291:21295   */\n      dup2\n        /* \"#utility.yul\":21282:21288   */\n      dup7\n        /* \"#utility.yul\":21188:21296   */\n      tag_460\n      jump\t// in\n    tag_594:\n        /* \"#utility.yul\":21180:21296   */\n      swap1\n      pop\n        /* \"#utility.yul\":21343:21352   */\n      dup2\n        /* \"#utility.yul\":21337:21341   */\n      dup2\n        /* \"#utility.yul\":21333:21353   */\n      sub\n        /* \"#utility.yul\":21328:21330   */\n      0x20\n        /* \"#utility.yul\":21317:21326   */\n      dup4\n        /* \"#utility.yul\":21313:21331   */\n      add\n        /* \"#utility.yul\":21306:21354   */\n      mstore\n        /* \"#utility.yul\":21371:21479   */\n      tag_595\n        /* \"#utility.yul\":21474:21478   */\n      dup2\n        /* \"#utility.yul\":21465:21471   */\n      dup6\n        /* \"#utility.yul\":21371:21479   */\n      tag_474\n      jump\t// in\n    tag_595:\n        /* \"#utility.yul\":21363:21479   */\n      swap1\n      pop\n        /* \"#utility.yul\":21526:21535   */\n      dup2\n        /* \"#utility.yul\":21520:21524   */\n      dup2\n        /* \"#utility.yul\":21516:21536   */\n      sub\n        /* \"#utility.yul\":21511:21513   */\n      0x40\n        /* \"#utility.yul\":21500:21509   */\n      dup4\n        /* \"#utility.yul\":21496:21514   */\n      add\n        /* \"#utility.yul\":21489:21537   */\n      mstore\n        /* \"#utility.yul\":21554:21662   */\n      tag_596\n        /* \"#utility.yul\":21657:21661   */\n      dup2\n        /* \"#utility.yul\":21648:21654   */\n      dup5\n        /* \"#utility.yul\":21554:21662   */\n      tag_474\n      jump\t// in\n    tag_596:\n        /* \"#utility.yul\":21546:21662   */\n      swap1\n      pop\n        /* \"#utility.yul\":21078:21669   */\n      swap5\n      swap4\n      pop\n      pop\n      pop\n      pop\n      jump\t// out\n        /* \"#utility.yul\":21675:22681   */\n    tag_234:\n      0x00\n        /* \"#utility.yul\":22040:22043   */\n      0x80\n        /* \"#utility.yul\":22029:22038   */\n      dup3\n        /* \"#utility.yul\":22025:22044   */\n      add\n        /* \"#utility.yul\":22017:22044   */\n      swap1\n      pop\n        /* \"#utility.yul\":22090:22099   */\n      dup2\n        /* \"#utility.yul\":22084:22088   */\n      dup2\n        /* \"#utility.yul\":22080:22100   */\n      sub\n        /* \"#utility.yul\":22076:22077   */\n      0x00\n        /* \"#utility.yul\":22065:22074   */\n      dup4\n        /* \"#utility.yul\":22061:22078   */\n      add\n        /* \"#utility.yul\":22054:22101   */\n      mstore\n        /* \"#utility.yul\":22118:22226   */\n      tag_598\n        /* \"#utility.yul\":22221:22225   */\n      dup2\n        /* \"#utility.yul\":22212:22218   */\n      dup8\n        /* \"#utility.yul\":22118:22226   */\n      tag_460\n      jump\t// in\n    tag_598:\n        /* \"#utility.yul\":22110:22226   */\n      swap1\n      pop\n        /* \"#utility.yul\":22273:22282   */\n      dup2\n        /* \"#utility.yul\":22267:22271   */\n      dup2\n        /* \"#utility.yul\":22263:22283   */\n      sub\n        /* \"#utility.yul\":22258:22260   */\n      0x20\n        /* \"#utility.yul\":22247:22256   */\n      dup4\n        /* \"#utility.yul\":22243:22261   */\n      add\n        /* \"#utility.yul\":22236:22284   */\n      mstore\n        /* \"#utility.yul\":22301:22409   */\n      tag_599\n        /* \"#utility.yul\":22404:22408   */\n      dup2\n        /* \"#utility.yul\":22395:22401   */\n      dup7\n        /* \"#utility.yul\":22301:22409   */\n      tag_474\n      jump\t// in\n    tag_599:\n        /* \"#utility.yul\":22293:22409   */\n      swap1\n      pop\n        /* \"#utility.yul\":22456:22465   */\n      dup2\n        /* \"#utility.yul\":22450:22454   */\n      dup2\n        /* \"#utility.yul\":22446:22466   */\n      sub\n        /* \"#utility.yul\":22441:22443   */\n      0x40\n        /* \"#utility.yul\":22430:22439   */\n      dup4\n        /* \"#utility.yul\":22426:22444   */\n      add\n        /* \"#utility.yul\":22419:22467   */\n      mstore\n        /* \"#utility.yul\":22484:22592   */\n      tag_600\n        /* \"#utility.yul\":22587:22591   */\n      dup2\n        /* \"#utility.yul\":22578:22584   */\n      dup6\n        /* \"#utility.yul\":22484:22592   */\n      tag_474\n      jump\t// in\n    tag_600:\n        /* \"#utility.yul\":22476:22592   */\n      swap1\n      pop\n        /* \"#utility.yul\":22602:22674   */\n      tag_601\n        /* \"#utility.yul\":22670:22672   */\n      0x60\n        /* \"#utility.yul\":22659:22668   */\n      dup4\n        /* \"#utility.yul\":22655:22673   */\n      add\n        /* \"#utility.yul\":22646:22652   */\n      dup5\n        /* \"#utility.yul\":22602:22674   */\n      tag_457\n      jump\t// in\n    tag_601:\n        /* \"#utility.yul\":22007:22681   */\n      swap6\n      swap5\n      pop\n      pop\n      pop\n      pop\n      pop\n      jump\t// out\n        /* \"#utility.yul\":22687:22897   */\n    tag_68:\n      0x00\n        /* \"#utility.yul\":22812:22814   */\n      0x20\n        /* \"#utility.yul\":22801:22810   */\n      dup3\n        /* \"#utility.yul\":22797:22815   */\n      add\n        /* \"#utility.yul\":22789:22815   */\n      swap1\n      pop\n        /* \"#utility.yul\":22825:22890   */\n      tag_603\n        /* \"#utility.yul\":22887:22888   */\n      0x00\n        /* \"#utility.yul\":22876:22885   */\n      dup4\n        /* \"#utility.yul\":22872:22889   */\n      add\n        /* \"#utility.yul\":22863:22869   */\n      dup5\n        /* \"#utility.yul\":22825:22890   */\n      tag_488\n      jump\t// in\n    tag_603:\n        /* \"#utility.yul\":22779:22897   */\n      swap3\n      swap2\n      pop\n      pop\n      jump\t// out\n        /* \"#utility.yul\":22903:23216   */\n    tag_59:\n      0x00\n        /* \"#utility.yul\":23054:23056   */\n      0x20\n        /* \"#utility.yul\":23043:23052   */\n      dup3\n        /* \"#utility.yul\":23039:23057   */\n      add\n        /* \"#utility.yul\":23031:23057   */\n      swap1\n      pop\n        /* \"#utility.yul\":23103:23112   */\n      dup2\n        /* \"#utility.yul\":23097:23101   */\n      dup2\n        /* \"#utility.yul\":23093:23113   */\n      sub\n        /* \"#utility.yul\":23089:23090   */\n      0x00\n        /* \"#utility.yul\":23078:23087   */\n      dup4\n        /* \"#utility.yul\":23074:23091   */\n      add\n        /* \"#utility.yul\":23067:23114   */\n      mstore\n        /* \"#utility.yul\":23131:23209   */\n      tag_605\n        /* \"#utility.yul\":23204:23208   */\n      dup2\n        /* \"#utility.yul\":23195:23201   */\n      dup5\n        /* \"#utility.yul\":23131:23209   */\n      tag_508\n      jump\t// in\n    tag_605:\n        /* \"#utility.yul\":23123:23209   */\n      swap1\n      pop\n        /* \"#utility.yul\":23021:23216   */\n      swap3\n      swap2\n      pop\n      pop\n      jump\t// out\n        /* \"#utility.yul\":23222:23730   */\n    tag_189:\n      0x00\n        /* \"#utility.yul\":23418:23420   */\n      0x40\n        /* \"#utility.yul\":23407:23416   */\n      dup3\n        /* \"#utility.yul\":23403:23421   */\n      add\n        /* \"#utility.yul\":23395:23421   */\n      swap1\n      pop\n        /* \"#utility.yul\":23467:23476   */\n      dup2\n        /* \"#utility.yul\":23461:23465   */\n      dup2\n        /* \"#utility.yul\":23457:23477   */\n      sub\n        /* \"#utility.yul\":23453:23454   */\n      0x00\n        /* \"#utility.yul\":23442:23451   */\n      dup4\n        /* \"#utility.yul\":23438:23455   */\n      add\n        /* \"#utility.yul\":23431:23478   */\n      mstore\n        /* \"#utility.yul\":23495:23570   */\n      tag_607\n        /* \"#utility.yul\":23565:23569   */\n      dup2\n        /* \"#utility.yul\":23556:23562   */\n      dup6\n        /* \"#utility.yul\":23495:23570   */\n      tag_516\n      jump\t// in\n    tag_607:\n        /* \"#utility.yul\":23487:23570   */\n      swap1\n      pop\n        /* \"#utility.yul\":23617:23626   */\n      dup2\n        /* \"#utility.yul\":23611:23615   */\n      dup2\n        /* \"#utility.yul\":23607:23627   */\n      sub\n        /* \"#utility.yul\":23602:23604   */\n      0x20\n        /* \"#utility.yul\":23591:23600   */\n      dup4\n        /* \"#utility.yul\":23587:23605   */\n      add\n        /* \"#utility.yul\":23580:23628   */\n      mstore\n        /* \"#utility.yul\":23645:23723   */\n      tag_608\n        /* \"#utility.yul\":23718:23722   */\n      dup2\n        /* \"#utility.yul\":23709:23715   */\n      dup5\n        /* \"#utility.yul\":23645:23723   */\n      tag_508\n      jump\t// in\n    tag_608:\n        /* \"#utility.yul\":23637:23723   */\n      swap1\n      pop\n        /* \"#utility.yul\":23385:23730   */\n      swap4\n      swap3\n      pop\n      pop\n      pop\n      jump\t// out\n        /* \"#utility.yul\":23736:24155   */\n    tag_181:\n      0x00\n        /* \"#utility.yul\":23940:23942   */\n      0x20\n        /* \"#utility.yul\":23929:23938   */\n      dup3\n        /* \"#utility.yul\":23925:23943   */\n      add\n        /* \"#utility.yul\":23917:23943   */\n      swap1\n      pop\n        /* \"#utility.yul\":23989:23998   */\n      dup2\n        /* \"#utility.yul\":23983:23987   */\n      dup2\n        /* \"#utility.yul\":23979:23999   */\n      sub\n        /* \"#utility.yul\":23975:23976   */\n      0x00\n        /* \"#utility.yul\":23964:23973   */\n      dup4\n        /* \"#utility.yul\":23960:23977   */\n      add\n        /* \"#utility.yul\":23953:24000   */\n      mstore\n        /* \"#utility.yul\":24017:24148   */\n      tag_610\n        /* \"#utility.yul\":24143:24147   */\n      dup2\n        /* \"#utility.yul\":24017:24148   */\n      tag_528\n      jump\t// in\n    tag_610:\n        /* \"#utility.yul\":24009:24148   */\n      swap1\n      pop\n        /* \"#utility.yul\":23907:24155   */\n      swap2\n      swap1\n      pop\n      jump\t// out\n        /* \"#utility.yul\":24161:24580   */\n    tag_232:\n      0x00\n        /* \"#utility.yul\":24365:24367   */\n      0x20\n        /* \"#utility.yul\":24354:24363   */\n      dup3\n        /* \"#utility.yul\":24350:24368   */\n      add\n        /* \"#utility.yul\":24342:24368   */\n      swap1\n      pop\n        /* \"#utility.yul\":24414:24423   */\n      dup2\n        /* \"#utility.yul\":24408:24412   */\n      dup2\n        /* \"#utility.yul\":24404:24424   */\n      sub\n        /* \"#utility.yul\":24400:24401   */\n      0x00\n        /* \"#utility.yul\":24389:24398   */\n      dup4\n        /* \"#utility.yul\":24385:24402   */\n      add\n        /* \"#utility.yul\":24378:24425   */\n      mstore\n        /* \"#utility.yul\":24442:24573   */\n      tag_612\n        /* \"#utility.yul\":24568:24572   */\n      dup2\n        /* \"#utility.yul\":24442:24573   */\n      tag_531\n      jump\t// in\n    tag_612:\n        /* \"#utility.yul\":24434:24573   */\n      swap1\n      pop\n        /* \"#utility.yul\":24332:24580   */\n      swap2\n      swap1\n      pop\n      jump\t// out\n        /* \"#utility.yul\":24586:25005   */\n    tag_250:\n      0x00\n        /* \"#utility.yul\":24790:24792   */\n      0x20\n        /* \"#utility.yul\":24779:24788   */\n      dup3\n        /* \"#utility.yul\":24775:24793   */\n      add\n        /* \"#utility.yul\":24767:24793   */\n      swap1\n      pop\n        /* \"#utility.yul\":24839:24848   */\n      dup2\n        /* \"#utility.yul\":24833:24837   */\n      dup2\n        /* \"#utility.yul\":24829:24849   */\n      sub\n        /* \"#utility.yul\":24825:24826   */\n      0x00\n        /* \"#utility.yul\":24814:24823   */\n      dup4\n        /* \"#utility.yul\":24810:24827   */\n      add\n        /* \"#utility.yul\":24803:24850   */\n      mstore\n        /* \"#utility.yul\":24867:24998   */\n      tag_614\n        /* \"#utility.yul\":24993:24997   */\n      dup2\n        /* \"#utility.yul\":24867:24998   */\n      tag_534\n      jump\t// in\n    tag_614:\n        /* \"#utility.yul\":24859:24998   */\n      swap1\n      pop\n        /* \"#utility.yul\":24757:25005   */\n      swap2\n      swap1\n      pop\n      jump\t// out\n        /* \"#utility.yul\":25011:25430   */\n    tag_175:\n      0x00\n        /* \"#utility.yul\":25215:25217   */\n      0x20\n        /* \"#utility.yul\":25204:25213   */\n      dup3\n        /* \"#utility.yul\":25200:25218   */\n      add\n        /* \"#utility.yul\":25192:25218   */\n      swap1\n      pop\n        /* \"#utility.yul\":25264:25273   */\n      dup2\n        /* \"#utility.yul\":25258:25262   */\n      dup2\n        /* \"#utility.yul\":25254:25274   */\n      sub\n        /* \"#utility.yul\":25250:25251   */\n      0x00\n        /* \"#utility.yul\":25239:25248   */\n      dup4\n        /* \"#utility.yul\":25235:25252   */\n      add\n        /* \"#utility.yul\":25228:25275   */\n      mstore\n        /* \"#utility.yul\":25292:25423   */\n      tag_616\n        /* \"#utility.yul\":25418:25422   */\n      dup2\n        /* \"#utility.yul\":25292:25423   */\n      tag_537\n      jump\t// in\n    tag_616:\n        /* \"#utility.yul\":25284:25423   */\n      swap1\n      pop\n        /* \"#utility.yul\":25182:25430   */\n      swap2\n      swap1\n      pop\n      jump\t// out\n        /* \"#utility.yul\":25436:25855   */\n    tag_218:\n      0x00\n        /* \"#utility.yul\":25640:25642   */\n      0x20\n        /* \"#utility.yul\":25629:25638   */\n      dup3\n        /* \"#utility.yul\":25625:25643   */\n      add\n        /* \"#utility.yul\":25617:25643   */\n      swap1\n      pop\n        /* \"#utility.yul\":25689:25698   */\n      dup2\n        /* \"#utility.yul\":25683:25687   */\n      dup2\n        /* \"#utility.yul\":25679:25699   */\n      sub\n        /* \"#utility.yul\":25675:25676   */\n      0x00\n        /* \"#utility.yul\":25664:25673   */\n      dup4\n        /* \"#utility.yul\":25660:25677   */\n      add\n        /* \"#utility.yul\":25653:25700   */\n      mstore\n        /* \"#utility.yul\":25717:25848   */\n      tag_618\n        /* \"#utility.yul\":25843:25847   */\n      dup2\n        /* \"#utility.yul\":25717:25848   */\n      tag_540\n      jump\t// in\n    tag_618:\n        /* \"#utility.yul\":25709:25848   */\n      swap1\n      pop\n        /* \"#utility.yul\":25607:25855   */\n      swap2\n      swap1\n      pop\n      jump\t// out\n        /* \"#utility.yul\":25861:26280   */\n    tag_253:\n      0x00\n        /* \"#utility.yul\":26065:26067   */\n      0x20\n        /* \"#utility.yul\":26054:26063   */\n      dup3\n        /* \"#utility.yul\":26050:26068   */\n      add\n        /* \"#utility.yul\":26042:26068   */\n      swap1\n      pop\n        /* \"#utility.yul\":26114:26123   */\n      dup2\n        /* \"#utility.yul\":26108:26112   */\n      dup2\n        /* \"#utility.yul\":26104:26124   */\n      sub\n        /* \"#utility.yul\":26100:26101   */\n      0x00\n        /* \"#utility.yul\":26089:26098   */\n      dup4\n        /* \"#utility.yul\":26085:26102   */\n      add\n        /* \"#utility.yul\":26078:26125   */\n      mstore\n        /* \"#utility.yul\":26142:26273   */\n      tag_620\n        /* \"#utility.yul\":26268:26272   */\n      dup2\n        /* \"#utility.yul\":26142:26273   */\n      tag_543\n      jump\t// in\n    tag_620:\n        /* \"#utility.yul\":26134:26273   */\n      swap1\n      pop\n        /* \"#utility.yul\":26032:26280   */\n      swap2\n      swap1\n      pop\n      jump\t// out\n        /* \"#utility.yul\":26286:26705   */\n    tag_229:\n      0x00\n        /* \"#utility.yul\":26490:26492   */\n      0x20\n        /* \"#utility.yul\":26479:26488   */\n      dup3\n        /* \"#utility.yul\":26475:26493   */\n      add\n        /* \"#utility.yul\":26467:26493   */\n      swap1\n      pop\n        /* \"#utility.yul\":26539:26548   */\n      dup2\n        /* \"#utility.yul\":26533:26537   */\n      dup2\n        /* \"#utility.yul\":26529:26549   */\n      sub\n        /* \"#utility.yul\":26525:26526   */\n      0x00\n        /* \"#utility.yul\":26514:26523   */\n      dup4\n        /* \"#utility.yul\":26510:26527   */\n      add\n        /* \"#utility.yul\":26503:26550   */\n      mstore\n        /* \"#utility.yul\":26567:26698   */\n      tag_622\n        /* \"#utility.yul\":26693:26697   */\n      dup2\n        /* \"#utility.yul\":26567:26698   */\n      tag_546\n      jump\t// in\n    tag_622:\n        /* \"#utility.yul\":26559:26698   */\n      swap1\n      pop\n        /* \"#utility.yul\":26457:26705   */\n      swap2\n      swap1\n      pop\n      jump\t// out\n        /* \"#utility.yul\":26711:27130   */\n    tag_178:\n      0x00\n        /* \"#utility.yul\":26915:26917   */\n      0x20\n        /* \"#utility.yul\":26904:26913   */\n      dup3\n        /* \"#utility.yul\":26900:26918   */\n      add\n        /* \"#utility.yul\":26892:26918   */\n      swap1\n      pop\n        /* \"#utility.yul\":26964:26973   */\n      dup2\n        /* \"#utility.yul\":26958:26962   */\n      dup2\n        /* \"#utility.yul\":26954:26974   */\n      sub\n        /* \"#utility.yul\":26950:26951   */\n      0x00\n        /* \"#utility.yul\":26939:26948   */\n      dup4\n        /* \"#utility.yul\":26935:26952   */\n      add\n        /* \"#utility.yul\":26928:26975   */\n      mstore\n        /* \"#utility.yul\":26992:27123   */\n      tag_624\n        /* \"#utility.yul\":27118:27122   */\n      dup2\n        /* \"#utility.yul\":26992:27123   */\n      tag_552\n      jump\t// in\n    tag_624:\n        /* \"#utility.yul\":26984:27123   */\n      swap1\n      pop\n        /* \"#utility.yul\":26882:27130   */\n      swap2\n      swap1\n      pop\n      jump\t// out\n        /* \"#utility.yul\":27136:27555   */\n    tag_208:\n      0x00\n        /* \"#utility.yul\":27340:27342   */\n      0x20\n        /* \"#utility.yul\":27329:27338   */\n      dup3\n        /* \"#utility.yul\":27325:27343   */\n      add\n        /* \"#utility.yul\":27317:27343   */\n      swap1\n      pop\n        /* \"#utility.yul\":27389:27398   */\n      dup2\n        /* \"#utility.yul\":27383:27387   */\n      dup2\n        /* \"#utility.yul\":27379:27399   */\n      sub\n        /* \"#utility.yul\":27375:27376   */\n      0x00\n        /* \"#utility.yul\":27364:27373   */\n      dup4\n        /* \"#utility.yul\":27360:27377   */\n      add\n        /* \"#utility.yul\":27353:27400   */\n      mstore\n        /* \"#utility.yul\":27417:27548   */\n      tag_626\n        /* \"#utility.yul\":27543:27547   */\n      dup2\n        /* \"#utility.yul\":27417:27548   */\n      tag_555\n      jump\t// in\n    tag_626:\n        /* \"#utility.yul\":27409:27548   */\n      swap1\n      pop\n        /* \"#utility.yul\":27307:27555   */\n      swap2\n      swap1\n      pop\n      jump\t// out\n        /* \"#utility.yul\":27561:28397   */\n    tag_195:\n      0x00\n        /* \"#utility.yul\":27894:27896   */\n      0x60\n        /* \"#utility.yul\":27883:27892   */\n      dup3\n        /* \"#utility.yul\":27879:27897   */\n      add\n        /* \"#utility.yul\":27871:27897   */\n      swap1\n      pop\n        /* \"#utility.yul\":27943:27952   */\n      dup2\n        /* \"#utility.yul\":27937:27941   */\n      dup2\n        /* \"#utility.yul\":27933:27953   */\n      sub\n        /* \"#utility.yul\":27929:27930   */\n      0x00\n        /* \"#utility.yul\":27918:27927   */\n      dup4\n        /* \"#utility.yul\":27914:27931   */\n      add\n        /* \"#utility.yul\":27907:27954   */\n      mstore\n        /* \"#utility.yul\":27971:28102   */\n      tag_628\n        /* \"#utility.yul\":28097:28101   */\n      dup2\n        /* \"#utility.yul\":27971:28102   */\n      tag_558\n      jump\t// in\n    tag_628:\n        /* \"#utility.yul\":27963:28102   */\n      swap1\n      pop\n        /* \"#utility.yul\":28112:28184   */\n      tag_629\n        /* \"#utility.yul\":28180:28182   */\n      0x20\n        /* \"#utility.yul\":28169:28178   */\n      dup4\n        /* \"#utility.yul\":28165:28183   */\n      add\n        /* \"#utility.yul\":28156:28162   */\n      dup5\n        /* \"#utility.yul\":28112:28184   */\n      tag_457\n      jump\t// in\n    tag_629:\n        /* \"#utility.yul\":28231:28240   */\n      dup2\n        /* \"#utility.yul\":28225:28229   */\n      dup2\n        /* \"#utility.yul\":28221:28241   */\n      sub\n        /* \"#utility.yul\":28216:28218   */\n      0x40\n        /* \"#utility.yul\":28205:28214   */\n      dup4\n        /* \"#utility.yul\":28201:28219   */\n      add\n        /* \"#utility.yul\":28194:28242   */\n      mstore\n        /* \"#utility.yul\":28259:28390   */\n      tag_630\n        /* \"#utility.yul\":28385:28389   */\n      dup2\n        /* \"#utility.yul\":28259:28390   */\n      tag_549\n      jump\t// in\n    tag_630:\n        /* \"#utility.yul\":28251:28390   */\n      swap1\n      pop\n        /* \"#utility.yul\":27861:28397   */\n      swap3\n      swap2\n      pop\n      pop\n      jump\t// out\n        /* \"#utility.yul\":28403:28822   */\n    tag_151:\n      0x00\n        /* \"#utility.yul\":28607:28609   */\n      0x20\n        /* \"#utility.yul\":28596:28605   */\n      dup3\n        /* \"#utility.yul\":28592:28610   */\n      add\n        /* \"#utility.yul\":28584:28610   */\n      swap1\n      pop\n        /* \"#utility.yul\":28656:28665   */\n      dup2\n        /* \"#utility.yul\":28650:28654   */\n      dup2\n        /* \"#utility.yul\":28646:28666   */\n      sub\n        /* \"#utility.yul\":28642:28643   */\n      0x00\n        /* \"#utility.yul\":28631:28640   */\n      dup4\n        /* \"#utility.yul\":28627:28644   */\n      add\n        /* \"#utility.yul\":28620:28667   */\n      mstore\n        /* \"#utility.yul\":28684:28815   */\n      tag_632\n        /* \"#utility.yul\":28810:28814   */\n      dup2\n        /* \"#utility.yul\":28684:28815   */\n      tag_561\n      jump\t// in\n    tag_632:\n        /* \"#utility.yul\":28676:28815   */\n      swap1\n      pop\n        /* \"#utility.yul\":28574:28822   */\n      swap2\n      swap1\n      pop\n      jump\t// out\n        /* \"#utility.yul\":28828:29247   */\n    tag_172:\n      0x00\n        /* \"#utility.yul\":29032:29034   */\n      0x20\n        /* \"#utility.yul\":29021:29030   */\n      dup3\n        /* \"#utility.yul\":29017:29035   */\n      add\n        /* \"#utility.yul\":29009:29035   */\n      swap1\n      pop\n        /* \"#utility.yul\":29081:29090   */\n      dup2\n        /* \"#utility.yul\":29075:29079   */\n      dup2\n        /* \"#utility.yul\":29071:29091   */\n      sub\n        /* \"#utility.yul\":29067:29068   */\n      0x00\n        /* \"#utility.yul\":29056:29065   */\n      dup4\n        /* \"#utility.yul\":29052:29069   */\n      add\n        /* \"#utility.yul\":29045:29092   */\n      mstore\n        /* \"#utility.yul\":29109:29240   */\n      tag_634\n        /* \"#utility.yul\":29235:29239   */\n      dup2\n        /* \"#utility.yul\":29109:29240   */\n      tag_564\n      jump\t// in\n    tag_634:\n        /* \"#utility.yul\":29101:29240   */\n      swap1\n      pop\n        /* \"#utility.yul\":28999:29247   */\n      swap2\n      swap1\n      pop\n      jump\t// out\n        /* \"#utility.yul\":29253:29672   */\n    tag_169:\n      0x00\n        /* \"#utility.yul\":29457:29459   */\n      0x20\n        /* \"#utility.yul\":29446:29455   */\n      dup3\n        /* \"#utility.yul\":29442:29460   */\n      add\n        /* \"#utility.yul\":29434:29460   */\n      swap1\n      pop\n        /* \"#utility.yul\":29506:29515   */\n      dup2\n        /* \"#utility.yul\":29500:29504   */\n      dup2\n        /* \"#utility.yul\":29496:29516   */\n      sub\n        /* \"#utility.yul\":29492:29493   */\n      0x00\n        /* \"#utility.yul\":29481:29490   */\n      dup4\n        /* \"#utility.yul\":29477:29494   */\n      add\n        /* \"#utility.yul\":29470:29517   */\n      mstore\n        /* \"#utility.yul\":29534:29665   */\n      tag_636\n        /* \"#utility.yul\":29660:29664   */\n      dup2\n        /* \"#utility.yul\":29534:29665   */\n      tag_567\n      jump\t// in\n    tag_636:\n        /* \"#utility.yul\":29526:29665   */\n      swap1\n      pop\n        /* \"#utility.yul\":29424:29672   */\n      swap2\n      swap1\n      pop\n      jump\t// out\n        /* \"#utility.yul\":29678:29896   */\n    tag_98:\n      0x00\n        /* \"#utility.yul\":29807:29809   */\n      0x20\n        /* \"#utility.yul\":29796:29805   */\n      dup3\n        /* \"#utility.yul\":29792:29810   */\n      add\n        /* \"#utility.yul\":29784:29810   */\n      swap1\n      pop\n        /* \"#utility.yul\":29820:29889   */\n      tag_638\n        /* \"#utility.yul\":29886:29887   */\n      0x00\n        /* \"#utility.yul\":29875:29884   */\n      dup4\n        /* \"#utility.yul\":29871:29888   */\n      add\n        /* \"#utility.yul\":29862:29868   */\n      dup5\n        /* \"#utility.yul\":29820:29889   */\n      tag_570\n      jump\t// in\n    tag_638:\n        /* \"#utility.yul\":29774:29896   */\n      swap3\n      swap2\n      pop\n      pop\n      jump\t// out\n        /* \"#utility.yul\":29902:30124   */\n    tag_45:\n      0x00\n        /* \"#utility.yul\":30033:30035   */\n      0x20\n        /* \"#utility.yul\":30022:30031   */\n      dup3\n        /* \"#utility.yul\":30018:30036   */\n      add\n        /* \"#utility.yul\":30010:30036   */\n      swap1\n      pop\n        /* \"#utility.yul\":30046:30117   */\n      tag_640\n        /* \"#utility.yul\":30114:30115   */\n      0x00\n        /* \"#utility.yul\":30103:30112   */\n      dup4\n        /* \"#utility.yul\":30099:30116   */\n      add\n        /* \"#utility.yul\":30090:30096   */\n      dup5\n        /* \"#utility.yul\":30046:30117   */\n      tag_577\n      jump\t// in\n    tag_640:\n        /* \"#utility.yul\":30000:30124   */\n      swap3\n      swap2\n      pop\n      pop\n      jump\t// out\n        /* \"#utility.yul\":30130:31638   */\n    tag_204:\n      0x00\n        /* \"#utility.yul\":30579:30582   */\n      0x0160\n        /* \"#utility.yul\":30568:30577   */\n      dup3\n        /* \"#utility.yul\":30564:30583   */\n      add\n        /* \"#utility.yul\":30556:30583   */\n      swap1\n      pop\n        /* \"#utility.yul\":30593:30664   */\n      tag_642\n        /* \"#utility.yul\":30661:30662   */\n      0x00\n        /* \"#utility.yul\":30650:30659   */\n      dup4\n        /* \"#utility.yul\":30646:30663   */\n      add\n        /* \"#utility.yul\":30637:30643   */\n      dup15\n        /* \"#utility.yul\":30593:30664   */\n      tag_577\n      jump\t// in\n    tag_642:\n        /* \"#utility.yul\":30711:30720   */\n      dup2\n        /* \"#utility.yul\":30705:30709   */\n      dup2\n        /* \"#utility.yul\":30701:30721   */\n      sub\n        /* \"#utility.yul\":30696:30698   */\n      0x20\n        /* \"#utility.yul\":30685:30694   */\n      dup4\n        /* \"#utility.yul\":30681:30699   */\n      add\n        /* \"#utility.yul\":30674:30722   */\n      mstore\n        /* \"#utility.yul\":30739:30814   */\n      tag_643\n        /* \"#utility.yul\":30809:30813   */\n      dup2\n        /* \"#utility.yul\":30800:30806   */\n      dup14\n        /* \"#utility.yul\":30739:30814   */\n      tag_516\n      jump\t// in\n    tag_643:\n        /* \"#utility.yul\":30731:30814   */\n      swap1\n      pop\n        /* \"#utility.yul\":30861:30870   */\n      dup2\n        /* \"#utility.yul\":30855:30859   */\n      dup2\n        /* \"#utility.yul\":30851:30871   */\n      sub\n        /* \"#utility.yul\":30846:30848   */\n      0x40\n        /* \"#utility.yul\":30835:30844   */\n      dup4\n        /* \"#utility.yul\":30831:30849   */\n      add\n        /* \"#utility.yul\":30824:30872   */\n      mstore\n        /* \"#utility.yul\":30889:30967   */\n      tag_644\n        /* \"#utility.yul\":30962:30966   */\n      dup2\n        /* \"#utility.yul\":30953:30959   */\n      dup13\n        /* \"#utility.yul\":30889:30967   */\n      tag_508\n      jump\t// in\n    tag_644:\n        /* \"#utility.yul\":30881:30967   */\n      swap1\n      pop\n        /* \"#utility.yul\":30977:31049   */\n      tag_645\n        /* \"#utility.yul\":31045:31047   */\n      0x60\n        /* \"#utility.yul\":31034:31043   */\n      dup4\n        /* \"#utility.yul\":31030:31048   */\n      add\n        /* \"#utility.yul\":31021:31027   */\n      dup12\n        /* \"#utility.yul\":30977:31049   */\n      tag_577\n      jump\t// in\n    tag_645:\n        /* \"#utility.yul\":31059:31132   */\n      tag_646\n        /* \"#utility.yul\":31127:31130   */\n      0x80\n        /* \"#utility.yul\":31116:31125   */\n      dup4\n        /* \"#utility.yul\":31112:31131   */\n      add\n        /* \"#utility.yul\":31103:31109   */\n      dup11\n        /* \"#utility.yul\":31059:31132   */\n      tag_577\n      jump\t// in\n    tag_646:\n        /* \"#utility.yul\":31142:31215   */\n      tag_647\n        /* \"#utility.yul\":31210:31213   */\n      0xa0\n        /* \"#utility.yul\":31199:31208   */\n      dup4\n        /* \"#utility.yul\":31195:31214   */\n      add\n        /* \"#utility.yul\":31186:31192   */\n      dup10\n        /* \"#utility.yul\":31142:31215   */\n      tag_577\n      jump\t// in\n    tag_647:\n        /* \"#utility.yul\":31225:31298   */\n      tag_648\n        /* \"#utility.yul\":31293:31296   */\n      0xc0\n        /* \"#utility.yul\":31282:31291   */\n      dup4\n        /* \"#utility.yul\":31278:31297   */\n      add\n        /* \"#utility.yul\":31269:31275   */\n      dup9\n        /* \"#utility.yul\":31225:31298   */\n      tag_577\n      jump\t// in\n    tag_648:\n        /* \"#utility.yul\":31308:31381   */\n      tag_649\n        /* \"#utility.yul\":31376:31379   */\n      0xe0\n        /* \"#utility.yul\":31365:31374   */\n      dup4\n        /* \"#utility.yul\":31361:31380   */\n      add\n        /* \"#utility.yul\":31352:31358   */\n      dup8\n        /* \"#utility.yul\":31308:31381   */\n      tag_457\n      jump\t// in\n    tag_649:\n        /* \"#utility.yul\":31391:31464   */\n      tag_650\n        /* \"#utility.yul\":31459:31462   */\n      0x0100\n        /* \"#utility.yul\":31448:31457   */\n      dup4\n        /* \"#utility.yul\":31444:31463   */\n      add\n        /* \"#utility.yul\":31435:31441   */\n      dup7\n        /* \"#utility.yul\":31391:31464   */\n      tag_457\n      jump\t// in\n    tag_650:\n        /* \"#utility.yul\":31474:31547   */\n      tag_651\n        /* \"#utility.yul\":31542:31545   */\n      0x0120\n        /* \"#utility.yul\":31531:31540   */\n      dup4\n        /* \"#utility.yul\":31527:31546   */\n      add\n        /* \"#utility.yul\":31518:31524   */\n      dup6\n        /* \"#utility.yul\":31474:31547   */\n      tag_457\n      jump\t// in\n    tag_651:\n        /* \"#utility.yul\":31557:31631   */\n      tag_652\n        /* \"#utility.yul\":31626:31629   */\n      0x0140\n        /* \"#utility.yul\":31615:31624   */\n      dup4\n        /* \"#utility.yul\":31611:31630   */\n      add\n        /* \"#utility.yul\":31601:31608   */\n      dup5\n        /* \"#utility.yul\":31557:31631   */\n      tag_457\n      jump\t// in\n    tag_652:\n        /* \"#utility.yul\":30546:31638   */\n      swap13\n      swap12\n      pop\n      pop\n      pop\n      pop\n      pop\n      pop\n      pop\n      pop\n      pop\n      pop\n      pop\n      pop\n      jump\t// out\n        /* \"#utility.yul\":31644:31927   */\n    tag_328:\n      0x00\n        /* \"#utility.yul\":31710:31712   */\n      0x40\n        /* \"#utility.yul\":31704:31713   */\n      mload\n        /* \"#utility.yul\":31694:31713   */\n      swap1\n      pop\n        /* \"#utility.yul\":31752:31756   */\n      dup2\n        /* \"#utility.yul\":31744:31750   */\n      dup2\n        /* \"#utility.yul\":31740:31757   */\n      add\n        /* \"#utility.yul\":31859:31865   */\n      dup2\n        /* \"#utility.yul\":31847:31857   */\n      dup2\n        /* \"#utility.yul\":31844:31866   */\n      lt\n        /* \"#utility.yul\":31823:31841   */\n      0xffffffffffffffff\n        /* \"#utility.yul\":31811:31821   */\n      dup3\n        /* \"#utility.yul\":31808:31842   */\n      gt\n        /* \"#utility.yul\":31805:31867   */\n      or\n        /* \"#utility.yul\":31802:31804   */\n      iszero\n      tag_654\n      jumpi\n        /* \"#utility.yul\":31870:31888   */\n      tag_655\n      tag_656\n      jump\t// in\n    tag_655:\n        /* \"#utility.yul\":31802:31804   */\n    tag_654:\n        /* \"#utility.yul\":31910:31920   */\n      dup1\n        /* \"#utility.yul\":31906:31908   */\n      0x40\n        /* \"#utility.yul\":31899:31921   */\n      mstore\n        /* \"#utility.yul\":31684:31927   */\n      pop\n      swap2\n      swap1\n      pop\n      jump\t// out\n        /* \"#utility.yul\":31933:32244   */\n    tag_327:\n      0x00\n        /* \"#utility.yul\":32100:32118   */\n      0xffffffffffffffff\n        /* \"#utility.yul\":32092:32098   */\n      dup3\n        /* \"#utility.yul\":32089:32119   */\n      gt\n        /* \"#utility.yul\":32086:32088   */\n      iszero\n      tag_658\n      jumpi\n        /* \"#utility.yul\":32122:32140   */\n      tag_659\n      tag_656\n      jump\t// in\n    tag_659:\n        /* \"#utility.yul\":32086:32088   */\n    tag_658:\n        /* \"#utility.yul\":32172:32176   */\n      0x20\n        /* \"#utility.yul\":32164:32170   */\n      dup3\n        /* \"#utility.yul\":32160:32177   */\n      mul\n        /* \"#utility.yul\":32152:32177   */\n      swap1\n      pop\n        /* \"#utility.yul\":32232:32236   */\n      0x20\n        /* \"#utility.yul\":32226:32230   */\n      dup2\n        /* \"#utility.yul\":32222:32237   */\n      add\n        /* \"#utility.yul\":32214:32237   */\n      swap1\n      pop\n        /* \"#utility.yul\":32015:32244   */\n      swap2\n      swap1\n      pop\n      jump\t// out\n        /* \"#utility.yul\":32250:32561   */\n    tag_339:\n      0x00\n        /* \"#utility.yul\":32417:32435   */\n      0xffffffffffffffff\n        /* \"#utility.yul\":32409:32415   */\n      dup3\n        /* \"#utility.yul\":32406:32436   */\n      gt\n        /* \"#utility.yul\":32403:32405   */\n      iszero\n      tag_661\n      jumpi\n        /* \"#utility.yul\":32439:32457   */\n      tag_662\n      tag_656\n      jump\t// in\n    tag_662:\n        /* \"#utility.yul\":32403:32405   */\n    tag_661:\n        /* \"#utility.yul\":32489:32493   */\n      0x20\n        /* \"#utility.yul\":32481:32487   */\n      dup3\n        /* \"#utility.yul\":32477:32494   */\n      mul\n        /* \"#utility.yul\":32469:32494   */\n      swap1\n      pop\n        /* \"#utility.yul\":32549:32553   */\n      0x20\n        /* \"#utility.yul\":32543:32547   */\n      dup2\n        /* \"#utility.yul\":32539:32554   */\n      add\n        /* \"#utility.yul\":32531:32554   */\n      swap1\n      pop\n        /* \"#utility.yul\":32332:32561   */\n      swap2\n      swap1\n      pop\n      jump\t// out\n        /* \"#utility.yul\":32567:32899   */\n    tag_360:\n      0x00\n        /* \"#utility.yul\":32719:32737   */\n      0xffffffffffffffff\n        /* \"#utility.yul\":32711:32717   */\n      dup3\n        /* \"#utility.yul\":32708:32738   */\n      gt\n        /* \"#utility.yul\":32705:32707   */\n      iszero\n      tag_664\n      jumpi\n        /* \"#utility.yul\":32741:32759   */\n      tag_665\n      tag_656\n      jump\t// in\n    tag_665:\n        /* \"#utility.yul\":32705:32707   */\n    tag_664:\n        /* \"#utility.yul\":32826:32830   */\n      0x1f\n        /* \"#utility.yul\":32822:32831   */\n      not\n        /* \"#utility.yul\":32815:32819   */\n      0x1f\n        /* \"#utility.yul\":32807:32813   */\n      dup4\n        /* \"#utility.yul\":32803:32820   */\n      add\n        /* \"#utility.yul\":32799:32832   */\n      and\n        /* \"#utility.yul\":32791:32832   */\n      swap1\n      pop\n        /* \"#utility.yul\":32887:32891   */\n      0x20\n        /* \"#utility.yul\":32881:32885   */\n      dup2\n        /* \"#utility.yul\":32877:32892   */\n      add\n        /* \"#utility.yul\":32869:32892   */\n      swap1\n      pop\n        /* \"#utility.yul\":32634:32899   */\n      swap2\n      swap1\n      pop\n      jump\t// out\n        /* \"#utility.yul\":32905:33037   */\n    tag_467:\n      0x00\n        /* \"#utility.yul\":32995:32998   */\n      dup2\n        /* \"#utility.yul\":32987:32998   */\n      swap1\n      pop\n        /* \"#utility.yul\":33025:33029   */\n      0x20\n        /* \"#utility.yul\":33020:33023   */\n      dup3\n        /* \"#utility.yul\":33016:33030   */\n      add\n        /* \"#utility.yul\":33008:33030   */\n      swap1\n      pop\n        /* \"#utility.yul\":32977:33037   */\n      swap2\n      swap1\n      pop\n      jump\t// out\n        /* \"#utility.yul\":33043:33175   */\n    tag_481:\n      0x00\n        /* \"#utility.yul\":33133:33136   */\n      dup2\n        /* \"#utility.yul\":33125:33136   */\n      swap1\n      pop\n        /* \"#utility.yul\":33163:33167   */\n      0x20\n        /* \"#utility.yul\":33158:33161   */\n      dup3\n        /* \"#utility.yul\":33154:33168   */\n      add\n        /* \"#utility.yul\":33146:33168   */\n      swap1\n      pop\n        /* \"#utility.yul\":33115:33175   */\n      swap2\n      swap1\n      pop\n      jump\t// out\n        /* \"#utility.yul\":33181:33322   */\n    tag_524:\n      0x00\n        /* \"#utility.yul\":33253:33256   */\n      dup2\n        /* \"#utility.yul\":33245:33256   */\n      swap1\n      pop\n        /* \"#utility.yul\":33276:33279   */\n      dup2\n        /* \"#utility.yul\":33273:33274   */\n      0x00\n        /* \"#utility.yul\":33266:33280   */\n      mstore\n        /* \"#utility.yul\":33310:33314   */\n      0x20\n        /* \"#utility.yul\":33307:33308   */\n      0x00\n        /* \"#utility.yul\":33297:33315   */\n      keccak256\n        /* \"#utility.yul\":33289:33315   */\n      swap1\n      pop\n        /* \"#utility.yul\":33235:33322   */\n      swap2\n      swap1\n      pop\n      jump\t// out\n        /* \"#utility.yul\":33328:33442   */\n    tag_463:\n      0x00\n        /* \"#utility.yul\":33429:33434   */\n      dup2\n        /* \"#utility.yul\":33423:33435   */\n      mload\n        /* \"#utility.yul\":33413:33435   */\n      swap1\n      pop\n        /* \"#utility.yul\":33402:33442   */\n      swap2\n      swap1\n      pop\n      jump\t// out\n        /* \"#utility.yul\":33448:33562   */\n    tag_477:\n      0x00\n        /* \"#utility.yul\":33549:33554   */\n      dup2\n        /* \"#utility.yul\":33543:33555   */\n      mload\n        /* \"#utility.yul\":33533:33555   */\n      swap1\n      pop\n        /* \"#utility.yul\":33522:33562   */\n      swap2\n      swap1\n      pop\n      jump\t// out\n        /* \"#utility.yul\":33568:33666   */\n    tag_495:\n      0x00\n        /* \"#utility.yul\":33653:33658   */\n      dup2\n        /* \"#utility.yul\":33647:33659   */\n      mload\n        /* \"#utility.yul\":33637:33659   */\n      swap1\n      pop\n        /* \"#utility.yul\":33626:33666   */\n      swap2\n      swap1\n      pop\n      jump\t// out\n        /* \"#utility.yul\":33672:33771   */\n    tag_511:\n      0x00\n        /* \"#utility.yul\":33758:33763   */\n      dup2\n        /* \"#utility.yul\":33752:33764   */\n      mload\n        /* \"#utility.yul\":33742:33764   */\n      swap1\n      pop\n        /* \"#utility.yul\":33731:33771   */\n      swap2\n      swap1\n      pop\n      jump\t// out\n        /* \"#utility.yul\":33777:33890   */\n    tag_473:\n      0x00\n        /* \"#utility.yul\":33879:33883   */\n      0x20\n        /* \"#utility.yul\":33874:33877   */\n      dup3\n        /* \"#utility.yul\":33870:33884   */\n      add\n        /* \"#utility.yul\":33862:33884   */\n      swap1\n      pop\n        /* \"#utility.yul\":33852:33890   */\n      swap2\n      swap1\n      pop\n      jump\t// out\n        /* \"#utility.yul\":33896:34009   */\n    tag_487:\n      0x00\n        /* \"#utility.yul\":33998:34002   */\n      0x20\n        /* \"#utility.yul\":33993:33996   */\n      dup3\n        /* \"#utility.yul\":33989:34003   */\n      add\n        /* \"#utility.yul\":33981:34003   */\n      swap1\n      pop\n        /* \"#utility.yul\":33971:34009   */\n      swap2\n      swap1\n      pop\n      jump\t// out\n        /* \"#utility.yul\":34015:34199   */\n    tag_465:\n      0x00\n        /* \"#utility.yul\":34148:34154   */\n      dup3\n        /* \"#utility.yul\":34143:34146   */\n      dup3\n        /* \"#utility.yul\":34136:34155   */\n      mstore\n        /* \"#utility.yul\":34188:34192   */\n      0x20\n        /* \"#utility.yul\":34183:34186   */\n      dup3\n        /* \"#utility.yul\":34179:34193   */\n      add\n        /* \"#utility.yul\":34164:34193   */\n      swap1\n      pop\n        /* \"#utility.yul\":34126:34199   */\n      swap3\n      swap2\n      pop\n      pop\n      jump\t// out\n        /* \"#utility.yul\":34205:34389   */\n    tag_479:\n      0x00\n        /* \"#utility.yul\":34338:34344   */\n      dup3\n        /* \"#utility.yul\":34333:34336   */\n      dup3\n        /* \"#utility.yul\":34326:34345   */\n      mstore\n        /* \"#utility.yul\":34378:34382   */\n      0x20\n        /* \"#utility.yul\":34373:34376   */\n      dup3\n        /* \"#utility.yul\":34369:34383   */\n      add\n        /* \"#utility.yul\":34354:34383   */\n      swap1\n      pop\n        /* \"#utility.yul\":34316:34389   */\n      swap3\n      swap2\n      pop\n      pop\n      jump\t// out\n        /* \"#utility.yul\":34395:34563   */\n    tag_497:\n      0x00\n        /* \"#utility.yul\":34512:34518   */\n      dup3\n        /* \"#utility.yul\":34507:34510   */\n      dup3\n        /* \"#utility.yul\":34500:34519   */\n      mstore\n        /* \"#utility.yul\":34552:34556   */\n      0x20\n        /* \"#utility.yul\":34547:34550   */\n      dup3\n        /* \"#utility.yul\":34543:34557   */\n      add\n        /* \"#utility.yul\":34528:34557   */\n      swap1\n      pop\n        /* \"#utility.yul\":34490:34563   */\n      swap3\n      swap2\n      pop\n      pop\n      jump\t// out\n        /* \"#utility.yul\":34569:34716   */\n    tag_506:\n      0x00\n        /* \"#utility.yul\":34707:34710   */\n      dup2\n        /* \"#utility.yul\":34692:34710   */\n      swap1\n      pop\n        /* \"#utility.yul\":34682:34716   */\n      swap3\n      swap2\n      pop\n      pop\n      jump\t// out\n        /* \"#utility.yul\":34722:34891   */\n    tag_513:\n      0x00\n        /* \"#utility.yul\":34840:34846   */\n      dup3\n        /* \"#utility.yul\":34835:34838   */\n      dup3\n        /* \"#utility.yul\":34828:34847   */\n      mstore\n        /* \"#utility.yul\":34880:34884   */\n      0x20\n        /* \"#utility.yul\":34875:34878   */\n      dup3\n        /* \"#utility.yul\":34871:34885   */\n      add\n        /* \"#utility.yul\":34856:34885   */\n      swap1\n      pop\n        /* \"#utility.yul\":34818:34891   */\n      swap3\n      swap2\n      pop\n      pop\n      jump\t// out\n        /* \"#utility.yul\":34897:35202   */\n    tag_292:\n      0x00\n        /* \"#utility.yul\":34956:34976   */\n      tag_681\n        /* \"#utility.yul\":34974:34975   */\n      dup3\n        /* \"#utility.yul\":34956:34976   */\n      tag_576\n      jump\t// in\n    tag_681:\n        /* \"#utility.yul\":34951:34976   */\n      swap2\n      pop\n        /* \"#utility.yul\":34990:35010   */\n      tag_682\n        /* \"#utility.yul\":35008:35009   */\n      dup4\n        /* \"#utility.yul\":34990:35010   */\n      tag_576\n      jump\t// in\n    tag_682:\n        /* \"#utility.yul\":34985:35010   */\n      swap3\n      pop\n        /* \"#utility.yul\":35144:35145   */\n      dup3\n        /* \"#utility.yul\":35076:35142   */\n      0xffffffffffffffffffffffffffffffffffffffffffffffffffffffffffffffff\n        /* \"#utility.yul\":35072:35146   */\n      sub\n        /* \"#utility.yul\":35069:35070   */\n      dup3\n        /* \"#utility.yul\":35066:35147   */\n      gt\n        /* \"#utility.yul\":35063:35065   */\n      iszero\n      tag_683\n      jumpi\n        /* \"#utility.yul\":35150:35168   */\n      tag_684\n      tag_685\n      jump\t// in\n    tag_684:\n        /* \"#utility.yul\":35063:35065   */\n    tag_683:\n        /* \"#utility.yul\":35194:35195   */\n      dup3\n        /* \"#utility.yul\":35191:35192   */\n      dup3\n        /* \"#utility.yul\":35187:35196   */\n      add\n        /* \"#utility.yul\":35180:35196   */\n      swap1\n      pop\n        /* \"#utility.yul\":34941:35202   */\n      swap3\n      swap2\n      pop\n      pop\n      jump\t// out\n        /* \"#utility.yul\":35208:35393   */\n    tag_262:\n      0x00\n        /* \"#utility.yul\":35265:35285   */\n      tag_687\n        /* \"#utility.yul\":35283:35284   */\n      dup3\n        /* \"#utility.yul\":35265:35285   */\n      tag_576\n      jump\t// in\n    tag_687:\n        /* \"#utility.yul\":35260:35285   */\n      swap2\n      pop\n        /* \"#utility.yul\":35299:35319   */\n      tag_688\n        /* \"#utility.yul\":35317:35318   */\n      dup4\n        /* \"#utility.yul\":35299:35319   */\n      tag_576\n      jump\t// in\n    tag_688:\n        /* \"#utility.yul\":35294:35319   */\n      swap3\n      pop\n        /* \"#utility.yul\":35338:35339   */\n      dup3\n        /* \"#utility.yul\":35328:35330   */\n      tag_689\n      jumpi\n        /* \"#utility.yul\":35343:35361   */\n      tag_690\n      tag_691\n      jump\t// in\n    tag_690:\n        /* \"#utility.yul\":35328:35330   */\n    tag_689:\n        /* \"#utility.yul\":35385:35386   */\n      dup3\n        /* \"#utility.yul\":35382:35383   */\n      dup3\n        /* \"#utility.yul\":35378:35387   */\n      div\n        /* \"#utility.yul\":35373:35387   */\n      swap1\n      pop\n        /* \"#utility.yul\":35250:35393   */\n      swap3\n      swap2\n      pop\n      pop\n      jump\t// out\n        /* \"#utility.yul\":35399:35747   */\n    tag_260:\n      0x00\n        /* \"#utility.yul\":35462:35482   */\n      tag_693\n        /* \"#utility.yul\":35480:35481   */\n      dup3\n        /* \"#utility.yul\":35462:35482   */\n      tag_576\n      jump\t// in\n    tag_693:\n        /* \"#utility.yul\":35457:35482   */\n      swap2\n      pop\n        /* \"#utility.yul\":35496:35516   */\n      tag_694\n        /* \"#utility.yul\":35514:35515   */\n      dup4\n        /* \"#utility.yul\":35496:35516   */\n      tag_576\n      jump\t// in\n    tag_694:\n        /* \"#utility.yul\":35491:35516   */\n      swap3\n      pop\n        /* \"#utility.yul\":35684:35685   */\n      dup2\n        /* \"#utility.yul\":35616:35682   */\n      0xffffffffffffffffffffffffffffffffffffffffffffffffffffffffffffffff\n        /* \"#utility.yul\":35612:35686   */\n      div\n        /* \"#utility.yul\":35609:35610   */\n      dup4\n        /* \"#utility.yul\":35606:35687   */\n      gt\n        /* \"#utility.yul\":35601:35602   */\n      dup3\n        /* \"#utility.yul\":35594:35603   */\n      iszero\n        /* \"#utility.yul\":35587:35604   */\n      iszero\n        /* \"#utility.yul\":35583:35688   */\n      and\n        /* \"#utility.yul\":35580:35582   */\n      iszero\n      tag_695\n      jumpi\n        /* \"#utility.yul\":35691:35709   */\n      tag_696\n      tag_685\n      jump\t// in\n    tag_696:\n        /* \"#utility.yul\":35580:35582   */\n    tag_695:\n        /* \"#utility.yul\":35739:35740   */\n      dup3\n        /* \"#utility.yul\":35736:35737   */\n      dup3\n        /* \"#utility.yul\":35732:35741   */\n      mul\n        /* \"#utility.yul\":35721:35741   */\n      swap1\n      pop\n        /* \"#utility.yul\":35447:35747   */\n      swap3\n      swap2\n      pop\n      pop\n      jump\t// out\n        /* \"#utility.yul\":35753:35944   */\n    tag_265:\n      0x00\n        /* \"#utility.yul\":35813:35833   */\n      tag_698\n        /* \"#utility.yul\":35831:35832   */\n      dup3\n        /* \"#utility.yul\":35813:35833   */\n      tag_576\n      jump\t// in\n    tag_698:\n        /* \"#utility.yul\":35808:35833   */\n      swap2\n      pop\n        /* \"#utility.yul\":35847:35867   */\n      tag_699\n        /* \"#utility.yul\":35865:35866   */\n      dup4\n        /* \"#utility.yul\":35847:35867   */\n      tag_576\n      jump\t// in\n    tag_699:\n        /* \"#utility.yul\":35842:35867   */\n      swap3\n      pop\n        /* \"#utility.yul\":35886:35887   */\n      dup3\n        /* \"#utility.yul\":35883:35884   */\n      dup3\n        /* \"#utility.yul\":35880:35888   */\n      lt\n        /* \"#utility.yul\":35877:35879   */\n      iszero\n      tag_700\n      jumpi\n        /* \"#utility.yul\":35891:35909   */\n      tag_701\n      tag_685\n      jump\t// in\n    tag_701:\n        /* \"#utility.yul\":35877:35879   */\n    tag_700:\n        /* \"#utility.yul\":35936:35937   */\n      dup3\n        /* \"#utility.yul\":35933:35934   */\n      dup3\n        /* \"#utility.yul\":35929:35938   */\n      sub\n        /* \"#utility.yul\":35921:35938   */\n      swap1\n      pop\n        /* \"#utility.yul\":35798:35944   */\n      swap3\n      swap2\n      pop\n      pop\n      jump\t// out\n        /* \"#utility.yul\":35950:36046   */\n    tag_456:\n      0x00\n        /* \"#utility.yul\":36016:36040   */\n      tag_703\n        /* \"#utility.yul\":36034:36039   */\n      dup3\n        /* \"#utility.yul\":36016:36040   */\n      tag_704\n      jump\t// in\n    tag_703:\n        /* \"#utility.yul\":36005:36040   */\n      swap1\n      pop\n        /* \"#utility.yul\":35995:36046   */\n      swap2\n      swap1\n      pop\n      jump\t// out\n        /* \"#utility.yul\":36052:36156   */\n    tag_705:\n      0x00\n        /* \"#utility.yul\":36126:36150   */\n      tag_707\n        /* \"#utility.yul\":36144:36149   */\n      dup3\n        /* \"#utility.yul\":36126:36150   */\n      tag_704\n      jump\t// in\n    tag_707:\n        /* \"#utility.yul\":36115:36150   */\n      swap1\n      pop\n        /* \"#utility.yul\":36105:36156   */\n      swap2\n      swap1\n      pop\n      jump\t// out\n        /* \"#utility.yul\":36162:36252   */\n    tag_491:\n      0x00\n        /* \"#utility.yul\":36239:36244   */\n      dup2\n        /* \"#utility.yul\":36232:36245   */\n      iszero\n        /* \"#utility.yul\":36225:36246   */\n      iszero\n        /* \"#utility.yul\":36214:36246   */\n      swap1\n      pop\n        /* \"#utility.yul\":36204:36252   */\n      swap2\n      swap1\n      pop\n      jump\t// out\n        /* \"#utility.yul\":36258:36347   */\n    tag_573:\n      0x00\n        /* \"#utility.yul\":36334:36340   */\n      0xffff\n        /* \"#utility.yul\":36327:36332   */\n      dup3\n        /* \"#utility.yul\":36323:36341   */\n      and\n        /* \"#utility.yul\":36312:36341   */\n      swap1\n      pop\n        /* \"#utility.yul\":36302:36347   */\n      swap2\n      swap1\n      pop\n      jump\t// out\n        /* \"#utility.yul\":36353:36479   */\n    tag_704:\n      0x00\n        /* \"#utility.yul\":36430:36472   */\n      0xffffffffffffffffffffffffffffffffffffffff\n        /* \"#utility.yul\":36423:36428   */\n      dup3\n        /* \"#utility.yul\":36419:36473   */\n      and\n        /* \"#utility.yul\":36408:36473   */\n      swap1\n      pop\n        /* \"#utility.yul\":36398:36479   */\n      swap2\n      swap1\n      pop\n      jump\t// out\n        /* \"#utility.yul\":36485:36562   */\n    tag_576:\n      0x00\n        /* \"#utility.yul\":36551:36556   */\n      dup2\n        /* \"#utility.yul\":36540:36556   */\n      swap1\n      pop\n        /* \"#utility.yul\":36530:36562   */\n      swap2\n      swap1\n      pop\n      jump\t// out\n        /* \"#utility.yul\":36568:36722   */\n    tag_363:\n        /* \"#utility.yul\":36652:36658   */\n      dup3\n        /* \"#utility.yul\":36647:36650   */\n      dup2\n        /* \"#utility.yul\":36642:36645   */\n      dup4\n        /* \"#utility.yul\":36629:36659   */\n      calldatacopy\n        /* \"#utility.yul\":36714:36715   */\n      0x00\n        /* \"#utility.yul\":36705:36711   */\n      dup4\n        /* \"#utility.yul\":36700:36703   */\n      dup4\n        /* \"#utility.yul\":36696:36712   */\n      add\n        /* \"#utility.yul\":36689:36716   */\n      mstore\n        /* \"#utility.yul\":36619:36722   */\n      pop\n      pop\n      pop\n      jump\t// out\n        /* \"#utility.yul\":36728:37035   */\n    tag_499:\n        /* \"#utility.yul\":36796:36797   */\n      0x00\n        /* \"#utility.yul\":36806:36919   */\n    tag_714:\n        /* \"#utility.yul\":36820:36826   */\n      dup4\n        /* \"#utility.yul\":36817:36818   */\n      dup2\n        /* \"#utility.yul\":36814:36827   */\n      lt\n        /* \"#utility.yul\":36806:36919   */\n      iszero\n      tag_716\n      jumpi\n        /* \"#utility.yul\":36905:36906   */\n      dup1\n        /* \"#utility.yul\":36900:36903   */\n      dup3\n        /* \"#utility.yul\":36896:36907   */\n      add\n        /* \"#utility.yul\":36890:36908   */\n      mload\n        /* \"#utility.yul\":36886:36887   */\n      dup2\n        /* \"#utility.yul\":36881:36884   */\n      dup5\n        /* \"#utility.yul\":36877:36888   */\n      add\n        /* \"#utility.yul\":36870:36909   */\n      mstore\n        /* \"#utility.yul\":36842:36844   */\n      0x20\n        /* \"#utility.yul\":36839:36840   */\n      dup2\n        /* \"#utility.yul\":36835:36845   */\n      add\n        /* \"#utility.yul\":36830:36845   */\n      swap1\n      pop\n        /* \"#utility.yul\":36806:36919   */\n      jump(tag_714)\n    tag_716:\n        /* \"#utility.yul\":36937:36943   */\n      dup4\n        /* \"#utility.yul\":36934:36935   */\n      dup2\n        /* \"#utility.yul\":36931:36944   */\n      gt\n        /* \"#utility.yul\":36928:36930   */\n      iszero\n      tag_717\n      jumpi\n        /* \"#utility.yul\":37017:37018   */\n      0x00\n        /* \"#utility.yul\":37008:37014   */\n      dup5\n        /* \"#utility.yul\":37003:37006   */\n      dup5\n        /* \"#utility.yul\":36999:37015   */\n      add\n        /* \"#utility.yul\":36992:37019   */\n      mstore\n        /* \"#utility.yul\":36928:36930   */\n    tag_717:\n        /* \"#utility.yul\":36777:37035   */\n      pop\n      pop\n      pop\n      pop\n      jump\t// out\n        /* \"#utility.yul\":37041:37361   */\n    tag_278:\n      0x00\n        /* \"#utility.yul\":37122:37123   */\n      0x02\n        /* \"#utility.yul\":37116:37120   */\n      dup3\n        /* \"#utility.yul\":37112:37124   */\n      div\n        /* \"#utility.yul\":37102:37124   */\n      swap1\n      pop\n        /* \"#utility.yul\":37169:37170   */\n      0x01\n        /* \"#utility.yul\":37163:37167   */\n      dup3\n        /* \"#utility.yul\":37159:37171   */\n      and\n        /* \"#utility.yul\":37190:37208   */\n      dup1\n        /* \"#utility.yul\":37180:37182   */\n      tag_719\n      jumpi\n        /* \"#utility.yul\":37246:37250   */\n      0x7f\n        /* \"#utility.yul\":37238:37244   */\n      dup3\n        /* \"#utility.yul\":37234:37251   */\n      and\n        /* \"#utility.yul\":37224:37251   */\n      swap2\n      pop\n        /* \"#utility.yul\":37180:37182   */\n    tag_719:\n        /* \"#utility.yul\":37308:37310   */\n      0x20\n        /* \"#utility.yul\":37300:37306   */\n      dup3\n        /* \"#utility.yul\":37297:37311   */\n      lt\n        /* \"#utility.yul\":37277:37295   */\n      dup2\n        /* \"#utility.yul\":37274:37312   */\n      eq\n        /* \"#utility.yul\":37271:37273   */\n      iszero\n      tag_720\n      jumpi\n        /* \"#utility.yul\":37327:37345   */\n      tag_721\n      tag_722\n      jump\t// in\n    tag_721:\n        /* \"#utility.yul\":37271:37273   */\n    tag_720:\n        /* \"#utility.yul\":37092:37361   */\n      pop\n      swap2\n      swap1\n      pop\n      jump\t// out\n        /* \"#utility.yul\":37367:37547   */\n    tag_685:\n        /* \"#utility.yul\":37415:37492   */\n      0x4e487b7100000000000000000000000000000000000000000000000000000000\n        /* \"#utility.yul\":37412:37413   */\n      0x00\n        /* \"#utility.yul\":37405:37493   */\n      mstore\n        /* \"#utility.yul\":37512:37516   */\n      0x11\n        /* \"#utility.yul\":37509:37510   */\n      0x04\n        /* \"#utility.yul\":37502:37517   */\n      mstore\n        /* \"#utility.yul\":37536:37540   */\n      0x24\n        /* \"#utility.yul\":37533:37534   */\n      0x00\n        /* \"#utility.yul\":37526:37541   */\n      revert\n        /* \"#utility.yul\":37553:37733   */\n    tag_691:\n        /* \"#utility.yul\":37601:37678   */\n      0x4e487b7100000000000000000000000000000000000000000000000000000000\n        /* \"#utility.yul\":37598:37599   */\n      0x00\n        /* \"#utility.yul\":37591:37679   */\n      mstore\n        /* \"#utility.yul\":37698:37702   */\n      0x12\n        /* \"#utility.yul\":37695:37696   */\n      0x04\n        /* \"#utility.yul\":37688:37703   */\n      mstore\n        /* \"#utility.yul\":37722:37726   */\n      0x24\n        /* \"#utility.yul\":37719:37720   */\n      0x00\n        /* \"#utility.yul\":37712:37727   */\n      revert\n        /* \"#utility.yul\":37739:37919   */\n    tag_722:\n        /* \"#utility.yul\":37787:37864   */\n      0x4e487b7100000000000000000000000000000000000000000000000000000000\n        /* \"#utility.yul\":37784:37785   */\n      0x00\n        /* \"#utility.yul\":37777:37865   */\n      mstore\n        /* \"#utility.yul\":37884:37888   */\n      0x22\n        /* \"#utility.yul\":37881:37882   */\n      0x04\n        /* \"#utility.yul\":37874:37889   */\n      mstore\n        /* \"#utility.yul\":37908:37912   */\n      0x24\n        /* \"#utility.yul\":37905:37906   */\n      0x00\n        /* \"#utility.yul\":37898:37913   */\n      revert\n        /* \"#utility.yul\":37925:38105   */\n    tag_656:\n        /* \"#utility.yul\":37973:38050   */\n      0x4e487b7100000000000000000000000000000000000000000000000000000000\n        /* \"#utility.yul\":37970:37971   */\n      0x00\n        /* \"#utility.yul\":37963:38051   */\n      mstore\n        /* \"#utility.yul\":38070:38074   */\n      0x41\n        /* \"#utility.yul\":38067:38068   */\n      0x04\n        /* \"#utility.yul\":38060:38075   */\n      mstore\n        /* \"#utility.yul\":38094:38098   */\n      0x24\n        /* \"#utility.yul\":38091:38092   */\n      0x00\n        /* \"#utility.yul\":38084:38099   */\n      revert\n        /* \"#utility.yul\":38111:38213   */\n    tag_501:\n      0x00\n        /* \"#utility.yul\":38203:38205   */\n      0x1f\n        /* \"#utility.yul\":38199:38206   */\n      not\n        /* \"#utility.yul\":38194:38196   */\n      0x1f\n        /* \"#utility.yul\":38187:38192   */\n      dup4\n        /* \"#utility.yul\":38183:38197   */\n      add\n        /* \"#utility.yul\":38179:38207   */\n      and\n        /* \"#utility.yul\":38169:38207   */\n      swap1\n      pop\n        /* \"#utility.yul\":38159:38213   */\n      swap2\n      swap1\n      pop\n      jump\t// out\n        /* \"#utility.yul\":38219:38341   */\n    tag_366:\n        /* \"#utility.yul\":38292:38316   */\n      tag_729\n        /* \"#utility.yul\":38310:38315   */\n      dup2\n        /* \"#utility.yul\":38292:38316   */\n      tag_456\n      jump\t// in\n    tag_729:\n        /* \"#utility.yul\":38285:38290   */\n      dup2\n        /* \"#utility.yul\":38282:38317   */\n      eq\n        /* \"#utility.yul\":38272:38274   */\n      tag_730\n      jumpi\n        /* \"#utility.yul\":38331:38332   */\n      0x00\n        /* \"#utility.yul\":38328:38329   */\n      dup1\n        /* \"#utility.yul\":38321:38333   */\n      revert\n        /* \"#utility.yul\":38272:38274   */\n    tag_730:\n        /* \"#utility.yul\":38262:38341   */\n      pop\n      jump\t// out\n        /* \"#utility.yul\":38347:38485   */\n    tag_370:\n        /* \"#utility.yul\":38428:38460   */\n      tag_732\n        /* \"#utility.yul\":38454:38459   */\n      dup2\n        /* \"#utility.yul\":38428:38460   */\n      tag_705\n      jump\t// in\n    tag_732:\n        /* \"#utility.yul\":38421:38426   */\n      dup2\n        /* \"#utility.yul\":38418:38461   */\n      eq\n        /* \"#utility.yul\":38408:38410   */\n      tag_733\n      jumpi\n        /* \"#utility.yul\":38475:38476   */\n      0x00\n        /* \"#utility.yul\":38472:38473   */\n      dup1\n        /* \"#utility.yul\":38465:38477   */\n      revert\n        /* \"#utility.yul\":38408:38410   */\n    tag_733:\n        /* \"#utility.yul\":38398:38485   */\n      pop\n      jump\t// out\n        /* \"#utility.yul\":38491:38607   */\n    tag_386:\n        /* \"#utility.yul\":38561:38582   */\n      tag_735\n        /* \"#utility.yul\":38576:38581   */\n      dup2\n        /* \"#utility.yul\":38561:38582   */\n      tag_491\n      jump\t// in\n    tag_735:\n        /* \"#utility.yul\":38554:38559   */\n      dup2\n        /* \"#utility.yul\":38551:38583   */\n      eq\n        /* \"#utility.yul\":38541:38543   */\n      tag_736\n      jumpi\n        /* \"#utility.yul\":38597:38598   */\n      0x00\n        /* \"#utility.yul\":38594:38595   */\n      dup1\n        /* \"#utility.yul\":38587:38599   */\n      revert\n        /* \"#utility.yul\":38541:38543   */\n    tag_736:\n        /* \"#utility.yul\":38531:38607   */\n      pop\n      jump\t// out\n        /* \"#utility.yul\":38613:38725   */\n    tag_390:\n        /* \"#utility.yul\":38699:38700   */\n      0x03\n        /* \"#utility.yul\":38692:38697   */\n      dup2\n        /* \"#utility.yul\":38689:38701   */\n      lt\n        /* \"#utility.yul\":38679:38681   */\n      tag_738\n      jumpi\n        /* \"#utility.yul\":38715:38716   */\n      0x00\n        /* \"#utility.yul\":38712:38713   */\n      dup1\n        /* \"#utility.yul\":38705:38717   */\n      revert\n        /* \"#utility.yul\":38679:38681   */\n    tag_738:\n        /* \"#utility.yul\":38669:38725   */\n      pop\n      jump\t// out\n        /* \"#utility.yul\":38731:38853   */\n    tag_397:\n        /* \"#utility.yul\":38804:38828   */\n      tag_740\n        /* \"#utility.yul\":38822:38827   */\n      dup2\n        /* \"#utility.yul\":38804:38828   */\n      tag_576\n      jump\t// in\n    tag_740:\n        /* \"#utility.yul\":38797:38802   */\n      dup2\n        /* \"#utility.yul\":38794:38829   */\n      eq\n        /* \"#utility.yul\":38784:38786   */\n      tag_741\n      jumpi\n        /* \"#utility.yul\":38843:38844   */\n      0x00\n        /* \"#utility.yul\":38840:38841   */\n      dup1\n        /* \"#utility.yul\":38833:38845   */\n      revert\n        /* \"#utility.yul\":38784:38786   */\n    tag_741:\n        /* \"#utility.yul\":38774:38853   */\n      pop\n      jump\t// out\n    stop\n\n    sub_0: assembly {\n            /* \"contracts/InitializedProxy.sol\":202:1861  contract InitializedProxy {\r... */\n          mstore(0x40, 0x80)\n            /* \"contracts/InitializedProxy.sol\":516:1083  constructor(\r... */\n          callvalue\n          dup1\n          iszero\n          tag_1\n          jumpi\n          0x00\n          dup1\n          revert\n        tag_1:\n          pop\n          mload(0x40)\n          sub(codesize, bytecodeSize)\n          dup1\n          bytecodeSize\n          dup4\n          codecopy\n          dup2\n          dup2\n          add\n          0x40\n          mstore\n          dup2\n          add\n          swap1\n          tag_2\n          swap2\n          swap1\n          tag_3\n          jump\t// in\n        tag_2:\n            /* \"contracts/InitializedProxy.sol\":642:643  0 */\n          0x00\n            /* \"contracts/InitializedProxy.sol\":625:644  logic != address(0) */\n          0xffffffffffffffffffffffffffffffffffffffff\n          and\n            /* \"contracts/InitializedProxy.sol\":625:630  logic */\n          dup3\n            /* \"contracts/InitializedProxy.sol\":625:644  logic != address(0) */\n          0xffffffffffffffffffffffffffffffffffffffff\n          and\n          eq\n          iszero\n            /* \"contracts/InitializedProxy.sol\":617:699  require(logic != address(0),\"Proxy :: Logical contracts cannot be zero addresses\") */\n          tag_6\n          jumpi\n          mload(0x40)\n          0x08c379a000000000000000000000000000000000000000000000000000000000\n          dup2\n          mstore\n          0x04\n          add\n          tag_7\n          swap1\n          tag_8\n          jump\t// in\n        tag_7:\n          mload(0x40)\n          dup1\n          swap2\n          sub\n          swap1\n          revert\n        tag_6:\n            /* \"contracts/InitializedProxy.sol\":778:783  logic */\n          dup2\n            /* \"contracts/InitializedProxy.sol\":710:769  StorageSlotUpgradeable.getAddressSlot(_IMPLEMENTATION_SLOT) */\n          tag_9\n            /* \"contracts/InitializedProxy.sol\":402:468  0x5f62ce3c9aebd463c7a36ab1b244d2bb94f07a2c13889b3b687940ebc467b9b3 */\n          0x5f62ce3c9aebd463c7a36ab1b244d2bb94f07a2c13889b3b687940ebc467b9b3\n            /* \"contracts/InitializedProxy.sol\":748:768  _IMPLEMENTATION_SLOT */\n          0x00\n          shl\n            /* \"contracts/InitializedProxy.sol\":710:747  StorageSlotUpgradeable.getAddressSlot */\n          or(tag_0_8, shl(0x20, tag_10))\n            /* \"contracts/InitializedProxy.sol\":710:769  StorageSlotUpgradeable.getAddressSlot(_IMPLEMENTATION_SLOT) */\n          0x20\n          shr\n          jump\t// in\n        tag_9:\n            /* \"contracts/InitializedProxy.sol\":710:775  StorageSlotUpgradeable.getAddressSlot(_IMPLEMENTATION_SLOT).value */\n          0x00\n          add\n          0x00\n            /* \"contracts/InitializedProxy.sol\":710:783  StorageSlotUpgradeable.getAddressSlot(_IMPLEMENTATION_SLOT).value = logic */\n          0x0100\n          exp\n          dup2\n          sload\n          dup2\n          0xffffffffffffffffffffffffffffffffffffffff\n          mul\n          not\n          and\n          swap1\n          dup4\n          0xffffffffffffffffffffffffffffffffffffffff\n          and\n          mul\n          or\n          swap1\n          sstore\n          pop\n            /* \"contracts/InitializedProxy.sol\":879:887  bool _ok */\n          0x00\n            /* \"contracts/InitializedProxy.sol\":889:912  bytes memory returnData */\n          dup1\n            /* \"contracts/InitializedProxy.sol\":929:934  logic */\n          dup4\n            /* \"contracts/InitializedProxy.sol\":929:947  logic.delegatecall */\n          0xffffffffffffffffffffffffffffffffffffffff\n          and\n            /* \"contracts/InitializedProxy.sol\":948:970  initializationCalldata */\n          dup4\n            /* \"contracts/InitializedProxy.sol\":929:971  logic.delegatecall(initializationCalldata) */\n          mload(0x40)\n          tag_11\n          swap2\n          swap1\n          tag_12\n          jump\t// in\n        tag_11:\n          0x00\n          mload(0x40)\n          dup1\n          dup4\n          sub\n          dup2\n          dup6\n          gas\n          delegatecall\n          swap2\n          pop\n          pop\n          returndatasize\n          dup1\n          0x00\n          dup2\n          eq\n          tag_15\n          jumpi\n          mload(0x40)\n          swap2\n          pop\n          and(add(returndatasize, 0x3f), not(0x1f))\n          dup3\n          add\n          0x40\n          mstore\n          returndatasize\n          dup3\n          mstore\n          returndatasize\n          0x00\n          0x20\n          dup5\n          add\n          returndatacopy\n          jump(tag_14)\n        tag_15:\n          0x60\n          swap2\n          pop\n        tag_14:\n          pop\n            /* \"contracts/InitializedProxy.sol\":878:971  (bool _ok, bytes memory returnData) =\r... */\n          swap2\n          pop\n          swap2\n          pop\n            /* \"contracts/InitializedProxy.sol\":1051:1054  _ok */\n          dup2\n            /* \"contracts/InitializedProxy.sol\":1063:1073  returnData */\n          dup2\n            /* \"contracts/InitializedProxy.sol\":1043:1075  require(_ok, string(returnData)) */\n          swap1\n          tag_16\n          jumpi\n          mload(0x40)\n          0x08c379a000000000000000000000000000000000000000000000000000000000\n          dup2\n          mstore\n          0x04\n          add\n          tag_17\n          swap2\n          swap1\n          tag_18\n          jump\t// in\n        tag_17:\n          mload(0x40)\n          dup1\n          swap2\n          sub\n          swap1\n          revert\n        tag_16:\n          pop\n            /* \"contracts/InitializedProxy.sol\":516:1083  constructor(\r... */\n          pop\n          pop\n          pop\n          pop\n            /* \"contracts/InitializedProxy.sol\":202:1861  contract InitializedProxy {\r... */\n          jump(tag_19)\n            /* \"@openzeppelin/contracts-upgradeable/utils/StorageSlotUpgradeable.sol\":1553:1700  function getAddressSlot(bytes32 slot) internal pure returns (AddressSlot storage r) {... */\n        tag_10:\n            /* \"@openzeppelin/contracts-upgradeable/utils/StorageSlotUpgradeable.sol\":1614:1635  AddressSlot storage r */\n          0x00\n            /* \"@openzeppelin/contracts-upgradeable/utils/StorageSlotUpgradeable.sol\":1680:1684  slot */\n          dup2\n            /* \"@openzeppelin/contracts-upgradeable/utils/StorageSlotUpgradeable.sol\":1670:1684  r.slot := slot */\n          swap1\n          pop\n            /* \"@openzeppelin/contracts-upgradeable/utils/StorageSlotUpgradeable.sol\":1656:1694  {... */\n          swap2\n          swap1\n          pop\n          jump\t// out\n            /* \"#utility.yul\":7:358   */\n        tag_22:\n          0x00\n            /* \"#utility.yul\":120:184   */\n          tag_24\n            /* \"#utility.yul\":135:183   */\n          tag_25\n            /* \"#utility.yul\":176:182   */\n          dup5\n            /* \"#utility.yul\":135:183   */\n          tag_26\n          jump\t// in\n        tag_25:\n            /* \"#utility.yul\":120:184   */\n          tag_27\n          jump\t// in\n        tag_24:\n            /* \"#utility.yul\":111:184   */\n          swap1\n          pop\n            /* \"#utility.yul\":207:213   */\n          dup3\n            /* \"#utility.yul\":200:205   */\n          dup2\n            /* \"#utility.yul\":193:214   */\n          mstore\n            /* \"#utility.yul\":245:249   */\n          0x20\n            /* \"#utility.yul\":238:243   */\n          dup2\n            /* \"#utility.yul\":234:250   */\n          add\n            /* \"#utility.yul\":283:286   */\n          dup5\n            /* \"#utility.yul\":274:280   */\n          dup5\n            /* \"#utility.yul\":269:272   */\n          dup5\n            /* \"#utility.yul\":265:281   */\n          add\n            /* \"#utility.yul\":262:287   */\n          gt\n            /* \"#utility.yul\":259:261   */\n          iszero\n          tag_28\n          jumpi\n            /* \"#utility.yul\":300:301   */\n          0x00\n            /* \"#utility.yul\":297:298   */\n          dup1\n            /* \"#utility.yul\":290:302   */\n          revert\n            /* \"#utility.yul\":259:261   */\n        tag_28:\n            /* \"#utility.yul\":313:352   */\n          tag_29\n            /* \"#utility.yul\":345:351   */\n          dup5\n            /* \"#utility.yul\":340:343   */\n          dup3\n            /* \"#utility.yul\":335:338   */\n          dup6\n            /* \"#utility.yul\":313:352   */\n          tag_30\n          jump\t// in\n        tag_29:\n            /* \"#utility.yul\":101:358   */\n          pop\n          swap4\n          swap3\n          pop\n          pop\n          pop\n          jump\t// out\n            /* \"#utility.yul\":364:507   */\n        tag_31:\n          0x00\n            /* \"#utility.yul\":452:458   */\n          dup2\n            /* \"#utility.yul\":446:459   */\n          mload\n            /* \"#utility.yul\":437:459   */\n          swap1\n          pop\n            /* \"#utility.yul\":468:501   */\n          tag_33\n            /* \"#utility.yul\":495:500   */\n          dup2\n            /* \"#utility.yul\":468:501   */\n          tag_34\n          jump\t// in\n        tag_33:\n            /* \"#utility.yul\":427:507   */\n          swap3\n          swap2\n          pop\n          pop\n          jump\t// out\n            /* \"#utility.yul\":526:812   */\n        tag_35:\n          0x00\n            /* \"#utility.yul\":641:644   */\n          dup3\n            /* \"#utility.yul\":634:638   */\n          0x1f\n            /* \"#utility.yul\":626:632   */\n          dup4\n            /* \"#utility.yul\":622:639   */\n          add\n            /* \"#utility.yul\":618:645   */\n          slt\n            /* \"#utility.yul\":608:610   */\n          tag_37\n          jumpi\n            /* \"#utility.yul\":659:660   */\n          0x00\n            /* \"#utility.yul\":656:657   */\n          dup1\n            /* \"#utility.yul\":649:661   */\n          revert\n            /* \"#utility.yul\":608:610   */\n        tag_37:\n            /* \"#utility.yul\":692:698   */\n          dup2\n            /* \"#utility.yul\":686:699   */\n          mload\n            /* \"#utility.yul\":717:806   */\n          tag_38\n            /* \"#utility.yul\":802:805   */\n          dup5\n            /* \"#utility.yul\":794:800   */\n          dup3\n            /* \"#utility.yul\":787:791   */\n          0x20\n            /* \"#utility.yul\":779:785   */\n          dup7\n            /* \"#utility.yul\":775:792   */\n          add\n            /* \"#utility.yul\":717:806   */\n          tag_22\n          jump\t// in\n        tag_38:\n            /* \"#utility.yul\":708:806   */\n          swap2\n          pop\n            /* \"#utility.yul\":598:812   */\n          pop\n          swap3\n          swap2\n          pop\n          pop\n          jump\t// out\n            /* \"#utility.yul\":818:1362   */\n        tag_3:\n          0x00\n          dup1\n            /* \"#utility.yul\":963:965   */\n          0x40\n            /* \"#utility.yul\":951:960   */\n          dup4\n            /* \"#utility.yul\":942:949   */\n          dup6\n            /* \"#utility.yul\":938:961   */\n          sub\n            /* \"#utility.yul\":934:966   */\n          slt\n            /* \"#utility.yul\":931:933   */\n          iszero\n          tag_40\n          jumpi\n            /* \"#utility.yul\":979:980   */\n          0x00\n            /* \"#utility.yul\":976:977   */\n          dup1\n            /* \"#utility.yul\":969:981   */\n          revert\n            /* \"#utility.yul\":931:933   */\n        tag_40:\n            /* \"#utility.yul\":1022:1023   */\n          0x00\n            /* \"#utility.yul\":1047:1111   */\n          tag_41\n            /* \"#utility.yul\":1103:1110   */\n          dup6\n            /* \"#utility.yul\":1094:1100   */\n          dup3\n            /* \"#utility.yul\":1083:1092   */\n          dup7\n            /* \"#utility.yul\":1079:1101   */\n          add\n            /* \"#utility.yul\":1047:1111   */\n          tag_31\n          jump\t// in\n        tag_41:\n            /* \"#utility.yul\":1037:1111   */\n          swap3\n          pop\n            /* \"#utility.yul\":993:1121   */\n          pop\n            /* \"#utility.yul\":1181:1183   */\n          0x20\n            /* \"#utility.yul\":1170:1179   */\n          dup4\n            /* \"#utility.yul\":1166:1184   */\n          add\n            /* \"#utility.yul\":1160:1185   */\n          mload\n            /* \"#utility.yul\":1212:1230   */\n          0xffffffffffffffff\n            /* \"#utility.yul\":1204:1210   */\n          dup2\n            /* \"#utility.yul\":1201:1231   */\n          gt\n            /* \"#utility.yul\":1198:1200   */\n          iszero\n          tag_42\n          jumpi\n            /* \"#utility.yul\":1244:1245   */\n          0x00\n            /* \"#utility.yul\":1241:1242   */\n          dup1\n            /* \"#utility.yul\":1234:1246   */\n          revert\n            /* \"#utility.yul\":1198:1200   */\n        tag_42:\n            /* \"#utility.yul\":1272:1345   */\n          tag_43\n            /* \"#utility.yul\":1337:1344   */\n          dup6\n            /* \"#utility.yul\":1328:1334   */\n          dup3\n            /* \"#utility.yul\":1317:1326   */\n          dup7\n            /* \"#utility.yul\":1313:1335   */\n          add\n            /* \"#utility.yul\":1272:1345   */\n          tag_35\n          jump\t// in\n        tag_43:\n            /* \"#utility.yul\":1262:1345   */\n          swap2\n          pop\n            /* \"#utility.yul\":1131:1355   */\n          pop\n            /* \"#utility.yul\":921:1362   */\n          swap3\n          pop\n          swap3\n          swap1\n          pop\n          jump\t// out\n            /* \"#utility.yul\":1368:1741   */\n        tag_44:\n          0x00\n            /* \"#utility.yul\":1500:1538   */\n          tag_46\n            /* \"#utility.yul\":1532:1537   */\n          dup3\n            /* \"#utility.yul\":1500:1538   */\n          tag_47\n          jump\t// in\n        tag_46:\n            /* \"#utility.yul\":1554:1642   */\n          tag_48\n            /* \"#utility.yul\":1635:1641   */\n          dup2\n            /* \"#utility.yul\":1630:1633   */\n          dup6\n            /* \"#utility.yul\":1554:1642   */\n          tag_49\n          jump\t// in\n        tag_48:\n            /* \"#utility.yul\":1547:1642   */\n          swap4\n          pop\n            /* \"#utility.yul\":1651:1703   */\n          tag_50\n            /* \"#utility.yul\":1696:1702   */\n          dup2\n            /* \"#utility.yul\":1691:1694   */\n          dup6\n            /* \"#utility.yul\":1684:1688   */\n          0x20\n            /* \"#utility.yul\":1677:1682   */\n          dup7\n            /* \"#utility.yul\":1673:1689   */\n          add\n            /* \"#utility.yul\":1651:1703   */\n          tag_30\n          jump\t// in\n        tag_50:\n            /* \"#utility.yul\":1728:1734   */\n          dup1\n            /* \"#utility.yul\":1723:1726   */\n          dup5\n            /* \"#utility.yul\":1719:1735   */\n          add\n            /* \"#utility.yul\":1712:1735   */\n          swap2\n          pop\n            /* \"#utility.yul\":1476:1741   */\n          pop\n          swap3\n          swap2\n          pop\n          pop\n          jump\t// out\n            /* \"#utility.yul\":1747:2111   */\n        tag_51:\n          0x00\n            /* \"#utility.yul\":1863:1902   */\n          tag_53\n            /* \"#utility.yul\":1896:1901   */\n          dup3\n            /* \"#utility.yul\":1863:1902   */\n          tag_54\n          jump\t// in\n        tag_53:\n            /* \"#utility.yul\":1918:1989   */\n          tag_55\n            /* \"#utility.yul\":1982:1988   */\n          dup2\n            /* \"#utility.yul\":1977:1980   */\n          dup6\n            /* \"#utility.yul\":1918:1989   */\n          tag_56\n          jump\t// in\n        tag_55:\n            /* \"#utility.yul\":1911:1989   */\n          swap4\n          pop\n            /* \"#utility.yul\":1998:2050   */\n          tag_57\n            /* \"#utility.yul\":2043:2049   */\n          dup2\n            /* \"#utility.yul\":2038:2041   */\n          dup6\n            /* \"#utility.yul\":2031:2035   */\n          0x20\n            /* \"#utility.yul\":2024:2029   */\n          dup7\n            /* \"#utility.yul\":2020:2036   */\n          add\n            /* \"#utility.yul\":1998:2050   */\n          tag_30\n          jump\t// in\n        tag_57:\n            /* \"#utility.yul\":2075:2104   */\n          tag_58\n            /* \"#utility.yul\":2097:2103   */\n          dup2\n            /* \"#utility.yul\":2075:2104   */\n          tag_59\n          jump\t// in\n        tag_58:\n            /* \"#utility.yul\":2070:2073   */\n          dup5\n            /* \"#utility.yul\":2066:2105   */\n          add\n            /* \"#utility.yul\":2059:2105   */\n          swap2\n          pop\n            /* \"#utility.yul\":1839:2111   */\n          pop\n          swap3\n          swap2\n          pop\n          pop\n          jump\t// out\n            /* \"#utility.yul\":2117:2500   */\n        tag_60:\n          0x00\n            /* \"#utility.yul\":2280:2347   */\n          tag_62\n            /* \"#utility.yul\":2344:2346   */\n          0x33\n            /* \"#utility.yul\":2339:2342   */\n          dup4\n            /* \"#utility.yul\":2280:2347   */\n          tag_56\n          jump\t// in\n        tag_62:\n            /* \"#utility.yul\":2273:2347   */\n          swap2\n          pop\n            /* \"#utility.yul\":2377:2411   */\n          0x50726f7879203a3a204c6f676963616c20636f6e7472616374732063616e6e6f\n            /* \"#utility.yul\":2373:2374   */\n          0x00\n            /* \"#utility.yul\":2368:2371   */\n          dup4\n            /* \"#utility.yul\":2364:2375   */\n          add\n            /* \"#utility.yul\":2357:2412   */\n          mstore\n            /* \"#utility.yul\":2443:2464   */\n          0x74206265207a65726f2061646472657373657300000000000000000000000000\n            /* \"#utility.yul\":2438:2440   */\n          0x20\n            /* \"#utility.yul\":2433:2436   */\n          dup4\n            /* \"#utility.yul\":2429:2441   */\n          add\n            /* \"#utility.yul\":2422:2465   */\n          mstore\n            /* \"#utility.yul\":2491:2493   */\n          0x40\n            /* \"#utility.yul\":2486:2489   */\n          dup3\n            /* \"#utility.yul\":2482:2494   */\n          add\n            /* \"#utility.yul\":2475:2494   */\n          swap1\n          pop\n            /* \"#utility.yul\":2263:2500   */\n          swap2\n          swap1\n          pop\n          jump\t// out\n            /* \"#utility.yul\":2506:2777   */\n        tag_12:\n          0x00\n            /* \"#utility.yul\":2658:2751   */\n          tag_64\n            /* \"#utility.yul\":2747:2750   */\n          dup3\n            /* \"#utility.yul\":2738:2744   */\n          dup5\n            /* \"#utility.yul\":2658:2751   */\n          tag_44\n          jump\t// in\n        tag_64:\n            /* \"#utility.yul\":2651:2751   */\n          swap2\n          pop\n            /* \"#utility.yul\":2768:2771   */\n          dup2\n            /* \"#utility.yul\":2761:2771   */\n          swap1\n          pop\n            /* \"#utility.yul\":2640:2777   */\n          swap3\n          swap2\n          pop\n          pop\n          jump\t// out\n            /* \"#utility.yul\":2783:3096   */\n        tag_18:\n          0x00\n            /* \"#utility.yul\":2934:2936   */\n          0x20\n            /* \"#utility.yul\":2923:2932   */\n          dup3\n            /* \"#utility.yul\":2919:2937   */\n          add\n            /* \"#utility.yul\":2911:2937   */\n          swap1\n          pop\n            /* \"#utility.yul\":2983:2992   */\n          dup2\n            /* \"#utility.yul\":2977:2981   */\n          dup2\n            /* \"#utility.yul\":2973:2993   */\n          sub\n            /* \"#utility.yul\":2969:2970   */\n          0x00\n            /* \"#utility.yul\":2958:2967   */\n          dup4\n            /* \"#utility.yul\":2954:2971   */\n          add\n            /* \"#utility.yul\":2947:2994   */\n          mstore\n            /* \"#utility.yul\":3011:3089   */\n          tag_66\n            /* \"#utility.yul\":3084:3088   */\n          dup2\n            /* \"#utility.yul\":3075:3081   */\n          dup5\n            /* \"#utility.yul\":3011:3089   */\n          tag_51\n          jump\t// in\n        tag_66:\n            /* \"#utility.yul\":3003:3089   */\n          swap1\n          pop\n            /* \"#utility.yul\":2901:3096   */\n          swap3\n          swap2\n          pop\n          pop\n          jump\t// out\n            /* \"#utility.yul\":3102:3521   */\n        tag_8:\n          0x00\n            /* \"#utility.yul\":3306:3308   */\n          0x20\n            /* \"#utility.yul\":3295:3304   */\n          dup3\n            /* \"#utility.yul\":3291:3309   */\n          add\n            /* \"#utility.yul\":3283:3309   */\n          swap1\n          pop\n            /* \"#utility.yul\":3355:3364   */\n          dup2\n            /* \"#utility.yul\":3349:3353   */\n          dup2\n            /* \"#utility.yul\":3345:3365   */\n          sub\n            /* \"#utility.yul\":3341:3342   */\n          0x00\n            /* \"#utility.yul\":3330:3339   */\n          dup4\n            /* \"#utility.yul\":3326:3343   */\n          add\n            /* \"#utility.yul\":3319:3366   */\n          mstore\n            /* \"#utility.yul\":3383:3514   */\n          tag_68\n            /* \"#utility.yul\":3509:3513   */\n          dup2\n            /* \"#utility.yul\":3383:3514   */\n          tag_60\n          jump\t// in\n        tag_68:\n            /* \"#utility.yul\":3375:3514   */\n          swap1\n          pop\n            /* \"#utility.yul\":3273:3521   */\n          swap2\n          swap1\n          pop\n          jump\t// out\n            /* \"#utility.yul\":3527:3810   */\n        tag_27:\n          0x00\n            /* \"#utility.yul\":3593:3595   */\n          0x40\n            /* \"#utility.yul\":3587:3596   */\n          mload\n            /* \"#utility.yul\":3577:3596   */\n          swap1\n          pop\n            /* \"#utility.yul\":3635:3639   */\n          dup2\n            /* \"#utility.yul\":3627:3633   */\n          dup2\n            /* \"#utility.yul\":3623:3640   */\n          add\n            /* \"#utility.yul\":3742:3748   */\n          dup2\n            /* \"#utility.yul\":3730:3740   */\n          dup2\n            /* \"#utility.yul\":3727:3749   */\n          lt\n            /* \"#utility.yul\":3706:3724   */\n          0xffffffffffffffff\n            /* \"#utility.yul\":3694:3704   */\n          dup3\n            /* \"#utility.yul\":3691:3725   */\n          gt\n            /* \"#utility.yul\":3688:3750   */\n          or\n            /* \"#utility.yul\":3685:3687   */\n          iszero\n          tag_70\n          jumpi\n            /* \"#utility.yul\":3753:3771   */\n          tag_71\n          tag_72\n          jump\t// in\n        tag_71:\n            /* \"#utility.yul\":3685:3687   */\n        tag_70:\n            /* \"#utility.yul\":3793:3803   */\n          dup1\n            /* \"#utility.yul\":3789:3791   */\n          0x40\n            /* \"#utility.yul\":3782:3804   */\n          mstore\n            /* \"#utility.yul\":3567:3810   */\n          pop\n          swap2\n          swap1\n          pop\n          jump\t// out\n            /* \"#utility.yul\":3816:4147   */\n        tag_26:\n          0x00\n            /* \"#utility.yul\":3967:3985   */\n          0xffffffffffffffff\n            /* \"#utility.yul\":3959:3965   */\n          dup3\n            /* \"#utility.yul\":3956:3986   */\n          gt\n            /* \"#utility.yul\":3953:3955   */\n          iszero\n          tag_74\n          jumpi\n            /* \"#utility.yul\":3989:4007   */\n          tag_75\n          tag_72\n          jump\t// in\n        tag_75:\n            /* \"#utility.yul\":3953:3955   */\n        tag_74:\n            /* \"#utility.yul\":4074:4078   */\n          0x1f\n            /* \"#utility.yul\":4070:4079   */\n          not\n            /* \"#utility.yul\":4063:4067   */\n          0x1f\n            /* \"#utility.yul\":4055:4061   */\n          dup4\n            /* \"#utility.yul\":4051:4068   */\n          add\n            /* \"#utility.yul\":4047:4080   */\n          and\n            /* \"#utility.yul\":4039:4080   */\n          swap1\n          pop\n            /* \"#utility.yul\":4135:4139   */\n          0x20\n            /* \"#utility.yul\":4129:4133   */\n          dup2\n            /* \"#utility.yul\":4125:4140   */\n          add\n            /* \"#utility.yul\":4117:4140   */\n          swap1\n          pop\n            /* \"#utility.yul\":3882:4147   */\n          swap2\n          swap1\n          pop\n          jump\t// out\n            /* \"#utility.yul\":4153:4251   */\n        tag_47:\n          0x00\n            /* \"#utility.yul\":4238:4243   */\n          dup2\n            /* \"#utility.yul\":4232:4244   */\n          mload\n            /* \"#utility.yul\":4222:4244   */\n          swap1\n          pop\n            /* \"#utility.yul\":4211:4251   */\n          swap2\n          swap1\n          pop\n          jump\t// out\n            /* \"#utility.yul\":4257:4356   */\n        tag_54:\n          0x00\n            /* \"#utility.yul\":4343:4348   */\n          dup2\n            /* \"#utility.yul\":4337:4349   */\n          mload\n            /* \"#utility.yul\":4327:4349   */\n          swap1\n          pop\n            /* \"#utility.yul\":4316:4356   */\n          swap2\n          swap1\n          pop\n          jump\t// out\n            /* \"#utility.yul\":4362:4509   */\n        tag_49:\n          0x00\n            /* \"#utility.yul\":4500:4503   */\n          dup2\n            /* \"#utility.yul\":4485:4503   */\n          swap1\n          pop\n            /* \"#utility.yul\":4475:4509   */\n          swap3\n          swap2\n          pop\n          pop\n          jump\t// out\n            /* \"#utility.yul\":4515:4684   */\n        tag_56:\n          0x00\n            /* \"#utility.yul\":4633:4639   */\n          dup3\n            /* \"#utility.yul\":4628:4631   */\n          dup3\n            /* \"#utility.yul\":4621:4640   */\n          mstore\n            /* \"#utility.yul\":4673:4677   */\n          0x20\n            /* \"#utility.yul\":4668:4671   */\n          dup3\n            /* \"#utility.yul\":4664:4678   */\n          add\n            /* \"#utility.yul\":4649:4678   */\n          swap1\n          pop\n            /* \"#utility.yul\":4611:4684   */\n          swap3\n          swap2\n          pop\n          pop\n          jump\t// out\n            /* \"#utility.yul\":4690:4786   */\n        tag_80:\n          0x00\n            /* \"#utility.yul\":4756:4780   */\n          tag_82\n            /* \"#utility.yul\":4774:4779   */\n          dup3\n            /* \"#utility.yul\":4756:4780   */\n          tag_83\n          jump\t// in\n        tag_82:\n            /* \"#utility.yul\":4745:4780   */\n          swap1\n          pop\n            /* \"#utility.yul\":4735:4786   */\n          swap2\n          swap1\n          pop\n          jump\t// out\n            /* \"#utility.yul\":4792:4918   */\n        tag_83:\n          0x00\n            /* \"#utility.yul\":4869:4911   */\n          0xffffffffffffffffffffffffffffffffffffffff\n            /* \"#utility.yul\":4862:4867   */\n          dup3\n            /* \"#utility.yul\":4858:4912   */\n          and\n            /* \"#utility.yul\":4847:4912   */\n          swap1\n          pop\n            /* \"#utility.yul\":4837:4918   */\n          swap2\n          swap1\n          pop\n          jump\t// out\n            /* \"#utility.yul\":4924:5231   */\n        tag_30:\n            /* \"#utility.yul\":4992:4993   */\n          0x00\n            /* \"#utility.yul\":5002:5115   */\n        tag_86:\n            /* \"#utility.yul\":5016:5022   */\n          dup4\n            /* \"#utility.yul\":5013:5014   */\n          dup2\n            /* \"#utility.yul\":5010:5023   */\n          lt\n            /* \"#utility.yul\":5002:5115   */\n          iszero\n          tag_88\n          jumpi\n            /* \"#utility.yul\":5101:5102   */\n          dup1\n            /* \"#utility.yul\":5096:5099   */\n          dup3\n            /* \"#utility.yul\":5092:5103   */\n          add\n            /* \"#utility.yul\":5086:5104   */\n          mload\n            /* \"#utility.yul\":5082:5083   */\n          dup2\n            /* \"#utility.yul\":5077:5080   */\n          dup5\n            /* \"#utility.yul\":5073:5084   */\n          add\n            /* \"#utility.yul\":5066:5105   */\n          mstore\n            /* \"#utility.yul\":5038:5040   */\n          0x20\n            /* \"#utility.yul\":5035:5036   */\n          dup2\n            /* \"#utility.yul\":5031:5041   */\n          add\n            /* \"#utility.yul\":5026:5041   */\n          swap1\n          pop\n            /* \"#utility.yul\":5002:5115   */\n          jump(tag_86)\n        tag_88:\n            /* \"#utility.yul\":5133:5139   */\n          dup4\n            /* \"#utility.yul\":5130:5131   */\n          dup2\n            /* \"#utility.yul\":5127:5140   */\n          gt\n            /* \"#utility.yul\":5124:5126   */\n          iszero\n          tag_89\n          jumpi\n            /* \"#utility.yul\":5213:5214   */\n          0x00\n            /* \"#utility.yul\":5204:5210   */\n          dup5\n            /* \"#utility.yul\":5199:5202   */\n          dup5\n            /* \"#utility.yul\":5195:5211   */\n          add\n            /* \"#utility.yul\":5188:5215   */\n          mstore\n            /* \"#utility.yul\":5124:5126   */\n        tag_89:\n            /* \"#utility.yul\":4973:5231   */\n          pop\n          pop\n          pop\n          pop\n          jump\t// out\n            /* \"#utility.yul\":5237:5417   */\n        tag_72:\n            /* \"#utility.yul\":5285:5362   */\n          0x4e487b7100000000000000000000000000000000000000000000000000000000\n            /* \"#utility.yul\":5282:5283   */\n          0x00\n            /* \"#utility.yul\":5275:5363   */\n          mstore\n            /* \"#utility.yul\":5382:5386   */\n          0x41\n            /* \"#utility.yul\":5379:5380   */\n          0x04\n            /* \"#utility.yul\":5372:5387   */\n          mstore\n            /* \"#utility.yul\":5406:5410   */\n          0x24\n            /* \"#utility.yul\":5403:5404   */\n          0x00\n            /* \"#utility.yul\":5396:5411   */\n          revert\n            /* \"#utility.yul\":5423:5525   */\n        tag_59:\n          0x00\n            /* \"#utility.yul\":5515:5517   */\n          0x1f\n            /* \"#utility.yul\":5511:5518   */\n          not\n            /* \"#utility.yul\":5506:5508   */\n          0x1f\n            /* \"#utility.yul\":5499:5504   */\n          dup4\n            /* \"#utility.yul\":5495:5509   */\n          add\n            /* \"#utility.yul\":5491:5519   */\n          and\n            /* \"#utility.yul\":5481:5519   */\n          swap1\n          pop\n            /* \"#utility.yul\":5471:5525   */\n          swap2\n          swap1\n          pop\n          jump\t// out\n            /* \"#utility.yul\":5531:5653   */\n        tag_34:\n            /* \"#utility.yul\":5604:5628   */\n          tag_93\n            /* \"#utility.yul\":5622:5627   */\n          dup2\n            /* \"#utility.yul\":5604:5628   */\n          tag_80\n          jump\t// in\n        tag_93:\n            /* \"#utility.yul\":5597:5602   */\n          dup2\n            /* \"#utility.yul\":5594:5629   */\n          eq\n            /* \"#utility.yul\":5584:5586   */\n          tag_94\n          jumpi\n            /* \"#utility.yul\":5643:5644   */\n          0x00\n            /* \"#utility.yul\":5640:5641   */\n          dup1\n            /* \"#utility.yul\":5633:5645   */\n          revert\n            /* \"#utility.yul\":5584:5586   */\n        tag_94:\n            /* \"#utility.yul\":5574:5653   */\n          pop\n          jump\t// out\n            /* \"contracts/InitializedProxy.sol\":202:1861  contract InitializedProxy {\r... */\n        tag_19:\n          dataSize(sub_0)\n          dup1\n          dataOffset(sub_0)\n          0x00\n          codecopy\n          0x00\n          return\n        stop\n\n        sub_0: assembly {\n                /* \"contracts/InitializedProxy.sol\":202:1861  contract InitializedProxy {\r... */\n              mstore(0x40, 0x80)\n              jumpi(tag_2, calldatasize)\n              stop\n            tag_2:\n                /* \"contracts/InitializedProxy.sol\":1175:1188  address _impl */\n              0x00\n                /* \"contracts/InitializedProxy.sol\":1191:1250  StorageSlotUpgradeable.getAddressSlot(_IMPLEMENTATION_SLOT) */\n              tag_7\n                /* \"contracts/InitializedProxy.sol\":402:468  0x5f62ce3c9aebd463c7a36ab1b244d2bb94f07a2c13889b3b687940ebc467b9b3 */\n              0x5f62ce3c9aebd463c7a36ab1b244d2bb94f07a2c13889b3b687940ebc467b9b3\n                /* \"contracts/InitializedProxy.sol\":1229:1249  _IMPLEMENTATION_SLOT */\n              0x00\n              shl\n                /* \"contracts/InitializedProxy.sol\":1191:1228  StorageSlotUpgradeable.getAddressSlot */\n              tag_8\n                /* \"contracts/InitializedProxy.sol\":1191:1250  StorageSlotUpgradeable.getAddressSlot(_IMPLEMENTATION_SLOT) */\n              jump\t// in\n            tag_7:\n                /* \"contracts/InitializedProxy.sol\":1191:1256  StorageSlotUpgradeable.getAddressSlot(_IMPLEMENTATION_SLOT).value */\n              0x00\n              add\n              0x00\n              swap1\n              sload\n              swap1\n              0x0100\n              exp\n              swap1\n              div\n              0xffffffffffffffffffffffffffffffffffffffff\n              and\n                /* \"contracts/InitializedProxy.sol\":1175:1256  address _impl = StorageSlotUpgradeable.getAddressSlot(_IMPLEMENTATION_SLOT).value */\n              swap1\n              pop\n                /* \"contracts/InitializedProxy.sol\":1308:1312  0x40 */\n              0x40\n                /* \"contracts/InitializedProxy.sol\":1302:1313  mload(0x40) */\n              mload\n                /* \"contracts/InitializedProxy.sol\":1348:1362  calldatasize() */\n              calldatasize\n                /* \"contracts/InitializedProxy.sol\":1345:1346  0 */\n              0x00\n                /* \"contracts/InitializedProxy.sol\":1340:1343  ptr */\n              dup3\n                /* \"contracts/InitializedProxy.sol\":1327:1363  calldatacopy(ptr, 0, calldatasize()) */\n              calldatacopy\n                /* \"contracts/InitializedProxy.sol\":1442:1443  0 */\n              0x00\n                /* \"contracts/InitializedProxy.sol\":1439:1440  0 */\n              dup1\n                /* \"contracts/InitializedProxy.sol\":1423:1437  calldatasize() */\n              calldatasize\n                /* \"contracts/InitializedProxy.sol\":1418:1421  ptr */\n              dup4\n                /* \"contracts/InitializedProxy.sol\":1411:1416  _impl */\n              dup6\n                /* \"contracts/InitializedProxy.sol\":1404:1409  gas() */\n              gas\n                /* \"contracts/InitializedProxy.sol\":1391:1444  delegatecall(gas(), _impl, ptr, calldatasize(), 0, 0) */\n              delegatecall\n                /* \"contracts/InitializedProxy.sol\":1470:1486  returndatasize() */\n              returndatasize\n                /* \"contracts/InitializedProxy.sol\":1523:1527  size */\n              dup1\n                /* \"contracts/InitializedProxy.sol\":1520:1521  0 */\n              0x00\n                /* \"contracts/InitializedProxy.sol\":1515:1518  ptr */\n              dup5\n                /* \"contracts/InitializedProxy.sol\":1500:1528  returndatacopy(ptr, 0, size) */\n              returndatacopy\n                /* \"contracts/InitializedProxy.sol\":1551:1557  result */\n              dup2\n                /* \"contracts/InitializedProxy.sol\":1580:1581  0 */\n              0x00\n                /* \"contracts/InitializedProxy.sol\":1575:1641  case 0 {\r... */\n              dup2\n              eq\n              tag_10\n              jumpi\n                /* \"contracts/InitializedProxy.sol\":1702:1706  size */\n              dup2\n                /* \"contracts/InitializedProxy.sol\":1697:1700  ptr */\n              dup5\n                /* \"contracts/InitializedProxy.sol\":1690:1707  return(ptr, size) */\n              return\n                /* \"contracts/InitializedProxy.sol\":1575:1641  case 0 {\r... */\n            tag_10:\n                /* \"contracts/InitializedProxy.sol\":1617:1621  size */\n              dup2\n                /* \"contracts/InitializedProxy.sol\":1612:1615  ptr */\n              dup5\n                /* \"contracts/InitializedProxy.sol\":1605:1622  revert(ptr, size) */\n              revert\n                /* \"@openzeppelin/contracts-upgradeable/utils/StorageSlotUpgradeable.sol\":1553:1700  function getAddressSlot(bytes32 slot) internal pure returns (AddressSlot storage r) {... */\n            tag_8:\n                /* \"@openzeppelin/contracts-upgradeable/utils/StorageSlotUpgradeable.sol\":1614:1635  AddressSlot storage r */\n              0x00\n                /* \"@openzeppelin/contracts-upgradeable/utils/StorageSlotUpgradeable.sol\":1680:1684  slot */\n              dup2\n                /* \"@openzeppelin/contracts-upgradeable/utils/StorageSlotUpgradeable.sol\":1670:1684  r.slot := slot */\n              swap1\n              pop\n                /* \"@openzeppelin/contracts-upgradeable/utils/StorageSlotUpgradeable.sol\":1656:1694  {... */\n              swap2\n              swap1\n              pop\n              jump\t// out\n\n            auxdata: 0xa2646970667358221220e22184452819df0e3a4e12b5d81a427f92eba04f8a27762382a9b76dc4a2b75564736f6c63430008000033\n        }\n    }\n\n    auxdata: 0xa2646970667358221220da897c4a5c3d8b0d1ce7ca94dc429b22e87c3a36ee8c8e56ebec11b53a09baa064736f6c63430008000033\n}\n",
				"bytecode": {
					"linkReferences": {},
					"object": "6101206040523480156200001257600080fd5b50604051620041843803806200418483398181016040528101906200003891906200016e565b8473ffffffffffffffffffffffffffffffffffffffff1660808173ffffffffffffffffffffffffffffffffffffffff1660601b815250508373ffffffffffffffffffffffffffffffffffffffff1660a08173ffffffffffffffffffffffffffffffffffffffff1660601b815250508273ffffffffffffffffffffffffffffffffffffffff1660c08173ffffffffffffffffffffffffffffffffffffffff1660601b815250508173ffffffffffffffffffffffffffffffffffffffff1660e08173ffffffffffffffffffffffffffffffffffffffff1660601b815250508073ffffffffffffffffffffffffffffffffffffffff166101008173ffffffffffffffffffffffffffffffffffffffff1660601b8152505050505050506200023e565b600081519050620001688162000224565b92915050565b600080600080600060a086880312156200018757600080fd5b6000620001978882890162000157565b9550506020620001aa8882890162000157565b9450506040620001bd8882890162000157565b9350506060620001d08882890162000157565b9250506080620001e38882890162000157565b9150509295509295909350565b6000620001fd8262000204565b9050919050565b600073ffffffffffffffffffffffffffffffffffffffff82169050919050565b6200022f81620001f0565b81146200023b57600080fd5b50565b60805160601c60a05160601c60c05160601c60e05160601c6101005160601c613ecf620002b560003960008181610fe90152611d3c015260008181610eb7015261130e015260008181610e1c0152611d180152600081816106610152610897015260008181610d8101526112ea0152613ecf6000f3fe60806040523480156200001157600080fd5b5060043610620002205760003560e01c80639ce110d71162000129578063ddca3f4311620000b1578063f2be7f53116200007b578063f2be7f5314620005d1578063f4464e2a14620005f3578063fbfa77cf1462000615578063fcfff16f14620006375762000220565b8063ddca3f431462000549578063dfbde3fc146200056b578063e06174e4146200058d578063e66f53b714620005af5762000220565b8063c851cc3211620000f3578063c851cc3214620004dd578063cd9d3dd814620004fd578063d294f093146200051d578063da1c484514620005295762000220565b80639ce110d71462000455578063a5360d041462000477578063adc1b9561462000499578063c45a015514620004bb5762000220565b80634571e3a611620001ad5780636e99d77b11620001775780636e99d77b14620003cd578063765d641014620003ef5780637d9f6db514620004115780638025e30314620004335762000220565b80634571e3a614620003495780634b09b72a1462000369578063632a9a52146200038b578063660d0c4b14620003ad5762000220565b806314442f5411620001ef57806314442f5414620002ad5780633205f5fc14620002cf578063372c12b114620002f15780633b92eb2314620003275762000220565b8063047fc9aa14620002255780630b1e423814620002475780630c7d5cd81462000269578063108adc7a146200028b575b600080fd5b6200022f62000659565b6040516200023e9190620032c9565b60405180910390f35b620002516200065f565b60405162000260919062002ef2565b60405180910390f35b6200027362000683565b604051620002829190620032c9565b60405180910390f35b6200029562000689565b604051620002a49190620032c9565b60405180910390f35b620002b76200068f565b604051620002c691906200306e565b60405180910390f35b620002d9620006c8565b604051620002e8919062002ef2565b60405180910390f35b6200030f600480360381019062000309919062002439565b620006ee565b6040516200031e919062003051565b60405180910390f35b620003316200070e565b60405162000340919062002ef2565b60405180910390f35b62000367600480360381019062000361919062002491565b62000734565b005b6200037362000a40565b604051620003829190620032c9565b60405180910390f35b6200039562000a46565b604051620003a4919062002ef2565b60405180910390f35b620003cb6004803603810190620003c59190620026ab565b62000a6c565b005b620003d7620012e8565b604051620003e6919062002ef2565b60405180910390f35b620003f96200130c565b60405162000408919062002ef2565b60405180910390f35b6200041b62001330565b6040516200042a919062002ef2565b60405180910390f35b6200043d62001356565b6040516200044c9190620032ac565b60405180910390f35b6200045f6200135b565b6040516200046e919062003051565b60405180910390f35b620004816200136e565b604051620004909190620032c9565b60405180910390f35b620004a362001374565b604051620004b29190620032c9565b60405180910390f35b620004c56200137a565b604051620004d4919062002ef2565b60405180910390f35b620004fb6004803603810190620004f5919062002439565b6200139e565b005b6200051b600480360381019062000515919062002500565b6200165f565b005b620005276200181e565b005b6200054760048036038101906200054191906200266a565b62001b8f565b005b6200055362001c2e565b604051620005629190620032c9565b60405180910390f35b6200057562001c34565b6040516200058491906200306e565b60405180910390f35b6200059762001cca565b604051620005a6919062002ef2565b60405180910390f35b620005b962001cf0565b604051620005c8919062002ef2565b60405180910390f35b620005db62001d16565b604051620005ea919062002ef2565b60405180910390f35b620005fd62001d3a565b6040516200060c919062002ef2565b60405180910390f35b6200061f62001d5e565b6040516200062e919062002ef2565b60405180910390f35b6200064162001d84565b60405162000650919062003051565b60405180910390f35b600e5481565b7f000000000000000000000000000000000000000000000000000000000000000081565b600c5481565b60115481565b6040518060400160405280601981526020017f546f6b656e2045636f6e6f6d696320262050726f706f736f6c0000000000000081525081565b600660009054906101000a900473ffffffffffffffffffffffffffffffffffffffff1681565b60086020528060005260406000206000915054906101000a900460ff1681565b600360009054906101000a900473ffffffffffffffffffffffffffffffffffffffff1681565b600960009054906101000a900460ff161562000787576040517f08c379a00000000000000000000000000000000000000000000000000000000081526004016200077e9062003246565b60405180910390fd5b600960009054906101000a900460ff1615600960006101000a81548160ff021916908315150217905550336000806101000a81548173ffffffffffffffffffffffffffffffffffffffff021916908373ffffffffffffffffffffffffffffffffffffffff16021790555080600a90805190602001906200080992919062002099565b5060006040516024016040516020818303038152906040527f8129fc1c000000000000000000000000000000000000000000000000000000007bffffffffffffffffffffffffffffffffffffffffffffffffffffffff19166020820180517bffffffffffffffffffffffffffffffffffffffffffffffffffffffff83818316178352505050509050620008bd7f00000000000000000000000000000000000000000000000000000000000000008262001d97565b600260006101000a81548173ffffffffffffffffffffffffffffffffffffffff021916908373ffffffffffffffffffffffffffffffffffffffff1602179055506200092c600260009054906101000a900473ffffffffffffffffffffffffffffffffffffffff16600162001ddc565b6200093930600162001ddc565b83600760006101000a81548173ffffffffffffffffffffffffffffffffffffffff021916908373ffffffffffffffffffffffffffffffffffffffff16021790555082600160006101000a81548173ffffffffffffffffffffffffffffffffffffffff021916908373ffffffffffffffffffffffffffffffffffffffff1602179055507fdc90fed0326ba91706deeac7eb34ac9f8b680734f9d782864dc29704d23bed6a600760009054906101000a900473ffffffffffffffffffffffffffffffffffffffff16600260009054906101000a900473ffffffffffffffffffffffffffffffffffffffff1660405162000a3292919062002f0f565b60405180910390a150505050565b600d5481565b600560009054906101000a900473ffffffffffffffffffffffffffffffffffffffff1681565b6000600260009054906101000a900473ffffffffffffffffffffffffffffffffffffffff1673ffffffffffffffffffffffffffffffffffffffff1663634f63196040518163ffffffff1660e01b815260040160006040518083038186803b15801562000ad757600080fd5b505afa15801562000aec573d6000803e3d6000fd5b505050506040513d6000823e3d601f19601f8201168201806040525081019062000b179190620025a1565b51141562000b5c576040517f08c379a000000000000000000000000000000000000000000000000000000000815260040162000b53906200328a565b60405180910390fd5b600760009054906101000a900473ffffffffffffffffffffffffffffffffffffffff1673ffffffffffffffffffffffffffffffffffffffff163373ffffffffffffffffffffffffffffffffffffffff161462000bef576040517f08c379a000000000000000000000000000000000000000000000000000000000815260040162000be69062003268565b60405180910390fd5b600960019054906101000a900460ff161562000c42576040517f08c379a000000000000000000000000000000000000000000000000000000000815260040162000c399062003133565b60405180910390fd5b69021e19e0c9bab240000086101562000c92576040517f08c379a000000000000000000000000000000000000000000000000000000000815260040162000c8990620031bb565b60405180910390fd5b606384111562000cd9576040517f08c379a000000000000000000000000000000000000000000000000000000000815260040162000cd090620030cd565b60405180910390fd5b6001600960016101000a81548160ff02191690831515021790555060006040516024016040516020818303038152906040527f8129fc1c000000000000000000000000000000000000000000000000000000007bffffffffffffffffffffffffffffffffffffffffffffffffffffffff19166020820180517bffffffffffffffffffffffffffffffffffffffffffffffffffffffff8381831617835250505050905062000da77f00000000000000000000000000000000000000000000000000000000000000008262001d97565b600360006101000a81548173ffffffffffffffffffffffffffffffffffffffff021916908373ffffffffffffffffffffffffffffffffffffffff16021790555062000e16600360009054906101000a900473ffffffffffffffffffffffffffffffffffffffff16600162001ddc565b62000e427f00000000000000000000000000000000000000000000000000000000000000008262001d97565b600460006101000a81548173ffffffffffffffffffffffffffffffffffffffff021916908373ffffffffffffffffffffffffffffffffffffffff16021790555062000eb1600460009054906101000a900473ffffffffffffffffffffffffffffffffffffffff16600162001ddc565b62000edd7f00000000000000000000000000000000000000000000000000000000000000008262001d97565b600560006101000a81548173ffffffffffffffffffffffffffffffffffffffff021916908373ffffffffffffffffffffffffffffffffffffffff16021790555062000f4c600560009054906101000a900473ffffffffffffffffffffffffffffffffffffffff16600162001ddc565b6000600a8760405160240162000f6492919062003092565b6040516020818303038152906040527f4cd88b76000000000000000000000000000000000000000000000000000000007bffffffffffffffffffffffffffffffffffffffffffffffffffffffff19166020820180517bffffffffffffffffffffffffffffffffffffffffffffffffffffffff838183161783525050505090506200100f7f00000000000000000000000000000000000000000000000000000000000000008262001d97565b600660006101000a81548173ffffffffffffffffffffffffffffffffffffffff021916908373ffffffffffffffffffffffffffffffffffffffff1602179055506200107e600660009054906101000a900473ffffffffffffffffffffffffffffffffffffffff16600162001ddc565b42600b819055506000600f8190555085600c81905550620010c288600760009054906101000a900473ffffffffffffffffffffffffffffffffffffffff1662001e37565b600560009054906101000a900473ffffffffffffffffffffffffffffffffffffffff1673ffffffffffffffffffffffffffffffffffffffff1663e3a1c1c7600560009054906101000a900473ffffffffffffffffffffffffffffffffffffffff166040518263ffffffff1660e01b8152600401620011419190620031ff565b600060405180830381600087803b1580156200115c57600080fd5b505af115801562001171573d6000803e3d6000fd5b50505050600460009054906101000a900473ffffffffffffffffffffffffffffffffffffffff1673ffffffffffffffffffffffffffffffffffffffff166391b7f5ed866040518263ffffffff1660e01b8152600401620011d29190620032c9565b600060405180830381600087803b158015620011ed57600080fd5b505af115801562001202573d6000803e3d6000fd5b505050507f8b62dd8e86cd198d671ff797219a5c7946c3d55b7f40e4062e60c69658f3ffcd88600a89600c54898989600360009054906101000a900473ffffffffffffffffffffffffffffffffffffffff16600460009054906101000a900473ffffffffffffffffffffffffffffffffffffffff16600560009054906101000a900473ffffffffffffffffffffffffffffffffffffffff16600660009054906101000a900473ffffffffffffffffffffffffffffffffffffffff16604051620012d69b9a99989796959493929190620032e6565b60405180910390a15050505050505050565b7f000000000000000000000000000000000000000000000000000000000000000081565b7f000000000000000000000000000000000000000000000000000000000000000081565b600460009054906101000a900473ffffffffffffffffffffffffffffffffffffffff1681565b600a81565b600960009054906101000a900460ff1681565b60105481565b600b5481565b60008054906101000a900473ffffffffffffffffffffffffffffffffffffffff1681565b600860003373ffffffffffffffffffffffffffffffffffffffff1673ffffffffffffffffffffffffffffffffffffffff16815260200190815260200160002060009054906101000a900460ff166200142d576040517f08c379a00000000000000000000000000000000000000000000000000000000081526004016200142490620031dd565b60405180910390fd5b60008054906101000a900473ffffffffffffffffffffffffffffffffffffffff1673ffffffffffffffffffffffffffffffffffffffff16633955d09a826040518263ffffffff1660e01b815260040162001488919062002ef2565b602060405180830381600087803b158015620014a357600080fd5b505af1158015620014b8573d6000803e3d6000fd5b505050506040513d601f19601f82011682018060405250810190620014de9190620025e6565b62001520576040517f08c379a0000000000000000000000000000000000000000000000000000000008152600401620015179062003155565b60405180910390fd5b6000808273ffffffffffffffffffffffffffffffffffffffff166040516024016040516020818303038152906040527f736f9e42000000000000000000000000000000000000000000000000000000007bffffffffffffffffffffffffffffffffffffffffffffffffffffffff19166020820180517bffffffffffffffffffffffffffffffffffffffffffffffffffffffff8381831617835250505050604051620015cc919062002ed9565b600060405180830381855af49150503d806000811462001609576040519150601f19603f3d011682016040523d82523d6000602084013e6200160e565b606091505b509150915081819062001659576040517f08c379a00000000000000000000000000000000000000000000000000000000081526004016200165091906200306e565b60405180910390fd5b50505050565b600960019054906101000a900460ff1615620016b2576040517f08c379a0000000000000000000000000000000000000000000000000000000008152600401620016a99062003199565b60405180910390fd5b600760009054906101000a900473ffffffffffffffffffffffffffffffffffffffff1673ffffffffffffffffffffffffffffffffffffffff163373ffffffffffffffffffffffffffffffffffffffff161462001745576040517f08c379a00000000000000000000000000000000000000000000000000000000081526004016200173c90620030ef565b60405180910390fd5b600260009054906101000a900473ffffffffffffffffffffffffffffffffffffffff1673ffffffffffffffffffffffffffffffffffffffff1663e2019ab3848484336040518563ffffffff1660e01b8152600401620017a8949392919062002fef565b600060405180830381600087803b158015620017c357600080fd5b505af1158015620017d8573d6000803e3d6000fd5b505050507f3a29ec296622ef644c7845a1c556399c39cd768e645a903d7911a7f5bc1e4011838383604051620018119392919062002f9d565b60405180910390a1505050565b60028081111562001858577f4e487b7100000000000000000000000000000000000000000000000000000000600052602160045260246000fd5b600260009054906101000a900473ffffffffffffffffffffffffffffffffffffffff1673ffffffffffffffffffffffffffffffffffffffff1663d58bfa9d6040518163ffffffff1660e01b815260040160206040518083038186803b158015620018c157600080fd5b505afa158015620018d6573d6000803e3d6000fd5b505050506040513d601f19601f82011682018060405250810190620018fc919062002612565b600281111562001935577f4e487b7100000000000000000000000000000000000000000000000000000000600052602160045260246000fd5b141562001979576040517f08c379a0000000000000000000000000000000000000000000000000000000008152600401620019709062003111565b60405180910390fd5b600960019054906101000a900460ff16620019cb576040517f08c379a0000000000000000000000000000000000000000000000000000000008152600401620019c29062003177565b60405180910390fd5b60006103e8600660009054906101000a900473ffffffffffffffffffffffffffffffffffffffff1673ffffffffffffffffffffffffffffffffffffffff166318160ddd6040518163ffffffff1660e01b815260040160206040518083038186803b15801562001a3957600080fd5b505afa15801562001a4e573d6000803e3d6000fd5b505050506040513d601f19601f8201168201806040525081019062001a7491906200263e565b600f5462001a839190620035d9565b62001a8f9190620035a1565b905060006301e133808262001aa59190620035a1565b90506000600b544262001ab991906200363a565b90506000828262001acb9190620035d9565b905042600b81905550600660009054906101000a900473ffffffffffffffffffffffffffffffffffffffff1673ffffffffffffffffffffffffffffffffffffffff166341cd705a600760009054906101000a900473ffffffffffffffffffffffffffffffffffffffff16836040518363ffffffff1660e01b815260040162001b5592919062002f70565b600060405180830381600087803b15801562001b7057600080fd5b505af115801562001b85573d6000803e3d6000fd5b5050505050505050565b600860003373ffffffffffffffffffffffffffffffffffffffff1673ffffffffffffffffffffffffffffffffffffffff16815260200190815260200160002060009054906101000a900460ff1662001c1e576040517f08c379a000000000000000000000000000000000000000000000000000000000815260040162001c1590620031dd565b60405180910390fd5b62001c2a828262001e37565b5050565b600f5481565b600a805462001c439062003726565b80601f016020809104026020016040519081016040528092919081815260200182805462001c719062003726565b801562001cc25780601f1062001c965761010080835404028352916020019162001cc2565b820191906000526020600020905b81548152906001019060200180831162001ca457829003601f168201915b505050505081565b600160009054906101000a900473ffffffffffffffffffffffffffffffffffffffff1681565b600760009054906101000a900473ffffffffffffffffffffffffffffffffffffffff1681565b7f000000000000000000000000000000000000000000000000000000000000000081565b7f000000000000000000000000000000000000000000000000000000000000000081565b600260009054906101000a900473ffffffffffffffffffffffffffffffffffffffff1681565b600960019054906101000a900460ff1681565b6000828260405162001da9906200212a565b62001db692919062002f3c565b604051809103906000f08015801562001dd3573d6000803e3d6000fd5b50905092915050565b80600860008473ffffffffffffffffffffffffffffffffffffffff1673ffffffffffffffffffffffffffffffffffffffff16815260200190815260200160002060006101000a81548160ff0219169083151502179055505050565b81600e600082825462001e4b919062003544565b92505081905550600060648362001e639190620035a1565b905060006064600c548562001e799190620035d9565b62001e859190620035a1565b9050600081838662001e9891906200363a565b62001ea491906200363a565b905081600d600082825462001eba919062003544565b925050819055506000600160009054906101000a900473ffffffffffffffffffffffffffffffffffffffff1673ffffffffffffffffffffffffffffffffffffffff1663b3f006746040518163ffffffff1660e01b8152600401602060405180830381600087803b15801562001f2e57600080fd5b505af115801562001f43573d6000803e3d6000fd5b505050506040513d601f19601f8201168201806040525081019062001f69919062002465565b9050600660009054906101000a900473ffffffffffffffffffffffffffffffffffffffff1673ffffffffffffffffffffffffffffffffffffffff166341cd705a82866040518363ffffffff1660e01b815260040162001fca92919062002f70565b600060405180830381600087803b15801562001fe557600080fd5b505af115801562001ffa573d6000803e3d6000fd5b50505050600660009054906101000a900473ffffffffffffffffffffffffffffffffffffffff1673ffffffffffffffffffffffffffffffffffffffff166341cd705a86846040518363ffffffff1660e01b81526004016200205d92919062002f70565b600060405180830381600087803b1580156200207857600080fd5b505af11580156200208d573d6000803e3d6000fd5b50505050505050505050565b828054620020a79062003726565b90600052602060002090601f016020900481019282620020cb576000855562002117565b82601f10620020e657805160ff191683800117855562002117565b8280016001018555821562002117579182015b8281111562002116578251825591602001919060010190620020f9565b5b50905062002126919062002138565b5090565b6105f780620038a383390190565b5b808211156200215357600081600090555060010162002139565b5090565b60006200216e6200216884620033e9565b620033b5565b905080838252602082019050828560208602820111156200218e57600080fd5b60005b85811015620021c25781620021a78882620022fb565b84526020840193506020830192505060018101905062002191565b5050509392505050565b6000620021e3620021dd8462003418565b620033b5565b905080838252602082019050828560208602820111156200220357600080fd5b60005b858110156200223757816200221c88826200240b565b84526020840193506020830192505060018101905062002206565b5050509392505050565b600062002258620022528462003418565b620033b5565b905080838252602082019050828560208602820111156200227857600080fd5b60005b85811015620022ac578162002291888262002422565b8452602084019350602083019250506001810190506200227b565b5050509392505050565b6000620022cd620022c78462003447565b620033b5565b905082815260208101848484011115620022e657600080fd5b620022f3848285620036e1565b509392505050565b6000813590506200230c8162003829565b92915050565b600081519050620023238162003843565b92915050565b600082601f8301126200233b57600080fd5b81356200234d84826020860162002157565b91505092915050565b600082601f8301126200236857600080fd5b81356200237a848260208601620021cc565b91505092915050565b600082601f8301126200239557600080fd5b8151620023a784826020860162002241565b91505092915050565b600081519050620023c1816200385d565b92915050565b600081519050620023d88162003877565b92915050565b600082601f830112620023f057600080fd5b813562002402848260208601620022b6565b91505092915050565b6000813590506200241c8162003888565b92915050565b600081519050620024338162003888565b92915050565b6000602082840312156200244c57600080fd5b60006200245c84828501620022fb565b91505092915050565b6000602082840312156200247857600080fd5b6000620024888482850162002312565b91505092915050565b600080600060608486031215620024a757600080fd5b6000620024b786828701620022fb565b9350506020620024ca86828701620022fb565b925050604084013567ffffffffffffffff811115620024e857600080fd5b620024f686828701620023de565b9150509250925092565b6000806000606084860312156200251657600080fd5b600084013567ffffffffffffffff8111156200253157600080fd5b6200253f8682870162002329565b935050602084013567ffffffffffffffff8111156200255d57600080fd5b6200256b8682870162002356565b925050604084013567ffffffffffffffff8111156200258957600080fd5b620025978682870162002356565b9150509250925092565b600060208284031215620025b457600080fd5b600082015167ffffffffffffffff811115620025cf57600080fd5b620025dd8482850162002383565b91505092915050565b600060208284031215620025f957600080fd5b60006200260984828501620023b0565b91505092915050565b6000602082840312156200262557600080fd5b60006200263584828501620023c7565b91505092915050565b6000602082840312156200265157600080fd5b6000620026618482850162002422565b91505092915050565b600080604083850312156200267e57600080fd5b60006200268e858286016200240b565b9250506020620026a185828601620022fb565b9150509250929050565b60008060008060008060c08789031215620026c557600080fd5b6000620026d589828a016200240b565b965050602087013567ffffffffffffffff811115620026f357600080fd5b6200270189828a01620023de565b95505060406200271489828a016200240b565b94505060606200272789828a016200240b565b93505060806200273a89828a016200240b565b92505060a06200274d89828a016200240b565b9150509295509295509295565b60006200276883836200278e565b60208301905092915050565b600062002782838362002eb7565b60208301905092915050565b620027998162003675565b82525050565b620027aa8162003675565b82525050565b6000620027bd82620034af565b620027c98185620034f5565b9350620027d6836200347a565b8060005b838110156200280d578151620027f188826200275a565b9750620027fe83620034db565b925050600181019050620027da565b5085935050505092915050565b60006200282782620034ba565b62002833818562003506565b935062002840836200348a565b8060005b83811015620028775781516200285b888262002774565b97506200286883620034e8565b92505060018101905062002844565b5085935050505092915050565b6200288f816200369d565b82525050565b6000620028a282620034c5565b620028ae818562003517565b9350620028c0818560208601620036f0565b620028cb8162003818565b840191505092915050565b6000620028e382620034c5565b620028ef818562003528565b935062002901818560208601620036f0565b80840191505092915050565b60006200291a82620034d0565b62002926818562003533565b935062002938818560208601620036f0565b620029438162003818565b840191505092915050565b600081546200295d8162003726565b62002969818662003533565b945060018216600081146200298757600181146200299a57620029d1565b60ff1983168652602086019350620029d1565b620029a5856200349a565b60005b83811015620029c957815481890152600182019150602081019050620029a8565b808801955050505b50505092915050565b6000620029e960208362003533565b91507f6973737565203a3a20496e636f7272656374207265736572766520726174696f6000830152602082019050919050565b600062002a2b602e8362003533565b91507f63757261746f724465706f736974203a3a204f6e6c792063757261746f72206360008301527f616e206465706f736974204e46540000000000000000000000000000000000006020830152604082019050919050565b600062002a9360288362003533565b91507f636c61696d203a3a2063616e6e6f7420636c61696d206166746572206175637460008301527f696f6e20656e64730000000000000000000000000000000000000000000000006020830152604082019050919050565b600062002afb60208362003533565b91507f6973737565203a3a20546f6b656e20697320616c7265616479206163746976656000830152602082019050919050565b600062002b3d60228362003533565b91507f757064617465526f75746572203a3a20496e636f72726563742074656d706c6160008301527f74650000000000000000000000000000000000000000000000000000000000006020830152604082019050919050565b600062002ba560218362003533565b91507f636c61696d203a3a20546f6b656e206e6f7420616c726561647920616374697660008301527f65000000000000000000000000000000000000000000000000000000000000006020830152604082019050919050565b600062002c0d60298362003533565b91507f63757261746f724465706f736974203a3a20546f6b656e20697320616c72656160008301527f64792061637469766500000000000000000000000000000000000000000000006020830152604082019050919050565b600062002c75601b8362003533565b91507f7365744d696e696d756d5175616e746974792875696e743235362900000000006000830152602082019050919050565b600062002cb7602d8362003533565b91507f6973737565203a3a2054686520737570706c79206d757374206265206772656160008301527f746572207468616e2031303030000000000000000000000000000000000000006020830152604082019050919050565b600062002d1f60208362003533565b91507f77686974654c697374203a3a204164647265737320636865636b206572726f726000830152602082019050919050565b600062002d6160128362003533565b91507f7365744d696e696d756d5175616e7469747900000000000000000000000000006000830152602082019050919050565b600062002da360218362003533565b91507f696e697469616c697a65203a3a20416c726561647920696e697469616c697a6560008301527f64000000000000000000000000000000000000000000000000000000000000006020830152604082019050919050565b600062002e0b602a8362003533565b91507f6973737565203a3a204f6e6c792063757261746f722063616e2069737375652060008301527f74686520746f6b656e73000000000000000000000000000000000000000000006020830152604082019050919050565b600062002e73601c8362003533565b91507f6973737565203a3a204974277320616e20656d707479207661756c74000000006000830152602082019050919050565b62002eb181620036a9565b82525050565b62002ec281620036d7565b82525050565b62002ed381620036d7565b82525050565b600062002ee78284620028d6565b915081905092915050565b600060208201905062002f0960008301846200279f565b92915050565b600060408201905062002f2660008301856200279f565b62002f3560208301846200279f565b9392505050565b600060408201905062002f5360008301856200279f565b818103602083015262002f67818462002895565b90509392505050565b600060408201905062002f8760008301856200279f565b62002f96602083018462002ec8565b9392505050565b6000606082019050818103600083015262002fb98186620027b0565b9050818103602083015262002fcf81856200281a565b9050818103604083015262002fe581846200281a565b9050949350505050565b600060808201905081810360008301526200300b8187620027b0565b905081810360208301526200302181866200281a565b905081810360408301526200303781856200281a565b90506200304860608301846200279f565b95945050505050565b600060208201905062003068600083018462002884565b92915050565b600060208201905081810360008301526200308a81846200290d565b905092915050565b60006040820190508181036000830152620030ae81856200294e565b90508181036020830152620030c481846200290d565b90509392505050565b60006020820190508181036000830152620030e881620029da565b9050919050565b600060208201905081810360008301526200310a8162002a1c565b9050919050565b600060208201905081810360008301526200312c8162002a84565b9050919050565b600060208201905081810360008301526200314e8162002aec565b9050919050565b60006020820190508181036000830152620031708162002b2e565b9050919050565b60006020820190508181036000830152620031928162002b96565b9050919050565b60006020820190508181036000830152620031b48162002bfe565b9050919050565b60006020820190508181036000830152620031d68162002ca8565b9050919050565b60006020820190508181036000830152620031f88162002d10565b9050919050565b600060608201905081810360008301526200321a8162002d52565b90506200322b60208301846200279f565b81810360408301526200323e8162002c66565b905092915050565b60006020820190508181036000830152620032618162002d94565b9050919050565b60006020820190508181036000830152620032838162002dfc565b9050919050565b60006020820190508181036000830152620032a58162002e64565b9050919050565b6000602082019050620032c3600083018462002ea6565b92915050565b6000602082019050620032e0600083018462002ec8565b92915050565b600061016082019050620032fe600083018e62002ec8565b818103602083015262003312818d6200294e565b9050818103604083015262003328818c6200290d565b905062003339606083018b62002ec8565b62003348608083018a62002ec8565b6200335760a083018962002ec8565b6200336660c083018862002ec8565b6200337560e08301876200279f565b620033856101008301866200279f565b620033956101208301856200279f565b620033a56101408301846200279f565b9c9b505050505050505050505050565b6000604051905081810181811067ffffffffffffffff82111715620033df57620033de620037e9565b5b8060405250919050565b600067ffffffffffffffff821115620034075762003406620037e9565b5b602082029050602081019050919050565b600067ffffffffffffffff821115620034365762003435620037e9565b5b602082029050602081019050919050565b600067ffffffffffffffff821115620034655762003464620037e9565b5b601f19601f8301169050602081019050919050565b6000819050602082019050919050565b6000819050602082019050919050565b60008190508160005260206000209050919050565b600081519050919050565b600081519050919050565b600081519050919050565b600081519050919050565b6000602082019050919050565b6000602082019050919050565b600082825260208201905092915050565b600082825260208201905092915050565b600082825260208201905092915050565b600081905092915050565b600082825260208201905092915050565b60006200355182620036d7565b91506200355e83620036d7565b9250827fffffffffffffffffffffffffffffffffffffffffffffffffffffffffffffffff038211156200359657620035956200375c565b5b828201905092915050565b6000620035ae82620036d7565b9150620035bb83620036d7565b925082620035ce57620035cd6200378b565b5b828204905092915050565b6000620035e682620036d7565b9150620035f383620036d7565b9250817fffffffffffffffffffffffffffffffffffffffffffffffffffffffffffffffff04831182151516156200362f576200362e6200375c565b5b828202905092915050565b60006200364782620036d7565b91506200365483620036d7565b9250828210156200366a57620036696200375c565b5b828203905092915050565b60006200368282620036b7565b9050919050565b60006200369682620036b7565b9050919050565b60008115159050919050565b600061ffff82169050919050565b600073ffffffffffffffffffffffffffffffffffffffff82169050919050565b6000819050919050565b82818337600083830152505050565b60005b8381101562003710578082015181840152602081019050620036f3565b8381111562003720576000848401525b50505050565b600060028204905060018216806200373f57607f821691505b60208210811415620037565762003755620037ba565b5b50919050565b7f4e487b7100000000000000000000000000000000000000000000000000000000600052601160045260246000fd5b7f4e487b7100000000000000000000000000000000000000000000000000000000600052601260045260246000fd5b7f4e487b7100000000000000000000000000000000000000000000000000000000600052602260045260246000fd5b7f4e487b7100000000000000000000000000000000000000000000000000000000600052604160045260246000fd5b6000601f19601f8301169050919050565b620038348162003675565b81146200384057600080fd5b50565b6200384e8162003689565b81146200385a57600080fd5b50565b62003868816200369d565b81146200387457600080fd5b50565b600381106200388557600080fd5b50565b6200389381620036d7565b81146200389f57600080fd5b5056fe608060405234801561001057600080fd5b506040516105f73803806105f78339818101604052810190610032919061025b565b600073ffffffffffffffffffffffffffffffffffffffff168273ffffffffffffffffffffffffffffffffffffffff1614156100a2576040517f08c379a0000000000000000000000000000000000000000000000000000000008152600401610099906103b8565b60405180910390fd5b816100d97f5f62ce3c9aebd463c7a36ab1b244d2bb94f07a2c13889b3b687940ebc467b9b360001b6101d460201b6100821760201c565b60000160006101000a81548173ffffffffffffffffffffffffffffffffffffffff021916908373ffffffffffffffffffffffffffffffffffffffff1602179055506000808373ffffffffffffffffffffffffffffffffffffffff1683604051610142919061037f565b600060405180830381855af49150503d806000811461017d576040519150601f19603f3d011682016040523d82523d6000602084013e610182565b606091505b50915091508181906101ca576040517f08c379a00000000000000000000000000000000000000000000000000000000081526004016101c19190610396565b60405180910390fd5b5050505050610527565b6000819050919050565b60006101f16101ec84610409565b6103d8565b90508281526020810184848401111561020957600080fd5b61021484828561049d565b509392505050565b60008151905061022b81610510565b92915050565b600082601f83011261024257600080fd5b81516102528482602086016101de565b91505092915050565b6000806040838503121561026e57600080fd5b600061027c8582860161021c565b925050602083015167ffffffffffffffff81111561029957600080fd5b6102a585828601610231565b9150509250929050565b60006102ba82610439565b6102c4818561044f565b93506102d481856020860161049d565b80840191505092915050565b60006102eb82610444565b6102f5818561045a565b935061030581856020860161049d565b61030e816104ff565b840191505092915050565b600061032660338361045a565b91507f50726f7879203a3a204c6f676963616c20636f6e7472616374732063616e6e6f60008301527f74206265207a65726f20616464726573736573000000000000000000000000006020830152604082019050919050565b600061038b82846102af565b915081905092915050565b600060208201905081810360008301526103b081846102e0565b905092915050565b600060208201905081810360008301526103d181610319565b9050919050565b6000604051905081810181811067ffffffffffffffff821117156103ff576103fe6104d0565b5b8060405250919050565b600067ffffffffffffffff821115610424576104236104d0565b5b601f19601f8301169050602081019050919050565b600081519050919050565b600081519050919050565b600081905092915050565b600082825260208201905092915050565b60006104768261047d565b9050919050565b600073ffffffffffffffffffffffffffffffffffffffff82169050919050565b60005b838110156104bb5780820151818401526020810190506104a0565b838111156104ca576000848401525b50505050565b7f4e487b7100000000000000000000000000000000000000000000000000000000600052604160045260246000fd5b6000601f19601f8301169050919050565b6105198161046b565b811461052457600080fd5b50565b60c2806105356000396000f3fe608060405236600a57005b600060367f5f62ce3c9aebd463c7a36ab1b244d2bb94f07a2c13889b3b687940ebc467b9b360001b6082565b60000160009054906101000a900473ffffffffffffffffffffffffffffffffffffffff16905060405136600082376000803683855af43d806000843e8160008114607e578184f35b8184fd5b600081905091905056fea2646970667358221220e22184452819df0e3a4e12b5d81a427f92eba04f8a27762382a9b76dc4a2b75564736f6c63430008000033a2646970667358221220da897c4a5c3d8b0d1ce7ca94dc429b22e87c3a36ee8c8e56ebec11b53a09baa064736f6c63430008000033",
					"opcodes": "PUSH2 0x120 PUSH1 0x40 MSTORE CALLVALUE DUP1 ISZERO PUSH3 0x12 JUMPI PUSH1 0x0 DUP1 REVERT JUMPDEST POP PUSH1 0x40 MLOAD PUSH3 0x4184 CODESIZE SUB DUP1 PUSH3 0x4184 DUP4 CODECOPY DUP2 DUP2 ADD PUSH1 0x40 MSTORE DUP2 ADD SWAP1 PUSH3 0x38 SWAP2 SWAP1 PUSH3 0x16E JUMP JUMPDEST DUP5 PUSH20 0xFFFFFFFFFFFFFFFFFFFFFFFFFFFFFFFFFFFFFFFF AND PUSH1 0x80 DUP2 PUSH20 0xFFFFFFFFFFFFFFFFFFFFFFFFFFFFFFFFFFFFFFFF AND PUSH1 0x60 SHL DUP2 MSTORE POP POP DUP4 PUSH20 0xFFFFFFFFFFFFFFFFFFFFFFFFFFFFFFFFFFFFFFFF AND PUSH1 0xA0 DUP2 PUSH20 0xFFFFFFFFFFFFFFFFFFFFFFFFFFFFFFFFFFFFFFFF AND PUSH1 0x60 SHL DUP2 MSTORE POP POP DUP3 PUSH20 0xFFFFFFFFFFFFFFFFFFFFFFFFFFFFFFFFFFFFFFFF AND PUSH1 0xC0 DUP2 PUSH20 0xFFFFFFFFFFFFFFFFFFFFFFFFFFFFFFFFFFFFFFFF AND PUSH1 0x60 SHL DUP2 MSTORE POP POP DUP2 PUSH20 0xFFFFFFFFFFFFFFFFFFFFFFFFFFFFFFFFFFFFFFFF AND PUSH1 0xE0 DUP2 PUSH20 0xFFFFFFFFFFFFFFFFFFFFFFFFFFFFFFFFFFFFFFFF AND PUSH1 0x60 SHL DUP2 MSTORE POP POP DUP1 PUSH20 0xFFFFFFFFFFFFFFFFFFFFFFFFFFFFFFFFFFFFFFFF AND PUSH2 0x100 DUP2 PUSH20 0xFFFFFFFFFFFFFFFFFFFFFFFFFFFFFFFFFFFFFFFF AND PUSH1 0x60 SHL DUP2 MSTORE POP POP POP POP POP POP POP PUSH3 0x23E JUMP JUMPDEST PUSH1 0x0 DUP2 MLOAD SWAP1 POP PUSH3 0x168 DUP2 PUSH3 0x224 JUMP JUMPDEST SWAP3 SWAP2 POP POP JUMP JUMPDEST PUSH1 0x0 DUP1 PUSH1 0x0 DUP1 PUSH1 0x0 PUSH1 0xA0 DUP7 DUP9 SUB SLT ISZERO PUSH3 0x187 JUMPI PUSH1 0x0 DUP1 REVERT JUMPDEST PUSH1 0x0 PUSH3 0x197 DUP9 DUP3 DUP10 ADD PUSH3 0x157 JUMP JUMPDEST SWAP6 POP POP PUSH1 0x20 PUSH3 0x1AA DUP9 DUP3 DUP10 ADD PUSH3 0x157 JUMP JUMPDEST SWAP5 POP POP PUSH1 0x40 PUSH3 0x1BD DUP9 DUP3 DUP10 ADD PUSH3 0x157 JUMP JUMPDEST SWAP4 POP POP PUSH1 0x60 PUSH3 0x1D0 DUP9 DUP3 DUP10 ADD PUSH3 0x157 JUMP JUMPDEST SWAP3 POP POP PUSH1 0x80 PUSH3 0x1E3 DUP9 DUP3 DUP10 ADD PUSH3 0x157 JUMP JUMPDEST SWAP2 POP POP SWAP3 SWAP6 POP SWAP3 SWAP6 SWAP1 SWAP4 POP JUMP JUMPDEST PUSH1 0x0 PUSH3 0x1FD DUP3 PUSH3 0x204 JUMP JUMPDEST SWAP1 POP SWAP2 SWAP1 POP JUMP JUMPDEST PUSH1 0x0 PUSH20 0xFFFFFFFFFFFFFFFFFFFFFFFFFFFFFFFFFFFFFFFF DUP3 AND SWAP1 POP SWAP2 SWAP1 POP JUMP JUMPDEST PUSH3 0x22F DUP2 PUSH3 0x1F0 JUMP JUMPDEST DUP2 EQ PUSH3 0x23B JUMPI PUSH1 0x0 DUP1 REVERT JUMPDEST POP JUMP JUMPDEST PUSH1 0x80 MLOAD PUSH1 0x60 SHR PUSH1 0xA0 MLOAD PUSH1 0x60 SHR PUSH1 0xC0 MLOAD PUSH1 0x60 SHR PUSH1 0xE0 MLOAD PUSH1 0x60 SHR PUSH2 0x100 MLOAD PUSH1 0x60 SHR PUSH2 0x3ECF PUSH3 0x2B5 PUSH1 0x0 CODECOPY PUSH1 0x0 DUP2 DUP2 PUSH2 0xFE9 ADD MSTORE PUSH2 0x1D3C ADD MSTORE PUSH1 0x0 DUP2 DUP2 PUSH2 0xEB7 ADD MSTORE PUSH2 0x130E ADD MSTORE PUSH1 0x0 DUP2 DUP2 PUSH2 0xE1C ADD MSTORE PUSH2 0x1D18 ADD MSTORE PUSH1 0x0 DUP2 DUP2 PUSH2 0x661 ADD MSTORE PUSH2 0x897 ADD MSTORE PUSH1 0x0 DUP2 DUP2 PUSH2 0xD81 ADD MSTORE PUSH2 0x12EA ADD MSTORE PUSH2 0x3ECF PUSH1 0x0 RETURN INVALID PUSH1 0x80 PUSH1 0x40 MSTORE CALLVALUE DUP1 ISZERO PUSH3 0x11 JUMPI PUSH1 0x0 DUP1 REVERT JUMPDEST POP PUSH1 0x4 CALLDATASIZE LT PUSH3 0x220 JUMPI PUSH1 0x0 CALLDATALOAD PUSH1 0xE0 SHR DUP1 PUSH4 0x9CE110D7 GT PUSH3 0x129 JUMPI DUP1 PUSH4 0xDDCA3F43 GT PUSH3 0xB1 JUMPI DUP1 PUSH4 0xF2BE7F53 GT PUSH3 0x7B JUMPI DUP1 PUSH4 0xF2BE7F53 EQ PUSH3 0x5D1 JUMPI DUP1 PUSH4 0xF4464E2A EQ PUSH3 0x5F3 JUMPI DUP1 PUSH4 0xFBFA77CF EQ PUSH3 0x615 JUMPI DUP1 PUSH4 0xFCFFF16F EQ PUSH3 0x637 JUMPI PUSH3 0x220 JUMP JUMPDEST DUP1 PUSH4 0xDDCA3F43 EQ PUSH3 0x549 JUMPI DUP1 PUSH4 0xDFBDE3FC EQ PUSH3 0x56B JUMPI DUP1 PUSH4 0xE06174E4 EQ PUSH3 0x58D JUMPI DUP1 PUSH4 0xE66F53B7 EQ PUSH3 0x5AF JUMPI PUSH3 0x220 JUMP JUMPDEST DUP1 PUSH4 0xC851CC32 GT PUSH3 0xF3 JUMPI DUP1 PUSH4 0xC851CC32 EQ PUSH3 0x4DD JUMPI DUP1 PUSH4 0xCD9D3DD8 EQ PUSH3 0x4FD JUMPI DUP1 PUSH4 0xD294F093 EQ PUSH3 0x51D JUMPI DUP1 PUSH4 0xDA1C4845 EQ PUSH3 0x529 JUMPI PUSH3 0x220 JUMP JUMPDEST DUP1 PUSH4 0x9CE110D7 EQ PUSH3 0x455 JUMPI DUP1 PUSH4 0xA5360D04 EQ PUSH3 0x477 JUMPI DUP1 PUSH4 0xADC1B956 EQ PUSH3 0x499 JUMPI DUP1 PUSH4 0xC45A0155 EQ PUSH3 0x4BB JUMPI PUSH3 0x220 JUMP JUMPDEST DUP1 PUSH4 0x4571E3A6 GT PUSH3 0x1AD JUMPI DUP1 PUSH4 0x6E99D77B GT PUSH3 0x177 JUMPI DUP1 PUSH4 0x6E99D77B EQ PUSH3 0x3CD JUMPI DUP1 PUSH4 0x765D6410 EQ PUSH3 0x3EF JUMPI DUP1 PUSH4 0x7D9F6DB5 EQ PUSH3 0x411 JUMPI DUP1 PUSH4 0x8025E303 EQ PUSH3 0x433 JUMPI PUSH3 0x220 JUMP JUMPDEST DUP1 PUSH4 0x4571E3A6 EQ PUSH3 0x349 JUMPI DUP1 PUSH4 0x4B09B72A EQ PUSH3 0x369 JUMPI DUP1 PUSH4 0x632A9A52 EQ PUSH3 0x38B JUMPI DUP1 PUSH4 0x660D0C4B EQ PUSH3 0x3AD JUMPI PUSH3 0x220 JUMP JUMPDEST DUP1 PUSH4 0x14442F54 GT PUSH3 0x1EF JUMPI DUP1 PUSH4 0x14442F54 EQ PUSH3 0x2AD JUMPI DUP1 PUSH4 0x3205F5FC EQ PUSH3 0x2CF JUMPI DUP1 PUSH4 0x372C12B1 EQ PUSH3 0x2F1 JUMPI DUP1 PUSH4 0x3B92EB23 EQ PUSH3 0x327 JUMPI PUSH3 0x220 JUMP JUMPDEST DUP1 PUSH4 0x47FC9AA EQ PUSH3 0x225 JUMPI DUP1 PUSH4 0xB1E4238 EQ PUSH3 0x247 JUMPI DUP1 PUSH4 0xC7D5CD8 EQ PUSH3 0x269 JUMPI DUP1 PUSH4 0x108ADC7A EQ PUSH3 0x28B JUMPI JUMPDEST PUSH1 0x0 DUP1 REVERT JUMPDEST PUSH3 0x22F PUSH3 0x659 JUMP JUMPDEST PUSH1 0x40 MLOAD PUSH3 0x23E SWAP2 SWAP1 PUSH3 0x32C9 JUMP JUMPDEST PUSH1 0x40 MLOAD DUP1 SWAP2 SUB SWAP1 RETURN JUMPDEST PUSH3 0x251 PUSH3 0x65F JUMP JUMPDEST PUSH1 0x40 MLOAD PUSH3 0x260 SWAP2 SWAP1 PUSH3 0x2EF2 JUMP JUMPDEST PUSH1 0x40 MLOAD DUP1 SWAP2 SUB SWAP1 RETURN JUMPDEST PUSH3 0x273 PUSH3 0x683 JUMP JUMPDEST PUSH1 0x40 MLOAD PUSH3 0x282 SWAP2 SWAP1 PUSH3 0x32C9 JUMP JUMPDEST PUSH1 0x40 MLOAD DUP1 SWAP2 SUB SWAP1 RETURN JUMPDEST PUSH3 0x295 PUSH3 0x689 JUMP JUMPDEST PUSH1 0x40 MLOAD PUSH3 0x2A4 SWAP2 SWAP1 PUSH3 0x32C9 JUMP JUMPDEST PUSH1 0x40 MLOAD DUP1 SWAP2 SUB SWAP1 RETURN JUMPDEST PUSH3 0x2B7 PUSH3 0x68F JUMP JUMPDEST PUSH1 0x40 MLOAD PUSH3 0x2C6 SWAP2 SWAP1 PUSH3 0x306E JUMP JUMPDEST PUSH1 0x40 MLOAD DUP1 SWAP2 SUB SWAP1 RETURN JUMPDEST PUSH3 0x2D9 PUSH3 0x6C8 JUMP JUMPDEST PUSH1 0x40 MLOAD PUSH3 0x2E8 SWAP2 SWAP1 PUSH3 0x2EF2 JUMP JUMPDEST PUSH1 0x40 MLOAD DUP1 SWAP2 SUB SWAP1 RETURN JUMPDEST PUSH3 0x30F PUSH1 0x4 DUP1 CALLDATASIZE SUB DUP2 ADD SWAP1 PUSH3 0x309 SWAP2 SWAP1 PUSH3 0x2439 JUMP JUMPDEST PUSH3 0x6EE JUMP JUMPDEST PUSH1 0x40 MLOAD PUSH3 0x31E SWAP2 SWAP1 PUSH3 0x3051 JUMP JUMPDEST PUSH1 0x40 MLOAD DUP1 SWAP2 SUB SWAP1 RETURN JUMPDEST PUSH3 0x331 PUSH3 0x70E JUMP JUMPDEST PUSH1 0x40 MLOAD PUSH3 0x340 SWAP2 SWAP1 PUSH3 0x2EF2 JUMP JUMPDEST PUSH1 0x40 MLOAD DUP1 SWAP2 SUB SWAP1 RETURN JUMPDEST PUSH3 0x367 PUSH1 0x4 DUP1 CALLDATASIZE SUB DUP2 ADD SWAP1 PUSH3 0x361 SWAP2 SWAP1 PUSH3 0x2491 JUMP JUMPDEST PUSH3 0x734 JUMP JUMPDEST STOP JUMPDEST PUSH3 0x373 PUSH3 0xA40 JUMP JUMPDEST PUSH1 0x40 MLOAD PUSH3 0x382 SWAP2 SWAP1 PUSH3 0x32C9 JUMP JUMPDEST PUSH1 0x40 MLOAD DUP1 SWAP2 SUB SWAP1 RETURN JUMPDEST PUSH3 0x395 PUSH3 0xA46 JUMP JUMPDEST PUSH1 0x40 MLOAD PUSH3 0x3A4 SWAP2 SWAP1 PUSH3 0x2EF2 JUMP JUMPDEST PUSH1 0x40 MLOAD DUP1 SWAP2 SUB SWAP1 RETURN JUMPDEST PUSH3 0x3CB PUSH1 0x4 DUP1 CALLDATASIZE SUB DUP2 ADD SWAP1 PUSH3 0x3C5 SWAP2 SWAP1 PUSH3 0x26AB JUMP JUMPDEST PUSH3 0xA6C JUMP JUMPDEST STOP JUMPDEST PUSH3 0x3D7 PUSH3 0x12E8 JUMP JUMPDEST PUSH1 0x40 MLOAD PUSH3 0x3E6 SWAP2 SWAP1 PUSH3 0x2EF2 JUMP JUMPDEST PUSH1 0x40 MLOAD DUP1 SWAP2 SUB SWAP1 RETURN JUMPDEST PUSH3 0x3F9 PUSH3 0x130C JUMP JUMPDEST PUSH1 0x40 MLOAD PUSH3 0x408 SWAP2 SWAP1 PUSH3 0x2EF2 JUMP JUMPDEST PUSH1 0x40 MLOAD DUP1 SWAP2 SUB SWAP1 RETURN JUMPDEST PUSH3 0x41B PUSH3 0x1330 JUMP JUMPDEST PUSH1 0x40 MLOAD PUSH3 0x42A SWAP2 SWAP1 PUSH3 0x2EF2 JUMP JUMPDEST PUSH1 0x40 MLOAD DUP1 SWAP2 SUB SWAP1 RETURN JUMPDEST PUSH3 0x43D PUSH3 0x1356 JUMP JUMPDEST PUSH1 0x40 MLOAD PUSH3 0x44C SWAP2 SWAP1 PUSH3 0x32AC JUMP JUMPDEST PUSH1 0x40 MLOAD DUP1 SWAP2 SUB SWAP1 RETURN JUMPDEST PUSH3 0x45F PUSH3 0x135B JUMP JUMPDEST PUSH1 0x40 MLOAD PUSH3 0x46E SWAP2 SWAP1 PUSH3 0x3051 JUMP JUMPDEST PUSH1 0x40 MLOAD DUP1 SWAP2 SUB SWAP1 RETURN JUMPDEST PUSH3 0x481 PUSH3 0x136E JUMP JUMPDEST PUSH1 0x40 MLOAD PUSH3 0x490 SWAP2 SWAP1 PUSH3 0x32C9 JUMP JUMPDEST PUSH1 0x40 MLOAD DUP1 SWAP2 SUB SWAP1 RETURN JUMPDEST PUSH3 0x4A3 PUSH3 0x1374 JUMP JUMPDEST PUSH1 0x40 MLOAD PUSH3 0x4B2 SWAP2 SWAP1 PUSH3 0x32C9 JUMP JUMPDEST PUSH1 0x40 MLOAD DUP1 SWAP2 SUB SWAP1 RETURN JUMPDEST PUSH3 0x4C5 PUSH3 0x137A JUMP JUMPDEST PUSH1 0x40 MLOAD PUSH3 0x4D4 SWAP2 SWAP1 PUSH3 0x2EF2 JUMP JUMPDEST PUSH1 0x40 MLOAD DUP1 SWAP2 SUB SWAP1 RETURN JUMPDEST PUSH3 0x4FB PUSH1 0x4 DUP1 CALLDATASIZE SUB DUP2 ADD SWAP1 PUSH3 0x4F5 SWAP2 SWAP1 PUSH3 0x2439 JUMP JUMPDEST PUSH3 0x139E JUMP JUMPDEST STOP JUMPDEST PUSH3 0x51B PUSH1 0x4 DUP1 CALLDATASIZE SUB DUP2 ADD SWAP1 PUSH3 0x515 SWAP2 SWAP1 PUSH3 0x2500 JUMP JUMPDEST PUSH3 0x165F JUMP JUMPDEST STOP JUMPDEST PUSH3 0x527 PUSH3 0x181E JUMP JUMPDEST STOP JUMPDEST PUSH3 0x547 PUSH1 0x4 DUP1 CALLDATASIZE SUB DUP2 ADD SWAP1 PUSH3 0x541 SWAP2 SWAP1 PUSH3 0x266A JUMP JUMPDEST PUSH3 0x1B8F JUMP JUMPDEST STOP JUMPDEST PUSH3 0x553 PUSH3 0x1C2E JUMP JUMPDEST PUSH1 0x40 MLOAD PUSH3 0x562 SWAP2 SWAP1 PUSH3 0x32C9 JUMP JUMPDEST PUSH1 0x40 MLOAD DUP1 SWAP2 SUB SWAP1 RETURN JUMPDEST PUSH3 0x575 PUSH3 0x1C34 JUMP JUMPDEST PUSH1 0x40 MLOAD PUSH3 0x584 SWAP2 SWAP1 PUSH3 0x306E JUMP JUMPDEST PUSH1 0x40 MLOAD DUP1 SWAP2 SUB SWAP1 RETURN JUMPDEST PUSH3 0x597 PUSH3 0x1CCA JUMP JUMPDEST PUSH1 0x40 MLOAD PUSH3 0x5A6 SWAP2 SWAP1 PUSH3 0x2EF2 JUMP JUMPDEST PUSH1 0x40 MLOAD DUP1 SWAP2 SUB SWAP1 RETURN JUMPDEST PUSH3 0x5B9 PUSH3 0x1CF0 JUMP JUMPDEST PUSH1 0x40 MLOAD PUSH3 0x5C8 SWAP2 SWAP1 PUSH3 0x2EF2 JUMP JUMPDEST PUSH1 0x40 MLOAD DUP1 SWAP2 SUB SWAP1 RETURN JUMPDEST PUSH3 0x5DB PUSH3 0x1D16 JUMP JUMPDEST PUSH1 0x40 MLOAD PUSH3 0x5EA SWAP2 SWAP1 PUSH3 0x2EF2 JUMP JUMPDEST PUSH1 0x40 MLOAD DUP1 SWAP2 SUB SWAP1 RETURN JUMPDEST PUSH3 0x5FD PUSH3 0x1D3A JUMP JUMPDEST PUSH1 0x40 MLOAD PUSH3 0x60C SWAP2 SWAP1 PUSH3 0x2EF2 JUMP JUMPDEST PUSH1 0x40 MLOAD DUP1 SWAP2 SUB SWAP1 RETURN JUMPDEST PUSH3 0x61F PUSH3 0x1D5E JUMP JUMPDEST PUSH1 0x40 MLOAD PUSH3 0x62E SWAP2 SWAP1 PUSH3 0x2EF2 JUMP JUMPDEST PUSH1 0x40 MLOAD DUP1 SWAP2 SUB SWAP1 RETURN JUMPDEST PUSH3 0x641 PUSH3 0x1D84 JUMP JUMPDEST PUSH1 0x40 MLOAD PUSH3 0x650 SWAP2 SWAP1 PUSH3 0x3051 JUMP JUMPDEST PUSH1 0x40 MLOAD DUP1 SWAP2 SUB SWAP1 RETURN JUMPDEST PUSH1 0xE SLOAD DUP2 JUMP JUMPDEST PUSH32 0x0 DUP2 JUMP JUMPDEST PUSH1 0xC SLOAD DUP2 JUMP JUMPDEST PUSH1 0x11 SLOAD DUP2 JUMP JUMPDEST PUSH1 0x40 MLOAD DUP1 PUSH1 0x40 ADD PUSH1 0x40 MSTORE DUP1 PUSH1 0x19 DUP2 MSTORE PUSH1 0x20 ADD PUSH32 0x546F6B656E2045636F6E6F6D696320262050726F706F736F6C00000000000000 DUP2 MSTORE POP DUP2 JUMP JUMPDEST PUSH1 0x6 PUSH1 0x0 SWAP1 SLOAD SWAP1 PUSH2 0x100 EXP SWAP1 DIV PUSH20 0xFFFFFFFFFFFFFFFFFFFFFFFFFFFFFFFFFFFFFFFF AND DUP2 JUMP JUMPDEST PUSH1 0x8 PUSH1 0x20 MSTORE DUP1 PUSH1 0x0 MSTORE PUSH1 0x40 PUSH1 0x0 KECCAK256 PUSH1 0x0 SWAP2 POP SLOAD SWAP1 PUSH2 0x100 EXP SWAP1 DIV PUSH1 0xFF AND DUP2 JUMP JUMPDEST PUSH1 0x3 PUSH1 0x0 SWAP1 SLOAD SWAP1 PUSH2 0x100 EXP SWAP1 DIV PUSH20 0xFFFFFFFFFFFFFFFFFFFFFFFFFFFFFFFFFFFFFFFF AND DUP2 JUMP JUMPDEST PUSH1 0x9 PUSH1 0x0 SWAP1 SLOAD SWAP1 PUSH2 0x100 EXP SWAP1 DIV PUSH1 0xFF AND ISZERO PUSH3 0x787 JUMPI PUSH1 0x40 MLOAD PUSH32 0x8C379A000000000000000000000000000000000000000000000000000000000 DUP2 MSTORE PUSH1 0x4 ADD PUSH3 0x77E SWAP1 PUSH3 0x3246 JUMP JUMPDEST PUSH1 0x40 MLOAD DUP1 SWAP2 SUB SWAP1 REVERT JUMPDEST PUSH1 0x9 PUSH1 0x0 SWAP1 SLOAD SWAP1 PUSH2 0x100 EXP SWAP1 DIV PUSH1 0xFF AND ISZERO PUSH1 0x9 PUSH1 0x0 PUSH2 0x100 EXP DUP2 SLOAD DUP2 PUSH1 0xFF MUL NOT AND SWAP1 DUP4 ISZERO ISZERO MUL OR SWAP1 SSTORE POP CALLER PUSH1 0x0 DUP1 PUSH2 0x100 EXP DUP2 SLOAD DUP2 PUSH20 0xFFFFFFFFFFFFFFFFFFFFFFFFFFFFFFFFFFFFFFFF MUL NOT AND SWAP1 DUP4 PUSH20 0xFFFFFFFFFFFFFFFFFFFFFFFFFFFFFFFFFFFFFFFF AND MUL OR SWAP1 SSTORE POP DUP1 PUSH1 0xA SWAP1 DUP1 MLOAD SWAP1 PUSH1 0x20 ADD SWAP1 PUSH3 0x809 SWAP3 SWAP2 SWAP1 PUSH3 0x2099 JUMP JUMPDEST POP PUSH1 0x0 PUSH1 0x40 MLOAD PUSH1 0x24 ADD PUSH1 0x40 MLOAD PUSH1 0x20 DUP2 DUP4 SUB SUB DUP2 MSTORE SWAP1 PUSH1 0x40 MSTORE PUSH32 0x8129FC1C00000000000000000000000000000000000000000000000000000000 PUSH28 0xFFFFFFFFFFFFFFFFFFFFFFFFFFFFFFFFFFFFFFFFFFFFFFFFFFFFFFFF NOT AND PUSH1 0x20 DUP3 ADD DUP1 MLOAD PUSH28 0xFFFFFFFFFFFFFFFFFFFFFFFFFFFFFFFFFFFFFFFFFFFFFFFFFFFFFFFF DUP4 DUP2 DUP4 AND OR DUP4 MSTORE POP POP POP POP SWAP1 POP PUSH3 0x8BD PUSH32 0x0 DUP3 PUSH3 0x1D97 JUMP JUMPDEST PUSH1 0x2 PUSH1 0x0 PUSH2 0x100 EXP DUP2 SLOAD DUP2 PUSH20 0xFFFFFFFFFFFFFFFFFFFFFFFFFFFFFFFFFFFFFFFF MUL NOT AND SWAP1 DUP4 PUSH20 0xFFFFFFFFFFFFFFFFFFFFFFFFFFFFFFFFFFFFFFFF AND MUL OR SWAP1 SSTORE POP PUSH3 0x92C PUSH1 0x2 PUSH1 0x0 SWAP1 SLOAD SWAP1 PUSH2 0x100 EXP SWAP1 DIV PUSH20 0xFFFFFFFFFFFFFFFFFFFFFFFFFFFFFFFFFFFFFFFF AND PUSH1 0x1 PUSH3 0x1DDC JUMP JUMPDEST PUSH3 0x939 ADDRESS PUSH1 0x1 PUSH3 0x1DDC JUMP JUMPDEST DUP4 PUSH1 0x7 PUSH1 0x0 PUSH2 0x100 EXP DUP2 SLOAD DUP2 PUSH20 0xFFFFFFFFFFFFFFFFFFFFFFFFFFFFFFFFFFFFFFFF MUL NOT AND SWAP1 DUP4 PUSH20 0xFFFFFFFFFFFFFFFFFFFFFFFFFFFFFFFFFFFFFFFF AND MUL OR SWAP1 SSTORE POP DUP3 PUSH1 0x1 PUSH1 0x0 PUSH2 0x100 EXP DUP2 SLOAD DUP2 PUSH20 0xFFFFFFFFFFFFFFFFFFFFFFFFFFFFFFFFFFFFFFFF MUL NOT AND SWAP1 DUP4 PUSH20 0xFFFFFFFFFFFFFFFFFFFFFFFFFFFFFFFFFFFFFFFF AND MUL OR SWAP1 SSTORE POP PUSH32 0xDC90FED0326BA91706DEEAC7EB34AC9F8B680734F9D782864DC29704D23BED6A PUSH1 0x7 PUSH1 0x0 SWAP1 SLOAD SWAP1 PUSH2 0x100 EXP SWAP1 DIV PUSH20 0xFFFFFFFFFFFFFFFFFFFFFFFFFFFFFFFFFFFFFFFF AND PUSH1 0x2 PUSH1 0x0 SWAP1 SLOAD SWAP1 PUSH2 0x100 EXP SWAP1 DIV PUSH20 0xFFFFFFFFFFFFFFFFFFFFFFFFFFFFFFFFFFFFFFFF AND PUSH1 0x40 MLOAD PUSH3 0xA32 SWAP3 SWAP2 SWAP1 PUSH3 0x2F0F JUMP JUMPDEST PUSH1 0x40 MLOAD DUP1 SWAP2 SUB SWAP1 LOG1 POP POP POP POP JUMP JUMPDEST PUSH1 0xD SLOAD DUP2 JUMP JUMPDEST PUSH1 0x5 PUSH1 0x0 SWAP1 SLOAD SWAP1 PUSH2 0x100 EXP SWAP1 DIV PUSH20 0xFFFFFFFFFFFFFFFFFFFFFFFFFFFFFFFFFFFFFFFF AND DUP2 JUMP JUMPDEST PUSH1 0x0 PUSH1 0x2 PUSH1 0x0 SWAP1 SLOAD SWAP1 PUSH2 0x100 EXP SWAP1 DIV PUSH20 0xFFFFFFFFFFFFFFFFFFFFFFFFFFFFFFFFFFFFFFFF AND PUSH20 0xFFFFFFFFFFFFFFFFFFFFFFFFFFFFFFFFFFFFFFFF AND PUSH4 0x634F6319 PUSH1 0x40 MLOAD DUP2 PUSH4 0xFFFFFFFF AND PUSH1 0xE0 SHL DUP2 MSTORE PUSH1 0x4 ADD PUSH1 0x0 PUSH1 0x40 MLOAD DUP1 DUP4 SUB DUP2 DUP7 DUP1 EXTCODESIZE ISZERO DUP1 ISZERO PUSH3 0xAD7 JUMPI PUSH1 0x0 DUP1 REVERT JUMPDEST POP GAS STATICCALL ISZERO DUP1 ISZERO PUSH3 0xAEC JUMPI RETURNDATASIZE PUSH1 0x0 DUP1 RETURNDATACOPY RETURNDATASIZE PUSH1 0x0 REVERT JUMPDEST POP POP POP POP PUSH1 0x40 MLOAD RETURNDATASIZE PUSH1 0x0 DUP3 RETURNDATACOPY RETURNDATASIZE PUSH1 0x1F NOT PUSH1 0x1F DUP3 ADD AND DUP3 ADD DUP1 PUSH1 0x40 MSTORE POP DUP2 ADD SWAP1 PUSH3 0xB17 SWAP2 SWAP1 PUSH3 0x25A1 JUMP JUMPDEST MLOAD EQ ISZERO PUSH3 0xB5C JUMPI PUSH1 0x40 MLOAD PUSH32 0x8C379A000000000000000000000000000000000000000000000000000000000 DUP2 MSTORE PUSH1 0x4 ADD PUSH3 0xB53 SWAP1 PUSH3 0x328A JUMP JUMPDEST PUSH1 0x40 MLOAD DUP1 SWAP2 SUB SWAP1 REVERT JUMPDEST PUSH1 0x7 PUSH1 0x0 SWAP1 SLOAD SWAP1 PUSH2 0x100 EXP SWAP1 DIV PUSH20 0xFFFFFFFFFFFFFFFFFFFFFFFFFFFFFFFFFFFFFFFF AND PUSH20 0xFFFFFFFFFFFFFFFFFFFFFFFFFFFFFFFFFFFFFFFF AND CALLER PUSH20 0xFFFFFFFFFFFFFFFFFFFFFFFFFFFFFFFFFFFFFFFF AND EQ PUSH3 0xBEF JUMPI PUSH1 0x40 MLOAD PUSH32 0x8C379A000000000000000000000000000000000000000000000000000000000 DUP2 MSTORE PUSH1 0x4 ADD PUSH3 0xBE6 SWAP1 PUSH3 0x3268 JUMP JUMPDEST PUSH1 0x40 MLOAD DUP1 SWAP2 SUB SWAP1 REVERT JUMPDEST PUSH1 0x9 PUSH1 0x1 SWAP1 SLOAD SWAP1 PUSH2 0x100 EXP SWAP1 DIV PUSH1 0xFF AND ISZERO PUSH3 0xC42 JUMPI PUSH1 0x40 MLOAD PUSH32 0x8C379A000000000000000000000000000000000000000000000000000000000 DUP2 MSTORE PUSH1 0x4 ADD PUSH3 0xC39 SWAP1 PUSH3 0x3133 JUMP JUMPDEST PUSH1 0x40 MLOAD DUP1 SWAP2 SUB SWAP1 REVERT JUMPDEST PUSH10 0x21E19E0C9BAB2400000 DUP7 LT ISZERO PUSH3 0xC92 JUMPI PUSH1 0x40 MLOAD PUSH32 0x8C379A000000000000000000000000000000000000000000000000000000000 DUP2 MSTORE PUSH1 0x4 ADD PUSH3 0xC89 SWAP1 PUSH3 0x31BB JUMP JUMPDEST PUSH1 0x40 MLOAD DUP1 SWAP2 SUB SWAP1 REVERT JUMPDEST PUSH1 0x63 DUP5 GT ISZERO PUSH3 0xCD9 JUMPI PUSH1 0x40 MLOAD PUSH32 0x8C379A000000000000000000000000000000000000000000000000000000000 DUP2 MSTORE PUSH1 0x4 ADD PUSH3 0xCD0 SWAP1 PUSH3 0x30CD JUMP JUMPDEST PUSH1 0x40 MLOAD DUP1 SWAP2 SUB SWAP1 REVERT JUMPDEST PUSH1 0x1 PUSH1 0x9 PUSH1 0x1 PUSH2 0x100 EXP DUP2 SLOAD DUP2 PUSH1 0xFF MUL NOT AND SWAP1 DUP4 ISZERO ISZERO MUL OR SWAP1 SSTORE POP PUSH1 0x0 PUSH1 0x40 MLOAD PUSH1 0x24 ADD PUSH1 0x40 MLOAD PUSH1 0x20 DUP2 DUP4 SUB SUB DUP2 MSTORE SWAP1 PUSH1 0x40 MSTORE PUSH32 0x8129FC1C00000000000000000000000000000000000000000000000000000000 PUSH28 0xFFFFFFFFFFFFFFFFFFFFFFFFFFFFFFFFFFFFFFFFFFFFFFFFFFFFFFFF NOT AND PUSH1 0x20 DUP3 ADD DUP1 MLOAD PUSH28 0xFFFFFFFFFFFFFFFFFFFFFFFFFFFFFFFFFFFFFFFFFFFFFFFFFFFFFFFF DUP4 DUP2 DUP4 AND OR DUP4 MSTORE POP POP POP POP SWAP1 POP PUSH3 0xDA7 PUSH32 0x0 DUP3 PUSH3 0x1D97 JUMP JUMPDEST PUSH1 0x3 PUSH1 0x0 PUSH2 0x100 EXP DUP2 SLOAD DUP2 PUSH20 0xFFFFFFFFFFFFFFFFFFFFFFFFFFFFFFFFFFFFFFFF MUL NOT AND SWAP1 DUP4 PUSH20 0xFFFFFFFFFFFFFFFFFFFFFFFFFFFFFFFFFFFFFFFF AND MUL OR SWAP1 SSTORE POP PUSH3 0xE16 PUSH1 0x3 PUSH1 0x0 SWAP1 SLOAD SWAP1 PUSH2 0x100 EXP SWAP1 DIV PUSH20 0xFFFFFFFFFFFFFFFFFFFFFFFFFFFFFFFFFFFFFFFF AND PUSH1 0x1 PUSH3 0x1DDC JUMP JUMPDEST PUSH3 0xE42 PUSH32 0x0 DUP3 PUSH3 0x1D97 JUMP JUMPDEST PUSH1 0x4 PUSH1 0x0 PUSH2 0x100 EXP DUP2 SLOAD DUP2 PUSH20 0xFFFFFFFFFFFFFFFFFFFFFFFFFFFFFFFFFFFFFFFF MUL NOT AND SWAP1 DUP4 PUSH20 0xFFFFFFFFFFFFFFFFFFFFFFFFFFFFFFFFFFFFFFFF AND MUL OR SWAP1 SSTORE POP PUSH3 0xEB1 PUSH1 0x4 PUSH1 0x0 SWAP1 SLOAD SWAP1 PUSH2 0x100 EXP SWAP1 DIV PUSH20 0xFFFFFFFFFFFFFFFFFFFFFFFFFFFFFFFFFFFFFFFF AND PUSH1 0x1 PUSH3 0x1DDC JUMP JUMPDEST PUSH3 0xEDD PUSH32 0x0 DUP3 PUSH3 0x1D97 JUMP JUMPDEST PUSH1 0x5 PUSH1 0x0 PUSH2 0x100 EXP DUP2 SLOAD DUP2 PUSH20 0xFFFFFFFFFFFFFFFFFFFFFFFFFFFFFFFFFFFFFFFF MUL NOT AND SWAP1 DUP4 PUSH20 0xFFFFFFFFFFFFFFFFFFFFFFFFFFFFFFFFFFFFFFFF AND MUL OR SWAP1 SSTORE POP PUSH3 0xF4C PUSH1 0x5 PUSH1 0x0 SWAP1 SLOAD SWAP1 PUSH2 0x100 EXP SWAP1 DIV PUSH20 0xFFFFFFFFFFFFFFFFFFFFFFFFFFFFFFFFFFFFFFFF AND PUSH1 0x1 PUSH3 0x1DDC JUMP JUMPDEST PUSH1 0x0 PUSH1 0xA DUP8 PUSH1 0x40 MLOAD PUSH1 0x24 ADD PUSH3 0xF64 SWAP3 SWAP2 SWAP1 PUSH3 0x3092 JUMP JUMPDEST PUSH1 0x40 MLOAD PUSH1 0x20 DUP2 DUP4 SUB SUB DUP2 MSTORE SWAP1 PUSH1 0x40 MSTORE PUSH32 0x4CD88B7600000000000000000000000000000000000000000000000000000000 PUSH28 0xFFFFFFFFFFFFFFFFFFFFFFFFFFFFFFFFFFFFFFFFFFFFFFFFFFFFFFFF NOT AND PUSH1 0x20 DUP3 ADD DUP1 MLOAD PUSH28 0xFFFFFFFFFFFFFFFFFFFFFFFFFFFFFFFFFFFFFFFFFFFFFFFFFFFFFFFF DUP4 DUP2 DUP4 AND OR DUP4 MSTORE POP POP POP POP SWAP1 POP PUSH3 0x100F PUSH32 0x0 DUP3 PUSH3 0x1D97 JUMP JUMPDEST PUSH1 0x6 PUSH1 0x0 PUSH2 0x100 EXP DUP2 SLOAD DUP2 PUSH20 0xFFFFFFFFFFFFFFFFFFFFFFFFFFFFFFFFFFFFFFFF MUL NOT AND SWAP1 DUP4 PUSH20 0xFFFFFFFFFFFFFFFFFFFFFFFFFFFFFFFFFFFFFFFF AND MUL OR SWAP1 SSTORE POP PUSH3 0x107E PUSH1 0x6 PUSH1 0x0 SWAP1 SLOAD SWAP1 PUSH2 0x100 EXP SWAP1 DIV PUSH20 0xFFFFFFFFFFFFFFFFFFFFFFFFFFFFFFFFFFFFFFFF AND PUSH1 0x1 PUSH3 0x1DDC JUMP JUMPDEST TIMESTAMP PUSH1 0xB DUP2 SWAP1 SSTORE POP PUSH1 0x0 PUSH1 0xF DUP2 SWAP1 SSTORE POP DUP6 PUSH1 0xC DUP2 SWAP1 SSTORE POP PUSH3 0x10C2 DUP9 PUSH1 0x7 PUSH1 0x0 SWAP1 SLOAD SWAP1 PUSH2 0x100 EXP SWAP1 DIV PUSH20 0xFFFFFFFFFFFFFFFFFFFFFFFFFFFFFFFFFFFFFFFF AND PUSH3 0x1E37 JUMP JUMPDEST PUSH1 0x5 PUSH1 0x0 SWAP1 SLOAD SWAP1 PUSH2 0x100 EXP SWAP1 DIV PUSH20 0xFFFFFFFFFFFFFFFFFFFFFFFFFFFFFFFFFFFFFFFF AND PUSH20 0xFFFFFFFFFFFFFFFFFFFFFFFFFFFFFFFFFFFFFFFF AND PUSH4 0xE3A1C1C7 PUSH1 0x5 PUSH1 0x0 SWAP1 SLOAD SWAP1 PUSH2 0x100 EXP SWAP1 DIV PUSH20 0xFFFFFFFFFFFFFFFFFFFFFFFFFFFFFFFFFFFFFFFF AND PUSH1 0x40 MLOAD DUP3 PUSH4 0xFFFFFFFF AND PUSH1 0xE0 SHL DUP2 MSTORE PUSH1 0x4 ADD PUSH3 0x1141 SWAP2 SWAP1 PUSH3 0x31FF JUMP JUMPDEST PUSH1 0x0 PUSH1 0x40 MLOAD DUP1 DUP4 SUB DUP2 PUSH1 0x0 DUP8 DUP1 EXTCODESIZE ISZERO DUP1 ISZERO PUSH3 0x115C JUMPI PUSH1 0x0 DUP1 REVERT JUMPDEST POP GAS CALL ISZERO DUP1 ISZERO PUSH3 0x1171 JUMPI RETURNDATASIZE PUSH1 0x0 DUP1 RETURNDATACOPY RETURNDATASIZE PUSH1 0x0 REVERT JUMPDEST POP POP POP POP PUSH1 0x4 PUSH1 0x0 SWAP1 SLOAD SWAP1 PUSH2 0x100 EXP SWAP1 DIV PUSH20 0xFFFFFFFFFFFFFFFFFFFFFFFFFFFFFFFFFFFFFFFF AND PUSH20 0xFFFFFFFFFFFFFFFFFFFFFFFFFFFFFFFFFFFFFFFF AND PUSH4 0x91B7F5ED DUP7 PUSH1 0x40 MLOAD DUP3 PUSH4 0xFFFFFFFF AND PUSH1 0xE0 SHL DUP2 MSTORE PUSH1 0x4 ADD PUSH3 0x11D2 SWAP2 SWAP1 PUSH3 0x32C9 JUMP JUMPDEST PUSH1 0x0 PUSH1 0x40 MLOAD DUP1 DUP4 SUB DUP2 PUSH1 0x0 DUP8 DUP1 EXTCODESIZE ISZERO DUP1 ISZERO PUSH3 0x11ED JUMPI PUSH1 0x0 DUP1 REVERT JUMPDEST POP GAS CALL ISZERO DUP1 ISZERO PUSH3 0x1202 JUMPI RETURNDATASIZE PUSH1 0x0 DUP1 RETURNDATACOPY RETURNDATASIZE PUSH1 0x0 REVERT JUMPDEST POP POP POP POP PUSH32 0x8B62DD8E86CD198D671FF797219A5C7946C3D55B7F40E4062E60C69658F3FFCD DUP9 PUSH1 0xA DUP10 PUSH1 0xC SLOAD DUP10 DUP10 DUP10 PUSH1 0x3 PUSH1 0x0 SWAP1 SLOAD SWAP1 PUSH2 0x100 EXP SWAP1 DIV PUSH20 0xFFFFFFFFFFFFFFFFFFFFFFFFFFFFFFFFFFFFFFFF AND PUSH1 0x4 PUSH1 0x0 SWAP1 SLOAD SWAP1 PUSH2 0x100 EXP SWAP1 DIV PUSH20 0xFFFFFFFFFFFFFFFFFFFFFFFFFFFFFFFFFFFFFFFF AND PUSH1 0x5 PUSH1 0x0 SWAP1 SLOAD SWAP1 PUSH2 0x100 EXP SWAP1 DIV PUSH20 0xFFFFFFFFFFFFFFFFFFFFFFFFFFFFFFFFFFFFFFFF AND PUSH1 0x6 PUSH1 0x0 SWAP1 SLOAD SWAP1 PUSH2 0x100 EXP SWAP1 DIV PUSH20 0xFFFFFFFFFFFFFFFFFFFFFFFFFFFFFFFFFFFFFFFF AND PUSH1 0x40 MLOAD PUSH3 0x12D6 SWAP12 SWAP11 SWAP10 SWAP9 SWAP8 SWAP7 SWAP6 SWAP5 SWAP4 SWAP3 SWAP2 SWAP1 PUSH3 0x32E6 JUMP JUMPDEST PUSH1 0x40 MLOAD DUP1 SWAP2 SUB SWAP1 LOG1 POP POP POP POP POP POP POP POP JUMP JUMPDEST PUSH32 0x0 DUP2 JUMP JUMPDEST PUSH32 0x0 DUP2 JUMP JUMPDEST PUSH1 0x4 PUSH1 0x0 SWAP1 SLOAD SWAP1 PUSH2 0x100 EXP SWAP1 DIV PUSH20 0xFFFFFFFFFFFFFFFFFFFFFFFFFFFFFFFFFFFFFFFF AND DUP2 JUMP JUMPDEST PUSH1 0xA DUP2 JUMP JUMPDEST PUSH1 0x9 PUSH1 0x0 SWAP1 SLOAD SWAP1 PUSH2 0x100 EXP SWAP1 DIV PUSH1 0xFF AND DUP2 JUMP JUMPDEST PUSH1 0x10 SLOAD DUP2 JUMP JUMPDEST PUSH1 0xB SLOAD DUP2 JUMP JUMPDEST PUSH1 0x0 DUP1 SLOAD SWAP1 PUSH2 0x100 EXP SWAP1 DIV PUSH20 0xFFFFFFFFFFFFFFFFFFFFFFFFFFFFFFFFFFFFFFFF AND DUP2 JUMP JUMPDEST PUSH1 0x8 PUSH1 0x0 CALLER PUSH20 0xFFFFFFFFFFFFFFFFFFFFFFFFFFFFFFFFFFFFFFFF AND PUSH20 0xFFFFFFFFFFFFFFFFFFFFFFFFFFFFFFFFFFFFFFFF AND DUP2 MSTORE PUSH1 0x20 ADD SWAP1 DUP2 MSTORE PUSH1 0x20 ADD PUSH1 0x0 KECCAK256 PUSH1 0x0 SWAP1 SLOAD SWAP1 PUSH2 0x100 EXP SWAP1 DIV PUSH1 0xFF AND PUSH3 0x142D JUMPI PUSH1 0x40 MLOAD PUSH32 0x8C379A000000000000000000000000000000000000000000000000000000000 DUP2 MSTORE PUSH1 0x4 ADD PUSH3 0x1424 SWAP1 PUSH3 0x31DD JUMP JUMPDEST PUSH1 0x40 MLOAD DUP1 SWAP2 SUB SWAP1 REVERT JUMPDEST PUSH1 0x0 DUP1 SLOAD SWAP1 PUSH2 0x100 EXP SWAP1 DIV PUSH20 0xFFFFFFFFFFFFFFFFFFFFFFFFFFFFFFFFFFFFFFFF AND PUSH20 0xFFFFFFFFFFFFFFFFFFFFFFFFFFFFFFFFFFFFFFFF AND PUSH4 0x3955D09A DUP3 PUSH1 0x40 MLOAD DUP3 PUSH4 0xFFFFFFFF AND PUSH1 0xE0 SHL DUP2 MSTORE PUSH1 0x4 ADD PUSH3 0x1488 SWAP2 SWAP1 PUSH3 0x2EF2 JUMP JUMPDEST PUSH1 0x20 PUSH1 0x40 MLOAD DUP1 DUP4 SUB DUP2 PUSH1 0x0 DUP8 DUP1 EXTCODESIZE ISZERO DUP1 ISZERO PUSH3 0x14A3 JUMPI PUSH1 0x0 DUP1 REVERT JUMPDEST POP GAS CALL ISZERO DUP1 ISZERO PUSH3 0x14B8 JUMPI RETURNDATASIZE PUSH1 0x0 DUP1 RETURNDATACOPY RETURNDATASIZE PUSH1 0x0 REVERT JUMPDEST POP POP POP POP PUSH1 0x40 MLOAD RETURNDATASIZE PUSH1 0x1F NOT PUSH1 0x1F DUP3 ADD AND DUP3 ADD DUP1 PUSH1 0x40 MSTORE POP DUP2 ADD SWAP1 PUSH3 0x14DE SWAP2 SWAP1 PUSH3 0x25E6 JUMP JUMPDEST PUSH3 0x1520 JUMPI PUSH1 0x40 MLOAD PUSH32 0x8C379A000000000000000000000000000000000000000000000000000000000 DUP2 MSTORE PUSH1 0x4 ADD PUSH3 0x1517 SWAP1 PUSH3 0x3155 JUMP JUMPDEST PUSH1 0x40 MLOAD DUP1 SWAP2 SUB SWAP1 REVERT JUMPDEST PUSH1 0x0 DUP1 DUP3 PUSH20 0xFFFFFFFFFFFFFFFFFFFFFFFFFFFFFFFFFFFFFFFF AND PUSH1 0x40 MLOAD PUSH1 0x24 ADD PUSH1 0x40 MLOAD PUSH1 0x20 DUP2 DUP4 SUB SUB DUP2 MSTORE SWAP1 PUSH1 0x40 MSTORE PUSH32 0x736F9E4200000000000000000000000000000000000000000000000000000000 PUSH28 0xFFFFFFFFFFFFFFFFFFFFFFFFFFFFFFFFFFFFFFFFFFFFFFFFFFFFFFFF NOT AND PUSH1 0x20 DUP3 ADD DUP1 MLOAD PUSH28 0xFFFFFFFFFFFFFFFFFFFFFFFFFFFFFFFFFFFFFFFFFFFFFFFFFFFFFFFF DUP4 DUP2 DUP4 AND OR DUP4 MSTORE POP POP POP POP PUSH1 0x40 MLOAD PUSH3 0x15CC SWAP2 SWAP1 PUSH3 0x2ED9 JUMP JUMPDEST PUSH1 0x0 PUSH1 0x40 MLOAD DUP1 DUP4 SUB DUP2 DUP6 GAS DELEGATECALL SWAP2 POP POP RETURNDATASIZE DUP1 PUSH1 0x0 DUP2 EQ PUSH3 0x1609 JUMPI PUSH1 0x40 MLOAD SWAP2 POP PUSH1 0x1F NOT PUSH1 0x3F RETURNDATASIZE ADD AND DUP3 ADD PUSH1 0x40 MSTORE RETURNDATASIZE DUP3 MSTORE RETURNDATASIZE PUSH1 0x0 PUSH1 0x20 DUP5 ADD RETURNDATACOPY PUSH3 0x160E JUMP JUMPDEST PUSH1 0x60 SWAP2 POP JUMPDEST POP SWAP2 POP SWAP2 POP DUP2 DUP2 SWAP1 PUSH3 0x1659 JUMPI PUSH1 0x40 MLOAD PUSH32 0x8C379A000000000000000000000000000000000000000000000000000000000 DUP2 MSTORE PUSH1 0x4 ADD PUSH3 0x1650 SWAP2 SWAP1 PUSH3 0x306E JUMP JUMPDEST PUSH1 0x40 MLOAD DUP1 SWAP2 SUB SWAP1 REVERT JUMPDEST POP POP POP POP JUMP JUMPDEST PUSH1 0x9 PUSH1 0x1 SWAP1 SLOAD SWAP1 PUSH2 0x100 EXP SWAP1 DIV PUSH1 0xFF AND ISZERO PUSH3 0x16B2 JUMPI PUSH1 0x40 MLOAD PUSH32 0x8C379A000000000000000000000000000000000000000000000000000000000 DUP2 MSTORE PUSH1 0x4 ADD PUSH3 0x16A9 SWAP1 PUSH3 0x3199 JUMP JUMPDEST PUSH1 0x40 MLOAD DUP1 SWAP2 SUB SWAP1 REVERT JUMPDEST PUSH1 0x7 PUSH1 0x0 SWAP1 SLOAD SWAP1 PUSH2 0x100 EXP SWAP1 DIV PUSH20 0xFFFFFFFFFFFFFFFFFFFFFFFFFFFFFFFFFFFFFFFF AND PUSH20 0xFFFFFFFFFFFFFFFFFFFFFFFFFFFFFFFFFFFFFFFF AND CALLER PUSH20 0xFFFFFFFFFFFFFFFFFFFFFFFFFFFFFFFFFFFFFFFF AND EQ PUSH3 0x1745 JUMPI PUSH1 0x40 MLOAD PUSH32 0x8C379A000000000000000000000000000000000000000000000000000000000 DUP2 MSTORE PUSH1 0x4 ADD PUSH3 0x173C SWAP1 PUSH3 0x30EF JUMP JUMPDEST PUSH1 0x40 MLOAD DUP1 SWAP2 SUB SWAP1 REVERT JUMPDEST PUSH1 0x2 PUSH1 0x0 SWAP1 SLOAD SWAP1 PUSH2 0x100 EXP SWAP1 DIV PUSH20 0xFFFFFFFFFFFFFFFFFFFFFFFFFFFFFFFFFFFFFFFF AND PUSH20 0xFFFFFFFFFFFFFFFFFFFFFFFFFFFFFFFFFFFFFFFF AND PUSH4 0xE2019AB3 DUP5 DUP5 DUP5 CALLER PUSH1 0x40 MLOAD DUP6 PUSH4 0xFFFFFFFF AND PUSH1 0xE0 SHL DUP2 MSTORE PUSH1 0x4 ADD PUSH3 0x17A8 SWAP5 SWAP4 SWAP3 SWAP2 SWAP1 PUSH3 0x2FEF JUMP JUMPDEST PUSH1 0x0 PUSH1 0x40 MLOAD DUP1 DUP4 SUB DUP2 PUSH1 0x0 DUP8 DUP1 EXTCODESIZE ISZERO DUP1 ISZERO PUSH3 0x17C3 JUMPI PUSH1 0x0 DUP1 REVERT JUMPDEST POP GAS CALL ISZERO DUP1 ISZERO PUSH3 0x17D8 JUMPI RETURNDATASIZE PUSH1 0x0 DUP1 RETURNDATACOPY RETURNDATASIZE PUSH1 0x0 REVERT JUMPDEST POP POP POP POP PUSH32 0x3A29EC296622EF644C7845A1C556399C39CD768E645A903D7911A7F5BC1E4011 DUP4 DUP4 DUP4 PUSH1 0x40 MLOAD PUSH3 0x1811 SWAP4 SWAP3 SWAP2 SWAP1 PUSH3 0x2F9D JUMP JUMPDEST PUSH1 0x40 MLOAD DUP1 SWAP2 SUB SWAP1 LOG1 POP POP POP JUMP JUMPDEST PUSH1 0x2 DUP1 DUP2 GT ISZERO PUSH3 0x1858 JUMPI PUSH32 0x4E487B7100000000000000000000000000000000000000000000000000000000 PUSH1 0x0 MSTORE PUSH1 0x21 PUSH1 0x4 MSTORE PUSH1 0x24 PUSH1 0x0 REVERT JUMPDEST PUSH1 0x2 PUSH1 0x0 SWAP1 SLOAD SWAP1 PUSH2 0x100 EXP SWAP1 DIV PUSH20 0xFFFFFFFFFFFFFFFFFFFFFFFFFFFFFFFFFFFFFFFF AND PUSH20 0xFFFFFFFFFFFFFFFFFFFFFFFFFFFFFFFFFFFFFFFF AND PUSH4 0xD58BFA9D PUSH1 0x40 MLOAD DUP2 PUSH4 0xFFFFFFFF AND PUSH1 0xE0 SHL DUP2 MSTORE PUSH1 0x4 ADD PUSH1 0x20 PUSH1 0x40 MLOAD DUP1 DUP4 SUB DUP2 DUP7 DUP1 EXTCODESIZE ISZERO DUP1 ISZERO PUSH3 0x18C1 JUMPI PUSH1 0x0 DUP1 REVERT JUMPDEST POP GAS STATICCALL ISZERO DUP1 ISZERO PUSH3 0x18D6 JUMPI RETURNDATASIZE PUSH1 0x0 DUP1 RETURNDATACOPY RETURNDATASIZE PUSH1 0x0 REVERT JUMPDEST POP POP POP POP PUSH1 0x40 MLOAD RETURNDATASIZE PUSH1 0x1F NOT PUSH1 0x1F DUP3 ADD AND DUP3 ADD DUP1 PUSH1 0x40 MSTORE POP DUP2 ADD SWAP1 PUSH3 0x18FC SWAP2 SWAP1 PUSH3 0x2612 JUMP JUMPDEST PUSH1 0x2 DUP2 GT ISZERO PUSH3 0x1935 JUMPI PUSH32 0x4E487B7100000000000000000000000000000000000000000000000000000000 PUSH1 0x0 MSTORE PUSH1 0x21 PUSH1 0x4 MSTORE PUSH1 0x24 PUSH1 0x0 REVERT JUMPDEST EQ ISZERO PUSH3 0x1979 JUMPI PUSH1 0x40 MLOAD PUSH32 0x8C379A000000000000000000000000000000000000000000000000000000000 DUP2 MSTORE PUSH1 0x4 ADD PUSH3 0x1970 SWAP1 PUSH3 0x3111 JUMP JUMPDEST PUSH1 0x40 MLOAD DUP1 SWAP2 SUB SWAP1 REVERT JUMPDEST PUSH1 0x9 PUSH1 0x1 SWAP1 SLOAD SWAP1 PUSH2 0x100 EXP SWAP1 DIV PUSH1 0xFF AND PUSH3 0x19CB JUMPI PUSH1 0x40 MLOAD PUSH32 0x8C379A000000000000000000000000000000000000000000000000000000000 DUP2 MSTORE PUSH1 0x4 ADD PUSH3 0x19C2 SWAP1 PUSH3 0x3177 JUMP JUMPDEST PUSH1 0x40 MLOAD DUP1 SWAP2 SUB SWAP1 REVERT JUMPDEST PUSH1 0x0 PUSH2 0x3E8 PUSH1 0x6 PUSH1 0x0 SWAP1 SLOAD SWAP1 PUSH2 0x100 EXP SWAP1 DIV PUSH20 0xFFFFFFFFFFFFFFFFFFFFFFFFFFFFFFFFFFFFFFFF AND PUSH20 0xFFFFFFFFFFFFFFFFFFFFFFFFFFFFFFFFFFFFFFFF AND PUSH4 0x18160DDD PUSH1 0x40 MLOAD DUP2 PUSH4 0xFFFFFFFF AND PUSH1 0xE0 SHL DUP2 MSTORE PUSH1 0x4 ADD PUSH1 0x20 PUSH1 0x40 MLOAD DUP1 DUP4 SUB DUP2 DUP7 DUP1 EXTCODESIZE ISZERO DUP1 ISZERO PUSH3 0x1A39 JUMPI PUSH1 0x0 DUP1 REVERT JUMPDEST POP GAS STATICCALL ISZERO DUP1 ISZERO PUSH3 0x1A4E JUMPI RETURNDATASIZE PUSH1 0x0 DUP1 RETURNDATACOPY RETURNDATASIZE PUSH1 0x0 REVERT JUMPDEST POP POP POP POP PUSH1 0x40 MLOAD RETURNDATASIZE PUSH1 0x1F NOT PUSH1 0x1F DUP3 ADD AND DUP3 ADD DUP1 PUSH1 0x40 MSTORE POP DUP2 ADD SWAP1 PUSH3 0x1A74 SWAP2 SWAP1 PUSH3 0x263E JUMP JUMPDEST PUSH1 0xF SLOAD PUSH3 0x1A83 SWAP2 SWAP1 PUSH3 0x35D9 JUMP JUMPDEST PUSH3 0x1A8F SWAP2 SWAP1 PUSH3 0x35A1 JUMP JUMPDEST SWAP1 POP PUSH1 0x0 PUSH4 0x1E13380 DUP3 PUSH3 0x1AA5 SWAP2 SWAP1 PUSH3 0x35A1 JUMP JUMPDEST SWAP1 POP PUSH1 0x0 PUSH1 0xB SLOAD TIMESTAMP PUSH3 0x1AB9 SWAP2 SWAP1 PUSH3 0x363A JUMP JUMPDEST SWAP1 POP PUSH1 0x0 DUP3 DUP3 PUSH3 0x1ACB SWAP2 SWAP1 PUSH3 0x35D9 JUMP JUMPDEST SWAP1 POP TIMESTAMP PUSH1 0xB DUP2 SWAP1 SSTORE POP PUSH1 0x6 PUSH1 0x0 SWAP1 SLOAD SWAP1 PUSH2 0x100 EXP SWAP1 DIV PUSH20 0xFFFFFFFFFFFFFFFFFFFFFFFFFFFFFFFFFFFFFFFF AND PUSH20 0xFFFFFFFFFFFFFFFFFFFFFFFFFFFFFFFFFFFFFFFF AND PUSH4 0x41CD705A PUSH1 0x7 PUSH1 0x0 SWAP1 SLOAD SWAP1 PUSH2 0x100 EXP SWAP1 DIV PUSH20 0xFFFFFFFFFFFFFFFFFFFFFFFFFFFFFFFFFFFFFFFF AND DUP4 PUSH1 0x40 MLOAD DUP4 PUSH4 0xFFFFFFFF AND PUSH1 0xE0 SHL DUP2 MSTORE PUSH1 0x4 ADD PUSH3 0x1B55 SWAP3 SWAP2 SWAP1 PUSH3 0x2F70 JUMP JUMPDEST PUSH1 0x0 PUSH1 0x40 MLOAD DUP1 DUP4 SUB DUP2 PUSH1 0x0 DUP8 DUP1 EXTCODESIZE ISZERO DUP1 ISZERO PUSH3 0x1B70 JUMPI PUSH1 0x0 DUP1 REVERT JUMPDEST POP GAS CALL ISZERO DUP1 ISZERO PUSH3 0x1B85 JUMPI RETURNDATASIZE PUSH1 0x0 DUP1 RETURNDATACOPY RETURNDATASIZE PUSH1 0x0 REVERT JUMPDEST POP POP POP POP POP POP POP POP JUMP JUMPDEST PUSH1 0x8 PUSH1 0x0 CALLER PUSH20 0xFFFFFFFFFFFFFFFFFFFFFFFFFFFFFFFFFFFFFFFF AND PUSH20 0xFFFFFFFFFFFFFFFFFFFFFFFFFFFFFFFFFFFFFFFF AND DUP2 MSTORE PUSH1 0x20 ADD SWAP1 DUP2 MSTORE PUSH1 0x20 ADD PUSH1 0x0 KECCAK256 PUSH1 0x0 SWAP1 SLOAD SWAP1 PUSH2 0x100 EXP SWAP1 DIV PUSH1 0xFF AND PUSH3 0x1C1E JUMPI PUSH1 0x40 MLOAD PUSH32 0x8C379A000000000000000000000000000000000000000000000000000000000 DUP2 MSTORE PUSH1 0x4 ADD PUSH3 0x1C15 SWAP1 PUSH3 0x31DD JUMP JUMPDEST PUSH1 0x40 MLOAD DUP1 SWAP2 SUB SWAP1 REVERT JUMPDEST PUSH3 0x1C2A DUP3 DUP3 PUSH3 0x1E37 JUMP JUMPDEST POP POP JUMP JUMPDEST PUSH1 0xF SLOAD DUP2 JUMP JUMPDEST PUSH1 0xA DUP1 SLOAD PUSH3 0x1C43 SWAP1 PUSH3 0x3726 JUMP JUMPDEST DUP1 PUSH1 0x1F ADD PUSH1 0x20 DUP1 SWAP2 DIV MUL PUSH1 0x20 ADD PUSH1 0x40 MLOAD SWAP1 DUP2 ADD PUSH1 0x40 MSTORE DUP1 SWAP3 SWAP2 SWAP1 DUP2 DUP2 MSTORE PUSH1 0x20 ADD DUP3 DUP1 SLOAD PUSH3 0x1C71 SWAP1 PUSH3 0x3726 JUMP JUMPDEST DUP1 ISZERO PUSH3 0x1CC2 JUMPI DUP1 PUSH1 0x1F LT PUSH3 0x1C96 JUMPI PUSH2 0x100 DUP1 DUP4 SLOAD DIV MUL DUP4 MSTORE SWAP2 PUSH1 0x20 ADD SWAP2 PUSH3 0x1CC2 JUMP JUMPDEST DUP3 ADD SWAP2 SWAP1 PUSH1 0x0 MSTORE PUSH1 0x20 PUSH1 0x0 KECCAK256 SWAP1 JUMPDEST DUP2 SLOAD DUP2 MSTORE SWAP1 PUSH1 0x1 ADD SWAP1 PUSH1 0x20 ADD DUP1 DUP4 GT PUSH3 0x1CA4 JUMPI DUP3 SWAP1 SUB PUSH1 0x1F AND DUP3 ADD SWAP2 JUMPDEST POP POP POP POP POP DUP2 JUMP JUMPDEST PUSH1 0x1 PUSH1 0x0 SWAP1 SLOAD SWAP1 PUSH2 0x100 EXP SWAP1 DIV PUSH20 0xFFFFFFFFFFFFFFFFFFFFFFFFFFFFFFFFFFFFFFFF AND DUP2 JUMP JUMPDEST PUSH1 0x7 PUSH1 0x0 SWAP1 SLOAD SWAP1 PUSH2 0x100 EXP SWAP1 DIV PUSH20 0xFFFFFFFFFFFFFFFFFFFFFFFFFFFFFFFFFFFFFFFF AND DUP2 JUMP JUMPDEST PUSH32 0x0 DUP2 JUMP JUMPDEST PUSH32 0x0 DUP2 JUMP JUMPDEST PUSH1 0x2 PUSH1 0x0 SWAP1 SLOAD SWAP1 PUSH2 0x100 EXP SWAP1 DIV PUSH20 0xFFFFFFFFFFFFFFFFFFFFFFFFFFFFFFFFFFFFFFFF AND DUP2 JUMP JUMPDEST PUSH1 0x9 PUSH1 0x1 SWAP1 SLOAD SWAP1 PUSH2 0x100 EXP SWAP1 DIV PUSH1 0xFF AND DUP2 JUMP JUMPDEST PUSH1 0x0 DUP3 DUP3 PUSH1 0x40 MLOAD PUSH3 0x1DA9 SWAP1 PUSH3 0x212A JUMP JUMPDEST PUSH3 0x1DB6 SWAP3 SWAP2 SWAP1 PUSH3 0x2F3C JUMP JUMPDEST PUSH1 0x40 MLOAD DUP1 SWAP2 SUB SWAP1 PUSH1 0x0 CREATE DUP1 ISZERO DUP1 ISZERO PUSH3 0x1DD3 JUMPI RETURNDATASIZE PUSH1 0x0 DUP1 RETURNDATACOPY RETURNDATASIZE PUSH1 0x0 REVERT JUMPDEST POP SWAP1 POP SWAP3 SWAP2 POP POP JUMP JUMPDEST DUP1 PUSH1 0x8 PUSH1 0x0 DUP5 PUSH20 0xFFFFFFFFFFFFFFFFFFFFFFFFFFFFFFFFFFFFFFFF AND PUSH20 0xFFFFFFFFFFFFFFFFFFFFFFFFFFFFFFFFFFFFFFFF AND DUP2 MSTORE PUSH1 0x20 ADD SWAP1 DUP2 MSTORE PUSH1 0x20 ADD PUSH1 0x0 KECCAK256 PUSH1 0x0 PUSH2 0x100 EXP DUP2 SLOAD DUP2 PUSH1 0xFF MUL NOT AND SWAP1 DUP4 ISZERO ISZERO MUL OR SWAP1 SSTORE POP POP POP JUMP JUMPDEST DUP2 PUSH1 0xE PUSH1 0x0 DUP3 DUP3 SLOAD PUSH3 0x1E4B SWAP2 SWAP1 PUSH3 0x3544 JUMP JUMPDEST SWAP3 POP POP DUP2 SWAP1 SSTORE POP PUSH1 0x0 PUSH1 0x64 DUP4 PUSH3 0x1E63 SWAP2 SWAP1 PUSH3 0x35A1 JUMP JUMPDEST SWAP1 POP PUSH1 0x0 PUSH1 0x64 PUSH1 0xC SLOAD DUP6 PUSH3 0x1E79 SWAP2 SWAP1 PUSH3 0x35D9 JUMP JUMPDEST PUSH3 0x1E85 SWAP2 SWAP1 PUSH3 0x35A1 JUMP JUMPDEST SWAP1 POP PUSH1 0x0 DUP2 DUP4 DUP7 PUSH3 0x1E98 SWAP2 SWAP1 PUSH3 0x363A JUMP JUMPDEST PUSH3 0x1EA4 SWAP2 SWAP1 PUSH3 0x363A JUMP JUMPDEST SWAP1 POP DUP2 PUSH1 0xD PUSH1 0x0 DUP3 DUP3 SLOAD PUSH3 0x1EBA SWAP2 SWAP1 PUSH3 0x3544 JUMP JUMPDEST SWAP3 POP POP DUP2 SWAP1 SSTORE POP PUSH1 0x0 PUSH1 0x1 PUSH1 0x0 SWAP1 SLOAD SWAP1 PUSH2 0x100 EXP SWAP1 DIV PUSH20 0xFFFFFFFFFFFFFFFFFFFFFFFFFFFFFFFFFFFFFFFF AND PUSH20 0xFFFFFFFFFFFFFFFFFFFFFFFFFFFFFFFFFFFFFFFF AND PUSH4 0xB3F00674 PUSH1 0x40 MLOAD DUP2 PUSH4 0xFFFFFFFF AND PUSH1 0xE0 SHL DUP2 MSTORE PUSH1 0x4 ADD PUSH1 0x20 PUSH1 0x40 MLOAD DUP1 DUP4 SUB DUP2 PUSH1 0x0 DUP8 DUP1 EXTCODESIZE ISZERO DUP1 ISZERO PUSH3 0x1F2E JUMPI PUSH1 0x0 DUP1 REVERT JUMPDEST POP GAS CALL ISZERO DUP1 ISZERO PUSH3 0x1F43 JUMPI RETURNDATASIZE PUSH1 0x0 DUP1 RETURNDATACOPY RETURNDATASIZE PUSH1 0x0 REVERT JUMPDEST POP POP POP POP PUSH1 0x40 MLOAD RETURNDATASIZE PUSH1 0x1F NOT PUSH1 0x1F DUP3 ADD AND DUP3 ADD DUP1 PUSH1 0x40 MSTORE POP DUP2 ADD SWAP1 PUSH3 0x1F69 SWAP2 SWAP1 PUSH3 0x2465 JUMP JUMPDEST SWAP1 POP PUSH1 0x6 PUSH1 0x0 SWAP1 SLOAD SWAP1 PUSH2 0x100 EXP SWAP1 DIV PUSH20 0xFFFFFFFFFFFFFFFFFFFFFFFFFFFFFFFFFFFFFFFF AND PUSH20 0xFFFFFFFFFFFFFFFFFFFFFFFFFFFFFFFFFFFFFFFF AND PUSH4 0x41CD705A DUP3 DUP7 PUSH1 0x40 MLOAD DUP4 PUSH4 0xFFFFFFFF AND PUSH1 0xE0 SHL DUP2 MSTORE PUSH1 0x4 ADD PUSH3 0x1FCA SWAP3 SWAP2 SWAP1 PUSH3 0x2F70 JUMP JUMPDEST PUSH1 0x0 PUSH1 0x40 MLOAD DUP1 DUP4 SUB DUP2 PUSH1 0x0 DUP8 DUP1 EXTCODESIZE ISZERO DUP1 ISZERO PUSH3 0x1FE5 JUMPI PUSH1 0x0 DUP1 REVERT JUMPDEST POP GAS CALL ISZERO DUP1 ISZERO PUSH3 0x1FFA JUMPI RETURNDATASIZE PUSH1 0x0 DUP1 RETURNDATACOPY RETURNDATASIZE PUSH1 0x0 REVERT JUMPDEST POP POP POP POP PUSH1 0x6 PUSH1 0x0 SWAP1 SLOAD SWAP1 PUSH2 0x100 EXP SWAP1 DIV PUSH20 0xFFFFFFFFFFFFFFFFFFFFFFFFFFFFFFFFFFFFFFFF AND PUSH20 0xFFFFFFFFFFFFFFFFFFFFFFFFFFFFFFFFFFFFFFFF AND PUSH4 0x41CD705A DUP7 DUP5 PUSH1 0x40 MLOAD DUP4 PUSH4 0xFFFFFFFF AND PUSH1 0xE0 SHL DUP2 MSTORE PUSH1 0x4 ADD PUSH3 0x205D SWAP3 SWAP2 SWAP1 PUSH3 0x2F70 JUMP JUMPDEST PUSH1 0x0 PUSH1 0x40 MLOAD DUP1 DUP4 SUB DUP2 PUSH1 0x0 DUP8 DUP1 EXTCODESIZE ISZERO DUP1 ISZERO PUSH3 0x2078 JUMPI PUSH1 0x0 DUP1 REVERT JUMPDEST POP GAS CALL ISZERO DUP1 ISZERO PUSH3 0x208D JUMPI RETURNDATASIZE PUSH1 0x0 DUP1 RETURNDATACOPY RETURNDATASIZE PUSH1 0x0 REVERT JUMPDEST POP POP POP POP POP POP POP POP POP POP JUMP JUMPDEST DUP3 DUP1 SLOAD PUSH3 0x20A7 SWAP1 PUSH3 0x3726 JUMP JUMPDEST SWAP1 PUSH1 0x0 MSTORE PUSH1 0x20 PUSH1 0x0 KECCAK256 SWAP1 PUSH1 0x1F ADD PUSH1 0x20 SWAP1 DIV DUP2 ADD SWAP3 DUP3 PUSH3 0x20CB JUMPI PUSH1 0x0 DUP6 SSTORE PUSH3 0x2117 JUMP JUMPDEST DUP3 PUSH1 0x1F LT PUSH3 0x20E6 JUMPI DUP1 MLOAD PUSH1 0xFF NOT AND DUP4 DUP1 ADD OR DUP6 SSTORE PUSH3 0x2117 JUMP JUMPDEST DUP3 DUP1 ADD PUSH1 0x1 ADD DUP6 SSTORE DUP3 ISZERO PUSH3 0x2117 JUMPI SWAP2 DUP3 ADD JUMPDEST DUP3 DUP2 GT ISZERO PUSH3 0x2116 JUMPI DUP3 MLOAD DUP3 SSTORE SWAP2 PUSH1 0x20 ADD SWAP2 SWAP1 PUSH1 0x1 ADD SWAP1 PUSH3 0x20F9 JUMP JUMPDEST JUMPDEST POP SWAP1 POP PUSH3 0x2126 SWAP2 SWAP1 PUSH3 0x2138 JUMP JUMPDEST POP SWAP1 JUMP JUMPDEST PUSH2 0x5F7 DUP1 PUSH3 0x38A3 DUP4 CODECOPY ADD SWAP1 JUMP JUMPDEST JUMPDEST DUP1 DUP3 GT ISZERO PUSH3 0x2153 JUMPI PUSH1 0x0 DUP2 PUSH1 0x0 SWAP1 SSTORE POP PUSH1 0x1 ADD PUSH3 0x2139 JUMP JUMPDEST POP SWAP1 JUMP JUMPDEST PUSH1 0x0 PUSH3 0x216E PUSH3 0x2168 DUP5 PUSH3 0x33E9 JUMP JUMPDEST PUSH3 0x33B5 JUMP JUMPDEST SWAP1 POP DUP1 DUP4 DUP3 MSTORE PUSH1 0x20 DUP3 ADD SWAP1 POP DUP3 DUP6 PUSH1 0x20 DUP7 MUL DUP3 ADD GT ISZERO PUSH3 0x218E JUMPI PUSH1 0x0 DUP1 REVERT JUMPDEST PUSH1 0x0 JUMPDEST DUP6 DUP2 LT ISZERO PUSH3 0x21C2 JUMPI DUP2 PUSH3 0x21A7 DUP9 DUP3 PUSH3 0x22FB JUMP JUMPDEST DUP5 MSTORE PUSH1 0x20 DUP5 ADD SWAP4 POP PUSH1 0x20 DUP4 ADD SWAP3 POP POP PUSH1 0x1 DUP2 ADD SWAP1 POP PUSH3 0x2191 JUMP JUMPDEST POP POP POP SWAP4 SWAP3 POP POP POP JUMP JUMPDEST PUSH1 0x0 PUSH3 0x21E3 PUSH3 0x21DD DUP5 PUSH3 0x3418 JUMP JUMPDEST PUSH3 0x33B5 JUMP JUMPDEST SWAP1 POP DUP1 DUP4 DUP3 MSTORE PUSH1 0x20 DUP3 ADD SWAP1 POP DUP3 DUP6 PUSH1 0x20 DUP7 MUL DUP3 ADD GT ISZERO PUSH3 0x2203 JUMPI PUSH1 0x0 DUP1 REVERT JUMPDEST PUSH1 0x0 JUMPDEST DUP6 DUP2 LT ISZERO PUSH3 0x2237 JUMPI DUP2 PUSH3 0x221C DUP9 DUP3 PUSH3 0x240B JUMP JUMPDEST DUP5 MSTORE PUSH1 0x20 DUP5 ADD SWAP4 POP PUSH1 0x20 DUP4 ADD SWAP3 POP POP PUSH1 0x1 DUP2 ADD SWAP1 POP PUSH3 0x2206 JUMP JUMPDEST POP POP POP SWAP4 SWAP3 POP POP POP JUMP JUMPDEST PUSH1 0x0 PUSH3 0x2258 PUSH3 0x2252 DUP5 PUSH3 0x3418 JUMP JUMPDEST PUSH3 0x33B5 JUMP JUMPDEST SWAP1 POP DUP1 DUP4 DUP3 MSTORE PUSH1 0x20 DUP3 ADD SWAP1 POP DUP3 DUP6 PUSH1 0x20 DUP7 MUL DUP3 ADD GT ISZERO PUSH3 0x2278 JUMPI PUSH1 0x0 DUP1 REVERT JUMPDEST PUSH1 0x0 JUMPDEST DUP6 DUP2 LT ISZERO PUSH3 0x22AC JUMPI DUP2 PUSH3 0x2291 DUP9 DUP3 PUSH3 0x2422 JUMP JUMPDEST DUP5 MSTORE PUSH1 0x20 DUP5 ADD SWAP4 POP PUSH1 0x20 DUP4 ADD SWAP3 POP POP PUSH1 0x1 DUP2 ADD SWAP1 POP PUSH3 0x227B JUMP JUMPDEST POP POP POP SWAP4 SWAP3 POP POP POP JUMP JUMPDEST PUSH1 0x0 PUSH3 0x22CD PUSH3 0x22C7 DUP5 PUSH3 0x3447 JUMP JUMPDEST PUSH3 0x33B5 JUMP JUMPDEST SWAP1 POP DUP3 DUP2 MSTORE PUSH1 0x20 DUP2 ADD DUP5 DUP5 DUP5 ADD GT ISZERO PUSH3 0x22E6 JUMPI PUSH1 0x0 DUP1 REVERT JUMPDEST PUSH3 0x22F3 DUP5 DUP3 DUP6 PUSH3 0x36E1 JUMP JUMPDEST POP SWAP4 SWAP3 POP POP POP JUMP JUMPDEST PUSH1 0x0 DUP2 CALLDATALOAD SWAP1 POP PUSH3 0x230C DUP2 PUSH3 0x3829 JUMP JUMPDEST SWAP3 SWAP2 POP POP JUMP JUMPDEST PUSH1 0x0 DUP2 MLOAD SWAP1 POP PUSH3 0x2323 DUP2 PUSH3 0x3843 JUMP JUMPDEST SWAP3 SWAP2 POP POP JUMP JUMPDEST PUSH1 0x0 DUP3 PUSH1 0x1F DUP4 ADD SLT PUSH3 0x233B JUMPI PUSH1 0x0 DUP1 REVERT JUMPDEST DUP2 CALLDATALOAD PUSH3 0x234D DUP5 DUP3 PUSH1 0x20 DUP7 ADD PUSH3 0x2157 JUMP JUMPDEST SWAP2 POP POP SWAP3 SWAP2 POP POP JUMP JUMPDEST PUSH1 0x0 DUP3 PUSH1 0x1F DUP4 ADD SLT PUSH3 0x2368 JUMPI PUSH1 0x0 DUP1 REVERT JUMPDEST DUP2 CALLDATALOAD PUSH3 0x237A DUP5 DUP3 PUSH1 0x20 DUP7 ADD PUSH3 0x21CC JUMP JUMPDEST SWAP2 POP POP SWAP3 SWAP2 POP POP JUMP JUMPDEST PUSH1 0x0 DUP3 PUSH1 0x1F DUP4 ADD SLT PUSH3 0x2395 JUMPI PUSH1 0x0 DUP1 REVERT JUMPDEST DUP2 MLOAD PUSH3 0x23A7 DUP5 DUP3 PUSH1 0x20 DUP7 ADD PUSH3 0x2241 JUMP JUMPDEST SWAP2 POP POP SWAP3 SWAP2 POP POP JUMP JUMPDEST PUSH1 0x0 DUP2 MLOAD SWAP1 POP PUSH3 0x23C1 DUP2 PUSH3 0x385D JUMP JUMPDEST SWAP3 SWAP2 POP POP JUMP JUMPDEST PUSH1 0x0 DUP2 MLOAD SWAP1 POP PUSH3 0x23D8 DUP2 PUSH3 0x3877 JUMP JUMPDEST SWAP3 SWAP2 POP POP JUMP JUMPDEST PUSH1 0x0 DUP3 PUSH1 0x1F DUP4 ADD SLT PUSH3 0x23F0 JUMPI PUSH1 0x0 DUP1 REVERT JUMPDEST DUP2 CALLDATALOAD PUSH3 0x2402 DUP5 DUP3 PUSH1 0x20 DUP7 ADD PUSH3 0x22B6 JUMP JUMPDEST SWAP2 POP POP SWAP3 SWAP2 POP POP JUMP JUMPDEST PUSH1 0x0 DUP2 CALLDATALOAD SWAP1 POP PUSH3 0x241C DUP2 PUSH3 0x3888 JUMP JUMPDEST SWAP3 SWAP2 POP POP JUMP JUMPDEST PUSH1 0x0 DUP2 MLOAD SWAP1 POP PUSH3 0x2433 DUP2 PUSH3 0x3888 JUMP JUMPDEST SWAP3 SWAP2 POP POP JUMP JUMPDEST PUSH1 0x0 PUSH1 0x20 DUP3 DUP5 SUB SLT ISZERO PUSH3 0x244C JUMPI PUSH1 0x0 DUP1 REVERT JUMPDEST PUSH1 0x0 PUSH3 0x245C DUP5 DUP3 DUP6 ADD PUSH3 0x22FB JUMP JUMPDEST SWAP2 POP POP SWAP3 SWAP2 POP POP JUMP JUMPDEST PUSH1 0x0 PUSH1 0x20 DUP3 DUP5 SUB SLT ISZERO PUSH3 0x2478 JUMPI PUSH1 0x0 DUP1 REVERT JUMPDEST PUSH1 0x0 PUSH3 0x2488 DUP5 DUP3 DUP6 ADD PUSH3 0x2312 JUMP JUMPDEST SWAP2 POP POP SWAP3 SWAP2 POP POP JUMP JUMPDEST PUSH1 0x0 DUP1 PUSH1 0x0 PUSH1 0x60 DUP5 DUP7 SUB SLT ISZERO PUSH3 0x24A7 JUMPI PUSH1 0x0 DUP1 REVERT JUMPDEST PUSH1 0x0 PUSH3 0x24B7 DUP7 DUP3 DUP8 ADD PUSH3 0x22FB JUMP JUMPDEST SWAP4 POP POP PUSH1 0x20 PUSH3 0x24CA DUP7 DUP3 DUP8 ADD PUSH3 0x22FB JUMP JUMPDEST SWAP3 POP POP PUSH1 0x40 DUP5 ADD CALLDATALOAD PUSH8 0xFFFFFFFFFFFFFFFF DUP2 GT ISZERO PUSH3 0x24E8 JUMPI PUSH1 0x0 DUP1 REVERT JUMPDEST PUSH3 0x24F6 DUP7 DUP3 DUP8 ADD PUSH3 0x23DE JUMP JUMPDEST SWAP2 POP POP SWAP3 POP SWAP3 POP SWAP3 JUMP JUMPDEST PUSH1 0x0 DUP1 PUSH1 0x0 PUSH1 0x60 DUP5 DUP7 SUB SLT ISZERO PUSH3 0x2516 JUMPI PUSH1 0x0 DUP1 REVERT JUMPDEST PUSH1 0x0 DUP5 ADD CALLDATALOAD PUSH8 0xFFFFFFFFFFFFFFFF DUP2 GT ISZERO PUSH3 0x2531 JUMPI PUSH1 0x0 DUP1 REVERT JUMPDEST PUSH3 0x253F DUP7 DUP3 DUP8 ADD PUSH3 0x2329 JUMP JUMPDEST SWAP4 POP POP PUSH1 0x20 DUP5 ADD CALLDATALOAD PUSH8 0xFFFFFFFFFFFFFFFF DUP2 GT ISZERO PUSH3 0x255D JUMPI PUSH1 0x0 DUP1 REVERT JUMPDEST PUSH3 0x256B DUP7 DUP3 DUP8 ADD PUSH3 0x2356 JUMP JUMPDEST SWAP3 POP POP PUSH1 0x40 DUP5 ADD CALLDATALOAD PUSH8 0xFFFFFFFFFFFFFFFF DUP2 GT ISZERO PUSH3 0x2589 JUMPI PUSH1 0x0 DUP1 REVERT JUMPDEST PUSH3 0x2597 DUP7 DUP3 DUP8 ADD PUSH3 0x2356 JUMP JUMPDEST SWAP2 POP POP SWAP3 POP SWAP3 POP SWAP3 JUMP JUMPDEST PUSH1 0x0 PUSH1 0x20 DUP3 DUP5 SUB SLT ISZERO PUSH3 0x25B4 JUMPI PUSH1 0x0 DUP1 REVERT JUMPDEST PUSH1 0x0 DUP3 ADD MLOAD PUSH8 0xFFFFFFFFFFFFFFFF DUP2 GT ISZERO PUSH3 0x25CF JUMPI PUSH1 0x0 DUP1 REVERT JUMPDEST PUSH3 0x25DD DUP5 DUP3 DUP6 ADD PUSH3 0x2383 JUMP JUMPDEST SWAP2 POP POP SWAP3 SWAP2 POP POP JUMP JUMPDEST PUSH1 0x0 PUSH1 0x20 DUP3 DUP5 SUB SLT ISZERO PUSH3 0x25F9 JUMPI PUSH1 0x0 DUP1 REVERT JUMPDEST PUSH1 0x0 PUSH3 0x2609 DUP5 DUP3 DUP6 ADD PUSH3 0x23B0 JUMP JUMPDEST SWAP2 POP POP SWAP3 SWAP2 POP POP JUMP JUMPDEST PUSH1 0x0 PUSH1 0x20 DUP3 DUP5 SUB SLT ISZERO PUSH3 0x2625 JUMPI PUSH1 0x0 DUP1 REVERT JUMPDEST PUSH1 0x0 PUSH3 0x2635 DUP5 DUP3 DUP6 ADD PUSH3 0x23C7 JUMP JUMPDEST SWAP2 POP POP SWAP3 SWAP2 POP POP JUMP JUMPDEST PUSH1 0x0 PUSH1 0x20 DUP3 DUP5 SUB SLT ISZERO PUSH3 0x2651 JUMPI PUSH1 0x0 DUP1 REVERT JUMPDEST PUSH1 0x0 PUSH3 0x2661 DUP5 DUP3 DUP6 ADD PUSH3 0x2422 JUMP JUMPDEST SWAP2 POP POP SWAP3 SWAP2 POP POP JUMP JUMPDEST PUSH1 0x0 DUP1 PUSH1 0x40 DUP4 DUP6 SUB SLT ISZERO PUSH3 0x267E JUMPI PUSH1 0x0 DUP1 REVERT JUMPDEST PUSH1 0x0 PUSH3 0x268E DUP6 DUP3 DUP7 ADD PUSH3 0x240B JUMP JUMPDEST SWAP3 POP POP PUSH1 0x20 PUSH3 0x26A1 DUP6 DUP3 DUP7 ADD PUSH3 0x22FB JUMP JUMPDEST SWAP2 POP POP SWAP3 POP SWAP3 SWAP1 POP JUMP JUMPDEST PUSH1 0x0 DUP1 PUSH1 0x0 DUP1 PUSH1 0x0 DUP1 PUSH1 0xC0 DUP8 DUP10 SUB SLT ISZERO PUSH3 0x26C5 JUMPI PUSH1 0x0 DUP1 REVERT JUMPDEST PUSH1 0x0 PUSH3 0x26D5 DUP10 DUP3 DUP11 ADD PUSH3 0x240B JUMP JUMPDEST SWAP7 POP POP PUSH1 0x20 DUP8 ADD CALLDATALOAD PUSH8 0xFFFFFFFFFFFFFFFF DUP2 GT ISZERO PUSH3 0x26F3 JUMPI PUSH1 0x0 DUP1 REVERT JUMPDEST PUSH3 0x2701 DUP10 DUP3 DUP11 ADD PUSH3 0x23DE JUMP JUMPDEST SWAP6 POP POP PUSH1 0x40 PUSH3 0x2714 DUP10 DUP3 DUP11 ADD PUSH3 0x240B JUMP JUMPDEST SWAP5 POP POP PUSH1 0x60 PUSH3 0x2727 DUP10 DUP3 DUP11 ADD PUSH3 0x240B JUMP JUMPDEST SWAP4 POP POP PUSH1 0x80 PUSH3 0x273A DUP10 DUP3 DUP11 ADD PUSH3 0x240B JUMP JUMPDEST SWAP3 POP POP PUSH1 0xA0 PUSH3 0x274D DUP10 DUP3 DUP11 ADD PUSH3 0x240B JUMP JUMPDEST SWAP2 POP POP SWAP3 SWAP6 POP SWAP3 SWAP6 POP SWAP3 SWAP6 JUMP JUMPDEST PUSH1 0x0 PUSH3 0x2768 DUP4 DUP4 PUSH3 0x278E JUMP JUMPDEST PUSH1 0x20 DUP4 ADD SWAP1 POP SWAP3 SWAP2 POP POP JUMP JUMPDEST PUSH1 0x0 PUSH3 0x2782 DUP4 DUP4 PUSH3 0x2EB7 JUMP JUMPDEST PUSH1 0x20 DUP4 ADD SWAP1 POP SWAP3 SWAP2 POP POP JUMP JUMPDEST PUSH3 0x2799 DUP2 PUSH3 0x3675 JUMP JUMPDEST DUP3 MSTORE POP POP JUMP JUMPDEST PUSH3 0x27AA DUP2 PUSH3 0x3675 JUMP JUMPDEST DUP3 MSTORE POP POP JUMP JUMPDEST PUSH1 0x0 PUSH3 0x27BD DUP3 PUSH3 0x34AF JUMP JUMPDEST PUSH3 0x27C9 DUP2 DUP6 PUSH3 0x34F5 JUMP JUMPDEST SWAP4 POP PUSH3 0x27D6 DUP4 PUSH3 0x347A JUMP JUMPDEST DUP1 PUSH1 0x0 JUMPDEST DUP4 DUP2 LT ISZERO PUSH3 0x280D JUMPI DUP2 MLOAD PUSH3 0x27F1 DUP9 DUP3 PUSH3 0x275A JUMP JUMPDEST SWAP8 POP PUSH3 0x27FE DUP4 PUSH3 0x34DB JUMP JUMPDEST SWAP3 POP POP PUSH1 0x1 DUP2 ADD SWAP1 POP PUSH3 0x27DA JUMP JUMPDEST POP DUP6 SWAP4 POP POP POP POP SWAP3 SWAP2 POP POP JUMP JUMPDEST PUSH1 0x0 PUSH3 0x2827 DUP3 PUSH3 0x34BA JUMP JUMPDEST PUSH3 0x2833 DUP2 DUP6 PUSH3 0x3506 JUMP JUMPDEST SWAP4 POP PUSH3 0x2840 DUP4 PUSH3 0x348A JUMP JUMPDEST DUP1 PUSH1 0x0 JUMPDEST DUP4 DUP2 LT ISZERO PUSH3 0x2877 JUMPI DUP2 MLOAD PUSH3 0x285B DUP9 DUP3 PUSH3 0x2774 JUMP JUMPDEST SWAP8 POP PUSH3 0x2868 DUP4 PUSH3 0x34E8 JUMP JUMPDEST SWAP3 POP POP PUSH1 0x1 DUP2 ADD SWAP1 POP PUSH3 0x2844 JUMP JUMPDEST POP DUP6 SWAP4 POP POP POP POP SWAP3 SWAP2 POP POP JUMP JUMPDEST PUSH3 0x288F DUP2 PUSH3 0x369D JUMP JUMPDEST DUP3 MSTORE POP POP JUMP JUMPDEST PUSH1 0x0 PUSH3 0x28A2 DUP3 PUSH3 0x34C5 JUMP JUMPDEST PUSH3 0x28AE DUP2 DUP6 PUSH3 0x3517 JUMP JUMPDEST SWAP4 POP PUSH3 0x28C0 DUP2 DUP6 PUSH1 0x20 DUP7 ADD PUSH3 0x36F0 JUMP JUMPDEST PUSH3 0x28CB DUP2 PUSH3 0x3818 JUMP JUMPDEST DUP5 ADD SWAP2 POP POP SWAP3 SWAP2 POP POP JUMP JUMPDEST PUSH1 0x0 PUSH3 0x28E3 DUP3 PUSH3 0x34C5 JUMP JUMPDEST PUSH3 0x28EF DUP2 DUP6 PUSH3 0x3528 JUMP JUMPDEST SWAP4 POP PUSH3 0x2901 DUP2 DUP6 PUSH1 0x20 DUP7 ADD PUSH3 0x36F0 JUMP JUMPDEST DUP1 DUP5 ADD SWAP2 POP POP SWAP3 SWAP2 POP POP JUMP JUMPDEST PUSH1 0x0 PUSH3 0x291A DUP3 PUSH3 0x34D0 JUMP JUMPDEST PUSH3 0x2926 DUP2 DUP6 PUSH3 0x3533 JUMP JUMPDEST SWAP4 POP PUSH3 0x2938 DUP2 DUP6 PUSH1 0x20 DUP7 ADD PUSH3 0x36F0 JUMP JUMPDEST PUSH3 0x2943 DUP2 PUSH3 0x3818 JUMP JUMPDEST DUP5 ADD SWAP2 POP POP SWAP3 SWAP2 POP POP JUMP JUMPDEST PUSH1 0x0 DUP2 SLOAD PUSH3 0x295D DUP2 PUSH3 0x3726 JUMP JUMPDEST PUSH3 0x2969 DUP2 DUP7 PUSH3 0x3533 JUMP JUMPDEST SWAP5 POP PUSH1 0x1 DUP3 AND PUSH1 0x0 DUP2 EQ PUSH3 0x2987 JUMPI PUSH1 0x1 DUP2 EQ PUSH3 0x299A JUMPI PUSH3 0x29D1 JUMP JUMPDEST PUSH1 0xFF NOT DUP4 AND DUP7 MSTORE PUSH1 0x20 DUP7 ADD SWAP4 POP PUSH3 0x29D1 JUMP JUMPDEST PUSH3 0x29A5 DUP6 PUSH3 0x349A JUMP JUMPDEST PUSH1 0x0 JUMPDEST DUP4 DUP2 LT ISZERO PUSH3 0x29C9 JUMPI DUP2 SLOAD DUP2 DUP10 ADD MSTORE PUSH1 0x1 DUP3 ADD SWAP2 POP PUSH1 0x20 DUP2 ADD SWAP1 POP PUSH3 0x29A8 JUMP JUMPDEST DUP1 DUP9 ADD SWAP6 POP POP POP JUMPDEST POP POP POP SWAP3 SWAP2 POP POP JUMP JUMPDEST PUSH1 0x0 PUSH3 0x29E9 PUSH1 0x20 DUP4 PUSH3 0x3533 JUMP JUMPDEST SWAP2 POP PUSH32 0x6973737565203A3A20496E636F7272656374207265736572766520726174696F PUSH1 0x0 DUP4 ADD MSTORE PUSH1 0x20 DUP3 ADD SWAP1 POP SWAP2 SWAP1 POP JUMP JUMPDEST PUSH1 0x0 PUSH3 0x2A2B PUSH1 0x2E DUP4 PUSH3 0x3533 JUMP JUMPDEST SWAP2 POP PUSH32 0x63757261746F724465706F736974203A3A204F6E6C792063757261746F722063 PUSH1 0x0 DUP4 ADD MSTORE PUSH32 0x616E206465706F736974204E4654000000000000000000000000000000000000 PUSH1 0x20 DUP4 ADD MSTORE PUSH1 0x40 DUP3 ADD SWAP1 POP SWAP2 SWAP1 POP JUMP JUMPDEST PUSH1 0x0 PUSH3 0x2A93 PUSH1 0x28 DUP4 PUSH3 0x3533 JUMP JUMPDEST SWAP2 POP PUSH32 0x636C61696D203A3A2063616E6E6F7420636C61696D2061667465722061756374 PUSH1 0x0 DUP4 ADD MSTORE PUSH32 0x696F6E20656E6473000000000000000000000000000000000000000000000000 PUSH1 0x20 DUP4 ADD MSTORE PUSH1 0x40 DUP3 ADD SWAP1 POP SWAP2 SWAP1 POP JUMP JUMPDEST PUSH1 0x0 PUSH3 0x2AFB PUSH1 0x20 DUP4 PUSH3 0x3533 JUMP JUMPDEST SWAP2 POP PUSH32 0x6973737565203A3A20546F6B656E20697320616C726561647920616374697665 PUSH1 0x0 DUP4 ADD MSTORE PUSH1 0x20 DUP3 ADD SWAP1 POP SWAP2 SWAP1 POP JUMP JUMPDEST PUSH1 0x0 PUSH3 0x2B3D PUSH1 0x22 DUP4 PUSH3 0x3533 JUMP JUMPDEST SWAP2 POP PUSH32 0x757064617465526F75746572203A3A20496E636F72726563742074656D706C61 PUSH1 0x0 DUP4 ADD MSTORE PUSH32 0x7465000000000000000000000000000000000000000000000000000000000000 PUSH1 0x20 DUP4 ADD MSTORE PUSH1 0x40 DUP3 ADD SWAP1 POP SWAP2 SWAP1 POP JUMP JUMPDEST PUSH1 0x0 PUSH3 0x2BA5 PUSH1 0x21 DUP4 PUSH3 0x3533 JUMP JUMPDEST SWAP2 POP PUSH32 0x636C61696D203A3A20546F6B656E206E6F7420616C7265616479206163746976 PUSH1 0x0 DUP4 ADD MSTORE PUSH32 0x6500000000000000000000000000000000000000000000000000000000000000 PUSH1 0x20 DUP4 ADD MSTORE PUSH1 0x40 DUP3 ADD SWAP1 POP SWAP2 SWAP1 POP JUMP JUMPDEST PUSH1 0x0 PUSH3 0x2C0D PUSH1 0x29 DUP4 PUSH3 0x3533 JUMP JUMPDEST SWAP2 POP PUSH32 0x63757261746F724465706F736974203A3A20546F6B656E20697320616C726561 PUSH1 0x0 DUP4 ADD MSTORE PUSH32 0x6479206163746976650000000000000000000000000000000000000000000000 PUSH1 0x20 DUP4 ADD MSTORE PUSH1 0x40 DUP3 ADD SWAP1 POP SWAP2 SWAP1 POP JUMP JUMPDEST PUSH1 0x0 PUSH3 0x2C75 PUSH1 0x1B DUP4 PUSH3 0x3533 JUMP JUMPDEST SWAP2 POP PUSH32 0x7365744D696E696D756D5175616E746974792875696E74323536290000000000 PUSH1 0x0 DUP4 ADD MSTORE PUSH1 0x20 DUP3 ADD SWAP1 POP SWAP2 SWAP1 POP JUMP JUMPDEST PUSH1 0x0 PUSH3 0x2CB7 PUSH1 0x2D DUP4 PUSH3 0x3533 JUMP JUMPDEST SWAP2 POP PUSH32 0x6973737565203A3A2054686520737570706C79206D7573742062652067726561 PUSH1 0x0 DUP4 ADD MSTORE PUSH32 0x746572207468616E203130303000000000000000000000000000000000000000 PUSH1 0x20 DUP4 ADD MSTORE PUSH1 0x40 DUP3 ADD SWAP1 POP SWAP2 SWAP1 POP JUMP JUMPDEST PUSH1 0x0 PUSH3 0x2D1F PUSH1 0x20 DUP4 PUSH3 0x3533 JUMP JUMPDEST SWAP2 POP PUSH32 0x77686974654C697374203A3A204164647265737320636865636B206572726F72 PUSH1 0x0 DUP4 ADD MSTORE PUSH1 0x20 DUP3 ADD SWAP1 POP SWAP2 SWAP1 POP JUMP JUMPDEST PUSH1 0x0 PUSH3 0x2D61 PUSH1 0x12 DUP4 PUSH3 0x3533 JUMP JUMPDEST SWAP2 POP PUSH32 0x7365744D696E696D756D5175616E746974790000000000000000000000000000 PUSH1 0x0 DUP4 ADD MSTORE PUSH1 0x20 DUP3 ADD SWAP1 POP SWAP2 SWAP1 POP JUMP JUMPDEST PUSH1 0x0 PUSH3 0x2DA3 PUSH1 0x21 DUP4 PUSH3 0x3533 JUMP JUMPDEST SWAP2 POP PUSH32 0x696E697469616C697A65203A3A20416C726561647920696E697469616C697A65 PUSH1 0x0 DUP4 ADD MSTORE PUSH32 0x6400000000000000000000000000000000000000000000000000000000000000 PUSH1 0x20 DUP4 ADD MSTORE PUSH1 0x40 DUP3 ADD SWAP1 POP SWAP2 SWAP1 POP JUMP JUMPDEST PUSH1 0x0 PUSH3 0x2E0B PUSH1 0x2A DUP4 PUSH3 0x3533 JUMP JUMPDEST SWAP2 POP PUSH32 0x6973737565203A3A204F6E6C792063757261746F722063616E20697373756520 PUSH1 0x0 DUP4 ADD MSTORE PUSH32 0x74686520746F6B656E7300000000000000000000000000000000000000000000 PUSH1 0x20 DUP4 ADD MSTORE PUSH1 0x40 DUP3 ADD SWAP1 POP SWAP2 SWAP1 POP JUMP JUMPDEST PUSH1 0x0 PUSH3 0x2E73 PUSH1 0x1C DUP4 PUSH3 0x3533 JUMP JUMPDEST SWAP2 POP PUSH32 0x6973737565203A3A204974277320616E20656D707479207661756C7400000000 PUSH1 0x0 DUP4 ADD MSTORE PUSH1 0x20 DUP3 ADD SWAP1 POP SWAP2 SWAP1 POP JUMP JUMPDEST PUSH3 0x2EB1 DUP2 PUSH3 0x36A9 JUMP JUMPDEST DUP3 MSTORE POP POP JUMP JUMPDEST PUSH3 0x2EC2 DUP2 PUSH3 0x36D7 JUMP JUMPDEST DUP3 MSTORE POP POP JUMP JUMPDEST PUSH3 0x2ED3 DUP2 PUSH3 0x36D7 JUMP JUMPDEST DUP3 MSTORE POP POP JUMP JUMPDEST PUSH1 0x0 PUSH3 0x2EE7 DUP3 DUP5 PUSH3 0x28D6 JUMP JUMPDEST SWAP2 POP DUP2 SWAP1 POP SWAP3 SWAP2 POP POP JUMP JUMPDEST PUSH1 0x0 PUSH1 0x20 DUP3 ADD SWAP1 POP PUSH3 0x2F09 PUSH1 0x0 DUP4 ADD DUP5 PUSH3 0x279F JUMP JUMPDEST SWAP3 SWAP2 POP POP JUMP JUMPDEST PUSH1 0x0 PUSH1 0x40 DUP3 ADD SWAP1 POP PUSH3 0x2F26 PUSH1 0x0 DUP4 ADD DUP6 PUSH3 0x279F JUMP JUMPDEST PUSH3 0x2F35 PUSH1 0x20 DUP4 ADD DUP5 PUSH3 0x279F JUMP JUMPDEST SWAP4 SWAP3 POP POP POP JUMP JUMPDEST PUSH1 0x0 PUSH1 0x40 DUP3 ADD SWAP1 POP PUSH3 0x2F53 PUSH1 0x0 DUP4 ADD DUP6 PUSH3 0x279F JUMP JUMPDEST DUP2 DUP2 SUB PUSH1 0x20 DUP4 ADD MSTORE PUSH3 0x2F67 DUP2 DUP5 PUSH3 0x2895 JUMP JUMPDEST SWAP1 POP SWAP4 SWAP3 POP POP POP JUMP JUMPDEST PUSH1 0x0 PUSH1 0x40 DUP3 ADD SWAP1 POP PUSH3 0x2F87 PUSH1 0x0 DUP4 ADD DUP6 PUSH3 0x279F JUMP JUMPDEST PUSH3 0x2F96 PUSH1 0x20 DUP4 ADD DUP5 PUSH3 0x2EC8 JUMP JUMPDEST SWAP4 SWAP3 POP POP POP JUMP JUMPDEST PUSH1 0x0 PUSH1 0x60 DUP3 ADD SWAP1 POP DUP2 DUP2 SUB PUSH1 0x0 DUP4 ADD MSTORE PUSH3 0x2FB9 DUP2 DUP7 PUSH3 0x27B0 JUMP JUMPDEST SWAP1 POP DUP2 DUP2 SUB PUSH1 0x20 DUP4 ADD MSTORE PUSH3 0x2FCF DUP2 DUP6 PUSH3 0x281A JUMP JUMPDEST SWAP1 POP DUP2 DUP2 SUB PUSH1 0x40 DUP4 ADD MSTORE PUSH3 0x2FE5 DUP2 DUP5 PUSH3 0x281A JUMP JUMPDEST SWAP1 POP SWAP5 SWAP4 POP POP POP POP JUMP JUMPDEST PUSH1 0x0 PUSH1 0x80 DUP3 ADD SWAP1 POP DUP2 DUP2 SUB PUSH1 0x0 DUP4 ADD MSTORE PUSH3 0x300B DUP2 DUP8 PUSH3 0x27B0 JUMP JUMPDEST SWAP1 POP DUP2 DUP2 SUB PUSH1 0x20 DUP4 ADD MSTORE PUSH3 0x3021 DUP2 DUP7 PUSH3 0x281A JUMP JUMPDEST SWAP1 POP DUP2 DUP2 SUB PUSH1 0x40 DUP4 ADD MSTORE PUSH3 0x3037 DUP2 DUP6 PUSH3 0x281A JUMP JUMPDEST SWAP1 POP PUSH3 0x3048 PUSH1 0x60 DUP4 ADD DUP5 PUSH3 0x279F JUMP JUMPDEST SWAP6 SWAP5 POP POP POP POP POP JUMP JUMPDEST PUSH1 0x0 PUSH1 0x20 DUP3 ADD SWAP1 POP PUSH3 0x3068 PUSH1 0x0 DUP4 ADD DUP5 PUSH3 0x2884 JUMP JUMPDEST SWAP3 SWAP2 POP POP JUMP JUMPDEST PUSH1 0x0 PUSH1 0x20 DUP3 ADD SWAP1 POP DUP2 DUP2 SUB PUSH1 0x0 DUP4 ADD MSTORE PUSH3 0x308A DUP2 DUP5 PUSH3 0x290D JUMP JUMPDEST SWAP1 POP SWAP3 SWAP2 POP POP JUMP JUMPDEST PUSH1 0x0 PUSH1 0x40 DUP3 ADD SWAP1 POP DUP2 DUP2 SUB PUSH1 0x0 DUP4 ADD MSTORE PUSH3 0x30AE DUP2 DUP6 PUSH3 0x294E JUMP JUMPDEST SWAP1 POP DUP2 DUP2 SUB PUSH1 0x20 DUP4 ADD MSTORE PUSH3 0x30C4 DUP2 DUP5 PUSH3 0x290D JUMP JUMPDEST SWAP1 POP SWAP4 SWAP3 POP POP POP JUMP JUMPDEST PUSH1 0x0 PUSH1 0x20 DUP3 ADD SWAP1 POP DUP2 DUP2 SUB PUSH1 0x0 DUP4 ADD MSTORE PUSH3 0x30E8 DUP2 PUSH3 0x29DA JUMP JUMPDEST SWAP1 POP SWAP2 SWAP1 POP JUMP JUMPDEST PUSH1 0x0 PUSH1 0x20 DUP3 ADD SWAP1 POP DUP2 DUP2 SUB PUSH1 0x0 DUP4 ADD MSTORE PUSH3 0x310A DUP2 PUSH3 0x2A1C JUMP JUMPDEST SWAP1 POP SWAP2 SWAP1 POP JUMP JUMPDEST PUSH1 0x0 PUSH1 0x20 DUP3 ADD SWAP1 POP DUP2 DUP2 SUB PUSH1 0x0 DUP4 ADD MSTORE PUSH3 0x312C DUP2 PUSH3 0x2A84 JUMP JUMPDEST SWAP1 POP SWAP2 SWAP1 POP JUMP JUMPDEST PUSH1 0x0 PUSH1 0x20 DUP3 ADD SWAP1 POP DUP2 DUP2 SUB PUSH1 0x0 DUP4 ADD MSTORE PUSH3 0x314E DUP2 PUSH3 0x2AEC JUMP JUMPDEST SWAP1 POP SWAP2 SWAP1 POP JUMP JUMPDEST PUSH1 0x0 PUSH1 0x20 DUP3 ADD SWAP1 POP DUP2 DUP2 SUB PUSH1 0x0 DUP4 ADD MSTORE PUSH3 0x3170 DUP2 PUSH3 0x2B2E JUMP JUMPDEST SWAP1 POP SWAP2 SWAP1 POP JUMP JUMPDEST PUSH1 0x0 PUSH1 0x20 DUP3 ADD SWAP1 POP DUP2 DUP2 SUB PUSH1 0x0 DUP4 ADD MSTORE PUSH3 0x3192 DUP2 PUSH3 0x2B96 JUMP JUMPDEST SWAP1 POP SWAP2 SWAP1 POP JUMP JUMPDEST PUSH1 0x0 PUSH1 0x20 DUP3 ADD SWAP1 POP DUP2 DUP2 SUB PUSH1 0x0 DUP4 ADD MSTORE PUSH3 0x31B4 DUP2 PUSH3 0x2BFE JUMP JUMPDEST SWAP1 POP SWAP2 SWAP1 POP JUMP JUMPDEST PUSH1 0x0 PUSH1 0x20 DUP3 ADD SWAP1 POP DUP2 DUP2 SUB PUSH1 0x0 DUP4 ADD MSTORE PUSH3 0x31D6 DUP2 PUSH3 0x2CA8 JUMP JUMPDEST SWAP1 POP SWAP2 SWAP1 POP JUMP JUMPDEST PUSH1 0x0 PUSH1 0x20 DUP3 ADD SWAP1 POP DUP2 DUP2 SUB PUSH1 0x0 DUP4 ADD MSTORE PUSH3 0x31F8 DUP2 PUSH3 0x2D10 JUMP JUMPDEST SWAP1 POP SWAP2 SWAP1 POP JUMP JUMPDEST PUSH1 0x0 PUSH1 0x60 DUP3 ADD SWAP1 POP DUP2 DUP2 SUB PUSH1 0x0 DUP4 ADD MSTORE PUSH3 0x321A DUP2 PUSH3 0x2D52 JUMP JUMPDEST SWAP1 POP PUSH3 0x322B PUSH1 0x20 DUP4 ADD DUP5 PUSH3 0x279F JUMP JUMPDEST DUP2 DUP2 SUB PUSH1 0x40 DUP4 ADD MSTORE PUSH3 0x323E DUP2 PUSH3 0x2C66 JUMP JUMPDEST SWAP1 POP SWAP3 SWAP2 POP POP JUMP JUMPDEST PUSH1 0x0 PUSH1 0x20 DUP3 ADD SWAP1 POP DUP2 DUP2 SUB PUSH1 0x0 DUP4 ADD MSTORE PUSH3 0x3261 DUP2 PUSH3 0x2D94 JUMP JUMPDEST SWAP1 POP SWAP2 SWAP1 POP JUMP JUMPDEST PUSH1 0x0 PUSH1 0x20 DUP3 ADD SWAP1 POP DUP2 DUP2 SUB PUSH1 0x0 DUP4 ADD MSTORE PUSH3 0x3283 DUP2 PUSH3 0x2DFC JUMP JUMPDEST SWAP1 POP SWAP2 SWAP1 POP JUMP JUMPDEST PUSH1 0x0 PUSH1 0x20 DUP3 ADD SWAP1 POP DUP2 DUP2 SUB PUSH1 0x0 DUP4 ADD MSTORE PUSH3 0x32A5 DUP2 PUSH3 0x2E64 JUMP JUMPDEST SWAP1 POP SWAP2 SWAP1 POP JUMP JUMPDEST PUSH1 0x0 PUSH1 0x20 DUP3 ADD SWAP1 POP PUSH3 0x32C3 PUSH1 0x0 DUP4 ADD DUP5 PUSH3 0x2EA6 JUMP JUMPDEST SWAP3 SWAP2 POP POP JUMP JUMPDEST PUSH1 0x0 PUSH1 0x20 DUP3 ADD SWAP1 POP PUSH3 0x32E0 PUSH1 0x0 DUP4 ADD DUP5 PUSH3 0x2EC8 JUMP JUMPDEST SWAP3 SWAP2 POP POP JUMP JUMPDEST PUSH1 0x0 PUSH2 0x160 DUP3 ADD SWAP1 POP PUSH3 0x32FE PUSH1 0x0 DUP4 ADD DUP15 PUSH3 0x2EC8 JUMP JUMPDEST DUP2 DUP2 SUB PUSH1 0x20 DUP4 ADD MSTORE PUSH3 0x3312 DUP2 DUP14 PUSH3 0x294E JUMP JUMPDEST SWAP1 POP DUP2 DUP2 SUB PUSH1 0x40 DUP4 ADD MSTORE PUSH3 0x3328 DUP2 DUP13 PUSH3 0x290D JUMP JUMPDEST SWAP1 POP PUSH3 0x3339 PUSH1 0x60 DUP4 ADD DUP12 PUSH3 0x2EC8 JUMP JUMPDEST PUSH3 0x3348 PUSH1 0x80 DUP4 ADD DUP11 PUSH3 0x2EC8 JUMP JUMPDEST PUSH3 0x3357 PUSH1 0xA0 DUP4 ADD DUP10 PUSH3 0x2EC8 JUMP JUMPDEST PUSH3 0x3366 PUSH1 0xC0 DUP4 ADD DUP9 PUSH3 0x2EC8 JUMP JUMPDEST PUSH3 0x3375 PUSH1 0xE0 DUP4 ADD DUP8 PUSH3 0x279F JUMP JUMPDEST PUSH3 0x3385 PUSH2 0x100 DUP4 ADD DUP7 PUSH3 0x279F JUMP JUMPDEST PUSH3 0x3395 PUSH2 0x120 DUP4 ADD DUP6 PUSH3 0x279F JUMP JUMPDEST PUSH3 0x33A5 PUSH2 0x140 DUP4 ADD DUP5 PUSH3 0x279F JUMP JUMPDEST SWAP13 SWAP12 POP POP POP POP POP POP POP POP POP POP POP POP JUMP JUMPDEST PUSH1 0x0 PUSH1 0x40 MLOAD SWAP1 POP DUP2 DUP2 ADD DUP2 DUP2 LT PUSH8 0xFFFFFFFFFFFFFFFF DUP3 GT OR ISZERO PUSH3 0x33DF JUMPI PUSH3 0x33DE PUSH3 0x37E9 JUMP JUMPDEST JUMPDEST DUP1 PUSH1 0x40 MSTORE POP SWAP2 SWAP1 POP JUMP JUMPDEST PUSH1 0x0 PUSH8 0xFFFFFFFFFFFFFFFF DUP3 GT ISZERO PUSH3 0x3407 JUMPI PUSH3 0x3406 PUSH3 0x37E9 JUMP JUMPDEST JUMPDEST PUSH1 0x20 DUP3 MUL SWAP1 POP PUSH1 0x20 DUP2 ADD SWAP1 POP SWAP2 SWAP1 POP JUMP JUMPDEST PUSH1 0x0 PUSH8 0xFFFFFFFFFFFFFFFF DUP3 GT ISZERO PUSH3 0x3436 JUMPI PUSH3 0x3435 PUSH3 0x37E9 JUMP JUMPDEST JUMPDEST PUSH1 0x20 DUP3 MUL SWAP1 POP PUSH1 0x20 DUP2 ADD SWAP1 POP SWAP2 SWAP1 POP JUMP JUMPDEST PUSH1 0x0 PUSH8 0xFFFFFFFFFFFFFFFF DUP3 GT ISZERO PUSH3 0x3465 JUMPI PUSH3 0x3464 PUSH3 0x37E9 JUMP JUMPDEST JUMPDEST PUSH1 0x1F NOT PUSH1 0x1F DUP4 ADD AND SWAP1 POP PUSH1 0x20 DUP2 ADD SWAP1 POP SWAP2 SWAP1 POP JUMP JUMPDEST PUSH1 0x0 DUP2 SWAP1 POP PUSH1 0x20 DUP3 ADD SWAP1 POP SWAP2 SWAP1 POP JUMP JUMPDEST PUSH1 0x0 DUP2 SWAP1 POP PUSH1 0x20 DUP3 ADD SWAP1 POP SWAP2 SWAP1 POP JUMP JUMPDEST PUSH1 0x0 DUP2 SWAP1 POP DUP2 PUSH1 0x0 MSTORE PUSH1 0x20 PUSH1 0x0 KECCAK256 SWAP1 POP SWAP2 SWAP1 POP JUMP JUMPDEST PUSH1 0x0 DUP2 MLOAD SWAP1 POP SWAP2 SWAP1 POP JUMP JUMPDEST PUSH1 0x0 DUP2 MLOAD SWAP1 POP SWAP2 SWAP1 POP JUMP JUMPDEST PUSH1 0x0 DUP2 MLOAD SWAP1 POP SWAP2 SWAP1 POP JUMP JUMPDEST PUSH1 0x0 DUP2 MLOAD SWAP1 POP SWAP2 SWAP1 POP JUMP JUMPDEST PUSH1 0x0 PUSH1 0x20 DUP3 ADD SWAP1 POP SWAP2 SWAP1 POP JUMP JUMPDEST PUSH1 0x0 PUSH1 0x20 DUP3 ADD SWAP1 POP SWAP2 SWAP1 POP JUMP JUMPDEST PUSH1 0x0 DUP3 DUP3 MSTORE PUSH1 0x20 DUP3 ADD SWAP1 POP SWAP3 SWAP2 POP POP JUMP JUMPDEST PUSH1 0x0 DUP3 DUP3 MSTORE PUSH1 0x20 DUP3 ADD SWAP1 POP SWAP3 SWAP2 POP POP JUMP JUMPDEST PUSH1 0x0 DUP3 DUP3 MSTORE PUSH1 0x20 DUP3 ADD SWAP1 POP SWAP3 SWAP2 POP POP JUMP JUMPDEST PUSH1 0x0 DUP2 SWAP1 POP SWAP3 SWAP2 POP POP JUMP JUMPDEST PUSH1 0x0 DUP3 DUP3 MSTORE PUSH1 0x20 DUP3 ADD SWAP1 POP SWAP3 SWAP2 POP POP JUMP JUMPDEST PUSH1 0x0 PUSH3 0x3551 DUP3 PUSH3 0x36D7 JUMP JUMPDEST SWAP2 POP PUSH3 0x355E DUP4 PUSH3 0x36D7 JUMP JUMPDEST SWAP3 POP DUP3 PUSH32 0xFFFFFFFFFFFFFFFFFFFFFFFFFFFFFFFFFFFFFFFFFFFFFFFFFFFFFFFFFFFFFFFF SUB DUP3 GT ISZERO PUSH3 0x3596 JUMPI PUSH3 0x3595 PUSH3 0x375C JUMP JUMPDEST JUMPDEST DUP3 DUP3 ADD SWAP1 POP SWAP3 SWAP2 POP POP JUMP JUMPDEST PUSH1 0x0 PUSH3 0x35AE DUP3 PUSH3 0x36D7 JUMP JUMPDEST SWAP2 POP PUSH3 0x35BB DUP4 PUSH3 0x36D7 JUMP JUMPDEST SWAP3 POP DUP3 PUSH3 0x35CE JUMPI PUSH3 0x35CD PUSH3 0x378B JUMP JUMPDEST JUMPDEST DUP3 DUP3 DIV SWAP1 POP SWAP3 SWAP2 POP POP JUMP JUMPDEST PUSH1 0x0 PUSH3 0x35E6 DUP3 PUSH3 0x36D7 JUMP JUMPDEST SWAP2 POP PUSH3 0x35F3 DUP4 PUSH3 0x36D7 JUMP JUMPDEST SWAP3 POP DUP2 PUSH32 0xFFFFFFFFFFFFFFFFFFFFFFFFFFFFFFFFFFFFFFFFFFFFFFFFFFFFFFFFFFFFFFFF DIV DUP4 GT DUP3 ISZERO ISZERO AND ISZERO PUSH3 0x362F JUMPI PUSH3 0x362E PUSH3 0x375C JUMP JUMPDEST JUMPDEST DUP3 DUP3 MUL SWAP1 POP SWAP3 SWAP2 POP POP JUMP JUMPDEST PUSH1 0x0 PUSH3 0x3647 DUP3 PUSH3 0x36D7 JUMP JUMPDEST SWAP2 POP PUSH3 0x3654 DUP4 PUSH3 0x36D7 JUMP JUMPDEST SWAP3 POP DUP3 DUP3 LT ISZERO PUSH3 0x366A JUMPI PUSH3 0x3669 PUSH3 0x375C JUMP JUMPDEST JUMPDEST DUP3 DUP3 SUB SWAP1 POP SWAP3 SWAP2 POP POP JUMP JUMPDEST PUSH1 0x0 PUSH3 0x3682 DUP3 PUSH3 0x36B7 JUMP JUMPDEST SWAP1 POP SWAP2 SWAP1 POP JUMP JUMPDEST PUSH1 0x0 PUSH3 0x3696 DUP3 PUSH3 0x36B7 JUMP JUMPDEST SWAP1 POP SWAP2 SWAP1 POP JUMP JUMPDEST PUSH1 0x0 DUP2 ISZERO ISZERO SWAP1 POP SWAP2 SWAP1 POP JUMP JUMPDEST PUSH1 0x0 PUSH2 0xFFFF DUP3 AND SWAP1 POP SWAP2 SWAP1 POP JUMP JUMPDEST PUSH1 0x0 PUSH20 0xFFFFFFFFFFFFFFFFFFFFFFFFFFFFFFFFFFFFFFFF DUP3 AND SWAP1 POP SWAP2 SWAP1 POP JUMP JUMPDEST PUSH1 0x0 DUP2 SWAP1 POP SWAP2 SWAP1 POP JUMP JUMPDEST DUP3 DUP2 DUP4 CALLDATACOPY PUSH1 0x0 DUP4 DUP4 ADD MSTORE POP POP POP JUMP JUMPDEST PUSH1 0x0 JUMPDEST DUP4 DUP2 LT ISZERO PUSH3 0x3710 JUMPI DUP1 DUP3 ADD MLOAD DUP2 DUP5 ADD MSTORE PUSH1 0x20 DUP2 ADD SWAP1 POP PUSH3 0x36F3 JUMP JUMPDEST DUP4 DUP2 GT ISZERO PUSH3 0x3720 JUMPI PUSH1 0x0 DUP5 DUP5 ADD MSTORE JUMPDEST POP POP POP POP JUMP JUMPDEST PUSH1 0x0 PUSH1 0x2 DUP3 DIV SWAP1 POP PUSH1 0x1 DUP3 AND DUP1 PUSH3 0x373F JUMPI PUSH1 0x7F DUP3 AND SWAP2 POP JUMPDEST PUSH1 0x20 DUP3 LT DUP2 EQ ISZERO PUSH3 0x3756 JUMPI PUSH3 0x3755 PUSH3 0x37BA JUMP JUMPDEST JUMPDEST POP SWAP2 SWAP1 POP JUMP JUMPDEST PUSH32 0x4E487B7100000000000000000000000000000000000000000000000000000000 PUSH1 0x0 MSTORE PUSH1 0x11 PUSH1 0x4 MSTORE PUSH1 0x24 PUSH1 0x0 REVERT JUMPDEST PUSH32 0x4E487B7100000000000000000000000000000000000000000000000000000000 PUSH1 0x0 MSTORE PUSH1 0x12 PUSH1 0x4 MSTORE PUSH1 0x24 PUSH1 0x0 REVERT JUMPDEST PUSH32 0x4E487B7100000000000000000000000000000000000000000000000000000000 PUSH1 0x0 MSTORE PUSH1 0x22 PUSH1 0x4 MSTORE PUSH1 0x24 PUSH1 0x0 REVERT JUMPDEST PUSH32 0x4E487B7100000000000000000000000000000000000000000000000000000000 PUSH1 0x0 MSTORE PUSH1 0x41 PUSH1 0x4 MSTORE PUSH1 0x24 PUSH1 0x0 REVERT JUMPDEST PUSH1 0x0 PUSH1 0x1F NOT PUSH1 0x1F DUP4 ADD AND SWAP1 POP SWAP2 SWAP1 POP JUMP JUMPDEST PUSH3 0x3834 DUP2 PUSH3 0x3675 JUMP JUMPDEST DUP2 EQ PUSH3 0x3840 JUMPI PUSH1 0x0 DUP1 REVERT JUMPDEST POP JUMP JUMPDEST PUSH3 0x384E DUP2 PUSH3 0x3689 JUMP JUMPDEST DUP2 EQ PUSH3 0x385A JUMPI PUSH1 0x0 DUP1 REVERT JUMPDEST POP JUMP JUMPDEST PUSH3 0x3868 DUP2 PUSH3 0x369D JUMP JUMPDEST DUP2 EQ PUSH3 0x3874 JUMPI PUSH1 0x0 DUP1 REVERT JUMPDEST POP JUMP JUMPDEST PUSH1 0x3 DUP2 LT PUSH3 0x3885 JUMPI PUSH1 0x0 DUP1 REVERT JUMPDEST POP JUMP JUMPDEST PUSH3 0x3893 DUP2 PUSH3 0x36D7 JUMP JUMPDEST DUP2 EQ PUSH3 0x389F JUMPI PUSH1 0x0 DUP1 REVERT JUMPDEST POP JUMP INVALID PUSH1 0x80 PUSH1 0x40 MSTORE CALLVALUE DUP1 ISZERO PUSH2 0x10 JUMPI PUSH1 0x0 DUP1 REVERT JUMPDEST POP PUSH1 0x40 MLOAD PUSH2 0x5F7 CODESIZE SUB DUP1 PUSH2 0x5F7 DUP4 CODECOPY DUP2 DUP2 ADD PUSH1 0x40 MSTORE DUP2 ADD SWAP1 PUSH2 0x32 SWAP2 SWAP1 PUSH2 0x25B JUMP JUMPDEST PUSH1 0x0 PUSH20 0xFFFFFFFFFFFFFFFFFFFFFFFFFFFFFFFFFFFFFFFF AND DUP3 PUSH20 0xFFFFFFFFFFFFFFFFFFFFFFFFFFFFFFFFFFFFFFFF AND EQ ISZERO PUSH2 0xA2 JUMPI PUSH1 0x40 MLOAD PUSH32 0x8C379A000000000000000000000000000000000000000000000000000000000 DUP2 MSTORE PUSH1 0x4 ADD PUSH2 0x99 SWAP1 PUSH2 0x3B8 JUMP JUMPDEST PUSH1 0x40 MLOAD DUP1 SWAP2 SUB SWAP1 REVERT JUMPDEST DUP2 PUSH2 0xD9 PUSH32 0x5F62CE3C9AEBD463C7A36AB1B244D2BB94F07A2C13889B3B687940EBC467B9B3 PUSH1 0x0 SHL PUSH2 0x1D4 PUSH1 0x20 SHL PUSH2 0x82 OR PUSH1 0x20 SHR JUMP JUMPDEST PUSH1 0x0 ADD PUSH1 0x0 PUSH2 0x100 EXP DUP2 SLOAD DUP2 PUSH20 0xFFFFFFFFFFFFFFFFFFFFFFFFFFFFFFFFFFFFFFFF MUL NOT AND SWAP1 DUP4 PUSH20 0xFFFFFFFFFFFFFFFFFFFFFFFFFFFFFFFFFFFFFFFF AND MUL OR SWAP1 SSTORE POP PUSH1 0x0 DUP1 DUP4 PUSH20 0xFFFFFFFFFFFFFFFFFFFFFFFFFFFFFFFFFFFFFFFF AND DUP4 PUSH1 0x40 MLOAD PUSH2 0x142 SWAP2 SWAP1 PUSH2 0x37F JUMP JUMPDEST PUSH1 0x0 PUSH1 0x40 MLOAD DUP1 DUP4 SUB DUP2 DUP6 GAS DELEGATECALL SWAP2 POP POP RETURNDATASIZE DUP1 PUSH1 0x0 DUP2 EQ PUSH2 0x17D JUMPI PUSH1 0x40 MLOAD SWAP2 POP PUSH1 0x1F NOT PUSH1 0x3F RETURNDATASIZE ADD AND DUP3 ADD PUSH1 0x40 MSTORE RETURNDATASIZE DUP3 MSTORE RETURNDATASIZE PUSH1 0x0 PUSH1 0x20 DUP5 ADD RETURNDATACOPY PUSH2 0x182 JUMP JUMPDEST PUSH1 0x60 SWAP2 POP JUMPDEST POP SWAP2 POP SWAP2 POP DUP2 DUP2 SWAP1 PUSH2 0x1CA JUMPI PUSH1 0x40 MLOAD PUSH32 0x8C379A000000000000000000000000000000000000000000000000000000000 DUP2 MSTORE PUSH1 0x4 ADD PUSH2 0x1C1 SWAP2 SWAP1 PUSH2 0x396 JUMP JUMPDEST PUSH1 0x40 MLOAD DUP1 SWAP2 SUB SWAP1 REVERT JUMPDEST POP POP POP POP POP PUSH2 0x527 JUMP JUMPDEST PUSH1 0x0 DUP2 SWAP1 POP SWAP2 SWAP1 POP JUMP JUMPDEST PUSH1 0x0 PUSH2 0x1F1 PUSH2 0x1EC DUP5 PUSH2 0x409 JUMP JUMPDEST PUSH2 0x3D8 JUMP JUMPDEST SWAP1 POP DUP3 DUP2 MSTORE PUSH1 0x20 DUP2 ADD DUP5 DUP5 DUP5 ADD GT ISZERO PUSH2 0x209 JUMPI PUSH1 0x0 DUP1 REVERT JUMPDEST PUSH2 0x214 DUP5 DUP3 DUP6 PUSH2 0x49D JUMP JUMPDEST POP SWAP4 SWAP3 POP POP POP JUMP JUMPDEST PUSH1 0x0 DUP2 MLOAD SWAP1 POP PUSH2 0x22B DUP2 PUSH2 0x510 JUMP JUMPDEST SWAP3 SWAP2 POP POP JUMP JUMPDEST PUSH1 0x0 DUP3 PUSH1 0x1F DUP4 ADD SLT PUSH2 0x242 JUMPI PUSH1 0x0 DUP1 REVERT JUMPDEST DUP2 MLOAD PUSH2 0x252 DUP5 DUP3 PUSH1 0x20 DUP7 ADD PUSH2 0x1DE JUMP JUMPDEST SWAP2 POP POP SWAP3 SWAP2 POP POP JUMP JUMPDEST PUSH1 0x0 DUP1 PUSH1 0x40 DUP4 DUP6 SUB SLT ISZERO PUSH2 0x26E JUMPI PUSH1 0x0 DUP1 REVERT JUMPDEST PUSH1 0x0 PUSH2 0x27C DUP6 DUP3 DUP7 ADD PUSH2 0x21C JUMP JUMPDEST SWAP3 POP POP PUSH1 0x20 DUP4 ADD MLOAD PUSH8 0xFFFFFFFFFFFFFFFF DUP2 GT ISZERO PUSH2 0x299 JUMPI PUSH1 0x0 DUP1 REVERT JUMPDEST PUSH2 0x2A5 DUP6 DUP3 DUP7 ADD PUSH2 0x231 JUMP JUMPDEST SWAP2 POP POP SWAP3 POP SWAP3 SWAP1 POP JUMP JUMPDEST PUSH1 0x0 PUSH2 0x2BA DUP3 PUSH2 0x439 JUMP JUMPDEST PUSH2 0x2C4 DUP2 DUP6 PUSH2 0x44F JUMP JUMPDEST SWAP4 POP PUSH2 0x2D4 DUP2 DUP6 PUSH1 0x20 DUP7 ADD PUSH2 0x49D JUMP JUMPDEST DUP1 DUP5 ADD SWAP2 POP POP SWAP3 SWAP2 POP POP JUMP JUMPDEST PUSH1 0x0 PUSH2 0x2EB DUP3 PUSH2 0x444 JUMP JUMPDEST PUSH2 0x2F5 DUP2 DUP6 PUSH2 0x45A JUMP JUMPDEST SWAP4 POP PUSH2 0x305 DUP2 DUP6 PUSH1 0x20 DUP7 ADD PUSH2 0x49D JUMP JUMPDEST PUSH2 0x30E DUP2 PUSH2 0x4FF JUMP JUMPDEST DUP5 ADD SWAP2 POP POP SWAP3 SWAP2 POP POP JUMP JUMPDEST PUSH1 0x0 PUSH2 0x326 PUSH1 0x33 DUP4 PUSH2 0x45A JUMP JUMPDEST SWAP2 POP PUSH32 0x50726F7879203A3A204C6F676963616C20636F6E7472616374732063616E6E6F PUSH1 0x0 DUP4 ADD MSTORE PUSH32 0x74206265207A65726F2061646472657373657300000000000000000000000000 PUSH1 0x20 DUP4 ADD MSTORE PUSH1 0x40 DUP3 ADD SWAP1 POP SWAP2 SWAP1 POP JUMP JUMPDEST PUSH1 0x0 PUSH2 0x38B DUP3 DUP5 PUSH2 0x2AF JUMP JUMPDEST SWAP2 POP DUP2 SWAP1 POP SWAP3 SWAP2 POP POP JUMP JUMPDEST PUSH1 0x0 PUSH1 0x20 DUP3 ADD SWAP1 POP DUP2 DUP2 SUB PUSH1 0x0 DUP4 ADD MSTORE PUSH2 0x3B0 DUP2 DUP5 PUSH2 0x2E0 JUMP JUMPDEST SWAP1 POP SWAP3 SWAP2 POP POP JUMP JUMPDEST PUSH1 0x0 PUSH1 0x20 DUP3 ADD SWAP1 POP DUP2 DUP2 SUB PUSH1 0x0 DUP4 ADD MSTORE PUSH2 0x3D1 DUP2 PUSH2 0x319 JUMP JUMPDEST SWAP1 POP SWAP2 SWAP1 POP JUMP JUMPDEST PUSH1 0x0 PUSH1 0x40 MLOAD SWAP1 POP DUP2 DUP2 ADD DUP2 DUP2 LT PUSH8 0xFFFFFFFFFFFFFFFF DUP3 GT OR ISZERO PUSH2 0x3FF JUMPI PUSH2 0x3FE PUSH2 0x4D0 JUMP JUMPDEST JUMPDEST DUP1 PUSH1 0x40 MSTORE POP SWAP2 SWAP1 POP JUMP JUMPDEST PUSH1 0x0 PUSH8 0xFFFFFFFFFFFFFFFF DUP3 GT ISZERO PUSH2 0x424 JUMPI PUSH2 0x423 PUSH2 0x4D0 JUMP JUMPDEST JUMPDEST PUSH1 0x1F NOT PUSH1 0x1F DUP4 ADD AND SWAP1 POP PUSH1 0x20 DUP2 ADD SWAP1 POP SWAP2 SWAP1 POP JUMP JUMPDEST PUSH1 0x0 DUP2 MLOAD SWAP1 POP SWAP2 SWAP1 POP JUMP JUMPDEST PUSH1 0x0 DUP2 MLOAD SWAP1 POP SWAP2 SWAP1 POP JUMP JUMPDEST PUSH1 0x0 DUP2 SWAP1 POP SWAP3 SWAP2 POP POP JUMP JUMPDEST PUSH1 0x0 DUP3 DUP3 MSTORE PUSH1 0x20 DUP3 ADD SWAP1 POP SWAP3 SWAP2 POP POP JUMP JUMPDEST PUSH1 0x0 PUSH2 0x476 DUP3 PUSH2 0x47D JUMP JUMPDEST SWAP1 POP SWAP2 SWAP1 POP JUMP JUMPDEST PUSH1 0x0 PUSH20 0xFFFFFFFFFFFFFFFFFFFFFFFFFFFFFFFFFFFFFFFF DUP3 AND SWAP1 POP SWAP2 SWAP1 POP JUMP JUMPDEST PUSH1 0x0 JUMPDEST DUP4 DUP2 LT ISZERO PUSH2 0x4BB JUMPI DUP1 DUP3 ADD MLOAD DUP2 DUP5 ADD MSTORE PUSH1 0x20 DUP2 ADD SWAP1 POP PUSH2 0x4A0 JUMP JUMPDEST DUP4 DUP2 GT ISZERO PUSH2 0x4CA JUMPI PUSH1 0x0 DUP5 DUP5 ADD MSTORE JUMPDEST POP POP POP POP JUMP JUMPDEST PUSH32 0x4E487B7100000000000000000000000000000000000000000000000000000000 PUSH1 0x0 MSTORE PUSH1 0x41 PUSH1 0x4 MSTORE PUSH1 0x24 PUSH1 0x0 REVERT JUMPDEST PUSH1 0x0 PUSH1 0x1F NOT PUSH1 0x1F DUP4 ADD AND SWAP1 POP SWAP2 SWAP1 POP JUMP JUMPDEST PUSH2 0x519 DUP2 PUSH2 0x46B JUMP JUMPDEST DUP2 EQ PUSH2 0x524 JUMPI PUSH1 0x0 DUP1 REVERT JUMPDEST POP JUMP JUMPDEST PUSH1 0xC2 DUP1 PUSH2 0x535 PUSH1 0x0 CODECOPY PUSH1 0x0 RETURN INVALID PUSH1 0x80 PUSH1 0x40 MSTORE CALLDATASIZE PUSH1 0xA JUMPI STOP JUMPDEST PUSH1 0x0 PUSH1 0x36 PUSH32 0x5F62CE3C9AEBD463C7A36AB1B244D2BB94F07A2C13889B3B687940EBC467B9B3 PUSH1 0x0 SHL PUSH1 0x82 JUMP JUMPDEST PUSH1 0x0 ADD PUSH1 0x0 SWAP1 SLOAD SWAP1 PUSH2 0x100 EXP SWAP1 DIV PUSH20 0xFFFFFFFFFFFFFFFFFFFFFFFFFFFFFFFFFFFFFFFF AND SWAP1 POP PUSH1 0x40 MLOAD CALLDATASIZE PUSH1 0x0 DUP3 CALLDATACOPY PUSH1 0x0 DUP1 CALLDATASIZE DUP4 DUP6 GAS DELEGATECALL RETURNDATASIZE DUP1 PUSH1 0x0 DUP5 RETURNDATACOPY DUP2 PUSH1 0x0 DUP2 EQ PUSH1 0x7E JUMPI DUP2 DUP5 RETURN JUMPDEST DUP2 DUP5 REVERT JUMPDEST PUSH1 0x0 DUP2 SWAP1 POP SWAP2 SWAP1 POP JUMP INVALID LOG2 PUSH5 0x6970667358 0x22 SLT KECCAK256 0xE2 0x21 DUP5 GASLIMIT 0x28 NOT 0xDF 0xE GASPRICE 0x4E SLT 0xB5 0xD8 BYTE TIMESTAMP PUSH32 0x92EBA04F8A27762382A9B76DC4A2B75564736F6C63430008000033A264697066 PUSH20 0x58221220DA897C4A5C3D8B0D1CE7CA94DC429B22 0xE8 PUSH29 0x3A36EE8C8E56EBEC11B53A09BAA064736F6C6343000800003300000000 "
				},
				"gasEstimates": {
					"creation": {
						"codeDepositCost": "3215800",
						"executionCost": "infinite",
						"totalCost": "infinite"
					},
					"external": {
						"DaoName()": "infinite",
						"VERSION_NAME()": "infinite",
						"VERSION_NUMBER()": "446",
						"auction()": "1303",
						"auctionTemplate()": "infinite",
						"cashDivision()": "1197",
						"cashVetoken()": "1242",
						"claimFees()": "infinite",
						"curator()": "1325",
						"curatorDeposit(address[],uint256[],uint256[])": "infinite",
						"division()": "1282",
						"divisionTemplate()": "infinite",
						"factory()": "1323",
						"fee()": "1174",
						"initialize(address,address,string)": "infinite",
						"initializer()": "1217",
						"issue(uint256,string,uint256,uint256,uint256,uint256)": "infinite",
						"lastClaimed()": "1219",
						"mintToScale(uint256,address)": "infinite",
						"open()": "1331",
						"reserveAmount()": "1197",
						"reserveRatio()": "1220",
						"settings()": "1303",
						"supply()": "1176",
						"updateRouter(address)": "infinite",
						"vault()": "1302",
						"vaultTemplate()": "infinite",
						"veToken()": "1326",
						"veTokenTemplate()": "infinite",
						"vote()": "1304",
						"voteTemplate()": "infinite",
						"whiteList(address)": "1635"
					},
					"internal": {
						"_mintToScale(uint256,address)": "infinite",
						"createContract(address,bytes memory)": "infinite",
						"setWhiteList(address,bool)": "20976"
					}
				},
				"methodIdentifiers": {
					"DaoName()": "dfbde3fc",
					"VERSION_NAME()": "14442f54",
					"VERSION_NUMBER()": "8025e303",
					"auction()": "7d9f6db5",
					"auctionTemplate()": "f2be7f53",
					"cashDivision()": "a5360d04",
					"cashVetoken()": "108adc7a",
					"claimFees()": "d294f093",
					"curator()": "e66f53b7",
					"curatorDeposit(address[],uint256[],uint256[])": "cd9d3dd8",
					"division()": "3205f5fc",
					"divisionTemplate()": "f4464e2a",
					"factory()": "c45a0155",
					"fee()": "ddca3f43",
					"initialize(address,address,string)": "4571e3a6",
					"initializer()": "9ce110d7",
					"issue(uint256,string,uint256,uint256,uint256,uint256)": "660d0c4b",
					"lastClaimed()": "adc1b956",
					"mintToScale(uint256,address)": "da1c4845",
					"open()": "fcfff16f",
					"reserveAmount()": "4b09b72a",
					"reserveRatio()": "0c7d5cd8",
					"settings()": "e06174e4",
					"supply()": "047fc9aa",
					"updateRouter(address)": "c851cc32",
					"vault()": "fbfa77cf",
					"vaultTemplate()": "0b1e4238",
					"veToken()": "3b92eb23",
					"veTokenTemplate()": "6e99d77b",
					"vote()": "632a9a52",
					"voteTemplate()": "765d6410",
					"whiteList(address)": "372c12b1"
				}
			},
			"storageLayout": {
				"storage": [
					{
						"astId": 886,
						"contract": "contracts/Template/Istanbul10/logic/Router.sol:Router",
						"label": "factory",
						"offset": 0,
						"slot": "0",
						"type": "t_address"
					},
					{
						"astId": 889,
						"contract": "contracts/Template/Istanbul10/logic/Router.sol:Router",
						"label": "settings",
						"offset": 0,
						"slot": "1",
						"type": "t_address"
					},
					{
						"astId": 892,
						"contract": "contracts/Template/Istanbul10/logic/Router.sol:Router",
						"label": "vault",
						"offset": 0,
						"slot": "2",
						"type": "t_address"
					},
					{
						"astId": 895,
						"contract": "contracts/Template/Istanbul10/logic/Router.sol:Router",
						"label": "veToken",
						"offset": 0,
						"slot": "3",
						"type": "t_address"
					},
					{
						"astId": 898,
						"contract": "contracts/Template/Istanbul10/logic/Router.sol:Router",
						"label": "auction",
						"offset": 0,
						"slot": "4",
						"type": "t_address"
					},
					{
						"astId": 901,
						"contract": "contracts/Template/Istanbul10/logic/Router.sol:Router",
						"label": "vote",
						"offset": 0,
						"slot": "5",
						"type": "t_address"
					},
					{
						"astId": 904,
						"contract": "contracts/Template/Istanbul10/logic/Router.sol:Router",
						"label": "division",
						"offset": 0,
						"slot": "6",
						"type": "t_address"
					},
					{
						"astId": 907,
						"contract": "contracts/Template/Istanbul10/logic/Router.sol:Router",
						"label": "curator",
						"offset": 0,
						"slot": "7",
						"type": "t_address"
					},
					{
						"astId": 912,
						"contract": "contracts/Template/Istanbul10/logic/Router.sol:Router",
						"label": "whiteList",
						"offset": 0,
						"slot": "8",
						"type": "t_mapping(t_address,t_bool)"
					},
					{
						"astId": 915,
						"contract": "contracts/Template/Istanbul10/logic/Router.sol:Router",
						"label": "initializer",
						"offset": 0,
						"slot": "9",
						"type": "t_bool"
					},
					{
						"astId": 918,
						"contract": "contracts/Template/Istanbul10/logic/Router.sol:Router",
						"label": "open",
						"offset": 1,
						"slot": "9",
						"type": "t_bool"
					},
					{
						"astId": 921,
						"contract": "contracts/Template/Istanbul10/logic/Router.sol:Router",
						"label": "DaoName",
						"offset": 0,
						"slot": "10",
						"type": "t_string_storage"
					},
					{
						"astId": 924,
						"contract": "contracts/Template/Istanbul10/logic/Router.sol:Router",
						"label": "lastClaimed",
						"offset": 0,
						"slot": "11",
						"type": "t_uint256"
					},
					{
						"astId": 927,
						"contract": "contracts/Template/Istanbul10/logic/Router.sol:Router",
						"label": "reserveRatio",
						"offset": 0,
						"slot": "12",
						"type": "t_uint256"
					},
					{
						"astId": 930,
						"contract": "contracts/Template/Istanbul10/logic/Router.sol:Router",
						"label": "reserveAmount",
						"offset": 0,
						"slot": "13",
						"type": "t_uint256"
					},
					{
						"astId": 933,
						"contract": "contracts/Template/Istanbul10/logic/Router.sol:Router",
						"label": "supply",
						"offset": 0,
						"slot": "14",
						"type": "t_uint256"
					},
					{
						"astId": 936,
						"contract": "contracts/Template/Istanbul10/logic/Router.sol:Router",
						"label": "fee",
						"offset": 0,
						"slot": "15",
						"type": "t_uint256"
					},
					{
						"astId": 939,
						"contract": "contracts/Template/Istanbul10/logic/Router.sol:Router",
						"label": "cashDivision",
						"offset": 0,
						"slot": "16",
						"type": "t_uint256"
					},
					{
						"astId": 942,
						"contract": "contracts/Template/Istanbul10/logic/Router.sol:Router",
						"label": "cashVetoken",
						"offset": 0,
						"slot": "17",
						"type": "t_uint256"
					}
				],
				"types": {
					"t_address": {
						"encoding": "inplace",
						"label": "address",
						"numberOfBytes": "20"
					},
					"t_bool": {
						"encoding": "inplace",
						"label": "bool",
						"numberOfBytes": "1"
					},
					"t_mapping(t_address,t_bool)": {
						"encoding": "mapping",
						"key": "t_address",
						"label": "mapping(address => bool)",
						"numberOfBytes": "32",
						"value": "t_bool"
					},
					"t_string_storage": {
						"encoding": "bytes",
						"label": "string",
						"numberOfBytes": "32"
					},
					"t_uint256": {
						"encoding": "inplace",
						"label": "uint256",
						"numberOfBytes": "32"
					}
				}
			},
			"userdoc": {
				"kind": "user",
				"methods": {},
				"version": 1
			}
		}
	}
}