{
	"contracts/Template/Istanbul10/data/RouterData.sol": {
		"RouterData": {
			"abi": [
				{
					"inputs": [],
					"name": "DaoName",
					"outputs": [
						{
							"internalType": "string",
							"name": "",
							"type": "string"
						}
					],
					"stateMutability": "view",
					"type": "function"
				},
				{
					"inputs": [],
					"name": "auction",
					"outputs": [
						{
							"internalType": "address",
							"name": "",
							"type": "address"
						}
					],
					"stateMutability": "view",
					"type": "function"
				},
				{
					"inputs": [],
					"name": "cashDivision",
					"outputs": [
						{
							"internalType": "uint256",
							"name": "",
							"type": "uint256"
						}
					],
					"stateMutability": "view",
					"type": "function"
				},
				{
					"inputs": [],
					"name": "cashVetoken",
					"outputs": [
						{
							"internalType": "uint256",
							"name": "",
							"type": "uint256"
						}
					],
					"stateMutability": "view",
					"type": "function"
				},
				{
					"inputs": [],
					"name": "curator",
					"outputs": [
						{
							"internalType": "address",
							"name": "",
							"type": "address"
						}
					],
					"stateMutability": "view",
					"type": "function"
				},
				{
					"inputs": [],
					"name": "division",
					"outputs": [
						{
							"internalType": "address",
							"name": "",
							"type": "address"
						}
					],
					"stateMutability": "view",
					"type": "function"
				},
				{
					"inputs": [],
					"name": "factory",
					"outputs": [
						{
							"internalType": "address",
							"name": "",
							"type": "address"
						}
					],
					"stateMutability": "view",
					"type": "function"
				},
				{
					"inputs": [],
					"name": "fee",
					"outputs": [
						{
							"internalType": "uint256",
							"name": "",
							"type": "uint256"
						}
					],
					"stateMutability": "view",
					"type": "function"
				},
				{
					"inputs": [],
					"name": "initializer",
					"outputs": [
						{
							"internalType": "bool",
							"name": "",
							"type": "bool"
						}
					],
					"stateMutability": "view",
					"type": "function"
				},
				{
					"inputs": [],
					"name": "lastClaimed",
					"outputs": [
						{
							"internalType": "uint256",
							"name": "",
							"type": "uint256"
						}
					],
					"stateMutability": "view",
					"type": "function"
				},
				{
					"inputs": [],
					"name": "open",
					"outputs": [
						{
							"internalType": "bool",
							"name": "",
							"type": "bool"
						}
					],
					"stateMutability": "view",
					"type": "function"
				},
				{
					"inputs": [],
					"name": "reserveAmount",
					"outputs": [
						{
							"internalType": "uint256",
							"name": "",
							"type": "uint256"
						}
					],
					"stateMutability": "view",
					"type": "function"
				},
				{
					"inputs": [],
					"name": "reserveRatio",
					"outputs": [
						{
							"internalType": "uint256",
							"name": "",
							"type": "uint256"
						}
					],
					"stateMutability": "view",
					"type": "function"
				},
				{
					"inputs": [],
					"name": "settings",
					"outputs": [
						{
							"internalType": "address",
							"name": "",
							"type": "address"
						}
					],
					"stateMutability": "view",
					"type": "function"
				},
				{
					"inputs": [],
					"name": "supply",
					"outputs": [
						{
							"internalType": "uint256",
							"name": "",
							"type": "uint256"
						}
					],
					"stateMutability": "view",
					"type": "function"
				},
				{
					"inputs": [],
					"name": "vault",
					"outputs": [
						{
							"internalType": "address",
							"name": "",
							"type": "address"
						}
					],
					"stateMutability": "view",
					"type": "function"
				},
				{
					"inputs": [],
					"name": "veToken",
					"outputs": [
						{
							"internalType": "address",
							"name": "",
							"type": "address"
						}
					],
					"stateMutability": "view",
					"type": "function"
				},
				{
					"inputs": [],
					"name": "vote",
					"outputs": [
						{
							"internalType": "address",
							"name": "",
							"type": "address"
						}
					],
					"stateMutability": "view",
					"type": "function"
				},
				{
					"inputs": [
						{
							"internalType": "address",
							"name": "",
							"type": "address"
						}
					],
					"name": "whiteList",
					"outputs": [
						{
							"internalType": "bool",
							"name": "",
							"type": "bool"
						}
					],
					"stateMutability": "view",
					"type": "function"
				}
			],
			"devdoc": {
				"kind": "dev",
				"methods": {},
				"version": 1
			},
			"evm": {
				"assembly": "    /* \"contracts/Template/Istanbul10/data/RouterData.sol\":99:1123  contract RouterData is IRouterData{\r... */\n  mstore(0x40, 0x80)\n  callvalue\n  dup1\n  iszero\n  tag_1\n  jumpi\n  0x00\n  dup1\n  revert\ntag_1:\n  pop\n  dataSize(sub_0)\n  dup1\n  dataOffset(sub_0)\n  0x00\n  codecopy\n  0x00\n  return\nstop\n\nsub_0: assembly {\n        /* \"contracts/Template/Istanbul10/data/RouterData.sol\":99:1123  contract RouterData is IRouterData{\r... */\n      mstore(0x40, 0x80)\n      callvalue\n      dup1\n      iszero\n      tag_1\n      jumpi\n      0x00\n      dup1\n      revert\n    tag_1:\n      pop\n      jumpi(tag_2, lt(calldatasize, 0x04))\n      shr(0xe0, calldataload(0x00))\n      dup1\n      0x9ce110d7\n      gt\n      tag_22\n      jumpi\n      dup1\n      0xdfbde3fc\n      gt\n      tag_23\n      jumpi\n      dup1\n      0xdfbde3fc\n      eq\n      tag_17\n      jumpi\n      dup1\n      0xe06174e4\n      eq\n      tag_18\n      jumpi\n      dup1\n      0xe66f53b7\n      eq\n      tag_19\n      jumpi\n      dup1\n      0xfbfa77cf\n      eq\n      tag_20\n      jumpi\n      dup1\n      0xfcfff16f\n      eq\n      tag_21\n      jumpi\n      jump(tag_2)\n    tag_23:\n      dup1\n      0x9ce110d7\n      eq\n      tag_12\n      jumpi\n      dup1\n      0xa5360d04\n      eq\n      tag_13\n      jumpi\n      dup1\n      0xadc1b956\n      eq\n      tag_14\n      jumpi\n      dup1\n      0xc45a0155\n      eq\n      tag_15\n      jumpi\n      dup1\n      0xddca3f43\n      eq\n      tag_16\n      jumpi\n      jump(tag_2)\n    tag_22:\n      dup1\n      0x372c12b1\n      gt\n      tag_24\n      jumpi\n      dup1\n      0x372c12b1\n      eq\n      tag_7\n      jumpi\n      dup1\n      0x3b92eb23\n      eq\n      tag_8\n      jumpi\n      dup1\n      0x4b09b72a\n      eq\n      tag_9\n      jumpi\n      dup1\n      0x632a9a52\n      eq\n      tag_10\n      jumpi\n      dup1\n      0x7d9f6db5\n      eq\n      tag_11\n      jumpi\n      jump(tag_2)\n    tag_24:\n      dup1\n      0x047fc9aa\n      eq\n      tag_3\n      jumpi\n      dup1\n      0x0c7d5cd8\n      eq\n      tag_4\n      jumpi\n      dup1\n      0x108adc7a\n      eq\n      tag_5\n      jumpi\n      dup1\n      0x3205f5fc\n      eq\n      tag_6\n      jumpi\n    tag_2:\n      0x00\n      dup1\n      revert\n        /* \"contracts/Template/Istanbul10/data/RouterData.sol\":963:993  uint256 override public supply */\n    tag_3:\n      tag_25\n      tag_26\n      jump\t// in\n    tag_25:\n      mload(0x40)\n      tag_27\n      swap2\n      swap1\n      tag_28\n      jump\t// in\n    tag_27:\n      mload(0x40)\n      dup1\n      swap2\n      sub\n      swap1\n      return\n        /* \"contracts/Template/Istanbul10/data/RouterData.sol\":872:908  uint256 override public reserveRatio */\n    tag_4:\n      tag_29\n      tag_30\n      jump\t// in\n    tag_29:\n      mload(0x40)\n      tag_31\n      swap2\n      swap1\n      tag_28\n      jump\t// in\n    tag_31:\n      mload(0x40)\n      dup1\n      swap2\n      sub\n      swap1\n      return\n        /* \"contracts/Template/Istanbul10/data/RouterData.sol\":1084:1119  uint256 override public cashVetoken */\n    tag_5:\n      tag_32\n      tag_33\n      jump\t// in\n    tag_32:\n      mload(0x40)\n      tag_34\n      swap2\n      swap1\n      tag_28\n      jump\t// in\n    tag_34:\n      mload(0x40)\n      dup1\n      swap2\n      sub\n      swap1\n      return\n        /* \"contracts/Template/Istanbul10/data/RouterData.sol\":449:481  address override public division */\n    tag_6:\n      tag_35\n      tag_36\n      jump\t// in\n    tag_35:\n      mload(0x40)\n      tag_37\n      swap2\n      swap1\n      tag_38\n      jump\t// in\n    tag_37:\n      mload(0x40)\n      dup1\n      swap2\n      sub\n      swap1\n      return\n        /* \"contracts/Template/Istanbul10/data/RouterData.sol\":590:641  mapping (address => bool) override public whiteList */\n    tag_7:\n      tag_39\n      0x04\n      dup1\n      calldatasize\n      sub\n      dup2\n      add\n      swap1\n      tag_40\n      swap2\n      swap1\n      tag_41\n      jump\t// in\n    tag_40:\n      tag_42\n      jump\t// in\n    tag_39:\n      mload(0x40)\n      tag_43\n      swap2\n      swap1\n      tag_44\n      jump\t// in\n    tag_43:\n      mload(0x40)\n      dup1\n      swap2\n      sub\n      swap1\n      return\n        /* \"contracts/Template/Istanbul10/data/RouterData.sol\":328:359  address override public veToken */\n    tag_8:\n      tag_45\n      tag_46\n      jump\t// in\n    tag_45:\n      mload(0x40)\n      tag_47\n      swap2\n      swap1\n      tag_38\n      jump\t// in\n    tag_47:\n      mload(0x40)\n      dup1\n      swap2\n      sub\n      swap1\n      return\n        /* \"contracts/Template/Istanbul10/data/RouterData.sol\":917:954  uint256 override public reserveAmount */\n    tag_9:\n      tag_48\n      tag_49\n      jump\t// in\n    tag_48:\n      mload(0x40)\n      tag_50\n      swap2\n      swap1\n      tag_28\n      jump\t// in\n    tag_50:\n      mload(0x40)\n      dup1\n      swap2\n      sub\n      swap1\n      return\n        /* \"contracts/Template/Istanbul10/data/RouterData.sol\":412:440  address override public vote */\n    tag_10:\n      tag_51\n      tag_52\n      jump\t// in\n    tag_51:\n      mload(0x40)\n      tag_53\n      swap2\n      swap1\n      tag_38\n      jump\t// in\n    tag_53:\n      mload(0x40)\n      dup1\n      swap2\n      sub\n      swap1\n      return\n        /* \"contracts/Template/Istanbul10/data/RouterData.sol\":368:399  address override public auction */\n    tag_11:\n      tag_54\n      tag_55\n      jump\t// in\n    tag_54:\n      mload(0x40)\n      tag_56\n      swap2\n      swap1\n      tag_38\n      jump\t// in\n    tag_56:\n      mload(0x40)\n      dup1\n      swap2\n      sub\n      swap1\n      return\n        /* \"contracts/Template/Istanbul10/data/RouterData.sol\":654:686  bool override public initializer */\n    tag_12:\n      tag_57\n      tag_58\n      jump\t// in\n    tag_57:\n      mload(0x40)\n      tag_59\n      swap2\n      swap1\n      tag_44\n      jump\t// in\n    tag_59:\n      mload(0x40)\n      dup1\n      swap2\n      sub\n      swap1\n      return\n        /* \"contracts/Template/Istanbul10/data/RouterData.sol\":1039:1075  uint256 override public cashDivision */\n    tag_13:\n      tag_60\n      tag_61\n      jump\t// in\n    tag_60:\n      mload(0x40)\n      tag_62\n      swap2\n      swap1\n      tag_28\n      jump\t// in\n    tag_62:\n      mload(0x40)\n      dup1\n      swap2\n      sub\n      swap1\n      return\n        /* \"contracts/Template/Istanbul10/data/RouterData.sol\":828:863  uint256 override public lastClaimed */\n    tag_14:\n      tag_63\n      tag_64\n      jump\t// in\n    tag_63:\n      mload(0x40)\n      tag_65\n      swap2\n      swap1\n      tag_28\n      jump\t// in\n    tag_65:\n      mload(0x40)\n      dup1\n      swap2\n      sub\n      swap1\n      return\n        /* \"contracts/Template/Istanbul10/data/RouterData.sol\":205:236  address override public factory */\n    tag_15:\n      tag_66\n      tag_67\n      jump\t// in\n    tag_66:\n      mload(0x40)\n      tag_68\n      swap2\n      swap1\n      tag_38\n      jump\t// in\n    tag_68:\n      mload(0x40)\n      dup1\n      swap2\n      sub\n      swap1\n      return\n        /* \"contracts/Template/Istanbul10/data/RouterData.sol\":1003:1030  uint256 override public fee */\n    tag_16:\n      tag_69\n      tag_70\n      jump\t// in\n    tag_69:\n      mload(0x40)\n      tag_71\n      swap2\n      swap1\n      tag_28\n      jump\t// in\n    tag_71:\n      mload(0x40)\n      dup1\n      swap2\n      sub\n      swap1\n      return\n        /* \"contracts/Template/Istanbul10/data/RouterData.sol\":789:819  string override public DaoName */\n    tag_17:\n      tag_72\n      tag_73\n      jump\t// in\n    tag_72:\n      mload(0x40)\n      tag_74\n      swap2\n      swap1\n      tag_75\n      jump\t// in\n    tag_74:\n      mload(0x40)\n      dup1\n      swap2\n      sub\n      swap1\n      return\n        /* \"contracts/Template/Istanbul10/data/RouterData.sol\":249:281  address override public settings */\n    tag_18:\n      tag_76\n      tag_77\n      jump\t// in\n    tag_76:\n      mload(0x40)\n      tag_78\n      swap2\n      swap1\n      tag_38\n      jump\t// in\n    tag_78:\n      mload(0x40)\n      dup1\n      swap2\n      sub\n      swap1\n      return\n        /* \"contracts/Template/Istanbul10/data/RouterData.sol\":490:521  address override public curator */\n    tag_19:\n      tag_79\n      tag_80\n      jump\t// in\n    tag_79:\n      mload(0x40)\n      tag_81\n      swap2\n      swap1\n      tag_38\n      jump\t// in\n    tag_81:\n      mload(0x40)\n      dup1\n      swap2\n      sub\n      swap1\n      return\n        /* \"contracts/Template/Istanbul10/data/RouterData.sol\":290:319  address override public vault */\n    tag_20:\n      tag_82\n      tag_83\n      jump\t// in\n    tag_82:\n      mload(0x40)\n      tag_84\n      swap2\n      swap1\n      tag_38\n      jump\t// in\n    tag_84:\n      mload(0x40)\n      dup1\n      swap2\n      sub\n      swap1\n      return\n        /* \"contracts/Template/Istanbul10/data/RouterData.sol\":695:720  bool override public open */\n    tag_21:\n      tag_85\n      tag_86\n      jump\t// in\n    tag_85:\n      mload(0x40)\n      tag_87\n      swap2\n      swap1\n      tag_44\n      jump\t// in\n    tag_87:\n      mload(0x40)\n      dup1\n      swap2\n      sub\n      swap1\n      return\n        /* \"contracts/Template/Istanbul10/data/RouterData.sol\":963:993  uint256 override public supply */\n    tag_26:\n      sload(0x0e)\n      dup2\n      jump\t// out\n        /* \"contracts/Template/Istanbul10/data/RouterData.sol\":872:908  uint256 override public reserveRatio */\n    tag_30:\n      sload(0x0c)\n      dup2\n      jump\t// out\n        /* \"contracts/Template/Istanbul10/data/RouterData.sol\":1084:1119  uint256 override public cashVetoken */\n    tag_33:\n      sload(0x11)\n      dup2\n      jump\t// out\n        /* \"contracts/Template/Istanbul10/data/RouterData.sol\":449:481  address override public division */\n    tag_36:\n      0x06\n      0x00\n      swap1\n      sload\n      swap1\n      0x0100\n      exp\n      swap1\n      div\n      0xffffffffffffffffffffffffffffffffffffffff\n      and\n      dup2\n      jump\t// out\n        /* \"contracts/Template/Istanbul10/data/RouterData.sol\":590:641  mapping (address => bool) override public whiteList */\n    tag_42:\n      mstore(0x20, 0x08)\n      dup1\n      0x00\n      mstore\n      keccak256(0x00, 0x40)\n      0x00\n      swap2\n      pop\n      sload\n      swap1\n      0x0100\n      exp\n      swap1\n      div\n      0xff\n      and\n      dup2\n      jump\t// out\n        /* \"contracts/Template/Istanbul10/data/RouterData.sol\":328:359  address override public veToken */\n    tag_46:\n      0x03\n      0x00\n      swap1\n      sload\n      swap1\n      0x0100\n      exp\n      swap1\n      div\n      0xffffffffffffffffffffffffffffffffffffffff\n      and\n      dup2\n      jump\t// out\n        /* \"contracts/Template/Istanbul10/data/RouterData.sol\":917:954  uint256 override public reserveAmount */\n    tag_49:\n      sload(0x0d)\n      dup2\n      jump\t// out\n        /* \"contracts/Template/Istanbul10/data/RouterData.sol\":412:440  address override public vote */\n    tag_52:\n      0x05\n      0x00\n      swap1\n      sload\n      swap1\n      0x0100\n      exp\n      swap1\n      div\n      0xffffffffffffffffffffffffffffffffffffffff\n      and\n      dup2\n      jump\t// out\n        /* \"contracts/Template/Istanbul10/data/RouterData.sol\":368:399  address override public auction */\n    tag_55:\n      0x04\n      0x00\n      swap1\n      sload\n      swap1\n      0x0100\n      exp\n      swap1\n      div\n      0xffffffffffffffffffffffffffffffffffffffff\n      and\n      dup2\n      jump\t// out\n        /* \"contracts/Template/Istanbul10/data/RouterData.sol\":654:686  bool override public initializer */\n    tag_58:\n      0x09\n      0x00\n      swap1\n      sload\n      swap1\n      0x0100\n      exp\n      swap1\n      div\n      0xff\n      and\n      dup2\n      jump\t// out\n        /* \"contracts/Template/Istanbul10/data/RouterData.sol\":1039:1075  uint256 override public cashDivision */\n    tag_61:\n      sload(0x10)\n      dup2\n      jump\t// out\n        /* \"contracts/Template/Istanbul10/data/RouterData.sol\":828:863  uint256 override public lastClaimed */\n    tag_64:\n      sload(0x0b)\n      dup2\n      jump\t// out\n        /* \"contracts/Template/Istanbul10/data/RouterData.sol\":205:236  address override public factory */\n    tag_67:\n      0x00\n      dup1\n      sload\n      swap1\n      0x0100\n      exp\n      swap1\n      div\n      0xffffffffffffffffffffffffffffffffffffffff\n      and\n      dup2\n      jump\t// out\n        /* \"contracts/Template/Istanbul10/data/RouterData.sol\":1003:1030  uint256 override public fee */\n    tag_70:\n      sload(0x0f)\n      dup2\n      jump\t// out\n        /* \"contracts/Template/Istanbul10/data/RouterData.sol\":789:819  string override public DaoName */\n    tag_73:\n      0x0a\n      dup1\n      sload\n      tag_88\n      swap1\n      tag_89\n      jump\t// in\n    tag_88:\n      dup1\n      0x1f\n      add\n      0x20\n      dup1\n      swap2\n      div\n      mul\n      0x20\n      add\n      mload(0x40)\n      swap1\n      dup2\n      add\n      0x40\n      mstore\n      dup1\n      swap3\n      swap2\n      swap1\n      dup2\n      dup2\n      mstore\n      0x20\n      add\n      dup3\n      dup1\n      sload\n      tag_90\n      swap1\n      tag_89\n      jump\t// in\n    tag_90:\n      dup1\n      iszero\n      tag_91\n      jumpi\n      dup1\n      0x1f\n      lt\n      tag_92\n      jumpi\n      0x0100\n      dup1\n      dup4\n      sload\n      div\n      mul\n      dup4\n      mstore\n      swap2\n      0x20\n      add\n      swap2\n      jump(tag_91)\n    tag_92:\n      dup3\n      add\n      swap2\n      swap1\n      0x00\n      mstore\n      keccak256(0x00, 0x20)\n      swap1\n    tag_93:\n      dup2\n      sload\n      dup2\n      mstore\n      swap1\n      0x01\n      add\n      swap1\n      0x20\n      add\n      dup1\n      dup4\n      gt\n      tag_93\n      jumpi\n      dup3\n      swap1\n      sub\n      0x1f\n      and\n      dup3\n      add\n      swap2\n    tag_91:\n      pop\n      pop\n      pop\n      pop\n      pop\n      dup2\n      jump\t// out\n        /* \"contracts/Template/Istanbul10/data/RouterData.sol\":249:281  address override public settings */\n    tag_77:\n      0x01\n      0x00\n      swap1\n      sload\n      swap1\n      0x0100\n      exp\n      swap1\n      div\n      0xffffffffffffffffffffffffffffffffffffffff\n      and\n      dup2\n      jump\t// out\n        /* \"contracts/Template/Istanbul10/data/RouterData.sol\":490:521  address override public curator */\n    tag_80:\n      0x07\n      0x00\n      swap1\n      sload\n      swap1\n      0x0100\n      exp\n      swap1\n      div\n      0xffffffffffffffffffffffffffffffffffffffff\n      and\n      dup2\n      jump\t// out\n        /* \"contracts/Template/Istanbul10/data/RouterData.sol\":290:319  address override public vault */\n    tag_83:\n      0x02\n      0x00\n      swap1\n      sload\n      swap1\n      0x0100\n      exp\n      swap1\n      div\n      0xffffffffffffffffffffffffffffffffffffffff\n      and\n      dup2\n      jump\t// out\n        /* \"contracts/Template/Istanbul10/data/RouterData.sol\":695:720  bool override public open */\n    tag_86:\n      0x09\n      0x01\n      swap1\n      sload\n      swap1\n      0x0100\n      exp\n      swap1\n      div\n      0xff\n      and\n      dup2\n      jump\t// out\n        /* \"#utility.yul\":7:146   */\n    tag_95:\n      0x00\n        /* \"#utility.yul\":91:97   */\n      dup2\n        /* \"#utility.yul\":78:98   */\n      calldataload\n        /* \"#utility.yul\":69:98   */\n      swap1\n      pop\n        /* \"#utility.yul\":107:140   */\n      tag_97\n        /* \"#utility.yul\":134:139   */\n      dup2\n        /* \"#utility.yul\":107:140   */\n      tag_98\n      jump\t// in\n    tag_97:\n        /* \"#utility.yul\":59:146   */\n      swap3\n      swap2\n      pop\n      pop\n      jump\t// out\n        /* \"#utility.yul\":152:414   */\n    tag_41:\n      0x00\n        /* \"#utility.yul\":260:262   */\n      0x20\n        /* \"#utility.yul\":248:257   */\n      dup3\n        /* \"#utility.yul\":239:246   */\n      dup5\n        /* \"#utility.yul\":235:258   */\n      sub\n        /* \"#utility.yul\":231:263   */\n      slt\n        /* \"#utility.yul\":228:230   */\n      iszero\n      tag_100\n      jumpi\n        /* \"#utility.yul\":276:277   */\n      0x00\n        /* \"#utility.yul\":273:274   */\n      dup1\n        /* \"#utility.yul\":266:278   */\n      revert\n        /* \"#utility.yul\":228:230   */\n    tag_100:\n        /* \"#utility.yul\":319:320   */\n      0x00\n        /* \"#utility.yul\":344:397   */\n      tag_101\n        /* \"#utility.yul\":389:396   */\n      dup5\n        /* \"#utility.yul\":380:386   */\n      dup3\n        /* \"#utility.yul\":369:378   */\n      dup6\n        /* \"#utility.yul\":365:387   */\n      add\n        /* \"#utility.yul\":344:397   */\n      tag_95\n      jump\t// in\n    tag_101:\n        /* \"#utility.yul\":334:397   */\n      swap2\n      pop\n        /* \"#utility.yul\":290:407   */\n      pop\n        /* \"#utility.yul\":218:414   */\n      swap3\n      swap2\n      pop\n      pop\n      jump\t// out\n        /* \"#utility.yul\":420:538   */\n    tag_102:\n        /* \"#utility.yul\":507:531   */\n      tag_104\n        /* \"#utility.yul\":525:530   */\n      dup2\n        /* \"#utility.yul\":507:531   */\n      tag_105\n      jump\t// in\n    tag_104:\n        /* \"#utility.yul\":502:505   */\n      dup3\n        /* \"#utility.yul\":495:532   */\n      mstore\n        /* \"#utility.yul\":485:538   */\n      pop\n      pop\n      jump\t// out\n        /* \"#utility.yul\":544:653   */\n    tag_106:\n        /* \"#utility.yul\":625:646   */\n      tag_108\n        /* \"#utility.yul\":640:645   */\n      dup2\n        /* \"#utility.yul\":625:646   */\n      tag_109\n      jump\t// in\n    tag_108:\n        /* \"#utility.yul\":620:623   */\n      dup3\n        /* \"#utility.yul\":613:647   */\n      mstore\n        /* \"#utility.yul\":603:653   */\n      pop\n      pop\n      jump\t// out\n        /* \"#utility.yul\":659:1023   */\n    tag_110:\n      0x00\n        /* \"#utility.yul\":775:814   */\n      tag_112\n        /* \"#utility.yul\":808:813   */\n      dup3\n        /* \"#utility.yul\":775:814   */\n      tag_113\n      jump\t// in\n    tag_112:\n        /* \"#utility.yul\":830:901   */\n      tag_114\n        /* \"#utility.yul\":894:900   */\n      dup2\n        /* \"#utility.yul\":889:892   */\n      dup6\n        /* \"#utility.yul\":830:901   */\n      tag_115\n      jump\t// in\n    tag_114:\n        /* \"#utility.yul\":823:901   */\n      swap4\n      pop\n        /* \"#utility.yul\":910:962   */\n      tag_116\n        /* \"#utility.yul\":955:961   */\n      dup2\n        /* \"#utility.yul\":950:953   */\n      dup6\n        /* \"#utility.yul\":943:947   */\n      0x20\n        /* \"#utility.yul\":936:941   */\n      dup7\n        /* \"#utility.yul\":932:948   */\n      add\n        /* \"#utility.yul\":910:962   */\n      tag_117\n      jump\t// in\n    tag_116:\n        /* \"#utility.yul\":987:1016   */\n      tag_118\n        /* \"#utility.yul\":1009:1015   */\n      dup2\n        /* \"#utility.yul\":987:1016   */\n      tag_119\n      jump\t// in\n    tag_118:\n        /* \"#utility.yul\":982:985   */\n      dup5\n        /* \"#utility.yul\":978:1017   */\n      add\n        /* \"#utility.yul\":971:1017   */\n      swap2\n      pop\n        /* \"#utility.yul\":751:1023   */\n      pop\n      swap3\n      swap2\n      pop\n      pop\n      jump\t// out\n        /* \"#utility.yul\":1029:1147   */\n    tag_120:\n        /* \"#utility.yul\":1116:1140   */\n      tag_122\n        /* \"#utility.yul\":1134:1139   */\n      dup2\n        /* \"#utility.yul\":1116:1140   */\n      tag_123\n      jump\t// in\n    tag_122:\n        /* \"#utility.yul\":1111:1114   */\n      dup3\n        /* \"#utility.yul\":1104:1141   */\n      mstore\n        /* \"#utility.yul\":1094:1147   */\n      pop\n      pop\n      jump\t// out\n        /* \"#utility.yul\":1153:1375   */\n    tag_38:\n      0x00\n        /* \"#utility.yul\":1284:1286   */\n      0x20\n        /* \"#utility.yul\":1273:1282   */\n      dup3\n        /* \"#utility.yul\":1269:1287   */\n      add\n        /* \"#utility.yul\":1261:1287   */\n      swap1\n      pop\n        /* \"#utility.yul\":1297:1368   */\n      tag_125\n        /* \"#utility.yul\":1365:1366   */\n      0x00\n        /* \"#utility.yul\":1354:1363   */\n      dup4\n        /* \"#utility.yul\":1350:1367   */\n      add\n        /* \"#utility.yul\":1341:1347   */\n      dup5\n        /* \"#utility.yul\":1297:1368   */\n      tag_102\n      jump\t// in\n    tag_125:\n        /* \"#utility.yul\":1251:1375   */\n      swap3\n      swap2\n      pop\n      pop\n      jump\t// out\n        /* \"#utility.yul\":1381:1591   */\n    tag_44:\n      0x00\n        /* \"#utility.yul\":1506:1508   */\n      0x20\n        /* \"#utility.yul\":1495:1504   */\n      dup3\n        /* \"#utility.yul\":1491:1509   */\n      add\n        /* \"#utility.yul\":1483:1509   */\n      swap1\n      pop\n        /* \"#utility.yul\":1519:1584   */\n      tag_127\n        /* \"#utility.yul\":1581:1582   */\n      0x00\n        /* \"#utility.yul\":1570:1579   */\n      dup4\n        /* \"#utility.yul\":1566:1583   */\n      add\n        /* \"#utility.yul\":1557:1563   */\n      dup5\n        /* \"#utility.yul\":1519:1584   */\n      tag_106\n      jump\t// in\n    tag_127:\n        /* \"#utility.yul\":1473:1591   */\n      swap3\n      swap2\n      pop\n      pop\n      jump\t// out\n        /* \"#utility.yul\":1597:1910   */\n    tag_75:\n      0x00\n        /* \"#utility.yul\":1748:1750   */\n      0x20\n        /* \"#utility.yul\":1737:1746   */\n      dup3\n        /* \"#utility.yul\":1733:1751   */\n      add\n        /* \"#utility.yul\":1725:1751   */\n      swap1\n      pop\n        /* \"#utility.yul\":1797:1806   */\n      dup2\n        /* \"#utility.yul\":1791:1795   */\n      dup2\n        /* \"#utility.yul\":1787:1807   */\n      sub\n        /* \"#utility.yul\":1783:1784   */\n      0x00\n        /* \"#utility.yul\":1772:1781   */\n      dup4\n        /* \"#utility.yul\":1768:1785   */\n      add\n        /* \"#utility.yul\":1761:1808   */\n      mstore\n        /* \"#utility.yul\":1825:1903   */\n      tag_129\n        /* \"#utility.yul\":1898:1902   */\n      dup2\n        /* \"#utility.yul\":1889:1895   */\n      dup5\n        /* \"#utility.yul\":1825:1903   */\n      tag_110\n      jump\t// in\n    tag_129:\n        /* \"#utility.yul\":1817:1903   */\n      swap1\n      pop\n        /* \"#utility.yul\":1715:1910   */\n      swap3\n      swap2\n      pop\n      pop\n      jump\t// out\n        /* \"#utility.yul\":1916:2138   */\n    tag_28:\n      0x00\n        /* \"#utility.yul\":2047:2049   */\n      0x20\n        /* \"#utility.yul\":2036:2045   */\n      dup3\n        /* \"#utility.yul\":2032:2050   */\n      add\n        /* \"#utility.yul\":2024:2050   */\n      swap1\n      pop\n        /* \"#utility.yul\":2060:2131   */\n      tag_131\n        /* \"#utility.yul\":2128:2129   */\n      0x00\n        /* \"#utility.yul\":2117:2126   */\n      dup4\n        /* \"#utility.yul\":2113:2130   */\n      add\n        /* \"#utility.yul\":2104:2110   */\n      dup5\n        /* \"#utility.yul\":2060:2131   */\n      tag_120\n      jump\t// in\n    tag_131:\n        /* \"#utility.yul\":2014:2138   */\n      swap3\n      swap2\n      pop\n      pop\n      jump\t// out\n        /* \"#utility.yul\":2144:2243   */\n    tag_113:\n      0x00\n        /* \"#utility.yul\":2230:2235   */\n      dup2\n        /* \"#utility.yul\":2224:2236   */\n      mload\n        /* \"#utility.yul\":2214:2236   */\n      swap1\n      pop\n        /* \"#utility.yul\":2203:2243   */\n      swap2\n      swap1\n      pop\n      jump\t// out\n        /* \"#utility.yul\":2249:2418   */\n    tag_115:\n      0x00\n        /* \"#utility.yul\":2367:2373   */\n      dup3\n        /* \"#utility.yul\":2362:2365   */\n      dup3\n        /* \"#utility.yul\":2355:2374   */\n      mstore\n        /* \"#utility.yul\":2407:2411   */\n      0x20\n        /* \"#utility.yul\":2402:2405   */\n      dup3\n        /* \"#utility.yul\":2398:2412   */\n      add\n        /* \"#utility.yul\":2383:2412   */\n      swap1\n      pop\n        /* \"#utility.yul\":2345:2418   */\n      swap3\n      swap2\n      pop\n      pop\n      jump\t// out\n        /* \"#utility.yul\":2424:2520   */\n    tag_105:\n      0x00\n        /* \"#utility.yul\":2490:2514   */\n      tag_135\n        /* \"#utility.yul\":2508:2513   */\n      dup3\n        /* \"#utility.yul\":2490:2514   */\n      tag_136\n      jump\t// in\n    tag_135:\n        /* \"#utility.yul\":2479:2514   */\n      swap1\n      pop\n        /* \"#utility.yul\":2469:2520   */\n      swap2\n      swap1\n      pop\n      jump\t// out\n        /* \"#utility.yul\":2526:2616   */\n    tag_109:\n      0x00\n        /* \"#utility.yul\":2603:2608   */\n      dup2\n        /* \"#utility.yul\":2596:2609   */\n      iszero\n        /* \"#utility.yul\":2589:2610   */\n      iszero\n        /* \"#utility.yul\":2578:2610   */\n      swap1\n      pop\n        /* \"#utility.yul\":2568:2616   */\n      swap2\n      swap1\n      pop\n      jump\t// out\n        /* \"#utility.yul\":2622:2748   */\n    tag_136:\n      0x00\n        /* \"#utility.yul\":2699:2741   */\n      0xffffffffffffffffffffffffffffffffffffffff\n        /* \"#utility.yul\":2692:2697   */\n      dup3\n        /* \"#utility.yul\":2688:2742   */\n      and\n        /* \"#utility.yul\":2677:2742   */\n      swap1\n      pop\n        /* \"#utility.yul\":2667:2748   */\n      swap2\n      swap1\n      pop\n      jump\t// out\n        /* \"#utility.yul\":2754:2831   */\n    tag_123:\n      0x00\n        /* \"#utility.yul\":2820:2825   */\n      dup2\n        /* \"#utility.yul\":2809:2825   */\n      swap1\n      pop\n        /* \"#utility.yul\":2799:2831   */\n      swap2\n      swap1\n      pop\n      jump\t// out\n        /* \"#utility.yul\":2837:3144   */\n    tag_117:\n        /* \"#utility.yul\":2905:2906   */\n      0x00\n        /* \"#utility.yul\":2915:3028   */\n    tag_141:\n        /* \"#utility.yul\":2929:2935   */\n      dup4\n        /* \"#utility.yul\":2926:2927   */\n      dup2\n        /* \"#utility.yul\":2923:2936   */\n      lt\n        /* \"#utility.yul\":2915:3028   */\n      iszero\n      tag_143\n      jumpi\n        /* \"#utility.yul\":3014:3015   */\n      dup1\n        /* \"#utility.yul\":3009:3012   */\n      dup3\n        /* \"#utility.yul\":3005:3016   */\n      add\n        /* \"#utility.yul\":2999:3017   */\n      mload\n        /* \"#utility.yul\":2995:2996   */\n      dup2\n        /* \"#utility.yul\":2990:2993   */\n      dup5\n        /* \"#utility.yul\":2986:2997   */\n      add\n        /* \"#utility.yul\":2979:3018   */\n      mstore\n        /* \"#utility.yul\":2951:2953   */\n      0x20\n        /* \"#utility.yul\":2948:2949   */\n      dup2\n        /* \"#utility.yul\":2944:2954   */\n      add\n        /* \"#utility.yul\":2939:2954   */\n      swap1\n      pop\n        /* \"#utility.yul\":2915:3028   */\n      jump(tag_141)\n    tag_143:\n        /* \"#utility.yul\":3046:3052   */\n      dup4\n        /* \"#utility.yul\":3043:3044   */\n      dup2\n        /* \"#utility.yul\":3040:3053   */\n      gt\n        /* \"#utility.yul\":3037:3039   */\n      iszero\n      tag_144\n      jumpi\n        /* \"#utility.yul\":3126:3127   */\n      0x00\n        /* \"#utility.yul\":3117:3123   */\n      dup5\n        /* \"#utility.yul\":3112:3115   */\n      dup5\n        /* \"#utility.yul\":3108:3124   */\n      add\n        /* \"#utility.yul\":3101:3128   */\n      mstore\n        /* \"#utility.yul\":3037:3039   */\n    tag_144:\n        /* \"#utility.yul\":2886:3144   */\n      pop\n      pop\n      pop\n      pop\n      jump\t// out\n        /* \"#utility.yul\":3150:3470   */\n    tag_89:\n      0x00\n        /* \"#utility.yul\":3231:3232   */\n      0x02\n        /* \"#utility.yul\":3225:3229   */\n      dup3\n        /* \"#utility.yul\":3221:3233   */\n      div\n        /* \"#utility.yul\":3211:3233   */\n      swap1\n      pop\n        /* \"#utility.yul\":3278:3279   */\n      0x01\n        /* \"#utility.yul\":3272:3276   */\n      dup3\n        /* \"#utility.yul\":3268:3280   */\n      and\n        /* \"#utility.yul\":3299:3317   */\n      dup1\n        /* \"#utility.yul\":3289:3291   */\n      tag_146\n      jumpi\n        /* \"#utility.yul\":3355:3359   */\n      0x7f\n        /* \"#utility.yul\":3347:3353   */\n      dup3\n        /* \"#utility.yul\":3343:3360   */\n      and\n        /* \"#utility.yul\":3333:3360   */\n      swap2\n      pop\n        /* \"#utility.yul\":3289:3291   */\n    tag_146:\n        /* \"#utility.yul\":3417:3419   */\n      0x20\n        /* \"#utility.yul\":3409:3415   */\n      dup3\n        /* \"#utility.yul\":3406:3420   */\n      lt\n        /* \"#utility.yul\":3386:3404   */\n      dup2\n        /* \"#utility.yul\":3383:3421   */\n      eq\n        /* \"#utility.yul\":3380:3382   */\n      iszero\n      tag_147\n      jumpi\n        /* \"#utility.yul\":3436:3454   */\n      tag_148\n      tag_149\n      jump\t// in\n    tag_148:\n        /* \"#utility.yul\":3380:3382   */\n    tag_147:\n        /* \"#utility.yul\":3201:3470   */\n      pop\n      swap2\n      swap1\n      pop\n      jump\t// out\n        /* \"#utility.yul\":3476:3656   */\n    tag_149:\n        /* \"#utility.yul\":3524:3601   */\n      0x4e487b7100000000000000000000000000000000000000000000000000000000\n        /* \"#utility.yul\":3521:3522   */\n      0x00\n        /* \"#utility.yul\":3514:3602   */\n      mstore\n        /* \"#utility.yul\":3621:3625   */\n      0x22\n        /* \"#utility.yul\":3618:3619   */\n      0x04\n        /* \"#utility.yul\":3611:3626   */\n      mstore\n        /* \"#utility.yul\":3645:3649   */\n      0x24\n        /* \"#utility.yul\":3642:3643   */\n      0x00\n        /* \"#utility.yul\":3635:3650   */\n      revert\n        /* \"#utility.yul\":3662:3764   */\n    tag_119:\n      0x00\n        /* \"#utility.yul\":3754:3756   */\n      0x1f\n        /* \"#utility.yul\":3750:3757   */\n      not\n        /* \"#utility.yul\":3745:3747   */\n      0x1f\n        /* \"#utility.yul\":3738:3743   */\n      dup4\n        /* \"#utility.yul\":3734:3748   */\n      add\n        /* \"#utility.yul\":3730:3758   */\n      and\n        /* \"#utility.yul\":3720:3758   */\n      swap1\n      pop\n        /* \"#utility.yul\":3710:3764   */\n      swap2\n      swap1\n      pop\n      jump\t// out\n        /* \"#utility.yul\":3770:3892   */\n    tag_98:\n        /* \"#utility.yul\":3843:3867   */\n      tag_153\n        /* \"#utility.yul\":3861:3866   */\n      dup2\n        /* \"#utility.yul\":3843:3867   */\n      tag_105\n      jump\t// in\n    tag_153:\n        /* \"#utility.yul\":3836:3841   */\n      dup2\n        /* \"#utility.yul\":3833:3868   */\n      eq\n        /* \"#utility.yul\":3823:3825   */\n      tag_154\n      jumpi\n        /* \"#utility.yul\":3882:3883   */\n      0x00\n        /* \"#utility.yul\":3879:3880   */\n      dup1\n        /* \"#utility.yul\":3872:3884   */\n      revert\n        /* \"#utility.yul\":3823:3825   */\n    tag_154:\n        /* \"#utility.yul\":3813:3892   */\n      pop\n      jump\t// out\n\n    auxdata: 0xa2646970667358221220df137df89a4a035728606e960f318bffdff85486d85026c1198b36187d93fb4e64736f6c63430008000033\n}\n",
				"bytecode": {
					"linkReferences": {},
					"object": "608060405234801561001057600080fd5b5061080b806100206000396000f3fe608060405234801561001057600080fd5b50600436106101215760003560e01c80639ce110d7116100ad578063dfbde3fc11610071578063dfbde3fc146102dc578063e06174e4146102fa578063e66f53b714610318578063fbfa77cf14610336578063fcfff16f1461035457610121565b80639ce110d714610246578063a5360d0414610264578063adc1b95614610282578063c45a0155146102a0578063ddca3f43146102be57610121565b8063372c12b1116100f4578063372c12b11461019e5780633b92eb23146101ce5780634b09b72a146101ec578063632a9a521461020a5780637d9f6db51461022857610121565b8063047fc9aa146101265780630c7d5cd814610144578063108adc7a146101625780633205f5fc14610180575b600080fd5b61012e610372565b60405161013b919061069a565b60405180910390f35b61014c610378565b604051610159919061069a565b60405180910390f35b61016a61037e565b604051610177919061069a565b60405180910390f35b610188610384565b6040516101959190610642565b60405180910390f35b6101b860048036038101906101b391906105b3565b6103aa565b6040516101c5919061065d565b60405180910390f35b6101d66103ca565b6040516101e39190610642565b60405180910390f35b6101f46103f0565b604051610201919061069a565b60405180910390f35b6102126103f6565b60405161021f9190610642565b60405180910390f35b61023061041c565b60405161023d9190610642565b60405180910390f35b61024e610442565b60405161025b919061065d565b60405180910390f35b61026c610455565b604051610279919061069a565b60405180910390f35b61028a61045b565b604051610297919061069a565b60405180910390f35b6102a8610461565b6040516102b59190610642565b60405180910390f35b6102c6610485565b6040516102d3919061069a565b60405180910390f35b6102e461048b565b6040516102f19190610678565b60405180910390f35b610302610519565b60405161030f9190610642565b60405180910390f35b61032061053f565b60405161032d9190610642565b60405180910390f35b61033e610565565b60405161034b9190610642565b60405180910390f35b61035c61058b565b604051610369919061065d565b60405180910390f35b600e5481565b600c5481565b60115481565b600660009054906101000a900473ffffffffffffffffffffffffffffffffffffffff1681565b60086020528060005260406000206000915054906101000a900460ff1681565b600360009054906101000a900473ffffffffffffffffffffffffffffffffffffffff1681565b600d5481565b600560009054906101000a900473ffffffffffffffffffffffffffffffffffffffff1681565b600460009054906101000a900473ffffffffffffffffffffffffffffffffffffffff1681565b600960009054906101000a900460ff1681565b60105481565b600b5481565b60008054906101000a900473ffffffffffffffffffffffffffffffffffffffff1681565b600f5481565b600a80546104989061074c565b80601f01602080910402602001604051908101604052809291908181526020018280546104c49061074c565b80156105115780601f106104e657610100808354040283529160200191610511565b820191906000526020600020905b8154815290600101906020018083116104f457829003601f168201915b505050505081565b600160009054906101000a900473ffffffffffffffffffffffffffffffffffffffff1681565b600760009054906101000a900473ffffffffffffffffffffffffffffffffffffffff1681565b600260009054906101000a900473ffffffffffffffffffffffffffffffffffffffff1681565b600960019054906101000a900460ff1681565b6000813590506105ad816107be565b92915050565b6000602082840312156105c557600080fd5b60006105d38482850161059e565b91505092915050565b6105e5816106d1565b82525050565b6105f4816106e3565b82525050565b6000610605826106b5565b61060f81856106c0565b935061061f818560208601610719565b610628816107ad565b840191505092915050565b61063c8161070f565b82525050565b600060208201905061065760008301846105dc565b92915050565b600060208201905061067260008301846105eb565b92915050565b6000602082019050818103600083015261069281846105fa565b905092915050565b60006020820190506106af6000830184610633565b92915050565b600081519050919050565b600082825260208201905092915050565b60006106dc826106ef565b9050919050565b60008115159050919050565b600073ffffffffffffffffffffffffffffffffffffffff82169050919050565b6000819050919050565b60005b8381101561073757808201518184015260208101905061071c565b83811115610746576000848401525b50505050565b6000600282049050600182168061076457607f821691505b602082108114156107785761077761077e565b5b50919050565b7f4e487b7100000000000000000000000000000000000000000000000000000000600052602260045260246000fd5b6000601f19601f8301169050919050565b6107c7816106d1565b81146107d257600080fd5b5056fea2646970667358221220df137df89a4a035728606e960f318bffdff85486d85026c1198b36187d93fb4e64736f6c63430008000033",
					"opcodes": "PUSH1 0x80 PUSH1 0x40 MSTORE CALLVALUE DUP1 ISZERO PUSH2 0x10 JUMPI PUSH1 0x0 DUP1 REVERT JUMPDEST POP PUSH2 0x80B DUP1 PUSH2 0x20 PUSH1 0x0 CODECOPY PUSH1 0x0 RETURN INVALID PUSH1 0x80 PUSH1 0x40 MSTORE CALLVALUE DUP1 ISZERO PUSH2 0x10 JUMPI PUSH1 0x0 DUP1 REVERT JUMPDEST POP PUSH1 0x4 CALLDATASIZE LT PUSH2 0x121 JUMPI PUSH1 0x0 CALLDATALOAD PUSH1 0xE0 SHR DUP1 PUSH4 0x9CE110D7 GT PUSH2 0xAD JUMPI DUP1 PUSH4 0xDFBDE3FC GT PUSH2 0x71 JUMPI DUP1 PUSH4 0xDFBDE3FC EQ PUSH2 0x2DC JUMPI DUP1 PUSH4 0xE06174E4 EQ PUSH2 0x2FA JUMPI DUP1 PUSH4 0xE66F53B7 EQ PUSH2 0x318 JUMPI DUP1 PUSH4 0xFBFA77CF EQ PUSH2 0x336 JUMPI DUP1 PUSH4 0xFCFFF16F EQ PUSH2 0x354 JUMPI PUSH2 0x121 JUMP JUMPDEST DUP1 PUSH4 0x9CE110D7 EQ PUSH2 0x246 JUMPI DUP1 PUSH4 0xA5360D04 EQ PUSH2 0x264 JUMPI DUP1 PUSH4 0xADC1B956 EQ PUSH2 0x282 JUMPI DUP1 PUSH4 0xC45A0155 EQ PUSH2 0x2A0 JUMPI DUP1 PUSH4 0xDDCA3F43 EQ PUSH2 0x2BE JUMPI PUSH2 0x121 JUMP JUMPDEST DUP1 PUSH4 0x372C12B1 GT PUSH2 0xF4 JUMPI DUP1 PUSH4 0x372C12B1 EQ PUSH2 0x19E JUMPI DUP1 PUSH4 0x3B92EB23 EQ PUSH2 0x1CE JUMPI DUP1 PUSH4 0x4B09B72A EQ PUSH2 0x1EC JUMPI DUP1 PUSH4 0x632A9A52 EQ PUSH2 0x20A JUMPI DUP1 PUSH4 0x7D9F6DB5 EQ PUSH2 0x228 JUMPI PUSH2 0x121 JUMP JUMPDEST DUP1 PUSH4 0x47FC9AA EQ PUSH2 0x126 JUMPI DUP1 PUSH4 0xC7D5CD8 EQ PUSH2 0x144 JUMPI DUP1 PUSH4 0x108ADC7A EQ PUSH2 0x162 JUMPI DUP1 PUSH4 0x3205F5FC EQ PUSH2 0x180 JUMPI JUMPDEST PUSH1 0x0 DUP1 REVERT JUMPDEST PUSH2 0x12E PUSH2 0x372 JUMP JUMPDEST PUSH1 0x40 MLOAD PUSH2 0x13B SWAP2 SWAP1 PUSH2 0x69A JUMP JUMPDEST PUSH1 0x40 MLOAD DUP1 SWAP2 SUB SWAP1 RETURN JUMPDEST PUSH2 0x14C PUSH2 0x378 JUMP JUMPDEST PUSH1 0x40 MLOAD PUSH2 0x159 SWAP2 SWAP1 PUSH2 0x69A JUMP JUMPDEST PUSH1 0x40 MLOAD DUP1 SWAP2 SUB SWAP1 RETURN JUMPDEST PUSH2 0x16A PUSH2 0x37E JUMP JUMPDEST PUSH1 0x40 MLOAD PUSH2 0x177 SWAP2 SWAP1 PUSH2 0x69A JUMP JUMPDEST PUSH1 0x40 MLOAD DUP1 SWAP2 SUB SWAP1 RETURN JUMPDEST PUSH2 0x188 PUSH2 0x384 JUMP JUMPDEST PUSH1 0x40 MLOAD PUSH2 0x195 SWAP2 SWAP1 PUSH2 0x642 JUMP JUMPDEST PUSH1 0x40 MLOAD DUP1 SWAP2 SUB SWAP1 RETURN JUMPDEST PUSH2 0x1B8 PUSH1 0x4 DUP1 CALLDATASIZE SUB DUP2 ADD SWAP1 PUSH2 0x1B3 SWAP2 SWAP1 PUSH2 0x5B3 JUMP JUMPDEST PUSH2 0x3AA JUMP JUMPDEST PUSH1 0x40 MLOAD PUSH2 0x1C5 SWAP2 SWAP1 PUSH2 0x65D JUMP JUMPDEST PUSH1 0x40 MLOAD DUP1 SWAP2 SUB SWAP1 RETURN JUMPDEST PUSH2 0x1D6 PUSH2 0x3CA JUMP JUMPDEST PUSH1 0x40 MLOAD PUSH2 0x1E3 SWAP2 SWAP1 PUSH2 0x642 JUMP JUMPDEST PUSH1 0x40 MLOAD DUP1 SWAP2 SUB SWAP1 RETURN JUMPDEST PUSH2 0x1F4 PUSH2 0x3F0 JUMP JUMPDEST PUSH1 0x40 MLOAD PUSH2 0x201 SWAP2 SWAP1 PUSH2 0x69A JUMP JUMPDEST PUSH1 0x40 MLOAD DUP1 SWAP2 SUB SWAP1 RETURN JUMPDEST PUSH2 0x212 PUSH2 0x3F6 JUMP JUMPDEST PUSH1 0x40 MLOAD PUSH2 0x21F SWAP2 SWAP1 PUSH2 0x642 JUMP JUMPDEST PUSH1 0x40 MLOAD DUP1 SWAP2 SUB SWAP1 RETURN JUMPDEST PUSH2 0x230 PUSH2 0x41C JUMP JUMPDEST PUSH1 0x40 MLOAD PUSH2 0x23D SWAP2 SWAP1 PUSH2 0x642 JUMP JUMPDEST PUSH1 0x40 MLOAD DUP1 SWAP2 SUB SWAP1 RETURN JUMPDEST PUSH2 0x24E PUSH2 0x442 JUMP JUMPDEST PUSH1 0x40 MLOAD PUSH2 0x25B SWAP2 SWAP1 PUSH2 0x65D JUMP JUMPDEST PUSH1 0x40 MLOAD DUP1 SWAP2 SUB SWAP1 RETURN JUMPDEST PUSH2 0x26C PUSH2 0x455 JUMP JUMPDEST PUSH1 0x40 MLOAD PUSH2 0x279 SWAP2 SWAP1 PUSH2 0x69A JUMP JUMPDEST PUSH1 0x40 MLOAD DUP1 SWAP2 SUB SWAP1 RETURN JUMPDEST PUSH2 0x28A PUSH2 0x45B JUMP JUMPDEST PUSH1 0x40 MLOAD PUSH2 0x297 SWAP2 SWAP1 PUSH2 0x69A JUMP JUMPDEST PUSH1 0x40 MLOAD DUP1 SWAP2 SUB SWAP1 RETURN JUMPDEST PUSH2 0x2A8 PUSH2 0x461 JUMP JUMPDEST PUSH1 0x40 MLOAD PUSH2 0x2B5 SWAP2 SWAP1 PUSH2 0x642 JUMP JUMPDEST PUSH1 0x40 MLOAD DUP1 SWAP2 SUB SWAP1 RETURN JUMPDEST PUSH2 0x2C6 PUSH2 0x485 JUMP JUMPDEST PUSH1 0x40 MLOAD PUSH2 0x2D3 SWAP2 SWAP1 PUSH2 0x69A JUMP JUMPDEST PUSH1 0x40 MLOAD DUP1 SWAP2 SUB SWAP1 RETURN JUMPDEST PUSH2 0x2E4 PUSH2 0x48B JUMP JUMPDEST PUSH1 0x40 MLOAD PUSH2 0x2F1 SWAP2 SWAP1 PUSH2 0x678 JUMP JUMPDEST PUSH1 0x40 MLOAD DUP1 SWAP2 SUB SWAP1 RETURN JUMPDEST PUSH2 0x302 PUSH2 0x519 JUMP JUMPDEST PUSH1 0x40 MLOAD PUSH2 0x30F SWAP2 SWAP1 PUSH2 0x642 JUMP JUMPDEST PUSH1 0x40 MLOAD DUP1 SWAP2 SUB SWAP1 RETURN JUMPDEST PUSH2 0x320 PUSH2 0x53F JUMP JUMPDEST PUSH1 0x40 MLOAD PUSH2 0x32D SWAP2 SWAP1 PUSH2 0x642 JUMP JUMPDEST PUSH1 0x40 MLOAD DUP1 SWAP2 SUB SWAP1 RETURN JUMPDEST PUSH2 0x33E PUSH2 0x565 JUMP JUMPDEST PUSH1 0x40 MLOAD PUSH2 0x34B SWAP2 SWAP1 PUSH2 0x642 JUMP JUMPDEST PUSH1 0x40 MLOAD DUP1 SWAP2 SUB SWAP1 RETURN JUMPDEST PUSH2 0x35C PUSH2 0x58B JUMP JUMPDEST PUSH1 0x40 MLOAD PUSH2 0x369 SWAP2 SWAP1 PUSH2 0x65D JUMP JUMPDEST PUSH1 0x40 MLOAD DUP1 SWAP2 SUB SWAP1 RETURN JUMPDEST PUSH1 0xE SLOAD DUP2 JUMP JUMPDEST PUSH1 0xC SLOAD DUP2 JUMP JUMPDEST PUSH1 0x11 SLOAD DUP2 JUMP JUMPDEST PUSH1 0x6 PUSH1 0x0 SWAP1 SLOAD SWAP1 PUSH2 0x100 EXP SWAP1 DIV PUSH20 0xFFFFFFFFFFFFFFFFFFFFFFFFFFFFFFFFFFFFFFFF AND DUP2 JUMP JUMPDEST PUSH1 0x8 PUSH1 0x20 MSTORE DUP1 PUSH1 0x0 MSTORE PUSH1 0x40 PUSH1 0x0 KECCAK256 PUSH1 0x0 SWAP2 POP SLOAD SWAP1 PUSH2 0x100 EXP SWAP1 DIV PUSH1 0xFF AND DUP2 JUMP JUMPDEST PUSH1 0x3 PUSH1 0x0 SWAP1 SLOAD SWAP1 PUSH2 0x100 EXP SWAP1 DIV PUSH20 0xFFFFFFFFFFFFFFFFFFFFFFFFFFFFFFFFFFFFFFFF AND DUP2 JUMP JUMPDEST PUSH1 0xD SLOAD DUP2 JUMP JUMPDEST PUSH1 0x5 PUSH1 0x0 SWAP1 SLOAD SWAP1 PUSH2 0x100 EXP SWAP1 DIV PUSH20 0xFFFFFFFFFFFFFFFFFFFFFFFFFFFFFFFFFFFFFFFF AND DUP2 JUMP JUMPDEST PUSH1 0x4 PUSH1 0x0 SWAP1 SLOAD SWAP1 PUSH2 0x100 EXP SWAP1 DIV PUSH20 0xFFFFFFFFFFFFFFFFFFFFFFFFFFFFFFFFFFFFFFFF AND DUP2 JUMP JUMPDEST PUSH1 0x9 PUSH1 0x0 SWAP1 SLOAD SWAP1 PUSH2 0x100 EXP SWAP1 DIV PUSH1 0xFF AND DUP2 JUMP JUMPDEST PUSH1 0x10 SLOAD DUP2 JUMP JUMPDEST PUSH1 0xB SLOAD DUP2 JUMP JUMPDEST PUSH1 0x0 DUP1 SLOAD SWAP1 PUSH2 0x100 EXP SWAP1 DIV PUSH20 0xFFFFFFFFFFFFFFFFFFFFFFFFFFFFFFFFFFFFFFFF AND DUP2 JUMP JUMPDEST PUSH1 0xF SLOAD DUP2 JUMP JUMPDEST PUSH1 0xA DUP1 SLOAD PUSH2 0x498 SWAP1 PUSH2 0x74C JUMP JUMPDEST DUP1 PUSH1 0x1F ADD PUSH1 0x20 DUP1 SWAP2 DIV MUL PUSH1 0x20 ADD PUSH1 0x40 MLOAD SWAP1 DUP2 ADD PUSH1 0x40 MSTORE DUP1 SWAP3 SWAP2 SWAP1 DUP2 DUP2 MSTORE PUSH1 0x20 ADD DUP3 DUP1 SLOAD PUSH2 0x4C4 SWAP1 PUSH2 0x74C JUMP JUMPDEST DUP1 ISZERO PUSH2 0x511 JUMPI DUP1 PUSH1 0x1F LT PUSH2 0x4E6 JUMPI PUSH2 0x100 DUP1 DUP4 SLOAD DIV MUL DUP4 MSTORE SWAP2 PUSH1 0x20 ADD SWAP2 PUSH2 0x511 JUMP JUMPDEST DUP3 ADD SWAP2 SWAP1 PUSH1 0x0 MSTORE PUSH1 0x20 PUSH1 0x0 KECCAK256 SWAP1 JUMPDEST DUP2 SLOAD DUP2 MSTORE SWAP1 PUSH1 0x1 ADD SWAP1 PUSH1 0x20 ADD DUP1 DUP4 GT PUSH2 0x4F4 JUMPI DUP3 SWAP1 SUB PUSH1 0x1F AND DUP3 ADD SWAP2 JUMPDEST POP POP POP POP POP DUP2 JUMP JUMPDEST PUSH1 0x1 PUSH1 0x0 SWAP1 SLOAD SWAP1 PUSH2 0x100 EXP SWAP1 DIV PUSH20 0xFFFFFFFFFFFFFFFFFFFFFFFFFFFFFFFFFFFFFFFF AND DUP2 JUMP JUMPDEST PUSH1 0x7 PUSH1 0x0 SWAP1 SLOAD SWAP1 PUSH2 0x100 EXP SWAP1 DIV PUSH20 0xFFFFFFFFFFFFFFFFFFFFFFFFFFFFFFFFFFFFFFFF AND DUP2 JUMP JUMPDEST PUSH1 0x2 PUSH1 0x0 SWAP1 SLOAD SWAP1 PUSH2 0x100 EXP SWAP1 DIV PUSH20 0xFFFFFFFFFFFFFFFFFFFFFFFFFFFFFFFFFFFFFFFF AND DUP2 JUMP JUMPDEST PUSH1 0x9 PUSH1 0x1 SWAP1 SLOAD SWAP1 PUSH2 0x100 EXP SWAP1 DIV PUSH1 0xFF AND DUP2 JUMP JUMPDEST PUSH1 0x0 DUP2 CALLDATALOAD SWAP1 POP PUSH2 0x5AD DUP2 PUSH2 0x7BE JUMP JUMPDEST SWAP3 SWAP2 POP POP JUMP JUMPDEST PUSH1 0x0 PUSH1 0x20 DUP3 DUP5 SUB SLT ISZERO PUSH2 0x5C5 JUMPI PUSH1 0x0 DUP1 REVERT JUMPDEST PUSH1 0x0 PUSH2 0x5D3 DUP5 DUP3 DUP6 ADD PUSH2 0x59E JUMP JUMPDEST SWAP2 POP POP SWAP3 SWAP2 POP POP JUMP JUMPDEST PUSH2 0x5E5 DUP2 PUSH2 0x6D1 JUMP JUMPDEST DUP3 MSTORE POP POP JUMP JUMPDEST PUSH2 0x5F4 DUP2 PUSH2 0x6E3 JUMP JUMPDEST DUP3 MSTORE POP POP JUMP JUMPDEST PUSH1 0x0 PUSH2 0x605 DUP3 PUSH2 0x6B5 JUMP JUMPDEST PUSH2 0x60F DUP2 DUP6 PUSH2 0x6C0 JUMP JUMPDEST SWAP4 POP PUSH2 0x61F DUP2 DUP6 PUSH1 0x20 DUP7 ADD PUSH2 0x719 JUMP JUMPDEST PUSH2 0x628 DUP2 PUSH2 0x7AD JUMP JUMPDEST DUP5 ADD SWAP2 POP POP SWAP3 SWAP2 POP POP JUMP JUMPDEST PUSH2 0x63C DUP2 PUSH2 0x70F JUMP JUMPDEST DUP3 MSTORE POP POP JUMP JUMPDEST PUSH1 0x0 PUSH1 0x20 DUP3 ADD SWAP1 POP PUSH2 0x657 PUSH1 0x0 DUP4 ADD DUP5 PUSH2 0x5DC JUMP JUMPDEST SWAP3 SWAP2 POP POP JUMP JUMPDEST PUSH1 0x0 PUSH1 0x20 DUP3 ADD SWAP1 POP PUSH2 0x672 PUSH1 0x0 DUP4 ADD DUP5 PUSH2 0x5EB JUMP JUMPDEST SWAP3 SWAP2 POP POP JUMP JUMPDEST PUSH1 0x0 PUSH1 0x20 DUP3 ADD SWAP1 POP DUP2 DUP2 SUB PUSH1 0x0 DUP4 ADD MSTORE PUSH2 0x692 DUP2 DUP5 PUSH2 0x5FA JUMP JUMPDEST SWAP1 POP SWAP3 SWAP2 POP POP JUMP JUMPDEST PUSH1 0x0 PUSH1 0x20 DUP3 ADD SWAP1 POP PUSH2 0x6AF PUSH1 0x0 DUP4 ADD DUP5 PUSH2 0x633 JUMP JUMPDEST SWAP3 SWAP2 POP POP JUMP JUMPDEST PUSH1 0x0 DUP2 MLOAD SWAP1 POP SWAP2 SWAP1 POP JUMP JUMPDEST PUSH1 0x0 DUP3 DUP3 MSTORE PUSH1 0x20 DUP3 ADD SWAP1 POP SWAP3 SWAP2 POP POP JUMP JUMPDEST PUSH1 0x0 PUSH2 0x6DC DUP3 PUSH2 0x6EF JUMP JUMPDEST SWAP1 POP SWAP2 SWAP1 POP JUMP JUMPDEST PUSH1 0x0 DUP2 ISZERO ISZERO SWAP1 POP SWAP2 SWAP1 POP JUMP JUMPDEST PUSH1 0x0 PUSH20 0xFFFFFFFFFFFFFFFFFFFFFFFFFFFFFFFFFFFFFFFF DUP3 AND SWAP1 POP SWAP2 SWAP1 POP JUMP JUMPDEST PUSH1 0x0 DUP2 SWAP1 POP SWAP2 SWAP1 POP JUMP JUMPDEST PUSH1 0x0 JUMPDEST DUP4 DUP2 LT ISZERO PUSH2 0x737 JUMPI DUP1 DUP3 ADD MLOAD DUP2 DUP5 ADD MSTORE PUSH1 0x20 DUP2 ADD SWAP1 POP PUSH2 0x71C JUMP JUMPDEST DUP4 DUP2 GT ISZERO PUSH2 0x746 JUMPI PUSH1 0x0 DUP5 DUP5 ADD MSTORE JUMPDEST POP POP POP POP JUMP JUMPDEST PUSH1 0x0 PUSH1 0x2 DUP3 DIV SWAP1 POP PUSH1 0x1 DUP3 AND DUP1 PUSH2 0x764 JUMPI PUSH1 0x7F DUP3 AND SWAP2 POP JUMPDEST PUSH1 0x20 DUP3 LT DUP2 EQ ISZERO PUSH2 0x778 JUMPI PUSH2 0x777 PUSH2 0x77E JUMP JUMPDEST JUMPDEST POP SWAP2 SWAP1 POP JUMP JUMPDEST PUSH32 0x4E487B7100000000000000000000000000000000000000000000000000000000 PUSH1 0x0 MSTORE PUSH1 0x22 PUSH1 0x4 MSTORE PUSH1 0x24 PUSH1 0x0 REVERT JUMPDEST PUSH1 0x0 PUSH1 0x1F NOT PUSH1 0x1F DUP4 ADD AND SWAP1 POP SWAP2 SWAP1 POP JUMP JUMPDEST PUSH2 0x7C7 DUP2 PUSH2 0x6D1 JUMP JUMPDEST DUP2 EQ PUSH2 0x7D2 JUMPI PUSH1 0x0 DUP1 REVERT JUMPDEST POP JUMP INVALID LOG2 PUSH5 0x6970667358 0x22 SLT KECCAK256 0xDF SGT PUSH30 0xF89A4A035728606E960F318BFFDFF85486D85026C1198B36187D93FB4E64 PUSH20 0x6F6C634300080000330000000000000000000000 "
				},
				"gasEstimates": {
					"creation": {
						"codeDepositCost": "411800",
						"executionCost": "449",
						"totalCost": "412249"
					},
					"external": {
						"DaoName()": "infinite",
						"auction()": "1325",
						"cashDivision()": "1174",
						"cashVetoken()": "1197",
						"curator()": "1280",
						"division()": "1304",
						"factory()": "1300",
						"fee()": "1240",
						"initializer()": "1194",
						"lastClaimed()": "1196",
						"open()": "1331",
						"reserveAmount()": "1196",
						"reserveRatio()": "1175",
						"settings()": "1258",
						"supply()": "1153",
						"vault()": "1302",
						"veToken()": "1259",
						"vote()": "1303",
						"whiteList(address)": "1568"
					}
				},
				"methodIdentifiers": {
					"DaoName()": "dfbde3fc",
					"auction()": "7d9f6db5",
					"cashDivision()": "a5360d04",
					"cashVetoken()": "108adc7a",
					"curator()": "e66f53b7",
					"division()": "3205f5fc",
					"factory()": "c45a0155",
					"fee()": "ddca3f43",
					"initializer()": "9ce110d7",
					"lastClaimed()": "adc1b956",
					"open()": "fcfff16f",
					"reserveAmount()": "4b09b72a",
					"reserveRatio()": "0c7d5cd8",
					"settings()": "e06174e4",
					"supply()": "047fc9aa",
					"vault()": "fbfa77cf",
					"veToken()": "3b92eb23",
					"vote()": "632a9a52",
					"whiteList(address)": "372c12b1"
				}
			},
			"storageLayout": {
				"storage": [
					{
						"astId": 886,
						"contract": "contracts/Template/Istanbul10/data/RouterData.sol:RouterData",
						"label": "factory",
						"offset": 0,
						"slot": "0",
						"type": "t_address"
					},
					{
						"astId": 889,
						"contract": "contracts/Template/Istanbul10/data/RouterData.sol:RouterData",
						"label": "settings",
						"offset": 0,
						"slot": "1",
						"type": "t_address"
					},
					{
						"astId": 892,
						"contract": "contracts/Template/Istanbul10/data/RouterData.sol:RouterData",
						"label": "vault",
						"offset": 0,
						"slot": "2",
						"type": "t_address"
					},
					{
						"astId": 895,
						"contract": "contracts/Template/Istanbul10/data/RouterData.sol:RouterData",
						"label": "veToken",
						"offset": 0,
						"slot": "3",
						"type": "t_address"
					},
					{
						"astId": 898,
						"contract": "contracts/Template/Istanbul10/data/RouterData.sol:RouterData",
						"label": "auction",
						"offset": 0,
						"slot": "4",
						"type": "t_address"
					},
					{
						"astId": 901,
						"contract": "contracts/Template/Istanbul10/data/RouterData.sol:RouterData",
						"label": "vote",
						"offset": 0,
						"slot": "5",
						"type": "t_address"
					},
					{
						"astId": 904,
						"contract": "contracts/Template/Istanbul10/data/RouterData.sol:RouterData",
						"label": "division",
						"offset": 0,
						"slot": "6",
						"type": "t_address"
					},
					{
						"astId": 907,
						"contract": "contracts/Template/Istanbul10/data/RouterData.sol:RouterData",
						"label": "curator",
						"offset": 0,
						"slot": "7",
						"type": "t_address"
					},
					{
						"astId": 912,
						"contract": "contracts/Template/Istanbul10/data/RouterData.sol:RouterData",
						"label": "whiteList",
						"offset": 0,
						"slot": "8",
						"type": "t_mapping(t_address,t_bool)"
					},
					{
						"astId": 915,
						"contract": "contracts/Template/Istanbul10/data/RouterData.sol:RouterData",
						"label": "initializer",
						"offset": 0,
						"slot": "9",
						"type": "t_bool"
					},
					{
						"astId": 918,
						"contract": "contracts/Template/Istanbul10/data/RouterData.sol:RouterData",
						"label": "open",
						"offset": 1,
						"slot": "9",
						"type": "t_bool"
					},
					{
						"astId": 921,
						"contract": "contracts/Template/Istanbul10/data/RouterData.sol:RouterData",
						"label": "DaoName",
						"offset": 0,
						"slot": "10",
						"type": "t_string_storage"
					},
					{
						"astId": 924,
						"contract": "contracts/Template/Istanbul10/data/RouterData.sol:RouterData",
						"label": "lastClaimed",
						"offset": 0,
						"slot": "11",
						"type": "t_uint256"
					},
					{
						"astId": 927,
						"contract": "contracts/Template/Istanbul10/data/RouterData.sol:RouterData",
						"label": "reserveRatio",
						"offset": 0,
						"slot": "12",
						"type": "t_uint256"
					},
					{
						"astId": 930,
						"contract": "contracts/Template/Istanbul10/data/RouterData.sol:RouterData",
						"label": "reserveAmount",
						"offset": 0,
						"slot": "13",
						"type": "t_uint256"
					},
					{
						"astId": 933,
						"contract": "contracts/Template/Istanbul10/data/RouterData.sol:RouterData",
						"label": "supply",
						"offset": 0,
						"slot": "14",
						"type": "t_uint256"
					},
					{
						"astId": 936,
						"contract": "contracts/Template/Istanbul10/data/RouterData.sol:RouterData",
						"label": "fee",
						"offset": 0,
						"slot": "15",
						"type": "t_uint256"
					},
					{
						"astId": 939,
						"contract": "contracts/Template/Istanbul10/data/RouterData.sol:RouterData",
						"label": "cashDivision",
						"offset": 0,
						"slot": "16",
						"type": "t_uint256"
					},
					{
						"astId": 942,
						"contract": "contracts/Template/Istanbul10/data/RouterData.sol:RouterData",
						"label": "cashVetoken",
						"offset": 0,
						"slot": "17",
						"type": "t_uint256"
					}
				],
				"types": {
					"t_address": {
						"encoding": "inplace",
						"label": "address",
						"numberOfBytes": "20"
					},
					"t_bool": {
						"encoding": "inplace",
						"label": "bool",
						"numberOfBytes": "1"
					},
					"t_mapping(t_address,t_bool)": {
						"encoding": "mapping",
						"key": "t_address",
						"label": "mapping(address => bool)",
						"numberOfBytes": "32",
						"value": "t_bool"
					},
					"t_string_storage": {
						"encoding": "bytes",
						"label": "string",
						"numberOfBytes": "32"
					},
					"t_uint256": {
						"encoding": "inplace",
						"label": "uint256",
						"numberOfBytes": "32"
					}
				}
			},
			"userdoc": {
				"kind": "user",
				"methods": {},
				"version": 1
			}
		}
	}
}