{
	"contracts/Template/Istanbul10/data/VoteData.sol": {
		"VoteData": {
			"abi": [
				{
					"inputs": [],
					"name": "bufferTime",
					"outputs": [
						{
							"internalType": "uint256",
							"name": "",
							"type": "uint256"
						}
					],
					"stateMutability": "view",
					"type": "function"
				},
				{
					"inputs": [
						{
							"internalType": "uint256",
							"name": "",
							"type": "uint256"
						}
					],
					"name": "executeQueue",
					"outputs": [
						{
							"internalType": "uint256",
							"name": "",
							"type": "uint256"
						}
					],
					"stateMutability": "view",
					"type": "function"
				},
				{
					"inputs": [
						{
							"internalType": "uint256",
							"name": "",
							"type": "uint256"
						}
					],
					"name": "executeQueueMap",
					"outputs": [
						{
							"internalType": "bool",
							"name": "",
							"type": "bool"
						}
					],
					"stateMutability": "view",
					"type": "function"
				},
				{
					"inputs": [],
					"name": "minimumQuantity",
					"outputs": [
						{
							"internalType": "uint256",
							"name": "",
							"type": "uint256"
						}
					],
					"stateMutability": "view",
					"type": "function"
				},
				{
					"inputs": [],
					"name": "router",
					"outputs": [
						{
							"internalType": "address",
							"name": "",
							"type": "address"
						}
					],
					"stateMutability": "view",
					"type": "function"
				},
				{
					"inputs": [],
					"name": "templateTotal",
					"outputs": [
						{
							"internalType": "uint256",
							"name": "",
							"type": "uint256"
						}
					],
					"stateMutability": "view",
					"type": "function"
				},
				{
					"inputs": [],
					"name": "veToken",
					"outputs": [
						{
							"internalType": "contract VeTokenTest",
							"name": "",
							"type": "address"
						}
					],
					"stateMutability": "view",
					"type": "function"
				},
				{
					"inputs": [],
					"name": "voteTatola",
					"outputs": [
						{
							"internalType": "uint256",
							"name": "",
							"type": "uint256"
						}
					],
					"stateMutability": "view",
					"type": "function"
				},
				{
					"inputs": [],
					"name": "voteTime",
					"outputs": [
						{
							"internalType": "uint256",
							"name": "",
							"type": "uint256"
						}
					],
					"stateMutability": "view",
					"type": "function"
				}
			],
			"devdoc": {
				"kind": "dev",
				"methods": {},
				"version": 1
			},
			"evm": {
				"assembly": "    /* \"contracts/Template/Istanbul10/data/VoteData.sol\":100:1868  contract VoteData{ ... */\n  mstore(0x40, 0x80)\n    /* \"contracts/Template/Istanbul10/data/VoteData.sol\":307:316  1 minutes */\n  0x3c\n    /* \"contracts/Template/Istanbul10/data/VoteData.sol\":280:316  uint256 public  voteTime = 1 minutes */\n  0x00\n  sstore\n    /* \"contracts/Template/Istanbul10/data/VoteData.sol\":393:402  1 minutes */\n  0x3c\n    /* \"contracts/Template/Istanbul10/data/VoteData.sol\":365:402  uint256 public bufferTime = 1 minutes */\n  0x01\n  sstore\n    /* \"contracts/Template/Istanbul10/data/VoteData.sol\":767:768  5 */\n  0x05\n    /* \"contracts/Template/Istanbul10/data/VoteData.sol\":733:768  uint256  public minimumQuantity = 5 */\n  0x0a\n  sstore\n    /* \"contracts/Template/Istanbul10/data/VoteData.sol\":100:1868  contract VoteData{ ... */\n  callvalue\n  dup1\n  iszero\n  tag_1\n  jumpi\n  0x00\n  dup1\n  revert\ntag_1:\n  pop\n  dataSize(sub_0)\n  dup1\n  dataOffset(sub_0)\n  0x00\n  codecopy\n  0x00\n  return\nstop\n\nsub_0: assembly {\n        /* \"contracts/Template/Istanbul10/data/VoteData.sol\":100:1868  contract VoteData{ ... */\n      mstore(0x40, 0x80)\n      callvalue\n      dup1\n      iszero\n      tag_1\n      jumpi\n      0x00\n      dup1\n      revert\n    tag_1:\n      pop\n      jumpi(tag_2, lt(calldatasize, 0x04))\n      shr(0xe0, calldataload(0x00))\n      dup1\n      0x5a42007f\n      gt\n      tag_12\n      jumpi\n      dup1\n      0x5a42007f\n      eq\n      tag_7\n      jumpi\n      dup1\n      0x75bb5b09\n      eq\n      tag_8\n      jumpi\n      dup1\n      0xba7b6703\n      eq\n      tag_9\n      jumpi\n      dup1\n      0xbcf93dd6\n      eq\n      tag_10\n      jumpi\n      dup1\n      0xf887ea40\n      eq\n      tag_11\n      jumpi\n      jump(tag_2)\n    tag_12:\n      dup1\n      0x1d75ddcc\n      eq\n      tag_3\n      jumpi\n      dup1\n      0x2c9e3ef0\n      eq\n      tag_4\n      jumpi\n      dup1\n      0x3b92eb23\n      eq\n      tag_5\n      jumpi\n      dup1\n      0x52538550\n      eq\n      tag_6\n      jumpi\n    tag_2:\n      0x00\n      dup1\n      revert\n        /* \"contracts/Template/Istanbul10/data/VoteData.sol\":733:768  uint256  public minimumQuantity = 5 */\n    tag_3:\n      tag_13\n      tag_14\n      jump\t// in\n    tag_13:\n      mload(0x40)\n      tag_15\n      swap2\n      swap1\n      tag_16\n      jump\t// in\n    tag_15:\n      mload(0x40)\n      dup1\n      swap2\n      sub\n      swap1\n      return\n        /* \"contracts/Template/Istanbul10/data/VoteData.sol\":679:726  mapping(uint256 => bool) public executeQueueMap */\n    tag_4:\n      tag_17\n      0x04\n      dup1\n      calldatasize\n      sub\n      dup2\n      add\n      swap1\n      tag_18\n      swap2\n      swap1\n      tag_19\n      jump\t// in\n    tag_18:\n      tag_20\n      jump\t// in\n    tag_17:\n      mload(0x40)\n      tag_21\n      swap2\n      swap1\n      tag_22\n      jump\t// in\n    tag_21:\n      mload(0x40)\n      dup1\n      swap2\n      sub\n      swap1\n      return\n        /* \"contracts/Template/Istanbul10/data/VoteData.sol\":443:469  VeTokenTest public veToken */\n    tag_5:\n      tag_23\n      tag_24\n      jump\t// in\n    tag_23:\n      mload(0x40)\n      tag_25\n      swap2\n      swap1\n      tag_26\n      jump\t// in\n    tag_25:\n      mload(0x40)\n      dup1\n      swap2\n      sub\n      swap1\n      return\n        /* \"contracts/Template/Istanbul10/data/VoteData.sol\":505:535  uint256[] public  executeQueue */\n    tag_6:\n      tag_27\n      0x04\n      dup1\n      calldatasize\n      sub\n      dup2\n      add\n      swap1\n      tag_28\n      swap2\n      swap1\n      tag_19\n      jump\t// in\n    tag_28:\n      tag_29\n      jump\t// in\n    tag_27:\n      mload(0x40)\n      tag_30\n      swap2\n      swap1\n      tag_16\n      jump\t// in\n    tag_30:\n      mload(0x40)\n      dup1\n      swap2\n      sub\n      swap1\n      return\n        /* \"contracts/Template/Istanbul10/data/VoteData.sol\":542:572  uint256  public  templateTotal */\n    tag_7:\n      tag_31\n      tag_32\n      jump\t// in\n    tag_31:\n      mload(0x40)\n      tag_33\n      swap2\n      swap1\n      tag_16\n      jump\t// in\n    tag_33:\n      mload(0x40)\n      dup1\n      swap2\n      sub\n      swap1\n      return\n        /* \"contracts/Template/Istanbul10/data/VoteData.sol\":476:498  uint public voteTatola */\n    tag_8:\n      tag_34\n      tag_35\n      jump\t// in\n    tag_34:\n      mload(0x40)\n      tag_36\n      swap2\n      swap1\n      tag_16\n      jump\t// in\n    tag_36:\n      mload(0x40)\n      dup1\n      swap2\n      sub\n      swap1\n      return\n        /* \"contracts/Template/Istanbul10/data/VoteData.sol\":365:402  uint256 public bufferTime = 1 minutes */\n    tag_9:\n      tag_37\n      tag_38\n      jump\t// in\n    tag_37:\n      mload(0x40)\n      tag_39\n      swap2\n      swap1\n      tag_16\n      jump\t// in\n    tag_39:\n      mload(0x40)\n      dup1\n      swap2\n      sub\n      swap1\n      return\n        /* \"contracts/Template/Istanbul10/data/VoteData.sol\":280:316  uint256 public  voteTime = 1 minutes */\n    tag_10:\n      tag_40\n      tag_41\n      jump\t// in\n    tag_40:\n      mload(0x40)\n      tag_42\n      swap2\n      swap1\n      tag_16\n      jump\t// in\n    tag_42:\n      mload(0x40)\n      dup1\n      swap2\n      sub\n      swap1\n      return\n        /* \"contracts/Template/Istanbul10/data/VoteData.sol\":415:436  address public router */\n    tag_11:\n      tag_43\n      tag_44\n      jump\t// in\n    tag_43:\n      mload(0x40)\n      tag_45\n      swap2\n      swap1\n      tag_46\n      jump\t// in\n    tag_45:\n      mload(0x40)\n      dup1\n      swap2\n      sub\n      swap1\n      return\n        /* \"contracts/Template/Istanbul10/data/VoteData.sol\":733:768  uint256  public minimumQuantity = 5 */\n    tag_14:\n      sload(0x0a)\n      dup2\n      jump\t// out\n        /* \"contracts/Template/Istanbul10/data/VoteData.sol\":679:726  mapping(uint256 => bool) public executeQueueMap */\n    tag_20:\n      mstore(0x20, 0x09)\n      dup1\n      0x00\n      mstore\n      keccak256(0x00, 0x40)\n      0x00\n      swap2\n      pop\n      sload\n      swap1\n      0x0100\n      exp\n      swap1\n      div\n      0xff\n      and\n      dup2\n      jump\t// out\n        /* \"contracts/Template/Istanbul10/data/VoteData.sol\":443:469  VeTokenTest public veToken */\n    tag_24:\n      0x03\n      0x00\n      swap1\n      sload\n      swap1\n      0x0100\n      exp\n      swap1\n      div\n      0xffffffffffffffffffffffffffffffffffffffff\n      and\n      dup2\n      jump\t// out\n        /* \"contracts/Template/Istanbul10/data/VoteData.sol\":505:535  uint256[] public  executeQueue */\n    tag_29:\n      0x05\n      dup2\n      dup2\n      sload\n      dup2\n      lt\n      tag_47\n      jumpi\n      0x00\n      dup1\n      revert\n    tag_47:\n      swap1\n      0x00\n      mstore\n      keccak256(0x00, 0x20)\n      add\n      0x00\n      swap2\n      pop\n      swap1\n      pop\n      sload\n      dup2\n      jump\t// out\n        /* \"contracts/Template/Istanbul10/data/VoteData.sol\":542:572  uint256  public  templateTotal */\n    tag_32:\n      sload(0x06)\n      dup2\n      jump\t// out\n        /* \"contracts/Template/Istanbul10/data/VoteData.sol\":476:498  uint public voteTatola */\n    tag_35:\n      sload(0x04)\n      dup2\n      jump\t// out\n        /* \"contracts/Template/Istanbul10/data/VoteData.sol\":365:402  uint256 public bufferTime = 1 minutes */\n    tag_38:\n      sload(0x01)\n      dup2\n      jump\t// out\n        /* \"contracts/Template/Istanbul10/data/VoteData.sol\":280:316  uint256 public  voteTime = 1 minutes */\n    tag_41:\n      sload(0x00)\n      dup2\n      jump\t// out\n        /* \"contracts/Template/Istanbul10/data/VoteData.sol\":415:436  address public router */\n    tag_44:\n      0x02\n      0x00\n      swap1\n      sload\n      swap1\n      0x0100\n      exp\n      swap1\n      div\n      0xffffffffffffffffffffffffffffffffffffffff\n      and\n      dup2\n      jump\t// out\n        /* \"#utility.yul\":7:84   */\n    tag_49:\n        /* \"#utility.yul\":44:51   */\n      0x00\n        /* \"#utility.yul\":73:78   */\n      dup2\n        /* \"#utility.yul\":62:78   */\n      swap1\n      pop\n        /* \"#utility.yul\":7:84   */\n      swap2\n      swap1\n      pop\n      jump\t// out\n        /* \"#utility.yul\":90:208   */\n    tag_50:\n        /* \"#utility.yul\":177:201   */\n      tag_69\n        /* \"#utility.yul\":195:200   */\n      dup2\n        /* \"#utility.yul\":177:201   */\n      tag_49\n      jump\t// in\n    tag_69:\n        /* \"#utility.yul\":172:175   */\n      dup3\n        /* \"#utility.yul\":165:202   */\n      mstore\n        /* \"#utility.yul\":90:208   */\n      pop\n      pop\n      jump\t// out\n        /* \"#utility.yul\":214:436   */\n    tag_16:\n        /* \"#utility.yul\":307:311   */\n      0x00\n        /* \"#utility.yul\":345:347   */\n      0x20\n        /* \"#utility.yul\":334:343   */\n      dup3\n        /* \"#utility.yul\":330:348   */\n      add\n        /* \"#utility.yul\":322:348   */\n      swap1\n      pop\n        /* \"#utility.yul\":358:429   */\n      tag_71\n        /* \"#utility.yul\":426:427   */\n      0x00\n        /* \"#utility.yul\":415:424   */\n      dup4\n        /* \"#utility.yul\":411:428   */\n      add\n        /* \"#utility.yul\":402:408   */\n      dup5\n        /* \"#utility.yul\":358:429   */\n      tag_50\n      jump\t// in\n    tag_71:\n        /* \"#utility.yul\":214:436   */\n      swap3\n      swap2\n      pop\n      pop\n      jump\t// out\n        /* \"#utility.yul\":523:640   */\n    tag_52:\n        /* \"#utility.yul\":632:633   */\n      0x00\n        /* \"#utility.yul\":629:630   */\n      dup1\n        /* \"#utility.yul\":622:634   */\n      revert\n        /* \"#utility.yul\":769:891   */\n    tag_54:\n        /* \"#utility.yul\":842:866   */\n      tag_76\n        /* \"#utility.yul\":860:865   */\n      dup2\n        /* \"#utility.yul\":842:866   */\n      tag_49\n      jump\t// in\n    tag_76:\n        /* \"#utility.yul\":835:840   */\n      dup2\n        /* \"#utility.yul\":832:867   */\n      eq\n        /* \"#utility.yul\":822:885   */\n      tag_77\n      jumpi\n        /* \"#utility.yul\":881:882   */\n      0x00\n        /* \"#utility.yul\":878:879   */\n      dup1\n        /* \"#utility.yul\":871:883   */\n      revert\n        /* \"#utility.yul\":822:885   */\n    tag_77:\n        /* \"#utility.yul\":769:891   */\n      pop\n      jump\t// out\n        /* \"#utility.yul\":897:1036   */\n    tag_55:\n        /* \"#utility.yul\":943:948   */\n      0x00\n        /* \"#utility.yul\":981:987   */\n      dup2\n        /* \"#utility.yul\":968:988   */\n      calldataload\n        /* \"#utility.yul\":959:988   */\n      swap1\n      pop\n        /* \"#utility.yul\":997:1030   */\n      tag_79\n        /* \"#utility.yul\":1024:1029   */\n      dup2\n        /* \"#utility.yul\":997:1030   */\n      tag_54\n      jump\t// in\n    tag_79:\n        /* \"#utility.yul\":897:1036   */\n      swap3\n      swap2\n      pop\n      pop\n      jump\t// out\n        /* \"#utility.yul\":1042:1371   */\n    tag_19:\n        /* \"#utility.yul\":1101:1107   */\n      0x00\n        /* \"#utility.yul\":1150:1152   */\n      0x20\n        /* \"#utility.yul\":1138:1147   */\n      dup3\n        /* \"#utility.yul\":1129:1136   */\n      dup5\n        /* \"#utility.yul\":1125:1148   */\n      sub\n        /* \"#utility.yul\":1121:1153   */\n      slt\n        /* \"#utility.yul\":1118:1237   */\n      iszero\n      tag_81\n      jumpi\n        /* \"#utility.yul\":1156:1235   */\n      tag_82\n      tag_52\n      jump\t// in\n    tag_82:\n        /* \"#utility.yul\":1118:1237   */\n    tag_81:\n        /* \"#utility.yul\":1276:1277   */\n      0x00\n        /* \"#utility.yul\":1301:1354   */\n      tag_83\n        /* \"#utility.yul\":1346:1353   */\n      dup5\n        /* \"#utility.yul\":1337:1343   */\n      dup3\n        /* \"#utility.yul\":1326:1335   */\n      dup6\n        /* \"#utility.yul\":1322:1344   */\n      add\n        /* \"#utility.yul\":1301:1354   */\n      tag_55\n      jump\t// in\n    tag_83:\n        /* \"#utility.yul\":1291:1354   */\n      swap2\n      pop\n        /* \"#utility.yul\":1247:1364   */\n      pop\n        /* \"#utility.yul\":1042:1371   */\n      swap3\n      swap2\n      pop\n      pop\n      jump\t// out\n        /* \"#utility.yul\":1377:1467   */\n    tag_56:\n        /* \"#utility.yul\":1411:1418   */\n      0x00\n        /* \"#utility.yul\":1454:1459   */\n      dup2\n        /* \"#utility.yul\":1447:1460   */\n      iszero\n        /* \"#utility.yul\":1440:1461   */\n      iszero\n        /* \"#utility.yul\":1429:1461   */\n      swap1\n      pop\n        /* \"#utility.yul\":1377:1467   */\n      swap2\n      swap1\n      pop\n      jump\t// out\n        /* \"#utility.yul\":1473:1582   */\n    tag_57:\n        /* \"#utility.yul\":1554:1575   */\n      tag_86\n        /* \"#utility.yul\":1569:1574   */\n      dup2\n        /* \"#utility.yul\":1554:1575   */\n      tag_56\n      jump\t// in\n    tag_86:\n        /* \"#utility.yul\":1549:1552   */\n      dup3\n        /* \"#utility.yul\":1542:1576   */\n      mstore\n        /* \"#utility.yul\":1473:1582   */\n      pop\n      pop\n      jump\t// out\n        /* \"#utility.yul\":1588:1798   */\n    tag_22:\n        /* \"#utility.yul\":1675:1679   */\n      0x00\n        /* \"#utility.yul\":1713:1715   */\n      0x20\n        /* \"#utility.yul\":1702:1711   */\n      dup3\n        /* \"#utility.yul\":1698:1716   */\n      add\n        /* \"#utility.yul\":1690:1716   */\n      swap1\n      pop\n        /* \"#utility.yul\":1726:1791   */\n      tag_88\n        /* \"#utility.yul\":1788:1789   */\n      0x00\n        /* \"#utility.yul\":1777:1786   */\n      dup4\n        /* \"#utility.yul\":1773:1790   */\n      add\n        /* \"#utility.yul\":1764:1770   */\n      dup5\n        /* \"#utility.yul\":1726:1791   */\n      tag_57\n      jump\t// in\n    tag_88:\n        /* \"#utility.yul\":1588:1798   */\n      swap3\n      swap2\n      pop\n      pop\n      jump\t// out\n        /* \"#utility.yul\":1804:1930   */\n    tag_58:\n        /* \"#utility.yul\":1841:1848   */\n      0x00\n        /* \"#utility.yul\":1881:1923   */\n      0xffffffffffffffffffffffffffffffffffffffff\n        /* \"#utility.yul\":1874:1879   */\n      dup3\n        /* \"#utility.yul\":1870:1924   */\n      and\n        /* \"#utility.yul\":1859:1924   */\n      swap1\n      pop\n        /* \"#utility.yul\":1804:1930   */\n      swap2\n      swap1\n      pop\n      jump\t// out\n        /* \"#utility.yul\":1936:1996   */\n    tag_59:\n        /* \"#utility.yul\":1964:1967   */\n      0x00\n        /* \"#utility.yul\":1985:1990   */\n      dup2\n        /* \"#utility.yul\":1978:1990   */\n      swap1\n      pop\n        /* \"#utility.yul\":1936:1996   */\n      swap2\n      swap1\n      pop\n      jump\t// out\n        /* \"#utility.yul\":2002:2144   */\n    tag_60:\n        /* \"#utility.yul\":2052:2061   */\n      0x00\n        /* \"#utility.yul\":2085:2138   */\n      tag_92\n        /* \"#utility.yul\":2103:2137   */\n      tag_93\n        /* \"#utility.yul\":2112:2136   */\n      tag_94\n        /* \"#utility.yul\":2130:2135   */\n      dup5\n        /* \"#utility.yul\":2112:2136   */\n      tag_58\n      jump\t// in\n    tag_94:\n        /* \"#utility.yul\":2103:2137   */\n      tag_59\n      jump\t// in\n    tag_93:\n        /* \"#utility.yul\":2085:2138   */\n      tag_58\n      jump\t// in\n    tag_92:\n        /* \"#utility.yul\":2072:2138   */\n      swap1\n      pop\n        /* \"#utility.yul\":2002:2144   */\n      swap2\n      swap1\n      pop\n      jump\t// out\n        /* \"#utility.yul\":2150:2276   */\n    tag_61:\n        /* \"#utility.yul\":2200:2209   */\n      0x00\n        /* \"#utility.yul\":2233:2270   */\n      tag_96\n        /* \"#utility.yul\":2264:2269   */\n      dup3\n        /* \"#utility.yul\":2233:2270   */\n      tag_60\n      jump\t// in\n    tag_96:\n        /* \"#utility.yul\":2220:2270   */\n      swap1\n      pop\n        /* \"#utility.yul\":2150:2276   */\n      swap2\n      swap1\n      pop\n      jump\t// out\n        /* \"#utility.yul\":2282:2428   */\n    tag_62:\n        /* \"#utility.yul\":2352:2361   */\n      0x00\n        /* \"#utility.yul\":2385:2422   */\n      tag_98\n        /* \"#utility.yul\":2416:2421   */\n      dup3\n        /* \"#utility.yul\":2385:2422   */\n      tag_61\n      jump\t// in\n    tag_98:\n        /* \"#utility.yul\":2372:2422   */\n      swap1\n      pop\n        /* \"#utility.yul\":2282:2428   */\n      swap2\n      swap1\n      pop\n      jump\t// out\n        /* \"#utility.yul\":2434:2605   */\n    tag_63:\n        /* \"#utility.yul\":2541:2598   */\n      tag_100\n        /* \"#utility.yul\":2592:2597   */\n      dup2\n        /* \"#utility.yul\":2541:2598   */\n      tag_62\n      jump\t// in\n    tag_100:\n        /* \"#utility.yul\":2536:2539   */\n      dup3\n        /* \"#utility.yul\":2529:2599   */\n      mstore\n        /* \"#utility.yul\":2434:2605   */\n      pop\n      pop\n      jump\t// out\n        /* \"#utility.yul\":2611:2873   */\n    tag_26:\n        /* \"#utility.yul\":2724:2728   */\n      0x00\n        /* \"#utility.yul\":2762:2764   */\n      0x20\n        /* \"#utility.yul\":2751:2760   */\n      dup3\n        /* \"#utility.yul\":2747:2765   */\n      add\n        /* \"#utility.yul\":2739:2765   */\n      swap1\n      pop\n        /* \"#utility.yul\":2775:2866   */\n      tag_102\n        /* \"#utility.yul\":2863:2864   */\n      0x00\n        /* \"#utility.yul\":2852:2861   */\n      dup4\n        /* \"#utility.yul\":2848:2865   */\n      add\n        /* \"#utility.yul\":2839:2845   */\n      dup5\n        /* \"#utility.yul\":2775:2866   */\n      tag_63\n      jump\t// in\n    tag_102:\n        /* \"#utility.yul\":2611:2873   */\n      swap3\n      swap2\n      pop\n      pop\n      jump\t// out\n        /* \"#utility.yul\":2879:2975   */\n    tag_64:\n        /* \"#utility.yul\":2916:2923   */\n      0x00\n        /* \"#utility.yul\":2945:2969   */\n      tag_104\n        /* \"#utility.yul\":2963:2968   */\n      dup3\n        /* \"#utility.yul\":2945:2969   */\n      tag_58\n      jump\t// in\n    tag_104:\n        /* \"#utility.yul\":2934:2969   */\n      swap1\n      pop\n        /* \"#utility.yul\":2879:2975   */\n      swap2\n      swap1\n      pop\n      jump\t// out\n        /* \"#utility.yul\":2981:3099   */\n    tag_65:\n        /* \"#utility.yul\":3068:3092   */\n      tag_106\n        /* \"#utility.yul\":3086:3091   */\n      dup2\n        /* \"#utility.yul\":3068:3092   */\n      tag_64\n      jump\t// in\n    tag_106:\n        /* \"#utility.yul\":3063:3066   */\n      dup3\n        /* \"#utility.yul\":3056:3093   */\n      mstore\n        /* \"#utility.yul\":2981:3099   */\n      pop\n      pop\n      jump\t// out\n        /* \"#utility.yul\":3105:3327   */\n    tag_46:\n        /* \"#utility.yul\":3198:3202   */\n      0x00\n        /* \"#utility.yul\":3236:3238   */\n      0x20\n        /* \"#utility.yul\":3225:3234   */\n      dup3\n        /* \"#utility.yul\":3221:3239   */\n      add\n        /* \"#utility.yul\":3213:3239   */\n      swap1\n      pop\n        /* \"#utility.yul\":3249:3320   */\n      tag_108\n        /* \"#utility.yul\":3317:3318   */\n      0x00\n        /* \"#utility.yul\":3306:3315   */\n      dup4\n        /* \"#utility.yul\":3302:3319   */\n      add\n        /* \"#utility.yul\":3293:3299   */\n      dup5\n        /* \"#utility.yul\":3249:3320   */\n      tag_65\n      jump\t// in\n    tag_108:\n        /* \"#utility.yul\":3105:3327   */\n      swap3\n      swap2\n      pop\n      pop\n      jump\t// out\n\n    auxdata: 0xa2646970667358221220363aa5a80be14af1a9481aa087759a0009b40c22a47c27d0b6f0c68eb9d14a0c64736f6c634300080a0033\n}\n",
				"bytecode": {
					"linkReferences": {},
					"object": "6080604052603c600055603c6001556005600a5534801561001f57600080fd5b5061044c8061002f6000396000f3fe608060405234801561001057600080fd5b50600436106100935760003560e01c80635a42007f116100665780635a42007f1461013457806375bb5b0914610152578063ba7b670314610170578063bcf93dd61461018e578063f887ea40146101ac57610093565b80631d75ddcc146100985780632c9e3ef0146100b65780633b92eb23146100e65780635253855014610104575b600080fd5b6100a06101ca565b6040516100ad9190610291565b60405180910390f35b6100d060048036038101906100cb91906102dd565b6101d0565b6040516100dd9190610325565b60405180910390f35b6100ee6101f0565b6040516100fb91906103bf565b60405180910390f35b61011e600480360381019061011991906102dd565b610216565b60405161012b9190610291565b60405180910390f35b61013c61023a565b6040516101499190610291565b60405180910390f35b61015a610240565b6040516101679190610291565b60405180910390f35b610178610246565b6040516101859190610291565b60405180910390f35b61019661024c565b6040516101a39190610291565b60405180910390f35b6101b4610252565b6040516101c191906103fb565b60405180910390f35b600a5481565b60096020528060005260406000206000915054906101000a900460ff1681565b600360009054906101000a900473ffffffffffffffffffffffffffffffffffffffff1681565b6005818154811061022657600080fd5b906000526020600020016000915090505481565b60065481565b60045481565b60015481565b60005481565b600260009054906101000a900473ffffffffffffffffffffffffffffffffffffffff1681565b6000819050919050565b61028b81610278565b82525050565b60006020820190506102a66000830184610282565b92915050565b600080fd5b6102ba81610278565b81146102c557600080fd5b50565b6000813590506102d7816102b1565b92915050565b6000602082840312156102f3576102f26102ac565b5b6000610301848285016102c8565b91505092915050565b60008115159050919050565b61031f8161030a565b82525050565b600060208201905061033a6000830184610316565b92915050565b600073ffffffffffffffffffffffffffffffffffffffff82169050919050565b6000819050919050565b600061038561038061037b84610340565b610360565b610340565b9050919050565b60006103978261036a565b9050919050565b60006103a98261038c565b9050919050565b6103b98161039e565b82525050565b60006020820190506103d460008301846103b0565b92915050565b60006103e582610340565b9050919050565b6103f5816103da565b82525050565b600060208201905061041060008301846103ec565b9291505056fea2646970667358221220363aa5a80be14af1a9481aa087759a0009b40c22a47c27d0b6f0c68eb9d14a0c64736f6c634300080a0033",
					"opcodes": "PUSH1 0x80 PUSH1 0x40 MSTORE PUSH1 0x3C PUSH1 0x0 SSTORE PUSH1 0x3C PUSH1 0x1 SSTORE PUSH1 0x5 PUSH1 0xA SSTORE CALLVALUE DUP1 ISZERO PUSH2 0x1F JUMPI PUSH1 0x0 DUP1 REVERT JUMPDEST POP PUSH2 0x44C DUP1 PUSH2 0x2F PUSH1 0x0 CODECOPY PUSH1 0x0 RETURN INVALID PUSH1 0x80 PUSH1 0x40 MSTORE CALLVALUE DUP1 ISZERO PUSH2 0x10 JUMPI PUSH1 0x0 DUP1 REVERT JUMPDEST POP PUSH1 0x4 CALLDATASIZE LT PUSH2 0x93 JUMPI PUSH1 0x0 CALLDATALOAD PUSH1 0xE0 SHR DUP1 PUSH4 0x5A42007F GT PUSH2 0x66 JUMPI DUP1 PUSH4 0x5A42007F EQ PUSH2 0x134 JUMPI DUP1 PUSH4 0x75BB5B09 EQ PUSH2 0x152 JUMPI DUP1 PUSH4 0xBA7B6703 EQ PUSH2 0x170 JUMPI DUP1 PUSH4 0xBCF93DD6 EQ PUSH2 0x18E JUMPI DUP1 PUSH4 0xF887EA40 EQ PUSH2 0x1AC JUMPI PUSH2 0x93 JUMP JUMPDEST DUP1 PUSH4 0x1D75DDCC EQ PUSH2 0x98 JUMPI DUP1 PUSH4 0x2C9E3EF0 EQ PUSH2 0xB6 JUMPI DUP1 PUSH4 0x3B92EB23 EQ PUSH2 0xE6 JUMPI DUP1 PUSH4 0x52538550 EQ PUSH2 0x104 JUMPI JUMPDEST PUSH1 0x0 DUP1 REVERT JUMPDEST PUSH2 0xA0 PUSH2 0x1CA JUMP JUMPDEST PUSH1 0x40 MLOAD PUSH2 0xAD SWAP2 SWAP1 PUSH2 0x291 JUMP JUMPDEST PUSH1 0x40 MLOAD DUP1 SWAP2 SUB SWAP1 RETURN JUMPDEST PUSH2 0xD0 PUSH1 0x4 DUP1 CALLDATASIZE SUB DUP2 ADD SWAP1 PUSH2 0xCB SWAP2 SWAP1 PUSH2 0x2DD JUMP JUMPDEST PUSH2 0x1D0 JUMP JUMPDEST PUSH1 0x40 MLOAD PUSH2 0xDD SWAP2 SWAP1 PUSH2 0x325 JUMP JUMPDEST PUSH1 0x40 MLOAD DUP1 SWAP2 SUB SWAP1 RETURN JUMPDEST PUSH2 0xEE PUSH2 0x1F0 JUMP JUMPDEST PUSH1 0x40 MLOAD PUSH2 0xFB SWAP2 SWAP1 PUSH2 0x3BF JUMP JUMPDEST PUSH1 0x40 MLOAD DUP1 SWAP2 SUB SWAP1 RETURN JUMPDEST PUSH2 0x11E PUSH1 0x4 DUP1 CALLDATASIZE SUB DUP2 ADD SWAP1 PUSH2 0x119 SWAP2 SWAP1 PUSH2 0x2DD JUMP JUMPDEST PUSH2 0x216 JUMP JUMPDEST PUSH1 0x40 MLOAD PUSH2 0x12B SWAP2 SWAP1 PUSH2 0x291 JUMP JUMPDEST PUSH1 0x40 MLOAD DUP1 SWAP2 SUB SWAP1 RETURN JUMPDEST PUSH2 0x13C PUSH2 0x23A JUMP JUMPDEST PUSH1 0x40 MLOAD PUSH2 0x149 SWAP2 SWAP1 PUSH2 0x291 JUMP JUMPDEST PUSH1 0x40 MLOAD DUP1 SWAP2 SUB SWAP1 RETURN JUMPDEST PUSH2 0x15A PUSH2 0x240 JUMP JUMPDEST PUSH1 0x40 MLOAD PUSH2 0x167 SWAP2 SWAP1 PUSH2 0x291 JUMP JUMPDEST PUSH1 0x40 MLOAD DUP1 SWAP2 SUB SWAP1 RETURN JUMPDEST PUSH2 0x178 PUSH2 0x246 JUMP JUMPDEST PUSH1 0x40 MLOAD PUSH2 0x185 SWAP2 SWAP1 PUSH2 0x291 JUMP JUMPDEST PUSH1 0x40 MLOAD DUP1 SWAP2 SUB SWAP1 RETURN JUMPDEST PUSH2 0x196 PUSH2 0x24C JUMP JUMPDEST PUSH1 0x40 MLOAD PUSH2 0x1A3 SWAP2 SWAP1 PUSH2 0x291 JUMP JUMPDEST PUSH1 0x40 MLOAD DUP1 SWAP2 SUB SWAP1 RETURN JUMPDEST PUSH2 0x1B4 PUSH2 0x252 JUMP JUMPDEST PUSH1 0x40 MLOAD PUSH2 0x1C1 SWAP2 SWAP1 PUSH2 0x3FB JUMP JUMPDEST PUSH1 0x40 MLOAD DUP1 SWAP2 SUB SWAP1 RETURN JUMPDEST PUSH1 0xA SLOAD DUP2 JUMP JUMPDEST PUSH1 0x9 PUSH1 0x20 MSTORE DUP1 PUSH1 0x0 MSTORE PUSH1 0x40 PUSH1 0x0 KECCAK256 PUSH1 0x0 SWAP2 POP SLOAD SWAP1 PUSH2 0x100 EXP SWAP1 DIV PUSH1 0xFF AND DUP2 JUMP JUMPDEST PUSH1 0x3 PUSH1 0x0 SWAP1 SLOAD SWAP1 PUSH2 0x100 EXP SWAP1 DIV PUSH20 0xFFFFFFFFFFFFFFFFFFFFFFFFFFFFFFFFFFFFFFFF AND DUP2 JUMP JUMPDEST PUSH1 0x5 DUP2 DUP2 SLOAD DUP2 LT PUSH2 0x226 JUMPI PUSH1 0x0 DUP1 REVERT JUMPDEST SWAP1 PUSH1 0x0 MSTORE PUSH1 0x20 PUSH1 0x0 KECCAK256 ADD PUSH1 0x0 SWAP2 POP SWAP1 POP SLOAD DUP2 JUMP JUMPDEST PUSH1 0x6 SLOAD DUP2 JUMP JUMPDEST PUSH1 0x4 SLOAD DUP2 JUMP JUMPDEST PUSH1 0x1 SLOAD DUP2 JUMP JUMPDEST PUSH1 0x0 SLOAD DUP2 JUMP JUMPDEST PUSH1 0x2 PUSH1 0x0 SWAP1 SLOAD SWAP1 PUSH2 0x100 EXP SWAP1 DIV PUSH20 0xFFFFFFFFFFFFFFFFFFFFFFFFFFFFFFFFFFFFFFFF AND DUP2 JUMP JUMPDEST PUSH1 0x0 DUP2 SWAP1 POP SWAP2 SWAP1 POP JUMP JUMPDEST PUSH2 0x28B DUP2 PUSH2 0x278 JUMP JUMPDEST DUP3 MSTORE POP POP JUMP JUMPDEST PUSH1 0x0 PUSH1 0x20 DUP3 ADD SWAP1 POP PUSH2 0x2A6 PUSH1 0x0 DUP4 ADD DUP5 PUSH2 0x282 JUMP JUMPDEST SWAP3 SWAP2 POP POP JUMP JUMPDEST PUSH1 0x0 DUP1 REVERT JUMPDEST PUSH2 0x2BA DUP2 PUSH2 0x278 JUMP JUMPDEST DUP2 EQ PUSH2 0x2C5 JUMPI PUSH1 0x0 DUP1 REVERT JUMPDEST POP JUMP JUMPDEST PUSH1 0x0 DUP2 CALLDATALOAD SWAP1 POP PUSH2 0x2D7 DUP2 PUSH2 0x2B1 JUMP JUMPDEST SWAP3 SWAP2 POP POP JUMP JUMPDEST PUSH1 0x0 PUSH1 0x20 DUP3 DUP5 SUB SLT ISZERO PUSH2 0x2F3 JUMPI PUSH2 0x2F2 PUSH2 0x2AC JUMP JUMPDEST JUMPDEST PUSH1 0x0 PUSH2 0x301 DUP5 DUP3 DUP6 ADD PUSH2 0x2C8 JUMP JUMPDEST SWAP2 POP POP SWAP3 SWAP2 POP POP JUMP JUMPDEST PUSH1 0x0 DUP2 ISZERO ISZERO SWAP1 POP SWAP2 SWAP1 POP JUMP JUMPDEST PUSH2 0x31F DUP2 PUSH2 0x30A JUMP JUMPDEST DUP3 MSTORE POP POP JUMP JUMPDEST PUSH1 0x0 PUSH1 0x20 DUP3 ADD SWAP1 POP PUSH2 0x33A PUSH1 0x0 DUP4 ADD DUP5 PUSH2 0x316 JUMP JUMPDEST SWAP3 SWAP2 POP POP JUMP JUMPDEST PUSH1 0x0 PUSH20 0xFFFFFFFFFFFFFFFFFFFFFFFFFFFFFFFFFFFFFFFF DUP3 AND SWAP1 POP SWAP2 SWAP1 POP JUMP JUMPDEST PUSH1 0x0 DUP2 SWAP1 POP SWAP2 SWAP1 POP JUMP JUMPDEST PUSH1 0x0 PUSH2 0x385 PUSH2 0x380 PUSH2 0x37B DUP5 PUSH2 0x340 JUMP JUMPDEST PUSH2 0x360 JUMP JUMPDEST PUSH2 0x340 JUMP JUMPDEST SWAP1 POP SWAP2 SWAP1 POP JUMP JUMPDEST PUSH1 0x0 PUSH2 0x397 DUP3 PUSH2 0x36A JUMP JUMPDEST SWAP1 POP SWAP2 SWAP1 POP JUMP JUMPDEST PUSH1 0x0 PUSH2 0x3A9 DUP3 PUSH2 0x38C JUMP JUMPDEST SWAP1 POP SWAP2 SWAP1 POP JUMP JUMPDEST PUSH2 0x3B9 DUP2 PUSH2 0x39E JUMP JUMPDEST DUP3 MSTORE POP POP JUMP JUMPDEST PUSH1 0x0 PUSH1 0x20 DUP3 ADD SWAP1 POP PUSH2 0x3D4 PUSH1 0x0 DUP4 ADD DUP5 PUSH2 0x3B0 JUMP JUMPDEST SWAP3 SWAP2 POP POP JUMP JUMPDEST PUSH1 0x0 PUSH2 0x3E5 DUP3 PUSH2 0x340 JUMP JUMPDEST SWAP1 POP SWAP2 SWAP1 POP JUMP JUMPDEST PUSH2 0x3F5 DUP2 PUSH2 0x3DA JUMP JUMPDEST DUP3 MSTORE POP POP JUMP JUMPDEST PUSH1 0x0 PUSH1 0x20 DUP3 ADD SWAP1 POP PUSH2 0x410 PUSH1 0x0 DUP4 ADD DUP5 PUSH2 0x3EC JUMP JUMPDEST SWAP3 SWAP2 POP POP JUMP INVALID LOG2 PUSH5 0x6970667358 0x22 SLT KECCAK256 CALLDATASIZE GASPRICE 0xA5 0xA8 SIGNEXTEND 0xE1 0x4A CALL 0xA9 BASEFEE BYTE LOG0 DUP8 PUSH22 0x9A0009B40C22A47C27D0B6F0C68EB9D14A0C64736F6C PUSH4 0x4300080A STOP CALLER "
				},
				"gasEstimates": {
					"creation": {
						"codeDepositCost": "220000",
						"executionCost": "66581",
						"totalCost": "286581"
					},
					"external": {
						"bufferTime()": "2473",
						"executeQueue(uint256)": "infinite",
						"executeQueueMap(uint256)": "2819",
						"minimumQuantity()": "2430",
						"router()": "2602",
						"templateTotal()": "2429",
						"veToken()": "infinite",
						"voteTatola()": "2451",
						"voteTime()": "2495"
					}
				},
				"methodIdentifiers": {
					"bufferTime()": "ba7b6703",
					"executeQueue(uint256)": "52538550",
					"executeQueueMap(uint256)": "2c9e3ef0",
					"minimumQuantity()": "1d75ddcc",
					"router()": "f887ea40",
					"templateTotal()": "5a42007f",
					"veToken()": "3b92eb23",
					"voteTatola()": "75bb5b09",
					"voteTime()": "bcf93dd6"
				}
			},
			"storageLayout": {
				"storage": [
					{
						"astId": 372,
						"contract": "contracts/Template/Istanbul10/data/VoteData.sol:VoteData",
						"label": "voteTime",
						"offset": 0,
						"slot": "0",
						"type": "t_uint256"
					},
					{
						"astId": 375,
						"contract": "contracts/Template/Istanbul10/data/VoteData.sol:VoteData",
						"label": "bufferTime",
						"offset": 0,
						"slot": "1",
						"type": "t_uint256"
					},
					{
						"astId": 377,
						"contract": "contracts/Template/Istanbul10/data/VoteData.sol:VoteData",
						"label": "router",
						"offset": 0,
						"slot": "2",
						"type": "t_address"
					},
					{
						"astId": 380,
						"contract": "contracts/Template/Istanbul10/data/VoteData.sol:VoteData",
						"label": "veToken",
						"offset": 0,
						"slot": "3",
						"type": "t_contract(VeTokenTest)1661"
					},
					{
						"astId": 382,
						"contract": "contracts/Template/Istanbul10/data/VoteData.sol:VoteData",
						"label": "voteTatola",
						"offset": 0,
						"slot": "4",
						"type": "t_uint256"
					},
					{
						"astId": 385,
						"contract": "contracts/Template/Istanbul10/data/VoteData.sol:VoteData",
						"label": "executeQueue",
						"offset": 0,
						"slot": "5",
						"type": "t_array(t_uint256)dyn_storage"
					},
					{
						"astId": 387,
						"contract": "contracts/Template/Istanbul10/data/VoteData.sol:VoteData",
						"label": "templateTotal",
						"offset": 0,
						"slot": "6",
						"type": "t_uint256"
					},
					{
						"astId": 392,
						"contract": "contracts/Template/Istanbul10/data/VoteData.sol:VoteData",
						"label": "voteMapp",
						"offset": 0,
						"slot": "7",
						"type": "t_mapping(t_uint256,t_struct(VoteStruct)436_storage)"
					},
					{
						"astId": 397,
						"contract": "contracts/Template/Istanbul10/data/VoteData.sol:VoteData",
						"label": "template",
						"offset": 0,
						"slot": "8",
						"type": "t_mapping(t_uint256,t_struct(GgovernanceTemplate)465_storage)"
					},
					{
						"astId": 401,
						"contract": "contracts/Template/Istanbul10/data/VoteData.sol:VoteData",
						"label": "executeQueueMap",
						"offset": 0,
						"slot": "9",
						"type": "t_mapping(t_uint256,t_bool)"
					},
					{
						"astId": 404,
						"contract": "contracts/Template/Istanbul10/data/VoteData.sol:VoteData",
						"label": "minimumQuantity",
						"offset": 0,
						"slot": "10",
						"type": "t_uint256"
					}
				],
				"types": {
					"t_address": {
						"encoding": "inplace",
						"label": "address",
						"numberOfBytes": "20"
					},
					"t_array(t_address)dyn_storage": {
						"base": "t_address",
						"encoding": "dynamic_array",
						"label": "address[]",
						"numberOfBytes": "32"
					},
					"t_array(t_uint256)dyn_storage": {
						"base": "t_uint256",
						"encoding": "dynamic_array",
						"label": "uint256[]",
						"numberOfBytes": "32"
					},
					"t_bool": {
						"encoding": "inplace",
						"label": "bool",
						"numberOfBytes": "1"
					},
					"t_contract(VeTokenTest)1661": {
						"encoding": "inplace",
						"label": "contract VeTokenTest",
						"numberOfBytes": "20"
					},
					"t_enum(VoteStatus)369": {
						"encoding": "inplace",
						"label": "enum VoteData.VoteStatus",
						"numberOfBytes": "1"
					},
					"t_mapping(t_address,t_struct(Delegate)456_storage)": {
						"encoding": "mapping",
						"key": "t_address",
						"label": "mapping(address => struct VoteData.Delegate)",
						"numberOfBytes": "32",
						"value": "t_struct(Delegate)456_storage"
					},
					"t_mapping(t_uint256,t_bool)": {
						"encoding": "mapping",
						"key": "t_uint256",
						"label": "mapping(uint256 => bool)",
						"numberOfBytes": "32",
						"value": "t_bool"
					},
					"t_mapping(t_uint256,t_struct(GgovernanceTemplate)465_storage)": {
						"encoding": "mapping",
						"key": "t_uint256",
						"label": "mapping(uint256 => struct VoteData.GgovernanceTemplate)",
						"numberOfBytes": "32",
						"value": "t_struct(GgovernanceTemplate)465_storage"
					},
					"t_mapping(t_uint256,t_struct(VoteStruct)436_storage)": {
						"encoding": "mapping",
						"key": "t_uint256",
						"label": "mapping(uint256 => struct VoteData.VoteStruct)",
						"numberOfBytes": "32",
						"value": "t_struct(VoteStruct)436_storage"
					},
					"t_string_storage": {
						"encoding": "bytes",
						"label": "string",
						"numberOfBytes": "32"
					},
					"t_struct(Delegate)456_storage": {
						"encoding": "inplace",
						"label": "struct VoteData.Delegate",
						"members": [
							{
								"astId": 452,
								"contract": "contracts/Template/Istanbul10/data/VoteData.sol:VoteData",
								"label": "voted",
								"offset": 0,
								"slot": "0",
								"type": "t_bool"
							},
							{
								"astId": 455,
								"contract": "contracts/Template/Istanbul10/data/VoteData.sol:VoteData",
								"label": "bailor",
								"offset": 0,
								"slot": "1",
								"type": "t_array(t_address)dyn_storage"
							}
						],
						"numberOfBytes": "64"
					},
					"t_struct(GgovernanceTemplate)465_storage": {
						"encoding": "inplace",
						"label": "struct VoteData.GgovernanceTemplate",
						"members": [
							{
								"astId": 458,
								"contract": "contracts/Template/Istanbul10/data/VoteData.sol:VoteData",
								"label": "templateId",
								"offset": 0,
								"slot": "0",
								"type": "t_uint256"
							},
							{
								"astId": 460,
								"contract": "contracts/Template/Istanbul10/data/VoteData.sol:VoteData",
								"label": "toppic",
								"offset": 0,
								"slot": "1",
								"type": "t_string_storage"
							},
							{
								"astId": 462,
								"contract": "contracts/Template/Istanbul10/data/VoteData.sol:VoteData",
								"label": "targetAddress",
								"offset": 0,
								"slot": "2",
								"type": "t_address"
							},
							{
								"astId": 464,
								"contract": "contracts/Template/Istanbul10/data/VoteData.sol:VoteData",
								"label": "functionName",
								"offset": 0,
								"slot": "3",
								"type": "t_string_storage"
							}
						],
						"numberOfBytes": "128"
					},
					"t_struct(SecondBallot)450_storage": {
						"encoding": "inplace",
						"label": "struct VoteData.SecondBallot",
						"members": [
							{
								"astId": 438,
								"contract": "contracts/Template/Istanbul10/data/VoteData.sol:VoteData",
								"label": "vetoer",
								"offset": 0,
								"slot": "0",
								"type": "t_address"
							},
							{
								"astId": 440,
								"contract": "contracts/Template/Istanbul10/data/VoteData.sol:VoteData",
								"label": "describe",
								"offset": 0,
								"slot": "1",
								"type": "t_string_storage"
							},
							{
								"astId": 442,
								"contract": "contracts/Template/Istanbul10/data/VoteData.sol:VoteData",
								"label": "supPopel",
								"offset": 0,
								"slot": "2",
								"type": "t_uint256"
							},
							{
								"astId": 444,
								"contract": "contracts/Template/Istanbul10/data/VoteData.sol:VoteData",
								"label": "againstPopel",
								"offset": 0,
								"slot": "3",
								"type": "t_uint256"
							},
							{
								"astId": 449,
								"contract": "contracts/Template/Istanbul10/data/VoteData.sol:VoteData",
								"label": "VoterAddress",
								"offset": 0,
								"slot": "4",
								"type": "t_mapping(t_address,t_struct(Delegate)456_storage)"
							}
						],
						"numberOfBytes": "160"
					},
					"t_struct(VoteStruct)436_storage": {
						"encoding": "inplace",
						"label": "struct VoteData.VoteStruct",
						"members": [
							{
								"astId": 406,
								"contract": "contracts/Template/Istanbul10/data/VoteData.sol:VoteData",
								"label": "totalsupply",
								"offset": 0,
								"slot": "0",
								"type": "t_uint256"
							},
							{
								"astId": 408,
								"contract": "contracts/Template/Istanbul10/data/VoteData.sol:VoteData",
								"label": "voteId",
								"offset": 0,
								"slot": "1",
								"type": "t_uint256"
							},
							{
								"astId": 410,
								"contract": "contracts/Template/Istanbul10/data/VoteData.sol:VoteData",
								"label": "time",
								"offset": 0,
								"slot": "2",
								"type": "t_uint256"
							},
							{
								"astId": 412,
								"contract": "contracts/Template/Istanbul10/data/VoteData.sol:VoteData",
								"label": "voteTopic",
								"offset": 0,
								"slot": "3",
								"type": "t_string_storage"
							},
							{
								"astId": 414,
								"contract": "contracts/Template/Istanbul10/data/VoteData.sol:VoteData",
								"label": "initiator",
								"offset": 0,
								"slot": "4",
								"type": "t_address"
							},
							{
								"astId": 416,
								"contract": "contracts/Template/Istanbul10/data/VoteData.sol:VoteData",
								"label": "describe",
								"offset": 0,
								"slot": "5",
								"type": "t_string_storage"
							},
							{
								"astId": 418,
								"contract": "contracts/Template/Istanbul10/data/VoteData.sol:VoteData",
								"label": "supPopel",
								"offset": 0,
								"slot": "6",
								"type": "t_uint256"
							},
							{
								"astId": 420,
								"contract": "contracts/Template/Istanbul10/data/VoteData.sol:VoteData",
								"label": "againstPopel",
								"offset": 0,
								"slot": "7",
								"type": "t_uint256"
							},
							{
								"astId": 423,
								"contract": "contracts/Template/Istanbul10/data/VoteData.sol:VoteData",
								"label": "status",
								"offset": 0,
								"slot": "8",
								"type": "t_enum(VoteStatus)369"
							},
							{
								"astId": 425,
								"contract": "contracts/Template/Istanbul10/data/VoteData.sol:VoteData",
								"label": "codeModel",
								"offset": 0,
								"slot": "9",
								"type": "t_uint256"
							},
							{
								"astId": 427,
								"contract": "contracts/Template/Istanbul10/data/VoteData.sol:VoteData",
								"label": "value",
								"offset": 0,
								"slot": "10",
								"type": "t_uint256"
							},
							{
								"astId": 432,
								"contract": "contracts/Template/Istanbul10/data/VoteData.sol:VoteData",
								"label": "VoterAddress",
								"offset": 0,
								"slot": "11",
								"type": "t_mapping(t_address,t_struct(Delegate)456_storage)"
							},
							{
								"astId": 435,
								"contract": "contracts/Template/Istanbul10/data/VoteData.sol:VoteData",
								"label": "svote",
								"offset": 0,
								"slot": "12",
								"type": "t_struct(SecondBallot)450_storage"
							}
						],
						"numberOfBytes": "544"
					},
					"t_uint256": {
						"encoding": "inplace",
						"label": "uint256",
						"numberOfBytes": "32"
					}
				}
			},
			"userdoc": {
				"kind": "user",
				"methods": {},
				"version": 1
			}
		}
	}
}