{
	"contracts/Template/Istanbul10/logic/Vote.sol": {
		"Vote": {
			"abi": [
				{
					"anonymous": false,
					"inputs": [
						{
							"indexed": true,
							"internalType": "uint256",
							"name": "voteId_",
							"type": "uint256"
						},
						{
							"indexed": true,
							"internalType": "string",
							"name": "voteTopic_",
							"type": "string"
						},
						{
							"indexed": true,
							"internalType": "string",
							"name": "describe_",
							"type": "string"
						},
						{
							"indexed": false,
							"internalType": "uint256",
							"name": "codeModel_",
							"type": "uint256"
						},
						{
							"indexed": false,
							"internalType": "uint256",
							"name": "valaue_",
							"type": "uint256"
						}
					],
					"name": "CreateVoteEvent",
					"type": "event"
				},
				{
					"anonymous": false,
					"inputs": [
						{
							"indexed": true,
							"internalType": "uint256",
							"name": "voteId_",
							"type": "uint256"
						},
						{
							"indexed": false,
							"internalType": "address",
							"name": "to_",
							"type": "address"
						}
					],
					"name": "DelegateToEvent",
					"type": "event"
				},
				{
					"anonymous": false,
					"inputs": [
						{
							"indexed": true,
							"internalType": "uint256",
							"name": "voteId_",
							"type": "uint256"
						}
					],
					"name": "ExecuteEvent",
					"type": "event"
				},
				{
					"anonymous": false,
					"inputs": [
						{
							"indexed": true,
							"internalType": "address",
							"name": "veToken_",
							"type": "address"
						}
					],
					"name": "InitializeEvent",
					"type": "event"
				},
				{
					"anonymous": false,
					"inputs": [
						{
							"indexed": true,
							"internalType": "uint256",
							"name": "voteId_",
							"type": "uint256"
						},
						{
							"indexed": false,
							"internalType": "string",
							"name": "reasons_",
							"type": "string"
						}
					],
					"name": "RejectEvent",
					"type": "event"
				},
				{
					"anonymous": false,
					"inputs": [
						{
							"indexed": false,
							"internalType": "string",
							"name": "topic_",
							"type": "string"
						},
						{
							"indexed": false,
							"internalType": "address",
							"name": "targetAddress_",
							"type": "address"
						},
						{
							"indexed": false,
							"internalType": "string",
							"name": "functionName_",
							"type": "string"
						}
					],
					"name": "SetGovernanceTemplateEvent",
					"type": "event"
				},
				{
					"anonymous": false,
					"inputs": [
						{
							"indexed": true,
							"internalType": "uint256",
							"name": "voteId_",
							"type": "uint256"
						},
						{
							"indexed": false,
							"internalType": "bool",
							"name": "result_",
							"type": "bool"
						}
					],
					"name": "ToVoteEvent",
					"type": "event"
				},
				{
					"inputs": [],
					"name": "bufferTime",
					"outputs": [
						{
							"internalType": "uint256",
							"name": "",
							"type": "uint256"
						}
					],
					"stateMutability": "view",
					"type": "function"
				},
				{
					"inputs": [
						{
							"internalType": "string",
							"name": "voteTopic_",
							"type": "string"
						},
						{
							"internalType": "string",
							"name": "describe_",
							"type": "string"
						},
						{
							"internalType": "uint256",
							"name": "codeModel_",
							"type": "uint256"
						},
						{
							"internalType": "uint256",
							"name": "valaue_",
							"type": "uint256"
						}
					],
					"name": "createVote",
					"outputs": [
						{
							"internalType": "uint256",
							"name": "voteId",
							"type": "uint256"
						}
					],
					"stateMutability": "nonpayable",
					"type": "function"
				},
				{
					"inputs": [
						{
							"internalType": "uint256",
							"name": "voteId_",
							"type": "uint256"
						},
						{
							"internalType": "address",
							"name": "to_",
							"type": "address"
						}
					],
					"name": "delegateTo",
					"outputs": [],
					"stateMutability": "nonpayable",
					"type": "function"
				},
				{
					"inputs": [
						{
							"internalType": "uint256",
							"name": "voteId_",
							"type": "uint256"
						}
					],
					"name": "execute",
					"outputs": [],
					"stateMutability": "nonpayable",
					"type": "function"
				},
				{
					"inputs": [
						{
							"internalType": "uint256",
							"name": "",
							"type": "uint256"
						}
					],
					"name": "executeQueue",
					"outputs": [
						{
							"internalType": "uint256",
							"name": "",
							"type": "uint256"
						}
					],
					"stateMutability": "view",
					"type": "function"
				},
				{
					"inputs": [
						{
							"internalType": "uint256",
							"name": "",
							"type": "uint256"
						}
					],
					"name": "executeQueueMap",
					"outputs": [
						{
							"internalType": "bool",
							"name": "",
							"type": "bool"
						}
					],
					"stateMutability": "view",
					"type": "function"
				},
				{
					"inputs": [],
					"name": "getTemplate",
					"outputs": [
						{
							"components": [
								{
									"internalType": "uint256",
									"name": "templateId",
									"type": "uint256"
								},
								{
									"internalType": "string",
									"name": "toppic",
									"type": "string"
								},
								{
									"internalType": "address",
									"name": "targetAddress",
									"type": "address"
								},
								{
									"internalType": "string",
									"name": "functionName",
									"type": "string"
								}
							],
							"internalType": "struct VoteData.GgovernanceTemplate[]",
							"name": "re",
							"type": "tuple[]"
						}
					],
					"stateMutability": "view",
					"type": "function"
				},
				{
					"inputs": [
						{
							"internalType": "uint256",
							"name": "voteId_",
							"type": "uint256"
						}
					],
					"name": "getTest",
					"outputs": [
						{
							"internalType": "uint256",
							"name": "time",
							"type": "uint256"
						},
						{
							"internalType": "uint256",
							"name": "voteTime",
							"type": "uint256"
						}
					],
					"stateMutability": "view",
					"type": "function"
				},
				{
					"inputs": [],
					"name": "getVeToken",
					"outputs": [
						{
							"internalType": "address",
							"name": "",
							"type": "address"
						}
					],
					"stateMutability": "view",
					"type": "function"
				},
				{
					"inputs": [
						{
							"internalType": "uint256",
							"name": "voteId_",
							"type": "uint256"
						}
					],
					"name": "getVoteDetailwithVoteId",
					"outputs": [
						{
							"internalType": "string",
							"name": "voteTopic",
							"type": "string"
						},
						{
							"internalType": "string",
							"name": "describe",
							"type": "string"
						},
						{
							"internalType": "address",
							"name": "initiator",
							"type": "address"
						}
					],
					"stateMutability": "view",
					"type": "function"
				},
				{
					"inputs": [
						{
							"internalType": "uint256",
							"name": "voteId_",
							"type": "uint256"
						}
					],
					"name": "getVoteStatuswithVoteId",
					"outputs": [
						{
							"internalType": "uint256",
							"name": "status",
							"type": "uint256"
						}
					],
					"stateMutability": "view",
					"type": "function"
				},
				{
					"inputs": [],
					"name": "initialize",
					"outputs": [],
					"stateMutability": "nonpayable",
					"type": "function"
				},
				{
					"inputs": [],
					"name": "minimumQuantity",
					"outputs": [
						{
							"internalType": "uint256",
							"name": "",
							"type": "uint256"
						}
					],
					"stateMutability": "view",
					"type": "function"
				},
				{
					"inputs": [
						{
							"internalType": "uint256",
							"name": "voteId_",
							"type": "uint256"
						},
						{
							"internalType": "string",
							"name": "reasons_",
							"type": "string"
						}
					],
					"name": "reject",
					"outputs": [],
					"stateMutability": "nonpayable",
					"type": "function"
				},
				{
					"inputs": [],
					"name": "router",
					"outputs": [
						{
							"internalType": "address",
							"name": "",
							"type": "address"
						}
					],
					"stateMutability": "view",
					"type": "function"
				},
				{
					"inputs": [
						{
							"internalType": "string",
							"name": "topic_",
							"type": "string"
						},
						{
							"internalType": "address",
							"name": "targetAddress_",
							"type": "address"
						},
						{
							"internalType": "string",
							"name": "functionName_",
							"type": "string"
						}
					],
					"name": "setGovernanceTemplate",
					"outputs": [],
					"stateMutability": "nonpayable",
					"type": "function"
				},
				{
					"inputs": [],
					"name": "templateTotal",
					"outputs": [
						{
							"internalType": "uint256",
							"name": "",
							"type": "uint256"
						}
					],
					"stateMutability": "view",
					"type": "function"
				},
				{
					"inputs": [
						{
							"internalType": "uint256",
							"name": "voteId_",
							"type": "uint256"
						},
						{
							"internalType": "bool",
							"name": "result_",
							"type": "bool"
						}
					],
					"name": "toVote",
					"outputs": [],
					"stateMutability": "nonpayable",
					"type": "function"
				},
				{
					"inputs": [],
					"name": "veToken",
					"outputs": [
						{
							"internalType": "contract VeTokenTest",
							"name": "",
							"type": "address"
						}
					],
					"stateMutability": "view",
					"type": "function"
				},
				{
					"inputs": [],
					"name": "voteTatola",
					"outputs": [
						{
							"internalType": "uint256",
							"name": "",
							"type": "uint256"
						}
					],
					"stateMutability": "view",
					"type": "function"
				},
				{
					"inputs": [],
					"name": "voteTime",
					"outputs": [
						{
							"internalType": "uint256",
							"name": "",
							"type": "uint256"
						}
					],
					"stateMutability": "view",
					"type": "function"
				},
				{
					"inputs": [
						{
							"internalType": "uint256",
							"name": "voteId_",
							"type": "uint256"
						}
					],
					"name": "winningProposal",
					"outputs": [
						{
							"internalType": "uint256",
							"name": "forVote",
							"type": "uint256"
						},
						{
							"internalType": "uint256",
							"name": "againstVote",
							"type": "uint256"
						},
						{
							"internalType": "uint256",
							"name": "forVote2",
							"type": "uint256"
						},
						{
							"internalType": "uint256",
							"name": "againstVote2",
							"type": "uint256"
						},
						{
							"internalType": "uint256",
							"name": "time",
							"type": "uint256"
						}
					],
					"stateMutability": "view",
					"type": "function"
				}
			],
			"devdoc": {
				"kind": "dev",
				"methods": {
					"delegateTo(uint256,address)": {
						"details": "Entrust someone else to vote"
					},
					"winningProposal(uint256)": {
						"details": "calculates the current winning proposal based on all the current votes"
					}
				},
				"version": 1
			},
			"evm": {
				"assembly": "    /* \"contracts/Template/Istanbul10/logic/Vote.sol\":199:9630  contract Vote is IVote,VoteData {... */\n  mstore(0x40, 0x80)\n    /* \"contracts/Template/Istanbul10/data/VoteData.sol\":307:316  1 minutes */\n  0x3c\n    /* \"contracts/Template/Istanbul10/data/VoteData.sol\":280:316  uint256 public  voteTime = 1 minutes */\n  0x00\n  sstore\n    /* \"contracts/Template/Istanbul10/data/VoteData.sol\":393:402  1 minutes */\n  0x3c\n    /* \"contracts/Template/Istanbul10/data/VoteData.sol\":365:402  uint256 public bufferTime = 1 minutes */\n  0x01\n  sstore\n    /* \"contracts/Template/Istanbul10/data/VoteData.sol\":767:768  5 */\n  0x05\n    /* \"contracts/Template/Istanbul10/data/VoteData.sol\":733:768  uint256  public minimumQuantity = 5 */\n  0x0a\n  sstore\n    /* \"contracts/Template/Istanbul10/logic/Vote.sol\":199:9630  contract Vote is IVote,VoteData {... */\n  callvalue\n  dup1\n  iszero\n  tag_1\n  jumpi\n  0x00\n  dup1\n  revert\ntag_1:\n  pop\n  dataSize(sub_0)\n  dup1\n  dataOffset(sub_0)\n  0x00\n  codecopy\n  0x00\n  return\nstop\n\nsub_0: assembly {\n        /* \"contracts/Template/Istanbul10/logic/Vote.sol\":199:9630  contract Vote is IVote,VoteData {... */\n      mstore(0x40, 0x80)\n      callvalue\n      dup1\n      iszero\n      tag_1\n      jumpi\n      0x00\n      dup1\n      revert\n    tag_1:\n      pop\n      jumpi(tag_2, lt(calldatasize, 0x04))\n      shr(0xe0, calldataload(0x00))\n      dup1\n      0x82214856\n      gt\n      tag_25\n      jumpi\n      dup1\n      0xe3a1c1c7\n      gt\n      tag_26\n      jumpi\n      dup1\n      0xe3a1c1c7\n      eq\n      tag_19\n      jumpi\n      dup1\n      0xedef019d\n      eq\n      tag_20\n      jumpi\n      dup1\n      0xf887ea40\n      eq\n      tag_21\n      jumpi\n      dup1\n      0xf9d793d1\n      eq\n      tag_22\n      jumpi\n      dup1\n      0xfc7881c6\n      eq\n      tag_23\n      jumpi\n      dup1\n      0xfe0d94c1\n      eq\n      tag_24\n      jumpi\n      jump(tag_2)\n    tag_26:\n      dup1\n      0x82214856\n      eq\n      tag_14\n      jumpi\n      dup1\n      0xba7b6703\n      eq\n      tag_15\n      jumpi\n      dup1\n      0xbcd60f6c\n      eq\n      tag_16\n      jumpi\n      dup1\n      0xbcf93dd6\n      eq\n      tag_17\n      jumpi\n      dup1\n      0xd9ae5bd5\n      eq\n      tag_18\n      jumpi\n      jump(tag_2)\n    tag_25:\n      dup1\n      0x52538550\n      gt\n      tag_27\n      jumpi\n      dup1\n      0x52538550\n      eq\n      tag_8\n      jumpi\n      dup1\n      0x5a42007f\n      eq\n      tag_9\n      jumpi\n      dup1\n      0x71d68a97\n      eq\n      tag_10\n      jumpi\n      dup1\n      0x74786f69\n      eq\n      tag_11\n      jumpi\n      dup1\n      0x75bb5b09\n      eq\n      tag_12\n      jumpi\n      dup1\n      0x8129fc1c\n      eq\n      tag_13\n      jumpi\n      jump(tag_2)\n    tag_27:\n      dup1\n      0x1d75ddcc\n      eq\n      tag_3\n      jumpi\n      dup1\n      0x2c9e3ef0\n      eq\n      tag_4\n      jumpi\n      dup1\n      0x321c48f2\n      eq\n      tag_5\n      jumpi\n      dup1\n      0x3b92eb23\n      eq\n      tag_6\n      jumpi\n      dup1\n      0x3fee74d7\n      eq\n      tag_7\n      jumpi\n    tag_2:\n      0x00\n      dup1\n      revert\n        /* \"contracts/Template/Istanbul10/data/VoteData.sol\":733:768  uint256  public minimumQuantity = 5 */\n    tag_3:\n      tag_28\n      tag_29\n      jump\t// in\n    tag_28:\n      mload(0x40)\n      tag_30\n      swap2\n      swap1\n      tag_31\n      jump\t// in\n    tag_30:\n      mload(0x40)\n      dup1\n      swap2\n      sub\n      swap1\n      return\n        /* \"contracts/Template/Istanbul10/data/VoteData.sol\":679:726  mapping(uint256 => bool) public executeQueueMap */\n    tag_4:\n      tag_32\n      0x04\n      dup1\n      calldatasize\n      sub\n      dup2\n      add\n      swap1\n      tag_33\n      swap2\n      swap1\n      tag_34\n      jump\t// in\n    tag_33:\n      tag_35\n      jump\t// in\n    tag_32:\n      mload(0x40)\n      tag_36\n      swap2\n      swap1\n      tag_37\n      jump\t// in\n    tag_36:\n      mload(0x40)\n      dup1\n      swap2\n      sub\n      swap1\n      return\n        /* \"contracts/Template/Istanbul10/logic/Vote.sol\":6295:6590  function getTemplate()external view  returns(GgovernanceTemplate[] memory re){... */\n    tag_5:\n      tag_38\n      tag_39\n      jump\t// in\n    tag_38:\n      mload(0x40)\n      tag_40\n      swap2\n      swap1\n      tag_41\n      jump\t// in\n    tag_40:\n      mload(0x40)\n      dup1\n      swap2\n      sub\n      swap1\n      return\n        /* \"contracts/Template/Istanbul10/data/VoteData.sol\":443:469  VeTokenTest public veToken */\n    tag_6:\n      tag_42\n      tag_43\n      jump\t// in\n    tag_42:\n      mload(0x40)\n      tag_44\n      swap2\n      swap1\n      tag_45\n      jump\t// in\n    tag_44:\n      mload(0x40)\n      dup1\n      swap2\n      sub\n      swap1\n      return\n        /* \"contracts/Template/Istanbul10/logic/Vote.sol\":408:518  function getVeToken() public view returns(address){... */\n    tag_7:\n      tag_46\n      tag_47\n      jump\t// in\n    tag_46:\n      mload(0x40)\n      tag_48\n      swap2\n      swap1\n      tag_49\n      jump\t// in\n    tag_48:\n      mload(0x40)\n      dup1\n      swap2\n      sub\n      swap1\n      return\n        /* \"contracts/Template/Istanbul10/data/VoteData.sol\":505:535  uint256[] public  executeQueue */\n    tag_8:\n      tag_50\n      0x04\n      dup1\n      calldatasize\n      sub\n      dup2\n      add\n      swap1\n      tag_51\n      swap2\n      swap1\n      tag_34\n      jump\t// in\n    tag_51:\n      tag_52\n      jump\t// in\n    tag_50:\n      mload(0x40)\n      tag_53\n      swap2\n      swap1\n      tag_31\n      jump\t// in\n    tag_53:\n      mload(0x40)\n      dup1\n      swap2\n      sub\n      swap1\n      return\n        /* \"contracts/Template/Istanbul10/data/VoteData.sol\":542:572  uint256  public  templateTotal */\n    tag_9:\n      tag_54\n      tag_55\n      jump\t// in\n    tag_54:\n      mload(0x40)\n      tag_56\n      swap2\n      swap1\n      tag_31\n      jump\t// in\n    tag_56:\n      mload(0x40)\n      dup1\n      swap2\n      sub\n      swap1\n      return\n        /* \"contracts/Template/Istanbul10/logic/Vote.sol\":3770:4518  function reject(uint256 voteId_,string memory reasons_) external override {... */\n    tag_10:\n      tag_57\n      0x04\n      dup1\n      calldatasize\n      sub\n      dup2\n      add\n      swap1\n      tag_58\n      swap2\n      swap1\n      tag_59\n      jump\t// in\n    tag_58:\n      tag_60\n      jump\t// in\n    tag_57:\n      stop\n        /* \"contracts/Template/Istanbul10/logic/Vote.sol\":8409:8718  function getVoteDetailwithVoteId(uint256 voteId_) external view returns(... */\n    tag_11:\n      tag_61\n      0x04\n      dup1\n      calldatasize\n      sub\n      dup2\n      add\n      swap1\n      tag_62\n      swap2\n      swap1\n      tag_34\n      jump\t// in\n    tag_62:\n      tag_63\n      jump\t// in\n    tag_61:\n      mload(0x40)\n      tag_64\n      swap4\n      swap3\n      swap2\n      swap1\n      tag_65\n      jump\t// in\n    tag_64:\n      mload(0x40)\n      dup1\n      swap2\n      sub\n      swap1\n      return\n        /* \"contracts/Template/Istanbul10/data/VoteData.sol\":476:498  uint public voteTatola */\n    tag_12:\n      tag_66\n      tag_67\n      jump\t// in\n    tag_66:\n      mload(0x40)\n      tag_68\n      swap2\n      swap1\n      tag_31\n      jump\t// in\n    tag_68:\n      mload(0x40)\n      dup1\n      swap2\n      sub\n      swap1\n      return\n        /* \"contracts/Template/Istanbul10/logic/Vote.sol\":240:400  function initialize() override public{... */\n    tag_13:\n      tag_69\n      tag_70\n      jump\t// in\n    tag_69:\n      stop\n        /* \"contracts/Template/Istanbul10/logic/Vote.sol\":1751:3699  function toVote(uint256 voteId_,bool result_) external override {... */\n    tag_14:\n      tag_71\n      0x04\n      dup1\n      calldatasize\n      sub\n      dup2\n      add\n      swap1\n      tag_72\n      swap2\n      swap1\n      tag_73\n      jump\t// in\n    tag_72:\n      tag_74\n      jump\t// in\n    tag_71:\n      stop\n        /* \"contracts/Template/Istanbul10/data/VoteData.sol\":365:402  uint256 public bufferTime = 1 minutes */\n    tag_15:\n      tag_75\n      tag_76\n      jump\t// in\n    tag_75:\n      mload(0x40)\n      tag_77\n      swap2\n      swap1\n      tag_31\n      jump\t// in\n    tag_77:\n      mload(0x40)\n      dup1\n      swap2\n      sub\n      swap1\n      return\n        /* \"contracts/Template/Istanbul10/logic/Vote.sol\":8811:9283  function winningProposal(uint256 voteId_) external override  view returns(uint256 forVote,... */\n    tag_16:\n      tag_78\n      0x04\n      dup1\n      calldatasize\n      sub\n      dup2\n      add\n      swap1\n      tag_79\n      swap2\n      swap1\n      tag_34\n      jump\t// in\n    tag_79:\n      tag_80\n      jump\t// in\n    tag_78:\n      mload(0x40)\n      tag_81\n      swap6\n      swap5\n      swap4\n      swap3\n      swap2\n      swap1\n      tag_82\n      jump\t// in\n    tag_81:\n      mload(0x40)\n      dup1\n      swap2\n      sub\n      swap1\n      return\n        /* \"contracts/Template/Istanbul10/data/VoteData.sol\":280:316  uint256 public  voteTime = 1 minutes */\n    tag_17:\n      tag_83\n      tag_84\n      jump\t// in\n    tag_83:\n      mload(0x40)\n      tag_85\n      swap2\n      swap1\n      tag_31\n      jump\t// in\n    tag_85:\n      mload(0x40)\n      dup1\n      swap2\n      sub\n      swap1\n      return\n        /* \"contracts/Template/Istanbul10/logic/Vote.sol\":8204:8396  function getVoteStatuswithVoteId(uint256 voteId_) external view returns (uint256  status){... */\n    tag_18:\n      tag_86\n      0x04\n      dup1\n      calldatasize\n      sub\n      dup2\n      add\n      swap1\n      tag_87\n      swap2\n      swap1\n      tag_34\n      jump\t// in\n    tag_87:\n      tag_88\n      jump\t// in\n    tag_86:\n      mload(0x40)\n      tag_89\n      swap2\n      swap1\n      tag_31\n      jump\t// in\n    tag_89:\n      mload(0x40)\n      dup1\n      swap2\n      sub\n      swap1\n      return\n        /* \"contracts/Template/Istanbul10/logic/Vote.sol\":7629:8196  function setGovernanceTemplate(string memory topic_,address targetAddress_,string memory  functionName_) external override  {... */\n    tag_19:\n      tag_90\n      0x04\n      dup1\n      calldatasize\n      sub\n      dup2\n      add\n      swap1\n      tag_91\n      swap2\n      swap1\n      tag_92\n      jump\t// in\n    tag_91:\n      tag_93\n      jump\t// in\n    tag_90:\n      stop\n        /* \"contracts/Template/Istanbul10/logic/Vote.sol\":9407:9627  function getTest(uint256 voteId_) public  view returns (uint256 time , uint256 voteTime){... */\n    tag_20:\n      tag_94\n      0x04\n      dup1\n      calldatasize\n      sub\n      dup2\n      add\n      swap1\n      tag_95\n      swap2\n      swap1\n      tag_34\n      jump\t// in\n    tag_95:\n      tag_96\n      jump\t// in\n    tag_94:\n      mload(0x40)\n      tag_97\n      swap3\n      swap2\n      swap1\n      tag_98\n      jump\t// in\n    tag_97:\n      mload(0x40)\n      dup1\n      swap2\n      sub\n      swap1\n      return\n        /* \"contracts/Template/Istanbul10/data/VoteData.sol\":415:436  address public router */\n    tag_21:\n      tag_99\n      tag_100\n      jump\t// in\n    tag_99:\n      mload(0x40)\n      tag_101\n      swap2\n      swap1\n      tag_49\n      jump\t// in\n    tag_101:\n      mload(0x40)\n      dup1\n      swap2\n      sub\n      swap1\n      return\n        /* \"contracts/Template/Istanbul10/logic/Vote.sol\":627:1709  function createVote(... */\n    tag_22:\n      tag_102\n      0x04\n      dup1\n      calldatasize\n      sub\n      dup2\n      add\n      swap1\n      tag_103\n      swap2\n      swap1\n      tag_104\n      jump\t// in\n    tag_103:\n      tag_105\n      jump\t// in\n    tag_102:\n      mload(0x40)\n      tag_106\n      swap2\n      swap1\n      tag_31\n      jump\t// in\n    tag_106:\n      mload(0x40)\n      dup1\n      swap2\n      sub\n      swap1\n      return\n        /* \"contracts/Template/Istanbul10/logic/Vote.sol\":6992:7621  function delegateTo(uint256 voteId_,address to_)external override {... */\n    tag_23:\n      tag_107\n      0x04\n      dup1\n      calldatasize\n      sub\n      dup2\n      add\n      swap1\n      tag_108\n      swap2\n      swap1\n      tag_109\n      jump\t// in\n    tag_108:\n      tag_110\n      jump\t// in\n    tag_107:\n      stop\n        /* \"contracts/Template/Istanbul10/logic/Vote.sol\":4594:5761  function execute(uint256 voteId_) external override {... */\n    tag_24:\n      tag_111\n      0x04\n      dup1\n      calldatasize\n      sub\n      dup2\n      add\n      swap1\n      tag_112\n      swap2\n      swap1\n      tag_34\n      jump\t// in\n    tag_112:\n      tag_113\n      jump\t// in\n    tag_111:\n      stop\n        /* \"contracts/Template/Istanbul10/data/VoteData.sol\":733:768  uint256  public minimumQuantity = 5 */\n    tag_29:\n      sload(0x0a)\n      dup2\n      jump\t// out\n        /* \"contracts/Template/Istanbul10/data/VoteData.sol\":679:726  mapping(uint256 => bool) public executeQueueMap */\n    tag_35:\n      mstore(0x20, 0x09)\n      dup1\n      0x00\n      mstore\n      keccak256(0x00, 0x40)\n      0x00\n      swap2\n      pop\n      sload\n      swap1\n      0x0100\n      exp\n      swap1\n      div\n      0xff\n      and\n      dup2\n      jump\t// out\n        /* \"contracts/Template/Istanbul10/logic/Vote.sol\":6295:6590  function getTemplate()external view  returns(GgovernanceTemplate[] memory re){... */\n    tag_39:\n        /* \"contracts/Template/Istanbul10/logic/Vote.sol\":6340:6371  GgovernanceTemplate[] memory re */\n      0x60\n        /* \"contracts/Template/Istanbul10/logic/Vote.sol\":6383:6416  GgovernanceTemplate[]  memory arr */\n      0x00\n        /* \"contracts/Template/Istanbul10/logic/Vote.sol\":6446:6459  templateTotal */\n      sload(0x06)\n        /* \"contracts/Template/Istanbul10/logic/Vote.sol\":6419:6460  new GgovernanceTemplate[] (templateTotal) */\n      0xffffffffffffffff\n      dup2\n      gt\n      iszero\n      tag_115\n      jumpi\n      tag_116\n      tag_117\n      jump\t// in\n    tag_116:\n    tag_115:\n      mload(0x40)\n      swap1\n      dup1\n      dup3\n      mstore\n      dup1\n      0x20\n      mul\n      0x20\n      add\n      dup3\n      add\n      0x40\n      mstore\n      dup1\n      iszero\n      tag_118\n      jumpi\n      dup2\n      0x20\n      add\n    tag_119:\n      tag_120\n      tag_121\n      jump\t// in\n    tag_120:\n      dup2\n      mstore\n      0x20\n      add\n      swap1\n      0x01\n      swap1\n      sub\n      swap1\n      dup2\n      tag_119\n      jumpi\n      swap1\n      pop\n    tag_118:\n      pop\n        /* \"contracts/Template/Istanbul10/logic/Vote.sol\":6383:6460  GgovernanceTemplate[]  memory arr = new GgovernanceTemplate[] (templateTotal) */\n      swap1\n      pop\n        /* \"contracts/Template/Istanbul10/logic/Vote.sol\":6475:6481  uint i */\n      0x00\n        /* \"contracts/Template/Istanbul10/logic/Vote.sol\":6471:6561  for(uint i = 0; i < templateTotal; ++i){... */\n    tag_122:\n        /* \"contracts/Template/Istanbul10/logic/Vote.sol\":6491:6504  templateTotal */\n      sload(0x06)\n        /* \"contracts/Template/Istanbul10/logic/Vote.sol\":6487:6488  i */\n      dup2\n        /* \"contracts/Template/Istanbul10/logic/Vote.sol\":6487:6504  i < templateTotal */\n      lt\n        /* \"contracts/Template/Istanbul10/logic/Vote.sol\":6471:6561  for(uint i = 0; i < templateTotal; ++i){... */\n      iszero\n      tag_123\n      jumpi\n        /* \"contracts/Template/Istanbul10/logic/Vote.sol\":6538:6546  template */\n      0x08\n        /* \"contracts/Template/Istanbul10/logic/Vote.sol\":6538:6549  template[i] */\n      0x00\n        /* \"contracts/Template/Istanbul10/logic/Vote.sol\":6547:6548  i */\n      dup3\n        /* \"contracts/Template/Istanbul10/logic/Vote.sol\":6538:6549  template[i] */\n      dup2\n      mstore\n      0x20\n      add\n      swap1\n      dup2\n      mstore\n      0x20\n      add\n      0x00\n      keccak256\n        /* \"contracts/Template/Istanbul10/logic/Vote.sol\":6529:6549  arr[i] = template[i] */\n      mload(0x40)\n      dup1\n      0x80\n      add\n      0x40\n      mstore\n      swap1\n      dup2\n      0x00\n      dup3\n      add\n      sload\n      dup2\n      mstore\n      0x20\n      add\n      0x01\n      dup3\n      add\n      dup1\n      sload\n      tag_125\n      swap1\n      tag_126\n      jump\t// in\n    tag_125:\n      dup1\n      0x1f\n      add\n      0x20\n      dup1\n      swap2\n      div\n      mul\n      0x20\n      add\n      mload(0x40)\n      swap1\n      dup2\n      add\n      0x40\n      mstore\n      dup1\n      swap3\n      swap2\n      swap1\n      dup2\n      dup2\n      mstore\n      0x20\n      add\n      dup3\n      dup1\n      sload\n      tag_127\n      swap1\n      tag_126\n      jump\t// in\n    tag_127:\n      dup1\n      iszero\n      tag_128\n      jumpi\n      dup1\n      0x1f\n      lt\n      tag_129\n      jumpi\n      0x0100\n      dup1\n      dup4\n      sload\n      div\n      mul\n      dup4\n      mstore\n      swap2\n      0x20\n      add\n      swap2\n      jump(tag_128)\n    tag_129:\n      dup3\n      add\n      swap2\n      swap1\n      0x00\n      mstore\n      keccak256(0x00, 0x20)\n      swap1\n    tag_130:\n      dup2\n      sload\n      dup2\n      mstore\n      swap1\n      0x01\n      add\n      swap1\n      0x20\n      add\n      dup1\n      dup4\n      gt\n      tag_130\n      jumpi\n      dup3\n      swap1\n      sub\n      0x1f\n      and\n      dup3\n      add\n      swap2\n    tag_128:\n      pop\n      pop\n      pop\n      pop\n      pop\n      dup2\n      mstore\n      0x20\n      add\n      0x02\n      dup3\n      add\n      0x00\n      swap1\n      sload\n      swap1\n      0x0100\n      exp\n      swap1\n      div\n      0xffffffffffffffffffffffffffffffffffffffff\n      and\n      0xffffffffffffffffffffffffffffffffffffffff\n      and\n      0xffffffffffffffffffffffffffffffffffffffff\n      and\n      dup2\n      mstore\n      0x20\n      add\n      0x03\n      dup3\n      add\n      dup1\n      sload\n      tag_131\n      swap1\n      tag_126\n      jump\t// in\n    tag_131:\n      dup1\n      0x1f\n      add\n      0x20\n      dup1\n      swap2\n      div\n      mul\n      0x20\n      add\n      mload(0x40)\n      swap1\n      dup2\n      add\n      0x40\n      mstore\n      dup1\n      swap3\n      swap2\n      swap1\n      dup2\n      dup2\n      mstore\n      0x20\n      add\n      dup3\n      dup1\n      sload\n      tag_132\n      swap1\n      tag_126\n      jump\t// in\n    tag_132:\n      dup1\n      iszero\n      tag_133\n      jumpi\n      dup1\n      0x1f\n      lt\n      tag_134\n      jumpi\n      0x0100\n      dup1\n      dup4\n      sload\n      div\n      mul\n      dup4\n      mstore\n      swap2\n      0x20\n      add\n      swap2\n      jump(tag_133)\n    tag_134:\n      dup3\n      add\n      swap2\n      swap1\n      0x00\n      mstore\n      keccak256(0x00, 0x20)\n      swap1\n    tag_135:\n      dup2\n      sload\n      dup2\n      mstore\n      swap1\n      0x01\n      add\n      swap1\n      0x20\n      add\n      dup1\n      dup4\n      gt\n      tag_135\n      jumpi\n      dup3\n      swap1\n      sub\n      0x1f\n      and\n      dup3\n      add\n      swap2\n    tag_133:\n      pop\n      pop\n      pop\n      pop\n      pop\n      dup2\n      mstore\n      pop\n      pop\n        /* \"contracts/Template/Istanbul10/logic/Vote.sol\":6529:6532  arr */\n      dup3\n        /* \"contracts/Template/Istanbul10/logic/Vote.sol\":6533:6534  i */\n      dup3\n        /* \"contracts/Template/Istanbul10/logic/Vote.sol\":6529:6535  arr[i] */\n      dup2\n      mload\n      dup2\n      lt\n      tag_136\n      jumpi\n      tag_137\n      tag_138\n      jump\t// in\n    tag_137:\n    tag_136:\n      0x20\n      mul\n      0x20\n      add\n      add\n        /* \"contracts/Template/Istanbul10/logic/Vote.sol\":6529:6549  arr[i] = template[i] */\n      dup2\n      swap1\n      mstore\n      pop\n        /* \"contracts/Template/Istanbul10/logic/Vote.sol\":6506:6509  ++i */\n      dup1\n      tag_139\n      swap1\n      tag_140\n      jump\t// in\n    tag_139:\n      swap1\n      pop\n        /* \"contracts/Template/Istanbul10/logic/Vote.sol\":6471:6561  for(uint i = 0; i < templateTotal; ++i){... */\n      jump(tag_122)\n    tag_123:\n      pop\n        /* \"contracts/Template/Istanbul10/logic/Vote.sol\":6578:6581  arr */\n      dup1\n        /* \"contracts/Template/Istanbul10/logic/Vote.sol\":6571:6581  return arr */\n      swap2\n      pop\n      pop\n        /* \"contracts/Template/Istanbul10/logic/Vote.sol\":6295:6590  function getTemplate()external view  returns(GgovernanceTemplate[] memory re){... */\n      swap1\n      jump\t// out\n        /* \"contracts/Template/Istanbul10/data/VoteData.sol\":443:469  VeTokenTest public veToken */\n    tag_43:\n      0x03\n      0x00\n      swap1\n      sload\n      swap1\n      0x0100\n      exp\n      swap1\n      div\n      0xffffffffffffffffffffffffffffffffffffffff\n      and\n      dup2\n      jump\t// out\n        /* \"contracts/Template/Istanbul10/logic/Vote.sol\":408:518  function getVeToken() public view returns(address){... */\n    tag_47:\n        /* \"contracts/Template/Istanbul10/logic/Vote.sol\":450:457  address */\n      0x00\n        /* \"contracts/Template/Istanbul10/logic/Vote.sol\":489:499  msg.sender */\n      caller\n        /* \"contracts/Template/Istanbul10/logic/Vote.sol\":477:508  IRouterData(msg.sender).veToken */\n      0xffffffffffffffffffffffffffffffffffffffff\n      and\n      0x3b92eb23\n        /* \"contracts/Template/Istanbul10/logic/Vote.sol\":477:510  IRouterData(msg.sender).veToken() */\n      mload(0x40)\n      dup2\n      0xffffffff\n      and\n      0xe0\n      shl\n      dup2\n      mstore\n      0x04\n      add\n      0x20\n      mload(0x40)\n      dup1\n      dup4\n      sub\n      dup2\n      dup7\n      gas\n      staticcall\n      iszero\n      dup1\n      iszero\n      tag_143\n      jumpi\n      returndatasize\n      0x00\n      dup1\n      returndatacopy\n      revert(0x00, returndatasize)\n    tag_143:\n      pop\n      pop\n      pop\n      pop\n      mload(0x40)\n      returndatasize\n      not(0x1f)\n      0x1f\n      dup3\n      add\n      and\n      dup3\n      add\n      dup1\n      0x40\n      mstore\n      pop\n      dup2\n      add\n      swap1\n      tag_144\n      swap2\n      swap1\n      tag_145\n      jump\t// in\n    tag_144:\n        /* \"contracts/Template/Istanbul10/logic/Vote.sol\":469:510  return  IRouterData(msg.sender).veToken() */\n      swap1\n      pop\n        /* \"contracts/Template/Istanbul10/logic/Vote.sol\":408:518  function getVeToken() public view returns(address){... */\n      swap1\n      jump\t// out\n        /* \"contracts/Template/Istanbul10/data/VoteData.sol\":505:535  uint256[] public  executeQueue */\n    tag_52:\n      0x05\n      dup2\n      dup2\n      sload\n      dup2\n      lt\n      tag_146\n      jumpi\n      0x00\n      dup1\n      revert\n    tag_146:\n      swap1\n      0x00\n      mstore\n      keccak256(0x00, 0x20)\n      add\n      0x00\n      swap2\n      pop\n      swap1\n      pop\n      sload\n      dup2\n      jump\t// out\n        /* \"contracts/Template/Istanbul10/data/VoteData.sol\":542:572  uint256  public  templateTotal */\n    tag_55:\n      sload(0x06)\n      dup2\n      jump\t// out\n        /* \"contracts/Template/Istanbul10/logic/Vote.sol\":3770:4518  function reject(uint256 voteId_,string memory reasons_) external override {... */\n    tag_60:\n        /* \"contracts/Template/Istanbul10/logic/Vote.sol\":3855:3875  uint256 _totalsupply */\n      0x00\n        /* \"contracts/Template/Istanbul10/logic/Vote.sol\":3920:3923  100 */\n      0x64\n        /* \"contracts/Template/Istanbul10/logic/Vote.sol\":3902:3917  minimumQuantity */\n      sload(0x0a)\n        /* \"contracts/Template/Istanbul10/logic/Vote.sol\":3878:3885  veToken */\n      0x03\n      0x00\n      swap1\n      sload\n      swap1\n      0x0100\n      exp\n      swap1\n      div\n      0xffffffffffffffffffffffffffffffffffffffff\n      and\n        /* \"contracts/Template/Istanbul10/logic/Vote.sol\":3878:3897  veToken.totalSupply */\n      0xffffffffffffffffffffffffffffffffffffffff\n      and\n      0x18160ddd\n        /* \"contracts/Template/Istanbul10/logic/Vote.sol\":3878:3899  veToken.totalSupply() */\n      mload(0x40)\n      dup2\n      0xffffffff\n      and\n      0xe0\n      shl\n      dup2\n      mstore\n      0x04\n      add\n      0x20\n      mload(0x40)\n      dup1\n      dup4\n      sub\n      dup2\n      dup7\n      gas\n      staticcall\n      iszero\n      dup1\n      iszero\n      tag_150\n      jumpi\n      returndatasize\n      0x00\n      dup1\n      returndatacopy\n      revert(0x00, returndatasize)\n    tag_150:\n      pop\n      pop\n      pop\n      pop\n      mload(0x40)\n      returndatasize\n      not(0x1f)\n      0x1f\n      dup3\n      add\n      and\n      dup3\n      add\n      dup1\n      0x40\n      mstore\n      pop\n      dup2\n      add\n      swap1\n      tag_151\n      swap2\n      swap1\n      tag_152\n      jump\t// in\n    tag_151:\n        /* \"contracts/Template/Istanbul10/logic/Vote.sol\":3878:3917  veToken.totalSupply() * minimumQuantity */\n      tag_153\n      swap2\n      swap1\n      tag_154\n      jump\t// in\n    tag_153:\n        /* \"contracts/Template/Istanbul10/logic/Vote.sol\":3878:3923  veToken.totalSupply() * minimumQuantity / 100 */\n      tag_155\n      swap2\n      swap1\n      tag_156\n      jump\t// in\n    tag_155:\n        /* \"contracts/Template/Istanbul10/logic/Vote.sol\":3855:3923  uint256 _totalsupply = veToken.totalSupply() * minimumQuantity / 100 */\n      swap1\n      pop\n        /* \"contracts/Template/Istanbul10/logic/Vote.sol\":3975:3987  _totalsupply */\n      dup1\n        /* \"contracts/Template/Istanbul10/logic/Vote.sol\":3942:3949  veToken */\n      0x03\n      0x00\n      swap1\n      sload\n      swap1\n      0x0100\n      exp\n      swap1\n      div\n      0xffffffffffffffffffffffffffffffffffffffff\n      and\n        /* \"contracts/Template/Istanbul10/logic/Vote.sol\":3942:3959  veToken.balanceOf */\n      0xffffffffffffffffffffffffffffffffffffffff\n      and\n      0x70a08231\n        /* \"contracts/Template/Istanbul10/logic/Vote.sol\":3960:3970  msg.sender */\n      caller\n        /* \"contracts/Template/Istanbul10/logic/Vote.sol\":3942:3971  veToken.balanceOf(msg.sender) */\n      mload(0x40)\n      dup3\n      0xffffffff\n      and\n      0xe0\n      shl\n      dup2\n      mstore\n      0x04\n      add\n      tag_157\n      swap2\n      swap1\n      tag_49\n      jump\t// in\n    tag_157:\n      0x20\n      mload(0x40)\n      dup1\n      dup4\n      sub\n      dup2\n      dup7\n      gas\n      staticcall\n      iszero\n      dup1\n      iszero\n      tag_159\n      jumpi\n      returndatasize\n      0x00\n      dup1\n      returndatacopy\n      revert(0x00, returndatasize)\n    tag_159:\n      pop\n      pop\n      pop\n      pop\n      mload(0x40)\n      returndatasize\n      not(0x1f)\n      0x1f\n      dup3\n      add\n      and\n      dup3\n      add\n      dup1\n      0x40\n      mstore\n      pop\n      dup2\n      add\n      swap1\n      tag_160\n      swap2\n      swap1\n      tag_152\n      jump\t// in\n    tag_160:\n        /* \"contracts/Template/Istanbul10/logic/Vote.sol\":3942:3987  veToken.balanceOf(msg.sender) >= _totalsupply */\n      lt\n      iszero\n        /* \"contracts/Template/Istanbul10/logic/Vote.sol\":3934:4014  require(veToken.balanceOf(msg.sender) >= _totalsupply,\"Too few tokens are held\") */\n      tag_161\n      jumpi\n      mload(0x40)\n      0x08c379a000000000000000000000000000000000000000000000000000000000\n      dup2\n      mstore\n      0x04\n      add\n      tag_162\n      swap1\n      tag_163\n      jump\t// in\n    tag_162:\n      mload(0x40)\n      dup1\n      swap2\n      sub\n      swap1\n      revert\n    tag_161:\n        /* \"contracts/Template/Istanbul10/logic/Vote.sol\":4027:4052  VoteStruct storage  _vote */\n      0x00\n        /* \"contracts/Template/Istanbul10/logic/Vote.sol\":4055:4063  voteMapp */\n      0x07\n        /* \"contracts/Template/Istanbul10/logic/Vote.sol\":4055:4072  voteMapp[voteId_] */\n      0x00\n        /* \"contracts/Template/Istanbul10/logic/Vote.sol\":4064:4071  voteId_ */\n      dup6\n        /* \"contracts/Template/Istanbul10/logic/Vote.sol\":4055:4072  voteMapp[voteId_] */\n      dup2\n      mstore\n      0x20\n      add\n      swap1\n      dup2\n      mstore\n      0x20\n      add\n      0x00\n      keccak256\n        /* \"contracts/Template/Istanbul10/logic/Vote.sol\":4027:4072  VoteStruct storage  _vote = voteMapp[voteId_] */\n      swap1\n      pop\n        /* \"contracts/Template/Istanbul10/logic/Vote.sol\":4112:4117  _vote */\n      dup1\n        /* \"contracts/Template/Istanbul10/logic/Vote.sol\":4112:4122  _vote.time */\n      0x02\n      add\n      sload\n        /* \"contracts/Template/Istanbul10/logic/Vote.sol\":4093:4108  block.timestamp */\n      timestamp\n        /* \"contracts/Template/Istanbul10/logic/Vote.sol\":4093:4122  block.timestamp >= _vote.time */\n      lt\n      iszero\n        /* \"contracts/Template/Istanbul10/logic/Vote.sol\":4093:4167  block.timestamp >= _vote.time && block.timestamp < _vote.time + bufferTime */\n      dup1\n      iszero\n      tag_164\n      jumpi\n      pop\n        /* \"contracts/Template/Istanbul10/logic/Vote.sol\":4157:4167  bufferTime */\n      sload(0x01)\n        /* \"contracts/Template/Istanbul10/logic/Vote.sol\":4144:4149  _vote */\n      dup2\n        /* \"contracts/Template/Istanbul10/logic/Vote.sol\":4144:4154  _vote.time */\n      0x02\n      add\n      sload\n        /* \"contracts/Template/Istanbul10/logic/Vote.sol\":4144:4167  _vote.time + bufferTime */\n      tag_165\n      swap2\n      swap1\n      tag_166\n      jump\t// in\n    tag_165:\n        /* \"contracts/Template/Istanbul10/logic/Vote.sol\":4126:4141  block.timestamp */\n      timestamp\n        /* \"contracts/Template/Istanbul10/logic/Vote.sol\":4126:4167  block.timestamp < _vote.time + bufferTime */\n      lt\n        /* \"contracts/Template/Istanbul10/logic/Vote.sol\":4093:4167  block.timestamp >= _vote.time && block.timestamp < _vote.time + bufferTime */\n    tag_164:\n        /* \"contracts/Template/Istanbul10/logic/Vote.sol\":4085:4197  require(block.timestamp >= _vote.time && block.timestamp < _vote.time + bufferTime, \"Still in the voting phase\") */\n      tag_167\n      jumpi\n      mload(0x40)\n      0x08c379a000000000000000000000000000000000000000000000000000000000\n      dup2\n      mstore\n      0x04\n      add\n      tag_168\n      swap1\n      tag_169\n      jump\t// in\n    tag_168:\n      mload(0x40)\n      dup1\n      swap2\n      sub\n      swap1\n      revert\n    tag_167:\n        /* \"contracts/Template/Istanbul10/logic/Vote.sol\":4232:4251  VoteStatus.isvoting */\n      0x01\n        /* \"contracts/Template/Istanbul10/logic/Vote.sol\":4216:4251  _vote.status == VoteStatus.isvoting */\n      0x06\n      dup2\n      gt\n      iszero\n      tag_170\n      jumpi\n      tag_171\n      tag_172\n      jump\t// in\n    tag_171:\n    tag_170:\n        /* \"contracts/Template/Istanbul10/logic/Vote.sol\":4216:4221  _vote */\n      dup2\n        /* \"contracts/Template/Istanbul10/logic/Vote.sol\":4216:4228  _vote.status */\n      0x08\n      add\n      0x00\n      swap1\n      sload\n      swap1\n      0x0100\n      exp\n      swap1\n      div\n      0xff\n      and\n        /* \"contracts/Template/Istanbul10/logic/Vote.sol\":4216:4251  _vote.status == VoteStatus.isvoting */\n      0x06\n      dup2\n      gt\n      iszero\n      tag_173\n      jumpi\n      tag_174\n      tag_172\n      jump\t// in\n    tag_174:\n    tag_173:\n      eq\n        /* \"contracts/Template/Istanbul10/logic/Vote.sol\":4208:4278  require(_vote.status == VoteStatus.isvoting,\"Not at the voting stage\") */\n      tag_175\n      jumpi\n      mload(0x40)\n      0x08c379a000000000000000000000000000000000000000000000000000000000\n      dup2\n      mstore\n      0x04\n      add\n      tag_176\n      swap1\n      tag_177\n      jump\t// in\n    tag_176:\n      mload(0x40)\n      dup1\n      swap2\n      sub\n      swap1\n      revert\n    tag_175:\n        /* \"contracts/Template/Istanbul10/logic/Vote.sol\":4306:4329  VoteStatus.secondBallot */\n      0x05\n        /* \"contracts/Template/Istanbul10/logic/Vote.sol\":4291:4296  _vote */\n      dup2\n        /* \"contracts/Template/Istanbul10/logic/Vote.sol\":4291:4303  _vote.status */\n      0x08\n      add\n      0x00\n        /* \"contracts/Template/Istanbul10/logic/Vote.sol\":4291:4329  _vote.status = VoteStatus.secondBallot */\n      0x0100\n      exp\n      dup2\n      sload\n      dup2\n      0xff\n      mul\n      not\n      and\n      swap1\n      dup4\n      0x06\n      dup2\n      gt\n      iszero\n      tag_178\n      jumpi\n      tag_179\n      tag_172\n      jump\t// in\n    tag_179:\n    tag_178:\n      mul\n      or\n      swap1\n      sstore\n      pop\n        /* \"contracts/Template/Istanbul10/logic/Vote.sol\":4363:4371  reasons_ */\n      dup3\n        /* \"contracts/Template/Istanbul10/logic/Vote.sol\":4340:4345  _vote */\n      dup2\n        /* \"contracts/Template/Istanbul10/logic/Vote.sol\":4340:4351  _vote.svote */\n      0x0c\n      add\n        /* \"contracts/Template/Istanbul10/logic/Vote.sol\":4340:4360  _vote.svote.describe */\n      0x01\n      add\n        /* \"contracts/Template/Istanbul10/logic/Vote.sol\":4340:4371  _vote.svote.describe = reasons_ */\n      swap1\n      dup1\n      mload\n      swap1\n      0x20\n      add\n      swap1\n      tag_180\n      swap3\n      swap2\n      swap1\n      tag_181\n      jump\t// in\n    tag_180:\n      pop\n        /* \"contracts/Template/Istanbul10/logic/Vote.sol\":4403:4413  msg.sender */\n      caller\n        /* \"contracts/Template/Istanbul10/logic/Vote.sol\":4382:4387  _vote */\n      dup2\n        /* \"contracts/Template/Istanbul10/logic/Vote.sol\":4382:4393  _vote.svote */\n      0x0c\n      add\n        /* \"contracts/Template/Istanbul10/logic/Vote.sol\":4382:4400  _vote.svote.vetoer */\n      0x00\n      add\n      0x00\n        /* \"contracts/Template/Istanbul10/logic/Vote.sol\":4382:4413  _vote.svote.vetoer = msg.sender */\n      0x0100\n      exp\n      dup2\n      sload\n      dup2\n      0xffffffffffffffffffffffffffffffffffffffff\n      mul\n      not\n      and\n      swap1\n      dup4\n      0xffffffffffffffffffffffffffffffffffffffff\n      and\n      mul\n      or\n      swap1\n      sstore\n      pop\n        /* \"contracts/Template/Istanbul10/logic/Vote.sol\":4455:4465  bufferTime */\n      sload(0x01)\n        /* \"contracts/Template/Istanbul10/logic/Vote.sol\":4437:4452  block.timestamp */\n      timestamp\n        /* \"contracts/Template/Istanbul10/logic/Vote.sol\":4437:4465  block.timestamp + bufferTime */\n      tag_182\n      swap2\n      swap1\n      tag_166\n      jump\t// in\n    tag_182:\n        /* \"contracts/Template/Istanbul10/logic/Vote.sol\":4424:4429  _vote */\n      dup2\n        /* \"contracts/Template/Istanbul10/logic/Vote.sol\":4424:4434  _vote.time */\n      0x02\n      add\n        /* \"contracts/Template/Istanbul10/logic/Vote.sol\":4424:4465  _vote.time = block.timestamp + bufferTime */\n      dup2\n      swap1\n      sstore\n      pop\n        /* \"contracts/Template/Istanbul10/logic/Vote.sol\":4493:4500  voteId_ */\n      dup4\n        /* \"contracts/Template/Istanbul10/logic/Vote.sol\":4481:4510  RejectEvent(voteId_,reasons_) */\n      0x4a3e39232ea797464bb08b1cb8267cfc05e026d0eae637ff17b0548af520369a\n        /* \"contracts/Template/Istanbul10/logic/Vote.sol\":4501:4509  reasons_ */\n      dup5\n        /* \"contracts/Template/Istanbul10/logic/Vote.sol\":4481:4510  RejectEvent(voteId_,reasons_) */\n      mload(0x40)\n      tag_183\n      swap2\n      swap1\n      tag_184\n      jump\t// in\n    tag_183:\n      mload(0x40)\n      dup1\n      swap2\n      sub\n      swap1\n      log2\n        /* \"contracts/Template/Istanbul10/logic/Vote.sol\":3844:4518  {... */\n      pop\n      pop\n        /* \"contracts/Template/Istanbul10/logic/Vote.sol\":3770:4518  function reject(uint256 voteId_,string memory reasons_) external override {... */\n      pop\n      pop\n      jump\t// out\n        /* \"contracts/Template/Istanbul10/logic/Vote.sol\":8409:8718  function getVoteDetailwithVoteId(uint256 voteId_) external view returns(... */\n    tag_63:\n        /* \"contracts/Template/Istanbul10/logic/Vote.sol\":8491:8514  string memory voteTopic */\n      0x60\n        /* \"contracts/Template/Istanbul10/logic/Vote.sol\":8525:8547  string memory describe */\n      dup1\n        /* \"contracts/Template/Istanbul10/logic/Vote.sol\":8558:8575  address initiator */\n      0x00\n        /* \"contracts/Template/Istanbul10/logic/Vote.sol\":8598:8622  VoteStruct storage _vote */\n      dup1\n        /* \"contracts/Template/Istanbul10/logic/Vote.sol\":8625:8633  voteMapp */\n      0x07\n        /* \"contracts/Template/Istanbul10/logic/Vote.sol\":8625:8642  voteMapp[voteId_] */\n      0x00\n        /* \"contracts/Template/Istanbul10/logic/Vote.sol\":8634:8641  voteId_ */\n      dup7\n        /* \"contracts/Template/Istanbul10/logic/Vote.sol\":8625:8642  voteMapp[voteId_] */\n      dup2\n      mstore\n      0x20\n      add\n      swap1\n      dup2\n      mstore\n      0x20\n      add\n      0x00\n      keccak256\n        /* \"contracts/Template/Istanbul10/logic/Vote.sol\":8598:8642  VoteStruct storage _vote = voteMapp[voteId_] */\n      swap1\n      pop\n        /* \"contracts/Template/Istanbul10/logic/Vote.sol\":8663:8668  _vote */\n      dup1\n        /* \"contracts/Template/Istanbul10/logic/Vote.sol\":8663:8678  _vote.voteTopic */\n      0x03\n      add\n        /* \"contracts/Template/Istanbul10/logic/Vote.sol\":8679:8684  _vote */\n      dup2\n        /* \"contracts/Template/Istanbul10/logic/Vote.sol\":8679:8693  _vote.describe */\n      0x05\n      add\n        /* \"contracts/Template/Istanbul10/logic/Vote.sol\":8694:8699  _vote */\n      dup3\n        /* \"contracts/Template/Istanbul10/logic/Vote.sol\":8694:8709  _vote.initiator */\n      0x04\n      add\n      0x00\n      swap1\n      sload\n      swap1\n      0x0100\n      exp\n      swap1\n      div\n      0xffffffffffffffffffffffffffffffffffffffff\n      and\n        /* \"contracts/Template/Istanbul10/logic/Vote.sol\":8654:8710  return  (_vote.voteTopic,_vote.describe,_vote.initiator) */\n      dup3\n      dup1\n      sload\n      tag_186\n      swap1\n      tag_126\n      jump\t// in\n    tag_186:\n      dup1\n      0x1f\n      add\n      0x20\n      dup1\n      swap2\n      div\n      mul\n      0x20\n      add\n      mload(0x40)\n      swap1\n      dup2\n      add\n      0x40\n      mstore\n      dup1\n      swap3\n      swap2\n      swap1\n      dup2\n      dup2\n      mstore\n      0x20\n      add\n      dup3\n      dup1\n      sload\n      tag_187\n      swap1\n      tag_126\n      jump\t// in\n    tag_187:\n      dup1\n      iszero\n      tag_188\n      jumpi\n      dup1\n      0x1f\n      lt\n      tag_189\n      jumpi\n      0x0100\n      dup1\n      dup4\n      sload\n      div\n      mul\n      dup4\n      mstore\n      swap2\n      0x20\n      add\n      swap2\n      jump(tag_188)\n    tag_189:\n      dup3\n      add\n      swap2\n      swap1\n      0x00\n      mstore\n      keccak256(0x00, 0x20)\n      swap1\n    tag_190:\n      dup2\n      sload\n      dup2\n      mstore\n      swap1\n      0x01\n      add\n      swap1\n      0x20\n      add\n      dup1\n      dup4\n      gt\n      tag_190\n      jumpi\n      dup3\n      swap1\n      sub\n      0x1f\n      and\n      dup3\n      add\n      swap2\n    tag_188:\n      pop\n      pop\n      pop\n      pop\n      pop\n      swap3\n      pop\n      dup2\n      dup1\n      sload\n      tag_191\n      swap1\n      tag_126\n      jump\t// in\n    tag_191:\n      dup1\n      0x1f\n      add\n      0x20\n      dup1\n      swap2\n      div\n      mul\n      0x20\n      add\n      mload(0x40)\n      swap1\n      dup2\n      add\n      0x40\n      mstore\n      dup1\n      swap3\n      swap2\n      swap1\n      dup2\n      dup2\n      mstore\n      0x20\n      add\n      dup3\n      dup1\n      sload\n      tag_192\n      swap1\n      tag_126\n      jump\t// in\n    tag_192:\n      dup1\n      iszero\n      tag_193\n      jumpi\n      dup1\n      0x1f\n      lt\n      tag_194\n      jumpi\n      0x0100\n      dup1\n      dup4\n      sload\n      div\n      mul\n      dup4\n      mstore\n      swap2\n      0x20\n      add\n      swap2\n      jump(tag_193)\n    tag_194:\n      dup3\n      add\n      swap2\n      swap1\n      0x00\n      mstore\n      keccak256(0x00, 0x20)\n      swap1\n    tag_195:\n      dup2\n      sload\n      dup2\n      mstore\n      swap1\n      0x01\n      add\n      swap1\n      0x20\n      add\n      dup1\n      dup4\n      gt\n      tag_195\n      jumpi\n      dup3\n      swap1\n      sub\n      0x1f\n      and\n      dup3\n      add\n      swap2\n    tag_193:\n      pop\n      pop\n      pop\n      pop\n      pop\n      swap2\n      pop\n      swap4\n      pop\n      swap4\n      pop\n      swap4\n      pop\n      pop\n        /* \"contracts/Template/Istanbul10/logic/Vote.sol\":8409:8718  function getVoteDetailwithVoteId(uint256 voteId_) external view returns(... */\n      swap2\n      swap4\n      swap1\n      swap3\n      pop\n      jump\t// out\n        /* \"contracts/Template/Istanbul10/data/VoteData.sol\":476:498  uint public voteTatola */\n    tag_67:\n      sload(0x04)\n      dup2\n      jump\t// out\n        /* \"contracts/Template/Istanbul10/logic/Vote.sol\":240:400  function initialize() override public{... */\n    tag_70:\n        /* \"contracts/Template/Istanbul10/logic/Vote.sol\":310:322  getVeToken() */\n      tag_197\n        /* \"contracts/Template/Istanbul10/logic/Vote.sol\":310:320  getVeToken */\n      tag_47\n        /* \"contracts/Template/Istanbul10/logic/Vote.sol\":310:322  getVeToken() */\n      jump\t// in\n    tag_197:\n        /* \"contracts/Template/Istanbul10/logic/Vote.sol\":288:295  veToken */\n      0x03\n      0x00\n        /* \"contracts/Template/Istanbul10/logic/Vote.sol\":288:323  veToken = VeTokenTest(getVeToken()) */\n      0x0100\n      exp\n      dup2\n      sload\n      dup2\n      0xffffffffffffffffffffffffffffffffffffffff\n      mul\n      not\n      and\n      swap1\n      dup4\n      0xffffffffffffffffffffffffffffffffffffffff\n      and\n      mul\n      or\n      swap1\n      sstore\n      pop\n        /* \"contracts/Template/Istanbul10/logic/Vote.sol\":343:353  msg.sender */\n      caller\n        /* \"contracts/Template/Istanbul10/logic/Vote.sol\":334:340  router */\n      0x02\n      0x00\n        /* \"contracts/Template/Istanbul10/logic/Vote.sol\":334:353  router = msg.sender */\n      0x0100\n      exp\n      dup2\n      sload\n      dup2\n      0xffffffffffffffffffffffffffffffffffffffff\n      mul\n      not\n      and\n      swap1\n      dup4\n      0xffffffffffffffffffffffffffffffffffffffff\n      and\n      mul\n      or\n      swap1\n      sstore\n      pop\n        /* \"contracts/Template/Istanbul10/logic/Vote.sol\":385:391  router */\n      0x02\n      0x00\n      swap1\n      sload\n      swap1\n      0x0100\n      exp\n      swap1\n      div\n      0xffffffffffffffffffffffffffffffffffffffff\n      and\n        /* \"contracts/Template/Istanbul10/logic/Vote.sol\":369:392  InitializeEvent(router) */\n      0xffffffffffffffffffffffffffffffffffffffff\n      and\n      0x0e39d7cd8517be5d0ded9db90850ac775470f23ea44ec3aaaad22ee8b1f8fc59\n      mload(0x40)\n      mload(0x40)\n      dup1\n      swap2\n      sub\n      swap1\n      log2\n        /* \"contracts/Template/Istanbul10/logic/Vote.sol\":240:400  function initialize() override public{... */\n      jump\t// out\n        /* \"contracts/Template/Istanbul10/logic/Vote.sol\":1751:3699  function toVote(uint256 voteId_,bool result_) external override {... */\n    tag_74:\n        /* \"contracts/Template/Istanbul10/logic/Vote.sol\":1826:1840  uint256 weight */\n      0x00\n        /* \"contracts/Template/Istanbul10/logic/Vote.sol\":1851:1875  VoteStruct storage _vote */\n      dup1\n        /* \"contracts/Template/Istanbul10/logic/Vote.sol\":1878:1886  voteMapp */\n      0x07\n        /* \"contracts/Template/Istanbul10/logic/Vote.sol\":1878:1895  voteMapp[voteId_] */\n      0x00\n        /* \"contracts/Template/Istanbul10/logic/Vote.sol\":1887:1894  voteId_ */\n      dup6\n        /* \"contracts/Template/Istanbul10/logic/Vote.sol\":1878:1895  voteMapp[voteId_] */\n      dup2\n      mstore\n      0x20\n      add\n      swap1\n      dup2\n      mstore\n      0x20\n      add\n      0x00\n      keccak256\n        /* \"contracts/Template/Istanbul10/logic/Vote.sol\":1851:1895  VoteStruct storage _vote = voteMapp[voteId_] */\n      swap1\n      pop\n        /* \"contracts/Template/Istanbul10/logic/Vote.sol\":1930:1954  VoteStatus.uninitialized */\n      0x00\n        /* \"contracts/Template/Istanbul10/logic/Vote.sol\":1914:1954  _vote.status != VoteStatus.uninitialized */\n      0x06\n      dup2\n      gt\n      iszero\n      tag_199\n      jumpi\n      tag_200\n      tag_172\n      jump\t// in\n    tag_200:\n    tag_199:\n        /* \"contracts/Template/Istanbul10/logic/Vote.sol\":1914:1919  _vote */\n      dup2\n        /* \"contracts/Template/Istanbul10/logic/Vote.sol\":1914:1926  _vote.status */\n      0x08\n      add\n      0x00\n      swap1\n      sload\n      swap1\n      0x0100\n      exp\n      swap1\n      div\n      0xff\n      and\n        /* \"contracts/Template/Istanbul10/logic/Vote.sol\":1914:1954  _vote.status != VoteStatus.uninitialized */\n      0x06\n      dup2\n      gt\n      iszero\n      tag_201\n      jumpi\n      tag_202\n      tag_172\n      jump\t// in\n    tag_202:\n    tag_201:\n      eq\n      iszero\n        /* \"contracts/Template/Istanbul10/logic/Vote.sol\":1906:1972  require(_vote.status != VoteStatus.uninitialized,\"VoteId is null\") */\n      tag_203\n      jumpi\n      mload(0x40)\n      0x08c379a000000000000000000000000000000000000000000000000000000000\n      dup2\n      mstore\n      0x04\n      add\n      tag_204\n      swap1\n      tag_205\n      jump\t// in\n    tag_204:\n      mload(0x40)\n      dup1\n      swap2\n      sub\n      swap1\n      revert\n    tag_203:\n        /* \"contracts/Template/Istanbul10/logic/Vote.sol\":2025:2044  VoteStatus.isvoting */\n      0x01\n        /* \"contracts/Template/Istanbul10/logic/Vote.sol\":2009:2044  _vote.status == VoteStatus.isvoting */\n      0x06\n      dup2\n      gt\n      iszero\n      tag_206\n      jumpi\n      tag_207\n      tag_172\n      jump\t// in\n    tag_207:\n    tag_206:\n        /* \"contracts/Template/Istanbul10/logic/Vote.sol\":2009:2014  _vote */\n      dup2\n        /* \"contracts/Template/Istanbul10/logic/Vote.sol\":2009:2021  _vote.status */\n      0x08\n      add\n      0x00\n      swap1\n      sload\n      swap1\n      0x0100\n      exp\n      swap1\n      div\n      0xff\n      and\n        /* \"contracts/Template/Istanbul10/logic/Vote.sol\":2009:2044  _vote.status == VoteStatus.isvoting */\n      0x06\n      dup2\n      gt\n      iszero\n      tag_208\n      jumpi\n      tag_209\n      tag_172\n      jump\t// in\n    tag_209:\n    tag_208:\n      eq\n        /* \"contracts/Template/Istanbul10/logic/Vote.sol\":2006:3648  if(_vote.status == VoteStatus.isvoting){... */\n      iszero\n      tag_210\n      jumpi\n        /* \"contracts/Template/Istanbul10/logic/Vote.sol\":2065:2070  _vote */\n      dup1\n        /* \"contracts/Template/Istanbul10/logic/Vote.sol\":2065:2083  _vote.VoterAddress */\n      0x0b\n      add\n        /* \"contracts/Template/Istanbul10/logic/Vote.sol\":2065:2095  _vote.VoterAddress[msg.sender] */\n      0x00\n        /* \"contracts/Template/Istanbul10/logic/Vote.sol\":2084:2094  msg.sender */\n      caller\n        /* \"contracts/Template/Istanbul10/logic/Vote.sol\":2065:2095  _vote.VoterAddress[msg.sender] */\n      0xffffffffffffffffffffffffffffffffffffffff\n      and\n      0xffffffffffffffffffffffffffffffffffffffff\n      and\n      dup2\n      mstore\n      0x20\n      add\n      swap1\n      dup2\n      mstore\n      0x20\n      add\n      0x00\n      keccak256\n        /* \"contracts/Template/Istanbul10/logic/Vote.sol\":2065:2101  _vote.VoterAddress[msg.sender].voted */\n      0x00\n      add\n      0x00\n      swap1\n      sload\n      swap1\n      0x0100\n      exp\n      swap1\n      div\n      0xff\n      and\n        /* \"contracts/Template/Istanbul10/logic/Vote.sol\":2064:2101  !_vote.VoterAddress[msg.sender].voted */\n      iszero\n        /* \"contracts/Template/Istanbul10/logic/Vote.sol\":2056:2116  require(!_vote.VoterAddress[msg.sender].voted,\"Vote before\") */\n      tag_211\n      jumpi\n      mload(0x40)\n      0x08c379a000000000000000000000000000000000000000000000000000000000\n      dup2\n      mstore\n      0x04\n      add\n      tag_212\n      swap1\n      tag_213\n      jump\t// in\n    tag_212:\n      mload(0x40)\n      dup1\n      swap2\n      sub\n      swap1\n      revert\n    tag_211:\n        /* \"contracts/Template/Istanbul10/logic/Vote.sol\":2168:2169  1 */\n      0x01\n        /* \"contracts/Template/Istanbul10/logic/Vote.sol\":2135:2142  veToken */\n      0x03\n      0x00\n      swap1\n      sload\n      swap1\n      0x0100\n      exp\n      swap1\n      div\n      0xffffffffffffffffffffffffffffffffffffffff\n      and\n        /* \"contracts/Template/Istanbul10/logic/Vote.sol\":2135:2152  veToken.balanceOf */\n      0xffffffffffffffffffffffffffffffffffffffff\n      and\n      0x70a08231\n        /* \"contracts/Template/Istanbul10/logic/Vote.sol\":2153:2163  msg.sender */\n      caller\n        /* \"contracts/Template/Istanbul10/logic/Vote.sol\":2135:2164  veToken.balanceOf(msg.sender) */\n      mload(0x40)\n      dup3\n      0xffffffff\n      and\n      0xe0\n      shl\n      dup2\n      mstore\n      0x04\n      add\n      tag_214\n      swap2\n      swap1\n      tag_49\n      jump\t// in\n    tag_214:\n      0x20\n      mload(0x40)\n      dup1\n      dup4\n      sub\n      dup2\n      dup7\n      gas\n      staticcall\n      iszero\n      dup1\n      iszero\n      tag_216\n      jumpi\n      returndatasize\n      0x00\n      dup1\n      returndatacopy\n      revert(0x00, returndatasize)\n    tag_216:\n      pop\n      pop\n      pop\n      pop\n      mload(0x40)\n      returndatasize\n      not(0x1f)\n      0x1f\n      dup3\n      add\n      and\n      dup3\n      add\n      dup1\n      0x40\n      mstore\n      pop\n      dup2\n      add\n      swap1\n      tag_217\n      swap2\n      swap1\n      tag_152\n      jump\t// in\n    tag_217:\n        /* \"contracts/Template/Istanbul10/logic/Vote.sol\":2135:2169  veToken.balanceOf(msg.sender) >= 1 */\n      lt\n      iszero\n        /* \"contracts/Template/Istanbul10/logic/Vote.sol\":2127:2193  require(veToken.balanceOf(msg.sender) >= 1,\"veToken less than 1 \") */\n      tag_218\n      jumpi\n      mload(0x40)\n      0x08c379a000000000000000000000000000000000000000000000000000000000\n      dup2\n      mstore\n      0x04\n      add\n      tag_219\n      swap1\n      tag_220\n      jump\t// in\n    tag_219:\n      mload(0x40)\n      dup1\n      swap2\n      sub\n      swap1\n      revert\n    tag_218:\n        /* \"contracts/Template/Istanbul10/logic/Vote.sol\":2230:2235  _vote */\n      dup1\n        /* \"contracts/Template/Istanbul10/logic/Vote.sol\":2230:2240  _vote.time */\n      0x02\n      add\n      sload\n        /* \"contracts/Template/Istanbul10/logic/Vote.sol\":2212:2227  block.timestamp */\n      timestamp\n        /* \"contracts/Template/Istanbul10/logic/Vote.sol\":2212:2240  block.timestamp < _vote.time */\n      lt\n        /* \"contracts/Template/Istanbul10/logic/Vote.sol\":2204:2272  require(block.timestamp < _vote.time,\"Not within the allotted time\") */\n      tag_221\n      jumpi\n      mload(0x40)\n      0x08c379a000000000000000000000000000000000000000000000000000000000\n      dup2\n      mstore\n      0x04\n      add\n      tag_222\n      swap1\n      tag_223\n      jump\t// in\n    tag_222:\n      mload(0x40)\n      dup1\n      swap2\n      sub\n      swap1\n      revert\n    tag_221:\n        /* \"contracts/Template/Istanbul10/logic/Vote.sol\":2322:2326  true */\n      0x01\n        /* \"contracts/Template/Istanbul10/logic/Vote.sol\":2283:2288  _vote */\n      dup2\n        /* \"contracts/Template/Istanbul10/logic/Vote.sol\":2283:2301  _vote.VoterAddress */\n      0x0b\n      add\n        /* \"contracts/Template/Istanbul10/logic/Vote.sol\":2283:2313  _vote.VoterAddress[msg.sender] */\n      0x00\n        /* \"contracts/Template/Istanbul10/logic/Vote.sol\":2302:2312  msg.sender */\n      caller\n        /* \"contracts/Template/Istanbul10/logic/Vote.sol\":2283:2313  _vote.VoterAddress[msg.sender] */\n      0xffffffffffffffffffffffffffffffffffffffff\n      and\n      0xffffffffffffffffffffffffffffffffffffffff\n      and\n      dup2\n      mstore\n      0x20\n      add\n      swap1\n      dup2\n      mstore\n      0x20\n      add\n      0x00\n      keccak256\n        /* \"contracts/Template/Istanbul10/logic/Vote.sol\":2283:2319  _vote.VoterAddress[msg.sender].voted */\n      0x00\n      add\n      0x00\n        /* \"contracts/Template/Istanbul10/logic/Vote.sol\":2283:2326  _vote.VoterAddress[msg.sender].voted = true */\n      0x0100\n      exp\n      dup2\n      sload\n      dup2\n      0xff\n      mul\n      not\n      and\n      swap1\n      dup4\n      iszero\n      iszero\n      mul\n      or\n      swap1\n      sstore\n      pop\n        /* \"contracts/Template/Istanbul10/logic/Vote.sol\":2342:2349  result_ */\n      dup3\n        /* \"contracts/Template/Istanbul10/logic/Vote.sol\":2339:2837  if(result_){... */\n      iszero\n      tag_224\n      jumpi\n        /* \"contracts/Template/Istanbul10/logic/Vote.sol\":2416:2417  0 */\n      0x00\n        /* \"contracts/Template/Istanbul10/logic/Vote.sol\":2368:2373  _vote */\n      dup2\n        /* \"contracts/Template/Istanbul10/logic/Vote.sol\":2368:2386  _vote.VoterAddress */\n      0x0b\n      add\n        /* \"contracts/Template/Istanbul10/logic/Vote.sol\":2368:2398  _vote.VoterAddress[msg.sender] */\n      0x00\n        /* \"contracts/Template/Istanbul10/logic/Vote.sol\":2387:2397  msg.sender */\n      caller\n        /* \"contracts/Template/Istanbul10/logic/Vote.sol\":2368:2398  _vote.VoterAddress[msg.sender] */\n      0xffffffffffffffffffffffffffffffffffffffff\n      and\n      0xffffffffffffffffffffffffffffffffffffffff\n      and\n      dup2\n      mstore\n      0x20\n      add\n      swap1\n      dup2\n      mstore\n      0x20\n      add\n      0x00\n      keccak256\n        /* \"contracts/Template/Istanbul10/logic/Vote.sol\":2368:2405  _vote.VoterAddress[msg.sender].bailor */\n      0x01\n      add\n        /* \"contracts/Template/Istanbul10/logic/Vote.sol\":2368:2412  _vote.VoterAddress[msg.sender].bailor.length */\n      dup1\n      sload\n      swap1\n      pop\n        /* \"contracts/Template/Istanbul10/logic/Vote.sol\":2368:2417  _vote.VoterAddress[msg.sender].bailor.length != 0 */\n      eq\n        /* \"contracts/Template/Istanbul10/logic/Vote.sol\":2365:2682  if(_vote.VoterAddress[msg.sender].bailor.length != 0){... */\n      tag_225\n      jumpi\n        /* \"contracts/Template/Istanbul10/logic/Vote.sol\":2441:2447  uint i */\n      0x00\n        /* \"contracts/Template/Istanbul10/logic/Vote.sol\":2437:2667  for(uint i = 0; i < _vote.VoterAddress[msg.sender].bailor.length; ++i){... */\n    tag_226:\n        /* \"contracts/Template/Istanbul10/logic/Vote.sol\":2457:2462  _vote */\n      dup2\n        /* \"contracts/Template/Istanbul10/logic/Vote.sol\":2457:2475  _vote.VoterAddress */\n      0x0b\n      add\n        /* \"contracts/Template/Istanbul10/logic/Vote.sol\":2457:2487  _vote.VoterAddress[msg.sender] */\n      0x00\n        /* \"contracts/Template/Istanbul10/logic/Vote.sol\":2476:2486  msg.sender */\n      caller\n        /* \"contracts/Template/Istanbul10/logic/Vote.sol\":2457:2487  _vote.VoterAddress[msg.sender] */\n      0xffffffffffffffffffffffffffffffffffffffff\n      and\n      0xffffffffffffffffffffffffffffffffffffffff\n      and\n      dup2\n      mstore\n      0x20\n      add\n      swap1\n      dup2\n      mstore\n      0x20\n      add\n      0x00\n      keccak256\n        /* \"contracts/Template/Istanbul10/logic/Vote.sol\":2457:2494  _vote.VoterAddress[msg.sender].bailor */\n      0x01\n      add\n        /* \"contracts/Template/Istanbul10/logic/Vote.sol\":2457:2501  _vote.VoterAddress[msg.sender].bailor.length */\n      dup1\n      sload\n      swap1\n      pop\n        /* \"contracts/Template/Istanbul10/logic/Vote.sol\":2453:2454  i */\n      dup2\n        /* \"contracts/Template/Istanbul10/logic/Vote.sol\":2453:2501  i < _vote.VoterAddress[msg.sender].bailor.length */\n      lt\n        /* \"contracts/Template/Istanbul10/logic/Vote.sol\":2437:2667  for(uint i = 0; i < _vote.VoterAddress[msg.sender].bailor.length; ++i){... */\n      iszero\n      tag_227\n      jumpi\n        /* \"contracts/Template/Istanbul10/logic/Vote.sol\":2530:2545  address deleAdd */\n      0x00\n        /* \"contracts/Template/Istanbul10/logic/Vote.sol\":2548:2553  _vote */\n      dup3\n        /* \"contracts/Template/Istanbul10/logic/Vote.sol\":2548:2566  _vote.VoterAddress */\n      0x0b\n      add\n        /* \"contracts/Template/Istanbul10/logic/Vote.sol\":2548:2578  _vote.VoterAddress[msg.sender] */\n      0x00\n        /* \"contracts/Template/Istanbul10/logic/Vote.sol\":2567:2577  msg.sender */\n      caller\n        /* \"contracts/Template/Istanbul10/logic/Vote.sol\":2548:2578  _vote.VoterAddress[msg.sender] */\n      0xffffffffffffffffffffffffffffffffffffffff\n      and\n      0xffffffffffffffffffffffffffffffffffffffff\n      and\n      dup2\n      mstore\n      0x20\n      add\n      swap1\n      dup2\n      mstore\n      0x20\n      add\n      0x00\n      keccak256\n        /* \"contracts/Template/Istanbul10/logic/Vote.sol\":2548:2585  _vote.VoterAddress[msg.sender].bailor */\n      0x01\n      add\n        /* \"contracts/Template/Istanbul10/logic/Vote.sol\":2586:2587  i */\n      dup3\n        /* \"contracts/Template/Istanbul10/logic/Vote.sol\":2548:2588  _vote.VoterAddress[msg.sender].bailor[i] */\n      dup2\n      sload\n      dup2\n      lt\n      tag_229\n      jumpi\n      tag_230\n      tag_138\n      jump\t// in\n    tag_230:\n    tag_229:\n      swap1\n      0x00\n      mstore\n      keccak256(0x00, 0x20)\n      add\n      0x00\n      swap1\n      sload\n      swap1\n      0x0100\n      exp\n      swap1\n      div\n      0xffffffffffffffffffffffffffffffffffffffff\n      and\n        /* \"contracts/Template/Istanbul10/logic/Vote.sol\":2530:2588  address deleAdd = _vote.VoterAddress[msg.sender].bailor[i] */\n      swap1\n      pop\n        /* \"contracts/Template/Istanbul10/logic/Vote.sol\":2621:2628  veToken */\n      0x03\n      0x00\n      swap1\n      sload\n      swap1\n      0x0100\n      exp\n      swap1\n      div\n      0xffffffffffffffffffffffffffffffffffffffff\n      and\n        /* \"contracts/Template/Istanbul10/logic/Vote.sol\":2621:2638  veToken.balanceOf */\n      0xffffffffffffffffffffffffffffffffffffffff\n      and\n      0x70a08231\n        /* \"contracts/Template/Istanbul10/logic/Vote.sol\":2639:2646  deleAdd */\n      dup3\n        /* \"contracts/Template/Istanbul10/logic/Vote.sol\":2621:2647  veToken.balanceOf(deleAdd) */\n      mload(0x40)\n      dup3\n      0xffffffff\n      and\n      0xe0\n      shl\n      dup2\n      mstore\n      0x04\n      add\n      tag_232\n      swap2\n      swap1\n      tag_49\n      jump\t// in\n    tag_232:\n      0x20\n      mload(0x40)\n      dup1\n      dup4\n      sub\n      dup2\n      dup7\n      gas\n      staticcall\n      iszero\n      dup1\n      iszero\n      tag_234\n      jumpi\n      returndatasize\n      0x00\n      dup1\n      returndatacopy\n      revert(0x00, returndatasize)\n    tag_234:\n      pop\n      pop\n      pop\n      pop\n      mload(0x40)\n      returndatasize\n      not(0x1f)\n      0x1f\n      dup3\n      add\n      and\n      dup3\n      add\n      dup1\n      0x40\n      mstore\n      pop\n      dup2\n      add\n      swap1\n      tag_235\n      swap2\n      swap1\n      tag_152\n      jump\t// in\n    tag_235:\n        /* \"contracts/Template/Istanbul10/logic/Vote.sol\":2611:2647  weight += veToken.balanceOf(deleAdd) */\n      dup5\n      tag_236\n      swap2\n      swap1\n      tag_166\n      jump\t// in\n    tag_236:\n      swap4\n      pop\n        /* \"contracts/Template/Istanbul10/logic/Vote.sol\":2507:2667  {... */\n      pop\n        /* \"contracts/Template/Istanbul10/logic/Vote.sol\":2503:2506  ++i */\n      dup1\n      tag_237\n      swap1\n      tag_140\n      jump\t// in\n    tag_237:\n      swap1\n      pop\n        /* \"contracts/Template/Istanbul10/logic/Vote.sol\":2437:2667  for(uint i = 0; i < _vote.VoterAddress[msg.sender].bailor.length; ++i){... */\n      jump(tag_226)\n    tag_227:\n      pop\n        /* \"contracts/Template/Istanbul10/logic/Vote.sol\":2365:2682  if(_vote.VoterAddress[msg.sender].bailor.length != 0){... */\n    tag_225:\n        /* \"contracts/Template/Istanbul10/logic/Vote.sol\":2714:2721  veToken */\n      0x03\n      0x00\n      swap1\n      sload\n      swap1\n      0x0100\n      exp\n      swap1\n      div\n      0xffffffffffffffffffffffffffffffffffffffff\n      and\n        /* \"contracts/Template/Istanbul10/logic/Vote.sol\":2714:2731  veToken.balanceOf */\n      0xffffffffffffffffffffffffffffffffffffffff\n      and\n      0x70a08231\n        /* \"contracts/Template/Istanbul10/logic/Vote.sol\":2732:2742  msg.sender */\n      caller\n        /* \"contracts/Template/Istanbul10/logic/Vote.sol\":2714:2743  veToken.balanceOf(msg.sender) */\n      mload(0x40)\n      dup3\n      0xffffffff\n      and\n      0xe0\n      shl\n      dup2\n      mstore\n      0x04\n      add\n      tag_238\n      swap2\n      swap1\n      tag_49\n      jump\t// in\n    tag_238:\n      0x20\n      mload(0x40)\n      dup1\n      dup4\n      sub\n      dup2\n      dup7\n      gas\n      staticcall\n      iszero\n      dup1\n      iszero\n      tag_240\n      jumpi\n      returndatasize\n      0x00\n      dup1\n      returndatacopy\n      revert(0x00, returndatasize)\n    tag_240:\n      pop\n      pop\n      pop\n      pop\n      mload(0x40)\n      returndatasize\n      not(0x1f)\n      0x1f\n      dup3\n      add\n      and\n      dup3\n      add\n      dup1\n      0x40\n      mstore\n      pop\n      dup2\n      add\n      swap1\n      tag_241\n      swap2\n      swap1\n      tag_152\n      jump\t// in\n    tag_241:\n        /* \"contracts/Template/Istanbul10/logic/Vote.sol\":2696:2701  _vote */\n      dup2\n        /* \"contracts/Template/Istanbul10/logic/Vote.sol\":2696:2710  _vote.supPopel */\n      0x06\n      add\n      0x00\n        /* \"contracts/Template/Istanbul10/logic/Vote.sol\":2696:2743  _vote.supPopel += veToken.balanceOf(msg.sender) */\n      dup3\n      dup3\n      sload\n      tag_242\n      swap2\n      swap1\n      tag_166\n      jump\t// in\n    tag_242:\n      swap3\n      pop\n      pop\n      dup2\n      swap1\n      sstore\n      pop\n        /* \"contracts/Template/Istanbul10/logic/Vote.sol\":2339:2837  if(result_){... */\n      jump(tag_243)\n    tag_224:\n        /* \"contracts/Template/Istanbul10/logic/Vote.sol\":2796:2803  veToken */\n      0x03\n      0x00\n      swap1\n      sload\n      swap1\n      0x0100\n      exp\n      swap1\n      div\n      0xffffffffffffffffffffffffffffffffffffffff\n      and\n        /* \"contracts/Template/Istanbul10/logic/Vote.sol\":2796:2813  veToken.balanceOf */\n      0xffffffffffffffffffffffffffffffffffffffff\n      and\n      0x70a08231\n        /* \"contracts/Template/Istanbul10/logic/Vote.sol\":2814:2824  msg.sender */\n      caller\n        /* \"contracts/Template/Istanbul10/logic/Vote.sol\":2796:2825  veToken.balanceOf(msg.sender) */\n      mload(0x40)\n      dup3\n      0xffffffff\n      and\n      0xe0\n      shl\n      dup2\n      mstore\n      0x04\n      add\n      tag_244\n      swap2\n      swap1\n      tag_49\n      jump\t// in\n    tag_244:\n      0x20\n      mload(0x40)\n      dup1\n      dup4\n      sub\n      dup2\n      dup7\n      gas\n      staticcall\n      iszero\n      dup1\n      iszero\n      tag_246\n      jumpi\n      returndatasize\n      0x00\n      dup1\n      returndatacopy\n      revert(0x00, returndatasize)\n    tag_246:\n      pop\n      pop\n      pop\n      pop\n      mload(0x40)\n      returndatasize\n      not(0x1f)\n      0x1f\n      dup3\n      add\n      and\n      dup3\n      add\n      dup1\n      0x40\n      mstore\n      pop\n      dup2\n      add\n      swap1\n      tag_247\n      swap2\n      swap1\n      tag_152\n      jump\t// in\n    tag_247:\n        /* \"contracts/Template/Istanbul10/logic/Vote.sol\":2774:2779  _vote */\n      dup2\n        /* \"contracts/Template/Istanbul10/logic/Vote.sol\":2774:2792  _vote.againstPopel */\n      0x07\n      add\n      0x00\n        /* \"contracts/Template/Istanbul10/logic/Vote.sol\":2774:2825  _vote.againstPopel += veToken.balanceOf(msg.sender) */\n      dup3\n      dup3\n      sload\n      tag_248\n      swap2\n      swap1\n      tag_166\n      jump\t// in\n    tag_248:\n      swap3\n      pop\n      pop\n      dup2\n      swap1\n      sstore\n      pop\n        /* \"contracts/Template/Istanbul10/logic/Vote.sol\":2339:2837  if(result_){... */\n    tag_243:\n        /* \"contracts/Template/Istanbul10/logic/Vote.sol\":2006:3648  if(_vote.status == VoteStatus.isvoting){... */\n      jump(tag_249)\n    tag_210:\n        /* \"contracts/Template/Istanbul10/logic/Vote.sol\":2896:2919  VoteStatus.secondBallot */\n      0x05\n        /* \"contracts/Template/Istanbul10/logic/Vote.sol\":2880:2919  _vote.status == VoteStatus.secondBallot */\n      0x06\n      dup2\n      gt\n      iszero\n      tag_250\n      jumpi\n      tag_251\n      tag_172\n      jump\t// in\n    tag_251:\n    tag_250:\n        /* \"contracts/Template/Istanbul10/logic/Vote.sol\":2880:2885  _vote */\n      dup2\n        /* \"contracts/Template/Istanbul10/logic/Vote.sol\":2880:2892  _vote.status */\n      0x08\n      add\n      0x00\n      swap1\n      sload\n      swap1\n      0x0100\n      exp\n      swap1\n      div\n      0xff\n      and\n        /* \"contracts/Template/Istanbul10/logic/Vote.sol\":2880:2919  _vote.status == VoteStatus.secondBallot */\n      0x06\n      dup2\n      gt\n      iszero\n      tag_252\n      jumpi\n      tag_253\n      tag_172\n      jump\t// in\n    tag_253:\n    tag_252:\n      eq\n        /* \"contracts/Template/Istanbul10/logic/Vote.sol\":2877:3648  if(_vote.status == VoteStatus.secondBallot) {... */\n      iszero\n      tag_254\n      jumpi\n        /* \"contracts/Template/Istanbul10/logic/Vote.sol\":2945:2950  _vote */\n      dup1\n        /* \"contracts/Template/Istanbul10/logic/Vote.sol\":2945:2956  _vote.svote */\n      0x0c\n      add\n        /* \"contracts/Template/Istanbul10/logic/Vote.sol\":2945:2969  _vote.svote.VoterAddress */\n      0x04\n      add\n        /* \"contracts/Template/Istanbul10/logic/Vote.sol\":2945:2981  _vote.svote.VoterAddress[msg.sender] */\n      0x00\n        /* \"contracts/Template/Istanbul10/logic/Vote.sol\":2970:2980  msg.sender */\n      caller\n        /* \"contracts/Template/Istanbul10/logic/Vote.sol\":2945:2981  _vote.svote.VoterAddress[msg.sender] */\n      0xffffffffffffffffffffffffffffffffffffffff\n      and\n      0xffffffffffffffffffffffffffffffffffffffff\n      and\n      dup2\n      mstore\n      0x20\n      add\n      swap1\n      dup2\n      mstore\n      0x20\n      add\n      0x00\n      keccak256\n        /* \"contracts/Template/Istanbul10/logic/Vote.sol\":2945:2987  _vote.svote.VoterAddress[msg.sender].voted */\n      0x00\n      add\n      0x00\n      swap1\n      sload\n      swap1\n      0x0100\n      exp\n      swap1\n      div\n      0xff\n      and\n        /* \"contracts/Template/Istanbul10/logic/Vote.sol\":2944:2987  !_vote.svote.VoterAddress[msg.sender].voted */\n      iszero\n        /* \"contracts/Template/Istanbul10/logic/Vote.sol\":2936:3002  require(!_vote.svote.VoterAddress[msg.sender].voted,\"Vote before\") */\n      tag_255\n      jumpi\n      mload(0x40)\n      0x08c379a000000000000000000000000000000000000000000000000000000000\n      dup2\n      mstore\n      0x04\n      add\n      tag_256\n      swap1\n      tag_213\n      jump\t// in\n    tag_256:\n      mload(0x40)\n      dup1\n      swap2\n      sub\n      swap1\n      revert\n    tag_255:\n        /* \"contracts/Template/Istanbul10/logic/Vote.sol\":3043:3048  _vote */\n      dup1\n        /* \"contracts/Template/Istanbul10/logic/Vote.sol\":3043:3053  _vote.time */\n      0x02\n      add\n      sload\n        /* \"contracts/Template/Istanbul10/logic/Vote.sol\":3025:3040  block.timestamp */\n      timestamp\n        /* \"contracts/Template/Istanbul10/logic/Vote.sol\":3025:3053  block.timestamp < _vote.time */\n      lt\n        /* \"contracts/Template/Istanbul10/logic/Vote.sol\":3017:3085  require(block.timestamp < _vote.time,\"Not within the allotted time\") */\n      tag_257\n      jumpi\n      mload(0x40)\n      0x08c379a000000000000000000000000000000000000000000000000000000000\n      dup2\n      mstore\n      0x04\n      add\n      tag_258\n      swap1\n      tag_223\n      jump\t// in\n    tag_258:\n      mload(0x40)\n      dup1\n      swap2\n      sub\n      swap1\n      revert\n    tag_257:\n        /* \"contracts/Template/Istanbul10/logic/Vote.sol\":3145:3149  true */\n      0x01\n        /* \"contracts/Template/Istanbul10/logic/Vote.sol\":3100:3105  _vote */\n      dup2\n        /* \"contracts/Template/Istanbul10/logic/Vote.sol\":3100:3111  _vote.svote */\n      0x0c\n      add\n        /* \"contracts/Template/Istanbul10/logic/Vote.sol\":3100:3124  _vote.svote.VoterAddress */\n      0x04\n      add\n        /* \"contracts/Template/Istanbul10/logic/Vote.sol\":3100:3136  _vote.svote.VoterAddress[msg.sender] */\n      0x00\n        /* \"contracts/Template/Istanbul10/logic/Vote.sol\":3125:3135  msg.sender */\n      caller\n        /* \"contracts/Template/Istanbul10/logic/Vote.sol\":3100:3136  _vote.svote.VoterAddress[msg.sender] */\n      0xffffffffffffffffffffffffffffffffffffffff\n      and\n      0xffffffffffffffffffffffffffffffffffffffff\n      and\n      dup2\n      mstore\n      0x20\n      add\n      swap1\n      dup2\n      mstore\n      0x20\n      add\n      0x00\n      keccak256\n        /* \"contracts/Template/Istanbul10/logic/Vote.sol\":3100:3142  _vote.svote.VoterAddress[msg.sender].voted */\n      0x00\n      add\n      0x00\n        /* \"contracts/Template/Istanbul10/logic/Vote.sol\":3100:3149  _vote.svote.VoterAddress[msg.sender].voted = true */\n      0x0100\n      exp\n      dup2\n      sload\n      dup2\n      0xff\n      mul\n      not\n      and\n      swap1\n      dup4\n      iszero\n      iszero\n      mul\n      or\n      swap1\n      sstore\n      pop\n        /* \"contracts/Template/Istanbul10/logic/Vote.sol\":3215:3216  0 */\n      0x00\n        /* \"contracts/Template/Istanbul10/logic/Vote.sol\":3167:3172  _vote */\n      dup2\n        /* \"contracts/Template/Istanbul10/logic/Vote.sol\":3167:3185  _vote.VoterAddress */\n      0x0b\n      add\n        /* \"contracts/Template/Istanbul10/logic/Vote.sol\":3167:3197  _vote.VoterAddress[msg.sender] */\n      0x00\n        /* \"contracts/Template/Istanbul10/logic/Vote.sol\":3186:3196  msg.sender */\n      caller\n        /* \"contracts/Template/Istanbul10/logic/Vote.sol\":3167:3197  _vote.VoterAddress[msg.sender] */\n      0xffffffffffffffffffffffffffffffffffffffff\n      and\n      0xffffffffffffffffffffffffffffffffffffffff\n      and\n      dup2\n      mstore\n      0x20\n      add\n      swap1\n      dup2\n      mstore\n      0x20\n      add\n      0x00\n      keccak256\n        /* \"contracts/Template/Istanbul10/logic/Vote.sol\":3167:3204  _vote.VoterAddress[msg.sender].bailor */\n      0x01\n      add\n        /* \"contracts/Template/Istanbul10/logic/Vote.sol\":3167:3211  _vote.VoterAddress[msg.sender].bailor.length */\n      dup1\n      sload\n      swap1\n      pop\n        /* \"contracts/Template/Istanbul10/logic/Vote.sol\":3167:3216  _vote.VoterAddress[msg.sender].bailor.length != 0 */\n      eq\n        /* \"contracts/Template/Istanbul10/logic/Vote.sol\":3164:3483  if(_vote.VoterAddress[msg.sender].bailor.length != 0){... */\n      tag_259\n      jumpi\n        /* \"contracts/Template/Istanbul10/logic/Vote.sol\":3240:3247  uint  i */\n      0x00\n        /* \"contracts/Template/Istanbul10/logic/Vote.sol\":3236:3468  for(uint  i = 0; i <  _vote.VoterAddress[msg.sender].bailor.length; ++i){... */\n    tag_260:\n        /* \"contracts/Template/Istanbul10/logic/Vote.sol\":3258:3263  _vote */\n      dup2\n        /* \"contracts/Template/Istanbul10/logic/Vote.sol\":3258:3276  _vote.VoterAddress */\n      0x0b\n      add\n        /* \"contracts/Template/Istanbul10/logic/Vote.sol\":3258:3288  _vote.VoterAddress[msg.sender] */\n      0x00\n        /* \"contracts/Template/Istanbul10/logic/Vote.sol\":3277:3287  msg.sender */\n      caller\n        /* \"contracts/Template/Istanbul10/logic/Vote.sol\":3258:3288  _vote.VoterAddress[msg.sender] */\n      0xffffffffffffffffffffffffffffffffffffffff\n      and\n      0xffffffffffffffffffffffffffffffffffffffff\n      and\n      dup2\n      mstore\n      0x20\n      add\n      swap1\n      dup2\n      mstore\n      0x20\n      add\n      0x00\n      keccak256\n        /* \"contracts/Template/Istanbul10/logic/Vote.sol\":3258:3295  _vote.VoterAddress[msg.sender].bailor */\n      0x01\n      add\n        /* \"contracts/Template/Istanbul10/logic/Vote.sol\":3258:3302  _vote.VoterAddress[msg.sender].bailor.length */\n      dup1\n      sload\n      swap1\n      pop\n        /* \"contracts/Template/Istanbul10/logic/Vote.sol\":3253:3254  i */\n      dup2\n        /* \"contracts/Template/Istanbul10/logic/Vote.sol\":3253:3302  i <  _vote.VoterAddress[msg.sender].bailor.length */\n      lt\n        /* \"contracts/Template/Istanbul10/logic/Vote.sol\":3236:3468  for(uint  i = 0; i <  _vote.VoterAddress[msg.sender].bailor.length; ++i){... */\n      iszero\n      tag_261\n      jumpi\n        /* \"contracts/Template/Istanbul10/logic/Vote.sol\":3331:3346  address deleAdd */\n      0x00\n        /* \"contracts/Template/Istanbul10/logic/Vote.sol\":3349:3354  _vote */\n      dup3\n        /* \"contracts/Template/Istanbul10/logic/Vote.sol\":3349:3367  _vote.VoterAddress */\n      0x0b\n      add\n        /* \"contracts/Template/Istanbul10/logic/Vote.sol\":3349:3379  _vote.VoterAddress[msg.sender] */\n      0x00\n        /* \"contracts/Template/Istanbul10/logic/Vote.sol\":3368:3378  msg.sender */\n      caller\n        /* \"contracts/Template/Istanbul10/logic/Vote.sol\":3349:3379  _vote.VoterAddress[msg.sender] */\n      0xffffffffffffffffffffffffffffffffffffffff\n      and\n      0xffffffffffffffffffffffffffffffffffffffff\n      and\n      dup2\n      mstore\n      0x20\n      add\n      swap1\n      dup2\n      mstore\n      0x20\n      add\n      0x00\n      keccak256\n        /* \"contracts/Template/Istanbul10/logic/Vote.sol\":3349:3386  _vote.VoterAddress[msg.sender].bailor */\n      0x01\n      add\n        /* \"contracts/Template/Istanbul10/logic/Vote.sol\":3387:3388  i */\n      dup3\n        /* \"contracts/Template/Istanbul10/logic/Vote.sol\":3349:3389  _vote.VoterAddress[msg.sender].bailor[i] */\n      dup2\n      sload\n      dup2\n      lt\n      tag_263\n      jumpi\n      tag_264\n      tag_138\n      jump\t// in\n    tag_264:\n    tag_263:\n      swap1\n      0x00\n      mstore\n      keccak256(0x00, 0x20)\n      add\n      0x00\n      swap1\n      sload\n      swap1\n      0x0100\n      exp\n      swap1\n      div\n      0xffffffffffffffffffffffffffffffffffffffff\n      and\n        /* \"contracts/Template/Istanbul10/logic/Vote.sol\":3331:3389  address deleAdd = _vote.VoterAddress[msg.sender].bailor[i] */\n      swap1\n      pop\n        /* \"contracts/Template/Istanbul10/logic/Vote.sol\":3422:3429  veToken */\n      0x03\n      0x00\n      swap1\n      sload\n      swap1\n      0x0100\n      exp\n      swap1\n      div\n      0xffffffffffffffffffffffffffffffffffffffff\n      and\n        /* \"contracts/Template/Istanbul10/logic/Vote.sol\":3422:3439  veToken.balanceOf */\n      0xffffffffffffffffffffffffffffffffffffffff\n      and\n      0x70a08231\n        /* \"contracts/Template/Istanbul10/logic/Vote.sol\":3440:3447  deleAdd */\n      dup3\n        /* \"contracts/Template/Istanbul10/logic/Vote.sol\":3422:3448  veToken.balanceOf(deleAdd) */\n      mload(0x40)\n      dup3\n      0xffffffff\n      and\n      0xe0\n      shl\n      dup2\n      mstore\n      0x04\n      add\n      tag_266\n      swap2\n      swap1\n      tag_49\n      jump\t// in\n    tag_266:\n      0x20\n      mload(0x40)\n      dup1\n      dup4\n      sub\n      dup2\n      dup7\n      gas\n      staticcall\n      iszero\n      dup1\n      iszero\n      tag_268\n      jumpi\n      returndatasize\n      0x00\n      dup1\n      returndatacopy\n      revert(0x00, returndatasize)\n    tag_268:\n      pop\n      pop\n      pop\n      pop\n      mload(0x40)\n      returndatasize\n      not(0x1f)\n      0x1f\n      dup3\n      add\n      and\n      dup3\n      add\n      dup1\n      0x40\n      mstore\n      pop\n      dup2\n      add\n      swap1\n      tag_269\n      swap2\n      swap1\n      tag_152\n      jump\t// in\n    tag_269:\n        /* \"contracts/Template/Istanbul10/logic/Vote.sol\":3412:3448  weight += veToken.balanceOf(deleAdd) */\n      dup5\n      tag_270\n      swap2\n      swap1\n      tag_166\n      jump\t// in\n    tag_270:\n      swap4\n      pop\n        /* \"contracts/Template/Istanbul10/logic/Vote.sol\":3308:3468  {... */\n      pop\n        /* \"contracts/Template/Istanbul10/logic/Vote.sol\":3304:3307  ++i */\n      dup1\n      tag_271\n      swap1\n      tag_140\n      jump\t// in\n    tag_271:\n      swap1\n      pop\n        /* \"contracts/Template/Istanbul10/logic/Vote.sol\":3236:3468  for(uint  i = 0; i <  _vote.VoterAddress[msg.sender].bailor.length; ++i){... */\n      jump(tag_260)\n    tag_261:\n      pop\n        /* \"contracts/Template/Istanbul10/logic/Vote.sol\":3164:3483  if(_vote.VoterAddress[msg.sender].bailor.length != 0){... */\n    tag_259:\n        /* \"contracts/Template/Istanbul10/logic/Vote.sol\":3519:3526  veToken */\n      0x03\n      0x00\n      swap1\n      sload\n      swap1\n      0x0100\n      exp\n      swap1\n      div\n      0xffffffffffffffffffffffffffffffffffffffff\n      and\n        /* \"contracts/Template/Istanbul10/logic/Vote.sol\":3519:3536  veToken.balanceOf */\n      0xffffffffffffffffffffffffffffffffffffffff\n      and\n      0x70a08231\n        /* \"contracts/Template/Istanbul10/logic/Vote.sol\":3537:3547  msg.sender */\n      caller\n        /* \"contracts/Template/Istanbul10/logic/Vote.sol\":3519:3548  veToken.balanceOf(msg.sender) */\n      mload(0x40)\n      dup3\n      0xffffffff\n      and\n      0xe0\n      shl\n      dup2\n      mstore\n      0x04\n      add\n      tag_272\n      swap2\n      swap1\n      tag_49\n      jump\t// in\n    tag_272:\n      0x20\n      mload(0x40)\n      dup1\n      dup4\n      sub\n      dup2\n      dup7\n      gas\n      staticcall\n      iszero\n      dup1\n      iszero\n      tag_274\n      jumpi\n      returndatasize\n      0x00\n      dup1\n      returndatacopy\n      revert(0x00, returndatasize)\n    tag_274:\n      pop\n      pop\n      pop\n      pop\n      mload(0x40)\n      returndatasize\n      not(0x1f)\n      0x1f\n      dup3\n      add\n      and\n      dup3\n      add\n      dup1\n      0x40\n      mstore\n      pop\n      dup2\n      add\n      swap1\n      tag_275\n      swap2\n      swap1\n      tag_152\n      jump\t// in\n    tag_275:\n        /* \"contracts/Template/Istanbul10/logic/Vote.sol\":3495:3500  _vote */\n      dup2\n        /* \"contracts/Template/Istanbul10/logic/Vote.sol\":3495:3506  _vote.svote */\n      0x0c\n      add\n        /* \"contracts/Template/Istanbul10/logic/Vote.sol\":3495:3515  _vote.svote.supPopel */\n      0x02\n      add\n      0x00\n        /* \"contracts/Template/Istanbul10/logic/Vote.sol\":3495:3548  _vote.svote.supPopel += veToken.balanceOf(msg.sender) */\n      dup3\n      dup3\n      sload\n      tag_276\n      swap2\n      swap1\n      tag_166\n      jump\t// in\n    tag_276:\n      swap3\n      pop\n      pop\n      dup2\n      swap1\n      sstore\n      pop\n        /* \"contracts/Template/Istanbul10/logic/Vote.sol\":2877:3648  if(_vote.status == VoteStatus.secondBallot) {... */\n      jump(tag_277)\n    tag_254:\n        /* \"contracts/Template/Istanbul10/logic/Vote.sol\":3607:3614  veToken */\n      0x03\n      0x00\n      swap1\n      sload\n      swap1\n      0x0100\n      exp\n      swap1\n      div\n      0xffffffffffffffffffffffffffffffffffffffff\n      and\n        /* \"contracts/Template/Istanbul10/logic/Vote.sol\":3607:3624  veToken.balanceOf */\n      0xffffffffffffffffffffffffffffffffffffffff\n      and\n      0x70a08231\n        /* \"contracts/Template/Istanbul10/logic/Vote.sol\":3625:3635  msg.sender */\n      caller\n        /* \"contracts/Template/Istanbul10/logic/Vote.sol\":3607:3636  veToken.balanceOf(msg.sender) */\n      mload(0x40)\n      dup3\n      0xffffffff\n      and\n      0xe0\n      shl\n      dup2\n      mstore\n      0x04\n      add\n      tag_278\n      swap2\n      swap1\n      tag_49\n      jump\t// in\n    tag_278:\n      0x20\n      mload(0x40)\n      dup1\n      dup4\n      sub\n      dup2\n      dup7\n      gas\n      staticcall\n      iszero\n      dup1\n      iszero\n      tag_280\n      jumpi\n      returndatasize\n      0x00\n      dup1\n      returndatacopy\n      revert(0x00, returndatasize)\n    tag_280:\n      pop\n      pop\n      pop\n      pop\n      mload(0x40)\n      returndatasize\n      not(0x1f)\n      0x1f\n      dup3\n      add\n      and\n      dup3\n      add\n      dup1\n      0x40\n      mstore\n      pop\n      dup2\n      add\n      swap1\n      tag_281\n      swap2\n      swap1\n      tag_152\n      jump\t// in\n    tag_281:\n        /* \"contracts/Template/Istanbul10/logic/Vote.sol\":3579:3584  _vote */\n      dup2\n        /* \"contracts/Template/Istanbul10/logic/Vote.sol\":3579:3590  _vote.svote */\n      0x0c\n      add\n        /* \"contracts/Template/Istanbul10/logic/Vote.sol\":3579:3603  _vote.svote.againstPopel */\n      0x03\n      add\n      0x00\n        /* \"contracts/Template/Istanbul10/logic/Vote.sol\":3579:3636  _vote.svote.againstPopel += veToken.balanceOf(msg.sender) */\n      dup3\n      dup3\n      sload\n      tag_282\n      swap2\n      swap1\n      tag_166\n      jump\t// in\n    tag_282:\n      swap3\n      pop\n      pop\n      dup2\n      swap1\n      sstore\n      pop\n        /* \"contracts/Template/Istanbul10/logic/Vote.sol\":2877:3648  if(_vote.status == VoteStatus.secondBallot) {... */\n    tag_277:\n        /* \"contracts/Template/Istanbul10/logic/Vote.sol\":2006:3648  if(_vote.status == VoteStatus.isvoting){... */\n    tag_249:\n        /* \"contracts/Template/Istanbul10/logic/Vote.sol\":3675:3682  voteId_ */\n      dup4\n        /* \"contracts/Template/Istanbul10/logic/Vote.sol\":3663:3691  ToVoteEvent(voteId_,result_) */\n      0x72869afc3552df414602b428f5e96b4eb3fab540271192c4f31eb3adaf5faf1e\n        /* \"contracts/Template/Istanbul10/logic/Vote.sol\":3683:3690  result_ */\n      dup5\n        /* \"contracts/Template/Istanbul10/logic/Vote.sol\":3663:3691  ToVoteEvent(voteId_,result_) */\n      mload(0x40)\n      tag_283\n      swap2\n      swap1\n      tag_37\n      jump\t// in\n    tag_283:\n      mload(0x40)\n      dup1\n      swap2\n      sub\n      swap1\n      log2\n        /* \"contracts/Template/Istanbul10/logic/Vote.sol\":1815:3699  {... */\n      pop\n      pop\n        /* \"contracts/Template/Istanbul10/logic/Vote.sol\":1751:3699  function toVote(uint256 voteId_,bool result_) external override {... */\n      pop\n      pop\n      jump\t// out\n        /* \"contracts/Template/Istanbul10/data/VoteData.sol\":365:402  uint256 public bufferTime = 1 minutes */\n    tag_76:\n      sload(0x01)\n      dup2\n      jump\t// out\n        /* \"contracts/Template/Istanbul10/logic/Vote.sol\":8811:9283  function winningProposal(uint256 voteId_) external override  view returns(uint256 forVote,... */\n    tag_80:\n        /* \"contracts/Template/Istanbul10/logic/Vote.sol\":8885:8900  uint256 forVote */\n      0x00\n        /* \"contracts/Template/Istanbul10/logic/Vote.sol\":8911:8930  uint256 againstVote */\n      dup1\n        /* \"contracts/Template/Istanbul10/logic/Vote.sol\":8941:8957  uint256 forVote2 */\n      0x00\n        /* \"contracts/Template/Istanbul10/logic/Vote.sol\":8968:8988  uint256 againstVote2 */\n      dup1\n        /* \"contracts/Template/Istanbul10/logic/Vote.sol\":8999:9011  uint256 time */\n      0x00\n        /* \"contracts/Template/Istanbul10/logic/Vote.sol\":9033:9057  VoteStruct storage _vote */\n      dup1\n        /* \"contracts/Template/Istanbul10/logic/Vote.sol\":9060:9068  voteMapp */\n      0x07\n        /* \"contracts/Template/Istanbul10/logic/Vote.sol\":9060:9077  voteMapp[voteId_] */\n      0x00\n        /* \"contracts/Template/Istanbul10/logic/Vote.sol\":9069:9076  voteId_ */\n      dup9\n        /* \"contracts/Template/Istanbul10/logic/Vote.sol\":9060:9077  voteMapp[voteId_] */\n      dup2\n      mstore\n      0x20\n      add\n      swap1\n      dup2\n      mstore\n      0x20\n      add\n      0x00\n      keccak256\n        /* \"contracts/Template/Istanbul10/logic/Vote.sol\":9033:9077  VoteStruct storage _vote = voteMapp[voteId_] */\n      swap1\n      pop\n        /* \"contracts/Template/Istanbul10/logic/Vote.sol\":9098:9103  _vote */\n      dup1\n        /* \"contracts/Template/Istanbul10/logic/Vote.sol\":9098:9112  _vote.supPopel */\n      0x06\n      add\n      sload\n        /* \"contracts/Template/Istanbul10/logic/Vote.sol\":9088:9112  forVote = _vote.supPopel */\n      swap6\n      pop\n        /* \"contracts/Template/Istanbul10/logic/Vote.sol\":9137:9142  _vote */\n      dup1\n        /* \"contracts/Template/Istanbul10/logic/Vote.sol\":9137:9155  _vote.againstPopel */\n      0x07\n      add\n      sload\n        /* \"contracts/Template/Istanbul10/logic/Vote.sol\":9123:9155  againstVote = _vote.againstPopel */\n      swap5\n      pop\n        /* \"contracts/Template/Istanbul10/logic/Vote.sol\":9177:9182  _vote */\n      dup1\n        /* \"contracts/Template/Istanbul10/logic/Vote.sol\":9177:9188  _vote.svote */\n      0x0c\n      add\n        /* \"contracts/Template/Istanbul10/logic/Vote.sol\":9177:9197  _vote.svote.supPopel */\n      0x02\n      add\n      sload\n        /* \"contracts/Template/Istanbul10/logic/Vote.sol\":9166:9197  forVote2 = _vote.svote.supPopel */\n      swap4\n      pop\n        /* \"contracts/Template/Istanbul10/logic/Vote.sol\":9223:9228  _vote */\n      dup1\n        /* \"contracts/Template/Istanbul10/logic/Vote.sol\":9223:9234  _vote.svote */\n      0x0c\n      add\n        /* \"contracts/Template/Istanbul10/logic/Vote.sol\":9223:9247  _vote.svote.againstPopel */\n      0x03\n      add\n      sload\n        /* \"contracts/Template/Istanbul10/logic/Vote.sol\":9208:9247  againstVote2 = _vote.svote.againstPopel */\n      swap3\n      pop\n        /* \"contracts/Template/Istanbul10/logic/Vote.sol\":9265:9270  _vote */\n      dup1\n        /* \"contracts/Template/Istanbul10/logic/Vote.sol\":9265:9275  _vote.time */\n      0x02\n      add\n      sload\n        /* \"contracts/Template/Istanbul10/logic/Vote.sol\":9258:9275  time = _vote.time */\n      swap2\n      pop\n        /* \"contracts/Template/Istanbul10/logic/Vote.sol\":9022:9283  {... */\n      pop\n        /* \"contracts/Template/Istanbul10/logic/Vote.sol\":8811:9283  function winningProposal(uint256 voteId_) external override  view returns(uint256 forVote,... */\n      swap2\n      swap4\n      swap6\n      swap1\n      swap3\n      swap5\n      pop\n      jump\t// out\n        /* \"contracts/Template/Istanbul10/data/VoteData.sol\":280:316  uint256 public  voteTime = 1 minutes */\n    tag_84:\n      sload(0x00)\n      dup2\n      jump\t// out\n        /* \"contracts/Template/Istanbul10/logic/Vote.sol\":8204:8396  function getVoteStatuswithVoteId(uint256 voteId_) external view returns (uint256  status){... */\n    tag_88:\n        /* \"contracts/Template/Istanbul10/logic/Vote.sol\":8277:8292  uint256  status */\n      0x00\n        /* \"contracts/Template/Istanbul10/logic/Vote.sol\":8304:8329  VoteStruct storage  _vote */\n      dup1\n        /* \"contracts/Template/Istanbul10/logic/Vote.sol\":8332:8340  voteMapp */\n      0x07\n        /* \"contracts/Template/Istanbul10/logic/Vote.sol\":8332:8349  voteMapp[voteId_] */\n      0x00\n        /* \"contracts/Template/Istanbul10/logic/Vote.sol\":8341:8348  voteId_ */\n      dup5\n        /* \"contracts/Template/Istanbul10/logic/Vote.sol\":8332:8349  voteMapp[voteId_] */\n      dup2\n      mstore\n      0x20\n      add\n      swap1\n      dup2\n      mstore\n      0x20\n      add\n      0x00\n      keccak256\n        /* \"contracts/Template/Istanbul10/logic/Vote.sol\":8304:8349  VoteStruct storage  _vote = voteMapp[voteId_] */\n      swap1\n      pop\n        /* \"contracts/Template/Istanbul10/logic/Vote.sol\":8375:8380  _vote */\n      dup1\n        /* \"contracts/Template/Istanbul10/logic/Vote.sol\":8375:8387  _vote.status */\n      0x08\n      add\n      0x00\n      swap1\n      sload\n      swap1\n      0x0100\n      exp\n      swap1\n      div\n      0xff\n      and\n        /* \"contracts/Template/Istanbul10/logic/Vote.sol\":8367:8388  uint256(_vote.status) */\n      0x06\n      dup2\n      gt\n      iszero\n      tag_286\n      jumpi\n      tag_287\n      tag_172\n      jump\t// in\n    tag_287:\n    tag_286:\n        /* \"contracts/Template/Istanbul10/logic/Vote.sol\":8360:8388  return uint256(_vote.status) */\n      swap2\n      pop\n      pop\n        /* \"contracts/Template/Istanbul10/logic/Vote.sol\":8204:8396  function getVoteStatuswithVoteId(uint256 voteId_) external view returns (uint256  status){... */\n      swap2\n      swap1\n      pop\n      jump\t// out\n        /* \"contracts/Template/Istanbul10/logic/Vote.sol\":7629:8196  function setGovernanceTemplate(string memory topic_,address targetAddress_,string memory  functionName_) external override  {... */\n    tag_93:\n        /* \"contracts/Template/Istanbul10/logic/Vote.sol\":7772:7787  onlyWhiteList() */\n      tag_289\n        /* \"contracts/Template/Istanbul10/logic/Vote.sol\":7772:7785  onlyWhiteList */\n      tag_290\n        /* \"contracts/Template/Istanbul10/logic/Vote.sol\":7772:7787  onlyWhiteList() */\n      jump\t// in\n    tag_289:\n        /* \"contracts/Template/Istanbul10/logic/Vote.sol\":7764:7823  require(onlyWhiteList(),\"whiteList :: Address check error\") */\n      tag_291\n      jumpi\n      mload(0x40)\n      0x08c379a000000000000000000000000000000000000000000000000000000000\n      dup2\n      mstore\n      0x04\n      add\n      tag_292\n      swap1\n      tag_293\n      jump\t// in\n    tag_292:\n      mload(0x40)\n      dup1\n      swap2\n      sub\n      swap1\n      revert\n    tag_291:\n        /* \"contracts/Template/Istanbul10/logic/Vote.sol\":7834:7871  GgovernanceTemplate storage _Template */\n      0x00\n        /* \"contracts/Template/Istanbul10/logic/Vote.sol\":7874:7882  template */\n      0x08\n        /* \"contracts/Template/Istanbul10/logic/Vote.sol\":7874:7897  template[templateTotal] */\n      0x00\n        /* \"contracts/Template/Istanbul10/logic/Vote.sol\":7883:7896  templateTotal */\n      sload(0x06)\n        /* \"contracts/Template/Istanbul10/logic/Vote.sol\":7874:7897  template[templateTotal] */\n      dup2\n      mstore\n      0x20\n      add\n      swap1\n      dup2\n      mstore\n      0x20\n      add\n      0x00\n      keccak256\n        /* \"contracts/Template/Istanbul10/logic/Vote.sol\":7834:7897  GgovernanceTemplate storage _Template = template[templateTotal] */\n      swap1\n      pop\n        /* \"contracts/Template/Istanbul10/logic/Vote.sol\":7932:7945  templateTotal */\n      sload(0x06)\n        /* \"contracts/Template/Istanbul10/logic/Vote.sol\":7909:7918  _Template */\n      dup2\n        /* \"contracts/Template/Istanbul10/logic/Vote.sol\":7909:7929  _Template.templateId */\n      0x00\n      add\n        /* \"contracts/Template/Istanbul10/logic/Vote.sol\":7909:7945  _Template.templateId = templateTotal */\n      dup2\n      swap1\n      sstore\n      pop\n        /* \"contracts/Template/Istanbul10/logic/Vote.sol\":7982:7996  targetAddress_ */\n      dup3\n        /* \"contracts/Template/Istanbul10/logic/Vote.sol\":7956:7965  _Template */\n      dup2\n        /* \"contracts/Template/Istanbul10/logic/Vote.sol\":7956:7979  _Template.targetAddress */\n      0x02\n      add\n      0x00\n        /* \"contracts/Template/Istanbul10/logic/Vote.sol\":7956:7996  _Template.targetAddress = targetAddress_ */\n      0x0100\n      exp\n      dup2\n      sload\n      dup2\n      0xffffffffffffffffffffffffffffffffffffffff\n      mul\n      not\n      and\n      swap1\n      dup4\n      0xffffffffffffffffffffffffffffffffffffffff\n      and\n      mul\n      or\n      swap1\n      sstore\n      pop\n        /* \"contracts/Template/Istanbul10/logic/Vote.sol\":8032:8045  functionName_ */\n      dup2\n        /* \"contracts/Template/Istanbul10/logic/Vote.sol\":8007:8016  _Template */\n      dup2\n        /* \"contracts/Template/Istanbul10/logic/Vote.sol\":8007:8029  _Template.functionName */\n      0x03\n      add\n        /* \"contracts/Template/Istanbul10/logic/Vote.sol\":8007:8045  _Template.functionName = functionName_ */\n      swap1\n      dup1\n      mload\n      swap1\n      0x20\n      add\n      swap1\n      tag_294\n      swap3\n      swap2\n      swap1\n      tag_181\n      jump\t// in\n    tag_294:\n      pop\n        /* \"contracts/Template/Istanbul10/logic/Vote.sol\":8075:8081  topic_ */\n      dup4\n        /* \"contracts/Template/Istanbul10/logic/Vote.sol\":8056:8065  _Template */\n      dup2\n        /* \"contracts/Template/Istanbul10/logic/Vote.sol\":8056:8072  _Template.toppic */\n      0x01\n      add\n        /* \"contracts/Template/Istanbul10/logic/Vote.sol\":8056:8081  _Template.toppic = topic_ */\n      swap1\n      dup1\n      mload\n      swap1\n      0x20\n      add\n      swap1\n      tag_295\n      swap3\n      swap2\n      swap1\n      tag_181\n      jump\t// in\n    tag_295:\n      pop\n        /* \"contracts/Template/Istanbul10/logic/Vote.sol\":8092:8105  templateTotal */\n      0x06\n      0x00\n        /* \"contracts/Template/Istanbul10/logic/Vote.sol\":8092:8108  templateTotal ++ */\n      dup2\n      sload\n      dup1\n      swap3\n      swap2\n      swap1\n      tag_296\n      swap1\n      tag_140\n      jump\t// in\n    tag_296:\n      swap2\n      swap1\n      pop\n      sstore\n      pop\n        /* \"contracts/Template/Istanbul10/logic/Vote.sol\":8126:8189  SetGovernanceTemplateEvent(topic_,targetAddress_,functionName_) */\n      0x291fb4c9ec38b653e778aad63d42ce4710da5b91c49a033ba04963dd409300eb\n        /* \"contracts/Template/Istanbul10/logic/Vote.sol\":8153:8159  topic_ */\n      dup5\n        /* \"contracts/Template/Istanbul10/logic/Vote.sol\":8160:8174  targetAddress_ */\n      dup5\n        /* \"contracts/Template/Istanbul10/logic/Vote.sol\":8175:8188  functionName_ */\n      dup5\n        /* \"contracts/Template/Istanbul10/logic/Vote.sol\":8126:8189  SetGovernanceTemplateEvent(topic_,targetAddress_,functionName_) */\n      mload(0x40)\n      tag_297\n      swap4\n      swap3\n      swap2\n      swap1\n      tag_298\n      jump\t// in\n    tag_297:\n      mload(0x40)\n      dup1\n      swap2\n      sub\n      swap1\n      log1\n        /* \"contracts/Template/Istanbul10/logic/Vote.sol\":7753:8196  {... */\n      pop\n        /* \"contracts/Template/Istanbul10/logic/Vote.sol\":7629:8196  function setGovernanceTemplate(string memory topic_,address targetAddress_,string memory  functionName_) external override  {... */\n      pop\n      pop\n      pop\n      jump\t// out\n        /* \"contracts/Template/Istanbul10/logic/Vote.sol\":9407:9627  function getTest(uint256 voteId_) public  view returns (uint256 time , uint256 voteTime){... */\n    tag_96:\n        /* \"contracts/Template/Istanbul10/logic/Vote.sol\":9463:9475  uint256 time */\n      0x00\n        /* \"contracts/Template/Istanbul10/logic/Vote.sol\":9478:9494  uint256 voteTime */\n      dup1\n        /* \"contracts/Template/Istanbul10/logic/Vote.sol\":9506:9530  VoteStruct storage _vote */\n      0x00\n        /* \"contracts/Template/Istanbul10/logic/Vote.sol\":9533:9541  voteMapp */\n      0x07\n        /* \"contracts/Template/Istanbul10/logic/Vote.sol\":9533:9550  voteMapp[voteId_] */\n      0x00\n        /* \"contracts/Template/Istanbul10/logic/Vote.sol\":9542:9549  voteId_ */\n      dup6\n        /* \"contracts/Template/Istanbul10/logic/Vote.sol\":9533:9550  voteMapp[voteId_] */\n      dup2\n      mstore\n      0x20\n      add\n      swap1\n      dup2\n      mstore\n      0x20\n      add\n      0x00\n      keccak256\n        /* \"contracts/Template/Istanbul10/logic/Vote.sol\":9506:9550  VoteStruct storage _vote = voteMapp[voteId_] */\n      swap1\n      pop\n        /* \"contracts/Template/Istanbul10/logic/Vote.sol\":9570:9585  block.timestamp */\n      timestamp\n        /* \"contracts/Template/Istanbul10/logic/Vote.sol\":9564:9585  time= block.timestamp */\n      swap3\n      pop\n        /* \"contracts/Template/Istanbul10/logic/Vote.sol\":9609:9614  _vote */\n      dup1\n        /* \"contracts/Template/Istanbul10/logic/Vote.sol\":9609:9619  _vote.time */\n      0x02\n      add\n      sload\n        /* \"contracts/Template/Istanbul10/logic/Vote.sol\":9599:9619  voteTime =_vote.time */\n      swap2\n      pop\n        /* \"contracts/Template/Istanbul10/logic/Vote.sol\":9495:9627  {... */\n      pop\n        /* \"contracts/Template/Istanbul10/logic/Vote.sol\":9407:9627  function getTest(uint256 voteId_) public  view returns (uint256 time , uint256 voteTime){... */\n      swap2\n      pop\n      swap2\n      jump\t// out\n        /* \"contracts/Template/Istanbul10/data/VoteData.sol\":415:436  address public router */\n    tag_100:\n      0x02\n      0x00\n      swap1\n      sload\n      swap1\n      0x0100\n      exp\n      swap1\n      div\n      0xffffffffffffffffffffffffffffffffffffffff\n      and\n      dup2\n      jump\t// out\n        /* \"contracts/Template/Istanbul10/logic/Vote.sol\":627:1709  function createVote(... */\n    tag_105:\n        /* \"contracts/Template/Istanbul10/logic/Vote.sol\":811:825  uint256 voteId */\n      0x00\n        /* \"contracts/Template/Istanbul10/logic/Vote.sol\":870:871  0 */\n      dup1\n        /* \"contracts/Template/Istanbul10/logic/Vote.sol\":845:852  veToken */\n      0x03\n      0x00\n      swap1\n      sload\n      swap1\n      0x0100\n      exp\n      swap1\n      div\n      0xffffffffffffffffffffffffffffffffffffffff\n      and\n        /* \"contracts/Template/Istanbul10/logic/Vote.sol\":845:864  veToken.totalSupply */\n      0xffffffffffffffffffffffffffffffffffffffff\n      and\n      0x18160ddd\n        /* \"contracts/Template/Istanbul10/logic/Vote.sol\":845:866  veToken.totalSupply() */\n      mload(0x40)\n      dup2\n      0xffffffff\n      and\n      0xe0\n      shl\n      dup2\n      mstore\n      0x04\n      add\n      0x20\n      mload(0x40)\n      dup1\n      dup4\n      sub\n      dup2\n      dup7\n      gas\n      staticcall\n      iszero\n      dup1\n      iszero\n      tag_302\n      jumpi\n      returndatasize\n      0x00\n      dup1\n      returndatacopy\n      revert(0x00, returndatasize)\n    tag_302:\n      pop\n      pop\n      pop\n      pop\n      mload(0x40)\n      returndatasize\n      not(0x1f)\n      0x1f\n      dup3\n      add\n      and\n      dup3\n      add\n      dup1\n      0x40\n      mstore\n      pop\n      dup2\n      add\n      swap1\n      tag_303\n      swap2\n      swap1\n      tag_152\n      jump\t// in\n    tag_303:\n        /* \"contracts/Template/Istanbul10/logic/Vote.sol\":845:871  veToken.totalSupply() != 0 */\n      eq\n      iszero\n        /* \"contracts/Template/Istanbul10/logic/Vote.sol\":837:895  require(veToken.totalSupply() != 0, \" veTokenSupply == 0\") */\n      tag_304\n      jumpi\n      mload(0x40)\n      0x08c379a000000000000000000000000000000000000000000000000000000000\n      dup2\n      mstore\n      0x04\n      add\n      tag_305\n      swap1\n      tag_306\n      jump\t// in\n    tag_305:\n      mload(0x40)\n      dup1\n      swap2\n      sub\n      swap1\n      revert\n    tag_304:\n        /* \"contracts/Template/Istanbul10/logic/Vote.sol\":906:926  uint256 _totalsupply */\n      0x00\n        /* \"contracts/Template/Istanbul10/logic/Vote.sol\":971:974  100 */\n      0x64\n        /* \"contracts/Template/Istanbul10/logic/Vote.sol\":953:968  minimumQuantity */\n      sload(0x0a)\n        /* \"contracts/Template/Istanbul10/logic/Vote.sol\":929:936  veToken */\n      0x03\n      0x00\n      swap1\n      sload\n      swap1\n      0x0100\n      exp\n      swap1\n      div\n      0xffffffffffffffffffffffffffffffffffffffff\n      and\n        /* \"contracts/Template/Istanbul10/logic/Vote.sol\":929:948  veToken.totalSupply */\n      0xffffffffffffffffffffffffffffffffffffffff\n      and\n      0x18160ddd\n        /* \"contracts/Template/Istanbul10/logic/Vote.sol\":929:950  veToken.totalSupply() */\n      mload(0x40)\n      dup2\n      0xffffffff\n      and\n      0xe0\n      shl\n      dup2\n      mstore\n      0x04\n      add\n      0x20\n      mload(0x40)\n      dup1\n      dup4\n      sub\n      dup2\n      dup7\n      gas\n      staticcall\n      iszero\n      dup1\n      iszero\n      tag_308\n      jumpi\n      returndatasize\n      0x00\n      dup1\n      returndatacopy\n      revert(0x00, returndatasize)\n    tag_308:\n      pop\n      pop\n      pop\n      pop\n      mload(0x40)\n      returndatasize\n      not(0x1f)\n      0x1f\n      dup3\n      add\n      and\n      dup3\n      add\n      dup1\n      0x40\n      mstore\n      pop\n      dup2\n      add\n      swap1\n      tag_309\n      swap2\n      swap1\n      tag_152\n      jump\t// in\n    tag_309:\n        /* \"contracts/Template/Istanbul10/logic/Vote.sol\":929:968  veToken.totalSupply() * minimumQuantity */\n      tag_310\n      swap2\n      swap1\n      tag_154\n      jump\t// in\n    tag_310:\n        /* \"contracts/Template/Istanbul10/logic/Vote.sol\":929:974  veToken.totalSupply() * minimumQuantity / 100 */\n      tag_311\n      swap2\n      swap1\n      tag_156\n      jump\t// in\n    tag_311:\n        /* \"contracts/Template/Istanbul10/logic/Vote.sol\":906:974  uint256 _totalsupply = veToken.totalSupply() * minimumQuantity / 100 */\n      swap1\n      pop\n        /* \"contracts/Template/Istanbul10/logic/Vote.sol\":1026:1038  _totalsupply */\n      dup1\n        /* \"contracts/Template/Istanbul10/logic/Vote.sol\":993:1000  veToken */\n      0x03\n      0x00\n      swap1\n      sload\n      swap1\n      0x0100\n      exp\n      swap1\n      div\n      0xffffffffffffffffffffffffffffffffffffffff\n      and\n        /* \"contracts/Template/Istanbul10/logic/Vote.sol\":993:1010  veToken.balanceOf */\n      0xffffffffffffffffffffffffffffffffffffffff\n      and\n      0x70a08231\n        /* \"contracts/Template/Istanbul10/logic/Vote.sol\":1011:1021  msg.sender */\n      caller\n        /* \"contracts/Template/Istanbul10/logic/Vote.sol\":993:1022  veToken.balanceOf(msg.sender) */\n      mload(0x40)\n      dup3\n      0xffffffff\n      and\n      0xe0\n      shl\n      dup2\n      mstore\n      0x04\n      add\n      tag_312\n      swap2\n      swap1\n      tag_49\n      jump\t// in\n    tag_312:\n      0x20\n      mload(0x40)\n      dup1\n      dup4\n      sub\n      dup2\n      dup7\n      gas\n      staticcall\n      iszero\n      dup1\n      iszero\n      tag_314\n      jumpi\n      returndatasize\n      0x00\n      dup1\n      returndatacopy\n      revert(0x00, returndatasize)\n    tag_314:\n      pop\n      pop\n      pop\n      pop\n      mload(0x40)\n      returndatasize\n      not(0x1f)\n      0x1f\n      dup3\n      add\n      and\n      dup3\n      add\n      dup1\n      0x40\n      mstore\n      pop\n      dup2\n      add\n      swap1\n      tag_315\n      swap2\n      swap1\n      tag_152\n      jump\t// in\n    tag_315:\n        /* \"contracts/Template/Istanbul10/logic/Vote.sol\":993:1038  veToken.balanceOf(msg.sender) >= _totalsupply */\n      lt\n      iszero\n        /* \"contracts/Template/Istanbul10/logic/Vote.sol\":985:1065  require(veToken.balanceOf(msg.sender) >= _totalsupply,\"Too few tokens are held\") */\n      tag_316\n      jumpi\n      mload(0x40)\n      0x08c379a000000000000000000000000000000000000000000000000000000000\n      dup2\n      mstore\n      0x04\n      add\n      tag_317\n      swap1\n      tag_163\n      jump\t// in\n    tag_317:\n      mload(0x40)\n      dup1\n      swap2\n      sub\n      swap1\n      revert\n    tag_316:\n        /* \"contracts/Template/Istanbul10/logic/Vote.sol\":1078:1088  voteTatola */\n      0x04\n      0x00\n        /* \"contracts/Template/Istanbul10/logic/Vote.sol\":1078:1091  voteTatola ++ */\n      dup2\n      sload\n      dup1\n      swap3\n      swap2\n      swap1\n      tag_318\n      swap1\n      tag_140\n      jump\t// in\n    tag_318:\n      swap2\n      swap1\n      pop\n      sstore\n      pop\n        /* \"contracts/Template/Istanbul10/logic/Vote.sol\":1102:1133  VoteStruct  storage _VoteStruct */\n      0x00\n        /* \"contracts/Template/Istanbul10/logic/Vote.sol\":1136:1144  voteMapp */\n      0x07\n        /* \"contracts/Template/Istanbul10/logic/Vote.sol\":1136:1156  voteMapp[voteTatola] */\n      0x00\n        /* \"contracts/Template/Istanbul10/logic/Vote.sol\":1145:1155  voteTatola */\n      sload(0x04)\n        /* \"contracts/Template/Istanbul10/logic/Vote.sol\":1136:1156  voteMapp[voteTatola] */\n      dup2\n      mstore\n      0x20\n      add\n      swap1\n      dup2\n      mstore\n      0x20\n      add\n      0x00\n      keccak256\n        /* \"contracts/Template/Istanbul10/logic/Vote.sol\":1102:1156  VoteStruct  storage _VoteStruct = voteMapp[voteTatola] */\n      swap1\n      pop\n        /* \"contracts/Template/Istanbul10/logic/Vote.sol\":1193:1205  _totalsupply */\n      dup2\n        /* \"contracts/Template/Istanbul10/logic/Vote.sol\":1167:1178  _VoteStruct */\n      dup2\n        /* \"contracts/Template/Istanbul10/logic/Vote.sol\":1167:1190  _VoteStruct.totalsupply */\n      0x00\n      add\n        /* \"contracts/Template/Istanbul10/logic/Vote.sol\":1167:1205  _VoteStruct.totalsupply = _totalsupply */\n      dup2\n      swap1\n      sstore\n      pop\n        /* \"contracts/Template/Istanbul10/logic/Vote.sol\":1240:1250  voteTopic_ */\n      dup7\n        /* \"contracts/Template/Istanbul10/logic/Vote.sol\":1216:1227  _VoteStruct */\n      dup2\n        /* \"contracts/Template/Istanbul10/logic/Vote.sol\":1216:1237  _VoteStruct.voteTopic */\n      0x03\n      add\n        /* \"contracts/Template/Istanbul10/logic/Vote.sol\":1216:1250  _VoteStruct.voteTopic = voteTopic_ */\n      swap1\n      dup1\n      mload\n      swap1\n      0x20\n      add\n      swap1\n      tag_319\n      swap3\n      swap2\n      swap1\n      tag_181\n      jump\t// in\n    tag_319:\n      pop\n        /* \"contracts/Template/Istanbul10/logic/Vote.sol\":1282:1292  voteTatola */\n      sload(0x04)\n        /* \"contracts/Template/Istanbul10/logic/Vote.sol\":1261:1272  _VoteStruct */\n      dup2\n        /* \"contracts/Template/Istanbul10/logic/Vote.sol\":1261:1279  _VoteStruct.voteId */\n      0x01\n      add\n        /* \"contracts/Template/Istanbul10/logic/Vote.sol\":1261:1292  _VoteStruct.voteId = voteTatola */\n      dup2\n      swap1\n      sstore\n      pop\n        /* \"contracts/Template/Istanbul10/logic/Vote.sol\":1340:1348  voteTime */\n      sload(0x00)\n        /* \"contracts/Template/Istanbul10/logic/Vote.sol\":1322:1337  block.timestamp */\n      timestamp\n        /* \"contracts/Template/Istanbul10/logic/Vote.sol\":1322:1348  block.timestamp + voteTime */\n      tag_320\n      swap2\n      swap1\n      tag_166\n      jump\t// in\n    tag_320:\n        /* \"contracts/Template/Istanbul10/logic/Vote.sol\":1303:1314  _VoteStruct */\n      dup2\n        /* \"contracts/Template/Istanbul10/logic/Vote.sol\":1303:1319  _VoteStruct.time */\n      0x02\n      add\n        /* \"contracts/Template/Istanbul10/logic/Vote.sol\":1303:1348  _VoteStruct.time = block.timestamp + voteTime */\n      dup2\n      swap1\n      sstore\n      pop\n        /* \"contracts/Template/Istanbul10/logic/Vote.sol\":1383:1393  msg.sender */\n      caller\n        /* \"contracts/Template/Istanbul10/logic/Vote.sol\":1359:1370  _VoteStruct */\n      dup2\n        /* \"contracts/Template/Istanbul10/logic/Vote.sol\":1359:1380  _VoteStruct.initiator */\n      0x04\n      add\n      0x00\n        /* \"contracts/Template/Istanbul10/logic/Vote.sol\":1359:1393  _VoteStruct.initiator = msg.sender */\n      0x0100\n      exp\n      dup2\n      sload\n      dup2\n      0xffffffffffffffffffffffffffffffffffffffff\n      mul\n      not\n      and\n      swap1\n      dup4\n      0xffffffffffffffffffffffffffffffffffffffff\n      and\n      mul\n      or\n      swap1\n      sstore\n      pop\n        /* \"contracts/Template/Istanbul10/logic/Vote.sol\":1427:1436  describe_ */\n      dup6\n        /* \"contracts/Template/Istanbul10/logic/Vote.sol\":1404:1415  _VoteStruct */\n      dup2\n        /* \"contracts/Template/Istanbul10/logic/Vote.sol\":1404:1424  _VoteStruct.describe */\n      0x05\n      add\n        /* \"contracts/Template/Istanbul10/logic/Vote.sol\":1404:1436  _VoteStruct.describe = describe_ */\n      swap1\n      dup1\n      mload\n      swap1\n      0x20\n      add\n      swap1\n      tag_321\n      swap3\n      swap2\n      swap1\n      tag_181\n      jump\t// in\n    tag_321:\n      pop\n        /* \"contracts/Template/Istanbul10/logic/Vote.sol\":1468:1487  VoteStatus.isvoting */\n      0x01\n        /* \"contracts/Template/Istanbul10/logic/Vote.sol\":1447:1458  _VoteStruct */\n      dup2\n        /* \"contracts/Template/Istanbul10/logic/Vote.sol\":1447:1465  _VoteStruct.status */\n      0x08\n      add\n      0x00\n        /* \"contracts/Template/Istanbul10/logic/Vote.sol\":1447:1487  _VoteStruct.status = VoteStatus.isvoting */\n      0x0100\n      exp\n      dup2\n      sload\n      dup2\n      0xff\n      mul\n      not\n      and\n      swap1\n      dup4\n      0x06\n      dup2\n      gt\n      iszero\n      tag_322\n      jumpi\n      tag_323\n      tag_172\n      jump\t// in\n    tag_323:\n    tag_322:\n      mul\n      or\n      swap1\n      sstore\n      pop\n        /* \"contracts/Template/Istanbul10/logic/Vote.sol\":1522:1532  codeModel_ */\n      dup5\n        /* \"contracts/Template/Istanbul10/logic/Vote.sol\":1498:1509  _VoteStruct */\n      dup2\n        /* \"contracts/Template/Istanbul10/logic/Vote.sol\":1498:1519  _VoteStruct.codeModel */\n      0x09\n      add\n        /* \"contracts/Template/Istanbul10/logic/Vote.sol\":1498:1532  _VoteStruct.codeModel = codeModel_ */\n      dup2\n      swap1\n      sstore\n      pop\n        /* \"contracts/Template/Istanbul10/logic/Vote.sol\":1563:1570  valaue_ */\n      dup4\n        /* \"contracts/Template/Istanbul10/logic/Vote.sol\":1543:1554  _VoteStruct */\n      dup2\n        /* \"contracts/Template/Istanbul10/logic/Vote.sol\":1543:1560  _VoteStruct.value */\n      0x0a\n      add\n        /* \"contracts/Template/Istanbul10/logic/Vote.sol\":1543:1570  _VoteStruct.value = valaue_ */\n      dup2\n      swap1\n      sstore\n      pop\n        /* \"contracts/Template/Istanbul10/logic/Vote.sol\":1634:1643  describe_ */\n      dup6\n        /* \"contracts/Template/Istanbul10/logic/Vote.sol\":1596:1663  CreateVoteEvent(voteTatola,voteTopic_,describe_,codeModel_,valaue_) */\n      mload(0x40)\n      tag_324\n      swap2\n      swap1\n      tag_325\n      jump\t// in\n    tag_324:\n      mload(0x40)\n      dup1\n      swap2\n      sub\n      swap1\n      keccak256\n        /* \"contracts/Template/Istanbul10/logic/Vote.sol\":1623:1633  voteTopic_ */\n      dup8\n        /* \"contracts/Template/Istanbul10/logic/Vote.sol\":1596:1663  CreateVoteEvent(voteTatola,voteTopic_,describe_,codeModel_,valaue_) */\n      mload(0x40)\n      tag_326\n      swap2\n      swap1\n      tag_325\n      jump\t// in\n    tag_326:\n      mload(0x40)\n      dup1\n      swap2\n      sub\n      swap1\n      keccak256\n        /* \"contracts/Template/Istanbul10/logic/Vote.sol\":1612:1622  voteTatola */\n      sload(0x04)\n        /* \"contracts/Template/Istanbul10/logic/Vote.sol\":1596:1663  CreateVoteEvent(voteTatola,voteTopic_,describe_,codeModel_,valaue_) */\n      0x2042799f2e1d3fcfc7c7e9dd101b3430c99aa621240ea8fdeac79ad1c973888e\n        /* \"contracts/Template/Istanbul10/logic/Vote.sol\":1644:1654  codeModel_ */\n      dup9\n        /* \"contracts/Template/Istanbul10/logic/Vote.sol\":1655:1662  valaue_ */\n      dup9\n        /* \"contracts/Template/Istanbul10/logic/Vote.sol\":1596:1663  CreateVoteEvent(voteTatola,voteTopic_,describe_,codeModel_,valaue_) */\n      mload(0x40)\n      tag_327\n      swap3\n      swap2\n      swap1\n      tag_98\n      jump\t// in\n    tag_327:\n      mload(0x40)\n      dup1\n      swap2\n      sub\n      swap1\n      log4\n        /* \"contracts/Template/Istanbul10/logic/Vote.sol\":1691:1701  voteTatola */\n      sload(0x04)\n        /* \"contracts/Template/Istanbul10/logic/Vote.sol\":1684:1701  return voteTatola */\n      swap3\n      pop\n      pop\n      pop\n        /* \"contracts/Template/Istanbul10/logic/Vote.sol\":627:1709  function createVote(... */\n      swap5\n      swap4\n      pop\n      pop\n      pop\n      pop\n      jump\t// out\n        /* \"contracts/Template/Istanbul10/logic/Vote.sol\":6992:7621  function delegateTo(uint256 voteId_,address to_)external override {... */\n    tag_110:\n        /* \"contracts/Template/Istanbul10/logic/Vote.sol\":7069:7094  VoteStruct storage  _vote */\n      0x00\n        /* \"contracts/Template/Istanbul10/logic/Vote.sol\":7098:7106  voteMapp */\n      0x07\n        /* \"contracts/Template/Istanbul10/logic/Vote.sol\":7098:7115  voteMapp[voteId_] */\n      0x00\n        /* \"contracts/Template/Istanbul10/logic/Vote.sol\":7107:7114  voteId_ */\n      dup5\n        /* \"contracts/Template/Istanbul10/logic/Vote.sol\":7098:7115  voteMapp[voteId_] */\n      dup2\n      mstore\n      0x20\n      add\n      swap1\n      dup2\n      mstore\n      0x20\n      add\n      0x00\n      keccak256\n        /* \"contracts/Template/Istanbul10/logic/Vote.sol\":7069:7115  VoteStruct storage  _vote  = voteMapp[voteId_] */\n      swap1\n      pop\n        /* \"contracts/Template/Istanbul10/logic/Vote.sol\":7137:7142  _vote */\n      dup1\n        /* \"contracts/Template/Istanbul10/logic/Vote.sol\":7137:7155  _vote.VoterAddress */\n      0x0b\n      add\n        /* \"contracts/Template/Istanbul10/logic/Vote.sol\":7137:7167  _vote.VoterAddress[msg.sender] */\n      0x00\n        /* \"contracts/Template/Istanbul10/logic/Vote.sol\":7156:7166  msg.sender */\n      caller\n        /* \"contracts/Template/Istanbul10/logic/Vote.sol\":7137:7167  _vote.VoterAddress[msg.sender] */\n      0xffffffffffffffffffffffffffffffffffffffff\n      and\n      0xffffffffffffffffffffffffffffffffffffffff\n      and\n      dup2\n      mstore\n      0x20\n      add\n      swap1\n      dup2\n      mstore\n      0x20\n      add\n      0x00\n      keccak256\n        /* \"contracts/Template/Istanbul10/logic/Vote.sol\":7137:7173  _vote.VoterAddress[msg.sender].voted */\n      0x00\n      add\n      0x00\n      swap1\n      sload\n      swap1\n      0x0100\n      exp\n      swap1\n      div\n      0xff\n      and\n        /* \"contracts/Template/Istanbul10/logic/Vote.sol\":7136:7173  !_vote.VoterAddress[msg.sender].voted */\n      iszero\n        /* \"contracts/Template/Istanbul10/logic/Vote.sol\":7128:7187  require(!_vote.VoterAddress[msg.sender].voted,\"Have voted\") */\n      tag_329\n      jumpi\n      mload(0x40)\n      0x08c379a000000000000000000000000000000000000000000000000000000000\n      dup2\n      mstore\n      0x04\n      add\n      tag_330\n      swap1\n      tag_331\n      jump\t// in\n    tag_330:\n      mload(0x40)\n      dup1\n      swap2\n      sub\n      swap1\n      revert\n    tag_329:\n        /* \"contracts/Template/Istanbul10/logic/Vote.sol\":7213:7223  msg.sender */\n      caller\n        /* \"contracts/Template/Istanbul10/logic/Vote.sol\":7206:7223  to_ != msg.sender */\n      0xffffffffffffffffffffffffffffffffffffffff\n      and\n        /* \"contracts/Template/Istanbul10/logic/Vote.sol\":7206:7209  to_ */\n      dup3\n        /* \"contracts/Template/Istanbul10/logic/Vote.sol\":7206:7223  to_ != msg.sender */\n      0xffffffffffffffffffffffffffffffffffffffff\n      and\n      eq\n      iszero\n        /* \"contracts/Template/Istanbul10/logic/Vote.sol\":7198:7253  require(to_ != msg.sender,\"can't delegate to yourself\") */\n      tag_332\n      jumpi\n      mload(0x40)\n      0x08c379a000000000000000000000000000000000000000000000000000000000\n      dup2\n      mstore\n      0x04\n      add\n      tag_333\n      swap1\n      tag_334\n      jump\t// in\n    tag_333:\n      mload(0x40)\n      dup1\n      swap2\n      sub\n      swap1\n      revert\n    tag_332:\n        /* \"contracts/Template/Istanbul10/logic/Vote.sol\":7306:7307  0 */\n      0x00\n        /* \"contracts/Template/Istanbul10/logic/Vote.sol\":7274:7281  veToken */\n      0x03\n      0x00\n      swap1\n      sload\n      swap1\n      0x0100\n      exp\n      swap1\n      div\n      0xffffffffffffffffffffffffffffffffffffffff\n      and\n        /* \"contracts/Template/Istanbul10/logic/Vote.sol\":7274:7291  veToken.balanceOf */\n      0xffffffffffffffffffffffffffffffffffffffff\n      and\n      0x70a08231\n        /* \"contracts/Template/Istanbul10/logic/Vote.sol\":7292:7302  msg.sender */\n      caller\n        /* \"contracts/Template/Istanbul10/logic/Vote.sol\":7274:7303  veToken.balanceOf(msg.sender) */\n      mload(0x40)\n      dup3\n      0xffffffff\n      and\n      0xe0\n      shl\n      dup2\n      mstore\n      0x04\n      add\n      tag_335\n      swap2\n      swap1\n      tag_49\n      jump\t// in\n    tag_335:\n      0x20\n      mload(0x40)\n      dup1\n      dup4\n      sub\n      dup2\n      dup7\n      gas\n      staticcall\n      iszero\n      dup1\n      iszero\n      tag_337\n      jumpi\n      returndatasize\n      0x00\n      dup1\n      returndatacopy\n      revert(0x00, returndatasize)\n    tag_337:\n      pop\n      pop\n      pop\n      pop\n      mload(0x40)\n      returndatasize\n      not(0x1f)\n      0x1f\n      dup3\n      add\n      and\n      dup3\n      add\n      dup1\n      0x40\n      mstore\n      pop\n      dup2\n      add\n      swap1\n      tag_338\n      swap2\n      swap1\n      tag_152\n      jump\t// in\n    tag_338:\n        /* \"contracts/Template/Istanbul10/logic/Vote.sol\":7274:7307  veToken.balanceOf(msg.sender) > 0 */\n      gt\n        /* \"contracts/Template/Istanbul10/logic/Vote.sol\":7266:7329  require(veToken.balanceOf(msg.sender) > 0,\"There is no token \") */\n      tag_339\n      jumpi\n      mload(0x40)\n      0x08c379a000000000000000000000000000000000000000000000000000000000\n      dup2\n      mstore\n      0x04\n      add\n      tag_340\n      swap1\n      tag_341\n      jump\t// in\n    tag_340:\n      mload(0x40)\n      dup1\n      swap2\n      sub\n      swap1\n      revert\n    tag_339:\n        /* \"contracts/Template/Istanbul10/logic/Vote.sol\":7342:7347  _vote */\n      dup1\n        /* \"contracts/Template/Istanbul10/logic/Vote.sol\":7342:7360  _vote.VoterAddress */\n      0x0b\n      add\n        /* \"contracts/Template/Istanbul10/logic/Vote.sol\":7342:7365  _vote.VoterAddress[to_] */\n      0x00\n        /* \"contracts/Template/Istanbul10/logic/Vote.sol\":7361:7364  to_ */\n      dup4\n        /* \"contracts/Template/Istanbul10/logic/Vote.sol\":7342:7365  _vote.VoterAddress[to_] */\n      0xffffffffffffffffffffffffffffffffffffffff\n      and\n      0xffffffffffffffffffffffffffffffffffffffff\n      and\n      dup2\n      mstore\n      0x20\n      add\n      swap1\n      dup2\n      mstore\n      0x20\n      add\n      0x00\n      keccak256\n        /* \"contracts/Template/Istanbul10/logic/Vote.sol\":7342:7372  _vote.VoterAddress[to_].bailor */\n      0x01\n      add\n        /* \"contracts/Template/Istanbul10/logic/Vote.sol\":7378:7388  msg.sender */\n      caller\n        /* \"contracts/Template/Istanbul10/logic/Vote.sol\":7342:7389  _vote.VoterAddress[to_].bailor.push(msg.sender) */\n      swap1\n      dup1\n      0x01\n      dup2\n      sload\n      add\n      dup1\n      dup3\n      sstore\n      dup1\n      swap2\n      pop\n      pop\n      0x01\n      swap1\n      sub\n      swap1\n      0x00\n      mstore\n      keccak256(0x00, 0x20)\n      add\n      0x00\n      swap1\n      swap2\n      swap1\n      swap2\n      swap1\n      swap2\n      0x0100\n      exp\n      dup2\n      sload\n      dup2\n      0xffffffffffffffffffffffffffffffffffffffff\n      mul\n      not\n      and\n      swap1\n      dup4\n      0xffffffffffffffffffffffffffffffffffffffff\n      and\n      mul\n      or\n      swap1\n      sstore\n      pop\n        /* \"contracts/Template/Istanbul10/logic/Vote.sol\":7439:7443  true */\n      0x01\n        /* \"contracts/Template/Istanbul10/logic/Vote.sol\":7400:7405  _vote */\n      dup2\n        /* \"contracts/Template/Istanbul10/logic/Vote.sol\":7400:7418  _vote.VoterAddress */\n      0x0b\n      add\n        /* \"contracts/Template/Istanbul10/logic/Vote.sol\":7400:7430  _vote.VoterAddress[msg.sender] */\n      0x00\n        /* \"contracts/Template/Istanbul10/logic/Vote.sol\":7419:7429  msg.sender */\n      caller\n        /* \"contracts/Template/Istanbul10/logic/Vote.sol\":7400:7430  _vote.VoterAddress[msg.sender] */\n      0xffffffffffffffffffffffffffffffffffffffff\n      and\n      0xffffffffffffffffffffffffffffffffffffffff\n      and\n      dup2\n      mstore\n      0x20\n      add\n      swap1\n      dup2\n      mstore\n      0x20\n      add\n      0x00\n      keccak256\n        /* \"contracts/Template/Istanbul10/logic/Vote.sol\":7400:7436  _vote.VoterAddress[msg.sender].voted */\n      0x00\n      add\n      0x00\n        /* \"contracts/Template/Istanbul10/logic/Vote.sol\":7400:7443  _vote.VoterAddress[msg.sender].voted = true */\n      0x0100\n      exp\n      dup2\n      sload\n      dup2\n      0xff\n      mul\n      not\n      and\n      swap1\n      dup4\n      iszero\n      iszero\n      mul\n      or\n      swap1\n      sstore\n      pop\n        /* \"contracts/Template/Istanbul10/logic/Vote.sol\":7454:7459  _vote */\n      dup1\n        /* \"contracts/Template/Istanbul10/logic/Vote.sol\":7454:7465  _vote.svote */\n      0x0c\n      add\n        /* \"contracts/Template/Istanbul10/logic/Vote.sol\":7454:7478  _vote.svote.VoterAddress */\n      0x04\n      add\n        /* \"contracts/Template/Istanbul10/logic/Vote.sol\":7454:7483  _vote.svote.VoterAddress[to_] */\n      0x00\n        /* \"contracts/Template/Istanbul10/logic/Vote.sol\":7479:7482  to_ */\n      dup4\n        /* \"contracts/Template/Istanbul10/logic/Vote.sol\":7454:7483  _vote.svote.VoterAddress[to_] */\n      0xffffffffffffffffffffffffffffffffffffffff\n      and\n      0xffffffffffffffffffffffffffffffffffffffff\n      and\n      dup2\n      mstore\n      0x20\n      add\n      swap1\n      dup2\n      mstore\n      0x20\n      add\n      0x00\n      keccak256\n        /* \"contracts/Template/Istanbul10/logic/Vote.sol\":7454:7490  _vote.svote.VoterAddress[to_].bailor */\n      0x01\n      add\n        /* \"contracts/Template/Istanbul10/logic/Vote.sol\":7496:7506  msg.sender */\n      caller\n        /* \"contracts/Template/Istanbul10/logic/Vote.sol\":7454:7507  _vote.svote.VoterAddress[to_].bailor.push(msg.sender) */\n      swap1\n      dup1\n      0x01\n      dup2\n      sload\n      add\n      dup1\n      dup3\n      sstore\n      dup1\n      swap2\n      pop\n      pop\n      0x01\n      swap1\n      sub\n      swap1\n      0x00\n      mstore\n      keccak256(0x00, 0x20)\n      add\n      0x00\n      swap1\n      swap2\n      swap1\n      swap2\n      swap1\n      swap2\n      0x0100\n      exp\n      dup2\n      sload\n      dup2\n      0xffffffffffffffffffffffffffffffffffffffff\n      mul\n      not\n      and\n      swap1\n      dup4\n      0xffffffffffffffffffffffffffffffffffffffff\n      and\n      mul\n      or\n      swap1\n      sstore\n      pop\n        /* \"contracts/Template/Istanbul10/logic/Vote.sol\":7563:7567  true */\n      0x01\n        /* \"contracts/Template/Istanbul10/logic/Vote.sol\":7518:7523  _vote */\n      dup2\n        /* \"contracts/Template/Istanbul10/logic/Vote.sol\":7518:7529  _vote.svote */\n      0x0c\n      add\n        /* \"contracts/Template/Istanbul10/logic/Vote.sol\":7518:7542  _vote.svote.VoterAddress */\n      0x04\n      add\n        /* \"contracts/Template/Istanbul10/logic/Vote.sol\":7518:7554  _vote.svote.VoterAddress[msg.sender] */\n      0x00\n        /* \"contracts/Template/Istanbul10/logic/Vote.sol\":7543:7553  msg.sender */\n      caller\n        /* \"contracts/Template/Istanbul10/logic/Vote.sol\":7518:7554  _vote.svote.VoterAddress[msg.sender] */\n      0xffffffffffffffffffffffffffffffffffffffff\n      and\n      0xffffffffffffffffffffffffffffffffffffffff\n      and\n      dup2\n      mstore\n      0x20\n      add\n      swap1\n      dup2\n      mstore\n      0x20\n      add\n      0x00\n      keccak256\n        /* \"contracts/Template/Istanbul10/logic/Vote.sol\":7518:7560  _vote.svote.VoterAddress[msg.sender].voted */\n      0x00\n      add\n      0x00\n        /* \"contracts/Template/Istanbul10/logic/Vote.sol\":7518:7567  _vote.svote.VoterAddress[msg.sender].voted = true */\n      0x0100\n      exp\n      dup2\n      sload\n      dup2\n      0xff\n      mul\n      not\n      and\n      swap1\n      dup4\n      iszero\n      iszero\n      mul\n      or\n      swap1\n      sstore\n      pop\n        /* \"contracts/Template/Istanbul10/logic/Vote.sol\":7601:7608  voteId_ */\n      dup3\n        /* \"contracts/Template/Istanbul10/logic/Vote.sol\":7585:7613  DelegateToEvent(voteId_,to_) */\n      0xa9860e62eb02a47e1d5d5253a79d90bc96cd33c299d874f5b7710d0a61b63ccc\n        /* \"contracts/Template/Istanbul10/logic/Vote.sol\":7609:7612  to_ */\n      dup4\n        /* \"contracts/Template/Istanbul10/logic/Vote.sol\":7585:7613  DelegateToEvent(voteId_,to_) */\n      mload(0x40)\n      tag_344\n      swap2\n      swap1\n      tag_49\n      jump\t// in\n    tag_344:\n      mload(0x40)\n      dup1\n      swap2\n      sub\n      swap1\n      log2\n        /* \"contracts/Template/Istanbul10/logic/Vote.sol\":7058:7621  {... */\n      pop\n        /* \"contracts/Template/Istanbul10/logic/Vote.sol\":6992:7621  function delegateTo(uint256 voteId_,address to_)external override {... */\n      pop\n      pop\n      jump\t// out\n        /* \"contracts/Template/Istanbul10/logic/Vote.sol\":4594:5761  function execute(uint256 voteId_) external override {... */\n    tag_113:\n        /* \"contracts/Template/Istanbul10/logic/Vote.sol\":4657:4681  VoteStruct storage _vote */\n      0x00\n        /* \"contracts/Template/Istanbul10/logic/Vote.sol\":4684:4692  voteMapp */\n      0x07\n        /* \"contracts/Template/Istanbul10/logic/Vote.sol\":4684:4701  voteMapp[voteId_] */\n      0x00\n        /* \"contracts/Template/Istanbul10/logic/Vote.sol\":4693:4700  voteId_ */\n      dup4\n        /* \"contracts/Template/Istanbul10/logic/Vote.sol\":4684:4701  voteMapp[voteId_] */\n      dup2\n      mstore\n      0x20\n      add\n      swap1\n      dup2\n      mstore\n      0x20\n      add\n      0x00\n      keccak256\n        /* \"contracts/Template/Istanbul10/logic/Vote.sol\":4657:4701  VoteStruct storage _vote = voteMapp[voteId_] */\n      swap1\n      pop\n        /* \"contracts/Template/Istanbul10/logic/Vote.sol\":4721:4736  executeQueueMap */\n      0x09\n        /* \"contracts/Template/Istanbul10/logic/Vote.sol\":4721:4745  executeQueueMap[voteId_] */\n      0x00\n        /* \"contracts/Template/Istanbul10/logic/Vote.sol\":4737:4744  voteId_ */\n      dup4\n        /* \"contracts/Template/Istanbul10/logic/Vote.sol\":4721:4745  executeQueueMap[voteId_] */\n      dup2\n      mstore\n      0x20\n      add\n      swap1\n      dup2\n      mstore\n      0x20\n      add\n      0x00\n      keccak256\n      0x00\n      swap1\n      sload\n      swap1\n      0x0100\n      exp\n      swap1\n      div\n      0xff\n      and\n        /* \"contracts/Template/Istanbul10/logic/Vote.sol\":4720:4745  !executeQueueMap[voteId_] */\n      iszero\n        /* \"contracts/Template/Istanbul10/logic/Vote.sol\":4712:4769  require(!executeQueueMap[voteId_],\"repetitive execution\") */\n      tag_346\n      jumpi\n      mload(0x40)\n      0x08c379a000000000000000000000000000000000000000000000000000000000\n      dup2\n      mstore\n      0x04\n      add\n      tag_347\n      swap1\n      tag_348\n      jump\t// in\n    tag_347:\n      mload(0x40)\n      dup1\n      swap2\n      sub\n      swap1\n      revert\n    tag_346:\n        /* \"contracts/Template/Istanbul10/logic/Vote.sol\":4804:4828  VoteStatus.uninitialized */\n      0x00\n        /* \"contracts/Template/Istanbul10/logic/Vote.sol\":4788:4828  _vote.status != VoteStatus.uninitialized */\n      0x06\n      dup2\n      gt\n      iszero\n      tag_349\n      jumpi\n      tag_350\n      tag_172\n      jump\t// in\n    tag_350:\n    tag_349:\n        /* \"contracts/Template/Istanbul10/logic/Vote.sol\":4788:4793  _vote */\n      dup2\n        /* \"contracts/Template/Istanbul10/logic/Vote.sol\":4788:4800  _vote.status */\n      0x08\n      add\n      0x00\n      swap1\n      sload\n      swap1\n      0x0100\n      exp\n      swap1\n      div\n      0xff\n      and\n        /* \"contracts/Template/Istanbul10/logic/Vote.sol\":4788:4828  _vote.status != VoteStatus.uninitialized */\n      0x06\n      dup2\n      gt\n      iszero\n      tag_351\n      jumpi\n      tag_352\n      tag_172\n      jump\t// in\n    tag_352:\n    tag_351:\n      eq\n      iszero\n        /* \"contracts/Template/Istanbul10/logic/Vote.sol\":4780:4846  require(_vote.status != VoteStatus.uninitialized,\"VoteId is null\") */\n      tag_353\n      jumpi\n      mload(0x40)\n      0x08c379a000000000000000000000000000000000000000000000000000000000\n      dup2\n      mstore\n      0x04\n      add\n      tag_354\n      swap1\n      tag_205\n      jump\t// in\n    tag_354:\n      mload(0x40)\n      dup1\n      swap2\n      sub\n      swap1\n      revert\n    tag_353:\n        /* \"contracts/Template/Istanbul10/logic/Vote.sol\":4876:4895  VoteStatus.isvoting */\n      0x01\n        /* \"contracts/Template/Istanbul10/logic/Vote.sol\":4860:4895  _vote.status == VoteStatus.isvoting */\n      0x06\n      dup2\n      gt\n      iszero\n      tag_355\n      jumpi\n      tag_356\n      tag_172\n      jump\t// in\n    tag_356:\n    tag_355:\n        /* \"contracts/Template/Istanbul10/logic/Vote.sol\":4860:4865  _vote */\n      dup2\n        /* \"contracts/Template/Istanbul10/logic/Vote.sol\":4860:4872  _vote.status */\n      0x08\n      add\n      0x00\n      swap1\n      sload\n      swap1\n      0x0100\n      exp\n      swap1\n      div\n      0xff\n      and\n        /* \"contracts/Template/Istanbul10/logic/Vote.sol\":4860:4895  _vote.status == VoteStatus.isvoting */\n      0x06\n      dup2\n      gt\n      iszero\n      tag_357\n      jumpi\n      tag_358\n      tag_172\n      jump\t// in\n    tag_358:\n    tag_357:\n      eq\n        /* \"contracts/Template/Istanbul10/logic/Vote.sol\":4857:5715  if(_vote.status == VoteStatus.isvoting){... */\n      iszero\n      tag_359\n      jumpi\n        /* \"contracts/Template/Istanbul10/logic/Vote.sol\":4939:4944  _vote */\n      dup1\n        /* \"contracts/Template/Istanbul10/logic/Vote.sol\":4939:4949  _vote.time */\n      0x02\n      add\n      sload\n        /* \"contracts/Template/Istanbul10/logic/Vote.sol\":4921:4936  block.timestamp */\n      timestamp\n        /* \"contracts/Template/Istanbul10/logic/Vote.sol\":4921:4949  block.timestamp > _vote.time */\n      gt\n        /* \"contracts/Template/Istanbul10/logic/Vote.sol\":4913:4978  require(block.timestamp > _vote.time,\"Still in the voting phase\") */\n      tag_360\n      jumpi\n      mload(0x40)\n      0x08c379a000000000000000000000000000000000000000000000000000000000\n      dup2\n      mstore\n      0x04\n      add\n      tag_361\n      swap1\n      tag_169\n      jump\t// in\n    tag_361:\n      mload(0x40)\n      dup1\n      swap2\n      sub\n      swap1\n      revert\n    tag_360:\n        /* \"contracts/Template/Istanbul10/logic/Vote.sol\":5064:5068  1000 */\n      0x03e8\n        /* \"contracts/Template/Istanbul10/logic/Vote.sol\":5058:5061  300 */\n      0x012c\n        /* \"contracts/Template/Istanbul10/logic/Vote.sol\":5038:5043  _vote */\n      dup3\n        /* \"contracts/Template/Istanbul10/logic/Vote.sol\":5038:5055  _vote.totalsupply */\n      0x00\n      add\n      sload\n        /* \"contracts/Template/Istanbul10/logic/Vote.sol\":5038:5061  _vote.totalsupply * 300 */\n      tag_362\n      swap2\n      swap1\n      tag_154\n      jump\t// in\n    tag_362:\n        /* \"contracts/Template/Istanbul10/logic/Vote.sol\":5038:5068  _vote.totalsupply * 300 / 1000 */\n      tag_363\n      swap2\n      swap1\n      tag_156\n      jump\t// in\n    tag_363:\n        /* \"contracts/Template/Istanbul10/logic/Vote.sol\":5020:5025  _vote */\n      dup2\n        /* \"contracts/Template/Istanbul10/logic/Vote.sol\":5020:5034  _vote.supPopel */\n      0x06\n      add\n      sload\n        /* \"contracts/Template/Istanbul10/logic/Vote.sol\":5001:5006  _vote */\n      dup3\n        /* \"contracts/Template/Istanbul10/logic/Vote.sol\":5001:5019  _vote.againstPopel */\n      0x07\n      add\n      sload\n        /* \"contracts/Template/Istanbul10/logic/Vote.sol\":5001:5034  _vote.againstPopel+_vote.supPopel */\n      tag_364\n      swap2\n      swap1\n      tag_166\n      jump\t// in\n    tag_364:\n        /* \"contracts/Template/Istanbul10/logic/Vote.sol\":5001:5068  _vote.againstPopel+_vote.supPopel >= _vote.totalsupply * 300 / 1000 */\n      lt\n      iszero\n        /* \"contracts/Template/Istanbul10/logic/Vote.sol\":4993:5101  require(_vote.againstPopel+_vote.supPopel >= _vote.totalsupply * 300 / 1000,\"votes is less than 30 percent\") */\n      tag_365\n      jumpi\n      mload(0x40)\n      0x08c379a000000000000000000000000000000000000000000000000000000000\n      dup2\n      mstore\n      0x04\n      add\n      tag_366\n      swap1\n      tag_367\n      jump\t// in\n    tag_366:\n      mload(0x40)\n      dup1\n      swap2\n      sub\n      swap1\n      revert\n    tag_365:\n        /* \"contracts/Template/Istanbul10/logic/Vote.sol\":5190:5192  60 */\n      0x3c\n        /* \"contracts/Template/Istanbul10/logic/Vote.sol\":5170:5175  _vote */\n      dup2\n        /* \"contracts/Template/Istanbul10/logic/Vote.sol\":5170:5184  _vote.supPopel */\n      0x06\n      add\n      sload\n        /* \"contracts/Template/Istanbul10/logic/Vote.sol\":5149:5154  _vote */\n      dup3\n        /* \"contracts/Template/Istanbul10/logic/Vote.sol\":5149:5167  _vote.againstPopel */\n      0x07\n      add\n      sload\n        /* \"contracts/Template/Istanbul10/logic/Vote.sol\":5149:5184  _vote.againstPopel + _vote.supPopel */\n      tag_368\n      swap2\n      swap1\n      tag_166\n      jump\t// in\n    tag_368:\n        /* \"contracts/Template/Istanbul10/logic/Vote.sol\":5142:5145  100 */\n      0x64\n        /* \"contracts/Template/Istanbul10/logic/Vote.sol\":5124:5129  _vote */\n      dup4\n        /* \"contracts/Template/Istanbul10/logic/Vote.sol\":5124:5138  _vote.supPopel */\n      0x06\n      add\n      sload\n        /* \"contracts/Template/Istanbul10/logic/Vote.sol\":5124:5145  _vote.supPopel *  100 */\n      tag_369\n      swap2\n      swap1\n      tag_154\n      jump\t// in\n    tag_369:\n        /* \"contracts/Template/Istanbul10/logic/Vote.sol\":5124:5185  _vote.supPopel *  100 / (_vote.againstPopel + _vote.supPopel) */\n      tag_370\n      swap2\n      swap1\n      tag_156\n      jump\t// in\n    tag_370:\n        /* \"contracts/Template/Istanbul10/logic/Vote.sol\":5124:5192  _vote.supPopel *  100 / (_vote.againstPopel + _vote.supPopel)  >= 60 */\n      lt\n      iszero\n        /* \"contracts/Template/Istanbul10/logic/Vote.sol\":5116:5229  require(_vote.supPopel *  100 / (_vote.againstPopel + _vote.supPopel)  >= 60,\"Less than 60% of the votes passed\") */\n      tag_371\n      jumpi\n      mload(0x40)\n      0x08c379a000000000000000000000000000000000000000000000000000000000\n      dup2\n      mstore\n      0x04\n      add\n      tag_372\n      swap1\n      tag_373\n      jump\t// in\n    tag_372:\n      mload(0x40)\n      dup1\n      swap2\n      sub\n      swap1\n      revert\n    tag_371:\n        /* \"contracts/Template/Istanbul10/logic/Vote.sol\":5260:5278  VoteStatus.succeed */\n      0x02\n        /* \"contracts/Template/Istanbul10/logic/Vote.sol\":5245:5250  _vote */\n      dup2\n        /* \"contracts/Template/Istanbul10/logic/Vote.sol\":5245:5257  _vote.status */\n      0x08\n      add\n      0x00\n        /* \"contracts/Template/Istanbul10/logic/Vote.sol\":5245:5278  _vote.status = VoteStatus.succeed */\n      0x0100\n      exp\n      dup2\n      sload\n      dup2\n      0xff\n      mul\n      not\n      and\n      swap1\n      dup4\n      0x06\n      dup2\n      gt\n      iszero\n      tag_374\n      jumpi\n      tag_375\n      tag_172\n      jump\t// in\n    tag_375:\n    tag_374:\n      mul\n      or\n      swap1\n      sstore\n      pop\n        /* \"contracts/Template/Istanbul10/logic/Vote.sol\":5293:5338  _execute(voteId_,_vote.codeModel,_vote.value) */\n      tag_376\n        /* \"contracts/Template/Istanbul10/logic/Vote.sol\":5302:5309  voteId_ */\n      dup3\n        /* \"contracts/Template/Istanbul10/logic/Vote.sol\":5310:5315  _vote */\n      dup3\n        /* \"contracts/Template/Istanbul10/logic/Vote.sol\":5310:5325  _vote.codeModel */\n      0x09\n      add\n      sload\n        /* \"contracts/Template/Istanbul10/logic/Vote.sol\":5326:5331  _vote */\n      dup4\n        /* \"contracts/Template/Istanbul10/logic/Vote.sol\":5326:5337  _vote.value */\n      0x0a\n      add\n      sload\n        /* \"contracts/Template/Istanbul10/logic/Vote.sol\":5293:5301  _execute */\n      tag_377\n        /* \"contracts/Template/Istanbul10/logic/Vote.sol\":5293:5338  _execute(voteId_,_vote.codeModel,_vote.value) */\n      jump\t// in\n    tag_376:\n        /* \"contracts/Template/Istanbul10/logic/Vote.sol\":4857:5715  if(_vote.status == VoteStatus.isvoting){... */\n      jump(tag_378)\n    tag_359:\n        /* \"contracts/Template/Istanbul10/logic/Vote.sol\":5375:5398  VoteStatus.secondBallot */\n      0x05\n        /* \"contracts/Template/Istanbul10/logic/Vote.sol\":5359:5398  _vote.status == VoteStatus.secondBallot */\n      0x06\n      dup2\n      gt\n      iszero\n      tag_379\n      jumpi\n      tag_380\n      tag_172\n      jump\t// in\n    tag_380:\n    tag_379:\n        /* \"contracts/Template/Istanbul10/logic/Vote.sol\":5359:5364  _vote */\n      dup2\n        /* \"contracts/Template/Istanbul10/logic/Vote.sol\":5359:5371  _vote.status */\n      0x08\n      add\n      0x00\n      swap1\n      sload\n      swap1\n      0x0100\n      exp\n      swap1\n      div\n      0xff\n      and\n        /* \"contracts/Template/Istanbul10/logic/Vote.sol\":5359:5398  _vote.status == VoteStatus.secondBallot */\n      0x06\n      dup2\n      gt\n      iszero\n      tag_381\n      jumpi\n      tag_382\n      tag_172\n      jump\t// in\n    tag_382:\n    tag_381:\n      eq\n        /* \"contracts/Template/Istanbul10/logic/Vote.sol\":5356:5715  if(_vote.status == VoteStatus.secondBallot){... */\n      iszero\n      tag_383\n      jumpi\n        /* \"contracts/Template/Istanbul10/logic/Vote.sol\":5441:5446  _vote */\n      dup1\n        /* \"contracts/Template/Istanbul10/logic/Vote.sol\":5441:5451  _vote.time */\n      0x02\n      add\n      sload\n        /* \"contracts/Template/Istanbul10/logic/Vote.sol\":5422:5437  block.timestamp */\n      timestamp\n        /* \"contracts/Template/Istanbul10/logic/Vote.sol\":5422:5451  block.timestamp >= _vote.time */\n      lt\n      iszero\n        /* \"contracts/Template/Istanbul10/logic/Vote.sol\":5414:5480  require(block.timestamp >= _vote.time,\"Still in the voting phase\") */\n      tag_384\n      jumpi\n      mload(0x40)\n      0x08c379a000000000000000000000000000000000000000000000000000000000\n      dup2\n      mstore\n      0x04\n      add\n      tag_385\n      swap1\n      tag_169\n      jump\t// in\n    tag_385:\n      mload(0x40)\n      dup1\n      swap2\n      sub\n      swap1\n      revert\n    tag_384:\n        /* \"contracts/Template/Istanbul10/logic/Vote.sol\":5527:5532  _vote */\n      dup1\n        /* \"contracts/Template/Istanbul10/logic/Vote.sol\":5527:5541  _vote.supPopel */\n      0x06\n      add\n      sload\n        /* \"contracts/Template/Istanbul10/logic/Vote.sol\":5503:5508  _vote */\n      dup2\n        /* \"contracts/Template/Istanbul10/logic/Vote.sol\":5503:5514  _vote.svote */\n      0x0c\n      add\n        /* \"contracts/Template/Istanbul10/logic/Vote.sol\":5503:5523  _vote.svote.supPopel */\n      0x02\n      add\n      sload\n        /* \"contracts/Template/Istanbul10/logic/Vote.sol\":5503:5541  _vote.svote.supPopel >= _vote.supPopel */\n      lt\n      iszero\n        /* \"contracts/Template/Istanbul10/logic/Vote.sol\":5495:5595  require(_vote.svote.supPopel >= _vote.supPopel,\"The vote passed with fewer votes than the original\") */\n      tag_386\n      jumpi\n      mload(0x40)\n      0x08c379a000000000000000000000000000000000000000000000000000000000\n      dup2\n      mstore\n      0x04\n      add\n      tag_387\n      swap1\n      tag_388\n      jump\t// in\n    tag_387:\n      mload(0x40)\n      dup1\n      swap2\n      sub\n      swap1\n      revert\n    tag_386:\n        /* \"contracts/Template/Istanbul10/logic/Vote.sol\":5625:5643  VoteStatus.succeed */\n      0x02\n        /* \"contracts/Template/Istanbul10/logic/Vote.sol\":5610:5615  _vote */\n      dup2\n        /* \"contracts/Template/Istanbul10/logic/Vote.sol\":5610:5622  _vote.status */\n      0x08\n      add\n      0x00\n        /* \"contracts/Template/Istanbul10/logic/Vote.sol\":5610:5643  _vote.status = VoteStatus.succeed */\n      0x0100\n      exp\n      dup2\n      sload\n      dup2\n      0xff\n      mul\n      not\n      and\n      swap1\n      dup4\n      0x06\n      dup2\n      gt\n      iszero\n      tag_389\n      jumpi\n      tag_390\n      tag_172\n      jump\t// in\n    tag_390:\n    tag_389:\n      mul\n      or\n      swap1\n      sstore\n      pop\n        /* \"contracts/Template/Istanbul10/logic/Vote.sol\":5658:5703  _execute(voteId_,_vote.codeModel,_vote.value) */\n      tag_391\n        /* \"contracts/Template/Istanbul10/logic/Vote.sol\":5667:5674  voteId_ */\n      dup3\n        /* \"contracts/Template/Istanbul10/logic/Vote.sol\":5675:5680  _vote */\n      dup3\n        /* \"contracts/Template/Istanbul10/logic/Vote.sol\":5675:5690  _vote.codeModel */\n      0x09\n      add\n      sload\n        /* \"contracts/Template/Istanbul10/logic/Vote.sol\":5691:5696  _vote */\n      dup4\n        /* \"contracts/Template/Istanbul10/logic/Vote.sol\":5691:5702  _vote.value */\n      0x0a\n      add\n      sload\n        /* \"contracts/Template/Istanbul10/logic/Vote.sol\":5658:5666  _execute */\n      tag_377\n        /* \"contracts/Template/Istanbul10/logic/Vote.sol\":5658:5703  _execute(voteId_,_vote.codeModel,_vote.value) */\n      jump\t// in\n    tag_391:\n        /* \"contracts/Template/Istanbul10/logic/Vote.sol\":5356:5715  if(_vote.status == VoteStatus.secondBallot){... */\n    tag_383:\n        /* \"contracts/Template/Istanbul10/logic/Vote.sol\":4857:5715  if(_vote.status == VoteStatus.isvoting){... */\n    tag_378:\n        /* \"contracts/Template/Istanbul10/logic/Vote.sol\":5745:5752  voteId_ */\n      dup2\n        /* \"contracts/Template/Istanbul10/logic/Vote.sol\":5732:5753  ExecuteEvent(voteId_) */\n      0xa6b4889fbc6222293f94ac3c68c40fa4c027b86b0dfe4f820475c7d8828a2436\n      mload(0x40)\n      mload(0x40)\n      dup1\n      swap2\n      sub\n      swap1\n      log2\n        /* \"contracts/Template/Istanbul10/logic/Vote.sol\":4646:5761  {... */\n      pop\n        /* \"contracts/Template/Istanbul10/logic/Vote.sol\":4594:5761  function execute(uint256 voteId_) external override {... */\n      pop\n      jump\t// out\n        /* \"contracts/Template/Istanbul10/logic/Vote.sol\":9289:9399  function onlyWhiteList() private returns(bool){... */\n    tag_290:\n        /* \"contracts/Template/Istanbul10/logic/Vote.sol\":9330:9334  bool */\n      0x00\n        /* \"contracts/Template/Istanbul10/logic/Vote.sol\":9362:9368  router */\n      0x02\n      0x00\n      swap1\n      sload\n      swap1\n      0x0100\n      exp\n      swap1\n      div\n      0xffffffffffffffffffffffffffffffffffffffff\n      and\n        /* \"contracts/Template/Istanbul10/logic/Vote.sol\":9350:9379  IRouterData(router).whiteList */\n      0xffffffffffffffffffffffffffffffffffffffff\n      and\n      0x372c12b1\n        /* \"contracts/Template/Istanbul10/logic/Vote.sol\":9380:9390  msg.sender */\n      caller\n        /* \"contracts/Template/Istanbul10/logic/Vote.sol\":9350:9391  IRouterData(router).whiteList(msg.sender) */\n      mload(0x40)\n      dup3\n      0xffffffff\n      and\n      0xe0\n      shl\n      dup2\n      mstore\n      0x04\n      add\n      tag_393\n      swap2\n      swap1\n      tag_49\n      jump\t// in\n    tag_393:\n      0x20\n      mload(0x40)\n      dup1\n      dup4\n      sub\n      dup2\n      dup7\n      gas\n      staticcall\n      iszero\n      dup1\n      iszero\n      tag_395\n      jumpi\n      returndatasize\n      0x00\n      dup1\n      returndatacopy\n      revert(0x00, returndatasize)\n    tag_395:\n      pop\n      pop\n      pop\n      pop\n      mload(0x40)\n      returndatasize\n      not(0x1f)\n      0x1f\n      dup3\n      add\n      and\n      dup3\n      add\n      dup1\n      0x40\n      mstore\n      pop\n      dup2\n      add\n      swap1\n      tag_396\n      swap2\n      swap1\n      tag_397\n      jump\t// in\n    tag_396:\n        /* \"contracts/Template/Istanbul10/logic/Vote.sol\":9343:9391  return IRouterData(router).whiteList(msg.sender) */\n      swap1\n      pop\n        /* \"contracts/Template/Istanbul10/logic/Vote.sol\":9289:9399  function onlyWhiteList() private returns(bool){... */\n      swap1\n      jump\t// out\n        /* \"contracts/Template/Istanbul10/logic/Vote.sol\":5774:6114  function _execute(uint256 voteId_,uint256 codeModel_,uint256 value_)private {... */\n    tag_377:\n        /* \"contracts/Template/Istanbul10/logic/Vote.sol\":5860:5874  address tarGet */\n      0x00\n        /* \"contracts/Template/Istanbul10/logic/Vote.sol\":5877:5885  template */\n      0x08\n        /* \"contracts/Template/Istanbul10/logic/Vote.sol\":5877:5897  template[codeModel_] */\n      0x00\n        /* \"contracts/Template/Istanbul10/logic/Vote.sol\":5886:5896  codeModel_ */\n      dup5\n        /* \"contracts/Template/Istanbul10/logic/Vote.sol\":5877:5897  template[codeModel_] */\n      dup2\n      mstore\n      0x20\n      add\n      swap1\n      dup2\n      mstore\n      0x20\n      add\n      0x00\n      keccak256\n        /* \"contracts/Template/Istanbul10/logic/Vote.sol\":5877:5911  template[codeModel_].targetAddress */\n      0x02\n      add\n      0x00\n      swap1\n      sload\n      swap1\n      0x0100\n      exp\n      swap1\n      div\n      0xffffffffffffffffffffffffffffffffffffffff\n      and\n        /* \"contracts/Template/Istanbul10/logic/Vote.sol\":5860:5911  address tarGet = template[codeModel_].targetAddress */\n      swap1\n      pop\n        /* \"contracts/Template/Istanbul10/logic/Vote.sol\":5947:5948  0 */\n      0x00\n        /* \"contracts/Template/Istanbul10/logic/Vote.sol\":5929:5949  tarGet != address(0) */\n      0xffffffffffffffffffffffffffffffffffffffff\n      and\n        /* \"contracts/Template/Istanbul10/logic/Vote.sol\":5929:5935  tarGet */\n      dup2\n        /* \"contracts/Template/Istanbul10/logic/Vote.sol\":5929:5949  tarGet != address(0) */\n      0xffffffffffffffffffffffffffffffffffffffff\n      and\n      eq\n      iszero\n        /* \"contracts/Template/Istanbul10/logic/Vote.sol\":5921:5981  require(tarGet != address(0), \"Governance Template is null\") */\n      tag_399\n      jumpi\n      mload(0x40)\n      0x08c379a000000000000000000000000000000000000000000000000000000000\n      dup2\n      mstore\n      0x04\n      add\n      tag_400\n      swap1\n      tag_401\n      jump\t// in\n    tag_400:\n      mload(0x40)\n      dup1\n      swap2\n      sub\n      swap1\n      revert\n    tag_399:\n        /* \"contracts/Template/Istanbul10/logic/Vote.sol\":5991:6003  executeQueue */\n      0x05\n        /* \"contracts/Template/Istanbul10/logic/Vote.sol\":6009:6016  voteId_ */\n      dup5\n        /* \"contracts/Template/Istanbul10/logic/Vote.sol\":5991:6017  executeQueue.push(voteId_) */\n      swap1\n      dup1\n      0x01\n      dup2\n      sload\n      add\n      dup1\n      dup3\n      sstore\n      dup1\n      swap2\n      pop\n      pop\n      0x01\n      swap1\n      sub\n      swap1\n      0x00\n      mstore\n      keccak256(0x00, 0x20)\n      add\n      0x00\n      swap1\n      swap2\n      swap1\n      swap2\n      swap1\n      swap2\n      pop\n      sstore\n        /* \"contracts/Template/Istanbul10/logic/Vote.sol\":6054:6058  true */\n      0x01\n        /* \"contracts/Template/Istanbul10/logic/Vote.sol\":6027:6042  executeQueueMap */\n      0x09\n        /* \"contracts/Template/Istanbul10/logic/Vote.sol\":6027:6051  executeQueueMap[voteId_] */\n      0x00\n        /* \"contracts/Template/Istanbul10/logic/Vote.sol\":6043:6050  voteId_ */\n      dup7\n        /* \"contracts/Template/Istanbul10/logic/Vote.sol\":6027:6051  executeQueueMap[voteId_] */\n      dup2\n      mstore\n      0x20\n      add\n      swap1\n      dup2\n      mstore\n      0x20\n      add\n      0x00\n      keccak256\n      0x00\n        /* \"contracts/Template/Istanbul10/logic/Vote.sol\":6027:6058  executeQueueMap[voteId_] = true */\n      0x0100\n      exp\n      dup2\n      sload\n      dup2\n      0xff\n      mul\n      not\n      and\n      swap1\n      dup4\n      iszero\n      iszero\n      mul\n      or\n      swap1\n      sstore\n      pop\n        /* \"contracts/Template/Istanbul10/logic/Vote.sol\":6068:6106  _governanceTemplate(codeModel_,value_) */\n      tag_403\n        /* \"contracts/Template/Istanbul10/logic/Vote.sol\":6088:6098  codeModel_ */\n      dup4\n        /* \"contracts/Template/Istanbul10/logic/Vote.sol\":6099:6105  value_ */\n      dup4\n        /* \"contracts/Template/Istanbul10/logic/Vote.sol\":6068:6087  _governanceTemplate */\n      tag_404\n        /* \"contracts/Template/Istanbul10/logic/Vote.sol\":6068:6106  _governanceTemplate(codeModel_,value_) */\n      jump\t// in\n    tag_403:\n        /* \"contracts/Template/Istanbul10/logic/Vote.sol\":5850:6114  {... */\n      pop\n        /* \"contracts/Template/Istanbul10/logic/Vote.sol\":5774:6114  function _execute(uint256 voteId_,uint256 codeModel_,uint256 value_)private {... */\n      pop\n      pop\n      pop\n      jump\t// out\n        /* \"contracts/Template/Istanbul10/logic/Vote.sol\":6598:6942  function _governanceTemplate(uint256 num,uint256  valaue) private {... */\n    tag_404:\n        /* \"contracts/Template/Istanbul10/logic/Vote.sol\":6675:6689  address tarGet */\n      0x00\n        /* \"contracts/Template/Istanbul10/logic/Vote.sol\":6692:6700  template */\n      0x08\n        /* \"contracts/Template/Istanbul10/logic/Vote.sol\":6692:6705  template[num] */\n      0x00\n        /* \"contracts/Template/Istanbul10/logic/Vote.sol\":6701:6704  num */\n      dup5\n        /* \"contracts/Template/Istanbul10/logic/Vote.sol\":6692:6705  template[num] */\n      dup2\n      mstore\n      0x20\n      add\n      swap1\n      dup2\n      mstore\n      0x20\n      add\n      0x00\n      keccak256\n        /* \"contracts/Template/Istanbul10/logic/Vote.sol\":6692:6719  template[num].targetAddress */\n      0x02\n      add\n      0x00\n      swap1\n      sload\n      swap1\n      0x0100\n      exp\n      swap1\n      div\n      0xffffffffffffffffffffffffffffffffffffffff\n      and\n        /* \"contracts/Template/Istanbul10/logic/Vote.sol\":6675:6719  address tarGet = template[num].targetAddress */\n      swap1\n      pop\n        /* \"contracts/Template/Istanbul10/logic/Vote.sol\":6730:6756  string memory functionName */\n      0x00\n        /* \"contracts/Template/Istanbul10/logic/Vote.sol\":6759:6767  template */\n      0x08\n        /* \"contracts/Template/Istanbul10/logic/Vote.sol\":6759:6772  template[num] */\n      0x00\n        /* \"contracts/Template/Istanbul10/logic/Vote.sol\":6768:6771  num */\n      dup6\n        /* \"contracts/Template/Istanbul10/logic/Vote.sol\":6759:6772  template[num] */\n      dup2\n      mstore\n      0x20\n      add\n      swap1\n      dup2\n      mstore\n      0x20\n      add\n      0x00\n      keccak256\n        /* \"contracts/Template/Istanbul10/logic/Vote.sol\":6759:6785  template[num].functionName */\n      0x03\n      add\n        /* \"contracts/Template/Istanbul10/logic/Vote.sol\":6730:6785  string memory functionName = template[num].functionName */\n      dup1\n      sload\n      tag_406\n      swap1\n      tag_126\n      jump\t// in\n    tag_406:\n      dup1\n      0x1f\n      add\n      0x20\n      dup1\n      swap2\n      div\n      mul\n      0x20\n      add\n      mload(0x40)\n      swap1\n      dup2\n      add\n      0x40\n      mstore\n      dup1\n      swap3\n      swap2\n      swap1\n      dup2\n      dup2\n      mstore\n      0x20\n      add\n      dup3\n      dup1\n      sload\n      tag_407\n      swap1\n      tag_126\n      jump\t// in\n    tag_407:\n      dup1\n      iszero\n      tag_408\n      jumpi\n      dup1\n      0x1f\n      lt\n      tag_409\n      jumpi\n      0x0100\n      dup1\n      dup4\n      sload\n      div\n      mul\n      dup4\n      mstore\n      swap2\n      0x20\n      add\n      swap2\n      jump(tag_408)\n    tag_409:\n      dup3\n      add\n      swap2\n      swap1\n      0x00\n      mstore\n      keccak256(0x00, 0x20)\n      swap1\n    tag_410:\n      dup2\n      sload\n      dup2\n      mstore\n      swap1\n      0x01\n      add\n      swap1\n      0x20\n      add\n      dup1\n      dup4\n      gt\n      tag_410\n      jumpi\n      dup3\n      swap1\n      sub\n      0x1f\n      and\n      dup3\n      add\n      swap2\n    tag_408:\n      pop\n      pop\n      pop\n      pop\n      pop\n      swap1\n      pop\n        /* \"contracts/Template/Istanbul10/logic/Vote.sol\":6797:6805  bool _ok */\n      0x00\n        /* \"contracts/Template/Istanbul10/logic/Vote.sol\":6807:6830  bytes memory returnData */\n      dup1\n        /* \"contracts/Template/Istanbul10/logic/Vote.sol\":6834:6840  tarGet */\n      dup4\n        /* \"contracts/Template/Istanbul10/logic/Vote.sol\":6834:6845  tarGet.call */\n      0xffffffffffffffffffffffffffffffffffffffff\n      and\n        /* \"contracts/Template/Istanbul10/logic/Vote.sol\":6870:6882  functionName */\n      dup4\n        /* \"contracts/Template/Istanbul10/logic/Vote.sol\":6883:6889  valaue */\n      dup7\n        /* \"contracts/Template/Istanbul10/logic/Vote.sol\":6846:6890  abi.encodeWithSignature(functionName,valaue) */\n      add(0x24, mload(0x40))\n      tag_411\n      swap2\n      swap1\n      tag_31\n      jump\t// in\n    tag_411:\n      mload(0x40)\n      0x20\n      dup2\n      dup4\n      sub\n      sub\n      dup2\n      mstore\n      swap1\n      0x40\n      mstore\n      swap1\n      mload(0x40)\n      tag_412\n      swap2\n      swap1\n      tag_325\n      jump\t// in\n    tag_412:\n      mload(0x40)\n      dup1\n      swap2\n      sub\n      swap1\n      keccak256\n      not(0xffffffffffffffffffffffffffffffffffffffffffffffffffffffff)\n      and\n      0x20\n      dup3\n      add\n      dup1\n      mload\n      0xffffffffffffffffffffffffffffffffffffffffffffffffffffffff\n      dup4\n      dup2\n      dup4\n      and\n      or\n      dup4\n      mstore\n      pop\n      pop\n      pop\n      pop\n        /* \"contracts/Template/Istanbul10/logic/Vote.sol\":6834:6891  tarGet.call(abi.encodeWithSignature(functionName,valaue)) */\n      mload(0x40)\n      tag_413\n      swap2\n      swap1\n      tag_414\n      jump\t// in\n    tag_413:\n      0x00\n      mload(0x40)\n      dup1\n      dup4\n      sub\n      dup2\n      0x00\n      dup7\n      gas\n      call\n      swap2\n      pop\n      pop\n      returndatasize\n      dup1\n      0x00\n      dup2\n      eq\n      tag_417\n      jumpi\n      mload(0x40)\n      swap2\n      pop\n      and(add(returndatasize, 0x3f), not(0x1f))\n      dup3\n      add\n      0x40\n      mstore\n      returndatasize\n      dup3\n      mstore\n      returndatasize\n      0x00\n      0x20\n      dup5\n      add\n      returndatacopy\n      jump(tag_416)\n    tag_417:\n      0x60\n      swap2\n      pop\n    tag_416:\n      pop\n        /* \"contracts/Template/Istanbul10/logic/Vote.sol\":6796:6891  (bool _ok, bytes memory returnData) = tarGet.call(abi.encodeWithSignature(functionName,valaue)) */\n      swap2\n      pop\n      swap2\n      pop\n        /* \"contracts/Template/Istanbul10/logic/Vote.sol\":6910:6913  _ok */\n      dup2\n        /* \"contracts/Template/Istanbul10/logic/Vote.sol\":6922:6932  returnData */\n      dup2\n        /* \"contracts/Template/Istanbul10/logic/Vote.sol\":6902:6934  require(_ok, string(returnData)) */\n      swap1\n      tag_418\n      jumpi\n      mload(0x40)\n      0x08c379a000000000000000000000000000000000000000000000000000000000\n      dup2\n      mstore\n      0x04\n      add\n      tag_419\n      swap2\n      swap1\n      tag_184\n      jump\t// in\n    tag_419:\n      mload(0x40)\n      dup1\n      swap2\n      sub\n      swap1\n      revert\n    tag_418:\n      pop\n        /* \"contracts/Template/Istanbul10/logic/Vote.sol\":6664:6942  {... */\n      pop\n      pop\n      pop\n      pop\n        /* \"contracts/Template/Istanbul10/logic/Vote.sol\":6598:6942  function _governanceTemplate(uint256 num,uint256  valaue) private {... */\n      pop\n      pop\n      jump\t// out\n    tag_121:\n      mload(0x40)\n      dup1\n      0x80\n      add\n      0x40\n      mstore\n      dup1\n      0x00\n      dup2\n      mstore\n      0x20\n      add\n      0x60\n      dup2\n      mstore\n      0x20\n      add\n      and(0xffffffffffffffffffffffffffffffffffffffff, 0x00)\n      dup2\n      mstore\n      0x20\n      add\n      0x60\n      dup2\n      mstore\n      pop\n      swap1\n      jump\t// out\n    tag_181:\n      dup3\n      dup1\n      sload\n      tag_420\n      swap1\n      tag_126\n      jump\t// in\n    tag_420:\n      swap1\n      0x00\n      mstore\n      keccak256(0x00, 0x20)\n      swap1\n      0x1f\n      add\n      0x20\n      swap1\n      div\n      dup2\n      add\n      swap3\n      dup3\n      tag_422\n      jumpi\n      0x00\n      dup6\n      sstore\n      jump(tag_421)\n    tag_422:\n      dup3\n      0x1f\n      lt\n      tag_423\n      jumpi\n      dup1\n      mload\n      not(0xff)\n      and\n      dup4\n      dup1\n      add\n      or\n      dup6\n      sstore\n      jump(tag_421)\n    tag_423:\n      dup3\n      dup1\n      add\n      0x01\n      add\n      dup6\n      sstore\n      dup3\n      iszero\n      tag_421\n      jumpi\n      swap2\n      dup3\n      add\n    tag_424:\n      dup3\n      dup2\n      gt\n      iszero\n      tag_425\n      jumpi\n      dup3\n      mload\n      dup3\n      sstore\n      swap2\n      0x20\n      add\n      swap2\n      swap1\n      0x01\n      add\n      swap1\n      jump(tag_424)\n    tag_425:\n    tag_421:\n      pop\n      swap1\n      pop\n      tag_426\n      swap2\n      swap1\n      tag_427\n      jump\t// in\n    tag_426:\n      pop\n      swap1\n      jump\t// out\n    tag_427:\n    tag_428:\n      dup1\n      dup3\n      gt\n      iszero\n      tag_429\n      jumpi\n      0x00\n      dup2\n      0x00\n      swap1\n      sstore\n      pop\n      0x01\n      add\n      jump(tag_428)\n    tag_429:\n      pop\n      swap1\n      jump\t// out\n        /* \"#utility.yul\":7:84   */\n    tag_430:\n        /* \"#utility.yul\":44:51   */\n      0x00\n        /* \"#utility.yul\":73:78   */\n      dup2\n        /* \"#utility.yul\":62:78   */\n      swap1\n      pop\n        /* \"#utility.yul\":7:84   */\n      swap2\n      swap1\n      pop\n      jump\t// out\n        /* \"#utility.yul\":90:208   */\n    tag_431:\n        /* \"#utility.yul\":177:201   */\n      tag_523\n        /* \"#utility.yul\":195:200   */\n      dup2\n        /* \"#utility.yul\":177:201   */\n      tag_430\n      jump\t// in\n    tag_523:\n        /* \"#utility.yul\":172:175   */\n      dup3\n        /* \"#utility.yul\":165:202   */\n      mstore\n        /* \"#utility.yul\":90:208   */\n      pop\n      pop\n      jump\t// out\n        /* \"#utility.yul\":214:436   */\n    tag_31:\n        /* \"#utility.yul\":307:311   */\n      0x00\n        /* \"#utility.yul\":345:347   */\n      0x20\n        /* \"#utility.yul\":334:343   */\n      dup3\n        /* \"#utility.yul\":330:348   */\n      add\n        /* \"#utility.yul\":322:348   */\n      swap1\n      pop\n        /* \"#utility.yul\":358:429   */\n      tag_525\n        /* \"#utility.yul\":426:427   */\n      0x00\n        /* \"#utility.yul\":415:424   */\n      dup4\n        /* \"#utility.yul\":411:428   */\n      add\n        /* \"#utility.yul\":402:408   */\n      dup5\n        /* \"#utility.yul\":358:429   */\n      tag_431\n      jump\t// in\n    tag_525:\n        /* \"#utility.yul\":214:436   */\n      swap3\n      swap2\n      pop\n      pop\n      jump\t// out\n        /* \"#utility.yul\":442:517   */\n    tag_432:\n        /* \"#utility.yul\":475:481   */\n      0x00\n        /* \"#utility.yul\":508:510   */\n      0x40\n        /* \"#utility.yul\":502:511   */\n      mload\n        /* \"#utility.yul\":492:511   */\n      swap1\n      pop\n        /* \"#utility.yul\":442:517   */\n      swap1\n      jump\t// out\n        /* \"#utility.yul\":523:640   */\n    tag_433:\n        /* \"#utility.yul\":632:633   */\n      0x00\n        /* \"#utility.yul\":629:630   */\n      dup1\n        /* \"#utility.yul\":622:634   */\n      revert\n        /* \"#utility.yul\":646:763   */\n    tag_434:\n        /* \"#utility.yul\":755:756   */\n      0x00\n        /* \"#utility.yul\":752:753   */\n      dup1\n        /* \"#utility.yul\":745:757   */\n      revert\n        /* \"#utility.yul\":769:891   */\n    tag_435:\n        /* \"#utility.yul\":842:866   */\n      tag_530\n        /* \"#utility.yul\":860:865   */\n      dup2\n        /* \"#utility.yul\":842:866   */\n      tag_430\n      jump\t// in\n    tag_530:\n        /* \"#utility.yul\":835:840   */\n      dup2\n        /* \"#utility.yul\":832:867   */\n      eq\n        /* \"#utility.yul\":822:885   */\n      tag_531\n      jumpi\n        /* \"#utility.yul\":881:882   */\n      0x00\n        /* \"#utility.yul\":878:879   */\n      dup1\n        /* \"#utility.yul\":871:883   */\n      revert\n        /* \"#utility.yul\":822:885   */\n    tag_531:\n        /* \"#utility.yul\":769:891   */\n      pop\n      jump\t// out\n        /* \"#utility.yul\":897:1036   */\n    tag_436:\n        /* \"#utility.yul\":943:948   */\n      0x00\n        /* \"#utility.yul\":981:987   */\n      dup2\n        /* \"#utility.yul\":968:988   */\n      calldataload\n        /* \"#utility.yul\":959:988   */\n      swap1\n      pop\n        /* \"#utility.yul\":997:1030   */\n      tag_533\n        /* \"#utility.yul\":1024:1029   */\n      dup2\n        /* \"#utility.yul\":997:1030   */\n      tag_435\n      jump\t// in\n    tag_533:\n        /* \"#utility.yul\":897:1036   */\n      swap3\n      swap2\n      pop\n      pop\n      jump\t// out\n        /* \"#utility.yul\":1042:1371   */\n    tag_34:\n        /* \"#utility.yul\":1101:1107   */\n      0x00\n        /* \"#utility.yul\":1150:1152   */\n      0x20\n        /* \"#utility.yul\":1138:1147   */\n      dup3\n        /* \"#utility.yul\":1129:1136   */\n      dup5\n        /* \"#utility.yul\":1125:1148   */\n      sub\n        /* \"#utility.yul\":1121:1153   */\n      slt\n        /* \"#utility.yul\":1118:1237   */\n      iszero\n      tag_535\n      jumpi\n        /* \"#utility.yul\":1156:1235   */\n      tag_536\n      tag_433\n      jump\t// in\n    tag_536:\n        /* \"#utility.yul\":1118:1237   */\n    tag_535:\n        /* \"#utility.yul\":1276:1277   */\n      0x00\n        /* \"#utility.yul\":1301:1354   */\n      tag_537\n        /* \"#utility.yul\":1346:1353   */\n      dup5\n        /* \"#utility.yul\":1337:1343   */\n      dup3\n        /* \"#utility.yul\":1326:1335   */\n      dup6\n        /* \"#utility.yul\":1322:1344   */\n      add\n        /* \"#utility.yul\":1301:1354   */\n      tag_436\n      jump\t// in\n    tag_537:\n        /* \"#utility.yul\":1291:1354   */\n      swap2\n      pop\n        /* \"#utility.yul\":1247:1364   */\n      pop\n        /* \"#utility.yul\":1042:1371   */\n      swap3\n      swap2\n      pop\n      pop\n      jump\t// out\n        /* \"#utility.yul\":1377:1467   */\n    tag_437:\n        /* \"#utility.yul\":1411:1418   */\n      0x00\n        /* \"#utility.yul\":1454:1459   */\n      dup2\n        /* \"#utility.yul\":1447:1460   */\n      iszero\n        /* \"#utility.yul\":1440:1461   */\n      iszero\n        /* \"#utility.yul\":1429:1461   */\n      swap1\n      pop\n        /* \"#utility.yul\":1377:1467   */\n      swap2\n      swap1\n      pop\n      jump\t// out\n        /* \"#utility.yul\":1473:1582   */\n    tag_438:\n        /* \"#utility.yul\":1554:1575   */\n      tag_540\n        /* \"#utility.yul\":1569:1574   */\n      dup2\n        /* \"#utility.yul\":1554:1575   */\n      tag_437\n      jump\t// in\n    tag_540:\n        /* \"#utility.yul\":1549:1552   */\n      dup3\n        /* \"#utility.yul\":1542:1576   */\n      mstore\n        /* \"#utility.yul\":1473:1582   */\n      pop\n      pop\n      jump\t// out\n        /* \"#utility.yul\":1588:1798   */\n    tag_37:\n        /* \"#utility.yul\":1675:1679   */\n      0x00\n        /* \"#utility.yul\":1713:1715   */\n      0x20\n        /* \"#utility.yul\":1702:1711   */\n      dup3\n        /* \"#utility.yul\":1698:1716   */\n      add\n        /* \"#utility.yul\":1690:1716   */\n      swap1\n      pop\n        /* \"#utility.yul\":1726:1791   */\n      tag_542\n        /* \"#utility.yul\":1788:1789   */\n      0x00\n        /* \"#utility.yul\":1777:1786   */\n      dup4\n        /* \"#utility.yul\":1773:1790   */\n      add\n        /* \"#utility.yul\":1764:1770   */\n      dup5\n        /* \"#utility.yul\":1726:1791   */\n      tag_438\n      jump\t// in\n    tag_542:\n        /* \"#utility.yul\":1588:1798   */\n      swap3\n      swap2\n      pop\n      pop\n      jump\t// out\n        /* \"#utility.yul\":1804:1954   */\n    tag_439:\n        /* \"#utility.yul\":1907:1913   */\n      0x00\n        /* \"#utility.yul\":1941:1946   */\n      dup2\n        /* \"#utility.yul\":1935:1947   */\n      mload\n        /* \"#utility.yul\":1925:1947   */\n      swap1\n      pop\n        /* \"#utility.yul\":1804:1954   */\n      swap2\n      swap1\n      pop\n      jump\t// out\n        /* \"#utility.yul\":1960:2180   */\n    tag_440:\n        /* \"#utility.yul\":2095:2106   */\n      0x00\n        /* \"#utility.yul\":2129:2135   */\n      dup3\n        /* \"#utility.yul\":2124:2127   */\n      dup3\n        /* \"#utility.yul\":2117:2136   */\n      mstore\n        /* \"#utility.yul\":2169:2173   */\n      0x20\n        /* \"#utility.yul\":2164:2167   */\n      dup3\n        /* \"#utility.yul\":2160:2174   */\n      add\n        /* \"#utility.yul\":2145:2174   */\n      swap1\n      pop\n        /* \"#utility.yul\":1960:2180   */\n      swap3\n      swap2\n      pop\n      pop\n      jump\t// out\n        /* \"#utility.yul\":2186:2354   */\n    tag_441:\n        /* \"#utility.yul\":2289:2293   */\n      0x00\n        /* \"#utility.yul\":2312:2315   */\n      dup2\n        /* \"#utility.yul\":2304:2315   */\n      swap1\n      pop\n        /* \"#utility.yul\":2342:2346   */\n      0x20\n        /* \"#utility.yul\":2337:2340   */\n      dup3\n        /* \"#utility.yul\":2333:2347   */\n      add\n        /* \"#utility.yul\":2325:2347   */\n      swap1\n      pop\n        /* \"#utility.yul\":2186:2354   */\n      swap2\n      swap1\n      pop\n      jump\t// out\n        /* \"#utility.yul\":2360:2468   */\n    tag_442:\n        /* \"#utility.yul\":2437:2461   */\n      tag_547\n        /* \"#utility.yul\":2455:2460   */\n      dup2\n        /* \"#utility.yul\":2437:2461   */\n      tag_430\n      jump\t// in\n    tag_547:\n        /* \"#utility.yul\":2432:2435   */\n      dup3\n        /* \"#utility.yul\":2425:2462   */\n      mstore\n        /* \"#utility.yul\":2360:2468   */\n      pop\n      pop\n      jump\t// out\n        /* \"#utility.yul\":2474:2573   */\n    tag_443:\n        /* \"#utility.yul\":2526:2532   */\n      0x00\n        /* \"#utility.yul\":2560:2565   */\n      dup2\n        /* \"#utility.yul\":2554:2566   */\n      mload\n        /* \"#utility.yul\":2544:2566   */\n      swap1\n      pop\n        /* \"#utility.yul\":2474:2573   */\n      swap2\n      swap1\n      pop\n      jump\t// out\n        /* \"#utility.yul\":2579:2738   */\n    tag_444:\n        /* \"#utility.yul\":2653:2664   */\n      0x00\n        /* \"#utility.yul\":2687:2693   */\n      dup3\n        /* \"#utility.yul\":2682:2685   */\n      dup3\n        /* \"#utility.yul\":2675:2694   */\n      mstore\n        /* \"#utility.yul\":2727:2731   */\n      0x20\n        /* \"#utility.yul\":2722:2725   */\n      dup3\n        /* \"#utility.yul\":2718:2732   */\n      add\n        /* \"#utility.yul\":2703:2732   */\n      swap1\n      pop\n        /* \"#utility.yul\":2579:2738   */\n      swap3\n      swap2\n      pop\n      pop\n      jump\t// out\n        /* \"#utility.yul\":2744:3051   */\n    tag_445:\n        /* \"#utility.yul\":2812:2813   */\n      0x00\n        /* \"#utility.yul\":2822:2935   */\n    tag_551:\n        /* \"#utility.yul\":2836:2842   */\n      dup4\n        /* \"#utility.yul\":2833:2834   */\n      dup2\n        /* \"#utility.yul\":2830:2843   */\n      lt\n        /* \"#utility.yul\":2822:2935   */\n      iszero\n      tag_553\n      jumpi\n        /* \"#utility.yul\":2921:2922   */\n      dup1\n        /* \"#utility.yul\":2916:2919   */\n      dup3\n        /* \"#utility.yul\":2912:2923   */\n      add\n        /* \"#utility.yul\":2906:2924   */\n      mload\n        /* \"#utility.yul\":2902:2903   */\n      dup2\n        /* \"#utility.yul\":2897:2900   */\n      dup5\n        /* \"#utility.yul\":2893:2904   */\n      add\n        /* \"#utility.yul\":2886:2925   */\n      mstore\n        /* \"#utility.yul\":2858:2860   */\n      0x20\n        /* \"#utility.yul\":2855:2856   */\n      dup2\n        /* \"#utility.yul\":2851:2861   */\n      add\n        /* \"#utility.yul\":2846:2861   */\n      swap1\n      pop\n        /* \"#utility.yul\":2822:2935   */\n      jump(tag_551)\n    tag_553:\n        /* \"#utility.yul\":2953:2959   */\n      dup4\n        /* \"#utility.yul\":2950:2951   */\n      dup2\n        /* \"#utility.yul\":2947:2960   */\n      gt\n        /* \"#utility.yul\":2944:3045   */\n      iszero\n      tag_554\n      jumpi\n        /* \"#utility.yul\":3033:3034   */\n      0x00\n        /* \"#utility.yul\":3024:3030   */\n      dup5\n        /* \"#utility.yul\":3019:3022   */\n      dup5\n        /* \"#utility.yul\":3015:3031   */\n      add\n        /* \"#utility.yul\":3008:3035   */\n      mstore\n        /* \"#utility.yul\":2944:3045   */\n    tag_554:\n        /* \"#utility.yul\":2793:3051   */\n      pop\n        /* \"#utility.yul\":2744:3051   */\n      pop\n      pop\n      pop\n      jump\t// out\n        /* \"#utility.yul\":3057:3159   */\n    tag_446:\n        /* \"#utility.yul\":3098:3104   */\n      0x00\n        /* \"#utility.yul\":3149:3151   */\n      0x1f\n        /* \"#utility.yul\":3145:3152   */\n      not\n        /* \"#utility.yul\":3140:3142   */\n      0x1f\n        /* \"#utility.yul\":3133:3138   */\n      dup4\n        /* \"#utility.yul\":3129:3143   */\n      add\n        /* \"#utility.yul\":3125:3153   */\n      and\n        /* \"#utility.yul\":3115:3153   */\n      swap1\n      pop\n        /* \"#utility.yul\":3057:3159   */\n      swap2\n      swap1\n      pop\n      jump\t// out\n        /* \"#utility.yul\":3165:3509   */\n    tag_447:\n        /* \"#utility.yul\":3243:3246   */\n      0x00\n        /* \"#utility.yul\":3271:3310   */\n      tag_557\n        /* \"#utility.yul\":3304:3309   */\n      dup3\n        /* \"#utility.yul\":3271:3310   */\n      tag_443\n      jump\t// in\n    tag_557:\n        /* \"#utility.yul\":3326:3387   */\n      tag_558\n        /* \"#utility.yul\":3380:3386   */\n      dup2\n        /* \"#utility.yul\":3375:3378   */\n      dup6\n        /* \"#utility.yul\":3326:3387   */\n      tag_444\n      jump\t// in\n    tag_558:\n        /* \"#utility.yul\":3319:3387   */\n      swap4\n      pop\n        /* \"#utility.yul\":3396:3448   */\n      tag_559\n        /* \"#utility.yul\":3441:3447   */\n      dup2\n        /* \"#utility.yul\":3436:3439   */\n      dup6\n        /* \"#utility.yul\":3429:3433   */\n      0x20\n        /* \"#utility.yul\":3422:3427   */\n      dup7\n        /* \"#utility.yul\":3418:3434   */\n      add\n        /* \"#utility.yul\":3396:3448   */\n      tag_445\n      jump\t// in\n    tag_559:\n        /* \"#utility.yul\":3473:3502   */\n      tag_560\n        /* \"#utility.yul\":3495:3501   */\n      dup2\n        /* \"#utility.yul\":3473:3502   */\n      tag_446\n      jump\t// in\n    tag_560:\n        /* \"#utility.yul\":3468:3471   */\n      dup5\n        /* \"#utility.yul\":3464:3503   */\n      add\n        /* \"#utility.yul\":3457:3503   */\n      swap2\n      pop\n        /* \"#utility.yul\":3247:3509   */\n      pop\n        /* \"#utility.yul\":3165:3509   */\n      swap3\n      swap2\n      pop\n      pop\n      jump\t// out\n        /* \"#utility.yul\":3515:3641   */\n    tag_448:\n        /* \"#utility.yul\":3552:3559   */\n      0x00\n        /* \"#utility.yul\":3592:3634   */\n      0xffffffffffffffffffffffffffffffffffffffff\n        /* \"#utility.yul\":3585:3590   */\n      dup3\n        /* \"#utility.yul\":3581:3635   */\n      and\n        /* \"#utility.yul\":3570:3635   */\n      swap1\n      pop\n        /* \"#utility.yul\":3515:3641   */\n      swap2\n      swap1\n      pop\n      jump\t// out\n        /* \"#utility.yul\":3647:3743   */\n    tag_449:\n        /* \"#utility.yul\":3684:3691   */\n      0x00\n        /* \"#utility.yul\":3713:3737   */\n      tag_563\n        /* \"#utility.yul\":3731:3736   */\n      dup3\n        /* \"#utility.yul\":3713:3737   */\n      tag_448\n      jump\t// in\n    tag_563:\n        /* \"#utility.yul\":3702:3737   */\n      swap1\n      pop\n        /* \"#utility.yul\":3647:3743   */\n      swap2\n      swap1\n      pop\n      jump\t// out\n        /* \"#utility.yul\":3749:3857   */\n    tag_450:\n        /* \"#utility.yul\":3826:3850   */\n      tag_565\n        /* \"#utility.yul\":3844:3849   */\n      dup2\n        /* \"#utility.yul\":3826:3850   */\n      tag_449\n      jump\t// in\n    tag_565:\n        /* \"#utility.yul\":3821:3824   */\n      dup3\n        /* \"#utility.yul\":3814:3851   */\n      mstore\n        /* \"#utility.yul\":3749:3857   */\n      pop\n      pop\n      jump\t// out\n        /* \"#utility.yul\":3945:5007   */\n    tag_451:\n        /* \"#utility.yul\":4076:4079   */\n      0x00\n        /* \"#utility.yul\":4112:4116   */\n      0x80\n        /* \"#utility.yul\":4107:4110   */\n      dup4\n        /* \"#utility.yul\":4103:4117   */\n      add\n        /* \"#utility.yul\":4205:4209   */\n      0x00\n        /* \"#utility.yul\":4198:4203   */\n      dup4\n        /* \"#utility.yul\":4194:4210   */\n      add\n        /* \"#utility.yul\":4188:4211   */\n      mload\n        /* \"#utility.yul\":4224:4287   */\n      tag_567\n        /* \"#utility.yul\":4281:4285   */\n      0x00\n        /* \"#utility.yul\":4276:4279   */\n      dup7\n        /* \"#utility.yul\":4272:4286   */\n      add\n        /* \"#utility.yul\":4258:4270   */\n      dup3\n        /* \"#utility.yul\":4224:4287   */\n      tag_442\n      jump\t// in\n    tag_567:\n        /* \"#utility.yul\":4127:4297   */\n      pop\n        /* \"#utility.yul\":4381:4385   */\n      0x20\n        /* \"#utility.yul\":4374:4379   */\n      dup4\n        /* \"#utility.yul\":4370:4386   */\n      add\n        /* \"#utility.yul\":4364:4387   */\n      mload\n        /* \"#utility.yul\":4434:4437   */\n      dup5\n        /* \"#utility.yul\":4428:4432   */\n      dup3\n        /* \"#utility.yul\":4424:4438   */\n      sub\n        /* \"#utility.yul\":4417:4421   */\n      0x20\n        /* \"#utility.yul\":4412:4415   */\n      dup7\n        /* \"#utility.yul\":4408:4422   */\n      add\n        /* \"#utility.yul\":4401:4439   */\n      mstore\n        /* \"#utility.yul\":4460:4533   */\n      tag_568\n        /* \"#utility.yul\":4528:4532   */\n      dup3\n        /* \"#utility.yul\":4514:4526   */\n      dup3\n        /* \"#utility.yul\":4460:4533   */\n      tag_447\n      jump\t// in\n    tag_568:\n        /* \"#utility.yul\":4452:4533   */\n      swap2\n      pop\n        /* \"#utility.yul\":4307:4544   */\n      pop\n        /* \"#utility.yul\":4635:4639   */\n      0x40\n        /* \"#utility.yul\":4628:4633   */\n      dup4\n        /* \"#utility.yul\":4624:4640   */\n      add\n        /* \"#utility.yul\":4618:4641   */\n      mload\n        /* \"#utility.yul\":4654:4717   */\n      tag_569\n        /* \"#utility.yul\":4711:4715   */\n      0x40\n        /* \"#utility.yul\":4706:4709   */\n      dup7\n        /* \"#utility.yul\":4702:4716   */\n      add\n        /* \"#utility.yul\":4688:4700   */\n      dup3\n        /* \"#utility.yul\":4654:4717   */\n      tag_450\n      jump\t// in\n    tag_569:\n        /* \"#utility.yul\":4554:4727   */\n      pop\n        /* \"#utility.yul\":4817:4821   */\n      0x60\n        /* \"#utility.yul\":4810:4815   */\n      dup4\n        /* \"#utility.yul\":4806:4822   */\n      add\n        /* \"#utility.yul\":4800:4823   */\n      mload\n        /* \"#utility.yul\":4870:4873   */\n      dup5\n        /* \"#utility.yul\":4864:4868   */\n      dup3\n        /* \"#utility.yul\":4860:4874   */\n      sub\n        /* \"#utility.yul\":4853:4857   */\n      0x60\n        /* \"#utility.yul\":4848:4851   */\n      dup7\n        /* \"#utility.yul\":4844:4858   */\n      add\n        /* \"#utility.yul\":4837:4875   */\n      mstore\n        /* \"#utility.yul\":4896:4969   */\n      tag_570\n        /* \"#utility.yul\":4964:4968   */\n      dup3\n        /* \"#utility.yul\":4950:4962   */\n      dup3\n        /* \"#utility.yul\":4896:4969   */\n      tag_447\n      jump\t// in\n    tag_570:\n        /* \"#utility.yul\":4888:4969   */\n      swap2\n      pop\n        /* \"#utility.yul\":4737:4980   */\n      pop\n        /* \"#utility.yul\":4997:5001   */\n      dup1\n        /* \"#utility.yul\":4990:5001   */\n      swap2\n      pop\n        /* \"#utility.yul\":4081:5007   */\n      pop\n        /* \"#utility.yul\":3945:5007   */\n      swap3\n      swap2\n      pop\n      pop\n      jump\t// out\n        /* \"#utility.yul\":5013:5313   */\n    tag_452:\n        /* \"#utility.yul\":5154:5164   */\n      0x00\n        /* \"#utility.yul\":5189:5307   */\n      tag_572\n        /* \"#utility.yul\":5303:5306   */\n      dup4\n        /* \"#utility.yul\":5295:5301   */\n      dup4\n        /* \"#utility.yul\":5189:5307   */\n      tag_451\n      jump\t// in\n    tag_572:\n        /* \"#utility.yul\":5175:5307   */\n      swap1\n      pop\n        /* \"#utility.yul\":5013:5313   */\n      swap3\n      swap2\n      pop\n      pop\n      jump\t// out\n        /* \"#utility.yul\":5319:5468   */\n    tag_453:\n        /* \"#utility.yul\":5425:5429   */\n      0x00\n        /* \"#utility.yul\":5457:5461   */\n      0x20\n        /* \"#utility.yul\":5452:5455   */\n      dup3\n        /* \"#utility.yul\":5448:5462   */\n      add\n        /* \"#utility.yul\":5440:5462   */\n      swap1\n      pop\n        /* \"#utility.yul\":5319:5468   */\n      swap2\n      swap1\n      pop\n      jump\t// out\n        /* \"#utility.yul\":5560:6759   */\n    tag_454:\n        /* \"#utility.yul\":5751:5754   */\n      0x00\n        /* \"#utility.yul\":5780:5870   */\n      tag_575\n        /* \"#utility.yul\":5864:5869   */\n      dup3\n        /* \"#utility.yul\":5780:5870   */\n      tag_439\n      jump\t// in\n    tag_575:\n        /* \"#utility.yul\":5886:6008   */\n      tag_576\n        /* \"#utility.yul\":6001:6007   */\n      dup2\n        /* \"#utility.yul\":5996:5999   */\n      dup6\n        /* \"#utility.yul\":5886:6008   */\n      tag_440\n      jump\t// in\n    tag_576:\n        /* \"#utility.yul\":5879:6008   */\n      swap4\n      pop\n        /* \"#utility.yul\":6034:6037   */\n      dup4\n        /* \"#utility.yul\":6079:6083   */\n      0x20\n        /* \"#utility.yul\":6071:6077   */\n      dup3\n        /* \"#utility.yul\":6067:6084   */\n      mul\n        /* \"#utility.yul\":6062:6065   */\n      dup6\n        /* \"#utility.yul\":6058:6085   */\n      add\n        /* \"#utility.yul\":6109:6201   */\n      tag_577\n        /* \"#utility.yul\":6195:6200   */\n      dup6\n        /* \"#utility.yul\":6109:6201   */\n      tag_441\n      jump\t// in\n    tag_577:\n        /* \"#utility.yul\":6224:6231   */\n      dup1\n        /* \"#utility.yul\":6255:6256   */\n      0x00\n        /* \"#utility.yul\":6240:6714   */\n    tag_578:\n        /* \"#utility.yul\":6265:6271   */\n      dup6\n        /* \"#utility.yul\":6262:6263   */\n      dup2\n        /* \"#utility.yul\":6259:6272   */\n      lt\n        /* \"#utility.yul\":6240:6714   */\n      iszero\n      tag_580\n      jumpi\n        /* \"#utility.yul\":6336:6345   */\n      dup5\n        /* \"#utility.yul\":6330:6334   */\n      dup5\n        /* \"#utility.yul\":6326:6346   */\n      sub\n        /* \"#utility.yul\":6321:6324   */\n      dup10\n        /* \"#utility.yul\":6314:6347   */\n      mstore\n        /* \"#utility.yul\":6387:6393   */\n      dup2\n        /* \"#utility.yul\":6381:6394   */\n      mload\n        /* \"#utility.yul\":6415:6551   */\n      tag_581\n        /* \"#utility.yul\":6546:6550   */\n      dup6\n        /* \"#utility.yul\":6531:6544   */\n      dup3\n        /* \"#utility.yul\":6415:6551   */\n      tag_452\n      jump\t// in\n    tag_581:\n        /* \"#utility.yul\":6407:6551   */\n      swap5\n      pop\n        /* \"#utility.yul\":6574:6670   */\n      tag_582\n        /* \"#utility.yul\":6663:6669   */\n      dup4\n        /* \"#utility.yul\":6574:6670   */\n      tag_453\n      jump\t// in\n    tag_582:\n        /* \"#utility.yul\":6564:6670   */\n      swap3\n      pop\n        /* \"#utility.yul\":6699:6703   */\n      0x20\n        /* \"#utility.yul\":6694:6697   */\n      dup11\n        /* \"#utility.yul\":6690:6704   */\n      add\n        /* \"#utility.yul\":6683:6704   */\n      swap10\n      pop\n        /* \"#utility.yul\":6300:6714   */\n      pop\n        /* \"#utility.yul\":6287:6288   */\n      0x01\n        /* \"#utility.yul\":6284:6285   */\n      dup2\n        /* \"#utility.yul\":6280:6289   */\n      add\n        /* \"#utility.yul\":6275:6289   */\n      swap1\n      pop\n        /* \"#utility.yul\":6240:6714   */\n      jump(tag_578)\n    tag_580:\n        /* \"#utility.yul\":6244:6258   */\n      pop\n        /* \"#utility.yul\":6730:6734   */\n      dup3\n        /* \"#utility.yul\":6723:6734   */\n      swap8\n      pop\n        /* \"#utility.yul\":6750:6753   */\n      dup8\n        /* \"#utility.yul\":6743:6753   */\n      swap6\n      pop\n        /* \"#utility.yul\":5756:6759   */\n      pop\n      pop\n      pop\n      pop\n      pop\n        /* \"#utility.yul\":5560:6759   */\n      swap3\n      swap2\n      pop\n      pop\n      jump\t// out\n        /* \"#utility.yul\":6765:7282   */\n    tag_41:\n        /* \"#utility.yul\":6980:6984   */\n      0x00\n        /* \"#utility.yul\":7018:7020   */\n      0x20\n        /* \"#utility.yul\":7007:7016   */\n      dup3\n        /* \"#utility.yul\":7003:7021   */\n      add\n        /* \"#utility.yul\":6995:7021   */\n      swap1\n      pop\n        /* \"#utility.yul\":7067:7076   */\n      dup2\n        /* \"#utility.yul\":7061:7065   */\n      dup2\n        /* \"#utility.yul\":7057:7077   */\n      sub\n        /* \"#utility.yul\":7053:7054   */\n      0x00\n        /* \"#utility.yul\":7042:7051   */\n      dup4\n        /* \"#utility.yul\":7038:7055   */\n      add\n        /* \"#utility.yul\":7031:7078   */\n      mstore\n        /* \"#utility.yul\":7095:7275   */\n      tag_584\n        /* \"#utility.yul\":7270:7274   */\n      dup2\n        /* \"#utility.yul\":7261:7267   */\n      dup5\n        /* \"#utility.yul\":7095:7275   */\n      tag_454\n      jump\t// in\n    tag_584:\n        /* \"#utility.yul\":7087:7275   */\n      swap1\n      pop\n        /* \"#utility.yul\":6765:7282   */\n      swap3\n      swap2\n      pop\n      pop\n      jump\t// out\n        /* \"#utility.yul\":7288:7348   */\n    tag_455:\n        /* \"#utility.yul\":7316:7319   */\n      0x00\n        /* \"#utility.yul\":7337:7342   */\n      dup2\n        /* \"#utility.yul\":7330:7342   */\n      swap1\n      pop\n        /* \"#utility.yul\":7288:7348   */\n      swap2\n      swap1\n      pop\n      jump\t// out\n        /* \"#utility.yul\":7354:7496   */\n    tag_456:\n        /* \"#utility.yul\":7404:7413   */\n      0x00\n        /* \"#utility.yul\":7437:7490   */\n      tag_587\n        /* \"#utility.yul\":7455:7489   */\n      tag_588\n        /* \"#utility.yul\":7464:7488   */\n      tag_589\n        /* \"#utility.yul\":7482:7487   */\n      dup5\n        /* \"#utility.yul\":7464:7488   */\n      tag_448\n      jump\t// in\n    tag_589:\n        /* \"#utility.yul\":7455:7489   */\n      tag_455\n      jump\t// in\n    tag_588:\n        /* \"#utility.yul\":7437:7490   */\n      tag_448\n      jump\t// in\n    tag_587:\n        /* \"#utility.yul\":7424:7490   */\n      swap1\n      pop\n        /* \"#utility.yul\":7354:7496   */\n      swap2\n      swap1\n      pop\n      jump\t// out\n        /* \"#utility.yul\":7502:7628   */\n    tag_457:\n        /* \"#utility.yul\":7552:7561   */\n      0x00\n        /* \"#utility.yul\":7585:7622   */\n      tag_591\n        /* \"#utility.yul\":7616:7621   */\n      dup3\n        /* \"#utility.yul\":7585:7622   */\n      tag_456\n      jump\t// in\n    tag_591:\n        /* \"#utility.yul\":7572:7622   */\n      swap1\n      pop\n        /* \"#utility.yul\":7502:7628   */\n      swap2\n      swap1\n      pop\n      jump\t// out\n        /* \"#utility.yul\":7634:7780   */\n    tag_458:\n        /* \"#utility.yul\":7704:7713   */\n      0x00\n        /* \"#utility.yul\":7737:7774   */\n      tag_593\n        /* \"#utility.yul\":7768:7773   */\n      dup3\n        /* \"#utility.yul\":7737:7774   */\n      tag_457\n      jump\t// in\n    tag_593:\n        /* \"#utility.yul\":7724:7774   */\n      swap1\n      pop\n        /* \"#utility.yul\":7634:7780   */\n      swap2\n      swap1\n      pop\n      jump\t// out\n        /* \"#utility.yul\":7786:7957   */\n    tag_459:\n        /* \"#utility.yul\":7893:7950   */\n      tag_595\n        /* \"#utility.yul\":7944:7949   */\n      dup2\n        /* \"#utility.yul\":7893:7950   */\n      tag_458\n      jump\t// in\n    tag_595:\n        /* \"#utility.yul\":7888:7891   */\n      dup3\n        /* \"#utility.yul\":7881:7951   */\n      mstore\n        /* \"#utility.yul\":7786:7957   */\n      pop\n      pop\n      jump\t// out\n        /* \"#utility.yul\":7963:8225   */\n    tag_45:\n        /* \"#utility.yul\":8076:8080   */\n      0x00\n        /* \"#utility.yul\":8114:8116   */\n      0x20\n        /* \"#utility.yul\":8103:8112   */\n      dup3\n        /* \"#utility.yul\":8099:8117   */\n      add\n        /* \"#utility.yul\":8091:8117   */\n      swap1\n      pop\n        /* \"#utility.yul\":8127:8218   */\n      tag_597\n        /* \"#utility.yul\":8215:8216   */\n      0x00\n        /* \"#utility.yul\":8204:8213   */\n      dup4\n        /* \"#utility.yul\":8200:8217   */\n      add\n        /* \"#utility.yul\":8191:8197   */\n      dup5\n        /* \"#utility.yul\":8127:8218   */\n      tag_459\n      jump\t// in\n    tag_597:\n        /* \"#utility.yul\":7963:8225   */\n      swap3\n      swap2\n      pop\n      pop\n      jump\t// out\n        /* \"#utility.yul\":8231:8349   */\n    tag_460:\n        /* \"#utility.yul\":8318:8342   */\n      tag_599\n        /* \"#utility.yul\":8336:8341   */\n      dup2\n        /* \"#utility.yul\":8318:8342   */\n      tag_449\n      jump\t// in\n    tag_599:\n        /* \"#utility.yul\":8313:8316   */\n      dup3\n        /* \"#utility.yul\":8306:8343   */\n      mstore\n        /* \"#utility.yul\":8231:8349   */\n      pop\n      pop\n      jump\t// out\n        /* \"#utility.yul\":8355:8577   */\n    tag_49:\n        /* \"#utility.yul\":8448:8452   */\n      0x00\n        /* \"#utility.yul\":8486:8488   */\n      0x20\n        /* \"#utility.yul\":8475:8484   */\n      dup3\n        /* \"#utility.yul\":8471:8489   */\n      add\n        /* \"#utility.yul\":8463:8489   */\n      swap1\n      pop\n        /* \"#utility.yul\":8499:8570   */\n      tag_601\n        /* \"#utility.yul\":8567:8568   */\n      0x00\n        /* \"#utility.yul\":8556:8565   */\n      dup4\n        /* \"#utility.yul\":8552:8569   */\n      add\n        /* \"#utility.yul\":8543:8549   */\n      dup5\n        /* \"#utility.yul\":8499:8570   */\n      tag_460\n      jump\t// in\n    tag_601:\n        /* \"#utility.yul\":8355:8577   */\n      swap3\n      swap2\n      pop\n      pop\n      jump\t// out\n        /* \"#utility.yul\":8583:8700   */\n    tag_461:\n        /* \"#utility.yul\":8692:8693   */\n      0x00\n        /* \"#utility.yul\":8689:8690   */\n      dup1\n        /* \"#utility.yul\":8682:8694   */\n      revert\n        /* \"#utility.yul\":8706:8823   */\n    tag_462:\n        /* \"#utility.yul\":8815:8816   */\n      0x00\n        /* \"#utility.yul\":8812:8813   */\n      dup1\n        /* \"#utility.yul\":8805:8817   */\n      revert\n        /* \"#utility.yul\":8829:9009   */\n    tag_117:\n        /* \"#utility.yul\":8877:8954   */\n      0x4e487b7100000000000000000000000000000000000000000000000000000000\n        /* \"#utility.yul\":8874:8875   */\n      0x00\n        /* \"#utility.yul\":8867:8955   */\n      mstore\n        /* \"#utility.yul\":8974:8978   */\n      0x41\n        /* \"#utility.yul\":8971:8972   */\n      0x04\n        /* \"#utility.yul\":8964:8979   */\n      mstore\n        /* \"#utility.yul\":8998:9002   */\n      0x24\n        /* \"#utility.yul\":8995:8996   */\n      0x00\n        /* \"#utility.yul\":8988:9003   */\n      revert\n        /* \"#utility.yul\":9015:9296   */\n    tag_463:\n        /* \"#utility.yul\":9098:9125   */\n      tag_606\n        /* \"#utility.yul\":9120:9124   */\n      dup3\n        /* \"#utility.yul\":9098:9125   */\n      tag_446\n      jump\t// in\n    tag_606:\n        /* \"#utility.yul\":9090:9096   */\n      dup2\n        /* \"#utility.yul\":9086:9126   */\n      add\n        /* \"#utility.yul\":9228:9234   */\n      dup2\n        /* \"#utility.yul\":9216:9226   */\n      dup2\n        /* \"#utility.yul\":9213:9235   */\n      lt\n        /* \"#utility.yul\":9192:9210   */\n      0xffffffffffffffff\n        /* \"#utility.yul\":9180:9190   */\n      dup3\n        /* \"#utility.yul\":9177:9211   */\n      gt\n        /* \"#utility.yul\":9174:9236   */\n      or\n        /* \"#utility.yul\":9171:9259   */\n      iszero\n      tag_607\n      jumpi\n        /* \"#utility.yul\":9239:9257   */\n      tag_608\n      tag_117\n      jump\t// in\n    tag_608:\n        /* \"#utility.yul\":9171:9259   */\n    tag_607:\n        /* \"#utility.yul\":9279:9289   */\n      dup1\n        /* \"#utility.yul\":9275:9277   */\n      0x40\n        /* \"#utility.yul\":9268:9290   */\n      mstore\n        /* \"#utility.yul\":9058:9296   */\n      pop\n        /* \"#utility.yul\":9015:9296   */\n      pop\n      pop\n      jump\t// out\n        /* \"#utility.yul\":9302:9431   */\n    tag_464:\n        /* \"#utility.yul\":9336:9342   */\n      0x00\n        /* \"#utility.yul\":9363:9383   */\n      tag_610\n      tag_432\n      jump\t// in\n    tag_610:\n        /* \"#utility.yul\":9353:9383   */\n      swap1\n      pop\n        /* \"#utility.yul\":9392:9425   */\n      tag_611\n        /* \"#utility.yul\":9420:9424   */\n      dup3\n        /* \"#utility.yul\":9412:9418   */\n      dup3\n        /* \"#utility.yul\":9392:9425   */\n      tag_463\n      jump\t// in\n    tag_611:\n        /* \"#utility.yul\":9302:9431   */\n      swap2\n      swap1\n      pop\n      jump\t// out\n        /* \"#utility.yul\":9437:9745   */\n    tag_465:\n        /* \"#utility.yul\":9499:9503   */\n      0x00\n        /* \"#utility.yul\":9589:9607   */\n      0xffffffffffffffff\n        /* \"#utility.yul\":9581:9587   */\n      dup3\n        /* \"#utility.yul\":9578:9608   */\n      gt\n        /* \"#utility.yul\":9575:9631   */\n      iszero\n      tag_613\n      jumpi\n        /* \"#utility.yul\":9611:9629   */\n      tag_614\n      tag_117\n      jump\t// in\n    tag_614:\n        /* \"#utility.yul\":9575:9631   */\n    tag_613:\n        /* \"#utility.yul\":9649:9678   */\n      tag_615\n        /* \"#utility.yul\":9671:9677   */\n      dup3\n        /* \"#utility.yul\":9649:9678   */\n      tag_446\n      jump\t// in\n    tag_615:\n        /* \"#utility.yul\":9641:9678   */\n      swap1\n      pop\n        /* \"#utility.yul\":9733:9737   */\n      0x20\n        /* \"#utility.yul\":9727:9731   */\n      dup2\n        /* \"#utility.yul\":9723:9738   */\n      add\n        /* \"#utility.yul\":9715:9738   */\n      swap1\n      pop\n        /* \"#utility.yul\":9437:9745   */\n      swap2\n      swap1\n      pop\n      jump\t// out\n        /* \"#utility.yul\":9751:9905   */\n    tag_466:\n        /* \"#utility.yul\":9835:9841   */\n      dup3\n        /* \"#utility.yul\":9830:9833   */\n      dup2\n        /* \"#utility.yul\":9825:9828   */\n      dup4\n        /* \"#utility.yul\":9812:9842   */\n      calldatacopy\n        /* \"#utility.yul\":9897:9898   */\n      0x00\n        /* \"#utility.yul\":9888:9894   */\n      dup4\n        /* \"#utility.yul\":9883:9886   */\n      dup4\n        /* \"#utility.yul\":9879:9895   */\n      add\n        /* \"#utility.yul\":9872:9899   */\n      mstore\n        /* \"#utility.yul\":9751:9905   */\n      pop\n      pop\n      pop\n      jump\t// out\n        /* \"#utility.yul\":9911:10323   */\n    tag_467:\n        /* \"#utility.yul\":9989:9994   */\n      0x00\n        /* \"#utility.yul\":10014:10080   */\n      tag_618\n        /* \"#utility.yul\":10030:10079   */\n      tag_619\n        /* \"#utility.yul\":10072:10078   */\n      dup5\n        /* \"#utility.yul\":10030:10079   */\n      tag_465\n      jump\t// in\n    tag_619:\n        /* \"#utility.yul\":10014:10080   */\n      tag_464\n      jump\t// in\n    tag_618:\n        /* \"#utility.yul\":10005:10080   */\n      swap1\n      pop\n        /* \"#utility.yul\":10103:10109   */\n      dup3\n        /* \"#utility.yul\":10096:10101   */\n      dup2\n        /* \"#utility.yul\":10089:10110   */\n      mstore\n        /* \"#utility.yul\":10141:10145   */\n      0x20\n        /* \"#utility.yul\":10134:10139   */\n      dup2\n        /* \"#utility.yul\":10130:10146   */\n      add\n        /* \"#utility.yul\":10179:10182   */\n      dup5\n        /* \"#utility.yul\":10170:10176   */\n      dup5\n        /* \"#utility.yul\":10165:10168   */\n      dup5\n        /* \"#utility.yul\":10161:10177   */\n      add\n        /* \"#utility.yul\":10158:10183   */\n      gt\n        /* \"#utility.yul\":10155:10267   */\n      iszero\n      tag_620\n      jumpi\n        /* \"#utility.yul\":10186:10265   */\n      tag_621\n      tag_462\n      jump\t// in\n    tag_621:\n        /* \"#utility.yul\":10155:10267   */\n    tag_620:\n        /* \"#utility.yul\":10276:10317   */\n      tag_622\n        /* \"#utility.yul\":10310:10316   */\n      dup5\n        /* \"#utility.yul\":10305:10308   */\n      dup3\n        /* \"#utility.yul\":10300:10303   */\n      dup6\n        /* \"#utility.yul\":10276:10317   */\n      tag_466\n      jump\t// in\n    tag_622:\n        /* \"#utility.yul\":9995:10323   */\n      pop\n        /* \"#utility.yul\":9911:10323   */\n      swap4\n      swap3\n      pop\n      pop\n      pop\n      jump\t// out\n        /* \"#utility.yul\":10343:10683   */\n    tag_468:\n        /* \"#utility.yul\":10399:10404   */\n      0x00\n        /* \"#utility.yul\":10448:10451   */\n      dup3\n        /* \"#utility.yul\":10441:10445   */\n      0x1f\n        /* \"#utility.yul\":10433:10439   */\n      dup4\n        /* \"#utility.yul\":10429:10446   */\n      add\n        /* \"#utility.yul\":10425:10452   */\n      slt\n        /* \"#utility.yul\":10415:10537   */\n      tag_624\n      jumpi\n        /* \"#utility.yul\":10456:10535   */\n      tag_625\n      tag_461\n      jump\t// in\n    tag_625:\n        /* \"#utility.yul\":10415:10537   */\n    tag_624:\n        /* \"#utility.yul\":10573:10579   */\n      dup2\n        /* \"#utility.yul\":10560:10580   */\n      calldataload\n        /* \"#utility.yul\":10598:10677   */\n      tag_626\n        /* \"#utility.yul\":10673:10676   */\n      dup5\n        /* \"#utility.yul\":10665:10671   */\n      dup3\n        /* \"#utility.yul\":10658:10662   */\n      0x20\n        /* \"#utility.yul\":10650:10656   */\n      dup7\n        /* \"#utility.yul\":10646:10663   */\n      add\n        /* \"#utility.yul\":10598:10677   */\n      tag_467\n      jump\t// in\n    tag_626:\n        /* \"#utility.yul\":10589:10677   */\n      swap2\n      pop\n        /* \"#utility.yul\":10405:10683   */\n      pop\n        /* \"#utility.yul\":10343:10683   */\n      swap3\n      swap2\n      pop\n      pop\n      jump\t// out\n        /* \"#utility.yul\":10689:11343   */\n    tag_59:\n        /* \"#utility.yul\":10767:10773   */\n      0x00\n        /* \"#utility.yul\":10775:10781   */\n      dup1\n        /* \"#utility.yul\":10824:10826   */\n      0x40\n        /* \"#utility.yul\":10812:10821   */\n      dup4\n        /* \"#utility.yul\":10803:10810   */\n      dup6\n        /* \"#utility.yul\":10799:10822   */\n      sub\n        /* \"#utility.yul\":10795:10827   */\n      slt\n        /* \"#utility.yul\":10792:10911   */\n      iszero\n      tag_628\n      jumpi\n        /* \"#utility.yul\":10830:10909   */\n      tag_629\n      tag_433\n      jump\t// in\n    tag_629:\n        /* \"#utility.yul\":10792:10911   */\n    tag_628:\n        /* \"#utility.yul\":10950:10951   */\n      0x00\n        /* \"#utility.yul\":10975:11028   */\n      tag_630\n        /* \"#utility.yul\":11020:11027   */\n      dup6\n        /* \"#utility.yul\":11011:11017   */\n      dup3\n        /* \"#utility.yul\":11000:11009   */\n      dup7\n        /* \"#utility.yul\":10996:11018   */\n      add\n        /* \"#utility.yul\":10975:11028   */\n      tag_436\n      jump\t// in\n    tag_630:\n        /* \"#utility.yul\":10965:11028   */\n      swap3\n      pop\n        /* \"#utility.yul\":10921:11038   */\n      pop\n        /* \"#utility.yul\":11105:11107   */\n      0x20\n        /* \"#utility.yul\":11094:11103   */\n      dup4\n        /* \"#utility.yul\":11090:11108   */\n      add\n        /* \"#utility.yul\":11077:11109   */\n      calldataload\n        /* \"#utility.yul\":11136:11154   */\n      0xffffffffffffffff\n        /* \"#utility.yul\":11128:11134   */\n      dup2\n        /* \"#utility.yul\":11125:11155   */\n      gt\n        /* \"#utility.yul\":11122:11239   */\n      iszero\n      tag_631\n      jumpi\n        /* \"#utility.yul\":11158:11237   */\n      tag_632\n      tag_434\n      jump\t// in\n    tag_632:\n        /* \"#utility.yul\":11122:11239   */\n    tag_631:\n        /* \"#utility.yul\":11263:11326   */\n      tag_633\n        /* \"#utility.yul\":11318:11325   */\n      dup6\n        /* \"#utility.yul\":11309:11315   */\n      dup3\n        /* \"#utility.yul\":11298:11307   */\n      dup7\n        /* \"#utility.yul\":11294:11316   */\n      add\n        /* \"#utility.yul\":11263:11326   */\n      tag_468\n      jump\t// in\n    tag_633:\n        /* \"#utility.yul\":11253:11326   */\n      swap2\n      pop\n        /* \"#utility.yul\":11048:11336   */\n      pop\n        /* \"#utility.yul\":10689:11343   */\n      swap3\n      pop\n      swap3\n      swap1\n      pop\n      jump\t// out\n        /* \"#utility.yul\":11349:11518   */\n    tag_469:\n        /* \"#utility.yul\":11433:11444   */\n      0x00\n        /* \"#utility.yul\":11467:11473   */\n      dup3\n        /* \"#utility.yul\":11462:11465   */\n      dup3\n        /* \"#utility.yul\":11455:11474   */\n      mstore\n        /* \"#utility.yul\":11507:11511   */\n      0x20\n        /* \"#utility.yul\":11502:11505   */\n      dup3\n        /* \"#utility.yul\":11498:11512   */\n      add\n        /* \"#utility.yul\":11483:11512   */\n      swap1\n      pop\n        /* \"#utility.yul\":11349:11518   */\n      swap3\n      swap2\n      pop\n      pop\n      jump\t// out\n        /* \"#utility.yul\":11524:11888   */\n    tag_470:\n        /* \"#utility.yul\":11612:11615   */\n      0x00\n        /* \"#utility.yul\":11640:11679   */\n      tag_636\n        /* \"#utility.yul\":11673:11678   */\n      dup3\n        /* \"#utility.yul\":11640:11679   */\n      tag_443\n      jump\t// in\n    tag_636:\n        /* \"#utility.yul\":11695:11766   */\n      tag_637\n        /* \"#utility.yul\":11759:11765   */\n      dup2\n        /* \"#utility.yul\":11754:11757   */\n      dup6\n        /* \"#utility.yul\":11695:11766   */\n      tag_469\n      jump\t// in\n    tag_637:\n        /* \"#utility.yul\":11688:11766   */\n      swap4\n      pop\n        /* \"#utility.yul\":11775:11827   */\n      tag_638\n        /* \"#utility.yul\":11820:11826   */\n      dup2\n        /* \"#utility.yul\":11815:11818   */\n      dup6\n        /* \"#utility.yul\":11808:11812   */\n      0x20\n        /* \"#utility.yul\":11801:11806   */\n      dup7\n        /* \"#utility.yul\":11797:11813   */\n      add\n        /* \"#utility.yul\":11775:11827   */\n      tag_445\n      jump\t// in\n    tag_638:\n        /* \"#utility.yul\":11852:11881   */\n      tag_639\n        /* \"#utility.yul\":11874:11880   */\n      dup2\n        /* \"#utility.yul\":11852:11881   */\n      tag_446\n      jump\t// in\n    tag_639:\n        /* \"#utility.yul\":11847:11850   */\n      dup5\n        /* \"#utility.yul\":11843:11882   */\n      add\n        /* \"#utility.yul\":11836:11882   */\n      swap2\n      pop\n        /* \"#utility.yul\":11616:11888   */\n      pop\n        /* \"#utility.yul\":11524:11888   */\n      swap3\n      swap2\n      pop\n      pop\n      jump\t// out\n        /* \"#utility.yul\":11894:12518   */\n    tag_65:\n        /* \"#utility.yul\":12083:12087   */\n      0x00\n        /* \"#utility.yul\":12121:12123   */\n      0x60\n        /* \"#utility.yul\":12110:12119   */\n      dup3\n        /* \"#utility.yul\":12106:12124   */\n      add\n        /* \"#utility.yul\":12098:12124   */\n      swap1\n      pop\n        /* \"#utility.yul\":12170:12179   */\n      dup2\n        /* \"#utility.yul\":12164:12168   */\n      dup2\n        /* \"#utility.yul\":12160:12180   */\n      sub\n        /* \"#utility.yul\":12156:12157   */\n      0x00\n        /* \"#utility.yul\":12145:12154   */\n      dup4\n        /* \"#utility.yul\":12141:12158   */\n      add\n        /* \"#utility.yul\":12134:12181   */\n      mstore\n        /* \"#utility.yul\":12198:12276   */\n      tag_641\n        /* \"#utility.yul\":12271:12275   */\n      dup2\n        /* \"#utility.yul\":12262:12268   */\n      dup7\n        /* \"#utility.yul\":12198:12276   */\n      tag_470\n      jump\t// in\n    tag_641:\n        /* \"#utility.yul\":12190:12276   */\n      swap1\n      pop\n        /* \"#utility.yul\":12323:12332   */\n      dup2\n        /* \"#utility.yul\":12317:12321   */\n      dup2\n        /* \"#utility.yul\":12313:12333   */\n      sub\n        /* \"#utility.yul\":12308:12310   */\n      0x20\n        /* \"#utility.yul\":12297:12306   */\n      dup4\n        /* \"#utility.yul\":12293:12311   */\n      add\n        /* \"#utility.yul\":12286:12334   */\n      mstore\n        /* \"#utility.yul\":12351:12429   */\n      tag_642\n        /* \"#utility.yul\":12424:12428   */\n      dup2\n        /* \"#utility.yul\":12415:12421   */\n      dup6\n        /* \"#utility.yul\":12351:12429   */\n      tag_470\n      jump\t// in\n    tag_642:\n        /* \"#utility.yul\":12343:12429   */\n      swap1\n      pop\n        /* \"#utility.yul\":12439:12511   */\n      tag_643\n        /* \"#utility.yul\":12507:12509   */\n      0x40\n        /* \"#utility.yul\":12496:12505   */\n      dup4\n        /* \"#utility.yul\":12492:12510   */\n      add\n        /* \"#utility.yul\":12483:12489   */\n      dup5\n        /* \"#utility.yul\":12439:12511   */\n      tag_460\n      jump\t// in\n    tag_643:\n        /* \"#utility.yul\":11894:12518   */\n      swap5\n      swap4\n      pop\n      pop\n      pop\n      pop\n      jump\t// out\n        /* \"#utility.yul\":12524:12640   */\n    tag_471:\n        /* \"#utility.yul\":12594:12615   */\n      tag_645\n        /* \"#utility.yul\":12609:12614   */\n      dup2\n        /* \"#utility.yul\":12594:12615   */\n      tag_437\n      jump\t// in\n    tag_645:\n        /* \"#utility.yul\":12587:12592   */\n      dup2\n        /* \"#utility.yul\":12584:12616   */\n      eq\n        /* \"#utility.yul\":12574:12634   */\n      tag_646\n      jumpi\n        /* \"#utility.yul\":12630:12631   */\n      0x00\n        /* \"#utility.yul\":12627:12628   */\n      dup1\n        /* \"#utility.yul\":12620:12632   */\n      revert\n        /* \"#utility.yul\":12574:12634   */\n    tag_646:\n        /* \"#utility.yul\":12524:12640   */\n      pop\n      jump\t// out\n        /* \"#utility.yul\":12646:12779   */\n    tag_472:\n        /* \"#utility.yul\":12689:12694   */\n      0x00\n        /* \"#utility.yul\":12727:12733   */\n      dup2\n        /* \"#utility.yul\":12714:12734   */\n      calldataload\n        /* \"#utility.yul\":12705:12734   */\n      swap1\n      pop\n        /* \"#utility.yul\":12743:12773   */\n      tag_648\n        /* \"#utility.yul\":12767:12772   */\n      dup2\n        /* \"#utility.yul\":12743:12773   */\n      tag_471\n      jump\t// in\n    tag_648:\n        /* \"#utility.yul\":12646:12779   */\n      swap3\n      swap2\n      pop\n      pop\n      jump\t// out\n        /* \"#utility.yul\":12785:13253   */\n    tag_73:\n        /* \"#utility.yul\":12850:12856   */\n      0x00\n        /* \"#utility.yul\":12858:12864   */\n      dup1\n        /* \"#utility.yul\":12907:12909   */\n      0x40\n        /* \"#utility.yul\":12895:12904   */\n      dup4\n        /* \"#utility.yul\":12886:12893   */\n      dup6\n        /* \"#utility.yul\":12882:12905   */\n      sub\n        /* \"#utility.yul\":12878:12910   */\n      slt\n        /* \"#utility.yul\":12875:12994   */\n      iszero\n      tag_650\n      jumpi\n        /* \"#utility.yul\":12913:12992   */\n      tag_651\n      tag_433\n      jump\t// in\n    tag_651:\n        /* \"#utility.yul\":12875:12994   */\n    tag_650:\n        /* \"#utility.yul\":13033:13034   */\n      0x00\n        /* \"#utility.yul\":13058:13111   */\n      tag_652\n        /* \"#utility.yul\":13103:13110   */\n      dup6\n        /* \"#utility.yul\":13094:13100   */\n      dup3\n        /* \"#utility.yul\":13083:13092   */\n      dup7\n        /* \"#utility.yul\":13079:13101   */\n      add\n        /* \"#utility.yul\":13058:13111   */\n      tag_436\n      jump\t// in\n    tag_652:\n        /* \"#utility.yul\":13048:13111   */\n      swap3\n      pop\n        /* \"#utility.yul\":13004:13121   */\n      pop\n        /* \"#utility.yul\":13160:13162   */\n      0x20\n        /* \"#utility.yul\":13186:13236   */\n      tag_653\n        /* \"#utility.yul\":13228:13235   */\n      dup6\n        /* \"#utility.yul\":13219:13225   */\n      dup3\n        /* \"#utility.yul\":13208:13217   */\n      dup7\n        /* \"#utility.yul\":13204:13226   */\n      add\n        /* \"#utility.yul\":13186:13236   */\n      tag_472\n      jump\t// in\n    tag_653:\n        /* \"#utility.yul\":13176:13236   */\n      swap2\n      pop\n        /* \"#utility.yul\":13131:13246   */\n      pop\n        /* \"#utility.yul\":12785:13253   */\n      swap3\n      pop\n      swap3\n      swap1\n      pop\n      jump\t// out\n        /* \"#utility.yul\":13259:13923   */\n    tag_82:\n        /* \"#utility.yul\":13464:13468   */\n      0x00\n        /* \"#utility.yul\":13502:13505   */\n      0xa0\n        /* \"#utility.yul\":13491:13500   */\n      dup3\n        /* \"#utility.yul\":13487:13506   */\n      add\n        /* \"#utility.yul\":13479:13506   */\n      swap1\n      pop\n        /* \"#utility.yul\":13516:13587   */\n      tag_655\n        /* \"#utility.yul\":13584:13585   */\n      0x00\n        /* \"#utility.yul\":13573:13582   */\n      dup4\n        /* \"#utility.yul\":13569:13586   */\n      add\n        /* \"#utility.yul\":13560:13566   */\n      dup9\n        /* \"#utility.yul\":13516:13587   */\n      tag_431\n      jump\t// in\n    tag_655:\n        /* \"#utility.yul\":13597:13669   */\n      tag_656\n        /* \"#utility.yul\":13665:13667   */\n      0x20\n        /* \"#utility.yul\":13654:13663   */\n      dup4\n        /* \"#utility.yul\":13650:13668   */\n      add\n        /* \"#utility.yul\":13641:13647   */\n      dup8\n        /* \"#utility.yul\":13597:13669   */\n      tag_431\n      jump\t// in\n    tag_656:\n        /* \"#utility.yul\":13679:13751   */\n      tag_657\n        /* \"#utility.yul\":13747:13749   */\n      0x40\n        /* \"#utility.yul\":13736:13745   */\n      dup4\n        /* \"#utility.yul\":13732:13750   */\n      add\n        /* \"#utility.yul\":13723:13729   */\n      dup7\n        /* \"#utility.yul\":13679:13751   */\n      tag_431\n      jump\t// in\n    tag_657:\n        /* \"#utility.yul\":13761:13833   */\n      tag_658\n        /* \"#utility.yul\":13829:13831   */\n      0x60\n        /* \"#utility.yul\":13818:13827   */\n      dup4\n        /* \"#utility.yul\":13814:13832   */\n      add\n        /* \"#utility.yul\":13805:13811   */\n      dup6\n        /* \"#utility.yul\":13761:13833   */\n      tag_431\n      jump\t// in\n    tag_658:\n        /* \"#utility.yul\":13843:13916   */\n      tag_659\n        /* \"#utility.yul\":13911:13914   */\n      0x80\n        /* \"#utility.yul\":13900:13909   */\n      dup4\n        /* \"#utility.yul\":13896:13915   */\n      add\n        /* \"#utility.yul\":13887:13893   */\n      dup5\n        /* \"#utility.yul\":13843:13916   */\n      tag_431\n      jump\t// in\n    tag_659:\n        /* \"#utility.yul\":13259:13923   */\n      swap7\n      swap6\n      pop\n      pop\n      pop\n      pop\n      pop\n      pop\n      jump\t// out\n        /* \"#utility.yul\":13929:14051   */\n    tag_473:\n        /* \"#utility.yul\":14002:14026   */\n      tag_661\n        /* \"#utility.yul\":14020:14025   */\n      dup2\n        /* \"#utility.yul\":14002:14026   */\n      tag_449\n      jump\t// in\n    tag_661:\n        /* \"#utility.yul\":13995:14000   */\n      dup2\n        /* \"#utility.yul\":13992:14027   */\n      eq\n        /* \"#utility.yul\":13982:14045   */\n      tag_662\n      jumpi\n        /* \"#utility.yul\":14041:14042   */\n      0x00\n        /* \"#utility.yul\":14038:14039   */\n      dup1\n        /* \"#utility.yul\":14031:14043   */\n      revert\n        /* \"#utility.yul\":13982:14045   */\n    tag_662:\n        /* \"#utility.yul\":13929:14051   */\n      pop\n      jump\t// out\n        /* \"#utility.yul\":14057:14196   */\n    tag_474:\n        /* \"#utility.yul\":14103:14108   */\n      0x00\n        /* \"#utility.yul\":14141:14147   */\n      dup2\n        /* \"#utility.yul\":14128:14148   */\n      calldataload\n        /* \"#utility.yul\":14119:14148   */\n      swap1\n      pop\n        /* \"#utility.yul\":14157:14190   */\n      tag_664\n        /* \"#utility.yul\":14184:14189   */\n      dup2\n        /* \"#utility.yul\":14157:14190   */\n      tag_473\n      jump\t// in\n    tag_664:\n        /* \"#utility.yul\":14057:14196   */\n      swap3\n      swap2\n      pop\n      pop\n      jump\t// out\n        /* \"#utility.yul\":14202:15181   */\n    tag_92:\n        /* \"#utility.yul\":14299:14305   */\n      0x00\n        /* \"#utility.yul\":14307:14313   */\n      dup1\n        /* \"#utility.yul\":14315:14321   */\n      0x00\n        /* \"#utility.yul\":14364:14366   */\n      0x60\n        /* \"#utility.yul\":14352:14361   */\n      dup5\n        /* \"#utility.yul\":14343:14350   */\n      dup7\n        /* \"#utility.yul\":14339:14362   */\n      sub\n        /* \"#utility.yul\":14335:14367   */\n      slt\n        /* \"#utility.yul\":14332:14451   */\n      iszero\n      tag_666\n      jumpi\n        /* \"#utility.yul\":14370:14449   */\n      tag_667\n      tag_433\n      jump\t// in\n    tag_667:\n        /* \"#utility.yul\":14332:14451   */\n    tag_666:\n        /* \"#utility.yul\":14518:14519   */\n      0x00\n        /* \"#utility.yul\":14507:14516   */\n      dup5\n        /* \"#utility.yul\":14503:14520   */\n      add\n        /* \"#utility.yul\":14490:14521   */\n      calldataload\n        /* \"#utility.yul\":14548:14566   */\n      0xffffffffffffffff\n        /* \"#utility.yul\":14540:14546   */\n      dup2\n        /* \"#utility.yul\":14537:14567   */\n      gt\n        /* \"#utility.yul\":14534:14651   */\n      iszero\n      tag_668\n      jumpi\n        /* \"#utility.yul\":14570:14649   */\n      tag_669\n      tag_434\n      jump\t// in\n    tag_669:\n        /* \"#utility.yul\":14534:14651   */\n    tag_668:\n        /* \"#utility.yul\":14675:14738   */\n      tag_670\n        /* \"#utility.yul\":14730:14737   */\n      dup7\n        /* \"#utility.yul\":14721:14727   */\n      dup3\n        /* \"#utility.yul\":14710:14719   */\n      dup8\n        /* \"#utility.yul\":14706:14728   */\n      add\n        /* \"#utility.yul\":14675:14738   */\n      tag_468\n      jump\t// in\n    tag_670:\n        /* \"#utility.yul\":14665:14738   */\n      swap4\n      pop\n        /* \"#utility.yul\":14461:14748   */\n      pop\n        /* \"#utility.yul\":14787:14789   */\n      0x20\n        /* \"#utility.yul\":14813:14866   */\n      tag_671\n        /* \"#utility.yul\":14858:14865   */\n      dup7\n        /* \"#utility.yul\":14849:14855   */\n      dup3\n        /* \"#utility.yul\":14838:14847   */\n      dup8\n        /* \"#utility.yul\":14834:14856   */\n      add\n        /* \"#utility.yul\":14813:14866   */\n      tag_474\n      jump\t// in\n    tag_671:\n        /* \"#utility.yul\":14803:14866   */\n      swap3\n      pop\n        /* \"#utility.yul\":14758:14876   */\n      pop\n        /* \"#utility.yul\":14943:14945   */\n      0x40\n        /* \"#utility.yul\":14932:14941   */\n      dup5\n        /* \"#utility.yul\":14928:14946   */\n      add\n        /* \"#utility.yul\":14915:14947   */\n      calldataload\n        /* \"#utility.yul\":14974:14992   */\n      0xffffffffffffffff\n        /* \"#utility.yul\":14966:14972   */\n      dup2\n        /* \"#utility.yul\":14963:14993   */\n      gt\n        /* \"#utility.yul\":14960:15077   */\n      iszero\n      tag_672\n      jumpi\n        /* \"#utility.yul\":14996:15075   */\n      tag_673\n      tag_434\n      jump\t// in\n    tag_673:\n        /* \"#utility.yul\":14960:15077   */\n    tag_672:\n        /* \"#utility.yul\":15101:15164   */\n      tag_674\n        /* \"#utility.yul\":15156:15163   */\n      dup7\n        /* \"#utility.yul\":15147:15153   */\n      dup3\n        /* \"#utility.yul\":15136:15145   */\n      dup8\n        /* \"#utility.yul\":15132:15154   */\n      add\n        /* \"#utility.yul\":15101:15164   */\n      tag_468\n      jump\t// in\n    tag_674:\n        /* \"#utility.yul\":15091:15164   */\n      swap2\n      pop\n        /* \"#utility.yul\":14886:15174   */\n      pop\n        /* \"#utility.yul\":14202:15181   */\n      swap3\n      pop\n      swap3\n      pop\n      swap3\n      jump\t// out\n        /* \"#utility.yul\":15187:15519   */\n    tag_98:\n        /* \"#utility.yul\":15308:15312   */\n      0x00\n        /* \"#utility.yul\":15346:15348   */\n      0x40\n        /* \"#utility.yul\":15335:15344   */\n      dup3\n        /* \"#utility.yul\":15331:15349   */\n      add\n        /* \"#utility.yul\":15323:15349   */\n      swap1\n      pop\n        /* \"#utility.yul\":15359:15430   */\n      tag_676\n        /* \"#utility.yul\":15427:15428   */\n      0x00\n        /* \"#utility.yul\":15416:15425   */\n      dup4\n        /* \"#utility.yul\":15412:15429   */\n      add\n        /* \"#utility.yul\":15403:15409   */\n      dup6\n        /* \"#utility.yul\":15359:15430   */\n      tag_431\n      jump\t// in\n    tag_676:\n        /* \"#utility.yul\":15440:15512   */\n      tag_677\n        /* \"#utility.yul\":15508:15510   */\n      0x20\n        /* \"#utility.yul\":15497:15506   */\n      dup4\n        /* \"#utility.yul\":15493:15511   */\n      add\n        /* \"#utility.yul\":15484:15490   */\n      dup5\n        /* \"#utility.yul\":15440:15512   */\n      tag_431\n      jump\t// in\n    tag_677:\n        /* \"#utility.yul\":15187:15519   */\n      swap4\n      swap3\n      pop\n      pop\n      pop\n      jump\t// out\n        /* \"#utility.yul\":15525:16650   */\n    tag_104:\n        /* \"#utility.yul\":15631:15637   */\n      0x00\n        /* \"#utility.yul\":15639:15645   */\n      dup1\n        /* \"#utility.yul\":15647:15653   */\n      0x00\n        /* \"#utility.yul\":15655:15661   */\n      dup1\n        /* \"#utility.yul\":15704:15707   */\n      0x80\n        /* \"#utility.yul\":15692:15701   */\n      dup6\n        /* \"#utility.yul\":15683:15690   */\n      dup8\n        /* \"#utility.yul\":15679:15702   */\n      sub\n        /* \"#utility.yul\":15675:15708   */\n      slt\n        /* \"#utility.yul\":15672:15792   */\n      iszero\n      tag_679\n      jumpi\n        /* \"#utility.yul\":15711:15790   */\n      tag_680\n      tag_433\n      jump\t// in\n    tag_680:\n        /* \"#utility.yul\":15672:15792   */\n    tag_679:\n        /* \"#utility.yul\":15859:15860   */\n      0x00\n        /* \"#utility.yul\":15848:15857   */\n      dup6\n        /* \"#utility.yul\":15844:15861   */\n      add\n        /* \"#utility.yul\":15831:15862   */\n      calldataload\n        /* \"#utility.yul\":15889:15907   */\n      0xffffffffffffffff\n        /* \"#utility.yul\":15881:15887   */\n      dup2\n        /* \"#utility.yul\":15878:15908   */\n      gt\n        /* \"#utility.yul\":15875:15992   */\n      iszero\n      tag_681\n      jumpi\n        /* \"#utility.yul\":15911:15990   */\n      tag_682\n      tag_434\n      jump\t// in\n    tag_682:\n        /* \"#utility.yul\":15875:15992   */\n    tag_681:\n        /* \"#utility.yul\":16016:16079   */\n      tag_683\n        /* \"#utility.yul\":16071:16078   */\n      dup8\n        /* \"#utility.yul\":16062:16068   */\n      dup3\n        /* \"#utility.yul\":16051:16060   */\n      dup9\n        /* \"#utility.yul\":16047:16069   */\n      add\n        /* \"#utility.yul\":16016:16079   */\n      tag_468\n      jump\t// in\n    tag_683:\n        /* \"#utility.yul\":16006:16079   */\n      swap5\n      pop\n        /* \"#utility.yul\":15802:16089   */\n      pop\n        /* \"#utility.yul\":16156:16158   */\n      0x20\n        /* \"#utility.yul\":16145:16154   */\n      dup6\n        /* \"#utility.yul\":16141:16159   */\n      add\n        /* \"#utility.yul\":16128:16160   */\n      calldataload\n        /* \"#utility.yul\":16187:16205   */\n      0xffffffffffffffff\n        /* \"#utility.yul\":16179:16185   */\n      dup2\n        /* \"#utility.yul\":16176:16206   */\n      gt\n        /* \"#utility.yul\":16173:16290   */\n      iszero\n      tag_684\n      jumpi\n        /* \"#utility.yul\":16209:16288   */\n      tag_685\n      tag_434\n      jump\t// in\n    tag_685:\n        /* \"#utility.yul\":16173:16290   */\n    tag_684:\n        /* \"#utility.yul\":16314:16377   */\n      tag_686\n        /* \"#utility.yul\":16369:16376   */\n      dup8\n        /* \"#utility.yul\":16360:16366   */\n      dup3\n        /* \"#utility.yul\":16349:16358   */\n      dup9\n        /* \"#utility.yul\":16345:16367   */\n      add\n        /* \"#utility.yul\":16314:16377   */\n      tag_468\n      jump\t// in\n    tag_686:\n        /* \"#utility.yul\":16304:16377   */\n      swap4\n      pop\n        /* \"#utility.yul\":16099:16387   */\n      pop\n        /* \"#utility.yul\":16426:16428   */\n      0x40\n        /* \"#utility.yul\":16452:16505   */\n      tag_687\n        /* \"#utility.yul\":16497:16504   */\n      dup8\n        /* \"#utility.yul\":16488:16494   */\n      dup3\n        /* \"#utility.yul\":16477:16486   */\n      dup9\n        /* \"#utility.yul\":16473:16495   */\n      add\n        /* \"#utility.yul\":16452:16505   */\n      tag_436\n      jump\t// in\n    tag_687:\n        /* \"#utility.yul\":16442:16505   */\n      swap3\n      pop\n        /* \"#utility.yul\":16397:16515   */\n      pop\n        /* \"#utility.yul\":16554:16556   */\n      0x60\n        /* \"#utility.yul\":16580:16633   */\n      tag_688\n        /* \"#utility.yul\":16625:16632   */\n      dup8\n        /* \"#utility.yul\":16616:16622   */\n      dup3\n        /* \"#utility.yul\":16605:16614   */\n      dup9\n        /* \"#utility.yul\":16601:16623   */\n      add\n        /* \"#utility.yul\":16580:16633   */\n      tag_436\n      jump\t// in\n    tag_688:\n        /* \"#utility.yul\":16570:16633   */\n      swap2\n      pop\n        /* \"#utility.yul\":16525:16643   */\n      pop\n        /* \"#utility.yul\":15525:16650   */\n      swap3\n      swap6\n      swap2\n      swap5\n      pop\n      swap3\n      pop\n      jump\t// out\n        /* \"#utility.yul\":16656:17130   */\n    tag_109:\n        /* \"#utility.yul\":16724:16730   */\n      0x00\n        /* \"#utility.yul\":16732:16738   */\n      dup1\n        /* \"#utility.yul\":16781:16783   */\n      0x40\n        /* \"#utility.yul\":16769:16778   */\n      dup4\n        /* \"#utility.yul\":16760:16767   */\n      dup6\n        /* \"#utility.yul\":16756:16779   */\n      sub\n        /* \"#utility.yul\":16752:16784   */\n      slt\n        /* \"#utility.yul\":16749:16868   */\n      iszero\n      tag_690\n      jumpi\n        /* \"#utility.yul\":16787:16866   */\n      tag_691\n      tag_433\n      jump\t// in\n    tag_691:\n        /* \"#utility.yul\":16749:16868   */\n    tag_690:\n        /* \"#utility.yul\":16907:16908   */\n      0x00\n        /* \"#utility.yul\":16932:16985   */\n      tag_692\n        /* \"#utility.yul\":16977:16984   */\n      dup6\n        /* \"#utility.yul\":16968:16974   */\n      dup3\n        /* \"#utility.yul\":16957:16966   */\n      dup7\n        /* \"#utility.yul\":16953:16975   */\n      add\n        /* \"#utility.yul\":16932:16985   */\n      tag_436\n      jump\t// in\n    tag_692:\n        /* \"#utility.yul\":16922:16985   */\n      swap3\n      pop\n        /* \"#utility.yul\":16878:16995   */\n      pop\n        /* \"#utility.yul\":17034:17036   */\n      0x20\n        /* \"#utility.yul\":17060:17113   */\n      tag_693\n        /* \"#utility.yul\":17105:17112   */\n      dup6\n        /* \"#utility.yul\":17096:17102   */\n      dup3\n        /* \"#utility.yul\":17085:17094   */\n      dup7\n        /* \"#utility.yul\":17081:17103   */\n      add\n        /* \"#utility.yul\":17060:17113   */\n      tag_474\n      jump\t// in\n    tag_693:\n        /* \"#utility.yul\":17050:17113   */\n      swap2\n      pop\n        /* \"#utility.yul\":17005:17123   */\n      pop\n        /* \"#utility.yul\":16656:17130   */\n      swap3\n      pop\n      swap3\n      swap1\n      pop\n      jump\t// out\n        /* \"#utility.yul\":17136:17316   */\n    tag_475:\n        /* \"#utility.yul\":17184:17261   */\n      0x4e487b7100000000000000000000000000000000000000000000000000000000\n        /* \"#utility.yul\":17181:17182   */\n      0x00\n        /* \"#utility.yul\":17174:17262   */\n      mstore\n        /* \"#utility.yul\":17281:17285   */\n      0x22\n        /* \"#utility.yul\":17278:17279   */\n      0x04\n        /* \"#utility.yul\":17271:17286   */\n      mstore\n        /* \"#utility.yul\":17305:17309   */\n      0x24\n        /* \"#utility.yul\":17302:17303   */\n      0x00\n        /* \"#utility.yul\":17295:17310   */\n      revert\n        /* \"#utility.yul\":17322:17642   */\n    tag_126:\n        /* \"#utility.yul\":17366:17372   */\n      0x00\n        /* \"#utility.yul\":17403:17404   */\n      0x02\n        /* \"#utility.yul\":17397:17401   */\n      dup3\n        /* \"#utility.yul\":17393:17405   */\n      div\n        /* \"#utility.yul\":17383:17405   */\n      swap1\n      pop\n        /* \"#utility.yul\":17450:17451   */\n      0x01\n        /* \"#utility.yul\":17444:17448   */\n      dup3\n        /* \"#utility.yul\":17440:17452   */\n      and\n        /* \"#utility.yul\":17471:17489   */\n      dup1\n        /* \"#utility.yul\":17461:17542   */\n      tag_696\n      jumpi\n        /* \"#utility.yul\":17527:17531   */\n      0x7f\n        /* \"#utility.yul\":17519:17525   */\n      dup3\n        /* \"#utility.yul\":17515:17532   */\n      and\n        /* \"#utility.yul\":17505:17532   */\n      swap2\n      pop\n        /* \"#utility.yul\":17461:17542   */\n    tag_696:\n        /* \"#utility.yul\":17589:17591   */\n      0x20\n        /* \"#utility.yul\":17581:17587   */\n      dup3\n        /* \"#utility.yul\":17578:17592   */\n      lt\n        /* \"#utility.yul\":17558:17576   */\n      dup2\n        /* \"#utility.yul\":17555:17593   */\n      eq\n        /* \"#utility.yul\":17552:17636   */\n      iszero\n      tag_697\n      jumpi\n        /* \"#utility.yul\":17608:17626   */\n      tag_698\n      tag_475\n      jump\t// in\n    tag_698:\n        /* \"#utility.yul\":17552:17636   */\n    tag_697:\n        /* \"#utility.yul\":17373:17642   */\n      pop\n        /* \"#utility.yul\":17322:17642   */\n      swap2\n      swap1\n      pop\n      jump\t// out\n        /* \"#utility.yul\":17648:17828   */\n    tag_138:\n        /* \"#utility.yul\":17696:17773   */\n      0x4e487b7100000000000000000000000000000000000000000000000000000000\n        /* \"#utility.yul\":17693:17694   */\n      0x00\n        /* \"#utility.yul\":17686:17774   */\n      mstore\n        /* \"#utility.yul\":17793:17797   */\n      0x32\n        /* \"#utility.yul\":17790:17791   */\n      0x04\n        /* \"#utility.yul\":17783:17798   */\n      mstore\n        /* \"#utility.yul\":17817:17821   */\n      0x24\n        /* \"#utility.yul\":17814:17815   */\n      0x00\n        /* \"#utility.yul\":17807:17822   */\n      revert\n        /* \"#utility.yul\":17834:18014   */\n    tag_476:\n        /* \"#utility.yul\":17882:17959   */\n      0x4e487b7100000000000000000000000000000000000000000000000000000000\n        /* \"#utility.yul\":17879:17880   */\n      0x00\n        /* \"#utility.yul\":17872:17960   */\n      mstore\n        /* \"#utility.yul\":17979:17983   */\n      0x11\n        /* \"#utility.yul\":17976:17977   */\n      0x04\n        /* \"#utility.yul\":17969:17984   */\n      mstore\n        /* \"#utility.yul\":18003:18007   */\n      0x24\n        /* \"#utility.yul\":18000:18001   */\n      0x00\n        /* \"#utility.yul\":17993:18008   */\n      revert\n        /* \"#utility.yul\":18020:18253   */\n    tag_140:\n        /* \"#utility.yul\":18059:18062   */\n      0x00\n        /* \"#utility.yul\":18082:18106   */\n      tag_702\n        /* \"#utility.yul\":18100:18105   */\n      dup3\n        /* \"#utility.yul\":18082:18106   */\n      tag_430\n      jump\t// in\n    tag_702:\n        /* \"#utility.yul\":18073:18106   */\n      swap2\n      pop\n        /* \"#utility.yul\":18128:18194   */\n      0xffffffffffffffffffffffffffffffffffffffffffffffffffffffffffffffff\n        /* \"#utility.yul\":18121:18126   */\n      dup3\n        /* \"#utility.yul\":18118:18195   */\n      eq\n        /* \"#utility.yul\":18115:18218   */\n      iszero\n      tag_703\n      jumpi\n        /* \"#utility.yul\":18198:18216   */\n      tag_704\n      tag_476\n      jump\t// in\n    tag_704:\n        /* \"#utility.yul\":18115:18218   */\n    tag_703:\n        /* \"#utility.yul\":18245:18246   */\n      0x01\n        /* \"#utility.yul\":18238:18243   */\n      dup3\n        /* \"#utility.yul\":18234:18247   */\n      add\n        /* \"#utility.yul\":18227:18247   */\n      swap1\n      pop\n        /* \"#utility.yul\":18020:18253   */\n      swap2\n      swap1\n      pop\n      jump\t// out\n        /* \"#utility.yul\":18259:18402   */\n    tag_477:\n        /* \"#utility.yul\":18316:18321   */\n      0x00\n        /* \"#utility.yul\":18347:18353   */\n      dup2\n        /* \"#utility.yul\":18341:18354   */\n      mload\n        /* \"#utility.yul\":18332:18354   */\n      swap1\n      pop\n        /* \"#utility.yul\":18363:18396   */\n      tag_706\n        /* \"#utility.yul\":18390:18395   */\n      dup2\n        /* \"#utility.yul\":18363:18396   */\n      tag_473\n      jump\t// in\n    tag_706:\n        /* \"#utility.yul\":18259:18402   */\n      swap3\n      swap2\n      pop\n      pop\n      jump\t// out\n        /* \"#utility.yul\":18408:18759   */\n    tag_145:\n        /* \"#utility.yul\":18478:18484   */\n      0x00\n        /* \"#utility.yul\":18527:18529   */\n      0x20\n        /* \"#utility.yul\":18515:18524   */\n      dup3\n        /* \"#utility.yul\":18506:18513   */\n      dup5\n        /* \"#utility.yul\":18502:18525   */\n      sub\n        /* \"#utility.yul\":18498:18530   */\n      slt\n        /* \"#utility.yul\":18495:18614   */\n      iszero\n      tag_708\n      jumpi\n        /* \"#utility.yul\":18533:18612   */\n      tag_709\n      tag_433\n      jump\t// in\n    tag_709:\n        /* \"#utility.yul\":18495:18614   */\n    tag_708:\n        /* \"#utility.yul\":18653:18654   */\n      0x00\n        /* \"#utility.yul\":18678:18742   */\n      tag_710\n        /* \"#utility.yul\":18734:18741   */\n      dup5\n        /* \"#utility.yul\":18725:18731   */\n      dup3\n        /* \"#utility.yul\":18714:18723   */\n      dup6\n        /* \"#utility.yul\":18710:18732   */\n      add\n        /* \"#utility.yul\":18678:18742   */\n      tag_477\n      jump\t// in\n    tag_710:\n        /* \"#utility.yul\":18668:18742   */\n      swap2\n      pop\n        /* \"#utility.yul\":18624:18752   */\n      pop\n        /* \"#utility.yul\":18408:18759   */\n      swap3\n      swap2\n      pop\n      pop\n      jump\t// out\n        /* \"#utility.yul\":18765:18908   */\n    tag_478:\n        /* \"#utility.yul\":18822:18827   */\n      0x00\n        /* \"#utility.yul\":18853:18859   */\n      dup2\n        /* \"#utility.yul\":18847:18860   */\n      mload\n        /* \"#utility.yul\":18838:18860   */\n      swap1\n      pop\n        /* \"#utility.yul\":18869:18902   */\n      tag_712\n        /* \"#utility.yul\":18896:18901   */\n      dup2\n        /* \"#utility.yul\":18869:18902   */\n      tag_435\n      jump\t// in\n    tag_712:\n        /* \"#utility.yul\":18765:18908   */\n      swap3\n      swap2\n      pop\n      pop\n      jump\t// out\n        /* \"#utility.yul\":18914:19265   */\n    tag_152:\n        /* \"#utility.yul\":18984:18990   */\n      0x00\n        /* \"#utility.yul\":19033:19035   */\n      0x20\n        /* \"#utility.yul\":19021:19030   */\n      dup3\n        /* \"#utility.yul\":19012:19019   */\n      dup5\n        /* \"#utility.yul\":19008:19031   */\n      sub\n        /* \"#utility.yul\":19004:19036   */\n      slt\n        /* \"#utility.yul\":19001:19120   */\n      iszero\n      tag_714\n      jumpi\n        /* \"#utility.yul\":19039:19118   */\n      tag_715\n      tag_433\n      jump\t// in\n    tag_715:\n        /* \"#utility.yul\":19001:19120   */\n    tag_714:\n        /* \"#utility.yul\":19159:19160   */\n      0x00\n        /* \"#utility.yul\":19184:19248   */\n      tag_716\n        /* \"#utility.yul\":19240:19247   */\n      dup5\n        /* \"#utility.yul\":19231:19237   */\n      dup3\n        /* \"#utility.yul\":19220:19229   */\n      dup6\n        /* \"#utility.yul\":19216:19238   */\n      add\n        /* \"#utility.yul\":19184:19248   */\n      tag_478\n      jump\t// in\n    tag_716:\n        /* \"#utility.yul\":19174:19248   */\n      swap2\n      pop\n        /* \"#utility.yul\":19130:19258   */\n      pop\n        /* \"#utility.yul\":18914:19265   */\n      swap3\n      swap2\n      pop\n      pop\n      jump\t// out\n        /* \"#utility.yul\":19271:19619   */\n    tag_154:\n        /* \"#utility.yul\":19311:19318   */\n      0x00\n        /* \"#utility.yul\":19334:19354   */\n      tag_718\n        /* \"#utility.yul\":19352:19353   */\n      dup3\n        /* \"#utility.yul\":19334:19354   */\n      tag_430\n      jump\t// in\n    tag_718:\n        /* \"#utility.yul\":19329:19354   */\n      swap2\n      pop\n        /* \"#utility.yul\":19368:19388   */\n      tag_719\n        /* \"#utility.yul\":19386:19387   */\n      dup4\n        /* \"#utility.yul\":19368:19388   */\n      tag_430\n      jump\t// in\n    tag_719:\n        /* \"#utility.yul\":19363:19388   */\n      swap3\n      pop\n        /* \"#utility.yul\":19556:19557   */\n      dup2\n        /* \"#utility.yul\":19488:19554   */\n      0xffffffffffffffffffffffffffffffffffffffffffffffffffffffffffffffff\n        /* \"#utility.yul\":19484:19558   */\n      div\n        /* \"#utility.yul\":19481:19482   */\n      dup4\n        /* \"#utility.yul\":19478:19559   */\n      gt\n        /* \"#utility.yul\":19473:19474   */\n      dup3\n        /* \"#utility.yul\":19466:19475   */\n      iszero\n        /* \"#utility.yul\":19459:19476   */\n      iszero\n        /* \"#utility.yul\":19455:19560   */\n      and\n        /* \"#utility.yul\":19452:19583   */\n      iszero\n      tag_720\n      jumpi\n        /* \"#utility.yul\":19563:19581   */\n      tag_721\n      tag_476\n      jump\t// in\n    tag_721:\n        /* \"#utility.yul\":19452:19583   */\n    tag_720:\n        /* \"#utility.yul\":19611:19612   */\n      dup3\n        /* \"#utility.yul\":19608:19609   */\n      dup3\n        /* \"#utility.yul\":19604:19613   */\n      mul\n        /* \"#utility.yul\":19593:19613   */\n      swap1\n      pop\n        /* \"#utility.yul\":19271:19619   */\n      swap3\n      swap2\n      pop\n      pop\n      jump\t// out\n        /* \"#utility.yul\":19625:19805   */\n    tag_479:\n        /* \"#utility.yul\":19673:19750   */\n      0x4e487b7100000000000000000000000000000000000000000000000000000000\n        /* \"#utility.yul\":19670:19671   */\n      0x00\n        /* \"#utility.yul\":19663:19751   */\n      mstore\n        /* \"#utility.yul\":19770:19774   */\n      0x12\n        /* \"#utility.yul\":19767:19768   */\n      0x04\n        /* \"#utility.yul\":19760:19775   */\n      mstore\n        /* \"#utility.yul\":19794:19798   */\n      0x24\n        /* \"#utility.yul\":19791:19792   */\n      0x00\n        /* \"#utility.yul\":19784:19799   */\n      revert\n        /* \"#utility.yul\":19811:19996   */\n    tag_156:\n        /* \"#utility.yul\":19851:19852   */\n      0x00\n        /* \"#utility.yul\":19868:19888   */\n      tag_724\n        /* \"#utility.yul\":19886:19887   */\n      dup3\n        /* \"#utility.yul\":19868:19888   */\n      tag_430\n      jump\t// in\n    tag_724:\n        /* \"#utility.yul\":19863:19888   */\n      swap2\n      pop\n        /* \"#utility.yul\":19902:19922   */\n      tag_725\n        /* \"#utility.yul\":19920:19921   */\n      dup4\n        /* \"#utility.yul\":19902:19922   */\n      tag_430\n      jump\t// in\n    tag_725:\n        /* \"#utility.yul\":19897:19922   */\n      swap3\n      pop\n        /* \"#utility.yul\":19941:19942   */\n      dup3\n        /* \"#utility.yul\":19931:19966   */\n      tag_726\n      jumpi\n        /* \"#utility.yul\":19946:19964   */\n      tag_727\n      tag_479\n      jump\t// in\n    tag_727:\n        /* \"#utility.yul\":19931:19966   */\n    tag_726:\n        /* \"#utility.yul\":19988:19989   */\n      dup3\n        /* \"#utility.yul\":19985:19986   */\n      dup3\n        /* \"#utility.yul\":19981:19990   */\n      div\n        /* \"#utility.yul\":19976:19990   */\n      swap1\n      pop\n        /* \"#utility.yul\":19811:19996   */\n      swap3\n      swap2\n      pop\n      pop\n      jump\t// out\n        /* \"#utility.yul\":20002:20175   */\n    tag_480:\n        /* \"#utility.yul\":20142:20167   */\n      0x546f6f2066657720746f6b656e73206172652068656c64000000000000000000\n        /* \"#utility.yul\":20138:20139   */\n      0x00\n        /* \"#utility.yul\":20130:20136   */\n      dup3\n        /* \"#utility.yul\":20126:20140   */\n      add\n        /* \"#utility.yul\":20119:20168   */\n      mstore\n        /* \"#utility.yul\":20002:20175   */\n      pop\n      jump\t// out\n        /* \"#utility.yul\":20181:20547   */\n    tag_481:\n        /* \"#utility.yul\":20323:20326   */\n      0x00\n        /* \"#utility.yul\":20344:20411   */\n      tag_730\n        /* \"#utility.yul\":20408:20410   */\n      0x17\n        /* \"#utility.yul\":20403:20406   */\n      dup4\n        /* \"#utility.yul\":20344:20411   */\n      tag_469\n      jump\t// in\n    tag_730:\n        /* \"#utility.yul\":20337:20411   */\n      swap2\n      pop\n        /* \"#utility.yul\":20420:20513   */\n      tag_731\n        /* \"#utility.yul\":20509:20512   */\n      dup3\n        /* \"#utility.yul\":20420:20513   */\n      tag_480\n      jump\t// in\n    tag_731:\n        /* \"#utility.yul\":20538:20540   */\n      0x20\n        /* \"#utility.yul\":20533:20536   */\n      dup3\n        /* \"#utility.yul\":20529:20541   */\n      add\n        /* \"#utility.yul\":20522:20541   */\n      swap1\n      pop\n        /* \"#utility.yul\":20181:20547   */\n      swap2\n      swap1\n      pop\n      jump\t// out\n        /* \"#utility.yul\":20553:20972   */\n    tag_163:\n        /* \"#utility.yul\":20719:20723   */\n      0x00\n        /* \"#utility.yul\":20757:20759   */\n      0x20\n        /* \"#utility.yul\":20746:20755   */\n      dup3\n        /* \"#utility.yul\":20742:20760   */\n      add\n        /* \"#utility.yul\":20734:20760   */\n      swap1\n      pop\n        /* \"#utility.yul\":20806:20815   */\n      dup2\n        /* \"#utility.yul\":20800:20804   */\n      dup2\n        /* \"#utility.yul\":20796:20816   */\n      sub\n        /* \"#utility.yul\":20792:20793   */\n      0x00\n        /* \"#utility.yul\":20781:20790   */\n      dup4\n        /* \"#utility.yul\":20777:20794   */\n      add\n        /* \"#utility.yul\":20770:20817   */\n      mstore\n        /* \"#utility.yul\":20834:20965   */\n      tag_733\n        /* \"#utility.yul\":20960:20964   */\n      dup2\n        /* \"#utility.yul\":20834:20965   */\n      tag_481\n      jump\t// in\n    tag_733:\n        /* \"#utility.yul\":20826:20965   */\n      swap1\n      pop\n        /* \"#utility.yul\":20553:20972   */\n      swap2\n      swap1\n      pop\n      jump\t// out\n        /* \"#utility.yul\":20978:21283   */\n    tag_166:\n        /* \"#utility.yul\":21018:21021   */\n      0x00\n        /* \"#utility.yul\":21037:21057   */\n      tag_735\n        /* \"#utility.yul\":21055:21056   */\n      dup3\n        /* \"#utility.yul\":21037:21057   */\n      tag_430\n      jump\t// in\n    tag_735:\n        /* \"#utility.yul\":21032:21057   */\n      swap2\n      pop\n        /* \"#utility.yul\":21071:21091   */\n      tag_736\n        /* \"#utility.yul\":21089:21090   */\n      dup4\n        /* \"#utility.yul\":21071:21091   */\n      tag_430\n      jump\t// in\n    tag_736:\n        /* \"#utility.yul\":21066:21091   */\n      swap3\n      pop\n        /* \"#utility.yul\":21225:21226   */\n      dup3\n        /* \"#utility.yul\":21157:21223   */\n      0xffffffffffffffffffffffffffffffffffffffffffffffffffffffffffffffff\n        /* \"#utility.yul\":21153:21227   */\n      sub\n        /* \"#utility.yul\":21150:21151   */\n      dup3\n        /* \"#utility.yul\":21147:21228   */\n      gt\n        /* \"#utility.yul\":21144:21251   */\n      iszero\n      tag_737\n      jumpi\n        /* \"#utility.yul\":21231:21249   */\n      tag_738\n      tag_476\n      jump\t// in\n    tag_738:\n        /* \"#utility.yul\":21144:21251   */\n    tag_737:\n        /* \"#utility.yul\":21275:21276   */\n      dup3\n        /* \"#utility.yul\":21272:21273   */\n      dup3\n        /* \"#utility.yul\":21268:21277   */\n      add\n        /* \"#utility.yul\":21261:21277   */\n      swap1\n      pop\n        /* \"#utility.yul\":20978:21283   */\n      swap3\n      swap2\n      pop\n      pop\n      jump\t// out\n        /* \"#utility.yul\":21289:21464   */\n    tag_482:\n        /* \"#utility.yul\":21429:21456   */\n      0x5374696c6c20696e2074686520766f74696e6720706861736500000000000000\n        /* \"#utility.yul\":21425:21426   */\n      0x00\n        /* \"#utility.yul\":21417:21423   */\n      dup3\n        /* \"#utility.yul\":21413:21427   */\n      add\n        /* \"#utility.yul\":21406:21457   */\n      mstore\n        /* \"#utility.yul\":21289:21464   */\n      pop\n      jump\t// out\n        /* \"#utility.yul\":21470:21836   */\n    tag_483:\n        /* \"#utility.yul\":21612:21615   */\n      0x00\n        /* \"#utility.yul\":21633:21700   */\n      tag_741\n        /* \"#utility.yul\":21697:21699   */\n      0x19\n        /* \"#utility.yul\":21692:21695   */\n      dup4\n        /* \"#utility.yul\":21633:21700   */\n      tag_469\n      jump\t// in\n    tag_741:\n        /* \"#utility.yul\":21626:21700   */\n      swap2\n      pop\n        /* \"#utility.yul\":21709:21802   */\n      tag_742\n        /* \"#utility.yul\":21798:21801   */\n      dup3\n        /* \"#utility.yul\":21709:21802   */\n      tag_482\n      jump\t// in\n    tag_742:\n        /* \"#utility.yul\":21827:21829   */\n      0x20\n        /* \"#utility.yul\":21822:21825   */\n      dup3\n        /* \"#utility.yul\":21818:21830   */\n      add\n        /* \"#utility.yul\":21811:21830   */\n      swap1\n      pop\n        /* \"#utility.yul\":21470:21836   */\n      swap2\n      swap1\n      pop\n      jump\t// out\n        /* \"#utility.yul\":21842:22261   */\n    tag_169:\n        /* \"#utility.yul\":22008:22012   */\n      0x00\n        /* \"#utility.yul\":22046:22048   */\n      0x20\n        /* \"#utility.yul\":22035:22044   */\n      dup3\n        /* \"#utility.yul\":22031:22049   */\n      add\n        /* \"#utility.yul\":22023:22049   */\n      swap1\n      pop\n        /* \"#utility.yul\":22095:22104   */\n      dup2\n        /* \"#utility.yul\":22089:22093   */\n      dup2\n        /* \"#utility.yul\":22085:22105   */\n      sub\n        /* \"#utility.yul\":22081:22082   */\n      0x00\n        /* \"#utility.yul\":22070:22079   */\n      dup4\n        /* \"#utility.yul\":22066:22083   */\n      add\n        /* \"#utility.yul\":22059:22106   */\n      mstore\n        /* \"#utility.yul\":22123:22254   */\n      tag_744\n        /* \"#utility.yul\":22249:22253   */\n      dup2\n        /* \"#utility.yul\":22123:22254   */\n      tag_483\n      jump\t// in\n    tag_744:\n        /* \"#utility.yul\":22115:22254   */\n      swap1\n      pop\n        /* \"#utility.yul\":21842:22261   */\n      swap2\n      swap1\n      pop\n      jump\t// out\n        /* \"#utility.yul\":22267:22447   */\n    tag_172:\n        /* \"#utility.yul\":22315:22392   */\n      0x4e487b7100000000000000000000000000000000000000000000000000000000\n        /* \"#utility.yul\":22312:22313   */\n      0x00\n        /* \"#utility.yul\":22305:22393   */\n      mstore\n        /* \"#utility.yul\":22412:22416   */\n      0x21\n        /* \"#utility.yul\":22409:22410   */\n      0x04\n        /* \"#utility.yul\":22402:22417   */\n      mstore\n        /* \"#utility.yul\":22436:22440   */\n      0x24\n        /* \"#utility.yul\":22433:22434   */\n      0x00\n        /* \"#utility.yul\":22426:22441   */\n      revert\n        /* \"#utility.yul\":22453:22626   */\n    tag_484:\n        /* \"#utility.yul\":22593:22618   */\n      0x4e6f742061742074686520766f74696e67207374616765000000000000000000\n        /* \"#utility.yul\":22589:22590   */\n      0x00\n        /* \"#utility.yul\":22581:22587   */\n      dup3\n        /* \"#utility.yul\":22577:22591   */\n      add\n        /* \"#utility.yul\":22570:22619   */\n      mstore\n        /* \"#utility.yul\":22453:22626   */\n      pop\n      jump\t// out\n        /* \"#utility.yul\":22632:22998   */\n    tag_485:\n        /* \"#utility.yul\":22774:22777   */\n      0x00\n        /* \"#utility.yul\":22795:22862   */\n      tag_748\n        /* \"#utility.yul\":22859:22861   */\n      0x17\n        /* \"#utility.yul\":22854:22857   */\n      dup4\n        /* \"#utility.yul\":22795:22862   */\n      tag_469\n      jump\t// in\n    tag_748:\n        /* \"#utility.yul\":22788:22862   */\n      swap2\n      pop\n        /* \"#utility.yul\":22871:22964   */\n      tag_749\n        /* \"#utility.yul\":22960:22963   */\n      dup3\n        /* \"#utility.yul\":22871:22964   */\n      tag_484\n      jump\t// in\n    tag_749:\n        /* \"#utility.yul\":22989:22991   */\n      0x20\n        /* \"#utility.yul\":22984:22987   */\n      dup3\n        /* \"#utility.yul\":22980:22992   */\n      add\n        /* \"#utility.yul\":22973:22992   */\n      swap1\n      pop\n        /* \"#utility.yul\":22632:22998   */\n      swap2\n      swap1\n      pop\n      jump\t// out\n        /* \"#utility.yul\":23004:23423   */\n    tag_177:\n        /* \"#utility.yul\":23170:23174   */\n      0x00\n        /* \"#utility.yul\":23208:23210   */\n      0x20\n        /* \"#utility.yul\":23197:23206   */\n      dup3\n        /* \"#utility.yul\":23193:23211   */\n      add\n        /* \"#utility.yul\":23185:23211   */\n      swap1\n      pop\n        /* \"#utility.yul\":23257:23266   */\n      dup2\n        /* \"#utility.yul\":23251:23255   */\n      dup2\n        /* \"#utility.yul\":23247:23267   */\n      sub\n        /* \"#utility.yul\":23243:23244   */\n      0x00\n        /* \"#utility.yul\":23232:23241   */\n      dup4\n        /* \"#utility.yul\":23228:23245   */\n      add\n        /* \"#utility.yul\":23221:23268   */\n      mstore\n        /* \"#utility.yul\":23285:23416   */\n      tag_751\n        /* \"#utility.yul\":23411:23415   */\n      dup2\n        /* \"#utility.yul\":23285:23416   */\n      tag_485\n      jump\t// in\n    tag_751:\n        /* \"#utility.yul\":23277:23416   */\n      swap1\n      pop\n        /* \"#utility.yul\":23004:23423   */\n      swap2\n      swap1\n      pop\n      jump\t// out\n        /* \"#utility.yul\":23429:23742   */\n    tag_184:\n        /* \"#utility.yul\":23542:23546   */\n      0x00\n        /* \"#utility.yul\":23580:23582   */\n      0x20\n        /* \"#utility.yul\":23569:23578   */\n      dup3\n        /* \"#utility.yul\":23565:23583   */\n      add\n        /* \"#utility.yul\":23557:23583   */\n      swap1\n      pop\n        /* \"#utility.yul\":23629:23638   */\n      dup2\n        /* \"#utility.yul\":23623:23627   */\n      dup2\n        /* \"#utility.yul\":23619:23639   */\n      sub\n        /* \"#utility.yul\":23615:23616   */\n      0x00\n        /* \"#utility.yul\":23604:23613   */\n      dup4\n        /* \"#utility.yul\":23600:23617   */\n      add\n        /* \"#utility.yul\":23593:23640   */\n      mstore\n        /* \"#utility.yul\":23657:23735   */\n      tag_753\n        /* \"#utility.yul\":23730:23734   */\n      dup2\n        /* \"#utility.yul\":23721:23727   */\n      dup5\n        /* \"#utility.yul\":23657:23735   */\n      tag_470\n      jump\t// in\n    tag_753:\n        /* \"#utility.yul\":23649:23735   */\n      swap1\n      pop\n        /* \"#utility.yul\":23429:23742   */\n      swap3\n      swap2\n      pop\n      pop\n      jump\t// out\n        /* \"#utility.yul\":23748:23912   */\n    tag_486:\n        /* \"#utility.yul\":23888:23904   */\n      0x566f74654964206973206e756c6c000000000000000000000000000000000000\n        /* \"#utility.yul\":23884:23885   */\n      0x00\n        /* \"#utility.yul\":23876:23882   */\n      dup3\n        /* \"#utility.yul\":23872:23886   */\n      add\n        /* \"#utility.yul\":23865:23905   */\n      mstore\n        /* \"#utility.yul\":23748:23912   */\n      pop\n      jump\t// out\n        /* \"#utility.yul\":23918:24284   */\n    tag_487:\n        /* \"#utility.yul\":24060:24063   */\n      0x00\n        /* \"#utility.yul\":24081:24148   */\n      tag_756\n        /* \"#utility.yul\":24145:24147   */\n      0x0e\n        /* \"#utility.yul\":24140:24143   */\n      dup4\n        /* \"#utility.yul\":24081:24148   */\n      tag_469\n      jump\t// in\n    tag_756:\n        /* \"#utility.yul\":24074:24148   */\n      swap2\n      pop\n        /* \"#utility.yul\":24157:24250   */\n      tag_757\n        /* \"#utility.yul\":24246:24249   */\n      dup3\n        /* \"#utility.yul\":24157:24250   */\n      tag_486\n      jump\t// in\n    tag_757:\n        /* \"#utility.yul\":24275:24277   */\n      0x20\n        /* \"#utility.yul\":24270:24273   */\n      dup3\n        /* \"#utility.yul\":24266:24278   */\n      add\n        /* \"#utility.yul\":24259:24278   */\n      swap1\n      pop\n        /* \"#utility.yul\":23918:24284   */\n      swap2\n      swap1\n      pop\n      jump\t// out\n        /* \"#utility.yul\":24290:24709   */\n    tag_205:\n        /* \"#utility.yul\":24456:24460   */\n      0x00\n        /* \"#utility.yul\":24494:24496   */\n      0x20\n        /* \"#utility.yul\":24483:24492   */\n      dup3\n        /* \"#utility.yul\":24479:24497   */\n      add\n        /* \"#utility.yul\":24471:24497   */\n      swap1\n      pop\n        /* \"#utility.yul\":24543:24552   */\n      dup2\n        /* \"#utility.yul\":24537:24541   */\n      dup2\n        /* \"#utility.yul\":24533:24553   */\n      sub\n        /* \"#utility.yul\":24529:24530   */\n      0x00\n        /* \"#utility.yul\":24518:24527   */\n      dup4\n        /* \"#utility.yul\":24514:24531   */\n      add\n        /* \"#utility.yul\":24507:24554   */\n      mstore\n        /* \"#utility.yul\":24571:24702   */\n      tag_759\n        /* \"#utility.yul\":24697:24701   */\n      dup2\n        /* \"#utility.yul\":24571:24702   */\n      tag_487\n      jump\t// in\n    tag_759:\n        /* \"#utility.yul\":24563:24702   */\n      swap1\n      pop\n        /* \"#utility.yul\":24290:24709   */\n      swap2\n      swap1\n      pop\n      jump\t// out\n        /* \"#utility.yul\":24715:24876   */\n    tag_488:\n        /* \"#utility.yul\":24855:24868   */\n      0x566f7465206265666f7265000000000000000000000000000000000000000000\n        /* \"#utility.yul\":24851:24852   */\n      0x00\n        /* \"#utility.yul\":24843:24849   */\n      dup3\n        /* \"#utility.yul\":24839:24853   */\n      add\n        /* \"#utility.yul\":24832:24869   */\n      mstore\n        /* \"#utility.yul\":24715:24876   */\n      pop\n      jump\t// out\n        /* \"#utility.yul\":24882:25248   */\n    tag_489:\n        /* \"#utility.yul\":25024:25027   */\n      0x00\n        /* \"#utility.yul\":25045:25112   */\n      tag_762\n        /* \"#utility.yul\":25109:25111   */\n      0x0b\n        /* \"#utility.yul\":25104:25107   */\n      dup4\n        /* \"#utility.yul\":25045:25112   */\n      tag_469\n      jump\t// in\n    tag_762:\n        /* \"#utility.yul\":25038:25112   */\n      swap2\n      pop\n        /* \"#utility.yul\":25121:25214   */\n      tag_763\n        /* \"#utility.yul\":25210:25213   */\n      dup3\n        /* \"#utility.yul\":25121:25214   */\n      tag_488\n      jump\t// in\n    tag_763:\n        /* \"#utility.yul\":25239:25241   */\n      0x20\n        /* \"#utility.yul\":25234:25237   */\n      dup3\n        /* \"#utility.yul\":25230:25242   */\n      add\n        /* \"#utility.yul\":25223:25242   */\n      swap1\n      pop\n        /* \"#utility.yul\":24882:25248   */\n      swap2\n      swap1\n      pop\n      jump\t// out\n        /* \"#utility.yul\":25254:25673   */\n    tag_213:\n        /* \"#utility.yul\":25420:25424   */\n      0x00\n        /* \"#utility.yul\":25458:25460   */\n      0x20\n        /* \"#utility.yul\":25447:25456   */\n      dup3\n        /* \"#utility.yul\":25443:25461   */\n      add\n        /* \"#utility.yul\":25435:25461   */\n      swap1\n      pop\n        /* \"#utility.yul\":25507:25516   */\n      dup2\n        /* \"#utility.yul\":25501:25505   */\n      dup2\n        /* \"#utility.yul\":25497:25517   */\n      sub\n        /* \"#utility.yul\":25493:25494   */\n      0x00\n        /* \"#utility.yul\":25482:25491   */\n      dup4\n        /* \"#utility.yul\":25478:25495   */\n      add\n        /* \"#utility.yul\":25471:25518   */\n      mstore\n        /* \"#utility.yul\":25535:25666   */\n      tag_765\n        /* \"#utility.yul\":25661:25665   */\n      dup2\n        /* \"#utility.yul\":25535:25666   */\n      tag_489\n      jump\t// in\n    tag_765:\n        /* \"#utility.yul\":25527:25666   */\n      swap1\n      pop\n        /* \"#utility.yul\":25254:25673   */\n      swap2\n      swap1\n      pop\n      jump\t// out\n        /* \"#utility.yul\":25679:25849   */\n    tag_490:\n        /* \"#utility.yul\":25819:25841   */\n      0x7665546f6b656e206c657373207468616e203120000000000000000000000000\n        /* \"#utility.yul\":25815:25816   */\n      0x00\n        /* \"#utility.yul\":25807:25813   */\n      dup3\n        /* \"#utility.yul\":25803:25817   */\n      add\n        /* \"#utility.yul\":25796:25842   */\n      mstore\n        /* \"#utility.yul\":25679:25849   */\n      pop\n      jump\t// out\n        /* \"#utility.yul\":25855:26221   */\n    tag_491:\n        /* \"#utility.yul\":25997:26000   */\n      0x00\n        /* \"#utility.yul\":26018:26085   */\n      tag_768\n        /* \"#utility.yul\":26082:26084   */\n      0x14\n        /* \"#utility.yul\":26077:26080   */\n      dup4\n        /* \"#utility.yul\":26018:26085   */\n      tag_469\n      jump\t// in\n    tag_768:\n        /* \"#utility.yul\":26011:26085   */\n      swap2\n      pop\n        /* \"#utility.yul\":26094:26187   */\n      tag_769\n        /* \"#utility.yul\":26183:26186   */\n      dup3\n        /* \"#utility.yul\":26094:26187   */\n      tag_490\n      jump\t// in\n    tag_769:\n        /* \"#utility.yul\":26212:26214   */\n      0x20\n        /* \"#utility.yul\":26207:26210   */\n      dup3\n        /* \"#utility.yul\":26203:26215   */\n      add\n        /* \"#utility.yul\":26196:26215   */\n      swap1\n      pop\n        /* \"#utility.yul\":25855:26221   */\n      swap2\n      swap1\n      pop\n      jump\t// out\n        /* \"#utility.yul\":26227:26646   */\n    tag_220:\n        /* \"#utility.yul\":26393:26397   */\n      0x00\n        /* \"#utility.yul\":26431:26433   */\n      0x20\n        /* \"#utility.yul\":26420:26429   */\n      dup3\n        /* \"#utility.yul\":26416:26434   */\n      add\n        /* \"#utility.yul\":26408:26434   */\n      swap1\n      pop\n        /* \"#utility.yul\":26480:26489   */\n      dup2\n        /* \"#utility.yul\":26474:26478   */\n      dup2\n        /* \"#utility.yul\":26470:26490   */\n      sub\n        /* \"#utility.yul\":26466:26467   */\n      0x00\n        /* \"#utility.yul\":26455:26464   */\n      dup4\n        /* \"#utility.yul\":26451:26468   */\n      add\n        /* \"#utility.yul\":26444:26491   */\n      mstore\n        /* \"#utility.yul\":26508:26639   */\n      tag_771\n        /* \"#utility.yul\":26634:26638   */\n      dup2\n        /* \"#utility.yul\":26508:26639   */\n      tag_491\n      jump\t// in\n    tag_771:\n        /* \"#utility.yul\":26500:26639   */\n      swap1\n      pop\n        /* \"#utility.yul\":26227:26646   */\n      swap2\n      swap1\n      pop\n      jump\t// out\n        /* \"#utility.yul\":26652:26830   */\n    tag_492:\n        /* \"#utility.yul\":26792:26822   */\n      0x4e6f742077697468696e2074686520616c6c6f747465642074696d6500000000\n        /* \"#utility.yul\":26788:26789   */\n      0x00\n        /* \"#utility.yul\":26780:26786   */\n      dup3\n        /* \"#utility.yul\":26776:26790   */\n      add\n        /* \"#utility.yul\":26769:26823   */\n      mstore\n        /* \"#utility.yul\":26652:26830   */\n      pop\n      jump\t// out\n        /* \"#utility.yul\":26836:27202   */\n    tag_493:\n        /* \"#utility.yul\":26978:26981   */\n      0x00\n        /* \"#utility.yul\":26999:27066   */\n      tag_774\n        /* \"#utility.yul\":27063:27065   */\n      0x1c\n        /* \"#utility.yul\":27058:27061   */\n      dup4\n        /* \"#utility.yul\":26999:27066   */\n      tag_469\n      jump\t// in\n    tag_774:\n        /* \"#utility.yul\":26992:27066   */\n      swap2\n      pop\n        /* \"#utility.yul\":27075:27168   */\n      tag_775\n        /* \"#utility.yul\":27164:27167   */\n      dup3\n        /* \"#utility.yul\":27075:27168   */\n      tag_492\n      jump\t// in\n    tag_775:\n        /* \"#utility.yul\":27193:27195   */\n      0x20\n        /* \"#utility.yul\":27188:27191   */\n      dup3\n        /* \"#utility.yul\":27184:27196   */\n      add\n        /* \"#utility.yul\":27177:27196   */\n      swap1\n      pop\n        /* \"#utility.yul\":26836:27202   */\n      swap2\n      swap1\n      pop\n      jump\t// out\n        /* \"#utility.yul\":27208:27627   */\n    tag_223:\n        /* \"#utility.yul\":27374:27378   */\n      0x00\n        /* \"#utility.yul\":27412:27414   */\n      0x20\n        /* \"#utility.yul\":27401:27410   */\n      dup3\n        /* \"#utility.yul\":27397:27415   */\n      add\n        /* \"#utility.yul\":27389:27415   */\n      swap1\n      pop\n        /* \"#utility.yul\":27461:27470   */\n      dup2\n        /* \"#utility.yul\":27455:27459   */\n      dup2\n        /* \"#utility.yul\":27451:27471   */\n      sub\n        /* \"#utility.yul\":27447:27448   */\n      0x00\n        /* \"#utility.yul\":27436:27445   */\n      dup4\n        /* \"#utility.yul\":27432:27449   */\n      add\n        /* \"#utility.yul\":27425:27472   */\n      mstore\n        /* \"#utility.yul\":27489:27620   */\n      tag_777\n        /* \"#utility.yul\":27615:27619   */\n      dup2\n        /* \"#utility.yul\":27489:27620   */\n      tag_493\n      jump\t// in\n    tag_777:\n        /* \"#utility.yul\":27481:27620   */\n      swap1\n      pop\n        /* \"#utility.yul\":27208:27627   */\n      swap2\n      swap1\n      pop\n      jump\t// out\n        /* \"#utility.yul\":27633:27815   */\n    tag_494:\n        /* \"#utility.yul\":27773:27807   */\n      0x77686974654c697374203a3a204164647265737320636865636b206572726f72\n        /* \"#utility.yul\":27769:27770   */\n      0x00\n        /* \"#utility.yul\":27761:27767   */\n      dup3\n        /* \"#utility.yul\":27757:27771   */\n      add\n        /* \"#utility.yul\":27750:27808   */\n      mstore\n        /* \"#utility.yul\":27633:27815   */\n      pop\n      jump\t// out\n        /* \"#utility.yul\":27821:28187   */\n    tag_495:\n        /* \"#utility.yul\":27963:27966   */\n      0x00\n        /* \"#utility.yul\":27984:28051   */\n      tag_780\n        /* \"#utility.yul\":28048:28050   */\n      0x20\n        /* \"#utility.yul\":28043:28046   */\n      dup4\n        /* \"#utility.yul\":27984:28051   */\n      tag_469\n      jump\t// in\n    tag_780:\n        /* \"#utility.yul\":27977:28051   */\n      swap2\n      pop\n        /* \"#utility.yul\":28060:28153   */\n      tag_781\n        /* \"#utility.yul\":28149:28152   */\n      dup3\n        /* \"#utility.yul\":28060:28153   */\n      tag_494\n      jump\t// in\n    tag_781:\n        /* \"#utility.yul\":28178:28180   */\n      0x20\n        /* \"#utility.yul\":28173:28176   */\n      dup3\n        /* \"#utility.yul\":28169:28181   */\n      add\n        /* \"#utility.yul\":28162:28181   */\n      swap1\n      pop\n        /* \"#utility.yul\":27821:28187   */\n      swap2\n      swap1\n      pop\n      jump\t// out\n        /* \"#utility.yul\":28193:28612   */\n    tag_293:\n        /* \"#utility.yul\":28359:28363   */\n      0x00\n        /* \"#utility.yul\":28397:28399   */\n      0x20\n        /* \"#utility.yul\":28386:28395   */\n      dup3\n        /* \"#utility.yul\":28382:28400   */\n      add\n        /* \"#utility.yul\":28374:28400   */\n      swap1\n      pop\n        /* \"#utility.yul\":28446:28455   */\n      dup2\n        /* \"#utility.yul\":28440:28444   */\n      dup2\n        /* \"#utility.yul\":28436:28456   */\n      sub\n        /* \"#utility.yul\":28432:28433   */\n      0x00\n        /* \"#utility.yul\":28421:28430   */\n      dup4\n        /* \"#utility.yul\":28417:28434   */\n      add\n        /* \"#utility.yul\":28410:28457   */\n      mstore\n        /* \"#utility.yul\":28474:28605   */\n      tag_783\n        /* \"#utility.yul\":28600:28604   */\n      dup2\n        /* \"#utility.yul\":28474:28605   */\n      tag_495\n      jump\t// in\n    tag_783:\n        /* \"#utility.yul\":28466:28605   */\n      swap1\n      pop\n        /* \"#utility.yul\":28193:28612   */\n      swap2\n      swap1\n      pop\n      jump\t// out\n        /* \"#utility.yul\":28618:29242   */\n    tag_298:\n        /* \"#utility.yul\":28807:28811   */\n      0x00\n        /* \"#utility.yul\":28845:28847   */\n      0x60\n        /* \"#utility.yul\":28834:28843   */\n      dup3\n        /* \"#utility.yul\":28830:28848   */\n      add\n        /* \"#utility.yul\":28822:28848   */\n      swap1\n      pop\n        /* \"#utility.yul\":28894:28903   */\n      dup2\n        /* \"#utility.yul\":28888:28892   */\n      dup2\n        /* \"#utility.yul\":28884:28904   */\n      sub\n        /* \"#utility.yul\":28880:28881   */\n      0x00\n        /* \"#utility.yul\":28869:28878   */\n      dup4\n        /* \"#utility.yul\":28865:28882   */\n      add\n        /* \"#utility.yul\":28858:28905   */\n      mstore\n        /* \"#utility.yul\":28922:29000   */\n      tag_785\n        /* \"#utility.yul\":28995:28999   */\n      dup2\n        /* \"#utility.yul\":28986:28992   */\n      dup7\n        /* \"#utility.yul\":28922:29000   */\n      tag_470\n      jump\t// in\n    tag_785:\n        /* \"#utility.yul\":28914:29000   */\n      swap1\n      pop\n        /* \"#utility.yul\":29010:29082   */\n      tag_786\n        /* \"#utility.yul\":29078:29080   */\n      0x20\n        /* \"#utility.yul\":29067:29076   */\n      dup4\n        /* \"#utility.yul\":29063:29081   */\n      add\n        /* \"#utility.yul\":29054:29060   */\n      dup6\n        /* \"#utility.yul\":29010:29082   */\n      tag_460\n      jump\t// in\n    tag_786:\n        /* \"#utility.yul\":29129:29138   */\n      dup2\n        /* \"#utility.yul\":29123:29127   */\n      dup2\n        /* \"#utility.yul\":29119:29139   */\n      sub\n        /* \"#utility.yul\":29114:29116   */\n      0x40\n        /* \"#utility.yul\":29103:29112   */\n      dup4\n        /* \"#utility.yul\":29099:29117   */\n      add\n        /* \"#utility.yul\":29092:29140   */\n      mstore\n        /* \"#utility.yul\":29157:29235   */\n      tag_787\n        /* \"#utility.yul\":29230:29234   */\n      dup2\n        /* \"#utility.yul\":29221:29227   */\n      dup5\n        /* \"#utility.yul\":29157:29235   */\n      tag_470\n      jump\t// in\n    tag_787:\n        /* \"#utility.yul\":29149:29235   */\n      swap1\n      pop\n        /* \"#utility.yul\":28618:29242   */\n      swap5\n      swap4\n      pop\n      pop\n      pop\n      pop\n      jump\t// out\n        /* \"#utility.yul\":29248:29417   */\n    tag_496:\n        /* \"#utility.yul\":29388:29409   */\n      0x207665546f6b656e537570706c79203d3d203000000000000000000000000000\n        /* \"#utility.yul\":29384:29385   */\n      0x00\n        /* \"#utility.yul\":29376:29382   */\n      dup3\n        /* \"#utility.yul\":29372:29386   */\n      add\n        /* \"#utility.yul\":29365:29410   */\n      mstore\n        /* \"#utility.yul\":29248:29417   */\n      pop\n      jump\t// out\n        /* \"#utility.yul\":29423:29789   */\n    tag_497:\n        /* \"#utility.yul\":29565:29568   */\n      0x00\n        /* \"#utility.yul\":29586:29653   */\n      tag_790\n        /* \"#utility.yul\":29650:29652   */\n      0x13\n        /* \"#utility.yul\":29645:29648   */\n      dup4\n        /* \"#utility.yul\":29586:29653   */\n      tag_469\n      jump\t// in\n    tag_790:\n        /* \"#utility.yul\":29579:29653   */\n      swap2\n      pop\n        /* \"#utility.yul\":29662:29755   */\n      tag_791\n        /* \"#utility.yul\":29751:29754   */\n      dup3\n        /* \"#utility.yul\":29662:29755   */\n      tag_496\n      jump\t// in\n    tag_791:\n        /* \"#utility.yul\":29780:29782   */\n      0x20\n        /* \"#utility.yul\":29775:29778   */\n      dup3\n        /* \"#utility.yul\":29771:29783   */\n      add\n        /* \"#utility.yul\":29764:29783   */\n      swap1\n      pop\n        /* \"#utility.yul\":29423:29789   */\n      swap2\n      swap1\n      pop\n      jump\t// out\n        /* \"#utility.yul\":29795:30214   */\n    tag_306:\n        /* \"#utility.yul\":29961:29965   */\n      0x00\n        /* \"#utility.yul\":29999:30001   */\n      0x20\n        /* \"#utility.yul\":29988:29997   */\n      dup3\n        /* \"#utility.yul\":29984:30002   */\n      add\n        /* \"#utility.yul\":29976:30002   */\n      swap1\n      pop\n        /* \"#utility.yul\":30048:30057   */\n      dup2\n        /* \"#utility.yul\":30042:30046   */\n      dup2\n        /* \"#utility.yul\":30038:30058   */\n      sub\n        /* \"#utility.yul\":30034:30035   */\n      0x00\n        /* \"#utility.yul\":30023:30032   */\n      dup4\n        /* \"#utility.yul\":30019:30036   */\n      add\n        /* \"#utility.yul\":30012:30059   */\n      mstore\n        /* \"#utility.yul\":30076:30207   */\n      tag_793\n        /* \"#utility.yul\":30202:30206   */\n      dup2\n        /* \"#utility.yul\":30076:30207   */\n      tag_497\n      jump\t// in\n    tag_793:\n        /* \"#utility.yul\":30068:30207   */\n      swap1\n      pop\n        /* \"#utility.yul\":29795:30214   */\n      swap2\n      swap1\n      pop\n      jump\t// out\n        /* \"#utility.yul\":30220:30368   */\n    tag_498:\n        /* \"#utility.yul\":30322:30333   */\n      0x00\n        /* \"#utility.yul\":30359:30362   */\n      dup2\n        /* \"#utility.yul\":30344:30362   */\n      swap1\n      pop\n        /* \"#utility.yul\":30220:30368   */\n      swap3\n      swap2\n      pop\n      pop\n      jump\t// out\n        /* \"#utility.yul\":30374:30751   */\n    tag_499:\n        /* \"#utility.yul\":30480:30483   */\n      0x00\n        /* \"#utility.yul\":30508:30547   */\n      tag_796\n        /* \"#utility.yul\":30541:30546   */\n      dup3\n        /* \"#utility.yul\":30508:30547   */\n      tag_443\n      jump\t// in\n    tag_796:\n        /* \"#utility.yul\":30563:30652   */\n      tag_797\n        /* \"#utility.yul\":30645:30651   */\n      dup2\n        /* \"#utility.yul\":30640:30643   */\n      dup6\n        /* \"#utility.yul\":30563:30652   */\n      tag_498\n      jump\t// in\n    tag_797:\n        /* \"#utility.yul\":30556:30652   */\n      swap4\n      pop\n        /* \"#utility.yul\":30661:30713   */\n      tag_798\n        /* \"#utility.yul\":30706:30712   */\n      dup2\n        /* \"#utility.yul\":30701:30704   */\n      dup6\n        /* \"#utility.yul\":30694:30698   */\n      0x20\n        /* \"#utility.yul\":30687:30692   */\n      dup7\n        /* \"#utility.yul\":30683:30699   */\n      add\n        /* \"#utility.yul\":30661:30713   */\n      tag_445\n      jump\t// in\n    tag_798:\n        /* \"#utility.yul\":30738:30744   */\n      dup1\n        /* \"#utility.yul\":30733:30736   */\n      dup5\n        /* \"#utility.yul\":30729:30745   */\n      add\n        /* \"#utility.yul\":30722:30745   */\n      swap2\n      pop\n        /* \"#utility.yul\":30484:30751   */\n      pop\n        /* \"#utility.yul\":30374:30751   */\n      swap3\n      swap2\n      pop\n      pop\n      jump\t// out\n        /* \"#utility.yul\":30757:31032   */\n    tag_325:\n        /* \"#utility.yul\":30889:30892   */\n      0x00\n        /* \"#utility.yul\":30911:31006   */\n      tag_800\n        /* \"#utility.yul\":31002:31005   */\n      dup3\n        /* \"#utility.yul\":30993:30999   */\n      dup5\n        /* \"#utility.yul\":30911:31006   */\n      tag_499\n      jump\t// in\n    tag_800:\n        /* \"#utility.yul\":30904:31006   */\n      swap2\n      pop\n        /* \"#utility.yul\":31023:31026   */\n      dup2\n        /* \"#utility.yul\":31016:31026   */\n      swap1\n      pop\n        /* \"#utility.yul\":30757:31032   */\n      swap3\n      swap2\n      pop\n      pop\n      jump\t// out\n        /* \"#utility.yul\":31038:31198   */\n    tag_500:\n        /* \"#utility.yul\":31178:31190   */\n      0x4861766520766f74656400000000000000000000000000000000000000000000\n        /* \"#utility.yul\":31174:31175   */\n      0x00\n        /* \"#utility.yul\":31166:31172   */\n      dup3\n        /* \"#utility.yul\":31162:31176   */\n      add\n        /* \"#utility.yul\":31155:31191   */\n      mstore\n        /* \"#utility.yul\":31038:31198   */\n      pop\n      jump\t// out\n        /* \"#utility.yul\":31204:31570   */\n    tag_501:\n        /* \"#utility.yul\":31346:31349   */\n      0x00\n        /* \"#utility.yul\":31367:31434   */\n      tag_803\n        /* \"#utility.yul\":31431:31433   */\n      0x0a\n        /* \"#utility.yul\":31426:31429   */\n      dup4\n        /* \"#utility.yul\":31367:31434   */\n      tag_469\n      jump\t// in\n    tag_803:\n        /* \"#utility.yul\":31360:31434   */\n      swap2\n      pop\n        /* \"#utility.yul\":31443:31536   */\n      tag_804\n        /* \"#utility.yul\":31532:31535   */\n      dup3\n        /* \"#utility.yul\":31443:31536   */\n      tag_500\n      jump\t// in\n    tag_804:\n        /* \"#utility.yul\":31561:31563   */\n      0x20\n        /* \"#utility.yul\":31556:31559   */\n      dup3\n        /* \"#utility.yul\":31552:31564   */\n      add\n        /* \"#utility.yul\":31545:31564   */\n      swap1\n      pop\n        /* \"#utility.yul\":31204:31570   */\n      swap2\n      swap1\n      pop\n      jump\t// out\n        /* \"#utility.yul\":31576:31995   */\n    tag_331:\n        /* \"#utility.yul\":31742:31746   */\n      0x00\n        /* \"#utility.yul\":31780:31782   */\n      0x20\n        /* \"#utility.yul\":31769:31778   */\n      dup3\n        /* \"#utility.yul\":31765:31783   */\n      add\n        /* \"#utility.yul\":31757:31783   */\n      swap1\n      pop\n        /* \"#utility.yul\":31829:31838   */\n      dup2\n        /* \"#utility.yul\":31823:31827   */\n      dup2\n        /* \"#utility.yul\":31819:31839   */\n      sub\n        /* \"#utility.yul\":31815:31816   */\n      0x00\n        /* \"#utility.yul\":31804:31813   */\n      dup4\n        /* \"#utility.yul\":31800:31817   */\n      add\n        /* \"#utility.yul\":31793:31840   */\n      mstore\n        /* \"#utility.yul\":31857:31988   */\n      tag_806\n        /* \"#utility.yul\":31983:31987   */\n      dup2\n        /* \"#utility.yul\":31857:31988   */\n      tag_501\n      jump\t// in\n    tag_806:\n        /* \"#utility.yul\":31849:31988   */\n      swap1\n      pop\n        /* \"#utility.yul\":31576:31995   */\n      swap2\n      swap1\n      pop\n      jump\t// out\n        /* \"#utility.yul\":32001:32177   */\n    tag_502:\n        /* \"#utility.yul\":32141:32169   */\n      0x63616e27742064656c656761746520746f20796f757273656c66000000000000\n        /* \"#utility.yul\":32137:32138   */\n      0x00\n        /* \"#utility.yul\":32129:32135   */\n      dup3\n        /* \"#utility.yul\":32125:32139   */\n      add\n        /* \"#utility.yul\":32118:32170   */\n      mstore\n        /* \"#utility.yul\":32001:32177   */\n      pop\n      jump\t// out\n        /* \"#utility.yul\":32183:32549   */\n    tag_503:\n        /* \"#utility.yul\":32325:32328   */\n      0x00\n        /* \"#utility.yul\":32346:32413   */\n      tag_809\n        /* \"#utility.yul\":32410:32412   */\n      0x1a\n        /* \"#utility.yul\":32405:32408   */\n      dup4\n        /* \"#utility.yul\":32346:32413   */\n      tag_469\n      jump\t// in\n    tag_809:\n        /* \"#utility.yul\":32339:32413   */\n      swap2\n      pop\n        /* \"#utility.yul\":32422:32515   */\n      tag_810\n        /* \"#utility.yul\":32511:32514   */\n      dup3\n        /* \"#utility.yul\":32422:32515   */\n      tag_502\n      jump\t// in\n    tag_810:\n        /* \"#utility.yul\":32540:32542   */\n      0x20\n        /* \"#utility.yul\":32535:32538   */\n      dup3\n        /* \"#utility.yul\":32531:32543   */\n      add\n        /* \"#utility.yul\":32524:32543   */\n      swap1\n      pop\n        /* \"#utility.yul\":32183:32549   */\n      swap2\n      swap1\n      pop\n      jump\t// out\n        /* \"#utility.yul\":32555:32974   */\n    tag_334:\n        /* \"#utility.yul\":32721:32725   */\n      0x00\n        /* \"#utility.yul\":32759:32761   */\n      0x20\n        /* \"#utility.yul\":32748:32757   */\n      dup3\n        /* \"#utility.yul\":32744:32762   */\n      add\n        /* \"#utility.yul\":32736:32762   */\n      swap1\n      pop\n        /* \"#utility.yul\":32808:32817   */\n      dup2\n        /* \"#utility.yul\":32802:32806   */\n      dup2\n        /* \"#utility.yul\":32798:32818   */\n      sub\n        /* \"#utility.yul\":32794:32795   */\n      0x00\n        /* \"#utility.yul\":32783:32792   */\n      dup4\n        /* \"#utility.yul\":32779:32796   */\n      add\n        /* \"#utility.yul\":32772:32819   */\n      mstore\n        /* \"#utility.yul\":32836:32967   */\n      tag_812\n        /* \"#utility.yul\":32962:32966   */\n      dup2\n        /* \"#utility.yul\":32836:32967   */\n      tag_503\n      jump\t// in\n    tag_812:\n        /* \"#utility.yul\":32828:32967   */\n      swap1\n      pop\n        /* \"#utility.yul\":32555:32974   */\n      swap2\n      swap1\n      pop\n      jump\t// out\n        /* \"#utility.yul\":32980:33148   */\n    tag_504:\n        /* \"#utility.yul\":33120:33140   */\n      0x5468657265206973206e6f20746f6b656e200000000000000000000000000000\n        /* \"#utility.yul\":33116:33117   */\n      0x00\n        /* \"#utility.yul\":33108:33114   */\n      dup3\n        /* \"#utility.yul\":33104:33118   */\n      add\n        /* \"#utility.yul\":33097:33141   */\n      mstore\n        /* \"#utility.yul\":32980:33148   */\n      pop\n      jump\t// out\n        /* \"#utility.yul\":33154:33520   */\n    tag_505:\n        /* \"#utility.yul\":33296:33299   */\n      0x00\n        /* \"#utility.yul\":33317:33384   */\n      tag_815\n        /* \"#utility.yul\":33381:33383   */\n      0x12\n        /* \"#utility.yul\":33376:33379   */\n      dup4\n        /* \"#utility.yul\":33317:33384   */\n      tag_469\n      jump\t// in\n    tag_815:\n        /* \"#utility.yul\":33310:33384   */\n      swap2\n      pop\n        /* \"#utility.yul\":33393:33486   */\n      tag_816\n        /* \"#utility.yul\":33482:33485   */\n      dup3\n        /* \"#utility.yul\":33393:33486   */\n      tag_504\n      jump\t// in\n    tag_816:\n        /* \"#utility.yul\":33511:33513   */\n      0x20\n        /* \"#utility.yul\":33506:33509   */\n      dup3\n        /* \"#utility.yul\":33502:33514   */\n      add\n        /* \"#utility.yul\":33495:33514   */\n      swap1\n      pop\n        /* \"#utility.yul\":33154:33520   */\n      swap2\n      swap1\n      pop\n      jump\t// out\n        /* \"#utility.yul\":33526:33945   */\n    tag_341:\n        /* \"#utility.yul\":33692:33696   */\n      0x00\n        /* \"#utility.yul\":33730:33732   */\n      0x20\n        /* \"#utility.yul\":33719:33728   */\n      dup3\n        /* \"#utility.yul\":33715:33733   */\n      add\n        /* \"#utility.yul\":33707:33733   */\n      swap1\n      pop\n        /* \"#utility.yul\":33779:33788   */\n      dup2\n        /* \"#utility.yul\":33773:33777   */\n      dup2\n        /* \"#utility.yul\":33769:33789   */\n      sub\n        /* \"#utility.yul\":33765:33766   */\n      0x00\n        /* \"#utility.yul\":33754:33763   */\n      dup4\n        /* \"#utility.yul\":33750:33767   */\n      add\n        /* \"#utility.yul\":33743:33790   */\n      mstore\n        /* \"#utility.yul\":33807:33938   */\n      tag_818\n        /* \"#utility.yul\":33933:33937   */\n      dup2\n        /* \"#utility.yul\":33807:33938   */\n      tag_505\n      jump\t// in\n    tag_818:\n        /* \"#utility.yul\":33799:33938   */\n      swap1\n      pop\n        /* \"#utility.yul\":33526:33945   */\n      swap2\n      swap1\n      pop\n      jump\t// out\n        /* \"#utility.yul\":33951:34121   */\n    tag_506:\n        /* \"#utility.yul\":34091:34113   */\n      0x7265706574697469766520657865637574696f6e000000000000000000000000\n        /* \"#utility.yul\":34087:34088   */\n      0x00\n        /* \"#utility.yul\":34079:34085   */\n      dup3\n        /* \"#utility.yul\":34075:34089   */\n      add\n        /* \"#utility.yul\":34068:34114   */\n      mstore\n        /* \"#utility.yul\":33951:34121   */\n      pop\n      jump\t// out\n        /* \"#utility.yul\":34127:34493   */\n    tag_507:\n        /* \"#utility.yul\":34269:34272   */\n      0x00\n        /* \"#utility.yul\":34290:34357   */\n      tag_821\n        /* \"#utility.yul\":34354:34356   */\n      0x14\n        /* \"#utility.yul\":34349:34352   */\n      dup4\n        /* \"#utility.yul\":34290:34357   */\n      tag_469\n      jump\t// in\n    tag_821:\n        /* \"#utility.yul\":34283:34357   */\n      swap2\n      pop\n        /* \"#utility.yul\":34366:34459   */\n      tag_822\n        /* \"#utility.yul\":34455:34458   */\n      dup3\n        /* \"#utility.yul\":34366:34459   */\n      tag_506\n      jump\t// in\n    tag_822:\n        /* \"#utility.yul\":34484:34486   */\n      0x20\n        /* \"#utility.yul\":34479:34482   */\n      dup3\n        /* \"#utility.yul\":34475:34487   */\n      add\n        /* \"#utility.yul\":34468:34487   */\n      swap1\n      pop\n        /* \"#utility.yul\":34127:34493   */\n      swap2\n      swap1\n      pop\n      jump\t// out\n        /* \"#utility.yul\":34499:34918   */\n    tag_348:\n        /* \"#utility.yul\":34665:34669   */\n      0x00\n        /* \"#utility.yul\":34703:34705   */\n      0x20\n        /* \"#utility.yul\":34692:34701   */\n      dup3\n        /* \"#utility.yul\":34688:34706   */\n      add\n        /* \"#utility.yul\":34680:34706   */\n      swap1\n      pop\n        /* \"#utility.yul\":34752:34761   */\n      dup2\n        /* \"#utility.yul\":34746:34750   */\n      dup2\n        /* \"#utility.yul\":34742:34762   */\n      sub\n        /* \"#utility.yul\":34738:34739   */\n      0x00\n        /* \"#utility.yul\":34727:34736   */\n      dup4\n        /* \"#utility.yul\":34723:34740   */\n      add\n        /* \"#utility.yul\":34716:34763   */\n      mstore\n        /* \"#utility.yul\":34780:34911   */\n      tag_824\n        /* \"#utility.yul\":34906:34910   */\n      dup2\n        /* \"#utility.yul\":34780:34911   */\n      tag_507\n      jump\t// in\n    tag_824:\n        /* \"#utility.yul\":34772:34911   */\n      swap1\n      pop\n        /* \"#utility.yul\":34499:34918   */\n      swap2\n      swap1\n      pop\n      jump\t// out\n        /* \"#utility.yul\":34924:35103   */\n    tag_508:\n        /* \"#utility.yul\":35064:35095   */\n      0x766f746573206973206c657373207468616e2033302070657263656e74000000\n        /* \"#utility.yul\":35060:35061   */\n      0x00\n        /* \"#utility.yul\":35052:35058   */\n      dup3\n        /* \"#utility.yul\":35048:35062   */\n      add\n        /* \"#utility.yul\":35041:35096   */\n      mstore\n        /* \"#utility.yul\":34924:35103   */\n      pop\n      jump\t// out\n        /* \"#utility.yul\":35109:35475   */\n    tag_509:\n        /* \"#utility.yul\":35251:35254   */\n      0x00\n        /* \"#utility.yul\":35272:35339   */\n      tag_827\n        /* \"#utility.yul\":35336:35338   */\n      0x1d\n        /* \"#utility.yul\":35331:35334   */\n      dup4\n        /* \"#utility.yul\":35272:35339   */\n      tag_469\n      jump\t// in\n    tag_827:\n        /* \"#utility.yul\":35265:35339   */\n      swap2\n      pop\n        /* \"#utility.yul\":35348:35441   */\n      tag_828\n        /* \"#utility.yul\":35437:35440   */\n      dup3\n        /* \"#utility.yul\":35348:35441   */\n      tag_508\n      jump\t// in\n    tag_828:\n        /* \"#utility.yul\":35466:35468   */\n      0x20\n        /* \"#utility.yul\":35461:35464   */\n      dup3\n        /* \"#utility.yul\":35457:35469   */\n      add\n        /* \"#utility.yul\":35450:35469   */\n      swap1\n      pop\n        /* \"#utility.yul\":35109:35475   */\n      swap2\n      swap1\n      pop\n      jump\t// out\n        /* \"#utility.yul\":35481:35900   */\n    tag_367:\n        /* \"#utility.yul\":35647:35651   */\n      0x00\n        /* \"#utility.yul\":35685:35687   */\n      0x20\n        /* \"#utility.yul\":35674:35683   */\n      dup3\n        /* \"#utility.yul\":35670:35688   */\n      add\n        /* \"#utility.yul\":35662:35688   */\n      swap1\n      pop\n        /* \"#utility.yul\":35734:35743   */\n      dup2\n        /* \"#utility.yul\":35728:35732   */\n      dup2\n        /* \"#utility.yul\":35724:35744   */\n      sub\n        /* \"#utility.yul\":35720:35721   */\n      0x00\n        /* \"#utility.yul\":35709:35718   */\n      dup4\n        /* \"#utility.yul\":35705:35722   */\n      add\n        /* \"#utility.yul\":35698:35745   */\n      mstore\n        /* \"#utility.yul\":35762:35893   */\n      tag_830\n        /* \"#utility.yul\":35888:35892   */\n      dup2\n        /* \"#utility.yul\":35762:35893   */\n      tag_509\n      jump\t// in\n    tag_830:\n        /* \"#utility.yul\":35754:35893   */\n      swap1\n      pop\n        /* \"#utility.yul\":35481:35900   */\n      swap2\n      swap1\n      pop\n      jump\t// out\n        /* \"#utility.yul\":35906:36126   */\n    tag_510:\n        /* \"#utility.yul\":36046:36080   */\n      0x4c657373207468616e20363025206f662074686520766f746573207061737365\n        /* \"#utility.yul\":36042:36043   */\n      0x00\n        /* \"#utility.yul\":36034:36040   */\n      dup3\n        /* \"#utility.yul\":36030:36044   */\n      add\n        /* \"#utility.yul\":36023:36081   */\n      mstore\n        /* \"#utility.yul\":36115:36118   */\n      0x6400000000000000000000000000000000000000000000000000000000000000\n        /* \"#utility.yul\":36110:36112   */\n      0x20\n        /* \"#utility.yul\":36102:36108   */\n      dup3\n        /* \"#utility.yul\":36098:36113   */\n      add\n        /* \"#utility.yul\":36091:36119   */\n      mstore\n        /* \"#utility.yul\":35906:36126   */\n      pop\n      jump\t// out\n        /* \"#utility.yul\":36132:36498   */\n    tag_511:\n        /* \"#utility.yul\":36274:36277   */\n      0x00\n        /* \"#utility.yul\":36295:36362   */\n      tag_833\n        /* \"#utility.yul\":36359:36361   */\n      0x21\n        /* \"#utility.yul\":36354:36357   */\n      dup4\n        /* \"#utility.yul\":36295:36362   */\n      tag_469\n      jump\t// in\n    tag_833:\n        /* \"#utility.yul\":36288:36362   */\n      swap2\n      pop\n        /* \"#utility.yul\":36371:36464   */\n      tag_834\n        /* \"#utility.yul\":36460:36463   */\n      dup3\n        /* \"#utility.yul\":36371:36464   */\n      tag_510\n      jump\t// in\n    tag_834:\n        /* \"#utility.yul\":36489:36491   */\n      0x40\n        /* \"#utility.yul\":36484:36487   */\n      dup3\n        /* \"#utility.yul\":36480:36492   */\n      add\n        /* \"#utility.yul\":36473:36492   */\n      swap1\n      pop\n        /* \"#utility.yul\":36132:36498   */\n      swap2\n      swap1\n      pop\n      jump\t// out\n        /* \"#utility.yul\":36504:36923   */\n    tag_373:\n        /* \"#utility.yul\":36670:36674   */\n      0x00\n        /* \"#utility.yul\":36708:36710   */\n      0x20\n        /* \"#utility.yul\":36697:36706   */\n      dup3\n        /* \"#utility.yul\":36693:36711   */\n      add\n        /* \"#utility.yul\":36685:36711   */\n      swap1\n      pop\n        /* \"#utility.yul\":36757:36766   */\n      dup2\n        /* \"#utility.yul\":36751:36755   */\n      dup2\n        /* \"#utility.yul\":36747:36767   */\n      sub\n        /* \"#utility.yul\":36743:36744   */\n      0x00\n        /* \"#utility.yul\":36732:36741   */\n      dup4\n        /* \"#utility.yul\":36728:36745   */\n      add\n        /* \"#utility.yul\":36721:36768   */\n      mstore\n        /* \"#utility.yul\":36785:36916   */\n      tag_836\n        /* \"#utility.yul\":36911:36915   */\n      dup2\n        /* \"#utility.yul\":36785:36916   */\n      tag_511\n      jump\t// in\n    tag_836:\n        /* \"#utility.yul\":36777:36916   */\n      swap1\n      pop\n        /* \"#utility.yul\":36504:36923   */\n      swap2\n      swap1\n      pop\n      jump\t// out\n        /* \"#utility.yul\":36929:37166   */\n    tag_512:\n        /* \"#utility.yul\":37069:37103   */\n      0x54686520766f746520706173736564207769746820666577657220766f746573\n        /* \"#utility.yul\":37065:37066   */\n      0x00\n        /* \"#utility.yul\":37057:37063   */\n      dup3\n        /* \"#utility.yul\":37053:37067   */\n      add\n        /* \"#utility.yul\":37046:37104   */\n      mstore\n        /* \"#utility.yul\":37138:37158   */\n      0x207468616e20746865206f726967696e616c0000000000000000000000000000\n        /* \"#utility.yul\":37133:37135   */\n      0x20\n        /* \"#utility.yul\":37125:37131   */\n      dup3\n        /* \"#utility.yul\":37121:37136   */\n      add\n        /* \"#utility.yul\":37114:37159   */\n      mstore\n        /* \"#utility.yul\":36929:37166   */\n      pop\n      jump\t// out\n        /* \"#utility.yul\":37172:37538   */\n    tag_513:\n        /* \"#utility.yul\":37314:37317   */\n      0x00\n        /* \"#utility.yul\":37335:37402   */\n      tag_839\n        /* \"#utility.yul\":37399:37401   */\n      0x32\n        /* \"#utility.yul\":37394:37397   */\n      dup4\n        /* \"#utility.yul\":37335:37402   */\n      tag_469\n      jump\t// in\n    tag_839:\n        /* \"#utility.yul\":37328:37402   */\n      swap2\n      pop\n        /* \"#utility.yul\":37411:37504   */\n      tag_840\n        /* \"#utility.yul\":37500:37503   */\n      dup3\n        /* \"#utility.yul\":37411:37504   */\n      tag_512\n      jump\t// in\n    tag_840:\n        /* \"#utility.yul\":37529:37531   */\n      0x40\n        /* \"#utility.yul\":37524:37527   */\n      dup3\n        /* \"#utility.yul\":37520:37532   */\n      add\n        /* \"#utility.yul\":37513:37532   */\n      swap1\n      pop\n        /* \"#utility.yul\":37172:37538   */\n      swap2\n      swap1\n      pop\n      jump\t// out\n        /* \"#utility.yul\":37544:37963   */\n    tag_388:\n        /* \"#utility.yul\":37710:37714   */\n      0x00\n        /* \"#utility.yul\":37748:37750   */\n      0x20\n        /* \"#utility.yul\":37737:37746   */\n      dup3\n        /* \"#utility.yul\":37733:37751   */\n      add\n        /* \"#utility.yul\":37725:37751   */\n      swap1\n      pop\n        /* \"#utility.yul\":37797:37806   */\n      dup2\n        /* \"#utility.yul\":37791:37795   */\n      dup2\n        /* \"#utility.yul\":37787:37807   */\n      sub\n        /* \"#utility.yul\":37783:37784   */\n      0x00\n        /* \"#utility.yul\":37772:37781   */\n      dup4\n        /* \"#utility.yul\":37768:37785   */\n      add\n        /* \"#utility.yul\":37761:37808   */\n      mstore\n        /* \"#utility.yul\":37825:37956   */\n      tag_842\n        /* \"#utility.yul\":37951:37955   */\n      dup2\n        /* \"#utility.yul\":37825:37956   */\n      tag_513\n      jump\t// in\n    tag_842:\n        /* \"#utility.yul\":37817:37956   */\n      swap1\n      pop\n        /* \"#utility.yul\":37544:37963   */\n      swap2\n      swap1\n      pop\n      jump\t// out\n        /* \"#utility.yul\":37969:38106   */\n    tag_514:\n        /* \"#utility.yul\":38023:38028   */\n      0x00\n        /* \"#utility.yul\":38054:38060   */\n      dup2\n        /* \"#utility.yul\":38048:38061   */\n      mload\n        /* \"#utility.yul\":38039:38061   */\n      swap1\n      pop\n        /* \"#utility.yul\":38070:38100   */\n      tag_844\n        /* \"#utility.yul\":38094:38099   */\n      dup2\n        /* \"#utility.yul\":38070:38100   */\n      tag_471\n      jump\t// in\n    tag_844:\n        /* \"#utility.yul\":37969:38106   */\n      swap3\n      swap2\n      pop\n      pop\n      jump\t// out\n        /* \"#utility.yul\":38112:38457   */\n    tag_397:\n        /* \"#utility.yul\":38179:38185   */\n      0x00\n        /* \"#utility.yul\":38228:38230   */\n      0x20\n        /* \"#utility.yul\":38216:38225   */\n      dup3\n        /* \"#utility.yul\":38207:38214   */\n      dup5\n        /* \"#utility.yul\":38203:38226   */\n      sub\n        /* \"#utility.yul\":38199:38231   */\n      slt\n        /* \"#utility.yul\":38196:38315   */\n      iszero\n      tag_846\n      jumpi\n        /* \"#utility.yul\":38234:38313   */\n      tag_847\n      tag_433\n      jump\t// in\n    tag_847:\n        /* \"#utility.yul\":38196:38315   */\n    tag_846:\n        /* \"#utility.yul\":38354:38355   */\n      0x00\n        /* \"#utility.yul\":38379:38440   */\n      tag_848\n        /* \"#utility.yul\":38432:38439   */\n      dup5\n        /* \"#utility.yul\":38423:38429   */\n      dup3\n        /* \"#utility.yul\":38412:38421   */\n      dup6\n        /* \"#utility.yul\":38408:38430   */\n      add\n        /* \"#utility.yul\":38379:38440   */\n      tag_514\n      jump\t// in\n    tag_848:\n        /* \"#utility.yul\":38369:38440   */\n      swap2\n      pop\n        /* \"#utility.yul\":38325:38450   */\n      pop\n        /* \"#utility.yul\":38112:38457   */\n      swap3\n      swap2\n      pop\n      pop\n      jump\t// out\n        /* \"#utility.yul\":38463:38640   */\n    tag_515:\n        /* \"#utility.yul\":38603:38632   */\n      0x476f7665726e616e63652054656d706c617465206973206e756c6c0000000000\n        /* \"#utility.yul\":38599:38600   */\n      0x00\n        /* \"#utility.yul\":38591:38597   */\n      dup3\n        /* \"#utility.yul\":38587:38601   */\n      add\n        /* \"#utility.yul\":38580:38633   */\n      mstore\n        /* \"#utility.yul\":38463:38640   */\n      pop\n      jump\t// out\n        /* \"#utility.yul\":38646:39012   */\n    tag_516:\n        /* \"#utility.yul\":38788:38791   */\n      0x00\n        /* \"#utility.yul\":38809:38876   */\n      tag_851\n        /* \"#utility.yul\":38873:38875   */\n      0x1b\n        /* \"#utility.yul\":38868:38871   */\n      dup4\n        /* \"#utility.yul\":38809:38876   */\n      tag_469\n      jump\t// in\n    tag_851:\n        /* \"#utility.yul\":38802:38876   */\n      swap2\n      pop\n        /* \"#utility.yul\":38885:38978   */\n      tag_852\n        /* \"#utility.yul\":38974:38977   */\n      dup3\n        /* \"#utility.yul\":38885:38978   */\n      tag_515\n      jump\t// in\n    tag_852:\n        /* \"#utility.yul\":39003:39005   */\n      0x20\n        /* \"#utility.yul\":38998:39001   */\n      dup3\n        /* \"#utility.yul\":38994:39006   */\n      add\n        /* \"#utility.yul\":38987:39006   */\n      swap1\n      pop\n        /* \"#utility.yul\":38646:39012   */\n      swap2\n      swap1\n      pop\n      jump\t// out\n        /* \"#utility.yul\":39018:39437   */\n    tag_401:\n        /* \"#utility.yul\":39184:39188   */\n      0x00\n        /* \"#utility.yul\":39222:39224   */\n      0x20\n        /* \"#utility.yul\":39211:39220   */\n      dup3\n        /* \"#utility.yul\":39207:39225   */\n      add\n        /* \"#utility.yul\":39199:39225   */\n      swap1\n      pop\n        /* \"#utility.yul\":39271:39280   */\n      dup2\n        /* \"#utility.yul\":39265:39269   */\n      dup2\n        /* \"#utility.yul\":39261:39281   */\n      sub\n        /* \"#utility.yul\":39257:39258   */\n      0x00\n        /* \"#utility.yul\":39246:39255   */\n      dup4\n        /* \"#utility.yul\":39242:39259   */\n      add\n        /* \"#utility.yul\":39235:39282   */\n      mstore\n        /* \"#utility.yul\":39299:39430   */\n      tag_854\n        /* \"#utility.yul\":39425:39429   */\n      dup2\n        /* \"#utility.yul\":39299:39430   */\n      tag_516\n      jump\t// in\n    tag_854:\n        /* \"#utility.yul\":39291:39430   */\n      swap1\n      pop\n        /* \"#utility.yul\":39018:39437   */\n      swap2\n      swap1\n      pop\n      jump\t// out\n        /* \"#utility.yul\":39443:39541   */\n    tag_517:\n        /* \"#utility.yul\":39494:39500   */\n      0x00\n        /* \"#utility.yul\":39528:39533   */\n      dup2\n        /* \"#utility.yul\":39522:39534   */\n      mload\n        /* \"#utility.yul\":39512:39534   */\n      swap1\n      pop\n        /* \"#utility.yul\":39443:39541   */\n      swap2\n      swap1\n      pop\n      jump\t// out\n        /* \"#utility.yul\":39547:39694   */\n    tag_518:\n        /* \"#utility.yul\":39648:39659   */\n      0x00\n        /* \"#utility.yul\":39685:39688   */\n      dup2\n        /* \"#utility.yul\":39670:39688   */\n      swap1\n      pop\n        /* \"#utility.yul\":39547:39694   */\n      swap3\n      swap2\n      pop\n      pop\n      jump\t// out\n        /* \"#utility.yul\":39700:40073   */\n    tag_519:\n        /* \"#utility.yul\":39804:39807   */\n      0x00\n        /* \"#utility.yul\":39832:39870   */\n      tag_858\n        /* \"#utility.yul\":39864:39869   */\n      dup3\n        /* \"#utility.yul\":39832:39870   */\n      tag_517\n      jump\t// in\n    tag_858:\n        /* \"#utility.yul\":39886:39974   */\n      tag_859\n        /* \"#utility.yul\":39967:39973   */\n      dup2\n        /* \"#utility.yul\":39962:39965   */\n      dup6\n        /* \"#utility.yul\":39886:39974   */\n      tag_518\n      jump\t// in\n    tag_859:\n        /* \"#utility.yul\":39879:39974   */\n      swap4\n      pop\n        /* \"#utility.yul\":39983:40035   */\n      tag_860\n        /* \"#utility.yul\":40028:40034   */\n      dup2\n        /* \"#utility.yul\":40023:40026   */\n      dup6\n        /* \"#utility.yul\":40016:40020   */\n      0x20\n        /* \"#utility.yul\":40009:40014   */\n      dup7\n        /* \"#utility.yul\":40005:40021   */\n      add\n        /* \"#utility.yul\":39983:40035   */\n      tag_445\n      jump\t// in\n    tag_860:\n        /* \"#utility.yul\":40060:40066   */\n      dup1\n        /* \"#utility.yul\":40055:40058   */\n      dup5\n        /* \"#utility.yul\":40051:40067   */\n      add\n        /* \"#utility.yul\":40044:40067   */\n      swap2\n      pop\n        /* \"#utility.yul\":39808:40073   */\n      pop\n        /* \"#utility.yul\":39700:40073   */\n      swap3\n      swap2\n      pop\n      pop\n      jump\t// out\n        /* \"#utility.yul\":40079:40350   */\n    tag_414:\n        /* \"#utility.yul\":40209:40212   */\n      0x00\n        /* \"#utility.yul\":40231:40324   */\n      tag_862\n        /* \"#utility.yul\":40320:40323   */\n      dup3\n        /* \"#utility.yul\":40311:40317   */\n      dup5\n        /* \"#utility.yul\":40231:40324   */\n      tag_519\n      jump\t// in\n    tag_862:\n        /* \"#utility.yul\":40224:40324   */\n      swap2\n      pop\n        /* \"#utility.yul\":40341:40344   */\n      dup2\n        /* \"#utility.yul\":40334:40344   */\n      swap1\n      pop\n        /* \"#utility.yul\":40079:40350   */\n      swap3\n      swap2\n      pop\n      pop\n      jump\t// out\n\n    auxdata: 0xa26469706673582212201486d2ace7bff7b73312b8078f9580444c4a5d5f68c62818ce3014b42e998f2f64736f6c634300080a0033\n}\n",
				"bytecode": {
					"linkReferences": {},
					"object": "6080604052603c600055603c6001556005600a5534801561001f57600080fd5b50613f928061002f6000396000f3fe608060405234801561001057600080fd5b50600436106101425760003560e01c806382214856116100b8578063e3a1c1c71161007c578063e3a1c1c71461036f578063edef019d1461038b578063f887ea40146103bc578063f9d793d1146103da578063fc7881c61461040a578063fe0d94c11461042657610142565b806382214856146102b3578063ba7b6703146102cf578063bcd60f6c146102ed578063bcf93dd614610321578063d9ae5bd51461033f57610142565b8063525385501161010a57806352538550146101ef5780635a42007f1461021f57806371d68a971461023d57806374786f691461025957806375bb5b091461028b5780638129fc1c146102a957610142565b80631d75ddcc146101475780632c9e3ef014610165578063321c48f2146101955780633b92eb23146101b35780633fee74d7146101d1575b600080fd5b61014f610442565b60405161015c9190612b88565b60405180910390f35b61017f600480360381019061017a9190612be3565b610448565b60405161018c9190612c2b565b60405180910390f35b61019d610468565b6040516101aa9190612e5b565b60405180910390f35b6101bb6106aa565b6040516101c89190612edc565b60405180910390f35b6101d96106d0565b6040516101e69190612f06565b60405180910390f35b61020960048036038101906102049190612be3565b610746565b6040516102169190612b88565b60405180910390f35b61022761076a565b6040516102349190612b88565b60405180910390f35b61025760048036038101906102529190613056565b610770565b005b610273600480360381019061026e9190612be3565b610ad1565b604051610282939291906130fc565b60405180910390f35b610293610c3f565b6040516102a09190612b88565b60405180910390f35b6102b1610c45565b005b6102cd60048036038101906102c8919061316d565b610d35565b005b6102d761188b565b6040516102e49190612b88565b60405180910390f35b61030760048036038101906103029190612be3565b611891565b6040516103189594939291906131ad565b60405180910390f35b6103296118e2565b6040516103369190612b88565b60405180910390f35b61035960048036038101906103549190612be3565b6118e8565b6040516103669190612b88565b60405180910390f35b6103896004803603810190610384919061322c565b61192c565b005b6103a560048036038101906103a09190612be3565b611a65565b6040516103b39291906132b7565b60405180910390f35b6103c4611a8f565b6040516103d19190612f06565b60405180910390f35b6103f460048036038101906103ef91906132e0565b611ab5565b6040516104019190612b88565b60405180910390f35b610424600480360381019061041f919061337f565b611e9c565b005b610440600480360381019061043b9190612be3565b6122d9565b005b600a5481565b60096020528060005260406000206000915054906101000a900460ff1681565b6060600060065467ffffffffffffffff81111561048857610487612f2b565b5b6040519080825280602002602001820160405280156104c157816020015b6104ae612a8e565b8152602001906001900390816104a65790505b50905060005b6006548110156106a2576008600082815260200190815260200160002060405180608001604052908160008201548152602001600182018054610509906133ee565b80601f0160208091040260200160405190810160405280929190818152602001828054610535906133ee565b80156105825780601f1061055757610100808354040283529160200191610582565b820191906000526020600020905b81548152906001019060200180831161056557829003601f168201915b505050505081526020016002820160009054906101000a900473ffffffffffffffffffffffffffffffffffffffff1673ffffffffffffffffffffffffffffffffffffffff1673ffffffffffffffffffffffffffffffffffffffff1681526020016003820180546105f1906133ee565b80601f016020809104026020016040519081016040528092919081815260200182805461061d906133ee565b801561066a5780601f1061063f5761010080835404028352916020019161066a565b820191906000526020600020905b81548152906001019060200180831161064d57829003601f168201915b50505050508152505082828151811061068657610685613420565b5b60200260200101819052508061069b9061347e565b90506104c7565b508091505090565b600360009054906101000a900473ffffffffffffffffffffffffffffffffffffffff1681565b60003373ffffffffffffffffffffffffffffffffffffffff16633b92eb236040518163ffffffff1660e01b8152600401602060405180830381865afa15801561071d573d6000803e3d6000fd5b505050506040513d601f19601f8201168201806040525081019061074191906134dc565b905090565b6005818154811061075657600080fd5b906000526020600020016000915090505481565b60065481565b60006064600a54600360009054906101000a900473ffffffffffffffffffffffffffffffffffffffff1673ffffffffffffffffffffffffffffffffffffffff166318160ddd6040518163ffffffff1660e01b8152600401602060405180830381865afa1580156107e4573d6000803e3d6000fd5b505050506040513d601f19601f82011682018060405250810190610808919061351e565b610812919061354b565b61081c91906135d4565b905080600360009054906101000a900473ffffffffffffffffffffffffffffffffffffffff1673ffffffffffffffffffffffffffffffffffffffff166370a08231336040518263ffffffff1660e01b815260040161087a9190612f06565b602060405180830381865afa158015610897573d6000803e3d6000fd5b505050506040513d601f19601f820116820180604052508101906108bb919061351e565b10156108fc576040517f08c379a00000000000000000000000000000000000000000000000000000000081526004016108f390613651565b60405180910390fd5b600060076000858152602001908152602001600020905080600201544210158015610937575060015481600201546109349190613671565b42105b610976576040517f08c379a000000000000000000000000000000000000000000000000000000000815260040161096d90613713565b60405180910390fd5b6001600681111561098a57610989613733565b5b8160080160009054906101000a900460ff1660068111156109ae576109ad613733565b5b146109ee576040517f08c379a00000000000000000000000000000000000000000000000000000000081526004016109e5906137ae565b60405180910390fd5b60058160080160006101000a81548160ff02191690836006811115610a1657610a15613733565b5b02179055508281600c016001019080519060200190610a36929190612acc565b503381600c0160000160006101000a81548173ffffffffffffffffffffffffffffffffffffffff021916908373ffffffffffffffffffffffffffffffffffffffff16021790555060015442610a8b9190613671565b8160020181905550837f4a3e39232ea797464bb08b1cb8267cfc05e026d0eae637ff17b0548af520369a84604051610ac391906137ce565b60405180910390a250505050565b60608060008060076000868152602001908152602001600020905080600301816005018260040160009054906101000a900473ffffffffffffffffffffffffffffffffffffffff16828054610b25906133ee565b80601f0160208091040260200160405190810160405280929190818152602001828054610b51906133ee565b8015610b9e5780601f10610b7357610100808354040283529160200191610b9e565b820191906000526020600020905b815481529060010190602001808311610b8157829003601f168201915b50505050509250818054610bb1906133ee565b80601f0160208091040260200160405190810160405280929190818152602001828054610bdd906133ee565b8015610c2a5780601f10610bff57610100808354040283529160200191610c2a565b820191906000526020600020905b815481529060010190602001808311610c0d57829003601f168201915b50505050509150935093509350509193909250565b60045481565b610c4d6106d0565b600360006101000a81548173ffffffffffffffffffffffffffffffffffffffff021916908373ffffffffffffffffffffffffffffffffffffffff16021790555033600260006101000a81548173ffffffffffffffffffffffffffffffffffffffff021916908373ffffffffffffffffffffffffffffffffffffffff160217905550600260009054906101000a900473ffffffffffffffffffffffffffffffffffffffff1673ffffffffffffffffffffffffffffffffffffffff167f0e39d7cd8517be5d0ded9db90850ac775470f23ea44ec3aaaad22ee8b1f8fc5960405160405180910390a2565b60008060076000858152602001908152602001600020905060006006811115610d6157610d60613733565b5b8160080160009054906101000a900460ff166006811115610d8557610d84613733565b5b1415610dc6576040517f08c379a0000000000000000000000000000000000000000000000000000000008152600401610dbd9061383c565b60405180910390fd5b60016006811115610dda57610dd9613733565b5b8160080160009054906101000a900460ff166006811115610dfe57610dfd613733565b5b14156113785780600b0160003373ffffffffffffffffffffffffffffffffffffffff1673ffffffffffffffffffffffffffffffffffffffff16815260200190815260200160002060000160009054906101000a900460ff1615610e96576040517f08c379a0000000000000000000000000000000000000000000000000000000008152600401610e8d906138a8565b60405180910390fd5b6001600360009054906101000a900473ffffffffffffffffffffffffffffffffffffffff1673ffffffffffffffffffffffffffffffffffffffff166370a08231336040518263ffffffff1660e01b8152600401610ef39190612f06565b602060405180830381865afa158015610f10573d6000803e3d6000fd5b505050506040513d601f19601f82011682018060405250810190610f34919061351e565b1015610f75576040517f08c379a0000000000000000000000000000000000000000000000000000000008152600401610f6c90613914565b60405180910390fd5b80600201544210610fbb576040517f08c379a0000000000000000000000000000000000000000000000000000000008152600401610fb290613980565b60405180910390fd5b600181600b0160003373ffffffffffffffffffffffffffffffffffffffff1673ffffffffffffffffffffffffffffffffffffffff16815260200190815260200160002060000160006101000a81548160ff02191690831515021790555082156112bc57600081600b0160003373ffffffffffffffffffffffffffffffffffffffff1673ffffffffffffffffffffffffffffffffffffffff16815260200190815260200160002060010180549050146112015760005b81600b0160003373ffffffffffffffffffffffffffffffffffffffff1673ffffffffffffffffffffffffffffffffffffffff168152602001908152602001600020600101805490508110156111ff57600082600b0160003373ffffffffffffffffffffffffffffffffffffffff1673ffffffffffffffffffffffffffffffffffffffff168152602001908152602001600020600101828154811061111757611116613420565b5b9060005260206000200160009054906101000a900473ffffffffffffffffffffffffffffffffffffffff169050600360009054906101000a900473ffffffffffffffffffffffffffffffffffffffff1673ffffffffffffffffffffffffffffffffffffffff166370a08231826040518263ffffffff1660e01b815260040161119f9190612f06565b602060405180830381865afa1580156111bc573d6000803e3d6000fd5b505050506040513d601f19601f820116820180604052508101906111e0919061351e565b846111eb9190613671565b935050806111f89061347e565b9050611070565b505b600360009054906101000a900473ffffffffffffffffffffffffffffffffffffffff1673ffffffffffffffffffffffffffffffffffffffff166370a08231336040518263ffffffff1660e01b815260040161125c9190612f06565b602060405180830381865afa158015611279573d6000803e3d6000fd5b505050506040513d601f19601f8201168201806040525081019061129d919061351e565b8160060160008282546112b09190613671565b92505081905550611373565b600360009054906101000a900473ffffffffffffffffffffffffffffffffffffffff1673ffffffffffffffffffffffffffffffffffffffff166370a08231336040518263ffffffff1660e01b81526004016113179190612f06565b602060405180830381865afa158015611334573d6000803e3d6000fd5b505050506040513d601f19601f82011682018060405250810190611358919061351e565b81600701600082825461136b9190613671565b925050819055505b61184d565b6005600681111561138c5761138b613733565b5b8160080160009054906101000a900460ff1660068111156113b0576113af613733565b5b14156117925780600c0160040160003373ffffffffffffffffffffffffffffffffffffffff1673ffffffffffffffffffffffffffffffffffffffff16815260200190815260200160002060000160009054906101000a900460ff161561144b576040517f08c379a0000000000000000000000000000000000000000000000000000000008152600401611442906138a8565b60405180910390fd5b80600201544210611491576040517f08c379a000000000000000000000000000000000000000000000000000000000815260040161148890613980565b60405180910390fd5b600181600c0160040160003373ffffffffffffffffffffffffffffffffffffffff1673ffffffffffffffffffffffffffffffffffffffff16815260200190815260200160002060000160006101000a81548160ff021916908315150217905550600081600b0160003373ffffffffffffffffffffffffffffffffffffffff1673ffffffffffffffffffffffffffffffffffffffff16815260200190815260200160002060010180549050146116d45760005b81600b0160003373ffffffffffffffffffffffffffffffffffffffff1673ffffffffffffffffffffffffffffffffffffffff168152602001908152602001600020600101805490508110156116d257600082600b0160003373ffffffffffffffffffffffffffffffffffffffff1673ffffffffffffffffffffffffffffffffffffffff16815260200190815260200160002060010182815481106115ea576115e9613420565b5b9060005260206000200160009054906101000a900473ffffffffffffffffffffffffffffffffffffffff169050600360009054906101000a900473ffffffffffffffffffffffffffffffffffffffff1673ffffffffffffffffffffffffffffffffffffffff166370a08231826040518263ffffffff1660e01b81526004016116729190612f06565b602060405180830381865afa15801561168f573d6000803e3d6000fd5b505050506040513d601f19601f820116820180604052508101906116b3919061351e565b846116be9190613671565b935050806116cb9061347e565b9050611543565b505b600360009054906101000a900473ffffffffffffffffffffffffffffffffffffffff1673ffffffffffffffffffffffffffffffffffffffff166370a08231336040518263ffffffff1660e01b815260040161172f9190612f06565b602060405180830381865afa15801561174c573d6000803e3d6000fd5b505050506040513d601f19601f82011682018060405250810190611770919061351e565b81600c0160020160008282546117869190613671565b9250508190555061184c565b600360009054906101000a900473ffffffffffffffffffffffffffffffffffffffff1673ffffffffffffffffffffffffffffffffffffffff166370a08231336040518263ffffffff1660e01b81526004016117ed9190612f06565b602060405180830381865afa15801561180a573d6000803e3d6000fd5b505050506040513d601f19601f8201168201806040525081019061182e919061351e565b81600c0160030160008282546118449190613671565b925050819055505b5b837f72869afc3552df414602b428f5e96b4eb3fab540271192c4f31eb3adaf5faf1e8460405161187d9190612c2b565b60405180910390a250505050565b60015481565b600080600080600080600760008881526020019081526020016000209050806006015495508060070154945080600c0160020154935080600c01600301549250806002015491505091939590929450565b60005481565b6000806007600084815260200190815260200160002090508060080160009054906101000a900460ff16600681111561192457611923613733565b5b915050919050565b6119346126bf565b611973576040517f08c379a000000000000000000000000000000000000000000000000000000000815260040161196a906139ec565b60405180910390fd5b600060086000600654815260200190815260200160002090506006548160000181905550828160020160006101000a81548173ffffffffffffffffffffffffffffffffffffffff021916908373ffffffffffffffffffffffffffffffffffffffff160217905550818160030190805190602001906119f2929190612acc565b5083816001019080519060200190611a0b929190612acc565b5060066000815480929190611a1f9061347e565b91905055507f291fb4c9ec38b653e778aad63d42ce4710da5b91c49a033ba04963dd409300eb848484604051611a5793929190613a0c565b60405180910390a150505050565b60008060006007600085815260200190815260200160002090504292508060020154915050915091565b600260009054906101000a900473ffffffffffffffffffffffffffffffffffffffff1681565b600080600360009054906101000a900473ffffffffffffffffffffffffffffffffffffffff1673ffffffffffffffffffffffffffffffffffffffff166318160ddd6040518163ffffffff1660e01b8152600401602060405180830381865afa158015611b25573d6000803e3d6000fd5b505050506040513d601f19601f82011682018060405250810190611b49919061351e565b1415611b8a576040517f08c379a0000000000000000000000000000000000000000000000000000000008152600401611b8190613a9d565b60405180910390fd5b60006064600a54600360009054906101000a900473ffffffffffffffffffffffffffffffffffffffff1673ffffffffffffffffffffffffffffffffffffffff166318160ddd6040518163ffffffff1660e01b8152600401602060405180830381865afa158015611bfe573d6000803e3d6000fd5b505050506040513d601f19601f82011682018060405250810190611c22919061351e565b611c2c919061354b565b611c3691906135d4565b905080600360009054906101000a900473ffffffffffffffffffffffffffffffffffffffff1673ffffffffffffffffffffffffffffffffffffffff166370a08231336040518263ffffffff1660e01b8152600401611c949190612f06565b602060405180830381865afa158015611cb1573d6000803e3d6000fd5b505050506040513d601f19601f82011682018060405250810190611cd5919061351e565b1015611d16576040517f08c379a0000000000000000000000000000000000000000000000000000000008152600401611d0d90613651565b60405180910390fd5b60046000815480929190611d299061347e565b91905055506000600760006004548152602001908152602001600020905081816000018190555086816003019080519060200190611d68929190612acc565b50600454816001018190555060005442611d829190613671565b8160020181905550338160040160006101000a81548173ffffffffffffffffffffffffffffffffffffffff021916908373ffffffffffffffffffffffffffffffffffffffff16021790555085816005019080519060200190611de5929190612acc565b5060018160080160006101000a81548160ff02191690836006811115611e0e57611e0d613733565b5b02179055508481600901819055508381600a018190555085604051611e339190613af9565b604051809103902087604051611e499190613af9565b60405180910390206004547f2042799f2e1d3fcfc7c7e9dd101b3430c99aa621240ea8fdeac79ad1c973888e8888604051611e859291906132b7565b60405180910390a460045492505050949350505050565b600060076000848152602001908152602001600020905080600b0160003373ffffffffffffffffffffffffffffffffffffffff1673ffffffffffffffffffffffffffffffffffffffff16815260200190815260200160002060000160009054906101000a900460ff1615611f45576040517f08c379a0000000000000000000000000000000000000000000000000000000008152600401611f3c90613b5c565b60405180910390fd5b3373ffffffffffffffffffffffffffffffffffffffff168273ffffffffffffffffffffffffffffffffffffffff161415611fb4576040517f08c379a0000000000000000000000000000000000000000000000000000000008152600401611fab90613bc8565b60405180910390fd5b6000600360009054906101000a900473ffffffffffffffffffffffffffffffffffffffff1673ffffffffffffffffffffffffffffffffffffffff166370a08231336040518263ffffffff1660e01b81526004016120119190612f06565b602060405180830381865afa15801561202e573d6000803e3d6000fd5b505050506040513d601f19601f82011682018060405250810190612052919061351e565b11612092576040517f08c379a000000000000000000000000000000000000000000000000000000000815260040161208990613c34565b60405180910390fd5b80600b0160008373ffffffffffffffffffffffffffffffffffffffff1673ffffffffffffffffffffffffffffffffffffffff168152602001908152602001600020600101339080600181540180825580915050600190039060005260206000200160009091909190916101000a81548173ffffffffffffffffffffffffffffffffffffffff021916908373ffffffffffffffffffffffffffffffffffffffff160217905550600181600b0160003373ffffffffffffffffffffffffffffffffffffffff1673ffffffffffffffffffffffffffffffffffffffff16815260200190815260200160002060000160006101000a81548160ff02191690831515021790555080600c0160040160008373ffffffffffffffffffffffffffffffffffffffff1673ffffffffffffffffffffffffffffffffffffffff168152602001908152602001600020600101339080600181540180825580915050600190039060005260206000200160009091909190916101000a81548173ffffffffffffffffffffffffffffffffffffffff021916908373ffffffffffffffffffffffffffffffffffffffff160217905550600181600c0160040160003373ffffffffffffffffffffffffffffffffffffffff1673ffffffffffffffffffffffffffffffffffffffff16815260200190815260200160002060000160006101000a81548160ff021916908315150217905550827fa9860e62eb02a47e1d5d5253a79d90bc96cd33c299d874f5b7710d0a61b63ccc836040516122cc9190612f06565b60405180910390a2505050565b60006007600083815260200190815260200160002090506009600083815260200190815260200160002060009054906101000a900460ff1615612351576040517f08c379a000000000000000000000000000000000000000000000000000000000815260040161234890613ca0565b60405180910390fd5b6000600681111561236557612364613733565b5b8160080160009054906101000a900460ff16600681111561238957612388613733565b5b14156123ca576040517f08c379a00000000000000000000000000000000000000000000000000000000081526004016123c19061383c565b60405180910390fd5b600160068111156123de576123dd613733565b5b8160080160009054906101000a900460ff16600681111561240257612401613733565b5b1415612579578060020154421161244e576040517f08c379a000000000000000000000000000000000000000000000000000000000815260040161244590613713565b60405180910390fd5b6103e861012c8260000154612463919061354b565b61246d91906135d4565b816006015482600701546124819190613671565b10156124c2576040517f08c379a00000000000000000000000000000000000000000000000000000000081526004016124b990613d0c565b60405180910390fd5b603c816006015482600701546124d89190613671565b606483600601546124e9919061354b565b6124f391906135d4565b1015612534576040517f08c379a000000000000000000000000000000000000000000000000000000000815260040161252b90613d9e565b60405180910390fd5b60028160080160006101000a81548160ff0219169083600681111561255c5761255b613733565b5b021790555061257482826009015483600a0154612762565b61268e565b6005600681111561258d5761258c613733565b5b8160080160009054906101000a900460ff1660068111156125b1576125b0613733565b5b141561268d5780600201544210156125fe576040517f08c379a00000000000000000000000000000000000000000000000000000000081526004016125f590613713565b60405180910390fd5b806006015481600c0160020154101561264c576040517f08c379a000000000000000000000000000000000000000000000000000000000815260040161264390613e30565b60405180910390fd5b60028160080160006101000a81548160ff0219169083600681111561267457612673613733565b5b021790555061268c82826009015483600a0154612762565b5b5b817fa6b4889fbc6222293f94ac3c68c40fa4c027b86b0dfe4f820475c7d8828a243660405160405180910390a25050565b6000600260009054906101000a900473ffffffffffffffffffffffffffffffffffffffff1673ffffffffffffffffffffffffffffffffffffffff1663372c12b1336040518263ffffffff1660e01b815260040161271c9190612f06565b602060405180830381865afa158015612739573d6000803e3d6000fd5b505050506040513d601f19601f8201168201806040525081019061275d9190613e65565b905090565b60006008600084815260200190815260200160002060020160009054906101000a900473ffffffffffffffffffffffffffffffffffffffff169050600073ffffffffffffffffffffffffffffffffffffffff168173ffffffffffffffffffffffffffffffffffffffff16141561280d576040517f08c379a000000000000000000000000000000000000000000000000000000000815260040161280490613ede565b60405180910390fd5b600584908060018154018082558091505060019003906000526020600020016000909190919091505560016009600086815260200190815260200160002060006101000a81548160ff02191690831515021790555061286c8383612872565b50505050565b60006008600084815260200190815260200160002060020160009054906101000a900473ffffffffffffffffffffffffffffffffffffffff16905060006008600085815260200190815260200160002060030180546128d0906133ee565b80601f01602080910402602001604051908101604052809291908181526020018280546128fc906133ee565b80156129495780601f1061291e57610100808354040283529160200191612949565b820191906000526020600020905b81548152906001019060200180831161292c57829003601f168201915b505050505090506000808373ffffffffffffffffffffffffffffffffffffffff16838660405160240161297c9190612b88565b604051602081830303815290604052906040516129999190613af9565b60405180910390207bffffffffffffffffffffffffffffffffffffffffffffffffffffffff19166020820180517bffffffffffffffffffffffffffffffffffffffffffffffffffffffff83818316178352505050506040516129fb9190613f45565b6000604051808303816000865af19150503d8060008114612a38576040519150601f19603f3d011682016040523d82523d6000602084013e612a3d565b606091505b5091509150818190612a85576040517f08c379a0000000000000000000000000000000000000000000000000000000008152600401612a7c91906137ce565b60405180910390fd5b50505050505050565b60405180608001604052806000815260200160608152602001600073ffffffffffffffffffffffffffffffffffffffff168152602001606081525090565b828054612ad8906133ee565b90600052602060002090601f016020900481019282612afa5760008555612b41565b82601f10612b1357805160ff1916838001178555612b41565b82800160010185558215612b41579182015b82811115612b40578251825591602001919060010190612b25565b5b509050612b4e9190612b52565b5090565b5b80821115612b6b576000816000905550600101612b53565b5090565b6000819050919050565b612b8281612b6f565b82525050565b6000602082019050612b9d6000830184612b79565b92915050565b6000604051905090565b600080fd5b600080fd5b612bc081612b6f565b8114612bcb57600080fd5b50565b600081359050612bdd81612bb7565b92915050565b600060208284031215612bf957612bf8612bad565b5b6000612c0784828501612bce565b91505092915050565b60008115159050919050565b612c2581612c10565b82525050565b6000602082019050612c406000830184612c1c565b92915050565b600081519050919050565b600082825260208201905092915050565b6000819050602082019050919050565b612c7b81612b6f565b82525050565b600081519050919050565b600082825260208201905092915050565b60005b83811015612cbb578082015181840152602081019050612ca0565b83811115612cca576000848401525b50505050565b6000601f19601f8301169050919050565b6000612cec82612c81565b612cf68185612c8c565b9350612d06818560208601612c9d565b612d0f81612cd0565b840191505092915050565b600073ffffffffffffffffffffffffffffffffffffffff82169050919050565b6000612d4582612d1a565b9050919050565b612d5581612d3a565b82525050565b6000608083016000830151612d736000860182612c72565b5060208301518482036020860152612d8b8282612ce1565b9150506040830151612da06040860182612d4c565b5060608301518482036060860152612db88282612ce1565b9150508091505092915050565b6000612dd18383612d5b565b905092915050565b6000602082019050919050565b6000612df182612c46565b612dfb8185612c51565b935083602082028501612e0d85612c62565b8060005b85811015612e495784840389528151612e2a8582612dc5565b9450612e3583612dd9565b925060208a01995050600181019050612e11565b50829750879550505050505092915050565b60006020820190508181036000830152612e758184612de6565b905092915050565b6000819050919050565b6000612ea2612e9d612e9884612d1a565b612e7d565b612d1a565b9050919050565b6000612eb482612e87565b9050919050565b6000612ec682612ea9565b9050919050565b612ed681612ebb565b82525050565b6000602082019050612ef16000830184612ecd565b92915050565b612f0081612d3a565b82525050565b6000602082019050612f1b6000830184612ef7565b92915050565b600080fd5b600080fd5b7f4e487b7100000000000000000000000000000000000000000000000000000000600052604160045260246000fd5b612f6382612cd0565b810181811067ffffffffffffffff82111715612f8257612f81612f2b565b5b80604052505050565b6000612f95612ba3565b9050612fa18282612f5a565b919050565b600067ffffffffffffffff821115612fc157612fc0612f2b565b5b612fca82612cd0565b9050602081019050919050565b82818337600083830152505050565b6000612ff9612ff484612fa6565b612f8b565b90508281526020810184848401111561301557613014612f26565b5b613020848285612fd7565b509392505050565b600082601f83011261303d5761303c612f21565b5b813561304d848260208601612fe6565b91505092915050565b6000806040838503121561306d5761306c612bad565b5b600061307b85828601612bce565b925050602083013567ffffffffffffffff81111561309c5761309b612bb2565b5b6130a885828601613028565b9150509250929050565b600082825260208201905092915050565b60006130ce82612c81565b6130d881856130b2565b93506130e8818560208601612c9d565b6130f181612cd0565b840191505092915050565b6000606082019050818103600083015261311681866130c3565b9050818103602083015261312a81856130c3565b90506131396040830184612ef7565b949350505050565b61314a81612c10565b811461315557600080fd5b50565b60008135905061316781613141565b92915050565b6000806040838503121561318457613183612bad565b5b600061319285828601612bce565b92505060206131a385828601613158565b9150509250929050565b600060a0820190506131c26000830188612b79565b6131cf6020830187612b79565b6131dc6040830186612b79565b6131e96060830185612b79565b6131f66080830184612b79565b9695505050505050565b61320981612d3a565b811461321457600080fd5b50565b60008135905061322681613200565b92915050565b60008060006060848603121561324557613244612bad565b5b600084013567ffffffffffffffff81111561326357613262612bb2565b5b61326f86828701613028565b935050602061328086828701613217565b925050604084013567ffffffffffffffff8111156132a1576132a0612bb2565b5b6132ad86828701613028565b9150509250925092565b60006040820190506132cc6000830185612b79565b6132d96020830184612b79565b9392505050565b600080600080608085870312156132fa576132f9612bad565b5b600085013567ffffffffffffffff81111561331857613317612bb2565b5b61332487828801613028565b945050602085013567ffffffffffffffff81111561334557613344612bb2565b5b61335187828801613028565b935050604061336287828801612bce565b925050606061337387828801612bce565b91505092959194509250565b6000806040838503121561339657613395612bad565b5b60006133a485828601612bce565b92505060206133b585828601613217565b9150509250929050565b7f4e487b7100000000000000000000000000000000000000000000000000000000600052602260045260246000fd5b6000600282049050600182168061340657607f821691505b6020821081141561341a576134196133bf565b5b50919050565b7f4e487b7100000000000000000000000000000000000000000000000000000000600052603260045260246000fd5b7f4e487b7100000000000000000000000000000000000000000000000000000000600052601160045260246000fd5b600061348982612b6f565b91507fffffffffffffffffffffffffffffffffffffffffffffffffffffffffffffffff8214156134bc576134bb61344f565b5b600182019050919050565b6000815190506134d681613200565b92915050565b6000602082840312156134f2576134f1612bad565b5b6000613500848285016134c7565b91505092915050565b60008151905061351881612bb7565b92915050565b60006020828403121561353457613533612bad565b5b600061354284828501613509565b91505092915050565b600061355682612b6f565b915061356183612b6f565b9250817fffffffffffffffffffffffffffffffffffffffffffffffffffffffffffffffff048311821515161561359a5761359961344f565b5b828202905092915050565b7f4e487b7100000000000000000000000000000000000000000000000000000000600052601260045260246000fd5b60006135df82612b6f565b91506135ea83612b6f565b9250826135fa576135f96135a5565b5b828204905092915050565b7f546f6f2066657720746f6b656e73206172652068656c64000000000000000000600082015250565b600061363b6017836130b2565b915061364682613605565b602082019050919050565b6000602082019050818103600083015261366a8161362e565b9050919050565b600061367c82612b6f565b915061368783612b6f565b9250827fffffffffffffffffffffffffffffffffffffffffffffffffffffffffffffffff038211156136bc576136bb61344f565b5b828201905092915050565b7f5374696c6c20696e2074686520766f74696e6720706861736500000000000000600082015250565b60006136fd6019836130b2565b9150613708826136c7565b602082019050919050565b6000602082019050818103600083015261372c816136f0565b9050919050565b7f4e487b7100000000000000000000000000000000000000000000000000000000600052602160045260246000fd5b7f4e6f742061742074686520766f74696e67207374616765000000000000000000600082015250565b60006137986017836130b2565b91506137a382613762565b602082019050919050565b600060208201905081810360008301526137c78161378b565b9050919050565b600060208201905081810360008301526137e881846130c3565b905092915050565b7f566f74654964206973206e756c6c000000000000000000000000000000000000600082015250565b6000613826600e836130b2565b9150613831826137f0565b602082019050919050565b6000602082019050818103600083015261385581613819565b9050919050565b7f566f7465206265666f7265000000000000000000000000000000000000000000600082015250565b6000613892600b836130b2565b915061389d8261385c565b602082019050919050565b600060208201905081810360008301526138c181613885565b9050919050565b7f7665546f6b656e206c657373207468616e203120000000000000000000000000600082015250565b60006138fe6014836130b2565b9150613909826138c8565b602082019050919050565b6000602082019050818103600083015261392d816138f1565b9050919050565b7f4e6f742077697468696e2074686520616c6c6f747465642074696d6500000000600082015250565b600061396a601c836130b2565b915061397582613934565b602082019050919050565b600060208201905081810360008301526139998161395d565b9050919050565b7f77686974654c697374203a3a204164647265737320636865636b206572726f72600082015250565b60006139d66020836130b2565b91506139e1826139a0565b602082019050919050565b60006020820190508181036000830152613a05816139c9565b9050919050565b60006060820190508181036000830152613a2681866130c3565b9050613a356020830185612ef7565b8181036040830152613a4781846130c3565b9050949350505050565b7f207665546f6b656e537570706c79203d3d203000000000000000000000000000600082015250565b6000613a876013836130b2565b9150613a9282613a51565b602082019050919050565b60006020820190508181036000830152613ab681613a7a565b9050919050565b600081905092915050565b6000613ad382612c81565b613add8185613abd565b9350613aed818560208601612c9d565b80840191505092915050565b6000613b058284613ac8565b915081905092915050565b7f4861766520766f74656400000000000000000000000000000000000000000000600082015250565b6000613b46600a836130b2565b9150613b5182613b10565b602082019050919050565b60006020820190508181036000830152613b7581613b39565b9050919050565b7f63616e27742064656c656761746520746f20796f757273656c66000000000000600082015250565b6000613bb2601a836130b2565b9150613bbd82613b7c565b602082019050919050565b60006020820190508181036000830152613be181613ba5565b9050919050565b7f5468657265206973206e6f20746f6b656e200000000000000000000000000000600082015250565b6000613c1e6012836130b2565b9150613c2982613be8565b602082019050919050565b60006020820190508181036000830152613c4d81613c11565b9050919050565b7f7265706574697469766520657865637574696f6e000000000000000000000000600082015250565b6000613c8a6014836130b2565b9150613c9582613c54565b602082019050919050565b60006020820190508181036000830152613cb981613c7d565b9050919050565b7f766f746573206973206c657373207468616e2033302070657263656e74000000600082015250565b6000613cf6601d836130b2565b9150613d0182613cc0565b602082019050919050565b60006020820190508181036000830152613d2581613ce9565b9050919050565b7f4c657373207468616e20363025206f662074686520766f74657320706173736560008201527f6400000000000000000000000000000000000000000000000000000000000000602082015250565b6000613d886021836130b2565b9150613d9382613d2c565b604082019050919050565b60006020820190508181036000830152613db781613d7b565b9050919050565b7f54686520766f746520706173736564207769746820666577657220766f74657360008201527f207468616e20746865206f726967696e616c0000000000000000000000000000602082015250565b6000613e1a6032836130b2565b9150613e2582613dbe565b604082019050919050565b60006020820190508181036000830152613e4981613e0d565b9050919050565b600081519050613e5f81613141565b92915050565b600060208284031215613e7b57613e7a612bad565b5b6000613e8984828501613e50565b91505092915050565b7f476f7665726e616e63652054656d706c617465206973206e756c6c0000000000600082015250565b6000613ec8601b836130b2565b9150613ed382613e92565b602082019050919050565b60006020820190508181036000830152613ef781613ebb565b9050919050565b600081519050919050565b600081905092915050565b6000613f1f82613efe565b613f298185613f09565b9350613f39818560208601612c9d565b80840191505092915050565b6000613f518284613f14565b91508190509291505056fea26469706673582212201486d2ace7bff7b73312b8078f9580444c4a5d5f68c62818ce3014b42e998f2f64736f6c634300080a0033",
					"opcodes": "PUSH1 0x80 PUSH1 0x40 MSTORE PUSH1 0x3C PUSH1 0x0 SSTORE PUSH1 0x3C PUSH1 0x1 SSTORE PUSH1 0x5 PUSH1 0xA SSTORE CALLVALUE DUP1 ISZERO PUSH2 0x1F JUMPI PUSH1 0x0 DUP1 REVERT JUMPDEST POP PUSH2 0x3F92 DUP1 PUSH2 0x2F PUSH1 0x0 CODECOPY PUSH1 0x0 RETURN INVALID PUSH1 0x80 PUSH1 0x40 MSTORE CALLVALUE DUP1 ISZERO PUSH2 0x10 JUMPI PUSH1 0x0 DUP1 REVERT JUMPDEST POP PUSH1 0x4 CALLDATASIZE LT PUSH2 0x142 JUMPI PUSH1 0x0 CALLDATALOAD PUSH1 0xE0 SHR DUP1 PUSH4 0x82214856 GT PUSH2 0xB8 JUMPI DUP1 PUSH4 0xE3A1C1C7 GT PUSH2 0x7C JUMPI DUP1 PUSH4 0xE3A1C1C7 EQ PUSH2 0x36F JUMPI DUP1 PUSH4 0xEDEF019D EQ PUSH2 0x38B JUMPI DUP1 PUSH4 0xF887EA40 EQ PUSH2 0x3BC JUMPI DUP1 PUSH4 0xF9D793D1 EQ PUSH2 0x3DA JUMPI DUP1 PUSH4 0xFC7881C6 EQ PUSH2 0x40A JUMPI DUP1 PUSH4 0xFE0D94C1 EQ PUSH2 0x426 JUMPI PUSH2 0x142 JUMP JUMPDEST DUP1 PUSH4 0x82214856 EQ PUSH2 0x2B3 JUMPI DUP1 PUSH4 0xBA7B6703 EQ PUSH2 0x2CF JUMPI DUP1 PUSH4 0xBCD60F6C EQ PUSH2 0x2ED JUMPI DUP1 PUSH4 0xBCF93DD6 EQ PUSH2 0x321 JUMPI DUP1 PUSH4 0xD9AE5BD5 EQ PUSH2 0x33F JUMPI PUSH2 0x142 JUMP JUMPDEST DUP1 PUSH4 0x52538550 GT PUSH2 0x10A JUMPI DUP1 PUSH4 0x52538550 EQ PUSH2 0x1EF JUMPI DUP1 PUSH4 0x5A42007F EQ PUSH2 0x21F JUMPI DUP1 PUSH4 0x71D68A97 EQ PUSH2 0x23D JUMPI DUP1 PUSH4 0x74786F69 EQ PUSH2 0x259 JUMPI DUP1 PUSH4 0x75BB5B09 EQ PUSH2 0x28B JUMPI DUP1 PUSH4 0x8129FC1C EQ PUSH2 0x2A9 JUMPI PUSH2 0x142 JUMP JUMPDEST DUP1 PUSH4 0x1D75DDCC EQ PUSH2 0x147 JUMPI DUP1 PUSH4 0x2C9E3EF0 EQ PUSH2 0x165 JUMPI DUP1 PUSH4 0x321C48F2 EQ PUSH2 0x195 JUMPI DUP1 PUSH4 0x3B92EB23 EQ PUSH2 0x1B3 JUMPI DUP1 PUSH4 0x3FEE74D7 EQ PUSH2 0x1D1 JUMPI JUMPDEST PUSH1 0x0 DUP1 REVERT JUMPDEST PUSH2 0x14F PUSH2 0x442 JUMP JUMPDEST PUSH1 0x40 MLOAD PUSH2 0x15C SWAP2 SWAP1 PUSH2 0x2B88 JUMP JUMPDEST PUSH1 0x40 MLOAD DUP1 SWAP2 SUB SWAP1 RETURN JUMPDEST PUSH2 0x17F PUSH1 0x4 DUP1 CALLDATASIZE SUB DUP2 ADD SWAP1 PUSH2 0x17A SWAP2 SWAP1 PUSH2 0x2BE3 JUMP JUMPDEST PUSH2 0x448 JUMP JUMPDEST PUSH1 0x40 MLOAD PUSH2 0x18C SWAP2 SWAP1 PUSH2 0x2C2B JUMP JUMPDEST PUSH1 0x40 MLOAD DUP1 SWAP2 SUB SWAP1 RETURN JUMPDEST PUSH2 0x19D PUSH2 0x468 JUMP JUMPDEST PUSH1 0x40 MLOAD PUSH2 0x1AA SWAP2 SWAP1 PUSH2 0x2E5B JUMP JUMPDEST PUSH1 0x40 MLOAD DUP1 SWAP2 SUB SWAP1 RETURN JUMPDEST PUSH2 0x1BB PUSH2 0x6AA JUMP JUMPDEST PUSH1 0x40 MLOAD PUSH2 0x1C8 SWAP2 SWAP1 PUSH2 0x2EDC JUMP JUMPDEST PUSH1 0x40 MLOAD DUP1 SWAP2 SUB SWAP1 RETURN JUMPDEST PUSH2 0x1D9 PUSH2 0x6D0 JUMP JUMPDEST PUSH1 0x40 MLOAD PUSH2 0x1E6 SWAP2 SWAP1 PUSH2 0x2F06 JUMP JUMPDEST PUSH1 0x40 MLOAD DUP1 SWAP2 SUB SWAP1 RETURN JUMPDEST PUSH2 0x209 PUSH1 0x4 DUP1 CALLDATASIZE SUB DUP2 ADD SWAP1 PUSH2 0x204 SWAP2 SWAP1 PUSH2 0x2BE3 JUMP JUMPDEST PUSH2 0x746 JUMP JUMPDEST PUSH1 0x40 MLOAD PUSH2 0x216 SWAP2 SWAP1 PUSH2 0x2B88 JUMP JUMPDEST PUSH1 0x40 MLOAD DUP1 SWAP2 SUB SWAP1 RETURN JUMPDEST PUSH2 0x227 PUSH2 0x76A JUMP JUMPDEST PUSH1 0x40 MLOAD PUSH2 0x234 SWAP2 SWAP1 PUSH2 0x2B88 JUMP JUMPDEST PUSH1 0x40 MLOAD DUP1 SWAP2 SUB SWAP1 RETURN JUMPDEST PUSH2 0x257 PUSH1 0x4 DUP1 CALLDATASIZE SUB DUP2 ADD SWAP1 PUSH2 0x252 SWAP2 SWAP1 PUSH2 0x3056 JUMP JUMPDEST PUSH2 0x770 JUMP JUMPDEST STOP JUMPDEST PUSH2 0x273 PUSH1 0x4 DUP1 CALLDATASIZE SUB DUP2 ADD SWAP1 PUSH2 0x26E SWAP2 SWAP1 PUSH2 0x2BE3 JUMP JUMPDEST PUSH2 0xAD1 JUMP JUMPDEST PUSH1 0x40 MLOAD PUSH2 0x282 SWAP4 SWAP3 SWAP2 SWAP1 PUSH2 0x30FC JUMP JUMPDEST PUSH1 0x40 MLOAD DUP1 SWAP2 SUB SWAP1 RETURN JUMPDEST PUSH2 0x293 PUSH2 0xC3F JUMP JUMPDEST PUSH1 0x40 MLOAD PUSH2 0x2A0 SWAP2 SWAP1 PUSH2 0x2B88 JUMP JUMPDEST PUSH1 0x40 MLOAD DUP1 SWAP2 SUB SWAP1 RETURN JUMPDEST PUSH2 0x2B1 PUSH2 0xC45 JUMP JUMPDEST STOP JUMPDEST PUSH2 0x2CD PUSH1 0x4 DUP1 CALLDATASIZE SUB DUP2 ADD SWAP1 PUSH2 0x2C8 SWAP2 SWAP1 PUSH2 0x316D JUMP JUMPDEST PUSH2 0xD35 JUMP JUMPDEST STOP JUMPDEST PUSH2 0x2D7 PUSH2 0x188B JUMP JUMPDEST PUSH1 0x40 MLOAD PUSH2 0x2E4 SWAP2 SWAP1 PUSH2 0x2B88 JUMP JUMPDEST PUSH1 0x40 MLOAD DUP1 SWAP2 SUB SWAP1 RETURN JUMPDEST PUSH2 0x307 PUSH1 0x4 DUP1 CALLDATASIZE SUB DUP2 ADD SWAP1 PUSH2 0x302 SWAP2 SWAP1 PUSH2 0x2BE3 JUMP JUMPDEST PUSH2 0x1891 JUMP JUMPDEST PUSH1 0x40 MLOAD PUSH2 0x318 SWAP6 SWAP5 SWAP4 SWAP3 SWAP2 SWAP1 PUSH2 0x31AD JUMP JUMPDEST PUSH1 0x40 MLOAD DUP1 SWAP2 SUB SWAP1 RETURN JUMPDEST PUSH2 0x329 PUSH2 0x18E2 JUMP JUMPDEST PUSH1 0x40 MLOAD PUSH2 0x336 SWAP2 SWAP1 PUSH2 0x2B88 JUMP JUMPDEST PUSH1 0x40 MLOAD DUP1 SWAP2 SUB SWAP1 RETURN JUMPDEST PUSH2 0x359 PUSH1 0x4 DUP1 CALLDATASIZE SUB DUP2 ADD SWAP1 PUSH2 0x354 SWAP2 SWAP1 PUSH2 0x2BE3 JUMP JUMPDEST PUSH2 0x18E8 JUMP JUMPDEST PUSH1 0x40 MLOAD PUSH2 0x366 SWAP2 SWAP1 PUSH2 0x2B88 JUMP JUMPDEST PUSH1 0x40 MLOAD DUP1 SWAP2 SUB SWAP1 RETURN JUMPDEST PUSH2 0x389 PUSH1 0x4 DUP1 CALLDATASIZE SUB DUP2 ADD SWAP1 PUSH2 0x384 SWAP2 SWAP1 PUSH2 0x322C JUMP JUMPDEST PUSH2 0x192C JUMP JUMPDEST STOP JUMPDEST PUSH2 0x3A5 PUSH1 0x4 DUP1 CALLDATASIZE SUB DUP2 ADD SWAP1 PUSH2 0x3A0 SWAP2 SWAP1 PUSH2 0x2BE3 JUMP JUMPDEST PUSH2 0x1A65 JUMP JUMPDEST PUSH1 0x40 MLOAD PUSH2 0x3B3 SWAP3 SWAP2 SWAP1 PUSH2 0x32B7 JUMP JUMPDEST PUSH1 0x40 MLOAD DUP1 SWAP2 SUB SWAP1 RETURN JUMPDEST PUSH2 0x3C4 PUSH2 0x1A8F JUMP JUMPDEST PUSH1 0x40 MLOAD PUSH2 0x3D1 SWAP2 SWAP1 PUSH2 0x2F06 JUMP JUMPDEST PUSH1 0x40 MLOAD DUP1 SWAP2 SUB SWAP1 RETURN JUMPDEST PUSH2 0x3F4 PUSH1 0x4 DUP1 CALLDATASIZE SUB DUP2 ADD SWAP1 PUSH2 0x3EF SWAP2 SWAP1 PUSH2 0x32E0 JUMP JUMPDEST PUSH2 0x1AB5 JUMP JUMPDEST PUSH1 0x40 MLOAD PUSH2 0x401 SWAP2 SWAP1 PUSH2 0x2B88 JUMP JUMPDEST PUSH1 0x40 MLOAD DUP1 SWAP2 SUB SWAP1 RETURN JUMPDEST PUSH2 0x424 PUSH1 0x4 DUP1 CALLDATASIZE SUB DUP2 ADD SWAP1 PUSH2 0x41F SWAP2 SWAP1 PUSH2 0x337F JUMP JUMPDEST PUSH2 0x1E9C JUMP JUMPDEST STOP JUMPDEST PUSH2 0x440 PUSH1 0x4 DUP1 CALLDATASIZE SUB DUP2 ADD SWAP1 PUSH2 0x43B SWAP2 SWAP1 PUSH2 0x2BE3 JUMP JUMPDEST PUSH2 0x22D9 JUMP JUMPDEST STOP JUMPDEST PUSH1 0xA SLOAD DUP2 JUMP JUMPDEST PUSH1 0x9 PUSH1 0x20 MSTORE DUP1 PUSH1 0x0 MSTORE PUSH1 0x40 PUSH1 0x0 KECCAK256 PUSH1 0x0 SWAP2 POP SLOAD SWAP1 PUSH2 0x100 EXP SWAP1 DIV PUSH1 0xFF AND DUP2 JUMP JUMPDEST PUSH1 0x60 PUSH1 0x0 PUSH1 0x6 SLOAD PUSH8 0xFFFFFFFFFFFFFFFF DUP2 GT ISZERO PUSH2 0x488 JUMPI PUSH2 0x487 PUSH2 0x2F2B JUMP JUMPDEST JUMPDEST PUSH1 0x40 MLOAD SWAP1 DUP1 DUP3 MSTORE DUP1 PUSH1 0x20 MUL PUSH1 0x20 ADD DUP3 ADD PUSH1 0x40 MSTORE DUP1 ISZERO PUSH2 0x4C1 JUMPI DUP2 PUSH1 0x20 ADD JUMPDEST PUSH2 0x4AE PUSH2 0x2A8E JUMP JUMPDEST DUP2 MSTORE PUSH1 0x20 ADD SWAP1 PUSH1 0x1 SWAP1 SUB SWAP1 DUP2 PUSH2 0x4A6 JUMPI SWAP1 POP JUMPDEST POP SWAP1 POP PUSH1 0x0 JUMPDEST PUSH1 0x6 SLOAD DUP2 LT ISZERO PUSH2 0x6A2 JUMPI PUSH1 0x8 PUSH1 0x0 DUP3 DUP2 MSTORE PUSH1 0x20 ADD SWAP1 DUP2 MSTORE PUSH1 0x20 ADD PUSH1 0x0 KECCAK256 PUSH1 0x40 MLOAD DUP1 PUSH1 0x80 ADD PUSH1 0x40 MSTORE SWAP1 DUP2 PUSH1 0x0 DUP3 ADD SLOAD DUP2 MSTORE PUSH1 0x20 ADD PUSH1 0x1 DUP3 ADD DUP1 SLOAD PUSH2 0x509 SWAP1 PUSH2 0x33EE JUMP JUMPDEST DUP1 PUSH1 0x1F ADD PUSH1 0x20 DUP1 SWAP2 DIV MUL PUSH1 0x20 ADD PUSH1 0x40 MLOAD SWAP1 DUP2 ADD PUSH1 0x40 MSTORE DUP1 SWAP3 SWAP2 SWAP1 DUP2 DUP2 MSTORE PUSH1 0x20 ADD DUP3 DUP1 SLOAD PUSH2 0x535 SWAP1 PUSH2 0x33EE JUMP JUMPDEST DUP1 ISZERO PUSH2 0x582 JUMPI DUP1 PUSH1 0x1F LT PUSH2 0x557 JUMPI PUSH2 0x100 DUP1 DUP4 SLOAD DIV MUL DUP4 MSTORE SWAP2 PUSH1 0x20 ADD SWAP2 PUSH2 0x582 JUMP JUMPDEST DUP3 ADD SWAP2 SWAP1 PUSH1 0x0 MSTORE PUSH1 0x20 PUSH1 0x0 KECCAK256 SWAP1 JUMPDEST DUP2 SLOAD DUP2 MSTORE SWAP1 PUSH1 0x1 ADD SWAP1 PUSH1 0x20 ADD DUP1 DUP4 GT PUSH2 0x565 JUMPI DUP3 SWAP1 SUB PUSH1 0x1F AND DUP3 ADD SWAP2 JUMPDEST POP POP POP POP POP DUP2 MSTORE PUSH1 0x20 ADD PUSH1 0x2 DUP3 ADD PUSH1 0x0 SWAP1 SLOAD SWAP1 PUSH2 0x100 EXP SWAP1 DIV PUSH20 0xFFFFFFFFFFFFFFFFFFFFFFFFFFFFFFFFFFFFFFFF AND PUSH20 0xFFFFFFFFFFFFFFFFFFFFFFFFFFFFFFFFFFFFFFFF AND PUSH20 0xFFFFFFFFFFFFFFFFFFFFFFFFFFFFFFFFFFFFFFFF AND DUP2 MSTORE PUSH1 0x20 ADD PUSH1 0x3 DUP3 ADD DUP1 SLOAD PUSH2 0x5F1 SWAP1 PUSH2 0x33EE JUMP JUMPDEST DUP1 PUSH1 0x1F ADD PUSH1 0x20 DUP1 SWAP2 DIV MUL PUSH1 0x20 ADD PUSH1 0x40 MLOAD SWAP1 DUP2 ADD PUSH1 0x40 MSTORE DUP1 SWAP3 SWAP2 SWAP1 DUP2 DUP2 MSTORE PUSH1 0x20 ADD DUP3 DUP1 SLOAD PUSH2 0x61D SWAP1 PUSH2 0x33EE JUMP JUMPDEST DUP1 ISZERO PUSH2 0x66A JUMPI DUP1 PUSH1 0x1F LT PUSH2 0x63F JUMPI PUSH2 0x100 DUP1 DUP4 SLOAD DIV MUL DUP4 MSTORE SWAP2 PUSH1 0x20 ADD SWAP2 PUSH2 0x66A JUMP JUMPDEST DUP3 ADD SWAP2 SWAP1 PUSH1 0x0 MSTORE PUSH1 0x20 PUSH1 0x0 KECCAK256 SWAP1 JUMPDEST DUP2 SLOAD DUP2 MSTORE SWAP1 PUSH1 0x1 ADD SWAP1 PUSH1 0x20 ADD DUP1 DUP4 GT PUSH2 0x64D JUMPI DUP3 SWAP1 SUB PUSH1 0x1F AND DUP3 ADD SWAP2 JUMPDEST POP POP POP POP POP DUP2 MSTORE POP POP DUP3 DUP3 DUP2 MLOAD DUP2 LT PUSH2 0x686 JUMPI PUSH2 0x685 PUSH2 0x3420 JUMP JUMPDEST JUMPDEST PUSH1 0x20 MUL PUSH1 0x20 ADD ADD DUP2 SWAP1 MSTORE POP DUP1 PUSH2 0x69B SWAP1 PUSH2 0x347E JUMP JUMPDEST SWAP1 POP PUSH2 0x4C7 JUMP JUMPDEST POP DUP1 SWAP2 POP POP SWAP1 JUMP JUMPDEST PUSH1 0x3 PUSH1 0x0 SWAP1 SLOAD SWAP1 PUSH2 0x100 EXP SWAP1 DIV PUSH20 0xFFFFFFFFFFFFFFFFFFFFFFFFFFFFFFFFFFFFFFFF AND DUP2 JUMP JUMPDEST PUSH1 0x0 CALLER PUSH20 0xFFFFFFFFFFFFFFFFFFFFFFFFFFFFFFFFFFFFFFFF AND PUSH4 0x3B92EB23 PUSH1 0x40 MLOAD DUP2 PUSH4 0xFFFFFFFF AND PUSH1 0xE0 SHL DUP2 MSTORE PUSH1 0x4 ADD PUSH1 0x20 PUSH1 0x40 MLOAD DUP1 DUP4 SUB DUP2 DUP7 GAS STATICCALL ISZERO DUP1 ISZERO PUSH2 0x71D JUMPI RETURNDATASIZE PUSH1 0x0 DUP1 RETURNDATACOPY RETURNDATASIZE PUSH1 0x0 REVERT JUMPDEST POP POP POP POP PUSH1 0x40 MLOAD RETURNDATASIZE PUSH1 0x1F NOT PUSH1 0x1F DUP3 ADD AND DUP3 ADD DUP1 PUSH1 0x40 MSTORE POP DUP2 ADD SWAP1 PUSH2 0x741 SWAP2 SWAP1 PUSH2 0x34DC JUMP JUMPDEST SWAP1 POP SWAP1 JUMP JUMPDEST PUSH1 0x5 DUP2 DUP2 SLOAD DUP2 LT PUSH2 0x756 JUMPI PUSH1 0x0 DUP1 REVERT JUMPDEST SWAP1 PUSH1 0x0 MSTORE PUSH1 0x20 PUSH1 0x0 KECCAK256 ADD PUSH1 0x0 SWAP2 POP SWAP1 POP SLOAD DUP2 JUMP JUMPDEST PUSH1 0x6 SLOAD DUP2 JUMP JUMPDEST PUSH1 0x0 PUSH1 0x64 PUSH1 0xA SLOAD PUSH1 0x3 PUSH1 0x0 SWAP1 SLOAD SWAP1 PUSH2 0x100 EXP SWAP1 DIV PUSH20 0xFFFFFFFFFFFFFFFFFFFFFFFFFFFFFFFFFFFFFFFF AND PUSH20 0xFFFFFFFFFFFFFFFFFFFFFFFFFFFFFFFFFFFFFFFF AND PUSH4 0x18160DDD PUSH1 0x40 MLOAD DUP2 PUSH4 0xFFFFFFFF AND PUSH1 0xE0 SHL DUP2 MSTORE PUSH1 0x4 ADD PUSH1 0x20 PUSH1 0x40 MLOAD DUP1 DUP4 SUB DUP2 DUP7 GAS STATICCALL ISZERO DUP1 ISZERO PUSH2 0x7E4 JUMPI RETURNDATASIZE PUSH1 0x0 DUP1 RETURNDATACOPY RETURNDATASIZE PUSH1 0x0 REVERT JUMPDEST POP POP POP POP PUSH1 0x40 MLOAD RETURNDATASIZE PUSH1 0x1F NOT PUSH1 0x1F DUP3 ADD AND DUP3 ADD DUP1 PUSH1 0x40 MSTORE POP DUP2 ADD SWAP1 PUSH2 0x808 SWAP2 SWAP1 PUSH2 0x351E JUMP JUMPDEST PUSH2 0x812 SWAP2 SWAP1 PUSH2 0x354B JUMP JUMPDEST PUSH2 0x81C SWAP2 SWAP1 PUSH2 0x35D4 JUMP JUMPDEST SWAP1 POP DUP1 PUSH1 0x3 PUSH1 0x0 SWAP1 SLOAD SWAP1 PUSH2 0x100 EXP SWAP1 DIV PUSH20 0xFFFFFFFFFFFFFFFFFFFFFFFFFFFFFFFFFFFFFFFF AND PUSH20 0xFFFFFFFFFFFFFFFFFFFFFFFFFFFFFFFFFFFFFFFF AND PUSH4 0x70A08231 CALLER PUSH1 0x40 MLOAD DUP3 PUSH4 0xFFFFFFFF AND PUSH1 0xE0 SHL DUP2 MSTORE PUSH1 0x4 ADD PUSH2 0x87A SWAP2 SWAP1 PUSH2 0x2F06 JUMP JUMPDEST PUSH1 0x20 PUSH1 0x40 MLOAD DUP1 DUP4 SUB DUP2 DUP7 GAS STATICCALL ISZERO DUP1 ISZERO PUSH2 0x897 JUMPI RETURNDATASIZE PUSH1 0x0 DUP1 RETURNDATACOPY RETURNDATASIZE PUSH1 0x0 REVERT JUMPDEST POP POP POP POP PUSH1 0x40 MLOAD RETURNDATASIZE PUSH1 0x1F NOT PUSH1 0x1F DUP3 ADD AND DUP3 ADD DUP1 PUSH1 0x40 MSTORE POP DUP2 ADD SWAP1 PUSH2 0x8BB SWAP2 SWAP1 PUSH2 0x351E JUMP JUMPDEST LT ISZERO PUSH2 0x8FC JUMPI PUSH1 0x40 MLOAD PUSH32 0x8C379A000000000000000000000000000000000000000000000000000000000 DUP2 MSTORE PUSH1 0x4 ADD PUSH2 0x8F3 SWAP1 PUSH2 0x3651 JUMP JUMPDEST PUSH1 0x40 MLOAD DUP1 SWAP2 SUB SWAP1 REVERT JUMPDEST PUSH1 0x0 PUSH1 0x7 PUSH1 0x0 DUP6 DUP2 MSTORE PUSH1 0x20 ADD SWAP1 DUP2 MSTORE PUSH1 0x20 ADD PUSH1 0x0 KECCAK256 SWAP1 POP DUP1 PUSH1 0x2 ADD SLOAD TIMESTAMP LT ISZERO DUP1 ISZERO PUSH2 0x937 JUMPI POP PUSH1 0x1 SLOAD DUP2 PUSH1 0x2 ADD SLOAD PUSH2 0x934 SWAP2 SWAP1 PUSH2 0x3671 JUMP JUMPDEST TIMESTAMP LT JUMPDEST PUSH2 0x976 JUMPI PUSH1 0x40 MLOAD PUSH32 0x8C379A000000000000000000000000000000000000000000000000000000000 DUP2 MSTORE PUSH1 0x4 ADD PUSH2 0x96D SWAP1 PUSH2 0x3713 JUMP JUMPDEST PUSH1 0x40 MLOAD DUP1 SWAP2 SUB SWAP1 REVERT JUMPDEST PUSH1 0x1 PUSH1 0x6 DUP2 GT ISZERO PUSH2 0x98A JUMPI PUSH2 0x989 PUSH2 0x3733 JUMP JUMPDEST JUMPDEST DUP2 PUSH1 0x8 ADD PUSH1 0x0 SWAP1 SLOAD SWAP1 PUSH2 0x100 EXP SWAP1 DIV PUSH1 0xFF AND PUSH1 0x6 DUP2 GT ISZERO PUSH2 0x9AE JUMPI PUSH2 0x9AD PUSH2 0x3733 JUMP JUMPDEST JUMPDEST EQ PUSH2 0x9EE JUMPI PUSH1 0x40 MLOAD PUSH32 0x8C379A000000000000000000000000000000000000000000000000000000000 DUP2 MSTORE PUSH1 0x4 ADD PUSH2 0x9E5 SWAP1 PUSH2 0x37AE JUMP JUMPDEST PUSH1 0x40 MLOAD DUP1 SWAP2 SUB SWAP1 REVERT JUMPDEST PUSH1 0x5 DUP2 PUSH1 0x8 ADD PUSH1 0x0 PUSH2 0x100 EXP DUP2 SLOAD DUP2 PUSH1 0xFF MUL NOT AND SWAP1 DUP4 PUSH1 0x6 DUP2 GT ISZERO PUSH2 0xA16 JUMPI PUSH2 0xA15 PUSH2 0x3733 JUMP JUMPDEST JUMPDEST MUL OR SWAP1 SSTORE POP DUP3 DUP2 PUSH1 0xC ADD PUSH1 0x1 ADD SWAP1 DUP1 MLOAD SWAP1 PUSH1 0x20 ADD SWAP1 PUSH2 0xA36 SWAP3 SWAP2 SWAP1 PUSH2 0x2ACC JUMP JUMPDEST POP CALLER DUP2 PUSH1 0xC ADD PUSH1 0x0 ADD PUSH1 0x0 PUSH2 0x100 EXP DUP2 SLOAD DUP2 PUSH20 0xFFFFFFFFFFFFFFFFFFFFFFFFFFFFFFFFFFFFFFFF MUL NOT AND SWAP1 DUP4 PUSH20 0xFFFFFFFFFFFFFFFFFFFFFFFFFFFFFFFFFFFFFFFF AND MUL OR SWAP1 SSTORE POP PUSH1 0x1 SLOAD TIMESTAMP PUSH2 0xA8B SWAP2 SWAP1 PUSH2 0x3671 JUMP JUMPDEST DUP2 PUSH1 0x2 ADD DUP2 SWAP1 SSTORE POP DUP4 PUSH32 0x4A3E39232EA797464BB08B1CB8267CFC05E026D0EAE637FF17B0548AF520369A DUP5 PUSH1 0x40 MLOAD PUSH2 0xAC3 SWAP2 SWAP1 PUSH2 0x37CE JUMP JUMPDEST PUSH1 0x40 MLOAD DUP1 SWAP2 SUB SWAP1 LOG2 POP POP POP POP JUMP JUMPDEST PUSH1 0x60 DUP1 PUSH1 0x0 DUP1 PUSH1 0x7 PUSH1 0x0 DUP7 DUP2 MSTORE PUSH1 0x20 ADD SWAP1 DUP2 MSTORE PUSH1 0x20 ADD PUSH1 0x0 KECCAK256 SWAP1 POP DUP1 PUSH1 0x3 ADD DUP2 PUSH1 0x5 ADD DUP3 PUSH1 0x4 ADD PUSH1 0x0 SWAP1 SLOAD SWAP1 PUSH2 0x100 EXP SWAP1 DIV PUSH20 0xFFFFFFFFFFFFFFFFFFFFFFFFFFFFFFFFFFFFFFFF AND DUP3 DUP1 SLOAD PUSH2 0xB25 SWAP1 PUSH2 0x33EE JUMP JUMPDEST DUP1 PUSH1 0x1F ADD PUSH1 0x20 DUP1 SWAP2 DIV MUL PUSH1 0x20 ADD PUSH1 0x40 MLOAD SWAP1 DUP2 ADD PUSH1 0x40 MSTORE DUP1 SWAP3 SWAP2 SWAP1 DUP2 DUP2 MSTORE PUSH1 0x20 ADD DUP3 DUP1 SLOAD PUSH2 0xB51 SWAP1 PUSH2 0x33EE JUMP JUMPDEST DUP1 ISZERO PUSH2 0xB9E JUMPI DUP1 PUSH1 0x1F LT PUSH2 0xB73 JUMPI PUSH2 0x100 DUP1 DUP4 SLOAD DIV MUL DUP4 MSTORE SWAP2 PUSH1 0x20 ADD SWAP2 PUSH2 0xB9E JUMP JUMPDEST DUP3 ADD SWAP2 SWAP1 PUSH1 0x0 MSTORE PUSH1 0x20 PUSH1 0x0 KECCAK256 SWAP1 JUMPDEST DUP2 SLOAD DUP2 MSTORE SWAP1 PUSH1 0x1 ADD SWAP1 PUSH1 0x20 ADD DUP1 DUP4 GT PUSH2 0xB81 JUMPI DUP3 SWAP1 SUB PUSH1 0x1F AND DUP3 ADD SWAP2 JUMPDEST POP POP POP POP POP SWAP3 POP DUP2 DUP1 SLOAD PUSH2 0xBB1 SWAP1 PUSH2 0x33EE JUMP JUMPDEST DUP1 PUSH1 0x1F ADD PUSH1 0x20 DUP1 SWAP2 DIV MUL PUSH1 0x20 ADD PUSH1 0x40 MLOAD SWAP1 DUP2 ADD PUSH1 0x40 MSTORE DUP1 SWAP3 SWAP2 SWAP1 DUP2 DUP2 MSTORE PUSH1 0x20 ADD DUP3 DUP1 SLOAD PUSH2 0xBDD SWAP1 PUSH2 0x33EE JUMP JUMPDEST DUP1 ISZERO PUSH2 0xC2A JUMPI DUP1 PUSH1 0x1F LT PUSH2 0xBFF JUMPI PUSH2 0x100 DUP1 DUP4 SLOAD DIV MUL DUP4 MSTORE SWAP2 PUSH1 0x20 ADD SWAP2 PUSH2 0xC2A JUMP JUMPDEST DUP3 ADD SWAP2 SWAP1 PUSH1 0x0 MSTORE PUSH1 0x20 PUSH1 0x0 KECCAK256 SWAP1 JUMPDEST DUP2 SLOAD DUP2 MSTORE SWAP1 PUSH1 0x1 ADD SWAP1 PUSH1 0x20 ADD DUP1 DUP4 GT PUSH2 0xC0D JUMPI DUP3 SWAP1 SUB PUSH1 0x1F AND DUP3 ADD SWAP2 JUMPDEST POP POP POP POP POP SWAP2 POP SWAP4 POP SWAP4 POP SWAP4 POP POP SWAP2 SWAP4 SWAP1 SWAP3 POP JUMP JUMPDEST PUSH1 0x4 SLOAD DUP2 JUMP JUMPDEST PUSH2 0xC4D PUSH2 0x6D0 JUMP JUMPDEST PUSH1 0x3 PUSH1 0x0 PUSH2 0x100 EXP DUP2 SLOAD DUP2 PUSH20 0xFFFFFFFFFFFFFFFFFFFFFFFFFFFFFFFFFFFFFFFF MUL NOT AND SWAP1 DUP4 PUSH20 0xFFFFFFFFFFFFFFFFFFFFFFFFFFFFFFFFFFFFFFFF AND MUL OR SWAP1 SSTORE POP CALLER PUSH1 0x2 PUSH1 0x0 PUSH2 0x100 EXP DUP2 SLOAD DUP2 PUSH20 0xFFFFFFFFFFFFFFFFFFFFFFFFFFFFFFFFFFFFFFFF MUL NOT AND SWAP1 DUP4 PUSH20 0xFFFFFFFFFFFFFFFFFFFFFFFFFFFFFFFFFFFFFFFF AND MUL OR SWAP1 SSTORE POP PUSH1 0x2 PUSH1 0x0 SWAP1 SLOAD SWAP1 PUSH2 0x100 EXP SWAP1 DIV PUSH20 0xFFFFFFFFFFFFFFFFFFFFFFFFFFFFFFFFFFFFFFFF AND PUSH20 0xFFFFFFFFFFFFFFFFFFFFFFFFFFFFFFFFFFFFFFFF AND PUSH32 0xE39D7CD8517BE5D0DED9DB90850AC775470F23EA44EC3AAAAD22EE8B1F8FC59 PUSH1 0x40 MLOAD PUSH1 0x40 MLOAD DUP1 SWAP2 SUB SWAP1 LOG2 JUMP JUMPDEST PUSH1 0x0 DUP1 PUSH1 0x7 PUSH1 0x0 DUP6 DUP2 MSTORE PUSH1 0x20 ADD SWAP1 DUP2 MSTORE PUSH1 0x20 ADD PUSH1 0x0 KECCAK256 SWAP1 POP PUSH1 0x0 PUSH1 0x6 DUP2 GT ISZERO PUSH2 0xD61 JUMPI PUSH2 0xD60 PUSH2 0x3733 JUMP JUMPDEST JUMPDEST DUP2 PUSH1 0x8 ADD PUSH1 0x0 SWAP1 SLOAD SWAP1 PUSH2 0x100 EXP SWAP1 DIV PUSH1 0xFF AND PUSH1 0x6 DUP2 GT ISZERO PUSH2 0xD85 JUMPI PUSH2 0xD84 PUSH2 0x3733 JUMP JUMPDEST JUMPDEST EQ ISZERO PUSH2 0xDC6 JUMPI PUSH1 0x40 MLOAD PUSH32 0x8C379A000000000000000000000000000000000000000000000000000000000 DUP2 MSTORE PUSH1 0x4 ADD PUSH2 0xDBD SWAP1 PUSH2 0x383C JUMP JUMPDEST PUSH1 0x40 MLOAD DUP1 SWAP2 SUB SWAP1 REVERT JUMPDEST PUSH1 0x1 PUSH1 0x6 DUP2 GT ISZERO PUSH2 0xDDA JUMPI PUSH2 0xDD9 PUSH2 0x3733 JUMP JUMPDEST JUMPDEST DUP2 PUSH1 0x8 ADD PUSH1 0x0 SWAP1 SLOAD SWAP1 PUSH2 0x100 EXP SWAP1 DIV PUSH1 0xFF AND PUSH1 0x6 DUP2 GT ISZERO PUSH2 0xDFE JUMPI PUSH2 0xDFD PUSH2 0x3733 JUMP JUMPDEST JUMPDEST EQ ISZERO PUSH2 0x1378 JUMPI DUP1 PUSH1 0xB ADD PUSH1 0x0 CALLER PUSH20 0xFFFFFFFFFFFFFFFFFFFFFFFFFFFFFFFFFFFFFFFF AND PUSH20 0xFFFFFFFFFFFFFFFFFFFFFFFFFFFFFFFFFFFFFFFF AND DUP2 MSTORE PUSH1 0x20 ADD SWAP1 DUP2 MSTORE PUSH1 0x20 ADD PUSH1 0x0 KECCAK256 PUSH1 0x0 ADD PUSH1 0x0 SWAP1 SLOAD SWAP1 PUSH2 0x100 EXP SWAP1 DIV PUSH1 0xFF AND ISZERO PUSH2 0xE96 JUMPI PUSH1 0x40 MLOAD PUSH32 0x8C379A000000000000000000000000000000000000000000000000000000000 DUP2 MSTORE PUSH1 0x4 ADD PUSH2 0xE8D SWAP1 PUSH2 0x38A8 JUMP JUMPDEST PUSH1 0x40 MLOAD DUP1 SWAP2 SUB SWAP1 REVERT JUMPDEST PUSH1 0x1 PUSH1 0x3 PUSH1 0x0 SWAP1 SLOAD SWAP1 PUSH2 0x100 EXP SWAP1 DIV PUSH20 0xFFFFFFFFFFFFFFFFFFFFFFFFFFFFFFFFFFFFFFFF AND PUSH20 0xFFFFFFFFFFFFFFFFFFFFFFFFFFFFFFFFFFFFFFFF AND PUSH4 0x70A08231 CALLER PUSH1 0x40 MLOAD DUP3 PUSH4 0xFFFFFFFF AND PUSH1 0xE0 SHL DUP2 MSTORE PUSH1 0x4 ADD PUSH2 0xEF3 SWAP2 SWAP1 PUSH2 0x2F06 JUMP JUMPDEST PUSH1 0x20 PUSH1 0x40 MLOAD DUP1 DUP4 SUB DUP2 DUP7 GAS STATICCALL ISZERO DUP1 ISZERO PUSH2 0xF10 JUMPI RETURNDATASIZE PUSH1 0x0 DUP1 RETURNDATACOPY RETURNDATASIZE PUSH1 0x0 REVERT JUMPDEST POP POP POP POP PUSH1 0x40 MLOAD RETURNDATASIZE PUSH1 0x1F NOT PUSH1 0x1F DUP3 ADD AND DUP3 ADD DUP1 PUSH1 0x40 MSTORE POP DUP2 ADD SWAP1 PUSH2 0xF34 SWAP2 SWAP1 PUSH2 0x351E JUMP JUMPDEST LT ISZERO PUSH2 0xF75 JUMPI PUSH1 0x40 MLOAD PUSH32 0x8C379A000000000000000000000000000000000000000000000000000000000 DUP2 MSTORE PUSH1 0x4 ADD PUSH2 0xF6C SWAP1 PUSH2 0x3914 JUMP JUMPDEST PUSH1 0x40 MLOAD DUP1 SWAP2 SUB SWAP1 REVERT JUMPDEST DUP1 PUSH1 0x2 ADD SLOAD TIMESTAMP LT PUSH2 0xFBB JUMPI PUSH1 0x40 MLOAD PUSH32 0x8C379A000000000000000000000000000000000000000000000000000000000 DUP2 MSTORE PUSH1 0x4 ADD PUSH2 0xFB2 SWAP1 PUSH2 0x3980 JUMP JUMPDEST PUSH1 0x40 MLOAD DUP1 SWAP2 SUB SWAP1 REVERT JUMPDEST PUSH1 0x1 DUP2 PUSH1 0xB ADD PUSH1 0x0 CALLER PUSH20 0xFFFFFFFFFFFFFFFFFFFFFFFFFFFFFFFFFFFFFFFF AND PUSH20 0xFFFFFFFFFFFFFFFFFFFFFFFFFFFFFFFFFFFFFFFF AND DUP2 MSTORE PUSH1 0x20 ADD SWAP1 DUP2 MSTORE PUSH1 0x20 ADD PUSH1 0x0 KECCAK256 PUSH1 0x0 ADD PUSH1 0x0 PUSH2 0x100 EXP DUP2 SLOAD DUP2 PUSH1 0xFF MUL NOT AND SWAP1 DUP4 ISZERO ISZERO MUL OR SWAP1 SSTORE POP DUP3 ISZERO PUSH2 0x12BC JUMPI PUSH1 0x0 DUP2 PUSH1 0xB ADD PUSH1 0x0 CALLER PUSH20 0xFFFFFFFFFFFFFFFFFFFFFFFFFFFFFFFFFFFFFFFF AND PUSH20 0xFFFFFFFFFFFFFFFFFFFFFFFFFFFFFFFFFFFFFFFF AND DUP2 MSTORE PUSH1 0x20 ADD SWAP1 DUP2 MSTORE PUSH1 0x20 ADD PUSH1 0x0 KECCAK256 PUSH1 0x1 ADD DUP1 SLOAD SWAP1 POP EQ PUSH2 0x1201 JUMPI PUSH1 0x0 JUMPDEST DUP2 PUSH1 0xB ADD PUSH1 0x0 CALLER PUSH20 0xFFFFFFFFFFFFFFFFFFFFFFFFFFFFFFFFFFFFFFFF AND PUSH20 0xFFFFFFFFFFFFFFFFFFFFFFFFFFFFFFFFFFFFFFFF AND DUP2 MSTORE PUSH1 0x20 ADD SWAP1 DUP2 MSTORE PUSH1 0x20 ADD PUSH1 0x0 KECCAK256 PUSH1 0x1 ADD DUP1 SLOAD SWAP1 POP DUP2 LT ISZERO PUSH2 0x11FF JUMPI PUSH1 0x0 DUP3 PUSH1 0xB ADD PUSH1 0x0 CALLER PUSH20 0xFFFFFFFFFFFFFFFFFFFFFFFFFFFFFFFFFFFFFFFF AND PUSH20 0xFFFFFFFFFFFFFFFFFFFFFFFFFFFFFFFFFFFFFFFF AND DUP2 MSTORE PUSH1 0x20 ADD SWAP1 DUP2 MSTORE PUSH1 0x20 ADD PUSH1 0x0 KECCAK256 PUSH1 0x1 ADD DUP3 DUP2 SLOAD DUP2 LT PUSH2 0x1117 JUMPI PUSH2 0x1116 PUSH2 0x3420 JUMP JUMPDEST JUMPDEST SWAP1 PUSH1 0x0 MSTORE PUSH1 0x20 PUSH1 0x0 KECCAK256 ADD PUSH1 0x0 SWAP1 SLOAD SWAP1 PUSH2 0x100 EXP SWAP1 DIV PUSH20 0xFFFFFFFFFFFFFFFFFFFFFFFFFFFFFFFFFFFFFFFF AND SWAP1 POP PUSH1 0x3 PUSH1 0x0 SWAP1 SLOAD SWAP1 PUSH2 0x100 EXP SWAP1 DIV PUSH20 0xFFFFFFFFFFFFFFFFFFFFFFFFFFFFFFFFFFFFFFFF AND PUSH20 0xFFFFFFFFFFFFFFFFFFFFFFFFFFFFFFFFFFFFFFFF AND PUSH4 0x70A08231 DUP3 PUSH1 0x40 MLOAD DUP3 PUSH4 0xFFFFFFFF AND PUSH1 0xE0 SHL DUP2 MSTORE PUSH1 0x4 ADD PUSH2 0x119F SWAP2 SWAP1 PUSH2 0x2F06 JUMP JUMPDEST PUSH1 0x20 PUSH1 0x40 MLOAD DUP1 DUP4 SUB DUP2 DUP7 GAS STATICCALL ISZERO DUP1 ISZERO PUSH2 0x11BC JUMPI RETURNDATASIZE PUSH1 0x0 DUP1 RETURNDATACOPY RETURNDATASIZE PUSH1 0x0 REVERT JUMPDEST POP POP POP POP PUSH1 0x40 MLOAD RETURNDATASIZE PUSH1 0x1F NOT PUSH1 0x1F DUP3 ADD AND DUP3 ADD DUP1 PUSH1 0x40 MSTORE POP DUP2 ADD SWAP1 PUSH2 0x11E0 SWAP2 SWAP1 PUSH2 0x351E JUMP JUMPDEST DUP5 PUSH2 0x11EB SWAP2 SWAP1 PUSH2 0x3671 JUMP JUMPDEST SWAP4 POP POP DUP1 PUSH2 0x11F8 SWAP1 PUSH2 0x347E JUMP JUMPDEST SWAP1 POP PUSH2 0x1070 JUMP JUMPDEST POP JUMPDEST PUSH1 0x3 PUSH1 0x0 SWAP1 SLOAD SWAP1 PUSH2 0x100 EXP SWAP1 DIV PUSH20 0xFFFFFFFFFFFFFFFFFFFFFFFFFFFFFFFFFFFFFFFF AND PUSH20 0xFFFFFFFFFFFFFFFFFFFFFFFFFFFFFFFFFFFFFFFF AND PUSH4 0x70A08231 CALLER PUSH1 0x40 MLOAD DUP3 PUSH4 0xFFFFFFFF AND PUSH1 0xE0 SHL DUP2 MSTORE PUSH1 0x4 ADD PUSH2 0x125C SWAP2 SWAP1 PUSH2 0x2F06 JUMP JUMPDEST PUSH1 0x20 PUSH1 0x40 MLOAD DUP1 DUP4 SUB DUP2 DUP7 GAS STATICCALL ISZERO DUP1 ISZERO PUSH2 0x1279 JUMPI RETURNDATASIZE PUSH1 0x0 DUP1 RETURNDATACOPY RETURNDATASIZE PUSH1 0x0 REVERT JUMPDEST POP POP POP POP PUSH1 0x40 MLOAD RETURNDATASIZE PUSH1 0x1F NOT PUSH1 0x1F DUP3 ADD AND DUP3 ADD DUP1 PUSH1 0x40 MSTORE POP DUP2 ADD SWAP1 PUSH2 0x129D SWAP2 SWAP1 PUSH2 0x351E JUMP JUMPDEST DUP2 PUSH1 0x6 ADD PUSH1 0x0 DUP3 DUP3 SLOAD PUSH2 0x12B0 SWAP2 SWAP1 PUSH2 0x3671 JUMP JUMPDEST SWAP3 POP POP DUP2 SWAP1 SSTORE POP PUSH2 0x1373 JUMP JUMPDEST PUSH1 0x3 PUSH1 0x0 SWAP1 SLOAD SWAP1 PUSH2 0x100 EXP SWAP1 DIV PUSH20 0xFFFFFFFFFFFFFFFFFFFFFFFFFFFFFFFFFFFFFFFF AND PUSH20 0xFFFFFFFFFFFFFFFFFFFFFFFFFFFFFFFFFFFFFFFF AND PUSH4 0x70A08231 CALLER PUSH1 0x40 MLOAD DUP3 PUSH4 0xFFFFFFFF AND PUSH1 0xE0 SHL DUP2 MSTORE PUSH1 0x4 ADD PUSH2 0x1317 SWAP2 SWAP1 PUSH2 0x2F06 JUMP JUMPDEST PUSH1 0x20 PUSH1 0x40 MLOAD DUP1 DUP4 SUB DUP2 DUP7 GAS STATICCALL ISZERO DUP1 ISZERO PUSH2 0x1334 JUMPI RETURNDATASIZE PUSH1 0x0 DUP1 RETURNDATACOPY RETURNDATASIZE PUSH1 0x0 REVERT JUMPDEST POP POP POP POP PUSH1 0x40 MLOAD RETURNDATASIZE PUSH1 0x1F NOT PUSH1 0x1F DUP3 ADD AND DUP3 ADD DUP1 PUSH1 0x40 MSTORE POP DUP2 ADD SWAP1 PUSH2 0x1358 SWAP2 SWAP1 PUSH2 0x351E JUMP JUMPDEST DUP2 PUSH1 0x7 ADD PUSH1 0x0 DUP3 DUP3 SLOAD PUSH2 0x136B SWAP2 SWAP1 PUSH2 0x3671 JUMP JUMPDEST SWAP3 POP POP DUP2 SWAP1 SSTORE POP JUMPDEST PUSH2 0x184D JUMP JUMPDEST PUSH1 0x5 PUSH1 0x6 DUP2 GT ISZERO PUSH2 0x138C JUMPI PUSH2 0x138B PUSH2 0x3733 JUMP JUMPDEST JUMPDEST DUP2 PUSH1 0x8 ADD PUSH1 0x0 SWAP1 SLOAD SWAP1 PUSH2 0x100 EXP SWAP1 DIV PUSH1 0xFF AND PUSH1 0x6 DUP2 GT ISZERO PUSH2 0x13B0 JUMPI PUSH2 0x13AF PUSH2 0x3733 JUMP JUMPDEST JUMPDEST EQ ISZERO PUSH2 0x1792 JUMPI DUP1 PUSH1 0xC ADD PUSH1 0x4 ADD PUSH1 0x0 CALLER PUSH20 0xFFFFFFFFFFFFFFFFFFFFFFFFFFFFFFFFFFFFFFFF AND PUSH20 0xFFFFFFFFFFFFFFFFFFFFFFFFFFFFFFFFFFFFFFFF AND DUP2 MSTORE PUSH1 0x20 ADD SWAP1 DUP2 MSTORE PUSH1 0x20 ADD PUSH1 0x0 KECCAK256 PUSH1 0x0 ADD PUSH1 0x0 SWAP1 SLOAD SWAP1 PUSH2 0x100 EXP SWAP1 DIV PUSH1 0xFF AND ISZERO PUSH2 0x144B JUMPI PUSH1 0x40 MLOAD PUSH32 0x8C379A000000000000000000000000000000000000000000000000000000000 DUP2 MSTORE PUSH1 0x4 ADD PUSH2 0x1442 SWAP1 PUSH2 0x38A8 JUMP JUMPDEST PUSH1 0x40 MLOAD DUP1 SWAP2 SUB SWAP1 REVERT JUMPDEST DUP1 PUSH1 0x2 ADD SLOAD TIMESTAMP LT PUSH2 0x1491 JUMPI PUSH1 0x40 MLOAD PUSH32 0x8C379A000000000000000000000000000000000000000000000000000000000 DUP2 MSTORE PUSH1 0x4 ADD PUSH2 0x1488 SWAP1 PUSH2 0x3980 JUMP JUMPDEST PUSH1 0x40 MLOAD DUP1 SWAP2 SUB SWAP1 REVERT JUMPDEST PUSH1 0x1 DUP2 PUSH1 0xC ADD PUSH1 0x4 ADD PUSH1 0x0 CALLER PUSH20 0xFFFFFFFFFFFFFFFFFFFFFFFFFFFFFFFFFFFFFFFF AND PUSH20 0xFFFFFFFFFFFFFFFFFFFFFFFFFFFFFFFFFFFFFFFF AND DUP2 MSTORE PUSH1 0x20 ADD SWAP1 DUP2 MSTORE PUSH1 0x20 ADD PUSH1 0x0 KECCAK256 PUSH1 0x0 ADD PUSH1 0x0 PUSH2 0x100 EXP DUP2 SLOAD DUP2 PUSH1 0xFF MUL NOT AND SWAP1 DUP4 ISZERO ISZERO MUL OR SWAP1 SSTORE POP PUSH1 0x0 DUP2 PUSH1 0xB ADD PUSH1 0x0 CALLER PUSH20 0xFFFFFFFFFFFFFFFFFFFFFFFFFFFFFFFFFFFFFFFF AND PUSH20 0xFFFFFFFFFFFFFFFFFFFFFFFFFFFFFFFFFFFFFFFF AND DUP2 MSTORE PUSH1 0x20 ADD SWAP1 DUP2 MSTORE PUSH1 0x20 ADD PUSH1 0x0 KECCAK256 PUSH1 0x1 ADD DUP1 SLOAD SWAP1 POP EQ PUSH2 0x16D4 JUMPI PUSH1 0x0 JUMPDEST DUP2 PUSH1 0xB ADD PUSH1 0x0 CALLER PUSH20 0xFFFFFFFFFFFFFFFFFFFFFFFFFFFFFFFFFFFFFFFF AND PUSH20 0xFFFFFFFFFFFFFFFFFFFFFFFFFFFFFFFFFFFFFFFF AND DUP2 MSTORE PUSH1 0x20 ADD SWAP1 DUP2 MSTORE PUSH1 0x20 ADD PUSH1 0x0 KECCAK256 PUSH1 0x1 ADD DUP1 SLOAD SWAP1 POP DUP2 LT ISZERO PUSH2 0x16D2 JUMPI PUSH1 0x0 DUP3 PUSH1 0xB ADD PUSH1 0x0 CALLER PUSH20 0xFFFFFFFFFFFFFFFFFFFFFFFFFFFFFFFFFFFFFFFF AND PUSH20 0xFFFFFFFFFFFFFFFFFFFFFFFFFFFFFFFFFFFFFFFF AND DUP2 MSTORE PUSH1 0x20 ADD SWAP1 DUP2 MSTORE PUSH1 0x20 ADD PUSH1 0x0 KECCAK256 PUSH1 0x1 ADD DUP3 DUP2 SLOAD DUP2 LT PUSH2 0x15EA JUMPI PUSH2 0x15E9 PUSH2 0x3420 JUMP JUMPDEST JUMPDEST SWAP1 PUSH1 0x0 MSTORE PUSH1 0x20 PUSH1 0x0 KECCAK256 ADD PUSH1 0x0 SWAP1 SLOAD SWAP1 PUSH2 0x100 EXP SWAP1 DIV PUSH20 0xFFFFFFFFFFFFFFFFFFFFFFFFFFFFFFFFFFFFFFFF AND SWAP1 POP PUSH1 0x3 PUSH1 0x0 SWAP1 SLOAD SWAP1 PUSH2 0x100 EXP SWAP1 DIV PUSH20 0xFFFFFFFFFFFFFFFFFFFFFFFFFFFFFFFFFFFFFFFF AND PUSH20 0xFFFFFFFFFFFFFFFFFFFFFFFFFFFFFFFFFFFFFFFF AND PUSH4 0x70A08231 DUP3 PUSH1 0x40 MLOAD DUP3 PUSH4 0xFFFFFFFF AND PUSH1 0xE0 SHL DUP2 MSTORE PUSH1 0x4 ADD PUSH2 0x1672 SWAP2 SWAP1 PUSH2 0x2F06 JUMP JUMPDEST PUSH1 0x20 PUSH1 0x40 MLOAD DUP1 DUP4 SUB DUP2 DUP7 GAS STATICCALL ISZERO DUP1 ISZERO PUSH2 0x168F JUMPI RETURNDATASIZE PUSH1 0x0 DUP1 RETURNDATACOPY RETURNDATASIZE PUSH1 0x0 REVERT JUMPDEST POP POP POP POP PUSH1 0x40 MLOAD RETURNDATASIZE PUSH1 0x1F NOT PUSH1 0x1F DUP3 ADD AND DUP3 ADD DUP1 PUSH1 0x40 MSTORE POP DUP2 ADD SWAP1 PUSH2 0x16B3 SWAP2 SWAP1 PUSH2 0x351E JUMP JUMPDEST DUP5 PUSH2 0x16BE SWAP2 SWAP1 PUSH2 0x3671 JUMP JUMPDEST SWAP4 POP POP DUP1 PUSH2 0x16CB SWAP1 PUSH2 0x347E JUMP JUMPDEST SWAP1 POP PUSH2 0x1543 JUMP JUMPDEST POP JUMPDEST PUSH1 0x3 PUSH1 0x0 SWAP1 SLOAD SWAP1 PUSH2 0x100 EXP SWAP1 DIV PUSH20 0xFFFFFFFFFFFFFFFFFFFFFFFFFFFFFFFFFFFFFFFF AND PUSH20 0xFFFFFFFFFFFFFFFFFFFFFFFFFFFFFFFFFFFFFFFF AND PUSH4 0x70A08231 CALLER PUSH1 0x40 MLOAD DUP3 PUSH4 0xFFFFFFFF AND PUSH1 0xE0 SHL DUP2 MSTORE PUSH1 0x4 ADD PUSH2 0x172F SWAP2 SWAP1 PUSH2 0x2F06 JUMP JUMPDEST PUSH1 0x20 PUSH1 0x40 MLOAD DUP1 DUP4 SUB DUP2 DUP7 GAS STATICCALL ISZERO DUP1 ISZERO PUSH2 0x174C JUMPI RETURNDATASIZE PUSH1 0x0 DUP1 RETURNDATACOPY RETURNDATASIZE PUSH1 0x0 REVERT JUMPDEST POP POP POP POP PUSH1 0x40 MLOAD RETURNDATASIZE PUSH1 0x1F NOT PUSH1 0x1F DUP3 ADD AND DUP3 ADD DUP1 PUSH1 0x40 MSTORE POP DUP2 ADD SWAP1 PUSH2 0x1770 SWAP2 SWAP1 PUSH2 0x351E JUMP JUMPDEST DUP2 PUSH1 0xC ADD PUSH1 0x2 ADD PUSH1 0x0 DUP3 DUP3 SLOAD PUSH2 0x1786 SWAP2 SWAP1 PUSH2 0x3671 JUMP JUMPDEST SWAP3 POP POP DUP2 SWAP1 SSTORE POP PUSH2 0x184C JUMP JUMPDEST PUSH1 0x3 PUSH1 0x0 SWAP1 SLOAD SWAP1 PUSH2 0x100 EXP SWAP1 DIV PUSH20 0xFFFFFFFFFFFFFFFFFFFFFFFFFFFFFFFFFFFFFFFF AND PUSH20 0xFFFFFFFFFFFFFFFFFFFFFFFFFFFFFFFFFFFFFFFF AND PUSH4 0x70A08231 CALLER PUSH1 0x40 MLOAD DUP3 PUSH4 0xFFFFFFFF AND PUSH1 0xE0 SHL DUP2 MSTORE PUSH1 0x4 ADD PUSH2 0x17ED SWAP2 SWAP1 PUSH2 0x2F06 JUMP JUMPDEST PUSH1 0x20 PUSH1 0x40 MLOAD DUP1 DUP4 SUB DUP2 DUP7 GAS STATICCALL ISZERO DUP1 ISZERO PUSH2 0x180A JUMPI RETURNDATASIZE PUSH1 0x0 DUP1 RETURNDATACOPY RETURNDATASIZE PUSH1 0x0 REVERT JUMPDEST POP POP POP POP PUSH1 0x40 MLOAD RETURNDATASIZE PUSH1 0x1F NOT PUSH1 0x1F DUP3 ADD AND DUP3 ADD DUP1 PUSH1 0x40 MSTORE POP DUP2 ADD SWAP1 PUSH2 0x182E SWAP2 SWAP1 PUSH2 0x351E JUMP JUMPDEST DUP2 PUSH1 0xC ADD PUSH1 0x3 ADD PUSH1 0x0 DUP3 DUP3 SLOAD PUSH2 0x1844 SWAP2 SWAP1 PUSH2 0x3671 JUMP JUMPDEST SWAP3 POP POP DUP2 SWAP1 SSTORE POP JUMPDEST JUMPDEST DUP4 PUSH32 0x72869AFC3552DF414602B428F5E96B4EB3FAB540271192C4F31EB3ADAF5FAF1E DUP5 PUSH1 0x40 MLOAD PUSH2 0x187D SWAP2 SWAP1 PUSH2 0x2C2B JUMP JUMPDEST PUSH1 0x40 MLOAD DUP1 SWAP2 SUB SWAP1 LOG2 POP POP POP POP JUMP JUMPDEST PUSH1 0x1 SLOAD DUP2 JUMP JUMPDEST PUSH1 0x0 DUP1 PUSH1 0x0 DUP1 PUSH1 0x0 DUP1 PUSH1 0x7 PUSH1 0x0 DUP9 DUP2 MSTORE PUSH1 0x20 ADD SWAP1 DUP2 MSTORE PUSH1 0x20 ADD PUSH1 0x0 KECCAK256 SWAP1 POP DUP1 PUSH1 0x6 ADD SLOAD SWAP6 POP DUP1 PUSH1 0x7 ADD SLOAD SWAP5 POP DUP1 PUSH1 0xC ADD PUSH1 0x2 ADD SLOAD SWAP4 POP DUP1 PUSH1 0xC ADD PUSH1 0x3 ADD SLOAD SWAP3 POP DUP1 PUSH1 0x2 ADD SLOAD SWAP2 POP POP SWAP2 SWAP4 SWAP6 SWAP1 SWAP3 SWAP5 POP JUMP JUMPDEST PUSH1 0x0 SLOAD DUP2 JUMP JUMPDEST PUSH1 0x0 DUP1 PUSH1 0x7 PUSH1 0x0 DUP5 DUP2 MSTORE PUSH1 0x20 ADD SWAP1 DUP2 MSTORE PUSH1 0x20 ADD PUSH1 0x0 KECCAK256 SWAP1 POP DUP1 PUSH1 0x8 ADD PUSH1 0x0 SWAP1 SLOAD SWAP1 PUSH2 0x100 EXP SWAP1 DIV PUSH1 0xFF AND PUSH1 0x6 DUP2 GT ISZERO PUSH2 0x1924 JUMPI PUSH2 0x1923 PUSH2 0x3733 JUMP JUMPDEST JUMPDEST SWAP2 POP POP SWAP2 SWAP1 POP JUMP JUMPDEST PUSH2 0x1934 PUSH2 0x26BF JUMP JUMPDEST PUSH2 0x1973 JUMPI PUSH1 0x40 MLOAD PUSH32 0x8C379A000000000000000000000000000000000000000000000000000000000 DUP2 MSTORE PUSH1 0x4 ADD PUSH2 0x196A SWAP1 PUSH2 0x39EC JUMP JUMPDEST PUSH1 0x40 MLOAD DUP1 SWAP2 SUB SWAP1 REVERT JUMPDEST PUSH1 0x0 PUSH1 0x8 PUSH1 0x0 PUSH1 0x6 SLOAD DUP2 MSTORE PUSH1 0x20 ADD SWAP1 DUP2 MSTORE PUSH1 0x20 ADD PUSH1 0x0 KECCAK256 SWAP1 POP PUSH1 0x6 SLOAD DUP2 PUSH1 0x0 ADD DUP2 SWAP1 SSTORE POP DUP3 DUP2 PUSH1 0x2 ADD PUSH1 0x0 PUSH2 0x100 EXP DUP2 SLOAD DUP2 PUSH20 0xFFFFFFFFFFFFFFFFFFFFFFFFFFFFFFFFFFFFFFFF MUL NOT AND SWAP1 DUP4 PUSH20 0xFFFFFFFFFFFFFFFFFFFFFFFFFFFFFFFFFFFFFFFF AND MUL OR SWAP1 SSTORE POP DUP2 DUP2 PUSH1 0x3 ADD SWAP1 DUP1 MLOAD SWAP1 PUSH1 0x20 ADD SWAP1 PUSH2 0x19F2 SWAP3 SWAP2 SWAP1 PUSH2 0x2ACC JUMP JUMPDEST POP DUP4 DUP2 PUSH1 0x1 ADD SWAP1 DUP1 MLOAD SWAP1 PUSH1 0x20 ADD SWAP1 PUSH2 0x1A0B SWAP3 SWAP2 SWAP1 PUSH2 0x2ACC JUMP JUMPDEST POP PUSH1 0x6 PUSH1 0x0 DUP2 SLOAD DUP1 SWAP3 SWAP2 SWAP1 PUSH2 0x1A1F SWAP1 PUSH2 0x347E JUMP JUMPDEST SWAP2 SWAP1 POP SSTORE POP PUSH32 0x291FB4C9EC38B653E778AAD63D42CE4710DA5B91C49A033BA04963DD409300EB DUP5 DUP5 DUP5 PUSH1 0x40 MLOAD PUSH2 0x1A57 SWAP4 SWAP3 SWAP2 SWAP1 PUSH2 0x3A0C JUMP JUMPDEST PUSH1 0x40 MLOAD DUP1 SWAP2 SUB SWAP1 LOG1 POP POP POP POP JUMP JUMPDEST PUSH1 0x0 DUP1 PUSH1 0x0 PUSH1 0x7 PUSH1 0x0 DUP6 DUP2 MSTORE PUSH1 0x20 ADD SWAP1 DUP2 MSTORE PUSH1 0x20 ADD PUSH1 0x0 KECCAK256 SWAP1 POP TIMESTAMP SWAP3 POP DUP1 PUSH1 0x2 ADD SLOAD SWAP2 POP POP SWAP2 POP SWAP2 JUMP JUMPDEST PUSH1 0x2 PUSH1 0x0 SWAP1 SLOAD SWAP1 PUSH2 0x100 EXP SWAP1 DIV PUSH20 0xFFFFFFFFFFFFFFFFFFFFFFFFFFFFFFFFFFFFFFFF AND DUP2 JUMP JUMPDEST PUSH1 0x0 DUP1 PUSH1 0x3 PUSH1 0x0 SWAP1 SLOAD SWAP1 PUSH2 0x100 EXP SWAP1 DIV PUSH20 0xFFFFFFFFFFFFFFFFFFFFFFFFFFFFFFFFFFFFFFFF AND PUSH20 0xFFFFFFFFFFFFFFFFFFFFFFFFFFFFFFFFFFFFFFFF AND PUSH4 0x18160DDD PUSH1 0x40 MLOAD DUP2 PUSH4 0xFFFFFFFF AND PUSH1 0xE0 SHL DUP2 MSTORE PUSH1 0x4 ADD PUSH1 0x20 PUSH1 0x40 MLOAD DUP1 DUP4 SUB DUP2 DUP7 GAS STATICCALL ISZERO DUP1 ISZERO PUSH2 0x1B25 JUMPI RETURNDATASIZE PUSH1 0x0 DUP1 RETURNDATACOPY RETURNDATASIZE PUSH1 0x0 REVERT JUMPDEST POP POP POP POP PUSH1 0x40 MLOAD RETURNDATASIZE PUSH1 0x1F NOT PUSH1 0x1F DUP3 ADD AND DUP3 ADD DUP1 PUSH1 0x40 MSTORE POP DUP2 ADD SWAP1 PUSH2 0x1B49 SWAP2 SWAP1 PUSH2 0x351E JUMP JUMPDEST EQ ISZERO PUSH2 0x1B8A JUMPI PUSH1 0x40 MLOAD PUSH32 0x8C379A000000000000000000000000000000000000000000000000000000000 DUP2 MSTORE PUSH1 0x4 ADD PUSH2 0x1B81 SWAP1 PUSH2 0x3A9D JUMP JUMPDEST PUSH1 0x40 MLOAD DUP1 SWAP2 SUB SWAP1 REVERT JUMPDEST PUSH1 0x0 PUSH1 0x64 PUSH1 0xA SLOAD PUSH1 0x3 PUSH1 0x0 SWAP1 SLOAD SWAP1 PUSH2 0x100 EXP SWAP1 DIV PUSH20 0xFFFFFFFFFFFFFFFFFFFFFFFFFFFFFFFFFFFFFFFF AND PUSH20 0xFFFFFFFFFFFFFFFFFFFFFFFFFFFFFFFFFFFFFFFF AND PUSH4 0x18160DDD PUSH1 0x40 MLOAD DUP2 PUSH4 0xFFFFFFFF AND PUSH1 0xE0 SHL DUP2 MSTORE PUSH1 0x4 ADD PUSH1 0x20 PUSH1 0x40 MLOAD DUP1 DUP4 SUB DUP2 DUP7 GAS STATICCALL ISZERO DUP1 ISZERO PUSH2 0x1BFE JUMPI RETURNDATASIZE PUSH1 0x0 DUP1 RETURNDATACOPY RETURNDATASIZE PUSH1 0x0 REVERT JUMPDEST POP POP POP POP PUSH1 0x40 MLOAD RETURNDATASIZE PUSH1 0x1F NOT PUSH1 0x1F DUP3 ADD AND DUP3 ADD DUP1 PUSH1 0x40 MSTORE POP DUP2 ADD SWAP1 PUSH2 0x1C22 SWAP2 SWAP1 PUSH2 0x351E JUMP JUMPDEST PUSH2 0x1C2C SWAP2 SWAP1 PUSH2 0x354B JUMP JUMPDEST PUSH2 0x1C36 SWAP2 SWAP1 PUSH2 0x35D4 JUMP JUMPDEST SWAP1 POP DUP1 PUSH1 0x3 PUSH1 0x0 SWAP1 SLOAD SWAP1 PUSH2 0x100 EXP SWAP1 DIV PUSH20 0xFFFFFFFFFFFFFFFFFFFFFFFFFFFFFFFFFFFFFFFF AND PUSH20 0xFFFFFFFFFFFFFFFFFFFFFFFFFFFFFFFFFFFFFFFF AND PUSH4 0x70A08231 CALLER PUSH1 0x40 MLOAD DUP3 PUSH4 0xFFFFFFFF AND PUSH1 0xE0 SHL DUP2 MSTORE PUSH1 0x4 ADD PUSH2 0x1C94 SWAP2 SWAP1 PUSH2 0x2F06 JUMP JUMPDEST PUSH1 0x20 PUSH1 0x40 MLOAD DUP1 DUP4 SUB DUP2 DUP7 GAS STATICCALL ISZERO DUP1 ISZERO PUSH2 0x1CB1 JUMPI RETURNDATASIZE PUSH1 0x0 DUP1 RETURNDATACOPY RETURNDATASIZE PUSH1 0x0 REVERT JUMPDEST POP POP POP POP PUSH1 0x40 MLOAD RETURNDATASIZE PUSH1 0x1F NOT PUSH1 0x1F DUP3 ADD AND DUP3 ADD DUP1 PUSH1 0x40 MSTORE POP DUP2 ADD SWAP1 PUSH2 0x1CD5 SWAP2 SWAP1 PUSH2 0x351E JUMP JUMPDEST LT ISZERO PUSH2 0x1D16 JUMPI PUSH1 0x40 MLOAD PUSH32 0x8C379A000000000000000000000000000000000000000000000000000000000 DUP2 MSTORE PUSH1 0x4 ADD PUSH2 0x1D0D SWAP1 PUSH2 0x3651 JUMP JUMPDEST PUSH1 0x40 MLOAD DUP1 SWAP2 SUB SWAP1 REVERT JUMPDEST PUSH1 0x4 PUSH1 0x0 DUP2 SLOAD DUP1 SWAP3 SWAP2 SWAP1 PUSH2 0x1D29 SWAP1 PUSH2 0x347E JUMP JUMPDEST SWAP2 SWAP1 POP SSTORE POP PUSH1 0x0 PUSH1 0x7 PUSH1 0x0 PUSH1 0x4 SLOAD DUP2 MSTORE PUSH1 0x20 ADD SWAP1 DUP2 MSTORE PUSH1 0x20 ADD PUSH1 0x0 KECCAK256 SWAP1 POP DUP2 DUP2 PUSH1 0x0 ADD DUP2 SWAP1 SSTORE POP DUP7 DUP2 PUSH1 0x3 ADD SWAP1 DUP1 MLOAD SWAP1 PUSH1 0x20 ADD SWAP1 PUSH2 0x1D68 SWAP3 SWAP2 SWAP1 PUSH2 0x2ACC JUMP JUMPDEST POP PUSH1 0x4 SLOAD DUP2 PUSH1 0x1 ADD DUP2 SWAP1 SSTORE POP PUSH1 0x0 SLOAD TIMESTAMP PUSH2 0x1D82 SWAP2 SWAP1 PUSH2 0x3671 JUMP JUMPDEST DUP2 PUSH1 0x2 ADD DUP2 SWAP1 SSTORE POP CALLER DUP2 PUSH1 0x4 ADD PUSH1 0x0 PUSH2 0x100 EXP DUP2 SLOAD DUP2 PUSH20 0xFFFFFFFFFFFFFFFFFFFFFFFFFFFFFFFFFFFFFFFF MUL NOT AND SWAP1 DUP4 PUSH20 0xFFFFFFFFFFFFFFFFFFFFFFFFFFFFFFFFFFFFFFFF AND MUL OR SWAP1 SSTORE POP DUP6 DUP2 PUSH1 0x5 ADD SWAP1 DUP1 MLOAD SWAP1 PUSH1 0x20 ADD SWAP1 PUSH2 0x1DE5 SWAP3 SWAP2 SWAP1 PUSH2 0x2ACC JUMP JUMPDEST POP PUSH1 0x1 DUP2 PUSH1 0x8 ADD PUSH1 0x0 PUSH2 0x100 EXP DUP2 SLOAD DUP2 PUSH1 0xFF MUL NOT AND SWAP1 DUP4 PUSH1 0x6 DUP2 GT ISZERO PUSH2 0x1E0E JUMPI PUSH2 0x1E0D PUSH2 0x3733 JUMP JUMPDEST JUMPDEST MUL OR SWAP1 SSTORE POP DUP5 DUP2 PUSH1 0x9 ADD DUP2 SWAP1 SSTORE POP DUP4 DUP2 PUSH1 0xA ADD DUP2 SWAP1 SSTORE POP DUP6 PUSH1 0x40 MLOAD PUSH2 0x1E33 SWAP2 SWAP1 PUSH2 0x3AF9 JUMP JUMPDEST PUSH1 0x40 MLOAD DUP1 SWAP2 SUB SWAP1 KECCAK256 DUP8 PUSH1 0x40 MLOAD PUSH2 0x1E49 SWAP2 SWAP1 PUSH2 0x3AF9 JUMP JUMPDEST PUSH1 0x40 MLOAD DUP1 SWAP2 SUB SWAP1 KECCAK256 PUSH1 0x4 SLOAD PUSH32 0x2042799F2E1D3FCFC7C7E9DD101B3430C99AA621240EA8FDEAC79AD1C973888E DUP9 DUP9 PUSH1 0x40 MLOAD PUSH2 0x1E85 SWAP3 SWAP2 SWAP1 PUSH2 0x32B7 JUMP JUMPDEST PUSH1 0x40 MLOAD DUP1 SWAP2 SUB SWAP1 LOG4 PUSH1 0x4 SLOAD SWAP3 POP POP POP SWAP5 SWAP4 POP POP POP POP JUMP JUMPDEST PUSH1 0x0 PUSH1 0x7 PUSH1 0x0 DUP5 DUP2 MSTORE PUSH1 0x20 ADD SWAP1 DUP2 MSTORE PUSH1 0x20 ADD PUSH1 0x0 KECCAK256 SWAP1 POP DUP1 PUSH1 0xB ADD PUSH1 0x0 CALLER PUSH20 0xFFFFFFFFFFFFFFFFFFFFFFFFFFFFFFFFFFFFFFFF AND PUSH20 0xFFFFFFFFFFFFFFFFFFFFFFFFFFFFFFFFFFFFFFFF AND DUP2 MSTORE PUSH1 0x20 ADD SWAP1 DUP2 MSTORE PUSH1 0x20 ADD PUSH1 0x0 KECCAK256 PUSH1 0x0 ADD PUSH1 0x0 SWAP1 SLOAD SWAP1 PUSH2 0x100 EXP SWAP1 DIV PUSH1 0xFF AND ISZERO PUSH2 0x1F45 JUMPI PUSH1 0x40 MLOAD PUSH32 0x8C379A000000000000000000000000000000000000000000000000000000000 DUP2 MSTORE PUSH1 0x4 ADD PUSH2 0x1F3C SWAP1 PUSH2 0x3B5C JUMP JUMPDEST PUSH1 0x40 MLOAD DUP1 SWAP2 SUB SWAP1 REVERT JUMPDEST CALLER PUSH20 0xFFFFFFFFFFFFFFFFFFFFFFFFFFFFFFFFFFFFFFFF AND DUP3 PUSH20 0xFFFFFFFFFFFFFFFFFFFFFFFFFFFFFFFFFFFFFFFF AND EQ ISZERO PUSH2 0x1FB4 JUMPI PUSH1 0x40 MLOAD PUSH32 0x8C379A000000000000000000000000000000000000000000000000000000000 DUP2 MSTORE PUSH1 0x4 ADD PUSH2 0x1FAB SWAP1 PUSH2 0x3BC8 JUMP JUMPDEST PUSH1 0x40 MLOAD DUP1 SWAP2 SUB SWAP1 REVERT JUMPDEST PUSH1 0x0 PUSH1 0x3 PUSH1 0x0 SWAP1 SLOAD SWAP1 PUSH2 0x100 EXP SWAP1 DIV PUSH20 0xFFFFFFFFFFFFFFFFFFFFFFFFFFFFFFFFFFFFFFFF AND PUSH20 0xFFFFFFFFFFFFFFFFFFFFFFFFFFFFFFFFFFFFFFFF AND PUSH4 0x70A08231 CALLER PUSH1 0x40 MLOAD DUP3 PUSH4 0xFFFFFFFF AND PUSH1 0xE0 SHL DUP2 MSTORE PUSH1 0x4 ADD PUSH2 0x2011 SWAP2 SWAP1 PUSH2 0x2F06 JUMP JUMPDEST PUSH1 0x20 PUSH1 0x40 MLOAD DUP1 DUP4 SUB DUP2 DUP7 GAS STATICCALL ISZERO DUP1 ISZERO PUSH2 0x202E JUMPI RETURNDATASIZE PUSH1 0x0 DUP1 RETURNDATACOPY RETURNDATASIZE PUSH1 0x0 REVERT JUMPDEST POP POP POP POP PUSH1 0x40 MLOAD RETURNDATASIZE PUSH1 0x1F NOT PUSH1 0x1F DUP3 ADD AND DUP3 ADD DUP1 PUSH1 0x40 MSTORE POP DUP2 ADD SWAP1 PUSH2 0x2052 SWAP2 SWAP1 PUSH2 0x351E JUMP JUMPDEST GT PUSH2 0x2092 JUMPI PUSH1 0x40 MLOAD PUSH32 0x8C379A000000000000000000000000000000000000000000000000000000000 DUP2 MSTORE PUSH1 0x4 ADD PUSH2 0x2089 SWAP1 PUSH2 0x3C34 JUMP JUMPDEST PUSH1 0x40 MLOAD DUP1 SWAP2 SUB SWAP1 REVERT JUMPDEST DUP1 PUSH1 0xB ADD PUSH1 0x0 DUP4 PUSH20 0xFFFFFFFFFFFFFFFFFFFFFFFFFFFFFFFFFFFFFFFF AND PUSH20 0xFFFFFFFFFFFFFFFFFFFFFFFFFFFFFFFFFFFFFFFF AND DUP2 MSTORE PUSH1 0x20 ADD SWAP1 DUP2 MSTORE PUSH1 0x20 ADD PUSH1 0x0 KECCAK256 PUSH1 0x1 ADD CALLER SWAP1 DUP1 PUSH1 0x1 DUP2 SLOAD ADD DUP1 DUP3 SSTORE DUP1 SWAP2 POP POP PUSH1 0x1 SWAP1 SUB SWAP1 PUSH1 0x0 MSTORE PUSH1 0x20 PUSH1 0x0 KECCAK256 ADD PUSH1 0x0 SWAP1 SWAP2 SWAP1 SWAP2 SWAP1 SWAP2 PUSH2 0x100 EXP DUP2 SLOAD DUP2 PUSH20 0xFFFFFFFFFFFFFFFFFFFFFFFFFFFFFFFFFFFFFFFF MUL NOT AND SWAP1 DUP4 PUSH20 0xFFFFFFFFFFFFFFFFFFFFFFFFFFFFFFFFFFFFFFFF AND MUL OR SWAP1 SSTORE POP PUSH1 0x1 DUP2 PUSH1 0xB ADD PUSH1 0x0 CALLER PUSH20 0xFFFFFFFFFFFFFFFFFFFFFFFFFFFFFFFFFFFFFFFF AND PUSH20 0xFFFFFFFFFFFFFFFFFFFFFFFFFFFFFFFFFFFFFFFF AND DUP2 MSTORE PUSH1 0x20 ADD SWAP1 DUP2 MSTORE PUSH1 0x20 ADD PUSH1 0x0 KECCAK256 PUSH1 0x0 ADD PUSH1 0x0 PUSH2 0x100 EXP DUP2 SLOAD DUP2 PUSH1 0xFF MUL NOT AND SWAP1 DUP4 ISZERO ISZERO MUL OR SWAP1 SSTORE POP DUP1 PUSH1 0xC ADD PUSH1 0x4 ADD PUSH1 0x0 DUP4 PUSH20 0xFFFFFFFFFFFFFFFFFFFFFFFFFFFFFFFFFFFFFFFF AND PUSH20 0xFFFFFFFFFFFFFFFFFFFFFFFFFFFFFFFFFFFFFFFF AND DUP2 MSTORE PUSH1 0x20 ADD SWAP1 DUP2 MSTORE PUSH1 0x20 ADD PUSH1 0x0 KECCAK256 PUSH1 0x1 ADD CALLER SWAP1 DUP1 PUSH1 0x1 DUP2 SLOAD ADD DUP1 DUP3 SSTORE DUP1 SWAP2 POP POP PUSH1 0x1 SWAP1 SUB SWAP1 PUSH1 0x0 MSTORE PUSH1 0x20 PUSH1 0x0 KECCAK256 ADD PUSH1 0x0 SWAP1 SWAP2 SWAP1 SWAP2 SWAP1 SWAP2 PUSH2 0x100 EXP DUP2 SLOAD DUP2 PUSH20 0xFFFFFFFFFFFFFFFFFFFFFFFFFFFFFFFFFFFFFFFF MUL NOT AND SWAP1 DUP4 PUSH20 0xFFFFFFFFFFFFFFFFFFFFFFFFFFFFFFFFFFFFFFFF AND MUL OR SWAP1 SSTORE POP PUSH1 0x1 DUP2 PUSH1 0xC ADD PUSH1 0x4 ADD PUSH1 0x0 CALLER PUSH20 0xFFFFFFFFFFFFFFFFFFFFFFFFFFFFFFFFFFFFFFFF AND PUSH20 0xFFFFFFFFFFFFFFFFFFFFFFFFFFFFFFFFFFFFFFFF AND DUP2 MSTORE PUSH1 0x20 ADD SWAP1 DUP2 MSTORE PUSH1 0x20 ADD PUSH1 0x0 KECCAK256 PUSH1 0x0 ADD PUSH1 0x0 PUSH2 0x100 EXP DUP2 SLOAD DUP2 PUSH1 0xFF MUL NOT AND SWAP1 DUP4 ISZERO ISZERO MUL OR SWAP1 SSTORE POP DUP3 PUSH32 0xA9860E62EB02A47E1D5D5253A79D90BC96CD33C299D874F5B7710D0A61B63CCC DUP4 PUSH1 0x40 MLOAD PUSH2 0x22CC SWAP2 SWAP1 PUSH2 0x2F06 JUMP JUMPDEST PUSH1 0x40 MLOAD DUP1 SWAP2 SUB SWAP1 LOG2 POP POP POP JUMP JUMPDEST PUSH1 0x0 PUSH1 0x7 PUSH1 0x0 DUP4 DUP2 MSTORE PUSH1 0x20 ADD SWAP1 DUP2 MSTORE PUSH1 0x20 ADD PUSH1 0x0 KECCAK256 SWAP1 POP PUSH1 0x9 PUSH1 0x0 DUP4 DUP2 MSTORE PUSH1 0x20 ADD SWAP1 DUP2 MSTORE PUSH1 0x20 ADD PUSH1 0x0 KECCAK256 PUSH1 0x0 SWAP1 SLOAD SWAP1 PUSH2 0x100 EXP SWAP1 DIV PUSH1 0xFF AND ISZERO PUSH2 0x2351 JUMPI PUSH1 0x40 MLOAD PUSH32 0x8C379A000000000000000000000000000000000000000000000000000000000 DUP2 MSTORE PUSH1 0x4 ADD PUSH2 0x2348 SWAP1 PUSH2 0x3CA0 JUMP JUMPDEST PUSH1 0x40 MLOAD DUP1 SWAP2 SUB SWAP1 REVERT JUMPDEST PUSH1 0x0 PUSH1 0x6 DUP2 GT ISZERO PUSH2 0x2365 JUMPI PUSH2 0x2364 PUSH2 0x3733 JUMP JUMPDEST JUMPDEST DUP2 PUSH1 0x8 ADD PUSH1 0x0 SWAP1 SLOAD SWAP1 PUSH2 0x100 EXP SWAP1 DIV PUSH1 0xFF AND PUSH1 0x6 DUP2 GT ISZERO PUSH2 0x2389 JUMPI PUSH2 0x2388 PUSH2 0x3733 JUMP JUMPDEST JUMPDEST EQ ISZERO PUSH2 0x23CA JUMPI PUSH1 0x40 MLOAD PUSH32 0x8C379A000000000000000000000000000000000000000000000000000000000 DUP2 MSTORE PUSH1 0x4 ADD PUSH2 0x23C1 SWAP1 PUSH2 0x383C JUMP JUMPDEST PUSH1 0x40 MLOAD DUP1 SWAP2 SUB SWAP1 REVERT JUMPDEST PUSH1 0x1 PUSH1 0x6 DUP2 GT ISZERO PUSH2 0x23DE JUMPI PUSH2 0x23DD PUSH2 0x3733 JUMP JUMPDEST JUMPDEST DUP2 PUSH1 0x8 ADD PUSH1 0x0 SWAP1 SLOAD SWAP1 PUSH2 0x100 EXP SWAP1 DIV PUSH1 0xFF AND PUSH1 0x6 DUP2 GT ISZERO PUSH2 0x2402 JUMPI PUSH2 0x2401 PUSH2 0x3733 JUMP JUMPDEST JUMPDEST EQ ISZERO PUSH2 0x2579 JUMPI DUP1 PUSH1 0x2 ADD SLOAD TIMESTAMP GT PUSH2 0x244E JUMPI PUSH1 0x40 MLOAD PUSH32 0x8C379A000000000000000000000000000000000000000000000000000000000 DUP2 MSTORE PUSH1 0x4 ADD PUSH2 0x2445 SWAP1 PUSH2 0x3713 JUMP JUMPDEST PUSH1 0x40 MLOAD DUP1 SWAP2 SUB SWAP1 REVERT JUMPDEST PUSH2 0x3E8 PUSH2 0x12C DUP3 PUSH1 0x0 ADD SLOAD PUSH2 0x2463 SWAP2 SWAP1 PUSH2 0x354B JUMP JUMPDEST PUSH2 0x246D SWAP2 SWAP1 PUSH2 0x35D4 JUMP JUMPDEST DUP2 PUSH1 0x6 ADD SLOAD DUP3 PUSH1 0x7 ADD SLOAD PUSH2 0x2481 SWAP2 SWAP1 PUSH2 0x3671 JUMP JUMPDEST LT ISZERO PUSH2 0x24C2 JUMPI PUSH1 0x40 MLOAD PUSH32 0x8C379A000000000000000000000000000000000000000000000000000000000 DUP2 MSTORE PUSH1 0x4 ADD PUSH2 0x24B9 SWAP1 PUSH2 0x3D0C JUMP JUMPDEST PUSH1 0x40 MLOAD DUP1 SWAP2 SUB SWAP1 REVERT JUMPDEST PUSH1 0x3C DUP2 PUSH1 0x6 ADD SLOAD DUP3 PUSH1 0x7 ADD SLOAD PUSH2 0x24D8 SWAP2 SWAP1 PUSH2 0x3671 JUMP JUMPDEST PUSH1 0x64 DUP4 PUSH1 0x6 ADD SLOAD PUSH2 0x24E9 SWAP2 SWAP1 PUSH2 0x354B JUMP JUMPDEST PUSH2 0x24F3 SWAP2 SWAP1 PUSH2 0x35D4 JUMP JUMPDEST LT ISZERO PUSH2 0x2534 JUMPI PUSH1 0x40 MLOAD PUSH32 0x8C379A000000000000000000000000000000000000000000000000000000000 DUP2 MSTORE PUSH1 0x4 ADD PUSH2 0x252B SWAP1 PUSH2 0x3D9E JUMP JUMPDEST PUSH1 0x40 MLOAD DUP1 SWAP2 SUB SWAP1 REVERT JUMPDEST PUSH1 0x2 DUP2 PUSH1 0x8 ADD PUSH1 0x0 PUSH2 0x100 EXP DUP2 SLOAD DUP2 PUSH1 0xFF MUL NOT AND SWAP1 DUP4 PUSH1 0x6 DUP2 GT ISZERO PUSH2 0x255C JUMPI PUSH2 0x255B PUSH2 0x3733 JUMP JUMPDEST JUMPDEST MUL OR SWAP1 SSTORE POP PUSH2 0x2574 DUP3 DUP3 PUSH1 0x9 ADD SLOAD DUP4 PUSH1 0xA ADD SLOAD PUSH2 0x2762 JUMP JUMPDEST PUSH2 0x268E JUMP JUMPDEST PUSH1 0x5 PUSH1 0x6 DUP2 GT ISZERO PUSH2 0x258D JUMPI PUSH2 0x258C PUSH2 0x3733 JUMP JUMPDEST JUMPDEST DUP2 PUSH1 0x8 ADD PUSH1 0x0 SWAP1 SLOAD SWAP1 PUSH2 0x100 EXP SWAP1 DIV PUSH1 0xFF AND PUSH1 0x6 DUP2 GT ISZERO PUSH2 0x25B1 JUMPI PUSH2 0x25B0 PUSH2 0x3733 JUMP JUMPDEST JUMPDEST EQ ISZERO PUSH2 0x268D JUMPI DUP1 PUSH1 0x2 ADD SLOAD TIMESTAMP LT ISZERO PUSH2 0x25FE JUMPI PUSH1 0x40 MLOAD PUSH32 0x8C379A000000000000000000000000000000000000000000000000000000000 DUP2 MSTORE PUSH1 0x4 ADD PUSH2 0x25F5 SWAP1 PUSH2 0x3713 JUMP JUMPDEST PUSH1 0x40 MLOAD DUP1 SWAP2 SUB SWAP1 REVERT JUMPDEST DUP1 PUSH1 0x6 ADD SLOAD DUP2 PUSH1 0xC ADD PUSH1 0x2 ADD SLOAD LT ISZERO PUSH2 0x264C JUMPI PUSH1 0x40 MLOAD PUSH32 0x8C379A000000000000000000000000000000000000000000000000000000000 DUP2 MSTORE PUSH1 0x4 ADD PUSH2 0x2643 SWAP1 PUSH2 0x3E30 JUMP JUMPDEST PUSH1 0x40 MLOAD DUP1 SWAP2 SUB SWAP1 REVERT JUMPDEST PUSH1 0x2 DUP2 PUSH1 0x8 ADD PUSH1 0x0 PUSH2 0x100 EXP DUP2 SLOAD DUP2 PUSH1 0xFF MUL NOT AND SWAP1 DUP4 PUSH1 0x6 DUP2 GT ISZERO PUSH2 0x2674 JUMPI PUSH2 0x2673 PUSH2 0x3733 JUMP JUMPDEST JUMPDEST MUL OR SWAP1 SSTORE POP PUSH2 0x268C DUP3 DUP3 PUSH1 0x9 ADD SLOAD DUP4 PUSH1 0xA ADD SLOAD PUSH2 0x2762 JUMP JUMPDEST JUMPDEST JUMPDEST DUP2 PUSH32 0xA6B4889FBC6222293F94AC3C68C40FA4C027B86B0DFE4F820475C7D8828A2436 PUSH1 0x40 MLOAD PUSH1 0x40 MLOAD DUP1 SWAP2 SUB SWAP1 LOG2 POP POP JUMP JUMPDEST PUSH1 0x0 PUSH1 0x2 PUSH1 0x0 SWAP1 SLOAD SWAP1 PUSH2 0x100 EXP SWAP1 DIV PUSH20 0xFFFFFFFFFFFFFFFFFFFFFFFFFFFFFFFFFFFFFFFF AND PUSH20 0xFFFFFFFFFFFFFFFFFFFFFFFFFFFFFFFFFFFFFFFF AND PUSH4 0x372C12B1 CALLER PUSH1 0x40 MLOAD DUP3 PUSH4 0xFFFFFFFF AND PUSH1 0xE0 SHL DUP2 MSTORE PUSH1 0x4 ADD PUSH2 0x271C SWAP2 SWAP1 PUSH2 0x2F06 JUMP JUMPDEST PUSH1 0x20 PUSH1 0x40 MLOAD DUP1 DUP4 SUB DUP2 DUP7 GAS STATICCALL ISZERO DUP1 ISZERO PUSH2 0x2739 JUMPI RETURNDATASIZE PUSH1 0x0 DUP1 RETURNDATACOPY RETURNDATASIZE PUSH1 0x0 REVERT JUMPDEST POP POP POP POP PUSH1 0x40 MLOAD RETURNDATASIZE PUSH1 0x1F NOT PUSH1 0x1F DUP3 ADD AND DUP3 ADD DUP1 PUSH1 0x40 MSTORE POP DUP2 ADD SWAP1 PUSH2 0x275D SWAP2 SWAP1 PUSH2 0x3E65 JUMP JUMPDEST SWAP1 POP SWAP1 JUMP JUMPDEST PUSH1 0x0 PUSH1 0x8 PUSH1 0x0 DUP5 DUP2 MSTORE PUSH1 0x20 ADD SWAP1 DUP2 MSTORE PUSH1 0x20 ADD PUSH1 0x0 KECCAK256 PUSH1 0x2 ADD PUSH1 0x0 SWAP1 SLOAD SWAP1 PUSH2 0x100 EXP SWAP1 DIV PUSH20 0xFFFFFFFFFFFFFFFFFFFFFFFFFFFFFFFFFFFFFFFF AND SWAP1 POP PUSH1 0x0 PUSH20 0xFFFFFFFFFFFFFFFFFFFFFFFFFFFFFFFFFFFFFFFF AND DUP2 PUSH20 0xFFFFFFFFFFFFFFFFFFFFFFFFFFFFFFFFFFFFFFFF AND EQ ISZERO PUSH2 0x280D JUMPI PUSH1 0x40 MLOAD PUSH32 0x8C379A000000000000000000000000000000000000000000000000000000000 DUP2 MSTORE PUSH1 0x4 ADD PUSH2 0x2804 SWAP1 PUSH2 0x3EDE JUMP JUMPDEST PUSH1 0x40 MLOAD DUP1 SWAP2 SUB SWAP1 REVERT JUMPDEST PUSH1 0x5 DUP5 SWAP1 DUP1 PUSH1 0x1 DUP2 SLOAD ADD DUP1 DUP3 SSTORE DUP1 SWAP2 POP POP PUSH1 0x1 SWAP1 SUB SWAP1 PUSH1 0x0 MSTORE PUSH1 0x20 PUSH1 0x0 KECCAK256 ADD PUSH1 0x0 SWAP1 SWAP2 SWAP1 SWAP2 SWAP1 SWAP2 POP SSTORE PUSH1 0x1 PUSH1 0x9 PUSH1 0x0 DUP7 DUP2 MSTORE PUSH1 0x20 ADD SWAP1 DUP2 MSTORE PUSH1 0x20 ADD PUSH1 0x0 KECCAK256 PUSH1 0x0 PUSH2 0x100 EXP DUP2 SLOAD DUP2 PUSH1 0xFF MUL NOT AND SWAP1 DUP4 ISZERO ISZERO MUL OR SWAP1 SSTORE POP PUSH2 0x286C DUP4 DUP4 PUSH2 0x2872 JUMP JUMPDEST POP POP POP POP JUMP JUMPDEST PUSH1 0x0 PUSH1 0x8 PUSH1 0x0 DUP5 DUP2 MSTORE PUSH1 0x20 ADD SWAP1 DUP2 MSTORE PUSH1 0x20 ADD PUSH1 0x0 KECCAK256 PUSH1 0x2 ADD PUSH1 0x0 SWAP1 SLOAD SWAP1 PUSH2 0x100 EXP SWAP1 DIV PUSH20 0xFFFFFFFFFFFFFFFFFFFFFFFFFFFFFFFFFFFFFFFF AND SWAP1 POP PUSH1 0x0 PUSH1 0x8 PUSH1 0x0 DUP6 DUP2 MSTORE PUSH1 0x20 ADD SWAP1 DUP2 MSTORE PUSH1 0x20 ADD PUSH1 0x0 KECCAK256 PUSH1 0x3 ADD DUP1 SLOAD PUSH2 0x28D0 SWAP1 PUSH2 0x33EE JUMP JUMPDEST DUP1 PUSH1 0x1F ADD PUSH1 0x20 DUP1 SWAP2 DIV MUL PUSH1 0x20 ADD PUSH1 0x40 MLOAD SWAP1 DUP2 ADD PUSH1 0x40 MSTORE DUP1 SWAP3 SWAP2 SWAP1 DUP2 DUP2 MSTORE PUSH1 0x20 ADD DUP3 DUP1 SLOAD PUSH2 0x28FC SWAP1 PUSH2 0x33EE JUMP JUMPDEST DUP1 ISZERO PUSH2 0x2949 JUMPI DUP1 PUSH1 0x1F LT PUSH2 0x291E JUMPI PUSH2 0x100 DUP1 DUP4 SLOAD DIV MUL DUP4 MSTORE SWAP2 PUSH1 0x20 ADD SWAP2 PUSH2 0x2949 JUMP JUMPDEST DUP3 ADD SWAP2 SWAP1 PUSH1 0x0 MSTORE PUSH1 0x20 PUSH1 0x0 KECCAK256 SWAP1 JUMPDEST DUP2 SLOAD DUP2 MSTORE SWAP1 PUSH1 0x1 ADD SWAP1 PUSH1 0x20 ADD DUP1 DUP4 GT PUSH2 0x292C JUMPI DUP3 SWAP1 SUB PUSH1 0x1F AND DUP3 ADD SWAP2 JUMPDEST POP POP POP POP POP SWAP1 POP PUSH1 0x0 DUP1 DUP4 PUSH20 0xFFFFFFFFFFFFFFFFFFFFFFFFFFFFFFFFFFFFFFFF AND DUP4 DUP7 PUSH1 0x40 MLOAD PUSH1 0x24 ADD PUSH2 0x297C SWAP2 SWAP1 PUSH2 0x2B88 JUMP JUMPDEST PUSH1 0x40 MLOAD PUSH1 0x20 DUP2 DUP4 SUB SUB DUP2 MSTORE SWAP1 PUSH1 0x40 MSTORE SWAP1 PUSH1 0x40 MLOAD PUSH2 0x2999 SWAP2 SWAP1 PUSH2 0x3AF9 JUMP JUMPDEST PUSH1 0x40 MLOAD DUP1 SWAP2 SUB SWAP1 KECCAK256 PUSH28 0xFFFFFFFFFFFFFFFFFFFFFFFFFFFFFFFFFFFFFFFFFFFFFFFFFFFFFFFF NOT AND PUSH1 0x20 DUP3 ADD DUP1 MLOAD PUSH28 0xFFFFFFFFFFFFFFFFFFFFFFFFFFFFFFFFFFFFFFFFFFFFFFFFFFFFFFFF DUP4 DUP2 DUP4 AND OR DUP4 MSTORE POP POP POP POP PUSH1 0x40 MLOAD PUSH2 0x29FB SWAP2 SWAP1 PUSH2 0x3F45 JUMP JUMPDEST PUSH1 0x0 PUSH1 0x40 MLOAD DUP1 DUP4 SUB DUP2 PUSH1 0x0 DUP7 GAS CALL SWAP2 POP POP RETURNDATASIZE DUP1 PUSH1 0x0 DUP2 EQ PUSH2 0x2A38 JUMPI PUSH1 0x40 MLOAD SWAP2 POP PUSH1 0x1F NOT PUSH1 0x3F RETURNDATASIZE ADD AND DUP3 ADD PUSH1 0x40 MSTORE RETURNDATASIZE DUP3 MSTORE RETURNDATASIZE PUSH1 0x0 PUSH1 0x20 DUP5 ADD RETURNDATACOPY PUSH2 0x2A3D JUMP JUMPDEST PUSH1 0x60 SWAP2 POP JUMPDEST POP SWAP2 POP SWAP2 POP DUP2 DUP2 SWAP1 PUSH2 0x2A85 JUMPI PUSH1 0x40 MLOAD PUSH32 0x8C379A000000000000000000000000000000000000000000000000000000000 DUP2 MSTORE PUSH1 0x4 ADD PUSH2 0x2A7C SWAP2 SWAP1 PUSH2 0x37CE JUMP JUMPDEST PUSH1 0x40 MLOAD DUP1 SWAP2 SUB SWAP1 REVERT JUMPDEST POP POP POP POP POP POP POP JUMP JUMPDEST PUSH1 0x40 MLOAD DUP1 PUSH1 0x80 ADD PUSH1 0x40 MSTORE DUP1 PUSH1 0x0 DUP2 MSTORE PUSH1 0x20 ADD PUSH1 0x60 DUP2 MSTORE PUSH1 0x20 ADD PUSH1 0x0 PUSH20 0xFFFFFFFFFFFFFFFFFFFFFFFFFFFFFFFFFFFFFFFF AND DUP2 MSTORE PUSH1 0x20 ADD PUSH1 0x60 DUP2 MSTORE POP SWAP1 JUMP JUMPDEST DUP3 DUP1 SLOAD PUSH2 0x2AD8 SWAP1 PUSH2 0x33EE JUMP JUMPDEST SWAP1 PUSH1 0x0 MSTORE PUSH1 0x20 PUSH1 0x0 KECCAK256 SWAP1 PUSH1 0x1F ADD PUSH1 0x20 SWAP1 DIV DUP2 ADD SWAP3 DUP3 PUSH2 0x2AFA JUMPI PUSH1 0x0 DUP6 SSTORE PUSH2 0x2B41 JUMP JUMPDEST DUP3 PUSH1 0x1F LT PUSH2 0x2B13 JUMPI DUP1 MLOAD PUSH1 0xFF NOT AND DUP4 DUP1 ADD OR DUP6 SSTORE PUSH2 0x2B41 JUMP JUMPDEST DUP3 DUP1 ADD PUSH1 0x1 ADD DUP6 SSTORE DUP3 ISZERO PUSH2 0x2B41 JUMPI SWAP2 DUP3 ADD JUMPDEST DUP3 DUP2 GT ISZERO PUSH2 0x2B40 JUMPI DUP3 MLOAD DUP3 SSTORE SWAP2 PUSH1 0x20 ADD SWAP2 SWAP1 PUSH1 0x1 ADD SWAP1 PUSH2 0x2B25 JUMP JUMPDEST JUMPDEST POP SWAP1 POP PUSH2 0x2B4E SWAP2 SWAP1 PUSH2 0x2B52 JUMP JUMPDEST POP SWAP1 JUMP JUMPDEST JUMPDEST DUP1 DUP3 GT ISZERO PUSH2 0x2B6B JUMPI PUSH1 0x0 DUP2 PUSH1 0x0 SWAP1 SSTORE POP PUSH1 0x1 ADD PUSH2 0x2B53 JUMP JUMPDEST POP SWAP1 JUMP JUMPDEST PUSH1 0x0 DUP2 SWAP1 POP SWAP2 SWAP1 POP JUMP JUMPDEST PUSH2 0x2B82 DUP2 PUSH2 0x2B6F JUMP JUMPDEST DUP3 MSTORE POP POP JUMP JUMPDEST PUSH1 0x0 PUSH1 0x20 DUP3 ADD SWAP1 POP PUSH2 0x2B9D PUSH1 0x0 DUP4 ADD DUP5 PUSH2 0x2B79 JUMP JUMPDEST SWAP3 SWAP2 POP POP JUMP JUMPDEST PUSH1 0x0 PUSH1 0x40 MLOAD SWAP1 POP SWAP1 JUMP JUMPDEST PUSH1 0x0 DUP1 REVERT JUMPDEST PUSH1 0x0 DUP1 REVERT JUMPDEST PUSH2 0x2BC0 DUP2 PUSH2 0x2B6F JUMP JUMPDEST DUP2 EQ PUSH2 0x2BCB JUMPI PUSH1 0x0 DUP1 REVERT JUMPDEST POP JUMP JUMPDEST PUSH1 0x0 DUP2 CALLDATALOAD SWAP1 POP PUSH2 0x2BDD DUP2 PUSH2 0x2BB7 JUMP JUMPDEST SWAP3 SWAP2 POP POP JUMP JUMPDEST PUSH1 0x0 PUSH1 0x20 DUP3 DUP5 SUB SLT ISZERO PUSH2 0x2BF9 JUMPI PUSH2 0x2BF8 PUSH2 0x2BAD JUMP JUMPDEST JUMPDEST PUSH1 0x0 PUSH2 0x2C07 DUP5 DUP3 DUP6 ADD PUSH2 0x2BCE JUMP JUMPDEST SWAP2 POP POP SWAP3 SWAP2 POP POP JUMP JUMPDEST PUSH1 0x0 DUP2 ISZERO ISZERO SWAP1 POP SWAP2 SWAP1 POP JUMP JUMPDEST PUSH2 0x2C25 DUP2 PUSH2 0x2C10 JUMP JUMPDEST DUP3 MSTORE POP POP JUMP JUMPDEST PUSH1 0x0 PUSH1 0x20 DUP3 ADD SWAP1 POP PUSH2 0x2C40 PUSH1 0x0 DUP4 ADD DUP5 PUSH2 0x2C1C JUMP JUMPDEST SWAP3 SWAP2 POP POP JUMP JUMPDEST PUSH1 0x0 DUP2 MLOAD SWAP1 POP SWAP2 SWAP1 POP JUMP JUMPDEST PUSH1 0x0 DUP3 DUP3 MSTORE PUSH1 0x20 DUP3 ADD SWAP1 POP SWAP3 SWAP2 POP POP JUMP JUMPDEST PUSH1 0x0 DUP2 SWAP1 POP PUSH1 0x20 DUP3 ADD SWAP1 POP SWAP2 SWAP1 POP JUMP JUMPDEST PUSH2 0x2C7B DUP2 PUSH2 0x2B6F JUMP JUMPDEST DUP3 MSTORE POP POP JUMP JUMPDEST PUSH1 0x0 DUP2 MLOAD SWAP1 POP SWAP2 SWAP1 POP JUMP JUMPDEST PUSH1 0x0 DUP3 DUP3 MSTORE PUSH1 0x20 DUP3 ADD SWAP1 POP SWAP3 SWAP2 POP POP JUMP JUMPDEST PUSH1 0x0 JUMPDEST DUP4 DUP2 LT ISZERO PUSH2 0x2CBB JUMPI DUP1 DUP3 ADD MLOAD DUP2 DUP5 ADD MSTORE PUSH1 0x20 DUP2 ADD SWAP1 POP PUSH2 0x2CA0 JUMP JUMPDEST DUP4 DUP2 GT ISZERO PUSH2 0x2CCA JUMPI PUSH1 0x0 DUP5 DUP5 ADD MSTORE JUMPDEST POP POP POP POP JUMP JUMPDEST PUSH1 0x0 PUSH1 0x1F NOT PUSH1 0x1F DUP4 ADD AND SWAP1 POP SWAP2 SWAP1 POP JUMP JUMPDEST PUSH1 0x0 PUSH2 0x2CEC DUP3 PUSH2 0x2C81 JUMP JUMPDEST PUSH2 0x2CF6 DUP2 DUP6 PUSH2 0x2C8C JUMP JUMPDEST SWAP4 POP PUSH2 0x2D06 DUP2 DUP6 PUSH1 0x20 DUP7 ADD PUSH2 0x2C9D JUMP JUMPDEST PUSH2 0x2D0F DUP2 PUSH2 0x2CD0 JUMP JUMPDEST DUP5 ADD SWAP2 POP POP SWAP3 SWAP2 POP POP JUMP JUMPDEST PUSH1 0x0 PUSH20 0xFFFFFFFFFFFFFFFFFFFFFFFFFFFFFFFFFFFFFFFF DUP3 AND SWAP1 POP SWAP2 SWAP1 POP JUMP JUMPDEST PUSH1 0x0 PUSH2 0x2D45 DUP3 PUSH2 0x2D1A JUMP JUMPDEST SWAP1 POP SWAP2 SWAP1 POP JUMP JUMPDEST PUSH2 0x2D55 DUP2 PUSH2 0x2D3A JUMP JUMPDEST DUP3 MSTORE POP POP JUMP JUMPDEST PUSH1 0x0 PUSH1 0x80 DUP4 ADD PUSH1 0x0 DUP4 ADD MLOAD PUSH2 0x2D73 PUSH1 0x0 DUP7 ADD DUP3 PUSH2 0x2C72 JUMP JUMPDEST POP PUSH1 0x20 DUP4 ADD MLOAD DUP5 DUP3 SUB PUSH1 0x20 DUP7 ADD MSTORE PUSH2 0x2D8B DUP3 DUP3 PUSH2 0x2CE1 JUMP JUMPDEST SWAP2 POP POP PUSH1 0x40 DUP4 ADD MLOAD PUSH2 0x2DA0 PUSH1 0x40 DUP7 ADD DUP3 PUSH2 0x2D4C JUMP JUMPDEST POP PUSH1 0x60 DUP4 ADD MLOAD DUP5 DUP3 SUB PUSH1 0x60 DUP7 ADD MSTORE PUSH2 0x2DB8 DUP3 DUP3 PUSH2 0x2CE1 JUMP JUMPDEST SWAP2 POP POP DUP1 SWAP2 POP POP SWAP3 SWAP2 POP POP JUMP JUMPDEST PUSH1 0x0 PUSH2 0x2DD1 DUP4 DUP4 PUSH2 0x2D5B JUMP JUMPDEST SWAP1 POP SWAP3 SWAP2 POP POP JUMP JUMPDEST PUSH1 0x0 PUSH1 0x20 DUP3 ADD SWAP1 POP SWAP2 SWAP1 POP JUMP JUMPDEST PUSH1 0x0 PUSH2 0x2DF1 DUP3 PUSH2 0x2C46 JUMP JUMPDEST PUSH2 0x2DFB DUP2 DUP6 PUSH2 0x2C51 JUMP JUMPDEST SWAP4 POP DUP4 PUSH1 0x20 DUP3 MUL DUP6 ADD PUSH2 0x2E0D DUP6 PUSH2 0x2C62 JUMP JUMPDEST DUP1 PUSH1 0x0 JUMPDEST DUP6 DUP2 LT ISZERO PUSH2 0x2E49 JUMPI DUP5 DUP5 SUB DUP10 MSTORE DUP2 MLOAD PUSH2 0x2E2A DUP6 DUP3 PUSH2 0x2DC5 JUMP JUMPDEST SWAP5 POP PUSH2 0x2E35 DUP4 PUSH2 0x2DD9 JUMP JUMPDEST SWAP3 POP PUSH1 0x20 DUP11 ADD SWAP10 POP POP PUSH1 0x1 DUP2 ADD SWAP1 POP PUSH2 0x2E11 JUMP JUMPDEST POP DUP3 SWAP8 POP DUP8 SWAP6 POP POP POP POP POP POP SWAP3 SWAP2 POP POP JUMP JUMPDEST PUSH1 0x0 PUSH1 0x20 DUP3 ADD SWAP1 POP DUP2 DUP2 SUB PUSH1 0x0 DUP4 ADD MSTORE PUSH2 0x2E75 DUP2 DUP5 PUSH2 0x2DE6 JUMP JUMPDEST SWAP1 POP SWAP3 SWAP2 POP POP JUMP JUMPDEST PUSH1 0x0 DUP2 SWAP1 POP SWAP2 SWAP1 POP JUMP JUMPDEST PUSH1 0x0 PUSH2 0x2EA2 PUSH2 0x2E9D PUSH2 0x2E98 DUP5 PUSH2 0x2D1A JUMP JUMPDEST PUSH2 0x2E7D JUMP JUMPDEST PUSH2 0x2D1A JUMP JUMPDEST SWAP1 POP SWAP2 SWAP1 POP JUMP JUMPDEST PUSH1 0x0 PUSH2 0x2EB4 DUP3 PUSH2 0x2E87 JUMP JUMPDEST SWAP1 POP SWAP2 SWAP1 POP JUMP JUMPDEST PUSH1 0x0 PUSH2 0x2EC6 DUP3 PUSH2 0x2EA9 JUMP JUMPDEST SWAP1 POP SWAP2 SWAP1 POP JUMP JUMPDEST PUSH2 0x2ED6 DUP2 PUSH2 0x2EBB JUMP JUMPDEST DUP3 MSTORE POP POP JUMP JUMPDEST PUSH1 0x0 PUSH1 0x20 DUP3 ADD SWAP1 POP PUSH2 0x2EF1 PUSH1 0x0 DUP4 ADD DUP5 PUSH2 0x2ECD JUMP JUMPDEST SWAP3 SWAP2 POP POP JUMP JUMPDEST PUSH2 0x2F00 DUP2 PUSH2 0x2D3A JUMP JUMPDEST DUP3 MSTORE POP POP JUMP JUMPDEST PUSH1 0x0 PUSH1 0x20 DUP3 ADD SWAP1 POP PUSH2 0x2F1B PUSH1 0x0 DUP4 ADD DUP5 PUSH2 0x2EF7 JUMP JUMPDEST SWAP3 SWAP2 POP POP JUMP JUMPDEST PUSH1 0x0 DUP1 REVERT JUMPDEST PUSH1 0x0 DUP1 REVERT JUMPDEST PUSH32 0x4E487B7100000000000000000000000000000000000000000000000000000000 PUSH1 0x0 MSTORE PUSH1 0x41 PUSH1 0x4 MSTORE PUSH1 0x24 PUSH1 0x0 REVERT JUMPDEST PUSH2 0x2F63 DUP3 PUSH2 0x2CD0 JUMP JUMPDEST DUP2 ADD DUP2 DUP2 LT PUSH8 0xFFFFFFFFFFFFFFFF DUP3 GT OR ISZERO PUSH2 0x2F82 JUMPI PUSH2 0x2F81 PUSH2 0x2F2B JUMP JUMPDEST JUMPDEST DUP1 PUSH1 0x40 MSTORE POP POP POP JUMP JUMPDEST PUSH1 0x0 PUSH2 0x2F95 PUSH2 0x2BA3 JUMP JUMPDEST SWAP1 POP PUSH2 0x2FA1 DUP3 DUP3 PUSH2 0x2F5A JUMP JUMPDEST SWAP2 SWAP1 POP JUMP JUMPDEST PUSH1 0x0 PUSH8 0xFFFFFFFFFFFFFFFF DUP3 GT ISZERO PUSH2 0x2FC1 JUMPI PUSH2 0x2FC0 PUSH2 0x2F2B JUMP JUMPDEST JUMPDEST PUSH2 0x2FCA DUP3 PUSH2 0x2CD0 JUMP JUMPDEST SWAP1 POP PUSH1 0x20 DUP2 ADD SWAP1 POP SWAP2 SWAP1 POP JUMP JUMPDEST DUP3 DUP2 DUP4 CALLDATACOPY PUSH1 0x0 DUP4 DUP4 ADD MSTORE POP POP POP JUMP JUMPDEST PUSH1 0x0 PUSH2 0x2FF9 PUSH2 0x2FF4 DUP5 PUSH2 0x2FA6 JUMP JUMPDEST PUSH2 0x2F8B JUMP JUMPDEST SWAP1 POP DUP3 DUP2 MSTORE PUSH1 0x20 DUP2 ADD DUP5 DUP5 DUP5 ADD GT ISZERO PUSH2 0x3015 JUMPI PUSH2 0x3014 PUSH2 0x2F26 JUMP JUMPDEST JUMPDEST PUSH2 0x3020 DUP5 DUP3 DUP6 PUSH2 0x2FD7 JUMP JUMPDEST POP SWAP4 SWAP3 POP POP POP JUMP JUMPDEST PUSH1 0x0 DUP3 PUSH1 0x1F DUP4 ADD SLT PUSH2 0x303D JUMPI PUSH2 0x303C PUSH2 0x2F21 JUMP JUMPDEST JUMPDEST DUP2 CALLDATALOAD PUSH2 0x304D DUP5 DUP3 PUSH1 0x20 DUP7 ADD PUSH2 0x2FE6 JUMP JUMPDEST SWAP2 POP POP SWAP3 SWAP2 POP POP JUMP JUMPDEST PUSH1 0x0 DUP1 PUSH1 0x40 DUP4 DUP6 SUB SLT ISZERO PUSH2 0x306D JUMPI PUSH2 0x306C PUSH2 0x2BAD JUMP JUMPDEST JUMPDEST PUSH1 0x0 PUSH2 0x307B DUP6 DUP3 DUP7 ADD PUSH2 0x2BCE JUMP JUMPDEST SWAP3 POP POP PUSH1 0x20 DUP4 ADD CALLDATALOAD PUSH8 0xFFFFFFFFFFFFFFFF DUP2 GT ISZERO PUSH2 0x309C JUMPI PUSH2 0x309B PUSH2 0x2BB2 JUMP JUMPDEST JUMPDEST PUSH2 0x30A8 DUP6 DUP3 DUP7 ADD PUSH2 0x3028 JUMP JUMPDEST SWAP2 POP POP SWAP3 POP SWAP3 SWAP1 POP JUMP JUMPDEST PUSH1 0x0 DUP3 DUP3 MSTORE PUSH1 0x20 DUP3 ADD SWAP1 POP SWAP3 SWAP2 POP POP JUMP JUMPDEST PUSH1 0x0 PUSH2 0x30CE DUP3 PUSH2 0x2C81 JUMP JUMPDEST PUSH2 0x30D8 DUP2 DUP6 PUSH2 0x30B2 JUMP JUMPDEST SWAP4 POP PUSH2 0x30E8 DUP2 DUP6 PUSH1 0x20 DUP7 ADD PUSH2 0x2C9D JUMP JUMPDEST PUSH2 0x30F1 DUP2 PUSH2 0x2CD0 JUMP JUMPDEST DUP5 ADD SWAP2 POP POP SWAP3 SWAP2 POP POP JUMP JUMPDEST PUSH1 0x0 PUSH1 0x60 DUP3 ADD SWAP1 POP DUP2 DUP2 SUB PUSH1 0x0 DUP4 ADD MSTORE PUSH2 0x3116 DUP2 DUP7 PUSH2 0x30C3 JUMP JUMPDEST SWAP1 POP DUP2 DUP2 SUB PUSH1 0x20 DUP4 ADD MSTORE PUSH2 0x312A DUP2 DUP6 PUSH2 0x30C3 JUMP JUMPDEST SWAP1 POP PUSH2 0x3139 PUSH1 0x40 DUP4 ADD DUP5 PUSH2 0x2EF7 JUMP JUMPDEST SWAP5 SWAP4 POP POP POP POP JUMP JUMPDEST PUSH2 0x314A DUP2 PUSH2 0x2C10 JUMP JUMPDEST DUP2 EQ PUSH2 0x3155 JUMPI PUSH1 0x0 DUP1 REVERT JUMPDEST POP JUMP JUMPDEST PUSH1 0x0 DUP2 CALLDATALOAD SWAP1 POP PUSH2 0x3167 DUP2 PUSH2 0x3141 JUMP JUMPDEST SWAP3 SWAP2 POP POP JUMP JUMPDEST PUSH1 0x0 DUP1 PUSH1 0x40 DUP4 DUP6 SUB SLT ISZERO PUSH2 0x3184 JUMPI PUSH2 0x3183 PUSH2 0x2BAD JUMP JUMPDEST JUMPDEST PUSH1 0x0 PUSH2 0x3192 DUP6 DUP3 DUP7 ADD PUSH2 0x2BCE JUMP JUMPDEST SWAP3 POP POP PUSH1 0x20 PUSH2 0x31A3 DUP6 DUP3 DUP7 ADD PUSH2 0x3158 JUMP JUMPDEST SWAP2 POP POP SWAP3 POP SWAP3 SWAP1 POP JUMP JUMPDEST PUSH1 0x0 PUSH1 0xA0 DUP3 ADD SWAP1 POP PUSH2 0x31C2 PUSH1 0x0 DUP4 ADD DUP9 PUSH2 0x2B79 JUMP JUMPDEST PUSH2 0x31CF PUSH1 0x20 DUP4 ADD DUP8 PUSH2 0x2B79 JUMP JUMPDEST PUSH2 0x31DC PUSH1 0x40 DUP4 ADD DUP7 PUSH2 0x2B79 JUMP JUMPDEST PUSH2 0x31E9 PUSH1 0x60 DUP4 ADD DUP6 PUSH2 0x2B79 JUMP JUMPDEST PUSH2 0x31F6 PUSH1 0x80 DUP4 ADD DUP5 PUSH2 0x2B79 JUMP JUMPDEST SWAP7 SWAP6 POP POP POP POP POP POP JUMP JUMPDEST PUSH2 0x3209 DUP2 PUSH2 0x2D3A JUMP JUMPDEST DUP2 EQ PUSH2 0x3214 JUMPI PUSH1 0x0 DUP1 REVERT JUMPDEST POP JUMP JUMPDEST PUSH1 0x0 DUP2 CALLDATALOAD SWAP1 POP PUSH2 0x3226 DUP2 PUSH2 0x3200 JUMP JUMPDEST SWAP3 SWAP2 POP POP JUMP JUMPDEST PUSH1 0x0 DUP1 PUSH1 0x0 PUSH1 0x60 DUP5 DUP7 SUB SLT ISZERO PUSH2 0x3245 JUMPI PUSH2 0x3244 PUSH2 0x2BAD JUMP JUMPDEST JUMPDEST PUSH1 0x0 DUP5 ADD CALLDATALOAD PUSH8 0xFFFFFFFFFFFFFFFF DUP2 GT ISZERO PUSH2 0x3263 JUMPI PUSH2 0x3262 PUSH2 0x2BB2 JUMP JUMPDEST JUMPDEST PUSH2 0x326F DUP7 DUP3 DUP8 ADD PUSH2 0x3028 JUMP JUMPDEST SWAP4 POP POP PUSH1 0x20 PUSH2 0x3280 DUP7 DUP3 DUP8 ADD PUSH2 0x3217 JUMP JUMPDEST SWAP3 POP POP PUSH1 0x40 DUP5 ADD CALLDATALOAD PUSH8 0xFFFFFFFFFFFFFFFF DUP2 GT ISZERO PUSH2 0x32A1 JUMPI PUSH2 0x32A0 PUSH2 0x2BB2 JUMP JUMPDEST JUMPDEST PUSH2 0x32AD DUP7 DUP3 DUP8 ADD PUSH2 0x3028 JUMP JUMPDEST SWAP2 POP POP SWAP3 POP SWAP3 POP SWAP3 JUMP JUMPDEST PUSH1 0x0 PUSH1 0x40 DUP3 ADD SWAP1 POP PUSH2 0x32CC PUSH1 0x0 DUP4 ADD DUP6 PUSH2 0x2B79 JUMP JUMPDEST PUSH2 0x32D9 PUSH1 0x20 DUP4 ADD DUP5 PUSH2 0x2B79 JUMP JUMPDEST SWAP4 SWAP3 POP POP POP JUMP JUMPDEST PUSH1 0x0 DUP1 PUSH1 0x0 DUP1 PUSH1 0x80 DUP6 DUP8 SUB SLT ISZERO PUSH2 0x32FA JUMPI PUSH2 0x32F9 PUSH2 0x2BAD JUMP JUMPDEST JUMPDEST PUSH1 0x0 DUP6 ADD CALLDATALOAD PUSH8 0xFFFFFFFFFFFFFFFF DUP2 GT ISZERO PUSH2 0x3318 JUMPI PUSH2 0x3317 PUSH2 0x2BB2 JUMP JUMPDEST JUMPDEST PUSH2 0x3324 DUP8 DUP3 DUP9 ADD PUSH2 0x3028 JUMP JUMPDEST SWAP5 POP POP PUSH1 0x20 DUP6 ADD CALLDATALOAD PUSH8 0xFFFFFFFFFFFFFFFF DUP2 GT ISZERO PUSH2 0x3345 JUMPI PUSH2 0x3344 PUSH2 0x2BB2 JUMP JUMPDEST JUMPDEST PUSH2 0x3351 DUP8 DUP3 DUP9 ADD PUSH2 0x3028 JUMP JUMPDEST SWAP4 POP POP PUSH1 0x40 PUSH2 0x3362 DUP8 DUP3 DUP9 ADD PUSH2 0x2BCE JUMP JUMPDEST SWAP3 POP POP PUSH1 0x60 PUSH2 0x3373 DUP8 DUP3 DUP9 ADD PUSH2 0x2BCE JUMP JUMPDEST SWAP2 POP POP SWAP3 SWAP6 SWAP2 SWAP5 POP SWAP3 POP JUMP JUMPDEST PUSH1 0x0 DUP1 PUSH1 0x40 DUP4 DUP6 SUB SLT ISZERO PUSH2 0x3396 JUMPI PUSH2 0x3395 PUSH2 0x2BAD JUMP JUMPDEST JUMPDEST PUSH1 0x0 PUSH2 0x33A4 DUP6 DUP3 DUP7 ADD PUSH2 0x2BCE JUMP JUMPDEST SWAP3 POP POP PUSH1 0x20 PUSH2 0x33B5 DUP6 DUP3 DUP7 ADD PUSH2 0x3217 JUMP JUMPDEST SWAP2 POP POP SWAP3 POP SWAP3 SWAP1 POP JUMP JUMPDEST PUSH32 0x4E487B7100000000000000000000000000000000000000000000000000000000 PUSH1 0x0 MSTORE PUSH1 0x22 PUSH1 0x4 MSTORE PUSH1 0x24 PUSH1 0x0 REVERT JUMPDEST PUSH1 0x0 PUSH1 0x2 DUP3 DIV SWAP1 POP PUSH1 0x1 DUP3 AND DUP1 PUSH2 0x3406 JUMPI PUSH1 0x7F DUP3 AND SWAP2 POP JUMPDEST PUSH1 0x20 DUP3 LT DUP2 EQ ISZERO PUSH2 0x341A JUMPI PUSH2 0x3419 PUSH2 0x33BF JUMP JUMPDEST JUMPDEST POP SWAP2 SWAP1 POP JUMP JUMPDEST PUSH32 0x4E487B7100000000000000000000000000000000000000000000000000000000 PUSH1 0x0 MSTORE PUSH1 0x32 PUSH1 0x4 MSTORE PUSH1 0x24 PUSH1 0x0 REVERT JUMPDEST PUSH32 0x4E487B7100000000000000000000000000000000000000000000000000000000 PUSH1 0x0 MSTORE PUSH1 0x11 PUSH1 0x4 MSTORE PUSH1 0x24 PUSH1 0x0 REVERT JUMPDEST PUSH1 0x0 PUSH2 0x3489 DUP3 PUSH2 0x2B6F JUMP JUMPDEST SWAP2 POP PUSH32 0xFFFFFFFFFFFFFFFFFFFFFFFFFFFFFFFFFFFFFFFFFFFFFFFFFFFFFFFFFFFFFFFF DUP3 EQ ISZERO PUSH2 0x34BC JUMPI PUSH2 0x34BB PUSH2 0x344F JUMP JUMPDEST JUMPDEST PUSH1 0x1 DUP3 ADD SWAP1 POP SWAP2 SWAP1 POP JUMP JUMPDEST PUSH1 0x0 DUP2 MLOAD SWAP1 POP PUSH2 0x34D6 DUP2 PUSH2 0x3200 JUMP JUMPDEST SWAP3 SWAP2 POP POP JUMP JUMPDEST PUSH1 0x0 PUSH1 0x20 DUP3 DUP5 SUB SLT ISZERO PUSH2 0x34F2 JUMPI PUSH2 0x34F1 PUSH2 0x2BAD JUMP JUMPDEST JUMPDEST PUSH1 0x0 PUSH2 0x3500 DUP5 DUP3 DUP6 ADD PUSH2 0x34C7 JUMP JUMPDEST SWAP2 POP POP SWAP3 SWAP2 POP POP JUMP JUMPDEST PUSH1 0x0 DUP2 MLOAD SWAP1 POP PUSH2 0x3518 DUP2 PUSH2 0x2BB7 JUMP JUMPDEST SWAP3 SWAP2 POP POP JUMP JUMPDEST PUSH1 0x0 PUSH1 0x20 DUP3 DUP5 SUB SLT ISZERO PUSH2 0x3534 JUMPI PUSH2 0x3533 PUSH2 0x2BAD JUMP JUMPDEST JUMPDEST PUSH1 0x0 PUSH2 0x3542 DUP5 DUP3 DUP6 ADD PUSH2 0x3509 JUMP JUMPDEST SWAP2 POP POP SWAP3 SWAP2 POP POP JUMP JUMPDEST PUSH1 0x0 PUSH2 0x3556 DUP3 PUSH2 0x2B6F JUMP JUMPDEST SWAP2 POP PUSH2 0x3561 DUP4 PUSH2 0x2B6F JUMP JUMPDEST SWAP3 POP DUP2 PUSH32 0xFFFFFFFFFFFFFFFFFFFFFFFFFFFFFFFFFFFFFFFFFFFFFFFFFFFFFFFFFFFFFFFF DIV DUP4 GT DUP3 ISZERO ISZERO AND ISZERO PUSH2 0x359A JUMPI PUSH2 0x3599 PUSH2 0x344F JUMP JUMPDEST JUMPDEST DUP3 DUP3 MUL SWAP1 POP SWAP3 SWAP2 POP POP JUMP JUMPDEST PUSH32 0x4E487B7100000000000000000000000000000000000000000000000000000000 PUSH1 0x0 MSTORE PUSH1 0x12 PUSH1 0x4 MSTORE PUSH1 0x24 PUSH1 0x0 REVERT JUMPDEST PUSH1 0x0 PUSH2 0x35DF DUP3 PUSH2 0x2B6F JUMP JUMPDEST SWAP2 POP PUSH2 0x35EA DUP4 PUSH2 0x2B6F JUMP JUMPDEST SWAP3 POP DUP3 PUSH2 0x35FA JUMPI PUSH2 0x35F9 PUSH2 0x35A5 JUMP JUMPDEST JUMPDEST DUP3 DUP3 DIV SWAP1 POP SWAP3 SWAP2 POP POP JUMP JUMPDEST PUSH32 0x546F6F2066657720746F6B656E73206172652068656C64000000000000000000 PUSH1 0x0 DUP3 ADD MSTORE POP JUMP JUMPDEST PUSH1 0x0 PUSH2 0x363B PUSH1 0x17 DUP4 PUSH2 0x30B2 JUMP JUMPDEST SWAP2 POP PUSH2 0x3646 DUP3 PUSH2 0x3605 JUMP JUMPDEST PUSH1 0x20 DUP3 ADD SWAP1 POP SWAP2 SWAP1 POP JUMP JUMPDEST PUSH1 0x0 PUSH1 0x20 DUP3 ADD SWAP1 POP DUP2 DUP2 SUB PUSH1 0x0 DUP4 ADD MSTORE PUSH2 0x366A DUP2 PUSH2 0x362E JUMP JUMPDEST SWAP1 POP SWAP2 SWAP1 POP JUMP JUMPDEST PUSH1 0x0 PUSH2 0x367C DUP3 PUSH2 0x2B6F JUMP JUMPDEST SWAP2 POP PUSH2 0x3687 DUP4 PUSH2 0x2B6F JUMP JUMPDEST SWAP3 POP DUP3 PUSH32 0xFFFFFFFFFFFFFFFFFFFFFFFFFFFFFFFFFFFFFFFFFFFFFFFFFFFFFFFFFFFFFFFF SUB DUP3 GT ISZERO PUSH2 0x36BC JUMPI PUSH2 0x36BB PUSH2 0x344F JUMP JUMPDEST JUMPDEST DUP3 DUP3 ADD SWAP1 POP SWAP3 SWAP2 POP POP JUMP JUMPDEST PUSH32 0x5374696C6C20696E2074686520766F74696E6720706861736500000000000000 PUSH1 0x0 DUP3 ADD MSTORE POP JUMP JUMPDEST PUSH1 0x0 PUSH2 0x36FD PUSH1 0x19 DUP4 PUSH2 0x30B2 JUMP JUMPDEST SWAP2 POP PUSH2 0x3708 DUP3 PUSH2 0x36C7 JUMP JUMPDEST PUSH1 0x20 DUP3 ADD SWAP1 POP SWAP2 SWAP1 POP JUMP JUMPDEST PUSH1 0x0 PUSH1 0x20 DUP3 ADD SWAP1 POP DUP2 DUP2 SUB PUSH1 0x0 DUP4 ADD MSTORE PUSH2 0x372C DUP2 PUSH2 0x36F0 JUMP JUMPDEST SWAP1 POP SWAP2 SWAP1 POP JUMP JUMPDEST PUSH32 0x4E487B7100000000000000000000000000000000000000000000000000000000 PUSH1 0x0 MSTORE PUSH1 0x21 PUSH1 0x4 MSTORE PUSH1 0x24 PUSH1 0x0 REVERT JUMPDEST PUSH32 0x4E6F742061742074686520766F74696E67207374616765000000000000000000 PUSH1 0x0 DUP3 ADD MSTORE POP JUMP JUMPDEST PUSH1 0x0 PUSH2 0x3798 PUSH1 0x17 DUP4 PUSH2 0x30B2 JUMP JUMPDEST SWAP2 POP PUSH2 0x37A3 DUP3 PUSH2 0x3762 JUMP JUMPDEST PUSH1 0x20 DUP3 ADD SWAP1 POP SWAP2 SWAP1 POP JUMP JUMPDEST PUSH1 0x0 PUSH1 0x20 DUP3 ADD SWAP1 POP DUP2 DUP2 SUB PUSH1 0x0 DUP4 ADD MSTORE PUSH2 0x37C7 DUP2 PUSH2 0x378B JUMP JUMPDEST SWAP1 POP SWAP2 SWAP1 POP JUMP JUMPDEST PUSH1 0x0 PUSH1 0x20 DUP3 ADD SWAP1 POP DUP2 DUP2 SUB PUSH1 0x0 DUP4 ADD MSTORE PUSH2 0x37E8 DUP2 DUP5 PUSH2 0x30C3 JUMP JUMPDEST SWAP1 POP SWAP3 SWAP2 POP POP JUMP JUMPDEST PUSH32 0x566F74654964206973206E756C6C000000000000000000000000000000000000 PUSH1 0x0 DUP3 ADD MSTORE POP JUMP JUMPDEST PUSH1 0x0 PUSH2 0x3826 PUSH1 0xE DUP4 PUSH2 0x30B2 JUMP JUMPDEST SWAP2 POP PUSH2 0x3831 DUP3 PUSH2 0x37F0 JUMP JUMPDEST PUSH1 0x20 DUP3 ADD SWAP1 POP SWAP2 SWAP1 POP JUMP JUMPDEST PUSH1 0x0 PUSH1 0x20 DUP3 ADD SWAP1 POP DUP2 DUP2 SUB PUSH1 0x0 DUP4 ADD MSTORE PUSH2 0x3855 DUP2 PUSH2 0x3819 JUMP JUMPDEST SWAP1 POP SWAP2 SWAP1 POP JUMP JUMPDEST PUSH32 0x566F7465206265666F7265000000000000000000000000000000000000000000 PUSH1 0x0 DUP3 ADD MSTORE POP JUMP JUMPDEST PUSH1 0x0 PUSH2 0x3892 PUSH1 0xB DUP4 PUSH2 0x30B2 JUMP JUMPDEST SWAP2 POP PUSH2 0x389D DUP3 PUSH2 0x385C JUMP JUMPDEST PUSH1 0x20 DUP3 ADD SWAP1 POP SWAP2 SWAP1 POP JUMP JUMPDEST PUSH1 0x0 PUSH1 0x20 DUP3 ADD SWAP1 POP DUP2 DUP2 SUB PUSH1 0x0 DUP4 ADD MSTORE PUSH2 0x38C1 DUP2 PUSH2 0x3885 JUMP JUMPDEST SWAP1 POP SWAP2 SWAP1 POP JUMP JUMPDEST PUSH32 0x7665546F6B656E206C657373207468616E203120000000000000000000000000 PUSH1 0x0 DUP3 ADD MSTORE POP JUMP JUMPDEST PUSH1 0x0 PUSH2 0x38FE PUSH1 0x14 DUP4 PUSH2 0x30B2 JUMP JUMPDEST SWAP2 POP PUSH2 0x3909 DUP3 PUSH2 0x38C8 JUMP JUMPDEST PUSH1 0x20 DUP3 ADD SWAP1 POP SWAP2 SWAP1 POP JUMP JUMPDEST PUSH1 0x0 PUSH1 0x20 DUP3 ADD SWAP1 POP DUP2 DUP2 SUB PUSH1 0x0 DUP4 ADD MSTORE PUSH2 0x392D DUP2 PUSH2 0x38F1 JUMP JUMPDEST SWAP1 POP SWAP2 SWAP1 POP JUMP JUMPDEST PUSH32 0x4E6F742077697468696E2074686520616C6C6F747465642074696D6500000000 PUSH1 0x0 DUP3 ADD MSTORE POP JUMP JUMPDEST PUSH1 0x0 PUSH2 0x396A PUSH1 0x1C DUP4 PUSH2 0x30B2 JUMP JUMPDEST SWAP2 POP PUSH2 0x3975 DUP3 PUSH2 0x3934 JUMP JUMPDEST PUSH1 0x20 DUP3 ADD SWAP1 POP SWAP2 SWAP1 POP JUMP JUMPDEST PUSH1 0x0 PUSH1 0x20 DUP3 ADD SWAP1 POP DUP2 DUP2 SUB PUSH1 0x0 DUP4 ADD MSTORE PUSH2 0x3999 DUP2 PUSH2 0x395D JUMP JUMPDEST SWAP1 POP SWAP2 SWAP1 POP JUMP JUMPDEST PUSH32 0x77686974654C697374203A3A204164647265737320636865636B206572726F72 PUSH1 0x0 DUP3 ADD MSTORE POP JUMP JUMPDEST PUSH1 0x0 PUSH2 0x39D6 PUSH1 0x20 DUP4 PUSH2 0x30B2 JUMP JUMPDEST SWAP2 POP PUSH2 0x39E1 DUP3 PUSH2 0x39A0 JUMP JUMPDEST PUSH1 0x20 DUP3 ADD SWAP1 POP SWAP2 SWAP1 POP JUMP JUMPDEST PUSH1 0x0 PUSH1 0x20 DUP3 ADD SWAP1 POP DUP2 DUP2 SUB PUSH1 0x0 DUP4 ADD MSTORE PUSH2 0x3A05 DUP2 PUSH2 0x39C9 JUMP JUMPDEST SWAP1 POP SWAP2 SWAP1 POP JUMP JUMPDEST PUSH1 0x0 PUSH1 0x60 DUP3 ADD SWAP1 POP DUP2 DUP2 SUB PUSH1 0x0 DUP4 ADD MSTORE PUSH2 0x3A26 DUP2 DUP7 PUSH2 0x30C3 JUMP JUMPDEST SWAP1 POP PUSH2 0x3A35 PUSH1 0x20 DUP4 ADD DUP6 PUSH2 0x2EF7 JUMP JUMPDEST DUP2 DUP2 SUB PUSH1 0x40 DUP4 ADD MSTORE PUSH2 0x3A47 DUP2 DUP5 PUSH2 0x30C3 JUMP JUMPDEST SWAP1 POP SWAP5 SWAP4 POP POP POP POP JUMP JUMPDEST PUSH32 0x207665546F6B656E537570706C79203D3D203000000000000000000000000000 PUSH1 0x0 DUP3 ADD MSTORE POP JUMP JUMPDEST PUSH1 0x0 PUSH2 0x3A87 PUSH1 0x13 DUP4 PUSH2 0x30B2 JUMP JUMPDEST SWAP2 POP PUSH2 0x3A92 DUP3 PUSH2 0x3A51 JUMP JUMPDEST PUSH1 0x20 DUP3 ADD SWAP1 POP SWAP2 SWAP1 POP JUMP JUMPDEST PUSH1 0x0 PUSH1 0x20 DUP3 ADD SWAP1 POP DUP2 DUP2 SUB PUSH1 0x0 DUP4 ADD MSTORE PUSH2 0x3AB6 DUP2 PUSH2 0x3A7A JUMP JUMPDEST SWAP1 POP SWAP2 SWAP1 POP JUMP JUMPDEST PUSH1 0x0 DUP2 SWAP1 POP SWAP3 SWAP2 POP POP JUMP JUMPDEST PUSH1 0x0 PUSH2 0x3AD3 DUP3 PUSH2 0x2C81 JUMP JUMPDEST PUSH2 0x3ADD DUP2 DUP6 PUSH2 0x3ABD JUMP JUMPDEST SWAP4 POP PUSH2 0x3AED DUP2 DUP6 PUSH1 0x20 DUP7 ADD PUSH2 0x2C9D JUMP JUMPDEST DUP1 DUP5 ADD SWAP2 POP POP SWAP3 SWAP2 POP POP JUMP JUMPDEST PUSH1 0x0 PUSH2 0x3B05 DUP3 DUP5 PUSH2 0x3AC8 JUMP JUMPDEST SWAP2 POP DUP2 SWAP1 POP SWAP3 SWAP2 POP POP JUMP JUMPDEST PUSH32 0x4861766520766F74656400000000000000000000000000000000000000000000 PUSH1 0x0 DUP3 ADD MSTORE POP JUMP JUMPDEST PUSH1 0x0 PUSH2 0x3B46 PUSH1 0xA DUP4 PUSH2 0x30B2 JUMP JUMPDEST SWAP2 POP PUSH2 0x3B51 DUP3 PUSH2 0x3B10 JUMP JUMPDEST PUSH1 0x20 DUP3 ADD SWAP1 POP SWAP2 SWAP1 POP JUMP JUMPDEST PUSH1 0x0 PUSH1 0x20 DUP3 ADD SWAP1 POP DUP2 DUP2 SUB PUSH1 0x0 DUP4 ADD MSTORE PUSH2 0x3B75 DUP2 PUSH2 0x3B39 JUMP JUMPDEST SWAP1 POP SWAP2 SWAP1 POP JUMP JUMPDEST PUSH32 0x63616E27742064656C656761746520746F20796F757273656C66000000000000 PUSH1 0x0 DUP3 ADD MSTORE POP JUMP JUMPDEST PUSH1 0x0 PUSH2 0x3BB2 PUSH1 0x1A DUP4 PUSH2 0x30B2 JUMP JUMPDEST SWAP2 POP PUSH2 0x3BBD DUP3 PUSH2 0x3B7C JUMP JUMPDEST PUSH1 0x20 DUP3 ADD SWAP1 POP SWAP2 SWAP1 POP JUMP JUMPDEST PUSH1 0x0 PUSH1 0x20 DUP3 ADD SWAP1 POP DUP2 DUP2 SUB PUSH1 0x0 DUP4 ADD MSTORE PUSH2 0x3BE1 DUP2 PUSH2 0x3BA5 JUMP JUMPDEST SWAP1 POP SWAP2 SWAP1 POP JUMP JUMPDEST PUSH32 0x5468657265206973206E6F20746F6B656E200000000000000000000000000000 PUSH1 0x0 DUP3 ADD MSTORE POP JUMP JUMPDEST PUSH1 0x0 PUSH2 0x3C1E PUSH1 0x12 DUP4 PUSH2 0x30B2 JUMP JUMPDEST SWAP2 POP PUSH2 0x3C29 DUP3 PUSH2 0x3BE8 JUMP JUMPDEST PUSH1 0x20 DUP3 ADD SWAP1 POP SWAP2 SWAP1 POP JUMP JUMPDEST PUSH1 0x0 PUSH1 0x20 DUP3 ADD SWAP1 POP DUP2 DUP2 SUB PUSH1 0x0 DUP4 ADD MSTORE PUSH2 0x3C4D DUP2 PUSH2 0x3C11 JUMP JUMPDEST SWAP1 POP SWAP2 SWAP1 POP JUMP JUMPDEST PUSH32 0x7265706574697469766520657865637574696F6E000000000000000000000000 PUSH1 0x0 DUP3 ADD MSTORE POP JUMP JUMPDEST PUSH1 0x0 PUSH2 0x3C8A PUSH1 0x14 DUP4 PUSH2 0x30B2 JUMP JUMPDEST SWAP2 POP PUSH2 0x3C95 DUP3 PUSH2 0x3C54 JUMP JUMPDEST PUSH1 0x20 DUP3 ADD SWAP1 POP SWAP2 SWAP1 POP JUMP JUMPDEST PUSH1 0x0 PUSH1 0x20 DUP3 ADD SWAP1 POP DUP2 DUP2 SUB PUSH1 0x0 DUP4 ADD MSTORE PUSH2 0x3CB9 DUP2 PUSH2 0x3C7D JUMP JUMPDEST SWAP1 POP SWAP2 SWAP1 POP JUMP JUMPDEST PUSH32 0x766F746573206973206C657373207468616E2033302070657263656E74000000 PUSH1 0x0 DUP3 ADD MSTORE POP JUMP JUMPDEST PUSH1 0x0 PUSH2 0x3CF6 PUSH1 0x1D DUP4 PUSH2 0x30B2 JUMP JUMPDEST SWAP2 POP PUSH2 0x3D01 DUP3 PUSH2 0x3CC0 JUMP JUMPDEST PUSH1 0x20 DUP3 ADD SWAP1 POP SWAP2 SWAP1 POP JUMP JUMPDEST PUSH1 0x0 PUSH1 0x20 DUP3 ADD SWAP1 POP DUP2 DUP2 SUB PUSH1 0x0 DUP4 ADD MSTORE PUSH2 0x3D25 DUP2 PUSH2 0x3CE9 JUMP JUMPDEST SWAP1 POP SWAP2 SWAP1 POP JUMP JUMPDEST PUSH32 0x4C657373207468616E20363025206F662074686520766F746573207061737365 PUSH1 0x0 DUP3 ADD MSTORE PUSH32 0x6400000000000000000000000000000000000000000000000000000000000000 PUSH1 0x20 DUP3 ADD MSTORE POP JUMP JUMPDEST PUSH1 0x0 PUSH2 0x3D88 PUSH1 0x21 DUP4 PUSH2 0x30B2 JUMP JUMPDEST SWAP2 POP PUSH2 0x3D93 DUP3 PUSH2 0x3D2C JUMP JUMPDEST PUSH1 0x40 DUP3 ADD SWAP1 POP SWAP2 SWAP1 POP JUMP JUMPDEST PUSH1 0x0 PUSH1 0x20 DUP3 ADD SWAP1 POP DUP2 DUP2 SUB PUSH1 0x0 DUP4 ADD MSTORE PUSH2 0x3DB7 DUP2 PUSH2 0x3D7B JUMP JUMPDEST SWAP1 POP SWAP2 SWAP1 POP JUMP JUMPDEST PUSH32 0x54686520766F746520706173736564207769746820666577657220766F746573 PUSH1 0x0 DUP3 ADD MSTORE PUSH32 0x207468616E20746865206F726967696E616C0000000000000000000000000000 PUSH1 0x20 DUP3 ADD MSTORE POP JUMP JUMPDEST PUSH1 0x0 PUSH2 0x3E1A PUSH1 0x32 DUP4 PUSH2 0x30B2 JUMP JUMPDEST SWAP2 POP PUSH2 0x3E25 DUP3 PUSH2 0x3DBE JUMP JUMPDEST PUSH1 0x40 DUP3 ADD SWAP1 POP SWAP2 SWAP1 POP JUMP JUMPDEST PUSH1 0x0 PUSH1 0x20 DUP3 ADD SWAP1 POP DUP2 DUP2 SUB PUSH1 0x0 DUP4 ADD MSTORE PUSH2 0x3E49 DUP2 PUSH2 0x3E0D JUMP JUMPDEST SWAP1 POP SWAP2 SWAP1 POP JUMP JUMPDEST PUSH1 0x0 DUP2 MLOAD SWAP1 POP PUSH2 0x3E5F DUP2 PUSH2 0x3141 JUMP JUMPDEST SWAP3 SWAP2 POP POP JUMP JUMPDEST PUSH1 0x0 PUSH1 0x20 DUP3 DUP5 SUB SLT ISZERO PUSH2 0x3E7B JUMPI PUSH2 0x3E7A PUSH2 0x2BAD JUMP JUMPDEST JUMPDEST PUSH1 0x0 PUSH2 0x3E89 DUP5 DUP3 DUP6 ADD PUSH2 0x3E50 JUMP JUMPDEST SWAP2 POP POP SWAP3 SWAP2 POP POP JUMP JUMPDEST PUSH32 0x476F7665726E616E63652054656D706C617465206973206E756C6C0000000000 PUSH1 0x0 DUP3 ADD MSTORE POP JUMP JUMPDEST PUSH1 0x0 PUSH2 0x3EC8 PUSH1 0x1B DUP4 PUSH2 0x30B2 JUMP JUMPDEST SWAP2 POP PUSH2 0x3ED3 DUP3 PUSH2 0x3E92 JUMP JUMPDEST PUSH1 0x20 DUP3 ADD SWAP1 POP SWAP2 SWAP1 POP JUMP JUMPDEST PUSH1 0x0 PUSH1 0x20 DUP3 ADD SWAP1 POP DUP2 DUP2 SUB PUSH1 0x0 DUP4 ADD MSTORE PUSH2 0x3EF7 DUP2 PUSH2 0x3EBB JUMP JUMPDEST SWAP1 POP SWAP2 SWAP1 POP JUMP JUMPDEST PUSH1 0x0 DUP2 MLOAD SWAP1 POP SWAP2 SWAP1 POP JUMP JUMPDEST PUSH1 0x0 DUP2 SWAP1 POP SWAP3 SWAP2 POP POP JUMP JUMPDEST PUSH1 0x0 PUSH2 0x3F1F DUP3 PUSH2 0x3EFE JUMP JUMPDEST PUSH2 0x3F29 DUP2 DUP6 PUSH2 0x3F09 JUMP JUMPDEST SWAP4 POP PUSH2 0x3F39 DUP2 DUP6 PUSH1 0x20 DUP7 ADD PUSH2 0x2C9D JUMP JUMPDEST DUP1 DUP5 ADD SWAP2 POP POP SWAP3 SWAP2 POP POP JUMP JUMPDEST PUSH1 0x0 PUSH2 0x3F51 DUP3 DUP5 PUSH2 0x3F14 JUMP JUMPDEST SWAP2 POP DUP2 SWAP1 POP SWAP3 SWAP2 POP POP JUMP INVALID LOG2 PUSH5 0x6970667358 0x22 SLT KECCAK256 EQ DUP7 0xD2 0xAC 0xE7 0xBF 0xF7 0xB7 CALLER SLT 0xB8 SMOD DUP16 SWAP6 DUP1 DIFFICULTY 0x4C 0x4A 0x5D 0x5F PUSH9 0xC62818CE3014B42E99 DUP16 0x2F PUSH5 0x736F6C6343 STOP ADDMOD EXP STOP CALLER "
				},
				"gasEstimates": {
					"creation": {
						"codeDepositCost": "3254800",
						"executionCost": "69929",
						"totalCost": "3324729"
					},
					"external": {
						"bufferTime()": "2474",
						"createVote(string,string,uint256,uint256)": "infinite",
						"delegateTo(uint256,address)": "infinite",
						"execute(uint256)": "infinite",
						"executeQueue(uint256)": "infinite",
						"executeQueueMap(uint256)": "2842",
						"getTemplate()": "infinite",
						"getTest(uint256)": "infinite",
						"getVeToken()": "infinite",
						"getVoteDetailwithVoteId(uint256)": "infinite",
						"getVoteStatuswithVoteId(uint256)": "infinite",
						"initialize()": "infinite",
						"minimumQuantity()": "2453",
						"reject(uint256,string)": "infinite",
						"router()": "2580",
						"setGovernanceTemplate(string,address,string)": "infinite",
						"templateTotal()": "2474",
						"toVote(uint256,bool)": "infinite",
						"veToken()": "infinite",
						"voteTatola()": "2540",
						"voteTime()": "2518",
						"winningProposal(uint256)": "infinite"
					},
					"internal": {
						"_execute(uint256,uint256,uint256)": "infinite",
						"_governanceTemplate(uint256,uint256)": "infinite",
						"onlyWhiteList()": "infinite",
						"setMinimumQuantity(uint256)": "infinite"
					}
				},
				"methodIdentifiers": {
					"bufferTime()": "ba7b6703",
					"createVote(string,string,uint256,uint256)": "f9d793d1",
					"delegateTo(uint256,address)": "fc7881c6",
					"execute(uint256)": "fe0d94c1",
					"executeQueue(uint256)": "52538550",
					"executeQueueMap(uint256)": "2c9e3ef0",
					"getTemplate()": "321c48f2",
					"getTest(uint256)": "edef019d",
					"getVeToken()": "3fee74d7",
					"getVoteDetailwithVoteId(uint256)": "74786f69",
					"getVoteStatuswithVoteId(uint256)": "d9ae5bd5",
					"initialize()": "8129fc1c",
					"minimumQuantity()": "1d75ddcc",
					"reject(uint256,string)": "71d68a97",
					"router()": "f887ea40",
					"setGovernanceTemplate(string,address,string)": "e3a1c1c7",
					"templateTotal()": "5a42007f",
					"toVote(uint256,bool)": "82214856",
					"veToken()": "3b92eb23",
					"voteTatola()": "75bb5b09",
					"voteTime()": "bcf93dd6",
					"winningProposal(uint256)": "bcd60f6c"
				}
			},
			"storageLayout": {
				"storage": [
					{
						"astId": 372,
						"contract": "contracts/Template/Istanbul10/logic/Vote.sol:Vote",
						"label": "voteTime",
						"offset": 0,
						"slot": "0",
						"type": "t_uint256"
					},
					{
						"astId": 375,
						"contract": "contracts/Template/Istanbul10/logic/Vote.sol:Vote",
						"label": "bufferTime",
						"offset": 0,
						"slot": "1",
						"type": "t_uint256"
					},
					{
						"astId": 377,
						"contract": "contracts/Template/Istanbul10/logic/Vote.sol:Vote",
						"label": "router",
						"offset": 0,
						"slot": "2",
						"type": "t_address"
					},
					{
						"astId": 380,
						"contract": "contracts/Template/Istanbul10/logic/Vote.sol:Vote",
						"label": "veToken",
						"offset": 0,
						"slot": "3",
						"type": "t_contract(VeTokenTest)1661"
					},
					{
						"astId": 382,
						"contract": "contracts/Template/Istanbul10/logic/Vote.sol:Vote",
						"label": "voteTatola",
						"offset": 0,
						"slot": "4",
						"type": "t_uint256"
					},
					{
						"astId": 385,
						"contract": "contracts/Template/Istanbul10/logic/Vote.sol:Vote",
						"label": "executeQueue",
						"offset": 0,
						"slot": "5",
						"type": "t_array(t_uint256)dyn_storage"
					},
					{
						"astId": 387,
						"contract": "contracts/Template/Istanbul10/logic/Vote.sol:Vote",
						"label": "templateTotal",
						"offset": 0,
						"slot": "6",
						"type": "t_uint256"
					},
					{
						"astId": 392,
						"contract": "contracts/Template/Istanbul10/logic/Vote.sol:Vote",
						"label": "voteMapp",
						"offset": 0,
						"slot": "7",
						"type": "t_mapping(t_uint256,t_struct(VoteStruct)436_storage)"
					},
					{
						"astId": 397,
						"contract": "contracts/Template/Istanbul10/logic/Vote.sol:Vote",
						"label": "template",
						"offset": 0,
						"slot": "8",
						"type": "t_mapping(t_uint256,t_struct(GgovernanceTemplate)465_storage)"
					},
					{
						"astId": 401,
						"contract": "contracts/Template/Istanbul10/logic/Vote.sol:Vote",
						"label": "executeQueueMap",
						"offset": 0,
						"slot": "9",
						"type": "t_mapping(t_uint256,t_bool)"
					},
					{
						"astId": 404,
						"contract": "contracts/Template/Istanbul10/logic/Vote.sol:Vote",
						"label": "minimumQuantity",
						"offset": 0,
						"slot": "10",
						"type": "t_uint256"
					}
				],
				"types": {
					"t_address": {
						"encoding": "inplace",
						"label": "address",
						"numberOfBytes": "20"
					},
					"t_array(t_address)dyn_storage": {
						"base": "t_address",
						"encoding": "dynamic_array",
						"label": "address[]",
						"numberOfBytes": "32"
					},
					"t_array(t_uint256)dyn_storage": {
						"base": "t_uint256",
						"encoding": "dynamic_array",
						"label": "uint256[]",
						"numberOfBytes": "32"
					},
					"t_bool": {
						"encoding": "inplace",
						"label": "bool",
						"numberOfBytes": "1"
					},
					"t_contract(VeTokenTest)1661": {
						"encoding": "inplace",
						"label": "contract VeTokenTest",
						"numberOfBytes": "20"
					},
					"t_enum(VoteStatus)369": {
						"encoding": "inplace",
						"label": "enum VoteData.VoteStatus",
						"numberOfBytes": "1"
					},
					"t_mapping(t_address,t_struct(Delegate)456_storage)": {
						"encoding": "mapping",
						"key": "t_address",
						"label": "mapping(address => struct VoteData.Delegate)",
						"numberOfBytes": "32",
						"value": "t_struct(Delegate)456_storage"
					},
					"t_mapping(t_uint256,t_bool)": {
						"encoding": "mapping",
						"key": "t_uint256",
						"label": "mapping(uint256 => bool)",
						"numberOfBytes": "32",
						"value": "t_bool"
					},
					"t_mapping(t_uint256,t_struct(GgovernanceTemplate)465_storage)": {
						"encoding": "mapping",
						"key": "t_uint256",
						"label": "mapping(uint256 => struct VoteData.GgovernanceTemplate)",
						"numberOfBytes": "32",
						"value": "t_struct(GgovernanceTemplate)465_storage"
					},
					"t_mapping(t_uint256,t_struct(VoteStruct)436_storage)": {
						"encoding": "mapping",
						"key": "t_uint256",
						"label": "mapping(uint256 => struct VoteData.VoteStruct)",
						"numberOfBytes": "32",
						"value": "t_struct(VoteStruct)436_storage"
					},
					"t_string_storage": {
						"encoding": "bytes",
						"label": "string",
						"numberOfBytes": "32"
					},
					"t_struct(Delegate)456_storage": {
						"encoding": "inplace",
						"label": "struct VoteData.Delegate",
						"members": [
							{
								"astId": 452,
								"contract": "contracts/Template/Istanbul10/logic/Vote.sol:Vote",
								"label": "voted",
								"offset": 0,
								"slot": "0",
								"type": "t_bool"
							},
							{
								"astId": 455,
								"contract": "contracts/Template/Istanbul10/logic/Vote.sol:Vote",
								"label": "bailor",
								"offset": 0,
								"slot": "1",
								"type": "t_array(t_address)dyn_storage"
							}
						],
						"numberOfBytes": "64"
					},
					"t_struct(GgovernanceTemplate)465_storage": {
						"encoding": "inplace",
						"label": "struct VoteData.GgovernanceTemplate",
						"members": [
							{
								"astId": 458,
								"contract": "contracts/Template/Istanbul10/logic/Vote.sol:Vote",
								"label": "templateId",
								"offset": 0,
								"slot": "0",
								"type": "t_uint256"
							},
							{
								"astId": 460,
								"contract": "contracts/Template/Istanbul10/logic/Vote.sol:Vote",
								"label": "toppic",
								"offset": 0,
								"slot": "1",
								"type": "t_string_storage"
							},
							{
								"astId": 462,
								"contract": "contracts/Template/Istanbul10/logic/Vote.sol:Vote",
								"label": "targetAddress",
								"offset": 0,
								"slot": "2",
								"type": "t_address"
							},
							{
								"astId": 464,
								"contract": "contracts/Template/Istanbul10/logic/Vote.sol:Vote",
								"label": "functionName",
								"offset": 0,
								"slot": "3",
								"type": "t_string_storage"
							}
						],
						"numberOfBytes": "128"
					},
					"t_struct(SecondBallot)450_storage": {
						"encoding": "inplace",
						"label": "struct VoteData.SecondBallot",
						"members": [
							{
								"astId": 438,
								"contract": "contracts/Template/Istanbul10/logic/Vote.sol:Vote",
								"label": "vetoer",
								"offset": 0,
								"slot": "0",
								"type": "t_address"
							},
							{
								"astId": 440,
								"contract": "contracts/Template/Istanbul10/logic/Vote.sol:Vote",
								"label": "describe",
								"offset": 0,
								"slot": "1",
								"type": "t_string_storage"
							},
							{
								"astId": 442,
								"contract": "contracts/Template/Istanbul10/logic/Vote.sol:Vote",
								"label": "supPopel",
								"offset": 0,
								"slot": "2",
								"type": "t_uint256"
							},
							{
								"astId": 444,
								"contract": "contracts/Template/Istanbul10/logic/Vote.sol:Vote",
								"label": "againstPopel",
								"offset": 0,
								"slot": "3",
								"type": "t_uint256"
							},
							{
								"astId": 449,
								"contract": "contracts/Template/Istanbul10/logic/Vote.sol:Vote",
								"label": "VoterAddress",
								"offset": 0,
								"slot": "4",
								"type": "t_mapping(t_address,t_struct(Delegate)456_storage)"
							}
						],
						"numberOfBytes": "160"
					},
					"t_struct(VoteStruct)436_storage": {
						"encoding": "inplace",
						"label": "struct VoteData.VoteStruct",
						"members": [
							{
								"astId": 406,
								"contract": "contracts/Template/Istanbul10/logic/Vote.sol:Vote",
								"label": "totalsupply",
								"offset": 0,
								"slot": "0",
								"type": "t_uint256"
							},
							{
								"astId": 408,
								"contract": "contracts/Template/Istanbul10/logic/Vote.sol:Vote",
								"label": "voteId",
								"offset": 0,
								"slot": "1",
								"type": "t_uint256"
							},
							{
								"astId": 410,
								"contract": "contracts/Template/Istanbul10/logic/Vote.sol:Vote",
								"label": "time",
								"offset": 0,
								"slot": "2",
								"type": "t_uint256"
							},
							{
								"astId": 412,
								"contract": "contracts/Template/Istanbul10/logic/Vote.sol:Vote",
								"label": "voteTopic",
								"offset": 0,
								"slot": "3",
								"type": "t_string_storage"
							},
							{
								"astId": 414,
								"contract": "contracts/Template/Istanbul10/logic/Vote.sol:Vote",
								"label": "initiator",
								"offset": 0,
								"slot": "4",
								"type": "t_address"
							},
							{
								"astId": 416,
								"contract": "contracts/Template/Istanbul10/logic/Vote.sol:Vote",
								"label": "describe",
								"offset": 0,
								"slot": "5",
								"type": "t_string_storage"
							},
							{
								"astId": 418,
								"contract": "contracts/Template/Istanbul10/logic/Vote.sol:Vote",
								"label": "supPopel",
								"offset": 0,
								"slot": "6",
								"type": "t_uint256"
							},
							{
								"astId": 420,
								"contract": "contracts/Template/Istanbul10/logic/Vote.sol:Vote",
								"label": "againstPopel",
								"offset": 0,
								"slot": "7",
								"type": "t_uint256"
							},
							{
								"astId": 423,
								"contract": "contracts/Template/Istanbul10/logic/Vote.sol:Vote",
								"label": "status",
								"offset": 0,
								"slot": "8",
								"type": "t_enum(VoteStatus)369"
							},
							{
								"astId": 425,
								"contract": "contracts/Template/Istanbul10/logic/Vote.sol:Vote",
								"label": "codeModel",
								"offset": 0,
								"slot": "9",
								"type": "t_uint256"
							},
							{
								"astId": 427,
								"contract": "contracts/Template/Istanbul10/logic/Vote.sol:Vote",
								"label": "value",
								"offset": 0,
								"slot": "10",
								"type": "t_uint256"
							},
							{
								"astId": 432,
								"contract": "contracts/Template/Istanbul10/logic/Vote.sol:Vote",
								"label": "VoterAddress",
								"offset": 0,
								"slot": "11",
								"type": "t_mapping(t_address,t_struct(Delegate)456_storage)"
							},
							{
								"astId": 435,
								"contract": "contracts/Template/Istanbul10/logic/Vote.sol:Vote",
								"label": "svote",
								"offset": 0,
								"slot": "12",
								"type": "t_struct(SecondBallot)450_storage"
							}
						],
						"numberOfBytes": "544"
					},
					"t_uint256": {
						"encoding": "inplace",
						"label": "uint256",
						"numberOfBytes": "32"
					}
				}
			},
			"userdoc": {
				"kind": "user",
				"methods": {
					"createVote(string,string,uint256,uint256)": {
						"notice": "notion createVote. param  codeModel_  GovernanceTemplate ID."
					},
					"execute(uint256)": {
						"notice": "notion If the vote passes execute the proposal. param  voteId_   voteID"
					},
					"initialize()": {
						"notice": "param  _veToken the  value for  connect veToken"
					},
					"reject(uint256,string)": {
						"notice": "notion rejecting the proposal. param  _voteId   VoteId param  _reasons   The reasons for rejecting the proposal"
					},
					"setGovernanceTemplate(string,address,string)": {
						"notice": "notion Templates should be set up before voting"
					},
					"toVote(uint256,bool)": {
						"notice": "notion Vote. param  result_   VoteId param  voteId_  false or true"
					}
				},
				"version": 1
			}
		}
	}
}