{
	"contracts/Template/Istanbul10/logic/Vote.sol": {
		"Vote": {
			"abi": [
				{
					"anonymous": false,
					"inputs": [
						{
							"indexed": true,
							"internalType": "uint256",
							"name": "_voteId",
							"type": "uint256"
						},
						{
							"indexed": true,
							"internalType": "string",
							"name": "_voteTopic",
							"type": "string"
						},
						{
							"indexed": true,
							"internalType": "string",
							"name": "_describe",
							"type": "string"
						},
						{
							"indexed": false,
							"internalType": "uint256",
							"name": "_codeModel",
							"type": "uint256"
						},
						{
							"indexed": false,
							"internalType": "uint256",
							"name": "_valaue",
							"type": "uint256"
						}
					],
					"name": "CreateVoteEvent",
					"type": "event"
				},
				{
					"anonymous": false,
					"inputs": [
						{
							"indexed": true,
							"internalType": "uint256",
							"name": "_voteId",
							"type": "uint256"
						},
						{
							"indexed": false,
							"internalType": "address",
							"name": "_to",
							"type": "address"
						}
					],
					"name": "DelegateToEvent",
					"type": "event"
				},
				{
					"anonymous": false,
					"inputs": [
						{
							"indexed": true,
							"internalType": "uint256",
							"name": "_voteId",
							"type": "uint256"
						}
					],
					"name": "ExecuteEvent",
					"type": "event"
				},
				{
					"anonymous": false,
					"inputs": [
						{
							"indexed": true,
							"internalType": "address",
							"name": "_veToken",
							"type": "address"
						}
					],
					"name": "InitializeEvent",
					"type": "event"
				},
				{
					"anonymous": false,
					"inputs": [
						{
							"indexed": true,
							"internalType": "uint256",
							"name": "_voteId",
							"type": "uint256"
						},
						{
							"indexed": false,
							"internalType": "string",
							"name": "_reasons",
							"type": "string"
						}
					],
					"name": "RejectEvent",
					"type": "event"
				},
				{
					"anonymous": false,
					"inputs": [
						{
							"indexed": false,
							"internalType": "string",
							"name": "_topic",
							"type": "string"
						},
						{
							"indexed": false,
							"internalType": "address",
							"name": "_targetAddress",
							"type": "address"
						},
						{
							"indexed": false,
							"internalType": "string",
							"name": "_functionName",
							"type": "string"
						}
					],
					"name": "SetGovernanceTemplateEvent",
					"type": "event"
				},
				{
					"anonymous": false,
					"inputs": [
						{
							"indexed": true,
							"internalType": "uint256",
							"name": "_voteId",
							"type": "uint256"
						},
						{
							"indexed": false,
							"internalType": "bool",
							"name": "_result",
							"type": "bool"
						}
					],
					"name": "ToVoteEvent",
					"type": "event"
				},
				{
					"inputs": [],
					"name": "TemplateTotal",
					"outputs": [
						{
							"internalType": "uint256",
							"name": "",
							"type": "uint256"
						}
					],
					"stateMutability": "view",
					"type": "function"
				},
				{
					"inputs": [
						{
							"internalType": "string",
							"name": "_voteTopic",
							"type": "string"
						},
						{
							"internalType": "string",
							"name": "_describe",
							"type": "string"
						},
						{
							"internalType": "uint256",
							"name": "_codeModel",
							"type": "uint256"
						},
						{
							"internalType": "uint256",
							"name": "_valaue",
							"type": "uint256"
						}
					],
					"name": "createVote",
					"outputs": [
						{
							"internalType": "uint256",
							"name": "voteId",
							"type": "uint256"
						}
					],
					"stateMutability": "nonpayable",
					"type": "function"
				},
				{
					"inputs": [
						{
							"internalType": "uint256",
							"name": "_voteId",
							"type": "uint256"
						},
						{
							"internalType": "address",
							"name": "_to",
							"type": "address"
						}
					],
					"name": "delegateTo",
					"outputs": [],
					"stateMutability": "nonpayable",
					"type": "function"
				},
				{
					"inputs": [
						{
							"internalType": "uint256",
							"name": "_voteId",
							"type": "uint256"
						}
					],
					"name": "execute",
					"outputs": [],
					"stateMutability": "nonpayable",
					"type": "function"
				},
				{
					"inputs": [
						{
							"internalType": "uint256",
							"name": "",
							"type": "uint256"
						}
					],
					"name": "executeQueue",
					"outputs": [
						{
							"internalType": "uint256",
							"name": "",
							"type": "uint256"
						}
					],
					"stateMutability": "view",
					"type": "function"
				},
				{
					"inputs": [
						{
							"internalType": "uint256",
							"name": "",
							"type": "uint256"
						}
					],
					"name": "executeQueueMap",
					"outputs": [
						{
							"internalType": "bool",
							"name": "",
							"type": "bool"
						}
					],
					"stateMutability": "view",
					"type": "function"
				},
				{
					"inputs": [],
					"name": "getTemplate",
					"outputs": [
						{
							"components": [
								{
									"internalType": "uint256",
									"name": "templateId",
									"type": "uint256"
								},
								{
									"internalType": "string",
									"name": "toppic",
									"type": "string"
								},
								{
									"internalType": "address",
									"name": "targetAddress",
									"type": "address"
								},
								{
									"internalType": "string",
									"name": "functionName",
									"type": "string"
								}
							],
							"internalType": "struct VoteData.GgovernanceTemplate[]",
							"name": "re",
							"type": "tuple[]"
						}
					],
					"stateMutability": "view",
					"type": "function"
				},
				{
					"inputs": [
						{
							"internalType": "uint256",
							"name": "_voteId",
							"type": "uint256"
						}
					],
					"name": "getVoteDetailwithVoteId",
					"outputs": [
						{
							"internalType": "string",
							"name": "voteTopic",
							"type": "string"
						},
						{
							"internalType": "string",
							"name": "describe",
							"type": "string"
						},
						{
							"internalType": "address",
							"name": "initiator",
							"type": "address"
						}
					],
					"stateMutability": "view",
					"type": "function"
				},
				{
					"inputs": [
						{
							"internalType": "uint256",
							"name": "_voteId",
							"type": "uint256"
						}
					],
					"name": "getVoteStatuswithVoteId",
					"outputs": [
						{
							"internalType": "uint256",
							"name": "status",
							"type": "uint256"
						}
					],
					"stateMutability": "view",
					"type": "function"
				},
				{
					"inputs": [],
					"name": "initialize",
					"outputs": [],
					"stateMutability": "nonpayable",
					"type": "function"
				},
				{
					"inputs": [
						{
							"internalType": "uint256",
							"name": "_voteId",
							"type": "uint256"
						},
						{
							"internalType": "string",
							"name": "_reasons",
							"type": "string"
						}
					],
					"name": "reject",
					"outputs": [],
					"stateMutability": "nonpayable",
					"type": "function"
				},
				{
					"inputs": [],
					"name": "router",
					"outputs": [
						{
							"internalType": "address",
							"name": "",
							"type": "address"
						}
					],
					"stateMutability": "view",
					"type": "function"
				},
				{
					"inputs": [
						{
							"internalType": "string",
							"name": "_topic",
							"type": "string"
						},
						{
							"internalType": "address",
							"name": "_targetAddress",
							"type": "address"
						},
						{
							"internalType": "string",
							"name": "_functionName",
							"type": "string"
						}
					],
					"name": "setGovernanceTemplate",
					"outputs": [],
					"stateMutability": "nonpayable",
					"type": "function"
				},
				{
					"inputs": [
						{
							"internalType": "uint256",
							"name": "_voteId",
							"type": "uint256"
						},
						{
							"internalType": "bool",
							"name": "_result",
							"type": "bool"
						}
					],
					"name": "toVote",
					"outputs": [],
					"stateMutability": "nonpayable",
					"type": "function"
				},
				{
					"inputs": [],
					"name": "veToken",
					"outputs": [
						{
							"internalType": "contract VeTokenTest",
							"name": "",
							"type": "address"
						}
					],
					"stateMutability": "view",
					"type": "function"
				},
				{
					"inputs": [],
					"name": "voteTatola",
					"outputs": [
						{
							"internalType": "uint256",
							"name": "",
							"type": "uint256"
						}
					],
					"stateMutability": "view",
					"type": "function"
				},
				{
					"inputs": [
						{
							"internalType": "uint256",
							"name": "_voteId",
							"type": "uint256"
						}
					],
					"name": "winningProposal",
					"outputs": [
						{
							"internalType": "uint256",
							"name": "forVote",
							"type": "uint256"
						},
						{
							"internalType": "uint256",
							"name": "againstVote",
							"type": "uint256"
						},
						{
							"internalType": "uint256",
							"name": "forVote2",
							"type": "uint256"
						},
						{
							"internalType": "uint256",
							"name": "againstVote2",
							"type": "uint256"
						},
						{
							"internalType": "uint256",
							"name": "time",
							"type": "uint256"
						}
					],
					"stateMutability": "view",
					"type": "function"
				}
			],
			"devdoc": {
				"kind": "dev",
				"methods": {
					"delegateTo(uint256,address)": {
						"details": "Entrust someone else to vote"
					},
					"winningProposal(uint256)": {
						"details": "calculates the current winning proposal based on all the current votes"
					}
				},
				"version": 1
			},
			"evm": {
				"assembly": "    /* \"contracts/Template/Istanbul10/logic/Vote.sol\":161:8933  contract Vote is IVote , VoteData {\r... */\n  mstore(0x40, 0x80)\n    /* \"contracts/Template/Istanbul10/data/VoteData.sol\":381:390  1 minutes */\n  0x3c\n    /* \"contracts/Template/Istanbul10/data/VoteData.sol\":362:390  uint256 voteTime = 1 minutes */\n  0x00\n  sstore\n    /* \"contracts/Template/Istanbul10/data/VoteData.sol\":460:469  1 minutes */\n  0x3c\n    /* \"contracts/Template/Istanbul10/data/VoteData.sol\":439:469  uint256 bufferTime = 1 minutes */\n  0x01\n  sstore\n    /* \"contracts/Template/Istanbul10/logic/Vote.sol\":161:8933  contract Vote is IVote , VoteData {\r... */\n  callvalue\n  dup1\n  iszero\n  tag_1\n  jumpi\n  0x00\n  dup1\n  revert\ntag_1:\n  pop\n  dataSize(sub_0)\n  dup1\n  dataOffset(sub_0)\n  0x00\n  codecopy\n  0x00\n  return\nstop\n\nsub_0: assembly {\n        /* \"contracts/Template/Istanbul10/logic/Vote.sol\":161:8933  contract Vote is IVote , VoteData {\r... */\n      mstore(0x40, 0x80)\n      callvalue\n      dup1\n      iszero\n      tag_1\n      jumpi\n      0x00\n      dup1\n      revert\n    tag_1:\n      pop\n      jumpi(tag_2, lt(calldatasize, 0x04))\n      shr(0xe0, calldataload(0x00))\n      dup1\n      0x8129fc1c\n      gt\n      tag_20\n      jumpi\n      dup1\n      0xe3a1c1c7\n      gt\n      tag_21\n      jumpi\n      dup1\n      0xe3a1c1c7\n      eq\n      tag_15\n      jumpi\n      dup1\n      0xf887ea40\n      eq\n      tag_16\n      jumpi\n      dup1\n      0xf9d793d1\n      eq\n      tag_17\n      jumpi\n      dup1\n      0xfc7881c6\n      eq\n      tag_18\n      jumpi\n      dup1\n      0xfe0d94c1\n      eq\n      tag_19\n      jumpi\n      0x00\n      dup1\n      revert\n    tag_21:\n      dup1\n      0x8129fc1c\n      eq\n      tag_11\n      jumpi\n      dup1\n      0x82214856\n      eq\n      tag_12\n      jumpi\n      dup1\n      0xbcd60f6c\n      eq\n      tag_13\n      jumpi\n      dup1\n      0xd9ae5bd5\n      eq\n      tag_14\n      jumpi\n      0x00\n      dup1\n      revert\n    tag_20:\n      dup1\n      0x71d68a97\n      gt\n      tag_22\n      jumpi\n      dup1\n      0x71d68a97\n      eq\n      tag_7\n      jumpi\n      dup1\n      0x74786f69\n      eq\n      tag_8\n      jumpi\n      dup1\n      0x75bb5b09\n      eq\n      tag_9\n      jumpi\n      dup1\n      0x75c112a1\n      eq\n      tag_10\n      jumpi\n      0x00\n      dup1\n      revert\n    tag_22:\n      dup1\n      0x2c9e3ef0\n      eq\n      tag_3\n      jumpi\n      dup1\n      0x321c48f2\n      eq\n      tag_4\n      jumpi\n      dup1\n      0x3b92eb23\n      eq\n      tag_5\n      jumpi\n      dup1\n      0x52538550\n      eq\n      tag_6\n      jumpi\n    tag_2:\n      0x00\n      dup1\n      revert\n        /* \"contracts/Template/Istanbul10/data/VoteData.sol\":746:793  mapping(uint256 => bool) public executeQueueMap */\n    tag_3:\n      tag_23\n      tag_24\n      calldatasize\n      0x04\n      tag_25\n      jump\t// in\n    tag_24:\n      mstore(0x20, 0x09)\n      0x00\n      swap1\n      dup2\n      mstore\n      0x40\n      swap1\n      keccak256\n      sload\n      0xff\n      and\n      dup2\n      jump\n    tag_23:\n      mload(0x40)\n        /* \"#utility.yul\":6161:6175   */\n      swap1\n      iszero\n        /* \"#utility.yul\":6154:6176   */\n      iszero\n        /* \"#utility.yul\":6136:6177   */\n      dup2\n      mstore\n        /* \"#utility.yul\":6124:6126   */\n      0x20\n        /* \"#utility.yul\":6109:6127   */\n      add\n        /* \"contracts/Template/Istanbul10/data/VoteData.sol\":746:793  mapping(uint256 => bool) public executeQueueMap */\n    tag_27:\n      mload(0x40)\n      dup1\n      swap2\n      sub\n      swap1\n      return\n        /* \"contracts/Template/Istanbul10/logic/Vote.sol\":6007:6300  function getTemplate()public view  returns(GgovernanceTemplate[] memory re){\r... */\n    tag_4:\n      tag_29\n      tag_30\n      jump\t// in\n    tag_29:\n      mload(0x40)\n      tag_27\n      swap2\n      swap1\n      tag_32\n      jump\t// in\n        /* \"contracts/Template/Istanbul10/data/VoteData.sol\":510:536  VeTokenTest public veToken */\n    tag_5:\n      sload(0x03)\n      tag_33\n      swap1\n      sub(shl(0xa0, 0x01), 0x01)\n      and\n      dup2\n      jump\n    tag_33:\n      mload(0x40)\n      sub(shl(0xa0, 0x01), 0x01)\n        /* \"#utility.yul\":4584:4616   */\n      swap1\n      swap2\n      and\n        /* \"#utility.yul\":4566:4617   */\n      dup2\n      mstore\n        /* \"#utility.yul\":4554:4556   */\n      0x20\n        /* \"#utility.yul\":4539:4557   */\n      add\n        /* \"contracts/Template/Istanbul10/data/VoteData.sol\":510:536  VeTokenTest public veToken */\n      tag_27\n        /* \"#utility.yul\":4521:4623   */\n      jump\n        /* \"contracts/Template/Istanbul10/data/VoteData.sol\":572:602  uint256[] public  executeQueue */\n    tag_6:\n      tag_37\n      tag_38\n      calldatasize\n      0x04\n      tag_25\n      jump\t// in\n    tag_38:\n      tag_39\n      jump\t// in\n    tag_37:\n      mload(0x40)\n        /* \"#utility.yul\":13187:13212   */\n      swap1\n      dup2\n      mstore\n        /* \"#utility.yul\":13175:13177   */\n      0x20\n        /* \"#utility.yul\":13160:13178   */\n      add\n        /* \"contracts/Template/Istanbul10/data/VoteData.sol\":572:602  uint256[] public  executeQueue */\n      tag_27\n        /* \"#utility.yul\":13142:13218   */\n      jump\n        /* \"contracts/Template/Istanbul10/logic/Vote.sol\":3625:4375  function reject(uint256 _voteId,string memory _reasons) public override {\r... */\n    tag_7:\n      tag_42\n      tag_43\n      calldatasize\n      0x04\n      tag_44\n      jump\t// in\n    tag_43:\n      tag_45\n      jump\t// in\n    tag_42:\n      stop\n        /* \"contracts/Template/Istanbul10/logic/Vote.sol\":8061:8368  function getVoteDetailwithVoteId(uint256 _voteId) public view returns(\r... */\n    tag_8:\n      tag_46\n      tag_47\n      calldatasize\n      0x04\n      tag_25\n      jump\t// in\n    tag_47:\n      tag_48\n      jump\t// in\n    tag_46:\n      mload(0x40)\n      tag_27\n      swap4\n      swap3\n      swap2\n      swap1\n      tag_50\n      jump\t// in\n        /* \"contracts/Template/Istanbul10/data/VoteData.sol\":543:565  uint public voteTatola */\n    tag_9:\n      tag_37\n      sload(0x04)\n      dup2\n      jump\n        /* \"contracts/Template/Istanbul10/data/VoteData.sol\":609:639  uint256  public  TemplateTotal */\n    tag_10:\n      tag_37\n      sload(0x06)\n      dup2\n      jump\n        /* \"contracts/Template/Istanbul10/logic/Vote.sol\":209:402  function initialize() override external{\r... */\n    tag_11:\n      tag_42\n      tag_58\n      jump\t// in\n        /* \"contracts/Template/Istanbul10/logic/Vote.sol\":1593:3556  function toVote(uint256 _voteId,bool _result) public override {\r... */\n    tag_12:\n      tag_42\n      tag_60\n      calldatasize\n      0x04\n      tag_61\n      jump\t// in\n    tag_60:\n      tag_62\n      jump\t// in\n        /* \"contracts/Template/Istanbul10/logic/Vote.sol\":8461:8930  function winningProposal(uint256 _voteId) public override  view returns(uint256 forVote,\r... */\n    tag_13:\n      tag_63\n      tag_64\n      calldatasize\n      0x04\n      tag_25\n      jump\t// in\n    tag_64:\n        /* \"contracts/Template/Istanbul10/logic/Vote.sol\":8533:8548  uint256 forVote */\n      0x00\n        /* \"contracts/Template/Istanbul10/logic/Vote.sol\":8708:8725  voteMapp[_voteId] */\n      swap1\n      dup2\n      mstore\n        /* \"contracts/Template/Istanbul10/logic/Vote.sol\":8708:8716  voteMapp */\n      0x07\n        /* \"contracts/Template/Istanbul10/logic/Vote.sol\":8708:8725  voteMapp[_voteId] */\n      0x20\n      dup2\n      swap1\n      mstore\n      0x40\n      swap1\n      swap2\n      keccak256\n        /* \"contracts/Template/Istanbul10/logic/Vote.sol\":8746:8760  _vote.supPopel */\n      0x06\n      dup2\n      add\n      sload\n        /* \"contracts/Template/Istanbul10/logic/Vote.sol\":8785:8803  _vote.againstPopel */\n      swap2\n      dup2\n      add\n      sload\n        /* \"contracts/Template/Istanbul10/logic/Vote.sol\":8825:8845  _vote.svote.supPopel */\n      0x0e\n      dup3\n      add\n      sload\n        /* \"contracts/Template/Istanbul10/logic/Vote.sol\":8871:8895  _vote.svote.againstPopel */\n      0x0f\n      dup4\n      add\n      sload\n        /* \"contracts/Template/Istanbul10/logic/Vote.sol\":8825:8845  _vote.svote.supPopel */\n      0x02\n        /* \"contracts/Template/Istanbul10/logic/Vote.sol\":8912:8922  _vote.time */\n      swap1\n      swap4\n      add\n      sload\n        /* \"contracts/Template/Istanbul10/logic/Vote.sol\":8746:8760  _vote.supPopel */\n      swap4\n      swap5\n        /* \"contracts/Template/Istanbul10/logic/Vote.sol\":8785:8803  _vote.againstPopel */\n      swap2\n      swap4\n        /* \"contracts/Template/Istanbul10/logic/Vote.sol\":8825:8845  _vote.svote.supPopel */\n      swap1\n      swap3\n        /* \"contracts/Template/Istanbul10/logic/Vote.sol\":8871:8895  _vote.svote.againstPopel */\n      swap2\n        /* \"contracts/Template/Istanbul10/logic/Vote.sol\":8461:8930  function winningProposal(uint256 _voteId) public override  view returns(uint256 forVote,\r... */\n      jump\n    tag_63:\n      0x40\n      dup1\n      mload\n        /* \"#utility.yul\":13735:13760   */\n      swap6\n      dup7\n      mstore\n        /* \"#utility.yul\":13791:13793   */\n      0x20\n        /* \"#utility.yul\":13776:13794   */\n      dup7\n      add\n        /* \"#utility.yul\":13769:13803   */\n      swap5\n      swap1\n      swap5\n      mstore\n        /* \"#utility.yul\":13819:13837   */\n      swap3\n      dup5\n      add\n        /* \"#utility.yul\":13812:13846   */\n      swap2\n      swap1\n      swap2\n      mstore\n        /* \"#utility.yul\":13877:13879   */\n      0x60\n        /* \"#utility.yul\":13862:13880   */\n      dup4\n      add\n        /* \"#utility.yul\":13855:13889   */\n      mstore\n        /* \"#utility.yul\":13920:13923   */\n      0x80\n        /* \"#utility.yul\":13905:13924   */\n      dup3\n      add\n        /* \"#utility.yul\":13898:13933   */\n      mstore\n        /* \"#utility.yul\":13722:13725   */\n      0xa0\n        /* \"#utility.yul\":13707:13726   */\n      add\n        /* \"contracts/Template/Istanbul10/logic/Vote.sol\":8461:8930  function winningProposal(uint256 _voteId) public override  view returns(uint256 forVote,\r... */\n      tag_27\n        /* \"#utility.yul\":13689:13939   */\n      jump\n        /* \"contracts/Template/Istanbul10/logic/Vote.sol\":7858:8048  function getVoteStatuswithVoteId(uint256 _voteId) public view returns (uint256  status){\r... */\n    tag_14:\n      tag_37\n      tag_69\n      calldatasize\n      0x04\n      tag_25\n      jump\t// in\n    tag_69:\n      tag_70\n      jump\t// in\n        /* \"contracts/Template/Istanbul10/logic/Vote.sol\":7342:7850  function setGovernanceTemplate(string memory _topic,address _targetAddress,string memory  _functionName) public override {\r... */\n    tag_15:\n      tag_42\n      tag_73\n      calldatasize\n      0x04\n      tag_74\n      jump\t// in\n    tag_73:\n      tag_75\n      jump\t// in\n        /* \"contracts/Template/Istanbul10/data/VoteData.sol\":482:503  address public router */\n    tag_16:\n      sload(0x02)\n      tag_33\n      swap1\n      sub(shl(0xa0, 0x01), 0x01)\n      and\n      dup2\n      jump\n        /* \"contracts/Template/Istanbul10/logic/Vote.sol\":538:1551  function createVote(\r... */\n    tag_17:\n      tag_37\n      tag_81\n      calldatasize\n      0x04\n      tag_82\n      jump\t// in\n    tag_81:\n      tag_83\n      jump\t// in\n        /* \"contracts/Template/Istanbul10/logic/Vote.sol\":6702:7334  function delegateTo(uint256 _voteId,address _to)public override {\r... */\n    tag_18:\n      tag_42\n      tag_86\n      calldatasize\n      0x04\n      tag_87\n      jump\t// in\n    tag_86:\n      tag_88\n      jump\t// in\n        /* \"contracts/Template/Istanbul10/logic/Vote.sol\":4451:5643  function execute(uint256 _voteId) public override {\r... */\n    tag_19:\n      tag_42\n      tag_90\n      calldatasize\n      0x04\n      tag_25\n      jump\t// in\n    tag_90:\n      tag_91\n      jump\t// in\n        /* \"contracts/Template/Istanbul10/logic/Vote.sol\":6007:6300  function getTemplate()public view  returns(GgovernanceTemplate[] memory re){\r... */\n    tag_30:\n        /* \"contracts/Template/Istanbul10/logic/Vote.sol\":6050:6081  GgovernanceTemplate[] memory re */\n      0x60\n        /* \"contracts/Template/Istanbul10/logic/Vote.sol\":6093:6126  GgovernanceTemplate[]  memory arr */\n      0x00\n        /* \"contracts/Template/Istanbul10/logic/Vote.sol\":6156:6169  TemplateTotal */\n      sload(0x06)\n        /* \"contracts/Template/Istanbul10/logic/Vote.sol\":6129:6170  new GgovernanceTemplate[] (TemplateTotal) */\n      0xffffffffffffffff\n      dup2\n      gt\n      iszero\n      tag_94\n      jumpi\n      tag_94\n      tag_95\n      jump\t// in\n    tag_94:\n      mload(0x40)\n      swap1\n      dup1\n      dup3\n      mstore\n      dup1\n      0x20\n      mul\n      0x20\n      add\n      dup3\n      add\n      0x40\n      mstore\n      dup1\n      iszero\n      tag_96\n      jumpi\n      dup2\n      0x20\n      add\n    tag_97:\n      tag_98\n      mload(0x40)\n      dup1\n      0x80\n      add\n      0x40\n      mstore\n      dup1\n      0x00\n      dup2\n      mstore\n      0x20\n      add\n      0x60\n      dup2\n      mstore\n      0x20\n      add\n      and(sub(shl(0xa0, 0x01), 0x01), 0x00)\n      dup2\n      mstore\n      0x20\n      add\n      0x60\n      dup2\n      mstore\n      pop\n      swap1\n      jump\n    tag_98:\n      dup2\n      mstore\n      0x20\n      add\n      swap1\n      0x01\n      swap1\n      sub\n      swap1\n      dup2\n      tag_97\n      jumpi\n      swap1\n      pop\n    tag_96:\n      pop\n        /* \"contracts/Template/Istanbul10/logic/Vote.sol\":6093:6170  GgovernanceTemplate[]  memory arr = new GgovernanceTemplate[] (TemplateTotal) */\n      swap1\n      pop\n        /* \"contracts/Template/Istanbul10/logic/Vote.sol\":6185:6191  uint i */\n      0x00\n        /* \"contracts/Template/Istanbul10/logic/Vote.sol\":6181:6271  for(uint i = 0; i < TemplateTotal; ++i){\r... */\n    tag_100:\n        /* \"contracts/Template/Istanbul10/logic/Vote.sol\":6201:6214  TemplateTotal */\n      sload(0x06)\n        /* \"contracts/Template/Istanbul10/logic/Vote.sol\":6197:6198  i */\n      dup2\n        /* \"contracts/Template/Istanbul10/logic/Vote.sol\":6197:6214  i < TemplateTotal */\n      lt\n        /* \"contracts/Template/Istanbul10/logic/Vote.sol\":6181:6271  for(uint i = 0; i < TemplateTotal; ++i){\r... */\n      iszero\n      tag_101\n      jumpi\n        /* \"contracts/Template/Istanbul10/logic/Vote.sol\":6248:6256  Template */\n      0x08\n        /* \"contracts/Template/Istanbul10/logic/Vote.sol\":6248:6259  Template[i] */\n      0x00\n        /* \"contracts/Template/Istanbul10/logic/Vote.sol\":6257:6258  i */\n      dup3\n        /* \"contracts/Template/Istanbul10/logic/Vote.sol\":6248:6259  Template[i] */\n      dup2\n      mstore\n      0x20\n      add\n      swap1\n      dup2\n      mstore\n      0x20\n      add\n      0x00\n      keccak256\n        /* \"contracts/Template/Istanbul10/logic/Vote.sol\":6239:6259  arr[i] = Template[i] */\n      mload(0x40)\n      dup1\n      0x80\n      add\n      0x40\n      mstore\n      swap1\n      dup2\n      0x00\n      dup3\n      add\n      sload\n      dup2\n      mstore\n      0x20\n      add\n      0x01\n      dup3\n      add\n      dup1\n      sload\n      tag_103\n      swap1\n      tag_104\n      jump\t// in\n    tag_103:\n      dup1\n      0x1f\n      add\n      0x20\n      dup1\n      swap2\n      div\n      mul\n      0x20\n      add\n      mload(0x40)\n      swap1\n      dup2\n      add\n      0x40\n      mstore\n      dup1\n      swap3\n      swap2\n      swap1\n      dup2\n      dup2\n      mstore\n      0x20\n      add\n      dup3\n      dup1\n      sload\n      tag_105\n      swap1\n      tag_104\n      jump\t// in\n    tag_105:\n      dup1\n      iszero\n      tag_106\n      jumpi\n      dup1\n      0x1f\n      lt\n      tag_107\n      jumpi\n      0x0100\n      dup1\n      dup4\n      sload\n      div\n      mul\n      dup4\n      mstore\n      swap2\n      0x20\n      add\n      swap2\n      jump(tag_106)\n    tag_107:\n      dup3\n      add\n      swap2\n      swap1\n      0x00\n      mstore\n      keccak256(0x00, 0x20)\n      swap1\n    tag_108:\n      dup2\n      sload\n      dup2\n      mstore\n      swap1\n      0x01\n      add\n      swap1\n      0x20\n      add\n      dup1\n      dup4\n      gt\n      tag_108\n      jumpi\n      dup3\n      swap1\n      sub\n      0x1f\n      and\n      dup3\n      add\n      swap2\n    tag_106:\n      pop\n      pop\n      pop\n      swap2\n      dup4\n      mstore\n      pop\n      pop\n      0x02\n      dup3\n      add\n      sload\n      sub(shl(0xa0, 0x01), 0x01)\n      and\n      0x20\n      dup3\n      add\n      mstore\n      0x03\n      dup3\n      add\n      dup1\n      sload\n      0x40\n      swap1\n      swap3\n      add\n      swap2\n      tag_109\n      swap1\n      tag_104\n      jump\t// in\n    tag_109:\n      dup1\n      0x1f\n      add\n      0x20\n      dup1\n      swap2\n      div\n      mul\n      0x20\n      add\n      mload(0x40)\n      swap1\n      dup2\n      add\n      0x40\n      mstore\n      dup1\n      swap3\n      swap2\n      swap1\n      dup2\n      dup2\n      mstore\n      0x20\n      add\n      dup3\n      dup1\n      sload\n      tag_110\n      swap1\n      tag_104\n      jump\t// in\n    tag_110:\n      dup1\n      iszero\n      tag_111\n      jumpi\n      dup1\n      0x1f\n      lt\n      tag_112\n      jumpi\n      0x0100\n      dup1\n      dup4\n      sload\n      div\n      mul\n      dup4\n      mstore\n      swap2\n      0x20\n      add\n      swap2\n      jump(tag_111)\n    tag_112:\n      dup3\n      add\n      swap2\n      swap1\n      0x00\n      mstore\n      keccak256(0x00, 0x20)\n      swap1\n    tag_113:\n      dup2\n      sload\n      dup2\n      mstore\n      swap1\n      0x01\n      add\n      swap1\n      0x20\n      add\n      dup1\n      dup4\n      gt\n      tag_113\n      jumpi\n      dup3\n      swap1\n      sub\n      0x1f\n      and\n      dup3\n      add\n      swap2\n    tag_111:\n      pop\n      pop\n      pop\n      pop\n      pop\n      dup2\n      mstore\n      pop\n      pop\n        /* \"contracts/Template/Istanbul10/logic/Vote.sol\":6239:6242  arr */\n      dup3\n        /* \"contracts/Template/Istanbul10/logic/Vote.sol\":6243:6244  i */\n      dup3\n        /* \"contracts/Template/Istanbul10/logic/Vote.sol\":6239:6245  arr[i] */\n      dup2\n      mload\n      dup2\n      lt\n      tag_115\n      jumpi\n      tag_115\n      tag_116\n      jump\t// in\n    tag_115:\n      0x20\n      mul\n      0x20\n      add\n      add\n        /* \"contracts/Template/Istanbul10/logic/Vote.sol\":6239:6259  arr[i] = Template[i] */\n      dup2\n      swap1\n      mstore\n      pop\n        /* \"contracts/Template/Istanbul10/logic/Vote.sol\":6216:6219  ++i */\n      dup1\n      tag_117\n      swap1\n      tag_118\n      jump\t// in\n    tag_117:\n      swap1\n      pop\n        /* \"contracts/Template/Istanbul10/logic/Vote.sol\":6181:6271  for(uint i = 0; i < TemplateTotal; ++i){\r... */\n      jump(tag_100)\n    tag_101:\n      pop\n        /* \"contracts/Template/Istanbul10/logic/Vote.sol\":6288:6291  arr */\n      swap2\n        /* \"contracts/Template/Istanbul10/logic/Vote.sol\":6007:6300  function getTemplate()public view  returns(GgovernanceTemplate[] memory re){\r... */\n      swap1\n      pop\n      jump\t// out\n        /* \"contracts/Template/Istanbul10/data/VoteData.sol\":572:602  uint256[] public  executeQueue */\n    tag_39:\n      0x05\n      dup2\n      dup2\n      sload\n      dup2\n      lt\n      tag_119\n      jumpi\n      0x00\n      dup1\n      revert\n    tag_119:\n      0x00\n      swap2\n      dup3\n      mstore\n      0x20\n      swap1\n      swap2\n      keccak256\n      add\n      sload\n      swap1\n      pop\n      dup2\n      jump\t// out\n        /* \"contracts/Template/Istanbul10/logic/Vote.sol\":3625:4375  function reject(uint256 _voteId,string memory _reasons) public override {\r... */\n    tag_45:\n        /* \"contracts/Template/Istanbul10/logic/Vote.sol\":3708:3728  uint256 _totalsupply */\n      0x00\n        /* \"contracts/Template/Istanbul10/logic/Vote.sol\":3753:3757  1000 */\n      0x03e8\n        /* \"contracts/Template/Istanbul10/logic/Vote.sol\":3731:3738  veToken */\n      0x03\n      0x00\n      swap1\n      sload\n      swap1\n      0x0100\n      exp\n      swap1\n      div\n      sub(shl(0xa0, 0x01), 0x01)\n      and\n      sub(shl(0xa0, 0x01), 0x01)\n        /* \"contracts/Template/Istanbul10/logic/Vote.sol\":3731:3750  veToken.totalSupply */\n      and\n      0x18160ddd\n        /* \"contracts/Template/Istanbul10/logic/Vote.sol\":3731:3752  veToken.totalSupply() */\n      mload(0x40)\n      dup2\n      0xffffffff\n      and\n      0xe0\n      shl\n      dup2\n      mstore\n      0x04\n      add\n      0x20\n      mload(0x40)\n      dup1\n      dup4\n      sub\n      dup2\n      dup7\n      dup1\n      extcodesize\n      iszero\n      dup1\n      iszero\n      tag_122\n      jumpi\n      0x00\n      dup1\n      revert\n    tag_122:\n      pop\n      gas\n      staticcall\n      iszero\n      dup1\n      iszero\n      tag_124\n      jumpi\n      returndatasize\n      0x00\n      dup1\n      returndatacopy\n      revert(0x00, returndatasize)\n    tag_124:\n      pop\n      pop\n      pop\n      pop\n      mload(0x40)\n      returndatasize\n      not(0x1f)\n      0x1f\n      dup3\n      add\n      and\n      dup3\n      add\n      dup1\n      0x40\n      mstore\n      pop\n      dup2\n      add\n      swap1\n      tag_125\n      swap2\n      swap1\n      tag_126\n      jump\t// in\n    tag_125:\n        /* \"contracts/Template/Istanbul10/logic/Vote.sol\":3731:3757  veToken.totalSupply()/1000 */\n      tag_127\n      swap2\n      swap1\n      tag_128\n      jump\t// in\n    tag_127:\n        /* \"contracts/Template/Istanbul10/logic/Vote.sol\":3731:3760  veToken.totalSupply()/1000*50 */\n      tag_129\n      swap1\n        /* \"contracts/Template/Istanbul10/logic/Vote.sol\":3758:3760  50 */\n      0x32\n        /* \"contracts/Template/Istanbul10/logic/Vote.sol\":3731:3760  veToken.totalSupply()/1000*50 */\n      tag_130\n      jump\t// in\n    tag_129:\n        /* \"contracts/Template/Istanbul10/logic/Vote.sol\":3779:3786  veToken */\n      sload(0x03)\n        /* \"contracts/Template/Istanbul10/logic/Vote.sol\":3779:3808  veToken.balanceOf(msg.sender) */\n      mload(0x40)\n      shl(0xe0, 0x70a08231)\n      dup2\n      mstore\n        /* \"contracts/Template/Istanbul10/logic/Vote.sol\":3797:3807  msg.sender */\n      caller\n        /* \"contracts/Template/Istanbul10/logic/Vote.sol\":3779:3808  veToken.balanceOf(msg.sender) */\n      0x04\n      dup3\n      add\n        /* \"#utility.yul\":4566:4617   */\n      mstore\n        /* \"contracts/Template/Istanbul10/logic/Vote.sol\":3708:3760  uint256 _totalsupply = veToken.totalSupply()/1000*50 */\n      swap2\n      swap3\n      pop\n      dup3\n      swap2\n      sub(shl(0xa0, 0x01), 0x01)\n        /* \"contracts/Template/Istanbul10/logic/Vote.sol\":3779:3786  veToken */\n      swap1\n      swap2\n      and\n      swap1\n        /* \"contracts/Template/Istanbul10/logic/Vote.sol\":3779:3796  veToken.balanceOf */\n      0x70a08231\n      swap1\n        /* \"#utility.yul\":4539:4557   */\n      0x24\n      add\n        /* \"contracts/Template/Istanbul10/logic/Vote.sol\":3779:3808  veToken.balanceOf(msg.sender) */\n      0x20\n      mload(0x40)\n      dup1\n      dup4\n      sub\n      dup2\n      dup7\n      dup1\n      extcodesize\n      iszero\n      dup1\n      iszero\n      tag_132\n      jumpi\n      0x00\n      dup1\n      revert\n    tag_132:\n      pop\n      gas\n      staticcall\n      iszero\n      dup1\n      iszero\n      tag_134\n      jumpi\n      returndatasize\n      0x00\n      dup1\n      returndatacopy\n      revert(0x00, returndatasize)\n    tag_134:\n      pop\n      pop\n      pop\n      pop\n      mload(0x40)\n      returndatasize\n      not(0x1f)\n      0x1f\n      dup3\n      add\n      and\n      dup3\n      add\n      dup1\n      0x40\n      mstore\n      pop\n      dup2\n      add\n      swap1\n      tag_135\n      swap2\n      swap1\n      tag_126\n      jump\t// in\n    tag_135:\n        /* \"contracts/Template/Istanbul10/logic/Vote.sol\":3779:3824  veToken.balanceOf(msg.sender) >= _totalsupply */\n      lt\n      iszero\n        /* \"contracts/Template/Istanbul10/logic/Vote.sol\":3771:3869  require(veToken.balanceOf(msg.sender) >= _totalsupply,\"veToken Less than 30 percent of the total\") */\n      tag_136\n      jumpi\n      mload(0x40)\n      shl(0xe5, 0x461bcd)\n      dup2\n      mstore\n      0x04\n      add\n      tag_137\n      swap1\n      tag_138\n      jump\t// in\n    tag_137:\n      mload(0x40)\n      dup1\n      swap2\n      sub\n      swap1\n      revert\n    tag_136:\n        /* \"contracts/Template/Istanbul10/logic/Vote.sol\":3882:3907  VoteStruct storage  _vote */\n      0x00\n        /* \"contracts/Template/Istanbul10/logic/Vote.sol\":3910:3927  voteMapp[_voteId] */\n      dup4\n      dup2\n      mstore\n        /* \"contracts/Template/Istanbul10/logic/Vote.sol\":3910:3918  voteMapp */\n      0x07\n        /* \"contracts/Template/Istanbul10/logic/Vote.sol\":3910:3927  voteMapp[_voteId] */\n      0x20\n      mstore\n      0x40\n      swap1\n      keccak256\n        /* \"contracts/Template/Istanbul10/logic/Vote.sol\":3967:3977  _vote.time */\n      0x02\n      dup2\n      add\n      sload\n        /* \"contracts/Template/Istanbul10/logic/Vote.sol\":3948:3963  block.timestamp */\n      timestamp\n        /* \"contracts/Template/Istanbul10/logic/Vote.sol\":3948:3977  block.timestamp >= _vote.time */\n      lt\n      dup1\n      iszero\n      swap1\n        /* \"contracts/Template/Istanbul10/logic/Vote.sol\":3948:4022  block.timestamp >= _vote.time && block.timestamp < _vote.time + bufferTime */\n      tag_139\n      jumpi\n      pop\n        /* \"contracts/Template/Istanbul10/logic/Vote.sol\":4012:4022  bufferTime */\n      sload(0x01)\n        /* \"contracts/Template/Istanbul10/logic/Vote.sol\":3999:4004  _vote */\n      dup2\n        /* \"contracts/Template/Istanbul10/logic/Vote.sol\":3999:4009  _vote.time */\n      0x02\n      add\n      sload\n        /* \"contracts/Template/Istanbul10/logic/Vote.sol\":3999:4022  _vote.time + bufferTime */\n      tag_140\n      swap2\n      swap1\n      tag_141\n      jump\t// in\n    tag_140:\n        /* \"contracts/Template/Istanbul10/logic/Vote.sol\":3981:3996  block.timestamp */\n      timestamp\n        /* \"contracts/Template/Istanbul10/logic/Vote.sol\":3981:4022  block.timestamp < _vote.time + bufferTime */\n      lt\n        /* \"contracts/Template/Istanbul10/logic/Vote.sol\":3948:4022  block.timestamp >= _vote.time && block.timestamp < _vote.time + bufferTime */\n    tag_139:\n        /* \"contracts/Template/Istanbul10/logic/Vote.sol\":3940:4052  require(block.timestamp >= _vote.time && block.timestamp < _vote.time + bufferTime, \"Still in the voting phase\") */\n      tag_142\n      jumpi\n      mload(0x40)\n      shl(0xe5, 0x461bcd)\n      dup2\n      mstore\n      0x04\n      add\n      tag_137\n      swap1\n      tag_144\n      jump\t// in\n    tag_142:\n        /* \"contracts/Template/Istanbul10/logic/Vote.sol\":4087:4106  VoteStatus.isvoting */\n      0x01\n        /* \"contracts/Template/Istanbul10/logic/Vote.sol\":4071:4083  _vote.status */\n      0x08\n      dup3\n      add\n      sload\n      0xff\n      and\n        /* \"contracts/Template/Istanbul10/logic/Vote.sol\":4071:4106  _vote.status == VoteStatus.isvoting */\n      0x06\n      dup2\n      gt\n      iszero\n      tag_149\n      jumpi\n      tag_149\n      tag_147\n      jump\t// in\n    tag_149:\n      eq\n        /* \"contracts/Template/Istanbul10/logic/Vote.sol\":4063:4133  require(_vote.status == VoteStatus.isvoting,\"Not at the voting stage\") */\n      tag_150\n      jumpi\n      mload(0x40)\n      shl(0xe5, 0x461bcd)\n      dup2\n      mstore\n        /* \"#utility.yul\":12551:12553   */\n      0x20\n        /* \"contracts/Template/Istanbul10/logic/Vote.sol\":4063:4133  require(_vote.status == VoteStatus.isvoting,\"Not at the voting stage\") */\n      0x04\n      dup3\n      add\n        /* \"#utility.yul\":12533:12554   */\n      mstore\n        /* \"#utility.yul\":12590:12592   */\n      0x17\n        /* \"#utility.yul\":12570:12588   */\n      0x24\n      dup3\n      add\n        /* \"#utility.yul\":12563:12593   */\n      mstore\n        /* \"#utility.yul\":12629:12654   */\n      0x4e6f742061742074686520766f74696e67207374616765000000000000000000\n        /* \"#utility.yul\":12609:12627   */\n      0x44\n      dup3\n      add\n        /* \"#utility.yul\":12602:12655   */\n      mstore\n        /* \"#utility.yul\":12672:12690   */\n      0x64\n      add\n        /* \"contracts/Template/Istanbul10/logic/Vote.sol\":4063:4133  require(_vote.status == VoteStatus.isvoting,\"Not at the voting stage\") */\n      tag_137\n        /* \"#utility.yul\":12523:12696   */\n      jump\n        /* \"contracts/Template/Istanbul10/logic/Vote.sol\":4063:4133  require(_vote.status == VoteStatus.isvoting,\"Not at the voting stage\") */\n    tag_150:\n        /* \"contracts/Template/Istanbul10/logic/Vote.sol\":4146:4158  _vote.status */\n      0x08\n      dup2\n      add\n        /* \"contracts/Template/Istanbul10/logic/Vote.sol\":4146:4184  _vote.status = VoteStatus.secondBallot */\n      dup1\n      sload\n      not(0xff)\n      and\n        /* \"contracts/Template/Istanbul10/logic/Vote.sol\":4161:4184  VoteStatus.secondBallot */\n      0x05\n        /* \"contracts/Template/Istanbul10/logic/Vote.sol\":4146:4184  _vote.status = VoteStatus.secondBallot */\n      or\n      swap1\n      sstore\n        /* \"contracts/Template/Istanbul10/logic/Vote.sol\":4195:4226  _vote.svote.describe = _reasons */\n      dup3\n      mload\n      tag_155\n      swap1\n        /* \"contracts/Template/Istanbul10/logic/Vote.sol\":4195:4215  _vote.svote.describe */\n      0x0d\n      dup4\n      add\n      swap1\n        /* \"contracts/Template/Istanbul10/logic/Vote.sol\":4195:4226  _vote.svote.describe = _reasons */\n      0x20\n      dup7\n      add\n      swap1\n      tag_156\n      jump\t// in\n    tag_155:\n      pop\n        /* \"contracts/Template/Istanbul10/logic/Vote.sol\":4237:4248  _vote.svote */\n      0x0c\n      dup2\n      add\n        /* \"contracts/Template/Istanbul10/logic/Vote.sol\":4237:4268  _vote.svote.vetoer = msg.sender */\n      dup1\n      sload\n      not(sub(shl(0xa0, 0x01), 0x01))\n      and\n        /* \"contracts/Template/Istanbul10/logic/Vote.sol\":4258:4268  msg.sender */\n      caller\n        /* \"contracts/Template/Istanbul10/logic/Vote.sol\":4237:4268  _vote.svote.vetoer = msg.sender */\n      or\n      swap1\n      sstore\n      0x01\n        /* \"contracts/Template/Istanbul10/logic/Vote.sol\":4310:4320  bufferTime */\n      sload\n        /* \"contracts/Template/Istanbul10/logic/Vote.sol\":4292:4320  block.timestamp + bufferTime */\n      tag_157\n      swap1\n        /* \"contracts/Template/Istanbul10/logic/Vote.sol\":4292:4307  block.timestamp */\n      timestamp\n        /* \"contracts/Template/Istanbul10/logic/Vote.sol\":4292:4320  block.timestamp + bufferTime */\n      tag_141\n      jump\t// in\n    tag_157:\n        /* \"contracts/Template/Istanbul10/logic/Vote.sol\":4279:4289  _vote.time */\n      0x02\n      dup3\n      add\n        /* \"contracts/Template/Istanbul10/logic/Vote.sol\":4279:4320  _vote.time = block.timestamp + bufferTime */\n      sstore\n        /* \"contracts/Template/Istanbul10/logic/Vote.sol\":4338:4367  RejectEvent(_voteId,_reasons) */\n      mload(0x40)\n        /* \"contracts/Template/Istanbul10/logic/Vote.sol\":4350:4357  _voteId */\n      dup5\n      swap1\n        /* \"contracts/Template/Istanbul10/logic/Vote.sol\":4338:4367  RejectEvent(_voteId,_reasons) */\n      0x4a3e39232ea797464bb08b1cb8267cfc05e026d0eae637ff17b0548af520369a\n      swap1\n      tag_158\n      swap1\n        /* \"contracts/Template/Istanbul10/logic/Vote.sol\":4358:4366  _reasons */\n      dup7\n      swap1\n        /* \"contracts/Template/Istanbul10/logic/Vote.sol\":4338:4367  RejectEvent(_voteId,_reasons) */\n      tag_159\n      jump\t// in\n    tag_158:\n      mload(0x40)\n      dup1\n      swap2\n      sub\n      swap1\n      log2\n        /* \"contracts/Template/Istanbul10/logic/Vote.sol\":3697:4375  {\r... */\n      pop\n      pop\n        /* \"contracts/Template/Istanbul10/logic/Vote.sol\":3625:4375  function reject(uint256 _voteId,string memory _reasons) public override {\r... */\n      pop\n      pop\n      jump\t// out\n        /* \"contracts/Template/Istanbul10/logic/Vote.sol\":8061:8368  function getVoteDetailwithVoteId(uint256 _voteId) public view returns(\r... */\n    tag_48:\n        /* \"contracts/Template/Istanbul10/logic/Vote.sol\":8208:8225  address initiator */\n      0x00\n        /* \"contracts/Template/Istanbul10/logic/Vote.sol\":8275:8292  voteMapp[_voteId] */\n      dup2\n      dup2\n      mstore\n        /* \"contracts/Template/Istanbul10/logic/Vote.sol\":8275:8283  voteMapp */\n      0x07\n        /* \"contracts/Template/Istanbul10/logic/Vote.sol\":8275:8292  voteMapp[_voteId] */\n      0x20\n      mstore\n      0x40\n      dup2\n      keccak256\n        /* \"contracts/Template/Istanbul10/logic/Vote.sol\":8344:8359  _vote.initiator */\n      0x04\n      dup2\n      add\n      sload\n        /* \"contracts/Template/Istanbul10/logic/Vote.sol\":8313:8328  _vote.voteTopic */\n      0x03\n      dup3\n      add\n        /* \"contracts/Template/Istanbul10/logic/Vote.sol\":8304:8360  return  (_vote.voteTopic,_vote.describe,_vote.initiator) */\n      dup1\n      sload\n        /* \"contracts/Template/Istanbul10/logic/Vote.sol\":8141:8164  string memory voteTopic */\n      0x60\n      swap5\n      dup6\n      swap5\n        /* \"contracts/Template/Istanbul10/logic/Vote.sol\":8208:8225  address initiator */\n      swap1\n      swap4\n        /* \"contracts/Template/Istanbul10/logic/Vote.sol\":8275:8292  voteMapp[_voteId] */\n      swap1\n      swap3\n        /* \"contracts/Template/Istanbul10/logic/Vote.sol\":8313:8328  _vote.voteTopic */\n      swap2\n        /* \"contracts/Template/Istanbul10/logic/Vote.sol\":8329:8343  _vote.describe */\n      0x05\n      dup5\n      add\n      swap2\n      sub(shl(0xa0, 0x01), 0x01)\n        /* \"contracts/Template/Istanbul10/logic/Vote.sol\":8344:8359  _vote.initiator */\n      and\n      swap1\n        /* \"contracts/Template/Istanbul10/logic/Vote.sol\":8313:8328  _vote.voteTopic */\n      dup4\n      swap1\n        /* \"contracts/Template/Istanbul10/logic/Vote.sol\":8304:8360  return  (_vote.voteTopic,_vote.describe,_vote.initiator) */\n      tag_161\n      swap1\n      tag_104\n      jump\t// in\n    tag_161:\n      dup1\n      0x1f\n      add\n      0x20\n      dup1\n      swap2\n      div\n      mul\n      0x20\n      add\n      mload(0x40)\n      swap1\n      dup2\n      add\n      0x40\n      mstore\n      dup1\n      swap3\n      swap2\n      swap1\n      dup2\n      dup2\n      mstore\n      0x20\n      add\n      dup3\n      dup1\n      sload\n      tag_162\n      swap1\n      tag_104\n      jump\t// in\n    tag_162:\n      dup1\n      iszero\n      tag_163\n      jumpi\n      dup1\n      0x1f\n      lt\n      tag_164\n      jumpi\n      0x0100\n      dup1\n      dup4\n      sload\n      div\n      mul\n      dup4\n      mstore\n      swap2\n      0x20\n      add\n      swap2\n      jump(tag_163)\n    tag_164:\n      dup3\n      add\n      swap2\n      swap1\n      0x00\n      mstore\n      keccak256(0x00, 0x20)\n      swap1\n    tag_165:\n      dup2\n      sload\n      dup2\n      mstore\n      swap1\n      0x01\n      add\n      swap1\n      0x20\n      add\n      dup1\n      dup4\n      gt\n      tag_165\n      jumpi\n      dup3\n      swap1\n      sub\n      0x1f\n      and\n      dup3\n      add\n      swap2\n    tag_163:\n      pop\n      pop\n      pop\n      pop\n      pop\n      swap3\n      pop\n      dup2\n      dup1\n      sload\n      tag_166\n      swap1\n      tag_104\n      jump\t// in\n    tag_166:\n      dup1\n      0x1f\n      add\n      0x20\n      dup1\n      swap2\n      div\n      mul\n      0x20\n      add\n      mload(0x40)\n      swap1\n      dup2\n      add\n      0x40\n      mstore\n      dup1\n      swap3\n      swap2\n      swap1\n      dup2\n      dup2\n      mstore\n      0x20\n      add\n      dup3\n      dup1\n      sload\n      tag_167\n      swap1\n      tag_104\n      jump\t// in\n    tag_167:\n      dup1\n      iszero\n      tag_168\n      jumpi\n      dup1\n      0x1f\n      lt\n      tag_169\n      jumpi\n      0x0100\n      dup1\n      dup4\n      sload\n      div\n      mul\n      dup4\n      mstore\n      swap2\n      0x20\n      add\n      swap2\n      jump(tag_168)\n    tag_169:\n      dup3\n      add\n      swap2\n      swap1\n      0x00\n      mstore\n      keccak256(0x00, 0x20)\n      swap1\n    tag_170:\n      dup2\n      sload\n      dup2\n      mstore\n      swap1\n      0x01\n      add\n      swap1\n      0x20\n      add\n      dup1\n      dup4\n      gt\n      tag_170\n      jumpi\n      dup3\n      swap1\n      sub\n      0x1f\n      and\n      dup3\n      add\n      swap2\n    tag_168:\n      pop\n      pop\n      pop\n      pop\n      pop\n      swap2\n      pop\n      swap4\n      pop\n      swap4\n      pop\n      swap4\n      pop\n      pop\n        /* \"contracts/Template/Istanbul10/logic/Vote.sol\":8061:8368  function getVoteDetailwithVoteId(uint256 _voteId) public view returns(\r... */\n      swap2\n      swap4\n      swap1\n      swap3\n      pop\n      jump\t// out\n        /* \"contracts/Template/Istanbul10/logic/Vote.sol\":209:402  function initialize() override external{\r... */\n    tag_58:\n        /* \"contracts/Template/Istanbul10/logic/Vote.sol\":336:342  router */\n      0x02\n        /* \"contracts/Template/Istanbul10/logic/Vote.sol\":336:355  router = msg.sender */\n      dup1\n      sload\n      not(sub(shl(0xa0, 0x01), 0x01))\n      and\n        /* \"contracts/Template/Istanbul10/logic/Vote.sol\":345:355  msg.sender */\n      caller\n        /* \"contracts/Template/Istanbul10/logic/Vote.sol\":336:355  router = msg.sender */\n      swap1\n      dup2\n      or\n      swap1\n      swap2\n      sstore\n        /* \"contracts/Template/Istanbul10/logic/Vote.sol\":371:394  InitializeEvent(router) */\n      mload(0x40)\n      0x0e39d7cd8517be5d0ded9db90850ac775470f23ea44ec3aaaad22ee8b1f8fc59\n      swap1\n        /* \"contracts/Template/Istanbul10/logic/Vote.sol\":336:342  router */\n      0x00\n      swap1\n        /* \"contracts/Template/Istanbul10/logic/Vote.sol\":371:394  InitializeEvent(router) */\n      log2\n        /* \"contracts/Template/Istanbul10/logic/Vote.sol\":209:402  function initialize() override external{\r... */\n      jump\t// out\n        /* \"contracts/Template/Istanbul10/logic/Vote.sol\":1593:3556  function toVote(uint256 _voteId,bool _result) public override {\r... */\n    tag_62:\n        /* \"contracts/Template/Istanbul10/logic/Vote.sol\":1666:1680  uint256 weight */\n      0x00\n        /* \"contracts/Template/Istanbul10/logic/Vote.sol\":1718:1735  voteMapp[_voteId] */\n      dup3\n      dup2\n      mstore\n        /* \"contracts/Template/Istanbul10/logic/Vote.sol\":1718:1726  voteMapp */\n      0x07\n        /* \"contracts/Template/Istanbul10/logic/Vote.sol\":1718:1735  voteMapp[_voteId] */\n      0x20\n      mstore\n      0x40\n      dup2\n      keccak256\n        /* \"contracts/Template/Istanbul10/logic/Vote.sol\":1666:1680  uint256 weight */\n      dup2\n        /* \"contracts/Template/Istanbul10/logic/Vote.sol\":1754:1766  _vote.status */\n      0x08\n      dup3\n      add\n      sload\n      0xff\n      and\n        /* \"contracts/Template/Istanbul10/logic/Vote.sol\":1754:1794  _vote.status != VoteStatus.uninitialized */\n      0x06\n      dup2\n      gt\n      iszero\n      tag_176\n      jumpi\n      tag_176\n      tag_147\n      jump\t// in\n    tag_176:\n      eq\n      iszero\n        /* \"contracts/Template/Istanbul10/logic/Vote.sol\":1746:1812  require(_vote.status != VoteStatus.uninitialized,\"VoteId is null\") */\n      tag_177\n      jumpi\n      mload(0x40)\n      shl(0xe5, 0x461bcd)\n      dup2\n      mstore\n        /* \"#utility.yul\":11102:11104   */\n      0x20\n        /* \"contracts/Template/Istanbul10/logic/Vote.sol\":1746:1812  require(_vote.status != VoteStatus.uninitialized,\"VoteId is null\") */\n      0x04\n      dup3\n      add\n        /* \"#utility.yul\":11084:11105   */\n      mstore\n        /* \"#utility.yul\":11141:11143   */\n      0x0e\n        /* \"#utility.yul\":11121:11139   */\n      0x24\n      dup3\n      add\n        /* \"#utility.yul\":11114:11144   */\n      mstore\n      shl(0x92, 0x159bdd195259081a5cc81b9d5b1b)\n        /* \"#utility.yul\":11160:11178   */\n      0x44\n      dup3\n      add\n        /* \"#utility.yul\":11153:11197   */\n      mstore\n        /* \"#utility.yul\":11214:11232   */\n      0x64\n      add\n        /* \"contracts/Template/Istanbul10/logic/Vote.sol\":1746:1812  require(_vote.status != VoteStatus.uninitialized,\"VoteId is null\") */\n      tag_137\n        /* \"#utility.yul\":11074:11238   */\n      jump\n        /* \"contracts/Template/Istanbul10/logic/Vote.sol\":1746:1812  require(_vote.status != VoteStatus.uninitialized,\"VoteId is null\") */\n    tag_177:\n        /* \"contracts/Template/Istanbul10/logic/Vote.sol\":1865:1884  VoteStatus.isvoting */\n      0x01\n        /* \"contracts/Template/Istanbul10/logic/Vote.sol\":1849:1861  _vote.status */\n      0x08\n      dup3\n      add\n      sload\n      0xff\n      and\n        /* \"contracts/Template/Istanbul10/logic/Vote.sol\":1849:1884  _vote.status == VoteStatus.isvoting */\n      0x06\n      dup2\n      gt\n      iszero\n      tag_183\n      jumpi\n      tag_183\n      tag_147\n      jump\t// in\n    tag_183:\n      eq\n        /* \"contracts/Template/Istanbul10/logic/Vote.sol\":1846:3505  if(_vote.status == VoteStatus.isvoting){\r... */\n      iszero\n      tag_184\n      jumpi\n        /* \"contracts/Template/Istanbul10/logic/Vote.sol\":1923:1933  msg.sender */\n      caller\n        /* \"contracts/Template/Istanbul10/logic/Vote.sol\":1904:1934  _vote.VoterAddress[msg.sender] */\n      0x00\n      swap1\n      dup2\n      mstore\n        /* \"contracts/Template/Istanbul10/logic/Vote.sol\":1904:1922  _vote.VoterAddress */\n      0x0b\n      dup3\n      add\n        /* \"contracts/Template/Istanbul10/logic/Vote.sol\":1904:1934  _vote.VoterAddress[msg.sender] */\n      0x20\n      mstore\n      0x40\n      swap1\n      keccak256\n        /* \"contracts/Template/Istanbul10/logic/Vote.sol\":1904:1940  _vote.VoterAddress[msg.sender].voted */\n      sload\n      0xff\n      and\n        /* \"contracts/Template/Istanbul10/logic/Vote.sol\":1904:1949  _vote.VoterAddress[msg.sender].voted == false */\n      iszero\n        /* \"contracts/Template/Istanbul10/logic/Vote.sol\":1896:1964  require(_vote.VoterAddress[msg.sender].voted == false,\"Vote before\") */\n      tag_185\n      jumpi\n      mload(0x40)\n      shl(0xe5, 0x461bcd)\n      dup2\n      mstore\n        /* \"#utility.yul\":12903:12905   */\n      0x20\n        /* \"contracts/Template/Istanbul10/logic/Vote.sol\":1896:1964  require(_vote.VoterAddress[msg.sender].voted == false,\"Vote before\") */\n      0x04\n      dup3\n      add\n        /* \"#utility.yul\":12885:12906   */\n      mstore\n        /* \"#utility.yul\":12942:12944   */\n      0x0b\n        /* \"#utility.yul\":12922:12940   */\n      0x24\n      dup3\n      add\n        /* \"#utility.yul\":12915:12945   */\n      mstore\n      shl(0xa8, 0x566f7465206265666f7265)\n        /* \"#utility.yul\":12961:12979   */\n      0x44\n      dup3\n      add\n        /* \"#utility.yul\":12954:12995   */\n      mstore\n        /* \"#utility.yul\":13012:13030   */\n      0x64\n      add\n        /* \"contracts/Template/Istanbul10/logic/Vote.sol\":1896:1964  require(_vote.VoterAddress[msg.sender].voted == false,\"Vote before\") */\n      tag_137\n        /* \"#utility.yul\":12875:13036   */\n      jump\n        /* \"contracts/Template/Istanbul10/logic/Vote.sol\":1896:1964  require(_vote.VoterAddress[msg.sender].voted == false,\"Vote before\") */\n    tag_185:\n        /* \"contracts/Template/Istanbul10/logic/Vote.sol\":1983:1990  veToken */\n      sload(0x03)\n        /* \"contracts/Template/Istanbul10/logic/Vote.sol\":1983:2012  veToken.balanceOf(msg.sender) */\n      mload(0x40)\n      shl(0xe0, 0x70a08231)\n      dup2\n      mstore\n        /* \"contracts/Template/Istanbul10/logic/Vote.sol\":2001:2011  msg.sender */\n      caller\n        /* \"contracts/Template/Istanbul10/logic/Vote.sol\":1983:2012  veToken.balanceOf(msg.sender) */\n      0x04\n      dup3\n      add\n        /* \"#utility.yul\":4566:4617   */\n      mstore\n        /* \"contracts/Template/Istanbul10/logic/Vote.sol\":2016:2017  1 */\n      0x01\n      swap2\n      sub(shl(0xa0, 0x01), 0x01)\n        /* \"contracts/Template/Istanbul10/logic/Vote.sol\":1983:1990  veToken */\n      and\n      swap1\n        /* \"contracts/Template/Istanbul10/logic/Vote.sol\":1983:2000  veToken.balanceOf */\n      0x70a08231\n      swap1\n        /* \"#utility.yul\":4539:4557   */\n      0x24\n      add\n        /* \"contracts/Template/Istanbul10/logic/Vote.sol\":1983:2012  veToken.balanceOf(msg.sender) */\n      0x20\n      mload(0x40)\n      dup1\n      dup4\n      sub\n      dup2\n      dup7\n      dup1\n      extcodesize\n      iszero\n      dup1\n      iszero\n      tag_189\n      jumpi\n      0x00\n      dup1\n      revert\n    tag_189:\n      pop\n      gas\n      staticcall\n      iszero\n      dup1\n      iszero\n      tag_191\n      jumpi\n      returndatasize\n      0x00\n      dup1\n      returndatacopy\n      revert(0x00, returndatasize)\n    tag_191:\n      pop\n      pop\n      pop\n      pop\n      mload(0x40)\n      returndatasize\n      not(0x1f)\n      0x1f\n      dup3\n      add\n      and\n      dup3\n      add\n      dup1\n      0x40\n      mstore\n      pop\n      dup2\n      add\n      swap1\n      tag_192\n      swap2\n      swap1\n      tag_126\n      jump\t// in\n    tag_192:\n        /* \"contracts/Template/Istanbul10/logic/Vote.sol\":1983:2017  veToken.balanceOf(msg.sender) >= 1 */\n      lt\n      iszero\n        /* \"contracts/Template/Istanbul10/logic/Vote.sol\":1975:2041  require(veToken.balanceOf(msg.sender) >= 1,\"veToken less than 1 \") */\n      tag_193\n      jumpi\n      mload(0x40)\n      shl(0xe5, 0x461bcd)\n      dup2\n      mstore\n        /* \"#utility.yul\":11445:11447   */\n      0x20\n        /* \"contracts/Template/Istanbul10/logic/Vote.sol\":1975:2041  require(veToken.balanceOf(msg.sender) >= 1,\"veToken less than 1 \") */\n      0x04\n      dup3\n      add\n        /* \"#utility.yul\":11427:11448   */\n      mstore\n        /* \"#utility.yul\":11484:11486   */\n      0x14\n        /* \"#utility.yul\":11464:11482   */\n      0x24\n      dup3\n      add\n        /* \"#utility.yul\":11457:11487   */\n      mstore\n      shl(0x65, 0x03b32aa37b5b2b7103632b9b9903a3430b710189)\n        /* \"#utility.yul\":11503:11521   */\n      0x44\n      dup3\n      add\n        /* \"#utility.yul\":11496:11546   */\n      mstore\n        /* \"#utility.yul\":11563:11581   */\n      0x64\n      add\n        /* \"contracts/Template/Istanbul10/logic/Vote.sol\":1975:2041  require(veToken.balanceOf(msg.sender) >= 1,\"veToken less than 1 \") */\n      tag_137\n        /* \"#utility.yul\":11417:11587   */\n      jump\n        /* \"contracts/Template/Istanbul10/logic/Vote.sol\":1975:2041  require(veToken.balanceOf(msg.sender) >= 1,\"veToken less than 1 \") */\n    tag_193:\n        /* \"contracts/Template/Istanbul10/logic/Vote.sol\":2079:2084  _vote */\n      dup1\n        /* \"contracts/Template/Istanbul10/logic/Vote.sol\":2079:2089  _vote.time */\n      0x02\n      add\n      sload\n        /* \"contracts/Template/Istanbul10/logic/Vote.sol\":2060:2075  block.timestamp */\n      timestamp\n        /* \"contracts/Template/Istanbul10/logic/Vote.sol\":2060:2089  block.timestamp <= _vote.time */\n      gt\n      iszero\n        /* \"contracts/Template/Istanbul10/logic/Vote.sol\":2052:2121  require(block.timestamp <= _vote.time,\"Not within the allotted time\") */\n      tag_196\n      jumpi\n      mload(0x40)\n      shl(0xe5, 0x461bcd)\n      dup2\n      mstore\n        /* \"#utility.yul\":8215:8217   */\n      0x20\n        /* \"contracts/Template/Istanbul10/logic/Vote.sol\":2052:2121  require(block.timestamp <= _vote.time,\"Not within the allotted time\") */\n      0x04\n      dup3\n      add\n        /* \"#utility.yul\":8197:8218   */\n      mstore\n        /* \"#utility.yul\":8254:8256   */\n      0x1c\n        /* \"#utility.yul\":8234:8252   */\n      0x24\n      dup3\n      add\n        /* \"#utility.yul\":8227:8257   */\n      mstore\n        /* \"#utility.yul\":8293:8323   */\n      0x4e6f742077697468696e2074686520616c6c6f747465642074696d6500000000\n        /* \"#utility.yul\":8273:8291   */\n      0x44\n      dup3\n      add\n        /* \"#utility.yul\":8266:8324   */\n      mstore\n        /* \"#utility.yul\":8341:8359   */\n      0x64\n      add\n        /* \"contracts/Template/Istanbul10/logic/Vote.sol\":2052:2121  require(block.timestamp <= _vote.time,\"Not within the allotted time\") */\n      tag_137\n        /* \"#utility.yul\":8187:8365   */\n      jump\n        /* \"contracts/Template/Istanbul10/logic/Vote.sol\":2052:2121  require(block.timestamp <= _vote.time,\"Not within the allotted time\") */\n    tag_196:\n        /* \"contracts/Template/Istanbul10/logic/Vote.sol\":2151:2161  msg.sender */\n      caller\n        /* \"contracts/Template/Istanbul10/logic/Vote.sol\":2132:2162  _vote.VoterAddress[msg.sender] */\n      0x00\n      swap1\n      dup2\n      mstore\n        /* \"contracts/Template/Istanbul10/logic/Vote.sol\":2132:2150  _vote.VoterAddress */\n      0x0b\n      dup3\n      add\n        /* \"contracts/Template/Istanbul10/logic/Vote.sol\":2132:2162  _vote.VoterAddress[msg.sender] */\n      0x20\n      mstore\n      0x40\n      swap1\n      keccak256\n        /* \"contracts/Template/Istanbul10/logic/Vote.sol\":2132:2175  _vote.VoterAddress[msg.sender].voted = true */\n      dup1\n      sload\n      not(0xff)\n      and\n        /* \"contracts/Template/Istanbul10/logic/Vote.sol\":2171:2175  true */\n      0x01\n        /* \"contracts/Template/Istanbul10/logic/Vote.sol\":2132:2175  _vote.VoterAddress[msg.sender].voted = true */\n      or\n      swap1\n      sstore\n        /* \"contracts/Template/Istanbul10/logic/Vote.sol\":2188:2686  if(_result){\r... */\n      dup3\n      iszero\n      tag_199\n      jumpi\n        /* \"contracts/Template/Istanbul10/logic/Vote.sol\":2236:2246  msg.sender */\n      caller\n        /* \"contracts/Template/Istanbul10/logic/Vote.sol\":2217:2247  _vote.VoterAddress[msg.sender] */\n      0x00\n      swap1\n      dup2\n      mstore\n        /* \"contracts/Template/Istanbul10/logic/Vote.sol\":2217:2235  _vote.VoterAddress */\n      0x0b\n      dup3\n      add\n        /* \"contracts/Template/Istanbul10/logic/Vote.sol\":2217:2247  _vote.VoterAddress[msg.sender] */\n      0x20\n      mstore\n      0x40\n      swap1\n      keccak256\n        /* \"contracts/Template/Istanbul10/logic/Vote.sol\":2217:2254  _vote.VoterAddress[msg.sender].bailor */\n      0x01\n      add\n        /* \"contracts/Template/Istanbul10/logic/Vote.sol\":2217:2261  _vote.VoterAddress[msg.sender].bailor.length */\n      sload\n        /* \"contracts/Template/Istanbul10/logic/Vote.sol\":2217:2266  _vote.VoterAddress[msg.sender].bailor.length != 0 */\n      iszero\n        /* \"contracts/Template/Istanbul10/logic/Vote.sol\":2214:2531  if(_vote.VoterAddress[msg.sender].bailor.length != 0){\r... */\n      tag_200\n      jumpi\n        /* \"contracts/Template/Istanbul10/logic/Vote.sol\":2290:2296  uint i */\n      0x00\n        /* \"contracts/Template/Istanbul10/logic/Vote.sol\":2286:2516  for(uint i = 0; i < _vote.VoterAddress[msg.sender].bailor.length; ++i){\r... */\n    tag_201:\n        /* \"contracts/Template/Istanbul10/logic/Vote.sol\":2325:2335  msg.sender */\n      caller\n        /* \"contracts/Template/Istanbul10/logic/Vote.sol\":2306:2336  _vote.VoterAddress[msg.sender] */\n      0x00\n      swap1\n      dup2\n      mstore\n        /* \"contracts/Template/Istanbul10/logic/Vote.sol\":2306:2324  _vote.VoterAddress */\n      0x0b\n      dup4\n      add\n        /* \"contracts/Template/Istanbul10/logic/Vote.sol\":2306:2336  _vote.VoterAddress[msg.sender] */\n      0x20\n      mstore\n      0x40\n      swap1\n      keccak256\n        /* \"contracts/Template/Istanbul10/logic/Vote.sol\":2306:2343  _vote.VoterAddress[msg.sender].bailor */\n      0x01\n      add\n        /* \"contracts/Template/Istanbul10/logic/Vote.sol\":2306:2350  _vote.VoterAddress[msg.sender].bailor.length */\n      sload\n        /* \"contracts/Template/Istanbul10/logic/Vote.sol\":2302:2350  i < _vote.VoterAddress[msg.sender].bailor.length */\n      dup2\n      lt\n        /* \"contracts/Template/Istanbul10/logic/Vote.sol\":2286:2516  for(uint i = 0; i < _vote.VoterAddress[msg.sender].bailor.length; ++i){\r... */\n      iszero\n      tag_202\n      jumpi\n        /* \"contracts/Template/Istanbul10/logic/Vote.sol\":2416:2426  msg.sender */\n      caller\n        /* \"contracts/Template/Istanbul10/logic/Vote.sol\":2379:2394  address deleAdd */\n      0x00\n        /* \"contracts/Template/Istanbul10/logic/Vote.sol\":2397:2427  _vote.VoterAddress[msg.sender] */\n      swap1\n      dup2\n      mstore\n        /* \"contracts/Template/Istanbul10/logic/Vote.sol\":2397:2415  _vote.VoterAddress */\n      0x0b\n      dup4\n      add\n        /* \"contracts/Template/Istanbul10/logic/Vote.sol\":2397:2427  _vote.VoterAddress[msg.sender] */\n      0x20\n      mstore\n      0x40\n      dup2\n      keccak256\n        /* \"contracts/Template/Istanbul10/logic/Vote.sol\":2397:2434  _vote.VoterAddress[msg.sender].bailor */\n      0x01\n      add\n        /* \"contracts/Template/Istanbul10/logic/Vote.sol\":2397:2437  _vote.VoterAddress[msg.sender].bailor[i] */\n      dup1\n      sload\n        /* \"contracts/Template/Istanbul10/logic/Vote.sol\":2435:2436  i */\n      dup4\n      swap1\n        /* \"contracts/Template/Istanbul10/logic/Vote.sol\":2397:2437  _vote.VoterAddress[msg.sender].bailor[i] */\n      dup2\n      lt\n      tag_205\n      jumpi\n      tag_205\n      tag_116\n      jump\t// in\n    tag_205:\n      0x00\n      swap2\n      dup3\n      mstore\n      0x20\n      swap1\n      swap2\n      keccak256\n      add\n      sload\n        /* \"contracts/Template/Istanbul10/logic/Vote.sol\":2470:2477  veToken */\n      sload(0x03)\n        /* \"contracts/Template/Istanbul10/logic/Vote.sol\":2470:2496  veToken.balanceOf(deleAdd) */\n      mload(0x40)\n      shl(0xe0, 0x70a08231)\n      dup2\n      mstore\n      sub(shl(0xa0, 0x01), 0x01)\n        /* \"contracts/Template/Istanbul10/logic/Vote.sol\":2397:2437  _vote.VoterAddress[msg.sender].bailor[i] */\n      swap3\n      dup4\n      and\n        /* \"contracts/Template/Istanbul10/logic/Vote.sol\":2470:2496  veToken.balanceOf(deleAdd) */\n      0x04\n      dup3\n      add\n        /* \"#utility.yul\":4566:4617   */\n      dup2\n      swap1\n      mstore\n        /* \"contracts/Template/Istanbul10/logic/Vote.sol\":2397:2437  _vote.VoterAddress[msg.sender].bailor[i] */\n      swap4\n      pop\n        /* \"contracts/Template/Istanbul10/logic/Vote.sol\":2470:2477  veToken */\n      swap2\n      and\n      swap1\n        /* \"contracts/Template/Istanbul10/logic/Vote.sol\":2470:2487  veToken.balanceOf */\n      0x70a08231\n      swap1\n        /* \"#utility.yul\":4539:4557   */\n      0x24\n      add\n        /* \"contracts/Template/Istanbul10/logic/Vote.sol\":2470:2496  veToken.balanceOf(deleAdd) */\n      0x20\n      mload(0x40)\n      dup1\n      dup4\n      sub\n      dup2\n      dup7\n      dup1\n      extcodesize\n      iszero\n      dup1\n      iszero\n      tag_208\n      jumpi\n      0x00\n      dup1\n      revert\n    tag_208:\n      pop\n      gas\n      staticcall\n      iszero\n      dup1\n      iszero\n      tag_210\n      jumpi\n      returndatasize\n      0x00\n      dup1\n      returndatacopy\n      revert(0x00, returndatasize)\n    tag_210:\n      pop\n      pop\n      pop\n      pop\n      mload(0x40)\n      returndatasize\n      not(0x1f)\n      0x1f\n      dup3\n      add\n      and\n      dup3\n      add\n      dup1\n      0x40\n      mstore\n      pop\n      dup2\n      add\n      swap1\n      tag_211\n      swap2\n      swap1\n      tag_126\n      jump\t// in\n    tag_211:\n        /* \"contracts/Template/Istanbul10/logic/Vote.sol\":2460:2496  weight += veToken.balanceOf(deleAdd) */\n      tag_212\n      swap1\n      dup6\n      tag_141\n      jump\t// in\n    tag_212:\n      swap4\n      pop\n        /* \"contracts/Template/Istanbul10/logic/Vote.sol\":2356:2516  {\r... */\n      pop\n        /* \"contracts/Template/Istanbul10/logic/Vote.sol\":2352:2355  ++i */\n      dup1\n      tag_213\n      swap1\n      tag_118\n      jump\t// in\n    tag_213:\n      swap1\n      pop\n        /* \"contracts/Template/Istanbul10/logic/Vote.sol\":2286:2516  for(uint i = 0; i < _vote.VoterAddress[msg.sender].bailor.length; ++i){\r... */\n      jump(tag_201)\n    tag_202:\n      pop\n        /* \"contracts/Template/Istanbul10/logic/Vote.sol\":2214:2531  if(_vote.VoterAddress[msg.sender].bailor.length != 0){\r... */\n    tag_200:\n        /* \"contracts/Template/Istanbul10/logic/Vote.sol\":2563:2570  veToken */\n      sload(0x03)\n        /* \"contracts/Template/Istanbul10/logic/Vote.sol\":2563:2592  veToken.balanceOf(msg.sender) */\n      mload(0x40)\n      shl(0xe0, 0x70a08231)\n      dup2\n      mstore\n        /* \"contracts/Template/Istanbul10/logic/Vote.sol\":2581:2591  msg.sender */\n      caller\n        /* \"contracts/Template/Istanbul10/logic/Vote.sol\":2563:2592  veToken.balanceOf(msg.sender) */\n      0x04\n      dup3\n      add\n        /* \"#utility.yul\":4566:4617   */\n      mstore\n      sub(shl(0xa0, 0x01), 0x01)\n        /* \"contracts/Template/Istanbul10/logic/Vote.sol\":2563:2570  veToken */\n      swap1\n      swap2\n      and\n      swap1\n        /* \"contracts/Template/Istanbul10/logic/Vote.sol\":2563:2580  veToken.balanceOf */\n      0x70a08231\n      swap1\n        /* \"#utility.yul\":4539:4557   */\n      0x24\n      add\n        /* \"contracts/Template/Istanbul10/logic/Vote.sol\":2563:2592  veToken.balanceOf(msg.sender) */\n      0x20\n      mload(0x40)\n      dup1\n      dup4\n      sub\n      dup2\n      dup7\n      dup1\n      extcodesize\n      iszero\n      dup1\n      iszero\n      tag_215\n      jumpi\n      0x00\n      dup1\n      revert\n    tag_215:\n      pop\n      gas\n      staticcall\n      iszero\n      dup1\n      iszero\n      tag_217\n      jumpi\n      returndatasize\n      0x00\n      dup1\n      returndatacopy\n      revert(0x00, returndatasize)\n    tag_217:\n      pop\n      pop\n      pop\n      pop\n      mload(0x40)\n      returndatasize\n      not(0x1f)\n      0x1f\n      dup3\n      add\n      and\n      dup3\n      add\n      dup1\n      0x40\n      mstore\n      pop\n      dup2\n      add\n      swap1\n      tag_218\n      swap2\n      swap1\n      tag_126\n      jump\t// in\n    tag_218:\n        /* \"contracts/Template/Istanbul10/logic/Vote.sol\":2545:2550  _vote */\n      dup2\n        /* \"contracts/Template/Istanbul10/logic/Vote.sol\":2545:2559  _vote.supPopel */\n      0x06\n      add\n      0x00\n        /* \"contracts/Template/Istanbul10/logic/Vote.sol\":2545:2592  _vote.supPopel += veToken.balanceOf(msg.sender) */\n      dup3\n      dup3\n      sload\n      tag_219\n      swap2\n      swap1\n      tag_141\n      jump\t// in\n    tag_219:\n      swap1\n      swap2\n      sstore\n      pop\n        /* \"contracts/Template/Istanbul10/logic/Vote.sol\":1846:3505  if(_vote.status == VoteStatus.isvoting){\r... */\n      tag_257\n      swap1\n      pop\n      jump\n        /* \"contracts/Template/Istanbul10/logic/Vote.sol\":2188:2686  if(_result){\r... */\n    tag_199:\n        /* \"contracts/Template/Istanbul10/logic/Vote.sol\":2645:2652  veToken */\n      sload(0x03)\n        /* \"contracts/Template/Istanbul10/logic/Vote.sol\":2645:2674  veToken.balanceOf(msg.sender) */\n      mload(0x40)\n      shl(0xe0, 0x70a08231)\n      dup2\n      mstore\n        /* \"contracts/Template/Istanbul10/logic/Vote.sol\":2663:2673  msg.sender */\n      caller\n        /* \"contracts/Template/Istanbul10/logic/Vote.sol\":2645:2674  veToken.balanceOf(msg.sender) */\n      0x04\n      dup3\n      add\n        /* \"#utility.yul\":4566:4617   */\n      mstore\n      sub(shl(0xa0, 0x01), 0x01)\n        /* \"contracts/Template/Istanbul10/logic/Vote.sol\":2645:2652  veToken */\n      swap1\n      swap2\n      and\n      swap1\n        /* \"contracts/Template/Istanbul10/logic/Vote.sol\":2645:2662  veToken.balanceOf */\n      0x70a08231\n      swap1\n        /* \"#utility.yul\":4539:4557   */\n      0x24\n      add\n        /* \"contracts/Template/Istanbul10/logic/Vote.sol\":2645:2674  veToken.balanceOf(msg.sender) */\n      0x20\n      mload(0x40)\n      dup1\n      dup4\n      sub\n      dup2\n      dup7\n      dup1\n      extcodesize\n      iszero\n      dup1\n      iszero\n      tag_222\n      jumpi\n      0x00\n      dup1\n      revert\n    tag_222:\n      pop\n      gas\n      staticcall\n      iszero\n      dup1\n      iszero\n      tag_224\n      jumpi\n      returndatasize\n      0x00\n      dup1\n      returndatacopy\n      revert(0x00, returndatasize)\n    tag_224:\n      pop\n      pop\n      pop\n      pop\n      mload(0x40)\n      returndatasize\n      not(0x1f)\n      0x1f\n      dup3\n      add\n      and\n      dup3\n      add\n      dup1\n      0x40\n      mstore\n      pop\n      dup2\n      add\n      swap1\n      tag_225\n      swap2\n      swap1\n      tag_126\n      jump\t// in\n    tag_225:\n        /* \"contracts/Template/Istanbul10/logic/Vote.sol\":2623:2628  _vote */\n      dup2\n        /* \"contracts/Template/Istanbul10/logic/Vote.sol\":2623:2641  _vote.againstPopel */\n      0x07\n      add\n      0x00\n        /* \"contracts/Template/Istanbul10/logic/Vote.sol\":2623:2674  _vote.againstPopel += veToken.balanceOf(msg.sender) */\n      dup3\n      dup3\n      sload\n      tag_219\n      swap2\n      swap1\n      tag_141\n      jump\t// in\n        /* \"contracts/Template/Istanbul10/logic/Vote.sol\":1846:3505  if(_vote.status == VoteStatus.isvoting){\r... */\n    tag_184:\n        /* \"contracts/Template/Istanbul10/logic/Vote.sol\":2745:2768  VoteStatus.secondBallot */\n      0x05\n        /* \"contracts/Template/Istanbul10/logic/Vote.sol\":2729:2741  _vote.status */\n      0x08\n      dup3\n      add\n      sload\n      0xff\n      and\n        /* \"contracts/Template/Istanbul10/logic/Vote.sol\":2729:2768  _vote.status == VoteStatus.secondBallot */\n      0x06\n      dup2\n      gt\n      iszero\n      tag_231\n      jumpi\n      tag_231\n      tag_147\n      jump\t// in\n    tag_231:\n      eq\n        /* \"contracts/Template/Istanbul10/logic/Vote.sol\":2726:3505  if(_vote.status == VoteStatus.secondBallot) {\r... */\n      iszero\n      tag_232\n      jumpi\n        /* \"contracts/Template/Istanbul10/logic/Vote.sol\":2818:2828  msg.sender */\n      caller\n        /* \"contracts/Template/Istanbul10/logic/Vote.sol\":2793:2829  _vote.svote.VoterAddress[msg.sender] */\n      0x00\n      swap1\n      dup2\n      mstore\n        /* \"contracts/Template/Istanbul10/logic/Vote.sol\":2793:2817  _vote.svote.VoterAddress */\n      0x10\n      dup3\n      add\n        /* \"contracts/Template/Istanbul10/logic/Vote.sol\":2793:2829  _vote.svote.VoterAddress[msg.sender] */\n      0x20\n      mstore\n      0x40\n      swap1\n      keccak256\n        /* \"contracts/Template/Istanbul10/logic/Vote.sol\":2793:2835  _vote.svote.VoterAddress[msg.sender].voted */\n      sload\n      0xff\n      and\n        /* \"contracts/Template/Istanbul10/logic/Vote.sol\":2793:2844  _vote.svote.VoterAddress[msg.sender].voted == false */\n      iszero\n        /* \"contracts/Template/Istanbul10/logic/Vote.sol\":2785:2859  require(_vote.svote.VoterAddress[msg.sender].voted == false,\"Vote before\") */\n      tag_233\n      jumpi\n      mload(0x40)\n      shl(0xe5, 0x461bcd)\n      dup2\n      mstore\n        /* \"#utility.yul\":12903:12905   */\n      0x20\n        /* \"contracts/Template/Istanbul10/logic/Vote.sol\":2785:2859  require(_vote.svote.VoterAddress[msg.sender].voted == false,\"Vote before\") */\n      0x04\n      dup3\n      add\n        /* \"#utility.yul\":12885:12906   */\n      mstore\n        /* \"#utility.yul\":12942:12944   */\n      0x0b\n        /* \"#utility.yul\":12922:12940   */\n      0x24\n      dup3\n      add\n        /* \"#utility.yul\":12915:12945   */\n      mstore\n      shl(0xa8, 0x566f7465206265666f7265)\n        /* \"#utility.yul\":12961:12979   */\n      0x44\n      dup3\n      add\n        /* \"#utility.yul\":12954:12995   */\n      mstore\n        /* \"#utility.yul\":13012:13030   */\n      0x64\n      add\n        /* \"contracts/Template/Istanbul10/logic/Vote.sol\":2785:2859  require(_vote.svote.VoterAddress[msg.sender].voted == false,\"Vote before\") */\n      tag_137\n        /* \"#utility.yul\":12875:13036   */\n      jump\n        /* \"contracts/Template/Istanbul10/logic/Vote.sol\":2785:2859  require(_vote.svote.VoterAddress[msg.sender].voted == false,\"Vote before\") */\n    tag_233:\n        /* \"contracts/Template/Istanbul10/logic/Vote.sol\":2900:2905  _vote */\n      dup1\n        /* \"contracts/Template/Istanbul10/logic/Vote.sol\":2900:2910  _vote.time */\n      0x02\n      add\n      sload\n        /* \"contracts/Template/Istanbul10/logic/Vote.sol\":2882:2897  block.timestamp */\n      timestamp\n        /* \"contracts/Template/Istanbul10/logic/Vote.sol\":2882:2910  block.timestamp < _vote.time */\n      lt\n        /* \"contracts/Template/Istanbul10/logic/Vote.sol\":2874:2942  require(block.timestamp < _vote.time,\"Not within the allotted time\") */\n      tag_235\n      jumpi\n      mload(0x40)\n      shl(0xe5, 0x461bcd)\n      dup2\n      mstore\n        /* \"#utility.yul\":8215:8217   */\n      0x20\n        /* \"contracts/Template/Istanbul10/logic/Vote.sol\":2874:2942  require(block.timestamp < _vote.time,\"Not within the allotted time\") */\n      0x04\n      dup3\n      add\n        /* \"#utility.yul\":8197:8218   */\n      mstore\n        /* \"#utility.yul\":8254:8256   */\n      0x1c\n        /* \"#utility.yul\":8234:8252   */\n      0x24\n      dup3\n      add\n        /* \"#utility.yul\":8227:8257   */\n      mstore\n        /* \"#utility.yul\":8293:8323   */\n      0x4e6f742077697468696e2074686520616c6c6f747465642074696d6500000000\n        /* \"#utility.yul\":8273:8291   */\n      0x44\n      dup3\n      add\n        /* \"#utility.yul\":8266:8324   */\n      mstore\n        /* \"#utility.yul\":8341:8359   */\n      0x64\n      add\n        /* \"contracts/Template/Istanbul10/logic/Vote.sol\":2874:2942  require(block.timestamp < _vote.time,\"Not within the allotted time\") */\n      tag_137\n        /* \"#utility.yul\":8187:8365   */\n      jump\n        /* \"contracts/Template/Istanbul10/logic/Vote.sol\":2874:2942  require(block.timestamp < _vote.time,\"Not within the allotted time\") */\n    tag_235:\n        /* \"contracts/Template/Istanbul10/logic/Vote.sol\":2982:2992  msg.sender */\n      caller\n        /* \"contracts/Template/Istanbul10/logic/Vote.sol\":2957:2993  _vote.svote.VoterAddress[msg.sender] */\n      0x00\n      swap1\n      dup2\n      mstore\n        /* \"contracts/Template/Istanbul10/logic/Vote.sol\":2957:2981  _vote.svote.VoterAddress */\n      0x10\n      dup3\n      add\n        /* \"contracts/Template/Istanbul10/logic/Vote.sol\":2957:2993  _vote.svote.VoterAddress[msg.sender] */\n      0x20\n      swap1\n      dup2\n      mstore\n      0x40\n      dup1\n      dup4\n      keccak256\n        /* \"contracts/Template/Istanbul10/logic/Vote.sol\":2957:3006  _vote.svote.VoterAddress[msg.sender].voted = true */\n      dup1\n      sload\n      not(0xff)\n      and\n        /* \"contracts/Template/Istanbul10/logic/Vote.sol\":3002:3006  true */\n      0x01\n        /* \"contracts/Template/Istanbul10/logic/Vote.sol\":2957:3006  _vote.svote.VoterAddress[msg.sender].voted = true */\n      swap1\n      dup2\n      or\n      swap1\n      swap2\n      sstore\n        /* \"contracts/Template/Istanbul10/logic/Vote.sol\":3024:3042  _vote.VoterAddress */\n      0x0b\n      dup6\n      add\n        /* \"contracts/Template/Istanbul10/logic/Vote.sol\":3024:3054  _vote.VoterAddress[msg.sender] */\n      swap1\n      swap3\n      mstore\n      swap1\n      swap2\n      keccak256\n        /* \"contracts/Template/Istanbul10/logic/Vote.sol\":3024:3061  _vote.VoterAddress[msg.sender].bailor */\n      add\n        /* \"contracts/Template/Istanbul10/logic/Vote.sol\":3024:3068  _vote.VoterAddress[msg.sender].bailor.length */\n      sload\n        /* \"contracts/Template/Istanbul10/logic/Vote.sol\":3024:3073  _vote.VoterAddress[msg.sender].bailor.length != 0 */\n      iszero\n        /* \"contracts/Template/Istanbul10/logic/Vote.sol\":3021:3340  if(_vote.VoterAddress[msg.sender].bailor.length != 0){\r... */\n      tag_237\n      jumpi\n        /* \"contracts/Template/Istanbul10/logic/Vote.sol\":3097:3104  uint  i */\n      0x00\n        /* \"contracts/Template/Istanbul10/logic/Vote.sol\":3093:3325  for(uint  i = 0; i <  _vote.VoterAddress[msg.sender].bailor.length; ++i){\r... */\n    tag_238:\n        /* \"contracts/Template/Istanbul10/logic/Vote.sol\":3134:3144  msg.sender */\n      caller\n        /* \"contracts/Template/Istanbul10/logic/Vote.sol\":3115:3145  _vote.VoterAddress[msg.sender] */\n      0x00\n      swap1\n      dup2\n      mstore\n        /* \"contracts/Template/Istanbul10/logic/Vote.sol\":3115:3133  _vote.VoterAddress */\n      0x0b\n      dup4\n      add\n        /* \"contracts/Template/Istanbul10/logic/Vote.sol\":3115:3145  _vote.VoterAddress[msg.sender] */\n      0x20\n      mstore\n      0x40\n      swap1\n      keccak256\n        /* \"contracts/Template/Istanbul10/logic/Vote.sol\":3115:3152  _vote.VoterAddress[msg.sender].bailor */\n      0x01\n      add\n        /* \"contracts/Template/Istanbul10/logic/Vote.sol\":3115:3159  _vote.VoterAddress[msg.sender].bailor.length */\n      sload\n        /* \"contracts/Template/Istanbul10/logic/Vote.sol\":3110:3159  i <  _vote.VoterAddress[msg.sender].bailor.length */\n      dup2\n      lt\n        /* \"contracts/Template/Istanbul10/logic/Vote.sol\":3093:3325  for(uint  i = 0; i <  _vote.VoterAddress[msg.sender].bailor.length; ++i){\r... */\n      iszero\n      tag_239\n      jumpi\n        /* \"contracts/Template/Istanbul10/logic/Vote.sol\":3225:3235  msg.sender */\n      caller\n        /* \"contracts/Template/Istanbul10/logic/Vote.sol\":3188:3203  address deleAdd */\n      0x00\n        /* \"contracts/Template/Istanbul10/logic/Vote.sol\":3206:3236  _vote.VoterAddress[msg.sender] */\n      swap1\n      dup2\n      mstore\n        /* \"contracts/Template/Istanbul10/logic/Vote.sol\":3206:3224  _vote.VoterAddress */\n      0x0b\n      dup4\n      add\n        /* \"contracts/Template/Istanbul10/logic/Vote.sol\":3206:3236  _vote.VoterAddress[msg.sender] */\n      0x20\n      mstore\n      0x40\n      dup2\n      keccak256\n        /* \"contracts/Template/Istanbul10/logic/Vote.sol\":3206:3243  _vote.VoterAddress[msg.sender].bailor */\n      0x01\n      add\n        /* \"contracts/Template/Istanbul10/logic/Vote.sol\":3206:3246  _vote.VoterAddress[msg.sender].bailor[i] */\n      dup1\n      sload\n        /* \"contracts/Template/Istanbul10/logic/Vote.sol\":3244:3245  i */\n      dup4\n      swap1\n        /* \"contracts/Template/Istanbul10/logic/Vote.sol\":3206:3246  _vote.VoterAddress[msg.sender].bailor[i] */\n      dup2\n      lt\n      tag_242\n      jumpi\n      tag_242\n      tag_116\n      jump\t// in\n    tag_242:\n      0x00\n      swap2\n      dup3\n      mstore\n      0x20\n      swap1\n      swap2\n      keccak256\n      add\n      sload\n        /* \"contracts/Template/Istanbul10/logic/Vote.sol\":3279:3286  veToken */\n      sload(0x03)\n        /* \"contracts/Template/Istanbul10/logic/Vote.sol\":3279:3305  veToken.balanceOf(deleAdd) */\n      mload(0x40)\n      shl(0xe0, 0x70a08231)\n      dup2\n      mstore\n      sub(shl(0xa0, 0x01), 0x01)\n        /* \"contracts/Template/Istanbul10/logic/Vote.sol\":3206:3246  _vote.VoterAddress[msg.sender].bailor[i] */\n      swap3\n      dup4\n      and\n        /* \"contracts/Template/Istanbul10/logic/Vote.sol\":3279:3305  veToken.balanceOf(deleAdd) */\n      0x04\n      dup3\n      add\n        /* \"#utility.yul\":4566:4617   */\n      dup2\n      swap1\n      mstore\n        /* \"contracts/Template/Istanbul10/logic/Vote.sol\":3206:3246  _vote.VoterAddress[msg.sender].bailor[i] */\n      swap4\n      pop\n        /* \"contracts/Template/Istanbul10/logic/Vote.sol\":3279:3286  veToken */\n      swap2\n      and\n      swap1\n        /* \"contracts/Template/Istanbul10/logic/Vote.sol\":3279:3296  veToken.balanceOf */\n      0x70a08231\n      swap1\n        /* \"#utility.yul\":4539:4557   */\n      0x24\n      add\n        /* \"contracts/Template/Istanbul10/logic/Vote.sol\":3279:3305  veToken.balanceOf(deleAdd) */\n      0x20\n      mload(0x40)\n      dup1\n      dup4\n      sub\n      dup2\n      dup7\n      dup1\n      extcodesize\n      iszero\n      dup1\n      iszero\n      tag_245\n      jumpi\n      0x00\n      dup1\n      revert\n    tag_245:\n      pop\n      gas\n      staticcall\n      iszero\n      dup1\n      iszero\n      tag_247\n      jumpi\n      returndatasize\n      0x00\n      dup1\n      returndatacopy\n      revert(0x00, returndatasize)\n    tag_247:\n      pop\n      pop\n      pop\n      pop\n      mload(0x40)\n      returndatasize\n      not(0x1f)\n      0x1f\n      dup3\n      add\n      and\n      dup3\n      add\n      dup1\n      0x40\n      mstore\n      pop\n      dup2\n      add\n      swap1\n      tag_248\n      swap2\n      swap1\n      tag_126\n      jump\t// in\n    tag_248:\n        /* \"contracts/Template/Istanbul10/logic/Vote.sol\":3269:3305  weight += veToken.balanceOf(deleAdd) */\n      tag_249\n      swap1\n      dup6\n      tag_141\n      jump\t// in\n    tag_249:\n      swap4\n      pop\n        /* \"contracts/Template/Istanbul10/logic/Vote.sol\":3165:3325  {\r... */\n      pop\n        /* \"contracts/Template/Istanbul10/logic/Vote.sol\":3161:3164  ++i */\n      dup1\n      tag_250\n      swap1\n      tag_118\n      jump\t// in\n    tag_250:\n      swap1\n      pop\n        /* \"contracts/Template/Istanbul10/logic/Vote.sol\":3093:3325  for(uint  i = 0; i <  _vote.VoterAddress[msg.sender].bailor.length; ++i){\r... */\n      jump(tag_238)\n    tag_239:\n      pop\n        /* \"contracts/Template/Istanbul10/logic/Vote.sol\":3021:3340  if(_vote.VoterAddress[msg.sender].bailor.length != 0){\r... */\n    tag_237:\n        /* \"contracts/Template/Istanbul10/logic/Vote.sol\":3376:3383  veToken */\n      sload(0x03)\n        /* \"contracts/Template/Istanbul10/logic/Vote.sol\":3376:3405  veToken.balanceOf(msg.sender) */\n      mload(0x40)\n      shl(0xe0, 0x70a08231)\n      dup2\n      mstore\n        /* \"contracts/Template/Istanbul10/logic/Vote.sol\":3394:3404  msg.sender */\n      caller\n        /* \"contracts/Template/Istanbul10/logic/Vote.sol\":3376:3405  veToken.balanceOf(msg.sender) */\n      0x04\n      dup3\n      add\n        /* \"#utility.yul\":4566:4617   */\n      mstore\n      sub(shl(0xa0, 0x01), 0x01)\n        /* \"contracts/Template/Istanbul10/logic/Vote.sol\":3376:3383  veToken */\n      swap1\n      swap2\n      and\n      swap1\n        /* \"contracts/Template/Istanbul10/logic/Vote.sol\":3376:3393  veToken.balanceOf */\n      0x70a08231\n      swap1\n        /* \"#utility.yul\":4539:4557   */\n      0x24\n      add\n        /* \"contracts/Template/Istanbul10/logic/Vote.sol\":3376:3405  veToken.balanceOf(msg.sender) */\n      0x20\n      mload(0x40)\n      dup1\n      dup4\n      sub\n      dup2\n      dup7\n      dup1\n      extcodesize\n      iszero\n      dup1\n      iszero\n      tag_252\n      jumpi\n      0x00\n      dup1\n      revert\n    tag_252:\n      pop\n      gas\n      staticcall\n      iszero\n      dup1\n      iszero\n      tag_254\n      jumpi\n      returndatasize\n      0x00\n      dup1\n      returndatacopy\n      revert(0x00, returndatasize)\n    tag_254:\n      pop\n      pop\n      pop\n      pop\n      mload(0x40)\n      returndatasize\n      not(0x1f)\n      0x1f\n      dup3\n      add\n      and\n      dup3\n      add\n      dup1\n      0x40\n      mstore\n      pop\n      dup2\n      add\n      swap1\n      tag_255\n      swap2\n      swap1\n      tag_126\n      jump\t// in\n    tag_255:\n        /* \"contracts/Template/Istanbul10/logic/Vote.sol\":3352:3372  _vote.svote.supPopel */\n      0x0e\n      dup3\n      add\n        /* \"contracts/Template/Istanbul10/logic/Vote.sol\":3352:3405  _vote.svote.supPopel += veToken.balanceOf(msg.sender) */\n      dup1\n      sload\n        /* \"contracts/Template/Istanbul10/logic/Vote.sol\":3352:3372  _vote.svote.supPopel */\n      0x00\n      swap1\n        /* \"contracts/Template/Istanbul10/logic/Vote.sol\":3352:3405  _vote.svote.supPopel += veToken.balanceOf(msg.sender) */\n      tag_219\n      swap1\n      dup5\n      swap1\n      tag_141\n      jump\t// in\n        /* \"contracts/Template/Istanbul10/logic/Vote.sol\":2726:3505  if(_vote.status == VoteStatus.secondBallot) {\r... */\n    tag_232:\n        /* \"contracts/Template/Istanbul10/logic/Vote.sol\":3464:3471  veToken */\n      sload(0x03)\n        /* \"contracts/Template/Istanbul10/logic/Vote.sol\":3464:3493  veToken.balanceOf(msg.sender) */\n      mload(0x40)\n      shl(0xe0, 0x70a08231)\n      dup2\n      mstore\n        /* \"contracts/Template/Istanbul10/logic/Vote.sol\":3482:3492  msg.sender */\n      caller\n        /* \"contracts/Template/Istanbul10/logic/Vote.sol\":3464:3493  veToken.balanceOf(msg.sender) */\n      0x04\n      dup3\n      add\n        /* \"#utility.yul\":4566:4617   */\n      mstore\n      sub(shl(0xa0, 0x01), 0x01)\n        /* \"contracts/Template/Istanbul10/logic/Vote.sol\":3464:3471  veToken */\n      swap1\n      swap2\n      and\n      swap1\n        /* \"contracts/Template/Istanbul10/logic/Vote.sol\":3464:3481  veToken.balanceOf */\n      0x70a08231\n      swap1\n        /* \"#utility.yul\":4539:4557   */\n      0x24\n      add\n        /* \"contracts/Template/Istanbul10/logic/Vote.sol\":3464:3493  veToken.balanceOf(msg.sender) */\n      0x20\n      mload(0x40)\n      dup1\n      dup4\n      sub\n      dup2\n      dup7\n      dup1\n      extcodesize\n      iszero\n      dup1\n      iszero\n      tag_259\n      jumpi\n      0x00\n      dup1\n      revert\n    tag_259:\n      pop\n      gas\n      staticcall\n      iszero\n      dup1\n      iszero\n      tag_261\n      jumpi\n      returndatasize\n      0x00\n      dup1\n      returndatacopy\n      revert(0x00, returndatasize)\n    tag_261:\n      pop\n      pop\n      pop\n      pop\n      mload(0x40)\n      returndatasize\n      not(0x1f)\n      0x1f\n      dup3\n      add\n      and\n      dup3\n      add\n      dup1\n      0x40\n      mstore\n      pop\n      dup2\n      add\n      swap1\n      tag_262\n      swap2\n      swap1\n      tag_126\n      jump\t// in\n    tag_262:\n        /* \"contracts/Template/Istanbul10/logic/Vote.sol\":3436:3460  _vote.svote.againstPopel */\n      0x0f\n      dup3\n      add\n        /* \"contracts/Template/Istanbul10/logic/Vote.sol\":3436:3493  _vote.svote.againstPopel += veToken.balanceOf(msg.sender) */\n      dup1\n      sload\n        /* \"contracts/Template/Istanbul10/logic/Vote.sol\":3436:3460  _vote.svote.againstPopel */\n      0x00\n      swap1\n        /* \"contracts/Template/Istanbul10/logic/Vote.sol\":3436:3493  _vote.svote.againstPopel += veToken.balanceOf(msg.sender) */\n      tag_263\n      swap1\n      dup5\n      swap1\n      tag_141\n      jump\t// in\n    tag_263:\n      swap1\n      swap2\n      sstore\n      pop\n      pop\n        /* \"contracts/Template/Istanbul10/logic/Vote.sol\":2726:3505  if(_vote.status == VoteStatus.secondBallot) {\r... */\n    tag_257:\n        /* \"contracts/Template/Istanbul10/logic/Vote.sol\":3532:3539  _voteId */\n      dup4\n        /* \"contracts/Template/Istanbul10/logic/Vote.sol\":3520:3548  ToVoteEvent(_voteId,_result) */\n      0x72869afc3552df414602b428f5e96b4eb3fab540271192c4f31eb3adaf5faf1e\n        /* \"contracts/Template/Istanbul10/logic/Vote.sol\":3540:3547  _result */\n      dup5\n        /* \"contracts/Template/Istanbul10/logic/Vote.sol\":3520:3548  ToVoteEvent(_voteId,_result) */\n      mload(0x40)\n      tag_158\n      swap2\n        /* \"#utility.yul\":6161:6175   */\n      iszero\n        /* \"#utility.yul\":6154:6176   */\n      iszero\n        /* \"#utility.yul\":6136:6177   */\n      dup2\n      mstore\n        /* \"#utility.yul\":6124:6126   */\n      0x20\n        /* \"#utility.yul\":6109:6127   */\n      add\n      swap1\n        /* \"#utility.yul\":6091:6183   */\n      jump\n        /* \"contracts/Template/Istanbul10/logic/Vote.sol\":7858:8048  function getVoteStatuswithVoteId(uint256 _voteId) public view returns (uint256  status){\r... */\n    tag_70:\n        /* \"contracts/Template/Istanbul10/logic/Vote.sol\":7929:7944  uint256  status */\n      0x00\n        /* \"contracts/Template/Istanbul10/logic/Vote.sol\":7984:8001  voteMapp[_voteId] */\n      dup2\n      dup2\n      mstore\n        /* \"contracts/Template/Istanbul10/logic/Vote.sol\":7984:7992  voteMapp */\n      0x07\n        /* \"contracts/Template/Istanbul10/logic/Vote.sol\":7984:8001  voteMapp[_voteId] */\n      0x20\n      mstore\n      0x40\n      dup2\n      keccak256\n        /* \"contracts/Template/Istanbul10/logic/Vote.sol\":8027:8039  _vote.status */\n      0x08\n      dup2\n      add\n      sload\n      0xff\n      and\n        /* \"contracts/Template/Istanbul10/logic/Vote.sol\":8019:8040  uint256(_vote.status) */\n      0x06\n      dup2\n      gt\n      iszero\n      tag_268\n      jumpi\n      tag_268\n      tag_147\n      jump\t// in\n    tag_268:\n        /* \"contracts/Template/Istanbul10/logic/Vote.sol\":8012:8040  return uint256(_vote.status) */\n      swap4\n        /* \"contracts/Template/Istanbul10/logic/Vote.sol\":7858:8048  function getVoteStatuswithVoteId(uint256 _voteId) public view returns (uint256  status){\r... */\n      swap3\n      pop\n      pop\n      pop\n      jump\t// out\n        /* \"contracts/Template/Istanbul10/logic/Vote.sol\":7342:7850  function setGovernanceTemplate(string memory _topic,address _targetAddress,string memory  _functionName) public override {\r... */\n    tag_75:\n        /* \"contracts/Template/Istanbul10/logic/Vote.sol\":7533:7546  TemplateTotal */\n      sload(0x06)\n        /* \"contracts/Template/Istanbul10/logic/Vote.sol\":7484:7521  GgovernanceTemplate storage _Template */\n      0x00\n        /* \"contracts/Template/Istanbul10/logic/Vote.sol\":7524:7547  Template[TemplateTotal] */\n      dup2\n      dup2\n      mstore\n        /* \"contracts/Template/Istanbul10/logic/Vote.sol\":7524:7532  Template */\n      0x08\n        /* \"contracts/Template/Istanbul10/logic/Vote.sol\":7524:7547  Template[TemplateTotal] */\n      0x20\n      swap1\n      dup2\n      mstore\n      0x40\n      swap1\n      swap2\n      keccak256\n        /* \"contracts/Template/Istanbul10/logic/Vote.sol\":7559:7595  _Template.templateId = TemplateTotal */\n      swap2\n      dup3\n      sstore\n        /* \"contracts/Template/Istanbul10/logic/Vote.sol\":7606:7629  _Template.targetAddress */\n      0x02\n      dup3\n      add\n        /* \"contracts/Template/Istanbul10/logic/Vote.sol\":7606:7646  _Template.targetAddress = _targetAddress */\n      dup1\n      sload\n      not(sub(shl(0xa0, 0x01), 0x01))\n      and\n      sub(shl(0xa0, 0x01), 0x01)\n      dup7\n      and\n      or\n      swap1\n      sstore\n        /* \"contracts/Template/Istanbul10/logic/Vote.sol\":7657:7695  _Template.functionName = _functionName */\n      dup3\n      mload\n      tag_270\n      swap2\n        /* \"contracts/Template/Istanbul10/logic/Vote.sol\":7657:7679  _Template.functionName */\n      0x03\n      dup5\n      add\n      swap2\n        /* \"contracts/Template/Istanbul10/logic/Vote.sol\":7657:7695  _Template.functionName = _functionName */\n      swap1\n      dup6\n      add\n      swap1\n      tag_156\n      jump\t// in\n    tag_270:\n      pop\n        /* \"contracts/Template/Istanbul10/logic/Vote.sol\":7706:7732  _Template.toppic =  _topic */\n      dup4\n      mload\n      tag_271\n      swap1\n        /* \"contracts/Template/Istanbul10/logic/Vote.sol\":7706:7722  _Template.toppic */\n      0x01\n      dup4\n      add\n      swap1\n        /* \"contracts/Template/Istanbul10/logic/Vote.sol\":7706:7732  _Template.toppic =  _topic */\n      0x20\n      dup8\n      add\n      swap1\n      tag_156\n      jump\t// in\n    tag_271:\n      pop\n        /* \"contracts/Template/Istanbul10/logic/Vote.sol\":7744:7757  TemplateTotal */\n      0x06\n        /* \"contracts/Template/Istanbul10/logic/Vote.sol\":7744:7760  TemplateTotal ++ */\n      dup1\n      sload\n      swap1\n        /* \"contracts/Template/Istanbul10/logic/Vote.sol\":7744:7757  TemplateTotal */\n      0x00\n        /* \"contracts/Template/Istanbul10/logic/Vote.sol\":7744:7760  TemplateTotal ++ */\n      tag_272\n      dup4\n      tag_118\n      jump\t// in\n    tag_272:\n      swap2\n      swap1\n      pop\n      sstore\n      pop\n        /* \"contracts/Template/Istanbul10/logic/Vote.sol\":7778:7841  SetGovernanceTemplateEvent(_topic,_targetAddress,_functionName) */\n      0x291fb4c9ec38b653e778aad63d42ce4710da5b91c49a033ba04963dd409300eb\n        /* \"contracts/Template/Istanbul10/logic/Vote.sol\":7805:7811  _topic */\n      dup5\n        /* \"contracts/Template/Istanbul10/logic/Vote.sol\":7812:7826  _targetAddress */\n      dup5\n        /* \"contracts/Template/Istanbul10/logic/Vote.sol\":7827:7840  _functionName */\n      dup5\n        /* \"contracts/Template/Istanbul10/logic/Vote.sol\":7778:7841  SetGovernanceTemplateEvent(_topic,_targetAddress,_functionName) */\n      mload(0x40)\n      tag_273\n      swap4\n      swap3\n      swap2\n      swap1\n      tag_274\n      jump\t// in\n    tag_273:\n      mload(0x40)\n      dup1\n      swap2\n      sub\n      swap1\n      log1\n        /* \"contracts/Template/Istanbul10/logic/Vote.sol\":7463:7850  {\r... */\n      pop\n        /* \"contracts/Template/Istanbul10/logic/Vote.sol\":7342:7850  function setGovernanceTemplate(string memory _topic,address _targetAddress,string memory  _functionName) public override {\r... */\n      pop\n      pop\n      pop\n      jump\t// out\n        /* \"contracts/Template/Istanbul10/logic/Vote.sol\":538:1551  function createVote(\r... */\n    tag_83:\n        /* \"contracts/Template/Istanbul10/logic/Vote.sol\":720:734  uint256 voteId */\n      0x00\n        /* \"contracts/Template/Istanbul10/logic/Vote.sol\":746:766  uint256 _totalsupply */\n      dup1\n        /* \"contracts/Template/Istanbul10/logic/Vote.sol\":791:795  1000 */\n      0x03e8\n        /* \"contracts/Template/Istanbul10/logic/Vote.sol\":769:776  veToken */\n      0x03\n      0x00\n      swap1\n      sload\n      swap1\n      0x0100\n      exp\n      swap1\n      div\n      sub(shl(0xa0, 0x01), 0x01)\n      and\n      sub(shl(0xa0, 0x01), 0x01)\n        /* \"contracts/Template/Istanbul10/logic/Vote.sol\":769:788  veToken.totalSupply */\n      and\n      0x18160ddd\n        /* \"contracts/Template/Istanbul10/logic/Vote.sol\":769:790  veToken.totalSupply() */\n      mload(0x40)\n      dup2\n      0xffffffff\n      and\n      0xe0\n      shl\n      dup2\n      mstore\n      0x04\n      add\n      0x20\n      mload(0x40)\n      dup1\n      dup4\n      sub\n      dup2\n      dup7\n      dup1\n      extcodesize\n      iszero\n      dup1\n      iszero\n      tag_276\n      jumpi\n      0x00\n      dup1\n      revert\n    tag_276:\n      pop\n      gas\n      staticcall\n      iszero\n      dup1\n      iszero\n      tag_278\n      jumpi\n      returndatasize\n      0x00\n      dup1\n      returndatacopy\n      revert(0x00, returndatasize)\n    tag_278:\n      pop\n      pop\n      pop\n      pop\n      mload(0x40)\n      returndatasize\n      not(0x1f)\n      0x1f\n      dup3\n      add\n      and\n      dup3\n      add\n      dup1\n      0x40\n      mstore\n      pop\n      dup2\n      add\n      swap1\n      tag_279\n      swap2\n      swap1\n      tag_126\n      jump\t// in\n    tag_279:\n        /* \"contracts/Template/Istanbul10/logic/Vote.sol\":769:795  veToken.totalSupply()/1000 */\n      tag_280\n      swap2\n      swap1\n      tag_128\n      jump\t// in\n    tag_280:\n        /* \"contracts/Template/Istanbul10/logic/Vote.sol\":769:798  veToken.totalSupply()/1000*50 */\n      tag_281\n      swap1\n        /* \"contracts/Template/Istanbul10/logic/Vote.sol\":796:798  50 */\n      0x32\n        /* \"contracts/Template/Istanbul10/logic/Vote.sol\":769:798  veToken.totalSupply()/1000*50 */\n      tag_130\n      jump\t// in\n    tag_281:\n        /* \"contracts/Template/Istanbul10/logic/Vote.sol\":817:824  veToken */\n      sload(0x03)\n        /* \"contracts/Template/Istanbul10/logic/Vote.sol\":817:846  veToken.balanceOf(msg.sender) */\n      mload(0x40)\n      shl(0xe0, 0x70a08231)\n      dup2\n      mstore\n        /* \"contracts/Template/Istanbul10/logic/Vote.sol\":835:845  msg.sender */\n      caller\n        /* \"contracts/Template/Istanbul10/logic/Vote.sol\":817:846  veToken.balanceOf(msg.sender) */\n      0x04\n      dup3\n      add\n        /* \"#utility.yul\":4566:4617   */\n      mstore\n        /* \"contracts/Template/Istanbul10/logic/Vote.sol\":746:798  uint256 _totalsupply = veToken.totalSupply()/1000*50 */\n      swap2\n      swap3\n      pop\n      dup3\n      swap2\n      sub(shl(0xa0, 0x01), 0x01)\n        /* \"contracts/Template/Istanbul10/logic/Vote.sol\":817:824  veToken */\n      swap1\n      swap2\n      and\n      swap1\n        /* \"contracts/Template/Istanbul10/logic/Vote.sol\":817:834  veToken.balanceOf */\n      0x70a08231\n      swap1\n        /* \"#utility.yul\":4539:4557   */\n      0x24\n      add\n        /* \"contracts/Template/Istanbul10/logic/Vote.sol\":817:846  veToken.balanceOf(msg.sender) */\n      0x20\n      mload(0x40)\n      dup1\n      dup4\n      sub\n      dup2\n      dup7\n      dup1\n      extcodesize\n      iszero\n      dup1\n      iszero\n      tag_283\n      jumpi\n      0x00\n      dup1\n      revert\n    tag_283:\n      pop\n      gas\n      staticcall\n      iszero\n      dup1\n      iszero\n      tag_285\n      jumpi\n      returndatasize\n      0x00\n      dup1\n      returndatacopy\n      revert(0x00, returndatasize)\n    tag_285:\n      pop\n      pop\n      pop\n      pop\n      mload(0x40)\n      returndatasize\n      not(0x1f)\n      0x1f\n      dup3\n      add\n      and\n      dup3\n      add\n      dup1\n      0x40\n      mstore\n      pop\n      dup2\n      add\n      swap1\n      tag_286\n      swap2\n      swap1\n      tag_126\n      jump\t// in\n    tag_286:\n        /* \"contracts/Template/Istanbul10/logic/Vote.sol\":817:862  veToken.balanceOf(msg.sender) >= _totalsupply */\n      lt\n      iszero\n        /* \"contracts/Template/Istanbul10/logic/Vote.sol\":809:907  require(veToken.balanceOf(msg.sender) >= _totalsupply,\"veToken Less than 30 percent of the total\") */\n      tag_287\n      jumpi\n      mload(0x40)\n      shl(0xe5, 0x461bcd)\n      dup2\n      mstore\n      0x04\n      add\n      tag_137\n      swap1\n      tag_138\n      jump\t// in\n    tag_287:\n        /* \"contracts/Template/Istanbul10/logic/Vote.sol\":920:930  voteTatola */\n      0x04\n        /* \"contracts/Template/Istanbul10/logic/Vote.sol\":920:933  voteTatola ++ */\n      dup1\n      sload\n      swap1\n        /* \"contracts/Template/Istanbul10/logic/Vote.sol\":920:930  voteTatola */\n      0x00\n        /* \"contracts/Template/Istanbul10/logic/Vote.sol\":920:933  voteTatola ++ */\n      tag_289\n      dup4\n      tag_118\n      jump\t// in\n    tag_289:\n      swap1\n      swap2\n      sstore\n      pop\n      pop\n        /* \"contracts/Template/Istanbul10/logic/Vote.sol\":987:997  voteTatola */\n      sload(0x04)\n        /* \"contracts/Template/Istanbul10/logic/Vote.sol\":944:975  VoteStruct  storage _VoteStruct */\n      0x00\n        /* \"contracts/Template/Istanbul10/logic/Vote.sol\":978:998  voteMapp[voteTatola] */\n      swap1\n      dup2\n      mstore\n        /* \"contracts/Template/Istanbul10/logic/Vote.sol\":978:986  voteMapp */\n      0x07\n        /* \"contracts/Template/Istanbul10/logic/Vote.sol\":978:998  voteMapp[voteTatola] */\n      0x20\n      swap1\n      dup2\n      mstore\n      0x40\n      swap1\n      swap2\n      keccak256\n        /* \"contracts/Template/Istanbul10/logic/Vote.sol\":1009:1047  _VoteStruct.totalsupply = _totalsupply */\n      dup3\n      dup2\n      sstore\n        /* \"contracts/Template/Istanbul10/logic/Vote.sol\":1058:1092  _VoteStruct.voteTopic = _voteTopic */\n      dup8\n      mload\n        /* \"contracts/Template/Istanbul10/logic/Vote.sol\":978:998  voteMapp[voteTatola] */\n      swap1\n      swap2\n        /* \"contracts/Template/Istanbul10/logic/Vote.sol\":1058:1092  _VoteStruct.voteTopic = _voteTopic */\n      tag_290\n      swap2\n        /* \"contracts/Template/Istanbul10/logic/Vote.sol\":1058:1079  _VoteStruct.voteTopic */\n      0x03\n      dup5\n      add\n      swap2\n        /* \"contracts/Template/Istanbul10/logic/Vote.sol\":1058:1092  _VoteStruct.voteTopic = _voteTopic */\n      dup11\n      add\n      swap1\n      tag_156\n      jump\t// in\n    tag_290:\n      pop\n        /* \"contracts/Template/Istanbul10/logic/Vote.sol\":1124:1134  voteTatola */\n      sload(0x04)\n        /* \"contracts/Template/Istanbul10/logic/Vote.sol\":1103:1121  _VoteStruct.voteId */\n      0x01\n      dup3\n      add\n        /* \"contracts/Template/Istanbul10/logic/Vote.sol\":1103:1134  _VoteStruct.voteId = voteTatola */\n      sstore\n        /* \"contracts/Template/Istanbul10/logic/Vote.sol\":1182:1190  voteTime */\n      sload(0x00)\n        /* \"contracts/Template/Istanbul10/logic/Vote.sol\":1164:1190  block.timestamp + voteTime */\n      tag_291\n      swap1\n        /* \"contracts/Template/Istanbul10/logic/Vote.sol\":1164:1179  block.timestamp */\n      timestamp\n        /* \"contracts/Template/Istanbul10/logic/Vote.sol\":1164:1190  block.timestamp + voteTime */\n      tag_141\n      jump\t// in\n    tag_291:\n        /* \"contracts/Template/Istanbul10/logic/Vote.sol\":1145:1161  _VoteStruct.time */\n      0x02\n      dup3\n      add\n        /* \"contracts/Template/Istanbul10/logic/Vote.sol\":1145:1190  _VoteStruct.time = block.timestamp + voteTime */\n      sstore\n        /* \"contracts/Template/Istanbul10/logic/Vote.sol\":1201:1222  _VoteStruct.initiator */\n      0x04\n      dup2\n      add\n        /* \"contracts/Template/Istanbul10/logic/Vote.sol\":1201:1235  _VoteStruct.initiator = msg.sender */\n      dup1\n      sload\n      not(sub(shl(0xa0, 0x01), 0x01))\n      and\n        /* \"contracts/Template/Istanbul10/logic/Vote.sol\":1225:1235  msg.sender */\n      caller\n        /* \"contracts/Template/Istanbul10/logic/Vote.sol\":1201:1235  _VoteStruct.initiator = msg.sender */\n      or\n      swap1\n      sstore\n        /* \"contracts/Template/Istanbul10/logic/Vote.sol\":1246:1278  _VoteStruct.describe = _describe */\n      dup6\n      mload\n      tag_292\n      swap1\n        /* \"contracts/Template/Istanbul10/logic/Vote.sol\":1246:1266  _VoteStruct.describe */\n      0x05\n      dup4\n      add\n      swap1\n        /* \"contracts/Template/Istanbul10/logic/Vote.sol\":1246:1278  _VoteStruct.describe = _describe */\n      0x20\n      dup10\n      add\n      swap1\n      tag_156\n      jump\t// in\n    tag_292:\n      pop\n        /* \"contracts/Template/Istanbul10/logic/Vote.sol\":1289:1307  _VoteStruct.status */\n      0x08\n      dup2\n      add\n        /* \"contracts/Template/Istanbul10/logic/Vote.sol\":1289:1329  _VoteStruct.status = VoteStatus.isvoting */\n      dup1\n      sload\n      not(0xff)\n      and\n        /* \"contracts/Template/Istanbul10/logic/Vote.sol\":1310:1329  VoteStatus.isvoting */\n      0x01\n        /* \"contracts/Template/Istanbul10/logic/Vote.sol\":1289:1329  _VoteStruct.status = VoteStatus.isvoting */\n      or\n      swap1\n      sstore\n        /* \"contracts/Template/Istanbul10/logic/Vote.sol\":1340:1361  _VoteStruct.codeModel */\n      0x09\n      dup2\n      add\n        /* \"contracts/Template/Istanbul10/logic/Vote.sol\":1340:1374  _VoteStruct.codeModel = _codeModel */\n      dup6\n      swap1\n      sstore\n        /* \"contracts/Template/Istanbul10/logic/Vote.sol\":1385:1402  _VoteStruct.value */\n      0x0a\n      dup2\n      add\n        /* \"contracts/Template/Istanbul10/logic/Vote.sol\":1385:1412  _VoteStruct.value = _valaue */\n      dup5\n      swap1\n      sstore\n        /* \"contracts/Template/Istanbul10/logic/Vote.sol\":1438:1505  CreateVoteEvent(voteTatola,_voteTopic,_describe,_codeModel,_valaue) */\n      mload(0x40)\n      tag_295\n      swap1\n        /* \"contracts/Template/Istanbul10/logic/Vote.sol\":1476:1485  _describe */\n      dup8\n      swap1\n        /* \"contracts/Template/Istanbul10/logic/Vote.sol\":1438:1505  CreateVoteEvent(voteTatola,_voteTopic,_describe,_codeModel,_valaue) */\n      tag_381\n      jump\t// in\n    tag_295:\n      mload(0x40)\n      dup1\n      swap2\n      sub\n      swap1\n      keccak256\n        /* \"contracts/Template/Istanbul10/logic/Vote.sol\":1465:1475  _voteTopic */\n      dup8\n        /* \"contracts/Template/Istanbul10/logic/Vote.sol\":1438:1505  CreateVoteEvent(voteTatola,_voteTopic,_describe,_codeModel,_valaue) */\n      mload(0x40)\n      tag_297\n      swap2\n      swap1\n      tag_381\n      jump\t// in\n    tag_297:\n      mload(0x40)\n      dup1\n      swap2\n      sub\n      swap1\n      keccak256\n        /* \"contracts/Template/Istanbul10/logic/Vote.sol\":1454:1464  voteTatola */\n      sload(0x04)\n        /* \"contracts/Template/Istanbul10/logic/Vote.sol\":1438:1505  CreateVoteEvent(voteTatola,_voteTopic,_describe,_codeModel,_valaue) */\n      0x2042799f2e1d3fcfc7c7e9dd101b3430c99aa621240ea8fdeac79ad1c973888e\n        /* \"contracts/Template/Istanbul10/logic/Vote.sol\":1486:1496  _codeModel */\n      dup9\n        /* \"contracts/Template/Istanbul10/logic/Vote.sol\":1497:1504  _valaue */\n      dup9\n        /* \"contracts/Template/Istanbul10/logic/Vote.sol\":1438:1505  CreateVoteEvent(voteTatola,_voteTopic,_describe,_codeModel,_valaue) */\n      mload(0x40)\n      tag_298\n      swap3\n      swap2\n      swap1\n        /* \"#utility.yul\":13397:13422   */\n      swap2\n      dup3\n      mstore\n        /* \"#utility.yul\":13453:13455   */\n      0x20\n        /* \"#utility.yul\":13438:13456   */\n      dup3\n      add\n        /* \"#utility.yul\":13431:13465   */\n      mstore\n        /* \"#utility.yul\":13385:13387   */\n      0x40\n        /* \"#utility.yul\":13370:13388   */\n      add\n      swap1\n        /* \"#utility.yul\":13352:13471   */\n      jump\n        /* \"contracts/Template/Istanbul10/logic/Vote.sol\":1438:1505  CreateVoteEvent(voteTatola,_voteTopic,_describe,_codeModel,_valaue) */\n    tag_298:\n      mload(0x40)\n      dup1\n      swap2\n      sub\n      swap1\n      log4\n      pop\n      pop\n        /* \"contracts/Template/Istanbul10/logic/Vote.sol\":1533:1543  voteTatola */\n      sload(0x04)\n      swap6\n        /* \"contracts/Template/Istanbul10/logic/Vote.sol\":538:1551  function createVote(\r... */\n      swap5\n      pop\n      pop\n      pop\n      pop\n      pop\n      jump\t// out\n        /* \"contracts/Template/Istanbul10/logic/Vote.sol\":6702:7334  function delegateTo(uint256 _voteId,address _to)public override {\r... */\n    tag_88:\n        /* \"contracts/Template/Istanbul10/logic/Vote.sol\":6777:6802  VoteStruct storage  _vote */\n      0x00\n        /* \"contracts/Template/Istanbul10/logic/Vote.sol\":6806:6823  voteMapp[_voteId] */\n      dup3\n      dup2\n      mstore\n        /* \"contracts/Template/Istanbul10/logic/Vote.sol\":6806:6814  voteMapp */\n      0x07\n        /* \"contracts/Template/Istanbul10/logic/Vote.sol\":6806:6823  voteMapp[_voteId] */\n      0x20\n      swap1\n      dup2\n      mstore\n      0x40\n      dup1\n      dup4\n      keccak256\n        /* \"contracts/Template/Istanbul10/logic/Vote.sol\":6863:6873  msg.sender */\n      caller\n        /* \"contracts/Template/Istanbul10/logic/Vote.sol\":6844:6874  _vote.VoterAddress[msg.sender] */\n      dup5\n      mstore\n        /* \"contracts/Template/Istanbul10/logic/Vote.sol\":6844:6862  _vote.VoterAddress */\n      0x0b\n      dup2\n      add\n        /* \"contracts/Template/Istanbul10/logic/Vote.sol\":6844:6874  _vote.VoterAddress[msg.sender] */\n      swap1\n      swap3\n      mstore\n      swap1\n      swap2\n      keccak256\n        /* \"contracts/Template/Istanbul10/logic/Vote.sol\":6844:6880  _vote.VoterAddress[msg.sender].voted */\n      sload\n      0xff\n      and\n        /* \"contracts/Template/Istanbul10/logic/Vote.sol\":6844:6889  _vote.VoterAddress[msg.sender].voted == false */\n      iszero\n        /* \"contracts/Template/Istanbul10/logic/Vote.sol\":6836:6903  require(_vote.VoterAddress[msg.sender].voted == false,\"Have voted\") */\n      tag_301\n      jumpi\n      mload(0x40)\n      shl(0xe5, 0x461bcd)\n      dup2\n      mstore\n        /* \"#utility.yul\":10763:10765   */\n      0x20\n        /* \"contracts/Template/Istanbul10/logic/Vote.sol\":6836:6903  require(_vote.VoterAddress[msg.sender].voted == false,\"Have voted\") */\n      0x04\n      dup3\n      add\n        /* \"#utility.yul\":10745:10766   */\n      mstore\n        /* \"#utility.yul\":10802:10804   */\n      0x0a\n        /* \"#utility.yul\":10782:10800   */\n      0x24\n      dup3\n      add\n        /* \"#utility.yul\":10775:10805   */\n      mstore\n      shl(0xb2, 0x12185d99481d9bdd1959)\n        /* \"#utility.yul\":10821:10839   */\n      0x44\n      dup3\n      add\n        /* \"#utility.yul\":10814:10854   */\n      mstore\n        /* \"#utility.yul\":10871:10889   */\n      0x64\n      add\n        /* \"contracts/Template/Istanbul10/logic/Vote.sol\":6836:6903  require(_vote.VoterAddress[msg.sender].voted == false,\"Have voted\") */\n      tag_137\n        /* \"#utility.yul\":10735:10895   */\n      jump\n        /* \"contracts/Template/Istanbul10/logic/Vote.sol\":6836:6903  require(_vote.VoterAddress[msg.sender].voted == false,\"Have voted\") */\n    tag_301:\n      sub(shl(0xa0, 0x01), 0x01)\n        /* \"contracts/Template/Istanbul10/logic/Vote.sol\":6922:6939  _to != msg.sender */\n      dup3\n      and\n        /* \"contracts/Template/Istanbul10/logic/Vote.sol\":6929:6939  msg.sender */\n      caller\n        /* \"contracts/Template/Istanbul10/logic/Vote.sol\":6922:6939  _to != msg.sender */\n      eq\n      iszero\n        /* \"contracts/Template/Istanbul10/logic/Vote.sol\":6914:6969  require(_to != msg.sender,\"can't delegate to yourself\") */\n      tag_304\n      jumpi\n      mload(0x40)\n      shl(0xe5, 0x461bcd)\n      dup2\n      mstore\n        /* \"#utility.yul\":8572:8574   */\n      0x20\n        /* \"contracts/Template/Istanbul10/logic/Vote.sol\":6914:6969  require(_to != msg.sender,\"can't delegate to yourself\") */\n      0x04\n      dup3\n      add\n        /* \"#utility.yul\":8554:8575   */\n      mstore\n        /* \"#utility.yul\":8611:8613   */\n      0x1a\n        /* \"#utility.yul\":8591:8609   */\n      0x24\n      dup3\n      add\n        /* \"#utility.yul\":8584:8614   */\n      mstore\n        /* \"#utility.yul\":8650:8678   */\n      0x63616e27742064656c656761746520746f20796f757273656c66000000000000\n        /* \"#utility.yul\":8630:8648   */\n      0x44\n      dup3\n      add\n        /* \"#utility.yul\":8623:8679   */\n      mstore\n        /* \"#utility.yul\":8696:8714   */\n      0x64\n      add\n        /* \"contracts/Template/Istanbul10/logic/Vote.sol\":6914:6969  require(_to != msg.sender,\"can't delegate to yourself\") */\n      tag_137\n        /* \"#utility.yul\":8544:8720   */\n      jump\n        /* \"contracts/Template/Istanbul10/logic/Vote.sol\":6914:6969  require(_to != msg.sender,\"can't delegate to yourself\") */\n    tag_304:\n        /* \"contracts/Template/Istanbul10/logic/Vote.sol\":6988:6995  veToken */\n      sload(0x03)\n        /* \"contracts/Template/Istanbul10/logic/Vote.sol\":6988:7017  veToken.balanceOf(msg.sender) */\n      mload(0x40)\n      shl(0xe0, 0x70a08231)\n      dup2\n      mstore\n        /* \"contracts/Template/Istanbul10/logic/Vote.sol\":7006:7016  msg.sender */\n      caller\n        /* \"contracts/Template/Istanbul10/logic/Vote.sol\":6988:7017  veToken.balanceOf(msg.sender) */\n      0x04\n      dup3\n      add\n        /* \"#utility.yul\":4566:4617   */\n      mstore\n        /* \"contracts/Template/Istanbul10/logic/Vote.sol\":7020:7021  0 */\n      0x00\n      swap2\n      sub(shl(0xa0, 0x01), 0x01)\n        /* \"contracts/Template/Istanbul10/logic/Vote.sol\":6988:6995  veToken */\n      and\n      swap1\n        /* \"contracts/Template/Istanbul10/logic/Vote.sol\":6988:7005  veToken.balanceOf */\n      0x70a08231\n      swap1\n        /* \"#utility.yul\":4539:4557   */\n      0x24\n      add\n        /* \"contracts/Template/Istanbul10/logic/Vote.sol\":6988:7017  veToken.balanceOf(msg.sender) */\n      0x20\n      mload(0x40)\n      dup1\n      dup4\n      sub\n      dup2\n      dup7\n      dup1\n      extcodesize\n      iszero\n      dup1\n      iszero\n      tag_308\n      jumpi\n      0x00\n      dup1\n      revert\n    tag_308:\n      pop\n      gas\n      staticcall\n      iszero\n      dup1\n      iszero\n      tag_310\n      jumpi\n      returndatasize\n      0x00\n      dup1\n      returndatacopy\n      revert(0x00, returndatasize)\n    tag_310:\n      pop\n      pop\n      pop\n      pop\n      mload(0x40)\n      returndatasize\n      not(0x1f)\n      0x1f\n      dup3\n      add\n      and\n      dup3\n      add\n      dup1\n      0x40\n      mstore\n      pop\n      dup2\n      add\n      swap1\n      tag_311\n      swap2\n      swap1\n      tag_126\n      jump\t// in\n    tag_311:\n        /* \"contracts/Template/Istanbul10/logic/Vote.sol\":6988:7021  veToken.balanceOf(msg.sender) > 0 */\n      gt\n        /* \"contracts/Template/Istanbul10/logic/Vote.sol\":6980:7043  require(veToken.balanceOf(msg.sender) > 0,\"There is no token \") */\n      tag_312\n      jumpi\n      mload(0x40)\n      shl(0xe5, 0x461bcd)\n      dup2\n      mstore\n        /* \"#utility.yul\":12204:12206   */\n      0x20\n        /* \"contracts/Template/Istanbul10/logic/Vote.sol\":6980:7043  require(veToken.balanceOf(msg.sender) > 0,\"There is no token \") */\n      0x04\n      dup3\n      add\n        /* \"#utility.yul\":12186:12207   */\n      mstore\n        /* \"#utility.yul\":12243:12245   */\n      0x12\n        /* \"#utility.yul\":12223:12241   */\n      0x24\n      dup3\n      add\n        /* \"#utility.yul\":12216:12246   */\n      mstore\n      shl(0x75, 0x02a3432b9329034b9903737903a37b5b2b71)\n        /* \"#utility.yul\":12262:12280   */\n      0x44\n      dup3\n      add\n        /* \"#utility.yul\":12255:12303   */\n      mstore\n        /* \"#utility.yul\":12320:12338   */\n      0x64\n      add\n        /* \"contracts/Template/Istanbul10/logic/Vote.sol\":6980:7043  require(veToken.balanceOf(msg.sender) > 0,\"There is no token \") */\n      tag_137\n        /* \"#utility.yul\":12176:12344   */\n      jump\n        /* \"contracts/Template/Istanbul10/logic/Vote.sol\":6980:7043  require(veToken.balanceOf(msg.sender) > 0,\"There is no token \") */\n    tag_312:\n      sub(shl(0xa0, 0x01), 0x01)\n        /* \"contracts/Template/Istanbul10/logic/Vote.sol\":7056:7079  _vote.VoterAddress[_to] */\n      dup3\n      and\n      0x00\n      dup2\n      dup2\n      mstore\n        /* \"contracts/Template/Istanbul10/logic/Vote.sol\":7056:7074  _vote.VoterAddress */\n      0x0b\n      dup4\n      add\n        /* \"contracts/Template/Istanbul10/logic/Vote.sol\":7056:7079  _vote.VoterAddress[_to] */\n      0x20\n      swap1\n      dup2\n      mstore\n      0x40\n      dup1\n      dup4\n      keccak256\n        /* \"contracts/Template/Istanbul10/logic/Vote.sol\":7056:7086  _vote.VoterAddress[_to].bailor */\n      0x01\n      swap1\n      dup2\n      add\n        /* \"contracts/Template/Istanbul10/logic/Vote.sol\":7056:7103  _vote.VoterAddress[_to].bailor.push(msg.sender) */\n      dup1\n      sload\n      dup1\n      dup4\n      add\n      dup3\n      sstore\n      swap1\n      dup6\n      mstore\n      dup4\n      dup6\n      keccak256\n      add\n      dup1\n      sload\n        /* \"contracts/Template/Istanbul10/logic/Vote.sol\":7092:7102  msg.sender */\n      caller\n      not(sub(shl(0xa0, 0x01), 0x01))\n        /* \"contracts/Template/Istanbul10/logic/Vote.sol\":7056:7103  _vote.VoterAddress[_to].bailor.push(msg.sender) */\n      swap2\n      dup3\n      and\n      dup2\n      or\n      swap1\n      swap3\n      sstore\n        /* \"contracts/Template/Istanbul10/logic/Vote.sol\":7114:7144  _vote.VoterAddress[msg.sender] */\n      dup2\n      dup7\n      mstore\n      dup4\n      dup7\n      keccak256\n        /* \"contracts/Template/Istanbul10/logic/Vote.sol\":7114:7157  _vote.VoterAddress[msg.sender].voted = true */\n      dup1\n      sload\n      not(0xff)\n      swap1\n      dup2\n      and\n      dup6\n      or\n      swap1\n      swap2\n      sstore\n        /* \"contracts/Template/Istanbul10/logic/Vote.sol\":7168:7197  _vote.svote.VoterAddress[_to] */\n      dup8\n      dup8\n      mstore\n        /* \"contracts/Template/Istanbul10/logic/Vote.sol\":7168:7192  _vote.svote.VoterAddress */\n      0x10\n      dup10\n      add\n        /* \"contracts/Template/Istanbul10/logic/Vote.sol\":7168:7197  _vote.svote.VoterAddress[_to] */\n      dup7\n      mstore\n      dup5\n      dup8\n      keccak256\n        /* \"contracts/Template/Istanbul10/logic/Vote.sol\":7168:7204  _vote.svote.VoterAddress[_to].bailor */\n      dup5\n      add\n        /* \"contracts/Template/Istanbul10/logic/Vote.sol\":7168:7221  _vote.svote.VoterAddress[_to].bailor.push(msg.sender) */\n      dup1\n      sload\n      dup1\n      dup7\n      add\n      dup3\n      sstore\n      swap1\n      dup9\n      mstore\n      dup7\n      dup9\n      keccak256\n      add\n      dup1\n      sload\n      swap1\n      swap3\n      and\n      dup4\n      or\n      swap1\n      swap2\n      sstore\n        /* \"contracts/Template/Istanbul10/logic/Vote.sol\":7232:7268  _vote.svote.VoterAddress[msg.sender] */\n      swap1\n      dup6\n      mstore\n      swap4\n      dup3\n      swap1\n      keccak256\n        /* \"contracts/Template/Istanbul10/logic/Vote.sol\":7232:7280  _vote.svote.VoterAddress[msg.sender].voted =true */\n      dup1\n      sload\n      swap1\n      swap5\n      and\n      or\n      swap1\n      swap3\n      sstore\n        /* \"contracts/Template/Istanbul10/logic/Vote.sol\":7298:7326  DelegateToEvent(_voteId,_to) */\n      swap1\n      mload\n        /* \"#utility.yul\":4566:4617   */\n      swap2\n      dup3\n      mstore\n        /* \"contracts/Template/Istanbul10/logic/Vote.sol\":7314:7321  _voteId */\n      dup5\n      swap2\n        /* \"contracts/Template/Istanbul10/logic/Vote.sol\":7298:7326  DelegateToEvent(_voteId,_to) */\n      0xa9860e62eb02a47e1d5d5253a79d90bc96cd33c299d874f5b7710d0a61b63ccc\n      swap2\n        /* \"#utility.yul\":4539:4557   */\n      add\n        /* \"contracts/Template/Istanbul10/logic/Vote.sol\":7298:7326  DelegateToEvent(_voteId,_to) */\n      mload(0x40)\n      dup1\n      swap2\n      sub\n      swap1\n      log2\n        /* \"contracts/Template/Istanbul10/logic/Vote.sol\":6766:7334  {\r... */\n      pop\n        /* \"contracts/Template/Istanbul10/logic/Vote.sol\":6702:7334  function delegateTo(uint256 _voteId,address _to)public override {\r... */\n      pop\n      pop\n      jump\t// out\n        /* \"contracts/Template/Istanbul10/logic/Vote.sol\":4451:5643  function execute(uint256 _voteId) public override {\r... */\n    tag_91:\n        /* \"contracts/Template/Istanbul10/logic/Vote.sol\":4512:4536  VoteStruct storage _vote */\n      0x00\n        /* \"contracts/Template/Istanbul10/logic/Vote.sol\":4539:4556  voteMapp[_voteId] */\n      dup2\n      dup2\n      mstore\n        /* \"contracts/Template/Istanbul10/logic/Vote.sol\":4539:4547  voteMapp */\n      0x07\n        /* \"contracts/Template/Istanbul10/logic/Vote.sol\":4539:4556  voteMapp[_voteId] */\n      0x20\n      swap1\n      dup2\n      mstore\n      0x40\n      dup1\n      dup4\n      keccak256\n        /* \"contracts/Template/Istanbul10/logic/Vote.sol\":4575:4590  executeQueueMap */\n      0x09\n        /* \"contracts/Template/Istanbul10/logic/Vote.sol\":4575:4599  executeQueueMap[_voteId] */\n      swap1\n      swap3\n      mstore\n      swap1\n      swap2\n      keccak256\n      sload\n      0xff\n      and\n        /* \"contracts/Template/Istanbul10/logic/Vote.sol\":4575:4608  executeQueueMap[_voteId] == false */\n      iszero\n        /* \"contracts/Template/Istanbul10/logic/Vote.sol\":4567:4632  require(executeQueueMap[_voteId] == false,\"repetitive execution\") */\n      tag_319\n      jumpi\n      mload(0x40)\n      shl(0xe5, 0x461bcd)\n      dup2\n      mstore\n        /* \"#utility.yul\":10414:10416   */\n      0x20\n        /* \"contracts/Template/Istanbul10/logic/Vote.sol\":4567:4632  require(executeQueueMap[_voteId] == false,\"repetitive execution\") */\n      0x04\n      dup3\n      add\n        /* \"#utility.yul\":10396:10417   */\n      mstore\n        /* \"#utility.yul\":10453:10455   */\n      0x14\n        /* \"#utility.yul\":10433:10451   */\n      0x24\n      dup3\n      add\n        /* \"#utility.yul\":10426:10456   */\n      mstore\n      shl(0x61, 0x3932b832ba34ba34bb329032bc32b1baba34b7b7)\n        /* \"#utility.yul\":10472:10490   */\n      0x44\n      dup3\n      add\n        /* \"#utility.yul\":10465:10515   */\n      mstore\n        /* \"#utility.yul\":10532:10550   */\n      0x64\n      add\n        /* \"contracts/Template/Istanbul10/logic/Vote.sol\":4567:4632  require(executeQueueMap[_voteId] == false,\"repetitive execution\") */\n      tag_137\n        /* \"#utility.yul\":10386:10556   */\n      jump\n        /* \"contracts/Template/Istanbul10/logic/Vote.sol\":4567:4632  require(executeQueueMap[_voteId] == false,\"repetitive execution\") */\n    tag_319:\n        /* \"contracts/Template/Istanbul10/logic/Vote.sol\":4667:4691  VoteStatus.uninitialized */\n      0x00\n        /* \"contracts/Template/Istanbul10/logic/Vote.sol\":4651:4663  _vote.status */\n      0x08\n      dup3\n      add\n      sload\n      0xff\n      and\n        /* \"contracts/Template/Istanbul10/logic/Vote.sol\":4651:4691  _vote.status != VoteStatus.uninitialized */\n      0x06\n      dup2\n      gt\n      iszero\n      tag_325\n      jumpi\n      tag_325\n      tag_147\n      jump\t// in\n    tag_325:\n      eq\n      iszero\n        /* \"contracts/Template/Istanbul10/logic/Vote.sol\":4643:4709  require(_vote.status != VoteStatus.uninitialized,\"VoteId is null\") */\n      tag_326\n      jumpi\n      mload(0x40)\n      shl(0xe5, 0x461bcd)\n      dup2\n      mstore\n        /* \"#utility.yul\":11102:11104   */\n      0x20\n        /* \"contracts/Template/Istanbul10/logic/Vote.sol\":4643:4709  require(_vote.status != VoteStatus.uninitialized,\"VoteId is null\") */\n      0x04\n      dup3\n      add\n        /* \"#utility.yul\":11084:11105   */\n      mstore\n        /* \"#utility.yul\":11141:11143   */\n      0x0e\n        /* \"#utility.yul\":11121:11139   */\n      0x24\n      dup3\n      add\n        /* \"#utility.yul\":11114:11144   */\n      mstore\n      shl(0x92, 0x159bdd195259081a5cc81b9d5b1b)\n        /* \"#utility.yul\":11160:11178   */\n      0x44\n      dup3\n      add\n        /* \"#utility.yul\":11153:11197   */\n      mstore\n        /* \"#utility.yul\":11214:11232   */\n      0x64\n      add\n        /* \"contracts/Template/Istanbul10/logic/Vote.sol\":4643:4709  require(_vote.status != VoteStatus.uninitialized,\"VoteId is null\") */\n      tag_137\n        /* \"#utility.yul\":11074:11238   */\n      jump\n        /* \"contracts/Template/Istanbul10/logic/Vote.sol\":4643:4709  require(_vote.status != VoteStatus.uninitialized,\"VoteId is null\") */\n    tag_326:\n        /* \"contracts/Template/Istanbul10/logic/Vote.sol\":4739:4758  VoteStatus.isvoting */\n      0x01\n        /* \"contracts/Template/Istanbul10/logic/Vote.sol\":4723:4735  _vote.status */\n      0x08\n      dup3\n      add\n      sload\n      0xff\n      and\n        /* \"contracts/Template/Istanbul10/logic/Vote.sol\":4723:4758  _vote.status == VoteStatus.isvoting */\n      0x06\n      dup2\n      gt\n      iszero\n      tag_331\n      jumpi\n      tag_331\n      tag_147\n      jump\t// in\n    tag_331:\n      eq\n        /* \"contracts/Template/Istanbul10/logic/Vote.sol\":4720:5594  if(_vote.status == VoteStatus.isvoting){\r... */\n      iszero\n      tag_332\n      jumpi\n        /* \"contracts/Template/Istanbul10/logic/Vote.sol\":4802:4807  _vote */\n      dup1\n        /* \"contracts/Template/Istanbul10/logic/Vote.sol\":4802:4812  _vote.time */\n      0x02\n      add\n      sload\n        /* \"contracts/Template/Istanbul10/logic/Vote.sol\":4784:4799  block.timestamp */\n      timestamp\n        /* \"contracts/Template/Istanbul10/logic/Vote.sol\":4784:4812  block.timestamp > _vote.time */\n      gt\n        /* \"contracts/Template/Istanbul10/logic/Vote.sol\":4776:4841  require(block.timestamp > _vote.time,\"Still in the voting phase\") */\n      tag_333\n      jumpi\n      mload(0x40)\n      shl(0xe5, 0x461bcd)\n      dup2\n      mstore\n      0x04\n      add\n      tag_137\n      swap1\n      tag_144\n      jump\t// in\n    tag_333:\n        /* \"contracts/Template/Istanbul10/logic/Vote.sol\":4901:4918  _vote.totalsupply */\n      dup1\n      sload\n        /* \"contracts/Template/Istanbul10/logic/Vote.sol\":4901:4923  _vote.totalsupply/1000 */\n      tag_335\n      swap1\n        /* \"contracts/Template/Istanbul10/logic/Vote.sol\":4919:4923  1000 */\n      0x03e8\n      swap1\n        /* \"contracts/Template/Istanbul10/logic/Vote.sol\":4901:4923  _vote.totalsupply/1000 */\n      tag_128\n      jump\t// in\n    tag_335:\n        /* \"contracts/Template/Istanbul10/logic/Vote.sol\":4901:4927  _vote.totalsupply/1000*300 */\n      tag_336\n      swap1\n        /* \"contracts/Template/Istanbul10/logic/Vote.sol\":4924:4927  300 */\n      0x012c\n        /* \"contracts/Template/Istanbul10/logic/Vote.sol\":4901:4927  _vote.totalsupply/1000*300 */\n      tag_130\n      jump\t// in\n    tag_336:\n        /* \"contracts/Template/Istanbul10/logic/Vote.sol\":4883:4888  _vote */\n      dup2\n        /* \"contracts/Template/Istanbul10/logic/Vote.sol\":4883:4897  _vote.supPopel */\n      0x06\n      add\n      sload\n        /* \"contracts/Template/Istanbul10/logic/Vote.sol\":4864:4869  _vote */\n      dup3\n        /* \"contracts/Template/Istanbul10/logic/Vote.sol\":4864:4882  _vote.againstPopel */\n      0x07\n      add\n      sload\n        /* \"contracts/Template/Istanbul10/logic/Vote.sol\":4864:4897  _vote.againstPopel+_vote.supPopel */\n      tag_337\n      swap2\n      swap1\n      tag_141\n      jump\t// in\n    tag_337:\n        /* \"contracts/Template/Istanbul10/logic/Vote.sol\":4864:4927  _vote.againstPopel+_vote.supPopel >= _vote.totalsupply/1000*300 */\n      lt\n      iszero\n        /* \"contracts/Template/Istanbul10/logic/Vote.sol\":4856:4960  require(_vote.againstPopel+_vote.supPopel >= _vote.totalsupply/1000*300,\"votes is less than 30 percent\") */\n      tag_338\n      jumpi\n      mload(0x40)\n      shl(0xe5, 0x461bcd)\n      dup2\n      mstore\n        /* \"#utility.yul\":9283:9285   */\n      0x20\n        /* \"contracts/Template/Istanbul10/logic/Vote.sol\":4856:4960  require(_vote.againstPopel+_vote.supPopel >= _vote.totalsupply/1000*300,\"votes is less than 30 percent\") */\n      0x04\n      dup3\n      add\n        /* \"#utility.yul\":9265:9286   */\n      mstore\n        /* \"#utility.yul\":9322:9324   */\n      0x1d\n        /* \"#utility.yul\":9302:9320   */\n      0x24\n      dup3\n      add\n        /* \"#utility.yul\":9295:9325   */\n      mstore\n        /* \"#utility.yul\":9361:9392   */\n      0x766f746573206973206c657373207468616e2033302070657263656e74000000\n        /* \"#utility.yul\":9341:9359   */\n      0x44\n      dup3\n      add\n        /* \"#utility.yul\":9334:9393   */\n      mstore\n        /* \"#utility.yul\":9410:9428   */\n      0x64\n      add\n        /* \"contracts/Template/Istanbul10/logic/Vote.sol\":4856:4960  require(_vote.againstPopel+_vote.supPopel >= _vote.totalsupply/1000*300,\"votes is less than 30 percent\") */\n      tag_137\n        /* \"#utility.yul\":9255:9434   */\n      jump\n        /* \"contracts/Template/Istanbul10/logic/Vote.sol\":4856:4960  require(_vote.againstPopel+_vote.supPopel >= _vote.totalsupply/1000*300,\"votes is less than 30 percent\") */\n    tag_338:\n        /* \"contracts/Template/Istanbul10/logic/Vote.sol\":5045:5047  60 */\n      0x3c\n        /* \"contracts/Template/Istanbul10/logic/Vote.sol\":5020:5025  _vote */\n      dup2\n        /* \"contracts/Template/Istanbul10/logic/Vote.sol\":5020:5034  _vote.supPopel */\n      0x06\n      add\n      sload\n        /* \"contracts/Template/Istanbul10/logic/Vote.sol\":4999:5004  _vote */\n      dup3\n        /* \"contracts/Template/Istanbul10/logic/Vote.sol\":4999:5017  _vote.againstPopel */\n      0x07\n      add\n      sload\n        /* \"contracts/Template/Istanbul10/logic/Vote.sol\":4999:5034  _vote.againstPopel + _vote.supPopel */\n      tag_341\n      swap2\n      swap1\n      tag_141\n      jump\t// in\n    tag_341:\n        /* \"contracts/Template/Istanbul10/logic/Vote.sol\":4983:4988  _vote */\n      dup3\n        /* \"contracts/Template/Istanbul10/logic/Vote.sol\":4983:4997  _vote.supPopel */\n      0x06\n      add\n      sload\n        /* \"contracts/Template/Istanbul10/logic/Vote.sol\":4983:5035  _vote.supPopel/(_vote.againstPopel + _vote.supPopel) */\n      tag_342\n      swap2\n      swap1\n      tag_128\n      jump\t// in\n    tag_342:\n        /* \"contracts/Template/Istanbul10/logic/Vote.sol\":4983:5041  _vote.supPopel/(_vote.againstPopel + _vote.supPopel) * 100 */\n      tag_343\n      swap1\n        /* \"contracts/Template/Istanbul10/logic/Vote.sol\":5038:5041  100 */\n      0x64\n        /* \"contracts/Template/Istanbul10/logic/Vote.sol\":4983:5041  _vote.supPopel/(_vote.againstPopel + _vote.supPopel) * 100 */\n      tag_130\n      jump\t// in\n    tag_343:\n        /* \"contracts/Template/Istanbul10/logic/Vote.sol\":4983:5047  _vote.supPopel/(_vote.againstPopel + _vote.supPopel) * 100 >= 60 */\n      lt\n      iszero\n        /* \"contracts/Template/Istanbul10/logic/Vote.sol\":4975:5084  require(_vote.supPopel/(_vote.againstPopel + _vote.supPopel) * 100 >= 60,\"Less than 60% of the votes passed\") */\n      tag_344\n      jumpi\n      mload(0x40)\n      shl(0xe5, 0x461bcd)\n      dup2\n      mstore\n        /* \"#utility.yul\":7813:7815   */\n      0x20\n        /* \"contracts/Template/Istanbul10/logic/Vote.sol\":4975:5084  require(_vote.supPopel/(_vote.againstPopel + _vote.supPopel) * 100 >= 60,\"Less than 60% of the votes passed\") */\n      0x04\n      dup3\n      add\n        /* \"#utility.yul\":7795:7816   */\n      mstore\n        /* \"#utility.yul\":7852:7854   */\n      0x21\n        /* \"#utility.yul\":7832:7850   */\n      0x24\n      dup3\n      add\n        /* \"#utility.yul\":7825:7855   */\n      mstore\n        /* \"#utility.yul\":7891:7925   */\n      0x4c657373207468616e20363025206f662074686520766f746573207061737365\n        /* \"#utility.yul\":7871:7889   */\n      0x44\n      dup3\n      add\n        /* \"#utility.yul\":7864:7926   */\n      mstore\n      shl(0xfa, 0x19)\n        /* \"#utility.yul\":7942:7960   */\n      0x64\n      dup3\n      add\n        /* \"#utility.yul\":7935:7966   */\n      mstore\n        /* \"#utility.yul\":7983:8002   */\n      0x84\n      add\n        /* \"contracts/Template/Istanbul10/logic/Vote.sol\":4975:5084  require(_vote.supPopel/(_vote.againstPopel + _vote.supPopel) * 100 >= 60,\"Less than 60% of the votes passed\") */\n      tag_137\n        /* \"#utility.yul\":7785:8008   */\n      jump\n        /* \"contracts/Template/Istanbul10/logic/Vote.sol\":4975:5084  require(_vote.supPopel/(_vote.againstPopel + _vote.supPopel) * 100 >= 60,\"Less than 60% of the votes passed\") */\n    tag_344:\n        /* \"contracts/Template/Istanbul10/logic/Vote.sol\":5111:5156  _execute(_voteId,_vote.codeModel,_vote.value) */\n      tag_347\n        /* \"contracts/Template/Istanbul10/logic/Vote.sol\":5120:5127  _voteId */\n      dup3\n        /* \"contracts/Template/Istanbul10/logic/Vote.sol\":5128:5133  _vote */\n      dup3\n        /* \"contracts/Template/Istanbul10/logic/Vote.sol\":5128:5143  _vote.codeModel */\n      0x09\n      add\n      sload\n        /* \"contracts/Template/Istanbul10/logic/Vote.sol\":5144:5149  _vote */\n      dup4\n        /* \"contracts/Template/Istanbul10/logic/Vote.sol\":5144:5155  _vote.value */\n      0x0a\n      add\n      sload\n        /* \"contracts/Template/Istanbul10/logic/Vote.sol\":5111:5119  _execute */\n      tag_348\n        /* \"contracts/Template/Istanbul10/logic/Vote.sol\":5111:5156  _execute(_voteId,_vote.codeModel,_vote.value) */\n      jump\t// in\n    tag_347:\n        /* \"contracts/Template/Istanbul10/logic/Vote.sol\":5171:5183  _vote.status */\n      0x08\n      dup2\n      add\n        /* \"contracts/Template/Istanbul10/logic/Vote.sol\":5171:5204  _vote.status = VoteStatus.succeed */\n      dup1\n      sload\n      not(0xff)\n      and\n        /* \"contracts/Template/Istanbul10/logic/Vote.sol\":5186:5204  VoteStatus.succeed */\n      0x02\n        /* \"contracts/Template/Istanbul10/logic/Vote.sol\":5171:5204  _vote.status = VoteStatus.succeed */\n      or\n      swap1\n      sstore\n        /* \"contracts/Template/Istanbul10/logic/Vote.sol\":4720:5594  if(_vote.status == VoteStatus.isvoting){\r... */\n      jump(tag_356)\n    tag_332:\n        /* \"contracts/Template/Istanbul10/logic/Vote.sol\":5241:5264  VoteStatus.secondBallot */\n      0x05\n        /* \"contracts/Template/Istanbul10/logic/Vote.sol\":5225:5237  _vote.status */\n      0x08\n      dup3\n      add\n      sload\n      0xff\n      and\n        /* \"contracts/Template/Istanbul10/logic/Vote.sol\":5225:5264  _vote.status == VoteStatus.secondBallot */\n      0x06\n      dup2\n      gt\n      iszero\n      tag_355\n      jumpi\n      tag_355\n      tag_147\n      jump\t// in\n    tag_355:\n      eq\n        /* \"contracts/Template/Istanbul10/logic/Vote.sol\":5222:5594  if(_vote.status == VoteStatus.secondBallot){\r... */\n      iszero\n      tag_356\n      jumpi\n        /* \"contracts/Template/Istanbul10/logic/Vote.sol\":5307:5312  _vote */\n      dup1\n        /* \"contracts/Template/Istanbul10/logic/Vote.sol\":5307:5317  _vote.time */\n      0x02\n      add\n      sload\n        /* \"contracts/Template/Istanbul10/logic/Vote.sol\":5288:5303  block.timestamp */\n      timestamp\n        /* \"contracts/Template/Istanbul10/logic/Vote.sol\":5288:5317  block.timestamp >= _vote.time */\n      lt\n      iszero\n        /* \"contracts/Template/Istanbul10/logic/Vote.sol\":5280:5346  require(block.timestamp >= _vote.time,\"Still in the voting phase\") */\n      tag_357\n      jumpi\n      mload(0x40)\n      shl(0xe5, 0x461bcd)\n      dup2\n      mstore\n      0x04\n      add\n      tag_137\n      swap1\n      tag_144\n      jump\t// in\n    tag_357:\n        /* \"contracts/Template/Istanbul10/logic/Vote.sol\":5393:5407  _vote.supPopel */\n      0x06\n      dup2\n      add\n      sload\n        /* \"contracts/Template/Istanbul10/logic/Vote.sol\":5369:5389  _vote.svote.supPopel */\n      0x0e\n      dup3\n      add\n      sload\n        /* \"contracts/Template/Istanbul10/logic/Vote.sol\":5369:5407  _vote.svote.supPopel >= _vote.supPopel */\n      lt\n      iszero\n        /* \"contracts/Template/Istanbul10/logic/Vote.sol\":5361:5461  require(_vote.svote.supPopel >= _vote.supPopel,\"The vote passed with fewer votes than the original\") */\n      tag_359\n      jumpi\n      mload(0x40)\n      shl(0xe5, 0x461bcd)\n      dup2\n      mstore\n        /* \"#utility.yul\":9641:9643   */\n      0x20\n        /* \"contracts/Template/Istanbul10/logic/Vote.sol\":5361:5461  require(_vote.svote.supPopel >= _vote.supPopel,\"The vote passed with fewer votes than the original\") */\n      0x04\n      dup3\n      add\n        /* \"#utility.yul\":9623:9644   */\n      mstore\n        /* \"#utility.yul\":9680:9682   */\n      0x32\n        /* \"#utility.yul\":9660:9678   */\n      0x24\n      dup3\n      add\n        /* \"#utility.yul\":9653:9683   */\n      mstore\n        /* \"#utility.yul\":9719:9753   */\n      0x54686520766f746520706173736564207769746820666577657220766f746573\n        /* \"#utility.yul\":9699:9717   */\n      0x44\n      dup3\n      add\n        /* \"#utility.yul\":9692:9754   */\n      mstore\n      shl(0x72, 0x081d1a185b881d1a19481bdc9a59da5b985b)\n        /* \"#utility.yul\":9770:9788   */\n      0x64\n      dup3\n      add\n        /* \"#utility.yul\":9763:9811   */\n      mstore\n        /* \"#utility.yul\":9828:9847   */\n      0x84\n      add\n        /* \"contracts/Template/Istanbul10/logic/Vote.sol\":5361:5461  require(_vote.svote.supPopel >= _vote.supPopel,\"The vote passed with fewer votes than the original\") */\n      tag_137\n        /* \"#utility.yul\":9613:9853   */\n      jump\n        /* \"contracts/Template/Istanbul10/logic/Vote.sol\":5361:5461  require(_vote.svote.supPopel >= _vote.supPopel,\"The vote passed with fewer votes than the original\") */\n    tag_359:\n        /* \"contracts/Template/Istanbul10/logic/Vote.sol\":5489:5534  _execute(_voteId,_vote.codeModel,_vote.value) */\n      tag_362\n        /* \"contracts/Template/Istanbul10/logic/Vote.sol\":5498:5505  _voteId */\n      dup3\n        /* \"contracts/Template/Istanbul10/logic/Vote.sol\":5506:5511  _vote */\n      dup3\n        /* \"contracts/Template/Istanbul10/logic/Vote.sol\":5506:5521  _vote.codeModel */\n      0x09\n      add\n      sload\n        /* \"contracts/Template/Istanbul10/logic/Vote.sol\":5522:5527  _vote */\n      dup4\n        /* \"contracts/Template/Istanbul10/logic/Vote.sol\":5522:5533  _vote.value */\n      0x0a\n      add\n      sload\n        /* \"contracts/Template/Istanbul10/logic/Vote.sol\":5489:5497  _execute */\n      tag_348\n        /* \"contracts/Template/Istanbul10/logic/Vote.sol\":5489:5534  _execute(_voteId,_vote.codeModel,_vote.value) */\n      jump\t// in\n    tag_362:\n        /* \"contracts/Template/Istanbul10/logic/Vote.sol\":5549:5561  _vote.status */\n      0x08\n      dup2\n      add\n        /* \"contracts/Template/Istanbul10/logic/Vote.sol\":5549:5582  _vote.status = VoteStatus.succeed */\n      dup1\n      sload\n      not(0xff)\n      and\n        /* \"contracts/Template/Istanbul10/logic/Vote.sol\":5564:5582  VoteStatus.succeed */\n      0x02\n        /* \"contracts/Template/Istanbul10/logic/Vote.sol\":5549:5582  _vote.status = VoteStatus.succeed */\n      or\n      swap1\n      sstore\n        /* \"contracts/Template/Istanbul10/logic/Vote.sol\":5222:5594  if(_vote.status == VoteStatus.secondBallot){\r... */\n    tag_356:\n        /* \"contracts/Template/Istanbul10/logic/Vote.sol\":5612:5633  ExecuteEvent(_voteId) */\n      mload(0x40)\n        /* \"contracts/Template/Istanbul10/logic/Vote.sol\":5625:5632  _voteId */\n      dup3\n      swap1\n        /* \"contracts/Template/Istanbul10/logic/Vote.sol\":5612:5633  ExecuteEvent(_voteId) */\n      0xa6b4889fbc6222293f94ac3c68c40fa4c027b86b0dfe4f820475c7d8828a2436\n      swap1\n      0x00\n      swap1\n      log2\n        /* \"contracts/Template/Istanbul10/logic/Vote.sol\":4501:5643  {\r... */\n      pop\n        /* \"contracts/Template/Istanbul10/logic/Vote.sol\":4451:5643  function execute(uint256 _voteId) public override {\r... */\n      pop\n      jump\t// out\n        /* \"contracts/Template/Istanbul10/logic/Vote.sol\":5656:5996  function _execute(uint256 _voteId,uint256 _codeModel,uint256 _value)private {\r... */\n    tag_348:\n        /* \"contracts/Template/Istanbul10/logic/Vote.sol\":5742:5754  executeQueue */\n      0x05\n        /* \"contracts/Template/Istanbul10/logic/Vote.sol\":5742:5768  executeQueue.push(_voteId) */\n      dup1\n      sload\n      0x01\n      dup2\n      dup2\n      add\n      swap1\n      swap3\n      sstore\n      0x036b6384b5eca791c62761152d0c79bb0604c104a5fb6f4eb0703f3154bb3db0\n      add\n      dup5\n      swap1\n      sstore\n      0x00\n        /* \"contracts/Template/Istanbul10/logic/Vote.sol\":5778:5802  executeQueueMap[_voteId] */\n      dup5\n      dup2\n      mstore\n        /* \"contracts/Template/Istanbul10/logic/Vote.sol\":5778:5793  executeQueueMap */\n      0x09\n        /* \"contracts/Template/Istanbul10/logic/Vote.sol\":5742:5768  executeQueue.push(_voteId) */\n      0x20\n        /* \"contracts/Template/Istanbul10/logic/Vote.sol\":5778:5802  executeQueueMap[_voteId] */\n      swap1\n      dup2\n      mstore\n      0x40\n      dup1\n      dup4\n      keccak256\n        /* \"contracts/Template/Istanbul10/logic/Vote.sol\":5778:5809  executeQueueMap[_voteId] = true */\n      dup1\n      sload\n      not(0xff)\n      and\n      swap1\n      swap5\n      or\n      swap1\n      swap4\n      sstore\n        /* \"contracts/Template/Istanbul10/logic/Vote.sol\":5836:5856  Template[_codeModel] */\n      dup5\n      dup3\n      mstore\n        /* \"contracts/Template/Istanbul10/logic/Vote.sol\":5836:5844  Template */\n      0x08\n        /* \"contracts/Template/Istanbul10/logic/Vote.sol\":5836:5856  Template[_codeModel] */\n      swap1\n      mstore\n      keccak256\n        /* \"contracts/Template/Istanbul10/logic/Vote.sol\":5836:5870  Template[_codeModel].targetAddress */\n      0x02\n      add\n      sload\n      sub(shl(0xa0, 0x01), 0x01)\n      and\n        /* \"contracts/Template/Istanbul10/logic/Vote.sol\":5888:5908  tarGet != address(0) */\n      dup1\n        /* \"contracts/Template/Istanbul10/logic/Vote.sol\":5880:5940  require(tarGet != address(0), \"Governance Template is null\") */\n      tag_367\n      jumpi\n      mload(0x40)\n      shl(0xe5, 0x461bcd)\n      dup2\n      mstore\n        /* \"#utility.yul\":8927:8929   */\n      0x20\n        /* \"contracts/Template/Istanbul10/logic/Vote.sol\":5880:5940  require(tarGet != address(0), \"Governance Template is null\") */\n      0x04\n      dup3\n      add\n        /* \"#utility.yul\":8909:8930   */\n      mstore\n        /* \"#utility.yul\":8966:8968   */\n      0x1b\n        /* \"#utility.yul\":8946:8964   */\n      0x24\n      dup3\n      add\n        /* \"#utility.yul\":8939:8969   */\n      mstore\n        /* \"#utility.yul\":9005:9034   */\n      0x476f7665726e616e63652054656d706c617465206973206e756c6c0000000000\n        /* \"#utility.yul\":8985:9003   */\n      0x44\n      dup3\n      add\n        /* \"#utility.yul\":8978:9035   */\n      mstore\n        /* \"#utility.yul\":9052:9070   */\n      0x64\n      add\n        /* \"contracts/Template/Istanbul10/logic/Vote.sol\":5880:5940  require(tarGet != address(0), \"Governance Template is null\") */\n      tag_137\n        /* \"#utility.yul\":8899:9076   */\n      jump\n        /* \"contracts/Template/Istanbul10/logic/Vote.sol\":5880:5940  require(tarGet != address(0), \"Governance Template is null\") */\n    tag_367:\n        /* \"contracts/Template/Istanbul10/logic/Vote.sol\":5950:5988  _governanceTemplate(_codeModel,_value) */\n      tag_370\n        /* \"contracts/Template/Istanbul10/logic/Vote.sol\":5970:5980  _codeModel */\n      dup4\n        /* \"contracts/Template/Istanbul10/logic/Vote.sol\":5981:5987  _value */\n      dup4\n        /* \"contracts/Template/Istanbul10/logic/Vote.sol\":5950:5969  _governanceTemplate */\n      tag_371\n        /* \"contracts/Template/Istanbul10/logic/Vote.sol\":5950:5988  _governanceTemplate(_codeModel,_value) */\n      jump\t// in\n    tag_370:\n        /* \"contracts/Template/Istanbul10/logic/Vote.sol\":5732:5996  {\r... */\n      pop\n        /* \"contracts/Template/Istanbul10/logic/Vote.sol\":5656:5996  function _execute(uint256 _voteId,uint256 _codeModel,uint256 _value)private {\r... */\n      pop\n      pop\n      pop\n      jump\t// out\n        /* \"contracts/Template/Istanbul10/logic/Vote.sol\":6308:6652  function _governanceTemplate(uint256 num,uint256  valaue) private {\r... */\n    tag_371:\n        /* \"contracts/Template/Istanbul10/logic/Vote.sol\":6385:6399  address tarGet */\n      0x00\n        /* \"contracts/Template/Istanbul10/logic/Vote.sol\":6402:6415  Template[num] */\n      dup3\n      dup2\n      mstore\n        /* \"contracts/Template/Istanbul10/logic/Vote.sol\":6402:6410  Template */\n      0x08\n        /* \"contracts/Template/Istanbul10/logic/Vote.sol\":6402:6415  Template[num] */\n      0x20\n      mstore\n      0x40\n      dup2\n      keccak256\n        /* \"contracts/Template/Istanbul10/logic/Vote.sol\":6402:6429  Template[num].targetAddress */\n      0x02\n      dup2\n      add\n      sload\n        /* \"contracts/Template/Istanbul10/logic/Vote.sol\":6469:6495  Template[num].functionName */\n      0x03\n      swap1\n      swap2\n      add\n        /* \"contracts/Template/Istanbul10/logic/Vote.sol\":6440:6495  string memory functionName = Template[num].functionName */\n      dup1\n      sload\n      sub(shl(0xa0, 0x01), 0x01)\n        /* \"contracts/Template/Istanbul10/logic/Vote.sol\":6402:6429  Template[num].targetAddress */\n      swap1\n      swap3\n      and\n      swap3\n        /* \"contracts/Template/Istanbul10/logic/Vote.sol\":6385:6399  address tarGet */\n      swap2\n        /* \"contracts/Template/Istanbul10/logic/Vote.sol\":6440:6495  string memory functionName = Template[num].functionName */\n      tag_373\n      swap1\n      tag_104\n      jump\t// in\n    tag_373:\n      dup1\n      0x1f\n      add\n      0x20\n      dup1\n      swap2\n      div\n      mul\n      0x20\n      add\n      mload(0x40)\n      swap1\n      dup2\n      add\n      0x40\n      mstore\n      dup1\n      swap3\n      swap2\n      swap1\n      dup2\n      dup2\n      mstore\n      0x20\n      add\n      dup3\n      dup1\n      sload\n      tag_374\n      swap1\n      tag_104\n      jump\t// in\n    tag_374:\n      dup1\n      iszero\n      tag_375\n      jumpi\n      dup1\n      0x1f\n      lt\n      tag_376\n      jumpi\n      0x0100\n      dup1\n      dup4\n      sload\n      div\n      mul\n      dup4\n      mstore\n      swap2\n      0x20\n      add\n      swap2\n      jump(tag_375)\n    tag_376:\n      dup3\n      add\n      swap2\n      swap1\n      0x00\n      mstore\n      keccak256(0x00, 0x20)\n      swap1\n    tag_377:\n      dup2\n      sload\n      dup2\n      mstore\n      swap1\n      0x01\n      add\n      swap1\n      0x20\n      add\n      dup1\n      dup4\n      gt\n      tag_377\n      jumpi\n      dup3\n      swap1\n      sub\n      0x1f\n      and\n      dup3\n      add\n      swap2\n    tag_375:\n      pop\n      pop\n      pop\n      pop\n      pop\n      swap1\n      pop\n        /* \"contracts/Template/Istanbul10/logic/Vote.sol\":6507:6515  bool _ok */\n      0x00\n        /* \"contracts/Template/Istanbul10/logic/Vote.sol\":6517:6540  bytes memory returnData */\n      dup1\n        /* \"contracts/Template/Istanbul10/logic/Vote.sol\":6544:6550  tarGet */\n      dup4\n      sub(shl(0xa0, 0x01), 0x01)\n        /* \"contracts/Template/Istanbul10/logic/Vote.sol\":6544:6555  tarGet.call */\n      and\n        /* \"contracts/Template/Istanbul10/logic/Vote.sol\":6580:6592  functionName */\n      dup4\n        /* \"contracts/Template/Istanbul10/logic/Vote.sol\":6593:6599  valaue */\n      dup7\n        /* \"contracts/Template/Istanbul10/logic/Vote.sol\":6556:6600  abi.encodeWithSignature(functionName,valaue) */\n      add(0x24, mload(0x40))\n      tag_378\n      swap2\n        /* \"#utility.yul\":13187:13212   */\n      dup2\n      mstore\n        /* \"#utility.yul\":13175:13177   */\n      0x20\n        /* \"#utility.yul\":13160:13178   */\n      add\n      swap1\n        /* \"#utility.yul\":13142:13218   */\n      jump\n        /* \"contracts/Template/Istanbul10/logic/Vote.sol\":6556:6600  abi.encodeWithSignature(functionName,valaue) */\n    tag_378:\n      0x40\n      dup1\n      mload\n      not(0x1f)\n      dup2\n      dup5\n      sub\n      add\n      dup2\n      mstore\n      swap1\n      dup3\n      swap1\n      mstore\n      swap2\n      tag_379\n      swap2\n      tag_381\n      jump\t// in\n    tag_379:\n      0x40\n      dup1\n      mload\n      swap2\n      dup3\n      swap1\n      sub\n      swap1\n      swap2\n      keccak256\n      0x20\n      dup4\n      add\n      dup1\n      mload\n      sub(shl(0xe0, 0x01), 0x01)\n      and\n      not(sub(shl(0xe0, 0x01), 0x01))\n      swap1\n      swap3\n      and\n      swap2\n      swap1\n      swap2\n      or\n      swap1\n      mstore\n        /* \"contracts/Template/Istanbul10/logic/Vote.sol\":6544:6601  tarGet.call(abi.encodeWithSignature(functionName,valaue)) */\n      mload\n      tag_380\n      swap2\n        /* \"contracts/Template/Istanbul10/logic/Vote.sol\":6556:6600  abi.encodeWithSignature(functionName,valaue) */\n      swap1\n        /* \"contracts/Template/Istanbul10/logic/Vote.sol\":6544:6601  tarGet.call(abi.encodeWithSignature(functionName,valaue)) */\n      tag_381\n      jump\t// in\n    tag_380:\n      0x00\n      mload(0x40)\n      dup1\n      dup4\n      sub\n      dup2\n      0x00\n      dup7\n      gas\n      call\n      swap2\n      pop\n      pop\n      returndatasize\n      dup1\n      0x00\n      dup2\n      eq\n      tag_384\n      jumpi\n      mload(0x40)\n      swap2\n      pop\n      and(add(returndatasize, 0x3f), not(0x1f))\n      dup3\n      add\n      0x40\n      mstore\n      returndatasize\n      dup3\n      mstore\n      returndatasize\n      0x00\n      0x20\n      dup5\n      add\n      returndatacopy\n      jump(tag_383)\n    tag_384:\n      0x60\n      swap2\n      pop\n    tag_383:\n      pop\n        /* \"contracts/Template/Istanbul10/logic/Vote.sol\":6506:6601  (bool _ok, bytes memory returnData) = tarGet.call(abi.encodeWithSignature(functionName,valaue)) */\n      swap2\n      pop\n      swap2\n      pop\n        /* \"contracts/Template/Istanbul10/logic/Vote.sol\":6620:6623  _ok */\n      dup2\n        /* \"contracts/Template/Istanbul10/logic/Vote.sol\":6632:6642  returnData */\n      dup2\n        /* \"contracts/Template/Istanbul10/logic/Vote.sol\":6612:6644  require(_ok, string(returnData)) */\n      swap1\n      tag_385\n      jumpi\n      mload(0x40)\n      shl(0xe5, 0x461bcd)\n      dup2\n      mstore\n      0x04\n      add\n      tag_137\n      swap2\n      swap1\n      tag_159\n      jump\t// in\n    tag_385:\n      pop\n        /* \"contracts/Template/Istanbul10/logic/Vote.sol\":6374:6652  {\r... */\n      pop\n      pop\n      pop\n      pop\n        /* \"contracts/Template/Istanbul10/logic/Vote.sol\":6308:6652  function _governanceTemplate(uint256 num,uint256  valaue) private {\r... */\n      pop\n      pop\n      jump\t// out\n    tag_156:\n      dup3\n      dup1\n      sload\n      tag_387\n      swap1\n      tag_104\n      jump\t// in\n    tag_387:\n      swap1\n      0x00\n      mstore\n      keccak256(0x00, 0x20)\n      swap1\n      0x1f\n      add\n      0x20\n      swap1\n      div\n      dup2\n      add\n      swap3\n      dup3\n      tag_389\n      jumpi\n      0x00\n      dup6\n      sstore\n      jump(tag_392)\n    tag_389:\n      dup3\n      0x1f\n      lt\n      tag_390\n      jumpi\n      dup1\n      mload\n      not(0xff)\n      and\n      dup4\n      dup1\n      add\n      or\n      dup6\n      sstore\n      jump(tag_392)\n    tag_390:\n      dup3\n      dup1\n      add\n      0x01\n      add\n      dup6\n      sstore\n      dup3\n      iszero\n      tag_392\n      jumpi\n      swap2\n      dup3\n      add\n    tag_391:\n      dup3\n      dup2\n      gt\n      iszero\n      tag_392\n      jumpi\n      dup3\n      mload\n      dup3\n      sstore\n      swap2\n      0x20\n      add\n      swap2\n      swap1\n      0x01\n      add\n      swap1\n      jump(tag_391)\n    tag_392:\n      pop\n      tag_393\n      swap3\n      swap2\n      pop\n      tag_394\n      jump\t// in\n    tag_393:\n      pop\n      swap1\n      jump\t// out\n    tag_394:\n    tag_395:\n      dup1\n      dup3\n      gt\n      iszero\n      tag_393\n      jumpi\n      0x00\n      dup2\n      sstore\n      0x01\n      add\n      jump(tag_395)\n        /* \"#utility.yul\":14:187   */\n    tag_398:\n        /* \"#utility.yul\":82:102   */\n      dup1\n      calldataload\n      sub(shl(0xa0, 0x01), 0x01)\n        /* \"#utility.yul\":131:162   */\n      dup2\n      and\n        /* \"#utility.yul\":121:163   */\n      dup2\n      eq\n        /* \"#utility.yul\":111:113   */\n      tag_400\n      jumpi\n        /* \"#utility.yul\":177:178   */\n      0x00\n        /* \"#utility.yul\":174:175   */\n      dup1\n        /* \"#utility.yul\":167:179   */\n      revert\n        /* \"#utility.yul\":111:113   */\n    tag_400:\n        /* \"#utility.yul\":63:187   */\n      swap2\n      swap1\n      pop\n      jump\t// out\n        /* \"#utility.yul\":192:911   */\n    tag_401:\n        /* \"#utility.yul\":235:240   */\n      0x00\n        /* \"#utility.yul\":288:291   */\n      dup3\n        /* \"#utility.yul\":281:285   */\n      0x1f\n        /* \"#utility.yul\":273:279   */\n      dup4\n        /* \"#utility.yul\":269:286   */\n      add\n        /* \"#utility.yul\":265:292   */\n      slt\n        /* \"#utility.yul\":255:257   */\n      tag_403\n      jumpi\n        /* \"#utility.yul\":306:307   */\n      0x00\n        /* \"#utility.yul\":303:304   */\n      dup1\n        /* \"#utility.yul\":296:308   */\n      revert\n        /* \"#utility.yul\":255:257   */\n    tag_403:\n        /* \"#utility.yul\":342:348   */\n      dup2\n        /* \"#utility.yul\":329:349   */\n      calldataload\n        /* \"#utility.yul\":368:386   */\n      0xffffffffffffffff\n        /* \"#utility.yul\":405:407   */\n      dup1\n        /* \"#utility.yul\":401:403   */\n      dup3\n        /* \"#utility.yul\":398:408   */\n      gt\n        /* \"#utility.yul\":395:397   */\n      iszero\n      tag_405\n      jumpi\n        /* \"#utility.yul\":411:429   */\n      tag_405\n      tag_95\n      jump\t// in\n    tag_405:\n        /* \"#utility.yul\":486:488   */\n      0x40\n        /* \"#utility.yul\":480:489   */\n      mload\n        /* \"#utility.yul\":454:456   */\n      0x1f\n        /* \"#utility.yul\":540:553   */\n      dup4\n      add\n      not(0x1f)\n        /* \"#utility.yul\":536:558   */\n      swap1\n      dup2\n      and\n        /* \"#utility.yul\":560:562   */\n      0x3f\n        /* \"#utility.yul\":532:563   */\n      add\n        /* \"#utility.yul\":528:568   */\n      and\n        /* \"#utility.yul\":516:569   */\n      dup2\n      add\n      swap1\n        /* \"#utility.yul\":584:602   */\n      dup3\n      dup3\n      gt\n        /* \"#utility.yul\":604:626   */\n      dup2\n      dup4\n      lt\n        /* \"#utility.yul\":581:627   */\n      or\n        /* \"#utility.yul\":578:580   */\n      iszero\n      tag_407\n      jumpi\n        /* \"#utility.yul\":630:648   */\n      tag_407\n      tag_95\n      jump\t// in\n    tag_407:\n        /* \"#utility.yul\":670:680   */\n      dup2\n        /* \"#utility.yul\":666:668   */\n      0x40\n        /* \"#utility.yul\":659:681   */\n      mstore\n        /* \"#utility.yul\":705:707   */\n      dup4\n        /* \"#utility.yul\":697:703   */\n      dup2\n        /* \"#utility.yul\":690:708   */\n      mstore\n        /* \"#utility.yul\":751:754   */\n      dup7\n        /* \"#utility.yul\":744:748   */\n      0x20\n        /* \"#utility.yul\":739:741   */\n      dup6\n        /* \"#utility.yul\":731:737   */\n      dup9\n        /* \"#utility.yul\":727:742   */\n      add\n        /* \"#utility.yul\":723:749   */\n      add\n        /* \"#utility.yul\":720:755   */\n      gt\n        /* \"#utility.yul\":717:719   */\n      iszero\n      tag_408\n      jumpi\n        /* \"#utility.yul\":768:769   */\n      0x00\n        /* \"#utility.yul\":765:766   */\n      dup1\n        /* \"#utility.yul\":758:770   */\n      revert\n        /* \"#utility.yul\":717:719   */\n    tag_408:\n        /* \"#utility.yul\":832:834   */\n      dup4\n        /* \"#utility.yul\":825:829   */\n      0x20\n        /* \"#utility.yul\":817:823   */\n      dup8\n        /* \"#utility.yul\":813:830   */\n      add\n        /* \"#utility.yul\":806:810   */\n      0x20\n        /* \"#utility.yul\":798:804   */\n      dup4\n        /* \"#utility.yul\":794:811   */\n      add\n        /* \"#utility.yul\":781:835   */\n      calldatacopy\n        /* \"#utility.yul\":879:880   */\n      0x00\n        /* \"#utility.yul\":872:876   */\n      0x20\n        /* \"#utility.yul\":867:869   */\n      dup6\n        /* \"#utility.yul\":859:865   */\n      dup4\n        /* \"#utility.yul\":855:870   */\n      add\n        /* \"#utility.yul\":851:877   */\n      add\n        /* \"#utility.yul\":844:881   */\n      mstore\n        /* \"#utility.yul\":899:905   */\n      dup1\n        /* \"#utility.yul\":890:905   */\n      swap5\n      pop\n      pop\n      pop\n      pop\n      pop\n        /* \"#utility.yul\":245:911   */\n      swap3\n      swap2\n      pop\n      pop\n      jump\t// out\n        /* \"#utility.yul\":916:1533   */\n    tag_74:\n        /* \"#utility.yul\":1013:1019   */\n      0x00\n        /* \"#utility.yul\":1021:1027   */\n      dup1\n        /* \"#utility.yul\":1029:1035   */\n      0x00\n        /* \"#utility.yul\":1082:1084   */\n      0x60\n        /* \"#utility.yul\":1070:1079   */\n      dup5\n        /* \"#utility.yul\":1061:1068   */\n      dup7\n        /* \"#utility.yul\":1057:1080   */\n      sub\n        /* \"#utility.yul\":1053:1085   */\n      slt\n        /* \"#utility.yul\":1050:1052   */\n      iszero\n      tag_410\n      jumpi\n        /* \"#utility.yul\":1098:1099   */\n      0x00\n        /* \"#utility.yul\":1095:1096   */\n      dup1\n        /* \"#utility.yul\":1088:1100   */\n      revert\n        /* \"#utility.yul\":1050:1052   */\n    tag_410:\n        /* \"#utility.yul\":1138:1147   */\n      dup4\n        /* \"#utility.yul\":1125:1148   */\n      calldataload\n        /* \"#utility.yul\":1167:1185   */\n      0xffffffffffffffff\n        /* \"#utility.yul\":1208:1210   */\n      dup1\n        /* \"#utility.yul\":1200:1206   */\n      dup3\n        /* \"#utility.yul\":1197:1211   */\n      gt\n        /* \"#utility.yul\":1194:1196   */\n      iszero\n      tag_411\n      jumpi\n        /* \"#utility.yul\":1224:1225   */\n      0x00\n        /* \"#utility.yul\":1221:1222   */\n      dup1\n        /* \"#utility.yul\":1214:1226   */\n      revert\n        /* \"#utility.yul\":1194:1196   */\n    tag_411:\n        /* \"#utility.yul\":1247:1297   */\n      tag_412\n        /* \"#utility.yul\":1289:1296   */\n      dup8\n        /* \"#utility.yul\":1280:1286   */\n      dup4\n        /* \"#utility.yul\":1269:1278   */\n      dup9\n        /* \"#utility.yul\":1265:1287   */\n      add\n        /* \"#utility.yul\":1247:1297   */\n      tag_401\n      jump\t// in\n    tag_412:\n        /* \"#utility.yul\":1237:1297   */\n      swap5\n      pop\n        /* \"#utility.yul\":1316:1354   */\n      tag_413\n        /* \"#utility.yul\":1350:1352   */\n      0x20\n        /* \"#utility.yul\":1339:1348   */\n      dup8\n        /* \"#utility.yul\":1335:1353   */\n      add\n        /* \"#utility.yul\":1316:1354   */\n      tag_398\n      jump\t// in\n    tag_413:\n        /* \"#utility.yul\":1306:1354   */\n      swap4\n      pop\n        /* \"#utility.yul\":1407:1409   */\n      0x40\n        /* \"#utility.yul\":1396:1405   */\n      dup7\n        /* \"#utility.yul\":1392:1410   */\n      add\n        /* \"#utility.yul\":1379:1411   */\n      calldataload\n        /* \"#utility.yul\":1363:1411   */\n      swap2\n      pop\n        /* \"#utility.yul\":1436:1438   */\n      dup1\n        /* \"#utility.yul\":1426:1434   */\n      dup3\n        /* \"#utility.yul\":1423:1439   */\n      gt\n        /* \"#utility.yul\":1420:1422   */\n      iszero\n      tag_414\n      jumpi\n        /* \"#utility.yul\":1452:1453   */\n      0x00\n        /* \"#utility.yul\":1449:1450   */\n      dup1\n        /* \"#utility.yul\":1442:1454   */\n      revert\n        /* \"#utility.yul\":1420:1422   */\n    tag_414:\n      pop\n        /* \"#utility.yul\":1475:1527   */\n      tag_415\n        /* \"#utility.yul\":1519:1526   */\n      dup7\n        /* \"#utility.yul\":1508:1516   */\n      dup3\n        /* \"#utility.yul\":1497:1506   */\n      dup8\n        /* \"#utility.yul\":1493:1517   */\n      add\n        /* \"#utility.yul\":1475:1527   */\n      tag_401\n      jump\t// in\n    tag_415:\n        /* \"#utility.yul\":1465:1527   */\n      swap2\n      pop\n      pop\n        /* \"#utility.yul\":1040:1533   */\n      swap3\n      pop\n      swap3\n      pop\n      swap3\n      jump\t// out\n        /* \"#utility.yul\":1538:2218   */\n    tag_82:\n        /* \"#utility.yul\":1644:1650   */\n      0x00\n        /* \"#utility.yul\":1652:1658   */\n      dup1\n        /* \"#utility.yul\":1660:1666   */\n      0x00\n        /* \"#utility.yul\":1668:1674   */\n      dup1\n        /* \"#utility.yul\":1721:1724   */\n      0x80\n        /* \"#utility.yul\":1709:1718   */\n      dup6\n        /* \"#utility.yul\":1700:1707   */\n      dup8\n        /* \"#utility.yul\":1696:1719   */\n      sub\n        /* \"#utility.yul\":1692:1725   */\n      slt\n        /* \"#utility.yul\":1689:1691   */\n      iszero\n      tag_417\n      jumpi\n        /* \"#utility.yul\":1738:1739   */\n      0x00\n        /* \"#utility.yul\":1735:1736   */\n      dup1\n        /* \"#utility.yul\":1728:1740   */\n      revert\n        /* \"#utility.yul\":1689:1691   */\n    tag_417:\n        /* \"#utility.yul\":1778:1787   */\n      dup5\n        /* \"#utility.yul\":1765:1788   */\n      calldataload\n        /* \"#utility.yul\":1807:1825   */\n      0xffffffffffffffff\n        /* \"#utility.yul\":1848:1850   */\n      dup1\n        /* \"#utility.yul\":1840:1846   */\n      dup3\n        /* \"#utility.yul\":1837:1851   */\n      gt\n        /* \"#utility.yul\":1834:1836   */\n      iszero\n      tag_418\n      jumpi\n        /* \"#utility.yul\":1864:1865   */\n      0x00\n        /* \"#utility.yul\":1861:1862   */\n      dup1\n        /* \"#utility.yul\":1854:1866   */\n      revert\n        /* \"#utility.yul\":1834:1836   */\n    tag_418:\n        /* \"#utility.yul\":1887:1937   */\n      tag_419\n        /* \"#utility.yul\":1929:1936   */\n      dup9\n        /* \"#utility.yul\":1920:1926   */\n      dup4\n        /* \"#utility.yul\":1909:1918   */\n      dup10\n        /* \"#utility.yul\":1905:1927   */\n      add\n        /* \"#utility.yul\":1887:1937   */\n      tag_401\n      jump\t// in\n    tag_419:\n        /* \"#utility.yul\":1877:1937   */\n      swap6\n      pop\n        /* \"#utility.yul\":1990:1992   */\n      0x20\n        /* \"#utility.yul\":1979:1988   */\n      dup8\n        /* \"#utility.yul\":1975:1993   */\n      add\n        /* \"#utility.yul\":1962:1994   */\n      calldataload\n        /* \"#utility.yul\":1946:1994   */\n      swap2\n      pop\n        /* \"#utility.yul\":2019:2021   */\n      dup1\n        /* \"#utility.yul\":2009:2017   */\n      dup3\n        /* \"#utility.yul\":2006:2022   */\n      gt\n        /* \"#utility.yul\":2003:2005   */\n      iszero\n      tag_420\n      jumpi\n        /* \"#utility.yul\":2035:2036   */\n      0x00\n        /* \"#utility.yul\":2032:2033   */\n      dup1\n        /* \"#utility.yul\":2025:2037   */\n      revert\n        /* \"#utility.yul\":2003:2005   */\n    tag_420:\n      pop\n        /* \"#utility.yul\":2058:2110   */\n      tag_421\n        /* \"#utility.yul\":2102:2109   */\n      dup8\n        /* \"#utility.yul\":2091:2099   */\n      dup3\n        /* \"#utility.yul\":2080:2089   */\n      dup9\n        /* \"#utility.yul\":2076:2100   */\n      add\n        /* \"#utility.yul\":2058:2110   */\n      tag_401\n      jump\t// in\n    tag_421:\n        /* \"#utility.yul\":1679:2218   */\n      swap5\n      swap8\n        /* \"#utility.yul\":2048:2110   */\n      swap5\n      swap7\n      pop\n      pop\n      pop\n      pop\n        /* \"#utility.yul\":2157:2159   */\n      0x40\n        /* \"#utility.yul\":2142:2160   */\n      dup4\n      add\n        /* \"#utility.yul\":2129:2161   */\n      calldataload\n      swap3\n        /* \"#utility.yul\":2208:2210   */\n      0x60\n        /* \"#utility.yul\":2193:2211   */\n      add\n        /* \"#utility.yul\":2180:2212   */\n      calldataload\n      swap2\n        /* \"#utility.yul\":1679:2218   */\n      swap1\n      pop\n      jump\t// out\n        /* \"#utility.yul\":2223:2403   */\n    tag_25:\n        /* \"#utility.yul\":2282:2288   */\n      0x00\n        /* \"#utility.yul\":2335:2337   */\n      0x20\n        /* \"#utility.yul\":2323:2332   */\n      dup3\n        /* \"#utility.yul\":2314:2321   */\n      dup5\n        /* \"#utility.yul\":2310:2333   */\n      sub\n        /* \"#utility.yul\":2306:2338   */\n      slt\n        /* \"#utility.yul\":2303:2305   */\n      iszero\n      tag_423\n      jumpi\n        /* \"#utility.yul\":2351:2352   */\n      0x00\n        /* \"#utility.yul\":2348:2349   */\n      dup1\n        /* \"#utility.yul\":2341:2353   */\n      revert\n        /* \"#utility.yul\":2303:2305   */\n    tag_423:\n      pop\n        /* \"#utility.yul\":2374:2397   */\n      calldataload\n      swap2\n        /* \"#utility.yul\":2293:2403   */\n      swap1\n      pop\n      jump\t// out\n        /* \"#utility.yul\":2408:2592   */\n    tag_126:\n        /* \"#utility.yul\":2478:2484   */\n      0x00\n        /* \"#utility.yul\":2531:2533   */\n      0x20\n        /* \"#utility.yul\":2519:2528   */\n      dup3\n        /* \"#utility.yul\":2510:2517   */\n      dup5\n        /* \"#utility.yul\":2506:2529   */\n      sub\n        /* \"#utility.yul\":2502:2534   */\n      slt\n        /* \"#utility.yul\":2499:2501   */\n      iszero\n      tag_425\n      jumpi\n        /* \"#utility.yul\":2547:2548   */\n      0x00\n        /* \"#utility.yul\":2544:2545   */\n      dup1\n        /* \"#utility.yul\":2537:2549   */\n      revert\n        /* \"#utility.yul\":2499:2501   */\n    tag_425:\n      pop\n        /* \"#utility.yul\":2570:2586   */\n      mload\n      swap2\n        /* \"#utility.yul\":2489:2592   */\n      swap1\n      pop\n      jump\t// out\n        /* \"#utility.yul\":2597:2851   */\n    tag_87:\n        /* \"#utility.yul\":2665:2671   */\n      0x00\n        /* \"#utility.yul\":2673:2679   */\n      dup1\n        /* \"#utility.yul\":2726:2728   */\n      0x40\n        /* \"#utility.yul\":2714:2723   */\n      dup4\n        /* \"#utility.yul\":2705:2712   */\n      dup6\n        /* \"#utility.yul\":2701:2724   */\n      sub\n        /* \"#utility.yul\":2697:2729   */\n      slt\n        /* \"#utility.yul\":2694:2696   */\n      iszero\n      tag_427\n      jumpi\n        /* \"#utility.yul\":2742:2743   */\n      0x00\n        /* \"#utility.yul\":2739:2740   */\n      dup1\n        /* \"#utility.yul\":2732:2744   */\n      revert\n        /* \"#utility.yul\":2694:2696   */\n    tag_427:\n        /* \"#utility.yul\":2778:2787   */\n      dup3\n        /* \"#utility.yul\":2765:2788   */\n      calldataload\n        /* \"#utility.yul\":2755:2788   */\n      swap2\n      pop\n        /* \"#utility.yul\":2807:2845   */\n      tag_428\n        /* \"#utility.yul\":2841:2843   */\n      0x20\n        /* \"#utility.yul\":2830:2839   */\n      dup5\n        /* \"#utility.yul\":2826:2844   */\n      add\n        /* \"#utility.yul\":2807:2845   */\n      tag_398\n      jump\t// in\n    tag_428:\n        /* \"#utility.yul\":2797:2845   */\n      swap1\n      pop\n        /* \"#utility.yul\":2684:2851   */\n      swap3\n      pop\n      swap3\n      swap1\n      pop\n      jump\t// out\n        /* \"#utility.yul\":2856:3197   */\n    tag_61:\n        /* \"#utility.yul\":2921:2927   */\n      0x00\n        /* \"#utility.yul\":2929:2935   */\n      dup1\n        /* \"#utility.yul\":2982:2984   */\n      0x40\n        /* \"#utility.yul\":2970:2979   */\n      dup4\n        /* \"#utility.yul\":2961:2968   */\n      dup6\n        /* \"#utility.yul\":2957:2980   */\n      sub\n        /* \"#utility.yul\":2953:2985   */\n      slt\n        /* \"#utility.yul\":2950:2952   */\n      iszero\n      tag_430\n      jumpi\n        /* \"#utility.yul\":2998:2999   */\n      0x00\n        /* \"#utility.yul\":2995:2996   */\n      dup1\n        /* \"#utility.yul\":2988:3000   */\n      revert\n        /* \"#utility.yul\":2950:2952   */\n    tag_430:\n        /* \"#utility.yul\":3034:3043   */\n      dup3\n        /* \"#utility.yul\":3021:3044   */\n      calldataload\n        /* \"#utility.yul\":3011:3044   */\n      swap2\n      pop\n        /* \"#utility.yul\":3094:3096   */\n      0x20\n        /* \"#utility.yul\":3083:3092   */\n      dup4\n        /* \"#utility.yul\":3079:3097   */\n      add\n        /* \"#utility.yul\":3066:3098   */\n      calldataload\n        /* \"#utility.yul\":3141:3146   */\n      dup1\n        /* \"#utility.yul\":3134:3147   */\n      iszero\n        /* \"#utility.yul\":3127:3148   */\n      iszero\n        /* \"#utility.yul\":3120:3125   */\n      dup2\n        /* \"#utility.yul\":3117:3149   */\n      eq\n        /* \"#utility.yul\":3107:3109   */\n      tag_431\n      jumpi\n        /* \"#utility.yul\":3163:3164   */\n      0x00\n        /* \"#utility.yul\":3160:3161   */\n      dup1\n        /* \"#utility.yul\":3153:3165   */\n      revert\n        /* \"#utility.yul\":3107:3109   */\n    tag_431:\n        /* \"#utility.yul\":3186:3191   */\n      dup1\n        /* \"#utility.yul\":3176:3191   */\n      swap2\n      pop\n      pop\n        /* \"#utility.yul\":2940:3197   */\n      swap3\n      pop\n      swap3\n      swap1\n      pop\n      jump\t// out\n        /* \"#utility.yul\":3202:3592   */\n    tag_44:\n        /* \"#utility.yul\":3280:3286   */\n      0x00\n        /* \"#utility.yul\":3288:3294   */\n      dup1\n        /* \"#utility.yul\":3341:3343   */\n      0x40\n        /* \"#utility.yul\":3329:3338   */\n      dup4\n        /* \"#utility.yul\":3320:3327   */\n      dup6\n        /* \"#utility.yul\":3316:3339   */\n      sub\n        /* \"#utility.yul\":3312:3344   */\n      slt\n        /* \"#utility.yul\":3309:3311   */\n      iszero\n      tag_433\n      jumpi\n        /* \"#utility.yul\":3357:3358   */\n      0x00\n        /* \"#utility.yul\":3354:3355   */\n      dup1\n        /* \"#utility.yul\":3347:3359   */\n      revert\n        /* \"#utility.yul\":3309:3311   */\n    tag_433:\n        /* \"#utility.yul\":3393:3402   */\n      dup3\n        /* \"#utility.yul\":3380:3403   */\n      calldataload\n        /* \"#utility.yul\":3370:3403   */\n      swap2\n      pop\n        /* \"#utility.yul\":3454:3456   */\n      0x20\n        /* \"#utility.yul\":3443:3452   */\n      dup4\n        /* \"#utility.yul\":3439:3457   */\n      add\n        /* \"#utility.yul\":3426:3458   */\n      calldataload\n        /* \"#utility.yul\":3481:3499   */\n      0xffffffffffffffff\n        /* \"#utility.yul\":3473:3479   */\n      dup2\n        /* \"#utility.yul\":3470:3500   */\n      gt\n        /* \"#utility.yul\":3467:3469   */\n      iszero\n      tag_434\n      jumpi\n        /* \"#utility.yul\":3513:3514   */\n      0x00\n        /* \"#utility.yul\":3510:3511   */\n      dup1\n        /* \"#utility.yul\":3503:3515   */\n      revert\n        /* \"#utility.yul\":3467:3469   */\n    tag_434:\n        /* \"#utility.yul\":3536:3586   */\n      tag_435\n        /* \"#utility.yul\":3578:3585   */\n      dup6\n        /* \"#utility.yul\":3569:3575   */\n      dup3\n        /* \"#utility.yul\":3558:3567   */\n      dup7\n        /* \"#utility.yul\":3554:3576   */\n      add\n        /* \"#utility.yul\":3536:3586   */\n      tag_401\n      jump\t// in\n    tag_435:\n        /* \"#utility.yul\":3526:3586   */\n      swap2\n      pop\n      pop\n        /* \"#utility.yul\":3299:3592   */\n      swap3\n      pop\n      swap3\n      swap1\n      pop\n      jump\t// out\n        /* \"#utility.yul\":3597:3855   */\n    tag_436:\n        /* \"#utility.yul\":3639:3642   */\n      0x00\n        /* \"#utility.yul\":3677:3682   */\n      dup2\n        /* \"#utility.yul\":3671:3683   */\n      mload\n        /* \"#utility.yul\":3704:3710   */\n      dup1\n        /* \"#utility.yul\":3699:3702   */\n      dup5\n        /* \"#utility.yul\":3692:3711   */\n      mstore\n        /* \"#utility.yul\":3720:3783   */\n      tag_438\n        /* \"#utility.yul\":3776:3782   */\n      dup2\n        /* \"#utility.yul\":3769:3773   */\n      0x20\n        /* \"#utility.yul\":3764:3767   */\n      dup7\n        /* \"#utility.yul\":3760:3774   */\n      add\n        /* \"#utility.yul\":3753:3757   */\n      0x20\n        /* \"#utility.yul\":3746:3751   */\n      dup7\n        /* \"#utility.yul\":3742:3758   */\n      add\n        /* \"#utility.yul\":3720:3783   */\n      tag_439\n      jump\t// in\n    tag_438:\n        /* \"#utility.yul\":3837:3839   */\n      0x1f\n        /* \"#utility.yul\":3816:3831   */\n      add\n      not(0x1f)\n        /* \"#utility.yul\":3812:3841   */\n      and\n        /* \"#utility.yul\":3803:3842   */\n      swap3\n      swap1\n      swap3\n      add\n        /* \"#utility.yul\":3844:3848   */\n      0x20\n        /* \"#utility.yul\":3799:3849   */\n      add\n      swap3\n        /* \"#utility.yul\":3647:3855   */\n      swap2\n      pop\n      pop\n      jump\t// out\n        /* \"#utility.yul\":3860:4134   */\n    tag_381:\n        /* \"#utility.yul\":3989:3992   */\n      0x00\n        /* \"#utility.yul\":4027:4033   */\n      dup3\n        /* \"#utility.yul\":4021:4034   */\n      mload\n        /* \"#utility.yul\":4043:4096   */\n      tag_441\n        /* \"#utility.yul\":4089:4095   */\n      dup2\n        /* \"#utility.yul\":4084:4087   */\n      dup5\n        /* \"#utility.yul\":4077:4081   */\n      0x20\n        /* \"#utility.yul\":4069:4075   */\n      dup8\n        /* \"#utility.yul\":4065:4082   */\n      add\n        /* \"#utility.yul\":4043:4096   */\n      tag_439\n      jump\t// in\n    tag_441:\n        /* \"#utility.yul\":4112:4128   */\n      swap2\n      swap1\n      swap2\n      add\n      swap3\n        /* \"#utility.yul\":3997:4134   */\n      swap2\n      pop\n      pop\n      jump\t// out\n        /* \"#utility.yul\":4628:5991   */\n    tag_32:\n        /* \"#utility.yul\":4842:4846   */\n      0x00\n        /* \"#utility.yul\":4871:4873   */\n      0x20\n        /* \"#utility.yul\":4911:4913   */\n      dup1\n        /* \"#utility.yul\":4900:4909   */\n      dup4\n        /* \"#utility.yul\":4896:4914   */\n      add\n        /* \"#utility.yul\":4941:4943   */\n      dup2\n        /* \"#utility.yul\":4930:4939   */\n      dup5\n        /* \"#utility.yul\":4923:4944   */\n      mstore\n        /* \"#utility.yul\":4964:4970   */\n      dup1\n        /* \"#utility.yul\":4999:5005   */\n      dup6\n        /* \"#utility.yul\":4993:5006   */\n      mload\n        /* \"#utility.yul\":5030:5036   */\n      dup1\n        /* \"#utility.yul\":5022:5028   */\n      dup4\n        /* \"#utility.yul\":5015:5037   */\n      mstore\n        /* \"#utility.yul\":5056:5058   */\n      0x40\n        /* \"#utility.yul\":5046:5058   */\n      swap3\n      pop\n        /* \"#utility.yul\":5089:5091   */\n      dup3\n        /* \"#utility.yul\":5078:5087   */\n      dup7\n        /* \"#utility.yul\":5074:5092   */\n      add\n        /* \"#utility.yul\":5067:5092   */\n      swap2\n      pop\n        /* \"#utility.yul\":5151:5153   */\n      dup3\n        /* \"#utility.yul\":5141:5147   */\n      dup2\n        /* \"#utility.yul\":5138:5139   */\n      0x05\n        /* \"#utility.yul\":5134:5148   */\n      shl\n        /* \"#utility.yul\":5123:5132   */\n      dup8\n        /* \"#utility.yul\":5119:5149   */\n      add\n        /* \"#utility.yul\":5115:5154   */\n      add\n        /* \"#utility.yul\":5189:5191   */\n      dup5\n        /* \"#utility.yul\":5181:5187   */\n      dup9\n        /* \"#utility.yul\":5177:5192   */\n      add\n        /* \"#utility.yul\":5210:5211   */\n      0x00\n        /* \"#utility.yul\":5220:5962   */\n    tag_446:\n        /* \"#utility.yul\":5234:5240   */\n      dup4\n        /* \"#utility.yul\":5231:5232   */\n      dup2\n        /* \"#utility.yul\":5228:5241   */\n      lt\n        /* \"#utility.yul\":5220:5962   */\n      iszero\n      tag_448\n      jumpi\n        /* \"#utility.yul\":5327:5329   */\n      0x3f\n        /* \"#utility.yul\":5323:5330   */\n      not\n        /* \"#utility.yul\":5311:5320   */\n      dup10\n        /* \"#utility.yul\":5303:5309   */\n      dup5\n        /* \"#utility.yul\":5299:5321   */\n      sub\n        /* \"#utility.yul\":5295:5331   */\n      add\n        /* \"#utility.yul\":5290:5293   */\n      dup6\n        /* \"#utility.yul\":5283:5332   */\n      mstore\n        /* \"#utility.yul\":5361:5367   */\n      dup2\n        /* \"#utility.yul\":5355:5368   */\n      mload\n        /* \"#utility.yul\":5391:5395   */\n      0x80\n        /* \"#utility.yul\":5429:5431   */\n      dup2\n        /* \"#utility.yul\":5423:5432   */\n      mload\n        /* \"#utility.yul\":5415:5421   */\n      dup6\n        /* \"#utility.yul\":5408:5433   */\n      mstore\n        /* \"#utility.yul\":5480:5482   */\n      dup9\n        /* \"#utility.yul\":5476:5478   */\n      dup3\n        /* \"#utility.yul\":5472:5483   */\n      add\n        /* \"#utility.yul\":5466:5484   */\n      mload\n        /* \"#utility.yul\":5521:5523   */\n      dup2\n        /* \"#utility.yul\":5516:5518   */\n      dup11\n        /* \"#utility.yul\":5508:5514   */\n      dup8\n        /* \"#utility.yul\":5504:5519   */\n      add\n        /* \"#utility.yul\":5497:5524   */\n      mstore\n        /* \"#utility.yul\":5551:5599   */\n      tag_449\n        /* \"#utility.yul\":5595:5597   */\n      dup3\n        /* \"#utility.yul\":5587:5593   */\n      dup8\n        /* \"#utility.yul\":5583:5598   */\n      add\n        /* \"#utility.yul\":5569:5581   */\n      dup3\n        /* \"#utility.yul\":5551:5599   */\n      tag_436\n      jump\t// in\n    tag_449:\n        /* \"#utility.yul\":5646:5657   */\n      dup4\n      dup11\n      add\n        /* \"#utility.yul\":5640:5658   */\n      mload\n      sub(shl(0xa0, 0x01), 0x01)\n        /* \"#utility.yul\":5636:5680   */\n      and\n        /* \"#utility.yul\":5619:5634   */\n      dup8\n      dup12\n      add\n        /* \"#utility.yul\":5612:5681   */\n      mstore\n        /* \"#utility.yul\":5704:5708   */\n      0x60\n        /* \"#utility.yul\":5749:5760   */\n      swap4\n      dup5\n      add\n        /* \"#utility.yul\":5743:5761   */\n      mload\n        /* \"#utility.yul\":5798:5817   */\n      dup8\n      dup3\n      sub\n        /* \"#utility.yul\":5781:5796   */\n      swap5\n      dup9\n      add\n        /* \"#utility.yul\":5774:5818   */\n      swap5\n      swap1\n      swap5\n      mstore\n        /* \"#utility.yul\":5537:5599   */\n      swap2\n      pop\n        /* \"#utility.yul\":5841:5882   */\n      tag_450\n      swap1\n      pop\n        /* \"#utility.yul\":5537:5599   */\n      dup2\n        /* \"#utility.yul\":5743:5761   */\n      dup4\n        /* \"#utility.yul\":5841:5882   */\n      tag_436\n      jump\t// in\n    tag_450:\n        /* \"#utility.yul\":5940:5952   */\n      swap7\n      dup10\n      add\n      swap7\n        /* \"#utility.yul\":5831:5882   */\n      swap5\n      pop\n      pop\n      pop\n        /* \"#utility.yul\":5905:5920   */\n      swap1\n      dup7\n      add\n      swap1\n        /* \"#utility.yul\":5256:5257   */\n      0x01\n        /* \"#utility.yul\":5249:5258   */\n      add\n        /* \"#utility.yul\":5220:5962   */\n      jump(tag_446)\n    tag_448:\n      pop\n        /* \"#utility.yul\":5979:5985   */\n      swap1\n      swap9\n        /* \"#utility.yul\":4851:5991   */\n      swap8\n      pop\n      pop\n      pop\n      pop\n      pop\n      pop\n      pop\n      pop\n      jump\t// out\n        /* \"#utility.yul\":6416:6636   */\n    tag_159:\n        /* \"#utility.yul\":6565:6567   */\n      0x20\n        /* \"#utility.yul\":6554:6563   */\n      dup2\n        /* \"#utility.yul\":6547:6568   */\n      mstore\n        /* \"#utility.yul\":6528:6532   */\n      0x00\n        /* \"#utility.yul\":6585:6630   */\n      tag_268\n        /* \"#utility.yul\":6626:6628   */\n      0x20\n        /* \"#utility.yul\":6615:6624   */\n      dup4\n        /* \"#utility.yul\":6611:6629   */\n      add\n        /* \"#utility.yul\":6603:6609   */\n      dup5\n        /* \"#utility.yul\":6585:6630   */\n      tag_436\n      jump\t// in\n        /* \"#utility.yul\":6641:7121   */\n    tag_274:\n        /* \"#utility.yul\":6866:6868   */\n      0x60\n        /* \"#utility.yul\":6855:6864   */\n      dup2\n        /* \"#utility.yul\":6848:6869   */\n      mstore\n        /* \"#utility.yul\":6829:6833   */\n      0x00\n        /* \"#utility.yul\":6892:6937   */\n      tag_456\n        /* \"#utility.yul\":6933:6935   */\n      0x60\n        /* \"#utility.yul\":6922:6931   */\n      dup4\n        /* \"#utility.yul\":6918:6936   */\n      add\n        /* \"#utility.yul\":6910:6916   */\n      dup7\n        /* \"#utility.yul\":6892:6937   */\n      tag_436\n      jump\t// in\n    tag_456:\n      sub(shl(0xa0, 0x01), 0x01)\n        /* \"#utility.yul\":6973:7005   */\n      dup6\n      and\n        /* \"#utility.yul\":6968:6970   */\n      0x20\n        /* \"#utility.yul\":6953:6971   */\n      dup5\n      add\n        /* \"#utility.yul\":6946:7006   */\n      mstore\n        /* \"#utility.yul\":7042:7064   */\n      dup3\n      dup2\n      sub\n        /* \"#utility.yul\":7037:7039   */\n      0x40\n        /* \"#utility.yul\":7022:7040   */\n      dup5\n      add\n        /* \"#utility.yul\":7015:7065   */\n      mstore\n        /* \"#utility.yul\":7082:7115   */\n      tag_457\n        /* \"#utility.yul\":7046:7052   */\n      dup2\n        /* \"#utility.yul\":7100:7106   */\n      dup6\n        /* \"#utility.yul\":7082:7115   */\n      tag_436\n      jump\t// in\n    tag_457:\n        /* \"#utility.yul\":7074:7115   */\n      swap7\n        /* \"#utility.yul\":6838:7121   */\n      swap6\n      pop\n      pop\n      pop\n      pop\n      pop\n      pop\n      jump\t// out\n        /* \"#utility.yul\":7126:7606   */\n    tag_50:\n        /* \"#utility.yul\":7351:7353   */\n      0x60\n        /* \"#utility.yul\":7340:7349   */\n      dup2\n        /* \"#utility.yul\":7333:7354   */\n      mstore\n        /* \"#utility.yul\":7314:7318   */\n      0x00\n        /* \"#utility.yul\":7377:7422   */\n      tag_459\n        /* \"#utility.yul\":7418:7420   */\n      0x60\n        /* \"#utility.yul\":7407:7416   */\n      dup4\n        /* \"#utility.yul\":7403:7421   */\n      add\n        /* \"#utility.yul\":7395:7401   */\n      dup7\n        /* \"#utility.yul\":7377:7422   */\n      tag_436\n      jump\t// in\n    tag_459:\n        /* \"#utility.yul\":7470:7479   */\n      dup3\n        /* \"#utility.yul\":7462:7468   */\n      dup2\n        /* \"#utility.yul\":7458:7480   */\n      sub\n        /* \"#utility.yul\":7453:7455   */\n      0x20\n        /* \"#utility.yul\":7442:7451   */\n      dup5\n        /* \"#utility.yul\":7438:7456   */\n      add\n        /* \"#utility.yul\":7431:7481   */\n      mstore\n        /* \"#utility.yul\":7498:7531   */\n      tag_460\n        /* \"#utility.yul\":7524:7530   */\n      dup2\n        /* \"#utility.yul\":7516:7522   */\n      dup7\n        /* \"#utility.yul\":7498:7531   */\n      tag_436\n      jump\t// in\n    tag_460:\n        /* \"#utility.yul\":7490:7531   */\n      swap2\n      pop\n      pop\n        /* \"#utility.yul\":7596:7597   */\n      0x01\n        /* \"#utility.yul\":7592:7593   */\n      dup1\n        /* \"#utility.yul\":7587:7590   */\n      0xa0\n        /* \"#utility.yul\":7583:7594   */\n      shl\n        /* \"#utility.yul\":7579:7598   */\n      sub\n        /* \"#utility.yul\":7571:7577   */\n      dup4\n        /* \"#utility.yul\":7567:7599   */\n      and\n        /* \"#utility.yul\":7562:7564   */\n      0x40\n        /* \"#utility.yul\":7551:7560   */\n      dup4\n        /* \"#utility.yul\":7547:7565   */\n      add\n        /* \"#utility.yul\":7540:7600   */\n      mstore\n        /* \"#utility.yul\":7323:7606   */\n      swap5\n      swap4\n      pop\n      pop\n      pop\n      pop\n      jump\t// out\n        /* \"#utility.yul\":9858:10207   */\n    tag_144:\n        /* \"#utility.yul\":10060:10062   */\n      0x20\n        /* \"#utility.yul\":10042:10063   */\n      dup1\n      dup3\n      mstore\n        /* \"#utility.yul\":10099:10101   */\n      0x19\n        /* \"#utility.yul\":10079:10097   */\n      swap1\n      dup3\n      add\n        /* \"#utility.yul\":10072:10102   */\n      mstore\n        /* \"#utility.yul\":10138:10165   */\n      0x5374696c6c20696e2074686520766f74696e6720706861736500000000000000\n        /* \"#utility.yul\":10133:10135   */\n      0x40\n        /* \"#utility.yul\":10118:10136   */\n      dup3\n      add\n        /* \"#utility.yul\":10111:10166   */\n      mstore\n        /* \"#utility.yul\":10198:10200   */\n      0x60\n        /* \"#utility.yul\":10183:10201   */\n      add\n      swap1\n        /* \"#utility.yul\":10032:10207   */\n      jump\t// out\n        /* \"#utility.yul\":11592:11997   */\n    tag_138:\n        /* \"#utility.yul\":11794:11796   */\n      0x20\n        /* \"#utility.yul\":11776:11797   */\n      dup1\n      dup3\n      mstore\n        /* \"#utility.yul\":11833:11835   */\n      0x29\n        /* \"#utility.yul\":11813:11831   */\n      swap1\n      dup3\n      add\n        /* \"#utility.yul\":11806:11836   */\n      mstore\n        /* \"#utility.yul\":11872:11906   */\n      0x7665546f6b656e204c657373207468616e2033302070657263656e74206f6620\n        /* \"#utility.yul\":11867:11869   */\n      0x40\n        /* \"#utility.yul\":11852:11870   */\n      dup3\n      add\n        /* \"#utility.yul\":11845:11907   */\n      mstore\n      shl(0xba, 0x1d1a19481d1bdd185b)\n        /* \"#utility.yul\":11938:11940   */\n      0x60\n        /* \"#utility.yul\":11923:11941   */\n      dup3\n      add\n        /* \"#utility.yul\":11916:11955   */\n      mstore\n        /* \"#utility.yul\":11987:11990   */\n      0x80\n        /* \"#utility.yul\":11972:11991   */\n      add\n      swap1\n        /* \"#utility.yul\":11766:11997   */\n      jump\t// out\n        /* \"#utility.yul\":13944:14072   */\n    tag_141:\n        /* \"#utility.yul\":13984:13987   */\n      0x00\n        /* \"#utility.yul\":14015:14016   */\n      dup3\n        /* \"#utility.yul\":14011:14017   */\n      not\n        /* \"#utility.yul\":14008:14009   */\n      dup3\n        /* \"#utility.yul\":14005:14018   */\n      gt\n        /* \"#utility.yul\":14002:14004   */\n      iszero\n      tag_481\n      jumpi\n        /* \"#utility.yul\":14021:14039   */\n      tag_481\n      tag_482\n      jump\t// in\n    tag_481:\n      pop\n        /* \"#utility.yul\":14057:14066   */\n      add\n      swap1\n        /* \"#utility.yul\":13992:14072   */\n      jump\t// out\n        /* \"#utility.yul\":14077:14294   */\n    tag_128:\n        /* \"#utility.yul\":14117:14118   */\n      0x00\n        /* \"#utility.yul\":14143:14144   */\n      dup3\n        /* \"#utility.yul\":14133:14135   */\n      tag_484\n      jumpi\n        /* \"#utility.yul\":14187:14197   */\n      0x4e487b71\n        /* \"#utility.yul\":14182:14185   */\n      0xe0\n        /* \"#utility.yul\":14178:14198   */\n      shl\n        /* \"#utility.yul\":14175:14176   */\n      0x00\n        /* \"#utility.yul\":14168:14199   */\n      mstore\n        /* \"#utility.yul\":14222:14226   */\n      0x12\n        /* \"#utility.yul\":14219:14220   */\n      0x04\n        /* \"#utility.yul\":14212:14227   */\n      mstore\n        /* \"#utility.yul\":14250:14254   */\n      0x24\n        /* \"#utility.yul\":14247:14248   */\n      0x00\n        /* \"#utility.yul\":14240:14255   */\n      revert\n        /* \"#utility.yul\":14133:14135   */\n    tag_484:\n      pop\n        /* \"#utility.yul\":14279:14288   */\n      div\n      swap1\n        /* \"#utility.yul\":14123:14294   */\n      jump\t// out\n        /* \"#utility.yul\":14299:14467   */\n    tag_130:\n        /* \"#utility.yul\":14339:14346   */\n      0x00\n        /* \"#utility.yul\":14405:14406   */\n      dup2\n        /* \"#utility.yul\":14401:14402   */\n      0x00\n        /* \"#utility.yul\":14397:14403   */\n      not\n        /* \"#utility.yul\":14393:14407   */\n      div\n        /* \"#utility.yul\":14390:14391   */\n      dup4\n        /* \"#utility.yul\":14387:14408   */\n      gt\n        /* \"#utility.yul\":14382:14383   */\n      dup3\n        /* \"#utility.yul\":14375:14384   */\n      iszero\n        /* \"#utility.yul\":14368:14385   */\n      iszero\n        /* \"#utility.yul\":14364:14409   */\n      and\n        /* \"#utility.yul\":14361:14363   */\n      iszero\n      tag_487\n      jumpi\n        /* \"#utility.yul\":14412:14430   */\n      tag_487\n      tag_482\n      jump\t// in\n    tag_487:\n      pop\n        /* \"#utility.yul\":14452:14461   */\n      mul\n      swap1\n        /* \"#utility.yul\":14351:14467   */\n      jump\t// out\n        /* \"#utility.yul\":14472:14730   */\n    tag_439:\n        /* \"#utility.yul\":14544:14545   */\n      0x00\n        /* \"#utility.yul\":14554:14667   */\n    tag_489:\n        /* \"#utility.yul\":14568:14574   */\n      dup4\n        /* \"#utility.yul\":14565:14566   */\n      dup2\n        /* \"#utility.yul\":14562:14575   */\n      lt\n        /* \"#utility.yul\":14554:14667   */\n      iszero\n      tag_491\n      jumpi\n        /* \"#utility.yul\":14644:14655   */\n      dup2\n      dup2\n      add\n        /* \"#utility.yul\":14638:14656   */\n      mload\n        /* \"#utility.yul\":14625:14636   */\n      dup4\n      dup3\n      add\n        /* \"#utility.yul\":14618:14657   */\n      mstore\n        /* \"#utility.yul\":14590:14592   */\n      0x20\n        /* \"#utility.yul\":14583:14593   */\n      add\n        /* \"#utility.yul\":14554:14667   */\n      jump(tag_489)\n    tag_491:\n        /* \"#utility.yul\":14685:14691   */\n      dup4\n        /* \"#utility.yul\":14682:14683   */\n      dup2\n        /* \"#utility.yul\":14679:14692   */\n      gt\n        /* \"#utility.yul\":14676:14678   */\n      iszero\n      tag_370\n      jumpi\n      pop\n      pop\n        /* \"#utility.yul\":14720:14721   */\n      0x00\n        /* \"#utility.yul\":14702:14718   */\n      swap2\n      add\n        /* \"#utility.yul\":14695:14722   */\n      mstore\n        /* \"#utility.yul\":14525:14730   */\n      jump\t// out\n        /* \"#utility.yul\":14735:15115   */\n    tag_104:\n        /* \"#utility.yul\":14814:14815   */\n      0x01\n        /* \"#utility.yul\":14810:14822   */\n      dup2\n      dup2\n      shr\n      swap1\n        /* \"#utility.yul\":14857:14869   */\n      dup3\n      and\n      dup1\n        /* \"#utility.yul\":14878:14880   */\n      tag_494\n      jumpi\n        /* \"#utility.yul\":14932:14936   */\n      0x7f\n        /* \"#utility.yul\":14924:14930   */\n      dup3\n        /* \"#utility.yul\":14920:14937   */\n      and\n        /* \"#utility.yul\":14910:14937   */\n      swap2\n      pop\n        /* \"#utility.yul\":14878:14880   */\n    tag_494:\n        /* \"#utility.yul\":14985:14987   */\n      0x20\n        /* \"#utility.yul\":14977:14983   */\n      dup3\n        /* \"#utility.yul\":14974:14988   */\n      lt\n        /* \"#utility.yul\":14954:14972   */\n      dup2\n        /* \"#utility.yul\":14951:14989   */\n      eq\n        /* \"#utility.yul\":14948:14950   */\n      iszero\n      tag_101\n      jumpi\n        /* \"#utility.yul\":15031:15041   */\n      0x4e487b71\n        /* \"#utility.yul\":15026:15029   */\n      0xe0\n        /* \"#utility.yul\":15022:15042   */\n      shl\n        /* \"#utility.yul\":15019:15020   */\n      0x00\n        /* \"#utility.yul\":15012:15043   */\n      mstore\n        /* \"#utility.yul\":15066:15070   */\n      0x22\n        /* \"#utility.yul\":15063:15064   */\n      0x04\n        /* \"#utility.yul\":15056:15071   */\n      mstore\n        /* \"#utility.yul\":15094:15098   */\n      0x24\n        /* \"#utility.yul\":15091:15092   */\n      0x00\n        /* \"#utility.yul\":15084:15099   */\n      revert\n        /* \"#utility.yul\":15120:15255   */\n    tag_118:\n        /* \"#utility.yul\":15159:15162   */\n      0x00\n      not(0x00)\n        /* \"#utility.yul\":15180:15197   */\n      dup3\n      eq\n        /* \"#utility.yul\":15177:15179   */\n      iszero\n      tag_498\n      jumpi\n        /* \"#utility.yul\":15200:15218   */\n      tag_498\n      tag_482\n      jump\t// in\n    tag_498:\n      pop\n        /* \"#utility.yul\":15247:15248   */\n      0x01\n        /* \"#utility.yul\":15236:15249   */\n      add\n      swap1\n        /* \"#utility.yul\":15167:15255   */\n      jump\t// out\n        /* \"#utility.yul\":15260:15387   */\n    tag_482:\n        /* \"#utility.yul\":15321:15331   */\n      0x4e487b71\n        /* \"#utility.yul\":15316:15319   */\n      0xe0\n        /* \"#utility.yul\":15312:15332   */\n      shl\n        /* \"#utility.yul\":15309:15310   */\n      0x00\n        /* \"#utility.yul\":15302:15333   */\n      mstore\n        /* \"#utility.yul\":15352:15356   */\n      0x11\n        /* \"#utility.yul\":15349:15350   */\n      0x04\n        /* \"#utility.yul\":15342:15357   */\n      mstore\n        /* \"#utility.yul\":15376:15380   */\n      0x24\n        /* \"#utility.yul\":15373:15374   */\n      0x00\n        /* \"#utility.yul\":15366:15381   */\n      revert\n        /* \"#utility.yul\":15392:15519   */\n    tag_147:\n        /* \"#utility.yul\":15453:15463   */\n      0x4e487b71\n        /* \"#utility.yul\":15448:15451   */\n      0xe0\n        /* \"#utility.yul\":15444:15464   */\n      shl\n        /* \"#utility.yul\":15441:15442   */\n      0x00\n        /* \"#utility.yul\":15434:15465   */\n      mstore\n        /* \"#utility.yul\":15484:15488   */\n      0x21\n        /* \"#utility.yul\":15481:15482   */\n      0x04\n        /* \"#utility.yul\":15474:15489   */\n      mstore\n        /* \"#utility.yul\":15508:15512   */\n      0x24\n        /* \"#utility.yul\":15505:15506   */\n      0x00\n        /* \"#utility.yul\":15498:15513   */\n      revert\n        /* \"#utility.yul\":15524:15651   */\n    tag_116:\n        /* \"#utility.yul\":15585:15595   */\n      0x4e487b71\n        /* \"#utility.yul\":15580:15583   */\n      0xe0\n        /* \"#utility.yul\":15576:15596   */\n      shl\n        /* \"#utility.yul\":15573:15574   */\n      0x00\n        /* \"#utility.yul\":15566:15597   */\n      mstore\n        /* \"#utility.yul\":15616:15620   */\n      0x32\n        /* \"#utility.yul\":15613:15614   */\n      0x04\n        /* \"#utility.yul\":15606:15621   */\n      mstore\n        /* \"#utility.yul\":15640:15644   */\n      0x24\n        /* \"#utility.yul\":15637:15638   */\n      0x00\n        /* \"#utility.yul\":15630:15645   */\n      revert\n        /* \"#utility.yul\":15656:15783   */\n    tag_95:\n        /* \"#utility.yul\":15717:15727   */\n      0x4e487b71\n        /* \"#utility.yul\":15712:15715   */\n      0xe0\n        /* \"#utility.yul\":15708:15728   */\n      shl\n        /* \"#utility.yul\":15705:15706   */\n      0x00\n        /* \"#utility.yul\":15698:15729   */\n      mstore\n        /* \"#utility.yul\":15748:15752   */\n      0x41\n        /* \"#utility.yul\":15745:15746   */\n      0x04\n        /* \"#utility.yul\":15738:15753   */\n      mstore\n        /* \"#utility.yul\":15772:15776   */\n      0x24\n        /* \"#utility.yul\":15769:15770   */\n      0x00\n        /* \"#utility.yul\":15762:15777   */\n      revert\n\n    auxdata: 0xa2646970667358221220ea9eb6ffffe70188b4f92ae4e16af7f6c50a1946208e1c8577763eea15af403164736f6c63430008050033\n}\n",
				"bytecode": {
					"linkReferences": {},
					"object": "6080604052603c600055603c60015534801561001a57600080fd5b5061223b8061002a6000396000f3fe608060405234801561001057600080fd5b506004361061010b5760003560e01c80638129fc1c116100a2578063e3a1c1c711610071578063e3a1c1c714610289578063f887ea401461029c578063f9d793d1146102af578063fc7881c6146102c2578063fe0d94c1146102d557600080fd5b80638129fc1c146101f257806382214856146101fa578063bcd60f6c1461020d578063d9ae5bd51461027657600080fd5b806371d68a97116100de57806371d68a97146101a957806374786f69146101be57806375bb5b09146101e057806375c112a1146101e957600080fd5b80632c9e3ef014610110578063321c48f2146101485780633b92eb231461015d5780635253855014610188575b600080fd5b61013361011e366004611e01565b60096020526000908152604090205460ff1681565b60405190151581526020015b60405180910390f35b6101506102e8565b60405161013f9190611f23565b600354610170906001600160a01b031681565b6040516001600160a01b03909116815260200161013f565b61019b610196366004611e01565b610513565b60405190815260200161013f565b6101bc6101b7366004611e94565b610534565b005b6101d16101cc366004611e01565b6107bc565b60405161013f9392919061201a565b61019b60045481565b61019b60065481565b6101bc610913565b6101bc610208366004611e5f565b610953565b61024e61021b366004611e01565b6000908152600760208190526040909120600681015491810154600e820154600f83015460029093015493949193909291565b604080519586526020860194909452928401919091526060830152608082015260a00161013f565b61019b610284366004611e01565b6110d4565b6101bc610297366004611d19565b611102565b600254610170906001600160a01b031681565b61019b6102bd366004611d8d565b6111b7565b6101bc6102d0366004611e33565b611418565b6101bc6102e3366004611e01565b61164f565b6060600060065467ffffffffffffffff811115610307576103076121ef565b60405190808252806020026020018201604052801561036c57816020015b6103596040518060800160405280600081526020016060815260200160006001600160a01b03168152602001606081525090565b8152602001906001900390816103255790505b50905060005b60065481101561050d5760086000828152602001908152602001600020604051806080016040529081600082015481526020016001820180546103b49061215d565b80601f01602080910402602001604051908101604052809291908181526020018280546103e09061215d565b801561042d5780601f106104025761010080835404028352916020019161042d565b820191906000526020600020905b81548152906001019060200180831161041057829003601f168201915b505050918352505060028201546001600160a01b0316602082015260038201805460409092019161045d9061215d565b80601f01602080910402602001604051908101604052809291908181526020018280546104899061215d565b80156104d65780601f106104ab576101008083540402835291602001916104d6565b820191906000526020600020905b8154815290600101906020018083116104b957829003601f168201915b5050505050815250508282815181106104f1576104f16121d9565b60200260200101819052508061050690612192565b9050610372565b50919050565b6005818154811061052357600080fd5b600091825260209091200154905081565b60006103e8600360009054906101000a90046001600160a01b03166001600160a01b03166318160ddd6040518163ffffffff1660e01b815260040160206040518083038186803b15801561058757600080fd5b505afa15801561059b573d6000803e3d6000fd5b505050506040513d601f19601f820116820180604052508101906105bf9190611e1a565b6105c991906120f0565b6105d4906032612112565b6003546040516370a0823160e01b815233600482015291925082916001600160a01b03909116906370a082319060240160206040518083038186803b15801561061c57600080fd5b505afa158015610630573d6000803e3d6000fd5b505050506040513d601f19601f820116820180604052508101906106549190611e1a565b101561067b5760405162461bcd60e51b81526004016106729061208f565b60405180910390fd5b6000838152600760205260409020600281015442108015906106ad575060015481600201546106aa91906120d8565b42105b6106c95760405162461bcd60e51b815260040161067290612058565b6001600882015460ff1660068111156106e4576106e46121c3565b146107315760405162461bcd60e51b815260206004820152601760248201527f4e6f742061742074686520766f74696e672073746167650000000000000000006044820152606401610672565b60088101805460ff19166005179055825161075590600d8301906020860190611bd7565b50600c810180546001600160a01b0319163317905560015461077790426120d8565b600282015560405184907f4a3e39232ea797464bb08b1cb8267cfc05e026d0eae637ff17b0548af520369a906107ae908690611fc9565b60405180910390a250505050565b600081815260076020526040812060048101546003820180546060948594909390929160058401916001600160a01b03169083906107f99061215d565b80601f01602080910402602001604051908101604052809291908181526020018280546108259061215d565b80156108725780601f1061084757610100808354040283529160200191610872565b820191906000526020600020905b81548152906001019060200180831161085557829003601f168201915b505050505092508180546108859061215d565b80601f01602080910402602001604051908101604052809291908181526020018280546108b19061215d565b80156108fe5780601f106108d3576101008083540402835291602001916108fe565b820191906000526020600020905b8154815290600101906020018083116108e157829003601f168201915b50505050509150935093509350509193909250565b600280546001600160a01b031916339081179091556040517f0e39d7cd8517be5d0ded9db90850ac775470f23ea44ec3aaaad22ee8b1f8fc5990600090a2565b600082815260076020526040812081600882015460ff16600681111561097b5761097b6121c3565b14156109ba5760405162461bcd60e51b815260206004820152600e60248201526d159bdd195259081a5cc81b9d5b1b60921b6044820152606401610672565b6001600882015460ff1660068111156109d5576109d56121c3565b1415610d9457336000908152600b8201602052604090205460ff1615610a2b5760405162461bcd60e51b815260206004820152600b60248201526a566f7465206265666f726560a81b6044820152606401610672565b6003546040516370a0823160e01b81523360048201526001916001600160a01b0316906370a082319060240160206040518083038186803b158015610a6f57600080fd5b505afa158015610a83573d6000803e3d6000fd5b505050506040513d601f19601f82011682018060405250810190610aa79190611e1a565b1015610aec5760405162461bcd60e51b815260206004820152601460248201527303b32aa37b5b2b7103632b9b9903a3430b71018960651b6044820152606401610672565b8060020154421115610b405760405162461bcd60e51b815260206004820152601c60248201527f4e6f742077697468696e2074686520616c6c6f747465642074696d65000000006044820152606401610672565b336000908152600b820160205260409020805460ff191660011790558215610d0657336000908152600b8201602052604090206001015415610c6d5760005b336000908152600b83016020526040902060010154811015610c6b57336000908152600b830160205260408120600101805483908110610bc157610bc16121d9565b6000918252602090912001546003546040516370a0823160e01b81526001600160a01b039283166004820181905293509116906370a082319060240160206040518083038186803b158015610c1557600080fd5b505afa158015610c29573d6000803e3d6000fd5b505050506040513d601f19601f82011682018060405250810190610c4d9190611e1a565b610c5790856120d8565b93505080610c6490612192565b9050610b7f565b505b6003546040516370a0823160e01b81523360048201526001600160a01b03909116906370a082319060240160206040518083038186803b158015610cb057600080fd5b505afa158015610cc4573d6000803e3d6000fd5b505050506040513d601f19601f82011682018060405250810190610ce89190611e1a565b816006016000828254610cfb91906120d8565b909155506110a09050565b6003546040516370a0823160e01b81523360048201526001600160a01b03909116906370a082319060240160206040518083038186803b158015610d4957600080fd5b505afa158015610d5d573d6000803e3d6000fd5b505050506040513d601f19601f82011682018060405250810190610d819190611e1a565b816007016000828254610cfb91906120d8565b6005600882015460ff166006811115610daf57610daf6121c3565b141561100b5733600090815260108201602052604090205460ff1615610e055760405162461bcd60e51b815260206004820152600b60248201526a566f7465206265666f726560a81b6044820152606401610672565b80600201544210610e585760405162461bcd60e51b815260206004820152601c60248201527f4e6f742077697468696e2074686520616c6c6f747465642074696d65000000006044820152606401610672565b3360009081526010820160209081526040808320805460ff19166001908117909155600b8501909252909120015415610f7c5760005b336000908152600b83016020526040902060010154811015610f7a57336000908152600b830160205260408120600101805483908110610ed057610ed06121d9565b6000918252602090912001546003546040516370a0823160e01b81526001600160a01b039283166004820181905293509116906370a082319060240160206040518083038186803b158015610f2457600080fd5b505afa158015610f38573d6000803e3d6000fd5b505050506040513d601f19601f82011682018060405250810190610f5c9190611e1a565b610f6690856120d8565b93505080610f7390612192565b9050610e8e565b505b6003546040516370a0823160e01b81523360048201526001600160a01b03909116906370a082319060240160206040518083038186803b158015610fbf57600080fd5b505afa158015610fd3573d6000803e3d6000fd5b505050506040513d601f19601f82011682018060405250810190610ff79190611e1a565b600e82018054600090610cfb9084906120d8565b6003546040516370a0823160e01b81523360048201526001600160a01b03909116906370a082319060240160206040518083038186803b15801561104e57600080fd5b505afa158015611062573d6000803e3d6000fd5b505050506040513d601f19601f820116820180604052508101906110869190611e1a565b600f8201805460009061109a9084906120d8565b90915550505b837f72869afc3552df414602b428f5e96b4eb3fab540271192c4f31eb3adaf5faf1e846040516107ae911515815260200190565b6000818152600760205260408120600881015460ff1660068111156110fb576110fb6121c3565b9392505050565b60065460008181526008602090815260409091209182556002820180546001600160a01b0319166001600160a01b038616179055825161114a91600384019190850190611bd7565b5083516111609060018301906020870190611bd7565b506006805490600061117183612192565b91905055507f291fb4c9ec38b653e778aad63d42ce4710da5b91c49a033ba04963dd409300eb8484846040516111a993929190611fdc565b60405180910390a150505050565b6000806103e8600360009054906101000a90046001600160a01b03166001600160a01b03166318160ddd6040518163ffffffff1660e01b815260040160206040518083038186803b15801561120b57600080fd5b505afa15801561121f573d6000803e3d6000fd5b505050506040513d601f19601f820116820180604052508101906112439190611e1a565b61124d91906120f0565b611258906032612112565b6003546040516370a0823160e01b815233600482015291925082916001600160a01b03909116906370a082319060240160206040518083038186803b1580156112a057600080fd5b505afa1580156112b4573d6000803e3d6000fd5b505050506040513d601f19601f820116820180604052508101906112d89190611e1a565b10156112f65760405162461bcd60e51b81526004016106729061208f565b6004805490600061130683612192565b90915550506004546000908152600760209081526040909120828155875190916113379160038401918a0190611bd7565b50600454600182015560005461134d90426120d8565b60028201556004810180546001600160a01b03191633179055855161137b9060058301906020890190611bd7565b5060088101805460ff1916600117905560098101859055600a81018490556040516113a7908790611f07565b6040518091039020876040516113bd9190611f07565b60405180910390206004547f2042799f2e1d3fcfc7c7e9dd101b3430c99aa621240ea8fdeac79ad1c973888e8888604051611402929190918252602082015260400190565b60405180910390a4505060045495945050505050565b6000828152600760209081526040808320338452600b81019092529091205460ff16156114745760405162461bcd60e51b815260206004820152600a60248201526912185d99481d9bdd195960b21b6044820152606401610672565b6001600160a01b0382163314156114cd5760405162461bcd60e51b815260206004820152601a60248201527f63616e27742064656c656761746520746f20796f757273656c660000000000006044820152606401610672565b6003546040516370a0823160e01b81523360048201526000916001600160a01b0316906370a082319060240160206040518083038186803b15801561151157600080fd5b505afa158015611525573d6000803e3d6000fd5b505050506040513d601f19601f820116820180604052508101906115499190611e1a565b1161158b5760405162461bcd60e51b815260206004820152601260248201527102a3432b9329034b9903737903a37b5b2b7160751b6044820152606401610672565b6001600160a01b0382166000818152600b830160209081526040808320600190810180548083018255908552838520018054336001600160a01b03199182168117909255818652838620805460ff199081168517909155878752601089018652848720840180548086018255908852868820018054909216831790915590855293829020805490941617909255905191825284917fa9860e62eb02a47e1d5d5253a79d90bc96cd33c299d874f5b7710d0a61b63ccc910160405180910390a2505050565b600081815260076020908152604080832060099092529091205460ff16156116b05760405162461bcd60e51b81526020600482015260146024820152733932b832ba34ba34bb329032bc32b1baba34b7b760611b6044820152606401610672565b6000600882015460ff1660068111156116cb576116cb6121c3565b141561170a5760405162461bcd60e51b815260206004820152600e60248201526d159bdd195259081a5cc81b9d5b1b60921b6044820152606401610672565b6001600882015460ff166006811115611725576117256121c3565b141561187a578060020154421161174e5760405162461bcd60e51b815260040161067290612058565b805461175d906103e8906120f0565b6117699061012c612112565b8160060154826007015461177d91906120d8565b10156117cb5760405162461bcd60e51b815260206004820152601d60248201527f766f746573206973206c657373207468616e2033302070657263656e740000006044820152606401610672565b603c816006015482600701546117e191906120d8565b82600601546117f091906120f0565b6117fb906064612112565b10156118535760405162461bcd60e51b815260206004820152602160248201527f4c657373207468616e20363025206f662074686520766f7465732070617373656044820152601960fa1b6064820152608401610672565b61186682826009015483600a0154611984565b60088101805460ff19166002179055611955565b6005600882015460ff166006811115611895576118956121c3565b14156119555780600201544210156118bf5760405162461bcd60e51b815260040161067290612058565b6006810154600e82015410156119325760405162461bcd60e51b815260206004820152603260248201527f54686520766f746520706173736564207769746820666577657220766f746573604482015271081d1a185b881d1a19481bdc9a59da5b985b60721b6064820152608401610672565b61194582826009015483600a0154611984565b60088101805460ff191660021790555b60405182907fa6b4889fbc6222293f94ac3c68c40fa4c027b86b0dfe4f820475c7d8828a243690600090a25050565b6005805460018181019092557f036b6384b5eca791c62761152d0c79bb0604c104a5fb6f4eb0703f3154bb3db0018490556000848152600960209081526040808320805460ff19169094179093558482526008905220600201546001600160a01b031680611a345760405162461bcd60e51b815260206004820152601b60248201527f476f7665726e616e63652054656d706c617465206973206e756c6c00000000006044820152606401610672565b611a3e8383611a44565b50505050565b60008281526008602052604081206002810154600390910180546001600160a01b039092169291611a749061215d565b80601f0160208091040260200160405190810160405280929190818152602001828054611aa09061215d565b8015611aed5780601f10611ac257610100808354040283529160200191611aed565b820191906000526020600020905b815481529060010190602001808311611ad057829003601f168201915b50505050509050600080836001600160a01b03168386604051602401611b1591815260200190565b60408051601f198184030181529082905291611b3091611f07565b60408051918290039091206020830180516001600160e01b03166001600160e01b031990921691909117905251611b679190611f07565b6000604051808303816000865af19150503d8060008114611ba4576040519150601f19603f3d011682016040523d82523d6000602084013e611ba9565b606091505b5091509150818190611bce5760405162461bcd60e51b81526004016106729190611fc9565b50505050505050565b828054611be39061215d565b90600052602060002090601f016020900481019282611c055760008555611c4b565b82601f10611c1e57805160ff1916838001178555611c4b565b82800160010185558215611c4b579182015b82811115611c4b578251825591602001919060010190611c30565b50611c57929150611c5b565b5090565b5b80821115611c575760008155600101611c5c565b80356001600160a01b0381168114611c8757600080fd5b919050565b600082601f830112611c9d57600080fd5b813567ffffffffffffffff80821115611cb857611cb86121ef565b604051601f8301601f19908116603f01168101908282118183101715611ce057611ce06121ef565b81604052838152866020858801011115611cf957600080fd5b836020870160208301376000602085830101528094505050505092915050565b600080600060608486031215611d2e57600080fd5b833567ffffffffffffffff80821115611d4657600080fd5b611d5287838801611c8c565b9450611d6060208701611c70565b93506040860135915080821115611d7657600080fd5b50611d8386828701611c8c565b9150509250925092565b60008060008060808587031215611da357600080fd5b843567ffffffffffffffff80821115611dbb57600080fd5b611dc788838901611c8c565b95506020870135915080821115611ddd57600080fd5b50611dea87828801611c8c565b949794965050505060408301359260600135919050565b600060208284031215611e1357600080fd5b5035919050565b600060208284031215611e2c57600080fd5b5051919050565b60008060408385031215611e4657600080fd5b82359150611e5660208401611c70565b90509250929050565b60008060408385031215611e7257600080fd5b8235915060208301358015158114611e8957600080fd5b809150509250929050565b60008060408385031215611ea757600080fd5b82359150602083013567ffffffffffffffff811115611ec557600080fd5b611ed185828601611c8c565b9150509250929050565b60008151808452611ef3816020860160208601612131565b601f01601f19169290920160200192915050565b60008251611f19818460208701612131565b9190910192915050565b60006020808301818452808551808352604092508286019150828160051b87010184880160005b83811015611fbb57603f19898403018552815160808151855288820151818a870152611f7882870182611edb565b838a01516001600160a01b0316878b0152606093840151878203948801949094529150611fa790508183611edb565b968901969450505090860190600101611f4a565b509098975050505050505050565b6020815260006110fb6020830184611edb565b606081526000611fef6060830186611edb565b6001600160a01b038516602084015282810360408401526120108185611edb565b9695505050505050565b60608152600061202d6060830186611edb565b828103602084015261203f8186611edb565b91505060018060a01b0383166040830152949350505050565b60208082526019908201527f5374696c6c20696e2074686520766f74696e6720706861736500000000000000604082015260600190565b60208082526029908201527f7665546f6b656e204c657373207468616e2033302070657263656e74206f66206040820152681d1a19481d1bdd185b60ba1b606082015260800190565b600082198211156120eb576120eb6121ad565b500190565b60008261210d57634e487b7160e01b600052601260045260246000fd5b500490565b600081600019048311821515161561212c5761212c6121ad565b500290565b60005b8381101561214c578181015183820152602001612134565b83811115611a3e5750506000910152565b600181811c9082168061217157607f821691505b6020821081141561050d57634e487b7160e01b600052602260045260246000fd5b60006000198214156121a6576121a66121ad565b5060010190565b634e487b7160e01b600052601160045260246000fd5b634e487b7160e01b600052602160045260246000fd5b634e487b7160e01b600052603260045260246000fd5b634e487b7160e01b600052604160045260246000fdfea2646970667358221220ea9eb6ffffe70188b4f92ae4e16af7f6c50a1946208e1c8577763eea15af403164736f6c63430008050033",
					"opcodes": "PUSH1 0x80 PUSH1 0x40 MSTORE PUSH1 0x3C PUSH1 0x0 SSTORE PUSH1 0x3C PUSH1 0x1 SSTORE CALLVALUE DUP1 ISZERO PUSH2 0x1A JUMPI PUSH1 0x0 DUP1 REVERT JUMPDEST POP PUSH2 0x223B DUP1 PUSH2 0x2A PUSH1 0x0 CODECOPY PUSH1 0x0 RETURN INVALID PUSH1 0x80 PUSH1 0x40 MSTORE CALLVALUE DUP1 ISZERO PUSH2 0x10 JUMPI PUSH1 0x0 DUP1 REVERT JUMPDEST POP PUSH1 0x4 CALLDATASIZE LT PUSH2 0x10B JUMPI PUSH1 0x0 CALLDATALOAD PUSH1 0xE0 SHR DUP1 PUSH4 0x8129FC1C GT PUSH2 0xA2 JUMPI DUP1 PUSH4 0xE3A1C1C7 GT PUSH2 0x71 JUMPI DUP1 PUSH4 0xE3A1C1C7 EQ PUSH2 0x289 JUMPI DUP1 PUSH4 0xF887EA40 EQ PUSH2 0x29C JUMPI DUP1 PUSH4 0xF9D793D1 EQ PUSH2 0x2AF JUMPI DUP1 PUSH4 0xFC7881C6 EQ PUSH2 0x2C2 JUMPI DUP1 PUSH4 0xFE0D94C1 EQ PUSH2 0x2D5 JUMPI PUSH1 0x0 DUP1 REVERT JUMPDEST DUP1 PUSH4 0x8129FC1C EQ PUSH2 0x1F2 JUMPI DUP1 PUSH4 0x82214856 EQ PUSH2 0x1FA JUMPI DUP1 PUSH4 0xBCD60F6C EQ PUSH2 0x20D JUMPI DUP1 PUSH4 0xD9AE5BD5 EQ PUSH2 0x276 JUMPI PUSH1 0x0 DUP1 REVERT JUMPDEST DUP1 PUSH4 0x71D68A97 GT PUSH2 0xDE JUMPI DUP1 PUSH4 0x71D68A97 EQ PUSH2 0x1A9 JUMPI DUP1 PUSH4 0x74786F69 EQ PUSH2 0x1BE JUMPI DUP1 PUSH4 0x75BB5B09 EQ PUSH2 0x1E0 JUMPI DUP1 PUSH4 0x75C112A1 EQ PUSH2 0x1E9 JUMPI PUSH1 0x0 DUP1 REVERT JUMPDEST DUP1 PUSH4 0x2C9E3EF0 EQ PUSH2 0x110 JUMPI DUP1 PUSH4 0x321C48F2 EQ PUSH2 0x148 JUMPI DUP1 PUSH4 0x3B92EB23 EQ PUSH2 0x15D JUMPI DUP1 PUSH4 0x52538550 EQ PUSH2 0x188 JUMPI JUMPDEST PUSH1 0x0 DUP1 REVERT JUMPDEST PUSH2 0x133 PUSH2 0x11E CALLDATASIZE PUSH1 0x4 PUSH2 0x1E01 JUMP JUMPDEST PUSH1 0x9 PUSH1 0x20 MSTORE PUSH1 0x0 SWAP1 DUP2 MSTORE PUSH1 0x40 SWAP1 KECCAK256 SLOAD PUSH1 0xFF AND DUP2 JUMP JUMPDEST PUSH1 0x40 MLOAD SWAP1 ISZERO ISZERO DUP2 MSTORE PUSH1 0x20 ADD JUMPDEST PUSH1 0x40 MLOAD DUP1 SWAP2 SUB SWAP1 RETURN JUMPDEST PUSH2 0x150 PUSH2 0x2E8 JUMP JUMPDEST PUSH1 0x40 MLOAD PUSH2 0x13F SWAP2 SWAP1 PUSH2 0x1F23 JUMP JUMPDEST PUSH1 0x3 SLOAD PUSH2 0x170 SWAP1 PUSH1 0x1 PUSH1 0x1 PUSH1 0xA0 SHL SUB AND DUP2 JUMP JUMPDEST PUSH1 0x40 MLOAD PUSH1 0x1 PUSH1 0x1 PUSH1 0xA0 SHL SUB SWAP1 SWAP2 AND DUP2 MSTORE PUSH1 0x20 ADD PUSH2 0x13F JUMP JUMPDEST PUSH2 0x19B PUSH2 0x196 CALLDATASIZE PUSH1 0x4 PUSH2 0x1E01 JUMP JUMPDEST PUSH2 0x513 JUMP JUMPDEST PUSH1 0x40 MLOAD SWAP1 DUP2 MSTORE PUSH1 0x20 ADD PUSH2 0x13F JUMP JUMPDEST PUSH2 0x1BC PUSH2 0x1B7 CALLDATASIZE PUSH1 0x4 PUSH2 0x1E94 JUMP JUMPDEST PUSH2 0x534 JUMP JUMPDEST STOP JUMPDEST PUSH2 0x1D1 PUSH2 0x1CC CALLDATASIZE PUSH1 0x4 PUSH2 0x1E01 JUMP JUMPDEST PUSH2 0x7BC JUMP JUMPDEST PUSH1 0x40 MLOAD PUSH2 0x13F SWAP4 SWAP3 SWAP2 SWAP1 PUSH2 0x201A JUMP JUMPDEST PUSH2 0x19B PUSH1 0x4 SLOAD DUP2 JUMP JUMPDEST PUSH2 0x19B PUSH1 0x6 SLOAD DUP2 JUMP JUMPDEST PUSH2 0x1BC PUSH2 0x913 JUMP JUMPDEST PUSH2 0x1BC PUSH2 0x208 CALLDATASIZE PUSH1 0x4 PUSH2 0x1E5F JUMP JUMPDEST PUSH2 0x953 JUMP JUMPDEST PUSH2 0x24E PUSH2 0x21B CALLDATASIZE PUSH1 0x4 PUSH2 0x1E01 JUMP JUMPDEST PUSH1 0x0 SWAP1 DUP2 MSTORE PUSH1 0x7 PUSH1 0x20 DUP2 SWAP1 MSTORE PUSH1 0x40 SWAP1 SWAP2 KECCAK256 PUSH1 0x6 DUP2 ADD SLOAD SWAP2 DUP2 ADD SLOAD PUSH1 0xE DUP3 ADD SLOAD PUSH1 0xF DUP4 ADD SLOAD PUSH1 0x2 SWAP1 SWAP4 ADD SLOAD SWAP4 SWAP5 SWAP2 SWAP4 SWAP1 SWAP3 SWAP2 JUMP JUMPDEST PUSH1 0x40 DUP1 MLOAD SWAP6 DUP7 MSTORE PUSH1 0x20 DUP7 ADD SWAP5 SWAP1 SWAP5 MSTORE SWAP3 DUP5 ADD SWAP2 SWAP1 SWAP2 MSTORE PUSH1 0x60 DUP4 ADD MSTORE PUSH1 0x80 DUP3 ADD MSTORE PUSH1 0xA0 ADD PUSH2 0x13F JUMP JUMPDEST PUSH2 0x19B PUSH2 0x284 CALLDATASIZE PUSH1 0x4 PUSH2 0x1E01 JUMP JUMPDEST PUSH2 0x10D4 JUMP JUMPDEST PUSH2 0x1BC PUSH2 0x297 CALLDATASIZE PUSH1 0x4 PUSH2 0x1D19 JUMP JUMPDEST PUSH2 0x1102 JUMP JUMPDEST PUSH1 0x2 SLOAD PUSH2 0x170 SWAP1 PUSH1 0x1 PUSH1 0x1 PUSH1 0xA0 SHL SUB AND DUP2 JUMP JUMPDEST PUSH2 0x19B PUSH2 0x2BD CALLDATASIZE PUSH1 0x4 PUSH2 0x1D8D JUMP JUMPDEST PUSH2 0x11B7 JUMP JUMPDEST PUSH2 0x1BC PUSH2 0x2D0 CALLDATASIZE PUSH1 0x4 PUSH2 0x1E33 JUMP JUMPDEST PUSH2 0x1418 JUMP JUMPDEST PUSH2 0x1BC PUSH2 0x2E3 CALLDATASIZE PUSH1 0x4 PUSH2 0x1E01 JUMP JUMPDEST PUSH2 0x164F JUMP JUMPDEST PUSH1 0x60 PUSH1 0x0 PUSH1 0x6 SLOAD PUSH8 0xFFFFFFFFFFFFFFFF DUP2 GT ISZERO PUSH2 0x307 JUMPI PUSH2 0x307 PUSH2 0x21EF JUMP JUMPDEST PUSH1 0x40 MLOAD SWAP1 DUP1 DUP3 MSTORE DUP1 PUSH1 0x20 MUL PUSH1 0x20 ADD DUP3 ADD PUSH1 0x40 MSTORE DUP1 ISZERO PUSH2 0x36C JUMPI DUP2 PUSH1 0x20 ADD JUMPDEST PUSH2 0x359 PUSH1 0x40 MLOAD DUP1 PUSH1 0x80 ADD PUSH1 0x40 MSTORE DUP1 PUSH1 0x0 DUP2 MSTORE PUSH1 0x20 ADD PUSH1 0x60 DUP2 MSTORE PUSH1 0x20 ADD PUSH1 0x0 PUSH1 0x1 PUSH1 0x1 PUSH1 0xA0 SHL SUB AND DUP2 MSTORE PUSH1 0x20 ADD PUSH1 0x60 DUP2 MSTORE POP SWAP1 JUMP JUMPDEST DUP2 MSTORE PUSH1 0x20 ADD SWAP1 PUSH1 0x1 SWAP1 SUB SWAP1 DUP2 PUSH2 0x325 JUMPI SWAP1 POP JUMPDEST POP SWAP1 POP PUSH1 0x0 JUMPDEST PUSH1 0x6 SLOAD DUP2 LT ISZERO PUSH2 0x50D JUMPI PUSH1 0x8 PUSH1 0x0 DUP3 DUP2 MSTORE PUSH1 0x20 ADD SWAP1 DUP2 MSTORE PUSH1 0x20 ADD PUSH1 0x0 KECCAK256 PUSH1 0x40 MLOAD DUP1 PUSH1 0x80 ADD PUSH1 0x40 MSTORE SWAP1 DUP2 PUSH1 0x0 DUP3 ADD SLOAD DUP2 MSTORE PUSH1 0x20 ADD PUSH1 0x1 DUP3 ADD DUP1 SLOAD PUSH2 0x3B4 SWAP1 PUSH2 0x215D JUMP JUMPDEST DUP1 PUSH1 0x1F ADD PUSH1 0x20 DUP1 SWAP2 DIV MUL PUSH1 0x20 ADD PUSH1 0x40 MLOAD SWAP1 DUP2 ADD PUSH1 0x40 MSTORE DUP1 SWAP3 SWAP2 SWAP1 DUP2 DUP2 MSTORE PUSH1 0x20 ADD DUP3 DUP1 SLOAD PUSH2 0x3E0 SWAP1 PUSH2 0x215D JUMP JUMPDEST DUP1 ISZERO PUSH2 0x42D JUMPI DUP1 PUSH1 0x1F LT PUSH2 0x402 JUMPI PUSH2 0x100 DUP1 DUP4 SLOAD DIV MUL DUP4 MSTORE SWAP2 PUSH1 0x20 ADD SWAP2 PUSH2 0x42D JUMP JUMPDEST DUP3 ADD SWAP2 SWAP1 PUSH1 0x0 MSTORE PUSH1 0x20 PUSH1 0x0 KECCAK256 SWAP1 JUMPDEST DUP2 SLOAD DUP2 MSTORE SWAP1 PUSH1 0x1 ADD SWAP1 PUSH1 0x20 ADD DUP1 DUP4 GT PUSH2 0x410 JUMPI DUP3 SWAP1 SUB PUSH1 0x1F AND DUP3 ADD SWAP2 JUMPDEST POP POP POP SWAP2 DUP4 MSTORE POP POP PUSH1 0x2 DUP3 ADD SLOAD PUSH1 0x1 PUSH1 0x1 PUSH1 0xA0 SHL SUB AND PUSH1 0x20 DUP3 ADD MSTORE PUSH1 0x3 DUP3 ADD DUP1 SLOAD PUSH1 0x40 SWAP1 SWAP3 ADD SWAP2 PUSH2 0x45D SWAP1 PUSH2 0x215D JUMP JUMPDEST DUP1 PUSH1 0x1F ADD PUSH1 0x20 DUP1 SWAP2 DIV MUL PUSH1 0x20 ADD PUSH1 0x40 MLOAD SWAP1 DUP2 ADD PUSH1 0x40 MSTORE DUP1 SWAP3 SWAP2 SWAP1 DUP2 DUP2 MSTORE PUSH1 0x20 ADD DUP3 DUP1 SLOAD PUSH2 0x489 SWAP1 PUSH2 0x215D JUMP JUMPDEST DUP1 ISZERO PUSH2 0x4D6 JUMPI DUP1 PUSH1 0x1F LT PUSH2 0x4AB JUMPI PUSH2 0x100 DUP1 DUP4 SLOAD DIV MUL DUP4 MSTORE SWAP2 PUSH1 0x20 ADD SWAP2 PUSH2 0x4D6 JUMP JUMPDEST DUP3 ADD SWAP2 SWAP1 PUSH1 0x0 MSTORE PUSH1 0x20 PUSH1 0x0 KECCAK256 SWAP1 JUMPDEST DUP2 SLOAD DUP2 MSTORE SWAP1 PUSH1 0x1 ADD SWAP1 PUSH1 0x20 ADD DUP1 DUP4 GT PUSH2 0x4B9 JUMPI DUP3 SWAP1 SUB PUSH1 0x1F AND DUP3 ADD SWAP2 JUMPDEST POP POP POP POP POP DUP2 MSTORE POP POP DUP3 DUP3 DUP2 MLOAD DUP2 LT PUSH2 0x4F1 JUMPI PUSH2 0x4F1 PUSH2 0x21D9 JUMP JUMPDEST PUSH1 0x20 MUL PUSH1 0x20 ADD ADD DUP2 SWAP1 MSTORE POP DUP1 PUSH2 0x506 SWAP1 PUSH2 0x2192 JUMP JUMPDEST SWAP1 POP PUSH2 0x372 JUMP JUMPDEST POP SWAP2 SWAP1 POP JUMP JUMPDEST PUSH1 0x5 DUP2 DUP2 SLOAD DUP2 LT PUSH2 0x523 JUMPI PUSH1 0x0 DUP1 REVERT JUMPDEST PUSH1 0x0 SWAP2 DUP3 MSTORE PUSH1 0x20 SWAP1 SWAP2 KECCAK256 ADD SLOAD SWAP1 POP DUP2 JUMP JUMPDEST PUSH1 0x0 PUSH2 0x3E8 PUSH1 0x3 PUSH1 0x0 SWAP1 SLOAD SWAP1 PUSH2 0x100 EXP SWAP1 DIV PUSH1 0x1 PUSH1 0x1 PUSH1 0xA0 SHL SUB AND PUSH1 0x1 PUSH1 0x1 PUSH1 0xA0 SHL SUB AND PUSH4 0x18160DDD PUSH1 0x40 MLOAD DUP2 PUSH4 0xFFFFFFFF AND PUSH1 0xE0 SHL DUP2 MSTORE PUSH1 0x4 ADD PUSH1 0x20 PUSH1 0x40 MLOAD DUP1 DUP4 SUB DUP2 DUP7 DUP1 EXTCODESIZE ISZERO DUP1 ISZERO PUSH2 0x587 JUMPI PUSH1 0x0 DUP1 REVERT JUMPDEST POP GAS STATICCALL ISZERO DUP1 ISZERO PUSH2 0x59B JUMPI RETURNDATASIZE PUSH1 0x0 DUP1 RETURNDATACOPY RETURNDATASIZE PUSH1 0x0 REVERT JUMPDEST POP POP POP POP PUSH1 0x40 MLOAD RETURNDATASIZE PUSH1 0x1F NOT PUSH1 0x1F DUP3 ADD AND DUP3 ADD DUP1 PUSH1 0x40 MSTORE POP DUP2 ADD SWAP1 PUSH2 0x5BF SWAP2 SWAP1 PUSH2 0x1E1A JUMP JUMPDEST PUSH2 0x5C9 SWAP2 SWAP1 PUSH2 0x20F0 JUMP JUMPDEST PUSH2 0x5D4 SWAP1 PUSH1 0x32 PUSH2 0x2112 JUMP JUMPDEST PUSH1 0x3 SLOAD PUSH1 0x40 MLOAD PUSH4 0x70A08231 PUSH1 0xE0 SHL DUP2 MSTORE CALLER PUSH1 0x4 DUP3 ADD MSTORE SWAP2 SWAP3 POP DUP3 SWAP2 PUSH1 0x1 PUSH1 0x1 PUSH1 0xA0 SHL SUB SWAP1 SWAP2 AND SWAP1 PUSH4 0x70A08231 SWAP1 PUSH1 0x24 ADD PUSH1 0x20 PUSH1 0x40 MLOAD DUP1 DUP4 SUB DUP2 DUP7 DUP1 EXTCODESIZE ISZERO DUP1 ISZERO PUSH2 0x61C JUMPI PUSH1 0x0 DUP1 REVERT JUMPDEST POP GAS STATICCALL ISZERO DUP1 ISZERO PUSH2 0x630 JUMPI RETURNDATASIZE PUSH1 0x0 DUP1 RETURNDATACOPY RETURNDATASIZE PUSH1 0x0 REVERT JUMPDEST POP POP POP POP PUSH1 0x40 MLOAD RETURNDATASIZE PUSH1 0x1F NOT PUSH1 0x1F DUP3 ADD AND DUP3 ADD DUP1 PUSH1 0x40 MSTORE POP DUP2 ADD SWAP1 PUSH2 0x654 SWAP2 SWAP1 PUSH2 0x1E1A JUMP JUMPDEST LT ISZERO PUSH2 0x67B JUMPI PUSH1 0x40 MLOAD PUSH3 0x461BCD PUSH1 0xE5 SHL DUP2 MSTORE PUSH1 0x4 ADD PUSH2 0x672 SWAP1 PUSH2 0x208F JUMP JUMPDEST PUSH1 0x40 MLOAD DUP1 SWAP2 SUB SWAP1 REVERT JUMPDEST PUSH1 0x0 DUP4 DUP2 MSTORE PUSH1 0x7 PUSH1 0x20 MSTORE PUSH1 0x40 SWAP1 KECCAK256 PUSH1 0x2 DUP2 ADD SLOAD TIMESTAMP LT DUP1 ISZERO SWAP1 PUSH2 0x6AD JUMPI POP PUSH1 0x1 SLOAD DUP2 PUSH1 0x2 ADD SLOAD PUSH2 0x6AA SWAP2 SWAP1 PUSH2 0x20D8 JUMP JUMPDEST TIMESTAMP LT JUMPDEST PUSH2 0x6C9 JUMPI PUSH1 0x40 MLOAD PUSH3 0x461BCD PUSH1 0xE5 SHL DUP2 MSTORE PUSH1 0x4 ADD PUSH2 0x672 SWAP1 PUSH2 0x2058 JUMP JUMPDEST PUSH1 0x1 PUSH1 0x8 DUP3 ADD SLOAD PUSH1 0xFF AND PUSH1 0x6 DUP2 GT ISZERO PUSH2 0x6E4 JUMPI PUSH2 0x6E4 PUSH2 0x21C3 JUMP JUMPDEST EQ PUSH2 0x731 JUMPI PUSH1 0x40 MLOAD PUSH3 0x461BCD PUSH1 0xE5 SHL DUP2 MSTORE PUSH1 0x20 PUSH1 0x4 DUP3 ADD MSTORE PUSH1 0x17 PUSH1 0x24 DUP3 ADD MSTORE PUSH32 0x4E6F742061742074686520766F74696E67207374616765000000000000000000 PUSH1 0x44 DUP3 ADD MSTORE PUSH1 0x64 ADD PUSH2 0x672 JUMP JUMPDEST PUSH1 0x8 DUP2 ADD DUP1 SLOAD PUSH1 0xFF NOT AND PUSH1 0x5 OR SWAP1 SSTORE DUP3 MLOAD PUSH2 0x755 SWAP1 PUSH1 0xD DUP4 ADD SWAP1 PUSH1 0x20 DUP7 ADD SWAP1 PUSH2 0x1BD7 JUMP JUMPDEST POP PUSH1 0xC DUP2 ADD DUP1 SLOAD PUSH1 0x1 PUSH1 0x1 PUSH1 0xA0 SHL SUB NOT AND CALLER OR SWAP1 SSTORE PUSH1 0x1 SLOAD PUSH2 0x777 SWAP1 TIMESTAMP PUSH2 0x20D8 JUMP JUMPDEST PUSH1 0x2 DUP3 ADD SSTORE PUSH1 0x40 MLOAD DUP5 SWAP1 PUSH32 0x4A3E39232EA797464BB08B1CB8267CFC05E026D0EAE637FF17B0548AF520369A SWAP1 PUSH2 0x7AE SWAP1 DUP7 SWAP1 PUSH2 0x1FC9 JUMP JUMPDEST PUSH1 0x40 MLOAD DUP1 SWAP2 SUB SWAP1 LOG2 POP POP POP POP JUMP JUMPDEST PUSH1 0x0 DUP2 DUP2 MSTORE PUSH1 0x7 PUSH1 0x20 MSTORE PUSH1 0x40 DUP2 KECCAK256 PUSH1 0x4 DUP2 ADD SLOAD PUSH1 0x3 DUP3 ADD DUP1 SLOAD PUSH1 0x60 SWAP5 DUP6 SWAP5 SWAP1 SWAP4 SWAP1 SWAP3 SWAP2 PUSH1 0x5 DUP5 ADD SWAP2 PUSH1 0x1 PUSH1 0x1 PUSH1 0xA0 SHL SUB AND SWAP1 DUP4 SWAP1 PUSH2 0x7F9 SWAP1 PUSH2 0x215D JUMP JUMPDEST DUP1 PUSH1 0x1F ADD PUSH1 0x20 DUP1 SWAP2 DIV MUL PUSH1 0x20 ADD PUSH1 0x40 MLOAD SWAP1 DUP2 ADD PUSH1 0x40 MSTORE DUP1 SWAP3 SWAP2 SWAP1 DUP2 DUP2 MSTORE PUSH1 0x20 ADD DUP3 DUP1 SLOAD PUSH2 0x825 SWAP1 PUSH2 0x215D JUMP JUMPDEST DUP1 ISZERO PUSH2 0x872 JUMPI DUP1 PUSH1 0x1F LT PUSH2 0x847 JUMPI PUSH2 0x100 DUP1 DUP4 SLOAD DIV MUL DUP4 MSTORE SWAP2 PUSH1 0x20 ADD SWAP2 PUSH2 0x872 JUMP JUMPDEST DUP3 ADD SWAP2 SWAP1 PUSH1 0x0 MSTORE PUSH1 0x20 PUSH1 0x0 KECCAK256 SWAP1 JUMPDEST DUP2 SLOAD DUP2 MSTORE SWAP1 PUSH1 0x1 ADD SWAP1 PUSH1 0x20 ADD DUP1 DUP4 GT PUSH2 0x855 JUMPI DUP3 SWAP1 SUB PUSH1 0x1F AND DUP3 ADD SWAP2 JUMPDEST POP POP POP POP POP SWAP3 POP DUP2 DUP1 SLOAD PUSH2 0x885 SWAP1 PUSH2 0x215D JUMP JUMPDEST DUP1 PUSH1 0x1F ADD PUSH1 0x20 DUP1 SWAP2 DIV MUL PUSH1 0x20 ADD PUSH1 0x40 MLOAD SWAP1 DUP2 ADD PUSH1 0x40 MSTORE DUP1 SWAP3 SWAP2 SWAP1 DUP2 DUP2 MSTORE PUSH1 0x20 ADD DUP3 DUP1 SLOAD PUSH2 0x8B1 SWAP1 PUSH2 0x215D JUMP JUMPDEST DUP1 ISZERO PUSH2 0x8FE JUMPI DUP1 PUSH1 0x1F LT PUSH2 0x8D3 JUMPI PUSH2 0x100 DUP1 DUP4 SLOAD DIV MUL DUP4 MSTORE SWAP2 PUSH1 0x20 ADD SWAP2 PUSH2 0x8FE JUMP JUMPDEST DUP3 ADD SWAP2 SWAP1 PUSH1 0x0 MSTORE PUSH1 0x20 PUSH1 0x0 KECCAK256 SWAP1 JUMPDEST DUP2 SLOAD DUP2 MSTORE SWAP1 PUSH1 0x1 ADD SWAP1 PUSH1 0x20 ADD DUP1 DUP4 GT PUSH2 0x8E1 JUMPI DUP3 SWAP1 SUB PUSH1 0x1F AND DUP3 ADD SWAP2 JUMPDEST POP POP POP POP POP SWAP2 POP SWAP4 POP SWAP4 POP SWAP4 POP POP SWAP2 SWAP4 SWAP1 SWAP3 POP JUMP JUMPDEST PUSH1 0x2 DUP1 SLOAD PUSH1 0x1 PUSH1 0x1 PUSH1 0xA0 SHL SUB NOT AND CALLER SWAP1 DUP2 OR SWAP1 SWAP2 SSTORE PUSH1 0x40 MLOAD PUSH32 0xE39D7CD8517BE5D0DED9DB90850AC775470F23EA44EC3AAAAD22EE8B1F8FC59 SWAP1 PUSH1 0x0 SWAP1 LOG2 JUMP JUMPDEST PUSH1 0x0 DUP3 DUP2 MSTORE PUSH1 0x7 PUSH1 0x20 MSTORE PUSH1 0x40 DUP2 KECCAK256 DUP2 PUSH1 0x8 DUP3 ADD SLOAD PUSH1 0xFF AND PUSH1 0x6 DUP2 GT ISZERO PUSH2 0x97B JUMPI PUSH2 0x97B PUSH2 0x21C3 JUMP JUMPDEST EQ ISZERO PUSH2 0x9BA JUMPI PUSH1 0x40 MLOAD PUSH3 0x461BCD PUSH1 0xE5 SHL DUP2 MSTORE PUSH1 0x20 PUSH1 0x4 DUP3 ADD MSTORE PUSH1 0xE PUSH1 0x24 DUP3 ADD MSTORE PUSH14 0x159BDD195259081A5CC81B9D5B1B PUSH1 0x92 SHL PUSH1 0x44 DUP3 ADD MSTORE PUSH1 0x64 ADD PUSH2 0x672 JUMP JUMPDEST PUSH1 0x1 PUSH1 0x8 DUP3 ADD SLOAD PUSH1 0xFF AND PUSH1 0x6 DUP2 GT ISZERO PUSH2 0x9D5 JUMPI PUSH2 0x9D5 PUSH2 0x21C3 JUMP JUMPDEST EQ ISZERO PUSH2 0xD94 JUMPI CALLER PUSH1 0x0 SWAP1 DUP2 MSTORE PUSH1 0xB DUP3 ADD PUSH1 0x20 MSTORE PUSH1 0x40 SWAP1 KECCAK256 SLOAD PUSH1 0xFF AND ISZERO PUSH2 0xA2B JUMPI PUSH1 0x40 MLOAD PUSH3 0x461BCD PUSH1 0xE5 SHL DUP2 MSTORE PUSH1 0x20 PUSH1 0x4 DUP3 ADD MSTORE PUSH1 0xB PUSH1 0x24 DUP3 ADD MSTORE PUSH11 0x566F7465206265666F7265 PUSH1 0xA8 SHL PUSH1 0x44 DUP3 ADD MSTORE PUSH1 0x64 ADD PUSH2 0x672 JUMP JUMPDEST PUSH1 0x3 SLOAD PUSH1 0x40 MLOAD PUSH4 0x70A08231 PUSH1 0xE0 SHL DUP2 MSTORE CALLER PUSH1 0x4 DUP3 ADD MSTORE PUSH1 0x1 SWAP2 PUSH1 0x1 PUSH1 0x1 PUSH1 0xA0 SHL SUB AND SWAP1 PUSH4 0x70A08231 SWAP1 PUSH1 0x24 ADD PUSH1 0x20 PUSH1 0x40 MLOAD DUP1 DUP4 SUB DUP2 DUP7 DUP1 EXTCODESIZE ISZERO DUP1 ISZERO PUSH2 0xA6F JUMPI PUSH1 0x0 DUP1 REVERT JUMPDEST POP GAS STATICCALL ISZERO DUP1 ISZERO PUSH2 0xA83 JUMPI RETURNDATASIZE PUSH1 0x0 DUP1 RETURNDATACOPY RETURNDATASIZE PUSH1 0x0 REVERT JUMPDEST POP POP POP POP PUSH1 0x40 MLOAD RETURNDATASIZE PUSH1 0x1F NOT PUSH1 0x1F DUP3 ADD AND DUP3 ADD DUP1 PUSH1 0x40 MSTORE POP DUP2 ADD SWAP1 PUSH2 0xAA7 SWAP2 SWAP1 PUSH2 0x1E1A JUMP JUMPDEST LT ISZERO PUSH2 0xAEC JUMPI PUSH1 0x40 MLOAD PUSH3 0x461BCD PUSH1 0xE5 SHL DUP2 MSTORE PUSH1 0x20 PUSH1 0x4 DUP3 ADD MSTORE PUSH1 0x14 PUSH1 0x24 DUP3 ADD MSTORE PUSH20 0x3B32AA37B5B2B7103632B9B9903A3430B710189 PUSH1 0x65 SHL PUSH1 0x44 DUP3 ADD MSTORE PUSH1 0x64 ADD PUSH2 0x672 JUMP JUMPDEST DUP1 PUSH1 0x2 ADD SLOAD TIMESTAMP GT ISZERO PUSH2 0xB40 JUMPI PUSH1 0x40 MLOAD PUSH3 0x461BCD PUSH1 0xE5 SHL DUP2 MSTORE PUSH1 0x20 PUSH1 0x4 DUP3 ADD MSTORE PUSH1 0x1C PUSH1 0x24 DUP3 ADD MSTORE PUSH32 0x4E6F742077697468696E2074686520616C6C6F747465642074696D6500000000 PUSH1 0x44 DUP3 ADD MSTORE PUSH1 0x64 ADD PUSH2 0x672 JUMP JUMPDEST CALLER PUSH1 0x0 SWAP1 DUP2 MSTORE PUSH1 0xB DUP3 ADD PUSH1 0x20 MSTORE PUSH1 0x40 SWAP1 KECCAK256 DUP1 SLOAD PUSH1 0xFF NOT AND PUSH1 0x1 OR SWAP1 SSTORE DUP3 ISZERO PUSH2 0xD06 JUMPI CALLER PUSH1 0x0 SWAP1 DUP2 MSTORE PUSH1 0xB DUP3 ADD PUSH1 0x20 MSTORE PUSH1 0x40 SWAP1 KECCAK256 PUSH1 0x1 ADD SLOAD ISZERO PUSH2 0xC6D JUMPI PUSH1 0x0 JUMPDEST CALLER PUSH1 0x0 SWAP1 DUP2 MSTORE PUSH1 0xB DUP4 ADD PUSH1 0x20 MSTORE PUSH1 0x40 SWAP1 KECCAK256 PUSH1 0x1 ADD SLOAD DUP2 LT ISZERO PUSH2 0xC6B JUMPI CALLER PUSH1 0x0 SWAP1 DUP2 MSTORE PUSH1 0xB DUP4 ADD PUSH1 0x20 MSTORE PUSH1 0x40 DUP2 KECCAK256 PUSH1 0x1 ADD DUP1 SLOAD DUP4 SWAP1 DUP2 LT PUSH2 0xBC1 JUMPI PUSH2 0xBC1 PUSH2 0x21D9 JUMP JUMPDEST PUSH1 0x0 SWAP2 DUP3 MSTORE PUSH1 0x20 SWAP1 SWAP2 KECCAK256 ADD SLOAD PUSH1 0x3 SLOAD PUSH1 0x40 MLOAD PUSH4 0x70A08231 PUSH1 0xE0 SHL DUP2 MSTORE PUSH1 0x1 PUSH1 0x1 PUSH1 0xA0 SHL SUB SWAP3 DUP4 AND PUSH1 0x4 DUP3 ADD DUP2 SWAP1 MSTORE SWAP4 POP SWAP2 AND SWAP1 PUSH4 0x70A08231 SWAP1 PUSH1 0x24 ADD PUSH1 0x20 PUSH1 0x40 MLOAD DUP1 DUP4 SUB DUP2 DUP7 DUP1 EXTCODESIZE ISZERO DUP1 ISZERO PUSH2 0xC15 JUMPI PUSH1 0x0 DUP1 REVERT JUMPDEST POP GAS STATICCALL ISZERO DUP1 ISZERO PUSH2 0xC29 JUMPI RETURNDATASIZE PUSH1 0x0 DUP1 RETURNDATACOPY RETURNDATASIZE PUSH1 0x0 REVERT JUMPDEST POP POP POP POP PUSH1 0x40 MLOAD RETURNDATASIZE PUSH1 0x1F NOT PUSH1 0x1F DUP3 ADD AND DUP3 ADD DUP1 PUSH1 0x40 MSTORE POP DUP2 ADD SWAP1 PUSH2 0xC4D SWAP2 SWAP1 PUSH2 0x1E1A JUMP JUMPDEST PUSH2 0xC57 SWAP1 DUP6 PUSH2 0x20D8 JUMP JUMPDEST SWAP4 POP POP DUP1 PUSH2 0xC64 SWAP1 PUSH2 0x2192 JUMP JUMPDEST SWAP1 POP PUSH2 0xB7F JUMP JUMPDEST POP JUMPDEST PUSH1 0x3 SLOAD PUSH1 0x40 MLOAD PUSH4 0x70A08231 PUSH1 0xE0 SHL DUP2 MSTORE CALLER PUSH1 0x4 DUP3 ADD MSTORE PUSH1 0x1 PUSH1 0x1 PUSH1 0xA0 SHL SUB SWAP1 SWAP2 AND SWAP1 PUSH4 0x70A08231 SWAP1 PUSH1 0x24 ADD PUSH1 0x20 PUSH1 0x40 MLOAD DUP1 DUP4 SUB DUP2 DUP7 DUP1 EXTCODESIZE ISZERO DUP1 ISZERO PUSH2 0xCB0 JUMPI PUSH1 0x0 DUP1 REVERT JUMPDEST POP GAS STATICCALL ISZERO DUP1 ISZERO PUSH2 0xCC4 JUMPI RETURNDATASIZE PUSH1 0x0 DUP1 RETURNDATACOPY RETURNDATASIZE PUSH1 0x0 REVERT JUMPDEST POP POP POP POP PUSH1 0x40 MLOAD RETURNDATASIZE PUSH1 0x1F NOT PUSH1 0x1F DUP3 ADD AND DUP3 ADD DUP1 PUSH1 0x40 MSTORE POP DUP2 ADD SWAP1 PUSH2 0xCE8 SWAP2 SWAP1 PUSH2 0x1E1A JUMP JUMPDEST DUP2 PUSH1 0x6 ADD PUSH1 0x0 DUP3 DUP3 SLOAD PUSH2 0xCFB SWAP2 SWAP1 PUSH2 0x20D8 JUMP JUMPDEST SWAP1 SWAP2 SSTORE POP PUSH2 0x10A0 SWAP1 POP JUMP JUMPDEST PUSH1 0x3 SLOAD PUSH1 0x40 MLOAD PUSH4 0x70A08231 PUSH1 0xE0 SHL DUP2 MSTORE CALLER PUSH1 0x4 DUP3 ADD MSTORE PUSH1 0x1 PUSH1 0x1 PUSH1 0xA0 SHL SUB SWAP1 SWAP2 AND SWAP1 PUSH4 0x70A08231 SWAP1 PUSH1 0x24 ADD PUSH1 0x20 PUSH1 0x40 MLOAD DUP1 DUP4 SUB DUP2 DUP7 DUP1 EXTCODESIZE ISZERO DUP1 ISZERO PUSH2 0xD49 JUMPI PUSH1 0x0 DUP1 REVERT JUMPDEST POP GAS STATICCALL ISZERO DUP1 ISZERO PUSH2 0xD5D JUMPI RETURNDATASIZE PUSH1 0x0 DUP1 RETURNDATACOPY RETURNDATASIZE PUSH1 0x0 REVERT JUMPDEST POP POP POP POP PUSH1 0x40 MLOAD RETURNDATASIZE PUSH1 0x1F NOT PUSH1 0x1F DUP3 ADD AND DUP3 ADD DUP1 PUSH1 0x40 MSTORE POP DUP2 ADD SWAP1 PUSH2 0xD81 SWAP2 SWAP1 PUSH2 0x1E1A JUMP JUMPDEST DUP2 PUSH1 0x7 ADD PUSH1 0x0 DUP3 DUP3 SLOAD PUSH2 0xCFB SWAP2 SWAP1 PUSH2 0x20D8 JUMP JUMPDEST PUSH1 0x5 PUSH1 0x8 DUP3 ADD SLOAD PUSH1 0xFF AND PUSH1 0x6 DUP2 GT ISZERO PUSH2 0xDAF JUMPI PUSH2 0xDAF PUSH2 0x21C3 JUMP JUMPDEST EQ ISZERO PUSH2 0x100B JUMPI CALLER PUSH1 0x0 SWAP1 DUP2 MSTORE PUSH1 0x10 DUP3 ADD PUSH1 0x20 MSTORE PUSH1 0x40 SWAP1 KECCAK256 SLOAD PUSH1 0xFF AND ISZERO PUSH2 0xE05 JUMPI PUSH1 0x40 MLOAD PUSH3 0x461BCD PUSH1 0xE5 SHL DUP2 MSTORE PUSH1 0x20 PUSH1 0x4 DUP3 ADD MSTORE PUSH1 0xB PUSH1 0x24 DUP3 ADD MSTORE PUSH11 0x566F7465206265666F7265 PUSH1 0xA8 SHL PUSH1 0x44 DUP3 ADD MSTORE PUSH1 0x64 ADD PUSH2 0x672 JUMP JUMPDEST DUP1 PUSH1 0x2 ADD SLOAD TIMESTAMP LT PUSH2 0xE58 JUMPI PUSH1 0x40 MLOAD PUSH3 0x461BCD PUSH1 0xE5 SHL DUP2 MSTORE PUSH1 0x20 PUSH1 0x4 DUP3 ADD MSTORE PUSH1 0x1C PUSH1 0x24 DUP3 ADD MSTORE PUSH32 0x4E6F742077697468696E2074686520616C6C6F747465642074696D6500000000 PUSH1 0x44 DUP3 ADD MSTORE PUSH1 0x64 ADD PUSH2 0x672 JUMP JUMPDEST CALLER PUSH1 0x0 SWAP1 DUP2 MSTORE PUSH1 0x10 DUP3 ADD PUSH1 0x20 SWAP1 DUP2 MSTORE PUSH1 0x40 DUP1 DUP4 KECCAK256 DUP1 SLOAD PUSH1 0xFF NOT AND PUSH1 0x1 SWAP1 DUP2 OR SWAP1 SWAP2 SSTORE PUSH1 0xB DUP6 ADD SWAP1 SWAP3 MSTORE SWAP1 SWAP2 KECCAK256 ADD SLOAD ISZERO PUSH2 0xF7C JUMPI PUSH1 0x0 JUMPDEST CALLER PUSH1 0x0 SWAP1 DUP2 MSTORE PUSH1 0xB DUP4 ADD PUSH1 0x20 MSTORE PUSH1 0x40 SWAP1 KECCAK256 PUSH1 0x1 ADD SLOAD DUP2 LT ISZERO PUSH2 0xF7A JUMPI CALLER PUSH1 0x0 SWAP1 DUP2 MSTORE PUSH1 0xB DUP4 ADD PUSH1 0x20 MSTORE PUSH1 0x40 DUP2 KECCAK256 PUSH1 0x1 ADD DUP1 SLOAD DUP4 SWAP1 DUP2 LT PUSH2 0xED0 JUMPI PUSH2 0xED0 PUSH2 0x21D9 JUMP JUMPDEST PUSH1 0x0 SWAP2 DUP3 MSTORE PUSH1 0x20 SWAP1 SWAP2 KECCAK256 ADD SLOAD PUSH1 0x3 SLOAD PUSH1 0x40 MLOAD PUSH4 0x70A08231 PUSH1 0xE0 SHL DUP2 MSTORE PUSH1 0x1 PUSH1 0x1 PUSH1 0xA0 SHL SUB SWAP3 DUP4 AND PUSH1 0x4 DUP3 ADD DUP2 SWAP1 MSTORE SWAP4 POP SWAP2 AND SWAP1 PUSH4 0x70A08231 SWAP1 PUSH1 0x24 ADD PUSH1 0x20 PUSH1 0x40 MLOAD DUP1 DUP4 SUB DUP2 DUP7 DUP1 EXTCODESIZE ISZERO DUP1 ISZERO PUSH2 0xF24 JUMPI PUSH1 0x0 DUP1 REVERT JUMPDEST POP GAS STATICCALL ISZERO DUP1 ISZERO PUSH2 0xF38 JUMPI RETURNDATASIZE PUSH1 0x0 DUP1 RETURNDATACOPY RETURNDATASIZE PUSH1 0x0 REVERT JUMPDEST POP POP POP POP PUSH1 0x40 MLOAD RETURNDATASIZE PUSH1 0x1F NOT PUSH1 0x1F DUP3 ADD AND DUP3 ADD DUP1 PUSH1 0x40 MSTORE POP DUP2 ADD SWAP1 PUSH2 0xF5C SWAP2 SWAP1 PUSH2 0x1E1A JUMP JUMPDEST PUSH2 0xF66 SWAP1 DUP6 PUSH2 0x20D8 JUMP JUMPDEST SWAP4 POP POP DUP1 PUSH2 0xF73 SWAP1 PUSH2 0x2192 JUMP JUMPDEST SWAP1 POP PUSH2 0xE8E JUMP JUMPDEST POP JUMPDEST PUSH1 0x3 SLOAD PUSH1 0x40 MLOAD PUSH4 0x70A08231 PUSH1 0xE0 SHL DUP2 MSTORE CALLER PUSH1 0x4 DUP3 ADD MSTORE PUSH1 0x1 PUSH1 0x1 PUSH1 0xA0 SHL SUB SWAP1 SWAP2 AND SWAP1 PUSH4 0x70A08231 SWAP1 PUSH1 0x24 ADD PUSH1 0x20 PUSH1 0x40 MLOAD DUP1 DUP4 SUB DUP2 DUP7 DUP1 EXTCODESIZE ISZERO DUP1 ISZERO PUSH2 0xFBF JUMPI PUSH1 0x0 DUP1 REVERT JUMPDEST POP GAS STATICCALL ISZERO DUP1 ISZERO PUSH2 0xFD3 JUMPI RETURNDATASIZE PUSH1 0x0 DUP1 RETURNDATACOPY RETURNDATASIZE PUSH1 0x0 REVERT JUMPDEST POP POP POP POP PUSH1 0x40 MLOAD RETURNDATASIZE PUSH1 0x1F NOT PUSH1 0x1F DUP3 ADD AND DUP3 ADD DUP1 PUSH1 0x40 MSTORE POP DUP2 ADD SWAP1 PUSH2 0xFF7 SWAP2 SWAP1 PUSH2 0x1E1A JUMP JUMPDEST PUSH1 0xE DUP3 ADD DUP1 SLOAD PUSH1 0x0 SWAP1 PUSH2 0xCFB SWAP1 DUP5 SWAP1 PUSH2 0x20D8 JUMP JUMPDEST PUSH1 0x3 SLOAD PUSH1 0x40 MLOAD PUSH4 0x70A08231 PUSH1 0xE0 SHL DUP2 MSTORE CALLER PUSH1 0x4 DUP3 ADD MSTORE PUSH1 0x1 PUSH1 0x1 PUSH1 0xA0 SHL SUB SWAP1 SWAP2 AND SWAP1 PUSH4 0x70A08231 SWAP1 PUSH1 0x24 ADD PUSH1 0x20 PUSH1 0x40 MLOAD DUP1 DUP4 SUB DUP2 DUP7 DUP1 EXTCODESIZE ISZERO DUP1 ISZERO PUSH2 0x104E JUMPI PUSH1 0x0 DUP1 REVERT JUMPDEST POP GAS STATICCALL ISZERO DUP1 ISZERO PUSH2 0x1062 JUMPI RETURNDATASIZE PUSH1 0x0 DUP1 RETURNDATACOPY RETURNDATASIZE PUSH1 0x0 REVERT JUMPDEST POP POP POP POP PUSH1 0x40 MLOAD RETURNDATASIZE PUSH1 0x1F NOT PUSH1 0x1F DUP3 ADD AND DUP3 ADD DUP1 PUSH1 0x40 MSTORE POP DUP2 ADD SWAP1 PUSH2 0x1086 SWAP2 SWAP1 PUSH2 0x1E1A JUMP JUMPDEST PUSH1 0xF DUP3 ADD DUP1 SLOAD PUSH1 0x0 SWAP1 PUSH2 0x109A SWAP1 DUP5 SWAP1 PUSH2 0x20D8 JUMP JUMPDEST SWAP1 SWAP2 SSTORE POP POP JUMPDEST DUP4 PUSH32 0x72869AFC3552DF414602B428F5E96B4EB3FAB540271192C4F31EB3ADAF5FAF1E DUP5 PUSH1 0x40 MLOAD PUSH2 0x7AE SWAP2 ISZERO ISZERO DUP2 MSTORE PUSH1 0x20 ADD SWAP1 JUMP JUMPDEST PUSH1 0x0 DUP2 DUP2 MSTORE PUSH1 0x7 PUSH1 0x20 MSTORE PUSH1 0x40 DUP2 KECCAK256 PUSH1 0x8 DUP2 ADD SLOAD PUSH1 0xFF AND PUSH1 0x6 DUP2 GT ISZERO PUSH2 0x10FB JUMPI PUSH2 0x10FB PUSH2 0x21C3 JUMP JUMPDEST SWAP4 SWAP3 POP POP POP JUMP JUMPDEST PUSH1 0x6 SLOAD PUSH1 0x0 DUP2 DUP2 MSTORE PUSH1 0x8 PUSH1 0x20 SWAP1 DUP2 MSTORE PUSH1 0x40 SWAP1 SWAP2 KECCAK256 SWAP2 DUP3 SSTORE PUSH1 0x2 DUP3 ADD DUP1 SLOAD PUSH1 0x1 PUSH1 0x1 PUSH1 0xA0 SHL SUB NOT AND PUSH1 0x1 PUSH1 0x1 PUSH1 0xA0 SHL SUB DUP7 AND OR SWAP1 SSTORE DUP3 MLOAD PUSH2 0x114A SWAP2 PUSH1 0x3 DUP5 ADD SWAP2 SWAP1 DUP6 ADD SWAP1 PUSH2 0x1BD7 JUMP JUMPDEST POP DUP4 MLOAD PUSH2 0x1160 SWAP1 PUSH1 0x1 DUP4 ADD SWAP1 PUSH1 0x20 DUP8 ADD SWAP1 PUSH2 0x1BD7 JUMP JUMPDEST POP PUSH1 0x6 DUP1 SLOAD SWAP1 PUSH1 0x0 PUSH2 0x1171 DUP4 PUSH2 0x2192 JUMP JUMPDEST SWAP2 SWAP1 POP SSTORE POP PUSH32 0x291FB4C9EC38B653E778AAD63D42CE4710DA5B91C49A033BA04963DD409300EB DUP5 DUP5 DUP5 PUSH1 0x40 MLOAD PUSH2 0x11A9 SWAP4 SWAP3 SWAP2 SWAP1 PUSH2 0x1FDC JUMP JUMPDEST PUSH1 0x40 MLOAD DUP1 SWAP2 SUB SWAP1 LOG1 POP POP POP POP JUMP JUMPDEST PUSH1 0x0 DUP1 PUSH2 0x3E8 PUSH1 0x3 PUSH1 0x0 SWAP1 SLOAD SWAP1 PUSH2 0x100 EXP SWAP1 DIV PUSH1 0x1 PUSH1 0x1 PUSH1 0xA0 SHL SUB AND PUSH1 0x1 PUSH1 0x1 PUSH1 0xA0 SHL SUB AND PUSH4 0x18160DDD PUSH1 0x40 MLOAD DUP2 PUSH4 0xFFFFFFFF AND PUSH1 0xE0 SHL DUP2 MSTORE PUSH1 0x4 ADD PUSH1 0x20 PUSH1 0x40 MLOAD DUP1 DUP4 SUB DUP2 DUP7 DUP1 EXTCODESIZE ISZERO DUP1 ISZERO PUSH2 0x120B JUMPI PUSH1 0x0 DUP1 REVERT JUMPDEST POP GAS STATICCALL ISZERO DUP1 ISZERO PUSH2 0x121F JUMPI RETURNDATASIZE PUSH1 0x0 DUP1 RETURNDATACOPY RETURNDATASIZE PUSH1 0x0 REVERT JUMPDEST POP POP POP POP PUSH1 0x40 MLOAD RETURNDATASIZE PUSH1 0x1F NOT PUSH1 0x1F DUP3 ADD AND DUP3 ADD DUP1 PUSH1 0x40 MSTORE POP DUP2 ADD SWAP1 PUSH2 0x1243 SWAP2 SWAP1 PUSH2 0x1E1A JUMP JUMPDEST PUSH2 0x124D SWAP2 SWAP1 PUSH2 0x20F0 JUMP JUMPDEST PUSH2 0x1258 SWAP1 PUSH1 0x32 PUSH2 0x2112 JUMP JUMPDEST PUSH1 0x3 SLOAD PUSH1 0x40 MLOAD PUSH4 0x70A08231 PUSH1 0xE0 SHL DUP2 MSTORE CALLER PUSH1 0x4 DUP3 ADD MSTORE SWAP2 SWAP3 POP DUP3 SWAP2 PUSH1 0x1 PUSH1 0x1 PUSH1 0xA0 SHL SUB SWAP1 SWAP2 AND SWAP1 PUSH4 0x70A08231 SWAP1 PUSH1 0x24 ADD PUSH1 0x20 PUSH1 0x40 MLOAD DUP1 DUP4 SUB DUP2 DUP7 DUP1 EXTCODESIZE ISZERO DUP1 ISZERO PUSH2 0x12A0 JUMPI PUSH1 0x0 DUP1 REVERT JUMPDEST POP GAS STATICCALL ISZERO DUP1 ISZERO PUSH2 0x12B4 JUMPI RETURNDATASIZE PUSH1 0x0 DUP1 RETURNDATACOPY RETURNDATASIZE PUSH1 0x0 REVERT JUMPDEST POP POP POP POP PUSH1 0x40 MLOAD RETURNDATASIZE PUSH1 0x1F NOT PUSH1 0x1F DUP3 ADD AND DUP3 ADD DUP1 PUSH1 0x40 MSTORE POP DUP2 ADD SWAP1 PUSH2 0x12D8 SWAP2 SWAP1 PUSH2 0x1E1A JUMP JUMPDEST LT ISZERO PUSH2 0x12F6 JUMPI PUSH1 0x40 MLOAD PUSH3 0x461BCD PUSH1 0xE5 SHL DUP2 MSTORE PUSH1 0x4 ADD PUSH2 0x672 SWAP1 PUSH2 0x208F JUMP JUMPDEST PUSH1 0x4 DUP1 SLOAD SWAP1 PUSH1 0x0 PUSH2 0x1306 DUP4 PUSH2 0x2192 JUMP JUMPDEST SWAP1 SWAP2 SSTORE POP POP PUSH1 0x4 SLOAD PUSH1 0x0 SWAP1 DUP2 MSTORE PUSH1 0x7 PUSH1 0x20 SWAP1 DUP2 MSTORE PUSH1 0x40 SWAP1 SWAP2 KECCAK256 DUP3 DUP2 SSTORE DUP8 MLOAD SWAP1 SWAP2 PUSH2 0x1337 SWAP2 PUSH1 0x3 DUP5 ADD SWAP2 DUP11 ADD SWAP1 PUSH2 0x1BD7 JUMP JUMPDEST POP PUSH1 0x4 SLOAD PUSH1 0x1 DUP3 ADD SSTORE PUSH1 0x0 SLOAD PUSH2 0x134D SWAP1 TIMESTAMP PUSH2 0x20D8 JUMP JUMPDEST PUSH1 0x2 DUP3 ADD SSTORE PUSH1 0x4 DUP2 ADD DUP1 SLOAD PUSH1 0x1 PUSH1 0x1 PUSH1 0xA0 SHL SUB NOT AND CALLER OR SWAP1 SSTORE DUP6 MLOAD PUSH2 0x137B SWAP1 PUSH1 0x5 DUP4 ADD SWAP1 PUSH1 0x20 DUP10 ADD SWAP1 PUSH2 0x1BD7 JUMP JUMPDEST POP PUSH1 0x8 DUP2 ADD DUP1 SLOAD PUSH1 0xFF NOT AND PUSH1 0x1 OR SWAP1 SSTORE PUSH1 0x9 DUP2 ADD DUP6 SWAP1 SSTORE PUSH1 0xA DUP2 ADD DUP5 SWAP1 SSTORE PUSH1 0x40 MLOAD PUSH2 0x13A7 SWAP1 DUP8 SWAP1 PUSH2 0x1F07 JUMP JUMPDEST PUSH1 0x40 MLOAD DUP1 SWAP2 SUB SWAP1 KECCAK256 DUP8 PUSH1 0x40 MLOAD PUSH2 0x13BD SWAP2 SWAP1 PUSH2 0x1F07 JUMP JUMPDEST PUSH1 0x40 MLOAD DUP1 SWAP2 SUB SWAP1 KECCAK256 PUSH1 0x4 SLOAD PUSH32 0x2042799F2E1D3FCFC7C7E9DD101B3430C99AA621240EA8FDEAC79AD1C973888E DUP9 DUP9 PUSH1 0x40 MLOAD PUSH2 0x1402 SWAP3 SWAP2 SWAP1 SWAP2 DUP3 MSTORE PUSH1 0x20 DUP3 ADD MSTORE PUSH1 0x40 ADD SWAP1 JUMP JUMPDEST PUSH1 0x40 MLOAD DUP1 SWAP2 SUB SWAP1 LOG4 POP POP PUSH1 0x4 SLOAD SWAP6 SWAP5 POP POP POP POP POP JUMP JUMPDEST PUSH1 0x0 DUP3 DUP2 MSTORE PUSH1 0x7 PUSH1 0x20 SWAP1 DUP2 MSTORE PUSH1 0x40 DUP1 DUP4 KECCAK256 CALLER DUP5 MSTORE PUSH1 0xB DUP2 ADD SWAP1 SWAP3 MSTORE SWAP1 SWAP2 KECCAK256 SLOAD PUSH1 0xFF AND ISZERO PUSH2 0x1474 JUMPI PUSH1 0x40 MLOAD PUSH3 0x461BCD PUSH1 0xE5 SHL DUP2 MSTORE PUSH1 0x20 PUSH1 0x4 DUP3 ADD MSTORE PUSH1 0xA PUSH1 0x24 DUP3 ADD MSTORE PUSH10 0x12185D99481D9BDD1959 PUSH1 0xB2 SHL PUSH1 0x44 DUP3 ADD MSTORE PUSH1 0x64 ADD PUSH2 0x672 JUMP JUMPDEST PUSH1 0x1 PUSH1 0x1 PUSH1 0xA0 SHL SUB DUP3 AND CALLER EQ ISZERO PUSH2 0x14CD JUMPI PUSH1 0x40 MLOAD PUSH3 0x461BCD PUSH1 0xE5 SHL DUP2 MSTORE PUSH1 0x20 PUSH1 0x4 DUP3 ADD MSTORE PUSH1 0x1A PUSH1 0x24 DUP3 ADD MSTORE PUSH32 0x63616E27742064656C656761746520746F20796F757273656C66000000000000 PUSH1 0x44 DUP3 ADD MSTORE PUSH1 0x64 ADD PUSH2 0x672 JUMP JUMPDEST PUSH1 0x3 SLOAD PUSH1 0x40 MLOAD PUSH4 0x70A08231 PUSH1 0xE0 SHL DUP2 MSTORE CALLER PUSH1 0x4 DUP3 ADD MSTORE PUSH1 0x0 SWAP2 PUSH1 0x1 PUSH1 0x1 PUSH1 0xA0 SHL SUB AND SWAP1 PUSH4 0x70A08231 SWAP1 PUSH1 0x24 ADD PUSH1 0x20 PUSH1 0x40 MLOAD DUP1 DUP4 SUB DUP2 DUP7 DUP1 EXTCODESIZE ISZERO DUP1 ISZERO PUSH2 0x1511 JUMPI PUSH1 0x0 DUP1 REVERT JUMPDEST POP GAS STATICCALL ISZERO DUP1 ISZERO PUSH2 0x1525 JUMPI RETURNDATASIZE PUSH1 0x0 DUP1 RETURNDATACOPY RETURNDATASIZE PUSH1 0x0 REVERT JUMPDEST POP POP POP POP PUSH1 0x40 MLOAD RETURNDATASIZE PUSH1 0x1F NOT PUSH1 0x1F DUP3 ADD AND DUP3 ADD DUP1 PUSH1 0x40 MSTORE POP DUP2 ADD SWAP1 PUSH2 0x1549 SWAP2 SWAP1 PUSH2 0x1E1A JUMP JUMPDEST GT PUSH2 0x158B JUMPI PUSH1 0x40 MLOAD PUSH3 0x461BCD PUSH1 0xE5 SHL DUP2 MSTORE PUSH1 0x20 PUSH1 0x4 DUP3 ADD MSTORE PUSH1 0x12 PUSH1 0x24 DUP3 ADD MSTORE PUSH18 0x2A3432B9329034B9903737903A37B5B2B71 PUSH1 0x75 SHL PUSH1 0x44 DUP3 ADD MSTORE PUSH1 0x64 ADD PUSH2 0x672 JUMP JUMPDEST PUSH1 0x1 PUSH1 0x1 PUSH1 0xA0 SHL SUB DUP3 AND PUSH1 0x0 DUP2 DUP2 MSTORE PUSH1 0xB DUP4 ADD PUSH1 0x20 SWAP1 DUP2 MSTORE PUSH1 0x40 DUP1 DUP4 KECCAK256 PUSH1 0x1 SWAP1 DUP2 ADD DUP1 SLOAD DUP1 DUP4 ADD DUP3 SSTORE SWAP1 DUP6 MSTORE DUP4 DUP6 KECCAK256 ADD DUP1 SLOAD CALLER PUSH1 0x1 PUSH1 0x1 PUSH1 0xA0 SHL SUB NOT SWAP2 DUP3 AND DUP2 OR SWAP1 SWAP3 SSTORE DUP2 DUP7 MSTORE DUP4 DUP7 KECCAK256 DUP1 SLOAD PUSH1 0xFF NOT SWAP1 DUP2 AND DUP6 OR SWAP1 SWAP2 SSTORE DUP8 DUP8 MSTORE PUSH1 0x10 DUP10 ADD DUP7 MSTORE DUP5 DUP8 KECCAK256 DUP5 ADD DUP1 SLOAD DUP1 DUP7 ADD DUP3 SSTORE SWAP1 DUP9 MSTORE DUP7 DUP9 KECCAK256 ADD DUP1 SLOAD SWAP1 SWAP3 AND DUP4 OR SWAP1 SWAP2 SSTORE SWAP1 DUP6 MSTORE SWAP4 DUP3 SWAP1 KECCAK256 DUP1 SLOAD SWAP1 SWAP5 AND OR SWAP1 SWAP3 SSTORE SWAP1 MLOAD SWAP2 DUP3 MSTORE DUP5 SWAP2 PUSH32 0xA9860E62EB02A47E1D5D5253A79D90BC96CD33C299D874F5B7710D0A61B63CCC SWAP2 ADD PUSH1 0x40 MLOAD DUP1 SWAP2 SUB SWAP1 LOG2 POP POP POP JUMP JUMPDEST PUSH1 0x0 DUP2 DUP2 MSTORE PUSH1 0x7 PUSH1 0x20 SWAP1 DUP2 MSTORE PUSH1 0x40 DUP1 DUP4 KECCAK256 PUSH1 0x9 SWAP1 SWAP3 MSTORE SWAP1 SWAP2 KECCAK256 SLOAD PUSH1 0xFF AND ISZERO PUSH2 0x16B0 JUMPI PUSH1 0x40 MLOAD PUSH3 0x461BCD PUSH1 0xE5 SHL DUP2 MSTORE PUSH1 0x20 PUSH1 0x4 DUP3 ADD MSTORE PUSH1 0x14 PUSH1 0x24 DUP3 ADD MSTORE PUSH20 0x3932B832BA34BA34BB329032BC32B1BABA34B7B7 PUSH1 0x61 SHL PUSH1 0x44 DUP3 ADD MSTORE PUSH1 0x64 ADD PUSH2 0x672 JUMP JUMPDEST PUSH1 0x0 PUSH1 0x8 DUP3 ADD SLOAD PUSH1 0xFF AND PUSH1 0x6 DUP2 GT ISZERO PUSH2 0x16CB JUMPI PUSH2 0x16CB PUSH2 0x21C3 JUMP JUMPDEST EQ ISZERO PUSH2 0x170A JUMPI PUSH1 0x40 MLOAD PUSH3 0x461BCD PUSH1 0xE5 SHL DUP2 MSTORE PUSH1 0x20 PUSH1 0x4 DUP3 ADD MSTORE PUSH1 0xE PUSH1 0x24 DUP3 ADD MSTORE PUSH14 0x159BDD195259081A5CC81B9D5B1B PUSH1 0x92 SHL PUSH1 0x44 DUP3 ADD MSTORE PUSH1 0x64 ADD PUSH2 0x672 JUMP JUMPDEST PUSH1 0x1 PUSH1 0x8 DUP3 ADD SLOAD PUSH1 0xFF AND PUSH1 0x6 DUP2 GT ISZERO PUSH2 0x1725 JUMPI PUSH2 0x1725 PUSH2 0x21C3 JUMP JUMPDEST EQ ISZERO PUSH2 0x187A JUMPI DUP1 PUSH1 0x2 ADD SLOAD TIMESTAMP GT PUSH2 0x174E JUMPI PUSH1 0x40 MLOAD PUSH3 0x461BCD PUSH1 0xE5 SHL DUP2 MSTORE PUSH1 0x4 ADD PUSH2 0x672 SWAP1 PUSH2 0x2058 JUMP JUMPDEST DUP1 SLOAD PUSH2 0x175D SWAP1 PUSH2 0x3E8 SWAP1 PUSH2 0x20F0 JUMP JUMPDEST PUSH2 0x1769 SWAP1 PUSH2 0x12C PUSH2 0x2112 JUMP JUMPDEST DUP2 PUSH1 0x6 ADD SLOAD DUP3 PUSH1 0x7 ADD SLOAD PUSH2 0x177D SWAP2 SWAP1 PUSH2 0x20D8 JUMP JUMPDEST LT ISZERO PUSH2 0x17CB JUMPI PUSH1 0x40 MLOAD PUSH3 0x461BCD PUSH1 0xE5 SHL DUP2 MSTORE PUSH1 0x20 PUSH1 0x4 DUP3 ADD MSTORE PUSH1 0x1D PUSH1 0x24 DUP3 ADD MSTORE PUSH32 0x766F746573206973206C657373207468616E2033302070657263656E74000000 PUSH1 0x44 DUP3 ADD MSTORE PUSH1 0x64 ADD PUSH2 0x672 JUMP JUMPDEST PUSH1 0x3C DUP2 PUSH1 0x6 ADD SLOAD DUP3 PUSH1 0x7 ADD SLOAD PUSH2 0x17E1 SWAP2 SWAP1 PUSH2 0x20D8 JUMP JUMPDEST DUP3 PUSH1 0x6 ADD SLOAD PUSH2 0x17F0 SWAP2 SWAP1 PUSH2 0x20F0 JUMP JUMPDEST PUSH2 0x17FB SWAP1 PUSH1 0x64 PUSH2 0x2112 JUMP JUMPDEST LT ISZERO PUSH2 0x1853 JUMPI PUSH1 0x40 MLOAD PUSH3 0x461BCD PUSH1 0xE5 SHL DUP2 MSTORE PUSH1 0x20 PUSH1 0x4 DUP3 ADD MSTORE PUSH1 0x21 PUSH1 0x24 DUP3 ADD MSTORE PUSH32 0x4C657373207468616E20363025206F662074686520766F746573207061737365 PUSH1 0x44 DUP3 ADD MSTORE PUSH1 0x19 PUSH1 0xFA SHL PUSH1 0x64 DUP3 ADD MSTORE PUSH1 0x84 ADD PUSH2 0x672 JUMP JUMPDEST PUSH2 0x1866 DUP3 DUP3 PUSH1 0x9 ADD SLOAD DUP4 PUSH1 0xA ADD SLOAD PUSH2 0x1984 JUMP JUMPDEST PUSH1 0x8 DUP2 ADD DUP1 SLOAD PUSH1 0xFF NOT AND PUSH1 0x2 OR SWAP1 SSTORE PUSH2 0x1955 JUMP JUMPDEST PUSH1 0x5 PUSH1 0x8 DUP3 ADD SLOAD PUSH1 0xFF AND PUSH1 0x6 DUP2 GT ISZERO PUSH2 0x1895 JUMPI PUSH2 0x1895 PUSH2 0x21C3 JUMP JUMPDEST EQ ISZERO PUSH2 0x1955 JUMPI DUP1 PUSH1 0x2 ADD SLOAD TIMESTAMP LT ISZERO PUSH2 0x18BF JUMPI PUSH1 0x40 MLOAD PUSH3 0x461BCD PUSH1 0xE5 SHL DUP2 MSTORE PUSH1 0x4 ADD PUSH2 0x672 SWAP1 PUSH2 0x2058 JUMP JUMPDEST PUSH1 0x6 DUP2 ADD SLOAD PUSH1 0xE DUP3 ADD SLOAD LT ISZERO PUSH2 0x1932 JUMPI PUSH1 0x40 MLOAD PUSH3 0x461BCD PUSH1 0xE5 SHL DUP2 MSTORE PUSH1 0x20 PUSH1 0x4 DUP3 ADD MSTORE PUSH1 0x32 PUSH1 0x24 DUP3 ADD MSTORE PUSH32 0x54686520766F746520706173736564207769746820666577657220766F746573 PUSH1 0x44 DUP3 ADD MSTORE PUSH18 0x81D1A185B881D1A19481BDC9A59DA5B985B PUSH1 0x72 SHL PUSH1 0x64 DUP3 ADD MSTORE PUSH1 0x84 ADD PUSH2 0x672 JUMP JUMPDEST PUSH2 0x1945 DUP3 DUP3 PUSH1 0x9 ADD SLOAD DUP4 PUSH1 0xA ADD SLOAD PUSH2 0x1984 JUMP JUMPDEST PUSH1 0x8 DUP2 ADD DUP1 SLOAD PUSH1 0xFF NOT AND PUSH1 0x2 OR SWAP1 SSTORE JUMPDEST PUSH1 0x40 MLOAD DUP3 SWAP1 PUSH32 0xA6B4889FBC6222293F94AC3C68C40FA4C027B86B0DFE4F820475C7D8828A2436 SWAP1 PUSH1 0x0 SWAP1 LOG2 POP POP JUMP JUMPDEST PUSH1 0x5 DUP1 SLOAD PUSH1 0x1 DUP2 DUP2 ADD SWAP1 SWAP3 SSTORE PUSH32 0x36B6384B5ECA791C62761152D0C79BB0604C104A5FB6F4EB0703F3154BB3DB0 ADD DUP5 SWAP1 SSTORE PUSH1 0x0 DUP5 DUP2 MSTORE PUSH1 0x9 PUSH1 0x20 SWAP1 DUP2 MSTORE PUSH1 0x40 DUP1 DUP4 KECCAK256 DUP1 SLOAD PUSH1 0xFF NOT AND SWAP1 SWAP5 OR SWAP1 SWAP4 SSTORE DUP5 DUP3 MSTORE PUSH1 0x8 SWAP1 MSTORE KECCAK256 PUSH1 0x2 ADD SLOAD PUSH1 0x1 PUSH1 0x1 PUSH1 0xA0 SHL SUB AND DUP1 PUSH2 0x1A34 JUMPI PUSH1 0x40 MLOAD PUSH3 0x461BCD PUSH1 0xE5 SHL DUP2 MSTORE PUSH1 0x20 PUSH1 0x4 DUP3 ADD MSTORE PUSH1 0x1B PUSH1 0x24 DUP3 ADD MSTORE PUSH32 0x476F7665726E616E63652054656D706C617465206973206E756C6C0000000000 PUSH1 0x44 DUP3 ADD MSTORE PUSH1 0x64 ADD PUSH2 0x672 JUMP JUMPDEST PUSH2 0x1A3E DUP4 DUP4 PUSH2 0x1A44 JUMP JUMPDEST POP POP POP POP JUMP JUMPDEST PUSH1 0x0 DUP3 DUP2 MSTORE PUSH1 0x8 PUSH1 0x20 MSTORE PUSH1 0x40 DUP2 KECCAK256 PUSH1 0x2 DUP2 ADD SLOAD PUSH1 0x3 SWAP1 SWAP2 ADD DUP1 SLOAD PUSH1 0x1 PUSH1 0x1 PUSH1 0xA0 SHL SUB SWAP1 SWAP3 AND SWAP3 SWAP2 PUSH2 0x1A74 SWAP1 PUSH2 0x215D JUMP JUMPDEST DUP1 PUSH1 0x1F ADD PUSH1 0x20 DUP1 SWAP2 DIV MUL PUSH1 0x20 ADD PUSH1 0x40 MLOAD SWAP1 DUP2 ADD PUSH1 0x40 MSTORE DUP1 SWAP3 SWAP2 SWAP1 DUP2 DUP2 MSTORE PUSH1 0x20 ADD DUP3 DUP1 SLOAD PUSH2 0x1AA0 SWAP1 PUSH2 0x215D JUMP JUMPDEST DUP1 ISZERO PUSH2 0x1AED JUMPI DUP1 PUSH1 0x1F LT PUSH2 0x1AC2 JUMPI PUSH2 0x100 DUP1 DUP4 SLOAD DIV MUL DUP4 MSTORE SWAP2 PUSH1 0x20 ADD SWAP2 PUSH2 0x1AED JUMP JUMPDEST DUP3 ADD SWAP2 SWAP1 PUSH1 0x0 MSTORE PUSH1 0x20 PUSH1 0x0 KECCAK256 SWAP1 JUMPDEST DUP2 SLOAD DUP2 MSTORE SWAP1 PUSH1 0x1 ADD SWAP1 PUSH1 0x20 ADD DUP1 DUP4 GT PUSH2 0x1AD0 JUMPI DUP3 SWAP1 SUB PUSH1 0x1F AND DUP3 ADD SWAP2 JUMPDEST POP POP POP POP POP SWAP1 POP PUSH1 0x0 DUP1 DUP4 PUSH1 0x1 PUSH1 0x1 PUSH1 0xA0 SHL SUB AND DUP4 DUP7 PUSH1 0x40 MLOAD PUSH1 0x24 ADD PUSH2 0x1B15 SWAP2 DUP2 MSTORE PUSH1 0x20 ADD SWAP1 JUMP JUMPDEST PUSH1 0x40 DUP1 MLOAD PUSH1 0x1F NOT DUP2 DUP5 SUB ADD DUP2 MSTORE SWAP1 DUP3 SWAP1 MSTORE SWAP2 PUSH2 0x1B30 SWAP2 PUSH2 0x1F07 JUMP JUMPDEST PUSH1 0x40 DUP1 MLOAD SWAP2 DUP3 SWAP1 SUB SWAP1 SWAP2 KECCAK256 PUSH1 0x20 DUP4 ADD DUP1 MLOAD PUSH1 0x1 PUSH1 0x1 PUSH1 0xE0 SHL SUB AND PUSH1 0x1 PUSH1 0x1 PUSH1 0xE0 SHL SUB NOT SWAP1 SWAP3 AND SWAP2 SWAP1 SWAP2 OR SWAP1 MSTORE MLOAD PUSH2 0x1B67 SWAP2 SWAP1 PUSH2 0x1F07 JUMP JUMPDEST PUSH1 0x0 PUSH1 0x40 MLOAD DUP1 DUP4 SUB DUP2 PUSH1 0x0 DUP7 GAS CALL SWAP2 POP POP RETURNDATASIZE DUP1 PUSH1 0x0 DUP2 EQ PUSH2 0x1BA4 JUMPI PUSH1 0x40 MLOAD SWAP2 POP PUSH1 0x1F NOT PUSH1 0x3F RETURNDATASIZE ADD AND DUP3 ADD PUSH1 0x40 MSTORE RETURNDATASIZE DUP3 MSTORE RETURNDATASIZE PUSH1 0x0 PUSH1 0x20 DUP5 ADD RETURNDATACOPY PUSH2 0x1BA9 JUMP JUMPDEST PUSH1 0x60 SWAP2 POP JUMPDEST POP SWAP2 POP SWAP2 POP DUP2 DUP2 SWAP1 PUSH2 0x1BCE JUMPI PUSH1 0x40 MLOAD PUSH3 0x461BCD PUSH1 0xE5 SHL DUP2 MSTORE PUSH1 0x4 ADD PUSH2 0x672 SWAP2 SWAP1 PUSH2 0x1FC9 JUMP JUMPDEST POP POP POP POP POP POP POP JUMP JUMPDEST DUP3 DUP1 SLOAD PUSH2 0x1BE3 SWAP1 PUSH2 0x215D JUMP JUMPDEST SWAP1 PUSH1 0x0 MSTORE PUSH1 0x20 PUSH1 0x0 KECCAK256 SWAP1 PUSH1 0x1F ADD PUSH1 0x20 SWAP1 DIV DUP2 ADD SWAP3 DUP3 PUSH2 0x1C05 JUMPI PUSH1 0x0 DUP6 SSTORE PUSH2 0x1C4B JUMP JUMPDEST DUP3 PUSH1 0x1F LT PUSH2 0x1C1E JUMPI DUP1 MLOAD PUSH1 0xFF NOT AND DUP4 DUP1 ADD OR DUP6 SSTORE PUSH2 0x1C4B JUMP JUMPDEST DUP3 DUP1 ADD PUSH1 0x1 ADD DUP6 SSTORE DUP3 ISZERO PUSH2 0x1C4B JUMPI SWAP2 DUP3 ADD JUMPDEST DUP3 DUP2 GT ISZERO PUSH2 0x1C4B JUMPI DUP3 MLOAD DUP3 SSTORE SWAP2 PUSH1 0x20 ADD SWAP2 SWAP1 PUSH1 0x1 ADD SWAP1 PUSH2 0x1C30 JUMP JUMPDEST POP PUSH2 0x1C57 SWAP3 SWAP2 POP PUSH2 0x1C5B JUMP JUMPDEST POP SWAP1 JUMP JUMPDEST JUMPDEST DUP1 DUP3 GT ISZERO PUSH2 0x1C57 JUMPI PUSH1 0x0 DUP2 SSTORE PUSH1 0x1 ADD PUSH2 0x1C5C JUMP JUMPDEST DUP1 CALLDATALOAD PUSH1 0x1 PUSH1 0x1 PUSH1 0xA0 SHL SUB DUP2 AND DUP2 EQ PUSH2 0x1C87 JUMPI PUSH1 0x0 DUP1 REVERT JUMPDEST SWAP2 SWAP1 POP JUMP JUMPDEST PUSH1 0x0 DUP3 PUSH1 0x1F DUP4 ADD SLT PUSH2 0x1C9D JUMPI PUSH1 0x0 DUP1 REVERT JUMPDEST DUP2 CALLDATALOAD PUSH8 0xFFFFFFFFFFFFFFFF DUP1 DUP3 GT ISZERO PUSH2 0x1CB8 JUMPI PUSH2 0x1CB8 PUSH2 0x21EF JUMP JUMPDEST PUSH1 0x40 MLOAD PUSH1 0x1F DUP4 ADD PUSH1 0x1F NOT SWAP1 DUP2 AND PUSH1 0x3F ADD AND DUP2 ADD SWAP1 DUP3 DUP3 GT DUP2 DUP4 LT OR ISZERO PUSH2 0x1CE0 JUMPI PUSH2 0x1CE0 PUSH2 0x21EF JUMP JUMPDEST DUP2 PUSH1 0x40 MSTORE DUP4 DUP2 MSTORE DUP7 PUSH1 0x20 DUP6 DUP9 ADD ADD GT ISZERO PUSH2 0x1CF9 JUMPI PUSH1 0x0 DUP1 REVERT JUMPDEST DUP4 PUSH1 0x20 DUP8 ADD PUSH1 0x20 DUP4 ADD CALLDATACOPY PUSH1 0x0 PUSH1 0x20 DUP6 DUP4 ADD ADD MSTORE DUP1 SWAP5 POP POP POP POP POP SWAP3 SWAP2 POP POP JUMP JUMPDEST PUSH1 0x0 DUP1 PUSH1 0x0 PUSH1 0x60 DUP5 DUP7 SUB SLT ISZERO PUSH2 0x1D2E JUMPI PUSH1 0x0 DUP1 REVERT JUMPDEST DUP4 CALLDATALOAD PUSH8 0xFFFFFFFFFFFFFFFF DUP1 DUP3 GT ISZERO PUSH2 0x1D46 JUMPI PUSH1 0x0 DUP1 REVERT JUMPDEST PUSH2 0x1D52 DUP8 DUP4 DUP9 ADD PUSH2 0x1C8C JUMP JUMPDEST SWAP5 POP PUSH2 0x1D60 PUSH1 0x20 DUP8 ADD PUSH2 0x1C70 JUMP JUMPDEST SWAP4 POP PUSH1 0x40 DUP7 ADD CALLDATALOAD SWAP2 POP DUP1 DUP3 GT ISZERO PUSH2 0x1D76 JUMPI PUSH1 0x0 DUP1 REVERT JUMPDEST POP PUSH2 0x1D83 DUP7 DUP3 DUP8 ADD PUSH2 0x1C8C JUMP JUMPDEST SWAP2 POP POP SWAP3 POP SWAP3 POP SWAP3 JUMP JUMPDEST PUSH1 0x0 DUP1 PUSH1 0x0 DUP1 PUSH1 0x80 DUP6 DUP8 SUB SLT ISZERO PUSH2 0x1DA3 JUMPI PUSH1 0x0 DUP1 REVERT JUMPDEST DUP5 CALLDATALOAD PUSH8 0xFFFFFFFFFFFFFFFF DUP1 DUP3 GT ISZERO PUSH2 0x1DBB JUMPI PUSH1 0x0 DUP1 REVERT JUMPDEST PUSH2 0x1DC7 DUP9 DUP4 DUP10 ADD PUSH2 0x1C8C JUMP JUMPDEST SWAP6 POP PUSH1 0x20 DUP8 ADD CALLDATALOAD SWAP2 POP DUP1 DUP3 GT ISZERO PUSH2 0x1DDD JUMPI PUSH1 0x0 DUP1 REVERT JUMPDEST POP PUSH2 0x1DEA DUP8 DUP3 DUP9 ADD PUSH2 0x1C8C JUMP JUMPDEST SWAP5 SWAP8 SWAP5 SWAP7 POP POP POP POP PUSH1 0x40 DUP4 ADD CALLDATALOAD SWAP3 PUSH1 0x60 ADD CALLDATALOAD SWAP2 SWAP1 POP JUMP JUMPDEST PUSH1 0x0 PUSH1 0x20 DUP3 DUP5 SUB SLT ISZERO PUSH2 0x1E13 JUMPI PUSH1 0x0 DUP1 REVERT JUMPDEST POP CALLDATALOAD SWAP2 SWAP1 POP JUMP JUMPDEST PUSH1 0x0 PUSH1 0x20 DUP3 DUP5 SUB SLT ISZERO PUSH2 0x1E2C JUMPI PUSH1 0x0 DUP1 REVERT JUMPDEST POP MLOAD SWAP2 SWAP1 POP JUMP JUMPDEST PUSH1 0x0 DUP1 PUSH1 0x40 DUP4 DUP6 SUB SLT ISZERO PUSH2 0x1E46 JUMPI PUSH1 0x0 DUP1 REVERT JUMPDEST DUP3 CALLDATALOAD SWAP2 POP PUSH2 0x1E56 PUSH1 0x20 DUP5 ADD PUSH2 0x1C70 JUMP JUMPDEST SWAP1 POP SWAP3 POP SWAP3 SWAP1 POP JUMP JUMPDEST PUSH1 0x0 DUP1 PUSH1 0x40 DUP4 DUP6 SUB SLT ISZERO PUSH2 0x1E72 JUMPI PUSH1 0x0 DUP1 REVERT JUMPDEST DUP3 CALLDATALOAD SWAP2 POP PUSH1 0x20 DUP4 ADD CALLDATALOAD DUP1 ISZERO ISZERO DUP2 EQ PUSH2 0x1E89 JUMPI PUSH1 0x0 DUP1 REVERT JUMPDEST DUP1 SWAP2 POP POP SWAP3 POP SWAP3 SWAP1 POP JUMP JUMPDEST PUSH1 0x0 DUP1 PUSH1 0x40 DUP4 DUP6 SUB SLT ISZERO PUSH2 0x1EA7 JUMPI PUSH1 0x0 DUP1 REVERT JUMPDEST DUP3 CALLDATALOAD SWAP2 POP PUSH1 0x20 DUP4 ADD CALLDATALOAD PUSH8 0xFFFFFFFFFFFFFFFF DUP2 GT ISZERO PUSH2 0x1EC5 JUMPI PUSH1 0x0 DUP1 REVERT JUMPDEST PUSH2 0x1ED1 DUP6 DUP3 DUP7 ADD PUSH2 0x1C8C JUMP JUMPDEST SWAP2 POP POP SWAP3 POP SWAP3 SWAP1 POP JUMP JUMPDEST PUSH1 0x0 DUP2 MLOAD DUP1 DUP5 MSTORE PUSH2 0x1EF3 DUP2 PUSH1 0x20 DUP7 ADD PUSH1 0x20 DUP7 ADD PUSH2 0x2131 JUMP JUMPDEST PUSH1 0x1F ADD PUSH1 0x1F NOT AND SWAP3 SWAP1 SWAP3 ADD PUSH1 0x20 ADD SWAP3 SWAP2 POP POP JUMP JUMPDEST PUSH1 0x0 DUP3 MLOAD PUSH2 0x1F19 DUP2 DUP5 PUSH1 0x20 DUP8 ADD PUSH2 0x2131 JUMP JUMPDEST SWAP2 SWAP1 SWAP2 ADD SWAP3 SWAP2 POP POP JUMP JUMPDEST PUSH1 0x0 PUSH1 0x20 DUP1 DUP4 ADD DUP2 DUP5 MSTORE DUP1 DUP6 MLOAD DUP1 DUP4 MSTORE PUSH1 0x40 SWAP3 POP DUP3 DUP7 ADD SWAP2 POP DUP3 DUP2 PUSH1 0x5 SHL DUP8 ADD ADD DUP5 DUP9 ADD PUSH1 0x0 JUMPDEST DUP4 DUP2 LT ISZERO PUSH2 0x1FBB JUMPI PUSH1 0x3F NOT DUP10 DUP5 SUB ADD DUP6 MSTORE DUP2 MLOAD PUSH1 0x80 DUP2 MLOAD DUP6 MSTORE DUP9 DUP3 ADD MLOAD DUP2 DUP11 DUP8 ADD MSTORE PUSH2 0x1F78 DUP3 DUP8 ADD DUP3 PUSH2 0x1EDB JUMP JUMPDEST DUP4 DUP11 ADD MLOAD PUSH1 0x1 PUSH1 0x1 PUSH1 0xA0 SHL SUB AND DUP8 DUP12 ADD MSTORE PUSH1 0x60 SWAP4 DUP5 ADD MLOAD DUP8 DUP3 SUB SWAP5 DUP9 ADD SWAP5 SWAP1 SWAP5 MSTORE SWAP2 POP PUSH2 0x1FA7 SWAP1 POP DUP2 DUP4 PUSH2 0x1EDB JUMP JUMPDEST SWAP7 DUP10 ADD SWAP7 SWAP5 POP POP POP SWAP1 DUP7 ADD SWAP1 PUSH1 0x1 ADD PUSH2 0x1F4A JUMP JUMPDEST POP SWAP1 SWAP9 SWAP8 POP POP POP POP POP POP POP POP JUMP JUMPDEST PUSH1 0x20 DUP2 MSTORE PUSH1 0x0 PUSH2 0x10FB PUSH1 0x20 DUP4 ADD DUP5 PUSH2 0x1EDB JUMP JUMPDEST PUSH1 0x60 DUP2 MSTORE PUSH1 0x0 PUSH2 0x1FEF PUSH1 0x60 DUP4 ADD DUP7 PUSH2 0x1EDB JUMP JUMPDEST PUSH1 0x1 PUSH1 0x1 PUSH1 0xA0 SHL SUB DUP6 AND PUSH1 0x20 DUP5 ADD MSTORE DUP3 DUP2 SUB PUSH1 0x40 DUP5 ADD MSTORE PUSH2 0x2010 DUP2 DUP6 PUSH2 0x1EDB JUMP JUMPDEST SWAP7 SWAP6 POP POP POP POP POP POP JUMP JUMPDEST PUSH1 0x60 DUP2 MSTORE PUSH1 0x0 PUSH2 0x202D PUSH1 0x60 DUP4 ADD DUP7 PUSH2 0x1EDB JUMP JUMPDEST DUP3 DUP2 SUB PUSH1 0x20 DUP5 ADD MSTORE PUSH2 0x203F DUP2 DUP7 PUSH2 0x1EDB JUMP JUMPDEST SWAP2 POP POP PUSH1 0x1 DUP1 PUSH1 0xA0 SHL SUB DUP4 AND PUSH1 0x40 DUP4 ADD MSTORE SWAP5 SWAP4 POP POP POP POP JUMP JUMPDEST PUSH1 0x20 DUP1 DUP3 MSTORE PUSH1 0x19 SWAP1 DUP3 ADD MSTORE PUSH32 0x5374696C6C20696E2074686520766F74696E6720706861736500000000000000 PUSH1 0x40 DUP3 ADD MSTORE PUSH1 0x60 ADD SWAP1 JUMP JUMPDEST PUSH1 0x20 DUP1 DUP3 MSTORE PUSH1 0x29 SWAP1 DUP3 ADD MSTORE PUSH32 0x7665546F6B656E204C657373207468616E2033302070657263656E74206F6620 PUSH1 0x40 DUP3 ADD MSTORE PUSH9 0x1D1A19481D1BDD185B PUSH1 0xBA SHL PUSH1 0x60 DUP3 ADD MSTORE PUSH1 0x80 ADD SWAP1 JUMP JUMPDEST PUSH1 0x0 DUP3 NOT DUP3 GT ISZERO PUSH2 0x20EB JUMPI PUSH2 0x20EB PUSH2 0x21AD JUMP JUMPDEST POP ADD SWAP1 JUMP JUMPDEST PUSH1 0x0 DUP3 PUSH2 0x210D JUMPI PUSH4 0x4E487B71 PUSH1 0xE0 SHL PUSH1 0x0 MSTORE PUSH1 0x12 PUSH1 0x4 MSTORE PUSH1 0x24 PUSH1 0x0 REVERT JUMPDEST POP DIV SWAP1 JUMP JUMPDEST PUSH1 0x0 DUP2 PUSH1 0x0 NOT DIV DUP4 GT DUP3 ISZERO ISZERO AND ISZERO PUSH2 0x212C JUMPI PUSH2 0x212C PUSH2 0x21AD JUMP JUMPDEST POP MUL SWAP1 JUMP JUMPDEST PUSH1 0x0 JUMPDEST DUP4 DUP2 LT ISZERO PUSH2 0x214C JUMPI DUP2 DUP2 ADD MLOAD DUP4 DUP3 ADD MSTORE PUSH1 0x20 ADD PUSH2 0x2134 JUMP JUMPDEST DUP4 DUP2 GT ISZERO PUSH2 0x1A3E JUMPI POP POP PUSH1 0x0 SWAP2 ADD MSTORE JUMP JUMPDEST PUSH1 0x1 DUP2 DUP2 SHR SWAP1 DUP3 AND DUP1 PUSH2 0x2171 JUMPI PUSH1 0x7F DUP3 AND SWAP2 POP JUMPDEST PUSH1 0x20 DUP3 LT DUP2 EQ ISZERO PUSH2 0x50D JUMPI PUSH4 0x4E487B71 PUSH1 0xE0 SHL PUSH1 0x0 MSTORE PUSH1 0x22 PUSH1 0x4 MSTORE PUSH1 0x24 PUSH1 0x0 REVERT JUMPDEST PUSH1 0x0 PUSH1 0x0 NOT DUP3 EQ ISZERO PUSH2 0x21A6 JUMPI PUSH2 0x21A6 PUSH2 0x21AD JUMP JUMPDEST POP PUSH1 0x1 ADD SWAP1 JUMP JUMPDEST PUSH4 0x4E487B71 PUSH1 0xE0 SHL PUSH1 0x0 MSTORE PUSH1 0x11 PUSH1 0x4 MSTORE PUSH1 0x24 PUSH1 0x0 REVERT JUMPDEST PUSH4 0x4E487B71 PUSH1 0xE0 SHL PUSH1 0x0 MSTORE PUSH1 0x21 PUSH1 0x4 MSTORE PUSH1 0x24 PUSH1 0x0 REVERT JUMPDEST PUSH4 0x4E487B71 PUSH1 0xE0 SHL PUSH1 0x0 MSTORE PUSH1 0x32 PUSH1 0x4 MSTORE PUSH1 0x24 PUSH1 0x0 REVERT JUMPDEST PUSH4 0x4E487B71 PUSH1 0xE0 SHL PUSH1 0x0 MSTORE PUSH1 0x41 PUSH1 0x4 MSTORE PUSH1 0x24 PUSH1 0x0 REVERT INVALID LOG2 PUSH5 0x6970667358 0x22 SLT KECCAK256 0xEA SWAP15 0xB6 SELFDESTRUCT SELFDESTRUCT 0xE7 ADD DUP9 0xB4 0xF9 0x2A 0xE4 0xE1 PUSH11 0xF7F6C50A1946208E1C8577 PUSH23 0x3EEA15AF403164736F6C63430008050033000000000000 "
				},
				"gasEstimates": {
					"creation": {
						"codeDepositCost": "1752600",
						"executionCost": "46053",
						"totalCost": "1798653"
					},
					"external": {
						"TemplateTotal()": "2384",
						"createVote(string,string,uint256,uint256)": "infinite",
						"delegateTo(uint256,address)": "infinite",
						"execute(uint256)": "infinite",
						"executeQueue(uint256)": "4665",
						"executeQueueMap(uint256)": "2463",
						"getTemplate()": "infinite",
						"getVoteDetailwithVoteId(uint256)": "infinite",
						"getVoteStatuswithVoteId(uint256)": "2589",
						"initialize()": "25554",
						"reject(uint256,string)": "infinite",
						"router()": "2381",
						"setGovernanceTemplate(string,address,string)": "infinite",
						"toVote(uint256,bool)": "infinite",
						"veToken()": "2405",
						"voteTatola()": "2362",
						"winningProposal(uint256)": "11061"
					},
					"internal": {
						"_execute(uint256,uint256,uint256)": "infinite",
						"_governanceTemplate(uint256,uint256)": "infinite"
					}
				},
				"methodIdentifiers": {
					"TemplateTotal()": "75c112a1",
					"createVote(string,string,uint256,uint256)": "f9d793d1",
					"delegateTo(uint256,address)": "fc7881c6",
					"execute(uint256)": "fe0d94c1",
					"executeQueue(uint256)": "52538550",
					"executeQueueMap(uint256)": "2c9e3ef0",
					"getTemplate()": "321c48f2",
					"getVoteDetailwithVoteId(uint256)": "74786f69",
					"getVoteStatuswithVoteId(uint256)": "d9ae5bd5",
					"initialize()": "8129fc1c",
					"reject(uint256,string)": "71d68a97",
					"router()": "f887ea40",
					"setGovernanceTemplate(string,address,string)": "e3a1c1c7",
					"toVote(uint256,bool)": "82214856",
					"veToken()": "3b92eb23",
					"voteTatola()": "75bb5b09",
					"winningProposal(uint256)": "bcd60f6c"
				}
			},
			"storageLayout": {
				"storage": [
					{
						"astId": 209,
						"contract": "contracts/Template/Istanbul10/logic/Vote.sol:Vote",
						"label": "voteTime",
						"offset": 0,
						"slot": "0",
						"type": "t_uint256"
					},
					{
						"astId": 212,
						"contract": "contracts/Template/Istanbul10/logic/Vote.sol:Vote",
						"label": "bufferTime",
						"offset": 0,
						"slot": "1",
						"type": "t_uint256"
					},
					{
						"astId": 214,
						"contract": "contracts/Template/Istanbul10/logic/Vote.sol:Vote",
						"label": "router",
						"offset": 0,
						"slot": "2",
						"type": "t_address"
					},
					{
						"astId": 217,
						"contract": "contracts/Template/Istanbul10/logic/Vote.sol:Vote",
						"label": "veToken",
						"offset": 0,
						"slot": "3",
						"type": "t_contract(VeTokenTest)1382"
					},
					{
						"astId": 219,
						"contract": "contracts/Template/Istanbul10/logic/Vote.sol:Vote",
						"label": "voteTatola",
						"offset": 0,
						"slot": "4",
						"type": "t_uint256"
					},
					{
						"astId": 222,
						"contract": "contracts/Template/Istanbul10/logic/Vote.sol:Vote",
						"label": "executeQueue",
						"offset": 0,
						"slot": "5",
						"type": "t_array(t_uint256)dyn_storage"
					},
					{
						"astId": 224,
						"contract": "contracts/Template/Istanbul10/logic/Vote.sol:Vote",
						"label": "TemplateTotal",
						"offset": 0,
						"slot": "6",
						"type": "t_uint256"
					},
					{
						"astId": 229,
						"contract": "contracts/Template/Istanbul10/logic/Vote.sol:Vote",
						"label": "voteMapp",
						"offset": 0,
						"slot": "7",
						"type": "t_mapping(t_uint256,t_struct(VoteStruct)270_storage)"
					},
					{
						"astId": 234,
						"contract": "contracts/Template/Istanbul10/logic/Vote.sol:Vote",
						"label": "Template",
						"offset": 0,
						"slot": "8",
						"type": "t_mapping(t_uint256,t_struct(GgovernanceTemplate)299_storage)"
					},
					{
						"astId": 238,
						"contract": "contracts/Template/Istanbul10/logic/Vote.sol:Vote",
						"label": "executeQueueMap",
						"offset": 0,
						"slot": "9",
						"type": "t_mapping(t_uint256,t_bool)"
					}
				],
				"types": {
					"t_address": {
						"encoding": "inplace",
						"label": "address",
						"numberOfBytes": "20"
					},
					"t_array(t_address)dyn_storage": {
						"base": "t_address",
						"encoding": "dynamic_array",
						"label": "address[]",
						"numberOfBytes": "32"
					},
					"t_array(t_uint256)dyn_storage": {
						"base": "t_uint256",
						"encoding": "dynamic_array",
						"label": "uint256[]",
						"numberOfBytes": "32"
					},
					"t_bool": {
						"encoding": "inplace",
						"label": "bool",
						"numberOfBytes": "1"
					},
					"t_contract(VeTokenTest)1382": {
						"encoding": "inplace",
						"label": "contract VeTokenTest",
						"numberOfBytes": "20"
					},
					"t_enum(VoteStatus)206": {
						"encoding": "inplace",
						"label": "enum VoteData.VoteStatus",
						"numberOfBytes": "1"
					},
					"t_mapping(t_address,t_struct(Delegate)290_storage)": {
						"encoding": "mapping",
						"key": "t_address",
						"label": "mapping(address => struct VoteData.Delegate)",
						"numberOfBytes": "32",
						"value": "t_struct(Delegate)290_storage"
					},
					"t_mapping(t_uint256,t_bool)": {
						"encoding": "mapping",
						"key": "t_uint256",
						"label": "mapping(uint256 => bool)",
						"numberOfBytes": "32",
						"value": "t_bool"
					},
					"t_mapping(t_uint256,t_struct(GgovernanceTemplate)299_storage)": {
						"encoding": "mapping",
						"key": "t_uint256",
						"label": "mapping(uint256 => struct VoteData.GgovernanceTemplate)",
						"numberOfBytes": "32",
						"value": "t_struct(GgovernanceTemplate)299_storage"
					},
					"t_mapping(t_uint256,t_struct(VoteStruct)270_storage)": {
						"encoding": "mapping",
						"key": "t_uint256",
						"label": "mapping(uint256 => struct VoteData.VoteStruct)",
						"numberOfBytes": "32",
						"value": "t_struct(VoteStruct)270_storage"
					},
					"t_string_storage": {
						"encoding": "bytes",
						"label": "string",
						"numberOfBytes": "32"
					},
					"t_struct(Delegate)290_storage": {
						"encoding": "inplace",
						"label": "struct VoteData.Delegate",
						"members": [
							{
								"astId": 286,
								"contract": "contracts/Template/Istanbul10/logic/Vote.sol:Vote",
								"label": "voted",
								"offset": 0,
								"slot": "0",
								"type": "t_bool"
							},
							{
								"astId": 289,
								"contract": "contracts/Template/Istanbul10/logic/Vote.sol:Vote",
								"label": "bailor",
								"offset": 0,
								"slot": "1",
								"type": "t_array(t_address)dyn_storage"
							}
						],
						"numberOfBytes": "64"
					},
					"t_struct(GgovernanceTemplate)299_storage": {
						"encoding": "inplace",
						"label": "struct VoteData.GgovernanceTemplate",
						"members": [
							{
								"astId": 292,
								"contract": "contracts/Template/Istanbul10/logic/Vote.sol:Vote",
								"label": "templateId",
								"offset": 0,
								"slot": "0",
								"type": "t_uint256"
							},
							{
								"astId": 294,
								"contract": "contracts/Template/Istanbul10/logic/Vote.sol:Vote",
								"label": "toppic",
								"offset": 0,
								"slot": "1",
								"type": "t_string_storage"
							},
							{
								"astId": 296,
								"contract": "contracts/Template/Istanbul10/logic/Vote.sol:Vote",
								"label": "targetAddress",
								"offset": 0,
								"slot": "2",
								"type": "t_address"
							},
							{
								"astId": 298,
								"contract": "contracts/Template/Istanbul10/logic/Vote.sol:Vote",
								"label": "functionName",
								"offset": 0,
								"slot": "3",
								"type": "t_string_storage"
							}
						],
						"numberOfBytes": "128"
					},
					"t_struct(SecondBallot)284_storage": {
						"encoding": "inplace",
						"label": "struct VoteData.SecondBallot",
						"members": [
							{
								"astId": 272,
								"contract": "contracts/Template/Istanbul10/logic/Vote.sol:Vote",
								"label": "vetoer",
								"offset": 0,
								"slot": "0",
								"type": "t_address"
							},
							{
								"astId": 274,
								"contract": "contracts/Template/Istanbul10/logic/Vote.sol:Vote",
								"label": "describe",
								"offset": 0,
								"slot": "1",
								"type": "t_string_storage"
							},
							{
								"astId": 276,
								"contract": "contracts/Template/Istanbul10/logic/Vote.sol:Vote",
								"label": "supPopel",
								"offset": 0,
								"slot": "2",
								"type": "t_uint256"
							},
							{
								"astId": 278,
								"contract": "contracts/Template/Istanbul10/logic/Vote.sol:Vote",
								"label": "againstPopel",
								"offset": 0,
								"slot": "3",
								"type": "t_uint256"
							},
							{
								"astId": 283,
								"contract": "contracts/Template/Istanbul10/logic/Vote.sol:Vote",
								"label": "VoterAddress",
								"offset": 0,
								"slot": "4",
								"type": "t_mapping(t_address,t_struct(Delegate)290_storage)"
							}
						],
						"numberOfBytes": "160"
					},
					"t_struct(VoteStruct)270_storage": {
						"encoding": "inplace",
						"label": "struct VoteData.VoteStruct",
						"members": [
							{
								"astId": 240,
								"contract": "contracts/Template/Istanbul10/logic/Vote.sol:Vote",
								"label": "totalsupply",
								"offset": 0,
								"slot": "0",
								"type": "t_uint256"
							},
							{
								"astId": 242,
								"contract": "contracts/Template/Istanbul10/logic/Vote.sol:Vote",
								"label": "voteId",
								"offset": 0,
								"slot": "1",
								"type": "t_uint256"
							},
							{
								"astId": 244,
								"contract": "contracts/Template/Istanbul10/logic/Vote.sol:Vote",
								"label": "time",
								"offset": 0,
								"slot": "2",
								"type": "t_uint256"
							},
							{
								"astId": 246,
								"contract": "contracts/Template/Istanbul10/logic/Vote.sol:Vote",
								"label": "voteTopic",
								"offset": 0,
								"slot": "3",
								"type": "t_string_storage"
							},
							{
								"astId": 248,
								"contract": "contracts/Template/Istanbul10/logic/Vote.sol:Vote",
								"label": "initiator",
								"offset": 0,
								"slot": "4",
								"type": "t_address"
							},
							{
								"astId": 250,
								"contract": "contracts/Template/Istanbul10/logic/Vote.sol:Vote",
								"label": "describe",
								"offset": 0,
								"slot": "5",
								"type": "t_string_storage"
							},
							{
								"astId": 252,
								"contract": "contracts/Template/Istanbul10/logic/Vote.sol:Vote",
								"label": "supPopel",
								"offset": 0,
								"slot": "6",
								"type": "t_uint256"
							},
							{
								"astId": 254,
								"contract": "contracts/Template/Istanbul10/logic/Vote.sol:Vote",
								"label": "againstPopel",
								"offset": 0,
								"slot": "7",
								"type": "t_uint256"
							},
							{
								"astId": 257,
								"contract": "contracts/Template/Istanbul10/logic/Vote.sol:Vote",
								"label": "status",
								"offset": 0,
								"slot": "8",
								"type": "t_enum(VoteStatus)206"
							},
							{
								"astId": 259,
								"contract": "contracts/Template/Istanbul10/logic/Vote.sol:Vote",
								"label": "codeModel",
								"offset": 0,
								"slot": "9",
								"type": "t_uint256"
							},
							{
								"astId": 261,
								"contract": "contracts/Template/Istanbul10/logic/Vote.sol:Vote",
								"label": "value",
								"offset": 0,
								"slot": "10",
								"type": "t_uint256"
							},
							{
								"astId": 266,
								"contract": "contracts/Template/Istanbul10/logic/Vote.sol:Vote",
								"label": "VoterAddress",
								"offset": 0,
								"slot": "11",
								"type": "t_mapping(t_address,t_struct(Delegate)290_storage)"
							},
							{
								"astId": 269,
								"contract": "contracts/Template/Istanbul10/logic/Vote.sol:Vote",
								"label": "svote",
								"offset": 0,
								"slot": "12",
								"type": "t_struct(SecondBallot)284_storage"
							}
						],
						"numberOfBytes": "544"
					},
					"t_uint256": {
						"encoding": "inplace",
						"label": "uint256",
						"numberOfBytes": "32"
					}
				}
			},
			"userdoc": {
				"kind": "user",
				"methods": {
					"createVote(string,string,uint256,uint256)": {
						"notice": "notion createVote. param  _codeModel  GovernanceTemplate ID."
					},
					"execute(uint256)": {
						"notice": "notion If the vote passes execute the proposal. param  _voteId   voteID"
					},
					"initialize()": {
						"notice": "notion initialize for First Creation. param  _veToken the  value for  connect veToken "
					},
					"reject(uint256,string)": {
						"notice": "notion rejecting the proposal. param  _voteId   VoteId param  _reasons   The reasons for rejecting the proposal"
					},
					"setGovernanceTemplate(string,address,string)": {
						"notice": "notion Templates should be set up before voting  "
					},
					"toVote(uint256,bool)": {
						"notice": "notion Vote. param  _voteId   VoteId param  _result  false or true "
					}
				},
				"version": 1
			}
		}
	}
}