{
	"contracts/Template/Istanbul10/data/VoteData.sol": {
		"VoteData": {
			"abi": [
				{
					"inputs": [],
					"name": "TemplateTotal",
					"outputs": [
						{
							"internalType": "uint256",
							"name": "",
							"type": "uint256"
						}
					],
					"stateMutability": "view",
					"type": "function"
				},
				{
					"inputs": [
						{
							"internalType": "uint256",
							"name": "",
							"type": "uint256"
						}
					],
					"name": "executeQueue",
					"outputs": [
						{
							"internalType": "uint256",
							"name": "",
							"type": "uint256"
						}
					],
					"stateMutability": "view",
					"type": "function"
				},
				{
					"inputs": [
						{
							"internalType": "uint256",
							"name": "",
							"type": "uint256"
						}
					],
					"name": "executeQueueMap",
					"outputs": [
						{
							"internalType": "bool",
							"name": "",
							"type": "bool"
						}
					],
					"stateMutability": "view",
					"type": "function"
				},
				{
					"inputs": [],
					"name": "router",
					"outputs": [
						{
							"internalType": "address",
							"name": "",
							"type": "address"
						}
					],
					"stateMutability": "view",
					"type": "function"
				},
				{
					"inputs": [],
					"name": "veToken",
					"outputs": [
						{
							"internalType": "contract VeTokenTest",
							"name": "",
							"type": "address"
						}
					],
					"stateMutability": "view",
					"type": "function"
				},
				{
					"inputs": [],
					"name": "voteTatola",
					"outputs": [
						{
							"internalType": "uint256",
							"name": "",
							"type": "uint256"
						}
					],
					"stateMutability": "view",
					"type": "function"
				}
			],
			"devdoc": {
				"kind": "dev",
				"methods": {},
				"version": 1
			},
			"evm": {
				"assembly": "    /* \"contracts/Template/Istanbul10/data/VoteData.sol\":108:1892  contract VoteData{ \r... */\n  mstore(0x40, 0x80)\n    /* \"contracts/Template/Istanbul10/data/VoteData.sol\":381:390  1 minutes */\n  0x3c\n    /* \"contracts/Template/Istanbul10/data/VoteData.sol\":362:390  uint256 voteTime = 1 minutes */\n  0x00\n  sstore\n    /* \"contracts/Template/Istanbul10/data/VoteData.sol\":460:469  1 minutes */\n  0x3c\n    /* \"contracts/Template/Istanbul10/data/VoteData.sol\":439:469  uint256 bufferTime = 1 minutes */\n  0x01\n  sstore\n    /* \"contracts/Template/Istanbul10/data/VoteData.sol\":108:1892  contract VoteData{ \r... */\n  callvalue\n  dup1\n  iszero\n  tag_1\n  jumpi\n  0x00\n  dup1\n  revert\ntag_1:\n  pop\n  dataSize(sub_0)\n  dup1\n  dataOffset(sub_0)\n  0x00\n  codecopy\n  0x00\n  return\nstop\n\nsub_0: assembly {\n        /* \"contracts/Template/Istanbul10/data/VoteData.sol\":108:1892  contract VoteData{ \r... */\n      mstore(0x40, 0x80)\n      callvalue\n      dup1\n      iszero\n      tag_1\n      jumpi\n      0x00\n      dup1\n      revert\n    tag_1:\n      pop\n      jumpi(tag_2, lt(calldatasize, 0x04))\n      shr(0xe0, calldataload(0x00))\n      dup1\n      0x2c9e3ef0\n      eq\n      tag_3\n      jumpi\n      dup1\n      0x3b92eb23\n      eq\n      tag_4\n      jumpi\n      dup1\n      0x52538550\n      eq\n      tag_5\n      jumpi\n      dup1\n      0x75bb5b09\n      eq\n      tag_6\n      jumpi\n      dup1\n      0x75c112a1\n      eq\n      tag_7\n      jumpi\n      dup1\n      0xf887ea40\n      eq\n      tag_8\n      jumpi\n    tag_2:\n      0x00\n      dup1\n      revert\n        /* \"contracts/Template/Istanbul10/data/VoteData.sol\":746:793  mapping(uint256 => bool) public executeQueueMap */\n    tag_3:\n      tag_9\n      tag_10\n      calldatasize\n      0x04\n      tag_11\n      jump\t// in\n    tag_10:\n      mstore(0x20, 0x09)\n      0x00\n      swap1\n      dup2\n      mstore\n      0x40\n      swap1\n      keccak256\n      sload\n      0xff\n      and\n      dup2\n      jump\n    tag_9:\n      mload(0x40)\n        /* \"#utility.yul\":572:586   */\n      swap1\n      iszero\n        /* \"#utility.yul\":565:587   */\n      iszero\n        /* \"#utility.yul\":547:588   */\n      dup2\n      mstore\n        /* \"#utility.yul\":535:537   */\n      0x20\n        /* \"#utility.yul\":520:538   */\n      add\n        /* \"contracts/Template/Istanbul10/data/VoteData.sol\":746:793  mapping(uint256 => bool) public executeQueueMap */\n    tag_13:\n      mload(0x40)\n      dup1\n      swap2\n      sub\n      swap1\n      return\n        /* \"contracts/Template/Istanbul10/data/VoteData.sol\":510:536  VeTokenTest public veToken */\n    tag_4:\n      sload(0x03)\n      tag_15\n      swap1\n      sub(shl(0xa0, 0x01), 0x01)\n      and\n      dup2\n      jump\n    tag_15:\n      mload(0x40)\n      sub(shl(0xa0, 0x01), 0x01)\n        /* \"#utility.yul\":363:395   */\n      swap1\n      swap2\n      and\n        /* \"#utility.yul\":345:396   */\n      dup2\n      mstore\n        /* \"#utility.yul\":333:335   */\n      0x20\n        /* \"#utility.yul\":318:336   */\n      add\n        /* \"contracts/Template/Istanbul10/data/VoteData.sol\":510:536  VeTokenTest public veToken */\n      tag_13\n        /* \"#utility.yul\":300:402   */\n      jump\n        /* \"contracts/Template/Istanbul10/data/VoteData.sol\":572:602  uint256[] public  executeQueue */\n    tag_5:\n      tag_19\n      tag_20\n      calldatasize\n      0x04\n      tag_11\n      jump\t// in\n    tag_20:\n      tag_21\n      jump\t// in\n    tag_19:\n      mload(0x40)\n        /* \"#utility.yul\":973:998   */\n      swap1\n      dup2\n      mstore\n        /* \"#utility.yul\":961:963   */\n      0x20\n        /* \"#utility.yul\":946:964   */\n      add\n        /* \"contracts/Template/Istanbul10/data/VoteData.sol\":572:602  uint256[] public  executeQueue */\n      tag_13\n        /* \"#utility.yul\":928:1004   */\n      jump\n        /* \"contracts/Template/Istanbul10/data/VoteData.sol\":543:565  uint public voteTatola */\n    tag_6:\n      tag_19\n      sload(0x04)\n      dup2\n      jump\n        /* \"contracts/Template/Istanbul10/data/VoteData.sol\":609:639  uint256  public  TemplateTotal */\n    tag_7:\n      tag_19\n      sload(0x06)\n      dup2\n      jump\n        /* \"contracts/Template/Istanbul10/data/VoteData.sol\":482:503  address public router */\n    tag_8:\n      sload(0x02)\n      tag_15\n      swap1\n      sub(shl(0xa0, 0x01), 0x01)\n      and\n      dup2\n      jump\n        /* \"contracts/Template/Istanbul10/data/VoteData.sol\":572:602  uint256[] public  executeQueue */\n    tag_21:\n      0x05\n      dup2\n      dup2\n      sload\n      dup2\n      lt\n      tag_34\n      jumpi\n      0x00\n      dup1\n      revert\n    tag_34:\n      0x00\n      swap2\n      dup3\n      mstore\n      0x20\n      swap1\n      swap2\n      keccak256\n      add\n      sload\n      swap1\n      pop\n      dup2\n      jump\t// out\n        /* \"#utility.yul\":14:194   */\n    tag_11:\n        /* \"#utility.yul\":73:79   */\n      0x00\n        /* \"#utility.yul\":126:128   */\n      0x20\n        /* \"#utility.yul\":114:123   */\n      dup3\n        /* \"#utility.yul\":105:112   */\n      dup5\n        /* \"#utility.yul\":101:124   */\n      sub\n        /* \"#utility.yul\":97:129   */\n      slt\n        /* \"#utility.yul\":94:96   */\n      iszero\n      tag_38\n      jumpi\n        /* \"#utility.yul\":142:143   */\n      0x00\n        /* \"#utility.yul\":139:140   */\n      dup1\n        /* \"#utility.yul\":132:144   */\n      revert\n        /* \"#utility.yul\":94:96   */\n    tag_38:\n      pop\n        /* \"#utility.yul\":165:188   */\n      calldataload\n      swap2\n        /* \"#utility.yul\":84:194   */\n      swap1\n      pop\n      jump\t// out\n\n    auxdata: 0xa26469706673582212206d371d18fd690db61cfa6a2d8149f42f41016b7e57e9ffabbc0070b1103a073964736f6c63430008050033\n}\n",
				"bytecode": {
					"linkReferences": {},
					"object": "6080604052603c600055603c60015534801561001a57600080fd5b506101808061002a6000396000f3fe608060405234801561001057600080fd5b50600436106100625760003560e01c80632c9e3ef0146100675780633b92eb231461009f57806352538550146100ca57806375bb5b09146100eb57806375c112a1146100f4578063f887ea40146100fd575b600080fd5b61008a610075366004610131565b60096020526000908152604090205460ff1681565b60405190151581526020015b60405180910390f35b6003546100b2906001600160a01b031681565b6040516001600160a01b039091168152602001610096565b6100dd6100d8366004610131565b610110565b604051908152602001610096565b6100dd60045481565b6100dd60065481565b6002546100b2906001600160a01b031681565b6005818154811061012057600080fd5b600091825260209091200154905081565b60006020828403121561014357600080fd5b503591905056fea26469706673582212206d371d18fd690db61cfa6a2d8149f42f41016b7e57e9ffabbc0070b1103a073964736f6c63430008050033",
					"opcodes": "PUSH1 0x80 PUSH1 0x40 MSTORE PUSH1 0x3C PUSH1 0x0 SSTORE PUSH1 0x3C PUSH1 0x1 SSTORE CALLVALUE DUP1 ISZERO PUSH2 0x1A JUMPI PUSH1 0x0 DUP1 REVERT JUMPDEST POP PUSH2 0x180 DUP1 PUSH2 0x2A PUSH1 0x0 CODECOPY PUSH1 0x0 RETURN INVALID PUSH1 0x80 PUSH1 0x40 MSTORE CALLVALUE DUP1 ISZERO PUSH2 0x10 JUMPI PUSH1 0x0 DUP1 REVERT JUMPDEST POP PUSH1 0x4 CALLDATASIZE LT PUSH2 0x62 JUMPI PUSH1 0x0 CALLDATALOAD PUSH1 0xE0 SHR DUP1 PUSH4 0x2C9E3EF0 EQ PUSH2 0x67 JUMPI DUP1 PUSH4 0x3B92EB23 EQ PUSH2 0x9F JUMPI DUP1 PUSH4 0x52538550 EQ PUSH2 0xCA JUMPI DUP1 PUSH4 0x75BB5B09 EQ PUSH2 0xEB JUMPI DUP1 PUSH4 0x75C112A1 EQ PUSH2 0xF4 JUMPI DUP1 PUSH4 0xF887EA40 EQ PUSH2 0xFD JUMPI JUMPDEST PUSH1 0x0 DUP1 REVERT JUMPDEST PUSH2 0x8A PUSH2 0x75 CALLDATASIZE PUSH1 0x4 PUSH2 0x131 JUMP JUMPDEST PUSH1 0x9 PUSH1 0x20 MSTORE PUSH1 0x0 SWAP1 DUP2 MSTORE PUSH1 0x40 SWAP1 KECCAK256 SLOAD PUSH1 0xFF AND DUP2 JUMP JUMPDEST PUSH1 0x40 MLOAD SWAP1 ISZERO ISZERO DUP2 MSTORE PUSH1 0x20 ADD JUMPDEST PUSH1 0x40 MLOAD DUP1 SWAP2 SUB SWAP1 RETURN JUMPDEST PUSH1 0x3 SLOAD PUSH2 0xB2 SWAP1 PUSH1 0x1 PUSH1 0x1 PUSH1 0xA0 SHL SUB AND DUP2 JUMP JUMPDEST PUSH1 0x40 MLOAD PUSH1 0x1 PUSH1 0x1 PUSH1 0xA0 SHL SUB SWAP1 SWAP2 AND DUP2 MSTORE PUSH1 0x20 ADD PUSH2 0x96 JUMP JUMPDEST PUSH2 0xDD PUSH2 0xD8 CALLDATASIZE PUSH1 0x4 PUSH2 0x131 JUMP JUMPDEST PUSH2 0x110 JUMP JUMPDEST PUSH1 0x40 MLOAD SWAP1 DUP2 MSTORE PUSH1 0x20 ADD PUSH2 0x96 JUMP JUMPDEST PUSH2 0xDD PUSH1 0x4 SLOAD DUP2 JUMP JUMPDEST PUSH2 0xDD PUSH1 0x6 SLOAD DUP2 JUMP JUMPDEST PUSH1 0x2 SLOAD PUSH2 0xB2 SWAP1 PUSH1 0x1 PUSH1 0x1 PUSH1 0xA0 SHL SUB AND DUP2 JUMP JUMPDEST PUSH1 0x5 DUP2 DUP2 SLOAD DUP2 LT PUSH2 0x120 JUMPI PUSH1 0x0 DUP1 REVERT JUMPDEST PUSH1 0x0 SWAP2 DUP3 MSTORE PUSH1 0x20 SWAP1 SWAP2 KECCAK256 ADD SLOAD SWAP1 POP DUP2 JUMP JUMPDEST PUSH1 0x0 PUSH1 0x20 DUP3 DUP5 SUB SLT ISZERO PUSH2 0x143 JUMPI PUSH1 0x0 DUP1 REVERT JUMPDEST POP CALLDATALOAD SWAP2 SWAP1 POP JUMP INVALID LOG2 PUSH5 0x6970667358 0x22 SLT KECCAK256 PUSH14 0x371D18FD690DB61CFA6A2D8149F4 0x2F COINBASE ADD PUSH12 0x7E57E9FFABBC0070B1103A07 CODECOPY PUSH5 0x736F6C6343 STOP ADDMOD SDIV STOP CALLER "
				},
				"gasEstimates": {
					"creation": {
						"codeDepositCost": "76800",
						"executionCost": "44335",
						"totalCost": "121135"
					},
					"external": {
						"TemplateTotal()": "2361",
						"executeQueue(uint256)": "4597",
						"executeQueueMap(uint256)": "2417",
						"router()": "2425",
						"veToken()": "2337",
						"voteTatola()": "2339"
					}
				},
				"methodIdentifiers": {
					"TemplateTotal()": "75c112a1",
					"executeQueue(uint256)": "52538550",
					"executeQueueMap(uint256)": "2c9e3ef0",
					"router()": "f887ea40",
					"veToken()": "3b92eb23",
					"voteTatola()": "75bb5b09"
				}
			},
			"storageLayout": {
				"storage": [
					{
						"astId": 209,
						"contract": "contracts/Template/Istanbul10/data/VoteData.sol:VoteData",
						"label": "voteTime",
						"offset": 0,
						"slot": "0",
						"type": "t_uint256"
					},
					{
						"astId": 212,
						"contract": "contracts/Template/Istanbul10/data/VoteData.sol:VoteData",
						"label": "bufferTime",
						"offset": 0,
						"slot": "1",
						"type": "t_uint256"
					},
					{
						"astId": 214,
						"contract": "contracts/Template/Istanbul10/data/VoteData.sol:VoteData",
						"label": "router",
						"offset": 0,
						"slot": "2",
						"type": "t_address"
					},
					{
						"astId": 217,
						"contract": "contracts/Template/Istanbul10/data/VoteData.sol:VoteData",
						"label": "veToken",
						"offset": 0,
						"slot": "3",
						"type": "t_contract(VeTokenTest)1382"
					},
					{
						"astId": 219,
						"contract": "contracts/Template/Istanbul10/data/VoteData.sol:VoteData",
						"label": "voteTatola",
						"offset": 0,
						"slot": "4",
						"type": "t_uint256"
					},
					{
						"astId": 222,
						"contract": "contracts/Template/Istanbul10/data/VoteData.sol:VoteData",
						"label": "executeQueue",
						"offset": 0,
						"slot": "5",
						"type": "t_array(t_uint256)dyn_storage"
					},
					{
						"astId": 224,
						"contract": "contracts/Template/Istanbul10/data/VoteData.sol:VoteData",
						"label": "TemplateTotal",
						"offset": 0,
						"slot": "6",
						"type": "t_uint256"
					},
					{
						"astId": 229,
						"contract": "contracts/Template/Istanbul10/data/VoteData.sol:VoteData",
						"label": "voteMapp",
						"offset": 0,
						"slot": "7",
						"type": "t_mapping(t_uint256,t_struct(VoteStruct)270_storage)"
					},
					{
						"astId": 234,
						"contract": "contracts/Template/Istanbul10/data/VoteData.sol:VoteData",
						"label": "Template",
						"offset": 0,
						"slot": "8",
						"type": "t_mapping(t_uint256,t_struct(GgovernanceTemplate)299_storage)"
					},
					{
						"astId": 238,
						"contract": "contracts/Template/Istanbul10/data/VoteData.sol:VoteData",
						"label": "executeQueueMap",
						"offset": 0,
						"slot": "9",
						"type": "t_mapping(t_uint256,t_bool)"
					}
				],
				"types": {
					"t_address": {
						"encoding": "inplace",
						"label": "address",
						"numberOfBytes": "20"
					},
					"t_array(t_address)dyn_storage": {
						"base": "t_address",
						"encoding": "dynamic_array",
						"label": "address[]",
						"numberOfBytes": "32"
					},
					"t_array(t_uint256)dyn_storage": {
						"base": "t_uint256",
						"encoding": "dynamic_array",
						"label": "uint256[]",
						"numberOfBytes": "32"
					},
					"t_bool": {
						"encoding": "inplace",
						"label": "bool",
						"numberOfBytes": "1"
					},
					"t_contract(VeTokenTest)1382": {
						"encoding": "inplace",
						"label": "contract VeTokenTest",
						"numberOfBytes": "20"
					},
					"t_enum(VoteStatus)206": {
						"encoding": "inplace",
						"label": "enum VoteData.VoteStatus",
						"numberOfBytes": "1"
					},
					"t_mapping(t_address,t_struct(Delegate)290_storage)": {
						"encoding": "mapping",
						"key": "t_address",
						"label": "mapping(address => struct VoteData.Delegate)",
						"numberOfBytes": "32",
						"value": "t_struct(Delegate)290_storage"
					},
					"t_mapping(t_uint256,t_bool)": {
						"encoding": "mapping",
						"key": "t_uint256",
						"label": "mapping(uint256 => bool)",
						"numberOfBytes": "32",
						"value": "t_bool"
					},
					"t_mapping(t_uint256,t_struct(GgovernanceTemplate)299_storage)": {
						"encoding": "mapping",
						"key": "t_uint256",
						"label": "mapping(uint256 => struct VoteData.GgovernanceTemplate)",
						"numberOfBytes": "32",
						"value": "t_struct(GgovernanceTemplate)299_storage"
					},
					"t_mapping(t_uint256,t_struct(VoteStruct)270_storage)": {
						"encoding": "mapping",
						"key": "t_uint256",
						"label": "mapping(uint256 => struct VoteData.VoteStruct)",
						"numberOfBytes": "32",
						"value": "t_struct(VoteStruct)270_storage"
					},
					"t_string_storage": {
						"encoding": "bytes",
						"label": "string",
						"numberOfBytes": "32"
					},
					"t_struct(Delegate)290_storage": {
						"encoding": "inplace",
						"label": "struct VoteData.Delegate",
						"members": [
							{
								"astId": 286,
								"contract": "contracts/Template/Istanbul10/data/VoteData.sol:VoteData",
								"label": "voted",
								"offset": 0,
								"slot": "0",
								"type": "t_bool"
							},
							{
								"astId": 289,
								"contract": "contracts/Template/Istanbul10/data/VoteData.sol:VoteData",
								"label": "bailor",
								"offset": 0,
								"slot": "1",
								"type": "t_array(t_address)dyn_storage"
							}
						],
						"numberOfBytes": "64"
					},
					"t_struct(GgovernanceTemplate)299_storage": {
						"encoding": "inplace",
						"label": "struct VoteData.GgovernanceTemplate",
						"members": [
							{
								"astId": 292,
								"contract": "contracts/Template/Istanbul10/data/VoteData.sol:VoteData",
								"label": "templateId",
								"offset": 0,
								"slot": "0",
								"type": "t_uint256"
							},
							{
								"astId": 294,
								"contract": "contracts/Template/Istanbul10/data/VoteData.sol:VoteData",
								"label": "toppic",
								"offset": 0,
								"slot": "1",
								"type": "t_string_storage"
							},
							{
								"astId": 296,
								"contract": "contracts/Template/Istanbul10/data/VoteData.sol:VoteData",
								"label": "targetAddress",
								"offset": 0,
								"slot": "2",
								"type": "t_address"
							},
							{
								"astId": 298,
								"contract": "contracts/Template/Istanbul10/data/VoteData.sol:VoteData",
								"label": "functionName",
								"offset": 0,
								"slot": "3",
								"type": "t_string_storage"
							}
						],
						"numberOfBytes": "128"
					},
					"t_struct(SecondBallot)284_storage": {
						"encoding": "inplace",
						"label": "struct VoteData.SecondBallot",
						"members": [
							{
								"astId": 272,
								"contract": "contracts/Template/Istanbul10/data/VoteData.sol:VoteData",
								"label": "vetoer",
								"offset": 0,
								"slot": "0",
								"type": "t_address"
							},
							{
								"astId": 274,
								"contract": "contracts/Template/Istanbul10/data/VoteData.sol:VoteData",
								"label": "describe",
								"offset": 0,
								"slot": "1",
								"type": "t_string_storage"
							},
							{
								"astId": 276,
								"contract": "contracts/Template/Istanbul10/data/VoteData.sol:VoteData",
								"label": "supPopel",
								"offset": 0,
								"slot": "2",
								"type": "t_uint256"
							},
							{
								"astId": 278,
								"contract": "contracts/Template/Istanbul10/data/VoteData.sol:VoteData",
								"label": "againstPopel",
								"offset": 0,
								"slot": "3",
								"type": "t_uint256"
							},
							{
								"astId": 283,
								"contract": "contracts/Template/Istanbul10/data/VoteData.sol:VoteData",
								"label": "VoterAddress",
								"offset": 0,
								"slot": "4",
								"type": "t_mapping(t_address,t_struct(Delegate)290_storage)"
							}
						],
						"numberOfBytes": "160"
					},
					"t_struct(VoteStruct)270_storage": {
						"encoding": "inplace",
						"label": "struct VoteData.VoteStruct",
						"members": [
							{
								"astId": 240,
								"contract": "contracts/Template/Istanbul10/data/VoteData.sol:VoteData",
								"label": "totalsupply",
								"offset": 0,
								"slot": "0",
								"type": "t_uint256"
							},
							{
								"astId": 242,
								"contract": "contracts/Template/Istanbul10/data/VoteData.sol:VoteData",
								"label": "voteId",
								"offset": 0,
								"slot": "1",
								"type": "t_uint256"
							},
							{
								"astId": 244,
								"contract": "contracts/Template/Istanbul10/data/VoteData.sol:VoteData",
								"label": "time",
								"offset": 0,
								"slot": "2",
								"type": "t_uint256"
							},
							{
								"astId": 246,
								"contract": "contracts/Template/Istanbul10/data/VoteData.sol:VoteData",
								"label": "voteTopic",
								"offset": 0,
								"slot": "3",
								"type": "t_string_storage"
							},
							{
								"astId": 248,
								"contract": "contracts/Template/Istanbul10/data/VoteData.sol:VoteData",
								"label": "initiator",
								"offset": 0,
								"slot": "4",
								"type": "t_address"
							},
							{
								"astId": 250,
								"contract": "contracts/Template/Istanbul10/data/VoteData.sol:VoteData",
								"label": "describe",
								"offset": 0,
								"slot": "5",
								"type": "t_string_storage"
							},
							{
								"astId": 252,
								"contract": "contracts/Template/Istanbul10/data/VoteData.sol:VoteData",
								"label": "supPopel",
								"offset": 0,
								"slot": "6",
								"type": "t_uint256"
							},
							{
								"astId": 254,
								"contract": "contracts/Template/Istanbul10/data/VoteData.sol:VoteData",
								"label": "againstPopel",
								"offset": 0,
								"slot": "7",
								"type": "t_uint256"
							},
							{
								"astId": 257,
								"contract": "contracts/Template/Istanbul10/data/VoteData.sol:VoteData",
								"label": "status",
								"offset": 0,
								"slot": "8",
								"type": "t_enum(VoteStatus)206"
							},
							{
								"astId": 259,
								"contract": "contracts/Template/Istanbul10/data/VoteData.sol:VoteData",
								"label": "codeModel",
								"offset": 0,
								"slot": "9",
								"type": "t_uint256"
							},
							{
								"astId": 261,
								"contract": "contracts/Template/Istanbul10/data/VoteData.sol:VoteData",
								"label": "value",
								"offset": 0,
								"slot": "10",
								"type": "t_uint256"
							},
							{
								"astId": 266,
								"contract": "contracts/Template/Istanbul10/data/VoteData.sol:VoteData",
								"label": "VoterAddress",
								"offset": 0,
								"slot": "11",
								"type": "t_mapping(t_address,t_struct(Delegate)290_storage)"
							},
							{
								"astId": 269,
								"contract": "contracts/Template/Istanbul10/data/VoteData.sol:VoteData",
								"label": "svote",
								"offset": 0,
								"slot": "12",
								"type": "t_struct(SecondBallot)284_storage"
							}
						],
						"numberOfBytes": "544"
					},
					"t_uint256": {
						"encoding": "inplace",
						"label": "uint256",
						"numberOfBytes": "32"
					}
				}
			},
			"userdoc": {
				"kind": "user",
				"methods": {},
				"version": 1
			}
		}
	}
}