{
	"contracts/test/VeTokenTest.sol": {
		"VeTokenTest": {
			"abi": [
				{
					"inputs": [
						{
							"internalType": "address",
							"name": "add",
							"type": "address"
						}
					],
					"name": "balanceOf",
					"outputs": [
						{
							"internalType": "uint256",
							"name": "result",
							"type": "uint256"
						}
					],
					"stateMutability": "view",
					"type": "function"
				},
				{
					"inputs": [],
					"name": "circulation",
					"outputs": [
						{
							"internalType": "uint256",
							"name": "",
							"type": "uint256"
						}
					],
					"stateMutability": "view",
					"type": "function"
				},
				{
					"inputs": [],
					"name": "maxTime",
					"outputs": [
						{
							"internalType": "uint256",
							"name": "",
							"type": "uint256"
						}
					],
					"stateMutability": "view",
					"type": "function"
				},
				{
					"inputs": [],
					"name": "pledge",
					"outputs": [],
					"stateMutability": "nonpayable",
					"type": "function"
				},
				{
					"inputs": [
						{
							"internalType": "uint256",
							"name": "value",
							"type": "uint256"
						}
					],
					"name": "setMaxTime",
					"outputs": [],
					"stateMutability": "nonpayable",
					"type": "function"
				},
				{
					"inputs": [],
					"name": "totalSupply",
					"outputs": [
						{
							"internalType": "uint256",
							"name": "result",
							"type": "uint256"
						}
					],
					"stateMutability": "view",
					"type": "function"
				}
			],
			"devdoc": {
				"kind": "dev",
				"methods": {},
				"version": 1
			},
			"evm": {
				"assembly": "    /* \"contracts/test/VeTokenTest.sol\":60:562  contract VeTokenTest {\r... */\n  mstore(0x40, 0x80)\n  callvalue\n  dup1\n  iszero\n  tag_1\n  jumpi\n  0x00\n  dup1\n  revert\ntag_1:\n  pop\n  dataSize(sub_0)\n  dup1\n  dataOffset(sub_0)\n  0x00\n  codecopy\n  0x00\n  return\nstop\n\nsub_0: assembly {\n        /* \"contracts/test/VeTokenTest.sol\":60:562  contract VeTokenTest {\r... */\n      mstore(0x40, 0x80)\n      callvalue\n      dup1\n      iszero\n      tag_1\n      jumpi\n      0x00\n      dup1\n      revert\n    tag_1:\n      pop\n      jumpi(tag_2, lt(calldatasize, 0x04))\n      shr(0xe0, calldataload(0x00))\n      dup1\n      0x18160ddd\n      eq\n      tag_3\n      jumpi\n      dup1\n      0x22e67e71\n      eq\n      tag_4\n      jumpi\n      dup1\n      0x5fdf60fb\n      eq\n      tag_5\n      jumpi\n      dup1\n      0x70a08231\n      eq\n      tag_6\n      jumpi\n      dup1\n      0x88ffe867\n      eq\n      tag_7\n      jumpi\n      dup1\n      0x98b777e7\n      eq\n      tag_8\n      jumpi\n    tag_2:\n      0x00\n      dup1\n      revert\n        /* \"contracts/test/VeTokenTest.sol\":388:479  function  totalSupply()public view returns(uint256 result){\r... */\n    tag_3:\n        /* \"contracts/test/VeTokenTest.sol\":462:473  circulation */\n      sload(0x01)\n        /* \"contracts/test/VeTokenTest.sol\":388:479  function  totalSupply()public view returns(uint256 result){\r... */\n    tag_9:\n      mload(0x40)\n        /* \"#utility.yul\":636:661   */\n      swap1\n      dup2\n      mstore\n        /* \"#utility.yul\":624:626   */\n      0x20\n        /* \"#utility.yul\":609:627   */\n      add\n        /* \"contracts/test/VeTokenTest.sol\":388:479  function  totalSupply()public view returns(uint256 result){\r... */\n      mload(0x40)\n      dup1\n      swap2\n      sub\n      swap1\n      return\n        /* \"contracts/test/VeTokenTest.sol\":158:180  uint256 public maxTime */\n    tag_4:\n      tag_9\n      sload(0x02)\n      dup2\n      jump\n        /* \"contracts/test/VeTokenTest.sol\":126:153  uint256  public circulation */\n    tag_5:\n      tag_9\n      sload(0x01)\n      dup2\n      jump\n        /* \"contracts/test/VeTokenTest.sol\":281:381  function balanceOf(address add)public view returns(uint256 result){\r... */\n    tag_6:\n      tag_9\n      tag_20\n      calldatasize\n      0x04\n      tag_21\n      jump\t// in\n    tag_20:\n      sub(shl(0xa0, 0x01), 0x01)\n        /* \"contracts/test/VeTokenTest.sol\":363:375  balance[add] */\n      and\n        /* \"contracts/test/VeTokenTest.sol\":332:346  uint256 result */\n      0x00\n        /* \"contracts/test/VeTokenTest.sol\":363:375  balance[add] */\n      swap1\n      dup2\n      mstore\n      0x20\n      dup2\n      swap1\n      mstore\n      0x40\n      swap1\n      keccak256\n      sload\n      swap1\n        /* \"contracts/test/VeTokenTest.sol\":281:381  function balanceOf(address add)public view returns(uint256 result){\r... */\n      jump\n        /* \"contracts/test/VeTokenTest.sol\":187:275  function pledge()public {\r... */\n    tag_7:\n      tag_24\n      tag_25\n      jump\t// in\n    tag_24:\n      stop\n        /* \"contracts/test/VeTokenTest.sol\":486:559  function  setMaxTime(uint256 value)public {\r... */\n    tag_8:\n      tag_24\n      tag_27\n      calldatasize\n      0x04\n      tag_28\n      jump\t// in\n    tag_27:\n        /* \"contracts/test/VeTokenTest.sol\":538:545  maxTime */\n      0x02\n        /* \"contracts/test/VeTokenTest.sol\":538:553  maxTime = value */\n      sstore\n        /* \"contracts/test/VeTokenTest.sol\":486:559  function  setMaxTime(uint256 value)public {\r... */\n      jump\n        /* \"contracts/test/VeTokenTest.sol\":187:275  function pledge()public {\r... */\n    tag_25:\n        /* \"contracts/test/VeTokenTest.sol\":226:236  msg.sender */\n      caller\n        /* \"contracts/test/VeTokenTest.sol\":218:225  balance */\n      0x00\n        /* \"contracts/test/VeTokenTest.sol\":218:237  balance[msg.sender] */\n      swap1\n      dup2\n      mstore\n      0x20\n      dup2\n      swap1\n      mstore\n      0x40\n      dup2\n      keccak256\n        /* \"contracts/test/VeTokenTest.sol\":240:244  2000 */\n      0x07d0\n        /* \"contracts/test/VeTokenTest.sol\":218:244  balance[msg.sender] = 2000 */\n      swap1\n      sstore\n        /* \"contracts/test/VeTokenTest.sol\":251:262  circulation */\n      0x01\n        /* \"contracts/test/VeTokenTest.sol\":251:268  circulation += 20 */\n      dup1\n      sload\n        /* \"contracts/test/VeTokenTest.sol\":266:268  20 */\n      0x14\n      swap3\n        /* \"contracts/test/VeTokenTest.sol\":218:225  balance */\n      swap1\n        /* \"contracts/test/VeTokenTest.sol\":251:268  circulation += 20 */\n      tag_33\n      swap1\n        /* \"contracts/test/VeTokenTest.sol\":266:268  20 */\n      dup5\n      swap1\n        /* \"contracts/test/VeTokenTest.sol\":251:268  circulation += 20 */\n      tag_34\n      jump\t// in\n    tag_33:\n      swap1\n      swap2\n      sstore\n      pop\n      pop\n        /* \"contracts/test/VeTokenTest.sol\":187:275  function pledge()public {\r... */\n      jump\t// out\n        /* \"#utility.yul\":14:300   */\n    tag_21:\n        /* \"#utility.yul\":73:79   */\n      0x00\n        /* \"#utility.yul\":126:128   */\n      0x20\n        /* \"#utility.yul\":114:123   */\n      dup3\n        /* \"#utility.yul\":105:112   */\n      dup5\n        /* \"#utility.yul\":101:124   */\n      sub\n        /* \"#utility.yul\":97:129   */\n      slt\n        /* \"#utility.yul\":94:96   */\n      iszero\n      tag_38\n      jumpi\n        /* \"#utility.yul\":142:143   */\n      0x00\n        /* \"#utility.yul\":139:140   */\n      dup1\n        /* \"#utility.yul\":132:144   */\n      revert\n        /* \"#utility.yul\":94:96   */\n    tag_38:\n        /* \"#utility.yul\":168:191   */\n      dup2\n      calldataload\n      sub(shl(0xa0, 0x01), 0x01)\n        /* \"#utility.yul\":220:251   */\n      dup2\n      and\n        /* \"#utility.yul\":210:252   */\n      dup2\n      eq\n        /* \"#utility.yul\":200:202   */\n      tag_39\n      jumpi\n        /* \"#utility.yul\":266:267   */\n      0x00\n        /* \"#utility.yul\":263:264   */\n      dup1\n        /* \"#utility.yul\":256:268   */\n      revert\n        /* \"#utility.yul\":200:202   */\n    tag_39:\n        /* \"#utility.yul\":289:294   */\n      swap4\n        /* \"#utility.yul\":84:300   */\n      swap3\n      pop\n      pop\n      pop\n      jump\t// out\n        /* \"#utility.yul\":305:485   */\n    tag_28:\n        /* \"#utility.yul\":364:370   */\n      0x00\n        /* \"#utility.yul\":417:419   */\n      0x20\n        /* \"#utility.yul\":405:414   */\n      dup3\n        /* \"#utility.yul\":396:403   */\n      dup5\n        /* \"#utility.yul\":392:415   */\n      sub\n        /* \"#utility.yul\":388:420   */\n      slt\n        /* \"#utility.yul\":385:387   */\n      iszero\n      tag_41\n      jumpi\n        /* \"#utility.yul\":433:434   */\n      0x00\n        /* \"#utility.yul\":430:431   */\n      dup1\n        /* \"#utility.yul\":423:435   */\n      revert\n        /* \"#utility.yul\":385:387   */\n    tag_41:\n      pop\n        /* \"#utility.yul\":456:479   */\n      calldataload\n      swap2\n        /* \"#utility.yul\":375:485   */\n      swap1\n      pop\n      jump\t// out\n        /* \"#utility.yul\":672:897   */\n    tag_34:\n        /* \"#utility.yul\":712:715   */\n      0x00\n        /* \"#utility.yul\":743:744   */\n      dup3\n        /* \"#utility.yul\":739:745   */\n      not\n        /* \"#utility.yul\":736:737   */\n      dup3\n        /* \"#utility.yul\":733:746   */\n      gt\n        /* \"#utility.yul\":730:732   */\n      iszero\n      tag_44\n      jumpi\n        /* \"#utility.yul\":788:798   */\n      0x4e487b71\n        /* \"#utility.yul\":783:786   */\n      0xe0\n        /* \"#utility.yul\":779:799   */\n      shl\n        /* \"#utility.yul\":776:777   */\n      0x00\n        /* \"#utility.yul\":769:800   */\n      mstore\n        /* \"#utility.yul\":823:827   */\n      0x11\n        /* \"#utility.yul\":820:821   */\n      0x04\n        /* \"#utility.yul\":813:828   */\n      mstore\n        /* \"#utility.yul\":851:855   */\n      0x24\n        /* \"#utility.yul\":848:849   */\n      0x00\n        /* \"#utility.yul\":841:856   */\n      revert\n        /* \"#utility.yul\":730:732   */\n    tag_44:\n      pop\n        /* \"#utility.yul\":882:891   */\n      add\n      swap1\n        /* \"#utility.yul\":720:897   */\n      jump\t// out\n\n    auxdata: 0xa2646970667358221220f7041f81872ebdc79431c4e39df5a2a05f21483eb8716e1aa249ddc7ea1a90dd64736f6c63430008050033\n}\n",
				"bytecode": {
					"linkReferences": {},
					"object": "608060405234801561001057600080fd5b506101a8806100206000396000f3fe608060405234801561001057600080fd5b50600436106100625760003560e01c806318160ddd1461006757806322e67e711461007d5780635fdf60fb1461008657806370a082311461008f57806388ffe867146100b857806398b777e7146100c2575b600080fd5b6001545b60405190815260200160405180910390f35b61006b60025481565b61006b60015481565b61006b61009d366004610103565b6001600160a01b031660009081526020819052604090205490565b6100c06100d5565b005b6100c06100d0366004610133565b600255565b3360009081526020819052604081206107d0905560018054601492906100fc90849061014c565b9091555050565b60006020828403121561011557600080fd5b81356001600160a01b038116811461012c57600080fd5b9392505050565b60006020828403121561014557600080fd5b5035919050565b6000821982111561016d57634e487b7160e01b600052601160045260246000fd5b50019056fea2646970667358221220f7041f81872ebdc79431c4e39df5a2a05f21483eb8716e1aa249ddc7ea1a90dd64736f6c63430008050033",
					"opcodes": "PUSH1 0x80 PUSH1 0x40 MSTORE CALLVALUE DUP1 ISZERO PUSH2 0x10 JUMPI PUSH1 0x0 DUP1 REVERT JUMPDEST POP PUSH2 0x1A8 DUP1 PUSH2 0x20 PUSH1 0x0 CODECOPY PUSH1 0x0 RETURN INVALID PUSH1 0x80 PUSH1 0x40 MSTORE CALLVALUE DUP1 ISZERO PUSH2 0x10 JUMPI PUSH1 0x0 DUP1 REVERT JUMPDEST POP PUSH1 0x4 CALLDATASIZE LT PUSH2 0x62 JUMPI PUSH1 0x0 CALLDATALOAD PUSH1 0xE0 SHR DUP1 PUSH4 0x18160DDD EQ PUSH2 0x67 JUMPI DUP1 PUSH4 0x22E67E71 EQ PUSH2 0x7D JUMPI DUP1 PUSH4 0x5FDF60FB EQ PUSH2 0x86 JUMPI DUP1 PUSH4 0x70A08231 EQ PUSH2 0x8F JUMPI DUP1 PUSH4 0x88FFE867 EQ PUSH2 0xB8 JUMPI DUP1 PUSH4 0x98B777E7 EQ PUSH2 0xC2 JUMPI JUMPDEST PUSH1 0x0 DUP1 REVERT JUMPDEST PUSH1 0x1 SLOAD JUMPDEST PUSH1 0x40 MLOAD SWAP1 DUP2 MSTORE PUSH1 0x20 ADD PUSH1 0x40 MLOAD DUP1 SWAP2 SUB SWAP1 RETURN JUMPDEST PUSH2 0x6B PUSH1 0x2 SLOAD DUP2 JUMP JUMPDEST PUSH2 0x6B PUSH1 0x1 SLOAD DUP2 JUMP JUMPDEST PUSH2 0x6B PUSH2 0x9D CALLDATASIZE PUSH1 0x4 PUSH2 0x103 JUMP JUMPDEST PUSH1 0x1 PUSH1 0x1 PUSH1 0xA0 SHL SUB AND PUSH1 0x0 SWAP1 DUP2 MSTORE PUSH1 0x20 DUP2 SWAP1 MSTORE PUSH1 0x40 SWAP1 KECCAK256 SLOAD SWAP1 JUMP JUMPDEST PUSH2 0xC0 PUSH2 0xD5 JUMP JUMPDEST STOP JUMPDEST PUSH2 0xC0 PUSH2 0xD0 CALLDATASIZE PUSH1 0x4 PUSH2 0x133 JUMP JUMPDEST PUSH1 0x2 SSTORE JUMP JUMPDEST CALLER PUSH1 0x0 SWAP1 DUP2 MSTORE PUSH1 0x20 DUP2 SWAP1 MSTORE PUSH1 0x40 DUP2 KECCAK256 PUSH2 0x7D0 SWAP1 SSTORE PUSH1 0x1 DUP1 SLOAD PUSH1 0x14 SWAP3 SWAP1 PUSH2 0xFC SWAP1 DUP5 SWAP1 PUSH2 0x14C JUMP JUMPDEST SWAP1 SWAP2 SSTORE POP POP JUMP JUMPDEST PUSH1 0x0 PUSH1 0x20 DUP3 DUP5 SUB SLT ISZERO PUSH2 0x115 JUMPI PUSH1 0x0 DUP1 REVERT JUMPDEST DUP2 CALLDATALOAD PUSH1 0x1 PUSH1 0x1 PUSH1 0xA0 SHL SUB DUP2 AND DUP2 EQ PUSH2 0x12C JUMPI PUSH1 0x0 DUP1 REVERT JUMPDEST SWAP4 SWAP3 POP POP POP JUMP JUMPDEST PUSH1 0x0 PUSH1 0x20 DUP3 DUP5 SUB SLT ISZERO PUSH2 0x145 JUMPI PUSH1 0x0 DUP1 REVERT JUMPDEST POP CALLDATALOAD SWAP2 SWAP1 POP JUMP JUMPDEST PUSH1 0x0 DUP3 NOT DUP3 GT ISZERO PUSH2 0x16D JUMPI PUSH4 0x4E487B71 PUSH1 0xE0 SHL PUSH1 0x0 MSTORE PUSH1 0x11 PUSH1 0x4 MSTORE PUSH1 0x24 PUSH1 0x0 REVERT JUMPDEST POP ADD SWAP1 JUMP INVALID LOG2 PUSH5 0x6970667358 0x22 SLT KECCAK256 0xF7 DIV 0x1F DUP2 DUP8 0x2E 0xBD 0xC7 SWAP5 BALANCE 0xC4 0xE3 SWAP14 CREATE2 LOG2 LOG0 0x5F 0x21 0x48 RETURNDATACOPY 0xB8 PUSH18 0x6E1AA249DDC7EA1A90DD64736F6C63430008 SDIV STOP CALLER "
				},
				"gasEstimates": {
					"creation": {
						"codeDepositCost": "84800",
						"executionCost": "135",
						"totalCost": "84935"
					},
					"external": {
						"balanceOf(address)": "2537",
						"circulation()": "2305",
						"maxTime()": "2283",
						"pledge()": "46688",
						"setMaxTime(uint256)": "22400",
						"totalSupply()": "2247"
					}
				},
				"methodIdentifiers": {
					"balanceOf(address)": "70a08231",
					"circulation()": "5fdf60fb",
					"maxTime()": "22e67e71",
					"pledge()": "88ffe867",
					"setMaxTime(uint256)": "98b777e7",
					"totalSupply()": "18160ddd"
				}
			},
			"storageLayout": {
				"storage": [
					{
						"astId": 1332,
						"contract": "contracts/test/VeTokenTest.sol:VeTokenTest",
						"label": "balance",
						"offset": 0,
						"slot": "0",
						"type": "t_mapping(t_address,t_uint256)"
					},
					{
						"astId": 1334,
						"contract": "contracts/test/VeTokenTest.sol:VeTokenTest",
						"label": "circulation",
						"offset": 0,
						"slot": "1",
						"type": "t_uint256"
					},
					{
						"astId": 1336,
						"contract": "contracts/test/VeTokenTest.sol:VeTokenTest",
						"label": "maxTime",
						"offset": 0,
						"slot": "2",
						"type": "t_uint256"
					}
				],
				"types": {
					"t_address": {
						"encoding": "inplace",
						"label": "address",
						"numberOfBytes": "20"
					},
					"t_mapping(t_address,t_uint256)": {
						"encoding": "mapping",
						"key": "t_address",
						"label": "mapping(address => uint256)",
						"numberOfBytes": "32",
						"value": "t_uint256"
					},
					"t_uint256": {
						"encoding": "inplace",
						"label": "uint256",
						"numberOfBytes": "32"
					}
				}
			},
			"userdoc": {
				"kind": "user",
				"methods": {},
				"version": 1
			}
		}
	}
}