{
	"contracts/Template/Istanbul10/data/VoteData.sol": {
		"VoteData": {
			"abi": [
				{
					"inputs": [],
					"name": "bufferTime",
					"outputs": [
						{
							"internalType": "uint256",
							"name": "",
							"type": "uint256"
						}
					],
					"stateMutability": "view",
					"type": "function"
				},
				{
					"inputs": [
						{
							"internalType": "uint256",
							"name": "",
							"type": "uint256"
						}
					],
					"name": "executeQueue",
					"outputs": [
						{
							"internalType": "uint256",
							"name": "",
							"type": "uint256"
						}
					],
					"stateMutability": "view",
					"type": "function"
				},
				{
					"inputs": [
						{
							"internalType": "uint256",
							"name": "",
							"type": "uint256"
						}
					],
					"name": "executeQueueMap",
					"outputs": [
						{
							"internalType": "bool",
							"name": "",
							"type": "bool"
						}
					],
					"stateMutability": "view",
					"type": "function"
				},
				{
					"inputs": [],
					"name": "minimumQuantity",
					"outputs": [
						{
							"internalType": "uint256",
							"name": "",
							"type": "uint256"
						}
					],
					"stateMutability": "view",
					"type": "function"
				},
				{
					"inputs": [],
					"name": "router",
					"outputs": [
						{
							"internalType": "address",
							"name": "",
							"type": "address"
						}
					],
					"stateMutability": "view",
					"type": "function"
				},
				{
					"inputs": [],
					"name": "templateTotal",
					"outputs": [
						{
							"internalType": "uint256",
							"name": "",
							"type": "uint256"
						}
					],
					"stateMutability": "view",
					"type": "function"
				},
				{
					"inputs": [],
					"name": "veToken",
					"outputs": [
						{
							"internalType": "contract VeTokenTest",
							"name": "",
							"type": "address"
						}
					],
					"stateMutability": "view",
					"type": "function"
				},
				{
					"inputs": [],
					"name": "voteTatola",
					"outputs": [
						{
							"internalType": "uint256",
							"name": "",
							"type": "uint256"
						}
					],
					"stateMutability": "view",
					"type": "function"
				},
				{
					"inputs": [],
					"name": "voteTime",
					"outputs": [
						{
							"internalType": "uint256",
							"name": "",
							"type": "uint256"
						}
					],
					"stateMutability": "view",
					"type": "function"
				}
			],
			"devdoc": {
				"kind": "dev",
				"methods": {},
				"version": 1
			},
			"evm": {
				"assembly": "    /* \"contracts/Template/Istanbul10/data/VoteData.sol\":100:1868  contract VoteData{ \r... */\n  mstore(0x40, 0x80)\n    /* \"contracts/Template/Istanbul10/data/VoteData.sol\":307:316  1 minutes */\n  0x3c\n    /* \"contracts/Template/Istanbul10/data/VoteData.sol\":280:316  uint256 public  voteTime = 1 minutes */\n  0x00\n  sstore\n    /* \"contracts/Template/Istanbul10/data/VoteData.sol\":393:402  1 minutes */\n  0x3c\n    /* \"contracts/Template/Istanbul10/data/VoteData.sol\":365:402  uint256 public bufferTime = 1 minutes */\n  0x01\n  sstore\n    /* \"contracts/Template/Istanbul10/data/VoteData.sol\":767:768  5 */\n  0x05\n    /* \"contracts/Template/Istanbul10/data/VoteData.sol\":733:768  uint256  public minimumQuantity = 5 */\n  0x0a\n  sstore\n    /* \"contracts/Template/Istanbul10/data/VoteData.sol\":100:1868  contract VoteData{ \r... */\n  callvalue\n  dup1\n  iszero\n  tag_1\n  jumpi\n  0x00\n  dup1\n  revert\ntag_1:\n  pop\n  dataSize(sub_0)\n  dup1\n  dataOffset(sub_0)\n  0x00\n  codecopy\n  0x00\n  return\nstop\n\nsub_0: assembly {\n        /* \"contracts/Template/Istanbul10/data/VoteData.sol\":100:1868  contract VoteData{ \r... */\n      mstore(0x40, 0x80)\n      callvalue\n      dup1\n      iszero\n      tag_1\n      jumpi\n      0x00\n      dup1\n      revert\n    tag_1:\n      pop\n      jumpi(tag_2, lt(calldatasize, 0x04))\n      shr(0xe0, calldataload(0x00))\n      dup1\n      0x5a42007f\n      gt\n      tag_12\n      jumpi\n      dup1\n      0x5a42007f\n      eq\n      tag_7\n      jumpi\n      dup1\n      0x75bb5b09\n      eq\n      tag_8\n      jumpi\n      dup1\n      0xba7b6703\n      eq\n      tag_9\n      jumpi\n      dup1\n      0xbcf93dd6\n      eq\n      tag_10\n      jumpi\n      dup1\n      0xf887ea40\n      eq\n      tag_11\n      jumpi\n      jump(tag_2)\n    tag_12:\n      dup1\n      0x1d75ddcc\n      eq\n      tag_3\n      jumpi\n      dup1\n      0x2c9e3ef0\n      eq\n      tag_4\n      jumpi\n      dup1\n      0x3b92eb23\n      eq\n      tag_5\n      jumpi\n      dup1\n      0x52538550\n      eq\n      tag_6\n      jumpi\n    tag_2:\n      0x00\n      dup1\n      revert\n        /* \"contracts/Template/Istanbul10/data/VoteData.sol\":733:768  uint256  public minimumQuantity = 5 */\n    tag_3:\n      tag_13\n      tag_14\n      jump\t// in\n    tag_13:\n      mload(0x40)\n      tag_15\n      swap2\n      swap1\n      tag_16\n      jump\t// in\n    tag_15:\n      mload(0x40)\n      dup1\n      swap2\n      sub\n      swap1\n      return\n        /* \"contracts/Template/Istanbul10/data/VoteData.sol\":679:726  mapping(uint256 => bool) public executeQueueMap */\n    tag_4:\n      tag_17\n      0x04\n      dup1\n      calldatasize\n      sub\n      dup2\n      add\n      swap1\n      tag_18\n      swap2\n      swap1\n      tag_19\n      jump\t// in\n    tag_18:\n      tag_20\n      jump\t// in\n    tag_17:\n      mload(0x40)\n      tag_21\n      swap2\n      swap1\n      tag_22\n      jump\t// in\n    tag_21:\n      mload(0x40)\n      dup1\n      swap2\n      sub\n      swap1\n      return\n        /* \"contracts/Template/Istanbul10/data/VoteData.sol\":443:469  VeTokenTest public veToken */\n    tag_5:\n      tag_23\n      tag_24\n      jump\t// in\n    tag_23:\n      mload(0x40)\n      tag_25\n      swap2\n      swap1\n      tag_26\n      jump\t// in\n    tag_25:\n      mload(0x40)\n      dup1\n      swap2\n      sub\n      swap1\n      return\n        /* \"contracts/Template/Istanbul10/data/VoteData.sol\":505:535  uint256[] public  executeQueue */\n    tag_6:\n      tag_27\n      0x04\n      dup1\n      calldatasize\n      sub\n      dup2\n      add\n      swap1\n      tag_28\n      swap2\n      swap1\n      tag_19\n      jump\t// in\n    tag_28:\n      tag_29\n      jump\t// in\n    tag_27:\n      mload(0x40)\n      tag_30\n      swap2\n      swap1\n      tag_16\n      jump\t// in\n    tag_30:\n      mload(0x40)\n      dup1\n      swap2\n      sub\n      swap1\n      return\n        /* \"contracts/Template/Istanbul10/data/VoteData.sol\":542:572  uint256  public  templateTotal */\n    tag_7:\n      tag_31\n      tag_32\n      jump\t// in\n    tag_31:\n      mload(0x40)\n      tag_33\n      swap2\n      swap1\n      tag_16\n      jump\t// in\n    tag_33:\n      mload(0x40)\n      dup1\n      swap2\n      sub\n      swap1\n      return\n        /* \"contracts/Template/Istanbul10/data/VoteData.sol\":476:498  uint public voteTatola */\n    tag_8:\n      tag_34\n      tag_35\n      jump\t// in\n    tag_34:\n      mload(0x40)\n      tag_36\n      swap2\n      swap1\n      tag_16\n      jump\t// in\n    tag_36:\n      mload(0x40)\n      dup1\n      swap2\n      sub\n      swap1\n      return\n        /* \"contracts/Template/Istanbul10/data/VoteData.sol\":365:402  uint256 public bufferTime = 1 minutes */\n    tag_9:\n      tag_37\n      tag_38\n      jump\t// in\n    tag_37:\n      mload(0x40)\n      tag_39\n      swap2\n      swap1\n      tag_16\n      jump\t// in\n    tag_39:\n      mload(0x40)\n      dup1\n      swap2\n      sub\n      swap1\n      return\n        /* \"contracts/Template/Istanbul10/data/VoteData.sol\":280:316  uint256 public  voteTime = 1 minutes */\n    tag_10:\n      tag_40\n      tag_41\n      jump\t// in\n    tag_40:\n      mload(0x40)\n      tag_42\n      swap2\n      swap1\n      tag_16\n      jump\t// in\n    tag_42:\n      mload(0x40)\n      dup1\n      swap2\n      sub\n      swap1\n      return\n        /* \"contracts/Template/Istanbul10/data/VoteData.sol\":415:436  address public router */\n    tag_11:\n      tag_43\n      tag_44\n      jump\t// in\n    tag_43:\n      mload(0x40)\n      tag_45\n      swap2\n      swap1\n      tag_46\n      jump\t// in\n    tag_45:\n      mload(0x40)\n      dup1\n      swap2\n      sub\n      swap1\n      return\n        /* \"contracts/Template/Istanbul10/data/VoteData.sol\":733:768  uint256  public minimumQuantity = 5 */\n    tag_14:\n      sload(0x0a)\n      dup2\n      jump\t// out\n        /* \"contracts/Template/Istanbul10/data/VoteData.sol\":679:726  mapping(uint256 => bool) public executeQueueMap */\n    tag_20:\n      mstore(0x20, 0x09)\n      dup1\n      0x00\n      mstore\n      keccak256(0x00, 0x40)\n      0x00\n      swap2\n      pop\n      sload\n      swap1\n      0x0100\n      exp\n      swap1\n      div\n      0xff\n      and\n      dup2\n      jump\t// out\n        /* \"contracts/Template/Istanbul10/data/VoteData.sol\":443:469  VeTokenTest public veToken */\n    tag_24:\n      0x03\n      0x00\n      swap1\n      sload\n      swap1\n      0x0100\n      exp\n      swap1\n      div\n      0xffffffffffffffffffffffffffffffffffffffff\n      and\n      dup2\n      jump\t// out\n        /* \"contracts/Template/Istanbul10/data/VoteData.sol\":505:535  uint256[] public  executeQueue */\n    tag_29:\n      0x05\n      dup2\n      dup2\n      sload\n      dup2\n      lt\n      tag_47\n      jumpi\n      0x00\n      dup1\n      revert\n    tag_47:\n      swap1\n      0x00\n      mstore\n      keccak256(0x00, 0x20)\n      add\n      0x00\n      swap2\n      pop\n      swap1\n      pop\n      sload\n      dup2\n      jump\t// out\n        /* \"contracts/Template/Istanbul10/data/VoteData.sol\":542:572  uint256  public  templateTotal */\n    tag_32:\n      sload(0x06)\n      dup2\n      jump\t// out\n        /* \"contracts/Template/Istanbul10/data/VoteData.sol\":476:498  uint public voteTatola */\n    tag_35:\n      sload(0x04)\n      dup2\n      jump\t// out\n        /* \"contracts/Template/Istanbul10/data/VoteData.sol\":365:402  uint256 public bufferTime = 1 minutes */\n    tag_38:\n      sload(0x01)\n      dup2\n      jump\t// out\n        /* \"contracts/Template/Istanbul10/data/VoteData.sol\":280:316  uint256 public  voteTime = 1 minutes */\n    tag_41:\n      sload(0x00)\n      dup2\n      jump\t// out\n        /* \"contracts/Template/Istanbul10/data/VoteData.sol\":415:436  address public router */\n    tag_44:\n      0x02\n      0x00\n      swap1\n      sload\n      swap1\n      0x0100\n      exp\n      swap1\n      div\n      0xffffffffffffffffffffffffffffffffffffffff\n      and\n      dup2\n      jump\t// out\n        /* \"#utility.yul\":7:146   */\n    tag_50:\n      0x00\n        /* \"#utility.yul\":91:97   */\n      dup2\n        /* \"#utility.yul\":78:98   */\n      calldataload\n        /* \"#utility.yul\":69:98   */\n      swap1\n      pop\n        /* \"#utility.yul\":107:140   */\n      tag_52\n        /* \"#utility.yul\":134:139   */\n      dup2\n        /* \"#utility.yul\":107:140   */\n      tag_53\n      jump\t// in\n    tag_52:\n        /* \"#utility.yul\":59:146   */\n      swap3\n      swap2\n      pop\n      pop\n      jump\t// out\n        /* \"#utility.yul\":152:414   */\n    tag_19:\n      0x00\n        /* \"#utility.yul\":260:262   */\n      0x20\n        /* \"#utility.yul\":248:257   */\n      dup3\n        /* \"#utility.yul\":239:246   */\n      dup5\n        /* \"#utility.yul\":235:258   */\n      sub\n        /* \"#utility.yul\":231:263   */\n      slt\n        /* \"#utility.yul\":228:230   */\n      iszero\n      tag_55\n      jumpi\n        /* \"#utility.yul\":276:277   */\n      0x00\n        /* \"#utility.yul\":273:274   */\n      dup1\n        /* \"#utility.yul\":266:278   */\n      revert\n        /* \"#utility.yul\":228:230   */\n    tag_55:\n        /* \"#utility.yul\":319:320   */\n      0x00\n        /* \"#utility.yul\":344:397   */\n      tag_56\n        /* \"#utility.yul\":389:396   */\n      dup5\n        /* \"#utility.yul\":380:386   */\n      dup3\n        /* \"#utility.yul\":369:378   */\n      dup6\n        /* \"#utility.yul\":365:387   */\n      add\n        /* \"#utility.yul\":344:397   */\n      tag_50\n      jump\t// in\n    tag_56:\n        /* \"#utility.yul\":334:397   */\n      swap2\n      pop\n        /* \"#utility.yul\":290:407   */\n      pop\n        /* \"#utility.yul\":218:414   */\n      swap3\n      swap2\n      pop\n      pop\n      jump\t// out\n        /* \"#utility.yul\":420:538   */\n    tag_57:\n        /* \"#utility.yul\":507:531   */\n      tag_59\n        /* \"#utility.yul\":525:530   */\n      dup2\n        /* \"#utility.yul\":507:531   */\n      tag_60\n      jump\t// in\n    tag_59:\n        /* \"#utility.yul\":502:505   */\n      dup3\n        /* \"#utility.yul\":495:532   */\n      mstore\n        /* \"#utility.yul\":485:538   */\n      pop\n      pop\n      jump\t// out\n        /* \"#utility.yul\":544:653   */\n    tag_61:\n        /* \"#utility.yul\":625:646   */\n      tag_63\n        /* \"#utility.yul\":640:645   */\n      dup2\n        /* \"#utility.yul\":625:646   */\n      tag_64\n      jump\t// in\n    tag_63:\n        /* \"#utility.yul\":620:623   */\n      dup3\n        /* \"#utility.yul\":613:647   */\n      mstore\n        /* \"#utility.yul\":603:653   */\n      pop\n      pop\n      jump\t// out\n        /* \"#utility.yul\":659:830   */\n    tag_65:\n        /* \"#utility.yul\":766:823   */\n      tag_67\n        /* \"#utility.yul\":817:822   */\n      dup2\n        /* \"#utility.yul\":766:823   */\n      tag_68\n      jump\t// in\n    tag_67:\n        /* \"#utility.yul\":761:764   */\n      dup3\n        /* \"#utility.yul\":754:824   */\n      mstore\n        /* \"#utility.yul\":744:830   */\n      pop\n      pop\n      jump\t// out\n        /* \"#utility.yul\":836:954   */\n    tag_69:\n        /* \"#utility.yul\":923:947   */\n      tag_71\n        /* \"#utility.yul\":941:946   */\n      dup2\n        /* \"#utility.yul\":923:947   */\n      tag_72\n      jump\t// in\n    tag_71:\n        /* \"#utility.yul\":918:921   */\n      dup3\n        /* \"#utility.yul\":911:948   */\n      mstore\n        /* \"#utility.yul\":901:954   */\n      pop\n      pop\n      jump\t// out\n        /* \"#utility.yul\":960:1182   */\n    tag_46:\n      0x00\n        /* \"#utility.yul\":1091:1093   */\n      0x20\n        /* \"#utility.yul\":1080:1089   */\n      dup3\n        /* \"#utility.yul\":1076:1094   */\n      add\n        /* \"#utility.yul\":1068:1094   */\n      swap1\n      pop\n        /* \"#utility.yul\":1104:1175   */\n      tag_74\n        /* \"#utility.yul\":1172:1173   */\n      0x00\n        /* \"#utility.yul\":1161:1170   */\n      dup4\n        /* \"#utility.yul\":1157:1174   */\n      add\n        /* \"#utility.yul\":1148:1154   */\n      dup5\n        /* \"#utility.yul\":1104:1175   */\n      tag_57\n      jump\t// in\n    tag_74:\n        /* \"#utility.yul\":1058:1182   */\n      swap3\n      swap2\n      pop\n      pop\n      jump\t// out\n        /* \"#utility.yul\":1188:1398   */\n    tag_22:\n      0x00\n        /* \"#utility.yul\":1313:1315   */\n      0x20\n        /* \"#utility.yul\":1302:1311   */\n      dup3\n        /* \"#utility.yul\":1298:1316   */\n      add\n        /* \"#utility.yul\":1290:1316   */\n      swap1\n      pop\n        /* \"#utility.yul\":1326:1391   */\n      tag_76\n        /* \"#utility.yul\":1388:1389   */\n      0x00\n        /* \"#utility.yul\":1377:1386   */\n      dup4\n        /* \"#utility.yul\":1373:1390   */\n      add\n        /* \"#utility.yul\":1364:1370   */\n      dup5\n        /* \"#utility.yul\":1326:1391   */\n      tag_61\n      jump\t// in\n    tag_76:\n        /* \"#utility.yul\":1280:1398   */\n      swap3\n      swap2\n      pop\n      pop\n      jump\t// out\n        /* \"#utility.yul\":1404:1666   */\n    tag_26:\n      0x00\n        /* \"#utility.yul\":1555:1557   */\n      0x20\n        /* \"#utility.yul\":1544:1553   */\n      dup3\n        /* \"#utility.yul\":1540:1558   */\n      add\n        /* \"#utility.yul\":1532:1558   */\n      swap1\n      pop\n        /* \"#utility.yul\":1568:1659   */\n      tag_78\n        /* \"#utility.yul\":1656:1657   */\n      0x00\n        /* \"#utility.yul\":1645:1654   */\n      dup4\n        /* \"#utility.yul\":1641:1658   */\n      add\n        /* \"#utility.yul\":1632:1638   */\n      dup5\n        /* \"#utility.yul\":1568:1659   */\n      tag_65\n      jump\t// in\n    tag_78:\n        /* \"#utility.yul\":1522:1666   */\n      swap3\n      swap2\n      pop\n      pop\n      jump\t// out\n        /* \"#utility.yul\":1672:1894   */\n    tag_16:\n      0x00\n        /* \"#utility.yul\":1803:1805   */\n      0x20\n        /* \"#utility.yul\":1792:1801   */\n      dup3\n        /* \"#utility.yul\":1788:1806   */\n      add\n        /* \"#utility.yul\":1780:1806   */\n      swap1\n      pop\n        /* \"#utility.yul\":1816:1887   */\n      tag_80\n        /* \"#utility.yul\":1884:1885   */\n      0x00\n        /* \"#utility.yul\":1873:1882   */\n      dup4\n        /* \"#utility.yul\":1869:1886   */\n      add\n        /* \"#utility.yul\":1860:1866   */\n      dup5\n        /* \"#utility.yul\":1816:1887   */\n      tag_69\n      jump\t// in\n    tag_80:\n        /* \"#utility.yul\":1770:1894   */\n      swap3\n      swap2\n      pop\n      pop\n      jump\t// out\n        /* \"#utility.yul\":1900:1996   */\n    tag_60:\n      0x00\n        /* \"#utility.yul\":1966:1990   */\n      tag_82\n        /* \"#utility.yul\":1984:1989   */\n      dup3\n        /* \"#utility.yul\":1966:1990   */\n      tag_83\n      jump\t// in\n    tag_82:\n        /* \"#utility.yul\":1955:1990   */\n      swap1\n      pop\n        /* \"#utility.yul\":1945:1996   */\n      swap2\n      swap1\n      pop\n      jump\t// out\n        /* \"#utility.yul\":2002:2092   */\n    tag_64:\n      0x00\n        /* \"#utility.yul\":2079:2084   */\n      dup2\n        /* \"#utility.yul\":2072:2085   */\n      iszero\n        /* \"#utility.yul\":2065:2086   */\n      iszero\n        /* \"#utility.yul\":2054:2086   */\n      swap1\n      pop\n        /* \"#utility.yul\":2044:2092   */\n      swap2\n      swap1\n      pop\n      jump\t// out\n        /* \"#utility.yul\":2098:2224   */\n    tag_83:\n      0x00\n        /* \"#utility.yul\":2175:2217   */\n      0xffffffffffffffffffffffffffffffffffffffff\n        /* \"#utility.yul\":2168:2173   */\n      dup3\n        /* \"#utility.yul\":2164:2218   */\n      and\n        /* \"#utility.yul\":2153:2218   */\n      swap1\n      pop\n        /* \"#utility.yul\":2143:2224   */\n      swap2\n      swap1\n      pop\n      jump\t// out\n        /* \"#utility.yul\":2230:2307   */\n    tag_72:\n      0x00\n        /* \"#utility.yul\":2296:2301   */\n      dup2\n        /* \"#utility.yul\":2285:2301   */\n      swap1\n      pop\n        /* \"#utility.yul\":2275:2307   */\n      swap2\n      swap1\n      pop\n      jump\t// out\n        /* \"#utility.yul\":2313:2479   */\n    tag_68:\n      0x00\n        /* \"#utility.yul\":2416:2473   */\n      tag_88\n        /* \"#utility.yul\":2467:2472   */\n      dup3\n        /* \"#utility.yul\":2416:2473   */\n      tag_89\n      jump\t// in\n    tag_88:\n        /* \"#utility.yul\":2403:2473   */\n      swap1\n      pop\n        /* \"#utility.yul\":2393:2479   */\n      swap2\n      swap1\n      pop\n      jump\t// out\n        /* \"#utility.yul\":2485:2618   */\n    tag_89:\n      0x00\n        /* \"#utility.yul\":2588:2612   */\n      tag_91\n        /* \"#utility.yul\":2606:2611   */\n      dup3\n        /* \"#utility.yul\":2588:2612   */\n      tag_83\n      jump\t// in\n    tag_91:\n        /* \"#utility.yul\":2575:2612   */\n      swap1\n      pop\n        /* \"#utility.yul\":2565:2618   */\n      swap2\n      swap1\n      pop\n      jump\t// out\n        /* \"#utility.yul\":2624:2746   */\n    tag_53:\n        /* \"#utility.yul\":2697:2721   */\n      tag_93\n        /* \"#utility.yul\":2715:2720   */\n      dup2\n        /* \"#utility.yul\":2697:2721   */\n      tag_72\n      jump\t// in\n    tag_93:\n        /* \"#utility.yul\":2690:2695   */\n      dup2\n        /* \"#utility.yul\":2687:2722   */\n      eq\n        /* \"#utility.yul\":2677:2679   */\n      tag_94\n      jumpi\n        /* \"#utility.yul\":2736:2737   */\n      0x00\n        /* \"#utility.yul\":2733:2734   */\n      dup1\n        /* \"#utility.yul\":2726:2738   */\n      revert\n        /* \"#utility.yul\":2677:2679   */\n    tag_94:\n        /* \"#utility.yul\":2667:2746   */\n      pop\n      jump\t// out\n\n    auxdata: 0xa26469706673582212201b414ea0b8a6b9bff247476be3536d7163a7d5ccf68ecb700f0c26346d2d964a64736f6c63430008000033\n}\n",
				"bytecode": {
					"linkReferences": {},
					"object": "6080604052603c600055603c6001556005600a5534801561001f57600080fd5b506104178061002f6000396000f3fe608060405234801561001057600080fd5b50600436106100935760003560e01c80635a42007f116100665780635a42007f1461013457806375bb5b0914610152578063ba7b670314610170578063bcf93dd61461018e578063f887ea40146101ac57610093565b80631d75ddcc146100985780632c9e3ef0146100b65780633b92eb23146100e65780635253855014610104575b600080fd5b6100a06101ca565b6040516100ad9190610343565b60405180910390f35b6100d060048036038101906100cb919061028d565b6101d0565b6040516100dd919061030d565b60405180910390f35b6100ee6101f0565b6040516100fb9190610328565b60405180910390f35b61011e6004803603810190610119919061028d565b610216565b60405161012b9190610343565b60405180910390f35b61013c61023a565b6040516101499190610343565b60405180910390f35b61015a610240565b6040516101679190610343565b60405180910390f35b610178610246565b6040516101859190610343565b60405180910390f35b61019661024c565b6040516101a39190610343565b60405180910390f35b6101b4610252565b6040516101c191906102f2565b60405180910390f35b600a5481565b60096020528060005260406000206000915054906101000a900460ff1681565b600360009054906101000a900473ffffffffffffffffffffffffffffffffffffffff1681565b6005818154811061022657600080fd5b906000526020600020016000915090505481565b60065481565b60045481565b60015481565b60005481565b600260009054906101000a900473ffffffffffffffffffffffffffffffffffffffff1681565b600081359050610287816103ca565b92915050565b60006020828403121561029f57600080fd5b60006102ad84828501610278565b91505092915050565b6102bf8161035e565b82525050565b6102ce81610370565b82525050565b6102dd816103a6565b82525050565b6102ec8161039c565b82525050565b600060208201905061030760008301846102b6565b92915050565b600060208201905061032260008301846102c5565b92915050565b600060208201905061033d60008301846102d4565b92915050565b600060208201905061035860008301846102e3565b92915050565b60006103698261037c565b9050919050565b60008115159050919050565b600073ffffffffffffffffffffffffffffffffffffffff82169050919050565b6000819050919050565b60006103b1826103b8565b9050919050565b60006103c38261037c565b9050919050565b6103d38161039c565b81146103de57600080fd5b5056fea26469706673582212201b414ea0b8a6b9bff247476be3536d7163a7d5ccf68ecb700f0c26346d2d964a64736f6c63430008000033",
					"opcodes": "PUSH1 0x80 PUSH1 0x40 MSTORE PUSH1 0x3C PUSH1 0x0 SSTORE PUSH1 0x3C PUSH1 0x1 SSTORE PUSH1 0x5 PUSH1 0xA SSTORE CALLVALUE DUP1 ISZERO PUSH2 0x1F JUMPI PUSH1 0x0 DUP1 REVERT JUMPDEST POP PUSH2 0x417 DUP1 PUSH2 0x2F PUSH1 0x0 CODECOPY PUSH1 0x0 RETURN INVALID PUSH1 0x80 PUSH1 0x40 MSTORE CALLVALUE DUP1 ISZERO PUSH2 0x10 JUMPI PUSH1 0x0 DUP1 REVERT JUMPDEST POP PUSH1 0x4 CALLDATASIZE LT PUSH2 0x93 JUMPI PUSH1 0x0 CALLDATALOAD PUSH1 0xE0 SHR DUP1 PUSH4 0x5A42007F GT PUSH2 0x66 JUMPI DUP1 PUSH4 0x5A42007F EQ PUSH2 0x134 JUMPI DUP1 PUSH4 0x75BB5B09 EQ PUSH2 0x152 JUMPI DUP1 PUSH4 0xBA7B6703 EQ PUSH2 0x170 JUMPI DUP1 PUSH4 0xBCF93DD6 EQ PUSH2 0x18E JUMPI DUP1 PUSH4 0xF887EA40 EQ PUSH2 0x1AC JUMPI PUSH2 0x93 JUMP JUMPDEST DUP1 PUSH4 0x1D75DDCC EQ PUSH2 0x98 JUMPI DUP1 PUSH4 0x2C9E3EF0 EQ PUSH2 0xB6 JUMPI DUP1 PUSH4 0x3B92EB23 EQ PUSH2 0xE6 JUMPI DUP1 PUSH4 0x52538550 EQ PUSH2 0x104 JUMPI JUMPDEST PUSH1 0x0 DUP1 REVERT JUMPDEST PUSH2 0xA0 PUSH2 0x1CA JUMP JUMPDEST PUSH1 0x40 MLOAD PUSH2 0xAD SWAP2 SWAP1 PUSH2 0x343 JUMP JUMPDEST PUSH1 0x40 MLOAD DUP1 SWAP2 SUB SWAP1 RETURN JUMPDEST PUSH2 0xD0 PUSH1 0x4 DUP1 CALLDATASIZE SUB DUP2 ADD SWAP1 PUSH2 0xCB SWAP2 SWAP1 PUSH2 0x28D JUMP JUMPDEST PUSH2 0x1D0 JUMP JUMPDEST PUSH1 0x40 MLOAD PUSH2 0xDD SWAP2 SWAP1 PUSH2 0x30D JUMP JUMPDEST PUSH1 0x40 MLOAD DUP1 SWAP2 SUB SWAP1 RETURN JUMPDEST PUSH2 0xEE PUSH2 0x1F0 JUMP JUMPDEST PUSH1 0x40 MLOAD PUSH2 0xFB SWAP2 SWAP1 PUSH2 0x328 JUMP JUMPDEST PUSH1 0x40 MLOAD DUP1 SWAP2 SUB SWAP1 RETURN JUMPDEST PUSH2 0x11E PUSH1 0x4 DUP1 CALLDATASIZE SUB DUP2 ADD SWAP1 PUSH2 0x119 SWAP2 SWAP1 PUSH2 0x28D JUMP JUMPDEST PUSH2 0x216 JUMP JUMPDEST PUSH1 0x40 MLOAD PUSH2 0x12B SWAP2 SWAP1 PUSH2 0x343 JUMP JUMPDEST PUSH1 0x40 MLOAD DUP1 SWAP2 SUB SWAP1 RETURN JUMPDEST PUSH2 0x13C PUSH2 0x23A JUMP JUMPDEST PUSH1 0x40 MLOAD PUSH2 0x149 SWAP2 SWAP1 PUSH2 0x343 JUMP JUMPDEST PUSH1 0x40 MLOAD DUP1 SWAP2 SUB SWAP1 RETURN JUMPDEST PUSH2 0x15A PUSH2 0x240 JUMP JUMPDEST PUSH1 0x40 MLOAD PUSH2 0x167 SWAP2 SWAP1 PUSH2 0x343 JUMP JUMPDEST PUSH1 0x40 MLOAD DUP1 SWAP2 SUB SWAP1 RETURN JUMPDEST PUSH2 0x178 PUSH2 0x246 JUMP JUMPDEST PUSH1 0x40 MLOAD PUSH2 0x185 SWAP2 SWAP1 PUSH2 0x343 JUMP JUMPDEST PUSH1 0x40 MLOAD DUP1 SWAP2 SUB SWAP1 RETURN JUMPDEST PUSH2 0x196 PUSH2 0x24C JUMP JUMPDEST PUSH1 0x40 MLOAD PUSH2 0x1A3 SWAP2 SWAP1 PUSH2 0x343 JUMP JUMPDEST PUSH1 0x40 MLOAD DUP1 SWAP2 SUB SWAP1 RETURN JUMPDEST PUSH2 0x1B4 PUSH2 0x252 JUMP JUMPDEST PUSH1 0x40 MLOAD PUSH2 0x1C1 SWAP2 SWAP1 PUSH2 0x2F2 JUMP JUMPDEST PUSH1 0x40 MLOAD DUP1 SWAP2 SUB SWAP1 RETURN JUMPDEST PUSH1 0xA SLOAD DUP2 JUMP JUMPDEST PUSH1 0x9 PUSH1 0x20 MSTORE DUP1 PUSH1 0x0 MSTORE PUSH1 0x40 PUSH1 0x0 KECCAK256 PUSH1 0x0 SWAP2 POP SLOAD SWAP1 PUSH2 0x100 EXP SWAP1 DIV PUSH1 0xFF AND DUP2 JUMP JUMPDEST PUSH1 0x3 PUSH1 0x0 SWAP1 SLOAD SWAP1 PUSH2 0x100 EXP SWAP1 DIV PUSH20 0xFFFFFFFFFFFFFFFFFFFFFFFFFFFFFFFFFFFFFFFF AND DUP2 JUMP JUMPDEST PUSH1 0x5 DUP2 DUP2 SLOAD DUP2 LT PUSH2 0x226 JUMPI PUSH1 0x0 DUP1 REVERT JUMPDEST SWAP1 PUSH1 0x0 MSTORE PUSH1 0x20 PUSH1 0x0 KECCAK256 ADD PUSH1 0x0 SWAP2 POP SWAP1 POP SLOAD DUP2 JUMP JUMPDEST PUSH1 0x6 SLOAD DUP2 JUMP JUMPDEST PUSH1 0x4 SLOAD DUP2 JUMP JUMPDEST PUSH1 0x1 SLOAD DUP2 JUMP JUMPDEST PUSH1 0x0 SLOAD DUP2 JUMP JUMPDEST PUSH1 0x2 PUSH1 0x0 SWAP1 SLOAD SWAP1 PUSH2 0x100 EXP SWAP1 DIV PUSH20 0xFFFFFFFFFFFFFFFFFFFFFFFFFFFFFFFFFFFFFFFF AND DUP2 JUMP JUMPDEST PUSH1 0x0 DUP2 CALLDATALOAD SWAP1 POP PUSH2 0x287 DUP2 PUSH2 0x3CA JUMP JUMPDEST SWAP3 SWAP2 POP POP JUMP JUMPDEST PUSH1 0x0 PUSH1 0x20 DUP3 DUP5 SUB SLT ISZERO PUSH2 0x29F JUMPI PUSH1 0x0 DUP1 REVERT JUMPDEST PUSH1 0x0 PUSH2 0x2AD DUP5 DUP3 DUP6 ADD PUSH2 0x278 JUMP JUMPDEST SWAP2 POP POP SWAP3 SWAP2 POP POP JUMP JUMPDEST PUSH2 0x2BF DUP2 PUSH2 0x35E JUMP JUMPDEST DUP3 MSTORE POP POP JUMP JUMPDEST PUSH2 0x2CE DUP2 PUSH2 0x370 JUMP JUMPDEST DUP3 MSTORE POP POP JUMP JUMPDEST PUSH2 0x2DD DUP2 PUSH2 0x3A6 JUMP JUMPDEST DUP3 MSTORE POP POP JUMP JUMPDEST PUSH2 0x2EC DUP2 PUSH2 0x39C JUMP JUMPDEST DUP3 MSTORE POP POP JUMP JUMPDEST PUSH1 0x0 PUSH1 0x20 DUP3 ADD SWAP1 POP PUSH2 0x307 PUSH1 0x0 DUP4 ADD DUP5 PUSH2 0x2B6 JUMP JUMPDEST SWAP3 SWAP2 POP POP JUMP JUMPDEST PUSH1 0x0 PUSH1 0x20 DUP3 ADD SWAP1 POP PUSH2 0x322 PUSH1 0x0 DUP4 ADD DUP5 PUSH2 0x2C5 JUMP JUMPDEST SWAP3 SWAP2 POP POP JUMP JUMPDEST PUSH1 0x0 PUSH1 0x20 DUP3 ADD SWAP1 POP PUSH2 0x33D PUSH1 0x0 DUP4 ADD DUP5 PUSH2 0x2D4 JUMP JUMPDEST SWAP3 SWAP2 POP POP JUMP JUMPDEST PUSH1 0x0 PUSH1 0x20 DUP3 ADD SWAP1 POP PUSH2 0x358 PUSH1 0x0 DUP4 ADD DUP5 PUSH2 0x2E3 JUMP JUMPDEST SWAP3 SWAP2 POP POP JUMP JUMPDEST PUSH1 0x0 PUSH2 0x369 DUP3 PUSH2 0x37C JUMP JUMPDEST SWAP1 POP SWAP2 SWAP1 POP JUMP JUMPDEST PUSH1 0x0 DUP2 ISZERO ISZERO SWAP1 POP SWAP2 SWAP1 POP JUMP JUMPDEST PUSH1 0x0 PUSH20 0xFFFFFFFFFFFFFFFFFFFFFFFFFFFFFFFFFFFFFFFF DUP3 AND SWAP1 POP SWAP2 SWAP1 POP JUMP JUMPDEST PUSH1 0x0 DUP2 SWAP1 POP SWAP2 SWAP1 POP JUMP JUMPDEST PUSH1 0x0 PUSH2 0x3B1 DUP3 PUSH2 0x3B8 JUMP JUMPDEST SWAP1 POP SWAP2 SWAP1 POP JUMP JUMPDEST PUSH1 0x0 PUSH2 0x3C3 DUP3 PUSH2 0x37C JUMP JUMPDEST SWAP1 POP SWAP2 SWAP1 POP JUMP JUMPDEST PUSH2 0x3D3 DUP2 PUSH2 0x39C JUMP JUMPDEST DUP2 EQ PUSH2 0x3DE JUMPI PUSH1 0x0 DUP1 REVERT JUMPDEST POP JUMP INVALID LOG2 PUSH5 0x6970667358 0x22 SLT KECCAK256 SHL COINBASE 0x4E LOG0 0xB8 0xA6 0xB9 0xBF CALLCODE SELFBALANCE SELFBALANCE PUSH12 0xE3536D7163A7D5CCF68ECB70 0xF 0xC 0x26 CALLVALUE PUSH14 0x2D964A64736F6C63430008000033 "
				},
				"gasEstimates": {
					"creation": {
						"codeDepositCost": "209400",
						"executionCost": "60269",
						"totalCost": "269669"
					},
					"external": {
						"bufferTime()": "1173",
						"executeQueue(uint256)": "infinite",
						"executeQueueMap(uint256)": "1519",
						"minimumQuantity()": "1130",
						"router()": "1302",
						"templateTotal()": "1129",
						"veToken()": "1302",
						"voteTatola()": "1151",
						"voteTime()": "1195"
					}
				},
				"methodIdentifiers": {
					"bufferTime()": "ba7b6703",
					"executeQueue(uint256)": "52538550",
					"executeQueueMap(uint256)": "2c9e3ef0",
					"minimumQuantity()": "1d75ddcc",
					"router()": "f887ea40",
					"templateTotal()": "5a42007f",
					"veToken()": "3b92eb23",
					"voteTatola()": "75bb5b09",
					"voteTime()": "bcf93dd6"
				}
			},
			"storageLayout": {
				"storage": [
					{
						"astId": 372,
						"contract": "contracts/Template/Istanbul10/data/VoteData.sol:VoteData",
						"label": "voteTime",
						"offset": 0,
						"slot": "0",
						"type": "t_uint256"
					},
					{
						"astId": 375,
						"contract": "contracts/Template/Istanbul10/data/VoteData.sol:VoteData",
						"label": "bufferTime",
						"offset": 0,
						"slot": "1",
						"type": "t_uint256"
					},
					{
						"astId": 377,
						"contract": "contracts/Template/Istanbul10/data/VoteData.sol:VoteData",
						"label": "router",
						"offset": 0,
						"slot": "2",
						"type": "t_address"
					},
					{
						"astId": 380,
						"contract": "contracts/Template/Istanbul10/data/VoteData.sol:VoteData",
						"label": "veToken",
						"offset": 0,
						"slot": "3",
						"type": "t_contract(VeTokenTest)1661"
					},
					{
						"astId": 382,
						"contract": "contracts/Template/Istanbul10/data/VoteData.sol:VoteData",
						"label": "voteTatola",
						"offset": 0,
						"slot": "4",
						"type": "t_uint256"
					},
					{
						"astId": 385,
						"contract": "contracts/Template/Istanbul10/data/VoteData.sol:VoteData",
						"label": "executeQueue",
						"offset": 0,
						"slot": "5",
						"type": "t_array(t_uint256)dyn_storage"
					},
					{
						"astId": 387,
						"contract": "contracts/Template/Istanbul10/data/VoteData.sol:VoteData",
						"label": "templateTotal",
						"offset": 0,
						"slot": "6",
						"type": "t_uint256"
					},
					{
						"astId": 392,
						"contract": "contracts/Template/Istanbul10/data/VoteData.sol:VoteData",
						"label": "voteMapp",
						"offset": 0,
						"slot": "7",
						"type": "t_mapping(t_uint256,t_struct(VoteStruct)436_storage)"
					},
					{
						"astId": 397,
						"contract": "contracts/Template/Istanbul10/data/VoteData.sol:VoteData",
						"label": "template",
						"offset": 0,
						"slot": "8",
						"type": "t_mapping(t_uint256,t_struct(GgovernanceTemplate)465_storage)"
					},
					{
						"astId": 401,
						"contract": "contracts/Template/Istanbul10/data/VoteData.sol:VoteData",
						"label": "executeQueueMap",
						"offset": 0,
						"slot": "9",
						"type": "t_mapping(t_uint256,t_bool)"
					},
					{
						"astId": 404,
						"contract": "contracts/Template/Istanbul10/data/VoteData.sol:VoteData",
						"label": "minimumQuantity",
						"offset": 0,
						"slot": "10",
						"type": "t_uint256"
					}
				],
				"types": {
					"t_address": {
						"encoding": "inplace",
						"label": "address",
						"numberOfBytes": "20"
					},
					"t_array(t_address)dyn_storage": {
						"base": "t_address",
						"encoding": "dynamic_array",
						"label": "address[]",
						"numberOfBytes": "32"
					},
					"t_array(t_uint256)dyn_storage": {
						"base": "t_uint256",
						"encoding": "dynamic_array",
						"label": "uint256[]",
						"numberOfBytes": "32"
					},
					"t_bool": {
						"encoding": "inplace",
						"label": "bool",
						"numberOfBytes": "1"
					},
					"t_contract(VeTokenTest)1661": {
						"encoding": "inplace",
						"label": "contract VeTokenTest",
						"numberOfBytes": "20"
					},
					"t_enum(VoteStatus)369": {
						"encoding": "inplace",
						"label": "enum VoteData.VoteStatus",
						"numberOfBytes": "1"
					},
					"t_mapping(t_address,t_struct(Delegate)456_storage)": {
						"encoding": "mapping",
						"key": "t_address",
						"label": "mapping(address => struct VoteData.Delegate)",
						"numberOfBytes": "32",
						"value": "t_struct(Delegate)456_storage"
					},
					"t_mapping(t_uint256,t_bool)": {
						"encoding": "mapping",
						"key": "t_uint256",
						"label": "mapping(uint256 => bool)",
						"numberOfBytes": "32",
						"value": "t_bool"
					},
					"t_mapping(t_uint256,t_struct(GgovernanceTemplate)465_storage)": {
						"encoding": "mapping",
						"key": "t_uint256",
						"label": "mapping(uint256 => struct VoteData.GgovernanceTemplate)",
						"numberOfBytes": "32",
						"value": "t_struct(GgovernanceTemplate)465_storage"
					},
					"t_mapping(t_uint256,t_struct(VoteStruct)436_storage)": {
						"encoding": "mapping",
						"key": "t_uint256",
						"label": "mapping(uint256 => struct VoteData.VoteStruct)",
						"numberOfBytes": "32",
						"value": "t_struct(VoteStruct)436_storage"
					},
					"t_string_storage": {
						"encoding": "bytes",
						"label": "string",
						"numberOfBytes": "32"
					},
					"t_struct(Delegate)456_storage": {
						"encoding": "inplace",
						"label": "struct VoteData.Delegate",
						"members": [
							{
								"astId": 452,
								"contract": "contracts/Template/Istanbul10/data/VoteData.sol:VoteData",
								"label": "voted",
								"offset": 0,
								"slot": "0",
								"type": "t_bool"
							},
							{
								"astId": 455,
								"contract": "contracts/Template/Istanbul10/data/VoteData.sol:VoteData",
								"label": "bailor",
								"offset": 0,
								"slot": "1",
								"type": "t_array(t_address)dyn_storage"
							}
						],
						"numberOfBytes": "64"
					},
					"t_struct(GgovernanceTemplate)465_storage": {
						"encoding": "inplace",
						"label": "struct VoteData.GgovernanceTemplate",
						"members": [
							{
								"astId": 458,
								"contract": "contracts/Template/Istanbul10/data/VoteData.sol:VoteData",
								"label": "templateId",
								"offset": 0,
								"slot": "0",
								"type": "t_uint256"
							},
							{
								"astId": 460,
								"contract": "contracts/Template/Istanbul10/data/VoteData.sol:VoteData",
								"label": "toppic",
								"offset": 0,
								"slot": "1",
								"type": "t_string_storage"
							},
							{
								"astId": 462,
								"contract": "contracts/Template/Istanbul10/data/VoteData.sol:VoteData",
								"label": "targetAddress",
								"offset": 0,
								"slot": "2",
								"type": "t_address"
							},
							{
								"astId": 464,
								"contract": "contracts/Template/Istanbul10/data/VoteData.sol:VoteData",
								"label": "functionName",
								"offset": 0,
								"slot": "3",
								"type": "t_string_storage"
							}
						],
						"numberOfBytes": "128"
					},
					"t_struct(SecondBallot)450_storage": {
						"encoding": "inplace",
						"label": "struct VoteData.SecondBallot",
						"members": [
							{
								"astId": 438,
								"contract": "contracts/Template/Istanbul10/data/VoteData.sol:VoteData",
								"label": "vetoer",
								"offset": 0,
								"slot": "0",
								"type": "t_address"
							},
							{
								"astId": 440,
								"contract": "contracts/Template/Istanbul10/data/VoteData.sol:VoteData",
								"label": "describe",
								"offset": 0,
								"slot": "1",
								"type": "t_string_storage"
							},
							{
								"astId": 442,
								"contract": "contracts/Template/Istanbul10/data/VoteData.sol:VoteData",
								"label": "supPopel",
								"offset": 0,
								"slot": "2",
								"type": "t_uint256"
							},
							{
								"astId": 444,
								"contract": "contracts/Template/Istanbul10/data/VoteData.sol:VoteData",
								"label": "againstPopel",
								"offset": 0,
								"slot": "3",
								"type": "t_uint256"
							},
							{
								"astId": 449,
								"contract": "contracts/Template/Istanbul10/data/VoteData.sol:VoteData",
								"label": "VoterAddress",
								"offset": 0,
								"slot": "4",
								"type": "t_mapping(t_address,t_struct(Delegate)456_storage)"
							}
						],
						"numberOfBytes": "160"
					},
					"t_struct(VoteStruct)436_storage": {
						"encoding": "inplace",
						"label": "struct VoteData.VoteStruct",
						"members": [
							{
								"astId": 406,
								"contract": "contracts/Template/Istanbul10/data/VoteData.sol:VoteData",
								"label": "totalsupply",
								"offset": 0,
								"slot": "0",
								"type": "t_uint256"
							},
							{
								"astId": 408,
								"contract": "contracts/Template/Istanbul10/data/VoteData.sol:VoteData",
								"label": "voteId",
								"offset": 0,
								"slot": "1",
								"type": "t_uint256"
							},
							{
								"astId": 410,
								"contract": "contracts/Template/Istanbul10/data/VoteData.sol:VoteData",
								"label": "time",
								"offset": 0,
								"slot": "2",
								"type": "t_uint256"
							},
							{
								"astId": 412,
								"contract": "contracts/Template/Istanbul10/data/VoteData.sol:VoteData",
								"label": "voteTopic",
								"offset": 0,
								"slot": "3",
								"type": "t_string_storage"
							},
							{
								"astId": 414,
								"contract": "contracts/Template/Istanbul10/data/VoteData.sol:VoteData",
								"label": "initiator",
								"offset": 0,
								"slot": "4",
								"type": "t_address"
							},
							{
								"astId": 416,
								"contract": "contracts/Template/Istanbul10/data/VoteData.sol:VoteData",
								"label": "describe",
								"offset": 0,
								"slot": "5",
								"type": "t_string_storage"
							},
							{
								"astId": 418,
								"contract": "contracts/Template/Istanbul10/data/VoteData.sol:VoteData",
								"label": "supPopel",
								"offset": 0,
								"slot": "6",
								"type": "t_uint256"
							},
							{
								"astId": 420,
								"contract": "contracts/Template/Istanbul10/data/VoteData.sol:VoteData",
								"label": "againstPopel",
								"offset": 0,
								"slot": "7",
								"type": "t_uint256"
							},
							{
								"astId": 423,
								"contract": "contracts/Template/Istanbul10/data/VoteData.sol:VoteData",
								"label": "status",
								"offset": 0,
								"slot": "8",
								"type": "t_enum(VoteStatus)369"
							},
							{
								"astId": 425,
								"contract": "contracts/Template/Istanbul10/data/VoteData.sol:VoteData",
								"label": "codeModel",
								"offset": 0,
								"slot": "9",
								"type": "t_uint256"
							},
							{
								"astId": 427,
								"contract": "contracts/Template/Istanbul10/data/VoteData.sol:VoteData",
								"label": "value",
								"offset": 0,
								"slot": "10",
								"type": "t_uint256"
							},
							{
								"astId": 432,
								"contract": "contracts/Template/Istanbul10/data/VoteData.sol:VoteData",
								"label": "VoterAddress",
								"offset": 0,
								"slot": "11",
								"type": "t_mapping(t_address,t_struct(Delegate)456_storage)"
							},
							{
								"astId": 435,
								"contract": "contracts/Template/Istanbul10/data/VoteData.sol:VoteData",
								"label": "svote",
								"offset": 0,
								"slot": "12",
								"type": "t_struct(SecondBallot)450_storage"
							}
						],
						"numberOfBytes": "544"
					},
					"t_uint256": {
						"encoding": "inplace",
						"label": "uint256",
						"numberOfBytes": "32"
					}
				}
			},
			"userdoc": {
				"kind": "user",
				"methods": {},
				"version": 1
			}
		}
	}
}