{
	"contracts/test/VeTokenTest.sol": {
		"VeTokenTest": {
			"abi": [
				{
					"inputs": [
						{
							"internalType": "address",
							"name": "add",
							"type": "address"
						}
					],
					"name": "balanceOf",
					"outputs": [
						{
							"internalType": "uint256",
							"name": "result",
							"type": "uint256"
						}
					],
					"stateMutability": "view",
					"type": "function"
				},
				{
					"inputs": [],
					"name": "circulation",
					"outputs": [
						{
							"internalType": "uint256",
							"name": "",
							"type": "uint256"
						}
					],
					"stateMutability": "view",
					"type": "function"
				},
				{
					"inputs": [],
					"name": "initialize",
					"outputs": [],
					"stateMutability": "nonpayable",
					"type": "function"
				},
				{
					"inputs": [],
					"name": "initializer",
					"outputs": [
						{
							"internalType": "bool",
							"name": "",
							"type": "bool"
						}
					],
					"stateMutability": "view",
					"type": "function"
				},
				{
					"inputs": [],
					"name": "maxTime",
					"outputs": [
						{
							"internalType": "uint256",
							"name": "",
							"type": "uint256"
						}
					],
					"stateMutability": "view",
					"type": "function"
				},
				{
					"inputs": [],
					"name": "pledge",
					"outputs": [],
					"stateMutability": "nonpayable",
					"type": "function"
				},
				{
					"inputs": [],
					"name": "router",
					"outputs": [
						{
							"internalType": "address",
							"name": "",
							"type": "address"
						}
					],
					"stateMutability": "view",
					"type": "function"
				},
				{
					"inputs": [
						{
							"internalType": "uint256",
							"name": "value",
							"type": "uint256"
						}
					],
					"name": "setMaxTime",
					"outputs": [],
					"stateMutability": "nonpayable",
					"type": "function"
				},
				{
					"inputs": [],
					"name": "totalSupply",
					"outputs": [
						{
							"internalType": "uint256",
							"name": "result",
							"type": "uint256"
						}
					],
					"stateMutability": "view",
					"type": "function"
				}
			],
			"devdoc": {
				"kind": "dev",
				"methods": {},
				"version": 1
			},
			"evm": {
				"assembly": "    /* \"contracts/test/VeTokenTest.sol\":60:910  contract VeTokenTest {\r... */\n  mstore(0x40, 0x80)\n  callvalue\n  dup1\n  iszero\n  tag_1\n  jumpi\n  0x00\n  dup1\n  revert\ntag_1:\n  pop\n  dataSize(sub_0)\n  dup1\n  dataOffset(sub_0)\n  0x00\n  codecopy\n  0x00\n  return\nstop\n\nsub_0: assembly {\n        /* \"contracts/test/VeTokenTest.sol\":60:910  contract VeTokenTest {\r... */\n      mstore(0x40, 0x80)\n      callvalue\n      dup1\n      iszero\n      tag_1\n      jumpi\n      0x00\n      dup1\n      revert\n    tag_1:\n      pop\n      jumpi(tag_2, lt(calldatasize, 0x04))\n      shr(0xe0, calldataload(0x00))\n      dup1\n      0x8129fc1c\n      gt\n      tag_12\n      jumpi\n      dup1\n      0x8129fc1c\n      eq\n      tag_7\n      jumpi\n      dup1\n      0x88ffe867\n      eq\n      tag_8\n      jumpi\n      dup1\n      0x98b777e7\n      eq\n      tag_9\n      jumpi\n      dup1\n      0x9ce110d7\n      eq\n      tag_10\n      jumpi\n      dup1\n      0xf887ea40\n      eq\n      tag_11\n      jumpi\n      jump(tag_2)\n    tag_12:\n      dup1\n      0x18160ddd\n      eq\n      tag_3\n      jumpi\n      dup1\n      0x22e67e71\n      eq\n      tag_4\n      jumpi\n      dup1\n      0x5fdf60fb\n      eq\n      tag_5\n      jumpi\n      dup1\n      0x70a08231\n      eq\n      tag_6\n      jumpi\n    tag_2:\n      0x00\n      dup1\n      revert\n        /* \"contracts/test/VeTokenTest.sol\":568:659  function  totalSupply()public view returns(uint256 result){\r... */\n    tag_3:\n      tag_13\n      tag_14\n      jump\t// in\n    tag_13:\n      mload(0x40)\n      tag_15\n      swap2\n      swap1\n      tag_16\n      jump\t// in\n    tag_15:\n      mload(0x40)\n      dup1\n      swap2\n      sub\n      swap1\n      return\n        /* \"contracts/test/VeTokenTest.sol\":158:180  uint256 public maxTime */\n    tag_4:\n      tag_17\n      tag_18\n      jump\t// in\n    tag_17:\n      mload(0x40)\n      tag_19\n      swap2\n      swap1\n      tag_16\n      jump\t// in\n    tag_19:\n      mload(0x40)\n      dup1\n      swap2\n      sub\n      swap1\n      return\n        /* \"contracts/test/VeTokenTest.sol\":126:153  uint256  public circulation */\n    tag_5:\n      tag_20\n      tag_21\n      jump\t// in\n    tag_20:\n      mload(0x40)\n      tag_22\n      swap2\n      swap1\n      tag_16\n      jump\t// in\n    tag_22:\n      mload(0x40)\n      dup1\n      swap2\n      sub\n      swap1\n      return\n        /* \"contracts/test/VeTokenTest.sol\":461:561  function balanceOf(address add)public view returns(uint256 result){\r... */\n    tag_6:\n      tag_23\n      0x04\n      dup1\n      calldatasize\n      sub\n      dup2\n      add\n      swap1\n      tag_24\n      swap2\n      swap1\n      tag_25\n      jump\t// in\n    tag_24:\n      tag_26\n      jump\t// in\n    tag_23:\n      mload(0x40)\n      tag_27\n      swap2\n      swap1\n      tag_16\n      jump\t// in\n    tag_27:\n      mload(0x40)\n      dup1\n      swap2\n      sub\n      swap1\n      return\n        /* \"contracts/test/VeTokenTest.sol\":745:907  function initialize() public {\r... */\n    tag_7:\n      tag_28\n      tag_29\n      jump\t// in\n    tag_28:\n      stop\n        /* \"contracts/test/VeTokenTest.sol\":367:455  function pledge()public {\r... */\n    tag_8:\n      tag_30\n      tag_31\n      jump\t// in\n    tag_30:\n      stop\n        /* \"contracts/test/VeTokenTest.sol\":666:739  function  setMaxTime(uint256 value)public {\r... */\n    tag_9:\n      tag_32\n      0x04\n      dup1\n      calldatasize\n      sub\n      dup2\n      add\n      swap1\n      tag_33\n      swap2\n      swap1\n      tag_34\n      jump\t// in\n    tag_33:\n      tag_35\n      jump\t// in\n    tag_32:\n      stop\n        /* \"contracts/test/VeTokenTest.sol\":335:360  bool   public initializer */\n    tag_10:\n      tag_36\n      tag_37\n      jump\t// in\n    tag_36:\n      mload(0x40)\n      tag_38\n      swap2\n      swap1\n      tag_39\n      jump\t// in\n    tag_38:\n      mload(0x40)\n      dup1\n      swap2\n      sub\n      swap1\n      return\n        /* \"contracts/test/VeTokenTest.sol\":247:270  address   public router */\n    tag_11:\n      tag_40\n      tag_41\n      jump\t// in\n    tag_40:\n      mload(0x40)\n      tag_42\n      swap2\n      swap1\n      tag_43\n      jump\t// in\n    tag_42:\n      mload(0x40)\n      dup1\n      swap2\n      sub\n      swap1\n      return\n        /* \"contracts/test/VeTokenTest.sol\":568:659  function  totalSupply()public view returns(uint256 result){\r... */\n    tag_14:\n        /* \"contracts/test/VeTokenTest.sol\":611:625  uint256 result */\n      0x00\n        /* \"contracts/test/VeTokenTest.sol\":642:653  circulation */\n      sload(0x01)\n        /* \"contracts/test/VeTokenTest.sol\":635:653  return circulation */\n      swap1\n      pop\n        /* \"contracts/test/VeTokenTest.sol\":568:659  function  totalSupply()public view returns(uint256 result){\r... */\n      swap1\n      jump\t// out\n        /* \"contracts/test/VeTokenTest.sol\":158:180  uint256 public maxTime */\n    tag_18:\n      sload(0x02)\n      dup2\n      jump\t// out\n        /* \"contracts/test/VeTokenTest.sol\":126:153  uint256  public circulation */\n    tag_21:\n      sload(0x01)\n      dup2\n      jump\t// out\n        /* \"contracts/test/VeTokenTest.sol\":461:561  function balanceOf(address add)public view returns(uint256 result){\r... */\n    tag_26:\n        /* \"contracts/test/VeTokenTest.sol\":512:526  uint256 result */\n      0x00\n        /* \"contracts/test/VeTokenTest.sol\":543:550  balance */\n      dup1\n        /* \"contracts/test/VeTokenTest.sol\":543:555  balance[add] */\n      0x00\n        /* \"contracts/test/VeTokenTest.sol\":551:554  add */\n      dup4\n        /* \"contracts/test/VeTokenTest.sol\":543:555  balance[add] */\n      0xffffffffffffffffffffffffffffffffffffffff\n      and\n      0xffffffffffffffffffffffffffffffffffffffff\n      and\n      dup2\n      mstore\n      0x20\n      add\n      swap1\n      dup2\n      mstore\n      0x20\n      add\n      0x00\n      keccak256\n      sload\n        /* \"contracts/test/VeTokenTest.sol\":536:555  return balance[add] */\n      swap1\n      pop\n        /* \"contracts/test/VeTokenTest.sol\":461:561  function balanceOf(address add)public view returns(uint256 result){\r... */\n      swap2\n      swap1\n      pop\n      jump\t// out\n        /* \"contracts/test/VeTokenTest.sol\":745:907  function initialize() public {\r... */\n    tag_29:\n        /* \"contracts/test/VeTokenTest.sol\":790:801  initializer */\n      0x03\n      0x14\n      swap1\n      sload\n      swap1\n      0x0100\n      exp\n      swap1\n      div\n      0xff\n      and\n        /* \"contracts/test/VeTokenTest.sol\":789:801  !initializer */\n      iszero\n        /* \"contracts/test/VeTokenTest.sol\":781:838  require(!initializer,\"initialize :: Already initialized\") */\n      tag_47\n      jumpi\n      mload(0x40)\n      0x08c379a000000000000000000000000000000000000000000000000000000000\n      dup2\n      mstore\n      0x04\n      add\n      tag_48\n      swap1\n      tag_49\n      jump\t// in\n    tag_48:\n      mload(0x40)\n      dup1\n      swap2\n      sub\n      swap1\n      revert\n    tag_47:\n        /* \"contracts/test/VeTokenTest.sol\":860:871  initializer */\n      0x03\n      0x14\n      swap1\n      sload\n      swap1\n      0x0100\n      exp\n      swap1\n      div\n      0xff\n      and\n        /* \"contracts/test/VeTokenTest.sol\":859:871  !initializer */\n      iszero\n        /* \"contracts/test/VeTokenTest.sol\":845:856  initializer */\n      0x03\n      0x14\n        /* \"contracts/test/VeTokenTest.sol\":845:871  initializer = !initializer */\n      0x0100\n      exp\n      dup2\n      sload\n      dup2\n      0xff\n      mul\n      not\n      and\n      swap1\n      dup4\n      iszero\n      iszero\n      mul\n      or\n      swap1\n      sstore\n      pop\n        /* \"contracts/test/VeTokenTest.sol\":887:897  msg.sender */\n      caller\n        /* \"contracts/test/VeTokenTest.sol\":878:884  router */\n      0x03\n      0x00\n        /* \"contracts/test/VeTokenTest.sol\":878:897  router = msg.sender */\n      0x0100\n      exp\n      dup2\n      sload\n      dup2\n      0xffffffffffffffffffffffffffffffffffffffff\n      mul\n      not\n      and\n      swap1\n      dup4\n      0xffffffffffffffffffffffffffffffffffffffff\n      and\n      mul\n      or\n      swap1\n      sstore\n      pop\n        /* \"contracts/test/VeTokenTest.sol\":745:907  function initialize() public {\r... */\n      jump\t// out\n        /* \"contracts/test/VeTokenTest.sol\":367:455  function pledge()public {\r... */\n    tag_31:\n        /* \"contracts/test/VeTokenTest.sol\":420:424  2000 */\n      0x07d0\n        /* \"contracts/test/VeTokenTest.sol\":398:405  balance */\n      0x00\n        /* \"contracts/test/VeTokenTest.sol\":398:417  balance[msg.sender] */\n      dup1\n        /* \"contracts/test/VeTokenTest.sol\":406:416  msg.sender */\n      caller\n        /* \"contracts/test/VeTokenTest.sol\":398:417  balance[msg.sender] */\n      0xffffffffffffffffffffffffffffffffffffffff\n      and\n      0xffffffffffffffffffffffffffffffffffffffff\n      and\n      dup2\n      mstore\n      0x20\n      add\n      swap1\n      dup2\n      mstore\n      0x20\n      add\n      0x00\n      keccak256\n        /* \"contracts/test/VeTokenTest.sol\":398:424  balance[msg.sender] = 2000 */\n      dup2\n      swap1\n      sstore\n      pop\n        /* \"contracts/test/VeTokenTest.sol\":446:448  20 */\n      0x14\n        /* \"contracts/test/VeTokenTest.sol\":431:442  circulation */\n      0x01\n      0x00\n        /* \"contracts/test/VeTokenTest.sol\":431:448  circulation += 20 */\n      dup3\n      dup3\n      sload\n      tag_51\n      swap2\n      swap1\n      tag_52\n      jump\t// in\n    tag_51:\n      swap3\n      pop\n      pop\n      dup2\n      swap1\n      sstore\n      pop\n        /* \"contracts/test/VeTokenTest.sol\":367:455  function pledge()public {\r... */\n      jump\t// out\n        /* \"contracts/test/VeTokenTest.sol\":666:739  function  setMaxTime(uint256 value)public {\r... */\n    tag_35:\n        /* \"contracts/test/VeTokenTest.sol\":728:733  value */\n      dup1\n        /* \"contracts/test/VeTokenTest.sol\":718:725  maxTime */\n      0x02\n        /* \"contracts/test/VeTokenTest.sol\":718:733  maxTime = value */\n      dup2\n      swap1\n      sstore\n      pop\n        /* \"contracts/test/VeTokenTest.sol\":666:739  function  setMaxTime(uint256 value)public {\r... */\n      pop\n      jump\t// out\n        /* \"contracts/test/VeTokenTest.sol\":335:360  bool   public initializer */\n    tag_37:\n      0x03\n      0x14\n      swap1\n      sload\n      swap1\n      0x0100\n      exp\n      swap1\n      div\n      0xff\n      and\n      dup2\n      jump\t// out\n        /* \"contracts/test/VeTokenTest.sol\":247:270  address   public router */\n    tag_41:\n      0x03\n      0x00\n      swap1\n      sload\n      swap1\n      0x0100\n      exp\n      swap1\n      div\n      0xffffffffffffffffffffffffffffffffffffffff\n      and\n      dup2\n      jump\t// out\n        /* \"#utility.yul\":7:146   */\n    tag_55:\n      0x00\n        /* \"#utility.yul\":91:97   */\n      dup2\n        /* \"#utility.yul\":78:98   */\n      calldataload\n        /* \"#utility.yul\":69:98   */\n      swap1\n      pop\n        /* \"#utility.yul\":107:140   */\n      tag_57\n        /* \"#utility.yul\":134:139   */\n      dup2\n        /* \"#utility.yul\":107:140   */\n      tag_58\n      jump\t// in\n    tag_57:\n        /* \"#utility.yul\":59:146   */\n      swap3\n      swap2\n      pop\n      pop\n      jump\t// out\n        /* \"#utility.yul\":152:291   */\n    tag_59:\n      0x00\n        /* \"#utility.yul\":236:242   */\n      dup2\n        /* \"#utility.yul\":223:243   */\n      calldataload\n        /* \"#utility.yul\":214:243   */\n      swap1\n      pop\n        /* \"#utility.yul\":252:285   */\n      tag_61\n        /* \"#utility.yul\":279:284   */\n      dup2\n        /* \"#utility.yul\":252:285   */\n      tag_62\n      jump\t// in\n    tag_61:\n        /* \"#utility.yul\":204:291   */\n      swap3\n      swap2\n      pop\n      pop\n      jump\t// out\n        /* \"#utility.yul\":297:559   */\n    tag_25:\n      0x00\n        /* \"#utility.yul\":405:407   */\n      0x20\n        /* \"#utility.yul\":393:402   */\n      dup3\n        /* \"#utility.yul\":384:391   */\n      dup5\n        /* \"#utility.yul\":380:403   */\n      sub\n        /* \"#utility.yul\":376:408   */\n      slt\n        /* \"#utility.yul\":373:375   */\n      iszero\n      tag_64\n      jumpi\n        /* \"#utility.yul\":421:422   */\n      0x00\n        /* \"#utility.yul\":418:419   */\n      dup1\n        /* \"#utility.yul\":411:423   */\n      revert\n        /* \"#utility.yul\":373:375   */\n    tag_64:\n        /* \"#utility.yul\":464:465   */\n      0x00\n        /* \"#utility.yul\":489:542   */\n      tag_65\n        /* \"#utility.yul\":534:541   */\n      dup5\n        /* \"#utility.yul\":525:531   */\n      dup3\n        /* \"#utility.yul\":514:523   */\n      dup6\n        /* \"#utility.yul\":510:532   */\n      add\n        /* \"#utility.yul\":489:542   */\n      tag_55\n      jump\t// in\n    tag_65:\n        /* \"#utility.yul\":479:542   */\n      swap2\n      pop\n        /* \"#utility.yul\":435:552   */\n      pop\n        /* \"#utility.yul\":363:559   */\n      swap3\n      swap2\n      pop\n      pop\n      jump\t// out\n        /* \"#utility.yul\":565:827   */\n    tag_34:\n      0x00\n        /* \"#utility.yul\":673:675   */\n      0x20\n        /* \"#utility.yul\":661:670   */\n      dup3\n        /* \"#utility.yul\":652:659   */\n      dup5\n        /* \"#utility.yul\":648:671   */\n      sub\n        /* \"#utility.yul\":644:676   */\n      slt\n        /* \"#utility.yul\":641:643   */\n      iszero\n      tag_67\n      jumpi\n        /* \"#utility.yul\":689:690   */\n      0x00\n        /* \"#utility.yul\":686:687   */\n      dup1\n        /* \"#utility.yul\":679:691   */\n      revert\n        /* \"#utility.yul\":641:643   */\n    tag_67:\n        /* \"#utility.yul\":732:733   */\n      0x00\n        /* \"#utility.yul\":757:810   */\n      tag_68\n        /* \"#utility.yul\":802:809   */\n      dup5\n        /* \"#utility.yul\":793:799   */\n      dup3\n        /* \"#utility.yul\":782:791   */\n      dup6\n        /* \"#utility.yul\":778:800   */\n      add\n        /* \"#utility.yul\":757:810   */\n      tag_59\n      jump\t// in\n    tag_68:\n        /* \"#utility.yul\":747:810   */\n      swap2\n      pop\n        /* \"#utility.yul\":703:820   */\n      pop\n        /* \"#utility.yul\":631:827   */\n      swap3\n      swap2\n      pop\n      pop\n      jump\t// out\n        /* \"#utility.yul\":833:951   */\n    tag_69:\n        /* \"#utility.yul\":920:944   */\n      tag_71\n        /* \"#utility.yul\":938:943   */\n      dup2\n        /* \"#utility.yul\":920:944   */\n      tag_72\n      jump\t// in\n    tag_71:\n        /* \"#utility.yul\":915:918   */\n      dup3\n        /* \"#utility.yul\":908:945   */\n      mstore\n        /* \"#utility.yul\":898:951   */\n      pop\n      pop\n      jump\t// out\n        /* \"#utility.yul\":957:1066   */\n    tag_73:\n        /* \"#utility.yul\":1038:1059   */\n      tag_75\n        /* \"#utility.yul\":1053:1058   */\n      dup2\n        /* \"#utility.yul\":1038:1059   */\n      tag_76\n      jump\t// in\n    tag_75:\n        /* \"#utility.yul\":1033:1036   */\n      dup3\n        /* \"#utility.yul\":1026:1060   */\n      mstore\n        /* \"#utility.yul\":1016:1066   */\n      pop\n      pop\n      jump\t// out\n        /* \"#utility.yul\":1072:1437   */\n    tag_77:\n      0x00\n        /* \"#utility.yul\":1235:1302   */\n      tag_79\n        /* \"#utility.yul\":1299:1301   */\n      0x21\n        /* \"#utility.yul\":1294:1297   */\n      dup4\n        /* \"#utility.yul\":1235:1302   */\n      tag_80\n      jump\t// in\n    tag_79:\n        /* \"#utility.yul\":1228:1302   */\n      swap2\n      pop\n        /* \"#utility.yul\":1332:1366   */\n      0x696e697469616c697a65203a3a20416c726561647920696e697469616c697a65\n        /* \"#utility.yul\":1328:1329   */\n      0x00\n        /* \"#utility.yul\":1323:1326   */\n      dup4\n        /* \"#utility.yul\":1319:1330   */\n      add\n        /* \"#utility.yul\":1312:1367   */\n      mstore\n        /* \"#utility.yul\":1398:1401   */\n      0x6400000000000000000000000000000000000000000000000000000000000000\n        /* \"#utility.yul\":1393:1395   */\n      0x20\n        /* \"#utility.yul\":1388:1391   */\n      dup4\n        /* \"#utility.yul\":1384:1396   */\n      add\n        /* \"#utility.yul\":1377:1402   */\n      mstore\n        /* \"#utility.yul\":1428:1430   */\n      0x40\n        /* \"#utility.yul\":1423:1426   */\n      dup3\n        /* \"#utility.yul\":1419:1431   */\n      add\n        /* \"#utility.yul\":1412:1431   */\n      swap1\n      pop\n        /* \"#utility.yul\":1218:1437   */\n      swap2\n      swap1\n      pop\n      jump\t// out\n        /* \"#utility.yul\":1443:1561   */\n    tag_81:\n        /* \"#utility.yul\":1530:1554   */\n      tag_83\n        /* \"#utility.yul\":1548:1553   */\n      dup2\n        /* \"#utility.yul\":1530:1554   */\n      tag_84\n      jump\t// in\n    tag_83:\n        /* \"#utility.yul\":1525:1528   */\n      dup3\n        /* \"#utility.yul\":1518:1555   */\n      mstore\n        /* \"#utility.yul\":1508:1561   */\n      pop\n      pop\n      jump\t// out\n        /* \"#utility.yul\":1567:1789   */\n    tag_43:\n      0x00\n        /* \"#utility.yul\":1698:1700   */\n      0x20\n        /* \"#utility.yul\":1687:1696   */\n      dup3\n        /* \"#utility.yul\":1683:1701   */\n      add\n        /* \"#utility.yul\":1675:1701   */\n      swap1\n      pop\n        /* \"#utility.yul\":1711:1782   */\n      tag_86\n        /* \"#utility.yul\":1779:1780   */\n      0x00\n        /* \"#utility.yul\":1768:1777   */\n      dup4\n        /* \"#utility.yul\":1764:1781   */\n      add\n        /* \"#utility.yul\":1755:1761   */\n      dup5\n        /* \"#utility.yul\":1711:1782   */\n      tag_69\n      jump\t// in\n    tag_86:\n        /* \"#utility.yul\":1665:1789   */\n      swap3\n      swap2\n      pop\n      pop\n      jump\t// out\n        /* \"#utility.yul\":1795:2005   */\n    tag_39:\n      0x00\n        /* \"#utility.yul\":1920:1922   */\n      0x20\n        /* \"#utility.yul\":1909:1918   */\n      dup3\n        /* \"#utility.yul\":1905:1923   */\n      add\n        /* \"#utility.yul\":1897:1923   */\n      swap1\n      pop\n        /* \"#utility.yul\":1933:1998   */\n      tag_88\n        /* \"#utility.yul\":1995:1996   */\n      0x00\n        /* \"#utility.yul\":1984:1993   */\n      dup4\n        /* \"#utility.yul\":1980:1997   */\n      add\n        /* \"#utility.yul\":1971:1977   */\n      dup5\n        /* \"#utility.yul\":1933:1998   */\n      tag_73\n      jump\t// in\n    tag_88:\n        /* \"#utility.yul\":1887:2005   */\n      swap3\n      swap2\n      pop\n      pop\n      jump\t// out\n        /* \"#utility.yul\":2011:2430   */\n    tag_49:\n      0x00\n        /* \"#utility.yul\":2215:2217   */\n      0x20\n        /* \"#utility.yul\":2204:2213   */\n      dup3\n        /* \"#utility.yul\":2200:2218   */\n      add\n        /* \"#utility.yul\":2192:2218   */\n      swap1\n      pop\n        /* \"#utility.yul\":2264:2273   */\n      dup2\n        /* \"#utility.yul\":2258:2262   */\n      dup2\n        /* \"#utility.yul\":2254:2274   */\n      sub\n        /* \"#utility.yul\":2250:2251   */\n      0x00\n        /* \"#utility.yul\":2239:2248   */\n      dup4\n        /* \"#utility.yul\":2235:2252   */\n      add\n        /* \"#utility.yul\":2228:2275   */\n      mstore\n        /* \"#utility.yul\":2292:2423   */\n      tag_90\n        /* \"#utility.yul\":2418:2422   */\n      dup2\n        /* \"#utility.yul\":2292:2423   */\n      tag_77\n      jump\t// in\n    tag_90:\n        /* \"#utility.yul\":2284:2423   */\n      swap1\n      pop\n        /* \"#utility.yul\":2182:2430   */\n      swap2\n      swap1\n      pop\n      jump\t// out\n        /* \"#utility.yul\":2436:2658   */\n    tag_16:\n      0x00\n        /* \"#utility.yul\":2567:2569   */\n      0x20\n        /* \"#utility.yul\":2556:2565   */\n      dup3\n        /* \"#utility.yul\":2552:2570   */\n      add\n        /* \"#utility.yul\":2544:2570   */\n      swap1\n      pop\n        /* \"#utility.yul\":2580:2651   */\n      tag_92\n        /* \"#utility.yul\":2648:2649   */\n      0x00\n        /* \"#utility.yul\":2637:2646   */\n      dup4\n        /* \"#utility.yul\":2633:2650   */\n      add\n        /* \"#utility.yul\":2624:2630   */\n      dup5\n        /* \"#utility.yul\":2580:2651   */\n      tag_81\n      jump\t// in\n    tag_92:\n        /* \"#utility.yul\":2534:2658   */\n      swap3\n      swap2\n      pop\n      pop\n      jump\t// out\n        /* \"#utility.yul\":2664:2833   */\n    tag_80:\n      0x00\n        /* \"#utility.yul\":2782:2788   */\n      dup3\n        /* \"#utility.yul\":2777:2780   */\n      dup3\n        /* \"#utility.yul\":2770:2789   */\n      mstore\n        /* \"#utility.yul\":2822:2826   */\n      0x20\n        /* \"#utility.yul\":2817:2820   */\n      dup3\n        /* \"#utility.yul\":2813:2827   */\n      add\n        /* \"#utility.yul\":2798:2827   */\n      swap1\n      pop\n        /* \"#utility.yul\":2760:2833   */\n      swap3\n      swap2\n      pop\n      pop\n      jump\t// out\n        /* \"#utility.yul\":2839:3144   */\n    tag_52:\n      0x00\n        /* \"#utility.yul\":2898:2918   */\n      tag_95\n        /* \"#utility.yul\":2916:2917   */\n      dup3\n        /* \"#utility.yul\":2898:2918   */\n      tag_84\n      jump\t// in\n    tag_95:\n        /* \"#utility.yul\":2893:2918   */\n      swap2\n      pop\n        /* \"#utility.yul\":2932:2952   */\n      tag_96\n        /* \"#utility.yul\":2950:2951   */\n      dup4\n        /* \"#utility.yul\":2932:2952   */\n      tag_84\n      jump\t// in\n    tag_96:\n        /* \"#utility.yul\":2927:2952   */\n      swap3\n      pop\n        /* \"#utility.yul\":3086:3087   */\n      dup3\n        /* \"#utility.yul\":3018:3084   */\n      0xffffffffffffffffffffffffffffffffffffffffffffffffffffffffffffffff\n        /* \"#utility.yul\":3014:3088   */\n      sub\n        /* \"#utility.yul\":3011:3012   */\n      dup3\n        /* \"#utility.yul\":3008:3089   */\n      gt\n        /* \"#utility.yul\":3005:3007   */\n      iszero\n      tag_97\n      jumpi\n        /* \"#utility.yul\":3092:3110   */\n      tag_98\n      tag_99\n      jump\t// in\n    tag_98:\n        /* \"#utility.yul\":3005:3007   */\n    tag_97:\n        /* \"#utility.yul\":3136:3137   */\n      dup3\n        /* \"#utility.yul\":3133:3134   */\n      dup3\n        /* \"#utility.yul\":3129:3138   */\n      add\n        /* \"#utility.yul\":3122:3138   */\n      swap1\n      pop\n        /* \"#utility.yul\":2883:3144   */\n      swap3\n      swap2\n      pop\n      pop\n      jump\t// out\n        /* \"#utility.yul\":3150:3246   */\n    tag_72:\n      0x00\n        /* \"#utility.yul\":3216:3240   */\n      tag_101\n        /* \"#utility.yul\":3234:3239   */\n      dup3\n        /* \"#utility.yul\":3216:3240   */\n      tag_102\n      jump\t// in\n    tag_101:\n        /* \"#utility.yul\":3205:3240   */\n      swap1\n      pop\n        /* \"#utility.yul\":3195:3246   */\n      swap2\n      swap1\n      pop\n      jump\t// out\n        /* \"#utility.yul\":3252:3342   */\n    tag_76:\n      0x00\n        /* \"#utility.yul\":3329:3334   */\n      dup2\n        /* \"#utility.yul\":3322:3335   */\n      iszero\n        /* \"#utility.yul\":3315:3336   */\n      iszero\n        /* \"#utility.yul\":3304:3336   */\n      swap1\n      pop\n        /* \"#utility.yul\":3294:3342   */\n      swap2\n      swap1\n      pop\n      jump\t// out\n        /* \"#utility.yul\":3348:3474   */\n    tag_102:\n      0x00\n        /* \"#utility.yul\":3425:3467   */\n      0xffffffffffffffffffffffffffffffffffffffff\n        /* \"#utility.yul\":3418:3423   */\n      dup3\n        /* \"#utility.yul\":3414:3468   */\n      and\n        /* \"#utility.yul\":3403:3468   */\n      swap1\n      pop\n        /* \"#utility.yul\":3393:3474   */\n      swap2\n      swap1\n      pop\n      jump\t// out\n        /* \"#utility.yul\":3480:3557   */\n    tag_84:\n      0x00\n        /* \"#utility.yul\":3546:3551   */\n      dup2\n        /* \"#utility.yul\":3535:3551   */\n      swap1\n      pop\n        /* \"#utility.yul\":3525:3557   */\n      swap2\n      swap1\n      pop\n      jump\t// out\n        /* \"#utility.yul\":3563:3743   */\n    tag_99:\n        /* \"#utility.yul\":3611:3688   */\n      0x4e487b7100000000000000000000000000000000000000000000000000000000\n        /* \"#utility.yul\":3608:3609   */\n      0x00\n        /* \"#utility.yul\":3601:3689   */\n      mstore\n        /* \"#utility.yul\":3708:3712   */\n      0x11\n        /* \"#utility.yul\":3705:3706   */\n      0x04\n        /* \"#utility.yul\":3698:3713   */\n      mstore\n        /* \"#utility.yul\":3732:3736   */\n      0x24\n        /* \"#utility.yul\":3729:3730   */\n      0x00\n        /* \"#utility.yul\":3722:3737   */\n      revert\n        /* \"#utility.yul\":3749:3871   */\n    tag_58:\n        /* \"#utility.yul\":3822:3846   */\n      tag_108\n        /* \"#utility.yul\":3840:3845   */\n      dup2\n        /* \"#utility.yul\":3822:3846   */\n      tag_72\n      jump\t// in\n    tag_108:\n        /* \"#utility.yul\":3815:3820   */\n      dup2\n        /* \"#utility.yul\":3812:3847   */\n      eq\n        /* \"#utility.yul\":3802:3804   */\n      tag_109\n      jumpi\n        /* \"#utility.yul\":3861:3862   */\n      0x00\n        /* \"#utility.yul\":3858:3859   */\n      dup1\n        /* \"#utility.yul\":3851:3863   */\n      revert\n        /* \"#utility.yul\":3802:3804   */\n    tag_109:\n        /* \"#utility.yul\":3792:3871   */\n      pop\n      jump\t// out\n        /* \"#utility.yul\":3877:3999   */\n    tag_62:\n        /* \"#utility.yul\":3950:3974   */\n      tag_111\n        /* \"#utility.yul\":3968:3973   */\n      dup2\n        /* \"#utility.yul\":3950:3974   */\n      tag_84\n      jump\t// in\n    tag_111:\n        /* \"#utility.yul\":3943:3948   */\n      dup2\n        /* \"#utility.yul\":3940:3975   */\n      eq\n        /* \"#utility.yul\":3930:3932   */\n      tag_112\n      jumpi\n        /* \"#utility.yul\":3989:3990   */\n      0x00\n        /* \"#utility.yul\":3986:3987   */\n      dup1\n        /* \"#utility.yul\":3979:3991   */\n      revert\n        /* \"#utility.yul\":3930:3932   */\n    tag_112:\n        /* \"#utility.yul\":3920:3999   */\n      pop\n      jump\t// out\n\n    auxdata: 0xa264697066735822122068beaaeeccb8abbbdffa768c795ba8a15b984275401dec5ad9962e869ff5474364736f6c63430008000033\n}\n",
				"bytecode": {
					"linkReferences": {},
					"object": "608060405234801561001057600080fd5b5061060f806100206000396000f3fe608060405234801561001057600080fd5b50600436106100935760003560e01c80638129fc1c116100665780638129fc1c1461012257806388ffe8671461012c57806398b777e7146101365780639ce110d714610152578063f887ea401461017057610093565b806318160ddd1461009857806322e67e71146100b65780635fdf60fb146100d457806370a08231146100f2575b600080fd5b6100a061018e565b6040516100ad91906104b2565b60405180910390f35b6100be610198565b6040516100cb91906104b2565b60405180910390f35b6100dc61019e565b6040516100e991906104b2565b60405180910390f35b61010c60048036038101906101079190610377565b6101a4565b60405161011991906104b2565b60405180910390f35b61012a6101ec565b005b6101346102a9565b005b610150600480360381019061014b91906103a0565b61030a565b005b61015a610314565b6040516101679190610477565b60405180910390f35b610178610327565b604051610185919061045c565b60405180910390f35b6000600154905090565b60025481565b60015481565b60008060008373ffffffffffffffffffffffffffffffffffffffff1673ffffffffffffffffffffffffffffffffffffffff168152602001908152602001600020549050919050565b600360149054906101000a900460ff161561023c576040517f08c379a000000000000000000000000000000000000000000000000000000000815260040161023390610492565b60405180910390fd5b600360149054906101000a900460ff1615600360146101000a81548160ff02191690831515021790555033600360006101000a81548173ffffffffffffffffffffffffffffffffffffffff021916908373ffffffffffffffffffffffffffffffffffffffff160217905550565b6107d06000803373ffffffffffffffffffffffffffffffffffffffff1673ffffffffffffffffffffffffffffffffffffffff1681526020019081526020016000208190555060146001600082825461030191906104de565b92505081905550565b8060028190555050565b600360149054906101000a900460ff1681565b600360009054906101000a900473ffffffffffffffffffffffffffffffffffffffff1681565b60008135905061035c816105ab565b92915050565b600081359050610371816105c2565b92915050565b60006020828403121561038957600080fd5b60006103978482850161034d565b91505092915050565b6000602082840312156103b257600080fd5b60006103c084828501610362565b91505092915050565b6103d281610534565b82525050565b6103e181610546565b82525050565b60006103f46021836104cd565b91507f696e697469616c697a65203a3a20416c726561647920696e697469616c697a6560008301527f64000000000000000000000000000000000000000000000000000000000000006020830152604082019050919050565b61045681610572565b82525050565b600060208201905061047160008301846103c9565b92915050565b600060208201905061048c60008301846103d8565b92915050565b600060208201905081810360008301526104ab816103e7565b9050919050565b60006020820190506104c7600083018461044d565b92915050565b600082825260208201905092915050565b60006104e982610572565b91506104f483610572565b9250827fffffffffffffffffffffffffffffffffffffffffffffffffffffffffffffffff038211156105295761052861057c565b5b828201905092915050565b600061053f82610552565b9050919050565b60008115159050919050565b600073ffffffffffffffffffffffffffffffffffffffff82169050919050565b6000819050919050565b7f4e487b7100000000000000000000000000000000000000000000000000000000600052601160045260246000fd5b6105b481610534565b81146105bf57600080fd5b50565b6105cb81610572565b81146105d657600080fd5b5056fea264697066735822122068beaaeeccb8abbbdffa768c795ba8a15b984275401dec5ad9962e869ff5474364736f6c63430008000033",
					"opcodes": "PUSH1 0x80 PUSH1 0x40 MSTORE CALLVALUE DUP1 ISZERO PUSH2 0x10 JUMPI PUSH1 0x0 DUP1 REVERT JUMPDEST POP PUSH2 0x60F DUP1 PUSH2 0x20 PUSH1 0x0 CODECOPY PUSH1 0x0 RETURN INVALID PUSH1 0x80 PUSH1 0x40 MSTORE CALLVALUE DUP1 ISZERO PUSH2 0x10 JUMPI PUSH1 0x0 DUP1 REVERT JUMPDEST POP PUSH1 0x4 CALLDATASIZE LT PUSH2 0x93 JUMPI PUSH1 0x0 CALLDATALOAD PUSH1 0xE0 SHR DUP1 PUSH4 0x8129FC1C GT PUSH2 0x66 JUMPI DUP1 PUSH4 0x8129FC1C EQ PUSH2 0x122 JUMPI DUP1 PUSH4 0x88FFE867 EQ PUSH2 0x12C JUMPI DUP1 PUSH4 0x98B777E7 EQ PUSH2 0x136 JUMPI DUP1 PUSH4 0x9CE110D7 EQ PUSH2 0x152 JUMPI DUP1 PUSH4 0xF887EA40 EQ PUSH2 0x170 JUMPI PUSH2 0x93 JUMP JUMPDEST DUP1 PUSH4 0x18160DDD EQ PUSH2 0x98 JUMPI DUP1 PUSH4 0x22E67E71 EQ PUSH2 0xB6 JUMPI DUP1 PUSH4 0x5FDF60FB EQ PUSH2 0xD4 JUMPI DUP1 PUSH4 0x70A08231 EQ PUSH2 0xF2 JUMPI JUMPDEST PUSH1 0x0 DUP1 REVERT JUMPDEST PUSH2 0xA0 PUSH2 0x18E JUMP JUMPDEST PUSH1 0x40 MLOAD PUSH2 0xAD SWAP2 SWAP1 PUSH2 0x4B2 JUMP JUMPDEST PUSH1 0x40 MLOAD DUP1 SWAP2 SUB SWAP1 RETURN JUMPDEST PUSH2 0xBE PUSH2 0x198 JUMP JUMPDEST PUSH1 0x40 MLOAD PUSH2 0xCB SWAP2 SWAP1 PUSH2 0x4B2 JUMP JUMPDEST PUSH1 0x40 MLOAD DUP1 SWAP2 SUB SWAP1 RETURN JUMPDEST PUSH2 0xDC PUSH2 0x19E JUMP JUMPDEST PUSH1 0x40 MLOAD PUSH2 0xE9 SWAP2 SWAP1 PUSH2 0x4B2 JUMP JUMPDEST PUSH1 0x40 MLOAD DUP1 SWAP2 SUB SWAP1 RETURN JUMPDEST PUSH2 0x10C PUSH1 0x4 DUP1 CALLDATASIZE SUB DUP2 ADD SWAP1 PUSH2 0x107 SWAP2 SWAP1 PUSH2 0x377 JUMP JUMPDEST PUSH2 0x1A4 JUMP JUMPDEST PUSH1 0x40 MLOAD PUSH2 0x119 SWAP2 SWAP1 PUSH2 0x4B2 JUMP JUMPDEST PUSH1 0x40 MLOAD DUP1 SWAP2 SUB SWAP1 RETURN JUMPDEST PUSH2 0x12A PUSH2 0x1EC JUMP JUMPDEST STOP JUMPDEST PUSH2 0x134 PUSH2 0x2A9 JUMP JUMPDEST STOP JUMPDEST PUSH2 0x150 PUSH1 0x4 DUP1 CALLDATASIZE SUB DUP2 ADD SWAP1 PUSH2 0x14B SWAP2 SWAP1 PUSH2 0x3A0 JUMP JUMPDEST PUSH2 0x30A JUMP JUMPDEST STOP JUMPDEST PUSH2 0x15A PUSH2 0x314 JUMP JUMPDEST PUSH1 0x40 MLOAD PUSH2 0x167 SWAP2 SWAP1 PUSH2 0x477 JUMP JUMPDEST PUSH1 0x40 MLOAD DUP1 SWAP2 SUB SWAP1 RETURN JUMPDEST PUSH2 0x178 PUSH2 0x327 JUMP JUMPDEST PUSH1 0x40 MLOAD PUSH2 0x185 SWAP2 SWAP1 PUSH2 0x45C JUMP JUMPDEST PUSH1 0x40 MLOAD DUP1 SWAP2 SUB SWAP1 RETURN JUMPDEST PUSH1 0x0 PUSH1 0x1 SLOAD SWAP1 POP SWAP1 JUMP JUMPDEST PUSH1 0x2 SLOAD DUP2 JUMP JUMPDEST PUSH1 0x1 SLOAD DUP2 JUMP JUMPDEST PUSH1 0x0 DUP1 PUSH1 0x0 DUP4 PUSH20 0xFFFFFFFFFFFFFFFFFFFFFFFFFFFFFFFFFFFFFFFF AND PUSH20 0xFFFFFFFFFFFFFFFFFFFFFFFFFFFFFFFFFFFFFFFF AND DUP2 MSTORE PUSH1 0x20 ADD SWAP1 DUP2 MSTORE PUSH1 0x20 ADD PUSH1 0x0 KECCAK256 SLOAD SWAP1 POP SWAP2 SWAP1 POP JUMP JUMPDEST PUSH1 0x3 PUSH1 0x14 SWAP1 SLOAD SWAP1 PUSH2 0x100 EXP SWAP1 DIV PUSH1 0xFF AND ISZERO PUSH2 0x23C JUMPI PUSH1 0x40 MLOAD PUSH32 0x8C379A000000000000000000000000000000000000000000000000000000000 DUP2 MSTORE PUSH1 0x4 ADD PUSH2 0x233 SWAP1 PUSH2 0x492 JUMP JUMPDEST PUSH1 0x40 MLOAD DUP1 SWAP2 SUB SWAP1 REVERT JUMPDEST PUSH1 0x3 PUSH1 0x14 SWAP1 SLOAD SWAP1 PUSH2 0x100 EXP SWAP1 DIV PUSH1 0xFF AND ISZERO PUSH1 0x3 PUSH1 0x14 PUSH2 0x100 EXP DUP2 SLOAD DUP2 PUSH1 0xFF MUL NOT AND SWAP1 DUP4 ISZERO ISZERO MUL OR SWAP1 SSTORE POP CALLER PUSH1 0x3 PUSH1 0x0 PUSH2 0x100 EXP DUP2 SLOAD DUP2 PUSH20 0xFFFFFFFFFFFFFFFFFFFFFFFFFFFFFFFFFFFFFFFF MUL NOT AND SWAP1 DUP4 PUSH20 0xFFFFFFFFFFFFFFFFFFFFFFFFFFFFFFFFFFFFFFFF AND MUL OR SWAP1 SSTORE POP JUMP JUMPDEST PUSH2 0x7D0 PUSH1 0x0 DUP1 CALLER PUSH20 0xFFFFFFFFFFFFFFFFFFFFFFFFFFFFFFFFFFFFFFFF AND PUSH20 0xFFFFFFFFFFFFFFFFFFFFFFFFFFFFFFFFFFFFFFFF AND DUP2 MSTORE PUSH1 0x20 ADD SWAP1 DUP2 MSTORE PUSH1 0x20 ADD PUSH1 0x0 KECCAK256 DUP2 SWAP1 SSTORE POP PUSH1 0x14 PUSH1 0x1 PUSH1 0x0 DUP3 DUP3 SLOAD PUSH2 0x301 SWAP2 SWAP1 PUSH2 0x4DE JUMP JUMPDEST SWAP3 POP POP DUP2 SWAP1 SSTORE POP JUMP JUMPDEST DUP1 PUSH1 0x2 DUP2 SWAP1 SSTORE POP POP JUMP JUMPDEST PUSH1 0x3 PUSH1 0x14 SWAP1 SLOAD SWAP1 PUSH2 0x100 EXP SWAP1 DIV PUSH1 0xFF AND DUP2 JUMP JUMPDEST PUSH1 0x3 PUSH1 0x0 SWAP1 SLOAD SWAP1 PUSH2 0x100 EXP SWAP1 DIV PUSH20 0xFFFFFFFFFFFFFFFFFFFFFFFFFFFFFFFFFFFFFFFF AND DUP2 JUMP JUMPDEST PUSH1 0x0 DUP2 CALLDATALOAD SWAP1 POP PUSH2 0x35C DUP2 PUSH2 0x5AB JUMP JUMPDEST SWAP3 SWAP2 POP POP JUMP JUMPDEST PUSH1 0x0 DUP2 CALLDATALOAD SWAP1 POP PUSH2 0x371 DUP2 PUSH2 0x5C2 JUMP JUMPDEST SWAP3 SWAP2 POP POP JUMP JUMPDEST PUSH1 0x0 PUSH1 0x20 DUP3 DUP5 SUB SLT ISZERO PUSH2 0x389 JUMPI PUSH1 0x0 DUP1 REVERT JUMPDEST PUSH1 0x0 PUSH2 0x397 DUP5 DUP3 DUP6 ADD PUSH2 0x34D JUMP JUMPDEST SWAP2 POP POP SWAP3 SWAP2 POP POP JUMP JUMPDEST PUSH1 0x0 PUSH1 0x20 DUP3 DUP5 SUB SLT ISZERO PUSH2 0x3B2 JUMPI PUSH1 0x0 DUP1 REVERT JUMPDEST PUSH1 0x0 PUSH2 0x3C0 DUP5 DUP3 DUP6 ADD PUSH2 0x362 JUMP JUMPDEST SWAP2 POP POP SWAP3 SWAP2 POP POP JUMP JUMPDEST PUSH2 0x3D2 DUP2 PUSH2 0x534 JUMP JUMPDEST DUP3 MSTORE POP POP JUMP JUMPDEST PUSH2 0x3E1 DUP2 PUSH2 0x546 JUMP JUMPDEST DUP3 MSTORE POP POP JUMP JUMPDEST PUSH1 0x0 PUSH2 0x3F4 PUSH1 0x21 DUP4 PUSH2 0x4CD JUMP JUMPDEST SWAP2 POP PUSH32 0x696E697469616C697A65203A3A20416C726561647920696E697469616C697A65 PUSH1 0x0 DUP4 ADD MSTORE PUSH32 0x6400000000000000000000000000000000000000000000000000000000000000 PUSH1 0x20 DUP4 ADD MSTORE PUSH1 0x40 DUP3 ADD SWAP1 POP SWAP2 SWAP1 POP JUMP JUMPDEST PUSH2 0x456 DUP2 PUSH2 0x572 JUMP JUMPDEST DUP3 MSTORE POP POP JUMP JUMPDEST PUSH1 0x0 PUSH1 0x20 DUP3 ADD SWAP1 POP PUSH2 0x471 PUSH1 0x0 DUP4 ADD DUP5 PUSH2 0x3C9 JUMP JUMPDEST SWAP3 SWAP2 POP POP JUMP JUMPDEST PUSH1 0x0 PUSH1 0x20 DUP3 ADD SWAP1 POP PUSH2 0x48C PUSH1 0x0 DUP4 ADD DUP5 PUSH2 0x3D8 JUMP JUMPDEST SWAP3 SWAP2 POP POP JUMP JUMPDEST PUSH1 0x0 PUSH1 0x20 DUP3 ADD SWAP1 POP DUP2 DUP2 SUB PUSH1 0x0 DUP4 ADD MSTORE PUSH2 0x4AB DUP2 PUSH2 0x3E7 JUMP JUMPDEST SWAP1 POP SWAP2 SWAP1 POP JUMP JUMPDEST PUSH1 0x0 PUSH1 0x20 DUP3 ADD SWAP1 POP PUSH2 0x4C7 PUSH1 0x0 DUP4 ADD DUP5 PUSH2 0x44D JUMP JUMPDEST SWAP3 SWAP2 POP POP JUMP JUMPDEST PUSH1 0x0 DUP3 DUP3 MSTORE PUSH1 0x20 DUP3 ADD SWAP1 POP SWAP3 SWAP2 POP POP JUMP JUMPDEST PUSH1 0x0 PUSH2 0x4E9 DUP3 PUSH2 0x572 JUMP JUMPDEST SWAP2 POP PUSH2 0x4F4 DUP4 PUSH2 0x572 JUMP JUMPDEST SWAP3 POP DUP3 PUSH32 0xFFFFFFFFFFFFFFFFFFFFFFFFFFFFFFFFFFFFFFFFFFFFFFFFFFFFFFFFFFFFFFFF SUB DUP3 GT ISZERO PUSH2 0x529 JUMPI PUSH2 0x528 PUSH2 0x57C JUMP JUMPDEST JUMPDEST DUP3 DUP3 ADD SWAP1 POP SWAP3 SWAP2 POP POP JUMP JUMPDEST PUSH1 0x0 PUSH2 0x53F DUP3 PUSH2 0x552 JUMP JUMPDEST SWAP1 POP SWAP2 SWAP1 POP JUMP JUMPDEST PUSH1 0x0 DUP2 ISZERO ISZERO SWAP1 POP SWAP2 SWAP1 POP JUMP JUMPDEST PUSH1 0x0 PUSH20 0xFFFFFFFFFFFFFFFFFFFFFFFFFFFFFFFFFFFFFFFF DUP3 AND SWAP1 POP SWAP2 SWAP1 POP JUMP JUMPDEST PUSH1 0x0 DUP2 SWAP1 POP SWAP2 SWAP1 POP JUMP JUMPDEST PUSH32 0x4E487B7100000000000000000000000000000000000000000000000000000000 PUSH1 0x0 MSTORE PUSH1 0x11 PUSH1 0x4 MSTORE PUSH1 0x24 PUSH1 0x0 REVERT JUMPDEST PUSH2 0x5B4 DUP2 PUSH2 0x534 JUMP JUMPDEST DUP2 EQ PUSH2 0x5BF JUMPI PUSH1 0x0 DUP1 REVERT JUMPDEST POP JUMP JUMPDEST PUSH2 0x5CB DUP2 PUSH2 0x572 JUMP JUMPDEST DUP2 EQ PUSH2 0x5D6 JUMPI PUSH1 0x0 DUP1 REVERT JUMPDEST POP JUMP INVALID LOG2 PUSH5 0x6970667358 0x22 SLT KECCAK256 PUSH9 0xBEAAEECCB8ABBBDFFA PUSH23 0x8C795BA8A15B984275401DEC5AD9962E869FF547436473 PUSH16 0x6C634300080000330000000000000000 "
				},
				"gasEstimates": {
					"creation": {
						"codeDepositCost": "310200",
						"executionCost": "349",
						"totalCost": "310549"
					},
					"external": {
						"balanceOf(address)": "1608",
						"circulation()": "1174",
						"initialize()": "43722",
						"initializer()": "1287",
						"maxTime()": "1152",
						"pledge()": "infinite",
						"router()": "1302",
						"setMaxTime(uint256)": "20464",
						"totalSupply()": "1138"
					}
				},
				"methodIdentifiers": {
					"balanceOf(address)": "70a08231",
					"circulation()": "5fdf60fb",
					"initialize()": "8129fc1c",
					"initializer()": "9ce110d7",
					"maxTime()": "22e67e71",
					"pledge()": "88ffe867",
					"router()": "f887ea40",
					"setMaxTime(uint256)": "98b777e7",
					"totalSupply()": "18160ddd"
				}
			},
			"storageLayout": {
				"storage": [
					{
						"astId": 1587,
						"contract": "contracts/test/VeTokenTest.sol:VeTokenTest",
						"label": "balance",
						"offset": 0,
						"slot": "0",
						"type": "t_mapping(t_address,t_uint256)"
					},
					{
						"astId": 1589,
						"contract": "contracts/test/VeTokenTest.sol:VeTokenTest",
						"label": "circulation",
						"offset": 0,
						"slot": "1",
						"type": "t_uint256"
					},
					{
						"astId": 1591,
						"contract": "contracts/test/VeTokenTest.sol:VeTokenTest",
						"label": "maxTime",
						"offset": 0,
						"slot": "2",
						"type": "t_uint256"
					},
					{
						"astId": 1593,
						"contract": "contracts/test/VeTokenTest.sol:VeTokenTest",
						"label": "router",
						"offset": 0,
						"slot": "3",
						"type": "t_address"
					},
					{
						"astId": 1595,
						"contract": "contracts/test/VeTokenTest.sol:VeTokenTest",
						"label": "initializer",
						"offset": 20,
						"slot": "3",
						"type": "t_bool"
					}
				],
				"types": {
					"t_address": {
						"encoding": "inplace",
						"label": "address",
						"numberOfBytes": "20"
					},
					"t_bool": {
						"encoding": "inplace",
						"label": "bool",
						"numberOfBytes": "1"
					},
					"t_mapping(t_address,t_uint256)": {
						"encoding": "mapping",
						"key": "t_address",
						"label": "mapping(address => uint256)",
						"numberOfBytes": "32",
						"value": "t_uint256"
					},
					"t_uint256": {
						"encoding": "inplace",
						"label": "uint256",
						"numberOfBytes": "32"
					}
				}
			},
			"userdoc": {
				"kind": "user",
				"methods": {},
				"version": 1
			}
		}
	}
}