{
	"contracts/Template/Istanbul10/logic/Vote.sol": {
		"Vote": {
			"abi": [
				{
					"anonymous": false,
					"inputs": [
						{
							"indexed": true,
							"internalType": "uint256",
							"name": "voteId_",
							"type": "uint256"
						},
						{
							"indexed": true,
							"internalType": "string",
							"name": "voteTopic_",
							"type": "string"
						},
						{
							"indexed": true,
							"internalType": "string",
							"name": "describe_",
							"type": "string"
						},
						{
							"indexed": false,
							"internalType": "uint256",
							"name": "codeModel_",
							"type": "uint256"
						},
						{
							"indexed": false,
							"internalType": "uint256",
							"name": "valaue_",
							"type": "uint256"
						}
					],
					"name": "CreateVoteEvent",
					"type": "event"
				},
				{
					"anonymous": false,
					"inputs": [
						{
							"indexed": true,
							"internalType": "uint256",
							"name": "voteId_",
							"type": "uint256"
						},
						{
							"indexed": false,
							"internalType": "address",
							"name": "to_",
							"type": "address"
						}
					],
					"name": "DelegateToEvent",
					"type": "event"
				},
				{
					"anonymous": false,
					"inputs": [
						{
							"indexed": true,
							"internalType": "uint256",
							"name": "voteId_",
							"type": "uint256"
						}
					],
					"name": "ExecuteEvent",
					"type": "event"
				},
				{
					"anonymous": false,
					"inputs": [
						{
							"indexed": true,
							"internalType": "address",
							"name": "veToken_",
							"type": "address"
						}
					],
					"name": "InitializeEvent",
					"type": "event"
				},
				{
					"anonymous": false,
					"inputs": [
						{
							"indexed": true,
							"internalType": "uint256",
							"name": "voteId_",
							"type": "uint256"
						},
						{
							"indexed": false,
							"internalType": "string",
							"name": "reasons_",
							"type": "string"
						}
					],
					"name": "RejectEvent",
					"type": "event"
				},
				{
					"anonymous": false,
					"inputs": [
						{
							"indexed": false,
							"internalType": "string",
							"name": "topic_",
							"type": "string"
						},
						{
							"indexed": false,
							"internalType": "address",
							"name": "targetAddress_",
							"type": "address"
						},
						{
							"indexed": false,
							"internalType": "string",
							"name": "functionName_",
							"type": "string"
						}
					],
					"name": "SetGovernanceTemplateEvent",
					"type": "event"
				},
				{
					"anonymous": false,
					"inputs": [
						{
							"indexed": true,
							"internalType": "uint256",
							"name": "voteId_",
							"type": "uint256"
						},
						{
							"indexed": false,
							"internalType": "bool",
							"name": "result_",
							"type": "bool"
						}
					],
					"name": "ToVoteEvent",
					"type": "event"
				},
				{
					"inputs": [],
					"name": "bufferTime",
					"outputs": [
						{
							"internalType": "uint256",
							"name": "",
							"type": "uint256"
						}
					],
					"stateMutability": "view",
					"type": "function"
				},
				{
					"inputs": [
						{
							"internalType": "string",
							"name": "voteTopic_",
							"type": "string"
						},
						{
							"internalType": "string",
							"name": "describe_",
							"type": "string"
						},
						{
							"internalType": "uint256",
							"name": "codeModel_",
							"type": "uint256"
						},
						{
							"internalType": "uint256",
							"name": "valaue_",
							"type": "uint256"
						}
					],
					"name": "createVote",
					"outputs": [
						{
							"internalType": "uint256",
							"name": "voteId",
							"type": "uint256"
						}
					],
					"stateMutability": "nonpayable",
					"type": "function"
				},
				{
					"inputs": [
						{
							"internalType": "uint256",
							"name": "voteId_",
							"type": "uint256"
						},
						{
							"internalType": "address",
							"name": "to_",
							"type": "address"
						}
					],
					"name": "delegateTo",
					"outputs": [],
					"stateMutability": "nonpayable",
					"type": "function"
				},
				{
					"inputs": [
						{
							"internalType": "uint256",
							"name": "voteId_",
							"type": "uint256"
						}
					],
					"name": "execute",
					"outputs": [],
					"stateMutability": "nonpayable",
					"type": "function"
				},
				{
					"inputs": [
						{
							"internalType": "uint256",
							"name": "",
							"type": "uint256"
						}
					],
					"name": "executeQueue",
					"outputs": [
						{
							"internalType": "uint256",
							"name": "",
							"type": "uint256"
						}
					],
					"stateMutability": "view",
					"type": "function"
				},
				{
					"inputs": [
						{
							"internalType": "uint256",
							"name": "",
							"type": "uint256"
						}
					],
					"name": "executeQueueMap",
					"outputs": [
						{
							"internalType": "bool",
							"name": "",
							"type": "bool"
						}
					],
					"stateMutability": "view",
					"type": "function"
				},
				{
					"inputs": [],
					"name": "getTemplate",
					"outputs": [
						{
							"components": [
								{
									"internalType": "uint256",
									"name": "templateId",
									"type": "uint256"
								},
								{
									"internalType": "string",
									"name": "toppic",
									"type": "string"
								},
								{
									"internalType": "address",
									"name": "targetAddress",
									"type": "address"
								},
								{
									"internalType": "string",
									"name": "functionName",
									"type": "string"
								}
							],
							"internalType": "struct VoteData.GgovernanceTemplate[]",
							"name": "re",
							"type": "tuple[]"
						}
					],
					"stateMutability": "view",
					"type": "function"
				},
				{
					"inputs": [
						{
							"internalType": "uint256",
							"name": "voteId_",
							"type": "uint256"
						}
					],
					"name": "getTest",
					"outputs": [
						{
							"internalType": "uint256",
							"name": "time",
							"type": "uint256"
						},
						{
							"internalType": "uint256",
							"name": "voteTime",
							"type": "uint256"
						}
					],
					"stateMutability": "view",
					"type": "function"
				},
				{
					"inputs": [],
					"name": "getVeToken",
					"outputs": [
						{
							"internalType": "address",
							"name": "",
							"type": "address"
						}
					],
					"stateMutability": "view",
					"type": "function"
				},
				{
					"inputs": [
						{
							"internalType": "uint256",
							"name": "voteId_",
							"type": "uint256"
						}
					],
					"name": "getVoteDetailwithVoteId",
					"outputs": [
						{
							"internalType": "string",
							"name": "voteTopic",
							"type": "string"
						},
						{
							"internalType": "string",
							"name": "describe",
							"type": "string"
						},
						{
							"internalType": "address",
							"name": "initiator",
							"type": "address"
						}
					],
					"stateMutability": "view",
					"type": "function"
				},
				{
					"inputs": [
						{
							"internalType": "uint256",
							"name": "voteId_",
							"type": "uint256"
						}
					],
					"name": "getVoteStatuswithVoteId",
					"outputs": [
						{
							"internalType": "uint256",
							"name": "status",
							"type": "uint256"
						}
					],
					"stateMutability": "view",
					"type": "function"
				},
				{
					"inputs": [],
					"name": "initialize",
					"outputs": [],
					"stateMutability": "nonpayable",
					"type": "function"
				},
				{
					"inputs": [],
					"name": "minimumQuantity",
					"outputs": [
						{
							"internalType": "uint256",
							"name": "",
							"type": "uint256"
						}
					],
					"stateMutability": "view",
					"type": "function"
				},
				{
					"inputs": [
						{
							"internalType": "uint256",
							"name": "voteId_",
							"type": "uint256"
						},
						{
							"internalType": "string",
							"name": "reasons_",
							"type": "string"
						}
					],
					"name": "reject",
					"outputs": [],
					"stateMutability": "nonpayable",
					"type": "function"
				},
				{
					"inputs": [],
					"name": "router",
					"outputs": [
						{
							"internalType": "address",
							"name": "",
							"type": "address"
						}
					],
					"stateMutability": "view",
					"type": "function"
				},
				{
					"inputs": [
						{
							"internalType": "string",
							"name": "topic_",
							"type": "string"
						},
						{
							"internalType": "address",
							"name": "targetAddress_",
							"type": "address"
						},
						{
							"internalType": "string",
							"name": "functionName_",
							"type": "string"
						}
					],
					"name": "setGovernanceTemplate",
					"outputs": [],
					"stateMutability": "nonpayable",
					"type": "function"
				},
				{
					"inputs": [],
					"name": "templateTotal",
					"outputs": [
						{
							"internalType": "uint256",
							"name": "",
							"type": "uint256"
						}
					],
					"stateMutability": "view",
					"type": "function"
				},
				{
					"inputs": [
						{
							"internalType": "uint256",
							"name": "voteId_",
							"type": "uint256"
						},
						{
							"internalType": "bool",
							"name": "result_",
							"type": "bool"
						}
					],
					"name": "toVote",
					"outputs": [],
					"stateMutability": "nonpayable",
					"type": "function"
				},
				{
					"inputs": [],
					"name": "veToken",
					"outputs": [
						{
							"internalType": "contract VeTokenTest",
							"name": "",
							"type": "address"
						}
					],
					"stateMutability": "view",
					"type": "function"
				},
				{
					"inputs": [],
					"name": "voteTatola",
					"outputs": [
						{
							"internalType": "uint256",
							"name": "",
							"type": "uint256"
						}
					],
					"stateMutability": "view",
					"type": "function"
				},
				{
					"inputs": [],
					"name": "voteTime",
					"outputs": [
						{
							"internalType": "uint256",
							"name": "",
							"type": "uint256"
						}
					],
					"stateMutability": "view",
					"type": "function"
				},
				{
					"inputs": [
						{
							"internalType": "uint256",
							"name": "voteId_",
							"type": "uint256"
						}
					],
					"name": "winningProposal",
					"outputs": [
						{
							"internalType": "uint256",
							"name": "forVote",
							"type": "uint256"
						},
						{
							"internalType": "uint256",
							"name": "againstVote",
							"type": "uint256"
						},
						{
							"internalType": "uint256",
							"name": "forVote2",
							"type": "uint256"
						},
						{
							"internalType": "uint256",
							"name": "againstVote2",
							"type": "uint256"
						},
						{
							"internalType": "uint256",
							"name": "time",
							"type": "uint256"
						}
					],
					"stateMutability": "view",
					"type": "function"
				}
			],
			"devdoc": {
				"kind": "dev",
				"methods": {
					"delegateTo(uint256,address)": {
						"details": "Entrust someone else to vote"
					},
					"winningProposal(uint256)": {
						"details": "calculates the current winning proposal based on all the current votes"
					}
				},
				"version": 1
			},
			"evm": {
				"assembly": "    /* \"contracts/Template/Istanbul10/logic/Vote.sol\":199:9630  contract Vote is IVote,VoteData {\r... */\n  mstore(0x40, 0x80)\n    /* \"contracts/Template/Istanbul10/data/VoteData.sol\":307:316  1 minutes */\n  0x3c\n    /* \"contracts/Template/Istanbul10/data/VoteData.sol\":280:316  uint256 public  voteTime = 1 minutes */\n  0x00\n  sstore\n    /* \"contracts/Template/Istanbul10/data/VoteData.sol\":393:402  1 minutes */\n  0x3c\n    /* \"contracts/Template/Istanbul10/data/VoteData.sol\":365:402  uint256 public bufferTime = 1 minutes */\n  0x01\n  sstore\n    /* \"contracts/Template/Istanbul10/data/VoteData.sol\":767:768  5 */\n  0x05\n    /* \"contracts/Template/Istanbul10/data/VoteData.sol\":733:768  uint256  public minimumQuantity = 5 */\n  0x0a\n  sstore\n    /* \"contracts/Template/Istanbul10/logic/Vote.sol\":199:9630  contract Vote is IVote,VoteData {\r... */\n  callvalue\n  dup1\n  iszero\n  tag_1\n  jumpi\n  0x00\n  dup1\n  revert\ntag_1:\n  pop\n  dataSize(sub_0)\n  dup1\n  dataOffset(sub_0)\n  0x00\n  codecopy\n  0x00\n  return\nstop\n\nsub_0: assembly {\n        /* \"contracts/Template/Istanbul10/logic/Vote.sol\":199:9630  contract Vote is IVote,VoteData {\r... */\n      mstore(0x40, 0x80)\n      callvalue\n      dup1\n      iszero\n      tag_1\n      jumpi\n      0x00\n      dup1\n      revert\n    tag_1:\n      pop\n      jumpi(tag_2, lt(calldatasize, 0x04))\n      shr(0xe0, calldataload(0x00))\n      dup1\n      0x82214856\n      gt\n      tag_25\n      jumpi\n      dup1\n      0xe3a1c1c7\n      gt\n      tag_26\n      jumpi\n      dup1\n      0xe3a1c1c7\n      eq\n      tag_19\n      jumpi\n      dup1\n      0xedef019d\n      eq\n      tag_20\n      jumpi\n      dup1\n      0xf887ea40\n      eq\n      tag_21\n      jumpi\n      dup1\n      0xf9d793d1\n      eq\n      tag_22\n      jumpi\n      dup1\n      0xfc7881c6\n      eq\n      tag_23\n      jumpi\n      dup1\n      0xfe0d94c1\n      eq\n      tag_24\n      jumpi\n      jump(tag_2)\n    tag_26:\n      dup1\n      0x82214856\n      eq\n      tag_14\n      jumpi\n      dup1\n      0xba7b6703\n      eq\n      tag_15\n      jumpi\n      dup1\n      0xbcd60f6c\n      eq\n      tag_16\n      jumpi\n      dup1\n      0xbcf93dd6\n      eq\n      tag_17\n      jumpi\n      dup1\n      0xd9ae5bd5\n      eq\n      tag_18\n      jumpi\n      jump(tag_2)\n    tag_25:\n      dup1\n      0x52538550\n      gt\n      tag_27\n      jumpi\n      dup1\n      0x52538550\n      eq\n      tag_8\n      jumpi\n      dup1\n      0x5a42007f\n      eq\n      tag_9\n      jumpi\n      dup1\n      0x71d68a97\n      eq\n      tag_10\n      jumpi\n      dup1\n      0x74786f69\n      eq\n      tag_11\n      jumpi\n      dup1\n      0x75bb5b09\n      eq\n      tag_12\n      jumpi\n      dup1\n      0x8129fc1c\n      eq\n      tag_13\n      jumpi\n      jump(tag_2)\n    tag_27:\n      dup1\n      0x1d75ddcc\n      eq\n      tag_3\n      jumpi\n      dup1\n      0x2c9e3ef0\n      eq\n      tag_4\n      jumpi\n      dup1\n      0x321c48f2\n      eq\n      tag_5\n      jumpi\n      dup1\n      0x3b92eb23\n      eq\n      tag_6\n      jumpi\n      dup1\n      0x3fee74d7\n      eq\n      tag_7\n      jumpi\n    tag_2:\n      0x00\n      dup1\n      revert\n        /* \"contracts/Template/Istanbul10/data/VoteData.sol\":733:768  uint256  public minimumQuantity = 5 */\n    tag_3:\n      tag_28\n      tag_29\n      jump\t// in\n    tag_28:\n      mload(0x40)\n      tag_30\n      swap2\n      swap1\n      tag_31\n      jump\t// in\n    tag_30:\n      mload(0x40)\n      dup1\n      swap2\n      sub\n      swap1\n      return\n        /* \"contracts/Template/Istanbul10/data/VoteData.sol\":679:726  mapping(uint256 => bool) public executeQueueMap */\n    tag_4:\n      tag_32\n      0x04\n      dup1\n      calldatasize\n      sub\n      dup2\n      add\n      swap1\n      tag_33\n      swap2\n      swap1\n      tag_34\n      jump\t// in\n    tag_33:\n      tag_35\n      jump\t// in\n    tag_32:\n      mload(0x40)\n      tag_36\n      swap2\n      swap1\n      tag_37\n      jump\t// in\n    tag_36:\n      mload(0x40)\n      dup1\n      swap2\n      sub\n      swap1\n      return\n        /* \"contracts/Template/Istanbul10/logic/Vote.sol\":6295:6590  function getTemplate()external view  returns(GgovernanceTemplate[] memory re){\r... */\n    tag_5:\n      tag_38\n      tag_39\n      jump\t// in\n    tag_38:\n      mload(0x40)\n      tag_40\n      swap2\n      swap1\n      tag_41\n      jump\t// in\n    tag_40:\n      mload(0x40)\n      dup1\n      swap2\n      sub\n      swap1\n      return\n        /* \"contracts/Template/Istanbul10/data/VoteData.sol\":443:469  VeTokenTest public veToken */\n    tag_6:\n      tag_42\n      tag_43\n      jump\t// in\n    tag_42:\n      mload(0x40)\n      tag_44\n      swap2\n      swap1\n      tag_45\n      jump\t// in\n    tag_44:\n      mload(0x40)\n      dup1\n      swap2\n      sub\n      swap1\n      return\n        /* \"contracts/Template/Istanbul10/logic/Vote.sol\":408:518  function getVeToken() public view returns(address){\r... */\n    tag_7:\n      tag_46\n      tag_47\n      jump\t// in\n    tag_46:\n      mload(0x40)\n      tag_48\n      swap2\n      swap1\n      tag_49\n      jump\t// in\n    tag_48:\n      mload(0x40)\n      dup1\n      swap2\n      sub\n      swap1\n      return\n        /* \"contracts/Template/Istanbul10/data/VoteData.sol\":505:535  uint256[] public  executeQueue */\n    tag_8:\n      tag_50\n      0x04\n      dup1\n      calldatasize\n      sub\n      dup2\n      add\n      swap1\n      tag_51\n      swap2\n      swap1\n      tag_34\n      jump\t// in\n    tag_51:\n      tag_52\n      jump\t// in\n    tag_50:\n      mload(0x40)\n      tag_53\n      swap2\n      swap1\n      tag_31\n      jump\t// in\n    tag_53:\n      mload(0x40)\n      dup1\n      swap2\n      sub\n      swap1\n      return\n        /* \"contracts/Template/Istanbul10/data/VoteData.sol\":542:572  uint256  public  templateTotal */\n    tag_9:\n      tag_54\n      tag_55\n      jump\t// in\n    tag_54:\n      mload(0x40)\n      tag_56\n      swap2\n      swap1\n      tag_31\n      jump\t// in\n    tag_56:\n      mload(0x40)\n      dup1\n      swap2\n      sub\n      swap1\n      return\n        /* \"contracts/Template/Istanbul10/logic/Vote.sol\":3770:4518  function reject(uint256 voteId_,string memory reasons_) external override {\r... */\n    tag_10:\n      tag_57\n      0x04\n      dup1\n      calldatasize\n      sub\n      dup2\n      add\n      swap1\n      tag_58\n      swap2\n      swap1\n      tag_59\n      jump\t// in\n    tag_58:\n      tag_60\n      jump\t// in\n    tag_57:\n      stop\n        /* \"contracts/Template/Istanbul10/logic/Vote.sol\":8409:8718  function getVoteDetailwithVoteId(uint256 voteId_) external view returns(\r... */\n    tag_11:\n      tag_61\n      0x04\n      dup1\n      calldatasize\n      sub\n      dup2\n      add\n      swap1\n      tag_62\n      swap2\n      swap1\n      tag_34\n      jump\t// in\n    tag_62:\n      tag_63\n      jump\t// in\n    tag_61:\n      mload(0x40)\n      tag_64\n      swap4\n      swap3\n      swap2\n      swap1\n      tag_65\n      jump\t// in\n    tag_64:\n      mload(0x40)\n      dup1\n      swap2\n      sub\n      swap1\n      return\n        /* \"contracts/Template/Istanbul10/data/VoteData.sol\":476:498  uint public voteTatola */\n    tag_12:\n      tag_66\n      tag_67\n      jump\t// in\n    tag_66:\n      mload(0x40)\n      tag_68\n      swap2\n      swap1\n      tag_31\n      jump\t// in\n    tag_68:\n      mload(0x40)\n      dup1\n      swap2\n      sub\n      swap1\n      return\n        /* \"contracts/Template/Istanbul10/logic/Vote.sol\":240:400  function initialize() override public{\r... */\n    tag_13:\n      tag_69\n      tag_70\n      jump\t// in\n    tag_69:\n      stop\n        /* \"contracts/Template/Istanbul10/logic/Vote.sol\":1751:3699  function toVote(uint256 voteId_,bool result_) external override {\r... */\n    tag_14:\n      tag_71\n      0x04\n      dup1\n      calldatasize\n      sub\n      dup2\n      add\n      swap1\n      tag_72\n      swap2\n      swap1\n      tag_73\n      jump\t// in\n    tag_72:\n      tag_74\n      jump\t// in\n    tag_71:\n      stop\n        /* \"contracts/Template/Istanbul10/data/VoteData.sol\":365:402  uint256 public bufferTime = 1 minutes */\n    tag_15:\n      tag_75\n      tag_76\n      jump\t// in\n    tag_75:\n      mload(0x40)\n      tag_77\n      swap2\n      swap1\n      tag_31\n      jump\t// in\n    tag_77:\n      mload(0x40)\n      dup1\n      swap2\n      sub\n      swap1\n      return\n        /* \"contracts/Template/Istanbul10/logic/Vote.sol\":8811:9283  function winningProposal(uint256 voteId_) external override  view returns(uint256 forVote,\r... */\n    tag_16:\n      tag_78\n      0x04\n      dup1\n      calldatasize\n      sub\n      dup2\n      add\n      swap1\n      tag_79\n      swap2\n      swap1\n      tag_34\n      jump\t// in\n    tag_79:\n      tag_80\n      jump\t// in\n    tag_78:\n      mload(0x40)\n      tag_81\n      swap6\n      swap5\n      swap4\n      swap3\n      swap2\n      swap1\n      tag_82\n      jump\t// in\n    tag_81:\n      mload(0x40)\n      dup1\n      swap2\n      sub\n      swap1\n      return\n        /* \"contracts/Template/Istanbul10/data/VoteData.sol\":280:316  uint256 public  voteTime = 1 minutes */\n    tag_17:\n      tag_83\n      tag_84\n      jump\t// in\n    tag_83:\n      mload(0x40)\n      tag_85\n      swap2\n      swap1\n      tag_31\n      jump\t// in\n    tag_85:\n      mload(0x40)\n      dup1\n      swap2\n      sub\n      swap1\n      return\n        /* \"contracts/Template/Istanbul10/logic/Vote.sol\":8204:8396  function getVoteStatuswithVoteId(uint256 voteId_) external view returns (uint256  status){\r... */\n    tag_18:\n      tag_86\n      0x04\n      dup1\n      calldatasize\n      sub\n      dup2\n      add\n      swap1\n      tag_87\n      swap2\n      swap1\n      tag_34\n      jump\t// in\n    tag_87:\n      tag_88\n      jump\t// in\n    tag_86:\n      mload(0x40)\n      tag_89\n      swap2\n      swap1\n      tag_31\n      jump\t// in\n    tag_89:\n      mload(0x40)\n      dup1\n      swap2\n      sub\n      swap1\n      return\n        /* \"contracts/Template/Istanbul10/logic/Vote.sol\":7629:8196  function setGovernanceTemplate(string memory topic_,address targetAddress_,string memory  functionName_) external override  {\r... */\n    tag_19:\n      tag_90\n      0x04\n      dup1\n      calldatasize\n      sub\n      dup2\n      add\n      swap1\n      tag_91\n      swap2\n      swap1\n      tag_92\n      jump\t// in\n    tag_91:\n      tag_93\n      jump\t// in\n    tag_90:\n      stop\n        /* \"contracts/Template/Istanbul10/logic/Vote.sol\":9407:9627  function getTest(uint256 voteId_) public  view returns (uint256 time , uint256 voteTime){\r... */\n    tag_20:\n      tag_94\n      0x04\n      dup1\n      calldatasize\n      sub\n      dup2\n      add\n      swap1\n      tag_95\n      swap2\n      swap1\n      tag_34\n      jump\t// in\n    tag_95:\n      tag_96\n      jump\t// in\n    tag_94:\n      mload(0x40)\n      tag_97\n      swap3\n      swap2\n      swap1\n      tag_98\n      jump\t// in\n    tag_97:\n      mload(0x40)\n      dup1\n      swap2\n      sub\n      swap1\n      return\n        /* \"contracts/Template/Istanbul10/data/VoteData.sol\":415:436  address public router */\n    tag_21:\n      tag_99\n      tag_100\n      jump\t// in\n    tag_99:\n      mload(0x40)\n      tag_101\n      swap2\n      swap1\n      tag_49\n      jump\t// in\n    tag_101:\n      mload(0x40)\n      dup1\n      swap2\n      sub\n      swap1\n      return\n        /* \"contracts/Template/Istanbul10/logic/Vote.sol\":627:1709  function createVote(\r... */\n    tag_22:\n      tag_102\n      0x04\n      dup1\n      calldatasize\n      sub\n      dup2\n      add\n      swap1\n      tag_103\n      swap2\n      swap1\n      tag_104\n      jump\t// in\n    tag_103:\n      tag_105\n      jump\t// in\n    tag_102:\n      mload(0x40)\n      tag_106\n      swap2\n      swap1\n      tag_31\n      jump\t// in\n    tag_106:\n      mload(0x40)\n      dup1\n      swap2\n      sub\n      swap1\n      return\n        /* \"contracts/Template/Istanbul10/logic/Vote.sol\":6992:7621  function delegateTo(uint256 voteId_,address to_)external override {\r... */\n    tag_23:\n      tag_107\n      0x04\n      dup1\n      calldatasize\n      sub\n      dup2\n      add\n      swap1\n      tag_108\n      swap2\n      swap1\n      tag_109\n      jump\t// in\n    tag_108:\n      tag_110\n      jump\t// in\n    tag_107:\n      stop\n        /* \"contracts/Template/Istanbul10/logic/Vote.sol\":4594:5761  function execute(uint256 voteId_) external override {\r... */\n    tag_24:\n      tag_111\n      0x04\n      dup1\n      calldatasize\n      sub\n      dup2\n      add\n      swap1\n      tag_112\n      swap2\n      swap1\n      tag_34\n      jump\t// in\n    tag_112:\n      tag_113\n      jump\t// in\n    tag_111:\n      stop\n        /* \"contracts/Template/Istanbul10/data/VoteData.sol\":733:768  uint256  public minimumQuantity = 5 */\n    tag_29:\n      sload(0x0a)\n      dup2\n      jump\t// out\n        /* \"contracts/Template/Istanbul10/data/VoteData.sol\":679:726  mapping(uint256 => bool) public executeQueueMap */\n    tag_35:\n      mstore(0x20, 0x09)\n      dup1\n      0x00\n      mstore\n      keccak256(0x00, 0x40)\n      0x00\n      swap2\n      pop\n      sload\n      swap1\n      0x0100\n      exp\n      swap1\n      div\n      0xff\n      and\n      dup2\n      jump\t// out\n        /* \"contracts/Template/Istanbul10/logic/Vote.sol\":6295:6590  function getTemplate()external view  returns(GgovernanceTemplate[] memory re){\r... */\n    tag_39:\n        /* \"contracts/Template/Istanbul10/logic/Vote.sol\":6340:6371  GgovernanceTemplate[] memory re */\n      0x60\n        /* \"contracts/Template/Istanbul10/logic/Vote.sol\":6383:6416  GgovernanceTemplate[]  memory arr */\n      0x00\n        /* \"contracts/Template/Istanbul10/logic/Vote.sol\":6446:6459  templateTotal */\n      sload(0x06)\n        /* \"contracts/Template/Istanbul10/logic/Vote.sol\":6419:6460  new GgovernanceTemplate[] (templateTotal) */\n      0xffffffffffffffff\n      dup2\n      gt\n      iszero\n      tag_115\n      jumpi\n      mstore(0x00, 0x4e487b7100000000000000000000000000000000000000000000000000000000)\n      mstore(0x04, 0x41)\n      revert(0x00, 0x24)\n    tag_115:\n      mload(0x40)\n      swap1\n      dup1\n      dup3\n      mstore\n      dup1\n      0x20\n      mul\n      0x20\n      add\n      dup3\n      add\n      0x40\n      mstore\n      dup1\n      iszero\n      tag_116\n      jumpi\n      dup2\n      0x20\n      add\n    tag_117:\n      tag_118\n      tag_119\n      jump\t// in\n    tag_118:\n      dup2\n      mstore\n      0x20\n      add\n      swap1\n      0x01\n      swap1\n      sub\n      swap1\n      dup2\n      tag_117\n      jumpi\n      swap1\n      pop\n    tag_116:\n      pop\n        /* \"contracts/Template/Istanbul10/logic/Vote.sol\":6383:6460  GgovernanceTemplate[]  memory arr = new GgovernanceTemplate[] (templateTotal) */\n      swap1\n      pop\n        /* \"contracts/Template/Istanbul10/logic/Vote.sol\":6475:6481  uint i */\n      0x00\n        /* \"contracts/Template/Istanbul10/logic/Vote.sol\":6471:6561  for(uint i = 0; i < templateTotal; ++i){\r... */\n    tag_120:\n        /* \"contracts/Template/Istanbul10/logic/Vote.sol\":6491:6504  templateTotal */\n      sload(0x06)\n        /* \"contracts/Template/Istanbul10/logic/Vote.sol\":6487:6488  i */\n      dup2\n        /* \"contracts/Template/Istanbul10/logic/Vote.sol\":6487:6504  i < templateTotal */\n      lt\n        /* \"contracts/Template/Istanbul10/logic/Vote.sol\":6471:6561  for(uint i = 0; i < templateTotal; ++i){\r... */\n      iszero\n      tag_121\n      jumpi\n        /* \"contracts/Template/Istanbul10/logic/Vote.sol\":6538:6546  template */\n      0x08\n        /* \"contracts/Template/Istanbul10/logic/Vote.sol\":6538:6549  template[i] */\n      0x00\n        /* \"contracts/Template/Istanbul10/logic/Vote.sol\":6547:6548  i */\n      dup3\n        /* \"contracts/Template/Istanbul10/logic/Vote.sol\":6538:6549  template[i] */\n      dup2\n      mstore\n      0x20\n      add\n      swap1\n      dup2\n      mstore\n      0x20\n      add\n      0x00\n      keccak256\n        /* \"contracts/Template/Istanbul10/logic/Vote.sol\":6529:6549  arr[i] = template[i] */\n      mload(0x40)\n      dup1\n      0x80\n      add\n      0x40\n      mstore\n      swap1\n      dup2\n      0x00\n      dup3\n      add\n      sload\n      dup2\n      mstore\n      0x20\n      add\n      0x01\n      dup3\n      add\n      dup1\n      sload\n      tag_123\n      swap1\n      tag_124\n      jump\t// in\n    tag_123:\n      dup1\n      0x1f\n      add\n      0x20\n      dup1\n      swap2\n      div\n      mul\n      0x20\n      add\n      mload(0x40)\n      swap1\n      dup2\n      add\n      0x40\n      mstore\n      dup1\n      swap3\n      swap2\n      swap1\n      dup2\n      dup2\n      mstore\n      0x20\n      add\n      dup3\n      dup1\n      sload\n      tag_125\n      swap1\n      tag_124\n      jump\t// in\n    tag_125:\n      dup1\n      iszero\n      tag_126\n      jumpi\n      dup1\n      0x1f\n      lt\n      tag_127\n      jumpi\n      0x0100\n      dup1\n      dup4\n      sload\n      div\n      mul\n      dup4\n      mstore\n      swap2\n      0x20\n      add\n      swap2\n      jump(tag_126)\n    tag_127:\n      dup3\n      add\n      swap2\n      swap1\n      0x00\n      mstore\n      keccak256(0x00, 0x20)\n      swap1\n    tag_128:\n      dup2\n      sload\n      dup2\n      mstore\n      swap1\n      0x01\n      add\n      swap1\n      0x20\n      add\n      dup1\n      dup4\n      gt\n      tag_128\n      jumpi\n      dup3\n      swap1\n      sub\n      0x1f\n      and\n      dup3\n      add\n      swap2\n    tag_126:\n      pop\n      pop\n      pop\n      pop\n      pop\n      dup2\n      mstore\n      0x20\n      add\n      0x02\n      dup3\n      add\n      0x00\n      swap1\n      sload\n      swap1\n      0x0100\n      exp\n      swap1\n      div\n      0xffffffffffffffffffffffffffffffffffffffff\n      and\n      0xffffffffffffffffffffffffffffffffffffffff\n      and\n      0xffffffffffffffffffffffffffffffffffffffff\n      and\n      dup2\n      mstore\n      0x20\n      add\n      0x03\n      dup3\n      add\n      dup1\n      sload\n      tag_129\n      swap1\n      tag_124\n      jump\t// in\n    tag_129:\n      dup1\n      0x1f\n      add\n      0x20\n      dup1\n      swap2\n      div\n      mul\n      0x20\n      add\n      mload(0x40)\n      swap1\n      dup2\n      add\n      0x40\n      mstore\n      dup1\n      swap3\n      swap2\n      swap1\n      dup2\n      dup2\n      mstore\n      0x20\n      add\n      dup3\n      dup1\n      sload\n      tag_130\n      swap1\n      tag_124\n      jump\t// in\n    tag_130:\n      dup1\n      iszero\n      tag_131\n      jumpi\n      dup1\n      0x1f\n      lt\n      tag_132\n      jumpi\n      0x0100\n      dup1\n      dup4\n      sload\n      div\n      mul\n      dup4\n      mstore\n      swap2\n      0x20\n      add\n      swap2\n      jump(tag_131)\n    tag_132:\n      dup3\n      add\n      swap2\n      swap1\n      0x00\n      mstore\n      keccak256(0x00, 0x20)\n      swap1\n    tag_133:\n      dup2\n      sload\n      dup2\n      mstore\n      swap1\n      0x01\n      add\n      swap1\n      0x20\n      add\n      dup1\n      dup4\n      gt\n      tag_133\n      jumpi\n      dup3\n      swap1\n      sub\n      0x1f\n      and\n      dup3\n      add\n      swap2\n    tag_131:\n      pop\n      pop\n      pop\n      pop\n      pop\n      dup2\n      mstore\n      pop\n      pop\n        /* \"contracts/Template/Istanbul10/logic/Vote.sol\":6529:6532  arr */\n      dup3\n        /* \"contracts/Template/Istanbul10/logic/Vote.sol\":6533:6534  i */\n      dup3\n        /* \"contracts/Template/Istanbul10/logic/Vote.sol\":6529:6535  arr[i] */\n      dup2\n      mload\n      dup2\n      lt\n      tag_134\n      jumpi\n      mstore(0x00, 0x4e487b7100000000000000000000000000000000000000000000000000000000)\n      mstore(0x04, 0x32)\n      revert(0x00, 0x24)\n    tag_134:\n      0x20\n      mul\n      0x20\n      add\n      add\n        /* \"contracts/Template/Istanbul10/logic/Vote.sol\":6529:6549  arr[i] = template[i] */\n      dup2\n      swap1\n      mstore\n      pop\n        /* \"contracts/Template/Istanbul10/logic/Vote.sol\":6506:6509  ++i */\n      dup1\n      tag_135\n      swap1\n      tag_136\n      jump\t// in\n    tag_135:\n      swap1\n      pop\n        /* \"contracts/Template/Istanbul10/logic/Vote.sol\":6471:6561  for(uint i = 0; i < templateTotal; ++i){\r... */\n      jump(tag_120)\n    tag_121:\n      pop\n        /* \"contracts/Template/Istanbul10/logic/Vote.sol\":6578:6581  arr */\n      dup1\n        /* \"contracts/Template/Istanbul10/logic/Vote.sol\":6571:6581  return arr */\n      swap2\n      pop\n      pop\n        /* \"contracts/Template/Istanbul10/logic/Vote.sol\":6295:6590  function getTemplate()external view  returns(GgovernanceTemplate[] memory re){\r... */\n      swap1\n      jump\t// out\n        /* \"contracts/Template/Istanbul10/data/VoteData.sol\":443:469  VeTokenTest public veToken */\n    tag_43:\n      0x03\n      0x00\n      swap1\n      sload\n      swap1\n      0x0100\n      exp\n      swap1\n      div\n      0xffffffffffffffffffffffffffffffffffffffff\n      and\n      dup2\n      jump\t// out\n        /* \"contracts/Template/Istanbul10/logic/Vote.sol\":408:518  function getVeToken() public view returns(address){\r... */\n    tag_47:\n        /* \"contracts/Template/Istanbul10/logic/Vote.sol\":450:457  address */\n      0x00\n        /* \"contracts/Template/Istanbul10/logic/Vote.sol\":489:499  msg.sender */\n      caller\n        /* \"contracts/Template/Istanbul10/logic/Vote.sol\":477:508  IRouterData(msg.sender).veToken */\n      0xffffffffffffffffffffffffffffffffffffffff\n      and\n      0x3b92eb23\n        /* \"contracts/Template/Istanbul10/logic/Vote.sol\":477:510  IRouterData(msg.sender).veToken() */\n      mload(0x40)\n      dup2\n      0xffffffff\n      and\n      0xe0\n      shl\n      dup2\n      mstore\n      0x04\n      add\n      0x20\n      mload(0x40)\n      dup1\n      dup4\n      sub\n      dup2\n      dup7\n      dup1\n      extcodesize\n      iszero\n      dup1\n      iszero\n      tag_138\n      jumpi\n      0x00\n      dup1\n      revert\n    tag_138:\n      pop\n      gas\n      staticcall\n      iszero\n      dup1\n      iszero\n      tag_140\n      jumpi\n      returndatasize\n      0x00\n      dup1\n      returndatacopy\n      revert(0x00, returndatasize)\n    tag_140:\n      pop\n      pop\n      pop\n      pop\n      mload(0x40)\n      returndatasize\n      not(0x1f)\n      0x1f\n      dup3\n      add\n      and\n      dup3\n      add\n      dup1\n      0x40\n      mstore\n      pop\n      dup2\n      add\n      swap1\n      tag_141\n      swap2\n      swap1\n      tag_142\n      jump\t// in\n    tag_141:\n        /* \"contracts/Template/Istanbul10/logic/Vote.sol\":469:510  return  IRouterData(msg.sender).veToken() */\n      swap1\n      pop\n        /* \"contracts/Template/Istanbul10/logic/Vote.sol\":408:518  function getVeToken() public view returns(address){\r... */\n      swap1\n      jump\t// out\n        /* \"contracts/Template/Istanbul10/data/VoteData.sol\":505:535  uint256[] public  executeQueue */\n    tag_52:\n      0x05\n      dup2\n      dup2\n      sload\n      dup2\n      lt\n      tag_143\n      jumpi\n      0x00\n      dup1\n      revert\n    tag_143:\n      swap1\n      0x00\n      mstore\n      keccak256(0x00, 0x20)\n      add\n      0x00\n      swap2\n      pop\n      swap1\n      pop\n      sload\n      dup2\n      jump\t// out\n        /* \"contracts/Template/Istanbul10/data/VoteData.sol\":542:572  uint256  public  templateTotal */\n    tag_55:\n      sload(0x06)\n      dup2\n      jump\t// out\n        /* \"contracts/Template/Istanbul10/logic/Vote.sol\":3770:4518  function reject(uint256 voteId_,string memory reasons_) external override {\r... */\n    tag_60:\n        /* \"contracts/Template/Istanbul10/logic/Vote.sol\":3855:3875  uint256 _totalsupply */\n      0x00\n        /* \"contracts/Template/Istanbul10/logic/Vote.sol\":3920:3923  100 */\n      0x64\n        /* \"contracts/Template/Istanbul10/logic/Vote.sol\":3902:3917  minimumQuantity */\n      sload(0x0a)\n        /* \"contracts/Template/Istanbul10/logic/Vote.sol\":3878:3885  veToken */\n      0x03\n      0x00\n      swap1\n      sload\n      swap1\n      0x0100\n      exp\n      swap1\n      div\n      0xffffffffffffffffffffffffffffffffffffffff\n      and\n        /* \"contracts/Template/Istanbul10/logic/Vote.sol\":3878:3897  veToken.totalSupply */\n      0xffffffffffffffffffffffffffffffffffffffff\n      and\n      0x18160ddd\n        /* \"contracts/Template/Istanbul10/logic/Vote.sol\":3878:3899  veToken.totalSupply() */\n      mload(0x40)\n      dup2\n      0xffffffff\n      and\n      0xe0\n      shl\n      dup2\n      mstore\n      0x04\n      add\n      0x20\n      mload(0x40)\n      dup1\n      dup4\n      sub\n      dup2\n      dup7\n      dup1\n      extcodesize\n      iszero\n      dup1\n      iszero\n      tag_146\n      jumpi\n      0x00\n      dup1\n      revert\n    tag_146:\n      pop\n      gas\n      staticcall\n      iszero\n      dup1\n      iszero\n      tag_148\n      jumpi\n      returndatasize\n      0x00\n      dup1\n      returndatacopy\n      revert(0x00, returndatasize)\n    tag_148:\n      pop\n      pop\n      pop\n      pop\n      mload(0x40)\n      returndatasize\n      not(0x1f)\n      0x1f\n      dup3\n      add\n      and\n      dup3\n      add\n      dup1\n      0x40\n      mstore\n      pop\n      dup2\n      add\n      swap1\n      tag_149\n      swap2\n      swap1\n      tag_150\n      jump\t// in\n    tag_149:\n        /* \"contracts/Template/Istanbul10/logic/Vote.sol\":3878:3917  veToken.totalSupply() * minimumQuantity */\n      tag_151\n      swap2\n      swap1\n      tag_152\n      jump\t// in\n    tag_151:\n        /* \"contracts/Template/Istanbul10/logic/Vote.sol\":3878:3923  veToken.totalSupply() * minimumQuantity / 100 */\n      tag_153\n      swap2\n      swap1\n      tag_154\n      jump\t// in\n    tag_153:\n        /* \"contracts/Template/Istanbul10/logic/Vote.sol\":3855:3923  uint256 _totalsupply = veToken.totalSupply() * minimumQuantity / 100 */\n      swap1\n      pop\n        /* \"contracts/Template/Istanbul10/logic/Vote.sol\":3975:3987  _totalsupply */\n      dup1\n        /* \"contracts/Template/Istanbul10/logic/Vote.sol\":3942:3949  veToken */\n      0x03\n      0x00\n      swap1\n      sload\n      swap1\n      0x0100\n      exp\n      swap1\n      div\n      0xffffffffffffffffffffffffffffffffffffffff\n      and\n        /* \"contracts/Template/Istanbul10/logic/Vote.sol\":3942:3959  veToken.balanceOf */\n      0xffffffffffffffffffffffffffffffffffffffff\n      and\n      0x70a08231\n        /* \"contracts/Template/Istanbul10/logic/Vote.sol\":3960:3970  msg.sender */\n      caller\n        /* \"contracts/Template/Istanbul10/logic/Vote.sol\":3942:3971  veToken.balanceOf(msg.sender) */\n      mload(0x40)\n      dup3\n      0xffffffff\n      and\n      0xe0\n      shl\n      dup2\n      mstore\n      0x04\n      add\n      tag_155\n      swap2\n      swap1\n      tag_49\n      jump\t// in\n    tag_155:\n      0x20\n      mload(0x40)\n      dup1\n      dup4\n      sub\n      dup2\n      dup7\n      dup1\n      extcodesize\n      iszero\n      dup1\n      iszero\n      tag_156\n      jumpi\n      0x00\n      dup1\n      revert\n    tag_156:\n      pop\n      gas\n      staticcall\n      iszero\n      dup1\n      iszero\n      tag_158\n      jumpi\n      returndatasize\n      0x00\n      dup1\n      returndatacopy\n      revert(0x00, returndatasize)\n    tag_158:\n      pop\n      pop\n      pop\n      pop\n      mload(0x40)\n      returndatasize\n      not(0x1f)\n      0x1f\n      dup3\n      add\n      and\n      dup3\n      add\n      dup1\n      0x40\n      mstore\n      pop\n      dup2\n      add\n      swap1\n      tag_159\n      swap2\n      swap1\n      tag_150\n      jump\t// in\n    tag_159:\n        /* \"contracts/Template/Istanbul10/logic/Vote.sol\":3942:3987  veToken.balanceOf(msg.sender) >= _totalsupply */\n      lt\n      iszero\n        /* \"contracts/Template/Istanbul10/logic/Vote.sol\":3934:4014  require(veToken.balanceOf(msg.sender) >= _totalsupply,\"Too few tokens are held\") */\n      tag_160\n      jumpi\n      mload(0x40)\n      0x08c379a000000000000000000000000000000000000000000000000000000000\n      dup2\n      mstore\n      0x04\n      add\n      tag_161\n      swap1\n      tag_162\n      jump\t// in\n    tag_161:\n      mload(0x40)\n      dup1\n      swap2\n      sub\n      swap1\n      revert\n    tag_160:\n        /* \"contracts/Template/Istanbul10/logic/Vote.sol\":4027:4052  VoteStruct storage  _vote */\n      0x00\n        /* \"contracts/Template/Istanbul10/logic/Vote.sol\":4055:4063  voteMapp */\n      0x07\n        /* \"contracts/Template/Istanbul10/logic/Vote.sol\":4055:4072  voteMapp[voteId_] */\n      0x00\n        /* \"contracts/Template/Istanbul10/logic/Vote.sol\":4064:4071  voteId_ */\n      dup6\n        /* \"contracts/Template/Istanbul10/logic/Vote.sol\":4055:4072  voteMapp[voteId_] */\n      dup2\n      mstore\n      0x20\n      add\n      swap1\n      dup2\n      mstore\n      0x20\n      add\n      0x00\n      keccak256\n        /* \"contracts/Template/Istanbul10/logic/Vote.sol\":4027:4072  VoteStruct storage  _vote = voteMapp[voteId_] */\n      swap1\n      pop\n        /* \"contracts/Template/Istanbul10/logic/Vote.sol\":4112:4117  _vote */\n      dup1\n        /* \"contracts/Template/Istanbul10/logic/Vote.sol\":4112:4122  _vote.time */\n      0x02\n      add\n      sload\n        /* \"contracts/Template/Istanbul10/logic/Vote.sol\":4093:4108  block.timestamp */\n      timestamp\n        /* \"contracts/Template/Istanbul10/logic/Vote.sol\":4093:4122  block.timestamp >= _vote.time */\n      lt\n      iszero\n        /* \"contracts/Template/Istanbul10/logic/Vote.sol\":4093:4167  block.timestamp >= _vote.time && block.timestamp < _vote.time + bufferTime */\n      dup1\n      iszero\n      tag_163\n      jumpi\n      pop\n        /* \"contracts/Template/Istanbul10/logic/Vote.sol\":4157:4167  bufferTime */\n      sload(0x01)\n        /* \"contracts/Template/Istanbul10/logic/Vote.sol\":4144:4149  _vote */\n      dup2\n        /* \"contracts/Template/Istanbul10/logic/Vote.sol\":4144:4154  _vote.time */\n      0x02\n      add\n      sload\n        /* \"contracts/Template/Istanbul10/logic/Vote.sol\":4144:4167  _vote.time + bufferTime */\n      tag_164\n      swap2\n      swap1\n      tag_165\n      jump\t// in\n    tag_164:\n        /* \"contracts/Template/Istanbul10/logic/Vote.sol\":4126:4141  block.timestamp */\n      timestamp\n        /* \"contracts/Template/Istanbul10/logic/Vote.sol\":4126:4167  block.timestamp < _vote.time + bufferTime */\n      lt\n        /* \"contracts/Template/Istanbul10/logic/Vote.sol\":4093:4167  block.timestamp >= _vote.time && block.timestamp < _vote.time + bufferTime */\n    tag_163:\n        /* \"contracts/Template/Istanbul10/logic/Vote.sol\":4085:4197  require(block.timestamp >= _vote.time && block.timestamp < _vote.time + bufferTime, \"Still in the voting phase\") */\n      tag_166\n      jumpi\n      mload(0x40)\n      0x08c379a000000000000000000000000000000000000000000000000000000000\n      dup2\n      mstore\n      0x04\n      add\n      tag_167\n      swap1\n      tag_168\n      jump\t// in\n    tag_167:\n      mload(0x40)\n      dup1\n      swap2\n      sub\n      swap1\n      revert\n    tag_166:\n        /* \"contracts/Template/Istanbul10/logic/Vote.sol\":4232:4251  VoteStatus.isvoting */\n      0x01\n        /* \"contracts/Template/Istanbul10/logic/Vote.sol\":4216:4251  _vote.status == VoteStatus.isvoting */\n      0x06\n      dup2\n      gt\n      iszero\n      tag_169\n      jumpi\n      mstore(0x00, 0x4e487b7100000000000000000000000000000000000000000000000000000000)\n      mstore(0x04, 0x21)\n      revert(0x00, 0x24)\n    tag_169:\n        /* \"contracts/Template/Istanbul10/logic/Vote.sol\":4216:4221  _vote */\n      dup2\n        /* \"contracts/Template/Istanbul10/logic/Vote.sol\":4216:4228  _vote.status */\n      0x08\n      add\n      0x00\n      swap1\n      sload\n      swap1\n      0x0100\n      exp\n      swap1\n      div\n      0xff\n      and\n        /* \"contracts/Template/Istanbul10/logic/Vote.sol\":4216:4251  _vote.status == VoteStatus.isvoting */\n      0x06\n      dup2\n      gt\n      iszero\n      tag_170\n      jumpi\n      mstore(0x00, 0x4e487b7100000000000000000000000000000000000000000000000000000000)\n      mstore(0x04, 0x21)\n      revert(0x00, 0x24)\n    tag_170:\n      eq\n        /* \"contracts/Template/Istanbul10/logic/Vote.sol\":4208:4278  require(_vote.status == VoteStatus.isvoting,\"Not at the voting stage\") */\n      tag_171\n      jumpi\n      mload(0x40)\n      0x08c379a000000000000000000000000000000000000000000000000000000000\n      dup2\n      mstore\n      0x04\n      add\n      tag_172\n      swap1\n      tag_173\n      jump\t// in\n    tag_172:\n      mload(0x40)\n      dup1\n      swap2\n      sub\n      swap1\n      revert\n    tag_171:\n        /* \"contracts/Template/Istanbul10/logic/Vote.sol\":4306:4329  VoteStatus.secondBallot */\n      0x05\n        /* \"contracts/Template/Istanbul10/logic/Vote.sol\":4291:4296  _vote */\n      dup2\n        /* \"contracts/Template/Istanbul10/logic/Vote.sol\":4291:4303  _vote.status */\n      0x08\n      add\n      0x00\n        /* \"contracts/Template/Istanbul10/logic/Vote.sol\":4291:4329  _vote.status = VoteStatus.secondBallot */\n      0x0100\n      exp\n      dup2\n      sload\n      dup2\n      0xff\n      mul\n      not\n      and\n      swap1\n      dup4\n      0x06\n      dup2\n      gt\n      iszero\n      tag_174\n      jumpi\n      mstore(0x00, 0x4e487b7100000000000000000000000000000000000000000000000000000000)\n      mstore(0x04, 0x21)\n      revert(0x00, 0x24)\n    tag_174:\n      mul\n      or\n      swap1\n      sstore\n      pop\n        /* \"contracts/Template/Istanbul10/logic/Vote.sol\":4363:4371  reasons_ */\n      dup3\n        /* \"contracts/Template/Istanbul10/logic/Vote.sol\":4340:4345  _vote */\n      dup2\n        /* \"contracts/Template/Istanbul10/logic/Vote.sol\":4340:4351  _vote.svote */\n      0x0c\n      add\n        /* \"contracts/Template/Istanbul10/logic/Vote.sol\":4340:4360  _vote.svote.describe */\n      0x01\n      add\n        /* \"contracts/Template/Istanbul10/logic/Vote.sol\":4340:4371  _vote.svote.describe = reasons_ */\n      swap1\n      dup1\n      mload\n      swap1\n      0x20\n      add\n      swap1\n      tag_175\n      swap3\n      swap2\n      swap1\n      tag_176\n      jump\t// in\n    tag_175:\n      pop\n        /* \"contracts/Template/Istanbul10/logic/Vote.sol\":4403:4413  msg.sender */\n      caller\n        /* \"contracts/Template/Istanbul10/logic/Vote.sol\":4382:4387  _vote */\n      dup2\n        /* \"contracts/Template/Istanbul10/logic/Vote.sol\":4382:4393  _vote.svote */\n      0x0c\n      add\n        /* \"contracts/Template/Istanbul10/logic/Vote.sol\":4382:4400  _vote.svote.vetoer */\n      0x00\n      add\n      0x00\n        /* \"contracts/Template/Istanbul10/logic/Vote.sol\":4382:4413  _vote.svote.vetoer = msg.sender */\n      0x0100\n      exp\n      dup2\n      sload\n      dup2\n      0xffffffffffffffffffffffffffffffffffffffff\n      mul\n      not\n      and\n      swap1\n      dup4\n      0xffffffffffffffffffffffffffffffffffffffff\n      and\n      mul\n      or\n      swap1\n      sstore\n      pop\n        /* \"contracts/Template/Istanbul10/logic/Vote.sol\":4455:4465  bufferTime */\n      sload(0x01)\n        /* \"contracts/Template/Istanbul10/logic/Vote.sol\":4437:4452  block.timestamp */\n      timestamp\n        /* \"contracts/Template/Istanbul10/logic/Vote.sol\":4437:4465  block.timestamp + bufferTime */\n      tag_177\n      swap2\n      swap1\n      tag_165\n      jump\t// in\n    tag_177:\n        /* \"contracts/Template/Istanbul10/logic/Vote.sol\":4424:4429  _vote */\n      dup2\n        /* \"contracts/Template/Istanbul10/logic/Vote.sol\":4424:4434  _vote.time */\n      0x02\n      add\n        /* \"contracts/Template/Istanbul10/logic/Vote.sol\":4424:4465  _vote.time = block.timestamp + bufferTime */\n      dup2\n      swap1\n      sstore\n      pop\n        /* \"contracts/Template/Istanbul10/logic/Vote.sol\":4493:4500  voteId_ */\n      dup4\n        /* \"contracts/Template/Istanbul10/logic/Vote.sol\":4481:4510  RejectEvent(voteId_,reasons_) */\n      0x4a3e39232ea797464bb08b1cb8267cfc05e026d0eae637ff17b0548af520369a\n        /* \"contracts/Template/Istanbul10/logic/Vote.sol\":4501:4509  reasons_ */\n      dup5\n        /* \"contracts/Template/Istanbul10/logic/Vote.sol\":4481:4510  RejectEvent(voteId_,reasons_) */\n      mload(0x40)\n      tag_178\n      swap2\n      swap1\n      tag_179\n      jump\t// in\n    tag_178:\n      mload(0x40)\n      dup1\n      swap2\n      sub\n      swap1\n      log2\n        /* \"contracts/Template/Istanbul10/logic/Vote.sol\":3770:4518  function reject(uint256 voteId_,string memory reasons_) external override {\r... */\n      pop\n      pop\n      pop\n      pop\n      jump\t// out\n        /* \"contracts/Template/Istanbul10/logic/Vote.sol\":8409:8718  function getVoteDetailwithVoteId(uint256 voteId_) external view returns(\r... */\n    tag_63:\n        /* \"contracts/Template/Istanbul10/logic/Vote.sol\":8491:8514  string memory voteTopic */\n      0x60\n        /* \"contracts/Template/Istanbul10/logic/Vote.sol\":8525:8547  string memory describe */\n      dup1\n        /* \"contracts/Template/Istanbul10/logic/Vote.sol\":8558:8575  address initiator */\n      0x00\n        /* \"contracts/Template/Istanbul10/logic/Vote.sol\":8598:8622  VoteStruct storage _vote */\n      dup1\n        /* \"contracts/Template/Istanbul10/logic/Vote.sol\":8625:8633  voteMapp */\n      0x07\n        /* \"contracts/Template/Istanbul10/logic/Vote.sol\":8625:8642  voteMapp[voteId_] */\n      0x00\n        /* \"contracts/Template/Istanbul10/logic/Vote.sol\":8634:8641  voteId_ */\n      dup7\n        /* \"contracts/Template/Istanbul10/logic/Vote.sol\":8625:8642  voteMapp[voteId_] */\n      dup2\n      mstore\n      0x20\n      add\n      swap1\n      dup2\n      mstore\n      0x20\n      add\n      0x00\n      keccak256\n        /* \"contracts/Template/Istanbul10/logic/Vote.sol\":8598:8642  VoteStruct storage _vote = voteMapp[voteId_] */\n      swap1\n      pop\n        /* \"contracts/Template/Istanbul10/logic/Vote.sol\":8663:8668  _vote */\n      dup1\n        /* \"contracts/Template/Istanbul10/logic/Vote.sol\":8663:8678  _vote.voteTopic */\n      0x03\n      add\n        /* \"contracts/Template/Istanbul10/logic/Vote.sol\":8679:8684  _vote */\n      dup2\n        /* \"contracts/Template/Istanbul10/logic/Vote.sol\":8679:8693  _vote.describe */\n      0x05\n      add\n        /* \"contracts/Template/Istanbul10/logic/Vote.sol\":8694:8699  _vote */\n      dup3\n        /* \"contracts/Template/Istanbul10/logic/Vote.sol\":8694:8709  _vote.initiator */\n      0x04\n      add\n      0x00\n      swap1\n      sload\n      swap1\n      0x0100\n      exp\n      swap1\n      div\n      0xffffffffffffffffffffffffffffffffffffffff\n      and\n        /* \"contracts/Template/Istanbul10/logic/Vote.sol\":8654:8710  return  (_vote.voteTopic,_vote.describe,_vote.initiator) */\n      dup3\n      dup1\n      sload\n      tag_181\n      swap1\n      tag_124\n      jump\t// in\n    tag_181:\n      dup1\n      0x1f\n      add\n      0x20\n      dup1\n      swap2\n      div\n      mul\n      0x20\n      add\n      mload(0x40)\n      swap1\n      dup2\n      add\n      0x40\n      mstore\n      dup1\n      swap3\n      swap2\n      swap1\n      dup2\n      dup2\n      mstore\n      0x20\n      add\n      dup3\n      dup1\n      sload\n      tag_182\n      swap1\n      tag_124\n      jump\t// in\n    tag_182:\n      dup1\n      iszero\n      tag_183\n      jumpi\n      dup1\n      0x1f\n      lt\n      tag_184\n      jumpi\n      0x0100\n      dup1\n      dup4\n      sload\n      div\n      mul\n      dup4\n      mstore\n      swap2\n      0x20\n      add\n      swap2\n      jump(tag_183)\n    tag_184:\n      dup3\n      add\n      swap2\n      swap1\n      0x00\n      mstore\n      keccak256(0x00, 0x20)\n      swap1\n    tag_185:\n      dup2\n      sload\n      dup2\n      mstore\n      swap1\n      0x01\n      add\n      swap1\n      0x20\n      add\n      dup1\n      dup4\n      gt\n      tag_185\n      jumpi\n      dup3\n      swap1\n      sub\n      0x1f\n      and\n      dup3\n      add\n      swap2\n    tag_183:\n      pop\n      pop\n      pop\n      pop\n      pop\n      swap3\n      pop\n      dup2\n      dup1\n      sload\n      tag_186\n      swap1\n      tag_124\n      jump\t// in\n    tag_186:\n      dup1\n      0x1f\n      add\n      0x20\n      dup1\n      swap2\n      div\n      mul\n      0x20\n      add\n      mload(0x40)\n      swap1\n      dup2\n      add\n      0x40\n      mstore\n      dup1\n      swap3\n      swap2\n      swap1\n      dup2\n      dup2\n      mstore\n      0x20\n      add\n      dup3\n      dup1\n      sload\n      tag_187\n      swap1\n      tag_124\n      jump\t// in\n    tag_187:\n      dup1\n      iszero\n      tag_188\n      jumpi\n      dup1\n      0x1f\n      lt\n      tag_189\n      jumpi\n      0x0100\n      dup1\n      dup4\n      sload\n      div\n      mul\n      dup4\n      mstore\n      swap2\n      0x20\n      add\n      swap2\n      jump(tag_188)\n    tag_189:\n      dup3\n      add\n      swap2\n      swap1\n      0x00\n      mstore\n      keccak256(0x00, 0x20)\n      swap1\n    tag_190:\n      dup2\n      sload\n      dup2\n      mstore\n      swap1\n      0x01\n      add\n      swap1\n      0x20\n      add\n      dup1\n      dup4\n      gt\n      tag_190\n      jumpi\n      dup3\n      swap1\n      sub\n      0x1f\n      and\n      dup3\n      add\n      swap2\n    tag_188:\n      pop\n      pop\n      pop\n      pop\n      pop\n      swap2\n      pop\n      swap4\n      pop\n      swap4\n      pop\n      swap4\n      pop\n      pop\n        /* \"contracts/Template/Istanbul10/logic/Vote.sol\":8409:8718  function getVoteDetailwithVoteId(uint256 voteId_) external view returns(\r... */\n      swap2\n      swap4\n      swap1\n      swap3\n      pop\n      jump\t// out\n        /* \"contracts/Template/Istanbul10/data/VoteData.sol\":476:498  uint public voteTatola */\n    tag_67:\n      sload(0x04)\n      dup2\n      jump\t// out\n        /* \"contracts/Template/Istanbul10/logic/Vote.sol\":240:400  function initialize() override public{\r... */\n    tag_70:\n        /* \"contracts/Template/Istanbul10/logic/Vote.sol\":310:322  getVeToken() */\n      tag_192\n        /* \"contracts/Template/Istanbul10/logic/Vote.sol\":310:320  getVeToken */\n      tag_47\n        /* \"contracts/Template/Istanbul10/logic/Vote.sol\":310:322  getVeToken() */\n      jump\t// in\n    tag_192:\n        /* \"contracts/Template/Istanbul10/logic/Vote.sol\":288:295  veToken */\n      0x03\n      0x00\n        /* \"contracts/Template/Istanbul10/logic/Vote.sol\":288:323  veToken = VeTokenTest(getVeToken()) */\n      0x0100\n      exp\n      dup2\n      sload\n      dup2\n      0xffffffffffffffffffffffffffffffffffffffff\n      mul\n      not\n      and\n      swap1\n      dup4\n      0xffffffffffffffffffffffffffffffffffffffff\n      and\n      mul\n      or\n      swap1\n      sstore\n      pop\n        /* \"contracts/Template/Istanbul10/logic/Vote.sol\":343:353  msg.sender */\n      caller\n        /* \"contracts/Template/Istanbul10/logic/Vote.sol\":334:340  router */\n      0x02\n      0x00\n        /* \"contracts/Template/Istanbul10/logic/Vote.sol\":334:353  router = msg.sender */\n      0x0100\n      exp\n      dup2\n      sload\n      dup2\n      0xffffffffffffffffffffffffffffffffffffffff\n      mul\n      not\n      and\n      swap1\n      dup4\n      0xffffffffffffffffffffffffffffffffffffffff\n      and\n      mul\n      or\n      swap1\n      sstore\n      pop\n        /* \"contracts/Template/Istanbul10/logic/Vote.sol\":385:391  router */\n      0x02\n      0x00\n      swap1\n      sload\n      swap1\n      0x0100\n      exp\n      swap1\n      div\n      0xffffffffffffffffffffffffffffffffffffffff\n      and\n        /* \"contracts/Template/Istanbul10/logic/Vote.sol\":369:392  InitializeEvent(router) */\n      0xffffffffffffffffffffffffffffffffffffffff\n      and\n      0x0e39d7cd8517be5d0ded9db90850ac775470f23ea44ec3aaaad22ee8b1f8fc59\n      mload(0x40)\n      mload(0x40)\n      dup1\n      swap2\n      sub\n      swap1\n      log2\n        /* \"contracts/Template/Istanbul10/logic/Vote.sol\":240:400  function initialize() override public{\r... */\n      jump\t// out\n        /* \"contracts/Template/Istanbul10/logic/Vote.sol\":1751:3699  function toVote(uint256 voteId_,bool result_) external override {\r... */\n    tag_74:\n        /* \"contracts/Template/Istanbul10/logic/Vote.sol\":1826:1840  uint256 weight */\n      0x00\n        /* \"contracts/Template/Istanbul10/logic/Vote.sol\":1851:1875  VoteStruct storage _vote */\n      dup1\n        /* \"contracts/Template/Istanbul10/logic/Vote.sol\":1878:1886  voteMapp */\n      0x07\n        /* \"contracts/Template/Istanbul10/logic/Vote.sol\":1878:1895  voteMapp[voteId_] */\n      0x00\n        /* \"contracts/Template/Istanbul10/logic/Vote.sol\":1887:1894  voteId_ */\n      dup6\n        /* \"contracts/Template/Istanbul10/logic/Vote.sol\":1878:1895  voteMapp[voteId_] */\n      dup2\n      mstore\n      0x20\n      add\n      swap1\n      dup2\n      mstore\n      0x20\n      add\n      0x00\n      keccak256\n        /* \"contracts/Template/Istanbul10/logic/Vote.sol\":1851:1895  VoteStruct storage _vote = voteMapp[voteId_] */\n      swap1\n      pop\n        /* \"contracts/Template/Istanbul10/logic/Vote.sol\":1930:1954  VoteStatus.uninitialized */\n      0x00\n        /* \"contracts/Template/Istanbul10/logic/Vote.sol\":1914:1954  _vote.status != VoteStatus.uninitialized */\n      0x06\n      dup2\n      gt\n      iszero\n      tag_194\n      jumpi\n      mstore(0x00, 0x4e487b7100000000000000000000000000000000000000000000000000000000)\n      mstore(0x04, 0x21)\n      revert(0x00, 0x24)\n    tag_194:\n        /* \"contracts/Template/Istanbul10/logic/Vote.sol\":1914:1919  _vote */\n      dup2\n        /* \"contracts/Template/Istanbul10/logic/Vote.sol\":1914:1926  _vote.status */\n      0x08\n      add\n      0x00\n      swap1\n      sload\n      swap1\n      0x0100\n      exp\n      swap1\n      div\n      0xff\n      and\n        /* \"contracts/Template/Istanbul10/logic/Vote.sol\":1914:1954  _vote.status != VoteStatus.uninitialized */\n      0x06\n      dup2\n      gt\n      iszero\n      tag_195\n      jumpi\n      mstore(0x00, 0x4e487b7100000000000000000000000000000000000000000000000000000000)\n      mstore(0x04, 0x21)\n      revert(0x00, 0x24)\n    tag_195:\n      eq\n      iszero\n        /* \"contracts/Template/Istanbul10/logic/Vote.sol\":1906:1972  require(_vote.status != VoteStatus.uninitialized,\"VoteId is null\") */\n      tag_196\n      jumpi\n      mload(0x40)\n      0x08c379a000000000000000000000000000000000000000000000000000000000\n      dup2\n      mstore\n      0x04\n      add\n      tag_197\n      swap1\n      tag_198\n      jump\t// in\n    tag_197:\n      mload(0x40)\n      dup1\n      swap2\n      sub\n      swap1\n      revert\n    tag_196:\n        /* \"contracts/Template/Istanbul10/logic/Vote.sol\":2025:2044  VoteStatus.isvoting */\n      0x01\n        /* \"contracts/Template/Istanbul10/logic/Vote.sol\":2009:2044  _vote.status == VoteStatus.isvoting */\n      0x06\n      dup2\n      gt\n      iszero\n      tag_199\n      jumpi\n      mstore(0x00, 0x4e487b7100000000000000000000000000000000000000000000000000000000)\n      mstore(0x04, 0x21)\n      revert(0x00, 0x24)\n    tag_199:\n        /* \"contracts/Template/Istanbul10/logic/Vote.sol\":2009:2014  _vote */\n      dup2\n        /* \"contracts/Template/Istanbul10/logic/Vote.sol\":2009:2021  _vote.status */\n      0x08\n      add\n      0x00\n      swap1\n      sload\n      swap1\n      0x0100\n      exp\n      swap1\n      div\n      0xff\n      and\n        /* \"contracts/Template/Istanbul10/logic/Vote.sol\":2009:2044  _vote.status == VoteStatus.isvoting */\n      0x06\n      dup2\n      gt\n      iszero\n      tag_200\n      jumpi\n      mstore(0x00, 0x4e487b7100000000000000000000000000000000000000000000000000000000)\n      mstore(0x04, 0x21)\n      revert(0x00, 0x24)\n    tag_200:\n      eq\n        /* \"contracts/Template/Istanbul10/logic/Vote.sol\":2006:3648  if(_vote.status == VoteStatus.isvoting){\r... */\n      iszero\n      tag_201\n      jumpi\n        /* \"contracts/Template/Istanbul10/logic/Vote.sol\":2065:2070  _vote */\n      dup1\n        /* \"contracts/Template/Istanbul10/logic/Vote.sol\":2065:2083  _vote.VoterAddress */\n      0x0b\n      add\n        /* \"contracts/Template/Istanbul10/logic/Vote.sol\":2065:2095  _vote.VoterAddress[msg.sender] */\n      0x00\n        /* \"contracts/Template/Istanbul10/logic/Vote.sol\":2084:2094  msg.sender */\n      caller\n        /* \"contracts/Template/Istanbul10/logic/Vote.sol\":2065:2095  _vote.VoterAddress[msg.sender] */\n      0xffffffffffffffffffffffffffffffffffffffff\n      and\n      0xffffffffffffffffffffffffffffffffffffffff\n      and\n      dup2\n      mstore\n      0x20\n      add\n      swap1\n      dup2\n      mstore\n      0x20\n      add\n      0x00\n      keccak256\n        /* \"contracts/Template/Istanbul10/logic/Vote.sol\":2065:2101  _vote.VoterAddress[msg.sender].voted */\n      0x00\n      add\n      0x00\n      swap1\n      sload\n      swap1\n      0x0100\n      exp\n      swap1\n      div\n      0xff\n      and\n        /* \"contracts/Template/Istanbul10/logic/Vote.sol\":2064:2101  !_vote.VoterAddress[msg.sender].voted */\n      iszero\n        /* \"contracts/Template/Istanbul10/logic/Vote.sol\":2056:2116  require(!_vote.VoterAddress[msg.sender].voted,\"Vote before\") */\n      tag_202\n      jumpi\n      mload(0x40)\n      0x08c379a000000000000000000000000000000000000000000000000000000000\n      dup2\n      mstore\n      0x04\n      add\n      tag_203\n      swap1\n      tag_204\n      jump\t// in\n    tag_203:\n      mload(0x40)\n      dup1\n      swap2\n      sub\n      swap1\n      revert\n    tag_202:\n        /* \"contracts/Template/Istanbul10/logic/Vote.sol\":2168:2169  1 */\n      0x01\n        /* \"contracts/Template/Istanbul10/logic/Vote.sol\":2135:2142  veToken */\n      0x03\n      0x00\n      swap1\n      sload\n      swap1\n      0x0100\n      exp\n      swap1\n      div\n      0xffffffffffffffffffffffffffffffffffffffff\n      and\n        /* \"contracts/Template/Istanbul10/logic/Vote.sol\":2135:2152  veToken.balanceOf */\n      0xffffffffffffffffffffffffffffffffffffffff\n      and\n      0x70a08231\n        /* \"contracts/Template/Istanbul10/logic/Vote.sol\":2153:2163  msg.sender */\n      caller\n        /* \"contracts/Template/Istanbul10/logic/Vote.sol\":2135:2164  veToken.balanceOf(msg.sender) */\n      mload(0x40)\n      dup3\n      0xffffffff\n      and\n      0xe0\n      shl\n      dup2\n      mstore\n      0x04\n      add\n      tag_205\n      swap2\n      swap1\n      tag_49\n      jump\t// in\n    tag_205:\n      0x20\n      mload(0x40)\n      dup1\n      dup4\n      sub\n      dup2\n      dup7\n      dup1\n      extcodesize\n      iszero\n      dup1\n      iszero\n      tag_206\n      jumpi\n      0x00\n      dup1\n      revert\n    tag_206:\n      pop\n      gas\n      staticcall\n      iszero\n      dup1\n      iszero\n      tag_208\n      jumpi\n      returndatasize\n      0x00\n      dup1\n      returndatacopy\n      revert(0x00, returndatasize)\n    tag_208:\n      pop\n      pop\n      pop\n      pop\n      mload(0x40)\n      returndatasize\n      not(0x1f)\n      0x1f\n      dup3\n      add\n      and\n      dup3\n      add\n      dup1\n      0x40\n      mstore\n      pop\n      dup2\n      add\n      swap1\n      tag_209\n      swap2\n      swap1\n      tag_150\n      jump\t// in\n    tag_209:\n        /* \"contracts/Template/Istanbul10/logic/Vote.sol\":2135:2169  veToken.balanceOf(msg.sender) >= 1 */\n      lt\n      iszero\n        /* \"contracts/Template/Istanbul10/logic/Vote.sol\":2127:2193  require(veToken.balanceOf(msg.sender) >= 1,\"veToken less than 1 \") */\n      tag_210\n      jumpi\n      mload(0x40)\n      0x08c379a000000000000000000000000000000000000000000000000000000000\n      dup2\n      mstore\n      0x04\n      add\n      tag_211\n      swap1\n      tag_212\n      jump\t// in\n    tag_211:\n      mload(0x40)\n      dup1\n      swap2\n      sub\n      swap1\n      revert\n    tag_210:\n        /* \"contracts/Template/Istanbul10/logic/Vote.sol\":2230:2235  _vote */\n      dup1\n        /* \"contracts/Template/Istanbul10/logic/Vote.sol\":2230:2240  _vote.time */\n      0x02\n      add\n      sload\n        /* \"contracts/Template/Istanbul10/logic/Vote.sol\":2212:2227  block.timestamp */\n      timestamp\n        /* \"contracts/Template/Istanbul10/logic/Vote.sol\":2212:2240  block.timestamp < _vote.time */\n      lt\n        /* \"contracts/Template/Istanbul10/logic/Vote.sol\":2204:2272  require(block.timestamp < _vote.time,\"Not within the allotted time\") */\n      tag_213\n      jumpi\n      mload(0x40)\n      0x08c379a000000000000000000000000000000000000000000000000000000000\n      dup2\n      mstore\n      0x04\n      add\n      tag_214\n      swap1\n      tag_215\n      jump\t// in\n    tag_214:\n      mload(0x40)\n      dup1\n      swap2\n      sub\n      swap1\n      revert\n    tag_213:\n        /* \"contracts/Template/Istanbul10/logic/Vote.sol\":2322:2326  true */\n      0x01\n        /* \"contracts/Template/Istanbul10/logic/Vote.sol\":2283:2288  _vote */\n      dup2\n        /* \"contracts/Template/Istanbul10/logic/Vote.sol\":2283:2301  _vote.VoterAddress */\n      0x0b\n      add\n        /* \"contracts/Template/Istanbul10/logic/Vote.sol\":2283:2313  _vote.VoterAddress[msg.sender] */\n      0x00\n        /* \"contracts/Template/Istanbul10/logic/Vote.sol\":2302:2312  msg.sender */\n      caller\n        /* \"contracts/Template/Istanbul10/logic/Vote.sol\":2283:2313  _vote.VoterAddress[msg.sender] */\n      0xffffffffffffffffffffffffffffffffffffffff\n      and\n      0xffffffffffffffffffffffffffffffffffffffff\n      and\n      dup2\n      mstore\n      0x20\n      add\n      swap1\n      dup2\n      mstore\n      0x20\n      add\n      0x00\n      keccak256\n        /* \"contracts/Template/Istanbul10/logic/Vote.sol\":2283:2319  _vote.VoterAddress[msg.sender].voted */\n      0x00\n      add\n      0x00\n        /* \"contracts/Template/Istanbul10/logic/Vote.sol\":2283:2326  _vote.VoterAddress[msg.sender].voted = true */\n      0x0100\n      exp\n      dup2\n      sload\n      dup2\n      0xff\n      mul\n      not\n      and\n      swap1\n      dup4\n      iszero\n      iszero\n      mul\n      or\n      swap1\n      sstore\n      pop\n        /* \"contracts/Template/Istanbul10/logic/Vote.sol\":2342:2349  result_ */\n      dup3\n        /* \"contracts/Template/Istanbul10/logic/Vote.sol\":2339:2837  if(result_){\r... */\n      iszero\n      tag_216\n      jumpi\n        /* \"contracts/Template/Istanbul10/logic/Vote.sol\":2416:2417  0 */\n      0x00\n        /* \"contracts/Template/Istanbul10/logic/Vote.sol\":2368:2373  _vote */\n      dup2\n        /* \"contracts/Template/Istanbul10/logic/Vote.sol\":2368:2386  _vote.VoterAddress */\n      0x0b\n      add\n        /* \"contracts/Template/Istanbul10/logic/Vote.sol\":2368:2398  _vote.VoterAddress[msg.sender] */\n      0x00\n        /* \"contracts/Template/Istanbul10/logic/Vote.sol\":2387:2397  msg.sender */\n      caller\n        /* \"contracts/Template/Istanbul10/logic/Vote.sol\":2368:2398  _vote.VoterAddress[msg.sender] */\n      0xffffffffffffffffffffffffffffffffffffffff\n      and\n      0xffffffffffffffffffffffffffffffffffffffff\n      and\n      dup2\n      mstore\n      0x20\n      add\n      swap1\n      dup2\n      mstore\n      0x20\n      add\n      0x00\n      keccak256\n        /* \"contracts/Template/Istanbul10/logic/Vote.sol\":2368:2405  _vote.VoterAddress[msg.sender].bailor */\n      0x01\n      add\n        /* \"contracts/Template/Istanbul10/logic/Vote.sol\":2368:2412  _vote.VoterAddress[msg.sender].bailor.length */\n      dup1\n      sload\n      swap1\n      pop\n        /* \"contracts/Template/Istanbul10/logic/Vote.sol\":2368:2417  _vote.VoterAddress[msg.sender].bailor.length != 0 */\n      eq\n        /* \"contracts/Template/Istanbul10/logic/Vote.sol\":2365:2682  if(_vote.VoterAddress[msg.sender].bailor.length != 0){\r... */\n      tag_217\n      jumpi\n        /* \"contracts/Template/Istanbul10/logic/Vote.sol\":2441:2447  uint i */\n      0x00\n        /* \"contracts/Template/Istanbul10/logic/Vote.sol\":2437:2667  for(uint i = 0; i < _vote.VoterAddress[msg.sender].bailor.length; ++i){\r... */\n    tag_218:\n        /* \"contracts/Template/Istanbul10/logic/Vote.sol\":2457:2462  _vote */\n      dup2\n        /* \"contracts/Template/Istanbul10/logic/Vote.sol\":2457:2475  _vote.VoterAddress */\n      0x0b\n      add\n        /* \"contracts/Template/Istanbul10/logic/Vote.sol\":2457:2487  _vote.VoterAddress[msg.sender] */\n      0x00\n        /* \"contracts/Template/Istanbul10/logic/Vote.sol\":2476:2486  msg.sender */\n      caller\n        /* \"contracts/Template/Istanbul10/logic/Vote.sol\":2457:2487  _vote.VoterAddress[msg.sender] */\n      0xffffffffffffffffffffffffffffffffffffffff\n      and\n      0xffffffffffffffffffffffffffffffffffffffff\n      and\n      dup2\n      mstore\n      0x20\n      add\n      swap1\n      dup2\n      mstore\n      0x20\n      add\n      0x00\n      keccak256\n        /* \"contracts/Template/Istanbul10/logic/Vote.sol\":2457:2494  _vote.VoterAddress[msg.sender].bailor */\n      0x01\n      add\n        /* \"contracts/Template/Istanbul10/logic/Vote.sol\":2457:2501  _vote.VoterAddress[msg.sender].bailor.length */\n      dup1\n      sload\n      swap1\n      pop\n        /* \"contracts/Template/Istanbul10/logic/Vote.sol\":2453:2454  i */\n      dup2\n        /* \"contracts/Template/Istanbul10/logic/Vote.sol\":2453:2501  i < _vote.VoterAddress[msg.sender].bailor.length */\n      lt\n        /* \"contracts/Template/Istanbul10/logic/Vote.sol\":2437:2667  for(uint i = 0; i < _vote.VoterAddress[msg.sender].bailor.length; ++i){\r... */\n      iszero\n      tag_219\n      jumpi\n        /* \"contracts/Template/Istanbul10/logic/Vote.sol\":2530:2545  address deleAdd */\n      0x00\n        /* \"contracts/Template/Istanbul10/logic/Vote.sol\":2548:2553  _vote */\n      dup3\n        /* \"contracts/Template/Istanbul10/logic/Vote.sol\":2548:2566  _vote.VoterAddress */\n      0x0b\n      add\n        /* \"contracts/Template/Istanbul10/logic/Vote.sol\":2548:2578  _vote.VoterAddress[msg.sender] */\n      0x00\n        /* \"contracts/Template/Istanbul10/logic/Vote.sol\":2567:2577  msg.sender */\n      caller\n        /* \"contracts/Template/Istanbul10/logic/Vote.sol\":2548:2578  _vote.VoterAddress[msg.sender] */\n      0xffffffffffffffffffffffffffffffffffffffff\n      and\n      0xffffffffffffffffffffffffffffffffffffffff\n      and\n      dup2\n      mstore\n      0x20\n      add\n      swap1\n      dup2\n      mstore\n      0x20\n      add\n      0x00\n      keccak256\n        /* \"contracts/Template/Istanbul10/logic/Vote.sol\":2548:2585  _vote.VoterAddress[msg.sender].bailor */\n      0x01\n      add\n        /* \"contracts/Template/Istanbul10/logic/Vote.sol\":2586:2587  i */\n      dup3\n        /* \"contracts/Template/Istanbul10/logic/Vote.sol\":2548:2588  _vote.VoterAddress[msg.sender].bailor[i] */\n      dup2\n      sload\n      dup2\n      lt\n      tag_221\n      jumpi\n      mstore(0x00, 0x4e487b7100000000000000000000000000000000000000000000000000000000)\n      mstore(0x04, 0x32)\n      revert(0x00, 0x24)\n    tag_221:\n      swap1\n      0x00\n      mstore\n      keccak256(0x00, 0x20)\n      add\n      0x00\n      swap1\n      sload\n      swap1\n      0x0100\n      exp\n      swap1\n      div\n      0xffffffffffffffffffffffffffffffffffffffff\n      and\n        /* \"contracts/Template/Istanbul10/logic/Vote.sol\":2530:2588  address deleAdd = _vote.VoterAddress[msg.sender].bailor[i] */\n      swap1\n      pop\n        /* \"contracts/Template/Istanbul10/logic/Vote.sol\":2621:2628  veToken */\n      0x03\n      0x00\n      swap1\n      sload\n      swap1\n      0x0100\n      exp\n      swap1\n      div\n      0xffffffffffffffffffffffffffffffffffffffff\n      and\n        /* \"contracts/Template/Istanbul10/logic/Vote.sol\":2621:2638  veToken.balanceOf */\n      0xffffffffffffffffffffffffffffffffffffffff\n      and\n      0x70a08231\n        /* \"contracts/Template/Istanbul10/logic/Vote.sol\":2639:2646  deleAdd */\n      dup3\n        /* \"contracts/Template/Istanbul10/logic/Vote.sol\":2621:2647  veToken.balanceOf(deleAdd) */\n      mload(0x40)\n      dup3\n      0xffffffff\n      and\n      0xe0\n      shl\n      dup2\n      mstore\n      0x04\n      add\n      tag_223\n      swap2\n      swap1\n      tag_49\n      jump\t// in\n    tag_223:\n      0x20\n      mload(0x40)\n      dup1\n      dup4\n      sub\n      dup2\n      dup7\n      dup1\n      extcodesize\n      iszero\n      dup1\n      iszero\n      tag_224\n      jumpi\n      0x00\n      dup1\n      revert\n    tag_224:\n      pop\n      gas\n      staticcall\n      iszero\n      dup1\n      iszero\n      tag_226\n      jumpi\n      returndatasize\n      0x00\n      dup1\n      returndatacopy\n      revert(0x00, returndatasize)\n    tag_226:\n      pop\n      pop\n      pop\n      pop\n      mload(0x40)\n      returndatasize\n      not(0x1f)\n      0x1f\n      dup3\n      add\n      and\n      dup3\n      add\n      dup1\n      0x40\n      mstore\n      pop\n      dup2\n      add\n      swap1\n      tag_227\n      swap2\n      swap1\n      tag_150\n      jump\t// in\n    tag_227:\n        /* \"contracts/Template/Istanbul10/logic/Vote.sol\":2611:2647  weight += veToken.balanceOf(deleAdd) */\n      dup5\n      tag_228\n      swap2\n      swap1\n      tag_165\n      jump\t// in\n    tag_228:\n      swap4\n      pop\n        /* \"contracts/Template/Istanbul10/logic/Vote.sol\":2437:2667  for(uint i = 0; i < _vote.VoterAddress[msg.sender].bailor.length; ++i){\r... */\n      pop\n        /* \"contracts/Template/Istanbul10/logic/Vote.sol\":2503:2506  ++i */\n      dup1\n      tag_229\n      swap1\n      tag_136\n      jump\t// in\n    tag_229:\n      swap1\n      pop\n        /* \"contracts/Template/Istanbul10/logic/Vote.sol\":2437:2667  for(uint i = 0; i < _vote.VoterAddress[msg.sender].bailor.length; ++i){\r... */\n      jump(tag_218)\n    tag_219:\n      pop\n        /* \"contracts/Template/Istanbul10/logic/Vote.sol\":2365:2682  if(_vote.VoterAddress[msg.sender].bailor.length != 0){\r... */\n    tag_217:\n        /* \"contracts/Template/Istanbul10/logic/Vote.sol\":2714:2721  veToken */\n      0x03\n      0x00\n      swap1\n      sload\n      swap1\n      0x0100\n      exp\n      swap1\n      div\n      0xffffffffffffffffffffffffffffffffffffffff\n      and\n        /* \"contracts/Template/Istanbul10/logic/Vote.sol\":2714:2731  veToken.balanceOf */\n      0xffffffffffffffffffffffffffffffffffffffff\n      and\n      0x70a08231\n        /* \"contracts/Template/Istanbul10/logic/Vote.sol\":2732:2742  msg.sender */\n      caller\n        /* \"contracts/Template/Istanbul10/logic/Vote.sol\":2714:2743  veToken.balanceOf(msg.sender) */\n      mload(0x40)\n      dup3\n      0xffffffff\n      and\n      0xe0\n      shl\n      dup2\n      mstore\n      0x04\n      add\n      tag_230\n      swap2\n      swap1\n      tag_49\n      jump\t// in\n    tag_230:\n      0x20\n      mload(0x40)\n      dup1\n      dup4\n      sub\n      dup2\n      dup7\n      dup1\n      extcodesize\n      iszero\n      dup1\n      iszero\n      tag_231\n      jumpi\n      0x00\n      dup1\n      revert\n    tag_231:\n      pop\n      gas\n      staticcall\n      iszero\n      dup1\n      iszero\n      tag_233\n      jumpi\n      returndatasize\n      0x00\n      dup1\n      returndatacopy\n      revert(0x00, returndatasize)\n    tag_233:\n      pop\n      pop\n      pop\n      pop\n      mload(0x40)\n      returndatasize\n      not(0x1f)\n      0x1f\n      dup3\n      add\n      and\n      dup3\n      add\n      dup1\n      0x40\n      mstore\n      pop\n      dup2\n      add\n      swap1\n      tag_234\n      swap2\n      swap1\n      tag_150\n      jump\t// in\n    tag_234:\n        /* \"contracts/Template/Istanbul10/logic/Vote.sol\":2696:2701  _vote */\n      dup2\n        /* \"contracts/Template/Istanbul10/logic/Vote.sol\":2696:2710  _vote.supPopel */\n      0x06\n      add\n      0x00\n        /* \"contracts/Template/Istanbul10/logic/Vote.sol\":2696:2743  _vote.supPopel += veToken.balanceOf(msg.sender) */\n      dup3\n      dup3\n      sload\n      tag_235\n      swap2\n      swap1\n      tag_165\n      jump\t// in\n    tag_235:\n      swap3\n      pop\n      pop\n      dup2\n      swap1\n      sstore\n      pop\n        /* \"contracts/Template/Istanbul10/logic/Vote.sol\":2339:2837  if(result_){\r... */\n      jump(tag_236)\n    tag_216:\n        /* \"contracts/Template/Istanbul10/logic/Vote.sol\":2796:2803  veToken */\n      0x03\n      0x00\n      swap1\n      sload\n      swap1\n      0x0100\n      exp\n      swap1\n      div\n      0xffffffffffffffffffffffffffffffffffffffff\n      and\n        /* \"contracts/Template/Istanbul10/logic/Vote.sol\":2796:2813  veToken.balanceOf */\n      0xffffffffffffffffffffffffffffffffffffffff\n      and\n      0x70a08231\n        /* \"contracts/Template/Istanbul10/logic/Vote.sol\":2814:2824  msg.sender */\n      caller\n        /* \"contracts/Template/Istanbul10/logic/Vote.sol\":2796:2825  veToken.balanceOf(msg.sender) */\n      mload(0x40)\n      dup3\n      0xffffffff\n      and\n      0xe0\n      shl\n      dup2\n      mstore\n      0x04\n      add\n      tag_237\n      swap2\n      swap1\n      tag_49\n      jump\t// in\n    tag_237:\n      0x20\n      mload(0x40)\n      dup1\n      dup4\n      sub\n      dup2\n      dup7\n      dup1\n      extcodesize\n      iszero\n      dup1\n      iszero\n      tag_238\n      jumpi\n      0x00\n      dup1\n      revert\n    tag_238:\n      pop\n      gas\n      staticcall\n      iszero\n      dup1\n      iszero\n      tag_240\n      jumpi\n      returndatasize\n      0x00\n      dup1\n      returndatacopy\n      revert(0x00, returndatasize)\n    tag_240:\n      pop\n      pop\n      pop\n      pop\n      mload(0x40)\n      returndatasize\n      not(0x1f)\n      0x1f\n      dup3\n      add\n      and\n      dup3\n      add\n      dup1\n      0x40\n      mstore\n      pop\n      dup2\n      add\n      swap1\n      tag_241\n      swap2\n      swap1\n      tag_150\n      jump\t// in\n    tag_241:\n        /* \"contracts/Template/Istanbul10/logic/Vote.sol\":2774:2779  _vote */\n      dup2\n        /* \"contracts/Template/Istanbul10/logic/Vote.sol\":2774:2792  _vote.againstPopel */\n      0x07\n      add\n      0x00\n        /* \"contracts/Template/Istanbul10/logic/Vote.sol\":2774:2825  _vote.againstPopel += veToken.balanceOf(msg.sender) */\n      dup3\n      dup3\n      sload\n      tag_242\n      swap2\n      swap1\n      tag_165\n      jump\t// in\n    tag_242:\n      swap3\n      pop\n      pop\n      dup2\n      swap1\n      sstore\n      pop\n        /* \"contracts/Template/Istanbul10/logic/Vote.sol\":2339:2837  if(result_){\r... */\n    tag_236:\n        /* \"contracts/Template/Istanbul10/logic/Vote.sol\":2006:3648  if(_vote.status == VoteStatus.isvoting){\r... */\n      jump(tag_243)\n    tag_201:\n        /* \"contracts/Template/Istanbul10/logic/Vote.sol\":2896:2919  VoteStatus.secondBallot */\n      0x05\n        /* \"contracts/Template/Istanbul10/logic/Vote.sol\":2880:2919  _vote.status == VoteStatus.secondBallot */\n      0x06\n      dup2\n      gt\n      iszero\n      tag_244\n      jumpi\n      mstore(0x00, 0x4e487b7100000000000000000000000000000000000000000000000000000000)\n      mstore(0x04, 0x21)\n      revert(0x00, 0x24)\n    tag_244:\n        /* \"contracts/Template/Istanbul10/logic/Vote.sol\":2880:2885  _vote */\n      dup2\n        /* \"contracts/Template/Istanbul10/logic/Vote.sol\":2880:2892  _vote.status */\n      0x08\n      add\n      0x00\n      swap1\n      sload\n      swap1\n      0x0100\n      exp\n      swap1\n      div\n      0xff\n      and\n        /* \"contracts/Template/Istanbul10/logic/Vote.sol\":2880:2919  _vote.status == VoteStatus.secondBallot */\n      0x06\n      dup2\n      gt\n      iszero\n      tag_245\n      jumpi\n      mstore(0x00, 0x4e487b7100000000000000000000000000000000000000000000000000000000)\n      mstore(0x04, 0x21)\n      revert(0x00, 0x24)\n    tag_245:\n      eq\n        /* \"contracts/Template/Istanbul10/logic/Vote.sol\":2877:3648  if(_vote.status == VoteStatus.secondBallot) {\r... */\n      iszero\n      tag_246\n      jumpi\n        /* \"contracts/Template/Istanbul10/logic/Vote.sol\":2945:2950  _vote */\n      dup1\n        /* \"contracts/Template/Istanbul10/logic/Vote.sol\":2945:2956  _vote.svote */\n      0x0c\n      add\n        /* \"contracts/Template/Istanbul10/logic/Vote.sol\":2945:2969  _vote.svote.VoterAddress */\n      0x04\n      add\n        /* \"contracts/Template/Istanbul10/logic/Vote.sol\":2945:2981  _vote.svote.VoterAddress[msg.sender] */\n      0x00\n        /* \"contracts/Template/Istanbul10/logic/Vote.sol\":2970:2980  msg.sender */\n      caller\n        /* \"contracts/Template/Istanbul10/logic/Vote.sol\":2945:2981  _vote.svote.VoterAddress[msg.sender] */\n      0xffffffffffffffffffffffffffffffffffffffff\n      and\n      0xffffffffffffffffffffffffffffffffffffffff\n      and\n      dup2\n      mstore\n      0x20\n      add\n      swap1\n      dup2\n      mstore\n      0x20\n      add\n      0x00\n      keccak256\n        /* \"contracts/Template/Istanbul10/logic/Vote.sol\":2945:2987  _vote.svote.VoterAddress[msg.sender].voted */\n      0x00\n      add\n      0x00\n      swap1\n      sload\n      swap1\n      0x0100\n      exp\n      swap1\n      div\n      0xff\n      and\n        /* \"contracts/Template/Istanbul10/logic/Vote.sol\":2944:2987  !_vote.svote.VoterAddress[msg.sender].voted */\n      iszero\n        /* \"contracts/Template/Istanbul10/logic/Vote.sol\":2936:3002  require(!_vote.svote.VoterAddress[msg.sender].voted,\"Vote before\") */\n      tag_247\n      jumpi\n      mload(0x40)\n      0x08c379a000000000000000000000000000000000000000000000000000000000\n      dup2\n      mstore\n      0x04\n      add\n      tag_248\n      swap1\n      tag_204\n      jump\t// in\n    tag_248:\n      mload(0x40)\n      dup1\n      swap2\n      sub\n      swap1\n      revert\n    tag_247:\n        /* \"contracts/Template/Istanbul10/logic/Vote.sol\":3043:3048  _vote */\n      dup1\n        /* \"contracts/Template/Istanbul10/logic/Vote.sol\":3043:3053  _vote.time */\n      0x02\n      add\n      sload\n        /* \"contracts/Template/Istanbul10/logic/Vote.sol\":3025:3040  block.timestamp */\n      timestamp\n        /* \"contracts/Template/Istanbul10/logic/Vote.sol\":3025:3053  block.timestamp < _vote.time */\n      lt\n        /* \"contracts/Template/Istanbul10/logic/Vote.sol\":3017:3085  require(block.timestamp < _vote.time,\"Not within the allotted time\") */\n      tag_249\n      jumpi\n      mload(0x40)\n      0x08c379a000000000000000000000000000000000000000000000000000000000\n      dup2\n      mstore\n      0x04\n      add\n      tag_250\n      swap1\n      tag_215\n      jump\t// in\n    tag_250:\n      mload(0x40)\n      dup1\n      swap2\n      sub\n      swap1\n      revert\n    tag_249:\n        /* \"contracts/Template/Istanbul10/logic/Vote.sol\":3145:3149  true */\n      0x01\n        /* \"contracts/Template/Istanbul10/logic/Vote.sol\":3100:3105  _vote */\n      dup2\n        /* \"contracts/Template/Istanbul10/logic/Vote.sol\":3100:3111  _vote.svote */\n      0x0c\n      add\n        /* \"contracts/Template/Istanbul10/logic/Vote.sol\":3100:3124  _vote.svote.VoterAddress */\n      0x04\n      add\n        /* \"contracts/Template/Istanbul10/logic/Vote.sol\":3100:3136  _vote.svote.VoterAddress[msg.sender] */\n      0x00\n        /* \"contracts/Template/Istanbul10/logic/Vote.sol\":3125:3135  msg.sender */\n      caller\n        /* \"contracts/Template/Istanbul10/logic/Vote.sol\":3100:3136  _vote.svote.VoterAddress[msg.sender] */\n      0xffffffffffffffffffffffffffffffffffffffff\n      and\n      0xffffffffffffffffffffffffffffffffffffffff\n      and\n      dup2\n      mstore\n      0x20\n      add\n      swap1\n      dup2\n      mstore\n      0x20\n      add\n      0x00\n      keccak256\n        /* \"contracts/Template/Istanbul10/logic/Vote.sol\":3100:3142  _vote.svote.VoterAddress[msg.sender].voted */\n      0x00\n      add\n      0x00\n        /* \"contracts/Template/Istanbul10/logic/Vote.sol\":3100:3149  _vote.svote.VoterAddress[msg.sender].voted = true */\n      0x0100\n      exp\n      dup2\n      sload\n      dup2\n      0xff\n      mul\n      not\n      and\n      swap1\n      dup4\n      iszero\n      iszero\n      mul\n      or\n      swap1\n      sstore\n      pop\n        /* \"contracts/Template/Istanbul10/logic/Vote.sol\":3215:3216  0 */\n      0x00\n        /* \"contracts/Template/Istanbul10/logic/Vote.sol\":3167:3172  _vote */\n      dup2\n        /* \"contracts/Template/Istanbul10/logic/Vote.sol\":3167:3185  _vote.VoterAddress */\n      0x0b\n      add\n        /* \"contracts/Template/Istanbul10/logic/Vote.sol\":3167:3197  _vote.VoterAddress[msg.sender] */\n      0x00\n        /* \"contracts/Template/Istanbul10/logic/Vote.sol\":3186:3196  msg.sender */\n      caller\n        /* \"contracts/Template/Istanbul10/logic/Vote.sol\":3167:3197  _vote.VoterAddress[msg.sender] */\n      0xffffffffffffffffffffffffffffffffffffffff\n      and\n      0xffffffffffffffffffffffffffffffffffffffff\n      and\n      dup2\n      mstore\n      0x20\n      add\n      swap1\n      dup2\n      mstore\n      0x20\n      add\n      0x00\n      keccak256\n        /* \"contracts/Template/Istanbul10/logic/Vote.sol\":3167:3204  _vote.VoterAddress[msg.sender].bailor */\n      0x01\n      add\n        /* \"contracts/Template/Istanbul10/logic/Vote.sol\":3167:3211  _vote.VoterAddress[msg.sender].bailor.length */\n      dup1\n      sload\n      swap1\n      pop\n        /* \"contracts/Template/Istanbul10/logic/Vote.sol\":3167:3216  _vote.VoterAddress[msg.sender].bailor.length != 0 */\n      eq\n        /* \"contracts/Template/Istanbul10/logic/Vote.sol\":3164:3483  if(_vote.VoterAddress[msg.sender].bailor.length != 0){\r... */\n      tag_251\n      jumpi\n        /* \"contracts/Template/Istanbul10/logic/Vote.sol\":3240:3247  uint  i */\n      0x00\n        /* \"contracts/Template/Istanbul10/logic/Vote.sol\":3236:3468  for(uint  i = 0; i <  _vote.VoterAddress[msg.sender].bailor.length; ++i){\r... */\n    tag_252:\n        /* \"contracts/Template/Istanbul10/logic/Vote.sol\":3258:3263  _vote */\n      dup2\n        /* \"contracts/Template/Istanbul10/logic/Vote.sol\":3258:3276  _vote.VoterAddress */\n      0x0b\n      add\n        /* \"contracts/Template/Istanbul10/logic/Vote.sol\":3258:3288  _vote.VoterAddress[msg.sender] */\n      0x00\n        /* \"contracts/Template/Istanbul10/logic/Vote.sol\":3277:3287  msg.sender */\n      caller\n        /* \"contracts/Template/Istanbul10/logic/Vote.sol\":3258:3288  _vote.VoterAddress[msg.sender] */\n      0xffffffffffffffffffffffffffffffffffffffff\n      and\n      0xffffffffffffffffffffffffffffffffffffffff\n      and\n      dup2\n      mstore\n      0x20\n      add\n      swap1\n      dup2\n      mstore\n      0x20\n      add\n      0x00\n      keccak256\n        /* \"contracts/Template/Istanbul10/logic/Vote.sol\":3258:3295  _vote.VoterAddress[msg.sender].bailor */\n      0x01\n      add\n        /* \"contracts/Template/Istanbul10/logic/Vote.sol\":3258:3302  _vote.VoterAddress[msg.sender].bailor.length */\n      dup1\n      sload\n      swap1\n      pop\n        /* \"contracts/Template/Istanbul10/logic/Vote.sol\":3253:3254  i */\n      dup2\n        /* \"contracts/Template/Istanbul10/logic/Vote.sol\":3253:3302  i <  _vote.VoterAddress[msg.sender].bailor.length */\n      lt\n        /* \"contracts/Template/Istanbul10/logic/Vote.sol\":3236:3468  for(uint  i = 0; i <  _vote.VoterAddress[msg.sender].bailor.length; ++i){\r... */\n      iszero\n      tag_253\n      jumpi\n        /* \"contracts/Template/Istanbul10/logic/Vote.sol\":3331:3346  address deleAdd */\n      0x00\n        /* \"contracts/Template/Istanbul10/logic/Vote.sol\":3349:3354  _vote */\n      dup3\n        /* \"contracts/Template/Istanbul10/logic/Vote.sol\":3349:3367  _vote.VoterAddress */\n      0x0b\n      add\n        /* \"contracts/Template/Istanbul10/logic/Vote.sol\":3349:3379  _vote.VoterAddress[msg.sender] */\n      0x00\n        /* \"contracts/Template/Istanbul10/logic/Vote.sol\":3368:3378  msg.sender */\n      caller\n        /* \"contracts/Template/Istanbul10/logic/Vote.sol\":3349:3379  _vote.VoterAddress[msg.sender] */\n      0xffffffffffffffffffffffffffffffffffffffff\n      and\n      0xffffffffffffffffffffffffffffffffffffffff\n      and\n      dup2\n      mstore\n      0x20\n      add\n      swap1\n      dup2\n      mstore\n      0x20\n      add\n      0x00\n      keccak256\n        /* \"contracts/Template/Istanbul10/logic/Vote.sol\":3349:3386  _vote.VoterAddress[msg.sender].bailor */\n      0x01\n      add\n        /* \"contracts/Template/Istanbul10/logic/Vote.sol\":3387:3388  i */\n      dup3\n        /* \"contracts/Template/Istanbul10/logic/Vote.sol\":3349:3389  _vote.VoterAddress[msg.sender].bailor[i] */\n      dup2\n      sload\n      dup2\n      lt\n      tag_255\n      jumpi\n      mstore(0x00, 0x4e487b7100000000000000000000000000000000000000000000000000000000)\n      mstore(0x04, 0x32)\n      revert(0x00, 0x24)\n    tag_255:\n      swap1\n      0x00\n      mstore\n      keccak256(0x00, 0x20)\n      add\n      0x00\n      swap1\n      sload\n      swap1\n      0x0100\n      exp\n      swap1\n      div\n      0xffffffffffffffffffffffffffffffffffffffff\n      and\n        /* \"contracts/Template/Istanbul10/logic/Vote.sol\":3331:3389  address deleAdd = _vote.VoterAddress[msg.sender].bailor[i] */\n      swap1\n      pop\n        /* \"contracts/Template/Istanbul10/logic/Vote.sol\":3422:3429  veToken */\n      0x03\n      0x00\n      swap1\n      sload\n      swap1\n      0x0100\n      exp\n      swap1\n      div\n      0xffffffffffffffffffffffffffffffffffffffff\n      and\n        /* \"contracts/Template/Istanbul10/logic/Vote.sol\":3422:3439  veToken.balanceOf */\n      0xffffffffffffffffffffffffffffffffffffffff\n      and\n      0x70a08231\n        /* \"contracts/Template/Istanbul10/logic/Vote.sol\":3440:3447  deleAdd */\n      dup3\n        /* \"contracts/Template/Istanbul10/logic/Vote.sol\":3422:3448  veToken.balanceOf(deleAdd) */\n      mload(0x40)\n      dup3\n      0xffffffff\n      and\n      0xe0\n      shl\n      dup2\n      mstore\n      0x04\n      add\n      tag_257\n      swap2\n      swap1\n      tag_49\n      jump\t// in\n    tag_257:\n      0x20\n      mload(0x40)\n      dup1\n      dup4\n      sub\n      dup2\n      dup7\n      dup1\n      extcodesize\n      iszero\n      dup1\n      iszero\n      tag_258\n      jumpi\n      0x00\n      dup1\n      revert\n    tag_258:\n      pop\n      gas\n      staticcall\n      iszero\n      dup1\n      iszero\n      tag_260\n      jumpi\n      returndatasize\n      0x00\n      dup1\n      returndatacopy\n      revert(0x00, returndatasize)\n    tag_260:\n      pop\n      pop\n      pop\n      pop\n      mload(0x40)\n      returndatasize\n      not(0x1f)\n      0x1f\n      dup3\n      add\n      and\n      dup3\n      add\n      dup1\n      0x40\n      mstore\n      pop\n      dup2\n      add\n      swap1\n      tag_261\n      swap2\n      swap1\n      tag_150\n      jump\t// in\n    tag_261:\n        /* \"contracts/Template/Istanbul10/logic/Vote.sol\":3412:3448  weight += veToken.balanceOf(deleAdd) */\n      dup5\n      tag_262\n      swap2\n      swap1\n      tag_165\n      jump\t// in\n    tag_262:\n      swap4\n      pop\n        /* \"contracts/Template/Istanbul10/logic/Vote.sol\":3236:3468  for(uint  i = 0; i <  _vote.VoterAddress[msg.sender].bailor.length; ++i){\r... */\n      pop\n        /* \"contracts/Template/Istanbul10/logic/Vote.sol\":3304:3307  ++i */\n      dup1\n      tag_263\n      swap1\n      tag_136\n      jump\t// in\n    tag_263:\n      swap1\n      pop\n        /* \"contracts/Template/Istanbul10/logic/Vote.sol\":3236:3468  for(uint  i = 0; i <  _vote.VoterAddress[msg.sender].bailor.length; ++i){\r... */\n      jump(tag_252)\n    tag_253:\n      pop\n        /* \"contracts/Template/Istanbul10/logic/Vote.sol\":3164:3483  if(_vote.VoterAddress[msg.sender].bailor.length != 0){\r... */\n    tag_251:\n        /* \"contracts/Template/Istanbul10/logic/Vote.sol\":3519:3526  veToken */\n      0x03\n      0x00\n      swap1\n      sload\n      swap1\n      0x0100\n      exp\n      swap1\n      div\n      0xffffffffffffffffffffffffffffffffffffffff\n      and\n        /* \"contracts/Template/Istanbul10/logic/Vote.sol\":3519:3536  veToken.balanceOf */\n      0xffffffffffffffffffffffffffffffffffffffff\n      and\n      0x70a08231\n        /* \"contracts/Template/Istanbul10/logic/Vote.sol\":3537:3547  msg.sender */\n      caller\n        /* \"contracts/Template/Istanbul10/logic/Vote.sol\":3519:3548  veToken.balanceOf(msg.sender) */\n      mload(0x40)\n      dup3\n      0xffffffff\n      and\n      0xe0\n      shl\n      dup2\n      mstore\n      0x04\n      add\n      tag_264\n      swap2\n      swap1\n      tag_49\n      jump\t// in\n    tag_264:\n      0x20\n      mload(0x40)\n      dup1\n      dup4\n      sub\n      dup2\n      dup7\n      dup1\n      extcodesize\n      iszero\n      dup1\n      iszero\n      tag_265\n      jumpi\n      0x00\n      dup1\n      revert\n    tag_265:\n      pop\n      gas\n      staticcall\n      iszero\n      dup1\n      iszero\n      tag_267\n      jumpi\n      returndatasize\n      0x00\n      dup1\n      returndatacopy\n      revert(0x00, returndatasize)\n    tag_267:\n      pop\n      pop\n      pop\n      pop\n      mload(0x40)\n      returndatasize\n      not(0x1f)\n      0x1f\n      dup3\n      add\n      and\n      dup3\n      add\n      dup1\n      0x40\n      mstore\n      pop\n      dup2\n      add\n      swap1\n      tag_268\n      swap2\n      swap1\n      tag_150\n      jump\t// in\n    tag_268:\n        /* \"contracts/Template/Istanbul10/logic/Vote.sol\":3495:3500  _vote */\n      dup2\n        /* \"contracts/Template/Istanbul10/logic/Vote.sol\":3495:3506  _vote.svote */\n      0x0c\n      add\n        /* \"contracts/Template/Istanbul10/logic/Vote.sol\":3495:3515  _vote.svote.supPopel */\n      0x02\n      add\n      0x00\n        /* \"contracts/Template/Istanbul10/logic/Vote.sol\":3495:3548  _vote.svote.supPopel += veToken.balanceOf(msg.sender) */\n      dup3\n      dup3\n      sload\n      tag_269\n      swap2\n      swap1\n      tag_165\n      jump\t// in\n    tag_269:\n      swap3\n      pop\n      pop\n      dup2\n      swap1\n      sstore\n      pop\n        /* \"contracts/Template/Istanbul10/logic/Vote.sol\":2877:3648  if(_vote.status == VoteStatus.secondBallot) {\r... */\n      jump(tag_270)\n    tag_246:\n        /* \"contracts/Template/Istanbul10/logic/Vote.sol\":3607:3614  veToken */\n      0x03\n      0x00\n      swap1\n      sload\n      swap1\n      0x0100\n      exp\n      swap1\n      div\n      0xffffffffffffffffffffffffffffffffffffffff\n      and\n        /* \"contracts/Template/Istanbul10/logic/Vote.sol\":3607:3624  veToken.balanceOf */\n      0xffffffffffffffffffffffffffffffffffffffff\n      and\n      0x70a08231\n        /* \"contracts/Template/Istanbul10/logic/Vote.sol\":3625:3635  msg.sender */\n      caller\n        /* \"contracts/Template/Istanbul10/logic/Vote.sol\":3607:3636  veToken.balanceOf(msg.sender) */\n      mload(0x40)\n      dup3\n      0xffffffff\n      and\n      0xe0\n      shl\n      dup2\n      mstore\n      0x04\n      add\n      tag_271\n      swap2\n      swap1\n      tag_49\n      jump\t// in\n    tag_271:\n      0x20\n      mload(0x40)\n      dup1\n      dup4\n      sub\n      dup2\n      dup7\n      dup1\n      extcodesize\n      iszero\n      dup1\n      iszero\n      tag_272\n      jumpi\n      0x00\n      dup1\n      revert\n    tag_272:\n      pop\n      gas\n      staticcall\n      iszero\n      dup1\n      iszero\n      tag_274\n      jumpi\n      returndatasize\n      0x00\n      dup1\n      returndatacopy\n      revert(0x00, returndatasize)\n    tag_274:\n      pop\n      pop\n      pop\n      pop\n      mload(0x40)\n      returndatasize\n      not(0x1f)\n      0x1f\n      dup3\n      add\n      and\n      dup3\n      add\n      dup1\n      0x40\n      mstore\n      pop\n      dup2\n      add\n      swap1\n      tag_275\n      swap2\n      swap1\n      tag_150\n      jump\t// in\n    tag_275:\n        /* \"contracts/Template/Istanbul10/logic/Vote.sol\":3579:3584  _vote */\n      dup2\n        /* \"contracts/Template/Istanbul10/logic/Vote.sol\":3579:3590  _vote.svote */\n      0x0c\n      add\n        /* \"contracts/Template/Istanbul10/logic/Vote.sol\":3579:3603  _vote.svote.againstPopel */\n      0x03\n      add\n      0x00\n        /* \"contracts/Template/Istanbul10/logic/Vote.sol\":3579:3636  _vote.svote.againstPopel += veToken.balanceOf(msg.sender) */\n      dup3\n      dup3\n      sload\n      tag_276\n      swap2\n      swap1\n      tag_165\n      jump\t// in\n    tag_276:\n      swap3\n      pop\n      pop\n      dup2\n      swap1\n      sstore\n      pop\n        /* \"contracts/Template/Istanbul10/logic/Vote.sol\":2877:3648  if(_vote.status == VoteStatus.secondBallot) {\r... */\n    tag_270:\n        /* \"contracts/Template/Istanbul10/logic/Vote.sol\":2006:3648  if(_vote.status == VoteStatus.isvoting){\r... */\n    tag_243:\n        /* \"contracts/Template/Istanbul10/logic/Vote.sol\":3675:3682  voteId_ */\n      dup4\n        /* \"contracts/Template/Istanbul10/logic/Vote.sol\":3663:3691  ToVoteEvent(voteId_,result_) */\n      0x72869afc3552df414602b428f5e96b4eb3fab540271192c4f31eb3adaf5faf1e\n        /* \"contracts/Template/Istanbul10/logic/Vote.sol\":3683:3690  result_ */\n      dup5\n        /* \"contracts/Template/Istanbul10/logic/Vote.sol\":3663:3691  ToVoteEvent(voteId_,result_) */\n      mload(0x40)\n      tag_277\n      swap2\n      swap1\n      tag_37\n      jump\t// in\n    tag_277:\n      mload(0x40)\n      dup1\n      swap2\n      sub\n      swap1\n      log2\n        /* \"contracts/Template/Istanbul10/logic/Vote.sol\":1751:3699  function toVote(uint256 voteId_,bool result_) external override {\r... */\n      pop\n      pop\n      pop\n      pop\n      jump\t// out\n        /* \"contracts/Template/Istanbul10/data/VoteData.sol\":365:402  uint256 public bufferTime = 1 minutes */\n    tag_76:\n      sload(0x01)\n      dup2\n      jump\t// out\n        /* \"contracts/Template/Istanbul10/logic/Vote.sol\":8811:9283  function winningProposal(uint256 voteId_) external override  view returns(uint256 forVote,\r... */\n    tag_80:\n        /* \"contracts/Template/Istanbul10/logic/Vote.sol\":8885:8900  uint256 forVote */\n      0x00\n        /* \"contracts/Template/Istanbul10/logic/Vote.sol\":8911:8930  uint256 againstVote */\n      dup1\n        /* \"contracts/Template/Istanbul10/logic/Vote.sol\":8941:8957  uint256 forVote2 */\n      0x00\n        /* \"contracts/Template/Istanbul10/logic/Vote.sol\":8968:8988  uint256 againstVote2 */\n      dup1\n        /* \"contracts/Template/Istanbul10/logic/Vote.sol\":8999:9011  uint256 time */\n      0x00\n        /* \"contracts/Template/Istanbul10/logic/Vote.sol\":9033:9057  VoteStruct storage _vote */\n      dup1\n        /* \"contracts/Template/Istanbul10/logic/Vote.sol\":9060:9068  voteMapp */\n      0x07\n        /* \"contracts/Template/Istanbul10/logic/Vote.sol\":9060:9077  voteMapp[voteId_] */\n      0x00\n        /* \"contracts/Template/Istanbul10/logic/Vote.sol\":9069:9076  voteId_ */\n      dup9\n        /* \"contracts/Template/Istanbul10/logic/Vote.sol\":9060:9077  voteMapp[voteId_] */\n      dup2\n      mstore\n      0x20\n      add\n      swap1\n      dup2\n      mstore\n      0x20\n      add\n      0x00\n      keccak256\n        /* \"contracts/Template/Istanbul10/logic/Vote.sol\":9033:9077  VoteStruct storage _vote = voteMapp[voteId_] */\n      swap1\n      pop\n        /* \"contracts/Template/Istanbul10/logic/Vote.sol\":9098:9103  _vote */\n      dup1\n        /* \"contracts/Template/Istanbul10/logic/Vote.sol\":9098:9112  _vote.supPopel */\n      0x06\n      add\n      sload\n        /* \"contracts/Template/Istanbul10/logic/Vote.sol\":9088:9112  forVote = _vote.supPopel */\n      swap6\n      pop\n        /* \"contracts/Template/Istanbul10/logic/Vote.sol\":9137:9142  _vote */\n      dup1\n        /* \"contracts/Template/Istanbul10/logic/Vote.sol\":9137:9155  _vote.againstPopel */\n      0x07\n      add\n      sload\n        /* \"contracts/Template/Istanbul10/logic/Vote.sol\":9123:9155  againstVote = _vote.againstPopel */\n      swap5\n      pop\n        /* \"contracts/Template/Istanbul10/logic/Vote.sol\":9177:9182  _vote */\n      dup1\n        /* \"contracts/Template/Istanbul10/logic/Vote.sol\":9177:9188  _vote.svote */\n      0x0c\n      add\n        /* \"contracts/Template/Istanbul10/logic/Vote.sol\":9177:9197  _vote.svote.supPopel */\n      0x02\n      add\n      sload\n        /* \"contracts/Template/Istanbul10/logic/Vote.sol\":9166:9197  forVote2 = _vote.svote.supPopel */\n      swap4\n      pop\n        /* \"contracts/Template/Istanbul10/logic/Vote.sol\":9223:9228  _vote */\n      dup1\n        /* \"contracts/Template/Istanbul10/logic/Vote.sol\":9223:9234  _vote.svote */\n      0x0c\n      add\n        /* \"contracts/Template/Istanbul10/logic/Vote.sol\":9223:9247  _vote.svote.againstPopel */\n      0x03\n      add\n      sload\n        /* \"contracts/Template/Istanbul10/logic/Vote.sol\":9208:9247  againstVote2 = _vote.svote.againstPopel */\n      swap3\n      pop\n        /* \"contracts/Template/Istanbul10/logic/Vote.sol\":9265:9270  _vote */\n      dup1\n        /* \"contracts/Template/Istanbul10/logic/Vote.sol\":9265:9275  _vote.time */\n      0x02\n      add\n      sload\n        /* \"contracts/Template/Istanbul10/logic/Vote.sol\":9258:9275  time = _vote.time */\n      swap2\n      pop\n        /* \"contracts/Template/Istanbul10/logic/Vote.sol\":8811:9283  function winningProposal(uint256 voteId_) external override  view returns(uint256 forVote,\r... */\n      pop\n      swap2\n      swap4\n      swap6\n      swap1\n      swap3\n      swap5\n      pop\n      jump\t// out\n        /* \"contracts/Template/Istanbul10/data/VoteData.sol\":280:316  uint256 public  voteTime = 1 minutes */\n    tag_84:\n      sload(0x00)\n      dup2\n      jump\t// out\n        /* \"contracts/Template/Istanbul10/logic/Vote.sol\":8204:8396  function getVoteStatuswithVoteId(uint256 voteId_) external view returns (uint256  status){\r... */\n    tag_88:\n        /* \"contracts/Template/Istanbul10/logic/Vote.sol\":8277:8292  uint256  status */\n      0x00\n        /* \"contracts/Template/Istanbul10/logic/Vote.sol\":8304:8329  VoteStruct storage  _vote */\n      dup1\n        /* \"contracts/Template/Istanbul10/logic/Vote.sol\":8332:8340  voteMapp */\n      0x07\n        /* \"contracts/Template/Istanbul10/logic/Vote.sol\":8332:8349  voteMapp[voteId_] */\n      0x00\n        /* \"contracts/Template/Istanbul10/logic/Vote.sol\":8341:8348  voteId_ */\n      dup5\n        /* \"contracts/Template/Istanbul10/logic/Vote.sol\":8332:8349  voteMapp[voteId_] */\n      dup2\n      mstore\n      0x20\n      add\n      swap1\n      dup2\n      mstore\n      0x20\n      add\n      0x00\n      keccak256\n        /* \"contracts/Template/Istanbul10/logic/Vote.sol\":8304:8349  VoteStruct storage  _vote = voteMapp[voteId_] */\n      swap1\n      pop\n        /* \"contracts/Template/Istanbul10/logic/Vote.sol\":8375:8380  _vote */\n      dup1\n        /* \"contracts/Template/Istanbul10/logic/Vote.sol\":8375:8387  _vote.status */\n      0x08\n      add\n      0x00\n      swap1\n      sload\n      swap1\n      0x0100\n      exp\n      swap1\n      div\n      0xff\n      and\n        /* \"contracts/Template/Istanbul10/logic/Vote.sol\":8367:8388  uint256(_vote.status) */\n      0x06\n      dup2\n      gt\n      iszero\n      tag_280\n      jumpi\n      mstore(0x00, 0x4e487b7100000000000000000000000000000000000000000000000000000000)\n      mstore(0x04, 0x21)\n      revert(0x00, 0x24)\n    tag_280:\n        /* \"contracts/Template/Istanbul10/logic/Vote.sol\":8360:8388  return uint256(_vote.status) */\n      swap2\n      pop\n      pop\n        /* \"contracts/Template/Istanbul10/logic/Vote.sol\":8204:8396  function getVoteStatuswithVoteId(uint256 voteId_) external view returns (uint256  status){\r... */\n      swap2\n      swap1\n      pop\n      jump\t// out\n        /* \"contracts/Template/Istanbul10/logic/Vote.sol\":7629:8196  function setGovernanceTemplate(string memory topic_,address targetAddress_,string memory  functionName_) external override  {\r... */\n    tag_93:\n        /* \"contracts/Template/Istanbul10/logic/Vote.sol\":7772:7787  onlyWhiteList() */\n      tag_282\n        /* \"contracts/Template/Istanbul10/logic/Vote.sol\":7772:7785  onlyWhiteList */\n      tag_283\n        /* \"contracts/Template/Istanbul10/logic/Vote.sol\":7772:7787  onlyWhiteList() */\n      jump\t// in\n    tag_282:\n        /* \"contracts/Template/Istanbul10/logic/Vote.sol\":7764:7823  require(onlyWhiteList(),\"whiteList :: Address check error\") */\n      tag_284\n      jumpi\n      mload(0x40)\n      0x08c379a000000000000000000000000000000000000000000000000000000000\n      dup2\n      mstore\n      0x04\n      add\n      tag_285\n      swap1\n      tag_286\n      jump\t// in\n    tag_285:\n      mload(0x40)\n      dup1\n      swap2\n      sub\n      swap1\n      revert\n    tag_284:\n        /* \"contracts/Template/Istanbul10/logic/Vote.sol\":7834:7871  GgovernanceTemplate storage _Template */\n      0x00\n        /* \"contracts/Template/Istanbul10/logic/Vote.sol\":7874:7882  template */\n      0x08\n        /* \"contracts/Template/Istanbul10/logic/Vote.sol\":7874:7897  template[templateTotal] */\n      0x00\n        /* \"contracts/Template/Istanbul10/logic/Vote.sol\":7883:7896  templateTotal */\n      sload(0x06)\n        /* \"contracts/Template/Istanbul10/logic/Vote.sol\":7874:7897  template[templateTotal] */\n      dup2\n      mstore\n      0x20\n      add\n      swap1\n      dup2\n      mstore\n      0x20\n      add\n      0x00\n      keccak256\n        /* \"contracts/Template/Istanbul10/logic/Vote.sol\":7834:7897  GgovernanceTemplate storage _Template = template[templateTotal] */\n      swap1\n      pop\n        /* \"contracts/Template/Istanbul10/logic/Vote.sol\":7932:7945  templateTotal */\n      sload(0x06)\n        /* \"contracts/Template/Istanbul10/logic/Vote.sol\":7909:7918  _Template */\n      dup2\n        /* \"contracts/Template/Istanbul10/logic/Vote.sol\":7909:7929  _Template.templateId */\n      0x00\n      add\n        /* \"contracts/Template/Istanbul10/logic/Vote.sol\":7909:7945  _Template.templateId = templateTotal */\n      dup2\n      swap1\n      sstore\n      pop\n        /* \"contracts/Template/Istanbul10/logic/Vote.sol\":7982:7996  targetAddress_ */\n      dup3\n        /* \"contracts/Template/Istanbul10/logic/Vote.sol\":7956:7965  _Template */\n      dup2\n        /* \"contracts/Template/Istanbul10/logic/Vote.sol\":7956:7979  _Template.targetAddress */\n      0x02\n      add\n      0x00\n        /* \"contracts/Template/Istanbul10/logic/Vote.sol\":7956:7996  _Template.targetAddress = targetAddress_ */\n      0x0100\n      exp\n      dup2\n      sload\n      dup2\n      0xffffffffffffffffffffffffffffffffffffffff\n      mul\n      not\n      and\n      swap1\n      dup4\n      0xffffffffffffffffffffffffffffffffffffffff\n      and\n      mul\n      or\n      swap1\n      sstore\n      pop\n        /* \"contracts/Template/Istanbul10/logic/Vote.sol\":8032:8045  functionName_ */\n      dup2\n        /* \"contracts/Template/Istanbul10/logic/Vote.sol\":8007:8016  _Template */\n      dup2\n        /* \"contracts/Template/Istanbul10/logic/Vote.sol\":8007:8029  _Template.functionName */\n      0x03\n      add\n        /* \"contracts/Template/Istanbul10/logic/Vote.sol\":8007:8045  _Template.functionName = functionName_ */\n      swap1\n      dup1\n      mload\n      swap1\n      0x20\n      add\n      swap1\n      tag_287\n      swap3\n      swap2\n      swap1\n      tag_176\n      jump\t// in\n    tag_287:\n      pop\n        /* \"contracts/Template/Istanbul10/logic/Vote.sol\":8075:8081  topic_ */\n      dup4\n        /* \"contracts/Template/Istanbul10/logic/Vote.sol\":8056:8065  _Template */\n      dup2\n        /* \"contracts/Template/Istanbul10/logic/Vote.sol\":8056:8072  _Template.toppic */\n      0x01\n      add\n        /* \"contracts/Template/Istanbul10/logic/Vote.sol\":8056:8081  _Template.toppic = topic_ */\n      swap1\n      dup1\n      mload\n      swap1\n      0x20\n      add\n      swap1\n      tag_288\n      swap3\n      swap2\n      swap1\n      tag_176\n      jump\t// in\n    tag_288:\n      pop\n        /* \"contracts/Template/Istanbul10/logic/Vote.sol\":8092:8105  templateTotal */\n      0x06\n      0x00\n        /* \"contracts/Template/Istanbul10/logic/Vote.sol\":8092:8108  templateTotal ++ */\n      dup2\n      sload\n      dup1\n      swap3\n      swap2\n      swap1\n      tag_289\n      swap1\n      tag_136\n      jump\t// in\n    tag_289:\n      swap2\n      swap1\n      pop\n      sstore\n      pop\n        /* \"contracts/Template/Istanbul10/logic/Vote.sol\":8126:8189  SetGovernanceTemplateEvent(topic_,targetAddress_,functionName_) */\n      0x291fb4c9ec38b653e778aad63d42ce4710da5b91c49a033ba04963dd409300eb\n        /* \"contracts/Template/Istanbul10/logic/Vote.sol\":8153:8159  topic_ */\n      dup5\n        /* \"contracts/Template/Istanbul10/logic/Vote.sol\":8160:8174  targetAddress_ */\n      dup5\n        /* \"contracts/Template/Istanbul10/logic/Vote.sol\":8175:8188  functionName_ */\n      dup5\n        /* \"contracts/Template/Istanbul10/logic/Vote.sol\":8126:8189  SetGovernanceTemplateEvent(topic_,targetAddress_,functionName_) */\n      mload(0x40)\n      tag_290\n      swap4\n      swap3\n      swap2\n      swap1\n      tag_291\n      jump\t// in\n    tag_290:\n      mload(0x40)\n      dup1\n      swap2\n      sub\n      swap1\n      log1\n        /* \"contracts/Template/Istanbul10/logic/Vote.sol\":7629:8196  function setGovernanceTemplate(string memory topic_,address targetAddress_,string memory  functionName_) external override  {\r... */\n      pop\n      pop\n      pop\n      pop\n      jump\t// out\n        /* \"contracts/Template/Istanbul10/logic/Vote.sol\":9407:9627  function getTest(uint256 voteId_) public  view returns (uint256 time , uint256 voteTime){\r... */\n    tag_96:\n        /* \"contracts/Template/Istanbul10/logic/Vote.sol\":9463:9475  uint256 time */\n      0x00\n        /* \"contracts/Template/Istanbul10/logic/Vote.sol\":9478:9494  uint256 voteTime */\n      dup1\n        /* \"contracts/Template/Istanbul10/logic/Vote.sol\":9506:9530  VoteStruct storage _vote */\n      0x00\n        /* \"contracts/Template/Istanbul10/logic/Vote.sol\":9533:9541  voteMapp */\n      0x07\n        /* \"contracts/Template/Istanbul10/logic/Vote.sol\":9533:9550  voteMapp[voteId_] */\n      0x00\n        /* \"contracts/Template/Istanbul10/logic/Vote.sol\":9542:9549  voteId_ */\n      dup6\n        /* \"contracts/Template/Istanbul10/logic/Vote.sol\":9533:9550  voteMapp[voteId_] */\n      dup2\n      mstore\n      0x20\n      add\n      swap1\n      dup2\n      mstore\n      0x20\n      add\n      0x00\n      keccak256\n        /* \"contracts/Template/Istanbul10/logic/Vote.sol\":9506:9550  VoteStruct storage _vote = voteMapp[voteId_] */\n      swap1\n      pop\n        /* \"contracts/Template/Istanbul10/logic/Vote.sol\":9570:9585  block.timestamp */\n      timestamp\n        /* \"contracts/Template/Istanbul10/logic/Vote.sol\":9564:9585  time= block.timestamp */\n      swap3\n      pop\n        /* \"contracts/Template/Istanbul10/logic/Vote.sol\":9609:9614  _vote */\n      dup1\n        /* \"contracts/Template/Istanbul10/logic/Vote.sol\":9609:9619  _vote.time */\n      0x02\n      add\n      sload\n        /* \"contracts/Template/Istanbul10/logic/Vote.sol\":9599:9619  voteTime =_vote.time */\n      swap2\n      pop\n        /* \"contracts/Template/Istanbul10/logic/Vote.sol\":9407:9627  function getTest(uint256 voteId_) public  view returns (uint256 time , uint256 voteTime){\r... */\n      pop\n      swap2\n      pop\n      swap2\n      jump\t// out\n        /* \"contracts/Template/Istanbul10/data/VoteData.sol\":415:436  address public router */\n    tag_100:\n      0x02\n      0x00\n      swap1\n      sload\n      swap1\n      0x0100\n      exp\n      swap1\n      div\n      0xffffffffffffffffffffffffffffffffffffffff\n      and\n      dup2\n      jump\t// out\n        /* \"contracts/Template/Istanbul10/logic/Vote.sol\":627:1709  function createVote(\r... */\n    tag_105:\n        /* \"contracts/Template/Istanbul10/logic/Vote.sol\":811:825  uint256 voteId */\n      0x00\n        /* \"contracts/Template/Istanbul10/logic/Vote.sol\":870:871  0 */\n      dup1\n        /* \"contracts/Template/Istanbul10/logic/Vote.sol\":845:852  veToken */\n      0x03\n      0x00\n      swap1\n      sload\n      swap1\n      0x0100\n      exp\n      swap1\n      div\n      0xffffffffffffffffffffffffffffffffffffffff\n      and\n        /* \"contracts/Template/Istanbul10/logic/Vote.sol\":845:864  veToken.totalSupply */\n      0xffffffffffffffffffffffffffffffffffffffff\n      and\n      0x18160ddd\n        /* \"contracts/Template/Istanbul10/logic/Vote.sol\":845:866  veToken.totalSupply() */\n      mload(0x40)\n      dup2\n      0xffffffff\n      and\n      0xe0\n      shl\n      dup2\n      mstore\n      0x04\n      add\n      0x20\n      mload(0x40)\n      dup1\n      dup4\n      sub\n      dup2\n      dup7\n      dup1\n      extcodesize\n      iszero\n      dup1\n      iszero\n      tag_294\n      jumpi\n      0x00\n      dup1\n      revert\n    tag_294:\n      pop\n      gas\n      staticcall\n      iszero\n      dup1\n      iszero\n      tag_296\n      jumpi\n      returndatasize\n      0x00\n      dup1\n      returndatacopy\n      revert(0x00, returndatasize)\n    tag_296:\n      pop\n      pop\n      pop\n      pop\n      mload(0x40)\n      returndatasize\n      not(0x1f)\n      0x1f\n      dup3\n      add\n      and\n      dup3\n      add\n      dup1\n      0x40\n      mstore\n      pop\n      dup2\n      add\n      swap1\n      tag_297\n      swap2\n      swap1\n      tag_150\n      jump\t// in\n    tag_297:\n        /* \"contracts/Template/Istanbul10/logic/Vote.sol\":845:871  veToken.totalSupply() != 0 */\n      eq\n      iszero\n        /* \"contracts/Template/Istanbul10/logic/Vote.sol\":837:895  require(veToken.totalSupply() != 0, \" veTokenSupply == 0\") */\n      tag_298\n      jumpi\n      mload(0x40)\n      0x08c379a000000000000000000000000000000000000000000000000000000000\n      dup2\n      mstore\n      0x04\n      add\n      tag_299\n      swap1\n      tag_300\n      jump\t// in\n    tag_299:\n      mload(0x40)\n      dup1\n      swap2\n      sub\n      swap1\n      revert\n    tag_298:\n        /* \"contracts/Template/Istanbul10/logic/Vote.sol\":906:926  uint256 _totalsupply */\n      0x00\n        /* \"contracts/Template/Istanbul10/logic/Vote.sol\":971:974  100 */\n      0x64\n        /* \"contracts/Template/Istanbul10/logic/Vote.sol\":953:968  minimumQuantity */\n      sload(0x0a)\n        /* \"contracts/Template/Istanbul10/logic/Vote.sol\":929:936  veToken */\n      0x03\n      0x00\n      swap1\n      sload\n      swap1\n      0x0100\n      exp\n      swap1\n      div\n      0xffffffffffffffffffffffffffffffffffffffff\n      and\n        /* \"contracts/Template/Istanbul10/logic/Vote.sol\":929:948  veToken.totalSupply */\n      0xffffffffffffffffffffffffffffffffffffffff\n      and\n      0x18160ddd\n        /* \"contracts/Template/Istanbul10/logic/Vote.sol\":929:950  veToken.totalSupply() */\n      mload(0x40)\n      dup2\n      0xffffffff\n      and\n      0xe0\n      shl\n      dup2\n      mstore\n      0x04\n      add\n      0x20\n      mload(0x40)\n      dup1\n      dup4\n      sub\n      dup2\n      dup7\n      dup1\n      extcodesize\n      iszero\n      dup1\n      iszero\n      tag_301\n      jumpi\n      0x00\n      dup1\n      revert\n    tag_301:\n      pop\n      gas\n      staticcall\n      iszero\n      dup1\n      iszero\n      tag_303\n      jumpi\n      returndatasize\n      0x00\n      dup1\n      returndatacopy\n      revert(0x00, returndatasize)\n    tag_303:\n      pop\n      pop\n      pop\n      pop\n      mload(0x40)\n      returndatasize\n      not(0x1f)\n      0x1f\n      dup3\n      add\n      and\n      dup3\n      add\n      dup1\n      0x40\n      mstore\n      pop\n      dup2\n      add\n      swap1\n      tag_304\n      swap2\n      swap1\n      tag_150\n      jump\t// in\n    tag_304:\n        /* \"contracts/Template/Istanbul10/logic/Vote.sol\":929:968  veToken.totalSupply() * minimumQuantity */\n      tag_305\n      swap2\n      swap1\n      tag_152\n      jump\t// in\n    tag_305:\n        /* \"contracts/Template/Istanbul10/logic/Vote.sol\":929:974  veToken.totalSupply() * minimumQuantity / 100 */\n      tag_306\n      swap2\n      swap1\n      tag_154\n      jump\t// in\n    tag_306:\n        /* \"contracts/Template/Istanbul10/logic/Vote.sol\":906:974  uint256 _totalsupply = veToken.totalSupply() * minimumQuantity / 100 */\n      swap1\n      pop\n        /* \"contracts/Template/Istanbul10/logic/Vote.sol\":1026:1038  _totalsupply */\n      dup1\n        /* \"contracts/Template/Istanbul10/logic/Vote.sol\":993:1000  veToken */\n      0x03\n      0x00\n      swap1\n      sload\n      swap1\n      0x0100\n      exp\n      swap1\n      div\n      0xffffffffffffffffffffffffffffffffffffffff\n      and\n        /* \"contracts/Template/Istanbul10/logic/Vote.sol\":993:1010  veToken.balanceOf */\n      0xffffffffffffffffffffffffffffffffffffffff\n      and\n      0x70a08231\n        /* \"contracts/Template/Istanbul10/logic/Vote.sol\":1011:1021  msg.sender */\n      caller\n        /* \"contracts/Template/Istanbul10/logic/Vote.sol\":993:1022  veToken.balanceOf(msg.sender) */\n      mload(0x40)\n      dup3\n      0xffffffff\n      and\n      0xe0\n      shl\n      dup2\n      mstore\n      0x04\n      add\n      tag_307\n      swap2\n      swap1\n      tag_49\n      jump\t// in\n    tag_307:\n      0x20\n      mload(0x40)\n      dup1\n      dup4\n      sub\n      dup2\n      dup7\n      dup1\n      extcodesize\n      iszero\n      dup1\n      iszero\n      tag_308\n      jumpi\n      0x00\n      dup1\n      revert\n    tag_308:\n      pop\n      gas\n      staticcall\n      iszero\n      dup1\n      iszero\n      tag_310\n      jumpi\n      returndatasize\n      0x00\n      dup1\n      returndatacopy\n      revert(0x00, returndatasize)\n    tag_310:\n      pop\n      pop\n      pop\n      pop\n      mload(0x40)\n      returndatasize\n      not(0x1f)\n      0x1f\n      dup3\n      add\n      and\n      dup3\n      add\n      dup1\n      0x40\n      mstore\n      pop\n      dup2\n      add\n      swap1\n      tag_311\n      swap2\n      swap1\n      tag_150\n      jump\t// in\n    tag_311:\n        /* \"contracts/Template/Istanbul10/logic/Vote.sol\":993:1038  veToken.balanceOf(msg.sender) >= _totalsupply */\n      lt\n      iszero\n        /* \"contracts/Template/Istanbul10/logic/Vote.sol\":985:1065  require(veToken.balanceOf(msg.sender) >= _totalsupply,\"Too few tokens are held\") */\n      tag_312\n      jumpi\n      mload(0x40)\n      0x08c379a000000000000000000000000000000000000000000000000000000000\n      dup2\n      mstore\n      0x04\n      add\n      tag_313\n      swap1\n      tag_162\n      jump\t// in\n    tag_313:\n      mload(0x40)\n      dup1\n      swap2\n      sub\n      swap1\n      revert\n    tag_312:\n        /* \"contracts/Template/Istanbul10/logic/Vote.sol\":1078:1088  voteTatola */\n      0x04\n      0x00\n        /* \"contracts/Template/Istanbul10/logic/Vote.sol\":1078:1091  voteTatola ++ */\n      dup2\n      sload\n      dup1\n      swap3\n      swap2\n      swap1\n      tag_314\n      swap1\n      tag_136\n      jump\t// in\n    tag_314:\n      swap2\n      swap1\n      pop\n      sstore\n      pop\n        /* \"contracts/Template/Istanbul10/logic/Vote.sol\":1102:1133  VoteStruct  storage _VoteStruct */\n      0x00\n        /* \"contracts/Template/Istanbul10/logic/Vote.sol\":1136:1144  voteMapp */\n      0x07\n        /* \"contracts/Template/Istanbul10/logic/Vote.sol\":1136:1156  voteMapp[voteTatola] */\n      0x00\n        /* \"contracts/Template/Istanbul10/logic/Vote.sol\":1145:1155  voteTatola */\n      sload(0x04)\n        /* \"contracts/Template/Istanbul10/logic/Vote.sol\":1136:1156  voteMapp[voteTatola] */\n      dup2\n      mstore\n      0x20\n      add\n      swap1\n      dup2\n      mstore\n      0x20\n      add\n      0x00\n      keccak256\n        /* \"contracts/Template/Istanbul10/logic/Vote.sol\":1102:1156  VoteStruct  storage _VoteStruct = voteMapp[voteTatola] */\n      swap1\n      pop\n        /* \"contracts/Template/Istanbul10/logic/Vote.sol\":1193:1205  _totalsupply */\n      dup2\n        /* \"contracts/Template/Istanbul10/logic/Vote.sol\":1167:1178  _VoteStruct */\n      dup2\n        /* \"contracts/Template/Istanbul10/logic/Vote.sol\":1167:1190  _VoteStruct.totalsupply */\n      0x00\n      add\n        /* \"contracts/Template/Istanbul10/logic/Vote.sol\":1167:1205  _VoteStruct.totalsupply = _totalsupply */\n      dup2\n      swap1\n      sstore\n      pop\n        /* \"contracts/Template/Istanbul10/logic/Vote.sol\":1240:1250  voteTopic_ */\n      dup7\n        /* \"contracts/Template/Istanbul10/logic/Vote.sol\":1216:1227  _VoteStruct */\n      dup2\n        /* \"contracts/Template/Istanbul10/logic/Vote.sol\":1216:1237  _VoteStruct.voteTopic */\n      0x03\n      add\n        /* \"contracts/Template/Istanbul10/logic/Vote.sol\":1216:1250  _VoteStruct.voteTopic = voteTopic_ */\n      swap1\n      dup1\n      mload\n      swap1\n      0x20\n      add\n      swap1\n      tag_315\n      swap3\n      swap2\n      swap1\n      tag_176\n      jump\t// in\n    tag_315:\n      pop\n        /* \"contracts/Template/Istanbul10/logic/Vote.sol\":1282:1292  voteTatola */\n      sload(0x04)\n        /* \"contracts/Template/Istanbul10/logic/Vote.sol\":1261:1272  _VoteStruct */\n      dup2\n        /* \"contracts/Template/Istanbul10/logic/Vote.sol\":1261:1279  _VoteStruct.voteId */\n      0x01\n      add\n        /* \"contracts/Template/Istanbul10/logic/Vote.sol\":1261:1292  _VoteStruct.voteId = voteTatola */\n      dup2\n      swap1\n      sstore\n      pop\n        /* \"contracts/Template/Istanbul10/logic/Vote.sol\":1340:1348  voteTime */\n      sload(0x00)\n        /* \"contracts/Template/Istanbul10/logic/Vote.sol\":1322:1337  block.timestamp */\n      timestamp\n        /* \"contracts/Template/Istanbul10/logic/Vote.sol\":1322:1348  block.timestamp + voteTime */\n      tag_316\n      swap2\n      swap1\n      tag_165\n      jump\t// in\n    tag_316:\n        /* \"contracts/Template/Istanbul10/logic/Vote.sol\":1303:1314  _VoteStruct */\n      dup2\n        /* \"contracts/Template/Istanbul10/logic/Vote.sol\":1303:1319  _VoteStruct.time */\n      0x02\n      add\n        /* \"contracts/Template/Istanbul10/logic/Vote.sol\":1303:1348  _VoteStruct.time = block.timestamp + voteTime */\n      dup2\n      swap1\n      sstore\n      pop\n        /* \"contracts/Template/Istanbul10/logic/Vote.sol\":1383:1393  msg.sender */\n      caller\n        /* \"contracts/Template/Istanbul10/logic/Vote.sol\":1359:1370  _VoteStruct */\n      dup2\n        /* \"contracts/Template/Istanbul10/logic/Vote.sol\":1359:1380  _VoteStruct.initiator */\n      0x04\n      add\n      0x00\n        /* \"contracts/Template/Istanbul10/logic/Vote.sol\":1359:1393  _VoteStruct.initiator = msg.sender */\n      0x0100\n      exp\n      dup2\n      sload\n      dup2\n      0xffffffffffffffffffffffffffffffffffffffff\n      mul\n      not\n      and\n      swap1\n      dup4\n      0xffffffffffffffffffffffffffffffffffffffff\n      and\n      mul\n      or\n      swap1\n      sstore\n      pop\n        /* \"contracts/Template/Istanbul10/logic/Vote.sol\":1427:1436  describe_ */\n      dup6\n        /* \"contracts/Template/Istanbul10/logic/Vote.sol\":1404:1415  _VoteStruct */\n      dup2\n        /* \"contracts/Template/Istanbul10/logic/Vote.sol\":1404:1424  _VoteStruct.describe */\n      0x05\n      add\n        /* \"contracts/Template/Istanbul10/logic/Vote.sol\":1404:1436  _VoteStruct.describe = describe_ */\n      swap1\n      dup1\n      mload\n      swap1\n      0x20\n      add\n      swap1\n      tag_317\n      swap3\n      swap2\n      swap1\n      tag_176\n      jump\t// in\n    tag_317:\n      pop\n        /* \"contracts/Template/Istanbul10/logic/Vote.sol\":1468:1487  VoteStatus.isvoting */\n      0x01\n        /* \"contracts/Template/Istanbul10/logic/Vote.sol\":1447:1458  _VoteStruct */\n      dup2\n        /* \"contracts/Template/Istanbul10/logic/Vote.sol\":1447:1465  _VoteStruct.status */\n      0x08\n      add\n      0x00\n        /* \"contracts/Template/Istanbul10/logic/Vote.sol\":1447:1487  _VoteStruct.status = VoteStatus.isvoting */\n      0x0100\n      exp\n      dup2\n      sload\n      dup2\n      0xff\n      mul\n      not\n      and\n      swap1\n      dup4\n      0x06\n      dup2\n      gt\n      iszero\n      tag_318\n      jumpi\n      mstore(0x00, 0x4e487b7100000000000000000000000000000000000000000000000000000000)\n      mstore(0x04, 0x21)\n      revert(0x00, 0x24)\n    tag_318:\n      mul\n      or\n      swap1\n      sstore\n      pop\n        /* \"contracts/Template/Istanbul10/logic/Vote.sol\":1522:1532  codeModel_ */\n      dup5\n        /* \"contracts/Template/Istanbul10/logic/Vote.sol\":1498:1509  _VoteStruct */\n      dup2\n        /* \"contracts/Template/Istanbul10/logic/Vote.sol\":1498:1519  _VoteStruct.codeModel */\n      0x09\n      add\n        /* \"contracts/Template/Istanbul10/logic/Vote.sol\":1498:1532  _VoteStruct.codeModel = codeModel_ */\n      dup2\n      swap1\n      sstore\n      pop\n        /* \"contracts/Template/Istanbul10/logic/Vote.sol\":1563:1570  valaue_ */\n      dup4\n        /* \"contracts/Template/Istanbul10/logic/Vote.sol\":1543:1554  _VoteStruct */\n      dup2\n        /* \"contracts/Template/Istanbul10/logic/Vote.sol\":1543:1560  _VoteStruct.value */\n      0x0a\n      add\n        /* \"contracts/Template/Istanbul10/logic/Vote.sol\":1543:1570  _VoteStruct.value = valaue_ */\n      dup2\n      swap1\n      sstore\n      pop\n        /* \"contracts/Template/Istanbul10/logic/Vote.sol\":1634:1643  describe_ */\n      dup6\n        /* \"contracts/Template/Istanbul10/logic/Vote.sol\":1596:1663  CreateVoteEvent(voteTatola,voteTopic_,describe_,codeModel_,valaue_) */\n      mload(0x40)\n      tag_319\n      swap2\n      swap1\n      tag_320\n      jump\t// in\n    tag_319:\n      mload(0x40)\n      dup1\n      swap2\n      sub\n      swap1\n      keccak256\n        /* \"contracts/Template/Istanbul10/logic/Vote.sol\":1623:1633  voteTopic_ */\n      dup8\n        /* \"contracts/Template/Istanbul10/logic/Vote.sol\":1596:1663  CreateVoteEvent(voteTatola,voteTopic_,describe_,codeModel_,valaue_) */\n      mload(0x40)\n      tag_321\n      swap2\n      swap1\n      tag_320\n      jump\t// in\n    tag_321:\n      mload(0x40)\n      dup1\n      swap2\n      sub\n      swap1\n      keccak256\n        /* \"contracts/Template/Istanbul10/logic/Vote.sol\":1612:1622  voteTatola */\n      sload(0x04)\n        /* \"contracts/Template/Istanbul10/logic/Vote.sol\":1596:1663  CreateVoteEvent(voteTatola,voteTopic_,describe_,codeModel_,valaue_) */\n      0x2042799f2e1d3fcfc7c7e9dd101b3430c99aa621240ea8fdeac79ad1c973888e\n        /* \"contracts/Template/Istanbul10/logic/Vote.sol\":1644:1654  codeModel_ */\n      dup9\n        /* \"contracts/Template/Istanbul10/logic/Vote.sol\":1655:1662  valaue_ */\n      dup9\n        /* \"contracts/Template/Istanbul10/logic/Vote.sol\":1596:1663  CreateVoteEvent(voteTatola,voteTopic_,describe_,codeModel_,valaue_) */\n      mload(0x40)\n      tag_322\n      swap3\n      swap2\n      swap1\n      tag_98\n      jump\t// in\n    tag_322:\n      mload(0x40)\n      dup1\n      swap2\n      sub\n      swap1\n      log4\n        /* \"contracts/Template/Istanbul10/logic/Vote.sol\":1691:1701  voteTatola */\n      sload(0x04)\n        /* \"contracts/Template/Istanbul10/logic/Vote.sol\":1684:1701  return voteTatola */\n      swap3\n      pop\n      pop\n      pop\n        /* \"contracts/Template/Istanbul10/logic/Vote.sol\":627:1709  function createVote(\r... */\n      swap5\n      swap4\n      pop\n      pop\n      pop\n      pop\n      jump\t// out\n        /* \"contracts/Template/Istanbul10/logic/Vote.sol\":6992:7621  function delegateTo(uint256 voteId_,address to_)external override {\r... */\n    tag_110:\n        /* \"contracts/Template/Istanbul10/logic/Vote.sol\":7069:7094  VoteStruct storage  _vote */\n      0x00\n        /* \"contracts/Template/Istanbul10/logic/Vote.sol\":7098:7106  voteMapp */\n      0x07\n        /* \"contracts/Template/Istanbul10/logic/Vote.sol\":7098:7115  voteMapp[voteId_] */\n      0x00\n        /* \"contracts/Template/Istanbul10/logic/Vote.sol\":7107:7114  voteId_ */\n      dup5\n        /* \"contracts/Template/Istanbul10/logic/Vote.sol\":7098:7115  voteMapp[voteId_] */\n      dup2\n      mstore\n      0x20\n      add\n      swap1\n      dup2\n      mstore\n      0x20\n      add\n      0x00\n      keccak256\n        /* \"contracts/Template/Istanbul10/logic/Vote.sol\":7069:7115  VoteStruct storage  _vote  = voteMapp[voteId_] */\n      swap1\n      pop\n        /* \"contracts/Template/Istanbul10/logic/Vote.sol\":7137:7142  _vote */\n      dup1\n        /* \"contracts/Template/Istanbul10/logic/Vote.sol\":7137:7155  _vote.VoterAddress */\n      0x0b\n      add\n        /* \"contracts/Template/Istanbul10/logic/Vote.sol\":7137:7167  _vote.VoterAddress[msg.sender] */\n      0x00\n        /* \"contracts/Template/Istanbul10/logic/Vote.sol\":7156:7166  msg.sender */\n      caller\n        /* \"contracts/Template/Istanbul10/logic/Vote.sol\":7137:7167  _vote.VoterAddress[msg.sender] */\n      0xffffffffffffffffffffffffffffffffffffffff\n      and\n      0xffffffffffffffffffffffffffffffffffffffff\n      and\n      dup2\n      mstore\n      0x20\n      add\n      swap1\n      dup2\n      mstore\n      0x20\n      add\n      0x00\n      keccak256\n        /* \"contracts/Template/Istanbul10/logic/Vote.sol\":7137:7173  _vote.VoterAddress[msg.sender].voted */\n      0x00\n      add\n      0x00\n      swap1\n      sload\n      swap1\n      0x0100\n      exp\n      swap1\n      div\n      0xff\n      and\n        /* \"contracts/Template/Istanbul10/logic/Vote.sol\":7136:7173  !_vote.VoterAddress[msg.sender].voted */\n      iszero\n        /* \"contracts/Template/Istanbul10/logic/Vote.sol\":7128:7187  require(!_vote.VoterAddress[msg.sender].voted,\"Have voted\") */\n      tag_324\n      jumpi\n      mload(0x40)\n      0x08c379a000000000000000000000000000000000000000000000000000000000\n      dup2\n      mstore\n      0x04\n      add\n      tag_325\n      swap1\n      tag_326\n      jump\t// in\n    tag_325:\n      mload(0x40)\n      dup1\n      swap2\n      sub\n      swap1\n      revert\n    tag_324:\n        /* \"contracts/Template/Istanbul10/logic/Vote.sol\":7213:7223  msg.sender */\n      caller\n        /* \"contracts/Template/Istanbul10/logic/Vote.sol\":7206:7223  to_ != msg.sender */\n      0xffffffffffffffffffffffffffffffffffffffff\n      and\n        /* \"contracts/Template/Istanbul10/logic/Vote.sol\":7206:7209  to_ */\n      dup3\n        /* \"contracts/Template/Istanbul10/logic/Vote.sol\":7206:7223  to_ != msg.sender */\n      0xffffffffffffffffffffffffffffffffffffffff\n      and\n      eq\n      iszero\n        /* \"contracts/Template/Istanbul10/logic/Vote.sol\":7198:7253  require(to_ != msg.sender,\"can't delegate to yourself\") */\n      tag_327\n      jumpi\n      mload(0x40)\n      0x08c379a000000000000000000000000000000000000000000000000000000000\n      dup2\n      mstore\n      0x04\n      add\n      tag_328\n      swap1\n      tag_329\n      jump\t// in\n    tag_328:\n      mload(0x40)\n      dup1\n      swap2\n      sub\n      swap1\n      revert\n    tag_327:\n        /* \"contracts/Template/Istanbul10/logic/Vote.sol\":7306:7307  0 */\n      0x00\n        /* \"contracts/Template/Istanbul10/logic/Vote.sol\":7274:7281  veToken */\n      0x03\n      0x00\n      swap1\n      sload\n      swap1\n      0x0100\n      exp\n      swap1\n      div\n      0xffffffffffffffffffffffffffffffffffffffff\n      and\n        /* \"contracts/Template/Istanbul10/logic/Vote.sol\":7274:7291  veToken.balanceOf */\n      0xffffffffffffffffffffffffffffffffffffffff\n      and\n      0x70a08231\n        /* \"contracts/Template/Istanbul10/logic/Vote.sol\":7292:7302  msg.sender */\n      caller\n        /* \"contracts/Template/Istanbul10/logic/Vote.sol\":7274:7303  veToken.balanceOf(msg.sender) */\n      mload(0x40)\n      dup3\n      0xffffffff\n      and\n      0xe0\n      shl\n      dup2\n      mstore\n      0x04\n      add\n      tag_330\n      swap2\n      swap1\n      tag_49\n      jump\t// in\n    tag_330:\n      0x20\n      mload(0x40)\n      dup1\n      dup4\n      sub\n      dup2\n      dup7\n      dup1\n      extcodesize\n      iszero\n      dup1\n      iszero\n      tag_331\n      jumpi\n      0x00\n      dup1\n      revert\n    tag_331:\n      pop\n      gas\n      staticcall\n      iszero\n      dup1\n      iszero\n      tag_333\n      jumpi\n      returndatasize\n      0x00\n      dup1\n      returndatacopy\n      revert(0x00, returndatasize)\n    tag_333:\n      pop\n      pop\n      pop\n      pop\n      mload(0x40)\n      returndatasize\n      not(0x1f)\n      0x1f\n      dup3\n      add\n      and\n      dup3\n      add\n      dup1\n      0x40\n      mstore\n      pop\n      dup2\n      add\n      swap1\n      tag_334\n      swap2\n      swap1\n      tag_150\n      jump\t// in\n    tag_334:\n        /* \"contracts/Template/Istanbul10/logic/Vote.sol\":7274:7307  veToken.balanceOf(msg.sender) > 0 */\n      gt\n        /* \"contracts/Template/Istanbul10/logic/Vote.sol\":7266:7329  require(veToken.balanceOf(msg.sender) > 0,\"There is no token \") */\n      tag_335\n      jumpi\n      mload(0x40)\n      0x08c379a000000000000000000000000000000000000000000000000000000000\n      dup2\n      mstore\n      0x04\n      add\n      tag_336\n      swap1\n      tag_337\n      jump\t// in\n    tag_336:\n      mload(0x40)\n      dup1\n      swap2\n      sub\n      swap1\n      revert\n    tag_335:\n        /* \"contracts/Template/Istanbul10/logic/Vote.sol\":7342:7347  _vote */\n      dup1\n        /* \"contracts/Template/Istanbul10/logic/Vote.sol\":7342:7360  _vote.VoterAddress */\n      0x0b\n      add\n        /* \"contracts/Template/Istanbul10/logic/Vote.sol\":7342:7365  _vote.VoterAddress[to_] */\n      0x00\n        /* \"contracts/Template/Istanbul10/logic/Vote.sol\":7361:7364  to_ */\n      dup4\n        /* \"contracts/Template/Istanbul10/logic/Vote.sol\":7342:7365  _vote.VoterAddress[to_] */\n      0xffffffffffffffffffffffffffffffffffffffff\n      and\n      0xffffffffffffffffffffffffffffffffffffffff\n      and\n      dup2\n      mstore\n      0x20\n      add\n      swap1\n      dup2\n      mstore\n      0x20\n      add\n      0x00\n      keccak256\n        /* \"contracts/Template/Istanbul10/logic/Vote.sol\":7342:7372  _vote.VoterAddress[to_].bailor */\n      0x01\n      add\n        /* \"contracts/Template/Istanbul10/logic/Vote.sol\":7378:7388  msg.sender */\n      caller\n        /* \"contracts/Template/Istanbul10/logic/Vote.sol\":7342:7389  _vote.VoterAddress[to_].bailor.push(msg.sender) */\n      swap1\n      dup1\n      0x01\n      dup2\n      sload\n      add\n      dup1\n      dup3\n      sstore\n      dup1\n      swap2\n      pop\n      pop\n      0x01\n      swap1\n      sub\n      swap1\n      0x00\n      mstore\n      keccak256(0x00, 0x20)\n      add\n      0x00\n      swap1\n      swap2\n      swap1\n      swap2\n      swap1\n      swap2\n      0x0100\n      exp\n      dup2\n      sload\n      dup2\n      0xffffffffffffffffffffffffffffffffffffffff\n      mul\n      not\n      and\n      swap1\n      dup4\n      0xffffffffffffffffffffffffffffffffffffffff\n      and\n      mul\n      or\n      swap1\n      sstore\n      pop\n        /* \"contracts/Template/Istanbul10/logic/Vote.sol\":7439:7443  true */\n      0x01\n        /* \"contracts/Template/Istanbul10/logic/Vote.sol\":7400:7405  _vote */\n      dup2\n        /* \"contracts/Template/Istanbul10/logic/Vote.sol\":7400:7418  _vote.VoterAddress */\n      0x0b\n      add\n        /* \"contracts/Template/Istanbul10/logic/Vote.sol\":7400:7430  _vote.VoterAddress[msg.sender] */\n      0x00\n        /* \"contracts/Template/Istanbul10/logic/Vote.sol\":7419:7429  msg.sender */\n      caller\n        /* \"contracts/Template/Istanbul10/logic/Vote.sol\":7400:7430  _vote.VoterAddress[msg.sender] */\n      0xffffffffffffffffffffffffffffffffffffffff\n      and\n      0xffffffffffffffffffffffffffffffffffffffff\n      and\n      dup2\n      mstore\n      0x20\n      add\n      swap1\n      dup2\n      mstore\n      0x20\n      add\n      0x00\n      keccak256\n        /* \"contracts/Template/Istanbul10/logic/Vote.sol\":7400:7436  _vote.VoterAddress[msg.sender].voted */\n      0x00\n      add\n      0x00\n        /* \"contracts/Template/Istanbul10/logic/Vote.sol\":7400:7443  _vote.VoterAddress[msg.sender].voted = true */\n      0x0100\n      exp\n      dup2\n      sload\n      dup2\n      0xff\n      mul\n      not\n      and\n      swap1\n      dup4\n      iszero\n      iszero\n      mul\n      or\n      swap1\n      sstore\n      pop\n        /* \"contracts/Template/Istanbul10/logic/Vote.sol\":7454:7459  _vote */\n      dup1\n        /* \"contracts/Template/Istanbul10/logic/Vote.sol\":7454:7465  _vote.svote */\n      0x0c\n      add\n        /* \"contracts/Template/Istanbul10/logic/Vote.sol\":7454:7478  _vote.svote.VoterAddress */\n      0x04\n      add\n        /* \"contracts/Template/Istanbul10/logic/Vote.sol\":7454:7483  _vote.svote.VoterAddress[to_] */\n      0x00\n        /* \"contracts/Template/Istanbul10/logic/Vote.sol\":7479:7482  to_ */\n      dup4\n        /* \"contracts/Template/Istanbul10/logic/Vote.sol\":7454:7483  _vote.svote.VoterAddress[to_] */\n      0xffffffffffffffffffffffffffffffffffffffff\n      and\n      0xffffffffffffffffffffffffffffffffffffffff\n      and\n      dup2\n      mstore\n      0x20\n      add\n      swap1\n      dup2\n      mstore\n      0x20\n      add\n      0x00\n      keccak256\n        /* \"contracts/Template/Istanbul10/logic/Vote.sol\":7454:7490  _vote.svote.VoterAddress[to_].bailor */\n      0x01\n      add\n        /* \"contracts/Template/Istanbul10/logic/Vote.sol\":7496:7506  msg.sender */\n      caller\n        /* \"contracts/Template/Istanbul10/logic/Vote.sol\":7454:7507  _vote.svote.VoterAddress[to_].bailor.push(msg.sender) */\n      swap1\n      dup1\n      0x01\n      dup2\n      sload\n      add\n      dup1\n      dup3\n      sstore\n      dup1\n      swap2\n      pop\n      pop\n      0x01\n      swap1\n      sub\n      swap1\n      0x00\n      mstore\n      keccak256(0x00, 0x20)\n      add\n      0x00\n      swap1\n      swap2\n      swap1\n      swap2\n      swap1\n      swap2\n      0x0100\n      exp\n      dup2\n      sload\n      dup2\n      0xffffffffffffffffffffffffffffffffffffffff\n      mul\n      not\n      and\n      swap1\n      dup4\n      0xffffffffffffffffffffffffffffffffffffffff\n      and\n      mul\n      or\n      swap1\n      sstore\n      pop\n        /* \"contracts/Template/Istanbul10/logic/Vote.sol\":7563:7567  true */\n      0x01\n        /* \"contracts/Template/Istanbul10/logic/Vote.sol\":7518:7523  _vote */\n      dup2\n        /* \"contracts/Template/Istanbul10/logic/Vote.sol\":7518:7529  _vote.svote */\n      0x0c\n      add\n        /* \"contracts/Template/Istanbul10/logic/Vote.sol\":7518:7542  _vote.svote.VoterAddress */\n      0x04\n      add\n        /* \"contracts/Template/Istanbul10/logic/Vote.sol\":7518:7554  _vote.svote.VoterAddress[msg.sender] */\n      0x00\n        /* \"contracts/Template/Istanbul10/logic/Vote.sol\":7543:7553  msg.sender */\n      caller\n        /* \"contracts/Template/Istanbul10/logic/Vote.sol\":7518:7554  _vote.svote.VoterAddress[msg.sender] */\n      0xffffffffffffffffffffffffffffffffffffffff\n      and\n      0xffffffffffffffffffffffffffffffffffffffff\n      and\n      dup2\n      mstore\n      0x20\n      add\n      swap1\n      dup2\n      mstore\n      0x20\n      add\n      0x00\n      keccak256\n        /* \"contracts/Template/Istanbul10/logic/Vote.sol\":7518:7560  _vote.svote.VoterAddress[msg.sender].voted */\n      0x00\n      add\n      0x00\n        /* \"contracts/Template/Istanbul10/logic/Vote.sol\":7518:7567  _vote.svote.VoterAddress[msg.sender].voted = true */\n      0x0100\n      exp\n      dup2\n      sload\n      dup2\n      0xff\n      mul\n      not\n      and\n      swap1\n      dup4\n      iszero\n      iszero\n      mul\n      or\n      swap1\n      sstore\n      pop\n        /* \"contracts/Template/Istanbul10/logic/Vote.sol\":7601:7608  voteId_ */\n      dup3\n        /* \"contracts/Template/Istanbul10/logic/Vote.sol\":7585:7613  DelegateToEvent(voteId_,to_) */\n      0xa9860e62eb02a47e1d5d5253a79d90bc96cd33c299d874f5b7710d0a61b63ccc\n        /* \"contracts/Template/Istanbul10/logic/Vote.sol\":7609:7612  to_ */\n      dup4\n        /* \"contracts/Template/Istanbul10/logic/Vote.sol\":7585:7613  DelegateToEvent(voteId_,to_) */\n      mload(0x40)\n      tag_340\n      swap2\n      swap1\n      tag_49\n      jump\t// in\n    tag_340:\n      mload(0x40)\n      dup1\n      swap2\n      sub\n      swap1\n      log2\n        /* \"contracts/Template/Istanbul10/logic/Vote.sol\":6992:7621  function delegateTo(uint256 voteId_,address to_)external override {\r... */\n      pop\n      pop\n      pop\n      jump\t// out\n        /* \"contracts/Template/Istanbul10/logic/Vote.sol\":4594:5761  function execute(uint256 voteId_) external override {\r... */\n    tag_113:\n        /* \"contracts/Template/Istanbul10/logic/Vote.sol\":4657:4681  VoteStruct storage _vote */\n      0x00\n        /* \"contracts/Template/Istanbul10/logic/Vote.sol\":4684:4692  voteMapp */\n      0x07\n        /* \"contracts/Template/Istanbul10/logic/Vote.sol\":4684:4701  voteMapp[voteId_] */\n      0x00\n        /* \"contracts/Template/Istanbul10/logic/Vote.sol\":4693:4700  voteId_ */\n      dup4\n        /* \"contracts/Template/Istanbul10/logic/Vote.sol\":4684:4701  voteMapp[voteId_] */\n      dup2\n      mstore\n      0x20\n      add\n      swap1\n      dup2\n      mstore\n      0x20\n      add\n      0x00\n      keccak256\n        /* \"contracts/Template/Istanbul10/logic/Vote.sol\":4657:4701  VoteStruct storage _vote = voteMapp[voteId_] */\n      swap1\n      pop\n        /* \"contracts/Template/Istanbul10/logic/Vote.sol\":4721:4736  executeQueueMap */\n      0x09\n        /* \"contracts/Template/Istanbul10/logic/Vote.sol\":4721:4745  executeQueueMap[voteId_] */\n      0x00\n        /* \"contracts/Template/Istanbul10/logic/Vote.sol\":4737:4744  voteId_ */\n      dup4\n        /* \"contracts/Template/Istanbul10/logic/Vote.sol\":4721:4745  executeQueueMap[voteId_] */\n      dup2\n      mstore\n      0x20\n      add\n      swap1\n      dup2\n      mstore\n      0x20\n      add\n      0x00\n      keccak256\n      0x00\n      swap1\n      sload\n      swap1\n      0x0100\n      exp\n      swap1\n      div\n      0xff\n      and\n        /* \"contracts/Template/Istanbul10/logic/Vote.sol\":4720:4745  !executeQueueMap[voteId_] */\n      iszero\n        /* \"contracts/Template/Istanbul10/logic/Vote.sol\":4712:4769  require(!executeQueueMap[voteId_],\"repetitive execution\") */\n      tag_342\n      jumpi\n      mload(0x40)\n      0x08c379a000000000000000000000000000000000000000000000000000000000\n      dup2\n      mstore\n      0x04\n      add\n      tag_343\n      swap1\n      tag_344\n      jump\t// in\n    tag_343:\n      mload(0x40)\n      dup1\n      swap2\n      sub\n      swap1\n      revert\n    tag_342:\n        /* \"contracts/Template/Istanbul10/logic/Vote.sol\":4804:4828  VoteStatus.uninitialized */\n      0x00\n        /* \"contracts/Template/Istanbul10/logic/Vote.sol\":4788:4828  _vote.status != VoteStatus.uninitialized */\n      0x06\n      dup2\n      gt\n      iszero\n      tag_345\n      jumpi\n      mstore(0x00, 0x4e487b7100000000000000000000000000000000000000000000000000000000)\n      mstore(0x04, 0x21)\n      revert(0x00, 0x24)\n    tag_345:\n        /* \"contracts/Template/Istanbul10/logic/Vote.sol\":4788:4793  _vote */\n      dup2\n        /* \"contracts/Template/Istanbul10/logic/Vote.sol\":4788:4800  _vote.status */\n      0x08\n      add\n      0x00\n      swap1\n      sload\n      swap1\n      0x0100\n      exp\n      swap1\n      div\n      0xff\n      and\n        /* \"contracts/Template/Istanbul10/logic/Vote.sol\":4788:4828  _vote.status != VoteStatus.uninitialized */\n      0x06\n      dup2\n      gt\n      iszero\n      tag_346\n      jumpi\n      mstore(0x00, 0x4e487b7100000000000000000000000000000000000000000000000000000000)\n      mstore(0x04, 0x21)\n      revert(0x00, 0x24)\n    tag_346:\n      eq\n      iszero\n        /* \"contracts/Template/Istanbul10/logic/Vote.sol\":4780:4846  require(_vote.status != VoteStatus.uninitialized,\"VoteId is null\") */\n      tag_347\n      jumpi\n      mload(0x40)\n      0x08c379a000000000000000000000000000000000000000000000000000000000\n      dup2\n      mstore\n      0x04\n      add\n      tag_348\n      swap1\n      tag_198\n      jump\t// in\n    tag_348:\n      mload(0x40)\n      dup1\n      swap2\n      sub\n      swap1\n      revert\n    tag_347:\n        /* \"contracts/Template/Istanbul10/logic/Vote.sol\":4876:4895  VoteStatus.isvoting */\n      0x01\n        /* \"contracts/Template/Istanbul10/logic/Vote.sol\":4860:4895  _vote.status == VoteStatus.isvoting */\n      0x06\n      dup2\n      gt\n      iszero\n      tag_349\n      jumpi\n      mstore(0x00, 0x4e487b7100000000000000000000000000000000000000000000000000000000)\n      mstore(0x04, 0x21)\n      revert(0x00, 0x24)\n    tag_349:\n        /* \"contracts/Template/Istanbul10/logic/Vote.sol\":4860:4865  _vote */\n      dup2\n        /* \"contracts/Template/Istanbul10/logic/Vote.sol\":4860:4872  _vote.status */\n      0x08\n      add\n      0x00\n      swap1\n      sload\n      swap1\n      0x0100\n      exp\n      swap1\n      div\n      0xff\n      and\n        /* \"contracts/Template/Istanbul10/logic/Vote.sol\":4860:4895  _vote.status == VoteStatus.isvoting */\n      0x06\n      dup2\n      gt\n      iszero\n      tag_350\n      jumpi\n      mstore(0x00, 0x4e487b7100000000000000000000000000000000000000000000000000000000)\n      mstore(0x04, 0x21)\n      revert(0x00, 0x24)\n    tag_350:\n      eq\n        /* \"contracts/Template/Istanbul10/logic/Vote.sol\":4857:5715  if(_vote.status == VoteStatus.isvoting){\r... */\n      iszero\n      tag_351\n      jumpi\n        /* \"contracts/Template/Istanbul10/logic/Vote.sol\":4939:4944  _vote */\n      dup1\n        /* \"contracts/Template/Istanbul10/logic/Vote.sol\":4939:4949  _vote.time */\n      0x02\n      add\n      sload\n        /* \"contracts/Template/Istanbul10/logic/Vote.sol\":4921:4936  block.timestamp */\n      timestamp\n        /* \"contracts/Template/Istanbul10/logic/Vote.sol\":4921:4949  block.timestamp > _vote.time */\n      gt\n        /* \"contracts/Template/Istanbul10/logic/Vote.sol\":4913:4978  require(block.timestamp > _vote.time,\"Still in the voting phase\") */\n      tag_352\n      jumpi\n      mload(0x40)\n      0x08c379a000000000000000000000000000000000000000000000000000000000\n      dup2\n      mstore\n      0x04\n      add\n      tag_353\n      swap1\n      tag_168\n      jump\t// in\n    tag_353:\n      mload(0x40)\n      dup1\n      swap2\n      sub\n      swap1\n      revert\n    tag_352:\n        /* \"contracts/Template/Istanbul10/logic/Vote.sol\":5064:5068  1000 */\n      0x03e8\n        /* \"contracts/Template/Istanbul10/logic/Vote.sol\":5058:5061  300 */\n      0x012c\n        /* \"contracts/Template/Istanbul10/logic/Vote.sol\":5038:5043  _vote */\n      dup3\n        /* \"contracts/Template/Istanbul10/logic/Vote.sol\":5038:5055  _vote.totalsupply */\n      0x00\n      add\n      sload\n        /* \"contracts/Template/Istanbul10/logic/Vote.sol\":5038:5061  _vote.totalsupply * 300 */\n      tag_354\n      swap2\n      swap1\n      tag_152\n      jump\t// in\n    tag_354:\n        /* \"contracts/Template/Istanbul10/logic/Vote.sol\":5038:5068  _vote.totalsupply * 300 / 1000 */\n      tag_355\n      swap2\n      swap1\n      tag_154\n      jump\t// in\n    tag_355:\n        /* \"contracts/Template/Istanbul10/logic/Vote.sol\":5020:5025  _vote */\n      dup2\n        /* \"contracts/Template/Istanbul10/logic/Vote.sol\":5020:5034  _vote.supPopel */\n      0x06\n      add\n      sload\n        /* \"contracts/Template/Istanbul10/logic/Vote.sol\":5001:5006  _vote */\n      dup3\n        /* \"contracts/Template/Istanbul10/logic/Vote.sol\":5001:5019  _vote.againstPopel */\n      0x07\n      add\n      sload\n        /* \"contracts/Template/Istanbul10/logic/Vote.sol\":5001:5034  _vote.againstPopel+_vote.supPopel */\n      tag_356\n      swap2\n      swap1\n      tag_165\n      jump\t// in\n    tag_356:\n        /* \"contracts/Template/Istanbul10/logic/Vote.sol\":5001:5068  _vote.againstPopel+_vote.supPopel >= _vote.totalsupply * 300 / 1000 */\n      lt\n      iszero\n        /* \"contracts/Template/Istanbul10/logic/Vote.sol\":4993:5101  require(_vote.againstPopel+_vote.supPopel >= _vote.totalsupply * 300 / 1000,\"votes is less than 30 percent\") */\n      tag_357\n      jumpi\n      mload(0x40)\n      0x08c379a000000000000000000000000000000000000000000000000000000000\n      dup2\n      mstore\n      0x04\n      add\n      tag_358\n      swap1\n      tag_359\n      jump\t// in\n    tag_358:\n      mload(0x40)\n      dup1\n      swap2\n      sub\n      swap1\n      revert\n    tag_357:\n        /* \"contracts/Template/Istanbul10/logic/Vote.sol\":5190:5192  60 */\n      0x3c\n        /* \"contracts/Template/Istanbul10/logic/Vote.sol\":5170:5175  _vote */\n      dup2\n        /* \"contracts/Template/Istanbul10/logic/Vote.sol\":5170:5184  _vote.supPopel */\n      0x06\n      add\n      sload\n        /* \"contracts/Template/Istanbul10/logic/Vote.sol\":5149:5154  _vote */\n      dup3\n        /* \"contracts/Template/Istanbul10/logic/Vote.sol\":5149:5167  _vote.againstPopel */\n      0x07\n      add\n      sload\n        /* \"contracts/Template/Istanbul10/logic/Vote.sol\":5149:5184  _vote.againstPopel + _vote.supPopel */\n      tag_360\n      swap2\n      swap1\n      tag_165\n      jump\t// in\n    tag_360:\n        /* \"contracts/Template/Istanbul10/logic/Vote.sol\":5142:5145  100 */\n      0x64\n        /* \"contracts/Template/Istanbul10/logic/Vote.sol\":5124:5129  _vote */\n      dup4\n        /* \"contracts/Template/Istanbul10/logic/Vote.sol\":5124:5138  _vote.supPopel */\n      0x06\n      add\n      sload\n        /* \"contracts/Template/Istanbul10/logic/Vote.sol\":5124:5145  _vote.supPopel *  100 */\n      tag_361\n      swap2\n      swap1\n      tag_152\n      jump\t// in\n    tag_361:\n        /* \"contracts/Template/Istanbul10/logic/Vote.sol\":5124:5185  _vote.supPopel *  100 / (_vote.againstPopel + _vote.supPopel) */\n      tag_362\n      swap2\n      swap1\n      tag_154\n      jump\t// in\n    tag_362:\n        /* \"contracts/Template/Istanbul10/logic/Vote.sol\":5124:5192  _vote.supPopel *  100 / (_vote.againstPopel + _vote.supPopel)  >= 60 */\n      lt\n      iszero\n        /* \"contracts/Template/Istanbul10/logic/Vote.sol\":5116:5229  require(_vote.supPopel *  100 / (_vote.againstPopel + _vote.supPopel)  >= 60,\"Less than 60% of the votes passed\") */\n      tag_363\n      jumpi\n      mload(0x40)\n      0x08c379a000000000000000000000000000000000000000000000000000000000\n      dup2\n      mstore\n      0x04\n      add\n      tag_364\n      swap1\n      tag_365\n      jump\t// in\n    tag_364:\n      mload(0x40)\n      dup1\n      swap2\n      sub\n      swap1\n      revert\n    tag_363:\n        /* \"contracts/Template/Istanbul10/logic/Vote.sol\":5260:5278  VoteStatus.succeed */\n      0x02\n        /* \"contracts/Template/Istanbul10/logic/Vote.sol\":5245:5250  _vote */\n      dup2\n        /* \"contracts/Template/Istanbul10/logic/Vote.sol\":5245:5257  _vote.status */\n      0x08\n      add\n      0x00\n        /* \"contracts/Template/Istanbul10/logic/Vote.sol\":5245:5278  _vote.status = VoteStatus.succeed */\n      0x0100\n      exp\n      dup2\n      sload\n      dup2\n      0xff\n      mul\n      not\n      and\n      swap1\n      dup4\n      0x06\n      dup2\n      gt\n      iszero\n      tag_366\n      jumpi\n      mstore(0x00, 0x4e487b7100000000000000000000000000000000000000000000000000000000)\n      mstore(0x04, 0x21)\n      revert(0x00, 0x24)\n    tag_366:\n      mul\n      or\n      swap1\n      sstore\n      pop\n        /* \"contracts/Template/Istanbul10/logic/Vote.sol\":5293:5338  _execute(voteId_,_vote.codeModel,_vote.value) */\n      tag_367\n        /* \"contracts/Template/Istanbul10/logic/Vote.sol\":5302:5309  voteId_ */\n      dup3\n        /* \"contracts/Template/Istanbul10/logic/Vote.sol\":5310:5315  _vote */\n      dup3\n        /* \"contracts/Template/Istanbul10/logic/Vote.sol\":5310:5325  _vote.codeModel */\n      0x09\n      add\n      sload\n        /* \"contracts/Template/Istanbul10/logic/Vote.sol\":5326:5331  _vote */\n      dup4\n        /* \"contracts/Template/Istanbul10/logic/Vote.sol\":5326:5337  _vote.value */\n      0x0a\n      add\n      sload\n        /* \"contracts/Template/Istanbul10/logic/Vote.sol\":5293:5301  _execute */\n      tag_368\n        /* \"contracts/Template/Istanbul10/logic/Vote.sol\":5293:5338  _execute(voteId_,_vote.codeModel,_vote.value) */\n      jump\t// in\n    tag_367:\n        /* \"contracts/Template/Istanbul10/logic/Vote.sol\":4857:5715  if(_vote.status == VoteStatus.isvoting){\r... */\n      jump(tag_369)\n    tag_351:\n        /* \"contracts/Template/Istanbul10/logic/Vote.sol\":5375:5398  VoteStatus.secondBallot */\n      0x05\n        /* \"contracts/Template/Istanbul10/logic/Vote.sol\":5359:5398  _vote.status == VoteStatus.secondBallot */\n      0x06\n      dup2\n      gt\n      iszero\n      tag_370\n      jumpi\n      mstore(0x00, 0x4e487b7100000000000000000000000000000000000000000000000000000000)\n      mstore(0x04, 0x21)\n      revert(0x00, 0x24)\n    tag_370:\n        /* \"contracts/Template/Istanbul10/logic/Vote.sol\":5359:5364  _vote */\n      dup2\n        /* \"contracts/Template/Istanbul10/logic/Vote.sol\":5359:5371  _vote.status */\n      0x08\n      add\n      0x00\n      swap1\n      sload\n      swap1\n      0x0100\n      exp\n      swap1\n      div\n      0xff\n      and\n        /* \"contracts/Template/Istanbul10/logic/Vote.sol\":5359:5398  _vote.status == VoteStatus.secondBallot */\n      0x06\n      dup2\n      gt\n      iszero\n      tag_371\n      jumpi\n      mstore(0x00, 0x4e487b7100000000000000000000000000000000000000000000000000000000)\n      mstore(0x04, 0x21)\n      revert(0x00, 0x24)\n    tag_371:\n      eq\n        /* \"contracts/Template/Istanbul10/logic/Vote.sol\":5356:5715  if(_vote.status == VoteStatus.secondBallot){\r... */\n      iszero\n      tag_372\n      jumpi\n        /* \"contracts/Template/Istanbul10/logic/Vote.sol\":5441:5446  _vote */\n      dup1\n        /* \"contracts/Template/Istanbul10/logic/Vote.sol\":5441:5451  _vote.time */\n      0x02\n      add\n      sload\n        /* \"contracts/Template/Istanbul10/logic/Vote.sol\":5422:5437  block.timestamp */\n      timestamp\n        /* \"contracts/Template/Istanbul10/logic/Vote.sol\":5422:5451  block.timestamp >= _vote.time */\n      lt\n      iszero\n        /* \"contracts/Template/Istanbul10/logic/Vote.sol\":5414:5480  require(block.timestamp >= _vote.time,\"Still in the voting phase\") */\n      tag_373\n      jumpi\n      mload(0x40)\n      0x08c379a000000000000000000000000000000000000000000000000000000000\n      dup2\n      mstore\n      0x04\n      add\n      tag_374\n      swap1\n      tag_168\n      jump\t// in\n    tag_374:\n      mload(0x40)\n      dup1\n      swap2\n      sub\n      swap1\n      revert\n    tag_373:\n        /* \"contracts/Template/Istanbul10/logic/Vote.sol\":5527:5532  _vote */\n      dup1\n        /* \"contracts/Template/Istanbul10/logic/Vote.sol\":5527:5541  _vote.supPopel */\n      0x06\n      add\n      sload\n        /* \"contracts/Template/Istanbul10/logic/Vote.sol\":5503:5508  _vote */\n      dup2\n        /* \"contracts/Template/Istanbul10/logic/Vote.sol\":5503:5514  _vote.svote */\n      0x0c\n      add\n        /* \"contracts/Template/Istanbul10/logic/Vote.sol\":5503:5523  _vote.svote.supPopel */\n      0x02\n      add\n      sload\n        /* \"contracts/Template/Istanbul10/logic/Vote.sol\":5503:5541  _vote.svote.supPopel >= _vote.supPopel */\n      lt\n      iszero\n        /* \"contracts/Template/Istanbul10/logic/Vote.sol\":5495:5595  require(_vote.svote.supPopel >= _vote.supPopel,\"The vote passed with fewer votes than the original\") */\n      tag_375\n      jumpi\n      mload(0x40)\n      0x08c379a000000000000000000000000000000000000000000000000000000000\n      dup2\n      mstore\n      0x04\n      add\n      tag_376\n      swap1\n      tag_377\n      jump\t// in\n    tag_376:\n      mload(0x40)\n      dup1\n      swap2\n      sub\n      swap1\n      revert\n    tag_375:\n        /* \"contracts/Template/Istanbul10/logic/Vote.sol\":5625:5643  VoteStatus.succeed */\n      0x02\n        /* \"contracts/Template/Istanbul10/logic/Vote.sol\":5610:5615  _vote */\n      dup2\n        /* \"contracts/Template/Istanbul10/logic/Vote.sol\":5610:5622  _vote.status */\n      0x08\n      add\n      0x00\n        /* \"contracts/Template/Istanbul10/logic/Vote.sol\":5610:5643  _vote.status = VoteStatus.succeed */\n      0x0100\n      exp\n      dup2\n      sload\n      dup2\n      0xff\n      mul\n      not\n      and\n      swap1\n      dup4\n      0x06\n      dup2\n      gt\n      iszero\n      tag_378\n      jumpi\n      mstore(0x00, 0x4e487b7100000000000000000000000000000000000000000000000000000000)\n      mstore(0x04, 0x21)\n      revert(0x00, 0x24)\n    tag_378:\n      mul\n      or\n      swap1\n      sstore\n      pop\n        /* \"contracts/Template/Istanbul10/logic/Vote.sol\":5658:5703  _execute(voteId_,_vote.codeModel,_vote.value) */\n      tag_379\n        /* \"contracts/Template/Istanbul10/logic/Vote.sol\":5667:5674  voteId_ */\n      dup3\n        /* \"contracts/Template/Istanbul10/logic/Vote.sol\":5675:5680  _vote */\n      dup3\n        /* \"contracts/Template/Istanbul10/logic/Vote.sol\":5675:5690  _vote.codeModel */\n      0x09\n      add\n      sload\n        /* \"contracts/Template/Istanbul10/logic/Vote.sol\":5691:5696  _vote */\n      dup4\n        /* \"contracts/Template/Istanbul10/logic/Vote.sol\":5691:5702  _vote.value */\n      0x0a\n      add\n      sload\n        /* \"contracts/Template/Istanbul10/logic/Vote.sol\":5658:5666  _execute */\n      tag_368\n        /* \"contracts/Template/Istanbul10/logic/Vote.sol\":5658:5703  _execute(voteId_,_vote.codeModel,_vote.value) */\n      jump\t// in\n    tag_379:\n        /* \"contracts/Template/Istanbul10/logic/Vote.sol\":5356:5715  if(_vote.status == VoteStatus.secondBallot){\r... */\n    tag_372:\n        /* \"contracts/Template/Istanbul10/logic/Vote.sol\":4857:5715  if(_vote.status == VoteStatus.isvoting){\r... */\n    tag_369:\n        /* \"contracts/Template/Istanbul10/logic/Vote.sol\":5745:5752  voteId_ */\n      dup2\n        /* \"contracts/Template/Istanbul10/logic/Vote.sol\":5732:5753  ExecuteEvent(voteId_) */\n      0xa6b4889fbc6222293f94ac3c68c40fa4c027b86b0dfe4f820475c7d8828a2436\n      mload(0x40)\n      mload(0x40)\n      dup1\n      swap2\n      sub\n      swap1\n      log2\n        /* \"contracts/Template/Istanbul10/logic/Vote.sol\":4594:5761  function execute(uint256 voteId_) external override {\r... */\n      pop\n      pop\n      jump\t// out\n        /* \"contracts/Template/Istanbul10/logic/Vote.sol\":9289:9399  function onlyWhiteList() private returns(bool){\r... */\n    tag_283:\n        /* \"contracts/Template/Istanbul10/logic/Vote.sol\":9330:9334  bool */\n      0x00\n        /* \"contracts/Template/Istanbul10/logic/Vote.sol\":9362:9368  router */\n      0x02\n      0x00\n      swap1\n      sload\n      swap1\n      0x0100\n      exp\n      swap1\n      div\n      0xffffffffffffffffffffffffffffffffffffffff\n      and\n        /* \"contracts/Template/Istanbul10/logic/Vote.sol\":9350:9379  IRouterData(router).whiteList */\n      0xffffffffffffffffffffffffffffffffffffffff\n      and\n      0x372c12b1\n        /* \"contracts/Template/Istanbul10/logic/Vote.sol\":9380:9390  msg.sender */\n      caller\n        /* \"contracts/Template/Istanbul10/logic/Vote.sol\":9350:9391  IRouterData(router).whiteList(msg.sender) */\n      mload(0x40)\n      dup3\n      0xffffffff\n      and\n      0xe0\n      shl\n      dup2\n      mstore\n      0x04\n      add\n      tag_381\n      swap2\n      swap1\n      tag_49\n      jump\t// in\n    tag_381:\n      0x20\n      mload(0x40)\n      dup1\n      dup4\n      sub\n      dup2\n      dup7\n      dup1\n      extcodesize\n      iszero\n      dup1\n      iszero\n      tag_382\n      jumpi\n      0x00\n      dup1\n      revert\n    tag_382:\n      pop\n      gas\n      staticcall\n      iszero\n      dup1\n      iszero\n      tag_384\n      jumpi\n      returndatasize\n      0x00\n      dup1\n      returndatacopy\n      revert(0x00, returndatasize)\n    tag_384:\n      pop\n      pop\n      pop\n      pop\n      mload(0x40)\n      returndatasize\n      not(0x1f)\n      0x1f\n      dup3\n      add\n      and\n      dup3\n      add\n      dup1\n      0x40\n      mstore\n      pop\n      dup2\n      add\n      swap1\n      tag_385\n      swap2\n      swap1\n      tag_386\n      jump\t// in\n    tag_385:\n        /* \"contracts/Template/Istanbul10/logic/Vote.sol\":9343:9391  return IRouterData(router).whiteList(msg.sender) */\n      swap1\n      pop\n        /* \"contracts/Template/Istanbul10/logic/Vote.sol\":9289:9399  function onlyWhiteList() private returns(bool){\r... */\n      swap1\n      jump\t// out\n        /* \"contracts/Template/Istanbul10/logic/Vote.sol\":5774:6114  function _execute(uint256 voteId_,uint256 codeModel_,uint256 value_)private {\r... */\n    tag_368:\n        /* \"contracts/Template/Istanbul10/logic/Vote.sol\":5860:5874  address tarGet */\n      0x00\n        /* \"contracts/Template/Istanbul10/logic/Vote.sol\":5877:5885  template */\n      0x08\n        /* \"contracts/Template/Istanbul10/logic/Vote.sol\":5877:5897  template[codeModel_] */\n      0x00\n        /* \"contracts/Template/Istanbul10/logic/Vote.sol\":5886:5896  codeModel_ */\n      dup5\n        /* \"contracts/Template/Istanbul10/logic/Vote.sol\":5877:5897  template[codeModel_] */\n      dup2\n      mstore\n      0x20\n      add\n      swap1\n      dup2\n      mstore\n      0x20\n      add\n      0x00\n      keccak256\n        /* \"contracts/Template/Istanbul10/logic/Vote.sol\":5877:5911  template[codeModel_].targetAddress */\n      0x02\n      add\n      0x00\n      swap1\n      sload\n      swap1\n      0x0100\n      exp\n      swap1\n      div\n      0xffffffffffffffffffffffffffffffffffffffff\n      and\n        /* \"contracts/Template/Istanbul10/logic/Vote.sol\":5860:5911  address tarGet = template[codeModel_].targetAddress */\n      swap1\n      pop\n        /* \"contracts/Template/Istanbul10/logic/Vote.sol\":5947:5948  0 */\n      0x00\n        /* \"contracts/Template/Istanbul10/logic/Vote.sol\":5929:5949  tarGet != address(0) */\n      0xffffffffffffffffffffffffffffffffffffffff\n      and\n        /* \"contracts/Template/Istanbul10/logic/Vote.sol\":5929:5935  tarGet */\n      dup2\n        /* \"contracts/Template/Istanbul10/logic/Vote.sol\":5929:5949  tarGet != address(0) */\n      0xffffffffffffffffffffffffffffffffffffffff\n      and\n      eq\n      iszero\n        /* \"contracts/Template/Istanbul10/logic/Vote.sol\":5921:5981  require(tarGet != address(0), \"Governance Template is null\") */\n      tag_388\n      jumpi\n      mload(0x40)\n      0x08c379a000000000000000000000000000000000000000000000000000000000\n      dup2\n      mstore\n      0x04\n      add\n      tag_389\n      swap1\n      tag_390\n      jump\t// in\n    tag_389:\n      mload(0x40)\n      dup1\n      swap2\n      sub\n      swap1\n      revert\n    tag_388:\n        /* \"contracts/Template/Istanbul10/logic/Vote.sol\":5991:6003  executeQueue */\n      0x05\n        /* \"contracts/Template/Istanbul10/logic/Vote.sol\":6009:6016  voteId_ */\n      dup5\n        /* \"contracts/Template/Istanbul10/logic/Vote.sol\":5991:6017  executeQueue.push(voteId_) */\n      swap1\n      dup1\n      0x01\n      dup2\n      sload\n      add\n      dup1\n      dup3\n      sstore\n      dup1\n      swap2\n      pop\n      pop\n      0x01\n      swap1\n      sub\n      swap1\n      0x00\n      mstore\n      keccak256(0x00, 0x20)\n      add\n      0x00\n      swap1\n      swap2\n      swap1\n      swap2\n      swap1\n      swap2\n      pop\n      sstore\n        /* \"contracts/Template/Istanbul10/logic/Vote.sol\":6054:6058  true */\n      0x01\n        /* \"contracts/Template/Istanbul10/logic/Vote.sol\":6027:6042  executeQueueMap */\n      0x09\n        /* \"contracts/Template/Istanbul10/logic/Vote.sol\":6027:6051  executeQueueMap[voteId_] */\n      0x00\n        /* \"contracts/Template/Istanbul10/logic/Vote.sol\":6043:6050  voteId_ */\n      dup7\n        /* \"contracts/Template/Istanbul10/logic/Vote.sol\":6027:6051  executeQueueMap[voteId_] */\n      dup2\n      mstore\n      0x20\n      add\n      swap1\n      dup2\n      mstore\n      0x20\n      add\n      0x00\n      keccak256\n      0x00\n        /* \"contracts/Template/Istanbul10/logic/Vote.sol\":6027:6058  executeQueueMap[voteId_] = true */\n      0x0100\n      exp\n      dup2\n      sload\n      dup2\n      0xff\n      mul\n      not\n      and\n      swap1\n      dup4\n      iszero\n      iszero\n      mul\n      or\n      swap1\n      sstore\n      pop\n        /* \"contracts/Template/Istanbul10/logic/Vote.sol\":6068:6106  _governanceTemplate(codeModel_,value_) */\n      tag_392\n        /* \"contracts/Template/Istanbul10/logic/Vote.sol\":6088:6098  codeModel_ */\n      dup4\n        /* \"contracts/Template/Istanbul10/logic/Vote.sol\":6099:6105  value_ */\n      dup4\n        /* \"contracts/Template/Istanbul10/logic/Vote.sol\":6068:6087  _governanceTemplate */\n      tag_393\n        /* \"contracts/Template/Istanbul10/logic/Vote.sol\":6068:6106  _governanceTemplate(codeModel_,value_) */\n      jump\t// in\n    tag_392:\n        /* \"contracts/Template/Istanbul10/logic/Vote.sol\":5774:6114  function _execute(uint256 voteId_,uint256 codeModel_,uint256 value_)private {\r... */\n      pop\n      pop\n      pop\n      pop\n      jump\t// out\n        /* \"contracts/Template/Istanbul10/logic/Vote.sol\":6598:6942  function _governanceTemplate(uint256 num,uint256  valaue) private {\r... */\n    tag_393:\n        /* \"contracts/Template/Istanbul10/logic/Vote.sol\":6675:6689  address tarGet */\n      0x00\n        /* \"contracts/Template/Istanbul10/logic/Vote.sol\":6692:6700  template */\n      0x08\n        /* \"contracts/Template/Istanbul10/logic/Vote.sol\":6692:6705  template[num] */\n      0x00\n        /* \"contracts/Template/Istanbul10/logic/Vote.sol\":6701:6704  num */\n      dup5\n        /* \"contracts/Template/Istanbul10/logic/Vote.sol\":6692:6705  template[num] */\n      dup2\n      mstore\n      0x20\n      add\n      swap1\n      dup2\n      mstore\n      0x20\n      add\n      0x00\n      keccak256\n        /* \"contracts/Template/Istanbul10/logic/Vote.sol\":6692:6719  template[num].targetAddress */\n      0x02\n      add\n      0x00\n      swap1\n      sload\n      swap1\n      0x0100\n      exp\n      swap1\n      div\n      0xffffffffffffffffffffffffffffffffffffffff\n      and\n        /* \"contracts/Template/Istanbul10/logic/Vote.sol\":6675:6719  address tarGet = template[num].targetAddress */\n      swap1\n      pop\n        /* \"contracts/Template/Istanbul10/logic/Vote.sol\":6730:6756  string memory functionName */\n      0x00\n        /* \"contracts/Template/Istanbul10/logic/Vote.sol\":6759:6767  template */\n      0x08\n        /* \"contracts/Template/Istanbul10/logic/Vote.sol\":6759:6772  template[num] */\n      0x00\n        /* \"contracts/Template/Istanbul10/logic/Vote.sol\":6768:6771  num */\n      dup6\n        /* \"contracts/Template/Istanbul10/logic/Vote.sol\":6759:6772  template[num] */\n      dup2\n      mstore\n      0x20\n      add\n      swap1\n      dup2\n      mstore\n      0x20\n      add\n      0x00\n      keccak256\n        /* \"contracts/Template/Istanbul10/logic/Vote.sol\":6759:6785  template[num].functionName */\n      0x03\n      add\n        /* \"contracts/Template/Istanbul10/logic/Vote.sol\":6730:6785  string memory functionName = template[num].functionName */\n      dup1\n      sload\n      tag_395\n      swap1\n      tag_124\n      jump\t// in\n    tag_395:\n      dup1\n      0x1f\n      add\n      0x20\n      dup1\n      swap2\n      div\n      mul\n      0x20\n      add\n      mload(0x40)\n      swap1\n      dup2\n      add\n      0x40\n      mstore\n      dup1\n      swap3\n      swap2\n      swap1\n      dup2\n      dup2\n      mstore\n      0x20\n      add\n      dup3\n      dup1\n      sload\n      tag_396\n      swap1\n      tag_124\n      jump\t// in\n    tag_396:\n      dup1\n      iszero\n      tag_397\n      jumpi\n      dup1\n      0x1f\n      lt\n      tag_398\n      jumpi\n      0x0100\n      dup1\n      dup4\n      sload\n      div\n      mul\n      dup4\n      mstore\n      swap2\n      0x20\n      add\n      swap2\n      jump(tag_397)\n    tag_398:\n      dup3\n      add\n      swap2\n      swap1\n      0x00\n      mstore\n      keccak256(0x00, 0x20)\n      swap1\n    tag_399:\n      dup2\n      sload\n      dup2\n      mstore\n      swap1\n      0x01\n      add\n      swap1\n      0x20\n      add\n      dup1\n      dup4\n      gt\n      tag_399\n      jumpi\n      dup3\n      swap1\n      sub\n      0x1f\n      and\n      dup3\n      add\n      swap2\n    tag_397:\n      pop\n      pop\n      pop\n      pop\n      pop\n      swap1\n      pop\n        /* \"contracts/Template/Istanbul10/logic/Vote.sol\":6797:6805  bool _ok */\n      0x00\n        /* \"contracts/Template/Istanbul10/logic/Vote.sol\":6807:6830  bytes memory returnData */\n      dup1\n        /* \"contracts/Template/Istanbul10/logic/Vote.sol\":6834:6840  tarGet */\n      dup4\n        /* \"contracts/Template/Istanbul10/logic/Vote.sol\":6834:6845  tarGet.call */\n      0xffffffffffffffffffffffffffffffffffffffff\n      and\n        /* \"contracts/Template/Istanbul10/logic/Vote.sol\":6870:6882  functionName */\n      dup4\n        /* \"contracts/Template/Istanbul10/logic/Vote.sol\":6883:6889  valaue */\n      dup7\n        /* \"contracts/Template/Istanbul10/logic/Vote.sol\":6846:6890  abi.encodeWithSignature(functionName,valaue) */\n      add(0x24, mload(0x40))\n      tag_400\n      swap2\n      swap1\n      tag_31\n      jump\t// in\n    tag_400:\n      mload(0x40)\n      0x20\n      dup2\n      dup4\n      sub\n      sub\n      dup2\n      mstore\n      swap1\n      0x40\n      mstore\n      swap1\n      mload(0x40)\n      tag_401\n      swap2\n      swap1\n      tag_320\n      jump\t// in\n    tag_401:\n      mload(0x40)\n      dup1\n      swap2\n      sub\n      swap1\n      keccak256\n      not(0xffffffffffffffffffffffffffffffffffffffffffffffffffffffff)\n      and\n      0x20\n      dup3\n      add\n      dup1\n      mload\n      0xffffffffffffffffffffffffffffffffffffffffffffffffffffffff\n      dup4\n      dup2\n      dup4\n      and\n      or\n      dup4\n      mstore\n      pop\n      pop\n      pop\n      pop\n        /* \"contracts/Template/Istanbul10/logic/Vote.sol\":6834:6891  tarGet.call(abi.encodeWithSignature(functionName,valaue)) */\n      mload(0x40)\n      tag_402\n      swap2\n      swap1\n      tag_403\n      jump\t// in\n    tag_402:\n      0x00\n      mload(0x40)\n      dup1\n      dup4\n      sub\n      dup2\n      0x00\n      dup7\n      gas\n      call\n      swap2\n      pop\n      pop\n      returndatasize\n      dup1\n      0x00\n      dup2\n      eq\n      tag_406\n      jumpi\n      mload(0x40)\n      swap2\n      pop\n      and(add(returndatasize, 0x3f), not(0x1f))\n      dup3\n      add\n      0x40\n      mstore\n      returndatasize\n      dup3\n      mstore\n      returndatasize\n      0x00\n      0x20\n      dup5\n      add\n      returndatacopy\n      jump(tag_405)\n    tag_406:\n      0x60\n      swap2\n      pop\n    tag_405:\n      pop\n        /* \"contracts/Template/Istanbul10/logic/Vote.sol\":6796:6891  (bool _ok, bytes memory returnData) = tarGet.call(abi.encodeWithSignature(functionName,valaue)) */\n      swap2\n      pop\n      swap2\n      pop\n        /* \"contracts/Template/Istanbul10/logic/Vote.sol\":6910:6913  _ok */\n      dup2\n        /* \"contracts/Template/Istanbul10/logic/Vote.sol\":6922:6932  returnData */\n      dup2\n        /* \"contracts/Template/Istanbul10/logic/Vote.sol\":6902:6934  require(_ok, string(returnData)) */\n      swap1\n      tag_407\n      jumpi\n      mload(0x40)\n      0x08c379a000000000000000000000000000000000000000000000000000000000\n      dup2\n      mstore\n      0x04\n      add\n      tag_408\n      swap2\n      swap1\n      tag_179\n      jump\t// in\n    tag_408:\n      mload(0x40)\n      dup1\n      swap2\n      sub\n      swap1\n      revert\n    tag_407:\n      pop\n        /* \"contracts/Template/Istanbul10/logic/Vote.sol\":6598:6942  function _governanceTemplate(uint256 num,uint256  valaue) private {\r... */\n      pop\n      pop\n      pop\n      pop\n      pop\n      pop\n      jump\t// out\n    tag_119:\n      mload(0x40)\n      dup1\n      0x80\n      add\n      0x40\n      mstore\n      dup1\n      0x00\n      dup2\n      mstore\n      0x20\n      add\n      0x60\n      dup2\n      mstore\n      0x20\n      add\n      and(0xffffffffffffffffffffffffffffffffffffffff, 0x00)\n      dup2\n      mstore\n      0x20\n      add\n      0x60\n      dup2\n      mstore\n      pop\n      swap1\n      jump\t// out\n    tag_176:\n      dup3\n      dup1\n      sload\n      tag_409\n      swap1\n      tag_124\n      jump\t// in\n    tag_409:\n      swap1\n      0x00\n      mstore\n      keccak256(0x00, 0x20)\n      swap1\n      0x1f\n      add\n      0x20\n      swap1\n      div\n      dup2\n      add\n      swap3\n      dup3\n      tag_411\n      jumpi\n      0x00\n      dup6\n      sstore\n      jump(tag_410)\n    tag_411:\n      dup3\n      0x1f\n      lt\n      tag_412\n      jumpi\n      dup1\n      mload\n      not(0xff)\n      and\n      dup4\n      dup1\n      add\n      or\n      dup6\n      sstore\n      jump(tag_410)\n    tag_412:\n      dup3\n      dup1\n      add\n      0x01\n      add\n      dup6\n      sstore\n      dup3\n      iszero\n      tag_410\n      jumpi\n      swap2\n      dup3\n      add\n    tag_413:\n      dup3\n      dup2\n      gt\n      iszero\n      tag_414\n      jumpi\n      dup3\n      mload\n      dup3\n      sstore\n      swap2\n      0x20\n      add\n      swap2\n      swap1\n      0x01\n      add\n      swap1\n      jump(tag_413)\n    tag_414:\n    tag_410:\n      pop\n      swap1\n      pop\n      tag_415\n      swap2\n      swap1\n      tag_416\n      jump\t// in\n    tag_415:\n      pop\n      swap1\n      jump\t// out\n    tag_416:\n    tag_417:\n      dup1\n      dup3\n      gt\n      iszero\n      tag_418\n      jumpi\n      0x00\n      dup2\n      0x00\n      swap1\n      sstore\n      pop\n      0x01\n      add\n      jump(tag_417)\n    tag_418:\n      pop\n      swap1\n      jump\t// out\n        /* \"#utility.yul\":7:351   */\n    tag_420:\n      0x00\n        /* \"#utility.yul\":110:175   */\n      tag_422\n        /* \"#utility.yul\":125:174   */\n      tag_423\n        /* \"#utility.yul\":167:173   */\n      dup5\n        /* \"#utility.yul\":125:174   */\n      tag_424\n      jump\t// in\n    tag_423:\n        /* \"#utility.yul\":110:175   */\n      tag_425\n      jump\t// in\n    tag_422:\n        /* \"#utility.yul\":101:175   */\n      swap1\n      pop\n        /* \"#utility.yul\":198:204   */\n      dup3\n        /* \"#utility.yul\":191:196   */\n      dup2\n        /* \"#utility.yul\":184:205   */\n      mstore\n        /* \"#utility.yul\":236:240   */\n      0x20\n        /* \"#utility.yul\":229:234   */\n      dup2\n        /* \"#utility.yul\":225:241   */\n      add\n        /* \"#utility.yul\":274:277   */\n      dup5\n        /* \"#utility.yul\":265:271   */\n      dup5\n        /* \"#utility.yul\":260:263   */\n      dup5\n        /* \"#utility.yul\":256:272   */\n      add\n        /* \"#utility.yul\":253:278   */\n      gt\n        /* \"#utility.yul\":250:252   */\n      iszero\n      tag_426\n      jumpi\n        /* \"#utility.yul\":291:292   */\n      0x00\n        /* \"#utility.yul\":288:289   */\n      dup1\n        /* \"#utility.yul\":281:293   */\n      revert\n        /* \"#utility.yul\":250:252   */\n    tag_426:\n        /* \"#utility.yul\":304:345   */\n      tag_427\n        /* \"#utility.yul\":338:344   */\n      dup5\n        /* \"#utility.yul\":333:336   */\n      dup3\n        /* \"#utility.yul\":328:331   */\n      dup6\n        /* \"#utility.yul\":304:345   */\n      tag_428\n      jump\t// in\n    tag_427:\n        /* \"#utility.yul\":91:351   */\n      pop\n      swap4\n      swap3\n      pop\n      pop\n      pop\n      jump\t// out\n        /* \"#utility.yul\":357:496   */\n    tag_429:\n      0x00\n        /* \"#utility.yul\":441:447   */\n      dup2\n        /* \"#utility.yul\":428:448   */\n      calldataload\n        /* \"#utility.yul\":419:448   */\n      swap1\n      pop\n        /* \"#utility.yul\":457:490   */\n      tag_431\n        /* \"#utility.yul\":484:489   */\n      dup2\n        /* \"#utility.yul\":457:490   */\n      tag_432\n      jump\t// in\n    tag_431:\n        /* \"#utility.yul\":409:496   */\n      swap3\n      swap2\n      pop\n      pop\n      jump\t// out\n        /* \"#utility.yul\":502:645   */\n    tag_433:\n      0x00\n        /* \"#utility.yul\":590:596   */\n      dup2\n        /* \"#utility.yul\":584:597   */\n      mload\n        /* \"#utility.yul\":575:597   */\n      swap1\n      pop\n        /* \"#utility.yul\":606:639   */\n      tag_435\n        /* \"#utility.yul\":633:638   */\n      dup2\n        /* \"#utility.yul\":606:639   */\n      tag_432\n      jump\t// in\n    tag_435:\n        /* \"#utility.yul\":565:645   */\n      swap3\n      swap2\n      pop\n      pop\n      jump\t// out\n        /* \"#utility.yul\":651:784   */\n    tag_436:\n      0x00\n        /* \"#utility.yul\":732:738   */\n      dup2\n        /* \"#utility.yul\":719:739   */\n      calldataload\n        /* \"#utility.yul\":710:739   */\n      swap1\n      pop\n        /* \"#utility.yul\":748:778   */\n      tag_438\n        /* \"#utility.yul\":772:777   */\n      dup2\n        /* \"#utility.yul\":748:778   */\n      tag_439\n      jump\t// in\n    tag_438:\n        /* \"#utility.yul\":700:784   */\n      swap3\n      swap2\n      pop\n      pop\n      jump\t// out\n        /* \"#utility.yul\":790:927   */\n    tag_440:\n      0x00\n        /* \"#utility.yul\":875:881   */\n      dup2\n        /* \"#utility.yul\":869:882   */\n      mload\n        /* \"#utility.yul\":860:882   */\n      swap1\n      pop\n        /* \"#utility.yul\":891:921   */\n      tag_442\n        /* \"#utility.yul\":915:920   */\n      dup2\n        /* \"#utility.yul\":891:921   */\n      tag_439\n      jump\t// in\n    tag_442:\n        /* \"#utility.yul\":850:927   */\n      swap3\n      swap2\n      pop\n      pop\n      jump\t// out\n        /* \"#utility.yul\":947:1220   */\n    tag_443:\n      0x00\n        /* \"#utility.yul\":1052:1055   */\n      dup3\n        /* \"#utility.yul\":1045:1049   */\n      0x1f\n        /* \"#utility.yul\":1037:1043   */\n      dup4\n        /* \"#utility.yul\":1033:1050   */\n      add\n        /* \"#utility.yul\":1029:1056   */\n      slt\n        /* \"#utility.yul\":1019:1021   */\n      tag_445\n      jumpi\n        /* \"#utility.yul\":1070:1071   */\n      0x00\n        /* \"#utility.yul\":1067:1068   */\n      dup1\n        /* \"#utility.yul\":1060:1072   */\n      revert\n        /* \"#utility.yul\":1019:1021   */\n    tag_445:\n        /* \"#utility.yul\":1110:1116   */\n      dup2\n        /* \"#utility.yul\":1097:1117   */\n      calldataload\n        /* \"#utility.yul\":1135:1214   */\n      tag_446\n        /* \"#utility.yul\":1210:1213   */\n      dup5\n        /* \"#utility.yul\":1202:1208   */\n      dup3\n        /* \"#utility.yul\":1195:1199   */\n      0x20\n        /* \"#utility.yul\":1187:1193   */\n      dup7\n        /* \"#utility.yul\":1183:1200   */\n      add\n        /* \"#utility.yul\":1135:1214   */\n      tag_420\n      jump\t// in\n    tag_446:\n        /* \"#utility.yul\":1126:1214   */\n      swap2\n      pop\n        /* \"#utility.yul\":1009:1220   */\n      pop\n      swap3\n      swap2\n      pop\n      pop\n      jump\t// out\n        /* \"#utility.yul\":1226:1365   */\n    tag_447:\n      0x00\n        /* \"#utility.yul\":1310:1316   */\n      dup2\n        /* \"#utility.yul\":1297:1317   */\n      calldataload\n        /* \"#utility.yul\":1288:1317   */\n      swap1\n      pop\n        /* \"#utility.yul\":1326:1359   */\n      tag_449\n        /* \"#utility.yul\":1353:1358   */\n      dup2\n        /* \"#utility.yul\":1326:1359   */\n      tag_450\n      jump\t// in\n    tag_449:\n        /* \"#utility.yul\":1278:1365   */\n      swap3\n      swap2\n      pop\n      pop\n      jump\t// out\n        /* \"#utility.yul\":1371:1514   */\n    tag_451:\n      0x00\n        /* \"#utility.yul\":1459:1465   */\n      dup2\n        /* \"#utility.yul\":1453:1466   */\n      mload\n        /* \"#utility.yul\":1444:1466   */\n      swap1\n      pop\n        /* \"#utility.yul\":1475:1508   */\n      tag_453\n        /* \"#utility.yul\":1502:1507   */\n      dup2\n        /* \"#utility.yul\":1475:1508   */\n      tag_450\n      jump\t// in\n    tag_453:\n        /* \"#utility.yul\":1434:1514   */\n      swap3\n      swap2\n      pop\n      pop\n      jump\t// out\n        /* \"#utility.yul\":1520:1804   */\n    tag_142:\n      0x00\n        /* \"#utility.yul\":1639:1641   */\n      0x20\n        /* \"#utility.yul\":1627:1636   */\n      dup3\n        /* \"#utility.yul\":1618:1625   */\n      dup5\n        /* \"#utility.yul\":1614:1637   */\n      sub\n        /* \"#utility.yul\":1610:1642   */\n      slt\n        /* \"#utility.yul\":1607:1609   */\n      iszero\n      tag_455\n      jumpi\n        /* \"#utility.yul\":1655:1656   */\n      0x00\n        /* \"#utility.yul\":1652:1653   */\n      dup1\n        /* \"#utility.yul\":1645:1657   */\n      revert\n        /* \"#utility.yul\":1607:1609   */\n    tag_455:\n        /* \"#utility.yul\":1698:1699   */\n      0x00\n        /* \"#utility.yul\":1723:1787   */\n      tag_456\n        /* \"#utility.yul\":1779:1786   */\n      dup5\n        /* \"#utility.yul\":1770:1776   */\n      dup3\n        /* \"#utility.yul\":1759:1768   */\n      dup6\n        /* \"#utility.yul\":1755:1777   */\n      add\n        /* \"#utility.yul\":1723:1787   */\n      tag_433\n      jump\t// in\n    tag_456:\n        /* \"#utility.yul\":1713:1787   */\n      swap2\n      pop\n        /* \"#utility.yul\":1669:1797   */\n      pop\n        /* \"#utility.yul\":1597:1804   */\n      swap3\n      swap2\n      pop\n      pop\n      jump\t// out\n        /* \"#utility.yul\":1810:2088   */\n    tag_386:\n      0x00\n        /* \"#utility.yul\":1926:1928   */\n      0x20\n        /* \"#utility.yul\":1914:1923   */\n      dup3\n        /* \"#utility.yul\":1905:1912   */\n      dup5\n        /* \"#utility.yul\":1901:1924   */\n      sub\n        /* \"#utility.yul\":1897:1929   */\n      slt\n        /* \"#utility.yul\":1894:1896   */\n      iszero\n      tag_458\n      jumpi\n        /* \"#utility.yul\":1942:1943   */\n      0x00\n        /* \"#utility.yul\":1939:1940   */\n      dup1\n        /* \"#utility.yul\":1932:1944   */\n      revert\n        /* \"#utility.yul\":1894:1896   */\n    tag_458:\n        /* \"#utility.yul\":1985:1986   */\n      0x00\n        /* \"#utility.yul\":2010:2071   */\n      tag_459\n        /* \"#utility.yul\":2063:2070   */\n      dup5\n        /* \"#utility.yul\":2054:2060   */\n      dup3\n        /* \"#utility.yul\":2043:2052   */\n      dup6\n        /* \"#utility.yul\":2039:2061   */\n      add\n        /* \"#utility.yul\":2010:2071   */\n      tag_440\n      jump\t// in\n    tag_459:\n        /* \"#utility.yul\":2000:2071   */\n      swap2\n      pop\n        /* \"#utility.yul\":1956:2081   */\n      pop\n        /* \"#utility.yul\":1884:2088   */\n      swap3\n      swap2\n      pop\n      pop\n      jump\t// out\n        /* \"#utility.yul\":2094:2872   */\n    tag_92:\n      0x00\n      dup1\n      0x00\n        /* \"#utility.yul\":2256:2258   */\n      0x60\n        /* \"#utility.yul\":2244:2253   */\n      dup5\n        /* \"#utility.yul\":2235:2242   */\n      dup7\n        /* \"#utility.yul\":2231:2254   */\n      sub\n        /* \"#utility.yul\":2227:2259   */\n      slt\n        /* \"#utility.yul\":2224:2226   */\n      iszero\n      tag_461\n      jumpi\n        /* \"#utility.yul\":2272:2273   */\n      0x00\n        /* \"#utility.yul\":2269:2270   */\n      dup1\n        /* \"#utility.yul\":2262:2274   */\n      revert\n        /* \"#utility.yul\":2224:2226   */\n    tag_461:\n        /* \"#utility.yul\":2343:2344   */\n      0x00\n        /* \"#utility.yul\":2332:2341   */\n      dup5\n        /* \"#utility.yul\":2328:2345   */\n      add\n        /* \"#utility.yul\":2315:2346   */\n      calldataload\n        /* \"#utility.yul\":2373:2391   */\n      0xffffffffffffffff\n        /* \"#utility.yul\":2365:2371   */\n      dup2\n        /* \"#utility.yul\":2362:2392   */\n      gt\n        /* \"#utility.yul\":2359:2361   */\n      iszero\n      tag_462\n      jumpi\n        /* \"#utility.yul\":2405:2406   */\n      0x00\n        /* \"#utility.yul\":2402:2403   */\n      dup1\n        /* \"#utility.yul\":2395:2407   */\n      revert\n        /* \"#utility.yul\":2359:2361   */\n    tag_462:\n        /* \"#utility.yul\":2433:2496   */\n      tag_463\n        /* \"#utility.yul\":2488:2495   */\n      dup7\n        /* \"#utility.yul\":2479:2485   */\n      dup3\n        /* \"#utility.yul\":2468:2477   */\n      dup8\n        /* \"#utility.yul\":2464:2486   */\n      add\n        /* \"#utility.yul\":2433:2496   */\n      tag_443\n      jump\t// in\n    tag_463:\n        /* \"#utility.yul\":2423:2496   */\n      swap4\n      pop\n        /* \"#utility.yul\":2286:2506   */\n      pop\n        /* \"#utility.yul\":2545:2547   */\n      0x20\n        /* \"#utility.yul\":2571:2624   */\n      tag_464\n        /* \"#utility.yul\":2616:2623   */\n      dup7\n        /* \"#utility.yul\":2607:2613   */\n      dup3\n        /* \"#utility.yul\":2596:2605   */\n      dup8\n        /* \"#utility.yul\":2592:2614   */\n      add\n        /* \"#utility.yul\":2571:2624   */\n      tag_429\n      jump\t// in\n    tag_464:\n        /* \"#utility.yul\":2561:2624   */\n      swap3\n      pop\n        /* \"#utility.yul\":2516:2634   */\n      pop\n        /* \"#utility.yul\":2701:2703   */\n      0x40\n        /* \"#utility.yul\":2690:2699   */\n      dup5\n        /* \"#utility.yul\":2686:2704   */\n      add\n        /* \"#utility.yul\":2673:2705   */\n      calldataload\n        /* \"#utility.yul\":2732:2750   */\n      0xffffffffffffffff\n        /* \"#utility.yul\":2724:2730   */\n      dup2\n        /* \"#utility.yul\":2721:2751   */\n      gt\n        /* \"#utility.yul\":2718:2720   */\n      iszero\n      tag_465\n      jumpi\n        /* \"#utility.yul\":2764:2765   */\n      0x00\n        /* \"#utility.yul\":2761:2762   */\n      dup1\n        /* \"#utility.yul\":2754:2766   */\n      revert\n        /* \"#utility.yul\":2718:2720   */\n    tag_465:\n        /* \"#utility.yul\":2792:2855   */\n      tag_466\n        /* \"#utility.yul\":2847:2854   */\n      dup7\n        /* \"#utility.yul\":2838:2844   */\n      dup3\n        /* \"#utility.yul\":2827:2836   */\n      dup8\n        /* \"#utility.yul\":2823:2845   */\n      add\n        /* \"#utility.yul\":2792:2855   */\n      tag_443\n      jump\t// in\n    tag_466:\n        /* \"#utility.yul\":2782:2855   */\n      swap2\n      pop\n        /* \"#utility.yul\":2644:2865   */\n      pop\n        /* \"#utility.yul\":2214:2872   */\n      swap3\n      pop\n      swap3\n      pop\n      swap3\n      jump\t// out\n        /* \"#utility.yul\":2878:3802   */\n    tag_104:\n      0x00\n      dup1\n      0x00\n      dup1\n        /* \"#utility.yul\":3057:3060   */\n      0x80\n        /* \"#utility.yul\":3045:3054   */\n      dup6\n        /* \"#utility.yul\":3036:3043   */\n      dup8\n        /* \"#utility.yul\":3032:3055   */\n      sub\n        /* \"#utility.yul\":3028:3061   */\n      slt\n        /* \"#utility.yul\":3025:3027   */\n      iszero\n      tag_468\n      jumpi\n        /* \"#utility.yul\":3074:3075   */\n      0x00\n        /* \"#utility.yul\":3071:3072   */\n      dup1\n        /* \"#utility.yul\":3064:3076   */\n      revert\n        /* \"#utility.yul\":3025:3027   */\n    tag_468:\n        /* \"#utility.yul\":3145:3146   */\n      0x00\n        /* \"#utility.yul\":3134:3143   */\n      dup6\n        /* \"#utility.yul\":3130:3147   */\n      add\n        /* \"#utility.yul\":3117:3148   */\n      calldataload\n        /* \"#utility.yul\":3175:3193   */\n      0xffffffffffffffff\n        /* \"#utility.yul\":3167:3173   */\n      dup2\n        /* \"#utility.yul\":3164:3194   */\n      gt\n        /* \"#utility.yul\":3161:3163   */\n      iszero\n      tag_469\n      jumpi\n        /* \"#utility.yul\":3207:3208   */\n      0x00\n        /* \"#utility.yul\":3204:3205   */\n      dup1\n        /* \"#utility.yul\":3197:3209   */\n      revert\n        /* \"#utility.yul\":3161:3163   */\n    tag_469:\n        /* \"#utility.yul\":3235:3298   */\n      tag_470\n        /* \"#utility.yul\":3290:3297   */\n      dup8\n        /* \"#utility.yul\":3281:3287   */\n      dup3\n        /* \"#utility.yul\":3270:3279   */\n      dup9\n        /* \"#utility.yul\":3266:3288   */\n      add\n        /* \"#utility.yul\":3235:3298   */\n      tag_443\n      jump\t// in\n    tag_470:\n        /* \"#utility.yul\":3225:3298   */\n      swap5\n      pop\n        /* \"#utility.yul\":3088:3308   */\n      pop\n        /* \"#utility.yul\":3375:3377   */\n      0x20\n        /* \"#utility.yul\":3364:3373   */\n      dup6\n        /* \"#utility.yul\":3360:3378   */\n      add\n        /* \"#utility.yul\":3347:3379   */\n      calldataload\n        /* \"#utility.yul\":3406:3424   */\n      0xffffffffffffffff\n        /* \"#utility.yul\":3398:3404   */\n      dup2\n        /* \"#utility.yul\":3395:3425   */\n      gt\n        /* \"#utility.yul\":3392:3394   */\n      iszero\n      tag_471\n      jumpi\n        /* \"#utility.yul\":3438:3439   */\n      0x00\n        /* \"#utility.yul\":3435:3436   */\n      dup1\n        /* \"#utility.yul\":3428:3440   */\n      revert\n        /* \"#utility.yul\":3392:3394   */\n    tag_471:\n        /* \"#utility.yul\":3466:3529   */\n      tag_472\n        /* \"#utility.yul\":3521:3528   */\n      dup8\n        /* \"#utility.yul\":3512:3518   */\n      dup3\n        /* \"#utility.yul\":3501:3510   */\n      dup9\n        /* \"#utility.yul\":3497:3519   */\n      add\n        /* \"#utility.yul\":3466:3529   */\n      tag_443\n      jump\t// in\n    tag_472:\n        /* \"#utility.yul\":3456:3529   */\n      swap4\n      pop\n        /* \"#utility.yul\":3318:3539   */\n      pop\n        /* \"#utility.yul\":3578:3580   */\n      0x40\n        /* \"#utility.yul\":3604:3657   */\n      tag_473\n        /* \"#utility.yul\":3649:3656   */\n      dup8\n        /* \"#utility.yul\":3640:3646   */\n      dup3\n        /* \"#utility.yul\":3629:3638   */\n      dup9\n        /* \"#utility.yul\":3625:3647   */\n      add\n        /* \"#utility.yul\":3604:3657   */\n      tag_447\n      jump\t// in\n    tag_473:\n        /* \"#utility.yul\":3594:3657   */\n      swap3\n      pop\n        /* \"#utility.yul\":3549:3667   */\n      pop\n        /* \"#utility.yul\":3706:3708   */\n      0x60\n        /* \"#utility.yul\":3732:3785   */\n      tag_474\n        /* \"#utility.yul\":3777:3784   */\n      dup8\n        /* \"#utility.yul\":3768:3774   */\n      dup3\n        /* \"#utility.yul\":3757:3766   */\n      dup9\n        /* \"#utility.yul\":3753:3775   */\n      add\n        /* \"#utility.yul\":3732:3785   */\n      tag_447\n      jump\t// in\n    tag_474:\n        /* \"#utility.yul\":3722:3785   */\n      swap2\n      pop\n        /* \"#utility.yul\":3677:3795   */\n      pop\n        /* \"#utility.yul\":3015:3802   */\n      swap3\n      swap6\n      swap2\n      swap5\n      pop\n      swap3\n      pop\n      jump\t// out\n        /* \"#utility.yul\":3808:4070   */\n    tag_34:\n      0x00\n        /* \"#utility.yul\":3916:3918   */\n      0x20\n        /* \"#utility.yul\":3904:3913   */\n      dup3\n        /* \"#utility.yul\":3895:3902   */\n      dup5\n        /* \"#utility.yul\":3891:3914   */\n      sub\n        /* \"#utility.yul\":3887:3919   */\n      slt\n        /* \"#utility.yul\":3884:3886   */\n      iszero\n      tag_476\n      jumpi\n        /* \"#utility.yul\":3932:3933   */\n      0x00\n        /* \"#utility.yul\":3929:3930   */\n      dup1\n        /* \"#utility.yul\":3922:3934   */\n      revert\n        /* \"#utility.yul\":3884:3886   */\n    tag_476:\n        /* \"#utility.yul\":3975:3976   */\n      0x00\n        /* \"#utility.yul\":4000:4053   */\n      tag_477\n        /* \"#utility.yul\":4045:4052   */\n      dup5\n        /* \"#utility.yul\":4036:4042   */\n      dup3\n        /* \"#utility.yul\":4025:4034   */\n      dup6\n        /* \"#utility.yul\":4021:4043   */\n      add\n        /* \"#utility.yul\":4000:4053   */\n      tag_447\n      jump\t// in\n    tag_477:\n        /* \"#utility.yul\":3990:4053   */\n      swap2\n      pop\n        /* \"#utility.yul\":3946:4063   */\n      pop\n        /* \"#utility.yul\":3874:4070   */\n      swap3\n      swap2\n      pop\n      pop\n      jump\t// out\n        /* \"#utility.yul\":4076:4360   */\n    tag_150:\n      0x00\n        /* \"#utility.yul\":4195:4197   */\n      0x20\n        /* \"#utility.yul\":4183:4192   */\n      dup3\n        /* \"#utility.yul\":4174:4181   */\n      dup5\n        /* \"#utility.yul\":4170:4193   */\n      sub\n        /* \"#utility.yul\":4166:4198   */\n      slt\n        /* \"#utility.yul\":4163:4165   */\n      iszero\n      tag_479\n      jumpi\n        /* \"#utility.yul\":4211:4212   */\n      0x00\n        /* \"#utility.yul\":4208:4209   */\n      dup1\n        /* \"#utility.yul\":4201:4213   */\n      revert\n        /* \"#utility.yul\":4163:4165   */\n    tag_479:\n        /* \"#utility.yul\":4254:4255   */\n      0x00\n        /* \"#utility.yul\":4279:4343   */\n      tag_480\n        /* \"#utility.yul\":4335:4342   */\n      dup5\n        /* \"#utility.yul\":4326:4332   */\n      dup3\n        /* \"#utility.yul\":4315:4324   */\n      dup6\n        /* \"#utility.yul\":4311:4333   */\n      add\n        /* \"#utility.yul\":4279:4343   */\n      tag_451\n      jump\t// in\n    tag_480:\n        /* \"#utility.yul\":4269:4343   */\n      swap2\n      pop\n        /* \"#utility.yul\":4225:4353   */\n      pop\n        /* \"#utility.yul\":4153:4360   */\n      swap3\n      swap2\n      pop\n      pop\n      jump\t// out\n        /* \"#utility.yul\":4366:4773   */\n    tag_109:\n      0x00\n      dup1\n        /* \"#utility.yul\":4491:4493   */\n      0x40\n        /* \"#utility.yul\":4479:4488   */\n      dup4\n        /* \"#utility.yul\":4470:4477   */\n      dup6\n        /* \"#utility.yul\":4466:4489   */\n      sub\n        /* \"#utility.yul\":4462:4494   */\n      slt\n        /* \"#utility.yul\":4459:4461   */\n      iszero\n      tag_482\n      jumpi\n        /* \"#utility.yul\":4507:4508   */\n      0x00\n        /* \"#utility.yul\":4504:4505   */\n      dup1\n        /* \"#utility.yul\":4497:4509   */\n      revert\n        /* \"#utility.yul\":4459:4461   */\n    tag_482:\n        /* \"#utility.yul\":4550:4551   */\n      0x00\n        /* \"#utility.yul\":4575:4628   */\n      tag_483\n        /* \"#utility.yul\":4620:4627   */\n      dup6\n        /* \"#utility.yul\":4611:4617   */\n      dup3\n        /* \"#utility.yul\":4600:4609   */\n      dup7\n        /* \"#utility.yul\":4596:4618   */\n      add\n        /* \"#utility.yul\":4575:4628   */\n      tag_447\n      jump\t// in\n    tag_483:\n        /* \"#utility.yul\":4565:4628   */\n      swap3\n      pop\n        /* \"#utility.yul\":4521:4638   */\n      pop\n        /* \"#utility.yul\":4677:4679   */\n      0x20\n        /* \"#utility.yul\":4703:4756   */\n      tag_484\n        /* \"#utility.yul\":4748:4755   */\n      dup6\n        /* \"#utility.yul\":4739:4745   */\n      dup3\n        /* \"#utility.yul\":4728:4737   */\n      dup7\n        /* \"#utility.yul\":4724:4746   */\n      add\n        /* \"#utility.yul\":4703:4756   */\n      tag_429\n      jump\t// in\n    tag_484:\n        /* \"#utility.yul\":4693:4756   */\n      swap2\n      pop\n        /* \"#utility.yul\":4648:4766   */\n      pop\n        /* \"#utility.yul\":4449:4773   */\n      swap3\n      pop\n      swap3\n      swap1\n      pop\n      jump\t// out\n        /* \"#utility.yul\":4779:5180   */\n    tag_73:\n      0x00\n      dup1\n        /* \"#utility.yul\":4901:4903   */\n      0x40\n        /* \"#utility.yul\":4889:4898   */\n      dup4\n        /* \"#utility.yul\":4880:4887   */\n      dup6\n        /* \"#utility.yul\":4876:4899   */\n      sub\n        /* \"#utility.yul\":4872:4904   */\n      slt\n        /* \"#utility.yul\":4869:4871   */\n      iszero\n      tag_486\n      jumpi\n        /* \"#utility.yul\":4917:4918   */\n      0x00\n        /* \"#utility.yul\":4914:4915   */\n      dup1\n        /* \"#utility.yul\":4907:4919   */\n      revert\n        /* \"#utility.yul\":4869:4871   */\n    tag_486:\n        /* \"#utility.yul\":4960:4961   */\n      0x00\n        /* \"#utility.yul\":4985:5038   */\n      tag_487\n        /* \"#utility.yul\":5030:5037   */\n      dup6\n        /* \"#utility.yul\":5021:5027   */\n      dup3\n        /* \"#utility.yul\":5010:5019   */\n      dup7\n        /* \"#utility.yul\":5006:5028   */\n      add\n        /* \"#utility.yul\":4985:5038   */\n      tag_447\n      jump\t// in\n    tag_487:\n        /* \"#utility.yul\":4975:5038   */\n      swap3\n      pop\n        /* \"#utility.yul\":4931:5048   */\n      pop\n        /* \"#utility.yul\":5087:5089   */\n      0x20\n        /* \"#utility.yul\":5113:5163   */\n      tag_488\n        /* \"#utility.yul\":5155:5162   */\n      dup6\n        /* \"#utility.yul\":5146:5152   */\n      dup3\n        /* \"#utility.yul\":5135:5144   */\n      dup7\n        /* \"#utility.yul\":5131:5153   */\n      add\n        /* \"#utility.yul\":5113:5163   */\n      tag_436\n      jump\t// in\n    tag_488:\n        /* \"#utility.yul\":5103:5163   */\n      swap2\n      pop\n        /* \"#utility.yul\":5058:5173   */\n      pop\n        /* \"#utility.yul\":4859:5180   */\n      swap3\n      pop\n      swap3\n      swap1\n      pop\n      jump\t// out\n        /* \"#utility.yul\":5186:5706   */\n    tag_59:\n      0x00\n      dup1\n        /* \"#utility.yul\":5321:5323   */\n      0x40\n        /* \"#utility.yul\":5309:5318   */\n      dup4\n        /* \"#utility.yul\":5300:5307   */\n      dup6\n        /* \"#utility.yul\":5296:5319   */\n      sub\n        /* \"#utility.yul\":5292:5324   */\n      slt\n        /* \"#utility.yul\":5289:5291   */\n      iszero\n      tag_490\n      jumpi\n        /* \"#utility.yul\":5337:5338   */\n      0x00\n        /* \"#utility.yul\":5334:5335   */\n      dup1\n        /* \"#utility.yul\":5327:5339   */\n      revert\n        /* \"#utility.yul\":5289:5291   */\n    tag_490:\n        /* \"#utility.yul\":5380:5381   */\n      0x00\n        /* \"#utility.yul\":5405:5458   */\n      tag_491\n        /* \"#utility.yul\":5450:5457   */\n      dup6\n        /* \"#utility.yul\":5441:5447   */\n      dup3\n        /* \"#utility.yul\":5430:5439   */\n      dup7\n        /* \"#utility.yul\":5426:5448   */\n      add\n        /* \"#utility.yul\":5405:5458   */\n      tag_447\n      jump\t// in\n    tag_491:\n        /* \"#utility.yul\":5395:5458   */\n      swap3\n      pop\n        /* \"#utility.yul\":5351:5468   */\n      pop\n        /* \"#utility.yul\":5535:5537   */\n      0x20\n        /* \"#utility.yul\":5524:5533   */\n      dup4\n        /* \"#utility.yul\":5520:5538   */\n      add\n        /* \"#utility.yul\":5507:5539   */\n      calldataload\n        /* \"#utility.yul\":5566:5584   */\n      0xffffffffffffffff\n        /* \"#utility.yul\":5558:5564   */\n      dup2\n        /* \"#utility.yul\":5555:5585   */\n      gt\n        /* \"#utility.yul\":5552:5554   */\n      iszero\n      tag_492\n      jumpi\n        /* \"#utility.yul\":5598:5599   */\n      0x00\n        /* \"#utility.yul\":5595:5596   */\n      dup1\n        /* \"#utility.yul\":5588:5600   */\n      revert\n        /* \"#utility.yul\":5552:5554   */\n    tag_492:\n        /* \"#utility.yul\":5626:5689   */\n      tag_493\n        /* \"#utility.yul\":5681:5688   */\n      dup6\n        /* \"#utility.yul\":5672:5678   */\n      dup3\n        /* \"#utility.yul\":5661:5670   */\n      dup7\n        /* \"#utility.yul\":5657:5679   */\n      add\n        /* \"#utility.yul\":5626:5689   */\n      tag_443\n      jump\t// in\n    tag_493:\n        /* \"#utility.yul\":5616:5689   */\n      swap2\n      pop\n        /* \"#utility.yul\":5478:5699   */\n      pop\n        /* \"#utility.yul\":5279:5706   */\n      swap3\n      pop\n      swap3\n      swap1\n      pop\n      jump\t// out\n        /* \"#utility.yul\":5712:6012   */\n    tag_494:\n      0x00\n        /* \"#utility.yul\":5888:6006   */\n      tag_496\n        /* \"#utility.yul\":6002:6005   */\n      dup4\n        /* \"#utility.yul\":5994:6000   */\n      dup4\n        /* \"#utility.yul\":5888:6006   */\n      tag_497\n      jump\t// in\n    tag_496:\n        /* \"#utility.yul\":5874:6006   */\n      swap1\n      pop\n        /* \"#utility.yul\":5864:6012   */\n      swap3\n      swap2\n      pop\n      pop\n      jump\t// out\n        /* \"#utility.yul\":6018:6126   */\n    tag_498:\n        /* \"#utility.yul\":6095:6119   */\n      tag_500\n        /* \"#utility.yul\":6113:6118   */\n      dup2\n        /* \"#utility.yul\":6095:6119   */\n      tag_501\n      jump\t// in\n    tag_500:\n        /* \"#utility.yul\":6090:6093   */\n      dup3\n        /* \"#utility.yul\":6083:6120   */\n      mstore\n        /* \"#utility.yul\":6073:6126   */\n      pop\n      pop\n      jump\t// out\n        /* \"#utility.yul\":6132:6250   */\n    tag_502:\n        /* \"#utility.yul\":6219:6243   */\n      tag_504\n        /* \"#utility.yul\":6237:6242   */\n      dup2\n        /* \"#utility.yul\":6219:6243   */\n      tag_501\n      jump\t// in\n    tag_504:\n        /* \"#utility.yul\":6214:6217   */\n      dup3\n        /* \"#utility.yul\":6207:6244   */\n      mstore\n        /* \"#utility.yul\":6197:6250   */\n      pop\n      pop\n      jump\t// out\n        /* \"#utility.yul\":6342:7541   */\n    tag_505:\n      0x00\n        /* \"#utility.yul\":6562:6652   */\n      tag_507\n        /* \"#utility.yul\":6646:6651   */\n      dup3\n        /* \"#utility.yul\":6562:6652   */\n      tag_508\n      jump\t// in\n    tag_507:\n        /* \"#utility.yul\":6668:6790   */\n      tag_509\n        /* \"#utility.yul\":6783:6789   */\n      dup2\n        /* \"#utility.yul\":6778:6781   */\n      dup6\n        /* \"#utility.yul\":6668:6790   */\n      tag_510\n      jump\t// in\n    tag_509:\n        /* \"#utility.yul\":6661:6790   */\n      swap4\n      pop\n        /* \"#utility.yul\":6816:6819   */\n      dup4\n        /* \"#utility.yul\":6861:6865   */\n      0x20\n        /* \"#utility.yul\":6853:6859   */\n      dup3\n        /* \"#utility.yul\":6849:6866   */\n      mul\n        /* \"#utility.yul\":6844:6847   */\n      dup6\n        /* \"#utility.yul\":6840:6867   */\n      add\n        /* \"#utility.yul\":6891:6983   */\n      tag_511\n        /* \"#utility.yul\":6977:6982   */\n      dup6\n        /* \"#utility.yul\":6891:6983   */\n      tag_512\n      jump\t// in\n    tag_511:\n        /* \"#utility.yul\":7006:7013   */\n      dup1\n        /* \"#utility.yul\":7037:7038   */\n      0x00\n        /* \"#utility.yul\":7022:7496   */\n    tag_513:\n        /* \"#utility.yul\":7047:7053   */\n      dup6\n        /* \"#utility.yul\":7044:7045   */\n      dup2\n        /* \"#utility.yul\":7041:7054   */\n      lt\n        /* \"#utility.yul\":7022:7496   */\n      iszero\n      tag_515\n      jumpi\n        /* \"#utility.yul\":7118:7127   */\n      dup5\n        /* \"#utility.yul\":7112:7116   */\n      dup5\n        /* \"#utility.yul\":7108:7128   */\n      sub\n        /* \"#utility.yul\":7103:7106   */\n      dup10\n        /* \"#utility.yul\":7096:7129   */\n      mstore\n        /* \"#utility.yul\":7169:7175   */\n      dup2\n        /* \"#utility.yul\":7163:7176   */\n      mload\n        /* \"#utility.yul\":7197:7333   */\n      tag_516\n        /* \"#utility.yul\":7328:7332   */\n      dup6\n        /* \"#utility.yul\":7313:7326   */\n      dup3\n        /* \"#utility.yul\":7197:7333   */\n      tag_494\n      jump\t// in\n    tag_516:\n        /* \"#utility.yul\":7189:7333   */\n      swap5\n      pop\n        /* \"#utility.yul\":7356:7452   */\n      tag_517\n        /* \"#utility.yul\":7445:7451   */\n      dup4\n        /* \"#utility.yul\":7356:7452   */\n      tag_518\n      jump\t// in\n    tag_517:\n        /* \"#utility.yul\":7346:7452   */\n      swap3\n      pop\n        /* \"#utility.yul\":7481:7485   */\n      0x20\n        /* \"#utility.yul\":7476:7479   */\n      dup11\n        /* \"#utility.yul\":7472:7486   */\n      add\n        /* \"#utility.yul\":7465:7486   */\n      swap10\n      pop\n        /* \"#utility.yul\":7082:7496   */\n      pop\n        /* \"#utility.yul\":7069:7070   */\n      0x01\n        /* \"#utility.yul\":7066:7067   */\n      dup2\n        /* \"#utility.yul\":7062:7071   */\n      add\n        /* \"#utility.yul\":7057:7071   */\n      swap1\n      pop\n        /* \"#utility.yul\":7022:7496   */\n      jump(tag_513)\n    tag_515:\n        /* \"#utility.yul\":7026:7040   */\n      pop\n        /* \"#utility.yul\":7512:7516   */\n      dup3\n        /* \"#utility.yul\":7505:7516   */\n      swap8\n      pop\n        /* \"#utility.yul\":7532:7535   */\n      dup8\n        /* \"#utility.yul\":7525:7535   */\n      swap6\n      pop\n        /* \"#utility.yul\":6538:7541   */\n      pop\n      pop\n      pop\n      pop\n      pop\n      swap3\n      swap2\n      pop\n      pop\n      jump\t// out\n        /* \"#utility.yul\":7547:7656   */\n    tag_519:\n        /* \"#utility.yul\":7628:7649   */\n      tag_521\n        /* \"#utility.yul\":7643:7648   */\n      dup2\n        /* \"#utility.yul\":7628:7649   */\n      tag_522\n      jump\t// in\n    tag_521:\n        /* \"#utility.yul\":7623:7626   */\n      dup3\n        /* \"#utility.yul\":7616:7650   */\n      mstore\n        /* \"#utility.yul\":7606:7656   */\n      pop\n      pop\n      jump\t// out\n        /* \"#utility.yul\":7662:8035   */\n    tag_523:\n      0x00\n        /* \"#utility.yul\":7794:7832   */\n      tag_525\n        /* \"#utility.yul\":7826:7831   */\n      dup3\n        /* \"#utility.yul\":7794:7832   */\n      tag_526\n      jump\t// in\n    tag_525:\n        /* \"#utility.yul\":7848:7936   */\n      tag_527\n        /* \"#utility.yul\":7929:7935   */\n      dup2\n        /* \"#utility.yul\":7924:7927   */\n      dup6\n        /* \"#utility.yul\":7848:7936   */\n      tag_528\n      jump\t// in\n    tag_527:\n        /* \"#utility.yul\":7841:7936   */\n      swap4\n      pop\n        /* \"#utility.yul\":7945:7997   */\n      tag_529\n        /* \"#utility.yul\":7990:7996   */\n      dup2\n        /* \"#utility.yul\":7985:7988   */\n      dup6\n        /* \"#utility.yul\":7978:7982   */\n      0x20\n        /* \"#utility.yul\":7971:7976   */\n      dup7\n        /* \"#utility.yul\":7967:7983   */\n      add\n        /* \"#utility.yul\":7945:7997   */\n      tag_530\n      jump\t// in\n    tag_529:\n        /* \"#utility.yul\":8022:8028   */\n      dup1\n        /* \"#utility.yul\":8017:8020   */\n      dup5\n        /* \"#utility.yul\":8013:8029   */\n      add\n        /* \"#utility.yul\":8006:8029   */\n      swap2\n      pop\n        /* \"#utility.yul\":7770:8035   */\n      pop\n      swap3\n      swap2\n      pop\n      pop\n      jump\t// out\n        /* \"#utility.yul\":8041:8212   */\n    tag_531:\n        /* \"#utility.yul\":8148:8205   */\n      tag_533\n        /* \"#utility.yul\":8199:8204   */\n      dup2\n        /* \"#utility.yul\":8148:8205   */\n      tag_534\n      jump\t// in\n    tag_533:\n        /* \"#utility.yul\":8143:8146   */\n      dup3\n        /* \"#utility.yul\":8136:8206   */\n      mstore\n        /* \"#utility.yul\":8126:8212   */\n      pop\n      pop\n      jump\t// out\n        /* \"#utility.yul\":8218:8562   */\n    tag_535:\n      0x00\n        /* \"#utility.yul\":8324:8363   */\n      tag_537\n        /* \"#utility.yul\":8357:8362   */\n      dup3\n        /* \"#utility.yul\":8324:8363   */\n      tag_538\n      jump\t// in\n    tag_537:\n        /* \"#utility.yul\":8379:8440   */\n      tag_539\n        /* \"#utility.yul\":8433:8439   */\n      dup2\n        /* \"#utility.yul\":8428:8431   */\n      dup6\n        /* \"#utility.yul\":8379:8440   */\n      tag_540\n      jump\t// in\n    tag_539:\n        /* \"#utility.yul\":8372:8440   */\n      swap4\n      pop\n        /* \"#utility.yul\":8449:8501   */\n      tag_541\n        /* \"#utility.yul\":8494:8500   */\n      dup2\n        /* \"#utility.yul\":8489:8492   */\n      dup6\n        /* \"#utility.yul\":8482:8486   */\n      0x20\n        /* \"#utility.yul\":8475:8480   */\n      dup7\n        /* \"#utility.yul\":8471:8487   */\n      add\n        /* \"#utility.yul\":8449:8501   */\n      tag_530\n      jump\t// in\n    tag_541:\n        /* \"#utility.yul\":8526:8555   */\n      tag_542\n        /* \"#utility.yul\":8548:8554   */\n      dup2\n        /* \"#utility.yul\":8526:8555   */\n      tag_543\n      jump\t// in\n    tag_542:\n        /* \"#utility.yul\":8521:8524   */\n      dup5\n        /* \"#utility.yul\":8517:8556   */\n      add\n        /* \"#utility.yul\":8510:8556   */\n      swap2\n      pop\n        /* \"#utility.yul\":8300:8562   */\n      pop\n      swap3\n      swap2\n      pop\n      pop\n      jump\t// out\n        /* \"#utility.yul\":8568:8932   */\n    tag_544:\n      0x00\n        /* \"#utility.yul\":8684:8723   */\n      tag_546\n        /* \"#utility.yul\":8717:8722   */\n      dup3\n        /* \"#utility.yul\":8684:8723   */\n      tag_538\n      jump\t// in\n    tag_546:\n        /* \"#utility.yul\":8739:8810   */\n      tag_547\n        /* \"#utility.yul\":8803:8809   */\n      dup2\n        /* \"#utility.yul\":8798:8801   */\n      dup6\n        /* \"#utility.yul\":8739:8810   */\n      tag_548\n      jump\t// in\n    tag_547:\n        /* \"#utility.yul\":8732:8810   */\n      swap4\n      pop\n        /* \"#utility.yul\":8819:8871   */\n      tag_549\n        /* \"#utility.yul\":8864:8870   */\n      dup2\n        /* \"#utility.yul\":8859:8862   */\n      dup6\n        /* \"#utility.yul\":8852:8856   */\n      0x20\n        /* \"#utility.yul\":8845:8850   */\n      dup7\n        /* \"#utility.yul\":8841:8857   */\n      add\n        /* \"#utility.yul\":8819:8871   */\n      tag_530\n      jump\t// in\n    tag_549:\n        /* \"#utility.yul\":8896:8925   */\n      tag_550\n        /* \"#utility.yul\":8918:8924   */\n      dup2\n        /* \"#utility.yul\":8896:8925   */\n      tag_543\n      jump\t// in\n    tag_550:\n        /* \"#utility.yul\":8891:8894   */\n      dup5\n        /* \"#utility.yul\":8887:8926   */\n      add\n        /* \"#utility.yul\":8880:8926   */\n      swap2\n      pop\n        /* \"#utility.yul\":8660:8932   */\n      pop\n      swap3\n      swap2\n      pop\n      pop\n      jump\t// out\n        /* \"#utility.yul\":8938:9315   */\n    tag_551:\n      0x00\n        /* \"#utility.yul\":9072:9111   */\n      tag_553\n        /* \"#utility.yul\":9105:9110   */\n      dup3\n        /* \"#utility.yul\":9072:9111   */\n      tag_538\n      jump\t// in\n    tag_553:\n        /* \"#utility.yul\":9127:9216   */\n      tag_554\n        /* \"#utility.yul\":9209:9215   */\n      dup2\n        /* \"#utility.yul\":9204:9207   */\n      dup6\n        /* \"#utility.yul\":9127:9216   */\n      tag_555\n      jump\t// in\n    tag_554:\n        /* \"#utility.yul\":9120:9216   */\n      swap4\n      pop\n        /* \"#utility.yul\":9225:9277   */\n      tag_556\n        /* \"#utility.yul\":9270:9276   */\n      dup2\n        /* \"#utility.yul\":9265:9268   */\n      dup6\n        /* \"#utility.yul\":9258:9262   */\n      0x20\n        /* \"#utility.yul\":9251:9256   */\n      dup7\n        /* \"#utility.yul\":9247:9263   */\n      add\n        /* \"#utility.yul\":9225:9277   */\n      tag_530\n      jump\t// in\n    tag_556:\n        /* \"#utility.yul\":9302:9308   */\n      dup1\n        /* \"#utility.yul\":9297:9300   */\n      dup5\n        /* \"#utility.yul\":9293:9309   */\n      add\n        /* \"#utility.yul\":9286:9309   */\n      swap2\n      pop\n        /* \"#utility.yul\":9048:9315   */\n      pop\n      swap3\n      swap2\n      pop\n      pop\n      jump\t// out\n        /* \"#utility.yul\":9321:9686   */\n    tag_557:\n      0x00\n        /* \"#utility.yul\":9484:9551   */\n      tag_559\n        /* \"#utility.yul\":9548:9550   */\n      0x21\n        /* \"#utility.yul\":9543:9546   */\n      dup4\n        /* \"#utility.yul\":9484:9551   */\n      tag_548\n      jump\t// in\n    tag_559:\n        /* \"#utility.yul\":9477:9551   */\n      swap2\n      pop\n        /* \"#utility.yul\":9581:9615   */\n      0x4c657373207468616e20363025206f662074686520766f746573207061737365\n        /* \"#utility.yul\":9577:9578   */\n      0x00\n        /* \"#utility.yul\":9572:9575   */\n      dup4\n        /* \"#utility.yul\":9568:9579   */\n      add\n        /* \"#utility.yul\":9561:9616   */\n      mstore\n        /* \"#utility.yul\":9647:9650   */\n      0x6400000000000000000000000000000000000000000000000000000000000000\n        /* \"#utility.yul\":9642:9644   */\n      0x20\n        /* \"#utility.yul\":9637:9640   */\n      dup4\n        /* \"#utility.yul\":9633:9645   */\n      add\n        /* \"#utility.yul\":9626:9651   */\n      mstore\n        /* \"#utility.yul\":9677:9679   */\n      0x40\n        /* \"#utility.yul\":9672:9675   */\n      dup3\n        /* \"#utility.yul\":9668:9680   */\n      add\n        /* \"#utility.yul\":9661:9680   */\n      swap1\n      pop\n        /* \"#utility.yul\":9467:9686   */\n      swap2\n      swap1\n      pop\n      jump\t// out\n        /* \"#utility.yul\":9692:10018   */\n    tag_560:\n      0x00\n        /* \"#utility.yul\":9855:9922   */\n      tag_562\n        /* \"#utility.yul\":9919:9921   */\n      0x1c\n        /* \"#utility.yul\":9914:9917   */\n      dup4\n        /* \"#utility.yul\":9855:9922   */\n      tag_548\n      jump\t// in\n    tag_562:\n        /* \"#utility.yul\":9848:9922   */\n      swap2\n      pop\n        /* \"#utility.yul\":9952:9982   */\n      0x4e6f742077697468696e2074686520616c6c6f747465642074696d6500000000\n        /* \"#utility.yul\":9948:9949   */\n      0x00\n        /* \"#utility.yul\":9943:9946   */\n      dup4\n        /* \"#utility.yul\":9939:9950   */\n      add\n        /* \"#utility.yul\":9932:9983   */\n      mstore\n        /* \"#utility.yul\":10009:10011   */\n      0x20\n        /* \"#utility.yul\":10004:10007   */\n      dup3\n        /* \"#utility.yul\":10000:10012   */\n      add\n        /* \"#utility.yul\":9993:10012   */\n      swap1\n      pop\n        /* \"#utility.yul\":9838:10018   */\n      swap2\n      swap1\n      pop\n      jump\t// out\n        /* \"#utility.yul\":10024:10348   */\n    tag_563:\n      0x00\n        /* \"#utility.yul\":10187:10254   */\n      tag_565\n        /* \"#utility.yul\":10251:10253   */\n      0x1a\n        /* \"#utility.yul\":10246:10249   */\n      dup4\n        /* \"#utility.yul\":10187:10254   */\n      tag_548\n      jump\t// in\n    tag_565:\n        /* \"#utility.yul\":10180:10254   */\n      swap2\n      pop\n        /* \"#utility.yul\":10284:10312   */\n      0x63616e27742064656c656761746520746f20796f757273656c66000000000000\n        /* \"#utility.yul\":10280:10281   */\n      0x00\n        /* \"#utility.yul\":10275:10278   */\n      dup4\n        /* \"#utility.yul\":10271:10282   */\n      add\n        /* \"#utility.yul\":10264:10313   */\n      mstore\n        /* \"#utility.yul\":10339:10341   */\n      0x20\n        /* \"#utility.yul\":10334:10337   */\n      dup3\n        /* \"#utility.yul\":10330:10342   */\n      add\n        /* \"#utility.yul\":10323:10342   */\n      swap1\n      pop\n        /* \"#utility.yul\":10170:10348   */\n      swap2\n      swap1\n      pop\n      jump\t// out\n        /* \"#utility.yul\":10354:10679   */\n    tag_566:\n      0x00\n        /* \"#utility.yul\":10517:10584   */\n      tag_568\n        /* \"#utility.yul\":10581:10583   */\n      0x1b\n        /* \"#utility.yul\":10576:10579   */\n      dup4\n        /* \"#utility.yul\":10517:10584   */\n      tag_548\n      jump\t// in\n    tag_568:\n        /* \"#utility.yul\":10510:10584   */\n      swap2\n      pop\n        /* \"#utility.yul\":10614:10643   */\n      0x476f7665726e616e63652054656d706c617465206973206e756c6c0000000000\n        /* \"#utility.yul\":10610:10611   */\n      0x00\n        /* \"#utility.yul\":10605:10608   */\n      dup4\n        /* \"#utility.yul\":10601:10612   */\n      add\n        /* \"#utility.yul\":10594:10644   */\n      mstore\n        /* \"#utility.yul\":10670:10672   */\n      0x20\n        /* \"#utility.yul\":10665:10668   */\n      dup3\n        /* \"#utility.yul\":10661:10673   */\n      add\n        /* \"#utility.yul\":10654:10673   */\n      swap1\n      pop\n        /* \"#utility.yul\":10500:10679   */\n      swap2\n      swap1\n      pop\n      jump\t// out\n        /* \"#utility.yul\":10685:11012   */\n    tag_569:\n      0x00\n        /* \"#utility.yul\":10848:10915   */\n      tag_571\n        /* \"#utility.yul\":10912:10914   */\n      0x1d\n        /* \"#utility.yul\":10907:10910   */\n      dup4\n        /* \"#utility.yul\":10848:10915   */\n      tag_548\n      jump\t// in\n    tag_571:\n        /* \"#utility.yul\":10841:10915   */\n      swap2\n      pop\n        /* \"#utility.yul\":10945:10976   */\n      0x766f746573206973206c657373207468616e2033302070657263656e74000000\n        /* \"#utility.yul\":10941:10942   */\n      0x00\n        /* \"#utility.yul\":10936:10939   */\n      dup4\n        /* \"#utility.yul\":10932:10943   */\n      add\n        /* \"#utility.yul\":10925:10977   */\n      mstore\n        /* \"#utility.yul\":11003:11005   */\n      0x20\n        /* \"#utility.yul\":10998:11001   */\n      dup3\n        /* \"#utility.yul\":10994:11006   */\n      add\n        /* \"#utility.yul\":10987:11006   */\n      swap1\n      pop\n        /* \"#utility.yul\":10831:11012   */\n      swap2\n      swap1\n      pop\n      jump\t// out\n        /* \"#utility.yul\":11018:11400   */\n    tag_572:\n      0x00\n        /* \"#utility.yul\":11181:11248   */\n      tag_574\n        /* \"#utility.yul\":11245:11247   */\n      0x32\n        /* \"#utility.yul\":11240:11243   */\n      dup4\n        /* \"#utility.yul\":11181:11248   */\n      tag_548\n      jump\t// in\n    tag_574:\n        /* \"#utility.yul\":11174:11248   */\n      swap2\n      pop\n        /* \"#utility.yul\":11278:11312   */\n      0x54686520766f746520706173736564207769746820666577657220766f746573\n        /* \"#utility.yul\":11274:11275   */\n      0x00\n        /* \"#utility.yul\":11269:11272   */\n      dup4\n        /* \"#utility.yul\":11265:11276   */\n      add\n        /* \"#utility.yul\":11258:11313   */\n      mstore\n        /* \"#utility.yul\":11344:11364   */\n      0x207468616e20746865206f726967696e616c0000000000000000000000000000\n        /* \"#utility.yul\":11339:11341   */\n      0x20\n        /* \"#utility.yul\":11334:11337   */\n      dup4\n        /* \"#utility.yul\":11330:11342   */\n      add\n        /* \"#utility.yul\":11323:11365   */\n      mstore\n        /* \"#utility.yul\":11391:11393   */\n      0x40\n        /* \"#utility.yul\":11386:11389   */\n      dup3\n        /* \"#utility.yul\":11382:11394   */\n      add\n        /* \"#utility.yul\":11375:11394   */\n      swap1\n      pop\n        /* \"#utility.yul\":11164:11400   */\n      swap2\n      swap1\n      pop\n      jump\t// out\n        /* \"#utility.yul\":11406:11727   */\n    tag_575:\n      0x00\n        /* \"#utility.yul\":11569:11636   */\n      tag_577\n        /* \"#utility.yul\":11633:11635   */\n      0x17\n        /* \"#utility.yul\":11628:11631   */\n      dup4\n        /* \"#utility.yul\":11569:11636   */\n      tag_548\n      jump\t// in\n    tag_577:\n        /* \"#utility.yul\":11562:11636   */\n      swap2\n      pop\n        /* \"#utility.yul\":11666:11691   */\n      0x546f6f2066657720746f6b656e73206172652068656c64000000000000000000\n        /* \"#utility.yul\":11662:11663   */\n      0x00\n        /* \"#utility.yul\":11657:11660   */\n      dup4\n        /* \"#utility.yul\":11653:11664   */\n      add\n        /* \"#utility.yul\":11646:11692   */\n      mstore\n        /* \"#utility.yul\":11718:11720   */\n      0x20\n        /* \"#utility.yul\":11713:11716   */\n      dup3\n        /* \"#utility.yul\":11709:11721   */\n      add\n        /* \"#utility.yul\":11702:11721   */\n      swap1\n      pop\n        /* \"#utility.yul\":11552:11727   */\n      swap2\n      swap1\n      pop\n      jump\t// out\n        /* \"#utility.yul\":11733:12056   */\n    tag_578:\n      0x00\n        /* \"#utility.yul\":11896:11963   */\n      tag_580\n        /* \"#utility.yul\":11960:11962   */\n      0x19\n        /* \"#utility.yul\":11955:11958   */\n      dup4\n        /* \"#utility.yul\":11896:11963   */\n      tag_548\n      jump\t// in\n    tag_580:\n        /* \"#utility.yul\":11889:11963   */\n      swap2\n      pop\n        /* \"#utility.yul\":11993:12020   */\n      0x5374696c6c20696e2074686520766f74696e6720706861736500000000000000\n        /* \"#utility.yul\":11989:11990   */\n      0x00\n        /* \"#utility.yul\":11984:11987   */\n      dup4\n        /* \"#utility.yul\":11980:11991   */\n      add\n        /* \"#utility.yul\":11973:12021   */\n      mstore\n        /* \"#utility.yul\":12047:12049   */\n      0x20\n        /* \"#utility.yul\":12042:12045   */\n      dup3\n        /* \"#utility.yul\":12038:12050   */\n      add\n        /* \"#utility.yul\":12031:12050   */\n      swap1\n      pop\n        /* \"#utility.yul\":11879:12056   */\n      swap2\n      swap1\n      pop\n      jump\t// out\n        /* \"#utility.yul\":12062:12380   */\n    tag_581:\n      0x00\n        /* \"#utility.yul\":12225:12292   */\n      tag_583\n        /* \"#utility.yul\":12289:12291   */\n      0x14\n        /* \"#utility.yul\":12284:12287   */\n      dup4\n        /* \"#utility.yul\":12225:12292   */\n      tag_548\n      jump\t// in\n    tag_583:\n        /* \"#utility.yul\":12218:12292   */\n      swap2\n      pop\n        /* \"#utility.yul\":12322:12344   */\n      0x7265706574697469766520657865637574696f6e000000000000000000000000\n        /* \"#utility.yul\":12318:12319   */\n      0x00\n        /* \"#utility.yul\":12313:12316   */\n      dup4\n        /* \"#utility.yul\":12309:12320   */\n      add\n        /* \"#utility.yul\":12302:12345   */\n      mstore\n        /* \"#utility.yul\":12371:12373   */\n      0x20\n        /* \"#utility.yul\":12366:12369   */\n      dup3\n        /* \"#utility.yul\":12362:12374   */\n      add\n        /* \"#utility.yul\":12355:12374   */\n      swap1\n      pop\n        /* \"#utility.yul\":12208:12380   */\n      swap2\n      swap1\n      pop\n      jump\t// out\n        /* \"#utility.yul\":12386:12694   */\n    tag_584:\n      0x00\n        /* \"#utility.yul\":12549:12616   */\n      tag_586\n        /* \"#utility.yul\":12613:12615   */\n      0x0a\n        /* \"#utility.yul\":12608:12611   */\n      dup4\n        /* \"#utility.yul\":12549:12616   */\n      tag_548\n      jump\t// in\n    tag_586:\n        /* \"#utility.yul\":12542:12616   */\n      swap2\n      pop\n        /* \"#utility.yul\":12646:12658   */\n      0x4861766520766f74656400000000000000000000000000000000000000000000\n        /* \"#utility.yul\":12642:12643   */\n      0x00\n        /* \"#utility.yul\":12637:12640   */\n      dup4\n        /* \"#utility.yul\":12633:12644   */\n      add\n        /* \"#utility.yul\":12626:12659   */\n      mstore\n        /* \"#utility.yul\":12685:12687   */\n      0x20\n        /* \"#utility.yul\":12680:12683   */\n      dup3\n        /* \"#utility.yul\":12676:12688   */\n      add\n        /* \"#utility.yul\":12669:12688   */\n      swap1\n      pop\n        /* \"#utility.yul\":12532:12694   */\n      swap2\n      swap1\n      pop\n      jump\t// out\n        /* \"#utility.yul\":12700:13012   */\n    tag_587:\n      0x00\n        /* \"#utility.yul\":12863:12930   */\n      tag_589\n        /* \"#utility.yul\":12927:12929   */\n      0x0e\n        /* \"#utility.yul\":12922:12925   */\n      dup4\n        /* \"#utility.yul\":12863:12930   */\n      tag_548\n      jump\t// in\n    tag_589:\n        /* \"#utility.yul\":12856:12930   */\n      swap2\n      pop\n        /* \"#utility.yul\":12960:12976   */\n      0x566f74654964206973206e756c6c000000000000000000000000000000000000\n        /* \"#utility.yul\":12956:12957   */\n      0x00\n        /* \"#utility.yul\":12951:12954   */\n      dup4\n        /* \"#utility.yul\":12947:12958   */\n      add\n        /* \"#utility.yul\":12940:12977   */\n      mstore\n        /* \"#utility.yul\":13003:13005   */\n      0x20\n        /* \"#utility.yul\":12998:13001   */\n      dup3\n        /* \"#utility.yul\":12994:13006   */\n      add\n        /* \"#utility.yul\":12987:13006   */\n      swap1\n      pop\n        /* \"#utility.yul\":12846:13012   */\n      swap2\n      swap1\n      pop\n      jump\t// out\n        /* \"#utility.yul\":13018:13348   */\n    tag_590:\n      0x00\n        /* \"#utility.yul\":13181:13248   */\n      tag_592\n        /* \"#utility.yul\":13245:13247   */\n      0x20\n        /* \"#utility.yul\":13240:13243   */\n      dup4\n        /* \"#utility.yul\":13181:13248   */\n      tag_548\n      jump\t// in\n    tag_592:\n        /* \"#utility.yul\":13174:13248   */\n      swap2\n      pop\n        /* \"#utility.yul\":13278:13312   */\n      0x77686974654c697374203a3a204164647265737320636865636b206572726f72\n        /* \"#utility.yul\":13274:13275   */\n      0x00\n        /* \"#utility.yul\":13269:13272   */\n      dup4\n        /* \"#utility.yul\":13265:13276   */\n      add\n        /* \"#utility.yul\":13258:13313   */\n      mstore\n        /* \"#utility.yul\":13339:13341   */\n      0x20\n        /* \"#utility.yul\":13334:13337   */\n      dup3\n        /* \"#utility.yul\":13330:13342   */\n      add\n        /* \"#utility.yul\":13323:13342   */\n      swap1\n      pop\n        /* \"#utility.yul\":13164:13348   */\n      swap2\n      swap1\n      pop\n      jump\t// out\n        /* \"#utility.yul\":13354:13672   */\n    tag_593:\n      0x00\n        /* \"#utility.yul\":13517:13584   */\n      tag_595\n        /* \"#utility.yul\":13581:13583   */\n      0x14\n        /* \"#utility.yul\":13576:13579   */\n      dup4\n        /* \"#utility.yul\":13517:13584   */\n      tag_548\n      jump\t// in\n    tag_595:\n        /* \"#utility.yul\":13510:13584   */\n      swap2\n      pop\n        /* \"#utility.yul\":13614:13636   */\n      0x7665546f6b656e206c657373207468616e203120000000000000000000000000\n        /* \"#utility.yul\":13610:13611   */\n      0x00\n        /* \"#utility.yul\":13605:13608   */\n      dup4\n        /* \"#utility.yul\":13601:13612   */\n      add\n        /* \"#utility.yul\":13594:13637   */\n      mstore\n        /* \"#utility.yul\":13663:13665   */\n      0x20\n        /* \"#utility.yul\":13658:13661   */\n      dup3\n        /* \"#utility.yul\":13654:13666   */\n      add\n        /* \"#utility.yul\":13647:13666   */\n      swap1\n      pop\n        /* \"#utility.yul\":13500:13672   */\n      swap2\n      swap1\n      pop\n      jump\t// out\n        /* \"#utility.yul\":13678:13994   */\n    tag_596:\n      0x00\n        /* \"#utility.yul\":13841:13908   */\n      tag_598\n        /* \"#utility.yul\":13905:13907   */\n      0x12\n        /* \"#utility.yul\":13900:13903   */\n      dup4\n        /* \"#utility.yul\":13841:13908   */\n      tag_548\n      jump\t// in\n    tag_598:\n        /* \"#utility.yul\":13834:13908   */\n      swap2\n      pop\n        /* \"#utility.yul\":13938:13958   */\n      0x5468657265206973206e6f20746f6b656e200000000000000000000000000000\n        /* \"#utility.yul\":13934:13935   */\n      0x00\n        /* \"#utility.yul\":13929:13932   */\n      dup4\n        /* \"#utility.yul\":13925:13936   */\n      add\n        /* \"#utility.yul\":13918:13959   */\n      mstore\n        /* \"#utility.yul\":13985:13987   */\n      0x20\n        /* \"#utility.yul\":13980:13983   */\n      dup3\n        /* \"#utility.yul\":13976:13988   */\n      add\n        /* \"#utility.yul\":13969:13988   */\n      swap1\n      pop\n        /* \"#utility.yul\":13824:13994   */\n      swap2\n      swap1\n      pop\n      jump\t// out\n        /* \"#utility.yul\":14000:14317   */\n    tag_599:\n      0x00\n        /* \"#utility.yul\":14163:14230   */\n      tag_601\n        /* \"#utility.yul\":14227:14229   */\n      0x13\n        /* \"#utility.yul\":14222:14225   */\n      dup4\n        /* \"#utility.yul\":14163:14230   */\n      tag_548\n      jump\t// in\n    tag_601:\n        /* \"#utility.yul\":14156:14230   */\n      swap2\n      pop\n        /* \"#utility.yul\":14260:14281   */\n      0x207665546f6b656e537570706c79203d3d203000000000000000000000000000\n        /* \"#utility.yul\":14256:14257   */\n      0x00\n        /* \"#utility.yul\":14251:14254   */\n      dup4\n        /* \"#utility.yul\":14247:14258   */\n      add\n        /* \"#utility.yul\":14240:14282   */\n      mstore\n        /* \"#utility.yul\":14308:14310   */\n      0x20\n        /* \"#utility.yul\":14303:14306   */\n      dup3\n        /* \"#utility.yul\":14299:14311   */\n      add\n        /* \"#utility.yul\":14292:14311   */\n      swap1\n      pop\n        /* \"#utility.yul\":14146:14317   */\n      swap2\n      swap1\n      pop\n      jump\t// out\n        /* \"#utility.yul\":14323:14644   */\n    tag_602:\n      0x00\n        /* \"#utility.yul\":14486:14553   */\n      tag_604\n        /* \"#utility.yul\":14550:14552   */\n      0x17\n        /* \"#utility.yul\":14545:14548   */\n      dup4\n        /* \"#utility.yul\":14486:14553   */\n      tag_548\n      jump\t// in\n    tag_604:\n        /* \"#utility.yul\":14479:14553   */\n      swap2\n      pop\n        /* \"#utility.yul\":14583:14608   */\n      0x4e6f742061742074686520766f74696e67207374616765000000000000000000\n        /* \"#utility.yul\":14579:14580   */\n      0x00\n        /* \"#utility.yul\":14574:14577   */\n      dup4\n        /* \"#utility.yul\":14570:14581   */\n      add\n        /* \"#utility.yul\":14563:14609   */\n      mstore\n        /* \"#utility.yul\":14635:14637   */\n      0x20\n        /* \"#utility.yul\":14630:14633   */\n      dup3\n        /* \"#utility.yul\":14626:14638   */\n      add\n        /* \"#utility.yul\":14619:14638   */\n      swap1\n      pop\n        /* \"#utility.yul\":14469:14644   */\n      swap2\n      swap1\n      pop\n      jump\t// out\n        /* \"#utility.yul\":14650:14959   */\n    tag_605:\n      0x00\n        /* \"#utility.yul\":14813:14880   */\n      tag_607\n        /* \"#utility.yul\":14877:14879   */\n      0x0b\n        /* \"#utility.yul\":14872:14875   */\n      dup4\n        /* \"#utility.yul\":14813:14880   */\n      tag_548\n      jump\t// in\n    tag_607:\n        /* \"#utility.yul\":14806:14880   */\n      swap2\n      pop\n        /* \"#utility.yul\":14910:14923   */\n      0x566f7465206265666f7265000000000000000000000000000000000000000000\n        /* \"#utility.yul\":14906:14907   */\n      0x00\n        /* \"#utility.yul\":14901:14904   */\n      dup4\n        /* \"#utility.yul\":14897:14908   */\n      add\n        /* \"#utility.yul\":14890:14924   */\n      mstore\n        /* \"#utility.yul\":14950:14952   */\n      0x20\n        /* \"#utility.yul\":14945:14948   */\n      dup3\n        /* \"#utility.yul\":14941:14953   */\n      add\n        /* \"#utility.yul\":14934:14953   */\n      swap1\n      pop\n        /* \"#utility.yul\":14796:14959   */\n      swap2\n      swap1\n      pop\n      jump\t// out\n        /* \"#utility.yul\":15047:16109   */\n    tag_497:\n      0x00\n        /* \"#utility.yul\":15214:15218   */\n      0x80\n        /* \"#utility.yul\":15209:15212   */\n      dup4\n        /* \"#utility.yul\":15205:15219   */\n      add\n        /* \"#utility.yul\":15307:15311   */\n      0x00\n        /* \"#utility.yul\":15300:15305   */\n      dup4\n        /* \"#utility.yul\":15296:15312   */\n      add\n        /* \"#utility.yul\":15290:15313   */\n      mload\n        /* \"#utility.yul\":15326:15389   */\n      tag_609\n        /* \"#utility.yul\":15383:15387   */\n      0x00\n        /* \"#utility.yul\":15378:15381   */\n      dup7\n        /* \"#utility.yul\":15374:15388   */\n      add\n        /* \"#utility.yul\":15360:15372   */\n      dup3\n        /* \"#utility.yul\":15326:15389   */\n      tag_610\n      jump\t// in\n    tag_609:\n        /* \"#utility.yul\":15229:15399   */\n      pop\n        /* \"#utility.yul\":15483:15487   */\n      0x20\n        /* \"#utility.yul\":15476:15481   */\n      dup4\n        /* \"#utility.yul\":15472:15488   */\n      add\n        /* \"#utility.yul\":15466:15489   */\n      mload\n        /* \"#utility.yul\":15536:15539   */\n      dup5\n        /* \"#utility.yul\":15530:15534   */\n      dup3\n        /* \"#utility.yul\":15526:15540   */\n      sub\n        /* \"#utility.yul\":15519:15523   */\n      0x20\n        /* \"#utility.yul\":15514:15517   */\n      dup7\n        /* \"#utility.yul\":15510:15524   */\n      add\n        /* \"#utility.yul\":15503:15541   */\n      mstore\n        /* \"#utility.yul\":15562:15635   */\n      tag_611\n        /* \"#utility.yul\":15630:15634   */\n      dup3\n        /* \"#utility.yul\":15616:15628   */\n      dup3\n        /* \"#utility.yul\":15562:15635   */\n      tag_535\n      jump\t// in\n    tag_611:\n        /* \"#utility.yul\":15554:15635   */\n      swap2\n      pop\n        /* \"#utility.yul\":15409:15646   */\n      pop\n        /* \"#utility.yul\":15737:15741   */\n      0x40\n        /* \"#utility.yul\":15730:15735   */\n      dup4\n        /* \"#utility.yul\":15726:15742   */\n      add\n        /* \"#utility.yul\":15720:15743   */\n      mload\n        /* \"#utility.yul\":15756:15819   */\n      tag_612\n        /* \"#utility.yul\":15813:15817   */\n      0x40\n        /* \"#utility.yul\":15808:15811   */\n      dup7\n        /* \"#utility.yul\":15804:15818   */\n      add\n        /* \"#utility.yul\":15790:15802   */\n      dup3\n        /* \"#utility.yul\":15756:15819   */\n      tag_498\n      jump\t// in\n    tag_612:\n        /* \"#utility.yul\":15656:15829   */\n      pop\n        /* \"#utility.yul\":15919:15923   */\n      0x60\n        /* \"#utility.yul\":15912:15917   */\n      dup4\n        /* \"#utility.yul\":15908:15924   */\n      add\n        /* \"#utility.yul\":15902:15925   */\n      mload\n        /* \"#utility.yul\":15972:15975   */\n      dup5\n        /* \"#utility.yul\":15966:15970   */\n      dup3\n        /* \"#utility.yul\":15962:15976   */\n      sub\n        /* \"#utility.yul\":15955:15959   */\n      0x60\n        /* \"#utility.yul\":15950:15953   */\n      dup7\n        /* \"#utility.yul\":15946:15960   */\n      add\n        /* \"#utility.yul\":15939:15977   */\n      mstore\n        /* \"#utility.yul\":15998:16071   */\n      tag_613\n        /* \"#utility.yul\":16066:16070   */\n      dup3\n        /* \"#utility.yul\":16052:16064   */\n      dup3\n        /* \"#utility.yul\":15998:16071   */\n      tag_535\n      jump\t// in\n    tag_613:\n        /* \"#utility.yul\":15990:16071   */\n      swap2\n      pop\n        /* \"#utility.yul\":15839:16082   */\n      pop\n        /* \"#utility.yul\":16099:16103   */\n      dup1\n        /* \"#utility.yul\":16092:16103   */\n      swap2\n      pop\n        /* \"#utility.yul\":15183:16109   */\n      pop\n      swap3\n      swap2\n      pop\n      pop\n      jump\t// out\n        /* \"#utility.yul\":16115:16223   */\n    tag_610:\n        /* \"#utility.yul\":16192:16216   */\n      tag_615\n        /* \"#utility.yul\":16210:16215   */\n      dup2\n        /* \"#utility.yul\":16192:16216   */\n      tag_616\n      jump\t// in\n    tag_615:\n        /* \"#utility.yul\":16187:16190   */\n      dup3\n        /* \"#utility.yul\":16180:16217   */\n      mstore\n        /* \"#utility.yul\":16170:16223   */\n      pop\n      pop\n      jump\t// out\n        /* \"#utility.yul\":16229:16347   */\n    tag_617:\n        /* \"#utility.yul\":16316:16340   */\n      tag_619\n        /* \"#utility.yul\":16334:16339   */\n      dup2\n        /* \"#utility.yul\":16316:16340   */\n      tag_616\n      jump\t// in\n    tag_619:\n        /* \"#utility.yul\":16311:16314   */\n      dup3\n        /* \"#utility.yul\":16304:16341   */\n      mstore\n        /* \"#utility.yul\":16294:16347   */\n      pop\n      pop\n      jump\t// out\n        /* \"#utility.yul\":16353:16624   */\n    tag_403:\n      0x00\n        /* \"#utility.yul\":16505:16598   */\n      tag_621\n        /* \"#utility.yul\":16594:16597   */\n      dup3\n        /* \"#utility.yul\":16585:16591   */\n      dup5\n        /* \"#utility.yul\":16505:16598   */\n      tag_523\n      jump\t// in\n    tag_621:\n        /* \"#utility.yul\":16498:16598   */\n      swap2\n      pop\n        /* \"#utility.yul\":16615:16618   */\n      dup2\n        /* \"#utility.yul\":16608:16618   */\n      swap1\n      pop\n        /* \"#utility.yul\":16487:16624   */\n      swap3\n      swap2\n      pop\n      pop\n      jump\t// out\n        /* \"#utility.yul\":16630:16905   */\n    tag_320:\n      0x00\n        /* \"#utility.yul\":16784:16879   */\n      tag_623\n        /* \"#utility.yul\":16875:16878   */\n      dup3\n        /* \"#utility.yul\":16866:16872   */\n      dup5\n        /* \"#utility.yul\":16784:16879   */\n      tag_551\n      jump\t// in\n    tag_623:\n        /* \"#utility.yul\":16777:16879   */\n      swap2\n      pop\n        /* \"#utility.yul\":16896:16899   */\n      dup2\n        /* \"#utility.yul\":16889:16899   */\n      swap1\n      pop\n        /* \"#utility.yul\":16766:16905   */\n      swap3\n      swap2\n      pop\n      pop\n      jump\t// out\n        /* \"#utility.yul\":16911:17133   */\n    tag_49:\n      0x00\n        /* \"#utility.yul\":17042:17044   */\n      0x20\n        /* \"#utility.yul\":17031:17040   */\n      dup3\n        /* \"#utility.yul\":17027:17045   */\n      add\n        /* \"#utility.yul\":17019:17045   */\n      swap1\n      pop\n        /* \"#utility.yul\":17055:17126   */\n      tag_625\n        /* \"#utility.yul\":17123:17124   */\n      0x00\n        /* \"#utility.yul\":17112:17121   */\n      dup4\n        /* \"#utility.yul\":17108:17125   */\n      add\n        /* \"#utility.yul\":17099:17105   */\n      dup5\n        /* \"#utility.yul\":17055:17126   */\n      tag_502\n      jump\t// in\n    tag_625:\n        /* \"#utility.yul\":17009:17133   */\n      swap3\n      swap2\n      pop\n      pop\n      jump\t// out\n        /* \"#utility.yul\":17139:17656   */\n    tag_41:\n      0x00\n        /* \"#utility.yul\":17392:17394   */\n      0x20\n        /* \"#utility.yul\":17381:17390   */\n      dup3\n        /* \"#utility.yul\":17377:17395   */\n      add\n        /* \"#utility.yul\":17369:17395   */\n      swap1\n      pop\n        /* \"#utility.yul\":17441:17450   */\n      dup2\n        /* \"#utility.yul\":17435:17439   */\n      dup2\n        /* \"#utility.yul\":17431:17451   */\n      sub\n        /* \"#utility.yul\":17427:17428   */\n      0x00\n        /* \"#utility.yul\":17416:17425   */\n      dup4\n        /* \"#utility.yul\":17412:17429   */\n      add\n        /* \"#utility.yul\":17405:17452   */\n      mstore\n        /* \"#utility.yul\":17469:17649   */\n      tag_627\n        /* \"#utility.yul\":17644:17648   */\n      dup2\n        /* \"#utility.yul\":17635:17641   */\n      dup5\n        /* \"#utility.yul\":17469:17649   */\n      tag_505\n      jump\t// in\n    tag_627:\n        /* \"#utility.yul\":17461:17649   */\n      swap1\n      pop\n        /* \"#utility.yul\":17359:17656   */\n      swap3\n      swap2\n      pop\n      pop\n      jump\t// out\n        /* \"#utility.yul\":17662:17872   */\n    tag_37:\n      0x00\n        /* \"#utility.yul\":17787:17789   */\n      0x20\n        /* \"#utility.yul\":17776:17785   */\n      dup3\n        /* \"#utility.yul\":17772:17790   */\n      add\n        /* \"#utility.yul\":17764:17790   */\n      swap1\n      pop\n        /* \"#utility.yul\":17800:17865   */\n      tag_629\n        /* \"#utility.yul\":17862:17863   */\n      0x00\n        /* \"#utility.yul\":17851:17860   */\n      dup4\n        /* \"#utility.yul\":17847:17864   */\n      add\n        /* \"#utility.yul\":17838:17844   */\n      dup5\n        /* \"#utility.yul\":17800:17865   */\n      tag_519\n      jump\t// in\n    tag_629:\n        /* \"#utility.yul\":17754:17872   */\n      swap3\n      swap2\n      pop\n      pop\n      jump\t// out\n        /* \"#utility.yul\":17878:18140   */\n    tag_45:\n      0x00\n        /* \"#utility.yul\":18029:18031   */\n      0x20\n        /* \"#utility.yul\":18018:18027   */\n      dup3\n        /* \"#utility.yul\":18014:18032   */\n      add\n        /* \"#utility.yul\":18006:18032   */\n      swap1\n      pop\n        /* \"#utility.yul\":18042:18133   */\n      tag_631\n        /* \"#utility.yul\":18130:18131   */\n      0x00\n        /* \"#utility.yul\":18119:18128   */\n      dup4\n        /* \"#utility.yul\":18115:18132   */\n      add\n        /* \"#utility.yul\":18106:18112   */\n      dup5\n        /* \"#utility.yul\":18042:18133   */\n      tag_531\n      jump\t// in\n    tag_631:\n        /* \"#utility.yul\":17996:18140   */\n      swap3\n      swap2\n      pop\n      pop\n      jump\t// out\n        /* \"#utility.yul\":18146:18459   */\n    tag_179:\n      0x00\n        /* \"#utility.yul\":18297:18299   */\n      0x20\n        /* \"#utility.yul\":18286:18295   */\n      dup3\n        /* \"#utility.yul\":18282:18300   */\n      add\n        /* \"#utility.yul\":18274:18300   */\n      swap1\n      pop\n        /* \"#utility.yul\":18346:18355   */\n      dup2\n        /* \"#utility.yul\":18340:18344   */\n      dup2\n        /* \"#utility.yul\":18336:18356   */\n      sub\n        /* \"#utility.yul\":18332:18333   */\n      0x00\n        /* \"#utility.yul\":18321:18330   */\n      dup4\n        /* \"#utility.yul\":18317:18334   */\n      add\n        /* \"#utility.yul\":18310:18357   */\n      mstore\n        /* \"#utility.yul\":18374:18452   */\n      tag_633\n        /* \"#utility.yul\":18447:18451   */\n      dup2\n        /* \"#utility.yul\":18438:18444   */\n      dup5\n        /* \"#utility.yul\":18374:18452   */\n      tag_544\n      jump\t// in\n    tag_633:\n        /* \"#utility.yul\":18366:18452   */\n      swap1\n      pop\n        /* \"#utility.yul\":18264:18459   */\n      swap3\n      swap2\n      pop\n      pop\n      jump\t// out\n        /* \"#utility.yul\":18465:19089   */\n    tag_291:\n      0x00\n        /* \"#utility.yul\":18692:18694   */\n      0x60\n        /* \"#utility.yul\":18681:18690   */\n      dup3\n        /* \"#utility.yul\":18677:18695   */\n      add\n        /* \"#utility.yul\":18669:18695   */\n      swap1\n      pop\n        /* \"#utility.yul\":18741:18750   */\n      dup2\n        /* \"#utility.yul\":18735:18739   */\n      dup2\n        /* \"#utility.yul\":18731:18751   */\n      sub\n        /* \"#utility.yul\":18727:18728   */\n      0x00\n        /* \"#utility.yul\":18716:18725   */\n      dup4\n        /* \"#utility.yul\":18712:18729   */\n      add\n        /* \"#utility.yul\":18705:18752   */\n      mstore\n        /* \"#utility.yul\":18769:18847   */\n      tag_635\n        /* \"#utility.yul\":18842:18846   */\n      dup2\n        /* \"#utility.yul\":18833:18839   */\n      dup7\n        /* \"#utility.yul\":18769:18847   */\n      tag_544\n      jump\t// in\n    tag_635:\n        /* \"#utility.yul\":18761:18847   */\n      swap1\n      pop\n        /* \"#utility.yul\":18857:18929   */\n      tag_636\n        /* \"#utility.yul\":18925:18927   */\n      0x20\n        /* \"#utility.yul\":18914:18923   */\n      dup4\n        /* \"#utility.yul\":18910:18928   */\n      add\n        /* \"#utility.yul\":18901:18907   */\n      dup6\n        /* \"#utility.yul\":18857:18929   */\n      tag_502\n      jump\t// in\n    tag_636:\n        /* \"#utility.yul\":18976:18985   */\n      dup2\n        /* \"#utility.yul\":18970:18974   */\n      dup2\n        /* \"#utility.yul\":18966:18986   */\n      sub\n        /* \"#utility.yul\":18961:18963   */\n      0x40\n        /* \"#utility.yul\":18950:18959   */\n      dup4\n        /* \"#utility.yul\":18946:18964   */\n      add\n        /* \"#utility.yul\":18939:18987   */\n      mstore\n        /* \"#utility.yul\":19004:19082   */\n      tag_637\n        /* \"#utility.yul\":19077:19081   */\n      dup2\n        /* \"#utility.yul\":19068:19074   */\n      dup5\n        /* \"#utility.yul\":19004:19082   */\n      tag_544\n      jump\t// in\n    tag_637:\n        /* \"#utility.yul\":18996:19082   */\n      swap1\n      pop\n        /* \"#utility.yul\":18659:19089   */\n      swap5\n      swap4\n      pop\n      pop\n      pop\n      pop\n      jump\t// out\n        /* \"#utility.yul\":19095:19719   */\n    tag_65:\n      0x00\n        /* \"#utility.yul\":19322:19324   */\n      0x60\n        /* \"#utility.yul\":19311:19320   */\n      dup3\n        /* \"#utility.yul\":19307:19325   */\n      add\n        /* \"#utility.yul\":19299:19325   */\n      swap1\n      pop\n        /* \"#utility.yul\":19371:19380   */\n      dup2\n        /* \"#utility.yul\":19365:19369   */\n      dup2\n        /* \"#utility.yul\":19361:19381   */\n      sub\n        /* \"#utility.yul\":19357:19358   */\n      0x00\n        /* \"#utility.yul\":19346:19355   */\n      dup4\n        /* \"#utility.yul\":19342:19359   */\n      add\n        /* \"#utility.yul\":19335:19382   */\n      mstore\n        /* \"#utility.yul\":19399:19477   */\n      tag_639\n        /* \"#utility.yul\":19472:19476   */\n      dup2\n        /* \"#utility.yul\":19463:19469   */\n      dup7\n        /* \"#utility.yul\":19399:19477   */\n      tag_544\n      jump\t// in\n    tag_639:\n        /* \"#utility.yul\":19391:19477   */\n      swap1\n      pop\n        /* \"#utility.yul\":19524:19533   */\n      dup2\n        /* \"#utility.yul\":19518:19522   */\n      dup2\n        /* \"#utility.yul\":19514:19534   */\n      sub\n        /* \"#utility.yul\":19509:19511   */\n      0x20\n        /* \"#utility.yul\":19498:19507   */\n      dup4\n        /* \"#utility.yul\":19494:19512   */\n      add\n        /* \"#utility.yul\":19487:19535   */\n      mstore\n        /* \"#utility.yul\":19552:19630   */\n      tag_640\n        /* \"#utility.yul\":19625:19629   */\n      dup2\n        /* \"#utility.yul\":19616:19622   */\n      dup6\n        /* \"#utility.yul\":19552:19630   */\n      tag_544\n      jump\t// in\n    tag_640:\n        /* \"#utility.yul\":19544:19630   */\n      swap1\n      pop\n        /* \"#utility.yul\":19640:19712   */\n      tag_641\n        /* \"#utility.yul\":19708:19710   */\n      0x40\n        /* \"#utility.yul\":19697:19706   */\n      dup4\n        /* \"#utility.yul\":19693:19711   */\n      add\n        /* \"#utility.yul\":19684:19690   */\n      dup5\n        /* \"#utility.yul\":19640:19712   */\n      tag_502\n      jump\t// in\n    tag_641:\n        /* \"#utility.yul\":19289:19719   */\n      swap5\n      swap4\n      pop\n      pop\n      pop\n      pop\n      jump\t// out\n        /* \"#utility.yul\":19725:20144   */\n    tag_365:\n      0x00\n        /* \"#utility.yul\":19929:19931   */\n      0x20\n        /* \"#utility.yul\":19918:19927   */\n      dup3\n        /* \"#utility.yul\":19914:19932   */\n      add\n        /* \"#utility.yul\":19906:19932   */\n      swap1\n      pop\n        /* \"#utility.yul\":19978:19987   */\n      dup2\n        /* \"#utility.yul\":19972:19976   */\n      dup2\n        /* \"#utility.yul\":19968:19988   */\n      sub\n        /* \"#utility.yul\":19964:19965   */\n      0x00\n        /* \"#utility.yul\":19953:19962   */\n      dup4\n        /* \"#utility.yul\":19949:19966   */\n      add\n        /* \"#utility.yul\":19942:19989   */\n      mstore\n        /* \"#utility.yul\":20006:20137   */\n      tag_643\n        /* \"#utility.yul\":20132:20136   */\n      dup2\n        /* \"#utility.yul\":20006:20137   */\n      tag_557\n      jump\t// in\n    tag_643:\n        /* \"#utility.yul\":19998:20137   */\n      swap1\n      pop\n        /* \"#utility.yul\":19896:20144   */\n      swap2\n      swap1\n      pop\n      jump\t// out\n        /* \"#utility.yul\":20150:20569   */\n    tag_215:\n      0x00\n        /* \"#utility.yul\":20354:20356   */\n      0x20\n        /* \"#utility.yul\":20343:20352   */\n      dup3\n        /* \"#utility.yul\":20339:20357   */\n      add\n        /* \"#utility.yul\":20331:20357   */\n      swap1\n      pop\n        /* \"#utility.yul\":20403:20412   */\n      dup2\n        /* \"#utility.yul\":20397:20401   */\n      dup2\n        /* \"#utility.yul\":20393:20413   */\n      sub\n        /* \"#utility.yul\":20389:20390   */\n      0x00\n        /* \"#utility.yul\":20378:20387   */\n      dup4\n        /* \"#utility.yul\":20374:20391   */\n      add\n        /* \"#utility.yul\":20367:20414   */\n      mstore\n        /* \"#utility.yul\":20431:20562   */\n      tag_645\n        /* \"#utility.yul\":20557:20561   */\n      dup2\n        /* \"#utility.yul\":20431:20562   */\n      tag_560\n      jump\t// in\n    tag_645:\n        /* \"#utility.yul\":20423:20562   */\n      swap1\n      pop\n        /* \"#utility.yul\":20321:20569   */\n      swap2\n      swap1\n      pop\n      jump\t// out\n        /* \"#utility.yul\":20575:20994   */\n    tag_329:\n      0x00\n        /* \"#utility.yul\":20779:20781   */\n      0x20\n        /* \"#utility.yul\":20768:20777   */\n      dup3\n        /* \"#utility.yul\":20764:20782   */\n      add\n        /* \"#utility.yul\":20756:20782   */\n      swap1\n      pop\n        /* \"#utility.yul\":20828:20837   */\n      dup2\n        /* \"#utility.yul\":20822:20826   */\n      dup2\n        /* \"#utility.yul\":20818:20838   */\n      sub\n        /* \"#utility.yul\":20814:20815   */\n      0x00\n        /* \"#utility.yul\":20803:20812   */\n      dup4\n        /* \"#utility.yul\":20799:20816   */\n      add\n        /* \"#utility.yul\":20792:20839   */\n      mstore\n        /* \"#utility.yul\":20856:20987   */\n      tag_647\n        /* \"#utility.yul\":20982:20986   */\n      dup2\n        /* \"#utility.yul\":20856:20987   */\n      tag_563\n      jump\t// in\n    tag_647:\n        /* \"#utility.yul\":20848:20987   */\n      swap1\n      pop\n        /* \"#utility.yul\":20746:20994   */\n      swap2\n      swap1\n      pop\n      jump\t// out\n        /* \"#utility.yul\":21000:21419   */\n    tag_390:\n      0x00\n        /* \"#utility.yul\":21204:21206   */\n      0x20\n        /* \"#utility.yul\":21193:21202   */\n      dup3\n        /* \"#utility.yul\":21189:21207   */\n      add\n        /* \"#utility.yul\":21181:21207   */\n      swap1\n      pop\n        /* \"#utility.yul\":21253:21262   */\n      dup2\n        /* \"#utility.yul\":21247:21251   */\n      dup2\n        /* \"#utility.yul\":21243:21263   */\n      sub\n        /* \"#utility.yul\":21239:21240   */\n      0x00\n        /* \"#utility.yul\":21228:21237   */\n      dup4\n        /* \"#utility.yul\":21224:21241   */\n      add\n        /* \"#utility.yul\":21217:21264   */\n      mstore\n        /* \"#utility.yul\":21281:21412   */\n      tag_649\n        /* \"#utility.yul\":21407:21411   */\n      dup2\n        /* \"#utility.yul\":21281:21412   */\n      tag_566\n      jump\t// in\n    tag_649:\n        /* \"#utility.yul\":21273:21412   */\n      swap1\n      pop\n        /* \"#utility.yul\":21171:21419   */\n      swap2\n      swap1\n      pop\n      jump\t// out\n        /* \"#utility.yul\":21425:21844   */\n    tag_359:\n      0x00\n        /* \"#utility.yul\":21629:21631   */\n      0x20\n        /* \"#utility.yul\":21618:21627   */\n      dup3\n        /* \"#utility.yul\":21614:21632   */\n      add\n        /* \"#utility.yul\":21606:21632   */\n      swap1\n      pop\n        /* \"#utility.yul\":21678:21687   */\n      dup2\n        /* \"#utility.yul\":21672:21676   */\n      dup2\n        /* \"#utility.yul\":21668:21688   */\n      sub\n        /* \"#utility.yul\":21664:21665   */\n      0x00\n        /* \"#utility.yul\":21653:21662   */\n      dup4\n        /* \"#utility.yul\":21649:21666   */\n      add\n        /* \"#utility.yul\":21642:21689   */\n      mstore\n        /* \"#utility.yul\":21706:21837   */\n      tag_651\n        /* \"#utility.yul\":21832:21836   */\n      dup2\n        /* \"#utility.yul\":21706:21837   */\n      tag_569\n      jump\t// in\n    tag_651:\n        /* \"#utility.yul\":21698:21837   */\n      swap1\n      pop\n        /* \"#utility.yul\":21596:21844   */\n      swap2\n      swap1\n      pop\n      jump\t// out\n        /* \"#utility.yul\":21850:22269   */\n    tag_377:\n      0x00\n        /* \"#utility.yul\":22054:22056   */\n      0x20\n        /* \"#utility.yul\":22043:22052   */\n      dup3\n        /* \"#utility.yul\":22039:22057   */\n      add\n        /* \"#utility.yul\":22031:22057   */\n      swap1\n      pop\n        /* \"#utility.yul\":22103:22112   */\n      dup2\n        /* \"#utility.yul\":22097:22101   */\n      dup2\n        /* \"#utility.yul\":22093:22113   */\n      sub\n        /* \"#utility.yul\":22089:22090   */\n      0x00\n        /* \"#utility.yul\":22078:22087   */\n      dup4\n        /* \"#utility.yul\":22074:22091   */\n      add\n        /* \"#utility.yul\":22067:22114   */\n      mstore\n        /* \"#utility.yul\":22131:22262   */\n      tag_653\n        /* \"#utility.yul\":22257:22261   */\n      dup2\n        /* \"#utility.yul\":22131:22262   */\n      tag_572\n      jump\t// in\n    tag_653:\n        /* \"#utility.yul\":22123:22262   */\n      swap1\n      pop\n        /* \"#utility.yul\":22021:22269   */\n      swap2\n      swap1\n      pop\n      jump\t// out\n        /* \"#utility.yul\":22275:22694   */\n    tag_162:\n      0x00\n        /* \"#utility.yul\":22479:22481   */\n      0x20\n        /* \"#utility.yul\":22468:22477   */\n      dup3\n        /* \"#utility.yul\":22464:22482   */\n      add\n        /* \"#utility.yul\":22456:22482   */\n      swap1\n      pop\n        /* \"#utility.yul\":22528:22537   */\n      dup2\n        /* \"#utility.yul\":22522:22526   */\n      dup2\n        /* \"#utility.yul\":22518:22538   */\n      sub\n        /* \"#utility.yul\":22514:22515   */\n      0x00\n        /* \"#utility.yul\":22503:22512   */\n      dup4\n        /* \"#utility.yul\":22499:22516   */\n      add\n        /* \"#utility.yul\":22492:22539   */\n      mstore\n        /* \"#utility.yul\":22556:22687   */\n      tag_655\n        /* \"#utility.yul\":22682:22686   */\n      dup2\n        /* \"#utility.yul\":22556:22687   */\n      tag_575\n      jump\t// in\n    tag_655:\n        /* \"#utility.yul\":22548:22687   */\n      swap1\n      pop\n        /* \"#utility.yul\":22446:22694   */\n      swap2\n      swap1\n      pop\n      jump\t// out\n        /* \"#utility.yul\":22700:23119   */\n    tag_168:\n      0x00\n        /* \"#utility.yul\":22904:22906   */\n      0x20\n        /* \"#utility.yul\":22893:22902   */\n      dup3\n        /* \"#utility.yul\":22889:22907   */\n      add\n        /* \"#utility.yul\":22881:22907   */\n      swap1\n      pop\n        /* \"#utility.yul\":22953:22962   */\n      dup2\n        /* \"#utility.yul\":22947:22951   */\n      dup2\n        /* \"#utility.yul\":22943:22963   */\n      sub\n        /* \"#utility.yul\":22939:22940   */\n      0x00\n        /* \"#utility.yul\":22928:22937   */\n      dup4\n        /* \"#utility.yul\":22924:22941   */\n      add\n        /* \"#utility.yul\":22917:22964   */\n      mstore\n        /* \"#utility.yul\":22981:23112   */\n      tag_657\n        /* \"#utility.yul\":23107:23111   */\n      dup2\n        /* \"#utility.yul\":22981:23112   */\n      tag_578\n      jump\t// in\n    tag_657:\n        /* \"#utility.yul\":22973:23112   */\n      swap1\n      pop\n        /* \"#utility.yul\":22871:23119   */\n      swap2\n      swap1\n      pop\n      jump\t// out\n        /* \"#utility.yul\":23125:23544   */\n    tag_344:\n      0x00\n        /* \"#utility.yul\":23329:23331   */\n      0x20\n        /* \"#utility.yul\":23318:23327   */\n      dup3\n        /* \"#utility.yul\":23314:23332   */\n      add\n        /* \"#utility.yul\":23306:23332   */\n      swap1\n      pop\n        /* \"#utility.yul\":23378:23387   */\n      dup2\n        /* \"#utility.yul\":23372:23376   */\n      dup2\n        /* \"#utility.yul\":23368:23388   */\n      sub\n        /* \"#utility.yul\":23364:23365   */\n      0x00\n        /* \"#utility.yul\":23353:23362   */\n      dup4\n        /* \"#utility.yul\":23349:23366   */\n      add\n        /* \"#utility.yul\":23342:23389   */\n      mstore\n        /* \"#utility.yul\":23406:23537   */\n      tag_659\n        /* \"#utility.yul\":23532:23536   */\n      dup2\n        /* \"#utility.yul\":23406:23537   */\n      tag_581\n      jump\t// in\n    tag_659:\n        /* \"#utility.yul\":23398:23537   */\n      swap1\n      pop\n        /* \"#utility.yul\":23296:23544   */\n      swap2\n      swap1\n      pop\n      jump\t// out\n        /* \"#utility.yul\":23550:23969   */\n    tag_326:\n      0x00\n        /* \"#utility.yul\":23754:23756   */\n      0x20\n        /* \"#utility.yul\":23743:23752   */\n      dup3\n        /* \"#utility.yul\":23739:23757   */\n      add\n        /* \"#utility.yul\":23731:23757   */\n      swap1\n      pop\n        /* \"#utility.yul\":23803:23812   */\n      dup2\n        /* \"#utility.yul\":23797:23801   */\n      dup2\n        /* \"#utility.yul\":23793:23813   */\n      sub\n        /* \"#utility.yul\":23789:23790   */\n      0x00\n        /* \"#utility.yul\":23778:23787   */\n      dup4\n        /* \"#utility.yul\":23774:23791   */\n      add\n        /* \"#utility.yul\":23767:23814   */\n      mstore\n        /* \"#utility.yul\":23831:23962   */\n      tag_661\n        /* \"#utility.yul\":23957:23961   */\n      dup2\n        /* \"#utility.yul\":23831:23962   */\n      tag_584\n      jump\t// in\n    tag_661:\n        /* \"#utility.yul\":23823:23962   */\n      swap1\n      pop\n        /* \"#utility.yul\":23721:23969   */\n      swap2\n      swap1\n      pop\n      jump\t// out\n        /* \"#utility.yul\":23975:24394   */\n    tag_198:\n      0x00\n        /* \"#utility.yul\":24179:24181   */\n      0x20\n        /* \"#utility.yul\":24168:24177   */\n      dup3\n        /* \"#utility.yul\":24164:24182   */\n      add\n        /* \"#utility.yul\":24156:24182   */\n      swap1\n      pop\n        /* \"#utility.yul\":24228:24237   */\n      dup2\n        /* \"#utility.yul\":24222:24226   */\n      dup2\n        /* \"#utility.yul\":24218:24238   */\n      sub\n        /* \"#utility.yul\":24214:24215   */\n      0x00\n        /* \"#utility.yul\":24203:24212   */\n      dup4\n        /* \"#utility.yul\":24199:24216   */\n      add\n        /* \"#utility.yul\":24192:24239   */\n      mstore\n        /* \"#utility.yul\":24256:24387   */\n      tag_663\n        /* \"#utility.yul\":24382:24386   */\n      dup2\n        /* \"#utility.yul\":24256:24387   */\n      tag_587\n      jump\t// in\n    tag_663:\n        /* \"#utility.yul\":24248:24387   */\n      swap1\n      pop\n        /* \"#utility.yul\":24146:24394   */\n      swap2\n      swap1\n      pop\n      jump\t// out\n        /* \"#utility.yul\":24400:24819   */\n    tag_286:\n      0x00\n        /* \"#utility.yul\":24604:24606   */\n      0x20\n        /* \"#utility.yul\":24593:24602   */\n      dup3\n        /* \"#utility.yul\":24589:24607   */\n      add\n        /* \"#utility.yul\":24581:24607   */\n      swap1\n      pop\n        /* \"#utility.yul\":24653:24662   */\n      dup2\n        /* \"#utility.yul\":24647:24651   */\n      dup2\n        /* \"#utility.yul\":24643:24663   */\n      sub\n        /* \"#utility.yul\":24639:24640   */\n      0x00\n        /* \"#utility.yul\":24628:24637   */\n      dup4\n        /* \"#utility.yul\":24624:24641   */\n      add\n        /* \"#utility.yul\":24617:24664   */\n      mstore\n        /* \"#utility.yul\":24681:24812   */\n      tag_665\n        /* \"#utility.yul\":24807:24811   */\n      dup2\n        /* \"#utility.yul\":24681:24812   */\n      tag_590\n      jump\t// in\n    tag_665:\n        /* \"#utility.yul\":24673:24812   */\n      swap1\n      pop\n        /* \"#utility.yul\":24571:24819   */\n      swap2\n      swap1\n      pop\n      jump\t// out\n        /* \"#utility.yul\":24825:25244   */\n    tag_212:\n      0x00\n        /* \"#utility.yul\":25029:25031   */\n      0x20\n        /* \"#utility.yul\":25018:25027   */\n      dup3\n        /* \"#utility.yul\":25014:25032   */\n      add\n        /* \"#utility.yul\":25006:25032   */\n      swap1\n      pop\n        /* \"#utility.yul\":25078:25087   */\n      dup2\n        /* \"#utility.yul\":25072:25076   */\n      dup2\n        /* \"#utility.yul\":25068:25088   */\n      sub\n        /* \"#utility.yul\":25064:25065   */\n      0x00\n        /* \"#utility.yul\":25053:25062   */\n      dup4\n        /* \"#utility.yul\":25049:25066   */\n      add\n        /* \"#utility.yul\":25042:25089   */\n      mstore\n        /* \"#utility.yul\":25106:25237   */\n      tag_667\n        /* \"#utility.yul\":25232:25236   */\n      dup2\n        /* \"#utility.yul\":25106:25237   */\n      tag_593\n      jump\t// in\n    tag_667:\n        /* \"#utility.yul\":25098:25237   */\n      swap1\n      pop\n        /* \"#utility.yul\":24996:25244   */\n      swap2\n      swap1\n      pop\n      jump\t// out\n        /* \"#utility.yul\":25250:25669   */\n    tag_337:\n      0x00\n        /* \"#utility.yul\":25454:25456   */\n      0x20\n        /* \"#utility.yul\":25443:25452   */\n      dup3\n        /* \"#utility.yul\":25439:25457   */\n      add\n        /* \"#utility.yul\":25431:25457   */\n      swap1\n      pop\n        /* \"#utility.yul\":25503:25512   */\n      dup2\n        /* \"#utility.yul\":25497:25501   */\n      dup2\n        /* \"#utility.yul\":25493:25513   */\n      sub\n        /* \"#utility.yul\":25489:25490   */\n      0x00\n        /* \"#utility.yul\":25478:25487   */\n      dup4\n        /* \"#utility.yul\":25474:25491   */\n      add\n        /* \"#utility.yul\":25467:25514   */\n      mstore\n        /* \"#utility.yul\":25531:25662   */\n      tag_669\n        /* \"#utility.yul\":25657:25661   */\n      dup2\n        /* \"#utility.yul\":25531:25662   */\n      tag_596\n      jump\t// in\n    tag_669:\n        /* \"#utility.yul\":25523:25662   */\n      swap1\n      pop\n        /* \"#utility.yul\":25421:25669   */\n      swap2\n      swap1\n      pop\n      jump\t// out\n        /* \"#utility.yul\":25675:26094   */\n    tag_300:\n      0x00\n        /* \"#utility.yul\":25879:25881   */\n      0x20\n        /* \"#utility.yul\":25868:25877   */\n      dup3\n        /* \"#utility.yul\":25864:25882   */\n      add\n        /* \"#utility.yul\":25856:25882   */\n      swap1\n      pop\n        /* \"#utility.yul\":25928:25937   */\n      dup2\n        /* \"#utility.yul\":25922:25926   */\n      dup2\n        /* \"#utility.yul\":25918:25938   */\n      sub\n        /* \"#utility.yul\":25914:25915   */\n      0x00\n        /* \"#utility.yul\":25903:25912   */\n      dup4\n        /* \"#utility.yul\":25899:25916   */\n      add\n        /* \"#utility.yul\":25892:25939   */\n      mstore\n        /* \"#utility.yul\":25956:26087   */\n      tag_671\n        /* \"#utility.yul\":26082:26086   */\n      dup2\n        /* \"#utility.yul\":25956:26087   */\n      tag_599\n      jump\t// in\n    tag_671:\n        /* \"#utility.yul\":25948:26087   */\n      swap1\n      pop\n        /* \"#utility.yul\":25846:26094   */\n      swap2\n      swap1\n      pop\n      jump\t// out\n        /* \"#utility.yul\":26100:26519   */\n    tag_173:\n      0x00\n        /* \"#utility.yul\":26304:26306   */\n      0x20\n        /* \"#utility.yul\":26293:26302   */\n      dup3\n        /* \"#utility.yul\":26289:26307   */\n      add\n        /* \"#utility.yul\":26281:26307   */\n      swap1\n      pop\n        /* \"#utility.yul\":26353:26362   */\n      dup2\n        /* \"#utility.yul\":26347:26351   */\n      dup2\n        /* \"#utility.yul\":26343:26363   */\n      sub\n        /* \"#utility.yul\":26339:26340   */\n      0x00\n        /* \"#utility.yul\":26328:26337   */\n      dup4\n        /* \"#utility.yul\":26324:26341   */\n      add\n        /* \"#utility.yul\":26317:26364   */\n      mstore\n        /* \"#utility.yul\":26381:26512   */\n      tag_673\n        /* \"#utility.yul\":26507:26511   */\n      dup2\n        /* \"#utility.yul\":26381:26512   */\n      tag_602\n      jump\t// in\n    tag_673:\n        /* \"#utility.yul\":26373:26512   */\n      swap1\n      pop\n        /* \"#utility.yul\":26271:26519   */\n      swap2\n      swap1\n      pop\n      jump\t// out\n        /* \"#utility.yul\":26525:26944   */\n    tag_204:\n      0x00\n        /* \"#utility.yul\":26729:26731   */\n      0x20\n        /* \"#utility.yul\":26718:26727   */\n      dup3\n        /* \"#utility.yul\":26714:26732   */\n      add\n        /* \"#utility.yul\":26706:26732   */\n      swap1\n      pop\n        /* \"#utility.yul\":26778:26787   */\n      dup2\n        /* \"#utility.yul\":26772:26776   */\n      dup2\n        /* \"#utility.yul\":26768:26788   */\n      sub\n        /* \"#utility.yul\":26764:26765   */\n      0x00\n        /* \"#utility.yul\":26753:26762   */\n      dup4\n        /* \"#utility.yul\":26749:26766   */\n      add\n        /* \"#utility.yul\":26742:26789   */\n      mstore\n        /* \"#utility.yul\":26806:26937   */\n      tag_675\n        /* \"#utility.yul\":26932:26936   */\n      dup2\n        /* \"#utility.yul\":26806:26937   */\n      tag_605\n      jump\t// in\n    tag_675:\n        /* \"#utility.yul\":26798:26937   */\n      swap1\n      pop\n        /* \"#utility.yul\":26696:26944   */\n      swap2\n      swap1\n      pop\n      jump\t// out\n        /* \"#utility.yul\":26950:27172   */\n    tag_31:\n      0x00\n        /* \"#utility.yul\":27081:27083   */\n      0x20\n        /* \"#utility.yul\":27070:27079   */\n      dup3\n        /* \"#utility.yul\":27066:27084   */\n      add\n        /* \"#utility.yul\":27058:27084   */\n      swap1\n      pop\n        /* \"#utility.yul\":27094:27165   */\n      tag_677\n        /* \"#utility.yul\":27162:27163   */\n      0x00\n        /* \"#utility.yul\":27151:27160   */\n      dup4\n        /* \"#utility.yul\":27147:27164   */\n      add\n        /* \"#utility.yul\":27138:27144   */\n      dup5\n        /* \"#utility.yul\":27094:27165   */\n      tag_617\n      jump\t// in\n    tag_677:\n        /* \"#utility.yul\":27048:27172   */\n      swap3\n      swap2\n      pop\n      pop\n      jump\t// out\n        /* \"#utility.yul\":27178:27510   */\n    tag_98:\n      0x00\n        /* \"#utility.yul\":27337:27339   */\n      0x40\n        /* \"#utility.yul\":27326:27335   */\n      dup3\n        /* \"#utility.yul\":27322:27340   */\n      add\n        /* \"#utility.yul\":27314:27340   */\n      swap1\n      pop\n        /* \"#utility.yul\":27350:27421   */\n      tag_679\n        /* \"#utility.yul\":27418:27419   */\n      0x00\n        /* \"#utility.yul\":27407:27416   */\n      dup4\n        /* \"#utility.yul\":27403:27420   */\n      add\n        /* \"#utility.yul\":27394:27400   */\n      dup6\n        /* \"#utility.yul\":27350:27421   */\n      tag_617\n      jump\t// in\n    tag_679:\n        /* \"#utility.yul\":27431:27503   */\n      tag_680\n        /* \"#utility.yul\":27499:27501   */\n      0x20\n        /* \"#utility.yul\":27488:27497   */\n      dup4\n        /* \"#utility.yul\":27484:27502   */\n      add\n        /* \"#utility.yul\":27475:27481   */\n      dup5\n        /* \"#utility.yul\":27431:27503   */\n      tag_617\n      jump\t// in\n    tag_680:\n        /* \"#utility.yul\":27304:27510   */\n      swap4\n      swap3\n      pop\n      pop\n      pop\n      jump\t// out\n        /* \"#utility.yul\":27516:28180   */\n    tag_82:\n      0x00\n        /* \"#utility.yul\":27759:27762   */\n      0xa0\n        /* \"#utility.yul\":27748:27757   */\n      dup3\n        /* \"#utility.yul\":27744:27763   */\n      add\n        /* \"#utility.yul\":27736:27763   */\n      swap1\n      pop\n        /* \"#utility.yul\":27773:27844   */\n      tag_682\n        /* \"#utility.yul\":27841:27842   */\n      0x00\n        /* \"#utility.yul\":27830:27839   */\n      dup4\n        /* \"#utility.yul\":27826:27843   */\n      add\n        /* \"#utility.yul\":27817:27823   */\n      dup9\n        /* \"#utility.yul\":27773:27844   */\n      tag_617\n      jump\t// in\n    tag_682:\n        /* \"#utility.yul\":27854:27926   */\n      tag_683\n        /* \"#utility.yul\":27922:27924   */\n      0x20\n        /* \"#utility.yul\":27911:27920   */\n      dup4\n        /* \"#utility.yul\":27907:27925   */\n      add\n        /* \"#utility.yul\":27898:27904   */\n      dup8\n        /* \"#utility.yul\":27854:27926   */\n      tag_617\n      jump\t// in\n    tag_683:\n        /* \"#utility.yul\":27936:28008   */\n      tag_684\n        /* \"#utility.yul\":28004:28006   */\n      0x40\n        /* \"#utility.yul\":27993:28002   */\n      dup4\n        /* \"#utility.yul\":27989:28007   */\n      add\n        /* \"#utility.yul\":27980:27986   */\n      dup7\n        /* \"#utility.yul\":27936:28008   */\n      tag_617\n      jump\t// in\n    tag_684:\n        /* \"#utility.yul\":28018:28090   */\n      tag_685\n        /* \"#utility.yul\":28086:28088   */\n      0x60\n        /* \"#utility.yul\":28075:28084   */\n      dup4\n        /* \"#utility.yul\":28071:28089   */\n      add\n        /* \"#utility.yul\":28062:28068   */\n      dup6\n        /* \"#utility.yul\":28018:28090   */\n      tag_617\n      jump\t// in\n    tag_685:\n        /* \"#utility.yul\":28100:28173   */\n      tag_686\n        /* \"#utility.yul\":28168:28171   */\n      0x80\n        /* \"#utility.yul\":28157:28166   */\n      dup4\n        /* \"#utility.yul\":28153:28172   */\n      add\n        /* \"#utility.yul\":28144:28150   */\n      dup5\n        /* \"#utility.yul\":28100:28173   */\n      tag_617\n      jump\t// in\n    tag_686:\n        /* \"#utility.yul\":27726:28180   */\n      swap7\n      swap6\n      pop\n      pop\n      pop\n      pop\n      pop\n      pop\n      jump\t// out\n        /* \"#utility.yul\":28186:28469   */\n    tag_425:\n      0x00\n        /* \"#utility.yul\":28252:28254   */\n      0x40\n        /* \"#utility.yul\":28246:28255   */\n      mload\n        /* \"#utility.yul\":28236:28255   */\n      swap1\n      pop\n        /* \"#utility.yul\":28294:28298   */\n      dup2\n        /* \"#utility.yul\":28286:28292   */\n      dup2\n        /* \"#utility.yul\":28282:28299   */\n      add\n        /* \"#utility.yul\":28401:28407   */\n      dup2\n        /* \"#utility.yul\":28389:28399   */\n      dup2\n        /* \"#utility.yul\":28386:28408   */\n      lt\n        /* \"#utility.yul\":28365:28383   */\n      0xffffffffffffffff\n        /* \"#utility.yul\":28353:28363   */\n      dup3\n        /* \"#utility.yul\":28350:28384   */\n      gt\n        /* \"#utility.yul\":28347:28409   */\n      or\n        /* \"#utility.yul\":28344:28346   */\n      iszero\n      tag_688\n      jumpi\n        /* \"#utility.yul\":28412:28430   */\n      tag_689\n      tag_690\n      jump\t// in\n    tag_689:\n        /* \"#utility.yul\":28344:28346   */\n    tag_688:\n        /* \"#utility.yul\":28452:28462   */\n      dup1\n        /* \"#utility.yul\":28448:28450   */\n      0x40\n        /* \"#utility.yul\":28441:28463   */\n      mstore\n        /* \"#utility.yul\":28226:28469   */\n      pop\n      swap2\n      swap1\n      pop\n      jump\t// out\n        /* \"#utility.yul\":28475:28807   */\n    tag_424:\n      0x00\n        /* \"#utility.yul\":28627:28645   */\n      0xffffffffffffffff\n        /* \"#utility.yul\":28619:28625   */\n      dup3\n        /* \"#utility.yul\":28616:28646   */\n      gt\n        /* \"#utility.yul\":28613:28615   */\n      iszero\n      tag_692\n      jumpi\n        /* \"#utility.yul\":28649:28667   */\n      tag_693\n      tag_690\n      jump\t// in\n    tag_693:\n        /* \"#utility.yul\":28613:28615   */\n    tag_692:\n        /* \"#utility.yul\":28734:28738   */\n      0x1f\n        /* \"#utility.yul\":28730:28739   */\n      not\n        /* \"#utility.yul\":28723:28727   */\n      0x1f\n        /* \"#utility.yul\":28715:28721   */\n      dup4\n        /* \"#utility.yul\":28711:28728   */\n      add\n        /* \"#utility.yul\":28707:28740   */\n      and\n        /* \"#utility.yul\":28699:28740   */\n      swap1\n      pop\n        /* \"#utility.yul\":28795:28799   */\n      0x20\n        /* \"#utility.yul\":28789:28793   */\n      dup2\n        /* \"#utility.yul\":28785:28800   */\n      add\n        /* \"#utility.yul\":28777:28800   */\n      swap1\n      pop\n        /* \"#utility.yul\":28542:28807   */\n      swap2\n      swap1\n      pop\n      jump\t// out\n        /* \"#utility.yul\":28813:28981   */\n    tag_512:\n      0x00\n        /* \"#utility.yul\":28939:28942   */\n      dup2\n        /* \"#utility.yul\":28931:28942   */\n      swap1\n      pop\n        /* \"#utility.yul\":28969:28973   */\n      0x20\n        /* \"#utility.yul\":28964:28967   */\n      dup3\n        /* \"#utility.yul\":28960:28974   */\n      add\n        /* \"#utility.yul\":28952:28974   */\n      swap1\n      pop\n        /* \"#utility.yul\":28921:28981   */\n      swap2\n      swap1\n      pop\n      jump\t// out\n        /* \"#utility.yul\":28987:29137   */\n    tag_508:\n      0x00\n        /* \"#utility.yul\":29124:29129   */\n      dup2\n        /* \"#utility.yul\":29118:29130   */\n      mload\n        /* \"#utility.yul\":29108:29130   */\n      swap1\n      pop\n        /* \"#utility.yul\":29097:29137   */\n      swap2\n      swap1\n      pop\n      jump\t// out\n        /* \"#utility.yul\":29143:29241   */\n    tag_526:\n      0x00\n        /* \"#utility.yul\":29228:29233   */\n      dup2\n        /* \"#utility.yul\":29222:29234   */\n      mload\n        /* \"#utility.yul\":29212:29234   */\n      swap1\n      pop\n        /* \"#utility.yul\":29201:29241   */\n      swap2\n      swap1\n      pop\n      jump\t// out\n        /* \"#utility.yul\":29247:29346   */\n    tag_538:\n      0x00\n        /* \"#utility.yul\":29333:29338   */\n      dup2\n        /* \"#utility.yul\":29327:29339   */\n      mload\n        /* \"#utility.yul\":29317:29339   */\n      swap1\n      pop\n        /* \"#utility.yul\":29306:29346   */\n      swap2\n      swap1\n      pop\n      jump\t// out\n        /* \"#utility.yul\":29352:29501   */\n    tag_518:\n      0x00\n        /* \"#utility.yul\":29490:29494   */\n      0x20\n        /* \"#utility.yul\":29485:29488   */\n      dup3\n        /* \"#utility.yul\":29481:29495   */\n      add\n        /* \"#utility.yul\":29473:29495   */\n      swap1\n      pop\n        /* \"#utility.yul\":29463:29501   */\n      swap2\n      swap1\n      pop\n      jump\t// out\n        /* \"#utility.yul\":29507:29727   */\n    tag_510:\n      0x00\n        /* \"#utility.yul\":29676:29682   */\n      dup3\n        /* \"#utility.yul\":29671:29674   */\n      dup3\n        /* \"#utility.yul\":29664:29683   */\n      mstore\n        /* \"#utility.yul\":29716:29720   */\n      0x20\n        /* \"#utility.yul\":29711:29714   */\n      dup3\n        /* \"#utility.yul\":29707:29721   */\n      add\n        /* \"#utility.yul\":29692:29721   */\n      swap1\n      pop\n        /* \"#utility.yul\":29654:29727   */\n      swap3\n      swap2\n      pop\n      pop\n      jump\t// out\n        /* \"#utility.yul\":29733:29880   */\n    tag_528:\n      0x00\n        /* \"#utility.yul\":29871:29874   */\n      dup2\n        /* \"#utility.yul\":29856:29874   */\n      swap1\n      pop\n        /* \"#utility.yul\":29846:29880   */\n      swap3\n      swap2\n      pop\n      pop\n      jump\t// out\n        /* \"#utility.yul\":29886:30045   */\n    tag_540:\n      0x00\n        /* \"#utility.yul\":29994:30000   */\n      dup3\n        /* \"#utility.yul\":29989:29992   */\n      dup3\n        /* \"#utility.yul\":29982:30001   */\n      mstore\n        /* \"#utility.yul\":30034:30038   */\n      0x20\n        /* \"#utility.yul\":30029:30032   */\n      dup3\n        /* \"#utility.yul\":30025:30039   */\n      add\n        /* \"#utility.yul\":30010:30039   */\n      swap1\n      pop\n        /* \"#utility.yul\":29972:30045   */\n      swap3\n      swap2\n      pop\n      pop\n      jump\t// out\n        /* \"#utility.yul\":30051:30220   */\n    tag_548:\n      0x00\n        /* \"#utility.yul\":30169:30175   */\n      dup3\n        /* \"#utility.yul\":30164:30167   */\n      dup3\n        /* \"#utility.yul\":30157:30176   */\n      mstore\n        /* \"#utility.yul\":30209:30213   */\n      0x20\n        /* \"#utility.yul\":30204:30207   */\n      dup3\n        /* \"#utility.yul\":30200:30214   */\n      add\n        /* \"#utility.yul\":30185:30214   */\n      swap1\n      pop\n        /* \"#utility.yul\":30147:30220   */\n      swap3\n      swap2\n      pop\n      pop\n      jump\t// out\n        /* \"#utility.yul\":30226:30374   */\n    tag_555:\n      0x00\n        /* \"#utility.yul\":30365:30368   */\n      dup2\n        /* \"#utility.yul\":30350:30368   */\n      swap1\n      pop\n        /* \"#utility.yul\":30340:30374   */\n      swap3\n      swap2\n      pop\n      pop\n      jump\t// out\n        /* \"#utility.yul\":30380:30685   */\n    tag_165:\n      0x00\n        /* \"#utility.yul\":30439:30459   */\n      tag_705\n        /* \"#utility.yul\":30457:30458   */\n      dup3\n        /* \"#utility.yul\":30439:30459   */\n      tag_616\n      jump\t// in\n    tag_705:\n        /* \"#utility.yul\":30434:30459   */\n      swap2\n      pop\n        /* \"#utility.yul\":30473:30493   */\n      tag_706\n        /* \"#utility.yul\":30491:30492   */\n      dup4\n        /* \"#utility.yul\":30473:30493   */\n      tag_616\n      jump\t// in\n    tag_706:\n        /* \"#utility.yul\":30468:30493   */\n      swap3\n      pop\n        /* \"#utility.yul\":30627:30628   */\n      dup3\n        /* \"#utility.yul\":30559:30625   */\n      0xffffffffffffffffffffffffffffffffffffffffffffffffffffffffffffffff\n        /* \"#utility.yul\":30555:30629   */\n      sub\n        /* \"#utility.yul\":30552:30553   */\n      dup3\n        /* \"#utility.yul\":30549:30630   */\n      gt\n        /* \"#utility.yul\":30546:30548   */\n      iszero\n      tag_707\n      jumpi\n        /* \"#utility.yul\":30633:30651   */\n      tag_708\n      tag_709\n      jump\t// in\n    tag_708:\n        /* \"#utility.yul\":30546:30548   */\n    tag_707:\n        /* \"#utility.yul\":30677:30678   */\n      dup3\n        /* \"#utility.yul\":30674:30675   */\n      dup3\n        /* \"#utility.yul\":30670:30679   */\n      add\n        /* \"#utility.yul\":30663:30679   */\n      swap1\n      pop\n        /* \"#utility.yul\":30424:30685   */\n      swap3\n      swap2\n      pop\n      pop\n      jump\t// out\n        /* \"#utility.yul\":30691:30876   */\n    tag_154:\n      0x00\n        /* \"#utility.yul\":30748:30768   */\n      tag_711\n        /* \"#utility.yul\":30766:30767   */\n      dup3\n        /* \"#utility.yul\":30748:30768   */\n      tag_616\n      jump\t// in\n    tag_711:\n        /* \"#utility.yul\":30743:30768   */\n      swap2\n      pop\n        /* \"#utility.yul\":30782:30802   */\n      tag_712\n        /* \"#utility.yul\":30800:30801   */\n      dup4\n        /* \"#utility.yul\":30782:30802   */\n      tag_616\n      jump\t// in\n    tag_712:\n        /* \"#utility.yul\":30777:30802   */\n      swap3\n      pop\n        /* \"#utility.yul\":30821:30822   */\n      dup3\n        /* \"#utility.yul\":30811:30813   */\n      tag_713\n      jumpi\n        /* \"#utility.yul\":30826:30844   */\n      tag_714\n      tag_715\n      jump\t// in\n    tag_714:\n        /* \"#utility.yul\":30811:30813   */\n    tag_713:\n        /* \"#utility.yul\":30868:30869   */\n      dup3\n        /* \"#utility.yul\":30865:30866   */\n      dup3\n        /* \"#utility.yul\":30861:30870   */\n      div\n        /* \"#utility.yul\":30856:30870   */\n      swap1\n      pop\n        /* \"#utility.yul\":30733:30876   */\n      swap3\n      swap2\n      pop\n      pop\n      jump\t// out\n        /* \"#utility.yul\":30882:31230   */\n    tag_152:\n      0x00\n        /* \"#utility.yul\":30945:30965   */\n      tag_717\n        /* \"#utility.yul\":30963:30964   */\n      dup3\n        /* \"#utility.yul\":30945:30965   */\n      tag_616\n      jump\t// in\n    tag_717:\n        /* \"#utility.yul\":30940:30965   */\n      swap2\n      pop\n        /* \"#utility.yul\":30979:30999   */\n      tag_718\n        /* \"#utility.yul\":30997:30998   */\n      dup4\n        /* \"#utility.yul\":30979:30999   */\n      tag_616\n      jump\t// in\n    tag_718:\n        /* \"#utility.yul\":30974:30999   */\n      swap3\n      pop\n        /* \"#utility.yul\":31167:31168   */\n      dup2\n        /* \"#utility.yul\":31099:31165   */\n      0xffffffffffffffffffffffffffffffffffffffffffffffffffffffffffffffff\n        /* \"#utility.yul\":31095:31169   */\n      div\n        /* \"#utility.yul\":31092:31093   */\n      dup4\n        /* \"#utility.yul\":31089:31170   */\n      gt\n        /* \"#utility.yul\":31084:31085   */\n      dup3\n        /* \"#utility.yul\":31077:31086   */\n      iszero\n        /* \"#utility.yul\":31070:31087   */\n      iszero\n        /* \"#utility.yul\":31066:31171   */\n      and\n        /* \"#utility.yul\":31063:31065   */\n      iszero\n      tag_719\n      jumpi\n        /* \"#utility.yul\":31174:31192   */\n      tag_720\n      tag_709\n      jump\t// in\n    tag_720:\n        /* \"#utility.yul\":31063:31065   */\n    tag_719:\n        /* \"#utility.yul\":31222:31223   */\n      dup3\n        /* \"#utility.yul\":31219:31220   */\n      dup3\n        /* \"#utility.yul\":31215:31224   */\n      mul\n        /* \"#utility.yul\":31204:31224   */\n      swap1\n      pop\n        /* \"#utility.yul\":30930:31230   */\n      swap3\n      swap2\n      pop\n      pop\n      jump\t// out\n        /* \"#utility.yul\":31236:31332   */\n    tag_501:\n      0x00\n        /* \"#utility.yul\":31302:31326   */\n      tag_722\n        /* \"#utility.yul\":31320:31325   */\n      dup3\n        /* \"#utility.yul\":31302:31326   */\n      tag_723\n      jump\t// in\n    tag_722:\n        /* \"#utility.yul\":31291:31326   */\n      swap1\n      pop\n        /* \"#utility.yul\":31281:31332   */\n      swap2\n      swap1\n      pop\n      jump\t// out\n        /* \"#utility.yul\":31338:31428   */\n    tag_522:\n      0x00\n        /* \"#utility.yul\":31415:31420   */\n      dup2\n        /* \"#utility.yul\":31408:31421   */\n      iszero\n        /* \"#utility.yul\":31401:31422   */\n      iszero\n        /* \"#utility.yul\":31390:31422   */\n      swap1\n      pop\n        /* \"#utility.yul\":31380:31428   */\n      swap2\n      swap1\n      pop\n      jump\t// out\n        /* \"#utility.yul\":31434:31560   */\n    tag_723:\n      0x00\n        /* \"#utility.yul\":31511:31553   */\n      0xffffffffffffffffffffffffffffffffffffffff\n        /* \"#utility.yul\":31504:31509   */\n      dup3\n        /* \"#utility.yul\":31500:31554   */\n      and\n        /* \"#utility.yul\":31489:31554   */\n      swap1\n      pop\n        /* \"#utility.yul\":31479:31560   */\n      swap2\n      swap1\n      pop\n      jump\t// out\n        /* \"#utility.yul\":31566:31643   */\n    tag_616:\n      0x00\n        /* \"#utility.yul\":31632:31637   */\n      dup2\n        /* \"#utility.yul\":31621:31637   */\n      swap1\n      pop\n        /* \"#utility.yul\":31611:31643   */\n      swap2\n      swap1\n      pop\n      jump\t// out\n        /* \"#utility.yul\":31649:31815   */\n    tag_534:\n      0x00\n        /* \"#utility.yul\":31752:31809   */\n      tag_728\n        /* \"#utility.yul\":31803:31808   */\n      dup3\n        /* \"#utility.yul\":31752:31809   */\n      tag_729\n      jump\t// in\n    tag_728:\n        /* \"#utility.yul\":31739:31809   */\n      swap1\n      pop\n        /* \"#utility.yul\":31729:31815   */\n      swap2\n      swap1\n      pop\n      jump\t// out\n        /* \"#utility.yul\":31821:31954   */\n    tag_729:\n      0x00\n        /* \"#utility.yul\":31924:31948   */\n      tag_731\n        /* \"#utility.yul\":31942:31947   */\n      dup3\n        /* \"#utility.yul\":31924:31948   */\n      tag_723\n      jump\t// in\n    tag_731:\n        /* \"#utility.yul\":31911:31948   */\n      swap1\n      pop\n        /* \"#utility.yul\":31901:31954   */\n      swap2\n      swap1\n      pop\n      jump\t// out\n        /* \"#utility.yul\":31960:32114   */\n    tag_428:\n        /* \"#utility.yul\":32044:32050   */\n      dup3\n        /* \"#utility.yul\":32039:32042   */\n      dup2\n        /* \"#utility.yul\":32034:32037   */\n      dup4\n        /* \"#utility.yul\":32021:32051   */\n      calldatacopy\n        /* \"#utility.yul\":32106:32107   */\n      0x00\n        /* \"#utility.yul\":32097:32103   */\n      dup4\n        /* \"#utility.yul\":32092:32095   */\n      dup4\n        /* \"#utility.yul\":32088:32104   */\n      add\n        /* \"#utility.yul\":32081:32108   */\n      mstore\n        /* \"#utility.yul\":32011:32114   */\n      pop\n      pop\n      pop\n      jump\t// out\n        /* \"#utility.yul\":32120:32427   */\n    tag_530:\n        /* \"#utility.yul\":32188:32189   */\n      0x00\n        /* \"#utility.yul\":32198:32311   */\n    tag_734:\n        /* \"#utility.yul\":32212:32218   */\n      dup4\n        /* \"#utility.yul\":32209:32210   */\n      dup2\n        /* \"#utility.yul\":32206:32219   */\n      lt\n        /* \"#utility.yul\":32198:32311   */\n      iszero\n      tag_736\n      jumpi\n        /* \"#utility.yul\":32297:32298   */\n      dup1\n        /* \"#utility.yul\":32292:32295   */\n      dup3\n        /* \"#utility.yul\":32288:32299   */\n      add\n        /* \"#utility.yul\":32282:32300   */\n      mload\n        /* \"#utility.yul\":32278:32279   */\n      dup2\n        /* \"#utility.yul\":32273:32276   */\n      dup5\n        /* \"#utility.yul\":32269:32280   */\n      add\n        /* \"#utility.yul\":32262:32301   */\n      mstore\n        /* \"#utility.yul\":32234:32236   */\n      0x20\n        /* \"#utility.yul\":32231:32232   */\n      dup2\n        /* \"#utility.yul\":32227:32237   */\n      add\n        /* \"#utility.yul\":32222:32237   */\n      swap1\n      pop\n        /* \"#utility.yul\":32198:32311   */\n      jump(tag_734)\n    tag_736:\n        /* \"#utility.yul\":32329:32335   */\n      dup4\n        /* \"#utility.yul\":32326:32327   */\n      dup2\n        /* \"#utility.yul\":32323:32336   */\n      gt\n        /* \"#utility.yul\":32320:32322   */\n      iszero\n      tag_737\n      jumpi\n        /* \"#utility.yul\":32409:32410   */\n      0x00\n        /* \"#utility.yul\":32400:32406   */\n      dup5\n        /* \"#utility.yul\":32395:32398   */\n      dup5\n        /* \"#utility.yul\":32391:32407   */\n      add\n        /* \"#utility.yul\":32384:32411   */\n      mstore\n        /* \"#utility.yul\":32320:32322   */\n    tag_737:\n        /* \"#utility.yul\":32169:32427   */\n      pop\n      pop\n      pop\n      pop\n      jump\t// out\n        /* \"#utility.yul\":32433:32753   */\n    tag_124:\n      0x00\n        /* \"#utility.yul\":32514:32515   */\n      0x02\n        /* \"#utility.yul\":32508:32512   */\n      dup3\n        /* \"#utility.yul\":32504:32516   */\n      div\n        /* \"#utility.yul\":32494:32516   */\n      swap1\n      pop\n        /* \"#utility.yul\":32561:32562   */\n      0x01\n        /* \"#utility.yul\":32555:32559   */\n      dup3\n        /* \"#utility.yul\":32551:32563   */\n      and\n        /* \"#utility.yul\":32582:32600   */\n      dup1\n        /* \"#utility.yul\":32572:32574   */\n      tag_739\n      jumpi\n        /* \"#utility.yul\":32638:32642   */\n      0x7f\n        /* \"#utility.yul\":32630:32636   */\n      dup3\n        /* \"#utility.yul\":32626:32643   */\n      and\n        /* \"#utility.yul\":32616:32643   */\n      swap2\n      pop\n        /* \"#utility.yul\":32572:32574   */\n    tag_739:\n        /* \"#utility.yul\":32700:32702   */\n      0x20\n        /* \"#utility.yul\":32692:32698   */\n      dup3\n        /* \"#utility.yul\":32689:32703   */\n      lt\n        /* \"#utility.yul\":32669:32687   */\n      dup2\n        /* \"#utility.yul\":32666:32704   */\n      eq\n        /* \"#utility.yul\":32663:32665   */\n      iszero\n      tag_740\n      jumpi\n        /* \"#utility.yul\":32719:32737   */\n      tag_741\n      tag_742\n      jump\t// in\n    tag_741:\n        /* \"#utility.yul\":32663:32665   */\n    tag_740:\n        /* \"#utility.yul\":32484:32753   */\n      pop\n      swap2\n      swap1\n      pop\n      jump\t// out\n        /* \"#utility.yul\":32759:32992   */\n    tag_136:\n      0x00\n        /* \"#utility.yul\":32821:32845   */\n      tag_744\n        /* \"#utility.yul\":32839:32844   */\n      dup3\n        /* \"#utility.yul\":32821:32845   */\n      tag_616\n      jump\t// in\n    tag_744:\n        /* \"#utility.yul\":32812:32845   */\n      swap2\n      pop\n        /* \"#utility.yul\":32867:32933   */\n      0xffffffffffffffffffffffffffffffffffffffffffffffffffffffffffffffff\n        /* \"#utility.yul\":32860:32865   */\n      dup3\n        /* \"#utility.yul\":32857:32934   */\n      eq\n        /* \"#utility.yul\":32854:32856   */\n      iszero\n      tag_745\n      jumpi\n        /* \"#utility.yul\":32937:32955   */\n      tag_746\n      tag_709\n      jump\t// in\n    tag_746:\n        /* \"#utility.yul\":32854:32856   */\n    tag_745:\n        /* \"#utility.yul\":32984:32985   */\n      0x01\n        /* \"#utility.yul\":32977:32982   */\n      dup3\n        /* \"#utility.yul\":32973:32986   */\n      add\n        /* \"#utility.yul\":32966:32986   */\n      swap1\n      pop\n        /* \"#utility.yul\":32802:32992   */\n      swap2\n      swap1\n      pop\n      jump\t// out\n        /* \"#utility.yul\":32998:33178   */\n    tag_709:\n        /* \"#utility.yul\":33046:33123   */\n      0x4e487b7100000000000000000000000000000000000000000000000000000000\n        /* \"#utility.yul\":33043:33044   */\n      0x00\n        /* \"#utility.yul\":33036:33124   */\n      mstore\n        /* \"#utility.yul\":33143:33147   */\n      0x11\n        /* \"#utility.yul\":33140:33141   */\n      0x04\n        /* \"#utility.yul\":33133:33148   */\n      mstore\n        /* \"#utility.yul\":33167:33171   */\n      0x24\n        /* \"#utility.yul\":33164:33165   */\n      0x00\n        /* \"#utility.yul\":33157:33172   */\n      revert\n        /* \"#utility.yul\":33184:33364   */\n    tag_715:\n        /* \"#utility.yul\":33232:33309   */\n      0x4e487b7100000000000000000000000000000000000000000000000000000000\n        /* \"#utility.yul\":33229:33230   */\n      0x00\n        /* \"#utility.yul\":33222:33310   */\n      mstore\n        /* \"#utility.yul\":33329:33333   */\n      0x12\n        /* \"#utility.yul\":33326:33327   */\n      0x04\n        /* \"#utility.yul\":33319:33334   */\n      mstore\n        /* \"#utility.yul\":33353:33357   */\n      0x24\n        /* \"#utility.yul\":33350:33351   */\n      0x00\n        /* \"#utility.yul\":33343:33358   */\n      revert\n        /* \"#utility.yul\":33370:33550   */\n    tag_742:\n        /* \"#utility.yul\":33418:33495   */\n      0x4e487b7100000000000000000000000000000000000000000000000000000000\n        /* \"#utility.yul\":33415:33416   */\n      0x00\n        /* \"#utility.yul\":33408:33496   */\n      mstore\n        /* \"#utility.yul\":33515:33519   */\n      0x22\n        /* \"#utility.yul\":33512:33513   */\n      0x04\n        /* \"#utility.yul\":33505:33520   */\n      mstore\n        /* \"#utility.yul\":33539:33543   */\n      0x24\n        /* \"#utility.yul\":33536:33537   */\n      0x00\n        /* \"#utility.yul\":33529:33544   */\n      revert\n        /* \"#utility.yul\":33556:33736   */\n    tag_690:\n        /* \"#utility.yul\":33604:33681   */\n      0x4e487b7100000000000000000000000000000000000000000000000000000000\n        /* \"#utility.yul\":33601:33602   */\n      0x00\n        /* \"#utility.yul\":33594:33682   */\n      mstore\n        /* \"#utility.yul\":33701:33705   */\n      0x41\n        /* \"#utility.yul\":33698:33699   */\n      0x04\n        /* \"#utility.yul\":33691:33706   */\n      mstore\n        /* \"#utility.yul\":33725:33729   */\n      0x24\n        /* \"#utility.yul\":33722:33723   */\n      0x00\n        /* \"#utility.yul\":33715:33730   */\n      revert\n        /* \"#utility.yul\":33742:33844   */\n    tag_543:\n      0x00\n        /* \"#utility.yul\":33834:33836   */\n      0x1f\n        /* \"#utility.yul\":33830:33837   */\n      not\n        /* \"#utility.yul\":33825:33827   */\n      0x1f\n        /* \"#utility.yul\":33818:33823   */\n      dup4\n        /* \"#utility.yul\":33814:33828   */\n      add\n        /* \"#utility.yul\":33810:33838   */\n      and\n        /* \"#utility.yul\":33800:33838   */\n      swap1\n      pop\n        /* \"#utility.yul\":33790:33844   */\n      swap2\n      swap1\n      pop\n      jump\t// out\n        /* \"#utility.yul\":33850:33972   */\n    tag_432:\n        /* \"#utility.yul\":33923:33947   */\n      tag_753\n        /* \"#utility.yul\":33941:33946   */\n      dup2\n        /* \"#utility.yul\":33923:33947   */\n      tag_501\n      jump\t// in\n    tag_753:\n        /* \"#utility.yul\":33916:33921   */\n      dup2\n        /* \"#utility.yul\":33913:33948   */\n      eq\n        /* \"#utility.yul\":33903:33905   */\n      tag_754\n      jumpi\n        /* \"#utility.yul\":33962:33963   */\n      0x00\n        /* \"#utility.yul\":33959:33960   */\n      dup1\n        /* \"#utility.yul\":33952:33964   */\n      revert\n        /* \"#utility.yul\":33903:33905   */\n    tag_754:\n        /* \"#utility.yul\":33893:33972   */\n      pop\n      jump\t// out\n        /* \"#utility.yul\":33978:34094   */\n    tag_439:\n        /* \"#utility.yul\":34048:34069   */\n      tag_756\n        /* \"#utility.yul\":34063:34068   */\n      dup2\n        /* \"#utility.yul\":34048:34069   */\n      tag_522\n      jump\t// in\n    tag_756:\n        /* \"#utility.yul\":34041:34046   */\n      dup2\n        /* \"#utility.yul\":34038:34070   */\n      eq\n        /* \"#utility.yul\":34028:34030   */\n      tag_757\n      jumpi\n        /* \"#utility.yul\":34084:34085   */\n      0x00\n        /* \"#utility.yul\":34081:34082   */\n      dup1\n        /* \"#utility.yul\":34074:34086   */\n      revert\n        /* \"#utility.yul\":34028:34030   */\n    tag_757:\n        /* \"#utility.yul\":34018:34094   */\n      pop\n      jump\t// out\n        /* \"#utility.yul\":34100:34222   */\n    tag_450:\n        /* \"#utility.yul\":34173:34197   */\n      tag_759\n        /* \"#utility.yul\":34191:34196   */\n      dup2\n        /* \"#utility.yul\":34173:34197   */\n      tag_616\n      jump\t// in\n    tag_759:\n        /* \"#utility.yul\":34166:34171   */\n      dup2\n        /* \"#utility.yul\":34163:34198   */\n      eq\n        /* \"#utility.yul\":34153:34155   */\n      tag_760\n      jumpi\n        /* \"#utility.yul\":34212:34213   */\n      0x00\n        /* \"#utility.yul\":34209:34210   */\n      dup1\n        /* \"#utility.yul\":34202:34214   */\n      revert\n        /* \"#utility.yul\":34153:34155   */\n    tag_760:\n        /* \"#utility.yul\":34143:34222   */\n      pop\n      jump\t// out\n\n    auxdata: 0xa26469706673582212201fc60cab2cc5b865d522a061f31fe0039b96aa0afb5b86f8500616d9629c153364736f6c63430008000033\n}\n",
				"bytecode": {
					"linkReferences": {},
					"object": "6080604052603c600055603c6001556005600a5534801561001f57600080fd5b5061420d8061002f6000396000f3fe608060405234801561001057600080fd5b50600436106101425760003560e01c806382214856116100b8578063e3a1c1c71161007c578063e3a1c1c71461036f578063edef019d1461038b578063f887ea40146103bc578063f9d793d1146103da578063fc7881c61461040a578063fe0d94c11461042657610142565b806382214856146102b3578063ba7b6703146102cf578063bcd60f6c146102ed578063bcf93dd614610321578063d9ae5bd51461033f57610142565b8063525385501161010a57806352538550146101ef5780635a42007f1461021f57806371d68a971461023d57806374786f691461025957806375bb5b091461028b5780638129fc1c146102a957610142565b80631d75ddcc146101475780632c9e3ef014610165578063321c48f2146101955780633b92eb23146101b35780633fee74d7146101d1575b600080fd5b61014f610442565b60405161015c9190613d3c565b60405180910390f35b61017f600480360381019061017a9190613204565b610448565b60405161018c9190613a3a565b60405180910390f35b61019d610468565b6040516101aa9190613a18565b60405180910390f35b6101bb6106f6565b6040516101c89190613a55565b60405180910390f35b6101d961071c565b6040516101e691906139fd565b60405180910390f35b61020960048036038101906102049190613204565b6107a1565b6040516102169190613d3c565b60405180910390f35b6102276107c5565b6040516102349190613d3c565b60405180910390f35b610257600480360381019061025291906132ce565b6107cb565b005b610273600480360381019061026e9190613204565b610bbc565b60405161028293929190613ad7565b60405180910390f35b610293610d2a565b6040516102a09190613d3c565b60405180910390f35b6102b1610d30565b005b6102cd60048036038101906102c89190613292565b610e20565b005b6102d7611b0f565b6040516102e49190613d3c565b60405180910390f35b61030760048036038101906103029190613204565b611b15565b604051610318959493929190613d80565b60405180910390f35b610329611b66565b6040516103369190613d3c565b60405180910390f35b61035960048036038101906103549190613204565b611b6c565b6040516103669190613d3c565b60405180910390f35b610389600480360381019061038491906130f2565b611bd6565b005b6103a560048036038101906103a09190613204565b611d0f565b6040516103b3929190613d57565b60405180910390f35b6103c4611d39565b6040516103d191906139fd565b60405180910390f35b6103f460048036038101906103ef9190613171565b611d5f565b6040516104019190613d3c565b60405180910390f35b610424600480360381019061041f9190613256565b612199565b005b610440600480360381019061043b9190613204565b6125e5565b005b600a5481565b60096020528060005260406000206000915054906101000a900460ff1681565b6060600060065467ffffffffffffffff8111156104ae577f4e487b7100000000000000000000000000000000000000000000000000000000600052604160045260246000fd5b6040519080825280602002602001820160405280156104e757816020015b6104d4612ed9565b8152602001906001900390816104cc5790505b50905060005b6006548110156106ee57600860008281526020019081526020016000206040518060800160405290816000820154815260200160018201805461052f9061404a565b80601f016020809104026020016040519081016040528092919081815260200182805461055b9061404a565b80156105a85780601f1061057d576101008083540402835291602001916105a8565b820191906000526020600020905b81548152906001019060200180831161058b57829003601f168201915b505050505081526020016002820160009054906101000a900473ffffffffffffffffffffffffffffffffffffffff1673ffffffffffffffffffffffffffffffffffffffff1673ffffffffffffffffffffffffffffffffffffffff1681526020016003820180546106179061404a565b80601f01602080910402602001604051908101604052809291908181526020018280546106439061404a565b80156106905780601f1061066557610100808354040283529160200191610690565b820191906000526020600020905b81548152906001019060200180831161067357829003601f168201915b5050505050815250508282815181106106d2577f4e487b7100000000000000000000000000000000000000000000000000000000600052603260045260246000fd5b6020026020010181905250806106e79061407c565b90506104ed565b508091505090565b600360009054906101000a900473ffffffffffffffffffffffffffffffffffffffff1681565b60003373ffffffffffffffffffffffffffffffffffffffff16633b92eb236040518163ffffffff1660e01b815260040160206040518083038186803b15801561076457600080fd5b505afa158015610778573d6000803e3d6000fd5b505050506040513d601f19601f8201168201806040525081019061079c91906130a0565b905090565b600581815481106107b157600080fd5b906000526020600020016000915090505481565b60065481565b60006064600a54600360009054906101000a900473ffffffffffffffffffffffffffffffffffffffff1673ffffffffffffffffffffffffffffffffffffffff166318160ddd6040518163ffffffff1660e01b815260040160206040518083038186803b15801561083a57600080fd5b505afa15801561084e573d6000803e3d6000fd5b505050506040513d601f19601f82011682018060405250810190610872919061322d565b61087c9190613f42565b6108869190613f11565b905080600360009054906101000a900473ffffffffffffffffffffffffffffffffffffffff1673ffffffffffffffffffffffffffffffffffffffff166370a08231336040518263ffffffff1660e01b81526004016108e491906139fd565b60206040518083038186803b1580156108fc57600080fd5b505afa158015610910573d6000803e3d6000fd5b505050506040513d601f19601f82011682018060405250810190610934919061322d565b1015610975576040517f08c379a000000000000000000000000000000000000000000000000000000000815260040161096c90613bdc565b60405180910390fd5b6000600760008581526020019081526020016000209050806002015442101580156109b0575060015481600201546109ad9190613ebb565b42105b6109ef576040517f08c379a00000000000000000000000000000000000000000000000000000000081526004016109e690613bfc565b60405180910390fd5b60016006811115610a29577f4e487b7100000000000000000000000000000000000000000000000000000000600052602160045260246000fd5b8160080160009054906101000a900460ff166006811115610a73577f4e487b7100000000000000000000000000000000000000000000000000000000600052602160045260246000fd5b14610ab3576040517f08c379a0000000000000000000000000000000000000000000000000000000008152600401610aaa90613cfc565b60405180910390fd5b60058160080160006101000a81548160ff02191690836006811115610b01577f4e487b7100000000000000000000000000000000000000000000000000000000600052602160045260246000fd5b02179055508281600c016001019080519060200190610b21929190612f17565b503381600c0160000160006101000a81548173ffffffffffffffffffffffffffffffffffffffff021916908373ffffffffffffffffffffffffffffffffffffffff16021790555060015442610b769190613ebb565b8160020181905550837f4a3e39232ea797464bb08b1cb8267cfc05e026d0eae637ff17b0548af520369a84604051610bae9190613a70565b60405180910390a250505050565b60608060008060076000868152602001908152602001600020905080600301816005018260040160009054906101000a900473ffffffffffffffffffffffffffffffffffffffff16828054610c109061404a565b80601f0160208091040260200160405190810160405280929190818152602001828054610c3c9061404a565b8015610c895780601f10610c5e57610100808354040283529160200191610c89565b820191906000526020600020905b815481529060010190602001808311610c6c57829003601f168201915b50505050509250818054610c9c9061404a565b80601f0160208091040260200160405190810160405280929190818152602001828054610cc89061404a565b8015610d155780601f10610cea57610100808354040283529160200191610d15565b820191906000526020600020905b815481529060010190602001808311610cf857829003601f168201915b50505050509150935093509350509193909250565b60045481565b610d3861071c565b600360006101000a81548173ffffffffffffffffffffffffffffffffffffffff021916908373ffffffffffffffffffffffffffffffffffffffff16021790555033600260006101000a81548173ffffffffffffffffffffffffffffffffffffffff021916908373ffffffffffffffffffffffffffffffffffffffff160217905550600260009054906101000a900473ffffffffffffffffffffffffffffffffffffffff1673ffffffffffffffffffffffffffffffffffffffff167f0e39d7cd8517be5d0ded9db90850ac775470f23ea44ec3aaaad22ee8b1f8fc5960405160405180910390a2565b60008060076000858152602001908152602001600020905060006006811115610e72577f4e487b7100000000000000000000000000000000000000000000000000000000600052602160045260246000fd5b8160080160009054906101000a900460ff166006811115610ebc577f4e487b7100000000000000000000000000000000000000000000000000000000600052602160045260246000fd5b1415610efd576040517f08c379a0000000000000000000000000000000000000000000000000000000008152600401610ef490613c5c565b60405180910390fd5b60016006811115610f37577f4e487b7100000000000000000000000000000000000000000000000000000000600052602160045260246000fd5b8160080160009054906101000a900460ff166006811115610f81577f4e487b7100000000000000000000000000000000000000000000000000000000600052602160045260246000fd5b141561155d5780600b0160003373ffffffffffffffffffffffffffffffffffffffff1673ffffffffffffffffffffffffffffffffffffffff16815260200190815260200160002060000160009054906101000a900460ff1615611019576040517f08c379a000000000000000000000000000000000000000000000000000000000815260040161101090613d1c565b60405180910390fd5b6001600360009054906101000a900473ffffffffffffffffffffffffffffffffffffffff1673ffffffffffffffffffffffffffffffffffffffff166370a08231336040518263ffffffff1660e01b815260040161107691906139fd565b60206040518083038186803b15801561108e57600080fd5b505afa1580156110a2573d6000803e3d6000fd5b505050506040513d601f19601f820116820180604052508101906110c6919061322d565b1015611107576040517f08c379a00000000000000000000000000000000000000000000000000000000081526004016110fe90613c9c565b60405180910390fd5b8060020154421061114d576040517f08c379a000000000000000000000000000000000000000000000000000000000815260040161114490613b3c565b60405180910390fd5b600181600b0160003373ffffffffffffffffffffffffffffffffffffffff1673ffffffffffffffffffffffffffffffffffffffff16815260200190815260200160002060000160006101000a81548160ff021916908315150217905550821561149257600081600b0160003373ffffffffffffffffffffffffffffffffffffffff1673ffffffffffffffffffffffffffffffffffffffff16815260200190815260200160002060010180549050146113c85760005b81600b0160003373ffffffffffffffffffffffffffffffffffffffff1673ffffffffffffffffffffffffffffffffffffffff168152602001908152602001600020600101805490508110156113c657600082600b0160003373ffffffffffffffffffffffffffffffffffffffff1673ffffffffffffffffffffffffffffffffffffffff16815260200190815260200160002060010182815481106112cf577f4e487b7100000000000000000000000000000000000000000000000000000000600052603260045260246000fd5b9060005260206000200160009054906101000a900473ffffffffffffffffffffffffffffffffffffffff169050600360009054906101000a900473ffffffffffffffffffffffffffffffffffffffff1673ffffffffffffffffffffffffffffffffffffffff166370a08231826040518263ffffffff1660e01b815260040161135791906139fd565b60206040518083038186803b15801561136f57600080fd5b505afa158015611383573d6000803e3d6000fd5b505050506040513d601f19601f820116820180604052508101906113a7919061322d565b846113b29190613ebb565b935050806113bf9061407c565b9050611202565b505b600360009054906101000a900473ffffffffffffffffffffffffffffffffffffffff1673ffffffffffffffffffffffffffffffffffffffff166370a08231336040518263ffffffff1660e01b815260040161142391906139fd565b60206040518083038186803b15801561143b57600080fd5b505afa15801561144f573d6000803e3d6000fd5b505050506040513d601f19601f82011682018060405250810190611473919061322d565b8160060160008282546114869190613ebb565b92505081905550611558565b600360009054906101000a900473ffffffffffffffffffffffffffffffffffffffff1673ffffffffffffffffffffffffffffffffffffffff166370a08231336040518263ffffffff1660e01b81526004016114ed91906139fd565b60206040518083038186803b15801561150557600080fd5b505afa158015611519573d6000803e3d6000fd5b505050506040513d601f19601f8201168201806040525081019061153d919061322d565b8160070160008282546115509190613ebb565b925050819055505b611ad1565b60056006811115611597577f4e487b7100000000000000000000000000000000000000000000000000000000600052602160045260246000fd5b8160080160009054906101000a900460ff1660068111156115e1577f4e487b7100000000000000000000000000000000000000000000000000000000600052602160045260246000fd5b1415611a075780600c0160040160003373ffffffffffffffffffffffffffffffffffffffff1673ffffffffffffffffffffffffffffffffffffffff16815260200190815260200160002060000160009054906101000a900460ff161561167c576040517f08c379a000000000000000000000000000000000000000000000000000000000815260040161167390613d1c565b60405180910390fd5b806002015442106116c2576040517f08c379a00000000000000000000000000000000000000000000000000000000081526004016116b990613b3c565b60405180910390fd5b600181600c0160040160003373ffffffffffffffffffffffffffffffffffffffff1673ffffffffffffffffffffffffffffffffffffffff16815260200190815260200160002060000160006101000a81548160ff021916908315150217905550600081600b0160003373ffffffffffffffffffffffffffffffffffffffff1673ffffffffffffffffffffffffffffffffffffffff168152602001908152602001600020600101805490501461193a5760005b81600b0160003373ffffffffffffffffffffffffffffffffffffffff1673ffffffffffffffffffffffffffffffffffffffff1681526020019081526020016000206001018054905081101561193857600082600b0160003373ffffffffffffffffffffffffffffffffffffffff1673ffffffffffffffffffffffffffffffffffffffff1681526020019081526020016000206001018281548110611841577f4e487b7100000000000000000000000000000000000000000000000000000000600052603260045260246000fd5b9060005260206000200160009054906101000a900473ffffffffffffffffffffffffffffffffffffffff169050600360009054906101000a900473ffffffffffffffffffffffffffffffffffffffff1673ffffffffffffffffffffffffffffffffffffffff166370a08231826040518263ffffffff1660e01b81526004016118c991906139fd565b60206040518083038186803b1580156118e157600080fd5b505afa1580156118f5573d6000803e3d6000fd5b505050506040513d601f19601f82011682018060405250810190611919919061322d565b846119249190613ebb565b935050806119319061407c565b9050611774565b505b600360009054906101000a900473ffffffffffffffffffffffffffffffffffffffff1673ffffffffffffffffffffffffffffffffffffffff166370a08231336040518263ffffffff1660e01b815260040161199591906139fd565b60206040518083038186803b1580156119ad57600080fd5b505afa1580156119c1573d6000803e3d6000fd5b505050506040513d601f19601f820116820180604052508101906119e5919061322d565b81600c0160020160008282546119fb9190613ebb565b92505081905550611ad0565b600360009054906101000a900473ffffffffffffffffffffffffffffffffffffffff1673ffffffffffffffffffffffffffffffffffffffff166370a08231336040518263ffffffff1660e01b8152600401611a6291906139fd565b60206040518083038186803b158015611a7a57600080fd5b505afa158015611a8e573d6000803e3d6000fd5b505050506040513d601f19601f82011682018060405250810190611ab2919061322d565b81600c016003016000828254611ac89190613ebb565b925050819055505b5b837f72869afc3552df414602b428f5e96b4eb3fab540271192c4f31eb3adaf5faf1e84604051611b019190613a3a565b60405180910390a250505050565b60015481565b600080600080600080600760008881526020019081526020016000209050806006015495508060070154945080600c0160020154935080600c01600301549250806002015491505091939590929450565b60005481565b6000806007600084815260200190815260200160002090508060080160009054906101000a900460ff166006811115611bce577f4e487b7100000000000000000000000000000000000000000000000000000000600052602160045260246000fd5b915050919050565b611bde612afb565b611c1d576040517f08c379a0000000000000000000000000000000000000000000000000000000008152600401611c1490613c7c565b60405180910390fd5b600060086000600654815260200190815260200160002090506006548160000181905550828160020160006101000a81548173ffffffffffffffffffffffffffffffffffffffff021916908373ffffffffffffffffffffffffffffffffffffffff16021790555081816003019080519060200190611c9c929190612f17565b5083816001019080519060200190611cb5929190612f17565b5060066000815480929190611cc99061407c565b91905055507f291fb4c9ec38b653e778aad63d42ce4710da5b91c49a033ba04963dd409300eb848484604051611d0193929190613a92565b60405180910390a150505050565b60008060006007600085815260200190815260200160002090504292508060020154915050915091565b600260009054906101000a900473ffffffffffffffffffffffffffffffffffffffff1681565b600080600360009054906101000a900473ffffffffffffffffffffffffffffffffffffffff1673ffffffffffffffffffffffffffffffffffffffff166318160ddd6040518163ffffffff1660e01b815260040160206040518083038186803b158015611dca57600080fd5b505afa158015611dde573d6000803e3d6000fd5b505050506040513d601f19601f82011682018060405250810190611e02919061322d565b1415611e43576040517f08c379a0000000000000000000000000000000000000000000000000000000008152600401611e3a90613cdc565b60405180910390fd5b60006064600a54600360009054906101000a900473ffffffffffffffffffffffffffffffffffffffff1673ffffffffffffffffffffffffffffffffffffffff166318160ddd6040518163ffffffff1660e01b815260040160206040518083038186803b158015611eb257600080fd5b505afa158015611ec6573d6000803e3d6000fd5b505050506040513d601f19601f82011682018060405250810190611eea919061322d565b611ef49190613f42565b611efe9190613f11565b905080600360009054906101000a900473ffffffffffffffffffffffffffffffffffffffff1673ffffffffffffffffffffffffffffffffffffffff166370a08231336040518263ffffffff1660e01b8152600401611f5c91906139fd565b60206040518083038186803b158015611f7457600080fd5b505afa158015611f88573d6000803e3d6000fd5b505050506040513d601f19601f82011682018060405250810190611fac919061322d565b1015611fed576040517f08c379a0000000000000000000000000000000000000000000000000000000008152600401611fe490613bdc565b60405180910390fd5b600460008154809291906120009061407c565b9190505550600060076000600454815260200190815260200160002090508181600001819055508681600301908051906020019061203f929190612f17565b506004548160010181905550600054426120599190613ebb565b8160020181905550338160040160006101000a81548173ffffffffffffffffffffffffffffffffffffffff021916908373ffffffffffffffffffffffffffffffffffffffff160217905550858160050190805190602001906120bc929190612f17565b5060018160080160006101000a81548160ff0219169083600681111561210b577f4e487b7100000000000000000000000000000000000000000000000000000000600052602160045260246000fd5b02179055508481600901819055508381600a01819055508560405161213091906139e6565b60405180910390208760405161214691906139e6565b60405180910390206004547f2042799f2e1d3fcfc7c7e9dd101b3430c99aa621240ea8fdeac79ad1c973888e8888604051612182929190613d57565b60405180910390a460045492505050949350505050565b600060076000848152602001908152602001600020905080600b0160003373ffffffffffffffffffffffffffffffffffffffff1673ffffffffffffffffffffffffffffffffffffffff16815260200190815260200160002060000160009054906101000a900460ff1615612242576040517f08c379a000000000000000000000000000000000000000000000000000000000815260040161223990613c3c565b60405180910390fd5b3373ffffffffffffffffffffffffffffffffffffffff168273ffffffffffffffffffffffffffffffffffffffff1614156122b1576040517f08c379a00000000000000000000000000000000000000000000000000000000081526004016122a890613b5c565b60405180910390fd5b6000600360009054906101000a900473ffffffffffffffffffffffffffffffffffffffff1673ffffffffffffffffffffffffffffffffffffffff166370a08231336040518263ffffffff1660e01b815260040161230e91906139fd565b60206040518083038186803b15801561232657600080fd5b505afa15801561233a573d6000803e3d6000fd5b505050506040513d601f19601f8201168201806040525081019061235e919061322d565b1161239e576040517f08c379a000000000000000000000000000000000000000000000000000000000815260040161239590613cbc565b60405180910390fd5b80600b0160008373ffffffffffffffffffffffffffffffffffffffff1673ffffffffffffffffffffffffffffffffffffffff168152602001908152602001600020600101339080600181540180825580915050600190039060005260206000200160009091909190916101000a81548173ffffffffffffffffffffffffffffffffffffffff021916908373ffffffffffffffffffffffffffffffffffffffff160217905550600181600b0160003373ffffffffffffffffffffffffffffffffffffffff1673ffffffffffffffffffffffffffffffffffffffff16815260200190815260200160002060000160006101000a81548160ff02191690831515021790555080600c0160040160008373ffffffffffffffffffffffffffffffffffffffff1673ffffffffffffffffffffffffffffffffffffffff168152602001908152602001600020600101339080600181540180825580915050600190039060005260206000200160009091909190916101000a81548173ffffffffffffffffffffffffffffffffffffffff021916908373ffffffffffffffffffffffffffffffffffffffff160217905550600181600c0160040160003373ffffffffffffffffffffffffffffffffffffffff1673ffffffffffffffffffffffffffffffffffffffff16815260200190815260200160002060000160006101000a81548160ff021916908315150217905550827fa9860e62eb02a47e1d5d5253a79d90bc96cd33c299d874f5b7710d0a61b63ccc836040516125d891906139fd565b60405180910390a2505050565b60006007600083815260200190815260200160002090506009600083815260200190815260200160002060009054906101000a900460ff161561265d576040517f08c379a000000000000000000000000000000000000000000000000000000000815260040161265490613c1c565b60405180910390fd5b60006006811115612697577f4e487b7100000000000000000000000000000000000000000000000000000000600052602160045260246000fd5b8160080160009054906101000a900460ff1660068111156126e1577f4e487b7100000000000000000000000000000000000000000000000000000000600052602160045260246000fd5b1415612722576040517f08c379a000000000000000000000000000000000000000000000000000000000815260040161271990613c5c565b60405180910390fd5b6001600681111561275c577f4e487b7100000000000000000000000000000000000000000000000000000000600052602160045260246000fd5b8160080160009054906101000a900460ff1660068111156127a6577f4e487b7100000000000000000000000000000000000000000000000000000000600052602160045260246000fd5b141561294357806002015442116127f2576040517f08c379a00000000000000000000000000000000000000000000000000000000081526004016127e990613bfc565b60405180910390fd5b6103e861012c82600001546128079190613f42565b6128119190613f11565b816006015482600701546128259190613ebb565b1015612866576040517f08c379a000000000000000000000000000000000000000000000000000000000815260040161285d90613b9c565b60405180910390fd5b603c8160060154826007015461287c9190613ebb565b6064836006015461288d9190613f42565b6128979190613f11565b10156128d8576040517f08c379a00000000000000000000000000000000000000000000000000000000081526004016128cf90613b1c565b60405180910390fd5b60028160080160006101000a81548160ff02191690836006811115612926577f4e487b7100000000000000000000000000000000000000000000000000000000600052602160045260246000fd5b021790555061293e82826009015483600a0154612bad565b612aca565b6005600681111561297d577f4e487b7100000000000000000000000000000000000000000000000000000000600052602160045260246000fd5b8160080160009054906101000a900460ff1660068111156129c7577f4e487b7100000000000000000000000000000000000000000000000000000000600052602160045260246000fd5b1415612ac9578060020154421015612a14576040517f08c379a0000000000000000000000000000000000000000000000000000000008152600401612a0b90613bfc565b60405180910390fd5b806006015481600c01600201541015612a62576040517f08c379a0000000000000000000000000000000000000000000000000000000008152600401612a5990613bbc565b60405180910390fd5b60028160080160006101000a81548160ff02191690836006811115612ab0577f4e487b7100000000000000000000000000000000000000000000000000000000600052602160045260246000fd5b0217905550612ac882826009015483600a0154612bad565b5b5b817fa6b4889fbc6222293f94ac3c68c40fa4c027b86b0dfe4f820475c7d8828a243660405160405180910390a25050565b6000600260009054906101000a900473ffffffffffffffffffffffffffffffffffffffff1673ffffffffffffffffffffffffffffffffffffffff1663372c12b1336040518263ffffffff1660e01b8152600401612b5891906139fd565b60206040518083038186803b158015612b7057600080fd5b505afa158015612b84573d6000803e3d6000fd5b505050506040513d601f19601f82011682018060405250810190612ba891906130c9565b905090565b60006008600084815260200190815260200160002060020160009054906101000a900473ffffffffffffffffffffffffffffffffffffffff169050600073ffffffffffffffffffffffffffffffffffffffff168173ffffffffffffffffffffffffffffffffffffffff161415612c58576040517f08c379a0000000000000000000000000000000000000000000000000000000008152600401612c4f90613b7c565b60405180910390fd5b600584908060018154018082558091505060019003906000526020600020016000909190919091505560016009600086815260200190815260200160002060006101000a81548160ff021916908315150217905550612cb78383612cbd565b50505050565b60006008600084815260200190815260200160002060020160009054906101000a900473ffffffffffffffffffffffffffffffffffffffff1690506000600860008581526020019081526020016000206003018054612d1b9061404a565b80601f0160208091040260200160405190810160405280929190818152602001828054612d479061404a565b8015612d945780601f10612d6957610100808354040283529160200191612d94565b820191906000526020600020905b815481529060010190602001808311612d7757829003601f168201915b505050505090506000808373ffffffffffffffffffffffffffffffffffffffff168386604051602401612dc79190613d3c565b60405160208183030381529060405290604051612de491906139e6565b60405180910390207bffffffffffffffffffffffffffffffffffffffffffffffffffffffff19166020820180517bffffffffffffffffffffffffffffffffffffffffffffffffffffffff8381831617835250505050604051612e4691906139cf565b6000604051808303816000865af19150503d8060008114612e83576040519150601f19603f3d011682016040523d82523d6000602084013e612e88565b606091505b5091509150818190612ed0576040517f08c379a0000000000000000000000000000000000000000000000000000000008152600401612ec79190613a70565b60405180910390fd5b50505050505050565b60405180608001604052806000815260200160608152602001600073ffffffffffffffffffffffffffffffffffffffff168152602001606081525090565b828054612f239061404a565b90600052602060002090601f016020900481019282612f455760008555612f8c565b82601f10612f5e57805160ff1916838001178555612f8c565b82800160010185558215612f8c579182015b82811115612f8b578251825591602001919060010190612f70565b5b509050612f999190612f9d565b5090565b5b80821115612fb6576000816000905550600101612f9e565b5090565b6000612fcd612fc884613e04565b613dd3565b905082815260208101848484011115612fe557600080fd5b612ff0848285614008565b509392505050565b60008135905061300781614192565b92915050565b60008151905061301c81614192565b92915050565b600081359050613031816141a9565b92915050565b600081519050613046816141a9565b92915050565b600082601f83011261305d57600080fd5b813561306d848260208601612fba565b91505092915050565b600081359050613085816141c0565b92915050565b60008151905061309a816141c0565b92915050565b6000602082840312156130b257600080fd5b60006130c08482850161300d565b91505092915050565b6000602082840312156130db57600080fd5b60006130e984828501613037565b91505092915050565b60008060006060848603121561310757600080fd5b600084013567ffffffffffffffff81111561312157600080fd5b61312d8682870161304c565b935050602061313e86828701612ff8565b925050604084013567ffffffffffffffff81111561315b57600080fd5b6131678682870161304c565b9150509250925092565b6000806000806080858703121561318757600080fd5b600085013567ffffffffffffffff8111156131a157600080fd5b6131ad8782880161304c565b945050602085013567ffffffffffffffff8111156131ca57600080fd5b6131d68782880161304c565b93505060406131e787828801613076565b92505060606131f887828801613076565b91505092959194509250565b60006020828403121561321657600080fd5b600061322484828501613076565b91505092915050565b60006020828403121561323f57600080fd5b600061324d8482850161308b565b91505092915050565b6000806040838503121561326957600080fd5b600061327785828601613076565b925050602061328885828601612ff8565b9150509250929050565b600080604083850312156132a557600080fd5b60006132b385828601613076565b92505060206132c485828601613022565b9150509250929050565b600080604083850312156132e157600080fd5b60006132ef85828601613076565b925050602083013567ffffffffffffffff81111561330c57600080fd5b6133188582860161304c565b9150509250929050565b600061332e8383613947565b905092915050565b61333f81613f9c565b82525050565b61334e81613f9c565b82525050565b600061335f82613e44565b6133698185613e72565b93508360208202850161337b85613e34565b8060005b858110156133b757848403895281516133988582613322565b94506133a383613e65565b925060208a0199505060018101905061337f565b50829750879550505050505092915050565b6133d281613fae565b82525050565b60006133e382613e4f565b6133ed8185613e83565b93506133fd818560208601614017565b80840191505092915050565b61341281613fe4565b82525050565b600061342382613e5a565b61342d8185613e8e565b935061343d818560208601614017565b61344681614181565b840191505092915050565b600061345c82613e5a565b6134668185613e9f565b9350613476818560208601614017565b61347f81614181565b840191505092915050565b600061349582613e5a565b61349f8185613eb0565b93506134af818560208601614017565b80840191505092915050565b60006134c8602183613e9f565b91507f4c657373207468616e20363025206f662074686520766f74657320706173736560008301527f64000000000000000000000000000000000000000000000000000000000000006020830152604082019050919050565b600061352e601c83613e9f565b91507f4e6f742077697468696e2074686520616c6c6f747465642074696d65000000006000830152602082019050919050565b600061356e601a83613e9f565b91507f63616e27742064656c656761746520746f20796f757273656c660000000000006000830152602082019050919050565b60006135ae601b83613e9f565b91507f476f7665726e616e63652054656d706c617465206973206e756c6c00000000006000830152602082019050919050565b60006135ee601d83613e9f565b91507f766f746573206973206c657373207468616e2033302070657263656e740000006000830152602082019050919050565b600061362e603283613e9f565b91507f54686520766f746520706173736564207769746820666577657220766f74657360008301527f207468616e20746865206f726967696e616c00000000000000000000000000006020830152604082019050919050565b6000613694601783613e9f565b91507f546f6f2066657720746f6b656e73206172652068656c640000000000000000006000830152602082019050919050565b60006136d4601983613e9f565b91507f5374696c6c20696e2074686520766f74696e67207068617365000000000000006000830152602082019050919050565b6000613714601483613e9f565b91507f7265706574697469766520657865637574696f6e0000000000000000000000006000830152602082019050919050565b6000613754600a83613e9f565b91507f4861766520766f746564000000000000000000000000000000000000000000006000830152602082019050919050565b6000613794600e83613e9f565b91507f566f74654964206973206e756c6c0000000000000000000000000000000000006000830152602082019050919050565b60006137d4602083613e9f565b91507f77686974654c697374203a3a204164647265737320636865636b206572726f726000830152602082019050919050565b6000613814601483613e9f565b91507f7665546f6b656e206c657373207468616e2031200000000000000000000000006000830152602082019050919050565b6000613854601283613e9f565b91507f5468657265206973206e6f20746f6b656e2000000000000000000000000000006000830152602082019050919050565b6000613894601383613e9f565b91507f207665546f6b656e537570706c79203d3d2030000000000000000000000000006000830152602082019050919050565b60006138d4601783613e9f565b91507f4e6f742061742074686520766f74696e672073746167650000000000000000006000830152602082019050919050565b6000613914600b83613e9f565b91507f566f7465206265666f72650000000000000000000000000000000000000000006000830152602082019050919050565b600060808301600083015161395f60008601826139b1565b50602083015184820360208601526139778282613418565b915050604083015161398c6040860182613336565b50606083015184820360608601526139a48282613418565b9150508091505092915050565b6139ba81613fda565b82525050565b6139c981613fda565b82525050565b60006139db82846133d8565b915081905092915050565b60006139f2828461348a565b915081905092915050565b6000602082019050613a126000830184613345565b92915050565b60006020820190508181036000830152613a328184613354565b905092915050565b6000602082019050613a4f60008301846133c9565b92915050565b6000602082019050613a6a6000830184613409565b92915050565b60006020820190508181036000830152613a8a8184613451565b905092915050565b60006060820190508181036000830152613aac8186613451565b9050613abb6020830185613345565b8181036040830152613acd8184613451565b9050949350505050565b60006060820190508181036000830152613af18186613451565b90508181036020830152613b058185613451565b9050613b146040830184613345565b949350505050565b60006020820190508181036000830152613b35816134bb565b9050919050565b60006020820190508181036000830152613b5581613521565b9050919050565b60006020820190508181036000830152613b7581613561565b9050919050565b60006020820190508181036000830152613b95816135a1565b9050919050565b60006020820190508181036000830152613bb5816135e1565b9050919050565b60006020820190508181036000830152613bd581613621565b9050919050565b60006020820190508181036000830152613bf581613687565b9050919050565b60006020820190508181036000830152613c15816136c7565b9050919050565b60006020820190508181036000830152613c3581613707565b9050919050565b60006020820190508181036000830152613c5581613747565b9050919050565b60006020820190508181036000830152613c7581613787565b9050919050565b60006020820190508181036000830152613c95816137c7565b9050919050565b60006020820190508181036000830152613cb581613807565b9050919050565b60006020820190508181036000830152613cd581613847565b9050919050565b60006020820190508181036000830152613cf581613887565b9050919050565b60006020820190508181036000830152613d15816138c7565b9050919050565b60006020820190508181036000830152613d3581613907565b9050919050565b6000602082019050613d5160008301846139c0565b92915050565b6000604082019050613d6c60008301856139c0565b613d7960208301846139c0565b9392505050565b600060a082019050613d9560008301886139c0565b613da260208301876139c0565b613daf60408301866139c0565b613dbc60608301856139c0565b613dc960808301846139c0565b9695505050505050565b6000604051905081810181811067ffffffffffffffff82111715613dfa57613df9614152565b5b8060405250919050565b600067ffffffffffffffff821115613e1f57613e1e614152565b5b601f19601f8301169050602081019050919050565b6000819050602082019050919050565b600081519050919050565b600081519050919050565b600081519050919050565b6000602082019050919050565b600082825260208201905092915050565b600081905092915050565b600082825260208201905092915050565b600082825260208201905092915050565b600081905092915050565b6000613ec682613fda565b9150613ed183613fda565b9250827fffffffffffffffffffffffffffffffffffffffffffffffffffffffffffffffff03821115613f0657613f056140c5565b5b828201905092915050565b6000613f1c82613fda565b9150613f2783613fda565b925082613f3757613f366140f4565b5b828204905092915050565b6000613f4d82613fda565b9150613f5883613fda565b9250817fffffffffffffffffffffffffffffffffffffffffffffffffffffffffffffffff0483118215151615613f9157613f906140c5565b5b828202905092915050565b6000613fa782613fba565b9050919050565b60008115159050919050565b600073ffffffffffffffffffffffffffffffffffffffff82169050919050565b6000819050919050565b6000613fef82613ff6565b9050919050565b600061400182613fba565b9050919050565b82818337600083830152505050565b60005b8381101561403557808201518184015260208101905061401a565b83811115614044576000848401525b50505050565b6000600282049050600182168061406257607f821691505b6020821081141561407657614075614123565b5b50919050565b600061408782613fda565b91507fffffffffffffffffffffffffffffffffffffffffffffffffffffffffffffffff8214156140ba576140b96140c5565b5b600182019050919050565b7f4e487b7100000000000000000000000000000000000000000000000000000000600052601160045260246000fd5b7f4e487b7100000000000000000000000000000000000000000000000000000000600052601260045260246000fd5b7f4e487b7100000000000000000000000000000000000000000000000000000000600052602260045260246000fd5b7f4e487b7100000000000000000000000000000000000000000000000000000000600052604160045260246000fd5b6000601f19601f8301169050919050565b61419b81613f9c565b81146141a657600080fd5b50565b6141b281613fae565b81146141bd57600080fd5b50565b6141c981613fda565b81146141d457600080fd5b5056fea26469706673582212201fc60cab2cc5b865d522a061f31fe0039b96aa0afb5b86f8500616d9629c153364736f6c63430008000033",
					"opcodes": "PUSH1 0x80 PUSH1 0x40 MSTORE PUSH1 0x3C PUSH1 0x0 SSTORE PUSH1 0x3C PUSH1 0x1 SSTORE PUSH1 0x5 PUSH1 0xA SSTORE CALLVALUE DUP1 ISZERO PUSH2 0x1F JUMPI PUSH1 0x0 DUP1 REVERT JUMPDEST POP PUSH2 0x420D DUP1 PUSH2 0x2F PUSH1 0x0 CODECOPY PUSH1 0x0 RETURN INVALID PUSH1 0x80 PUSH1 0x40 MSTORE CALLVALUE DUP1 ISZERO PUSH2 0x10 JUMPI PUSH1 0x0 DUP1 REVERT JUMPDEST POP PUSH1 0x4 CALLDATASIZE LT PUSH2 0x142 JUMPI PUSH1 0x0 CALLDATALOAD PUSH1 0xE0 SHR DUP1 PUSH4 0x82214856 GT PUSH2 0xB8 JUMPI DUP1 PUSH4 0xE3A1C1C7 GT PUSH2 0x7C JUMPI DUP1 PUSH4 0xE3A1C1C7 EQ PUSH2 0x36F JUMPI DUP1 PUSH4 0xEDEF019D EQ PUSH2 0x38B JUMPI DUP1 PUSH4 0xF887EA40 EQ PUSH2 0x3BC JUMPI DUP1 PUSH4 0xF9D793D1 EQ PUSH2 0x3DA JUMPI DUP1 PUSH4 0xFC7881C6 EQ PUSH2 0x40A JUMPI DUP1 PUSH4 0xFE0D94C1 EQ PUSH2 0x426 JUMPI PUSH2 0x142 JUMP JUMPDEST DUP1 PUSH4 0x82214856 EQ PUSH2 0x2B3 JUMPI DUP1 PUSH4 0xBA7B6703 EQ PUSH2 0x2CF JUMPI DUP1 PUSH4 0xBCD60F6C EQ PUSH2 0x2ED JUMPI DUP1 PUSH4 0xBCF93DD6 EQ PUSH2 0x321 JUMPI DUP1 PUSH4 0xD9AE5BD5 EQ PUSH2 0x33F JUMPI PUSH2 0x142 JUMP JUMPDEST DUP1 PUSH4 0x52538550 GT PUSH2 0x10A JUMPI DUP1 PUSH4 0x52538550 EQ PUSH2 0x1EF JUMPI DUP1 PUSH4 0x5A42007F EQ PUSH2 0x21F JUMPI DUP1 PUSH4 0x71D68A97 EQ PUSH2 0x23D JUMPI DUP1 PUSH4 0x74786F69 EQ PUSH2 0x259 JUMPI DUP1 PUSH4 0x75BB5B09 EQ PUSH2 0x28B JUMPI DUP1 PUSH4 0x8129FC1C EQ PUSH2 0x2A9 JUMPI PUSH2 0x142 JUMP JUMPDEST DUP1 PUSH4 0x1D75DDCC EQ PUSH2 0x147 JUMPI DUP1 PUSH4 0x2C9E3EF0 EQ PUSH2 0x165 JUMPI DUP1 PUSH4 0x321C48F2 EQ PUSH2 0x195 JUMPI DUP1 PUSH4 0x3B92EB23 EQ PUSH2 0x1B3 JUMPI DUP1 PUSH4 0x3FEE74D7 EQ PUSH2 0x1D1 JUMPI JUMPDEST PUSH1 0x0 DUP1 REVERT JUMPDEST PUSH2 0x14F PUSH2 0x442 JUMP JUMPDEST PUSH1 0x40 MLOAD PUSH2 0x15C SWAP2 SWAP1 PUSH2 0x3D3C JUMP JUMPDEST PUSH1 0x40 MLOAD DUP1 SWAP2 SUB SWAP1 RETURN JUMPDEST PUSH2 0x17F PUSH1 0x4 DUP1 CALLDATASIZE SUB DUP2 ADD SWAP1 PUSH2 0x17A SWAP2 SWAP1 PUSH2 0x3204 JUMP JUMPDEST PUSH2 0x448 JUMP JUMPDEST PUSH1 0x40 MLOAD PUSH2 0x18C SWAP2 SWAP1 PUSH2 0x3A3A JUMP JUMPDEST PUSH1 0x40 MLOAD DUP1 SWAP2 SUB SWAP1 RETURN JUMPDEST PUSH2 0x19D PUSH2 0x468 JUMP JUMPDEST PUSH1 0x40 MLOAD PUSH2 0x1AA SWAP2 SWAP1 PUSH2 0x3A18 JUMP JUMPDEST PUSH1 0x40 MLOAD DUP1 SWAP2 SUB SWAP1 RETURN JUMPDEST PUSH2 0x1BB PUSH2 0x6F6 JUMP JUMPDEST PUSH1 0x40 MLOAD PUSH2 0x1C8 SWAP2 SWAP1 PUSH2 0x3A55 JUMP JUMPDEST PUSH1 0x40 MLOAD DUP1 SWAP2 SUB SWAP1 RETURN JUMPDEST PUSH2 0x1D9 PUSH2 0x71C JUMP JUMPDEST PUSH1 0x40 MLOAD PUSH2 0x1E6 SWAP2 SWAP1 PUSH2 0x39FD JUMP JUMPDEST PUSH1 0x40 MLOAD DUP1 SWAP2 SUB SWAP1 RETURN JUMPDEST PUSH2 0x209 PUSH1 0x4 DUP1 CALLDATASIZE SUB DUP2 ADD SWAP1 PUSH2 0x204 SWAP2 SWAP1 PUSH2 0x3204 JUMP JUMPDEST PUSH2 0x7A1 JUMP JUMPDEST PUSH1 0x40 MLOAD PUSH2 0x216 SWAP2 SWAP1 PUSH2 0x3D3C JUMP JUMPDEST PUSH1 0x40 MLOAD DUP1 SWAP2 SUB SWAP1 RETURN JUMPDEST PUSH2 0x227 PUSH2 0x7C5 JUMP JUMPDEST PUSH1 0x40 MLOAD PUSH2 0x234 SWAP2 SWAP1 PUSH2 0x3D3C JUMP JUMPDEST PUSH1 0x40 MLOAD DUP1 SWAP2 SUB SWAP1 RETURN JUMPDEST PUSH2 0x257 PUSH1 0x4 DUP1 CALLDATASIZE SUB DUP2 ADD SWAP1 PUSH2 0x252 SWAP2 SWAP1 PUSH2 0x32CE JUMP JUMPDEST PUSH2 0x7CB JUMP JUMPDEST STOP JUMPDEST PUSH2 0x273 PUSH1 0x4 DUP1 CALLDATASIZE SUB DUP2 ADD SWAP1 PUSH2 0x26E SWAP2 SWAP1 PUSH2 0x3204 JUMP JUMPDEST PUSH2 0xBBC JUMP JUMPDEST PUSH1 0x40 MLOAD PUSH2 0x282 SWAP4 SWAP3 SWAP2 SWAP1 PUSH2 0x3AD7 JUMP JUMPDEST PUSH1 0x40 MLOAD DUP1 SWAP2 SUB SWAP1 RETURN JUMPDEST PUSH2 0x293 PUSH2 0xD2A JUMP JUMPDEST PUSH1 0x40 MLOAD PUSH2 0x2A0 SWAP2 SWAP1 PUSH2 0x3D3C JUMP JUMPDEST PUSH1 0x40 MLOAD DUP1 SWAP2 SUB SWAP1 RETURN JUMPDEST PUSH2 0x2B1 PUSH2 0xD30 JUMP JUMPDEST STOP JUMPDEST PUSH2 0x2CD PUSH1 0x4 DUP1 CALLDATASIZE SUB DUP2 ADD SWAP1 PUSH2 0x2C8 SWAP2 SWAP1 PUSH2 0x3292 JUMP JUMPDEST PUSH2 0xE20 JUMP JUMPDEST STOP JUMPDEST PUSH2 0x2D7 PUSH2 0x1B0F JUMP JUMPDEST PUSH1 0x40 MLOAD PUSH2 0x2E4 SWAP2 SWAP1 PUSH2 0x3D3C JUMP JUMPDEST PUSH1 0x40 MLOAD DUP1 SWAP2 SUB SWAP1 RETURN JUMPDEST PUSH2 0x307 PUSH1 0x4 DUP1 CALLDATASIZE SUB DUP2 ADD SWAP1 PUSH2 0x302 SWAP2 SWAP1 PUSH2 0x3204 JUMP JUMPDEST PUSH2 0x1B15 JUMP JUMPDEST PUSH1 0x40 MLOAD PUSH2 0x318 SWAP6 SWAP5 SWAP4 SWAP3 SWAP2 SWAP1 PUSH2 0x3D80 JUMP JUMPDEST PUSH1 0x40 MLOAD DUP1 SWAP2 SUB SWAP1 RETURN JUMPDEST PUSH2 0x329 PUSH2 0x1B66 JUMP JUMPDEST PUSH1 0x40 MLOAD PUSH2 0x336 SWAP2 SWAP1 PUSH2 0x3D3C JUMP JUMPDEST PUSH1 0x40 MLOAD DUP1 SWAP2 SUB SWAP1 RETURN JUMPDEST PUSH2 0x359 PUSH1 0x4 DUP1 CALLDATASIZE SUB DUP2 ADD SWAP1 PUSH2 0x354 SWAP2 SWAP1 PUSH2 0x3204 JUMP JUMPDEST PUSH2 0x1B6C JUMP JUMPDEST PUSH1 0x40 MLOAD PUSH2 0x366 SWAP2 SWAP1 PUSH2 0x3D3C JUMP JUMPDEST PUSH1 0x40 MLOAD DUP1 SWAP2 SUB SWAP1 RETURN JUMPDEST PUSH2 0x389 PUSH1 0x4 DUP1 CALLDATASIZE SUB DUP2 ADD SWAP1 PUSH2 0x384 SWAP2 SWAP1 PUSH2 0x30F2 JUMP JUMPDEST PUSH2 0x1BD6 JUMP JUMPDEST STOP JUMPDEST PUSH2 0x3A5 PUSH1 0x4 DUP1 CALLDATASIZE SUB DUP2 ADD SWAP1 PUSH2 0x3A0 SWAP2 SWAP1 PUSH2 0x3204 JUMP JUMPDEST PUSH2 0x1D0F JUMP JUMPDEST PUSH1 0x40 MLOAD PUSH2 0x3B3 SWAP3 SWAP2 SWAP1 PUSH2 0x3D57 JUMP JUMPDEST PUSH1 0x40 MLOAD DUP1 SWAP2 SUB SWAP1 RETURN JUMPDEST PUSH2 0x3C4 PUSH2 0x1D39 JUMP JUMPDEST PUSH1 0x40 MLOAD PUSH2 0x3D1 SWAP2 SWAP1 PUSH2 0x39FD JUMP JUMPDEST PUSH1 0x40 MLOAD DUP1 SWAP2 SUB SWAP1 RETURN JUMPDEST PUSH2 0x3F4 PUSH1 0x4 DUP1 CALLDATASIZE SUB DUP2 ADD SWAP1 PUSH2 0x3EF SWAP2 SWAP1 PUSH2 0x3171 JUMP JUMPDEST PUSH2 0x1D5F JUMP JUMPDEST PUSH1 0x40 MLOAD PUSH2 0x401 SWAP2 SWAP1 PUSH2 0x3D3C JUMP JUMPDEST PUSH1 0x40 MLOAD DUP1 SWAP2 SUB SWAP1 RETURN JUMPDEST PUSH2 0x424 PUSH1 0x4 DUP1 CALLDATASIZE SUB DUP2 ADD SWAP1 PUSH2 0x41F SWAP2 SWAP1 PUSH2 0x3256 JUMP JUMPDEST PUSH2 0x2199 JUMP JUMPDEST STOP JUMPDEST PUSH2 0x440 PUSH1 0x4 DUP1 CALLDATASIZE SUB DUP2 ADD SWAP1 PUSH2 0x43B SWAP2 SWAP1 PUSH2 0x3204 JUMP JUMPDEST PUSH2 0x25E5 JUMP JUMPDEST STOP JUMPDEST PUSH1 0xA SLOAD DUP2 JUMP JUMPDEST PUSH1 0x9 PUSH1 0x20 MSTORE DUP1 PUSH1 0x0 MSTORE PUSH1 0x40 PUSH1 0x0 KECCAK256 PUSH1 0x0 SWAP2 POP SLOAD SWAP1 PUSH2 0x100 EXP SWAP1 DIV PUSH1 0xFF AND DUP2 JUMP JUMPDEST PUSH1 0x60 PUSH1 0x0 PUSH1 0x6 SLOAD PUSH8 0xFFFFFFFFFFFFFFFF DUP2 GT ISZERO PUSH2 0x4AE JUMPI PUSH32 0x4E487B7100000000000000000000000000000000000000000000000000000000 PUSH1 0x0 MSTORE PUSH1 0x41 PUSH1 0x4 MSTORE PUSH1 0x24 PUSH1 0x0 REVERT JUMPDEST PUSH1 0x40 MLOAD SWAP1 DUP1 DUP3 MSTORE DUP1 PUSH1 0x20 MUL PUSH1 0x20 ADD DUP3 ADD PUSH1 0x40 MSTORE DUP1 ISZERO PUSH2 0x4E7 JUMPI DUP2 PUSH1 0x20 ADD JUMPDEST PUSH2 0x4D4 PUSH2 0x2ED9 JUMP JUMPDEST DUP2 MSTORE PUSH1 0x20 ADD SWAP1 PUSH1 0x1 SWAP1 SUB SWAP1 DUP2 PUSH2 0x4CC JUMPI SWAP1 POP JUMPDEST POP SWAP1 POP PUSH1 0x0 JUMPDEST PUSH1 0x6 SLOAD DUP2 LT ISZERO PUSH2 0x6EE JUMPI PUSH1 0x8 PUSH1 0x0 DUP3 DUP2 MSTORE PUSH1 0x20 ADD SWAP1 DUP2 MSTORE PUSH1 0x20 ADD PUSH1 0x0 KECCAK256 PUSH1 0x40 MLOAD DUP1 PUSH1 0x80 ADD PUSH1 0x40 MSTORE SWAP1 DUP2 PUSH1 0x0 DUP3 ADD SLOAD DUP2 MSTORE PUSH1 0x20 ADD PUSH1 0x1 DUP3 ADD DUP1 SLOAD PUSH2 0x52F SWAP1 PUSH2 0x404A JUMP JUMPDEST DUP1 PUSH1 0x1F ADD PUSH1 0x20 DUP1 SWAP2 DIV MUL PUSH1 0x20 ADD PUSH1 0x40 MLOAD SWAP1 DUP2 ADD PUSH1 0x40 MSTORE DUP1 SWAP3 SWAP2 SWAP1 DUP2 DUP2 MSTORE PUSH1 0x20 ADD DUP3 DUP1 SLOAD PUSH2 0x55B SWAP1 PUSH2 0x404A JUMP JUMPDEST DUP1 ISZERO PUSH2 0x5A8 JUMPI DUP1 PUSH1 0x1F LT PUSH2 0x57D JUMPI PUSH2 0x100 DUP1 DUP4 SLOAD DIV MUL DUP4 MSTORE SWAP2 PUSH1 0x20 ADD SWAP2 PUSH2 0x5A8 JUMP JUMPDEST DUP3 ADD SWAP2 SWAP1 PUSH1 0x0 MSTORE PUSH1 0x20 PUSH1 0x0 KECCAK256 SWAP1 JUMPDEST DUP2 SLOAD DUP2 MSTORE SWAP1 PUSH1 0x1 ADD SWAP1 PUSH1 0x20 ADD DUP1 DUP4 GT PUSH2 0x58B JUMPI DUP3 SWAP1 SUB PUSH1 0x1F AND DUP3 ADD SWAP2 JUMPDEST POP POP POP POP POP DUP2 MSTORE PUSH1 0x20 ADD PUSH1 0x2 DUP3 ADD PUSH1 0x0 SWAP1 SLOAD SWAP1 PUSH2 0x100 EXP SWAP1 DIV PUSH20 0xFFFFFFFFFFFFFFFFFFFFFFFFFFFFFFFFFFFFFFFF AND PUSH20 0xFFFFFFFFFFFFFFFFFFFFFFFFFFFFFFFFFFFFFFFF AND PUSH20 0xFFFFFFFFFFFFFFFFFFFFFFFFFFFFFFFFFFFFFFFF AND DUP2 MSTORE PUSH1 0x20 ADD PUSH1 0x3 DUP3 ADD DUP1 SLOAD PUSH2 0x617 SWAP1 PUSH2 0x404A JUMP JUMPDEST DUP1 PUSH1 0x1F ADD PUSH1 0x20 DUP1 SWAP2 DIV MUL PUSH1 0x20 ADD PUSH1 0x40 MLOAD SWAP1 DUP2 ADD PUSH1 0x40 MSTORE DUP1 SWAP3 SWAP2 SWAP1 DUP2 DUP2 MSTORE PUSH1 0x20 ADD DUP3 DUP1 SLOAD PUSH2 0x643 SWAP1 PUSH2 0x404A JUMP JUMPDEST DUP1 ISZERO PUSH2 0x690 JUMPI DUP1 PUSH1 0x1F LT PUSH2 0x665 JUMPI PUSH2 0x100 DUP1 DUP4 SLOAD DIV MUL DUP4 MSTORE SWAP2 PUSH1 0x20 ADD SWAP2 PUSH2 0x690 JUMP JUMPDEST DUP3 ADD SWAP2 SWAP1 PUSH1 0x0 MSTORE PUSH1 0x20 PUSH1 0x0 KECCAK256 SWAP1 JUMPDEST DUP2 SLOAD DUP2 MSTORE SWAP1 PUSH1 0x1 ADD SWAP1 PUSH1 0x20 ADD DUP1 DUP4 GT PUSH2 0x673 JUMPI DUP3 SWAP1 SUB PUSH1 0x1F AND DUP3 ADD SWAP2 JUMPDEST POP POP POP POP POP DUP2 MSTORE POP POP DUP3 DUP3 DUP2 MLOAD DUP2 LT PUSH2 0x6D2 JUMPI PUSH32 0x4E487B7100000000000000000000000000000000000000000000000000000000 PUSH1 0x0 MSTORE PUSH1 0x32 PUSH1 0x4 MSTORE PUSH1 0x24 PUSH1 0x0 REVERT JUMPDEST PUSH1 0x20 MUL PUSH1 0x20 ADD ADD DUP2 SWAP1 MSTORE POP DUP1 PUSH2 0x6E7 SWAP1 PUSH2 0x407C JUMP JUMPDEST SWAP1 POP PUSH2 0x4ED JUMP JUMPDEST POP DUP1 SWAP2 POP POP SWAP1 JUMP JUMPDEST PUSH1 0x3 PUSH1 0x0 SWAP1 SLOAD SWAP1 PUSH2 0x100 EXP SWAP1 DIV PUSH20 0xFFFFFFFFFFFFFFFFFFFFFFFFFFFFFFFFFFFFFFFF AND DUP2 JUMP JUMPDEST PUSH1 0x0 CALLER PUSH20 0xFFFFFFFFFFFFFFFFFFFFFFFFFFFFFFFFFFFFFFFF AND PUSH4 0x3B92EB23 PUSH1 0x40 MLOAD DUP2 PUSH4 0xFFFFFFFF AND PUSH1 0xE0 SHL DUP2 MSTORE PUSH1 0x4 ADD PUSH1 0x20 PUSH1 0x40 MLOAD DUP1 DUP4 SUB DUP2 DUP7 DUP1 EXTCODESIZE ISZERO DUP1 ISZERO PUSH2 0x764 JUMPI PUSH1 0x0 DUP1 REVERT JUMPDEST POP GAS STATICCALL ISZERO DUP1 ISZERO PUSH2 0x778 JUMPI RETURNDATASIZE PUSH1 0x0 DUP1 RETURNDATACOPY RETURNDATASIZE PUSH1 0x0 REVERT JUMPDEST POP POP POP POP PUSH1 0x40 MLOAD RETURNDATASIZE PUSH1 0x1F NOT PUSH1 0x1F DUP3 ADD AND DUP3 ADD DUP1 PUSH1 0x40 MSTORE POP DUP2 ADD SWAP1 PUSH2 0x79C SWAP2 SWAP1 PUSH2 0x30A0 JUMP JUMPDEST SWAP1 POP SWAP1 JUMP JUMPDEST PUSH1 0x5 DUP2 DUP2 SLOAD DUP2 LT PUSH2 0x7B1 JUMPI PUSH1 0x0 DUP1 REVERT JUMPDEST SWAP1 PUSH1 0x0 MSTORE PUSH1 0x20 PUSH1 0x0 KECCAK256 ADD PUSH1 0x0 SWAP2 POP SWAP1 POP SLOAD DUP2 JUMP JUMPDEST PUSH1 0x6 SLOAD DUP2 JUMP JUMPDEST PUSH1 0x0 PUSH1 0x64 PUSH1 0xA SLOAD PUSH1 0x3 PUSH1 0x0 SWAP1 SLOAD SWAP1 PUSH2 0x100 EXP SWAP1 DIV PUSH20 0xFFFFFFFFFFFFFFFFFFFFFFFFFFFFFFFFFFFFFFFF AND PUSH20 0xFFFFFFFFFFFFFFFFFFFFFFFFFFFFFFFFFFFFFFFF AND PUSH4 0x18160DDD PUSH1 0x40 MLOAD DUP2 PUSH4 0xFFFFFFFF AND PUSH1 0xE0 SHL DUP2 MSTORE PUSH1 0x4 ADD PUSH1 0x20 PUSH1 0x40 MLOAD DUP1 DUP4 SUB DUP2 DUP7 DUP1 EXTCODESIZE ISZERO DUP1 ISZERO PUSH2 0x83A JUMPI PUSH1 0x0 DUP1 REVERT JUMPDEST POP GAS STATICCALL ISZERO DUP1 ISZERO PUSH2 0x84E JUMPI RETURNDATASIZE PUSH1 0x0 DUP1 RETURNDATACOPY RETURNDATASIZE PUSH1 0x0 REVERT JUMPDEST POP POP POP POP PUSH1 0x40 MLOAD RETURNDATASIZE PUSH1 0x1F NOT PUSH1 0x1F DUP3 ADD AND DUP3 ADD DUP1 PUSH1 0x40 MSTORE POP DUP2 ADD SWAP1 PUSH2 0x872 SWAP2 SWAP1 PUSH2 0x322D JUMP JUMPDEST PUSH2 0x87C SWAP2 SWAP1 PUSH2 0x3F42 JUMP JUMPDEST PUSH2 0x886 SWAP2 SWAP1 PUSH2 0x3F11 JUMP JUMPDEST SWAP1 POP DUP1 PUSH1 0x3 PUSH1 0x0 SWAP1 SLOAD SWAP1 PUSH2 0x100 EXP SWAP1 DIV PUSH20 0xFFFFFFFFFFFFFFFFFFFFFFFFFFFFFFFFFFFFFFFF AND PUSH20 0xFFFFFFFFFFFFFFFFFFFFFFFFFFFFFFFFFFFFFFFF AND PUSH4 0x70A08231 CALLER PUSH1 0x40 MLOAD DUP3 PUSH4 0xFFFFFFFF AND PUSH1 0xE0 SHL DUP2 MSTORE PUSH1 0x4 ADD PUSH2 0x8E4 SWAP2 SWAP1 PUSH2 0x39FD JUMP JUMPDEST PUSH1 0x20 PUSH1 0x40 MLOAD DUP1 DUP4 SUB DUP2 DUP7 DUP1 EXTCODESIZE ISZERO DUP1 ISZERO PUSH2 0x8FC JUMPI PUSH1 0x0 DUP1 REVERT JUMPDEST POP GAS STATICCALL ISZERO DUP1 ISZERO PUSH2 0x910 JUMPI RETURNDATASIZE PUSH1 0x0 DUP1 RETURNDATACOPY RETURNDATASIZE PUSH1 0x0 REVERT JUMPDEST POP POP POP POP PUSH1 0x40 MLOAD RETURNDATASIZE PUSH1 0x1F NOT PUSH1 0x1F DUP3 ADD AND DUP3 ADD DUP1 PUSH1 0x40 MSTORE POP DUP2 ADD SWAP1 PUSH2 0x934 SWAP2 SWAP1 PUSH2 0x322D JUMP JUMPDEST LT ISZERO PUSH2 0x975 JUMPI PUSH1 0x40 MLOAD PUSH32 0x8C379A000000000000000000000000000000000000000000000000000000000 DUP2 MSTORE PUSH1 0x4 ADD PUSH2 0x96C SWAP1 PUSH2 0x3BDC JUMP JUMPDEST PUSH1 0x40 MLOAD DUP1 SWAP2 SUB SWAP1 REVERT JUMPDEST PUSH1 0x0 PUSH1 0x7 PUSH1 0x0 DUP6 DUP2 MSTORE PUSH1 0x20 ADD SWAP1 DUP2 MSTORE PUSH1 0x20 ADD PUSH1 0x0 KECCAK256 SWAP1 POP DUP1 PUSH1 0x2 ADD SLOAD TIMESTAMP LT ISZERO DUP1 ISZERO PUSH2 0x9B0 JUMPI POP PUSH1 0x1 SLOAD DUP2 PUSH1 0x2 ADD SLOAD PUSH2 0x9AD SWAP2 SWAP1 PUSH2 0x3EBB JUMP JUMPDEST TIMESTAMP LT JUMPDEST PUSH2 0x9EF JUMPI PUSH1 0x40 MLOAD PUSH32 0x8C379A000000000000000000000000000000000000000000000000000000000 DUP2 MSTORE PUSH1 0x4 ADD PUSH2 0x9E6 SWAP1 PUSH2 0x3BFC JUMP JUMPDEST PUSH1 0x40 MLOAD DUP1 SWAP2 SUB SWAP1 REVERT JUMPDEST PUSH1 0x1 PUSH1 0x6 DUP2 GT ISZERO PUSH2 0xA29 JUMPI PUSH32 0x4E487B7100000000000000000000000000000000000000000000000000000000 PUSH1 0x0 MSTORE PUSH1 0x21 PUSH1 0x4 MSTORE PUSH1 0x24 PUSH1 0x0 REVERT JUMPDEST DUP2 PUSH1 0x8 ADD PUSH1 0x0 SWAP1 SLOAD SWAP1 PUSH2 0x100 EXP SWAP1 DIV PUSH1 0xFF AND PUSH1 0x6 DUP2 GT ISZERO PUSH2 0xA73 JUMPI PUSH32 0x4E487B7100000000000000000000000000000000000000000000000000000000 PUSH1 0x0 MSTORE PUSH1 0x21 PUSH1 0x4 MSTORE PUSH1 0x24 PUSH1 0x0 REVERT JUMPDEST EQ PUSH2 0xAB3 JUMPI PUSH1 0x40 MLOAD PUSH32 0x8C379A000000000000000000000000000000000000000000000000000000000 DUP2 MSTORE PUSH1 0x4 ADD PUSH2 0xAAA SWAP1 PUSH2 0x3CFC JUMP JUMPDEST PUSH1 0x40 MLOAD DUP1 SWAP2 SUB SWAP1 REVERT JUMPDEST PUSH1 0x5 DUP2 PUSH1 0x8 ADD PUSH1 0x0 PUSH2 0x100 EXP DUP2 SLOAD DUP2 PUSH1 0xFF MUL NOT AND SWAP1 DUP4 PUSH1 0x6 DUP2 GT ISZERO PUSH2 0xB01 JUMPI PUSH32 0x4E487B7100000000000000000000000000000000000000000000000000000000 PUSH1 0x0 MSTORE PUSH1 0x21 PUSH1 0x4 MSTORE PUSH1 0x24 PUSH1 0x0 REVERT JUMPDEST MUL OR SWAP1 SSTORE POP DUP3 DUP2 PUSH1 0xC ADD PUSH1 0x1 ADD SWAP1 DUP1 MLOAD SWAP1 PUSH1 0x20 ADD SWAP1 PUSH2 0xB21 SWAP3 SWAP2 SWAP1 PUSH2 0x2F17 JUMP JUMPDEST POP CALLER DUP2 PUSH1 0xC ADD PUSH1 0x0 ADD PUSH1 0x0 PUSH2 0x100 EXP DUP2 SLOAD DUP2 PUSH20 0xFFFFFFFFFFFFFFFFFFFFFFFFFFFFFFFFFFFFFFFF MUL NOT AND SWAP1 DUP4 PUSH20 0xFFFFFFFFFFFFFFFFFFFFFFFFFFFFFFFFFFFFFFFF AND MUL OR SWAP1 SSTORE POP PUSH1 0x1 SLOAD TIMESTAMP PUSH2 0xB76 SWAP2 SWAP1 PUSH2 0x3EBB JUMP JUMPDEST DUP2 PUSH1 0x2 ADD DUP2 SWAP1 SSTORE POP DUP4 PUSH32 0x4A3E39232EA797464BB08B1CB8267CFC05E026D0EAE637FF17B0548AF520369A DUP5 PUSH1 0x40 MLOAD PUSH2 0xBAE SWAP2 SWAP1 PUSH2 0x3A70 JUMP JUMPDEST PUSH1 0x40 MLOAD DUP1 SWAP2 SUB SWAP1 LOG2 POP POP POP POP JUMP JUMPDEST PUSH1 0x60 DUP1 PUSH1 0x0 DUP1 PUSH1 0x7 PUSH1 0x0 DUP7 DUP2 MSTORE PUSH1 0x20 ADD SWAP1 DUP2 MSTORE PUSH1 0x20 ADD PUSH1 0x0 KECCAK256 SWAP1 POP DUP1 PUSH1 0x3 ADD DUP2 PUSH1 0x5 ADD DUP3 PUSH1 0x4 ADD PUSH1 0x0 SWAP1 SLOAD SWAP1 PUSH2 0x100 EXP SWAP1 DIV PUSH20 0xFFFFFFFFFFFFFFFFFFFFFFFFFFFFFFFFFFFFFFFF AND DUP3 DUP1 SLOAD PUSH2 0xC10 SWAP1 PUSH2 0x404A JUMP JUMPDEST DUP1 PUSH1 0x1F ADD PUSH1 0x20 DUP1 SWAP2 DIV MUL PUSH1 0x20 ADD PUSH1 0x40 MLOAD SWAP1 DUP2 ADD PUSH1 0x40 MSTORE DUP1 SWAP3 SWAP2 SWAP1 DUP2 DUP2 MSTORE PUSH1 0x20 ADD DUP3 DUP1 SLOAD PUSH2 0xC3C SWAP1 PUSH2 0x404A JUMP JUMPDEST DUP1 ISZERO PUSH2 0xC89 JUMPI DUP1 PUSH1 0x1F LT PUSH2 0xC5E JUMPI PUSH2 0x100 DUP1 DUP4 SLOAD DIV MUL DUP4 MSTORE SWAP2 PUSH1 0x20 ADD SWAP2 PUSH2 0xC89 JUMP JUMPDEST DUP3 ADD SWAP2 SWAP1 PUSH1 0x0 MSTORE PUSH1 0x20 PUSH1 0x0 KECCAK256 SWAP1 JUMPDEST DUP2 SLOAD DUP2 MSTORE SWAP1 PUSH1 0x1 ADD SWAP1 PUSH1 0x20 ADD DUP1 DUP4 GT PUSH2 0xC6C JUMPI DUP3 SWAP1 SUB PUSH1 0x1F AND DUP3 ADD SWAP2 JUMPDEST POP POP POP POP POP SWAP3 POP DUP2 DUP1 SLOAD PUSH2 0xC9C SWAP1 PUSH2 0x404A JUMP JUMPDEST DUP1 PUSH1 0x1F ADD PUSH1 0x20 DUP1 SWAP2 DIV MUL PUSH1 0x20 ADD PUSH1 0x40 MLOAD SWAP1 DUP2 ADD PUSH1 0x40 MSTORE DUP1 SWAP3 SWAP2 SWAP1 DUP2 DUP2 MSTORE PUSH1 0x20 ADD DUP3 DUP1 SLOAD PUSH2 0xCC8 SWAP1 PUSH2 0x404A JUMP JUMPDEST DUP1 ISZERO PUSH2 0xD15 JUMPI DUP1 PUSH1 0x1F LT PUSH2 0xCEA JUMPI PUSH2 0x100 DUP1 DUP4 SLOAD DIV MUL DUP4 MSTORE SWAP2 PUSH1 0x20 ADD SWAP2 PUSH2 0xD15 JUMP JUMPDEST DUP3 ADD SWAP2 SWAP1 PUSH1 0x0 MSTORE PUSH1 0x20 PUSH1 0x0 KECCAK256 SWAP1 JUMPDEST DUP2 SLOAD DUP2 MSTORE SWAP1 PUSH1 0x1 ADD SWAP1 PUSH1 0x20 ADD DUP1 DUP4 GT PUSH2 0xCF8 JUMPI DUP3 SWAP1 SUB PUSH1 0x1F AND DUP3 ADD SWAP2 JUMPDEST POP POP POP POP POP SWAP2 POP SWAP4 POP SWAP4 POP SWAP4 POP POP SWAP2 SWAP4 SWAP1 SWAP3 POP JUMP JUMPDEST PUSH1 0x4 SLOAD DUP2 JUMP JUMPDEST PUSH2 0xD38 PUSH2 0x71C JUMP JUMPDEST PUSH1 0x3 PUSH1 0x0 PUSH2 0x100 EXP DUP2 SLOAD DUP2 PUSH20 0xFFFFFFFFFFFFFFFFFFFFFFFFFFFFFFFFFFFFFFFF MUL NOT AND SWAP1 DUP4 PUSH20 0xFFFFFFFFFFFFFFFFFFFFFFFFFFFFFFFFFFFFFFFF AND MUL OR SWAP1 SSTORE POP CALLER PUSH1 0x2 PUSH1 0x0 PUSH2 0x100 EXP DUP2 SLOAD DUP2 PUSH20 0xFFFFFFFFFFFFFFFFFFFFFFFFFFFFFFFFFFFFFFFF MUL NOT AND SWAP1 DUP4 PUSH20 0xFFFFFFFFFFFFFFFFFFFFFFFFFFFFFFFFFFFFFFFF AND MUL OR SWAP1 SSTORE POP PUSH1 0x2 PUSH1 0x0 SWAP1 SLOAD SWAP1 PUSH2 0x100 EXP SWAP1 DIV PUSH20 0xFFFFFFFFFFFFFFFFFFFFFFFFFFFFFFFFFFFFFFFF AND PUSH20 0xFFFFFFFFFFFFFFFFFFFFFFFFFFFFFFFFFFFFFFFF AND PUSH32 0xE39D7CD8517BE5D0DED9DB90850AC775470F23EA44EC3AAAAD22EE8B1F8FC59 PUSH1 0x40 MLOAD PUSH1 0x40 MLOAD DUP1 SWAP2 SUB SWAP1 LOG2 JUMP JUMPDEST PUSH1 0x0 DUP1 PUSH1 0x7 PUSH1 0x0 DUP6 DUP2 MSTORE PUSH1 0x20 ADD SWAP1 DUP2 MSTORE PUSH1 0x20 ADD PUSH1 0x0 KECCAK256 SWAP1 POP PUSH1 0x0 PUSH1 0x6 DUP2 GT ISZERO PUSH2 0xE72 JUMPI PUSH32 0x4E487B7100000000000000000000000000000000000000000000000000000000 PUSH1 0x0 MSTORE PUSH1 0x21 PUSH1 0x4 MSTORE PUSH1 0x24 PUSH1 0x0 REVERT JUMPDEST DUP2 PUSH1 0x8 ADD PUSH1 0x0 SWAP1 SLOAD SWAP1 PUSH2 0x100 EXP SWAP1 DIV PUSH1 0xFF AND PUSH1 0x6 DUP2 GT ISZERO PUSH2 0xEBC JUMPI PUSH32 0x4E487B7100000000000000000000000000000000000000000000000000000000 PUSH1 0x0 MSTORE PUSH1 0x21 PUSH1 0x4 MSTORE PUSH1 0x24 PUSH1 0x0 REVERT JUMPDEST EQ ISZERO PUSH2 0xEFD JUMPI PUSH1 0x40 MLOAD PUSH32 0x8C379A000000000000000000000000000000000000000000000000000000000 DUP2 MSTORE PUSH1 0x4 ADD PUSH2 0xEF4 SWAP1 PUSH2 0x3C5C JUMP JUMPDEST PUSH1 0x40 MLOAD DUP1 SWAP2 SUB SWAP1 REVERT JUMPDEST PUSH1 0x1 PUSH1 0x6 DUP2 GT ISZERO PUSH2 0xF37 JUMPI PUSH32 0x4E487B7100000000000000000000000000000000000000000000000000000000 PUSH1 0x0 MSTORE PUSH1 0x21 PUSH1 0x4 MSTORE PUSH1 0x24 PUSH1 0x0 REVERT JUMPDEST DUP2 PUSH1 0x8 ADD PUSH1 0x0 SWAP1 SLOAD SWAP1 PUSH2 0x100 EXP SWAP1 DIV PUSH1 0xFF AND PUSH1 0x6 DUP2 GT ISZERO PUSH2 0xF81 JUMPI PUSH32 0x4E487B7100000000000000000000000000000000000000000000000000000000 PUSH1 0x0 MSTORE PUSH1 0x21 PUSH1 0x4 MSTORE PUSH1 0x24 PUSH1 0x0 REVERT JUMPDEST EQ ISZERO PUSH2 0x155D JUMPI DUP1 PUSH1 0xB ADD PUSH1 0x0 CALLER PUSH20 0xFFFFFFFFFFFFFFFFFFFFFFFFFFFFFFFFFFFFFFFF AND PUSH20 0xFFFFFFFFFFFFFFFFFFFFFFFFFFFFFFFFFFFFFFFF AND DUP2 MSTORE PUSH1 0x20 ADD SWAP1 DUP2 MSTORE PUSH1 0x20 ADD PUSH1 0x0 KECCAK256 PUSH1 0x0 ADD PUSH1 0x0 SWAP1 SLOAD SWAP1 PUSH2 0x100 EXP SWAP1 DIV PUSH1 0xFF AND ISZERO PUSH2 0x1019 JUMPI PUSH1 0x40 MLOAD PUSH32 0x8C379A000000000000000000000000000000000000000000000000000000000 DUP2 MSTORE PUSH1 0x4 ADD PUSH2 0x1010 SWAP1 PUSH2 0x3D1C JUMP JUMPDEST PUSH1 0x40 MLOAD DUP1 SWAP2 SUB SWAP1 REVERT JUMPDEST PUSH1 0x1 PUSH1 0x3 PUSH1 0x0 SWAP1 SLOAD SWAP1 PUSH2 0x100 EXP SWAP1 DIV PUSH20 0xFFFFFFFFFFFFFFFFFFFFFFFFFFFFFFFFFFFFFFFF AND PUSH20 0xFFFFFFFFFFFFFFFFFFFFFFFFFFFFFFFFFFFFFFFF AND PUSH4 0x70A08231 CALLER PUSH1 0x40 MLOAD DUP3 PUSH4 0xFFFFFFFF AND PUSH1 0xE0 SHL DUP2 MSTORE PUSH1 0x4 ADD PUSH2 0x1076 SWAP2 SWAP1 PUSH2 0x39FD JUMP JUMPDEST PUSH1 0x20 PUSH1 0x40 MLOAD DUP1 DUP4 SUB DUP2 DUP7 DUP1 EXTCODESIZE ISZERO DUP1 ISZERO PUSH2 0x108E JUMPI PUSH1 0x0 DUP1 REVERT JUMPDEST POP GAS STATICCALL ISZERO DUP1 ISZERO PUSH2 0x10A2 JUMPI RETURNDATASIZE PUSH1 0x0 DUP1 RETURNDATACOPY RETURNDATASIZE PUSH1 0x0 REVERT JUMPDEST POP POP POP POP PUSH1 0x40 MLOAD RETURNDATASIZE PUSH1 0x1F NOT PUSH1 0x1F DUP3 ADD AND DUP3 ADD DUP1 PUSH1 0x40 MSTORE POP DUP2 ADD SWAP1 PUSH2 0x10C6 SWAP2 SWAP1 PUSH2 0x322D JUMP JUMPDEST LT ISZERO PUSH2 0x1107 JUMPI PUSH1 0x40 MLOAD PUSH32 0x8C379A000000000000000000000000000000000000000000000000000000000 DUP2 MSTORE PUSH1 0x4 ADD PUSH2 0x10FE SWAP1 PUSH2 0x3C9C JUMP JUMPDEST PUSH1 0x40 MLOAD DUP1 SWAP2 SUB SWAP1 REVERT JUMPDEST DUP1 PUSH1 0x2 ADD SLOAD TIMESTAMP LT PUSH2 0x114D JUMPI PUSH1 0x40 MLOAD PUSH32 0x8C379A000000000000000000000000000000000000000000000000000000000 DUP2 MSTORE PUSH1 0x4 ADD PUSH2 0x1144 SWAP1 PUSH2 0x3B3C JUMP JUMPDEST PUSH1 0x40 MLOAD DUP1 SWAP2 SUB SWAP1 REVERT JUMPDEST PUSH1 0x1 DUP2 PUSH1 0xB ADD PUSH1 0x0 CALLER PUSH20 0xFFFFFFFFFFFFFFFFFFFFFFFFFFFFFFFFFFFFFFFF AND PUSH20 0xFFFFFFFFFFFFFFFFFFFFFFFFFFFFFFFFFFFFFFFF AND DUP2 MSTORE PUSH1 0x20 ADD SWAP1 DUP2 MSTORE PUSH1 0x20 ADD PUSH1 0x0 KECCAK256 PUSH1 0x0 ADD PUSH1 0x0 PUSH2 0x100 EXP DUP2 SLOAD DUP2 PUSH1 0xFF MUL NOT AND SWAP1 DUP4 ISZERO ISZERO MUL OR SWAP1 SSTORE POP DUP3 ISZERO PUSH2 0x1492 JUMPI PUSH1 0x0 DUP2 PUSH1 0xB ADD PUSH1 0x0 CALLER PUSH20 0xFFFFFFFFFFFFFFFFFFFFFFFFFFFFFFFFFFFFFFFF AND PUSH20 0xFFFFFFFFFFFFFFFFFFFFFFFFFFFFFFFFFFFFFFFF AND DUP2 MSTORE PUSH1 0x20 ADD SWAP1 DUP2 MSTORE PUSH1 0x20 ADD PUSH1 0x0 KECCAK256 PUSH1 0x1 ADD DUP1 SLOAD SWAP1 POP EQ PUSH2 0x13C8 JUMPI PUSH1 0x0 JUMPDEST DUP2 PUSH1 0xB ADD PUSH1 0x0 CALLER PUSH20 0xFFFFFFFFFFFFFFFFFFFFFFFFFFFFFFFFFFFFFFFF AND PUSH20 0xFFFFFFFFFFFFFFFFFFFFFFFFFFFFFFFFFFFFFFFF AND DUP2 MSTORE PUSH1 0x20 ADD SWAP1 DUP2 MSTORE PUSH1 0x20 ADD PUSH1 0x0 KECCAK256 PUSH1 0x1 ADD DUP1 SLOAD SWAP1 POP DUP2 LT ISZERO PUSH2 0x13C6 JUMPI PUSH1 0x0 DUP3 PUSH1 0xB ADD PUSH1 0x0 CALLER PUSH20 0xFFFFFFFFFFFFFFFFFFFFFFFFFFFFFFFFFFFFFFFF AND PUSH20 0xFFFFFFFFFFFFFFFFFFFFFFFFFFFFFFFFFFFFFFFF AND DUP2 MSTORE PUSH1 0x20 ADD SWAP1 DUP2 MSTORE PUSH1 0x20 ADD PUSH1 0x0 KECCAK256 PUSH1 0x1 ADD DUP3 DUP2 SLOAD DUP2 LT PUSH2 0x12CF JUMPI PUSH32 0x4E487B7100000000000000000000000000000000000000000000000000000000 PUSH1 0x0 MSTORE PUSH1 0x32 PUSH1 0x4 MSTORE PUSH1 0x24 PUSH1 0x0 REVERT JUMPDEST SWAP1 PUSH1 0x0 MSTORE PUSH1 0x20 PUSH1 0x0 KECCAK256 ADD PUSH1 0x0 SWAP1 SLOAD SWAP1 PUSH2 0x100 EXP SWAP1 DIV PUSH20 0xFFFFFFFFFFFFFFFFFFFFFFFFFFFFFFFFFFFFFFFF AND SWAP1 POP PUSH1 0x3 PUSH1 0x0 SWAP1 SLOAD SWAP1 PUSH2 0x100 EXP SWAP1 DIV PUSH20 0xFFFFFFFFFFFFFFFFFFFFFFFFFFFFFFFFFFFFFFFF AND PUSH20 0xFFFFFFFFFFFFFFFFFFFFFFFFFFFFFFFFFFFFFFFF AND PUSH4 0x70A08231 DUP3 PUSH1 0x40 MLOAD DUP3 PUSH4 0xFFFFFFFF AND PUSH1 0xE0 SHL DUP2 MSTORE PUSH1 0x4 ADD PUSH2 0x1357 SWAP2 SWAP1 PUSH2 0x39FD JUMP JUMPDEST PUSH1 0x20 PUSH1 0x40 MLOAD DUP1 DUP4 SUB DUP2 DUP7 DUP1 EXTCODESIZE ISZERO DUP1 ISZERO PUSH2 0x136F JUMPI PUSH1 0x0 DUP1 REVERT JUMPDEST POP GAS STATICCALL ISZERO DUP1 ISZERO PUSH2 0x1383 JUMPI RETURNDATASIZE PUSH1 0x0 DUP1 RETURNDATACOPY RETURNDATASIZE PUSH1 0x0 REVERT JUMPDEST POP POP POP POP PUSH1 0x40 MLOAD RETURNDATASIZE PUSH1 0x1F NOT PUSH1 0x1F DUP3 ADD AND DUP3 ADD DUP1 PUSH1 0x40 MSTORE POP DUP2 ADD SWAP1 PUSH2 0x13A7 SWAP2 SWAP1 PUSH2 0x322D JUMP JUMPDEST DUP5 PUSH2 0x13B2 SWAP2 SWAP1 PUSH2 0x3EBB JUMP JUMPDEST SWAP4 POP POP DUP1 PUSH2 0x13BF SWAP1 PUSH2 0x407C JUMP JUMPDEST SWAP1 POP PUSH2 0x1202 JUMP JUMPDEST POP JUMPDEST PUSH1 0x3 PUSH1 0x0 SWAP1 SLOAD SWAP1 PUSH2 0x100 EXP SWAP1 DIV PUSH20 0xFFFFFFFFFFFFFFFFFFFFFFFFFFFFFFFFFFFFFFFF AND PUSH20 0xFFFFFFFFFFFFFFFFFFFFFFFFFFFFFFFFFFFFFFFF AND PUSH4 0x70A08231 CALLER PUSH1 0x40 MLOAD DUP3 PUSH4 0xFFFFFFFF AND PUSH1 0xE0 SHL DUP2 MSTORE PUSH1 0x4 ADD PUSH2 0x1423 SWAP2 SWAP1 PUSH2 0x39FD JUMP JUMPDEST PUSH1 0x20 PUSH1 0x40 MLOAD DUP1 DUP4 SUB DUP2 DUP7 DUP1 EXTCODESIZE ISZERO DUP1 ISZERO PUSH2 0x143B JUMPI PUSH1 0x0 DUP1 REVERT JUMPDEST POP GAS STATICCALL ISZERO DUP1 ISZERO PUSH2 0x144F JUMPI RETURNDATASIZE PUSH1 0x0 DUP1 RETURNDATACOPY RETURNDATASIZE PUSH1 0x0 REVERT JUMPDEST POP POP POP POP PUSH1 0x40 MLOAD RETURNDATASIZE PUSH1 0x1F NOT PUSH1 0x1F DUP3 ADD AND DUP3 ADD DUP1 PUSH1 0x40 MSTORE POP DUP2 ADD SWAP1 PUSH2 0x1473 SWAP2 SWAP1 PUSH2 0x322D JUMP JUMPDEST DUP2 PUSH1 0x6 ADD PUSH1 0x0 DUP3 DUP3 SLOAD PUSH2 0x1486 SWAP2 SWAP1 PUSH2 0x3EBB JUMP JUMPDEST SWAP3 POP POP DUP2 SWAP1 SSTORE POP PUSH2 0x1558 JUMP JUMPDEST PUSH1 0x3 PUSH1 0x0 SWAP1 SLOAD SWAP1 PUSH2 0x100 EXP SWAP1 DIV PUSH20 0xFFFFFFFFFFFFFFFFFFFFFFFFFFFFFFFFFFFFFFFF AND PUSH20 0xFFFFFFFFFFFFFFFFFFFFFFFFFFFFFFFFFFFFFFFF AND PUSH4 0x70A08231 CALLER PUSH1 0x40 MLOAD DUP3 PUSH4 0xFFFFFFFF AND PUSH1 0xE0 SHL DUP2 MSTORE PUSH1 0x4 ADD PUSH2 0x14ED SWAP2 SWAP1 PUSH2 0x39FD JUMP JUMPDEST PUSH1 0x20 PUSH1 0x40 MLOAD DUP1 DUP4 SUB DUP2 DUP7 DUP1 EXTCODESIZE ISZERO DUP1 ISZERO PUSH2 0x1505 JUMPI PUSH1 0x0 DUP1 REVERT JUMPDEST POP GAS STATICCALL ISZERO DUP1 ISZERO PUSH2 0x1519 JUMPI RETURNDATASIZE PUSH1 0x0 DUP1 RETURNDATACOPY RETURNDATASIZE PUSH1 0x0 REVERT JUMPDEST POP POP POP POP PUSH1 0x40 MLOAD RETURNDATASIZE PUSH1 0x1F NOT PUSH1 0x1F DUP3 ADD AND DUP3 ADD DUP1 PUSH1 0x40 MSTORE POP DUP2 ADD SWAP1 PUSH2 0x153D SWAP2 SWAP1 PUSH2 0x322D JUMP JUMPDEST DUP2 PUSH1 0x7 ADD PUSH1 0x0 DUP3 DUP3 SLOAD PUSH2 0x1550 SWAP2 SWAP1 PUSH2 0x3EBB JUMP JUMPDEST SWAP3 POP POP DUP2 SWAP1 SSTORE POP JUMPDEST PUSH2 0x1AD1 JUMP JUMPDEST PUSH1 0x5 PUSH1 0x6 DUP2 GT ISZERO PUSH2 0x1597 JUMPI PUSH32 0x4E487B7100000000000000000000000000000000000000000000000000000000 PUSH1 0x0 MSTORE PUSH1 0x21 PUSH1 0x4 MSTORE PUSH1 0x24 PUSH1 0x0 REVERT JUMPDEST DUP2 PUSH1 0x8 ADD PUSH1 0x0 SWAP1 SLOAD SWAP1 PUSH2 0x100 EXP SWAP1 DIV PUSH1 0xFF AND PUSH1 0x6 DUP2 GT ISZERO PUSH2 0x15E1 JUMPI PUSH32 0x4E487B7100000000000000000000000000000000000000000000000000000000 PUSH1 0x0 MSTORE PUSH1 0x21 PUSH1 0x4 MSTORE PUSH1 0x24 PUSH1 0x0 REVERT JUMPDEST EQ ISZERO PUSH2 0x1A07 JUMPI DUP1 PUSH1 0xC ADD PUSH1 0x4 ADD PUSH1 0x0 CALLER PUSH20 0xFFFFFFFFFFFFFFFFFFFFFFFFFFFFFFFFFFFFFFFF AND PUSH20 0xFFFFFFFFFFFFFFFFFFFFFFFFFFFFFFFFFFFFFFFF AND DUP2 MSTORE PUSH1 0x20 ADD SWAP1 DUP2 MSTORE PUSH1 0x20 ADD PUSH1 0x0 KECCAK256 PUSH1 0x0 ADD PUSH1 0x0 SWAP1 SLOAD SWAP1 PUSH2 0x100 EXP SWAP1 DIV PUSH1 0xFF AND ISZERO PUSH2 0x167C JUMPI PUSH1 0x40 MLOAD PUSH32 0x8C379A000000000000000000000000000000000000000000000000000000000 DUP2 MSTORE PUSH1 0x4 ADD PUSH2 0x1673 SWAP1 PUSH2 0x3D1C JUMP JUMPDEST PUSH1 0x40 MLOAD DUP1 SWAP2 SUB SWAP1 REVERT JUMPDEST DUP1 PUSH1 0x2 ADD SLOAD TIMESTAMP LT PUSH2 0x16C2 JUMPI PUSH1 0x40 MLOAD PUSH32 0x8C379A000000000000000000000000000000000000000000000000000000000 DUP2 MSTORE PUSH1 0x4 ADD PUSH2 0x16B9 SWAP1 PUSH2 0x3B3C JUMP JUMPDEST PUSH1 0x40 MLOAD DUP1 SWAP2 SUB SWAP1 REVERT JUMPDEST PUSH1 0x1 DUP2 PUSH1 0xC ADD PUSH1 0x4 ADD PUSH1 0x0 CALLER PUSH20 0xFFFFFFFFFFFFFFFFFFFFFFFFFFFFFFFFFFFFFFFF AND PUSH20 0xFFFFFFFFFFFFFFFFFFFFFFFFFFFFFFFFFFFFFFFF AND DUP2 MSTORE PUSH1 0x20 ADD SWAP1 DUP2 MSTORE PUSH1 0x20 ADD PUSH1 0x0 KECCAK256 PUSH1 0x0 ADD PUSH1 0x0 PUSH2 0x100 EXP DUP2 SLOAD DUP2 PUSH1 0xFF MUL NOT AND SWAP1 DUP4 ISZERO ISZERO MUL OR SWAP1 SSTORE POP PUSH1 0x0 DUP2 PUSH1 0xB ADD PUSH1 0x0 CALLER PUSH20 0xFFFFFFFFFFFFFFFFFFFFFFFFFFFFFFFFFFFFFFFF AND PUSH20 0xFFFFFFFFFFFFFFFFFFFFFFFFFFFFFFFFFFFFFFFF AND DUP2 MSTORE PUSH1 0x20 ADD SWAP1 DUP2 MSTORE PUSH1 0x20 ADD PUSH1 0x0 KECCAK256 PUSH1 0x1 ADD DUP1 SLOAD SWAP1 POP EQ PUSH2 0x193A JUMPI PUSH1 0x0 JUMPDEST DUP2 PUSH1 0xB ADD PUSH1 0x0 CALLER PUSH20 0xFFFFFFFFFFFFFFFFFFFFFFFFFFFFFFFFFFFFFFFF AND PUSH20 0xFFFFFFFFFFFFFFFFFFFFFFFFFFFFFFFFFFFFFFFF AND DUP2 MSTORE PUSH1 0x20 ADD SWAP1 DUP2 MSTORE PUSH1 0x20 ADD PUSH1 0x0 KECCAK256 PUSH1 0x1 ADD DUP1 SLOAD SWAP1 POP DUP2 LT ISZERO PUSH2 0x1938 JUMPI PUSH1 0x0 DUP3 PUSH1 0xB ADD PUSH1 0x0 CALLER PUSH20 0xFFFFFFFFFFFFFFFFFFFFFFFFFFFFFFFFFFFFFFFF AND PUSH20 0xFFFFFFFFFFFFFFFFFFFFFFFFFFFFFFFFFFFFFFFF AND DUP2 MSTORE PUSH1 0x20 ADD SWAP1 DUP2 MSTORE PUSH1 0x20 ADD PUSH1 0x0 KECCAK256 PUSH1 0x1 ADD DUP3 DUP2 SLOAD DUP2 LT PUSH2 0x1841 JUMPI PUSH32 0x4E487B7100000000000000000000000000000000000000000000000000000000 PUSH1 0x0 MSTORE PUSH1 0x32 PUSH1 0x4 MSTORE PUSH1 0x24 PUSH1 0x0 REVERT JUMPDEST SWAP1 PUSH1 0x0 MSTORE PUSH1 0x20 PUSH1 0x0 KECCAK256 ADD PUSH1 0x0 SWAP1 SLOAD SWAP1 PUSH2 0x100 EXP SWAP1 DIV PUSH20 0xFFFFFFFFFFFFFFFFFFFFFFFFFFFFFFFFFFFFFFFF AND SWAP1 POP PUSH1 0x3 PUSH1 0x0 SWAP1 SLOAD SWAP1 PUSH2 0x100 EXP SWAP1 DIV PUSH20 0xFFFFFFFFFFFFFFFFFFFFFFFFFFFFFFFFFFFFFFFF AND PUSH20 0xFFFFFFFFFFFFFFFFFFFFFFFFFFFFFFFFFFFFFFFF AND PUSH4 0x70A08231 DUP3 PUSH1 0x40 MLOAD DUP3 PUSH4 0xFFFFFFFF AND PUSH1 0xE0 SHL DUP2 MSTORE PUSH1 0x4 ADD PUSH2 0x18C9 SWAP2 SWAP1 PUSH2 0x39FD JUMP JUMPDEST PUSH1 0x20 PUSH1 0x40 MLOAD DUP1 DUP4 SUB DUP2 DUP7 DUP1 EXTCODESIZE ISZERO DUP1 ISZERO PUSH2 0x18E1 JUMPI PUSH1 0x0 DUP1 REVERT JUMPDEST POP GAS STATICCALL ISZERO DUP1 ISZERO PUSH2 0x18F5 JUMPI RETURNDATASIZE PUSH1 0x0 DUP1 RETURNDATACOPY RETURNDATASIZE PUSH1 0x0 REVERT JUMPDEST POP POP POP POP PUSH1 0x40 MLOAD RETURNDATASIZE PUSH1 0x1F NOT PUSH1 0x1F DUP3 ADD AND DUP3 ADD DUP1 PUSH1 0x40 MSTORE POP DUP2 ADD SWAP1 PUSH2 0x1919 SWAP2 SWAP1 PUSH2 0x322D JUMP JUMPDEST DUP5 PUSH2 0x1924 SWAP2 SWAP1 PUSH2 0x3EBB JUMP JUMPDEST SWAP4 POP POP DUP1 PUSH2 0x1931 SWAP1 PUSH2 0x407C JUMP JUMPDEST SWAP1 POP PUSH2 0x1774 JUMP JUMPDEST POP JUMPDEST PUSH1 0x3 PUSH1 0x0 SWAP1 SLOAD SWAP1 PUSH2 0x100 EXP SWAP1 DIV PUSH20 0xFFFFFFFFFFFFFFFFFFFFFFFFFFFFFFFFFFFFFFFF AND PUSH20 0xFFFFFFFFFFFFFFFFFFFFFFFFFFFFFFFFFFFFFFFF AND PUSH4 0x70A08231 CALLER PUSH1 0x40 MLOAD DUP3 PUSH4 0xFFFFFFFF AND PUSH1 0xE0 SHL DUP2 MSTORE PUSH1 0x4 ADD PUSH2 0x1995 SWAP2 SWAP1 PUSH2 0x39FD JUMP JUMPDEST PUSH1 0x20 PUSH1 0x40 MLOAD DUP1 DUP4 SUB DUP2 DUP7 DUP1 EXTCODESIZE ISZERO DUP1 ISZERO PUSH2 0x19AD JUMPI PUSH1 0x0 DUP1 REVERT JUMPDEST POP GAS STATICCALL ISZERO DUP1 ISZERO PUSH2 0x19C1 JUMPI RETURNDATASIZE PUSH1 0x0 DUP1 RETURNDATACOPY RETURNDATASIZE PUSH1 0x0 REVERT JUMPDEST POP POP POP POP PUSH1 0x40 MLOAD RETURNDATASIZE PUSH1 0x1F NOT PUSH1 0x1F DUP3 ADD AND DUP3 ADD DUP1 PUSH1 0x40 MSTORE POP DUP2 ADD SWAP1 PUSH2 0x19E5 SWAP2 SWAP1 PUSH2 0x322D JUMP JUMPDEST DUP2 PUSH1 0xC ADD PUSH1 0x2 ADD PUSH1 0x0 DUP3 DUP3 SLOAD PUSH2 0x19FB SWAP2 SWAP1 PUSH2 0x3EBB JUMP JUMPDEST SWAP3 POP POP DUP2 SWAP1 SSTORE POP PUSH2 0x1AD0 JUMP JUMPDEST PUSH1 0x3 PUSH1 0x0 SWAP1 SLOAD SWAP1 PUSH2 0x100 EXP SWAP1 DIV PUSH20 0xFFFFFFFFFFFFFFFFFFFFFFFFFFFFFFFFFFFFFFFF AND PUSH20 0xFFFFFFFFFFFFFFFFFFFFFFFFFFFFFFFFFFFFFFFF AND PUSH4 0x70A08231 CALLER PUSH1 0x40 MLOAD DUP3 PUSH4 0xFFFFFFFF AND PUSH1 0xE0 SHL DUP2 MSTORE PUSH1 0x4 ADD PUSH2 0x1A62 SWAP2 SWAP1 PUSH2 0x39FD JUMP JUMPDEST PUSH1 0x20 PUSH1 0x40 MLOAD DUP1 DUP4 SUB DUP2 DUP7 DUP1 EXTCODESIZE ISZERO DUP1 ISZERO PUSH2 0x1A7A JUMPI PUSH1 0x0 DUP1 REVERT JUMPDEST POP GAS STATICCALL ISZERO DUP1 ISZERO PUSH2 0x1A8E JUMPI RETURNDATASIZE PUSH1 0x0 DUP1 RETURNDATACOPY RETURNDATASIZE PUSH1 0x0 REVERT JUMPDEST POP POP POP POP PUSH1 0x40 MLOAD RETURNDATASIZE PUSH1 0x1F NOT PUSH1 0x1F DUP3 ADD AND DUP3 ADD DUP1 PUSH1 0x40 MSTORE POP DUP2 ADD SWAP1 PUSH2 0x1AB2 SWAP2 SWAP1 PUSH2 0x322D JUMP JUMPDEST DUP2 PUSH1 0xC ADD PUSH1 0x3 ADD PUSH1 0x0 DUP3 DUP3 SLOAD PUSH2 0x1AC8 SWAP2 SWAP1 PUSH2 0x3EBB JUMP JUMPDEST SWAP3 POP POP DUP2 SWAP1 SSTORE POP JUMPDEST JUMPDEST DUP4 PUSH32 0x72869AFC3552DF414602B428F5E96B4EB3FAB540271192C4F31EB3ADAF5FAF1E DUP5 PUSH1 0x40 MLOAD PUSH2 0x1B01 SWAP2 SWAP1 PUSH2 0x3A3A JUMP JUMPDEST PUSH1 0x40 MLOAD DUP1 SWAP2 SUB SWAP1 LOG2 POP POP POP POP JUMP JUMPDEST PUSH1 0x1 SLOAD DUP2 JUMP JUMPDEST PUSH1 0x0 DUP1 PUSH1 0x0 DUP1 PUSH1 0x0 DUP1 PUSH1 0x7 PUSH1 0x0 DUP9 DUP2 MSTORE PUSH1 0x20 ADD SWAP1 DUP2 MSTORE PUSH1 0x20 ADD PUSH1 0x0 KECCAK256 SWAP1 POP DUP1 PUSH1 0x6 ADD SLOAD SWAP6 POP DUP1 PUSH1 0x7 ADD SLOAD SWAP5 POP DUP1 PUSH1 0xC ADD PUSH1 0x2 ADD SLOAD SWAP4 POP DUP1 PUSH1 0xC ADD PUSH1 0x3 ADD SLOAD SWAP3 POP DUP1 PUSH1 0x2 ADD SLOAD SWAP2 POP POP SWAP2 SWAP4 SWAP6 SWAP1 SWAP3 SWAP5 POP JUMP JUMPDEST PUSH1 0x0 SLOAD DUP2 JUMP JUMPDEST PUSH1 0x0 DUP1 PUSH1 0x7 PUSH1 0x0 DUP5 DUP2 MSTORE PUSH1 0x20 ADD SWAP1 DUP2 MSTORE PUSH1 0x20 ADD PUSH1 0x0 KECCAK256 SWAP1 POP DUP1 PUSH1 0x8 ADD PUSH1 0x0 SWAP1 SLOAD SWAP1 PUSH2 0x100 EXP SWAP1 DIV PUSH1 0xFF AND PUSH1 0x6 DUP2 GT ISZERO PUSH2 0x1BCE JUMPI PUSH32 0x4E487B7100000000000000000000000000000000000000000000000000000000 PUSH1 0x0 MSTORE PUSH1 0x21 PUSH1 0x4 MSTORE PUSH1 0x24 PUSH1 0x0 REVERT JUMPDEST SWAP2 POP POP SWAP2 SWAP1 POP JUMP JUMPDEST PUSH2 0x1BDE PUSH2 0x2AFB JUMP JUMPDEST PUSH2 0x1C1D JUMPI PUSH1 0x40 MLOAD PUSH32 0x8C379A000000000000000000000000000000000000000000000000000000000 DUP2 MSTORE PUSH1 0x4 ADD PUSH2 0x1C14 SWAP1 PUSH2 0x3C7C JUMP JUMPDEST PUSH1 0x40 MLOAD DUP1 SWAP2 SUB SWAP1 REVERT JUMPDEST PUSH1 0x0 PUSH1 0x8 PUSH1 0x0 PUSH1 0x6 SLOAD DUP2 MSTORE PUSH1 0x20 ADD SWAP1 DUP2 MSTORE PUSH1 0x20 ADD PUSH1 0x0 KECCAK256 SWAP1 POP PUSH1 0x6 SLOAD DUP2 PUSH1 0x0 ADD DUP2 SWAP1 SSTORE POP DUP3 DUP2 PUSH1 0x2 ADD PUSH1 0x0 PUSH2 0x100 EXP DUP2 SLOAD DUP2 PUSH20 0xFFFFFFFFFFFFFFFFFFFFFFFFFFFFFFFFFFFFFFFF MUL NOT AND SWAP1 DUP4 PUSH20 0xFFFFFFFFFFFFFFFFFFFFFFFFFFFFFFFFFFFFFFFF AND MUL OR SWAP1 SSTORE POP DUP2 DUP2 PUSH1 0x3 ADD SWAP1 DUP1 MLOAD SWAP1 PUSH1 0x20 ADD SWAP1 PUSH2 0x1C9C SWAP3 SWAP2 SWAP1 PUSH2 0x2F17 JUMP JUMPDEST POP DUP4 DUP2 PUSH1 0x1 ADD SWAP1 DUP1 MLOAD SWAP1 PUSH1 0x20 ADD SWAP1 PUSH2 0x1CB5 SWAP3 SWAP2 SWAP1 PUSH2 0x2F17 JUMP JUMPDEST POP PUSH1 0x6 PUSH1 0x0 DUP2 SLOAD DUP1 SWAP3 SWAP2 SWAP1 PUSH2 0x1CC9 SWAP1 PUSH2 0x407C JUMP JUMPDEST SWAP2 SWAP1 POP SSTORE POP PUSH32 0x291FB4C9EC38B653E778AAD63D42CE4710DA5B91C49A033BA04963DD409300EB DUP5 DUP5 DUP5 PUSH1 0x40 MLOAD PUSH2 0x1D01 SWAP4 SWAP3 SWAP2 SWAP1 PUSH2 0x3A92 JUMP JUMPDEST PUSH1 0x40 MLOAD DUP1 SWAP2 SUB SWAP1 LOG1 POP POP POP POP JUMP JUMPDEST PUSH1 0x0 DUP1 PUSH1 0x0 PUSH1 0x7 PUSH1 0x0 DUP6 DUP2 MSTORE PUSH1 0x20 ADD SWAP1 DUP2 MSTORE PUSH1 0x20 ADD PUSH1 0x0 KECCAK256 SWAP1 POP TIMESTAMP SWAP3 POP DUP1 PUSH1 0x2 ADD SLOAD SWAP2 POP POP SWAP2 POP SWAP2 JUMP JUMPDEST PUSH1 0x2 PUSH1 0x0 SWAP1 SLOAD SWAP1 PUSH2 0x100 EXP SWAP1 DIV PUSH20 0xFFFFFFFFFFFFFFFFFFFFFFFFFFFFFFFFFFFFFFFF AND DUP2 JUMP JUMPDEST PUSH1 0x0 DUP1 PUSH1 0x3 PUSH1 0x0 SWAP1 SLOAD SWAP1 PUSH2 0x100 EXP SWAP1 DIV PUSH20 0xFFFFFFFFFFFFFFFFFFFFFFFFFFFFFFFFFFFFFFFF AND PUSH20 0xFFFFFFFFFFFFFFFFFFFFFFFFFFFFFFFFFFFFFFFF AND PUSH4 0x18160DDD PUSH1 0x40 MLOAD DUP2 PUSH4 0xFFFFFFFF AND PUSH1 0xE0 SHL DUP2 MSTORE PUSH1 0x4 ADD PUSH1 0x20 PUSH1 0x40 MLOAD DUP1 DUP4 SUB DUP2 DUP7 DUP1 EXTCODESIZE ISZERO DUP1 ISZERO PUSH2 0x1DCA JUMPI PUSH1 0x0 DUP1 REVERT JUMPDEST POP GAS STATICCALL ISZERO DUP1 ISZERO PUSH2 0x1DDE JUMPI RETURNDATASIZE PUSH1 0x0 DUP1 RETURNDATACOPY RETURNDATASIZE PUSH1 0x0 REVERT JUMPDEST POP POP POP POP PUSH1 0x40 MLOAD RETURNDATASIZE PUSH1 0x1F NOT PUSH1 0x1F DUP3 ADD AND DUP3 ADD DUP1 PUSH1 0x40 MSTORE POP DUP2 ADD SWAP1 PUSH2 0x1E02 SWAP2 SWAP1 PUSH2 0x322D JUMP JUMPDEST EQ ISZERO PUSH2 0x1E43 JUMPI PUSH1 0x40 MLOAD PUSH32 0x8C379A000000000000000000000000000000000000000000000000000000000 DUP2 MSTORE PUSH1 0x4 ADD PUSH2 0x1E3A SWAP1 PUSH2 0x3CDC JUMP JUMPDEST PUSH1 0x40 MLOAD DUP1 SWAP2 SUB SWAP1 REVERT JUMPDEST PUSH1 0x0 PUSH1 0x64 PUSH1 0xA SLOAD PUSH1 0x3 PUSH1 0x0 SWAP1 SLOAD SWAP1 PUSH2 0x100 EXP SWAP1 DIV PUSH20 0xFFFFFFFFFFFFFFFFFFFFFFFFFFFFFFFFFFFFFFFF AND PUSH20 0xFFFFFFFFFFFFFFFFFFFFFFFFFFFFFFFFFFFFFFFF AND PUSH4 0x18160DDD PUSH1 0x40 MLOAD DUP2 PUSH4 0xFFFFFFFF AND PUSH1 0xE0 SHL DUP2 MSTORE PUSH1 0x4 ADD PUSH1 0x20 PUSH1 0x40 MLOAD DUP1 DUP4 SUB DUP2 DUP7 DUP1 EXTCODESIZE ISZERO DUP1 ISZERO PUSH2 0x1EB2 JUMPI PUSH1 0x0 DUP1 REVERT JUMPDEST POP GAS STATICCALL ISZERO DUP1 ISZERO PUSH2 0x1EC6 JUMPI RETURNDATASIZE PUSH1 0x0 DUP1 RETURNDATACOPY RETURNDATASIZE PUSH1 0x0 REVERT JUMPDEST POP POP POP POP PUSH1 0x40 MLOAD RETURNDATASIZE PUSH1 0x1F NOT PUSH1 0x1F DUP3 ADD AND DUP3 ADD DUP1 PUSH1 0x40 MSTORE POP DUP2 ADD SWAP1 PUSH2 0x1EEA SWAP2 SWAP1 PUSH2 0x322D JUMP JUMPDEST PUSH2 0x1EF4 SWAP2 SWAP1 PUSH2 0x3F42 JUMP JUMPDEST PUSH2 0x1EFE SWAP2 SWAP1 PUSH2 0x3F11 JUMP JUMPDEST SWAP1 POP DUP1 PUSH1 0x3 PUSH1 0x0 SWAP1 SLOAD SWAP1 PUSH2 0x100 EXP SWAP1 DIV PUSH20 0xFFFFFFFFFFFFFFFFFFFFFFFFFFFFFFFFFFFFFFFF AND PUSH20 0xFFFFFFFFFFFFFFFFFFFFFFFFFFFFFFFFFFFFFFFF AND PUSH4 0x70A08231 CALLER PUSH1 0x40 MLOAD DUP3 PUSH4 0xFFFFFFFF AND PUSH1 0xE0 SHL DUP2 MSTORE PUSH1 0x4 ADD PUSH2 0x1F5C SWAP2 SWAP1 PUSH2 0x39FD JUMP JUMPDEST PUSH1 0x20 PUSH1 0x40 MLOAD DUP1 DUP4 SUB DUP2 DUP7 DUP1 EXTCODESIZE ISZERO DUP1 ISZERO PUSH2 0x1F74 JUMPI PUSH1 0x0 DUP1 REVERT JUMPDEST POP GAS STATICCALL ISZERO DUP1 ISZERO PUSH2 0x1F88 JUMPI RETURNDATASIZE PUSH1 0x0 DUP1 RETURNDATACOPY RETURNDATASIZE PUSH1 0x0 REVERT JUMPDEST POP POP POP POP PUSH1 0x40 MLOAD RETURNDATASIZE PUSH1 0x1F NOT PUSH1 0x1F DUP3 ADD AND DUP3 ADD DUP1 PUSH1 0x40 MSTORE POP DUP2 ADD SWAP1 PUSH2 0x1FAC SWAP2 SWAP1 PUSH2 0x322D JUMP JUMPDEST LT ISZERO PUSH2 0x1FED JUMPI PUSH1 0x40 MLOAD PUSH32 0x8C379A000000000000000000000000000000000000000000000000000000000 DUP2 MSTORE PUSH1 0x4 ADD PUSH2 0x1FE4 SWAP1 PUSH2 0x3BDC JUMP JUMPDEST PUSH1 0x40 MLOAD DUP1 SWAP2 SUB SWAP1 REVERT JUMPDEST PUSH1 0x4 PUSH1 0x0 DUP2 SLOAD DUP1 SWAP3 SWAP2 SWAP1 PUSH2 0x2000 SWAP1 PUSH2 0x407C JUMP JUMPDEST SWAP2 SWAP1 POP SSTORE POP PUSH1 0x0 PUSH1 0x7 PUSH1 0x0 PUSH1 0x4 SLOAD DUP2 MSTORE PUSH1 0x20 ADD SWAP1 DUP2 MSTORE PUSH1 0x20 ADD PUSH1 0x0 KECCAK256 SWAP1 POP DUP2 DUP2 PUSH1 0x0 ADD DUP2 SWAP1 SSTORE POP DUP7 DUP2 PUSH1 0x3 ADD SWAP1 DUP1 MLOAD SWAP1 PUSH1 0x20 ADD SWAP1 PUSH2 0x203F SWAP3 SWAP2 SWAP1 PUSH2 0x2F17 JUMP JUMPDEST POP PUSH1 0x4 SLOAD DUP2 PUSH1 0x1 ADD DUP2 SWAP1 SSTORE POP PUSH1 0x0 SLOAD TIMESTAMP PUSH2 0x2059 SWAP2 SWAP1 PUSH2 0x3EBB JUMP JUMPDEST DUP2 PUSH1 0x2 ADD DUP2 SWAP1 SSTORE POP CALLER DUP2 PUSH1 0x4 ADD PUSH1 0x0 PUSH2 0x100 EXP DUP2 SLOAD DUP2 PUSH20 0xFFFFFFFFFFFFFFFFFFFFFFFFFFFFFFFFFFFFFFFF MUL NOT AND SWAP1 DUP4 PUSH20 0xFFFFFFFFFFFFFFFFFFFFFFFFFFFFFFFFFFFFFFFF AND MUL OR SWAP1 SSTORE POP DUP6 DUP2 PUSH1 0x5 ADD SWAP1 DUP1 MLOAD SWAP1 PUSH1 0x20 ADD SWAP1 PUSH2 0x20BC SWAP3 SWAP2 SWAP1 PUSH2 0x2F17 JUMP JUMPDEST POP PUSH1 0x1 DUP2 PUSH1 0x8 ADD PUSH1 0x0 PUSH2 0x100 EXP DUP2 SLOAD DUP2 PUSH1 0xFF MUL NOT AND SWAP1 DUP4 PUSH1 0x6 DUP2 GT ISZERO PUSH2 0x210B JUMPI PUSH32 0x4E487B7100000000000000000000000000000000000000000000000000000000 PUSH1 0x0 MSTORE PUSH1 0x21 PUSH1 0x4 MSTORE PUSH1 0x24 PUSH1 0x0 REVERT JUMPDEST MUL OR SWAP1 SSTORE POP DUP5 DUP2 PUSH1 0x9 ADD DUP2 SWAP1 SSTORE POP DUP4 DUP2 PUSH1 0xA ADD DUP2 SWAP1 SSTORE POP DUP6 PUSH1 0x40 MLOAD PUSH2 0x2130 SWAP2 SWAP1 PUSH2 0x39E6 JUMP JUMPDEST PUSH1 0x40 MLOAD DUP1 SWAP2 SUB SWAP1 KECCAK256 DUP8 PUSH1 0x40 MLOAD PUSH2 0x2146 SWAP2 SWAP1 PUSH2 0x39E6 JUMP JUMPDEST PUSH1 0x40 MLOAD DUP1 SWAP2 SUB SWAP1 KECCAK256 PUSH1 0x4 SLOAD PUSH32 0x2042799F2E1D3FCFC7C7E9DD101B3430C99AA621240EA8FDEAC79AD1C973888E DUP9 DUP9 PUSH1 0x40 MLOAD PUSH2 0x2182 SWAP3 SWAP2 SWAP1 PUSH2 0x3D57 JUMP JUMPDEST PUSH1 0x40 MLOAD DUP1 SWAP2 SUB SWAP1 LOG4 PUSH1 0x4 SLOAD SWAP3 POP POP POP SWAP5 SWAP4 POP POP POP POP JUMP JUMPDEST PUSH1 0x0 PUSH1 0x7 PUSH1 0x0 DUP5 DUP2 MSTORE PUSH1 0x20 ADD SWAP1 DUP2 MSTORE PUSH1 0x20 ADD PUSH1 0x0 KECCAK256 SWAP1 POP DUP1 PUSH1 0xB ADD PUSH1 0x0 CALLER PUSH20 0xFFFFFFFFFFFFFFFFFFFFFFFFFFFFFFFFFFFFFFFF AND PUSH20 0xFFFFFFFFFFFFFFFFFFFFFFFFFFFFFFFFFFFFFFFF AND DUP2 MSTORE PUSH1 0x20 ADD SWAP1 DUP2 MSTORE PUSH1 0x20 ADD PUSH1 0x0 KECCAK256 PUSH1 0x0 ADD PUSH1 0x0 SWAP1 SLOAD SWAP1 PUSH2 0x100 EXP SWAP1 DIV PUSH1 0xFF AND ISZERO PUSH2 0x2242 JUMPI PUSH1 0x40 MLOAD PUSH32 0x8C379A000000000000000000000000000000000000000000000000000000000 DUP2 MSTORE PUSH1 0x4 ADD PUSH2 0x2239 SWAP1 PUSH2 0x3C3C JUMP JUMPDEST PUSH1 0x40 MLOAD DUP1 SWAP2 SUB SWAP1 REVERT JUMPDEST CALLER PUSH20 0xFFFFFFFFFFFFFFFFFFFFFFFFFFFFFFFFFFFFFFFF AND DUP3 PUSH20 0xFFFFFFFFFFFFFFFFFFFFFFFFFFFFFFFFFFFFFFFF AND EQ ISZERO PUSH2 0x22B1 JUMPI PUSH1 0x40 MLOAD PUSH32 0x8C379A000000000000000000000000000000000000000000000000000000000 DUP2 MSTORE PUSH1 0x4 ADD PUSH2 0x22A8 SWAP1 PUSH2 0x3B5C JUMP JUMPDEST PUSH1 0x40 MLOAD DUP1 SWAP2 SUB SWAP1 REVERT JUMPDEST PUSH1 0x0 PUSH1 0x3 PUSH1 0x0 SWAP1 SLOAD SWAP1 PUSH2 0x100 EXP SWAP1 DIV PUSH20 0xFFFFFFFFFFFFFFFFFFFFFFFFFFFFFFFFFFFFFFFF AND PUSH20 0xFFFFFFFFFFFFFFFFFFFFFFFFFFFFFFFFFFFFFFFF AND PUSH4 0x70A08231 CALLER PUSH1 0x40 MLOAD DUP3 PUSH4 0xFFFFFFFF AND PUSH1 0xE0 SHL DUP2 MSTORE PUSH1 0x4 ADD PUSH2 0x230E SWAP2 SWAP1 PUSH2 0x39FD JUMP JUMPDEST PUSH1 0x20 PUSH1 0x40 MLOAD DUP1 DUP4 SUB DUP2 DUP7 DUP1 EXTCODESIZE ISZERO DUP1 ISZERO PUSH2 0x2326 JUMPI PUSH1 0x0 DUP1 REVERT JUMPDEST POP GAS STATICCALL ISZERO DUP1 ISZERO PUSH2 0x233A JUMPI RETURNDATASIZE PUSH1 0x0 DUP1 RETURNDATACOPY RETURNDATASIZE PUSH1 0x0 REVERT JUMPDEST POP POP POP POP PUSH1 0x40 MLOAD RETURNDATASIZE PUSH1 0x1F NOT PUSH1 0x1F DUP3 ADD AND DUP3 ADD DUP1 PUSH1 0x40 MSTORE POP DUP2 ADD SWAP1 PUSH2 0x235E SWAP2 SWAP1 PUSH2 0x322D JUMP JUMPDEST GT PUSH2 0x239E JUMPI PUSH1 0x40 MLOAD PUSH32 0x8C379A000000000000000000000000000000000000000000000000000000000 DUP2 MSTORE PUSH1 0x4 ADD PUSH2 0x2395 SWAP1 PUSH2 0x3CBC JUMP JUMPDEST PUSH1 0x40 MLOAD DUP1 SWAP2 SUB SWAP1 REVERT JUMPDEST DUP1 PUSH1 0xB ADD PUSH1 0x0 DUP4 PUSH20 0xFFFFFFFFFFFFFFFFFFFFFFFFFFFFFFFFFFFFFFFF AND PUSH20 0xFFFFFFFFFFFFFFFFFFFFFFFFFFFFFFFFFFFFFFFF AND DUP2 MSTORE PUSH1 0x20 ADD SWAP1 DUP2 MSTORE PUSH1 0x20 ADD PUSH1 0x0 KECCAK256 PUSH1 0x1 ADD CALLER SWAP1 DUP1 PUSH1 0x1 DUP2 SLOAD ADD DUP1 DUP3 SSTORE DUP1 SWAP2 POP POP PUSH1 0x1 SWAP1 SUB SWAP1 PUSH1 0x0 MSTORE PUSH1 0x20 PUSH1 0x0 KECCAK256 ADD PUSH1 0x0 SWAP1 SWAP2 SWAP1 SWAP2 SWAP1 SWAP2 PUSH2 0x100 EXP DUP2 SLOAD DUP2 PUSH20 0xFFFFFFFFFFFFFFFFFFFFFFFFFFFFFFFFFFFFFFFF MUL NOT AND SWAP1 DUP4 PUSH20 0xFFFFFFFFFFFFFFFFFFFFFFFFFFFFFFFFFFFFFFFF AND MUL OR SWAP1 SSTORE POP PUSH1 0x1 DUP2 PUSH1 0xB ADD PUSH1 0x0 CALLER PUSH20 0xFFFFFFFFFFFFFFFFFFFFFFFFFFFFFFFFFFFFFFFF AND PUSH20 0xFFFFFFFFFFFFFFFFFFFFFFFFFFFFFFFFFFFFFFFF AND DUP2 MSTORE PUSH1 0x20 ADD SWAP1 DUP2 MSTORE PUSH1 0x20 ADD PUSH1 0x0 KECCAK256 PUSH1 0x0 ADD PUSH1 0x0 PUSH2 0x100 EXP DUP2 SLOAD DUP2 PUSH1 0xFF MUL NOT AND SWAP1 DUP4 ISZERO ISZERO MUL OR SWAP1 SSTORE POP DUP1 PUSH1 0xC ADD PUSH1 0x4 ADD PUSH1 0x0 DUP4 PUSH20 0xFFFFFFFFFFFFFFFFFFFFFFFFFFFFFFFFFFFFFFFF AND PUSH20 0xFFFFFFFFFFFFFFFFFFFFFFFFFFFFFFFFFFFFFFFF AND DUP2 MSTORE PUSH1 0x20 ADD SWAP1 DUP2 MSTORE PUSH1 0x20 ADD PUSH1 0x0 KECCAK256 PUSH1 0x1 ADD CALLER SWAP1 DUP1 PUSH1 0x1 DUP2 SLOAD ADD DUP1 DUP3 SSTORE DUP1 SWAP2 POP POP PUSH1 0x1 SWAP1 SUB SWAP1 PUSH1 0x0 MSTORE PUSH1 0x20 PUSH1 0x0 KECCAK256 ADD PUSH1 0x0 SWAP1 SWAP2 SWAP1 SWAP2 SWAP1 SWAP2 PUSH2 0x100 EXP DUP2 SLOAD DUP2 PUSH20 0xFFFFFFFFFFFFFFFFFFFFFFFFFFFFFFFFFFFFFFFF MUL NOT AND SWAP1 DUP4 PUSH20 0xFFFFFFFFFFFFFFFFFFFFFFFFFFFFFFFFFFFFFFFF AND MUL OR SWAP1 SSTORE POP PUSH1 0x1 DUP2 PUSH1 0xC ADD PUSH1 0x4 ADD PUSH1 0x0 CALLER PUSH20 0xFFFFFFFFFFFFFFFFFFFFFFFFFFFFFFFFFFFFFFFF AND PUSH20 0xFFFFFFFFFFFFFFFFFFFFFFFFFFFFFFFFFFFFFFFF AND DUP2 MSTORE PUSH1 0x20 ADD SWAP1 DUP2 MSTORE PUSH1 0x20 ADD PUSH1 0x0 KECCAK256 PUSH1 0x0 ADD PUSH1 0x0 PUSH2 0x100 EXP DUP2 SLOAD DUP2 PUSH1 0xFF MUL NOT AND SWAP1 DUP4 ISZERO ISZERO MUL OR SWAP1 SSTORE POP DUP3 PUSH32 0xA9860E62EB02A47E1D5D5253A79D90BC96CD33C299D874F5B7710D0A61B63CCC DUP4 PUSH1 0x40 MLOAD PUSH2 0x25D8 SWAP2 SWAP1 PUSH2 0x39FD JUMP JUMPDEST PUSH1 0x40 MLOAD DUP1 SWAP2 SUB SWAP1 LOG2 POP POP POP JUMP JUMPDEST PUSH1 0x0 PUSH1 0x7 PUSH1 0x0 DUP4 DUP2 MSTORE PUSH1 0x20 ADD SWAP1 DUP2 MSTORE PUSH1 0x20 ADD PUSH1 0x0 KECCAK256 SWAP1 POP PUSH1 0x9 PUSH1 0x0 DUP4 DUP2 MSTORE PUSH1 0x20 ADD SWAP1 DUP2 MSTORE PUSH1 0x20 ADD PUSH1 0x0 KECCAK256 PUSH1 0x0 SWAP1 SLOAD SWAP1 PUSH2 0x100 EXP SWAP1 DIV PUSH1 0xFF AND ISZERO PUSH2 0x265D JUMPI PUSH1 0x40 MLOAD PUSH32 0x8C379A000000000000000000000000000000000000000000000000000000000 DUP2 MSTORE PUSH1 0x4 ADD PUSH2 0x2654 SWAP1 PUSH2 0x3C1C JUMP JUMPDEST PUSH1 0x40 MLOAD DUP1 SWAP2 SUB SWAP1 REVERT JUMPDEST PUSH1 0x0 PUSH1 0x6 DUP2 GT ISZERO PUSH2 0x2697 JUMPI PUSH32 0x4E487B7100000000000000000000000000000000000000000000000000000000 PUSH1 0x0 MSTORE PUSH1 0x21 PUSH1 0x4 MSTORE PUSH1 0x24 PUSH1 0x0 REVERT JUMPDEST DUP2 PUSH1 0x8 ADD PUSH1 0x0 SWAP1 SLOAD SWAP1 PUSH2 0x100 EXP SWAP1 DIV PUSH1 0xFF AND PUSH1 0x6 DUP2 GT ISZERO PUSH2 0x26E1 JUMPI PUSH32 0x4E487B7100000000000000000000000000000000000000000000000000000000 PUSH1 0x0 MSTORE PUSH1 0x21 PUSH1 0x4 MSTORE PUSH1 0x24 PUSH1 0x0 REVERT JUMPDEST EQ ISZERO PUSH2 0x2722 JUMPI PUSH1 0x40 MLOAD PUSH32 0x8C379A000000000000000000000000000000000000000000000000000000000 DUP2 MSTORE PUSH1 0x4 ADD PUSH2 0x2719 SWAP1 PUSH2 0x3C5C JUMP JUMPDEST PUSH1 0x40 MLOAD DUP1 SWAP2 SUB SWAP1 REVERT JUMPDEST PUSH1 0x1 PUSH1 0x6 DUP2 GT ISZERO PUSH2 0x275C JUMPI PUSH32 0x4E487B7100000000000000000000000000000000000000000000000000000000 PUSH1 0x0 MSTORE PUSH1 0x21 PUSH1 0x4 MSTORE PUSH1 0x24 PUSH1 0x0 REVERT JUMPDEST DUP2 PUSH1 0x8 ADD PUSH1 0x0 SWAP1 SLOAD SWAP1 PUSH2 0x100 EXP SWAP1 DIV PUSH1 0xFF AND PUSH1 0x6 DUP2 GT ISZERO PUSH2 0x27A6 JUMPI PUSH32 0x4E487B7100000000000000000000000000000000000000000000000000000000 PUSH1 0x0 MSTORE PUSH1 0x21 PUSH1 0x4 MSTORE PUSH1 0x24 PUSH1 0x0 REVERT JUMPDEST EQ ISZERO PUSH2 0x2943 JUMPI DUP1 PUSH1 0x2 ADD SLOAD TIMESTAMP GT PUSH2 0x27F2 JUMPI PUSH1 0x40 MLOAD PUSH32 0x8C379A000000000000000000000000000000000000000000000000000000000 DUP2 MSTORE PUSH1 0x4 ADD PUSH2 0x27E9 SWAP1 PUSH2 0x3BFC JUMP JUMPDEST PUSH1 0x40 MLOAD DUP1 SWAP2 SUB SWAP1 REVERT JUMPDEST PUSH2 0x3E8 PUSH2 0x12C DUP3 PUSH1 0x0 ADD SLOAD PUSH2 0x2807 SWAP2 SWAP1 PUSH2 0x3F42 JUMP JUMPDEST PUSH2 0x2811 SWAP2 SWAP1 PUSH2 0x3F11 JUMP JUMPDEST DUP2 PUSH1 0x6 ADD SLOAD DUP3 PUSH1 0x7 ADD SLOAD PUSH2 0x2825 SWAP2 SWAP1 PUSH2 0x3EBB JUMP JUMPDEST LT ISZERO PUSH2 0x2866 JUMPI PUSH1 0x40 MLOAD PUSH32 0x8C379A000000000000000000000000000000000000000000000000000000000 DUP2 MSTORE PUSH1 0x4 ADD PUSH2 0x285D SWAP1 PUSH2 0x3B9C JUMP JUMPDEST PUSH1 0x40 MLOAD DUP1 SWAP2 SUB SWAP1 REVERT JUMPDEST PUSH1 0x3C DUP2 PUSH1 0x6 ADD SLOAD DUP3 PUSH1 0x7 ADD SLOAD PUSH2 0x287C SWAP2 SWAP1 PUSH2 0x3EBB JUMP JUMPDEST PUSH1 0x64 DUP4 PUSH1 0x6 ADD SLOAD PUSH2 0x288D SWAP2 SWAP1 PUSH2 0x3F42 JUMP JUMPDEST PUSH2 0x2897 SWAP2 SWAP1 PUSH2 0x3F11 JUMP JUMPDEST LT ISZERO PUSH2 0x28D8 JUMPI PUSH1 0x40 MLOAD PUSH32 0x8C379A000000000000000000000000000000000000000000000000000000000 DUP2 MSTORE PUSH1 0x4 ADD PUSH2 0x28CF SWAP1 PUSH2 0x3B1C JUMP JUMPDEST PUSH1 0x40 MLOAD DUP1 SWAP2 SUB SWAP1 REVERT JUMPDEST PUSH1 0x2 DUP2 PUSH1 0x8 ADD PUSH1 0x0 PUSH2 0x100 EXP DUP2 SLOAD DUP2 PUSH1 0xFF MUL NOT AND SWAP1 DUP4 PUSH1 0x6 DUP2 GT ISZERO PUSH2 0x2926 JUMPI PUSH32 0x4E487B7100000000000000000000000000000000000000000000000000000000 PUSH1 0x0 MSTORE PUSH1 0x21 PUSH1 0x4 MSTORE PUSH1 0x24 PUSH1 0x0 REVERT JUMPDEST MUL OR SWAP1 SSTORE POP PUSH2 0x293E DUP3 DUP3 PUSH1 0x9 ADD SLOAD DUP4 PUSH1 0xA ADD SLOAD PUSH2 0x2BAD JUMP JUMPDEST PUSH2 0x2ACA JUMP JUMPDEST PUSH1 0x5 PUSH1 0x6 DUP2 GT ISZERO PUSH2 0x297D JUMPI PUSH32 0x4E487B7100000000000000000000000000000000000000000000000000000000 PUSH1 0x0 MSTORE PUSH1 0x21 PUSH1 0x4 MSTORE PUSH1 0x24 PUSH1 0x0 REVERT JUMPDEST DUP2 PUSH1 0x8 ADD PUSH1 0x0 SWAP1 SLOAD SWAP1 PUSH2 0x100 EXP SWAP1 DIV PUSH1 0xFF AND PUSH1 0x6 DUP2 GT ISZERO PUSH2 0x29C7 JUMPI PUSH32 0x4E487B7100000000000000000000000000000000000000000000000000000000 PUSH1 0x0 MSTORE PUSH1 0x21 PUSH1 0x4 MSTORE PUSH1 0x24 PUSH1 0x0 REVERT JUMPDEST EQ ISZERO PUSH2 0x2AC9 JUMPI DUP1 PUSH1 0x2 ADD SLOAD TIMESTAMP LT ISZERO PUSH2 0x2A14 JUMPI PUSH1 0x40 MLOAD PUSH32 0x8C379A000000000000000000000000000000000000000000000000000000000 DUP2 MSTORE PUSH1 0x4 ADD PUSH2 0x2A0B SWAP1 PUSH2 0x3BFC JUMP JUMPDEST PUSH1 0x40 MLOAD DUP1 SWAP2 SUB SWAP1 REVERT JUMPDEST DUP1 PUSH1 0x6 ADD SLOAD DUP2 PUSH1 0xC ADD PUSH1 0x2 ADD SLOAD LT ISZERO PUSH2 0x2A62 JUMPI PUSH1 0x40 MLOAD PUSH32 0x8C379A000000000000000000000000000000000000000000000000000000000 DUP2 MSTORE PUSH1 0x4 ADD PUSH2 0x2A59 SWAP1 PUSH2 0x3BBC JUMP JUMPDEST PUSH1 0x40 MLOAD DUP1 SWAP2 SUB SWAP1 REVERT JUMPDEST PUSH1 0x2 DUP2 PUSH1 0x8 ADD PUSH1 0x0 PUSH2 0x100 EXP DUP2 SLOAD DUP2 PUSH1 0xFF MUL NOT AND SWAP1 DUP4 PUSH1 0x6 DUP2 GT ISZERO PUSH2 0x2AB0 JUMPI PUSH32 0x4E487B7100000000000000000000000000000000000000000000000000000000 PUSH1 0x0 MSTORE PUSH1 0x21 PUSH1 0x4 MSTORE PUSH1 0x24 PUSH1 0x0 REVERT JUMPDEST MUL OR SWAP1 SSTORE POP PUSH2 0x2AC8 DUP3 DUP3 PUSH1 0x9 ADD SLOAD DUP4 PUSH1 0xA ADD SLOAD PUSH2 0x2BAD JUMP JUMPDEST JUMPDEST JUMPDEST DUP2 PUSH32 0xA6B4889FBC6222293F94AC3C68C40FA4C027B86B0DFE4F820475C7D8828A2436 PUSH1 0x40 MLOAD PUSH1 0x40 MLOAD DUP1 SWAP2 SUB SWAP1 LOG2 POP POP JUMP JUMPDEST PUSH1 0x0 PUSH1 0x2 PUSH1 0x0 SWAP1 SLOAD SWAP1 PUSH2 0x100 EXP SWAP1 DIV PUSH20 0xFFFFFFFFFFFFFFFFFFFFFFFFFFFFFFFFFFFFFFFF AND PUSH20 0xFFFFFFFFFFFFFFFFFFFFFFFFFFFFFFFFFFFFFFFF AND PUSH4 0x372C12B1 CALLER PUSH1 0x40 MLOAD DUP3 PUSH4 0xFFFFFFFF AND PUSH1 0xE0 SHL DUP2 MSTORE PUSH1 0x4 ADD PUSH2 0x2B58 SWAP2 SWAP1 PUSH2 0x39FD JUMP JUMPDEST PUSH1 0x20 PUSH1 0x40 MLOAD DUP1 DUP4 SUB DUP2 DUP7 DUP1 EXTCODESIZE ISZERO DUP1 ISZERO PUSH2 0x2B70 JUMPI PUSH1 0x0 DUP1 REVERT JUMPDEST POP GAS STATICCALL ISZERO DUP1 ISZERO PUSH2 0x2B84 JUMPI RETURNDATASIZE PUSH1 0x0 DUP1 RETURNDATACOPY RETURNDATASIZE PUSH1 0x0 REVERT JUMPDEST POP POP POP POP PUSH1 0x40 MLOAD RETURNDATASIZE PUSH1 0x1F NOT PUSH1 0x1F DUP3 ADD AND DUP3 ADD DUP1 PUSH1 0x40 MSTORE POP DUP2 ADD SWAP1 PUSH2 0x2BA8 SWAP2 SWAP1 PUSH2 0x30C9 JUMP JUMPDEST SWAP1 POP SWAP1 JUMP JUMPDEST PUSH1 0x0 PUSH1 0x8 PUSH1 0x0 DUP5 DUP2 MSTORE PUSH1 0x20 ADD SWAP1 DUP2 MSTORE PUSH1 0x20 ADD PUSH1 0x0 KECCAK256 PUSH1 0x2 ADD PUSH1 0x0 SWAP1 SLOAD SWAP1 PUSH2 0x100 EXP SWAP1 DIV PUSH20 0xFFFFFFFFFFFFFFFFFFFFFFFFFFFFFFFFFFFFFFFF AND SWAP1 POP PUSH1 0x0 PUSH20 0xFFFFFFFFFFFFFFFFFFFFFFFFFFFFFFFFFFFFFFFF AND DUP2 PUSH20 0xFFFFFFFFFFFFFFFFFFFFFFFFFFFFFFFFFFFFFFFF AND EQ ISZERO PUSH2 0x2C58 JUMPI PUSH1 0x40 MLOAD PUSH32 0x8C379A000000000000000000000000000000000000000000000000000000000 DUP2 MSTORE PUSH1 0x4 ADD PUSH2 0x2C4F SWAP1 PUSH2 0x3B7C JUMP JUMPDEST PUSH1 0x40 MLOAD DUP1 SWAP2 SUB SWAP1 REVERT JUMPDEST PUSH1 0x5 DUP5 SWAP1 DUP1 PUSH1 0x1 DUP2 SLOAD ADD DUP1 DUP3 SSTORE DUP1 SWAP2 POP POP PUSH1 0x1 SWAP1 SUB SWAP1 PUSH1 0x0 MSTORE PUSH1 0x20 PUSH1 0x0 KECCAK256 ADD PUSH1 0x0 SWAP1 SWAP2 SWAP1 SWAP2 SWAP1 SWAP2 POP SSTORE PUSH1 0x1 PUSH1 0x9 PUSH1 0x0 DUP7 DUP2 MSTORE PUSH1 0x20 ADD SWAP1 DUP2 MSTORE PUSH1 0x20 ADD PUSH1 0x0 KECCAK256 PUSH1 0x0 PUSH2 0x100 EXP DUP2 SLOAD DUP2 PUSH1 0xFF MUL NOT AND SWAP1 DUP4 ISZERO ISZERO MUL OR SWAP1 SSTORE POP PUSH2 0x2CB7 DUP4 DUP4 PUSH2 0x2CBD JUMP JUMPDEST POP POP POP POP JUMP JUMPDEST PUSH1 0x0 PUSH1 0x8 PUSH1 0x0 DUP5 DUP2 MSTORE PUSH1 0x20 ADD SWAP1 DUP2 MSTORE PUSH1 0x20 ADD PUSH1 0x0 KECCAK256 PUSH1 0x2 ADD PUSH1 0x0 SWAP1 SLOAD SWAP1 PUSH2 0x100 EXP SWAP1 DIV PUSH20 0xFFFFFFFFFFFFFFFFFFFFFFFFFFFFFFFFFFFFFFFF AND SWAP1 POP PUSH1 0x0 PUSH1 0x8 PUSH1 0x0 DUP6 DUP2 MSTORE PUSH1 0x20 ADD SWAP1 DUP2 MSTORE PUSH1 0x20 ADD PUSH1 0x0 KECCAK256 PUSH1 0x3 ADD DUP1 SLOAD PUSH2 0x2D1B SWAP1 PUSH2 0x404A JUMP JUMPDEST DUP1 PUSH1 0x1F ADD PUSH1 0x20 DUP1 SWAP2 DIV MUL PUSH1 0x20 ADD PUSH1 0x40 MLOAD SWAP1 DUP2 ADD PUSH1 0x40 MSTORE DUP1 SWAP3 SWAP2 SWAP1 DUP2 DUP2 MSTORE PUSH1 0x20 ADD DUP3 DUP1 SLOAD PUSH2 0x2D47 SWAP1 PUSH2 0x404A JUMP JUMPDEST DUP1 ISZERO PUSH2 0x2D94 JUMPI DUP1 PUSH1 0x1F LT PUSH2 0x2D69 JUMPI PUSH2 0x100 DUP1 DUP4 SLOAD DIV MUL DUP4 MSTORE SWAP2 PUSH1 0x20 ADD SWAP2 PUSH2 0x2D94 JUMP JUMPDEST DUP3 ADD SWAP2 SWAP1 PUSH1 0x0 MSTORE PUSH1 0x20 PUSH1 0x0 KECCAK256 SWAP1 JUMPDEST DUP2 SLOAD DUP2 MSTORE SWAP1 PUSH1 0x1 ADD SWAP1 PUSH1 0x20 ADD DUP1 DUP4 GT PUSH2 0x2D77 JUMPI DUP3 SWAP1 SUB PUSH1 0x1F AND DUP3 ADD SWAP2 JUMPDEST POP POP POP POP POP SWAP1 POP PUSH1 0x0 DUP1 DUP4 PUSH20 0xFFFFFFFFFFFFFFFFFFFFFFFFFFFFFFFFFFFFFFFF AND DUP4 DUP7 PUSH1 0x40 MLOAD PUSH1 0x24 ADD PUSH2 0x2DC7 SWAP2 SWAP1 PUSH2 0x3D3C JUMP JUMPDEST PUSH1 0x40 MLOAD PUSH1 0x20 DUP2 DUP4 SUB SUB DUP2 MSTORE SWAP1 PUSH1 0x40 MSTORE SWAP1 PUSH1 0x40 MLOAD PUSH2 0x2DE4 SWAP2 SWAP1 PUSH2 0x39E6 JUMP JUMPDEST PUSH1 0x40 MLOAD DUP1 SWAP2 SUB SWAP1 KECCAK256 PUSH28 0xFFFFFFFFFFFFFFFFFFFFFFFFFFFFFFFFFFFFFFFFFFFFFFFFFFFFFFFF NOT AND PUSH1 0x20 DUP3 ADD DUP1 MLOAD PUSH28 0xFFFFFFFFFFFFFFFFFFFFFFFFFFFFFFFFFFFFFFFFFFFFFFFFFFFFFFFF DUP4 DUP2 DUP4 AND OR DUP4 MSTORE POP POP POP POP PUSH1 0x40 MLOAD PUSH2 0x2E46 SWAP2 SWAP1 PUSH2 0x39CF JUMP JUMPDEST PUSH1 0x0 PUSH1 0x40 MLOAD DUP1 DUP4 SUB DUP2 PUSH1 0x0 DUP7 GAS CALL SWAP2 POP POP RETURNDATASIZE DUP1 PUSH1 0x0 DUP2 EQ PUSH2 0x2E83 JUMPI PUSH1 0x40 MLOAD SWAP2 POP PUSH1 0x1F NOT PUSH1 0x3F RETURNDATASIZE ADD AND DUP3 ADD PUSH1 0x40 MSTORE RETURNDATASIZE DUP3 MSTORE RETURNDATASIZE PUSH1 0x0 PUSH1 0x20 DUP5 ADD RETURNDATACOPY PUSH2 0x2E88 JUMP JUMPDEST PUSH1 0x60 SWAP2 POP JUMPDEST POP SWAP2 POP SWAP2 POP DUP2 DUP2 SWAP1 PUSH2 0x2ED0 JUMPI PUSH1 0x40 MLOAD PUSH32 0x8C379A000000000000000000000000000000000000000000000000000000000 DUP2 MSTORE PUSH1 0x4 ADD PUSH2 0x2EC7 SWAP2 SWAP1 PUSH2 0x3A70 JUMP JUMPDEST PUSH1 0x40 MLOAD DUP1 SWAP2 SUB SWAP1 REVERT JUMPDEST POP POP POP POP POP POP POP JUMP JUMPDEST PUSH1 0x40 MLOAD DUP1 PUSH1 0x80 ADD PUSH1 0x40 MSTORE DUP1 PUSH1 0x0 DUP2 MSTORE PUSH1 0x20 ADD PUSH1 0x60 DUP2 MSTORE PUSH1 0x20 ADD PUSH1 0x0 PUSH20 0xFFFFFFFFFFFFFFFFFFFFFFFFFFFFFFFFFFFFFFFF AND DUP2 MSTORE PUSH1 0x20 ADD PUSH1 0x60 DUP2 MSTORE POP SWAP1 JUMP JUMPDEST DUP3 DUP1 SLOAD PUSH2 0x2F23 SWAP1 PUSH2 0x404A JUMP JUMPDEST SWAP1 PUSH1 0x0 MSTORE PUSH1 0x20 PUSH1 0x0 KECCAK256 SWAP1 PUSH1 0x1F ADD PUSH1 0x20 SWAP1 DIV DUP2 ADD SWAP3 DUP3 PUSH2 0x2F45 JUMPI PUSH1 0x0 DUP6 SSTORE PUSH2 0x2F8C JUMP JUMPDEST DUP3 PUSH1 0x1F LT PUSH2 0x2F5E JUMPI DUP1 MLOAD PUSH1 0xFF NOT AND DUP4 DUP1 ADD OR DUP6 SSTORE PUSH2 0x2F8C JUMP JUMPDEST DUP3 DUP1 ADD PUSH1 0x1 ADD DUP6 SSTORE DUP3 ISZERO PUSH2 0x2F8C JUMPI SWAP2 DUP3 ADD JUMPDEST DUP3 DUP2 GT ISZERO PUSH2 0x2F8B JUMPI DUP3 MLOAD DUP3 SSTORE SWAP2 PUSH1 0x20 ADD SWAP2 SWAP1 PUSH1 0x1 ADD SWAP1 PUSH2 0x2F70 JUMP JUMPDEST JUMPDEST POP SWAP1 POP PUSH2 0x2F99 SWAP2 SWAP1 PUSH2 0x2F9D JUMP JUMPDEST POP SWAP1 JUMP JUMPDEST JUMPDEST DUP1 DUP3 GT ISZERO PUSH2 0x2FB6 JUMPI PUSH1 0x0 DUP2 PUSH1 0x0 SWAP1 SSTORE POP PUSH1 0x1 ADD PUSH2 0x2F9E JUMP JUMPDEST POP SWAP1 JUMP JUMPDEST PUSH1 0x0 PUSH2 0x2FCD PUSH2 0x2FC8 DUP5 PUSH2 0x3E04 JUMP JUMPDEST PUSH2 0x3DD3 JUMP JUMPDEST SWAP1 POP DUP3 DUP2 MSTORE PUSH1 0x20 DUP2 ADD DUP5 DUP5 DUP5 ADD GT ISZERO PUSH2 0x2FE5 JUMPI PUSH1 0x0 DUP1 REVERT JUMPDEST PUSH2 0x2FF0 DUP5 DUP3 DUP6 PUSH2 0x4008 JUMP JUMPDEST POP SWAP4 SWAP3 POP POP POP JUMP JUMPDEST PUSH1 0x0 DUP2 CALLDATALOAD SWAP1 POP PUSH2 0x3007 DUP2 PUSH2 0x4192 JUMP JUMPDEST SWAP3 SWAP2 POP POP JUMP JUMPDEST PUSH1 0x0 DUP2 MLOAD SWAP1 POP PUSH2 0x301C DUP2 PUSH2 0x4192 JUMP JUMPDEST SWAP3 SWAP2 POP POP JUMP JUMPDEST PUSH1 0x0 DUP2 CALLDATALOAD SWAP1 POP PUSH2 0x3031 DUP2 PUSH2 0x41A9 JUMP JUMPDEST SWAP3 SWAP2 POP POP JUMP JUMPDEST PUSH1 0x0 DUP2 MLOAD SWAP1 POP PUSH2 0x3046 DUP2 PUSH2 0x41A9 JUMP JUMPDEST SWAP3 SWAP2 POP POP JUMP JUMPDEST PUSH1 0x0 DUP3 PUSH1 0x1F DUP4 ADD SLT PUSH2 0x305D JUMPI PUSH1 0x0 DUP1 REVERT JUMPDEST DUP2 CALLDATALOAD PUSH2 0x306D DUP5 DUP3 PUSH1 0x20 DUP7 ADD PUSH2 0x2FBA JUMP JUMPDEST SWAP2 POP POP SWAP3 SWAP2 POP POP JUMP JUMPDEST PUSH1 0x0 DUP2 CALLDATALOAD SWAP1 POP PUSH2 0x3085 DUP2 PUSH2 0x41C0 JUMP JUMPDEST SWAP3 SWAP2 POP POP JUMP JUMPDEST PUSH1 0x0 DUP2 MLOAD SWAP1 POP PUSH2 0x309A DUP2 PUSH2 0x41C0 JUMP JUMPDEST SWAP3 SWAP2 POP POP JUMP JUMPDEST PUSH1 0x0 PUSH1 0x20 DUP3 DUP5 SUB SLT ISZERO PUSH2 0x30B2 JUMPI PUSH1 0x0 DUP1 REVERT JUMPDEST PUSH1 0x0 PUSH2 0x30C0 DUP5 DUP3 DUP6 ADD PUSH2 0x300D JUMP JUMPDEST SWAP2 POP POP SWAP3 SWAP2 POP POP JUMP JUMPDEST PUSH1 0x0 PUSH1 0x20 DUP3 DUP5 SUB SLT ISZERO PUSH2 0x30DB JUMPI PUSH1 0x0 DUP1 REVERT JUMPDEST PUSH1 0x0 PUSH2 0x30E9 DUP5 DUP3 DUP6 ADD PUSH2 0x3037 JUMP JUMPDEST SWAP2 POP POP SWAP3 SWAP2 POP POP JUMP JUMPDEST PUSH1 0x0 DUP1 PUSH1 0x0 PUSH1 0x60 DUP5 DUP7 SUB SLT ISZERO PUSH2 0x3107 JUMPI PUSH1 0x0 DUP1 REVERT JUMPDEST PUSH1 0x0 DUP5 ADD CALLDATALOAD PUSH8 0xFFFFFFFFFFFFFFFF DUP2 GT ISZERO PUSH2 0x3121 JUMPI PUSH1 0x0 DUP1 REVERT JUMPDEST PUSH2 0x312D DUP7 DUP3 DUP8 ADD PUSH2 0x304C JUMP JUMPDEST SWAP4 POP POP PUSH1 0x20 PUSH2 0x313E DUP7 DUP3 DUP8 ADD PUSH2 0x2FF8 JUMP JUMPDEST SWAP3 POP POP PUSH1 0x40 DUP5 ADD CALLDATALOAD PUSH8 0xFFFFFFFFFFFFFFFF DUP2 GT ISZERO PUSH2 0x315B JUMPI PUSH1 0x0 DUP1 REVERT JUMPDEST PUSH2 0x3167 DUP7 DUP3 DUP8 ADD PUSH2 0x304C JUMP JUMPDEST SWAP2 POP POP SWAP3 POP SWAP3 POP SWAP3 JUMP JUMPDEST PUSH1 0x0 DUP1 PUSH1 0x0 DUP1 PUSH1 0x80 DUP6 DUP8 SUB SLT ISZERO PUSH2 0x3187 JUMPI PUSH1 0x0 DUP1 REVERT JUMPDEST PUSH1 0x0 DUP6 ADD CALLDATALOAD PUSH8 0xFFFFFFFFFFFFFFFF DUP2 GT ISZERO PUSH2 0x31A1 JUMPI PUSH1 0x0 DUP1 REVERT JUMPDEST PUSH2 0x31AD DUP8 DUP3 DUP9 ADD PUSH2 0x304C JUMP JUMPDEST SWAP5 POP POP PUSH1 0x20 DUP6 ADD CALLDATALOAD PUSH8 0xFFFFFFFFFFFFFFFF DUP2 GT ISZERO PUSH2 0x31CA JUMPI PUSH1 0x0 DUP1 REVERT JUMPDEST PUSH2 0x31D6 DUP8 DUP3 DUP9 ADD PUSH2 0x304C JUMP JUMPDEST SWAP4 POP POP PUSH1 0x40 PUSH2 0x31E7 DUP8 DUP3 DUP9 ADD PUSH2 0x3076 JUMP JUMPDEST SWAP3 POP POP PUSH1 0x60 PUSH2 0x31F8 DUP8 DUP3 DUP9 ADD PUSH2 0x3076 JUMP JUMPDEST SWAP2 POP POP SWAP3 SWAP6 SWAP2 SWAP5 POP SWAP3 POP JUMP JUMPDEST PUSH1 0x0 PUSH1 0x20 DUP3 DUP5 SUB SLT ISZERO PUSH2 0x3216 JUMPI PUSH1 0x0 DUP1 REVERT JUMPDEST PUSH1 0x0 PUSH2 0x3224 DUP5 DUP3 DUP6 ADD PUSH2 0x3076 JUMP JUMPDEST SWAP2 POP POP SWAP3 SWAP2 POP POP JUMP JUMPDEST PUSH1 0x0 PUSH1 0x20 DUP3 DUP5 SUB SLT ISZERO PUSH2 0x323F JUMPI PUSH1 0x0 DUP1 REVERT JUMPDEST PUSH1 0x0 PUSH2 0x324D DUP5 DUP3 DUP6 ADD PUSH2 0x308B JUMP JUMPDEST SWAP2 POP POP SWAP3 SWAP2 POP POP JUMP JUMPDEST PUSH1 0x0 DUP1 PUSH1 0x40 DUP4 DUP6 SUB SLT ISZERO PUSH2 0x3269 JUMPI PUSH1 0x0 DUP1 REVERT JUMPDEST PUSH1 0x0 PUSH2 0x3277 DUP6 DUP3 DUP7 ADD PUSH2 0x3076 JUMP JUMPDEST SWAP3 POP POP PUSH1 0x20 PUSH2 0x3288 DUP6 DUP3 DUP7 ADD PUSH2 0x2FF8 JUMP JUMPDEST SWAP2 POP POP SWAP3 POP SWAP3 SWAP1 POP JUMP JUMPDEST PUSH1 0x0 DUP1 PUSH1 0x40 DUP4 DUP6 SUB SLT ISZERO PUSH2 0x32A5 JUMPI PUSH1 0x0 DUP1 REVERT JUMPDEST PUSH1 0x0 PUSH2 0x32B3 DUP6 DUP3 DUP7 ADD PUSH2 0x3076 JUMP JUMPDEST SWAP3 POP POP PUSH1 0x20 PUSH2 0x32C4 DUP6 DUP3 DUP7 ADD PUSH2 0x3022 JUMP JUMPDEST SWAP2 POP POP SWAP3 POP SWAP3 SWAP1 POP JUMP JUMPDEST PUSH1 0x0 DUP1 PUSH1 0x40 DUP4 DUP6 SUB SLT ISZERO PUSH2 0x32E1 JUMPI PUSH1 0x0 DUP1 REVERT JUMPDEST PUSH1 0x0 PUSH2 0x32EF DUP6 DUP3 DUP7 ADD PUSH2 0x3076 JUMP JUMPDEST SWAP3 POP POP PUSH1 0x20 DUP4 ADD CALLDATALOAD PUSH8 0xFFFFFFFFFFFFFFFF DUP2 GT ISZERO PUSH2 0x330C JUMPI PUSH1 0x0 DUP1 REVERT JUMPDEST PUSH2 0x3318 DUP6 DUP3 DUP7 ADD PUSH2 0x304C JUMP JUMPDEST SWAP2 POP POP SWAP3 POP SWAP3 SWAP1 POP JUMP JUMPDEST PUSH1 0x0 PUSH2 0x332E DUP4 DUP4 PUSH2 0x3947 JUMP JUMPDEST SWAP1 POP SWAP3 SWAP2 POP POP JUMP JUMPDEST PUSH2 0x333F DUP2 PUSH2 0x3F9C JUMP JUMPDEST DUP3 MSTORE POP POP JUMP JUMPDEST PUSH2 0x334E DUP2 PUSH2 0x3F9C JUMP JUMPDEST DUP3 MSTORE POP POP JUMP JUMPDEST PUSH1 0x0 PUSH2 0x335F DUP3 PUSH2 0x3E44 JUMP JUMPDEST PUSH2 0x3369 DUP2 DUP6 PUSH2 0x3E72 JUMP JUMPDEST SWAP4 POP DUP4 PUSH1 0x20 DUP3 MUL DUP6 ADD PUSH2 0x337B DUP6 PUSH2 0x3E34 JUMP JUMPDEST DUP1 PUSH1 0x0 JUMPDEST DUP6 DUP2 LT ISZERO PUSH2 0x33B7 JUMPI DUP5 DUP5 SUB DUP10 MSTORE DUP2 MLOAD PUSH2 0x3398 DUP6 DUP3 PUSH2 0x3322 JUMP JUMPDEST SWAP5 POP PUSH2 0x33A3 DUP4 PUSH2 0x3E65 JUMP JUMPDEST SWAP3 POP PUSH1 0x20 DUP11 ADD SWAP10 POP POP PUSH1 0x1 DUP2 ADD SWAP1 POP PUSH2 0x337F JUMP JUMPDEST POP DUP3 SWAP8 POP DUP8 SWAP6 POP POP POP POP POP POP SWAP3 SWAP2 POP POP JUMP JUMPDEST PUSH2 0x33D2 DUP2 PUSH2 0x3FAE JUMP JUMPDEST DUP3 MSTORE POP POP JUMP JUMPDEST PUSH1 0x0 PUSH2 0x33E3 DUP3 PUSH2 0x3E4F JUMP JUMPDEST PUSH2 0x33ED DUP2 DUP6 PUSH2 0x3E83 JUMP JUMPDEST SWAP4 POP PUSH2 0x33FD DUP2 DUP6 PUSH1 0x20 DUP7 ADD PUSH2 0x4017 JUMP JUMPDEST DUP1 DUP5 ADD SWAP2 POP POP SWAP3 SWAP2 POP POP JUMP JUMPDEST PUSH2 0x3412 DUP2 PUSH2 0x3FE4 JUMP JUMPDEST DUP3 MSTORE POP POP JUMP JUMPDEST PUSH1 0x0 PUSH2 0x3423 DUP3 PUSH2 0x3E5A JUMP JUMPDEST PUSH2 0x342D DUP2 DUP6 PUSH2 0x3E8E JUMP JUMPDEST SWAP4 POP PUSH2 0x343D DUP2 DUP6 PUSH1 0x20 DUP7 ADD PUSH2 0x4017 JUMP JUMPDEST PUSH2 0x3446 DUP2 PUSH2 0x4181 JUMP JUMPDEST DUP5 ADD SWAP2 POP POP SWAP3 SWAP2 POP POP JUMP JUMPDEST PUSH1 0x0 PUSH2 0x345C DUP3 PUSH2 0x3E5A JUMP JUMPDEST PUSH2 0x3466 DUP2 DUP6 PUSH2 0x3E9F JUMP JUMPDEST SWAP4 POP PUSH2 0x3476 DUP2 DUP6 PUSH1 0x20 DUP7 ADD PUSH2 0x4017 JUMP JUMPDEST PUSH2 0x347F DUP2 PUSH2 0x4181 JUMP JUMPDEST DUP5 ADD SWAP2 POP POP SWAP3 SWAP2 POP POP JUMP JUMPDEST PUSH1 0x0 PUSH2 0x3495 DUP3 PUSH2 0x3E5A JUMP JUMPDEST PUSH2 0x349F DUP2 DUP6 PUSH2 0x3EB0 JUMP JUMPDEST SWAP4 POP PUSH2 0x34AF DUP2 DUP6 PUSH1 0x20 DUP7 ADD PUSH2 0x4017 JUMP JUMPDEST DUP1 DUP5 ADD SWAP2 POP POP SWAP3 SWAP2 POP POP JUMP JUMPDEST PUSH1 0x0 PUSH2 0x34C8 PUSH1 0x21 DUP4 PUSH2 0x3E9F JUMP JUMPDEST SWAP2 POP PUSH32 0x4C657373207468616E20363025206F662074686520766F746573207061737365 PUSH1 0x0 DUP4 ADD MSTORE PUSH32 0x6400000000000000000000000000000000000000000000000000000000000000 PUSH1 0x20 DUP4 ADD MSTORE PUSH1 0x40 DUP3 ADD SWAP1 POP SWAP2 SWAP1 POP JUMP JUMPDEST PUSH1 0x0 PUSH2 0x352E PUSH1 0x1C DUP4 PUSH2 0x3E9F JUMP JUMPDEST SWAP2 POP PUSH32 0x4E6F742077697468696E2074686520616C6C6F747465642074696D6500000000 PUSH1 0x0 DUP4 ADD MSTORE PUSH1 0x20 DUP3 ADD SWAP1 POP SWAP2 SWAP1 POP JUMP JUMPDEST PUSH1 0x0 PUSH2 0x356E PUSH1 0x1A DUP4 PUSH2 0x3E9F JUMP JUMPDEST SWAP2 POP PUSH32 0x63616E27742064656C656761746520746F20796F757273656C66000000000000 PUSH1 0x0 DUP4 ADD MSTORE PUSH1 0x20 DUP3 ADD SWAP1 POP SWAP2 SWAP1 POP JUMP JUMPDEST PUSH1 0x0 PUSH2 0x35AE PUSH1 0x1B DUP4 PUSH2 0x3E9F JUMP JUMPDEST SWAP2 POP PUSH32 0x476F7665726E616E63652054656D706C617465206973206E756C6C0000000000 PUSH1 0x0 DUP4 ADD MSTORE PUSH1 0x20 DUP3 ADD SWAP1 POP SWAP2 SWAP1 POP JUMP JUMPDEST PUSH1 0x0 PUSH2 0x35EE PUSH1 0x1D DUP4 PUSH2 0x3E9F JUMP JUMPDEST SWAP2 POP PUSH32 0x766F746573206973206C657373207468616E2033302070657263656E74000000 PUSH1 0x0 DUP4 ADD MSTORE PUSH1 0x20 DUP3 ADD SWAP1 POP SWAP2 SWAP1 POP JUMP JUMPDEST PUSH1 0x0 PUSH2 0x362E PUSH1 0x32 DUP4 PUSH2 0x3E9F JUMP JUMPDEST SWAP2 POP PUSH32 0x54686520766F746520706173736564207769746820666577657220766F746573 PUSH1 0x0 DUP4 ADD MSTORE PUSH32 0x207468616E20746865206F726967696E616C0000000000000000000000000000 PUSH1 0x20 DUP4 ADD MSTORE PUSH1 0x40 DUP3 ADD SWAP1 POP SWAP2 SWAP1 POP JUMP JUMPDEST PUSH1 0x0 PUSH2 0x3694 PUSH1 0x17 DUP4 PUSH2 0x3E9F JUMP JUMPDEST SWAP2 POP PUSH32 0x546F6F2066657720746F6B656E73206172652068656C64000000000000000000 PUSH1 0x0 DUP4 ADD MSTORE PUSH1 0x20 DUP3 ADD SWAP1 POP SWAP2 SWAP1 POP JUMP JUMPDEST PUSH1 0x0 PUSH2 0x36D4 PUSH1 0x19 DUP4 PUSH2 0x3E9F JUMP JUMPDEST SWAP2 POP PUSH32 0x5374696C6C20696E2074686520766F74696E6720706861736500000000000000 PUSH1 0x0 DUP4 ADD MSTORE PUSH1 0x20 DUP3 ADD SWAP1 POP SWAP2 SWAP1 POP JUMP JUMPDEST PUSH1 0x0 PUSH2 0x3714 PUSH1 0x14 DUP4 PUSH2 0x3E9F JUMP JUMPDEST SWAP2 POP PUSH32 0x7265706574697469766520657865637574696F6E000000000000000000000000 PUSH1 0x0 DUP4 ADD MSTORE PUSH1 0x20 DUP3 ADD SWAP1 POP SWAP2 SWAP1 POP JUMP JUMPDEST PUSH1 0x0 PUSH2 0x3754 PUSH1 0xA DUP4 PUSH2 0x3E9F JUMP JUMPDEST SWAP2 POP PUSH32 0x4861766520766F74656400000000000000000000000000000000000000000000 PUSH1 0x0 DUP4 ADD MSTORE PUSH1 0x20 DUP3 ADD SWAP1 POP SWAP2 SWAP1 POP JUMP JUMPDEST PUSH1 0x0 PUSH2 0x3794 PUSH1 0xE DUP4 PUSH2 0x3E9F JUMP JUMPDEST SWAP2 POP PUSH32 0x566F74654964206973206E756C6C000000000000000000000000000000000000 PUSH1 0x0 DUP4 ADD MSTORE PUSH1 0x20 DUP3 ADD SWAP1 POP SWAP2 SWAP1 POP JUMP JUMPDEST PUSH1 0x0 PUSH2 0x37D4 PUSH1 0x20 DUP4 PUSH2 0x3E9F JUMP JUMPDEST SWAP2 POP PUSH32 0x77686974654C697374203A3A204164647265737320636865636B206572726F72 PUSH1 0x0 DUP4 ADD MSTORE PUSH1 0x20 DUP3 ADD SWAP1 POP SWAP2 SWAP1 POP JUMP JUMPDEST PUSH1 0x0 PUSH2 0x3814 PUSH1 0x14 DUP4 PUSH2 0x3E9F JUMP JUMPDEST SWAP2 POP PUSH32 0x7665546F6B656E206C657373207468616E203120000000000000000000000000 PUSH1 0x0 DUP4 ADD MSTORE PUSH1 0x20 DUP3 ADD SWAP1 POP SWAP2 SWAP1 POP JUMP JUMPDEST PUSH1 0x0 PUSH2 0x3854 PUSH1 0x12 DUP4 PUSH2 0x3E9F JUMP JUMPDEST SWAP2 POP PUSH32 0x5468657265206973206E6F20746F6B656E200000000000000000000000000000 PUSH1 0x0 DUP4 ADD MSTORE PUSH1 0x20 DUP3 ADD SWAP1 POP SWAP2 SWAP1 POP JUMP JUMPDEST PUSH1 0x0 PUSH2 0x3894 PUSH1 0x13 DUP4 PUSH2 0x3E9F JUMP JUMPDEST SWAP2 POP PUSH32 0x207665546F6B656E537570706C79203D3D203000000000000000000000000000 PUSH1 0x0 DUP4 ADD MSTORE PUSH1 0x20 DUP3 ADD SWAP1 POP SWAP2 SWAP1 POP JUMP JUMPDEST PUSH1 0x0 PUSH2 0x38D4 PUSH1 0x17 DUP4 PUSH2 0x3E9F JUMP JUMPDEST SWAP2 POP PUSH32 0x4E6F742061742074686520766F74696E67207374616765000000000000000000 PUSH1 0x0 DUP4 ADD MSTORE PUSH1 0x20 DUP3 ADD SWAP1 POP SWAP2 SWAP1 POP JUMP JUMPDEST PUSH1 0x0 PUSH2 0x3914 PUSH1 0xB DUP4 PUSH2 0x3E9F JUMP JUMPDEST SWAP2 POP PUSH32 0x566F7465206265666F7265000000000000000000000000000000000000000000 PUSH1 0x0 DUP4 ADD MSTORE PUSH1 0x20 DUP3 ADD SWAP1 POP SWAP2 SWAP1 POP JUMP JUMPDEST PUSH1 0x0 PUSH1 0x80 DUP4 ADD PUSH1 0x0 DUP4 ADD MLOAD PUSH2 0x395F PUSH1 0x0 DUP7 ADD DUP3 PUSH2 0x39B1 JUMP JUMPDEST POP PUSH1 0x20 DUP4 ADD MLOAD DUP5 DUP3 SUB PUSH1 0x20 DUP7 ADD MSTORE PUSH2 0x3977 DUP3 DUP3 PUSH2 0x3418 JUMP JUMPDEST SWAP2 POP POP PUSH1 0x40 DUP4 ADD MLOAD PUSH2 0x398C PUSH1 0x40 DUP7 ADD DUP3 PUSH2 0x3336 JUMP JUMPDEST POP PUSH1 0x60 DUP4 ADD MLOAD DUP5 DUP3 SUB PUSH1 0x60 DUP7 ADD MSTORE PUSH2 0x39A4 DUP3 DUP3 PUSH2 0x3418 JUMP JUMPDEST SWAP2 POP POP DUP1 SWAP2 POP POP SWAP3 SWAP2 POP POP JUMP JUMPDEST PUSH2 0x39BA DUP2 PUSH2 0x3FDA JUMP JUMPDEST DUP3 MSTORE POP POP JUMP JUMPDEST PUSH2 0x39C9 DUP2 PUSH2 0x3FDA JUMP JUMPDEST DUP3 MSTORE POP POP JUMP JUMPDEST PUSH1 0x0 PUSH2 0x39DB DUP3 DUP5 PUSH2 0x33D8 JUMP JUMPDEST SWAP2 POP DUP2 SWAP1 POP SWAP3 SWAP2 POP POP JUMP JUMPDEST PUSH1 0x0 PUSH2 0x39F2 DUP3 DUP5 PUSH2 0x348A JUMP JUMPDEST SWAP2 POP DUP2 SWAP1 POP SWAP3 SWAP2 POP POP JUMP JUMPDEST PUSH1 0x0 PUSH1 0x20 DUP3 ADD SWAP1 POP PUSH2 0x3A12 PUSH1 0x0 DUP4 ADD DUP5 PUSH2 0x3345 JUMP JUMPDEST SWAP3 SWAP2 POP POP JUMP JUMPDEST PUSH1 0x0 PUSH1 0x20 DUP3 ADD SWAP1 POP DUP2 DUP2 SUB PUSH1 0x0 DUP4 ADD MSTORE PUSH2 0x3A32 DUP2 DUP5 PUSH2 0x3354 JUMP JUMPDEST SWAP1 POP SWAP3 SWAP2 POP POP JUMP JUMPDEST PUSH1 0x0 PUSH1 0x20 DUP3 ADD SWAP1 POP PUSH2 0x3A4F PUSH1 0x0 DUP4 ADD DUP5 PUSH2 0x33C9 JUMP JUMPDEST SWAP3 SWAP2 POP POP JUMP JUMPDEST PUSH1 0x0 PUSH1 0x20 DUP3 ADD SWAP1 POP PUSH2 0x3A6A PUSH1 0x0 DUP4 ADD DUP5 PUSH2 0x3409 JUMP JUMPDEST SWAP3 SWAP2 POP POP JUMP JUMPDEST PUSH1 0x0 PUSH1 0x20 DUP3 ADD SWAP1 POP DUP2 DUP2 SUB PUSH1 0x0 DUP4 ADD MSTORE PUSH2 0x3A8A DUP2 DUP5 PUSH2 0x3451 JUMP JUMPDEST SWAP1 POP SWAP3 SWAP2 POP POP JUMP JUMPDEST PUSH1 0x0 PUSH1 0x60 DUP3 ADD SWAP1 POP DUP2 DUP2 SUB PUSH1 0x0 DUP4 ADD MSTORE PUSH2 0x3AAC DUP2 DUP7 PUSH2 0x3451 JUMP JUMPDEST SWAP1 POP PUSH2 0x3ABB PUSH1 0x20 DUP4 ADD DUP6 PUSH2 0x3345 JUMP JUMPDEST DUP2 DUP2 SUB PUSH1 0x40 DUP4 ADD MSTORE PUSH2 0x3ACD DUP2 DUP5 PUSH2 0x3451 JUMP JUMPDEST SWAP1 POP SWAP5 SWAP4 POP POP POP POP JUMP JUMPDEST PUSH1 0x0 PUSH1 0x60 DUP3 ADD SWAP1 POP DUP2 DUP2 SUB PUSH1 0x0 DUP4 ADD MSTORE PUSH2 0x3AF1 DUP2 DUP7 PUSH2 0x3451 JUMP JUMPDEST SWAP1 POP DUP2 DUP2 SUB PUSH1 0x20 DUP4 ADD MSTORE PUSH2 0x3B05 DUP2 DUP6 PUSH2 0x3451 JUMP JUMPDEST SWAP1 POP PUSH2 0x3B14 PUSH1 0x40 DUP4 ADD DUP5 PUSH2 0x3345 JUMP JUMPDEST SWAP5 SWAP4 POP POP POP POP JUMP JUMPDEST PUSH1 0x0 PUSH1 0x20 DUP3 ADD SWAP1 POP DUP2 DUP2 SUB PUSH1 0x0 DUP4 ADD MSTORE PUSH2 0x3B35 DUP2 PUSH2 0x34BB JUMP JUMPDEST SWAP1 POP SWAP2 SWAP1 POP JUMP JUMPDEST PUSH1 0x0 PUSH1 0x20 DUP3 ADD SWAP1 POP DUP2 DUP2 SUB PUSH1 0x0 DUP4 ADD MSTORE PUSH2 0x3B55 DUP2 PUSH2 0x3521 JUMP JUMPDEST SWAP1 POP SWAP2 SWAP1 POP JUMP JUMPDEST PUSH1 0x0 PUSH1 0x20 DUP3 ADD SWAP1 POP DUP2 DUP2 SUB PUSH1 0x0 DUP4 ADD MSTORE PUSH2 0x3B75 DUP2 PUSH2 0x3561 JUMP JUMPDEST SWAP1 POP SWAP2 SWAP1 POP JUMP JUMPDEST PUSH1 0x0 PUSH1 0x20 DUP3 ADD SWAP1 POP DUP2 DUP2 SUB PUSH1 0x0 DUP4 ADD MSTORE PUSH2 0x3B95 DUP2 PUSH2 0x35A1 JUMP JUMPDEST SWAP1 POP SWAP2 SWAP1 POP JUMP JUMPDEST PUSH1 0x0 PUSH1 0x20 DUP3 ADD SWAP1 POP DUP2 DUP2 SUB PUSH1 0x0 DUP4 ADD MSTORE PUSH2 0x3BB5 DUP2 PUSH2 0x35E1 JUMP JUMPDEST SWAP1 POP SWAP2 SWAP1 POP JUMP JUMPDEST PUSH1 0x0 PUSH1 0x20 DUP3 ADD SWAP1 POP DUP2 DUP2 SUB PUSH1 0x0 DUP4 ADD MSTORE PUSH2 0x3BD5 DUP2 PUSH2 0x3621 JUMP JUMPDEST SWAP1 POP SWAP2 SWAP1 POP JUMP JUMPDEST PUSH1 0x0 PUSH1 0x20 DUP3 ADD SWAP1 POP DUP2 DUP2 SUB PUSH1 0x0 DUP4 ADD MSTORE PUSH2 0x3BF5 DUP2 PUSH2 0x3687 JUMP JUMPDEST SWAP1 POP SWAP2 SWAP1 POP JUMP JUMPDEST PUSH1 0x0 PUSH1 0x20 DUP3 ADD SWAP1 POP DUP2 DUP2 SUB PUSH1 0x0 DUP4 ADD MSTORE PUSH2 0x3C15 DUP2 PUSH2 0x36C7 JUMP JUMPDEST SWAP1 POP SWAP2 SWAP1 POP JUMP JUMPDEST PUSH1 0x0 PUSH1 0x20 DUP3 ADD SWAP1 POP DUP2 DUP2 SUB PUSH1 0x0 DUP4 ADD MSTORE PUSH2 0x3C35 DUP2 PUSH2 0x3707 JUMP JUMPDEST SWAP1 POP SWAP2 SWAP1 POP JUMP JUMPDEST PUSH1 0x0 PUSH1 0x20 DUP3 ADD SWAP1 POP DUP2 DUP2 SUB PUSH1 0x0 DUP4 ADD MSTORE PUSH2 0x3C55 DUP2 PUSH2 0x3747 JUMP JUMPDEST SWAP1 POP SWAP2 SWAP1 POP JUMP JUMPDEST PUSH1 0x0 PUSH1 0x20 DUP3 ADD SWAP1 POP DUP2 DUP2 SUB PUSH1 0x0 DUP4 ADD MSTORE PUSH2 0x3C75 DUP2 PUSH2 0x3787 JUMP JUMPDEST SWAP1 POP SWAP2 SWAP1 POP JUMP JUMPDEST PUSH1 0x0 PUSH1 0x20 DUP3 ADD SWAP1 POP DUP2 DUP2 SUB PUSH1 0x0 DUP4 ADD MSTORE PUSH2 0x3C95 DUP2 PUSH2 0x37C7 JUMP JUMPDEST SWAP1 POP SWAP2 SWAP1 POP JUMP JUMPDEST PUSH1 0x0 PUSH1 0x20 DUP3 ADD SWAP1 POP DUP2 DUP2 SUB PUSH1 0x0 DUP4 ADD MSTORE PUSH2 0x3CB5 DUP2 PUSH2 0x3807 JUMP JUMPDEST SWAP1 POP SWAP2 SWAP1 POP JUMP JUMPDEST PUSH1 0x0 PUSH1 0x20 DUP3 ADD SWAP1 POP DUP2 DUP2 SUB PUSH1 0x0 DUP4 ADD MSTORE PUSH2 0x3CD5 DUP2 PUSH2 0x3847 JUMP JUMPDEST SWAP1 POP SWAP2 SWAP1 POP JUMP JUMPDEST PUSH1 0x0 PUSH1 0x20 DUP3 ADD SWAP1 POP DUP2 DUP2 SUB PUSH1 0x0 DUP4 ADD MSTORE PUSH2 0x3CF5 DUP2 PUSH2 0x3887 JUMP JUMPDEST SWAP1 POP SWAP2 SWAP1 POP JUMP JUMPDEST PUSH1 0x0 PUSH1 0x20 DUP3 ADD SWAP1 POP DUP2 DUP2 SUB PUSH1 0x0 DUP4 ADD MSTORE PUSH2 0x3D15 DUP2 PUSH2 0x38C7 JUMP JUMPDEST SWAP1 POP SWAP2 SWAP1 POP JUMP JUMPDEST PUSH1 0x0 PUSH1 0x20 DUP3 ADD SWAP1 POP DUP2 DUP2 SUB PUSH1 0x0 DUP4 ADD MSTORE PUSH2 0x3D35 DUP2 PUSH2 0x3907 JUMP JUMPDEST SWAP1 POP SWAP2 SWAP1 POP JUMP JUMPDEST PUSH1 0x0 PUSH1 0x20 DUP3 ADD SWAP1 POP PUSH2 0x3D51 PUSH1 0x0 DUP4 ADD DUP5 PUSH2 0x39C0 JUMP JUMPDEST SWAP3 SWAP2 POP POP JUMP JUMPDEST PUSH1 0x0 PUSH1 0x40 DUP3 ADD SWAP1 POP PUSH2 0x3D6C PUSH1 0x0 DUP4 ADD DUP6 PUSH2 0x39C0 JUMP JUMPDEST PUSH2 0x3D79 PUSH1 0x20 DUP4 ADD DUP5 PUSH2 0x39C0 JUMP JUMPDEST SWAP4 SWAP3 POP POP POP JUMP JUMPDEST PUSH1 0x0 PUSH1 0xA0 DUP3 ADD SWAP1 POP PUSH2 0x3D95 PUSH1 0x0 DUP4 ADD DUP9 PUSH2 0x39C0 JUMP JUMPDEST PUSH2 0x3DA2 PUSH1 0x20 DUP4 ADD DUP8 PUSH2 0x39C0 JUMP JUMPDEST PUSH2 0x3DAF PUSH1 0x40 DUP4 ADD DUP7 PUSH2 0x39C0 JUMP JUMPDEST PUSH2 0x3DBC PUSH1 0x60 DUP4 ADD DUP6 PUSH2 0x39C0 JUMP JUMPDEST PUSH2 0x3DC9 PUSH1 0x80 DUP4 ADD DUP5 PUSH2 0x39C0 JUMP JUMPDEST SWAP7 SWAP6 POP POP POP POP POP POP JUMP JUMPDEST PUSH1 0x0 PUSH1 0x40 MLOAD SWAP1 POP DUP2 DUP2 ADD DUP2 DUP2 LT PUSH8 0xFFFFFFFFFFFFFFFF DUP3 GT OR ISZERO PUSH2 0x3DFA JUMPI PUSH2 0x3DF9 PUSH2 0x4152 JUMP JUMPDEST JUMPDEST DUP1 PUSH1 0x40 MSTORE POP SWAP2 SWAP1 POP JUMP JUMPDEST PUSH1 0x0 PUSH8 0xFFFFFFFFFFFFFFFF DUP3 GT ISZERO PUSH2 0x3E1F JUMPI PUSH2 0x3E1E PUSH2 0x4152 JUMP JUMPDEST JUMPDEST PUSH1 0x1F NOT PUSH1 0x1F DUP4 ADD AND SWAP1 POP PUSH1 0x20 DUP2 ADD SWAP1 POP SWAP2 SWAP1 POP JUMP JUMPDEST PUSH1 0x0 DUP2 SWAP1 POP PUSH1 0x20 DUP3 ADD SWAP1 POP SWAP2 SWAP1 POP JUMP JUMPDEST PUSH1 0x0 DUP2 MLOAD SWAP1 POP SWAP2 SWAP1 POP JUMP JUMPDEST PUSH1 0x0 DUP2 MLOAD SWAP1 POP SWAP2 SWAP1 POP JUMP JUMPDEST PUSH1 0x0 DUP2 MLOAD SWAP1 POP SWAP2 SWAP1 POP JUMP JUMPDEST PUSH1 0x0 PUSH1 0x20 DUP3 ADD SWAP1 POP SWAP2 SWAP1 POP JUMP JUMPDEST PUSH1 0x0 DUP3 DUP3 MSTORE PUSH1 0x20 DUP3 ADD SWAP1 POP SWAP3 SWAP2 POP POP JUMP JUMPDEST PUSH1 0x0 DUP2 SWAP1 POP SWAP3 SWAP2 POP POP JUMP JUMPDEST PUSH1 0x0 DUP3 DUP3 MSTORE PUSH1 0x20 DUP3 ADD SWAP1 POP SWAP3 SWAP2 POP POP JUMP JUMPDEST PUSH1 0x0 DUP3 DUP3 MSTORE PUSH1 0x20 DUP3 ADD SWAP1 POP SWAP3 SWAP2 POP POP JUMP JUMPDEST PUSH1 0x0 DUP2 SWAP1 POP SWAP3 SWAP2 POP POP JUMP JUMPDEST PUSH1 0x0 PUSH2 0x3EC6 DUP3 PUSH2 0x3FDA JUMP JUMPDEST SWAP2 POP PUSH2 0x3ED1 DUP4 PUSH2 0x3FDA JUMP JUMPDEST SWAP3 POP DUP3 PUSH32 0xFFFFFFFFFFFFFFFFFFFFFFFFFFFFFFFFFFFFFFFFFFFFFFFFFFFFFFFFFFFFFFFF SUB DUP3 GT ISZERO PUSH2 0x3F06 JUMPI PUSH2 0x3F05 PUSH2 0x40C5 JUMP JUMPDEST JUMPDEST DUP3 DUP3 ADD SWAP1 POP SWAP3 SWAP2 POP POP JUMP JUMPDEST PUSH1 0x0 PUSH2 0x3F1C DUP3 PUSH2 0x3FDA JUMP JUMPDEST SWAP2 POP PUSH2 0x3F27 DUP4 PUSH2 0x3FDA JUMP JUMPDEST SWAP3 POP DUP3 PUSH2 0x3F37 JUMPI PUSH2 0x3F36 PUSH2 0x40F4 JUMP JUMPDEST JUMPDEST DUP3 DUP3 DIV SWAP1 POP SWAP3 SWAP2 POP POP JUMP JUMPDEST PUSH1 0x0 PUSH2 0x3F4D DUP3 PUSH2 0x3FDA JUMP JUMPDEST SWAP2 POP PUSH2 0x3F58 DUP4 PUSH2 0x3FDA JUMP JUMPDEST SWAP3 POP DUP2 PUSH32 0xFFFFFFFFFFFFFFFFFFFFFFFFFFFFFFFFFFFFFFFFFFFFFFFFFFFFFFFFFFFFFFFF DIV DUP4 GT DUP3 ISZERO ISZERO AND ISZERO PUSH2 0x3F91 JUMPI PUSH2 0x3F90 PUSH2 0x40C5 JUMP JUMPDEST JUMPDEST DUP3 DUP3 MUL SWAP1 POP SWAP3 SWAP2 POP POP JUMP JUMPDEST PUSH1 0x0 PUSH2 0x3FA7 DUP3 PUSH2 0x3FBA JUMP JUMPDEST SWAP1 POP SWAP2 SWAP1 POP JUMP JUMPDEST PUSH1 0x0 DUP2 ISZERO ISZERO SWAP1 POP SWAP2 SWAP1 POP JUMP JUMPDEST PUSH1 0x0 PUSH20 0xFFFFFFFFFFFFFFFFFFFFFFFFFFFFFFFFFFFFFFFF DUP3 AND SWAP1 POP SWAP2 SWAP1 POP JUMP JUMPDEST PUSH1 0x0 DUP2 SWAP1 POP SWAP2 SWAP1 POP JUMP JUMPDEST PUSH1 0x0 PUSH2 0x3FEF DUP3 PUSH2 0x3FF6 JUMP JUMPDEST SWAP1 POP SWAP2 SWAP1 POP JUMP JUMPDEST PUSH1 0x0 PUSH2 0x4001 DUP3 PUSH2 0x3FBA JUMP JUMPDEST SWAP1 POP SWAP2 SWAP1 POP JUMP JUMPDEST DUP3 DUP2 DUP4 CALLDATACOPY PUSH1 0x0 DUP4 DUP4 ADD MSTORE POP POP POP JUMP JUMPDEST PUSH1 0x0 JUMPDEST DUP4 DUP2 LT ISZERO PUSH2 0x4035 JUMPI DUP1 DUP3 ADD MLOAD DUP2 DUP5 ADD MSTORE PUSH1 0x20 DUP2 ADD SWAP1 POP PUSH2 0x401A JUMP JUMPDEST DUP4 DUP2 GT ISZERO PUSH2 0x4044 JUMPI PUSH1 0x0 DUP5 DUP5 ADD MSTORE JUMPDEST POP POP POP POP JUMP JUMPDEST PUSH1 0x0 PUSH1 0x2 DUP3 DIV SWAP1 POP PUSH1 0x1 DUP3 AND DUP1 PUSH2 0x4062 JUMPI PUSH1 0x7F DUP3 AND SWAP2 POP JUMPDEST PUSH1 0x20 DUP3 LT DUP2 EQ ISZERO PUSH2 0x4076 JUMPI PUSH2 0x4075 PUSH2 0x4123 JUMP JUMPDEST JUMPDEST POP SWAP2 SWAP1 POP JUMP JUMPDEST PUSH1 0x0 PUSH2 0x4087 DUP3 PUSH2 0x3FDA JUMP JUMPDEST SWAP2 POP PUSH32 0xFFFFFFFFFFFFFFFFFFFFFFFFFFFFFFFFFFFFFFFFFFFFFFFFFFFFFFFFFFFFFFFF DUP3 EQ ISZERO PUSH2 0x40BA JUMPI PUSH2 0x40B9 PUSH2 0x40C5 JUMP JUMPDEST JUMPDEST PUSH1 0x1 DUP3 ADD SWAP1 POP SWAP2 SWAP1 POP JUMP JUMPDEST PUSH32 0x4E487B7100000000000000000000000000000000000000000000000000000000 PUSH1 0x0 MSTORE PUSH1 0x11 PUSH1 0x4 MSTORE PUSH1 0x24 PUSH1 0x0 REVERT JUMPDEST PUSH32 0x4E487B7100000000000000000000000000000000000000000000000000000000 PUSH1 0x0 MSTORE PUSH1 0x12 PUSH1 0x4 MSTORE PUSH1 0x24 PUSH1 0x0 REVERT JUMPDEST PUSH32 0x4E487B7100000000000000000000000000000000000000000000000000000000 PUSH1 0x0 MSTORE PUSH1 0x22 PUSH1 0x4 MSTORE PUSH1 0x24 PUSH1 0x0 REVERT JUMPDEST PUSH32 0x4E487B7100000000000000000000000000000000000000000000000000000000 PUSH1 0x0 MSTORE PUSH1 0x41 PUSH1 0x4 MSTORE PUSH1 0x24 PUSH1 0x0 REVERT JUMPDEST PUSH1 0x0 PUSH1 0x1F NOT PUSH1 0x1F DUP4 ADD AND SWAP1 POP SWAP2 SWAP1 POP JUMP JUMPDEST PUSH2 0x419B DUP2 PUSH2 0x3F9C JUMP JUMPDEST DUP2 EQ PUSH2 0x41A6 JUMPI PUSH1 0x0 DUP1 REVERT JUMPDEST POP JUMP JUMPDEST PUSH2 0x41B2 DUP2 PUSH2 0x3FAE JUMP JUMPDEST DUP2 EQ PUSH2 0x41BD JUMPI PUSH1 0x0 DUP1 REVERT JUMPDEST POP JUMP JUMPDEST PUSH2 0x41C9 DUP2 PUSH2 0x3FDA JUMP JUMPDEST DUP2 EQ PUSH2 0x41D4 JUMPI PUSH1 0x0 DUP1 REVERT JUMPDEST POP JUMP INVALID LOG2 PUSH5 0x6970667358 0x22 SLT KECCAK256 0x1F 0xC6 0xC 0xAB 0x2C 0xC5 0xB8 PUSH6 0xD522A061F31F 0xE0 SUB SWAP12 SWAP7 0xAA EXP 0xFB JUMPDEST DUP7 0xF8 POP MOD AND 0xD9 PUSH3 0x9C1533 PUSH5 0x736F6C6343 STOP ADDMOD STOP STOP CALLER "
				},
				"gasEstimates": {
					"creation": {
						"codeDepositCost": "3381800",
						"executionCost": "63789",
						"totalCost": "3445589"
					},
					"external": {
						"bufferTime()": "1174",
						"createVote(string,string,uint256,uint256)": "infinite",
						"delegateTo(uint256,address)": "infinite",
						"execute(uint256)": "infinite",
						"executeQueue(uint256)": "infinite",
						"executeQueueMap(uint256)": "1542",
						"getTemplate()": "infinite",
						"getTest(uint256)": "infinite",
						"getVeToken()": "infinite",
						"getVoteDetailwithVoteId(uint256)": "infinite",
						"getVoteStatuswithVoteId(uint256)": "infinite",
						"initialize()": "infinite",
						"minimumQuantity()": "1153",
						"reject(uint256,string)": "infinite",
						"router()": "1280",
						"setGovernanceTemplate(string,address,string)": "infinite",
						"templateTotal()": "1174",
						"toVote(uint256,bool)": "infinite",
						"veToken()": "1347",
						"voteTatola()": "1240",
						"voteTime()": "1218",
						"winningProposal(uint256)": "infinite"
					},
					"internal": {
						"_execute(uint256,uint256,uint256)": "infinite",
						"_governanceTemplate(uint256,uint256)": "infinite",
						"onlyWhiteList()": "infinite",
						"setMinimumQuantity(uint256)": "infinite"
					}
				},
				"methodIdentifiers": {
					"bufferTime()": "ba7b6703",
					"createVote(string,string,uint256,uint256)": "f9d793d1",
					"delegateTo(uint256,address)": "fc7881c6",
					"execute(uint256)": "fe0d94c1",
					"executeQueue(uint256)": "52538550",
					"executeQueueMap(uint256)": "2c9e3ef0",
					"getTemplate()": "321c48f2",
					"getTest(uint256)": "edef019d",
					"getVeToken()": "3fee74d7",
					"getVoteDetailwithVoteId(uint256)": "74786f69",
					"getVoteStatuswithVoteId(uint256)": "d9ae5bd5",
					"initialize()": "8129fc1c",
					"minimumQuantity()": "1d75ddcc",
					"reject(uint256,string)": "71d68a97",
					"router()": "f887ea40",
					"setGovernanceTemplate(string,address,string)": "e3a1c1c7",
					"templateTotal()": "5a42007f",
					"toVote(uint256,bool)": "82214856",
					"veToken()": "3b92eb23",
					"voteTatola()": "75bb5b09",
					"voteTime()": "bcf93dd6",
					"winningProposal(uint256)": "bcd60f6c"
				}
			},
			"storageLayout": {
				"storage": [
					{
						"astId": 372,
						"contract": "contracts/Template/Istanbul10/logic/Vote.sol:Vote",
						"label": "voteTime",
						"offset": 0,
						"slot": "0",
						"type": "t_uint256"
					},
					{
						"astId": 375,
						"contract": "contracts/Template/Istanbul10/logic/Vote.sol:Vote",
						"label": "bufferTime",
						"offset": 0,
						"slot": "1",
						"type": "t_uint256"
					},
					{
						"astId": 377,
						"contract": "contracts/Template/Istanbul10/logic/Vote.sol:Vote",
						"label": "router",
						"offset": 0,
						"slot": "2",
						"type": "t_address"
					},
					{
						"astId": 380,
						"contract": "contracts/Template/Istanbul10/logic/Vote.sol:Vote",
						"label": "veToken",
						"offset": 0,
						"slot": "3",
						"type": "t_contract(VeTokenTest)1661"
					},
					{
						"astId": 382,
						"contract": "contracts/Template/Istanbul10/logic/Vote.sol:Vote",
						"label": "voteTatola",
						"offset": 0,
						"slot": "4",
						"type": "t_uint256"
					},
					{
						"astId": 385,
						"contract": "contracts/Template/Istanbul10/logic/Vote.sol:Vote",
						"label": "executeQueue",
						"offset": 0,
						"slot": "5",
						"type": "t_array(t_uint256)dyn_storage"
					},
					{
						"astId": 387,
						"contract": "contracts/Template/Istanbul10/logic/Vote.sol:Vote",
						"label": "templateTotal",
						"offset": 0,
						"slot": "6",
						"type": "t_uint256"
					},
					{
						"astId": 392,
						"contract": "contracts/Template/Istanbul10/logic/Vote.sol:Vote",
						"label": "voteMapp",
						"offset": 0,
						"slot": "7",
						"type": "t_mapping(t_uint256,t_struct(VoteStruct)436_storage)"
					},
					{
						"astId": 397,
						"contract": "contracts/Template/Istanbul10/logic/Vote.sol:Vote",
						"label": "template",
						"offset": 0,
						"slot": "8",
						"type": "t_mapping(t_uint256,t_struct(GgovernanceTemplate)465_storage)"
					},
					{
						"astId": 401,
						"contract": "contracts/Template/Istanbul10/logic/Vote.sol:Vote",
						"label": "executeQueueMap",
						"offset": 0,
						"slot": "9",
						"type": "t_mapping(t_uint256,t_bool)"
					},
					{
						"astId": 404,
						"contract": "contracts/Template/Istanbul10/logic/Vote.sol:Vote",
						"label": "minimumQuantity",
						"offset": 0,
						"slot": "10",
						"type": "t_uint256"
					}
				],
				"types": {
					"t_address": {
						"encoding": "inplace",
						"label": "address",
						"numberOfBytes": "20"
					},
					"t_array(t_address)dyn_storage": {
						"base": "t_address",
						"encoding": "dynamic_array",
						"label": "address[]",
						"numberOfBytes": "32"
					},
					"t_array(t_uint256)dyn_storage": {
						"base": "t_uint256",
						"encoding": "dynamic_array",
						"label": "uint256[]",
						"numberOfBytes": "32"
					},
					"t_bool": {
						"encoding": "inplace",
						"label": "bool",
						"numberOfBytes": "1"
					},
					"t_contract(VeTokenTest)1661": {
						"encoding": "inplace",
						"label": "contract VeTokenTest",
						"numberOfBytes": "20"
					},
					"t_enum(VoteStatus)369": {
						"encoding": "inplace",
						"label": "enum VoteData.VoteStatus",
						"numberOfBytes": "1"
					},
					"t_mapping(t_address,t_struct(Delegate)456_storage)": {
						"encoding": "mapping",
						"key": "t_address",
						"label": "mapping(address => struct VoteData.Delegate)",
						"numberOfBytes": "32",
						"value": "t_struct(Delegate)456_storage"
					},
					"t_mapping(t_uint256,t_bool)": {
						"encoding": "mapping",
						"key": "t_uint256",
						"label": "mapping(uint256 => bool)",
						"numberOfBytes": "32",
						"value": "t_bool"
					},
					"t_mapping(t_uint256,t_struct(GgovernanceTemplate)465_storage)": {
						"encoding": "mapping",
						"key": "t_uint256",
						"label": "mapping(uint256 => struct VoteData.GgovernanceTemplate)",
						"numberOfBytes": "32",
						"value": "t_struct(GgovernanceTemplate)465_storage"
					},
					"t_mapping(t_uint256,t_struct(VoteStruct)436_storage)": {
						"encoding": "mapping",
						"key": "t_uint256",
						"label": "mapping(uint256 => struct VoteData.VoteStruct)",
						"numberOfBytes": "32",
						"value": "t_struct(VoteStruct)436_storage"
					},
					"t_string_storage": {
						"encoding": "bytes",
						"label": "string",
						"numberOfBytes": "32"
					},
					"t_struct(Delegate)456_storage": {
						"encoding": "inplace",
						"label": "struct VoteData.Delegate",
						"members": [
							{
								"astId": 452,
								"contract": "contracts/Template/Istanbul10/logic/Vote.sol:Vote",
								"label": "voted",
								"offset": 0,
								"slot": "0",
								"type": "t_bool"
							},
							{
								"astId": 455,
								"contract": "contracts/Template/Istanbul10/logic/Vote.sol:Vote",
								"label": "bailor",
								"offset": 0,
								"slot": "1",
								"type": "t_array(t_address)dyn_storage"
							}
						],
						"numberOfBytes": "64"
					},
					"t_struct(GgovernanceTemplate)465_storage": {
						"encoding": "inplace",
						"label": "struct VoteData.GgovernanceTemplate",
						"members": [
							{
								"astId": 458,
								"contract": "contracts/Template/Istanbul10/logic/Vote.sol:Vote",
								"label": "templateId",
								"offset": 0,
								"slot": "0",
								"type": "t_uint256"
							},
							{
								"astId": 460,
								"contract": "contracts/Template/Istanbul10/logic/Vote.sol:Vote",
								"label": "toppic",
								"offset": 0,
								"slot": "1",
								"type": "t_string_storage"
							},
							{
								"astId": 462,
								"contract": "contracts/Template/Istanbul10/logic/Vote.sol:Vote",
								"label": "targetAddress",
								"offset": 0,
								"slot": "2",
								"type": "t_address"
							},
							{
								"astId": 464,
								"contract": "contracts/Template/Istanbul10/logic/Vote.sol:Vote",
								"label": "functionName",
								"offset": 0,
								"slot": "3",
								"type": "t_string_storage"
							}
						],
						"numberOfBytes": "128"
					},
					"t_struct(SecondBallot)450_storage": {
						"encoding": "inplace",
						"label": "struct VoteData.SecondBallot",
						"members": [
							{
								"astId": 438,
								"contract": "contracts/Template/Istanbul10/logic/Vote.sol:Vote",
								"label": "vetoer",
								"offset": 0,
								"slot": "0",
								"type": "t_address"
							},
							{
								"astId": 440,
								"contract": "contracts/Template/Istanbul10/logic/Vote.sol:Vote",
								"label": "describe",
								"offset": 0,
								"slot": "1",
								"type": "t_string_storage"
							},
							{
								"astId": 442,
								"contract": "contracts/Template/Istanbul10/logic/Vote.sol:Vote",
								"label": "supPopel",
								"offset": 0,
								"slot": "2",
								"type": "t_uint256"
							},
							{
								"astId": 444,
								"contract": "contracts/Template/Istanbul10/logic/Vote.sol:Vote",
								"label": "againstPopel",
								"offset": 0,
								"slot": "3",
								"type": "t_uint256"
							},
							{
								"astId": 449,
								"contract": "contracts/Template/Istanbul10/logic/Vote.sol:Vote",
								"label": "VoterAddress",
								"offset": 0,
								"slot": "4",
								"type": "t_mapping(t_address,t_struct(Delegate)456_storage)"
							}
						],
						"numberOfBytes": "160"
					},
					"t_struct(VoteStruct)436_storage": {
						"encoding": "inplace",
						"label": "struct VoteData.VoteStruct",
						"members": [
							{
								"astId": 406,
								"contract": "contracts/Template/Istanbul10/logic/Vote.sol:Vote",
								"label": "totalsupply",
								"offset": 0,
								"slot": "0",
								"type": "t_uint256"
							},
							{
								"astId": 408,
								"contract": "contracts/Template/Istanbul10/logic/Vote.sol:Vote",
								"label": "voteId",
								"offset": 0,
								"slot": "1",
								"type": "t_uint256"
							},
							{
								"astId": 410,
								"contract": "contracts/Template/Istanbul10/logic/Vote.sol:Vote",
								"label": "time",
								"offset": 0,
								"slot": "2",
								"type": "t_uint256"
							},
							{
								"astId": 412,
								"contract": "contracts/Template/Istanbul10/logic/Vote.sol:Vote",
								"label": "voteTopic",
								"offset": 0,
								"slot": "3",
								"type": "t_string_storage"
							},
							{
								"astId": 414,
								"contract": "contracts/Template/Istanbul10/logic/Vote.sol:Vote",
								"label": "initiator",
								"offset": 0,
								"slot": "4",
								"type": "t_address"
							},
							{
								"astId": 416,
								"contract": "contracts/Template/Istanbul10/logic/Vote.sol:Vote",
								"label": "describe",
								"offset": 0,
								"slot": "5",
								"type": "t_string_storage"
							},
							{
								"astId": 418,
								"contract": "contracts/Template/Istanbul10/logic/Vote.sol:Vote",
								"label": "supPopel",
								"offset": 0,
								"slot": "6",
								"type": "t_uint256"
							},
							{
								"astId": 420,
								"contract": "contracts/Template/Istanbul10/logic/Vote.sol:Vote",
								"label": "againstPopel",
								"offset": 0,
								"slot": "7",
								"type": "t_uint256"
							},
							{
								"astId": 423,
								"contract": "contracts/Template/Istanbul10/logic/Vote.sol:Vote",
								"label": "status",
								"offset": 0,
								"slot": "8",
								"type": "t_enum(VoteStatus)369"
							},
							{
								"astId": 425,
								"contract": "contracts/Template/Istanbul10/logic/Vote.sol:Vote",
								"label": "codeModel",
								"offset": 0,
								"slot": "9",
								"type": "t_uint256"
							},
							{
								"astId": 427,
								"contract": "contracts/Template/Istanbul10/logic/Vote.sol:Vote",
								"label": "value",
								"offset": 0,
								"slot": "10",
								"type": "t_uint256"
							},
							{
								"astId": 432,
								"contract": "contracts/Template/Istanbul10/logic/Vote.sol:Vote",
								"label": "VoterAddress",
								"offset": 0,
								"slot": "11",
								"type": "t_mapping(t_address,t_struct(Delegate)456_storage)"
							},
							{
								"astId": 435,
								"contract": "contracts/Template/Istanbul10/logic/Vote.sol:Vote",
								"label": "svote",
								"offset": 0,
								"slot": "12",
								"type": "t_struct(SecondBallot)450_storage"
							}
						],
						"numberOfBytes": "544"
					},
					"t_uint256": {
						"encoding": "inplace",
						"label": "uint256",
						"numberOfBytes": "32"
					}
				}
			},
			"userdoc": {
				"kind": "user",
				"methods": {
					"createVote(string,string,uint256,uint256)": {
						"notice": "notion createVote. param  codeModel_  GovernanceTemplate ID."
					},
					"execute(uint256)": {
						"notice": "notion If the vote passes execute the proposal. param  voteId_   voteID"
					},
					"initialize()": {
						"notice": "param  _veToken the  value for  connect veToken"
					},
					"reject(uint256,string)": {
						"notice": "notion rejecting the proposal. param  _voteId   VoteId param  _reasons   The reasons for rejecting the proposal"
					},
					"setGovernanceTemplate(string,address,string)": {
						"notice": "notion Templates should be set up before voting"
					},
					"toVote(uint256,bool)": {
						"notice": "notion Vote. param  result_   VoteId param  voteId_  false or true"
					}
				},
				"version": 1
			}
		}
	}
}