{
	"contracts/Template/Istanbul10/data/AuctionData.sol": {
		"AuctionData": {
			"abi": [
				{
					"inputs": [
						{
							"internalType": "uint256",
							"name": "",
							"type": "uint256"
						}
					],
					"name": "EntireVaultNft",
					"outputs": [
						{
							"internalType": "uint256",
							"name": "",
							"type": "uint256"
						}
					],
					"stateMutability": "view",
					"type": "function"
				},
				{
					"inputs": [],
					"name": "EntireVaultPrice",
					"outputs": [
						{
							"internalType": "uint256",
							"name": "",
							"type": "uint256"
						}
					],
					"stateMutability": "view",
					"type": "function"
				},
				{
					"inputs": [],
					"name": "auctionEnd",
					"outputs": [
						{
							"internalType": "uint256",
							"name": "",
							"type": "uint256"
						}
					],
					"stateMutability": "view",
					"type": "function"
				},
				{
					"inputs": [],
					"name": "auctionLength",
					"outputs": [
						{
							"internalType": "uint256",
							"name": "",
							"type": "uint256"
						}
					],
					"stateMutability": "view",
					"type": "function"
				},
				{
					"inputs": [],
					"name": "initializer",
					"outputs": [
						{
							"internalType": "bool",
							"name": "",
							"type": "bool"
						}
					],
					"stateMutability": "view",
					"type": "function"
				},
				{
					"inputs": [],
					"name": "livePrice",
					"outputs": [
						{
							"internalType": "uint256",
							"name": "",
							"type": "uint256"
						}
					],
					"stateMutability": "view",
					"type": "function"
				},
				{
					"inputs": [],
					"name": "router",
					"outputs": [
						{
							"internalType": "address",
							"name": "",
							"type": "address"
						}
					],
					"stateMutability": "view",
					"type": "function"
				},
				{
					"inputs": [
						{
							"internalType": "address",
							"name": "",
							"type": "address"
						},
						{
							"internalType": "uint256",
							"name": "",
							"type": "uint256"
						}
					],
					"name": "singleNftPrice",
					"outputs": [
						{
							"internalType": "uint256",
							"name": "",
							"type": "uint256"
						}
					],
					"stateMutability": "view",
					"type": "function"
				},
				{
					"inputs": [],
					"name": "vault",
					"outputs": [
						{
							"internalType": "address",
							"name": "",
							"type": "address"
						}
					],
					"stateMutability": "view",
					"type": "function"
				},
				{
					"inputs": [],
					"name": "winning",
					"outputs": [
						{
							"internalType": "address payable",
							"name": "",
							"type": "address"
						}
					],
					"stateMutability": "view",
					"type": "function"
				}
			],
			"devdoc": {
				"kind": "dev",
				"methods": {},
				"version": 1
			},
			"evm": {
				"assembly": "    /* \"contracts/Template/Istanbul10/data/AuctionData.sol\":59:557  contract AuctionData {\r... */\n  mstore(0x40, 0x80)\n  callvalue\n  dup1\n  iszero\n  tag_1\n  jumpi\n  0x00\n  dup1\n  revert\ntag_1:\n  pop\n  dataSize(sub_0)\n  dup1\n  dataOffset(sub_0)\n  0x00\n  codecopy\n  0x00\n  return\nstop\n\nsub_0: assembly {\n        /* \"contracts/Template/Istanbul10/data/AuctionData.sol\":59:557  contract AuctionData {\r... */\n      mstore(0x40, 0x80)\n      callvalue\n      dup1\n      iszero\n      tag_1\n      jumpi\n      0x00\n      dup1\n      revert\n    tag_1:\n      pop\n      jumpi(tag_2, lt(calldatasize, 0x04))\n      shr(0xe0, calldataload(0x00))\n      dup1\n      0x9ce110d7\n      gt\n      tag_13\n      jumpi\n      dup1\n      0x9ce110d7\n      eq\n      tag_8\n      jumpi\n      dup1\n      0xcf3bfa24\n      eq\n      tag_9\n      jumpi\n      dup1\n      0xd80e069c\n      eq\n      tag_10\n      jumpi\n      dup1\n      0xf887ea40\n      eq\n      tag_11\n      jumpi\n      dup1\n      0xfbfa77cf\n      eq\n      tag_12\n      jumpi\n      0x00\n      dup1\n      revert\n    tag_13:\n      dup1\n      0x022bb886\n      eq\n      tag_3\n      jumpi\n      dup1\n      0x2a24f46c\n      eq\n      tag_4\n      jumpi\n      dup1\n      0x325c25a2\n      eq\n      tag_5\n      jumpi\n      dup1\n      0x6da84e6c\n      eq\n      tag_6\n      jumpi\n      dup1\n      0x853a1b90\n      eq\n      tag_7\n      jumpi\n    tag_2:\n      0x00\n      dup1\n      revert\n        /* \"contracts/Template/Istanbul10/data/AuctionData.sol\":204:235  uint256 public EntireVaultPrice */\n    tag_3:\n      tag_14\n      sload(0x02)\n      dup2\n      jump\n    tag_14:\n      mload(0x40)\n        /* \"#utility.yul\":1328:1353   */\n      swap1\n      dup2\n      mstore\n        /* \"#utility.yul\":1316:1318   */\n      0x20\n        /* \"#utility.yul\":1301:1319   */\n      add\n        /* \"contracts/Template/Istanbul10/data/AuctionData.sol\":204:235  uint256 public EntireVaultPrice */\n    tag_16:\n      mload(0x40)\n      dup1\n      swap2\n      sub\n      swap1\n      return\n        /* \"contracts/Template/Istanbul10/data/AuctionData.sol\":361:386  uint256 public auctionEnd */\n    tag_4:\n      tag_14\n      sload(0x05)\n      dup2\n      jump\n        /* \"contracts/Template/Istanbul10/data/AuctionData.sol\":244:272  uint256 public auctionLength */\n    tag_5:\n      tag_14\n      sload(0x03)\n      dup2\n      jump\n        /* \"contracts/Template/Istanbul10/data/AuctionData.sol\":398:422  uint256 public livePrice */\n    tag_6:\n      tag_14\n      sload(0x06)\n      dup2\n      jump\n        /* \"contracts/Template/Istanbul10/data/AuctionData.sol\":431:461  address payable public winning */\n    tag_7:\n      sload(0x07)\n      tag_27\n      swap1\n      sub(shl(0xa0, 0x01), 0x01)\n      and\n      dup2\n      jump\n    tag_27:\n      mload(0x40)\n      sub(shl(0xa0, 0x01), 0x01)\n        /* \"#utility.yul\":722:754   */\n      swap1\n      swap2\n      and\n        /* \"#utility.yul\":704:755   */\n      dup2\n      mstore\n        /* \"#utility.yul\":692:694   */\n      0x20\n        /* \"#utility.yul\":677:695   */\n      add\n        /* \"contracts/Template/Istanbul10/data/AuctionData.sol\":431:461  address payable public winning */\n      tag_16\n        /* \"#utility.yul\":659:761   */\n      jump\n        /* \"contracts/Template/Istanbul10/data/AuctionData.sol\":172:195  bool public initializer */\n    tag_8:\n      sload(0x01)\n      tag_31\n      swap1\n      shl(0xa0, 0x01)\n      swap1\n      div\n      0xff\n      and\n      dup2\n      jump\n    tag_31:\n      mload(0x40)\n        /* \"#utility.yul\":1155:1169   */\n      swap1\n      iszero\n        /* \"#utility.yul\":1148:1170   */\n      iszero\n        /* \"#utility.yul\":1130:1171   */\n      dup2\n      mstore\n        /* \"#utility.yul\":1118:1120   */\n      0x20\n        /* \"#utility.yul\":1103:1121   */\n      add\n        /* \"contracts/Template/Istanbul10/data/AuctionData.sol\":172:195  bool public initializer */\n      tag_16\n        /* \"#utility.yul\":1085:1177   */\n      jump\n        /* \"contracts/Template/Istanbul10/data/AuctionData.sol\":282:352  mapping (address => mapping (uint256 =>uint256)) public singleNftPrice */\n    tag_9:\n      tag_14\n      tag_36\n      calldatasize\n      0x04\n      tag_37\n      jump\t// in\n    tag_36:\n      0x04\n      0x20\n      swap1\n      dup2\n      mstore\n      0x00\n      swap3\n      dup4\n      mstore\n      0x40\n      dup1\n      dup5\n      keccak256\n      swap1\n      swap2\n      mstore\n      swap1\n      dup3\n      mstore\n      swap1\n      keccak256\n      sload\n      dup2\n      jump\n        /* \"contracts/Template/Istanbul10/data/AuctionData.sol\":522:553  uint256[] public EntireVaultNft */\n    tag_10:\n      tag_14\n      tag_41\n      calldatasize\n      0x04\n      tag_42\n      jump\t// in\n    tag_41:\n      tag_43\n      jump\t// in\n        /* \"contracts/Template/Istanbul10/data/AuctionData.sol\":109:130  address public router */\n    tag_11:\n      sload(0x00)\n      tag_27\n      swap1\n      sub(shl(0xa0, 0x01), 0x01)\n      and\n      dup2\n      jump\n        /* \"contracts/Template/Istanbul10/data/AuctionData.sol\":139:159  address public vault */\n    tag_12:\n      sload(0x01)\n      tag_27\n      swap1\n      sub(shl(0xa0, 0x01), 0x01)\n      and\n      dup2\n      jump\n        /* \"contracts/Template/Istanbul10/data/AuctionData.sol\":522:553  uint256[] public EntireVaultNft */\n    tag_43:\n      0x08\n      dup2\n      dup2\n      sload\n      dup2\n      lt\n      tag_52\n      jumpi\n      0x00\n      dup1\n      revert\n    tag_52:\n      0x00\n      swap2\n      dup3\n      mstore\n      0x20\n      swap1\n      swap2\n      keccak256\n      add\n      sload\n      swap1\n      pop\n      dup2\n      jump\t// out\n        /* \"#utility.yul\":14:368   */\n    tag_37:\n        /* \"#utility.yul\":82:88   */\n      0x00\n        /* \"#utility.yul\":90:96   */\n      dup1\n        /* \"#utility.yul\":143:145   */\n      0x40\n        /* \"#utility.yul\":131:140   */\n      dup4\n        /* \"#utility.yul\":122:129   */\n      dup6\n        /* \"#utility.yul\":118:141   */\n      sub\n        /* \"#utility.yul\":114:146   */\n      slt\n        /* \"#utility.yul\":111:113   */\n      iszero\n      tag_56\n      jumpi\n        /* \"#utility.yul\":159:160   */\n      0x00\n        /* \"#utility.yul\":156:157   */\n      dup1\n        /* \"#utility.yul\":149:161   */\n      revert\n        /* \"#utility.yul\":111:113   */\n    tag_56:\n        /* \"#utility.yul\":185:208   */\n      dup3\n      calldataload\n      sub(shl(0xa0, 0x01), 0x01)\n        /* \"#utility.yul\":237:268   */\n      dup2\n      and\n        /* \"#utility.yul\":227:269   */\n      dup2\n      eq\n        /* \"#utility.yul\":217:219   */\n      tag_57\n      jumpi\n        /* \"#utility.yul\":283:284   */\n      0x00\n        /* \"#utility.yul\":280:281   */\n      dup1\n        /* \"#utility.yul\":273:285   */\n      revert\n        /* \"#utility.yul\":217:219   */\n    tag_57:\n        /* \"#utility.yul\":306:311   */\n      swap5\n        /* \"#utility.yul\":358:360   */\n      0x20\n        /* \"#utility.yul\":343:361   */\n      swap4\n      swap1\n      swap4\n      add\n        /* \"#utility.yul\":330:362   */\n      calldataload\n      swap4\n      pop\n      pop\n      pop\n        /* \"#utility.yul\":101:368   */\n      jump\t// out\n        /* \"#utility.yul\":373:553   */\n    tag_42:\n        /* \"#utility.yul\":432:438   */\n      0x00\n        /* \"#utility.yul\":485:487   */\n      0x20\n        /* \"#utility.yul\":473:482   */\n      dup3\n        /* \"#utility.yul\":464:471   */\n      dup5\n        /* \"#utility.yul\":460:483   */\n      sub\n        /* \"#utility.yul\":456:488   */\n      slt\n        /* \"#utility.yul\":453:455   */\n      iszero\n      tag_59\n      jumpi\n        /* \"#utility.yul\":501:502   */\n      0x00\n        /* \"#utility.yul\":498:499   */\n      dup1\n        /* \"#utility.yul\":491:503   */\n      revert\n        /* \"#utility.yul\":453:455   */\n    tag_59:\n      pop\n        /* \"#utility.yul\":524:547   */\n      calldataload\n      swap2\n        /* \"#utility.yul\":443:553   */\n      swap1\n      pop\n      jump\t// out\n\n    auxdata: 0xa2646970667358221220f5d5100eb7f27732026b0ad84fa1faff254ba8efe5a6741faca69114a317587064736f6c63430008050033\n}\n",
				"bytecode": {
					"linkReferences": {},
					"object": "608060405234801561001057600080fd5b50610235806100206000396000f3fe608060405234801561001057600080fd5b506004361061009e5760003560e01c80639ce110d7116100665780639ce110d714610105578063cf3bfa2414610129578063d80e069c14610154578063f887ea4014610167578063fbfa77cf1461017a57600080fd5b8063022bb886146100a35780632a24f46c146100bf578063325c25a2146100c85780636da84e6c146100d1578063853a1b90146100da575b600080fd5b6100ac60025481565b6040519081526020015b60405180910390f35b6100ac60055481565b6100ac60035481565b6100ac60065481565b6007546100ed906001600160a01b031681565b6040516001600160a01b0390911681526020016100b6565b60015461011990600160a01b900460ff1681565b60405190151581526020016100b6565b6100ac6101373660046101ae565b600460209081526000928352604080842090915290825290205481565b6100ac6101623660046101e6565b61018d565b6000546100ed906001600160a01b031681565b6001546100ed906001600160a01b031681565b6008818154811061019d57600080fd5b600091825260209091200154905081565b600080604083850312156101c157600080fd5b82356001600160a01b03811681146101d857600080fd5b946020939093013593505050565b6000602082840312156101f857600080fd5b503591905056fea2646970667358221220f5d5100eb7f27732026b0ad84fa1faff254ba8efe5a6741faca69114a317587064736f6c63430008050033",
					"opcodes": "PUSH1 0x80 PUSH1 0x40 MSTORE CALLVALUE DUP1 ISZERO PUSH2 0x10 JUMPI PUSH1 0x0 DUP1 REVERT JUMPDEST POP PUSH2 0x235 DUP1 PUSH2 0x20 PUSH1 0x0 CODECOPY PUSH1 0x0 RETURN INVALID PUSH1 0x80 PUSH1 0x40 MSTORE CALLVALUE DUP1 ISZERO PUSH2 0x10 JUMPI PUSH1 0x0 DUP1 REVERT JUMPDEST POP PUSH1 0x4 CALLDATASIZE LT PUSH2 0x9E JUMPI PUSH1 0x0 CALLDATALOAD PUSH1 0xE0 SHR DUP1 PUSH4 0x9CE110D7 GT PUSH2 0x66 JUMPI DUP1 PUSH4 0x9CE110D7 EQ PUSH2 0x105 JUMPI DUP1 PUSH4 0xCF3BFA24 EQ PUSH2 0x129 JUMPI DUP1 PUSH4 0xD80E069C EQ PUSH2 0x154 JUMPI DUP1 PUSH4 0xF887EA40 EQ PUSH2 0x167 JUMPI DUP1 PUSH4 0xFBFA77CF EQ PUSH2 0x17A JUMPI PUSH1 0x0 DUP1 REVERT JUMPDEST DUP1 PUSH4 0x22BB886 EQ PUSH2 0xA3 JUMPI DUP1 PUSH4 0x2A24F46C EQ PUSH2 0xBF JUMPI DUP1 PUSH4 0x325C25A2 EQ PUSH2 0xC8 JUMPI DUP1 PUSH4 0x6DA84E6C EQ PUSH2 0xD1 JUMPI DUP1 PUSH4 0x853A1B90 EQ PUSH2 0xDA JUMPI JUMPDEST PUSH1 0x0 DUP1 REVERT JUMPDEST PUSH2 0xAC PUSH1 0x2 SLOAD DUP2 JUMP JUMPDEST PUSH1 0x40 MLOAD SWAP1 DUP2 MSTORE PUSH1 0x20 ADD JUMPDEST PUSH1 0x40 MLOAD DUP1 SWAP2 SUB SWAP1 RETURN JUMPDEST PUSH2 0xAC PUSH1 0x5 SLOAD DUP2 JUMP JUMPDEST PUSH2 0xAC PUSH1 0x3 SLOAD DUP2 JUMP JUMPDEST PUSH2 0xAC PUSH1 0x6 SLOAD DUP2 JUMP JUMPDEST PUSH1 0x7 SLOAD PUSH2 0xED SWAP1 PUSH1 0x1 PUSH1 0x1 PUSH1 0xA0 SHL SUB AND DUP2 JUMP JUMPDEST PUSH1 0x40 MLOAD PUSH1 0x1 PUSH1 0x1 PUSH1 0xA0 SHL SUB SWAP1 SWAP2 AND DUP2 MSTORE PUSH1 0x20 ADD PUSH2 0xB6 JUMP JUMPDEST PUSH1 0x1 SLOAD PUSH2 0x119 SWAP1 PUSH1 0x1 PUSH1 0xA0 SHL SWAP1 DIV PUSH1 0xFF AND DUP2 JUMP JUMPDEST PUSH1 0x40 MLOAD SWAP1 ISZERO ISZERO DUP2 MSTORE PUSH1 0x20 ADD PUSH2 0xB6 JUMP JUMPDEST PUSH2 0xAC PUSH2 0x137 CALLDATASIZE PUSH1 0x4 PUSH2 0x1AE JUMP JUMPDEST PUSH1 0x4 PUSH1 0x20 SWAP1 DUP2 MSTORE PUSH1 0x0 SWAP3 DUP4 MSTORE PUSH1 0x40 DUP1 DUP5 KECCAK256 SWAP1 SWAP2 MSTORE SWAP1 DUP3 MSTORE SWAP1 KECCAK256 SLOAD DUP2 JUMP JUMPDEST PUSH2 0xAC PUSH2 0x162 CALLDATASIZE PUSH1 0x4 PUSH2 0x1E6 JUMP JUMPDEST PUSH2 0x18D JUMP JUMPDEST PUSH1 0x0 SLOAD PUSH2 0xED SWAP1 PUSH1 0x1 PUSH1 0x1 PUSH1 0xA0 SHL SUB AND DUP2 JUMP JUMPDEST PUSH1 0x1 SLOAD PUSH2 0xED SWAP1 PUSH1 0x1 PUSH1 0x1 PUSH1 0xA0 SHL SUB AND DUP2 JUMP JUMPDEST PUSH1 0x8 DUP2 DUP2 SLOAD DUP2 LT PUSH2 0x19D JUMPI PUSH1 0x0 DUP1 REVERT JUMPDEST PUSH1 0x0 SWAP2 DUP3 MSTORE PUSH1 0x20 SWAP1 SWAP2 KECCAK256 ADD SLOAD SWAP1 POP DUP2 JUMP JUMPDEST PUSH1 0x0 DUP1 PUSH1 0x40 DUP4 DUP6 SUB SLT ISZERO PUSH2 0x1C1 JUMPI PUSH1 0x0 DUP1 REVERT JUMPDEST DUP3 CALLDATALOAD PUSH1 0x1 PUSH1 0x1 PUSH1 0xA0 SHL SUB DUP2 AND DUP2 EQ PUSH2 0x1D8 JUMPI PUSH1 0x0 DUP1 REVERT JUMPDEST SWAP5 PUSH1 0x20 SWAP4 SWAP1 SWAP4 ADD CALLDATALOAD SWAP4 POP POP POP JUMP JUMPDEST PUSH1 0x0 PUSH1 0x20 DUP3 DUP5 SUB SLT ISZERO PUSH2 0x1F8 JUMPI PUSH1 0x0 DUP1 REVERT JUMPDEST POP CALLDATALOAD SWAP2 SWAP1 POP JUMP INVALID LOG2 PUSH5 0x6970667358 0x22 SLT KECCAK256 CREATE2 0xD5 LT 0xE 0xB7 CALLCODE PUSH24 0x32026B0AD84FA1FAFF254BA8EFE5A6741FACA69114A31758 PUSH17 0x64736F6C63430008050033000000000000 "
				},
				"gasEstimates": {
					"creation": {
						"codeDepositCost": "113000",
						"executionCost": "159",
						"totalCost": "113159"
					},
					"external": {
						"EntireVaultNft(uint256)": "4608",
						"EntireVaultPrice()": "2285",
						"auctionEnd()": "2307",
						"auctionLength()": "2329",
						"initializer()": "2327",
						"livePrice()": "2351",
						"router()": "2403",
						"singleNftPrice(address,uint256)": "2588",
						"vault()": "2425",
						"winning()": "2426"
					}
				},
				"methodIdentifiers": {
					"EntireVaultNft(uint256)": "d80e069c",
					"EntireVaultPrice()": "022bb886",
					"auctionEnd()": "2a24f46c",
					"auctionLength()": "325c25a2",
					"initializer()": "9ce110d7",
					"livePrice()": "6da84e6c",
					"router()": "f887ea40",
					"singleNftPrice(address,uint256)": "cf3bfa24",
					"vault()": "fbfa77cf",
					"winning()": "853a1b90"
				}
			},
			"storageLayout": {
				"storage": [
					{
						"astId": 335,
						"contract": "contracts/Template/Istanbul10/data/AuctionData.sol:AuctionData",
						"label": "router",
						"offset": 0,
						"slot": "0",
						"type": "t_address"
					},
					{
						"astId": 337,
						"contract": "contracts/Template/Istanbul10/data/AuctionData.sol:AuctionData",
						"label": "vault",
						"offset": 0,
						"slot": "1",
						"type": "t_address"
					},
					{
						"astId": 339,
						"contract": "contracts/Template/Istanbul10/data/AuctionData.sol:AuctionData",
						"label": "initializer",
						"offset": 20,
						"slot": "1",
						"type": "t_bool"
					},
					{
						"astId": 341,
						"contract": "contracts/Template/Istanbul10/data/AuctionData.sol:AuctionData",
						"label": "EntireVaultPrice",
						"offset": 0,
						"slot": "2",
						"type": "t_uint256"
					},
					{
						"astId": 343,
						"contract": "contracts/Template/Istanbul10/data/AuctionData.sol:AuctionData",
						"label": "auctionLength",
						"offset": 0,
						"slot": "3",
						"type": "t_uint256"
					},
					{
						"astId": 349,
						"contract": "contracts/Template/Istanbul10/data/AuctionData.sol:AuctionData",
						"label": "singleNftPrice",
						"offset": 0,
						"slot": "4",
						"type": "t_mapping(t_address,t_mapping(t_uint256,t_uint256))"
					},
					{
						"astId": 351,
						"contract": "contracts/Template/Istanbul10/data/AuctionData.sol:AuctionData",
						"label": "auctionEnd",
						"offset": 0,
						"slot": "5",
						"type": "t_uint256"
					},
					{
						"astId": 353,
						"contract": "contracts/Template/Istanbul10/data/AuctionData.sol:AuctionData",
						"label": "livePrice",
						"offset": 0,
						"slot": "6",
						"type": "t_uint256"
					},
					{
						"astId": 355,
						"contract": "contracts/Template/Istanbul10/data/AuctionData.sol:AuctionData",
						"label": "winning",
						"offset": 0,
						"slot": "7",
						"type": "t_address_payable"
					},
					{
						"astId": 362,
						"contract": "contracts/Template/Istanbul10/data/AuctionData.sol:AuctionData",
						"label": "EntireVaultNft",
						"offset": 0,
						"slot": "8",
						"type": "t_array(t_uint256)dyn_storage"
					}
				],
				"types": {
					"t_address": {
						"encoding": "inplace",
						"label": "address",
						"numberOfBytes": "20"
					},
					"t_address_payable": {
						"encoding": "inplace",
						"label": "address payable",
						"numberOfBytes": "20"
					},
					"t_array(t_uint256)dyn_storage": {
						"base": "t_uint256",
						"encoding": "dynamic_array",
						"label": "uint256[]",
						"numberOfBytes": "32"
					},
					"t_bool": {
						"encoding": "inplace",
						"label": "bool",
						"numberOfBytes": "1"
					},
					"t_mapping(t_address,t_mapping(t_uint256,t_uint256))": {
						"encoding": "mapping",
						"key": "t_address",
						"label": "mapping(address => mapping(uint256 => uint256))",
						"numberOfBytes": "32",
						"value": "t_mapping(t_uint256,t_uint256)"
					},
					"t_mapping(t_uint256,t_uint256)": {
						"encoding": "mapping",
						"key": "t_uint256",
						"label": "mapping(uint256 => uint256)",
						"numberOfBytes": "32",
						"value": "t_uint256"
					},
					"t_uint256": {
						"encoding": "inplace",
						"label": "uint256",
						"numberOfBytes": "32"
					}
				}
			},
			"userdoc": {
				"kind": "user",
				"methods": {},
				"version": 1
			}
		}
	}
}