{
	"contracts/Template/Istanbul10/logic/Auction.sol": {
		"Auction": {
			"abi": [
				{
					"anonymous": false,
					"inputs": [
						{
							"indexed": true,
							"internalType": "address",
							"name": "buyer",
							"type": "address"
						},
						{
							"indexed": false,
							"internalType": "uint256",
							"name": "price",
							"type": "uint256"
						}
					],
					"name": "Bid",
					"type": "event"
				},
				{
					"anonymous": false,
					"inputs": [
						{
							"indexed": false,
							"internalType": "uint256",
							"name": "price",
							"type": "uint256"
						}
					],
					"name": "EntirePrice",
					"type": "event"
				},
				{
					"anonymous": false,
					"inputs": [
						{
							"indexed": true,
							"internalType": "address",
							"name": "buyer",
							"type": "address"
						},
						{
							"indexed": false,
							"internalType": "uint256",
							"name": "price",
							"type": "uint256"
						}
					],
					"name": "Start",
					"type": "event"
				},
				{
					"anonymous": false,
					"inputs": [
						{
							"indexed": false,
							"internalType": "uint256",
							"name": "length",
							"type": "uint256"
						}
					],
					"name": "UpdateAuctionLength",
					"type": "event"
				},
				{
					"anonymous": false,
					"inputs": [
						{
							"indexed": true,
							"internalType": "address",
							"name": "buyer",
							"type": "address"
						},
						{
							"indexed": false,
							"internalType": "uint256",
							"name": "price",
							"type": "uint256"
						}
					],
					"name": "Won",
					"type": "event"
				},
				{
					"inputs": [
						{
							"internalType": "uint256",
							"name": "",
							"type": "uint256"
						}
					],
					"name": "EntireVaultNft",
					"outputs": [
						{
							"internalType": "uint256",
							"name": "",
							"type": "uint256"
						}
					],
					"stateMutability": "view",
					"type": "function"
				},
				{
					"inputs": [],
					"name": "EntireVaultPrice",
					"outputs": [
						{
							"internalType": "uint256",
							"name": "",
							"type": "uint256"
						}
					],
					"stateMutability": "view",
					"type": "function"
				},
				{
					"inputs": [],
					"name": "auctionEnd",
					"outputs": [
						{
							"internalType": "uint256",
							"name": "",
							"type": "uint256"
						}
					],
					"stateMutability": "view",
					"type": "function"
				},
				{
					"inputs": [],
					"name": "auctionLength",
					"outputs": [
						{
							"internalType": "uint256",
							"name": "",
							"type": "uint256"
						}
					],
					"stateMutability": "view",
					"type": "function"
				},
				{
					"inputs": [],
					"name": "bid",
					"outputs": [],
					"stateMutability": "payable",
					"type": "function"
				},
				{
					"inputs": [],
					"name": "end",
					"outputs": [],
					"stateMutability": "nonpayable",
					"type": "function"
				},
				{
					"inputs": [],
					"name": "getSettings",
					"outputs": [
						{
							"internalType": "contract ISettings",
							"name": "",
							"type": "address"
						}
					],
					"stateMutability": "view",
					"type": "function"
				},
				{
					"inputs": [],
					"name": "getVault",
					"outputs": [
						{
							"internalType": "contract IVault",
							"name": "",
							"type": "address"
						}
					],
					"stateMutability": "view",
					"type": "function"
				},
				{
					"inputs": [],
					"name": "getVaultAddress",
					"outputs": [
						{
							"internalType": "address",
							"name": "",
							"type": "address"
						}
					],
					"stateMutability": "view",
					"type": "function"
				},
				{
					"inputs": [],
					"name": "initialize",
					"outputs": [],
					"stateMutability": "nonpayable",
					"type": "function"
				},
				{
					"inputs": [],
					"name": "initializer",
					"outputs": [
						{
							"internalType": "bool",
							"name": "",
							"type": "bool"
						}
					],
					"stateMutability": "view",
					"type": "function"
				},
				{
					"inputs": [],
					"name": "livePrice",
					"outputs": [
						{
							"internalType": "uint256",
							"name": "",
							"type": "uint256"
						}
					],
					"stateMutability": "view",
					"type": "function"
				},
				{
					"inputs": [],
					"name": "router",
					"outputs": [
						{
							"internalType": "address",
							"name": "",
							"type": "address"
						}
					],
					"stateMutability": "view",
					"type": "function"
				},
				{
					"inputs": [
						{
							"internalType": "uint256",
							"name": "_price",
							"type": "uint256"
						}
					],
					"name": "setPrice",
					"outputs": [],
					"stateMutability": "nonpayable",
					"type": "function"
				},
				{
					"inputs": [
						{
							"internalType": "address",
							"name": "",
							"type": "address"
						},
						{
							"internalType": "uint256",
							"name": "",
							"type": "uint256"
						}
					],
					"name": "singleNftPrice",
					"outputs": [
						{
							"internalType": "uint256",
							"name": "",
							"type": "uint256"
						}
					],
					"stateMutability": "view",
					"type": "function"
				},
				{
					"inputs": [],
					"name": "start",
					"outputs": [],
					"stateMutability": "payable",
					"type": "function"
				},
				{
					"inputs": [
						{
							"internalType": "uint256",
							"name": "_length",
							"type": "uint256"
						}
					],
					"name": "updateAuctionLength",
					"outputs": [],
					"stateMutability": "nonpayable",
					"type": "function"
				},
				{
					"inputs": [
						{
							"internalType": "string",
							"name": "a",
							"type": "string"
						},
						{
							"internalType": "string",
							"name": "b",
							"type": "string"
						}
					],
					"name": "utilCompareInternal",
					"outputs": [
						{
							"internalType": "bool",
							"name": "",
							"type": "bool"
						}
					],
					"stateMutability": "view",
					"type": "function"
				},
				{
					"inputs": [],
					"name": "vault",
					"outputs": [
						{
							"internalType": "address",
							"name": "",
							"type": "address"
						}
					],
					"stateMutability": "view",
					"type": "function"
				},
				{
					"inputs": [],
					"name": "winning",
					"outputs": [
						{
							"internalType": "address payable",
							"name": "",
							"type": "address"
						}
					],
					"stateMutability": "view",
					"type": "function"
				}
			],
			"devdoc": {
				"kind": "dev",
				"methods": {},
				"version": 1
			},
			"evm": {
				"assembly": "    /* \"contracts/Template/Istanbul10/logic/Auction.sol\":296:4961  contract Auction is AuctionData {\r... */\n  mstore(0x40, 0x80)\n  callvalue\n  dup1\n  iszero\n  tag_1\n  jumpi\n  0x00\n  dup1\n  revert\ntag_1:\n  pop\n  dataSize(sub_0)\n  dup1\n  dataOffset(sub_0)\n  0x00\n  codecopy\n  0x00\n  return\nstop\n\nsub_0: assembly {\n        /* \"contracts/Template/Istanbul10/logic/Auction.sol\":296:4961  contract Auction is AuctionData {\r... */\n      mstore(0x40, 0x80)\n      jumpi(tag_1, lt(calldatasize, 0x04))\n      shr(0xe0, calldataload(0x00))\n      dup1\n      0x8d928af8\n      gt\n      tag_22\n      jumpi\n      dup1\n      0xcf3bfa24\n      gt\n      tag_23\n      jumpi\n      dup1\n      0xcf3bfa24\n      eq\n      tag_17\n      jumpi\n      dup1\n      0xd80e069c\n      eq\n      tag_18\n      jumpi\n      dup1\n      0xefbe1c1c\n      eq\n      tag_19\n      jumpi\n      dup1\n      0xf887ea40\n      eq\n      tag_20\n      jumpi\n      dup1\n      0xfbfa77cf\n      eq\n      tag_21\n      jumpi\n      0x00\n      dup1\n      revert\n    tag_23:\n      dup1\n      0x8d928af8\n      eq\n      tag_12\n      jumpi\n      dup1\n      0x8ddbeb07\n      eq\n      tag_13\n      jumpi\n      dup1\n      0x91b7f5ed\n      eq\n      tag_14\n      jumpi\n      dup1\n      0x9ce110d7\n      eq\n      tag_15\n      jumpi\n      dup1\n      0xbe9a6555\n      eq\n      tag_16\n      jumpi\n      0x00\n      dup1\n      revert\n    tag_22:\n      dup1\n      0x65cacaa4\n      gt\n      tag_24\n      jumpi\n      dup1\n      0x65cacaa4\n      eq\n      tag_7\n      jumpi\n      dup1\n      0x6da84e6c\n      eq\n      tag_8\n      jumpi\n      dup1\n      0x8129fc1c\n      eq\n      tag_9\n      jumpi\n      dup1\n      0x853a1b90\n      eq\n      tag_10\n      jumpi\n      dup1\n      0x85b4bb53\n      eq\n      tag_11\n      jumpi\n      0x00\n      dup1\n      revert\n    tag_24:\n      dup1\n      0x022bb886\n      eq\n      tag_2\n      jumpi\n      dup1\n      0x1998aeef\n      eq\n      tag_3\n      jumpi\n      dup1\n      0x2a24f46c\n      eq\n      tag_4\n      jumpi\n      dup1\n      0x2bf33bd9\n      eq\n      tag_5\n      jumpi\n      dup1\n      0x325c25a2\n      eq\n      tag_6\n      jumpi\n    tag_1:\n      0x00\n      dup1\n      revert\n        /* \"contracts/Template/Istanbul10/data/AuctionData.sol\":204:235  uint256 public EntireVaultPrice */\n    tag_2:\n      callvalue\n      dup1\n      iszero\n      tag_25\n      jumpi\n      0x00\n      dup1\n      revert\n    tag_25:\n      pop\n      tag_26\n      sload(0x02)\n      dup2\n      jump\n    tag_26:\n      mload(0x40)\n        /* \"#utility.yul\":12065:12090   */\n      swap1\n      dup2\n      mstore\n        /* \"#utility.yul\":12053:12055   */\n      0x20\n        /* \"#utility.yul\":12038:12056   */\n      add\n        /* \"contracts/Template/Istanbul10/data/AuctionData.sol\":204:235  uint256 public EntireVaultPrice */\n    tag_28:\n      mload(0x40)\n      dup1\n      swap2\n      sub\n      swap1\n      return\n        /* \"contracts/Template/Istanbul10/logic/Auction.sol\":2668:3577  function bid() external payable {\r... */\n    tag_3:\n      tag_30\n      tag_31\n      jump\t// in\n    tag_30:\n      stop\n        /* \"contracts/Template/Istanbul10/data/AuctionData.sol\":361:386  uint256 public auctionEnd */\n    tag_4:\n      callvalue\n      dup1\n      iszero\n      tag_32\n      jumpi\n      0x00\n      dup1\n      revert\n    tag_32:\n      pop\n      tag_26\n      sload(0x05)\n      dup2\n      jump\n        /* \"contracts/Template/Istanbul10/logic/Auction.sol\":1333:1808  function updateAuctionLength(uint256 _length) external {\r... */\n    tag_5:\n      callvalue\n      dup1\n      iszero\n      tag_36\n      jumpi\n      0x00\n      dup1\n      revert\n    tag_36:\n      pop\n      tag_30\n      tag_38\n      calldatasize\n      0x04\n      tag_39\n      jump\t// in\n    tag_38:\n      tag_40\n      jump\t// in\n        /* \"contracts/Template/Istanbul10/data/AuctionData.sol\":244:272  uint256 public auctionLength */\n    tag_6:\n      callvalue\n      dup1\n      iszero\n      tag_41\n      jumpi\n      0x00\n      dup1\n      revert\n    tag_41:\n      pop\n      tag_26\n      sload(0x03)\n      dup2\n      jump\n        /* \"contracts/Template/Istanbul10/logic/Auction.sol\":4617:4721  function getVaultAddress() public view returns(address){\r... */\n    tag_7:\n      callvalue\n      dup1\n      iszero\n      tag_45\n      jumpi\n      0x00\n      dup1\n      revert\n    tag_45:\n      pop\n      tag_46\n      tag_47\n      jump\t// in\n    tag_46:\n      mload(0x40)\n      sub(shl(0xa0, 0x01), 0x01)\n        /* \"#utility.yul\":4499:4531   */\n      swap1\n      swap2\n      and\n        /* \"#utility.yul\":4481:4532   */\n      dup2\n      mstore\n        /* \"#utility.yul\":4469:4471   */\n      0x20\n        /* \"#utility.yul\":4454:4472   */\n      add\n        /* \"contracts/Template/Istanbul10/logic/Auction.sol\":4617:4721  function getVaultAddress() public view returns(address){\r... */\n      tag_28\n        /* \"#utility.yul\":4436:4538   */\n      jump\n        /* \"contracts/Template/Istanbul10/data/AuctionData.sol\":398:422  uint256 public livePrice */\n    tag_8:\n      callvalue\n      dup1\n      iszero\n      tag_50\n      jumpi\n      0x00\n      dup1\n      revert\n    tag_50:\n      pop\n      tag_26\n      sload(0x06)\n      dup2\n      jump\n        /* \"contracts/Template/Istanbul10/logic/Auction.sol\":890:1098  function initialize() public {\r... */\n    tag_9:\n      callvalue\n      dup1\n      iszero\n      tag_54\n      jumpi\n      0x00\n      dup1\n      revert\n    tag_54:\n      pop\n      tag_30\n      tag_56\n      jump\t// in\n        /* \"contracts/Template/Istanbul10/data/AuctionData.sol\":431:461  address payable public winning */\n    tag_10:\n      callvalue\n      dup1\n      iszero\n      tag_57\n      jumpi\n      0x00\n      dup1\n      revert\n    tag_57:\n      pop\n      sload(0x07)\n      tag_46\n      swap1\n      sub(shl(0xa0, 0x01), 0x01)\n      and\n      dup2\n      jump\n        /* \"contracts/Template/Istanbul10/logic/Auction.sol\":4835:4952  function getSettings() public view returns(ISettings) {\r... */\n    tag_11:\n      callvalue\n      dup1\n      iszero\n      tag_62\n      jumpi\n      0x00\n      dup1\n      revert\n    tag_62:\n      pop\n      tag_46\n      tag_64\n      jump\t// in\n        /* \"contracts/Template/Istanbul10/logic/Auction.sol\":4729:4827  function getVault() public view returns(IVault){\r... */\n    tag_12:\n      callvalue\n      dup1\n      iszero\n      tag_67\n      jumpi\n      0x00\n      dup1\n      revert\n    tag_67:\n      pop\n      tag_46\n      tag_69\n      jump\t// in\n        /* \"contracts/Template/Istanbul10/logic/Auction.sol\":4241:4609  function utilCompareInternal(string memory a, string memory b) public view  returns (bool) {\r... */\n    tag_13:\n      callvalue\n      dup1\n      iszero\n      tag_72\n      jumpi\n      0x00\n      dup1\n      revert\n    tag_72:\n      pop\n      tag_73\n      tag_74\n      calldatasize\n      0x04\n      tag_75\n      jump\t// in\n    tag_74:\n      tag_76\n      jump\t// in\n    tag_73:\n      mload(0x40)\n        /* \"#utility.yul\":6712:6726   */\n      swap1\n      iszero\n        /* \"#utility.yul\":6705:6727   */\n      iszero\n        /* \"#utility.yul\":6687:6728   */\n      dup2\n      mstore\n        /* \"#utility.yul\":6675:6677   */\n      0x20\n        /* \"#utility.yul\":6660:6678   */\n      add\n        /* \"contracts/Template/Istanbul10/logic/Auction.sol\":4241:4609  function utilCompareInternal(string memory a, string memory b) public view  returns (bool) {\r... */\n      tag_28\n        /* \"#utility.yul\":6642:6734   */\n      jump\n        /* \"contracts/Template/Istanbul10/logic/Auction.sol\":1106:1321  function setPrice(uint256 _price) public {\r... */\n    tag_14:\n      callvalue\n      dup1\n      iszero\n      tag_79\n      jumpi\n      0x00\n      dup1\n      revert\n    tag_79:\n      pop\n      tag_30\n      tag_81\n      calldatasize\n      0x04\n      tag_39\n      jump\t// in\n    tag_81:\n      tag_82\n      jump\t// in\n        /* \"contracts/Template/Istanbul10/data/AuctionData.sol\":172:195  bool public initializer */\n    tag_15:\n      callvalue\n      dup1\n      iszero\n      tag_83\n      jumpi\n      0x00\n      dup1\n      revert\n    tag_83:\n      pop\n      sload(0x01)\n      tag_73\n      swap1\n      shl(0xa0, 0x01)\n      swap1\n      div\n      0xff\n      and\n      dup2\n      jump\n        /* \"contracts/Template/Istanbul10/logic/Auction.sol\":1890:2553  function start() external payable {\r... */\n    tag_16:\n      tag_30\n      tag_88\n      jump\t// in\n        /* \"contracts/Template/Istanbul10/data/AuctionData.sol\":282:352  mapping (address => mapping (uint256 =>uint256)) public singleNftPrice */\n    tag_17:\n      callvalue\n      dup1\n      iszero\n      tag_89\n      jumpi\n      0x00\n      dup1\n      revert\n    tag_89:\n      pop\n      tag_26\n      tag_91\n      calldatasize\n      0x04\n      tag_92\n      jump\t// in\n    tag_91:\n      0x04\n      0x20\n      swap1\n      dup2\n      mstore\n      0x00\n      swap3\n      dup4\n      mstore\n      0x40\n      dup1\n      dup5\n      keccak256\n      swap1\n      swap2\n      mstore\n      swap1\n      dup3\n      mstore\n      swap1\n      keccak256\n      sload\n      dup2\n      jump\n        /* \"contracts/Template/Istanbul10/data/AuctionData.sol\":522:553  uint256[] public EntireVaultNft */\n    tag_18:\n      callvalue\n      dup1\n      iszero\n      tag_95\n      jumpi\n      0x00\n      dup1\n      revert\n    tag_95:\n      pop\n      tag_26\n      tag_97\n      calldatasize\n      0x04\n      tag_39\n      jump\t// in\n    tag_97:\n      tag_98\n      jump\t// in\n        /* \"contracts/Template/Istanbul10/logic/Auction.sol\":3669:4231  function end() external {\r... */\n    tag_19:\n      callvalue\n      dup1\n      iszero\n      tag_100\n      jumpi\n      0x00\n      dup1\n      revert\n    tag_100:\n      pop\n      tag_30\n      tag_102\n      jump\t// in\n        /* \"contracts/Template/Istanbul10/data/AuctionData.sol\":109:130  address public router */\n    tag_20:\n      callvalue\n      dup1\n      iszero\n      tag_103\n      jumpi\n      0x00\n      dup1\n      revert\n    tag_103:\n      pop\n      sload(0x00)\n      tag_46\n      swap1\n      sub(shl(0xa0, 0x01), 0x01)\n      and\n      dup2\n      jump\n        /* \"contracts/Template/Istanbul10/data/AuctionData.sol\":139:159  address public vault */\n    tag_21:\n      callvalue\n      dup1\n      iszero\n      tag_107\n      jumpi\n      0x00\n      dup1\n      revert\n    tag_107:\n      pop\n      sload(0x01)\n      tag_46\n      swap1\n      sub(shl(0xa0, 0x01), 0x01)\n      and\n      dup2\n      jump\n        /* \"contracts/Template/Istanbul10/logic/Auction.sol\":2668:3577  function bid() external payable {\r... */\n    tag_31:\n        /* \"contracts/Template/Istanbul10/logic/Auction.sol\":2755:2778  State.NftState.occupied */\n      0x01\n        /* \"contracts/Template/Istanbul10/logic/Auction.sol\":2719:2729  getVault() */\n      tag_115\n        /* \"contracts/Template/Istanbul10/logic/Auction.sol\":2719:2727  getVault */\n      tag_69\n        /* \"contracts/Template/Istanbul10/logic/Auction.sol\":2719:2729  getVault() */\n      jump\t// in\n    tag_115:\n      sub(shl(0xa0, 0x01), 0x01)\n        /* \"contracts/Template/Istanbul10/logic/Auction.sol\":2719:2749  getVault().getEntireVaultState */\n      and\n      0xd58bfa9d\n        /* \"contracts/Template/Istanbul10/logic/Auction.sol\":2719:2751  getVault().getEntireVaultState() */\n      mload(0x40)\n      dup2\n      0xffffffff\n      and\n      0xe0\n      shl\n      dup2\n      mstore\n      0x04\n      add\n      0x20\n      mload(0x40)\n      dup1\n      dup4\n      sub\n      dup2\n      dup7\n      dup1\n      extcodesize\n      iszero\n      dup1\n      iszero\n      tag_116\n      jumpi\n      0x00\n      dup1\n      revert\n    tag_116:\n      pop\n      gas\n      staticcall\n      iszero\n      dup1\n      iszero\n      tag_118\n      jumpi\n      returndatasize\n      0x00\n      dup1\n      returndatacopy\n      revert(0x00, returndatasize)\n    tag_118:\n      pop\n      pop\n      pop\n      pop\n      mload(0x40)\n      returndatasize\n      not(0x1f)\n      0x1f\n      dup3\n      add\n      and\n      dup3\n      add\n      dup1\n      0x40\n      mstore\n      pop\n      dup2\n      add\n      swap1\n      tag_119\n      swap2\n      swap1\n      tag_120\n      jump\t// in\n    tag_119:\n        /* \"contracts/Template/Istanbul10/logic/Auction.sol\":2719:2778  getVault().getEntireVaultState() == State.NftState.occupied */\n      0x02\n      dup2\n      gt\n      iszero\n      tag_122\n      jumpi\n      tag_122\n      tag_114\n      jump\t// in\n    tag_122:\n      eq\n        /* \"contracts/Template/Istanbul10/logic/Auction.sol\":2719:2848  getVault().getEntireVaultState() == State.NftState.occupied && utilCompareInternal(getVault().getEntireVaultActivity(),\"Auction\") */\n      dup1\n      iszero\n      tag_124\n      jumpi\n      pop\n        /* \"contracts/Template/Istanbul10/logic/Auction.sol\":2782:2848  utilCompareInternal(getVault().getEntireVaultActivity(),\"Auction\") */\n      tag_124\n        /* \"contracts/Template/Istanbul10/logic/Auction.sol\":2802:2812  getVault() */\n      tag_125\n        /* \"contracts/Template/Istanbul10/logic/Auction.sol\":2802:2810  getVault */\n      tag_69\n        /* \"contracts/Template/Istanbul10/logic/Auction.sol\":2802:2812  getVault() */\n      jump\t// in\n    tag_125:\n      sub(shl(0xa0, 0x01), 0x01)\n        /* \"contracts/Template/Istanbul10/logic/Auction.sol\":2802:2835  getVault().getEntireVaultActivity */\n      and\n      0x5ccb53df\n        /* \"contracts/Template/Istanbul10/logic/Auction.sol\":2802:2837  getVault().getEntireVaultActivity() */\n      mload(0x40)\n      dup2\n      0xffffffff\n      and\n      0xe0\n      shl\n      dup2\n      mstore\n      0x04\n      add\n      0x00\n      mload(0x40)\n      dup1\n      dup4\n      sub\n      dup2\n      dup7\n      dup1\n      extcodesize\n      iszero\n      dup1\n      iszero\n      tag_126\n      jumpi\n      0x00\n      dup1\n      revert\n    tag_126:\n      pop\n      gas\n      staticcall\n      iszero\n      dup1\n      iszero\n      tag_128\n      jumpi\n      returndatasize\n      0x00\n      dup1\n      returndatacopy\n      revert(0x00, returndatasize)\n    tag_128:\n      pop\n      pop\n      pop\n      pop\n      mload(0x40)\n      returndatasize\n      0x00\n      dup3\n      returndatacopy\n      0x1f\n      returndatasize\n      swap1\n      dup2\n      add\n      not(0x1f)\n      and\n      dup3\n      add\n      0x40\n      mstore\n      tag_129\n      swap2\n      swap1\n      dup2\n      add\n      swap1\n      tag_130\n      jump\t// in\n    tag_129:\n        /* \"contracts/Template/Istanbul10/logic/Auction.sol\":2782:2848  utilCompareInternal(getVault().getEntireVaultActivity(),\"Auction\") */\n      mload(0x40)\n      dup1\n      0x40\n      add\n      0x40\n      mstore\n      dup1\n      0x07\n      dup2\n      mstore\n      0x20\n      add\n      shl(0xc9, 0x20bab1ba34b7b7)\n      dup2\n      mstore\n      pop\n        /* \"contracts/Template/Istanbul10/logic/Auction.sol\":2782:2801  utilCompareInternal */\n      tag_76\n        /* \"contracts/Template/Istanbul10/logic/Auction.sol\":2782:2848  utilCompareInternal(getVault().getEntireVaultActivity(),\"Auction\") */\n      jump\t// in\n    tag_124:\n        /* \"contracts/Template/Istanbul10/logic/Auction.sol\":2711:2879  require(getVault().getEntireVaultState() == State.NftState.occupied && utilCompareInternal(getVault().getEntireVaultActivity(),\"Auction\"), \"bid :: auction is not live\") */\n      tag_131\n      jumpi\n      mload(0x40)\n      shl(0xe5, 0x461bcd)\n      dup2\n      mstore\n        /* \"#utility.yul\":8196:8198   */\n      0x20\n        /* \"contracts/Template/Istanbul10/logic/Auction.sol\":2711:2879  require(getVault().getEntireVaultState() == State.NftState.occupied && utilCompareInternal(getVault().getEntireVaultActivity(),\"Auction\"), \"bid :: auction is not live\") */\n      0x04\n      dup3\n      add\n        /* \"#utility.yul\":8178:8199   */\n      mstore\n        /* \"#utility.yul\":8235:8237   */\n      0x1a\n        /* \"#utility.yul\":8215:8233   */\n      0x24\n      dup3\n      add\n        /* \"#utility.yul\":8208:8238   */\n      mstore\n        /* \"#utility.yul\":8274:8302   */\n      0x626964203a3a2061756374696f6e206973206e6f74206c697665000000000000\n        /* \"#utility.yul\":8254:8272   */\n      0x44\n      dup3\n      add\n        /* \"#utility.yul\":8247:8303   */\n      mstore\n        /* \"#utility.yul\":8320:8338   */\n      0x64\n      add\n        /* \"contracts/Template/Istanbul10/logic/Auction.sol\":2711:2879  require(getVault().getEntireVaultState() == State.NftState.occupied && utilCompareInternal(getVault().getEntireVaultActivity(),\"Auction\"), \"bid :: auction is not live\") */\n    tag_132:\n      mload(0x40)\n      dup1\n      swap2\n      sub\n      swap1\n      revert\n    tag_131:\n        /* \"contracts/Template/Istanbul10/logic/Auction.sol\":2894:2910  uint256 increase */\n      0x00\n        /* \"contracts/Template/Istanbul10/logic/Auction.sol\":2913:2926  getSettings() */\n      tag_134\n        /* \"contracts/Template/Istanbul10/logic/Auction.sol\":2913:2924  getSettings */\n      tag_64\n        /* \"contracts/Template/Istanbul10/logic/Auction.sol\":2913:2926  getSettings() */\n      jump\t// in\n    tag_134:\n      sub(shl(0xa0, 0x01), 0x01)\n        /* \"contracts/Template/Istanbul10/logic/Auction.sol\":2913:2941  getSettings().minBidIncrease */\n      and\n      0x7c513c0f\n        /* \"contracts/Template/Istanbul10/logic/Auction.sol\":2913:2943  getSettings().minBidIncrease() */\n      mload(0x40)\n      dup2\n      0xffffffff\n      and\n      0xe0\n      shl\n      dup2\n      mstore\n      0x04\n      add\n      0x20\n      mload(0x40)\n      dup1\n      dup4\n      sub\n      dup2\n      0x00\n      dup8\n      dup1\n      extcodesize\n      iszero\n      dup1\n      iszero\n      tag_135\n      jumpi\n      0x00\n      dup1\n      revert\n    tag_135:\n      pop\n      gas\n      call\n      iszero\n      dup1\n      iszero\n      tag_137\n      jumpi\n      returndatasize\n      0x00\n      dup1\n      returndatacopy\n      revert(0x00, returndatasize)\n    tag_137:\n      pop\n      pop\n      pop\n      pop\n      mload(0x40)\n      returndatasize\n      not(0x1f)\n      0x1f\n      dup3\n      add\n      and\n      dup3\n      add\n      dup1\n      0x40\n      mstore\n      pop\n      dup2\n      add\n      swap1\n      tag_138\n      swap2\n      swap1\n      tag_139\n      jump\t// in\n    tag_138:\n        /* \"contracts/Template/Istanbul10/logic/Auction.sol\":2913:2950  getSettings().minBidIncrease() + 1000 */\n      tag_140\n      swap1\n        /* \"contracts/Template/Istanbul10/logic/Auction.sol\":2946:2950  1000 */\n      0x03e8\n        /* \"contracts/Template/Istanbul10/logic/Auction.sol\":2913:2950  getSettings().minBidIncrease() + 1000 */\n      tag_141\n      jump\t// in\n    tag_140:\n        /* \"contracts/Template/Istanbul10/logic/Auction.sol\":2894:2950  uint256 increase = getSettings().minBidIncrease() + 1000 */\n      swap1\n      pop\n        /* \"contracts/Template/Istanbul10/logic/Auction.sol\":3008:3016  increase */\n      dup1\n        /* \"contracts/Template/Istanbul10/logic/Auction.sol\":2996:3005  livePrice */\n      sload(0x06)\n        /* \"contracts/Template/Istanbul10/logic/Auction.sol\":2996:3016  livePrice * increase */\n      tag_142\n      swap2\n      swap1\n      tag_143\n      jump\t// in\n    tag_142:\n        /* \"contracts/Template/Istanbul10/logic/Auction.sol\":2976:2992  msg.value * 1000 */\n      tag_144\n        /* \"contracts/Template/Istanbul10/logic/Auction.sol\":2976:2985  msg.value */\n      callvalue\n        /* \"contracts/Template/Istanbul10/logic/Auction.sol\":2988:2992  1000 */\n      0x03e8\n        /* \"contracts/Template/Istanbul10/logic/Auction.sol\":2976:2992  msg.value * 1000 */\n      tag_143\n      jump\t// in\n    tag_144:\n        /* \"contracts/Template/Istanbul10/logic/Auction.sol\":2976:3016  msg.value * 1000 >= livePrice * increase */\n      lt\n      iszero\n        /* \"contracts/Template/Istanbul10/logic/Auction.sol\":2968:3039  require(msg.value * 1000 >= livePrice * increase, \"bid :: too low bid\") */\n      tag_145\n      jumpi\n      mload(0x40)\n      shl(0xe5, 0x461bcd)\n      dup2\n      mstore\n        /* \"#utility.yul\":9255:9257   */\n      0x20\n        /* \"contracts/Template/Istanbul10/logic/Auction.sol\":2968:3039  require(msg.value * 1000 >= livePrice * increase, \"bid :: too low bid\") */\n      0x04\n      dup3\n      add\n        /* \"#utility.yul\":9237:9258   */\n      mstore\n        /* \"#utility.yul\":9294:9296   */\n      0x12\n        /* \"#utility.yul\":9274:9292   */\n      0x24\n      dup3\n      add\n        /* \"#utility.yul\":9267:9297   */\n      mstore\n      shl(0x72, 0x189a59080e8e881d1bdbc81b1bddc8189a59)\n        /* \"#utility.yul\":9313:9331   */\n      0x44\n      dup3\n      add\n        /* \"#utility.yul\":9306:9354   */\n      mstore\n        /* \"#utility.yul\":9371:9389   */\n      0x64\n      add\n        /* \"contracts/Template/Istanbul10/logic/Auction.sol\":2968:3039  require(msg.value * 1000 >= livePrice * increase, \"bid :: too low bid\") */\n      tag_132\n        /* \"#utility.yul\":9227:9395   */\n      jump\n        /* \"contracts/Template/Istanbul10/logic/Auction.sol\":2968:3039  require(msg.value * 1000 >= livePrice * increase, \"bid :: too low bid\") */\n    tag_145:\n        /* \"contracts/Template/Istanbul10/logic/Auction.sol\":3076:3086  auctionEnd */\n      sload(0x05)\n        /* \"contracts/Template/Istanbul10/logic/Auction.sol\":3058:3073  block.timestamp */\n      timestamp\n        /* \"contracts/Template/Istanbul10/logic/Auction.sol\":3058:3086  block.timestamp < auctionEnd */\n      lt\n        /* \"contracts/Template/Istanbul10/logic/Auction.sol\":3050:3111  require(block.timestamp < auctionEnd, \"bid :: auction ended\") */\n      tag_148\n      jumpi\n      mload(0x40)\n      shl(0xe5, 0x461bcd)\n      dup2\n      mstore\n        /* \"#utility.yul\":11424:11426   */\n      0x20\n        /* \"contracts/Template/Istanbul10/logic/Auction.sol\":3050:3111  require(block.timestamp < auctionEnd, \"bid :: auction ended\") */\n      0x04\n      dup3\n      add\n        /* \"#utility.yul\":11406:11427   */\n      mstore\n        /* \"#utility.yul\":11463:11465   */\n      0x14\n        /* \"#utility.yul\":11443:11461   */\n      0x24\n      dup3\n      add\n        /* \"#utility.yul\":11436:11466   */\n      mstore\n      shl(0x62, 0x189a59080e8e88185d58dd1a5bdb88195b991959)\n        /* \"#utility.yul\":11482:11500   */\n      0x44\n      dup3\n      add\n        /* \"#utility.yul\":11475:11525   */\n      mstore\n        /* \"#utility.yul\":11542:11560   */\n      0x64\n      add\n        /* \"contracts/Template/Istanbul10/logic/Auction.sol\":3050:3111  require(block.timestamp < auctionEnd, \"bid :: auction ended\") */\n      tag_132\n        /* \"#utility.yul\":11396:11566   */\n      jump\n        /* \"contracts/Template/Istanbul10/logic/Auction.sol\":3050:3111  require(block.timestamp < auctionEnd, \"bid :: auction ended\") */\n    tag_148:\n        /* \"contracts/Template/Istanbul10/logic/Auction.sol\":3235:3245  15 minutes */\n      0x0384\n        /* \"contracts/Template/Istanbul10/logic/Auction.sol\":3216:3231  block.timestamp */\n      timestamp\n        /* \"contracts/Template/Istanbul10/logic/Auction.sol\":3203:3213  auctionEnd */\n      sload(0x05)\n        /* \"contracts/Template/Istanbul10/logic/Auction.sol\":3203:3231  auctionEnd - block.timestamp */\n      tag_151\n      swap2\n      swap1\n      tag_152\n      jump\t// in\n    tag_151:\n        /* \"contracts/Template/Istanbul10/logic/Auction.sol\":3203:3245  auctionEnd - block.timestamp <= 15 minutes */\n      gt\n        /* \"contracts/Template/Istanbul10/logic/Auction.sol\":3199:3339  if (auctionEnd - block.timestamp <= 15 minutes) {\r... */\n      tag_153\n      jumpi\n        /* \"contracts/Template/Istanbul10/logic/Auction.sol\":3318:3327  0 minutes */\n      0x00\n        /* \"contracts/Template/Istanbul10/logic/Auction.sol\":3304:3314  auctionEnd */\n      0x05\n      0x00\n        /* \"contracts/Template/Istanbul10/logic/Auction.sol\":3304:3327  auctionEnd += 0 minutes */\n      dup3\n      dup3\n      sload\n      tag_154\n      swap2\n      swap1\n      tag_141\n      jump\t// in\n    tag_154:\n      swap1\n      swap2\n      sstore\n      pop\n      pop\n        /* \"contracts/Template/Istanbul10/logic/Auction.sol\":3199:3339  if (auctionEnd - block.timestamp <= 15 minutes) {\r... */\n    tag_153:\n        /* \"contracts/Template/Istanbul10/logic/Auction.sol\":3359:3376  getVaultAddress() */\n      tag_155\n        /* \"contracts/Template/Istanbul10/logic/Auction.sol\":3359:3374  getVaultAddress */\n      tag_47\n        /* \"contracts/Template/Istanbul10/logic/Auction.sol\":3359:3376  getVaultAddress() */\n      jump\t// in\n    tag_155:\n      sub(shl(0xa0, 0x01), 0x01)\n        /* \"contracts/Template/Istanbul10/logic/Auction.sol\":3351:3386  payable(getVaultAddress()).transfer */\n      and\n        /* \"contracts/Template/Istanbul10/logic/Auction.sol\":3351:3397  payable(getVaultAddress()).transfer(msg.value) */\n      0x08fc\n        /* \"contracts/Template/Istanbul10/logic/Auction.sol\":3387:3396  msg.value */\n      callvalue\n        /* \"contracts/Template/Istanbul10/logic/Auction.sol\":3351:3397  payable(getVaultAddress()).transfer(msg.value) */\n      swap1\n      dup2\n      iszero\n      mul\n      swap1\n      mload(0x40)\n      0x00\n      mload(0x40)\n      dup1\n      dup4\n      sub\n      dup2\n      dup6\n      dup9\n      dup9\n      call\n      swap4\n      pop\n      pop\n      pop\n      pop\n      iszero\n      dup1\n      iszero\n      tag_157\n      jumpi\n      returndatasize\n      0x00\n      dup1\n      returndatacopy\n      revert(0x00, returndatasize)\n    tag_157:\n      pop\n        /* \"contracts/Template/Istanbul10/logic/Auction.sol\":3418:3428  getVault() */\n      tag_158\n        /* \"contracts/Template/Istanbul10/logic/Auction.sol\":3418:3426  getVault */\n      tag_69\n        /* \"contracts/Template/Istanbul10/logic/Auction.sol\":3418:3428  getVault() */\n      jump\t// in\n    tag_158:\n        /* \"contracts/Template/Istanbul10/logic/Auction.sol\":3437:3444  winning */\n      sload(0x07)\n        /* \"contracts/Template/Istanbul10/logic/Auction.sol\":3446:3455  livePrice */\n      sload(0x06)\n        /* \"contracts/Template/Istanbul10/logic/Auction.sol\":3418:3456  getVault().sendETH(winning, livePrice) */\n      mload(0x40)\n      shl(0xe0, 0x64a197f3)\n      dup2\n      mstore\n      sub(shl(0xa0, 0x01), 0x01)\n        /* \"contracts/Template/Istanbul10/logic/Auction.sol\":3437:3444  winning */\n      swap3\n      dup4\n      and\n        /* \"contracts/Template/Istanbul10/logic/Auction.sol\":3418:3456  getVault().sendETH(winning, livePrice) */\n      0x04\n      dup3\n      add\n        /* \"#utility.yul\":4949:5000   */\n      mstore\n        /* \"#utility.yul\":5016:5034   */\n      0x24\n      dup2\n      add\n        /* \"#utility.yul\":5009:5043   */\n      swap2\n      swap1\n      swap2\n      mstore\n        /* \"contracts/Template/Istanbul10/logic/Auction.sol\":3418:3436  getVault().sendETH */\n      swap2\n      and\n      swap1\n      0x64a197f3\n      swap1\n        /* \"#utility.yul\":4922:4940   */\n      0x44\n      add\n        /* \"contracts/Template/Istanbul10/logic/Auction.sol\":3418:3456  getVault().sendETH(winning, livePrice) */\n      0x00\n      mload(0x40)\n      dup1\n      dup4\n      sub\n      dup2\n      0x00\n      dup8\n      dup1\n      extcodesize\n      iszero\n      dup1\n      iszero\n      tag_161\n      jumpi\n      0x00\n      dup1\n      revert\n    tag_161:\n      pop\n      gas\n      call\n      iszero\n      dup1\n      iszero\n      tag_163\n      jumpi\n      returndatasize\n      0x00\n      dup1\n      returndatacopy\n      revert(0x00, returndatasize)\n    tag_163:\n      pop\n      pop\n        /* \"contracts/Template/Istanbul10/logic/Auction.sol\":3481:3490  msg.value */\n      callvalue\n        /* \"contracts/Template/Istanbul10/logic/Auction.sol\":3469:3478  livePrice */\n      0x06\n        /* \"contracts/Template/Istanbul10/logic/Auction.sol\":3469:3490  livePrice = msg.value */\n      dup2\n      swap1\n      sstore\n        /* \"contracts/Template/Istanbul10/logic/Auction.sol\":3501:3508  winning */\n      0x07\n        /* \"contracts/Template/Istanbul10/logic/Auction.sol\":3501:3530  winning = payable(msg.sender) */\n      dup1\n      sload\n      not(sub(shl(0xa0, 0x01), 0x01))\n      and\n        /* \"contracts/Template/Istanbul10/logic/Auction.sol\":3519:3529  msg.sender */\n      caller\n        /* \"contracts/Template/Istanbul10/logic/Auction.sol\":3501:3530  winning = payable(msg.sender) */\n      swap1\n      dup2\n      or\n      swap1\n      swap2\n      sstore\n        /* \"contracts/Template/Istanbul10/logic/Auction.sol\":3546:3569  Bid(winning, livePrice) */\n      mload(0x40)\n        /* \"#utility.yul\":12065:12090   */\n      swap2\n      dup3\n      mstore\n        /* \"contracts/Template/Istanbul10/logic/Auction.sol\":3519:3529  msg.sender */\n      swap3\n      pop\n        /* \"contracts/Template/Istanbul10/logic/Auction.sol\":3546:3569  Bid(winning, livePrice) */\n      0xe684a55f31b79eca403df938249029212a5925ec6be8012e099b45bc1019e5d2\n      swap2\n      pop\n        /* \"#utility.yul\":12053:12055   */\n      0x20\n        /* \"#utility.yul\":12038:12056   */\n      add\n        /* \"contracts/Template/Istanbul10/logic/Auction.sol\":3546:3569  Bid(winning, livePrice) */\n      mload(0x40)\n      dup1\n      swap2\n      sub\n      swap1\n      log2\n        /* \"contracts/Template/Istanbul10/logic/Auction.sol\":2700:3577  {\r... */\n      pop\n        /* \"contracts/Template/Istanbul10/logic/Auction.sol\":2668:3577  function bid() external payable {\r... */\n      jump\t// out\n        /* \"contracts/Template/Istanbul10/logic/Auction.sol\":1333:1808  function updateAuctionLength(uint256 _length) external {\r... */\n    tag_40:\n        /* \"contracts/Template/Istanbul10/logic/Auction.sol\":1443:1465  State.NftState.freedom */\n      0x00\n        /* \"contracts/Template/Istanbul10/logic/Auction.sol\":1407:1417  getVault() */\n      tag_168\n        /* \"contracts/Template/Istanbul10/logic/Auction.sol\":1407:1415  getVault */\n      tag_69\n        /* \"contracts/Template/Istanbul10/logic/Auction.sol\":1407:1417  getVault() */\n      jump\t// in\n    tag_168:\n      sub(shl(0xa0, 0x01), 0x01)\n        /* \"contracts/Template/Istanbul10/logic/Auction.sol\":1407:1437  getVault().getEntireVaultState */\n      and\n      0xd58bfa9d\n        /* \"contracts/Template/Istanbul10/logic/Auction.sol\":1407:1439  getVault().getEntireVaultState() */\n      mload(0x40)\n      dup2\n      0xffffffff\n      and\n      0xe0\n      shl\n      dup2\n      mstore\n      0x04\n      add\n      0x20\n      mload(0x40)\n      dup1\n      dup4\n      sub\n      dup2\n      dup7\n      dup1\n      extcodesize\n      iszero\n      dup1\n      iszero\n      tag_169\n      jumpi\n      0x00\n      dup1\n      revert\n    tag_169:\n      pop\n      gas\n      staticcall\n      iszero\n      dup1\n      iszero\n      tag_171\n      jumpi\n      returndatasize\n      0x00\n      dup1\n      returndatacopy\n      revert(0x00, returndatasize)\n    tag_171:\n      pop\n      pop\n      pop\n      pop\n      mload(0x40)\n      returndatasize\n      not(0x1f)\n      0x1f\n      dup3\n      add\n      and\n      dup3\n      add\n      dup1\n      0x40\n      mstore\n      pop\n      dup2\n      add\n      swap1\n      tag_172\n      swap2\n      swap1\n      tag_120\n      jump\t// in\n    tag_172:\n        /* \"contracts/Template/Istanbul10/logic/Auction.sol\":1407:1465  getVault().getEntireVaultState() == State.NftState.freedom */\n      0x02\n      dup2\n      gt\n      iszero\n      tag_174\n      jumpi\n      tag_174\n      tag_114\n      jump\t// in\n    tag_174:\n      eq\n        /* \"contracts/Template/Istanbul10/logic/Auction.sol\":1399:1490  require(getVault().getEntireVaultState() == State.NftState.freedom, \"update :: not update\") */\n      tag_175\n      jumpi\n      mload(0x40)\n      shl(0xe5, 0x461bcd)\n      dup2\n      mstore\n        /* \"#utility.yul\":10323:10325   */\n      0x20\n        /* \"contracts/Template/Istanbul10/logic/Auction.sol\":1399:1490  require(getVault().getEntireVaultState() == State.NftState.freedom, \"update :: not update\") */\n      0x04\n      dup3\n      add\n        /* \"#utility.yul\":10305:10326   */\n      mstore\n        /* \"#utility.yul\":10362:10364   */\n      0x14\n        /* \"#utility.yul\":10342:10360   */\n      0x24\n      dup3\n      add\n        /* \"#utility.yul\":10335:10365   */\n      mstore\n      shl(0x60, 0x757064617465203a3a206e6f7420757064617465)\n        /* \"#utility.yul\":10381:10399   */\n      0x44\n      dup3\n      add\n        /* \"#utility.yul\":10374:10424   */\n      mstore\n        /* \"#utility.yul\":10441:10459   */\n      0x64\n      add\n        /* \"contracts/Template/Istanbul10/logic/Auction.sol\":1399:1490  require(getVault().getEntireVaultState() == State.NftState.freedom, \"update :: not update\") */\n      tag_132\n        /* \"#utility.yul\":10295:10465   */\n      jump\n        /* \"contracts/Template/Istanbul10/logic/Auction.sol\":1399:1490  require(getVault().getEntireVaultState() == State.NftState.freedom, \"update :: not update\") */\n    tag_175:\n        /* \"contracts/Template/Istanbul10/logic/Auction.sol\":1531:1537  router */\n      0x00\n      dup1\n      sload\n      swap1\n      0x0100\n      exp\n      swap1\n      div\n      sub(shl(0xa0, 0x01), 0x01)\n      and\n      sub(shl(0xa0, 0x01), 0x01)\n        /* \"contracts/Template/Istanbul10/logic/Auction.sol\":1523:1546  IRouter(router).curator */\n      and\n      0xe66f53b7\n        /* \"contracts/Template/Istanbul10/logic/Auction.sol\":1523:1548  IRouter(router).curator() */\n      mload(0x40)\n      dup2\n      0xffffffff\n      and\n      0xe0\n      shl\n      dup2\n      mstore\n      0x04\n      add\n      0x20\n      mload(0x40)\n      dup1\n      dup4\n      sub\n      dup2\n      dup7\n      dup1\n      extcodesize\n      iszero\n      dup1\n      iszero\n      tag_178\n      jumpi\n      0x00\n      dup1\n      revert\n    tag_178:\n      pop\n      gas\n      staticcall\n      iszero\n      dup1\n      iszero\n      tag_180\n      jumpi\n      returndatasize\n      0x00\n      dup1\n      returndatacopy\n      revert(0x00, returndatasize)\n    tag_180:\n      pop\n      pop\n      pop\n      pop\n      mload(0x40)\n      returndatasize\n      not(0x1f)\n      0x1f\n      dup3\n      add\n      and\n      dup3\n      add\n      dup1\n      0x40\n      mstore\n      pop\n      dup2\n      add\n      swap1\n      tag_181\n      swap2\n      swap1\n      tag_182\n      jump\t// in\n    tag_181:\n      sub(shl(0xa0, 0x01), 0x01)\n        /* \"contracts/Template/Istanbul10/logic/Auction.sol\":1509:1548  msg.sender == IRouter(router).curator() */\n      and\n        /* \"contracts/Template/Istanbul10/logic/Auction.sol\":1509:1519  msg.sender */\n      caller\n      sub(shl(0xa0, 0x01), 0x01)\n        /* \"contracts/Template/Istanbul10/logic/Auction.sol\":1509:1548  msg.sender == IRouter(router).curator() */\n      and\n      eq\n        /* \"contracts/Template/Istanbul10/logic/Auction.sol\":1501:1574  require(msg.sender == IRouter(router).curator(), \"update :: not curator\") */\n      tag_183\n      jumpi\n      mload(0x40)\n      shl(0xe5, 0x461bcd)\n      dup2\n      mstore\n        /* \"#utility.yul\":10672:10674   */\n      0x20\n        /* \"contracts/Template/Istanbul10/logic/Auction.sol\":1501:1574  require(msg.sender == IRouter(router).curator(), \"update :: not curator\") */\n      0x04\n      dup3\n      add\n        /* \"#utility.yul\":10654:10675   */\n      mstore\n        /* \"#utility.yul\":10711:10713   */\n      0x15\n        /* \"#utility.yul\":10691:10709   */\n      0x24\n      dup3\n      add\n        /* \"#utility.yul\":10684:10714   */\n      mstore\n      shl(0x59, 0x3ab83230ba32901d1d103737ba1031bab930ba37b9)\n        /* \"#utility.yul\":10730:10748   */\n      0x44\n      dup3\n      add\n        /* \"#utility.yul\":10723:10774   */\n      mstore\n        /* \"#utility.yul\":10791:10809   */\n      0x64\n      add\n        /* \"contracts/Template/Istanbul10/logic/Auction.sol\":1501:1574  require(msg.sender == IRouter(router).curator(), \"update :: not curator\") */\n      tag_132\n        /* \"#utility.yul\":10644:10815   */\n      jump\n        /* \"contracts/Template/Istanbul10/logic/Auction.sol\":1501:1574  require(msg.sender == IRouter(router).curator(), \"update :: not curator\") */\n    tag_183:\n        /* \"contracts/Template/Istanbul10/logic/Auction.sol\":1604:1617  getSettings() */\n      tag_186\n        /* \"contracts/Template/Istanbul10/logic/Auction.sol\":1604:1615  getSettings */\n      tag_64\n        /* \"contracts/Template/Istanbul10/logic/Auction.sol\":1604:1617  getSettings() */\n      jump\t// in\n    tag_186:\n      sub(shl(0xa0, 0x01), 0x01)\n        /* \"contracts/Template/Istanbul10/logic/Auction.sol\":1604:1634  getSettings().minAuctionLength */\n      and\n      0xa0b335e3\n        /* \"contracts/Template/Istanbul10/logic/Auction.sol\":1604:1636  getSettings().minAuctionLength() */\n      mload(0x40)\n      dup2\n      0xffffffff\n      and\n      0xe0\n      shl\n      dup2\n      mstore\n      0x04\n      add\n      0x20\n      mload(0x40)\n      dup1\n      dup4\n      sub\n      dup2\n      0x00\n      dup8\n      dup1\n      extcodesize\n      iszero\n      dup1\n      iszero\n      tag_187\n      jumpi\n      0x00\n      dup1\n      revert\n    tag_187:\n      pop\n      gas\n      call\n      iszero\n      dup1\n      iszero\n      tag_189\n      jumpi\n      returndatasize\n      0x00\n      dup1\n      returndatacopy\n      revert(0x00, returndatasize)\n    tag_189:\n      pop\n      pop\n      pop\n      pop\n      mload(0x40)\n      returndatasize\n      not(0x1f)\n      0x1f\n      dup3\n      add\n      and\n      dup3\n      add\n      dup1\n      0x40\n      mstore\n      pop\n      dup2\n      add\n      swap1\n      tag_190\n      swap2\n      swap1\n      tag_139\n      jump\t// in\n    tag_190:\n        /* \"contracts/Template/Istanbul10/logic/Auction.sol\":1593:1600  _length */\n      dup2\n        /* \"contracts/Template/Istanbul10/logic/Auction.sol\":1593:1636  _length >= getSettings().minAuctionLength() */\n      lt\n      iszero\n        /* \"contracts/Template/Istanbul10/logic/Auction.sol\":1593:1683  _length >= getSettings().minAuctionLength() && _length <= getSettings().maxAuctionLength() */\n      dup1\n      iszero\n      tag_191\n      jumpi\n      pop\n        /* \"contracts/Template/Istanbul10/logic/Auction.sol\":1651:1664  getSettings() */\n      tag_192\n        /* \"contracts/Template/Istanbul10/logic/Auction.sol\":1651:1662  getSettings */\n      tag_64\n        /* \"contracts/Template/Istanbul10/logic/Auction.sol\":1651:1664  getSettings() */\n      jump\t// in\n    tag_192:\n      sub(shl(0xa0, 0x01), 0x01)\n        /* \"contracts/Template/Istanbul10/logic/Auction.sol\":1651:1681  getSettings().maxAuctionLength */\n      and\n      0x0e519ef9\n        /* \"contracts/Template/Istanbul10/logic/Auction.sol\":1651:1683  getSettings().maxAuctionLength() */\n      mload(0x40)\n      dup2\n      0xffffffff\n      and\n      0xe0\n      shl\n      dup2\n      mstore\n      0x04\n      add\n      0x20\n      mload(0x40)\n      dup1\n      dup4\n      sub\n      dup2\n      0x00\n      dup8\n      dup1\n      extcodesize\n      iszero\n      dup1\n      iszero\n      tag_193\n      jumpi\n      0x00\n      dup1\n      revert\n    tag_193:\n      pop\n      gas\n      call\n      iszero\n      dup1\n      iszero\n      tag_195\n      jumpi\n      returndatasize\n      0x00\n      dup1\n      returndatacopy\n      revert(0x00, returndatasize)\n    tag_195:\n      pop\n      pop\n      pop\n      pop\n      mload(0x40)\n      returndatasize\n      not(0x1f)\n      0x1f\n      dup3\n      add\n      and\n      dup3\n      add\n      dup1\n      0x40\n      mstore\n      pop\n      dup2\n      add\n      swap1\n      tag_196\n      swap2\n      swap1\n      tag_139\n      jump\t// in\n    tag_196:\n        /* \"contracts/Template/Istanbul10/logic/Auction.sol\":1640:1647  _length */\n      dup2\n        /* \"contracts/Template/Istanbul10/logic/Auction.sol\":1640:1683  _length <= getSettings().maxAuctionLength() */\n      gt\n      iszero\n        /* \"contracts/Template/Istanbul10/logic/Auction.sol\":1593:1683  _length >= getSettings().minAuctionLength() && _length <= getSettings().maxAuctionLength() */\n    tag_191:\n        /* \"contracts/Template/Istanbul10/logic/Auction.sol\":1585:1720  require(_length >= getSettings().minAuctionLength() && _length <= getSettings().maxAuctionLength(), \"update :: invalid auction length\") */\n      tag_197\n      jumpi\n      mload(0x40)\n      shl(0xe5, 0x461bcd)\n      dup2\n      mstore\n        /* \"#utility.yul\":9962:9964   */\n      0x20\n        /* \"contracts/Template/Istanbul10/logic/Auction.sol\":1585:1720  require(_length >= getSettings().minAuctionLength() && _length <= getSettings().maxAuctionLength(), \"update :: invalid auction length\") */\n      0x04\n      dup3\n      add\n        /* \"#utility.yul\":9944:9965   */\n      dup2\n      swap1\n      mstore\n        /* \"#utility.yul\":9981:9999   */\n      0x24\n      dup3\n      add\n        /* \"#utility.yul\":9974:10004   */\n      mstore\n        /* \"#utility.yul\":10040:10074   */\n      0x757064617465203a3a20696e76616c69642061756374696f6e206c656e677468\n        /* \"#utility.yul\":10020:10038   */\n      0x44\n      dup3\n      add\n        /* \"#utility.yul\":10013:10075   */\n      mstore\n        /* \"#utility.yul\":10092:10110   */\n      0x64\n      add\n        /* \"contracts/Template/Istanbul10/logic/Auction.sol\":1585:1720  require(_length >= getSettings().minAuctionLength() && _length <= getSettings().maxAuctionLength(), \"update :: invalid auction length\") */\n      tag_132\n        /* \"#utility.yul\":9934:10116   */\n      jump\n        /* \"contracts/Template/Istanbul10/logic/Auction.sol\":1585:1720  require(_length >= getSettings().minAuctionLength() && _length <= getSettings().maxAuctionLength(), \"update :: invalid auction length\") */\n    tag_197:\n        /* \"contracts/Template/Istanbul10/logic/Auction.sol\":1733:1746  auctionLength */\n      0x03\n        /* \"contracts/Template/Istanbul10/logic/Auction.sol\":1733:1756  auctionLength = _length */\n      dup2\n      swap1\n      sstore\n        /* \"contracts/Template/Istanbul10/logic/Auction.sol\":1772:1800  UpdateAuctionLength(_length) */\n      mload(0x40)\n        /* \"#utility.yul\":12065:12090   */\n      dup2\n      dup2\n      mstore\n        /* \"contracts/Template/Istanbul10/logic/Auction.sol\":1772:1800  UpdateAuctionLength(_length) */\n      0x4ab86ae701798277aa378943b9dfd155d3b19703cd57be298908fadd32f7bf46\n      swap1\n        /* \"#utility.yul\":12053:12055   */\n      0x20\n        /* \"#utility.yul\":12038:12056   */\n      add\n        /* \"contracts/Template/Istanbul10/logic/Auction.sol\":1772:1800  UpdateAuctionLength(_length) */\n    tag_200:\n      mload(0x40)\n      dup1\n      swap2\n      sub\n      swap1\n      log1\n        /* \"contracts/Template/Istanbul10/logic/Auction.sol\":1333:1808  function updateAuctionLength(uint256 _length) external {\r... */\n      pop\n      jump\t// out\n        /* \"contracts/Template/Istanbul10/logic/Auction.sol\":4617:4721  function getVaultAddress() public view returns(address){\r... */\n    tag_47:\n        /* \"contracts/Template/Istanbul10/logic/Auction.sol\":4664:4671  address */\n      0x00\n        /* \"contracts/Template/Istanbul10/logic/Auction.sol\":4698:4704  router */\n      dup1\n      0x00\n      swap1\n      sload\n      swap1\n      0x0100\n      exp\n      swap1\n      div\n      sub(shl(0xa0, 0x01), 0x01)\n      and\n      sub(shl(0xa0, 0x01), 0x01)\n        /* \"contracts/Template/Istanbul10/logic/Auction.sol\":4690:4711  IRouter(router).vault */\n      and\n      0xfbfa77cf\n        /* \"contracts/Template/Istanbul10/logic/Auction.sol\":4690:4713  IRouter(router).vault() */\n      mload(0x40)\n      dup2\n      0xffffffff\n      and\n      0xe0\n      shl\n      dup2\n      mstore\n      0x04\n      add\n      0x20\n      mload(0x40)\n      dup1\n      dup4\n      sub\n      dup2\n      dup7\n      dup1\n      extcodesize\n      iszero\n      dup1\n      iszero\n      tag_202\n      jumpi\n      0x00\n      dup1\n      revert\n    tag_202:\n      pop\n      gas\n      staticcall\n      iszero\n      dup1\n      iszero\n      tag_204\n      jumpi\n      returndatasize\n      0x00\n      dup1\n      returndatacopy\n      revert(0x00, returndatasize)\n    tag_204:\n      pop\n      pop\n      pop\n      pop\n      mload(0x40)\n      returndatasize\n      not(0x1f)\n      0x1f\n      dup3\n      add\n      and\n      dup3\n      add\n      dup1\n      0x40\n      mstore\n      pop\n      dup2\n      add\n      swap1\n      tag_205\n      swap2\n      swap1\n      tag_182\n      jump\t// in\n    tag_205:\n        /* \"contracts/Template/Istanbul10/logic/Auction.sol\":4683:4713  return IRouter(router).vault() */\n      swap1\n      pop\n        /* \"contracts/Template/Istanbul10/logic/Auction.sol\":4617:4721  function getVaultAddress() public view returns(address){\r... */\n      swap1\n      jump\t// out\n        /* \"contracts/Template/Istanbul10/logic/Auction.sol\":890:1098  function initialize() public {\r... */\n    tag_56:\n        /* \"contracts/Template/Istanbul10/logic/Auction.sol\":939:950  initializer */\n      sload(0x01)\n      shl(0xa0, 0x01)\n      swap1\n      div\n      0xff\n      and\n        /* \"contracts/Template/Istanbul10/logic/Auction.sol\":938:950  !initializer */\n      iszero\n        /* \"contracts/Template/Istanbul10/logic/Auction.sol\":930:987  require(!initializer,\"initialize :: Already initialized\") */\n      tag_207\n      jumpi\n      mload(0x40)\n      shl(0xe5, 0x461bcd)\n      dup2\n      mstore\n        /* \"#utility.yul\":11022:11024   */\n      0x20\n        /* \"contracts/Template/Istanbul10/logic/Auction.sol\":930:987  require(!initializer,\"initialize :: Already initialized\") */\n      0x04\n      dup3\n      add\n        /* \"#utility.yul\":11004:11025   */\n      mstore\n        /* \"#utility.yul\":11061:11063   */\n      0x21\n        /* \"#utility.yul\":11041:11059   */\n      0x24\n      dup3\n      add\n        /* \"#utility.yul\":11034:11064   */\n      mstore\n        /* \"#utility.yul\":11100:11134   */\n      0x696e697469616c697a65203a3a20416c726561647920696e697469616c697a65\n        /* \"#utility.yul\":11080:11098   */\n      0x44\n      dup3\n      add\n        /* \"#utility.yul\":11073:11135   */\n      mstore\n      shl(0xfa, 0x19)\n        /* \"#utility.yul\":11151:11169   */\n      0x64\n      dup3\n      add\n        /* \"#utility.yul\":11144:11175   */\n      mstore\n        /* \"#utility.yul\":11192:11211   */\n      0x84\n      add\n        /* \"contracts/Template/Istanbul10/logic/Auction.sol\":930:987  require(!initializer,\"initialize :: Already initialized\") */\n      tag_132\n        /* \"#utility.yul\":10994:11217   */\n      jump\n        /* \"contracts/Template/Istanbul10/logic/Auction.sol\":930:987  require(!initializer,\"initialize :: Already initialized\") */\n    tag_207:\n        /* \"contracts/Template/Istanbul10/logic/Auction.sol\":1013:1024  initializer */\n      0x01\n      dup1\n      sload\n      0xff\n      shl(0xa0, 0x01)\n      dup1\n      dup4\n      div\n      swap2\n      swap1\n      swap2\n      and\n        /* \"contracts/Template/Istanbul10/logic/Auction.sol\":1012:1024  !initializer */\n      iszero\n        /* \"contracts/Template/Istanbul10/logic/Auction.sol\":998:1024  initializer = !initializer */\n      mul\n      not(shl(0xa0, 0xff))\n      swap1\n      swap2\n      and\n      or\n      swap1\n      sstore\n      0x00\n        /* \"contracts/Template/Istanbul10/logic/Auction.sol\":1035:1054  router = msg.sender */\n      dup1\n      sload\n      not(sub(shl(0xa0, 0x01), 0x01))\n      and\n        /* \"contracts/Template/Istanbul10/logic/Auction.sol\":1044:1054  msg.sender */\n      caller\n        /* \"contracts/Template/Istanbul10/logic/Auction.sol\":1035:1054  router = msg.sender */\n      or\n      swap1\n      sstore\n        /* \"contracts/Template/Istanbul10/logic/Auction.sol\":1081:1090  2 minutes */\n      0x78\n        /* \"contracts/Template/Istanbul10/logic/Auction.sol\":1065:1078  auctionLength */\n      0x03\n        /* \"contracts/Template/Istanbul10/logic/Auction.sol\":1065:1090  auctionLength = 2 minutes */\n      sstore\n        /* \"contracts/Template/Istanbul10/logic/Auction.sol\":890:1098  function initialize() public {\r... */\n      jump\t// out\n        /* \"contracts/Template/Istanbul10/logic/Auction.sol\":4835:4952  function getSettings() public view returns(ISettings) {\r... */\n    tag_64:\n        /* \"contracts/Template/Istanbul10/logic/Auction.sol\":4878:4887  ISettings */\n      0x00\n        /* \"contracts/Template/Istanbul10/logic/Auction.sol\":4925:4931  router */\n      dup1\n      0x00\n      swap1\n      sload\n      swap1\n      0x0100\n      exp\n      swap1\n      div\n      sub(shl(0xa0, 0x01), 0x01)\n      and\n      sub(shl(0xa0, 0x01), 0x01)\n        /* \"contracts/Template/Istanbul10/logic/Auction.sol\":4917:4941  IRouter(router).settings */\n      and\n      0xe06174e4\n        /* \"contracts/Template/Istanbul10/logic/Auction.sol\":4917:4943  IRouter(router).settings() */\n      mload(0x40)\n      dup2\n      0xffffffff\n      and\n      0xe0\n      shl\n      dup2\n      mstore\n      0x04\n      add\n      0x20\n      mload(0x40)\n      dup1\n      dup4\n      sub\n      dup2\n      dup7\n      dup1\n      extcodesize\n      iszero\n      dup1\n      iszero\n      tag_202\n      jumpi\n      0x00\n      dup1\n      revert\n        /* \"contracts/Template/Istanbul10/logic/Auction.sol\":4729:4827  function getVault() public view returns(IVault){\r... */\n    tag_69:\n        /* \"contracts/Template/Istanbul10/logic/Auction.sol\":4769:4775  IVault */\n      0x00\n        /* \"contracts/Template/Istanbul10/logic/Auction.sol\":4801:4818  getVaultAddress() */\n      tag_205\n        /* \"contracts/Template/Istanbul10/logic/Auction.sol\":4801:4816  getVaultAddress */\n      tag_47\n        /* \"contracts/Template/Istanbul10/logic/Auction.sol\":4801:4818  getVaultAddress() */\n      jump\t// in\n        /* \"contracts/Template/Istanbul10/logic/Auction.sol\":4241:4609  function utilCompareInternal(string memory a, string memory b) public view  returns (bool) {\r... */\n    tag_76:\n        /* \"contracts/Template/Istanbul10/logic/Auction.sol\":4326:4330  bool */\n      0x00\n        /* \"contracts/Template/Istanbul10/logic/Auction.sol\":4372:4373  b */\n      dup2\n        /* \"contracts/Template/Istanbul10/logic/Auction.sol\":4366:4381  bytes(b).length */\n      mload\n        /* \"contracts/Template/Istanbul10/logic/Auction.sol\":4353:4354  a */\n      dup4\n        /* \"contracts/Template/Istanbul10/logic/Auction.sol\":4347:4362  bytes(a).length */\n      mload\n        /* \"contracts/Template/Istanbul10/logic/Auction.sol\":4347:4381  bytes(a).length != bytes(b).length */\n      eq\n        /* \"contracts/Template/Istanbul10/logic/Auction.sol\":4343:4422  if (bytes(a).length != bytes(b).length) {\r... */\n      tag_218\n      jumpi\n      pop\n        /* \"contracts/Template/Istanbul10/logic/Auction.sol\":4405:4410  false */\n      0x00\n        /* \"contracts/Template/Istanbul10/logic/Auction.sol\":4398:4410  return false */\n      jump(tag_217)\n        /* \"contracts/Template/Istanbul10/logic/Auction.sol\":4343:4422  if (bytes(a).length != bytes(b).length) {\r... */\n    tag_218:\n        /* \"contracts/Template/Istanbul10/logic/Auction.sol\":4437:4443  uint i */\n      0x00\n        /* \"contracts/Template/Istanbul10/logic/Auction.sol\":4432:4580  for (uint i = 0; i < bytes(a).length; i ++) {\r... */\n    tag_219:\n        /* \"contracts/Template/Istanbul10/logic/Auction.sol\":4459:4460  a */\n      dup4\n        /* \"contracts/Template/Istanbul10/logic/Auction.sol\":4453:4468  bytes(a).length */\n      mload\n        /* \"contracts/Template/Istanbul10/logic/Auction.sol\":4449:4450  i */\n      dup2\n        /* \"contracts/Template/Istanbul10/logic/Auction.sol\":4449:4468  i < bytes(a).length */\n      lt\n        /* \"contracts/Template/Istanbul10/logic/Auction.sol\":4432:4580  for (uint i = 0; i < bytes(a).length; i ++) {\r... */\n      iszero\n      tag_220\n      jumpi\n        /* \"contracts/Template/Istanbul10/logic/Auction.sol\":4515:4516  b */\n      dup3\n        /* \"contracts/Template/Istanbul10/logic/Auction.sol\":4518:4519  i */\n      dup2\n        /* \"contracts/Template/Istanbul10/logic/Auction.sol\":4509:4520  bytes(b)[i] */\n      dup2\n      mload\n      dup2\n      lt\n      tag_223\n      jumpi\n      tag_223\n      tag_224\n      jump\t// in\n    tag_223:\n      0x20\n      add\n      add\n      mload\n      0xf8\n      shr\n      0xf8\n      shl\n      sub(shl(0xf8, 0x01), 0x01)\n        /* \"contracts/Template/Istanbul10/logic/Auction.sol\":4494:4520  bytes(a)[i] != bytes(b)[i] */\n      not\n      and\n        /* \"contracts/Template/Istanbul10/logic/Auction.sol\":4500:4501  a */\n      dup5\n        /* \"contracts/Template/Istanbul10/logic/Auction.sol\":4503:4504  i */\n      dup3\n        /* \"contracts/Template/Istanbul10/logic/Auction.sol\":4494:4505  bytes(a)[i] */\n      dup2\n      mload\n      dup2\n      lt\n      tag_226\n      jumpi\n      tag_226\n      tag_224\n      jump\t// in\n    tag_226:\n      add\n      0x20\n      add\n      mload\n      not(sub(shl(0xf8, 0x01), 0x01))\n      and\n        /* \"contracts/Template/Istanbul10/logic/Auction.sol\":4494:4520  bytes(a)[i] != bytes(b)[i] */\n      eq\n        /* \"contracts/Template/Istanbul10/logic/Auction.sol\":4491:4569  if(bytes(a)[i] != bytes(b)[i]) {\r... */\n      tag_227\n      jumpi\n        /* \"contracts/Template/Istanbul10/logic/Auction.sol\":4548:4553  false */\n      0x00\n        /* \"contracts/Template/Istanbul10/logic/Auction.sol\":4541:4553  return false */\n      swap2\n      pop\n      pop\n      jump(tag_217)\n        /* \"contracts/Template/Istanbul10/logic/Auction.sol\":4491:4569  if(bytes(a)[i] != bytes(b)[i]) {\r... */\n    tag_227:\n        /* \"contracts/Template/Istanbul10/logic/Auction.sol\":4470:4474  i ++ */\n      dup1\n      tag_228\n      dup2\n      tag_229\n      jump\t// in\n    tag_228:\n      swap2\n      pop\n      pop\n        /* \"contracts/Template/Istanbul10/logic/Auction.sol\":4432:4580  for (uint i = 0; i < bytes(a).length; i ++) {\r... */\n      jump(tag_219)\n    tag_220:\n      pop\n        /* \"contracts/Template/Istanbul10/logic/Auction.sol\":4597:4601  true */\n      0x01\n        /* \"contracts/Template/Istanbul10/logic/Auction.sol\":4590:4601  return true */\n      swap1\n      pop\n        /* \"contracts/Template/Istanbul10/logic/Auction.sol\":4241:4609  function utilCompareInternal(string memory a, string memory b) public view  returns (bool) {\r... */\n    tag_217:\n      swap3\n      swap2\n      pop\n      pop\n      jump\t// out\n        /* \"contracts/Template/Istanbul10/logic/Auction.sol\":1106:1321  function setPrice(uint256 _price) public {\r... */\n    tag_82:\n        /* \"contracts/Template/Istanbul10/logic/Auction.sol\":1174:1180  router */\n      sload(0x00)\n        /* \"contracts/Template/Istanbul10/logic/Auction.sol\":1166:1203  IRouter(router).whiteList(msg.sender) */\n      mload(0x40)\n      shl(0xe0, 0x372c12b1)\n      dup2\n      mstore\n        /* \"contracts/Template/Istanbul10/logic/Auction.sol\":1192:1202  msg.sender */\n      caller\n        /* \"contracts/Template/Istanbul10/logic/Auction.sol\":1166:1203  IRouter(router).whiteList(msg.sender) */\n      0x04\n      dup3\n      add\n        /* \"#utility.yul\":4481:4532   */\n      mstore\n      sub(shl(0xa0, 0x01), 0x01)\n        /* \"contracts/Template/Istanbul10/logic/Auction.sol\":1174:1180  router */\n      swap1\n      swap2\n      and\n      swap1\n        /* \"contracts/Template/Istanbul10/logic/Auction.sol\":1166:1191  IRouter(router).whiteList */\n      0x372c12b1\n      swap1\n        /* \"#utility.yul\":4454:4472   */\n      0x24\n      add\n        /* \"contracts/Template/Istanbul10/logic/Auction.sol\":1166:1203  IRouter(router).whiteList(msg.sender) */\n      0x20\n      mload(0x40)\n      dup1\n      dup4\n      sub\n      dup2\n      dup7\n      dup1\n      extcodesize\n      iszero\n      dup1\n      iszero\n      tag_232\n      jumpi\n      0x00\n      dup1\n      revert\n    tag_232:\n      pop\n      gas\n      staticcall\n      iszero\n      dup1\n      iszero\n      tag_234\n      jumpi\n      returndatasize\n      0x00\n      dup1\n      returndatacopy\n      revert(0x00, returndatasize)\n    tag_234:\n      pop\n      pop\n      pop\n      pop\n      mload(0x40)\n      returndatasize\n      not(0x1f)\n      0x1f\n      dup3\n      add\n      and\n      dup3\n      add\n      dup1\n      0x40\n      mstore\n      pop\n      dup2\n      add\n      swap1\n      tag_235\n      swap2\n      swap1\n      tag_236\n      jump\t// in\n    tag_235:\n        /* \"contracts/Template/Istanbul10/logic/Auction.sol\":1158:1242  require(IRouter(router).whiteList(msg.sender),\"setPrice :: Caller permission error\") */\n      tag_237\n      jumpi\n      mload(0x40)\n      shl(0xe5, 0x461bcd)\n      dup2\n      mstore\n        /* \"#utility.yul\":7388:7390   */\n      0x20\n        /* \"contracts/Template/Istanbul10/logic/Auction.sol\":1158:1242  require(IRouter(router).whiteList(msg.sender),\"setPrice :: Caller permission error\") */\n      0x04\n      dup3\n      add\n        /* \"#utility.yul\":7370:7391   */\n      mstore\n        /* \"#utility.yul\":7427:7429   */\n      0x23\n        /* \"#utility.yul\":7407:7425   */\n      0x24\n      dup3\n      add\n        /* \"#utility.yul\":7400:7430   */\n      mstore\n        /* \"#utility.yul\":7466:7500   */\n      0x7365745072696365203a3a2043616c6c6572207065726d697373696f6e206572\n        /* \"#utility.yul\":7446:7464   */\n      0x44\n      dup3\n      add\n        /* \"#utility.yul\":7439:7501   */\n      mstore\n      shl(0xe9, 0x3937b9)\n        /* \"#utility.yul\":7517:7535   */\n      0x64\n      dup3\n      add\n        /* \"#utility.yul\":7510:7543   */\n      mstore\n        /* \"#utility.yul\":7560:7579   */\n      0x84\n      add\n        /* \"contracts/Template/Istanbul10/logic/Auction.sol\":1158:1242  require(IRouter(router).whiteList(msg.sender),\"setPrice :: Caller permission error\") */\n      tag_132\n        /* \"#utility.yul\":7360:7585   */\n      jump\n        /* \"contracts/Template/Istanbul10/logic/Auction.sol\":1158:1242  require(IRouter(router).whiteList(msg.sender),\"setPrice :: Caller permission error\") */\n    tag_237:\n        /* \"contracts/Template/Istanbul10/logic/Auction.sol\":1253:1269  EntireVaultPrice */\n      0x02\n        /* \"contracts/Template/Istanbul10/logic/Auction.sol\":1253:1278  EntireVaultPrice = _price */\n      dup2\n      swap1\n      sstore\n        /* \"contracts/Template/Istanbul10/logic/Auction.sol\":1294:1313  EntirePrice(_price) */\n      mload(0x40)\n        /* \"#utility.yul\":12065:12090   */\n      dup2\n      dup2\n      mstore\n        /* \"contracts/Template/Istanbul10/logic/Auction.sol\":1294:1313  EntirePrice(_price) */\n      0xd625dc2138f94556f2cf89e7e1c67cc54705c9abe155ad8fb518f4121e942de6\n      swap1\n        /* \"#utility.yul\":12053:12055   */\n      0x20\n        /* \"#utility.yul\":12038:12056   */\n      add\n        /* \"contracts/Template/Istanbul10/logic/Auction.sol\":1294:1313  EntirePrice(_price) */\n      tag_200\n        /* \"#utility.yul\":12020:12096   */\n      jump\n        /* \"contracts/Template/Istanbul10/logic/Auction.sol\":1890:2553  function start() external payable {\r... */\n    tag_88:\n        /* \"contracts/Template/Istanbul10/logic/Auction.sol\":1979:2001  State.NftState.freedom */\n      0x00\n        /* \"contracts/Template/Istanbul10/logic/Auction.sol\":1943:1953  getVault() */\n      tag_244\n        /* \"contracts/Template/Istanbul10/logic/Auction.sol\":1943:1951  getVault */\n      tag_69\n        /* \"contracts/Template/Istanbul10/logic/Auction.sol\":1943:1953  getVault() */\n      jump\t// in\n    tag_244:\n      sub(shl(0xa0, 0x01), 0x01)\n        /* \"contracts/Template/Istanbul10/logic/Auction.sol\":1943:1973  getVault().getEntireVaultState */\n      and\n      0xd58bfa9d\n        /* \"contracts/Template/Istanbul10/logic/Auction.sol\":1943:1975  getVault().getEntireVaultState() */\n      mload(0x40)\n      dup2\n      0xffffffff\n      and\n      0xe0\n      shl\n      dup2\n      mstore\n      0x04\n      add\n      0x20\n      mload(0x40)\n      dup1\n      dup4\n      sub\n      dup2\n      dup7\n      dup1\n      extcodesize\n      iszero\n      dup1\n      iszero\n      tag_245\n      jumpi\n      0x00\n      dup1\n      revert\n    tag_245:\n      pop\n      gas\n      staticcall\n      iszero\n      dup1\n      iszero\n      tag_247\n      jumpi\n      returndatasize\n      0x00\n      dup1\n      returndatacopy\n      revert(0x00, returndatasize)\n    tag_247:\n      pop\n      pop\n      pop\n      pop\n      mload(0x40)\n      returndatasize\n      not(0x1f)\n      0x1f\n      dup3\n      add\n      and\n      dup3\n      add\n      dup1\n      0x40\n      mstore\n      pop\n      dup2\n      add\n      swap1\n      tag_248\n      swap2\n      swap1\n      tag_120\n      jump\t// in\n    tag_248:\n        /* \"contracts/Template/Istanbul10/logic/Auction.sol\":1943:2001  getVault().getEntireVaultState() == State.NftState.freedom */\n      0x02\n      dup2\n      gt\n      iszero\n      tag_250\n      jumpi\n      tag_250\n      tag_114\n      jump\t// in\n    tag_250:\n      eq\n        /* \"contracts/Template/Istanbul10/logic/Auction.sol\":1935:2032  require(getVault().getEntireVaultState() == State.NftState.freedom, \"start :: no auction starts\") */\n      tag_251\n      jumpi\n      mload(0x40)\n      shl(0xe5, 0x461bcd)\n      dup2\n      mstore\n        /* \"#utility.yul\":8551:8553   */\n      0x20\n        /* \"contracts/Template/Istanbul10/logic/Auction.sol\":1935:2032  require(getVault().getEntireVaultState() == State.NftState.freedom, \"start :: no auction starts\") */\n      0x04\n      dup3\n      add\n        /* \"#utility.yul\":8533:8554   */\n      mstore\n        /* \"#utility.yul\":8590:8592   */\n      0x1a\n        /* \"#utility.yul\":8570:8588   */\n      0x24\n      dup3\n      add\n        /* \"#utility.yul\":8563:8593   */\n      mstore\n        /* \"#utility.yul\":8629:8657   */\n      0x7374617274203a3a206e6f2061756374696f6e20737461727473000000000000\n        /* \"#utility.yul\":8609:8627   */\n      0x44\n      dup3\n      add\n        /* \"#utility.yul\":8602:8658   */\n      mstore\n        /* \"#utility.yul\":8675:8693   */\n      0x64\n      add\n        /* \"contracts/Template/Istanbul10/logic/Auction.sol\":1935:2032  require(getVault().getEntireVaultState() == State.NftState.freedom, \"start :: no auction starts\") */\n      tag_132\n        /* \"#utility.yul\":8523:8699   */\n      jump\n        /* \"contracts/Template/Istanbul10/logic/Auction.sol\":1935:2032  require(getVault().getEntireVaultState() == State.NftState.freedom, \"start :: no auction starts\") */\n    tag_251:\n        /* \"contracts/Template/Istanbul10/logic/Auction.sol\":2051:2067  EntireVaultPrice */\n      sload(0x02)\n        /* \"contracts/Template/Istanbul10/logic/Auction.sol\":2043:2111  require(EntireVaultPrice != 0,\"start :: Entire vault price is zore\") */\n      tag_254\n      jumpi\n      mload(0x40)\n      shl(0xe5, 0x461bcd)\n      dup2\n      mstore\n        /* \"#utility.yul\":7792:7794   */\n      0x20\n        /* \"contracts/Template/Istanbul10/logic/Auction.sol\":2043:2111  require(EntireVaultPrice != 0,\"start :: Entire vault price is zore\") */\n      0x04\n      dup3\n      add\n        /* \"#utility.yul\":7774:7795   */\n      mstore\n        /* \"#utility.yul\":7831:7833   */\n      0x23\n        /* \"#utility.yul\":7811:7829   */\n      0x24\n      dup3\n      add\n        /* \"#utility.yul\":7804:7834   */\n      mstore\n        /* \"#utility.yul\":7870:7904   */\n      0x7374617274203a3a20456e74697265207661756c74207072696365206973207a\n        /* \"#utility.yul\":7850:7868   */\n      0x44\n      dup3\n      add\n        /* \"#utility.yul\":7843:7905   */\n      mstore\n      shl(0xe8, 0x6f7265)\n        /* \"#utility.yul\":7921:7939   */\n      0x64\n      dup3\n      add\n        /* \"#utility.yul\":7914:7947   */\n      mstore\n        /* \"#utility.yul\":7964:7983   */\n      0x84\n      add\n        /* \"contracts/Template/Istanbul10/logic/Auction.sol\":2043:2111  require(EntireVaultPrice != 0,\"start :: Entire vault price is zore\") */\n      tag_132\n        /* \"#utility.yul\":7764:7989   */\n      jump\n        /* \"contracts/Template/Istanbul10/logic/Auction.sol\":2043:2111  require(EntireVaultPrice != 0,\"start :: Entire vault price is zore\") */\n    tag_254:\n        /* \"contracts/Template/Istanbul10/logic/Auction.sol\":2143:2159  EntireVaultPrice */\n      sload(0x02)\n        /* \"contracts/Template/Istanbul10/logic/Auction.sol\":2130:2139  msg.value */\n      callvalue\n        /* \"contracts/Template/Istanbul10/logic/Auction.sol\":2130:2159  msg.value >= EntireVaultPrice */\n      lt\n      iszero\n        /* \"contracts/Template/Istanbul10/logic/Auction.sol\":2122:2184  require(msg.value >= EntireVaultPrice, \"start :: too low bid\") */\n      tag_257\n      jumpi\n      mload(0x40)\n      shl(0xe5, 0x461bcd)\n      dup2\n      mstore\n        /* \"#utility.yul\":8906:8908   */\n      0x20\n        /* \"contracts/Template/Istanbul10/logic/Auction.sol\":2122:2184  require(msg.value >= EntireVaultPrice, \"start :: too low bid\") */\n      0x04\n      dup3\n      add\n        /* \"#utility.yul\":8888:8909   */\n      mstore\n        /* \"#utility.yul\":8945:8947   */\n      0x14\n        /* \"#utility.yul\":8925:8943   */\n      0x24\n      dup3\n      add\n        /* \"#utility.yul\":8918:8948   */\n      mstore\n      shl(0x62, 0x1cdd185c9d080e8e881d1bdbc81b1bddc8189a59)\n        /* \"#utility.yul\":8964:8982   */\n      0x44\n      dup3\n      add\n        /* \"#utility.yul\":8957:9007   */\n      mstore\n        /* \"#utility.yul\":9024:9042   */\n      0x64\n      add\n        /* \"contracts/Template/Istanbul10/logic/Auction.sol\":2122:2184  require(msg.value >= EntireVaultPrice, \"start :: too low bid\") */\n      tag_132\n        /* \"#utility.yul\":8878:9048   */\n      jump\n        /* \"contracts/Template/Istanbul10/logic/Auction.sol\":2122:2184  require(msg.value >= EntireVaultPrice, \"start :: too low bid\") */\n    tag_257:\n        /* \"contracts/Template/Istanbul10/logic/Auction.sol\":2228:2241  auctionLength */\n      sload(0x03)\n        /* \"contracts/Template/Istanbul10/logic/Auction.sol\":2210:2241  block.timestamp + auctionLength */\n      tag_260\n      swap1\n        /* \"contracts/Template/Istanbul10/logic/Auction.sol\":2210:2225  block.timestamp */\n      timestamp\n        /* \"contracts/Template/Istanbul10/logic/Auction.sol\":2210:2241  block.timestamp + auctionLength */\n      tag_141\n      jump\t// in\n    tag_260:\n        /* \"contracts/Template/Istanbul10/logic/Auction.sol\":2197:2207  auctionEnd */\n      0x05\n        /* \"contracts/Template/Istanbul10/logic/Auction.sol\":2197:2241  auctionEnd = block.timestamp + auctionLength */\n      sstore\n        /* \"contracts/Template/Istanbul10/logic/Auction.sol\":2254:2264  getVault() */\n      tag_261\n        /* \"contracts/Template/Istanbul10/logic/Auction.sol\":2254:2262  getVault */\n      tag_69\n        /* \"contracts/Template/Istanbul10/logic/Auction.sol\":2254:2264  getVault() */\n      jump\t// in\n    tag_261:\n      sub(shl(0xa0, 0x01), 0x01)\n        /* \"contracts/Template/Istanbul10/logic/Auction.sol\":2254:2277  getVault().safeSetState */\n      and\n      0xe77ae39b\n        /* \"contracts/Template/Istanbul10/logic/Auction.sol\":2286:2287  0 */\n      0x00\n        /* \"contracts/Template/Istanbul10/logic/Auction.sol\":2289:2290  0 */\n      dup1\n        /* \"contracts/Template/Istanbul10/logic/Auction.sol\":2291:2314  State.NftState.occupied */\n      0x01\n        /* \"contracts/Template/Istanbul10/logic/Auction.sol\":2254:2325  getVault().safeSetState(address(0),0,State.NftState.occupied,\"Auction\") */\n      mload(0x40)\n      dup5\n      0xffffffff\n      and\n      0xe0\n      shl\n      dup2\n      mstore\n      0x04\n      add\n      tag_262\n      swap4\n      swap3\n      swap2\n      swap1\n      tag_263\n      jump\t// in\n    tag_262:\n      0x00\n      mload(0x40)\n      dup1\n      dup4\n      sub\n      dup2\n      0x00\n      dup8\n      dup1\n      extcodesize\n      iszero\n      dup1\n      iszero\n      tag_264\n      jumpi\n      0x00\n      dup1\n      revert\n    tag_264:\n      pop\n      gas\n      call\n      iszero\n      dup1\n      iszero\n      tag_266\n      jumpi\n      returndatasize\n      0x00\n      dup1\n      returndatacopy\n      revert(0x00, returndatasize)\n    tag_266:\n      pop\n      pop\n        /* \"contracts/Template/Istanbul10/logic/Auction.sol\":2350:2359  msg.value */\n      callvalue\n        /* \"contracts/Template/Istanbul10/logic/Auction.sol\":2338:2347  livePrice */\n      0x06\n        /* \"contracts/Template/Istanbul10/logic/Auction.sol\":2338:2359  livePrice = msg.value */\n      sstore\n      pop\n        /* \"contracts/Template/Istanbul10/logic/Auction.sol\":2378:2395  getVaultAddress() */\n      tag_267\n      swap1\n      pop\n        /* \"contracts/Template/Istanbul10/logic/Auction.sol\":2378:2393  getVaultAddress */\n      tag_47\n        /* \"contracts/Template/Istanbul10/logic/Auction.sol\":2378:2395  getVaultAddress() */\n      jump\t// in\n    tag_267:\n      sub(shl(0xa0, 0x01), 0x01)\n        /* \"contracts/Template/Istanbul10/logic/Auction.sol\":2370:2405  payable(getVaultAddress()).transfer */\n      and\n        /* \"contracts/Template/Istanbul10/logic/Auction.sol\":2370:2416  payable(getVaultAddress()).transfer(livePrice) */\n      0x08fc\n        /* \"contracts/Template/Istanbul10/logic/Auction.sol\":2406:2415  livePrice */\n      sload(0x06)\n        /* \"contracts/Template/Istanbul10/logic/Auction.sol\":2370:2416  payable(getVaultAddress()).transfer(livePrice) */\n      swap1\n      dup2\n      iszero\n      mul\n      swap1\n      mload(0x40)\n      0x00\n      mload(0x40)\n      dup1\n      dup4\n      sub\n      dup2\n      dup6\n      dup9\n      dup9\n      call\n      swap4\n      pop\n      pop\n      pop\n      pop\n      iszero\n      dup1\n      iszero\n      tag_269\n      jumpi\n      returndatasize\n      0x00\n      dup1\n      returndatacopy\n      revert(0x00, returndatasize)\n    tag_269:\n      pop\n        /* \"contracts/Template/Istanbul10/logic/Auction.sol\":2427:2434  winning */\n      0x07\n        /* \"contracts/Template/Istanbul10/logic/Auction.sol\":2427:2456  winning = payable(msg.sender) */\n      dup1\n      sload\n      not(sub(shl(0xa0, 0x01), 0x01))\n      and\n        /* \"contracts/Template/Istanbul10/logic/Auction.sol\":2445:2455  msg.sender */\n      caller\n        /* \"contracts/Template/Istanbul10/logic/Auction.sol\":2427:2456  winning = payable(msg.sender) */\n      or\n      swap1\n      sstore\n        /* \"contracts/Template/Istanbul10/logic/Auction.sol\":2469:2479  getVault() */\n      tag_270\n        /* \"contracts/Template/Istanbul10/logic/Auction.sol\":2469:2477  getVault */\n      tag_69\n        /* \"contracts/Template/Istanbul10/logic/Auction.sol\":2469:2479  getVault() */\n      jump\t// in\n    tag_270:\n      sub(shl(0xa0, 0x01), 0x01)\n        /* \"contracts/Template/Istanbul10/logic/Auction.sol\":2469:2491  getVault().noncallable */\n      and\n      0x1370c6a9\n        /* \"contracts/Template/Istanbul10/logic/Auction.sol\":2469:2493  getVault().noncallable() */\n      mload(0x40)\n      dup2\n      0xffffffff\n      and\n      0xe0\n      shl\n      dup2\n      mstore\n      0x04\n      add\n      0x00\n      mload(0x40)\n      dup1\n      dup4\n      sub\n      dup2\n      0x00\n      dup8\n      dup1\n      extcodesize\n      iszero\n      dup1\n      iszero\n      tag_271\n      jumpi\n      0x00\n      dup1\n      revert\n    tag_271:\n      pop\n      gas\n      call\n      iszero\n      dup1\n      iszero\n      tag_273\n      jumpi\n      returndatasize\n      0x00\n      dup1\n      returndatacopy\n      revert(0x00, returndatasize)\n    tag_273:\n      pop\n      pop\n        /* \"contracts/Template/Istanbul10/logic/Auction.sol\":2526:2533  winning */\n      sload(0x07)\n        /* \"contracts/Template/Istanbul10/logic/Auction.sol\":2535:2544  livePrice */\n      sload(0x06)\n        /* \"contracts/Template/Istanbul10/logic/Auction.sol\":2520:2545  Start(winning, livePrice) */\n      mload(0x40)\n        /* \"#utility.yul\":12065:12090   */\n      swap1\n      dup2\n      mstore\n      sub(shl(0xa0, 0x01), 0x01)\n        /* \"contracts/Template/Istanbul10/logic/Auction.sol\":2526:2533  winning */\n      swap1\n      swap2\n      and\n      swap3\n      pop\n        /* \"contracts/Template/Istanbul10/logic/Auction.sol\":2520:2545  Start(winning, livePrice) */\n      0xcfb9c5312b25ec7b809d61e638df25f749eae5d5c25399e1c93d1d319bfd5821\n      swap2\n      pop\n        /* \"#utility.yul\":12053:12055   */\n      0x20\n        /* \"#utility.yul\":12038:12056   */\n      add\n        /* \"contracts/Template/Istanbul10/logic/Auction.sol\":2520:2545  Start(winning, livePrice) */\n    tag_274:\n      mload(0x40)\n      dup1\n      swap2\n      sub\n      swap1\n      log2\n        /* \"contracts/Template/Istanbul10/logic/Auction.sol\":1890:2553  function start() external payable {\r... */\n      jump\t// out\n        /* \"contracts/Template/Istanbul10/data/AuctionData.sol\":522:553  uint256[] public EntireVaultNft */\n    tag_98:\n      0x08\n      dup2\n      dup2\n      sload\n      dup2\n      lt\n      tag_275\n      jumpi\n      0x00\n      dup1\n      revert\n    tag_275:\n      0x00\n      swap2\n      dup3\n      mstore\n      0x20\n      swap1\n      swap2\n      keccak256\n      add\n      sload\n      swap1\n      pop\n      dup2\n      jump\t// out\n        /* \"contracts/Template/Istanbul10/logic/Auction.sol\":3669:4231  function end() external {\r... */\n    tag_102:\n        /* \"contracts/Template/Istanbul10/logic/Auction.sol\":3749:3772  State.NftState.occupied */\n      0x01\n        /* \"contracts/Template/Istanbul10/logic/Auction.sol\":3713:3723  getVault() */\n      tag_280\n        /* \"contracts/Template/Istanbul10/logic/Auction.sol\":3713:3721  getVault */\n      tag_69\n        /* \"contracts/Template/Istanbul10/logic/Auction.sol\":3713:3723  getVault() */\n      jump\t// in\n    tag_280:\n      sub(shl(0xa0, 0x01), 0x01)\n        /* \"contracts/Template/Istanbul10/logic/Auction.sol\":3713:3743  getVault().getEntireVaultState */\n      and\n      0xd58bfa9d\n        /* \"contracts/Template/Istanbul10/logic/Auction.sol\":3713:3745  getVault().getEntireVaultState() */\n      mload(0x40)\n      dup2\n      0xffffffff\n      and\n      0xe0\n      shl\n      dup2\n      mstore\n      0x04\n      add\n      0x20\n      mload(0x40)\n      dup1\n      dup4\n      sub\n      dup2\n      dup7\n      dup1\n      extcodesize\n      iszero\n      dup1\n      iszero\n      tag_281\n      jumpi\n      0x00\n      dup1\n      revert\n    tag_281:\n      pop\n      gas\n      staticcall\n      iszero\n      dup1\n      iszero\n      tag_283\n      jumpi\n      returndatasize\n      0x00\n      dup1\n      returndatacopy\n      revert(0x00, returndatasize)\n    tag_283:\n      pop\n      pop\n      pop\n      pop\n      mload(0x40)\n      returndatasize\n      not(0x1f)\n      0x1f\n      dup3\n      add\n      and\n      dup3\n      add\n      dup1\n      0x40\n      mstore\n      pop\n      dup2\n      add\n      swap1\n      tag_284\n      swap2\n      swap1\n      tag_120\n      jump\t// in\n    tag_284:\n        /* \"contracts/Template/Istanbul10/logic/Auction.sol\":3713:3772  getVault().getEntireVaultState() == State.NftState.occupied */\n      0x02\n      dup2\n      gt\n      iszero\n      tag_286\n      jumpi\n      tag_286\n      tag_114\n      jump\t// in\n    tag_286:\n      eq\n        /* \"contracts/Template/Istanbul10/logic/Auction.sol\":3713:3842  getVault().getEntireVaultState() == State.NftState.occupied && utilCompareInternal(getVault().getEntireVaultActivity(),\"Auction\") */\n      dup1\n      iszero\n      tag_288\n      jumpi\n      pop\n        /* \"contracts/Template/Istanbul10/logic/Auction.sol\":3776:3842  utilCompareInternal(getVault().getEntireVaultActivity(),\"Auction\") */\n      tag_288\n        /* \"contracts/Template/Istanbul10/logic/Auction.sol\":3796:3806  getVault() */\n      tag_125\n        /* \"contracts/Template/Istanbul10/logic/Auction.sol\":3796:3804  getVault */\n      tag_69\n        /* \"contracts/Template/Istanbul10/logic/Auction.sol\":3796:3806  getVault() */\n      jump\t// in\n        /* \"contracts/Template/Istanbul10/logic/Auction.sol\":3776:3842  utilCompareInternal(getVault().getEntireVaultActivity(),\"Auction\") */\n    tag_288:\n        /* \"contracts/Template/Istanbul10/logic/Auction.sol\":3704:3879  require( getVault().getEntireVaultState() == State.NftState.occupied && utilCompareInternal(getVault().getEntireVaultActivity(),\"Auction\"), \"end :: vault has already closed\" ) */\n      tag_294\n      jumpi\n      mload(0x40)\n      shl(0xe5, 0x461bcd)\n      dup2\n      mstore\n        /* \"#utility.yul\":9602:9604   */\n      0x20\n        /* \"contracts/Template/Istanbul10/logic/Auction.sol\":3704:3879  require( getVault().getEntireVaultState() == State.NftState.occupied && utilCompareInternal(getVault().getEntireVaultActivity(),\"Auction\"), \"end :: vault has already closed\" ) */\n      0x04\n      dup3\n      add\n        /* \"#utility.yul\":9584:9605   */\n      mstore\n        /* \"#utility.yul\":9641:9643   */\n      0x1f\n        /* \"#utility.yul\":9621:9639   */\n      0x24\n      dup3\n      add\n        /* \"#utility.yul\":9614:9644   */\n      mstore\n        /* \"#utility.yul\":9680:9713   */\n      0x656e64203a3a207661756c742068617320616c726561647920636c6f73656400\n        /* \"#utility.yul\":9660:9678   */\n      0x44\n      dup3\n      add\n        /* \"#utility.yul\":9653:9714   */\n      mstore\n        /* \"#utility.yul\":9731:9749   */\n      0x64\n      add\n        /* \"contracts/Template/Istanbul10/logic/Auction.sol\":3704:3879  require( getVault().getEntireVaultState() == State.NftState.occupied && utilCompareInternal(getVault().getEntireVaultActivity(),\"Auction\"), \"end :: vault has already closed\" ) */\n      tag_132\n        /* \"#utility.yul\":9574:9755   */\n      jump\n        /* \"contracts/Template/Istanbul10/logic/Auction.sol\":3704:3879  require( getVault().getEntireVaultState() == State.NftState.occupied && utilCompareInternal(getVault().getEntireVaultActivity(),\"Auction\"), \"end :: vault has already closed\" ) */\n    tag_294:\n        /* \"contracts/Template/Istanbul10/logic/Auction.sol\":3917:3927  auctionEnd */\n      sload(0x05)\n        /* \"contracts/Template/Istanbul10/logic/Auction.sol\":3898:3913  block.timestamp */\n      timestamp\n        /* \"contracts/Template/Istanbul10/logic/Auction.sol\":3898:3927  block.timestamp >= auctionEnd */\n      lt\n      iszero\n        /* \"contracts/Template/Istanbul10/logic/Auction.sol\":3890:3951  require(block.timestamp >= auctionEnd, \"end :: auction live\") */\n      tag_297\n      jumpi\n      mload(0x40)\n      shl(0xe5, 0x461bcd)\n      dup2\n      mstore\n        /* \"#utility.yul\":11773:11775   */\n      0x20\n        /* \"contracts/Template/Istanbul10/logic/Auction.sol\":3890:3951  require(block.timestamp >= auctionEnd, \"end :: auction live\") */\n      0x04\n      dup3\n      add\n        /* \"#utility.yul\":11755:11776   */\n      mstore\n        /* \"#utility.yul\":11812:11814   */\n      0x13\n        /* \"#utility.yul\":11792:11810   */\n      0x24\n      dup3\n      add\n        /* \"#utility.yul\":11785:11815   */\n      mstore\n      shl(0x68, 0x656e64203a3a2061756374696f6e206c697665)\n        /* \"#utility.yul\":11831:11849   */\n      0x44\n      dup3\n      add\n        /* \"#utility.yul\":11824:11873   */\n      mstore\n        /* \"#utility.yul\":11890:11908   */\n      0x64\n      add\n        /* \"contracts/Template/Istanbul10/logic/Auction.sol\":3890:3951  require(block.timestamp >= auctionEnd, \"end :: auction live\") */\n      tag_132\n        /* \"#utility.yul\":11745:11914   */\n      jump\n        /* \"contracts/Template/Istanbul10/logic/Auction.sol\":3890:3951  require(block.timestamp >= auctionEnd, \"end :: auction live\") */\n    tag_297:\n        /* \"contracts/Template/Istanbul10/logic/Auction.sol\":3972:3978  router */\n      0x00\n      dup1\n      sload\n        /* \"contracts/Template/Istanbul10/logic/Auction.sol\":3964:3991  IRouter(router).claimFees() */\n      0x40\n      dup1\n      mload\n      shl(0xe0, 0xd294f093)\n      dup2\n      mstore\n      swap1\n      mload\n      sub(shl(0xa0, 0x01), 0x01)\n        /* \"contracts/Template/Istanbul10/logic/Auction.sol\":3972:3978  router */\n      swap1\n      swap3\n      and\n      swap3\n        /* \"contracts/Template/Istanbul10/logic/Auction.sol\":3964:3989  IRouter(router).claimFees */\n      0xd294f093\n      swap3\n        /* \"contracts/Template/Istanbul10/logic/Auction.sol\":3964:3991  IRouter(router).claimFees() */\n      0x04\n      dup1\n      dup5\n      add\n      swap4\n      dup3\n      swap1\n      sub\n      add\n      dup2\n        /* \"contracts/Template/Istanbul10/logic/Auction.sol\":3972:3978  router */\n      dup4\n      dup8\n        /* \"contracts/Template/Istanbul10/logic/Auction.sol\":3964:3991  IRouter(router).claimFees() */\n      dup1\n      extcodesize\n      iszero\n      dup1\n      iszero\n      tag_300\n      jumpi\n      0x00\n      dup1\n      revert\n    tag_300:\n      pop\n      gas\n      call\n      iszero\n      dup1\n      iszero\n      tag_302\n      jumpi\n      returndatasize\n      0x00\n      dup1\n      returndatacopy\n      revert(0x00, returndatasize)\n    tag_302:\n      pop\n      pop\n      pop\n      pop\n        /* \"contracts/Template/Istanbul10/logic/Auction.sol\":4039:4049  getVault() */\n      tag_303\n        /* \"contracts/Template/Istanbul10/logic/Auction.sol\":4039:4047  getVault */\n      tag_69\n        /* \"contracts/Template/Istanbul10/logic/Auction.sol\":4039:4049  getVault() */\n      jump\t// in\n    tag_303:\n      sub(shl(0xa0, 0x01), 0x01)\n        /* \"contracts/Template/Istanbul10/logic/Auction.sol\":4039:4067  getVault().sendNFTAssetIndex */\n      and\n      0x94c5f3\n        /* \"contracts/Template/Istanbul10/logic/Auction.sol\":4068:4078  getVault() */\n      tag_304\n        /* \"contracts/Template/Istanbul10/logic/Auction.sol\":4068:4076  getVault */\n      tag_69\n        /* \"contracts/Template/Istanbul10/logic/Auction.sol\":4068:4078  getVault() */\n      jump\t// in\n    tag_304:\n      sub(shl(0xa0, 0x01), 0x01)\n        /* \"contracts/Template/Istanbul10/logic/Auction.sol\":4068:4092  getVault().getFreedomNFT */\n      and\n      0x634f6319\n        /* \"contracts/Template/Istanbul10/logic/Auction.sol\":4068:4094  getVault().getFreedomNFT() */\n      mload(0x40)\n      dup2\n      0xffffffff\n      and\n      0xe0\n      shl\n      dup2\n      mstore\n      0x04\n      add\n      0x00\n      mload(0x40)\n      dup1\n      dup4\n      sub\n      dup2\n      dup7\n      dup1\n      extcodesize\n      iszero\n      dup1\n      iszero\n      tag_305\n      jumpi\n      0x00\n      dup1\n      revert\n    tag_305:\n      pop\n      gas\n      staticcall\n      iszero\n      dup1\n      iszero\n      tag_307\n      jumpi\n      returndatasize\n      0x00\n      dup1\n      returndatacopy\n      revert(0x00, returndatasize)\n    tag_307:\n      pop\n      pop\n      pop\n      pop\n      mload(0x40)\n      returndatasize\n      0x00\n      dup3\n      returndatacopy\n      0x1f\n      returndatasize\n      swap1\n      dup2\n      add\n      not(0x1f)\n      and\n      dup3\n      add\n      0x40\n      mstore\n      tag_308\n      swap2\n      swap1\n      dup2\n      add\n      swap1\n      tag_309\n      jump\t// in\n    tag_308:\n        /* \"contracts/Template/Istanbul10/logic/Auction.sol\":4095:4102  winning */\n      sload(0x07)\n        /* \"contracts/Template/Istanbul10/logic/Auction.sol\":4039:4103  getVault().sendNFTAssetIndex(getVault().getFreedomNFT(),winning) */\n      mload(0x40)\n      not(sub(shl(0xe0, 0x01), 0x01))\n      0xe0\n      dup6\n      swap1\n      shl\n      and\n      dup2\n      mstore\n      tag_310\n      swap3\n      swap2\n      sub(shl(0xa0, 0x01), 0x01)\n        /* \"contracts/Template/Istanbul10/logic/Auction.sol\":4095:4102  winning */\n      and\n      swap1\n        /* \"contracts/Template/Istanbul10/logic/Auction.sol\":4039:4103  getVault().sendNFTAssetIndex(getVault().getFreedomNFT(),winning) */\n      0x04\n      add\n      tag_311\n      jump\t// in\n    tag_310:\n      0x00\n      mload(0x40)\n      dup1\n      dup4\n      sub\n      dup2\n      0x00\n      dup8\n      dup1\n      extcodesize\n      iszero\n      dup1\n      iszero\n      tag_312\n      jumpi\n      0x00\n      dup1\n      revert\n    tag_312:\n      pop\n      gas\n      call\n      iszero\n      dup1\n      iszero\n      tag_314\n      jumpi\n      returndatasize\n      0x00\n      dup1\n      returndatacopy\n      revert(0x00, returndatasize)\n    tag_314:\n      pop\n      pop\n      pop\n      pop\n        /* \"contracts/Template/Istanbul10/logic/Auction.sol\":4116:4126  getVault() */\n      tag_315\n        /* \"contracts/Template/Istanbul10/logic/Auction.sol\":4116:4124  getVault */\n      tag_69\n        /* \"contracts/Template/Istanbul10/logic/Auction.sol\":4116:4126  getVault() */\n      jump\t// in\n    tag_315:\n      sub(shl(0xa0, 0x01), 0x01)\n        /* \"contracts/Template/Istanbul10/logic/Auction.sol\":4116:4139  getVault().safeSetState */\n      and\n      0xe77ae39b\n        /* \"contracts/Template/Istanbul10/logic/Auction.sol\":4148:4149  0 */\n      0x00\n        /* \"contracts/Template/Istanbul10/logic/Auction.sol\":4151:4152  0 */\n      dup1\n        /* \"contracts/Template/Istanbul10/logic/Auction.sol\":4153:4173  State.NftState.leave */\n      0x02\n        /* \"contracts/Template/Istanbul10/logic/Auction.sol\":4116:4184  getVault().safeSetState(address(0),0,State.NftState.leave,\"Auction\") */\n      mload(0x40)\n      dup5\n      0xffffffff\n      and\n      0xe0\n      shl\n      dup2\n      mstore\n      0x04\n      add\n      tag_316\n      swap4\n      swap3\n      swap2\n      swap1\n      tag_263\n      jump\t// in\n    tag_316:\n      0x00\n      mload(0x40)\n      dup1\n      dup4\n      sub\n      dup2\n      0x00\n      dup8\n      dup1\n      extcodesize\n      iszero\n      dup1\n      iszero\n      tag_317\n      jumpi\n      0x00\n      dup1\n      revert\n    tag_317:\n      pop\n      gas\n      call\n      iszero\n      dup1\n      iszero\n      tag_319\n      jumpi\n      returndatasize\n      0x00\n      dup1\n      returndatacopy\n      revert(0x00, returndatasize)\n    tag_319:\n      pop\n      pop\n        /* \"contracts/Template/Istanbul10/logic/Auction.sol\":4204:4211  winning */\n      sload(0x07)\n        /* \"contracts/Template/Istanbul10/logic/Auction.sol\":4213:4222  livePrice */\n      sload(0x06)\n        /* \"contracts/Template/Istanbul10/logic/Auction.sol\":4200:4223  Won(winning, livePrice) */\n      mload(0x40)\n        /* \"#utility.yul\":12065:12090   */\n      swap1\n      dup2\n      mstore\n      sub(shl(0xa0, 0x01), 0x01)\n        /* \"contracts/Template/Istanbul10/logic/Auction.sol\":4204:4211  winning */\n      swap1\n      swap2\n      and\n      swap3\n      pop\n        /* \"contracts/Template/Istanbul10/logic/Auction.sol\":4200:4223  Won(winning, livePrice) */\n      0x8b01f9dd0400d6a1e84369a5fb8f6033934856ffa8ebadd707dca302ab551695\n      swap2\n      pop\n        /* \"#utility.yul\":12053:12055   */\n      0x20\n        /* \"#utility.yul\":12038:12056   */\n      add\n        /* \"contracts/Template/Istanbul10/logic/Auction.sol\":4200:4223  Won(winning, livePrice) */\n      tag_274\n        /* \"#utility.yul\":12020:12096   */\n      jump\n        /* \"#utility.yul\":14:478   */\n    tag_322:\n        /* \"#utility.yul\":57:62   */\n      0x00\n        /* \"#utility.yul\":110:113   */\n      dup3\n        /* \"#utility.yul\":103:107   */\n      0x1f\n        /* \"#utility.yul\":95:101   */\n      dup4\n        /* \"#utility.yul\":91:108   */\n      add\n        /* \"#utility.yul\":87:114   */\n      slt\n        /* \"#utility.yul\":77:79   */\n      tag_324\n      jumpi\n        /* \"#utility.yul\":128:129   */\n      0x00\n        /* \"#utility.yul\":125:126   */\n      dup1\n        /* \"#utility.yul\":118:130   */\n      revert\n        /* \"#utility.yul\":77:79   */\n    tag_324:\n        /* \"#utility.yul\":164:170   */\n      dup2\n        /* \"#utility.yul\":151:171   */\n      calldataload\n        /* \"#utility.yul\":195:244   */\n      tag_325\n        /* \"#utility.yul\":211:243   */\n      tag_326\n        /* \"#utility.yul\":240:242   */\n      dup3\n        /* \"#utility.yul\":211:243   */\n      tag_327\n      jump\t// in\n    tag_326:\n        /* \"#utility.yul\":195:244   */\n      tag_328\n      jump\t// in\n    tag_325:\n        /* \"#utility.yul\":269:271   */\n      dup2\n        /* \"#utility.yul\":260:267   */\n      dup2\n        /* \"#utility.yul\":253:272   */\n      mstore\n        /* \"#utility.yul\":315:318   */\n      dup5\n        /* \"#utility.yul\":308:312   */\n      0x20\n        /* \"#utility.yul\":303:305   */\n      dup4\n        /* \"#utility.yul\":295:301   */\n      dup7\n        /* \"#utility.yul\":291:306   */\n      add\n        /* \"#utility.yul\":287:313   */\n      add\n        /* \"#utility.yul\":284:319   */\n      gt\n        /* \"#utility.yul\":281:283   */\n      iszero\n      tag_329\n      jumpi\n        /* \"#utility.yul\":332:333   */\n      0x00\n        /* \"#utility.yul\":329:330   */\n      dup1\n        /* \"#utility.yul\":322:334   */\n      revert\n        /* \"#utility.yul\":281:283   */\n    tag_329:\n        /* \"#utility.yul\":397:399   */\n      dup2\n        /* \"#utility.yul\":390:394   */\n      0x20\n        /* \"#utility.yul\":382:388   */\n      dup6\n        /* \"#utility.yul\":378:395   */\n      add\n        /* \"#utility.yul\":371:375   */\n      0x20\n        /* \"#utility.yul\":362:369   */\n      dup4\n        /* \"#utility.yul\":358:376   */\n      add\n        /* \"#utility.yul\":345:400   */\n      calldatacopy\n        /* \"#utility.yul\":445:446   */\n      0x00\n        /* \"#utility.yul\":420:436   */\n      swap2\n      dup2\n      add\n        /* \"#utility.yul\":438:442   */\n      0x20\n        /* \"#utility.yul\":416:443   */\n      add\n        /* \"#utility.yul\":409:447   */\n      swap2\n      swap1\n      swap2\n      mstore\n        /* \"#utility.yul\":424:431   */\n      swap4\n        /* \"#utility.yul\":67:478   */\n      swap3\n      pop\n      pop\n      pop\n      jump\t// out\n        /* \"#utility.yul\":483:734   */\n    tag_182:\n        /* \"#utility.yul\":553:559   */\n      0x00\n        /* \"#utility.yul\":606:608   */\n      0x20\n        /* \"#utility.yul\":594:603   */\n      dup3\n        /* \"#utility.yul\":585:592   */\n      dup5\n        /* \"#utility.yul\":581:604   */\n      sub\n        /* \"#utility.yul\":577:609   */\n      slt\n        /* \"#utility.yul\":574:576   */\n      iszero\n      tag_331\n      jumpi\n        /* \"#utility.yul\":622:623   */\n      0x00\n        /* \"#utility.yul\":619:620   */\n      dup1\n        /* \"#utility.yul\":612:624   */\n      revert\n        /* \"#utility.yul\":574:576   */\n    tag_331:\n        /* \"#utility.yul\":654:663   */\n      dup2\n        /* \"#utility.yul\":648:664   */\n      mload\n        /* \"#utility.yul\":673:704   */\n      tag_332\n        /* \"#utility.yul\":698:703   */\n      dup2\n        /* \"#utility.yul\":673:704   */\n      tag_333\n      jump\t// in\n    tag_332:\n        /* \"#utility.yul\":723:728   */\n      swap4\n        /* \"#utility.yul\":564:734   */\n      swap3\n      pop\n      pop\n      pop\n      jump\t// out\n        /* \"#utility.yul\":739:1054   */\n    tag_92:\n        /* \"#utility.yul\":807:813   */\n      0x00\n        /* \"#utility.yul\":815:821   */\n      dup1\n        /* \"#utility.yul\":868:870   */\n      0x40\n        /* \"#utility.yul\":856:865   */\n      dup4\n        /* \"#utility.yul\":847:854   */\n      dup6\n        /* \"#utility.yul\":843:866   */\n      sub\n        /* \"#utility.yul\":839:871   */\n      slt\n        /* \"#utility.yul\":836:838   */\n      iszero\n      tag_335\n      jumpi\n        /* \"#utility.yul\":884:885   */\n      0x00\n        /* \"#utility.yul\":881:882   */\n      dup1\n        /* \"#utility.yul\":874:886   */\n      revert\n        /* \"#utility.yul\":836:838   */\n    tag_335:\n        /* \"#utility.yul\":923:932   */\n      dup3\n        /* \"#utility.yul\":910:933   */\n      calldataload\n        /* \"#utility.yul\":942:973   */\n      tag_336\n        /* \"#utility.yul\":967:972   */\n      dup2\n        /* \"#utility.yul\":942:973   */\n      tag_333\n      jump\t// in\n    tag_336:\n        /* \"#utility.yul\":992:997   */\n      swap5\n        /* \"#utility.yul\":1044:1046   */\n      0x20\n        /* \"#utility.yul\":1029:1047   */\n      swap4\n      swap1\n      swap4\n      add\n        /* \"#utility.yul\":1016:1048   */\n      calldataload\n      swap4\n      pop\n      pop\n      pop\n        /* \"#utility.yul\":826:1054   */\n      jump\t// out\n        /* \"#utility.yul\":1059:2006   */\n    tag_309:\n        /* \"#utility.yul\":1154:1160   */\n      0x00\n        /* \"#utility.yul\":1185:1187   */\n      0x20\n        /* \"#utility.yul\":1228:1230   */\n      dup1\n        /* \"#utility.yul\":1216:1225   */\n      dup4\n        /* \"#utility.yul\":1207:1214   */\n      dup6\n        /* \"#utility.yul\":1203:1226   */\n      sub\n        /* \"#utility.yul\":1199:1231   */\n      slt\n        /* \"#utility.yul\":1196:1198   */\n      iszero\n      tag_338\n      jumpi\n        /* \"#utility.yul\":1244:1245   */\n      0x00\n        /* \"#utility.yul\":1241:1242   */\n      dup1\n        /* \"#utility.yul\":1234:1246   */\n      revert\n        /* \"#utility.yul\":1196:1198   */\n    tag_338:\n        /* \"#utility.yul\":1277:1286   */\n      dup3\n        /* \"#utility.yul\":1271:1287   */\n      mload\n        /* \"#utility.yul\":1306:1324   */\n      0xffffffffffffffff\n        /* \"#utility.yul\":1347:1349   */\n      dup1\n        /* \"#utility.yul\":1339:1345   */\n      dup3\n        /* \"#utility.yul\":1336:1350   */\n      gt\n        /* \"#utility.yul\":1333:1335   */\n      iszero\n      tag_339\n      jumpi\n        /* \"#utility.yul\":1363:1364   */\n      0x00\n        /* \"#utility.yul\":1360:1361   */\n      dup1\n        /* \"#utility.yul\":1353:1365   */\n      revert\n        /* \"#utility.yul\":1333:1335   */\n    tag_339:\n        /* \"#utility.yul\":1401:1407   */\n      dup2\n        /* \"#utility.yul\":1390:1399   */\n      dup6\n        /* \"#utility.yul\":1386:1408   */\n      add\n        /* \"#utility.yul\":1376:1408   */\n      swap2\n      pop\n        /* \"#utility.yul\":1446:1453   */\n      dup6\n        /* \"#utility.yul\":1439:1443   */\n      0x1f\n        /* \"#utility.yul\":1435:1437   */\n      dup4\n        /* \"#utility.yul\":1431:1444   */\n      add\n        /* \"#utility.yul\":1427:1454   */\n      slt\n        /* \"#utility.yul\":1417:1419   */\n      tag_340\n      jumpi\n        /* \"#utility.yul\":1468:1469   */\n      0x00\n        /* \"#utility.yul\":1465:1466   */\n      dup1\n        /* \"#utility.yul\":1458:1470   */\n      revert\n        /* \"#utility.yul\":1417:1419   */\n    tag_340:\n        /* \"#utility.yul\":1497:1499   */\n      dup2\n        /* \"#utility.yul\":1491:1500   */\n      mload\n        /* \"#utility.yul\":1519:1521   */\n      dup2\n        /* \"#utility.yul\":1515:1517   */\n      dup2\n        /* \"#utility.yul\":1512:1522   */\n      gt\n        /* \"#utility.yul\":1509:1511   */\n      iszero\n      tag_342\n      jumpi\n        /* \"#utility.yul\":1525:1543   */\n      tag_342\n      tag_343\n      jump\t// in\n    tag_342:\n        /* \"#utility.yul\":1571:1573   */\n      dup1\n        /* \"#utility.yul\":1568:1569   */\n      0x05\n        /* \"#utility.yul\":1564:1574   */\n      shl\n        /* \"#utility.yul\":1554:1574   */\n      swap2\n      pop\n        /* \"#utility.yul\":1594:1622   */\n      tag_344\n        /* \"#utility.yul\":1618:1620   */\n      dup5\n        /* \"#utility.yul\":1614:1616   */\n      dup4\n        /* \"#utility.yul\":1610:1621   */\n      add\n        /* \"#utility.yul\":1594:1622   */\n      tag_328\n      jump\t// in\n    tag_344:\n        /* \"#utility.yul\":1656:1671   */\n      dup2\n      dup2\n      mstore\n        /* \"#utility.yul\":1687:1699   */\n      dup5\n      dup2\n      add\n      swap1\n        /* \"#utility.yul\":1719:1730   */\n      dup5\n      dup7\n      add\n        /* \"#utility.yul\":1749:1760   */\n      dup5\n      dup7\n      add\n        /* \"#utility.yul\":1745:1765   */\n      dup8\n      add\n        /* \"#utility.yul\":1742:1775   */\n      dup11\n      lt\n        /* \"#utility.yul\":1739:1741   */\n      iszero\n      tag_345\n      jumpi\n        /* \"#utility.yul\":1788:1789   */\n      0x00\n        /* \"#utility.yul\":1785:1786   */\n      dup1\n        /* \"#utility.yul\":1778:1790   */\n      revert\n        /* \"#utility.yul\":1739:1741   */\n    tag_345:\n        /* \"#utility.yul\":1810:1811   */\n      0x00\n        /* \"#utility.yul\":1801:1811   */\n      swap6\n      pop\n        /* \"#utility.yul\":1820:1976   */\n    tag_346:\n        /* \"#utility.yul\":1834:1836   */\n      dup4\n        /* \"#utility.yul\":1831:1832   */\n      dup7\n        /* \"#utility.yul\":1828:1837   */\n      lt\n        /* \"#utility.yul\":1820:1976   */\n      iszero\n      tag_348\n      jumpi\n        /* \"#utility.yul\":1891:1901   */\n      dup1\n      mload\n        /* \"#utility.yul\":1879:1902   */\n      dup4\n      mstore\n        /* \"#utility.yul\":1852:1853   */\n      0x01\n        /* \"#utility.yul\":1845:1854   */\n      swap6\n      swap1\n      swap6\n      add\n      swap5\n        /* \"#utility.yul\":1922:1934   */\n      swap2\n      dup7\n      add\n      swap2\n        /* \"#utility.yul\":1954:1966   */\n      dup7\n      add\n        /* \"#utility.yul\":1820:1976   */\n      jump(tag_346)\n    tag_348:\n      pop\n        /* \"#utility.yul\":1995:2000   */\n      swap9\n        /* \"#utility.yul\":1165:2006   */\n      swap8\n      pop\n      pop\n      pop\n      pop\n      pop\n      pop\n      pop\n      pop\n      jump\t// out\n        /* \"#utility.yul\":2011:2288   */\n    tag_236:\n        /* \"#utility.yul\":2078:2084   */\n      0x00\n        /* \"#utility.yul\":2131:2133   */\n      0x20\n        /* \"#utility.yul\":2119:2128   */\n      dup3\n        /* \"#utility.yul\":2110:2117   */\n      dup5\n        /* \"#utility.yul\":2106:2129   */\n      sub\n        /* \"#utility.yul\":2102:2134   */\n      slt\n        /* \"#utility.yul\":2099:2101   */\n      iszero\n      tag_350\n      jumpi\n        /* \"#utility.yul\":2147:2148   */\n      0x00\n        /* \"#utility.yul\":2144:2145   */\n      dup1\n        /* \"#utility.yul\":2137:2149   */\n      revert\n        /* \"#utility.yul\":2099:2101   */\n    tag_350:\n        /* \"#utility.yul\":2179:2188   */\n      dup2\n        /* \"#utility.yul\":2173:2189   */\n      mload\n        /* \"#utility.yul\":2232:2237   */\n      dup1\n        /* \"#utility.yul\":2225:2238   */\n      iszero\n        /* \"#utility.yul\":2218:2239   */\n      iszero\n        /* \"#utility.yul\":2211:2216   */\n      dup2\n        /* \"#utility.yul\":2208:2240   */\n      eq\n        /* \"#utility.yul\":2198:2200   */\n      tag_332\n      jumpi\n        /* \"#utility.yul\":2254:2255   */\n      0x00\n        /* \"#utility.yul\":2251:2252   */\n      dup1\n        /* \"#utility.yul\":2244:2256   */\n      revert\n        /* \"#utility.yul\":2293:2565   */\n    tag_120:\n        /* \"#utility.yul\":2375:2381   */\n      0x00\n        /* \"#utility.yul\":2428:2430   */\n      0x20\n        /* \"#utility.yul\":2416:2425   */\n      dup3\n        /* \"#utility.yul\":2407:2414   */\n      dup5\n        /* \"#utility.yul\":2403:2426   */\n      sub\n        /* \"#utility.yul\":2399:2431   */\n      slt\n        /* \"#utility.yul\":2396:2398   */\n      iszero\n      tag_353\n      jumpi\n        /* \"#utility.yul\":2444:2445   */\n      0x00\n        /* \"#utility.yul\":2441:2442   */\n      dup1\n        /* \"#utility.yul\":2434:2446   */\n      revert\n        /* \"#utility.yul\":2396:2398   */\n    tag_353:\n        /* \"#utility.yul\":2476:2485   */\n      dup2\n        /* \"#utility.yul\":2470:2486   */\n      mload\n        /* \"#utility.yul\":2515:2516   */\n      0x03\n        /* \"#utility.yul\":2508:2513   */\n      dup2\n        /* \"#utility.yul\":2505:2517   */\n      lt\n        /* \"#utility.yul\":2495:2497   */\n      tag_332\n      jumpi\n        /* \"#utility.yul\":2531:2532   */\n      0x00\n        /* \"#utility.yul\":2528:2529   */\n      dup1\n        /* \"#utility.yul\":2521:2533   */\n      revert\n        /* \"#utility.yul\":2570:3408   */\n    tag_130:\n        /* \"#utility.yul\":2650:2656   */\n      0x00\n        /* \"#utility.yul\":2681:2683   */\n      0x20\n        /* \"#utility.yul\":2724:2726   */\n      dup1\n        /* \"#utility.yul\":2712:2721   */\n      dup4\n        /* \"#utility.yul\":2703:2710   */\n      dup6\n        /* \"#utility.yul\":2699:2722   */\n      sub\n        /* \"#utility.yul\":2695:2727   */\n      slt\n        /* \"#utility.yul\":2692:2694   */\n      iszero\n      tag_356\n      jumpi\n        /* \"#utility.yul\":2740:2741   */\n      0x00\n        /* \"#utility.yul\":2737:2738   */\n      dup1\n        /* \"#utility.yul\":2730:2742   */\n      revert\n        /* \"#utility.yul\":2692:2694   */\n    tag_356:\n        /* \"#utility.yul\":2773:2782   */\n      dup3\n        /* \"#utility.yul\":2767:2783   */\n      mload\n        /* \"#utility.yul\":2806:2824   */\n      0xffffffffffffffff\n        /* \"#utility.yul\":2798:2804   */\n      dup2\n        /* \"#utility.yul\":2795:2825   */\n      gt\n        /* \"#utility.yul\":2792:2794   */\n      iszero\n      tag_357\n      jumpi\n        /* \"#utility.yul\":2838:2839   */\n      0x00\n        /* \"#utility.yul\":2835:2836   */\n      dup1\n        /* \"#utility.yul\":2828:2840   */\n      revert\n        /* \"#utility.yul\":2792:2794   */\n    tag_357:\n        /* \"#utility.yul\":2861:2883   */\n      dup4\n      add\n        /* \"#utility.yul\":2914:2918   */\n      0x1f\n        /* \"#utility.yul\":2906:2919   */\n      dup2\n      add\n        /* \"#utility.yul\":2902:2929   */\n      dup6\n      sgt\n        /* \"#utility.yul\":2892:2894   */\n      tag_358\n      jumpi\n        /* \"#utility.yul\":2943:2944   */\n      0x00\n        /* \"#utility.yul\":2940:2941   */\n      dup1\n        /* \"#utility.yul\":2933:2945   */\n      revert\n        /* \"#utility.yul\":2892:2894   */\n    tag_358:\n        /* \"#utility.yul\":2972:2974   */\n      dup1\n        /* \"#utility.yul\":2966:2975   */\n      mload\n        /* \"#utility.yul\":2997:3046   */\n      tag_359\n        /* \"#utility.yul\":3013:3045   */\n      tag_326\n        /* \"#utility.yul\":3042:3044   */\n      dup3\n        /* \"#utility.yul\":3013:3045   */\n      tag_327\n      jump\t// in\n        /* \"#utility.yul\":2997:3046   */\n    tag_359:\n        /* \"#utility.yul\":3069:3071   */\n      dup2\n        /* \"#utility.yul\":3062:3067   */\n      dup2\n        /* \"#utility.yul\":3055:3072   */\n      mstore\n        /* \"#utility.yul\":3109:3116   */\n      dup7\n        /* \"#utility.yul\":3104:3106   */\n      dup5\n        /* \"#utility.yul\":3099:3101   */\n      dup4\n        /* \"#utility.yul\":3095:3097   */\n      dup6\n        /* \"#utility.yul\":3091:3102   */\n      add\n        /* \"#utility.yul\":3087:3107   */\n      add\n        /* \"#utility.yul\":3084:3117   */\n      gt\n        /* \"#utility.yul\":3081:3083   */\n      iszero\n      tag_361\n      jumpi\n        /* \"#utility.yul\":3130:3131   */\n      0x00\n        /* \"#utility.yul\":3127:3128   */\n      dup1\n        /* \"#utility.yul\":3120:3132   */\n      revert\n        /* \"#utility.yul\":3081:3083   */\n    tag_361:\n        /* \"#utility.yul\":3152:3153   */\n      0x00\n        /* \"#utility.yul\":3162:3290   */\n    tag_362:\n        /* \"#utility.yul\":3176:3178   */\n      dup3\n        /* \"#utility.yul\":3173:3174   */\n      dup2\n        /* \"#utility.yul\":3170:3179   */\n      lt\n        /* \"#utility.yul\":3162:3290   */\n      iszero\n      tag_364\n      jumpi\n        /* \"#utility.yul\":3263:3273   */\n      dup4\n      dup2\n      add\n        /* \"#utility.yul\":3259:3278   */\n      dup6\n      add\n        /* \"#utility.yul\":3253:3279   */\n      mload\n        /* \"#utility.yul\":3233:3246   */\n      dup3\n      dup3\n      add\n        /* \"#utility.yul\":3229:3251   */\n      dup7\n      add\n        /* \"#utility.yul\":3222:3280   */\n      mstore\n        /* \"#utility.yul\":3187:3197   */\n      dup5\n      add\n        /* \"#utility.yul\":3162:3290   */\n      jump(tag_362)\n    tag_364:\n        /* \"#utility.yul\":3308:3310   */\n      dup3\n        /* \"#utility.yul\":3305:3306   */\n      dup2\n        /* \"#utility.yul\":3302:3311   */\n      gt\n        /* \"#utility.yul\":3299:3301   */\n      iszero\n      tag_365\n      jumpi\n        /* \"#utility.yul\":3366:3367   */\n      0x00\n        /* \"#utility.yul\":3361:3363   */\n      dup6\n        /* \"#utility.yul\":3356:3358   */\n      dup5\n        /* \"#utility.yul\":3349:3354   */\n      dup5\n        /* \"#utility.yul\":3345:3359   */\n      add\n        /* \"#utility.yul\":3341:3364   */\n      add\n        /* \"#utility.yul\":3334:3368   */\n      mstore\n        /* \"#utility.yul\":3299:3301   */\n    tag_365:\n      pop\n        /* \"#utility.yul\":3397:3402   */\n      swap7\n        /* \"#utility.yul\":2661:3408   */\n      swap6\n      pop\n      pop\n      pop\n      pop\n      pop\n      pop\n      jump\t// out\n        /* \"#utility.yul\":3413:3956   */\n    tag_75:\n        /* \"#utility.yul\":3501:3507   */\n      0x00\n        /* \"#utility.yul\":3509:3515   */\n      dup1\n        /* \"#utility.yul\":3562:3564   */\n      0x40\n        /* \"#utility.yul\":3550:3559   */\n      dup4\n        /* \"#utility.yul\":3541:3548   */\n      dup6\n        /* \"#utility.yul\":3537:3560   */\n      sub\n        /* \"#utility.yul\":3533:3565   */\n      slt\n        /* \"#utility.yul\":3530:3532   */\n      iszero\n      tag_367\n      jumpi\n        /* \"#utility.yul\":3578:3579   */\n      0x00\n        /* \"#utility.yul\":3575:3576   */\n      dup1\n        /* \"#utility.yul\":3568:3580   */\n      revert\n        /* \"#utility.yul\":3530:3532   */\n    tag_367:\n        /* \"#utility.yul\":3618:3627   */\n      dup3\n        /* \"#utility.yul\":3605:3628   */\n      calldataload\n        /* \"#utility.yul\":3647:3665   */\n      0xffffffffffffffff\n        /* \"#utility.yul\":3688:3690   */\n      dup1\n        /* \"#utility.yul\":3680:3686   */\n      dup3\n        /* \"#utility.yul\":3677:3691   */\n      gt\n        /* \"#utility.yul\":3674:3676   */\n      iszero\n      tag_368\n      jumpi\n        /* \"#utility.yul\":3704:3705   */\n      0x00\n        /* \"#utility.yul\":3701:3702   */\n      dup1\n        /* \"#utility.yul\":3694:3706   */\n      revert\n        /* \"#utility.yul\":3674:3676   */\n    tag_368:\n        /* \"#utility.yul\":3727:3777   */\n      tag_369\n        /* \"#utility.yul\":3769:3776   */\n      dup7\n        /* \"#utility.yul\":3760:3766   */\n      dup4\n        /* \"#utility.yul\":3749:3758   */\n      dup8\n        /* \"#utility.yul\":3745:3767   */\n      add\n        /* \"#utility.yul\":3727:3777   */\n      tag_322\n      jump\t// in\n    tag_369:\n        /* \"#utility.yul\":3717:3777   */\n      swap4\n      pop\n        /* \"#utility.yul\":3830:3832   */\n      0x20\n        /* \"#utility.yul\":3819:3828   */\n      dup6\n        /* \"#utility.yul\":3815:3833   */\n      add\n        /* \"#utility.yul\":3802:3834   */\n      calldataload\n        /* \"#utility.yul\":3786:3834   */\n      swap2\n      pop\n        /* \"#utility.yul\":3859:3861   */\n      dup1\n        /* \"#utility.yul\":3849:3857   */\n      dup3\n        /* \"#utility.yul\":3846:3862   */\n      gt\n        /* \"#utility.yul\":3843:3845   */\n      iszero\n      tag_370\n      jumpi\n        /* \"#utility.yul\":3875:3876   */\n      0x00\n        /* \"#utility.yul\":3872:3873   */\n      dup1\n        /* \"#utility.yul\":3865:3877   */\n      revert\n        /* \"#utility.yul\":3843:3845   */\n    tag_370:\n      pop\n        /* \"#utility.yul\":3898:3950   */\n      tag_371\n        /* \"#utility.yul\":3942:3949   */\n      dup6\n        /* \"#utility.yul\":3931:3939   */\n      dup3\n        /* \"#utility.yul\":3920:3929   */\n      dup7\n        /* \"#utility.yul\":3916:3940   */\n      add\n        /* \"#utility.yul\":3898:3950   */\n      tag_322\n      jump\t// in\n    tag_371:\n        /* \"#utility.yul\":3888:3950   */\n      swap2\n      pop\n      pop\n        /* \"#utility.yul\":3520:3956   */\n      swap3\n      pop\n      swap3\n      swap1\n      pop\n      jump\t// out\n        /* \"#utility.yul\":3961:4141   */\n    tag_39:\n        /* \"#utility.yul\":4020:4026   */\n      0x00\n        /* \"#utility.yul\":4073:4075   */\n      0x20\n        /* \"#utility.yul\":4061:4070   */\n      dup3\n        /* \"#utility.yul\":4052:4059   */\n      dup5\n        /* \"#utility.yul\":4048:4071   */\n      sub\n        /* \"#utility.yul\":4044:4076   */\n      slt\n        /* \"#utility.yul\":4041:4043   */\n      iszero\n      tag_373\n      jumpi\n        /* \"#utility.yul\":4089:4090   */\n      0x00\n        /* \"#utility.yul\":4086:4087   */\n      dup1\n        /* \"#utility.yul\":4079:4091   */\n      revert\n        /* \"#utility.yul\":4041:4043   */\n    tag_373:\n      pop\n        /* \"#utility.yul\":4112:4135   */\n      calldataload\n      swap2\n        /* \"#utility.yul\":4031:4141   */\n      swap1\n      pop\n      jump\t// out\n        /* \"#utility.yul\":4146:4330   */\n    tag_139:\n        /* \"#utility.yul\":4216:4222   */\n      0x00\n        /* \"#utility.yul\":4269:4271   */\n      0x20\n        /* \"#utility.yul\":4257:4266   */\n      dup3\n        /* \"#utility.yul\":4248:4255   */\n      dup5\n        /* \"#utility.yul\":4244:4267   */\n      sub\n        /* \"#utility.yul\":4240:4272   */\n      slt\n        /* \"#utility.yul\":4237:4239   */\n      iszero\n      tag_375\n      jumpi\n        /* \"#utility.yul\":4285:4286   */\n      0x00\n        /* \"#utility.yul\":4282:4283   */\n      dup1\n        /* \"#utility.yul\":4275:4287   */\n      revert\n        /* \"#utility.yul\":4237:4239   */\n    tag_375:\n      pop\n        /* \"#utility.yul\":4308:4324   */\n      mload\n      swap2\n        /* \"#utility.yul\":4227:4330   */\n      swap1\n      pop\n      jump\t// out\n        /* \"#utility.yul\":5054:5798   */\n    tag_263:\n      sub(shl(0xa0, 0x01), 0x01)\n        /* \"#utility.yul\":5358:5390   */\n      dup5\n      and\n        /* \"#utility.yul\":5340:5391   */\n      dup2\n      mstore\n        /* \"#utility.yul\":5422:5424   */\n      0x20\n        /* \"#utility.yul\":5407:5425   */\n      dup2\n      add\n        /* \"#utility.yul\":5400:5434   */\n      dup4\n      swap1\n      mstore\n      0x00\n        /* \"#utility.yul\":5464:5465   */\n      0x03\n        /* \"#utility.yul\":5453:5466   */\n      dup4\n      lt\n        /* \"#utility.yul\":5443:5445   */\n      tag_380\n      jumpi\n        /* \"#utility.yul\":5509:5519   */\n      0x4e487b71\n        /* \"#utility.yul\":5504:5507   */\n      0xe0\n        /* \"#utility.yul\":5500:5520   */\n      shl\n        /* \"#utility.yul\":5497:5498   */\n      0x00\n        /* \"#utility.yul\":5490:5521   */\n      mstore\n        /* \"#utility.yul\":5544:5548   */\n      0x21\n        /* \"#utility.yul\":5541:5542   */\n      0x04\n        /* \"#utility.yul\":5534:5549   */\n      mstore\n        /* \"#utility.yul\":5572:5576   */\n      0x24\n        /* \"#utility.yul\":5569:5570   */\n      0x00\n        /* \"#utility.yul\":5562:5577   */\n      revert\n        /* \"#utility.yul\":5443:5445   */\n    tag_380:\n        /* \"#utility.yul\":5623:5629   */\n      dup3\n        /* \"#utility.yul\":5618:5620   */\n      0x40\n        /* \"#utility.yul\":5607:5616   */\n      dup4\n        /* \"#utility.yul\":5603:5621   */\n      add\n        /* \"#utility.yul\":5596:5630   */\n      mstore\n        /* \"#utility.yul\":5666:5669   */\n      0x80\n        /* \"#utility.yul\":5661:5663   */\n      0x60\n        /* \"#utility.yul\":5650:5659   */\n      dup4\n        /* \"#utility.yul\":5646:5664   */\n      add\n        /* \"#utility.yul\":5639:5670   */\n      mstore\n        /* \"#utility.yul\":5707:5708   */\n      0x07\n        /* \"#utility.yul\":5701:5704   */\n      0x80\n        /* \"#utility.yul\":5690:5699   */\n      dup4\n        /* \"#utility.yul\":5686:5705   */\n      add\n        /* \"#utility.yul\":5679:5709   */\n      mstore\n      shl(0xc9, 0x20bab1ba34b7b7)\n        /* \"#utility.yul\":5740:5743   */\n      0xa0\n        /* \"#utility.yul\":5729:5738   */\n      dup4\n        /* \"#utility.yul\":5725:5744   */\n      add\n        /* \"#utility.yul\":5718:5756   */\n      mstore\n        /* \"#utility.yul\":5788:5791   */\n      0xc0\n        /* \"#utility.yul\":5777:5786   */\n      dup3\n        /* \"#utility.yul\":5773:5792   */\n      add\n        /* \"#utility.yul\":5765:5792   */\n      swap1\n      pop\n        /* \"#utility.yul\":5330:5798   */\n      swap5\n      swap4\n      pop\n      pop\n      pop\n      pop\n      jump\t// out\n        /* \"#utility.yul\":5803:6542   */\n    tag_311:\n        /* \"#utility.yul\":6029:6031   */\n      0x40\n        /* \"#utility.yul\":6041:6062   */\n      dup1\n      dup3\n      mstore\n        /* \"#utility.yul\":6111:6124   */\n      dup4\n      mload\n        /* \"#utility.yul\":6014:6032   */\n      swap1\n      dup3\n      add\n        /* \"#utility.yul\":6133:6155   */\n      dup2\n      swap1\n      mstore\n        /* \"#utility.yul\":5981:5985   */\n      0x00\n      swap1\n        /* \"#utility.yul\":6208:6212   */\n      0x20\n      swap1\n        /* \"#utility.yul\":6186:6188   */\n      0x60\n        /* \"#utility.yul\":6171:6189   */\n      dup5\n      add\n      swap1\n        /* \"#utility.yul\":6235:6250   */\n      dup3\n      dup8\n      add\n        /* \"#utility.yul\":5981:5985   */\n      dup5\n        /* \"#utility.yul\":6278:6447   */\n    tag_382:\n        /* \"#utility.yul\":6292:6298   */\n      dup3\n        /* \"#utility.yul\":6289:6290   */\n      dup2\n        /* \"#utility.yul\":6286:6299   */\n      lt\n        /* \"#utility.yul\":6278:6447   */\n      iszero\n      tag_384\n      jumpi\n        /* \"#utility.yul\":6353:6366   */\n      dup2\n      mload\n        /* \"#utility.yul\":6341:6367   */\n      dup5\n      mstore\n        /* \"#utility.yul\":6387:6399   */\n      swap3\n      dup5\n      add\n      swap3\n        /* \"#utility.yul\":6422:6437   */\n      swap1\n      dup5\n      add\n      swap1\n        /* \"#utility.yul\":6314:6315   */\n      0x01\n        /* \"#utility.yul\":6307:6316   */\n      add\n        /* \"#utility.yul\":6278:6447   */\n      jump(tag_382)\n    tag_384:\n      pop\n      pop\n      pop\n      sub(shl(0xa0, 0x01), 0x01)\n        /* \"#utility.yul\":6503:6535   */\n      swap5\n      swap1\n      swap5\n      and\n        /* \"#utility.yul\":6483:6501   */\n      swap3\n      add\n        /* \"#utility.yul\":6476:6536   */\n      swap2\n      swap1\n      swap2\n      mstore\n      pop\n        /* \"#utility.yul\":6464:6467   */\n      swap2\n        /* \"#utility.yul\":5990:6542   */\n      swap1\n      pop\n      jump\t// out\n        /* \"#utility.yul\":12101:12376   */\n    tag_328:\n        /* \"#utility.yul\":12172:12174   */\n      0x40\n        /* \"#utility.yul\":12166:12175   */\n      mload\n        /* \"#utility.yul\":12237:12239   */\n      0x1f\n        /* \"#utility.yul\":12218:12231   */\n      dup3\n      add\n      not(0x1f)\n        /* \"#utility.yul\":12214:12241   */\n      and\n        /* \"#utility.yul\":12202:12242   */\n      dup2\n      add\n        /* \"#utility.yul\":12272:12290   */\n      0xffffffffffffffff\n        /* \"#utility.yul\":12257:12291   */\n      dup2\n      gt\n        /* \"#utility.yul\":12293:12315   */\n      dup3\n      dup3\n      lt\n        /* \"#utility.yul\":12254:12316   */\n      or\n        /* \"#utility.yul\":12251:12253   */\n      iszero\n      tag_404\n      jumpi\n        /* \"#utility.yul\":12319:12337   */\n      tag_404\n      tag_343\n      jump\t// in\n    tag_404:\n        /* \"#utility.yul\":12355:12357   */\n      0x40\n        /* \"#utility.yul\":12348:12370   */\n      mstore\n        /* \"#utility.yul\":12146:12376   */\n      swap2\n      swap1\n      pop\n      jump\t// out\n        /* \"#utility.yul\":12381:12568   */\n    tag_327:\n        /* \"#utility.yul\":12430:12434   */\n      0x00\n        /* \"#utility.yul\":12463:12481   */\n      0xffffffffffffffff\n        /* \"#utility.yul\":12455:12461   */\n      dup3\n        /* \"#utility.yul\":12452:12482   */\n      gt\n        /* \"#utility.yul\":12449:12451   */\n      iszero\n      tag_407\n      jumpi\n        /* \"#utility.yul\":12485:12503   */\n      tag_407\n      tag_343\n      jump\t// in\n    tag_407:\n      pop\n        /* \"#utility.yul\":12551:12553   */\n      0x1f\n        /* \"#utility.yul\":12530:12545   */\n      add\n      not(0x1f)\n        /* \"#utility.yul\":12526:12555   */\n      and\n        /* \"#utility.yul\":12557:12561   */\n      0x20\n        /* \"#utility.yul\":12522:12562   */\n      add\n      swap1\n        /* \"#utility.yul\":12439:12568   */\n      jump\t// out\n        /* \"#utility.yul\":12573:12701   */\n    tag_141:\n        /* \"#utility.yul\":12613:12616   */\n      0x00\n        /* \"#utility.yul\":12644:12645   */\n      dup3\n        /* \"#utility.yul\":12640:12646   */\n      not\n        /* \"#utility.yul\":12637:12638   */\n      dup3\n        /* \"#utility.yul\":12634:12647   */\n      gt\n        /* \"#utility.yul\":12631:12633   */\n      iszero\n      tag_410\n      jumpi\n        /* \"#utility.yul\":12650:12668   */\n      tag_410\n      tag_411\n      jump\t// in\n    tag_410:\n      pop\n        /* \"#utility.yul\":12686:12695   */\n      add\n      swap1\n        /* \"#utility.yul\":12621:12701   */\n      jump\t// out\n        /* \"#utility.yul\":12706:12874   */\n    tag_143:\n        /* \"#utility.yul\":12746:12753   */\n      0x00\n        /* \"#utility.yul\":12812:12813   */\n      dup2\n        /* \"#utility.yul\":12808:12809   */\n      0x00\n        /* \"#utility.yul\":12804:12810   */\n      not\n        /* \"#utility.yul\":12800:12814   */\n      div\n        /* \"#utility.yul\":12797:12798   */\n      dup4\n        /* \"#utility.yul\":12794:12815   */\n      gt\n        /* \"#utility.yul\":12789:12790   */\n      dup3\n        /* \"#utility.yul\":12782:12791   */\n      iszero\n        /* \"#utility.yul\":12775:12792   */\n      iszero\n        /* \"#utility.yul\":12771:12816   */\n      and\n        /* \"#utility.yul\":12768:12770   */\n      iszero\n      tag_414\n      jumpi\n        /* \"#utility.yul\":12819:12837   */\n      tag_414\n      tag_411\n      jump\t// in\n    tag_414:\n      pop\n        /* \"#utility.yul\":12859:12868   */\n      mul\n      swap1\n        /* \"#utility.yul\":12758:12874   */\n      jump\t// out\n        /* \"#utility.yul\":12879:13004   */\n    tag_152:\n        /* \"#utility.yul\":12919:12923   */\n      0x00\n        /* \"#utility.yul\":12947:12948   */\n      dup3\n        /* \"#utility.yul\":12944:12945   */\n      dup3\n        /* \"#utility.yul\":12941:12949   */\n      lt\n        /* \"#utility.yul\":12938:12940   */\n      iszero\n      tag_417\n      jumpi\n        /* \"#utility.yul\":12952:12970   */\n      tag_417\n      tag_411\n      jump\t// in\n    tag_417:\n      pop\n        /* \"#utility.yul\":12989:12998   */\n      sub\n      swap1\n        /* \"#utility.yul\":12928:13004   */\n      jump\t// out\n        /* \"#utility.yul\":13009:13144   */\n    tag_229:\n        /* \"#utility.yul\":13048:13051   */\n      0x00\n      not(0x00)\n        /* \"#utility.yul\":13069:13086   */\n      dup3\n      eq\n        /* \"#utility.yul\":13066:13068   */\n      iszero\n      tag_420\n      jumpi\n        /* \"#utility.yul\":13089:13107   */\n      tag_420\n      tag_411\n      jump\t// in\n    tag_420:\n      pop\n        /* \"#utility.yul\":13136:13137   */\n      0x01\n        /* \"#utility.yul\":13125:13138   */\n      add\n      swap1\n        /* \"#utility.yul\":13056:13144   */\n      jump\t// out\n        /* \"#utility.yul\":13149:13276   */\n    tag_411:\n        /* \"#utility.yul\":13210:13220   */\n      0x4e487b71\n        /* \"#utility.yul\":13205:13208   */\n      0xe0\n        /* \"#utility.yul\":13201:13221   */\n      shl\n        /* \"#utility.yul\":13198:13199   */\n      0x00\n        /* \"#utility.yul\":13191:13222   */\n      mstore\n        /* \"#utility.yul\":13241:13245   */\n      0x11\n        /* \"#utility.yul\":13238:13239   */\n      0x04\n        /* \"#utility.yul\":13231:13246   */\n      mstore\n        /* \"#utility.yul\":13265:13269   */\n      0x24\n        /* \"#utility.yul\":13262:13263   */\n      0x00\n        /* \"#utility.yul\":13255:13270   */\n      revert\n        /* \"#utility.yul\":13281:13408   */\n    tag_114:\n        /* \"#utility.yul\":13342:13352   */\n      0x4e487b71\n        /* \"#utility.yul\":13337:13340   */\n      0xe0\n        /* \"#utility.yul\":13333:13353   */\n      shl\n        /* \"#utility.yul\":13330:13331   */\n      0x00\n        /* \"#utility.yul\":13323:13354   */\n      mstore\n        /* \"#utility.yul\":13373:13377   */\n      0x21\n        /* \"#utility.yul\":13370:13371   */\n      0x04\n        /* \"#utility.yul\":13363:13378   */\n      mstore\n        /* \"#utility.yul\":13397:13401   */\n      0x24\n        /* \"#utility.yul\":13394:13395   */\n      0x00\n        /* \"#utility.yul\":13387:13402   */\n      revert\n        /* \"#utility.yul\":13413:13540   */\n    tag_224:\n        /* \"#utility.yul\":13474:13484   */\n      0x4e487b71\n        /* \"#utility.yul\":13469:13472   */\n      0xe0\n        /* \"#utility.yul\":13465:13485   */\n      shl\n        /* \"#utility.yul\":13462:13463   */\n      0x00\n        /* \"#utility.yul\":13455:13486   */\n      mstore\n        /* \"#utility.yul\":13505:13509   */\n      0x32\n        /* \"#utility.yul\":13502:13503   */\n      0x04\n        /* \"#utility.yul\":13495:13510   */\n      mstore\n        /* \"#utility.yul\":13529:13533   */\n      0x24\n        /* \"#utility.yul\":13526:13527   */\n      0x00\n        /* \"#utility.yul\":13519:13534   */\n      revert\n        /* \"#utility.yul\":13545:13672   */\n    tag_343:\n        /* \"#utility.yul\":13606:13616   */\n      0x4e487b71\n        /* \"#utility.yul\":13601:13604   */\n      0xe0\n        /* \"#utility.yul\":13597:13617   */\n      shl\n        /* \"#utility.yul\":13594:13595   */\n      0x00\n        /* \"#utility.yul\":13587:13618   */\n      mstore\n        /* \"#utility.yul\":13637:13641   */\n      0x41\n        /* \"#utility.yul\":13634:13635   */\n      0x04\n        /* \"#utility.yul\":13627:13642   */\n      mstore\n        /* \"#utility.yul\":13661:13665   */\n      0x24\n        /* \"#utility.yul\":13658:13659   */\n      0x00\n        /* \"#utility.yul\":13651:13666   */\n      revert\n        /* \"#utility.yul\":13677:13808   */\n    tag_333:\n      sub(shl(0xa0, 0x01), 0x01)\n        /* \"#utility.yul\":13752:13783   */\n      dup2\n      and\n        /* \"#utility.yul\":13742:13784   */\n      dup2\n      eq\n        /* \"#utility.yul\":13732:13734   */\n      tag_426\n      jumpi\n        /* \"#utility.yul\":13798:13799   */\n      0x00\n        /* \"#utility.yul\":13795:13796   */\n      dup1\n        /* \"#utility.yul\":13788:13800   */\n      revert\n        /* \"#utility.yul\":13732:13734   */\n    tag_426:\n        /* \"#utility.yul\":13722:13808   */\n      pop\n      jump\t// out\n\n    auxdata: 0xa264697066735822122059ced8c1350b1fc1d4f8cfd94740987760bf6f33bf7dfb6152a774142bc44adf64736f6c63430008050033\n}\n",
				"bytecode": {
					"linkReferences": {},
					"object": "608060405234801561001057600080fd5b506118c9806100206000396000f3fe60806040526004361061011f5760003560e01c80638d928af8116100a0578063cf3bfa2411610064578063cf3bfa24146102be578063d80e069c146102f6578063efbe1c1c14610316578063f887ea401461032b578063fbfa77cf1461034b57600080fd5b80638d928af8146102305780638ddbeb071461024557806391b7f5ed146102755780639ce110d714610295578063be9a6555146102b657600080fd5b806365cacaa4116100e757806365cacaa4146101a35780636da84e6c146101d05780638129fc1c146101e6578063853a1b90146101fb57806385b4bb531461021b57600080fd5b8063022bb886146101245780631998aeef1461014d5780632a24f46c146101575780632bf33bd91461016d578063325c25a21461018d575b600080fd5b34801561013057600080fd5b5061013a60025481565b6040519081526020015b60405180910390f35b61015561036b565b005b34801561016357600080fd5b5061013a60055481565b34801561017957600080fd5b50610155610188366004611676565b610755565b34801561019957600080fd5b5061013a60035481565b3480156101af57600080fd5b506101b8610a8a565b6040516001600160a01b039091168152602001610144565b3480156101dc57600080fd5b5061013a60065481565b3480156101f257600080fd5b50610155610b16565b34801561020757600080fd5b506007546101b8906001600160a01b031681565b34801561022757600080fd5b506101b8610bb3565b34801561023c57600080fd5b506101b8610c02565b34801561025157600080fd5b50610265610260366004611612565b610c0c565b6040519015158152602001610144565b34801561028157600080fd5b50610155610290366004611676565b610ca0565b3480156102a157600080fd5b5060015461026590600160a01b900460ff1681565b610155610da8565b3480156102ca57600080fd5b5061013a6102d936600461145f565b600460209081526000928352604080842090915290825290205481565b34801561030257600080fd5b5061013a610311366004611676565b61109b565b34801561032257600080fd5b506101556110bc565b34801561033757600080fd5b506000546101b8906001600160a01b031681565b34801561035757600080fd5b506001546101b8906001600160a01b031681565b6001610375610c02565b6001600160a01b031663d58bfa9d6040518163ffffffff1660e01b815260040160206040518083038186803b1580156103ad57600080fd5b505afa1580156103c1573d6000803e3d6000fd5b505050506040513d601f19601f820116820180604052508101906103e5919061155a565b60028111156103f6576103f6611839565b1480156104a257506104a2610409610c02565b6001600160a01b0316635ccb53df6040518163ffffffff1660e01b815260040160006040518083038186803b15801561044157600080fd5b505afa158015610455573d6000803e3d6000fd5b505050506040513d6000823e601f3d908101601f1916820160405261047d919081019061157b565b6040518060400160405280600781526020016620bab1ba34b7b760c91b815250610c0c565b6104f35760405162461bcd60e51b815260206004820152601a60248201527f626964203a3a2061756374696f6e206973206e6f74206c69766500000000000060448201526064015b60405180910390fd5b60006104fd610bb3565b6001600160a01b0316637c513c0f6040518163ffffffff1660e01b8152600401602060405180830381600087803b15801561053757600080fd5b505af115801561054b573d6000803e3d6000fd5b505050506040513d601f19601f8201168201806040525081019061056f919061168f565b61057b906103e86117ba565b90508060065461058b91906117d2565b610597346103e86117d2565b10156105da5760405162461bcd60e51b8152602060048201526012602482015271189a59080e8e881d1bdbc81b1bddc8189a5960721b60448201526064016104ea565b60055442106106225760405162461bcd60e51b8152602060048201526014602482015273189a59080e8e88185d58dd1a5bdb88195b99195960621b60448201526064016104ea565b6103844260055461063391906117f1565b116106515760006005600082825461064b91906117ba565b90915550505b610659610a8a565b6001600160a01b03166108fc349081150290604051600060405180830381858888f19350505050158015610691573d6000803e3d6000fd5b5061069a610c02565b6007546006546040516364a197f360e01b81526001600160a01b03928316600482015260248101919091529116906364a197f390604401600060405180830381600087803b1580156106eb57600080fd5b505af11580156106ff573d6000803e3d6000fd5b5050346006819055600780546001600160a01b0319163390811790915560405191825292507fe684a55f31b79eca403df938249029212a5925ec6be8012e099b45bc1019e5d2915060200160405180910390a250565b600061075f610c02565b6001600160a01b031663d58bfa9d6040518163ffffffff1660e01b815260040160206040518083038186803b15801561079757600080fd5b505afa1580156107ab573d6000803e3d6000fd5b505050506040513d601f19601f820116820180604052508101906107cf919061155a565b60028111156107e0576107e0611839565b146108245760405162461bcd60e51b8152602060048201526014602482015273757064617465203a3a206e6f742075706461746560601b60448201526064016104ea565b60008054906101000a90046001600160a01b03166001600160a01b031663e66f53b76040518163ffffffff1660e01b815260040160206040518083038186803b15801561087057600080fd5b505afa158015610884573d6000803e3d6000fd5b505050506040513d601f19601f820116820180604052508101906108a8919061143b565b6001600160a01b0316336001600160a01b0316146109005760405162461bcd60e51b81526020600482015260156024820152743ab83230ba32901d1d103737ba1031bab930ba37b960591b60448201526064016104ea565b610908610bb3565b6001600160a01b031663a0b335e36040518163ffffffff1660e01b8152600401602060405180830381600087803b15801561094257600080fd5b505af1158015610956573d6000803e3d6000fd5b505050506040513d601f19601f8201168201806040525081019061097a919061168f565b8110158015610a02575061098c610bb3565b6001600160a01b0316630e519ef96040518163ffffffff1660e01b8152600401602060405180830381600087803b1580156109c657600080fd5b505af11580156109da573d6000803e3d6000fd5b505050506040513d601f19601f820116820180604052508101906109fe919061168f565b8111155b610a4e5760405162461bcd60e51b815260206004820181905260248201527f757064617465203a3a20696e76616c69642061756374696f6e206c656e67746860448201526064016104ea565b60038190556040518181527f4ab86ae701798277aa378943b9dfd155d3b19703cd57be298908fadd32f7bf46906020015b60405180910390a150565b60008060009054906101000a90046001600160a01b03166001600160a01b031663fbfa77cf6040518163ffffffff1660e01b815260040160206040518083038186803b158015610ad957600080fd5b505afa158015610aed573d6000803e3d6000fd5b505050506040513d601f19601f82011682018060405250810190610b11919061143b565b905090565b600154600160a01b900460ff1615610b7a5760405162461bcd60e51b815260206004820152602160248201527f696e697469616c697a65203a3a20416c726561647920696e697469616c697a656044820152601960fa1b60648201526084016104ea565b6001805460ff600160a01b80830491909116150260ff60a01b19909116179055600080546001600160a01b031916331790556078600355565b60008060009054906101000a90046001600160a01b03166001600160a01b031663e06174e46040518163ffffffff1660e01b815260040160206040518083038186803b158015610ad957600080fd5b6000610b11610a8a565b60008151835114610c1f57506000610c9a565b60005b8351811015610c9457828181518110610c3d57610c3d61184f565b602001015160f81c60f81b6001600160f81b031916848281518110610c6457610c6461184f565b01602001516001600160f81b03191614610c82576000915050610c9a565b80610c8c81611808565b915050610c22565b50600190505b92915050565b60005460405163372c12b160e01b81523360048201526001600160a01b039091169063372c12b19060240160206040518083038186803b158015610ce357600080fd5b505afa158015610cf7573d6000803e3d6000fd5b505050506040513d601f19601f82011682018060405250810190610d1b9190611538565b610d735760405162461bcd60e51b815260206004820152602360248201527f7365745072696365203a3a2043616c6c6572207065726d697373696f6e2065726044820152623937b960e91b60648201526084016104ea565b60028190556040518181527fd625dc2138f94556f2cf89e7e1c67cc54705c9abe155ad8fb518f4121e942de690602001610a7f565b6000610db2610c02565b6001600160a01b031663d58bfa9d6040518163ffffffff1660e01b815260040160206040518083038186803b158015610dea57600080fd5b505afa158015610dfe573d6000803e3d6000fd5b505050506040513d601f19601f82011682018060405250810190610e22919061155a565b6002811115610e3357610e33611839565b14610e805760405162461bcd60e51b815260206004820152601a60248201527f7374617274203a3a206e6f2061756374696f6e2073746172747300000000000060448201526064016104ea565b600254610edb5760405162461bcd60e51b815260206004820152602360248201527f7374617274203a3a20456e74697265207661756c74207072696365206973207a6044820152626f726560e81b60648201526084016104ea565b600254341015610f245760405162461bcd60e51b81526020600482015260146024820152731cdd185c9d080e8e881d1bdbc81b1bddc8189a5960621b60448201526064016104ea565b600354610f3190426117ba565b600555610f3c610c02565b6001600160a01b031663e77ae39b60008060016040518463ffffffff1660e01b8152600401610f6d939291906116a8565b600060405180830381600087803b158015610f8757600080fd5b505af1158015610f9b573d6000803e3d6000fd5b50503460065550610fac9050610a8a565b6001600160a01b03166108fc6006549081150290604051600060405180830381858888f19350505050158015610fe6573d6000803e3d6000fd5b50600780546001600160a01b03191633179055611001610c02565b6001600160a01b0316631370c6a96040518163ffffffff1660e01b8152600401600060405180830381600087803b15801561103b57600080fd5b505af115801561104f573d6000803e3d6000fd5b50506007546006546040519081526001600160a01b0390911692507fcfb9c5312b25ec7b809d61e638df25f749eae5d5c25399e1c93d1d319bfd582191506020015b60405180910390a2565b600881815481106110ab57600080fd5b600091825260209091200154905081565b60016110c6610c02565b6001600160a01b031663d58bfa9d6040518163ffffffff1660e01b815260040160206040518083038186803b1580156110fe57600080fd5b505afa158015611112573d6000803e3d6000fd5b505050506040513d601f19601f82011682018060405250810190611136919061155a565b600281111561114757611147611839565b14801561115a575061115a610409610c02565b6111a65760405162461bcd60e51b815260206004820152601f60248201527f656e64203a3a207661756c742068617320616c726561647920636c6f7365640060448201526064016104ea565b6005544210156111ee5760405162461bcd60e51b8152602060048201526013602482015272656e64203a3a2061756374696f6e206c69766560681b60448201526064016104ea565b600080546040805163d294f09360e01b815290516001600160a01b039092169263d294f0939260048084019382900301818387803b15801561122f57600080fd5b505af1158015611243573d6000803e3d6000fd5b5050505061124f610c02565b6001600160a01b03166294c5f3611264610c02565b6001600160a01b031663634f63196040518163ffffffff1660e01b815260040160006040518083038186803b15801561129c57600080fd5b505afa1580156112b0573d6000803e3d6000fd5b505050506040513d6000823e601f3d908101601f191682016040526112d8919081019061148b565b6007546040516001600160e01b031960e085901b16815261130692916001600160a01b03169060040161170d565b600060405180830381600087803b15801561132057600080fd5b505af1158015611334573d6000803e3d6000fd5b50505050611340610c02565b6001600160a01b031663e77ae39b60008060026040518463ffffffff1660e01b8152600401611371939291906116a8565b600060405180830381600087803b15801561138b57600080fd5b505af115801561139f573d6000803e3d6000fd5b50506007546006546040519081526001600160a01b0390911692507f8b01f9dd0400d6a1e84369a5fb8f6033934856ffa8ebadd707dca302ab5516959150602001611091565b600082601f8301126113f657600080fd5b813561140961140482611792565b611761565b81815284602083860101111561141e57600080fd5b816020850160208301376000918101602001919091529392505050565b60006020828403121561144d57600080fd5b81516114588161187b565b9392505050565b6000806040838503121561147257600080fd5b823561147d8161187b565b946020939093013593505050565b6000602080838503121561149e57600080fd5b825167ffffffffffffffff808211156114b657600080fd5b818501915085601f8301126114ca57600080fd5b8151818111156114dc576114dc611865565b8060051b91506114ed848301611761565b8181528481019084860184860187018a101561150857600080fd5b600095505b8386101561152b57805183526001959095019491860191860161150d565b5098975050505050505050565b60006020828403121561154a57600080fd5b8151801515811461145857600080fd5b60006020828403121561156c57600080fd5b81516003811061145857600080fd5b6000602080838503121561158e57600080fd5b825167ffffffffffffffff8111156115a557600080fd5b8301601f810185136115b657600080fd5b80516115c461140482611792565b81815286848385010111156115d857600080fd5b60005b828110156115f65783810185015182820186015284016115db565b828111156116075760008584840101525b509695505050505050565b6000806040838503121561162557600080fd5b823567ffffffffffffffff8082111561163d57600080fd5b611649868387016113e5565b9350602085013591508082111561165f57600080fd5b5061166c858286016113e5565b9150509250929050565b60006020828403121561168857600080fd5b5035919050565b6000602082840312156116a157600080fd5b5051919050565b6001600160a01b0384168152602081018390526000600383106116db57634e487b7160e01b600052602160045260246000fd5b82604083015260806060830152600760808301526620bab1ba34b7b760c91b60a083015260c082019050949350505050565b604080825283519082018190526000906020906060840190828701845b828110156117465781518452928401929084019060010161172a565b5050506001600160a01b039490941692019190915250919050565b604051601f8201601f1916810167ffffffffffffffff8111828210171561178a5761178a611865565b604052919050565b600067ffffffffffffffff8211156117ac576117ac611865565b50601f01601f191660200190565b600082198211156117cd576117cd611823565b500190565b60008160001904831182151516156117ec576117ec611823565b500290565b60008282101561180357611803611823565b500390565b600060001982141561181c5761181c611823565b5060010190565b634e487b7160e01b600052601160045260246000fd5b634e487b7160e01b600052602160045260246000fd5b634e487b7160e01b600052603260045260246000fd5b634e487b7160e01b600052604160045260246000fd5b6001600160a01b038116811461189057600080fd5b5056fea264697066735822122059ced8c1350b1fc1d4f8cfd94740987760bf6f33bf7dfb6152a774142bc44adf64736f6c63430008050033",
					"opcodes": "PUSH1 0x80 PUSH1 0x40 MSTORE CALLVALUE DUP1 ISZERO PUSH2 0x10 JUMPI PUSH1 0x0 DUP1 REVERT JUMPDEST POP PUSH2 0x18C9 DUP1 PUSH2 0x20 PUSH1 0x0 CODECOPY PUSH1 0x0 RETURN INVALID PUSH1 0x80 PUSH1 0x40 MSTORE PUSH1 0x4 CALLDATASIZE LT PUSH2 0x11F JUMPI PUSH1 0x0 CALLDATALOAD PUSH1 0xE0 SHR DUP1 PUSH4 0x8D928AF8 GT PUSH2 0xA0 JUMPI DUP1 PUSH4 0xCF3BFA24 GT PUSH2 0x64 JUMPI DUP1 PUSH4 0xCF3BFA24 EQ PUSH2 0x2BE JUMPI DUP1 PUSH4 0xD80E069C EQ PUSH2 0x2F6 JUMPI DUP1 PUSH4 0xEFBE1C1C EQ PUSH2 0x316 JUMPI DUP1 PUSH4 0xF887EA40 EQ PUSH2 0x32B JUMPI DUP1 PUSH4 0xFBFA77CF EQ PUSH2 0x34B JUMPI PUSH1 0x0 DUP1 REVERT JUMPDEST DUP1 PUSH4 0x8D928AF8 EQ PUSH2 0x230 JUMPI DUP1 PUSH4 0x8DDBEB07 EQ PUSH2 0x245 JUMPI DUP1 PUSH4 0x91B7F5ED EQ PUSH2 0x275 JUMPI DUP1 PUSH4 0x9CE110D7 EQ PUSH2 0x295 JUMPI DUP1 PUSH4 0xBE9A6555 EQ PUSH2 0x2B6 JUMPI PUSH1 0x0 DUP1 REVERT JUMPDEST DUP1 PUSH4 0x65CACAA4 GT PUSH2 0xE7 JUMPI DUP1 PUSH4 0x65CACAA4 EQ PUSH2 0x1A3 JUMPI DUP1 PUSH4 0x6DA84E6C EQ PUSH2 0x1D0 JUMPI DUP1 PUSH4 0x8129FC1C EQ PUSH2 0x1E6 JUMPI DUP1 PUSH4 0x853A1B90 EQ PUSH2 0x1FB JUMPI DUP1 PUSH4 0x85B4BB53 EQ PUSH2 0x21B JUMPI PUSH1 0x0 DUP1 REVERT JUMPDEST DUP1 PUSH4 0x22BB886 EQ PUSH2 0x124 JUMPI DUP1 PUSH4 0x1998AEEF EQ PUSH2 0x14D JUMPI DUP1 PUSH4 0x2A24F46C EQ PUSH2 0x157 JUMPI DUP1 PUSH4 0x2BF33BD9 EQ PUSH2 0x16D JUMPI DUP1 PUSH4 0x325C25A2 EQ PUSH2 0x18D JUMPI JUMPDEST PUSH1 0x0 DUP1 REVERT JUMPDEST CALLVALUE DUP1 ISZERO PUSH2 0x130 JUMPI PUSH1 0x0 DUP1 REVERT JUMPDEST POP PUSH2 0x13A PUSH1 0x2 SLOAD DUP2 JUMP JUMPDEST PUSH1 0x40 MLOAD SWAP1 DUP2 MSTORE PUSH1 0x20 ADD JUMPDEST PUSH1 0x40 MLOAD DUP1 SWAP2 SUB SWAP1 RETURN JUMPDEST PUSH2 0x155 PUSH2 0x36B JUMP JUMPDEST STOP JUMPDEST CALLVALUE DUP1 ISZERO PUSH2 0x163 JUMPI PUSH1 0x0 DUP1 REVERT JUMPDEST POP PUSH2 0x13A PUSH1 0x5 SLOAD DUP2 JUMP JUMPDEST CALLVALUE DUP1 ISZERO PUSH2 0x179 JUMPI PUSH1 0x0 DUP1 REVERT JUMPDEST POP PUSH2 0x155 PUSH2 0x188 CALLDATASIZE PUSH1 0x4 PUSH2 0x1676 JUMP JUMPDEST PUSH2 0x755 JUMP JUMPDEST CALLVALUE DUP1 ISZERO PUSH2 0x199 JUMPI PUSH1 0x0 DUP1 REVERT JUMPDEST POP PUSH2 0x13A PUSH1 0x3 SLOAD DUP2 JUMP JUMPDEST CALLVALUE DUP1 ISZERO PUSH2 0x1AF JUMPI PUSH1 0x0 DUP1 REVERT JUMPDEST POP PUSH2 0x1B8 PUSH2 0xA8A JUMP JUMPDEST PUSH1 0x40 MLOAD PUSH1 0x1 PUSH1 0x1 PUSH1 0xA0 SHL SUB SWAP1 SWAP2 AND DUP2 MSTORE PUSH1 0x20 ADD PUSH2 0x144 JUMP JUMPDEST CALLVALUE DUP1 ISZERO PUSH2 0x1DC JUMPI PUSH1 0x0 DUP1 REVERT JUMPDEST POP PUSH2 0x13A PUSH1 0x6 SLOAD DUP2 JUMP JUMPDEST CALLVALUE DUP1 ISZERO PUSH2 0x1F2 JUMPI PUSH1 0x0 DUP1 REVERT JUMPDEST POP PUSH2 0x155 PUSH2 0xB16 JUMP JUMPDEST CALLVALUE DUP1 ISZERO PUSH2 0x207 JUMPI PUSH1 0x0 DUP1 REVERT JUMPDEST POP PUSH1 0x7 SLOAD PUSH2 0x1B8 SWAP1 PUSH1 0x1 PUSH1 0x1 PUSH1 0xA0 SHL SUB AND DUP2 JUMP JUMPDEST CALLVALUE DUP1 ISZERO PUSH2 0x227 JUMPI PUSH1 0x0 DUP1 REVERT JUMPDEST POP PUSH2 0x1B8 PUSH2 0xBB3 JUMP JUMPDEST CALLVALUE DUP1 ISZERO PUSH2 0x23C JUMPI PUSH1 0x0 DUP1 REVERT JUMPDEST POP PUSH2 0x1B8 PUSH2 0xC02 JUMP JUMPDEST CALLVALUE DUP1 ISZERO PUSH2 0x251 JUMPI PUSH1 0x0 DUP1 REVERT JUMPDEST POP PUSH2 0x265 PUSH2 0x260 CALLDATASIZE PUSH1 0x4 PUSH2 0x1612 JUMP JUMPDEST PUSH2 0xC0C JUMP JUMPDEST PUSH1 0x40 MLOAD SWAP1 ISZERO ISZERO DUP2 MSTORE PUSH1 0x20 ADD PUSH2 0x144 JUMP JUMPDEST CALLVALUE DUP1 ISZERO PUSH2 0x281 JUMPI PUSH1 0x0 DUP1 REVERT JUMPDEST POP PUSH2 0x155 PUSH2 0x290 CALLDATASIZE PUSH1 0x4 PUSH2 0x1676 JUMP JUMPDEST PUSH2 0xCA0 JUMP JUMPDEST CALLVALUE DUP1 ISZERO PUSH2 0x2A1 JUMPI PUSH1 0x0 DUP1 REVERT JUMPDEST POP PUSH1 0x1 SLOAD PUSH2 0x265 SWAP1 PUSH1 0x1 PUSH1 0xA0 SHL SWAP1 DIV PUSH1 0xFF AND DUP2 JUMP JUMPDEST PUSH2 0x155 PUSH2 0xDA8 JUMP JUMPDEST CALLVALUE DUP1 ISZERO PUSH2 0x2CA JUMPI PUSH1 0x0 DUP1 REVERT JUMPDEST POP PUSH2 0x13A PUSH2 0x2D9 CALLDATASIZE PUSH1 0x4 PUSH2 0x145F JUMP JUMPDEST PUSH1 0x4 PUSH1 0x20 SWAP1 DUP2 MSTORE PUSH1 0x0 SWAP3 DUP4 MSTORE PUSH1 0x40 DUP1 DUP5 KECCAK256 SWAP1 SWAP2 MSTORE SWAP1 DUP3 MSTORE SWAP1 KECCAK256 SLOAD DUP2 JUMP JUMPDEST CALLVALUE DUP1 ISZERO PUSH2 0x302 JUMPI PUSH1 0x0 DUP1 REVERT JUMPDEST POP PUSH2 0x13A PUSH2 0x311 CALLDATASIZE PUSH1 0x4 PUSH2 0x1676 JUMP JUMPDEST PUSH2 0x109B JUMP JUMPDEST CALLVALUE DUP1 ISZERO PUSH2 0x322 JUMPI PUSH1 0x0 DUP1 REVERT JUMPDEST POP PUSH2 0x155 PUSH2 0x10BC JUMP JUMPDEST CALLVALUE DUP1 ISZERO PUSH2 0x337 JUMPI PUSH1 0x0 DUP1 REVERT JUMPDEST POP PUSH1 0x0 SLOAD PUSH2 0x1B8 SWAP1 PUSH1 0x1 PUSH1 0x1 PUSH1 0xA0 SHL SUB AND DUP2 JUMP JUMPDEST CALLVALUE DUP1 ISZERO PUSH2 0x357 JUMPI PUSH1 0x0 DUP1 REVERT JUMPDEST POP PUSH1 0x1 SLOAD PUSH2 0x1B8 SWAP1 PUSH1 0x1 PUSH1 0x1 PUSH1 0xA0 SHL SUB AND DUP2 JUMP JUMPDEST PUSH1 0x1 PUSH2 0x375 PUSH2 0xC02 JUMP JUMPDEST PUSH1 0x1 PUSH1 0x1 PUSH1 0xA0 SHL SUB AND PUSH4 0xD58BFA9D PUSH1 0x40 MLOAD DUP2 PUSH4 0xFFFFFFFF AND PUSH1 0xE0 SHL DUP2 MSTORE PUSH1 0x4 ADD PUSH1 0x20 PUSH1 0x40 MLOAD DUP1 DUP4 SUB DUP2 DUP7 DUP1 EXTCODESIZE ISZERO DUP1 ISZERO PUSH2 0x3AD JUMPI PUSH1 0x0 DUP1 REVERT JUMPDEST POP GAS STATICCALL ISZERO DUP1 ISZERO PUSH2 0x3C1 JUMPI RETURNDATASIZE PUSH1 0x0 DUP1 RETURNDATACOPY RETURNDATASIZE PUSH1 0x0 REVERT JUMPDEST POP POP POP POP PUSH1 0x40 MLOAD RETURNDATASIZE PUSH1 0x1F NOT PUSH1 0x1F DUP3 ADD AND DUP3 ADD DUP1 PUSH1 0x40 MSTORE POP DUP2 ADD SWAP1 PUSH2 0x3E5 SWAP2 SWAP1 PUSH2 0x155A JUMP JUMPDEST PUSH1 0x2 DUP2 GT ISZERO PUSH2 0x3F6 JUMPI PUSH2 0x3F6 PUSH2 0x1839 JUMP JUMPDEST EQ DUP1 ISZERO PUSH2 0x4A2 JUMPI POP PUSH2 0x4A2 PUSH2 0x409 PUSH2 0xC02 JUMP JUMPDEST PUSH1 0x1 PUSH1 0x1 PUSH1 0xA0 SHL SUB AND PUSH4 0x5CCB53DF PUSH1 0x40 MLOAD DUP2 PUSH4 0xFFFFFFFF AND PUSH1 0xE0 SHL DUP2 MSTORE PUSH1 0x4 ADD PUSH1 0x0 PUSH1 0x40 MLOAD DUP1 DUP4 SUB DUP2 DUP7 DUP1 EXTCODESIZE ISZERO DUP1 ISZERO PUSH2 0x441 JUMPI PUSH1 0x0 DUP1 REVERT JUMPDEST POP GAS STATICCALL ISZERO DUP1 ISZERO PUSH2 0x455 JUMPI RETURNDATASIZE PUSH1 0x0 DUP1 RETURNDATACOPY RETURNDATASIZE PUSH1 0x0 REVERT JUMPDEST POP POP POP POP PUSH1 0x40 MLOAD RETURNDATASIZE PUSH1 0x0 DUP3 RETURNDATACOPY PUSH1 0x1F RETURNDATASIZE SWAP1 DUP2 ADD PUSH1 0x1F NOT AND DUP3 ADD PUSH1 0x40 MSTORE PUSH2 0x47D SWAP2 SWAP1 DUP2 ADD SWAP1 PUSH2 0x157B JUMP JUMPDEST PUSH1 0x40 MLOAD DUP1 PUSH1 0x40 ADD PUSH1 0x40 MSTORE DUP1 PUSH1 0x7 DUP2 MSTORE PUSH1 0x20 ADD PUSH7 0x20BAB1BA34B7B7 PUSH1 0xC9 SHL DUP2 MSTORE POP PUSH2 0xC0C JUMP JUMPDEST PUSH2 0x4F3 JUMPI PUSH1 0x40 MLOAD PUSH3 0x461BCD PUSH1 0xE5 SHL DUP2 MSTORE PUSH1 0x20 PUSH1 0x4 DUP3 ADD MSTORE PUSH1 0x1A PUSH1 0x24 DUP3 ADD MSTORE PUSH32 0x626964203A3A2061756374696F6E206973206E6F74206C697665000000000000 PUSH1 0x44 DUP3 ADD MSTORE PUSH1 0x64 ADD JUMPDEST PUSH1 0x40 MLOAD DUP1 SWAP2 SUB SWAP1 REVERT JUMPDEST PUSH1 0x0 PUSH2 0x4FD PUSH2 0xBB3 JUMP JUMPDEST PUSH1 0x1 PUSH1 0x1 PUSH1 0xA0 SHL SUB AND PUSH4 0x7C513C0F PUSH1 0x40 MLOAD DUP2 PUSH4 0xFFFFFFFF AND PUSH1 0xE0 SHL DUP2 MSTORE PUSH1 0x4 ADD PUSH1 0x20 PUSH1 0x40 MLOAD DUP1 DUP4 SUB DUP2 PUSH1 0x0 DUP8 DUP1 EXTCODESIZE ISZERO DUP1 ISZERO PUSH2 0x537 JUMPI PUSH1 0x0 DUP1 REVERT JUMPDEST POP GAS CALL ISZERO DUP1 ISZERO PUSH2 0x54B JUMPI RETURNDATASIZE PUSH1 0x0 DUP1 RETURNDATACOPY RETURNDATASIZE PUSH1 0x0 REVERT JUMPDEST POP POP POP POP PUSH1 0x40 MLOAD RETURNDATASIZE PUSH1 0x1F NOT PUSH1 0x1F DUP3 ADD AND DUP3 ADD DUP1 PUSH1 0x40 MSTORE POP DUP2 ADD SWAP1 PUSH2 0x56F SWAP2 SWAP1 PUSH2 0x168F JUMP JUMPDEST PUSH2 0x57B SWAP1 PUSH2 0x3E8 PUSH2 0x17BA JUMP JUMPDEST SWAP1 POP DUP1 PUSH1 0x6 SLOAD PUSH2 0x58B SWAP2 SWAP1 PUSH2 0x17D2 JUMP JUMPDEST PUSH2 0x597 CALLVALUE PUSH2 0x3E8 PUSH2 0x17D2 JUMP JUMPDEST LT ISZERO PUSH2 0x5DA JUMPI PUSH1 0x40 MLOAD PUSH3 0x461BCD PUSH1 0xE5 SHL DUP2 MSTORE PUSH1 0x20 PUSH1 0x4 DUP3 ADD MSTORE PUSH1 0x12 PUSH1 0x24 DUP3 ADD MSTORE PUSH18 0x189A59080E8E881D1BDBC81B1BDDC8189A59 PUSH1 0x72 SHL PUSH1 0x44 DUP3 ADD MSTORE PUSH1 0x64 ADD PUSH2 0x4EA JUMP JUMPDEST PUSH1 0x5 SLOAD TIMESTAMP LT PUSH2 0x622 JUMPI PUSH1 0x40 MLOAD PUSH3 0x461BCD PUSH1 0xE5 SHL DUP2 MSTORE PUSH1 0x20 PUSH1 0x4 DUP3 ADD MSTORE PUSH1 0x14 PUSH1 0x24 DUP3 ADD MSTORE PUSH20 0x189A59080E8E88185D58DD1A5BDB88195B991959 PUSH1 0x62 SHL PUSH1 0x44 DUP3 ADD MSTORE PUSH1 0x64 ADD PUSH2 0x4EA JUMP JUMPDEST PUSH2 0x384 TIMESTAMP PUSH1 0x5 SLOAD PUSH2 0x633 SWAP2 SWAP1 PUSH2 0x17F1 JUMP JUMPDEST GT PUSH2 0x651 JUMPI PUSH1 0x0 PUSH1 0x5 PUSH1 0x0 DUP3 DUP3 SLOAD PUSH2 0x64B SWAP2 SWAP1 PUSH2 0x17BA JUMP JUMPDEST SWAP1 SWAP2 SSTORE POP POP JUMPDEST PUSH2 0x659 PUSH2 0xA8A JUMP JUMPDEST PUSH1 0x1 PUSH1 0x1 PUSH1 0xA0 SHL SUB AND PUSH2 0x8FC CALLVALUE SWAP1 DUP2 ISZERO MUL SWAP1 PUSH1 0x40 MLOAD PUSH1 0x0 PUSH1 0x40 MLOAD DUP1 DUP4 SUB DUP2 DUP6 DUP9 DUP9 CALL SWAP4 POP POP POP POP ISZERO DUP1 ISZERO PUSH2 0x691 JUMPI RETURNDATASIZE PUSH1 0x0 DUP1 RETURNDATACOPY RETURNDATASIZE PUSH1 0x0 REVERT JUMPDEST POP PUSH2 0x69A PUSH2 0xC02 JUMP JUMPDEST PUSH1 0x7 SLOAD PUSH1 0x6 SLOAD PUSH1 0x40 MLOAD PUSH4 0x64A197F3 PUSH1 0xE0 SHL DUP2 MSTORE PUSH1 0x1 PUSH1 0x1 PUSH1 0xA0 SHL SUB SWAP3 DUP4 AND PUSH1 0x4 DUP3 ADD MSTORE PUSH1 0x24 DUP2 ADD SWAP2 SWAP1 SWAP2 MSTORE SWAP2 AND SWAP1 PUSH4 0x64A197F3 SWAP1 PUSH1 0x44 ADD PUSH1 0x0 PUSH1 0x40 MLOAD DUP1 DUP4 SUB DUP2 PUSH1 0x0 DUP8 DUP1 EXTCODESIZE ISZERO DUP1 ISZERO PUSH2 0x6EB JUMPI PUSH1 0x0 DUP1 REVERT JUMPDEST POP GAS CALL ISZERO DUP1 ISZERO PUSH2 0x6FF JUMPI RETURNDATASIZE PUSH1 0x0 DUP1 RETURNDATACOPY RETURNDATASIZE PUSH1 0x0 REVERT JUMPDEST POP POP CALLVALUE PUSH1 0x6 DUP2 SWAP1 SSTORE PUSH1 0x7 DUP1 SLOAD PUSH1 0x1 PUSH1 0x1 PUSH1 0xA0 SHL SUB NOT AND CALLER SWAP1 DUP2 OR SWAP1 SWAP2 SSTORE PUSH1 0x40 MLOAD SWAP2 DUP3 MSTORE SWAP3 POP PUSH32 0xE684A55F31B79ECA403DF938249029212A5925EC6BE8012E099B45BC1019E5D2 SWAP2 POP PUSH1 0x20 ADD PUSH1 0x40 MLOAD DUP1 SWAP2 SUB SWAP1 LOG2 POP JUMP JUMPDEST PUSH1 0x0 PUSH2 0x75F PUSH2 0xC02 JUMP JUMPDEST PUSH1 0x1 PUSH1 0x1 PUSH1 0xA0 SHL SUB AND PUSH4 0xD58BFA9D PUSH1 0x40 MLOAD DUP2 PUSH4 0xFFFFFFFF AND PUSH1 0xE0 SHL DUP2 MSTORE PUSH1 0x4 ADD PUSH1 0x20 PUSH1 0x40 MLOAD DUP1 DUP4 SUB DUP2 DUP7 DUP1 EXTCODESIZE ISZERO DUP1 ISZERO PUSH2 0x797 JUMPI PUSH1 0x0 DUP1 REVERT JUMPDEST POP GAS STATICCALL ISZERO DUP1 ISZERO PUSH2 0x7AB JUMPI RETURNDATASIZE PUSH1 0x0 DUP1 RETURNDATACOPY RETURNDATASIZE PUSH1 0x0 REVERT JUMPDEST POP POP POP POP PUSH1 0x40 MLOAD RETURNDATASIZE PUSH1 0x1F NOT PUSH1 0x1F DUP3 ADD AND DUP3 ADD DUP1 PUSH1 0x40 MSTORE POP DUP2 ADD SWAP1 PUSH2 0x7CF SWAP2 SWAP1 PUSH2 0x155A JUMP JUMPDEST PUSH1 0x2 DUP2 GT ISZERO PUSH2 0x7E0 JUMPI PUSH2 0x7E0 PUSH2 0x1839 JUMP JUMPDEST EQ PUSH2 0x824 JUMPI PUSH1 0x40 MLOAD PUSH3 0x461BCD PUSH1 0xE5 SHL DUP2 MSTORE PUSH1 0x20 PUSH1 0x4 DUP3 ADD MSTORE PUSH1 0x14 PUSH1 0x24 DUP3 ADD MSTORE PUSH20 0x757064617465203A3A206E6F7420757064617465 PUSH1 0x60 SHL PUSH1 0x44 DUP3 ADD MSTORE PUSH1 0x64 ADD PUSH2 0x4EA JUMP JUMPDEST PUSH1 0x0 DUP1 SLOAD SWAP1 PUSH2 0x100 EXP SWAP1 DIV PUSH1 0x1 PUSH1 0x1 PUSH1 0xA0 SHL SUB AND PUSH1 0x1 PUSH1 0x1 PUSH1 0xA0 SHL SUB AND PUSH4 0xE66F53B7 PUSH1 0x40 MLOAD DUP2 PUSH4 0xFFFFFFFF AND PUSH1 0xE0 SHL DUP2 MSTORE PUSH1 0x4 ADD PUSH1 0x20 PUSH1 0x40 MLOAD DUP1 DUP4 SUB DUP2 DUP7 DUP1 EXTCODESIZE ISZERO DUP1 ISZERO PUSH2 0x870 JUMPI PUSH1 0x0 DUP1 REVERT JUMPDEST POP GAS STATICCALL ISZERO DUP1 ISZERO PUSH2 0x884 JUMPI RETURNDATASIZE PUSH1 0x0 DUP1 RETURNDATACOPY RETURNDATASIZE PUSH1 0x0 REVERT JUMPDEST POP POP POP POP PUSH1 0x40 MLOAD RETURNDATASIZE PUSH1 0x1F NOT PUSH1 0x1F DUP3 ADD AND DUP3 ADD DUP1 PUSH1 0x40 MSTORE POP DUP2 ADD SWAP1 PUSH2 0x8A8 SWAP2 SWAP1 PUSH2 0x143B JUMP JUMPDEST PUSH1 0x1 PUSH1 0x1 PUSH1 0xA0 SHL SUB AND CALLER PUSH1 0x1 PUSH1 0x1 PUSH1 0xA0 SHL SUB AND EQ PUSH2 0x900 JUMPI PUSH1 0x40 MLOAD PUSH3 0x461BCD PUSH1 0xE5 SHL DUP2 MSTORE PUSH1 0x20 PUSH1 0x4 DUP3 ADD MSTORE PUSH1 0x15 PUSH1 0x24 DUP3 ADD MSTORE PUSH21 0x3AB83230BA32901D1D103737BA1031BAB930BA37B9 PUSH1 0x59 SHL PUSH1 0x44 DUP3 ADD MSTORE PUSH1 0x64 ADD PUSH2 0x4EA JUMP JUMPDEST PUSH2 0x908 PUSH2 0xBB3 JUMP JUMPDEST PUSH1 0x1 PUSH1 0x1 PUSH1 0xA0 SHL SUB AND PUSH4 0xA0B335E3 PUSH1 0x40 MLOAD DUP2 PUSH4 0xFFFFFFFF AND PUSH1 0xE0 SHL DUP2 MSTORE PUSH1 0x4 ADD PUSH1 0x20 PUSH1 0x40 MLOAD DUP1 DUP4 SUB DUP2 PUSH1 0x0 DUP8 DUP1 EXTCODESIZE ISZERO DUP1 ISZERO PUSH2 0x942 JUMPI PUSH1 0x0 DUP1 REVERT JUMPDEST POP GAS CALL ISZERO DUP1 ISZERO PUSH2 0x956 JUMPI RETURNDATASIZE PUSH1 0x0 DUP1 RETURNDATACOPY RETURNDATASIZE PUSH1 0x0 REVERT JUMPDEST POP POP POP POP PUSH1 0x40 MLOAD RETURNDATASIZE PUSH1 0x1F NOT PUSH1 0x1F DUP3 ADD AND DUP3 ADD DUP1 PUSH1 0x40 MSTORE POP DUP2 ADD SWAP1 PUSH2 0x97A SWAP2 SWAP1 PUSH2 0x168F JUMP JUMPDEST DUP2 LT ISZERO DUP1 ISZERO PUSH2 0xA02 JUMPI POP PUSH2 0x98C PUSH2 0xBB3 JUMP JUMPDEST PUSH1 0x1 PUSH1 0x1 PUSH1 0xA0 SHL SUB AND PUSH4 0xE519EF9 PUSH1 0x40 MLOAD DUP2 PUSH4 0xFFFFFFFF AND PUSH1 0xE0 SHL DUP2 MSTORE PUSH1 0x4 ADD PUSH1 0x20 PUSH1 0x40 MLOAD DUP1 DUP4 SUB DUP2 PUSH1 0x0 DUP8 DUP1 EXTCODESIZE ISZERO DUP1 ISZERO PUSH2 0x9C6 JUMPI PUSH1 0x0 DUP1 REVERT JUMPDEST POP GAS CALL ISZERO DUP1 ISZERO PUSH2 0x9DA JUMPI RETURNDATASIZE PUSH1 0x0 DUP1 RETURNDATACOPY RETURNDATASIZE PUSH1 0x0 REVERT JUMPDEST POP POP POP POP PUSH1 0x40 MLOAD RETURNDATASIZE PUSH1 0x1F NOT PUSH1 0x1F DUP3 ADD AND DUP3 ADD DUP1 PUSH1 0x40 MSTORE POP DUP2 ADD SWAP1 PUSH2 0x9FE SWAP2 SWAP1 PUSH2 0x168F JUMP JUMPDEST DUP2 GT ISZERO JUMPDEST PUSH2 0xA4E JUMPI PUSH1 0x40 MLOAD PUSH3 0x461BCD PUSH1 0xE5 SHL DUP2 MSTORE PUSH1 0x20 PUSH1 0x4 DUP3 ADD DUP2 SWAP1 MSTORE PUSH1 0x24 DUP3 ADD MSTORE PUSH32 0x757064617465203A3A20696E76616C69642061756374696F6E206C656E677468 PUSH1 0x44 DUP3 ADD MSTORE PUSH1 0x64 ADD PUSH2 0x4EA JUMP JUMPDEST PUSH1 0x3 DUP2 SWAP1 SSTORE PUSH1 0x40 MLOAD DUP2 DUP2 MSTORE PUSH32 0x4AB86AE701798277AA378943B9DFD155D3B19703CD57BE298908FADD32F7BF46 SWAP1 PUSH1 0x20 ADD JUMPDEST PUSH1 0x40 MLOAD DUP1 SWAP2 SUB SWAP1 LOG1 POP JUMP JUMPDEST PUSH1 0x0 DUP1 PUSH1 0x0 SWAP1 SLOAD SWAP1 PUSH2 0x100 EXP SWAP1 DIV PUSH1 0x1 PUSH1 0x1 PUSH1 0xA0 SHL SUB AND PUSH1 0x1 PUSH1 0x1 PUSH1 0xA0 SHL SUB AND PUSH4 0xFBFA77CF PUSH1 0x40 MLOAD DUP2 PUSH4 0xFFFFFFFF AND PUSH1 0xE0 SHL DUP2 MSTORE PUSH1 0x4 ADD PUSH1 0x20 PUSH1 0x40 MLOAD DUP1 DUP4 SUB DUP2 DUP7 DUP1 EXTCODESIZE ISZERO DUP1 ISZERO PUSH2 0xAD9 JUMPI PUSH1 0x0 DUP1 REVERT JUMPDEST POP GAS STATICCALL ISZERO DUP1 ISZERO PUSH2 0xAED JUMPI RETURNDATASIZE PUSH1 0x0 DUP1 RETURNDATACOPY RETURNDATASIZE PUSH1 0x0 REVERT JUMPDEST POP POP POP POP PUSH1 0x40 MLOAD RETURNDATASIZE PUSH1 0x1F NOT PUSH1 0x1F DUP3 ADD AND DUP3 ADD DUP1 PUSH1 0x40 MSTORE POP DUP2 ADD SWAP1 PUSH2 0xB11 SWAP2 SWAP1 PUSH2 0x143B JUMP JUMPDEST SWAP1 POP SWAP1 JUMP JUMPDEST PUSH1 0x1 SLOAD PUSH1 0x1 PUSH1 0xA0 SHL SWAP1 DIV PUSH1 0xFF AND ISZERO PUSH2 0xB7A JUMPI PUSH1 0x40 MLOAD PUSH3 0x461BCD PUSH1 0xE5 SHL DUP2 MSTORE PUSH1 0x20 PUSH1 0x4 DUP3 ADD MSTORE PUSH1 0x21 PUSH1 0x24 DUP3 ADD MSTORE PUSH32 0x696E697469616C697A65203A3A20416C726561647920696E697469616C697A65 PUSH1 0x44 DUP3 ADD MSTORE PUSH1 0x19 PUSH1 0xFA SHL PUSH1 0x64 DUP3 ADD MSTORE PUSH1 0x84 ADD PUSH2 0x4EA JUMP JUMPDEST PUSH1 0x1 DUP1 SLOAD PUSH1 0xFF PUSH1 0x1 PUSH1 0xA0 SHL DUP1 DUP4 DIV SWAP2 SWAP1 SWAP2 AND ISZERO MUL PUSH1 0xFF PUSH1 0xA0 SHL NOT SWAP1 SWAP2 AND OR SWAP1 SSTORE PUSH1 0x0 DUP1 SLOAD PUSH1 0x1 PUSH1 0x1 PUSH1 0xA0 SHL SUB NOT AND CALLER OR SWAP1 SSTORE PUSH1 0x78 PUSH1 0x3 SSTORE JUMP JUMPDEST PUSH1 0x0 DUP1 PUSH1 0x0 SWAP1 SLOAD SWAP1 PUSH2 0x100 EXP SWAP1 DIV PUSH1 0x1 PUSH1 0x1 PUSH1 0xA0 SHL SUB AND PUSH1 0x1 PUSH1 0x1 PUSH1 0xA0 SHL SUB AND PUSH4 0xE06174E4 PUSH1 0x40 MLOAD DUP2 PUSH4 0xFFFFFFFF AND PUSH1 0xE0 SHL DUP2 MSTORE PUSH1 0x4 ADD PUSH1 0x20 PUSH1 0x40 MLOAD DUP1 DUP4 SUB DUP2 DUP7 DUP1 EXTCODESIZE ISZERO DUP1 ISZERO PUSH2 0xAD9 JUMPI PUSH1 0x0 DUP1 REVERT JUMPDEST PUSH1 0x0 PUSH2 0xB11 PUSH2 0xA8A JUMP JUMPDEST PUSH1 0x0 DUP2 MLOAD DUP4 MLOAD EQ PUSH2 0xC1F JUMPI POP PUSH1 0x0 PUSH2 0xC9A JUMP JUMPDEST PUSH1 0x0 JUMPDEST DUP4 MLOAD DUP2 LT ISZERO PUSH2 0xC94 JUMPI DUP3 DUP2 DUP2 MLOAD DUP2 LT PUSH2 0xC3D JUMPI PUSH2 0xC3D PUSH2 0x184F JUMP JUMPDEST PUSH1 0x20 ADD ADD MLOAD PUSH1 0xF8 SHR PUSH1 0xF8 SHL PUSH1 0x1 PUSH1 0x1 PUSH1 0xF8 SHL SUB NOT AND DUP5 DUP3 DUP2 MLOAD DUP2 LT PUSH2 0xC64 JUMPI PUSH2 0xC64 PUSH2 0x184F JUMP JUMPDEST ADD PUSH1 0x20 ADD MLOAD PUSH1 0x1 PUSH1 0x1 PUSH1 0xF8 SHL SUB NOT AND EQ PUSH2 0xC82 JUMPI PUSH1 0x0 SWAP2 POP POP PUSH2 0xC9A JUMP JUMPDEST DUP1 PUSH2 0xC8C DUP2 PUSH2 0x1808 JUMP JUMPDEST SWAP2 POP POP PUSH2 0xC22 JUMP JUMPDEST POP PUSH1 0x1 SWAP1 POP JUMPDEST SWAP3 SWAP2 POP POP JUMP JUMPDEST PUSH1 0x0 SLOAD PUSH1 0x40 MLOAD PUSH4 0x372C12B1 PUSH1 0xE0 SHL DUP2 MSTORE CALLER PUSH1 0x4 DUP3 ADD MSTORE PUSH1 0x1 PUSH1 0x1 PUSH1 0xA0 SHL SUB SWAP1 SWAP2 AND SWAP1 PUSH4 0x372C12B1 SWAP1 PUSH1 0x24 ADD PUSH1 0x20 PUSH1 0x40 MLOAD DUP1 DUP4 SUB DUP2 DUP7 DUP1 EXTCODESIZE ISZERO DUP1 ISZERO PUSH2 0xCE3 JUMPI PUSH1 0x0 DUP1 REVERT JUMPDEST POP GAS STATICCALL ISZERO DUP1 ISZERO PUSH2 0xCF7 JUMPI RETURNDATASIZE PUSH1 0x0 DUP1 RETURNDATACOPY RETURNDATASIZE PUSH1 0x0 REVERT JUMPDEST POP POP POP POP PUSH1 0x40 MLOAD RETURNDATASIZE PUSH1 0x1F NOT PUSH1 0x1F DUP3 ADD AND DUP3 ADD DUP1 PUSH1 0x40 MSTORE POP DUP2 ADD SWAP1 PUSH2 0xD1B SWAP2 SWAP1 PUSH2 0x1538 JUMP JUMPDEST PUSH2 0xD73 JUMPI PUSH1 0x40 MLOAD PUSH3 0x461BCD PUSH1 0xE5 SHL DUP2 MSTORE PUSH1 0x20 PUSH1 0x4 DUP3 ADD MSTORE PUSH1 0x23 PUSH1 0x24 DUP3 ADD MSTORE PUSH32 0x7365745072696365203A3A2043616C6C6572207065726D697373696F6E206572 PUSH1 0x44 DUP3 ADD MSTORE PUSH3 0x3937B9 PUSH1 0xE9 SHL PUSH1 0x64 DUP3 ADD MSTORE PUSH1 0x84 ADD PUSH2 0x4EA JUMP JUMPDEST PUSH1 0x2 DUP2 SWAP1 SSTORE PUSH1 0x40 MLOAD DUP2 DUP2 MSTORE PUSH32 0xD625DC2138F94556F2CF89E7E1C67CC54705C9ABE155AD8FB518F4121E942DE6 SWAP1 PUSH1 0x20 ADD PUSH2 0xA7F JUMP JUMPDEST PUSH1 0x0 PUSH2 0xDB2 PUSH2 0xC02 JUMP JUMPDEST PUSH1 0x1 PUSH1 0x1 PUSH1 0xA0 SHL SUB AND PUSH4 0xD58BFA9D PUSH1 0x40 MLOAD DUP2 PUSH4 0xFFFFFFFF AND PUSH1 0xE0 SHL DUP2 MSTORE PUSH1 0x4 ADD PUSH1 0x20 PUSH1 0x40 MLOAD DUP1 DUP4 SUB DUP2 DUP7 DUP1 EXTCODESIZE ISZERO DUP1 ISZERO PUSH2 0xDEA JUMPI PUSH1 0x0 DUP1 REVERT JUMPDEST POP GAS STATICCALL ISZERO DUP1 ISZERO PUSH2 0xDFE JUMPI RETURNDATASIZE PUSH1 0x0 DUP1 RETURNDATACOPY RETURNDATASIZE PUSH1 0x0 REVERT JUMPDEST POP POP POP POP PUSH1 0x40 MLOAD RETURNDATASIZE PUSH1 0x1F NOT PUSH1 0x1F DUP3 ADD AND DUP3 ADD DUP1 PUSH1 0x40 MSTORE POP DUP2 ADD SWAP1 PUSH2 0xE22 SWAP2 SWAP1 PUSH2 0x155A JUMP JUMPDEST PUSH1 0x2 DUP2 GT ISZERO PUSH2 0xE33 JUMPI PUSH2 0xE33 PUSH2 0x1839 JUMP JUMPDEST EQ PUSH2 0xE80 JUMPI PUSH1 0x40 MLOAD PUSH3 0x461BCD PUSH1 0xE5 SHL DUP2 MSTORE PUSH1 0x20 PUSH1 0x4 DUP3 ADD MSTORE PUSH1 0x1A PUSH1 0x24 DUP3 ADD MSTORE PUSH32 0x7374617274203A3A206E6F2061756374696F6E20737461727473000000000000 PUSH1 0x44 DUP3 ADD MSTORE PUSH1 0x64 ADD PUSH2 0x4EA JUMP JUMPDEST PUSH1 0x2 SLOAD PUSH2 0xEDB JUMPI PUSH1 0x40 MLOAD PUSH3 0x461BCD PUSH1 0xE5 SHL DUP2 MSTORE PUSH1 0x20 PUSH1 0x4 DUP3 ADD MSTORE PUSH1 0x23 PUSH1 0x24 DUP3 ADD MSTORE PUSH32 0x7374617274203A3A20456E74697265207661756C74207072696365206973207A PUSH1 0x44 DUP3 ADD MSTORE PUSH3 0x6F7265 PUSH1 0xE8 SHL PUSH1 0x64 DUP3 ADD MSTORE PUSH1 0x84 ADD PUSH2 0x4EA JUMP JUMPDEST PUSH1 0x2 SLOAD CALLVALUE LT ISZERO PUSH2 0xF24 JUMPI PUSH1 0x40 MLOAD PUSH3 0x461BCD PUSH1 0xE5 SHL DUP2 MSTORE PUSH1 0x20 PUSH1 0x4 DUP3 ADD MSTORE PUSH1 0x14 PUSH1 0x24 DUP3 ADD MSTORE PUSH20 0x1CDD185C9D080E8E881D1BDBC81B1BDDC8189A59 PUSH1 0x62 SHL PUSH1 0x44 DUP3 ADD MSTORE PUSH1 0x64 ADD PUSH2 0x4EA JUMP JUMPDEST PUSH1 0x3 SLOAD PUSH2 0xF31 SWAP1 TIMESTAMP PUSH2 0x17BA JUMP JUMPDEST PUSH1 0x5 SSTORE PUSH2 0xF3C PUSH2 0xC02 JUMP JUMPDEST PUSH1 0x1 PUSH1 0x1 PUSH1 0xA0 SHL SUB AND PUSH4 0xE77AE39B PUSH1 0x0 DUP1 PUSH1 0x1 PUSH1 0x40 MLOAD DUP5 PUSH4 0xFFFFFFFF AND PUSH1 0xE0 SHL DUP2 MSTORE PUSH1 0x4 ADD PUSH2 0xF6D SWAP4 SWAP3 SWAP2 SWAP1 PUSH2 0x16A8 JUMP JUMPDEST PUSH1 0x0 PUSH1 0x40 MLOAD DUP1 DUP4 SUB DUP2 PUSH1 0x0 DUP8 DUP1 EXTCODESIZE ISZERO DUP1 ISZERO PUSH2 0xF87 JUMPI PUSH1 0x0 DUP1 REVERT JUMPDEST POP GAS CALL ISZERO DUP1 ISZERO PUSH2 0xF9B JUMPI RETURNDATASIZE PUSH1 0x0 DUP1 RETURNDATACOPY RETURNDATASIZE PUSH1 0x0 REVERT JUMPDEST POP POP CALLVALUE PUSH1 0x6 SSTORE POP PUSH2 0xFAC SWAP1 POP PUSH2 0xA8A JUMP JUMPDEST PUSH1 0x1 PUSH1 0x1 PUSH1 0xA0 SHL SUB AND PUSH2 0x8FC PUSH1 0x6 SLOAD SWAP1 DUP2 ISZERO MUL SWAP1 PUSH1 0x40 MLOAD PUSH1 0x0 PUSH1 0x40 MLOAD DUP1 DUP4 SUB DUP2 DUP6 DUP9 DUP9 CALL SWAP4 POP POP POP POP ISZERO DUP1 ISZERO PUSH2 0xFE6 JUMPI RETURNDATASIZE PUSH1 0x0 DUP1 RETURNDATACOPY RETURNDATASIZE PUSH1 0x0 REVERT JUMPDEST POP PUSH1 0x7 DUP1 SLOAD PUSH1 0x1 PUSH1 0x1 PUSH1 0xA0 SHL SUB NOT AND CALLER OR SWAP1 SSTORE PUSH2 0x1001 PUSH2 0xC02 JUMP JUMPDEST PUSH1 0x1 PUSH1 0x1 PUSH1 0xA0 SHL SUB AND PUSH4 0x1370C6A9 PUSH1 0x40 MLOAD DUP2 PUSH4 0xFFFFFFFF AND PUSH1 0xE0 SHL DUP2 MSTORE PUSH1 0x4 ADD PUSH1 0x0 PUSH1 0x40 MLOAD DUP1 DUP4 SUB DUP2 PUSH1 0x0 DUP8 DUP1 EXTCODESIZE ISZERO DUP1 ISZERO PUSH2 0x103B JUMPI PUSH1 0x0 DUP1 REVERT JUMPDEST POP GAS CALL ISZERO DUP1 ISZERO PUSH2 0x104F JUMPI RETURNDATASIZE PUSH1 0x0 DUP1 RETURNDATACOPY RETURNDATASIZE PUSH1 0x0 REVERT JUMPDEST POP POP PUSH1 0x7 SLOAD PUSH1 0x6 SLOAD PUSH1 0x40 MLOAD SWAP1 DUP2 MSTORE PUSH1 0x1 PUSH1 0x1 PUSH1 0xA0 SHL SUB SWAP1 SWAP2 AND SWAP3 POP PUSH32 0xCFB9C5312B25EC7B809D61E638DF25F749EAE5D5C25399E1C93D1D319BFD5821 SWAP2 POP PUSH1 0x20 ADD JUMPDEST PUSH1 0x40 MLOAD DUP1 SWAP2 SUB SWAP1 LOG2 JUMP JUMPDEST PUSH1 0x8 DUP2 DUP2 SLOAD DUP2 LT PUSH2 0x10AB JUMPI PUSH1 0x0 DUP1 REVERT JUMPDEST PUSH1 0x0 SWAP2 DUP3 MSTORE PUSH1 0x20 SWAP1 SWAP2 KECCAK256 ADD SLOAD SWAP1 POP DUP2 JUMP JUMPDEST PUSH1 0x1 PUSH2 0x10C6 PUSH2 0xC02 JUMP JUMPDEST PUSH1 0x1 PUSH1 0x1 PUSH1 0xA0 SHL SUB AND PUSH4 0xD58BFA9D PUSH1 0x40 MLOAD DUP2 PUSH4 0xFFFFFFFF AND PUSH1 0xE0 SHL DUP2 MSTORE PUSH1 0x4 ADD PUSH1 0x20 PUSH1 0x40 MLOAD DUP1 DUP4 SUB DUP2 DUP7 DUP1 EXTCODESIZE ISZERO DUP1 ISZERO PUSH2 0x10FE JUMPI PUSH1 0x0 DUP1 REVERT JUMPDEST POP GAS STATICCALL ISZERO DUP1 ISZERO PUSH2 0x1112 JUMPI RETURNDATASIZE PUSH1 0x0 DUP1 RETURNDATACOPY RETURNDATASIZE PUSH1 0x0 REVERT JUMPDEST POP POP POP POP PUSH1 0x40 MLOAD RETURNDATASIZE PUSH1 0x1F NOT PUSH1 0x1F DUP3 ADD AND DUP3 ADD DUP1 PUSH1 0x40 MSTORE POP DUP2 ADD SWAP1 PUSH2 0x1136 SWAP2 SWAP1 PUSH2 0x155A JUMP JUMPDEST PUSH1 0x2 DUP2 GT ISZERO PUSH2 0x1147 JUMPI PUSH2 0x1147 PUSH2 0x1839 JUMP JUMPDEST EQ DUP1 ISZERO PUSH2 0x115A JUMPI POP PUSH2 0x115A PUSH2 0x409 PUSH2 0xC02 JUMP JUMPDEST PUSH2 0x11A6 JUMPI PUSH1 0x40 MLOAD PUSH3 0x461BCD PUSH1 0xE5 SHL DUP2 MSTORE PUSH1 0x20 PUSH1 0x4 DUP3 ADD MSTORE PUSH1 0x1F PUSH1 0x24 DUP3 ADD MSTORE PUSH32 0x656E64203A3A207661756C742068617320616C726561647920636C6F73656400 PUSH1 0x44 DUP3 ADD MSTORE PUSH1 0x64 ADD PUSH2 0x4EA JUMP JUMPDEST PUSH1 0x5 SLOAD TIMESTAMP LT ISZERO PUSH2 0x11EE JUMPI PUSH1 0x40 MLOAD PUSH3 0x461BCD PUSH1 0xE5 SHL DUP2 MSTORE PUSH1 0x20 PUSH1 0x4 DUP3 ADD MSTORE PUSH1 0x13 PUSH1 0x24 DUP3 ADD MSTORE PUSH19 0x656E64203A3A2061756374696F6E206C697665 PUSH1 0x68 SHL PUSH1 0x44 DUP3 ADD MSTORE PUSH1 0x64 ADD PUSH2 0x4EA JUMP JUMPDEST PUSH1 0x0 DUP1 SLOAD PUSH1 0x40 DUP1 MLOAD PUSH4 0xD294F093 PUSH1 0xE0 SHL DUP2 MSTORE SWAP1 MLOAD PUSH1 0x1 PUSH1 0x1 PUSH1 0xA0 SHL SUB SWAP1 SWAP3 AND SWAP3 PUSH4 0xD294F093 SWAP3 PUSH1 0x4 DUP1 DUP5 ADD SWAP4 DUP3 SWAP1 SUB ADD DUP2 DUP4 DUP8 DUP1 EXTCODESIZE ISZERO DUP1 ISZERO PUSH2 0x122F JUMPI PUSH1 0x0 DUP1 REVERT JUMPDEST POP GAS CALL ISZERO DUP1 ISZERO PUSH2 0x1243 JUMPI RETURNDATASIZE PUSH1 0x0 DUP1 RETURNDATACOPY RETURNDATASIZE PUSH1 0x0 REVERT JUMPDEST POP POP POP POP PUSH2 0x124F PUSH2 0xC02 JUMP JUMPDEST PUSH1 0x1 PUSH1 0x1 PUSH1 0xA0 SHL SUB AND PUSH3 0x94C5F3 PUSH2 0x1264 PUSH2 0xC02 JUMP JUMPDEST PUSH1 0x1 PUSH1 0x1 PUSH1 0xA0 SHL SUB AND PUSH4 0x634F6319 PUSH1 0x40 MLOAD DUP2 PUSH4 0xFFFFFFFF AND PUSH1 0xE0 SHL DUP2 MSTORE PUSH1 0x4 ADD PUSH1 0x0 PUSH1 0x40 MLOAD DUP1 DUP4 SUB DUP2 DUP7 DUP1 EXTCODESIZE ISZERO DUP1 ISZERO PUSH2 0x129C JUMPI PUSH1 0x0 DUP1 REVERT JUMPDEST POP GAS STATICCALL ISZERO DUP1 ISZERO PUSH2 0x12B0 JUMPI RETURNDATASIZE PUSH1 0x0 DUP1 RETURNDATACOPY RETURNDATASIZE PUSH1 0x0 REVERT JUMPDEST POP POP POP POP PUSH1 0x40 MLOAD RETURNDATASIZE PUSH1 0x0 DUP3 RETURNDATACOPY PUSH1 0x1F RETURNDATASIZE SWAP1 DUP2 ADD PUSH1 0x1F NOT AND DUP3 ADD PUSH1 0x40 MSTORE PUSH2 0x12D8 SWAP2 SWAP1 DUP2 ADD SWAP1 PUSH2 0x148B JUMP JUMPDEST PUSH1 0x7 SLOAD PUSH1 0x40 MLOAD PUSH1 0x1 PUSH1 0x1 PUSH1 0xE0 SHL SUB NOT PUSH1 0xE0 DUP6 SWAP1 SHL AND DUP2 MSTORE PUSH2 0x1306 SWAP3 SWAP2 PUSH1 0x1 PUSH1 0x1 PUSH1 0xA0 SHL SUB AND SWAP1 PUSH1 0x4 ADD PUSH2 0x170D JUMP JUMPDEST PUSH1 0x0 PUSH1 0x40 MLOAD DUP1 DUP4 SUB DUP2 PUSH1 0x0 DUP8 DUP1 EXTCODESIZE ISZERO DUP1 ISZERO PUSH2 0x1320 JUMPI PUSH1 0x0 DUP1 REVERT JUMPDEST POP GAS CALL ISZERO DUP1 ISZERO PUSH2 0x1334 JUMPI RETURNDATASIZE PUSH1 0x0 DUP1 RETURNDATACOPY RETURNDATASIZE PUSH1 0x0 REVERT JUMPDEST POP POP POP POP PUSH2 0x1340 PUSH2 0xC02 JUMP JUMPDEST PUSH1 0x1 PUSH1 0x1 PUSH1 0xA0 SHL SUB AND PUSH4 0xE77AE39B PUSH1 0x0 DUP1 PUSH1 0x2 PUSH1 0x40 MLOAD DUP5 PUSH4 0xFFFFFFFF AND PUSH1 0xE0 SHL DUP2 MSTORE PUSH1 0x4 ADD PUSH2 0x1371 SWAP4 SWAP3 SWAP2 SWAP1 PUSH2 0x16A8 JUMP JUMPDEST PUSH1 0x0 PUSH1 0x40 MLOAD DUP1 DUP4 SUB DUP2 PUSH1 0x0 DUP8 DUP1 EXTCODESIZE ISZERO DUP1 ISZERO PUSH2 0x138B JUMPI PUSH1 0x0 DUP1 REVERT JUMPDEST POP GAS CALL ISZERO DUP1 ISZERO PUSH2 0x139F JUMPI RETURNDATASIZE PUSH1 0x0 DUP1 RETURNDATACOPY RETURNDATASIZE PUSH1 0x0 REVERT JUMPDEST POP POP PUSH1 0x7 SLOAD PUSH1 0x6 SLOAD PUSH1 0x40 MLOAD SWAP1 DUP2 MSTORE PUSH1 0x1 PUSH1 0x1 PUSH1 0xA0 SHL SUB SWAP1 SWAP2 AND SWAP3 POP PUSH32 0x8B01F9DD0400D6A1E84369A5FB8F6033934856FFA8EBADD707DCA302AB551695 SWAP2 POP PUSH1 0x20 ADD PUSH2 0x1091 JUMP JUMPDEST PUSH1 0x0 DUP3 PUSH1 0x1F DUP4 ADD SLT PUSH2 0x13F6 JUMPI PUSH1 0x0 DUP1 REVERT JUMPDEST DUP2 CALLDATALOAD PUSH2 0x1409 PUSH2 0x1404 DUP3 PUSH2 0x1792 JUMP JUMPDEST PUSH2 0x1761 JUMP JUMPDEST DUP2 DUP2 MSTORE DUP5 PUSH1 0x20 DUP4 DUP7 ADD ADD GT ISZERO PUSH2 0x141E JUMPI PUSH1 0x0 DUP1 REVERT JUMPDEST DUP2 PUSH1 0x20 DUP6 ADD PUSH1 0x20 DUP4 ADD CALLDATACOPY PUSH1 0x0 SWAP2 DUP2 ADD PUSH1 0x20 ADD SWAP2 SWAP1 SWAP2 MSTORE SWAP4 SWAP3 POP POP POP JUMP JUMPDEST PUSH1 0x0 PUSH1 0x20 DUP3 DUP5 SUB SLT ISZERO PUSH2 0x144D JUMPI PUSH1 0x0 DUP1 REVERT JUMPDEST DUP2 MLOAD PUSH2 0x1458 DUP2 PUSH2 0x187B JUMP JUMPDEST SWAP4 SWAP3 POP POP POP JUMP JUMPDEST PUSH1 0x0 DUP1 PUSH1 0x40 DUP4 DUP6 SUB SLT ISZERO PUSH2 0x1472 JUMPI PUSH1 0x0 DUP1 REVERT JUMPDEST DUP3 CALLDATALOAD PUSH2 0x147D DUP2 PUSH2 0x187B JUMP JUMPDEST SWAP5 PUSH1 0x20 SWAP4 SWAP1 SWAP4 ADD CALLDATALOAD SWAP4 POP POP POP JUMP JUMPDEST PUSH1 0x0 PUSH1 0x20 DUP1 DUP4 DUP6 SUB SLT ISZERO PUSH2 0x149E JUMPI PUSH1 0x0 DUP1 REVERT JUMPDEST DUP3 MLOAD PUSH8 0xFFFFFFFFFFFFFFFF DUP1 DUP3 GT ISZERO PUSH2 0x14B6 JUMPI PUSH1 0x0 DUP1 REVERT JUMPDEST DUP2 DUP6 ADD SWAP2 POP DUP6 PUSH1 0x1F DUP4 ADD SLT PUSH2 0x14CA JUMPI PUSH1 0x0 DUP1 REVERT JUMPDEST DUP2 MLOAD DUP2 DUP2 GT ISZERO PUSH2 0x14DC JUMPI PUSH2 0x14DC PUSH2 0x1865 JUMP JUMPDEST DUP1 PUSH1 0x5 SHL SWAP2 POP PUSH2 0x14ED DUP5 DUP4 ADD PUSH2 0x1761 JUMP JUMPDEST DUP2 DUP2 MSTORE DUP5 DUP2 ADD SWAP1 DUP5 DUP7 ADD DUP5 DUP7 ADD DUP8 ADD DUP11 LT ISZERO PUSH2 0x1508 JUMPI PUSH1 0x0 DUP1 REVERT JUMPDEST PUSH1 0x0 SWAP6 POP JUMPDEST DUP4 DUP7 LT ISZERO PUSH2 0x152B JUMPI DUP1 MLOAD DUP4 MSTORE PUSH1 0x1 SWAP6 SWAP1 SWAP6 ADD SWAP5 SWAP2 DUP7 ADD SWAP2 DUP7 ADD PUSH2 0x150D JUMP JUMPDEST POP SWAP9 SWAP8 POP POP POP POP POP POP POP POP JUMP JUMPDEST PUSH1 0x0 PUSH1 0x20 DUP3 DUP5 SUB SLT ISZERO PUSH2 0x154A JUMPI PUSH1 0x0 DUP1 REVERT JUMPDEST DUP2 MLOAD DUP1 ISZERO ISZERO DUP2 EQ PUSH2 0x1458 JUMPI PUSH1 0x0 DUP1 REVERT JUMPDEST PUSH1 0x0 PUSH1 0x20 DUP3 DUP5 SUB SLT ISZERO PUSH2 0x156C JUMPI PUSH1 0x0 DUP1 REVERT JUMPDEST DUP2 MLOAD PUSH1 0x3 DUP2 LT PUSH2 0x1458 JUMPI PUSH1 0x0 DUP1 REVERT JUMPDEST PUSH1 0x0 PUSH1 0x20 DUP1 DUP4 DUP6 SUB SLT ISZERO PUSH2 0x158E JUMPI PUSH1 0x0 DUP1 REVERT JUMPDEST DUP3 MLOAD PUSH8 0xFFFFFFFFFFFFFFFF DUP2 GT ISZERO PUSH2 0x15A5 JUMPI PUSH1 0x0 DUP1 REVERT JUMPDEST DUP4 ADD PUSH1 0x1F DUP2 ADD DUP6 SGT PUSH2 0x15B6 JUMPI PUSH1 0x0 DUP1 REVERT JUMPDEST DUP1 MLOAD PUSH2 0x15C4 PUSH2 0x1404 DUP3 PUSH2 0x1792 JUMP JUMPDEST DUP2 DUP2 MSTORE DUP7 DUP5 DUP4 DUP6 ADD ADD GT ISZERO PUSH2 0x15D8 JUMPI PUSH1 0x0 DUP1 REVERT JUMPDEST PUSH1 0x0 JUMPDEST DUP3 DUP2 LT ISZERO PUSH2 0x15F6 JUMPI DUP4 DUP2 ADD DUP6 ADD MLOAD DUP3 DUP3 ADD DUP7 ADD MSTORE DUP5 ADD PUSH2 0x15DB JUMP JUMPDEST DUP3 DUP2 GT ISZERO PUSH2 0x1607 JUMPI PUSH1 0x0 DUP6 DUP5 DUP5 ADD ADD MSTORE JUMPDEST POP SWAP7 SWAP6 POP POP POP POP POP POP JUMP JUMPDEST PUSH1 0x0 DUP1 PUSH1 0x40 DUP4 DUP6 SUB SLT ISZERO PUSH2 0x1625 JUMPI PUSH1 0x0 DUP1 REVERT JUMPDEST DUP3 CALLDATALOAD PUSH8 0xFFFFFFFFFFFFFFFF DUP1 DUP3 GT ISZERO PUSH2 0x163D JUMPI PUSH1 0x0 DUP1 REVERT JUMPDEST PUSH2 0x1649 DUP7 DUP4 DUP8 ADD PUSH2 0x13E5 JUMP JUMPDEST SWAP4 POP PUSH1 0x20 DUP6 ADD CALLDATALOAD SWAP2 POP DUP1 DUP3 GT ISZERO PUSH2 0x165F JUMPI PUSH1 0x0 DUP1 REVERT JUMPDEST POP PUSH2 0x166C DUP6 DUP3 DUP7 ADD PUSH2 0x13E5 JUMP JUMPDEST SWAP2 POP POP SWAP3 POP SWAP3 SWAP1 POP JUMP JUMPDEST PUSH1 0x0 PUSH1 0x20 DUP3 DUP5 SUB SLT ISZERO PUSH2 0x1688 JUMPI PUSH1 0x0 DUP1 REVERT JUMPDEST POP CALLDATALOAD SWAP2 SWAP1 POP JUMP JUMPDEST PUSH1 0x0 PUSH1 0x20 DUP3 DUP5 SUB SLT ISZERO PUSH2 0x16A1 JUMPI PUSH1 0x0 DUP1 REVERT JUMPDEST POP MLOAD SWAP2 SWAP1 POP JUMP JUMPDEST PUSH1 0x1 PUSH1 0x1 PUSH1 0xA0 SHL SUB DUP5 AND DUP2 MSTORE PUSH1 0x20 DUP2 ADD DUP4 SWAP1 MSTORE PUSH1 0x0 PUSH1 0x3 DUP4 LT PUSH2 0x16DB JUMPI PUSH4 0x4E487B71 PUSH1 0xE0 SHL PUSH1 0x0 MSTORE PUSH1 0x21 PUSH1 0x4 MSTORE PUSH1 0x24 PUSH1 0x0 REVERT JUMPDEST DUP3 PUSH1 0x40 DUP4 ADD MSTORE PUSH1 0x80 PUSH1 0x60 DUP4 ADD MSTORE PUSH1 0x7 PUSH1 0x80 DUP4 ADD MSTORE PUSH7 0x20BAB1BA34B7B7 PUSH1 0xC9 SHL PUSH1 0xA0 DUP4 ADD MSTORE PUSH1 0xC0 DUP3 ADD SWAP1 POP SWAP5 SWAP4 POP POP POP POP JUMP JUMPDEST PUSH1 0x40 DUP1 DUP3 MSTORE DUP4 MLOAD SWAP1 DUP3 ADD DUP2 SWAP1 MSTORE PUSH1 0x0 SWAP1 PUSH1 0x20 SWAP1 PUSH1 0x60 DUP5 ADD SWAP1 DUP3 DUP8 ADD DUP5 JUMPDEST DUP3 DUP2 LT ISZERO PUSH2 0x1746 JUMPI DUP2 MLOAD DUP5 MSTORE SWAP3 DUP5 ADD SWAP3 SWAP1 DUP5 ADD SWAP1 PUSH1 0x1 ADD PUSH2 0x172A JUMP JUMPDEST POP POP POP PUSH1 0x1 PUSH1 0x1 PUSH1 0xA0 SHL SUB SWAP5 SWAP1 SWAP5 AND SWAP3 ADD SWAP2 SWAP1 SWAP2 MSTORE POP SWAP2 SWAP1 POP JUMP JUMPDEST PUSH1 0x40 MLOAD PUSH1 0x1F DUP3 ADD PUSH1 0x1F NOT AND DUP2 ADD PUSH8 0xFFFFFFFFFFFFFFFF DUP2 GT DUP3 DUP3 LT OR ISZERO PUSH2 0x178A JUMPI PUSH2 0x178A PUSH2 0x1865 JUMP JUMPDEST PUSH1 0x40 MSTORE SWAP2 SWAP1 POP JUMP JUMPDEST PUSH1 0x0 PUSH8 0xFFFFFFFFFFFFFFFF DUP3 GT ISZERO PUSH2 0x17AC JUMPI PUSH2 0x17AC PUSH2 0x1865 JUMP JUMPDEST POP PUSH1 0x1F ADD PUSH1 0x1F NOT AND PUSH1 0x20 ADD SWAP1 JUMP JUMPDEST PUSH1 0x0 DUP3 NOT DUP3 GT ISZERO PUSH2 0x17CD JUMPI PUSH2 0x17CD PUSH2 0x1823 JUMP JUMPDEST POP ADD SWAP1 JUMP JUMPDEST PUSH1 0x0 DUP2 PUSH1 0x0 NOT DIV DUP4 GT DUP3 ISZERO ISZERO AND ISZERO PUSH2 0x17EC JUMPI PUSH2 0x17EC PUSH2 0x1823 JUMP JUMPDEST POP MUL SWAP1 JUMP JUMPDEST PUSH1 0x0 DUP3 DUP3 LT ISZERO PUSH2 0x1803 JUMPI PUSH2 0x1803 PUSH2 0x1823 JUMP JUMPDEST POP SUB SWAP1 JUMP JUMPDEST PUSH1 0x0 PUSH1 0x0 NOT DUP3 EQ ISZERO PUSH2 0x181C JUMPI PUSH2 0x181C PUSH2 0x1823 JUMP JUMPDEST POP PUSH1 0x1 ADD SWAP1 JUMP JUMPDEST PUSH4 0x4E487B71 PUSH1 0xE0 SHL PUSH1 0x0 MSTORE PUSH1 0x11 PUSH1 0x4 MSTORE PUSH1 0x24 PUSH1 0x0 REVERT JUMPDEST PUSH4 0x4E487B71 PUSH1 0xE0 SHL PUSH1 0x0 MSTORE PUSH1 0x21 PUSH1 0x4 MSTORE PUSH1 0x24 PUSH1 0x0 REVERT JUMPDEST PUSH4 0x4E487B71 PUSH1 0xE0 SHL PUSH1 0x0 MSTORE PUSH1 0x32 PUSH1 0x4 MSTORE PUSH1 0x24 PUSH1 0x0 REVERT JUMPDEST PUSH4 0x4E487B71 PUSH1 0xE0 SHL PUSH1 0x0 MSTORE PUSH1 0x41 PUSH1 0x4 MSTORE PUSH1 0x24 PUSH1 0x0 REVERT JUMPDEST PUSH1 0x1 PUSH1 0x1 PUSH1 0xA0 SHL SUB DUP2 AND DUP2 EQ PUSH2 0x1890 JUMPI PUSH1 0x0 DUP1 REVERT JUMPDEST POP JUMP INVALID LOG2 PUSH5 0x6970667358 0x22 SLT KECCAK256 MSIZE 0xCE 0xD8 0xC1 CALLDATALOAD SIGNEXTEND 0x1F 0xC1 0xD4 0xF8 0xCF 0xD9 SELFBALANCE BLOCKHASH SWAP9 PUSH24 0x60BF6F33BF7DFB6152A774142BC44ADF64736F6C63430008 SDIV STOP CALLER "
				},
				"gasEstimates": {
					"creation": {
						"codeDepositCost": "1269000",
						"executionCost": "1322",
						"totalCost": "1270322"
					},
					"external": {
						"EntireVaultNft(uint256)": "4608",
						"EntireVaultPrice()": "2308",
						"auctionEnd()": "2352",
						"auctionLength()": "2396",
						"bid()": "infinite",
						"end()": "infinite",
						"getSettings()": "infinite",
						"getVault()": "infinite",
						"getVaultAddress()": "infinite",
						"initialize()": "72971",
						"initializer()": "2416",
						"livePrice()": "2329",
						"router()": "2425",
						"setPrice(uint256)": "infinite",
						"singleNftPrice(address,uint256)": "2617",
						"start()": "infinite",
						"updateAuctionLength(uint256)": "infinite",
						"utilCompareInternal(string,string)": "infinite",
						"vault()": "2447",
						"winning()": "2426"
					}
				},
				"methodIdentifiers": {
					"EntireVaultNft(uint256)": "d80e069c",
					"EntireVaultPrice()": "022bb886",
					"auctionEnd()": "2a24f46c",
					"auctionLength()": "325c25a2",
					"bid()": "1998aeef",
					"end()": "efbe1c1c",
					"getSettings()": "85b4bb53",
					"getVault()": "8d928af8",
					"getVaultAddress()": "65cacaa4",
					"initialize()": "8129fc1c",
					"initializer()": "9ce110d7",
					"livePrice()": "6da84e6c",
					"router()": "f887ea40",
					"setPrice(uint256)": "91b7f5ed",
					"singleNftPrice(address,uint256)": "cf3bfa24",
					"start()": "be9a6555",
					"updateAuctionLength(uint256)": "2bf33bd9",
					"utilCompareInternal(string,string)": "8ddbeb07",
					"vault()": "fbfa77cf",
					"winning()": "853a1b90"
				}
			},
			"storageLayout": {
				"storage": [
					{
						"astId": 335,
						"contract": "contracts/Template/Istanbul10/logic/Auction.sol:Auction",
						"label": "router",
						"offset": 0,
						"slot": "0",
						"type": "t_address"
					},
					{
						"astId": 337,
						"contract": "contracts/Template/Istanbul10/logic/Auction.sol:Auction",
						"label": "vault",
						"offset": 0,
						"slot": "1",
						"type": "t_address"
					},
					{
						"astId": 339,
						"contract": "contracts/Template/Istanbul10/logic/Auction.sol:Auction",
						"label": "initializer",
						"offset": 20,
						"slot": "1",
						"type": "t_bool"
					},
					{
						"astId": 341,
						"contract": "contracts/Template/Istanbul10/logic/Auction.sol:Auction",
						"label": "EntireVaultPrice",
						"offset": 0,
						"slot": "2",
						"type": "t_uint256"
					},
					{
						"astId": 343,
						"contract": "contracts/Template/Istanbul10/logic/Auction.sol:Auction",
						"label": "auctionLength",
						"offset": 0,
						"slot": "3",
						"type": "t_uint256"
					},
					{
						"astId": 349,
						"contract": "contracts/Template/Istanbul10/logic/Auction.sol:Auction",
						"label": "singleNftPrice",
						"offset": 0,
						"slot": "4",
						"type": "t_mapping(t_address,t_mapping(t_uint256,t_uint256))"
					},
					{
						"astId": 351,
						"contract": "contracts/Template/Istanbul10/logic/Auction.sol:Auction",
						"label": "auctionEnd",
						"offset": 0,
						"slot": "5",
						"type": "t_uint256"
					},
					{
						"astId": 353,
						"contract": "contracts/Template/Istanbul10/logic/Auction.sol:Auction",
						"label": "livePrice",
						"offset": 0,
						"slot": "6",
						"type": "t_uint256"
					},
					{
						"astId": 355,
						"contract": "contracts/Template/Istanbul10/logic/Auction.sol:Auction",
						"label": "winning",
						"offset": 0,
						"slot": "7",
						"type": "t_address_payable"
					},
					{
						"astId": 362,
						"contract": "contracts/Template/Istanbul10/logic/Auction.sol:Auction",
						"label": "EntireVaultNft",
						"offset": 0,
						"slot": "8",
						"type": "t_array(t_uint256)dyn_storage"
					}
				],
				"types": {
					"t_address": {
						"encoding": "inplace",
						"label": "address",
						"numberOfBytes": "20"
					},
					"t_address_payable": {
						"encoding": "inplace",
						"label": "address payable",
						"numberOfBytes": "20"
					},
					"t_array(t_uint256)dyn_storage": {
						"base": "t_uint256",
						"encoding": "dynamic_array",
						"label": "uint256[]",
						"numberOfBytes": "32"
					},
					"t_bool": {
						"encoding": "inplace",
						"label": "bool",
						"numberOfBytes": "1"
					},
					"t_mapping(t_address,t_mapping(t_uint256,t_uint256))": {
						"encoding": "mapping",
						"key": "t_address",
						"label": "mapping(address => mapping(uint256 => uint256))",
						"numberOfBytes": "32",
						"value": "t_mapping(t_uint256,t_uint256)"
					},
					"t_mapping(t_uint256,t_uint256)": {
						"encoding": "mapping",
						"key": "t_uint256",
						"label": "mapping(uint256 => uint256)",
						"numberOfBytes": "32",
						"value": "t_uint256"
					},
					"t_uint256": {
						"encoding": "inplace",
						"label": "uint256",
						"numberOfBytes": "32"
					}
				}
			},
			"userdoc": {
				"events": {
					"Bid(address,uint256)": {
						"notice": "An event emitted when a bid is made"
					},
					"EntirePrice(uint256)": {
						"notice": "An event emitted when a user updates their price"
					},
					"Start(address,uint256)": {
						"notice": "An event emitted when an auction starts"
					},
					"UpdateAuctionLength(uint256)": {
						"notice": "An event emitted when update auction length"
					},
					"Won(address,uint256)": {
						"notice": "An event emitted when an auction is won"
					}
				},
				"kind": "user",
				"methods": {
					"bid()": {
						"notice": "an external function to bid on purchasing the vaults NFT. The msg.value is the bid amount"
					},
					"end()": {
						"notice": "an external function to end an auction after the timer has run out"
					},
					"start()": {
						"notice": "kick off an auction. Must send reservePrice in ETH"
					}
				},
				"version": 1
			}
		}
	}
}