{
	"contracts/Template/Istanbul10/logic/Auction.sol": {
		"Auction": {
			"abi": [
				{
					"anonymous": false,
					"inputs": [
						{
							"indexed": true,
							"internalType": "address",
							"name": "buyer",
							"type": "address"
						},
						{
							"indexed": false,
							"internalType": "uint256",
							"name": "price",
							"type": "uint256"
						}
					],
					"name": "Bid",
					"type": "event"
				},
				{
					"anonymous": false,
					"inputs": [
						{
							"indexed": false,
							"internalType": "uint256",
							"name": "price",
							"type": "uint256"
						}
					],
					"name": "EntirePrice",
					"type": "event"
				},
				{
					"anonymous": false,
					"inputs": [
						{
							"indexed": true,
							"internalType": "address",
							"name": "buyer",
							"type": "address"
						},
						{
							"indexed": false,
							"internalType": "uint256",
							"name": "price",
							"type": "uint256"
						}
					],
					"name": "Start",
					"type": "event"
				},
				{
					"anonymous": false,
					"inputs": [
						{
							"indexed": false,
							"internalType": "uint256",
							"name": "length",
							"type": "uint256"
						}
					],
					"name": "UpdateAuctionLength",
					"type": "event"
				},
				{
					"anonymous": false,
					"inputs": [
						{
							"indexed": true,
							"internalType": "address",
							"name": "buyer",
							"type": "address"
						},
						{
							"indexed": false,
							"internalType": "uint256",
							"name": "price",
							"type": "uint256"
						}
					],
					"name": "Won",
					"type": "event"
				},
				{
					"inputs": [],
					"name": "auctionEnd",
					"outputs": [
						{
							"internalType": "uint256",
							"name": "",
							"type": "uint256"
						}
					],
					"stateMutability": "view",
					"type": "function"
				},
				{
					"inputs": [],
					"name": "auctionLength",
					"outputs": [
						{
							"internalType": "uint256",
							"name": "",
							"type": "uint256"
						}
					],
					"stateMutability": "view",
					"type": "function"
				},
				{
					"inputs": [],
					"name": "bid",
					"outputs": [],
					"stateMutability": "payable",
					"type": "function"
				},
				{
					"inputs": [],
					"name": "end",
					"outputs": [],
					"stateMutability": "nonpayable",
					"type": "function"
				},
				{
					"inputs": [],
					"name": "entireVaultPrice",
					"outputs": [
						{
							"internalType": "uint256",
							"name": "",
							"type": "uint256"
						}
					],
					"stateMutability": "view",
					"type": "function"
				},
				{
					"inputs": [],
					"name": "getSettings",
					"outputs": [
						{
							"internalType": "contract ISettings",
							"name": "",
							"type": "address"
						}
					],
					"stateMutability": "view",
					"type": "function"
				},
				{
					"inputs": [],
					"name": "getVault",
					"outputs": [
						{
							"internalType": "contract IVault",
							"name": "",
							"type": "address"
						}
					],
					"stateMutability": "view",
					"type": "function"
				},
				{
					"inputs": [],
					"name": "getVaultAddress",
					"outputs": [
						{
							"internalType": "address",
							"name": "",
							"type": "address"
						}
					],
					"stateMutability": "view",
					"type": "function"
				},
				{
					"inputs": [],
					"name": "initialize",
					"outputs": [],
					"stateMutability": "nonpayable",
					"type": "function"
				},
				{
					"inputs": [],
					"name": "initializer",
					"outputs": [
						{
							"internalType": "bool",
							"name": "",
							"type": "bool"
						}
					],
					"stateMutability": "view",
					"type": "function"
				},
				{
					"inputs": [],
					"name": "livePrice",
					"outputs": [
						{
							"internalType": "uint256",
							"name": "",
							"type": "uint256"
						}
					],
					"stateMutability": "view",
					"type": "function"
				},
				{
					"inputs": [],
					"name": "router",
					"outputs": [
						{
							"internalType": "address",
							"name": "",
							"type": "address"
						}
					],
					"stateMutability": "view",
					"type": "function"
				},
				{
					"inputs": [
						{
							"internalType": "uint256",
							"name": "_price",
							"type": "uint256"
						}
					],
					"name": "setPrice",
					"outputs": [],
					"stateMutability": "nonpayable",
					"type": "function"
				},
				{
					"inputs": [],
					"name": "start",
					"outputs": [],
					"stateMutability": "payable",
					"type": "function"
				},
				{
					"inputs": [
						{
							"internalType": "uint256",
							"name": "_length",
							"type": "uint256"
						}
					],
					"name": "updateAuctionLength",
					"outputs": [],
					"stateMutability": "nonpayable",
					"type": "function"
				},
				{
					"inputs": [
						{
							"internalType": "string",
							"name": "a",
							"type": "string"
						},
						{
							"internalType": "string",
							"name": "b",
							"type": "string"
						}
					],
					"name": "utilCompareInternal",
					"outputs": [
						{
							"internalType": "bool",
							"name": "",
							"type": "bool"
						}
					],
					"stateMutability": "pure",
					"type": "function"
				},
				{
					"inputs": [],
					"name": "winning",
					"outputs": [
						{
							"internalType": "address payable",
							"name": "",
							"type": "address"
						}
					],
					"stateMutability": "view",
					"type": "function"
				}
			],
			"devdoc": {
				"kind": "dev",
				"methods": {},
				"version": 1
			},
			"evm": {
				"assembly": "    /* \"contracts/Template/Istanbul10/logic/Auction.sol\":374:4569  contract Auction is IAuction, AuctionData {\r... */\n  mstore(0x40, 0x80)\n  callvalue\n  dup1\n  iszero\n  tag_1\n  jumpi\n  0x00\n  dup1\n  revert\ntag_1:\n  pop\n  dataSize(sub_0)\n  dup1\n  dataOffset(sub_0)\n  0x00\n  codecopy\n  0x00\n  return\nstop\n\nsub_0: assembly {\n        /* \"contracts/Template/Istanbul10/logic/Auction.sol\":374:4569  contract Auction is IAuction, AuctionData {\r... */\n      mstore(0x40, 0x80)\n      jumpi(tag_1, lt(calldatasize, 0x04))\n      shr(0xe0, calldataload(0x00))\n      dup1\n      0x85b4bb53\n      gt\n      tag_19\n      jumpi\n      dup1\n      0x9ce110d7\n      gt\n      tag_20\n      jumpi\n      dup1\n      0x9ce110d7\n      eq\n      tag_14\n      jumpi\n      dup1\n      0xbbc90a92\n      eq\n      tag_15\n      jumpi\n      dup1\n      0xbe9a6555\n      eq\n      tag_16\n      jumpi\n      dup1\n      0xefbe1c1c\n      eq\n      tag_17\n      jumpi\n      dup1\n      0xf887ea40\n      eq\n      tag_18\n      jumpi\n      jump(tag_1)\n    tag_20:\n      dup1\n      0x85b4bb53\n      eq\n      tag_10\n      jumpi\n      dup1\n      0x8d928af8\n      eq\n      tag_11\n      jumpi\n      dup1\n      0x8ddbeb07\n      eq\n      tag_12\n      jumpi\n      dup1\n      0x91b7f5ed\n      eq\n      tag_13\n      jumpi\n      jump(tag_1)\n    tag_19:\n      dup1\n      0x65cacaa4\n      gt\n      tag_21\n      jumpi\n      dup1\n      0x65cacaa4\n      eq\n      tag_6\n      jumpi\n      dup1\n      0x6da84e6c\n      eq\n      tag_7\n      jumpi\n      dup1\n      0x8129fc1c\n      eq\n      tag_8\n      jumpi\n      dup1\n      0x853a1b90\n      eq\n      tag_9\n      jumpi\n      jump(tag_1)\n    tag_21:\n      dup1\n      0x1998aeef\n      eq\n      tag_2\n      jumpi\n      dup1\n      0x2a24f46c\n      eq\n      tag_3\n      jumpi\n      dup1\n      0x2bf33bd9\n      eq\n      tag_4\n      jumpi\n      dup1\n      0x325c25a2\n      eq\n      tag_5\n      jumpi\n    tag_1:\n      0x00\n      dup1\n      revert\n        /* \"contracts/Template/Istanbul10/logic/Auction.sol\":2251:3169  function bid() override external payable {\r... */\n    tag_2:\n      tag_22\n      tag_23\n      jump\t// in\n    tag_22:\n      stop\n        /* \"contracts/Template/Istanbul10/data/AuctionData.sol\":504:538  uint256 override public auctionEnd */\n    tag_3:\n      callvalue\n      dup1\n      iszero\n      tag_24\n      jumpi\n      0x00\n      dup1\n      revert\n    tag_24:\n      pop\n      tag_25\n      tag_26\n      jump\t// in\n    tag_25:\n      mload(0x40)\n      tag_27\n      swap2\n      swap1\n      tag_28\n      jump\t// in\n    tag_27:\n      mload(0x40)\n      dup1\n      swap2\n      sub\n      swap1\n      return\n        /* \"contracts/Template/Istanbul10/logic/Auction.sol\":894:1382  function updateAuctionLength(uint256 _length) override external {\r... */\n    tag_4:\n      callvalue\n      dup1\n      iszero\n      tag_29\n      jumpi\n      0x00\n      dup1\n      revert\n    tag_29:\n      pop\n      tag_30\n      0x04\n      dup1\n      calldatasize\n      sub\n      dup2\n      add\n      swap1\n      tag_31\n      swap2\n      swap1\n      tag_32\n      jump\t// in\n    tag_31:\n      tag_33\n      jump\t// in\n    tag_30:\n      stop\n        /* \"contracts/Template/Istanbul10/data/AuctionData.sol\":458:495  uint256 override public auctionLength */\n    tag_5:\n      callvalue\n      dup1\n      iszero\n      tag_34\n      jumpi\n      0x00\n      dup1\n      revert\n    tag_34:\n      pop\n      tag_35\n      tag_36\n      jump\t// in\n    tag_35:\n      mload(0x40)\n      tag_37\n      swap2\n      swap1\n      tag_28\n      jump\t// in\n    tag_37:\n      mload(0x40)\n      dup1\n      swap2\n      sub\n      swap1\n      return\n        /* \"contracts/Template/Istanbul10/logic/Auction.sol\":4217:4325  function getVaultAddress() public view returns(address){\r... */\n    tag_6:\n      callvalue\n      dup1\n      iszero\n      tag_38\n      jumpi\n      0x00\n      dup1\n      revert\n    tag_38:\n      pop\n      tag_39\n      tag_40\n      jump\t// in\n    tag_39:\n      mload(0x40)\n      tag_41\n      swap2\n      swap1\n      tag_42\n      jump\t// in\n    tag_41:\n      mload(0x40)\n      dup1\n      swap2\n      sub\n      swap1\n      return\n        /* \"contracts/Template/Istanbul10/data/AuctionData.sol\":548:581  uint256 override public livePrice */\n    tag_7:\n      callvalue\n      dup1\n      iszero\n      tag_43\n      jumpi\n      0x00\n      dup1\n      revert\n    tag_43:\n      pop\n      tag_44\n      tag_45\n      jump\t// in\n    tag_44:\n      mload(0x40)\n      tag_46\n      swap2\n      swap1\n      tag_28\n      jump\t// in\n    tag_46:\n      mload(0x40)\n      dup1\n      swap2\n      sub\n      swap1\n      return\n        /* \"contracts/Template/Istanbul10/logic/Auction.sol\":429:646  function initialize() override public {\r... */\n    tag_8:\n      callvalue\n      dup1\n      iszero\n      tag_47\n      jumpi\n      0x00\n      dup1\n      revert\n    tag_47:\n      pop\n      tag_48\n      tag_49\n      jump\t// in\n    tag_48:\n      stop\n        /* \"contracts/Template/Istanbul10/data/AuctionData.sol\":590:629  address payable override public winning */\n    tag_9:\n      callvalue\n      dup1\n      iszero\n      tag_50\n      jumpi\n      0x00\n      dup1\n      revert\n    tag_50:\n      pop\n      tag_51\n      tag_52\n      jump\t// in\n    tag_51:\n      mload(0x40)\n      tag_53\n      swap2\n      swap1\n      tag_54\n      jump\t// in\n    tag_53:\n      mload(0x40)\n      dup1\n      swap2\n      sub\n      swap1\n      return\n        /* \"contracts/Template/Istanbul10/logic/Auction.sol\":4439:4560  function getSettings() public view returns(ISettings) {\r... */\n    tag_10:\n      callvalue\n      dup1\n      iszero\n      tag_55\n      jumpi\n      0x00\n      dup1\n      revert\n    tag_55:\n      pop\n      tag_56\n      tag_57\n      jump\t// in\n    tag_56:\n      mload(0x40)\n      tag_58\n      swap2\n      swap1\n      tag_59\n      jump\t// in\n    tag_58:\n      mload(0x40)\n      dup1\n      swap2\n      sub\n      swap1\n      return\n        /* \"contracts/Template/Istanbul10/logic/Auction.sol\":4333:4431  function getVault() public view returns(IVault){\r... */\n    tag_11:\n      callvalue\n      dup1\n      iszero\n      tag_60\n      jumpi\n      0x00\n      dup1\n      revert\n    tag_60:\n      pop\n      tag_61\n      tag_62\n      jump\t// in\n    tag_61:\n      mload(0x40)\n      tag_63\n      swap2\n      swap1\n      tag_64\n      jump\t// in\n    tag_63:\n      mload(0x40)\n      dup1\n      swap2\n      sub\n      swap1\n      return\n        /* \"contracts/Template/Istanbul10/logic/Auction.sol\":3842:4209  function utilCompareInternal(string memory a, string memory b) public pure returns (bool) {\r... */\n    tag_12:\n      callvalue\n      dup1\n      iszero\n      tag_65\n      jumpi\n      0x00\n      dup1\n      revert\n    tag_65:\n      pop\n      tag_66\n      0x04\n      dup1\n      calldatasize\n      sub\n      dup2\n      add\n      swap1\n      tag_67\n      swap2\n      swap1\n      tag_68\n      jump\t// in\n    tag_67:\n      tag_69\n      jump\t// in\n    tag_66:\n      mload(0x40)\n      tag_70\n      swap2\n      swap1\n      tag_71\n      jump\t// in\n    tag_70:\n      mload(0x40)\n      dup1\n      swap2\n      sub\n      swap1\n      return\n        /* \"contracts/Template/Istanbul10/logic/Auction.sol\":654:882  function setPrice(uint256 _price) override public {\r... */\n    tag_13:\n      callvalue\n      dup1\n      iszero\n      tag_72\n      jumpi\n      0x00\n      dup1\n      revert\n    tag_72:\n      pop\n      tag_73\n      0x04\n      dup1\n      calldatasize\n      sub\n      dup2\n      add\n      swap1\n      tag_74\n      swap2\n      swap1\n      tag_32\n      jump\t// in\n    tag_74:\n      tag_75\n      jump\t// in\n    tag_73:\n      stop\n        /* \"contracts/Template/Istanbul10/data/AuctionData.sol\":307:339  bool override public initializer */\n    tag_14:\n      callvalue\n      dup1\n      iszero\n      tag_76\n      jumpi\n      0x00\n      dup1\n      revert\n    tag_76:\n      pop\n      tag_77\n      tag_78\n      jump\t// in\n    tag_77:\n      mload(0x40)\n      tag_79\n      swap2\n      swap1\n      tag_71\n      jump\t// in\n    tag_79:\n      mload(0x40)\n      dup1\n      swap2\n      sub\n      swap1\n      return\n        /* \"contracts/Template/Istanbul10/data/AuctionData.sol\":409:449  uint256 override public entireVaultPrice */\n    tag_15:\n      callvalue\n      dup1\n      iszero\n      tag_80\n      jumpi\n      0x00\n      dup1\n      revert\n    tag_80:\n      pop\n      tag_81\n      tag_82\n      jump\t// in\n    tag_81:\n      mload(0x40)\n      tag_83\n      swap2\n      swap1\n      tag_28\n      jump\t// in\n    tag_83:\n      mload(0x40)\n      dup1\n      swap2\n      sub\n      swap1\n      return\n        /* \"contracts/Template/Istanbul10/logic/Auction.sol\":1464:2136  function start() override external payable {\r... */\n    tag_16:\n      tag_84\n      tag_85\n      jump\t// in\n    tag_84:\n      stop\n        /* \"contracts/Template/Istanbul10/logic/Auction.sol\":3261:3832  function end() override external {\r... */\n    tag_17:\n      callvalue\n      dup1\n      iszero\n      tag_86\n      jumpi\n      0x00\n      dup1\n      revert\n    tag_86:\n      pop\n      tag_87\n      tag_88\n      jump\t// in\n    tag_87:\n      stop\n        /* \"contracts/Template/Istanbul10/data/AuctionData.sol\":208:238  address override public router */\n    tag_18:\n      callvalue\n      dup1\n      iszero\n      tag_89\n      jumpi\n      0x00\n      dup1\n      revert\n    tag_89:\n      pop\n      tag_90\n      tag_91\n      jump\t// in\n    tag_90:\n      mload(0x40)\n      tag_92\n      swap2\n      swap1\n      tag_42\n      jump\t// in\n    tag_92:\n      mload(0x40)\n      dup1\n      swap2\n      sub\n      swap1\n      return\n        /* \"contracts/Template/Istanbul10/logic/Auction.sol\":2251:3169  function bid() override external payable {\r... */\n    tag_23:\n        /* \"contracts/Template/Istanbul10/logic/Auction.sol\":2347:2370  State.NftState.occupied */\n      0x01\n        /* \"contracts/Template/Istanbul10/logic/Auction.sol\":2311:2370  getVault().getEntireVaultState() == State.NftState.occupied */\n      0x02\n      dup2\n      gt\n      iszero\n      tag_94\n      jumpi\n      mstore(0x00, 0x4e487b7100000000000000000000000000000000000000000000000000000000)\n      mstore(0x04, 0x21)\n      revert(0x00, 0x24)\n    tag_94:\n        /* \"contracts/Template/Istanbul10/logic/Auction.sol\":2311:2321  getVault() */\n      tag_95\n        /* \"contracts/Template/Istanbul10/logic/Auction.sol\":2311:2319  getVault */\n      tag_62\n        /* \"contracts/Template/Istanbul10/logic/Auction.sol\":2311:2321  getVault() */\n      jump\t// in\n    tag_95:\n        /* \"contracts/Template/Istanbul10/logic/Auction.sol\":2311:2341  getVault().getEntireVaultState */\n      0xffffffffffffffffffffffffffffffffffffffff\n      and\n      0xd58bfa9d\n        /* \"contracts/Template/Istanbul10/logic/Auction.sol\":2311:2343  getVault().getEntireVaultState() */\n      mload(0x40)\n      dup2\n      0xffffffff\n      and\n      0xe0\n      shl\n      dup2\n      mstore\n      0x04\n      add\n      0x20\n      mload(0x40)\n      dup1\n      dup4\n      sub\n      dup2\n      dup7\n      dup1\n      extcodesize\n      iszero\n      dup1\n      iszero\n      tag_96\n      jumpi\n      0x00\n      dup1\n      revert\n    tag_96:\n      pop\n      gas\n      staticcall\n      iszero\n      dup1\n      iszero\n      tag_98\n      jumpi\n      returndatasize\n      0x00\n      dup1\n      returndatacopy\n      revert(0x00, returndatasize)\n    tag_98:\n      pop\n      pop\n      pop\n      pop\n      mload(0x40)\n      returndatasize\n      not(0x1f)\n      0x1f\n      dup3\n      add\n      and\n      dup3\n      add\n      dup1\n      0x40\n      mstore\n      pop\n      dup2\n      add\n      swap1\n      tag_99\n      swap2\n      swap1\n      tag_100\n      jump\t// in\n    tag_99:\n        /* \"contracts/Template/Istanbul10/logic/Auction.sol\":2311:2370  getVault().getEntireVaultState() == State.NftState.occupied */\n      0x02\n      dup2\n      gt\n      iszero\n      tag_101\n      jumpi\n      mstore(0x00, 0x4e487b7100000000000000000000000000000000000000000000000000000000)\n      mstore(0x04, 0x21)\n      revert(0x00, 0x24)\n    tag_101:\n      eq\n        /* \"contracts/Template/Istanbul10/logic/Auction.sol\":2311:2440  getVault().getEntireVaultState() == State.NftState.occupied && utilCompareInternal(getVault().getEntireVaultActivity(),\"Auction\") */\n      dup1\n      iszero\n      tag_102\n      jumpi\n      pop\n        /* \"contracts/Template/Istanbul10/logic/Auction.sol\":2374:2440  utilCompareInternal(getVault().getEntireVaultActivity(),\"Auction\") */\n      tag_103\n        /* \"contracts/Template/Istanbul10/logic/Auction.sol\":2394:2404  getVault() */\n      tag_104\n        /* \"contracts/Template/Istanbul10/logic/Auction.sol\":2394:2402  getVault */\n      tag_62\n        /* \"contracts/Template/Istanbul10/logic/Auction.sol\":2394:2404  getVault() */\n      jump\t// in\n    tag_104:\n        /* \"contracts/Template/Istanbul10/logic/Auction.sol\":2394:2427  getVault().getEntireVaultActivity */\n      0xffffffffffffffffffffffffffffffffffffffff\n      and\n      0x5ccb53df\n        /* \"contracts/Template/Istanbul10/logic/Auction.sol\":2394:2429  getVault().getEntireVaultActivity() */\n      mload(0x40)\n      dup2\n      0xffffffff\n      and\n      0xe0\n      shl\n      dup2\n      mstore\n      0x04\n      add\n      0x00\n      mload(0x40)\n      dup1\n      dup4\n      sub\n      dup2\n      dup7\n      dup1\n      extcodesize\n      iszero\n      dup1\n      iszero\n      tag_105\n      jumpi\n      0x00\n      dup1\n      revert\n    tag_105:\n      pop\n      gas\n      staticcall\n      iszero\n      dup1\n      iszero\n      tag_107\n      jumpi\n      returndatasize\n      0x00\n      dup1\n      returndatacopy\n      revert(0x00, returndatasize)\n    tag_107:\n      pop\n      pop\n      pop\n      pop\n      mload(0x40)\n      returndatasize\n      0x00\n      dup3\n      returndatacopy\n      returndatasize\n      not(0x1f)\n      0x1f\n      dup3\n      add\n      and\n      dup3\n      add\n      dup1\n      0x40\n      mstore\n      pop\n      dup2\n      add\n      swap1\n      tag_108\n      swap2\n      swap1\n      tag_109\n      jump\t// in\n    tag_108:\n        /* \"contracts/Template/Istanbul10/logic/Auction.sol\":2374:2440  utilCompareInternal(getVault().getEntireVaultActivity(),\"Auction\") */\n      mload(0x40)\n      dup1\n      0x40\n      add\n      0x40\n      mstore\n      dup1\n      0x07\n      dup2\n      mstore\n      0x20\n      add\n      0x41756374696f6e00000000000000000000000000000000000000000000000000\n      dup2\n      mstore\n      pop\n        /* \"contracts/Template/Istanbul10/logic/Auction.sol\":2374:2393  utilCompareInternal */\n      tag_69\n        /* \"contracts/Template/Istanbul10/logic/Auction.sol\":2374:2440  utilCompareInternal(getVault().getEntireVaultActivity(),\"Auction\") */\n      jump\t// in\n    tag_103:\n        /* \"contracts/Template/Istanbul10/logic/Auction.sol\":2311:2440  getVault().getEntireVaultState() == State.NftState.occupied && utilCompareInternal(getVault().getEntireVaultActivity(),\"Auction\") */\n    tag_102:\n        /* \"contracts/Template/Istanbul10/logic/Auction.sol\":2303:2471  require(getVault().getEntireVaultState() == State.NftState.occupied && utilCompareInternal(getVault().getEntireVaultActivity(),\"Auction\"), \"bid :: auction is not live\") */\n      tag_110\n      jumpi\n      mload(0x40)\n      0x08c379a000000000000000000000000000000000000000000000000000000000\n      dup2\n      mstore\n      0x04\n      add\n      tag_111\n      swap1\n      tag_112\n      jump\t// in\n    tag_111:\n      mload(0x40)\n      dup1\n      swap2\n      sub\n      swap1\n      revert\n    tag_110:\n        /* \"contracts/Template/Istanbul10/logic/Auction.sol\":2486:2502  uint256 increase */\n      0x00\n        /* \"contracts/Template/Istanbul10/logic/Auction.sol\":2538:2542  1000 */\n      0x03e8\n        /* \"contracts/Template/Istanbul10/logic/Auction.sol\":2505:2518  getSettings() */\n      tag_113\n        /* \"contracts/Template/Istanbul10/logic/Auction.sol\":2505:2516  getSettings */\n      tag_57\n        /* \"contracts/Template/Istanbul10/logic/Auction.sol\":2505:2518  getSettings() */\n      jump\t// in\n    tag_113:\n        /* \"contracts/Template/Istanbul10/logic/Auction.sol\":2505:2533  getSettings().minBidIncrease */\n      0xffffffffffffffffffffffffffffffffffffffff\n      and\n      0x7c513c0f\n        /* \"contracts/Template/Istanbul10/logic/Auction.sol\":2505:2535  getSettings().minBidIncrease() */\n      mload(0x40)\n      dup2\n      0xffffffff\n      and\n      0xe0\n      shl\n      dup2\n      mstore\n      0x04\n      add\n      0x20\n      mload(0x40)\n      dup1\n      dup4\n      sub\n      dup2\n      0x00\n      dup8\n      dup1\n      extcodesize\n      iszero\n      dup1\n      iszero\n      tag_114\n      jumpi\n      0x00\n      dup1\n      revert\n    tag_114:\n      pop\n      gas\n      call\n      iszero\n      dup1\n      iszero\n      tag_116\n      jumpi\n      returndatasize\n      0x00\n      dup1\n      returndatacopy\n      revert(0x00, returndatasize)\n    tag_116:\n      pop\n      pop\n      pop\n      pop\n      mload(0x40)\n      returndatasize\n      not(0x1f)\n      0x1f\n      dup3\n      add\n      and\n      dup3\n      add\n      dup1\n      0x40\n      mstore\n      pop\n      dup2\n      add\n      swap1\n      tag_117\n      swap2\n      swap1\n      tag_118\n      jump\t// in\n    tag_117:\n        /* \"contracts/Template/Istanbul10/logic/Auction.sol\":2505:2542  getSettings().minBidIncrease() + 1000 */\n      tag_119\n      swap2\n      swap1\n      tag_120\n      jump\t// in\n    tag_119:\n        /* \"contracts/Template/Istanbul10/logic/Auction.sol\":2486:2542  uint256 increase = getSettings().minBidIncrease() + 1000 */\n      swap1\n      pop\n        /* \"contracts/Template/Istanbul10/logic/Auction.sol\":2600:2608  increase */\n      dup1\n        /* \"contracts/Template/Istanbul10/logic/Auction.sol\":2588:2597  livePrice */\n      sload(0x04)\n        /* \"contracts/Template/Istanbul10/logic/Auction.sol\":2588:2608  livePrice * increase */\n      tag_121\n      swap2\n      swap1\n      tag_122\n      jump\t// in\n    tag_121:\n        /* \"contracts/Template/Istanbul10/logic/Auction.sol\":2580:2584  1000 */\n      0x03e8\n        /* \"contracts/Template/Istanbul10/logic/Auction.sol\":2568:2577  msg.value */\n      callvalue\n        /* \"contracts/Template/Istanbul10/logic/Auction.sol\":2568:2584  msg.value * 1000 */\n      tag_123\n      swap2\n      swap1\n      tag_122\n      jump\t// in\n    tag_123:\n        /* \"contracts/Template/Istanbul10/logic/Auction.sol\":2568:2608  msg.value * 1000 >= livePrice * increase */\n      lt\n      iszero\n        /* \"contracts/Template/Istanbul10/logic/Auction.sol\":2560:2631  require(msg.value * 1000 >= livePrice * increase, \"bid :: too low bid\") */\n      tag_124\n      jumpi\n      mload(0x40)\n      0x08c379a000000000000000000000000000000000000000000000000000000000\n      dup2\n      mstore\n      0x04\n      add\n      tag_125\n      swap1\n      tag_126\n      jump\t// in\n    tag_125:\n      mload(0x40)\n      dup1\n      swap2\n      sub\n      swap1\n      revert\n    tag_124:\n        /* \"contracts/Template/Istanbul10/logic/Auction.sol\":2668:2678  auctionEnd */\n      sload(0x03)\n        /* \"contracts/Template/Istanbul10/logic/Auction.sol\":2650:2665  block.timestamp */\n      timestamp\n        /* \"contracts/Template/Istanbul10/logic/Auction.sol\":2650:2678  block.timestamp < auctionEnd */\n      lt\n        /* \"contracts/Template/Istanbul10/logic/Auction.sol\":2642:2703  require(block.timestamp < auctionEnd, \"bid :: auction ended\") */\n      tag_127\n      jumpi\n      mload(0x40)\n      0x08c379a000000000000000000000000000000000000000000000000000000000\n      dup2\n      mstore\n      0x04\n      add\n      tag_128\n      swap1\n      tag_129\n      jump\t// in\n    tag_128:\n      mload(0x40)\n      dup1\n      swap2\n      sub\n      swap1\n      revert\n    tag_127:\n        /* \"contracts/Template/Istanbul10/logic/Auction.sol\":2827:2837  15 minutes */\n      0x0384\n        /* \"contracts/Template/Istanbul10/logic/Auction.sol\":2808:2823  block.timestamp */\n      timestamp\n        /* \"contracts/Template/Istanbul10/logic/Auction.sol\":2795:2805  auctionEnd */\n      sload(0x03)\n        /* \"contracts/Template/Istanbul10/logic/Auction.sol\":2795:2823  auctionEnd - block.timestamp */\n      tag_130\n      swap2\n      swap1\n      tag_131\n      jump\t// in\n    tag_130:\n        /* \"contracts/Template/Istanbul10/logic/Auction.sol\":2795:2837  auctionEnd - block.timestamp <= 15 minutes */\n      gt\n        /* \"contracts/Template/Istanbul10/logic/Auction.sol\":2791:2931  if (auctionEnd - block.timestamp <= 15 minutes) {\r... */\n      tag_132\n      jumpi\n        /* \"contracts/Template/Istanbul10/logic/Auction.sol\":2910:2919  0 minutes */\n      0x00\n        /* \"contracts/Template/Istanbul10/logic/Auction.sol\":2896:2906  auctionEnd */\n      0x03\n      0x00\n        /* \"contracts/Template/Istanbul10/logic/Auction.sol\":2896:2919  auctionEnd += 0 minutes */\n      dup3\n      dup3\n      sload\n      tag_133\n      swap2\n      swap1\n      tag_120\n      jump\t// in\n    tag_133:\n      swap3\n      pop\n      pop\n      dup2\n      swap1\n      sstore\n      pop\n        /* \"contracts/Template/Istanbul10/logic/Auction.sol\":2791:2931  if (auctionEnd - block.timestamp <= 15 minutes) {\r... */\n    tag_132:\n        /* \"contracts/Template/Istanbul10/logic/Auction.sol\":2951:2968  getVaultAddress() */\n      tag_134\n        /* \"contracts/Template/Istanbul10/logic/Auction.sol\":2951:2966  getVaultAddress */\n      tag_40\n        /* \"contracts/Template/Istanbul10/logic/Auction.sol\":2951:2968  getVaultAddress() */\n      jump\t// in\n    tag_134:\n        /* \"contracts/Template/Istanbul10/logic/Auction.sol\":2943:2978  payable(getVaultAddress()).transfer */\n      0xffffffffffffffffffffffffffffffffffffffff\n      and\n        /* \"contracts/Template/Istanbul10/logic/Auction.sol\":2943:2989  payable(getVaultAddress()).transfer(msg.value) */\n      0x08fc\n        /* \"contracts/Template/Istanbul10/logic/Auction.sol\":2979:2988  msg.value */\n      callvalue\n        /* \"contracts/Template/Istanbul10/logic/Auction.sol\":2943:2989  payable(getVaultAddress()).transfer(msg.value) */\n      swap1\n      dup2\n      iszero\n      mul\n      swap1\n      mload(0x40)\n      0x00\n      mload(0x40)\n      dup1\n      dup4\n      sub\n      dup2\n      dup6\n      dup9\n      dup9\n      call\n      swap4\n      pop\n      pop\n      pop\n      pop\n      iszero\n      dup1\n      iszero\n      tag_136\n      jumpi\n      returndatasize\n      0x00\n      dup1\n      returndatacopy\n      revert(0x00, returndatasize)\n    tag_136:\n      pop\n        /* \"contracts/Template/Istanbul10/logic/Auction.sol\":3010:3020  getVault() */\n      tag_137\n        /* \"contracts/Template/Istanbul10/logic/Auction.sol\":3010:3018  getVault */\n      tag_62\n        /* \"contracts/Template/Istanbul10/logic/Auction.sol\":3010:3020  getVault() */\n      jump\t// in\n    tag_137:\n        /* \"contracts/Template/Istanbul10/logic/Auction.sol\":3010:3028  getVault().sendETH */\n      0xffffffffffffffffffffffffffffffffffffffff\n      and\n      0x64a197f3\n        /* \"contracts/Template/Istanbul10/logic/Auction.sol\":3029:3036  winning */\n      0x05\n      0x00\n      swap1\n      sload\n      swap1\n      0x0100\n      exp\n      swap1\n      div\n      0xffffffffffffffffffffffffffffffffffffffff\n      and\n        /* \"contracts/Template/Istanbul10/logic/Auction.sol\":3038:3047  livePrice */\n      sload(0x04)\n        /* \"contracts/Template/Istanbul10/logic/Auction.sol\":3010:3048  getVault().sendETH(winning, livePrice) */\n      mload(0x40)\n      dup4\n      0xffffffff\n      and\n      0xe0\n      shl\n      dup2\n      mstore\n      0x04\n      add\n      tag_138\n      swap3\n      swap2\n      swap1\n      tag_139\n      jump\t// in\n    tag_138:\n      0x00\n      mload(0x40)\n      dup1\n      dup4\n      sub\n      dup2\n      0x00\n      dup8\n      dup1\n      extcodesize\n      iszero\n      dup1\n      iszero\n      tag_140\n      jumpi\n      0x00\n      dup1\n      revert\n    tag_140:\n      pop\n      gas\n      call\n      iszero\n      dup1\n      iszero\n      tag_142\n      jumpi\n      returndatasize\n      0x00\n      dup1\n      returndatacopy\n      revert(0x00, returndatasize)\n    tag_142:\n      pop\n      pop\n      pop\n      pop\n        /* \"contracts/Template/Istanbul10/logic/Auction.sol\":3073:3082  msg.value */\n      callvalue\n        /* \"contracts/Template/Istanbul10/logic/Auction.sol\":3061:3070  livePrice */\n      0x04\n        /* \"contracts/Template/Istanbul10/logic/Auction.sol\":3061:3082  livePrice = msg.value */\n      dup2\n      swap1\n      sstore\n      pop\n        /* \"contracts/Template/Istanbul10/logic/Auction.sol\":3111:3121  msg.sender */\n      caller\n        /* \"contracts/Template/Istanbul10/logic/Auction.sol\":3093:3100  winning */\n      0x05\n      0x00\n        /* \"contracts/Template/Istanbul10/logic/Auction.sol\":3093:3122  winning = payable(msg.sender) */\n      0x0100\n      exp\n      dup2\n      sload\n      dup2\n      0xffffffffffffffffffffffffffffffffffffffff\n      mul\n      not\n      and\n      swap1\n      dup4\n      0xffffffffffffffffffffffffffffffffffffffff\n      and\n      mul\n      or\n      swap1\n      sstore\n      pop\n        /* \"contracts/Template/Istanbul10/logic/Auction.sol\":3142:3149  winning */\n      0x05\n      0x00\n      swap1\n      sload\n      swap1\n      0x0100\n      exp\n      swap1\n      div\n      0xffffffffffffffffffffffffffffffffffffffff\n      and\n        /* \"contracts/Template/Istanbul10/logic/Auction.sol\":3138:3161  Bid(winning, livePrice) */\n      0xffffffffffffffffffffffffffffffffffffffff\n      and\n      0xe684a55f31b79eca403df938249029212a5925ec6be8012e099b45bc1019e5d2\n        /* \"contracts/Template/Istanbul10/logic/Auction.sol\":3151:3160  livePrice */\n      sload(0x04)\n        /* \"contracts/Template/Istanbul10/logic/Auction.sol\":3138:3161  Bid(winning, livePrice) */\n      mload(0x40)\n      tag_143\n      swap2\n      swap1\n      tag_28\n      jump\t// in\n    tag_143:\n      mload(0x40)\n      dup1\n      swap2\n      sub\n      swap1\n      log2\n        /* \"contracts/Template/Istanbul10/logic/Auction.sol\":2251:3169  function bid() override external payable {\r... */\n      pop\n      jump\t// out\n        /* \"contracts/Template/Istanbul10/data/AuctionData.sol\":504:538  uint256 override public auctionEnd */\n    tag_26:\n      sload(0x03)\n      dup2\n      jump\t// out\n        /* \"contracts/Template/Istanbul10/logic/Auction.sol\":894:1382  function updateAuctionLength(uint256 _length) override external {\r... */\n    tag_33:\n        /* \"contracts/Template/Istanbul10/logic/Auction.sol\":1013:1035  State.NftState.freedom */\n      0x00\n        /* \"contracts/Template/Istanbul10/logic/Auction.sol\":977:1035  getVault().getEntireVaultState() == State.NftState.freedom */\n      0x02\n      dup2\n      gt\n      iszero\n      tag_145\n      jumpi\n      mstore(0x00, 0x4e487b7100000000000000000000000000000000000000000000000000000000)\n      mstore(0x04, 0x21)\n      revert(0x00, 0x24)\n    tag_145:\n        /* \"contracts/Template/Istanbul10/logic/Auction.sol\":977:987  getVault() */\n      tag_146\n        /* \"contracts/Template/Istanbul10/logic/Auction.sol\":977:985  getVault */\n      tag_62\n        /* \"contracts/Template/Istanbul10/logic/Auction.sol\":977:987  getVault() */\n      jump\t// in\n    tag_146:\n        /* \"contracts/Template/Istanbul10/logic/Auction.sol\":977:1007  getVault().getEntireVaultState */\n      0xffffffffffffffffffffffffffffffffffffffff\n      and\n      0xd58bfa9d\n        /* \"contracts/Template/Istanbul10/logic/Auction.sol\":977:1009  getVault().getEntireVaultState() */\n      mload(0x40)\n      dup2\n      0xffffffff\n      and\n      0xe0\n      shl\n      dup2\n      mstore\n      0x04\n      add\n      0x20\n      mload(0x40)\n      dup1\n      dup4\n      sub\n      dup2\n      dup7\n      dup1\n      extcodesize\n      iszero\n      dup1\n      iszero\n      tag_147\n      jumpi\n      0x00\n      dup1\n      revert\n    tag_147:\n      pop\n      gas\n      staticcall\n      iszero\n      dup1\n      iszero\n      tag_149\n      jumpi\n      returndatasize\n      0x00\n      dup1\n      returndatacopy\n      revert(0x00, returndatasize)\n    tag_149:\n      pop\n      pop\n      pop\n      pop\n      mload(0x40)\n      returndatasize\n      not(0x1f)\n      0x1f\n      dup3\n      add\n      and\n      dup3\n      add\n      dup1\n      0x40\n      mstore\n      pop\n      dup2\n      add\n      swap1\n      tag_150\n      swap2\n      swap1\n      tag_100\n      jump\t// in\n    tag_150:\n        /* \"contracts/Template/Istanbul10/logic/Auction.sol\":977:1035  getVault().getEntireVaultState() == State.NftState.freedom */\n      0x02\n      dup2\n      gt\n      iszero\n      tag_151\n      jumpi\n      mstore(0x00, 0x4e487b7100000000000000000000000000000000000000000000000000000000)\n      mstore(0x04, 0x21)\n      revert(0x00, 0x24)\n    tag_151:\n      eq\n        /* \"contracts/Template/Istanbul10/logic/Auction.sol\":969:1060  require(getVault().getEntireVaultState() == State.NftState.freedom, \"update :: not update\") */\n      tag_152\n      jumpi\n      mload(0x40)\n      0x08c379a000000000000000000000000000000000000000000000000000000000\n      dup2\n      mstore\n      0x04\n      add\n      tag_153\n      swap1\n      tag_154\n      jump\t// in\n    tag_153:\n      mload(0x40)\n      dup1\n      swap2\n      sub\n      swap1\n      revert\n    tag_152:\n        /* \"contracts/Template/Istanbul10/logic/Auction.sol\":1105:1111  router */\n      0x00\n      dup1\n      sload\n      swap1\n      0x0100\n      exp\n      swap1\n      div\n      0xffffffffffffffffffffffffffffffffffffffff\n      and\n        /* \"contracts/Template/Istanbul10/logic/Auction.sol\":1093:1120  IRouterData(router).curator */\n      0xffffffffffffffffffffffffffffffffffffffff\n      and\n      0xe66f53b7\n        /* \"contracts/Template/Istanbul10/logic/Auction.sol\":1093:1122  IRouterData(router).curator() */\n      mload(0x40)\n      dup2\n      0xffffffff\n      and\n      0xe0\n      shl\n      dup2\n      mstore\n      0x04\n      add\n      0x20\n      mload(0x40)\n      dup1\n      dup4\n      sub\n      dup2\n      dup7\n      dup1\n      extcodesize\n      iszero\n      dup1\n      iszero\n      tag_155\n      jumpi\n      0x00\n      dup1\n      revert\n    tag_155:\n      pop\n      gas\n      staticcall\n      iszero\n      dup1\n      iszero\n      tag_157\n      jumpi\n      returndatasize\n      0x00\n      dup1\n      returndatacopy\n      revert(0x00, returndatasize)\n    tag_157:\n      pop\n      pop\n      pop\n      pop\n      mload(0x40)\n      returndatasize\n      not(0x1f)\n      0x1f\n      dup3\n      add\n      and\n      dup3\n      add\n      dup1\n      0x40\n      mstore\n      pop\n      dup2\n      add\n      swap1\n      tag_158\n      swap2\n      swap1\n      tag_159\n      jump\t// in\n    tag_158:\n        /* \"contracts/Template/Istanbul10/logic/Auction.sol\":1079:1122  msg.sender == IRouterData(router).curator() */\n      0xffffffffffffffffffffffffffffffffffffffff\n      and\n        /* \"contracts/Template/Istanbul10/logic/Auction.sol\":1079:1089  msg.sender */\n      caller\n        /* \"contracts/Template/Istanbul10/logic/Auction.sol\":1079:1122  msg.sender == IRouterData(router).curator() */\n      0xffffffffffffffffffffffffffffffffffffffff\n      and\n      eq\n        /* \"contracts/Template/Istanbul10/logic/Auction.sol\":1071:1148  require(msg.sender == IRouterData(router).curator(), \"update :: not curator\") */\n      tag_160\n      jumpi\n      mload(0x40)\n      0x08c379a000000000000000000000000000000000000000000000000000000000\n      dup2\n      mstore\n      0x04\n      add\n      tag_161\n      swap1\n      tag_162\n      jump\t// in\n    tag_161:\n      mload(0x40)\n      dup1\n      swap2\n      sub\n      swap1\n      revert\n    tag_160:\n        /* \"contracts/Template/Istanbul10/logic/Auction.sol\":1178:1191  getSettings() */\n      tag_163\n        /* \"contracts/Template/Istanbul10/logic/Auction.sol\":1178:1189  getSettings */\n      tag_57\n        /* \"contracts/Template/Istanbul10/logic/Auction.sol\":1178:1191  getSettings() */\n      jump\t// in\n    tag_163:\n        /* \"contracts/Template/Istanbul10/logic/Auction.sol\":1178:1208  getSettings().minAuctionLength */\n      0xffffffffffffffffffffffffffffffffffffffff\n      and\n      0xa0b335e3\n        /* \"contracts/Template/Istanbul10/logic/Auction.sol\":1178:1210  getSettings().minAuctionLength() */\n      mload(0x40)\n      dup2\n      0xffffffff\n      and\n      0xe0\n      shl\n      dup2\n      mstore\n      0x04\n      add\n      0x20\n      mload(0x40)\n      dup1\n      dup4\n      sub\n      dup2\n      0x00\n      dup8\n      dup1\n      extcodesize\n      iszero\n      dup1\n      iszero\n      tag_164\n      jumpi\n      0x00\n      dup1\n      revert\n    tag_164:\n      pop\n      gas\n      call\n      iszero\n      dup1\n      iszero\n      tag_166\n      jumpi\n      returndatasize\n      0x00\n      dup1\n      returndatacopy\n      revert(0x00, returndatasize)\n    tag_166:\n      pop\n      pop\n      pop\n      pop\n      mload(0x40)\n      returndatasize\n      not(0x1f)\n      0x1f\n      dup3\n      add\n      and\n      dup3\n      add\n      dup1\n      0x40\n      mstore\n      pop\n      dup2\n      add\n      swap1\n      tag_167\n      swap2\n      swap1\n      tag_118\n      jump\t// in\n    tag_167:\n        /* \"contracts/Template/Istanbul10/logic/Auction.sol\":1167:1174  _length */\n      dup2\n        /* \"contracts/Template/Istanbul10/logic/Auction.sol\":1167:1210  _length >= getSettings().minAuctionLength() */\n      lt\n      iszero\n        /* \"contracts/Template/Istanbul10/logic/Auction.sol\":1167:1257  _length >= getSettings().minAuctionLength() && _length <= getSettings().maxAuctionLength() */\n      dup1\n      iszero\n      tag_168\n      jumpi\n      pop\n        /* \"contracts/Template/Istanbul10/logic/Auction.sol\":1225:1238  getSettings() */\n      tag_169\n        /* \"contracts/Template/Istanbul10/logic/Auction.sol\":1225:1236  getSettings */\n      tag_57\n        /* \"contracts/Template/Istanbul10/logic/Auction.sol\":1225:1238  getSettings() */\n      jump\t// in\n    tag_169:\n        /* \"contracts/Template/Istanbul10/logic/Auction.sol\":1225:1255  getSettings().maxAuctionLength */\n      0xffffffffffffffffffffffffffffffffffffffff\n      and\n      0x0e519ef9\n        /* \"contracts/Template/Istanbul10/logic/Auction.sol\":1225:1257  getSettings().maxAuctionLength() */\n      mload(0x40)\n      dup2\n      0xffffffff\n      and\n      0xe0\n      shl\n      dup2\n      mstore\n      0x04\n      add\n      0x20\n      mload(0x40)\n      dup1\n      dup4\n      sub\n      dup2\n      0x00\n      dup8\n      dup1\n      extcodesize\n      iszero\n      dup1\n      iszero\n      tag_170\n      jumpi\n      0x00\n      dup1\n      revert\n    tag_170:\n      pop\n      gas\n      call\n      iszero\n      dup1\n      iszero\n      tag_172\n      jumpi\n      returndatasize\n      0x00\n      dup1\n      returndatacopy\n      revert(0x00, returndatasize)\n    tag_172:\n      pop\n      pop\n      pop\n      pop\n      mload(0x40)\n      returndatasize\n      not(0x1f)\n      0x1f\n      dup3\n      add\n      and\n      dup3\n      add\n      dup1\n      0x40\n      mstore\n      pop\n      dup2\n      add\n      swap1\n      tag_173\n      swap2\n      swap1\n      tag_118\n      jump\t// in\n    tag_173:\n        /* \"contracts/Template/Istanbul10/logic/Auction.sol\":1214:1221  _length */\n      dup2\n        /* \"contracts/Template/Istanbul10/logic/Auction.sol\":1214:1257  _length <= getSettings().maxAuctionLength() */\n      gt\n      iszero\n        /* \"contracts/Template/Istanbul10/logic/Auction.sol\":1167:1257  _length >= getSettings().minAuctionLength() && _length <= getSettings().maxAuctionLength() */\n    tag_168:\n        /* \"contracts/Template/Istanbul10/logic/Auction.sol\":1159:1294  require(_length >= getSettings().minAuctionLength() && _length <= getSettings().maxAuctionLength(), \"update :: invalid auction length\") */\n      tag_174\n      jumpi\n      mload(0x40)\n      0x08c379a000000000000000000000000000000000000000000000000000000000\n      dup2\n      mstore\n      0x04\n      add\n      tag_175\n      swap1\n      tag_176\n      jump\t// in\n    tag_175:\n      mload(0x40)\n      dup1\n      swap2\n      sub\n      swap1\n      revert\n    tag_174:\n        /* \"contracts/Template/Istanbul10/logic/Auction.sol\":1323:1330  _length */\n      dup1\n        /* \"contracts/Template/Istanbul10/logic/Auction.sol\":1307:1320  auctionLength */\n      0x02\n        /* \"contracts/Template/Istanbul10/logic/Auction.sol\":1307:1330  auctionLength = _length */\n      dup2\n      swap1\n      sstore\n      pop\n        /* \"contracts/Template/Istanbul10/logic/Auction.sol\":1346:1374  UpdateAuctionLength(_length) */\n      0x4ab86ae701798277aa378943b9dfd155d3b19703cd57be298908fadd32f7bf46\n        /* \"contracts/Template/Istanbul10/logic/Auction.sol\":1366:1373  _length */\n      dup2\n        /* \"contracts/Template/Istanbul10/logic/Auction.sol\":1346:1374  UpdateAuctionLength(_length) */\n      mload(0x40)\n      tag_177\n      swap2\n      swap1\n      tag_28\n      jump\t// in\n    tag_177:\n      mload(0x40)\n      dup1\n      swap2\n      sub\n      swap1\n      log1\n        /* \"contracts/Template/Istanbul10/logic/Auction.sol\":894:1382  function updateAuctionLength(uint256 _length) override external {\r... */\n      pop\n      jump\t// out\n        /* \"contracts/Template/Istanbul10/data/AuctionData.sol\":458:495  uint256 override public auctionLength */\n    tag_36:\n      sload(0x02)\n      dup2\n      jump\t// out\n        /* \"contracts/Template/Istanbul10/logic/Auction.sol\":4217:4325  function getVaultAddress() public view returns(address){\r... */\n    tag_40:\n        /* \"contracts/Template/Istanbul10/logic/Auction.sol\":4264:4271  address */\n      0x00\n        /* \"contracts/Template/Istanbul10/logic/Auction.sol\":4302:4308  router */\n      dup1\n      0x00\n      swap1\n      sload\n      swap1\n      0x0100\n      exp\n      swap1\n      div\n      0xffffffffffffffffffffffffffffffffffffffff\n      and\n        /* \"contracts/Template/Istanbul10/logic/Auction.sol\":4290:4315  IRouterData(router).vault */\n      0xffffffffffffffffffffffffffffffffffffffff\n      and\n      0xfbfa77cf\n        /* \"contracts/Template/Istanbul10/logic/Auction.sol\":4290:4317  IRouterData(router).vault() */\n      mload(0x40)\n      dup2\n      0xffffffff\n      and\n      0xe0\n      shl\n      dup2\n      mstore\n      0x04\n      add\n      0x20\n      mload(0x40)\n      dup1\n      dup4\n      sub\n      dup2\n      dup7\n      dup1\n      extcodesize\n      iszero\n      dup1\n      iszero\n      tag_179\n      jumpi\n      0x00\n      dup1\n      revert\n    tag_179:\n      pop\n      gas\n      staticcall\n      iszero\n      dup1\n      iszero\n      tag_181\n      jumpi\n      returndatasize\n      0x00\n      dup1\n      returndatacopy\n      revert(0x00, returndatasize)\n    tag_181:\n      pop\n      pop\n      pop\n      pop\n      mload(0x40)\n      returndatasize\n      not(0x1f)\n      0x1f\n      dup3\n      add\n      and\n      dup3\n      add\n      dup1\n      0x40\n      mstore\n      pop\n      dup2\n      add\n      swap1\n      tag_182\n      swap2\n      swap1\n      tag_159\n      jump\t// in\n    tag_182:\n        /* \"contracts/Template/Istanbul10/logic/Auction.sol\":4283:4317  return IRouterData(router).vault() */\n      swap1\n      pop\n        /* \"contracts/Template/Istanbul10/logic/Auction.sol\":4217:4325  function getVaultAddress() public view returns(address){\r... */\n      swap1\n      jump\t// out\n        /* \"contracts/Template/Istanbul10/data/AuctionData.sol\":548:581  uint256 override public livePrice */\n    tag_45:\n      sload(0x04)\n      dup2\n      jump\t// out\n        /* \"contracts/Template/Istanbul10/logic/Auction.sol\":429:646  function initialize() override public {\r... */\n    tag_49:\n        /* \"contracts/Template/Istanbul10/logic/Auction.sol\":487:498  initializer */\n      0x00\n      0x14\n      swap1\n      sload\n      swap1\n      0x0100\n      exp\n      swap1\n      div\n      0xff\n      and\n        /* \"contracts/Template/Istanbul10/logic/Auction.sol\":486:498  !initializer */\n      iszero\n        /* \"contracts/Template/Istanbul10/logic/Auction.sol\":478:535  require(!initializer,\"initialize :: Already initialized\") */\n      tag_184\n      jumpi\n      mload(0x40)\n      0x08c379a000000000000000000000000000000000000000000000000000000000\n      dup2\n      mstore\n      0x04\n      add\n      tag_185\n      swap1\n      tag_186\n      jump\t// in\n    tag_185:\n      mload(0x40)\n      dup1\n      swap2\n      sub\n      swap1\n      revert\n    tag_184:\n        /* \"contracts/Template/Istanbul10/logic/Auction.sol\":561:572  initializer */\n      0x00\n      0x14\n      swap1\n      sload\n      swap1\n      0x0100\n      exp\n      swap1\n      div\n      0xff\n      and\n        /* \"contracts/Template/Istanbul10/logic/Auction.sol\":560:572  !initializer */\n      iszero\n        /* \"contracts/Template/Istanbul10/logic/Auction.sol\":546:557  initializer */\n      0x00\n      0x14\n        /* \"contracts/Template/Istanbul10/logic/Auction.sol\":546:572  initializer = !initializer */\n      0x0100\n      exp\n      dup2\n      sload\n      dup2\n      0xff\n      mul\n      not\n      and\n      swap1\n      dup4\n      iszero\n      iszero\n      mul\n      or\n      swap1\n      sstore\n      pop\n        /* \"contracts/Template/Istanbul10/logic/Auction.sol\":592:602  msg.sender */\n      caller\n        /* \"contracts/Template/Istanbul10/logic/Auction.sol\":583:589  router */\n      0x00\n      dup1\n        /* \"contracts/Template/Istanbul10/logic/Auction.sol\":583:602  router = msg.sender */\n      0x0100\n      exp\n      dup2\n      sload\n      dup2\n      0xffffffffffffffffffffffffffffffffffffffff\n      mul\n      not\n      and\n      swap1\n      dup4\n      0xffffffffffffffffffffffffffffffffffffffff\n      and\n      mul\n      or\n      swap1\n      sstore\n      pop\n        /* \"contracts/Template/Istanbul10/logic/Auction.sol\":629:638  2 minutes */\n      0x78\n        /* \"contracts/Template/Istanbul10/logic/Auction.sol\":613:626  auctionLength */\n      0x02\n        /* \"contracts/Template/Istanbul10/logic/Auction.sol\":613:638  auctionLength = 2 minutes */\n      dup2\n      swap1\n      sstore\n      pop\n        /* \"contracts/Template/Istanbul10/logic/Auction.sol\":429:646  function initialize() override public {\r... */\n      jump\t// out\n        /* \"contracts/Template/Istanbul10/data/AuctionData.sol\":590:629  address payable override public winning */\n    tag_52:\n      0x05\n      0x00\n      swap1\n      sload\n      swap1\n      0x0100\n      exp\n      swap1\n      div\n      0xffffffffffffffffffffffffffffffffffffffff\n      and\n      dup2\n      jump\t// out\n        /* \"contracts/Template/Istanbul10/logic/Auction.sol\":4439:4560  function getSettings() public view returns(ISettings) {\r... */\n    tag_57:\n        /* \"contracts/Template/Istanbul10/logic/Auction.sol\":4482:4491  ISettings */\n      0x00\n        /* \"contracts/Template/Istanbul10/logic/Auction.sol\":4533:4539  router */\n      dup1\n      0x00\n      swap1\n      sload\n      swap1\n      0x0100\n      exp\n      swap1\n      div\n      0xffffffffffffffffffffffffffffffffffffffff\n      and\n        /* \"contracts/Template/Istanbul10/logic/Auction.sol\":4521:4549  IRouterData(router).settings */\n      0xffffffffffffffffffffffffffffffffffffffff\n      and\n      0xe06174e4\n        /* \"contracts/Template/Istanbul10/logic/Auction.sol\":4521:4551  IRouterData(router).settings() */\n      mload(0x40)\n      dup2\n      0xffffffff\n      and\n      0xe0\n      shl\n      dup2\n      mstore\n      0x04\n      add\n      0x20\n      mload(0x40)\n      dup1\n      dup4\n      sub\n      dup2\n      dup7\n      dup1\n      extcodesize\n      iszero\n      dup1\n      iszero\n      tag_188\n      jumpi\n      0x00\n      dup1\n      revert\n    tag_188:\n      pop\n      gas\n      staticcall\n      iszero\n      dup1\n      iszero\n      tag_190\n      jumpi\n      returndatasize\n      0x00\n      dup1\n      returndatacopy\n      revert(0x00, returndatasize)\n    tag_190:\n      pop\n      pop\n      pop\n      pop\n      mload(0x40)\n      returndatasize\n      not(0x1f)\n      0x1f\n      dup3\n      add\n      and\n      dup3\n      add\n      dup1\n      0x40\n      mstore\n      pop\n      dup2\n      add\n      swap1\n      tag_191\n      swap2\n      swap1\n      tag_159\n      jump\t// in\n    tag_191:\n        /* \"contracts/Template/Istanbul10/logic/Auction.sol\":4504:4552  return ISettings(IRouterData(router).settings()) */\n      swap1\n      pop\n        /* \"contracts/Template/Istanbul10/logic/Auction.sol\":4439:4560  function getSettings() public view returns(ISettings) {\r... */\n      swap1\n      jump\t// out\n        /* \"contracts/Template/Istanbul10/logic/Auction.sol\":4333:4431  function getVault() public view returns(IVault){\r... */\n    tag_62:\n        /* \"contracts/Template/Istanbul10/logic/Auction.sol\":4373:4379  IVault */\n      0x00\n        /* \"contracts/Template/Istanbul10/logic/Auction.sol\":4405:4422  getVaultAddress() */\n      tag_193\n        /* \"contracts/Template/Istanbul10/logic/Auction.sol\":4405:4420  getVaultAddress */\n      tag_40\n        /* \"contracts/Template/Istanbul10/logic/Auction.sol\":4405:4422  getVaultAddress() */\n      jump\t// in\n    tag_193:\n        /* \"contracts/Template/Istanbul10/logic/Auction.sol\":4391:4423  return IVault(getVaultAddress()) */\n      swap1\n      pop\n        /* \"contracts/Template/Istanbul10/logic/Auction.sol\":4333:4431  function getVault() public view returns(IVault){\r... */\n      swap1\n      jump\t// out\n        /* \"contracts/Template/Istanbul10/logic/Auction.sol\":3842:4209  function utilCompareInternal(string memory a, string memory b) public pure returns (bool) {\r... */\n    tag_69:\n        /* \"contracts/Template/Istanbul10/logic/Auction.sol\":3926:3930  bool */\n      0x00\n        /* \"contracts/Template/Istanbul10/logic/Auction.sol\":3972:3973  b */\n      dup2\n        /* \"contracts/Template/Istanbul10/logic/Auction.sol\":3966:3981  bytes(b).length */\n      mload\n        /* \"contracts/Template/Istanbul10/logic/Auction.sol\":3953:3954  a */\n      dup4\n        /* \"contracts/Template/Istanbul10/logic/Auction.sol\":3947:3962  bytes(a).length */\n      mload\n        /* \"contracts/Template/Istanbul10/logic/Auction.sol\":3947:3981  bytes(a).length != bytes(b).length */\n      eq\n        /* \"contracts/Template/Istanbul10/logic/Auction.sol\":3943:4022  if (bytes(a).length != bytes(b).length) {\r... */\n      tag_195\n      jumpi\n        /* \"contracts/Template/Istanbul10/logic/Auction.sol\":4005:4010  false */\n      0x00\n        /* \"contracts/Template/Istanbul10/logic/Auction.sol\":3998:4010  return false */\n      swap1\n      pop\n      jump(tag_194)\n        /* \"contracts/Template/Istanbul10/logic/Auction.sol\":3943:4022  if (bytes(a).length != bytes(b).length) {\r... */\n    tag_195:\n        /* \"contracts/Template/Istanbul10/logic/Auction.sol\":4037:4043  uint i */\n      0x00\n        /* \"contracts/Template/Istanbul10/logic/Auction.sol\":4032:4180  for (uint i = 0; i < bytes(a).length; i ++) {\r... */\n    tag_196:\n        /* \"contracts/Template/Istanbul10/logic/Auction.sol\":4059:4060  a */\n      dup4\n        /* \"contracts/Template/Istanbul10/logic/Auction.sol\":4053:4068  bytes(a).length */\n      mload\n        /* \"contracts/Template/Istanbul10/logic/Auction.sol\":4049:4050  i */\n      dup2\n        /* \"contracts/Template/Istanbul10/logic/Auction.sol\":4049:4068  i < bytes(a).length */\n      lt\n        /* \"contracts/Template/Istanbul10/logic/Auction.sol\":4032:4180  for (uint i = 0; i < bytes(a).length; i ++) {\r... */\n      iszero\n      tag_197\n      jumpi\n        /* \"contracts/Template/Istanbul10/logic/Auction.sol\":4115:4116  b */\n      dup3\n        /* \"contracts/Template/Istanbul10/logic/Auction.sol\":4118:4119  i */\n      dup2\n        /* \"contracts/Template/Istanbul10/logic/Auction.sol\":4109:4120  bytes(b)[i] */\n      dup2\n      mload\n      dup2\n      lt\n      tag_199\n      jumpi\n      mstore(0x00, 0x4e487b7100000000000000000000000000000000000000000000000000000000)\n      mstore(0x04, 0x32)\n      revert(0x00, 0x24)\n    tag_199:\n      0x20\n      add\n      add\n      mload\n      0xf8\n      shr\n      0xf8\n      shl\n        /* \"contracts/Template/Istanbul10/logic/Auction.sol\":4094:4120  bytes(a)[i] != bytes(b)[i] */\n      not(0xffffffffffffffffffffffffffffffffffffffffffffffffffffffffffffff)\n      and\n        /* \"contracts/Template/Istanbul10/logic/Auction.sol\":4100:4101  a */\n      dup5\n        /* \"contracts/Template/Istanbul10/logic/Auction.sol\":4103:4104  i */\n      dup3\n        /* \"contracts/Template/Istanbul10/logic/Auction.sol\":4094:4105  bytes(a)[i] */\n      dup2\n      mload\n      dup2\n      lt\n      tag_200\n      jumpi\n      mstore(0x00, 0x4e487b7100000000000000000000000000000000000000000000000000000000)\n      mstore(0x04, 0x32)\n      revert(0x00, 0x24)\n    tag_200:\n      0x20\n      add\n      add\n      mload\n      0xf8\n      shr\n      0xf8\n      shl\n        /* \"contracts/Template/Istanbul10/logic/Auction.sol\":4094:4120  bytes(a)[i] != bytes(b)[i] */\n      not(0xffffffffffffffffffffffffffffffffffffffffffffffffffffffffffffff)\n      and\n      eq\n        /* \"contracts/Template/Istanbul10/logic/Auction.sol\":4091:4169  if(bytes(a)[i] != bytes(b)[i]) {\r... */\n      tag_201\n      jumpi\n        /* \"contracts/Template/Istanbul10/logic/Auction.sol\":4148:4153  false */\n      0x00\n        /* \"contracts/Template/Istanbul10/logic/Auction.sol\":4141:4153  return false */\n      swap2\n      pop\n      pop\n      jump(tag_194)\n        /* \"contracts/Template/Istanbul10/logic/Auction.sol\":4091:4169  if(bytes(a)[i] != bytes(b)[i]) {\r... */\n    tag_201:\n        /* \"contracts/Template/Istanbul10/logic/Auction.sol\":4070:4074  i ++ */\n      dup1\n      dup1\n      tag_202\n      swap1\n      tag_203\n      jump\t// in\n    tag_202:\n      swap2\n      pop\n      pop\n        /* \"contracts/Template/Istanbul10/logic/Auction.sol\":4032:4180  for (uint i = 0; i < bytes(a).length; i ++) {\r... */\n      jump(tag_196)\n    tag_197:\n      pop\n        /* \"contracts/Template/Istanbul10/logic/Auction.sol\":4197:4201  true */\n      0x01\n        /* \"contracts/Template/Istanbul10/logic/Auction.sol\":4190:4201  return true */\n      swap1\n      pop\n        /* \"contracts/Template/Istanbul10/logic/Auction.sol\":3842:4209  function utilCompareInternal(string memory a, string memory b) public pure returns (bool) {\r... */\n    tag_194:\n      swap3\n      swap2\n      pop\n      pop\n      jump\t// out\n        /* \"contracts/Template/Istanbul10/logic/Auction.sol\":654:882  function setPrice(uint256 _price) override public {\r... */\n    tag_75:\n        /* \"contracts/Template/Istanbul10/logic/Auction.sol\":735:741  router */\n      0x00\n      dup1\n      sload\n      swap1\n      0x0100\n      exp\n      swap1\n      div\n      0xffffffffffffffffffffffffffffffffffffffff\n      and\n        /* \"contracts/Template/Istanbul10/logic/Auction.sol\":723:752  IRouterData(router).whiteList */\n      0xffffffffffffffffffffffffffffffffffffffff\n      and\n      0x372c12b1\n        /* \"contracts/Template/Istanbul10/logic/Auction.sol\":753:763  msg.sender */\n      caller\n        /* \"contracts/Template/Istanbul10/logic/Auction.sol\":723:764  IRouterData(router).whiteList(msg.sender) */\n      mload(0x40)\n      dup3\n      0xffffffff\n      and\n      0xe0\n      shl\n      dup2\n      mstore\n      0x04\n      add\n      tag_205\n      swap2\n      swap1\n      tag_42\n      jump\t// in\n    tag_205:\n      0x20\n      mload(0x40)\n      dup1\n      dup4\n      sub\n      dup2\n      dup7\n      dup1\n      extcodesize\n      iszero\n      dup1\n      iszero\n      tag_206\n      jumpi\n      0x00\n      dup1\n      revert\n    tag_206:\n      pop\n      gas\n      staticcall\n      iszero\n      dup1\n      iszero\n      tag_208\n      jumpi\n      returndatasize\n      0x00\n      dup1\n      returndatacopy\n      revert(0x00, returndatasize)\n    tag_208:\n      pop\n      pop\n      pop\n      pop\n      mload(0x40)\n      returndatasize\n      not(0x1f)\n      0x1f\n      dup3\n      add\n      and\n      dup3\n      add\n      dup1\n      0x40\n      mstore\n      pop\n      dup2\n      add\n      swap1\n      tag_209\n      swap2\n      swap1\n      tag_210\n      jump\t// in\n    tag_209:\n        /* \"contracts/Template/Istanbul10/logic/Auction.sol\":715:803  require(IRouterData(router).whiteList(msg.sender),\"setPrice :: Caller permission error\") */\n      tag_211\n      jumpi\n      mload(0x40)\n      0x08c379a000000000000000000000000000000000000000000000000000000000\n      dup2\n      mstore\n      0x04\n      add\n      tag_212\n      swap1\n      tag_213\n      jump\t// in\n    tag_212:\n      mload(0x40)\n      dup1\n      swap2\n      sub\n      swap1\n      revert\n    tag_211:\n        /* \"contracts/Template/Istanbul10/logic/Auction.sol\":833:839  _price */\n      dup1\n        /* \"contracts/Template/Istanbul10/logic/Auction.sol\":814:830  entireVaultPrice */\n      0x01\n        /* \"contracts/Template/Istanbul10/logic/Auction.sol\":814:839  entireVaultPrice = _price */\n      dup2\n      swap1\n      sstore\n      pop\n        /* \"contracts/Template/Istanbul10/logic/Auction.sol\":855:874  EntirePrice(_price) */\n      0xd625dc2138f94556f2cf89e7e1c67cc54705c9abe155ad8fb518f4121e942de6\n        /* \"contracts/Template/Istanbul10/logic/Auction.sol\":867:873  _price */\n      dup2\n        /* \"contracts/Template/Istanbul10/logic/Auction.sol\":855:874  EntirePrice(_price) */\n      mload(0x40)\n      tag_214\n      swap2\n      swap1\n      tag_28\n      jump\t// in\n    tag_214:\n      mload(0x40)\n      dup1\n      swap2\n      sub\n      swap1\n      log1\n        /* \"contracts/Template/Istanbul10/logic/Auction.sol\":654:882  function setPrice(uint256 _price) override public {\r... */\n      pop\n      jump\t// out\n        /* \"contracts/Template/Istanbul10/data/AuctionData.sol\":307:339  bool override public initializer */\n    tag_78:\n      0x00\n      0x14\n      swap1\n      sload\n      swap1\n      0x0100\n      exp\n      swap1\n      div\n      0xff\n      and\n      dup2\n      jump\t// out\n        /* \"contracts/Template/Istanbul10/data/AuctionData.sol\":409:449  uint256 override public entireVaultPrice */\n    tag_82:\n      sload(0x01)\n      dup2\n      jump\t// out\n        /* \"contracts/Template/Istanbul10/logic/Auction.sol\":1464:2136  function start() override external payable {\r... */\n    tag_85:\n        /* \"contracts/Template/Istanbul10/logic/Auction.sol\":1562:1584  State.NftState.freedom */\n      0x00\n        /* \"contracts/Template/Istanbul10/logic/Auction.sol\":1526:1584  getVault().getEntireVaultState() == State.NftState.freedom */\n      0x02\n      dup2\n      gt\n      iszero\n      tag_216\n      jumpi\n      mstore(0x00, 0x4e487b7100000000000000000000000000000000000000000000000000000000)\n      mstore(0x04, 0x21)\n      revert(0x00, 0x24)\n    tag_216:\n        /* \"contracts/Template/Istanbul10/logic/Auction.sol\":1526:1536  getVault() */\n      tag_217\n        /* \"contracts/Template/Istanbul10/logic/Auction.sol\":1526:1534  getVault */\n      tag_62\n        /* \"contracts/Template/Istanbul10/logic/Auction.sol\":1526:1536  getVault() */\n      jump\t// in\n    tag_217:\n        /* \"contracts/Template/Istanbul10/logic/Auction.sol\":1526:1556  getVault().getEntireVaultState */\n      0xffffffffffffffffffffffffffffffffffffffff\n      and\n      0xd58bfa9d\n        /* \"contracts/Template/Istanbul10/logic/Auction.sol\":1526:1558  getVault().getEntireVaultState() */\n      mload(0x40)\n      dup2\n      0xffffffff\n      and\n      0xe0\n      shl\n      dup2\n      mstore\n      0x04\n      add\n      0x20\n      mload(0x40)\n      dup1\n      dup4\n      sub\n      dup2\n      dup7\n      dup1\n      extcodesize\n      iszero\n      dup1\n      iszero\n      tag_218\n      jumpi\n      0x00\n      dup1\n      revert\n    tag_218:\n      pop\n      gas\n      staticcall\n      iszero\n      dup1\n      iszero\n      tag_220\n      jumpi\n      returndatasize\n      0x00\n      dup1\n      returndatacopy\n      revert(0x00, returndatasize)\n    tag_220:\n      pop\n      pop\n      pop\n      pop\n      mload(0x40)\n      returndatasize\n      not(0x1f)\n      0x1f\n      dup3\n      add\n      and\n      dup3\n      add\n      dup1\n      0x40\n      mstore\n      pop\n      dup2\n      add\n      swap1\n      tag_221\n      swap2\n      swap1\n      tag_100\n      jump\t// in\n    tag_221:\n        /* \"contracts/Template/Istanbul10/logic/Auction.sol\":1526:1584  getVault().getEntireVaultState() == State.NftState.freedom */\n      0x02\n      dup2\n      gt\n      iszero\n      tag_222\n      jumpi\n      mstore(0x00, 0x4e487b7100000000000000000000000000000000000000000000000000000000)\n      mstore(0x04, 0x21)\n      revert(0x00, 0x24)\n    tag_222:\n      eq\n        /* \"contracts/Template/Istanbul10/logic/Auction.sol\":1518:1615  require(getVault().getEntireVaultState() == State.NftState.freedom, \"start :: no auction starts\") */\n      tag_223\n      jumpi\n      mload(0x40)\n      0x08c379a000000000000000000000000000000000000000000000000000000000\n      dup2\n      mstore\n      0x04\n      add\n      tag_224\n      swap1\n      tag_225\n      jump\t// in\n    tag_224:\n      mload(0x40)\n      dup1\n      swap2\n      sub\n      swap1\n      revert\n    tag_223:\n        /* \"contracts/Template/Istanbul10/logic/Auction.sol\":1654:1655  0 */\n      0x00\n        /* \"contracts/Template/Istanbul10/logic/Auction.sol\":1634:1650  entireVaultPrice */\n      sload(0x01)\n        /* \"contracts/Template/Istanbul10/logic/Auction.sol\":1634:1655  entireVaultPrice != 0 */\n      eq\n      iszero\n        /* \"contracts/Template/Istanbul10/logic/Auction.sol\":1626:1694  require(entireVaultPrice != 0,\"start :: Entire vault price is zore\") */\n      tag_226\n      jumpi\n      mload(0x40)\n      0x08c379a000000000000000000000000000000000000000000000000000000000\n      dup2\n      mstore\n      0x04\n      add\n      tag_227\n      swap1\n      tag_228\n      jump\t// in\n    tag_227:\n      mload(0x40)\n      dup1\n      swap2\n      sub\n      swap1\n      revert\n    tag_226:\n        /* \"contracts/Template/Istanbul10/logic/Auction.sol\":1726:1742  entireVaultPrice */\n      sload(0x01)\n        /* \"contracts/Template/Istanbul10/logic/Auction.sol\":1713:1722  msg.value */\n      callvalue\n        /* \"contracts/Template/Istanbul10/logic/Auction.sol\":1713:1742  msg.value >= entireVaultPrice */\n      lt\n      iszero\n        /* \"contracts/Template/Istanbul10/logic/Auction.sol\":1705:1767  require(msg.value >= entireVaultPrice, \"start :: too low bid\") */\n      tag_229\n      jumpi\n      mload(0x40)\n      0x08c379a000000000000000000000000000000000000000000000000000000000\n      dup2\n      mstore\n      0x04\n      add\n      tag_230\n      swap1\n      tag_231\n      jump\t// in\n    tag_230:\n      mload(0x40)\n      dup1\n      swap2\n      sub\n      swap1\n      revert\n    tag_229:\n        /* \"contracts/Template/Istanbul10/logic/Auction.sol\":1811:1824  auctionLength */\n      sload(0x02)\n        /* \"contracts/Template/Istanbul10/logic/Auction.sol\":1793:1808  block.timestamp */\n      timestamp\n        /* \"contracts/Template/Istanbul10/logic/Auction.sol\":1793:1824  block.timestamp + auctionLength */\n      tag_232\n      swap2\n      swap1\n      tag_120\n      jump\t// in\n    tag_232:\n        /* \"contracts/Template/Istanbul10/logic/Auction.sol\":1780:1790  auctionEnd */\n      0x03\n        /* \"contracts/Template/Istanbul10/logic/Auction.sol\":1780:1824  auctionEnd = block.timestamp + auctionLength */\n      dup2\n      swap1\n      sstore\n      pop\n        /* \"contracts/Template/Istanbul10/logic/Auction.sol\":1837:1847  getVault() */\n      tag_233\n        /* \"contracts/Template/Istanbul10/logic/Auction.sol\":1837:1845  getVault */\n      tag_62\n        /* \"contracts/Template/Istanbul10/logic/Auction.sol\":1837:1847  getVault() */\n      jump\t// in\n    tag_233:\n        /* \"contracts/Template/Istanbul10/logic/Auction.sol\":1837:1860  getVault().safeSetState */\n      0xffffffffffffffffffffffffffffffffffffffff\n      and\n      0xe77ae39b\n        /* \"contracts/Template/Istanbul10/logic/Auction.sol\":1869:1870  0 */\n      0x00\n        /* \"contracts/Template/Istanbul10/logic/Auction.sol\":1872:1873  0 */\n      dup1\n        /* \"contracts/Template/Istanbul10/logic/Auction.sol\":1874:1897  State.NftState.occupied */\n      0x01\n        /* \"contracts/Template/Istanbul10/logic/Auction.sol\":1837:1908  getVault().safeSetState(address(0),0,State.NftState.occupied,\"Auction\") */\n      mload(0x40)\n      dup5\n      0xffffffff\n      and\n      0xe0\n      shl\n      dup2\n      mstore\n      0x04\n      add\n      tag_234\n      swap4\n      swap3\n      swap2\n      swap1\n      tag_235\n      jump\t// in\n    tag_234:\n      0x00\n      mload(0x40)\n      dup1\n      dup4\n      sub\n      dup2\n      0x00\n      dup8\n      dup1\n      extcodesize\n      iszero\n      dup1\n      iszero\n      tag_236\n      jumpi\n      0x00\n      dup1\n      revert\n    tag_236:\n      pop\n      gas\n      call\n      iszero\n      dup1\n      iszero\n      tag_238\n      jumpi\n      returndatasize\n      0x00\n      dup1\n      returndatacopy\n      revert(0x00, returndatasize)\n    tag_238:\n      pop\n      pop\n      pop\n      pop\n        /* \"contracts/Template/Istanbul10/logic/Auction.sol\":1933:1942  msg.value */\n      callvalue\n        /* \"contracts/Template/Istanbul10/logic/Auction.sol\":1921:1930  livePrice */\n      0x04\n        /* \"contracts/Template/Istanbul10/logic/Auction.sol\":1921:1942  livePrice = msg.value */\n      dup2\n      swap1\n      sstore\n      pop\n        /* \"contracts/Template/Istanbul10/logic/Auction.sol\":1961:1978  getVaultAddress() */\n      tag_239\n        /* \"contracts/Template/Istanbul10/logic/Auction.sol\":1961:1976  getVaultAddress */\n      tag_40\n        /* \"contracts/Template/Istanbul10/logic/Auction.sol\":1961:1978  getVaultAddress() */\n      jump\t// in\n    tag_239:\n        /* \"contracts/Template/Istanbul10/logic/Auction.sol\":1953:1988  payable(getVaultAddress()).transfer */\n      0xffffffffffffffffffffffffffffffffffffffff\n      and\n        /* \"contracts/Template/Istanbul10/logic/Auction.sol\":1953:1999  payable(getVaultAddress()).transfer(livePrice) */\n      0x08fc\n        /* \"contracts/Template/Istanbul10/logic/Auction.sol\":1989:1998  livePrice */\n      sload(0x04)\n        /* \"contracts/Template/Istanbul10/logic/Auction.sol\":1953:1999  payable(getVaultAddress()).transfer(livePrice) */\n      swap1\n      dup2\n      iszero\n      mul\n      swap1\n      mload(0x40)\n      0x00\n      mload(0x40)\n      dup1\n      dup4\n      sub\n      dup2\n      dup6\n      dup9\n      dup9\n      call\n      swap4\n      pop\n      pop\n      pop\n      pop\n      iszero\n      dup1\n      iszero\n      tag_241\n      jumpi\n      returndatasize\n      0x00\n      dup1\n      returndatacopy\n      revert(0x00, returndatasize)\n    tag_241:\n      pop\n        /* \"contracts/Template/Istanbul10/logic/Auction.sol\":2028:2038  msg.sender */\n      caller\n        /* \"contracts/Template/Istanbul10/logic/Auction.sol\":2010:2017  winning */\n      0x05\n      0x00\n        /* \"contracts/Template/Istanbul10/logic/Auction.sol\":2010:2039  winning = payable(msg.sender) */\n      0x0100\n      exp\n      dup2\n      sload\n      dup2\n      0xffffffffffffffffffffffffffffffffffffffff\n      mul\n      not\n      and\n      swap1\n      dup4\n      0xffffffffffffffffffffffffffffffffffffffff\n      and\n      mul\n      or\n      swap1\n      sstore\n      pop\n        /* \"contracts/Template/Istanbul10/logic/Auction.sol\":2052:2062  getVault() */\n      tag_242\n        /* \"contracts/Template/Istanbul10/logic/Auction.sol\":2052:2060  getVault */\n      tag_62\n        /* \"contracts/Template/Istanbul10/logic/Auction.sol\":2052:2062  getVault() */\n      jump\t// in\n    tag_242:\n        /* \"contracts/Template/Istanbul10/logic/Auction.sol\":2052:2074  getVault().noncallable */\n      0xffffffffffffffffffffffffffffffffffffffff\n      and\n      0x1370c6a9\n        /* \"contracts/Template/Istanbul10/logic/Auction.sol\":2052:2076  getVault().noncallable() */\n      mload(0x40)\n      dup2\n      0xffffffff\n      and\n      0xe0\n      shl\n      dup2\n      mstore\n      0x04\n      add\n      0x00\n      mload(0x40)\n      dup1\n      dup4\n      sub\n      dup2\n      0x00\n      dup8\n      dup1\n      extcodesize\n      iszero\n      dup1\n      iszero\n      tag_243\n      jumpi\n      0x00\n      dup1\n      revert\n    tag_243:\n      pop\n      gas\n      call\n      iszero\n      dup1\n      iszero\n      tag_245\n      jumpi\n      returndatasize\n      0x00\n      dup1\n      returndatacopy\n      revert(0x00, returndatasize)\n    tag_245:\n      pop\n      pop\n      pop\n      pop\n        /* \"contracts/Template/Istanbul10/logic/Auction.sol\":2109:2116  winning */\n      0x05\n      0x00\n      swap1\n      sload\n      swap1\n      0x0100\n      exp\n      swap1\n      div\n      0xffffffffffffffffffffffffffffffffffffffff\n      and\n        /* \"contracts/Template/Istanbul10/logic/Auction.sol\":2103:2128  Start(winning, livePrice) */\n      0xffffffffffffffffffffffffffffffffffffffff\n      and\n      0xcfb9c5312b25ec7b809d61e638df25f749eae5d5c25399e1c93d1d319bfd5821\n        /* \"contracts/Template/Istanbul10/logic/Auction.sol\":2118:2127  livePrice */\n      sload(0x04)\n        /* \"contracts/Template/Istanbul10/logic/Auction.sol\":2103:2128  Start(winning, livePrice) */\n      mload(0x40)\n      tag_246\n      swap2\n      swap1\n      tag_28\n      jump\t// in\n    tag_246:\n      mload(0x40)\n      dup1\n      swap2\n      sub\n      swap1\n      log2\n        /* \"contracts/Template/Istanbul10/logic/Auction.sol\":1464:2136  function start() override external payable {\r... */\n      jump\t// out\n        /* \"contracts/Template/Istanbul10/logic/Auction.sol\":3261:3832  function end() override external {\r... */\n    tag_88:\n        /* \"contracts/Template/Istanbul10/logic/Auction.sol\":3350:3373  State.NftState.occupied */\n      0x01\n        /* \"contracts/Template/Istanbul10/logic/Auction.sol\":3314:3373  getVault().getEntireVaultState() == State.NftState.occupied */\n      0x02\n      dup2\n      gt\n      iszero\n      tag_248\n      jumpi\n      mstore(0x00, 0x4e487b7100000000000000000000000000000000000000000000000000000000)\n      mstore(0x04, 0x21)\n      revert(0x00, 0x24)\n    tag_248:\n        /* \"contracts/Template/Istanbul10/logic/Auction.sol\":3314:3324  getVault() */\n      tag_249\n        /* \"contracts/Template/Istanbul10/logic/Auction.sol\":3314:3322  getVault */\n      tag_62\n        /* \"contracts/Template/Istanbul10/logic/Auction.sol\":3314:3324  getVault() */\n      jump\t// in\n    tag_249:\n        /* \"contracts/Template/Istanbul10/logic/Auction.sol\":3314:3344  getVault().getEntireVaultState */\n      0xffffffffffffffffffffffffffffffffffffffff\n      and\n      0xd58bfa9d\n        /* \"contracts/Template/Istanbul10/logic/Auction.sol\":3314:3346  getVault().getEntireVaultState() */\n      mload(0x40)\n      dup2\n      0xffffffff\n      and\n      0xe0\n      shl\n      dup2\n      mstore\n      0x04\n      add\n      0x20\n      mload(0x40)\n      dup1\n      dup4\n      sub\n      dup2\n      dup7\n      dup1\n      extcodesize\n      iszero\n      dup1\n      iszero\n      tag_250\n      jumpi\n      0x00\n      dup1\n      revert\n    tag_250:\n      pop\n      gas\n      staticcall\n      iszero\n      dup1\n      iszero\n      tag_252\n      jumpi\n      returndatasize\n      0x00\n      dup1\n      returndatacopy\n      revert(0x00, returndatasize)\n    tag_252:\n      pop\n      pop\n      pop\n      pop\n      mload(0x40)\n      returndatasize\n      not(0x1f)\n      0x1f\n      dup3\n      add\n      and\n      dup3\n      add\n      dup1\n      0x40\n      mstore\n      pop\n      dup2\n      add\n      swap1\n      tag_253\n      swap2\n      swap1\n      tag_100\n      jump\t// in\n    tag_253:\n        /* \"contracts/Template/Istanbul10/logic/Auction.sol\":3314:3373  getVault().getEntireVaultState() == State.NftState.occupied */\n      0x02\n      dup2\n      gt\n      iszero\n      tag_254\n      jumpi\n      mstore(0x00, 0x4e487b7100000000000000000000000000000000000000000000000000000000)\n      mstore(0x04, 0x21)\n      revert(0x00, 0x24)\n    tag_254:\n      eq\n        /* \"contracts/Template/Istanbul10/logic/Auction.sol\":3314:3443  getVault().getEntireVaultState() == State.NftState.occupied && utilCompareInternal(getVault().getEntireVaultActivity(),\"Auction\") */\n      dup1\n      iszero\n      tag_255\n      jumpi\n      pop\n        /* \"contracts/Template/Istanbul10/logic/Auction.sol\":3377:3443  utilCompareInternal(getVault().getEntireVaultActivity(),\"Auction\") */\n      tag_256\n        /* \"contracts/Template/Istanbul10/logic/Auction.sol\":3397:3407  getVault() */\n      tag_257\n        /* \"contracts/Template/Istanbul10/logic/Auction.sol\":3397:3405  getVault */\n      tag_62\n        /* \"contracts/Template/Istanbul10/logic/Auction.sol\":3397:3407  getVault() */\n      jump\t// in\n    tag_257:\n        /* \"contracts/Template/Istanbul10/logic/Auction.sol\":3397:3430  getVault().getEntireVaultActivity */\n      0xffffffffffffffffffffffffffffffffffffffff\n      and\n      0x5ccb53df\n        /* \"contracts/Template/Istanbul10/logic/Auction.sol\":3397:3432  getVault().getEntireVaultActivity() */\n      mload(0x40)\n      dup2\n      0xffffffff\n      and\n      0xe0\n      shl\n      dup2\n      mstore\n      0x04\n      add\n      0x00\n      mload(0x40)\n      dup1\n      dup4\n      sub\n      dup2\n      dup7\n      dup1\n      extcodesize\n      iszero\n      dup1\n      iszero\n      tag_258\n      jumpi\n      0x00\n      dup1\n      revert\n    tag_258:\n      pop\n      gas\n      staticcall\n      iszero\n      dup1\n      iszero\n      tag_260\n      jumpi\n      returndatasize\n      0x00\n      dup1\n      returndatacopy\n      revert(0x00, returndatasize)\n    tag_260:\n      pop\n      pop\n      pop\n      pop\n      mload(0x40)\n      returndatasize\n      0x00\n      dup3\n      returndatacopy\n      returndatasize\n      not(0x1f)\n      0x1f\n      dup3\n      add\n      and\n      dup3\n      add\n      dup1\n      0x40\n      mstore\n      pop\n      dup2\n      add\n      swap1\n      tag_261\n      swap2\n      swap1\n      tag_109\n      jump\t// in\n    tag_261:\n        /* \"contracts/Template/Istanbul10/logic/Auction.sol\":3377:3443  utilCompareInternal(getVault().getEntireVaultActivity(),\"Auction\") */\n      mload(0x40)\n      dup1\n      0x40\n      add\n      0x40\n      mstore\n      dup1\n      0x07\n      dup2\n      mstore\n      0x20\n      add\n      0x41756374696f6e00000000000000000000000000000000000000000000000000\n      dup2\n      mstore\n      pop\n        /* \"contracts/Template/Istanbul10/logic/Auction.sol\":3377:3396  utilCompareInternal */\n      tag_69\n        /* \"contracts/Template/Istanbul10/logic/Auction.sol\":3377:3443  utilCompareInternal(getVault().getEntireVaultActivity(),\"Auction\") */\n      jump\t// in\n    tag_256:\n        /* \"contracts/Template/Istanbul10/logic/Auction.sol\":3314:3443  getVault().getEntireVaultState() == State.NftState.occupied && utilCompareInternal(getVault().getEntireVaultActivity(),\"Auction\") */\n    tag_255:\n        /* \"contracts/Template/Istanbul10/logic/Auction.sol\":3305:3480  require( getVault().getEntireVaultState() == State.NftState.occupied && utilCompareInternal(getVault().getEntireVaultActivity(),\"Auction\"), \"end :: vault has already closed\" ) */\n      tag_262\n      jumpi\n      mload(0x40)\n      0x08c379a000000000000000000000000000000000000000000000000000000000\n      dup2\n      mstore\n      0x04\n      add\n      tag_263\n      swap1\n      tag_264\n      jump\t// in\n    tag_263:\n      mload(0x40)\n      dup1\n      swap2\n      sub\n      swap1\n      revert\n    tag_262:\n        /* \"contracts/Template/Istanbul10/logic/Auction.sol\":3518:3528  auctionEnd */\n      sload(0x03)\n        /* \"contracts/Template/Istanbul10/logic/Auction.sol\":3499:3514  block.timestamp */\n      timestamp\n        /* \"contracts/Template/Istanbul10/logic/Auction.sol\":3499:3528  block.timestamp >= auctionEnd */\n      lt\n      iszero\n        /* \"contracts/Template/Istanbul10/logic/Auction.sol\":3491:3552  require(block.timestamp >= auctionEnd, \"end :: auction live\") */\n      tag_265\n      jumpi\n      mload(0x40)\n      0x08c379a000000000000000000000000000000000000000000000000000000000\n      dup2\n      mstore\n      0x04\n      add\n      tag_266\n      swap1\n      tag_267\n      jump\t// in\n    tag_266:\n      mload(0x40)\n      dup1\n      swap2\n      sub\n      swap1\n      revert\n    tag_265:\n        /* \"contracts/Template/Istanbul10/logic/Auction.sol\":3573:3579  router */\n      0x00\n      dup1\n      sload\n      swap1\n      0x0100\n      exp\n      swap1\n      div\n      0xffffffffffffffffffffffffffffffffffffffff\n      and\n        /* \"contracts/Template/Istanbul10/logic/Auction.sol\":3565:3590  IRouter(router).claimFees */\n      0xffffffffffffffffffffffffffffffffffffffff\n      and\n      0xd294f093\n        /* \"contracts/Template/Istanbul10/logic/Auction.sol\":3565:3592  IRouter(router).claimFees() */\n      mload(0x40)\n      dup2\n      0xffffffff\n      and\n      0xe0\n      shl\n      dup2\n      mstore\n      0x04\n      add\n      0x00\n      mload(0x40)\n      dup1\n      dup4\n      sub\n      dup2\n      0x00\n      dup8\n      dup1\n      extcodesize\n      iszero\n      dup1\n      iszero\n      tag_268\n      jumpi\n      0x00\n      dup1\n      revert\n    tag_268:\n      pop\n      gas\n      call\n      iszero\n      dup1\n      iszero\n      tag_270\n      jumpi\n      returndatasize\n      0x00\n      dup1\n      returndatacopy\n      revert(0x00, returndatasize)\n    tag_270:\n      pop\n      pop\n      pop\n      pop\n        /* \"contracts/Template/Istanbul10/logic/Auction.sol\":3640:3650  getVault() */\n      tag_271\n        /* \"contracts/Template/Istanbul10/logic/Auction.sol\":3640:3648  getVault */\n      tag_62\n        /* \"contracts/Template/Istanbul10/logic/Auction.sol\":3640:3650  getVault() */\n      jump\t// in\n    tag_271:\n        /* \"contracts/Template/Istanbul10/logic/Auction.sol\":3640:3668  getVault().sendNFTAssetIndex */\n      0xffffffffffffffffffffffffffffffffffffffff\n      and\n      0x94c5f3\n        /* \"contracts/Template/Istanbul10/logic/Auction.sol\":3669:3679  getVault() */\n      tag_272\n        /* \"contracts/Template/Istanbul10/logic/Auction.sol\":3669:3677  getVault */\n      tag_62\n        /* \"contracts/Template/Istanbul10/logic/Auction.sol\":3669:3679  getVault() */\n      jump\t// in\n    tag_272:\n        /* \"contracts/Template/Istanbul10/logic/Auction.sol\":3669:3693  getVault().getFreedomNFT */\n      0xffffffffffffffffffffffffffffffffffffffff\n      and\n      0x634f6319\n        /* \"contracts/Template/Istanbul10/logic/Auction.sol\":3669:3695  getVault().getFreedomNFT() */\n      mload(0x40)\n      dup2\n      0xffffffff\n      and\n      0xe0\n      shl\n      dup2\n      mstore\n      0x04\n      add\n      0x00\n      mload(0x40)\n      dup1\n      dup4\n      sub\n      dup2\n      dup7\n      dup1\n      extcodesize\n      iszero\n      dup1\n      iszero\n      tag_273\n      jumpi\n      0x00\n      dup1\n      revert\n    tag_273:\n      pop\n      gas\n      staticcall\n      iszero\n      dup1\n      iszero\n      tag_275\n      jumpi\n      returndatasize\n      0x00\n      dup1\n      returndatacopy\n      revert(0x00, returndatasize)\n    tag_275:\n      pop\n      pop\n      pop\n      pop\n      mload(0x40)\n      returndatasize\n      0x00\n      dup3\n      returndatacopy\n      returndatasize\n      not(0x1f)\n      0x1f\n      dup3\n      add\n      and\n      dup3\n      add\n      dup1\n      0x40\n      mstore\n      pop\n      dup2\n      add\n      swap1\n      tag_276\n      swap2\n      swap1\n      tag_277\n      jump\t// in\n    tag_276:\n        /* \"contracts/Template/Istanbul10/logic/Auction.sol\":3696:3703  winning */\n      0x05\n      0x00\n      swap1\n      sload\n      swap1\n      0x0100\n      exp\n      swap1\n      div\n      0xffffffffffffffffffffffffffffffffffffffff\n      and\n        /* \"contracts/Template/Istanbul10/logic/Auction.sol\":3640:3704  getVault().sendNFTAssetIndex(getVault().getFreedomNFT(),winning) */\n      mload(0x40)\n      dup4\n      0xffffffff\n      and\n      0xe0\n      shl\n      dup2\n      mstore\n      0x04\n      add\n      tag_278\n      swap3\n      swap2\n      swap1\n      tag_279\n      jump\t// in\n    tag_278:\n      0x00\n      mload(0x40)\n      dup1\n      dup4\n      sub\n      dup2\n      0x00\n      dup8\n      dup1\n      extcodesize\n      iszero\n      dup1\n      iszero\n      tag_280\n      jumpi\n      0x00\n      dup1\n      revert\n    tag_280:\n      pop\n      gas\n      call\n      iszero\n      dup1\n      iszero\n      tag_282\n      jumpi\n      returndatasize\n      0x00\n      dup1\n      returndatacopy\n      revert(0x00, returndatasize)\n    tag_282:\n      pop\n      pop\n      pop\n      pop\n        /* \"contracts/Template/Istanbul10/logic/Auction.sol\":3717:3727  getVault() */\n      tag_283\n        /* \"contracts/Template/Istanbul10/logic/Auction.sol\":3717:3725  getVault */\n      tag_62\n        /* \"contracts/Template/Istanbul10/logic/Auction.sol\":3717:3727  getVault() */\n      jump\t// in\n    tag_283:\n        /* \"contracts/Template/Istanbul10/logic/Auction.sol\":3717:3740  getVault().safeSetState */\n      0xffffffffffffffffffffffffffffffffffffffff\n      and\n      0xe77ae39b\n        /* \"contracts/Template/Istanbul10/logic/Auction.sol\":3749:3750  0 */\n      0x00\n        /* \"contracts/Template/Istanbul10/logic/Auction.sol\":3752:3753  0 */\n      dup1\n        /* \"contracts/Template/Istanbul10/logic/Auction.sol\":3754:3774  State.NftState.leave */\n      0x02\n        /* \"contracts/Template/Istanbul10/logic/Auction.sol\":3717:3785  getVault().safeSetState(address(0),0,State.NftState.leave,\"Auction\") */\n      mload(0x40)\n      dup5\n      0xffffffff\n      and\n      0xe0\n      shl\n      dup2\n      mstore\n      0x04\n      add\n      tag_284\n      swap4\n      swap3\n      swap2\n      swap1\n      tag_235\n      jump\t// in\n    tag_284:\n      0x00\n      mload(0x40)\n      dup1\n      dup4\n      sub\n      dup2\n      0x00\n      dup8\n      dup1\n      extcodesize\n      iszero\n      dup1\n      iszero\n      tag_285\n      jumpi\n      0x00\n      dup1\n      revert\n    tag_285:\n      pop\n      gas\n      call\n      iszero\n      dup1\n      iszero\n      tag_287\n      jumpi\n      returndatasize\n      0x00\n      dup1\n      returndatacopy\n      revert(0x00, returndatasize)\n    tag_287:\n      pop\n      pop\n      pop\n      pop\n        /* \"contracts/Template/Istanbul10/logic/Auction.sol\":3805:3812  winning */\n      0x05\n      0x00\n      swap1\n      sload\n      swap1\n      0x0100\n      exp\n      swap1\n      div\n      0xffffffffffffffffffffffffffffffffffffffff\n      and\n        /* \"contracts/Template/Istanbul10/logic/Auction.sol\":3801:3824  Won(winning, livePrice) */\n      0xffffffffffffffffffffffffffffffffffffffff\n      and\n      0x8b01f9dd0400d6a1e84369a5fb8f6033934856ffa8ebadd707dca302ab551695\n        /* \"contracts/Template/Istanbul10/logic/Auction.sol\":3814:3823  livePrice */\n      sload(0x04)\n        /* \"contracts/Template/Istanbul10/logic/Auction.sol\":3801:3824  Won(winning, livePrice) */\n      mload(0x40)\n      tag_288\n      swap2\n      swap1\n      tag_28\n      jump\t// in\n    tag_288:\n      mload(0x40)\n      dup1\n      swap2\n      sub\n      swap1\n      log2\n        /* \"contracts/Template/Istanbul10/logic/Auction.sol\":3261:3832  function end() override external {\r... */\n      jump\t// out\n        /* \"contracts/Template/Istanbul10/data/AuctionData.sol\":208:238  address override public router */\n    tag_91:\n      0x00\n      dup1\n      sload\n      swap1\n      0x0100\n      exp\n      swap1\n      div\n      0xffffffffffffffffffffffffffffffffffffffff\n      and\n      dup2\n      jump\t// out\n        /* \"#utility.yul\":24:668   */\n    tag_290:\n      0x00\n        /* \"#utility.yul\":156:236   */\n      tag_292\n        /* \"#utility.yul\":171:235   */\n      tag_293\n        /* \"#utility.yul\":228:234   */\n      dup5\n        /* \"#utility.yul\":171:235   */\n      tag_294\n      jump\t// in\n    tag_293:\n        /* \"#utility.yul\":156:236   */\n      tag_295\n      jump\t// in\n    tag_292:\n        /* \"#utility.yul\":147:236   */\n      swap1\n      pop\n        /* \"#utility.yul\":256:261   */\n      dup1\n        /* \"#utility.yul\":284:290   */\n      dup4\n        /* \"#utility.yul\":277:282   */\n      dup3\n        /* \"#utility.yul\":270:291   */\n      mstore\n        /* \"#utility.yul\":310:314   */\n      0x20\n        /* \"#utility.yul\":303:308   */\n      dup3\n        /* \"#utility.yul\":299:315   */\n      add\n        /* \"#utility.yul\":292:315   */\n      swap1\n      pop\n        /* \"#utility.yul\":335:341   */\n      dup3\n        /* \"#utility.yul\":385:388   */\n      dup6\n        /* \"#utility.yul\":377:381   */\n      0x20\n        /* \"#utility.yul\":369:375   */\n      dup7\n        /* \"#utility.yul\":365:382   */\n      mul\n        /* \"#utility.yul\":360:363   */\n      dup3\n        /* \"#utility.yul\":356:383   */\n      add\n        /* \"#utility.yul\":353:389   */\n      gt\n        /* \"#utility.yul\":350:352   */\n      iszero\n      tag_296\n      jumpi\n        /* \"#utility.yul\":402:403   */\n      0x00\n        /* \"#utility.yul\":399:400   */\n      dup1\n        /* \"#utility.yul\":392:404   */\n      revert\n        /* \"#utility.yul\":350:352   */\n    tag_296:\n        /* \"#utility.yul\":430:431   */\n      0x00\n        /* \"#utility.yul\":415:662   */\n    tag_297:\n        /* \"#utility.yul\":440:446   */\n      dup6\n        /* \"#utility.yul\":437:438   */\n      dup2\n        /* \"#utility.yul\":434:447   */\n      lt\n        /* \"#utility.yul\":415:662   */\n      iszero\n      tag_299\n      jumpi\n        /* \"#utility.yul\":507:510   */\n      dup2\n        /* \"#utility.yul\":535:583   */\n      tag_300\n        /* \"#utility.yul\":579:582   */\n      dup9\n        /* \"#utility.yul\":567:577   */\n      dup3\n        /* \"#utility.yul\":535:583   */\n      tag_301\n      jump\t// in\n    tag_300:\n        /* \"#utility.yul\":530:533   */\n      dup5\n        /* \"#utility.yul\":523:584   */\n      mstore\n        /* \"#utility.yul\":613:617   */\n      0x20\n        /* \"#utility.yul\":608:611   */\n      dup5\n        /* \"#utility.yul\":604:618   */\n      add\n        /* \"#utility.yul\":597:618   */\n      swap4\n      pop\n        /* \"#utility.yul\":647:651   */\n      0x20\n        /* \"#utility.yul\":642:645   */\n      dup4\n        /* \"#utility.yul\":638:652   */\n      add\n        /* \"#utility.yul\":631:652   */\n      swap3\n      pop\n        /* \"#utility.yul\":475:662   */\n      pop\n        /* \"#utility.yul\":462:463   */\n      0x01\n        /* \"#utility.yul\":459:460   */\n      dup2\n        /* \"#utility.yul\":455:464   */\n      add\n        /* \"#utility.yul\":450:464   */\n      swap1\n      pop\n        /* \"#utility.yul\":415:662   */\n      jump(tag_297)\n    tag_299:\n        /* \"#utility.yul\":419:433   */\n      pop\n        /* \"#utility.yul\":137:668   */\n      pop\n      pop\n      swap4\n      swap3\n      pop\n      pop\n      pop\n      jump\t// out\n        /* \"#utility.yul\":674:1018   */\n    tag_302:\n      0x00\n        /* \"#utility.yul\":777:842   */\n      tag_304\n        /* \"#utility.yul\":792:841   */\n      tag_305\n        /* \"#utility.yul\":834:840   */\n      dup5\n        /* \"#utility.yul\":792:841   */\n      tag_306\n      jump\t// in\n    tag_305:\n        /* \"#utility.yul\":777:842   */\n      tag_295\n      jump\t// in\n    tag_304:\n        /* \"#utility.yul\":768:842   */\n      swap1\n      pop\n        /* \"#utility.yul\":865:871   */\n      dup3\n        /* \"#utility.yul\":858:863   */\n      dup2\n        /* \"#utility.yul\":851:872   */\n      mstore\n        /* \"#utility.yul\":903:907   */\n      0x20\n        /* \"#utility.yul\":896:901   */\n      dup2\n        /* \"#utility.yul\":892:908   */\n      add\n        /* \"#utility.yul\":941:944   */\n      dup5\n        /* \"#utility.yul\":932:938   */\n      dup5\n        /* \"#utility.yul\":927:930   */\n      dup5\n        /* \"#utility.yul\":923:939   */\n      add\n        /* \"#utility.yul\":920:945   */\n      gt\n        /* \"#utility.yul\":917:919   */\n      iszero\n      tag_307\n      jumpi\n        /* \"#utility.yul\":958:959   */\n      0x00\n        /* \"#utility.yul\":955:956   */\n      dup1\n        /* \"#utility.yul\":948:960   */\n      revert\n        /* \"#utility.yul\":917:919   */\n    tag_307:\n        /* \"#utility.yul\":971:1012   */\n      tag_308\n        /* \"#utility.yul\":1005:1011   */\n      dup5\n        /* \"#utility.yul\":1000:1003   */\n      dup3\n        /* \"#utility.yul\":995:998   */\n      dup6\n        /* \"#utility.yul\":971:1012   */\n      tag_309\n      jump\t// in\n    tag_308:\n        /* \"#utility.yul\":758:1018   */\n      pop\n      swap4\n      swap3\n      pop\n      pop\n      pop\n      jump\t// out\n        /* \"#utility.yul\":1024:1377   */\n    tag_310:\n      0x00\n        /* \"#utility.yul\":1138:1203   */\n      tag_312\n        /* \"#utility.yul\":1153:1202   */\n      tag_313\n        /* \"#utility.yul\":1195:1201   */\n      dup5\n        /* \"#utility.yul\":1153:1202   */\n      tag_306\n      jump\t// in\n    tag_313:\n        /* \"#utility.yul\":1138:1203   */\n      tag_295\n      jump\t// in\n    tag_312:\n        /* \"#utility.yul\":1129:1203   */\n      swap1\n      pop\n        /* \"#utility.yul\":1226:1232   */\n      dup3\n        /* \"#utility.yul\":1219:1224   */\n      dup2\n        /* \"#utility.yul\":1212:1233   */\n      mstore\n        /* \"#utility.yul\":1264:1268   */\n      0x20\n        /* \"#utility.yul\":1257:1262   */\n      dup2\n        /* \"#utility.yul\":1253:1269   */\n      add\n        /* \"#utility.yul\":1302:1305   */\n      dup5\n        /* \"#utility.yul\":1293:1299   */\n      dup5\n        /* \"#utility.yul\":1288:1291   */\n      dup5\n        /* \"#utility.yul\":1284:1300   */\n      add\n        /* \"#utility.yul\":1281:1306   */\n      gt\n        /* \"#utility.yul\":1278:1280   */\n      iszero\n      tag_314\n      jumpi\n        /* \"#utility.yul\":1319:1320   */\n      0x00\n        /* \"#utility.yul\":1316:1317   */\n      dup1\n        /* \"#utility.yul\":1309:1321   */\n      revert\n        /* \"#utility.yul\":1278:1280   */\n    tag_314:\n        /* \"#utility.yul\":1332:1371   */\n      tag_315\n        /* \"#utility.yul\":1364:1370   */\n      dup5\n        /* \"#utility.yul\":1359:1362   */\n      dup3\n        /* \"#utility.yul\":1354:1357   */\n      dup6\n        /* \"#utility.yul\":1332:1371   */\n      tag_316\n      jump\t// in\n    tag_315:\n        /* \"#utility.yul\":1119:1377   */\n      pop\n      swap4\n      swap3\n      pop\n      pop\n      pop\n      jump\t// out\n        /* \"#utility.yul\":1383:1526   */\n    tag_317:\n      0x00\n        /* \"#utility.yul\":1471:1477   */\n      dup2\n        /* \"#utility.yul\":1465:1478   */\n      mload\n        /* \"#utility.yul\":1456:1478   */\n      swap1\n      pop\n        /* \"#utility.yul\":1487:1520   */\n      tag_319\n        /* \"#utility.yul\":1514:1519   */\n      dup2\n        /* \"#utility.yul\":1487:1520   */\n      tag_320\n      jump\t// in\n    tag_319:\n        /* \"#utility.yul\":1446:1526   */\n      swap3\n      swap2\n      pop\n      pop\n      jump\t// out\n        /* \"#utility.yul\":1549:1867   */\n    tag_321:\n      0x00\n        /* \"#utility.yul\":1680:1683   */\n      dup3\n        /* \"#utility.yul\":1673:1677   */\n      0x1f\n        /* \"#utility.yul\":1665:1671   */\n      dup4\n        /* \"#utility.yul\":1661:1678   */\n      add\n        /* \"#utility.yul\":1657:1684   */\n      slt\n        /* \"#utility.yul\":1647:1649   */\n      tag_323\n      jumpi\n        /* \"#utility.yul\":1698:1699   */\n      0x00\n        /* \"#utility.yul\":1695:1696   */\n      dup1\n        /* \"#utility.yul\":1688:1700   */\n      revert\n        /* \"#utility.yul\":1647:1649   */\n    tag_323:\n        /* \"#utility.yul\":1731:1737   */\n      dup2\n        /* \"#utility.yul\":1725:1738   */\n      mload\n        /* \"#utility.yul\":1756:1861   */\n      tag_324\n        /* \"#utility.yul\":1857:1860   */\n      dup5\n        /* \"#utility.yul\":1849:1855   */\n      dup3\n        /* \"#utility.yul\":1842:1846   */\n      0x20\n        /* \"#utility.yul\":1834:1840   */\n      dup7\n        /* \"#utility.yul\":1830:1847   */\n      add\n        /* \"#utility.yul\":1756:1861   */\n      tag_290\n      jump\t// in\n    tag_324:\n        /* \"#utility.yul\":1747:1861   */\n      swap2\n      pop\n        /* \"#utility.yul\":1637:1867   */\n      pop\n      swap3\n      swap2\n      pop\n      pop\n      jump\t// out\n        /* \"#utility.yul\":1873:2010   */\n    tag_325:\n      0x00\n        /* \"#utility.yul\":1958:1964   */\n      dup2\n        /* \"#utility.yul\":1952:1965   */\n      mload\n        /* \"#utility.yul\":1943:1965   */\n      swap1\n      pop\n        /* \"#utility.yul\":1974:2004   */\n      tag_327\n        /* \"#utility.yul\":1998:2003   */\n      dup2\n        /* \"#utility.yul\":1974:2004   */\n      tag_328\n      jump\t// in\n    tag_327:\n        /* \"#utility.yul\":1933:2010   */\n      swap3\n      swap2\n      pop\n      pop\n      jump\t// out\n        /* \"#utility.yul\":2016:2185   */\n    tag_329:\n      0x00\n        /* \"#utility.yul\":2117:2123   */\n      dup2\n        /* \"#utility.yul\":2111:2124   */\n      mload\n        /* \"#utility.yul\":2102:2124   */\n      swap1\n      pop\n        /* \"#utility.yul\":2133:2179   */\n      tag_331\n        /* \"#utility.yul\":2173:2178   */\n      dup2\n        /* \"#utility.yul\":2133:2179   */\n      tag_332\n      jump\t// in\n    tag_331:\n        /* \"#utility.yul\":2092:2185   */\n      swap3\n      swap2\n      pop\n      pop\n      jump\t// out\n        /* \"#utility.yul\":2205:2478   */\n    tag_333:\n      0x00\n        /* \"#utility.yul\":2310:2313   */\n      dup3\n        /* \"#utility.yul\":2303:2307   */\n      0x1f\n        /* \"#utility.yul\":2295:2301   */\n      dup4\n        /* \"#utility.yul\":2291:2308   */\n      add\n        /* \"#utility.yul\":2287:2314   */\n      slt\n        /* \"#utility.yul\":2277:2279   */\n      tag_335\n      jumpi\n        /* \"#utility.yul\":2328:2329   */\n      0x00\n        /* \"#utility.yul\":2325:2326   */\n      dup1\n        /* \"#utility.yul\":2318:2330   */\n      revert\n        /* \"#utility.yul\":2277:2279   */\n    tag_335:\n        /* \"#utility.yul\":2368:2374   */\n      dup2\n        /* \"#utility.yul\":2355:2375   */\n      calldataload\n        /* \"#utility.yul\":2393:2472   */\n      tag_336\n        /* \"#utility.yul\":2468:2471   */\n      dup5\n        /* \"#utility.yul\":2460:2466   */\n      dup3\n        /* \"#utility.yul\":2453:2457   */\n      0x20\n        /* \"#utility.yul\":2445:2451   */\n      dup7\n        /* \"#utility.yul\":2441:2458   */\n      add\n        /* \"#utility.yul\":2393:2472   */\n      tag_302\n      jump\t// in\n    tag_336:\n        /* \"#utility.yul\":2384:2472   */\n      swap2\n      pop\n        /* \"#utility.yul\":2267:2478   */\n      pop\n      swap3\n      swap2\n      pop\n      pop\n      jump\t// out\n        /* \"#utility.yul\":2498:2786   */\n    tag_337:\n      0x00\n        /* \"#utility.yul\":2614:2617   */\n      dup3\n        /* \"#utility.yul\":2607:2611   */\n      0x1f\n        /* \"#utility.yul\":2599:2605   */\n      dup4\n        /* \"#utility.yul\":2595:2612   */\n      add\n        /* \"#utility.yul\":2591:2618   */\n      slt\n        /* \"#utility.yul\":2581:2583   */\n      tag_339\n      jumpi\n        /* \"#utility.yul\":2632:2633   */\n      0x00\n        /* \"#utility.yul\":2629:2630   */\n      dup1\n        /* \"#utility.yul\":2622:2634   */\n      revert\n        /* \"#utility.yul\":2581:2583   */\n    tag_339:\n        /* \"#utility.yul\":2665:2671   */\n      dup2\n        /* \"#utility.yul\":2659:2672   */\n      mload\n        /* \"#utility.yul\":2690:2780   */\n      tag_340\n        /* \"#utility.yul\":2776:2779   */\n      dup5\n        /* \"#utility.yul\":2768:2774   */\n      dup3\n        /* \"#utility.yul\":2761:2765   */\n      0x20\n        /* \"#utility.yul\":2753:2759   */\n      dup7\n        /* \"#utility.yul\":2749:2766   */\n      add\n        /* \"#utility.yul\":2690:2780   */\n      tag_310\n      jump\t// in\n    tag_340:\n        /* \"#utility.yul\":2681:2780   */\n      swap2\n      pop\n        /* \"#utility.yul\":2571:2786   */\n      pop\n      swap3\n      swap2\n      pop\n      pop\n      jump\t// out\n        /* \"#utility.yul\":2792:2931   */\n    tag_341:\n      0x00\n        /* \"#utility.yul\":2876:2882   */\n      dup2\n        /* \"#utility.yul\":2863:2883   */\n      calldataload\n        /* \"#utility.yul\":2854:2883   */\n      swap1\n      pop\n        /* \"#utility.yul\":2892:2925   */\n      tag_343\n        /* \"#utility.yul\":2919:2924   */\n      dup2\n        /* \"#utility.yul\":2892:2925   */\n      tag_344\n      jump\t// in\n    tag_343:\n        /* \"#utility.yul\":2844:2931   */\n      swap3\n      swap2\n      pop\n      pop\n      jump\t// out\n        /* \"#utility.yul\":2937:3080   */\n    tag_301:\n      0x00\n        /* \"#utility.yul\":3025:3031   */\n      dup2\n        /* \"#utility.yul\":3019:3032   */\n      mload\n        /* \"#utility.yul\":3010:3032   */\n      swap1\n      pop\n        /* \"#utility.yul\":3041:3074   */\n      tag_346\n        /* \"#utility.yul\":3068:3073   */\n      dup2\n        /* \"#utility.yul\":3041:3074   */\n      tag_344\n      jump\t// in\n    tag_346:\n        /* \"#utility.yul\":3000:3080   */\n      swap3\n      swap2\n      pop\n      pop\n      jump\t// out\n        /* \"#utility.yul\":3086:3370   */\n    tag_159:\n      0x00\n        /* \"#utility.yul\":3205:3207   */\n      0x20\n        /* \"#utility.yul\":3193:3202   */\n      dup3\n        /* \"#utility.yul\":3184:3191   */\n      dup5\n        /* \"#utility.yul\":3180:3203   */\n      sub\n        /* \"#utility.yul\":3176:3208   */\n      slt\n        /* \"#utility.yul\":3173:3175   */\n      iszero\n      tag_348\n      jumpi\n        /* \"#utility.yul\":3221:3222   */\n      0x00\n        /* \"#utility.yul\":3218:3219   */\n      dup1\n        /* \"#utility.yul\":3211:3223   */\n      revert\n        /* \"#utility.yul\":3173:3175   */\n    tag_348:\n        /* \"#utility.yul\":3264:3265   */\n      0x00\n        /* \"#utility.yul\":3289:3353   */\n      tag_349\n        /* \"#utility.yul\":3345:3352   */\n      dup5\n        /* \"#utility.yul\":3336:3342   */\n      dup3\n        /* \"#utility.yul\":3325:3334   */\n      dup6\n        /* \"#utility.yul\":3321:3343   */\n      add\n        /* \"#utility.yul\":3289:3353   */\n      tag_317\n      jump\t// in\n    tag_349:\n        /* \"#utility.yul\":3279:3353   */\n      swap2\n      pop\n        /* \"#utility.yul\":3235:3363   */\n      pop\n        /* \"#utility.yul\":3163:3370   */\n      swap3\n      swap2\n      pop\n      pop\n      jump\t// out\n        /* \"#utility.yul\":3376:3796   */\n    tag_277:\n      0x00\n        /* \"#utility.yul\":3520:3522   */\n      0x20\n        /* \"#utility.yul\":3508:3517   */\n      dup3\n        /* \"#utility.yul\":3499:3506   */\n      dup5\n        /* \"#utility.yul\":3495:3518   */\n      sub\n        /* \"#utility.yul\":3491:3523   */\n      slt\n        /* \"#utility.yul\":3488:3490   */\n      iszero\n      tag_351\n      jumpi\n        /* \"#utility.yul\":3536:3537   */\n      0x00\n        /* \"#utility.yul\":3533:3534   */\n      dup1\n        /* \"#utility.yul\":3526:3538   */\n      revert\n        /* \"#utility.yul\":3488:3490   */\n    tag_351:\n        /* \"#utility.yul\":3600:3601   */\n      0x00\n        /* \"#utility.yul\":3589:3598   */\n      dup3\n        /* \"#utility.yul\":3585:3602   */\n      add\n        /* \"#utility.yul\":3579:3603   */\n      mload\n        /* \"#utility.yul\":3630:3648   */\n      0xffffffffffffffff\n        /* \"#utility.yul\":3622:3628   */\n      dup2\n        /* \"#utility.yul\":3619:3649   */\n      gt\n        /* \"#utility.yul\":3616:3618   */\n      iszero\n      tag_352\n      jumpi\n        /* \"#utility.yul\":3662:3663   */\n      0x00\n        /* \"#utility.yul\":3659:3660   */\n      dup1\n        /* \"#utility.yul\":3652:3664   */\n      revert\n        /* \"#utility.yul\":3616:3618   */\n    tag_352:\n        /* \"#utility.yul\":3690:3779   */\n      tag_353\n        /* \"#utility.yul\":3771:3778   */\n      dup5\n        /* \"#utility.yul\":3762:3768   */\n      dup3\n        /* \"#utility.yul\":3751:3760   */\n      dup6\n        /* \"#utility.yul\":3747:3769   */\n      add\n        /* \"#utility.yul\":3690:3779   */\n      tag_321\n      jump\t// in\n    tag_353:\n        /* \"#utility.yul\":3680:3779   */\n      swap2\n      pop\n        /* \"#utility.yul\":3550:3789   */\n      pop\n        /* \"#utility.yul\":3478:3796   */\n      swap3\n      swap2\n      pop\n      pop\n      jump\t// out\n        /* \"#utility.yul\":3802:4080   */\n    tag_210:\n      0x00\n        /* \"#utility.yul\":3918:3920   */\n      0x20\n        /* \"#utility.yul\":3906:3915   */\n      dup3\n        /* \"#utility.yul\":3897:3904   */\n      dup5\n        /* \"#utility.yul\":3893:3916   */\n      sub\n        /* \"#utility.yul\":3889:3921   */\n      slt\n        /* \"#utility.yul\":3886:3888   */\n      iszero\n      tag_355\n      jumpi\n        /* \"#utility.yul\":3934:3935   */\n      0x00\n        /* \"#utility.yul\":3931:3932   */\n      dup1\n        /* \"#utility.yul\":3924:3936   */\n      revert\n        /* \"#utility.yul\":3886:3888   */\n    tag_355:\n        /* \"#utility.yul\":3977:3978   */\n      0x00\n        /* \"#utility.yul\":4002:4063   */\n      tag_356\n        /* \"#utility.yul\":4055:4062   */\n      dup5\n        /* \"#utility.yul\":4046:4052   */\n      dup3\n        /* \"#utility.yul\":4035:4044   */\n      dup6\n        /* \"#utility.yul\":4031:4053   */\n      add\n        /* \"#utility.yul\":4002:4063   */\n      tag_325\n      jump\t// in\n    tag_356:\n        /* \"#utility.yul\":3992:4063   */\n      swap2\n      pop\n        /* \"#utility.yul\":3948:4073   */\n      pop\n        /* \"#utility.yul\":3876:4080   */\n      swap3\n      swap2\n      pop\n      pop\n      jump\t// out\n        /* \"#utility.yul\":4086:4396   */\n    tag_100:\n      0x00\n        /* \"#utility.yul\":4218:4220   */\n      0x20\n        /* \"#utility.yul\":4206:4215   */\n      dup3\n        /* \"#utility.yul\":4197:4204   */\n      dup5\n        /* \"#utility.yul\":4193:4216   */\n      sub\n        /* \"#utility.yul\":4189:4221   */\n      slt\n        /* \"#utility.yul\":4186:4188   */\n      iszero\n      tag_358\n      jumpi\n        /* \"#utility.yul\":4234:4235   */\n      0x00\n        /* \"#utility.yul\":4231:4232   */\n      dup1\n        /* \"#utility.yul\":4224:4236   */\n      revert\n        /* \"#utility.yul\":4186:4188   */\n    tag_358:\n        /* \"#utility.yul\":4277:4278   */\n      0x00\n        /* \"#utility.yul\":4302:4379   */\n      tag_359\n        /* \"#utility.yul\":4371:4378   */\n      dup5\n        /* \"#utility.yul\":4362:4368   */\n      dup3\n        /* \"#utility.yul\":4351:4360   */\n      dup6\n        /* \"#utility.yul\":4347:4369   */\n      add\n        /* \"#utility.yul\":4302:4379   */\n      tag_329\n      jump\t// in\n    tag_359:\n        /* \"#utility.yul\":4292:4379   */\n      swap2\n      pop\n        /* \"#utility.yul\":4248:4389   */\n      pop\n        /* \"#utility.yul\":4176:4396   */\n      swap3\n      swap2\n      pop\n      pop\n      jump\t// out\n        /* \"#utility.yul\":4402:4792   */\n    tag_109:\n      0x00\n        /* \"#utility.yul\":4531:4533   */\n      0x20\n        /* \"#utility.yul\":4519:4528   */\n      dup3\n        /* \"#utility.yul\":4510:4517   */\n      dup5\n        /* \"#utility.yul\":4506:4529   */\n      sub\n        /* \"#utility.yul\":4502:4534   */\n      slt\n        /* \"#utility.yul\":4499:4501   */\n      iszero\n      tag_361\n      jumpi\n        /* \"#utility.yul\":4547:4548   */\n      0x00\n        /* \"#utility.yul\":4544:4545   */\n      dup1\n        /* \"#utility.yul\":4537:4549   */\n      revert\n        /* \"#utility.yul\":4499:4501   */\n    tag_361:\n        /* \"#utility.yul\":4611:4612   */\n      0x00\n        /* \"#utility.yul\":4600:4609   */\n      dup3\n        /* \"#utility.yul\":4596:4613   */\n      add\n        /* \"#utility.yul\":4590:4614   */\n      mload\n        /* \"#utility.yul\":4641:4659   */\n      0xffffffffffffffff\n        /* \"#utility.yul\":4633:4639   */\n      dup2\n        /* \"#utility.yul\":4630:4660   */\n      gt\n        /* \"#utility.yul\":4627:4629   */\n      iszero\n      tag_362\n      jumpi\n        /* \"#utility.yul\":4673:4674   */\n      0x00\n        /* \"#utility.yul\":4670:4671   */\n      dup1\n        /* \"#utility.yul\":4663:4675   */\n      revert\n        /* \"#utility.yul\":4627:4629   */\n    tag_362:\n        /* \"#utility.yul\":4701:4775   */\n      tag_363\n        /* \"#utility.yul\":4767:4774   */\n      dup5\n        /* \"#utility.yul\":4758:4764   */\n      dup3\n        /* \"#utility.yul\":4747:4756   */\n      dup6\n        /* \"#utility.yul\":4743:4765   */\n      add\n        /* \"#utility.yul\":4701:4775   */\n      tag_337\n      jump\t// in\n    tag_363:\n        /* \"#utility.yul\":4691:4775   */\n      swap2\n      pop\n        /* \"#utility.yul\":4561:4785   */\n      pop\n        /* \"#utility.yul\":4489:4792   */\n      swap3\n      swap2\n      pop\n      pop\n      jump\t// out\n        /* \"#utility.yul\":4798:5431   */\n    tag_68:\n      0x00\n      dup1\n        /* \"#utility.yul\":4943:4945   */\n      0x40\n        /* \"#utility.yul\":4931:4940   */\n      dup4\n        /* \"#utility.yul\":4922:4929   */\n      dup6\n        /* \"#utility.yul\":4918:4941   */\n      sub\n        /* \"#utility.yul\":4914:4946   */\n      slt\n        /* \"#utility.yul\":4911:4913   */\n      iszero\n      tag_365\n      jumpi\n        /* \"#utility.yul\":4959:4960   */\n      0x00\n        /* \"#utility.yul\":4956:4957   */\n      dup1\n        /* \"#utility.yul\":4949:4961   */\n      revert\n        /* \"#utility.yul\":4911:4913   */\n    tag_365:\n        /* \"#utility.yul\":5030:5031   */\n      0x00\n        /* \"#utility.yul\":5019:5028   */\n      dup4\n        /* \"#utility.yul\":5015:5032   */\n      add\n        /* \"#utility.yul\":5002:5033   */\n      calldataload\n        /* \"#utility.yul\":5060:5078   */\n      0xffffffffffffffff\n        /* \"#utility.yul\":5052:5058   */\n      dup2\n        /* \"#utility.yul\":5049:5079   */\n      gt\n        /* \"#utility.yul\":5046:5048   */\n      iszero\n      tag_366\n      jumpi\n        /* \"#utility.yul\":5092:5093   */\n      0x00\n        /* \"#utility.yul\":5089:5090   */\n      dup1\n        /* \"#utility.yul\":5082:5094   */\n      revert\n        /* \"#utility.yul\":5046:5048   */\n    tag_366:\n        /* \"#utility.yul\":5120:5183   */\n      tag_367\n        /* \"#utility.yul\":5175:5182   */\n      dup6\n        /* \"#utility.yul\":5166:5172   */\n      dup3\n        /* \"#utility.yul\":5155:5164   */\n      dup7\n        /* \"#utility.yul\":5151:5173   */\n      add\n        /* \"#utility.yul\":5120:5183   */\n      tag_333\n      jump\t// in\n    tag_367:\n        /* \"#utility.yul\":5110:5183   */\n      swap3\n      pop\n        /* \"#utility.yul\":4973:5193   */\n      pop\n        /* \"#utility.yul\":5260:5262   */\n      0x20\n        /* \"#utility.yul\":5249:5258   */\n      dup4\n        /* \"#utility.yul\":5245:5263   */\n      add\n        /* \"#utility.yul\":5232:5264   */\n      calldataload\n        /* \"#utility.yul\":5291:5309   */\n      0xffffffffffffffff\n        /* \"#utility.yul\":5283:5289   */\n      dup2\n        /* \"#utility.yul\":5280:5310   */\n      gt\n        /* \"#utility.yul\":5277:5279   */\n      iszero\n      tag_368\n      jumpi\n        /* \"#utility.yul\":5323:5324   */\n      0x00\n        /* \"#utility.yul\":5320:5321   */\n      dup1\n        /* \"#utility.yul\":5313:5325   */\n      revert\n        /* \"#utility.yul\":5277:5279   */\n    tag_368:\n        /* \"#utility.yul\":5351:5414   */\n      tag_369\n        /* \"#utility.yul\":5406:5413   */\n      dup6\n        /* \"#utility.yul\":5397:5403   */\n      dup3\n        /* \"#utility.yul\":5386:5395   */\n      dup7\n        /* \"#utility.yul\":5382:5404   */\n      add\n        /* \"#utility.yul\":5351:5414   */\n      tag_333\n      jump\t// in\n    tag_369:\n        /* \"#utility.yul\":5341:5414   */\n      swap2\n      pop\n        /* \"#utility.yul\":5203:5424   */\n      pop\n        /* \"#utility.yul\":4901:5431   */\n      swap3\n      pop\n      swap3\n      swap1\n      pop\n      jump\t// out\n        /* \"#utility.yul\":5437:5699   */\n    tag_32:\n      0x00\n        /* \"#utility.yul\":5545:5547   */\n      0x20\n        /* \"#utility.yul\":5533:5542   */\n      dup3\n        /* \"#utility.yul\":5524:5531   */\n      dup5\n        /* \"#utility.yul\":5520:5543   */\n      sub\n        /* \"#utility.yul\":5516:5548   */\n      slt\n        /* \"#utility.yul\":5513:5515   */\n      iszero\n      tag_371\n      jumpi\n        /* \"#utility.yul\":5561:5562   */\n      0x00\n        /* \"#utility.yul\":5558:5559   */\n      dup1\n        /* \"#utility.yul\":5551:5563   */\n      revert\n        /* \"#utility.yul\":5513:5515   */\n    tag_371:\n        /* \"#utility.yul\":5604:5605   */\n      0x00\n        /* \"#utility.yul\":5629:5682   */\n      tag_372\n        /* \"#utility.yul\":5674:5681   */\n      dup5\n        /* \"#utility.yul\":5665:5671   */\n      dup3\n        /* \"#utility.yul\":5654:5663   */\n      dup6\n        /* \"#utility.yul\":5650:5672   */\n      add\n        /* \"#utility.yul\":5629:5682   */\n      tag_341\n      jump\t// in\n    tag_372:\n        /* \"#utility.yul\":5619:5682   */\n      swap2\n      pop\n        /* \"#utility.yul\":5575:5692   */\n      pop\n        /* \"#utility.yul\":5503:5699   */\n      swap3\n      swap2\n      pop\n      pop\n      jump\t// out\n        /* \"#utility.yul\":5705:5989   */\n    tag_118:\n      0x00\n        /* \"#utility.yul\":5824:5826   */\n      0x20\n        /* \"#utility.yul\":5812:5821   */\n      dup3\n        /* \"#utility.yul\":5803:5810   */\n      dup5\n        /* \"#utility.yul\":5799:5822   */\n      sub\n        /* \"#utility.yul\":5795:5827   */\n      slt\n        /* \"#utility.yul\":5792:5794   */\n      iszero\n      tag_374\n      jumpi\n        /* \"#utility.yul\":5840:5841   */\n      0x00\n        /* \"#utility.yul\":5837:5838   */\n      dup1\n        /* \"#utility.yul\":5830:5842   */\n      revert\n        /* \"#utility.yul\":5792:5794   */\n    tag_374:\n        /* \"#utility.yul\":5883:5884   */\n      0x00\n        /* \"#utility.yul\":5908:5972   */\n      tag_375\n        /* \"#utility.yul\":5964:5971   */\n      dup5\n        /* \"#utility.yul\":5955:5961   */\n      dup3\n        /* \"#utility.yul\":5944:5953   */\n      dup6\n        /* \"#utility.yul\":5940:5962   */\n      add\n        /* \"#utility.yul\":5908:5972   */\n      tag_301\n      jump\t// in\n    tag_375:\n        /* \"#utility.yul\":5898:5972   */\n      swap2\n      pop\n        /* \"#utility.yul\":5854:5982   */\n      pop\n        /* \"#utility.yul\":5782:5989   */\n      swap3\n      swap2\n      pop\n      pop\n      jump\t// out\n        /* \"#utility.yul\":5995:6174   */\n    tag_376:\n      0x00\n        /* \"#utility.yul\":6085:6131   */\n      tag_378\n        /* \"#utility.yul\":6127:6130   */\n      dup4\n        /* \"#utility.yul\":6119:6125   */\n      dup4\n        /* \"#utility.yul\":6085:6131   */\n      tag_379\n      jump\t// in\n    tag_378:\n        /* \"#utility.yul\":6163:6167   */\n      0x20\n        /* \"#utility.yul\":6158:6161   */\n      dup4\n        /* \"#utility.yul\":6154:6168   */\n      add\n        /* \"#utility.yul\":6140:6168   */\n      swap1\n      pop\n        /* \"#utility.yul\":6075:6174   */\n      swap3\n      swap2\n      pop\n      pop\n      jump\t// out\n        /* \"#utility.yul\":6180:6327   */\n    tag_380:\n        /* \"#utility.yul\":6275:6320   */\n      tag_382\n        /* \"#utility.yul\":6314:6319   */\n      dup2\n        /* \"#utility.yul\":6275:6320   */\n      tag_383\n      jump\t// in\n    tag_382:\n        /* \"#utility.yul\":6270:6273   */\n      dup3\n        /* \"#utility.yul\":6263:6321   */\n      mstore\n        /* \"#utility.yul\":6253:6327   */\n      pop\n      pop\n      jump\t// out\n        /* \"#utility.yul\":6333:6475   */\n    tag_384:\n        /* \"#utility.yul\":6436:6468   */\n      tag_386\n        /* \"#utility.yul\":6462:6467   */\n      dup2\n        /* \"#utility.yul\":6436:6468   */\n      tag_387\n      jump\t// in\n    tag_386:\n        /* \"#utility.yul\":6431:6434   */\n      dup3\n        /* \"#utility.yul\":6424:6469   */\n      mstore\n        /* \"#utility.yul\":6414:6475   */\n      pop\n      pop\n      jump\t// out\n        /* \"#utility.yul\":6481:6599   */\n    tag_388:\n        /* \"#utility.yul\":6568:6592   */\n      tag_390\n        /* \"#utility.yul\":6586:6591   */\n      dup2\n        /* \"#utility.yul\":6568:6592   */\n      tag_391\n      jump\t// in\n    tag_390:\n        /* \"#utility.yul\":6563:6566   */\n      dup3\n        /* \"#utility.yul\":6556:6593   */\n      mstore\n        /* \"#utility.yul\":6546:6599   */\n      pop\n      pop\n      jump\t// out\n        /* \"#utility.yul\":6635:7367   */\n    tag_392:\n      0x00\n        /* \"#utility.yul\":6783:6837   */\n      tag_394\n        /* \"#utility.yul\":6831:6836   */\n      dup3\n        /* \"#utility.yul\":6783:6837   */\n      tag_395\n      jump\t// in\n    tag_394:\n        /* \"#utility.yul\":6853:6939   */\n      tag_396\n        /* \"#utility.yul\":6932:6938   */\n      dup2\n        /* \"#utility.yul\":6927:6930   */\n      dup6\n        /* \"#utility.yul\":6853:6939   */\n      tag_397\n      jump\t// in\n    tag_396:\n        /* \"#utility.yul\":6846:6939   */\n      swap4\n      pop\n        /* \"#utility.yul\":6963:7019   */\n      tag_398\n        /* \"#utility.yul\":7013:7018   */\n      dup4\n        /* \"#utility.yul\":6963:7019   */\n      tag_399\n      jump\t// in\n    tag_398:\n        /* \"#utility.yul\":7042:7049   */\n      dup1\n        /* \"#utility.yul\":7073:7074   */\n      0x00\n        /* \"#utility.yul\":7058:7342   */\n    tag_400:\n        /* \"#utility.yul\":7083:7089   */\n      dup4\n        /* \"#utility.yul\":7080:7081   */\n      dup2\n        /* \"#utility.yul\":7077:7090   */\n      lt\n        /* \"#utility.yul\":7058:7342   */\n      iszero\n      tag_402\n      jumpi\n        /* \"#utility.yul\":7159:7165   */\n      dup2\n        /* \"#utility.yul\":7153:7166   */\n      mload\n        /* \"#utility.yul\":7186:7249   */\n      tag_403\n        /* \"#utility.yul\":7245:7248   */\n      dup9\n        /* \"#utility.yul\":7230:7243   */\n      dup3\n        /* \"#utility.yul\":7186:7249   */\n      tag_376\n      jump\t// in\n    tag_403:\n        /* \"#utility.yul\":7179:7249   */\n      swap8\n      pop\n        /* \"#utility.yul\":7272:7332   */\n      tag_404\n        /* \"#utility.yul\":7325:7331   */\n      dup4\n        /* \"#utility.yul\":7272:7332   */\n      tag_405\n      jump\t// in\n    tag_404:\n        /* \"#utility.yul\":7262:7332   */\n      swap3\n      pop\n        /* \"#utility.yul\":7118:7342   */\n      pop\n        /* \"#utility.yul\":7105:7106   */\n      0x01\n        /* \"#utility.yul\":7102:7103   */\n      dup2\n        /* \"#utility.yul\":7098:7107   */\n      add\n        /* \"#utility.yul\":7093:7107   */\n      swap1\n      pop\n        /* \"#utility.yul\":7058:7342   */\n      jump(tag_400)\n    tag_402:\n        /* \"#utility.yul\":7062:7076   */\n      pop\n        /* \"#utility.yul\":7358:7361   */\n      dup6\n        /* \"#utility.yul\":7351:7361   */\n      swap4\n      pop\n        /* \"#utility.yul\":6759:7367   */\n      pop\n      pop\n      pop\n      swap3\n      swap2\n      pop\n      pop\n      jump\t// out\n        /* \"#utility.yul\":7373:7482   */\n    tag_406:\n        /* \"#utility.yul\":7454:7475   */\n      tag_408\n        /* \"#utility.yul\":7469:7474   */\n      dup2\n        /* \"#utility.yul\":7454:7475   */\n      tag_409\n      jump\t// in\n    tag_408:\n        /* \"#utility.yul\":7449:7452   */\n      dup3\n        /* \"#utility.yul\":7442:7476   */\n      mstore\n        /* \"#utility.yul\":7432:7482   */\n      pop\n      pop\n      jump\t// out\n        /* \"#utility.yul\":7488:7653   */\n    tag_410:\n        /* \"#utility.yul\":7592:7646   */\n      tag_412\n        /* \"#utility.yul\":7640:7645   */\n      dup2\n        /* \"#utility.yul\":7592:7646   */\n      tag_413\n      jump\t// in\n    tag_412:\n        /* \"#utility.yul\":7587:7590   */\n      dup3\n        /* \"#utility.yul\":7580:7647   */\n      mstore\n        /* \"#utility.yul\":7570:7653   */\n      pop\n      pop\n      jump\t// out\n        /* \"#utility.yul\":7659:7818   */\n    tag_414:\n        /* \"#utility.yul\":7760:7811   */\n      tag_416\n        /* \"#utility.yul\":7805:7810   */\n      dup2\n        /* \"#utility.yul\":7760:7811   */\n      tag_417\n      jump\t// in\n    tag_416:\n        /* \"#utility.yul\":7755:7758   */\n      dup3\n        /* \"#utility.yul\":7748:7812   */\n      mstore\n        /* \"#utility.yul\":7738:7818   */\n      pop\n      pop\n      jump\t// out\n        /* \"#utility.yul\":7824:7977   */\n    tag_418:\n        /* \"#utility.yul\":7922:7970   */\n      tag_420\n        /* \"#utility.yul\":7964:7969   */\n      dup2\n        /* \"#utility.yul\":7922:7970   */\n      tag_421\n      jump\t// in\n    tag_420:\n        /* \"#utility.yul\":7917:7920   */\n      dup3\n        /* \"#utility.yul\":7910:7971   */\n      mstore\n        /* \"#utility.yul\":7900:7977   */\n      pop\n      pop\n      jump\t// out\n        /* \"#utility.yul\":7983:8130   */\n    tag_422:\n        /* \"#utility.yul\":8078:8123   */\n      tag_424\n        /* \"#utility.yul\":8117:8122   */\n      dup2\n        /* \"#utility.yul\":8078:8123   */\n      tag_425\n      jump\t// in\n    tag_424:\n        /* \"#utility.yul\":8073:8076   */\n      dup3\n        /* \"#utility.yul\":8066:8124   */\n      mstore\n        /* \"#utility.yul\":8056:8130   */\n      pop\n      pop\n      jump\t// out\n        /* \"#utility.yul\":8136:8503   */\n    tag_426:\n      0x00\n        /* \"#utility.yul\":8299:8366   */\n      tag_428\n        /* \"#utility.yul\":8363:8365   */\n      0x23\n        /* \"#utility.yul\":8358:8361   */\n      dup4\n        /* \"#utility.yul\":8299:8366   */\n      tag_429\n      jump\t// in\n    tag_428:\n        /* \"#utility.yul\":8292:8366   */\n      swap2\n      pop\n        /* \"#utility.yul\":8396:8430   */\n      0x7365745072696365203a3a2043616c6c6572207065726d697373696f6e206572\n        /* \"#utility.yul\":8392:8393   */\n      0x00\n        /* \"#utility.yul\":8387:8390   */\n      dup4\n        /* \"#utility.yul\":8383:8394   */\n      add\n        /* \"#utility.yul\":8376:8431   */\n      mstore\n        /* \"#utility.yul\":8462:8467   */\n      0x726f720000000000000000000000000000000000000000000000000000000000\n        /* \"#utility.yul\":8457:8459   */\n      0x20\n        /* \"#utility.yul\":8452:8455   */\n      dup4\n        /* \"#utility.yul\":8448:8460   */\n      add\n        /* \"#utility.yul\":8441:8468   */\n      mstore\n        /* \"#utility.yul\":8494:8496   */\n      0x40\n        /* \"#utility.yul\":8489:8492   */\n      dup3\n        /* \"#utility.yul\":8485:8497   */\n      add\n        /* \"#utility.yul\":8478:8497   */\n      swap1\n      pop\n        /* \"#utility.yul\":8282:8503   */\n      swap2\n      swap1\n      pop\n      jump\t// out\n        /* \"#utility.yul\":8509:8876   */\n    tag_430:\n      0x00\n        /* \"#utility.yul\":8672:8739   */\n      tag_432\n        /* \"#utility.yul\":8736:8738   */\n      0x23\n        /* \"#utility.yul\":8731:8734   */\n      dup4\n        /* \"#utility.yul\":8672:8739   */\n      tag_429\n      jump\t// in\n    tag_432:\n        /* \"#utility.yul\":8665:8739   */\n      swap2\n      pop\n        /* \"#utility.yul\":8769:8803   */\n      0x7374617274203a3a20456e74697265207661756c74207072696365206973207a\n        /* \"#utility.yul\":8765:8766   */\n      0x00\n        /* \"#utility.yul\":8760:8763   */\n      dup4\n        /* \"#utility.yul\":8756:8767   */\n      add\n        /* \"#utility.yul\":8749:8804   */\n      mstore\n        /* \"#utility.yul\":8835:8840   */\n      0x6f72650000000000000000000000000000000000000000000000000000000000\n        /* \"#utility.yul\":8830:8832   */\n      0x20\n        /* \"#utility.yul\":8825:8828   */\n      dup4\n        /* \"#utility.yul\":8821:8833   */\n      add\n        /* \"#utility.yul\":8814:8841   */\n      mstore\n        /* \"#utility.yul\":8867:8869   */\n      0x40\n        /* \"#utility.yul\":8862:8865   */\n      dup3\n        /* \"#utility.yul\":8858:8870   */\n      add\n        /* \"#utility.yul\":8851:8870   */\n      swap1\n      pop\n        /* \"#utility.yul\":8655:8876   */\n      swap2\n      swap1\n      pop\n      jump\t// out\n        /* \"#utility.yul\":8882:9206   */\n    tag_433:\n      0x00\n        /* \"#utility.yul\":9045:9112   */\n      tag_435\n        /* \"#utility.yul\":9109:9111   */\n      0x1a\n        /* \"#utility.yul\":9104:9107   */\n      dup4\n        /* \"#utility.yul\":9045:9112   */\n      tag_429\n      jump\t// in\n    tag_435:\n        /* \"#utility.yul\":9038:9112   */\n      swap2\n      pop\n        /* \"#utility.yul\":9142:9170   */\n      0x626964203a3a2061756374696f6e206973206e6f74206c697665000000000000\n        /* \"#utility.yul\":9138:9139   */\n      0x00\n        /* \"#utility.yul\":9133:9136   */\n      dup4\n        /* \"#utility.yul\":9129:9140   */\n      add\n        /* \"#utility.yul\":9122:9171   */\n      mstore\n        /* \"#utility.yul\":9197:9199   */\n      0x20\n        /* \"#utility.yul\":9192:9195   */\n      dup3\n        /* \"#utility.yul\":9188:9200   */\n      add\n        /* \"#utility.yul\":9181:9200   */\n      swap1\n      pop\n        /* \"#utility.yul\":9028:9206   */\n      swap2\n      swap1\n      pop\n      jump\t// out\n        /* \"#utility.yul\":9212:9536   */\n    tag_436:\n      0x00\n        /* \"#utility.yul\":9375:9442   */\n      tag_438\n        /* \"#utility.yul\":9439:9441   */\n      0x1a\n        /* \"#utility.yul\":9434:9437   */\n      dup4\n        /* \"#utility.yul\":9375:9442   */\n      tag_429\n      jump\t// in\n    tag_438:\n        /* \"#utility.yul\":9368:9442   */\n      swap2\n      pop\n        /* \"#utility.yul\":9472:9500   */\n      0x7374617274203a3a206e6f2061756374696f6e20737461727473000000000000\n        /* \"#utility.yul\":9468:9469   */\n      0x00\n        /* \"#utility.yul\":9463:9466   */\n      dup4\n        /* \"#utility.yul\":9459:9470   */\n      add\n        /* \"#utility.yul\":9452:9501   */\n      mstore\n        /* \"#utility.yul\":9527:9529   */\n      0x20\n        /* \"#utility.yul\":9522:9525   */\n      dup3\n        /* \"#utility.yul\":9518:9530   */\n      add\n        /* \"#utility.yul\":9511:9530   */\n      swap1\n      pop\n        /* \"#utility.yul\":9358:9536   */\n      swap2\n      swap1\n      pop\n      jump\t// out\n        /* \"#utility.yul\":9542:9860   */\n    tag_439:\n      0x00\n        /* \"#utility.yul\":9705:9772   */\n      tag_441\n        /* \"#utility.yul\":9769:9771   */\n      0x14\n        /* \"#utility.yul\":9764:9767   */\n      dup4\n        /* \"#utility.yul\":9705:9772   */\n      tag_429\n      jump\t// in\n    tag_441:\n        /* \"#utility.yul\":9698:9772   */\n      swap2\n      pop\n        /* \"#utility.yul\":9802:9824   */\n      0x7374617274203a3a20746f6f206c6f7720626964000000000000000000000000\n        /* \"#utility.yul\":9798:9799   */\n      0x00\n        /* \"#utility.yul\":9793:9796   */\n      dup4\n        /* \"#utility.yul\":9789:9800   */\n      add\n        /* \"#utility.yul\":9782:9825   */\n      mstore\n        /* \"#utility.yul\":9851:9853   */\n      0x20\n        /* \"#utility.yul\":9846:9849   */\n      dup3\n        /* \"#utility.yul\":9842:9854   */\n      add\n        /* \"#utility.yul\":9835:9854   */\n      swap1\n      pop\n        /* \"#utility.yul\":9688:9860   */\n      swap2\n      swap1\n      pop\n      jump\t// out\n        /* \"#utility.yul\":9866:10182   */\n    tag_442:\n      0x00\n        /* \"#utility.yul\":10029:10096   */\n      tag_444\n        /* \"#utility.yul\":10093:10095   */\n      0x12\n        /* \"#utility.yul\":10088:10091   */\n      dup4\n        /* \"#utility.yul\":10029:10096   */\n      tag_429\n      jump\t// in\n    tag_444:\n        /* \"#utility.yul\":10022:10096   */\n      swap2\n      pop\n        /* \"#utility.yul\":10126:10146   */\n      0x626964203a3a20746f6f206c6f77206269640000000000000000000000000000\n        /* \"#utility.yul\":10122:10123   */\n      0x00\n        /* \"#utility.yul\":10117:10120   */\n      dup4\n        /* \"#utility.yul\":10113:10124   */\n      add\n        /* \"#utility.yul\":10106:10147   */\n      mstore\n        /* \"#utility.yul\":10173:10175   */\n      0x20\n        /* \"#utility.yul\":10168:10171   */\n      dup3\n        /* \"#utility.yul\":10164:10176   */\n      add\n        /* \"#utility.yul\":10157:10176   */\n      swap1\n      pop\n        /* \"#utility.yul\":10012:10182   */\n      swap2\n      swap1\n      pop\n      jump\t// out\n        /* \"#utility.yul\":10188:10517   */\n    tag_445:\n      0x00\n        /* \"#utility.yul\":10351:10418   */\n      tag_447\n        /* \"#utility.yul\":10415:10417   */\n      0x1f\n        /* \"#utility.yul\":10410:10413   */\n      dup4\n        /* \"#utility.yul\":10351:10418   */\n      tag_429\n      jump\t// in\n    tag_447:\n        /* \"#utility.yul\":10344:10418   */\n      swap2\n      pop\n        /* \"#utility.yul\":10448:10481   */\n      0x656e64203a3a207661756c742068617320616c726561647920636c6f73656400\n        /* \"#utility.yul\":10444:10445   */\n      0x00\n        /* \"#utility.yul\":10439:10442   */\n      dup4\n        /* \"#utility.yul\":10435:10446   */\n      add\n        /* \"#utility.yul\":10428:10482   */\n      mstore\n        /* \"#utility.yul\":10508:10510   */\n      0x20\n        /* \"#utility.yul\":10503:10506   */\n      dup3\n        /* \"#utility.yul\":10499:10511   */\n      add\n        /* \"#utility.yul\":10492:10511   */\n      swap1\n      pop\n        /* \"#utility.yul\":10334:10517   */\n      swap2\n      swap1\n      pop\n      jump\t// out\n        /* \"#utility.yul\":10523:10853   */\n    tag_448:\n      0x00\n        /* \"#utility.yul\":10686:10753   */\n      tag_450\n        /* \"#utility.yul\":10750:10752   */\n      0x20\n        /* \"#utility.yul\":10745:10748   */\n      dup4\n        /* \"#utility.yul\":10686:10753   */\n      tag_429\n      jump\t// in\n    tag_450:\n        /* \"#utility.yul\":10679:10753   */\n      swap2\n      pop\n        /* \"#utility.yul\":10783:10817   */\n      0x757064617465203a3a20696e76616c69642061756374696f6e206c656e677468\n        /* \"#utility.yul\":10779:10780   */\n      0x00\n        /* \"#utility.yul\":10774:10777   */\n      dup4\n        /* \"#utility.yul\":10770:10781   */\n      add\n        /* \"#utility.yul\":10763:10818   */\n      mstore\n        /* \"#utility.yul\":10844:10846   */\n      0x20\n        /* \"#utility.yul\":10839:10842   */\n      dup3\n        /* \"#utility.yul\":10835:10847   */\n      add\n        /* \"#utility.yul\":10828:10847   */\n      swap1\n      pop\n        /* \"#utility.yul\":10669:10853   */\n      swap2\n      swap1\n      pop\n      jump\t// out\n        /* \"#utility.yul\":10859:11177   */\n    tag_451:\n      0x00\n        /* \"#utility.yul\":11022:11089   */\n      tag_453\n        /* \"#utility.yul\":11086:11088   */\n      0x14\n        /* \"#utility.yul\":11081:11084   */\n      dup4\n        /* \"#utility.yul\":11022:11089   */\n      tag_429\n      jump\t// in\n    tag_453:\n        /* \"#utility.yul\":11015:11089   */\n      swap2\n      pop\n        /* \"#utility.yul\":11119:11141   */\n      0x757064617465203a3a206e6f7420757064617465000000000000000000000000\n        /* \"#utility.yul\":11115:11116   */\n      0x00\n        /* \"#utility.yul\":11110:11113   */\n      dup4\n        /* \"#utility.yul\":11106:11117   */\n      add\n        /* \"#utility.yul\":11099:11142   */\n      mstore\n        /* \"#utility.yul\":11168:11170   */\n      0x20\n        /* \"#utility.yul\":11163:11166   */\n      dup3\n        /* \"#utility.yul\":11159:11171   */\n      add\n        /* \"#utility.yul\":11152:11171   */\n      swap1\n      pop\n        /* \"#utility.yul\":11005:11177   */\n      swap2\n      swap1\n      pop\n      jump\t// out\n        /* \"#utility.yul\":11183:11502   */\n    tag_454:\n      0x00\n        /* \"#utility.yul\":11346:11413   */\n      tag_456\n        /* \"#utility.yul\":11410:11412   */\n      0x15\n        /* \"#utility.yul\":11405:11408   */\n      dup4\n        /* \"#utility.yul\":11346:11413   */\n      tag_429\n      jump\t// in\n    tag_456:\n        /* \"#utility.yul\":11339:11413   */\n      swap2\n      pop\n        /* \"#utility.yul\":11443:11466   */\n      0x757064617465203a3a206e6f742063757261746f720000000000000000000000\n        /* \"#utility.yul\":11439:11440   */\n      0x00\n        /* \"#utility.yul\":11434:11437   */\n      dup4\n        /* \"#utility.yul\":11430:11441   */\n      add\n        /* \"#utility.yul\":11423:11467   */\n      mstore\n        /* \"#utility.yul\":11493:11495   */\n      0x20\n        /* \"#utility.yul\":11488:11491   */\n      dup3\n        /* \"#utility.yul\":11484:11496   */\n      add\n        /* \"#utility.yul\":11477:11496   */\n      swap1\n      pop\n        /* \"#utility.yul\":11329:11502   */\n      swap2\n      swap1\n      pop\n      jump\t// out\n        /* \"#utility.yul\":11508:11873   */\n    tag_457:\n      0x00\n        /* \"#utility.yul\":11671:11738   */\n      tag_459\n        /* \"#utility.yul\":11735:11737   */\n      0x21\n        /* \"#utility.yul\":11730:11733   */\n      dup4\n        /* \"#utility.yul\":11671:11738   */\n      tag_429\n      jump\t// in\n    tag_459:\n        /* \"#utility.yul\":11664:11738   */\n      swap2\n      pop\n        /* \"#utility.yul\":11768:11802   */\n      0x696e697469616c697a65203a3a20416c726561647920696e697469616c697a65\n        /* \"#utility.yul\":11764:11765   */\n      0x00\n        /* \"#utility.yul\":11759:11762   */\n      dup4\n        /* \"#utility.yul\":11755:11766   */\n      add\n        /* \"#utility.yul\":11748:11803   */\n      mstore\n        /* \"#utility.yul\":11834:11837   */\n      0x6400000000000000000000000000000000000000000000000000000000000000\n        /* \"#utility.yul\":11829:11831   */\n      0x20\n        /* \"#utility.yul\":11824:11827   */\n      dup4\n        /* \"#utility.yul\":11820:11832   */\n      add\n        /* \"#utility.yul\":11813:11838   */\n      mstore\n        /* \"#utility.yul\":11864:11866   */\n      0x40\n        /* \"#utility.yul\":11859:11862   */\n      dup3\n        /* \"#utility.yul\":11855:11867   */\n      add\n        /* \"#utility.yul\":11848:11867   */\n      swap1\n      pop\n        /* \"#utility.yul\":11654:11873   */\n      swap2\n      swap1\n      pop\n      jump\t// out\n        /* \"#utility.yul\":11879:12197   */\n    tag_460:\n      0x00\n        /* \"#utility.yul\":12042:12109   */\n      tag_462\n        /* \"#utility.yul\":12106:12108   */\n      0x14\n        /* \"#utility.yul\":12101:12104   */\n      dup4\n        /* \"#utility.yul\":12042:12109   */\n      tag_429\n      jump\t// in\n    tag_462:\n        /* \"#utility.yul\":12035:12109   */\n      swap2\n      pop\n        /* \"#utility.yul\":12139:12161   */\n      0x626964203a3a2061756374696f6e20656e646564000000000000000000000000\n        /* \"#utility.yul\":12135:12136   */\n      0x00\n        /* \"#utility.yul\":12130:12133   */\n      dup4\n        /* \"#utility.yul\":12126:12137   */\n      add\n        /* \"#utility.yul\":12119:12162   */\n      mstore\n        /* \"#utility.yul\":12188:12190   */\n      0x20\n        /* \"#utility.yul\":12183:12186   */\n      dup3\n        /* \"#utility.yul\":12179:12191   */\n      add\n        /* \"#utility.yul\":12172:12191   */\n      swap1\n      pop\n        /* \"#utility.yul\":12025:12197   */\n      swap2\n      swap1\n      pop\n      jump\t// out\n        /* \"#utility.yul\":12203:12507   */\n    tag_463:\n      0x00\n        /* \"#utility.yul\":12366:12432   */\n      tag_465\n        /* \"#utility.yul\":12430:12431   */\n      0x07\n        /* \"#utility.yul\":12425:12428   */\n      dup4\n        /* \"#utility.yul\":12366:12432   */\n      tag_429\n      jump\t// in\n    tag_465:\n        /* \"#utility.yul\":12359:12432   */\n      swap2\n      pop\n        /* \"#utility.yul\":12462:12471   */\n      0x41756374696f6e00000000000000000000000000000000000000000000000000\n        /* \"#utility.yul\":12458:12459   */\n      0x00\n        /* \"#utility.yul\":12453:12456   */\n      dup4\n        /* \"#utility.yul\":12449:12460   */\n      add\n        /* \"#utility.yul\":12442:12472   */\n      mstore\n        /* \"#utility.yul\":12498:12500   */\n      0x20\n        /* \"#utility.yul\":12493:12496   */\n      dup3\n        /* \"#utility.yul\":12489:12501   */\n      add\n        /* \"#utility.yul\":12482:12501   */\n      swap1\n      pop\n        /* \"#utility.yul\":12349:12507   */\n      swap2\n      swap1\n      pop\n      jump\t// out\n        /* \"#utility.yul\":12513:12830   */\n    tag_466:\n      0x00\n        /* \"#utility.yul\":12676:12743   */\n      tag_468\n        /* \"#utility.yul\":12740:12742   */\n      0x13\n        /* \"#utility.yul\":12735:12738   */\n      dup4\n        /* \"#utility.yul\":12676:12743   */\n      tag_429\n      jump\t// in\n    tag_468:\n        /* \"#utility.yul\":12669:12743   */\n      swap2\n      pop\n        /* \"#utility.yul\":12773:12794   */\n      0x656e64203a3a2061756374696f6e206c69766500000000000000000000000000\n        /* \"#utility.yul\":12769:12770   */\n      0x00\n        /* \"#utility.yul\":12764:12767   */\n      dup4\n        /* \"#utility.yul\":12760:12771   */\n      add\n        /* \"#utility.yul\":12753:12795   */\n      mstore\n        /* \"#utility.yul\":12821:12823   */\n      0x20\n        /* \"#utility.yul\":12816:12819   */\n      dup3\n        /* \"#utility.yul\":12812:12824   */\n      add\n        /* \"#utility.yul\":12805:12824   */\n      swap1\n      pop\n        /* \"#utility.yul\":12659:12830   */\n      swap2\n      swap1\n      pop\n      jump\t// out\n        /* \"#utility.yul\":12836:12944   */\n    tag_379:\n        /* \"#utility.yul\":12913:12937   */\n      tag_470\n        /* \"#utility.yul\":12931:12936   */\n      dup2\n        /* \"#utility.yul\":12913:12937   */\n      tag_471\n      jump\t// in\n    tag_470:\n        /* \"#utility.yul\":12908:12911   */\n      dup3\n        /* \"#utility.yul\":12901:12938   */\n      mstore\n        /* \"#utility.yul\":12891:12944   */\n      pop\n      pop\n      jump\t// out\n        /* \"#utility.yul\":12950:13068   */\n    tag_472:\n        /* \"#utility.yul\":13037:13061   */\n      tag_474\n        /* \"#utility.yul\":13055:13060   */\n      dup2\n        /* \"#utility.yul\":13037:13061   */\n      tag_471\n      jump\t// in\n    tag_474:\n        /* \"#utility.yul\":13032:13035   */\n      dup3\n        /* \"#utility.yul\":13025:13062   */\n      mstore\n        /* \"#utility.yul\":13015:13068   */\n      pop\n      pop\n      jump\t// out\n        /* \"#utility.yul\":13074:13296   */\n    tag_42:\n      0x00\n        /* \"#utility.yul\":13205:13207   */\n      0x20\n        /* \"#utility.yul\":13194:13203   */\n      dup3\n        /* \"#utility.yul\":13190:13208   */\n      add\n        /* \"#utility.yul\":13182:13208   */\n      swap1\n      pop\n        /* \"#utility.yul\":13218:13289   */\n      tag_476\n        /* \"#utility.yul\":13286:13287   */\n      0x00\n        /* \"#utility.yul\":13275:13284   */\n      dup4\n        /* \"#utility.yul\":13271:13288   */\n      add\n        /* \"#utility.yul\":13262:13268   */\n      dup5\n        /* \"#utility.yul\":13218:13289   */\n      tag_388\n      jump\t// in\n    tag_476:\n        /* \"#utility.yul\":13172:13296   */\n      swap3\n      swap2\n      pop\n      pop\n      jump\t// out\n        /* \"#utility.yul\":13302:13556   */\n    tag_54:\n      0x00\n        /* \"#utility.yul\":13449:13451   */\n      0x20\n        /* \"#utility.yul\":13438:13447   */\n      dup3\n        /* \"#utility.yul\":13434:13452   */\n      add\n        /* \"#utility.yul\":13426:13452   */\n      swap1\n      pop\n        /* \"#utility.yul\":13462:13549   */\n      tag_478\n        /* \"#utility.yul\":13546:13547   */\n      0x00\n        /* \"#utility.yul\":13535:13544   */\n      dup4\n        /* \"#utility.yul\":13531:13548   */\n      add\n        /* \"#utility.yul\":13522:13528   */\n      dup5\n        /* \"#utility.yul\":13462:13549   */\n      tag_384\n      jump\t// in\n    tag_478:\n        /* \"#utility.yul\":13416:13556   */\n      swap3\n      swap2\n      pop\n      pop\n      jump\t// out\n        /* \"#utility.yul\":13562:13910   */\n    tag_139:\n      0x00\n        /* \"#utility.yul\":13729:13731   */\n      0x40\n        /* \"#utility.yul\":13718:13727   */\n      dup3\n        /* \"#utility.yul\":13714:13732   */\n      add\n        /* \"#utility.yul\":13706:13732   */\n      swap1\n      pop\n        /* \"#utility.yul\":13742:13821   */\n      tag_480\n        /* \"#utility.yul\":13818:13819   */\n      0x00\n        /* \"#utility.yul\":13807:13816   */\n      dup4\n        /* \"#utility.yul\":13803:13820   */\n      add\n        /* \"#utility.yul\":13794:13800   */\n      dup6\n        /* \"#utility.yul\":13742:13821   */\n      tag_380\n      jump\t// in\n    tag_480:\n        /* \"#utility.yul\":13831:13903   */\n      tag_481\n        /* \"#utility.yul\":13899:13901   */\n      0x20\n        /* \"#utility.yul\":13888:13897   */\n      dup4\n        /* \"#utility.yul\":13884:13902   */\n      add\n        /* \"#utility.yul\":13875:13881   */\n      dup5\n        /* \"#utility.yul\":13831:13903   */\n      tag_472\n      jump\t// in\n    tag_481:\n        /* \"#utility.yul\":13696:13910   */\n      swap4\n      swap3\n      pop\n      pop\n      pop\n      jump\t// out\n        /* \"#utility.yul\":13916:14704   */\n    tag_235:\n      0x00\n        /* \"#utility.yul\":14223:14226   */\n      0x80\n        /* \"#utility.yul\":14212:14221   */\n      dup3\n        /* \"#utility.yul\":14208:14227   */\n      add\n        /* \"#utility.yul\":14200:14227   */\n      swap1\n      pop\n        /* \"#utility.yul\":14237:14308   */\n      tag_483\n        /* \"#utility.yul\":14305:14306   */\n      0x00\n        /* \"#utility.yul\":14294:14303   */\n      dup4\n        /* \"#utility.yul\":14290:14307   */\n      add\n        /* \"#utility.yul\":14281:14287   */\n      dup7\n        /* \"#utility.yul\":14237:14308   */\n      tag_388\n      jump\t// in\n    tag_483:\n        /* \"#utility.yul\":14318:14398   */\n      tag_484\n        /* \"#utility.yul\":14394:14396   */\n      0x20\n        /* \"#utility.yul\":14383:14392   */\n      dup4\n        /* \"#utility.yul\":14379:14397   */\n      add\n        /* \"#utility.yul\":14370:14376   */\n      dup6\n        /* \"#utility.yul\":14318:14398   */\n      tag_422\n      jump\t// in\n    tag_484:\n        /* \"#utility.yul\":14408:14491   */\n      tag_485\n        /* \"#utility.yul\":14487:14489   */\n      0x40\n        /* \"#utility.yul\":14476:14485   */\n      dup4\n        /* \"#utility.yul\":14472:14490   */\n      add\n        /* \"#utility.yul\":14463:14469   */\n      dup5\n        /* \"#utility.yul\":14408:14491   */\n      tag_418\n      jump\t// in\n    tag_485:\n        /* \"#utility.yul\":14538:14547   */\n      dup2\n        /* \"#utility.yul\":14532:14536   */\n      dup2\n        /* \"#utility.yul\":14528:14548   */\n      sub\n        /* \"#utility.yul\":14523:14525   */\n      0x60\n        /* \"#utility.yul\":14512:14521   */\n      dup4\n        /* \"#utility.yul\":14508:14526   */\n      add\n        /* \"#utility.yul\":14501:14549   */\n      mstore\n        /* \"#utility.yul\":14566:14697   */\n      tag_486\n        /* \"#utility.yul\":14692:14696   */\n      dup2\n        /* \"#utility.yul\":14566:14697   */\n      tag_463\n      jump\t// in\n    tag_486:\n        /* \"#utility.yul\":14558:14697   */\n      swap1\n      pop\n        /* \"#utility.yul\":14190:14704   */\n      swap5\n      swap4\n      pop\n      pop\n      pop\n      pop\n      jump\t// out\n        /* \"#utility.yul\":14710:15209   */\n    tag_279:\n      0x00\n        /* \"#utility.yul\":14927:14929   */\n      0x40\n        /* \"#utility.yul\":14916:14925   */\n      dup3\n        /* \"#utility.yul\":14912:14930   */\n      add\n        /* \"#utility.yul\":14904:14930   */\n      swap1\n      pop\n        /* \"#utility.yul\":14976:14985   */\n      dup2\n        /* \"#utility.yul\":14970:14974   */\n      dup2\n        /* \"#utility.yul\":14966:14986   */\n      sub\n        /* \"#utility.yul\":14962:14963   */\n      0x00\n        /* \"#utility.yul\":14951:14960   */\n      dup4\n        /* \"#utility.yul\":14947:14964   */\n      add\n        /* \"#utility.yul\":14940:14987   */\n      mstore\n        /* \"#utility.yul\":15004:15112   */\n      tag_488\n        /* \"#utility.yul\":15107:15111   */\n      dup2\n        /* \"#utility.yul\":15098:15104   */\n      dup6\n        /* \"#utility.yul\":15004:15112   */\n      tag_392\n      jump\t// in\n    tag_488:\n        /* \"#utility.yul\":14996:15112   */\n      swap1\n      pop\n        /* \"#utility.yul\":15122:15202   */\n      tag_489\n        /* \"#utility.yul\":15198:15200   */\n      0x20\n        /* \"#utility.yul\":15187:15196   */\n      dup4\n        /* \"#utility.yul\":15183:15201   */\n      add\n        /* \"#utility.yul\":15174:15180   */\n      dup5\n        /* \"#utility.yul\":15122:15202   */\n      tag_380\n      jump\t// in\n    tag_489:\n        /* \"#utility.yul\":14894:15209   */\n      swap4\n      swap3\n      pop\n      pop\n      pop\n      jump\t// out\n        /* \"#utility.yul\":15215:15425   */\n    tag_71:\n      0x00\n        /* \"#utility.yul\":15340:15342   */\n      0x20\n        /* \"#utility.yul\":15329:15338   */\n      dup3\n        /* \"#utility.yul\":15325:15343   */\n      add\n        /* \"#utility.yul\":15317:15343   */\n      swap1\n      pop\n        /* \"#utility.yul\":15353:15418   */\n      tag_491\n        /* \"#utility.yul\":15415:15416   */\n      0x00\n        /* \"#utility.yul\":15404:15413   */\n      dup4\n        /* \"#utility.yul\":15400:15417   */\n      add\n        /* \"#utility.yul\":15391:15397   */\n      dup5\n        /* \"#utility.yul\":15353:15418   */\n      tag_406\n      jump\t// in\n    tag_491:\n        /* \"#utility.yul\":15307:15425   */\n      swap3\n      swap2\n      pop\n      pop\n      jump\t// out\n        /* \"#utility.yul\":15431:15687   */\n    tag_59:\n      0x00\n        /* \"#utility.yul\":15579:15581   */\n      0x20\n        /* \"#utility.yul\":15568:15577   */\n      dup3\n        /* \"#utility.yul\":15564:15582   */\n      add\n        /* \"#utility.yul\":15556:15582   */\n      swap1\n      pop\n        /* \"#utility.yul\":15592:15680   */\n      tag_493\n        /* \"#utility.yul\":15677:15678   */\n      0x00\n        /* \"#utility.yul\":15666:15675   */\n      dup4\n        /* \"#utility.yul\":15662:15679   */\n      add\n        /* \"#utility.yul\":15653:15659   */\n      dup5\n        /* \"#utility.yul\":15592:15680   */\n      tag_410\n      jump\t// in\n    tag_493:\n        /* \"#utility.yul\":15546:15687   */\n      swap3\n      swap2\n      pop\n      pop\n      jump\t// out\n        /* \"#utility.yul\":15693:15943   */\n    tag_64:\n      0x00\n        /* \"#utility.yul\":15838:15840   */\n      0x20\n        /* \"#utility.yul\":15827:15836   */\n      dup3\n        /* \"#utility.yul\":15823:15841   */\n      add\n        /* \"#utility.yul\":15815:15841   */\n      swap1\n      pop\n        /* \"#utility.yul\":15851:15936   */\n      tag_495\n        /* \"#utility.yul\":15933:15934   */\n      0x00\n        /* \"#utility.yul\":15922:15931   */\n      dup4\n        /* \"#utility.yul\":15918:15935   */\n      add\n        /* \"#utility.yul\":15909:15915   */\n      dup5\n        /* \"#utility.yul\":15851:15936   */\n      tag_414\n      jump\t// in\n    tag_495:\n        /* \"#utility.yul\":15805:15943   */\n      swap3\n      swap2\n      pop\n      pop\n      jump\t// out\n        /* \"#utility.yul\":15949:16368   */\n    tag_213:\n      0x00\n        /* \"#utility.yul\":16153:16155   */\n      0x20\n        /* \"#utility.yul\":16142:16151   */\n      dup3\n        /* \"#utility.yul\":16138:16156   */\n      add\n        /* \"#utility.yul\":16130:16156   */\n      swap1\n      pop\n        /* \"#utility.yul\":16202:16211   */\n      dup2\n        /* \"#utility.yul\":16196:16200   */\n      dup2\n        /* \"#utility.yul\":16192:16212   */\n      sub\n        /* \"#utility.yul\":16188:16189   */\n      0x00\n        /* \"#utility.yul\":16177:16186   */\n      dup4\n        /* \"#utility.yul\":16173:16190   */\n      add\n        /* \"#utility.yul\":16166:16213   */\n      mstore\n        /* \"#utility.yul\":16230:16361   */\n      tag_497\n        /* \"#utility.yul\":16356:16360   */\n      dup2\n        /* \"#utility.yul\":16230:16361   */\n      tag_426\n      jump\t// in\n    tag_497:\n        /* \"#utility.yul\":16222:16361   */\n      swap1\n      pop\n        /* \"#utility.yul\":16120:16368   */\n      swap2\n      swap1\n      pop\n      jump\t// out\n        /* \"#utility.yul\":16374:16793   */\n    tag_228:\n      0x00\n        /* \"#utility.yul\":16578:16580   */\n      0x20\n        /* \"#utility.yul\":16567:16576   */\n      dup3\n        /* \"#utility.yul\":16563:16581   */\n      add\n        /* \"#utility.yul\":16555:16581   */\n      swap1\n      pop\n        /* \"#utility.yul\":16627:16636   */\n      dup2\n        /* \"#utility.yul\":16621:16625   */\n      dup2\n        /* \"#utility.yul\":16617:16637   */\n      sub\n        /* \"#utility.yul\":16613:16614   */\n      0x00\n        /* \"#utility.yul\":16602:16611   */\n      dup4\n        /* \"#utility.yul\":16598:16615   */\n      add\n        /* \"#utility.yul\":16591:16638   */\n      mstore\n        /* \"#utility.yul\":16655:16786   */\n      tag_499\n        /* \"#utility.yul\":16781:16785   */\n      dup2\n        /* \"#utility.yul\":16655:16786   */\n      tag_430\n      jump\t// in\n    tag_499:\n        /* \"#utility.yul\":16647:16786   */\n      swap1\n      pop\n        /* \"#utility.yul\":16545:16793   */\n      swap2\n      swap1\n      pop\n      jump\t// out\n        /* \"#utility.yul\":16799:17218   */\n    tag_112:\n      0x00\n        /* \"#utility.yul\":17003:17005   */\n      0x20\n        /* \"#utility.yul\":16992:17001   */\n      dup3\n        /* \"#utility.yul\":16988:17006   */\n      add\n        /* \"#utility.yul\":16980:17006   */\n      swap1\n      pop\n        /* \"#utility.yul\":17052:17061   */\n      dup2\n        /* \"#utility.yul\":17046:17050   */\n      dup2\n        /* \"#utility.yul\":17042:17062   */\n      sub\n        /* \"#utility.yul\":17038:17039   */\n      0x00\n        /* \"#utility.yul\":17027:17036   */\n      dup4\n        /* \"#utility.yul\":17023:17040   */\n      add\n        /* \"#utility.yul\":17016:17063   */\n      mstore\n        /* \"#utility.yul\":17080:17211   */\n      tag_501\n        /* \"#utility.yul\":17206:17210   */\n      dup2\n        /* \"#utility.yul\":17080:17211   */\n      tag_433\n      jump\t// in\n    tag_501:\n        /* \"#utility.yul\":17072:17211   */\n      swap1\n      pop\n        /* \"#utility.yul\":16970:17218   */\n      swap2\n      swap1\n      pop\n      jump\t// out\n        /* \"#utility.yul\":17224:17643   */\n    tag_225:\n      0x00\n        /* \"#utility.yul\":17428:17430   */\n      0x20\n        /* \"#utility.yul\":17417:17426   */\n      dup3\n        /* \"#utility.yul\":17413:17431   */\n      add\n        /* \"#utility.yul\":17405:17431   */\n      swap1\n      pop\n        /* \"#utility.yul\":17477:17486   */\n      dup2\n        /* \"#utility.yul\":17471:17475   */\n      dup2\n        /* \"#utility.yul\":17467:17487   */\n      sub\n        /* \"#utility.yul\":17463:17464   */\n      0x00\n        /* \"#utility.yul\":17452:17461   */\n      dup4\n        /* \"#utility.yul\":17448:17465   */\n      add\n        /* \"#utility.yul\":17441:17488   */\n      mstore\n        /* \"#utility.yul\":17505:17636   */\n      tag_503\n        /* \"#utility.yul\":17631:17635   */\n      dup2\n        /* \"#utility.yul\":17505:17636   */\n      tag_436\n      jump\t// in\n    tag_503:\n        /* \"#utility.yul\":17497:17636   */\n      swap1\n      pop\n        /* \"#utility.yul\":17395:17643   */\n      swap2\n      swap1\n      pop\n      jump\t// out\n        /* \"#utility.yul\":17649:18068   */\n    tag_231:\n      0x00\n        /* \"#utility.yul\":17853:17855   */\n      0x20\n        /* \"#utility.yul\":17842:17851   */\n      dup3\n        /* \"#utility.yul\":17838:17856   */\n      add\n        /* \"#utility.yul\":17830:17856   */\n      swap1\n      pop\n        /* \"#utility.yul\":17902:17911   */\n      dup2\n        /* \"#utility.yul\":17896:17900   */\n      dup2\n        /* \"#utility.yul\":17892:17912   */\n      sub\n        /* \"#utility.yul\":17888:17889   */\n      0x00\n        /* \"#utility.yul\":17877:17886   */\n      dup4\n        /* \"#utility.yul\":17873:17890   */\n      add\n        /* \"#utility.yul\":17866:17913   */\n      mstore\n        /* \"#utility.yul\":17930:18061   */\n      tag_505\n        /* \"#utility.yul\":18056:18060   */\n      dup2\n        /* \"#utility.yul\":17930:18061   */\n      tag_439\n      jump\t// in\n    tag_505:\n        /* \"#utility.yul\":17922:18061   */\n      swap1\n      pop\n        /* \"#utility.yul\":17820:18068   */\n      swap2\n      swap1\n      pop\n      jump\t// out\n        /* \"#utility.yul\":18074:18493   */\n    tag_126:\n      0x00\n        /* \"#utility.yul\":18278:18280   */\n      0x20\n        /* \"#utility.yul\":18267:18276   */\n      dup3\n        /* \"#utility.yul\":18263:18281   */\n      add\n        /* \"#utility.yul\":18255:18281   */\n      swap1\n      pop\n        /* \"#utility.yul\":18327:18336   */\n      dup2\n        /* \"#utility.yul\":18321:18325   */\n      dup2\n        /* \"#utility.yul\":18317:18337   */\n      sub\n        /* \"#utility.yul\":18313:18314   */\n      0x00\n        /* \"#utility.yul\":18302:18311   */\n      dup4\n        /* \"#utility.yul\":18298:18315   */\n      add\n        /* \"#utility.yul\":18291:18338   */\n      mstore\n        /* \"#utility.yul\":18355:18486   */\n      tag_507\n        /* \"#utility.yul\":18481:18485   */\n      dup2\n        /* \"#utility.yul\":18355:18486   */\n      tag_442\n      jump\t// in\n    tag_507:\n        /* \"#utility.yul\":18347:18486   */\n      swap1\n      pop\n        /* \"#utility.yul\":18245:18493   */\n      swap2\n      swap1\n      pop\n      jump\t// out\n        /* \"#utility.yul\":18499:18918   */\n    tag_264:\n      0x00\n        /* \"#utility.yul\":18703:18705   */\n      0x20\n        /* \"#utility.yul\":18692:18701   */\n      dup3\n        /* \"#utility.yul\":18688:18706   */\n      add\n        /* \"#utility.yul\":18680:18706   */\n      swap1\n      pop\n        /* \"#utility.yul\":18752:18761   */\n      dup2\n        /* \"#utility.yul\":18746:18750   */\n      dup2\n        /* \"#utility.yul\":18742:18762   */\n      sub\n        /* \"#utility.yul\":18738:18739   */\n      0x00\n        /* \"#utility.yul\":18727:18736   */\n      dup4\n        /* \"#utility.yul\":18723:18740   */\n      add\n        /* \"#utility.yul\":18716:18763   */\n      mstore\n        /* \"#utility.yul\":18780:18911   */\n      tag_509\n        /* \"#utility.yul\":18906:18910   */\n      dup2\n        /* \"#utility.yul\":18780:18911   */\n      tag_445\n      jump\t// in\n    tag_509:\n        /* \"#utility.yul\":18772:18911   */\n      swap1\n      pop\n        /* \"#utility.yul\":18670:18918   */\n      swap2\n      swap1\n      pop\n      jump\t// out\n        /* \"#utility.yul\":18924:19343   */\n    tag_176:\n      0x00\n        /* \"#utility.yul\":19128:19130   */\n      0x20\n        /* \"#utility.yul\":19117:19126   */\n      dup3\n        /* \"#utility.yul\":19113:19131   */\n      add\n        /* \"#utility.yul\":19105:19131   */\n      swap1\n      pop\n        /* \"#utility.yul\":19177:19186   */\n      dup2\n        /* \"#utility.yul\":19171:19175   */\n      dup2\n        /* \"#utility.yul\":19167:19187   */\n      sub\n        /* \"#utility.yul\":19163:19164   */\n      0x00\n        /* \"#utility.yul\":19152:19161   */\n      dup4\n        /* \"#utility.yul\":19148:19165   */\n      add\n        /* \"#utility.yul\":19141:19188   */\n      mstore\n        /* \"#utility.yul\":19205:19336   */\n      tag_511\n        /* \"#utility.yul\":19331:19335   */\n      dup2\n        /* \"#utility.yul\":19205:19336   */\n      tag_448\n      jump\t// in\n    tag_511:\n        /* \"#utility.yul\":19197:19336   */\n      swap1\n      pop\n        /* \"#utility.yul\":19095:19343   */\n      swap2\n      swap1\n      pop\n      jump\t// out\n        /* \"#utility.yul\":19349:19768   */\n    tag_154:\n      0x00\n        /* \"#utility.yul\":19553:19555   */\n      0x20\n        /* \"#utility.yul\":19542:19551   */\n      dup3\n        /* \"#utility.yul\":19538:19556   */\n      add\n        /* \"#utility.yul\":19530:19556   */\n      swap1\n      pop\n        /* \"#utility.yul\":19602:19611   */\n      dup2\n        /* \"#utility.yul\":19596:19600   */\n      dup2\n        /* \"#utility.yul\":19592:19612   */\n      sub\n        /* \"#utility.yul\":19588:19589   */\n      0x00\n        /* \"#utility.yul\":19577:19586   */\n      dup4\n        /* \"#utility.yul\":19573:19590   */\n      add\n        /* \"#utility.yul\":19566:19613   */\n      mstore\n        /* \"#utility.yul\":19630:19761   */\n      tag_513\n        /* \"#utility.yul\":19756:19760   */\n      dup2\n        /* \"#utility.yul\":19630:19761   */\n      tag_451\n      jump\t// in\n    tag_513:\n        /* \"#utility.yul\":19622:19761   */\n      swap1\n      pop\n        /* \"#utility.yul\":19520:19768   */\n      swap2\n      swap1\n      pop\n      jump\t// out\n        /* \"#utility.yul\":19774:20193   */\n    tag_162:\n      0x00\n        /* \"#utility.yul\":19978:19980   */\n      0x20\n        /* \"#utility.yul\":19967:19976   */\n      dup3\n        /* \"#utility.yul\":19963:19981   */\n      add\n        /* \"#utility.yul\":19955:19981   */\n      swap1\n      pop\n        /* \"#utility.yul\":20027:20036   */\n      dup2\n        /* \"#utility.yul\":20021:20025   */\n      dup2\n        /* \"#utility.yul\":20017:20037   */\n      sub\n        /* \"#utility.yul\":20013:20014   */\n      0x00\n        /* \"#utility.yul\":20002:20011   */\n      dup4\n        /* \"#utility.yul\":19998:20015   */\n      add\n        /* \"#utility.yul\":19991:20038   */\n      mstore\n        /* \"#utility.yul\":20055:20186   */\n      tag_515\n        /* \"#utility.yul\":20181:20185   */\n      dup2\n        /* \"#utility.yul\":20055:20186   */\n      tag_454\n      jump\t// in\n    tag_515:\n        /* \"#utility.yul\":20047:20186   */\n      swap1\n      pop\n        /* \"#utility.yul\":19945:20193   */\n      swap2\n      swap1\n      pop\n      jump\t// out\n        /* \"#utility.yul\":20199:20618   */\n    tag_186:\n      0x00\n        /* \"#utility.yul\":20403:20405   */\n      0x20\n        /* \"#utility.yul\":20392:20401   */\n      dup3\n        /* \"#utility.yul\":20388:20406   */\n      add\n        /* \"#utility.yul\":20380:20406   */\n      swap1\n      pop\n        /* \"#utility.yul\":20452:20461   */\n      dup2\n        /* \"#utility.yul\":20446:20450   */\n      dup2\n        /* \"#utility.yul\":20442:20462   */\n      sub\n        /* \"#utility.yul\":20438:20439   */\n      0x00\n        /* \"#utility.yul\":20427:20436   */\n      dup4\n        /* \"#utility.yul\":20423:20440   */\n      add\n        /* \"#utility.yul\":20416:20463   */\n      mstore\n        /* \"#utility.yul\":20480:20611   */\n      tag_517\n        /* \"#utility.yul\":20606:20610   */\n      dup2\n        /* \"#utility.yul\":20480:20611   */\n      tag_457\n      jump\t// in\n    tag_517:\n        /* \"#utility.yul\":20472:20611   */\n      swap1\n      pop\n        /* \"#utility.yul\":20370:20618   */\n      swap2\n      swap1\n      pop\n      jump\t// out\n        /* \"#utility.yul\":20624:21043   */\n    tag_129:\n      0x00\n        /* \"#utility.yul\":20828:20830   */\n      0x20\n        /* \"#utility.yul\":20817:20826   */\n      dup3\n        /* \"#utility.yul\":20813:20831   */\n      add\n        /* \"#utility.yul\":20805:20831   */\n      swap1\n      pop\n        /* \"#utility.yul\":20877:20886   */\n      dup2\n        /* \"#utility.yul\":20871:20875   */\n      dup2\n        /* \"#utility.yul\":20867:20887   */\n      sub\n        /* \"#utility.yul\":20863:20864   */\n      0x00\n        /* \"#utility.yul\":20852:20861   */\n      dup4\n        /* \"#utility.yul\":20848:20865   */\n      add\n        /* \"#utility.yul\":20841:20888   */\n      mstore\n        /* \"#utility.yul\":20905:21036   */\n      tag_519\n        /* \"#utility.yul\":21031:21035   */\n      dup2\n        /* \"#utility.yul\":20905:21036   */\n      tag_460\n      jump\t// in\n    tag_519:\n        /* \"#utility.yul\":20897:21036   */\n      swap1\n      pop\n        /* \"#utility.yul\":20795:21043   */\n      swap2\n      swap1\n      pop\n      jump\t// out\n        /* \"#utility.yul\":21049:21468   */\n    tag_267:\n      0x00\n        /* \"#utility.yul\":21253:21255   */\n      0x20\n        /* \"#utility.yul\":21242:21251   */\n      dup3\n        /* \"#utility.yul\":21238:21256   */\n      add\n        /* \"#utility.yul\":21230:21256   */\n      swap1\n      pop\n        /* \"#utility.yul\":21302:21311   */\n      dup2\n        /* \"#utility.yul\":21296:21300   */\n      dup2\n        /* \"#utility.yul\":21292:21312   */\n      sub\n        /* \"#utility.yul\":21288:21289   */\n      0x00\n        /* \"#utility.yul\":21277:21286   */\n      dup4\n        /* \"#utility.yul\":21273:21290   */\n      add\n        /* \"#utility.yul\":21266:21313   */\n      mstore\n        /* \"#utility.yul\":21330:21461   */\n      tag_521\n        /* \"#utility.yul\":21456:21460   */\n      dup2\n        /* \"#utility.yul\":21330:21461   */\n      tag_466\n      jump\t// in\n    tag_521:\n        /* \"#utility.yul\":21322:21461   */\n      swap1\n      pop\n        /* \"#utility.yul\":21220:21468   */\n      swap2\n      swap1\n      pop\n      jump\t// out\n        /* \"#utility.yul\":21474:21696   */\n    tag_28:\n      0x00\n        /* \"#utility.yul\":21605:21607   */\n      0x20\n        /* \"#utility.yul\":21594:21603   */\n      dup3\n        /* \"#utility.yul\":21590:21608   */\n      add\n        /* \"#utility.yul\":21582:21608   */\n      swap1\n      pop\n        /* \"#utility.yul\":21618:21689   */\n      tag_523\n        /* \"#utility.yul\":21686:21687   */\n      0x00\n        /* \"#utility.yul\":21675:21684   */\n      dup4\n        /* \"#utility.yul\":21671:21688   */\n      add\n        /* \"#utility.yul\":21662:21668   */\n      dup5\n        /* \"#utility.yul\":21618:21689   */\n      tag_472\n      jump\t// in\n    tag_523:\n        /* \"#utility.yul\":21572:21696   */\n      swap3\n      swap2\n      pop\n      pop\n      jump\t// out\n        /* \"#utility.yul\":21702:21985   */\n    tag_295:\n      0x00\n        /* \"#utility.yul\":21768:21770   */\n      0x40\n        /* \"#utility.yul\":21762:21771   */\n      mload\n        /* \"#utility.yul\":21752:21771   */\n      swap1\n      pop\n        /* \"#utility.yul\":21810:21814   */\n      dup2\n        /* \"#utility.yul\":21802:21808   */\n      dup2\n        /* \"#utility.yul\":21798:21815   */\n      add\n        /* \"#utility.yul\":21917:21923   */\n      dup2\n        /* \"#utility.yul\":21905:21915   */\n      dup2\n        /* \"#utility.yul\":21902:21924   */\n      lt\n        /* \"#utility.yul\":21881:21899   */\n      0xffffffffffffffff\n        /* \"#utility.yul\":21869:21879   */\n      dup3\n        /* \"#utility.yul\":21866:21900   */\n      gt\n        /* \"#utility.yul\":21863:21925   */\n      or\n        /* \"#utility.yul\":21860:21862   */\n      iszero\n      tag_525\n      jumpi\n        /* \"#utility.yul\":21928:21946   */\n      tag_526\n      tag_527\n      jump\t// in\n    tag_526:\n        /* \"#utility.yul\":21860:21862   */\n    tag_525:\n        /* \"#utility.yul\":21968:21978   */\n      dup1\n        /* \"#utility.yul\":21964:21966   */\n      0x40\n        /* \"#utility.yul\":21957:21979   */\n      mstore\n        /* \"#utility.yul\":21742:21985   */\n      pop\n      swap2\n      swap1\n      pop\n      jump\t// out\n        /* \"#utility.yul\":21991:22302   */\n    tag_294:\n      0x00\n        /* \"#utility.yul\":22158:22176   */\n      0xffffffffffffffff\n        /* \"#utility.yul\":22150:22156   */\n      dup3\n        /* \"#utility.yul\":22147:22177   */\n      gt\n        /* \"#utility.yul\":22144:22146   */\n      iszero\n      tag_529\n      jumpi\n        /* \"#utility.yul\":22180:22198   */\n      tag_530\n      tag_527\n      jump\t// in\n    tag_530:\n        /* \"#utility.yul\":22144:22146   */\n    tag_529:\n        /* \"#utility.yul\":22230:22234   */\n      0x20\n        /* \"#utility.yul\":22222:22228   */\n      dup3\n        /* \"#utility.yul\":22218:22235   */\n      mul\n        /* \"#utility.yul\":22210:22235   */\n      swap1\n      pop\n        /* \"#utility.yul\":22290:22294   */\n      0x20\n        /* \"#utility.yul\":22284:22288   */\n      dup2\n        /* \"#utility.yul\":22280:22295   */\n      add\n        /* \"#utility.yul\":22272:22295   */\n      swap1\n      pop\n        /* \"#utility.yul\":22073:22302   */\n      swap2\n      swap1\n      pop\n      jump\t// out\n        /* \"#utility.yul\":22308:22640   */\n    tag_306:\n      0x00\n        /* \"#utility.yul\":22460:22478   */\n      0xffffffffffffffff\n        /* \"#utility.yul\":22452:22458   */\n      dup3\n        /* \"#utility.yul\":22449:22479   */\n      gt\n        /* \"#utility.yul\":22446:22448   */\n      iszero\n      tag_532\n      jumpi\n        /* \"#utility.yul\":22482:22500   */\n      tag_533\n      tag_527\n      jump\t// in\n    tag_533:\n        /* \"#utility.yul\":22446:22448   */\n    tag_532:\n        /* \"#utility.yul\":22567:22571   */\n      0x1f\n        /* \"#utility.yul\":22563:22572   */\n      not\n        /* \"#utility.yul\":22556:22560   */\n      0x1f\n        /* \"#utility.yul\":22548:22554   */\n      dup4\n        /* \"#utility.yul\":22544:22561   */\n      add\n        /* \"#utility.yul\":22540:22573   */\n      and\n        /* \"#utility.yul\":22532:22573   */\n      swap1\n      pop\n        /* \"#utility.yul\":22628:22632   */\n      0x20\n        /* \"#utility.yul\":22622:22626   */\n      dup2\n        /* \"#utility.yul\":22618:22633   */\n      add\n        /* \"#utility.yul\":22610:22633   */\n      swap1\n      pop\n        /* \"#utility.yul\":22375:22640   */\n      swap2\n      swap1\n      pop\n      jump\t// out\n        /* \"#utility.yul\":22646:22778   */\n    tag_399:\n      0x00\n        /* \"#utility.yul\":22736:22739   */\n      dup2\n        /* \"#utility.yul\":22728:22739   */\n      swap1\n      pop\n        /* \"#utility.yul\":22766:22770   */\n      0x20\n        /* \"#utility.yul\":22761:22764   */\n      dup3\n        /* \"#utility.yul\":22757:22771   */\n      add\n        /* \"#utility.yul\":22749:22771   */\n      swap1\n      pop\n        /* \"#utility.yul\":22718:22778   */\n      swap2\n      swap1\n      pop\n      jump\t// out\n        /* \"#utility.yul\":22784:22898   */\n    tag_395:\n      0x00\n        /* \"#utility.yul\":22885:22890   */\n      dup2\n        /* \"#utility.yul\":22879:22891   */\n      mload\n        /* \"#utility.yul\":22869:22891   */\n      swap1\n      pop\n        /* \"#utility.yul\":22858:22898   */\n      swap2\n      swap1\n      pop\n      jump\t// out\n        /* \"#utility.yul\":22904:23017   */\n    tag_405:\n      0x00\n        /* \"#utility.yul\":23006:23010   */\n      0x20\n        /* \"#utility.yul\":23001:23004   */\n      dup3\n        /* \"#utility.yul\":22997:23011   */\n      add\n        /* \"#utility.yul\":22989:23011   */\n      swap1\n      pop\n        /* \"#utility.yul\":22979:23017   */\n      swap2\n      swap1\n      pop\n      jump\t// out\n        /* \"#utility.yul\":23023:23207   */\n    tag_397:\n      0x00\n        /* \"#utility.yul\":23156:23162   */\n      dup3\n        /* \"#utility.yul\":23151:23154   */\n      dup3\n        /* \"#utility.yul\":23144:23163   */\n      mstore\n        /* \"#utility.yul\":23196:23200   */\n      0x20\n        /* \"#utility.yul\":23191:23194   */\n      dup3\n        /* \"#utility.yul\":23187:23201   */\n      add\n        /* \"#utility.yul\":23172:23201   */\n      swap1\n      pop\n        /* \"#utility.yul\":23134:23207   */\n      swap3\n      swap2\n      pop\n      pop\n      jump\t// out\n        /* \"#utility.yul\":23213:23382   */\n    tag_429:\n      0x00\n        /* \"#utility.yul\":23331:23337   */\n      dup3\n        /* \"#utility.yul\":23326:23329   */\n      dup3\n        /* \"#utility.yul\":23319:23338   */\n      mstore\n        /* \"#utility.yul\":23371:23375   */\n      0x20\n        /* \"#utility.yul\":23366:23369   */\n      dup3\n        /* \"#utility.yul\":23362:23376   */\n      add\n        /* \"#utility.yul\":23347:23376   */\n      swap1\n      pop\n        /* \"#utility.yul\":23309:23382   */\n      swap3\n      swap2\n      pop\n      pop\n      jump\t// out\n        /* \"#utility.yul\":23388:23693   */\n    tag_120:\n      0x00\n        /* \"#utility.yul\":23447:23467   */\n      tag_540\n        /* \"#utility.yul\":23465:23466   */\n      dup3\n        /* \"#utility.yul\":23447:23467   */\n      tag_471\n      jump\t// in\n    tag_540:\n        /* \"#utility.yul\":23442:23467   */\n      swap2\n      pop\n        /* \"#utility.yul\":23481:23501   */\n      tag_541\n        /* \"#utility.yul\":23499:23500   */\n      dup4\n        /* \"#utility.yul\":23481:23501   */\n      tag_471\n      jump\t// in\n    tag_541:\n        /* \"#utility.yul\":23476:23501   */\n      swap3\n      pop\n        /* \"#utility.yul\":23635:23636   */\n      dup3\n        /* \"#utility.yul\":23567:23633   */\n      0xffffffffffffffffffffffffffffffffffffffffffffffffffffffffffffffff\n        /* \"#utility.yul\":23563:23637   */\n      sub\n        /* \"#utility.yul\":23560:23561   */\n      dup3\n        /* \"#utility.yul\":23557:23638   */\n      gt\n        /* \"#utility.yul\":23554:23556   */\n      iszero\n      tag_542\n      jumpi\n        /* \"#utility.yul\":23641:23659   */\n      tag_543\n      tag_544\n      jump\t// in\n    tag_543:\n        /* \"#utility.yul\":23554:23556   */\n    tag_542:\n        /* \"#utility.yul\":23685:23686   */\n      dup3\n        /* \"#utility.yul\":23682:23683   */\n      dup3\n        /* \"#utility.yul\":23678:23687   */\n      add\n        /* \"#utility.yul\":23671:23687   */\n      swap1\n      pop\n        /* \"#utility.yul\":23432:23693   */\n      swap3\n      swap2\n      pop\n      pop\n      jump\t// out\n        /* \"#utility.yul\":23699:24047   */\n    tag_122:\n      0x00\n        /* \"#utility.yul\":23762:23782   */\n      tag_546\n        /* \"#utility.yul\":23780:23781   */\n      dup3\n        /* \"#utility.yul\":23762:23782   */\n      tag_471\n      jump\t// in\n    tag_546:\n        /* \"#utility.yul\":23757:23782   */\n      swap2\n      pop\n        /* \"#utility.yul\":23796:23816   */\n      tag_547\n        /* \"#utility.yul\":23814:23815   */\n      dup4\n        /* \"#utility.yul\":23796:23816   */\n      tag_471\n      jump\t// in\n    tag_547:\n        /* \"#utility.yul\":23791:23816   */\n      swap3\n      pop\n        /* \"#utility.yul\":23984:23985   */\n      dup2\n        /* \"#utility.yul\":23916:23982   */\n      0xffffffffffffffffffffffffffffffffffffffffffffffffffffffffffffffff\n        /* \"#utility.yul\":23912:23986   */\n      div\n        /* \"#utility.yul\":23909:23910   */\n      dup4\n        /* \"#utility.yul\":23906:23987   */\n      gt\n        /* \"#utility.yul\":23901:23902   */\n      dup3\n        /* \"#utility.yul\":23894:23903   */\n      iszero\n        /* \"#utility.yul\":23887:23904   */\n      iszero\n        /* \"#utility.yul\":23883:23988   */\n      and\n        /* \"#utility.yul\":23880:23882   */\n      iszero\n      tag_548\n      jumpi\n        /* \"#utility.yul\":23991:24009   */\n      tag_549\n      tag_544\n      jump\t// in\n    tag_549:\n        /* \"#utility.yul\":23880:23882   */\n    tag_548:\n        /* \"#utility.yul\":24039:24040   */\n      dup3\n        /* \"#utility.yul\":24036:24037   */\n      dup3\n        /* \"#utility.yul\":24032:24041   */\n      mul\n        /* \"#utility.yul\":24021:24041   */\n      swap1\n      pop\n        /* \"#utility.yul\":23747:24047   */\n      swap3\n      swap2\n      pop\n      pop\n      jump\t// out\n        /* \"#utility.yul\":24053:24244   */\n    tag_131:\n      0x00\n        /* \"#utility.yul\":24113:24133   */\n      tag_551\n        /* \"#utility.yul\":24131:24132   */\n      dup3\n        /* \"#utility.yul\":24113:24133   */\n      tag_471\n      jump\t// in\n    tag_551:\n        /* \"#utility.yul\":24108:24133   */\n      swap2\n      pop\n        /* \"#utility.yul\":24147:24167   */\n      tag_552\n        /* \"#utility.yul\":24165:24166   */\n      dup4\n        /* \"#utility.yul\":24147:24167   */\n      tag_471\n      jump\t// in\n    tag_552:\n        /* \"#utility.yul\":24142:24167   */\n      swap3\n      pop\n        /* \"#utility.yul\":24186:24187   */\n      dup3\n        /* \"#utility.yul\":24183:24184   */\n      dup3\n        /* \"#utility.yul\":24180:24188   */\n      lt\n        /* \"#utility.yul\":24177:24179   */\n      iszero\n      tag_553\n      jumpi\n        /* \"#utility.yul\":24191:24209   */\n      tag_554\n      tag_544\n      jump\t// in\n    tag_554:\n        /* \"#utility.yul\":24177:24179   */\n    tag_553:\n        /* \"#utility.yul\":24236:24237   */\n      dup3\n        /* \"#utility.yul\":24233:24234   */\n      dup3\n        /* \"#utility.yul\":24229:24238   */\n      sub\n        /* \"#utility.yul\":24221:24238   */\n      swap1\n      pop\n        /* \"#utility.yul\":24098:24244   */\n      swap3\n      swap2\n      pop\n      pop\n      jump\t// out\n        /* \"#utility.yul\":24250:24346   */\n    tag_391:\n      0x00\n        /* \"#utility.yul\":24316:24340   */\n      tag_556\n        /* \"#utility.yul\":24334:24339   */\n      dup3\n        /* \"#utility.yul\":24316:24340   */\n      tag_557\n      jump\t// in\n    tag_556:\n        /* \"#utility.yul\":24305:24340   */\n      swap1\n      pop\n        /* \"#utility.yul\":24295:24346   */\n      swap2\n      swap1\n      pop\n      jump\t// out\n        /* \"#utility.yul\":24352:24456   */\n    tag_387:\n      0x00\n        /* \"#utility.yul\":24426:24450   */\n      tag_559\n        /* \"#utility.yul\":24444:24449   */\n      dup3\n        /* \"#utility.yul\":24426:24450   */\n      tag_557\n      jump\t// in\n    tag_559:\n        /* \"#utility.yul\":24415:24450   */\n      swap1\n      pop\n        /* \"#utility.yul\":24405:24456   */\n      swap2\n      swap1\n      pop\n      jump\t// out\n        /* \"#utility.yul\":24462:24552   */\n    tag_409:\n      0x00\n        /* \"#utility.yul\":24539:24544   */\n      dup2\n        /* \"#utility.yul\":24532:24545   */\n      iszero\n        /* \"#utility.yul\":24525:24546   */\n      iszero\n        /* \"#utility.yul\":24514:24546   */\n      swap1\n      pop\n        /* \"#utility.yul\":24504:24552   */\n      swap2\n      swap1\n      pop\n      jump\t// out\n        /* \"#utility.yul\":24558:24695   */\n    tag_561:\n      0x00\n        /* \"#utility.yul\":24637:24642   */\n      dup2\n        /* \"#utility.yul\":24626:24642   */\n      swap1\n      pop\n        /* \"#utility.yul\":24643:24689   */\n      tag_563\n        /* \"#utility.yul\":24683:24688   */\n      dup3\n        /* \"#utility.yul\":24643:24689   */\n      tag_564\n      jump\t// in\n    tag_563:\n        /* \"#utility.yul\":24616:24695   */\n      swap2\n      swap1\n      pop\n      jump\t// out\n        /* \"#utility.yul\":24701:24827   */\n    tag_557:\n      0x00\n        /* \"#utility.yul\":24778:24820   */\n      0xffffffffffffffffffffffffffffffffffffffff\n        /* \"#utility.yul\":24771:24776   */\n      dup3\n        /* \"#utility.yul\":24767:24821   */\n      and\n        /* \"#utility.yul\":24756:24821   */\n      swap1\n      pop\n        /* \"#utility.yul\":24746:24827   */\n      swap2\n      swap1\n      pop\n      jump\t// out\n        /* \"#utility.yul\":24833:24910   */\n    tag_471:\n      0x00\n        /* \"#utility.yul\":24899:24904   */\n      dup2\n        /* \"#utility.yul\":24888:24904   */\n      swap1\n      pop\n        /* \"#utility.yul\":24878:24910   */\n      swap2\n      swap1\n      pop\n      jump\t// out\n        /* \"#utility.yul\":24916:25050   */\n    tag_383:\n      0x00\n        /* \"#utility.yul\":25007:25044   */\n      tag_568\n        /* \"#utility.yul\":25038:25043   */\n      dup3\n        /* \"#utility.yul\":25007:25044   */\n      tag_569\n      jump\t// in\n    tag_568:\n        /* \"#utility.yul\":24994:25044   */\n      swap1\n      pop\n        /* \"#utility.yul\":24984:25050   */\n      swap2\n      swap1\n      pop\n      jump\t// out\n        /* \"#utility.yul\":25056:25216   */\n    tag_413:\n      0x00\n        /* \"#utility.yul\":25156:25210   */\n      tag_571\n        /* \"#utility.yul\":25204:25209   */\n      dup3\n        /* \"#utility.yul\":25156:25210   */\n      tag_572\n      jump\t// in\n    tag_571:\n        /* \"#utility.yul\":25143:25210   */\n      swap1\n      pop\n        /* \"#utility.yul\":25133:25216   */\n      swap2\n      swap1\n      pop\n      jump\t// out\n        /* \"#utility.yul\":25222:25352   */\n    tag_572:\n      0x00\n        /* \"#utility.yul\":25322:25346   */\n      tag_574\n        /* \"#utility.yul\":25340:25345   */\n      dup3\n        /* \"#utility.yul\":25322:25346   */\n      tag_557\n      jump\t// in\n    tag_574:\n        /* \"#utility.yul\":25309:25346   */\n      swap1\n      pop\n        /* \"#utility.yul\":25299:25352   */\n      swap2\n      swap1\n      pop\n      jump\t// out\n        /* \"#utility.yul\":25358:25512   */\n    tag_417:\n      0x00\n        /* \"#utility.yul\":25455:25506   */\n      tag_576\n        /* \"#utility.yul\":25500:25505   */\n      dup3\n        /* \"#utility.yul\":25455:25506   */\n      tag_577\n      jump\t// in\n    tag_576:\n        /* \"#utility.yul\":25442:25506   */\n      swap1\n      pop\n        /* \"#utility.yul\":25432:25512   */\n      swap2\n      swap1\n      pop\n      jump\t// out\n        /* \"#utility.yul\":25518:25645   */\n    tag_577:\n      0x00\n        /* \"#utility.yul\":25615:25639   */\n      tag_579\n        /* \"#utility.yul\":25633:25638   */\n      dup3\n        /* \"#utility.yul\":25615:25639   */\n      tag_557\n      jump\t// in\n    tag_579:\n        /* \"#utility.yul\":25602:25639   */\n      swap1\n      pop\n        /* \"#utility.yul\":25592:25645   */\n      swap2\n      swap1\n      pop\n      jump\t// out\n        /* \"#utility.yul\":25651:25788   */\n    tag_421:\n      0x00\n        /* \"#utility.yul\":25745:25782   */\n      tag_581\n        /* \"#utility.yul\":25776:25781   */\n      dup3\n        /* \"#utility.yul\":25745:25782   */\n      tag_561\n      jump\t// in\n    tag_581:\n        /* \"#utility.yul\":25732:25782   */\n      swap1\n      pop\n        /* \"#utility.yul\":25722:25788   */\n      swap2\n      swap1\n      pop\n      jump\t// out\n        /* \"#utility.yul\":25794:25915   */\n    tag_425:\n      0x00\n        /* \"#utility.yul\":25885:25909   */\n      tag_583\n        /* \"#utility.yul\":25903:25908   */\n      dup3\n        /* \"#utility.yul\":25885:25909   */\n      tag_471\n      jump\t// in\n    tag_583:\n        /* \"#utility.yul\":25872:25909   */\n      swap1\n      pop\n        /* \"#utility.yul\":25862:25915   */\n      swap2\n      swap1\n      pop\n      jump\t// out\n        /* \"#utility.yul\":25921:26047   */\n    tag_569:\n      0x00\n        /* \"#utility.yul\":26004:26041   */\n      tag_585\n        /* \"#utility.yul\":26035:26040   */\n      dup3\n        /* \"#utility.yul\":26004:26041   */\n      tag_586\n      jump\t// in\n    tag_585:\n        /* \"#utility.yul\":25991:26041   */\n      swap1\n      pop\n        /* \"#utility.yul\":25981:26047   */\n      swap2\n      swap1\n      pop\n      jump\t// out\n        /* \"#utility.yul\":26053:26166   */\n    tag_586:\n      0x00\n        /* \"#utility.yul\":26136:26160   */\n      tag_588\n        /* \"#utility.yul\":26154:26159   */\n      dup3\n        /* \"#utility.yul\":26136:26160   */\n      tag_557\n      jump\t// in\n    tag_588:\n        /* \"#utility.yul\":26123:26160   */\n      swap1\n      pop\n        /* \"#utility.yul\":26113:26166   */\n      swap2\n      swap1\n      pop\n      jump\t// out\n        /* \"#utility.yul\":26172:26326   */\n    tag_309:\n        /* \"#utility.yul\":26256:26262   */\n      dup3\n        /* \"#utility.yul\":26251:26254   */\n      dup2\n        /* \"#utility.yul\":26246:26249   */\n      dup4\n        /* \"#utility.yul\":26233:26263   */\n      calldatacopy\n        /* \"#utility.yul\":26318:26319   */\n      0x00\n        /* \"#utility.yul\":26309:26315   */\n      dup4\n        /* \"#utility.yul\":26304:26307   */\n      dup4\n        /* \"#utility.yul\":26300:26316   */\n      add\n        /* \"#utility.yul\":26293:26320   */\n      mstore\n        /* \"#utility.yul\":26223:26326   */\n      pop\n      pop\n      pop\n      jump\t// out\n        /* \"#utility.yul\":26332:26639   */\n    tag_316:\n        /* \"#utility.yul\":26400:26401   */\n      0x00\n        /* \"#utility.yul\":26410:26523   */\n    tag_591:\n        /* \"#utility.yul\":26424:26430   */\n      dup4\n        /* \"#utility.yul\":26421:26422   */\n      dup2\n        /* \"#utility.yul\":26418:26431   */\n      lt\n        /* \"#utility.yul\":26410:26523   */\n      iszero\n      tag_593\n      jumpi\n        /* \"#utility.yul\":26509:26510   */\n      dup1\n        /* \"#utility.yul\":26504:26507   */\n      dup3\n        /* \"#utility.yul\":26500:26511   */\n      add\n        /* \"#utility.yul\":26494:26512   */\n      mload\n        /* \"#utility.yul\":26490:26491   */\n      dup2\n        /* \"#utility.yul\":26485:26488   */\n      dup5\n        /* \"#utility.yul\":26481:26492   */\n      add\n        /* \"#utility.yul\":26474:26513   */\n      mstore\n        /* \"#utility.yul\":26446:26448   */\n      0x20\n        /* \"#utility.yul\":26443:26444   */\n      dup2\n        /* \"#utility.yul\":26439:26449   */\n      add\n        /* \"#utility.yul\":26434:26449   */\n      swap1\n      pop\n        /* \"#utility.yul\":26410:26523   */\n      jump(tag_591)\n    tag_593:\n        /* \"#utility.yul\":26541:26547   */\n      dup4\n        /* \"#utility.yul\":26538:26539   */\n      dup2\n        /* \"#utility.yul\":26535:26548   */\n      gt\n        /* \"#utility.yul\":26532:26534   */\n      iszero\n      tag_594\n      jumpi\n        /* \"#utility.yul\":26621:26622   */\n      0x00\n        /* \"#utility.yul\":26612:26618   */\n      dup5\n        /* \"#utility.yul\":26607:26610   */\n      dup5\n        /* \"#utility.yul\":26603:26619   */\n      add\n        /* \"#utility.yul\":26596:26623   */\n      mstore\n        /* \"#utility.yul\":26532:26534   */\n    tag_594:\n        /* \"#utility.yul\":26381:26639   */\n      pop\n      pop\n      pop\n      pop\n      jump\t// out\n        /* \"#utility.yul\":26645:26878   */\n    tag_203:\n      0x00\n        /* \"#utility.yul\":26707:26731   */\n      tag_596\n        /* \"#utility.yul\":26725:26730   */\n      dup3\n        /* \"#utility.yul\":26707:26731   */\n      tag_471\n      jump\t// in\n    tag_596:\n        /* \"#utility.yul\":26698:26731   */\n      swap2\n      pop\n        /* \"#utility.yul\":26753:26819   */\n      0xffffffffffffffffffffffffffffffffffffffffffffffffffffffffffffffff\n        /* \"#utility.yul\":26746:26751   */\n      dup3\n        /* \"#utility.yul\":26743:26820   */\n      eq\n        /* \"#utility.yul\":26740:26742   */\n      iszero\n      tag_597\n      jumpi\n        /* \"#utility.yul\":26823:26841   */\n      tag_598\n      tag_544\n      jump\t// in\n    tag_598:\n        /* \"#utility.yul\":26740:26742   */\n    tag_597:\n        /* \"#utility.yul\":26870:26871   */\n      0x01\n        /* \"#utility.yul\":26863:26868   */\n      dup3\n        /* \"#utility.yul\":26859:26872   */\n      add\n        /* \"#utility.yul\":26852:26872   */\n      swap1\n      pop\n        /* \"#utility.yul\":26688:26878   */\n      swap2\n      swap1\n      pop\n      jump\t// out\n        /* \"#utility.yul\":26884:27064   */\n    tag_544:\n        /* \"#utility.yul\":26932:27009   */\n      0x4e487b7100000000000000000000000000000000000000000000000000000000\n        /* \"#utility.yul\":26929:26930   */\n      0x00\n        /* \"#utility.yul\":26922:27010   */\n      mstore\n        /* \"#utility.yul\":27029:27033   */\n      0x11\n        /* \"#utility.yul\":27026:27027   */\n      0x04\n        /* \"#utility.yul\":27019:27034   */\n      mstore\n        /* \"#utility.yul\":27053:27057   */\n      0x24\n        /* \"#utility.yul\":27050:27051   */\n      0x00\n        /* \"#utility.yul\":27043:27058   */\n      revert\n        /* \"#utility.yul\":27070:27250   */\n    tag_600:\n        /* \"#utility.yul\":27118:27195   */\n      0x4e487b7100000000000000000000000000000000000000000000000000000000\n        /* \"#utility.yul\":27115:27116   */\n      0x00\n        /* \"#utility.yul\":27108:27196   */\n      mstore\n        /* \"#utility.yul\":27215:27219   */\n      0x21\n        /* \"#utility.yul\":27212:27213   */\n      0x04\n        /* \"#utility.yul\":27205:27220   */\n      mstore\n        /* \"#utility.yul\":27239:27243   */\n      0x24\n        /* \"#utility.yul\":27236:27237   */\n      0x00\n        /* \"#utility.yul\":27229:27244   */\n      revert\n        /* \"#utility.yul\":27256:27436   */\n    tag_527:\n        /* \"#utility.yul\":27304:27381   */\n      0x4e487b7100000000000000000000000000000000000000000000000000000000\n        /* \"#utility.yul\":27301:27302   */\n      0x00\n        /* \"#utility.yul\":27294:27382   */\n      mstore\n        /* \"#utility.yul\":27401:27405   */\n      0x41\n        /* \"#utility.yul\":27398:27399   */\n      0x04\n        /* \"#utility.yul\":27391:27406   */\n      mstore\n        /* \"#utility.yul\":27425:27429   */\n      0x24\n        /* \"#utility.yul\":27422:27423   */\n      0x00\n        /* \"#utility.yul\":27415:27430   */\n      revert\n        /* \"#utility.yul\":27442:27560   */\n    tag_564:\n        /* \"#utility.yul\":27528:27529   */\n      0x03\n        /* \"#utility.yul\":27521:27526   */\n      dup2\n        /* \"#utility.yul\":27518:27530   */\n      lt\n        /* \"#utility.yul\":27508:27510   */\n      tag_604\n      jumpi\n        /* \"#utility.yul\":27534:27552   */\n      tag_605\n      tag_600\n      jump\t// in\n    tag_605:\n        /* \"#utility.yul\":27508:27510   */\n    tag_604:\n        /* \"#utility.yul\":27498:27560   */\n      pop\n      jump\t// out\n        /* \"#utility.yul\":27566:27688   */\n    tag_320:\n        /* \"#utility.yul\":27639:27663   */\n      tag_607\n        /* \"#utility.yul\":27657:27662   */\n      dup2\n        /* \"#utility.yul\":27639:27663   */\n      tag_391\n      jump\t// in\n    tag_607:\n        /* \"#utility.yul\":27632:27637   */\n      dup2\n        /* \"#utility.yul\":27629:27664   */\n      eq\n        /* \"#utility.yul\":27619:27621   */\n      tag_608\n      jumpi\n        /* \"#utility.yul\":27678:27679   */\n      0x00\n        /* \"#utility.yul\":27675:27676   */\n      dup1\n        /* \"#utility.yul\":27668:27680   */\n      revert\n        /* \"#utility.yul\":27619:27621   */\n    tag_608:\n        /* \"#utility.yul\":27609:27688   */\n      pop\n      jump\t// out\n        /* \"#utility.yul\":27694:27810   */\n    tag_328:\n        /* \"#utility.yul\":27764:27785   */\n      tag_610\n        /* \"#utility.yul\":27779:27784   */\n      dup2\n        /* \"#utility.yul\":27764:27785   */\n      tag_409\n      jump\t// in\n    tag_610:\n        /* \"#utility.yul\":27757:27762   */\n      dup2\n        /* \"#utility.yul\":27754:27786   */\n      eq\n        /* \"#utility.yul\":27744:27746   */\n      tag_611\n      jumpi\n        /* \"#utility.yul\":27800:27801   */\n      0x00\n        /* \"#utility.yul\":27797:27798   */\n      dup1\n        /* \"#utility.yul\":27790:27802   */\n      revert\n        /* \"#utility.yul\":27744:27746   */\n    tag_611:\n        /* \"#utility.yul\":27734:27810   */\n      pop\n      jump\t// out\n        /* \"#utility.yul\":27816:27928   */\n    tag_332:\n        /* \"#utility.yul\":27902:27903   */\n      0x03\n        /* \"#utility.yul\":27895:27900   */\n      dup2\n        /* \"#utility.yul\":27892:27904   */\n      lt\n        /* \"#utility.yul\":27882:27884   */\n      tag_613\n      jumpi\n        /* \"#utility.yul\":27918:27919   */\n      0x00\n        /* \"#utility.yul\":27915:27916   */\n      dup1\n        /* \"#utility.yul\":27908:27920   */\n      revert\n        /* \"#utility.yul\":27882:27884   */\n    tag_613:\n        /* \"#utility.yul\":27872:27928   */\n      pop\n      jump\t// out\n        /* \"#utility.yul\":27934:28056   */\n    tag_344:\n        /* \"#utility.yul\":28007:28031   */\n      tag_615\n        /* \"#utility.yul\":28025:28030   */\n      dup2\n        /* \"#utility.yul\":28007:28031   */\n      tag_471\n      jump\t// in\n    tag_615:\n        /* \"#utility.yul\":28000:28005   */\n      dup2\n        /* \"#utility.yul\":27997:28032   */\n      eq\n        /* \"#utility.yul\":27987:27989   */\n      tag_616\n      jumpi\n        /* \"#utility.yul\":28046:28047   */\n      0x00\n        /* \"#utility.yul\":28043:28044   */\n      dup1\n        /* \"#utility.yul\":28036:28048   */\n      revert\n        /* \"#utility.yul\":27987:27989   */\n    tag_616:\n        /* \"#utility.yul\":27977:28056   */\n      pop\n      jump\t// out\n\n    auxdata: 0xa2646970667358221220c7d598d40c324ded7a6d869562e1b9f7ad73abb096a2d215174efad6faef18f664736f6c63430008000033\n}\n",
				"bytecode": {
					"linkReferences": {},
					"object": "608060405234801561001057600080fd5b506129d0806100206000396000f3fe6080604052600436106100fe5760003560e01c806385b4bb53116100955780639ce110d7116100645780639ce110d7146102e0578063bbc90a921461030b578063be9a655514610336578063efbe1c1c14610340578063f887ea4014610357576100fe565b806385b4bb53146102245780638d928af81461024f5780638ddbeb071461027a57806391b7f5ed146102b7576100fe565b806365cacaa4116100d157806365cacaa41461018c5780636da84e6c146101b75780638129fc1c146101e2578063853a1b90146101f9576100fe565b80631998aeef146101035780632a24f46c1461010d5780632bf33bd914610138578063325c25a214610161575b600080fd5b61010b610382565b005b34801561011957600080fd5b50610122610896565b60405161012f9190612534565b60405180910390f35b34801561014457600080fd5b5061015f600480360381019061015a9190611d1a565b61089c565b005b34801561016d57600080fd5b50610176610c7a565b6040516101839190612534565b60405180910390f35b34801561019857600080fd5b506101a1610c80565b6040516101ae919061226a565b60405180910390f35b3480156101c357600080fd5b506101cc610d26565b6040516101d99190612534565b60405180910390f35b3480156101ee57600080fd5b506101f7610d2c565b005b34801561020557600080fd5b5061020e610df0565b60405161021b9190612285565b60405180910390f35b34801561023057600080fd5b50610239610e16565b604051610246919061235e565b60405180910390f35b34801561025b57600080fd5b50610264610ebc565b6040516102719190612379565b60405180910390f35b34801561028657600080fd5b506102a1600480360381019061029c9190611cae565b610ecb565b6040516102ae9190612343565b60405180910390f35b3480156102c357600080fd5b506102de60048036038101906102d99190611d1a565b610fe5565b005b3480156102ec57600080fd5b506102f561110e565b6040516103029190612343565b60405180910390f35b34801561031757600080fd5b50610320611121565b60405161032d9190612534565b60405180910390f35b61033e611127565b005b34801561034c57600080fd5b506103556114e8565b005b34801561036357600080fd5b5061036c6119be565b604051610379919061226a565b60405180910390f35b600160028111156103bc577f4e487b7100000000000000000000000000000000000000000000000000000000600052602160045260246000fd5b6103c4610ebc565b73ffffffffffffffffffffffffffffffffffffffff1663d58bfa9d6040518163ffffffff1660e01b815260040160206040518083038186803b15801561040957600080fd5b505afa15801561041d573d6000803e3d6000fd5b505050506040513d601f19601f820116820180604052508101906104419190611c44565b6002811115610479577f4e487b7100000000000000000000000000000000000000000000000000000000600052602160045260246000fd5b14801561054a575061054961048c610ebc565b73ffffffffffffffffffffffffffffffffffffffff16635ccb53df6040518163ffffffff1660e01b815260040160006040518083038186803b1580156104d157600080fd5b505afa1580156104e5573d6000803e3d6000fd5b505050506040513d6000823e3d601f19601f8201168201806040525081019061050e9190611c6d565b6040518060400160405280600781526020017f41756374696f6e00000000000000000000000000000000000000000000000000815250610ecb565b5b610589576040517f08c379a0000000000000000000000000000000000000000000000000000000008152600401610580906123d4565b60405180910390fd5b60006103e8610596610e16565b73ffffffffffffffffffffffffffffffffffffffff16637c513c0f6040518163ffffffff1660e01b8152600401602060405180830381600087803b1580156105dd57600080fd5b505af11580156105f1573d6000803e3d6000fd5b505050506040513d601f19601f820116820180604052508101906106159190611d43565b61061f9190612626565b90508060045461062f919061267c565b6103e83461063d919061267c565b101561067e576040517f08c379a000000000000000000000000000000000000000000000000000000000815260040161067590612434565b60405180910390fd5b60035442106106c2576040517f08c379a00000000000000000000000000000000000000000000000000000000081526004016106b9906124f4565b60405180910390fd5b610384426003546106d391906126d6565b116106f3576000600360008282546106eb9190612626565b925050819055505b6106fb610c80565b73ffffffffffffffffffffffffffffffffffffffff166108fc349081150290604051600060405180830381858888f19350505050158015610740573d6000803e3d6000fd5b50610749610ebc565b73ffffffffffffffffffffffffffffffffffffffff166364a197f3600560009054906101000a900473ffffffffffffffffffffffffffffffffffffffff166004546040518363ffffffff1660e01b81526004016107a79291906122a0565b600060405180830381600087803b1580156107c157600080fd5b505af11580156107d5573d6000803e3d6000fd5b505050503460048190555033600560006101000a81548173ffffffffffffffffffffffffffffffffffffffff021916908373ffffffffffffffffffffffffffffffffffffffff160217905550600560009054906101000a900473ffffffffffffffffffffffffffffffffffffffff1673ffffffffffffffffffffffffffffffffffffffff167fe684a55f31b79eca403df938249029212a5925ec6be8012e099b45bc1019e5d260045460405161088b9190612534565b60405180910390a250565b60035481565b600060028111156108d6577f4e487b7100000000000000000000000000000000000000000000000000000000600052602160045260246000fd5b6108de610ebc565b73ffffffffffffffffffffffffffffffffffffffff1663d58bfa9d6040518163ffffffff1660e01b815260040160206040518083038186803b15801561092357600080fd5b505afa158015610937573d6000803e3d6000fd5b505050506040513d601f19601f8201168201806040525081019061095b9190611c44565b6002811115610993577f4e487b7100000000000000000000000000000000000000000000000000000000600052602160045260246000fd5b146109d3576040517f08c379a00000000000000000000000000000000000000000000000000000000081526004016109ca90612494565b60405180910390fd5b60008054906101000a900473ffffffffffffffffffffffffffffffffffffffff1673ffffffffffffffffffffffffffffffffffffffff1663e66f53b76040518163ffffffff1660e01b815260040160206040518083038186803b158015610a3957600080fd5b505afa158015610a4d573d6000803e3d6000fd5b505050506040513d601f19601f82011682018060405250810190610a719190611bb1565b73ffffffffffffffffffffffffffffffffffffffff163373ffffffffffffffffffffffffffffffffffffffff1614610ade576040517f08c379a0000000000000000000000000000000000000000000000000000000008152600401610ad5906124b4565b60405180910390fd5b610ae6610e16565b73ffffffffffffffffffffffffffffffffffffffff1663a0b335e36040518163ffffffff1660e01b8152600401602060405180830381600087803b158015610b2d57600080fd5b505af1158015610b41573d6000803e3d6000fd5b505050506040513d601f19601f82011682018060405250810190610b659190611d43565b8110158015610bfa5750610b77610e16565b73ffffffffffffffffffffffffffffffffffffffff16630e519ef96040518163ffffffff1660e01b8152600401602060405180830381600087803b158015610bbe57600080fd5b505af1158015610bd2573d6000803e3d6000fd5b505050506040513d601f19601f82011682018060405250810190610bf69190611d43565b8111155b610c39576040517f08c379a0000000000000000000000000000000000000000000000000000000008152600401610c3090612474565b60405180910390fd5b806002819055507f4ab86ae701798277aa378943b9dfd155d3b19703cd57be298908fadd32f7bf4681604051610c6f9190612534565b60405180910390a150565b60025481565b60008060009054906101000a900473ffffffffffffffffffffffffffffffffffffffff1673ffffffffffffffffffffffffffffffffffffffff1663fbfa77cf6040518163ffffffff1660e01b815260040160206040518083038186803b158015610ce957600080fd5b505afa158015610cfd573d6000803e3d6000fd5b505050506040513d601f19601f82011682018060405250810190610d219190611bb1565b905090565b60045481565b600060149054906101000a900460ff1615610d7c576040517f08c379a0000000000000000000000000000000000000000000000000000000008152600401610d73906124d4565b60405180910390fd5b600060149054906101000a900460ff1615600060146101000a81548160ff021916908315150217905550336000806101000a81548173ffffffffffffffffffffffffffffffffffffffff021916908373ffffffffffffffffffffffffffffffffffffffff1602179055506078600281905550565b600560009054906101000a900473ffffffffffffffffffffffffffffffffffffffff1681565b60008060009054906101000a900473ffffffffffffffffffffffffffffffffffffffff1673ffffffffffffffffffffffffffffffffffffffff1663e06174e46040518163ffffffff1660e01b815260040160206040518083038186803b158015610e7f57600080fd5b505afa158015610e93573d6000803e3d6000fd5b505050506040513d601f19601f82011682018060405250810190610eb79190611bb1565b905090565b6000610ec6610c80565b905090565b60008151835114610edf5760009050610fdf565b60005b8351811015610fd957828181518110610f24577f4e487b7100000000000000000000000000000000000000000000000000000000600052603260045260246000fd5b602001015160f81c60f81b7effffffffffffffffffffffffffffffffffffffffffffffffffffffffffffff1916848281518110610f8a577f4e487b7100000000000000000000000000000000000000000000000000000000600052603260045260246000fd5b602001015160f81c60f81b7effffffffffffffffffffffffffffffffffffffffffffffffffffffffffffff191614610fc6576000915050610fdf565b8080610fd19061285b565b915050610ee2565b50600190505b92915050565b60008054906101000a900473ffffffffffffffffffffffffffffffffffffffff1673ffffffffffffffffffffffffffffffffffffffff1663372c12b1336040518263ffffffff1660e01b815260040161103e919061226a565b60206040518083038186803b15801561105657600080fd5b505afa15801561106a573d6000803e3d6000fd5b505050506040513d601f19601f8201168201806040525081019061108e9190611c1b565b6110cd576040517f08c379a00000000000000000000000000000000000000000000000000000000081526004016110c490612394565b60405180910390fd5b806001819055507fd625dc2138f94556f2cf89e7e1c67cc54705c9abe155ad8fb518f4121e942de6816040516111039190612534565b60405180910390a150565b600060149054906101000a900460ff1681565b60015481565b60006002811115611161577f4e487b7100000000000000000000000000000000000000000000000000000000600052602160045260246000fd5b611169610ebc565b73ffffffffffffffffffffffffffffffffffffffff1663d58bfa9d6040518163ffffffff1660e01b815260040160206040518083038186803b1580156111ae57600080fd5b505afa1580156111c2573d6000803e3d6000fd5b505050506040513d601f19601f820116820180604052508101906111e69190611c44565b600281111561121e577f4e487b7100000000000000000000000000000000000000000000000000000000600052602160045260246000fd5b1461125e576040517f08c379a0000000000000000000000000000000000000000000000000000000008152600401611255906123f4565b60405180910390fd5b600060015414156112a4576040517f08c379a000000000000000000000000000000000000000000000000000000000815260040161129b906123b4565b60405180910390fd5b6001543410156112e9576040517f08c379a00000000000000000000000000000000000000000000000000000000081526004016112e090612414565b60405180910390fd5b600254426112f79190612626565b600381905550611305610ebc565b73ffffffffffffffffffffffffffffffffffffffff1663e77ae39b60008060016040518463ffffffff1660e01b8152600401611343939291906122c9565b600060405180830381600087803b15801561135d57600080fd5b505af1158015611371573d6000803e3d6000fd5b5050505034600481905550611384610c80565b73ffffffffffffffffffffffffffffffffffffffff166108fc6004549081150290604051600060405180830381858888f193505050501580156113cb573d6000803e3d6000fd5b5033600560006101000a81548173ffffffffffffffffffffffffffffffffffffffff021916908373ffffffffffffffffffffffffffffffffffffffff160217905550611415610ebc565b73ffffffffffffffffffffffffffffffffffffffff16631370c6a96040518163ffffffff1660e01b8152600401600060405180830381600087803b15801561145c57600080fd5b505af1158015611470573d6000803e3d6000fd5b50505050600560009054906101000a900473ffffffffffffffffffffffffffffffffffffffff1673ffffffffffffffffffffffffffffffffffffffff167fcfb9c5312b25ec7b809d61e638df25f749eae5d5c25399e1c93d1d319bfd58216004546040516114de9190612534565b60405180910390a2565b60016002811115611522577f4e487b7100000000000000000000000000000000000000000000000000000000600052602160045260246000fd5b61152a610ebc565b73ffffffffffffffffffffffffffffffffffffffff1663d58bfa9d6040518163ffffffff1660e01b815260040160206040518083038186803b15801561156f57600080fd5b505afa158015611583573d6000803e3d6000fd5b505050506040513d601f19601f820116820180604052508101906115a79190611c44565b60028111156115df577f4e487b7100000000000000000000000000000000000000000000000000000000600052602160045260246000fd5b1480156116b057506116af6115f2610ebc565b73ffffffffffffffffffffffffffffffffffffffff16635ccb53df6040518163ffffffff1660e01b815260040160006040518083038186803b15801561163757600080fd5b505afa15801561164b573d6000803e3d6000fd5b505050506040513d6000823e3d601f19601f820116820180604052508101906116749190611c6d565b6040518060400160405280600781526020017f41756374696f6e00000000000000000000000000000000000000000000000000815250610ecb565b5b6116ef576040517f08c379a00000000000000000000000000000000000000000000000000000000081526004016116e690612454565b60405180910390fd5b600354421015611734576040517f08c379a000000000000000000000000000000000000000000000000000000000815260040161172b90612514565b60405180910390fd5b60008054906101000a900473ffffffffffffffffffffffffffffffffffffffff1673ffffffffffffffffffffffffffffffffffffffff1663d294f0936040518163ffffffff1660e01b8152600401600060405180830381600087803b15801561179c57600080fd5b505af11580156117b0573d6000803e3d6000fd5b505050506117bc610ebc565b73ffffffffffffffffffffffffffffffffffffffff166294c5f36117de610ebc565b73ffffffffffffffffffffffffffffffffffffffff1663634f63196040518163ffffffff1660e01b815260040160006040518083038186803b15801561182357600080fd5b505afa158015611837573d6000803e3d6000fd5b505050506040513d6000823e3d601f19601f820116820180604052508101906118609190611bda565b600560009054906101000a900473ffffffffffffffffffffffffffffffffffffffff166040518363ffffffff1660e01b81526004016118a0929190612313565b600060405180830381600087803b1580156118ba57600080fd5b505af11580156118ce573d6000803e3d6000fd5b505050506118da610ebc565b73ffffffffffffffffffffffffffffffffffffffff1663e77ae39b60008060026040518463ffffffff1660e01b8152600401611918939291906122c9565b600060405180830381600087803b15801561193257600080fd5b505af1158015611946573d6000803e3d6000fd5b50505050600560009054906101000a900473ffffffffffffffffffffffffffffffffffffffff1673ffffffffffffffffffffffffffffffffffffffff167f8b01f9dd0400d6a1e84369a5fb8f6033934856ffa8ebadd707dca302ab5516956004546040516119b49190612534565b60405180910390a2565b60008054906101000a900473ffffffffffffffffffffffffffffffffffffffff1681565b60006119f56119f084612580565b61254f565b90508083825260208201905082856020860282011115611a1457600080fd5b60005b85811015611a445781611a2a8882611b9c565b845260208401935060208301925050600181019050611a17565b5050509392505050565b6000611a61611a5c846125ac565b61254f565b905082815260208101848484011115611a7957600080fd5b611a84848285612819565b509392505050565b6000611a9f611a9a846125ac565b61254f565b905082815260208101848484011115611ab757600080fd5b611ac2848285612828565b509392505050565b600081519050611ad981612945565b92915050565b600082601f830112611af057600080fd5b8151611b008482602086016119e2565b91505092915050565b600081519050611b188161295c565b92915050565b600081519050611b2d81612973565b92915050565b600082601f830112611b4457600080fd5b8135611b54848260208601611a4e565b91505092915050565b600082601f830112611b6e57600080fd5b8151611b7e848260208601611a8c565b91505092915050565b600081359050611b9681612983565b92915050565b600081519050611bab81612983565b92915050565b600060208284031215611bc357600080fd5b6000611bd184828501611aca565b91505092915050565b600060208284031215611bec57600080fd5b600082015167ffffffffffffffff811115611c0657600080fd5b611c1284828501611adf565b91505092915050565b600060208284031215611c2d57600080fd5b6000611c3b84828501611b09565b91505092915050565b600060208284031215611c5657600080fd5b6000611c6484828501611b1e565b91505092915050565b600060208284031215611c7f57600080fd5b600082015167ffffffffffffffff811115611c9957600080fd5b611ca584828501611b5d565b91505092915050565b60008060408385031215611cc157600080fd5b600083013567ffffffffffffffff811115611cdb57600080fd5b611ce785828601611b33565b925050602083013567ffffffffffffffff811115611d0457600080fd5b611d1085828601611b33565b9150509250929050565b600060208284031215611d2c57600080fd5b6000611d3a84828501611b87565b91505092915050565b600060208284031215611d5557600080fd5b6000611d6384828501611b9c565b91505092915050565b6000611d78838361224c565b60208301905092915050565b611d8d81612777565b82525050565b611d9c8161271c565b82525050565b611dab8161270a565b82525050565b6000611dbc826125ec565b611dc68185612604565b9350611dd1836125dc565b8060005b83811015611e02578151611de98882611d6c565b9750611df4836125f7565b925050600181019050611dd5565b5085935050505092915050565b611e188161272e565b82525050565b611e2781612789565b82525050565b611e36816127ad565b82525050565b611e45816127d1565b82525050565b611e54816127e3565b82525050565b6000611e67602383612615565b91507f7365745072696365203a3a2043616c6c6572207065726d697373696f6e20657260008301527f726f7200000000000000000000000000000000000000000000000000000000006020830152604082019050919050565b6000611ecd602383612615565b91507f7374617274203a3a20456e74697265207661756c74207072696365206973207a60008301527f6f726500000000000000000000000000000000000000000000000000000000006020830152604082019050919050565b6000611f33601a83612615565b91507f626964203a3a2061756374696f6e206973206e6f74206c6976650000000000006000830152602082019050919050565b6000611f73601a83612615565b91507f7374617274203a3a206e6f2061756374696f6e207374617274730000000000006000830152602082019050919050565b6000611fb3601483612615565b91507f7374617274203a3a20746f6f206c6f77206269640000000000000000000000006000830152602082019050919050565b6000611ff3601283612615565b91507f626964203a3a20746f6f206c6f772062696400000000000000000000000000006000830152602082019050919050565b6000612033601f83612615565b91507f656e64203a3a207661756c742068617320616c726561647920636c6f736564006000830152602082019050919050565b6000612073602083612615565b91507f757064617465203a3a20696e76616c69642061756374696f6e206c656e6774686000830152602082019050919050565b60006120b3601483612615565b91507f757064617465203a3a206e6f74207570646174650000000000000000000000006000830152602082019050919050565b60006120f3601583612615565b91507f757064617465203a3a206e6f742063757261746f7200000000000000000000006000830152602082019050919050565b6000612133602183612615565b91507f696e697469616c697a65203a3a20416c726561647920696e697469616c697a6560008301527f64000000000000000000000000000000000000000000000000000000000000006020830152604082019050919050565b6000612199601483612615565b91507f626964203a3a2061756374696f6e20656e6465640000000000000000000000006000830152602082019050919050565b60006121d9600783612615565b91507f41756374696f6e000000000000000000000000000000000000000000000000006000830152602082019050919050565b6000612219601383612615565b91507f656e64203a3a2061756374696f6e206c697665000000000000000000000000006000830152602082019050919050565b6122558161276d565b82525050565b6122648161276d565b82525050565b600060208201905061227f6000830184611da2565b92915050565b600060208201905061229a6000830184611d93565b92915050565b60006040820190506122b56000830185611d84565b6122c2602083018461225b565b9392505050565b60006080820190506122de6000830186611da2565b6122eb6020830185611e4b565b6122f86040830184611e3c565b8181036060830152612309816121cc565b9050949350505050565b6000604082019050818103600083015261232d8185611db1565b905061233c6020830184611d84565b9392505050565b60006020820190506123586000830184611e0f565b92915050565b60006020820190506123736000830184611e1e565b92915050565b600060208201905061238e6000830184611e2d565b92915050565b600060208201905081810360008301526123ad81611e5a565b9050919050565b600060208201905081810360008301526123cd81611ec0565b9050919050565b600060208201905081810360008301526123ed81611f26565b9050919050565b6000602082019050818103600083015261240d81611f66565b9050919050565b6000602082019050818103600083015261242d81611fa6565b9050919050565b6000602082019050818103600083015261244d81611fe6565b9050919050565b6000602082019050818103600083015261246d81612026565b9050919050565b6000602082019050818103600083015261248d81612066565b9050919050565b600060208201905081810360008301526124ad816120a6565b9050919050565b600060208201905081810360008301526124cd816120e6565b9050919050565b600060208201905081810360008301526124ed81612126565b9050919050565b6000602082019050818103600083015261250d8161218c565b9050919050565b6000602082019050818103600083015261252d8161220c565b9050919050565b6000602082019050612549600083018461225b565b92915050565b6000604051905081810181811067ffffffffffffffff8211171561257657612575612902565b5b8060405250919050565b600067ffffffffffffffff82111561259b5761259a612902565b5b602082029050602081019050919050565b600067ffffffffffffffff8211156125c7576125c6612902565b5b601f19601f8301169050602081019050919050565b6000819050602082019050919050565b600081519050919050565b6000602082019050919050565b600082825260208201905092915050565b600082825260208201905092915050565b60006126318261276d565b915061263c8361276d565b9250827fffffffffffffffffffffffffffffffffffffffffffffffffffffffffffffffff03821115612671576126706128a4565b5b828201905092915050565b60006126878261276d565b91506126928361276d565b9250817fffffffffffffffffffffffffffffffffffffffffffffffffffffffffffffffff04831182151516156126cb576126ca6128a4565b5b828202905092915050565b60006126e18261276d565b91506126ec8361276d565b9250828210156126ff576126fe6128a4565b5b828203905092915050565b60006127158261274d565b9050919050565b60006127278261274d565b9050919050565b60008115159050919050565b600081905061274882612931565b919050565b600073ffffffffffffffffffffffffffffffffffffffff82169050919050565b6000819050919050565b6000612782826127f5565b9050919050565b60006127948261279b565b9050919050565b60006127a68261274d565b9050919050565b60006127b8826127bf565b9050919050565b60006127ca8261274d565b9050919050565b60006127dc8261273a565b9050919050565b60006127ee8261276d565b9050919050565b600061280082612807565b9050919050565b60006128128261274d565b9050919050565b82818337600083830152505050565b60005b8381101561284657808201518184015260208101905061282b565b83811115612855576000848401525b50505050565b60006128668261276d565b91507fffffffffffffffffffffffffffffffffffffffffffffffffffffffffffffffff821415612899576128986128a4565b5b600182019050919050565b7f4e487b7100000000000000000000000000000000000000000000000000000000600052601160045260246000fd5b7f4e487b7100000000000000000000000000000000000000000000000000000000600052602160045260246000fd5b7f4e487b7100000000000000000000000000000000000000000000000000000000600052604160045260246000fd5b60038110612942576129416128d3565b5b50565b61294e8161270a565b811461295957600080fd5b50565b6129658161272e565b811461297057600080fd5b50565b6003811061298057600080fd5b50565b61298c8161276d565b811461299757600080fd5b5056fea2646970667358221220c7d598d40c324ded7a6d869562e1b9f7ad73abb096a2d215174efad6faef18f664736f6c63430008000033",
					"opcodes": "PUSH1 0x80 PUSH1 0x40 MSTORE CALLVALUE DUP1 ISZERO PUSH2 0x10 JUMPI PUSH1 0x0 DUP1 REVERT JUMPDEST POP PUSH2 0x29D0 DUP1 PUSH2 0x20 PUSH1 0x0 CODECOPY PUSH1 0x0 RETURN INVALID PUSH1 0x80 PUSH1 0x40 MSTORE PUSH1 0x4 CALLDATASIZE LT PUSH2 0xFE JUMPI PUSH1 0x0 CALLDATALOAD PUSH1 0xE0 SHR DUP1 PUSH4 0x85B4BB53 GT PUSH2 0x95 JUMPI DUP1 PUSH4 0x9CE110D7 GT PUSH2 0x64 JUMPI DUP1 PUSH4 0x9CE110D7 EQ PUSH2 0x2E0 JUMPI DUP1 PUSH4 0xBBC90A92 EQ PUSH2 0x30B JUMPI DUP1 PUSH4 0xBE9A6555 EQ PUSH2 0x336 JUMPI DUP1 PUSH4 0xEFBE1C1C EQ PUSH2 0x340 JUMPI DUP1 PUSH4 0xF887EA40 EQ PUSH2 0x357 JUMPI PUSH2 0xFE JUMP JUMPDEST DUP1 PUSH4 0x85B4BB53 EQ PUSH2 0x224 JUMPI DUP1 PUSH4 0x8D928AF8 EQ PUSH2 0x24F JUMPI DUP1 PUSH4 0x8DDBEB07 EQ PUSH2 0x27A JUMPI DUP1 PUSH4 0x91B7F5ED EQ PUSH2 0x2B7 JUMPI PUSH2 0xFE JUMP JUMPDEST DUP1 PUSH4 0x65CACAA4 GT PUSH2 0xD1 JUMPI DUP1 PUSH4 0x65CACAA4 EQ PUSH2 0x18C JUMPI DUP1 PUSH4 0x6DA84E6C EQ PUSH2 0x1B7 JUMPI DUP1 PUSH4 0x8129FC1C EQ PUSH2 0x1E2 JUMPI DUP1 PUSH4 0x853A1B90 EQ PUSH2 0x1F9 JUMPI PUSH2 0xFE JUMP JUMPDEST DUP1 PUSH4 0x1998AEEF EQ PUSH2 0x103 JUMPI DUP1 PUSH4 0x2A24F46C EQ PUSH2 0x10D JUMPI DUP1 PUSH4 0x2BF33BD9 EQ PUSH2 0x138 JUMPI DUP1 PUSH4 0x325C25A2 EQ PUSH2 0x161 JUMPI JUMPDEST PUSH1 0x0 DUP1 REVERT JUMPDEST PUSH2 0x10B PUSH2 0x382 JUMP JUMPDEST STOP JUMPDEST CALLVALUE DUP1 ISZERO PUSH2 0x119 JUMPI PUSH1 0x0 DUP1 REVERT JUMPDEST POP PUSH2 0x122 PUSH2 0x896 JUMP JUMPDEST PUSH1 0x40 MLOAD PUSH2 0x12F SWAP2 SWAP1 PUSH2 0x2534 JUMP JUMPDEST PUSH1 0x40 MLOAD DUP1 SWAP2 SUB SWAP1 RETURN JUMPDEST CALLVALUE DUP1 ISZERO PUSH2 0x144 JUMPI PUSH1 0x0 DUP1 REVERT JUMPDEST POP PUSH2 0x15F PUSH1 0x4 DUP1 CALLDATASIZE SUB DUP2 ADD SWAP1 PUSH2 0x15A SWAP2 SWAP1 PUSH2 0x1D1A JUMP JUMPDEST PUSH2 0x89C JUMP JUMPDEST STOP JUMPDEST CALLVALUE DUP1 ISZERO PUSH2 0x16D JUMPI PUSH1 0x0 DUP1 REVERT JUMPDEST POP PUSH2 0x176 PUSH2 0xC7A JUMP JUMPDEST PUSH1 0x40 MLOAD PUSH2 0x183 SWAP2 SWAP1 PUSH2 0x2534 JUMP JUMPDEST PUSH1 0x40 MLOAD DUP1 SWAP2 SUB SWAP1 RETURN JUMPDEST CALLVALUE DUP1 ISZERO PUSH2 0x198 JUMPI PUSH1 0x0 DUP1 REVERT JUMPDEST POP PUSH2 0x1A1 PUSH2 0xC80 JUMP JUMPDEST PUSH1 0x40 MLOAD PUSH2 0x1AE SWAP2 SWAP1 PUSH2 0x226A JUMP JUMPDEST PUSH1 0x40 MLOAD DUP1 SWAP2 SUB SWAP1 RETURN JUMPDEST CALLVALUE DUP1 ISZERO PUSH2 0x1C3 JUMPI PUSH1 0x0 DUP1 REVERT JUMPDEST POP PUSH2 0x1CC PUSH2 0xD26 JUMP JUMPDEST PUSH1 0x40 MLOAD PUSH2 0x1D9 SWAP2 SWAP1 PUSH2 0x2534 JUMP JUMPDEST PUSH1 0x40 MLOAD DUP1 SWAP2 SUB SWAP1 RETURN JUMPDEST CALLVALUE DUP1 ISZERO PUSH2 0x1EE JUMPI PUSH1 0x0 DUP1 REVERT JUMPDEST POP PUSH2 0x1F7 PUSH2 0xD2C JUMP JUMPDEST STOP JUMPDEST CALLVALUE DUP1 ISZERO PUSH2 0x205 JUMPI PUSH1 0x0 DUP1 REVERT JUMPDEST POP PUSH2 0x20E PUSH2 0xDF0 JUMP JUMPDEST PUSH1 0x40 MLOAD PUSH2 0x21B SWAP2 SWAP1 PUSH2 0x2285 JUMP JUMPDEST PUSH1 0x40 MLOAD DUP1 SWAP2 SUB SWAP1 RETURN JUMPDEST CALLVALUE DUP1 ISZERO PUSH2 0x230 JUMPI PUSH1 0x0 DUP1 REVERT JUMPDEST POP PUSH2 0x239 PUSH2 0xE16 JUMP JUMPDEST PUSH1 0x40 MLOAD PUSH2 0x246 SWAP2 SWAP1 PUSH2 0x235E JUMP JUMPDEST PUSH1 0x40 MLOAD DUP1 SWAP2 SUB SWAP1 RETURN JUMPDEST CALLVALUE DUP1 ISZERO PUSH2 0x25B JUMPI PUSH1 0x0 DUP1 REVERT JUMPDEST POP PUSH2 0x264 PUSH2 0xEBC JUMP JUMPDEST PUSH1 0x40 MLOAD PUSH2 0x271 SWAP2 SWAP1 PUSH2 0x2379 JUMP JUMPDEST PUSH1 0x40 MLOAD DUP1 SWAP2 SUB SWAP1 RETURN JUMPDEST CALLVALUE DUP1 ISZERO PUSH2 0x286 JUMPI PUSH1 0x0 DUP1 REVERT JUMPDEST POP PUSH2 0x2A1 PUSH1 0x4 DUP1 CALLDATASIZE SUB DUP2 ADD SWAP1 PUSH2 0x29C SWAP2 SWAP1 PUSH2 0x1CAE JUMP JUMPDEST PUSH2 0xECB JUMP JUMPDEST PUSH1 0x40 MLOAD PUSH2 0x2AE SWAP2 SWAP1 PUSH2 0x2343 JUMP JUMPDEST PUSH1 0x40 MLOAD DUP1 SWAP2 SUB SWAP1 RETURN JUMPDEST CALLVALUE DUP1 ISZERO PUSH2 0x2C3 JUMPI PUSH1 0x0 DUP1 REVERT JUMPDEST POP PUSH2 0x2DE PUSH1 0x4 DUP1 CALLDATASIZE SUB DUP2 ADD SWAP1 PUSH2 0x2D9 SWAP2 SWAP1 PUSH2 0x1D1A JUMP JUMPDEST PUSH2 0xFE5 JUMP JUMPDEST STOP JUMPDEST CALLVALUE DUP1 ISZERO PUSH2 0x2EC JUMPI PUSH1 0x0 DUP1 REVERT JUMPDEST POP PUSH2 0x2F5 PUSH2 0x110E JUMP JUMPDEST PUSH1 0x40 MLOAD PUSH2 0x302 SWAP2 SWAP1 PUSH2 0x2343 JUMP JUMPDEST PUSH1 0x40 MLOAD DUP1 SWAP2 SUB SWAP1 RETURN JUMPDEST CALLVALUE DUP1 ISZERO PUSH2 0x317 JUMPI PUSH1 0x0 DUP1 REVERT JUMPDEST POP PUSH2 0x320 PUSH2 0x1121 JUMP JUMPDEST PUSH1 0x40 MLOAD PUSH2 0x32D SWAP2 SWAP1 PUSH2 0x2534 JUMP JUMPDEST PUSH1 0x40 MLOAD DUP1 SWAP2 SUB SWAP1 RETURN JUMPDEST PUSH2 0x33E PUSH2 0x1127 JUMP JUMPDEST STOP JUMPDEST CALLVALUE DUP1 ISZERO PUSH2 0x34C JUMPI PUSH1 0x0 DUP1 REVERT JUMPDEST POP PUSH2 0x355 PUSH2 0x14E8 JUMP JUMPDEST STOP JUMPDEST CALLVALUE DUP1 ISZERO PUSH2 0x363 JUMPI PUSH1 0x0 DUP1 REVERT JUMPDEST POP PUSH2 0x36C PUSH2 0x19BE JUMP JUMPDEST PUSH1 0x40 MLOAD PUSH2 0x379 SWAP2 SWAP1 PUSH2 0x226A JUMP JUMPDEST PUSH1 0x40 MLOAD DUP1 SWAP2 SUB SWAP1 RETURN JUMPDEST PUSH1 0x1 PUSH1 0x2 DUP2 GT ISZERO PUSH2 0x3BC JUMPI PUSH32 0x4E487B7100000000000000000000000000000000000000000000000000000000 PUSH1 0x0 MSTORE PUSH1 0x21 PUSH1 0x4 MSTORE PUSH1 0x24 PUSH1 0x0 REVERT JUMPDEST PUSH2 0x3C4 PUSH2 0xEBC JUMP JUMPDEST PUSH20 0xFFFFFFFFFFFFFFFFFFFFFFFFFFFFFFFFFFFFFFFF AND PUSH4 0xD58BFA9D PUSH1 0x40 MLOAD DUP2 PUSH4 0xFFFFFFFF AND PUSH1 0xE0 SHL DUP2 MSTORE PUSH1 0x4 ADD PUSH1 0x20 PUSH1 0x40 MLOAD DUP1 DUP4 SUB DUP2 DUP7 DUP1 EXTCODESIZE ISZERO DUP1 ISZERO PUSH2 0x409 JUMPI PUSH1 0x0 DUP1 REVERT JUMPDEST POP GAS STATICCALL ISZERO DUP1 ISZERO PUSH2 0x41D JUMPI RETURNDATASIZE PUSH1 0x0 DUP1 RETURNDATACOPY RETURNDATASIZE PUSH1 0x0 REVERT JUMPDEST POP POP POP POP PUSH1 0x40 MLOAD RETURNDATASIZE PUSH1 0x1F NOT PUSH1 0x1F DUP3 ADD AND DUP3 ADD DUP1 PUSH1 0x40 MSTORE POP DUP2 ADD SWAP1 PUSH2 0x441 SWAP2 SWAP1 PUSH2 0x1C44 JUMP JUMPDEST PUSH1 0x2 DUP2 GT ISZERO PUSH2 0x479 JUMPI PUSH32 0x4E487B7100000000000000000000000000000000000000000000000000000000 PUSH1 0x0 MSTORE PUSH1 0x21 PUSH1 0x4 MSTORE PUSH1 0x24 PUSH1 0x0 REVERT JUMPDEST EQ DUP1 ISZERO PUSH2 0x54A JUMPI POP PUSH2 0x549 PUSH2 0x48C PUSH2 0xEBC JUMP JUMPDEST PUSH20 0xFFFFFFFFFFFFFFFFFFFFFFFFFFFFFFFFFFFFFFFF AND PUSH4 0x5CCB53DF PUSH1 0x40 MLOAD DUP2 PUSH4 0xFFFFFFFF AND PUSH1 0xE0 SHL DUP2 MSTORE PUSH1 0x4 ADD PUSH1 0x0 PUSH1 0x40 MLOAD DUP1 DUP4 SUB DUP2 DUP7 DUP1 EXTCODESIZE ISZERO DUP1 ISZERO PUSH2 0x4D1 JUMPI PUSH1 0x0 DUP1 REVERT JUMPDEST POP GAS STATICCALL ISZERO DUP1 ISZERO PUSH2 0x4E5 JUMPI RETURNDATASIZE PUSH1 0x0 DUP1 RETURNDATACOPY RETURNDATASIZE PUSH1 0x0 REVERT JUMPDEST POP POP POP POP PUSH1 0x40 MLOAD RETURNDATASIZE PUSH1 0x0 DUP3 RETURNDATACOPY RETURNDATASIZE PUSH1 0x1F NOT PUSH1 0x1F DUP3 ADD AND DUP3 ADD DUP1 PUSH1 0x40 MSTORE POP DUP2 ADD SWAP1 PUSH2 0x50E SWAP2 SWAP1 PUSH2 0x1C6D JUMP JUMPDEST PUSH1 0x40 MLOAD DUP1 PUSH1 0x40 ADD PUSH1 0x40 MSTORE DUP1 PUSH1 0x7 DUP2 MSTORE PUSH1 0x20 ADD PUSH32 0x41756374696F6E00000000000000000000000000000000000000000000000000 DUP2 MSTORE POP PUSH2 0xECB JUMP JUMPDEST JUMPDEST PUSH2 0x589 JUMPI PUSH1 0x40 MLOAD PUSH32 0x8C379A000000000000000000000000000000000000000000000000000000000 DUP2 MSTORE PUSH1 0x4 ADD PUSH2 0x580 SWAP1 PUSH2 0x23D4 JUMP JUMPDEST PUSH1 0x40 MLOAD DUP1 SWAP2 SUB SWAP1 REVERT JUMPDEST PUSH1 0x0 PUSH2 0x3E8 PUSH2 0x596 PUSH2 0xE16 JUMP JUMPDEST PUSH20 0xFFFFFFFFFFFFFFFFFFFFFFFFFFFFFFFFFFFFFFFF AND PUSH4 0x7C513C0F PUSH1 0x40 MLOAD DUP2 PUSH4 0xFFFFFFFF AND PUSH1 0xE0 SHL DUP2 MSTORE PUSH1 0x4 ADD PUSH1 0x20 PUSH1 0x40 MLOAD DUP1 DUP4 SUB DUP2 PUSH1 0x0 DUP8 DUP1 EXTCODESIZE ISZERO DUP1 ISZERO PUSH2 0x5DD JUMPI PUSH1 0x0 DUP1 REVERT JUMPDEST POP GAS CALL ISZERO DUP1 ISZERO PUSH2 0x5F1 JUMPI RETURNDATASIZE PUSH1 0x0 DUP1 RETURNDATACOPY RETURNDATASIZE PUSH1 0x0 REVERT JUMPDEST POP POP POP POP PUSH1 0x40 MLOAD RETURNDATASIZE PUSH1 0x1F NOT PUSH1 0x1F DUP3 ADD AND DUP3 ADD DUP1 PUSH1 0x40 MSTORE POP DUP2 ADD SWAP1 PUSH2 0x615 SWAP2 SWAP1 PUSH2 0x1D43 JUMP JUMPDEST PUSH2 0x61F SWAP2 SWAP1 PUSH2 0x2626 JUMP JUMPDEST SWAP1 POP DUP1 PUSH1 0x4 SLOAD PUSH2 0x62F SWAP2 SWAP1 PUSH2 0x267C JUMP JUMPDEST PUSH2 0x3E8 CALLVALUE PUSH2 0x63D SWAP2 SWAP1 PUSH2 0x267C JUMP JUMPDEST LT ISZERO PUSH2 0x67E JUMPI PUSH1 0x40 MLOAD PUSH32 0x8C379A000000000000000000000000000000000000000000000000000000000 DUP2 MSTORE PUSH1 0x4 ADD PUSH2 0x675 SWAP1 PUSH2 0x2434 JUMP JUMPDEST PUSH1 0x40 MLOAD DUP1 SWAP2 SUB SWAP1 REVERT JUMPDEST PUSH1 0x3 SLOAD TIMESTAMP LT PUSH2 0x6C2 JUMPI PUSH1 0x40 MLOAD PUSH32 0x8C379A000000000000000000000000000000000000000000000000000000000 DUP2 MSTORE PUSH1 0x4 ADD PUSH2 0x6B9 SWAP1 PUSH2 0x24F4 JUMP JUMPDEST PUSH1 0x40 MLOAD DUP1 SWAP2 SUB SWAP1 REVERT JUMPDEST PUSH2 0x384 TIMESTAMP PUSH1 0x3 SLOAD PUSH2 0x6D3 SWAP2 SWAP1 PUSH2 0x26D6 JUMP JUMPDEST GT PUSH2 0x6F3 JUMPI PUSH1 0x0 PUSH1 0x3 PUSH1 0x0 DUP3 DUP3 SLOAD PUSH2 0x6EB SWAP2 SWAP1 PUSH2 0x2626 JUMP JUMPDEST SWAP3 POP POP DUP2 SWAP1 SSTORE POP JUMPDEST PUSH2 0x6FB PUSH2 0xC80 JUMP JUMPDEST PUSH20 0xFFFFFFFFFFFFFFFFFFFFFFFFFFFFFFFFFFFFFFFF AND PUSH2 0x8FC CALLVALUE SWAP1 DUP2 ISZERO MUL SWAP1 PUSH1 0x40 MLOAD PUSH1 0x0 PUSH1 0x40 MLOAD DUP1 DUP4 SUB DUP2 DUP6 DUP9 DUP9 CALL SWAP4 POP POP POP POP ISZERO DUP1 ISZERO PUSH2 0x740 JUMPI RETURNDATASIZE PUSH1 0x0 DUP1 RETURNDATACOPY RETURNDATASIZE PUSH1 0x0 REVERT JUMPDEST POP PUSH2 0x749 PUSH2 0xEBC JUMP JUMPDEST PUSH20 0xFFFFFFFFFFFFFFFFFFFFFFFFFFFFFFFFFFFFFFFF AND PUSH4 0x64A197F3 PUSH1 0x5 PUSH1 0x0 SWAP1 SLOAD SWAP1 PUSH2 0x100 EXP SWAP1 DIV PUSH20 0xFFFFFFFFFFFFFFFFFFFFFFFFFFFFFFFFFFFFFFFF AND PUSH1 0x4 SLOAD PUSH1 0x40 MLOAD DUP4 PUSH4 0xFFFFFFFF AND PUSH1 0xE0 SHL DUP2 MSTORE PUSH1 0x4 ADD PUSH2 0x7A7 SWAP3 SWAP2 SWAP1 PUSH2 0x22A0 JUMP JUMPDEST PUSH1 0x0 PUSH1 0x40 MLOAD DUP1 DUP4 SUB DUP2 PUSH1 0x0 DUP8 DUP1 EXTCODESIZE ISZERO DUP1 ISZERO PUSH2 0x7C1 JUMPI PUSH1 0x0 DUP1 REVERT JUMPDEST POP GAS CALL ISZERO DUP1 ISZERO PUSH2 0x7D5 JUMPI RETURNDATASIZE PUSH1 0x0 DUP1 RETURNDATACOPY RETURNDATASIZE PUSH1 0x0 REVERT JUMPDEST POP POP POP POP CALLVALUE PUSH1 0x4 DUP2 SWAP1 SSTORE POP CALLER PUSH1 0x5 PUSH1 0x0 PUSH2 0x100 EXP DUP2 SLOAD DUP2 PUSH20 0xFFFFFFFFFFFFFFFFFFFFFFFFFFFFFFFFFFFFFFFF MUL NOT AND SWAP1 DUP4 PUSH20 0xFFFFFFFFFFFFFFFFFFFFFFFFFFFFFFFFFFFFFFFF AND MUL OR SWAP1 SSTORE POP PUSH1 0x5 PUSH1 0x0 SWAP1 SLOAD SWAP1 PUSH2 0x100 EXP SWAP1 DIV PUSH20 0xFFFFFFFFFFFFFFFFFFFFFFFFFFFFFFFFFFFFFFFF AND PUSH20 0xFFFFFFFFFFFFFFFFFFFFFFFFFFFFFFFFFFFFFFFF AND PUSH32 0xE684A55F31B79ECA403DF938249029212A5925EC6BE8012E099B45BC1019E5D2 PUSH1 0x4 SLOAD PUSH1 0x40 MLOAD PUSH2 0x88B SWAP2 SWAP1 PUSH2 0x2534 JUMP JUMPDEST PUSH1 0x40 MLOAD DUP1 SWAP2 SUB SWAP1 LOG2 POP JUMP JUMPDEST PUSH1 0x3 SLOAD DUP2 JUMP JUMPDEST PUSH1 0x0 PUSH1 0x2 DUP2 GT ISZERO PUSH2 0x8D6 JUMPI PUSH32 0x4E487B7100000000000000000000000000000000000000000000000000000000 PUSH1 0x0 MSTORE PUSH1 0x21 PUSH1 0x4 MSTORE PUSH1 0x24 PUSH1 0x0 REVERT JUMPDEST PUSH2 0x8DE PUSH2 0xEBC JUMP JUMPDEST PUSH20 0xFFFFFFFFFFFFFFFFFFFFFFFFFFFFFFFFFFFFFFFF AND PUSH4 0xD58BFA9D PUSH1 0x40 MLOAD DUP2 PUSH4 0xFFFFFFFF AND PUSH1 0xE0 SHL DUP2 MSTORE PUSH1 0x4 ADD PUSH1 0x20 PUSH1 0x40 MLOAD DUP1 DUP4 SUB DUP2 DUP7 DUP1 EXTCODESIZE ISZERO DUP1 ISZERO PUSH2 0x923 JUMPI PUSH1 0x0 DUP1 REVERT JUMPDEST POP GAS STATICCALL ISZERO DUP1 ISZERO PUSH2 0x937 JUMPI RETURNDATASIZE PUSH1 0x0 DUP1 RETURNDATACOPY RETURNDATASIZE PUSH1 0x0 REVERT JUMPDEST POP POP POP POP PUSH1 0x40 MLOAD RETURNDATASIZE PUSH1 0x1F NOT PUSH1 0x1F DUP3 ADD AND DUP3 ADD DUP1 PUSH1 0x40 MSTORE POP DUP2 ADD SWAP1 PUSH2 0x95B SWAP2 SWAP1 PUSH2 0x1C44 JUMP JUMPDEST PUSH1 0x2 DUP2 GT ISZERO PUSH2 0x993 JUMPI PUSH32 0x4E487B7100000000000000000000000000000000000000000000000000000000 PUSH1 0x0 MSTORE PUSH1 0x21 PUSH1 0x4 MSTORE PUSH1 0x24 PUSH1 0x0 REVERT JUMPDEST EQ PUSH2 0x9D3 JUMPI PUSH1 0x40 MLOAD PUSH32 0x8C379A000000000000000000000000000000000000000000000000000000000 DUP2 MSTORE PUSH1 0x4 ADD PUSH2 0x9CA SWAP1 PUSH2 0x2494 JUMP JUMPDEST PUSH1 0x40 MLOAD DUP1 SWAP2 SUB SWAP1 REVERT JUMPDEST PUSH1 0x0 DUP1 SLOAD SWAP1 PUSH2 0x100 EXP SWAP1 DIV PUSH20 0xFFFFFFFFFFFFFFFFFFFFFFFFFFFFFFFFFFFFFFFF AND PUSH20 0xFFFFFFFFFFFFFFFFFFFFFFFFFFFFFFFFFFFFFFFF AND PUSH4 0xE66F53B7 PUSH1 0x40 MLOAD DUP2 PUSH4 0xFFFFFFFF AND PUSH1 0xE0 SHL DUP2 MSTORE PUSH1 0x4 ADD PUSH1 0x20 PUSH1 0x40 MLOAD DUP1 DUP4 SUB DUP2 DUP7 DUP1 EXTCODESIZE ISZERO DUP1 ISZERO PUSH2 0xA39 JUMPI PUSH1 0x0 DUP1 REVERT JUMPDEST POP GAS STATICCALL ISZERO DUP1 ISZERO PUSH2 0xA4D JUMPI RETURNDATASIZE PUSH1 0x0 DUP1 RETURNDATACOPY RETURNDATASIZE PUSH1 0x0 REVERT JUMPDEST POP POP POP POP PUSH1 0x40 MLOAD RETURNDATASIZE PUSH1 0x1F NOT PUSH1 0x1F DUP3 ADD AND DUP3 ADD DUP1 PUSH1 0x40 MSTORE POP DUP2 ADD SWAP1 PUSH2 0xA71 SWAP2 SWAP1 PUSH2 0x1BB1 JUMP JUMPDEST PUSH20 0xFFFFFFFFFFFFFFFFFFFFFFFFFFFFFFFFFFFFFFFF AND CALLER PUSH20 0xFFFFFFFFFFFFFFFFFFFFFFFFFFFFFFFFFFFFFFFF AND EQ PUSH2 0xADE JUMPI PUSH1 0x40 MLOAD PUSH32 0x8C379A000000000000000000000000000000000000000000000000000000000 DUP2 MSTORE PUSH1 0x4 ADD PUSH2 0xAD5 SWAP1 PUSH2 0x24B4 JUMP JUMPDEST PUSH1 0x40 MLOAD DUP1 SWAP2 SUB SWAP1 REVERT JUMPDEST PUSH2 0xAE6 PUSH2 0xE16 JUMP JUMPDEST PUSH20 0xFFFFFFFFFFFFFFFFFFFFFFFFFFFFFFFFFFFFFFFF AND PUSH4 0xA0B335E3 PUSH1 0x40 MLOAD DUP2 PUSH4 0xFFFFFFFF AND PUSH1 0xE0 SHL DUP2 MSTORE PUSH1 0x4 ADD PUSH1 0x20 PUSH1 0x40 MLOAD DUP1 DUP4 SUB DUP2 PUSH1 0x0 DUP8 DUP1 EXTCODESIZE ISZERO DUP1 ISZERO PUSH2 0xB2D JUMPI PUSH1 0x0 DUP1 REVERT JUMPDEST POP GAS CALL ISZERO DUP1 ISZERO PUSH2 0xB41 JUMPI RETURNDATASIZE PUSH1 0x0 DUP1 RETURNDATACOPY RETURNDATASIZE PUSH1 0x0 REVERT JUMPDEST POP POP POP POP PUSH1 0x40 MLOAD RETURNDATASIZE PUSH1 0x1F NOT PUSH1 0x1F DUP3 ADD AND DUP3 ADD DUP1 PUSH1 0x40 MSTORE POP DUP2 ADD SWAP1 PUSH2 0xB65 SWAP2 SWAP1 PUSH2 0x1D43 JUMP JUMPDEST DUP2 LT ISZERO DUP1 ISZERO PUSH2 0xBFA JUMPI POP PUSH2 0xB77 PUSH2 0xE16 JUMP JUMPDEST PUSH20 0xFFFFFFFFFFFFFFFFFFFFFFFFFFFFFFFFFFFFFFFF AND PUSH4 0xE519EF9 PUSH1 0x40 MLOAD DUP2 PUSH4 0xFFFFFFFF AND PUSH1 0xE0 SHL DUP2 MSTORE PUSH1 0x4 ADD PUSH1 0x20 PUSH1 0x40 MLOAD DUP1 DUP4 SUB DUP2 PUSH1 0x0 DUP8 DUP1 EXTCODESIZE ISZERO DUP1 ISZERO PUSH2 0xBBE JUMPI PUSH1 0x0 DUP1 REVERT JUMPDEST POP GAS CALL ISZERO DUP1 ISZERO PUSH2 0xBD2 JUMPI RETURNDATASIZE PUSH1 0x0 DUP1 RETURNDATACOPY RETURNDATASIZE PUSH1 0x0 REVERT JUMPDEST POP POP POP POP PUSH1 0x40 MLOAD RETURNDATASIZE PUSH1 0x1F NOT PUSH1 0x1F DUP3 ADD AND DUP3 ADD DUP1 PUSH1 0x40 MSTORE POP DUP2 ADD SWAP1 PUSH2 0xBF6 SWAP2 SWAP1 PUSH2 0x1D43 JUMP JUMPDEST DUP2 GT ISZERO JUMPDEST PUSH2 0xC39 JUMPI PUSH1 0x40 MLOAD PUSH32 0x8C379A000000000000000000000000000000000000000000000000000000000 DUP2 MSTORE PUSH1 0x4 ADD PUSH2 0xC30 SWAP1 PUSH2 0x2474 JUMP JUMPDEST PUSH1 0x40 MLOAD DUP1 SWAP2 SUB SWAP1 REVERT JUMPDEST DUP1 PUSH1 0x2 DUP2 SWAP1 SSTORE POP PUSH32 0x4AB86AE701798277AA378943B9DFD155D3B19703CD57BE298908FADD32F7BF46 DUP2 PUSH1 0x40 MLOAD PUSH2 0xC6F SWAP2 SWAP1 PUSH2 0x2534 JUMP JUMPDEST PUSH1 0x40 MLOAD DUP1 SWAP2 SUB SWAP1 LOG1 POP JUMP JUMPDEST PUSH1 0x2 SLOAD DUP2 JUMP JUMPDEST PUSH1 0x0 DUP1 PUSH1 0x0 SWAP1 SLOAD SWAP1 PUSH2 0x100 EXP SWAP1 DIV PUSH20 0xFFFFFFFFFFFFFFFFFFFFFFFFFFFFFFFFFFFFFFFF AND PUSH20 0xFFFFFFFFFFFFFFFFFFFFFFFFFFFFFFFFFFFFFFFF AND PUSH4 0xFBFA77CF PUSH1 0x40 MLOAD DUP2 PUSH4 0xFFFFFFFF AND PUSH1 0xE0 SHL DUP2 MSTORE PUSH1 0x4 ADD PUSH1 0x20 PUSH1 0x40 MLOAD DUP1 DUP4 SUB DUP2 DUP7 DUP1 EXTCODESIZE ISZERO DUP1 ISZERO PUSH2 0xCE9 JUMPI PUSH1 0x0 DUP1 REVERT JUMPDEST POP GAS STATICCALL ISZERO DUP1 ISZERO PUSH2 0xCFD JUMPI RETURNDATASIZE PUSH1 0x0 DUP1 RETURNDATACOPY RETURNDATASIZE PUSH1 0x0 REVERT JUMPDEST POP POP POP POP PUSH1 0x40 MLOAD RETURNDATASIZE PUSH1 0x1F NOT PUSH1 0x1F DUP3 ADD AND DUP3 ADD DUP1 PUSH1 0x40 MSTORE POP DUP2 ADD SWAP1 PUSH2 0xD21 SWAP2 SWAP1 PUSH2 0x1BB1 JUMP JUMPDEST SWAP1 POP SWAP1 JUMP JUMPDEST PUSH1 0x4 SLOAD DUP2 JUMP JUMPDEST PUSH1 0x0 PUSH1 0x14 SWAP1 SLOAD SWAP1 PUSH2 0x100 EXP SWAP1 DIV PUSH1 0xFF AND ISZERO PUSH2 0xD7C JUMPI PUSH1 0x40 MLOAD PUSH32 0x8C379A000000000000000000000000000000000000000000000000000000000 DUP2 MSTORE PUSH1 0x4 ADD PUSH2 0xD73 SWAP1 PUSH2 0x24D4 JUMP JUMPDEST PUSH1 0x40 MLOAD DUP1 SWAP2 SUB SWAP1 REVERT JUMPDEST PUSH1 0x0 PUSH1 0x14 SWAP1 SLOAD SWAP1 PUSH2 0x100 EXP SWAP1 DIV PUSH1 0xFF AND ISZERO PUSH1 0x0 PUSH1 0x14 PUSH2 0x100 EXP DUP2 SLOAD DUP2 PUSH1 0xFF MUL NOT AND SWAP1 DUP4 ISZERO ISZERO MUL OR SWAP1 SSTORE POP CALLER PUSH1 0x0 DUP1 PUSH2 0x100 EXP DUP2 SLOAD DUP2 PUSH20 0xFFFFFFFFFFFFFFFFFFFFFFFFFFFFFFFFFFFFFFFF MUL NOT AND SWAP1 DUP4 PUSH20 0xFFFFFFFFFFFFFFFFFFFFFFFFFFFFFFFFFFFFFFFF AND MUL OR SWAP1 SSTORE POP PUSH1 0x78 PUSH1 0x2 DUP2 SWAP1 SSTORE POP JUMP JUMPDEST PUSH1 0x5 PUSH1 0x0 SWAP1 SLOAD SWAP1 PUSH2 0x100 EXP SWAP1 DIV PUSH20 0xFFFFFFFFFFFFFFFFFFFFFFFFFFFFFFFFFFFFFFFF AND DUP2 JUMP JUMPDEST PUSH1 0x0 DUP1 PUSH1 0x0 SWAP1 SLOAD SWAP1 PUSH2 0x100 EXP SWAP1 DIV PUSH20 0xFFFFFFFFFFFFFFFFFFFFFFFFFFFFFFFFFFFFFFFF AND PUSH20 0xFFFFFFFFFFFFFFFFFFFFFFFFFFFFFFFFFFFFFFFF AND PUSH4 0xE06174E4 PUSH1 0x40 MLOAD DUP2 PUSH4 0xFFFFFFFF AND PUSH1 0xE0 SHL DUP2 MSTORE PUSH1 0x4 ADD PUSH1 0x20 PUSH1 0x40 MLOAD DUP1 DUP4 SUB DUP2 DUP7 DUP1 EXTCODESIZE ISZERO DUP1 ISZERO PUSH2 0xE7F JUMPI PUSH1 0x0 DUP1 REVERT JUMPDEST POP GAS STATICCALL ISZERO DUP1 ISZERO PUSH2 0xE93 JUMPI RETURNDATASIZE PUSH1 0x0 DUP1 RETURNDATACOPY RETURNDATASIZE PUSH1 0x0 REVERT JUMPDEST POP POP POP POP PUSH1 0x40 MLOAD RETURNDATASIZE PUSH1 0x1F NOT PUSH1 0x1F DUP3 ADD AND DUP3 ADD DUP1 PUSH1 0x40 MSTORE POP DUP2 ADD SWAP1 PUSH2 0xEB7 SWAP2 SWAP1 PUSH2 0x1BB1 JUMP JUMPDEST SWAP1 POP SWAP1 JUMP JUMPDEST PUSH1 0x0 PUSH2 0xEC6 PUSH2 0xC80 JUMP JUMPDEST SWAP1 POP SWAP1 JUMP JUMPDEST PUSH1 0x0 DUP2 MLOAD DUP4 MLOAD EQ PUSH2 0xEDF JUMPI PUSH1 0x0 SWAP1 POP PUSH2 0xFDF JUMP JUMPDEST PUSH1 0x0 JUMPDEST DUP4 MLOAD DUP2 LT ISZERO PUSH2 0xFD9 JUMPI DUP3 DUP2 DUP2 MLOAD DUP2 LT PUSH2 0xF24 JUMPI PUSH32 0x4E487B7100000000000000000000000000000000000000000000000000000000 PUSH1 0x0 MSTORE PUSH1 0x32 PUSH1 0x4 MSTORE PUSH1 0x24 PUSH1 0x0 REVERT JUMPDEST PUSH1 0x20 ADD ADD MLOAD PUSH1 0xF8 SHR PUSH1 0xF8 SHL PUSH31 0xFFFFFFFFFFFFFFFFFFFFFFFFFFFFFFFFFFFFFFFFFFFFFFFFFFFFFFFFFFFFFF NOT AND DUP5 DUP3 DUP2 MLOAD DUP2 LT PUSH2 0xF8A JUMPI PUSH32 0x4E487B7100000000000000000000000000000000000000000000000000000000 PUSH1 0x0 MSTORE PUSH1 0x32 PUSH1 0x4 MSTORE PUSH1 0x24 PUSH1 0x0 REVERT JUMPDEST PUSH1 0x20 ADD ADD MLOAD PUSH1 0xF8 SHR PUSH1 0xF8 SHL PUSH31 0xFFFFFFFFFFFFFFFFFFFFFFFFFFFFFFFFFFFFFFFFFFFFFFFFFFFFFFFFFFFFFF NOT AND EQ PUSH2 0xFC6 JUMPI PUSH1 0x0 SWAP2 POP POP PUSH2 0xFDF JUMP JUMPDEST DUP1 DUP1 PUSH2 0xFD1 SWAP1 PUSH2 0x285B JUMP JUMPDEST SWAP2 POP POP PUSH2 0xEE2 JUMP JUMPDEST POP PUSH1 0x1 SWAP1 POP JUMPDEST SWAP3 SWAP2 POP POP JUMP JUMPDEST PUSH1 0x0 DUP1 SLOAD SWAP1 PUSH2 0x100 EXP SWAP1 DIV PUSH20 0xFFFFFFFFFFFFFFFFFFFFFFFFFFFFFFFFFFFFFFFF AND PUSH20 0xFFFFFFFFFFFFFFFFFFFFFFFFFFFFFFFFFFFFFFFF AND PUSH4 0x372C12B1 CALLER PUSH1 0x40 MLOAD DUP3 PUSH4 0xFFFFFFFF AND PUSH1 0xE0 SHL DUP2 MSTORE PUSH1 0x4 ADD PUSH2 0x103E SWAP2 SWAP1 PUSH2 0x226A JUMP JUMPDEST PUSH1 0x20 PUSH1 0x40 MLOAD DUP1 DUP4 SUB DUP2 DUP7 DUP1 EXTCODESIZE ISZERO DUP1 ISZERO PUSH2 0x1056 JUMPI PUSH1 0x0 DUP1 REVERT JUMPDEST POP GAS STATICCALL ISZERO DUP1 ISZERO PUSH2 0x106A JUMPI RETURNDATASIZE PUSH1 0x0 DUP1 RETURNDATACOPY RETURNDATASIZE PUSH1 0x0 REVERT JUMPDEST POP POP POP POP PUSH1 0x40 MLOAD RETURNDATASIZE PUSH1 0x1F NOT PUSH1 0x1F DUP3 ADD AND DUP3 ADD DUP1 PUSH1 0x40 MSTORE POP DUP2 ADD SWAP1 PUSH2 0x108E SWAP2 SWAP1 PUSH2 0x1C1B JUMP JUMPDEST PUSH2 0x10CD JUMPI PUSH1 0x40 MLOAD PUSH32 0x8C379A000000000000000000000000000000000000000000000000000000000 DUP2 MSTORE PUSH1 0x4 ADD PUSH2 0x10C4 SWAP1 PUSH2 0x2394 JUMP JUMPDEST PUSH1 0x40 MLOAD DUP1 SWAP2 SUB SWAP1 REVERT JUMPDEST DUP1 PUSH1 0x1 DUP2 SWAP1 SSTORE POP PUSH32 0xD625DC2138F94556F2CF89E7E1C67CC54705C9ABE155AD8FB518F4121E942DE6 DUP2 PUSH1 0x40 MLOAD PUSH2 0x1103 SWAP2 SWAP1 PUSH2 0x2534 JUMP JUMPDEST PUSH1 0x40 MLOAD DUP1 SWAP2 SUB SWAP1 LOG1 POP JUMP JUMPDEST PUSH1 0x0 PUSH1 0x14 SWAP1 SLOAD SWAP1 PUSH2 0x100 EXP SWAP1 DIV PUSH1 0xFF AND DUP2 JUMP JUMPDEST PUSH1 0x1 SLOAD DUP2 JUMP JUMPDEST PUSH1 0x0 PUSH1 0x2 DUP2 GT ISZERO PUSH2 0x1161 JUMPI PUSH32 0x4E487B7100000000000000000000000000000000000000000000000000000000 PUSH1 0x0 MSTORE PUSH1 0x21 PUSH1 0x4 MSTORE PUSH1 0x24 PUSH1 0x0 REVERT JUMPDEST PUSH2 0x1169 PUSH2 0xEBC JUMP JUMPDEST PUSH20 0xFFFFFFFFFFFFFFFFFFFFFFFFFFFFFFFFFFFFFFFF AND PUSH4 0xD58BFA9D PUSH1 0x40 MLOAD DUP2 PUSH4 0xFFFFFFFF AND PUSH1 0xE0 SHL DUP2 MSTORE PUSH1 0x4 ADD PUSH1 0x20 PUSH1 0x40 MLOAD DUP1 DUP4 SUB DUP2 DUP7 DUP1 EXTCODESIZE ISZERO DUP1 ISZERO PUSH2 0x11AE JUMPI PUSH1 0x0 DUP1 REVERT JUMPDEST POP GAS STATICCALL ISZERO DUP1 ISZERO PUSH2 0x11C2 JUMPI RETURNDATASIZE PUSH1 0x0 DUP1 RETURNDATACOPY RETURNDATASIZE PUSH1 0x0 REVERT JUMPDEST POP POP POP POP PUSH1 0x40 MLOAD RETURNDATASIZE PUSH1 0x1F NOT PUSH1 0x1F DUP3 ADD AND DUP3 ADD DUP1 PUSH1 0x40 MSTORE POP DUP2 ADD SWAP1 PUSH2 0x11E6 SWAP2 SWAP1 PUSH2 0x1C44 JUMP JUMPDEST PUSH1 0x2 DUP2 GT ISZERO PUSH2 0x121E JUMPI PUSH32 0x4E487B7100000000000000000000000000000000000000000000000000000000 PUSH1 0x0 MSTORE PUSH1 0x21 PUSH1 0x4 MSTORE PUSH1 0x24 PUSH1 0x0 REVERT JUMPDEST EQ PUSH2 0x125E JUMPI PUSH1 0x40 MLOAD PUSH32 0x8C379A000000000000000000000000000000000000000000000000000000000 DUP2 MSTORE PUSH1 0x4 ADD PUSH2 0x1255 SWAP1 PUSH2 0x23F4 JUMP JUMPDEST PUSH1 0x40 MLOAD DUP1 SWAP2 SUB SWAP1 REVERT JUMPDEST PUSH1 0x0 PUSH1 0x1 SLOAD EQ ISZERO PUSH2 0x12A4 JUMPI PUSH1 0x40 MLOAD PUSH32 0x8C379A000000000000000000000000000000000000000000000000000000000 DUP2 MSTORE PUSH1 0x4 ADD PUSH2 0x129B SWAP1 PUSH2 0x23B4 JUMP JUMPDEST PUSH1 0x40 MLOAD DUP1 SWAP2 SUB SWAP1 REVERT JUMPDEST PUSH1 0x1 SLOAD CALLVALUE LT ISZERO PUSH2 0x12E9 JUMPI PUSH1 0x40 MLOAD PUSH32 0x8C379A000000000000000000000000000000000000000000000000000000000 DUP2 MSTORE PUSH1 0x4 ADD PUSH2 0x12E0 SWAP1 PUSH2 0x2414 JUMP JUMPDEST PUSH1 0x40 MLOAD DUP1 SWAP2 SUB SWAP1 REVERT JUMPDEST PUSH1 0x2 SLOAD TIMESTAMP PUSH2 0x12F7 SWAP2 SWAP1 PUSH2 0x2626 JUMP JUMPDEST PUSH1 0x3 DUP2 SWAP1 SSTORE POP PUSH2 0x1305 PUSH2 0xEBC JUMP JUMPDEST PUSH20 0xFFFFFFFFFFFFFFFFFFFFFFFFFFFFFFFFFFFFFFFF AND PUSH4 0xE77AE39B PUSH1 0x0 DUP1 PUSH1 0x1 PUSH1 0x40 MLOAD DUP5 PUSH4 0xFFFFFFFF AND PUSH1 0xE0 SHL DUP2 MSTORE PUSH1 0x4 ADD PUSH2 0x1343 SWAP4 SWAP3 SWAP2 SWAP1 PUSH2 0x22C9 JUMP JUMPDEST PUSH1 0x0 PUSH1 0x40 MLOAD DUP1 DUP4 SUB DUP2 PUSH1 0x0 DUP8 DUP1 EXTCODESIZE ISZERO DUP1 ISZERO PUSH2 0x135D JUMPI PUSH1 0x0 DUP1 REVERT JUMPDEST POP GAS CALL ISZERO DUP1 ISZERO PUSH2 0x1371 JUMPI RETURNDATASIZE PUSH1 0x0 DUP1 RETURNDATACOPY RETURNDATASIZE PUSH1 0x0 REVERT JUMPDEST POP POP POP POP CALLVALUE PUSH1 0x4 DUP2 SWAP1 SSTORE POP PUSH2 0x1384 PUSH2 0xC80 JUMP JUMPDEST PUSH20 0xFFFFFFFFFFFFFFFFFFFFFFFFFFFFFFFFFFFFFFFF AND PUSH2 0x8FC PUSH1 0x4 SLOAD SWAP1 DUP2 ISZERO MUL SWAP1 PUSH1 0x40 MLOAD PUSH1 0x0 PUSH1 0x40 MLOAD DUP1 DUP4 SUB DUP2 DUP6 DUP9 DUP9 CALL SWAP4 POP POP POP POP ISZERO DUP1 ISZERO PUSH2 0x13CB JUMPI RETURNDATASIZE PUSH1 0x0 DUP1 RETURNDATACOPY RETURNDATASIZE PUSH1 0x0 REVERT JUMPDEST POP CALLER PUSH1 0x5 PUSH1 0x0 PUSH2 0x100 EXP DUP2 SLOAD DUP2 PUSH20 0xFFFFFFFFFFFFFFFFFFFFFFFFFFFFFFFFFFFFFFFF MUL NOT AND SWAP1 DUP4 PUSH20 0xFFFFFFFFFFFFFFFFFFFFFFFFFFFFFFFFFFFFFFFF AND MUL OR SWAP1 SSTORE POP PUSH2 0x1415 PUSH2 0xEBC JUMP JUMPDEST PUSH20 0xFFFFFFFFFFFFFFFFFFFFFFFFFFFFFFFFFFFFFFFF AND PUSH4 0x1370C6A9 PUSH1 0x40 MLOAD DUP2 PUSH4 0xFFFFFFFF AND PUSH1 0xE0 SHL DUP2 MSTORE PUSH1 0x4 ADD PUSH1 0x0 PUSH1 0x40 MLOAD DUP1 DUP4 SUB DUP2 PUSH1 0x0 DUP8 DUP1 EXTCODESIZE ISZERO DUP1 ISZERO PUSH2 0x145C JUMPI PUSH1 0x0 DUP1 REVERT JUMPDEST POP GAS CALL ISZERO DUP1 ISZERO PUSH2 0x1470 JUMPI RETURNDATASIZE PUSH1 0x0 DUP1 RETURNDATACOPY RETURNDATASIZE PUSH1 0x0 REVERT JUMPDEST POP POP POP POP PUSH1 0x5 PUSH1 0x0 SWAP1 SLOAD SWAP1 PUSH2 0x100 EXP SWAP1 DIV PUSH20 0xFFFFFFFFFFFFFFFFFFFFFFFFFFFFFFFFFFFFFFFF AND PUSH20 0xFFFFFFFFFFFFFFFFFFFFFFFFFFFFFFFFFFFFFFFF AND PUSH32 0xCFB9C5312B25EC7B809D61E638DF25F749EAE5D5C25399E1C93D1D319BFD5821 PUSH1 0x4 SLOAD PUSH1 0x40 MLOAD PUSH2 0x14DE SWAP2 SWAP1 PUSH2 0x2534 JUMP JUMPDEST PUSH1 0x40 MLOAD DUP1 SWAP2 SUB SWAP1 LOG2 JUMP JUMPDEST PUSH1 0x1 PUSH1 0x2 DUP2 GT ISZERO PUSH2 0x1522 JUMPI PUSH32 0x4E487B7100000000000000000000000000000000000000000000000000000000 PUSH1 0x0 MSTORE PUSH1 0x21 PUSH1 0x4 MSTORE PUSH1 0x24 PUSH1 0x0 REVERT JUMPDEST PUSH2 0x152A PUSH2 0xEBC JUMP JUMPDEST PUSH20 0xFFFFFFFFFFFFFFFFFFFFFFFFFFFFFFFFFFFFFFFF AND PUSH4 0xD58BFA9D PUSH1 0x40 MLOAD DUP2 PUSH4 0xFFFFFFFF AND PUSH1 0xE0 SHL DUP2 MSTORE PUSH1 0x4 ADD PUSH1 0x20 PUSH1 0x40 MLOAD DUP1 DUP4 SUB DUP2 DUP7 DUP1 EXTCODESIZE ISZERO DUP1 ISZERO PUSH2 0x156F JUMPI PUSH1 0x0 DUP1 REVERT JUMPDEST POP GAS STATICCALL ISZERO DUP1 ISZERO PUSH2 0x1583 JUMPI RETURNDATASIZE PUSH1 0x0 DUP1 RETURNDATACOPY RETURNDATASIZE PUSH1 0x0 REVERT JUMPDEST POP POP POP POP PUSH1 0x40 MLOAD RETURNDATASIZE PUSH1 0x1F NOT PUSH1 0x1F DUP3 ADD AND DUP3 ADD DUP1 PUSH1 0x40 MSTORE POP DUP2 ADD SWAP1 PUSH2 0x15A7 SWAP2 SWAP1 PUSH2 0x1C44 JUMP JUMPDEST PUSH1 0x2 DUP2 GT ISZERO PUSH2 0x15DF JUMPI PUSH32 0x4E487B7100000000000000000000000000000000000000000000000000000000 PUSH1 0x0 MSTORE PUSH1 0x21 PUSH1 0x4 MSTORE PUSH1 0x24 PUSH1 0x0 REVERT JUMPDEST EQ DUP1 ISZERO PUSH2 0x16B0 JUMPI POP PUSH2 0x16AF PUSH2 0x15F2 PUSH2 0xEBC JUMP JUMPDEST PUSH20 0xFFFFFFFFFFFFFFFFFFFFFFFFFFFFFFFFFFFFFFFF AND PUSH4 0x5CCB53DF PUSH1 0x40 MLOAD DUP2 PUSH4 0xFFFFFFFF AND PUSH1 0xE0 SHL DUP2 MSTORE PUSH1 0x4 ADD PUSH1 0x0 PUSH1 0x40 MLOAD DUP1 DUP4 SUB DUP2 DUP7 DUP1 EXTCODESIZE ISZERO DUP1 ISZERO PUSH2 0x1637 JUMPI PUSH1 0x0 DUP1 REVERT JUMPDEST POP GAS STATICCALL ISZERO DUP1 ISZERO PUSH2 0x164B JUMPI RETURNDATASIZE PUSH1 0x0 DUP1 RETURNDATACOPY RETURNDATASIZE PUSH1 0x0 REVERT JUMPDEST POP POP POP POP PUSH1 0x40 MLOAD RETURNDATASIZE PUSH1 0x0 DUP3 RETURNDATACOPY RETURNDATASIZE PUSH1 0x1F NOT PUSH1 0x1F DUP3 ADD AND DUP3 ADD DUP1 PUSH1 0x40 MSTORE POP DUP2 ADD SWAP1 PUSH2 0x1674 SWAP2 SWAP1 PUSH2 0x1C6D JUMP JUMPDEST PUSH1 0x40 MLOAD DUP1 PUSH1 0x40 ADD PUSH1 0x40 MSTORE DUP1 PUSH1 0x7 DUP2 MSTORE PUSH1 0x20 ADD PUSH32 0x41756374696F6E00000000000000000000000000000000000000000000000000 DUP2 MSTORE POP PUSH2 0xECB JUMP JUMPDEST JUMPDEST PUSH2 0x16EF JUMPI PUSH1 0x40 MLOAD PUSH32 0x8C379A000000000000000000000000000000000000000000000000000000000 DUP2 MSTORE PUSH1 0x4 ADD PUSH2 0x16E6 SWAP1 PUSH2 0x2454 JUMP JUMPDEST PUSH1 0x40 MLOAD DUP1 SWAP2 SUB SWAP1 REVERT JUMPDEST PUSH1 0x3 SLOAD TIMESTAMP LT ISZERO PUSH2 0x1734 JUMPI PUSH1 0x40 MLOAD PUSH32 0x8C379A000000000000000000000000000000000000000000000000000000000 DUP2 MSTORE PUSH1 0x4 ADD PUSH2 0x172B SWAP1 PUSH2 0x2514 JUMP JUMPDEST PUSH1 0x40 MLOAD DUP1 SWAP2 SUB SWAP1 REVERT JUMPDEST PUSH1 0x0 DUP1 SLOAD SWAP1 PUSH2 0x100 EXP SWAP1 DIV PUSH20 0xFFFFFFFFFFFFFFFFFFFFFFFFFFFFFFFFFFFFFFFF AND PUSH20 0xFFFFFFFFFFFFFFFFFFFFFFFFFFFFFFFFFFFFFFFF AND PUSH4 0xD294F093 PUSH1 0x40 MLOAD DUP2 PUSH4 0xFFFFFFFF AND PUSH1 0xE0 SHL DUP2 MSTORE PUSH1 0x4 ADD PUSH1 0x0 PUSH1 0x40 MLOAD DUP1 DUP4 SUB DUP2 PUSH1 0x0 DUP8 DUP1 EXTCODESIZE ISZERO DUP1 ISZERO PUSH2 0x179C JUMPI PUSH1 0x0 DUP1 REVERT JUMPDEST POP GAS CALL ISZERO DUP1 ISZERO PUSH2 0x17B0 JUMPI RETURNDATASIZE PUSH1 0x0 DUP1 RETURNDATACOPY RETURNDATASIZE PUSH1 0x0 REVERT JUMPDEST POP POP POP POP PUSH2 0x17BC PUSH2 0xEBC JUMP JUMPDEST PUSH20 0xFFFFFFFFFFFFFFFFFFFFFFFFFFFFFFFFFFFFFFFF AND PUSH3 0x94C5F3 PUSH2 0x17DE PUSH2 0xEBC JUMP JUMPDEST PUSH20 0xFFFFFFFFFFFFFFFFFFFFFFFFFFFFFFFFFFFFFFFF AND PUSH4 0x634F6319 PUSH1 0x40 MLOAD DUP2 PUSH4 0xFFFFFFFF AND PUSH1 0xE0 SHL DUP2 MSTORE PUSH1 0x4 ADD PUSH1 0x0 PUSH1 0x40 MLOAD DUP1 DUP4 SUB DUP2 DUP7 DUP1 EXTCODESIZE ISZERO DUP1 ISZERO PUSH2 0x1823 JUMPI PUSH1 0x0 DUP1 REVERT JUMPDEST POP GAS STATICCALL ISZERO DUP1 ISZERO PUSH2 0x1837 JUMPI RETURNDATASIZE PUSH1 0x0 DUP1 RETURNDATACOPY RETURNDATASIZE PUSH1 0x0 REVERT JUMPDEST POP POP POP POP PUSH1 0x40 MLOAD RETURNDATASIZE PUSH1 0x0 DUP3 RETURNDATACOPY RETURNDATASIZE PUSH1 0x1F NOT PUSH1 0x1F DUP3 ADD AND DUP3 ADD DUP1 PUSH1 0x40 MSTORE POP DUP2 ADD SWAP1 PUSH2 0x1860 SWAP2 SWAP1 PUSH2 0x1BDA JUMP JUMPDEST PUSH1 0x5 PUSH1 0x0 SWAP1 SLOAD SWAP1 PUSH2 0x100 EXP SWAP1 DIV PUSH20 0xFFFFFFFFFFFFFFFFFFFFFFFFFFFFFFFFFFFFFFFF AND PUSH1 0x40 MLOAD DUP4 PUSH4 0xFFFFFFFF AND PUSH1 0xE0 SHL DUP2 MSTORE PUSH1 0x4 ADD PUSH2 0x18A0 SWAP3 SWAP2 SWAP1 PUSH2 0x2313 JUMP JUMPDEST PUSH1 0x0 PUSH1 0x40 MLOAD DUP1 DUP4 SUB DUP2 PUSH1 0x0 DUP8 DUP1 EXTCODESIZE ISZERO DUP1 ISZERO PUSH2 0x18BA JUMPI PUSH1 0x0 DUP1 REVERT JUMPDEST POP GAS CALL ISZERO DUP1 ISZERO PUSH2 0x18CE JUMPI RETURNDATASIZE PUSH1 0x0 DUP1 RETURNDATACOPY RETURNDATASIZE PUSH1 0x0 REVERT JUMPDEST POP POP POP POP PUSH2 0x18DA PUSH2 0xEBC JUMP JUMPDEST PUSH20 0xFFFFFFFFFFFFFFFFFFFFFFFFFFFFFFFFFFFFFFFF AND PUSH4 0xE77AE39B PUSH1 0x0 DUP1 PUSH1 0x2 PUSH1 0x40 MLOAD DUP5 PUSH4 0xFFFFFFFF AND PUSH1 0xE0 SHL DUP2 MSTORE PUSH1 0x4 ADD PUSH2 0x1918 SWAP4 SWAP3 SWAP2 SWAP1 PUSH2 0x22C9 JUMP JUMPDEST PUSH1 0x0 PUSH1 0x40 MLOAD DUP1 DUP4 SUB DUP2 PUSH1 0x0 DUP8 DUP1 EXTCODESIZE ISZERO DUP1 ISZERO PUSH2 0x1932 JUMPI PUSH1 0x0 DUP1 REVERT JUMPDEST POP GAS CALL ISZERO DUP1 ISZERO PUSH2 0x1946 JUMPI RETURNDATASIZE PUSH1 0x0 DUP1 RETURNDATACOPY RETURNDATASIZE PUSH1 0x0 REVERT JUMPDEST POP POP POP POP PUSH1 0x5 PUSH1 0x0 SWAP1 SLOAD SWAP1 PUSH2 0x100 EXP SWAP1 DIV PUSH20 0xFFFFFFFFFFFFFFFFFFFFFFFFFFFFFFFFFFFFFFFF AND PUSH20 0xFFFFFFFFFFFFFFFFFFFFFFFFFFFFFFFFFFFFFFFF AND PUSH32 0x8B01F9DD0400D6A1E84369A5FB8F6033934856FFA8EBADD707DCA302AB551695 PUSH1 0x4 SLOAD PUSH1 0x40 MLOAD PUSH2 0x19B4 SWAP2 SWAP1 PUSH2 0x2534 JUMP JUMPDEST PUSH1 0x40 MLOAD DUP1 SWAP2 SUB SWAP1 LOG2 JUMP JUMPDEST PUSH1 0x0 DUP1 SLOAD SWAP1 PUSH2 0x100 EXP SWAP1 DIV PUSH20 0xFFFFFFFFFFFFFFFFFFFFFFFFFFFFFFFFFFFFFFFF AND DUP2 JUMP JUMPDEST PUSH1 0x0 PUSH2 0x19F5 PUSH2 0x19F0 DUP5 PUSH2 0x2580 JUMP JUMPDEST PUSH2 0x254F JUMP JUMPDEST SWAP1 POP DUP1 DUP4 DUP3 MSTORE PUSH1 0x20 DUP3 ADD SWAP1 POP DUP3 DUP6 PUSH1 0x20 DUP7 MUL DUP3 ADD GT ISZERO PUSH2 0x1A14 JUMPI PUSH1 0x0 DUP1 REVERT JUMPDEST PUSH1 0x0 JUMPDEST DUP6 DUP2 LT ISZERO PUSH2 0x1A44 JUMPI DUP2 PUSH2 0x1A2A DUP9 DUP3 PUSH2 0x1B9C JUMP JUMPDEST DUP5 MSTORE PUSH1 0x20 DUP5 ADD SWAP4 POP PUSH1 0x20 DUP4 ADD SWAP3 POP POP PUSH1 0x1 DUP2 ADD SWAP1 POP PUSH2 0x1A17 JUMP JUMPDEST POP POP POP SWAP4 SWAP3 POP POP POP JUMP JUMPDEST PUSH1 0x0 PUSH2 0x1A61 PUSH2 0x1A5C DUP5 PUSH2 0x25AC JUMP JUMPDEST PUSH2 0x254F JUMP JUMPDEST SWAP1 POP DUP3 DUP2 MSTORE PUSH1 0x20 DUP2 ADD DUP5 DUP5 DUP5 ADD GT ISZERO PUSH2 0x1A79 JUMPI PUSH1 0x0 DUP1 REVERT JUMPDEST PUSH2 0x1A84 DUP5 DUP3 DUP6 PUSH2 0x2819 JUMP JUMPDEST POP SWAP4 SWAP3 POP POP POP JUMP JUMPDEST PUSH1 0x0 PUSH2 0x1A9F PUSH2 0x1A9A DUP5 PUSH2 0x25AC JUMP JUMPDEST PUSH2 0x254F JUMP JUMPDEST SWAP1 POP DUP3 DUP2 MSTORE PUSH1 0x20 DUP2 ADD DUP5 DUP5 DUP5 ADD GT ISZERO PUSH2 0x1AB7 JUMPI PUSH1 0x0 DUP1 REVERT JUMPDEST PUSH2 0x1AC2 DUP5 DUP3 DUP6 PUSH2 0x2828 JUMP JUMPDEST POP SWAP4 SWAP3 POP POP POP JUMP JUMPDEST PUSH1 0x0 DUP2 MLOAD SWAP1 POP PUSH2 0x1AD9 DUP2 PUSH2 0x2945 JUMP JUMPDEST SWAP3 SWAP2 POP POP JUMP JUMPDEST PUSH1 0x0 DUP3 PUSH1 0x1F DUP4 ADD SLT PUSH2 0x1AF0 JUMPI PUSH1 0x0 DUP1 REVERT JUMPDEST DUP2 MLOAD PUSH2 0x1B00 DUP5 DUP3 PUSH1 0x20 DUP7 ADD PUSH2 0x19E2 JUMP JUMPDEST SWAP2 POP POP SWAP3 SWAP2 POP POP JUMP JUMPDEST PUSH1 0x0 DUP2 MLOAD SWAP1 POP PUSH2 0x1B18 DUP2 PUSH2 0x295C JUMP JUMPDEST SWAP3 SWAP2 POP POP JUMP JUMPDEST PUSH1 0x0 DUP2 MLOAD SWAP1 POP PUSH2 0x1B2D DUP2 PUSH2 0x2973 JUMP JUMPDEST SWAP3 SWAP2 POP POP JUMP JUMPDEST PUSH1 0x0 DUP3 PUSH1 0x1F DUP4 ADD SLT PUSH2 0x1B44 JUMPI PUSH1 0x0 DUP1 REVERT JUMPDEST DUP2 CALLDATALOAD PUSH2 0x1B54 DUP5 DUP3 PUSH1 0x20 DUP7 ADD PUSH2 0x1A4E JUMP JUMPDEST SWAP2 POP POP SWAP3 SWAP2 POP POP JUMP JUMPDEST PUSH1 0x0 DUP3 PUSH1 0x1F DUP4 ADD SLT PUSH2 0x1B6E JUMPI PUSH1 0x0 DUP1 REVERT JUMPDEST DUP2 MLOAD PUSH2 0x1B7E DUP5 DUP3 PUSH1 0x20 DUP7 ADD PUSH2 0x1A8C JUMP JUMPDEST SWAP2 POP POP SWAP3 SWAP2 POP POP JUMP JUMPDEST PUSH1 0x0 DUP2 CALLDATALOAD SWAP1 POP PUSH2 0x1B96 DUP2 PUSH2 0x2983 JUMP JUMPDEST SWAP3 SWAP2 POP POP JUMP JUMPDEST PUSH1 0x0 DUP2 MLOAD SWAP1 POP PUSH2 0x1BAB DUP2 PUSH2 0x2983 JUMP JUMPDEST SWAP3 SWAP2 POP POP JUMP JUMPDEST PUSH1 0x0 PUSH1 0x20 DUP3 DUP5 SUB SLT ISZERO PUSH2 0x1BC3 JUMPI PUSH1 0x0 DUP1 REVERT JUMPDEST PUSH1 0x0 PUSH2 0x1BD1 DUP5 DUP3 DUP6 ADD PUSH2 0x1ACA JUMP JUMPDEST SWAP2 POP POP SWAP3 SWAP2 POP POP JUMP JUMPDEST PUSH1 0x0 PUSH1 0x20 DUP3 DUP5 SUB SLT ISZERO PUSH2 0x1BEC JUMPI PUSH1 0x0 DUP1 REVERT JUMPDEST PUSH1 0x0 DUP3 ADD MLOAD PUSH8 0xFFFFFFFFFFFFFFFF DUP2 GT ISZERO PUSH2 0x1C06 JUMPI PUSH1 0x0 DUP1 REVERT JUMPDEST PUSH2 0x1C12 DUP5 DUP3 DUP6 ADD PUSH2 0x1ADF JUMP JUMPDEST SWAP2 POP POP SWAP3 SWAP2 POP POP JUMP JUMPDEST PUSH1 0x0 PUSH1 0x20 DUP3 DUP5 SUB SLT ISZERO PUSH2 0x1C2D JUMPI PUSH1 0x0 DUP1 REVERT JUMPDEST PUSH1 0x0 PUSH2 0x1C3B DUP5 DUP3 DUP6 ADD PUSH2 0x1B09 JUMP JUMPDEST SWAP2 POP POP SWAP3 SWAP2 POP POP JUMP JUMPDEST PUSH1 0x0 PUSH1 0x20 DUP3 DUP5 SUB SLT ISZERO PUSH2 0x1C56 JUMPI PUSH1 0x0 DUP1 REVERT JUMPDEST PUSH1 0x0 PUSH2 0x1C64 DUP5 DUP3 DUP6 ADD PUSH2 0x1B1E JUMP JUMPDEST SWAP2 POP POP SWAP3 SWAP2 POP POP JUMP JUMPDEST PUSH1 0x0 PUSH1 0x20 DUP3 DUP5 SUB SLT ISZERO PUSH2 0x1C7F JUMPI PUSH1 0x0 DUP1 REVERT JUMPDEST PUSH1 0x0 DUP3 ADD MLOAD PUSH8 0xFFFFFFFFFFFFFFFF DUP2 GT ISZERO PUSH2 0x1C99 JUMPI PUSH1 0x0 DUP1 REVERT JUMPDEST PUSH2 0x1CA5 DUP5 DUP3 DUP6 ADD PUSH2 0x1B5D JUMP JUMPDEST SWAP2 POP POP SWAP3 SWAP2 POP POP JUMP JUMPDEST PUSH1 0x0 DUP1 PUSH1 0x40 DUP4 DUP6 SUB SLT ISZERO PUSH2 0x1CC1 JUMPI PUSH1 0x0 DUP1 REVERT JUMPDEST PUSH1 0x0 DUP4 ADD CALLDATALOAD PUSH8 0xFFFFFFFFFFFFFFFF DUP2 GT ISZERO PUSH2 0x1CDB JUMPI PUSH1 0x0 DUP1 REVERT JUMPDEST PUSH2 0x1CE7 DUP6 DUP3 DUP7 ADD PUSH2 0x1B33 JUMP JUMPDEST SWAP3 POP POP PUSH1 0x20 DUP4 ADD CALLDATALOAD PUSH8 0xFFFFFFFFFFFFFFFF DUP2 GT ISZERO PUSH2 0x1D04 JUMPI PUSH1 0x0 DUP1 REVERT JUMPDEST PUSH2 0x1D10 DUP6 DUP3 DUP7 ADD PUSH2 0x1B33 JUMP JUMPDEST SWAP2 POP POP SWAP3 POP SWAP3 SWAP1 POP JUMP JUMPDEST PUSH1 0x0 PUSH1 0x20 DUP3 DUP5 SUB SLT ISZERO PUSH2 0x1D2C JUMPI PUSH1 0x0 DUP1 REVERT JUMPDEST PUSH1 0x0 PUSH2 0x1D3A DUP5 DUP3 DUP6 ADD PUSH2 0x1B87 JUMP JUMPDEST SWAP2 POP POP SWAP3 SWAP2 POP POP JUMP JUMPDEST PUSH1 0x0 PUSH1 0x20 DUP3 DUP5 SUB SLT ISZERO PUSH2 0x1D55 JUMPI PUSH1 0x0 DUP1 REVERT JUMPDEST PUSH1 0x0 PUSH2 0x1D63 DUP5 DUP3 DUP6 ADD PUSH2 0x1B9C JUMP JUMPDEST SWAP2 POP POP SWAP3 SWAP2 POP POP JUMP JUMPDEST PUSH1 0x0 PUSH2 0x1D78 DUP4 DUP4 PUSH2 0x224C JUMP JUMPDEST PUSH1 0x20 DUP4 ADD SWAP1 POP SWAP3 SWAP2 POP POP JUMP JUMPDEST PUSH2 0x1D8D DUP2 PUSH2 0x2777 JUMP JUMPDEST DUP3 MSTORE POP POP JUMP JUMPDEST PUSH2 0x1D9C DUP2 PUSH2 0x271C JUMP JUMPDEST DUP3 MSTORE POP POP JUMP JUMPDEST PUSH2 0x1DAB DUP2 PUSH2 0x270A JUMP JUMPDEST DUP3 MSTORE POP POP JUMP JUMPDEST PUSH1 0x0 PUSH2 0x1DBC DUP3 PUSH2 0x25EC JUMP JUMPDEST PUSH2 0x1DC6 DUP2 DUP6 PUSH2 0x2604 JUMP JUMPDEST SWAP4 POP PUSH2 0x1DD1 DUP4 PUSH2 0x25DC JUMP JUMPDEST DUP1 PUSH1 0x0 JUMPDEST DUP4 DUP2 LT ISZERO PUSH2 0x1E02 JUMPI DUP2 MLOAD PUSH2 0x1DE9 DUP9 DUP3 PUSH2 0x1D6C JUMP JUMPDEST SWAP8 POP PUSH2 0x1DF4 DUP4 PUSH2 0x25F7 JUMP JUMPDEST SWAP3 POP POP PUSH1 0x1 DUP2 ADD SWAP1 POP PUSH2 0x1DD5 JUMP JUMPDEST POP DUP6 SWAP4 POP POP POP POP SWAP3 SWAP2 POP POP JUMP JUMPDEST PUSH2 0x1E18 DUP2 PUSH2 0x272E JUMP JUMPDEST DUP3 MSTORE POP POP JUMP JUMPDEST PUSH2 0x1E27 DUP2 PUSH2 0x2789 JUMP JUMPDEST DUP3 MSTORE POP POP JUMP JUMPDEST PUSH2 0x1E36 DUP2 PUSH2 0x27AD JUMP JUMPDEST DUP3 MSTORE POP POP JUMP JUMPDEST PUSH2 0x1E45 DUP2 PUSH2 0x27D1 JUMP JUMPDEST DUP3 MSTORE POP POP JUMP JUMPDEST PUSH2 0x1E54 DUP2 PUSH2 0x27E3 JUMP JUMPDEST DUP3 MSTORE POP POP JUMP JUMPDEST PUSH1 0x0 PUSH2 0x1E67 PUSH1 0x23 DUP4 PUSH2 0x2615 JUMP JUMPDEST SWAP2 POP PUSH32 0x7365745072696365203A3A2043616C6C6572207065726D697373696F6E206572 PUSH1 0x0 DUP4 ADD MSTORE PUSH32 0x726F720000000000000000000000000000000000000000000000000000000000 PUSH1 0x20 DUP4 ADD MSTORE PUSH1 0x40 DUP3 ADD SWAP1 POP SWAP2 SWAP1 POP JUMP JUMPDEST PUSH1 0x0 PUSH2 0x1ECD PUSH1 0x23 DUP4 PUSH2 0x2615 JUMP JUMPDEST SWAP2 POP PUSH32 0x7374617274203A3A20456E74697265207661756C74207072696365206973207A PUSH1 0x0 DUP4 ADD MSTORE PUSH32 0x6F72650000000000000000000000000000000000000000000000000000000000 PUSH1 0x20 DUP4 ADD MSTORE PUSH1 0x40 DUP3 ADD SWAP1 POP SWAP2 SWAP1 POP JUMP JUMPDEST PUSH1 0x0 PUSH2 0x1F33 PUSH1 0x1A DUP4 PUSH2 0x2615 JUMP JUMPDEST SWAP2 POP PUSH32 0x626964203A3A2061756374696F6E206973206E6F74206C697665000000000000 PUSH1 0x0 DUP4 ADD MSTORE PUSH1 0x20 DUP3 ADD SWAP1 POP SWAP2 SWAP1 POP JUMP JUMPDEST PUSH1 0x0 PUSH2 0x1F73 PUSH1 0x1A DUP4 PUSH2 0x2615 JUMP JUMPDEST SWAP2 POP PUSH32 0x7374617274203A3A206E6F2061756374696F6E20737461727473000000000000 PUSH1 0x0 DUP4 ADD MSTORE PUSH1 0x20 DUP3 ADD SWAP1 POP SWAP2 SWAP1 POP JUMP JUMPDEST PUSH1 0x0 PUSH2 0x1FB3 PUSH1 0x14 DUP4 PUSH2 0x2615 JUMP JUMPDEST SWAP2 POP PUSH32 0x7374617274203A3A20746F6F206C6F7720626964000000000000000000000000 PUSH1 0x0 DUP4 ADD MSTORE PUSH1 0x20 DUP3 ADD SWAP1 POP SWAP2 SWAP1 POP JUMP JUMPDEST PUSH1 0x0 PUSH2 0x1FF3 PUSH1 0x12 DUP4 PUSH2 0x2615 JUMP JUMPDEST SWAP2 POP PUSH32 0x626964203A3A20746F6F206C6F77206269640000000000000000000000000000 PUSH1 0x0 DUP4 ADD MSTORE PUSH1 0x20 DUP3 ADD SWAP1 POP SWAP2 SWAP1 POP JUMP JUMPDEST PUSH1 0x0 PUSH2 0x2033 PUSH1 0x1F DUP4 PUSH2 0x2615 JUMP JUMPDEST SWAP2 POP PUSH32 0x656E64203A3A207661756C742068617320616C726561647920636C6F73656400 PUSH1 0x0 DUP4 ADD MSTORE PUSH1 0x20 DUP3 ADD SWAP1 POP SWAP2 SWAP1 POP JUMP JUMPDEST PUSH1 0x0 PUSH2 0x2073 PUSH1 0x20 DUP4 PUSH2 0x2615 JUMP JUMPDEST SWAP2 POP PUSH32 0x757064617465203A3A20696E76616C69642061756374696F6E206C656E677468 PUSH1 0x0 DUP4 ADD MSTORE PUSH1 0x20 DUP3 ADD SWAP1 POP SWAP2 SWAP1 POP JUMP JUMPDEST PUSH1 0x0 PUSH2 0x20B3 PUSH1 0x14 DUP4 PUSH2 0x2615 JUMP JUMPDEST SWAP2 POP PUSH32 0x757064617465203A3A206E6F7420757064617465000000000000000000000000 PUSH1 0x0 DUP4 ADD MSTORE PUSH1 0x20 DUP3 ADD SWAP1 POP SWAP2 SWAP1 POP JUMP JUMPDEST PUSH1 0x0 PUSH2 0x20F3 PUSH1 0x15 DUP4 PUSH2 0x2615 JUMP JUMPDEST SWAP2 POP PUSH32 0x757064617465203A3A206E6F742063757261746F720000000000000000000000 PUSH1 0x0 DUP4 ADD MSTORE PUSH1 0x20 DUP3 ADD SWAP1 POP SWAP2 SWAP1 POP JUMP JUMPDEST PUSH1 0x0 PUSH2 0x2133 PUSH1 0x21 DUP4 PUSH2 0x2615 JUMP JUMPDEST SWAP2 POP PUSH32 0x696E697469616C697A65203A3A20416C726561647920696E697469616C697A65 PUSH1 0x0 DUP4 ADD MSTORE PUSH32 0x6400000000000000000000000000000000000000000000000000000000000000 PUSH1 0x20 DUP4 ADD MSTORE PUSH1 0x40 DUP3 ADD SWAP1 POP SWAP2 SWAP1 POP JUMP JUMPDEST PUSH1 0x0 PUSH2 0x2199 PUSH1 0x14 DUP4 PUSH2 0x2615 JUMP JUMPDEST SWAP2 POP PUSH32 0x626964203A3A2061756374696F6E20656E646564000000000000000000000000 PUSH1 0x0 DUP4 ADD MSTORE PUSH1 0x20 DUP3 ADD SWAP1 POP SWAP2 SWAP1 POP JUMP JUMPDEST PUSH1 0x0 PUSH2 0x21D9 PUSH1 0x7 DUP4 PUSH2 0x2615 JUMP JUMPDEST SWAP2 POP PUSH32 0x41756374696F6E00000000000000000000000000000000000000000000000000 PUSH1 0x0 DUP4 ADD MSTORE PUSH1 0x20 DUP3 ADD SWAP1 POP SWAP2 SWAP1 POP JUMP JUMPDEST PUSH1 0x0 PUSH2 0x2219 PUSH1 0x13 DUP4 PUSH2 0x2615 JUMP JUMPDEST SWAP2 POP PUSH32 0x656E64203A3A2061756374696F6E206C69766500000000000000000000000000 PUSH1 0x0 DUP4 ADD MSTORE PUSH1 0x20 DUP3 ADD SWAP1 POP SWAP2 SWAP1 POP JUMP JUMPDEST PUSH2 0x2255 DUP2 PUSH2 0x276D JUMP JUMPDEST DUP3 MSTORE POP POP JUMP JUMPDEST PUSH2 0x2264 DUP2 PUSH2 0x276D JUMP JUMPDEST DUP3 MSTORE POP POP JUMP JUMPDEST PUSH1 0x0 PUSH1 0x20 DUP3 ADD SWAP1 POP PUSH2 0x227F PUSH1 0x0 DUP4 ADD DUP5 PUSH2 0x1DA2 JUMP JUMPDEST SWAP3 SWAP2 POP POP JUMP JUMPDEST PUSH1 0x0 PUSH1 0x20 DUP3 ADD SWAP1 POP PUSH2 0x229A PUSH1 0x0 DUP4 ADD DUP5 PUSH2 0x1D93 JUMP JUMPDEST SWAP3 SWAP2 POP POP JUMP JUMPDEST PUSH1 0x0 PUSH1 0x40 DUP3 ADD SWAP1 POP PUSH2 0x22B5 PUSH1 0x0 DUP4 ADD DUP6 PUSH2 0x1D84 JUMP JUMPDEST PUSH2 0x22C2 PUSH1 0x20 DUP4 ADD DUP5 PUSH2 0x225B JUMP JUMPDEST SWAP4 SWAP3 POP POP POP JUMP JUMPDEST PUSH1 0x0 PUSH1 0x80 DUP3 ADD SWAP1 POP PUSH2 0x22DE PUSH1 0x0 DUP4 ADD DUP7 PUSH2 0x1DA2 JUMP JUMPDEST PUSH2 0x22EB PUSH1 0x20 DUP4 ADD DUP6 PUSH2 0x1E4B JUMP JUMPDEST PUSH2 0x22F8 PUSH1 0x40 DUP4 ADD DUP5 PUSH2 0x1E3C JUMP JUMPDEST DUP2 DUP2 SUB PUSH1 0x60 DUP4 ADD MSTORE PUSH2 0x2309 DUP2 PUSH2 0x21CC JUMP JUMPDEST SWAP1 POP SWAP5 SWAP4 POP POP POP POP JUMP JUMPDEST PUSH1 0x0 PUSH1 0x40 DUP3 ADD SWAP1 POP DUP2 DUP2 SUB PUSH1 0x0 DUP4 ADD MSTORE PUSH2 0x232D DUP2 DUP6 PUSH2 0x1DB1 JUMP JUMPDEST SWAP1 POP PUSH2 0x233C PUSH1 0x20 DUP4 ADD DUP5 PUSH2 0x1D84 JUMP JUMPDEST SWAP4 SWAP3 POP POP POP JUMP JUMPDEST PUSH1 0x0 PUSH1 0x20 DUP3 ADD SWAP1 POP PUSH2 0x2358 PUSH1 0x0 DUP4 ADD DUP5 PUSH2 0x1E0F JUMP JUMPDEST SWAP3 SWAP2 POP POP JUMP JUMPDEST PUSH1 0x0 PUSH1 0x20 DUP3 ADD SWAP1 POP PUSH2 0x2373 PUSH1 0x0 DUP4 ADD DUP5 PUSH2 0x1E1E JUMP JUMPDEST SWAP3 SWAP2 POP POP JUMP JUMPDEST PUSH1 0x0 PUSH1 0x20 DUP3 ADD SWAP1 POP PUSH2 0x238E PUSH1 0x0 DUP4 ADD DUP5 PUSH2 0x1E2D JUMP JUMPDEST SWAP3 SWAP2 POP POP JUMP JUMPDEST PUSH1 0x0 PUSH1 0x20 DUP3 ADD SWAP1 POP DUP2 DUP2 SUB PUSH1 0x0 DUP4 ADD MSTORE PUSH2 0x23AD DUP2 PUSH2 0x1E5A JUMP JUMPDEST SWAP1 POP SWAP2 SWAP1 POP JUMP JUMPDEST PUSH1 0x0 PUSH1 0x20 DUP3 ADD SWAP1 POP DUP2 DUP2 SUB PUSH1 0x0 DUP4 ADD MSTORE PUSH2 0x23CD DUP2 PUSH2 0x1EC0 JUMP JUMPDEST SWAP1 POP SWAP2 SWAP1 POP JUMP JUMPDEST PUSH1 0x0 PUSH1 0x20 DUP3 ADD SWAP1 POP DUP2 DUP2 SUB PUSH1 0x0 DUP4 ADD MSTORE PUSH2 0x23ED DUP2 PUSH2 0x1F26 JUMP JUMPDEST SWAP1 POP SWAP2 SWAP1 POP JUMP JUMPDEST PUSH1 0x0 PUSH1 0x20 DUP3 ADD SWAP1 POP DUP2 DUP2 SUB PUSH1 0x0 DUP4 ADD MSTORE PUSH2 0x240D DUP2 PUSH2 0x1F66 JUMP JUMPDEST SWAP1 POP SWAP2 SWAP1 POP JUMP JUMPDEST PUSH1 0x0 PUSH1 0x20 DUP3 ADD SWAP1 POP DUP2 DUP2 SUB PUSH1 0x0 DUP4 ADD MSTORE PUSH2 0x242D DUP2 PUSH2 0x1FA6 JUMP JUMPDEST SWAP1 POP SWAP2 SWAP1 POP JUMP JUMPDEST PUSH1 0x0 PUSH1 0x20 DUP3 ADD SWAP1 POP DUP2 DUP2 SUB PUSH1 0x0 DUP4 ADD MSTORE PUSH2 0x244D DUP2 PUSH2 0x1FE6 JUMP JUMPDEST SWAP1 POP SWAP2 SWAP1 POP JUMP JUMPDEST PUSH1 0x0 PUSH1 0x20 DUP3 ADD SWAP1 POP DUP2 DUP2 SUB PUSH1 0x0 DUP4 ADD MSTORE PUSH2 0x246D DUP2 PUSH2 0x2026 JUMP JUMPDEST SWAP1 POP SWAP2 SWAP1 POP JUMP JUMPDEST PUSH1 0x0 PUSH1 0x20 DUP3 ADD SWAP1 POP DUP2 DUP2 SUB PUSH1 0x0 DUP4 ADD MSTORE PUSH2 0x248D DUP2 PUSH2 0x2066 JUMP JUMPDEST SWAP1 POP SWAP2 SWAP1 POP JUMP JUMPDEST PUSH1 0x0 PUSH1 0x20 DUP3 ADD SWAP1 POP DUP2 DUP2 SUB PUSH1 0x0 DUP4 ADD MSTORE PUSH2 0x24AD DUP2 PUSH2 0x20A6 JUMP JUMPDEST SWAP1 POP SWAP2 SWAP1 POP JUMP JUMPDEST PUSH1 0x0 PUSH1 0x20 DUP3 ADD SWAP1 POP DUP2 DUP2 SUB PUSH1 0x0 DUP4 ADD MSTORE PUSH2 0x24CD DUP2 PUSH2 0x20E6 JUMP JUMPDEST SWAP1 POP SWAP2 SWAP1 POP JUMP JUMPDEST PUSH1 0x0 PUSH1 0x20 DUP3 ADD SWAP1 POP DUP2 DUP2 SUB PUSH1 0x0 DUP4 ADD MSTORE PUSH2 0x24ED DUP2 PUSH2 0x2126 JUMP JUMPDEST SWAP1 POP SWAP2 SWAP1 POP JUMP JUMPDEST PUSH1 0x0 PUSH1 0x20 DUP3 ADD SWAP1 POP DUP2 DUP2 SUB PUSH1 0x0 DUP4 ADD MSTORE PUSH2 0x250D DUP2 PUSH2 0x218C JUMP JUMPDEST SWAP1 POP SWAP2 SWAP1 POP JUMP JUMPDEST PUSH1 0x0 PUSH1 0x20 DUP3 ADD SWAP1 POP DUP2 DUP2 SUB PUSH1 0x0 DUP4 ADD MSTORE PUSH2 0x252D DUP2 PUSH2 0x220C JUMP JUMPDEST SWAP1 POP SWAP2 SWAP1 POP JUMP JUMPDEST PUSH1 0x0 PUSH1 0x20 DUP3 ADD SWAP1 POP PUSH2 0x2549 PUSH1 0x0 DUP4 ADD DUP5 PUSH2 0x225B JUMP JUMPDEST SWAP3 SWAP2 POP POP JUMP JUMPDEST PUSH1 0x0 PUSH1 0x40 MLOAD SWAP1 POP DUP2 DUP2 ADD DUP2 DUP2 LT PUSH8 0xFFFFFFFFFFFFFFFF DUP3 GT OR ISZERO PUSH2 0x2576 JUMPI PUSH2 0x2575 PUSH2 0x2902 JUMP JUMPDEST JUMPDEST DUP1 PUSH1 0x40 MSTORE POP SWAP2 SWAP1 POP JUMP JUMPDEST PUSH1 0x0 PUSH8 0xFFFFFFFFFFFFFFFF DUP3 GT ISZERO PUSH2 0x259B JUMPI PUSH2 0x259A PUSH2 0x2902 JUMP JUMPDEST JUMPDEST PUSH1 0x20 DUP3 MUL SWAP1 POP PUSH1 0x20 DUP2 ADD SWAP1 POP SWAP2 SWAP1 POP JUMP JUMPDEST PUSH1 0x0 PUSH8 0xFFFFFFFFFFFFFFFF DUP3 GT ISZERO PUSH2 0x25C7 JUMPI PUSH2 0x25C6 PUSH2 0x2902 JUMP JUMPDEST JUMPDEST PUSH1 0x1F NOT PUSH1 0x1F DUP4 ADD AND SWAP1 POP PUSH1 0x20 DUP2 ADD SWAP1 POP SWAP2 SWAP1 POP JUMP JUMPDEST PUSH1 0x0 DUP2 SWAP1 POP PUSH1 0x20 DUP3 ADD SWAP1 POP SWAP2 SWAP1 POP JUMP JUMPDEST PUSH1 0x0 DUP2 MLOAD SWAP1 POP SWAP2 SWAP1 POP JUMP JUMPDEST PUSH1 0x0 PUSH1 0x20 DUP3 ADD SWAP1 POP SWAP2 SWAP1 POP JUMP JUMPDEST PUSH1 0x0 DUP3 DUP3 MSTORE PUSH1 0x20 DUP3 ADD SWAP1 POP SWAP3 SWAP2 POP POP JUMP JUMPDEST PUSH1 0x0 DUP3 DUP3 MSTORE PUSH1 0x20 DUP3 ADD SWAP1 POP SWAP3 SWAP2 POP POP JUMP JUMPDEST PUSH1 0x0 PUSH2 0x2631 DUP3 PUSH2 0x276D JUMP JUMPDEST SWAP2 POP PUSH2 0x263C DUP4 PUSH2 0x276D JUMP JUMPDEST SWAP3 POP DUP3 PUSH32 0xFFFFFFFFFFFFFFFFFFFFFFFFFFFFFFFFFFFFFFFFFFFFFFFFFFFFFFFFFFFFFFFF SUB DUP3 GT ISZERO PUSH2 0x2671 JUMPI PUSH2 0x2670 PUSH2 0x28A4 JUMP JUMPDEST JUMPDEST DUP3 DUP3 ADD SWAP1 POP SWAP3 SWAP2 POP POP JUMP JUMPDEST PUSH1 0x0 PUSH2 0x2687 DUP3 PUSH2 0x276D JUMP JUMPDEST SWAP2 POP PUSH2 0x2692 DUP4 PUSH2 0x276D JUMP JUMPDEST SWAP3 POP DUP2 PUSH32 0xFFFFFFFFFFFFFFFFFFFFFFFFFFFFFFFFFFFFFFFFFFFFFFFFFFFFFFFFFFFFFFFF DIV DUP4 GT DUP3 ISZERO ISZERO AND ISZERO PUSH2 0x26CB JUMPI PUSH2 0x26CA PUSH2 0x28A4 JUMP JUMPDEST JUMPDEST DUP3 DUP3 MUL SWAP1 POP SWAP3 SWAP2 POP POP JUMP JUMPDEST PUSH1 0x0 PUSH2 0x26E1 DUP3 PUSH2 0x276D JUMP JUMPDEST SWAP2 POP PUSH2 0x26EC DUP4 PUSH2 0x276D JUMP JUMPDEST SWAP3 POP DUP3 DUP3 LT ISZERO PUSH2 0x26FF JUMPI PUSH2 0x26FE PUSH2 0x28A4 JUMP JUMPDEST JUMPDEST DUP3 DUP3 SUB SWAP1 POP SWAP3 SWAP2 POP POP JUMP JUMPDEST PUSH1 0x0 PUSH2 0x2715 DUP3 PUSH2 0x274D JUMP JUMPDEST SWAP1 POP SWAP2 SWAP1 POP JUMP JUMPDEST PUSH1 0x0 PUSH2 0x2727 DUP3 PUSH2 0x274D JUMP JUMPDEST SWAP1 POP SWAP2 SWAP1 POP JUMP JUMPDEST PUSH1 0x0 DUP2 ISZERO ISZERO SWAP1 POP SWAP2 SWAP1 POP JUMP JUMPDEST PUSH1 0x0 DUP2 SWAP1 POP PUSH2 0x2748 DUP3 PUSH2 0x2931 JUMP JUMPDEST SWAP2 SWAP1 POP JUMP JUMPDEST PUSH1 0x0 PUSH20 0xFFFFFFFFFFFFFFFFFFFFFFFFFFFFFFFFFFFFFFFF DUP3 AND SWAP1 POP SWAP2 SWAP1 POP JUMP JUMPDEST PUSH1 0x0 DUP2 SWAP1 POP SWAP2 SWAP1 POP JUMP JUMPDEST PUSH1 0x0 PUSH2 0x2782 DUP3 PUSH2 0x27F5 JUMP JUMPDEST SWAP1 POP SWAP2 SWAP1 POP JUMP JUMPDEST PUSH1 0x0 PUSH2 0x2794 DUP3 PUSH2 0x279B JUMP JUMPDEST SWAP1 POP SWAP2 SWAP1 POP JUMP JUMPDEST PUSH1 0x0 PUSH2 0x27A6 DUP3 PUSH2 0x274D JUMP JUMPDEST SWAP1 POP SWAP2 SWAP1 POP JUMP JUMPDEST PUSH1 0x0 PUSH2 0x27B8 DUP3 PUSH2 0x27BF JUMP JUMPDEST SWAP1 POP SWAP2 SWAP1 POP JUMP JUMPDEST PUSH1 0x0 PUSH2 0x27CA DUP3 PUSH2 0x274D JUMP JUMPDEST SWAP1 POP SWAP2 SWAP1 POP JUMP JUMPDEST PUSH1 0x0 PUSH2 0x27DC DUP3 PUSH2 0x273A JUMP JUMPDEST SWAP1 POP SWAP2 SWAP1 POP JUMP JUMPDEST PUSH1 0x0 PUSH2 0x27EE DUP3 PUSH2 0x276D JUMP JUMPDEST SWAP1 POP SWAP2 SWAP1 POP JUMP JUMPDEST PUSH1 0x0 PUSH2 0x2800 DUP3 PUSH2 0x2807 JUMP JUMPDEST SWAP1 POP SWAP2 SWAP1 POP JUMP JUMPDEST PUSH1 0x0 PUSH2 0x2812 DUP3 PUSH2 0x274D JUMP JUMPDEST SWAP1 POP SWAP2 SWAP1 POP JUMP JUMPDEST DUP3 DUP2 DUP4 CALLDATACOPY PUSH1 0x0 DUP4 DUP4 ADD MSTORE POP POP POP JUMP JUMPDEST PUSH1 0x0 JUMPDEST DUP4 DUP2 LT ISZERO PUSH2 0x2846 JUMPI DUP1 DUP3 ADD MLOAD DUP2 DUP5 ADD MSTORE PUSH1 0x20 DUP2 ADD SWAP1 POP PUSH2 0x282B JUMP JUMPDEST DUP4 DUP2 GT ISZERO PUSH2 0x2855 JUMPI PUSH1 0x0 DUP5 DUP5 ADD MSTORE JUMPDEST POP POP POP POP JUMP JUMPDEST PUSH1 0x0 PUSH2 0x2866 DUP3 PUSH2 0x276D JUMP JUMPDEST SWAP2 POP PUSH32 0xFFFFFFFFFFFFFFFFFFFFFFFFFFFFFFFFFFFFFFFFFFFFFFFFFFFFFFFFFFFFFFFF DUP3 EQ ISZERO PUSH2 0x2899 JUMPI PUSH2 0x2898 PUSH2 0x28A4 JUMP JUMPDEST JUMPDEST PUSH1 0x1 DUP3 ADD SWAP1 POP SWAP2 SWAP1 POP JUMP JUMPDEST PUSH32 0x4E487B7100000000000000000000000000000000000000000000000000000000 PUSH1 0x0 MSTORE PUSH1 0x11 PUSH1 0x4 MSTORE PUSH1 0x24 PUSH1 0x0 REVERT JUMPDEST PUSH32 0x4E487B7100000000000000000000000000000000000000000000000000000000 PUSH1 0x0 MSTORE PUSH1 0x21 PUSH1 0x4 MSTORE PUSH1 0x24 PUSH1 0x0 REVERT JUMPDEST PUSH32 0x4E487B7100000000000000000000000000000000000000000000000000000000 PUSH1 0x0 MSTORE PUSH1 0x41 PUSH1 0x4 MSTORE PUSH1 0x24 PUSH1 0x0 REVERT JUMPDEST PUSH1 0x3 DUP2 LT PUSH2 0x2942 JUMPI PUSH2 0x2941 PUSH2 0x28D3 JUMP JUMPDEST JUMPDEST POP JUMP JUMPDEST PUSH2 0x294E DUP2 PUSH2 0x270A JUMP JUMPDEST DUP2 EQ PUSH2 0x2959 JUMPI PUSH1 0x0 DUP1 REVERT JUMPDEST POP JUMP JUMPDEST PUSH2 0x2965 DUP2 PUSH2 0x272E JUMP JUMPDEST DUP2 EQ PUSH2 0x2970 JUMPI PUSH1 0x0 DUP1 REVERT JUMPDEST POP JUMP JUMPDEST PUSH1 0x3 DUP2 LT PUSH2 0x2980 JUMPI PUSH1 0x0 DUP1 REVERT JUMPDEST POP JUMP JUMPDEST PUSH2 0x298C DUP2 PUSH2 0x276D JUMP JUMPDEST DUP2 EQ PUSH2 0x2997 JUMPI PUSH1 0x0 DUP1 REVERT JUMPDEST POP JUMP INVALID LOG2 PUSH5 0x6970667358 0x22 SLT KECCAK256 0xC7 0xD5 SWAP9 0xD4 0xC ORIGIN 0x4D 0xED PUSH27 0x6D869562E1B9F7AD73ABB096A2D215174EFAD6FAEF18F664736F6C PUSH4 0x43000800 STOP CALLER "
				},
				"gasEstimates": {
					"creation": {
						"codeDepositCost": "2140800",
						"executionCost": "2280",
						"totalCost": "2143080"
					},
					"external": {
						"auctionEnd()": "1175",
						"auctionLength()": "1219",
						"bid()": "infinite",
						"end()": "infinite",
						"entireVaultPrice()": "1173",
						"getSettings()": "infinite",
						"getVault()": "infinite",
						"getVaultAddress()": "infinite",
						"initialize()": "63803",
						"initializer()": "1243",
						"livePrice()": "1174",
						"router()": "1321",
						"setPrice(uint256)": "infinite",
						"start()": "infinite",
						"updateAuctionLength(uint256)": "infinite",
						"utilCompareInternal(string,string)": "infinite",
						"winning()": "1303"
					}
				},
				"methodIdentifiers": {
					"auctionEnd()": "2a24f46c",
					"auctionLength()": "325c25a2",
					"bid()": "1998aeef",
					"end()": "efbe1c1c",
					"entireVaultPrice()": "bbc90a92",
					"getSettings()": "85b4bb53",
					"getVault()": "8d928af8",
					"getVaultAddress()": "65cacaa4",
					"initialize()": "8129fc1c",
					"initializer()": "9ce110d7",
					"livePrice()": "6da84e6c",
					"router()": "f887ea40",
					"setPrice(uint256)": "91b7f5ed",
					"start()": "be9a6555",
					"updateAuctionLength(uint256)": "2bf33bd9",
					"utilCompareInternal(string,string)": "8ddbeb07",
					"winning()": "853a1b90"
				}
			},
			"storageLayout": {
				"storage": [
					{
						"astId": 577,
						"contract": "contracts/Template/Istanbul10/logic/Auction.sol:Auction",
						"label": "router",
						"offset": 0,
						"slot": "0",
						"type": "t_address"
					},
					{
						"astId": 580,
						"contract": "contracts/Template/Istanbul10/logic/Auction.sol:Auction",
						"label": "initializer",
						"offset": 20,
						"slot": "0",
						"type": "t_bool"
					},
					{
						"astId": 583,
						"contract": "contracts/Template/Istanbul10/logic/Auction.sol:Auction",
						"label": "entireVaultPrice",
						"offset": 0,
						"slot": "1",
						"type": "t_uint256"
					},
					{
						"astId": 586,
						"contract": "contracts/Template/Istanbul10/logic/Auction.sol:Auction",
						"label": "auctionLength",
						"offset": 0,
						"slot": "2",
						"type": "t_uint256"
					},
					{
						"astId": 589,
						"contract": "contracts/Template/Istanbul10/logic/Auction.sol:Auction",
						"label": "auctionEnd",
						"offset": 0,
						"slot": "3",
						"type": "t_uint256"
					},
					{
						"astId": 592,
						"contract": "contracts/Template/Istanbul10/logic/Auction.sol:Auction",
						"label": "livePrice",
						"offset": 0,
						"slot": "4",
						"type": "t_uint256"
					},
					{
						"astId": 595,
						"contract": "contracts/Template/Istanbul10/logic/Auction.sol:Auction",
						"label": "winning",
						"offset": 0,
						"slot": "5",
						"type": "t_address_payable"
					}
				],
				"types": {
					"t_address": {
						"encoding": "inplace",
						"label": "address",
						"numberOfBytes": "20"
					},
					"t_address_payable": {
						"encoding": "inplace",
						"label": "address payable",
						"numberOfBytes": "20"
					},
					"t_bool": {
						"encoding": "inplace",
						"label": "bool",
						"numberOfBytes": "1"
					},
					"t_uint256": {
						"encoding": "inplace",
						"label": "uint256",
						"numberOfBytes": "32"
					}
				}
			},
			"userdoc": {
				"events": {
					"Bid(address,uint256)": {
						"notice": "An event emitted when a bid is made"
					},
					"EntirePrice(uint256)": {
						"notice": "An event emitted when a user updates their price"
					},
					"Start(address,uint256)": {
						"notice": "An event emitted when an auction starts"
					},
					"UpdateAuctionLength(uint256)": {
						"notice": "An event emitted when update auction length"
					},
					"Won(address,uint256)": {
						"notice": "An event emitted when an auction is won"
					}
				},
				"kind": "user",
				"methods": {
					"bid()": {
						"notice": "an external function to bid on purchasing the vaults NFT. The msg.value is the bid amount"
					},
					"end()": {
						"notice": "an external function to end an auction after the timer has run out"
					},
					"start()": {
						"notice": "kick off an auction. Must send reservePrice in ETH"
					}
				},
				"version": 1
			}
		}
	}
}