{
	"contracts/Template/Istanbul10/data/AuctionData.sol": {
		"AuctionData": {
			"abi": [
				{
					"inputs": [],
					"name": "auctionEnd",
					"outputs": [
						{
							"internalType": "uint256",
							"name": "",
							"type": "uint256"
						}
					],
					"stateMutability": "view",
					"type": "function"
				},
				{
					"inputs": [],
					"name": "auctionLength",
					"outputs": [
						{
							"internalType": "uint256",
							"name": "",
							"type": "uint256"
						}
					],
					"stateMutability": "view",
					"type": "function"
				},
				{
					"inputs": [],
					"name": "entireVaultPrice",
					"outputs": [
						{
							"internalType": "uint256",
							"name": "",
							"type": "uint256"
						}
					],
					"stateMutability": "view",
					"type": "function"
				},
				{
					"inputs": [],
					"name": "initializer",
					"outputs": [
						{
							"internalType": "bool",
							"name": "",
							"type": "bool"
						}
					],
					"stateMutability": "view",
					"type": "function"
				},
				{
					"inputs": [],
					"name": "livePrice",
					"outputs": [
						{
							"internalType": "uint256",
							"name": "",
							"type": "uint256"
						}
					],
					"stateMutability": "view",
					"type": "function"
				},
				{
					"inputs": [],
					"name": "router",
					"outputs": [
						{
							"internalType": "address",
							"name": "",
							"type": "address"
						}
					],
					"stateMutability": "view",
					"type": "function"
				},
				{
					"inputs": [],
					"name": "winning",
					"outputs": [
						{
							"internalType": "address payable",
							"name": "",
							"type": "address"
						}
					],
					"stateMutability": "view",
					"type": "function"
				}
			],
			"devdoc": {
				"kind": "dev",
				"methods": {},
				"version": 1
			},
			"evm": {
				"assembly": "    /* \"contracts/Template/Istanbul10/data/AuctionData.sol\":100:633  contract AuctionData is IAuctionData {\r... */\n  mstore(0x40, 0x80)\n  callvalue\n  dup1\n  iszero\n  tag_1\n  jumpi\n  0x00\n  dup1\n  revert\ntag_1:\n  pop\n  dataSize(sub_0)\n  dup1\n  dataOffset(sub_0)\n  0x00\n  codecopy\n  0x00\n  return\nstop\n\nsub_0: assembly {\n        /* \"contracts/Template/Istanbul10/data/AuctionData.sol\":100:633  contract AuctionData is IAuctionData {\r... */\n      mstore(0x40, 0x80)\n      callvalue\n      dup1\n      iszero\n      tag_1\n      jumpi\n      0x00\n      dup1\n      revert\n    tag_1:\n      pop\n      jumpi(tag_2, lt(calldatasize, 0x04))\n      shr(0xe0, calldataload(0x00))\n      dup1\n      0x853a1b90\n      gt\n      tag_10\n      jumpi\n      dup1\n      0x853a1b90\n      eq\n      tag_6\n      jumpi\n      dup1\n      0x9ce110d7\n      eq\n      tag_7\n      jumpi\n      dup1\n      0xbbc90a92\n      eq\n      tag_8\n      jumpi\n      dup1\n      0xf887ea40\n      eq\n      tag_9\n      jumpi\n      jump(tag_2)\n    tag_10:\n      dup1\n      0x2a24f46c\n      eq\n      tag_3\n      jumpi\n      dup1\n      0x325c25a2\n      eq\n      tag_4\n      jumpi\n      dup1\n      0x6da84e6c\n      eq\n      tag_5\n      jumpi\n    tag_2:\n      0x00\n      dup1\n      revert\n        /* \"contracts/Template/Istanbul10/data/AuctionData.sol\":504:538  uint256 override public auctionEnd */\n    tag_3:\n      tag_11\n      tag_12\n      jump\t// in\n    tag_11:\n      mload(0x40)\n      tag_13\n      swap2\n      swap1\n      tag_14\n      jump\t// in\n    tag_13:\n      mload(0x40)\n      dup1\n      swap2\n      sub\n      swap1\n      return\n        /* \"contracts/Template/Istanbul10/data/AuctionData.sol\":458:495  uint256 override public auctionLength */\n    tag_4:\n      tag_15\n      tag_16\n      jump\t// in\n    tag_15:\n      mload(0x40)\n      tag_17\n      swap2\n      swap1\n      tag_14\n      jump\t// in\n    tag_17:\n      mload(0x40)\n      dup1\n      swap2\n      sub\n      swap1\n      return\n        /* \"contracts/Template/Istanbul10/data/AuctionData.sol\":548:581  uint256 override public livePrice */\n    tag_5:\n      tag_18\n      tag_19\n      jump\t// in\n    tag_18:\n      mload(0x40)\n      tag_20\n      swap2\n      swap1\n      tag_14\n      jump\t// in\n    tag_20:\n      mload(0x40)\n      dup1\n      swap2\n      sub\n      swap1\n      return\n        /* \"contracts/Template/Istanbul10/data/AuctionData.sol\":590:629  address payable override public winning */\n    tag_6:\n      tag_21\n      tag_22\n      jump\t// in\n    tag_21:\n      mload(0x40)\n      tag_23\n      swap2\n      swap1\n      tag_24\n      jump\t// in\n    tag_23:\n      mload(0x40)\n      dup1\n      swap2\n      sub\n      swap1\n      return\n        /* \"contracts/Template/Istanbul10/data/AuctionData.sol\":307:339  bool override public initializer */\n    tag_7:\n      tag_25\n      tag_26\n      jump\t// in\n    tag_25:\n      mload(0x40)\n      tag_27\n      swap2\n      swap1\n      tag_28\n      jump\t// in\n    tag_27:\n      mload(0x40)\n      dup1\n      swap2\n      sub\n      swap1\n      return\n        /* \"contracts/Template/Istanbul10/data/AuctionData.sol\":409:449  uint256 override public entireVaultPrice */\n    tag_8:\n      tag_29\n      tag_30\n      jump\t// in\n    tag_29:\n      mload(0x40)\n      tag_31\n      swap2\n      swap1\n      tag_14\n      jump\t// in\n    tag_31:\n      mload(0x40)\n      dup1\n      swap2\n      sub\n      swap1\n      return\n        /* \"contracts/Template/Istanbul10/data/AuctionData.sol\":208:238  address override public router */\n    tag_9:\n      tag_32\n      tag_33\n      jump\t// in\n    tag_32:\n      mload(0x40)\n      tag_34\n      swap2\n      swap1\n      tag_35\n      jump\t// in\n    tag_34:\n      mload(0x40)\n      dup1\n      swap2\n      sub\n      swap1\n      return\n        /* \"contracts/Template/Istanbul10/data/AuctionData.sol\":504:538  uint256 override public auctionEnd */\n    tag_12:\n      sload(0x03)\n      dup2\n      jump\t// out\n        /* \"contracts/Template/Istanbul10/data/AuctionData.sol\":458:495  uint256 override public auctionLength */\n    tag_16:\n      sload(0x02)\n      dup2\n      jump\t// out\n        /* \"contracts/Template/Istanbul10/data/AuctionData.sol\":548:581  uint256 override public livePrice */\n    tag_19:\n      sload(0x04)\n      dup2\n      jump\t// out\n        /* \"contracts/Template/Istanbul10/data/AuctionData.sol\":590:629  address payable override public winning */\n    tag_22:\n      0x05\n      0x00\n      swap1\n      sload\n      swap1\n      0x0100\n      exp\n      swap1\n      div\n      0xffffffffffffffffffffffffffffffffffffffff\n      and\n      dup2\n      jump\t// out\n        /* \"contracts/Template/Istanbul10/data/AuctionData.sol\":307:339  bool override public initializer */\n    tag_26:\n      0x00\n      0x14\n      swap1\n      sload\n      swap1\n      0x0100\n      exp\n      swap1\n      div\n      0xff\n      and\n      dup2\n      jump\t// out\n        /* \"contracts/Template/Istanbul10/data/AuctionData.sol\":409:449  uint256 override public entireVaultPrice */\n    tag_30:\n      sload(0x01)\n      dup2\n      jump\t// out\n        /* \"contracts/Template/Istanbul10/data/AuctionData.sol\":208:238  address override public router */\n    tag_33:\n      0x00\n      dup1\n      sload\n      swap1\n      0x0100\n      exp\n      swap1\n      div\n      0xffffffffffffffffffffffffffffffffffffffff\n      and\n      dup2\n      jump\t// out\n        /* \"#utility.yul\":7:149   */\n    tag_37:\n        /* \"#utility.yul\":110:142   */\n      tag_39\n        /* \"#utility.yul\":136:141   */\n      dup2\n        /* \"#utility.yul\":110:142   */\n      tag_40\n      jump\t// in\n    tag_39:\n        /* \"#utility.yul\":105:108   */\n      dup3\n        /* \"#utility.yul\":98:143   */\n      mstore\n        /* \"#utility.yul\":88:149   */\n      pop\n      pop\n      jump\t// out\n        /* \"#utility.yul\":155:273   */\n    tag_41:\n        /* \"#utility.yul\":242:266   */\n      tag_43\n        /* \"#utility.yul\":260:265   */\n      dup2\n        /* \"#utility.yul\":242:266   */\n      tag_44\n      jump\t// in\n    tag_43:\n        /* \"#utility.yul\":237:240   */\n      dup3\n        /* \"#utility.yul\":230:267   */\n      mstore\n        /* \"#utility.yul\":220:273   */\n      pop\n      pop\n      jump\t// out\n        /* \"#utility.yul\":279:388   */\n    tag_45:\n        /* \"#utility.yul\":360:381   */\n      tag_47\n        /* \"#utility.yul\":375:380   */\n      dup2\n        /* \"#utility.yul\":360:381   */\n      tag_48\n      jump\t// in\n    tag_47:\n        /* \"#utility.yul\":355:358   */\n      dup3\n        /* \"#utility.yul\":348:382   */\n      mstore\n        /* \"#utility.yul\":338:388   */\n      pop\n      pop\n      jump\t// out\n        /* \"#utility.yul\":394:512   */\n    tag_49:\n        /* \"#utility.yul\":481:505   */\n      tag_51\n        /* \"#utility.yul\":499:504   */\n      dup2\n        /* \"#utility.yul\":481:505   */\n      tag_52\n      jump\t// in\n    tag_51:\n        /* \"#utility.yul\":476:479   */\n      dup3\n        /* \"#utility.yul\":469:506   */\n      mstore\n        /* \"#utility.yul\":459:512   */\n      pop\n      pop\n      jump\t// out\n        /* \"#utility.yul\":518:740   */\n    tag_35:\n      0x00\n        /* \"#utility.yul\":649:651   */\n      0x20\n        /* \"#utility.yul\":638:647   */\n      dup3\n        /* \"#utility.yul\":634:652   */\n      add\n        /* \"#utility.yul\":626:652   */\n      swap1\n      pop\n        /* \"#utility.yul\":662:733   */\n      tag_54\n        /* \"#utility.yul\":730:731   */\n      0x00\n        /* \"#utility.yul\":719:728   */\n      dup4\n        /* \"#utility.yul\":715:732   */\n      add\n        /* \"#utility.yul\":706:712   */\n      dup5\n        /* \"#utility.yul\":662:733   */\n      tag_41\n      jump\t// in\n    tag_54:\n        /* \"#utility.yul\":616:740   */\n      swap3\n      swap2\n      pop\n      pop\n      jump\t// out\n        /* \"#utility.yul\":746:1000   */\n    tag_24:\n      0x00\n        /* \"#utility.yul\":893:895   */\n      0x20\n        /* \"#utility.yul\":882:891   */\n      dup3\n        /* \"#utility.yul\":878:896   */\n      add\n        /* \"#utility.yul\":870:896   */\n      swap1\n      pop\n        /* \"#utility.yul\":906:993   */\n      tag_56\n        /* \"#utility.yul\":990:991   */\n      0x00\n        /* \"#utility.yul\":979:988   */\n      dup4\n        /* \"#utility.yul\":975:992   */\n      add\n        /* \"#utility.yul\":966:972   */\n      dup5\n        /* \"#utility.yul\":906:993   */\n      tag_37\n      jump\t// in\n    tag_56:\n        /* \"#utility.yul\":860:1000   */\n      swap3\n      swap2\n      pop\n      pop\n      jump\t// out\n        /* \"#utility.yul\":1006:1216   */\n    tag_28:\n      0x00\n        /* \"#utility.yul\":1131:1133   */\n      0x20\n        /* \"#utility.yul\":1120:1129   */\n      dup3\n        /* \"#utility.yul\":1116:1134   */\n      add\n        /* \"#utility.yul\":1108:1134   */\n      swap1\n      pop\n        /* \"#utility.yul\":1144:1209   */\n      tag_58\n        /* \"#utility.yul\":1206:1207   */\n      0x00\n        /* \"#utility.yul\":1195:1204   */\n      dup4\n        /* \"#utility.yul\":1191:1208   */\n      add\n        /* \"#utility.yul\":1182:1188   */\n      dup5\n        /* \"#utility.yul\":1144:1209   */\n      tag_45\n      jump\t// in\n    tag_58:\n        /* \"#utility.yul\":1098:1216   */\n      swap3\n      swap2\n      pop\n      pop\n      jump\t// out\n        /* \"#utility.yul\":1222:1444   */\n    tag_14:\n      0x00\n        /* \"#utility.yul\":1353:1355   */\n      0x20\n        /* \"#utility.yul\":1342:1351   */\n      dup3\n        /* \"#utility.yul\":1338:1356   */\n      add\n        /* \"#utility.yul\":1330:1356   */\n      swap1\n      pop\n        /* \"#utility.yul\":1366:1437   */\n      tag_60\n        /* \"#utility.yul\":1434:1435   */\n      0x00\n        /* \"#utility.yul\":1423:1432   */\n      dup4\n        /* \"#utility.yul\":1419:1436   */\n      add\n        /* \"#utility.yul\":1410:1416   */\n      dup5\n        /* \"#utility.yul\":1366:1437   */\n      tag_49\n      jump\t// in\n    tag_60:\n        /* \"#utility.yul\":1320:1444   */\n      swap3\n      swap2\n      pop\n      pop\n      jump\t// out\n        /* \"#utility.yul\":1450:1546   */\n    tag_44:\n      0x00\n        /* \"#utility.yul\":1516:1540   */\n      tag_62\n        /* \"#utility.yul\":1534:1539   */\n      dup3\n        /* \"#utility.yul\":1516:1540   */\n      tag_63\n      jump\t// in\n    tag_62:\n        /* \"#utility.yul\":1505:1540   */\n      swap1\n      pop\n        /* \"#utility.yul\":1495:1546   */\n      swap2\n      swap1\n      pop\n      jump\t// out\n        /* \"#utility.yul\":1552:1656   */\n    tag_40:\n      0x00\n        /* \"#utility.yul\":1626:1650   */\n      tag_65\n        /* \"#utility.yul\":1644:1649   */\n      dup3\n        /* \"#utility.yul\":1626:1650   */\n      tag_63\n      jump\t// in\n    tag_65:\n        /* \"#utility.yul\":1615:1650   */\n      swap1\n      pop\n        /* \"#utility.yul\":1605:1656   */\n      swap2\n      swap1\n      pop\n      jump\t// out\n        /* \"#utility.yul\":1662:1752   */\n    tag_48:\n      0x00\n        /* \"#utility.yul\":1739:1744   */\n      dup2\n        /* \"#utility.yul\":1732:1745   */\n      iszero\n        /* \"#utility.yul\":1725:1746   */\n      iszero\n        /* \"#utility.yul\":1714:1746   */\n      swap1\n      pop\n        /* \"#utility.yul\":1704:1752   */\n      swap2\n      swap1\n      pop\n      jump\t// out\n        /* \"#utility.yul\":1758:1884   */\n    tag_63:\n      0x00\n        /* \"#utility.yul\":1835:1877   */\n      0xffffffffffffffffffffffffffffffffffffffff\n        /* \"#utility.yul\":1828:1833   */\n      dup3\n        /* \"#utility.yul\":1824:1878   */\n      and\n        /* \"#utility.yul\":1813:1878   */\n      swap1\n      pop\n        /* \"#utility.yul\":1803:1884   */\n      swap2\n      swap1\n      pop\n      jump\t// out\n        /* \"#utility.yul\":1890:1967   */\n    tag_52:\n      0x00\n        /* \"#utility.yul\":1956:1961   */\n      dup2\n        /* \"#utility.yul\":1945:1961   */\n      swap1\n      pop\n        /* \"#utility.yul\":1935:1967   */\n      swap2\n      swap1\n      pop\n      jump\t// out\n\n    auxdata: 0xa2646970667358221220b4089aba7da13f947c28414721897b7740f0c0c9796185d0975ad4a735c80d0764736f6c63430008000033\n}\n",
				"bytecode": {
					"linkReferences": {},
					"object": "608060405234801561001057600080fd5b50610301806100206000396000f3fe608060405234801561001057600080fd5b506004361061007d5760003560e01c8063853a1b901161005b578063853a1b90146100dc5780639ce110d7146100fa578063bbc90a9214610118578063f887ea40146101365761007d565b80632a24f46c14610082578063325c25a2146100a05780636da84e6c146100be575b600080fd5b61008a610154565b6040516100979190610256565b60405180910390f35b6100a861015a565b6040516100b59190610256565b60405180910390f35b6100c6610160565b6040516100d39190610256565b60405180910390f35b6100e4610166565b6040516100f19190610220565b60405180910390f35b61010261018c565b60405161010f919061023b565b60405180910390f35b61012061019f565b60405161012d9190610256565b60405180910390f35b61013e6101a5565b60405161014b9190610205565b60405180910390f35b60035481565b60025481565b60045481565b600560009054906101000a900473ffffffffffffffffffffffffffffffffffffffff1681565b600060149054906101000a900460ff1681565b60015481565b60008054906101000a900473ffffffffffffffffffffffffffffffffffffffff1681565b6101d281610283565b82525050565b6101e181610271565b82525050565b6101f081610295565b82525050565b6101ff816102c1565b82525050565b600060208201905061021a60008301846101d8565b92915050565b600060208201905061023560008301846101c9565b92915050565b600060208201905061025060008301846101e7565b92915050565b600060208201905061026b60008301846101f6565b92915050565b600061027c826102a1565b9050919050565b600061028e826102a1565b9050919050565b60008115159050919050565b600073ffffffffffffffffffffffffffffffffffffffff82169050919050565b600081905091905056fea2646970667358221220b4089aba7da13f947c28414721897b7740f0c0c9796185d0975ad4a735c80d0764736f6c63430008000033",
					"opcodes": "PUSH1 0x80 PUSH1 0x40 MSTORE CALLVALUE DUP1 ISZERO PUSH2 0x10 JUMPI PUSH1 0x0 DUP1 REVERT JUMPDEST POP PUSH2 0x301 DUP1 PUSH2 0x20 PUSH1 0x0 CODECOPY PUSH1 0x0 RETURN INVALID PUSH1 0x80 PUSH1 0x40 MSTORE CALLVALUE DUP1 ISZERO PUSH2 0x10 JUMPI PUSH1 0x0 DUP1 REVERT JUMPDEST POP PUSH1 0x4 CALLDATASIZE LT PUSH2 0x7D JUMPI PUSH1 0x0 CALLDATALOAD PUSH1 0xE0 SHR DUP1 PUSH4 0x853A1B90 GT PUSH2 0x5B JUMPI DUP1 PUSH4 0x853A1B90 EQ PUSH2 0xDC JUMPI DUP1 PUSH4 0x9CE110D7 EQ PUSH2 0xFA JUMPI DUP1 PUSH4 0xBBC90A92 EQ PUSH2 0x118 JUMPI DUP1 PUSH4 0xF887EA40 EQ PUSH2 0x136 JUMPI PUSH2 0x7D JUMP JUMPDEST DUP1 PUSH4 0x2A24F46C EQ PUSH2 0x82 JUMPI DUP1 PUSH4 0x325C25A2 EQ PUSH2 0xA0 JUMPI DUP1 PUSH4 0x6DA84E6C EQ PUSH2 0xBE JUMPI JUMPDEST PUSH1 0x0 DUP1 REVERT JUMPDEST PUSH2 0x8A PUSH2 0x154 JUMP JUMPDEST PUSH1 0x40 MLOAD PUSH2 0x97 SWAP2 SWAP1 PUSH2 0x256 JUMP JUMPDEST PUSH1 0x40 MLOAD DUP1 SWAP2 SUB SWAP1 RETURN JUMPDEST PUSH2 0xA8 PUSH2 0x15A JUMP JUMPDEST PUSH1 0x40 MLOAD PUSH2 0xB5 SWAP2 SWAP1 PUSH2 0x256 JUMP JUMPDEST PUSH1 0x40 MLOAD DUP1 SWAP2 SUB SWAP1 RETURN JUMPDEST PUSH2 0xC6 PUSH2 0x160 JUMP JUMPDEST PUSH1 0x40 MLOAD PUSH2 0xD3 SWAP2 SWAP1 PUSH2 0x256 JUMP JUMPDEST PUSH1 0x40 MLOAD DUP1 SWAP2 SUB SWAP1 RETURN JUMPDEST PUSH2 0xE4 PUSH2 0x166 JUMP JUMPDEST PUSH1 0x40 MLOAD PUSH2 0xF1 SWAP2 SWAP1 PUSH2 0x220 JUMP JUMPDEST PUSH1 0x40 MLOAD DUP1 SWAP2 SUB SWAP1 RETURN JUMPDEST PUSH2 0x102 PUSH2 0x18C JUMP JUMPDEST PUSH1 0x40 MLOAD PUSH2 0x10F SWAP2 SWAP1 PUSH2 0x23B JUMP JUMPDEST PUSH1 0x40 MLOAD DUP1 SWAP2 SUB SWAP1 RETURN JUMPDEST PUSH2 0x120 PUSH2 0x19F JUMP JUMPDEST PUSH1 0x40 MLOAD PUSH2 0x12D SWAP2 SWAP1 PUSH2 0x256 JUMP JUMPDEST PUSH1 0x40 MLOAD DUP1 SWAP2 SUB SWAP1 RETURN JUMPDEST PUSH2 0x13E PUSH2 0x1A5 JUMP JUMPDEST PUSH1 0x40 MLOAD PUSH2 0x14B SWAP2 SWAP1 PUSH2 0x205 JUMP JUMPDEST PUSH1 0x40 MLOAD DUP1 SWAP2 SUB SWAP1 RETURN JUMPDEST PUSH1 0x3 SLOAD DUP2 JUMP JUMPDEST PUSH1 0x2 SLOAD DUP2 JUMP JUMPDEST PUSH1 0x4 SLOAD DUP2 JUMP JUMPDEST PUSH1 0x5 PUSH1 0x0 SWAP1 SLOAD SWAP1 PUSH2 0x100 EXP SWAP1 DIV PUSH20 0xFFFFFFFFFFFFFFFFFFFFFFFFFFFFFFFFFFFFFFFF AND DUP2 JUMP JUMPDEST PUSH1 0x0 PUSH1 0x14 SWAP1 SLOAD SWAP1 PUSH2 0x100 EXP SWAP1 DIV PUSH1 0xFF AND DUP2 JUMP JUMPDEST PUSH1 0x1 SLOAD DUP2 JUMP JUMPDEST PUSH1 0x0 DUP1 SLOAD SWAP1 PUSH2 0x100 EXP SWAP1 DIV PUSH20 0xFFFFFFFFFFFFFFFFFFFFFFFFFFFFFFFFFFFFFFFF AND DUP2 JUMP JUMPDEST PUSH2 0x1D2 DUP2 PUSH2 0x283 JUMP JUMPDEST DUP3 MSTORE POP POP JUMP JUMPDEST PUSH2 0x1E1 DUP2 PUSH2 0x271 JUMP JUMPDEST DUP3 MSTORE POP POP JUMP JUMPDEST PUSH2 0x1F0 DUP2 PUSH2 0x295 JUMP JUMPDEST DUP3 MSTORE POP POP JUMP JUMPDEST PUSH2 0x1FF DUP2 PUSH2 0x2C1 JUMP JUMPDEST DUP3 MSTORE POP POP JUMP JUMPDEST PUSH1 0x0 PUSH1 0x20 DUP3 ADD SWAP1 POP PUSH2 0x21A PUSH1 0x0 DUP4 ADD DUP5 PUSH2 0x1D8 JUMP JUMPDEST SWAP3 SWAP2 POP POP JUMP JUMPDEST PUSH1 0x0 PUSH1 0x20 DUP3 ADD SWAP1 POP PUSH2 0x235 PUSH1 0x0 DUP4 ADD DUP5 PUSH2 0x1C9 JUMP JUMPDEST SWAP3 SWAP2 POP POP JUMP JUMPDEST PUSH1 0x0 PUSH1 0x20 DUP3 ADD SWAP1 POP PUSH2 0x250 PUSH1 0x0 DUP4 ADD DUP5 PUSH2 0x1E7 JUMP JUMPDEST SWAP3 SWAP2 POP POP JUMP JUMPDEST PUSH1 0x0 PUSH1 0x20 DUP3 ADD SWAP1 POP PUSH2 0x26B PUSH1 0x0 DUP4 ADD DUP5 PUSH2 0x1F6 JUMP JUMPDEST SWAP3 SWAP2 POP POP JUMP JUMPDEST PUSH1 0x0 PUSH2 0x27C DUP3 PUSH2 0x2A1 JUMP JUMPDEST SWAP1 POP SWAP2 SWAP1 POP JUMP JUMPDEST PUSH1 0x0 PUSH2 0x28E DUP3 PUSH2 0x2A1 JUMP JUMPDEST SWAP1 POP SWAP2 SWAP1 POP JUMP JUMPDEST PUSH1 0x0 DUP2 ISZERO ISZERO SWAP1 POP SWAP2 SWAP1 POP JUMP JUMPDEST PUSH1 0x0 PUSH20 0xFFFFFFFFFFFFFFFFFFFFFFFFFFFFFFFFFFFFFFFF DUP3 AND SWAP1 POP SWAP2 SWAP1 POP JUMP JUMPDEST PUSH1 0x0 DUP2 SWAP1 POP SWAP2 SWAP1 POP JUMP INVALID LOG2 PUSH5 0x6970667358 0x22 SLT KECCAK256 0xB4 ADDMOD SWAP11 0xBA PUSH30 0xA13F947C28414721897B7740F0C0C9796185D0975AD4A735C80D0764736F PUSH13 0x63430008000033000000000000 "
				},
				"gasEstimates": {
					"creation": {
						"codeDepositCost": "153800",
						"executionCost": "202",
						"totalCost": "154002"
					},
					"external": {
						"auctionEnd()": "1130",
						"auctionLength()": "1152",
						"entireVaultPrice()": "1173",
						"initializer()": "1243",
						"livePrice()": "1174",
						"router()": "1277",
						"winning()": "1214"
					}
				},
				"methodIdentifiers": {
					"auctionEnd()": "2a24f46c",
					"auctionLength()": "325c25a2",
					"entireVaultPrice()": "bbc90a92",
					"initializer()": "9ce110d7",
					"livePrice()": "6da84e6c",
					"router()": "f887ea40",
					"winning()": "853a1b90"
				}
			},
			"storageLayout": {
				"storage": [
					{
						"astId": 577,
						"contract": "contracts/Template/Istanbul10/data/AuctionData.sol:AuctionData",
						"label": "router",
						"offset": 0,
						"slot": "0",
						"type": "t_address"
					},
					{
						"astId": 580,
						"contract": "contracts/Template/Istanbul10/data/AuctionData.sol:AuctionData",
						"label": "initializer",
						"offset": 20,
						"slot": "0",
						"type": "t_bool"
					},
					{
						"astId": 583,
						"contract": "contracts/Template/Istanbul10/data/AuctionData.sol:AuctionData",
						"label": "entireVaultPrice",
						"offset": 0,
						"slot": "1",
						"type": "t_uint256"
					},
					{
						"astId": 586,
						"contract": "contracts/Template/Istanbul10/data/AuctionData.sol:AuctionData",
						"label": "auctionLength",
						"offset": 0,
						"slot": "2",
						"type": "t_uint256"
					},
					{
						"astId": 589,
						"contract": "contracts/Template/Istanbul10/data/AuctionData.sol:AuctionData",
						"label": "auctionEnd",
						"offset": 0,
						"slot": "3",
						"type": "t_uint256"
					},
					{
						"astId": 592,
						"contract": "contracts/Template/Istanbul10/data/AuctionData.sol:AuctionData",
						"label": "livePrice",
						"offset": 0,
						"slot": "4",
						"type": "t_uint256"
					},
					{
						"astId": 595,
						"contract": "contracts/Template/Istanbul10/data/AuctionData.sol:AuctionData",
						"label": "winning",
						"offset": 0,
						"slot": "5",
						"type": "t_address_payable"
					}
				],
				"types": {
					"t_address": {
						"encoding": "inplace",
						"label": "address",
						"numberOfBytes": "20"
					},
					"t_address_payable": {
						"encoding": "inplace",
						"label": "address payable",
						"numberOfBytes": "20"
					},
					"t_bool": {
						"encoding": "inplace",
						"label": "bool",
						"numberOfBytes": "1"
					},
					"t_uint256": {
						"encoding": "inplace",
						"label": "uint256",
						"numberOfBytes": "32"
					}
				}
			},
			"userdoc": {
				"kind": "user",
				"methods": {},
				"version": 1
			}
		}
	}
}