{
	"contracts/Template/Istanbul10/data/RouterData.sol": {
		"RouterData": {
			"abi": [
				{
					"inputs": [],
					"name": "Factory",
					"outputs": [
						{
							"internalType": "address",
							"name": "",
							"type": "address"
						}
					],
					"stateMutability": "view",
					"type": "function"
				},
				{
					"inputs": [],
					"name": "auction",
					"outputs": [
						{
							"internalType": "address",
							"name": "",
							"type": "address"
						}
					],
					"stateMutability": "view",
					"type": "function"
				},
				{
					"inputs": [],
					"name": "cashDivision",
					"outputs": [
						{
							"internalType": "uint256",
							"name": "",
							"type": "uint256"
						}
					],
					"stateMutability": "view",
					"type": "function"
				},
				{
					"inputs": [],
					"name": "cashVetoken",
					"outputs": [
						{
							"internalType": "uint256",
							"name": "",
							"type": "uint256"
						}
					],
					"stateMutability": "view",
					"type": "function"
				},
				{
					"inputs": [],
					"name": "curator",
					"outputs": [
						{
							"internalType": "address",
							"name": "",
							"type": "address"
						}
					],
					"stateMutability": "view",
					"type": "function"
				},
				{
					"inputs": [],
					"name": "fee",
					"outputs": [
						{
							"internalType": "uint256",
							"name": "",
							"type": "uint256"
						}
					],
					"stateMutability": "view",
					"type": "function"
				},
				{
					"inputs": [],
					"name": "initializer",
					"outputs": [
						{
							"internalType": "bool",
							"name": "",
							"type": "bool"
						}
					],
					"stateMutability": "view",
					"type": "function"
				},
				{
					"inputs": [],
					"name": "lastClaimed",
					"outputs": [
						{
							"internalType": "uint256",
							"name": "",
							"type": "uint256"
						}
					],
					"stateMutability": "view",
					"type": "function"
				},
				{
					"inputs": [],
					"name": "open",
					"outputs": [
						{
							"internalType": "bool",
							"name": "",
							"type": "bool"
						}
					],
					"stateMutability": "view",
					"type": "function"
				},
				{
					"inputs": [],
					"name": "reserveAmount",
					"outputs": [
						{
							"internalType": "uint256",
							"name": "",
							"type": "uint256"
						}
					],
					"stateMutability": "view",
					"type": "function"
				},
				{
					"inputs": [],
					"name": "reserveRatio",
					"outputs": [
						{
							"internalType": "uint256",
							"name": "",
							"type": "uint256"
						}
					],
					"stateMutability": "view",
					"type": "function"
				},
				{
					"inputs": [],
					"name": "settings",
					"outputs": [
						{
							"internalType": "address",
							"name": "",
							"type": "address"
						}
					],
					"stateMutability": "view",
					"type": "function"
				},
				{
					"inputs": [],
					"name": "supply",
					"outputs": [
						{
							"internalType": "uint256",
							"name": "",
							"type": "uint256"
						}
					],
					"stateMutability": "view",
					"type": "function"
				},
				{
					"inputs": [],
					"name": "vault",
					"outputs": [
						{
							"internalType": "address",
							"name": "",
							"type": "address"
						}
					],
					"stateMutability": "view",
					"type": "function"
				},
				{
					"inputs": [],
					"name": "veToken",
					"outputs": [
						{
							"internalType": "address",
							"name": "",
							"type": "address"
						}
					],
					"stateMutability": "view",
					"type": "function"
				},
				{
					"inputs": [],
					"name": "vote",
					"outputs": [
						{
							"internalType": "address",
							"name": "",
							"type": "address"
						}
					],
					"stateMutability": "view",
					"type": "function"
				},
				{
					"inputs": [
						{
							"internalType": "address",
							"name": "",
							"type": "address"
						}
					],
					"name": "whiteList",
					"outputs": [
						{
							"internalType": "bool",
							"name": "",
							"type": "bool"
						}
					],
					"stateMutability": "view",
					"type": "function"
				}
			],
			"devdoc": {
				"kind": "dev",
				"methods": {},
				"version": 1
			},
			"evm": {
				"assembly": "    /* \"contracts/Template/Istanbul10/data/RouterData.sol\":59:832  contract RouterData {\r... */\n  mstore(0x40, 0x80)\n  callvalue\n  dup1\n  iszero\n  tag_1\n  jumpi\n  0x00\n  dup1\n  revert\ntag_1:\n  pop\n  dataSize(sub_0)\n  dup1\n  dataOffset(sub_0)\n  0x00\n  codecopy\n  0x00\n  return\nstop\n\nsub_0: assembly {\n        /* \"contracts/Template/Istanbul10/data/RouterData.sol\":59:832  contract RouterData {\r... */\n      mstore(0x40, 0x80)\n      callvalue\n      dup1\n      iszero\n      tag_1\n      jumpi\n      0x00\n      dup1\n      revert\n    tag_1:\n      pop\n      jumpi(tag_2, lt(calldatasize, 0x04))\n      shr(0xe0, calldataload(0x00))\n      dup1\n      0x9ce110d7\n      gt\n      tag_20\n      jumpi\n      dup1\n      0xddca3f43\n      gt\n      tag_21\n      jumpi\n      dup1\n      0xddca3f43\n      eq\n      tag_15\n      jumpi\n      dup1\n      0xe06174e4\n      eq\n      tag_16\n      jumpi\n      dup1\n      0xe66f53b7\n      eq\n      tag_17\n      jumpi\n      dup1\n      0xfbfa77cf\n      eq\n      tag_18\n      jumpi\n      dup1\n      0xfcfff16f\n      eq\n      tag_19\n      jumpi\n      0x00\n      dup1\n      revert\n    tag_21:\n      dup1\n      0x9ce110d7\n      eq\n      tag_11\n      jumpi\n      dup1\n      0xa5360d04\n      eq\n      tag_12\n      jumpi\n      dup1\n      0xadc1b956\n      eq\n      tag_13\n      jumpi\n      dup1\n      0xc83dd231\n      eq\n      tag_14\n      jumpi\n      0x00\n      dup1\n      revert\n    tag_20:\n      dup1\n      0x3b92eb23\n      gt\n      tag_22\n      jumpi\n      dup1\n      0x3b92eb23\n      eq\n      tag_7\n      jumpi\n      dup1\n      0x4b09b72a\n      eq\n      tag_8\n      jumpi\n      dup1\n      0x632a9a52\n      eq\n      tag_9\n      jumpi\n      dup1\n      0x7d9f6db5\n      eq\n      tag_10\n      jumpi\n      0x00\n      dup1\n      revert\n    tag_22:\n      dup1\n      0x047fc9aa\n      eq\n      tag_3\n      jumpi\n      dup1\n      0x0c7d5cd8\n      eq\n      tag_4\n      jumpi\n      dup1\n      0x108adc7a\n      eq\n      tag_5\n      jumpi\n      dup1\n      0x372c12b1\n      eq\n      tag_6\n      jumpi\n    tag_2:\n      0x00\n      dup1\n      revert\n        /* \"contracts/Template/Istanbul10/data/RouterData.sol\":704:725  uint256 public supply */\n    tag_3:\n      tag_23\n      sload(0x0c)\n      dup2\n      jump\n    tag_23:\n      mload(0x40)\n        /* \"#utility.yul\":851:876   */\n      swap1\n      dup2\n      mstore\n        /* \"#utility.yul\":839:841   */\n      0x20\n        /* \"#utility.yul\":824:842   */\n      add\n        /* \"contracts/Template/Istanbul10/data/RouterData.sol\":704:725  uint256 public supply */\n    tag_25:\n      mload(0x40)\n      dup1\n      swap2\n      sub\n      swap1\n      return\n        /* \"contracts/Template/Istanbul10/data/RouterData.sol\":631:658  uint256 public reserveRatio */\n    tag_4:\n      tag_23\n      sload(0x0a)\n      dup2\n      jump\n        /* \"contracts/Template/Istanbul10/data/RouterData.sol\":798:824  uint256 public cashVetoken */\n    tag_5:\n      tag_23\n      sload(0x0f)\n      dup2\n      jump\n        /* \"contracts/Template/Istanbul10/data/RouterData.sol\":392:434  mapping (address => bool) public whiteList */\n    tag_6:\n      tag_33\n      tag_34\n      calldatasize\n      0x04\n      tag_35\n      jump\t// in\n    tag_34:\n      mstore(0x20, 0x06)\n      0x00\n      swap1\n      dup2\n      mstore\n      0x40\n      swap1\n      keccak256\n      sload\n      0xff\n      and\n      dup2\n      jump\n    tag_33:\n      mload(0x40)\n        /* \"#utility.yul\":678:692   */\n      swap1\n      iszero\n        /* \"#utility.yul\":671:693   */\n      iszero\n        /* \"#utility.yul\":653:694   */\n      dup2\n      mstore\n        /* \"#utility.yul\":641:643   */\n      0x20\n        /* \"#utility.yul\":626:644   */\n      add\n        /* \"contracts/Template/Istanbul10/data/RouterData.sol\":392:434  mapping (address => bool) public whiteList */\n      tag_25\n        /* \"#utility.yul\":608:700   */\n      jump\n        /* \"contracts/Template/Istanbul10/data/RouterData.sol\":207:229  address public veToken */\n    tag_7:\n      sload(0x02)\n      tag_39\n      swap1\n      sub(shl(0xa0, 0x01), 0x01)\n      and\n      dup2\n      jump\n    tag_39:\n      mload(0x40)\n      sub(shl(0xa0, 0x01), 0x01)\n        /* \"#utility.yul\":469:501   */\n      swap1\n      swap2\n      and\n        /* \"#utility.yul\":451:502   */\n      dup2\n      mstore\n        /* \"#utility.yul\":439:441   */\n      0x20\n        /* \"#utility.yul\":424:442   */\n      add\n        /* \"contracts/Template/Istanbul10/data/RouterData.sol\":207:229  address public veToken */\n      tag_25\n        /* \"#utility.yul\":406:508   */\n      jump\n        /* \"contracts/Template/Istanbul10/data/RouterData.sol\":667:695  uint256 public reserveAmount */\n    tag_8:\n      tag_23\n      sload(0x0b)\n      dup2\n      jump\n        /* \"contracts/Template/Istanbul10/data/RouterData.sol\":273:292  address public vote */\n    tag_9:\n      sload(0x04)\n      tag_39\n      swap1\n      sub(shl(0xa0, 0x01), 0x01)\n      and\n      dup2\n      jump\n        /* \"contracts/Template/Istanbul10/data/RouterData.sol\":238:260  address public auction */\n    tag_10:\n      sload(0x03)\n      tag_39\n      swap1\n      sub(shl(0xa0, 0x01), 0x01)\n      and\n      dup2\n      jump\n        /* \"contracts/Template/Istanbul10/data/RouterData.sol\":447:470  bool public initializer */\n    tag_11:\n      sload(0x07)\n      tag_33\n      swap1\n      0xff\n      and\n      dup2\n      jump\n        /* \"contracts/Template/Istanbul10/data/RouterData.sol\":762:789  uint256 public cashDivision */\n    tag_12:\n      tag_23\n      sload(0x0e)\n      dup2\n      jump\n        /* \"contracts/Template/Istanbul10/data/RouterData.sol\":564:590  uint256 public lastClaimed */\n    tag_13:\n      tag_23\n      sload(0x08)\n      dup2\n      jump\n        /* \"contracts/Template/Istanbul10/data/RouterData.sol\":147:169  address public Factory */\n    tag_14:\n      sload(0x00)\n      tag_39\n      swap1\n      sub(shl(0xa0, 0x01), 0x01)\n      and\n      dup2\n      jump\n        /* \"contracts/Template/Istanbul10/data/RouterData.sol\":735:753  uint256 public fee */\n    tag_15:\n      tag_23\n      sload(0x0d)\n      dup2\n      jump\n        /* \"contracts/Template/Istanbul10/data/RouterData.sol\":599:622  address public settings */\n    tag_16:\n      sload(0x09)\n      tag_39\n      swap1\n      sub(shl(0xa0, 0x01), 0x01)\n      and\n      dup2\n      jump\n        /* \"contracts/Template/Istanbul10/data/RouterData.sol\":301:323  address public curator */\n    tag_17:\n      sload(0x05)\n      tag_39\n      swap1\n      sub(shl(0xa0, 0x01), 0x01)\n      and\n      dup2\n      jump\n        /* \"contracts/Template/Istanbul10/data/RouterData.sol\":178:198  address public vault */\n    tag_18:\n      sload(0x01)\n      tag_39\n      swap1\n      sub(shl(0xa0, 0x01), 0x01)\n      and\n      dup2\n      jump\n        /* \"contracts/Template/Istanbul10/data/RouterData.sol\":479:495  bool public open */\n    tag_19:\n      sload(0x07)\n      tag_33\n      swap1\n      0x0100\n      swap1\n      div\n      0xff\n      and\n      dup2\n      jump\n        /* \"#utility.yul\":14:300   */\n    tag_35:\n        /* \"#utility.yul\":73:79   */\n      0x00\n        /* \"#utility.yul\":126:128   */\n      0x20\n        /* \"#utility.yul\":114:123   */\n      dup3\n        /* \"#utility.yul\":105:112   */\n      dup5\n        /* \"#utility.yul\":101:124   */\n      sub\n        /* \"#utility.yul\":97:129   */\n      slt\n        /* \"#utility.yul\":94:96   */\n      iszero\n      tag_81\n      jumpi\n        /* \"#utility.yul\":142:143   */\n      0x00\n        /* \"#utility.yul\":139:140   */\n      dup1\n        /* \"#utility.yul\":132:144   */\n      revert\n        /* \"#utility.yul\":94:96   */\n    tag_81:\n        /* \"#utility.yul\":168:191   */\n      dup2\n      calldataload\n      sub(shl(0xa0, 0x01), 0x01)\n        /* \"#utility.yul\":220:251   */\n      dup2\n      and\n        /* \"#utility.yul\":210:252   */\n      dup2\n      eq\n        /* \"#utility.yul\":200:202   */\n      tag_82\n      jumpi\n        /* \"#utility.yul\":266:267   */\n      0x00\n        /* \"#utility.yul\":263:264   */\n      dup1\n        /* \"#utility.yul\":256:268   */\n      revert\n        /* \"#utility.yul\":200:202   */\n    tag_82:\n        /* \"#utility.yul\":289:294   */\n      swap4\n        /* \"#utility.yul\":84:300   */\n      swap3\n      pop\n      pop\n      pop\n      jump\t// out\n\n    auxdata: 0xa2646970667358221220a8ff7487f2f3ca4b19c1c148e83327e5d941b2ba2cae0acbaff515c8b8dea14d64736f6c63430008050033\n}\n",
				"bytecode": {
					"linkReferences": {},
					"object": "608060405234801561001057600080fd5b506102b7806100206000396000f3fe608060405234801561001057600080fd5b506004361061010b5760003560e01c80639ce110d7116100a2578063ddca3f4311610071578063ddca3f43146101fd578063e06174e414610206578063e66f53b714610219578063fbfa77cf1461022c578063fcfff16f1461023f57600080fd5b80639ce110d7146101cb578063a5360d04146101d8578063adc1b956146101e1578063c83dd231146101ea57600080fd5b80633b92eb23116100de5780633b92eb23146101715780634b09b72a1461019c578063632a9a52146101a55780637d9f6db5146101b857600080fd5b8063047fc9aa146101105780630c7d5cd81461012c578063108adc7a14610135578063372c12b11461013e575b600080fd5b610119600c5481565b6040519081526020015b60405180910390f35b610119600a5481565b610119600f5481565b61016161014c366004610251565b60066020526000908152604090205460ff1681565b6040519015158152602001610123565b600254610184906001600160a01b031681565b6040516001600160a01b039091168152602001610123565b610119600b5481565b600454610184906001600160a01b031681565b600354610184906001600160a01b031681565b6007546101619060ff1681565b610119600e5481565b61011960085481565b600054610184906001600160a01b031681565b610119600d5481565b600954610184906001600160a01b031681565b600554610184906001600160a01b031681565b600154610184906001600160a01b031681565b60075461016190610100900460ff1681565b60006020828403121561026357600080fd5b81356001600160a01b038116811461027a57600080fd5b939250505056fea2646970667358221220a8ff7487f2f3ca4b19c1c148e83327e5d941b2ba2cae0acbaff515c8b8dea14d64736f6c63430008050033",
					"opcodes": "PUSH1 0x80 PUSH1 0x40 MSTORE CALLVALUE DUP1 ISZERO PUSH2 0x10 JUMPI PUSH1 0x0 DUP1 REVERT JUMPDEST POP PUSH2 0x2B7 DUP1 PUSH2 0x20 PUSH1 0x0 CODECOPY PUSH1 0x0 RETURN INVALID PUSH1 0x80 PUSH1 0x40 MSTORE CALLVALUE DUP1 ISZERO PUSH2 0x10 JUMPI PUSH1 0x0 DUP1 REVERT JUMPDEST POP PUSH1 0x4 CALLDATASIZE LT PUSH2 0x10B JUMPI PUSH1 0x0 CALLDATALOAD PUSH1 0xE0 SHR DUP1 PUSH4 0x9CE110D7 GT PUSH2 0xA2 JUMPI DUP1 PUSH4 0xDDCA3F43 GT PUSH2 0x71 JUMPI DUP1 PUSH4 0xDDCA3F43 EQ PUSH2 0x1FD JUMPI DUP1 PUSH4 0xE06174E4 EQ PUSH2 0x206 JUMPI DUP1 PUSH4 0xE66F53B7 EQ PUSH2 0x219 JUMPI DUP1 PUSH4 0xFBFA77CF EQ PUSH2 0x22C JUMPI DUP1 PUSH4 0xFCFFF16F EQ PUSH2 0x23F JUMPI PUSH1 0x0 DUP1 REVERT JUMPDEST DUP1 PUSH4 0x9CE110D7 EQ PUSH2 0x1CB JUMPI DUP1 PUSH4 0xA5360D04 EQ PUSH2 0x1D8 JUMPI DUP1 PUSH4 0xADC1B956 EQ PUSH2 0x1E1 JUMPI DUP1 PUSH4 0xC83DD231 EQ PUSH2 0x1EA JUMPI PUSH1 0x0 DUP1 REVERT JUMPDEST DUP1 PUSH4 0x3B92EB23 GT PUSH2 0xDE JUMPI DUP1 PUSH4 0x3B92EB23 EQ PUSH2 0x171 JUMPI DUP1 PUSH4 0x4B09B72A EQ PUSH2 0x19C JUMPI DUP1 PUSH4 0x632A9A52 EQ PUSH2 0x1A5 JUMPI DUP1 PUSH4 0x7D9F6DB5 EQ PUSH2 0x1B8 JUMPI PUSH1 0x0 DUP1 REVERT JUMPDEST DUP1 PUSH4 0x47FC9AA EQ PUSH2 0x110 JUMPI DUP1 PUSH4 0xC7D5CD8 EQ PUSH2 0x12C JUMPI DUP1 PUSH4 0x108ADC7A EQ PUSH2 0x135 JUMPI DUP1 PUSH4 0x372C12B1 EQ PUSH2 0x13E JUMPI JUMPDEST PUSH1 0x0 DUP1 REVERT JUMPDEST PUSH2 0x119 PUSH1 0xC SLOAD DUP2 JUMP JUMPDEST PUSH1 0x40 MLOAD SWAP1 DUP2 MSTORE PUSH1 0x20 ADD JUMPDEST PUSH1 0x40 MLOAD DUP1 SWAP2 SUB SWAP1 RETURN JUMPDEST PUSH2 0x119 PUSH1 0xA SLOAD DUP2 JUMP JUMPDEST PUSH2 0x119 PUSH1 0xF SLOAD DUP2 JUMP JUMPDEST PUSH2 0x161 PUSH2 0x14C CALLDATASIZE PUSH1 0x4 PUSH2 0x251 JUMP JUMPDEST PUSH1 0x6 PUSH1 0x20 MSTORE PUSH1 0x0 SWAP1 DUP2 MSTORE PUSH1 0x40 SWAP1 KECCAK256 SLOAD PUSH1 0xFF AND DUP2 JUMP JUMPDEST PUSH1 0x40 MLOAD SWAP1 ISZERO ISZERO DUP2 MSTORE PUSH1 0x20 ADD PUSH2 0x123 JUMP JUMPDEST PUSH1 0x2 SLOAD PUSH2 0x184 SWAP1 PUSH1 0x1 PUSH1 0x1 PUSH1 0xA0 SHL SUB AND DUP2 JUMP JUMPDEST PUSH1 0x40 MLOAD PUSH1 0x1 PUSH1 0x1 PUSH1 0xA0 SHL SUB SWAP1 SWAP2 AND DUP2 MSTORE PUSH1 0x20 ADD PUSH2 0x123 JUMP JUMPDEST PUSH2 0x119 PUSH1 0xB SLOAD DUP2 JUMP JUMPDEST PUSH1 0x4 SLOAD PUSH2 0x184 SWAP1 PUSH1 0x1 PUSH1 0x1 PUSH1 0xA0 SHL SUB AND DUP2 JUMP JUMPDEST PUSH1 0x3 SLOAD PUSH2 0x184 SWAP1 PUSH1 0x1 PUSH1 0x1 PUSH1 0xA0 SHL SUB AND DUP2 JUMP JUMPDEST PUSH1 0x7 SLOAD PUSH2 0x161 SWAP1 PUSH1 0xFF AND DUP2 JUMP JUMPDEST PUSH2 0x119 PUSH1 0xE SLOAD DUP2 JUMP JUMPDEST PUSH2 0x119 PUSH1 0x8 SLOAD DUP2 JUMP JUMPDEST PUSH1 0x0 SLOAD PUSH2 0x184 SWAP1 PUSH1 0x1 PUSH1 0x1 PUSH1 0xA0 SHL SUB AND DUP2 JUMP JUMPDEST PUSH2 0x119 PUSH1 0xD SLOAD DUP2 JUMP JUMPDEST PUSH1 0x9 SLOAD PUSH2 0x184 SWAP1 PUSH1 0x1 PUSH1 0x1 PUSH1 0xA0 SHL SUB AND DUP2 JUMP JUMPDEST PUSH1 0x5 SLOAD PUSH2 0x184 SWAP1 PUSH1 0x1 PUSH1 0x1 PUSH1 0xA0 SHL SUB AND DUP2 JUMP JUMPDEST PUSH1 0x1 SLOAD PUSH2 0x184 SWAP1 PUSH1 0x1 PUSH1 0x1 PUSH1 0xA0 SHL SUB AND DUP2 JUMP JUMPDEST PUSH1 0x7 SLOAD PUSH2 0x161 SWAP1 PUSH2 0x100 SWAP1 DIV PUSH1 0xFF AND DUP2 JUMP JUMPDEST PUSH1 0x0 PUSH1 0x20 DUP3 DUP5 SUB SLT ISZERO PUSH2 0x263 JUMPI PUSH1 0x0 DUP1 REVERT JUMPDEST DUP2 CALLDATALOAD PUSH1 0x1 PUSH1 0x1 PUSH1 0xA0 SHL SUB DUP2 AND DUP2 EQ PUSH2 0x27A JUMPI PUSH1 0x0 DUP1 REVERT JUMPDEST SWAP4 SWAP3 POP POP POP JUMP INVALID LOG2 PUSH5 0x6970667358 0x22 SLT KECCAK256 0xA8 SELFDESTRUCT PUSH21 0x87F2F3CA4B19C1C148E83327E5D941B2BA2CAE0ACB 0xAF CREATE2 ISZERO 0xC8 0xB8 0xDE LOG1 0x4D PUSH5 0x736F6C6343 STOP ADDMOD SDIV STOP CALLER "
				},
				"gasEstimates": {
					"creation": {
						"codeDepositCost": "139000",
						"executionCost": "183",
						"totalCost": "139183"
					},
					"external": {
						"Factory()": "2426",
						"auction()": "2426",
						"cashDivision()": "2329",
						"cashVetoken()": "2352",
						"curator()": "2403",
						"fee()": "2306",
						"initializer()": "2333",
						"lastClaimed()": "2351",
						"open()": "2431",
						"reserveAmount()": "2329",
						"reserveRatio()": "2330",
						"settings()": "2381",
						"supply()": "2308",
						"vault()": "2425",
						"veToken()": "2360",
						"vote()": "2404",
						"whiteList(address)": "2586"
					}
				},
				"methodIdentifiers": {
					"Factory()": "c83dd231",
					"auction()": "7d9f6db5",
					"cashDivision()": "a5360d04",
					"cashVetoken()": "108adc7a",
					"curator()": "e66f53b7",
					"fee()": "ddca3f43",
					"initializer()": "9ce110d7",
					"lastClaimed()": "adc1b956",
					"open()": "fcfff16f",
					"reserveAmount()": "4b09b72a",
					"reserveRatio()": "0c7d5cd8",
					"settings()": "e06174e4",
					"supply()": "047fc9aa",
					"vault()": "fbfa77cf",
					"veToken()": "3b92eb23",
					"vote()": "632a9a52",
					"whiteList(address)": "372c12b1"
				}
			},
			"storageLayout": {
				"storage": [
					{
						"astId": 437,
						"contract": "contracts/Template/Istanbul10/data/RouterData.sol:RouterData",
						"label": "Factory",
						"offset": 0,
						"slot": "0",
						"type": "t_address"
					},
					{
						"astId": 439,
						"contract": "contracts/Template/Istanbul10/data/RouterData.sol:RouterData",
						"label": "vault",
						"offset": 0,
						"slot": "1",
						"type": "t_address"
					},
					{
						"astId": 441,
						"contract": "contracts/Template/Istanbul10/data/RouterData.sol:RouterData",
						"label": "veToken",
						"offset": 0,
						"slot": "2",
						"type": "t_address"
					},
					{
						"astId": 443,
						"contract": "contracts/Template/Istanbul10/data/RouterData.sol:RouterData",
						"label": "auction",
						"offset": 0,
						"slot": "3",
						"type": "t_address"
					},
					{
						"astId": 445,
						"contract": "contracts/Template/Istanbul10/data/RouterData.sol:RouterData",
						"label": "vote",
						"offset": 0,
						"slot": "4",
						"type": "t_address"
					},
					{
						"astId": 447,
						"contract": "contracts/Template/Istanbul10/data/RouterData.sol:RouterData",
						"label": "curator",
						"offset": 0,
						"slot": "5",
						"type": "t_address"
					},
					{
						"astId": 451,
						"contract": "contracts/Template/Istanbul10/data/RouterData.sol:RouterData",
						"label": "whiteList",
						"offset": 0,
						"slot": "6",
						"type": "t_mapping(t_address,t_bool)"
					},
					{
						"astId": 453,
						"contract": "contracts/Template/Istanbul10/data/RouterData.sol:RouterData",
						"label": "initializer",
						"offset": 0,
						"slot": "7",
						"type": "t_bool"
					},
					{
						"astId": 455,
						"contract": "contracts/Template/Istanbul10/data/RouterData.sol:RouterData",
						"label": "open",
						"offset": 1,
						"slot": "7",
						"type": "t_bool"
					},
					{
						"astId": 457,
						"contract": "contracts/Template/Istanbul10/data/RouterData.sol:RouterData",
						"label": "lastClaimed",
						"offset": 0,
						"slot": "8",
						"type": "t_uint256"
					},
					{
						"astId": 459,
						"contract": "contracts/Template/Istanbul10/data/RouterData.sol:RouterData",
						"label": "settings",
						"offset": 0,
						"slot": "9",
						"type": "t_address"
					},
					{
						"astId": 461,
						"contract": "contracts/Template/Istanbul10/data/RouterData.sol:RouterData",
						"label": "reserveRatio",
						"offset": 0,
						"slot": "10",
						"type": "t_uint256"
					},
					{
						"astId": 463,
						"contract": "contracts/Template/Istanbul10/data/RouterData.sol:RouterData",
						"label": "reserveAmount",
						"offset": 0,
						"slot": "11",
						"type": "t_uint256"
					},
					{
						"astId": 465,
						"contract": "contracts/Template/Istanbul10/data/RouterData.sol:RouterData",
						"label": "supply",
						"offset": 0,
						"slot": "12",
						"type": "t_uint256"
					},
					{
						"astId": 467,
						"contract": "contracts/Template/Istanbul10/data/RouterData.sol:RouterData",
						"label": "fee",
						"offset": 0,
						"slot": "13",
						"type": "t_uint256"
					},
					{
						"astId": 469,
						"contract": "contracts/Template/Istanbul10/data/RouterData.sol:RouterData",
						"label": "cashDivision",
						"offset": 0,
						"slot": "14",
						"type": "t_uint256"
					},
					{
						"astId": 471,
						"contract": "contracts/Template/Istanbul10/data/RouterData.sol:RouterData",
						"label": "cashVetoken",
						"offset": 0,
						"slot": "15",
						"type": "t_uint256"
					}
				],
				"types": {
					"t_address": {
						"encoding": "inplace",
						"label": "address",
						"numberOfBytes": "20"
					},
					"t_bool": {
						"encoding": "inplace",
						"label": "bool",
						"numberOfBytes": "1"
					},
					"t_mapping(t_address,t_bool)": {
						"encoding": "mapping",
						"key": "t_address",
						"label": "mapping(address => bool)",
						"numberOfBytes": "32",
						"value": "t_bool"
					},
					"t_uint256": {
						"encoding": "inplace",
						"label": "uint256",
						"numberOfBytes": "32"
					}
				}
			},
			"userdoc": {
				"kind": "user",
				"methods": {},
				"version": 1
			}
		}
	}
}