{
	"contracts/Template/Istanbul10/logic/Router.sol": {
		"Router": {
			"abi": [
				{
					"inputs": [
						{
							"internalType": "address",
							"name": "_veTokenTemplate",
							"type": "address"
						},
						{
							"internalType": "address",
							"name": "_vaultTemplate",
							"type": "address"
						},
						{
							"internalType": "address",
							"name": "_auctionTemplate",
							"type": "address"
						},
						{
							"internalType": "address",
							"name": "_voteTemplate",
							"type": "address"
						}
					],
					"stateMutability": "nonpayable",
					"type": "constructor"
				},
				{
					"anonymous": false,
					"inputs": [
						{
							"indexed": true,
							"internalType": "address",
							"name": "owner",
							"type": "address"
						},
						{
							"indexed": false,
							"internalType": "uint256",
							"name": "shares",
							"type": "uint256"
						}
					],
					"name": "Cash",
					"type": "event"
				},
				{
					"anonymous": false,
					"inputs": [
						{
							"indexed": false,
							"internalType": "address[]",
							"name": "_nft",
							"type": "address[]"
						},
						{
							"indexed": false,
							"internalType": "uint256[]",
							"name": "_nftId",
							"type": "uint256[]"
						},
						{
							"indexed": false,
							"internalType": "uint256[]",
							"name": "_amount",
							"type": "uint256[]"
						}
					],
					"name": "CuratorDeposit",
					"type": "event"
				},
				{
					"anonymous": false,
					"inputs": [
						{
							"indexed": false,
							"internalType": "address",
							"name": "curator",
							"type": "address"
						},
						{
							"indexed": false,
							"internalType": "address",
							"name": "vault",
							"type": "address"
						}
					],
					"name": "Initialize",
					"type": "event"
				},
				{
					"anonymous": false,
					"inputs": [
						{
							"indexed": false,
							"internalType": "uint256",
							"name": "_supply",
							"type": "uint256"
						},
						{
							"indexed": false,
							"internalType": "uint256",
							"name": "_reserveRatio",
							"type": "uint256"
						},
						{
							"indexed": false,
							"internalType": "uint256",
							"name": "_EntireVaultPrice",
							"type": "uint256"
						},
						{
							"indexed": false,
							"internalType": "address",
							"name": "_vetoken",
							"type": "address"
						},
						{
							"indexed": false,
							"internalType": "address",
							"name": "_auction",
							"type": "address"
						},
						{
							"indexed": false,
							"internalType": "address",
							"name": "_vote",
							"type": "address"
						}
					],
					"name": "Issue",
					"type": "event"
				},
				{
					"inputs": [],
					"name": "Factory",
					"outputs": [
						{
							"internalType": "address",
							"name": "",
							"type": "address"
						}
					],
					"stateMutability": "view",
					"type": "function"
				},
				{
					"inputs": [],
					"name": "auction",
					"outputs": [
						{
							"internalType": "address",
							"name": "",
							"type": "address"
						}
					],
					"stateMutability": "view",
					"type": "function"
				},
				{
					"inputs": [],
					"name": "auctionTemplate",
					"outputs": [
						{
							"internalType": "address",
							"name": "",
							"type": "address"
						}
					],
					"stateMutability": "view",
					"type": "function"
				},
				{
					"inputs": [],
					"name": "cashDivision",
					"outputs": [
						{
							"internalType": "uint256",
							"name": "",
							"type": "uint256"
						}
					],
					"stateMutability": "view",
					"type": "function"
				},
				{
					"inputs": [],
					"name": "cashVetoken",
					"outputs": [
						{
							"internalType": "uint256",
							"name": "",
							"type": "uint256"
						}
					],
					"stateMutability": "view",
					"type": "function"
				},
				{
					"inputs": [],
					"name": "claimFees",
					"outputs": [],
					"stateMutability": "nonpayable",
					"type": "function"
				},
				{
					"inputs": [],
					"name": "curator",
					"outputs": [
						{
							"internalType": "address",
							"name": "",
							"type": "address"
						}
					],
					"stateMutability": "view",
					"type": "function"
				},
				{
					"inputs": [
						{
							"internalType": "address[]",
							"name": "_nft",
							"type": "address[]"
						},
						{
							"internalType": "uint256[]",
							"name": "_nftId",
							"type": "uint256[]"
						},
						{
							"internalType": "uint256[]",
							"name": "_amount",
							"type": "uint256[]"
						}
					],
					"name": "curatorDeposit",
					"outputs": [],
					"stateMutability": "nonpayable",
					"type": "function"
				},
				{
					"inputs": [],
					"name": "fee",
					"outputs": [
						{
							"internalType": "uint256",
							"name": "",
							"type": "uint256"
						}
					],
					"stateMutability": "view",
					"type": "function"
				},
				{
					"inputs": [
						{
							"internalType": "address",
							"name": "_curator",
							"type": "address"
						},
						{
							"internalType": "address",
							"name": "_settings",
							"type": "address"
						},
						{
							"internalType": "string",
							"name": "_name",
							"type": "string"
						},
						{
							"internalType": "string",
							"name": "_symbol",
							"type": "string"
						}
					],
					"name": "initialize",
					"outputs": [],
					"stateMutability": "nonpayable",
					"type": "function"
				},
				{
					"inputs": [],
					"name": "initializer",
					"outputs": [
						{
							"internalType": "bool",
							"name": "",
							"type": "bool"
						}
					],
					"stateMutability": "view",
					"type": "function"
				},
				{
					"inputs": [
						{
							"internalType": "uint256",
							"name": "_supply",
							"type": "uint256"
						},
						{
							"internalType": "uint256",
							"name": "_reserveRatio",
							"type": "uint256"
						},
						{
							"internalType": "uint256",
							"name": "_EntireVaultPrice",
							"type": "uint256"
						}
					],
					"name": "issue",
					"outputs": [],
					"stateMutability": "nonpayable",
					"type": "function"
				},
				{
					"inputs": [],
					"name": "lastClaimed",
					"outputs": [
						{
							"internalType": "uint256",
							"name": "",
							"type": "uint256"
						}
					],
					"stateMutability": "view",
					"type": "function"
				},
				{
					"inputs": [
						{
							"internalType": "uint256",
							"name": "_supply",
							"type": "uint256"
						},
						{
							"internalType": "address",
							"name": "_mintTo",
							"type": "address"
						}
					],
					"name": "mintToScale",
					"outputs": [],
					"stateMutability": "nonpayable",
					"type": "function"
				},
				{
					"inputs": [],
					"name": "name",
					"outputs": [
						{
							"internalType": "string",
							"name": "",
							"type": "string"
						}
					],
					"stateMutability": "view",
					"type": "function"
				},
				{
					"inputs": [],
					"name": "open",
					"outputs": [
						{
							"internalType": "bool",
							"name": "",
							"type": "bool"
						}
					],
					"stateMutability": "view",
					"type": "function"
				},
				{
					"inputs": [],
					"name": "reserveAmount",
					"outputs": [
						{
							"internalType": "uint256",
							"name": "",
							"type": "uint256"
						}
					],
					"stateMutability": "view",
					"type": "function"
				},
				{
					"inputs": [],
					"name": "reserveRatio",
					"outputs": [
						{
							"internalType": "uint256",
							"name": "",
							"type": "uint256"
						}
					],
					"stateMutability": "view",
					"type": "function"
				},
				{
					"inputs": [],
					"name": "settings",
					"outputs": [
						{
							"internalType": "address",
							"name": "",
							"type": "address"
						}
					],
					"stateMutability": "view",
					"type": "function"
				},
				{
					"inputs": [],
					"name": "supply",
					"outputs": [
						{
							"internalType": "uint256",
							"name": "",
							"type": "uint256"
						}
					],
					"stateMutability": "view",
					"type": "function"
				},
				{
					"inputs": [
						{
							"internalType": "address",
							"name": "_updataTemplate",
							"type": "address"
						}
					],
					"name": "updateRouter",
					"outputs": [],
					"stateMutability": "nonpayable",
					"type": "function"
				},
				{
					"inputs": [],
					"name": "vault",
					"outputs": [
						{
							"internalType": "address",
							"name": "",
							"type": "address"
						}
					],
					"stateMutability": "view",
					"type": "function"
				},
				{
					"inputs": [],
					"name": "vaultTemplate",
					"outputs": [
						{
							"internalType": "address",
							"name": "",
							"type": "address"
						}
					],
					"stateMutability": "view",
					"type": "function"
				},
				{
					"inputs": [],
					"name": "veToken",
					"outputs": [
						{
							"internalType": "address",
							"name": "",
							"type": "address"
						}
					],
					"stateMutability": "view",
					"type": "function"
				},
				{
					"inputs": [],
					"name": "veTokenTemplate",
					"outputs": [
						{
							"internalType": "address",
							"name": "",
							"type": "address"
						}
					],
					"stateMutability": "view",
					"type": "function"
				},
				{
					"inputs": [],
					"name": "versions",
					"outputs": [
						{
							"internalType": "uint16",
							"name": "",
							"type": "uint16"
						}
					],
					"stateMutability": "view",
					"type": "function"
				},
				{
					"inputs": [],
					"name": "vote",
					"outputs": [
						{
							"internalType": "address",
							"name": "",
							"type": "address"
						}
					],
					"stateMutability": "view",
					"type": "function"
				},
				{
					"inputs": [],
					"name": "voteTemplate",
					"outputs": [
						{
							"internalType": "address",
							"name": "",
							"type": "address"
						}
					],
					"stateMutability": "view",
					"type": "function"
				},
				{
					"inputs": [
						{
							"internalType": "address",
							"name": "",
							"type": "address"
						}
					],
					"name": "whiteList",
					"outputs": [
						{
							"internalType": "bool",
							"name": "",
							"type": "bool"
						}
					],
					"stateMutability": "view",
					"type": "function"
				}
			],
			"devdoc": {
				"kind": "dev",
				"methods": {},
				"version": 1
			},
			"evm": {
				"assembly": "    /* \"contracts/Template/Istanbul10/logic/Router.sol\":403:7841  contract Router is RouterData{\r... */\n  mstore(0x40, 0x0100)\n    /* \"contracts/Template/Istanbul10/logic/Router.sol\":1249:1545  constructor(address _veTokenTemplate , address _vaultTemplate , address _auctionTemplate , address _voteTemplate) { \r... */\n  callvalue\n  dup1\n  iszero\n  tag_1\n  jumpi\n  0x00\n  dup1\n  revert\ntag_1:\n  pop\n  mload(0x40)\n  sub(codesize, bytecodeSize)\n  dup1\n  bytecodeSize\n  dup4\n  codecopy\n  dup2\n  add\n  0x40\n  dup2\n  swap1\n  mstore\n  tag_2\n  swap2\n  tag_3\n  jump\t// in\ntag_2:\n  not(sub(shl(0x60, 0x01), 0x01))\n    /* \"contracts/Template/Istanbul10/logic/Router.sol\":1375:1409  veTokenTemplate = _veTokenTemplate */\n  0x60\n  swap5\n  dup6\n  shl\n  dup2\n  and\n  0x80\n  mstore\n    /* \"contracts/Template/Istanbul10/logic/Router.sol\":1421:1451  vaultTemplate = _vaultTemplate */\n  swap3\n  dup5\n  shl\n  dup4\n  and\n  0xa0\n  mstore\n    /* \"contracts/Template/Istanbul10/logic/Router.sol\":1462:1496  auctionTemplate = _auctionTemplate */\n  swap1\n  dup4\n  shl\n  dup3\n  and\n  0xc0\n  mstore\n    /* \"contracts/Template/Istanbul10/logic/Router.sol\":1507:1535  voteTemplate = _voteTemplate */\n  swap1\n  swap2\n  shl\n  and\n  0xe0\n  mstore\n    /* \"contracts/Template/Istanbul10/logic/Router.sol\":403:7841  contract Router is RouterData{\r... */\n  jump(tag_7)\n    /* \"#utility.yul\":14:191   */\ntag_8:\n    /* \"#utility.yul\":93:106   */\n  dup1\n  mload\n  sub(shl(0xa0, 0x01), 0x01)\n    /* \"#utility.yul\":135:166   */\n  dup2\n  and\n    /* \"#utility.yul\":125:167   */\n  dup2\n  eq\n    /* \"#utility.yul\":115:117   */\n  tag_10\n  jumpi\n    /* \"#utility.yul\":181:182   */\n  0x00\n    /* \"#utility.yul\":178:179   */\n  dup1\n    /* \"#utility.yul\":171:183   */\n  revert\n    /* \"#utility.yul\":115:117   */\ntag_10:\n    /* \"#utility.yul\":74:191   */\n  swap2\n  swap1\n  pop\n  jump\t// out\n    /* \"#utility.yul\":196:660   */\ntag_3:\n    /* \"#utility.yul\":293:299   */\n  0x00\n    /* \"#utility.yul\":301:307   */\n  dup1\n    /* \"#utility.yul\":309:315   */\n  0x00\n    /* \"#utility.yul\":317:323   */\n  dup1\n    /* \"#utility.yul\":370:373   */\n  0x80\n    /* \"#utility.yul\":358:367   */\n  dup6\n    /* \"#utility.yul\":349:356   */\n  dup8\n    /* \"#utility.yul\":345:368   */\n  sub\n    /* \"#utility.yul\":341:374   */\n  slt\n    /* \"#utility.yul\":338:340   */\n  iszero\n  tag_12\n  jumpi\n    /* \"#utility.yul\":387:388   */\n  0x00\n    /* \"#utility.yul\":384:385   */\n  dup1\n    /* \"#utility.yul\":377:389   */\n  revert\n    /* \"#utility.yul\":338:340   */\ntag_12:\n    /* \"#utility.yul\":410:450   */\n  tag_13\n    /* \"#utility.yul\":440:449   */\n  dup6\n    /* \"#utility.yul\":410:450   */\n  tag_8\n  jump\t// in\ntag_13:\n    /* \"#utility.yul\":400:450   */\n  swap4\n  pop\n    /* \"#utility.yul\":469:518   */\n  tag_14\n    /* \"#utility.yul\":514:516   */\n  0x20\n    /* \"#utility.yul\":503:512   */\n  dup7\n    /* \"#utility.yul\":499:517   */\n  add\n    /* \"#utility.yul\":469:518   */\n  tag_8\n  jump\t// in\ntag_14:\n    /* \"#utility.yul\":459:518   */\n  swap3\n  pop\n    /* \"#utility.yul\":537:586   */\n  tag_15\n    /* \"#utility.yul\":582:584   */\n  0x40\n    /* \"#utility.yul\":571:580   */\n  dup7\n    /* \"#utility.yul\":567:585   */\n  add\n    /* \"#utility.yul\":537:586   */\n  tag_8\n  jump\t// in\ntag_15:\n    /* \"#utility.yul\":527:586   */\n  swap2\n  pop\n    /* \"#utility.yul\":605:654   */\n  tag_16\n    /* \"#utility.yul\":650:652   */\n  0x60\n    /* \"#utility.yul\":639:648   */\n  dup7\n    /* \"#utility.yul\":635:653   */\n  add\n    /* \"#utility.yul\":605:654   */\n  tag_8\n  jump\t// in\ntag_16:\n    /* \"#utility.yul\":595:654   */\n  swap1\n  pop\n    /* \"#utility.yul\":328:660   */\n  swap3\n  swap6\n  swap2\n  swap5\n  pop\n  swap3\n  pop\n  jump\t// out\ntag_7:\n    /* \"contracts/Template/Istanbul10/logic/Router.sol\":403:7841  contract Router is RouterData{\r... */\n  shr(0x60, mload(0x80))\n  shr(0x60, mload(0xa0))\n  shr(0x60, mload(0xc0))\n  shr(0x60, mload(0xe0))\n  codecopy(0x00, dataOffset(sub_0), dataSize(sub_0))\n  0x00\n  assignImmutable(\"0xdb072343100f296808a89800074fd25b631d8ed87ec8840b6f4e49399eea800f\")\n  0x00\n  assignImmutable(\"0x70f4a78a48f42acbe9d9cf154241836129f76f9f27af3a0407fc31364d9175fb\")\n  0x00\n  assignImmutable(\"0xa22c77fde226c01897a2fe21dd32df8d23478da0d66d0b2201f2b7d428b73cc4\")\n  0x00\n  assignImmutable(\"0x7ce5bcbaa570e6c26aabc2e17cbdf41b64b52824b9d0da4a1a221d2c48e00972\")\n  return(0x00, dataSize(sub_0))\nstop\n\nsub_0: assembly {\n        /* \"contracts/Template/Istanbul10/logic/Router.sol\":403:7841  contract Router is RouterData{\r... */\n      mstore(0x40, 0x80)\n      callvalue\n      dup1\n      iszero\n      tag_1\n      jumpi\n      0x00\n      dup1\n      revert\n    tag_1:\n      pop\n      jumpi(tag_2, lt(calldatasize, 0x04))\n      shr(0xe0, calldataload(0x00))\n      dup1\n      0xa5360d04\n      gt\n      tag_32\n      jumpi\n      dup1\n      0xda1c4845\n      gt\n      tag_33\n      jumpi\n      dup1\n      0xf2be7f53\n      gt\n      tag_34\n      jumpi\n      dup1\n      0xf2be7f53\n      eq\n      tag_28\n      jumpi\n      dup1\n      0xf8b1cb3c\n      eq\n      tag_29\n      jumpi\n      dup1\n      0xfbfa77cf\n      eq\n      tag_30\n      jumpi\n      dup1\n      0xfcfff16f\n      eq\n      tag_31\n      jumpi\n      0x00\n      dup1\n      revert\n    tag_34:\n      dup1\n      0xda1c4845\n      eq\n      tag_24\n      jumpi\n      dup1\n      0xddca3f43\n      eq\n      tag_25\n      jumpi\n      dup1\n      0xe06174e4\n      eq\n      tag_26\n      jumpi\n      dup1\n      0xe66f53b7\n      eq\n      tag_27\n      jumpi\n      0x00\n      dup1\n      revert\n    tag_33:\n      dup1\n      0xc83dd231\n      gt\n      tag_35\n      jumpi\n      dup1\n      0xc83dd231\n      eq\n      tag_20\n      jumpi\n      dup1\n      0xc851cc32\n      eq\n      tag_21\n      jumpi\n      dup1\n      0xcd9d3dd8\n      eq\n      tag_22\n      jumpi\n      dup1\n      0xd294f093\n      eq\n      tag_23\n      jumpi\n      0x00\n      dup1\n      revert\n    tag_35:\n      dup1\n      0xa5360d04\n      eq\n      tag_17\n      jumpi\n      dup1\n      0xadc1b956\n      eq\n      tag_18\n      jumpi\n      dup1\n      0xb88c0100\n      eq\n      tag_19\n      jumpi\n      0x00\n      dup1\n      revert\n    tag_32:\n      dup1\n      0x3b92eb23\n      gt\n      tag_36\n      jumpi\n      dup1\n      0x6e99d77b\n      gt\n      tag_37\n      jumpi\n      dup1\n      0x6e99d77b\n      eq\n      tag_13\n      jumpi\n      dup1\n      0x765d6410\n      eq\n      tag_14\n      jumpi\n      dup1\n      0x7d9f6db5\n      eq\n      tag_15\n      jumpi\n      dup1\n      0x9ce110d7\n      eq\n      tag_16\n      jumpi\n      0x00\n      dup1\n      revert\n    tag_37:\n      dup1\n      0x3b92eb23\n      eq\n      tag_10\n      jumpi\n      dup1\n      0x4b09b72a\n      eq\n      tag_11\n      jumpi\n      dup1\n      0x632a9a52\n      eq\n      tag_12\n      jumpi\n      0x00\n      dup1\n      revert\n    tag_36:\n      dup1\n      0x0c7d5cd8\n      gt\n      tag_38\n      jumpi\n      dup1\n      0x0c7d5cd8\n      eq\n      tag_6\n      jumpi\n      dup1\n      0x108adc7a\n      eq\n      tag_7\n      jumpi\n      dup1\n      0x2016a0d2\n      eq\n      tag_8\n      jumpi\n      dup1\n      0x372c12b1\n      eq\n      tag_9\n      jumpi\n      0x00\n      dup1\n      revert\n    tag_38:\n      dup1\n      0x047fc9aa\n      eq\n      tag_3\n      jumpi\n      dup1\n      0x06fdde03\n      eq\n      tag_4\n      jumpi\n      dup1\n      0x0b1e4238\n      eq\n      tag_5\n      jumpi\n    tag_2:\n      0x00\n      dup1\n      revert\n        /* \"contracts/Template/Istanbul10/data/RouterData.sol\":704:725  uint256 public supply */\n    tag_3:\n      tag_39\n      sload(0x0c)\n      dup2\n      jump\n    tag_39:\n      mload(0x40)\n        /* \"#utility.yul\":14915:14940   */\n      swap1\n      dup2\n      mstore\n        /* \"#utility.yul\":14903:14905   */\n      0x20\n        /* \"#utility.yul\":14888:14906   */\n      add\n        /* \"contracts/Template/Istanbul10/data/RouterData.sol\":704:725  uint256 public supply */\n    tag_41:\n      mload(0x40)\n      dup1\n      swap2\n      sub\n      swap1\n      return\n        /* \"contracts/Template/Istanbul10/logic/Router.sol\":498:538  string public constant name = \"Istanbul\" */\n    tag_4:\n      tag_43\n      mload(0x40)\n      dup1\n      0x40\n      add\n      0x40\n      mstore\n      dup1\n      0x08\n      dup2\n      mstore\n      0x20\n      add\n      shl(0xc2, 0x125cdd185b989d5b)\n      dup2\n      mstore\n      pop\n      dup2\n      jump\n    tag_43:\n      mload(0x40)\n      tag_41\n      swap2\n      swap1\n      tag_46\n      jump\t// in\n        /* \"contracts/Template/Istanbul10/logic/Router.sol\":653:691  address public immutable vaultTemplate */\n    tag_5:\n      tag_47\n      immutable(\"0xa22c77fde226c01897a2fe21dd32df8d23478da0d66d0b2201f2b7d428b73cc4\")\n      dup2\n      jump\n    tag_47:\n      mload(0x40)\n      sub(shl(0xa0, 0x01), 0x01)\n        /* \"#utility.yul\":7027:7059   */\n      swap1\n      swap2\n      and\n        /* \"#utility.yul\":7009:7060   */\n      dup2\n      mstore\n        /* \"#utility.yul\":6997:6999   */\n      0x20\n        /* \"#utility.yul\":6982:7000   */\n      add\n        /* \"contracts/Template/Istanbul10/logic/Router.sol\":653:691  address public immutable vaultTemplate */\n      tag_41\n        /* \"#utility.yul\":6964:7066   */\n      jump\n        /* \"contracts/Template/Istanbul10/data/RouterData.sol\":631:658  uint256 public reserveRatio */\n    tag_6:\n      tag_39\n      sload(0x0a)\n      dup2\n      jump\n        /* \"contracts/Template/Istanbul10/data/RouterData.sol\":798:824  uint256 public cashVetoken */\n    tag_7:\n      tag_39\n      sload(0x0f)\n      dup2\n      jump\n        /* \"contracts/Template/Istanbul10/logic/Router.sol\":1553:2032  function initialize(address _curator,address _settings,string memory _name,string memory _symbol) external {\r... */\n    tag_8:\n      tag_57\n      tag_58\n      calldatasize\n      0x04\n      tag_59\n      jump\t// in\n    tag_58:\n      tag_60\n      jump\t// in\n    tag_57:\n      stop\n        /* \"contracts/Template/Istanbul10/data/RouterData.sol\":392:434  mapping (address => bool) public whiteList */\n    tag_9:\n      tag_61\n      tag_62\n      calldatasize\n      0x04\n      tag_63\n      jump\t// in\n    tag_62:\n      mstore(0x20, 0x06)\n      0x00\n      swap1\n      dup2\n      mstore\n      0x40\n      swap1\n      keccak256\n      sload\n      0xff\n      and\n      dup2\n      jump\n    tag_61:\n      mload(0x40)\n        /* \"#utility.yul\":9590:9604   */\n      swap1\n      iszero\n        /* \"#utility.yul\":9583:9605   */\n      iszero\n        /* \"#utility.yul\":9565:9606   */\n      dup2\n      mstore\n        /* \"#utility.yul\":9553:9555   */\n      0x20\n        /* \"#utility.yul\":9538:9556   */\n      add\n        /* \"contracts/Template/Istanbul10/data/RouterData.sol\":392:434  mapping (address => bool) public whiteList */\n      tag_41\n        /* \"#utility.yul\":9520:9612   */\n      jump\n        /* \"contracts/Template/Istanbul10/data/RouterData.sol\":207:229  address public veToken */\n    tag_10:\n      sload(0x02)\n      tag_47\n      swap1\n      sub(shl(0xa0, 0x01), 0x01)\n      and\n      dup2\n      jump\n        /* \"contracts/Template/Istanbul10/data/RouterData.sol\":667:695  uint256 public reserveAmount */\n    tag_11:\n      tag_39\n      sload(0x0b)\n      dup2\n      jump\n        /* \"contracts/Template/Istanbul10/data/RouterData.sol\":273:292  address public vote */\n    tag_12:\n      sload(0x04)\n      tag_47\n      swap1\n      sub(shl(0xa0, 0x01), 0x01)\n      and\n      dup2\n      jump\n        /* \"contracts/Template/Istanbul10/logic/Router.sol\":603:643  address public immutable veTokenTemplate */\n    tag_13:\n      tag_47\n      immutable(\"0x7ce5bcbaa570e6c26aabc2e17cbdf41b64b52824b9d0da4a1a221d2c48e00972\")\n      dup2\n      jump\n        /* \"contracts/Template/Istanbul10/logic/Router.sol\":751:788  address public immutable voteTemplate */\n    tag_14:\n      tag_47\n      immutable(\"0xdb072343100f296808a89800074fd25b631d8ed87ec8840b6f4e49399eea800f\")\n      dup2\n      jump\n        /* \"contracts/Template/Istanbul10/data/RouterData.sol\":238:260  address public auction */\n    tag_15:\n      sload(0x03)\n      tag_47\n      swap1\n      sub(shl(0xa0, 0x01), 0x01)\n      and\n      dup2\n      jump\n        /* \"contracts/Template/Istanbul10/data/RouterData.sol\":447:470  bool public initializer */\n    tag_16:\n      sload(0x07)\n      tag_61\n      swap1\n      0xff\n      and\n      dup2\n      jump\n        /* \"contracts/Template/Istanbul10/data/RouterData.sol\":762:789  uint256 public cashDivision */\n    tag_17:\n      tag_39\n      sload(0x0e)\n      dup2\n      jump\n        /* \"contracts/Template/Istanbul10/data/RouterData.sol\":564:590  uint256 public lastClaimed */\n    tag_18:\n      tag_39\n      sload(0x08)\n      dup2\n      jump\n        /* \"contracts/Template/Istanbul10/logic/Router.sol\":2542:3312  function issue(uint256 _supply , uint256 _reserveRatio , uint256 _EntireVaultPrice) external {\r... */\n    tag_19:\n      tag_57\n      tag_95\n      calldatasize\n      0x04\n      tag_96\n      jump\t// in\n    tag_95:\n      tag_97\n      jump\t// in\n        /* \"contracts/Template/Istanbul10/data/RouterData.sol\":147:169  address public Factory */\n    tag_20:\n      sload(0x00)\n      tag_47\n      swap1\n      sub(shl(0xa0, 0x01), 0x01)\n      and\n      dup2\n      jump\n        /* \"contracts/Template/Istanbul10/logic/Router.sol\":7203:7586  function updateRouter(address _updataTemplate) external onlyWhiteList {\r... */\n    tag_21:\n      tag_57\n      tag_102\n      calldatasize\n      0x04\n      tag_63\n      jump\t// in\n    tag_102:\n      tag_103\n      jump\t// in\n        /* \"contracts/Template/Istanbul10/logic/Router.sol\":2040:2445  function curatorDeposit(address[] memory _nft,uint256[] memory _nftId,uint256[] memory _amount) external {\r... */\n    tag_22:\n      tag_57\n      tag_105\n      calldatasize\n      0x04\n      tag_106\n      jump\t// in\n    tag_105:\n      tag_107\n      jump\t// in\n        /* \"contracts/Template/Istanbul10/logic/Router.sol\":4248:5056  function claimFees() external {\r... */\n    tag_23:\n      tag_57\n      tag_109\n      jump\t// in\n        /* \"contracts/Template/Istanbul10/logic/Router.sol\":3597:3720  function mintToScale(uint256 _supply ,address _mintTo) public onlyWhiteList{\r... */\n    tag_24:\n      tag_57\n      tag_111\n      calldatasize\n      0x04\n      tag_112\n      jump\t// in\n    tag_111:\n      tag_113\n      jump\t// in\n        /* \"contracts/Template/Istanbul10/data/RouterData.sol\":735:753  uint256 public fee */\n    tag_25:\n      tag_39\n      sload(0x0d)\n      dup2\n      jump\n        /* \"contracts/Template/Istanbul10/data/RouterData.sol\":599:622  address public settings */\n    tag_26:\n      sload(0x09)\n      tag_47\n      swap1\n      sub(shl(0xa0, 0x01), 0x01)\n      and\n      dup2\n      jump\n        /* \"contracts/Template/Istanbul10/data/RouterData.sol\":301:323  address public curator */\n    tag_27:\n      sload(0x05)\n      tag_47\n      swap1\n      sub(shl(0xa0, 0x01), 0x01)\n      and\n      dup2\n      jump\n        /* \"contracts/Template/Istanbul10/logic/Router.sol\":701:741  address public immutable auctionTemplate */\n    tag_28:\n      tag_47\n      immutable(\"0x70f4a78a48f42acbe9d9cf154241836129f76f9f27af3a0407fc31364d9175fb\")\n      dup2\n      jump\n        /* \"contracts/Template/Istanbul10/logic/Router.sol\":547:583  uint16 public constant versions = 10 */\n    tag_29:\n      tag_126\n        /* \"contracts/Template/Istanbul10/logic/Router.sol\":581:583  10 */\n      0x0a\n        /* \"contracts/Template/Istanbul10/logic/Router.sol\":547:583  uint16 public constant versions = 10 */\n      dup2\n      jump\n    tag_126:\n      mload(0x40)\n        /* \"#utility.yul\":14750:14756   */\n      0xffff\n        /* \"#utility.yul\":14738:14757   */\n      swap1\n      swap2\n      and\n        /* \"#utility.yul\":14720:14758   */\n      dup2\n      mstore\n        /* \"#utility.yul\":14708:14710   */\n      0x20\n        /* \"#utility.yul\":14693:14711   */\n      add\n        /* \"contracts/Template/Istanbul10/logic/Router.sol\":547:583  uint16 public constant versions = 10 */\n      tag_41\n        /* \"#utility.yul\":14675:14764   */\n      jump\n        /* \"contracts/Template/Istanbul10/data/RouterData.sol\":178:198  address public vault */\n    tag_30:\n      sload(0x01)\n      tag_47\n      swap1\n      sub(shl(0xa0, 0x01), 0x01)\n      and\n      dup2\n      jump\n        /* \"contracts/Template/Istanbul10/data/RouterData.sol\":479:495  bool public open */\n    tag_31:\n      sload(0x07)\n      tag_61\n      swap1\n      0x0100\n      swap1\n      div\n      0xff\n      and\n      dup2\n      jump\n        /* \"contracts/Template/Istanbul10/logic/Router.sol\":1553:2032  function initialize(address _curator,address _settings,string memory _name,string memory _symbol) external {\r... */\n    tag_60:\n        /* \"contracts/Template/Istanbul10/logic/Router.sol\":1680:1691  initializer */\n      and(0xff, sload(0x07))\n        /* \"contracts/Template/Istanbul10/logic/Router.sol\":1679:1691  !initializer */\n      iszero\n        /* \"contracts/Template/Istanbul10/logic/Router.sol\":1671:1728  require(!initializer,\"initialize :: Already initialized\") */\n      tag_137\n      jumpi\n      mload(0x40)\n      shl(0xe5, 0x461bcd)\n      dup2\n      mstore\n        /* \"#utility.yul\":13965:13967   */\n      0x20\n        /* \"contracts/Template/Istanbul10/logic/Router.sol\":1671:1728  require(!initializer,\"initialize :: Already initialized\") */\n      0x04\n      dup3\n      add\n        /* \"#utility.yul\":13947:13968   */\n      mstore\n        /* \"#utility.yul\":14004:14006   */\n      0x21\n        /* \"#utility.yul\":13984:14002   */\n      0x24\n      dup3\n      add\n        /* \"#utility.yul\":13977:14007   */\n      mstore\n        /* \"#utility.yul\":14043:14077   */\n      0x696e697469616c697a65203a3a20416c726561647920696e697469616c697a65\n        /* \"#utility.yul\":14023:14041   */\n      0x44\n      dup3\n      add\n        /* \"#utility.yul\":14016:14078   */\n      mstore\n      shl(0xfa, 0x19)\n        /* \"#utility.yul\":14094:14112   */\n      0x64\n      dup3\n      add\n        /* \"#utility.yul\":14087:14118   */\n      mstore\n        /* \"#utility.yul\":14135:14154   */\n      0x84\n      add\n        /* \"contracts/Template/Istanbul10/logic/Router.sol\":1671:1728  require(!initializer,\"initialize :: Already initialized\") */\n    tag_138:\n      mload(0x40)\n      dup1\n      swap2\n      sub\n      swap1\n      revert\n    tag_137:\n        /* \"contracts/Template/Istanbul10/logic/Router.sol\":1754:1765  initializer */\n      0x07\n      dup1\n      sload\n      not(0xff)\n        /* \"contracts/Template/Istanbul10/logic/Router.sol\":1739:1765  initializer = !initializer */\n      dup2\n      and\n        /* \"contracts/Template/Istanbul10/logic/Router.sol\":1754:1765  initializer */\n      0xff\n      swap1\n      swap2\n      and\n        /* \"contracts/Template/Istanbul10/logic/Router.sol\":1753:1765  !initializer */\n      iszero\n        /* \"contracts/Template/Istanbul10/logic/Router.sol\":1739:1765  initializer = !initializer */\n      or\n      swap1\n      sstore\n        /* \"contracts/Template/Istanbul10/logic/Router.sol\":1754:1765  initializer */\n      0x00\n        /* \"contracts/Template/Istanbul10/logic/Router.sol\":1776:1796  Factory = msg.sender */\n      dup1\n      sload\n      not(sub(shl(0xa0, 0x01), 0x01))\n      and\n        /* \"contracts/Template/Istanbul10/logic/Router.sol\":1786:1796  msg.sender */\n      caller\n        /* \"contracts/Template/Istanbul10/logic/Router.sol\":1776:1796  Factory = msg.sender */\n      or\n      swap1\n      sstore\n        /* \"contracts/Template/Istanbul10/logic/Router.sol\":1817:1841  mintVault(_name,_symbol) */\n      tag_140\n        /* \"contracts/Template/Istanbul10/logic/Router.sol\":1827:1832  _name */\n      dup3\n        /* \"contracts/Template/Istanbul10/logic/Router.sol\":1833:1840  _symbol */\n      dup3\n        /* \"contracts/Template/Istanbul10/logic/Router.sol\":1817:1826  mintVault */\n      tag_141\n        /* \"contracts/Template/Istanbul10/logic/Router.sol\":1817:1841  mintVault(_name,_symbol) */\n      jump\t// in\n    tag_140:\n        /* \"contracts/Template/Istanbul10/logic/Router.sol\":1809:1814  vault */\n      0x01\n        /* \"contracts/Template/Istanbul10/logic/Router.sol\":1809:1841  vault = mintVault(_name,_symbol) */\n      dup1\n      sload\n      not(sub(shl(0xa0, 0x01), 0x01))\n      and\n      sub(shl(0xa0, 0x01), 0x01)\n      swap3\n      swap1\n      swap3\n      and\n      swap2\n      dup3\n      or\n      dup2\n      sstore\n        /* \"contracts/Template/Istanbul10/logic/Router.sol\":1852:1877  setWhiteList(vault, true) */\n      tag_142\n      swap2\n        /* \"contracts/Template/Istanbul10/logic/Router.sol\":1809:1841  vault = mintVault(_name,_symbol) */\n      swap1\n        /* \"contracts/Template/Istanbul10/logic/Router.sol\":1852:1864  setWhiteList */\n      tag_143\n        /* \"contracts/Template/Istanbul10/logic/Router.sol\":1852:1877  setWhiteList(vault, true) */\n      jump\t// in\n    tag_142:\n        /* \"contracts/Template/Istanbul10/logic/Router.sol\":1890:1923  setWhiteList(address(this), true) */\n      tag_144\n        /* \"contracts/Template/Istanbul10/logic/Router.sol\":1911:1915  this */\n      address\n        /* \"contracts/Template/Istanbul10/logic/Router.sol\":1918:1922  true */\n      0x01\n        /* \"contracts/Template/Istanbul10/logic/Router.sol\":1890:1902  setWhiteList */\n      tag_143\n        /* \"contracts/Template/Istanbul10/logic/Router.sol\":1890:1923  setWhiteList(address(this), true) */\n      jump\t// in\n    tag_144:\n        /* \"contracts/Template/Istanbul10/logic/Router.sol\":1934:1941  curator */\n      0x05\n        /* \"contracts/Template/Istanbul10/logic/Router.sol\":1934:1952  curator = _curator */\n      dup1\n      sload\n      not(sub(shl(0xa0, 0x01), 0x01))\n      swap1\n      dup2\n      and\n      sub(shl(0xa0, 0x01), 0x01)\n      dup8\n      dup2\n      and\n      swap2\n      dup3\n      or\n      swap1\n      swap4\n      sstore\n        /* \"contracts/Template/Istanbul10/logic/Router.sol\":1963:1971  settings */\n      0x09\n        /* \"contracts/Template/Istanbul10/logic/Router.sol\":1963:1983  settings = _settings */\n      dup1\n      sload\n      swap1\n      swap3\n      and\n      dup7\n      dup5\n      and\n      or\n      swap1\n      swap2\n      sstore\n      0x01\n        /* \"contracts/Template/Istanbul10/logic/Router.sol\":2018:2023  vault */\n      sload\n        /* \"contracts/Template/Istanbul10/logic/Router.sol\":1999:2024  Initialize(curator,vault) */\n      0x40\n      dup1\n      mload\n        /* \"#utility.yul\":7283:7317   */\n      swap3\n      dup4\n      mstore\n        /* \"contracts/Template/Istanbul10/logic/Router.sol\":2018:2023  vault */\n      swap3\n      and\n        /* \"#utility.yul\":7348:7350   */\n      0x20\n        /* \"#utility.yul\":7333:7351   */\n      dup3\n      add\n        /* \"#utility.yul\":7326:7369   */\n      mstore\n        /* \"contracts/Template/Istanbul10/logic/Router.sol\":1999:2024  Initialize(curator,vault) */\n      0xdc90fed0326ba91706deeac7eb34ac9f8b680734f9d782864dc29704d23bed6a\n      swap2\n        /* \"#utility.yul\":7218:7236   */\n      add\n        /* \"contracts/Template/Istanbul10/logic/Router.sol\":1999:2024  Initialize(curator,vault) */\n      mload(0x40)\n      dup1\n      swap2\n      sub\n      swap1\n      log1\n        /* \"contracts/Template/Istanbul10/logic/Router.sol\":1553:2032  function initialize(address _curator,address _settings,string memory _name,string memory _symbol) external {\r... */\n      pop\n      pop\n      pop\n      pop\n      jump\t// out\n        /* \"contracts/Template/Istanbul10/logic/Router.sol\":2542:3312  function issue(uint256 _supply , uint256 _reserveRatio , uint256 _EntireVaultPrice) external {\r... */\n    tag_97:\n        /* \"contracts/Template/Istanbul10/logic/Router.sol\":2668:2675  curator */\n      and(sub(shl(0xa0, 0x01), 0x01), sload(0x05))\n        /* \"contracts/Template/Istanbul10/logic/Router.sol\":2654:2664  msg.sender */\n      caller\n        /* \"contracts/Template/Istanbul10/logic/Router.sol\":2654:2675  msg.sender == curator */\n      eq\n        /* \"contracts/Template/Istanbul10/logic/Router.sol\":2646:2722  require(msg.sender == curator, \"issue :: Only curator can issue the tokens\") */\n      tag_148\n      jumpi\n      mload(0x40)\n      shl(0xe5, 0x461bcd)\n      dup2\n      mstore\n        /* \"#utility.yul\":14367:14369   */\n      0x20\n        /* \"contracts/Template/Istanbul10/logic/Router.sol\":2646:2722  require(msg.sender == curator, \"issue :: Only curator can issue the tokens\") */\n      0x04\n      dup3\n      add\n        /* \"#utility.yul\":14349:14370   */\n      mstore\n        /* \"#utility.yul\":14406:14408   */\n      0x2a\n        /* \"#utility.yul\":14386:14404   */\n      0x24\n      dup3\n      add\n        /* \"#utility.yul\":14379:14409   */\n      mstore\n        /* \"#utility.yul\":14445:14479   */\n      0x6973737565203a3a204f6e6c792063757261746f722063616e20697373756520\n        /* \"#utility.yul\":14425:14443   */\n      0x44\n      dup3\n      add\n        /* \"#utility.yul\":14418:14480   */\n      mstore\n      shl(0xb0, 0x74686520746f6b656e73)\n        /* \"#utility.yul\":14496:14514   */\n      0x64\n      dup3\n      add\n        /* \"#utility.yul\":14489:14529   */\n      mstore\n        /* \"#utility.yul\":14546:14565   */\n      0x84\n      add\n        /* \"contracts/Template/Istanbul10/logic/Router.sol\":2646:2722  require(msg.sender == curator, \"issue :: Only curator can issue the tokens\") */\n      tag_138\n        /* \"#utility.yul\":14339:14571   */\n      jump\n        /* \"contracts/Template/Istanbul10/logic/Router.sol\":2646:2722  require(msg.sender == curator, \"issue :: Only curator can issue the tokens\") */\n    tag_148:\n        /* \"contracts/Template/Istanbul10/logic/Router.sol\":2741:2745  open */\n      sload(0x07)\n      0x0100\n      swap1\n      div\n      0xff\n      and\n        /* \"contracts/Template/Istanbul10/logic/Router.sol\":2741:2754  open == false */\n      iszero\n        /* \"contracts/Template/Istanbul10/logic/Router.sol\":2733:2791  require(open == false, \"issue :: Token is already active\") */\n      tag_151\n      jumpi\n      mload(0x40)\n      shl(0xe5, 0x461bcd)\n      dup2\n      mstore\n        /* \"#utility.yul\":11614:11616   */\n      0x20\n        /* \"contracts/Template/Istanbul10/logic/Router.sol\":2733:2791  require(open == false, \"issue :: Token is already active\") */\n      0x04\n      dup3\n      add\n        /* \"#utility.yul\":11596:11617   */\n      dup2\n      swap1\n      mstore\n        /* \"#utility.yul\":11633:11651   */\n      0x24\n      dup3\n      add\n        /* \"#utility.yul\":11626:11656   */\n      mstore\n        /* \"#utility.yul\":11692:11726   */\n      0x6973737565203a3a20546f6b656e20697320616c726561647920616374697665\n        /* \"#utility.yul\":11672:11690   */\n      0x44\n      dup3\n      add\n        /* \"#utility.yul\":11665:11727   */\n      mstore\n        /* \"#utility.yul\":11744:11762   */\n      0x64\n      add\n        /* \"contracts/Template/Istanbul10/logic/Router.sol\":2733:2791  require(open == false, \"issue :: Token is already active\") */\n      tag_138\n        /* \"#utility.yul\":11586:11768   */\n      jump\n        /* \"contracts/Template/Istanbul10/logic/Router.sol\":2733:2791  require(open == false, \"issue :: Token is already active\") */\n    tag_151:\n        /* \"contracts/Template/Istanbul10/logic/Router.sol\":2821:2835  10000*(10**18) */\n      0x021e19e0c9bab2400000\n        /* \"contracts/Template/Istanbul10/logic/Router.sol\":2810:2817  _supply */\n      dup4\n        /* \"contracts/Template/Istanbul10/logic/Router.sol\":2810:2835  _supply >= 10000*(10**18) */\n      lt\n      iszero\n        /* \"contracts/Template/Istanbul10/logic/Router.sol\":2802:2885  require(_supply >= 10000*(10**18), \"issue :: The supply must be greater than 1000\") */\n      tag_154\n      jumpi\n      mload(0x40)\n      shl(0xe5, 0x461bcd)\n      dup2\n      mstore\n        /* \"#utility.yul\":13190:13192   */\n      0x20\n        /* \"contracts/Template/Istanbul10/logic/Router.sol\":2802:2885  require(_supply >= 10000*(10**18), \"issue :: The supply must be greater than 1000\") */\n      0x04\n      dup3\n      add\n        /* \"#utility.yul\":13172:13193   */\n      mstore\n        /* \"#utility.yul\":13229:13231   */\n      0x2d\n        /* \"#utility.yul\":13209:13227   */\n      0x24\n      dup3\n      add\n        /* \"#utility.yul\":13202:13232   */\n      mstore\n        /* \"#utility.yul\":13268:13302   */\n      0x6973737565203a3a2054686520737570706c79206d7573742062652067726561\n        /* \"#utility.yul\":13248:13266   */\n      0x44\n      dup3\n      add\n        /* \"#utility.yul\":13241:13303   */\n      mstore\n      shl(0x9c, 0x0746572207468616e203130303)\n        /* \"#utility.yul\":13319:13337   */\n      0x64\n      dup3\n      add\n        /* \"#utility.yul\":13312:13355   */\n      mstore\n        /* \"#utility.yul\":13372:13391   */\n      0x84\n      add\n        /* \"contracts/Template/Istanbul10/logic/Router.sol\":2802:2885  require(_supply >= 10000*(10**18), \"issue :: The supply must be greater than 1000\") */\n      tag_138\n        /* \"#utility.yul\":13162:13397   */\n      jump\n        /* \"contracts/Template/Istanbul10/logic/Router.sol\":2802:2885  require(_supply >= 10000*(10**18), \"issue :: The supply must be greater than 1000\") */\n    tag_154:\n        /* \"contracts/Template/Istanbul10/logic/Router.sol\":2921:2923  99 */\n      0x63\n        /* \"contracts/Template/Istanbul10/logic/Router.sol\":2904:2917  _reserveRatio */\n      dup3\n        /* \"contracts/Template/Istanbul10/logic/Router.sol\":2904:2923  _reserveRatio <= 99 */\n      gt\n      iszero\n        /* \"contracts/Template/Istanbul10/logic/Router.sol\":2896:2960  require(_reserveRatio <= 99, \"issue :: Incorrect reserve ratio\") */\n      tag_157\n      jumpi\n      mload(0x40)\n      shl(0xe5, 0x461bcd)\n      dup2\n      mstore\n        /* \"#utility.yul\":10429:10431   */\n      0x20\n        /* \"contracts/Template/Istanbul10/logic/Router.sol\":2896:2960  require(_reserveRatio <= 99, \"issue :: Incorrect reserve ratio\") */\n      0x04\n      dup3\n      add\n        /* \"#utility.yul\":10411:10432   */\n      dup2\n      swap1\n      mstore\n        /* \"#utility.yul\":10448:10466   */\n      0x24\n      dup3\n      add\n        /* \"#utility.yul\":10441:10471   */\n      mstore\n        /* \"#utility.yul\":10507:10541   */\n      0x6973737565203a3a20496e636f7272656374207265736572766520726174696f\n        /* \"#utility.yul\":10487:10505   */\n      0x44\n      dup3\n      add\n        /* \"#utility.yul\":10480:10542   */\n      mstore\n        /* \"#utility.yul\":10559:10577   */\n      0x64\n      add\n        /* \"contracts/Template/Istanbul10/logic/Router.sol\":2896:2960  require(_reserveRatio <= 99, \"issue :: Incorrect reserve ratio\") */\n      tag_138\n        /* \"#utility.yul\":10401:10583   */\n      jump\n        /* \"contracts/Template/Istanbul10/logic/Router.sol\":2896:2960  require(_reserveRatio <= 99, \"issue :: Incorrect reserve ratio\") */\n    tag_157:\n        /* \"contracts/Template/Istanbul10/logic/Router.sol\":2971:2975  open */\n      0x07\n        /* \"contracts/Template/Istanbul10/logic/Router.sol\":2971:2982  open = true */\n      dup1\n      sload\n      not(0xff00)\n      and\n      0x0100\n      or\n      swap1\n      sstore\n        /* \"contracts/Template/Istanbul10/logic/Router.sol\":2995:3009  mintContract() */\n      tag_160\n        /* \"contracts/Template/Istanbul10/logic/Router.sol\":2995:3007  mintContract */\n      tag_161\n        /* \"contracts/Template/Istanbul10/logic/Router.sol\":2995:3009  mintContract() */\n      jump\t// in\n    tag_160:\n        /* \"contracts/Template/Istanbul10/logic/Router.sol\":3036:3051  block.timestamp */\n      timestamp\n        /* \"contracts/Template/Istanbul10/logic/Router.sol\":3022:3033  lastClaimed */\n      0x08\n        /* \"contracts/Template/Istanbul10/logic/Router.sol\":3022:3051  lastClaimed = block.timestamp */\n      sstore\n        /* \"contracts/Template/Istanbul10/logic/Router.sol\":3068:3069  0 */\n      0x00\n        /* \"contracts/Template/Istanbul10/logic/Router.sol\":3062:3065  fee */\n      0x0d\n        /* \"contracts/Template/Istanbul10/logic/Router.sol\":3062:3069  fee = 0 */\n      sstore\n        /* \"contracts/Template/Istanbul10/logic/Router.sol\":3082:3094  reserveRatio */\n      0x0a\n        /* \"contracts/Template/Istanbul10/logic/Router.sol\":3082:3110  reserveRatio = _reserveRatio */\n      dup3\n      swap1\n      sstore\n        /* \"contracts/Template/Istanbul10/logic/Router.sol\":3144:3151  curator */\n      sload(0x05)\n        /* \"contracts/Template/Istanbul10/logic/Router.sol\":3123:3152  _mintToScale(_supply,curator) */\n      tag_162\n      swap1\n        /* \"contracts/Template/Istanbul10/logic/Router.sol\":3136:3143  _supply */\n      dup5\n      swap1\n      sub(shl(0xa0, 0x01), 0x01)\n        /* \"contracts/Template/Istanbul10/logic/Router.sol\":3144:3151  curator */\n      and\n        /* \"contracts/Template/Istanbul10/logic/Router.sol\":3123:3135  _mintToScale */\n      tag_163\n        /* \"contracts/Template/Istanbul10/logic/Router.sol\":3123:3152  _mintToScale(_supply,curator) */\n      jump\t// in\n    tag_162:\n        /* \"contracts/Template/Istanbul10/logic/Router.sol\":3174:3181  auction */\n      sload(0x03)\n        /* \"contracts/Template/Istanbul10/logic/Router.sol\":3165:3210  IAuction(auction).setPrice(_EntireVaultPrice) */\n      mload(0x40)\n      shl(0xe0, 0x91b7f5ed)\n      dup2\n      mstore\n      0x04\n      dup2\n      add\n        /* \"#utility.yul\":14915:14940   */\n      dup4\n      swap1\n      mstore\n      sub(shl(0xa0, 0x01), 0x01)\n        /* \"contracts/Template/Istanbul10/logic/Router.sol\":3174:3181  auction */\n      swap1\n      swap2\n      and\n      swap1\n        /* \"contracts/Template/Istanbul10/logic/Router.sol\":3165:3191  IAuction(auction).setPrice */\n      0x91b7f5ed\n      swap1\n        /* \"#utility.yul\":14888:14906   */\n      0x24\n      add\n        /* \"contracts/Template/Istanbul10/logic/Router.sol\":3165:3210  IAuction(auction).setPrice(_EntireVaultPrice) */\n      0x00\n      mload(0x40)\n      dup1\n      dup4\n      sub\n      dup2\n      0x00\n      dup8\n      dup1\n      extcodesize\n      iszero\n      dup1\n      iszero\n      tag_165\n      jumpi\n      0x00\n      dup1\n      revert\n    tag_165:\n      pop\n      gas\n      call\n      iszero\n      dup1\n      iszero\n      tag_167\n      jumpi\n      returndatasize\n      0x00\n      dup1\n      returndatacopy\n      revert(0x00, returndatasize)\n    tag_167:\n      pop\n      pop\n        /* \"contracts/Template/Istanbul10/logic/Router.sol\":3243:3255  reserveRatio */\n      sload(0x0a)\n        /* \"contracts/Template/Istanbul10/logic/Router.sol\":3278:3285  veToken */\n      sload(0x02)\n        /* \"contracts/Template/Istanbul10/logic/Router.sol\":3288:3295  auction */\n      sload(0x03)\n        /* \"contracts/Template/Istanbul10/logic/Router.sol\":3298:3302  vote */\n      sload(0x04)\n        /* \"contracts/Template/Istanbul10/logic/Router.sol\":3226:3304  Issue( _supply , reserveRatio , _EntireVaultPrice , veToken , auction , vote ) */\n      0x40\n      dup1\n      mload\n        /* \"#utility.yul\":15238:15263   */\n      dup11\n      dup2\n      mstore\n        /* \"#utility.yul\":15294:15296   */\n      0x20\n        /* \"#utility.yul\":15279:15297   */\n      dup2\n      add\n        /* \"#utility.yul\":15272:15306   */\n      swap6\n      swap1\n      swap6\n      mstore\n        /* \"#utility.yul\":15322:15340   */\n      dup5\n      add\n        /* \"#utility.yul\":15315:15349   */\n      dup8\n      swap1\n      mstore\n      sub(shl(0xa0, 0x01), 0x01)\n        /* \"contracts/Template/Istanbul10/logic/Router.sol\":3278:3285  veToken */\n      swap3\n      dup4\n      and\n        /* \"#utility.yul\":15418:15420   */\n      0x60\n        /* \"#utility.yul\":15403:15421   */\n      dup6\n      add\n        /* \"#utility.yul\":15396:15439   */\n      mstore\n        /* \"contracts/Template/Istanbul10/logic/Router.sol\":3288:3295  auction */\n      swap1\n      dup3\n      and\n        /* \"#utility.yul\":15470:15473   */\n      0x80\n        /* \"#utility.yul\":15455:15474   */\n      dup5\n      add\n        /* \"#utility.yul\":15448:15492   */\n      mstore\n        /* \"contracts/Template/Istanbul10/logic/Router.sol\":3298:3302  vote */\n      and\n        /* \"#utility.yul\":15376:15379   */\n      0xa0\n        /* \"#utility.yul\":15508:15527   */\n      dup3\n      add\n        /* \"#utility.yul\":15501:15545   */\n      mstore\n        /* \"contracts/Template/Istanbul10/logic/Router.sol\":3226:3304  Issue( _supply , reserveRatio , _EntireVaultPrice , veToken , auction , vote ) */\n      0x0ddec7fb699c258710bdbc2d19cfc80b0793be3e9338cbb403d82cc76282c406\n      swap3\n      pop\n        /* \"#utility.yul\":15225:15228   */\n      0xc0\n        /* \"#utility.yul\":15210:15229   */\n      add\n      swap1\n      pop\n        /* \"contracts/Template/Istanbul10/logic/Router.sol\":3226:3304  Issue( _supply , reserveRatio , _EntireVaultPrice , veToken , auction , vote ) */\n    tag_168:\n      mload(0x40)\n      dup1\n      swap2\n      sub\n      swap1\n      log1\n        /* \"contracts/Template/Istanbul10/logic/Router.sol\":2542:3312  function issue(uint256 _supply , uint256 _reserveRatio , uint256 _EntireVaultPrice) external {\r... */\n      pop\n      pop\n      pop\n      jump\t// out\n        /* \"contracts/Template/Istanbul10/logic/Router.sol\":7203:7586  function updateRouter(address _updataTemplate) external onlyWhiteList {\r... */\n    tag_103:\n        /* \"contracts/Template/Istanbul10/logic/Router.sol\":7771:7781  msg.sender */\n      caller\n        /* \"contracts/Template/Istanbul10/logic/Router.sol\":7761:7782  whiteList[msg.sender] */\n      0x00\n      swap1\n      dup2\n      mstore\n        /* \"contracts/Template/Istanbul10/logic/Router.sol\":7761:7770  whiteList */\n      0x06\n        /* \"contracts/Template/Istanbul10/logic/Router.sol\":7761:7782  whiteList[msg.sender] */\n      0x20\n      mstore\n      0x40\n      swap1\n      keccak256\n      sload\n      0xff\n      and\n        /* \"contracts/Template/Istanbul10/logic/Router.sol\":7753:7818  require(whiteList[msg.sender],\"whiteList :: Address check error\") */\n      tag_171\n      jumpi\n      mload(0x40)\n      shl(0xe5, 0x461bcd)\n      dup2\n      mstore\n        /* \"#utility.yul\":13604:13606   */\n      0x20\n        /* \"contracts/Template/Istanbul10/logic/Router.sol\":7753:7818  require(whiteList[msg.sender],\"whiteList :: Address check error\") */\n      0x04\n      dup3\n      add\n        /* \"#utility.yul\":13586:13607   */\n      dup2\n      swap1\n      mstore\n        /* \"#utility.yul\":13623:13641   */\n      0x24\n      dup3\n      add\n        /* \"#utility.yul\":13616:13646   */\n      mstore\n        /* \"#utility.yul\":13682:13716   */\n      0x77686974654c697374203a3a204164647265737320636865636b206572726f72\n        /* \"#utility.yul\":13662:13680   */\n      0x44\n      dup3\n      add\n        /* \"#utility.yul\":13655:13717   */\n      mstore\n        /* \"#utility.yul\":13734:13752   */\n      0x64\n      add\n        /* \"contracts/Template/Istanbul10/logic/Router.sol\":7753:7818  require(whiteList[msg.sender],\"whiteList :: Address check error\") */\n      tag_138\n        /* \"#utility.yul\":13576:13758   */\n      jump\n        /* \"contracts/Template/Istanbul10/logic/Router.sol\":7753:7818  require(whiteList[msg.sender],\"whiteList :: Address check error\") */\n    tag_171:\n        /* \"contracts/Template/Istanbul10/logic/Router.sol\":7301:7308  Factory */\n      sload(0x00)\n        /* \"contracts/Template/Istanbul10/logic/Router.sol\":7292:7344  IFactory(Factory).routerTemplateMap(_updataTemplate) */\n      mload(0x40)\n      shl(0xe1, 0x1caae84d)\n      dup2\n      mstore\n      sub(shl(0xa0, 0x01), 0x01)\n        /* \"#utility.yul\":7027:7059   */\n      dup4\n      dup2\n      and\n        /* \"contracts/Template/Istanbul10/logic/Router.sol\":7292:7344  IFactory(Factory).routerTemplateMap(_updataTemplate) */\n      0x04\n      dup4\n      add\n        /* \"#utility.yul\":7009:7060   */\n      mstore\n        /* \"contracts/Template/Istanbul10/logic/Router.sol\":7301:7308  Factory */\n      swap1\n      swap2\n      and\n      swap1\n        /* \"contracts/Template/Istanbul10/logic/Router.sol\":7292:7327  IFactory(Factory).routerTemplateMap */\n      0x3955d09a\n      swap1\n        /* \"#utility.yul\":6982:7000   */\n      0x24\n      add\n        /* \"contracts/Template/Istanbul10/logic/Router.sol\":7292:7344  IFactory(Factory).routerTemplateMap(_updataTemplate) */\n      0x20\n      mload(0x40)\n      dup1\n      dup4\n      sub\n      dup2\n      0x00\n      dup8\n      dup1\n      extcodesize\n      iszero\n      dup1\n      iszero\n      tag_176\n      jumpi\n      0x00\n      dup1\n      revert\n    tag_176:\n      pop\n      gas\n      call\n      iszero\n      dup1\n      iszero\n      tag_178\n      jumpi\n      returndatasize\n      0x00\n      dup1\n      returndatacopy\n      revert(0x00, returndatasize)\n    tag_178:\n      pop\n      pop\n      pop\n      pop\n      mload(0x40)\n      returndatasize\n      not(0x1f)\n      0x1f\n      dup3\n      add\n      and\n      dup3\n      add\n      dup1\n      0x40\n      mstore\n      pop\n      dup2\n      add\n      swap1\n      tag_179\n      swap2\n      swap1\n      tag_180\n      jump\t// in\n    tag_179:\n        /* \"contracts/Template/Istanbul10/logic/Router.sol\":7284:7382  require(IFactory(Factory).routerTemplateMap(_updataTemplate),\"updateRouter :: Incorrect template\") */\n      tag_181\n      jumpi\n      mload(0x40)\n      shl(0xe5, 0x461bcd)\n      dup2\n      mstore\n        /* \"#utility.yul\":11975:11977   */\n      0x20\n        /* \"contracts/Template/Istanbul10/logic/Router.sol\":7284:7382  require(IFactory(Factory).routerTemplateMap(_updataTemplate),\"updateRouter :: Incorrect template\") */\n      0x04\n      dup3\n      add\n        /* \"#utility.yul\":11957:11978   */\n      mstore\n        /* \"#utility.yul\":12014:12016   */\n      0x22\n        /* \"#utility.yul\":11994:12012   */\n      0x24\n      dup3\n      add\n        /* \"#utility.yul\":11987:12017   */\n      mstore\n        /* \"#utility.yul\":12053:12087   */\n      0x757064617465526f75746572203a3a20496e636f72726563742074656d706c61\n        /* \"#utility.yul\":12033:12051   */\n      0x44\n      dup3\n      add\n        /* \"#utility.yul\":12026:12088   */\n      mstore\n      shl(0xf0, 0x7465)\n        /* \"#utility.yul\":12104:12122   */\n      0x64\n      dup3\n      add\n        /* \"#utility.yul\":12097:12129   */\n      mstore\n        /* \"#utility.yul\":12146:12165   */\n      0x84\n      add\n        /* \"contracts/Template/Istanbul10/logic/Router.sol\":7284:7382  require(IFactory(Factory).routerTemplateMap(_updataTemplate),\"updateRouter :: Incorrect template\") */\n      tag_138\n        /* \"#utility.yul\":11947:12171   */\n      jump\n        /* \"contracts/Template/Istanbul10/logic/Router.sol\":7284:7382  require(IFactory(Factory).routerTemplateMap(_updataTemplate),\"updateRouter :: Incorrect template\") */\n    tag_181:\n        /* \"contracts/Template/Istanbul10/logic/Router.sol\":7462:7532  abi.encodeWithSignature(\r... */\n      0x40\n      dup1\n      mload\n      0x04\n      dup2\n      mstore\n      0x24\n      dup2\n      add\n      dup3\n      mstore\n      0x20\n      dup2\n      add\n      dup1\n      mload\n      sub(shl(0xe0, 0x01), 0x01)\n      and\n      shl(0xe1, 0x39b7cf21)\n      or\n      swap1\n      mstore\n        /* \"contracts/Template/Istanbul10/logic/Router.sol\":7433:7533  _updataTemplate.delegatecall(abi.encodeWithSignature(\r... */\n      swap1\n      mload\n        /* \"contracts/Template/Istanbul10/logic/Router.sol\":7396:7404  bool _ok */\n      0x00\n      swap2\n      dup3\n      swap2\n      sub(shl(0xa0, 0x01), 0x01)\n        /* \"contracts/Template/Istanbul10/logic/Router.sol\":7433:7461  _updataTemplate.delegatecall */\n      dup6\n      and\n      swap2\n        /* \"contracts/Template/Istanbul10/logic/Router.sol\":7433:7533  _updataTemplate.delegatecall(abi.encodeWithSignature(\r... */\n      tag_184\n      swap2\n      tag_185\n      jump\t// in\n    tag_184:\n      0x00\n      mload(0x40)\n      dup1\n      dup4\n      sub\n      dup2\n      dup6\n      gas\n      delegatecall\n      swap2\n      pop\n      pop\n      returndatasize\n      dup1\n      0x00\n      dup2\n      eq\n      tag_188\n      jumpi\n      mload(0x40)\n      swap2\n      pop\n      and(add(returndatasize, 0x3f), not(0x1f))\n      dup3\n      add\n      0x40\n      mstore\n      returndatasize\n      dup3\n      mstore\n      returndatasize\n      0x00\n      0x20\n      dup5\n      add\n      returndatacopy\n      jump(tag_187)\n    tag_188:\n      0x60\n      swap2\n      pop\n    tag_187:\n      pop\n        /* \"contracts/Template/Istanbul10/logic/Router.sol\":7395:7533  (bool _ok, bytes memory returnData) = _updataTemplate.delegatecall(abi.encodeWithSignature(\r... */\n      swap2\n      pop\n      swap2\n      pop\n        /* \"contracts/Template/Istanbul10/logic/Router.sol\":7554:7557  _ok */\n      dup2\n        /* \"contracts/Template/Istanbul10/logic/Router.sol\":7566:7576  returnData */\n      dup2\n        /* \"contracts/Template/Istanbul10/logic/Router.sol\":7546:7578  require(_ok, string(returnData)) */\n      swap1\n      tag_189\n      jumpi\n      mload(0x40)\n      shl(0xe5, 0x461bcd)\n      dup2\n      mstore\n      0x04\n      add\n      tag_138\n      swap2\n      swap1\n      tag_46\n      jump\t// in\n    tag_189:\n      pop\n        /* \"contracts/Template/Istanbul10/logic/Router.sol\":7273:7586  {\r... */\n      pop\n      pop\n        /* \"contracts/Template/Istanbul10/logic/Router.sol\":7203:7586  function updateRouter(address _updataTemplate) external onlyWhiteList {\r... */\n      pop\n      jump\t// out\n        /* \"contracts/Template/Istanbul10/logic/Router.sol\":2040:2445  function curatorDeposit(address[] memory _nft,uint256[] memory _nftId,uint256[] memory _amount) external {\r... */\n    tag_107:\n        /* \"contracts/Template/Istanbul10/logic/Router.sol\":2164:2168  open */\n      sload(0x07)\n      0x0100\n      swap1\n      div\n      0xff\n      and\n        /* \"contracts/Template/Istanbul10/logic/Router.sol\":2164:2177  open == false */\n      iszero\n        /* \"contracts/Template/Istanbul10/logic/Router.sol\":2156:2223  require(open == false, \"curatorDeposit :: Token is already active\") */\n      tag_192\n      jumpi\n      mload(0x40)\n      shl(0xe5, 0x461bcd)\n      dup2\n      mstore\n        /* \"#utility.yul\":12780:12782   */\n      0x20\n        /* \"contracts/Template/Istanbul10/logic/Router.sol\":2156:2223  require(open == false, \"curatorDeposit :: Token is already active\") */\n      0x04\n      dup3\n      add\n        /* \"#utility.yul\":12762:12783   */\n      mstore\n        /* \"#utility.yul\":12819:12821   */\n      0x29\n        /* \"#utility.yul\":12799:12817   */\n      0x24\n      dup3\n      add\n        /* \"#utility.yul\":12792:12822   */\n      mstore\n        /* \"#utility.yul\":12858:12892   */\n      0x63757261746f724465706f736974203a3a20546f6b656e20697320616c726561\n        /* \"#utility.yul\":12838:12856   */\n      0x44\n      dup3\n      add\n        /* \"#utility.yul\":12831:12893   */\n      mstore\n      shl(0xb8, 0x647920616374697665)\n        /* \"#utility.yul\":12909:12927   */\n      0x64\n      dup3\n      add\n        /* \"#utility.yul\":12902:12941   */\n      mstore\n        /* \"#utility.yul\":12958:12977   */\n      0x84\n      add\n        /* \"contracts/Template/Istanbul10/logic/Router.sol\":2156:2223  require(open == false, \"curatorDeposit :: Token is already active\") */\n      tag_138\n        /* \"#utility.yul\":12752:12983   */\n      jump\n        /* \"contracts/Template/Istanbul10/logic/Router.sol\":2156:2223  require(open == false, \"curatorDeposit :: Token is already active\") */\n    tag_192:\n        /* \"contracts/Template/Istanbul10/logic/Router.sol\":2256:2263  curator */\n      and(sub(shl(0xa0, 0x01), 0x01), sload(0x05))\n        /* \"contracts/Template/Istanbul10/logic/Router.sol\":2242:2252  msg.sender */\n      caller\n        /* \"contracts/Template/Istanbul10/logic/Router.sol\":2242:2263  msg.sender == curator */\n      eq\n        /* \"contracts/Template/Istanbul10/logic/Router.sol\":2234:2314  require(msg.sender == curator, \"curatorDeposit :: Only curator can deposit NFT\") */\n      tag_195\n      jumpi\n      mload(0x40)\n      shl(0xe5, 0x461bcd)\n      dup2\n      mstore\n        /* \"#utility.yul\":10790:10792   */\n      0x20\n        /* \"contracts/Template/Istanbul10/logic/Router.sol\":2234:2314  require(msg.sender == curator, \"curatorDeposit :: Only curator can deposit NFT\") */\n      0x04\n      dup3\n      add\n        /* \"#utility.yul\":10772:10793   */\n      mstore\n        /* \"#utility.yul\":10829:10831   */\n      0x2e\n        /* \"#utility.yul\":10809:10827   */\n      0x24\n      dup3\n      add\n        /* \"#utility.yul\":10802:10832   */\n      mstore\n        /* \"#utility.yul\":10868:10902   */\n      0x63757261746f724465706f736974203a3a204f6e6c792063757261746f722063\n        /* \"#utility.yul\":10848:10866   */\n      0x44\n      dup3\n      add\n        /* \"#utility.yul\":10841:10903   */\n      mstore\n      shl(0x92, 0x185b8819195c1bdcda5d08139195)\n        /* \"#utility.yul\":10919:10937   */\n      0x64\n      dup3\n      add\n        /* \"#utility.yul\":10912:10956   */\n      mstore\n        /* \"#utility.yul\":10973:10992   */\n      0x84\n      add\n        /* \"contracts/Template/Istanbul10/logic/Router.sol\":2234:2314  require(msg.sender == curator, \"curatorDeposit :: Only curator can deposit NFT\") */\n      tag_138\n        /* \"#utility.yul\":10762:10998   */\n      jump\n        /* \"contracts/Template/Istanbul10/logic/Router.sol\":2234:2314  require(msg.sender == curator, \"curatorDeposit :: Only curator can deposit NFT\") */\n    tag_195:\n        /* \"contracts/Template/Istanbul10/logic/Router.sol\":2332:2337  vault */\n      sload(0x01)\n        /* \"contracts/Template/Istanbul10/logic/Router.sol\":2325:2386  IVault(vault).depositNFTAsset(_nft,_nftId,_amount,msg.sender) */\n      mload(0x40)\n      shl(0xe0, 0xe2019ab3)\n      dup2\n      mstore\n      sub(shl(0xa0, 0x01), 0x01)\n        /* \"contracts/Template/Istanbul10/logic/Router.sol\":2332:2337  vault */\n      swap1\n      swap2\n      and\n      swap1\n        /* \"contracts/Template/Istanbul10/logic/Router.sol\":2325:2354  IVault(vault).depositNFTAsset */\n      0xe2019ab3\n      swap1\n        /* \"contracts/Template/Istanbul10/logic/Router.sol\":2325:2386  IVault(vault).depositNFTAsset(_nft,_nftId,_amount,msg.sender) */\n      tag_198\n      swap1\n        /* \"contracts/Template/Istanbul10/logic/Router.sol\":2355:2359  _nft */\n      dup7\n      swap1\n        /* \"contracts/Template/Istanbul10/logic/Router.sol\":2360:2366  _nftId */\n      dup7\n      swap1\n        /* \"contracts/Template/Istanbul10/logic/Router.sol\":2367:2374  _amount */\n      dup7\n      swap1\n        /* \"contracts/Template/Istanbul10/logic/Router.sol\":2375:2385  msg.sender */\n      caller\n      swap1\n        /* \"contracts/Template/Istanbul10/logic/Router.sol\":2325:2386  IVault(vault).depositNFTAsset(_nft,_nftId,_amount,msg.sender) */\n      0x04\n      add\n      tag_199\n      jump\t// in\n    tag_198:\n      0x00\n      mload(0x40)\n      dup1\n      dup4\n      sub\n      dup2\n      0x00\n      dup8\n      dup1\n      extcodesize\n      iszero\n      dup1\n      iszero\n      tag_200\n      jumpi\n      0x00\n      dup1\n      revert\n    tag_200:\n      pop\n      gas\n      call\n      iszero\n      dup1\n      iszero\n      tag_202\n      jumpi\n      returndatasize\n      0x00\n      dup1\n      returndatacopy\n      revert(0x00, returndatasize)\n    tag_202:\n      pop\n      pop\n      pop\n      pop\n        /* \"contracts/Template/Istanbul10/logic/Router.sol\":2402:2437  CuratorDeposit(_nft,_nftId,_amount) */\n      0x3a29ec296622ef644c7845a1c556399c39cd768e645a903d7911a7f5bc1e4011\n        /* \"contracts/Template/Istanbul10/logic/Router.sol\":2417:2421  _nft */\n      dup4\n        /* \"contracts/Template/Istanbul10/logic/Router.sol\":2422:2428  _nftId */\n      dup4\n        /* \"contracts/Template/Istanbul10/logic/Router.sol\":2429:2436  _amount */\n      dup4\n        /* \"contracts/Template/Istanbul10/logic/Router.sol\":2402:2437  CuratorDeposit(_nft,_nftId,_amount) */\n      mload(0x40)\n      tag_168\n      swap4\n      swap3\n      swap2\n      swap1\n      tag_204\n      jump\t// in\n        /* \"contracts/Template/Istanbul10/logic/Router.sol\":4248:5056  function claimFees() external {\r... */\n    tag_109:\n        /* \"contracts/Template/Istanbul10/logic/Router.sol\":4304:4309  vault */\n      sload(0x01)\n        /* \"contracts/Template/Istanbul10/logic/Router.sol\":4297:4332  IVault(vault).getEntireVaultState() */\n      0x40\n      dup1\n      mload\n      shl(0xe0, 0xd58bfa9d)\n      dup2\n      mstore\n      swap1\n      mload\n        /* \"contracts/Template/Istanbul10/logic/Router.sol\":4336:4356  State.NftState.leave */\n      0x02\n      swap3\n      sub(shl(0xa0, 0x01), 0x01)\n        /* \"contracts/Template/Istanbul10/logic/Router.sol\":4304:4309  vault */\n      and\n      swap2\n        /* \"contracts/Template/Istanbul10/logic/Router.sol\":4297:4330  IVault(vault).getEntireVaultState */\n      0xd58bfa9d\n      swap2\n        /* \"contracts/Template/Istanbul10/logic/Router.sol\":4297:4332  IVault(vault).getEntireVaultState() */\n      0x04\n      dup1\n      dup4\n      add\n      swap3\n      0x20\n      swap3\n      swap2\n      swap1\n      dup3\n      swap1\n      sub\n      add\n      dup2\n        /* \"contracts/Template/Istanbul10/logic/Router.sol\":4304:4309  vault */\n      dup7\n        /* \"contracts/Template/Istanbul10/logic/Router.sol\":4297:4332  IVault(vault).getEntireVaultState() */\n      dup1\n      extcodesize\n      iszero\n      dup1\n      iszero\n      tag_209\n      jumpi\n      0x00\n      dup1\n      revert\n    tag_209:\n      pop\n      gas\n      staticcall\n      iszero\n      dup1\n      iszero\n      tag_211\n      jumpi\n      returndatasize\n      0x00\n      dup1\n      returndatacopy\n      revert(0x00, returndatasize)\n    tag_211:\n      pop\n      pop\n      pop\n      pop\n      mload(0x40)\n      returndatasize\n      not(0x1f)\n      0x1f\n      dup3\n      add\n      and\n      dup3\n      add\n      dup1\n      0x40\n      mstore\n      pop\n      dup2\n      add\n      swap1\n      tag_212\n      swap2\n      swap1\n      tag_213\n      jump\t// in\n    tag_212:\n        /* \"contracts/Template/Istanbul10/logic/Router.sol\":4297:4356  IVault(vault).getEntireVaultState() != State.NftState.leave */\n      0x02\n      dup2\n      gt\n      iszero\n      tag_215\n      jumpi\n      tag_215\n      tag_208\n      jump\t// in\n    tag_215:\n      eq\n      iszero\n        /* \"contracts/Template/Istanbul10/logic/Router.sol\":4289:4401  require(IVault(vault).getEntireVaultState() != State.NftState.leave, \"claim :: cannot claim after auction ends\") */\n      tag_216\n      jumpi\n      mload(0x40)\n      shl(0xe5, 0x461bcd)\n      dup2\n      mstore\n        /* \"#utility.yul\":11205:11207   */\n      0x20\n        /* \"contracts/Template/Istanbul10/logic/Router.sol\":4289:4401  require(IVault(vault).getEntireVaultState() != State.NftState.leave, \"claim :: cannot claim after auction ends\") */\n      0x04\n      dup3\n      add\n        /* \"#utility.yul\":11187:11208   */\n      mstore\n        /* \"#utility.yul\":11244:11246   */\n      0x28\n        /* \"#utility.yul\":11224:11242   */\n      0x24\n      dup3\n      add\n        /* \"#utility.yul\":11217:11247   */\n      mstore\n        /* \"#utility.yul\":11283:11317   */\n      0x636c61696d203a3a2063616e6e6f7420636c61696d2061667465722061756374\n        /* \"#utility.yul\":11263:11281   */\n      0x44\n      dup3\n      add\n        /* \"#utility.yul\":11256:11318   */\n      mstore\n      shl(0xc0, 0x696f6e20656e6473)\n        /* \"#utility.yul\":11334:11352   */\n      0x64\n      dup3\n      add\n        /* \"#utility.yul\":11327:11365   */\n      mstore\n        /* \"#utility.yul\":11382:11401   */\n      0x84\n      add\n        /* \"contracts/Template/Istanbul10/logic/Router.sol\":4289:4401  require(IVault(vault).getEntireVaultState() != State.NftState.leave, \"claim :: cannot claim after auction ends\") */\n      tag_138\n        /* \"#utility.yul\":11177:11407   */\n      jump\n        /* \"contracts/Template/Istanbul10/logic/Router.sol\":4289:4401  require(IVault(vault).getEntireVaultState() != State.NftState.leave, \"claim :: cannot claim after auction ends\") */\n    tag_216:\n        /* \"contracts/Template/Istanbul10/logic/Router.sol\":4420:4424  open */\n      sload(0x07)\n      0x0100\n      swap1\n      div\n      0xff\n      and\n        /* \"contracts/Template/Istanbul10/logic/Router.sol\":4412:4462  require(open, \"claim :: Token not already active\") */\n      tag_219\n      jumpi\n      mload(0x40)\n      shl(0xe5, 0x461bcd)\n      dup2\n      mstore\n        /* \"#utility.yul\":12378:12380   */\n      0x20\n        /* \"contracts/Template/Istanbul10/logic/Router.sol\":4412:4462  require(open, \"claim :: Token not already active\") */\n      0x04\n      dup3\n      add\n        /* \"#utility.yul\":12360:12381   */\n      mstore\n        /* \"#utility.yul\":12417:12419   */\n      0x21\n        /* \"#utility.yul\":12397:12415   */\n      0x24\n      dup3\n      add\n        /* \"#utility.yul\":12390:12420   */\n      mstore\n        /* \"#utility.yul\":12456:12490   */\n      0x636c61696d203a3a20546f6b656e206e6f7420616c7265616479206163746976\n        /* \"#utility.yul\":12436:12454   */\n      0x44\n      dup3\n      add\n        /* \"#utility.yul\":12429:12491   */\n      mstore\n      shl(0xf8, 0x65)\n        /* \"#utility.yul\":12507:12525   */\n      0x64\n      dup3\n      add\n        /* \"#utility.yul\":12500:12531   */\n      mstore\n        /* \"#utility.yul\":12548:12567   */\n      0x84\n      add\n        /* \"contracts/Template/Istanbul10/logic/Router.sol\":4412:4462  require(open, \"claim :: Token not already active\") */\n      tag_138\n        /* \"#utility.yul\":12350:12573   */\n      jump\n        /* \"contracts/Template/Istanbul10/logic/Router.sol\":4412:4462  require(open, \"claim :: Token not already active\") */\n    tag_219:\n        /* \"contracts/Template/Istanbul10/logic/Router.sol\":4539:4563  uint256 currentAnnualFee */\n      0x00\n        /* \"contracts/Template/Istanbul10/logic/Router.sol\":4602:4606  1000 */\n      0x03e8\n        /* \"contracts/Template/Istanbul10/logic/Router.sol\":4579:4584  vault */\n      0x01\n      0x00\n      swap1\n      sload\n      swap1\n      0x0100\n      exp\n      swap1\n      div\n      sub(shl(0xa0, 0x01), 0x01)\n      and\n      sub(shl(0xa0, 0x01), 0x01)\n        /* \"contracts/Template/Istanbul10/logic/Router.sol\":4572:4597  IVault(vault).totalSupply */\n      and\n      0x18160ddd\n        /* \"contracts/Template/Istanbul10/logic/Router.sol\":4572:4599  IVault(vault).totalSupply() */\n      mload(0x40)\n      dup2\n      0xffffffff\n      and\n      0xe0\n      shl\n      dup2\n      mstore\n      0x04\n      add\n      0x20\n      mload(0x40)\n      dup1\n      dup4\n      sub\n      dup2\n      dup7\n      dup1\n      extcodesize\n      iszero\n      dup1\n      iszero\n      tag_222\n      jumpi\n      0x00\n      dup1\n      revert\n    tag_222:\n      pop\n      gas\n      staticcall\n      iszero\n      dup1\n      iszero\n      tag_224\n      jumpi\n      returndatasize\n      0x00\n      dup1\n      returndatacopy\n      revert(0x00, returndatasize)\n    tag_224:\n      pop\n      pop\n      pop\n      pop\n      mload(0x40)\n      returndatasize\n      not(0x1f)\n      0x1f\n      dup3\n      add\n      and\n      dup3\n      add\n      dup1\n      0x40\n      mstore\n      pop\n      dup2\n      add\n      swap1\n      tag_225\n      swap2\n      swap1\n      tag_226\n      jump\t// in\n    tag_225:\n        /* \"contracts/Template/Istanbul10/logic/Router.sol\":4566:4569  fee */\n      sload(0x0d)\n        /* \"contracts/Template/Istanbul10/logic/Router.sol\":4566:4599  fee * IVault(vault).totalSupply() */\n      tag_227\n      swap2\n      swap1\n      tag_228\n      jump\t// in\n    tag_227:\n        /* \"contracts/Template/Istanbul10/logic/Router.sol\":4566:4606  fee * IVault(vault).totalSupply() / 1000 */\n      tag_229\n      swap2\n      swap1\n      tag_230\n      jump\t// in\n    tag_229:\n        /* \"contracts/Template/Istanbul10/logic/Router.sol\":4539:4606  uint256 currentAnnualFee = fee * IVault(vault).totalSupply() / 1000 */\n      swap1\n      pop\n        /* \"contracts/Template/Istanbul10/logic/Router.sol\":4662:4682  uint256 feePerSecond */\n      0x00\n        /* \"contracts/Template/Istanbul10/logic/Router.sol\":4685:4712  currentAnnualFee / 31536000 */\n      tag_231\n        /* \"contracts/Template/Istanbul10/logic/Router.sol\":4704:4712  31536000 */\n      0x01e13380\n        /* \"contracts/Template/Istanbul10/logic/Router.sol\":4539:4606  uint256 currentAnnualFee = fee * IVault(vault).totalSupply() / 1000 */\n      dup4\n        /* \"contracts/Template/Istanbul10/logic/Router.sol\":4685:4712  currentAnnualFee / 31536000 */\n      tag_230\n      jump\t// in\n    tag_231:\n        /* \"contracts/Template/Istanbul10/logic/Router.sol\":4662:4712  uint256 feePerSecond = currentAnnualFee / 31536000 */\n      swap1\n      pop\n        /* \"contracts/Template/Istanbul10/logic/Router.sol\":4783:4805  uint256 sinceLastClaim */\n      0x00\n        /* \"contracts/Template/Istanbul10/logic/Router.sol\":4826:4837  lastClaimed */\n      sload(0x08)\n        /* \"contracts/Template/Istanbul10/logic/Router.sol\":4808:4823  block.timestamp */\n      timestamp\n        /* \"contracts/Template/Istanbul10/logic/Router.sol\":4808:4837  block.timestamp - lastClaimed */\n      tag_232\n      swap2\n      swap1\n      tag_233\n      jump\t// in\n    tag_232:\n        /* \"contracts/Template/Istanbul10/logic/Router.sol\":4783:4837  uint256 sinceLastClaim = block.timestamp - lastClaimed */\n      swap1\n      pop\n        /* \"contracts/Template/Istanbul10/logic/Router.sol\":4893:4912  uint256 curatorMint */\n      0x00\n        /* \"contracts/Template/Istanbul10/logic/Router.sol\":4915:4944  sinceLastClaim * feePerSecond */\n      tag_234\n        /* \"contracts/Template/Istanbul10/logic/Router.sol\":4932:4944  feePerSecond */\n      dup4\n        /* \"contracts/Template/Istanbul10/logic/Router.sol\":4783:4837  uint256 sinceLastClaim = block.timestamp - lastClaimed */\n      dup4\n        /* \"contracts/Template/Istanbul10/logic/Router.sol\":4915:4944  sinceLastClaim * feePerSecond */\n      tag_228\n      jump\t// in\n    tag_234:\n        /* \"contracts/Template/Istanbul10/logic/Router.sol\":4971:4986  block.timestamp */\n      timestamp\n        /* \"contracts/Template/Istanbul10/logic/Router.sol\":4957:4968  lastClaimed */\n      0x08\n        /* \"contracts/Template/Istanbul10/logic/Router.sol\":4957:4986  lastClaimed = block.timestamp */\n      sstore\n        /* \"contracts/Template/Istanbul10/logic/Router.sol\":5006:5011  vault */\n      sload(0x01)\n        /* \"contracts/Template/Istanbul10/logic/Router.sol\":5026:5033  curator */\n      sload(0x05)\n        /* \"contracts/Template/Istanbul10/logic/Router.sol\":4999:5047  IVault(vault).mintDivision(curator, curatorMint) */\n      mload(0x40)\n      shl(0xe1, 0x20e6b82d)\n      dup2\n      mstore\n      sub(shl(0xa0, 0x01), 0x01)\n        /* \"contracts/Template/Istanbul10/logic/Router.sol\":5026:5033  curator */\n      swap2\n      dup3\n      and\n        /* \"contracts/Template/Istanbul10/logic/Router.sol\":4999:5047  IVault(vault).mintDivision(curator, curatorMint) */\n      0x04\n      dup3\n      add\n        /* \"#utility.yul\":7873:7924   */\n      mstore\n        /* \"#utility.yul\":7940:7958   */\n      0x24\n      dup2\n      add\n        /* \"#utility.yul\":7933:7967   */\n      dup5\n      swap1\n      mstore\n        /* \"contracts/Template/Istanbul10/logic/Router.sol\":4893:4944  uint256 curatorMint = sinceLastClaim * feePerSecond */\n      swap3\n      swap4\n      pop\n        /* \"contracts/Template/Istanbul10/logic/Router.sol\":5006:5011  vault */\n      and\n      swap1\n        /* \"contracts/Template/Istanbul10/logic/Router.sol\":4999:5025  IVault(vault).mintDivision */\n      0x41cd705a\n      swap1\n        /* \"#utility.yul\":7846:7864   */\n      0x44\n      add\n        /* \"contracts/Template/Istanbul10/logic/Router.sol\":4999:5047  IVault(vault).mintDivision(curator, curatorMint) */\n      0x00\n      mload(0x40)\n      dup1\n      dup4\n      sub\n      dup2\n      0x00\n      dup8\n      dup1\n      extcodesize\n      iszero\n      dup1\n      iszero\n      tag_237\n      jumpi\n      0x00\n      dup1\n      revert\n    tag_237:\n      pop\n      gas\n      call\n      iszero\n      dup1\n      iszero\n      tag_239\n      jumpi\n      returndatasize\n      0x00\n      dup1\n      returndatacopy\n      revert(0x00, returndatasize)\n    tag_239:\n      pop\n      pop\n      pop\n      pop\n        /* \"contracts/Template/Istanbul10/logic/Router.sol\":4278:5056  {\r... */\n      pop\n      pop\n      pop\n      pop\n        /* \"contracts/Template/Istanbul10/logic/Router.sol\":4248:5056  function claimFees() external {\r... */\n      jump\t// out\n        /* \"contracts/Template/Istanbul10/logic/Router.sol\":3597:3720  function mintToScale(uint256 _supply ,address _mintTo) public onlyWhiteList{\r... */\n    tag_113:\n        /* \"contracts/Template/Istanbul10/logic/Router.sol\":7771:7781  msg.sender */\n      caller\n        /* \"contracts/Template/Istanbul10/logic/Router.sol\":7761:7782  whiteList[msg.sender] */\n      0x00\n      swap1\n      dup2\n      mstore\n        /* \"contracts/Template/Istanbul10/logic/Router.sol\":7761:7770  whiteList */\n      0x06\n        /* \"contracts/Template/Istanbul10/logic/Router.sol\":7761:7782  whiteList[msg.sender] */\n      0x20\n      mstore\n      0x40\n      swap1\n      keccak256\n      sload\n      0xff\n      and\n        /* \"contracts/Template/Istanbul10/logic/Router.sol\":7753:7818  require(whiteList[msg.sender],\"whiteList :: Address check error\") */\n      tag_241\n      jumpi\n      mload(0x40)\n      shl(0xe5, 0x461bcd)\n      dup2\n      mstore\n        /* \"#utility.yul\":13604:13606   */\n      0x20\n        /* \"contracts/Template/Istanbul10/logic/Router.sol\":7753:7818  require(whiteList[msg.sender],\"whiteList :: Address check error\") */\n      0x04\n      dup3\n      add\n        /* \"#utility.yul\":13586:13607   */\n      dup2\n      swap1\n      mstore\n        /* \"#utility.yul\":13623:13641   */\n      0x24\n      dup3\n      add\n        /* \"#utility.yul\":13616:13646   */\n      mstore\n        /* \"#utility.yul\":13682:13716   */\n      0x77686974654c697374203a3a204164647265737320636865636b206572726f72\n        /* \"#utility.yul\":13662:13680   */\n      0x44\n      dup3\n      add\n        /* \"#utility.yul\":13655:13717   */\n      mstore\n        /* \"#utility.yul\":13734:13752   */\n      0x64\n      add\n        /* \"contracts/Template/Istanbul10/logic/Router.sol\":7753:7818  require(whiteList[msg.sender],\"whiteList :: Address check error\") */\n      tag_138\n        /* \"#utility.yul\":13576:13758   */\n      jump\n        /* \"contracts/Template/Istanbul10/logic/Router.sol\":7753:7818  require(whiteList[msg.sender],\"whiteList :: Address check error\") */\n    tag_241:\n        /* \"contracts/Template/Istanbul10/logic/Router.sol\":3683:3712  _mintToScale(_supply,_mintTo) */\n      tag_244\n        /* \"contracts/Template/Istanbul10/logic/Router.sol\":3696:3703  _supply */\n      dup3\n        /* \"contracts/Template/Istanbul10/logic/Router.sol\":3704:3711  _mintTo */\n      dup3\n        /* \"contracts/Template/Istanbul10/logic/Router.sol\":3683:3695  _mintToScale */\n      tag_163\n        /* \"contracts/Template/Istanbul10/logic/Router.sol\":3683:3712  _mintToScale(_supply,_mintTo) */\n      jump\t// in\n    tag_244:\n        /* \"contracts/Template/Istanbul10/logic/Router.sol\":3597:3720  function mintToScale(uint256 _supply ,address _mintTo) public onlyWhiteList{\r... */\n      pop\n      pop\n      jump\t// out\n        /* \"contracts/Template/Istanbul10/logic/Router.sol\":6070:6494  function mintVault(string memory _name,string memory _symbol) private returns(address){\r... */\n    tag_141:\n        /* \"contracts/Template/Istanbul10/logic/Router.sol\":6148:6155  address */\n      0x00\n        /* \"contracts/Template/Istanbul10/logic/Router.sol\":6167:6203  bytes memory _initializationCalldata */\n      dup1\n        /* \"contracts/Template/Istanbul10/logic/Router.sol\":6286:6291  _name */\n      dup4\n        /* \"contracts/Template/Istanbul10/logic/Router.sol\":6306:6313  _symbol */\n      dup4\n        /* \"contracts/Template/Istanbul10/logic/Router.sol\":6206:6324  abi.encodeWithSignature(\r... */\n      add(0x24, mload(0x40))\n      tag_246\n      swap3\n      swap2\n      swap1\n      tag_247\n      jump\t// in\n    tag_246:\n      0x40\n      dup1\n      mload\n      not(0x1f)\n      dup2\n      dup5\n      sub\n      add\n      dup2\n      mstore\n      swap2\n      dup2\n      mstore\n      0x20\n      dup3\n      add\n      dup1\n      mload\n      sub(shl(0xe0, 0x01), 0x01)\n      and\n      shl(0xe1, 0x266c45bb)\n      or\n      swap1\n      mstore\n        /* \"contracts/Template/Istanbul10/logic/Router.sol\":6366:6475  new InitializedProxy(\r... */\n      mload\n        /* \"contracts/Template/Istanbul10/logic/Router.sol\":6206:6324  abi.encodeWithSignature(\r... */\n      swap1\n      swap2\n      pop\n        /* \"contracts/Template/Istanbul10/logic/Router.sol\":6405:6418  vaultTemplate */\n      immutable(\"0xa22c77fde226c01897a2fe21dd32df8d23478da0d66d0b2201f2b7d428b73cc4\")\n      swap1\n        /* \"contracts/Template/Istanbul10/logic/Router.sol\":6206:6324  abi.encodeWithSignature(\r... */\n      dup3\n      swap1\n        /* \"contracts/Template/Istanbul10/logic/Router.sol\":6366:6475  new InitializedProxy(\r... */\n      tag_248\n      swap1\n      tag_249\n      jump\t// in\n    tag_248:\n      tag_250\n      swap3\n      swap2\n      swap1\n      tag_251\n      jump\t// in\n    tag_250:\n      mload(0x40)\n      dup1\n      swap2\n      sub\n      swap1\n      0x00\n      create\n      dup1\n      iszero\n      dup1\n      iszero\n      tag_252\n      jumpi\n      returndatasize\n      0x00\n      dup1\n      returndatacopy\n      revert(0x00, returndatasize)\n    tag_252:\n      pop\n        /* \"contracts/Template/Istanbul10/logic/Router.sol\":6337:6486  return address(\r... */\n      swap5\n        /* \"contracts/Template/Istanbul10/logic/Router.sol\":6070:6494  function mintVault(string memory _name,string memory _symbol) private returns(address){\r... */\n      swap4\n      pop\n      pop\n      pop\n      pop\n      jump\t// out\n        /* \"contracts/Template/Istanbul10/logic/Router.sol\":7600:7709  function setWhiteList(address _whiteList,bool _bool) private {\r... */\n    tag_143:\n      sub(shl(0xa0, 0x01), 0x01)\n        /* \"contracts/Template/Istanbul10/logic/Router.sol\":7672:7693  whiteList[_whiteList] */\n      swap2\n      swap1\n      swap2\n      and\n      0x00\n      swap1\n      dup2\n      mstore\n        /* \"contracts/Template/Istanbul10/logic/Router.sol\":7672:7681  whiteList */\n      0x06\n        /* \"contracts/Template/Istanbul10/logic/Router.sol\":7672:7693  whiteList[_whiteList] */\n      0x20\n      mstore\n      0x40\n      swap1\n      keccak256\n        /* \"contracts/Template/Istanbul10/logic/Router.sol\":7672:7701  whiteList[_whiteList] = _bool */\n      dup1\n      sload\n      not(0xff)\n      and\n      swap2\n      iszero\n      iszero\n      swap2\n      swap1\n      swap2\n      or\n      swap1\n      sstore\n        /* \"contracts/Template/Istanbul10/logic/Router.sol\":7600:7709  function setWhiteList(address _whiteList,bool _bool) private {\r... */\n      jump\t// out\n        /* \"contracts/Template/Istanbul10/logic/Router.sol\":3322:3583  function mintContract() private {\r... */\n    tag_161:\n        /* \"contracts/Template/Istanbul10/logic/Router.sol\":3375:3388  mintVeToken() */\n      tag_255\n        /* \"contracts/Template/Istanbul10/logic/Router.sol\":3375:3386  mintVeToken */\n      tag_256\n        /* \"contracts/Template/Istanbul10/logic/Router.sol\":3375:3388  mintVeToken() */\n      jump\t// in\n    tag_255:\n        /* \"contracts/Template/Istanbul10/logic/Router.sol\":3365:3372  veToken */\n      0x02\n        /* \"contracts/Template/Istanbul10/logic/Router.sol\":3365:3388  veToken = mintVeToken() */\n      dup1\n      sload\n      not(sub(shl(0xa0, 0x01), 0x01))\n      and\n      sub(shl(0xa0, 0x01), 0x01)\n      swap3\n      swap1\n      swap3\n      and\n      swap2\n      dup3\n      or\n      swap1\n      sstore\n        /* \"contracts/Template/Istanbul10/logic/Router.sol\":3399:3426  setWhiteList(veToken, true) */\n      tag_257\n      swap1\n      0x01\n        /* \"contracts/Template/Istanbul10/logic/Router.sol\":3399:3411  setWhiteList */\n      tag_143\n        /* \"contracts/Template/Istanbul10/logic/Router.sol\":3399:3426  setWhiteList(veToken, true) */\n      jump\t// in\n    tag_257:\n        /* \"contracts/Template/Istanbul10/logic/Router.sol\":3449:3462  mintAuction() */\n      tag_258\n        /* \"contracts/Template/Istanbul10/logic/Router.sol\":3449:3460  mintAuction */\n      tag_259\n        /* \"contracts/Template/Istanbul10/logic/Router.sol\":3449:3462  mintAuction() */\n      jump\t// in\n    tag_258:\n        /* \"contracts/Template/Istanbul10/logic/Router.sol\":3439:3446  auction */\n      0x03\n        /* \"contracts/Template/Istanbul10/logic/Router.sol\":3439:3462  auction = mintAuction() */\n      dup1\n      sload\n      not(sub(shl(0xa0, 0x01), 0x01))\n      and\n      sub(shl(0xa0, 0x01), 0x01)\n      swap3\n      swap1\n      swap3\n      and\n      swap2\n      dup3\n      or\n      swap1\n      sstore\n        /* \"contracts/Template/Istanbul10/logic/Router.sol\":3473:3500  setWhiteList(auction, true) */\n      tag_260\n      swap1\n      0x01\n        /* \"contracts/Template/Istanbul10/logic/Router.sol\":3473:3485  setWhiteList */\n      tag_143\n        /* \"contracts/Template/Istanbul10/logic/Router.sol\":3473:3500  setWhiteList(auction, true) */\n      jump\t// in\n    tag_260:\n        /* \"contracts/Template/Istanbul10/logic/Router.sol\":3520:3530  mintVote() */\n      tag_261\n        /* \"contracts/Template/Istanbul10/logic/Router.sol\":3520:3528  mintVote */\n      tag_262\n        /* \"contracts/Template/Istanbul10/logic/Router.sol\":3520:3530  mintVote() */\n      jump\t// in\n    tag_261:\n        /* \"contracts/Template/Istanbul10/logic/Router.sol\":3513:3517  vote */\n      0x04\n        /* \"contracts/Template/Istanbul10/logic/Router.sol\":3513:3530  vote = mintVote() */\n      dup1\n      sload\n      not(sub(shl(0xa0, 0x01), 0x01))\n      and\n      sub(shl(0xa0, 0x01), 0x01)\n      swap3\n      swap1\n      swap3\n      and\n      swap2\n      dup3\n      or\n      swap1\n      sstore\n        /* \"contracts/Template/Istanbul10/logic/Router.sol\":3541:3565  setWhiteList(vote, true) */\n      tag_263\n      swap1\n      0x01\n        /* \"contracts/Template/Istanbul10/logic/Router.sol\":3541:3553  setWhiteList */\n      tag_143\n        /* \"contracts/Template/Istanbul10/logic/Router.sol\":3541:3565  setWhiteList(vote, true) */\n      jump\t// in\n    tag_263:\n        /* \"contracts/Template/Istanbul10/logic/Router.sol\":3322:3583  function mintContract() private {\r... */\n      jump\t// out\n        /* \"contracts/Template/Istanbul10/logic/Router.sol\":3728:4240  function _mintToScale(uint256 _supply ,address _mintTo) private {\r... */\n    tag_163:\n        /* \"contracts/Template/Istanbul10/logic/Router.sol\":3813:3820  _supply */\n      dup2\n        /* \"contracts/Template/Istanbul10/logic/Router.sol\":3803:3809  supply */\n      0x0c\n      0x00\n        /* \"contracts/Template/Istanbul10/logic/Router.sol\":3803:3820  supply += _supply */\n      dup3\n      dup3\n      sload\n      tag_265\n      swap2\n      swap1\n      tag_266\n      jump\t// in\n    tag_265:\n      swap1\n      swap2\n      sstore\n      pop\n        /* \"contracts/Template/Istanbul10/logic/Router.sol\":3833:3851  uint256 _govAmount */\n      0x00\n      swap1\n      pop\n        /* \"contracts/Template/Istanbul10/logic/Router.sol\":3854:3867  _supply / 100 */\n      tag_267\n        /* \"contracts/Template/Istanbul10/logic/Router.sol\":3864:3867  100 */\n      0x64\n        /* \"contracts/Template/Istanbul10/logic/Router.sol\":3854:3861  _supply */\n      dup5\n        /* \"contracts/Template/Istanbul10/logic/Router.sol\":3854:3867  _supply / 100 */\n      tag_230\n      jump\t// in\n    tag_267:\n        /* \"contracts/Template/Istanbul10/logic/Router.sol\":3833:3867  uint256 _govAmount = _supply / 100 */\n      swap1\n      pop\n        /* \"contracts/Template/Istanbul10/logic/Router.sol\":3878:3900  uint256 _reserveAmount */\n      0x00\n        /* \"contracts/Template/Istanbul10/logic/Router.sol\":3928:3931  100 */\n      0x64\n        /* \"contracts/Template/Istanbul10/logic/Router.sol\":3913:3925  reserveRatio */\n      sload(0x0a)\n        /* \"contracts/Template/Istanbul10/logic/Router.sol\":3903:3910  _supply */\n      dup6\n        /* \"contracts/Template/Istanbul10/logic/Router.sol\":3903:3925  _supply * reserveRatio */\n      tag_268\n      swap2\n      swap1\n      tag_228\n      jump\t// in\n    tag_268:\n        /* \"contracts/Template/Istanbul10/logic/Router.sol\":3903:3931  _supply * reserveRatio / 100 */\n      tag_269\n      swap2\n      swap1\n      tag_230\n      jump\t// in\n    tag_269:\n        /* \"contracts/Template/Istanbul10/logic/Router.sol\":3878:3931  uint256 _reserveAmount = _supply * reserveRatio / 100 */\n      swap1\n      pop\n        /* \"contracts/Template/Istanbul10/logic/Router.sol\":3942:3963  uint256 _targetAmount */\n      0x00\n        /* \"contracts/Template/Istanbul10/logic/Router.sol\":3878:3931  uint256 _reserveAmount = _supply * reserveRatio / 100 */\n      dup2\n        /* \"contracts/Template/Istanbul10/logic/Router.sol\":3966:3986  _supply - _govAmount */\n      tag_270\n        /* \"contracts/Template/Istanbul10/logic/Router.sol\":3976:3986  _govAmount */\n      dup5\n        /* \"contracts/Template/Istanbul10/logic/Router.sol\":3966:3973  _supply */\n      dup8\n        /* \"contracts/Template/Istanbul10/logic/Router.sol\":3966:3986  _supply - _govAmount */\n      tag_233\n      jump\t// in\n    tag_270:\n        /* \"contracts/Template/Istanbul10/logic/Router.sol\":3966:4003  _supply - _govAmount - _reserveAmount */\n      tag_271\n      swap2\n      swap1\n      tag_233\n      jump\t// in\n    tag_271:\n        /* \"contracts/Template/Istanbul10/logic/Router.sol\":3942:4003  uint256 _targetAmount = _supply - _govAmount - _reserveAmount */\n      swap1\n      pop\n        /* \"contracts/Template/Istanbul10/logic/Router.sol\":4033:4047  _reserveAmount */\n      dup2\n        /* \"contracts/Template/Istanbul10/logic/Router.sol\":4016:4029  reserveAmount */\n      0x0b\n      0x00\n        /* \"contracts/Template/Istanbul10/logic/Router.sol\":4016:4047  reserveAmount += _reserveAmount */\n      dup3\n      dup3\n      sload\n      tag_272\n      swap2\n      swap1\n      tag_266\n      jump\t// in\n    tag_272:\n      swap1\n      swap2\n      sstore\n      pop\n      pop\n        /* \"contracts/Template/Istanbul10/logic/Router.sol\":4089:4097  settings */\n      sload(0x09)\n        /* \"contracts/Template/Istanbul10/logic/Router.sol\":4079:4112  ISettings(settings).feeReceiver() */\n      0x40\n      dup1\n      mload\n      shl(0xe2, 0x2cfc019d)\n      dup2\n      mstore\n      swap1\n      mload\n        /* \"contracts/Template/Istanbul10/logic/Router.sol\":4058:4076  address govAddress */\n      0x00\n      swap3\n      sub(shl(0xa0, 0x01), 0x01)\n        /* \"contracts/Template/Istanbul10/logic/Router.sol\":4089:4097  settings */\n      and\n      swap2\n        /* \"contracts/Template/Istanbul10/logic/Router.sol\":4079:4110  ISettings(settings).feeReceiver */\n      0xb3f00674\n      swap2\n        /* \"contracts/Template/Istanbul10/logic/Router.sol\":4079:4112  ISettings(settings).feeReceiver() */\n      0x04\n      dup1\n      dup4\n      add\n      swap3\n      0x20\n      swap3\n      swap2\n      swap1\n      dup3\n      swap1\n      sub\n      add\n      dup2\n        /* \"contracts/Template/Istanbul10/logic/Router.sol\":4058:4076  address govAddress */\n      dup8\n        /* \"contracts/Template/Istanbul10/logic/Router.sol\":4089:4097  settings */\n      dup8\n        /* \"contracts/Template/Istanbul10/logic/Router.sol\":4079:4112  ISettings(settings).feeReceiver() */\n      dup1\n      extcodesize\n      iszero\n      dup1\n      iszero\n      tag_273\n      jumpi\n      0x00\n      dup1\n      revert\n    tag_273:\n      pop\n      gas\n      call\n      iszero\n      dup1\n      iszero\n      tag_275\n      jumpi\n      returndatasize\n      0x00\n      dup1\n      returndatacopy\n      revert(0x00, returndatasize)\n    tag_275:\n      pop\n      pop\n      pop\n      pop\n      mload(0x40)\n      returndatasize\n      not(0x1f)\n      0x1f\n      dup3\n      add\n      and\n      dup3\n      add\n      dup1\n      0x40\n      mstore\n      pop\n      dup2\n      add\n      swap1\n      tag_276\n      swap2\n      swap1\n      tag_277\n      jump\t// in\n    tag_276:\n        /* \"contracts/Template/Istanbul10/logic/Router.sol\":4130:4135  vault */\n      sload(0x01)\n        /* \"contracts/Template/Istanbul10/logic/Router.sol\":4123:4172  IVault(vault).mintDivision(govAddress,_govAmount) */\n      mload(0x40)\n      shl(0xe1, 0x20e6b82d)\n      dup2\n      mstore\n      sub(shl(0xa0, 0x01), 0x01)\n        /* \"#utility.yul\":7891:7923   */\n      dup1\n      dup5\n      and\n        /* \"contracts/Template/Istanbul10/logic/Router.sol\":4123:4172  IVault(vault).mintDivision(govAddress,_govAmount) */\n      0x04\n      dup4\n      add\n        /* \"#utility.yul\":7873:7924   */\n      mstore\n        /* \"#utility.yul\":7940:7958   */\n      0x24\n      dup3\n      add\n        /* \"#utility.yul\":7933:7967   */\n      dup9\n      swap1\n      mstore\n        /* \"contracts/Template/Istanbul10/logic/Router.sol\":4058:4112  address govAddress = ISettings(settings).feeReceiver() */\n      swap3\n      swap4\n      pop\n        /* \"contracts/Template/Istanbul10/logic/Router.sol\":4130:4135  vault */\n      swap2\n      and\n      swap1\n        /* \"contracts/Template/Istanbul10/logic/Router.sol\":4123:4149  IVault(vault).mintDivision */\n      0x41cd705a\n      swap1\n        /* \"#utility.yul\":7846:7864   */\n      0x44\n      add\n        /* \"contracts/Template/Istanbul10/logic/Router.sol\":4123:4172  IVault(vault).mintDivision(govAddress,_govAmount) */\n      0x00\n      mload(0x40)\n      dup1\n      dup4\n      sub\n      dup2\n      0x00\n      dup8\n      dup1\n      extcodesize\n      iszero\n      dup1\n      iszero\n      tag_279\n      jumpi\n      0x00\n      dup1\n      revert\n    tag_279:\n      pop\n      gas\n      call\n      iszero\n      dup1\n      iszero\n      tag_281\n      jumpi\n      returndatasize\n      0x00\n      dup1\n      returndatacopy\n      revert(0x00, returndatasize)\n    tag_281:\n      pop\n      pop\n        /* \"contracts/Template/Istanbul10/logic/Router.sol\":4190:4195  vault */\n      sload(0x01)\n        /* \"contracts/Template/Istanbul10/logic/Router.sol\":4183:4232  IVault(vault).mintDivision(_mintTo,_targetAmount) */\n      mload(0x40)\n      shl(0xe1, 0x20e6b82d)\n      dup2\n      mstore\n      sub(shl(0xa0, 0x01), 0x01)\n        /* \"#utility.yul\":7891:7923   */\n      dup10\n      dup2\n      and\n        /* \"contracts/Template/Istanbul10/logic/Router.sol\":4183:4232  IVault(vault).mintDivision(_mintTo,_targetAmount) */\n      0x04\n      dup4\n      add\n        /* \"#utility.yul\":7873:7924   */\n      mstore\n        /* \"#utility.yul\":7940:7958   */\n      0x24\n      dup3\n      add\n        /* \"#utility.yul\":7933:7967   */\n      dup8\n      swap1\n      mstore\n        /* \"contracts/Template/Istanbul10/logic/Router.sol\":4190:4195  vault */\n      swap1\n      swap2\n      and\n      swap3\n      pop\n        /* \"contracts/Template/Istanbul10/logic/Router.sol\":4183:4209  IVault(vault).mintDivision */\n      0x41cd705a\n      swap2\n      pop\n        /* \"#utility.yul\":7846:7864   */\n      0x44\n      add\n        /* \"contracts/Template/Istanbul10/logic/Router.sol\":4183:4232  IVault(vault).mintDivision(_mintTo,_targetAmount) */\n      0x00\n      mload(0x40)\n      dup1\n      dup4\n      sub\n      dup2\n      0x00\n      dup8\n      dup1\n      extcodesize\n      iszero\n      dup1\n      iszero\n      tag_283\n      jumpi\n      0x00\n      dup1\n      revert\n    tag_283:\n      pop\n      gas\n      call\n      iszero\n      dup1\n      iszero\n      tag_285\n      jumpi\n      returndatasize\n      0x00\n      dup1\n      returndatacopy\n      revert(0x00, returndatasize)\n    tag_285:\n      pop\n      pop\n      pop\n      pop\n        /* \"contracts/Template/Istanbul10/logic/Router.sol\":3792:4240  {\r... */\n      pop\n      pop\n      pop\n      pop\n        /* \"contracts/Template/Istanbul10/logic/Router.sol\":3728:4240  function _mintToScale(uint256 _supply ,address _mintTo) private {\r... */\n      pop\n      pop\n      jump\t// out\n        /* \"contracts/Template/Istanbul10/logic/Router.sol\":5702:6062  function mintVeToken() private returns(address) {\r... */\n    tag_256:\n        /* \"contracts/Template/Istanbul10/logic/Router.sol\":5874:5879  vault */\n      sload(0x01)\n        /* \"contracts/Template/Istanbul10/logic/Router.sol\":5800:5890  abi.encodeWithSignature(\r... */\n      mload(0x40)\n      sub(shl(0xa0, 0x01), 0x01)\n        /* \"contracts/Template/Istanbul10/logic/Router.sol\":5874:5879  vault */\n      swap1\n      swap2\n      and\n        /* \"contracts/Template/Istanbul10/logic/Router.sol\":5800:5890  abi.encodeWithSignature(\r... */\n      0x24\n      dup3\n      add\n        /* \"#utility.yul\":7009:7060   */\n      mstore\n        /* \"contracts/Template/Istanbul10/logic/Router.sol\":5741:5748  address */\n      0x00\n      swap1\n      dup2\n      swap1\n        /* \"#utility.yul\":6982:7000   */\n      0x44\n      add\n        /* \"contracts/Template/Istanbul10/logic/Router.sol\":5800:5890  abi.encodeWithSignature(\r... */\n      0x40\n      dup1\n      mload\n      not(0x1f)\n      dup2\n      dup5\n      sub\n      add\n      dup2\n      mstore\n      swap2\n      dup2\n      mstore\n      0x20\n      dup3\n      add\n      dup1\n      mload\n      sub(shl(0xe0, 0x01), 0x01)\n      and\n      shl(0xe3, 0x189acdbd)\n      or\n      swap1\n      mstore\n        /* \"contracts/Template/Istanbul10/logic/Router.sol\":5932:6043  new InitializedProxy(\r... */\n      mload\n        /* \"contracts/Template/Istanbul10/logic/Router.sol\":5800:5890  abi.encodeWithSignature(\r... */\n      swap1\n      swap2\n      pop\n        /* \"contracts/Template/Istanbul10/logic/Router.sol\":5971:5986  veTokenTemplate */\n      immutable(\"0x7ce5bcbaa570e6c26aabc2e17cbdf41b64b52824b9d0da4a1a221d2c48e00972\")\n      swap1\n        /* \"contracts/Template/Istanbul10/logic/Router.sol\":5800:5890  abi.encodeWithSignature(\r... */\n      dup3\n      swap1\n        /* \"contracts/Template/Istanbul10/logic/Router.sol\":5932:6043  new InitializedProxy(\r... */\n      tag_288\n      swap1\n      tag_249\n      jump\t// in\n    tag_288:\n      tag_289\n      swap3\n      swap2\n      swap1\n      tag_251\n      jump\t// in\n    tag_289:\n      mload(0x40)\n      dup1\n      swap2\n      sub\n      swap1\n      0x00\n      create\n      dup1\n      iszero\n      dup1\n      iszero\n      tag_290\n      jumpi\n      returndatasize\n      0x00\n      dup1\n      returndatacopy\n      revert(0x00, returndatasize)\n    tag_290:\n      pop\n        /* \"contracts/Template/Istanbul10/logic/Router.sol\":5903:6054  return address(\r... */\n      swap2\n      pop\n      pop\n        /* \"contracts/Template/Istanbul10/logic/Router.sol\":5702:6062  function mintVeToken() private returns(address) {\r... */\n      swap1\n      jump\t// out\n        /* \"contracts/Template/Istanbul10/logic/Router.sol\":6503:6835  function mintAuction() private returns(address){\r... */\n    tag_259:\n        /* \"contracts/Template/Istanbul10/logic/Router.sol\":6600:6663  abi.encodeWithSignature(\r... */\n      0x40\n      dup1\n      mload\n      0x04\n      dup2\n      mstore\n      0x24\n      dup2\n      add\n      dup3\n      mstore\n      0x20\n      dup2\n      add\n      dup1\n      mload\n      sub(shl(0xe0, 0x01), 0x01)\n      and\n      shl(0xe2, 0x204a7f07)\n      or\n      swap1\n      mstore\n        /* \"contracts/Template/Istanbul10/logic/Router.sol\":6705:6816  new InitializedProxy(\r... */\n      swap1\n      mload\n        /* \"contracts/Template/Istanbul10/logic/Router.sol\":6542:6549  address */\n      0x00\n      swap2\n        /* \"contracts/Template/Istanbul10/logic/Router.sol\":6600:6663  abi.encodeWithSignature(\r... */\n      swap1\n        /* \"contracts/Template/Istanbul10/logic/Router.sol\":6744:6759  auctionTemplate */\n      immutable(\"0x70f4a78a48f42acbe9d9cf154241836129f76f9f27af3a0407fc31364d9175fb\")\n      swap1\n        /* \"contracts/Template/Istanbul10/logic/Router.sol\":6600:6663  abi.encodeWithSignature(\r... */\n      dup3\n      swap1\n        /* \"contracts/Template/Istanbul10/logic/Router.sol\":6705:6816  new InitializedProxy(\r... */\n      tag_288\n      swap1\n      tag_249\n      jump\t// in\n        /* \"contracts/Template/Istanbul10/logic/Router.sol\":6844:7170  function mintVote() private returns(address){\r... */\n    tag_262:\n        /* \"contracts/Template/Istanbul10/logic/Router.sol\":6938:7001  abi.encodeWithSignature(\r... */\n      0x40\n      dup1\n      mload\n      0x04\n      dup2\n      mstore\n      0x24\n      dup2\n      add\n      dup3\n      mstore\n      0x20\n      dup2\n      add\n      dup1\n      mload\n      sub(shl(0xe0, 0x01), 0x01)\n      and\n      shl(0xe2, 0x204a7f07)\n      or\n      swap1\n      mstore\n        /* \"contracts/Template/Istanbul10/logic/Router.sol\":7043:7151  new InitializedProxy(\r... */\n      swap1\n      mload\n        /* \"contracts/Template/Istanbul10/logic/Router.sol\":6880:6887  address */\n      0x00\n      swap2\n        /* \"contracts/Template/Istanbul10/logic/Router.sol\":6938:7001  abi.encodeWithSignature(\r... */\n      swap1\n        /* \"contracts/Template/Istanbul10/logic/Router.sol\":7082:7094  voteTemplate */\n      immutable(\"0xdb072343100f296808a89800074fd25b631d8ed87ec8840b6f4e49399eea800f\")\n      swap1\n        /* \"contracts/Template/Istanbul10/logic/Router.sol\":6938:7001  abi.encodeWithSignature(\r... */\n      dup3\n      swap1\n        /* \"contracts/Template/Istanbul10/logic/Router.sol\":7043:7151  new InitializedProxy(\r... */\n      tag_288\n      swap1\n    tag_249:\n      dataSize(sub_0)\n      dup1\n      dataOffset(sub_0)\n      dup4\n      codecopy\n      add\n      swap1\n      jump\t// out\n        /* \"#utility.yul\":14:687   */\n    tag_300:\n        /* \"#utility.yul\":68:73   */\n      0x00\n        /* \"#utility.yul\":121:124   */\n      dup3\n        /* \"#utility.yul\":114:118   */\n      0x1f\n        /* \"#utility.yul\":106:112   */\n      dup4\n        /* \"#utility.yul\":102:119   */\n      add\n        /* \"#utility.yul\":98:125   */\n      slt\n        /* \"#utility.yul\":88:90   */\n      tag_302\n      jumpi\n        /* \"#utility.yul\":139:140   */\n      0x00\n        /* \"#utility.yul\":136:137   */\n      dup1\n        /* \"#utility.yul\":129:141   */\n      revert\n        /* \"#utility.yul\":88:90   */\n    tag_302:\n        /* \"#utility.yul\":175:181   */\n      dup2\n        /* \"#utility.yul\":162:182   */\n      calldataload\n        /* \"#utility.yul\":201:205   */\n      0x20\n        /* \"#utility.yul\":225:285   */\n      tag_303\n        /* \"#utility.yul\":241:284   */\n      tag_304\n        /* \"#utility.yul\":281:283   */\n      dup4\n        /* \"#utility.yul\":241:284   */\n      tag_305\n      jump\t// in\n    tag_304:\n        /* \"#utility.yul\":225:285   */\n      tag_306\n      jump\t// in\n    tag_303:\n        /* \"#utility.yul\":307:310   */\n      dup1\n        /* \"#utility.yul\":331:333   */\n      dup4\n        /* \"#utility.yul\":326:329   */\n      dup3\n        /* \"#utility.yul\":319:334   */\n      mstore\n        /* \"#utility.yul\":359:361   */\n      dup3\n        /* \"#utility.yul\":354:357   */\n      dup3\n        /* \"#utility.yul\":350:362   */\n      add\n        /* \"#utility.yul\":343:362   */\n      swap2\n      pop\n        /* \"#utility.yul\":394:396   */\n      dup3\n        /* \"#utility.yul\":386:392   */\n      dup7\n        /* \"#utility.yul\":382:397   */\n      add\n        /* \"#utility.yul\":446:449   */\n      dup8\n        /* \"#utility.yul\":441:443   */\n      dup5\n        /* \"#utility.yul\":435:437   */\n      dup7\n        /* \"#utility.yul\":432:433   */\n      0x05\n        /* \"#utility.yul\":428:438   */\n      shl\n        /* \"#utility.yul\":420:426   */\n      dup10\n        /* \"#utility.yul\":416:439   */\n      add\n        /* \"#utility.yul\":412:444   */\n      add\n        /* \"#utility.yul\":409:450   */\n      gt\n        /* \"#utility.yul\":406:408   */\n      iszero\n      tag_307\n      jumpi\n        /* \"#utility.yul\":463:464   */\n      0x00\n        /* \"#utility.yul\":460:461   */\n      dup1\n        /* \"#utility.yul\":453:465   */\n      revert\n        /* \"#utility.yul\":406:408   */\n    tag_307:\n        /* \"#utility.yul\":485:486   */\n      0x00\n        /* \"#utility.yul\":495:658   */\n    tag_308:\n        /* \"#utility.yul\":509:511   */\n      dup6\n        /* \"#utility.yul\":506:507   */\n      dup2\n        /* \"#utility.yul\":503:512   */\n      lt\n        /* \"#utility.yul\":495:658   */\n      iszero\n      tag_310\n      jumpi\n        /* \"#utility.yul\":566:583   */\n      dup2\n      calldataload\n        /* \"#utility.yul\":554:584   */\n      dup5\n      mstore\n        /* \"#utility.yul\":604:616   */\n      swap3\n      dup5\n      add\n      swap3\n        /* \"#utility.yul\":636:648   */\n      swap1\n      dup5\n      add\n      swap1\n        /* \"#utility.yul\":527:528   */\n      0x01\n        /* \"#utility.yul\":520:529   */\n      add\n        /* \"#utility.yul\":495:658   */\n      jump(tag_308)\n    tag_310:\n      pop\n        /* \"#utility.yul\":676:681   */\n      swap1\n      swap8\n        /* \"#utility.yul\":78:687   */\n      swap7\n      pop\n      pop\n      pop\n      pop\n      pop\n      pop\n      pop\n      jump\t// out\n        /* \"#utility.yul\":692:1223   */\n    tag_311:\n        /* \"#utility.yul\":735:740   */\n      0x00\n        /* \"#utility.yul\":788:791   */\n      dup3\n        /* \"#utility.yul\":781:785   */\n      0x1f\n        /* \"#utility.yul\":773:779   */\n      dup4\n        /* \"#utility.yul\":769:786   */\n      add\n        /* \"#utility.yul\":765:792   */\n      slt\n        /* \"#utility.yul\":755:757   */\n      tag_313\n      jumpi\n        /* \"#utility.yul\":806:807   */\n      0x00\n        /* \"#utility.yul\":803:804   */\n      dup1\n        /* \"#utility.yul\":796:808   */\n      revert\n        /* \"#utility.yul\":755:757   */\n    tag_313:\n        /* \"#utility.yul\":842:848   */\n      dup2\n        /* \"#utility.yul\":829:849   */\n      calldataload\n        /* \"#utility.yul\":868:886   */\n      0xffffffffffffffff\n        /* \"#utility.yul\":864:866   */\n      dup2\n        /* \"#utility.yul\":861:887   */\n      gt\n        /* \"#utility.yul\":858:860   */\n      iszero\n      tag_315\n      jumpi\n        /* \"#utility.yul\":890:908   */\n      tag_315\n      tag_316\n      jump\t// in\n    tag_315:\n        /* \"#utility.yul\":934:989   */\n      tag_317\n        /* \"#utility.yul\":977:979   */\n      0x1f\n        /* \"#utility.yul\":958:971   */\n      dup3\n      add\n      not(0x1f)\n        /* \"#utility.yul\":954:981   */\n      and\n        /* \"#utility.yul\":983:987   */\n      0x20\n        /* \"#utility.yul\":950:988   */\n      add\n        /* \"#utility.yul\":934:989   */\n      tag_306\n      jump\t// in\n    tag_317:\n        /* \"#utility.yul\":1014:1016   */\n      dup2\n        /* \"#utility.yul\":1005:1012   */\n      dup2\n        /* \"#utility.yul\":998:1017   */\n      mstore\n        /* \"#utility.yul\":1060:1063   */\n      dup5\n        /* \"#utility.yul\":1053:1057   */\n      0x20\n        /* \"#utility.yul\":1048:1050   */\n      dup4\n        /* \"#utility.yul\":1040:1046   */\n      dup7\n        /* \"#utility.yul\":1036:1051   */\n      add\n        /* \"#utility.yul\":1032:1058   */\n      add\n        /* \"#utility.yul\":1029:1064   */\n      gt\n        /* \"#utility.yul\":1026:1028   */\n      iszero\n      tag_318\n      jumpi\n        /* \"#utility.yul\":1077:1078   */\n      0x00\n        /* \"#utility.yul\":1074:1075   */\n      dup1\n        /* \"#utility.yul\":1067:1079   */\n      revert\n        /* \"#utility.yul\":1026:1028   */\n    tag_318:\n        /* \"#utility.yul\":1142:1144   */\n      dup2\n        /* \"#utility.yul\":1135:1139   */\n      0x20\n        /* \"#utility.yul\":1127:1133   */\n      dup6\n        /* \"#utility.yul\":1123:1140   */\n      add\n        /* \"#utility.yul\":1116:1120   */\n      0x20\n        /* \"#utility.yul\":1107:1114   */\n      dup4\n        /* \"#utility.yul\":1103:1121   */\n      add\n        /* \"#utility.yul\":1090:1145   */\n      calldatacopy\n        /* \"#utility.yul\":1190:1191   */\n      0x00\n        /* \"#utility.yul\":1165:1181   */\n      swap2\n      dup2\n      add\n        /* \"#utility.yul\":1183:1187   */\n      0x20\n        /* \"#utility.yul\":1161:1188   */\n      add\n        /* \"#utility.yul\":1154:1192   */\n      swap2\n      swap1\n      swap2\n      mstore\n        /* \"#utility.yul\":1169:1176   */\n      swap4\n        /* \"#utility.yul\":745:1223   */\n      swap3\n      pop\n      pop\n      pop\n      jump\t// out\n        /* \"#utility.yul\":1228:1475   */\n    tag_63:\n        /* \"#utility.yul\":1287:1293   */\n      0x00\n        /* \"#utility.yul\":1340:1342   */\n      0x20\n        /* \"#utility.yul\":1328:1337   */\n      dup3\n        /* \"#utility.yul\":1319:1326   */\n      dup5\n        /* \"#utility.yul\":1315:1338   */\n      sub\n        /* \"#utility.yul\":1311:1343   */\n      slt\n        /* \"#utility.yul\":1308:1310   */\n      iszero\n      tag_320\n      jumpi\n        /* \"#utility.yul\":1356:1357   */\n      0x00\n        /* \"#utility.yul\":1353:1354   */\n      dup1\n        /* \"#utility.yul\":1346:1358   */\n      revert\n        /* \"#utility.yul\":1308:1310   */\n    tag_320:\n        /* \"#utility.yul\":1395:1404   */\n      dup2\n        /* \"#utility.yul\":1382:1405   */\n      calldataload\n        /* \"#utility.yul\":1414:1445   */\n      tag_321\n        /* \"#utility.yul\":1439:1444   */\n      dup2\n        /* \"#utility.yul\":1414:1445   */\n      tag_322\n      jump\t// in\n    tag_321:\n        /* \"#utility.yul\":1464:1469   */\n      swap4\n        /* \"#utility.yul\":1298:1475   */\n      swap3\n      pop\n      pop\n      pop\n      jump\t// out\n        /* \"#utility.yul\":1480:1739   */\n    tag_277:\n        /* \"#utility.yul\":1558:1564   */\n      0x00\n        /* \"#utility.yul\":1611:1613   */\n      0x20\n        /* \"#utility.yul\":1599:1608   */\n      dup3\n        /* \"#utility.yul\":1590:1597   */\n      dup5\n        /* \"#utility.yul\":1586:1609   */\n      sub\n        /* \"#utility.yul\":1582:1614   */\n      slt\n        /* \"#utility.yul\":1579:1581   */\n      iszero\n      tag_324\n      jumpi\n        /* \"#utility.yul\":1627:1628   */\n      0x00\n        /* \"#utility.yul\":1624:1625   */\n      dup1\n        /* \"#utility.yul\":1617:1629   */\n      revert\n        /* \"#utility.yul\":1579:1581   */\n    tag_324:\n        /* \"#utility.yul\":1659:1668   */\n      dup2\n        /* \"#utility.yul\":1653:1669   */\n      mload\n        /* \"#utility.yul\":1678:1709   */\n      tag_321\n        /* \"#utility.yul\":1703:1708   */\n      dup2\n        /* \"#utility.yul\":1678:1709   */\n      tag_322\n      jump\t// in\n        /* \"#utility.yul\":1744:2564   */\n    tag_59:\n        /* \"#utility.yul\":1850:1856   */\n      0x00\n        /* \"#utility.yul\":1858:1864   */\n      dup1\n        /* \"#utility.yul\":1866:1872   */\n      0x00\n        /* \"#utility.yul\":1874:1880   */\n      dup1\n        /* \"#utility.yul\":1927:1930   */\n      0x80\n        /* \"#utility.yul\":1915:1924   */\n      dup6\n        /* \"#utility.yul\":1906:1913   */\n      dup8\n        /* \"#utility.yul\":1902:1925   */\n      sub\n        /* \"#utility.yul\":1898:1931   */\n      slt\n        /* \"#utility.yul\":1895:1897   */\n      iszero\n      tag_327\n      jumpi\n        /* \"#utility.yul\":1944:1945   */\n      0x00\n        /* \"#utility.yul\":1941:1942   */\n      dup1\n        /* \"#utility.yul\":1934:1946   */\n      revert\n        /* \"#utility.yul\":1895:1897   */\n    tag_327:\n        /* \"#utility.yul\":1983:1992   */\n      dup5\n        /* \"#utility.yul\":1970:1993   */\n      calldataload\n        /* \"#utility.yul\":2002:2033   */\n      tag_328\n        /* \"#utility.yul\":2027:2032   */\n      dup2\n        /* \"#utility.yul\":2002:2033   */\n      tag_322\n      jump\t// in\n    tag_328:\n        /* \"#utility.yul\":2052:2057   */\n      swap4\n      pop\n        /* \"#utility.yul\":2109:2111   */\n      0x20\n        /* \"#utility.yul\":2094:2112   */\n      dup6\n      add\n        /* \"#utility.yul\":2081:2113   */\n      calldataload\n        /* \"#utility.yul\":2122:2155   */\n      tag_329\n        /* \"#utility.yul\":2081:2113   */\n      dup2\n        /* \"#utility.yul\":2122:2155   */\n      tag_322\n      jump\t// in\n    tag_329:\n        /* \"#utility.yul\":2174:2181   */\n      swap3\n      pop\n        /* \"#utility.yul\":2232:2234   */\n      0x40\n        /* \"#utility.yul\":2217:2235   */\n      dup6\n      add\n        /* \"#utility.yul\":2204:2236   */\n      calldataload\n        /* \"#utility.yul\":2255:2273   */\n      0xffffffffffffffff\n        /* \"#utility.yul\":2285:2299   */\n      dup1\n      dup3\n      gt\n        /* \"#utility.yul\":2282:2284   */\n      iszero\n      tag_330\n      jumpi\n        /* \"#utility.yul\":2312:2313   */\n      0x00\n        /* \"#utility.yul\":2309:2310   */\n      dup1\n        /* \"#utility.yul\":2302:2314   */\n      revert\n        /* \"#utility.yul\":2282:2284   */\n    tag_330:\n        /* \"#utility.yul\":2335:2385   */\n      tag_331\n        /* \"#utility.yul\":2377:2384   */\n      dup9\n        /* \"#utility.yul\":2368:2374   */\n      dup4\n        /* \"#utility.yul\":2357:2366   */\n      dup10\n        /* \"#utility.yul\":2353:2375   */\n      add\n        /* \"#utility.yul\":2335:2385   */\n      tag_311\n      jump\t// in\n    tag_331:\n        /* \"#utility.yul\":2325:2385   */\n      swap4\n      pop\n        /* \"#utility.yul\":2438:2440   */\n      0x60\n        /* \"#utility.yul\":2427:2436   */\n      dup8\n        /* \"#utility.yul\":2423:2441   */\n      add\n        /* \"#utility.yul\":2410:2442   */\n      calldataload\n        /* \"#utility.yul\":2394:2442   */\n      swap2\n      pop\n        /* \"#utility.yul\":2467:2469   */\n      dup1\n        /* \"#utility.yul\":2457:2465   */\n      dup3\n        /* \"#utility.yul\":2454:2470   */\n      gt\n        /* \"#utility.yul\":2451:2453   */\n      iszero\n      tag_332\n      jumpi\n        /* \"#utility.yul\":2483:2484   */\n      0x00\n        /* \"#utility.yul\":2480:2481   */\n      dup1\n        /* \"#utility.yul\":2473:2485   */\n      revert\n        /* \"#utility.yul\":2451:2453   */\n    tag_332:\n      pop\n        /* \"#utility.yul\":2506:2558   */\n      tag_333\n        /* \"#utility.yul\":2550:2557   */\n      dup8\n        /* \"#utility.yul\":2539:2547   */\n      dup3\n        /* \"#utility.yul\":2528:2537   */\n      dup9\n        /* \"#utility.yul\":2524:2548   */\n      add\n        /* \"#utility.yul\":2506:2558   */\n      tag_311\n      jump\t// in\n    tag_333:\n        /* \"#utility.yul\":2496:2558   */\n      swap2\n      pop\n      pop\n        /* \"#utility.yul\":1885:2564   */\n      swap3\n      swap6\n      swap2\n      swap5\n      pop\n      swap3\n      pop\n      jump\t// out\n        /* \"#utility.yul\":2569:4021   */\n    tag_106:\n        /* \"#utility.yul\":2721:2727   */\n      0x00\n        /* \"#utility.yul\":2729:2735   */\n      dup1\n        /* \"#utility.yul\":2737:2743   */\n      0x00\n        /* \"#utility.yul\":2790:2792   */\n      0x60\n        /* \"#utility.yul\":2778:2787   */\n      dup5\n        /* \"#utility.yul\":2769:2776   */\n      dup7\n        /* \"#utility.yul\":2765:2788   */\n      sub\n        /* \"#utility.yul\":2761:2793   */\n      slt\n        /* \"#utility.yul\":2758:2760   */\n      iszero\n      tag_335\n      jumpi\n        /* \"#utility.yul\":2806:2807   */\n      0x00\n        /* \"#utility.yul\":2803:2804   */\n      dup1\n        /* \"#utility.yul\":2796:2808   */\n      revert\n        /* \"#utility.yul\":2758:2760   */\n    tag_335:\n        /* \"#utility.yul\":2846:2855   */\n      dup4\n        /* \"#utility.yul\":2833:2856   */\n      calldataload\n        /* \"#utility.yul\":2875:2893   */\n      0xffffffffffffffff\n        /* \"#utility.yul\":2916:2918   */\n      dup1\n        /* \"#utility.yul\":2908:2914   */\n      dup3\n        /* \"#utility.yul\":2905:2919   */\n      gt\n        /* \"#utility.yul\":2902:2904   */\n      iszero\n      tag_336\n      jumpi\n        /* \"#utility.yul\":2932:2933   */\n      0x00\n        /* \"#utility.yul\":2929:2930   */\n      dup1\n        /* \"#utility.yul\":2922:2934   */\n      revert\n        /* \"#utility.yul\":2902:2904   */\n    tag_336:\n        /* \"#utility.yul\":2970:2976   */\n      dup2\n        /* \"#utility.yul\":2959:2968   */\n      dup7\n        /* \"#utility.yul\":2955:2977   */\n      add\n        /* \"#utility.yul\":2945:2977   */\n      swap2\n      pop\n        /* \"#utility.yul\":3015:3022   */\n      dup7\n        /* \"#utility.yul\":3008:3012   */\n      0x1f\n        /* \"#utility.yul\":3004:3006   */\n      dup4\n        /* \"#utility.yul\":3000:3013   */\n      add\n        /* \"#utility.yul\":2996:3023   */\n      slt\n        /* \"#utility.yul\":2986:2988   */\n      tag_337\n      jumpi\n        /* \"#utility.yul\":3037:3038   */\n      0x00\n        /* \"#utility.yul\":3034:3035   */\n      dup1\n        /* \"#utility.yul\":3027:3039   */\n      revert\n        /* \"#utility.yul\":2986:2988   */\n    tag_337:\n        /* \"#utility.yul\":3073:3075   */\n      dup2\n        /* \"#utility.yul\":3060:3076   */\n      calldataload\n        /* \"#utility.yul\":3095:3099   */\n      0x20\n        /* \"#utility.yul\":3119:3179   */\n      tag_338\n        /* \"#utility.yul\":3135:3178   */\n      tag_304\n        /* \"#utility.yul\":3175:3177   */\n      dup4\n        /* \"#utility.yul\":3135:3178   */\n      tag_305\n      jump\t// in\n        /* \"#utility.yul\":3119:3179   */\n    tag_338:\n        /* \"#utility.yul\":3201:3204   */\n      dup1\n        /* \"#utility.yul\":3225:3227   */\n      dup4\n        /* \"#utility.yul\":3220:3223   */\n      dup3\n        /* \"#utility.yul\":3213:3228   */\n      mstore\n        /* \"#utility.yul\":3253:3255   */\n      dup3\n        /* \"#utility.yul\":3248:3251   */\n      dup3\n        /* \"#utility.yul\":3244:3256   */\n      add\n        /* \"#utility.yul\":3237:3256   */\n      swap2\n      pop\n        /* \"#utility.yul\":3284:3286   */\n      dup3\n        /* \"#utility.yul\":3280:3282   */\n      dup7\n        /* \"#utility.yul\":3276:3287   */\n      add\n        /* \"#utility.yul\":3332:3339   */\n      dup12\n        /* \"#utility.yul\":3327:3329   */\n      dup5\n        /* \"#utility.yul\":3321:3323   */\n      dup7\n        /* \"#utility.yul\":3318:3319   */\n      0x05\n        /* \"#utility.yul\":3314:3324   */\n      shl\n        /* \"#utility.yul\":3310:3312   */\n      dup10\n        /* \"#utility.yul\":3306:3325   */\n      add\n        /* \"#utility.yul\":3302:3330   */\n      add\n        /* \"#utility.yul\":3299:3340   */\n      gt\n        /* \"#utility.yul\":3296:3298   */\n      iszero\n      tag_340\n      jumpi\n        /* \"#utility.yul\":3353:3354   */\n      0x00\n        /* \"#utility.yul\":3350:3351   */\n      dup1\n        /* \"#utility.yul\":3343:3355   */\n      revert\n        /* \"#utility.yul\":3296:3298   */\n    tag_340:\n        /* \"#utility.yul\":3375:3376   */\n      0x00\n        /* \"#utility.yul\":3366:3376   */\n      swap7\n      pop\n        /* \"#utility.yul\":3385:3623   */\n    tag_341:\n        /* \"#utility.yul\":3399:3401   */\n      dup5\n        /* \"#utility.yul\":3396:3397   */\n      dup8\n        /* \"#utility.yul\":3393:3402   */\n      lt\n        /* \"#utility.yul\":3385:3623   */\n      iszero\n      tag_343\n      jumpi\n        /* \"#utility.yul\":3470:3473   */\n      dup1\n        /* \"#utility.yul\":3457:3474   */\n      calldataload\n        /* \"#utility.yul\":3487:3518   */\n      tag_344\n        /* \"#utility.yul\":3512:3517   */\n      dup2\n        /* \"#utility.yul\":3487:3518   */\n      tag_322\n      jump\t// in\n    tag_344:\n        /* \"#utility.yul\":3531:3549   */\n      dup4\n      mstore\n        /* \"#utility.yul\":3417:3418   */\n      0x01\n        /* \"#utility.yul\":3410:3419   */\n      swap7\n      swap1\n      swap7\n      add\n      swap6\n        /* \"#utility.yul\":3569:3581   */\n      swap2\n      dup4\n      add\n      swap2\n        /* \"#utility.yul\":3601:3613   */\n      dup4\n      add\n        /* \"#utility.yul\":3385:3623   */\n      jump(tag_341)\n    tag_343:\n      pop\n        /* \"#utility.yul\":3642:3647   */\n      swap8\n      pop\n      pop\n        /* \"#utility.yul\":3685:3703   */\n      dup8\n      add\n        /* \"#utility.yul\":3672:3704   */\n      calldataload\n      swap3\n      pop\n      pop\n        /* \"#utility.yul\":3716:3732   */\n      dup1\n      dup3\n      gt\n        /* \"#utility.yul\":3713:3715   */\n      iszero\n      tag_345\n      jumpi\n        /* \"#utility.yul\":3745:3746   */\n      0x00\n        /* \"#utility.yul\":3742:3743   */\n      dup1\n        /* \"#utility.yul\":3735:3747   */\n      revert\n        /* \"#utility.yul\":3713:3715   */\n    tag_345:\n        /* \"#utility.yul\":3768:3831   */\n      tag_346\n        /* \"#utility.yul\":3823:3830   */\n      dup8\n        /* \"#utility.yul\":3812:3820   */\n      dup4\n        /* \"#utility.yul\":3801:3810   */\n      dup9\n        /* \"#utility.yul\":3797:3821   */\n      add\n        /* \"#utility.yul\":3768:3831   */\n      tag_300\n      jump\t// in\n    tag_346:\n        /* \"#utility.yul\":3758:3831   */\n      swap4\n      pop\n        /* \"#utility.yul\":3884:3886   */\n      0x40\n        /* \"#utility.yul\":3873:3882   */\n      dup7\n        /* \"#utility.yul\":3869:3887   */\n      add\n        /* \"#utility.yul\":3856:3888   */\n      calldataload\n        /* \"#utility.yul\":3840:3888   */\n      swap2\n      pop\n        /* \"#utility.yul\":3913:3915   */\n      dup1\n        /* \"#utility.yul\":3903:3911   */\n      dup3\n        /* \"#utility.yul\":3900:3916   */\n      gt\n        /* \"#utility.yul\":3897:3899   */\n      iszero\n      tag_347\n      jumpi\n        /* \"#utility.yul\":3929:3930   */\n      0x00\n        /* \"#utility.yul\":3926:3927   */\n      dup1\n        /* \"#utility.yul\":3919:3931   */\n      revert\n        /* \"#utility.yul\":3897:3899   */\n    tag_347:\n      pop\n        /* \"#utility.yul\":3952:4015   */\n      tag_348\n        /* \"#utility.yul\":4007:4014   */\n      dup7\n        /* \"#utility.yul\":3996:4004   */\n      dup3\n        /* \"#utility.yul\":3985:3994   */\n      dup8\n        /* \"#utility.yul\":3981:4005   */\n      add\n        /* \"#utility.yul\":3952:4015   */\n      tag_300\n      jump\t// in\n    tag_348:\n        /* \"#utility.yul\":3942:4015   */\n      swap2\n      pop\n      pop\n        /* \"#utility.yul\":2748:4021   */\n      swap3\n      pop\n      swap3\n      pop\n      swap3\n      jump\t// out\n        /* \"#utility.yul\":4026:4303   */\n    tag_180:\n        /* \"#utility.yul\":4093:4099   */\n      0x00\n        /* \"#utility.yul\":4146:4148   */\n      0x20\n        /* \"#utility.yul\":4134:4143   */\n      dup3\n        /* \"#utility.yul\":4125:4132   */\n      dup5\n        /* \"#utility.yul\":4121:4144   */\n      sub\n        /* \"#utility.yul\":4117:4149   */\n      slt\n        /* \"#utility.yul\":4114:4116   */\n      iszero\n      tag_350\n      jumpi\n        /* \"#utility.yul\":4162:4163   */\n      0x00\n        /* \"#utility.yul\":4159:4160   */\n      dup1\n        /* \"#utility.yul\":4152:4164   */\n      revert\n        /* \"#utility.yul\":4114:4116   */\n    tag_350:\n        /* \"#utility.yul\":4194:4203   */\n      dup2\n        /* \"#utility.yul\":4188:4204   */\n      mload\n        /* \"#utility.yul\":4247:4252   */\n      dup1\n        /* \"#utility.yul\":4240:4253   */\n      iszero\n        /* \"#utility.yul\":4233:4254   */\n      iszero\n        /* \"#utility.yul\":4226:4231   */\n      dup2\n        /* \"#utility.yul\":4223:4255   */\n      eq\n        /* \"#utility.yul\":4213:4215   */\n      tag_321\n      jumpi\n        /* \"#utility.yul\":4269:4270   */\n      0x00\n        /* \"#utility.yul\":4266:4267   */\n      dup1\n        /* \"#utility.yul\":4259:4271   */\n      revert\n        /* \"#utility.yul\":4308:4581   */\n    tag_213:\n        /* \"#utility.yul\":4391:4397   */\n      0x00\n        /* \"#utility.yul\":4444:4446   */\n      0x20\n        /* \"#utility.yul\":4432:4441   */\n      dup3\n        /* \"#utility.yul\":4423:4430   */\n      dup5\n        /* \"#utility.yul\":4419:4442   */\n      sub\n        /* \"#utility.yul\":4415:4447   */\n      slt\n        /* \"#utility.yul\":4412:4414   */\n      iszero\n      tag_353\n      jumpi\n        /* \"#utility.yul\":4460:4461   */\n      0x00\n        /* \"#utility.yul\":4457:4458   */\n      dup1\n        /* \"#utility.yul\":4450:4462   */\n      revert\n        /* \"#utility.yul\":4412:4414   */\n    tag_353:\n        /* \"#utility.yul\":4492:4501   */\n      dup2\n        /* \"#utility.yul\":4486:4502   */\n      mload\n        /* \"#utility.yul\":4531:4532   */\n      0x03\n        /* \"#utility.yul\":4524:4529   */\n      dup2\n        /* \"#utility.yul\":4521:4533   */\n      lt\n        /* \"#utility.yul\":4511:4513   */\n      tag_321\n      jumpi\n        /* \"#utility.yul\":4547:4548   */\n      0x00\n        /* \"#utility.yul\":4544:4545   */\n      dup1\n        /* \"#utility.yul\":4537:4549   */\n      revert\n        /* \"#utility.yul\":4586:4770   */\n    tag_226:\n        /* \"#utility.yul\":4656:4662   */\n      0x00\n        /* \"#utility.yul\":4709:4711   */\n      0x20\n        /* \"#utility.yul\":4697:4706   */\n      dup3\n        /* \"#utility.yul\":4688:4695   */\n      dup5\n        /* \"#utility.yul\":4684:4707   */\n      sub\n        /* \"#utility.yul\":4680:4712   */\n      slt\n        /* \"#utility.yul\":4677:4679   */\n      iszero\n      tag_356\n      jumpi\n        /* \"#utility.yul\":4725:4726   */\n      0x00\n        /* \"#utility.yul\":4722:4723   */\n      dup1\n        /* \"#utility.yul\":4715:4727   */\n      revert\n        /* \"#utility.yul\":4677:4679   */\n    tag_356:\n      pop\n        /* \"#utility.yul\":4748:4764   */\n      mload\n      swap2\n        /* \"#utility.yul\":4667:4770   */\n      swap1\n      pop\n      jump\t// out\n        /* \"#utility.yul\":4775:5090   */\n    tag_112:\n        /* \"#utility.yul\":4843:4849   */\n      0x00\n        /* \"#utility.yul\":4851:4857   */\n      dup1\n        /* \"#utility.yul\":4904:4906   */\n      0x40\n        /* \"#utility.yul\":4892:4901   */\n      dup4\n        /* \"#utility.yul\":4883:4890   */\n      dup6\n        /* \"#utility.yul\":4879:4902   */\n      sub\n        /* \"#utility.yul\":4875:4907   */\n      slt\n        /* \"#utility.yul\":4872:4874   */\n      iszero\n      tag_358\n      jumpi\n        /* \"#utility.yul\":4920:4921   */\n      0x00\n        /* \"#utility.yul\":4917:4918   */\n      dup1\n        /* \"#utility.yul\":4910:4922   */\n      revert\n        /* \"#utility.yul\":4872:4874   */\n    tag_358:\n        /* \"#utility.yul\":4956:4965   */\n      dup3\n        /* \"#utility.yul\":4943:4966   */\n      calldataload\n        /* \"#utility.yul\":4933:4966   */\n      swap2\n      pop\n        /* \"#utility.yul\":5016:5018   */\n      0x20\n        /* \"#utility.yul\":5005:5014   */\n      dup4\n        /* \"#utility.yul\":5001:5019   */\n      add\n        /* \"#utility.yul\":4988:5020   */\n      calldataload\n        /* \"#utility.yul\":5029:5060   */\n      tag_359\n        /* \"#utility.yul\":5054:5059   */\n      dup2\n        /* \"#utility.yul\":5029:5060   */\n      tag_322\n      jump\t// in\n    tag_359:\n        /* \"#utility.yul\":5079:5084   */\n      dup1\n        /* \"#utility.yul\":5069:5084   */\n      swap2\n      pop\n      pop\n        /* \"#utility.yul\":4862:5090   */\n      swap3\n      pop\n      swap3\n      swap1\n      pop\n      jump\t// out\n        /* \"#utility.yul\":5095:5411   */\n    tag_96:\n        /* \"#utility.yul\":5172:5178   */\n      0x00\n        /* \"#utility.yul\":5180:5186   */\n      dup1\n        /* \"#utility.yul\":5188:5194   */\n      0x00\n        /* \"#utility.yul\":5241:5243   */\n      0x60\n        /* \"#utility.yul\":5229:5238   */\n      dup5\n        /* \"#utility.yul\":5220:5227   */\n      dup7\n        /* \"#utility.yul\":5216:5239   */\n      sub\n        /* \"#utility.yul\":5212:5244   */\n      slt\n        /* \"#utility.yul\":5209:5211   */\n      iszero\n      tag_361\n      jumpi\n        /* \"#utility.yul\":5257:5258   */\n      0x00\n        /* \"#utility.yul\":5254:5255   */\n      dup1\n        /* \"#utility.yul\":5247:5259   */\n      revert\n        /* \"#utility.yul\":5209:5211   */\n    tag_361:\n      pop\n      pop\n        /* \"#utility.yul\":5280:5303   */\n      dup2\n      calldataload\n      swap4\n        /* \"#utility.yul\":5350:5352   */\n      0x20\n        /* \"#utility.yul\":5335:5353   */\n      dup4\n      add\n        /* \"#utility.yul\":5322:5354   */\n      calldataload\n      swap4\n      pop\n        /* \"#utility.yul\":5401:5403   */\n      0x40\n        /* \"#utility.yul\":5386:5404   */\n      swap1\n      swap3\n      add\n        /* \"#utility.yul\":5373:5405   */\n      calldataload\n      swap2\n        /* \"#utility.yul\":5199:5411   */\n      swap1\n      pop\n      jump\t// out\n        /* \"#utility.yul\":5416:5877   */\n    tag_362:\n        /* \"#utility.yul\":5469:5472   */\n      0x00\n        /* \"#utility.yul\":5507:5512   */\n      dup2\n        /* \"#utility.yul\":5501:5513   */\n      mload\n        /* \"#utility.yul\":5534:5540   */\n      dup1\n        /* \"#utility.yul\":5529:5532   */\n      dup5\n        /* \"#utility.yul\":5522:5541   */\n      mstore\n        /* \"#utility.yul\":5560:5564   */\n      0x20\n        /* \"#utility.yul\":5589:5591   */\n      dup1\n        /* \"#utility.yul\":5584:5587   */\n      dup6\n        /* \"#utility.yul\":5580:5592   */\n      add\n        /* \"#utility.yul\":5573:5592   */\n      swap5\n      pop\n        /* \"#utility.yul\":5626:5628   */\n      dup1\n        /* \"#utility.yul\":5619:5624   */\n      dup5\n        /* \"#utility.yul\":5615:5629   */\n      add\n        /* \"#utility.yul\":5647:5648   */\n      0x00\n        /* \"#utility.yul\":5657:5852   */\n    tag_364:\n        /* \"#utility.yul\":5671:5677   */\n      dup4\n        /* \"#utility.yul\":5668:5669   */\n      dup2\n        /* \"#utility.yul\":5665:5678   */\n      lt\n        /* \"#utility.yul\":5657:5852   */\n      iszero\n      tag_366\n      jumpi\n        /* \"#utility.yul\":5736:5749   */\n      dup2\n      mload\n      sub(shl(0xa0, 0x01), 0x01)\n        /* \"#utility.yul\":5732:5771   */\n      and\n        /* \"#utility.yul\":5720:5772   */\n      dup8\n      mstore\n        /* \"#utility.yul\":5792:5804   */\n      swap6\n      dup3\n      add\n      swap6\n        /* \"#utility.yul\":5827:5842   */\n      swap1\n      dup3\n      add\n      swap1\n        /* \"#utility.yul\":5768:5769   */\n      0x01\n        /* \"#utility.yul\":5686:5695   */\n      add\n        /* \"#utility.yul\":5657:5852   */\n      jump(tag_364)\n    tag_366:\n      pop\n        /* \"#utility.yul\":5868:5871   */\n      swap5\n      swap6\n        /* \"#utility.yul\":5477:5877   */\n      swap5\n      pop\n      pop\n      pop\n      pop\n      pop\n      jump\t// out\n        /* \"#utility.yul\":5882:6317   */\n    tag_367:\n        /* \"#utility.yul\":5935:5938   */\n      0x00\n        /* \"#utility.yul\":5973:5978   */\n      dup2\n        /* \"#utility.yul\":5967:5979   */\n      mload\n        /* \"#utility.yul\":6000:6006   */\n      dup1\n        /* \"#utility.yul\":5995:5998   */\n      dup5\n        /* \"#utility.yul\":5988:6007   */\n      mstore\n        /* \"#utility.yul\":6026:6030   */\n      0x20\n        /* \"#utility.yul\":6055:6057   */\n      dup1\n        /* \"#utility.yul\":6050:6053   */\n      dup6\n        /* \"#utility.yul\":6046:6058   */\n      add\n        /* \"#utility.yul\":6039:6058   */\n      swap5\n      pop\n        /* \"#utility.yul\":6092:6094   */\n      dup1\n        /* \"#utility.yul\":6085:6090   */\n      dup5\n        /* \"#utility.yul\":6081:6095   */\n      add\n        /* \"#utility.yul\":6113:6114   */\n      0x00\n        /* \"#utility.yul\":6123:6292   */\n    tag_369:\n        /* \"#utility.yul\":6137:6143   */\n      dup4\n        /* \"#utility.yul\":6134:6135   */\n      dup2\n        /* \"#utility.yul\":6131:6144   */\n      lt\n        /* \"#utility.yul\":6123:6292   */\n      iszero\n      tag_366\n      jumpi\n        /* \"#utility.yul\":6198:6211   */\n      dup2\n      mload\n        /* \"#utility.yul\":6186:6212   */\n      dup8\n      mstore\n        /* \"#utility.yul\":6232:6244   */\n      swap6\n      dup3\n      add\n      swap6\n        /* \"#utility.yul\":6267:6282   */\n      swap1\n      dup3\n      add\n      swap1\n        /* \"#utility.yul\":6159:6160   */\n      0x01\n        /* \"#utility.yul\":6152:6161   */\n      add\n        /* \"#utility.yul\":6123:6292   */\n      jump(tag_369)\n        /* \"#utility.yul\":6322:6579   */\n    tag_372:\n        /* \"#utility.yul\":6363:6366   */\n      0x00\n        /* \"#utility.yul\":6401:6406   */\n      dup2\n        /* \"#utility.yul\":6395:6407   */\n      mload\n        /* \"#utility.yul\":6428:6434   */\n      dup1\n        /* \"#utility.yul\":6423:6426   */\n      dup5\n        /* \"#utility.yul\":6416:6435   */\n      mstore\n        /* \"#utility.yul\":6444:6507   */\n      tag_374\n        /* \"#utility.yul\":6500:6506   */\n      dup2\n        /* \"#utility.yul\":6493:6497   */\n      0x20\n        /* \"#utility.yul\":6488:6491   */\n      dup7\n        /* \"#utility.yul\":6484:6498   */\n      add\n        /* \"#utility.yul\":6477:6481   */\n      0x20\n        /* \"#utility.yul\":6470:6475   */\n      dup7\n        /* \"#utility.yul\":6466:6482   */\n      add\n        /* \"#utility.yul\":6444:6507   */\n      tag_375\n      jump\t// in\n    tag_374:\n        /* \"#utility.yul\":6561:6563   */\n      0x1f\n        /* \"#utility.yul\":6540:6555   */\n      add\n      not(0x1f)\n        /* \"#utility.yul\":6536:6565   */\n      and\n        /* \"#utility.yul\":6527:6566   */\n      swap3\n      swap1\n      swap3\n      add\n        /* \"#utility.yul\":6568:6572   */\n      0x20\n        /* \"#utility.yul\":6523:6573   */\n      add\n      swap3\n        /* \"#utility.yul\":6371:6579   */\n      swap2\n      pop\n      pop\n      jump\t// out\n        /* \"#utility.yul\":6584:6858   */\n    tag_185:\n        /* \"#utility.yul\":6713:6716   */\n      0x00\n        /* \"#utility.yul\":6751:6757   */\n      dup3\n        /* \"#utility.yul\":6745:6758   */\n      mload\n        /* \"#utility.yul\":6767:6820   */\n      tag_377\n        /* \"#utility.yul\":6813:6819   */\n      dup2\n        /* \"#utility.yul\":6808:6811   */\n      dup5\n        /* \"#utility.yul\":6801:6805   */\n      0x20\n        /* \"#utility.yul\":6793:6799   */\n      dup8\n        /* \"#utility.yul\":6789:6806   */\n      add\n        /* \"#utility.yul\":6767:6820   */\n      tag_375\n      jump\t// in\n    tag_377:\n        /* \"#utility.yul\":6836:6852   */\n      swap2\n      swap1\n      swap2\n      add\n      swap3\n        /* \"#utility.yul\":6721:6858   */\n      swap2\n      pop\n      pop\n      jump\t// out\n        /* \"#utility.yul\":7380:7694   */\n    tag_251:\n      sub(shl(0xa0, 0x01), 0x01)\n        /* \"#utility.yul\":7555:7587   */\n      dup4\n      and\n        /* \"#utility.yul\":7537:7588   */\n      dup2\n      mstore\n        /* \"#utility.yul\":7624:7626   */\n      0x40\n        /* \"#utility.yul\":7619:7621   */\n      0x20\n        /* \"#utility.yul\":7604:7622   */\n      dup3\n      add\n        /* \"#utility.yul\":7597:7627   */\n      dup2\n      swap1\n      mstore\n      0x00\n      swap1\n        /* \"#utility.yul\":7644:7688   */\n      tag_381\n      swap1\n        /* \"#utility.yul\":7669:7687   */\n      dup4\n      add\n        /* \"#utility.yul\":7661:7667   */\n      dup5\n        /* \"#utility.yul\":7644:7688   */\n      tag_372\n      jump\t// in\n    tag_381:\n        /* \"#utility.yul\":7636:7688   */\n      swap5\n        /* \"#utility.yul\":7527:7694   */\n      swap4\n      pop\n      pop\n      pop\n      pop\n      jump\t// out\n        /* \"#utility.yul\":7978:8647   */\n    tag_204:\n        /* \"#utility.yul\":8313:8315   */\n      0x60\n        /* \"#utility.yul\":8302:8311   */\n      dup2\n        /* \"#utility.yul\":8295:8316   */\n      mstore\n        /* \"#utility.yul\":8276:8280   */\n      0x00\n        /* \"#utility.yul\":8339:8395   */\n      tag_384\n        /* \"#utility.yul\":8391:8393   */\n      0x60\n        /* \"#utility.yul\":8380:8389   */\n      dup4\n        /* \"#utility.yul\":8376:8394   */\n      add\n        /* \"#utility.yul\":8368:8374   */\n      dup7\n        /* \"#utility.yul\":8339:8395   */\n      tag_362\n      jump\t// in\n    tag_384:\n        /* \"#utility.yul\":8443:8452   */\n      dup3\n        /* \"#utility.yul\":8435:8441   */\n      dup2\n        /* \"#utility.yul\":8431:8453   */\n      sub\n        /* \"#utility.yul\":8426:8428   */\n      0x20\n        /* \"#utility.yul\":8415:8424   */\n      dup5\n        /* \"#utility.yul\":8411:8429   */\n      add\n        /* \"#utility.yul\":8404:8454   */\n      mstore\n        /* \"#utility.yul\":8477:8521   */\n      tag_385\n        /* \"#utility.yul\":8514:8520   */\n      dup2\n        /* \"#utility.yul\":8506:8512   */\n      dup7\n        /* \"#utility.yul\":8477:8521   */\n      tag_367\n      jump\t// in\n    tag_385:\n        /* \"#utility.yul\":8463:8521   */\n      swap1\n      pop\n        /* \"#utility.yul\":8569:8578   */\n      dup3\n        /* \"#utility.yul\":8561:8567   */\n      dup2\n        /* \"#utility.yul\":8557:8579   */\n      sub\n        /* \"#utility.yul\":8552:8554   */\n      0x40\n        /* \"#utility.yul\":8541:8550   */\n      dup5\n        /* \"#utility.yul\":8537:8555   */\n      add\n        /* \"#utility.yul\":8530:8580   */\n      mstore\n        /* \"#utility.yul\":8597:8641   */\n      tag_386\n        /* \"#utility.yul\":8634:8640   */\n      dup2\n        /* \"#utility.yul\":8626:8632   */\n      dup6\n        /* \"#utility.yul\":8597:8641   */\n      tag_367\n      jump\t// in\n    tag_386:\n        /* \"#utility.yul\":8589:8641   */\n      swap7\n        /* \"#utility.yul\":8285:8647   */\n      swap6\n      pop\n      pop\n      pop\n      pop\n      pop\n      pop\n      jump\t// out\n        /* \"#utility.yul\":8652:9420   */\n    tag_199:\n        /* \"#utility.yul\":9015:9018   */\n      0x80\n        /* \"#utility.yul\":9004:9013   */\n      dup2\n        /* \"#utility.yul\":8997:9019   */\n      mstore\n        /* \"#utility.yul\":8978:8982   */\n      0x00\n        /* \"#utility.yul\":9042:9099   */\n      tag_388\n        /* \"#utility.yul\":9094:9097   */\n      0x80\n        /* \"#utility.yul\":9083:9092   */\n      dup4\n        /* \"#utility.yul\":9079:9098   */\n      add\n        /* \"#utility.yul\":9071:9077   */\n      dup8\n        /* \"#utility.yul\":9042:9099   */\n      tag_362\n      jump\t// in\n    tag_388:\n        /* \"#utility.yul\":9147:9156   */\n      dup3\n        /* \"#utility.yul\":9139:9145   */\n      dup2\n        /* \"#utility.yul\":9135:9157   */\n      sub\n        /* \"#utility.yul\":9130:9132   */\n      0x20\n        /* \"#utility.yul\":9119:9128   */\n      dup5\n        /* \"#utility.yul\":9115:9133   */\n      add\n        /* \"#utility.yul\":9108:9158   */\n      mstore\n        /* \"#utility.yul\":9181:9225   */\n      tag_389\n        /* \"#utility.yul\":9218:9224   */\n      dup2\n        /* \"#utility.yul\":9210:9216   */\n      dup8\n        /* \"#utility.yul\":9181:9225   */\n      tag_367\n      jump\t// in\n    tag_389:\n        /* \"#utility.yul\":9167:9225   */\n      swap1\n      pop\n        /* \"#utility.yul\":9273:9282   */\n      dup3\n        /* \"#utility.yul\":9265:9271   */\n      dup2\n        /* \"#utility.yul\":9261:9283   */\n      sub\n        /* \"#utility.yul\":9256:9258   */\n      0x40\n        /* \"#utility.yul\":9245:9254   */\n      dup5\n        /* \"#utility.yul\":9241:9259   */\n      add\n        /* \"#utility.yul\":9234:9284   */\n      mstore\n        /* \"#utility.yul\":9301:9345   */\n      tag_390\n        /* \"#utility.yul\":9338:9344   */\n      dup2\n        /* \"#utility.yul\":9330:9336   */\n      dup7\n        /* \"#utility.yul\":9301:9345   */\n      tag_367\n      jump\t// in\n    tag_390:\n        /* \"#utility.yul\":9293:9345   */\n      swap2\n      pop\n      pop\n        /* \"#utility.yul\":9410:9411   */\n      0x01\n        /* \"#utility.yul\":9406:9407   */\n      dup1\n        /* \"#utility.yul\":9401:9404   */\n      0xa0\n        /* \"#utility.yul\":9397:9408   */\n      shl\n        /* \"#utility.yul\":9393:9412   */\n      sub\n        /* \"#utility.yul\":9385:9391   */\n      dup4\n        /* \"#utility.yul\":9381:9413   */\n      and\n        /* \"#utility.yul\":9376:9378   */\n      0x60\n        /* \"#utility.yul\":9365:9374   */\n      dup4\n        /* \"#utility.yul\":9361:9379   */\n      add\n        /* \"#utility.yul\":9354:9414   */\n      mstore\n        /* \"#utility.yul\":8987:9420   */\n      swap6\n      swap5\n      pop\n      pop\n      pop\n      pop\n      pop\n      jump\t// out\n        /* \"#utility.yul\":9617:9836   */\n    tag_46:\n        /* \"#utility.yul\":9766:9768   */\n      0x20\n        /* \"#utility.yul\":9755:9764   */\n      dup2\n        /* \"#utility.yul\":9748:9769   */\n      mstore\n        /* \"#utility.yul\":9729:9733   */\n      0x00\n        /* \"#utility.yul\":9786:9830   */\n      tag_321\n        /* \"#utility.yul\":9826:9828   */\n      0x20\n        /* \"#utility.yul\":9815:9824   */\n      dup4\n        /* \"#utility.yul\":9811:9829   */\n      add\n        /* \"#utility.yul\":9803:9809   */\n      dup5\n        /* \"#utility.yul\":9786:9830   */\n      tag_372\n      jump\t// in\n        /* \"#utility.yul\":9841:10222   */\n    tag_247:\n        /* \"#utility.yul\":10038:10040   */\n      0x40\n        /* \"#utility.yul\":10027:10036   */\n      dup2\n        /* \"#utility.yul\":10020:10041   */\n      mstore\n        /* \"#utility.yul\":10001:10005   */\n      0x00\n        /* \"#utility.yul\":10064:10108   */\n      tag_395\n        /* \"#utility.yul\":10104:10106   */\n      0x40\n        /* \"#utility.yul\":10093:10102   */\n      dup4\n        /* \"#utility.yul\":10089:10107   */\n      add\n        /* \"#utility.yul\":10081:10087   */\n      dup6\n        /* \"#utility.yul\":10064:10108   */\n      tag_372\n      jump\t// in\n    tag_395:\n        /* \"#utility.yul\":10156:10165   */\n      dup3\n        /* \"#utility.yul\":10148:10154   */\n      dup2\n        /* \"#utility.yul\":10144:10166   */\n      sub\n        /* \"#utility.yul\":10139:10141   */\n      0x20\n        /* \"#utility.yul\":10128:10137   */\n      dup5\n        /* \"#utility.yul\":10124:10142   */\n      add\n        /* \"#utility.yul\":10117:10167   */\n      mstore\n        /* \"#utility.yul\":10184:10216   */\n      tag_396\n        /* \"#utility.yul\":10209:10215   */\n      dup2\n        /* \"#utility.yul\":10201:10207   */\n      dup6\n        /* \"#utility.yul\":10184:10216   */\n      tag_372\n      jump\t// in\n    tag_396:\n        /* \"#utility.yul\":10176:10216   */\n      swap6\n        /* \"#utility.yul\":10010:10222   */\n      swap5\n      pop\n      pop\n      pop\n      pop\n      pop\n      jump\t// out\n        /* \"#utility.yul\":15556:15831   */\n    tag_306:\n        /* \"#utility.yul\":15627:15629   */\n      0x40\n        /* \"#utility.yul\":15621:15630   */\n      mload\n        /* \"#utility.yul\":15692:15694   */\n      0x1f\n        /* \"#utility.yul\":15673:15686   */\n      dup3\n      add\n      not(0x1f)\n        /* \"#utility.yul\":15669:15696   */\n      and\n        /* \"#utility.yul\":15657:15697   */\n      dup2\n      add\n        /* \"#utility.yul\":15727:15745   */\n      0xffffffffffffffff\n        /* \"#utility.yul\":15712:15746   */\n      dup2\n      gt\n        /* \"#utility.yul\":15748:15770   */\n      dup3\n      dup3\n      lt\n        /* \"#utility.yul\":15709:15771   */\n      or\n        /* \"#utility.yul\":15706:15708   */\n      iszero\n      tag_413\n      jumpi\n        /* \"#utility.yul\":15774:15792   */\n      tag_413\n      tag_316\n      jump\t// in\n    tag_413:\n        /* \"#utility.yul\":15810:15812   */\n      0x40\n        /* \"#utility.yul\":15803:15825   */\n      mstore\n        /* \"#utility.yul\":15601:15831   */\n      swap2\n      swap1\n      pop\n      jump\t// out\n        /* \"#utility.yul\":15836:16019   */\n    tag_305:\n        /* \"#utility.yul\":15896:15900   */\n      0x00\n        /* \"#utility.yul\":15929:15947   */\n      0xffffffffffffffff\n        /* \"#utility.yul\":15921:15927   */\n      dup3\n        /* \"#utility.yul\":15918:15948   */\n      gt\n        /* \"#utility.yul\":15915:15917   */\n      iszero\n      tag_416\n      jumpi\n        /* \"#utility.yul\":15951:15969   */\n      tag_416\n      tag_316\n      jump\t// in\n    tag_416:\n      pop\n        /* \"#utility.yul\":15996:15997   */\n      0x05\n        /* \"#utility.yul\":15992:16006   */\n      shl\n        /* \"#utility.yul\":16008:16012   */\n      0x20\n        /* \"#utility.yul\":15988:16013   */\n      add\n      swap1\n        /* \"#utility.yul\":15905:16019   */\n      jump\t// out\n        /* \"#utility.yul\":16024:16152   */\n    tag_266:\n        /* \"#utility.yul\":16064:16067   */\n      0x00\n        /* \"#utility.yul\":16095:16096   */\n      dup3\n        /* \"#utility.yul\":16091:16097   */\n      not\n        /* \"#utility.yul\":16088:16089   */\n      dup3\n        /* \"#utility.yul\":16085:16098   */\n      gt\n        /* \"#utility.yul\":16082:16084   */\n      iszero\n      tag_419\n      jumpi\n        /* \"#utility.yul\":16101:16119   */\n      tag_419\n      tag_420\n      jump\t// in\n    tag_419:\n      pop\n        /* \"#utility.yul\":16137:16146   */\n      add\n      swap1\n        /* \"#utility.yul\":16072:16152   */\n      jump\t// out\n        /* \"#utility.yul\":16157:16374   */\n    tag_230:\n        /* \"#utility.yul\":16197:16198   */\n      0x00\n        /* \"#utility.yul\":16223:16224   */\n      dup3\n        /* \"#utility.yul\":16213:16215   */\n      tag_422\n      jumpi\n        /* \"#utility.yul\":16267:16277   */\n      0x4e487b71\n        /* \"#utility.yul\":16262:16265   */\n      0xe0\n        /* \"#utility.yul\":16258:16278   */\n      shl\n        /* \"#utility.yul\":16255:16256   */\n      0x00\n        /* \"#utility.yul\":16248:16279   */\n      mstore\n        /* \"#utility.yul\":16302:16306   */\n      0x12\n        /* \"#utility.yul\":16299:16300   */\n      0x04\n        /* \"#utility.yul\":16292:16307   */\n      mstore\n        /* \"#utility.yul\":16330:16334   */\n      0x24\n        /* \"#utility.yul\":16327:16328   */\n      0x00\n        /* \"#utility.yul\":16320:16335   */\n      revert\n        /* \"#utility.yul\":16213:16215   */\n    tag_422:\n      pop\n        /* \"#utility.yul\":16359:16368   */\n      div\n      swap1\n        /* \"#utility.yul\":16203:16374   */\n      jump\t// out\n        /* \"#utility.yul\":16379:16547   */\n    tag_228:\n        /* \"#utility.yul\":16419:16426   */\n      0x00\n        /* \"#utility.yul\":16485:16486   */\n      dup2\n        /* \"#utility.yul\":16481:16482   */\n      0x00\n        /* \"#utility.yul\":16477:16483   */\n      not\n        /* \"#utility.yul\":16473:16487   */\n      div\n        /* \"#utility.yul\":16470:16471   */\n      dup4\n        /* \"#utility.yul\":16467:16488   */\n      gt\n        /* \"#utility.yul\":16462:16463   */\n      dup3\n        /* \"#utility.yul\":16455:16464   */\n      iszero\n        /* \"#utility.yul\":16448:16465   */\n      iszero\n        /* \"#utility.yul\":16444:16489   */\n      and\n        /* \"#utility.yul\":16441:16443   */\n      iszero\n      tag_425\n      jumpi\n        /* \"#utility.yul\":16492:16510   */\n      tag_425\n      tag_420\n      jump\t// in\n    tag_425:\n      pop\n        /* \"#utility.yul\":16532:16541   */\n      mul\n      swap1\n        /* \"#utility.yul\":16431:16547   */\n      jump\t// out\n        /* \"#utility.yul\":16552:16677   */\n    tag_233:\n        /* \"#utility.yul\":16592:16596   */\n      0x00\n        /* \"#utility.yul\":16620:16621   */\n      dup3\n        /* \"#utility.yul\":16617:16618   */\n      dup3\n        /* \"#utility.yul\":16614:16622   */\n      lt\n        /* \"#utility.yul\":16611:16613   */\n      iszero\n      tag_428\n      jumpi\n        /* \"#utility.yul\":16625:16643   */\n      tag_428\n      tag_420\n      jump\t// in\n    tag_428:\n      pop\n        /* \"#utility.yul\":16662:16671   */\n      sub\n      swap1\n        /* \"#utility.yul\":16601:16677   */\n      jump\t// out\n        /* \"#utility.yul\":16682:16940   */\n    tag_375:\n        /* \"#utility.yul\":16754:16755   */\n      0x00\n        /* \"#utility.yul\":16764:16877   */\n    tag_430:\n        /* \"#utility.yul\":16778:16784   */\n      dup4\n        /* \"#utility.yul\":16775:16776   */\n      dup2\n        /* \"#utility.yul\":16772:16785   */\n      lt\n        /* \"#utility.yul\":16764:16877   */\n      iszero\n      tag_432\n      jumpi\n        /* \"#utility.yul\":16854:16865   */\n      dup2\n      dup2\n      add\n        /* \"#utility.yul\":16848:16866   */\n      mload\n        /* \"#utility.yul\":16835:16846   */\n      dup4\n      dup3\n      add\n        /* \"#utility.yul\":16828:16867   */\n      mstore\n        /* \"#utility.yul\":16800:16802   */\n      0x20\n        /* \"#utility.yul\":16793:16803   */\n      add\n        /* \"#utility.yul\":16764:16877   */\n      jump(tag_430)\n    tag_432:\n        /* \"#utility.yul\":16895:16901   */\n      dup4\n        /* \"#utility.yul\":16892:16893   */\n      dup2\n        /* \"#utility.yul\":16889:16902   */\n      gt\n        /* \"#utility.yul\":16886:16888   */\n      iszero\n      tag_189\n      jumpi\n      pop\n      pop\n        /* \"#utility.yul\":16930:16931   */\n      0x00\n        /* \"#utility.yul\":16912:16928   */\n      swap2\n      add\n        /* \"#utility.yul\":16905:16932   */\n      mstore\n        /* \"#utility.yul\":16735:16940   */\n      jump\t// out\n        /* \"#utility.yul\":16945:17072   */\n    tag_420:\n        /* \"#utility.yul\":17006:17016   */\n      0x4e487b71\n        /* \"#utility.yul\":17001:17004   */\n      0xe0\n        /* \"#utility.yul\":16997:17017   */\n      shl\n        /* \"#utility.yul\":16994:16995   */\n      0x00\n        /* \"#utility.yul\":16987:17018   */\n      mstore\n        /* \"#utility.yul\":17037:17041   */\n      0x11\n        /* \"#utility.yul\":17034:17035   */\n      0x04\n        /* \"#utility.yul\":17027:17042   */\n      mstore\n        /* \"#utility.yul\":17061:17065   */\n      0x24\n        /* \"#utility.yul\":17058:17059   */\n      0x00\n        /* \"#utility.yul\":17051:17066   */\n      revert\n        /* \"#utility.yul\":17077:17204   */\n    tag_208:\n        /* \"#utility.yul\":17138:17148   */\n      0x4e487b71\n        /* \"#utility.yul\":17133:17136   */\n      0xe0\n        /* \"#utility.yul\":17129:17149   */\n      shl\n        /* \"#utility.yul\":17126:17127   */\n      0x00\n        /* \"#utility.yul\":17119:17150   */\n      mstore\n        /* \"#utility.yul\":17169:17173   */\n      0x21\n        /* \"#utility.yul\":17166:17167   */\n      0x04\n        /* \"#utility.yul\":17159:17174   */\n      mstore\n        /* \"#utility.yul\":17193:17197   */\n      0x24\n        /* \"#utility.yul\":17190:17191   */\n      0x00\n        /* \"#utility.yul\":17183:17198   */\n      revert\n        /* \"#utility.yul\":17209:17336   */\n    tag_316:\n        /* \"#utility.yul\":17270:17280   */\n      0x4e487b71\n        /* \"#utility.yul\":17265:17268   */\n      0xe0\n        /* \"#utility.yul\":17261:17281   */\n      shl\n        /* \"#utility.yul\":17258:17259   */\n      0x00\n        /* \"#utility.yul\":17251:17282   */\n      mstore\n        /* \"#utility.yul\":17301:17305   */\n      0x41\n        /* \"#utility.yul\":17298:17299   */\n      0x04\n        /* \"#utility.yul\":17291:17306   */\n      mstore\n        /* \"#utility.yul\":17325:17329   */\n      0x24\n        /* \"#utility.yul\":17322:17323   */\n      0x00\n        /* \"#utility.yul\":17315:17330   */\n      revert\n        /* \"#utility.yul\":17341:17472   */\n    tag_322:\n      sub(shl(0xa0, 0x01), 0x01)\n        /* \"#utility.yul\":17416:17447   */\n      dup2\n      and\n        /* \"#utility.yul\":17406:17448   */\n      dup2\n      eq\n        /* \"#utility.yul\":17396:17398   */\n      tag_438\n      jumpi\n        /* \"#utility.yul\":17462:17463   */\n      0x00\n        /* \"#utility.yul\":17459:17460   */\n      dup1\n        /* \"#utility.yul\":17452:17464   */\n      revert\n        /* \"#utility.yul\":17396:17398   */\n    tag_438:\n        /* \"#utility.yul\":17386:17472   */\n      pop\n      jump\t// out\n    stop\n\n    sub_0: assembly {\n            /* \"contracts/InitializedProxy.sol\":202:1773  contract InitializedProxy {\r... */\n          mstore(0x40, 0x80)\n            /* \"contracts/InitializedProxy.sol\":516:995  constructor(\r... */\n          callvalue\n          dup1\n          iszero\n          tag_1\n          jumpi\n          0x00\n          dup1\n          revert\n        tag_1:\n          pop\n          mload(0x40)\n          sub(codesize, bytecodeSize)\n          dup1\n          bytecodeSize\n          dup4\n          codecopy\n          dup2\n          add\n          0x40\n          dup2\n          swap1\n          mstore\n          tag_2\n          swap2\n          tag_3\n          jump\t// in\n        tag_2:\n            /* \"contracts/InitializedProxy.sol\":687:693  _logic */\n          dup2\n            /* \"contracts/InitializedProxy.sol\":619:678  StorageSlotUpgradeable.getAddressSlot(_IMPLEMENTATION_SLOT) */\n          tag_6\n            /* \"contracts/InitializedProxy.sol\":402:468  0x5f62ce3c9aebd463c7a36ab1b244d2bb94f07a2c13889b3b687940ebc467b9b3 */\n          0x5f62ce3c9aebd463c7a36ab1b244d2bb94f07a2c13889b3b687940ebc467b9b3\n            /* \"contracts/InitializedProxy.sol\":657:677  _IMPLEMENTATION_SLOT */\n          0x00\n          shl\n            /* \"contracts/InitializedProxy.sol\":619:656  StorageSlotUpgradeable.getAddressSlot */\n          or(tag_0_8, shl(0x20, tag_7))\n            /* \"contracts/InitializedProxy.sol\":619:678  StorageSlotUpgradeable.getAddressSlot(_IMPLEMENTATION_SLOT) */\n          0x20\n          shr\n          jump\t// in\n        tag_6:\n            /* \"contracts/InitializedProxy.sol\":619:693  StorageSlotUpgradeable.getAddressSlot(_IMPLEMENTATION_SLOT).value = _logic */\n          dup1\n          sload\n          not(sub(shl(0xa0, 0x01), 0x01))\n          and\n          sub(shl(0xa0, 0x01), 0x01)\n          swap3\n          dup4\n          and\n          or\n          swap1\n          sstore\n            /* \"contracts/InitializedProxy.sol\":839:883  _logic.delegatecall(_initializationCalldata) */\n          mload(0x40)\n          0x00\n          swap2\n          dup3\n          swap2\n            /* \"contracts/InitializedProxy.sol\":839:858  _logic.delegatecall */\n          swap1\n          dup6\n          and\n          swap1\n            /* \"contracts/InitializedProxy.sol\":839:883  _logic.delegatecall(_initializationCalldata) */\n          tag_8\n          swap1\n            /* \"contracts/InitializedProxy.sol\":859:882  _initializationCalldata */\n          dup6\n          swap1\n            /* \"contracts/InitializedProxy.sol\":839:883  _logic.delegatecall(_initializationCalldata) */\n          tag_9\n          jump\t// in\n        tag_8:\n          0x00\n          mload(0x40)\n          dup1\n          dup4\n          sub\n          dup2\n          dup6\n          gas\n          delegatecall\n          swap2\n          pop\n          pop\n          returndatasize\n          dup1\n          0x00\n          dup2\n          eq\n          tag_12\n          jumpi\n          mload(0x40)\n          swap2\n          pop\n          and(add(returndatasize, 0x3f), not(0x1f))\n          dup3\n          add\n          0x40\n          mstore\n          returndatasize\n          dup3\n          mstore\n          returndatasize\n          0x00\n          0x20\n          dup5\n          add\n          returndatacopy\n          jump(tag_11)\n        tag_12:\n          0x60\n          swap2\n          pop\n        tag_11:\n          pop\n            /* \"contracts/InitializedProxy.sol\":788:883  (bool _ok, bytes memory returnData) =\r... */\n          swap2\n          pop\n          swap2\n          pop\n            /* \"contracts/InitializedProxy.sol\":963:966  _ok */\n          dup2\n            /* \"contracts/InitializedProxy.sol\":975:985  returnData */\n          dup2\n            /* \"contracts/InitializedProxy.sol\":955:987  require(_ok, string(returnData)) */\n          swap1\n          tag_13\n          jumpi\n          mload(0x40)\n          shl(0xe5, 0x461bcd)\n          dup2\n          mstore\n          tag_14\n          swap2\n          swap1\n          0x04\n          add\n          tag_15\n          jump\t// in\n        tag_14:\n          mload(0x40)\n          dup1\n          swap2\n          sub\n          swap1\n          revert\n        tag_13:\n          pop\n            /* \"contracts/InitializedProxy.sol\":607:995  { \r... */\n          pop\n          pop\n            /* \"contracts/InitializedProxy.sol\":516:995  constructor(\r... */\n          pop\n          pop\n            /* \"contracts/InitializedProxy.sol\":202:1773  contract InitializedProxy {\r... */\n          jump(tag_18)\n            /* \"@openzeppelin/contracts-upgradeable/utils/StorageSlotUpgradeable.sol\":1553:1700  function getAddressSlot(bytes32 slot) internal pure returns (AddressSlot storage r) {... */\n        tag_7:\n            /* \"@openzeppelin/contracts-upgradeable/utils/StorageSlotUpgradeable.sol\":1680:1684  slot */\n          swap1\n            /* \"@openzeppelin/contracts-upgradeable/utils/StorageSlotUpgradeable.sol\":1553:1700  function getAddressSlot(bytes32 slot) internal pure returns (AddressSlot storage r) {... */\n          jump\t// out\n            /* \"#utility.yul\":14:1064   */\n        tag_3:\n            /* \"#utility.yul\":102:108   */\n          0x00\n            /* \"#utility.yul\":110:116   */\n          dup1\n            /* \"#utility.yul\":163:165   */\n          0x40\n            /* \"#utility.yul\":151:160   */\n          dup4\n            /* \"#utility.yul\":142:149   */\n          dup6\n            /* \"#utility.yul\":138:161   */\n          sub\n            /* \"#utility.yul\":134:166   */\n          slt\n            /* \"#utility.yul\":131:133   */\n          iszero\n          tag_20\n          jumpi\n            /* \"#utility.yul\":179:180   */\n          0x00\n            /* \"#utility.yul\":176:177   */\n          dup1\n            /* \"#utility.yul\":169:181   */\n          revert\n            /* \"#utility.yul\":131:133   */\n        tag_20:\n            /* \"#utility.yul\":205:221   */\n          dup3\n          mload\n          sub(shl(0xa0, 0x01), 0x01)\n            /* \"#utility.yul\":250:281   */\n          dup2\n          and\n            /* \"#utility.yul\":240:282   */\n          dup2\n          eq\n            /* \"#utility.yul\":230:232   */\n          tag_21\n          jumpi\n            /* \"#utility.yul\":296:297   */\n          0x00\n            /* \"#utility.yul\":293:294   */\n          dup1\n            /* \"#utility.yul\":286:298   */\n          revert\n            /* \"#utility.yul\":230:232   */\n        tag_21:\n            /* \"#utility.yul\":368:370   */\n          0x20\n            /* \"#utility.yul\":353:371   */\n          dup5\n          add\n            /* \"#utility.yul\":347:372   */\n          mload\n            /* \"#utility.yul\":319:324   */\n          swap1\n          swap3\n          pop\n          0xffffffffffffffff\n            /* \"#utility.yul\":421:435   */\n          dup1\n          dup3\n          gt\n            /* \"#utility.yul\":418:420   */\n          iszero\n          tag_22\n          jumpi\n            /* \"#utility.yul\":448:449   */\n          0x00\n            /* \"#utility.yul\":445:446   */\n          dup1\n            /* \"#utility.yul\":438:450   */\n          revert\n            /* \"#utility.yul\":418:420   */\n        tag_22:\n            /* \"#utility.yul\":486:492   */\n          dup2\n            /* \"#utility.yul\":475:484   */\n          dup6\n            /* \"#utility.yul\":471:493   */\n          add\n            /* \"#utility.yul\":461:493   */\n          swap2\n          pop\n            /* \"#utility.yul\":531:538   */\n          dup6\n            /* \"#utility.yul\":524:528   */\n          0x1f\n            /* \"#utility.yul\":520:522   */\n          dup4\n            /* \"#utility.yul\":516:529   */\n          add\n            /* \"#utility.yul\":512:539   */\n          slt\n            /* \"#utility.yul\":502:504   */\n          tag_23\n          jumpi\n            /* \"#utility.yul\":553:554   */\n          0x00\n            /* \"#utility.yul\":550:551   */\n          dup1\n            /* \"#utility.yul\":543:555   */\n          revert\n            /* \"#utility.yul\":502:504   */\n        tag_23:\n            /* \"#utility.yul\":582:584   */\n          dup2\n            /* \"#utility.yul\":576:585   */\n          mload\n            /* \"#utility.yul\":604:606   */\n          dup2\n            /* \"#utility.yul\":600:602   */\n          dup2\n            /* \"#utility.yul\":597:607   */\n          gt\n            /* \"#utility.yul\":594:596   */\n          iszero\n          tag_25\n          jumpi\n            /* \"#utility.yul\":610:628   */\n          tag_25\n          tag_26\n          jump\t// in\n        tag_25:\n            /* \"#utility.yul\":685:687   */\n          0x40\n            /* \"#utility.yul\":679:688   */\n          mload\n            /* \"#utility.yul\":653:655   */\n          0x1f\n            /* \"#utility.yul\":739:752   */\n          dup3\n          add\n          not(0x1f)\n            /* \"#utility.yul\":735:757   */\n          swap1\n          dup2\n          and\n            /* \"#utility.yul\":759:761   */\n          0x3f\n            /* \"#utility.yul\":731:762   */\n          add\n            /* \"#utility.yul\":727:767   */\n          and\n            /* \"#utility.yul\":715:768   */\n          dup2\n          add\n          swap1\n            /* \"#utility.yul\":783:801   */\n          dup4\n          dup3\n          gt\n            /* \"#utility.yul\":803:825   */\n          dup2\n          dup4\n          lt\n            /* \"#utility.yul\":780:826   */\n          or\n            /* \"#utility.yul\":777:779   */\n          iszero\n          tag_28\n          jumpi\n            /* \"#utility.yul\":829:847   */\n          tag_28\n          tag_26\n          jump\t// in\n        tag_28:\n            /* \"#utility.yul\":869:879   */\n          dup2\n            /* \"#utility.yul\":865:867   */\n          0x40\n            /* \"#utility.yul\":858:880   */\n          mstore\n            /* \"#utility.yul\":904:906   */\n          dup3\n            /* \"#utility.yul\":896:902   */\n          dup2\n            /* \"#utility.yul\":889:907   */\n          mstore\n            /* \"#utility.yul\":944:951   */\n          dup9\n            /* \"#utility.yul\":939:941   */\n          0x20\n            /* \"#utility.yul\":934:936   */\n          dup5\n            /* \"#utility.yul\":930:932   */\n          dup8\n            /* \"#utility.yul\":926:937   */\n          add\n            /* \"#utility.yul\":922:942   */\n          add\n            /* \"#utility.yul\":919:952   */\n          gt\n            /* \"#utility.yul\":916:918   */\n          iszero\n          tag_29\n          jumpi\n            /* \"#utility.yul\":965:966   */\n          0x00\n            /* \"#utility.yul\":962:963   */\n          dup1\n            /* \"#utility.yul\":955:967   */\n          revert\n            /* \"#utility.yul\":916:918   */\n        tag_29:\n            /* \"#utility.yul\":978:1033   */\n          tag_30\n            /* \"#utility.yul\":1030:1032   */\n          dup4\n            /* \"#utility.yul\":1025:1027   */\n          0x20\n            /* \"#utility.yul\":1017:1023   */\n          dup4\n            /* \"#utility.yul\":1013:1028   */\n          add\n            /* \"#utility.yul\":1008:1010   */\n          0x20\n            /* \"#utility.yul\":1004:1006   */\n          dup9\n            /* \"#utility.yul\":1000:1011   */\n          add\n            /* \"#utility.yul\":978:1033   */\n          tag_31\n          jump\t// in\n        tag_30:\n            /* \"#utility.yul\":1052:1058   */\n          dup1\n            /* \"#utility.yul\":1042:1058   */\n          swap6\n          pop\n          pop\n          pop\n          pop\n          pop\n          pop\n            /* \"#utility.yul\":121:1064   */\n          swap3\n          pop\n          swap3\n          swap1\n          pop\n          jump\t// out\n            /* \"#utility.yul\":1069:1343   */\n        tag_9:\n            /* \"#utility.yul\":1198:1201   */\n          0x00\n            /* \"#utility.yul\":1236:1242   */\n          dup3\n            /* \"#utility.yul\":1230:1243   */\n          mload\n            /* \"#utility.yul\":1252:1305   */\n          tag_33\n            /* \"#utility.yul\":1298:1304   */\n          dup2\n            /* \"#utility.yul\":1293:1296   */\n          dup5\n            /* \"#utility.yul\":1286:1290   */\n          0x20\n            /* \"#utility.yul\":1278:1284   */\n          dup8\n            /* \"#utility.yul\":1274:1291   */\n          add\n            /* \"#utility.yul\":1252:1305   */\n          tag_31\n          jump\t// in\n        tag_33:\n            /* \"#utility.yul\":1321:1337   */\n          swap2\n          swap1\n          swap2\n          add\n          swap3\n            /* \"#utility.yul\":1206:1343   */\n          swap2\n          pop\n          pop\n          jump\t// out\n            /* \"#utility.yul\":1348:1731   */\n        tag_15:\n            /* \"#utility.yul\":1497:1499   */\n          0x20\n            /* \"#utility.yul\":1486:1495   */\n          dup2\n            /* \"#utility.yul\":1479:1500   */\n          mstore\n            /* \"#utility.yul\":1460:1464   */\n          0x00\n            /* \"#utility.yul\":1529:1535   */\n          dup3\n            /* \"#utility.yul\":1523:1536   */\n          mload\n            /* \"#utility.yul\":1572:1578   */\n          dup1\n            /* \"#utility.yul\":1567:1569   */\n          0x20\n            /* \"#utility.yul\":1556:1565   */\n          dup5\n            /* \"#utility.yul\":1552:1570   */\n          add\n            /* \"#utility.yul\":1545:1579   */\n          mstore\n            /* \"#utility.yul\":1588:1654   */\n          tag_35\n            /* \"#utility.yul\":1647:1653   */\n          dup2\n            /* \"#utility.yul\":1642:1644   */\n          0x40\n            /* \"#utility.yul\":1631:1640   */\n          dup6\n            /* \"#utility.yul\":1627:1645   */\n          add\n            /* \"#utility.yul\":1622:1624   */\n          0x20\n            /* \"#utility.yul\":1614:1620   */\n          dup8\n            /* \"#utility.yul\":1610:1625   */\n          add\n            /* \"#utility.yul\":1588:1654   */\n          tag_31\n          jump\t// in\n        tag_35:\n            /* \"#utility.yul\":1715:1717   */\n          0x1f\n            /* \"#utility.yul\":1694:1709   */\n          add\n          not(0x1f)\n            /* \"#utility.yul\":1690:1719   */\n          and\n            /* \"#utility.yul\":1675:1720   */\n          swap2\n          swap1\n          swap2\n          add\n            /* \"#utility.yul\":1722:1724   */\n          0x40\n            /* \"#utility.yul\":1671:1725   */\n          add\n          swap3\n            /* \"#utility.yul\":1469:1731   */\n          swap2\n          pop\n          pop\n          jump\t// out\n            /* \"#utility.yul\":1736:1994   */\n        tag_31:\n            /* \"#utility.yul\":1808:1809   */\n          0x00\n            /* \"#utility.yul\":1818:1931   */\n        tag_37:\n            /* \"#utility.yul\":1832:1838   */\n          dup4\n            /* \"#utility.yul\":1829:1830   */\n          dup2\n            /* \"#utility.yul\":1826:1839   */\n          lt\n            /* \"#utility.yul\":1818:1931   */\n          iszero\n          tag_39\n          jumpi\n            /* \"#utility.yul\":1908:1919   */\n          dup2\n          dup2\n          add\n            /* \"#utility.yul\":1902:1920   */\n          mload\n            /* \"#utility.yul\":1889:1900   */\n          dup4\n          dup3\n          add\n            /* \"#utility.yul\":1882:1921   */\n          mstore\n            /* \"#utility.yul\":1854:1856   */\n          0x20\n            /* \"#utility.yul\":1847:1857   */\n          add\n            /* \"#utility.yul\":1818:1931   */\n          jump(tag_37)\n        tag_39:\n            /* \"#utility.yul\":1949:1955   */\n          dup4\n            /* \"#utility.yul\":1946:1947   */\n          dup2\n            /* \"#utility.yul\":1943:1956   */\n          gt\n            /* \"#utility.yul\":1940:1942   */\n          iszero\n          tag_40\n          jumpi\n            /* \"#utility.yul\":1984:1985   */\n          0x00\n            /* \"#utility.yul\":1975:1981   */\n          dup5\n            /* \"#utility.yul\":1970:1973   */\n          dup5\n            /* \"#utility.yul\":1966:1982   */\n          add\n            /* \"#utility.yul\":1959:1986   */\n          mstore\n            /* \"#utility.yul\":1940:1942   */\n        tag_40:\n          pop\n            /* \"#utility.yul\":1789:1994   */\n          pop\n          pop\n          pop\n          jump\t// out\n            /* \"#utility.yul\":1999:2126   */\n        tag_26:\n            /* \"#utility.yul\":2060:2070   */\n          0x4e487b71\n            /* \"#utility.yul\":2055:2058   */\n          0xe0\n            /* \"#utility.yul\":2051:2071   */\n          shl\n            /* \"#utility.yul\":2048:2049   */\n          0x00\n            /* \"#utility.yul\":2041:2072   */\n          mstore\n            /* \"#utility.yul\":2091:2095   */\n          0x41\n            /* \"#utility.yul\":2088:2089   */\n          0x04\n            /* \"#utility.yul\":2081:2096   */\n          mstore\n            /* \"#utility.yul\":2115:2119   */\n          0x24\n            /* \"#utility.yul\":2112:2113   */\n          0x00\n            /* \"#utility.yul\":2105:2120   */\n          revert\n            /* \"#utility.yul\":2031:2126   */\n        tag_18:\n            /* \"contracts/InitializedProxy.sol\":202:1773  contract InitializedProxy {\r... */\n          dataSize(sub_0)\n          dup1\n          dataOffset(sub_0)\n          0x00\n          codecopy\n          0x00\n          return\n        stop\n\n        sub_0: assembly {\n                /* \"contracts/InitializedProxy.sol\":202:1773  contract InitializedProxy {\r... */\n              mstore(0x40, 0x80)\n              jumpi(tag_2, calldatasize)\n              stop\n            tag_2:\n                /* \"contracts/InitializedProxy.sol\":402:468  0x5f62ce3c9aebd463c7a36ab1b244d2bb94f07a2c13889b3b687940ebc467b9b3 */\n              0x5f62ce3c9aebd463c7a36ab1b244d2bb94f07a2c13889b3b687940ebc467b9b3\n                /* \"contracts/InitializedProxy.sol\":1103:1168  StorageSlotUpgradeable.getAddressSlot(_IMPLEMENTATION_SLOT).value */\n              sload\n                /* \"contracts/InitializedProxy.sol\":1220:1224  0x40 */\n              0x40\n                /* \"contracts/InitializedProxy.sol\":1214:1225  mload(0x40) */\n              mload\n              sub(shl(0xa0, 0x01), 0x01)\n                /* \"contracts/InitializedProxy.sol\":1103:1168  StorageSlotUpgradeable.getAddressSlot(_IMPLEMENTATION_SLOT).value */\n              swap1\n              swap2\n              and\n              swap1\n                /* \"contracts/InitializedProxy.sol\":1260:1274  calldatasize() */\n              calldatasize\n                /* \"contracts/InitializedProxy.sol\":1087:1100  address _impl */\n              0x00\n                /* \"contracts/InitializedProxy.sol\":1214:1225  mload(0x40) */\n              dup3\n                /* \"contracts/InitializedProxy.sol\":1239:1275  calldatacopy(ptr, 0, calldatasize()) */\n              calldatacopy\n                /* \"contracts/InitializedProxy.sol\":1354:1355  0 */\n              0x00\n                /* \"contracts/InitializedProxy.sol\":1351:1352  0 */\n              dup1\n                /* \"contracts/InitializedProxy.sol\":1335:1349  calldatasize() */\n              calldatasize\n                /* \"contracts/InitializedProxy.sol\":1330:1333  ptr */\n              dup4\n                /* \"contracts/InitializedProxy.sol\":1323:1328  _impl */\n              dup6\n                /* \"contracts/InitializedProxy.sol\":1316:1321  gas() */\n              gas\n                /* \"contracts/InitializedProxy.sol\":1303:1356  delegatecall(gas(), _impl, ptr, calldatasize(), 0, 0) */\n              delegatecall\n                /* \"contracts/InitializedProxy.sol\":1382:1398  returndatasize() */\n              returndatasize\n                /* \"contracts/InitializedProxy.sol\":1435:1439  size */\n              dup1\n                /* \"contracts/InitializedProxy.sol\":1432:1433  0 */\n              0x00\n                /* \"contracts/InitializedProxy.sol\":1427:1430  ptr */\n              dup5\n                /* \"contracts/InitializedProxy.sol\":1412:1440  returndatacopy(ptr, 0, size) */\n              returndatacopy\n                /* \"contracts/InitializedProxy.sol\":1463:1469  result */\n              dup2\n                /* \"contracts/InitializedProxy.sol\":1487:1553  case 0 {\r... */\n              dup1\n              iszero\n              tag_10\n              jumpi\n                /* \"contracts/InitializedProxy.sol\":1614:1618  size */\n              dup2\n                /* \"contracts/InitializedProxy.sol\":1609:1612  ptr */\n              dup5\n                /* \"contracts/InitializedProxy.sol\":1602:1619  return(ptr, size) */\n              return\n                /* \"contracts/InitializedProxy.sol\":1487:1553  case 0 {\r... */\n            tag_10:\n                /* \"contracts/InitializedProxy.sol\":1529:1533  size */\n              dup2\n                /* \"contracts/InitializedProxy.sol\":1524:1527  ptr */\n              dup5\n                /* \"contracts/InitializedProxy.sol\":1517:1534  revert(ptr, size) */\n              revert\n                /* \"@openzeppelin/contracts-upgradeable/utils/StorageSlotUpgradeable.sol\":1553:1700  function getAddressSlot(bytes32 slot) internal pure returns (AddressSlot storage r) {... */\n            tag_8:\n                /* \"@openzeppelin/contracts-upgradeable/utils/StorageSlotUpgradeable.sol\":1680:1684  slot */\n              swap1\n                /* \"@openzeppelin/contracts-upgradeable/utils/StorageSlotUpgradeable.sol\":1553:1700  function getAddressSlot(bytes32 slot) internal pure returns (AddressSlot storage r) {... */\n              jump\t// out\n\n            auxdata: 0xa2646970667358221220e8aafb936de2f2d12beac51574171054e14d2e988e3fdd7063f663eaf9a8040064736f6c63430008050033\n        }\n    }\n\n    auxdata: 0xa2646970667358221220d91d97078a2950eea7cc451393a8d8dea9445a44c0bae25e0aecda8dabf453b464736f6c63430008050033\n}\n",
				"bytecode": {
					"linkReferences": {},
					"object": "6101006040523480156200001257600080fd5b5060405162001f4c38038062001f4c833981016040819052620000359162000082565b6001600160601b0319606094851b811660805292841b831660a05290831b821660c05290911b1660e052620000df565b80516001600160a01b03811681146200007d57600080fd5b919050565b600080600080608085870312156200009957600080fd5b620000a48562000065565b9350620000b46020860162000065565b9250620000c46040860162000065565b9150620000d46060860162000065565b905092959194509250565b60805160601c60a05160601c60c05160601c60e05160601c611e0b620001416000396000818161035301526113c201526000818161045d01526113650152600081816102540152610f7b01526000818161032b01526112d70152611e0b6000f3fe60806040523480156200001157600080fd5b5060043610620001f55760003560e01c8063a5360d041162000119578063da1c484511620000af578063f2be7f53116200007a578063f2be7f531462000457578063f8b1cb3c146200047f578063fbfa77cf146200049c578063fcfff16f14620004b057600080fd5b8063da1c4845146200040e578063ddca3f431462000425578063e06174e4146200042f578063e66f53b7146200044357600080fd5b8063c83dd23111620000f0578063c83dd23114620003c2578063c851cc3214620003d6578063cd9d3dd814620003ed578063d294f093146200040457600080fd5b8063a5360d041462000397578063adc1b95614620003a1578063b88c010014620003ab57600080fd5b80633b92eb23116200018f5780636e99d77b11620001665780636e99d77b1462000325578063765d6410146200034d5780637d9f6db514620003755780639ce110d7146200038957600080fd5b80633b92eb2314620002f35780634b09b72a1462000307578063632a9a52146200031157600080fd5b80630c7d5cd811620001d05780630c7d5cd8146200028f578063108adc7a14620002995780632016a0d214620002a3578063372c12b114620002bc57600080fd5b8063047fc9aa14620001fa57806306fdde0314620002175780630b1e4238146200024e575b600080fd5b62000204600c5481565b6040519081526020015b60405180910390f35b6200023f60405180604001604052806008815260200167125cdd185b989d5b60c21b81525081565b6040516200020e919062001917565b620002767f000000000000000000000000000000000000000000000000000000000000000081565b6040516001600160a01b0390911681526020016200020e565b62000204600a5481565b62000204600f5481565b620002ba620002b436600462001530565b620004c3565b005b620002e2620002cd366004620014e9565b60066020526000908152604090205460ff1681565b60405190151581526020016200020e565b60025462000276906001600160a01b031681565b62000204600b5481565b60045462000276906001600160a01b031681565b620002767f000000000000000000000000000000000000000000000000000000000000000081565b620002767f000000000000000000000000000000000000000000000000000000000000000081565b60035462000276906001600160a01b031681565b600754620002e29060ff1681565b62000204600e5481565b6200020460085481565b620002ba620003bc36600462001756565b620005ff565b60005462000276906001600160a01b031681565b620002ba620003e7366004620014e9565b6200089f565b620002ba620003fe366004620015c4565b62000a91565b620002ba62000c11565b620002ba6200041f36600462001723565b62000ec2565b62000204600d5481565b60095462000276906001600160a01b031681565b60055462000276906001600160a01b031681565b620002767f000000000000000000000000000000000000000000000000000000000000000081565b62000488600a81565b60405161ffff90911681526020016200020e565b60015462000276906001600160a01b031681565b600754620002e290610100900460ff1681565b60075460ff1615620005265760405162461bcd60e51b815260206004820152602160248201527f696e697469616c697a65203a3a20416c726561647920696e697469616c697a656044820152601960fa1b60648201526084015b60405180910390fd5b6007805460ff19811660ff90911615179055600080546001600160a01b0319163317905562000556828262000f33565b600180546001600160a01b0319166001600160a01b0392909216918217815562000581919062000fdb565b6200058e30600162000fdb565b600580546001600160a01b03199081166001600160a01b03878116918217909355600980549092168684161790915560015460408051928352921660208201527fdc90fed0326ba91706deeac7eb34ac9f8b680734f9d782864dc29704d23bed6a910160405180910390a150505050565b6005546001600160a01b031633146200066e5760405162461bcd60e51b815260206004820152602a60248201527f6973737565203a3a204f6e6c792063757261746f722063616e2069737375652060448201526974686520746f6b656e7360b01b60648201526084016200051d565b600754610100900460ff1615620006c85760405162461bcd60e51b815260206004820181905260248201527f6973737565203a3a20546f6b656e20697320616c72656164792061637469766560448201526064016200051d565b69021e19e0c9bab24000008310156200073a5760405162461bcd60e51b815260206004820152602d60248201527f6973737565203a3a2054686520737570706c79206d757374206265206772656160448201526c0746572207468616e203130303609c1b60648201526084016200051d565b60638211156200078d5760405162461bcd60e51b815260206004820181905260248201527f6973737565203a3a20496e636f7272656374207265736572766520726174696f60448201526064016200051d565b6007805461ff001916610100179055620007a662001006565b426008556000600d55600a829055600554620007cd9084906001600160a01b0316620010aa565b6003546040516391b7f5ed60e01b8152600481018390526001600160a01b03909116906391b7f5ed90602401600060405180830381600087803b1580156200081457600080fd5b505af115801562000829573d6000803e3d6000fd5b5050600a54600254600354600454604080518a8152602081019590955284018790526001600160a01b03928316606085015290821660808401521660a08201527f0ddec7fb699c258710bdbc2d19cfc80b0793be3e9338cbb403d82cc76282c406925060c00190505b60405180910390a1505050565b3360009081526006602052604090205460ff16620009005760405162461bcd60e51b815260206004820181905260248201527f77686974654c697374203a3a204164647265737320636865636b206572726f7260448201526064016200051d565b600054604051631caae84d60e11b81526001600160a01b03838116600483015290911690633955d09a90602401602060405180830381600087803b1580156200094857600080fd5b505af11580156200095d573d6000803e3d6000fd5b505050506040513d601f19601f82011682018060405250810190620009839190620016c2565b620009dc5760405162461bcd60e51b815260206004820152602260248201527f757064617465526f75746572203a3a20496e636f72726563742074656d706c61604482015261746560f01b60648201526084016200051d565b60408051600481526024810182526020810180516001600160e01b03166339b7cf2160e11b179052905160009182916001600160a01b0385169162000a219162001829565b600060405180830381855af49150503d806000811462000a5e576040519150601f19603f3d011682016040523d82523d6000602084013e62000a63565b606091505b509150915081819062000a8b5760405162461bcd60e51b81526004016200051d919062001917565b50505050565b600754610100900460ff161562000afd5760405162461bcd60e51b815260206004820152602960248201527f63757261746f724465706f736974203a3a20546f6b656e20697320616c72656160448201526864792061637469766560b81b60648201526084016200051d565b6005546001600160a01b0316331462000b705760405162461bcd60e51b815260206004820152602e60248201527f63757261746f724465706f736974203a3a204f6e6c792063757261746f72206360448201526d185b8819195c1bdcda5d0813919560921b60648201526084016200051d565b60015460405163e2019ab360e01b81526001600160a01b039091169063e2019ab39062000ba8908690869086903390600401620018be565b600060405180830381600087803b15801562000bc357600080fd5b505af115801562000bd8573d6000803e3d6000fd5b505050507f3a29ec296622ef644c7845a1c556399c39cd768e645a903d7911a7f5bc1e4011838383604051620008929392919062001875565b6001546040805163d58bfa9d60e01b815290516002926001600160a01b03169163d58bfa9d916004808301926020929190829003018186803b15801562000c5757600080fd5b505afa15801562000c6c573d6000803e3d6000fd5b505050506040513d601f19601f8201168201806040525081019062000c929190620016e6565b600281111562000ca65762000ca662001a78565b141562000d075760405162461bcd60e51b815260206004820152602860248201527f636c61696d203a3a2063616e6e6f7420636c61696d2061667465722061756374604482015267696f6e20656e647360c01b60648201526084016200051d565b600754610100900460ff1662000d6a5760405162461bcd60e51b815260206004820152602160248201527f636c61696d203a3a20546f6b656e206e6f7420616c72656164792061637469766044820152606560f81b60648201526084016200051d565b60006103e8600160009054906101000a90046001600160a01b03166001600160a01b03166318160ddd6040518163ffffffff1660e01b815260040160206040518083038186803b15801562000dbe57600080fd5b505afa15801562000dd3573d6000803e3d6000fd5b505050506040513d601f19601f8201168201806040525081019062000df9919062001709565b600d5462000e089190620019f7565b62000e149190620019d4565b9050600062000e286301e1338083620019d4565b905060006008544262000e3c919062001a19565b9050600062000e4c8383620019f7565b426008556001546005546040516320e6b82d60e11b81526001600160a01b0391821660048201526024810184905292935016906341cd705a90604401600060405180830381600087803b15801562000ea357600080fd5b505af115801562000eb8573d6000803e3d6000fd5b5050505050505050565b3360009081526006602052604090205460ff1662000f235760405162461bcd60e51b815260206004820181905260248201527f77686974654c697374203a3a204164647265737320636865636b206572726f7260448201526064016200051d565b62000f2f8282620010aa565b5050565b600080838360405160240162000f4b9291906200192c565b60408051601f198184030181529181526020820180516001600160e01b031663266c45bb60e11b179052519091507f000000000000000000000000000000000000000000000000000000000000000090829062000fa890620013ea565b62000fb592919062001847565b604051809103906000f08015801562000fd2573d6000803e3d6000fd5b50949350505050565b6001600160a01b03919091166000908152600660205260409020805460ff1916911515919091179055565b6200101062001289565b600280546001600160a01b0319166001600160a01b039290921691821790556200103c90600162000fdb565b6200104662001335565b600380546001600160a01b0319166001600160a01b039290921691821790556200107290600162000fdb565b6200107c62001392565b600480546001600160a01b0319166001600160a01b03929092169182179055620010a890600162000fdb565b565b81600c6000828254620010be9190620019b9565b9091555060009050620010d3606484620019d4565b905060006064600a5485620010e99190620019f7565b620010f59190620019d4565b905060008162001106848762001a19565b62001112919062001a19565b905081600b6000828254620011289190620019b9565b909155505060095460408051632cfc019d60e21b815290516000926001600160a01b03169163b3f0067491600480830192602092919082900301818787803b1580156200117457600080fd5b505af115801562001189573d6000803e3d6000fd5b505050506040513d601f19601f82011682018060405250810190620011af919062001510565b6001546040516320e6b82d60e11b81526001600160a01b038084166004830152602482018890529293509116906341cd705a90604401600060405180830381600087803b1580156200120057600080fd5b505af115801562001215573d6000803e3d6000fd5b50506001546040516320e6b82d60e11b81526001600160a01b0389811660048301526024820187905290911692506341cd705a9150604401600060405180830381600087803b1580156200126857600080fd5b505af11580156200127d573d6000803e3d6000fd5b50505050505050505050565b6001546040516001600160a01b039091166024820152600090819060440160408051601f198184030181529181526020820180516001600160e01b031663189acdbd60e31b179052519091507f00000000000000000000000000000000000000000000000000000000000000009082906200130490620013ea565b6200131192919062001847565b604051809103906000f0801580156200132e573d6000803e3d6000fd5b5091505090565b60408051600481526024810182526020810180516001600160e01b031663204a7f0760e21b1790529051600091907f00000000000000000000000000000000000000000000000000000000000000009082906200130490620013ea565b60408051600481526024810182526020810180516001600160e01b031663204a7f0760e21b1790529051600091907f000000000000000000000000000000000000000000000000000000000000000090829062001304905b6103188062001abe83390190565b600082601f8301126200140a57600080fd5b81356020620014236200141d8362001992565b6200195e565b80838252828201915082860187848660051b89010111156200144457600080fd5b60005b85811015620014655781358452928401929084019060010162001447565b5090979650505050505050565b600082601f8301126200148457600080fd5b813567ffffffffffffffff811115620014a157620014a162001a8e565b620014b6601f8201601f19166020016200195e565b818152846020838601011115620014cc57600080fd5b816020850160208301376000918101602001919091529392505050565b600060208284031215620014fc57600080fd5b8135620015098162001aa4565b9392505050565b6000602082840312156200152357600080fd5b8151620015098162001aa4565b600080600080608085870312156200154757600080fd5b8435620015548162001aa4565b93506020850135620015668162001aa4565b9250604085013567ffffffffffffffff808211156200158457600080fd5b620015928883890162001472565b93506060870135915080821115620015a957600080fd5b50620015b88782880162001472565b91505092959194509250565b600080600060608486031215620015da57600080fd5b833567ffffffffffffffff80821115620015f357600080fd5b818601915086601f8301126200160857600080fd5b813560206200161b6200141d8362001992565b8083825282820191508286018b848660051b89010111156200163c57600080fd5b600096505b848710156200166c578035620016578162001aa4565b83526001969096019591830191830162001641565b50975050870135925050808211156200168457600080fd5b6200169287838801620013f8565b93506040860135915080821115620016a957600080fd5b50620016b886828701620013f8565b9150509250925092565b600060208284031215620016d557600080fd5b815180151581146200150957600080fd5b600060208284031215620016f957600080fd5b8151600381106200150957600080fd5b6000602082840312156200171c57600080fd5b5051919050565b600080604083850312156200173757600080fd5b8235915060208301356200174b8162001aa4565b809150509250929050565b6000806000606084860312156200176c57600080fd5b505081359360208301359350604090920135919050565b600081518084526020808501945080840160005b83811015620017be5781516001600160a01b03168752958201959082019060010162001797565b509495945050505050565b600081518084526020808501945080840160005b83811015620017be57815187529582019590820190600101620017dd565b600081518084526200181581602086016020860162001a33565b601f01601f19169290920160200192915050565b600082516200183d81846020870162001a33565b9190910192915050565b6001600160a01b03831681526040602082018190526000906200186d90830184620017fb565b949350505050565b6060815260006200188a606083018662001783565b82810360208401526200189e8186620017c9565b90508281036040840152620018b48185620017c9565b9695505050505050565b608081526000620018d3608083018762001783565b8281036020840152620018e78187620017c9565b90508281036040840152620018fd8186620017c9565b91505060018060a01b038316606083015295945050505050565b602081526000620015096020830184620017fb565b604081526000620019416040830185620017fb565b8281036020840152620019558185620017fb565b95945050505050565b604051601f8201601f1916810167ffffffffffffffff811182821017156200198a576200198a62001a8e565b604052919050565b600067ffffffffffffffff821115620019af57620019af62001a8e565b5060051b60200190565b60008219821115620019cf57620019cf62001a62565b500190565b600082620019f257634e487b7160e01b600052601260045260246000fd5b500490565b600081600019048311821515161562001a145762001a1462001a62565b500290565b60008282101562001a2e5762001a2e62001a62565b500390565b60005b8381101562001a5057818101518382015260200162001a36565b8381111562000a8b5750506000910152565b634e487b7160e01b600052601160045260246000fd5b634e487b7160e01b600052602160045260246000fd5b634e487b7160e01b600052604160045260246000fd5b6001600160a01b038116811462001aba57600080fd5b5056fe608060405234801561001057600080fd5b5060405161031838038061031883398101604081905261002f91610112565b816100667f5f62ce3c9aebd463c7a36ab1b244d2bb94f07a2c13889b3b687940ebc467b9b360001b61010f60201b61005c1760201c565b80546001600160a01b0319166001600160a01b039283161790556040516000918291908516906100979085906101e0565b600060405180830381855af49150503d80600081146100d2576040519150601f19603f3d011682016040523d82523d6000602084013e6100d7565b606091505b50915091508181906101055760405162461bcd60e51b81526004016100fc91906101fc565b60405180910390fd5b5050505050610275565b90565b6000806040838503121561012557600080fd5b82516001600160a01b038116811461013c57600080fd5b60208401519092506001600160401b038082111561015957600080fd5b818501915085601f83011261016d57600080fd5b81518181111561017f5761017f61025f565b604051601f8201601f19908116603f011681019083821181831017156101a7576101a761025f565b816040528281528860208487010111156101c057600080fd5b6101d183602083016020880161022f565b80955050505050509250929050565b600082516101f281846020870161022f565b9190910192915050565b602081526000825180602084015261021b81604085016020870161022f565b601f01601f19169190910160400192915050565b60005b8381101561024a578181015183820152602001610232565b83811115610259576000848401525b50505050565b634e487b7160e01b600052604160045260246000fd5b6095806102836000396000f3fe608060405236600a57005b7f5f62ce3c9aebd463c7a36ab1b244d2bb94f07a2c13889b3b687940ebc467b9b3546040516001600160a01b039091169036600082376000803683855af43d806000843e8180156058578184f35b8184fd5b9056fea2646970667358221220e8aafb936de2f2d12beac51574171054e14d2e988e3fdd7063f663eaf9a8040064736f6c63430008050033a2646970667358221220d91d97078a2950eea7cc451393a8d8dea9445a44c0bae25e0aecda8dabf453b464736f6c63430008050033",
					"opcodes": "PUSH2 0x100 PUSH1 0x40 MSTORE CALLVALUE DUP1 ISZERO PUSH3 0x12 JUMPI PUSH1 0x0 DUP1 REVERT JUMPDEST POP PUSH1 0x40 MLOAD PUSH3 0x1F4C CODESIZE SUB DUP1 PUSH3 0x1F4C DUP4 CODECOPY DUP2 ADD PUSH1 0x40 DUP2 SWAP1 MSTORE PUSH3 0x35 SWAP2 PUSH3 0x82 JUMP JUMPDEST PUSH1 0x1 PUSH1 0x1 PUSH1 0x60 SHL SUB NOT PUSH1 0x60 SWAP5 DUP6 SHL DUP2 AND PUSH1 0x80 MSTORE SWAP3 DUP5 SHL DUP4 AND PUSH1 0xA0 MSTORE SWAP1 DUP4 SHL DUP3 AND PUSH1 0xC0 MSTORE SWAP1 SWAP2 SHL AND PUSH1 0xE0 MSTORE PUSH3 0xDF JUMP JUMPDEST DUP1 MLOAD PUSH1 0x1 PUSH1 0x1 PUSH1 0xA0 SHL SUB DUP2 AND DUP2 EQ PUSH3 0x7D JUMPI PUSH1 0x0 DUP1 REVERT JUMPDEST SWAP2 SWAP1 POP JUMP JUMPDEST PUSH1 0x0 DUP1 PUSH1 0x0 DUP1 PUSH1 0x80 DUP6 DUP8 SUB SLT ISZERO PUSH3 0x99 JUMPI PUSH1 0x0 DUP1 REVERT JUMPDEST PUSH3 0xA4 DUP6 PUSH3 0x65 JUMP JUMPDEST SWAP4 POP PUSH3 0xB4 PUSH1 0x20 DUP7 ADD PUSH3 0x65 JUMP JUMPDEST SWAP3 POP PUSH3 0xC4 PUSH1 0x40 DUP7 ADD PUSH3 0x65 JUMP JUMPDEST SWAP2 POP PUSH3 0xD4 PUSH1 0x60 DUP7 ADD PUSH3 0x65 JUMP JUMPDEST SWAP1 POP SWAP3 SWAP6 SWAP2 SWAP5 POP SWAP3 POP JUMP JUMPDEST PUSH1 0x80 MLOAD PUSH1 0x60 SHR PUSH1 0xA0 MLOAD PUSH1 0x60 SHR PUSH1 0xC0 MLOAD PUSH1 0x60 SHR PUSH1 0xE0 MLOAD PUSH1 0x60 SHR PUSH2 0x1E0B PUSH3 0x141 PUSH1 0x0 CODECOPY PUSH1 0x0 DUP2 DUP2 PUSH2 0x353 ADD MSTORE PUSH2 0x13C2 ADD MSTORE PUSH1 0x0 DUP2 DUP2 PUSH2 0x45D ADD MSTORE PUSH2 0x1365 ADD MSTORE PUSH1 0x0 DUP2 DUP2 PUSH2 0x254 ADD MSTORE PUSH2 0xF7B ADD MSTORE PUSH1 0x0 DUP2 DUP2 PUSH2 0x32B ADD MSTORE PUSH2 0x12D7 ADD MSTORE PUSH2 0x1E0B PUSH1 0x0 RETURN INVALID PUSH1 0x80 PUSH1 0x40 MSTORE CALLVALUE DUP1 ISZERO PUSH3 0x11 JUMPI PUSH1 0x0 DUP1 REVERT JUMPDEST POP PUSH1 0x4 CALLDATASIZE LT PUSH3 0x1F5 JUMPI PUSH1 0x0 CALLDATALOAD PUSH1 0xE0 SHR DUP1 PUSH4 0xA5360D04 GT PUSH3 0x119 JUMPI DUP1 PUSH4 0xDA1C4845 GT PUSH3 0xAF JUMPI DUP1 PUSH4 0xF2BE7F53 GT PUSH3 0x7A JUMPI DUP1 PUSH4 0xF2BE7F53 EQ PUSH3 0x457 JUMPI DUP1 PUSH4 0xF8B1CB3C EQ PUSH3 0x47F JUMPI DUP1 PUSH4 0xFBFA77CF EQ PUSH3 0x49C JUMPI DUP1 PUSH4 0xFCFFF16F EQ PUSH3 0x4B0 JUMPI PUSH1 0x0 DUP1 REVERT JUMPDEST DUP1 PUSH4 0xDA1C4845 EQ PUSH3 0x40E JUMPI DUP1 PUSH4 0xDDCA3F43 EQ PUSH3 0x425 JUMPI DUP1 PUSH4 0xE06174E4 EQ PUSH3 0x42F JUMPI DUP1 PUSH4 0xE66F53B7 EQ PUSH3 0x443 JUMPI PUSH1 0x0 DUP1 REVERT JUMPDEST DUP1 PUSH4 0xC83DD231 GT PUSH3 0xF0 JUMPI DUP1 PUSH4 0xC83DD231 EQ PUSH3 0x3C2 JUMPI DUP1 PUSH4 0xC851CC32 EQ PUSH3 0x3D6 JUMPI DUP1 PUSH4 0xCD9D3DD8 EQ PUSH3 0x3ED JUMPI DUP1 PUSH4 0xD294F093 EQ PUSH3 0x404 JUMPI PUSH1 0x0 DUP1 REVERT JUMPDEST DUP1 PUSH4 0xA5360D04 EQ PUSH3 0x397 JUMPI DUP1 PUSH4 0xADC1B956 EQ PUSH3 0x3A1 JUMPI DUP1 PUSH4 0xB88C0100 EQ PUSH3 0x3AB JUMPI PUSH1 0x0 DUP1 REVERT JUMPDEST DUP1 PUSH4 0x3B92EB23 GT PUSH3 0x18F JUMPI DUP1 PUSH4 0x6E99D77B GT PUSH3 0x166 JUMPI DUP1 PUSH4 0x6E99D77B EQ PUSH3 0x325 JUMPI DUP1 PUSH4 0x765D6410 EQ PUSH3 0x34D JUMPI DUP1 PUSH4 0x7D9F6DB5 EQ PUSH3 0x375 JUMPI DUP1 PUSH4 0x9CE110D7 EQ PUSH3 0x389 JUMPI PUSH1 0x0 DUP1 REVERT JUMPDEST DUP1 PUSH4 0x3B92EB23 EQ PUSH3 0x2F3 JUMPI DUP1 PUSH4 0x4B09B72A EQ PUSH3 0x307 JUMPI DUP1 PUSH4 0x632A9A52 EQ PUSH3 0x311 JUMPI PUSH1 0x0 DUP1 REVERT JUMPDEST DUP1 PUSH4 0xC7D5CD8 GT PUSH3 0x1D0 JUMPI DUP1 PUSH4 0xC7D5CD8 EQ PUSH3 0x28F JUMPI DUP1 PUSH4 0x108ADC7A EQ PUSH3 0x299 JUMPI DUP1 PUSH4 0x2016A0D2 EQ PUSH3 0x2A3 JUMPI DUP1 PUSH4 0x372C12B1 EQ PUSH3 0x2BC JUMPI PUSH1 0x0 DUP1 REVERT JUMPDEST DUP1 PUSH4 0x47FC9AA EQ PUSH3 0x1FA JUMPI DUP1 PUSH4 0x6FDDE03 EQ PUSH3 0x217 JUMPI DUP1 PUSH4 0xB1E4238 EQ PUSH3 0x24E JUMPI JUMPDEST PUSH1 0x0 DUP1 REVERT JUMPDEST PUSH3 0x204 PUSH1 0xC SLOAD DUP2 JUMP JUMPDEST PUSH1 0x40 MLOAD SWAP1 DUP2 MSTORE PUSH1 0x20 ADD JUMPDEST PUSH1 0x40 MLOAD DUP1 SWAP2 SUB SWAP1 RETURN JUMPDEST PUSH3 0x23F PUSH1 0x40 MLOAD DUP1 PUSH1 0x40 ADD PUSH1 0x40 MSTORE DUP1 PUSH1 0x8 DUP2 MSTORE PUSH1 0x20 ADD PUSH8 0x125CDD185B989D5B PUSH1 0xC2 SHL DUP2 MSTORE POP DUP2 JUMP JUMPDEST PUSH1 0x40 MLOAD PUSH3 0x20E SWAP2 SWAP1 PUSH3 0x1917 JUMP JUMPDEST PUSH3 0x276 PUSH32 0x0 DUP2 JUMP JUMPDEST PUSH1 0x40 MLOAD PUSH1 0x1 PUSH1 0x1 PUSH1 0xA0 SHL SUB SWAP1 SWAP2 AND DUP2 MSTORE PUSH1 0x20 ADD PUSH3 0x20E JUMP JUMPDEST PUSH3 0x204 PUSH1 0xA SLOAD DUP2 JUMP JUMPDEST PUSH3 0x204 PUSH1 0xF SLOAD DUP2 JUMP JUMPDEST PUSH3 0x2BA PUSH3 0x2B4 CALLDATASIZE PUSH1 0x4 PUSH3 0x1530 JUMP JUMPDEST PUSH3 0x4C3 JUMP JUMPDEST STOP JUMPDEST PUSH3 0x2E2 PUSH3 0x2CD CALLDATASIZE PUSH1 0x4 PUSH3 0x14E9 JUMP JUMPDEST PUSH1 0x6 PUSH1 0x20 MSTORE PUSH1 0x0 SWAP1 DUP2 MSTORE PUSH1 0x40 SWAP1 KECCAK256 SLOAD PUSH1 0xFF AND DUP2 JUMP JUMPDEST PUSH1 0x40 MLOAD SWAP1 ISZERO ISZERO DUP2 MSTORE PUSH1 0x20 ADD PUSH3 0x20E JUMP JUMPDEST PUSH1 0x2 SLOAD PUSH3 0x276 SWAP1 PUSH1 0x1 PUSH1 0x1 PUSH1 0xA0 SHL SUB AND DUP2 JUMP JUMPDEST PUSH3 0x204 PUSH1 0xB SLOAD DUP2 JUMP JUMPDEST PUSH1 0x4 SLOAD PUSH3 0x276 SWAP1 PUSH1 0x1 PUSH1 0x1 PUSH1 0xA0 SHL SUB AND DUP2 JUMP JUMPDEST PUSH3 0x276 PUSH32 0x0 DUP2 JUMP JUMPDEST PUSH3 0x276 PUSH32 0x0 DUP2 JUMP JUMPDEST PUSH1 0x3 SLOAD PUSH3 0x276 SWAP1 PUSH1 0x1 PUSH1 0x1 PUSH1 0xA0 SHL SUB AND DUP2 JUMP JUMPDEST PUSH1 0x7 SLOAD PUSH3 0x2E2 SWAP1 PUSH1 0xFF AND DUP2 JUMP JUMPDEST PUSH3 0x204 PUSH1 0xE SLOAD DUP2 JUMP JUMPDEST PUSH3 0x204 PUSH1 0x8 SLOAD DUP2 JUMP JUMPDEST PUSH3 0x2BA PUSH3 0x3BC CALLDATASIZE PUSH1 0x4 PUSH3 0x1756 JUMP JUMPDEST PUSH3 0x5FF JUMP JUMPDEST PUSH1 0x0 SLOAD PUSH3 0x276 SWAP1 PUSH1 0x1 PUSH1 0x1 PUSH1 0xA0 SHL SUB AND DUP2 JUMP JUMPDEST PUSH3 0x2BA PUSH3 0x3E7 CALLDATASIZE PUSH1 0x4 PUSH3 0x14E9 JUMP JUMPDEST PUSH3 0x89F JUMP JUMPDEST PUSH3 0x2BA PUSH3 0x3FE CALLDATASIZE PUSH1 0x4 PUSH3 0x15C4 JUMP JUMPDEST PUSH3 0xA91 JUMP JUMPDEST PUSH3 0x2BA PUSH3 0xC11 JUMP JUMPDEST PUSH3 0x2BA PUSH3 0x41F CALLDATASIZE PUSH1 0x4 PUSH3 0x1723 JUMP JUMPDEST PUSH3 0xEC2 JUMP JUMPDEST PUSH3 0x204 PUSH1 0xD SLOAD DUP2 JUMP JUMPDEST PUSH1 0x9 SLOAD PUSH3 0x276 SWAP1 PUSH1 0x1 PUSH1 0x1 PUSH1 0xA0 SHL SUB AND DUP2 JUMP JUMPDEST PUSH1 0x5 SLOAD PUSH3 0x276 SWAP1 PUSH1 0x1 PUSH1 0x1 PUSH1 0xA0 SHL SUB AND DUP2 JUMP JUMPDEST PUSH3 0x276 PUSH32 0x0 DUP2 JUMP JUMPDEST PUSH3 0x488 PUSH1 0xA DUP2 JUMP JUMPDEST PUSH1 0x40 MLOAD PUSH2 0xFFFF SWAP1 SWAP2 AND DUP2 MSTORE PUSH1 0x20 ADD PUSH3 0x20E JUMP JUMPDEST PUSH1 0x1 SLOAD PUSH3 0x276 SWAP1 PUSH1 0x1 PUSH1 0x1 PUSH1 0xA0 SHL SUB AND DUP2 JUMP JUMPDEST PUSH1 0x7 SLOAD PUSH3 0x2E2 SWAP1 PUSH2 0x100 SWAP1 DIV PUSH1 0xFF AND DUP2 JUMP JUMPDEST PUSH1 0x7 SLOAD PUSH1 0xFF AND ISZERO PUSH3 0x526 JUMPI PUSH1 0x40 MLOAD PUSH3 0x461BCD PUSH1 0xE5 SHL DUP2 MSTORE PUSH1 0x20 PUSH1 0x4 DUP3 ADD MSTORE PUSH1 0x21 PUSH1 0x24 DUP3 ADD MSTORE PUSH32 0x696E697469616C697A65203A3A20416C726561647920696E697469616C697A65 PUSH1 0x44 DUP3 ADD MSTORE PUSH1 0x19 PUSH1 0xFA SHL PUSH1 0x64 DUP3 ADD MSTORE PUSH1 0x84 ADD JUMPDEST PUSH1 0x40 MLOAD DUP1 SWAP2 SUB SWAP1 REVERT JUMPDEST PUSH1 0x7 DUP1 SLOAD PUSH1 0xFF NOT DUP2 AND PUSH1 0xFF SWAP1 SWAP2 AND ISZERO OR SWAP1 SSTORE PUSH1 0x0 DUP1 SLOAD PUSH1 0x1 PUSH1 0x1 PUSH1 0xA0 SHL SUB NOT AND CALLER OR SWAP1 SSTORE PUSH3 0x556 DUP3 DUP3 PUSH3 0xF33 JUMP JUMPDEST PUSH1 0x1 DUP1 SLOAD PUSH1 0x1 PUSH1 0x1 PUSH1 0xA0 SHL SUB NOT AND PUSH1 0x1 PUSH1 0x1 PUSH1 0xA0 SHL SUB SWAP3 SWAP1 SWAP3 AND SWAP2 DUP3 OR DUP2 SSTORE PUSH3 0x581 SWAP2 SWAP1 PUSH3 0xFDB JUMP JUMPDEST PUSH3 0x58E ADDRESS PUSH1 0x1 PUSH3 0xFDB JUMP JUMPDEST PUSH1 0x5 DUP1 SLOAD PUSH1 0x1 PUSH1 0x1 PUSH1 0xA0 SHL SUB NOT SWAP1 DUP2 AND PUSH1 0x1 PUSH1 0x1 PUSH1 0xA0 SHL SUB DUP8 DUP2 AND SWAP2 DUP3 OR SWAP1 SWAP4 SSTORE PUSH1 0x9 DUP1 SLOAD SWAP1 SWAP3 AND DUP7 DUP5 AND OR SWAP1 SWAP2 SSTORE PUSH1 0x1 SLOAD PUSH1 0x40 DUP1 MLOAD SWAP3 DUP4 MSTORE SWAP3 AND PUSH1 0x20 DUP3 ADD MSTORE PUSH32 0xDC90FED0326BA91706DEEAC7EB34AC9F8B680734F9D782864DC29704D23BED6A SWAP2 ADD PUSH1 0x40 MLOAD DUP1 SWAP2 SUB SWAP1 LOG1 POP POP POP POP JUMP JUMPDEST PUSH1 0x5 SLOAD PUSH1 0x1 PUSH1 0x1 PUSH1 0xA0 SHL SUB AND CALLER EQ PUSH3 0x66E JUMPI PUSH1 0x40 MLOAD PUSH3 0x461BCD PUSH1 0xE5 SHL DUP2 MSTORE PUSH1 0x20 PUSH1 0x4 DUP3 ADD MSTORE PUSH1 0x2A PUSH1 0x24 DUP3 ADD MSTORE PUSH32 0x6973737565203A3A204F6E6C792063757261746F722063616E20697373756520 PUSH1 0x44 DUP3 ADD MSTORE PUSH10 0x74686520746F6B656E73 PUSH1 0xB0 SHL PUSH1 0x64 DUP3 ADD MSTORE PUSH1 0x84 ADD PUSH3 0x51D JUMP JUMPDEST PUSH1 0x7 SLOAD PUSH2 0x100 SWAP1 DIV PUSH1 0xFF AND ISZERO PUSH3 0x6C8 JUMPI PUSH1 0x40 MLOAD PUSH3 0x461BCD PUSH1 0xE5 SHL DUP2 MSTORE PUSH1 0x20 PUSH1 0x4 DUP3 ADD DUP2 SWAP1 MSTORE PUSH1 0x24 DUP3 ADD MSTORE PUSH32 0x6973737565203A3A20546F6B656E20697320616C726561647920616374697665 PUSH1 0x44 DUP3 ADD MSTORE PUSH1 0x64 ADD PUSH3 0x51D JUMP JUMPDEST PUSH10 0x21E19E0C9BAB2400000 DUP4 LT ISZERO PUSH3 0x73A JUMPI PUSH1 0x40 MLOAD PUSH3 0x461BCD PUSH1 0xE5 SHL DUP2 MSTORE PUSH1 0x20 PUSH1 0x4 DUP3 ADD MSTORE PUSH1 0x2D PUSH1 0x24 DUP3 ADD MSTORE PUSH32 0x6973737565203A3A2054686520737570706C79206D7573742062652067726561 PUSH1 0x44 DUP3 ADD MSTORE PUSH13 0x746572207468616E203130303 PUSH1 0x9C SHL PUSH1 0x64 DUP3 ADD MSTORE PUSH1 0x84 ADD PUSH3 0x51D JUMP JUMPDEST PUSH1 0x63 DUP3 GT ISZERO PUSH3 0x78D JUMPI PUSH1 0x40 MLOAD PUSH3 0x461BCD PUSH1 0xE5 SHL DUP2 MSTORE PUSH1 0x20 PUSH1 0x4 DUP3 ADD DUP2 SWAP1 MSTORE PUSH1 0x24 DUP3 ADD MSTORE PUSH32 0x6973737565203A3A20496E636F7272656374207265736572766520726174696F PUSH1 0x44 DUP3 ADD MSTORE PUSH1 0x64 ADD PUSH3 0x51D JUMP JUMPDEST PUSH1 0x7 DUP1 SLOAD PUSH2 0xFF00 NOT AND PUSH2 0x100 OR SWAP1 SSTORE PUSH3 0x7A6 PUSH3 0x1006 JUMP JUMPDEST TIMESTAMP PUSH1 0x8 SSTORE PUSH1 0x0 PUSH1 0xD SSTORE PUSH1 0xA DUP3 SWAP1 SSTORE PUSH1 0x5 SLOAD PUSH3 0x7CD SWAP1 DUP5 SWAP1 PUSH1 0x1 PUSH1 0x1 PUSH1 0xA0 SHL SUB AND PUSH3 0x10AA JUMP JUMPDEST PUSH1 0x3 SLOAD PUSH1 0x40 MLOAD PUSH4 0x91B7F5ED PUSH1 0xE0 SHL DUP2 MSTORE PUSH1 0x4 DUP2 ADD DUP4 SWAP1 MSTORE PUSH1 0x1 PUSH1 0x1 PUSH1 0xA0 SHL SUB SWAP1 SWAP2 AND SWAP1 PUSH4 0x91B7F5ED SWAP1 PUSH1 0x24 ADD PUSH1 0x0 PUSH1 0x40 MLOAD DUP1 DUP4 SUB DUP2 PUSH1 0x0 DUP8 DUP1 EXTCODESIZE ISZERO DUP1 ISZERO PUSH3 0x814 JUMPI PUSH1 0x0 DUP1 REVERT JUMPDEST POP GAS CALL ISZERO DUP1 ISZERO PUSH3 0x829 JUMPI RETURNDATASIZE PUSH1 0x0 DUP1 RETURNDATACOPY RETURNDATASIZE PUSH1 0x0 REVERT JUMPDEST POP POP PUSH1 0xA SLOAD PUSH1 0x2 SLOAD PUSH1 0x3 SLOAD PUSH1 0x4 SLOAD PUSH1 0x40 DUP1 MLOAD DUP11 DUP2 MSTORE PUSH1 0x20 DUP2 ADD SWAP6 SWAP1 SWAP6 MSTORE DUP5 ADD DUP8 SWAP1 MSTORE PUSH1 0x1 PUSH1 0x1 PUSH1 0xA0 SHL SUB SWAP3 DUP4 AND PUSH1 0x60 DUP6 ADD MSTORE SWAP1 DUP3 AND PUSH1 0x80 DUP5 ADD MSTORE AND PUSH1 0xA0 DUP3 ADD MSTORE PUSH32 0xDDEC7FB699C258710BDBC2D19CFC80B0793BE3E9338CBB403D82CC76282C406 SWAP3 POP PUSH1 0xC0 ADD SWAP1 POP JUMPDEST PUSH1 0x40 MLOAD DUP1 SWAP2 SUB SWAP1 LOG1 POP POP POP JUMP JUMPDEST CALLER PUSH1 0x0 SWAP1 DUP2 MSTORE PUSH1 0x6 PUSH1 0x20 MSTORE PUSH1 0x40 SWAP1 KECCAK256 SLOAD PUSH1 0xFF AND PUSH3 0x900 JUMPI PUSH1 0x40 MLOAD PUSH3 0x461BCD PUSH1 0xE5 SHL DUP2 MSTORE PUSH1 0x20 PUSH1 0x4 DUP3 ADD DUP2 SWAP1 MSTORE PUSH1 0x24 DUP3 ADD MSTORE PUSH32 0x77686974654C697374203A3A204164647265737320636865636B206572726F72 PUSH1 0x44 DUP3 ADD MSTORE PUSH1 0x64 ADD PUSH3 0x51D JUMP JUMPDEST PUSH1 0x0 SLOAD PUSH1 0x40 MLOAD PUSH4 0x1CAAE84D PUSH1 0xE1 SHL DUP2 MSTORE PUSH1 0x1 PUSH1 0x1 PUSH1 0xA0 SHL SUB DUP4 DUP2 AND PUSH1 0x4 DUP4 ADD MSTORE SWAP1 SWAP2 AND SWAP1 PUSH4 0x3955D09A SWAP1 PUSH1 0x24 ADD PUSH1 0x20 PUSH1 0x40 MLOAD DUP1 DUP4 SUB DUP2 PUSH1 0x0 DUP8 DUP1 EXTCODESIZE ISZERO DUP1 ISZERO PUSH3 0x948 JUMPI PUSH1 0x0 DUP1 REVERT JUMPDEST POP GAS CALL ISZERO DUP1 ISZERO PUSH3 0x95D JUMPI RETURNDATASIZE PUSH1 0x0 DUP1 RETURNDATACOPY RETURNDATASIZE PUSH1 0x0 REVERT JUMPDEST POP POP POP POP PUSH1 0x40 MLOAD RETURNDATASIZE PUSH1 0x1F NOT PUSH1 0x1F DUP3 ADD AND DUP3 ADD DUP1 PUSH1 0x40 MSTORE POP DUP2 ADD SWAP1 PUSH3 0x983 SWAP2 SWAP1 PUSH3 0x16C2 JUMP JUMPDEST PUSH3 0x9DC JUMPI PUSH1 0x40 MLOAD PUSH3 0x461BCD PUSH1 0xE5 SHL DUP2 MSTORE PUSH1 0x20 PUSH1 0x4 DUP3 ADD MSTORE PUSH1 0x22 PUSH1 0x24 DUP3 ADD MSTORE PUSH32 0x757064617465526F75746572203A3A20496E636F72726563742074656D706C61 PUSH1 0x44 DUP3 ADD MSTORE PUSH2 0x7465 PUSH1 0xF0 SHL PUSH1 0x64 DUP3 ADD MSTORE PUSH1 0x84 ADD PUSH3 0x51D JUMP JUMPDEST PUSH1 0x40 DUP1 MLOAD PUSH1 0x4 DUP2 MSTORE PUSH1 0x24 DUP2 ADD DUP3 MSTORE PUSH1 0x20 DUP2 ADD DUP1 MLOAD PUSH1 0x1 PUSH1 0x1 PUSH1 0xE0 SHL SUB AND PUSH4 0x39B7CF21 PUSH1 0xE1 SHL OR SWAP1 MSTORE SWAP1 MLOAD PUSH1 0x0 SWAP2 DUP3 SWAP2 PUSH1 0x1 PUSH1 0x1 PUSH1 0xA0 SHL SUB DUP6 AND SWAP2 PUSH3 0xA21 SWAP2 PUSH3 0x1829 JUMP JUMPDEST PUSH1 0x0 PUSH1 0x40 MLOAD DUP1 DUP4 SUB DUP2 DUP6 GAS DELEGATECALL SWAP2 POP POP RETURNDATASIZE DUP1 PUSH1 0x0 DUP2 EQ PUSH3 0xA5E JUMPI PUSH1 0x40 MLOAD SWAP2 POP PUSH1 0x1F NOT PUSH1 0x3F RETURNDATASIZE ADD AND DUP3 ADD PUSH1 0x40 MSTORE RETURNDATASIZE DUP3 MSTORE RETURNDATASIZE PUSH1 0x0 PUSH1 0x20 DUP5 ADD RETURNDATACOPY PUSH3 0xA63 JUMP JUMPDEST PUSH1 0x60 SWAP2 POP JUMPDEST POP SWAP2 POP SWAP2 POP DUP2 DUP2 SWAP1 PUSH3 0xA8B JUMPI PUSH1 0x40 MLOAD PUSH3 0x461BCD PUSH1 0xE5 SHL DUP2 MSTORE PUSH1 0x4 ADD PUSH3 0x51D SWAP2 SWAP1 PUSH3 0x1917 JUMP JUMPDEST POP POP POP POP JUMP JUMPDEST PUSH1 0x7 SLOAD PUSH2 0x100 SWAP1 DIV PUSH1 0xFF AND ISZERO PUSH3 0xAFD JUMPI PUSH1 0x40 MLOAD PUSH3 0x461BCD PUSH1 0xE5 SHL DUP2 MSTORE PUSH1 0x20 PUSH1 0x4 DUP3 ADD MSTORE PUSH1 0x29 PUSH1 0x24 DUP3 ADD MSTORE PUSH32 0x63757261746F724465706F736974203A3A20546F6B656E20697320616C726561 PUSH1 0x44 DUP3 ADD MSTORE PUSH9 0x647920616374697665 PUSH1 0xB8 SHL PUSH1 0x64 DUP3 ADD MSTORE PUSH1 0x84 ADD PUSH3 0x51D JUMP JUMPDEST PUSH1 0x5 SLOAD PUSH1 0x1 PUSH1 0x1 PUSH1 0xA0 SHL SUB AND CALLER EQ PUSH3 0xB70 JUMPI PUSH1 0x40 MLOAD PUSH3 0x461BCD PUSH1 0xE5 SHL DUP2 MSTORE PUSH1 0x20 PUSH1 0x4 DUP3 ADD MSTORE PUSH1 0x2E PUSH1 0x24 DUP3 ADD MSTORE PUSH32 0x63757261746F724465706F736974203A3A204F6E6C792063757261746F722063 PUSH1 0x44 DUP3 ADD MSTORE PUSH14 0x185B8819195C1BDCDA5D08139195 PUSH1 0x92 SHL PUSH1 0x64 DUP3 ADD MSTORE PUSH1 0x84 ADD PUSH3 0x51D JUMP JUMPDEST PUSH1 0x1 SLOAD PUSH1 0x40 MLOAD PUSH4 0xE2019AB3 PUSH1 0xE0 SHL DUP2 MSTORE PUSH1 0x1 PUSH1 0x1 PUSH1 0xA0 SHL SUB SWAP1 SWAP2 AND SWAP1 PUSH4 0xE2019AB3 SWAP1 PUSH3 0xBA8 SWAP1 DUP7 SWAP1 DUP7 SWAP1 DUP7 SWAP1 CALLER SWAP1 PUSH1 0x4 ADD PUSH3 0x18BE JUMP JUMPDEST PUSH1 0x0 PUSH1 0x40 MLOAD DUP1 DUP4 SUB DUP2 PUSH1 0x0 DUP8 DUP1 EXTCODESIZE ISZERO DUP1 ISZERO PUSH3 0xBC3 JUMPI PUSH1 0x0 DUP1 REVERT JUMPDEST POP GAS CALL ISZERO DUP1 ISZERO PUSH3 0xBD8 JUMPI RETURNDATASIZE PUSH1 0x0 DUP1 RETURNDATACOPY RETURNDATASIZE PUSH1 0x0 REVERT JUMPDEST POP POP POP POP PUSH32 0x3A29EC296622EF644C7845A1C556399C39CD768E645A903D7911A7F5BC1E4011 DUP4 DUP4 DUP4 PUSH1 0x40 MLOAD PUSH3 0x892 SWAP4 SWAP3 SWAP2 SWAP1 PUSH3 0x1875 JUMP JUMPDEST PUSH1 0x1 SLOAD PUSH1 0x40 DUP1 MLOAD PUSH4 0xD58BFA9D PUSH1 0xE0 SHL DUP2 MSTORE SWAP1 MLOAD PUSH1 0x2 SWAP3 PUSH1 0x1 PUSH1 0x1 PUSH1 0xA0 SHL SUB AND SWAP2 PUSH4 0xD58BFA9D SWAP2 PUSH1 0x4 DUP1 DUP4 ADD SWAP3 PUSH1 0x20 SWAP3 SWAP2 SWAP1 DUP3 SWAP1 SUB ADD DUP2 DUP7 DUP1 EXTCODESIZE ISZERO DUP1 ISZERO PUSH3 0xC57 JUMPI PUSH1 0x0 DUP1 REVERT JUMPDEST POP GAS STATICCALL ISZERO DUP1 ISZERO PUSH3 0xC6C JUMPI RETURNDATASIZE PUSH1 0x0 DUP1 RETURNDATACOPY RETURNDATASIZE PUSH1 0x0 REVERT JUMPDEST POP POP POP POP PUSH1 0x40 MLOAD RETURNDATASIZE PUSH1 0x1F NOT PUSH1 0x1F DUP3 ADD AND DUP3 ADD DUP1 PUSH1 0x40 MSTORE POP DUP2 ADD SWAP1 PUSH3 0xC92 SWAP2 SWAP1 PUSH3 0x16E6 JUMP JUMPDEST PUSH1 0x2 DUP2 GT ISZERO PUSH3 0xCA6 JUMPI PUSH3 0xCA6 PUSH3 0x1A78 JUMP JUMPDEST EQ ISZERO PUSH3 0xD07 JUMPI PUSH1 0x40 MLOAD PUSH3 0x461BCD PUSH1 0xE5 SHL DUP2 MSTORE PUSH1 0x20 PUSH1 0x4 DUP3 ADD MSTORE PUSH1 0x28 PUSH1 0x24 DUP3 ADD MSTORE PUSH32 0x636C61696D203A3A2063616E6E6F7420636C61696D2061667465722061756374 PUSH1 0x44 DUP3 ADD MSTORE PUSH8 0x696F6E20656E6473 PUSH1 0xC0 SHL PUSH1 0x64 DUP3 ADD MSTORE PUSH1 0x84 ADD PUSH3 0x51D JUMP JUMPDEST PUSH1 0x7 SLOAD PUSH2 0x100 SWAP1 DIV PUSH1 0xFF AND PUSH3 0xD6A JUMPI PUSH1 0x40 MLOAD PUSH3 0x461BCD PUSH1 0xE5 SHL DUP2 MSTORE PUSH1 0x20 PUSH1 0x4 DUP3 ADD MSTORE PUSH1 0x21 PUSH1 0x24 DUP3 ADD MSTORE PUSH32 0x636C61696D203A3A20546F6B656E206E6F7420616C7265616479206163746976 PUSH1 0x44 DUP3 ADD MSTORE PUSH1 0x65 PUSH1 0xF8 SHL PUSH1 0x64 DUP3 ADD MSTORE PUSH1 0x84 ADD PUSH3 0x51D JUMP JUMPDEST PUSH1 0x0 PUSH2 0x3E8 PUSH1 0x1 PUSH1 0x0 SWAP1 SLOAD SWAP1 PUSH2 0x100 EXP SWAP1 DIV PUSH1 0x1 PUSH1 0x1 PUSH1 0xA0 SHL SUB AND PUSH1 0x1 PUSH1 0x1 PUSH1 0xA0 SHL SUB AND PUSH4 0x18160DDD PUSH1 0x40 MLOAD DUP2 PUSH4 0xFFFFFFFF AND PUSH1 0xE0 SHL DUP2 MSTORE PUSH1 0x4 ADD PUSH1 0x20 PUSH1 0x40 MLOAD DUP1 DUP4 SUB DUP2 DUP7 DUP1 EXTCODESIZE ISZERO DUP1 ISZERO PUSH3 0xDBE JUMPI PUSH1 0x0 DUP1 REVERT JUMPDEST POP GAS STATICCALL ISZERO DUP1 ISZERO PUSH3 0xDD3 JUMPI RETURNDATASIZE PUSH1 0x0 DUP1 RETURNDATACOPY RETURNDATASIZE PUSH1 0x0 REVERT JUMPDEST POP POP POP POP PUSH1 0x40 MLOAD RETURNDATASIZE PUSH1 0x1F NOT PUSH1 0x1F DUP3 ADD AND DUP3 ADD DUP1 PUSH1 0x40 MSTORE POP DUP2 ADD SWAP1 PUSH3 0xDF9 SWAP2 SWAP1 PUSH3 0x1709 JUMP JUMPDEST PUSH1 0xD SLOAD PUSH3 0xE08 SWAP2 SWAP1 PUSH3 0x19F7 JUMP JUMPDEST PUSH3 0xE14 SWAP2 SWAP1 PUSH3 0x19D4 JUMP JUMPDEST SWAP1 POP PUSH1 0x0 PUSH3 0xE28 PUSH4 0x1E13380 DUP4 PUSH3 0x19D4 JUMP JUMPDEST SWAP1 POP PUSH1 0x0 PUSH1 0x8 SLOAD TIMESTAMP PUSH3 0xE3C SWAP2 SWAP1 PUSH3 0x1A19 JUMP JUMPDEST SWAP1 POP PUSH1 0x0 PUSH3 0xE4C DUP4 DUP4 PUSH3 0x19F7 JUMP JUMPDEST TIMESTAMP PUSH1 0x8 SSTORE PUSH1 0x1 SLOAD PUSH1 0x5 SLOAD PUSH1 0x40 MLOAD PUSH4 0x20E6B82D PUSH1 0xE1 SHL DUP2 MSTORE PUSH1 0x1 PUSH1 0x1 PUSH1 0xA0 SHL SUB SWAP2 DUP3 AND PUSH1 0x4 DUP3 ADD MSTORE PUSH1 0x24 DUP2 ADD DUP5 SWAP1 MSTORE SWAP3 SWAP4 POP AND SWAP1 PUSH4 0x41CD705A SWAP1 PUSH1 0x44 ADD PUSH1 0x0 PUSH1 0x40 MLOAD DUP1 DUP4 SUB DUP2 PUSH1 0x0 DUP8 DUP1 EXTCODESIZE ISZERO DUP1 ISZERO PUSH3 0xEA3 JUMPI PUSH1 0x0 DUP1 REVERT JUMPDEST POP GAS CALL ISZERO DUP1 ISZERO PUSH3 0xEB8 JUMPI RETURNDATASIZE PUSH1 0x0 DUP1 RETURNDATACOPY RETURNDATASIZE PUSH1 0x0 REVERT JUMPDEST POP POP POP POP POP POP POP POP JUMP JUMPDEST CALLER PUSH1 0x0 SWAP1 DUP2 MSTORE PUSH1 0x6 PUSH1 0x20 MSTORE PUSH1 0x40 SWAP1 KECCAK256 SLOAD PUSH1 0xFF AND PUSH3 0xF23 JUMPI PUSH1 0x40 MLOAD PUSH3 0x461BCD PUSH1 0xE5 SHL DUP2 MSTORE PUSH1 0x20 PUSH1 0x4 DUP3 ADD DUP2 SWAP1 MSTORE PUSH1 0x24 DUP3 ADD MSTORE PUSH32 0x77686974654C697374203A3A204164647265737320636865636B206572726F72 PUSH1 0x44 DUP3 ADD MSTORE PUSH1 0x64 ADD PUSH3 0x51D JUMP JUMPDEST PUSH3 0xF2F DUP3 DUP3 PUSH3 0x10AA JUMP JUMPDEST POP POP JUMP JUMPDEST PUSH1 0x0 DUP1 DUP4 DUP4 PUSH1 0x40 MLOAD PUSH1 0x24 ADD PUSH3 0xF4B SWAP3 SWAP2 SWAP1 PUSH3 0x192C JUMP JUMPDEST PUSH1 0x40 DUP1 MLOAD PUSH1 0x1F NOT DUP2 DUP5 SUB ADD DUP2 MSTORE SWAP2 DUP2 MSTORE PUSH1 0x20 DUP3 ADD DUP1 MLOAD PUSH1 0x1 PUSH1 0x1 PUSH1 0xE0 SHL SUB AND PUSH4 0x266C45BB PUSH1 0xE1 SHL OR SWAP1 MSTORE MLOAD SWAP1 SWAP2 POP PUSH32 0x0 SWAP1 DUP3 SWAP1 PUSH3 0xFA8 SWAP1 PUSH3 0x13EA JUMP JUMPDEST PUSH3 0xFB5 SWAP3 SWAP2 SWAP1 PUSH3 0x1847 JUMP JUMPDEST PUSH1 0x40 MLOAD DUP1 SWAP2 SUB SWAP1 PUSH1 0x0 CREATE DUP1 ISZERO DUP1 ISZERO PUSH3 0xFD2 JUMPI RETURNDATASIZE PUSH1 0x0 DUP1 RETURNDATACOPY RETURNDATASIZE PUSH1 0x0 REVERT JUMPDEST POP SWAP5 SWAP4 POP POP POP POP JUMP JUMPDEST PUSH1 0x1 PUSH1 0x1 PUSH1 0xA0 SHL SUB SWAP2 SWAP1 SWAP2 AND PUSH1 0x0 SWAP1 DUP2 MSTORE PUSH1 0x6 PUSH1 0x20 MSTORE PUSH1 0x40 SWAP1 KECCAK256 DUP1 SLOAD PUSH1 0xFF NOT AND SWAP2 ISZERO ISZERO SWAP2 SWAP1 SWAP2 OR SWAP1 SSTORE JUMP JUMPDEST PUSH3 0x1010 PUSH3 0x1289 JUMP JUMPDEST PUSH1 0x2 DUP1 SLOAD PUSH1 0x1 PUSH1 0x1 PUSH1 0xA0 SHL SUB NOT AND PUSH1 0x1 PUSH1 0x1 PUSH1 0xA0 SHL SUB SWAP3 SWAP1 SWAP3 AND SWAP2 DUP3 OR SWAP1 SSTORE PUSH3 0x103C SWAP1 PUSH1 0x1 PUSH3 0xFDB JUMP JUMPDEST PUSH3 0x1046 PUSH3 0x1335 JUMP JUMPDEST PUSH1 0x3 DUP1 SLOAD PUSH1 0x1 PUSH1 0x1 PUSH1 0xA0 SHL SUB NOT AND PUSH1 0x1 PUSH1 0x1 PUSH1 0xA0 SHL SUB SWAP3 SWAP1 SWAP3 AND SWAP2 DUP3 OR SWAP1 SSTORE PUSH3 0x1072 SWAP1 PUSH1 0x1 PUSH3 0xFDB JUMP JUMPDEST PUSH3 0x107C PUSH3 0x1392 JUMP JUMPDEST PUSH1 0x4 DUP1 SLOAD PUSH1 0x1 PUSH1 0x1 PUSH1 0xA0 SHL SUB NOT AND PUSH1 0x1 PUSH1 0x1 PUSH1 0xA0 SHL SUB SWAP3 SWAP1 SWAP3 AND SWAP2 DUP3 OR SWAP1 SSTORE PUSH3 0x10A8 SWAP1 PUSH1 0x1 PUSH3 0xFDB JUMP JUMPDEST JUMP JUMPDEST DUP2 PUSH1 0xC PUSH1 0x0 DUP3 DUP3 SLOAD PUSH3 0x10BE SWAP2 SWAP1 PUSH3 0x19B9 JUMP JUMPDEST SWAP1 SWAP2 SSTORE POP PUSH1 0x0 SWAP1 POP PUSH3 0x10D3 PUSH1 0x64 DUP5 PUSH3 0x19D4 JUMP JUMPDEST SWAP1 POP PUSH1 0x0 PUSH1 0x64 PUSH1 0xA SLOAD DUP6 PUSH3 0x10E9 SWAP2 SWAP1 PUSH3 0x19F7 JUMP JUMPDEST PUSH3 0x10F5 SWAP2 SWAP1 PUSH3 0x19D4 JUMP JUMPDEST SWAP1 POP PUSH1 0x0 DUP2 PUSH3 0x1106 DUP5 DUP8 PUSH3 0x1A19 JUMP JUMPDEST PUSH3 0x1112 SWAP2 SWAP1 PUSH3 0x1A19 JUMP JUMPDEST SWAP1 POP DUP2 PUSH1 0xB PUSH1 0x0 DUP3 DUP3 SLOAD PUSH3 0x1128 SWAP2 SWAP1 PUSH3 0x19B9 JUMP JUMPDEST SWAP1 SWAP2 SSTORE POP POP PUSH1 0x9 SLOAD PUSH1 0x40 DUP1 MLOAD PUSH4 0x2CFC019D PUSH1 0xE2 SHL DUP2 MSTORE SWAP1 MLOAD PUSH1 0x0 SWAP3 PUSH1 0x1 PUSH1 0x1 PUSH1 0xA0 SHL SUB AND SWAP2 PUSH4 0xB3F00674 SWAP2 PUSH1 0x4 DUP1 DUP4 ADD SWAP3 PUSH1 0x20 SWAP3 SWAP2 SWAP1 DUP3 SWAP1 SUB ADD DUP2 DUP8 DUP8 DUP1 EXTCODESIZE ISZERO DUP1 ISZERO PUSH3 0x1174 JUMPI PUSH1 0x0 DUP1 REVERT JUMPDEST POP GAS CALL ISZERO DUP1 ISZERO PUSH3 0x1189 JUMPI RETURNDATASIZE PUSH1 0x0 DUP1 RETURNDATACOPY RETURNDATASIZE PUSH1 0x0 REVERT JUMPDEST POP POP POP POP PUSH1 0x40 MLOAD RETURNDATASIZE PUSH1 0x1F NOT PUSH1 0x1F DUP3 ADD AND DUP3 ADD DUP1 PUSH1 0x40 MSTORE POP DUP2 ADD SWAP1 PUSH3 0x11AF SWAP2 SWAP1 PUSH3 0x1510 JUMP JUMPDEST PUSH1 0x1 SLOAD PUSH1 0x40 MLOAD PUSH4 0x20E6B82D PUSH1 0xE1 SHL DUP2 MSTORE PUSH1 0x1 PUSH1 0x1 PUSH1 0xA0 SHL SUB DUP1 DUP5 AND PUSH1 0x4 DUP4 ADD MSTORE PUSH1 0x24 DUP3 ADD DUP9 SWAP1 MSTORE SWAP3 SWAP4 POP SWAP2 AND SWAP1 PUSH4 0x41CD705A SWAP1 PUSH1 0x44 ADD PUSH1 0x0 PUSH1 0x40 MLOAD DUP1 DUP4 SUB DUP2 PUSH1 0x0 DUP8 DUP1 EXTCODESIZE ISZERO DUP1 ISZERO PUSH3 0x1200 JUMPI PUSH1 0x0 DUP1 REVERT JUMPDEST POP GAS CALL ISZERO DUP1 ISZERO PUSH3 0x1215 JUMPI RETURNDATASIZE PUSH1 0x0 DUP1 RETURNDATACOPY RETURNDATASIZE PUSH1 0x0 REVERT JUMPDEST POP POP PUSH1 0x1 SLOAD PUSH1 0x40 MLOAD PUSH4 0x20E6B82D PUSH1 0xE1 SHL DUP2 MSTORE PUSH1 0x1 PUSH1 0x1 PUSH1 0xA0 SHL SUB DUP10 DUP2 AND PUSH1 0x4 DUP4 ADD MSTORE PUSH1 0x24 DUP3 ADD DUP8 SWAP1 MSTORE SWAP1 SWAP2 AND SWAP3 POP PUSH4 0x41CD705A SWAP2 POP PUSH1 0x44 ADD PUSH1 0x0 PUSH1 0x40 MLOAD DUP1 DUP4 SUB DUP2 PUSH1 0x0 DUP8 DUP1 EXTCODESIZE ISZERO DUP1 ISZERO PUSH3 0x1268 JUMPI PUSH1 0x0 DUP1 REVERT JUMPDEST POP GAS CALL ISZERO DUP1 ISZERO PUSH3 0x127D JUMPI RETURNDATASIZE PUSH1 0x0 DUP1 RETURNDATACOPY RETURNDATASIZE PUSH1 0x0 REVERT JUMPDEST POP POP POP POP POP POP POP POP POP POP JUMP JUMPDEST PUSH1 0x1 SLOAD PUSH1 0x40 MLOAD PUSH1 0x1 PUSH1 0x1 PUSH1 0xA0 SHL SUB SWAP1 SWAP2 AND PUSH1 0x24 DUP3 ADD MSTORE PUSH1 0x0 SWAP1 DUP2 SWAP1 PUSH1 0x44 ADD PUSH1 0x40 DUP1 MLOAD PUSH1 0x1F NOT DUP2 DUP5 SUB ADD DUP2 MSTORE SWAP2 DUP2 MSTORE PUSH1 0x20 DUP3 ADD DUP1 MLOAD PUSH1 0x1 PUSH1 0x1 PUSH1 0xE0 SHL SUB AND PUSH4 0x189ACDBD PUSH1 0xE3 SHL OR SWAP1 MSTORE MLOAD SWAP1 SWAP2 POP PUSH32 0x0 SWAP1 DUP3 SWAP1 PUSH3 0x1304 SWAP1 PUSH3 0x13EA JUMP JUMPDEST PUSH3 0x1311 SWAP3 SWAP2 SWAP1 PUSH3 0x1847 JUMP JUMPDEST PUSH1 0x40 MLOAD DUP1 SWAP2 SUB SWAP1 PUSH1 0x0 CREATE DUP1 ISZERO DUP1 ISZERO PUSH3 0x132E JUMPI RETURNDATASIZE PUSH1 0x0 DUP1 RETURNDATACOPY RETURNDATASIZE PUSH1 0x0 REVERT JUMPDEST POP SWAP2 POP POP SWAP1 JUMP JUMPDEST PUSH1 0x40 DUP1 MLOAD PUSH1 0x4 DUP2 MSTORE PUSH1 0x24 DUP2 ADD DUP3 MSTORE PUSH1 0x20 DUP2 ADD DUP1 MLOAD PUSH1 0x1 PUSH1 0x1 PUSH1 0xE0 SHL SUB AND PUSH4 0x204A7F07 PUSH1 0xE2 SHL OR SWAP1 MSTORE SWAP1 MLOAD PUSH1 0x0 SWAP2 SWAP1 PUSH32 0x0 SWAP1 DUP3 SWAP1 PUSH3 0x1304 SWAP1 PUSH3 0x13EA JUMP JUMPDEST PUSH1 0x40 DUP1 MLOAD PUSH1 0x4 DUP2 MSTORE PUSH1 0x24 DUP2 ADD DUP3 MSTORE PUSH1 0x20 DUP2 ADD DUP1 MLOAD PUSH1 0x1 PUSH1 0x1 PUSH1 0xE0 SHL SUB AND PUSH4 0x204A7F07 PUSH1 0xE2 SHL OR SWAP1 MSTORE SWAP1 MLOAD PUSH1 0x0 SWAP2 SWAP1 PUSH32 0x0 SWAP1 DUP3 SWAP1 PUSH3 0x1304 SWAP1 JUMPDEST PUSH2 0x318 DUP1 PUSH3 0x1ABE DUP4 CODECOPY ADD SWAP1 JUMP JUMPDEST PUSH1 0x0 DUP3 PUSH1 0x1F DUP4 ADD SLT PUSH3 0x140A JUMPI PUSH1 0x0 DUP1 REVERT JUMPDEST DUP2 CALLDATALOAD PUSH1 0x20 PUSH3 0x1423 PUSH3 0x141D DUP4 PUSH3 0x1992 JUMP JUMPDEST PUSH3 0x195E JUMP JUMPDEST DUP1 DUP4 DUP3 MSTORE DUP3 DUP3 ADD SWAP2 POP DUP3 DUP7 ADD DUP8 DUP5 DUP7 PUSH1 0x5 SHL DUP10 ADD ADD GT ISZERO PUSH3 0x1444 JUMPI PUSH1 0x0 DUP1 REVERT JUMPDEST PUSH1 0x0 JUMPDEST DUP6 DUP2 LT ISZERO PUSH3 0x1465 JUMPI DUP2 CALLDATALOAD DUP5 MSTORE SWAP3 DUP5 ADD SWAP3 SWAP1 DUP5 ADD SWAP1 PUSH1 0x1 ADD PUSH3 0x1447 JUMP JUMPDEST POP SWAP1 SWAP8 SWAP7 POP POP POP POP POP POP POP JUMP JUMPDEST PUSH1 0x0 DUP3 PUSH1 0x1F DUP4 ADD SLT PUSH3 0x1484 JUMPI PUSH1 0x0 DUP1 REVERT JUMPDEST DUP2 CALLDATALOAD PUSH8 0xFFFFFFFFFFFFFFFF DUP2 GT ISZERO PUSH3 0x14A1 JUMPI PUSH3 0x14A1 PUSH3 0x1A8E JUMP JUMPDEST PUSH3 0x14B6 PUSH1 0x1F DUP3 ADD PUSH1 0x1F NOT AND PUSH1 0x20 ADD PUSH3 0x195E JUMP JUMPDEST DUP2 DUP2 MSTORE DUP5 PUSH1 0x20 DUP4 DUP7 ADD ADD GT ISZERO PUSH3 0x14CC JUMPI PUSH1 0x0 DUP1 REVERT JUMPDEST DUP2 PUSH1 0x20 DUP6 ADD PUSH1 0x20 DUP4 ADD CALLDATACOPY PUSH1 0x0 SWAP2 DUP2 ADD PUSH1 0x20 ADD SWAP2 SWAP1 SWAP2 MSTORE SWAP4 SWAP3 POP POP POP JUMP JUMPDEST PUSH1 0x0 PUSH1 0x20 DUP3 DUP5 SUB SLT ISZERO PUSH3 0x14FC JUMPI PUSH1 0x0 DUP1 REVERT JUMPDEST DUP2 CALLDATALOAD PUSH3 0x1509 DUP2 PUSH3 0x1AA4 JUMP JUMPDEST SWAP4 SWAP3 POP POP POP JUMP JUMPDEST PUSH1 0x0 PUSH1 0x20 DUP3 DUP5 SUB SLT ISZERO PUSH3 0x1523 JUMPI PUSH1 0x0 DUP1 REVERT JUMPDEST DUP2 MLOAD PUSH3 0x1509 DUP2 PUSH3 0x1AA4 JUMP JUMPDEST PUSH1 0x0 DUP1 PUSH1 0x0 DUP1 PUSH1 0x80 DUP6 DUP8 SUB SLT ISZERO PUSH3 0x1547 JUMPI PUSH1 0x0 DUP1 REVERT JUMPDEST DUP5 CALLDATALOAD PUSH3 0x1554 DUP2 PUSH3 0x1AA4 JUMP JUMPDEST SWAP4 POP PUSH1 0x20 DUP6 ADD CALLDATALOAD PUSH3 0x1566 DUP2 PUSH3 0x1AA4 JUMP JUMPDEST SWAP3 POP PUSH1 0x40 DUP6 ADD CALLDATALOAD PUSH8 0xFFFFFFFFFFFFFFFF DUP1 DUP3 GT ISZERO PUSH3 0x1584 JUMPI PUSH1 0x0 DUP1 REVERT JUMPDEST PUSH3 0x1592 DUP9 DUP4 DUP10 ADD PUSH3 0x1472 JUMP JUMPDEST SWAP4 POP PUSH1 0x60 DUP8 ADD CALLDATALOAD SWAP2 POP DUP1 DUP3 GT ISZERO PUSH3 0x15A9 JUMPI PUSH1 0x0 DUP1 REVERT JUMPDEST POP PUSH3 0x15B8 DUP8 DUP3 DUP9 ADD PUSH3 0x1472 JUMP JUMPDEST SWAP2 POP POP SWAP3 SWAP6 SWAP2 SWAP5 POP SWAP3 POP JUMP JUMPDEST PUSH1 0x0 DUP1 PUSH1 0x0 PUSH1 0x60 DUP5 DUP7 SUB SLT ISZERO PUSH3 0x15DA JUMPI PUSH1 0x0 DUP1 REVERT JUMPDEST DUP4 CALLDATALOAD PUSH8 0xFFFFFFFFFFFFFFFF DUP1 DUP3 GT ISZERO PUSH3 0x15F3 JUMPI PUSH1 0x0 DUP1 REVERT JUMPDEST DUP2 DUP7 ADD SWAP2 POP DUP7 PUSH1 0x1F DUP4 ADD SLT PUSH3 0x1608 JUMPI PUSH1 0x0 DUP1 REVERT JUMPDEST DUP2 CALLDATALOAD PUSH1 0x20 PUSH3 0x161B PUSH3 0x141D DUP4 PUSH3 0x1992 JUMP JUMPDEST DUP1 DUP4 DUP3 MSTORE DUP3 DUP3 ADD SWAP2 POP DUP3 DUP7 ADD DUP12 DUP5 DUP7 PUSH1 0x5 SHL DUP10 ADD ADD GT ISZERO PUSH3 0x163C JUMPI PUSH1 0x0 DUP1 REVERT JUMPDEST PUSH1 0x0 SWAP7 POP JUMPDEST DUP5 DUP8 LT ISZERO PUSH3 0x166C JUMPI DUP1 CALLDATALOAD PUSH3 0x1657 DUP2 PUSH3 0x1AA4 JUMP JUMPDEST DUP4 MSTORE PUSH1 0x1 SWAP7 SWAP1 SWAP7 ADD SWAP6 SWAP2 DUP4 ADD SWAP2 DUP4 ADD PUSH3 0x1641 JUMP JUMPDEST POP SWAP8 POP POP DUP8 ADD CALLDATALOAD SWAP3 POP POP DUP1 DUP3 GT ISZERO PUSH3 0x1684 JUMPI PUSH1 0x0 DUP1 REVERT JUMPDEST PUSH3 0x1692 DUP8 DUP4 DUP9 ADD PUSH3 0x13F8 JUMP JUMPDEST SWAP4 POP PUSH1 0x40 DUP7 ADD CALLDATALOAD SWAP2 POP DUP1 DUP3 GT ISZERO PUSH3 0x16A9 JUMPI PUSH1 0x0 DUP1 REVERT JUMPDEST POP PUSH3 0x16B8 DUP7 DUP3 DUP8 ADD PUSH3 0x13F8 JUMP JUMPDEST SWAP2 POP POP SWAP3 POP SWAP3 POP SWAP3 JUMP JUMPDEST PUSH1 0x0 PUSH1 0x20 DUP3 DUP5 SUB SLT ISZERO PUSH3 0x16D5 JUMPI PUSH1 0x0 DUP1 REVERT JUMPDEST DUP2 MLOAD DUP1 ISZERO ISZERO DUP2 EQ PUSH3 0x1509 JUMPI PUSH1 0x0 DUP1 REVERT JUMPDEST PUSH1 0x0 PUSH1 0x20 DUP3 DUP5 SUB SLT ISZERO PUSH3 0x16F9 JUMPI PUSH1 0x0 DUP1 REVERT JUMPDEST DUP2 MLOAD PUSH1 0x3 DUP2 LT PUSH3 0x1509 JUMPI PUSH1 0x0 DUP1 REVERT JUMPDEST PUSH1 0x0 PUSH1 0x20 DUP3 DUP5 SUB SLT ISZERO PUSH3 0x171C JUMPI PUSH1 0x0 DUP1 REVERT JUMPDEST POP MLOAD SWAP2 SWAP1 POP JUMP JUMPDEST PUSH1 0x0 DUP1 PUSH1 0x40 DUP4 DUP6 SUB SLT ISZERO PUSH3 0x1737 JUMPI PUSH1 0x0 DUP1 REVERT JUMPDEST DUP3 CALLDATALOAD SWAP2 POP PUSH1 0x20 DUP4 ADD CALLDATALOAD PUSH3 0x174B DUP2 PUSH3 0x1AA4 JUMP JUMPDEST DUP1 SWAP2 POP POP SWAP3 POP SWAP3 SWAP1 POP JUMP JUMPDEST PUSH1 0x0 DUP1 PUSH1 0x0 PUSH1 0x60 DUP5 DUP7 SUB SLT ISZERO PUSH3 0x176C JUMPI PUSH1 0x0 DUP1 REVERT JUMPDEST POP POP DUP2 CALLDATALOAD SWAP4 PUSH1 0x20 DUP4 ADD CALLDATALOAD SWAP4 POP PUSH1 0x40 SWAP1 SWAP3 ADD CALLDATALOAD SWAP2 SWAP1 POP JUMP JUMPDEST PUSH1 0x0 DUP2 MLOAD DUP1 DUP5 MSTORE PUSH1 0x20 DUP1 DUP6 ADD SWAP5 POP DUP1 DUP5 ADD PUSH1 0x0 JUMPDEST DUP4 DUP2 LT ISZERO PUSH3 0x17BE JUMPI DUP2 MLOAD PUSH1 0x1 PUSH1 0x1 PUSH1 0xA0 SHL SUB AND DUP8 MSTORE SWAP6 DUP3 ADD SWAP6 SWAP1 DUP3 ADD SWAP1 PUSH1 0x1 ADD PUSH3 0x1797 JUMP JUMPDEST POP SWAP5 SWAP6 SWAP5 POP POP POP POP POP JUMP JUMPDEST PUSH1 0x0 DUP2 MLOAD DUP1 DUP5 MSTORE PUSH1 0x20 DUP1 DUP6 ADD SWAP5 POP DUP1 DUP5 ADD PUSH1 0x0 JUMPDEST DUP4 DUP2 LT ISZERO PUSH3 0x17BE JUMPI DUP2 MLOAD DUP8 MSTORE SWAP6 DUP3 ADD SWAP6 SWAP1 DUP3 ADD SWAP1 PUSH1 0x1 ADD PUSH3 0x17DD JUMP JUMPDEST PUSH1 0x0 DUP2 MLOAD DUP1 DUP5 MSTORE PUSH3 0x1815 DUP2 PUSH1 0x20 DUP7 ADD PUSH1 0x20 DUP7 ADD PUSH3 0x1A33 JUMP JUMPDEST PUSH1 0x1F ADD PUSH1 0x1F NOT AND SWAP3 SWAP1 SWAP3 ADD PUSH1 0x20 ADD SWAP3 SWAP2 POP POP JUMP JUMPDEST PUSH1 0x0 DUP3 MLOAD PUSH3 0x183D DUP2 DUP5 PUSH1 0x20 DUP8 ADD PUSH3 0x1A33 JUMP JUMPDEST SWAP2 SWAP1 SWAP2 ADD SWAP3 SWAP2 POP POP JUMP JUMPDEST PUSH1 0x1 PUSH1 0x1 PUSH1 0xA0 SHL SUB DUP4 AND DUP2 MSTORE PUSH1 0x40 PUSH1 0x20 DUP3 ADD DUP2 SWAP1 MSTORE PUSH1 0x0 SWAP1 PUSH3 0x186D SWAP1 DUP4 ADD DUP5 PUSH3 0x17FB JUMP JUMPDEST SWAP5 SWAP4 POP POP POP POP JUMP JUMPDEST PUSH1 0x60 DUP2 MSTORE PUSH1 0x0 PUSH3 0x188A PUSH1 0x60 DUP4 ADD DUP7 PUSH3 0x1783 JUMP JUMPDEST DUP3 DUP2 SUB PUSH1 0x20 DUP5 ADD MSTORE PUSH3 0x189E DUP2 DUP7 PUSH3 0x17C9 JUMP JUMPDEST SWAP1 POP DUP3 DUP2 SUB PUSH1 0x40 DUP5 ADD MSTORE PUSH3 0x18B4 DUP2 DUP6 PUSH3 0x17C9 JUMP JUMPDEST SWAP7 SWAP6 POP POP POP POP POP POP JUMP JUMPDEST PUSH1 0x80 DUP2 MSTORE PUSH1 0x0 PUSH3 0x18D3 PUSH1 0x80 DUP4 ADD DUP8 PUSH3 0x1783 JUMP JUMPDEST DUP3 DUP2 SUB PUSH1 0x20 DUP5 ADD MSTORE PUSH3 0x18E7 DUP2 DUP8 PUSH3 0x17C9 JUMP JUMPDEST SWAP1 POP DUP3 DUP2 SUB PUSH1 0x40 DUP5 ADD MSTORE PUSH3 0x18FD DUP2 DUP7 PUSH3 0x17C9 JUMP JUMPDEST SWAP2 POP POP PUSH1 0x1 DUP1 PUSH1 0xA0 SHL SUB DUP4 AND PUSH1 0x60 DUP4 ADD MSTORE SWAP6 SWAP5 POP POP POP POP POP JUMP JUMPDEST PUSH1 0x20 DUP2 MSTORE PUSH1 0x0 PUSH3 0x1509 PUSH1 0x20 DUP4 ADD DUP5 PUSH3 0x17FB JUMP JUMPDEST PUSH1 0x40 DUP2 MSTORE PUSH1 0x0 PUSH3 0x1941 PUSH1 0x40 DUP4 ADD DUP6 PUSH3 0x17FB JUMP JUMPDEST DUP3 DUP2 SUB PUSH1 0x20 DUP5 ADD MSTORE PUSH3 0x1955 DUP2 DUP6 PUSH3 0x17FB JUMP JUMPDEST SWAP6 SWAP5 POP POP POP POP POP JUMP JUMPDEST PUSH1 0x40 MLOAD PUSH1 0x1F DUP3 ADD PUSH1 0x1F NOT AND DUP2 ADD PUSH8 0xFFFFFFFFFFFFFFFF DUP2 GT DUP3 DUP3 LT OR ISZERO PUSH3 0x198A JUMPI PUSH3 0x198A PUSH3 0x1A8E JUMP JUMPDEST PUSH1 0x40 MSTORE SWAP2 SWAP1 POP JUMP JUMPDEST PUSH1 0x0 PUSH8 0xFFFFFFFFFFFFFFFF DUP3 GT ISZERO PUSH3 0x19AF JUMPI PUSH3 0x19AF PUSH3 0x1A8E JUMP JUMPDEST POP PUSH1 0x5 SHL PUSH1 0x20 ADD SWAP1 JUMP JUMPDEST PUSH1 0x0 DUP3 NOT DUP3 GT ISZERO PUSH3 0x19CF JUMPI PUSH3 0x19CF PUSH3 0x1A62 JUMP JUMPDEST POP ADD SWAP1 JUMP JUMPDEST PUSH1 0x0 DUP3 PUSH3 0x19F2 JUMPI PUSH4 0x4E487B71 PUSH1 0xE0 SHL PUSH1 0x0 MSTORE PUSH1 0x12 PUSH1 0x4 MSTORE PUSH1 0x24 PUSH1 0x0 REVERT JUMPDEST POP DIV SWAP1 JUMP JUMPDEST PUSH1 0x0 DUP2 PUSH1 0x0 NOT DIV DUP4 GT DUP3 ISZERO ISZERO AND ISZERO PUSH3 0x1A14 JUMPI PUSH3 0x1A14 PUSH3 0x1A62 JUMP JUMPDEST POP MUL SWAP1 JUMP JUMPDEST PUSH1 0x0 DUP3 DUP3 LT ISZERO PUSH3 0x1A2E JUMPI PUSH3 0x1A2E PUSH3 0x1A62 JUMP JUMPDEST POP SUB SWAP1 JUMP JUMPDEST PUSH1 0x0 JUMPDEST DUP4 DUP2 LT ISZERO PUSH3 0x1A50 JUMPI DUP2 DUP2 ADD MLOAD DUP4 DUP3 ADD MSTORE PUSH1 0x20 ADD PUSH3 0x1A36 JUMP JUMPDEST DUP4 DUP2 GT ISZERO PUSH3 0xA8B JUMPI POP POP PUSH1 0x0 SWAP2 ADD MSTORE JUMP JUMPDEST PUSH4 0x4E487B71 PUSH1 0xE0 SHL PUSH1 0x0 MSTORE PUSH1 0x11 PUSH1 0x4 MSTORE PUSH1 0x24 PUSH1 0x0 REVERT JUMPDEST PUSH4 0x4E487B71 PUSH1 0xE0 SHL PUSH1 0x0 MSTORE PUSH1 0x21 PUSH1 0x4 MSTORE PUSH1 0x24 PUSH1 0x0 REVERT JUMPDEST PUSH4 0x4E487B71 PUSH1 0xE0 SHL PUSH1 0x0 MSTORE PUSH1 0x41 PUSH1 0x4 MSTORE PUSH1 0x24 PUSH1 0x0 REVERT JUMPDEST PUSH1 0x1 PUSH1 0x1 PUSH1 0xA0 SHL SUB DUP2 AND DUP2 EQ PUSH3 0x1ABA JUMPI PUSH1 0x0 DUP1 REVERT JUMPDEST POP JUMP INVALID PUSH1 0x80 PUSH1 0x40 MSTORE CALLVALUE DUP1 ISZERO PUSH2 0x10 JUMPI PUSH1 0x0 DUP1 REVERT JUMPDEST POP PUSH1 0x40 MLOAD PUSH2 0x318 CODESIZE SUB DUP1 PUSH2 0x318 DUP4 CODECOPY DUP2 ADD PUSH1 0x40 DUP2 SWAP1 MSTORE PUSH2 0x2F SWAP2 PUSH2 0x112 JUMP JUMPDEST DUP2 PUSH2 0x66 PUSH32 0x5F62CE3C9AEBD463C7A36AB1B244D2BB94F07A2C13889B3B687940EBC467B9B3 PUSH1 0x0 SHL PUSH2 0x10F PUSH1 0x20 SHL PUSH2 0x5C OR PUSH1 0x20 SHR JUMP JUMPDEST DUP1 SLOAD PUSH1 0x1 PUSH1 0x1 PUSH1 0xA0 SHL SUB NOT AND PUSH1 0x1 PUSH1 0x1 PUSH1 0xA0 SHL SUB SWAP3 DUP4 AND OR SWAP1 SSTORE PUSH1 0x40 MLOAD PUSH1 0x0 SWAP2 DUP3 SWAP2 SWAP1 DUP6 AND SWAP1 PUSH2 0x97 SWAP1 DUP6 SWAP1 PUSH2 0x1E0 JUMP JUMPDEST PUSH1 0x0 PUSH1 0x40 MLOAD DUP1 DUP4 SUB DUP2 DUP6 GAS DELEGATECALL SWAP2 POP POP RETURNDATASIZE DUP1 PUSH1 0x0 DUP2 EQ PUSH2 0xD2 JUMPI PUSH1 0x40 MLOAD SWAP2 POP PUSH1 0x1F NOT PUSH1 0x3F RETURNDATASIZE ADD AND DUP3 ADD PUSH1 0x40 MSTORE RETURNDATASIZE DUP3 MSTORE RETURNDATASIZE PUSH1 0x0 PUSH1 0x20 DUP5 ADD RETURNDATACOPY PUSH2 0xD7 JUMP JUMPDEST PUSH1 0x60 SWAP2 POP JUMPDEST POP SWAP2 POP SWAP2 POP DUP2 DUP2 SWAP1 PUSH2 0x105 JUMPI PUSH1 0x40 MLOAD PUSH3 0x461BCD PUSH1 0xE5 SHL DUP2 MSTORE PUSH1 0x4 ADD PUSH2 0xFC SWAP2 SWAP1 PUSH2 0x1FC JUMP JUMPDEST PUSH1 0x40 MLOAD DUP1 SWAP2 SUB SWAP1 REVERT JUMPDEST POP POP POP POP POP PUSH2 0x275 JUMP JUMPDEST SWAP1 JUMP JUMPDEST PUSH1 0x0 DUP1 PUSH1 0x40 DUP4 DUP6 SUB SLT ISZERO PUSH2 0x125 JUMPI PUSH1 0x0 DUP1 REVERT JUMPDEST DUP3 MLOAD PUSH1 0x1 PUSH1 0x1 PUSH1 0xA0 SHL SUB DUP2 AND DUP2 EQ PUSH2 0x13C JUMPI PUSH1 0x0 DUP1 REVERT JUMPDEST PUSH1 0x20 DUP5 ADD MLOAD SWAP1 SWAP3 POP PUSH1 0x1 PUSH1 0x1 PUSH1 0x40 SHL SUB DUP1 DUP3 GT ISZERO PUSH2 0x159 JUMPI PUSH1 0x0 DUP1 REVERT JUMPDEST DUP2 DUP6 ADD SWAP2 POP DUP6 PUSH1 0x1F DUP4 ADD SLT PUSH2 0x16D JUMPI PUSH1 0x0 DUP1 REVERT JUMPDEST DUP2 MLOAD DUP2 DUP2 GT ISZERO PUSH2 0x17F JUMPI PUSH2 0x17F PUSH2 0x25F JUMP JUMPDEST PUSH1 0x40 MLOAD PUSH1 0x1F DUP3 ADD PUSH1 0x1F NOT SWAP1 DUP2 AND PUSH1 0x3F ADD AND DUP2 ADD SWAP1 DUP4 DUP3 GT DUP2 DUP4 LT OR ISZERO PUSH2 0x1A7 JUMPI PUSH2 0x1A7 PUSH2 0x25F JUMP JUMPDEST DUP2 PUSH1 0x40 MSTORE DUP3 DUP2 MSTORE DUP9 PUSH1 0x20 DUP5 DUP8 ADD ADD GT ISZERO PUSH2 0x1C0 JUMPI PUSH1 0x0 DUP1 REVERT JUMPDEST PUSH2 0x1D1 DUP4 PUSH1 0x20 DUP4 ADD PUSH1 0x20 DUP9 ADD PUSH2 0x22F JUMP JUMPDEST DUP1 SWAP6 POP POP POP POP POP POP SWAP3 POP SWAP3 SWAP1 POP JUMP JUMPDEST PUSH1 0x0 DUP3 MLOAD PUSH2 0x1F2 DUP2 DUP5 PUSH1 0x20 DUP8 ADD PUSH2 0x22F JUMP JUMPDEST SWAP2 SWAP1 SWAP2 ADD SWAP3 SWAP2 POP POP JUMP JUMPDEST PUSH1 0x20 DUP2 MSTORE PUSH1 0x0 DUP3 MLOAD DUP1 PUSH1 0x20 DUP5 ADD MSTORE PUSH2 0x21B DUP2 PUSH1 0x40 DUP6 ADD PUSH1 0x20 DUP8 ADD PUSH2 0x22F JUMP JUMPDEST PUSH1 0x1F ADD PUSH1 0x1F NOT AND SWAP2 SWAP1 SWAP2 ADD PUSH1 0x40 ADD SWAP3 SWAP2 POP POP JUMP JUMPDEST PUSH1 0x0 JUMPDEST DUP4 DUP2 LT ISZERO PUSH2 0x24A JUMPI DUP2 DUP2 ADD MLOAD DUP4 DUP3 ADD MSTORE PUSH1 0x20 ADD PUSH2 0x232 JUMP JUMPDEST DUP4 DUP2 GT ISZERO PUSH2 0x259 JUMPI PUSH1 0x0 DUP5 DUP5 ADD MSTORE JUMPDEST POP POP POP POP JUMP JUMPDEST PUSH4 0x4E487B71 PUSH1 0xE0 SHL PUSH1 0x0 MSTORE PUSH1 0x41 PUSH1 0x4 MSTORE PUSH1 0x24 PUSH1 0x0 REVERT JUMPDEST PUSH1 0x95 DUP1 PUSH2 0x283 PUSH1 0x0 CODECOPY PUSH1 0x0 RETURN INVALID PUSH1 0x80 PUSH1 0x40 MSTORE CALLDATASIZE PUSH1 0xA JUMPI STOP JUMPDEST PUSH32 0x5F62CE3C9AEBD463C7A36AB1B244D2BB94F07A2C13889B3B687940EBC467B9B3 SLOAD PUSH1 0x40 MLOAD PUSH1 0x1 PUSH1 0x1 PUSH1 0xA0 SHL SUB SWAP1 SWAP2 AND SWAP1 CALLDATASIZE PUSH1 0x0 DUP3 CALLDATACOPY PUSH1 0x0 DUP1 CALLDATASIZE DUP4 DUP6 GAS DELEGATECALL RETURNDATASIZE DUP1 PUSH1 0x0 DUP5 RETURNDATACOPY DUP2 DUP1 ISZERO PUSH1 0x58 JUMPI DUP2 DUP5 RETURN JUMPDEST DUP2 DUP5 REVERT JUMPDEST SWAP1 JUMP INVALID LOG2 PUSH5 0x6970667358 0x22 SLT KECCAK256 0xE8 0xAA 0xFB SWAP4 PUSH14 0xE2F2D12BEAC51574171054E14D2E SWAP9 DUP15 EXTCODEHASH 0xDD PUSH17 0x63F663EAF9A8040064736F6C6343000805 STOP CALLER LOG2 PUSH5 0x6970667358 0x22 SLT KECCAK256 0xD9 SAR SWAP8 SMOD DUP11 0x29 POP 0xEE 0xA7 0xCC GASLIMIT SGT SWAP4 0xA8 0xD8 0xDE 0xA9 DIFFICULTY GAS DIFFICULTY 0xC0 0xBA 0xE2 0x5E EXP 0xEC 0xDA DUP14 0xAB DELEGATECALL MSTORE8 0xB4 PUSH5 0x736F6C6343 STOP ADDMOD SDIV STOP CALLER "
				},
				"gasEstimates": {
					"creation": {
						"codeDepositCost": "1538200",
						"executionCost": "infinite",
						"totalCost": "infinite"
					},
					"external": {
						"Factory()": "2382",
						"auction()": "2426",
						"auctionTemplate()": "infinite",
						"cashDivision()": "2330",
						"cashVetoken()": "2352",
						"claimFees()": "infinite",
						"curator()": "2448",
						"curatorDeposit(address[],uint256[],uint256[])": "infinite",
						"fee()": "2351",
						"initialize(address,address,string,string)": "infinite",
						"initializer()": "2421",
						"issue(uint256,uint256,uint256)": "infinite",
						"lastClaimed()": "2352",
						"mintToScale(uint256,address)": "infinite",
						"name()": "infinite",
						"open()": "2431",
						"reserveAmount()": "2352",
						"reserveRatio()": "2330",
						"settings()": "2426",
						"supply()": "2331",
						"updateRouter(address)": "infinite",
						"vault()": "2425",
						"vaultTemplate()": "infinite",
						"veToken()": "2383",
						"veTokenTemplate()": "infinite",
						"versions()": "270",
						"vote()": "2427",
						"voteTemplate()": "infinite",
						"whiteList(address)": "2637"
					},
					"internal": {
						"_mintToScale(uint256,address)": "infinite",
						"mintAuction()": "infinite",
						"mintContract()": "infinite",
						"mintVault(string memory,string memory)": "infinite",
						"mintVeToken()": "infinite",
						"mintVote()": "infinite",
						"setWhiteList(address,bool)": "24347"
					}
				},
				"methodIdentifiers": {
					"Factory()": "c83dd231",
					"auction()": "7d9f6db5",
					"auctionTemplate()": "f2be7f53",
					"cashDivision()": "a5360d04",
					"cashVetoken()": "108adc7a",
					"claimFees()": "d294f093",
					"curator()": "e66f53b7",
					"curatorDeposit(address[],uint256[],uint256[])": "cd9d3dd8",
					"fee()": "ddca3f43",
					"initialize(address,address,string,string)": "2016a0d2",
					"initializer()": "9ce110d7",
					"issue(uint256,uint256,uint256)": "b88c0100",
					"lastClaimed()": "adc1b956",
					"mintToScale(uint256,address)": "da1c4845",
					"name()": "06fdde03",
					"open()": "fcfff16f",
					"reserveAmount()": "4b09b72a",
					"reserveRatio()": "0c7d5cd8",
					"settings()": "e06174e4",
					"supply()": "047fc9aa",
					"updateRouter(address)": "c851cc32",
					"vault()": "fbfa77cf",
					"vaultTemplate()": "0b1e4238",
					"veToken()": "3b92eb23",
					"veTokenTemplate()": "6e99d77b",
					"versions()": "f8b1cb3c",
					"vote()": "632a9a52",
					"voteTemplate()": "765d6410",
					"whiteList(address)": "372c12b1"
				}
			},
			"storageLayout": {
				"storage": [
					{
						"astId": 437,
						"contract": "contracts/Template/Istanbul10/logic/Router.sol:Router",
						"label": "Factory",
						"offset": 0,
						"slot": "0",
						"type": "t_address"
					},
					{
						"astId": 439,
						"contract": "contracts/Template/Istanbul10/logic/Router.sol:Router",
						"label": "vault",
						"offset": 0,
						"slot": "1",
						"type": "t_address"
					},
					{
						"astId": 441,
						"contract": "contracts/Template/Istanbul10/logic/Router.sol:Router",
						"label": "veToken",
						"offset": 0,
						"slot": "2",
						"type": "t_address"
					},
					{
						"astId": 443,
						"contract": "contracts/Template/Istanbul10/logic/Router.sol:Router",
						"label": "auction",
						"offset": 0,
						"slot": "3",
						"type": "t_address"
					},
					{
						"astId": 445,
						"contract": "contracts/Template/Istanbul10/logic/Router.sol:Router",
						"label": "vote",
						"offset": 0,
						"slot": "4",
						"type": "t_address"
					},
					{
						"astId": 447,
						"contract": "contracts/Template/Istanbul10/logic/Router.sol:Router",
						"label": "curator",
						"offset": 0,
						"slot": "5",
						"type": "t_address"
					},
					{
						"astId": 451,
						"contract": "contracts/Template/Istanbul10/logic/Router.sol:Router",
						"label": "whiteList",
						"offset": 0,
						"slot": "6",
						"type": "t_mapping(t_address,t_bool)"
					},
					{
						"astId": 453,
						"contract": "contracts/Template/Istanbul10/logic/Router.sol:Router",
						"label": "initializer",
						"offset": 0,
						"slot": "7",
						"type": "t_bool"
					},
					{
						"astId": 455,
						"contract": "contracts/Template/Istanbul10/logic/Router.sol:Router",
						"label": "open",
						"offset": 1,
						"slot": "7",
						"type": "t_bool"
					},
					{
						"astId": 457,
						"contract": "contracts/Template/Istanbul10/logic/Router.sol:Router",
						"label": "lastClaimed",
						"offset": 0,
						"slot": "8",
						"type": "t_uint256"
					},
					{
						"astId": 459,
						"contract": "contracts/Template/Istanbul10/logic/Router.sol:Router",
						"label": "settings",
						"offset": 0,
						"slot": "9",
						"type": "t_address"
					},
					{
						"astId": 461,
						"contract": "contracts/Template/Istanbul10/logic/Router.sol:Router",
						"label": "reserveRatio",
						"offset": 0,
						"slot": "10",
						"type": "t_uint256"
					},
					{
						"astId": 463,
						"contract": "contracts/Template/Istanbul10/logic/Router.sol:Router",
						"label": "reserveAmount",
						"offset": 0,
						"slot": "11",
						"type": "t_uint256"
					},
					{
						"astId": 465,
						"contract": "contracts/Template/Istanbul10/logic/Router.sol:Router",
						"label": "supply",
						"offset": 0,
						"slot": "12",
						"type": "t_uint256"
					},
					{
						"astId": 467,
						"contract": "contracts/Template/Istanbul10/logic/Router.sol:Router",
						"label": "fee",
						"offset": 0,
						"slot": "13",
						"type": "t_uint256"
					},
					{
						"astId": 469,
						"contract": "contracts/Template/Istanbul10/logic/Router.sol:Router",
						"label": "cashDivision",
						"offset": 0,
						"slot": "14",
						"type": "t_uint256"
					},
					{
						"astId": 471,
						"contract": "contracts/Template/Istanbul10/logic/Router.sol:Router",
						"label": "cashVetoken",
						"offset": 0,
						"slot": "15",
						"type": "t_uint256"
					}
				],
				"types": {
					"t_address": {
						"encoding": "inplace",
						"label": "address",
						"numberOfBytes": "20"
					},
					"t_bool": {
						"encoding": "inplace",
						"label": "bool",
						"numberOfBytes": "1"
					},
					"t_mapping(t_address,t_bool)": {
						"encoding": "mapping",
						"key": "t_address",
						"label": "mapping(address => bool)",
						"numberOfBytes": "32",
						"value": "t_bool"
					},
					"t_uint256": {
						"encoding": "inplace",
						"label": "uint256",
						"numberOfBytes": "32"
					}
				}
			},
			"userdoc": {
				"events": {
					"Initialize(address,address)": {
						"notice": "An event emitted when someone cashes in ERC20 tokens for ETH from an ERC721 token sale"
					}
				},
				"kind": "user",
				"methods": {
					"issue(uint256,uint256,uint256)": {
						"notice": "a function that locks NFT collateral and issues the Tokens to the issuer "
					}
				},
				"version": 1
			}
		}
	}
}