{
	"data": {
		"bytecode": {
			"linkReferences": {},
			"object": "60806040523480156200001157600080fd5b5060405162002535380380620025358339818101604052810190620000379190620001bb565b6000620000496200014960201b60201c565b9050806000806101000a81548173ffffffffffffffffffffffffffffffffffffffff021916908373ffffffffffffffffffffffffffffffffffffffff1602179055508073ffffffffffffffffffffffffffffffffffffffff16600073ffffffffffffffffffffffffffffffffffffffff167f8be0079c531659141344cd1fd0a4f28419497f9722a3daafe3b4186f6b6457e060405160405180910390a35060008060146101000a81548160ff02191690831515021790555080600560006101000a81548173ffffffffffffffffffffffffffffffffffffffff021916908373ffffffffffffffffffffffffffffffffffffffff16021790555050620001ed565b600033905090565b600080fd5b600073ffffffffffffffffffffffffffffffffffffffff82169050919050565b6000620001838262000156565b9050919050565b620001958162000176565b8114620001a157600080fd5b50565b600081519050620001b5816200018a565b92915050565b600060208284031215620001d457620001d362000151565b5b6000620001e484828501620001a4565b91505092915050565b61233880620001fd6000396000f3fe60806040523480156200001157600080fd5b5060043610620001245760003560e01c8063715018a611620000b1578063adc20b1c116200007b578063adc20b1c14620002b5578063d0def52114620002eb578063e06174e41462000321578063e425a4b31462000343578063f2fde38b14620003795762000124565b8063715018a61462000245578063816d116f14620002515780638456cb5914620002875780638da5cb5b14620002935762000124565b80635c975abb11620000f35780635c975abb14620001c15780635f43b6b314620001e35780635fe0711514620002035780636f631e6a14620002235762000124565b80631744942014620001295780633955d09a14620001495780633f4ba83a146200017f5780634e9c1118146200018b575b600080fd5b62000147600480360381019062000141919062001227565b62000399565b005b62000167600480360381019062000161919062001227565b62000460565b60405162000176919062001276565b60405180910390f35b6200018962000480565b005b620001a96004803603810190620001a39190620012ce565b6200050f565b604051620001b8919062001311565b60405180910390f35b620001cb62000542565b604051620001da919062001276565b60405180910390f35b620002016004803603810190620001fb91906200135f565b62000558565b005b6200022160048036038101906200021b919062001547565b62000683565b005b6200022d62000783565b6040516200023c9190620015d3565b60405180910390f35b6200024f62000789565b005b6200026f6004803603810190620002699190620015f0565b620008ca565b6040516200027e919062001311565b60405180910390f35b6200029162000922565b005b6200029d620009b1565b604051620002ac919062001311565b60405180910390f35b620002d36004803603810190620002cd919062001227565b620009da565b604051620002e2919062001311565b60405180910390f35b62000309600480360381019062000303919062001656565b62000a0d565b604051620003189190620015d3565b60405180910390f35b6200032b62000e37565b6040516200033a919062001311565b60405180910390f35b6200036160048036038101906200035b919062001227565b62000e5d565b60405162000370919062001311565b60405180910390f35b62000397600480360381019062000391919062001227565b62000e90565b005b620003a362001042565b73ffffffffffffffffffffffffffffffffffffffff16620003c3620009b1565b73ffffffffffffffffffffffffffffffffffffffff16146200041c576040517f08c379a000000000000000000000000000000000000000000000000000000000815260040162000413906200171d565b60405180910390fd5b80600560006101000a81548173ffffffffffffffffffffffffffffffffffffffff021916908373ffffffffffffffffffffffffffffffffffffffff16021790555050565b60066020528060005260406000206000915054906101000a900460ff1681565b6200048a62001042565b73ffffffffffffffffffffffffffffffffffffffff16620004aa620009b1565b73ffffffffffffffffffffffffffffffffffffffff161462000503576040517f08c379a0000000000000000000000000000000000000000000000000000000008152600401620004fa906200171d565b60405180910390fd5b6200050d6200104a565b565b60036020528060005260406000206000915054906101000a900473ffffffffffffffffffffffffffffffffffffffff1681565b60008060149054906101000a900460ff16905090565b6200056262001042565b73ffffffffffffffffffffffffffffffffffffffff1662000582620009b1565b73ffffffffffffffffffffffffffffffffffffffff1614620005db576040517f08c379a0000000000000000000000000000000000000000000000000000000008152600401620005d2906200171d565b60405180910390fd5b6000823b90506000811162000627576040517f08c379a00000000000000000000000000000000000000000000000000000000081526004016200061e90620017b5565b60405180910390fd5b81600660008573ffffffffffffffffffffffffffffffffffffffff1673ffffffffffffffffffffffffffffffffffffffff16815260200190815260200160002060006101000a81548160ff021916908315150217905550505050565b6200068d62001042565b73ffffffffffffffffffffffffffffffffffffffff16620006ad620009b1565b73ffffffffffffffffffffffffffffffffffffffff161462000706576040517f08c379a0000000000000000000000000000000000000000000000000000000008152600401620006fd906200171d565b60405180910390fd5b806001846040516200071991906200185a565b908152602001604051809103902060008461ffff1661ffff16815260200190815260200160002060006101000a81548173ffffffffffffffffffffffffffffffffffffffff021916908373ffffffffffffffffffffffffffffffffffffffff160217905550505050565b60025481565b6200079362001042565b73ffffffffffffffffffffffffffffffffffffffff16620007b3620009b1565b73ffffffffffffffffffffffffffffffffffffffff16146200080c576040517f08c379a000000000000000000000000000000000000000000000000000000000815260040162000803906200171d565b60405180910390fd5b600073ffffffffffffffffffffffffffffffffffffffff1660008054906101000a900473ffffffffffffffffffffffffffffffffffffffff1673ffffffffffffffffffffffffffffffffffffffff167f8be0079c531659141344cd1fd0a4f28419497f9722a3daafe3b4186f6b6457e060405160405180910390a360008060006101000a81548173ffffffffffffffffffffffffffffffffffffffff021916908373ffffffffffffffffffffffffffffffffffffffff160217905550565b6001828051602081018201805184825260208301602085012081835280955050505050506020528060005260406000206000915091509054906101000a900473ffffffffffffffffffffffffffffffffffffffff1681565b6200092c62001042565b73ffffffffffffffffffffffffffffffffffffffff166200094c620009b1565b73ffffffffffffffffffffffffffffffffffffffff1614620009a5576040517f08c379a00000000000000000000000000000000000000000000000000000000081526004016200099c906200171d565b60405180910390fd5b620009af620010f4565b565b60008060009054906101000a900473ffffffffffffffffffffffffffffffffffffffff16905090565b60076020528060005260406000206000915054906101000a900473ffffffffffffffffffffffffffffffffffffffff1681565b600062000a1962000542565b1562000a5c576040517f08c379a000000000000000000000000000000000000000000000000000000000815260040162000a5390620018c3565b60405180910390fd5b600860009054906101000a900460ff161562000aaf576040517f08c379a000000000000000000000000000000000000000000000000000000000815260040162000aa69062001935565b60405180910390fd5b6001600860006101000a81548160ff021916908315150217905550600660008473ffffffffffffffffffffffffffffffffffffffff1673ffffffffffffffffffffffffffffffffffffffff16815260200190815260200160002060009054906101000a900460ff1662000b59576040517f08c379a000000000000000000000000000000000000000000000000000000000815260040162000b5090620019cd565b60405180910390fd5b6000338360405160240162000b7092919062001a30565b6040516020818303038152906040527ff399e22e000000000000000000000000000000000000000000000000000000007bffffffffffffffffffffffffffffffffffffffffffffffffffffffff19166020820180517bffffffffffffffffffffffffffffffffffffffffffffffffffffffff838183161783525050505090506000848260405162000c0190620011a0565b62000c0e92919062001ac1565b604051809103906000f08015801562000c2b573d6000803e3d6000fd5b5090508473ffffffffffffffffffffffffffffffffffffffff168173ffffffffffffffffffffffffffffffffffffffff167fab8530f87dc9b59234c4623bf917212bb2536d647574c8e7e5da92c2ede0c9f860025460405162000c8f9190620015d3565b60405180910390a38060036000600254815260200190815260200160002060006101000a81548173ffffffffffffffffffffffffffffffffffffffff021916908373ffffffffffffffffffffffffffffffffffffffff16021790555080600760003373ffffffffffffffffffffffffffffffffffffffff1673ffffffffffffffffffffffffffffffffffffffff16815260200190815260200160002060006101000a81548173ffffffffffffffffffffffffffffffffffffffff021916908373ffffffffffffffffffffffffffffffffffffffff16021790555084600460008373ffffffffffffffffffffffffffffffffffffffff1673ffffffffffffffffffffffffffffffffffffffff16815260200190815260200160002060006101000a81548173ffffffffffffffffffffffffffffffffffffffff021916908373ffffffffffffffffffffffffffffffffffffffff1602179055506002600081548092919062000dfc9062001b24565b9190505550600160025462000e12919062001b71565b925050506000600860006101000a81548160ff02191690831515021790555092915050565b600560009054906101000a900473ffffffffffffffffffffffffffffffffffffffff1681565b60046020528060005260406000206000915054906101000a900473ffffffffffffffffffffffffffffffffffffffff1681565b62000e9a62001042565b73ffffffffffffffffffffffffffffffffffffffff1662000eba620009b1565b73ffffffffffffffffffffffffffffffffffffffff161462000f13576040517f08c379a000000000000000000000000000000000000000000000000000000000815260040162000f0a906200171d565b60405180910390fd5b600073ffffffffffffffffffffffffffffffffffffffff168173ffffffffffffffffffffffffffffffffffffffff160362000f85576040517f08c379a000000000000000000000000000000000000000000000000000000000815260040162000f7c9062001c22565b60405180910390fd5b8073ffffffffffffffffffffffffffffffffffffffff1660008054906101000a900473ffffffffffffffffffffffffffffffffffffffff1673ffffffffffffffffffffffffffffffffffffffff167f8be0079c531659141344cd1fd0a4f28419497f9722a3daafe3b4186f6b6457e060405160405180910390a3806000806101000a81548173ffffffffffffffffffffffffffffffffffffffff021916908373ffffffffffffffffffffffffffffffffffffffff16021790555050565b600033905090565b6200105462000542565b62001096576040517f08c379a00000000000000000000000000000000000000000000000000000000081526004016200108d9062001c94565b60405180910390fd5b60008060146101000a81548160ff0219169083151502179055507f5db9ee0a495bf2e6ff9c91a7834c1ba4fdd244a5e8aa4e537bd38aeae4b073aa620010db62001042565b604051620010ea919062001311565b60405180910390a1565b620010fe62000542565b1562001141576040517f08c379a00000000000000000000000000000000000000000000000000000000081526004016200113890620018c3565b60405180910390fd5b6001600060146101000a81548160ff0219169083151502179055507f62e78cea01bee320cd4e420270b5ea74000d11b0c9f74754ebdbfc544b05a2586200118762001042565b60405162001196919062001311565b60405180910390a1565b61064c8062001cb783390190565b6000604051905090565b600080fd5b600080fd5b600073ffffffffffffffffffffffffffffffffffffffff82169050919050565b6000620011ef82620011c2565b9050919050565b6200120181620011e2565b81146200120d57600080fd5b50565b6000813590506200122181620011f6565b92915050565b60006020828403121562001240576200123f620011b8565b5b6000620012508482850162001210565b91505092915050565b60008115159050919050565b620012708162001259565b82525050565b60006020820190506200128d600083018462001265565b92915050565b6000819050919050565b620012a88162001293565b8114620012b457600080fd5b50565b600081359050620012c8816200129d565b92915050565b600060208284031215620012e757620012e6620011b8565b5b6000620012f784828501620012b7565b91505092915050565b6200130b81620011e2565b82525050565b600060208201905062001328600083018462001300565b92915050565b620013398162001259565b81146200134557600080fd5b50565b60008135905062001359816200132e565b92915050565b60008060408385031215620013795762001378620011b8565b5b6000620013898582860162001210565b92505060206200139c8582860162001348565b9150509250929050565b600080fd5b600080fd5b6000601f19601f8301169050919050565b7f4e487b7100000000000000000000000000000000000000000000000000000000600052604160045260246000fd5b620013fb82620013b0565b810181811067ffffffffffffffff821117156200141d576200141c620013c1565b5b80604052505050565b600062001432620011ae565b9050620014408282620013f0565b919050565b600067ffffffffffffffff821115620014635762001462620013c1565b5b6200146e82620013b0565b9050602081019050919050565b82818337600083830152505050565b6000620014a16200149b8462001445565b62001426565b905082815260208101848484011115620014c057620014bf620013ab565b5b620014cd8482856200147b565b509392505050565b600082601f830112620014ed57620014ec620013a6565b5b8135620014ff8482602086016200148a565b91505092915050565b600061ffff82169050919050565b620015218162001508565b81146200152d57600080fd5b50565b600081359050620015418162001516565b92915050565b600080600060608486031215620015635762001562620011b8565b5b600084013567ffffffffffffffff811115620015845762001583620011bd565b5b6200159286828701620014d5565b9350506020620015a58682870162001530565b9250506040620015b88682870162001210565b9150509250925092565b620015cd8162001293565b82525050565b6000602082019050620015ea6000830184620015c2565b92915050565b600080604083850312156200160a5762001609620011b8565b5b600083013567ffffffffffffffff8111156200162b576200162a620011bd565b5b6200163985828601620014d5565b92505060206200164c8582860162001530565b9150509250929050565b6000806040838503121562001670576200166f620011b8565b5b6000620016808582860162001210565b925050602083013567ffffffffffffffff811115620016a457620016a3620011bd565b5b620016b285828601620014d5565b9150509250929050565b600082825260208201905092915050565b7f4f776e61626c653a2063616c6c6572206973206e6f7420746865206f776e6572600082015250565b600062001705602083620016bc565b91506200171282620016cd565b602082019050919050565b600060208201905081810360008301526200173881620016f6565b9050919050565b7f4f6e6c7920736d61727420636f6e747261637420616464726573732063616e2060008201527f6265207365740000000000000000000000000000000000000000000000000000602082015250565b60006200179d602683620016bc565b9150620017aa826200173f565b604082019050919050565b60006020820190508181036000830152620017d0816200178e565b9050919050565b600081519050919050565b600081905092915050565b60005b838110156200180d578082015181840152602081019050620017f0565b838111156200181d576000848401525b50505050565b60006200183082620017d7565b6200183c8185620017e2565b93506200184e818560208601620017ed565b80840191505092915050565b600062001868828462001823565b915081905092915050565b7f5061757361626c653a2070617573656400000000000000000000000000000000600082015250565b6000620018ab601083620016bc565b9150620018b88262001873565b602082019050919050565b60006020820190508181036000830152620018de816200189c565b9050919050565b7f7265656e747279203a3a20496c6c6567616c207265656e7472616e7400000000600082015250565b60006200191d601c83620016bc565b91506200192a82620018e5565b602082019050919050565b6000602082019050818103600083015262001950816200190e565b9050919050565b7f466163746f7279203a3a20496e636f72726563742074656d706c61746520616460008201527f6472657373000000000000000000000000000000000000000000000000000000602082015250565b6000620019b5602583620016bc565b9150620019c28262001957565b604082019050919050565b60006020820190508181036000830152620019e881620019a6565b9050919050565b6000620019fc82620017d7565b62001a088185620016bc565b935062001a1a818560208601620017ed565b62001a2581620013b0565b840191505092915050565b600060408201905062001a47600083018562001300565b818103602083015262001a5b8184620019ef565b90509392505050565b600081519050919050565b600082825260208201905092915050565b600062001a8d8262001a64565b62001a99818562001a6f565b935062001aab818560208601620017ed565b62001ab681620013b0565b840191505092915050565b600060408201905062001ad8600083018562001300565b818103602083015262001aec818462001a80565b90509392505050565b7f4e487b7100000000000000000000000000000000000000000000000000000000600052601160045260246000fd5b600062001b318262001293565b91507fffffffffffffffffffffffffffffffffffffffffffffffffffffffffffffffff820362001b665762001b6562001af5565b5b600182019050919050565b600062001b7e8262001293565b915062001b8b8362001293565b92508282101562001ba15762001ba062001af5565b5b828203905092915050565b7f4f776e61626c653a206e6577206f776e657220697320746865207a65726f206160008201527f6464726573730000000000000000000000000000000000000000000000000000602082015250565b600062001c0a602683620016bc565b915062001c178262001bac565b604082019050919050565b6000602082019050818103600083015262001c3d8162001bfb565b9050919050565b7f5061757361626c653a206e6f7420706175736564000000000000000000000000600082015250565b600062001c7c601483620016bc565b915062001c898262001c44565b602082019050919050565b6000602082019050818103600083015262001caf8162001c6d565b905091905056fe608060405234801561001057600080fd5b5060405161064c38038061064c833981810160405281019061003291906103b9565b600073ffffffffffffffffffffffffffffffffffffffff168273ffffffffffffffffffffffffffffffffffffffff16036100a1576040517f08c379a000000000000000000000000000000000000000000000000000000000815260040161009890610498565b60405180910390fd5b816100d87f5f62ce3c9aebd463c7a36ab1b244d2bb94f07a2c13889b3b687940ebc467b9b360001b6101d360201b6100821760201c565b60000160006101000a81548173ffffffffffffffffffffffffffffffffffffffff021916908373ffffffffffffffffffffffffffffffffffffffff1602179055506000808373ffffffffffffffffffffffffffffffffffffffff168360405161014191906104ff565b600060405180830381855af49150503d806000811461017c576040519150601f19603f3d011682016040523d82523d6000602084013e610181565b606091505b50915091508181906101c9576040517f08c379a00000000000000000000000000000000000000000000000000000000081526004016101c0919061055a565b60405180910390fd5b505050505061057c565b6000819050919050565b6000604051905090565b600080fd5b600080fd5b600073ffffffffffffffffffffffffffffffffffffffff82169050919050565b600061021c826101f1565b9050919050565b61022c81610211565b811461023757600080fd5b50565b60008151905061024981610223565b92915050565b600080fd5b600080fd5b6000601f19601f8301169050919050565b7f4e487b7100000000000000000000000000000000000000000000000000000000600052604160045260246000fd5b6102a282610259565b810181811067ffffffffffffffff821117156102c1576102c061026a565b5b80604052505050565b60006102d46101dd565b90506102e08282610299565b919050565b600067ffffffffffffffff821115610300576102ff61026a565b5b61030982610259565b9050602081019050919050565b60005b83811015610334578082015181840152602081019050610319565b83811115610343576000848401525b50505050565b600061035c610357846102e5565b6102ca565b90508281526020810184848401111561037857610377610254565b5b610383848285610316565b509392505050565b600082601f8301126103a05761039f61024f565b5b81516103b0848260208601610349565b91505092915050565b600080604083850312156103d0576103cf6101e7565b5b60006103de8582860161023a565b925050602083015167ffffffffffffffff8111156103ff576103fe6101ec565b5b61040b8582860161038b565b9150509250929050565b600082825260208201905092915050565b7f50726f7879203a3a204c6f676963616c20636f6e7472616374732063616e6e6f60008201527f74206265207a65726f2061646472657373657300000000000000000000000000602082015250565b6000610482603383610415565b915061048d82610426565b604082019050919050565b600060208201905081810360008301526104b181610475565b9050919050565b600081519050919050565b600081905092915050565b60006104d9826104b8565b6104e381856104c3565b93506104f3818560208601610316565b80840191505092915050565b600061050b82846104ce565b915081905092915050565b600081519050919050565b600061052c82610516565b6105368185610415565b9350610546818560208601610316565b61054f81610259565b840191505092915050565b600060208201905081810360008301526105748184610521565b905092915050565b60c28061058a6000396000f3fe608060405236600a57005b600060367f5f62ce3c9aebd463c7a36ab1b244d2bb94f07a2c13889b3b687940ebc467b9b360001b6082565b60000160009054906101000a900473ffffffffffffffffffffffffffffffffffffffff16905060405136600082376000803683855af43d806000843e8160008114607e578184f35b8184fd5b600081905091905056fea2646970667358221220356905e5dfba3b804d5df38b8eb5599b4b2ff133dd8e18faa0598155a379516264736f6c634300080f0033a2646970667358221220a6457e6e68a946e63814ac4a781797af3fa630a8a4e13bcde8958ea0cae0a2cc64736f6c634300080f0033",
			"opcodes": "PUSH1 0x80 PUSH1 0x40 MSTORE CALLVALUE DUP1 ISZERO PUSH3 0x11 JUMPI PUSH1 0x0 DUP1 REVERT JUMPDEST POP PUSH1 0x40 MLOAD PUSH3 0x2535 CODESIZE SUB DUP1 PUSH3 0x2535 DUP4 CODECOPY DUP2 DUP2 ADD PUSH1 0x40 MSTORE DUP2 ADD SWAP1 PUSH3 0x37 SWAP2 SWAP1 PUSH3 0x1BB JUMP JUMPDEST PUSH1 0x0 PUSH3 0x49 PUSH3 0x149 PUSH1 0x20 SHL PUSH1 0x20 SHR JUMP JUMPDEST SWAP1 POP DUP1 PUSH1 0x0 DUP1 PUSH2 0x100 EXP DUP2 SLOAD DUP2 PUSH20 0xFFFFFFFFFFFFFFFFFFFFFFFFFFFFFFFFFFFFFFFF MUL NOT AND SWAP1 DUP4 PUSH20 0xFFFFFFFFFFFFFFFFFFFFFFFFFFFFFFFFFFFFFFFF AND MUL OR SWAP1 SSTORE POP DUP1 PUSH20 0xFFFFFFFFFFFFFFFFFFFFFFFFFFFFFFFFFFFFFFFF AND PUSH1 0x0 PUSH20 0xFFFFFFFFFFFFFFFFFFFFFFFFFFFFFFFFFFFFFFFF AND PUSH32 0x8BE0079C531659141344CD1FD0A4F28419497F9722A3DAAFE3B4186F6B6457E0 PUSH1 0x40 MLOAD PUSH1 0x40 MLOAD DUP1 SWAP2 SUB SWAP1 LOG3 POP PUSH1 0x0 DUP1 PUSH1 0x14 PUSH2 0x100 EXP DUP2 SLOAD DUP2 PUSH1 0xFF MUL NOT AND SWAP1 DUP4 ISZERO ISZERO MUL OR SWAP1 SSTORE POP DUP1 PUSH1 0x5 PUSH1 0x0 PUSH2 0x100 EXP DUP2 SLOAD DUP2 PUSH20 0xFFFFFFFFFFFFFFFFFFFFFFFFFFFFFFFFFFFFFFFF MUL NOT AND SWAP1 DUP4 PUSH20 0xFFFFFFFFFFFFFFFFFFFFFFFFFFFFFFFFFFFFFFFF AND MUL OR SWAP1 SSTORE POP POP PUSH3 0x1ED JUMP JUMPDEST PUSH1 0x0 CALLER SWAP1 POP SWAP1 JUMP JUMPDEST PUSH1 0x0 DUP1 REVERT JUMPDEST PUSH1 0x0 PUSH20 0xFFFFFFFFFFFFFFFFFFFFFFFFFFFFFFFFFFFFFFFF DUP3 AND SWAP1 POP SWAP2 SWAP1 POP JUMP JUMPDEST PUSH1 0x0 PUSH3 0x183 DUP3 PUSH3 0x156 JUMP JUMPDEST SWAP1 POP SWAP2 SWAP1 POP JUMP JUMPDEST PUSH3 0x195 DUP2 PUSH3 0x176 JUMP JUMPDEST DUP2 EQ PUSH3 0x1A1 JUMPI PUSH1 0x0 DUP1 REVERT JUMPDEST POP JUMP JUMPDEST PUSH1 0x0 DUP2 MLOAD SWAP1 POP PUSH3 0x1B5 DUP2 PUSH3 0x18A JUMP JUMPDEST SWAP3 SWAP2 POP POP JUMP JUMPDEST PUSH1 0x0 PUSH1 0x20 DUP3 DUP5 SUB SLT ISZERO PUSH3 0x1D4 JUMPI PUSH3 0x1D3 PUSH3 0x151 JUMP JUMPDEST JUMPDEST PUSH1 0x0 PUSH3 0x1E4 DUP5 DUP3 DUP6 ADD PUSH3 0x1A4 JUMP JUMPDEST SWAP2 POP POP SWAP3 SWAP2 POP POP JUMP JUMPDEST PUSH2 0x2338 DUP1 PUSH3 0x1FD PUSH1 0x0 CODECOPY PUSH1 0x0 RETURN INVALID PUSH1 0x80 PUSH1 0x40 MSTORE CALLVALUE DUP1 ISZERO PUSH3 0x11 JUMPI PUSH1 0x0 DUP1 REVERT JUMPDEST POP PUSH1 0x4 CALLDATASIZE LT PUSH3 0x124 JUMPI PUSH1 0x0 CALLDATALOAD PUSH1 0xE0 SHR DUP1 PUSH4 0x715018A6 GT PUSH3 0xB1 JUMPI DUP1 PUSH4 0xADC20B1C GT PUSH3 0x7B JUMPI DUP1 PUSH4 0xADC20B1C EQ PUSH3 0x2B5 JUMPI DUP1 PUSH4 0xD0DEF521 EQ PUSH3 0x2EB JUMPI DUP1 PUSH4 0xE06174E4 EQ PUSH3 0x321 JUMPI DUP1 PUSH4 0xE425A4B3 EQ PUSH3 0x343 JUMPI DUP1 PUSH4 0xF2FDE38B EQ PUSH3 0x379 JUMPI PUSH3 0x124 JUMP JUMPDEST DUP1 PUSH4 0x715018A6 EQ PUSH3 0x245 JUMPI DUP1 PUSH4 0x816D116F EQ PUSH3 0x251 JUMPI DUP1 PUSH4 0x8456CB59 EQ PUSH3 0x287 JUMPI DUP1 PUSH4 0x8DA5CB5B EQ PUSH3 0x293 JUMPI PUSH3 0x124 JUMP JUMPDEST DUP1 PUSH4 0x5C975ABB GT PUSH3 0xF3 JUMPI DUP1 PUSH4 0x5C975ABB EQ PUSH3 0x1C1 JUMPI DUP1 PUSH4 0x5F43B6B3 EQ PUSH3 0x1E3 JUMPI DUP1 PUSH4 0x5FE07115 EQ PUSH3 0x203 JUMPI DUP1 PUSH4 0x6F631E6A EQ PUSH3 0x223 JUMPI PUSH3 0x124 JUMP JUMPDEST DUP1 PUSH4 0x17449420 EQ PUSH3 0x129 JUMPI DUP1 PUSH4 0x3955D09A EQ PUSH3 0x149 JUMPI DUP1 PUSH4 0x3F4BA83A EQ PUSH3 0x17F JUMPI DUP1 PUSH4 0x4E9C1118 EQ PUSH3 0x18B JUMPI JUMPDEST PUSH1 0x0 DUP1 REVERT JUMPDEST PUSH3 0x147 PUSH1 0x4 DUP1 CALLDATASIZE SUB DUP2 ADD SWAP1 PUSH3 0x141 SWAP2 SWAP1 PUSH3 0x1227 JUMP JUMPDEST PUSH3 0x399 JUMP JUMPDEST STOP JUMPDEST PUSH3 0x167 PUSH1 0x4 DUP1 CALLDATASIZE SUB DUP2 ADD SWAP1 PUSH3 0x161 SWAP2 SWAP1 PUSH3 0x1227 JUMP JUMPDEST PUSH3 0x460 JUMP JUMPDEST PUSH1 0x40 MLOAD PUSH3 0x176 SWAP2 SWAP1 PUSH3 0x1276 JUMP JUMPDEST PUSH1 0x40 MLOAD DUP1 SWAP2 SUB SWAP1 RETURN JUMPDEST PUSH3 0x189 PUSH3 0x480 JUMP JUMPDEST STOP JUMPDEST PUSH3 0x1A9 PUSH1 0x4 DUP1 CALLDATASIZE SUB DUP2 ADD SWAP1 PUSH3 0x1A3 SWAP2 SWAP1 PUSH3 0x12CE JUMP JUMPDEST PUSH3 0x50F JUMP JUMPDEST PUSH1 0x40 MLOAD PUSH3 0x1B8 SWAP2 SWAP1 PUSH3 0x1311 JUMP JUMPDEST PUSH1 0x40 MLOAD DUP1 SWAP2 SUB SWAP1 RETURN JUMPDEST PUSH3 0x1CB PUSH3 0x542 JUMP JUMPDEST PUSH1 0x40 MLOAD PUSH3 0x1DA SWAP2 SWAP1 PUSH3 0x1276 JUMP JUMPDEST PUSH1 0x40 MLOAD DUP1 SWAP2 SUB SWAP1 RETURN JUMPDEST PUSH3 0x201 PUSH1 0x4 DUP1 CALLDATASIZE SUB DUP2 ADD SWAP1 PUSH3 0x1FB SWAP2 SWAP1 PUSH3 0x135F JUMP JUMPDEST PUSH3 0x558 JUMP JUMPDEST STOP JUMPDEST PUSH3 0x221 PUSH1 0x4 DUP1 CALLDATASIZE SUB DUP2 ADD SWAP1 PUSH3 0x21B SWAP2 SWAP1 PUSH3 0x1547 JUMP JUMPDEST PUSH3 0x683 JUMP JUMPDEST STOP JUMPDEST PUSH3 0x22D PUSH3 0x783 JUMP JUMPDEST PUSH1 0x40 MLOAD PUSH3 0x23C SWAP2 SWAP1 PUSH3 0x15D3 JUMP JUMPDEST PUSH1 0x40 MLOAD DUP1 SWAP2 SUB SWAP1 RETURN JUMPDEST PUSH3 0x24F PUSH3 0x789 JUMP JUMPDEST STOP JUMPDEST PUSH3 0x26F PUSH1 0x4 DUP1 CALLDATASIZE SUB DUP2 ADD SWAP1 PUSH3 0x269 SWAP2 SWAP1 PUSH3 0x15F0 JUMP JUMPDEST PUSH3 0x8CA JUMP JUMPDEST PUSH1 0x40 MLOAD PUSH3 0x27E SWAP2 SWAP1 PUSH3 0x1311 JUMP JUMPDEST PUSH1 0x40 MLOAD DUP1 SWAP2 SUB SWAP1 RETURN JUMPDEST PUSH3 0x291 PUSH3 0x922 JUMP JUMPDEST STOP JUMPDEST PUSH3 0x29D PUSH3 0x9B1 JUMP JUMPDEST PUSH1 0x40 MLOAD PUSH3 0x2AC SWAP2 SWAP1 PUSH3 0x1311 JUMP JUMPDEST PUSH1 0x40 MLOAD DUP1 SWAP2 SUB SWAP1 RETURN JUMPDEST PUSH3 0x2D3 PUSH1 0x4 DUP1 CALLDATASIZE SUB DUP2 ADD SWAP1 PUSH3 0x2CD SWAP2 SWAP1 PUSH3 0x1227 JUMP JUMPDEST PUSH3 0x9DA JUMP JUMPDEST PUSH1 0x40 MLOAD PUSH3 0x2E2 SWAP2 SWAP1 PUSH3 0x1311 JUMP JUMPDEST PUSH1 0x40 MLOAD DUP1 SWAP2 SUB SWAP1 RETURN JUMPDEST PUSH3 0x309 PUSH1 0x4 DUP1 CALLDATASIZE SUB DUP2 ADD SWAP1 PUSH3 0x303 SWAP2 SWAP1 PUSH3 0x1656 JUMP JUMPDEST PUSH3 0xA0D JUMP JUMPDEST PUSH1 0x40 MLOAD PUSH3 0x318 SWAP2 SWAP1 PUSH3 0x15D3 JUMP JUMPDEST PUSH1 0x40 MLOAD DUP1 SWAP2 SUB SWAP1 RETURN JUMPDEST PUSH3 0x32B PUSH3 0xE37 JUMP JUMPDEST PUSH1 0x40 MLOAD PUSH3 0x33A SWAP2 SWAP1 PUSH3 0x1311 JUMP JUMPDEST PUSH1 0x40 MLOAD DUP1 SWAP2 SUB SWAP1 RETURN JUMPDEST PUSH3 0x361 PUSH1 0x4 DUP1 CALLDATASIZE SUB DUP2 ADD SWAP1 PUSH3 0x35B SWAP2 SWAP1 PUSH3 0x1227 JUMP JUMPDEST PUSH3 0xE5D JUMP JUMPDEST PUSH1 0x40 MLOAD PUSH3 0x370 SWAP2 SWAP1 PUSH3 0x1311 JUMP JUMPDEST PUSH1 0x40 MLOAD DUP1 SWAP2 SUB SWAP1 RETURN JUMPDEST PUSH3 0x397 PUSH1 0x4 DUP1 CALLDATASIZE SUB DUP2 ADD SWAP1 PUSH3 0x391 SWAP2 SWAP1 PUSH3 0x1227 JUMP JUMPDEST PUSH3 0xE90 JUMP JUMPDEST STOP JUMPDEST PUSH3 0x3A3 PUSH3 0x1042 JUMP JUMPDEST PUSH20 0xFFFFFFFFFFFFFFFFFFFFFFFFFFFFFFFFFFFFFFFF AND PUSH3 0x3C3 PUSH3 0x9B1 JUMP JUMPDEST PUSH20 0xFFFFFFFFFFFFFFFFFFFFFFFFFFFFFFFFFFFFFFFF AND EQ PUSH3 0x41C JUMPI PUSH1 0x40 MLOAD PUSH32 0x8C379A000000000000000000000000000000000000000000000000000000000 DUP2 MSTORE PUSH1 0x4 ADD PUSH3 0x413 SWAP1 PUSH3 0x171D JUMP JUMPDEST PUSH1 0x40 MLOAD DUP1 SWAP2 SUB SWAP1 REVERT JUMPDEST DUP1 PUSH1 0x5 PUSH1 0x0 PUSH2 0x100 EXP DUP2 SLOAD DUP2 PUSH20 0xFFFFFFFFFFFFFFFFFFFFFFFFFFFFFFFFFFFFFFFF MUL NOT AND SWAP1 DUP4 PUSH20 0xFFFFFFFFFFFFFFFFFFFFFFFFFFFFFFFFFFFFFFFF AND MUL OR SWAP1 SSTORE POP POP JUMP JUMPDEST PUSH1 0x6 PUSH1 0x20 MSTORE DUP1 PUSH1 0x0 MSTORE PUSH1 0x40 PUSH1 0x0 KECCAK256 PUSH1 0x0 SWAP2 POP SLOAD SWAP1 PUSH2 0x100 EXP SWAP1 DIV PUSH1 0xFF AND DUP2 JUMP JUMPDEST PUSH3 0x48A PUSH3 0x1042 JUMP JUMPDEST PUSH20 0xFFFFFFFFFFFFFFFFFFFFFFFFFFFFFFFFFFFFFFFF AND PUSH3 0x4AA PUSH3 0x9B1 JUMP JUMPDEST PUSH20 0xFFFFFFFFFFFFFFFFFFFFFFFFFFFFFFFFFFFFFFFF AND EQ PUSH3 0x503 JUMPI PUSH1 0x40 MLOAD PUSH32 0x8C379A000000000000000000000000000000000000000000000000000000000 DUP2 MSTORE PUSH1 0x4 ADD PUSH3 0x4FA SWAP1 PUSH3 0x171D JUMP JUMPDEST PUSH1 0x40 MLOAD DUP1 SWAP2 SUB SWAP1 REVERT JUMPDEST PUSH3 0x50D PUSH3 0x104A JUMP JUMPDEST JUMP JUMPDEST PUSH1 0x3 PUSH1 0x20 MSTORE DUP1 PUSH1 0x0 MSTORE PUSH1 0x40 PUSH1 0x0 KECCAK256 PUSH1 0x0 SWAP2 POP SLOAD SWAP1 PUSH2 0x100 EXP SWAP1 DIV PUSH20 0xFFFFFFFFFFFFFFFFFFFFFFFFFFFFFFFFFFFFFFFF AND DUP2 JUMP JUMPDEST PUSH1 0x0 DUP1 PUSH1 0x14 SWAP1 SLOAD SWAP1 PUSH2 0x100 EXP SWAP1 DIV PUSH1 0xFF AND SWAP1 POP SWAP1 JUMP JUMPDEST PUSH3 0x562 PUSH3 0x1042 JUMP JUMPDEST PUSH20 0xFFFFFFFFFFFFFFFFFFFFFFFFFFFFFFFFFFFFFFFF AND PUSH3 0x582 PUSH3 0x9B1 JUMP JUMPDEST PUSH20 0xFFFFFFFFFFFFFFFFFFFFFFFFFFFFFFFFFFFFFFFF AND EQ PUSH3 0x5DB JUMPI PUSH1 0x40 MLOAD PUSH32 0x8C379A000000000000000000000000000000000000000000000000000000000 DUP2 MSTORE PUSH1 0x4 ADD PUSH3 0x5D2 SWAP1 PUSH3 0x171D JUMP JUMPDEST PUSH1 0x40 MLOAD DUP1 SWAP2 SUB SWAP1 REVERT JUMPDEST PUSH1 0x0 DUP3 EXTCODESIZE SWAP1 POP PUSH1 0x0 DUP2 GT PUSH3 0x627 JUMPI PUSH1 0x40 MLOAD PUSH32 0x8C379A000000000000000000000000000000000000000000000000000000000 DUP2 MSTORE PUSH1 0x4 ADD PUSH3 0x61E SWAP1 PUSH3 0x17B5 JUMP JUMPDEST PUSH1 0x40 MLOAD DUP1 SWAP2 SUB SWAP1 REVERT JUMPDEST DUP2 PUSH1 0x6 PUSH1 0x0 DUP6 PUSH20 0xFFFFFFFFFFFFFFFFFFFFFFFFFFFFFFFFFFFFFFFF AND PUSH20 0xFFFFFFFFFFFFFFFFFFFFFFFFFFFFFFFFFFFFFFFF AND DUP2 MSTORE PUSH1 0x20 ADD SWAP1 DUP2 MSTORE PUSH1 0x20 ADD PUSH1 0x0 KECCAK256 PUSH1 0x0 PUSH2 0x100 EXP DUP2 SLOAD DUP2 PUSH1 0xFF MUL NOT AND SWAP1 DUP4 ISZERO ISZERO MUL OR SWAP1 SSTORE POP POP POP POP JUMP JUMPDEST PUSH3 0x68D PUSH3 0x1042 JUMP JUMPDEST PUSH20 0xFFFFFFFFFFFFFFFFFFFFFFFFFFFFFFFFFFFFFFFF AND PUSH3 0x6AD PUSH3 0x9B1 JUMP JUMPDEST PUSH20 0xFFFFFFFFFFFFFFFFFFFFFFFFFFFFFFFFFFFFFFFF AND EQ PUSH3 0x706 JUMPI PUSH1 0x40 MLOAD PUSH32 0x8C379A000000000000000000000000000000000000000000000000000000000 DUP2 MSTORE PUSH1 0x4 ADD PUSH3 0x6FD SWAP1 PUSH3 0x171D JUMP JUMPDEST PUSH1 0x40 MLOAD DUP1 SWAP2 SUB SWAP1 REVERT JUMPDEST DUP1 PUSH1 0x1 DUP5 PUSH1 0x40 MLOAD PUSH3 0x719 SWAP2 SWAP1 PUSH3 0x185A JUMP JUMPDEST SWAP1 DUP2 MSTORE PUSH1 0x20 ADD PUSH1 0x40 MLOAD DUP1 SWAP2 SUB SWAP1 KECCAK256 PUSH1 0x0 DUP5 PUSH2 0xFFFF AND PUSH2 0xFFFF AND DUP2 MSTORE PUSH1 0x20 ADD SWAP1 DUP2 MSTORE PUSH1 0x20 ADD PUSH1 0x0 KECCAK256 PUSH1 0x0 PUSH2 0x100 EXP DUP2 SLOAD DUP2 PUSH20 0xFFFFFFFFFFFFFFFFFFFFFFFFFFFFFFFFFFFFFFFF MUL NOT AND SWAP1 DUP4 PUSH20 0xFFFFFFFFFFFFFFFFFFFFFFFFFFFFFFFFFFFFFFFF AND MUL OR SWAP1 SSTORE POP POP POP POP JUMP JUMPDEST PUSH1 0x2 SLOAD DUP2 JUMP JUMPDEST PUSH3 0x793 PUSH3 0x1042 JUMP JUMPDEST PUSH20 0xFFFFFFFFFFFFFFFFFFFFFFFFFFFFFFFFFFFFFFFF AND PUSH3 0x7B3 PUSH3 0x9B1 JUMP JUMPDEST PUSH20 0xFFFFFFFFFFFFFFFFFFFFFFFFFFFFFFFFFFFFFFFF AND EQ PUSH3 0x80C JUMPI PUSH1 0x40 MLOAD PUSH32 0x8C379A000000000000000000000000000000000000000000000000000000000 DUP2 MSTORE PUSH1 0x4 ADD PUSH3 0x803 SWAP1 PUSH3 0x171D JUMP JUMPDEST PUSH1 0x40 MLOAD DUP1 SWAP2 SUB SWAP1 REVERT JUMPDEST PUSH1 0x0 PUSH20 0xFFFFFFFFFFFFFFFFFFFFFFFFFFFFFFFFFFFFFFFF AND PUSH1 0x0 DUP1 SLOAD SWAP1 PUSH2 0x100 EXP SWAP1 DIV PUSH20 0xFFFFFFFFFFFFFFFFFFFFFFFFFFFFFFFFFFFFFFFF AND PUSH20 0xFFFFFFFFFFFFFFFFFFFFFFFFFFFFFFFFFFFFFFFF AND PUSH32 0x8BE0079C531659141344CD1FD0A4F28419497F9722A3DAAFE3B4186F6B6457E0 PUSH1 0x40 MLOAD PUSH1 0x40 MLOAD DUP1 SWAP2 SUB SWAP1 LOG3 PUSH1 0x0 DUP1 PUSH1 0x0 PUSH2 0x100 EXP DUP2 SLOAD DUP2 PUSH20 0xFFFFFFFFFFFFFFFFFFFFFFFFFFFFFFFFFFFFFFFF MUL NOT AND SWAP1 DUP4 PUSH20 0xFFFFFFFFFFFFFFFFFFFFFFFFFFFFFFFFFFFFFFFF AND MUL OR SWAP1 SSTORE POP JUMP JUMPDEST PUSH1 0x1 DUP3 DUP1 MLOAD PUSH1 0x20 DUP2 ADD DUP3 ADD DUP1 MLOAD DUP5 DUP3 MSTORE PUSH1 0x20 DUP4 ADD PUSH1 0x20 DUP6 ADD KECCAK256 DUP2 DUP4 MSTORE DUP1 SWAP6 POP POP POP POP POP POP PUSH1 0x20 MSTORE DUP1 PUSH1 0x0 MSTORE PUSH1 0x40 PUSH1 0x0 KECCAK256 PUSH1 0x0 SWAP2 POP SWAP2 POP SWAP1 SLOAD SWAP1 PUSH2 0x100 EXP SWAP1 DIV PUSH20 0xFFFFFFFFFFFFFFFFFFFFFFFFFFFFFFFFFFFFFFFF AND DUP2 JUMP JUMPDEST PUSH3 0x92C PUSH3 0x1042 JUMP JUMPDEST PUSH20 0xFFFFFFFFFFFFFFFFFFFFFFFFFFFFFFFFFFFFFFFF AND PUSH3 0x94C PUSH3 0x9B1 JUMP JUMPDEST PUSH20 0xFFFFFFFFFFFFFFFFFFFFFFFFFFFFFFFFFFFFFFFF AND EQ PUSH3 0x9A5 JUMPI PUSH1 0x40 MLOAD PUSH32 0x8C379A000000000000000000000000000000000000000000000000000000000 DUP2 MSTORE PUSH1 0x4 ADD PUSH3 0x99C SWAP1 PUSH3 0x171D JUMP JUMPDEST PUSH1 0x40 MLOAD DUP1 SWAP2 SUB SWAP1 REVERT JUMPDEST PUSH3 0x9AF PUSH3 0x10F4 JUMP JUMPDEST JUMP JUMPDEST PUSH1 0x0 DUP1 PUSH1 0x0 SWAP1 SLOAD SWAP1 PUSH2 0x100 EXP SWAP1 DIV PUSH20 0xFFFFFFFFFFFFFFFFFFFFFFFFFFFFFFFFFFFFFFFF AND SWAP1 POP SWAP1 JUMP JUMPDEST PUSH1 0x7 PUSH1 0x20 MSTORE DUP1 PUSH1 0x0 MSTORE PUSH1 0x40 PUSH1 0x0 KECCAK256 PUSH1 0x0 SWAP2 POP SLOAD SWAP1 PUSH2 0x100 EXP SWAP1 DIV PUSH20 0xFFFFFFFFFFFFFFFFFFFFFFFFFFFFFFFFFFFFFFFF AND DUP2 JUMP JUMPDEST PUSH1 0x0 PUSH3 0xA19 PUSH3 0x542 JUMP JUMPDEST ISZERO PUSH3 0xA5C JUMPI PUSH1 0x40 MLOAD PUSH32 0x8C379A000000000000000000000000000000000000000000000000000000000 DUP2 MSTORE PUSH1 0x4 ADD PUSH3 0xA53 SWAP1 PUSH3 0x18C3 JUMP JUMPDEST PUSH1 0x40 MLOAD DUP1 SWAP2 SUB SWAP1 REVERT JUMPDEST PUSH1 0x8 PUSH1 0x0 SWAP1 SLOAD SWAP1 PUSH2 0x100 EXP SWAP1 DIV PUSH1 0xFF AND ISZERO PUSH3 0xAAF JUMPI PUSH1 0x40 MLOAD PUSH32 0x8C379A000000000000000000000000000000000000000000000000000000000 DUP2 MSTORE PUSH1 0x4 ADD PUSH3 0xAA6 SWAP1 PUSH3 0x1935 JUMP JUMPDEST PUSH1 0x40 MLOAD DUP1 SWAP2 SUB SWAP1 REVERT JUMPDEST PUSH1 0x1 PUSH1 0x8 PUSH1 0x0 PUSH2 0x100 EXP DUP2 SLOAD DUP2 PUSH1 0xFF MUL NOT AND SWAP1 DUP4 ISZERO ISZERO MUL OR SWAP1 SSTORE POP PUSH1 0x6 PUSH1 0x0 DUP5 PUSH20 0xFFFFFFFFFFFFFFFFFFFFFFFFFFFFFFFFFFFFFFFF AND PUSH20 0xFFFFFFFFFFFFFFFFFFFFFFFFFFFFFFFFFFFFFFFF AND DUP2 MSTORE PUSH1 0x20 ADD SWAP1 DUP2 MSTORE PUSH1 0x20 ADD PUSH1 0x0 KECCAK256 PUSH1 0x0 SWAP1 SLOAD SWAP1 PUSH2 0x100 EXP SWAP1 DIV PUSH1 0xFF AND PUSH3 0xB59 JUMPI PUSH1 0x40 MLOAD PUSH32 0x8C379A000000000000000000000000000000000000000000000000000000000 DUP2 MSTORE PUSH1 0x4 ADD PUSH3 0xB50 SWAP1 PUSH3 0x19CD JUMP JUMPDEST PUSH1 0x40 MLOAD DUP1 SWAP2 SUB SWAP1 REVERT JUMPDEST PUSH1 0x0 CALLER DUP4 PUSH1 0x40 MLOAD PUSH1 0x24 ADD PUSH3 0xB70 SWAP3 SWAP2 SWAP1 PUSH3 0x1A30 JUMP JUMPDEST PUSH1 0x40 MLOAD PUSH1 0x20 DUP2 DUP4 SUB SUB DUP2 MSTORE SWAP1 PUSH1 0x40 MSTORE PUSH32 0xF399E22E00000000000000000000000000000000000000000000000000000000 PUSH28 0xFFFFFFFFFFFFFFFFFFFFFFFFFFFFFFFFFFFFFFFFFFFFFFFFFFFFFFFF NOT AND PUSH1 0x20 DUP3 ADD DUP1 MLOAD PUSH28 0xFFFFFFFFFFFFFFFFFFFFFFFFFFFFFFFFFFFFFFFFFFFFFFFFFFFFFFFF DUP4 DUP2 DUP4 AND OR DUP4 MSTORE POP POP POP POP SWAP1 POP PUSH1 0x0 DUP5 DUP3 PUSH1 0x40 MLOAD PUSH3 0xC01 SWAP1 PUSH3 0x11A0 JUMP JUMPDEST PUSH3 0xC0E SWAP3 SWAP2 SWAP1 PUSH3 0x1AC1 JUMP JUMPDEST PUSH1 0x40 MLOAD DUP1 SWAP2 SUB SWAP1 PUSH1 0x0 CREATE DUP1 ISZERO DUP1 ISZERO PUSH3 0xC2B JUMPI RETURNDATASIZE PUSH1 0x0 DUP1 RETURNDATACOPY RETURNDATASIZE PUSH1 0x0 REVERT JUMPDEST POP SWAP1 POP DUP5 PUSH20 0xFFFFFFFFFFFFFFFFFFFFFFFFFFFFFFFFFFFFFFFF AND DUP2 PUSH20 0xFFFFFFFFFFFFFFFFFFFFFFFFFFFFFFFFFFFFFFFF AND PUSH32 0xAB8530F87DC9B59234C4623BF917212BB2536D647574C8E7E5DA92C2EDE0C9F8 PUSH1 0x2 SLOAD PUSH1 0x40 MLOAD PUSH3 0xC8F SWAP2 SWAP1 PUSH3 0x15D3 JUMP JUMPDEST PUSH1 0x40 MLOAD DUP1 SWAP2 SUB SWAP1 LOG3 DUP1 PUSH1 0x3 PUSH1 0x0 PUSH1 0x2 SLOAD DUP2 MSTORE PUSH1 0x20 ADD SWAP1 DUP2 MSTORE PUSH1 0x20 ADD PUSH1 0x0 KECCAK256 PUSH1 0x0 PUSH2 0x100 EXP DUP2 SLOAD DUP2 PUSH20 0xFFFFFFFFFFFFFFFFFFFFFFFFFFFFFFFFFFFFFFFF MUL NOT AND SWAP1 DUP4 PUSH20 0xFFFFFFFFFFFFFFFFFFFFFFFFFFFFFFFFFFFFFFFF AND MUL OR SWAP1 SSTORE POP DUP1 PUSH1 0x7 PUSH1 0x0 CALLER PUSH20 0xFFFFFFFFFFFFFFFFFFFFFFFFFFFFFFFFFFFFFFFF AND PUSH20 0xFFFFFFFFFFFFFFFFFFFFFFFFFFFFFFFFFFFFFFFF AND DUP2 MSTORE PUSH1 0x20 ADD SWAP1 DUP2 MSTORE PUSH1 0x20 ADD PUSH1 0x0 KECCAK256 PUSH1 0x0 PUSH2 0x100 EXP DUP2 SLOAD DUP2 PUSH20 0xFFFFFFFFFFFFFFFFFFFFFFFFFFFFFFFFFFFFFFFF MUL NOT AND SWAP1 DUP4 PUSH20 0xFFFFFFFFFFFFFFFFFFFFFFFFFFFFFFFFFFFFFFFF AND MUL OR SWAP1 SSTORE POP DUP5 PUSH1 0x4 PUSH1 0x0 DUP4 PUSH20 0xFFFFFFFFFFFFFFFFFFFFFFFFFFFFFFFFFFFFFFFF AND PUSH20 0xFFFFFFFFFFFFFFFFFFFFFFFFFFFFFFFFFFFFFFFF AND DUP2 MSTORE PUSH1 0x20 ADD SWAP1 DUP2 MSTORE PUSH1 0x20 ADD PUSH1 0x0 KECCAK256 PUSH1 0x0 PUSH2 0x100 EXP DUP2 SLOAD DUP2 PUSH20 0xFFFFFFFFFFFFFFFFFFFFFFFFFFFFFFFFFFFFFFFF MUL NOT AND SWAP1 DUP4 PUSH20 0xFFFFFFFFFFFFFFFFFFFFFFFFFFFFFFFFFFFFFFFF AND MUL OR SWAP1 SSTORE POP PUSH1 0x2 PUSH1 0x0 DUP2 SLOAD DUP1 SWAP3 SWAP2 SWAP1 PUSH3 0xDFC SWAP1 PUSH3 0x1B24 JUMP JUMPDEST SWAP2 SWAP1 POP SSTORE POP PUSH1 0x1 PUSH1 0x2 SLOAD PUSH3 0xE12 SWAP2 SWAP1 PUSH3 0x1B71 JUMP JUMPDEST SWAP3 POP POP POP PUSH1 0x0 PUSH1 0x8 PUSH1 0x0 PUSH2 0x100 EXP DUP2 SLOAD DUP2 PUSH1 0xFF MUL NOT AND SWAP1 DUP4 ISZERO ISZERO MUL OR SWAP1 SSTORE POP SWAP3 SWAP2 POP POP JUMP JUMPDEST PUSH1 0x5 PUSH1 0x0 SWAP1 SLOAD SWAP1 PUSH2 0x100 EXP SWAP1 DIV PUSH20 0xFFFFFFFFFFFFFFFFFFFFFFFFFFFFFFFFFFFFFFFF AND DUP2 JUMP JUMPDEST PUSH1 0x4 PUSH1 0x20 MSTORE DUP1 PUSH1 0x0 MSTORE PUSH1 0x40 PUSH1 0x0 KECCAK256 PUSH1 0x0 SWAP2 POP SLOAD SWAP1 PUSH2 0x100 EXP SWAP1 DIV PUSH20 0xFFFFFFFFFFFFFFFFFFFFFFFFFFFFFFFFFFFFFFFF AND DUP2 JUMP JUMPDEST PUSH3 0xE9A PUSH3 0x1042 JUMP JUMPDEST PUSH20 0xFFFFFFFFFFFFFFFFFFFFFFFFFFFFFFFFFFFFFFFF AND PUSH3 0xEBA PUSH3 0x9B1 JUMP JUMPDEST PUSH20 0xFFFFFFFFFFFFFFFFFFFFFFFFFFFFFFFFFFFFFFFF AND EQ PUSH3 0xF13 JUMPI PUSH1 0x40 MLOAD PUSH32 0x8C379A000000000000000000000000000000000000000000000000000000000 DUP2 MSTORE PUSH1 0x4 ADD PUSH3 0xF0A SWAP1 PUSH3 0x171D JUMP JUMPDEST PUSH1 0x40 MLOAD DUP1 SWAP2 SUB SWAP1 REVERT JUMPDEST PUSH1 0x0 PUSH20 0xFFFFFFFFFFFFFFFFFFFFFFFFFFFFFFFFFFFFFFFF AND DUP2 PUSH20 0xFFFFFFFFFFFFFFFFFFFFFFFFFFFFFFFFFFFFFFFF AND SUB PUSH3 0xF85 JUMPI PUSH1 0x40 MLOAD PUSH32 0x8C379A000000000000000000000000000000000000000000000000000000000 DUP2 MSTORE PUSH1 0x4 ADD PUSH3 0xF7C SWAP1 PUSH3 0x1C22 JUMP JUMPDEST PUSH1 0x40 MLOAD DUP1 SWAP2 SUB SWAP1 REVERT JUMPDEST DUP1 PUSH20 0xFFFFFFFFFFFFFFFFFFFFFFFFFFFFFFFFFFFFFFFF AND PUSH1 0x0 DUP1 SLOAD SWAP1 PUSH2 0x100 EXP SWAP1 DIV PUSH20 0xFFFFFFFFFFFFFFFFFFFFFFFFFFFFFFFFFFFFFFFF AND PUSH20 0xFFFFFFFFFFFFFFFFFFFFFFFFFFFFFFFFFFFFFFFF AND PUSH32 0x8BE0079C531659141344CD1FD0A4F28419497F9722A3DAAFE3B4186F6B6457E0 PUSH1 0x40 MLOAD PUSH1 0x40 MLOAD DUP1 SWAP2 SUB SWAP1 LOG3 DUP1 PUSH1 0x0 DUP1 PUSH2 0x100 EXP DUP2 SLOAD DUP2 PUSH20 0xFFFFFFFFFFFFFFFFFFFFFFFFFFFFFFFFFFFFFFFF MUL NOT AND SWAP1 DUP4 PUSH20 0xFFFFFFFFFFFFFFFFFFFFFFFFFFFFFFFFFFFFFFFF AND MUL OR SWAP1 SSTORE POP POP JUMP JUMPDEST PUSH1 0x0 CALLER SWAP1 POP SWAP1 JUMP JUMPDEST PUSH3 0x1054 PUSH3 0x542 JUMP JUMPDEST PUSH3 0x1096 JUMPI PUSH1 0x40 MLOAD PUSH32 0x8C379A000000000000000000000000000000000000000000000000000000000 DUP2 MSTORE PUSH1 0x4 ADD PUSH3 0x108D SWAP1 PUSH3 0x1C94 JUMP JUMPDEST PUSH1 0x40 MLOAD DUP1 SWAP2 SUB SWAP1 REVERT JUMPDEST PUSH1 0x0 DUP1 PUSH1 0x14 PUSH2 0x100 EXP DUP2 SLOAD DUP2 PUSH1 0xFF MUL NOT AND SWAP1 DUP4 ISZERO ISZERO MUL OR SWAP1 SSTORE POP PUSH32 0x5DB9EE0A495BF2E6FF9C91A7834C1BA4FDD244A5E8AA4E537BD38AEAE4B073AA PUSH3 0x10DB PUSH3 0x1042 JUMP JUMPDEST PUSH1 0x40 MLOAD PUSH3 0x10EA SWAP2 SWAP1 PUSH3 0x1311 JUMP JUMPDEST PUSH1 0x40 MLOAD DUP1 SWAP2 SUB SWAP1 LOG1 JUMP JUMPDEST PUSH3 0x10FE PUSH3 0x542 JUMP JUMPDEST ISZERO PUSH3 0x1141 JUMPI PUSH1 0x40 MLOAD PUSH32 0x8C379A000000000000000000000000000000000000000000000000000000000 DUP2 MSTORE PUSH1 0x4 ADD PUSH3 0x1138 SWAP1 PUSH3 0x18C3 JUMP JUMPDEST PUSH1 0x40 MLOAD DUP1 SWAP2 SUB SWAP1 REVERT JUMPDEST PUSH1 0x1 PUSH1 0x0 PUSH1 0x14 PUSH2 0x100 EXP DUP2 SLOAD DUP2 PUSH1 0xFF MUL NOT AND SWAP1 DUP4 ISZERO ISZERO MUL OR SWAP1 SSTORE POP PUSH32 0x62E78CEA01BEE320CD4E420270B5EA74000D11B0C9F74754EBDBFC544B05A258 PUSH3 0x1187 PUSH3 0x1042 JUMP JUMPDEST PUSH1 0x40 MLOAD PUSH3 0x1196 SWAP2 SWAP1 PUSH3 0x1311 JUMP JUMPDEST PUSH1 0x40 MLOAD DUP1 SWAP2 SUB SWAP1 LOG1 JUMP JUMPDEST PUSH2 0x64C DUP1 PUSH3 0x1CB7 DUP4 CODECOPY ADD SWAP1 JUMP JUMPDEST PUSH1 0x0 PUSH1 0x40 MLOAD SWAP1 POP SWAP1 JUMP JUMPDEST PUSH1 0x0 DUP1 REVERT JUMPDEST PUSH1 0x0 DUP1 REVERT JUMPDEST PUSH1 0x0 PUSH20 0xFFFFFFFFFFFFFFFFFFFFFFFFFFFFFFFFFFFFFFFF DUP3 AND SWAP1 POP SWAP2 SWAP1 POP JUMP JUMPDEST PUSH1 0x0 PUSH3 0x11EF DUP3 PUSH3 0x11C2 JUMP JUMPDEST SWAP1 POP SWAP2 SWAP1 POP JUMP JUMPDEST PUSH3 0x1201 DUP2 PUSH3 0x11E2 JUMP JUMPDEST DUP2 EQ PUSH3 0x120D JUMPI PUSH1 0x0 DUP1 REVERT JUMPDEST POP JUMP JUMPDEST PUSH1 0x0 DUP2 CALLDATALOAD SWAP1 POP PUSH3 0x1221 DUP2 PUSH3 0x11F6 JUMP JUMPDEST SWAP3 SWAP2 POP POP JUMP JUMPDEST PUSH1 0x0 PUSH1 0x20 DUP3 DUP5 SUB SLT ISZERO PUSH3 0x1240 JUMPI PUSH3 0x123F PUSH3 0x11B8 JUMP JUMPDEST JUMPDEST PUSH1 0x0 PUSH3 0x1250 DUP5 DUP3 DUP6 ADD PUSH3 0x1210 JUMP JUMPDEST SWAP2 POP POP SWAP3 SWAP2 POP POP JUMP JUMPDEST PUSH1 0x0 DUP2 ISZERO ISZERO SWAP1 POP SWAP2 SWAP1 POP JUMP JUMPDEST PUSH3 0x1270 DUP2 PUSH3 0x1259 JUMP JUMPDEST DUP3 MSTORE POP POP JUMP JUMPDEST PUSH1 0x0 PUSH1 0x20 DUP3 ADD SWAP1 POP PUSH3 0x128D PUSH1 0x0 DUP4 ADD DUP5 PUSH3 0x1265 JUMP JUMPDEST SWAP3 SWAP2 POP POP JUMP JUMPDEST PUSH1 0x0 DUP2 SWAP1 POP SWAP2 SWAP1 POP JUMP JUMPDEST PUSH3 0x12A8 DUP2 PUSH3 0x1293 JUMP JUMPDEST DUP2 EQ PUSH3 0x12B4 JUMPI PUSH1 0x0 DUP1 REVERT JUMPDEST POP JUMP JUMPDEST PUSH1 0x0 DUP2 CALLDATALOAD SWAP1 POP PUSH3 0x12C8 DUP2 PUSH3 0x129D JUMP JUMPDEST SWAP3 SWAP2 POP POP JUMP JUMPDEST PUSH1 0x0 PUSH1 0x20 DUP3 DUP5 SUB SLT ISZERO PUSH3 0x12E7 JUMPI PUSH3 0x12E6 PUSH3 0x11B8 JUMP JUMPDEST JUMPDEST PUSH1 0x0 PUSH3 0x12F7 DUP5 DUP3 DUP6 ADD PUSH3 0x12B7 JUMP JUMPDEST SWAP2 POP POP SWAP3 SWAP2 POP POP JUMP JUMPDEST PUSH3 0x130B DUP2 PUSH3 0x11E2 JUMP JUMPDEST DUP3 MSTORE POP POP JUMP JUMPDEST PUSH1 0x0 PUSH1 0x20 DUP3 ADD SWAP1 POP PUSH3 0x1328 PUSH1 0x0 DUP4 ADD DUP5 PUSH3 0x1300 JUMP JUMPDEST SWAP3 SWAP2 POP POP JUMP JUMPDEST PUSH3 0x1339 DUP2 PUSH3 0x1259 JUMP JUMPDEST DUP2 EQ PUSH3 0x1345 JUMPI PUSH1 0x0 DUP1 REVERT JUMPDEST POP JUMP JUMPDEST PUSH1 0x0 DUP2 CALLDATALOAD SWAP1 POP PUSH3 0x1359 DUP2 PUSH3 0x132E JUMP JUMPDEST SWAP3 SWAP2 POP POP JUMP JUMPDEST PUSH1 0x0 DUP1 PUSH1 0x40 DUP4 DUP6 SUB SLT ISZERO PUSH3 0x1379 JUMPI PUSH3 0x1378 PUSH3 0x11B8 JUMP JUMPDEST JUMPDEST PUSH1 0x0 PUSH3 0x1389 DUP6 DUP3 DUP7 ADD PUSH3 0x1210 JUMP JUMPDEST SWAP3 POP POP PUSH1 0x20 PUSH3 0x139C DUP6 DUP3 DUP7 ADD PUSH3 0x1348 JUMP JUMPDEST SWAP2 POP POP SWAP3 POP SWAP3 SWAP1 POP JUMP JUMPDEST PUSH1 0x0 DUP1 REVERT JUMPDEST PUSH1 0x0 DUP1 REVERT JUMPDEST PUSH1 0x0 PUSH1 0x1F NOT PUSH1 0x1F DUP4 ADD AND SWAP1 POP SWAP2 SWAP1 POP JUMP JUMPDEST PUSH32 0x4E487B7100000000000000000000000000000000000000000000000000000000 PUSH1 0x0 MSTORE PUSH1 0x41 PUSH1 0x4 MSTORE PUSH1 0x24 PUSH1 0x0 REVERT JUMPDEST PUSH3 0x13FB DUP3 PUSH3 0x13B0 JUMP JUMPDEST DUP2 ADD DUP2 DUP2 LT PUSH8 0xFFFFFFFFFFFFFFFF DUP3 GT OR ISZERO PUSH3 0x141D JUMPI PUSH3 0x141C PUSH3 0x13C1 JUMP JUMPDEST JUMPDEST DUP1 PUSH1 0x40 MSTORE POP POP POP JUMP JUMPDEST PUSH1 0x0 PUSH3 0x1432 PUSH3 0x11AE JUMP JUMPDEST SWAP1 POP PUSH3 0x1440 DUP3 DUP3 PUSH3 0x13F0 JUMP JUMPDEST SWAP2 SWAP1 POP JUMP JUMPDEST PUSH1 0x0 PUSH8 0xFFFFFFFFFFFFFFFF DUP3 GT ISZERO PUSH3 0x1463 JUMPI PUSH3 0x1462 PUSH3 0x13C1 JUMP JUMPDEST JUMPDEST PUSH3 0x146E DUP3 PUSH3 0x13B0 JUMP JUMPDEST SWAP1 POP PUSH1 0x20 DUP2 ADD SWAP1 POP SWAP2 SWAP1 POP JUMP JUMPDEST DUP3 DUP2 DUP4 CALLDATACOPY PUSH1 0x0 DUP4 DUP4 ADD MSTORE POP POP POP JUMP JUMPDEST PUSH1 0x0 PUSH3 0x14A1 PUSH3 0x149B DUP5 PUSH3 0x1445 JUMP JUMPDEST PUSH3 0x1426 JUMP JUMPDEST SWAP1 POP DUP3 DUP2 MSTORE PUSH1 0x20 DUP2 ADD DUP5 DUP5 DUP5 ADD GT ISZERO PUSH3 0x14C0 JUMPI PUSH3 0x14BF PUSH3 0x13AB JUMP JUMPDEST JUMPDEST PUSH3 0x14CD DUP5 DUP3 DUP6 PUSH3 0x147B JUMP JUMPDEST POP SWAP4 SWAP3 POP POP POP JUMP JUMPDEST PUSH1 0x0 DUP3 PUSH1 0x1F DUP4 ADD SLT PUSH3 0x14ED JUMPI PUSH3 0x14EC PUSH3 0x13A6 JUMP JUMPDEST JUMPDEST DUP2 CALLDATALOAD PUSH3 0x14FF DUP5 DUP3 PUSH1 0x20 DUP7 ADD PUSH3 0x148A JUMP JUMPDEST SWAP2 POP POP SWAP3 SWAP2 POP POP JUMP JUMPDEST PUSH1 0x0 PUSH2 0xFFFF DUP3 AND SWAP1 POP SWAP2 SWAP1 POP JUMP JUMPDEST PUSH3 0x1521 DUP2 PUSH3 0x1508 JUMP JUMPDEST DUP2 EQ PUSH3 0x152D JUMPI PUSH1 0x0 DUP1 REVERT JUMPDEST POP JUMP JUMPDEST PUSH1 0x0 DUP2 CALLDATALOAD SWAP1 POP PUSH3 0x1541 DUP2 PUSH3 0x1516 JUMP JUMPDEST SWAP3 SWAP2 POP POP JUMP JUMPDEST PUSH1 0x0 DUP1 PUSH1 0x0 PUSH1 0x60 DUP5 DUP7 SUB SLT ISZERO PUSH3 0x1563 JUMPI PUSH3 0x1562 PUSH3 0x11B8 JUMP JUMPDEST JUMPDEST PUSH1 0x0 DUP5 ADD CALLDATALOAD PUSH8 0xFFFFFFFFFFFFFFFF DUP2 GT ISZERO PUSH3 0x1584 JUMPI PUSH3 0x1583 PUSH3 0x11BD JUMP JUMPDEST JUMPDEST PUSH3 0x1592 DUP7 DUP3 DUP8 ADD PUSH3 0x14D5 JUMP JUMPDEST SWAP4 POP POP PUSH1 0x20 PUSH3 0x15A5 DUP7 DUP3 DUP8 ADD PUSH3 0x1530 JUMP JUMPDEST SWAP3 POP POP PUSH1 0x40 PUSH3 0x15B8 DUP7 DUP3 DUP8 ADD PUSH3 0x1210 JUMP JUMPDEST SWAP2 POP POP SWAP3 POP SWAP3 POP SWAP3 JUMP JUMPDEST PUSH3 0x15CD DUP2 PUSH3 0x1293 JUMP JUMPDEST DUP3 MSTORE POP POP JUMP JUMPDEST PUSH1 0x0 PUSH1 0x20 DUP3 ADD SWAP1 POP PUSH3 0x15EA PUSH1 0x0 DUP4 ADD DUP5 PUSH3 0x15C2 JUMP JUMPDEST SWAP3 SWAP2 POP POP JUMP JUMPDEST PUSH1 0x0 DUP1 PUSH1 0x40 DUP4 DUP6 SUB SLT ISZERO PUSH3 0x160A JUMPI PUSH3 0x1609 PUSH3 0x11B8 JUMP JUMPDEST JUMPDEST PUSH1 0x0 DUP4 ADD CALLDATALOAD PUSH8 0xFFFFFFFFFFFFFFFF DUP2 GT ISZERO PUSH3 0x162B JUMPI PUSH3 0x162A PUSH3 0x11BD JUMP JUMPDEST JUMPDEST PUSH3 0x1639 DUP6 DUP3 DUP7 ADD PUSH3 0x14D5 JUMP JUMPDEST SWAP3 POP POP PUSH1 0x20 PUSH3 0x164C DUP6 DUP3 DUP7 ADD PUSH3 0x1530 JUMP JUMPDEST SWAP2 POP POP SWAP3 POP SWAP3 SWAP1 POP JUMP JUMPDEST PUSH1 0x0 DUP1 PUSH1 0x40 DUP4 DUP6 SUB SLT ISZERO PUSH3 0x1670 JUMPI PUSH3 0x166F PUSH3 0x11B8 JUMP JUMPDEST JUMPDEST PUSH1 0x0 PUSH3 0x1680 DUP6 DUP3 DUP7 ADD PUSH3 0x1210 JUMP JUMPDEST SWAP3 POP POP PUSH1 0x20 DUP4 ADD CALLDATALOAD PUSH8 0xFFFFFFFFFFFFFFFF DUP2 GT ISZERO PUSH3 0x16A4 JUMPI PUSH3 0x16A3 PUSH3 0x11BD JUMP JUMPDEST JUMPDEST PUSH3 0x16B2 DUP6 DUP3 DUP7 ADD PUSH3 0x14D5 JUMP JUMPDEST SWAP2 POP POP SWAP3 POP SWAP3 SWAP1 POP JUMP JUMPDEST PUSH1 0x0 DUP3 DUP3 MSTORE PUSH1 0x20 DUP3 ADD SWAP1 POP SWAP3 SWAP2 POP POP JUMP JUMPDEST PUSH32 0x4F776E61626C653A2063616C6C6572206973206E6F7420746865206F776E6572 PUSH1 0x0 DUP3 ADD MSTORE POP JUMP JUMPDEST PUSH1 0x0 PUSH3 0x1705 PUSH1 0x20 DUP4 PUSH3 0x16BC JUMP JUMPDEST SWAP2 POP PUSH3 0x1712 DUP3 PUSH3 0x16CD JUMP JUMPDEST PUSH1 0x20 DUP3 ADD SWAP1 POP SWAP2 SWAP1 POP JUMP JUMPDEST PUSH1 0x0 PUSH1 0x20 DUP3 ADD SWAP1 POP DUP2 DUP2 SUB PUSH1 0x0 DUP4 ADD MSTORE PUSH3 0x1738 DUP2 PUSH3 0x16F6 JUMP JUMPDEST SWAP1 POP SWAP2 SWAP1 POP JUMP JUMPDEST PUSH32 0x4F6E6C7920736D61727420636F6E747261637420616464726573732063616E20 PUSH1 0x0 DUP3 ADD MSTORE PUSH32 0x6265207365740000000000000000000000000000000000000000000000000000 PUSH1 0x20 DUP3 ADD MSTORE POP JUMP JUMPDEST PUSH1 0x0 PUSH3 0x179D PUSH1 0x26 DUP4 PUSH3 0x16BC JUMP JUMPDEST SWAP2 POP PUSH3 0x17AA DUP3 PUSH3 0x173F JUMP JUMPDEST PUSH1 0x40 DUP3 ADD SWAP1 POP SWAP2 SWAP1 POP JUMP JUMPDEST PUSH1 0x0 PUSH1 0x20 DUP3 ADD SWAP1 POP DUP2 DUP2 SUB PUSH1 0x0 DUP4 ADD MSTORE PUSH3 0x17D0 DUP2 PUSH3 0x178E JUMP JUMPDEST SWAP1 POP SWAP2 SWAP1 POP JUMP JUMPDEST PUSH1 0x0 DUP2 MLOAD SWAP1 POP SWAP2 SWAP1 POP JUMP JUMPDEST PUSH1 0x0 DUP2 SWAP1 POP SWAP3 SWAP2 POP POP JUMP JUMPDEST PUSH1 0x0 JUMPDEST DUP4 DUP2 LT ISZERO PUSH3 0x180D JUMPI DUP1 DUP3 ADD MLOAD DUP2 DUP5 ADD MSTORE PUSH1 0x20 DUP2 ADD SWAP1 POP PUSH3 0x17F0 JUMP JUMPDEST DUP4 DUP2 GT ISZERO PUSH3 0x181D JUMPI PUSH1 0x0 DUP5 DUP5 ADD MSTORE JUMPDEST POP POP POP POP JUMP JUMPDEST PUSH1 0x0 PUSH3 0x1830 DUP3 PUSH3 0x17D7 JUMP JUMPDEST PUSH3 0x183C DUP2 DUP6 PUSH3 0x17E2 JUMP JUMPDEST SWAP4 POP PUSH3 0x184E DUP2 DUP6 PUSH1 0x20 DUP7 ADD PUSH3 0x17ED JUMP JUMPDEST DUP1 DUP5 ADD SWAP2 POP POP SWAP3 SWAP2 POP POP JUMP JUMPDEST PUSH1 0x0 PUSH3 0x1868 DUP3 DUP5 PUSH3 0x1823 JUMP JUMPDEST SWAP2 POP DUP2 SWAP1 POP SWAP3 SWAP2 POP POP JUMP JUMPDEST PUSH32 0x5061757361626C653A2070617573656400000000000000000000000000000000 PUSH1 0x0 DUP3 ADD MSTORE POP JUMP JUMPDEST PUSH1 0x0 PUSH3 0x18AB PUSH1 0x10 DUP4 PUSH3 0x16BC JUMP JUMPDEST SWAP2 POP PUSH3 0x18B8 DUP3 PUSH3 0x1873 JUMP JUMPDEST PUSH1 0x20 DUP3 ADD SWAP1 POP SWAP2 SWAP1 POP JUMP JUMPDEST PUSH1 0x0 PUSH1 0x20 DUP3 ADD SWAP1 POP DUP2 DUP2 SUB PUSH1 0x0 DUP4 ADD MSTORE PUSH3 0x18DE DUP2 PUSH3 0x189C JUMP JUMPDEST SWAP1 POP SWAP2 SWAP1 POP JUMP JUMPDEST PUSH32 0x7265656E747279203A3A20496C6C6567616C207265656E7472616E7400000000 PUSH1 0x0 DUP3 ADD MSTORE POP JUMP JUMPDEST PUSH1 0x0 PUSH3 0x191D PUSH1 0x1C DUP4 PUSH3 0x16BC JUMP JUMPDEST SWAP2 POP PUSH3 0x192A DUP3 PUSH3 0x18E5 JUMP JUMPDEST PUSH1 0x20 DUP3 ADD SWAP1 POP SWAP2 SWAP1 POP JUMP JUMPDEST PUSH1 0x0 PUSH1 0x20 DUP3 ADD SWAP1 POP DUP2 DUP2 SUB PUSH1 0x0 DUP4 ADD MSTORE PUSH3 0x1950 DUP2 PUSH3 0x190E JUMP JUMPDEST SWAP1 POP SWAP2 SWAP1 POP JUMP JUMPDEST PUSH32 0x466163746F7279203A3A20496E636F72726563742074656D706C617465206164 PUSH1 0x0 DUP3 ADD MSTORE PUSH32 0x6472657373000000000000000000000000000000000000000000000000000000 PUSH1 0x20 DUP3 ADD MSTORE POP JUMP JUMPDEST PUSH1 0x0 PUSH3 0x19B5 PUSH1 0x25 DUP4 PUSH3 0x16BC JUMP JUMPDEST SWAP2 POP PUSH3 0x19C2 DUP3 PUSH3 0x1957 JUMP JUMPDEST PUSH1 0x40 DUP3 ADD SWAP1 POP SWAP2 SWAP1 POP JUMP JUMPDEST PUSH1 0x0 PUSH1 0x20 DUP3 ADD SWAP1 POP DUP2 DUP2 SUB PUSH1 0x0 DUP4 ADD MSTORE PUSH3 0x19E8 DUP2 PUSH3 0x19A6 JUMP JUMPDEST SWAP1 POP SWAP2 SWAP1 POP JUMP JUMPDEST PUSH1 0x0 PUSH3 0x19FC DUP3 PUSH3 0x17D7 JUMP JUMPDEST PUSH3 0x1A08 DUP2 DUP6 PUSH3 0x16BC JUMP JUMPDEST SWAP4 POP PUSH3 0x1A1A DUP2 DUP6 PUSH1 0x20 DUP7 ADD PUSH3 0x17ED JUMP JUMPDEST PUSH3 0x1A25 DUP2 PUSH3 0x13B0 JUMP JUMPDEST DUP5 ADD SWAP2 POP POP SWAP3 SWAP2 POP POP JUMP JUMPDEST PUSH1 0x0 PUSH1 0x40 DUP3 ADD SWAP1 POP PUSH3 0x1A47 PUSH1 0x0 DUP4 ADD DUP6 PUSH3 0x1300 JUMP JUMPDEST DUP2 DUP2 SUB PUSH1 0x20 DUP4 ADD MSTORE PUSH3 0x1A5B DUP2 DUP5 PUSH3 0x19EF JUMP JUMPDEST SWAP1 POP SWAP4 SWAP3 POP POP POP JUMP JUMPDEST PUSH1 0x0 DUP2 MLOAD SWAP1 POP SWAP2 SWAP1 POP JUMP JUMPDEST PUSH1 0x0 DUP3 DUP3 MSTORE PUSH1 0x20 DUP3 ADD SWAP1 POP SWAP3 SWAP2 POP POP JUMP JUMPDEST PUSH1 0x0 PUSH3 0x1A8D DUP3 PUSH3 0x1A64 JUMP JUMPDEST PUSH3 0x1A99 DUP2 DUP6 PUSH3 0x1A6F JUMP JUMPDEST SWAP4 POP PUSH3 0x1AAB DUP2 DUP6 PUSH1 0x20 DUP7 ADD PUSH3 0x17ED JUMP JUMPDEST PUSH3 0x1AB6 DUP2 PUSH3 0x13B0 JUMP JUMPDEST DUP5 ADD SWAP2 POP POP SWAP3 SWAP2 POP POP JUMP JUMPDEST PUSH1 0x0 PUSH1 0x40 DUP3 ADD SWAP1 POP PUSH3 0x1AD8 PUSH1 0x0 DUP4 ADD DUP6 PUSH3 0x1300 JUMP JUMPDEST DUP2 DUP2 SUB PUSH1 0x20 DUP4 ADD MSTORE PUSH3 0x1AEC DUP2 DUP5 PUSH3 0x1A80 JUMP JUMPDEST SWAP1 POP SWAP4 SWAP3 POP POP POP JUMP JUMPDEST PUSH32 0x4E487B7100000000000000000000000000000000000000000000000000000000 PUSH1 0x0 MSTORE PUSH1 0x11 PUSH1 0x4 MSTORE PUSH1 0x24 PUSH1 0x0 REVERT JUMPDEST PUSH1 0x0 PUSH3 0x1B31 DUP3 PUSH3 0x1293 JUMP JUMPDEST SWAP2 POP PUSH32 0xFFFFFFFFFFFFFFFFFFFFFFFFFFFFFFFFFFFFFFFFFFFFFFFFFFFFFFFFFFFFFFFF DUP3 SUB PUSH3 0x1B66 JUMPI PUSH3 0x1B65 PUSH3 0x1AF5 JUMP JUMPDEST JUMPDEST PUSH1 0x1 DUP3 ADD SWAP1 POP SWAP2 SWAP1 POP JUMP JUMPDEST PUSH1 0x0 PUSH3 0x1B7E DUP3 PUSH3 0x1293 JUMP JUMPDEST SWAP2 POP PUSH3 0x1B8B DUP4 PUSH3 0x1293 JUMP JUMPDEST SWAP3 POP DUP3 DUP3 LT ISZERO PUSH3 0x1BA1 JUMPI PUSH3 0x1BA0 PUSH3 0x1AF5 JUMP JUMPDEST JUMPDEST DUP3 DUP3 SUB SWAP1 POP SWAP3 SWAP2 POP POP JUMP JUMPDEST PUSH32 0x4F776E61626C653A206E6577206F776E657220697320746865207A65726F2061 PUSH1 0x0 DUP3 ADD MSTORE PUSH32 0x6464726573730000000000000000000000000000000000000000000000000000 PUSH1 0x20 DUP3 ADD MSTORE POP JUMP JUMPDEST PUSH1 0x0 PUSH3 0x1C0A PUSH1 0x26 DUP4 PUSH3 0x16BC JUMP JUMPDEST SWAP2 POP PUSH3 0x1C17 DUP3 PUSH3 0x1BAC JUMP JUMPDEST PUSH1 0x40 DUP3 ADD SWAP1 POP SWAP2 SWAP1 POP JUMP JUMPDEST PUSH1 0x0 PUSH1 0x20 DUP3 ADD SWAP1 POP DUP2 DUP2 SUB PUSH1 0x0 DUP4 ADD MSTORE PUSH3 0x1C3D DUP2 PUSH3 0x1BFB JUMP JUMPDEST SWAP1 POP SWAP2 SWAP1 POP JUMP JUMPDEST PUSH32 0x5061757361626C653A206E6F7420706175736564000000000000000000000000 PUSH1 0x0 DUP3 ADD MSTORE POP JUMP JUMPDEST PUSH1 0x0 PUSH3 0x1C7C PUSH1 0x14 DUP4 PUSH3 0x16BC JUMP JUMPDEST SWAP2 POP PUSH3 0x1C89 DUP3 PUSH3 0x1C44 JUMP JUMPDEST PUSH1 0x20 DUP3 ADD SWAP1 POP SWAP2 SWAP1 POP JUMP JUMPDEST PUSH1 0x0 PUSH1 0x20 DUP3 ADD SWAP1 POP DUP2 DUP2 SUB PUSH1 0x0 DUP4 ADD MSTORE PUSH3 0x1CAF DUP2 PUSH3 0x1C6D JUMP JUMPDEST SWAP1 POP SWAP2 SWAP1 POP JUMP INVALID PUSH1 0x80 PUSH1 0x40 MSTORE CALLVALUE DUP1 ISZERO PUSH2 0x10 JUMPI PUSH1 0x0 DUP1 REVERT JUMPDEST POP PUSH1 0x40 MLOAD PUSH2 0x64C CODESIZE SUB DUP1 PUSH2 0x64C DUP4 CODECOPY DUP2 DUP2 ADD PUSH1 0x40 MSTORE DUP2 ADD SWAP1 PUSH2 0x32 SWAP2 SWAP1 PUSH2 0x3B9 JUMP JUMPDEST PUSH1 0x0 PUSH20 0xFFFFFFFFFFFFFFFFFFFFFFFFFFFFFFFFFFFFFFFF AND DUP3 PUSH20 0xFFFFFFFFFFFFFFFFFFFFFFFFFFFFFFFFFFFFFFFF AND SUB PUSH2 0xA1 JUMPI PUSH1 0x40 MLOAD PUSH32 0x8C379A000000000000000000000000000000000000000000000000000000000 DUP2 MSTORE PUSH1 0x4 ADD PUSH2 0x98 SWAP1 PUSH2 0x498 JUMP JUMPDEST PUSH1 0x40 MLOAD DUP1 SWAP2 SUB SWAP1 REVERT JUMPDEST DUP2 PUSH2 0xD8 PUSH32 0x5F62CE3C9AEBD463C7A36AB1B244D2BB94F07A2C13889B3B687940EBC467B9B3 PUSH1 0x0 SHL PUSH2 0x1D3 PUSH1 0x20 SHL PUSH2 0x82 OR PUSH1 0x20 SHR JUMP JUMPDEST PUSH1 0x0 ADD PUSH1 0x0 PUSH2 0x100 EXP DUP2 SLOAD DUP2 PUSH20 0xFFFFFFFFFFFFFFFFFFFFFFFFFFFFFFFFFFFFFFFF MUL NOT AND SWAP1 DUP4 PUSH20 0xFFFFFFFFFFFFFFFFFFFFFFFFFFFFFFFFFFFFFFFF AND MUL OR SWAP1 SSTORE POP PUSH1 0x0 DUP1 DUP4 PUSH20 0xFFFFFFFFFFFFFFFFFFFFFFFFFFFFFFFFFFFFFFFF AND DUP4 PUSH1 0x40 MLOAD PUSH2 0x141 SWAP2 SWAP1 PUSH2 0x4FF JUMP JUMPDEST PUSH1 0x0 PUSH1 0x40 MLOAD DUP1 DUP4 SUB DUP2 DUP6 GAS DELEGATECALL SWAP2 POP POP RETURNDATASIZE DUP1 PUSH1 0x0 DUP2 EQ PUSH2 0x17C JUMPI PUSH1 0x40 MLOAD SWAP2 POP PUSH1 0x1F NOT PUSH1 0x3F RETURNDATASIZE ADD AND DUP3 ADD PUSH1 0x40 MSTORE RETURNDATASIZE DUP3 MSTORE RETURNDATASIZE PUSH1 0x0 PUSH1 0x20 DUP5 ADD RETURNDATACOPY PUSH2 0x181 JUMP JUMPDEST PUSH1 0x60 SWAP2 POP JUMPDEST POP SWAP2 POP SWAP2 POP DUP2 DUP2 SWAP1 PUSH2 0x1C9 JUMPI PUSH1 0x40 MLOAD PUSH32 0x8C379A000000000000000000000000000000000000000000000000000000000 DUP2 MSTORE PUSH1 0x4 ADD PUSH2 0x1C0 SWAP2 SWAP1 PUSH2 0x55A JUMP JUMPDEST PUSH1 0x40 MLOAD DUP1 SWAP2 SUB SWAP1 REVERT JUMPDEST POP POP POP POP POP PUSH2 0x57C JUMP JUMPDEST PUSH1 0x0 DUP2 SWAP1 POP SWAP2 SWAP1 POP JUMP JUMPDEST PUSH1 0x0 PUSH1 0x40 MLOAD SWAP1 POP SWAP1 JUMP JUMPDEST PUSH1 0x0 DUP1 REVERT JUMPDEST PUSH1 0x0 DUP1 REVERT JUMPDEST PUSH1 0x0 PUSH20 0xFFFFFFFFFFFFFFFFFFFFFFFFFFFFFFFFFFFFFFFF DUP3 AND SWAP1 POP SWAP2 SWAP1 POP JUMP JUMPDEST PUSH1 0x0 PUSH2 0x21C DUP3 PUSH2 0x1F1 JUMP JUMPDEST SWAP1 POP SWAP2 SWAP1 POP JUMP JUMPDEST PUSH2 0x22C DUP2 PUSH2 0x211 JUMP JUMPDEST DUP2 EQ PUSH2 0x237 JUMPI PUSH1 0x0 DUP1 REVERT JUMPDEST POP JUMP JUMPDEST PUSH1 0x0 DUP2 MLOAD SWAP1 POP PUSH2 0x249 DUP2 PUSH2 0x223 JUMP JUMPDEST SWAP3 SWAP2 POP POP JUMP JUMPDEST PUSH1 0x0 DUP1 REVERT JUMPDEST PUSH1 0x0 DUP1 REVERT JUMPDEST PUSH1 0x0 PUSH1 0x1F NOT PUSH1 0x1F DUP4 ADD AND SWAP1 POP SWAP2 SWAP1 POP JUMP JUMPDEST PUSH32 0x4E487B7100000000000000000000000000000000000000000000000000000000 PUSH1 0x0 MSTORE PUSH1 0x41 PUSH1 0x4 MSTORE PUSH1 0x24 PUSH1 0x0 REVERT JUMPDEST PUSH2 0x2A2 DUP3 PUSH2 0x259 JUMP JUMPDEST DUP2 ADD DUP2 DUP2 LT PUSH8 0xFFFFFFFFFFFFFFFF DUP3 GT OR ISZERO PUSH2 0x2C1 JUMPI PUSH2 0x2C0 PUSH2 0x26A JUMP JUMPDEST JUMPDEST DUP1 PUSH1 0x40 MSTORE POP POP POP JUMP JUMPDEST PUSH1 0x0 PUSH2 0x2D4 PUSH2 0x1DD JUMP JUMPDEST SWAP1 POP PUSH2 0x2E0 DUP3 DUP3 PUSH2 0x299 JUMP JUMPDEST SWAP2 SWAP1 POP JUMP JUMPDEST PUSH1 0x0 PUSH8 0xFFFFFFFFFFFFFFFF DUP3 GT ISZERO PUSH2 0x300 JUMPI PUSH2 0x2FF PUSH2 0x26A JUMP JUMPDEST JUMPDEST PUSH2 0x309 DUP3 PUSH2 0x259 JUMP JUMPDEST SWAP1 POP PUSH1 0x20 DUP2 ADD SWAP1 POP SWAP2 SWAP1 POP JUMP JUMPDEST PUSH1 0x0 JUMPDEST DUP4 DUP2 LT ISZERO PUSH2 0x334 JUMPI DUP1 DUP3 ADD MLOAD DUP2 DUP5 ADD MSTORE PUSH1 0x20 DUP2 ADD SWAP1 POP PUSH2 0x319 JUMP JUMPDEST DUP4 DUP2 GT ISZERO PUSH2 0x343 JUMPI PUSH1 0x0 DUP5 DUP5 ADD MSTORE JUMPDEST POP POP POP POP JUMP JUMPDEST PUSH1 0x0 PUSH2 0x35C PUSH2 0x357 DUP5 PUSH2 0x2E5 JUMP JUMPDEST PUSH2 0x2CA JUMP JUMPDEST SWAP1 POP DUP3 DUP2 MSTORE PUSH1 0x20 DUP2 ADD DUP5 DUP5 DUP5 ADD GT ISZERO PUSH2 0x378 JUMPI PUSH2 0x377 PUSH2 0x254 JUMP JUMPDEST JUMPDEST PUSH2 0x383 DUP5 DUP3 DUP6 PUSH2 0x316 JUMP JUMPDEST POP SWAP4 SWAP3 POP POP POP JUMP JUMPDEST PUSH1 0x0 DUP3 PUSH1 0x1F DUP4 ADD SLT PUSH2 0x3A0 JUMPI PUSH2 0x39F PUSH2 0x24F JUMP JUMPDEST JUMPDEST DUP2 MLOAD PUSH2 0x3B0 DUP5 DUP3 PUSH1 0x20 DUP7 ADD PUSH2 0x349 JUMP JUMPDEST SWAP2 POP POP SWAP3 SWAP2 POP POP JUMP JUMPDEST PUSH1 0x0 DUP1 PUSH1 0x40 DUP4 DUP6 SUB SLT ISZERO PUSH2 0x3D0 JUMPI PUSH2 0x3CF PUSH2 0x1E7 JUMP JUMPDEST JUMPDEST PUSH1 0x0 PUSH2 0x3DE DUP6 DUP3 DUP7 ADD PUSH2 0x23A JUMP JUMPDEST SWAP3 POP POP PUSH1 0x20 DUP4 ADD MLOAD PUSH8 0xFFFFFFFFFFFFFFFF DUP2 GT ISZERO PUSH2 0x3FF JUMPI PUSH2 0x3FE PUSH2 0x1EC JUMP JUMPDEST JUMPDEST PUSH2 0x40B DUP6 DUP3 DUP7 ADD PUSH2 0x38B JUMP JUMPDEST SWAP2 POP POP SWAP3 POP SWAP3 SWAP1 POP JUMP JUMPDEST PUSH1 0x0 DUP3 DUP3 MSTORE PUSH1 0x20 DUP3 ADD SWAP1 POP SWAP3 SWAP2 POP POP JUMP JUMPDEST PUSH32 0x50726F7879203A3A204C6F676963616C20636F6E7472616374732063616E6E6F PUSH1 0x0 DUP3 ADD MSTORE PUSH32 0x74206265207A65726F2061646472657373657300000000000000000000000000 PUSH1 0x20 DUP3 ADD MSTORE POP JUMP JUMPDEST PUSH1 0x0 PUSH2 0x482 PUSH1 0x33 DUP4 PUSH2 0x415 JUMP JUMPDEST SWAP2 POP PUSH2 0x48D DUP3 PUSH2 0x426 JUMP JUMPDEST PUSH1 0x40 DUP3 ADD SWAP1 POP SWAP2 SWAP1 POP JUMP JUMPDEST PUSH1 0x0 PUSH1 0x20 DUP3 ADD SWAP1 POP DUP2 DUP2 SUB PUSH1 0x0 DUP4 ADD MSTORE PUSH2 0x4B1 DUP2 PUSH2 0x475 JUMP JUMPDEST SWAP1 POP SWAP2 SWAP1 POP JUMP JUMPDEST PUSH1 0x0 DUP2 MLOAD SWAP1 POP SWAP2 SWAP1 POP JUMP JUMPDEST PUSH1 0x0 DUP2 SWAP1 POP SWAP3 SWAP2 POP POP JUMP JUMPDEST PUSH1 0x0 PUSH2 0x4D9 DUP3 PUSH2 0x4B8 JUMP JUMPDEST PUSH2 0x4E3 DUP2 DUP6 PUSH2 0x4C3 JUMP JUMPDEST SWAP4 POP PUSH2 0x4F3 DUP2 DUP6 PUSH1 0x20 DUP7 ADD PUSH2 0x316 JUMP JUMPDEST DUP1 DUP5 ADD SWAP2 POP POP SWAP3 SWAP2 POP POP JUMP JUMPDEST PUSH1 0x0 PUSH2 0x50B DUP3 DUP5 PUSH2 0x4CE JUMP JUMPDEST SWAP2 POP DUP2 SWAP1 POP SWAP3 SWAP2 POP POP JUMP JUMPDEST PUSH1 0x0 DUP2 MLOAD SWAP1 POP SWAP2 SWAP1 POP JUMP JUMPDEST PUSH1 0x0 PUSH2 0x52C DUP3 PUSH2 0x516 JUMP JUMPDEST PUSH2 0x536 DUP2 DUP6 PUSH2 0x415 JUMP JUMPDEST SWAP4 POP PUSH2 0x546 DUP2 DUP6 PUSH1 0x20 DUP7 ADD PUSH2 0x316 JUMP JUMPDEST PUSH2 0x54F DUP2 PUSH2 0x259 JUMP JUMPDEST DUP5 ADD SWAP2 POP POP SWAP3 SWAP2 POP POP JUMP JUMPDEST PUSH1 0x0 PUSH1 0x20 DUP3 ADD SWAP1 POP DUP2 DUP2 SUB PUSH1 0x0 DUP4 ADD MSTORE PUSH2 0x574 DUP2 DUP5 PUSH2 0x521 JUMP JUMPDEST SWAP1 POP SWAP3 SWAP2 POP POP JUMP JUMPDEST PUSH1 0xC2 DUP1 PUSH2 0x58A PUSH1 0x0 CODECOPY PUSH1 0x0 RETURN INVALID PUSH1 0x80 PUSH1 0x40 MSTORE CALLDATASIZE PUSH1 0xA JUMPI STOP JUMPDEST PUSH1 0x0 PUSH1 0x36 PUSH32 0x5F62CE3C9AEBD463C7A36AB1B244D2BB94F07A2C13889B3B687940EBC467B9B3 PUSH1 0x0 SHL PUSH1 0x82 JUMP JUMPDEST PUSH1 0x0 ADD PUSH1 0x0 SWAP1 SLOAD SWAP1 PUSH2 0x100 EXP SWAP1 DIV PUSH20 0xFFFFFFFFFFFFFFFFFFFFFFFFFFFFFFFFFFFFFFFF AND SWAP1 POP PUSH1 0x40 MLOAD CALLDATASIZE PUSH1 0x0 DUP3 CALLDATACOPY PUSH1 0x0 DUP1 CALLDATASIZE DUP4 DUP6 GAS DELEGATECALL RETURNDATASIZE DUP1 PUSH1 0x0 DUP5 RETURNDATACOPY DUP2 PUSH1 0x0 DUP2 EQ PUSH1 0x7E JUMPI DUP2 DUP5 RETURN JUMPDEST DUP2 DUP5 REVERT JUMPDEST PUSH1 0x0 DUP2 SWAP1 POP SWAP2 SWAP1 POP JUMP INVALID LOG2 PUSH5 0x6970667358 0x22 SLT KECCAK256 CALLDATALOAD PUSH10 0x5E5DFBA3B804D5DF38B DUP15 0xB5 MSIZE SWAP12 0x4B 0x2F CALL CALLER 0xDD DUP15 XOR STATICCALL LOG0 MSIZE DUP2 SSTORE LOG3 PUSH26 0x516264736F6C634300080F0033A2646970667358221220A6457E PUSH15 0x68A946E63814AC4A781797AF3FA630 0xA8 LOG4 0xE1 EXTCODESIZE 0xCD 0xE8 SWAP6 DUP15 LOG0 0xCA 0xE0 LOG2 0xCC PUSH5 0x736F6C6343 STOP ADDMOD 0xF STOP CALLER "
		},
		"gasEstimates": {
			"creation": {
				"codeDepositCost": "1803200",
				"executionCost": "infinite",
				"totalCost": "infinite"
			},
			"external": {
				"calibrationTemplate(address)": "infinite",
				"lastMint(address)": "infinite",
				"mint(address,string)": "infinite",
				"owner()": "2611",
				"pause()": "infinite",
				"paused()": "2552",
				"renounceOwnership()": "30352",
				"routerTemplateMap(address)": "2891",
				"routers(uint256)": "2929",
				"setLogic(address,bool)": "29912",
				"setSetting(address)": "26986",
				"setUpdateUtilsAddres(string,uint16,address)": "infinite",
				"settings()": "2580",
				"transferOwnership(address)": "30785",
				"unpause()": "infinite",
				"updateUtilsAddres(string,uint16)": "infinite",
				"vaultRouterCount()": "2518"
			}
		},
		"methodIdentifiers": {
			"calibrationTemplate(address)": "e425a4b3",
			"lastMint(address)": "adc20b1c",
			"mint(address,string)": "d0def521",
			"owner()": "8da5cb5b",
			"pause()": "8456cb59",
			"paused()": "5c975abb",
			"renounceOwnership()": "715018a6",
			"routerTemplateMap(address)": "3955d09a",
			"routers(uint256)": "4e9c1118",
			"setLogic(address,bool)": "5f43b6b3",
			"setSetting(address)": "17449420",
			"setUpdateUtilsAddres(string,uint16,address)": "5fe07115",
			"settings()": "e06174e4",
			"transferOwnership(address)": "f2fde38b",
			"unpause()": "3f4ba83a",
			"updateUtilsAddres(string,uint16)": "816d116f",
			"vaultRouterCount()": "6f631e6a"
		}
	},
	"abi": [
		{
			"inputs": [
				{
					"internalType": "address",
					"name": "settings_",
					"type": "address"
				}
			],
			"stateMutability": "nonpayable",
			"type": "constructor"
		},
		{
			"anonymous": false,
			"inputs": [
				{
					"indexed": true,
					"internalType": "address",
					"name": "router",
					"type": "address"
				},
				{
					"indexed": true,
					"internalType": "address",
					"name": "template",
					"type": "address"
				},
				{
					"indexed": false,
					"internalType": "uint256",
					"name": "vaultRouterCount",
					"type": "uint256"
				}
			],
			"name": "Mint",
			"type": "event"
		},
		{
			"anonymous": false,
			"inputs": [
				{
					"indexed": true,
					"internalType": "address",
					"name": "previousOwner",
					"type": "address"
				},
				{
					"indexed": true,
					"internalType": "address",
					"name": "newOwner",
					"type": "address"
				}
			],
			"name": "OwnershipTransferred",
			"type": "event"
		},
		{
			"anonymous": false,
			"inputs": [
				{
					"indexed": false,
					"internalType": "address",
					"name": "account",
					"type": "address"
				}
			],
			"name": "Paused",
			"type": "event"
		},
		{
			"anonymous": false,
			"inputs": [
				{
					"indexed": false,
					"internalType": "address",
					"name": "account",
					"type": "address"
				}
			],
			"name": "Unpaused",
			"type": "event"
		},
		{
			"inputs": [
				{
					"internalType": "address",
					"name": "",
					"type": "address"
				}
			],
			"name": "calibrationTemplate",
			"outputs": [
				{
					"internalType": "address",
					"name": "",
					"type": "address"
				}
			],
			"stateMutability": "view",
			"type": "function"
		},
		{
			"inputs": [
				{
					"internalType": "address",
					"name": "",
					"type": "address"
				}
			],
			"name": "lastMint",
			"outputs": [
				{
					"internalType": "address",
					"name": "",
					"type": "address"
				}
			],
			"stateMutability": "view",
			"type": "function"
		},
		{
			"inputs": [
				{
					"internalType": "address",
					"name": "routerTemplate",
					"type": "address"
				},
				{
					"internalType": "string",
					"name": "name",
					"type": "string"
				}
			],
			"name": "mint",
			"outputs": [
				{
					"internalType": "uint256",
					"name": "",
					"type": "uint256"
				}
			],
			"stateMutability": "nonpayable",
			"type": "function"
		},
		{
			"inputs": [],
			"name": "owner",
			"outputs": [
				{
					"internalType": "address",
					"name": "",
					"type": "address"
				}
			],
			"stateMutability": "view",
			"type": "function"
		},
		{
			"inputs": [],
			"name": "pause",
			"outputs": [],
			"stateMutability": "nonpayable",
			"type": "function"
		},
		{
			"inputs": [],
			"name": "paused",
			"outputs": [
				{
					"internalType": "bool",
					"name": "",
					"type": "bool"
				}
			],
			"stateMutability": "view",
			"type": "function"
		},
		{
			"inputs": [],
			"name": "renounceOwnership",
			"outputs": [],
			"stateMutability": "nonpayable",
			"type": "function"
		},
		{
			"inputs": [
				{
					"internalType": "address",
					"name": "",
					"type": "address"
				}
			],
			"name": "routerTemplateMap",
			"outputs": [
				{
					"internalType": "bool",
					"name": "",
					"type": "bool"
				}
			],
			"stateMutability": "view",
			"type": "function"
		},
		{
			"inputs": [
				{
					"internalType": "uint256",
					"name": "",
					"type": "uint256"
				}
			],
			"name": "routers",
			"outputs": [
				{
					"internalType": "address",
					"name": "",
					"type": "address"
				}
			],
			"stateMutability": "view",
			"type": "function"
		},
		{
			"inputs": [
				{
					"internalType": "address",
					"name": "router",
					"type": "address"
				},
				{
					"internalType": "bool",
					"name": "ratify",
					"type": "bool"
				}
			],
			"name": "setLogic",
			"outputs": [],
			"stateMutability": "nonpayable",
			"type": "function"
		},
		{
			"inputs": [
				{
					"internalType": "address",
					"name": "newSettings",
					"type": "address"
				}
			],
			"name": "setSetting",
			"outputs": [],
			"stateMutability": "nonpayable",
			"type": "function"
		},
		{
			"inputs": [
				{
					"internalType": "string",
					"name": "versionsName",
					"type": "string"
				},
				{
					"internalType": "uint16",
					"name": "versions",
					"type": "uint16"
				},
				{
					"internalType": "address",
					"name": "updataTemplate",
					"type": "address"
				}
			],
			"name": "setUpdateUtilsAddres",
			"outputs": [],
			"stateMutability": "nonpayable",
			"type": "function"
		},
		{
			"inputs": [],
			"name": "settings",
			"outputs": [
				{
					"internalType": "address",
					"name": "",
					"type": "address"
				}
			],
			"stateMutability": "view",
			"type": "function"
		},
		{
			"inputs": [
				{
					"internalType": "address",
					"name": "newOwner",
					"type": "address"
				}
			],
			"name": "transferOwnership",
			"outputs": [],
			"stateMutability": "nonpayable",
			"type": "function"
		},
		{
			"inputs": [],
			"name": "unpause",
			"outputs": [],
			"stateMutability": "nonpayable",
			"type": "function"
		},
		{
			"inputs": [
				{
					"internalType": "string",
					"name": "",
					"type": "string"
				},
				{
					"internalType": "uint16",
					"name": "",
					"type": "uint16"
				}
			],
			"name": "updateUtilsAddres",
			"outputs": [
				{
					"internalType": "address",
					"name": "",
					"type": "address"
				}
			],
			"stateMutability": "view",
			"type": "function"
		},
		{
			"inputs": [],
			"name": "vaultRouterCount",
			"outputs": [
				{
					"internalType": "uint256",
					"name": "",
					"type": "uint256"
				}
			],
			"stateMutability": "view",
			"type": "function"
		}
	]
}